{
  "_format": "hh-sol-artifact-1",
  "contractName": "Marketplace",
  "sourceName": "contracts/marketplace/Marketplace.sol",
  "abi": [
    {
      "inputs": [
        {
          "internalType": "address payable",
          "name": "_controlCenter",
          "type": "address"
        },
        {
          "internalType": "address",
          "name": "_trustedForwarder",
          "type": "address"
        },
        {
          "internalType": "address",
          "name": "_nativeTokenWrapper",
          "type": "address"
        },
        {
          "internalType": "string",
          "name": "_uri",
          "type": "string"
        },
        {
          "internalType": "uint256",
          "name": "_marketFeeBps",
          "type": "uint256"
        }
      ],
      "stateMutability": "nonpayable",
      "type": "constructor"
    },
    {
      "anonymous": false,
      "inputs": [
        {
          "indexed": false,
          "internalType": "uint256",
          "name": "timeBuffer",
          "type": "uint256"
        },
        {
          "indexed": false,
          "internalType": "uint256",
          "name": "bidBufferBps",
          "type": "uint256"
        }
      ],
      "name": "AuctionBuffersUpdated",
      "type": "event"
    },
    {
      "anonymous": false,
      "inputs": [
        {
          "indexed": true,
          "internalType": "uint256",
          "name": "listingId",
          "type": "uint256"
        },
        {
          "indexed": true,
          "internalType": "address",
          "name": "closer",
          "type": "address"
        },
        {
          "indexed": true,
          "internalType": "bool",
          "name": "cancelled",
          "type": "bool"
        },
        {
          "indexed": false,
          "internalType": "address",
          "name": "auctionCreator",
          "type": "address"
        },
        {
          "indexed": false,
          "internalType": "address",
          "name": "winningBidder",
          "type": "address"
        }
      ],
      "name": "AuctionClosed",
      "type": "event"
    },
    {
      "anonymous": false,
      "inputs": [
        {
          "indexed": false,
          "internalType": "bool",
          "name": "restricted",
          "type": "bool"
        }
      ],
      "name": "ListingRestricted",
      "type": "event"
    },
    {
      "anonymous": false,
      "inputs": [
        {
          "indexed": true,
          "internalType": "uint256",
          "name": "listingId",
          "type": "uint256"
        },
        {
          "indexed": true,
          "internalType": "address",
          "name": "listingCreator",
          "type": "address"
        }
      ],
      "name": "ListingUpdate",
      "type": "event"
    },
    {
      "anonymous": false,
      "inputs": [
        {
          "indexed": false,
          "internalType": "uint64",
          "name": "newFee",
          "type": "uint64"
        }
      ],
      "name": "MarketFeeUpdate",
      "type": "event"
    },
    {
      "anonymous": false,
      "inputs": [
        {
          "indexed": true,
          "internalType": "uint256",
          "name": "listingId",
          "type": "uint256"
        },
        {
          "indexed": true,
          "internalType": "address",
          "name": "assetContract",
          "type": "address"
        },
        {
          "indexed": true,
          "internalType": "address",
          "name": "lister",
          "type": "address"
        },
        {
          "components": [
            {
              "internalType": "uint256",
              "name": "listingId",
              "type": "uint256"
            },
            {
              "internalType": "address",
              "name": "tokenOwner",
              "type": "address"
            },
            {
              "internalType": "address",
              "name": "assetContract",
              "type": "address"
            },
            {
              "internalType": "uint256",
              "name": "tokenId",
              "type": "uint256"
            },
            {
              "internalType": "uint256",
              "name": "startTime",
              "type": "uint256"
            },
            {
              "internalType": "uint256",
              "name": "endTime",
              "type": "uint256"
            },
            {
              "internalType": "uint256",
              "name": "quantity",
              "type": "uint256"
            },
            {
              "internalType": "address",
              "name": "currency",
              "type": "address"
            },
            {
              "internalType": "uint256",
              "name": "reservePricePerToken",
              "type": "uint256"
            },
            {
              "internalType": "uint256",
              "name": "buyoutPricePerToken",
              "type": "uint256"
            },
            {
              "internalType": "enum IMarketplace.TokenType",
              "name": "tokenType",
              "type": "uint8"
            },
            {
              "internalType": "enum IMarketplace.ListingType",
              "name": "listingType",
              "type": "uint8"
            }
          ],
          "indexed": false,
          "internalType": "struct IMarketplace.Listing",
          "name": "listing",
          "type": "tuple"
        }
      ],
      "name": "NewListing",
      "type": "event"
    },
    {
      "anonymous": false,
      "inputs": [
        {
          "indexed": true,
          "internalType": "uint256",
          "name": "listingId",
          "type": "uint256"
        },
        {
          "indexed": true,
          "internalType": "address",
          "name": "offeror",
          "type": "address"
        },
        {
          "indexed": true,
          "internalType": "enum IMarketplace.ListingType",
          "name": "listingType",
          "type": "uint8"
        },
        {
          "indexed": false,
          "internalType": "uint256",
          "name": "quantityWanted",
          "type": "uint256"
        },
        {
          "indexed": false,
          "internalType": "uint256",
          "name": "totalOfferAmount",
          "type": "uint256"
        },
        {
          "indexed": false,
          "internalType": "address",
          "name": "currency",
          "type": "address"
        }
      ],
      "name": "NewOffer",
      "type": "event"
    },
    {
      "anonymous": false,
      "inputs": [
        {
          "indexed": true,
          "internalType": "uint256",
          "name": "listingId",
          "type": "uint256"
        },
        {
          "indexed": true,
          "internalType": "address",
          "name": "assetContract",
          "type": "address"
        },
        {
          "indexed": true,
          "internalType": "address",
          "name": "lister",
          "type": "address"
        },
        {
          "indexed": false,
          "internalType": "address",
          "name": "buyer",
          "type": "address"
        },
        {
          "indexed": false,
          "internalType": "uint256",
          "name": "quantityBought",
          "type": "uint256"
        },
        {
          "indexed": false,
          "internalType": "uint256",
          "name": "totalPricePaid",
          "type": "uint256"
        }
      ],
      "name": "NewSale",
      "type": "event"
    },
    {
      "anonymous": false,
      "inputs": [
        {
          "indexed": true,
          "internalType": "bytes32",
          "name": "role",
          "type": "bytes32"
        },
        {
          "indexed": true,
          "internalType": "bytes32",
          "name": "previousAdminRole",
          "type": "bytes32"
        },
        {
          "indexed": true,
          "internalType": "bytes32",
          "name": "newAdminRole",
          "type": "bytes32"
        }
      ],
      "name": "RoleAdminChanged",
      "type": "event"
    },
    {
      "anonymous": false,
      "inputs": [
        {
          "indexed": true,
          "internalType": "bytes32",
          "name": "role",
          "type": "bytes32"
        },
        {
          "indexed": true,
          "internalType": "address",
          "name": "account",
          "type": "address"
        },
        {
          "indexed": true,
          "internalType": "address",
          "name": "sender",
          "type": "address"
        }
      ],
      "name": "RoleGranted",
      "type": "event"
    },
    {
      "anonymous": false,
      "inputs": [
        {
          "indexed": true,
          "internalType": "bytes32",
          "name": "role",
          "type": "bytes32"
        },
        {
          "indexed": true,
          "internalType": "address",
          "name": "account",
          "type": "address"
        },
        {
          "indexed": true,
          "internalType": "address",
          "name": "sender",
          "type": "address"
        }
      ],
      "name": "RoleRevoked",
      "type": "event"
    },
    {
      "inputs": [],
      "name": "DEFAULT_ADMIN_ROLE",
      "outputs": [
        {
          "internalType": "bytes32",
          "name": "",
          "type": "bytes32"
        }
      ],
      "stateMutability": "view",
      "type": "function"
    },
    {
      "inputs": [],
      "name": "LISTER_ROLE",
      "outputs": [
        {
          "internalType": "bytes32",
          "name": "",
          "type": "bytes32"
        }
      ],
      "stateMutability": "view",
      "type": "function"
    },
    {
      "inputs": [],
      "name": "MAX_BPS",
      "outputs": [
        {
          "internalType": "uint64",
          "name": "",
          "type": "uint64"
        }
      ],
      "stateMutability": "view",
      "type": "function"
    },
    {
      "inputs": [],
      "name": "NATIVE_TOKEN",
      "outputs": [
        {
          "internalType": "address",
          "name": "",
          "type": "address"
        }
      ],
      "stateMutability": "view",
      "type": "function"
    },
    {
      "inputs": [
        {
          "internalType": "uint256",
          "name": "_listingId",
          "type": "uint256"
        },
        {
          "internalType": "address",
          "name": "offeror",
          "type": "address"
        }
      ],
      "name": "acceptOffer",
      "outputs": [],
      "stateMutability": "nonpayable",
      "type": "function"
    },
    {
      "inputs": [],
      "name": "bidBufferBps",
      "outputs": [
        {
          "internalType": "uint64",
          "name": "",
          "type": "uint64"
        }
      ],
      "stateMutability": "view",
      "type": "function"
    },
    {
      "inputs": [
        {
          "internalType": "uint256",
          "name": "_listingId",
          "type": "uint256"
        },
        {
          "internalType": "uint256",
          "name": "_quantityToBuy",
          "type": "uint256"
        }
      ],
      "name": "buy",
      "outputs": [],
      "stateMutability": "payable",
      "type": "function"
    },
    {
      "inputs": [
        {
          "internalType": "uint256",
          "name": "_listingId",
          "type": "uint256"
        },
        {
          "internalType": "address",
          "name": "_closeFor",
          "type": "address"
        }
      ],
      "name": "closeAuction",
      "outputs": [],
      "stateMutability": "nonpayable",
      "type": "function"
    },
    {
      "inputs": [],
      "name": "contractURI",
      "outputs": [
        {
          "internalType": "string",
          "name": "",
          "type": "string"
        }
      ],
      "stateMutability": "view",
      "type": "function"
    },
    {
      "inputs": [
        {
          "components": [
            {
              "internalType": "address",
              "name": "assetContract",
              "type": "address"
            },
            {
              "internalType": "uint256",
              "name": "tokenId",
              "type": "uint256"
            },
            {
              "internalType": "uint256",
              "name": "startTime",
              "type": "uint256"
            },
            {
              "internalType": "uint256",
              "name": "secondsUntilEndTime",
              "type": "uint256"
            },
            {
              "internalType": "uint256",
              "name": "quantityToList",
              "type": "uint256"
            },
            {
              "internalType": "address",
              "name": "currencyToAccept",
              "type": "address"
            },
            {
              "internalType": "uint256",
              "name": "reservePricePerToken",
              "type": "uint256"
            },
            {
              "internalType": "uint256",
              "name": "buyoutPricePerToken",
              "type": "uint256"
            },
            {
              "internalType": "enum IMarketplace.ListingType",
              "name": "listingType",
              "type": "uint8"
            }
          ],
          "internalType": "struct IMarketplace.ListingParameters",
          "name": "_params",
          "type": "tuple"
        }
      ],
      "name": "createListing",
      "outputs": [],
      "stateMutability": "nonpayable",
      "type": "function"
    },
    {
      "inputs": [
        {
          "internalType": "bytes32",
          "name": "role",
          "type": "bytes32"
        }
      ],
      "name": "getRoleAdmin",
      "outputs": [
        {
          "internalType": "bytes32",
          "name": "",
          "type": "bytes32"
        }
      ],
      "stateMutability": "view",
      "type": "function"
    },
    {
      "inputs": [
        {
          "internalType": "bytes32",
          "name": "role",
          "type": "bytes32"
        },
        {
          "internalType": "uint256",
          "name": "index",
          "type": "uint256"
        }
      ],
      "name": "getRoleMember",
      "outputs": [
        {
          "internalType": "address",
          "name": "",
          "type": "address"
        }
      ],
      "stateMutability": "view",
      "type": "function"
    },
    {
      "inputs": [
        {
          "internalType": "bytes32",
          "name": "role",
          "type": "bytes32"
        }
      ],
      "name": "getRoleMemberCount",
      "outputs": [
        {
          "internalType": "uint256",
          "name": "",
          "type": "uint256"
        }
      ],
      "stateMutability": "view",
      "type": "function"
    },
    {
      "inputs": [
        {
          "internalType": "bytes32",
          "name": "role",
          "type": "bytes32"
        },
        {
          "internalType": "address",
          "name": "account",
          "type": "address"
        }
      ],
      "name": "grantRole",
      "outputs": [],
      "stateMutability": "nonpayable",
      "type": "function"
    },
    {
      "inputs": [
        {
          "internalType": "bytes32",
          "name": "role",
          "type": "bytes32"
        },
        {
          "internalType": "address",
          "name": "account",
          "type": "address"
        }
      ],
      "name": "hasRole",
      "outputs": [
        {
          "internalType": "bool",
          "name": "",
          "type": "bool"
        }
      ],
      "stateMutability": "view",
      "type": "function"
    },
    {
      "inputs": [
        {
          "internalType": "address",
          "name": "forwarder",
          "type": "address"
        }
      ],
      "name": "isTrustedForwarder",
      "outputs": [
        {
          "internalType": "bool",
          "name": "",
          "type": "bool"
        }
      ],
      "stateMutability": "view",
      "type": "function"
    },
    {
      "inputs": [
        {
          "internalType": "uint256",
          "name": "",
          "type": "uint256"
        }
      ],
      "name": "listings",
      "outputs": [
        {
          "internalType": "uint256",
          "name": "listingId",
          "type": "uint256"
        },
        {
          "internalType": "address",
          "name": "tokenOwner",
          "type": "address"
        },
        {
          "internalType": "address",
          "name": "assetContract",
          "type": "address"
        },
        {
          "internalType": "uint256",
          "name": "tokenId",
          "type": "uint256"
        },
        {
          "internalType": "uint256",
          "name": "startTime",
          "type": "uint256"
        },
        {
          "internalType": "uint256",
          "name": "endTime",
          "type": "uint256"
        },
        {
          "internalType": "uint256",
          "name": "quantity",
          "type": "uint256"
        },
        {
          "internalType": "address",
          "name": "currency",
          "type": "address"
        },
        {
          "internalType": "uint256",
          "name": "reservePricePerToken",
          "type": "uint256"
        },
        {
          "internalType": "uint256",
          "name": "buyoutPricePerToken",
          "type": "uint256"
        },
        {
          "internalType": "enum IMarketplace.TokenType",
          "name": "tokenType",
          "type": "uint8"
        },
        {
          "internalType": "enum IMarketplace.ListingType",
          "name": "listingType",
          "type": "uint8"
        }
      ],
      "stateMutability": "view",
      "type": "function"
    },
    {
      "inputs": [],
      "name": "marketFeeBps",
      "outputs": [
        {
          "internalType": "uint64",
          "name": "",
          "type": "uint64"
        }
      ],
      "stateMutability": "view",
      "type": "function"
    },
    {
      "inputs": [
        {
          "internalType": "bytes[]",
          "name": "data",
          "type": "bytes[]"
        }
      ],
      "name": "multicall",
      "outputs": [
        {
          "internalType": "bytes[]",
          "name": "results",
          "type": "bytes[]"
        }
      ],
      "stateMutability": "nonpayable",
      "type": "function"
    },
    {
      "inputs": [],
      "name": "nativeTokenWrapper",
      "outputs": [
        {
          "internalType": "address",
          "name": "",
          "type": "address"
        }
      ],
      "stateMutability": "view",
      "type": "function"
    },
    {
      "inputs": [
        {
          "internalType": "uint256",
          "name": "_listingId",
          "type": "uint256"
        },
        {
          "internalType": "uint256",
          "name": "_quantityWanted",
          "type": "uint256"
        },
        {
          "internalType": "address",
          "name": "_currency",
          "type": "address"
        },
        {
          "internalType": "uint256",
          "name": "_pricePerToken",
          "type": "uint256"
        }
      ],
      "name": "offer",
      "outputs": [],
      "stateMutability": "payable",
      "type": "function"
    },
    {
      "inputs": [
        {
          "internalType": "uint256",
          "name": "",
          "type": "uint256"
        },
        {
          "internalType": "address",
          "name": "",
          "type": "address"
        }
      ],
      "name": "offers",
      "outputs": [
        {
          "internalType": "uint256",
          "name": "listingId",
          "type": "uint256"
        },
        {
          "internalType": "address",
          "name": "offeror",
          "type": "address"
        },
        {
          "internalType": "uint256",
          "name": "quantityWanted",
          "type": "uint256"
        },
        {
          "internalType": "address",
          "name": "currency",
          "type": "address"
        },
        {
          "internalType": "uint256",
          "name": "pricePerToken",
          "type": "uint256"
        }
      ],
      "stateMutability": "view",
      "type": "function"
    },
    {
      "inputs": [
        {
          "internalType": "address",
          "name": "",
          "type": "address"
        },
        {
          "internalType": "address",
          "name": "",
          "type": "address"
        },
        {
          "internalType": "uint256[]",
          "name": "",
          "type": "uint256[]"
        },
        {
          "internalType": "uint256[]",
          "name": "",
          "type": "uint256[]"
        },
        {
          "internalType": "bytes",
          "name": "",
          "type": "bytes"
        }
      ],
      "name": "onERC1155BatchReceived",
      "outputs": [
        {
          "internalType": "bytes4",
          "name": "",
          "type": "bytes4"
        }
      ],
      "stateMutability": "nonpayable",
      "type": "function"
    },
    {
      "inputs": [
        {
          "internalType": "address",
          "name": "",
          "type": "address"
        },
        {
          "internalType": "address",
          "name": "",
          "type": "address"
        },
        {
          "internalType": "uint256",
          "name": "",
          "type": "uint256"
        },
        {
          "internalType": "uint256",
          "name": "",
          "type": "uint256"
        },
        {
          "internalType": "bytes",
          "name": "",
          "type": "bytes"
        }
      ],
      "name": "onERC1155Received",
      "outputs": [
        {
          "internalType": "bytes4",
          "name": "",
          "type": "bytes4"
        }
      ],
      "stateMutability": "nonpayable",
      "type": "function"
    },
    {
      "inputs": [
        {
          "internalType": "address",
          "name": "",
          "type": "address"
        },
        {
          "internalType": "address",
          "name": "",
          "type": "address"
        },
        {
          "internalType": "uint256",
          "name": "",
          "type": "uint256"
        },
        {
          "internalType": "bytes",
          "name": "",
          "type": "bytes"
        }
      ],
      "name": "onERC721Received",
      "outputs": [
        {
          "internalType": "bytes4",
          "name": "",
          "type": "bytes4"
        }
      ],
      "stateMutability": "pure",
      "type": "function"
    },
    {
      "inputs": [
        {
          "internalType": "bytes32",
          "name": "role",
          "type": "bytes32"
        },
        {
          "internalType": "address",
          "name": "account",
          "type": "address"
        }
      ],
      "name": "renounceRole",
      "outputs": [],
      "stateMutability": "nonpayable",
      "type": "function"
    },
    {
      "inputs": [],
      "name": "restrictedListerRoleOnly",
      "outputs": [
        {
          "internalType": "bool",
          "name": "",
          "type": "bool"
        }
      ],
      "stateMutability": "view",
      "type": "function"
    },
    {
      "inputs": [
        {
          "internalType": "bytes32",
          "name": "role",
          "type": "bytes32"
        },
        {
          "internalType": "address",
          "name": "account",
          "type": "address"
        }
      ],
      "name": "revokeRole",
      "outputs": [],
      "stateMutability": "nonpayable",
      "type": "function"
    },
    {
      "inputs": [
        {
          "internalType": "uint256",
          "name": "_timeBuffer",
          "type": "uint256"
        },
        {
          "internalType": "uint256",
          "name": "_bidBufferBps",
          "type": "uint256"
        }
      ],
      "name": "setAuctionBuffers",
      "outputs": [],
      "stateMutability": "nonpayable",
      "type": "function"
    },
    {
      "inputs": [
        {
          "internalType": "string",
          "name": "_uri",
          "type": "string"
        }
      ],
      "name": "setContractURI",
      "outputs": [],
      "stateMutability": "nonpayable",
      "type": "function"
    },
    {
      "inputs": [
        {
          "internalType": "uint256",
          "name": "_feeBps",
          "type": "uint256"
        }
      ],
      "name": "setMarketFeeBps",
      "outputs": [],
      "stateMutability": "nonpayable",
      "type": "function"
    },
    {
      "inputs": [
        {
          "internalType": "bool",
          "name": "restricted",
          "type": "bool"
        }
      ],
      "name": "setRestrictedListerRoleOnly",
      "outputs": [],
      "stateMutability": "nonpayable",
      "type": "function"
    },
    {
      "inputs": [
        {
          "internalType": "bytes4",
          "name": "interfaceId",
          "type": "bytes4"
        }
      ],
      "name": "supportsInterface",
      "outputs": [
        {
          "internalType": "bool",
          "name": "",
          "type": "bool"
        }
      ],
      "stateMutability": "view",
      "type": "function"
    },
    {
      "inputs": [],
      "name": "timeBuffer",
      "outputs": [
        {
          "internalType": "uint64",
          "name": "",
          "type": "uint64"
        }
      ],
      "stateMutability": "view",
      "type": "function"
    },
    {
      "inputs": [],
      "name": "totalListings",
      "outputs": [
        {
          "internalType": "uint256",
          "name": "",
          "type": "uint256"
        }
      ],
      "stateMutability": "view",
      "type": "function"
    },
    {
      "inputs": [
        {
          "internalType": "uint256",
          "name": "_listingId",
          "type": "uint256"
        },
        {
          "internalType": "uint256",
          "name": "_quantityToList",
          "type": "uint256"
        },
        {
          "internalType": "uint256",
          "name": "_reservePricePerToken",
          "type": "uint256"
        },
        {
          "internalType": "uint256",
          "name": "_buyoutPricePerToken",
          "type": "uint256"
        },
        {
          "internalType": "address",
          "name": "_currencyToAccept",
          "type": "address"
        },
        {
          "internalType": "uint256",
          "name": "_startTime",
          "type": "uint256"
        },
        {
          "internalType": "uint256",
          "name": "_secondsUntilEndTime",
          "type": "uint256"
        }
      ],
      "name": "updateListing",
      "outputs": [],
      "stateMutability": "nonpayable",
      "type": "function"
    },
    {
      "inputs": [
        {
          "internalType": "uint256",
          "name": "",
          "type": "uint256"
        }
      ],
      "name": "winningBid",
      "outputs": [
        {
          "internalType": "uint256",
          "name": "listingId",
          "type": "uint256"
        },
        {
          "internalType": "address",
          "name": "offeror",
          "type": "address"
        },
        {
          "internalType": "uint256",
          "name": "quantityWanted",
          "type": "uint256"
        },
        {
          "internalType": "address",
          "name": "currency",
          "type": "address"
        },
        {
          "internalType": "uint256",
          "name": "pricePerToken",
          "type": "uint256"
        }
      ],
      "stateMutability": "view",
      "type": "function"
    },
    {
      "stateMutability": "payable",
      "type": "receive"
    }
  ],
  "bytecode": "0x60a060405260078054600160481b600160c81b0319167201f400000000000003840000000000000000001790553480156200003957600080fd5b5060405162005af638038062005af68339810160408190526200005c91620003bc565b6001600255600380546001600160a01b0319166001600160a01b038616179055815162000091906006906020850190620002e7565b50600480546001600160a01b0319166001600160a01b0387811691909117909155831660805260078054610100600160481b0319166101006001600160401b03841602179055620000ed6000620000e762000127565b62000143565b6200011c7ff94103142c1baabe9ac2b5d1487bf783de9e69cfeea9a72f5c9c94afd7877b8c620000e762000127565b505050505062000523565b60006200013e6200018660201b620023041760201c565b905090565b6200015a8282620001bf60201b620023311760201c565b6000828152600160209081526040909120620001819183906200233f620001cf821b17901c565b505050565b6003546000906001600160a01b0316331415620001aa575060131936013560601c90565b6200013e620001ef60201b620023541760201c565b620001cb8282620001f3565b5050565b6000620001e6836001600160a01b03841662000295565b90505b92915050565b3390565b6000828152602081815260408083206001600160a01b038516845290915290205460ff16620001cb576000828152602081815260408083206001600160a01b03851684529091529020805460ff191660011790556200025162000127565b6001600160a01b0316816001600160a01b0316837f2f8788117e7eff1d82e926ec794901d17c78024a50270940304540a733656f0d60405160405180910390a45050565b6000818152600183016020526040812054620002de57508154600181810184556000848152602080822090930184905584548482528286019093526040902091909155620001e9565b506000620001e9565b828054620002f590620004e6565b90600052602060002090601f01602090048101928262000319576000855562000364565b82601f106200033457805160ff191683800117855562000364565b8280016001018555821562000364579182015b828111156200036457825182559160200191906001019062000347565b506200037292915062000376565b5090565b5b8082111562000372576000815560010162000377565b6001600160a01b0381168114620003a357600080fd5b50565b634e487b7160e01b600052604160045260246000fd5b600080600080600060a08688031215620003d557600080fd5b8551620003e2816200038d565b80955050602080870151620003f7816200038d565b60408801519095506200040a816200038d565b60608801519094506001600160401b03808211156200042857600080fd5b818901915089601f8301126200043d57600080fd5b815181811115620004525762000452620003a6565b604051601f8201601f19908116603f011681019083821181831017156200047d576200047d620003a6565b816040528281528c868487010111156200049657600080fd5b600093505b82841015620004ba57848401860151818501870152928501926200049b565b82841115620004cc5760008684830101525b809750505050505050608086015190509295509295909350565b600181811c90821680620004fb57607f821691505b602082108114156200051d57634e487b7160e01b600052602260045260246000fd5b50919050565b60805161559b6200055b600039600081816109000152818161193d01528181614143015281816141b701526142c2015261559b6000f3fe60806040526004361061026e5760003560e01c8063ac9650d811610153578063de74e57b116100cb578063ebdfbce51161007f578063f23a6e6111610064578063f23a6e61146108c2578063f9ea29cb146108ee578063fd967f471461092257600080fd5b8063ebdfbce514610834578063ec91f2a41461089457600080fd5b8063e4104eaf116100b0578063e4104eaf146107d2578063e8a3d485146107f2578063ea0e02411461081457600080fd5b8063de74e57b146106f9578063deb26b941461079e57600080fd5b8063c78b616c11610122578063d4ac9b8c11610107578063d4ac9b8c1461063f578063d547741f146106c6578063d6febde8146106e657600080fd5b8063c78b616c14610609578063ca15c8731461061f57600080fd5b8063ac9650d81461057d578063acb1ba67146105aa578063bc197c81146105bd578063c4b5b15f146105e957600080fd5b80634e03f28d116101e65780639010d07c116101b557806391d148541161019a57806391d1485414610504578063938e3d7b14610548578063a217fddf1461056857600080fd5b80639010d07c146104c4578063918d407d146104e457600080fd5b80634e03f28d14610433578063572b6c051461045b57806361096ec61461048a5780636bab66ae146104a457600080fd5b80632f2ff15d1161023d578063354c7ab611610222578063354c7ab6146103b457806336568abe146103d45780633f5c3e87146103f457600080fd5b80632f2ff15d1461035457806331f7d9641461037457600080fd5b806301ffc9a71461027a578063150b7a02146102af578063248a9ca3146102f4578063296f4e161461033257600080fd5b3661027557005b600080fd5b34801561028657600080fd5b5061029a610295366004614a64565b610938565b60405190151581526020015b60405180910390f35b3480156102bb57600080fd5b506102db6102ca366004614afa565b630a85bd0160e11b95945050505050565b6040516001600160e01b031990911681526020016102a6565b34801561030057600080fd5b5061032461030f366004614b6d565b60009081526020819052604090206001015490565b6040519081526020016102a6565b34801561033e57600080fd5b5061035261034d366004614c06565b61098a565b005b34801561036057600080fd5b5061035261036f366004614c92565b610d7a565b34801561038057600080fd5b5061039c73eeeeeeeeeeeeeeeeeeeeeeeeeeeeeeeeeeeeeeee81565b6040516001600160a01b0390911681526020016102a6565b3480156103c057600080fd5b506103526103cf366004614cd0565b610da1565b3480156103e057600080fd5b506103526103ef366004614c92565b610e42565b34801561040057600080fd5b5060075461041a90610100900467ffffffffffffffff1681565b60405167ffffffffffffffff90911681526020016102a6565b34801561043f57600080fd5b5060075461041a90600160881b900467ffffffffffffffff1681565b34801561046757600080fd5b5061029a610476366004614ced565b6003546001600160a01b0391821691161490565b34801561049657600080fd5b5060075461029a9060ff1681565b3480156104b057600080fd5b506103526104bf366004614c92565b610e64565b3480156104d057600080fd5b5061039c6104df366004614d0a565b611168565b3480156104f057600080fd5b506103526104ff366004614c92565b611187565b34801561051057600080fd5b5061029a61051f366004614c92565b6000918252602082815260408084206001600160a01b0393909316845291905290205460ff1690565b34801561055457600080fd5b50610352610563366004614d2c565b611449565b34801561057457600080fd5b50610324600081565b34801561058957600080fd5b5061059d610598366004614d6e565b6115aa565b6040516102a69190614e3b565b6103526105b8366004614e9d565b61169f565b3480156105c957600080fd5b506102db6105d8366004614fcc565b63bc197c8160e01b95945050505050565b3480156105f557600080fd5b5061035261060436600461507a565b611997565b34801561061557600080fd5b5061032460055481565b34801561062b57600080fd5b5061032461063a366004614b6d565b611e73565b34801561064b57600080fd5b5061069461065a366004614b6d565b600a602052600090815260409020805460018201546002830154600384015460049094015492936001600160a01b03928316939192169085565b604080519586526001600160a01b0394851660208701528501929092529091166060830152608082015260a0016102a6565b3480156106d257600080fd5b506103526106e1366004614c92565b611e8a565b6103526106f4366004614d0a565b611e94565b34801561070557600080fd5b50610786610714366004614b6d565b600860208190526000918252604090912080546001820154600283015460038401546004850154600586015460068701546007880154988801546009890154600a9099015497996001600160a01b03978816999688169895979496939592941692909160ff808216916101009004168c565b6040516102a69c9b9a9998979695949392919061511a565b3480156107aa57600080fd5b506103247ff94103142c1baabe9ac2b5d1487bf783de9e69cfeea9a72f5c9c94afd7877b8c81565b3480156107de57600080fd5b506103526107ed366004614b6d565b612018565b3480156107fe57600080fd5b5061080761211a565b6040516102a6919061519e565b34801561082057600080fd5b5061035261082f366004614d0a565b6121a8565b34801561084057600080fd5b5061069461084f366004614c92565b60096020908152600092835260408084209091529082529020805460018201546002830154600384015460049094015492936001600160a01b03928316939192169085565b3480156108a057600080fd5b5060075461041a906901000000000000000000900467ffffffffffffffff1681565b3480156108ce57600080fd5b506102db6108dd3660046151b1565b63f23a6e6160e01b95945050505050565b3480156108fa57600080fd5b5061039c7f000000000000000000000000000000000000000000000000000000000000000081565b34801561092e57600080fd5b5061041a61271081565b60006001600160e01b03198216630271189760e51b148061096957506001600160e01b03198216630a85bd0160e11b145b8061098457506001600160e01b0319821663152a902d60e11b145b92915050565b60075460ff1615806109c357506109c37ff94103142c1baabe9ac2b5d1487bf783de9e69cfeea9a72f5c9c94afd7877b8c61051f612358565b610a3a5760405162461bcd60e51b815260206004820152602e60248201527f4d61726b6574706c6163653a2063616c6c657220646f6573206e6f742068617660448201527f65204c49535445525f524f4c452e00000000000000000000000000000000000060648201526084015b60405180910390fd5b6000610a44612362565b90506000610a50612358565b90506000610a618460000151612380565b90506000610a7382866080015161250c565b905060008111610aeb5760405162461bcd60e51b815260206004820152602660248201527f4d61726b6574706c6163653a206c697374696e6720696e76616c69642071756160448201527f6e746974792e00000000000000000000000000000000000000000000000000006064820152608401610a31565b610b0083866000015187602001518486612543565b6000604051806101800160405280868152602001856001600160a01b0316815260200187600001516001600160a01b031681526020018760200151815260200142886040015110610b55578760400151610b57565b425b81526020018760600151600014610b815787606001518860400151610b7c9190615230565b610b85565b6000195b81526020018381526020018760a001516001600160a01b031681526020018760c0015181526020018760e001518152602001846001811115610bc957610bc96150d9565b81526020018761010001516001811115610be557610be56150d9565b90526000868152600860208181526040928390208451815590840151600180830180546001600160a01b03199081166001600160a01b0394851617909155948601516002840180548716918416919091179055606086015160038401556080860151600484015560a0860151600584015560c0860151600684015560e0860151600784018054909616921691909117909355610100840151918101919091556101208301516009820155610140830151600a82018054949550859492939192909160ff19909116908381811115610cbe57610cbe6150d9565b0217905550610160820151600a8201805461ff001916610100836001811115610ce957610ce96150d9565b021790555060019150610cf99050565b8161016001516001811115610d1057610d106150d9565b1415610d2257610d22843084846128a6565b836001600160a01b031686600001516001600160a01b0316867f9e578277632a71dd17ab11c1f584c51deafef022c94389ecb050eb92713725f684604051610d6a9190615248565b60405180910390a4505050505050565b610d8482826129f8565b6000828152600160205260409020610d9c908261233f565b505050565b610dae600061051f612358565b610dfa5760405162461bcd60e51b815260206004820181905260248201527f4d61726b6574706c6163653a206e6f742061206d6f64756c652061646d696e2e6044820152606401610a31565b6007805460ff19168215159081179091556040519081527f80b4303f755d7d3d4d483a1580281ef7aaeb82947826a1dc63a6366875765cb0906020015b60405180910390a150565b610e4c8282612a25565b6000828152600160205260409020610d9c9082612abd565b600280541415610eb65760405162461bcd60e51b815260206004820152601f60248201527f5265656e7472616e637947756172643a207265656e7472616e742063616c6c006044820152606401610a31565b60028080556000838152600860208181526040808420815161018081018352815481526001808301546001600160a01b0390811695830195909552968201548416928101929092526003810154606083015260048101546080830152600581015460a0830152600681015460c0830152600781015490921660e0820152918101546101008301526009810154610120830152600a81015492939192909161014084019160ff1690811115610f6c57610f6c6150d9565b6001811115610f7d57610f7d6150d9565b8152602001600a820160019054906101000a900460ff166001811115610fa557610fa56150d9565b6001811115610fb657610fb66150d9565b905250905060018161016001516001811115610fd457610fd46150d9565b146110215760405162461bcd60e51b815260206004820152601c60248201527f4d61726b6574706c6163653a206e6f7420616e2061756374696f6e2e000000006044820152606401610a31565b6000838152600a6020908152604091829020825160a0810184528154815260018201546001600160a01b039081169382019390935260028201549381019390935260038101549091166060830152600401546080808301919091528201514210156110945761108f82612ad2565b61115d565b428260a001511061110d5760405162461bcd60e51b815260206004820152603660248201527f4d61726b6574706c6163653a2063616e6e6f7420636c6f73652061756374696f60448201527f6e206265666f72652069742068617320656e6465642e000000000000000000006064820152608401610a31565b81602001516001600160a01b0316836001600160a01b031614156111355761108f8282612c54565b80602001516001600160a01b0316836001600160a01b0316141561115d5761115d8282612e6f565b505060016002555050565b60008281526001602052604081206111809083613075565b9392505050565b6002805414156111d95760405162461bcd60e51b815260206004820152601f60248201527f5265656e7472616e637947756172643a207265656e7472616e742063616c6c006044820152606401610a31565b60028055816111e6612358565b6000828152600860205260409020600101546001600160a01b039081169116146112665760405162461bcd60e51b815260206004820152602b60248201527f4d61726b6574706c6163653a2063616c6c6572206973206e6f74206c6973746960448201526a37339031b932b0ba37b91760a91b6064820152608401610a31565b60008381526009602081815260408084206001600160a01b038088168652908352818520825160a08082018552825482526001808401548516838801526002808501548488015260038086015487166060808701919091526004968701546080808801919091528f8d526008808c528a8e208b5161018081018d5281548152818801548c169d81019d909d52948501548a169a8c019a909a5291830154908a01529481015494880194909452600584015491870191909152600683015460c0870152600783015490931660e08601529281015461010085015293840154610120840152600a8401549194939161014084019160ff9091169081111561136d5761136d6150d9565b600181111561137e5761137e6150d9565b8152602001600a820160019054906101000a900460ff1660018111156113a6576113a66150d9565b60018111156113b7576113b76150d9565b90525060008681526009602090815260408083206001600160a01b03891684529091528082208281556001810180546001600160a01b031990811690915560028201849055600382018054909116905560040191909155606084015190840151608085015192935061143d928492889290916114339190615311565b8660400151613081565b50506001600255505050565b600480546040805163a217fddf60e01b815290516001600160a01b03909216926391d1485492849263a217fddf9281810192602092909190829003018186803b15801561149557600080fd5b505afa1580156114a9573d6000803e3d6000fd5b505050506040513d601f19601f820116820180604052508101906114cd9190615330565b6114d5612358565b6040516001600160e01b031960e085901b16815260048101929092526001600160a01b0316602482015260440160206040518083038186803b15801561151a57600080fd5b505afa15801561152e573d6000803e3d6000fd5b505050506040513d601f19601f820116820180604052508101906115529190615349565b61159e5760405162461bcd60e51b815260206004820181905260248201527f4d61726b6574706c6163653a206e6f742070726f746f636f6c2061646d696e2e6044820152606401610a31565b610d9c600683836149cb565b60608167ffffffffffffffff8111156115c5576115c5614b86565b6040519080825280602002602001820160405280156115f857816020015b60608152602001906001900390816115e35790505b50905060005b82811015611698576116683085858481811061161c5761161c615366565b905060200281019061162e919061537c565b8080601f01602080910402602001604051908101604052809392919081815260200183838082843760009201919091525061322a92505050565b82828151811061167a5761167a615366565b60200260200101819052508080611690906153c3565b9150506115fe565b5092915050565b6002805414156116f15760405162461bcd60e51b815260206004820152601f60248201527f5265656e7472616e637947756172643a207265656e7472616e742063616c6c006044820152606401610a31565b60028080556000858152600860208181526040808420815161018081018352815481526001808301546001600160a01b0390811695830195909552968201548416928101929092526003810154606083015260048101546080830152600581015460a0830152600681015460c0830152600781015490921660e0820152918101546101008301526009810154610120830152600a81015492939192909161014084019160ff16908111156117a7576117a76150d9565b60018111156117b8576117b86150d9565b8152602001600a820160019054906101000a900460ff1660018111156117e0576117e06150d9565b60018111156117f1576117f16150d9565b815250509050428160a0015111801561180d5750428160800151105b6118595760405162461bcd60e51b815260206004820152601e60248201527f4d61726b6574706c6163653a20696e616374697665206c697369746e672e00006044820152606401610a31565b60006040518060a00160405280878152602001611874612358565b6001600160a01b03908116825260208201889052861660408201526060018490529050600182610160015160018111156118b0576118b06150d9565b14156118f25760e08201516001600160a01b0316606082015261014082015160c08301516118de919061250c565b60408201526118ed828261324f565b61198a565b6000826101600151600181111561190b5761190b6150d9565b141561198a576001600160a01b03841673eeeeeeeeeeeeeeeeeeeeeeeeeeeeeeeeeeeeeeee1461193b578361195d565b7f00000000000000000000000000000000000000000000000000000000000000005b6001600160a01b0316606082015261014082015161197b908661250c565b604082015261198a828261361f565b5050600160025550505050565b866119a0612358565b6000828152600860205260409020600101546001600160a01b03908116911614611a205760405162461bcd60e51b815260206004820152602b60248201527f4d61726b6574706c6163653a2063616c6c6572206973206e6f74206c6973746960448201526a37339031b932b0ba37b91760a91b6064820152608401610a31565b6000888152600860208181526040808420815161018081018352815481526001808301546001600160a01b039081169583019590955260028301548516938201939093526003820154606082015260048201546080820152600582015460a0820152600682015460c0820152600782015490931660e0840152928301546101008301526009830154610120830152600a83015491929161014084019160ff90911690811115611ad157611ad16150d9565b6001811115611ae257611ae26150d9565b8152602001600a820160019054906101000a900460ff166001811115611b0a57611b0a6150d9565b6001811115611b1b57611b1b6150d9565b8152505090506000611b328261014001518a61250c565b9050600060018361016001516001811115611b4f57611b4f6150d9565b1490508015611bd15782608001514210611bd15760405162461bcd60e51b815260206004820152602560248201527f4d61726b6574706c6163653a2061756374696f6e20616c72656164792073746160448201527f727465642e0000000000000000000000000000000000000000000000000000006064820152608401610a31565b60008615611bdf5786611be5565b83608001515b90506040518061018001604052808d8152602001611c01612358565b6001600160a01b0316815260200185604001516001600160a01b031681526020018560600151815260200182815260200187600014611c4957611c448884615230565b611c4f565b8560a001515b8152602001848152602001896001600160a01b031681526020018b81526020018a81526020018561014001516001811115611c8c57611c8c6150d9565b81526020018561016001516001811115611ca857611ca86150d9565b905260008d8152600860208181526040928390208451815590840151600180830180546001600160a01b03199081166001600160a01b0394851617909155948601516002840180548716918416919091179055606086015160038401556080860151600484015560a0860151600584015560c0860151600684015560e0860151600784018054909616921691909117909355610100840151918101919091556101208301516009820155610140830151600a8201805492939192909160ff19909116908381811115611d7c57611d7c6150d9565b0217905550610160820151600a8201805461ff001916610100836001811115611da757611da76150d9565b0217905550505060c08401518314611e2957818015611dc4575082155b15611ddb57611dd284612ad2565b50505050611e69565b8115611df557611df53085602001518660c00151876128a6565b611e1384602001518560400151866060015186886101400151612543565b8115611e2957611e2984602001513085876128a6565b83602001516001600160a01b03168c7fa00227275ba75aea329d91406a2884d227dc386f939f1d18e15a7317152432ca60405160405180910390a3505050505b5050505050505050565b6000818152600160205260408120610984906137da565b610e4c82826137e4565b600280541415611ee65760405162461bcd60e51b815260206004820152601f60248201527f5265656e7472616e637947756172643a207265656e7472616e742063616c6c006044820152606401610a31565b60028080556000838152600860208181526040808420815161018081018352815481526001808301546001600160a01b0390811695830195909552968201548416928101929092526003810154606083015260048101546080830152600581015460a0830152600681015460c0830152600781015490921660e0820152918101546101008301526009810154610120830152600a81015492939192909161014084019160ff1690811115611f9c57611f9c6150d9565b6001811115611fad57611fad6150d9565b8152602001600a820160019054906101000a900460ff166001811115611fd557611fd56150d9565b6001811115611fe657611fe66150d9565b90525090506000611ff5612358565b905061115d82828460e00151868661012001516120129190615311565b87613081565b612025600061051f612358565b6120715760405162461bcd60e51b815260206004820181905260248201527f4d61726b6574706c6163653a206e6f742061206d6f64756c652061646d696e2e6044820152606401610a31565b61271081106120c25760405162461bcd60e51b815260206004820152601960248201527f4d61726b6574706c6163653a20696e76616c6964204250532e000000000000006044820152606401610a31565b6007805468ffffffffffffffff00191661010067ffffffffffffffff8416908102919091179091556040519081527f1923ecef8dbc1cebea2768819f7df282b72fb6d62bf99da204590b9d5cac7a7b90602001610e37565b60068054612127906153de565b80601f0160208091040260200160405190810160405280929190818152602001828054612153906153de565b80156121a05780601f10612175576101008083540402835291602001916121a0565b820191906000526020600020905b81548152906001019060200180831161218357829003601f168201915b505050505081565b6121b5600061051f612358565b6122015760405162461bcd60e51b815260206004820181905260248201527f4d61726b6574706c6163653a206e6f742061206d6f64756c652061646d696e2e6044820152606401610a31565b61271081106122525760405162461bcd60e51b815260206004820152601960248201527f4d61726b6574706c6163653a20696e76616c6964204250532e000000000000006044820152606401610a31565b6007805467ffffffffffffffff838116600160881b027fffffffffffffff0000000000000000ffffffffffffffffffffffffffffffffff918616690100000000000000000002919091167fffffffffffffff00000000000000000000000000000000ffffffffffffffffff9092169190911717905560408051838152602081018390527f441ed6470e96704c3f8c9e70c209107078aab3f17311385e886081b91aa75088910160405180910390a15050565b6003546000906001600160a01b0316331415612327575060131936013560601c90565b503390565b905090565b61233b828261380c565b5050565b6000611180836001600160a01b0384166138ab565b3390565b600061232c612304565b600580549060019060006123768385615230565b9250508190555090565b6040516301ffc9a760e01b8152636cdb3d1360e11b60048201526000906001600160a01b038316906301ffc9a79060240160206040518083038186803b1580156123c957600080fd5b505afa1580156123dd573d6000803e3d6000fd5b505050506040513d601f19601f820116820180604052508101906124019190615349565b1561240e57506000919050565b6040516301ffc9a760e01b81526380ac58cd60e01b60048201526001600160a01b038316906301ffc9a79060240160206040518083038186803b15801561245457600080fd5b505afa158015612468573d6000803e3d6000fd5b505050506040513d601f19601f8201168201806040525081019061248c9190615349565b1561249957506001919050565b60405162461bcd60e51b815260206004820152603060248201527f4d61726b6574706c6163653a206d75737420696d706c656d656e74204552432060448201527f31313535206f7220455243203732312e000000000000000000000000000000006064820152608401610a31565b919050565b60008161251b57506000610984565b600183600181111561252f5761252f6150d9565b1461253a5781611180565b50600192915050565b30600080836001811115612559576125596150d9565b141561267157604051627eeac760e11b81526001600160a01b0388811660048301526024820187905285919088169062fdd58e9060440160206040518083038186803b1580156125a857600080fd5b505afa1580156125bc573d6000803e3d6000fd5b505050506040513d601f19601f820116820180604052508101906125e09190615330565b1015801561266a575060405163e985e9c560e01b81526001600160a01b038881166004830152838116602483015287169063e985e9c59060440160206040518083038186803b15801561263257600080fd5b505afa158015612646573d6000803e3d6000fd5b505050506040513d601f19601f8201168201806040525081019061266a9190615349565b905061282a565b6001836001811115612685576126856150d9565b141561282a576040516331a9108f60e11b8152600481018690526001600160a01b038089169190881690636352211e9060240160206040518083038186803b1580156126d057600080fd5b505afa1580156126e4573d6000803e3d6000fd5b505050506040513d601f19601f820116820180604052508101906127089190615419565b6001600160a01b0316148015612827575060405163020604bf60e21b8152600481018690526001600160a01b03808416919088169063081812fc9060240160206040518083038186803b15801561275e57600080fd5b505afa158015612772573d6000803e3d6000fd5b505050506040513d601f19601f820116820180604052508101906127969190615419565b6001600160a01b03161480612827575060405163e985e9c560e01b81526001600160a01b038881166004830152838116602483015287169063e985e9c59060440160206040518083038186803b1580156127ef57600080fd5b505afa158015612803573d6000803e3d6000fd5b505050506040513d601f19601f820116820180604052508101906128279190615349565b90505b8061289d5760405162461bcd60e51b815260206004820152603460248201527f4d61726b6574706c6163653a20696e73756666696369656e7420746f6b656e2060448201527f62616c616e6365206f7220617070726f76616c2e0000000000000000000000006064820152608401610a31565b50505050505050565b600081610140015160018111156128bf576128bf6150d9565b14156129545760408082015160608301519151637921219560e11b81526001600160a01b038781166004830152868116602483015260448201939093526064810185905260a06084820152600060a482015291169063f242432a9060c401600060405180830381600087803b15801561293757600080fd5b505af115801561294b573d6000803e3d6000fd5b505050506129f2565b6001816101400151600181111561296d5761296d6150d9565b14156129f25760408082015160608301519151635c46a7ef60e11b81526001600160a01b03878116600483015286811660248301526044820193909352608060648201526000608482015291169063b88d4fde9060a401600060405180830381600087803b1580156129de57600080fd5b505af1158015611e69573d6000803e3d6000fd5b50505050565b600082815260208190526040902060010154612a1b81612a16612358565b6138fa565b610d9c838361380c565b612a2d612358565b6001600160a01b0316816001600160a01b031614612ab35760405162461bcd60e51b815260206004820152602f60248201527f416363657373436f6e74726f6c3a2063616e206f6e6c792072656e6f756e636560448201527f20726f6c657320666f722073656c6600000000000000000000000000000000006064820152608401610a31565b61233b8282613978565b6000611180836001600160a01b038416613a15565b612ada612358565b81516000908152600860205260409020600101546001600160a01b03908116911614612b6e5760405162461bcd60e51b815260206004820152602f60248201527f4d61726b6574706c6163653a2063616c6c6572206973206e6f7420746865206c60448201527f697374696e672063726561746f722e00000000000000000000000000000000006064820152608401610a31565b8051600090815260086020818152604083208381556001810180546001600160a01b0319908116909155600282018054821690556003820185905560048201859055600582018590556006820185905560078201805490911690559182018390556009820192909255600a01805461ffff1916905581015160c0820151612bf7913091846128a6565b6001612c01612358565b8251602080850151604080516001600160a01b0392831681526000938101939093529316927f572cdc5ca5e918473319d0f4737494e4709ac879a7d0bcd11ce1bef24b24e81d910160405180910390a450565b600081604001518260800151612c6a9190615311565b600060c085018181524260a0870190815286518352600860208181526040948590208951815590890151600180830180546001600160a01b039384166001600160a01b031991821617909155968b015160028401805491841691891691909117905560608b0151600384015560808b01516004840155935160058301559351600682015560e089015160078201805491909516951694909417909255610100870151918301919091556101208601516009830155610140860151600a8301805494955087949192909160ff1916908381811115612d4957612d496150d9565b0217905550610160820151600a8201805461ff001916610100836001811115612d7457612d746150d9565b02179055505060006080840181815285518252600a602090815260409283902086518155818701516001820180546001600160a01b03199081166001600160a01b03938416179091559488015160028301556060880151600383018054909616911617909355905160049092019190915584015160e0850151612dfc92503091908487613b08565b6000612e06612358565b6001600160a01b031684600001517f572cdc5ca5e918473319d0f4737494e4709ac879a7d0bcd11ce1bef24b24e81d86602001518660200151604051612e629291906001600160a01b0392831681529116602082015260400190565b60405180910390a4505050565b600081604001519050428360a0018181525050600082604001818152505081600a6000856000015181526020019081526020016000206000820151816000015560208201518160010160006101000a8154816001600160a01b0302191690836001600160a01b031602179055506040820151816002015560608201518160030160006101000a8154816001600160a01b0302191690836001600160a01b03160217905550608082015181600401559050508260086000856000015181526020019081526020016000206000820151816000015560208201518160010160006101000a8154816001600160a01b0302191690836001600160a01b0316021790555060408201518160020160006101000a8154816001600160a01b0302191690836001600160a01b03160217905550606082015181600301556080820151816004015560a0820151816005015560c0820151816006015560e08201518160070160006101000a8154816001600160a01b0302191690836001600160a01b031602179055506101008201518160080155610120820151816009015561014082015181600a0160006101000a81548160ff02191690836001811115613032576130326150d9565b0217905550610160820151600a8201805461ff00191661010083600181111561305d5761305d6150d9565b0217905550905050612dfc30836020015183866128a6565b60006111808383613d0b565b61308c858583613d35565b808560c00181815161309e9190615436565b90525084516000908152600860208181526040928390208851815590880151600180830180546001600160a01b03199081166001600160a01b0394851617909155948a0151600284018054871691841691909117905560608a0151600384015560808a0151600484015560a08a0151600584015560c08a0151600684015560e08a0151600784018054909616921691909117909355610100880151918101919091556101208701516009820155610140870151600a82018054899460ff19909116908381811115613171576131716150d9565b0217905550610160820151600a8201805461ff00191661010083600181111561319c5761319c6150d9565b02179055509050506131b5848660200151858589613b08565b6131c585602001518583886128a6565b602080860151604080880151885182516001600160a01b038a81168252958101879052928301879052928416931691907f306e6cde5eb293794d557a3a6c844de939e6206b05e6910451c512852bf654a5906060015b60405180910390a45050505050565b6060611180838360405180606001604052806027815260200161556860279139613faf565b81516000908152600a60209081526040808320815160a0810183528154815260018201546001600160a01b039081169482019490945260028201549281018390526003820154909316606084015260040154608083018190529192916132b59190615311565b90506000836040015184608001516132cd9190615311565b90506132ee8560c001518661010001516132e79190615311565b838361409a565b61333a5760405162461bcd60e51b815260206004820152601d60248201527f4d61726b6574706c6163653a206e6f742077696e6e696e67206269642e0000006044820152606401610a31565b600085610120015111801561336357508460c0015185610120015161335f9190615311565b8110155b15613377576133728585612e6f565b613618565b84516000908152600a602090815260409182902086518155908601516001820180546001600160a01b03199081166001600160a01b03938416179091559287015160028301556060870151600383018054909416911617909155608085015160049091015560075460a0860151690100000000000000000090910467ffffffffffffffff1690613408904290615436565b116135405760075460a086018051690100000000000000000090920467ffffffffffffffff169161343a908390615230565b90525084516000908152600860208181526040928390208851815590880151600180830180546001600160a01b03199081166001600160a01b0394851617909155948a0151600284018054871691841691909117905560608a0151600384015560808a0151600484015560a08a0151600584015560c08a0151600684015560e08a0151600784018054909616921691909117909355610100880151918101919091556101208701516009820155610140870151600a82018054899460ff1990911690838181111561350d5761350d6150d9565b0217905550610160820151600a8201805461ff001916610100836001811115613538576135386150d9565b021790555050505b60208301516001600160a01b03161580159061355c5750600082115b15613575576135758560e00151308560200151856140f7565b6135898560e00151856020015130846140f7565b84610160015160018111156135a0576135a06150d9565b84602001516001600160a01b031686600001517f8a412352601a288b3de40254a9de2ab14a497aa3638a7e558480680a56e2705d8760400151886040015189608001516135ed9190615311565b6060808b01516040805194855260208501939093526001600160a01b0316918301919091520161321b565b5050505050565b8160c0015181604001511115801561363b575060008260c00151115b6136ad5760405162461bcd60e51b815260206004820152602c60248201527f4d61726b6574706c6163653a20696e73756666696369656e7420746f6b656e7360448201527f20696e206c697374696e672e00000000000000000000000000000000000000006064820152608401610a31565b6136d381602001518260600151836040015184608001516136ce9190615311565b61434f565b8151600090815260096020908152604080832082850180516001600160a01b0390811686529190935292819020845181559151600180840180549286166001600160a01b031993841617905591850151600284015560608501516003840180549190951691161790925560808301516004909101556101608301519081111561375e5761375e6150d9565b81602001516001600160a01b031683600001517f8a412352601a288b3de40254a9de2ab14a497aa3638a7e558480680a56e2705d8460400151856040015186608001516137ab9190615311565b6060878101516040805194855260208501939093526001600160a01b0316838301529051918290030190a45050565b6000610984825490565b60008281526020819052604090206001015461380281612a16612358565b610d9c8383613978565b6000828152602081815260408083206001600160a01b038516845290915290205460ff1661233b576000828152602081815260408083206001600160a01b03851684529091529020805460ff19166001179055613867612358565b6001600160a01b0316816001600160a01b0316837f2f8788117e7eff1d82e926ec794901d17c78024a50270940304540a733656f0d60405160405180910390a45050565b60008181526001830160205260408120546138f257508154600181810184556000848152602080822090930184905584548482528286019093526040902091909155610984565b506000610984565b6000828152602081815260408083206001600160a01b038516845290915290205460ff1661233b57613936816001600160a01b031660146144cb565b6139418360206144cb565b60405160200161395292919061544d565b60408051601f198184030181529082905262461bcd60e51b8252610a319160040161519e565b6000828152602081815260408083206001600160a01b038516845290915290205460ff161561233b576000828152602081815260408083206001600160a01b03851684529091529020805460ff191690556139d1612358565b6001600160a01b0316816001600160a01b0316837ff6391f5c32d9c69d2a47ea670b442974b53935d1edc7fd64eb21e047a839171b60405160405180910390a45050565b60008181526001830160205260408120548015613afe576000613a39600183615436565b8554909150600090613a4d90600190615436565b9050818114613ab2576000866000018281548110613a6d57613a6d615366565b9060005260206000200154905080876000018481548110613a9057613a90615366565b6000918252602080832090910192909255918252600188019052604090208390555b8554869080613ac357613ac36154ce565b600190038181906000526020600020016000905590558560010160008681526020019081526020016000206000905560019350505050610984565b6000915050610984565b60075460009061271090613b2b90610100900467ffffffffffffffff1685615311565b613b3591906154e4565b6004805460405163f2aab4b360e01b81523092810192909252919250613bc291869189916001600160a01b03169063f2aab4b39060240160206040518083038186803b158015613b8457600080fd5b505afa158015613b98573d6000803e3d6000fd5b505050506040513d601f19601f82011682018060405250810190613bbc9190615419565b846140f7565b6000613bce8285615436565b6040808501516060860151915163152a902d60e11b81529293506001600160a01b031691632a55205a91613c0f918890600401918252602082015260400190565b604080518083038186803b158015613c2657600080fd5b505afa925050508015613c56575060408051601f3d908101601f19168201909252613c5391810190615506565b60015b613c5f57613cff565b8015613cfc5785613c708583615230565b1115613ce45760405162461bcd60e51b815260206004820152603060248201527f4d61726b6574706c6163653a20546f74616c206d61726b65742066656573206560448201527f7863656564207468652070726963652e000000000000000000000000000000006064820152608401610a31565b613cee8184615436565b9250613cfc878a84846140f7565b50505b61289d858888846140f7565b6000826000018281548110613d2257613d22615366565b9060005260206000200154905092915050565b60008361016001516001811115613d4e57613d4e6150d9565b14613dc15760405162461bcd60e51b815260206004820152602560248201527f4d61726b6574706c6163653a2063616e6e6f74206275792066726f6d206c697360448201527f74696e672e0000000000000000000000000000000000000000000000000000006064820152608401610a31565b60008360c00151118015613dd55750600081115b8015613de557508260c001518111155b613e575760405162461bcd60e51b815260206004820152602d60248201527f4d61726b6574706c6163653a20627579696e6720696e76616c696420616d6f7560448201527f6e74206f6620746f6b656e732e000000000000000000000000000000000000006064820152608401610a31565b8260a0015142108015613e6d5750826080015142115b613ec55760405162461bcd60e51b8152602060048201526024808201527f4d61726b6574706c6163653a206e6f742077697468696e2073616c652077696e6044820152633237bb9760e11b6064820152608401610a31565b60e08301516001600160a01b031673eeeeeeeeeeeeeeeeeeeeeeeeeeeeeeeeeeeeeeee1415613f7757610120830151613efe9082615311565b3414613f725760405162461bcd60e51b815260206004820152603860248201527f4d61726b6574706c6163653a20696e73756666696369656e742063757272656e60448201527f63792062616c616e6365206f7220616c6c6f77616e63652e00000000000000006064820152608401610a31565b613f91565b613f91828460e00151856101200151846136ce9190615311565b610d9c83602001518460400151856060015184876101400151612543565b6060833b6140255760405162461bcd60e51b815260206004820152602660248201527f416464726573733a2064656c65676174652063616c6c20746f206e6f6e2d636f60448201527f6e747261637400000000000000000000000000000000000000000000000000006064820152608401610a31565b600080856001600160a01b0316856040516140409190615534565b600060405180830381855af49150503d806000811461407b576040519150601f19603f3d011682016040523d82523d6000602084013e614080565b606091505b5091509150614090828286614674565b9695505050505050565b600082156140ea5782821180156140e55750600754600160881b900467ffffffffffffffff16836127106140ce8286615436565b6140d89190615311565b6140e291906154e4565b10155b6140ef565b838210155b949350505050565b6001600160a01b03841673eeeeeeeeeeeeeeeeeeeeeeeeeeeeeeeeeeeeeeee1415614343576001600160a01b03831630141561423a57604051632e1a7d4d60e01b8152600481018290527f00000000000000000000000000000000000000000000000000000000000000006001600160a01b031690632e1a7d4d90602401600060405180830381600087803b15801561418f57600080fd5b505af11580156141a3573d6000803e3d6000fd5b505050506141b182826146ad565b614235577f00000000000000000000000000000000000000000000000000000000000000006001600160a01b031663d0e30db0826040518263ffffffff1660e01b81526004016000604051808303818588803b15801561421057600080fd5b505af1158015614224573d6000803e3d6000fd5b505050505061423584308484614723565b6129f2565b6001600160a01b038216301415614339573481146142c05760405162461bcd60e51b815260206004820152603a60248201527f4d61726b6574706c6163653a206e617469766520746f6b656e2076616c75652060448201527f646f6573206e6f74206d617463682062696420616d6f756e742e0000000000006064820152608401610a31565b7f00000000000000000000000000000000000000000000000000000000000000006001600160a01b031663d0e30db0826040518263ffffffff1660e01b81526004016000604051808303818588803b15801561431b57600080fd5b505af115801561432f573d6000803e3d6000fd5b50505050506129f2565b6141b182826146ad565b6129f284848484614723565b6040516370a0823160e01b81526001600160a01b0384811660048301528291908416906370a082319060240160206040518083038186803b15801561439357600080fd5b505afa1580156143a7573d6000803e3d6000fd5b505050506040513d601f19601f820116820180604052508101906143cb9190615330565b101580156144595750604051636eb1769f60e11b81526001600160a01b03848116600483015230602483015282919084169063dd62ed3e9060440160206040518083038186803b15801561441e57600080fd5b505afa158015614432573d6000803e3d6000fd5b505050506040513d601f19601f820116820180604052508101906144569190615330565b10155b610d9c5760405162461bcd60e51b815260206004820152603860248201527f4d61726b6574706c6163653a20696e73756666696369656e742063757272656e60448201527f63792062616c616e6365206f7220616c6c6f77616e63652e00000000000000006064820152608401610a31565b606060006144da836002615311565b6144e5906002615230565b67ffffffffffffffff8111156144fd576144fd614b86565b6040519080825280601f01601f191660200182016040528015614527576020820181803683370190505b509050600360fc1b8160008151811061454257614542615366565b60200101906001600160f81b031916908160001a905350600f60fb1b8160018151811061457157614571615366565b60200101906001600160f81b031916908160001a9053506000614595846002615311565b6145a0906001615230565b90505b6001811115614625577f303132333435363738396162636465660000000000000000000000000000000085600f16601081106145e1576145e1615366565b1a60f81b8282815181106145f7576145f7615366565b60200101906001600160f81b031916908160001a90535060049490941c9361461e81615550565b90506145a3565b5083156111805760405162461bcd60e51b815260206004820181905260248201527f537472696e67733a20686578206c656e67746820696e73756666696369656e746044820152606401610a31565b60608315614683575081611180565b8251156146935782518084602001fd5b8160405162461bcd60e51b8152600401610a31919061519e565b604080516000808252602082019092526001600160a01b0384169083906040516146d79190615534565b60006040518083038185875af1925050503d8060008114614714576040519150601f19603f3d011682016040523d82523d6000602084013e614719565b606091505b5090949350505050565b6001600160a01b0383163014156147b65760405163095ea7b360e01b8152306004820152602481018290526001600160a01b0385169063095ea7b390604401602060405180830381600087803b15801561477c57600080fd5b505af1158015614790573d6000803e3d6000fd5b505050506040513d601f19601f820116820180604052508101906147b49190615349565b505b6040516370a0823160e01b81526001600160a01b038381166004830152600091908616906370a082319060240160206040518083038186803b1580156147fb57600080fd5b505afa15801561480f573d6000803e3d6000fd5b505050506040513d601f19601f820116820180604052508101906148339190615330565b6040516323b872dd60e01b81526001600160a01b0386811660048301528581166024830152604482018590529192506000918716906323b872dd90606401602060405180830381600087803b15801561488b57600080fd5b505af115801561489f573d6000803e3d6000fd5b505050506040513d601f19601f820116820180604052508101906148c39190615349565b6040516370a0823160e01b81526001600160a01b0386811660048301529192506000918816906370a082319060240160206040518083038186803b15801561490a57600080fd5b505afa15801561491e573d6000803e3d6000fd5b505050506040513d601f19601f820116820180604052508101906149429190615330565b905081801561495957506149568484615230565b81145b61289d5760405162461bcd60e51b815260206004820152602960248201527f4d61726b6574706c6163653a206661696c656420746f207472616e736665722060448201527f63757272656e63792e00000000000000000000000000000000000000000000006064820152608401610a31565b8280546149d7906153de565b90600052602060002090601f0160209004810192826149f95760008555614a3f565b82601f10614a125782800160ff19823516178555614a3f565b82800160010185558215614a3f579182015b82811115614a3f578235825591602001919060010190614a24565b50614a4b929150614a4f565b5090565b5b80821115614a4b5760008155600101614a50565b600060208284031215614a7657600080fd5b81356001600160e01b03198116811461118057600080fd5b6001600160a01b0381168114614aa357600080fd5b50565b803561250781614a8e565b60008083601f840112614ac357600080fd5b50813567ffffffffffffffff811115614adb57600080fd5b602083019150836020828501011115614af357600080fd5b9250929050565b600080600080600060808688031215614b1257600080fd5b8535614b1d81614a8e565b94506020860135614b2d81614a8e565b935060408601359250606086013567ffffffffffffffff811115614b5057600080fd5b614b5c88828901614ab1565b969995985093965092949392505050565b600060208284031215614b7f57600080fd5b5035919050565b634e487b7160e01b600052604160045260246000fd5b604051610120810167ffffffffffffffff81118282101715614bc057614bc0614b86565b60405290565b604051601f8201601f1916810167ffffffffffffffff81118282101715614bef57614bef614b86565b604052919050565b80356002811061250757600080fd5b60006101208284031215614c1957600080fd5b614c21614b9c565b614c2a83614aa6565b815260208301356020820152604083013560408201526060830135606082015260808301356080820152614c6060a08401614aa6565b60a082015260c083013560c082015260e083013560e0820152610100614c87818501614bf7565b908201529392505050565b60008060408385031215614ca557600080fd5b823591506020830135614cb781614a8e565b809150509250929050565b8015158114614aa357600080fd5b600060208284031215614ce257600080fd5b813561118081614cc2565b600060208284031215614cff57600080fd5b813561118081614a8e565b60008060408385031215614d1d57600080fd5b50508035926020909101359150565b60008060208385031215614d3f57600080fd5b823567ffffffffffffffff811115614d5657600080fd5b614d6285828601614ab1565b90969095509350505050565b60008060208385031215614d8157600080fd5b823567ffffffffffffffff80821115614d9957600080fd5b818501915085601f830112614dad57600080fd5b813581811115614dbc57600080fd5b8660208260051b8501011115614dd157600080fd5b60209290920196919550909350505050565b60005b83811015614dfe578181015183820152602001614de6565b838111156129f25750506000910152565b60008151808452614e27816020860160208601614de3565b601f01601f19169290920160200192915050565b6000602080830181845280855180835260408601915060408160051b870101925083870160005b82811015614e9057603f19888603018452614e7e858351614e0f565b94509285019290850190600101614e62565b5092979650505050505050565b60008060008060808587031215614eb357600080fd5b84359350602085013592506040850135614ecc81614a8e565b9396929550929360600135925050565b600082601f830112614eed57600080fd5b8135602067ffffffffffffffff821115614f0957614f09614b86565b8160051b614f18828201614bc6565b9283528481018201928281019087851115614f3257600080fd5b83870192505b84831015614f5157823582529183019190830190614f38565b979650505050505050565b600082601f830112614f6d57600080fd5b813567ffffffffffffffff811115614f8757614f87614b86565b614f9a601f8201601f1916602001614bc6565b818152846020838601011115614faf57600080fd5b816020850160208301376000918101602001919091529392505050565b600080600080600060a08688031215614fe457600080fd5b8535614fef81614a8e565b94506020860135614fff81614a8e565b9350604086013567ffffffffffffffff8082111561501c57600080fd5b61502889838a01614edc565b9450606088013591508082111561503e57600080fd5b61504a89838a01614edc565b9350608088013591508082111561506057600080fd5b5061506d88828901614f5c565b9150509295509295909350565b600080600080600080600060e0888a03121561509557600080fd5b8735965060208801359550604088013594506060880135935060808801356150bc81614a8e565b9699959850939692959460a0840135945060c09093013592915050565b634e487b7160e01b600052602160045260246000fd5b60028110614aa357634e487b7160e01b600052602160045260246000fd5b615116816150ef565b9052565b6000610180820190508d82526001600160a01b03808e166020840152808d1660408401528b60608401528a60808401528960a08401528860c084015280881660e0840152508561010083015284610120830152615176846150ef565b83610140830152615186836150ef565b826101608301529d9c50505050505050505050505050565b6020815260006111806020830184614e0f565b600080600080600060a086880312156151c957600080fd5b85356151d481614a8e565b945060208601356151e481614a8e565b93506040860135925060608601359150608086013567ffffffffffffffff81111561520e57600080fd5b61506d88828901614f5c565b634e487b7160e01b600052601160045260246000fd5b600082198211156152435761524361521a565b500190565b8151815260208083015161018083019161526c908401826001600160a01b03169052565b50604083015161528760408401826001600160a01b03169052565b50606083015160608301526080830151608083015260a083015160a083015260c083015160c083015260e08301516152ca60e08401826001600160a01b03169052565b5061010083810151908301526101208084015190830152610140808401516152f48285018261510d565b5050610160808401516153098285018261510d565b505092915050565b600081600019048311821515161561532b5761532b61521a565b500290565b60006020828403121561534257600080fd5b5051919050565b60006020828403121561535b57600080fd5b815161118081614cc2565b634e487b7160e01b600052603260045260246000fd5b6000808335601e1984360301811261539357600080fd5b83018035915067ffffffffffffffff8211156153ae57600080fd5b602001915036819003821315614af357600080fd5b60006000198214156153d7576153d761521a565b5060010190565b600181811c908216806153f257607f821691505b6020821081141561541357634e487b7160e01b600052602260045260246000fd5b50919050565b60006020828403121561542b57600080fd5b815161118081614a8e565b6000828210156154485761544861521a565b500390565b7f416363657373436f6e74726f6c3a206163636f756e7420000000000000000000815260008351615485816017850160208801614de3565b7f206973206d697373696e6720726f6c652000000000000000000000000000000060179184019182015283516154c2816028840160208801614de3565b01602801949350505050565b634e487b7160e01b600052603160045260246000fd5b60008261550157634e487b7160e01b600052601260045260246000fd5b500490565b6000806040838503121561551957600080fd5b825161552481614a8e565b6020939093015192949293505050565b60008251615546818460208701614de3565b9190910192915050565b60008161555f5761555f61521a565b50600019019056fe416464726573733a206c6f772d6c6576656c2064656c65676174652063616c6c206661696c6564a164736f6c6343000809000a",
  "linkReferences": {},
  "deployedLinkReferences": {}
}