{
  "_format": "hh-sol-artifact-1",
  "contractName": "Pack_PL",
  "sourceName": "contracts/permissionless/Pack_PL.sol",
  "abi": [
    {
      "inputs": [
        {
          "internalType": "address payable",
          "name": "_controlCenter",
          "type": "address"
        },
        {
          "internalType": "string",
          "name": "_uri",
          "type": "string"
        },
        {
          "internalType": "address",
          "name": "_vrfCoordinator",
          "type": "address"
        },
        {
          "internalType": "address",
          "name": "_linkToken",
          "type": "address"
        },
        {
          "internalType": "bytes32",
          "name": "_keyHash",
          "type": "bytes32"
        },
        {
          "internalType": "uint256",
          "name": "_fees",
          "type": "uint256"
        },
        {
          "internalType": "address",
          "name": "_trustedForwarder",
          "type": "address"
        }
      ],
      "stateMutability": "nonpayable",
      "type": "constructor"
    },
    {
      "anonymous": false,
      "inputs": [
        {
          "indexed": true,
          "internalType": "address",
          "name": "account",
          "type": "address"
        },
        {
          "indexed": true,
          "internalType": "address",
          "name": "operator",
          "type": "address"
        },
        {
          "indexed": false,
          "internalType": "bool",
          "name": "approved",
          "type": "bool"
        }
      ],
      "name": "ApprovalForAll",
      "type": "event"
    },
    {
      "anonymous": false,
      "inputs": [
        {
          "indexed": true,
          "internalType": "uint256",
          "name": "packId",
          "type": "uint256"
        },
        {
          "indexed": true,
          "internalType": "address",
          "name": "rewardContract",
          "type": "address"
        },
        {
          "indexed": true,
          "internalType": "address",
          "name": "creator",
          "type": "address"
        },
        {
          "components": [
            {
              "internalType": "string",
              "name": "uri",
              "type": "string"
            },
            {
              "internalType": "address",
              "name": "creator",
              "type": "address"
            },
            {
              "internalType": "uint256",
              "name": "currentSupply",
              "type": "uint256"
            },
            {
              "internalType": "uint256",
              "name": "openStart",
              "type": "uint256"
            },
            {
              "internalType": "uint256",
              "name": "openEnd",
              "type": "uint256"
            }
          ],
          "indexed": false,
          "internalType": "struct Pack.PackState",
          "name": "packState",
          "type": "tuple"
        },
        {
          "components": [
            {
              "internalType": "address",
              "name": "source",
              "type": "address"
            },
            {
              "internalType": "uint256[]",
              "name": "tokenIds",
              "type": "uint256[]"
            },
            {
              "internalType": "uint256[]",
              "name": "amountsPacked",
              "type": "uint256[]"
            },
            {
              "internalType": "uint256",
              "name": "rewardsPerOpen",
              "type": "uint256"
            }
          ],
          "indexed": false,
          "internalType": "struct Pack.Rewards",
          "name": "rewards",
          "type": "tuple"
        }
      ],
      "name": "PackCreated",
      "type": "event"
    },
    {
      "anonymous": false,
      "inputs": [
        {
          "indexed": true,
          "internalType": "uint256",
          "name": "packId",
          "type": "uint256"
        },
        {
          "indexed": true,
          "internalType": "address",
          "name": "opener",
          "type": "address"
        },
        {
          "indexed": false,
          "internalType": "bytes32",
          "name": "requestId",
          "type": "bytes32"
        },
        {
          "indexed": true,
          "internalType": "address",
          "name": "rewardContract",
          "type": "address"
        },
        {
          "indexed": false,
          "internalType": "uint256[]",
          "name": "rewardIds",
          "type": "uint256[]"
        }
      ],
      "name": "PackOpenFulfilled",
      "type": "event"
    },
    {
      "anonymous": false,
      "inputs": [
        {
          "indexed": true,
          "internalType": "uint256",
          "name": "packId",
          "type": "uint256"
        },
        {
          "indexed": true,
          "internalType": "address",
          "name": "opener",
          "type": "address"
        },
        {
          "indexed": false,
          "internalType": "bytes32",
          "name": "requestId",
          "type": "bytes32"
        }
      ],
      "name": "PackOpenRequest",
      "type": "event"
    },
    {
      "anonymous": false,
      "inputs": [
        {
          "indexed": false,
          "internalType": "address",
          "name": "account",
          "type": "address"
        }
      ],
      "name": "Paused",
      "type": "event"
    },
    {
      "anonymous": false,
      "inputs": [
        {
          "indexed": true,
          "internalType": "bytes32",
          "name": "role",
          "type": "bytes32"
        },
        {
          "indexed": true,
          "internalType": "bytes32",
          "name": "previousAdminRole",
          "type": "bytes32"
        },
        {
          "indexed": true,
          "internalType": "bytes32",
          "name": "newAdminRole",
          "type": "bytes32"
        }
      ],
      "name": "RoleAdminChanged",
      "type": "event"
    },
    {
      "anonymous": false,
      "inputs": [
        {
          "indexed": true,
          "internalType": "bytes32",
          "name": "role",
          "type": "bytes32"
        },
        {
          "indexed": true,
          "internalType": "address",
          "name": "account",
          "type": "address"
        },
        {
          "indexed": true,
          "internalType": "address",
          "name": "sender",
          "type": "address"
        }
      ],
      "name": "RoleGranted",
      "type": "event"
    },
    {
      "anonymous": false,
      "inputs": [
        {
          "indexed": true,
          "internalType": "bytes32",
          "name": "role",
          "type": "bytes32"
        },
        {
          "indexed": true,
          "internalType": "address",
          "name": "account",
          "type": "address"
        },
        {
          "indexed": true,
          "internalType": "address",
          "name": "sender",
          "type": "address"
        }
      ],
      "name": "RoleRevoked",
      "type": "event"
    },
    {
      "anonymous": false,
      "inputs": [
        {
          "indexed": false,
          "internalType": "uint256",
          "name": "royaltyBps",
          "type": "uint256"
        }
      ],
      "name": "RoyaltyUpdated",
      "type": "event"
    },
    {
      "anonymous": false,
      "inputs": [
        {
          "indexed": true,
          "internalType": "address",
          "name": "operator",
          "type": "address"
        },
        {
          "indexed": true,
          "internalType": "address",
          "name": "from",
          "type": "address"
        },
        {
          "indexed": true,
          "internalType": "address",
          "name": "to",
          "type": "address"
        },
        {
          "indexed": false,
          "internalType": "uint256[]",
          "name": "ids",
          "type": "uint256[]"
        },
        {
          "indexed": false,
          "internalType": "uint256[]",
          "name": "values",
          "type": "uint256[]"
        }
      ],
      "name": "TransferBatch",
      "type": "event"
    },
    {
      "anonymous": false,
      "inputs": [
        {
          "indexed": true,
          "internalType": "address",
          "name": "operator",
          "type": "address"
        },
        {
          "indexed": true,
          "internalType": "address",
          "name": "from",
          "type": "address"
        },
        {
          "indexed": true,
          "internalType": "address",
          "name": "to",
          "type": "address"
        },
        {
          "indexed": false,
          "internalType": "uint256",
          "name": "id",
          "type": "uint256"
        },
        {
          "indexed": false,
          "internalType": "uint256",
          "name": "value",
          "type": "uint256"
        }
      ],
      "name": "TransferSingle",
      "type": "event"
    },
    {
      "anonymous": false,
      "inputs": [
        {
          "indexed": false,
          "internalType": "string",
          "name": "value",
          "type": "string"
        },
        {
          "indexed": true,
          "internalType": "uint256",
          "name": "id",
          "type": "uint256"
        }
      ],
      "name": "URI",
      "type": "event"
    },
    {
      "anonymous": false,
      "inputs": [
        {
          "indexed": false,
          "internalType": "address",
          "name": "account",
          "type": "address"
        }
      ],
      "name": "Unpaused",
      "type": "event"
    },
    {
      "inputs": [],
      "name": "DEFAULT_ADMIN_ROLE",
      "outputs": [
        {
          "internalType": "bytes32",
          "name": "",
          "type": "bytes32"
        }
      ],
      "stateMutability": "view",
      "type": "function"
    },
    {
      "inputs": [],
      "name": "MINTER_ROLE",
      "outputs": [
        {
          "internalType": "bytes32",
          "name": "",
          "type": "bytes32"
        }
      ],
      "stateMutability": "view",
      "type": "function"
    },
    {
      "inputs": [],
      "name": "PAUSER_ROLE",
      "outputs": [
        {
          "internalType": "bytes32",
          "name": "",
          "type": "bytes32"
        }
      ],
      "stateMutability": "view",
      "type": "function"
    },
    {
      "inputs": [],
      "name": "TRANSFER_ROLE",
      "outputs": [
        {
          "internalType": "bytes32",
          "name": "",
          "type": "bytes32"
        }
      ],
      "stateMutability": "view",
      "type": "function"
    },
    {
      "inputs": [],
      "name": "_contractURI",
      "outputs": [
        {
          "internalType": "string",
          "name": "",
          "type": "string"
        }
      ],
      "stateMutability": "view",
      "type": "function"
    },
    {
      "inputs": [
        {
          "internalType": "address",
          "name": "account",
          "type": "address"
        },
        {
          "internalType": "uint256",
          "name": "id",
          "type": "uint256"
        }
      ],
      "name": "balanceOf",
      "outputs": [
        {
          "internalType": "uint256",
          "name": "",
          "type": "uint256"
        }
      ],
      "stateMutability": "view",
      "type": "function"
    },
    {
      "inputs": [
        {
          "internalType": "address[]",
          "name": "accounts",
          "type": "address[]"
        },
        {
          "internalType": "uint256[]",
          "name": "ids",
          "type": "uint256[]"
        }
      ],
      "name": "balanceOfBatch",
      "outputs": [
        {
          "internalType": "uint256[]",
          "name": "",
          "type": "uint256[]"
        }
      ],
      "stateMutability": "view",
      "type": "function"
    },
    {
      "inputs": [
        {
          "internalType": "address",
          "name": "account",
          "type": "address"
        },
        {
          "internalType": "uint256",
          "name": "id",
          "type": "uint256"
        },
        {
          "internalType": "uint256",
          "name": "value",
          "type": "uint256"
        }
      ],
      "name": "burn",
      "outputs": [],
      "stateMutability": "nonpayable",
      "type": "function"
    },
    {
      "inputs": [
        {
          "internalType": "address",
          "name": "account",
          "type": "address"
        },
        {
          "internalType": "uint256[]",
          "name": "ids",
          "type": "uint256[]"
        },
        {
          "internalType": "uint256[]",
          "name": "values",
          "type": "uint256[]"
        }
      ],
      "name": "burnBatch",
      "outputs": [],
      "stateMutability": "nonpayable",
      "type": "function"
    },
    {
      "inputs": [],
      "name": "contractURI",
      "outputs": [
        {
          "internalType": "string",
          "name": "",
          "type": "string"
        }
      ],
      "stateMutability": "view",
      "type": "function"
    },
    {
      "inputs": [
        {
          "internalType": "uint256",
          "name": "_packId",
          "type": "uint256"
        }
      ],
      "name": "creator",
      "outputs": [
        {
          "internalType": "address",
          "name": "",
          "type": "address"
        }
      ],
      "stateMutability": "view",
      "type": "function"
    },
    {
      "inputs": [
        {
          "internalType": "uint256",
          "name": "",
          "type": "uint256"
        },
        {
          "internalType": "address",
          "name": "",
          "type": "address"
        }
      ],
      "name": "currentRequestId",
      "outputs": [
        {
          "internalType": "bytes32",
          "name": "",
          "type": "bytes32"
        }
      ],
      "stateMutability": "view",
      "type": "function"
    },
    {
      "inputs": [
        {
          "internalType": "uint256",
          "name": "_packId",
          "type": "uint256"
        }
      ],
      "name": "getPack",
      "outputs": [
        {
          "components": [
            {
              "internalType": "string",
              "name": "uri",
              "type": "string"
            },
            {
              "internalType": "address",
              "name": "creator",
              "type": "address"
            },
            {
              "internalType": "uint256",
              "name": "currentSupply",
              "type": "uint256"
            },
            {
              "internalType": "uint256",
              "name": "openStart",
              "type": "uint256"
            },
            {
              "internalType": "uint256",
              "name": "openEnd",
              "type": "uint256"
            }
          ],
          "internalType": "struct Pack.PackState",
          "name": "pack",
          "type": "tuple"
        }
      ],
      "stateMutability": "view",
      "type": "function"
    },
    {
      "inputs": [
        {
          "internalType": "uint256",
          "name": "_packId",
          "type": "uint256"
        }
      ],
      "name": "getPackWithRewards",
      "outputs": [
        {
          "components": [
            {
              "internalType": "string",
              "name": "uri",
              "type": "string"
            },
            {
              "internalType": "address",
              "name": "creator",
              "type": "address"
            },
            {
              "internalType": "uint256",
              "name": "currentSupply",
              "type": "uint256"
            },
            {
              "internalType": "uint256",
              "name": "openStart",
              "type": "uint256"
            },
            {
              "internalType": "uint256",
              "name": "openEnd",
              "type": "uint256"
            }
          ],
          "internalType": "struct Pack.PackState",
          "name": "pack",
          "type": "tuple"
        },
        {
          "internalType": "address",
          "name": "source",
          "type": "address"
        },
        {
          "internalType": "uint256[]",
          "name": "tokenIds",
          "type": "uint256[]"
        },
        {
          "internalType": "uint256[]",
          "name": "amountsPacked",
          "type": "uint256[]"
        }
      ],
      "stateMutability": "view",
      "type": "function"
    },
    {
      "inputs": [
        {
          "internalType": "bytes32",
          "name": "role",
          "type": "bytes32"
        }
      ],
      "name": "getRoleAdmin",
      "outputs": [
        {
          "internalType": "bytes32",
          "name": "",
          "type": "bytes32"
        }
      ],
      "stateMutability": "view",
      "type": "function"
    },
    {
      "inputs": [
        {
          "internalType": "bytes32",
          "name": "role",
          "type": "bytes32"
        },
        {
          "internalType": "uint256",
          "name": "index",
          "type": "uint256"
        }
      ],
      "name": "getRoleMember",
      "outputs": [
        {
          "internalType": "address",
          "name": "",
          "type": "address"
        }
      ],
      "stateMutability": "view",
      "type": "function"
    },
    {
      "inputs": [
        {
          "internalType": "bytes32",
          "name": "role",
          "type": "bytes32"
        }
      ],
      "name": "getRoleMemberCount",
      "outputs": [
        {
          "internalType": "uint256",
          "name": "",
          "type": "uint256"
        }
      ],
      "stateMutability": "view",
      "type": "function"
    },
    {
      "inputs": [
        {
          "internalType": "bytes32",
          "name": "role",
          "type": "bytes32"
        },
        {
          "internalType": "address",
          "name": "account",
          "type": "address"
        }
      ],
      "name": "grantRole",
      "outputs": [],
      "stateMutability": "nonpayable",
      "type": "function"
    },
    {
      "inputs": [
        {
          "internalType": "bytes32",
          "name": "role",
          "type": "bytes32"
        },
        {
          "internalType": "address",
          "name": "account",
          "type": "address"
        }
      ],
      "name": "hasRole",
      "outputs": [
        {
          "internalType": "bool",
          "name": "",
          "type": "bool"
        }
      ],
      "stateMutability": "view",
      "type": "function"
    },
    {
      "inputs": [
        {
          "internalType": "address",
          "name": "account",
          "type": "address"
        },
        {
          "internalType": "address",
          "name": "operator",
          "type": "address"
        }
      ],
      "name": "isApprovedForAll",
      "outputs": [
        {
          "internalType": "bool",
          "name": "",
          "type": "bool"
        }
      ],
      "stateMutability": "view",
      "type": "function"
    },
    {
      "inputs": [],
      "name": "isRestrictedTransfer",
      "outputs": [
        {
          "internalType": "bool",
          "name": "",
          "type": "bool"
        }
      ],
      "stateMutability": "view",
      "type": "function"
    },
    {
      "inputs": [
        {
          "internalType": "address",
          "name": "forwarder",
          "type": "address"
        }
      ],
      "name": "isTrustedForwarder",
      "outputs": [
        {
          "internalType": "bool",
          "name": "",
          "type": "bool"
        }
      ],
      "stateMutability": "view",
      "type": "function"
    },
    {
      "inputs": [
        {
          "internalType": "address",
          "name": "",
          "type": "address"
        },
        {
          "internalType": "uint256",
          "name": "",
          "type": "uint256"
        },
        {
          "internalType": "uint256",
          "name": "",
          "type": "uint256"
        },
        {
          "internalType": "bytes",
          "name": "",
          "type": "bytes"
        }
      ],
      "name": "mint",
      "outputs": [],
      "stateMutability": "pure",
      "type": "function"
    },
    {
      "inputs": [
        {
          "internalType": "address",
          "name": "",
          "type": "address"
        },
        {
          "internalType": "uint256[]",
          "name": "",
          "type": "uint256[]"
        },
        {
          "internalType": "uint256[]",
          "name": "",
          "type": "uint256[]"
        },
        {
          "internalType": "bytes",
          "name": "",
          "type": "bytes"
        }
      ],
      "name": "mintBatch",
      "outputs": [],
      "stateMutability": "pure",
      "type": "function"
    },
    {
      "inputs": [],
      "name": "nextTokenId",
      "outputs": [
        {
          "internalType": "uint256",
          "name": "",
          "type": "uint256"
        }
      ],
      "stateMutability": "view",
      "type": "function"
    },
    {
      "inputs": [
        {
          "internalType": "address",
          "name": "",
          "type": "address"
        },
        {
          "internalType": "address",
          "name": "_from",
          "type": "address"
        },
        {
          "internalType": "uint256[]",
          "name": "_ids",
          "type": "uint256[]"
        },
        {
          "internalType": "uint256[]",
          "name": "_values",
          "type": "uint256[]"
        },
        {
          "internalType": "bytes",
          "name": "_data",
          "type": "bytes"
        }
      ],
      "name": "onERC1155BatchReceived",
      "outputs": [
        {
          "internalType": "bytes4",
          "name": "",
          "type": "bytes4"
        }
      ],
      "stateMutability": "nonpayable",
      "type": "function"
    },
    {
      "inputs": [
        {
          "internalType": "address",
          "name": "",
          "type": "address"
        },
        {
          "internalType": "address",
          "name": "",
          "type": "address"
        },
        {
          "internalType": "uint256",
          "name": "",
          "type": "uint256"
        },
        {
          "internalType": "uint256",
          "name": "",
          "type": "uint256"
        },
        {
          "internalType": "bytes",
          "name": "",
          "type": "bytes"
        }
      ],
      "name": "onERC1155Received",
      "outputs": [
        {
          "internalType": "bytes4",
          "name": "",
          "type": "bytes4"
        }
      ],
      "stateMutability": "nonpayable",
      "type": "function"
    },
    {
      "inputs": [
        {
          "internalType": "uint256",
          "name": "_packId",
          "type": "uint256"
        }
      ],
      "name": "openPack",
      "outputs": [],
      "stateMutability": "nonpayable",
      "type": "function"
    },
    {
      "inputs": [
        {
          "internalType": "uint256",
          "name": "",
          "type": "uint256"
        }
      ],
      "name": "packs",
      "outputs": [
        {
          "internalType": "string",
          "name": "uri",
          "type": "string"
        },
        {
          "internalType": "address",
          "name": "creator",
          "type": "address"
        },
        {
          "internalType": "uint256",
          "name": "currentSupply",
          "type": "uint256"
        },
        {
          "internalType": "uint256",
          "name": "openStart",
          "type": "uint256"
        },
        {
          "internalType": "uint256",
          "name": "openEnd",
          "type": "uint256"
        }
      ],
      "stateMutability": "view",
      "type": "function"
    },
    {
      "inputs": [],
      "name": "pause",
      "outputs": [],
      "stateMutability": "nonpayable",
      "type": "function"
    },
    {
      "inputs": [],
      "name": "paused",
      "outputs": [
        {
          "internalType": "bool",
          "name": "",
          "type": "bool"
        }
      ],
      "stateMutability": "view",
      "type": "function"
    },
    {
      "inputs": [
        {
          "internalType": "bytes32",
          "name": "",
          "type": "bytes32"
        }
      ],
      "name": "randomnessRequests",
      "outputs": [
        {
          "internalType": "uint256",
          "name": "packId",
          "type": "uint256"
        },
        {
          "internalType": "address",
          "name": "opener",
          "type": "address"
        }
      ],
      "stateMutability": "view",
      "type": "function"
    },
    {
      "inputs": [
        {
          "internalType": "bytes32",
          "name": "requestId",
          "type": "bytes32"
        },
        {
          "internalType": "uint256",
          "name": "randomness",
          "type": "uint256"
        }
      ],
      "name": "rawFulfillRandomness",
      "outputs": [],
      "stateMutability": "nonpayable",
      "type": "function"
    },
    {
      "inputs": [
        {
          "internalType": "bytes32",
          "name": "role",
          "type": "bytes32"
        },
        {
          "internalType": "address",
          "name": "account",
          "type": "address"
        }
      ],
      "name": "renounceRole",
      "outputs": [],
      "stateMutability": "nonpayable",
      "type": "function"
    },
    {
      "inputs": [
        {
          "internalType": "bytes32",
          "name": "role",
          "type": "bytes32"
        },
        {
          "internalType": "address",
          "name": "account",
          "type": "address"
        }
      ],
      "name": "revokeRole",
      "outputs": [],
      "stateMutability": "nonpayable",
      "type": "function"
    },
    {
      "inputs": [
        {
          "internalType": "uint256",
          "name": "",
          "type": "uint256"
        }
      ],
      "name": "rewards",
      "outputs": [
        {
          "internalType": "address",
          "name": "source",
          "type": "address"
        },
        {
          "internalType": "uint256",
          "name": "rewardsPerOpen",
          "type": "uint256"
        }
      ],
      "stateMutability": "view",
      "type": "function"
    },
    {
      "inputs": [],
      "name": "royaltyBps",
      "outputs": [
        {
          "internalType": "uint256",
          "name": "",
          "type": "uint256"
        }
      ],
      "stateMutability": "view",
      "type": "function"
    },
    {
      "inputs": [
        {
          "internalType": "uint256",
          "name": "tokenId",
          "type": "uint256"
        },
        {
          "internalType": "uint256",
          "name": "salePrice",
          "type": "uint256"
        }
      ],
      "name": "royaltyInfo",
      "outputs": [
        {
          "internalType": "address",
          "name": "receiver",
          "type": "address"
        },
        {
          "internalType": "uint256",
          "name": "royaltyAmount",
          "type": "uint256"
        }
      ],
      "stateMutability": "view",
      "type": "function"
    },
    {
      "inputs": [
        {
          "internalType": "address",
          "name": "from",
          "type": "address"
        },
        {
          "internalType": "address",
          "name": "to",
          "type": "address"
        },
        {
          "internalType": "uint256[]",
          "name": "ids",
          "type": "uint256[]"
        },
        {
          "internalType": "uint256[]",
          "name": "amounts",
          "type": "uint256[]"
        },
        {
          "internalType": "bytes",
          "name": "data",
          "type": "bytes"
        }
      ],
      "name": "safeBatchTransferFrom",
      "outputs": [],
      "stateMutability": "nonpayable",
      "type": "function"
    },
    {
      "inputs": [
        {
          "internalType": "address",
          "name": "from",
          "type": "address"
        },
        {
          "internalType": "address",
          "name": "to",
          "type": "address"
        },
        {
          "internalType": "uint256",
          "name": "id",
          "type": "uint256"
        },
        {
          "internalType": "uint256",
          "name": "amount",
          "type": "uint256"
        },
        {
          "internalType": "bytes",
          "name": "data",
          "type": "bytes"
        }
      ],
      "name": "safeTransferFrom",
      "outputs": [],
      "stateMutability": "nonpayable",
      "type": "function"
    },
    {
      "inputs": [
        {
          "internalType": "address",
          "name": "operator",
          "type": "address"
        },
        {
          "internalType": "bool",
          "name": "approved",
          "type": "bool"
        }
      ],
      "name": "setApprovalForAll",
      "outputs": [],
      "stateMutability": "nonpayable",
      "type": "function"
    },
    {
      "inputs": [
        {
          "internalType": "uint256",
          "name": "_newFees",
          "type": "uint256"
        }
      ],
      "name": "setChainlinkFees",
      "outputs": [],
      "stateMutability": "nonpayable",
      "type": "function"
    },
    {
      "inputs": [
        {
          "internalType": "string",
          "name": "_URI",
          "type": "string"
        }
      ],
      "name": "setContractURI",
      "outputs": [],
      "stateMutability": "nonpayable",
      "type": "function"
    },
    {
      "inputs": [
        {
          "internalType": "bool",
          "name": "_restrictedTransfer",
          "type": "bool"
        }
      ],
      "name": "setRestrictedTransfer",
      "outputs": [],
      "stateMutability": "nonpayable",
      "type": "function"
    },
    {
      "inputs": [
        {
          "internalType": "uint256",
          "name": "_royaltyBps",
          "type": "uint256"
        }
      ],
      "name": "setRoyaltyBps",
      "outputs": [],
      "stateMutability": "nonpayable",
      "type": "function"
    },
    {
      "inputs": [
        {
          "internalType": "bytes4",
          "name": "interfaceId",
          "type": "bytes4"
        }
      ],
      "name": "supportsInterface",
      "outputs": [
        {
          "internalType": "bool",
          "name": "",
          "type": "bool"
        }
      ],
      "stateMutability": "pure",
      "type": "function"
    },
    {
      "inputs": [
        {
          "internalType": "uint256",
          "name": "_id",
          "type": "uint256"
        }
      ],
      "name": "tokenURI",
      "outputs": [
        {
          "internalType": "string",
          "name": "",
          "type": "string"
        }
      ],
      "stateMutability": "view",
      "type": "function"
    },
    {
      "inputs": [
        {
          "internalType": "address",
          "name": "_to",
          "type": "address"
        },
        {
          "internalType": "uint256",
          "name": "_amount",
          "type": "uint256"
        }
      ],
      "name": "transferLink",
      "outputs": [],
      "stateMutability": "nonpayable",
      "type": "function"
    },
    {
      "inputs": [],
      "name": "unpause",
      "outputs": [],
      "stateMutability": "nonpayable",
      "type": "function"
    },
    {
      "inputs": [
        {
          "internalType": "uint256",
          "name": "_id",
          "type": "uint256"
        }
      ],
      "name": "uri",
      "outputs": [
        {
          "internalType": "string",
          "name": "",
          "type": "string"
        }
      ],
      "stateMutability": "view",
      "type": "function"
    },
    {
      "inputs": [],
      "name": "vrfFees",
      "outputs": [
        {
          "internalType": "uint256",
          "name": "",
          "type": "uint256"
        }
      ],
      "stateMutability": "view",
      "type": "function"
    },
    {
      "inputs": [],
      "name": "vrfKeyHash",
      "outputs": [
        {
          "internalType": "bytes32",
          "name": "",
          "type": "bytes32"
        }
      ],
      "stateMutability": "view",
      "type": "function"
    }
  ],
  "bytecode": "0x60c06040523480156200001157600080fd5b506040516200608738038062006087833981016040819052620000349162000465565b8686868686868680858588806200004b8162000166565b506005805460ff191690556200006c6000620000666200017f565b6200019c565b6200008a60008051602062006067833981519152620000666200017f565b620000b97f65d7a28e3265b37a6474929f336521b332c1681b933f6cb9f3376673440d862a620000666200017f565b506001600160601b0319606092831b811660a052911b16608052600780546001600160a01b039283166001600160a01b03199182161790915560088054928a1692909116919091179055600b839055600a82905585516200012290600d906020890190620003b2565b50620001527f8502233096d909befbda0999bb8ea2f3a6be3c138b9fbf003752a4c8bce86f6c620000666200017f565b505050505050505050505050505062000604565b80516200017b906004906020840190620003b2565b5050565b600062000196620001df60201b6200217e1760201c565b90505b90565b620001b382826200021f60201b620021ac1760201c565b6000828152600160209081526040909120620001da918390620021b66200022b821b17901c565b505050565b6000620001ec336200024b565b1562000202575060131936013560601c62000199565b620002176200026260201b620021cb1760201c565b905062000199565b6200017b828262000266565b600062000242836001600160a01b038416620002f0565b90505b92915050565b6007546001600160a01b038281169116145b919050565b3390565b6200027282826200033f565b6200017b576000828152602081815260408083206001600160a01b03851684529091529020805460ff19166001179055620002ac6200017f565b6001600160a01b0316816001600160a01b0316837f2f8788117e7eff1d82e926ec794901d17c78024a50270940304540a733656f0d60405160405180910390a45050565b6000620002fe838362000371565b620003365750815460018181018455600084815260208082209093018490558454848252828601909352604090209190915562000245565b50600062000245565b6000600080516020620060678339815191528314806200024257506200024283836200038960201b620021cf1760201c565b60009081526001919091016020526040902054151590565b6000918252602082815260408084206001600160a01b0393909316845291905290205460ff1690565b828054620003c09062000598565b90600052602060002090601f016020900481019282620003e457600085556200042f565b82601f10620003ff57805160ff19168380011785556200042f565b828001600101855582156200042f579182015b828111156200042f57825182559160200191906001019062000412565b506200043d92915062000441565b5090565b5b808211156200043d576000815560010162000442565b80516200025d81620005eb565b600080600080600080600060e0888a03121562000480578283fd5b87516200048d81620005eb565b602089810151919850906001600160401b0380821115620004ac578586fd5b818b0191508b601f830112620004c0578586fd5b815181811115620004d557620004d5620005d5565b604051601f8201601f1916810185018381118282101715620004fb57620004fb620005d5565b60405281815283820185018e101562000512578788fd5b8792505b8183101562000535578383018501518184018601529184019162000516565b818311156200054657878583830101525b809a5050505050506200055c6040890162000458565b94506200056c6060890162000458565b93506080880151925060a088015191506200058a60c0890162000458565b905092959891949750929550565b600281046001821680620005ad57607f821691505b60208210811415620005cf57634e487b7160e01b600052602260045260246000fd5b50919050565b634e487b7160e01b600052604160045260246000fd5b6001600160a01b03811681146200060157600080fd5b50565b60805160601c60a05160601c615a22620006456000396000818161191b015261252d0152600081816111e7015281816120d601526124fe0152615a226000f3fe608060405234801561001057600080fd5b506004361061034b5760003560e01c80638456cb59116101bd578063c63adb2b116100f9578063e8a3d485116100a2578063f242432a1161007c578063f242432a146106d6578063f301af42146106e9578063f5298aca146106fc578063f99b1d681461070f5761034b565b8063e8a3d485146106a8578063e985e9c5146106b0578063f23a6e61146106c35761034b565b8063d5391393116100d3578063d539139314610685578063d547741f1461068d578063e63ab1e9146106a05761034b565b8063c63adb2b1461066a578063c87b56dd146103a1578063ca15c873146106725761034b565b806394985ddd11610166578063b277ca4511610140578063b277ca451461060b578063b84c13921461061e578063bc197c8114610642578063c0e72740146106625761034b565b806394985ddd146105dd578063a217fddf146105f0578063a22cb465146105f85761034b565b80639010d07c116101975780639010d07c146105a457806391d14854146105b7578063938e3d7b146105ca5761034b565b80638456cb5914610569578063895ec54c146105715780638ba448c2146105915761034b565b806336568abe1161028c578063572b6c05116102355780636b20c4541161020f5780636b20c45414610533578063731133e91461054657806375794a3c1461055957806383661b29146105615761034b565b8063572b6c05146104f75780635c975abb1461050a5780635e619b78146105125761034b565b806350a88c7e1161026657806350a88c7e146104b1578063510b5158146104c45780635318c48f146104e45761034b565b806336568abe146104765780633f4ba83a146104895780634e1273f4146104915761034b565b80631f72d831116102f9578063248a9ca3116102d3578063248a9ca31461041c5780632a55205a1461042f5780632eb2c2d6146104505780632f2ff15d146104635761034b565b80631f72d831146103ec5780631f7fdffa14610401578063206b60f9146104145761034b565b80630e89341c1161032a5780630e89341c146103a157806310983e57146103c157806310e34e67146103c95761034b565b8062fdd58e1461035057806301ffc9a714610379578063041d443e14610399575b600080fd5b61036361035e3660046143aa565b610722565b6040516103709190614a05565b60405180910390f35b61038c6103873660046145c1565b61077e565b60405161037091906149fa565b6103636107d2565b6103b46103af36600461454e565b6107d8565b6040516103709190614a77565b61036361087a565b6103dc6103d736600461454e565b610880565b6040516103709493929190615696565b6103ff6103fa36600461454e565b610a4c565b005b6103ff61040f3660046142df565b610ce8565b610363610d00565b61036361042a36600461454e565b610d24565b61044261043d3660046145a0565b610d39565b604051610370929190614978565b6103ff61045e366004614165565b610dfd565b6103ff61047136600461457e565b610e5b565b6103ff61048436600461457e565b610e82565b6103ff610ea4565b6104a461049f366004614458565b610ef6565b60405161037091906149c2565b6103ff6104bf36600461454e565b611016565b6104d76104d236600461454e565b611413565b604051610370919061486b565b6103636104f236600461457e565b611431565b61038c610505366004614122565b61144e565b61038c611462565b61052561052036600461454e565b61146c565b604051610370929190614a0e565b6103ff61054136600461426e565b61148e565b6103ff610554366004614405565b6114e3565b6103636114fb565b61038c611501565b6103ff611511565b61058461057f36600461454e565b611561565b6040516103709190615683565b6103ff61059f366004614516565b61164b565b6104d76105b23660046145a0565b61179a565b61038c6105c536600461457e565b6117b9565b6103ff6105d83660046145f9565b6117ee565b6103ff6105eb3660046145a0565b611910565b610363611966565b6103ff610606366004614374565b61196b565b6103ff61061936600461454e565b611a39565b61063161062c36600461454e565b611b54565b604051610370959493929190614a8a565b610655610650366004614165565b611c15565b6040516103709190614a62565b6103b4611cfe565b610363611d8c565b61036361068036600461454e565b611d92565b610363611da9565b6103ff61069b36600461457e565b611dcd565b610363611dd7565b6103b4611dfb565b61038c6106be36600461413c565b611e8d565b6106556106d136600461420b565b611ebb565b6103ff6106e436600461420b565b611ed5565b6104426106f736600461454e565b611f2c565b6103ff61070a3660046143d3565b611f51565b6103ff61071d3660046143aa565b611fa6565b60006001600160a01b0383166107535760405162461bcd60e51b815260040161074a90614caa565b60405180910390fd5b5060008181526002602090815260408083206001600160a01b03861684529091529020545b92915050565b60006001600160e01b03198216630271189760e51b14806107af57506001600160e01b03198216636cdb3d1360e11b145b806107ca57506001600160e01b0319821663152a902d60e11b145b90505b919050565b600b5481565b6000818152600e602052604090208054606091906107f59061589d565b80601f01602080910402602001604051908101604052809291908181526020018280546108219061589d565b801561086e5780601f106108435761010080835404028352916020019161086e565b820191906000526020600020905b81548152906001019060200180831161085157829003601f168201915b50505050509050919050565b600a5481565b610888613ed4565b6000606080600e60008681526020019081526020016000206040518060a00160405290816000820180546108bb9061589d565b80601f01602080910402602001604051908101604052809291908181526020018280546108e79061589d565b80156109345780601f1061090957610100808354040283529160200191610934565b820191906000526020600020905b81548152906001019060200180831161091757829003601f168201915b50505091835250506001828101546001600160a01b0390811660208085019190915260028501546040808601919091526003860154606086015260049095015460809094019390935260008a8152600f8452849020805492018054855181860281018601909652808652959950911696509192908301828280156109d757602002820191906000526020600020905b8154815260200190600101908083116109c3575b50505050509150600f6000868152602001908152602001600020600201805480602002602001604051908101604052809291908181526020018280548015610a3e57602002820191906000526020600020905b815481526020019060010190808311610a2a575b505050505090509193509193565b60085460408051634a32c6bf60e11b815290516001600160a01b03909216916391d148549183916394658d7e91600480820192602092909190829003018186803b158015610a9957600080fd5b505afa158015610aad573d6000803e3d6000fd5b505050506040513d601f19601f82011682018060405250810190610ad19190614566565b610ad96121f8565b6040518363ffffffff1660e01b8152600401610af6929190614a0e565b60206040518083038186803b158015610b0e57600080fd5b505afa158015610b22573d6000803e3d6000fd5b505050506040513d601f19601f82011682018060405250810190610b469190614532565b610b625760405162461bcd60e51b815260040161074a90614bb9565b600860009054906101000a90046001600160a01b03166001600160a01b0316635cd423156040518163ffffffff1660e01b815260040160206040518083038186803b158015610bb057600080fd5b505afa158015610bc4573d6000803e3d6000fd5b505050506040513d601f19601f82011682018060405250810190610be891906146f4565b600860009054906101000a90046001600160a01b03166001600160a01b031663fd967f476040518163ffffffff1660e01b815260040160206040518083038186803b158015610c3657600080fd5b505afa158015610c4a573d6000803e3d6000fd5b505050506040513d601f19601f82011682018060405250810190610c6e91906146f4565b610c789190615812565b6fffffffffffffffffffffffffffffffff168110610ca85760405162461bcd60e51b815260040161074a9061550f565b600c8190556040517f244ea8d7627f5a08f4299862bd5a45752842c183aee5b0fb0d1e4887bfa605b390610cdd908390614a05565b60405180910390a150565b60405162461bcd60e51b815260040161074a90614d4b565b7f8502233096d909befbda0999bb8ea2f3a6be3c138b9fbf003752a4c8bce86f6c81565b60009081526020819052604090206001015490565b6000828152600e6020908152604080832060010154600854825163fd967f4760e01b815292516001600160a01b039283169594919092169263fd967f479260048083019392829003018186803b158015610d9257600080fd5b505afa158015610da6573d6000803e3d6000fd5b505050506040513d601f19601f82011682018060405250810190610dca91906146f4565b6fffffffffffffffffffffffffffffffff16600c5484610dea91906157f3565b610df491906157df565b90509250929050565b610e056121f8565b6001600160a01b0316856001600160a01b03161480610e2b5750610e2b856106be6121f8565b610e475760405162461bcd60e51b815260040161074a9061507b565b610e548585858585612207565b5050505050565b610e6582826123db565b6000828152600160205260409020610e7d90826121b6565b505050565b610e8c82826123ff565b6000828152600160205260409020610e7d9082612441565b610ed07f65d7a28e3265b37a6474929f336521b332c1681b933f6cb9f3376673440d862a6105c56121f8565b610eec5760405162461bcd60e51b815260040161074a906152a0565b610ef4612456565b565b60608151835114610f195760405162461bcd60e51b815260040161074a90615414565b6000835167ffffffffffffffff811115610f4357634e487b7160e01b600052604160045260246000fd5b604051908082528060200260200182016040528015610f6c578160200160208202803683370190505b50905060005b845181101561100e57610fd3858281518110610f9e57634e487b7160e01b600052603260045260246000fd5b6020026020010151858381518110610fc657634e487b7160e01b600052603260045260246000fd5b6020026020010151610722565b828281518110610ff357634e487b7160e01b600052603260045260246000fd5b6020908102919091010152611007816158d2565b9050610f72565b509392505050565b600860009054906101000a90046001600160a01b03166001600160a01b0316639d2f83f06040518163ffffffff1660e01b815260040160206040518083038186803b15801561106457600080fd5b505afa158015611078573d6000803e3d6000fd5b505050506040513d601f19601f8201168201806040525081019061109c9190614532565b156110b95760405162461bcd60e51b815260040161074a90614f53565b6000818152600e6020526040808220815160a081019092528054829082906110e09061589d565b80601f016020809104026020016040519081016040528092919081815260200182805461110c9061589d565b80156111595780601f1061112e57610100808354040283529160200191611159565b820191906000526020600020905b81548152906001019060200180831161113c57829003601f168201915b505050918352505060018201546001600160a01b0316602082015260028201546040820152600382015460608083019190915260049092015460809091015281015190915042108015906111b1575080608001514211155b6111cd5760405162461bcd60e51b815260040161074a90614c16565b600a546040516370a0823160e01b81526001600160a01b037f000000000000000000000000000000000000000000000000000000000000000016906370a082319061121c90309060040161486b565b60206040518083038186803b15801561123457600080fd5b505afa158015611248573d6000803e3d6000fd5b505050506040513d601f19601f8201168201806040525081019061126c9190614566565b101561128a5760405162461bcd60e51b815260040161074a90614e99565b600061129d6112976121f8565b84610722565b116112ba5760405162461bcd60e51b815260040161074a9061535a565b6000828152601160205260408120906112d16121f8565b6001600160a01b03168152602081019190915260400160002054156113085760405162461bcd60e51b815260040161074a90614f8a565b61131b6113136121f8565b8360016124c4565b600061132b600b54600a546124fa565b905060405180604001604052808481526020016113466121f8565b6001600160a01b03908116909152600083815260106020908152604080832085518155948201516001909501805473ffffffffffffffffffffffffffffffffffffffff19169590941694909417909255858152601190915290812082916113ab6121f8565b6001600160a01b031681526020810191909152604001600020556113cd6121f8565b6001600160a01b0316837fb5c27afec62496e403fae78e07136ae7c58425e8128c7b680ea24dee8c8d9401836040516114069190614a05565b60405180910390a3505050565b6000908152600e60205260409020600101546001600160a01b031690565b601160209081526000928352604080842090915290825290205481565b6007546001600160a01b0390811691161490565b60055460ff165b90565b601060205260009081526040902080546001909101546001600160a01b031682565b6114966121f8565b6001600160a01b0316836001600160a01b031614806114bc57506114bc836106be6121f8565b6114d85760405162461bcd60e51b815260040161074a90614e05565b610e7d83838361263d565b60405162461bcd60e51b815260040161074a9061556c565b60095481565b600754600160a01b900460ff1681565b61153d7f65d7a28e3265b37a6474929f336521b332c1681b933f6cb9f3376673440d862a6105c56121f8565b6115595760405162461bcd60e51b815260040161074a906152fd565b610ef46126e4565b611569613ed4565b6000828152600e602052604090819020815160a081019092528054829082906115919061589d565b80601f01602080910402602001604051908101604052809291908181526020018280546115bd9061589d565b801561160a5780601f106115df5761010080835404028352916020019161160a565b820191906000526020600020905b8154815290600101906020018083116115ed57829003601f168201915b505050918352505060018201546001600160a01b03166020820152600282015460408201526003820154606082015260049091015460809091015292915050565b60085460408051634a32c6bf60e11b815290516001600160a01b03909216916391d148549183916394658d7e91600480820192602092909190829003018186803b15801561169857600080fd5b505afa1580156116ac573d6000803e3d6000fd5b505050506040513d601f19601f820116820180604052508101906116d09190614566565b6116d86121f8565b6040518363ffffffff1660e01b81526004016116f5929190614a0e565b60206040518083038186803b15801561170d57600080fd5b505afa158015611721573d6000803e3d6000fd5b505050506040513d601f19601f820116820180604052508101906117459190614532565b6117615760405162461bcd60e51b815260040161074a90614bb9565b60078054911515600160a01b027fffffffffffffffffffffff00ffffffffffffffffffffffffffffffffffffffff909216919091179055565b60008281526001602052604081206117b2908361273f565b9392505050565b60007f9f2df0fed2c77648de5860a4cc508cd0818c85b8b8a1ab4ceeef8d981c8956a68314806117b257506117b283836121cf565b60085460408051634a32c6bf60e11b815290516001600160a01b03909216916391d148549183916394658d7e91600480820192602092909190829003018186803b15801561183b57600080fd5b505afa15801561184f573d6000803e3d6000fd5b505050506040513d601f19601f820116820180604052508101906118739190614566565b61187b6121f8565b6040518363ffffffff1660e01b8152600401611898929190614a0e565b60206040518083038186803b1580156118b057600080fd5b505afa1580156118c4573d6000803e3d6000fd5b505050506040513d601f19601f820116820180604052508101906118e89190614532565b6119045760405162461bcd60e51b815260040161074a90614bb9565b610e7d600d8383613f0c565b336001600160a01b037f000000000000000000000000000000000000000000000000000000000000000016146119585760405162461bcd60e51b815260040161074a906151d5565b611962828261274b565b5050565b600081565b816001600160a01b031661197d6121f8565b6001600160a01b031614156119a45760405162461bcd60e51b815260040161074a906153b7565b80600360006119b16121f8565b6001600160a01b03908116825260208083019390935260409182016000908120918716808252919093529120805460ff1916921515929092179091556119f56121f8565b6001600160a01b03167f17307eab39ab6107e8899845ad3d59bd9653f200f220920489ca2b5937696c3183604051611a2d91906149fa565b60405180910390a35050565b60085460408051634a32c6bf60e11b815290516001600160a01b03909216916391d148549183916394658d7e91600480820192602092909190829003018186803b158015611a8657600080fd5b505afa158015611a9a573d6000803e3d6000fd5b505050506040513d601f19601f82011682018060405250810190611abe9190614566565b611ac66121f8565b6040518363ffffffff1660e01b8152600401611ae3929190614a0e565b60206040518083038186803b158015611afb57600080fd5b505afa158015611b0f573d6000803e3d6000fd5b505050506040513d601f19601f82011682018060405250810190611b339190614532565b611b4f5760405162461bcd60e51b815260040161074a90614bb9565b600a55565b600e60205260009081526040902080548190611b6f9061589d565b80601f0160208091040260200160405190810160405280929190818152602001828054611b9b9061589d565b8015611be85780601f10611bbd57610100808354040283529160200191611be8565b820191906000526020600020905b815481529060010190602001808311611bcb57829003601f168201915b5050505060018301546002840154600385015460049095015493946001600160a01b039092169390925085565b600854604080516309d2f83f60e41b815290516000926001600160a01b031691639d2f83f0916004808301926020929190829003018186803b158015611c5a57600080fd5b505afa158015611c6e573d6000803e3d6000fd5b505050506040513d601f19601f82011682018060405250810190611c929190614532565b15611caf5760405162461bcd60e51b815260040161074a90614f53565b60008060008085806020019051810190611cc99190614666565b9350935093509350611ce88985611cde6121f8565b8b8b888888612944565b5063bc197c8160e01b9998505050505050505050565b600d8054611d0b9061589d565b80601f0160208091040260200160405190810160405280929190818152602001828054611d379061589d565b8015611d845780601f10611d5957610100808354040283529160200191611d84565b820191906000526020600020905b815481529060010190602001808311611d6757829003601f168201915b505050505081565b600c5481565b60008181526001602052604081206107ca90612cee565b7f9f2df0fed2c77648de5860a4cc508cd0818c85b8b8a1ab4ceeef8d981c8956a681565b610e8c8282612cf9565b7f65d7a28e3265b37a6474929f336521b332c1681b933f6cb9f3376673440d862a81565b6060600d8054611e0a9061589d565b80601f0160208091040260200160405190810160405280929190818152602001828054611e369061589d565b8015611e835780601f10611e5857610100808354040283529160200191611e83565b820191906000526020600020905b815481529060010190602001808311611e6657829003601f168201915b5050505050905090565b6001600160a01b03918216600090815260036020908152604080832093909416825291909152205460ff1690565b600060405162461bcd60e51b815260040161074a9061520c565b611edd6121f8565b6001600160a01b0316856001600160a01b03161480611f035750611f03856106be6121f8565b611f1f5760405162461bcd60e51b815260040161074a90614e05565b610e548585858585612d18565b600f60205260009081526040902080546003909101546001600160a01b039091169082565b611f596121f8565b6001600160a01b0316836001600160a01b03161480611f7f5750611f7f836106be6121f8565b611f9b5760405162461bcd60e51b815260040161074a90614e05565b610e7d8383836124c4565b60085460408051634a32c6bf60e11b815290516001600160a01b03909216916391d148549183916394658d7e91600480820192602092909190829003018186803b158015611ff357600080fd5b505afa158015612007573d6000803e3d6000fd5b505050506040513d601f19601f8201168201806040525081019061202b9190614566565b6120336121f8565b6040518363ffffffff1660e01b8152600401612050929190614a0e565b60206040518083038186803b15801561206857600080fd5b505afa15801561207c573d6000803e3d6000fd5b505050506040513d601f19601f820116820180604052508101906120a09190614532565b6120bc5760405162461bcd60e51b815260040161074a90614bb9565b60405163a9059cbb60e01b81526000906001600160a01b037f0000000000000000000000000000000000000000000000000000000000000000169063a9059cbb9061210d9086908690600401614978565b602060405180830381600087803b15801561212757600080fd5b505af115801561213b573d6000803e3d6000fd5b505050506040513d601f19601f8201168201806040525081019061215f9190614532565b905080610e7d5760405162461bcd60e51b815260040161074a90614e62565b60006121893361144e565b1561219d575060131936013560601c611469565b6121a56121cb565b9050611469565b6119628282612e5f565b60006117b2836001600160a01b038416612ee4565b3390565b6000918252602082815260408084206001600160a01b0393909316845291905290205460ff1690565b600061220261217e565b905090565b81518351146122285760405162461bcd60e51b815260040161074a90615471565b6001600160a01b03841661224e5760405162461bcd60e51b815260040161074a9061501e565b60006122586121f8565b9050612268818787878787612f2e565b60005b845181101561236d57600085828151811061229657634e487b7160e01b600052603260045260246000fd5b6020026020010151905060008583815181106122c257634e487b7160e01b600052603260045260246000fd5b60209081029190910181015160008481526002835260408082206001600160a01b038e1683529093529190912054909150818110156123135760405162461bcd60e51b815260040161074a9061511b565b60008381526002602090815260408083206001600160a01b038e8116855292528083208585039055908b168252812080548492906123529084906157c7565b9250508190555050505080612366906158d2565b905061226b565b50846001600160a01b0316866001600160a01b0316826001600160a01b03167f4a39dc06d4c0dbc64b70af90fd698a233a518aa5d07e595d983b8c0526c8f7fb87876040516123bd9291906149d5565b60405180910390a46123d381878787878761306a565b505050505050565b6123e482610d24565b6123f5816123f06121f8565b613178565b610e7d8383612e5f565b6124076121f8565b6001600160a01b0316816001600160a01b0316146124375760405162461bcd60e51b815260040161074a90615626565b61196282826131dc565b60006117b2836001600160a01b03841661325f565b61245e611462565b61247a5760405162461bcd60e51b815260040161074a90614c73565b6005805460ff191690557f5db9ee0a495bf2e6ff9c91a7834c1ba4fdd244a5e8aa4e537bd38aeae4b073aa6124ad6121f8565b6040516124ba919061486b565b60405180910390a1565b6124cf83838361337c565b6000828152600e6020526040812060020180548392906124f0908490615843565b9091555050505050565b60007f00000000000000000000000000000000000000000000000000000000000000006001600160a01b0316634000aea07f0000000000000000000000000000000000000000000000000000000000000000848660006040516020016125619291906147dc565b6040516020818303038152906040526040518463ffffffff1660e01b815260040161258e93929190614991565b602060405180830381600087803b1580156125a857600080fd5b505af11580156125bc573d6000803e3d6000fd5b505050506040513d601f19601f820116820180604052508101906125e09190614532565b506000838152600660205260408120546125ff9085908390309061348f565b60008581526006602052604090205490915061261c9060016157c7565b60008581526006602052604090205561263584826134c9565b949350505050565b6126488383836134fc565b60005b82518110156126de5781818151811061267457634e487b7160e01b600052603260045260246000fd5b6020026020010151600e60008584815181106126a057634e487b7160e01b600052603260045260246000fd5b6020026020010151815260200190815260200160002060020160008282546126c89190615843565b909155506126d79050816158d2565b905061264b565b50505050565b6126ec611462565b156127095760405162461bcd60e51b815260040161074a90614fe7565b6005805460ff191660011790557f62e78cea01bee320cd4e420270b5ea74000d11b0c9f74754ebdbfc544b05a2586124ad6121f8565b60006117b283836136b0565b60008281526010602090815260408083208151808301835281548082526001928301546001600160a01b03908116838701819052828852601187528588208189528752858820889055828852600f875285882086516080810188528154909316835294850180548751818a0281018a0190985280885294989397919693959294929385830193909283018282801561280257602002820191906000526020600020905b8154815260200190600101908083116127ee575b505050505081526020016002820180548060200260200160405190810160405280929190818152602001828054801561285a57602002820191906000526020600020905b815481526020019060010190808311612846575b50505050508152602001600382015481525050905060008061287d8588856136e8565b8451604051631759616b60e11b81529294509092506001600160a01b031690632eb2c2d6906128b69030908890879087906004016148dd565b600060405180830381600087803b1580156128d057600080fd5b505af11580156128e4573d6000803e3d6000fd5b5050505082600001516001600160a01b0316846001600160a01b0316867f9cae8e743935573869e2fe7223782448d71211235c93076166106782de1c234f8b86604051612932929190614a25565b60405180910390a45050505050505050565b600860009054906101000a90046001600160a01b03166001600160a01b0316639d2f83f06040518163ffffffff1660e01b815260040160206040518083038186803b15801561299257600080fd5b505afa1580156129a6573d6000803e3d6000fd5b505050506040513d601f19601f820116820180604052508101906129ca9190614532565b156129e75760405162461bcd60e51b815260040161074a90614f53565b6040516301ffc9a760e01b81526001600160a01b038716906301ffc9a790612a1a90636cdb3d1360e11b90600401614a62565b60206040518083038186803b158015612a3257600080fd5b505afa158015612a46573d6000803e3d6000fd5b505050506040513d601f19601f82011682018060405250810190612a6a9190614532565b612a865760405162461bcd60e51b815260040161074a906155c9565b612ab07f9f2df0fed2c77648de5860a4cc508cd0818c85b8b8a1ab4ceeef8d981c8956a6896117b9565b612acc5760405162461bcd60e51b815260040161074a90615243565b6000612ad7856139f6565b9050612ae382826158ed565b15612b005760405162461bcd60e51b815260040161074a90614ef6565b6000612b0a613a50565b90506000612b1884846157df565b905060006040518060a001604052808c81526020018d6001600160a01b031681526020018381526020018842612b4e91906157c7565b81526020018715612b6857612b6388426157c7565b612b6c565b6000195b9052604080516080810182526001600160a01b038d16815260208082018d90528183018c9052606082018990526000878152600e82529290922083518051949550919385939192612bc1928492910190613f90565b50602082810151600180840180546001600160a01b0393841673ffffffffffffffffffffffffffffffffffffffff19918216179091556040808701516002870155606087015160038701556080909601516004909501949094556000898152600f845294909420855181549216919093161782558381015180518594612c4c93908501920190614004565b5060408201518051612c68916002840191602090910190614004565b5060608201518160030155905050612c918d858560405180602001604052806000815250613a6e565b8c6001600160a01b03168b6001600160a01b0316857f9330e9dfd1e803e5d709edb2ad6657b74cb0fb1f182bd63fdbbcb01a463e8ad08585604051612cd79291906156de565b60405180910390a450505050505050505050505050565b60006107ca82613aa6565b612d0282610d24565b612d0e816123f06121f8565b610e7d83836131dc565b6001600160a01b038416612d3e5760405162461bcd60e51b815260040161074a9061501e565b6000612d486121f8565b9050612d68818787612d5988613aaa565b612d6288613aaa565b87612f2e565b60008481526002602090815260408083206001600160a01b038a16845290915290205483811015612dab5760405162461bcd60e51b815260040161074a9061511b565b60008581526002602090815260408083206001600160a01b038b8116855292528083208785039055908816825281208054869290612dea9084906157c7565b92505081905550856001600160a01b0316876001600160a01b0316836001600160a01b03167fc3d58168c5ae7397731d063d5bbf3d657854427343f4c083240f7aacaa2d0f628888604051612e409291906147dc565b60405180910390a4612e56828888888888613b03565b50505050505050565b612e6982826117b9565b611962576000828152602081815260408083206001600160a01b03851684529091529020805460ff19166001179055612ea06121f8565b6001600160a01b0316816001600160a01b0316837f2f8788117e7eff1d82e926ec794901d17c78024a50270940304540a733656f0d60405160405180910390a45050565b6000612ef08383613bd4565b612f2657508154600181810184556000848152602080822090930184905584548482528286019093526040902091909155610778565b506000610778565b612f3c868686868686613bec565b600754600160a01b900460ff1615612fc457612f787f8502233096d909befbda0999bb8ea2f3a6be3c138b9fbf003752a4c8bce86f6c866117b9565b80612fa85750612fa87f8502233096d909befbda0999bb8ea2f3a6be3c138b9fbf003752a4c8bce86f6c856117b9565b612fc45760405162461bcd60e51b815260040161074a90615178565b6001600160a01b0384166123d35760005b8351811015612e5657828181518110612ffe57634e487b7160e01b600052603260045260246000fd5b6020026020010151600e600086848151811061302a57634e487b7160e01b600052603260045260246000fd5b6020026020010151815260200190815260200160002060020160008282546130529190615843565b9091555061306390506001826157c7565b9050612fd5565b61307c846001600160a01b0316613bfa565b156123d35760405163bc197c8160e01b81526001600160a01b0385169063bc197c81906130b5908990899088908890889060040161487f565b602060405180830381600087803b1580156130cf57600080fd5b505af19250505080156130ff575060408051601f3d908101601f191682019092526130fc918101906145dd565b60015b6131485761310b615949565b806131165750613130565b8060405162461bcd60e51b815260040161074a9190614a77565b60405162461bcd60e51b815260040161074a90614aca565b6001600160e01b0319811663bc197c8160e01b14612e565760405162461bcd60e51b815260040161074a90614b5c565b61318282826117b9565b6119625761319a816001600160a01b03166014613c00565b6131a5836020613c00565b6040516020016131b69291906147ea565b60408051601f198184030181529082905262461bcd60e51b825261074a91600401614a77565b6131e682826117b9565b15611962576000828152602081815260408083206001600160a01b03851684529091529020805460ff1916905561321b6121f8565b6001600160a01b0316816001600160a01b0316837ff6391f5c32d9c69d2a47ea670b442974b53935d1edc7fd64eb21e047a839171b60405160405180910390a45050565b60008181526001830160205260408120548015613372576000613283600183615843565b855490915060009061329790600190615843565b90508181146133185760008660000182815481106132c557634e487b7160e01b600052603260045260246000fd5b90600052602060002001549050808760000184815481106132f657634e487b7160e01b600052603260045260246000fd5b6000918252602080832090910192909255918252600188019052604090208390555b855486908061333757634e487b7160e01b600052603160045260246000fd5b600190038181906000526020600020016000905590558560010160008681526020019081526020016000206000905560019350505050610778565b6000915050610778565b6001600160a01b0383166133a25760405162461bcd60e51b815260040161074a906150d8565b60006133ac6121f8565b90506133dc818560006133be87613aaa565b6133c787613aaa565b60405180602001604052806000815250612f2e565b60008381526002602090815260408083206001600160a01b03881684529091529020548281101561341f5760405162461bcd60e51b815260040161074a90614d07565b60008481526002602090815260408083206001600160a01b03808a16808652919093528184208786039055905190918516907fc3d58168c5ae7397731d063d5bbf3d657854427343f4c083240f7aacaa2d0f629061348090899089906147dc565b60405180910390a45050505050565b6000848484846040516020016134a89493929190614a3e565b60408051601f19818403018152919052805160209091012095945050505050565b600082826040516020016134de9291906147dc565b60405160208183030381529060405280519060200120905092915050565b6001600160a01b0383166135225760405162461bcd60e51b815260040161074a906150d8565b80518251146135435760405162461bcd60e51b815260040161074a90615471565b600061354d6121f8565b905061356d81856000868660405180602001604052806000815250612f2e565b60005b835181101561365157600084828151811061359b57634e487b7160e01b600052603260045260246000fd5b6020026020010151905060008483815181106135c757634e487b7160e01b600052603260045260246000fd5b60209081029190910181015160008481526002835260408082206001600160a01b038c1683529093529190912054909150818110156136185760405162461bcd60e51b815260040161074a90614d07565b60009283526002602090815260408085206001600160a01b038b1686529091529092209103905580613649816158d2565b915050613570565b5060006001600160a01b0316846001600160a01b0316826001600160a01b03167f4a39dc06d4c0dbc64b70af90fd698a233a518aa5d07e595d983b8c0526c8f7fb86866040516136a29291906149d5565b60405180910390a450505050565b60008260000182815481106136d557634e487b7160e01b600052603260045260246000fd5b9060005260206000200154905092915050565b60608060006136fa84604001516139f6565b9050600080856060015167ffffffffffffffff81111561372a57634e487b7160e01b600052604160045260246000fd5b604051908082528060200260200182016040528015613753578160200160208202803683370190505b509450856060015167ffffffffffffffff81111561378157634e487b7160e01b600052604160045260246000fd5b6040519080825280602002602001820160405280156137aa578160200160208202803683370190505b50935060005b866060015181101561396d578388826040516020016137d09291906147dc565b6040516020818303038152906040528051906020012060001c6137f391906158ed565b915060005b87602001515181101561395a57838860400151828151811061382a57634e487b7160e01b600052603260045260246000fd5b602002602001015161383c91906157c7565b83101561390f578760200151818151811061386757634e487b7160e01b600052603260045260246000fd5b602002602001015187838151811061388f57634e487b7160e01b600052603260045260246000fd5b60200260200101818152505060018683815181106138bd57634e487b7160e01b600052603260045260246000fd5b6020026020010181815250506001886040015182815181106138ef57634e487b7160e01b600052603260045260246000fd5b602002602001018181516139039190615843565b9052506000935061395a565b8760400151818151811061393357634e487b7160e01b600052603260045260246000fd5b60200260200101518461394691906157c7565b93506139536001826157c7565b90506137f8565b506139666001826157c7565b90506137b0565b506000888152600f602090815260409091208751815473ffffffffffffffffffffffffffffffffffffffff19166001600160a01b0390911617815587820151805189936139c1926001850192910190614004565b50604082015180516139dd916002840191602090910190614004565b5060608201518160030155905050505050935093915050565b6000805b8251811015613a4a57828181518110613a2357634e487b7160e01b600052603260045260246000fd5b602002602001015182613a3691906157c7565b9150613a436001826157c7565b90506139fa565b50919050565b60098054906001906000613a6483856157c7565b9250508190555090565b613a7a84848484613dbf565b6000838152600e602052604081206002018054849290613a9b9084906157c7565b909155505050505050565b5490565b60408051600180825281830190925260609160009190602080830190803683370190505090508281600081518110613af257634e487b7160e01b600052603260045260246000fd5b602090810291909101015292915050565b613b15846001600160a01b0316613bfa565b156123d35760405163f23a6e6160e01b81526001600160a01b0385169063f23a6e6190613b4e9089908990889088908890600401614935565b602060405180830381600087803b158015613b6857600080fd5b505af1925050508015613b98575060408051601f3d908101601f19168201909252613b95918101906145dd565b60015b613ba45761310b615949565b6001600160e01b0319811663f23a6e6160e01b14612e565760405162461bcd60e51b815260040161074a90614b5c565b60009081526001919091016020526040902054151590565b6123d3868686868686613ea1565b3b151590565b60606000613c0f8360026157f3565b613c1a9060026157c7565b67ffffffffffffffff811115613c4057634e487b7160e01b600052604160045260246000fd5b6040519080825280601f01601f191660200182016040528015613c6a576020820181803683370190505b509050600360fc1b81600081518110613c9357634e487b7160e01b600052603260045260246000fd5b60200101906001600160f81b031916908160001a905350600f60fb1b81600181518110613cd057634e487b7160e01b600052603260045260246000fd5b60200101906001600160f81b031916908160001a9053506000613cf48460026157f3565b613cff9060016157c7565b90505b6001811115613da0577f303132333435363738396162636465660000000000000000000000000000000085600f1660108110613d4e57634e487b7160e01b600052603260045260246000fd5b1a60f81b828281518110613d7257634e487b7160e01b600052603260045260246000fd5b60200101906001600160f81b031916908160001a90535060049490941c93613d9981615886565b9050613d02565b5083156117b25760405162461bcd60e51b815260040161074a90614b27565b6001600160a01b038416613de55760405162461bcd60e51b815260040161074a906154ce565b6000613def6121f8565b9050613e0181600087612d5988613aaa565b60008481526002602090815260408083206001600160a01b038916845290915281208054859290613e339084906157c7565b92505081905550846001600160a01b031660006001600160a01b0316826001600160a01b03167fc3d58168c5ae7397731d063d5bbf3d657854427343f4c083240f7aacaa2d0f628787604051613e8a9291906147dc565b60405180910390a4610e5481600087878787613b03565b613eaf8686868686866123d3565b613eb7611462565b156123d35760405162461bcd60e51b815260040161074a90614da8565b6040518060a001604052806060815260200160006001600160a01b031681526020016000815260200160008152602001600081525090565b828054613f189061589d565b90600052602060002090601f016020900481019282613f3a5760008555613f80565b82601f10613f535782800160ff19823516178555613f80565b82800160010185558215613f80579182015b82811115613f80578235825591602001919060010190613f65565b50613f8c92915061403e565b5090565b828054613f9c9061589d565b90600052602060002090601f016020900481019282613fbe5760008555613f80565b82601f10613fd757805160ff1916838001178555613f80565b82800160010185558215613f80579182015b82811115613f80578251825591602001919060010190613fe9565b828054828255906000526020600020908101928215613f805791602002820182811115613f80578251825591602001919060010190613fe9565b5b80821115613f8c576000815560010161403f565b80356001600160a01b03811681146107cd57600080fd5b600082601f83011261407a578081fd5b8135602061408f61408a8361577b565b615751565b82815281810190858301838502870184018810156140ab578586fd5b855b858110156140c9578135845292840192908401906001016140ad565b5090979650505050505050565b600082601f8301126140e6578081fd5b81356140f461408a8261579f565b818152846020838601011115614108578283fd5b816020850160208301379081016020019190915292915050565b600060208284031215614133578081fd5b6117b282614053565b6000806040838503121561414e578081fd5b61415783614053565b9150610df460208401614053565b600080600080600060a0868803121561417c578081fd5b61418586614053565b945061419360208701614053565b9350604086013567ffffffffffffffff808211156141af578283fd5b6141bb89838a0161406a565b945060608801359150808211156141d0578283fd5b6141dc89838a0161406a565b935060808801359150808211156141f1578283fd5b506141fe888289016140d6565b9150509295509295909350565b600080600080600060a08688031215614222578081fd5b61422b86614053565b945061423960208701614053565b93506040860135925060608601359150608086013567ffffffffffffffff811115614262578182fd5b6141fe888289016140d6565b600080600060608486031215614282578283fd5b61428b84614053565b9250602084013567ffffffffffffffff808211156142a7578384fd5b6142b38783880161406a565b935060408601359150808211156142c8578283fd5b506142d58682870161406a565b9150509250925092565b600080600080608085870312156142f4578182fd5b6142fd85614053565b9350602085013567ffffffffffffffff80821115614319578384fd5b6143258883890161406a565b9450604087013591508082111561433a578384fd5b6143468883890161406a565b9350606087013591508082111561435b578283fd5b50614368878288016140d6565b91505092959194509250565b60008060408385031215614386578182fd5b61438f83614053565b9150602083013561439f816159ee565b809150509250929050565b600080604083850312156143bc578182fd5b6143c583614053565b946020939093013593505050565b6000806000606084860312156143e7578081fd5b6143f084614053565b95602085013595506040909401359392505050565b6000806000806080858703121561441a578182fd5b61442385614053565b93506020850135925060408501359150606085013567ffffffffffffffff81111561444c578182fd5b614368878288016140d6565b6000806040838503121561446a578182fd5b823567ffffffffffffffff80821115614481578384fd5b818501915085601f830112614494578384fd5b813560206144a461408a8361577b565b82815281810190858301838502870184018b10156144c0578889fd5b8896505b848710156144e9576144d581614053565b8352600196909601959183019183016144c4565b50965050860135925050808211156144ff578283fd5b5061450c8582860161406a565b9150509250929050565b600060208284031215614527578081fd5b81356117b2816159ee565b600060208284031215614543578081fd5b81516117b2816159ee565b60006020828403121561455f578081fd5b5035919050565b600060208284031215614577578081fd5b5051919050565b60008060408385031215614590578182fd5b82359150610df460208401614053565b600080604083850312156145b2578182fd5b50508035926020909101359150565b6000602082840312156145d2578081fd5b81356117b2816159ff565b6000602082840312156145ee578081fd5b81516117b2816159ff565b6000806020838503121561460b578182fd5b823567ffffffffffffffff80821115614622578384fd5b818501915085601f830112614635578384fd5b813581811115614643578485fd5b866020828501011115614654578485fd5b60209290920196919550909350505050565b6000806000806080858703121561467b578182fd5b845167ffffffffffffffff811115614691578283fd5b8501601f810187136146a1578283fd5b80516146af61408a8261579f565b8181528860208385010111156146c3578485fd5b6146d482602083016020860161585a565b60208801516040890151606090990151919a909950909650945050505050565b600060208284031215614705578081fd5b81516fffffffffffffffffffffffffffffffff811681146117b2578182fd5b6000815180845260208085019450808401835b8381101561475357815187529582019590820190600101614737565b509495945050505050565b6000815180845261477681602086016020860161585a565b601f01601f19169290920160200192915050565b6000815160a0845261479f60a085018261475e565b90506001600160a01b0360208401511660208501526040830151604085015260608301516060850152608083015160808501528091505092915050565b918252602082015260400190565b60007f416363657373436f6e74726f6c3a206163636f756e74200000000000000000008252835161482281601785016020880161585a565b7f206973206d697373696e6720726f6c6520000000000000000000000000000000601791840191820152835161485f81602884016020880161585a565b01602801949350505050565b6001600160a01b0391909116815260200190565b60006001600160a01b03808816835280871660208401525060a060408301526148ab60a0830186614724565b82810360608401526148bd8186614724565b905082810360808401526148d1818561475e565b98975050505050505050565b60006001600160a01b03808716835280861660208401525060a0604083015261490960a0830185614724565b828103606084015261491b8185614724565b838103608090940193909352508152602001949350505050565b60006001600160a01b03808816835280871660208401525084604083015283606083015260a0608083015261496d60a083018461475e565b979650505050505050565b6001600160a01b03929092168252602082015260400190565b60006001600160a01b0385168252836020830152606060408301526149b9606083018461475e565b95945050505050565b6000602082526117b26020830184614724565b6000604082526149e86040830185614724565b82810360208401526149b98185614724565b901515815260200190565b90815260200190565b9182526001600160a01b0316602082015260400190565b6000838252604060208301526126356040830184614724565b93845260208401929092526001600160a01b03166040830152606082015260800190565b6001600160e01b031991909116815260200190565b6000602082526117b2602083018461475e565b600060a08252614a9d60a083018861475e565b90506001600160a01b03861660208301528460408301528360608301528260808301529695505050505050565b60208082526034908201527f455243313135353a207472616e7366657220746f206e6f6e204552433131353560408201527f526563656976657220696d706c656d656e746572000000000000000000000000606082015260800190565b6020808252818101527f537472696e67733a20686578206c656e67746820696e73756666696369656e74604082015260600190565b60208082526028908201527f455243313135353a204552433131353552656365697665722072656a6563746560408201527f6420746f6b656e73000000000000000000000000000000000000000000000000606082015260800190565b60208082526033908201527f5061636b3a206f6e6c7920612070726f746f636f6c2061646d696e2063616e2060408201527f63616c6c20746869732066756e6374696f6e2e00000000000000000000000000606082015260800190565b60208082526039908201527f5061636b3a207468652077696e646f7720746f206f70656e207061636b73206860408201527f6173206e6f742073746172746564206f7220636c6f7365642e00000000000000606082015260800190565b60208082526014908201527f5061757361626c653a206e6f7420706175736564000000000000000000000000604082015260600190565b6020808252602b908201527f455243313135353a2062616c616e636520717565727920666f7220746865207a60408201527f65726f2061646472657373000000000000000000000000000000000000000000606082015260800190565b60208082526024908201527f455243313135353a206275726e20616d6f756e7420657863656564732062616c604082015263616e636560e01b606082015260800190565b60208082526031908201527f4163636573734e46543a2063616e6e6f742075736520726567756c6172206d6960408201527f6e7442617463682066756e6374696f6e2e000000000000000000000000000000606082015260800190565b6020808252602c908201527f455243313135355061757361626c653a20746f6b656e207472616e736665722060408201527f7768696c65207061757365640000000000000000000000000000000000000000606082015260800190565b60208082526029908201527f455243313135353a2063616c6c6572206973206e6f74206f776e6572206e6f7260408201527f20617070726f7665640000000000000000000000000000000000000000000000606082015260800190565b6020808252601e908201527f5061636b3a204661696c656420746f207472616e73666572204c494e4b2e0000604082015260600190565b60208082526034908201527f5061636b3a204e6f7420656e6f756768204c494e4b20746f2066756c66696c6c60408201527f2072616e646f6d6e65737320726571756573742e000000000000000000000000606082015260800190565b60208082526029908201527f5061636b3a20696e76616c6964206e756d626572206f6620726577617264732060408201527f706572206f70656e2e0000000000000000000000000000000000000000000000606082015260800190565b6020808252601d908201527f5061636b3a205468652070726f746f636f6c206973207061757365642e000000604082015260600190565b60208082526032908201527f5061636b3a206d757374207761697420666f72207468652070656e64696e672060408201527f7061636b20746f206265206f70656e65642e0000000000000000000000000000606082015260800190565b60208082526010908201527f5061757361626c653a2070617573656400000000000000000000000000000000604082015260600190565b60208082526025908201527f455243313135353a207472616e7366657220746f20746865207a65726f20616460408201527f6472657373000000000000000000000000000000000000000000000000000000606082015260800190565b60208082526032908201527f455243313135353a207472616e736665722063616c6c6572206973206e6f742060408201527f6f776e6572206e6f7220617070726f7665640000000000000000000000000000606082015260800190565b60208082526023908201527f455243313135353a206275726e2066726f6d20746865207a65726f206164647260408201526265737360e81b606082015260800190565b6020808252602a908201527f455243313135353a20696e73756666696369656e742062616c616e636520666f60408201527f72207472616e7366657200000000000000000000000000000000000000000000606082015260800190565b60208082526037908201527f5061636b3a205472616e7366657273206172652072657374726963746564207460408201527f6f205452414e534645525f524f4c4520686f6c64657273000000000000000000606082015260800190565b6020808252601f908201527f4f6e6c7920565246436f6f7264696e61746f722063616e2066756c66696c6c00604082015260600190565b6020808252601e908201527f5061636b3a204d75737420757365206261746368207472616e736665722e0000604082015260600190565b6020808252603c908201527f5061636b3a204f6e6c79206163636f756e74732077697468204d494e5445525f60408201527f524f4c452063616e2063616c6c20746869732066756e6374696f6e2e00000000606082015260800190565b6020808252603b908201527f455243313135355072657365744d696e7465725061757365723a206d7573742060408201527f686176652070617573657220726f6c6520746f20756e70617573650000000000606082015260800190565b60208082526039908201527f455243313135355072657365744d696e7465725061757365723a206d7573742060408201527f686176652070617573657220726f6c6520746f20706175736500000000000000606082015260800190565b6020808252602f908201527f5061636b3a2073656e646572206f776e73206e6f207061636b73206f6620746860408201527f6520676976656e207061636b49642e0000000000000000000000000000000000606082015260800190565b60208082526029908201527f455243313135353a2073657474696e6720617070726f76616c2073746174757360408201527f20666f722073656c660000000000000000000000000000000000000000000000606082015260800190565b60208082526029908201527f455243313135353a206163636f756e747320616e6420696473206c656e67746860408201527f206d69736d617463680000000000000000000000000000000000000000000000606082015260800190565b60208082526028908201527f455243313135353a2069647320616e6420616d6f756e7473206c656e6774682060408201527f6d69736d61746368000000000000000000000000000000000000000000000000606082015260800190565b60208082526021908201527f455243313135353a206d696e7420746f20746865207a65726f206164647265736040820152607360f81b606082015260800190565b60208082526029908201527f4e46543a204270732070726f7669646564206d757374206265206c657373207460408201527f68616e20392c3030300000000000000000000000000000000000000000000000606082015260800190565b6020808252602c908201527f4163636573734e46543a2063616e6e6f742075736520726567756c6172206d6960408201527f6e742066756e6374696f6e2e0000000000000000000000000000000000000000606082015260800190565b60208082526032908201527f5061636b3a2072657761726420636f6e747261637420646f6573206e6f74206960408201527f6d706c656d656e742045524320313135352e0000000000000000000000000000606082015260800190565b6020808252602f908201527f416363657373436f6e74726f6c3a2063616e206f6e6c792072656e6f756e636560408201527f20726f6c657320666f722073656c660000000000000000000000000000000000606082015260800190565b6000602082526117b2602083018461478a565b6000608082526156a9608083018761478a565b6001600160a01b038616602084015282810360408401526156ca8186614724565b9050828103606084015261496d8185614724565b6000604082526156f1604083018561478a565b82810360208401526001600160a01b03845116815260208401516080602083015261571f6080830182614724565b9050604085015182820360408401526157388282614724565b9150506060850151606083015280925050509392505050565b60405181810167ffffffffffffffff811182821017156157735761577361592d565b604052919050565b600067ffffffffffffffff8211156157955761579561592d565b5060209081020190565b600067ffffffffffffffff8211156157b9576157b961592d565b50601f01601f191660200190565b600082198211156157da576157da615901565b500190565b6000826157ee576157ee615917565b500490565b600081600019048311821515161561580d5761580d615901565b500290565b60006fffffffffffffffffffffffffffffffff8381169083168181101561583b5761583b615901565b039392505050565b60008282101561585557615855615901565b500390565b60005b8381101561587557818101518382015260200161585d565b838111156126de5750506000910152565b60008161589557615895615901565b506000190190565b6002810460018216806158b157607f821691505b60208210811415613a4a57634e487b7160e01b600052602260045260246000fd5b60006000198214156158e6576158e6615901565b5060010190565b6000826158fc576158fc615917565b500690565b634e487b7160e01b600052601160045260246000fd5b634e487b7160e01b600052601260045260246000fd5b634e487b7160e01b600052604160045260246000fd5b60e01c90565b600060443d101561595957611469565b600481823e6308c379a061596d8251615943565b1461597757611469565b6040513d600319016004823e80513d67ffffffffffffffff81602484011181841117156159a75750505050611469565b828401925082519150808211156159c15750505050611469565b503d830160208284010111156159d957505050611469565b601f01601f1916810160200160405291505090565b80151581146159fc57600080fd5b50565b6001600160e01b0319811681146159fc57600080fdfea164736f6c6343000800000a9f2df0fed2c77648de5860a4cc508cd0818c85b8b8a1ab4ceeef8d981c8956a6",
  "linkReferences": {},
  "deployedLinkReferences": {}
}