{
  "_format": "hh-sol-artifact-1",
  "contractName": "Pack_PL",
  "sourceName": "contracts/permissionless/Pack_PL.sol",
  "abi": [
    {
      "inputs": [
        {
          "internalType": "address payable",
          "name": "_controlCenter",
          "type": "address"
        },
        {
          "internalType": "string",
          "name": "_uri",
          "type": "string"
        },
        {
          "internalType": "address",
          "name": "_vrfCoordinator",
          "type": "address"
        },
        {
          "internalType": "address",
          "name": "_linkToken",
          "type": "address"
        },
        {
          "internalType": "bytes32",
          "name": "_keyHash",
          "type": "bytes32"
        },
        {
          "internalType": "uint256",
          "name": "_fees",
          "type": "uint256"
        },
        {
          "internalType": "address",
          "name": "_trustedForwarder",
          "type": "address"
        }
      ],
      "stateMutability": "nonpayable",
      "type": "constructor"
    },
    {
      "anonymous": false,
      "inputs": [
        {
          "indexed": true,
          "internalType": "address",
          "name": "account",
          "type": "address"
        },
        {
          "indexed": true,
          "internalType": "address",
          "name": "operator",
          "type": "address"
        },
        {
          "indexed": false,
          "internalType": "bool",
          "name": "approved",
          "type": "bool"
        }
      ],
      "name": "ApprovalForAll",
      "type": "event"
    },
    {
      "anonymous": false,
      "inputs": [
        {
          "indexed": true,
          "internalType": "uint256",
          "name": "packId",
          "type": "uint256"
        },
        {
          "indexed": true,
          "internalType": "address",
          "name": "rewardContract",
          "type": "address"
        },
        {
          "indexed": true,
          "internalType": "address",
          "name": "creator",
          "type": "address"
        },
        {
          "components": [
            {
              "internalType": "string",
              "name": "uri",
              "type": "string"
            },
            {
              "internalType": "address",
              "name": "creator",
              "type": "address"
            },
            {
              "internalType": "uint256",
              "name": "openStart",
              "type": "uint256"
            },
            {
              "internalType": "uint256",
              "name": "openEnd",
              "type": "uint256"
            }
          ],
          "indexed": false,
          "internalType": "struct Pack.PackState",
          "name": "packState",
          "type": "tuple"
        },
        {
          "components": [
            {
              "internalType": "address",
              "name": "source",
              "type": "address"
            },
            {
              "internalType": "uint256[]",
              "name": "tokenIds",
              "type": "uint256[]"
            },
            {
              "internalType": "uint256[]",
              "name": "amountsPacked",
              "type": "uint256[]"
            },
            {
              "internalType": "uint256",
              "name": "rewardsPerOpen",
              "type": "uint256"
            }
          ],
          "indexed": false,
          "internalType": "struct Pack.Rewards",
          "name": "rewards",
          "type": "tuple"
        }
      ],
      "name": "PackCreated",
      "type": "event"
    },
    {
      "anonymous": false,
      "inputs": [
        {
          "indexed": true,
          "internalType": "uint256",
          "name": "packId",
          "type": "uint256"
        },
        {
          "indexed": true,
          "internalType": "address",
          "name": "opener",
          "type": "address"
        },
        {
          "indexed": false,
          "internalType": "bytes32",
          "name": "requestId",
          "type": "bytes32"
        },
        {
          "indexed": true,
          "internalType": "address",
          "name": "rewardContract",
          "type": "address"
        },
        {
          "indexed": false,
          "internalType": "uint256[]",
          "name": "rewardIds",
          "type": "uint256[]"
        }
      ],
      "name": "PackOpenFulfilled",
      "type": "event"
    },
    {
      "anonymous": false,
      "inputs": [
        {
          "indexed": true,
          "internalType": "uint256",
          "name": "packId",
          "type": "uint256"
        },
        {
          "indexed": true,
          "internalType": "address",
          "name": "opener",
          "type": "address"
        },
        {
          "indexed": false,
          "internalType": "bytes32",
          "name": "requestId",
          "type": "bytes32"
        }
      ],
      "name": "PackOpenRequest",
      "type": "event"
    },
    {
      "anonymous": false,
      "inputs": [
        {
          "indexed": false,
          "internalType": "address",
          "name": "account",
          "type": "address"
        }
      ],
      "name": "Paused",
      "type": "event"
    },
    {
      "anonymous": false,
      "inputs": [
        {
          "indexed": true,
          "internalType": "bytes32",
          "name": "role",
          "type": "bytes32"
        },
        {
          "indexed": true,
          "internalType": "bytes32",
          "name": "previousAdminRole",
          "type": "bytes32"
        },
        {
          "indexed": true,
          "internalType": "bytes32",
          "name": "newAdminRole",
          "type": "bytes32"
        }
      ],
      "name": "RoleAdminChanged",
      "type": "event"
    },
    {
      "anonymous": false,
      "inputs": [
        {
          "indexed": true,
          "internalType": "bytes32",
          "name": "role",
          "type": "bytes32"
        },
        {
          "indexed": true,
          "internalType": "address",
          "name": "account",
          "type": "address"
        },
        {
          "indexed": true,
          "internalType": "address",
          "name": "sender",
          "type": "address"
        }
      ],
      "name": "RoleGranted",
      "type": "event"
    },
    {
      "anonymous": false,
      "inputs": [
        {
          "indexed": true,
          "internalType": "bytes32",
          "name": "role",
          "type": "bytes32"
        },
        {
          "indexed": true,
          "internalType": "address",
          "name": "account",
          "type": "address"
        },
        {
          "indexed": true,
          "internalType": "address",
          "name": "sender",
          "type": "address"
        }
      ],
      "name": "RoleRevoked",
      "type": "event"
    },
    {
      "anonymous": false,
      "inputs": [
        {
          "indexed": false,
          "internalType": "uint256",
          "name": "royaltyBps",
          "type": "uint256"
        }
      ],
      "name": "RoyaltyUpdated",
      "type": "event"
    },
    {
      "anonymous": false,
      "inputs": [
        {
          "indexed": true,
          "internalType": "address",
          "name": "operator",
          "type": "address"
        },
        {
          "indexed": true,
          "internalType": "address",
          "name": "from",
          "type": "address"
        },
        {
          "indexed": true,
          "internalType": "address",
          "name": "to",
          "type": "address"
        },
        {
          "indexed": false,
          "internalType": "uint256[]",
          "name": "ids",
          "type": "uint256[]"
        },
        {
          "indexed": false,
          "internalType": "uint256[]",
          "name": "values",
          "type": "uint256[]"
        }
      ],
      "name": "TransferBatch",
      "type": "event"
    },
    {
      "anonymous": false,
      "inputs": [
        {
          "indexed": true,
          "internalType": "address",
          "name": "operator",
          "type": "address"
        },
        {
          "indexed": true,
          "internalType": "address",
          "name": "from",
          "type": "address"
        },
        {
          "indexed": true,
          "internalType": "address",
          "name": "to",
          "type": "address"
        },
        {
          "indexed": false,
          "internalType": "uint256",
          "name": "id",
          "type": "uint256"
        },
        {
          "indexed": false,
          "internalType": "uint256",
          "name": "value",
          "type": "uint256"
        }
      ],
      "name": "TransferSingle",
      "type": "event"
    },
    {
      "anonymous": false,
      "inputs": [
        {
          "indexed": false,
          "internalType": "string",
          "name": "value",
          "type": "string"
        },
        {
          "indexed": true,
          "internalType": "uint256",
          "name": "id",
          "type": "uint256"
        }
      ],
      "name": "URI",
      "type": "event"
    },
    {
      "anonymous": false,
      "inputs": [
        {
          "indexed": false,
          "internalType": "address",
          "name": "account",
          "type": "address"
        }
      ],
      "name": "Unpaused",
      "type": "event"
    },
    {
      "inputs": [],
      "name": "DEFAULT_ADMIN_ROLE",
      "outputs": [
        {
          "internalType": "bytes32",
          "name": "",
          "type": "bytes32"
        }
      ],
      "stateMutability": "view",
      "type": "function"
    },
    {
      "inputs": [],
      "name": "MINTER_ROLE",
      "outputs": [
        {
          "internalType": "bytes32",
          "name": "",
          "type": "bytes32"
        }
      ],
      "stateMutability": "view",
      "type": "function"
    },
    {
      "inputs": [],
      "name": "PAUSER_ROLE",
      "outputs": [
        {
          "internalType": "bytes32",
          "name": "",
          "type": "bytes32"
        }
      ],
      "stateMutability": "view",
      "type": "function"
    },
    {
      "inputs": [],
      "name": "TRANSFER_ROLE",
      "outputs": [
        {
          "internalType": "bytes32",
          "name": "",
          "type": "bytes32"
        }
      ],
      "stateMutability": "view",
      "type": "function"
    },
    {
      "inputs": [],
      "name": "_contractURI",
      "outputs": [
        {
          "internalType": "string",
          "name": "",
          "type": "string"
        }
      ],
      "stateMutability": "view",
      "type": "function"
    },
    {
      "inputs": [
        {
          "internalType": "address",
          "name": "account",
          "type": "address"
        },
        {
          "internalType": "uint256",
          "name": "id",
          "type": "uint256"
        }
      ],
      "name": "balanceOf",
      "outputs": [
        {
          "internalType": "uint256",
          "name": "",
          "type": "uint256"
        }
      ],
      "stateMutability": "view",
      "type": "function"
    },
    {
      "inputs": [
        {
          "internalType": "address[]",
          "name": "accounts",
          "type": "address[]"
        },
        {
          "internalType": "uint256[]",
          "name": "ids",
          "type": "uint256[]"
        }
      ],
      "name": "balanceOfBatch",
      "outputs": [
        {
          "internalType": "uint256[]",
          "name": "",
          "type": "uint256[]"
        }
      ],
      "stateMutability": "view",
      "type": "function"
    },
    {
      "inputs": [
        {
          "internalType": "address",
          "name": "account",
          "type": "address"
        },
        {
          "internalType": "uint256",
          "name": "id",
          "type": "uint256"
        },
        {
          "internalType": "uint256",
          "name": "value",
          "type": "uint256"
        }
      ],
      "name": "burn",
      "outputs": [],
      "stateMutability": "nonpayable",
      "type": "function"
    },
    {
      "inputs": [
        {
          "internalType": "address",
          "name": "account",
          "type": "address"
        },
        {
          "internalType": "uint256[]",
          "name": "ids",
          "type": "uint256[]"
        },
        {
          "internalType": "uint256[]",
          "name": "values",
          "type": "uint256[]"
        }
      ],
      "name": "burnBatch",
      "outputs": [],
      "stateMutability": "nonpayable",
      "type": "function"
    },
    {
      "inputs": [],
      "name": "contractURI",
      "outputs": [
        {
          "internalType": "string",
          "name": "",
          "type": "string"
        }
      ],
      "stateMutability": "view",
      "type": "function"
    },
    {
      "inputs": [
        {
          "internalType": "uint256",
          "name": "_packId",
          "type": "uint256"
        }
      ],
      "name": "creator",
      "outputs": [
        {
          "internalType": "address",
          "name": "",
          "type": "address"
        }
      ],
      "stateMutability": "view",
      "type": "function"
    },
    {
      "inputs": [
        {
          "internalType": "uint256",
          "name": "",
          "type": "uint256"
        },
        {
          "internalType": "address",
          "name": "",
          "type": "address"
        }
      ],
      "name": "currentRequestId",
      "outputs": [
        {
          "internalType": "bytes32",
          "name": "",
          "type": "bytes32"
        }
      ],
      "stateMutability": "view",
      "type": "function"
    },
    {
      "inputs": [
        {
          "internalType": "uint256",
          "name": "_packId",
          "type": "uint256"
        }
      ],
      "name": "getPack",
      "outputs": [
        {
          "components": [
            {
              "internalType": "string",
              "name": "uri",
              "type": "string"
            },
            {
              "internalType": "address",
              "name": "creator",
              "type": "address"
            },
            {
              "internalType": "uint256",
              "name": "openStart",
              "type": "uint256"
            },
            {
              "internalType": "uint256",
              "name": "openEnd",
              "type": "uint256"
            }
          ],
          "internalType": "struct Pack.PackState",
          "name": "pack",
          "type": "tuple"
        }
      ],
      "stateMutability": "view",
      "type": "function"
    },
    {
      "inputs": [
        {
          "internalType": "uint256",
          "name": "_packId",
          "type": "uint256"
        }
      ],
      "name": "getPackWithRewards",
      "outputs": [
        {
          "components": [
            {
              "internalType": "string",
              "name": "uri",
              "type": "string"
            },
            {
              "internalType": "address",
              "name": "creator",
              "type": "address"
            },
            {
              "internalType": "uint256",
              "name": "openStart",
              "type": "uint256"
            },
            {
              "internalType": "uint256",
              "name": "openEnd",
              "type": "uint256"
            }
          ],
          "internalType": "struct Pack.PackState",
          "name": "pack",
          "type": "tuple"
        },
        {
          "internalType": "address",
          "name": "source",
          "type": "address"
        },
        {
          "internalType": "uint256[]",
          "name": "tokenIds",
          "type": "uint256[]"
        },
        {
          "internalType": "uint256[]",
          "name": "amountsPacked",
          "type": "uint256[]"
        }
      ],
      "stateMutability": "view",
      "type": "function"
    },
    {
      "inputs": [
        {
          "internalType": "bytes32",
          "name": "role",
          "type": "bytes32"
        }
      ],
      "name": "getRoleAdmin",
      "outputs": [
        {
          "internalType": "bytes32",
          "name": "",
          "type": "bytes32"
        }
      ],
      "stateMutability": "view",
      "type": "function"
    },
    {
      "inputs": [
        {
          "internalType": "bytes32",
          "name": "role",
          "type": "bytes32"
        },
        {
          "internalType": "uint256",
          "name": "index",
          "type": "uint256"
        }
      ],
      "name": "getRoleMember",
      "outputs": [
        {
          "internalType": "address",
          "name": "",
          "type": "address"
        }
      ],
      "stateMutability": "view",
      "type": "function"
    },
    {
      "inputs": [
        {
          "internalType": "bytes32",
          "name": "role",
          "type": "bytes32"
        }
      ],
      "name": "getRoleMemberCount",
      "outputs": [
        {
          "internalType": "uint256",
          "name": "",
          "type": "uint256"
        }
      ],
      "stateMutability": "view",
      "type": "function"
    },
    {
      "inputs": [
        {
          "internalType": "bytes32",
          "name": "role",
          "type": "bytes32"
        },
        {
          "internalType": "address",
          "name": "account",
          "type": "address"
        }
      ],
      "name": "grantRole",
      "outputs": [],
      "stateMutability": "nonpayable",
      "type": "function"
    },
    {
      "inputs": [
        {
          "internalType": "bytes32",
          "name": "role",
          "type": "bytes32"
        },
        {
          "internalType": "address",
          "name": "account",
          "type": "address"
        }
      ],
      "name": "hasRole",
      "outputs": [
        {
          "internalType": "bool",
          "name": "",
          "type": "bool"
        }
      ],
      "stateMutability": "view",
      "type": "function"
    },
    {
      "inputs": [
        {
          "internalType": "address",
          "name": "account",
          "type": "address"
        },
        {
          "internalType": "address",
          "name": "operator",
          "type": "address"
        }
      ],
      "name": "isApprovedForAll",
      "outputs": [
        {
          "internalType": "bool",
          "name": "",
          "type": "bool"
        }
      ],
      "stateMutability": "view",
      "type": "function"
    },
    {
      "inputs": [],
      "name": "isRestrictedTransfer",
      "outputs": [
        {
          "internalType": "bool",
          "name": "",
          "type": "bool"
        }
      ],
      "stateMutability": "view",
      "type": "function"
    },
    {
      "inputs": [
        {
          "internalType": "address",
          "name": "forwarder",
          "type": "address"
        }
      ],
      "name": "isTrustedForwarder",
      "outputs": [
        {
          "internalType": "bool",
          "name": "",
          "type": "bool"
        }
      ],
      "stateMutability": "view",
      "type": "function"
    },
    {
      "inputs": [
        {
          "internalType": "address",
          "name": "",
          "type": "address"
        },
        {
          "internalType": "uint256",
          "name": "",
          "type": "uint256"
        },
        {
          "internalType": "uint256",
          "name": "",
          "type": "uint256"
        },
        {
          "internalType": "bytes",
          "name": "",
          "type": "bytes"
        }
      ],
      "name": "mint",
      "outputs": [],
      "stateMutability": "pure",
      "type": "function"
    },
    {
      "inputs": [
        {
          "internalType": "address",
          "name": "",
          "type": "address"
        },
        {
          "internalType": "uint256[]",
          "name": "",
          "type": "uint256[]"
        },
        {
          "internalType": "uint256[]",
          "name": "",
          "type": "uint256[]"
        },
        {
          "internalType": "bytes",
          "name": "",
          "type": "bytes"
        }
      ],
      "name": "mintBatch",
      "outputs": [],
      "stateMutability": "pure",
      "type": "function"
    },
    {
      "inputs": [],
      "name": "nextTokenId",
      "outputs": [
        {
          "internalType": "uint256",
          "name": "",
          "type": "uint256"
        }
      ],
      "stateMutability": "view",
      "type": "function"
    },
    {
      "inputs": [
        {
          "internalType": "address",
          "name": "",
          "type": "address"
        },
        {
          "internalType": "address",
          "name": "_from",
          "type": "address"
        },
        {
          "internalType": "uint256[]",
          "name": "_ids",
          "type": "uint256[]"
        },
        {
          "internalType": "uint256[]",
          "name": "_values",
          "type": "uint256[]"
        },
        {
          "internalType": "bytes",
          "name": "_data",
          "type": "bytes"
        }
      ],
      "name": "onERC1155BatchReceived",
      "outputs": [
        {
          "internalType": "bytes4",
          "name": "",
          "type": "bytes4"
        }
      ],
      "stateMutability": "nonpayable",
      "type": "function"
    },
    {
      "inputs": [
        {
          "internalType": "address",
          "name": "",
          "type": "address"
        },
        {
          "internalType": "address",
          "name": "",
          "type": "address"
        },
        {
          "internalType": "uint256",
          "name": "",
          "type": "uint256"
        },
        {
          "internalType": "uint256",
          "name": "",
          "type": "uint256"
        },
        {
          "internalType": "bytes",
          "name": "",
          "type": "bytes"
        }
      ],
      "name": "onERC1155Received",
      "outputs": [
        {
          "internalType": "bytes4",
          "name": "",
          "type": "bytes4"
        }
      ],
      "stateMutability": "nonpayable",
      "type": "function"
    },
    {
      "inputs": [
        {
          "internalType": "address",
          "name": "",
          "type": "address"
        },
        {
          "internalType": "address",
          "name": "",
          "type": "address"
        },
        {
          "internalType": "uint256",
          "name": "",
          "type": "uint256"
        },
        {
          "internalType": "bytes",
          "name": "",
          "type": "bytes"
        }
      ],
      "name": "onERC721Received",
      "outputs": [
        {
          "internalType": "bytes4",
          "name": "",
          "type": "bytes4"
        }
      ],
      "stateMutability": "nonpayable",
      "type": "function"
    },
    {
      "inputs": [
        {
          "internalType": "uint256",
          "name": "_packId",
          "type": "uint256"
        }
      ],
      "name": "openPack",
      "outputs": [],
      "stateMutability": "nonpayable",
      "type": "function"
    },
    {
      "inputs": [
        {
          "internalType": "uint256",
          "name": "",
          "type": "uint256"
        }
      ],
      "name": "packs",
      "outputs": [
        {
          "internalType": "string",
          "name": "uri",
          "type": "string"
        },
        {
          "internalType": "address",
          "name": "creator",
          "type": "address"
        },
        {
          "internalType": "uint256",
          "name": "openStart",
          "type": "uint256"
        },
        {
          "internalType": "uint256",
          "name": "openEnd",
          "type": "uint256"
        }
      ],
      "stateMutability": "view",
      "type": "function"
    },
    {
      "inputs": [],
      "name": "pause",
      "outputs": [],
      "stateMutability": "nonpayable",
      "type": "function"
    },
    {
      "inputs": [],
      "name": "paused",
      "outputs": [
        {
          "internalType": "bool",
          "name": "",
          "type": "bool"
        }
      ],
      "stateMutability": "view",
      "type": "function"
    },
    {
      "inputs": [
        {
          "internalType": "bytes32",
          "name": "",
          "type": "bytes32"
        }
      ],
      "name": "randomnessRequests",
      "outputs": [
        {
          "internalType": "uint256",
          "name": "packId",
          "type": "uint256"
        },
        {
          "internalType": "address",
          "name": "opener",
          "type": "address"
        }
      ],
      "stateMutability": "view",
      "type": "function"
    },
    {
      "inputs": [
        {
          "internalType": "bytes32",
          "name": "requestId",
          "type": "bytes32"
        },
        {
          "internalType": "uint256",
          "name": "randomness",
          "type": "uint256"
        }
      ],
      "name": "rawFulfillRandomness",
      "outputs": [],
      "stateMutability": "nonpayable",
      "type": "function"
    },
    {
      "inputs": [
        {
          "internalType": "bytes32",
          "name": "role",
          "type": "bytes32"
        },
        {
          "internalType": "address",
          "name": "account",
          "type": "address"
        }
      ],
      "name": "renounceRole",
      "outputs": [],
      "stateMutability": "nonpayable",
      "type": "function"
    },
    {
      "inputs": [
        {
          "internalType": "bytes32",
          "name": "role",
          "type": "bytes32"
        },
        {
          "internalType": "address",
          "name": "account",
          "type": "address"
        }
      ],
      "name": "revokeRole",
      "outputs": [],
      "stateMutability": "nonpayable",
      "type": "function"
    },
    {
      "inputs": [
        {
          "internalType": "uint256",
          "name": "",
          "type": "uint256"
        }
      ],
      "name": "rewards",
      "outputs": [
        {
          "internalType": "address",
          "name": "source",
          "type": "address"
        },
        {
          "internalType": "uint256",
          "name": "rewardsPerOpen",
          "type": "uint256"
        }
      ],
      "stateMutability": "view",
      "type": "function"
    },
    {
      "inputs": [],
      "name": "royaltyBps",
      "outputs": [
        {
          "internalType": "uint256",
          "name": "",
          "type": "uint256"
        }
      ],
      "stateMutability": "view",
      "type": "function"
    },
    {
      "inputs": [
        {
          "internalType": "uint256",
          "name": "tokenId",
          "type": "uint256"
        },
        {
          "internalType": "uint256",
          "name": "salePrice",
          "type": "uint256"
        }
      ],
      "name": "royaltyInfo",
      "outputs": [
        {
          "internalType": "address",
          "name": "receiver",
          "type": "address"
        },
        {
          "internalType": "uint256",
          "name": "royaltyAmount",
          "type": "uint256"
        }
      ],
      "stateMutability": "view",
      "type": "function"
    },
    {
      "inputs": [
        {
          "internalType": "address",
          "name": "from",
          "type": "address"
        },
        {
          "internalType": "address",
          "name": "to",
          "type": "address"
        },
        {
          "internalType": "uint256[]",
          "name": "ids",
          "type": "uint256[]"
        },
        {
          "internalType": "uint256[]",
          "name": "amounts",
          "type": "uint256[]"
        },
        {
          "internalType": "bytes",
          "name": "data",
          "type": "bytes"
        }
      ],
      "name": "safeBatchTransferFrom",
      "outputs": [],
      "stateMutability": "nonpayable",
      "type": "function"
    },
    {
      "inputs": [
        {
          "internalType": "address",
          "name": "from",
          "type": "address"
        },
        {
          "internalType": "address",
          "name": "to",
          "type": "address"
        },
        {
          "internalType": "uint256",
          "name": "id",
          "type": "uint256"
        },
        {
          "internalType": "uint256",
          "name": "amount",
          "type": "uint256"
        },
        {
          "internalType": "bytes",
          "name": "data",
          "type": "bytes"
        }
      ],
      "name": "safeTransferFrom",
      "outputs": [],
      "stateMutability": "nonpayable",
      "type": "function"
    },
    {
      "inputs": [
        {
          "internalType": "address",
          "name": "operator",
          "type": "address"
        },
        {
          "internalType": "bool",
          "name": "approved",
          "type": "bool"
        }
      ],
      "name": "setApprovalForAll",
      "outputs": [],
      "stateMutability": "nonpayable",
      "type": "function"
    },
    {
      "inputs": [
        {
          "internalType": "uint256",
          "name": "_newFees",
          "type": "uint256"
        }
      ],
      "name": "setChainlinkFees",
      "outputs": [],
      "stateMutability": "nonpayable",
      "type": "function"
    },
    {
      "inputs": [
        {
          "internalType": "string",
          "name": "_URI",
          "type": "string"
        }
      ],
      "name": "setContractURI",
      "outputs": [],
      "stateMutability": "nonpayable",
      "type": "function"
    },
    {
      "inputs": [
        {
          "internalType": "bool",
          "name": "_restrictedTransfer",
          "type": "bool"
        }
      ],
      "name": "setRestrictedTransfer",
      "outputs": [],
      "stateMutability": "nonpayable",
      "type": "function"
    },
    {
      "inputs": [
        {
          "internalType": "uint256",
          "name": "_royaltyBps",
          "type": "uint256"
        }
      ],
      "name": "setRoyaltyBps",
      "outputs": [],
      "stateMutability": "nonpayable",
      "type": "function"
    },
    {
      "inputs": [
        {
          "internalType": "bytes4",
          "name": "interfaceId",
          "type": "bytes4"
        }
      ],
      "name": "supportsInterface",
      "outputs": [
        {
          "internalType": "bool",
          "name": "",
          "type": "bool"
        }
      ],
      "stateMutability": "pure",
      "type": "function"
    },
    {
      "inputs": [
        {
          "internalType": "uint256",
          "name": "_id",
          "type": "uint256"
        }
      ],
      "name": "tokenURI",
      "outputs": [
        {
          "internalType": "string",
          "name": "",
          "type": "string"
        }
      ],
      "stateMutability": "view",
      "type": "function"
    },
    {
      "inputs": [
        {
          "internalType": "uint256",
          "name": "id",
          "type": "uint256"
        }
      ],
      "name": "totalSupply",
      "outputs": [
        {
          "internalType": "uint256",
          "name": "",
          "type": "uint256"
        }
      ],
      "stateMutability": "view",
      "type": "function"
    },
    {
      "inputs": [
        {
          "internalType": "address",
          "name": "_to",
          "type": "address"
        },
        {
          "internalType": "uint256",
          "name": "_amount",
          "type": "uint256"
        }
      ],
      "name": "transferLink",
      "outputs": [],
      "stateMutability": "nonpayable",
      "type": "function"
    },
    {
      "inputs": [],
      "name": "unpause",
      "outputs": [],
      "stateMutability": "nonpayable",
      "type": "function"
    },
    {
      "inputs": [
        {
          "internalType": "uint256",
          "name": "_id",
          "type": "uint256"
        }
      ],
      "name": "uri",
      "outputs": [
        {
          "internalType": "string",
          "name": "",
          "type": "string"
        }
      ],
      "stateMutability": "view",
      "type": "function"
    },
    {
      "inputs": [],
      "name": "vrfFees",
      "outputs": [
        {
          "internalType": "uint256",
          "name": "",
          "type": "uint256"
        }
      ],
      "stateMutability": "view",
      "type": "function"
    },
    {
      "inputs": [],
      "name": "vrfKeyHash",
      "outputs": [
        {
          "internalType": "bytes32",
          "name": "",
          "type": "bytes32"
        }
      ],
      "stateMutability": "view",
      "type": "function"
    }
  ],
  "bytecode": "0x60c06040523480156200001157600080fd5b506040516200603738038062006037833981016040819052620000349162000465565b8686868686868680858588806200004b8162000166565b506005805460ff191690556200006c6000620000666200017f565b6200019c565b6200008a60008051602062006017833981519152620000666200017f565b620000b97f65d7a28e3265b37a6474929f336521b332c1681b933f6cb9f3376673440d862a620000666200017f565b506001600160601b0319606092831b811660a052911b16608052600880546001600160a01b039283166001600160a01b03199182161790915560098054928a1692909116919091179055600c839055600b82905585516200012290600e906020890190620003b2565b50620001527f8502233096d909befbda0999bb8ea2f3a6be3c138b9fbf003752a4c8bce86f6c620000666200017f565b505050505050505050505050505062000604565b80516200017b906004906020840190620003b2565b5050565b600062000196620001df60201b620021b81760201c565b90505b90565b620001b382826200021f60201b620021e61760201c565b6000828152600160209081526040909120620001da918390620021f06200022b821b17901c565b505050565b6000620001ec336200024b565b1562000202575060131936013560601c62000199565b620002176200026260201b620022051760201c565b905062000199565b6200017b828262000266565b600062000242836001600160a01b038416620002f0565b90505b92915050565b6008546001600160a01b038281169116145b919050565b3390565b6200027282826200033f565b6200017b576000828152602081815260408083206001600160a01b03851684529091529020805460ff19166001179055620002ac6200017f565b6001600160a01b0316816001600160a01b0316837f2f8788117e7eff1d82e926ec794901d17c78024a50270940304540a733656f0d60405160405180910390a45050565b6000620002fe838362000371565b620003365750815460018181018455600084815260208082209093018490558454848252828601909352604090209190915562000245565b50600062000245565b6000600080516020620060178339815191528314806200024257506200024283836200038960201b620022091760201c565b60009081526001919091016020526040902054151590565b6000918252602082815260408084206001600160a01b0393909316845291905290205460ff1690565b828054620003c09062000598565b90600052602060002090601f016020900481019282620003e457600085556200042f565b82601f10620003ff57805160ff19168380011785556200042f565b828001600101855582156200042f579182015b828111156200042f57825182559160200191906001019062000412565b506200043d92915062000441565b5090565b5b808211156200043d576000815560010162000442565b80516200025d81620005eb565b600080600080600080600060e0888a03121562000480578283fd5b87516200048d81620005eb565b602089810151919850906001600160401b0380821115620004ac578586fd5b818b0191508b601f830112620004c0578586fd5b815181811115620004d557620004d5620005d5565b604051601f8201601f1916810185018381118282101715620004fb57620004fb620005d5565b60405281815283820185018e101562000512578788fd5b8792505b8183101562000535578383018501518184018601529184019162000516565b818311156200054657878583830101525b809a5050505050506200055c6040890162000458565b94506200056c6060890162000458565b93506080880151925060a088015191506200058a60c0890162000458565b905092959891949750929550565b600281046001821680620005ad57607f821691505b60208210811415620005cf57634e487b7160e01b600052602260045260246000fd5b50919050565b634e487b7160e01b600052604160045260246000fd5b6001600160a01b03811681146200060157600080fd5b50565b60805160601c60a05160601c6159d26200064560003960008181611948015261256401526000818161121e01528181612110015261253501526159d26000f3fe608060405234801561001057600080fd5b50600436106103615760003560e01c80638456cb59116101c8578063c0e7274011610104578063e8a3d485116100a2578063f242432a1161007c578063f242432a14610711578063f301af4214610724578063f5298aca14610737578063f99b1d681461074a57610361565b8063e8a3d485146106e3578063e985e9c5146106eb578063f23a6e61146106fe57610361565b8063ca15c873116100de578063ca15c873146106ad578063d5391393146106c0578063d547741f146106c8578063e63ab1e9146106db57610361565b8063c0e727401461069d578063c63adb2b146106a5578063c87b56dd146103b757610361565b806394985ddd11610171578063b277ca451161014b578063b277ca4514610641578063b84c139214610654578063bc197c8114610677578063bd85b0391461068a57610361565b806394985ddd14610613578063a217fddf14610626578063a22cb4651461062e57610361565b80639010d07c116101a25780639010d07c146105da57806391d14854146105ed578063938e3d7b1461060057610361565b80638456cb591461059f578063895ec54c146105a75780638ba448c2146105c757610361565b80632f2ff15d116102a2578063572b6c05116102405780636b20c4541161021a5780636b20c45414610569578063731133e91461057c57806375794a3c1461058f57806383661b291461059757610361565b8063572b6c051461052d5780635c975abb146105405780635e619b781461054857610361565b80634e1273f41161027c5780634e1273f4146104c757806350a88c7e146104e7578063510b5158146104fa5780635318c48f1461051a57610361565b80632f2ff15d1461049957806336568abe146104ac5780633f4ba83a146104bf57610361565b8063150b7a021161030f578063206b60f9116102e9578063206b60f91461044a578063248a9ca3146104525780632a55205a146104655780632eb2c2d61461048657610361565b8063150b7a02146104025780631f72d831146104225780631f7fdffa1461043757610361565b80630e89341c116103405780630e89341c146103b757806310983e57146103d757806310e34e67146103df57610361565b8062fdd58e1461036657806301ffc9a71461038f578063041d443e146103af575b600080fd5b610379610374366004614378565b61075d565b60405161038691906149bd565b60405180910390f35b6103a261039d366004614583565b6107b9565b60405161038691906149b2565b61037961080d565b6103ca6103c5366004614510565b610813565b6040516103869190614a2f565b6103796108b5565b6103f26103ed366004614510565b6108bb565b6040516103869493929190615646565b61041561041036600461417f565b610a7d565b6040516103869190614a1a565b610435610430366004614510565b610a8d565b005b6104356104453660046142b9565b610d29565b610379610d41565b610379610460366004614510565b610d65565b610478610473366004614562565b610d7a565b604051610386929190614930565b6104356104943660046140d9565b610e3e565b6104356104a7366004614540565b610e9c565b6104356104ba366004614540565b610ec3565b610435610ee5565b6104da6104d536600461441a565b610f37565b604051610386919061497a565b6104356104f5366004614510565b611057565b61050d610508366004614510565b61144a565b6040516103869190614823565b610379610528366004614540565b611468565b6103a261053b366004614096565b611485565b6103a2611499565b61055b610556366004614510565b6114a3565b6040516103869291906149c6565b610435610577366004614248565b6114c5565b61043561058a3660046143d3565b61151a565b610379611532565b6103a2611538565b610435611548565b6105ba6105b5366004614510565b611598565b6040516103869190615633565b6104356105d53660046144d8565b611678565b61050d6105e8366004614562565b6117c7565b6103a26105fb366004614540565b6117e6565b61043561060e3660046145bb565b61181b565b610435610621366004614562565b61193d565b610379611993565b61043561063c366004614342565b611998565b61043561064f366004614510565b611a66565b610667610662366004614510565b611b81565b6040516103869493929190614a42565b6104156106853660046140d9565b611c3d565b610379610698366004614510565b611d26565b6103ca611d38565b610379611dc6565b6103796106bb366004614510565b611dcc565b610379611de3565b6104356106d6366004614540565b611e07565b610379611e11565b6103ca611e35565b6103a26106f93660046140b0565b611ec7565b61041561070c3660046141e5565b611ef5565b61043561071f3660046141e5565b611f0f565b610478610732366004614510565b611f66565b6104356107453660046143a1565b611f8b565b610435610758366004614378565b611fe0565b60006001600160a01b03831661078e5760405162461bcd60e51b815260040161078590614c5a565b60405180910390fd5b5060008181526002602090815260408083206001600160a01b03861684529091529020545b92915050565b60006001600160e01b03198216630271189760e51b14806107ea57506001600160e01b03198216636cdb3d1360e11b145b8061080557506001600160e01b0319821663152a902d60e11b145b90505b919050565b600c5481565b6000818152600f602052604090208054606091906108309061584d565b80601f016020809104026020016040519081016040528092919081815260200182805461085c9061584d565b80156108a95780601f1061087e576101008083540402835291602001916108a9565b820191906000526020600020905b81548152906001019060200180831161088c57829003601f168201915b50505050509050919050565b600b5481565b6108c3613e4f565b6000606080600f60008681526020019081526020016000206040518060800160405290816000820180546108f69061584d565b80601f01602080910402602001604051908101604052809291908181526020018280546109229061584d565b801561096f5780601f106109445761010080835404028352916020019161096f565b820191906000526020600020905b81548152906001019060200180831161095257829003601f168201915b50505091835250506001828101546001600160a01b03908116602080850191909152600285015460408086019190915260039095015460609094019390935260008a81526010845284902080549201805485518186028101860190965280865295995091169650919290830182828015610a0857602002820191906000526020600020905b8154815260200190600101908083116109f4575b5050505050915060106000868152602001908152602001600020600201805480602002602001604051908101604052809291908181526020018280548015610a6f57602002820191906000526020600020905b815481526020019060010190808311610a5b575b505050505090509193509193565b630a85bd0160e11b949350505050565b60095460408051634a32c6bf60e11b815290516001600160a01b03909216916391d148549183916394658d7e91600480820192602092909190829003018186803b158015610ada57600080fd5b505afa158015610aee573d6000803e3d6000fd5b505050506040513d601f19601f82011682018060405250810190610b129190614528565b610b1a612232565b6040518363ffffffff1660e01b8152600401610b379291906149c6565b60206040518083038186803b158015610b4f57600080fd5b505afa158015610b63573d6000803e3d6000fd5b505050506040513d601f19601f82011682018060405250810190610b8791906144f4565b610ba35760405162461bcd60e51b815260040161078590614b69565b600960009054906101000a90046001600160a01b03166001600160a01b0316635cd423156040518163ffffffff1660e01b815260040160206040518083038186803b158015610bf157600080fd5b505afa158015610c05573d6000803e3d6000fd5b505050506040513d601f19601f82011682018060405250810190610c2991906146b6565b600960009054906101000a90046001600160a01b03166001600160a01b031663fd967f476040518163ffffffff1660e01b815260040160206040518083038186803b158015610c7757600080fd5b505afa158015610c8b573d6000803e3d6000fd5b505050506040513d601f19601f82011682018060405250810190610caf91906146b6565b610cb991906157c2565b6fffffffffffffffffffffffffffffffff168110610ce95760405162461bcd60e51b8152600401610785906154bf565b600d8190556040517f244ea8d7627f5a08f4299862bd5a45752842c183aee5b0fb0d1e4887bfa605b390610d1e9083906149bd565b60405180910390a150565b60405162461bcd60e51b815260040161078590614cfb565b7f8502233096d909befbda0999bb8ea2f3a6be3c138b9fbf003752a4c8bce86f6c81565b60009081526020819052604090206001015490565b6000828152600f6020908152604080832060010154600954825163fd967f4760e01b815292516001600160a01b039283169594919092169263fd967f479260048083019392829003018186803b158015610dd357600080fd5b505afa158015610de7573d6000803e3d6000fd5b505050506040513d601f19601f82011682018060405250810190610e0b91906146b6565b6fffffffffffffffffffffffffffffffff16600d5484610e2b91906157a3565b610e35919061578f565b90509250929050565b610e46612232565b6001600160a01b0316856001600160a01b03161480610e6c5750610e6c856106f9612232565b610e885760405162461bcd60e51b81526004016107859061502b565b610e958585858585612241565b5050505050565b610ea68282612415565b6000828152600160205260409020610ebe90826121f0565b505050565b610ecd8282612439565b6000828152600160205260409020610ebe908261247b565b610f117f65d7a28e3265b37a6474929f336521b332c1681b933f6cb9f3376673440d862a6105fb612232565b610f2d5760405162461bcd60e51b815260040161078590615250565b610f35612490565b565b60608151835114610f5a5760405162461bcd60e51b8152600401610785906153c4565b6000835167ffffffffffffffff811115610f8457634e487b7160e01b600052604160045260246000fd5b604051908082528060200260200182016040528015610fad578160200160208202803683370190505b50905060005b845181101561104f57611014858281518110610fdf57634e487b7160e01b600052603260045260246000fd5b602002602001015185838151811061100757634e487b7160e01b600052603260045260246000fd5b602002602001015161075d565b82828151811061103457634e487b7160e01b600052603260045260246000fd5b602090810291909101015261104881615882565b9050610fb3565b509392505050565b600960009054906101000a90046001600160a01b03166001600160a01b0316639d2f83f06040518163ffffffff1660e01b815260040160206040518083038186803b1580156110a557600080fd5b505afa1580156110b9573d6000803e3d6000fd5b505050506040513d601f19601f820116820180604052508101906110dd91906144f4565b156110fa5760405162461bcd60e51b815260040161078590614f03565b6000818152600f60205260408082208151608081019092528054829082906111219061584d565b80601f016020809104026020016040519081016040528092919081815260200182805461114d9061584d565b801561119a5780601f1061116f5761010080835404028352916020019161119a565b820191906000526020600020905b81548152906001019060200180831161117d57829003601f168201915b505050918352505060018201546001600160a01b03166020820152600282015460408083019190915260039092015460609091015281015190915042108015906111e8575080606001514211155b6112045760405162461bcd60e51b815260040161078590614bc6565b600b546040516370a0823160e01b81526001600160a01b037f000000000000000000000000000000000000000000000000000000000000000016906370a0823190611253903090600401614823565b60206040518083038186803b15801561126b57600080fd5b505afa15801561127f573d6000803e3d6000fd5b505050506040513d601f19601f820116820180604052508101906112a39190614528565b10156112c15760405162461bcd60e51b815260040161078590614e49565b60006112d46112ce612232565b8461075d565b116112f15760405162461bcd60e51b81526004016107859061530a565b600082815260126020526040812090611308612232565b6001600160a01b031681526020810191909152604001600020541561133f5760405162461bcd60e51b815260040161078590614f3a565b61135261134a612232565b8360016124fe565b6000611362600c54600b54612531565b9050604051806040016040528084815260200161137d612232565b6001600160a01b03908116909152600083815260116020908152604080832085518155948201516001909501805473ffffffffffffffffffffffffffffffffffffffff19169590941694909417909255858152601290915290812082916113e2612232565b6001600160a01b03168152602081019190915260400160002055611404612232565b6001600160a01b0316837fb5c27afec62496e403fae78e07136ae7c58425e8128c7b680ea24dee8c8d94018360405161143d91906149bd565b60405180910390a3505050565b6000908152600f60205260409020600101546001600160a01b031690565b601260209081526000928352604080842090915290825290205481565b6008546001600160a01b0390811691161490565b60055460ff165b90565b601160205260009081526040902080546001909101546001600160a01b031682565b6114cd612232565b6001600160a01b0316836001600160a01b031614806114f357506114f3836106f9612232565b61150f5760405162461bcd60e51b815260040161078590614db5565b610ebe838383612674565b60405162461bcd60e51b81526004016107859061551c565b600a5481565b600854600160a01b900460ff1681565b6115747f65d7a28e3265b37a6474929f336521b332c1681b933f6cb9f3376673440d862a6105fb612232565b6115905760405162461bcd60e51b8152600401610785906152ad565b610f35612718565b6115a0613e4f565b6000828152600f6020526040908190208151608081019092528054829082906115c89061584d565b80601f01602080910402602001604051908101604052809291908181526020018280546115f49061584d565b80156116415780601f1061161657610100808354040283529160200191611641565b820191906000526020600020905b81548152906001019060200180831161162457829003601f168201915b505050918352505060018201546001600160a01b031660208201526002820154604082015260039091015460609091015292915050565b60095460408051634a32c6bf60e11b815290516001600160a01b03909216916391d148549183916394658d7e91600480820192602092909190829003018186803b1580156116c557600080fd5b505afa1580156116d9573d6000803e3d6000fd5b505050506040513d601f19601f820116820180604052508101906116fd9190614528565b611705612232565b6040518363ffffffff1660e01b81526004016117229291906149c6565b60206040518083038186803b15801561173a57600080fd5b505afa15801561174e573d6000803e3d6000fd5b505050506040513d601f19601f8201168201806040525081019061177291906144f4565b61178e5760405162461bcd60e51b815260040161078590614b69565b60088054911515600160a01b027fffffffffffffffffffffff00ffffffffffffffffffffffffffffffffffffffff909216919091179055565b60008281526001602052604081206117df9083612773565b9392505050565b60007f9f2df0fed2c77648de5860a4cc508cd0818c85b8b8a1ab4ceeef8d981c8956a68314806117df57506117df8383612209565b60095460408051634a32c6bf60e11b815290516001600160a01b03909216916391d148549183916394658d7e91600480820192602092909190829003018186803b15801561186857600080fd5b505afa15801561187c573d6000803e3d6000fd5b505050506040513d601f19601f820116820180604052508101906118a09190614528565b6118a8612232565b6040518363ffffffff1660e01b81526004016118c59291906149c6565b60206040518083038186803b1580156118dd57600080fd5b505afa1580156118f1573d6000803e3d6000fd5b505050506040513d601f19601f8201168201806040525081019061191591906144f4565b6119315760405162461bcd60e51b815260040161078590614b69565b610ebe600e8383613e80565b336001600160a01b037f000000000000000000000000000000000000000000000000000000000000000016146119855760405162461bcd60e51b815260040161078590615185565b61198f828261277f565b5050565b600081565b816001600160a01b03166119aa612232565b6001600160a01b031614156119d15760405162461bcd60e51b815260040161078590615367565b80600360006119de612232565b6001600160a01b03908116825260208083019390935260409182016000908120918716808252919093529120805460ff191692151592909217909155611a22612232565b6001600160a01b03167f17307eab39ab6107e8899845ad3d59bd9653f200f220920489ca2b5937696c3183604051611a5a91906149b2565b60405180910390a35050565b60095460408051634a32c6bf60e11b815290516001600160a01b03909216916391d148549183916394658d7e91600480820192602092909190829003018186803b158015611ab357600080fd5b505afa158015611ac7573d6000803e3d6000fd5b505050506040513d601f19601f82011682018060405250810190611aeb9190614528565b611af3612232565b6040518363ffffffff1660e01b8152600401611b109291906149c6565b60206040518083038186803b158015611b2857600080fd5b505afa158015611b3c573d6000803e3d6000fd5b505050506040513d601f19601f82011682018060405250810190611b6091906144f4565b611b7c5760405162461bcd60e51b815260040161078590614b69565b600b55565b600f60205260009081526040902080548190611b9c9061584d565b80601f0160208091040260200160405190810160405280929190818152602001828054611bc89061584d565b8015611c155780601f10611bea57610100808354040283529160200191611c15565b820191906000526020600020905b815481529060010190602001808311611bf857829003601f168201915b505050506001830154600284015460039094015492936001600160a01b039091169290915084565b600954604080516309d2f83f60e41b815290516000926001600160a01b031691639d2f83f0916004808301926020929190829003018186803b158015611c8257600080fd5b505afa158015611c96573d6000803e3d6000fd5b505050506040513d601f19601f82011682018060405250810190611cba91906144f4565b15611cd75760405162461bcd60e51b815260040161078590614f03565b60008060008085806020019051810190611cf19190614628565b9350935093509350611d108985611d06612232565b8b8b888888612978565b5063bc197c8160e01b9998505050505050505050565b60009081526006602052604090205490565b600e8054611d459061584d565b80601f0160208091040260200160405190810160405280929190818152602001828054611d719061584d565b8015611dbe5780601f10611d9357610100808354040283529160200191611dbe565b820191906000526020600020905b815481529060010190602001808311611da157829003601f168201915b505050505081565b600d5481565b600081815260016020526040812061080590612d12565b7f9f2df0fed2c77648de5860a4cc508cd0818c85b8b8a1ab4ceeef8d981c8956a681565b610ecd8282612d1d565b7f65d7a28e3265b37a6474929f336521b332c1681b933f6cb9f3376673440d862a81565b6060600e8054611e449061584d565b80601f0160208091040260200160405190810160405280929190818152602001828054611e709061584d565b8015611ebd5780601f10611e9257610100808354040283529160200191611ebd565b820191906000526020600020905b815481529060010190602001808311611ea057829003601f168201915b5050505050905090565b6001600160a01b03918216600090815260036020908152604080832093909416825291909152205460ff1690565b600060405162461bcd60e51b8152600401610785906151bc565b611f17612232565b6001600160a01b0316856001600160a01b03161480611f3d5750611f3d856106f9612232565b611f595760405162461bcd60e51b815260040161078590614db5565b610e958585858585612d3c565b601060205260009081526040902080546003909101546001600160a01b039091169082565b611f93612232565b6001600160a01b0316836001600160a01b03161480611fb95750611fb9836106f9612232565b611fd55760405162461bcd60e51b815260040161078590614db5565b610ebe8383836124fe565b60095460408051634a32c6bf60e11b815290516001600160a01b03909216916391d148549183916394658d7e91600480820192602092909190829003018186803b15801561202d57600080fd5b505afa158015612041573d6000803e3d6000fd5b505050506040513d601f19601f820116820180604052508101906120659190614528565b61206d612232565b6040518363ffffffff1660e01b815260040161208a9291906149c6565b60206040518083038186803b1580156120a257600080fd5b505afa1580156120b6573d6000803e3d6000fd5b505050506040513d601f19601f820116820180604052508101906120da91906144f4565b6120f65760405162461bcd60e51b815260040161078590614b69565b60405163a9059cbb60e01b81526000906001600160a01b037f0000000000000000000000000000000000000000000000000000000000000000169063a9059cbb906121479086908690600401614930565b602060405180830381600087803b15801561216157600080fd5b505af1158015612175573d6000803e3d6000fd5b505050506040513d601f19601f8201168201806040525081019061219991906144f4565b905080610ebe5760405162461bcd60e51b815260040161078590614e12565b60006121c333611485565b156121d7575060131936013560601c6114a0565b6121df612205565b90506114a0565b61198f8282612e83565b60006117df836001600160a01b038416612f08565b3390565b6000918252602082815260408084206001600160a01b0393909316845291905290205460ff1690565b600061223c6121b8565b905090565b81518351146122625760405162461bcd60e51b815260040161078590615421565b6001600160a01b0384166122885760405162461bcd60e51b815260040161078590614fce565b6000612292612232565b90506122a2818787878787612f52565b60005b84518110156123a75760008582815181106122d057634e487b7160e01b600052603260045260246000fd5b6020026020010151905060008583815181106122fc57634e487b7160e01b600052603260045260246000fd5b60209081029190910181015160008481526002835260408082206001600160a01b038e16835290935291909120549091508181101561234d5760405162461bcd60e51b8152600401610785906150cb565b60008381526002602090815260408083206001600160a01b038e8116855292528083208585039055908b1682528120805484929061238c908490615777565b92505081905550505050806123a090615882565b90506122a5565b50846001600160a01b0316866001600160a01b0316826001600160a01b03167f4a39dc06d4c0dbc64b70af90fd698a233a518aa5d07e595d983b8c0526c8f7fb87876040516123f792919061498d565b60405180910390a461240d818787878787612fe8565b505050505050565b61241e82610d65565b61242f8161242a612232565b6130f6565b610ebe8383612e83565b612441612232565b6001600160a01b0316816001600160a01b0316146124715760405162461bcd60e51b8152600401610785906155d6565b61198f828261315a565b60006117df836001600160a01b0384166131dd565b612498611499565b6124b45760405162461bcd60e51b815260040161078590614c23565b6005805460ff191690557f5db9ee0a495bf2e6ff9c91a7834c1ba4fdd244a5e8aa4e537bd38aeae4b073aa6124e7612232565b6040516124f49190614823565b60405180910390a1565b6125098383836132fa565b600082815260066020526040812080548392906125279084906157f3565b9091555050505050565b60007f00000000000000000000000000000000000000000000000000000000000000006001600160a01b0316634000aea07f000000000000000000000000000000000000000000000000000000000000000084866000604051602001612598929190614794565b6040516020818303038152906040526040518463ffffffff1660e01b81526004016125c593929190614949565b602060405180830381600087803b1580156125df57600080fd5b505af11580156125f3573d6000803e3d6000fd5b505050506040513d601f19601f8201168201806040525081019061261791906144f4565b506000838152600760205260408120546126369085908390309061340d565b600085815260076020526040902054909150612653906001615777565b60008581526007602052604090205561266c8482613447565b949350505050565b61267f83838361347a565b60005b8251811015612712578181815181106126ab57634e487b7160e01b600052603260045260246000fd5b6020026020010151600660008584815181106126d757634e487b7160e01b600052603260045260246000fd5b6020026020010151815260200190815260200160002060008282546126fc91906157f3565b9091555061270b905081615882565b9050612682565b50505050565b612720611499565b1561273d5760405162461bcd60e51b815260040161078590614f97565b6005805460ff191660011790557f62e78cea01bee320cd4e420270b5ea74000d11b0c9f74754ebdbfc544b05a2586124e7612232565b60006117df838361362e565b60008281526011602090815260408083208151808301835281548082526001928301546001600160a01b039081168387018190528288526012875285882081895287528588208890558288526010875285882086516080810188528154909316835294850180548751818a0281018a0190985280885294989397919693959294929385830193909283018282801561283657602002820191906000526020600020905b815481526020019060010190808311612822575b505050505081526020016002820180548060200260200160405190810160405280929190818152602001828054801561288e57602002820191906000526020600020905b81548152602001906001019080831161287a575b5050505050815260200160038201548152505090506000806128b1858885613666565b8451604051631759616b60e11b81529294509092506001600160a01b031690632eb2c2d6906128ea903090889087908790600401614895565b600060405180830381600087803b15801561290457600080fd5b505af1158015612918573d6000803e3d6000fd5b5050505082600001516001600160a01b0316846001600160a01b0316867f9cae8e743935573869e2fe7223782448d71211235c93076166106782de1c234f8b866040516129669291906149dd565b60405180910390a45050505050505050565b600960009054906101000a90046001600160a01b03166001600160a01b0316639d2f83f06040518163ffffffff1660e01b815260040160206040518083038186803b1580156129c657600080fd5b505afa1580156129da573d6000803e3d6000fd5b505050506040513d601f19601f820116820180604052508101906129fe91906144f4565b15612a1b5760405162461bcd60e51b815260040161078590614f03565b6040516301ffc9a760e01b81526001600160a01b038716906301ffc9a790612a4e90636cdb3d1360e11b90600401614a1a565b60206040518083038186803b158015612a6657600080fd5b505afa158015612a7a573d6000803e3d6000fd5b505050506040513d601f19601f82011682018060405250810190612a9e91906144f4565b612aba5760405162461bcd60e51b815260040161078590615579565b612ae47f9f2df0fed2c77648de5860a4cc508cd0818c85b8b8a1ab4ceeef8d981c8956a6896117e6565b612b005760405162461bcd60e51b8152600401610785906151f3565b6000612b0b85613974565b9050612b17828261589d565b15612b345760405162461bcd60e51b815260040161078590614ea6565b6000612b3e6139ce565b90506000612b4c848461578f565b9050600060405180608001604052808c81526020018d6001600160a01b031681526020018842612b7c9190615777565b81526020018715612b9657612b918842615777565b612b9a565b6000195b9052604080516080810182526001600160a01b038d16815260208082018d90528183018c9052606082018990526000878152600f82529290922083518051949550919385939192612bef928492910190613f04565b50602082810151600180840180546001600160a01b0393841673ffffffffffffffffffffffffffffffffffffffff1991821617909155604080870151600287015560609096015160039095019490945560008981526010845294909420855181549216919093161782558381015180518594612c7093908501920190613f78565b5060408201518051612c8c916002840191602090910190613f78565b5060608201518160030155905050612cb58d8585604051806020016040528060008152506139ec565b8c6001600160a01b03168b6001600160a01b0316857f11f98f1ec0428c3d63f9744a90b9894575c2235c8ef13c38f589ba2768cfd8fc8585604051612cfb92919061568e565b60405180910390a450505050505050505050505050565b600061080582613a21565b612d2682610d65565b612d328161242a612232565b610ebe838361315a565b6001600160a01b038416612d625760405162461bcd60e51b815260040161078590614fce565b6000612d6c612232565b9050612d8c818787612d7d88613a25565b612d8688613a25565b87612f52565b60008481526002602090815260408083206001600160a01b038a16845290915290205483811015612dcf5760405162461bcd60e51b8152600401610785906150cb565b60008581526002602090815260408083206001600160a01b038b8116855292528083208785039055908816825281208054869290612e0e908490615777565b92505081905550856001600160a01b0316876001600160a01b0316836001600160a01b03167fc3d58168c5ae7397731d063d5bbf3d657854427343f4c083240f7aacaa2d0f628888604051612e64929190614794565b60405180910390a4612e7a828888888888613a7e565b50505050505050565b612e8d82826117e6565b61198f576000828152602081815260408083206001600160a01b03851684529091529020805460ff19166001179055612ec4612232565b6001600160a01b0316816001600160a01b0316837f2f8788117e7eff1d82e926ec794901d17c78024a50270940304540a733656f0d60405160405180910390a45050565b6000612f148383613b4f565b612f4a575081546001818101845560008481526020808220909301849055845484825282860190935260409020919091556107b3565b5060006107b3565b612f60868686868686613b67565b600854600160a01b900460ff161561240d57612f9c7f8502233096d909befbda0999bb8ea2f3a6be3c138b9fbf003752a4c8bce86f6c866117e6565b80612fcc5750612fcc7f8502233096d909befbda0999bb8ea2f3a6be3c138b9fbf003752a4c8bce86f6c856117e6565b61240d5760405162461bcd60e51b815260040161078590615128565b612ffa846001600160a01b0316613b75565b1561240d5760405163bc197c8160e01b81526001600160a01b0385169063bc197c81906130339089908990889088908890600401614837565b602060405180830381600087803b15801561304d57600080fd5b505af192505050801561307d575060408051601f3d908101601f1916820190925261307a9181019061459f565b60015b6130c6576130896158f9565b8061309457506130ae565b8060405162461bcd60e51b81526004016107859190614a2f565b60405162461bcd60e51b815260040161078590614a7a565b6001600160e01b0319811663bc197c8160e01b14612e7a5760405162461bcd60e51b815260040161078590614b0c565b61310082826117e6565b61198f57613118816001600160a01b03166014613b7b565b613123836020613b7b565b6040516020016131349291906147a2565b60408051601f198184030181529082905262461bcd60e51b825261078591600401614a2f565b61316482826117e6565b1561198f576000828152602081815260408083206001600160a01b03851684529091529020805460ff19169055613199612232565b6001600160a01b0316816001600160a01b0316837ff6391f5c32d9c69d2a47ea670b442974b53935d1edc7fd64eb21e047a839171b60405160405180910390a45050565b600081815260018301602052604081205480156132f05760006132016001836157f3565b8554909150600090613215906001906157f3565b905081811461329657600086600001828154811061324357634e487b7160e01b600052603260045260246000fd5b906000526020600020015490508087600001848154811061327457634e487b7160e01b600052603260045260246000fd5b6000918252602080832090910192909255918252600188019052604090208390555b85548690806132b557634e487b7160e01b600052603160045260246000fd5b6001900381819060005260206000200160009055905585600101600086815260200190815260200160002060009055600193505050506107b3565b60009150506107b3565b6001600160a01b0383166133205760405162461bcd60e51b815260040161078590615088565b600061332a612232565b905061335a8185600061333c87613a25565b61334587613a25565b60405180602001604052806000815250612f52565b60008381526002602090815260408083206001600160a01b03881684529091529020548281101561339d5760405162461bcd60e51b815260040161078590614cb7565b60008481526002602090815260408083206001600160a01b03808a16808652919093528184208786039055905190918516907fc3d58168c5ae7397731d063d5bbf3d657854427343f4c083240f7aacaa2d0f62906133fe9089908990614794565b60405180910390a45050505050565b60008484848460405160200161342694939291906149f6565b60408051601f19818403018152919052805160209091012095945050505050565b6000828260405160200161345c929190614794565b60405160208183030381529060405280519060200120905092915050565b6001600160a01b0383166134a05760405162461bcd60e51b815260040161078590615088565b80518251146134c15760405162461bcd60e51b815260040161078590615421565b60006134cb612232565b90506134eb81856000868660405180602001604052806000815250612f52565b60005b83518110156135cf57600084828151811061351957634e487b7160e01b600052603260045260246000fd5b60200260200101519050600084838151811061354557634e487b7160e01b600052603260045260246000fd5b60209081029190910181015160008481526002835260408082206001600160a01b038c1683529093529190912054909150818110156135965760405162461bcd60e51b815260040161078590614cb7565b60009283526002602090815260408085206001600160a01b038b16865290915290922091039055806135c781615882565b9150506134ee565b5060006001600160a01b0316846001600160a01b0316826001600160a01b03167f4a39dc06d4c0dbc64b70af90fd698a233a518aa5d07e595d983b8c0526c8f7fb868660405161362092919061498d565b60405180910390a450505050565b600082600001828154811061365357634e487b7160e01b600052603260045260246000fd5b9060005260206000200154905092915050565b60608060006136788460400151613974565b9050600080856060015167ffffffffffffffff8111156136a857634e487b7160e01b600052604160045260246000fd5b6040519080825280602002602001820160405280156136d1578160200160208202803683370190505b509450856060015167ffffffffffffffff8111156136ff57634e487b7160e01b600052604160045260246000fd5b604051908082528060200260200182016040528015613728578160200160208202803683370190505b50935060005b86606001518110156138eb5783888260405160200161374e929190614794565b6040516020818303038152906040528051906020012060001c613771919061589d565b915060005b8760200151518110156138d85783886040015182815181106137a857634e487b7160e01b600052603260045260246000fd5b60200260200101516137ba9190615777565b83101561388d57876020015181815181106137e557634e487b7160e01b600052603260045260246000fd5b602002602001015187838151811061380d57634e487b7160e01b600052603260045260246000fd5b602002602001018181525050600186838151811061383b57634e487b7160e01b600052603260045260246000fd5b60200260200101818152505060018860400151828151811061386d57634e487b7160e01b600052603260045260246000fd5b6020026020010181815161388191906157f3565b905250600093506138d8565b876040015181815181106138b157634e487b7160e01b600052603260045260246000fd5b6020026020010151846138c49190615777565b93506138d1600182615777565b9050613776565b506138e4600182615777565b905061372e565b5060008881526010602090815260409091208751815473ffffffffffffffffffffffffffffffffffffffff19166001600160a01b03909116178155878201518051899361393f926001850192910190613f78565b506040820151805161395b916002840191602090910190613f78565b5060608201518160030155905050505050935093915050565b6000805b82518110156139c8578281815181106139a157634e487b7160e01b600052603260045260246000fd5b6020026020010151826139b49190615777565b91506139c1600182615777565b9050613978565b50919050565b600a80549060019060006139e28385615777565b9250508190555090565b6139f884848484613d3a565b60008381526006602052604081208054849290613a16908490615777565b909155505050505050565b5490565b60408051600180825281830190925260609160009190602080830190803683370190505090508281600081518110613a6d57634e487b7160e01b600052603260045260246000fd5b602090810291909101015292915050565b613a90846001600160a01b0316613b75565b1561240d5760405163f23a6e6160e01b81526001600160a01b0385169063f23a6e6190613ac990899089908890889088906004016148ed565b602060405180830381600087803b158015613ae357600080fd5b505af1925050508015613b13575060408051601f3d908101601f19168201909252613b109181019061459f565b60015b613b1f576130896158f9565b6001600160e01b0319811663f23a6e6160e01b14612e7a5760405162461bcd60e51b815260040161078590614b0c565b60009081526001919091016020526040902054151590565b61240d868686868686613e1c565b3b151590565b60606000613b8a8360026157a3565b613b95906002615777565b67ffffffffffffffff811115613bbb57634e487b7160e01b600052604160045260246000fd5b6040519080825280601f01601f191660200182016040528015613be5576020820181803683370190505b509050600360fc1b81600081518110613c0e57634e487b7160e01b600052603260045260246000fd5b60200101906001600160f81b031916908160001a905350600f60fb1b81600181518110613c4b57634e487b7160e01b600052603260045260246000fd5b60200101906001600160f81b031916908160001a9053506000613c6f8460026157a3565b613c7a906001615777565b90505b6001811115613d1b577f303132333435363738396162636465660000000000000000000000000000000085600f1660108110613cc957634e487b7160e01b600052603260045260246000fd5b1a60f81b828281518110613ced57634e487b7160e01b600052603260045260246000fd5b60200101906001600160f81b031916908160001a90535060049490941c93613d1481615836565b9050613c7d565b5083156117df5760405162461bcd60e51b815260040161078590614ad7565b6001600160a01b038416613d605760405162461bcd60e51b81526004016107859061547e565b6000613d6a612232565b9050613d7c81600087612d7d88613a25565b60008481526002602090815260408083206001600160a01b038916845290915281208054859290613dae908490615777565b92505081905550846001600160a01b031660006001600160a01b0316826001600160a01b03167fc3d58168c5ae7397731d063d5bbf3d657854427343f4c083240f7aacaa2d0f628787604051613e05929190614794565b60405180910390a4610e9581600087878787613a7e565b613e2a86868686868661240d565b613e32611499565b1561240d5760405162461bcd60e51b815260040161078590614d58565b60405180608001604052806060815260200160006001600160a01b0316815260200160008152602001600081525090565b828054613e8c9061584d565b90600052602060002090601f016020900481019282613eae5760008555613ef4565b82601f10613ec75782800160ff19823516178555613ef4565b82800160010185558215613ef4579182015b82811115613ef4578235825591602001919060010190613ed9565b50613f00929150613fb2565b5090565b828054613f109061584d565b90600052602060002090601f016020900481019282613f325760008555613ef4565b82601f10613f4b57805160ff1916838001178555613ef4565b82800160010185558215613ef4579182015b82811115613ef4578251825591602001919060010190613f5d565b828054828255906000526020600020908101928215613ef45791602002820182811115613ef4578251825591602001919060010190613f5d565b5b80821115613f005760008155600101613fb3565b80356001600160a01b038116811461080857600080fd5b600082601f830112613fee578081fd5b81356020614003613ffe8361572b565b615701565b828152818101908583018385028701840188101561401f578586fd5b855b8581101561403d57813584529284019290840190600101614021565b5090979650505050505050565b600082601f83011261405a578081fd5b8135614068613ffe8261574f565b81815284602083860101111561407c578283fd5b816020850160208301379081016020019190915292915050565b6000602082840312156140a7578081fd5b6117df82613fc7565b600080604083850312156140c2578081fd5b6140cb83613fc7565b9150610e3560208401613fc7565b600080600080600060a086880312156140f0578081fd5b6140f986613fc7565b945061410760208701613fc7565b9350604086013567ffffffffffffffff80821115614123578283fd5b61412f89838a01613fde565b94506060880135915080821115614144578283fd5b61415089838a01613fde565b93506080880135915080821115614165578283fd5b506141728882890161404a565b9150509295509295909350565b60008060008060808587031215614194578384fd5b61419d85613fc7565b93506141ab60208601613fc7565b925060408501359150606085013567ffffffffffffffff8111156141cd578182fd5b6141d98782880161404a565b91505092959194509250565b600080600080600060a086880312156141fc578081fd5b61420586613fc7565b945061421360208701613fc7565b93506040860135925060608601359150608086013567ffffffffffffffff81111561423c578182fd5b6141728882890161404a565b60008060006060848603121561425c578081fd5b61426584613fc7565b9250602084013567ffffffffffffffff80821115614281578283fd5b61428d87838801613fde565b935060408601359150808211156142a2578283fd5b506142af86828701613fde565b9150509250925092565b600080600080608085870312156142ce578182fd5b6142d785613fc7565b9350602085013567ffffffffffffffff808211156142f3578384fd5b6142ff88838901613fde565b94506040870135915080821115614314578384fd5b61432088838901613fde565b93506060870135915080821115614335578283fd5b506141d98782880161404a565b60008060408385031215614354578182fd5b61435d83613fc7565b9150602083013561436d8161599e565b809150509250929050565b6000806040838503121561438a578182fd5b61439383613fc7565b946020939093013593505050565b6000806000606084860312156143b5578081fd5b6143be84613fc7565b95602085013595506040909401359392505050565b600080600080608085870312156143e8578182fd5b6143f185613fc7565b93506020850135925060408501359150606085013567ffffffffffffffff8111156141cd578182fd5b6000806040838503121561442c578182fd5b823567ffffffffffffffff80821115614443578384fd5b818501915085601f830112614456578384fd5b81356020614466613ffe8361572b565b82815281810190858301838502870184018b1015614482578889fd5b8896505b848710156144ab5761449781613fc7565b835260019690960195918301918301614486565b50965050860135925050808211156144c1578283fd5b506144ce85828601613fde565b9150509250929050565b6000602082840312156144e9578081fd5b81356117df8161599e565b600060208284031215614505578081fd5b81516117df8161599e565b600060208284031215614521578081fd5b5035919050565b600060208284031215614539578081fd5b5051919050565b60008060408385031215614552578182fd5b82359150610e3560208401613fc7565b60008060408385031215614574578182fd5b50508035926020909101359150565b600060208284031215614594578081fd5b81356117df816159af565b6000602082840312156145b0578081fd5b81516117df816159af565b600080602083850312156145cd578182fd5b823567ffffffffffffffff808211156145e4578384fd5b818501915085601f8301126145f7578384fd5b813581811115614605578485fd5b866020828501011115614616578485fd5b60209290920196919550909350505050565b6000806000806080858703121561463d578182fd5b845167ffffffffffffffff811115614653578283fd5b8501601f81018713614663578283fd5b8051614671613ffe8261574f565b818152886020838501011115614685578485fd5b61469682602083016020860161580a565b60208801516040890151606090990151919a909950909650945050505050565b6000602082840312156146c7578081fd5b81516fffffffffffffffffffffffffffffffff811681146117df578182fd5b6000815180845260208085019450808401835b83811015614715578151875295820195908201906001016146f9565b509495945050505050565b6000815180845261473881602086016020860161580a565b601f01601f19169290920160200192915050565b60008151608084526147616080850182614720565b90506001600160a01b03602084015116602085015260408301516040850152606083015160608501528091505092915050565b918252602082015260400190565b60007f416363657373436f6e74726f6c3a206163636f756e7420000000000000000000825283516147da81601785016020880161580a565b7f206973206d697373696e6720726f6c6520000000000000000000000000000000601791840191820152835161481781602884016020880161580a565b01602801949350505050565b6001600160a01b0391909116815260200190565b60006001600160a01b03808816835280871660208401525060a0604083015261486360a08301866146e6565b828103606084015261487581866146e6565b905082810360808401526148898185614720565b98975050505050505050565b60006001600160a01b03808716835280861660208401525060a060408301526148c160a08301856146e6565b82810360608401526148d381856146e6565b838103608090940193909352508152602001949350505050565b60006001600160a01b03808816835280871660208401525084604083015283606083015260a0608083015261492560a0830184614720565b979650505050505050565b6001600160a01b03929092168252602082015260400190565b60006001600160a01b0385168252836020830152606060408301526149716060830184614720565b95945050505050565b6000602082526117df60208301846146e6565b6000604082526149a060408301856146e6565b828103602084015261497181856146e6565b901515815260200190565b90815260200190565b9182526001600160a01b0316602082015260400190565b60008382526040602083015261266c60408301846146e6565b93845260208401929092526001600160a01b03166040830152606082015260800190565b6001600160e01b031991909116815260200190565b6000602082526117df6020830184614720565b600060808252614a556080830187614720565b6001600160a01b03959095166020830152506040810192909252606090910152919050565b60208082526034908201527f455243313135353a207472616e7366657220746f206e6f6e204552433131353560408201527f526563656976657220696d706c656d656e746572000000000000000000000000606082015260800190565b6020808252818101527f537472696e67733a20686578206c656e67746820696e73756666696369656e74604082015260600190565b60208082526028908201527f455243313135353a204552433131353552656365697665722072656a6563746560408201527f6420746f6b656e73000000000000000000000000000000000000000000000000606082015260800190565b60208082526033908201527f5061636b3a206f6e6c7920612070726f746f636f6c2061646d696e2063616e2060408201527f63616c6c20746869732066756e6374696f6e2e00000000000000000000000000606082015260800190565b60208082526039908201527f5061636b3a207468652077696e646f7720746f206f70656e207061636b73206860408201527f6173206e6f742073746172746564206f7220636c6f7365642e00000000000000606082015260800190565b60208082526014908201527f5061757361626c653a206e6f7420706175736564000000000000000000000000604082015260600190565b6020808252602b908201527f455243313135353a2062616c616e636520717565727920666f7220746865207a60408201527f65726f2061646472657373000000000000000000000000000000000000000000606082015260800190565b60208082526024908201527f455243313135353a206275726e20616d6f756e7420657863656564732062616c604082015263616e636560e01b606082015260800190565b60208082526031908201527f4163636573734e46543a2063616e6e6f742075736520726567756c6172206d6960408201527f6e7442617463682066756e6374696f6e2e000000000000000000000000000000606082015260800190565b6020808252602c908201527f455243313135355061757361626c653a20746f6b656e207472616e736665722060408201527f7768696c65207061757365640000000000000000000000000000000000000000606082015260800190565b60208082526029908201527f455243313135353a2063616c6c6572206973206e6f74206f776e6572206e6f7260408201527f20617070726f7665640000000000000000000000000000000000000000000000606082015260800190565b6020808252601e908201527f5061636b3a204661696c656420746f207472616e73666572204c494e4b2e0000604082015260600190565b60208082526034908201527f5061636b3a204e6f7420656e6f756768204c494e4b20746f2066756c66696c6c60408201527f2072616e646f6d6e65737320726571756573742e000000000000000000000000606082015260800190565b60208082526029908201527f5061636b3a20696e76616c6964206e756d626572206f6620726577617264732060408201527f706572206f70656e2e0000000000000000000000000000000000000000000000606082015260800190565b6020808252601d908201527f5061636b3a205468652070726f746f636f6c206973207061757365642e000000604082015260600190565b60208082526032908201527f5061636b3a206d757374207761697420666f72207468652070656e64696e672060408201527f7061636b20746f206265206f70656e65642e0000000000000000000000000000606082015260800190565b60208082526010908201527f5061757361626c653a2070617573656400000000000000000000000000000000604082015260600190565b60208082526025908201527f455243313135353a207472616e7366657220746f20746865207a65726f20616460408201527f6472657373000000000000000000000000000000000000000000000000000000606082015260800190565b60208082526032908201527f455243313135353a207472616e736665722063616c6c6572206973206e6f742060408201527f6f776e6572206e6f7220617070726f7665640000000000000000000000000000606082015260800190565b60208082526023908201527f455243313135353a206275726e2066726f6d20746865207a65726f206164647260408201526265737360e81b606082015260800190565b6020808252602a908201527f455243313135353a20696e73756666696369656e742062616c616e636520666f60408201527f72207472616e7366657200000000000000000000000000000000000000000000606082015260800190565b60208082526037908201527f5061636b3a205472616e7366657273206172652072657374726963746564207460408201527f6f205452414e534645525f524f4c4520686f6c64657273000000000000000000606082015260800190565b6020808252601f908201527f4f6e6c7920565246436f6f7264696e61746f722063616e2066756c66696c6c00604082015260600190565b6020808252601e908201527f5061636b3a204d75737420757365206261746368207472616e736665722e0000604082015260600190565b6020808252603c908201527f5061636b3a204f6e6c79206163636f756e74732077697468204d494e5445525f60408201527f524f4c452063616e2063616c6c20746869732066756e6374696f6e2e00000000606082015260800190565b6020808252603b908201527f455243313135355072657365744d696e7465725061757365723a206d7573742060408201527f686176652070617573657220726f6c6520746f20756e70617573650000000000606082015260800190565b60208082526039908201527f455243313135355072657365744d696e7465725061757365723a206d7573742060408201527f686176652070617573657220726f6c6520746f20706175736500000000000000606082015260800190565b6020808252602f908201527f5061636b3a2073656e646572206f776e73206e6f207061636b73206f6620746860408201527f6520676976656e207061636b49642e0000000000000000000000000000000000606082015260800190565b60208082526029908201527f455243313135353a2073657474696e6720617070726f76616c2073746174757360408201527f20666f722073656c660000000000000000000000000000000000000000000000606082015260800190565b60208082526029908201527f455243313135353a206163636f756e747320616e6420696473206c656e67746860408201527f206d69736d617463680000000000000000000000000000000000000000000000606082015260800190565b60208082526028908201527f455243313135353a2069647320616e6420616d6f756e7473206c656e6774682060408201527f6d69736d61746368000000000000000000000000000000000000000000000000606082015260800190565b60208082526021908201527f455243313135353a206d696e7420746f20746865207a65726f206164647265736040820152607360f81b606082015260800190565b60208082526029908201527f4e46543a204270732070726f7669646564206d757374206265206c657373207460408201527f68616e20392c3030300000000000000000000000000000000000000000000000606082015260800190565b6020808252602c908201527f4163636573734e46543a2063616e6e6f742075736520726567756c6172206d6960408201527f6e742066756e6374696f6e2e0000000000000000000000000000000000000000606082015260800190565b60208082526032908201527f5061636b3a2072657761726420636f6e747261637420646f6573206e6f74206960408201527f6d706c656d656e742045524320313135352e0000000000000000000000000000606082015260800190565b6020808252602f908201527f416363657373436f6e74726f6c3a2063616e206f6e6c792072656e6f756e636560408201527f20726f6c657320666f722073656c660000000000000000000000000000000000606082015260800190565b6000602082526117df602083018461474c565b600060808252615659608083018761474c565b6001600160a01b0386166020840152828103604084015261567a81866146e6565b9050828103606084015261492581856146e6565b6000604082526156a1604083018561474c565b82810360208401526001600160a01b0384511681526020840151608060208301526156cf60808301826146e6565b9050604085015182820360408401526156e882826146e6565b9150506060850151606083015280925050509392505050565b60405181810167ffffffffffffffff81118282101715615723576157236158dd565b604052919050565b600067ffffffffffffffff821115615745576157456158dd565b5060209081020190565b600067ffffffffffffffff821115615769576157696158dd565b50601f01601f191660200190565b6000821982111561578a5761578a6158b1565b500190565b60008261579e5761579e6158c7565b500490565b60008160001904831182151516156157bd576157bd6158b1565b500290565b60006fffffffffffffffffffffffffffffffff838116908316818110156157eb576157eb6158b1565b039392505050565b600082821015615805576158056158b1565b500390565b60005b8381101561582557818101518382015260200161580d565b838111156127125750506000910152565b600081615845576158456158b1565b506000190190565b60028104600182168061586157607f821691505b602082108114156139c857634e487b7160e01b600052602260045260246000fd5b6000600019821415615896576158966158b1565b5060010190565b6000826158ac576158ac6158c7565b500690565b634e487b7160e01b600052601160045260246000fd5b634e487b7160e01b600052601260045260246000fd5b634e487b7160e01b600052604160045260246000fd5b60e01c90565b600060443d1015615909576114a0565b600481823e6308c379a061591d82516158f3565b14615927576114a0565b6040513d600319016004823e80513d67ffffffffffffffff816024840111818411171561595757505050506114a0565b8284019250825191508082111561597157505050506114a0565b503d83016020828401011115615989575050506114a0565b601f01601f1916810160200160405291505090565b80151581146159ac57600080fd5b50565b6001600160e01b0319811681146159ac57600080fdfea164736f6c6343000800000a9f2df0fed2c77648de5860a4cc508cd0818c85b8b8a1ab4ceeef8d981c8956a6",
  "linkReferences": {},
  "deployedLinkReferences": {}
}