{
  "_format": "hh-sol-artifact-1",
  "contractName": "NFT",
  "sourceName": "contracts/NFT.sol",
  "abi": [
    {
      "inputs": [
        {
          "internalType": "address payable",
          "name": "_controlCenter",
          "type": "address"
        },
        {
          "internalType": "string",
          "name": "_name",
          "type": "string"
        },
        {
          "internalType": "string",
          "name": "_symbol",
          "type": "string"
        },
        {
          "internalType": "address",
          "name": "_trustedForwarder",
          "type": "address"
        },
        {
          "internalType": "string",
          "name": "_uri",
          "type": "string"
        }
      ],
      "stateMutability": "nonpayable",
      "type": "constructor"
    },
    {
      "anonymous": false,
      "inputs": [
        {
          "indexed": true,
          "internalType": "address",
          "name": "owner",
          "type": "address"
        },
        {
          "indexed": true,
          "internalType": "address",
          "name": "approved",
          "type": "address"
        },
        {
          "indexed": true,
          "internalType": "uint256",
          "name": "tokenId",
          "type": "uint256"
        }
      ],
      "name": "Approval",
      "type": "event"
    },
    {
      "anonymous": false,
      "inputs": [
        {
          "indexed": true,
          "internalType": "address",
          "name": "owner",
          "type": "address"
        },
        {
          "indexed": true,
          "internalType": "address",
          "name": "operator",
          "type": "address"
        },
        {
          "indexed": false,
          "internalType": "bool",
          "name": "approved",
          "type": "bool"
        }
      ],
      "name": "ApprovalForAll",
      "type": "event"
    },
    {
      "anonymous": false,
      "inputs": [
        {
          "indexed": true,
          "internalType": "address",
          "name": "to",
          "type": "address"
        },
        {
          "indexed": false,
          "internalType": "uint256",
          "name": "tokenId",
          "type": "uint256"
        },
        {
          "indexed": false,
          "internalType": "string",
          "name": "tokenURI",
          "type": "string"
        }
      ],
      "name": "Minted",
      "type": "event"
    },
    {
      "anonymous": false,
      "inputs": [
        {
          "indexed": true,
          "internalType": "address",
          "name": "to",
          "type": "address"
        },
        {
          "indexed": false,
          "internalType": "uint256[]",
          "name": "tokenIds",
          "type": "uint256[]"
        },
        {
          "indexed": false,
          "internalType": "string[]",
          "name": "tokenURI",
          "type": "string[]"
        }
      ],
      "name": "MintedBatch",
      "type": "event"
    },
    {
      "anonymous": false,
      "inputs": [
        {
          "indexed": false,
          "internalType": "address",
          "name": "account",
          "type": "address"
        }
      ],
      "name": "Paused",
      "type": "event"
    },
    {
      "anonymous": false,
      "inputs": [
        {
          "indexed": true,
          "internalType": "bytes32",
          "name": "role",
          "type": "bytes32"
        },
        {
          "indexed": true,
          "internalType": "bytes32",
          "name": "previousAdminRole",
          "type": "bytes32"
        },
        {
          "indexed": true,
          "internalType": "bytes32",
          "name": "newAdminRole",
          "type": "bytes32"
        }
      ],
      "name": "RoleAdminChanged",
      "type": "event"
    },
    {
      "anonymous": false,
      "inputs": [
        {
          "indexed": true,
          "internalType": "bytes32",
          "name": "role",
          "type": "bytes32"
        },
        {
          "indexed": true,
          "internalType": "address",
          "name": "account",
          "type": "address"
        },
        {
          "indexed": true,
          "internalType": "address",
          "name": "sender",
          "type": "address"
        }
      ],
      "name": "RoleGranted",
      "type": "event"
    },
    {
      "anonymous": false,
      "inputs": [
        {
          "indexed": true,
          "internalType": "bytes32",
          "name": "role",
          "type": "bytes32"
        },
        {
          "indexed": true,
          "internalType": "address",
          "name": "account",
          "type": "address"
        },
        {
          "indexed": true,
          "internalType": "address",
          "name": "sender",
          "type": "address"
        }
      ],
      "name": "RoleRevoked",
      "type": "event"
    },
    {
      "anonymous": false,
      "inputs": [
        {
          "indexed": false,
          "internalType": "address",
          "name": "receiver",
          "type": "address"
        }
      ],
      "name": "RoyaltyReceiverUpdated",
      "type": "event"
    },
    {
      "anonymous": false,
      "inputs": [
        {
          "indexed": false,
          "internalType": "uint256",
          "name": "royaltyBps",
          "type": "uint256"
        }
      ],
      "name": "RoyaltyUpdated",
      "type": "event"
    },
    {
      "anonymous": false,
      "inputs": [
        {
          "indexed": true,
          "internalType": "address",
          "name": "from",
          "type": "address"
        },
        {
          "indexed": true,
          "internalType": "address",
          "name": "to",
          "type": "address"
        },
        {
          "indexed": true,
          "internalType": "uint256",
          "name": "tokenId",
          "type": "uint256"
        }
      ],
      "name": "Transfer",
      "type": "event"
    },
    {
      "anonymous": false,
      "inputs": [
        {
          "indexed": false,
          "internalType": "address",
          "name": "account",
          "type": "address"
        }
      ],
      "name": "Unpaused",
      "type": "event"
    },
    {
      "inputs": [],
      "name": "DEFAULT_ADMIN_ROLE",
      "outputs": [
        {
          "internalType": "bytes32",
          "name": "",
          "type": "bytes32"
        }
      ],
      "stateMutability": "view",
      "type": "function"
    },
    {
      "inputs": [],
      "name": "MINTER_ROLE",
      "outputs": [
        {
          "internalType": "bytes32",
          "name": "",
          "type": "bytes32"
        }
      ],
      "stateMutability": "view",
      "type": "function"
    },
    {
      "inputs": [],
      "name": "PAUSER_ROLE",
      "outputs": [
        {
          "internalType": "bytes32",
          "name": "",
          "type": "bytes32"
        }
      ],
      "stateMutability": "view",
      "type": "function"
    },
    {
      "inputs": [],
      "name": "_contractURI",
      "outputs": [
        {
          "internalType": "string",
          "name": "",
          "type": "string"
        }
      ],
      "stateMutability": "view",
      "type": "function"
    },
    {
      "inputs": [
        {
          "internalType": "address",
          "name": "to",
          "type": "address"
        },
        {
          "internalType": "uint256",
          "name": "tokenId",
          "type": "uint256"
        }
      ],
      "name": "approve",
      "outputs": [],
      "stateMutability": "nonpayable",
      "type": "function"
    },
    {
      "inputs": [
        {
          "internalType": "address",
          "name": "owner",
          "type": "address"
        }
      ],
      "name": "balanceOf",
      "outputs": [
        {
          "internalType": "uint256",
          "name": "",
          "type": "uint256"
        }
      ],
      "stateMutability": "view",
      "type": "function"
    },
    {
      "inputs": [
        {
          "internalType": "uint256",
          "name": "tokenId",
          "type": "uint256"
        }
      ],
      "name": "burn",
      "outputs": [],
      "stateMutability": "nonpayable",
      "type": "function"
    },
    {
      "inputs": [],
      "name": "contractURI",
      "outputs": [
        {
          "internalType": "string",
          "name": "",
          "type": "string"
        }
      ],
      "stateMutability": "view",
      "type": "function"
    },
    {
      "inputs": [
        {
          "internalType": "uint256",
          "name": "tokenId",
          "type": "uint256"
        }
      ],
      "name": "getApproved",
      "outputs": [
        {
          "internalType": "address",
          "name": "",
          "type": "address"
        }
      ],
      "stateMutability": "view",
      "type": "function"
    },
    {
      "inputs": [
        {
          "internalType": "bytes32",
          "name": "role",
          "type": "bytes32"
        }
      ],
      "name": "getRoleAdmin",
      "outputs": [
        {
          "internalType": "bytes32",
          "name": "",
          "type": "bytes32"
        }
      ],
      "stateMutability": "view",
      "type": "function"
    },
    {
      "inputs": [
        {
          "internalType": "bytes32",
          "name": "role",
          "type": "bytes32"
        },
        {
          "internalType": "uint256",
          "name": "index",
          "type": "uint256"
        }
      ],
      "name": "getRoleMember",
      "outputs": [
        {
          "internalType": "address",
          "name": "",
          "type": "address"
        }
      ],
      "stateMutability": "view",
      "type": "function"
    },
    {
      "inputs": [
        {
          "internalType": "bytes32",
          "name": "role",
          "type": "bytes32"
        }
      ],
      "name": "getRoleMemberCount",
      "outputs": [
        {
          "internalType": "uint256",
          "name": "",
          "type": "uint256"
        }
      ],
      "stateMutability": "view",
      "type": "function"
    },
    {
      "inputs": [
        {
          "internalType": "bytes32",
          "name": "role",
          "type": "bytes32"
        },
        {
          "internalType": "address",
          "name": "account",
          "type": "address"
        }
      ],
      "name": "grantRole",
      "outputs": [],
      "stateMutability": "nonpayable",
      "type": "function"
    },
    {
      "inputs": [
        {
          "internalType": "bytes32",
          "name": "role",
          "type": "bytes32"
        },
        {
          "internalType": "address",
          "name": "account",
          "type": "address"
        }
      ],
      "name": "hasRole",
      "outputs": [
        {
          "internalType": "bool",
          "name": "",
          "type": "bool"
        }
      ],
      "stateMutability": "view",
      "type": "function"
    },
    {
      "inputs": [
        {
          "internalType": "address",
          "name": "owner",
          "type": "address"
        },
        {
          "internalType": "address",
          "name": "operator",
          "type": "address"
        }
      ],
      "name": "isApprovedForAll",
      "outputs": [
        {
          "internalType": "bool",
          "name": "",
          "type": "bool"
        }
      ],
      "stateMutability": "view",
      "type": "function"
    },
    {
      "inputs": [
        {
          "internalType": "address",
          "name": "forwarder",
          "type": "address"
        }
      ],
      "name": "isTrustedForwarder",
      "outputs": [
        {
          "internalType": "bool",
          "name": "",
          "type": "bool"
        }
      ],
      "stateMutability": "view",
      "type": "function"
    },
    {
      "inputs": [
        {
          "internalType": "address",
          "name": "",
          "type": "address"
        }
      ],
      "name": "mint",
      "outputs": [],
      "stateMutability": "pure",
      "type": "function"
    },
    {
      "inputs": [
        {
          "internalType": "address",
          "name": "_to",
          "type": "address"
        },
        {
          "internalType": "string",
          "name": "_uri",
          "type": "string"
        }
      ],
      "name": "mintNFT",
      "outputs": [],
      "stateMutability": "nonpayable",
      "type": "function"
    },
    {
      "inputs": [
        {
          "internalType": "address",
          "name": "_to",
          "type": "address"
        },
        {
          "internalType": "string[]",
          "name": "_uris",
          "type": "string[]"
        }
      ],
      "name": "mintNFTBatch",
      "outputs": [],
      "stateMutability": "nonpayable",
      "type": "function"
    },
    {
      "inputs": [],
      "name": "name",
      "outputs": [
        {
          "internalType": "string",
          "name": "",
          "type": "string"
        }
      ],
      "stateMutability": "view",
      "type": "function"
    },
    {
      "inputs": [],
      "name": "nextTokenId",
      "outputs": [
        {
          "internalType": "uint256",
          "name": "",
          "type": "uint256"
        }
      ],
      "stateMutability": "view",
      "type": "function"
    },
    {
      "inputs": [
        {
          "internalType": "uint256",
          "name": "",
          "type": "uint256"
        }
      ],
      "name": "nftURI",
      "outputs": [
        {
          "internalType": "string",
          "name": "",
          "type": "string"
        }
      ],
      "stateMutability": "view",
      "type": "function"
    },
    {
      "inputs": [
        {
          "internalType": "uint256",
          "name": "tokenId",
          "type": "uint256"
        }
      ],
      "name": "ownerOf",
      "outputs": [
        {
          "internalType": "address",
          "name": "",
          "type": "address"
        }
      ],
      "stateMutability": "view",
      "type": "function"
    },
    {
      "inputs": [],
      "name": "pause",
      "outputs": [],
      "stateMutability": "nonpayable",
      "type": "function"
    },
    {
      "inputs": [],
      "name": "paused",
      "outputs": [
        {
          "internalType": "bool",
          "name": "",
          "type": "bool"
        }
      ],
      "stateMutability": "view",
      "type": "function"
    },
    {
      "inputs": [
        {
          "internalType": "bytes32",
          "name": "role",
          "type": "bytes32"
        },
        {
          "internalType": "address",
          "name": "account",
          "type": "address"
        }
      ],
      "name": "renounceRole",
      "outputs": [],
      "stateMutability": "nonpayable",
      "type": "function"
    },
    {
      "inputs": [
        {
          "internalType": "bytes32",
          "name": "role",
          "type": "bytes32"
        },
        {
          "internalType": "address",
          "name": "account",
          "type": "address"
        }
      ],
      "name": "revokeRole",
      "outputs": [],
      "stateMutability": "nonpayable",
      "type": "function"
    },
    {
      "inputs": [],
      "name": "royaltyBps",
      "outputs": [
        {
          "internalType": "uint256",
          "name": "",
          "type": "uint256"
        }
      ],
      "stateMutability": "view",
      "type": "function"
    },
    {
      "inputs": [
        {
          "internalType": "uint256",
          "name": "tokenId",
          "type": "uint256"
        },
        {
          "internalType": "uint256",
          "name": "salePrice",
          "type": "uint256"
        }
      ],
      "name": "royaltyInfo",
      "outputs": [
        {
          "internalType": "address",
          "name": "receiver",
          "type": "address"
        },
        {
          "internalType": "uint256",
          "name": "royaltyAmount",
          "type": "uint256"
        }
      ],
      "stateMutability": "view",
      "type": "function"
    },
    {
      "inputs": [],
      "name": "royaltyReceiver",
      "outputs": [
        {
          "internalType": "address",
          "name": "",
          "type": "address"
        }
      ],
      "stateMutability": "view",
      "type": "function"
    },
    {
      "inputs": [
        {
          "internalType": "address",
          "name": "from",
          "type": "address"
        },
        {
          "internalType": "address",
          "name": "to",
          "type": "address"
        },
        {
          "internalType": "uint256",
          "name": "tokenId",
          "type": "uint256"
        }
      ],
      "name": "safeTransferFrom",
      "outputs": [],
      "stateMutability": "nonpayable",
      "type": "function"
    },
    {
      "inputs": [
        {
          "internalType": "address",
          "name": "from",
          "type": "address"
        },
        {
          "internalType": "address",
          "name": "to",
          "type": "address"
        },
        {
          "internalType": "uint256",
          "name": "tokenId",
          "type": "uint256"
        },
        {
          "internalType": "bytes",
          "name": "_data",
          "type": "bytes"
        }
      ],
      "name": "safeTransferFrom",
      "outputs": [],
      "stateMutability": "nonpayable",
      "type": "function"
    },
    {
      "inputs": [
        {
          "internalType": "address",
          "name": "operator",
          "type": "address"
        },
        {
          "internalType": "bool",
          "name": "approved",
          "type": "bool"
        }
      ],
      "name": "setApprovalForAll",
      "outputs": [],
      "stateMutability": "nonpayable",
      "type": "function"
    },
    {
      "inputs": [
        {
          "internalType": "string",
          "name": "_URI",
          "type": "string"
        }
      ],
      "name": "setContractURI",
      "outputs": [],
      "stateMutability": "nonpayable",
      "type": "function"
    },
    {
      "inputs": [
        {
          "internalType": "uint256",
          "name": "_royaltyBps",
          "type": "uint256"
        }
      ],
      "name": "setRoyaltyBps",
      "outputs": [],
      "stateMutability": "nonpayable",
      "type": "function"
    },
    {
      "inputs": [
        {
          "internalType": "address",
          "name": "receiver",
          "type": "address"
        }
      ],
      "name": "setRoyaltyReceiver",
      "outputs": [],
      "stateMutability": "nonpayable",
      "type": "function"
    },
    {
      "inputs": [
        {
          "internalType": "bytes4",
          "name": "interfaceId",
          "type": "bytes4"
        }
      ],
      "name": "supportsInterface",
      "outputs": [
        {
          "internalType": "bool",
          "name": "",
          "type": "bool"
        }
      ],
      "stateMutability": "view",
      "type": "function"
    },
    {
      "inputs": [],
      "name": "symbol",
      "outputs": [
        {
          "internalType": "string",
          "name": "",
          "type": "string"
        }
      ],
      "stateMutability": "view",
      "type": "function"
    },
    {
      "inputs": [
        {
          "internalType": "uint256",
          "name": "index",
          "type": "uint256"
        }
      ],
      "name": "tokenByIndex",
      "outputs": [
        {
          "internalType": "uint256",
          "name": "",
          "type": "uint256"
        }
      ],
      "stateMutability": "view",
      "type": "function"
    },
    {
      "inputs": [
        {
          "internalType": "address",
          "name": "owner",
          "type": "address"
        },
        {
          "internalType": "uint256",
          "name": "index",
          "type": "uint256"
        }
      ],
      "name": "tokenOfOwnerByIndex",
      "outputs": [
        {
          "internalType": "uint256",
          "name": "",
          "type": "uint256"
        }
      ],
      "stateMutability": "view",
      "type": "function"
    },
    {
      "inputs": [
        {
          "internalType": "uint256",
          "name": "tokenId",
          "type": "uint256"
        }
      ],
      "name": "tokenURI",
      "outputs": [
        {
          "internalType": "string",
          "name": "",
          "type": "string"
        }
      ],
      "stateMutability": "view",
      "type": "function"
    },
    {
      "inputs": [],
      "name": "totalSupply",
      "outputs": [
        {
          "internalType": "uint256",
          "name": "",
          "type": "uint256"
        }
      ],
      "stateMutability": "view",
      "type": "function"
    },
    {
      "inputs": [
        {
          "internalType": "address",
          "name": "from",
          "type": "address"
        },
        {
          "internalType": "address",
          "name": "to",
          "type": "address"
        },
        {
          "internalType": "uint256",
          "name": "tokenId",
          "type": "uint256"
        }
      ],
      "name": "transferFrom",
      "outputs": [],
      "stateMutability": "nonpayable",
      "type": "function"
    },
    {
      "inputs": [],
      "name": "unpause",
      "outputs": [],
      "stateMutability": "nonpayable",
      "type": "function"
    }
  ],
  "bytecode": "0x60806040523480156200001157600080fd5b5060405162003f5338038062003f538339810160408190526200003491620004a6565b81848483828281600290805190602001906200005292919062000355565b5080516200006890600390602084019062000355565b5050600c805460ff191690555080516200008a90600e90602084019062000355565b50620000a160006200009b62000153565b62000170565b620000d07f9f2df0fed2c77648de5860a4cc508cd0818c85b8b8a1ab4ceeef8d981c8956a66200009b62000153565b620000ff7f65d7a28e3265b37a6474929f336521b332c1681b933f6cb9f3376673440d862a6200009b62000153565b5050600f80546001600160a01b03199081166001600160a01b039485161790915560108054909116928816929092179091555080516200014790601290602084019062000355565b505050505050620005cb565b60006200016a620001b360201b620016d21760201c565b90505b90565b620001878282620001f360201b620017001760201c565b6000828152600160209081526040909120620001ae9183906200170e62000203821b17901c565b505050565b6000620001c03362000223565b15620001d6575060131936013560601c6200016d565b620001eb6200023760201b620017231760201c565b90506200016d565b620001ff82826200023b565b5050565b60006200021a836001600160a01b038416620002c5565b90505b92915050565b600f546001600160a01b0390811691161490565b3390565b62000247828262000314565b620001ff576000828152602081815260408083206001600160a01b03851684529091529020805460ff191660011790556200028162000153565b6001600160a01b0316816001600160a01b0316837f2f8788117e7eff1d82e926ec794901d17c78024a50270940304540a733656f0d60405160405180910390a45050565b6000620002d383836200033d565b6200030b575081546001818101845560008481526020808220909301849055845484825282860190935260409020919091556200021d565b5060006200021d565b6000918252602082815260408084206001600160a01b0393909316845291905290205460ff1690565b60009081526001919091016020526040902054151590565b82805462000363906200055f565b90600052602060002090601f016020900481019282620003875760008555620003d2565b82601f10620003a257805160ff1916838001178555620003d2565b82800160010185558215620003d2579182015b82811115620003d2578251825591602001919060010190620003b5565b50620003e0929150620003e4565b5090565b5b80821115620003e05760008155600101620003e5565b600082601f8301126200040c578081fd5b81516001600160401b03808211156200042957620004296200059c565b6040516020601f8401601f19168201810183811183821017156200045157620004516200059c565b604052838252858401810187101562000468578485fd5b8492505b838310156200048b57858301810151828401820152918201916200046c565b838311156200049c57848185840101525b5095945050505050565b600080600080600060a08688031215620004be578081fd5b8551620004cb81620005b2565b60208701519095506001600160401b0380821115620004e8578283fd5b620004f689838a01620003fb565b955060408801519150808211156200050c578283fd5b6200051a89838a01620003fb565b9450606088015191506200052e82620005b2565b60808801519193508082111562000543578283fd5b506200055288828901620003fb565b9150509295509295909350565b6002810460018216806200057457607f821691505b602082108114156200059657634e487b7160e01b600052602260045260246000fd5b50919050565b634e487b7160e01b600052604160045260246000fd5b6001600160a01b0381168114620005c857600080fd5b50565b61397880620005db6000396000f3fe608060405234801561001057600080fd5b50600436106102f45760003560e01c806375794a3c11610191578063c0e72740116100e3578063d547741f11610097578063e985e9c511610071578063e985e9c5146105b7578063eacabe14146105ca578063efe47687146105dd576102f4565b8063d547741f14610594578063e63ab1e9146105a7578063e8a3d485146105af576102f4565b8063c87b56dd116100c8578063c87b56dd14610566578063ca15c87314610579578063d53913931461058c576102f4565b8063c0e7274014610556578063c63adb2b1461055e576102f4565b8063938e3d7b11610145578063a217fddf1161011f578063a217fddf14610528578063a22cb46514610530578063b88d4fde14610543576102f4565b8063938e3d7b1461050557806395d89b41146105185780639fbc871314610520576102f4565b80638dc251e3116101765780638dc251e3146104cc5780639010d07c146104df57806391d14854146104f2576102f4565b806375794a3c146104bc5780638456cb59146104c4576102f4565b806336568abe1161024a5780634f6ccce7116101fe5780636352211e116101d85780636352211e146104835780636a6278421461049657806370a08231146104a9576102f4565b80634f6ccce714610455578063572b6c05146104685780635c975abb1461047b576102f4565b806342842e0e1161022f57806342842e0e1461041c57806342966c681461042f57806349a33a2f14610442576102f4565b806336568abe146104015780633f4ba83a14610414576102f4565b80631f72d831116102ac5780632a55205a116102865780632a55205a146103ba5780632f2ff15d146103db5780632f745c59146103ee576102f4565b80631f72d8311461038157806323b872dd14610394578063248a9ca3146103a7576102f4565b8063081812fc116102dd578063081812fc14610337578063095ea7b31461035757806318160ddd1461036c576102f4565b806301ffc9a7146102f957806306fdde0314610322575b600080fd5b61030c610307366004612b6c565b6105f0565b6040516103199190612e51565b60405180910390f35b61032a61061e565b6040516103199190612e7c565b61034a610345366004612af9565b6106b1565b6040516103199190612d1a565b61036a610365366004612ab4565b6106fd565b005b610374610795565b6040516103199190612e5c565b61036a61038f366004612af9565b61079b565b61036a6103a23660046128a6565b6109a7565b6103746103b5366004612af9565b6109df565b6103cd6103c8366004612b4b565b6109f4565b604051610319929190612d6a565b61036a6103e9366004612b29565b610aab565b6103746103fc366004612ab4565b610acd565b61036a61040f366004612b29565b610b22565b61036a610b44565b61036a61042a3660046128a6565b610b96565b61036a61043d366004612af9565b610bb1565b61036a6104503660046129ad565b610be4565b610374610463366004612af9565b610e2e565b61030c610476366004612863565b610e89565b61030c610e9d565b61034a610491366004612af9565b610ea6565b61036a6104a4366004612863565b610edb565b6103746104b7366004612863565b610ef3565b610374610f37565b61036a610f3d565b61036a6104da366004612863565b610f8d565b61034a6104ed366004612b4b565b6110ee565b61030c610500366004612b29565b61110d565b61036a610513366004612ba4565b611136565b61032a611258565b61034a611267565b610374611276565b61036a61053e366004612a2d565b61127b565b61036a6105513660046128e1565b611349565b61032a611388565b610374611416565b61032a610574366004612af9565b61141c565b610374610587366004612af9565b61149e565b6103746114b5565b61036a6105a2366004612b29565b6114d9565b6103746114e3565b61032a611507565b61030c6105c536600461287d565b611516565b61036a6105d8366004612a63565b611544565b61032a6105eb366004612af9565b6116b9565b60006105fb82611727565b8061061657506001600160e01b0319821663152a902d60e11b145b90505b919050565b60606002805461062d9061389b565b80601f01602080910402602001604051908101604052809291908181526020018280546106599061389b565b80156106a65780601f1061067b576101008083540402835291602001916106a6565b820191906000526020600020905b81548152906001019060200180831161068957829003601f168201915b505050505090505b90565b60006106bc82611732565b6106e15760405162461bcd60e51b81526004016106d890613418565b60405180910390fd5b506000908152600660205260409020546001600160a01b031690565b600061070882610ea6565b9050806001600160a01b0316836001600160a01b0316141561073c5760405162461bcd60e51b81526004016106d89061351e565b806001600160a01b031661074e61174f565b6001600160a01b0316148061076a575061076a816105c561174f565b6107865760405162461bcd60e51b81526004016106d890613201565b610790838361175e565b505050565b600a5490565b60105460408051634a32c6bf60e11b815290516001600160a01b03909216916391d148549183916394658d7e91600480820192602092909190829003018186803b1580156107e857600080fd5b505afa1580156107fc573d6000803e3d6000fd5b505050506040513d601f19601f820116820180604052508101906108209190612b11565b61082861174f565b6040518363ffffffff1660e01b8152600401610845929190612e65565b60206040518083038186803b15801561085d57600080fd5b505afa158015610871573d6000803e3d6000fd5b505050506040513d601f19601f820116820180604052508101906108959190612add565b6108b15760405162461bcd60e51b81526004016106d8906131a4565b601060009054906101000a90046001600160a01b03166001600160a01b031663fd967f476040518163ffffffff1660e01b815260040160206040518083038186803b1580156108ff57600080fd5b505afa158015610913573d6000803e3d6000fd5b505050506040513d601f19601f820116820180604052508101906109379190612be4565b6fffffffffffffffffffffffffffffffff1681106109675760405162461bcd60e51b81526004016106d89061355f565b60148190556040517f244ea8d7627f5a08f4299862bd5a45752842c183aee5b0fb0d1e4887bfa605b39061099c908390612e5c565b60405180910390a150565b6109b86109b261174f565b826117cc565b6109d45760405162461bcd60e51b81526004016106d8906135bc565b610790838383611851565b60009081526020819052604090206001015490565b6015546010546040805163fd967f4760e01b815290516001600160a01b0393841693600093169163fd967f47916004808301926020929190829003018186803b158015610a4057600080fd5b505afa158015610a54573d6000803e3d6000fd5b505050506040513d601f19601f82011682018060405250810190610a789190612be4565b6fffffffffffffffffffffffffffffffff1660145484610a989190613822565b610aa2919061380e565b90509250929050565b610ab5828261197e565b6000828152600160205260409020610790908261170e565b6000610ad883610ef3565b8210610af65760405162461bcd60e51b81526004016106d890612f58565b506001600160a01b03821660009081526008602090815260408083208484529091529020545b92915050565b610b2c82826119a2565b600082815260016020526040902061079090826119e4565b610b707f65d7a28e3265b37a6474929f336521b332c1681b933f6cb9f3376673440d862a61050061174f565b610b8c5760405162461bcd60e51b81526004016106d8906136d3565b610b946119f9565b565b61079083838360405180602001604052806000815250611349565b610bbc6109b261174f565b610bd85760405162461bcd60e51b81526004016106d890613676565b610be181611a67565b50565b601060009054906101000a90046001600160a01b03166001600160a01b0316639d2f83f06040518163ffffffff1660e01b815260040160206040518083038186803b158015610c3257600080fd5b505afa158015610c46573d6000803e3d6000fd5b505050506040513d601f19601f82011682018060405250810190610c6a9190612add565b15610c875760405162461bcd60e51b81526004016106d89061325e565b610cb37f9f2df0fed2c77648de5860a4cc508cd0818c85b8b8a1ab4ceeef8d981c8956a661050061174f565b610ccf5760405162461bcd60e51b81526004016106d89061334f565b60008167ffffffffffffffff811115610cf857634e487b7160e01b600052604160045260246000fd5b604051908082528060200260200182016040528015610d21578160200160208202803683370190505b5060115490915060005b83811015610de15781838281518110610d5457634e487b7160e01b600052603260045260246000fd5b602002602001018181525050610d6a8683611b0e565b600160116000828254610d7d91906137f6565b909155508590508482818110610da357634e487b7160e01b600052603260045260246000fd5b9050602002810190610db591906137b1565b6000848152601360205260409020610dce92909161276c565b5080610dd9816138d6565b915050610d2b565b50846001600160a01b03167fc411deae1e16185e61ddb05979e773d72e4badda0fedfefdab44360e6f041057838686604051610e1f93929190612d83565b60405180910390a25050505050565b6000610e38610795565b8210610e565760405162461bcd60e51b81526004016106d890613619565b600a8281548110610e7757634e487b7160e01b600052603260045260246000fd5b90600052602060002001549050919050565b600f546001600160a01b0390811691161490565b600c5460ff1690565b6000818152600460205260408120546001600160a01b0316806106165760405162461bcd60e51b81526004016106d8906132f2565b60405162461bcd60e51b81526004016106d8906133ac565b60006001600160a01b038216610f1b5760405162461bcd60e51b81526004016106d890613295565b506001600160a01b031660009081526005602052604090205490565b60115481565b610f697f65d7a28e3265b37a6474929f336521b332c1681b933f6cb9f3376673440d862a61050061174f565b610f855760405162461bcd60e51b81526004016106d890613049565b610b94611bed565b60105460408051634a32c6bf60e11b815290516001600160a01b03909216916391d148549183916394658d7e91600480820192602092909190829003018186803b158015610fda57600080fd5b505afa158015610fee573d6000803e3d6000fd5b505050506040513d601f19601f820116820180604052508101906110129190612b11565b61101a61174f565b6040518363ffffffff1660e01b8152600401611037929190612e65565b60206040518083038186803b15801561104f57600080fd5b505afa158015611063573d6000803e3d6000fd5b505050506040513d601f19601f820116820180604052508101906110879190612add565b6110a35760405162461bcd60e51b81526004016106d8906131a4565b601580546001600160a01b0319166001600160a01b0383161790556040517fc3696c23bd17454d95c44cb489c7a0db717d6d809e238813932720cc785ad5359061099c908390612d1a565b60008281526001602052604081206111069083611c48565b9392505050565b6000918252602082815260408084206001600160a01b0393909316845291905290205460ff1690565b60105460408051634a32c6bf60e11b815290516001600160a01b03909216916391d148549183916394658d7e91600480820192602092909190829003018186803b15801561118357600080fd5b505afa158015611197573d6000803e3d6000fd5b505050506040513d601f19601f820116820180604052508101906111bb9190612b11565b6111c361174f565b6040518363ffffffff1660e01b81526004016111e0929190612e65565b60206040518083038186803b1580156111f857600080fd5b505afa15801561120c573d6000803e3d6000fd5b505050506040513d601f19601f820116820180604052508101906112309190612add565b61124c5760405162461bcd60e51b81526004016106d8906131a4565b6107906012838361276c565b60606003805461062d9061389b565b6015546001600160a01b031681565b600081565b61128361174f565b6001600160a01b0316826001600160a01b031614156112b45760405162461bcd60e51b81526004016106d8906130ea565b80600760006112c161174f565b6001600160a01b03908116825260208083019390935260409182016000908120918716808252919093529120805460ff19169215159290921790915561130561174f565b6001600160a01b03167f17307eab39ab6107e8899845ad3d59bd9653f200f220920489ca2b5937696c318360405161133d9190612e51565b60405180910390a35050565b61135a61135461174f565b836117cc565b6113765760405162461bcd60e51b81526004016106d8906135bc565b61138284848484611c54565b50505050565b601280546113959061389b565b80601f01602080910402602001604051908101604052809291908181526020018280546113c19061389b565b801561140e5780601f106113e35761010080835404028352916020019161140e565b820191906000526020600020905b8154815290600101906020018083116113f157829003601f168201915b505050505081565b60145481565b606061142782611732565b6114435760405162461bcd60e51b81526004016106d8906134c1565b600061144d611c87565b9050600081511161146d5760405180602001604052806000815250611106565b8061147784611c96565b604051602001611488929190612c6a565b6040516020818303038152906040529392505050565b600081815260016020526040812061061690611db1565b7f9f2df0fed2c77648de5860a4cc508cd0818c85b8b8a1ab4ceeef8d981c8956a681565b610b2c8282611dbc565b7f65d7a28e3265b37a6474929f336521b332c1681b933f6cb9f3376673440d862a81565b60606012805461062d9061389b565b6001600160a01b03918216600090815260076020908152604080832093909416825291909152205460ff1690565b601060009054906101000a90046001600160a01b03166001600160a01b0316639d2f83f06040518163ffffffff1660e01b815260040160206040518083038186803b15801561159257600080fd5b505afa1580156115a6573d6000803e3d6000fd5b505050506040513d601f19601f820116820180604052508101906115ca9190612add565b156115e75760405162461bcd60e51b81526004016106d89061325e565b6116137f9f2df0fed2c77648de5860a4cc508cd0818c85b8b8a1ab4ceeef8d981c8956a661050061174f565b61162f5760405162461bcd60e51b81526004016106d89061334f565b60115461163c8482611b0e565b60016011600082825461164f91906137f6565b9091555050600081815260136020526040902061166d90848461276c565b50836001600160a01b03167fe7cd4ce7f2a465edc730269a1305e8a48bad821e8fb7e152ec413829c01a53c48285856040516116ab9392919061378e565b60405180910390a250505050565b601360205260009081526040902080546113959061389b565b60006116dd33610e89565b156116f1575060131936013560601c6106ae565b6116f9611723565b90506106ae565b61170a8282611ddb565b5050565b6000611106836001600160a01b038416611e60565b3390565b600061061682611eaa565b6000908152600460205260409020546001600160a01b0316151590565b60006117596116d2565b905090565b600081815260066020526040902080546001600160a01b0319166001600160a01b038416908117909155819061179382610ea6565b6001600160a01b03167f8c5be1e5ebec7d5bd14f71427d1e84f3dd0314c0f7b2291e5b200ac8c7c3b92560405160405180910390a45050565b60006117d782611732565b6117f35760405162461bcd60e51b81526004016106d890613121565b60006117fe83610ea6565b9050806001600160a01b0316846001600160a01b031614806118395750836001600160a01b031661182e846106b1565b6001600160a01b0316145b8061184957506118498185611516565b949350505050565b826001600160a01b031661186482610ea6565b6001600160a01b03161461188a5760405162461bcd60e51b81526004016106d890613464565b6001600160a01b0382166118b05760405162461bcd60e51b81526004016106d8906130a6565b6118bb838383611ecf565b6118c660008261175e565b6001600160a01b03831660009081526005602052604081208054600192906118ef908490613841565b90915550506001600160a01b038216600090815260056020526040812080546001929061191d9084906137f6565b909155505060008181526004602052604080822080546001600160a01b0319166001600160a01b0386811691821790925591518493918716917fddf252ad1be2c89b69c2b068fc378daa952ba7f163c4a11628f55a4df523b3ef91a4505050565b611987826109df565b6119988161199361174f565b611eda565b6107908383611ddb565b6119aa61174f565b6001600160a01b0316816001600160a01b0316146119da5760405162461bcd60e51b81526004016106d890613731565b61170a8282611f3e565b6000611106836001600160a01b038416611fc1565b611a01610e9d565b611a1d5760405162461bcd60e51b81526004016106d890612f21565b600c805460ff191690557f5db9ee0a495bf2e6ff9c91a7834c1ba4fdd244a5e8aa4e537bd38aeae4b073aa611a5061174f565b604051611a5d9190612d1a565b60405180910390a1565b6000611a7282610ea6565b9050611a8081600084611ecf565b611a8b60008361175e565b6001600160a01b0381166000908152600560205260408120805460019290611ab4908490613841565b909155505060008281526004602052604080822080546001600160a01b0319169055518391906001600160a01b038416907fddf252ad1be2c89b69c2b068fc378daa952ba7f163c4a11628f55a4df523b3ef908390a45050565b6001600160a01b038216611b345760405162461bcd60e51b81526004016106d8906133e3565b611b3d81611732565b15611b5a5760405162461bcd60e51b81526004016106d890613012565b611b6660008383611ecf565b6001600160a01b0382166000908152600560205260408120805460019290611b8f9084906137f6565b909155505060008181526004602052604080822080546001600160a01b0319166001600160a01b03861690811790915590518392907fddf252ad1be2c89b69c2b068fc378daa952ba7f163c4a11628f55a4df523b3ef908290a45050565b611bf5610e9d565b15611c125760405162461bcd60e51b81526004016106d89061316d565b600c805460ff191660011790557f62e78cea01bee320cd4e420270b5ea74000d11b0c9f74754ebdbfc544b05a258611a5061174f565b600061110683836120de565b611c5f848484611851565b611c6b84848484612116565b6113825760405162461bcd60e51b81526004016106d890612fb5565b6060600e805461062d9061389b565b606081611cbb57506040805180820190915260018152600360fc1b6020820152610619565b8160005b8115611ce55780611ccf816138d6565b9150611cde9050600a8361380e565b9150611cbf565b60008167ffffffffffffffff811115611d0e57634e487b7160e01b600052604160045260246000fd5b6040519080825280601f01601f191660200182016040528015611d38576020820181803683370190505b5090505b841561184957611d4d600183613841565b9150611d5a600a866138f1565b611d659060306137f6565b60f81b818381518110611d8857634e487b7160e01b600052603260045260246000fd5b60200101906001600160f81b031916908160001a905350611daa600a8661380e565b9450611d3c565b600061061682612231565b611dc5826109df565b611dd18161199361174f565b6107908383611f3e565b611de5828261110d565b61170a576000828152602081815260408083206001600160a01b03851684529091529020805460ff19166001179055611e1c61174f565b6001600160a01b0316816001600160a01b0316837f2f8788117e7eff1d82e926ec794901d17c78024a50270940304540a733656f0d60405160405180910390a45050565b6000611e6c8383612235565b611ea257508154600181810184556000848152602080822090930184905584548482528286019093526040902091909155610b1c565b506000610b1c565b60006001600160e01b0319821663780e9d6360e01b148061061657506106168261224d565b61079083838361228d565b611ee4828261110d565b61170a57611efc816001600160a01b031660146122bd565b611f078360206122bd565b604051602001611f18929190612c99565b60408051601f198184030181529082905262461bcd60e51b82526106d891600401612e7c565b611f48828261110d565b1561170a576000828152602081815260408083206001600160a01b03851684529091529020805460ff19169055611f7d61174f565b6001600160a01b0316816001600160a01b0316837ff6391f5c32d9c69d2a47ea670b442974b53935d1edc7fd64eb21e047a839171b60405160405180910390a45050565b600081815260018301602052604081205480156120d4576000611fe5600183613841565b8554909150600090611ff990600190613841565b905081811461207a57600086600001828154811061202757634e487b7160e01b600052603260045260246000fd5b906000526020600020015490508087600001848154811061205857634e487b7160e01b600052603260045260246000fd5b6000918252602080832090910192909255918252600188019052604090208390555b855486908061209957634e487b7160e01b600052603160045260246000fd5b600190038181906000526020600020016000905590558560010160008681526020019081526020016000206000905560019350505050610b1c565b6000915050610b1c565b600082600001828154811061210357634e487b7160e01b600052603260045260246000fd5b9060005260206000200154905092915050565b600061212a846001600160a01b031661247c565b1561222657836001600160a01b031663150b7a0261214661174f565b8786866040518563ffffffff1660e01b81526004016121689493929190612d2e565b602060405180830381600087803b15801561218257600080fd5b505af19250505080156121b2575060408051601f3d908101601f191682019092526121af91810190612b88565b60015b61220c573d8080156121e0576040519150601f19603f3d011682016040523d82523d6000602084013e6121e5565b606091505b5080516122045760405162461bcd60e51b81526004016106d890612fb5565b805181602001fd5b6001600160e01b031916630a85bd0160e11b149050611849565b506001949350505050565b5490565b60009081526001919091016020526040902054151590565b60006001600160e01b031982166380ac58cd60e01b148061227e57506001600160e01b03198216635b5e139f60e01b145b80610616575061061682612482565b6122988383836124a7565b6122a0610e9d565b156107905760405162461bcd60e51b81526004016106d890612ec4565b606060006122cc836002613822565b6122d79060026137f6565b67ffffffffffffffff8111156122fd57634e487b7160e01b600052604160045260246000fd5b6040519080825280601f01601f191660200182016040528015612327576020820181803683370190505b509050600360fc1b8160008151811061235057634e487b7160e01b600052603260045260246000fd5b60200101906001600160f81b031916908160001a905350600f60fb1b8160018151811061238d57634e487b7160e01b600052603260045260246000fd5b60200101906001600160f81b031916908160001a90535060006123b1846002613822565b6123bc9060016137f6565b90505b600181111561245d577f303132333435363738396162636465660000000000000000000000000000000085600f166010811061240b57634e487b7160e01b600052603260045260246000fd5b1a60f81b82828151811061242f57634e487b7160e01b600052603260045260246000fd5b60200101906001600160f81b031916908160001a90535060049490941c9361245681613884565b90506123bf565b5083156111065760405162461bcd60e51b81526004016106d890612e8f565b3b151590565b60006001600160e01b03198216635a05180f60e01b1480610616575061061682612530565b6124b2838383610790565b6001600160a01b0383166124ce576124c981612555565b6124f1565b816001600160a01b0316836001600160a01b0316146124f1576124f18382612599565b6001600160a01b03821661250d5761250881612636565b610790565b826001600160a01b0316826001600160a01b03161461079057610790828261270f565b60006001600160e01b03198216637965db0b60e01b1480610616575061061682612753565b600a80546000838152600b60205260408120829055600182018355919091527fc65a7bb8d6351c1cf70c95a316cc6a92839c986682d98bc35f958f4883f9d2a80155565b600060016125a684610ef3565b6125b09190613841565b600083815260096020526040902054909150808214612603576001600160a01b03841660009081526008602090815260408083208584528252808320548484528184208190558352600990915290208190555b5060009182526009602090815260408084208490556001600160a01b039094168352600881528383209183525290812055565b600a5460009061264890600190613841565b6000838152600b6020526040812054600a805493945090928490811061267e57634e487b7160e01b600052603260045260246000fd5b9060005260206000200154905080600a83815481106126ad57634e487b7160e01b600052603260045260246000fd5b6000918252602080832090910192909255828152600b9091526040808220849055858252812055600a8054806126f357634e487b7160e01b600052603160045260246000fd5b6001900381819060005260206000200160009055905550505050565b600061271a83610ef3565b6001600160a01b039093166000908152600860209081526040808320868452825280832085905593825260099052919091209190915550565b6001600160e01b031981166301ffc9a760e01b14919050565b8280546127789061389b565b90600052602060002090601f01602090048101928261279a57600085556127e0565b82601f106127b35782800160ff198235161785556127e0565b828001600101855582156127e0579182015b828111156127e05782358255916020019190600101906127c5565b506127ec9291506127f0565b5090565b5b808211156127ec57600081556001016127f1565b80356001600160a01b038116811461061957600080fd5b60008083601f84011261282d578182fd5b50813567ffffffffffffffff811115612844578182fd5b60208301915083602082850101111561285c57600080fd5b9250929050565b600060208284031215612874578081fd5b61110682612805565b6000806040838503121561288f578081fd5b61289883612805565b9150610aa260208401612805565b6000806000606084860312156128ba578081fd5b6128c384612805565b92506128d160208501612805565b9150604084013590509250925092565b600080600080608085870312156128f6578081fd5b6128ff85612805565b9350602061290e818701612805565b935060408601359250606086013567ffffffffffffffff80821115612931578384fd5b818801915088601f830112612944578384fd5b81358181111561295657612956613931565b604051601f8201601f191681018501838111828210171561297957612979613931565b60405281815283820185018b101561298f578586fd5b81858501868301379081019093019390935250939692955090935050565b6000806000604084860312156129c1578283fd5b6129ca84612805565b9250602084013567ffffffffffffffff808211156129e6578384fd5b818601915086601f8301126129f9578384fd5b813581811115612a07578485fd5b8760208083028501011115612a1a578485fd5b6020830194508093505050509250925092565b60008060408385031215612a3f578182fd5b612a4883612805565b91506020830135612a5881613947565b809150509250929050565b600080600060408486031215612a77578283fd5b612a8084612805565b9250602084013567ffffffffffffffff811115612a9b578283fd5b612aa78682870161281c565b9497909650939450505050565b60008060408385031215612ac6578182fd5b612acf83612805565b946020939093013593505050565b600060208284031215612aee578081fd5b815161110681613947565b600060208284031215612b0a578081fd5b5035919050565b600060208284031215612b22578081fd5b5051919050565b60008060408385031215612b3b578081fd5b82359150610aa260208401612805565b60008060408385031215612b5d578182fd5b50508035926020909101359150565b600060208284031215612b7d578081fd5b813561110681613955565b600060208284031215612b99578081fd5b815161110681613955565b60008060208385031215612bb6578182fd5b823567ffffffffffffffff811115612bcc578283fd5b612bd88582860161281c565b90969095509350505050565b600060208284031215612bf5578081fd5b81516fffffffffffffffffffffffffffffffff81168114611106578182fd5b60008151808452612c2c816020860160208601613858565b601f01601f19169290920160200192915050565b60008284528282602086013780602084860101526020601f19601f85011685010190509392505050565b60008351612c7c818460208801613858565b835190830190612c90818360208801613858565b01949350505050565b60007f416363657373436f6e74726f6c3a206163636f756e742000000000000000000082528351612cd1816017850160208801613858565b7f206973206d697373696e6720726f6c65200000000000000000000000000000006017918401918201528351612d0e816028840160208801613858565b01602801949350505050565b6001600160a01b0391909116815260200190565b60006001600160a01b03808716835280861660208401525083604083015260806060830152612d606080830184612c14565b9695505050505050565b6001600160a01b03929092168252602082015260400190565b604080825284519082018190526000906020906060840190828801845b82811015612dbc57815184529284019290840190600101612da0565b505050838103828501528481528181018583028201830187855b88811015612e4257848303601f190184528135368b9003601e19018112612dfb578788fd5b8a01803567ffffffffffffffff811115612e13578889fd5b8036038c1315612e21578889fd5b612e2e85828a8501612c40565b958801959450505090850190600101612dd6565b50909998505050505050505050565b901515815260200190565b90815260200190565b9182526001600160a01b0316602082015260400190565b6000602082526111066020830184612c14565b6020808252818101527f537472696e67733a20686578206c656e67746820696e73756666696369656e74604082015260600190565b6020808252602b908201527f4552433732315061757361626c653a20746f6b656e207472616e73666572207760408201527f68696c6520706175736564000000000000000000000000000000000000000000606082015260800190565b60208082526014908201527f5061757361626c653a206e6f7420706175736564000000000000000000000000604082015260600190565b6020808252602b908201527f455243373231456e756d657261626c653a206f776e657220696e646578206f7560408201527f74206f6620626f756e6473000000000000000000000000000000000000000000606082015260800190565b60208082526032908201527f4552433732313a207472616e7366657220746f206e6f6e20455243373231526560408201527f63656976657220696d706c656d656e7465720000000000000000000000000000606082015260800190565b6020808252601c908201527f4552433732313a20746f6b656e20616c7265616479206d696e74656400000000604082015260600190565b6020808252603e908201527f4552433732315072657365744d696e7465725061757365724175746f49643a2060408201527f6d75737420686176652070617573657220726f6c6520746f2070617573650000606082015260800190565b60208082526024908201527f4552433732313a207472616e7366657220746f20746865207a65726f206164646040820152637265737360e01b606082015260800190565b60208082526019908201527f4552433732313a20617070726f766520746f2063616c6c657200000000000000604082015260600190565b6020808252602c908201527f4552433732313a206f70657261746f7220717565727920666f72206e6f6e657860408201526b34b9ba32b73a103a37b5b2b760a11b606082015260800190565b60208082526010908201527f5061757361626c653a2070617573656400000000000000000000000000000000604082015260600190565b60208082526035908201527f4e46543732313a206f6e6c7920612070726f746f636f6c2061646d696e20636160408201527f6e2063616c6c20746869732066756e6374696f6e2e0000000000000000000000606082015260800190565b60208082526038908201527f4552433732313a20617070726f76652063616c6c6572206973206e6f74206f7760408201527f6e6572206e6f7220617070726f76656420666f7220616c6c0000000000000000606082015260800190565b6020808252601f908201527f4e46543732313a205468652070726f746f636f6c206973207061757365642e00604082015260600190565b6020808252602a908201527f4552433732313a2062616c616e636520717565727920666f7220746865207a6560408201527f726f206164647265737300000000000000000000000000000000000000000000606082015260800190565b60208082526029908201527f4552433732313a206f776e657220717565727920666f72206e6f6e657869737460408201527f656e7420746f6b656e0000000000000000000000000000000000000000000000606082015260800190565b60208082526025908201527f4e46543732313a206d7573742068617665206d696e74657220726f6c6520746f60408201527f206d696e74000000000000000000000000000000000000000000000000000000606082015260800190565b6020808252601d908201527f4e46543732313a2043616c6c206d696e744e465420696e73746561642e000000604082015260600190565b6020808252818101527f4552433732313a206d696e7420746f20746865207a65726f2061646472657373604082015260600190565b6020808252602c908201527f4552433732313a20617070726f76656420717565727920666f72206e6f6e657860408201526b34b9ba32b73a103a37b5b2b760a11b606082015260800190565b60208082526029908201527f4552433732313a207472616e73666572206f6620746f6b656e2074686174206960408201527f73206e6f74206f776e0000000000000000000000000000000000000000000000606082015260800190565b6020808252602f908201527f4552433732314d657461646174613a2055524920717565727920666f72206e6f60408201527f6e6578697374656e7420746f6b656e0000000000000000000000000000000000606082015260800190565b60208082526021908201527f4552433732313a20617070726f76616c20746f2063757272656e74206f776e656040820152603960f91b606082015260800190565b6020808252602a908201527f4e46543a204270732070726f7669646564206d757374206265206c657373207460408201527f68616e2031302c30303000000000000000000000000000000000000000000000606082015260800190565b60208082526031908201527f4552433732313a207472616e736665722063616c6c6572206973206e6f74206f60408201527f776e6572206e6f7220617070726f766564000000000000000000000000000000606082015260800190565b6020808252602c908201527f455243373231456e756d657261626c653a20676c6f62616c20696e646578206f60408201527f7574206f6620626f756e64730000000000000000000000000000000000000000606082015260800190565b60208082526030908201527f4552433732314275726e61626c653a2063616c6c6572206973206e6f74206f7760408201527f6e6572206e6f7220617070726f76656400000000000000000000000000000000606082015260800190565b602080825260409082018190527f4552433732315072657365744d696e7465725061757365724175746f49643a20908201527f6d75737420686176652070617573657220726f6c6520746f20756e7061757365606082015260800190565b6020808252602f908201527f416363657373436f6e74726f6c3a2063616e206f6e6c792072656e6f756e636560408201527f20726f6c657320666f722073656c660000000000000000000000000000000000606082015260800190565b6000848252604060208301526137a8604083018486612c40565b95945050505050565b6000808335601e198436030181126137c7578283fd5b83018035915067ffffffffffffffff8211156137e1578283fd5b60200191503681900382131561285c57600080fd5b6000821982111561380957613809613905565b500190565b60008261381d5761381d61391b565b500490565b600081600019048311821515161561383c5761383c613905565b500290565b60008282101561385357613853613905565b500390565b60005b8381101561387357818101518382015260200161385b565b838111156113825750506000910152565b60008161389357613893613905565b506000190190565b6002810460018216806138af57607f821691505b602082108114156138d057634e487b7160e01b600052602260045260246000fd5b50919050565b60006000198214156138ea576138ea613905565b5060010190565b6000826139005761390061391b565b500690565b634e487b7160e01b600052601160045260246000fd5b634e487b7160e01b600052601260045260246000fd5b634e487b7160e01b600052604160045260246000fd5b8015158114610be157600080fd5b6001600160e01b031981168114610be157600080fdfea164736f6c6343000800000a",
  "linkReferences": {},
  "deployedLinkReferences": {}
}