{
  "_format": "hh-sol-artifact-1",
  "contractName": "NFT",
  "sourceName": "contracts/NFT.sol",
  "abi": [
    {
      "inputs": [
        {
          "internalType": "address payable",
          "name": "_controlCenter",
          "type": "address"
        },
        {
          "internalType": "string",
          "name": "_name",
          "type": "string"
        },
        {
          "internalType": "string",
          "name": "_symbol",
          "type": "string"
        },
        {
          "internalType": "address",
          "name": "_trustedForwarder",
          "type": "address"
        },
        {
          "internalType": "string",
          "name": "_uri",
          "type": "string"
        }
      ],
      "stateMutability": "nonpayable",
      "type": "constructor"
    },
    {
      "anonymous": false,
      "inputs": [
        {
          "indexed": true,
          "internalType": "address",
          "name": "owner",
          "type": "address"
        },
        {
          "indexed": true,
          "internalType": "address",
          "name": "approved",
          "type": "address"
        },
        {
          "indexed": true,
          "internalType": "uint256",
          "name": "tokenId",
          "type": "uint256"
        }
      ],
      "name": "Approval",
      "type": "event"
    },
    {
      "anonymous": false,
      "inputs": [
        {
          "indexed": true,
          "internalType": "address",
          "name": "owner",
          "type": "address"
        },
        {
          "indexed": true,
          "internalType": "address",
          "name": "operator",
          "type": "address"
        },
        {
          "indexed": false,
          "internalType": "bool",
          "name": "approved",
          "type": "bool"
        }
      ],
      "name": "ApprovalForAll",
      "type": "event"
    },
    {
      "anonymous": false,
      "inputs": [
        {
          "indexed": true,
          "internalType": "address",
          "name": "creator",
          "type": "address"
        },
        {
          "indexed": true,
          "internalType": "address",
          "name": "to",
          "type": "address"
        },
        {
          "indexed": false,
          "internalType": "uint256",
          "name": "tokenId",
          "type": "uint256"
        },
        {
          "indexed": false,
          "internalType": "string",
          "name": "tokenURI",
          "type": "string"
        }
      ],
      "name": "Minted",
      "type": "event"
    },
    {
      "anonymous": false,
      "inputs": [
        {
          "indexed": true,
          "internalType": "address",
          "name": "creator",
          "type": "address"
        },
        {
          "indexed": true,
          "internalType": "address",
          "name": "to",
          "type": "address"
        },
        {
          "indexed": false,
          "internalType": "uint256[]",
          "name": "tokenIds",
          "type": "uint256[]"
        },
        {
          "indexed": false,
          "internalType": "string[]",
          "name": "tokenURI",
          "type": "string[]"
        }
      ],
      "name": "MintedBatch",
      "type": "event"
    },
    {
      "anonymous": false,
      "inputs": [
        {
          "indexed": false,
          "internalType": "address",
          "name": "account",
          "type": "address"
        }
      ],
      "name": "Paused",
      "type": "event"
    },
    {
      "anonymous": false,
      "inputs": [
        {
          "indexed": true,
          "internalType": "bytes32",
          "name": "role",
          "type": "bytes32"
        },
        {
          "indexed": true,
          "internalType": "bytes32",
          "name": "previousAdminRole",
          "type": "bytes32"
        },
        {
          "indexed": true,
          "internalType": "bytes32",
          "name": "newAdminRole",
          "type": "bytes32"
        }
      ],
      "name": "RoleAdminChanged",
      "type": "event"
    },
    {
      "anonymous": false,
      "inputs": [
        {
          "indexed": true,
          "internalType": "bytes32",
          "name": "role",
          "type": "bytes32"
        },
        {
          "indexed": true,
          "internalType": "address",
          "name": "account",
          "type": "address"
        },
        {
          "indexed": true,
          "internalType": "address",
          "name": "sender",
          "type": "address"
        }
      ],
      "name": "RoleGranted",
      "type": "event"
    },
    {
      "anonymous": false,
      "inputs": [
        {
          "indexed": true,
          "internalType": "bytes32",
          "name": "role",
          "type": "bytes32"
        },
        {
          "indexed": true,
          "internalType": "address",
          "name": "account",
          "type": "address"
        },
        {
          "indexed": true,
          "internalType": "address",
          "name": "sender",
          "type": "address"
        }
      ],
      "name": "RoleRevoked",
      "type": "event"
    },
    {
      "anonymous": false,
      "inputs": [
        {
          "indexed": false,
          "internalType": "uint256",
          "name": "royaltyBps",
          "type": "uint256"
        }
      ],
      "name": "RoyaltyUpdated",
      "type": "event"
    },
    {
      "anonymous": false,
      "inputs": [
        {
          "indexed": true,
          "internalType": "address",
          "name": "from",
          "type": "address"
        },
        {
          "indexed": true,
          "internalType": "address",
          "name": "to",
          "type": "address"
        },
        {
          "indexed": true,
          "internalType": "uint256",
          "name": "tokenId",
          "type": "uint256"
        }
      ],
      "name": "Transfer",
      "type": "event"
    },
    {
      "anonymous": false,
      "inputs": [
        {
          "indexed": false,
          "internalType": "address",
          "name": "account",
          "type": "address"
        }
      ],
      "name": "Unpaused",
      "type": "event"
    },
    {
      "inputs": [],
      "name": "DEFAULT_ADMIN_ROLE",
      "outputs": [
        {
          "internalType": "bytes32",
          "name": "",
          "type": "bytes32"
        }
      ],
      "stateMutability": "view",
      "type": "function"
    },
    {
      "inputs": [],
      "name": "MINTER_ROLE",
      "outputs": [
        {
          "internalType": "bytes32",
          "name": "",
          "type": "bytes32"
        }
      ],
      "stateMutability": "view",
      "type": "function"
    },
    {
      "inputs": [],
      "name": "PAUSER_ROLE",
      "outputs": [
        {
          "internalType": "bytes32",
          "name": "",
          "type": "bytes32"
        }
      ],
      "stateMutability": "view",
      "type": "function"
    },
    {
      "inputs": [],
      "name": "TRANSFER_ROLE",
      "outputs": [
        {
          "internalType": "bytes32",
          "name": "",
          "type": "bytes32"
        }
      ],
      "stateMutability": "view",
      "type": "function"
    },
    {
      "inputs": [],
      "name": "_contractURI",
      "outputs": [
        {
          "internalType": "string",
          "name": "",
          "type": "string"
        }
      ],
      "stateMutability": "view",
      "type": "function"
    },
    {
      "inputs": [
        {
          "internalType": "address",
          "name": "to",
          "type": "address"
        },
        {
          "internalType": "uint256",
          "name": "tokenId",
          "type": "uint256"
        }
      ],
      "name": "approve",
      "outputs": [],
      "stateMutability": "nonpayable",
      "type": "function"
    },
    {
      "inputs": [
        {
          "internalType": "address",
          "name": "owner",
          "type": "address"
        }
      ],
      "name": "balanceOf",
      "outputs": [
        {
          "internalType": "uint256",
          "name": "",
          "type": "uint256"
        }
      ],
      "stateMutability": "view",
      "type": "function"
    },
    {
      "inputs": [
        {
          "internalType": "uint256",
          "name": "tokenId",
          "type": "uint256"
        }
      ],
      "name": "burn",
      "outputs": [],
      "stateMutability": "nonpayable",
      "type": "function"
    },
    {
      "inputs": [],
      "name": "contractURI",
      "outputs": [
        {
          "internalType": "string",
          "name": "",
          "type": "string"
        }
      ],
      "stateMutability": "view",
      "type": "function"
    },
    {
      "inputs": [
        {
          "internalType": "uint256",
          "name": "",
          "type": "uint256"
        }
      ],
      "name": "creator",
      "outputs": [
        {
          "internalType": "address",
          "name": "",
          "type": "address"
        }
      ],
      "stateMutability": "view",
      "type": "function"
    },
    {
      "inputs": [
        {
          "internalType": "uint256",
          "name": "tokenId",
          "type": "uint256"
        }
      ],
      "name": "getApproved",
      "outputs": [
        {
          "internalType": "address",
          "name": "",
          "type": "address"
        }
      ],
      "stateMutability": "view",
      "type": "function"
    },
    {
      "inputs": [
        {
          "internalType": "bytes32",
          "name": "role",
          "type": "bytes32"
        }
      ],
      "name": "getRoleAdmin",
      "outputs": [
        {
          "internalType": "bytes32",
          "name": "",
          "type": "bytes32"
        }
      ],
      "stateMutability": "view",
      "type": "function"
    },
    {
      "inputs": [
        {
          "internalType": "bytes32",
          "name": "role",
          "type": "bytes32"
        },
        {
          "internalType": "uint256",
          "name": "index",
          "type": "uint256"
        }
      ],
      "name": "getRoleMember",
      "outputs": [
        {
          "internalType": "address",
          "name": "",
          "type": "address"
        }
      ],
      "stateMutability": "view",
      "type": "function"
    },
    {
      "inputs": [
        {
          "internalType": "bytes32",
          "name": "role",
          "type": "bytes32"
        }
      ],
      "name": "getRoleMemberCount",
      "outputs": [
        {
          "internalType": "uint256",
          "name": "",
          "type": "uint256"
        }
      ],
      "stateMutability": "view",
      "type": "function"
    },
    {
      "inputs": [
        {
          "internalType": "bytes32",
          "name": "role",
          "type": "bytes32"
        },
        {
          "internalType": "address",
          "name": "account",
          "type": "address"
        }
      ],
      "name": "grantRole",
      "outputs": [],
      "stateMutability": "nonpayable",
      "type": "function"
    },
    {
      "inputs": [
        {
          "internalType": "bytes32",
          "name": "role",
          "type": "bytes32"
        },
        {
          "internalType": "address",
          "name": "account",
          "type": "address"
        }
      ],
      "name": "hasRole",
      "outputs": [
        {
          "internalType": "bool",
          "name": "",
          "type": "bool"
        }
      ],
      "stateMutability": "view",
      "type": "function"
    },
    {
      "inputs": [
        {
          "internalType": "address",
          "name": "owner",
          "type": "address"
        },
        {
          "internalType": "address",
          "name": "operator",
          "type": "address"
        }
      ],
      "name": "isApprovedForAll",
      "outputs": [
        {
          "internalType": "bool",
          "name": "",
          "type": "bool"
        }
      ],
      "stateMutability": "view",
      "type": "function"
    },
    {
      "inputs": [
        {
          "internalType": "address",
          "name": "forwarder",
          "type": "address"
        }
      ],
      "name": "isTrustedForwarder",
      "outputs": [
        {
          "internalType": "bool",
          "name": "",
          "type": "bool"
        }
      ],
      "stateMutability": "view",
      "type": "function"
    },
    {
      "inputs": [
        {
          "internalType": "address",
          "name": "",
          "type": "address"
        }
      ],
      "name": "mint",
      "outputs": [],
      "stateMutability": "pure",
      "type": "function"
    },
    {
      "inputs": [
        {
          "internalType": "address",
          "name": "_to",
          "type": "address"
        },
        {
          "internalType": "string",
          "name": "_uri",
          "type": "string"
        }
      ],
      "name": "mintNFT",
      "outputs": [],
      "stateMutability": "nonpayable",
      "type": "function"
    },
    {
      "inputs": [
        {
          "internalType": "address",
          "name": "_to",
          "type": "address"
        },
        {
          "internalType": "string[]",
          "name": "_uris",
          "type": "string[]"
        }
      ],
      "name": "mintNFTBatch",
      "outputs": [],
      "stateMutability": "nonpayable",
      "type": "function"
    },
    {
      "inputs": [],
      "name": "name",
      "outputs": [
        {
          "internalType": "string",
          "name": "",
          "type": "string"
        }
      ],
      "stateMutability": "view",
      "type": "function"
    },
    {
      "inputs": [],
      "name": "nextTokenId",
      "outputs": [
        {
          "internalType": "uint256",
          "name": "",
          "type": "uint256"
        }
      ],
      "stateMutability": "view",
      "type": "function"
    },
    {
      "inputs": [
        {
          "internalType": "uint256",
          "name": "",
          "type": "uint256"
        }
      ],
      "name": "nftURI",
      "outputs": [
        {
          "internalType": "string",
          "name": "",
          "type": "string"
        }
      ],
      "stateMutability": "view",
      "type": "function"
    },
    {
      "inputs": [
        {
          "internalType": "uint256",
          "name": "tokenId",
          "type": "uint256"
        }
      ],
      "name": "ownerOf",
      "outputs": [
        {
          "internalType": "address",
          "name": "",
          "type": "address"
        }
      ],
      "stateMutability": "view",
      "type": "function"
    },
    {
      "inputs": [],
      "name": "pause",
      "outputs": [],
      "stateMutability": "nonpayable",
      "type": "function"
    },
    {
      "inputs": [],
      "name": "paused",
      "outputs": [
        {
          "internalType": "bool",
          "name": "",
          "type": "bool"
        }
      ],
      "stateMutability": "view",
      "type": "function"
    },
    {
      "inputs": [
        {
          "internalType": "bytes32",
          "name": "role",
          "type": "bytes32"
        },
        {
          "internalType": "address",
          "name": "account",
          "type": "address"
        }
      ],
      "name": "renounceRole",
      "outputs": [],
      "stateMutability": "nonpayable",
      "type": "function"
    },
    {
      "inputs": [
        {
          "internalType": "bytes32",
          "name": "role",
          "type": "bytes32"
        },
        {
          "internalType": "address",
          "name": "account",
          "type": "address"
        }
      ],
      "name": "revokeRole",
      "outputs": [],
      "stateMutability": "nonpayable",
      "type": "function"
    },
    {
      "inputs": [],
      "name": "royaltyBps",
      "outputs": [
        {
          "internalType": "uint256",
          "name": "",
          "type": "uint256"
        }
      ],
      "stateMutability": "view",
      "type": "function"
    },
    {
      "inputs": [
        {
          "internalType": "uint256",
          "name": "",
          "type": "uint256"
        },
        {
          "internalType": "uint256",
          "name": "salePrice",
          "type": "uint256"
        }
      ],
      "name": "royaltyInfo",
      "outputs": [
        {
          "internalType": "address",
          "name": "receiver",
          "type": "address"
        },
        {
          "internalType": "uint256",
          "name": "royaltyAmount",
          "type": "uint256"
        }
      ],
      "stateMutability": "view",
      "type": "function"
    },
    {
      "inputs": [
        {
          "internalType": "address",
          "name": "from",
          "type": "address"
        },
        {
          "internalType": "address",
          "name": "to",
          "type": "address"
        },
        {
          "internalType": "uint256",
          "name": "tokenId",
          "type": "uint256"
        }
      ],
      "name": "safeTransferFrom",
      "outputs": [],
      "stateMutability": "nonpayable",
      "type": "function"
    },
    {
      "inputs": [
        {
          "internalType": "address",
          "name": "from",
          "type": "address"
        },
        {
          "internalType": "address",
          "name": "to",
          "type": "address"
        },
        {
          "internalType": "uint256",
          "name": "tokenId",
          "type": "uint256"
        },
        {
          "internalType": "bytes",
          "name": "_data",
          "type": "bytes"
        }
      ],
      "name": "safeTransferFrom",
      "outputs": [],
      "stateMutability": "nonpayable",
      "type": "function"
    },
    {
      "inputs": [
        {
          "internalType": "address",
          "name": "operator",
          "type": "address"
        },
        {
          "internalType": "bool",
          "name": "approved",
          "type": "bool"
        }
      ],
      "name": "setApprovalForAll",
      "outputs": [],
      "stateMutability": "nonpayable",
      "type": "function"
    },
    {
      "inputs": [
        {
          "internalType": "string",
          "name": "_URI",
          "type": "string"
        }
      ],
      "name": "setContractURI",
      "outputs": [],
      "stateMutability": "nonpayable",
      "type": "function"
    },
    {
      "inputs": [
        {
          "internalType": "bool",
          "name": "_restrictedTransfer",
          "type": "bool"
        }
      ],
      "name": "setRestrictedTransfer",
      "outputs": [],
      "stateMutability": "nonpayable",
      "type": "function"
    },
    {
      "inputs": [
        {
          "internalType": "uint256",
          "name": "_royaltyBps",
          "type": "uint256"
        }
      ],
      "name": "setRoyaltyBps",
      "outputs": [],
      "stateMutability": "nonpayable",
      "type": "function"
    },
    {
      "inputs": [
        {
          "internalType": "bytes4",
          "name": "interfaceId",
          "type": "bytes4"
        }
      ],
      "name": "supportsInterface",
      "outputs": [
        {
          "internalType": "bool",
          "name": "",
          "type": "bool"
        }
      ],
      "stateMutability": "view",
      "type": "function"
    },
    {
      "inputs": [],
      "name": "symbol",
      "outputs": [
        {
          "internalType": "string",
          "name": "",
          "type": "string"
        }
      ],
      "stateMutability": "view",
      "type": "function"
    },
    {
      "inputs": [
        {
          "internalType": "uint256",
          "name": "index",
          "type": "uint256"
        }
      ],
      "name": "tokenByIndex",
      "outputs": [
        {
          "internalType": "uint256",
          "name": "",
          "type": "uint256"
        }
      ],
      "stateMutability": "view",
      "type": "function"
    },
    {
      "inputs": [
        {
          "internalType": "address",
          "name": "owner",
          "type": "address"
        },
        {
          "internalType": "uint256",
          "name": "index",
          "type": "uint256"
        }
      ],
      "name": "tokenOfOwnerByIndex",
      "outputs": [
        {
          "internalType": "uint256",
          "name": "",
          "type": "uint256"
        }
      ],
      "stateMutability": "view",
      "type": "function"
    },
    {
      "inputs": [
        {
          "internalType": "uint256",
          "name": "tokenId",
          "type": "uint256"
        }
      ],
      "name": "tokenURI",
      "outputs": [
        {
          "internalType": "string",
          "name": "",
          "type": "string"
        }
      ],
      "stateMutability": "view",
      "type": "function"
    },
    {
      "inputs": [],
      "name": "totalSupply",
      "outputs": [
        {
          "internalType": "uint256",
          "name": "",
          "type": "uint256"
        }
      ],
      "stateMutability": "view",
      "type": "function"
    },
    {
      "inputs": [
        {
          "internalType": "address",
          "name": "from",
          "type": "address"
        },
        {
          "internalType": "address",
          "name": "to",
          "type": "address"
        },
        {
          "internalType": "uint256",
          "name": "tokenId",
          "type": "uint256"
        }
      ],
      "name": "transferFrom",
      "outputs": [],
      "stateMutability": "nonpayable",
      "type": "function"
    },
    {
      "inputs": [],
      "name": "transfersRestricted",
      "outputs": [
        {
          "internalType": "bool",
          "name": "",
          "type": "bool"
        }
      ],
      "stateMutability": "view",
      "type": "function"
    },
    {
      "inputs": [],
      "name": "unpause",
      "outputs": [],
      "stateMutability": "nonpayable",
      "type": "function"
    }
  ],
  "bytecode": "0x60806040523480156200001157600080fd5b506040516200407b3803806200407b8339810160408190526200003491620004d5565b81848483828281600290805190602001906200005292919062000384565b5080516200006890600390602084019062000384565b5050600c805460ff191690555080516200008a90600e90602084019062000384565b50620000a160006200009b62000182565b6200019f565b620000d07f9f2df0fed2c77648de5860a4cc508cd0818c85b8b8a1ab4ceeef8d981c8956a66200009b62000182565b620000ff7f65d7a28e3265b37a6474929f336521b332c1681b933f6cb9f3376673440d862a6200009b62000182565b5050600f80546001600160a01b03199081166001600160a01b039485161790915560108054909116928816929092179091555080516200014790601290602084019062000384565b50620001777f8502233096d909befbda0999bb8ea2f3a6be3c138b9fbf003752a4c8bce86f6c6200009b62000182565b5050505050620005fa565b600062000199620001e260201b620018531760201c565b90505b90565b620001b682826200022260201b620018811760201c565b6000828152600160209081526040909120620001dd9183906200188f62000232821b17901c565b505050565b6000620001ef3362000252565b1562000205575060131936013560601c6200019c565b6200021a6200026660201b620018a41760201c565b90506200019c565b6200022e82826200026a565b5050565b600062000249836001600160a01b038416620002f4565b90505b92915050565b600f546001600160a01b0390811691161490565b3390565b62000276828262000343565b6200022e576000828152602081815260408083206001600160a01b03851684529091529020805460ff19166001179055620002b062000182565b6001600160a01b0316816001600160a01b0316837f2f8788117e7eff1d82e926ec794901d17c78024a50270940304540a733656f0d60405160405180910390a45050565b60006200030283836200036c565b6200033a575081546001818101845560008481526020808220909301849055845484825282860190935260409020919091556200024c565b5060006200024c565b6000918252602082815260408084206001600160a01b0393909316845291905290205460ff1690565b60009081526001919091016020526040902054151590565b82805462000392906200058e565b90600052602060002090601f016020900481019282620003b6576000855562000401565b82601f10620003d157805160ff191683800117855562000401565b8280016001018555821562000401579182015b8281111562000401578251825591602001919060010190620003e4565b506200040f92915062000413565b5090565b5b808211156200040f576000815560010162000414565b600082601f8301126200043b578081fd5b81516001600160401b0380821115620004585762000458620005cb565b6040516020601f8401601f1916820181018381118382101715620004805762000480620005cb565b604052838252858401810187101562000497578485fd5b8492505b83831015620004ba57858301810151828401820152918201916200049b565b83831115620004cb57848185840101525b5095945050505050565b600080600080600060a08688031215620004ed578081fd5b8551620004fa81620005e1565b60208701519095506001600160401b038082111562000517578283fd5b6200052589838a016200042a565b955060408801519150808211156200053b578283fd5b6200054989838a016200042a565b9450606088015191506200055d82620005e1565b60808801519193508082111562000572578283fd5b5062000581888289016200042a565b9150509295509295909350565b600281046001821680620005a357607f821691505b60208210811415620005c557634e487b7160e01b600052602260045260246000fd5b50919050565b634e487b7160e01b600052604160045260246000fd5b6001600160a01b0381168114620005f757600080fd5b50565b613a71806200060a6000396000f3fe608060405234801561001057600080fd5b506004361061030a5760003560e01c806370a082311161019c578063b88d4fde116100ee578063d547741f11610097578063e985e9c511610071578063e985e9c5146105e8578063eacabe14146105fb578063efe476871461060e5761030a565b8063d547741f146105c5578063e63ab1e9146105d8578063e8a3d485146105e05761030a565b8063c87b56dd116100c8578063c87b56dd14610597578063ca15c873146105aa578063d5391393146105bd5761030a565b8063b88d4fde14610574578063c0e7274014610587578063c63adb2b1461058f5761030a565b80639010d07c1161015057806395d89b411161012a57806395d89b4114610551578063a217fddf14610559578063a22cb465146105615761030a565b80639010d07c1461051857806391d148541461052b578063938e3d7b1461053e5761030a565b80638423df79116101815780638423df79146104f55780638456cb59146104fd5780638ba448c2146105055761030a565b806370a08231146104da57806375794a3c146104ed5761030a565b80632f745c59116102605780634f6ccce7116102095780635c975abb116101e35780635c975abb146104ac5780636352211e146104b45780636a627842146104c75761030a565b80634f6ccce714610473578063510b515814610486578063572b6c05146104995761030a565b806342842e0e1161023a57806342842e0e1461043a57806342966c681461044d57806349a33a2f146104605761030a565b80632f745c591461040c57806336568abe1461041f5780633f4ba83a146104325761030a565b80631f72d831116102c2578063248a9ca31161029c578063248a9ca3146103c55780632a55205a146103d85780632f2ff15d146103f95761030a565b80631f72d83114610397578063206b60f9146103aa57806323b872dd146103b25761030a565b8063081812fc116102f3578063081812fc1461034d578063095ea7b31461036d57806318160ddd146103825761030a565b806301ffc9a71461030f57806306fdde0314610338575b600080fd5b61032261031d366004612cb8565b610621565b60405161032f9190612f6e565b60405180910390f35b61034061064d565b60405161032f9190612f99565b61036061035b366004612c43565b6106e0565b60405161032f9190612e37565b61038061037b366004612be0565b61072c565b005b61038a6107c4565b60405161032f9190612f79565b6103806103a5366004612c43565b6107ca565b61038a6109d6565b6103806103c03660046129ce565b6109fa565b61038a6103d3366004612c43565b610a32565b6103eb6103e6366004612c97565b610a47565b60405161032f929190612e87565b610380610407366004612c73565b610b87565b61038a61041a366004612be0565b610ba9565b61038061042d366004612c73565b610bfb565b610380610c1d565b6103806104483660046129ce565b610c6f565b61038061045b366004612c43565b610c8a565b61038061046e366004612ade565b610cbd565b61038a610481366004612c43565b610f40565b610360610494366004612c43565b610f9b565b6103226104a736600461295e565b610fb6565b610322610fca565b6103606104c2366004612c43565b610fd3565b6103806104d536600461295e565b611008565b61038a6104e836600461295e565b611020565b61038a611064565b61032261106a565b61038061107a565b610380610513366004612c0b565b6110ca565b610360610526366004612c97565b611219565b610322610539366004612c73565b611238565b61038061054c366004612cf0565b611261565b610340611383565b61038a611392565b61038061056f366004612b60565b611397565b610380610582366004612a0e565b611465565b6103406114a4565b61038a611532565b6103406105a5366004612c43565b611538565b61038a6105b8366004612c43565b6115da565b61038a6115f1565b6103806105d3366004612c73565b611615565b61038a61161f565b610340611643565b6103226105f6366004612996565b611652565b610380610609366004612b8d565b611680565b61034061061c366004612c43565b61183a565b600061062c826118a8565b8061064757506001600160e01b0319821663152a902d60e11b145b92915050565b60606002805461065c906139a9565b80601f0160208091040260200160405190810160405280929190818152602001828054610688906139a9565b80156106d55780601f106106aa576101008083540402835291602001916106d5565b820191906000526020600020905b8154815290600101906020018083116106b857829003601f168201915b505050505090505b90565b60006106eb826118b3565b6107105760405162461bcd60e51b81526004016107079061351a565b60405180910390fd5b506000908152600660205260409020546001600160a01b031690565b600061073782610fd3565b9050806001600160a01b0316836001600160a01b0316141561076b5760405162461bcd60e51b815260040161070790613620565b806001600160a01b031661077d6118d0565b6001600160a01b031614806107995750610799816105f66118d0565b6107b55760405162461bcd60e51b8152600401610707906132c1565b6107bf83836118df565b505050565b600a5490565b6010546040805163a217fddf60e01b815290516001600160a01b03909216916391d1485491839163a217fddf91600480820192602092909190829003018186803b15801561081757600080fd5b505afa15801561082b573d6000803e3d6000fd5b505050506040513d601f19601f8201168201806040525081019061084f9190612c5b565b6108576118d0565b6040518363ffffffff1660e01b8152600401610874929190612f82565b60206040518083038186803b15801561088c57600080fd5b505afa1580156108a0573d6000803e3d6000fd5b505050506040513d601f19601f820116820180604052508101906108c49190612c27565b6108e05760405162461bcd60e51b8152600401610707906135c3565b601060009054906101000a90046001600160a01b03166001600160a01b031663fd967f476040518163ffffffff1660e01b815260040160206040518083038186803b15801561092e57600080fd5b505afa158015610942573d6000803e3d6000fd5b505050506040513d601f19601f820116820180604052508101906109669190612d30565b6fffffffffffffffffffffffffffffffff1681106109965760405162461bcd60e51b815260040161070790613661565b60158190556040517f244ea8d7627f5a08f4299862bd5a45752842c183aee5b0fb0d1e4887bfa605b3906109cb908390612f79565b60405180910390a150565b7f8502233096d909befbda0999bb8ea2f3a6be3c138b9fbf003752a4c8bce86f6c81565b610a0b610a056118d0565b8261194d565b610a275760405162461bcd60e51b8152600401610707906136be565b6107bf8383836119d2565b60009081526020819052604090206001015490565b60105460405163f2aab4b360e01b815260009182916001600160a01b039091169063f2aab4b390610a7c903090600401612e37565b60206040518083038186803b158015610a9457600080fd5b505afa158015610aa8573d6000803e3d6000fd5b505050506040513d601f19601f82011682018060405250810190610acc919061297a565b9150601060009054906101000a90046001600160a01b03166001600160a01b031663fd967f476040518163ffffffff1660e01b815260040160206040518083038186803b158015610b1c57600080fd5b505afa158015610b30573d6000803e3d6000fd5b505050506040513d601f19601f82011682018060405250810190610b549190612d30565b6fffffffffffffffffffffffffffffffff1660155484610b749190613930565b610b7e9190613910565b90509250929050565b610b918282611aff565b60008281526001602052604090206107bf908261188f565b6000610bb483611020565b8210610bd25760405162461bcd60e51b815260040161070790613075565b506001600160a01b03919091166000908152600860209081526040808320938352929052205490565b610c058282611b23565b60008281526001602052604090206107bf9082611b65565b610c497f65d7a28e3265b37a6474929f336521b332c1681b933f6cb9f3376673440d862a6105396118d0565b610c655760405162461bcd60e51b8152600401610707906137d5565b610c6d611b7a565b565b6107bf83838360405180602001604052806000815250611465565b610c95610a056118d0565b610cb15760405162461bcd60e51b815260040161070790613778565b610cba81611be8565b50565b601060009054906101000a90046001600160a01b03166001600160a01b0316639d2f83f06040518163ffffffff1660e01b815260040160206040518083038186803b158015610d0b57600080fd5b505afa158015610d1f573d6000803e3d6000fd5b505050506040513d601f19601f82011682018060405250810190610d439190612c27565b15610d605760405162461bcd60e51b8152600401610707906133d8565b610d8c7f9f2df0fed2c77648de5860a4cc508cd0818c85b8b8a1ab4ceeef8d981c8956a66105396118d0565b610da85760405162461bcd60e51b8152600401610707906134d8565b60008167ffffffffffffffff811115610dd157634e487b7160e01b600052604160045260246000fd5b604051908082528060200260200182016040528015610dfa578160200160208202803683370190505b506011549091506000610e0b6118d0565b905060005b84811015610ee15782848281518110610e3957634e487b7160e01b600052603260045260246000fd5b602002602001018181525050858582818110610e6557634e487b7160e01b600052603260045260246000fd5b9050602002810190610e7791906138b3565b6000858152601360205260409020610e9092909161287e565b50600083815260146020526040902080546001600160a01b0319166001600160a01b038416179055610ec28784611c8f565b610ecd6001846138f8565b925080610ed9816139e4565b915050610e10565b5081601181905550856001600160a01b0316816001600160a01b03167f2a7af4d3b262c3e3d51c600cdf7a940c9aba3fedcc85148aeda266cc4c4a2f33858888604051610f3093929190612ea0565b60405180910390a3505050505050565b6000610f4a6107c4565b8210610f685760405162461bcd60e51b81526004016107079061371b565b600a8281548110610f8957634e487b7160e01b600052603260045260246000fd5b90600052602060002001549050919050565b6014602052600090815260409020546001600160a01b031681565b600f546001600160a01b0390811691161490565b600c5460ff1690565b6000818152600460205260408120546001600160a01b0316806106475760405162461bcd60e51b81526004016107079061337b565b60405162461bcd60e51b81526004016107079061346c565b60006001600160a01b0382166110485760405162461bcd60e51b81526004016107079061331e565b506001600160a01b031660009081526005602052604090205490565b60115481565b600f54600160a01b900460ff1681565b6110a67f65d7a28e3265b37a6474929f336521b332c1681b933f6cb9f3376673440d862a6105396118d0565b6110c25760405162461bcd60e51b815260040161070790613166565b610c6d611d6e565b6010546040805163a217fddf60e01b815290516001600160a01b03909216916391d1485491839163a217fddf91600480820192602092909190829003018186803b15801561111757600080fd5b505afa15801561112b573d6000803e3d6000fd5b505050506040513d601f19601f8201168201806040525081019061114f9190612c5b565b6111576118d0565b6040518363ffffffff1660e01b8152600401611174929190612f82565b60206040518083038186803b15801561118c57600080fd5b505afa1580156111a0573d6000803e3d6000fd5b505050506040513d601f19601f820116820180604052508101906111c49190612c27565b6111e05760405162461bcd60e51b8152600401610707906135c3565b600f8054911515600160a01b027fffffffffffffffffffffff00ffffffffffffffffffffffffffffffffffffffff909216919091179055565b60008281526001602052604081206112319083611dc9565b9392505050565b6000918252602082815260408084206001600160a01b0393909316845291905290205460ff1690565b6010546040805163a217fddf60e01b815290516001600160a01b03909216916391d1485491839163a217fddf91600480820192602092909190829003018186803b1580156112ae57600080fd5b505afa1580156112c2573d6000803e3d6000fd5b505050506040513d601f19601f820116820180604052508101906112e69190612c5b565b6112ee6118d0565b6040518363ffffffff1660e01b815260040161130b929190612f82565b60206040518083038186803b15801561132357600080fd5b505afa158015611337573d6000803e3d6000fd5b505050506040513d601f19601f8201168201806040525081019061135b9190612c27565b6113775760405162461bcd60e51b8152600401610707906135c3565b6107bf6012838361287e565b60606003805461065c906139a9565b600081565b61139f6118d0565b6001600160a01b0316826001600160a01b031614156113d05760405162461bcd60e51b815260040161070790613207565b80600760006113dd6118d0565b6001600160a01b03908116825260208083019390935260409182016000908120918716808252919093529120805460ff1916921515929092179091556114216118d0565b6001600160a01b03167f17307eab39ab6107e8899845ad3d59bd9653f200f220920489ca2b5937696c31836040516114599190612f6e565b60405180910390a35050565b6114766114706118d0565b8361194d565b6114925760405162461bcd60e51b8152600401610707906136be565b61149e84848484611dd5565b50505050565b601280546114b1906139a9565b80601f01602080910402602001604051908101604052809291908181526020018280546114dd906139a9565b801561152a5780601f106114ff5761010080835404028352916020019161152a565b820191906000526020600020905b81548152906001019060200180831161150d57829003601f168201915b505050505081565b60155481565b6000818152601360205260409020805460609190611555906139a9565b80601f0160208091040260200160405190810160405280929190818152602001828054611581906139a9565b80156115ce5780601f106115a3576101008083540402835291602001916115ce565b820191906000526020600020905b8154815290600101906020018083116115b157829003601f168201915b50505050509050919050565b600081815260016020526040812061064790611e08565b7f9f2df0fed2c77648de5860a4cc508cd0818c85b8b8a1ab4ceeef8d981c8956a681565b610c058282611e13565b7f65d7a28e3265b37a6474929f336521b332c1681b933f6cb9f3376673440d862a81565b60606012805461065c906139a9565b6001600160a01b03918216600090815260076020908152604080832093909416825291909152205460ff1690565b601060009054906101000a90046001600160a01b03166001600160a01b0316639d2f83f06040518163ffffffff1660e01b815260040160206040518083038186803b1580156116ce57600080fd5b505afa1580156116e2573d6000803e3d6000fd5b505050506040513d601f19601f820116820180604052508101906117069190612c27565b156117235760405162461bcd60e51b8152600401610707906133d8565b61174f7f9f2df0fed2c77648de5860a4cc508cd0818c85b8b8a1ab4ceeef8d981c8956a66105396118d0565b61176b5760405162461bcd60e51b8152600401610707906134d8565b601154600081815260136020526040902061178790848461287e565b506117906118d0565b600082815260146020526040902080546001600160a01b0319166001600160a01b03929092169190911790556117c68482611c8f565b6001601160008282546117d991906138f8565b90915550506001600160a01b0384166117f06118d0565b6001600160a01b03167fafe8c5a4c36942a61550534b714a0076ab46ef8ef23e361572aad8b7ca2ac27d83868660405161182c93929190613890565b60405180910390a350505050565b601360205260009081526040902080546114b1906139a9565b600061185e33610fb6565b15611872575060131936013560601c6106dd565b61187a6118a4565b90506106dd565b61188b8282611e32565b5050565b6000611231836001600160a01b038416611eb7565b3390565b600061064782611f01565b6000908152600460205260409020546001600160a01b0316151590565b60006118da611853565b905090565b600081815260066020526040902080546001600160a01b0319166001600160a01b038416908117909155819061191482610fd3565b6001600160a01b03167f8c5be1e5ebec7d5bd14f71427d1e84f3dd0314c0f7b2291e5b200ac8c7c3b92560405160405180910390a45050565b6000611958826118b3565b6119745760405162461bcd60e51b81526004016107079061323e565b600061197f83610fd3565b9050806001600160a01b0316846001600160a01b031614806119ba5750836001600160a01b03166119af846106e0565b6001600160a01b0316145b806119ca57506119ca8185611652565b949350505050565b826001600160a01b03166119e582610fd3565b6001600160a01b031614611a0b5760405162461bcd60e51b815260040161070790613566565b6001600160a01b038216611a315760405162461bcd60e51b8152600401610707906131c3565b611a3c838383611f26565b611a476000826118df565b6001600160a01b0383166000908152600560205260408120805460019290611a7090849061394f565b90915550506001600160a01b0382166000908152600560205260408120805460019290611a9e9084906138f8565b909155505060008181526004602052604080822080546001600160a01b0319166001600160a01b0386811691821790925591518493918716917fddf252ad1be2c89b69c2b068fc378daa952ba7f163c4a11628f55a4df523b3ef91a4505050565b611b0882610a32565b611b1981611b146118d0565b611fe1565b6107bf8383611e32565b611b2b6118d0565b6001600160a01b0316816001600160a01b031614611b5b5760405162461bcd60e51b815260040161070790613833565b61188b8282612045565b6000611231836001600160a01b0384166120c8565b611b82610fca565b611b9e5760405162461bcd60e51b81526004016107079061303e565b600c805460ff191690557f5db9ee0a495bf2e6ff9c91a7834c1ba4fdd244a5e8aa4e537bd38aeae4b073aa611bd16118d0565b604051611bde9190612e37565b60405180910390a1565b6000611bf382610fd3565b9050611c0181600084611f26565b611c0c6000836118df565b6001600160a01b0381166000908152600560205260408120805460019290611c3590849061394f565b909155505060008281526004602052604080822080546001600160a01b0319169055518391906001600160a01b038416907fddf252ad1be2c89b69c2b068fc378daa952ba7f163c4a11628f55a4df523b3ef908390a45050565b6001600160a01b038216611cb55760405162461bcd60e51b8152600401610707906134a3565b611cbe816118b3565b15611cdb5760405162461bcd60e51b81526004016107079061312f565b611ce760008383611f26565b6001600160a01b0382166000908152600560205260408120805460019290611d109084906138f8565b909155505060008181526004602052604080822080546001600160a01b0319166001600160a01b03861690811790915590518392907fddf252ad1be2c89b69c2b068fc378daa952ba7f163c4a11628f55a4df523b3ef908290a45050565b611d76610fca565b15611d935760405162461bcd60e51b81526004016107079061328a565b600c805460ff191660011790557f62e78cea01bee320cd4e420270b5ea74000d11b0c9f74754ebdbfc544b05a258611bd16118d0565b600061123183836121e5565b611de08484846119d2565b611dec8484848461221d565b61149e5760405162461bcd60e51b8152600401610707906130d2565b600061064782612338565b611e1c82610a32565b611e2881611b146118d0565b6107bf8383612045565b611e3c8282611238565b61188b576000828152602081815260408083206001600160a01b03851684529091529020805460ff19166001179055611e736118d0565b6001600160a01b0316816001600160a01b0316837f2f8788117e7eff1d82e926ec794901d17c78024a50270940304540a733656f0d60405160405180910390a45050565b6000611ec3838361233c565b611ef957508154600181810184556000848152602080822090930184905584548482528286019093526040902091909155610647565b506000610647565b60006001600160e01b0319821663780e9d6360e01b1480610647575061064782612354565b611f31838383612394565b600f54600160a01b900460ff168015611f5257506001600160a01b03831615155b8015611f6657506001600160a01b03821615155b156107bf57611f957f8502233096d909befbda0999bb8ea2f3a6be3c138b9fbf003752a4c8bce86f6c84611238565b80611fc55750611fc57f8502233096d909befbda0999bb8ea2f3a6be3c138b9fbf003752a4c8bce86f6c83611238565b6107bf5760405162461bcd60e51b81526004016107079061340f565b611feb8282611238565b61188b57612003816001600160a01b0316601461239f565b61200e83602061239f565b60405160200161201f929190612db6565b60408051601f198184030181529082905262461bcd60e51b825261070791600401612f99565b61204f8282611238565b1561188b576000828152602081815260408083206001600160a01b03851684529091529020805460ff191690556120846118d0565b6001600160a01b0316816001600160a01b0316837ff6391f5c32d9c69d2a47ea670b442974b53935d1edc7fd64eb21e047a839171b60405160405180910390a45050565b600081815260018301602052604081205480156121db5760006120ec60018361394f565b85549091506000906121009060019061394f565b905081811461218157600086600001828154811061212e57634e487b7160e01b600052603260045260246000fd5b906000526020600020015490508087600001848154811061215f57634e487b7160e01b600052603260045260246000fd5b6000918252602080832090910192909255918252600188019052604090208390555b85548690806121a057634e487b7160e01b600052603160045260246000fd5b600190038181906000526020600020016000905590558560010160008681526020019081526020016000206000905560019350505050610647565b6000915050610647565b600082600001828154811061220a57634e487b7160e01b600052603260045260246000fd5b9060005260206000200154905092915050565b6000612231846001600160a01b031661255e565b1561232d57836001600160a01b031663150b7a0261224d6118d0565b8786866040518563ffffffff1660e01b815260040161226f9493929190612e4b565b602060405180830381600087803b15801561228957600080fd5b505af19250505080156122b9575060408051601f3d908101601f191682019092526122b691810190612cd4565b60015b612313573d8080156122e7576040519150601f19603f3d011682016040523d82523d6000602084013e6122ec565b606091505b50805161230b5760405162461bcd60e51b8152600401610707906130d2565b805181602001fd5b6001600160e01b031916630a85bd0160e11b1490506119ca565b506001949350505050565b5490565b60009081526001919091016020526040902054151590565b60006001600160e01b031982166380ac58cd60e01b148061238557506001600160e01b03198216635b5e139f60e01b145b80610647575061064782612564565b6107bf838383612589565b606060006123ae836002613930565b6123b99060026138f8565b67ffffffffffffffff8111156123df57634e487b7160e01b600052604160045260246000fd5b6040519080825280601f01601f191660200182016040528015612409576020820181803683370190505b509050600360fc1b8160008151811061243257634e487b7160e01b600052603260045260246000fd5b60200101906001600160f81b031916908160001a905350600f60fb1b8160018151811061246f57634e487b7160e01b600052603260045260246000fd5b60200101906001600160f81b031916908160001a9053506000612493846002613930565b61249e9060016138f8565b90505b600181111561253f577f303132333435363738396162636465660000000000000000000000000000000085600f16601081106124ed57634e487b7160e01b600052603260045260246000fd5b1a60f81b82828151811061251157634e487b7160e01b600052603260045260246000fd5b60200101906001600160f81b031916908160001a90535060049490941c9361253881613992565b90506124a1565b5083156112315760405162461bcd60e51b815260040161070790612fac565b3b151590565b60006001600160e01b03198216635a05180f60e01b14806106475750610647826125b9565b6125948383836125de565b61259c610fca565b156107bf5760405162461bcd60e51b815260040161070790612fe1565b60006001600160e01b03198216637965db0b60e01b1480610647575061064782612667565b6125e98383836107bf565b6001600160a01b0383166126055761260081612680565b612628565b816001600160a01b0316836001600160a01b0316146126285761262883826126c4565b6001600160a01b0382166126445761263f81612761565b6107bf565b826001600160a01b0316826001600160a01b0316146107bf576107bf828261283a565b6001600160e01b031981166301ffc9a760e01b14919050565b600a80546000838152600b60205260408120829055600182018355919091527fc65a7bb8d6351c1cf70c95a316cc6a92839c986682d98bc35f958f4883f9d2a80155565b600060016126d184611020565b6126db919061394f565b60008381526009602052604090205490915080821461272e576001600160a01b03841660009081526008602090815260408083208584528252808320548484528184208190558352600990915290208190555b5060009182526009602090815260408084208490556001600160a01b039094168352600881528383209183525290812055565b600a546000906127739060019061394f565b6000838152600b6020526040812054600a80549394509092849081106127a957634e487b7160e01b600052603260045260246000fd5b9060005260206000200154905080600a83815481106127d857634e487b7160e01b600052603260045260246000fd5b6000918252602080832090910192909255828152600b9091526040808220849055858252812055600a80548061281e57634e487b7160e01b600052603160045260246000fd5b6001900381819060005260206000200160009055905550505050565b600061284583611020565b6001600160a01b039093166000908152600860209081526040808320868452825280832085905593825260099052919091209190915550565b82805461288a906139a9565b90600052602060002090601f0160209004810192826128ac57600085556128f2565b82601f106128c55782800160ff198235161785556128f2565b828001600101855582156128f2579182015b828111156128f25782358255916020019190600101906128d7565b506128fe929150612902565b5090565b5b808211156128fe5760008155600101612903565b60008083601f840112612928578182fd5b50813567ffffffffffffffff81111561293f578182fd5b60208301915083602082850101111561295757600080fd5b9250929050565b60006020828403121561296f578081fd5b813561123181613a2b565b60006020828403121561298b578081fd5b815161123181613a2b565b600080604083850312156129a8578081fd5b82356129b381613a2b565b915060208301356129c381613a2b565b809150509250929050565b6000806000606084860312156129e2578081fd5b83356129ed81613a2b565b925060208401356129fd81613a2b565b929592945050506040919091013590565b60008060008060808587031215612a23578081fd5b8435612a2e81613a2b565b9350602085810135612a3f81613a2b565b935060408601359250606086013567ffffffffffffffff80821115612a62578384fd5b818801915088601f830112612a75578384fd5b813581811115612a8757612a87613a15565b604051601f8201601f1916810185018381118282101715612aaa57612aaa613a15565b60405281815283820185018b1015612ac0578586fd5b81858501868301379081019093019390935250939692955090935050565b600080600060408486031215612af2578283fd5b8335612afd81613a2b565b9250602084013567ffffffffffffffff80821115612b19578384fd5b818601915086601f830112612b2c578384fd5b813581811115612b3a578485fd5b8760208083028501011115612b4d578485fd5b6020830194508093505050509250925092565b60008060408385031215612b72578182fd5b8235612b7d81613a2b565b915060208301356129c381613a40565b600080600060408486031215612ba1578283fd5b8335612bac81613a2b565b9250602084013567ffffffffffffffff811115612bc7578283fd5b612bd386828701612917565b9497909650939450505050565b60008060408385031215612bf2578182fd5b8235612bfd81613a2b565b946020939093013593505050565b600060208284031215612c1c578081fd5b813561123181613a40565b600060208284031215612c38578081fd5b815161123181613a40565b600060208284031215612c54578081fd5b5035919050565b600060208284031215612c6c578081fd5b5051919050565b60008060408385031215612c85578182fd5b8235915060208301356129c381613a2b565b60008060408385031215612ca9578182fd5b50508035926020909101359150565b600060208284031215612cc9578081fd5b813561123181613a4e565b600060208284031215612ce5578081fd5b815161123181613a4e565b60008060208385031215612d02578182fd5b823567ffffffffffffffff811115612d18578283fd5b612d2485828601612917565b90969095509350505050565b600060208284031215612d41578081fd5b81516fffffffffffffffffffffffffffffffff81168114611231578182fd5b60008151808452612d78816020860160208601613966565b601f01601f19169290920160200192915050565b60008284528282602086013780602084860101526020601f19601f85011685010190509392505050565b60007f416363657373436f6e74726f6c3a206163636f756e742000000000000000000082528351612dee816017850160208801613966565b7f206973206d697373696e6720726f6c65200000000000000000000000000000006017918401918201528351612e2b816028840160208801613966565b01602801949350505050565b6001600160a01b0391909116815260200190565b60006001600160a01b03808716835280861660208401525083604083015260806060830152612e7d6080830184612d60565b9695505050505050565b6001600160a01b03929092168252602082015260400190565b604080825284519082018190526000906020906060840190828801845b82811015612ed957815184529284019290840190600101612ebd565b505050838103828501528481528181018583028201830187855b88811015612f5f57848303601f190184528135368b9003601e19018112612f18578788fd5b8a01803567ffffffffffffffff811115612f30578889fd5b8036038c1315612f3e578889fd5b612f4b85828a8501612d8c565b958801959450505090850190600101612ef3565b50909998505050505050505050565b901515815260200190565b90815260200190565b9182526001600160a01b0316602082015260400190565b6000602082526112316020830184612d60565b6020808252818101527f537472696e67733a20686578206c656e67746820696e73756666696369656e74604082015260600190565b6020808252602b908201527f4552433732315061757361626c653a20746f6b656e207472616e73666572207760408201527f68696c6520706175736564000000000000000000000000000000000000000000606082015260800190565b60208082526014908201527f5061757361626c653a206e6f7420706175736564000000000000000000000000604082015260600190565b6020808252602b908201527f455243373231456e756d657261626c653a206f776e657220696e646578206f7560408201527f74206f6620626f756e6473000000000000000000000000000000000000000000606082015260800190565b60208082526032908201527f4552433732313a207472616e7366657220746f206e6f6e20455243373231526560408201527f63656976657220696d706c656d656e7465720000000000000000000000000000606082015260800190565b6020808252601c908201527f4552433732313a20746f6b656e20616c7265616479206d696e74656400000000604082015260600190565b6020808252603e908201527f4552433732315072657365744d696e7465725061757365724175746f49643a2060408201527f6d75737420686176652070617573657220726f6c6520746f2070617573650000606082015260800190565b60208082526024908201527f4552433732313a207472616e7366657220746f20746865207a65726f206164646040820152637265737360e01b606082015260800190565b60208082526019908201527f4552433732313a20617070726f766520746f2063616c6c657200000000000000604082015260600190565b6020808252602c908201527f4552433732313a206f70657261746f7220717565727920666f72206e6f6e657860408201526b34b9ba32b73a103a37b5b2b760a11b606082015260800190565b60208082526010908201527f5061757361626c653a2070617573656400000000000000000000000000000000604082015260600190565b60208082526038908201527f4552433732313a20617070726f76652063616c6c6572206973206e6f74206f7760408201527f6e6572206e6f7220617070726f76656420666f7220616c6c0000000000000000606082015260800190565b6020808252602a908201527f4552433732313a2062616c616e636520717565727920666f7220746865207a6560408201527f726f206164647265737300000000000000000000000000000000000000000000606082015260800190565b60208082526029908201527f4552433732313a206f776e657220717565727920666f72206e6f6e657869737460408201527f656e7420746f6b656e0000000000000000000000000000000000000000000000606082015260800190565b6020808252601c908201527f4e46543a205468652070726f746f636f6c206973207061757365642e00000000604082015260600190565b60208082526036908201527f4e46543a205472616e736665727320617265207265737472696374656420746f60408201527f205452414e534645525f524f4c4520686f6c6465727300000000000000000000606082015260800190565b6020808252601d908201527f4e46543732313a2043616c6c206d696e744e465420696e73746561642e000000604082015260600190565b6020808252818101527f4552433732313a206d696e7420746f20746865207a65726f2061646472657373604082015260600190565b60208082526022908201527f4e46543a206d7573742068617665206d696e74657220726f6c6520746f206d696040820152611b9d60f21b606082015260800190565b6020808252602c908201527f4552433732313a20617070726f76656420717565727920666f72206e6f6e657860408201526b34b9ba32b73a103a37b5b2b760a11b606082015260800190565b60208082526029908201527f4552433732313a207472616e73666572206f6620746f6b656e2074686174206960408201527f73206e6f74206f776e0000000000000000000000000000000000000000000000606082015260800190565b60208082526032908201527f4e46543a206f6e6c7920612070726f746f636f6c2061646d696e2063616e206360408201527f616c6c20746869732066756e6374696f6e2e0000000000000000000000000000606082015260800190565b60208082526021908201527f4552433732313a20617070726f76616c20746f2063757272656e74206f776e656040820152603960f91b606082015260800190565b6020808252602a908201527f4e46543a204270732070726f7669646564206d757374206265206c657373207460408201527f68616e2031302c30303000000000000000000000000000000000000000000000606082015260800190565b60208082526031908201527f4552433732313a207472616e736665722063616c6c6572206973206e6f74206f60408201527f776e6572206e6f7220617070726f766564000000000000000000000000000000606082015260800190565b6020808252602c908201527f455243373231456e756d657261626c653a20676c6f62616c20696e646578206f60408201527f7574206f6620626f756e64730000000000000000000000000000000000000000606082015260800190565b60208082526030908201527f4552433732314275726e61626c653a2063616c6c6572206973206e6f74206f7760408201527f6e6572206e6f7220617070726f76656400000000000000000000000000000000606082015260800190565b602080825260409082018190527f4552433732315072657365744d696e7465725061757365724175746f49643a20908201527f6d75737420686176652070617573657220726f6c6520746f20756e7061757365606082015260800190565b6020808252602f908201527f416363657373436f6e74726f6c3a2063616e206f6e6c792072656e6f756e636560408201527f20726f6c657320666f722073656c660000000000000000000000000000000000606082015260800190565b6000848252604060208301526138aa604083018486612d8c565b95945050505050565b6000808335601e198436030181126138c9578283fd5b83018035915067ffffffffffffffff8211156138e3578283fd5b60200191503681900382131561295757600080fd5b6000821982111561390b5761390b6139ff565b500190565b60008261392b57634e487b7160e01b81526012600452602481fd5b500490565b600081600019048311821515161561394a5761394a6139ff565b500290565b600082821015613961576139616139ff565b500390565b60005b83811015613981578181015183820152602001613969565b8381111561149e5750506000910152565b6000816139a1576139a16139ff565b506000190190565b6002810460018216806139bd57607f821691505b602082108114156139de57634e487b7160e01b600052602260045260246000fd5b50919050565b60006000198214156139f8576139f86139ff565b5060010190565b634e487b7160e01b600052601160045260246000fd5b634e487b7160e01b600052604160045260246000fd5b6001600160a01b0381168114610cba57600080fd5b8015158114610cba57600080fd5b6001600160e01b031981168114610cba57600080fdfea164736f6c6343000800000a",
  "linkReferences": {},
  "deployedLinkReferences": {}
}