{
  "_format": "hh-sol-artifact-1",
  "contractName": "NFT",
  "sourceName": "contracts/NFT.sol",
  "abi": [
    {
      "inputs": [
        {
          "internalType": "address payable",
          "name": "_controlCenter",
          "type": "address"
        },
        {
          "internalType": "string",
          "name": "_name",
          "type": "string"
        },
        {
          "internalType": "string",
          "name": "_symbol",
          "type": "string"
        },
        {
          "internalType": "address",
          "name": "_trustedForwarder",
          "type": "address"
        },
        {
          "internalType": "string",
          "name": "_uri",
          "type": "string"
        }
      ],
      "stateMutability": "nonpayable",
      "type": "constructor"
    },
    {
      "anonymous": false,
      "inputs": [
        {
          "indexed": true,
          "internalType": "address",
          "name": "owner",
          "type": "address"
        },
        {
          "indexed": true,
          "internalType": "address",
          "name": "approved",
          "type": "address"
        },
        {
          "indexed": true,
          "internalType": "uint256",
          "name": "tokenId",
          "type": "uint256"
        }
      ],
      "name": "Approval",
      "type": "event"
    },
    {
      "anonymous": false,
      "inputs": [
        {
          "indexed": true,
          "internalType": "address",
          "name": "owner",
          "type": "address"
        },
        {
          "indexed": true,
          "internalType": "address",
          "name": "operator",
          "type": "address"
        },
        {
          "indexed": false,
          "internalType": "bool",
          "name": "approved",
          "type": "bool"
        }
      ],
      "name": "ApprovalForAll",
      "type": "event"
    },
    {
      "anonymous": false,
      "inputs": [
        {
          "indexed": true,
          "internalType": "address",
          "name": "creator",
          "type": "address"
        },
        {
          "indexed": true,
          "internalType": "address",
          "name": "to",
          "type": "address"
        },
        {
          "indexed": false,
          "internalType": "uint256",
          "name": "tokenId",
          "type": "uint256"
        },
        {
          "indexed": false,
          "internalType": "string",
          "name": "tokenURI",
          "type": "string"
        }
      ],
      "name": "Minted",
      "type": "event"
    },
    {
      "anonymous": false,
      "inputs": [
        {
          "indexed": true,
          "internalType": "address",
          "name": "creator",
          "type": "address"
        },
        {
          "indexed": true,
          "internalType": "address",
          "name": "to",
          "type": "address"
        },
        {
          "indexed": false,
          "internalType": "uint256[]",
          "name": "tokenIds",
          "type": "uint256[]"
        },
        {
          "indexed": false,
          "internalType": "string[]",
          "name": "tokenURI",
          "type": "string[]"
        }
      ],
      "name": "MintedBatch",
      "type": "event"
    },
    {
      "anonymous": false,
      "inputs": [
        {
          "indexed": false,
          "internalType": "address",
          "name": "account",
          "type": "address"
        }
      ],
      "name": "Paused",
      "type": "event"
    },
    {
      "anonymous": false,
      "inputs": [
        {
          "indexed": true,
          "internalType": "bytes32",
          "name": "role",
          "type": "bytes32"
        },
        {
          "indexed": true,
          "internalType": "bytes32",
          "name": "previousAdminRole",
          "type": "bytes32"
        },
        {
          "indexed": true,
          "internalType": "bytes32",
          "name": "newAdminRole",
          "type": "bytes32"
        }
      ],
      "name": "RoleAdminChanged",
      "type": "event"
    },
    {
      "anonymous": false,
      "inputs": [
        {
          "indexed": true,
          "internalType": "bytes32",
          "name": "role",
          "type": "bytes32"
        },
        {
          "indexed": true,
          "internalType": "address",
          "name": "account",
          "type": "address"
        },
        {
          "indexed": true,
          "internalType": "address",
          "name": "sender",
          "type": "address"
        }
      ],
      "name": "RoleGranted",
      "type": "event"
    },
    {
      "anonymous": false,
      "inputs": [
        {
          "indexed": true,
          "internalType": "bytes32",
          "name": "role",
          "type": "bytes32"
        },
        {
          "indexed": true,
          "internalType": "address",
          "name": "account",
          "type": "address"
        },
        {
          "indexed": true,
          "internalType": "address",
          "name": "sender",
          "type": "address"
        }
      ],
      "name": "RoleRevoked",
      "type": "event"
    },
    {
      "anonymous": false,
      "inputs": [
        {
          "indexed": false,
          "internalType": "uint256",
          "name": "royaltyBps",
          "type": "uint256"
        }
      ],
      "name": "RoyaltyUpdated",
      "type": "event"
    },
    {
      "anonymous": false,
      "inputs": [
        {
          "indexed": true,
          "internalType": "address",
          "name": "from",
          "type": "address"
        },
        {
          "indexed": true,
          "internalType": "address",
          "name": "to",
          "type": "address"
        },
        {
          "indexed": true,
          "internalType": "uint256",
          "name": "tokenId",
          "type": "uint256"
        }
      ],
      "name": "Transfer",
      "type": "event"
    },
    {
      "anonymous": false,
      "inputs": [
        {
          "indexed": false,
          "internalType": "address",
          "name": "account",
          "type": "address"
        }
      ],
      "name": "Unpaused",
      "type": "event"
    },
    {
      "inputs": [],
      "name": "DEFAULT_ADMIN_ROLE",
      "outputs": [
        {
          "internalType": "bytes32",
          "name": "",
          "type": "bytes32"
        }
      ],
      "stateMutability": "view",
      "type": "function"
    },
    {
      "inputs": [],
      "name": "MINTER_ROLE",
      "outputs": [
        {
          "internalType": "bytes32",
          "name": "",
          "type": "bytes32"
        }
      ],
      "stateMutability": "view",
      "type": "function"
    },
    {
      "inputs": [],
      "name": "PAUSER_ROLE",
      "outputs": [
        {
          "internalType": "bytes32",
          "name": "",
          "type": "bytes32"
        }
      ],
      "stateMutability": "view",
      "type": "function"
    },
    {
      "inputs": [],
      "name": "TRANSFER_ROLE",
      "outputs": [
        {
          "internalType": "bytes32",
          "name": "",
          "type": "bytes32"
        }
      ],
      "stateMutability": "view",
      "type": "function"
    },
    {
      "inputs": [],
      "name": "_contractURI",
      "outputs": [
        {
          "internalType": "string",
          "name": "",
          "type": "string"
        }
      ],
      "stateMutability": "view",
      "type": "function"
    },
    {
      "inputs": [
        {
          "internalType": "address",
          "name": "to",
          "type": "address"
        },
        {
          "internalType": "uint256",
          "name": "tokenId",
          "type": "uint256"
        }
      ],
      "name": "approve",
      "outputs": [],
      "stateMutability": "nonpayable",
      "type": "function"
    },
    {
      "inputs": [
        {
          "internalType": "address",
          "name": "owner",
          "type": "address"
        }
      ],
      "name": "balanceOf",
      "outputs": [
        {
          "internalType": "uint256",
          "name": "",
          "type": "uint256"
        }
      ],
      "stateMutability": "view",
      "type": "function"
    },
    {
      "inputs": [
        {
          "internalType": "uint256",
          "name": "tokenId",
          "type": "uint256"
        }
      ],
      "name": "burn",
      "outputs": [],
      "stateMutability": "nonpayable",
      "type": "function"
    },
    {
      "inputs": [],
      "name": "contractURI",
      "outputs": [
        {
          "internalType": "string",
          "name": "",
          "type": "string"
        }
      ],
      "stateMutability": "view",
      "type": "function"
    },
    {
      "inputs": [
        {
          "internalType": "uint256",
          "name": "",
          "type": "uint256"
        }
      ],
      "name": "creator",
      "outputs": [
        {
          "internalType": "address",
          "name": "",
          "type": "address"
        }
      ],
      "stateMutability": "view",
      "type": "function"
    },
    {
      "inputs": [
        {
          "internalType": "uint256",
          "name": "tokenId",
          "type": "uint256"
        }
      ],
      "name": "getApproved",
      "outputs": [
        {
          "internalType": "address",
          "name": "",
          "type": "address"
        }
      ],
      "stateMutability": "view",
      "type": "function"
    },
    {
      "inputs": [
        {
          "internalType": "bytes32",
          "name": "role",
          "type": "bytes32"
        }
      ],
      "name": "getRoleAdmin",
      "outputs": [
        {
          "internalType": "bytes32",
          "name": "",
          "type": "bytes32"
        }
      ],
      "stateMutability": "view",
      "type": "function"
    },
    {
      "inputs": [
        {
          "internalType": "bytes32",
          "name": "role",
          "type": "bytes32"
        },
        {
          "internalType": "uint256",
          "name": "index",
          "type": "uint256"
        }
      ],
      "name": "getRoleMember",
      "outputs": [
        {
          "internalType": "address",
          "name": "",
          "type": "address"
        }
      ],
      "stateMutability": "view",
      "type": "function"
    },
    {
      "inputs": [
        {
          "internalType": "bytes32",
          "name": "role",
          "type": "bytes32"
        }
      ],
      "name": "getRoleMemberCount",
      "outputs": [
        {
          "internalType": "uint256",
          "name": "",
          "type": "uint256"
        }
      ],
      "stateMutability": "view",
      "type": "function"
    },
    {
      "inputs": [
        {
          "internalType": "bytes32",
          "name": "role",
          "type": "bytes32"
        },
        {
          "internalType": "address",
          "name": "account",
          "type": "address"
        }
      ],
      "name": "grantRole",
      "outputs": [],
      "stateMutability": "nonpayable",
      "type": "function"
    },
    {
      "inputs": [
        {
          "internalType": "bytes32",
          "name": "role",
          "type": "bytes32"
        },
        {
          "internalType": "address",
          "name": "account",
          "type": "address"
        }
      ],
      "name": "hasRole",
      "outputs": [
        {
          "internalType": "bool",
          "name": "",
          "type": "bool"
        }
      ],
      "stateMutability": "view",
      "type": "function"
    },
    {
      "inputs": [
        {
          "internalType": "address",
          "name": "owner",
          "type": "address"
        },
        {
          "internalType": "address",
          "name": "operator",
          "type": "address"
        }
      ],
      "name": "isApprovedForAll",
      "outputs": [
        {
          "internalType": "bool",
          "name": "",
          "type": "bool"
        }
      ],
      "stateMutability": "view",
      "type": "function"
    },
    {
      "inputs": [
        {
          "internalType": "address",
          "name": "forwarder",
          "type": "address"
        }
      ],
      "name": "isTrustedForwarder",
      "outputs": [
        {
          "internalType": "bool",
          "name": "",
          "type": "bool"
        }
      ],
      "stateMutability": "view",
      "type": "function"
    },
    {
      "inputs": [
        {
          "internalType": "address",
          "name": "",
          "type": "address"
        }
      ],
      "name": "mint",
      "outputs": [],
      "stateMutability": "pure",
      "type": "function"
    },
    {
      "inputs": [
        {
          "internalType": "address",
          "name": "_to",
          "type": "address"
        },
        {
          "internalType": "string",
          "name": "_uri",
          "type": "string"
        }
      ],
      "name": "mintNFT",
      "outputs": [],
      "stateMutability": "nonpayable",
      "type": "function"
    },
    {
      "inputs": [
        {
          "internalType": "address",
          "name": "_to",
          "type": "address"
        },
        {
          "internalType": "string[]",
          "name": "_uris",
          "type": "string[]"
        }
      ],
      "name": "mintNFTBatch",
      "outputs": [],
      "stateMutability": "nonpayable",
      "type": "function"
    },
    {
      "inputs": [
        {
          "internalType": "bytes[]",
          "name": "data",
          "type": "bytes[]"
        }
      ],
      "name": "multicall",
      "outputs": [
        {
          "internalType": "bytes[]",
          "name": "results",
          "type": "bytes[]"
        }
      ],
      "stateMutability": "nonpayable",
      "type": "function"
    },
    {
      "inputs": [],
      "name": "name",
      "outputs": [
        {
          "internalType": "string",
          "name": "",
          "type": "string"
        }
      ],
      "stateMutability": "view",
      "type": "function"
    },
    {
      "inputs": [],
      "name": "nextTokenId",
      "outputs": [
        {
          "internalType": "uint256",
          "name": "",
          "type": "uint256"
        }
      ],
      "stateMutability": "view",
      "type": "function"
    },
    {
      "inputs": [
        {
          "internalType": "uint256",
          "name": "",
          "type": "uint256"
        }
      ],
      "name": "nftURI",
      "outputs": [
        {
          "internalType": "string",
          "name": "",
          "type": "string"
        }
      ],
      "stateMutability": "view",
      "type": "function"
    },
    {
      "inputs": [
        {
          "internalType": "uint256",
          "name": "tokenId",
          "type": "uint256"
        }
      ],
      "name": "ownerOf",
      "outputs": [
        {
          "internalType": "address",
          "name": "",
          "type": "address"
        }
      ],
      "stateMutability": "view",
      "type": "function"
    },
    {
      "inputs": [],
      "name": "pause",
      "outputs": [],
      "stateMutability": "nonpayable",
      "type": "function"
    },
    {
      "inputs": [],
      "name": "paused",
      "outputs": [
        {
          "internalType": "bool",
          "name": "",
          "type": "bool"
        }
      ],
      "stateMutability": "view",
      "type": "function"
    },
    {
      "inputs": [
        {
          "internalType": "bytes32",
          "name": "role",
          "type": "bytes32"
        },
        {
          "internalType": "address",
          "name": "account",
          "type": "address"
        }
      ],
      "name": "renounceRole",
      "outputs": [],
      "stateMutability": "nonpayable",
      "type": "function"
    },
    {
      "inputs": [
        {
          "internalType": "bytes32",
          "name": "role",
          "type": "bytes32"
        },
        {
          "internalType": "address",
          "name": "account",
          "type": "address"
        }
      ],
      "name": "revokeRole",
      "outputs": [],
      "stateMutability": "nonpayable",
      "type": "function"
    },
    {
      "inputs": [],
      "name": "royaltyBps",
      "outputs": [
        {
          "internalType": "uint256",
          "name": "",
          "type": "uint256"
        }
      ],
      "stateMutability": "view",
      "type": "function"
    },
    {
      "inputs": [
        {
          "internalType": "uint256",
          "name": "",
          "type": "uint256"
        },
        {
          "internalType": "uint256",
          "name": "salePrice",
          "type": "uint256"
        }
      ],
      "name": "royaltyInfo",
      "outputs": [
        {
          "internalType": "address",
          "name": "receiver",
          "type": "address"
        },
        {
          "internalType": "uint256",
          "name": "royaltyAmount",
          "type": "uint256"
        }
      ],
      "stateMutability": "view",
      "type": "function"
    },
    {
      "inputs": [
        {
          "internalType": "address",
          "name": "from",
          "type": "address"
        },
        {
          "internalType": "address",
          "name": "to",
          "type": "address"
        },
        {
          "internalType": "uint256",
          "name": "tokenId",
          "type": "uint256"
        }
      ],
      "name": "safeTransferFrom",
      "outputs": [],
      "stateMutability": "nonpayable",
      "type": "function"
    },
    {
      "inputs": [
        {
          "internalType": "address",
          "name": "from",
          "type": "address"
        },
        {
          "internalType": "address",
          "name": "to",
          "type": "address"
        },
        {
          "internalType": "uint256",
          "name": "tokenId",
          "type": "uint256"
        },
        {
          "internalType": "bytes",
          "name": "_data",
          "type": "bytes"
        }
      ],
      "name": "safeTransferFrom",
      "outputs": [],
      "stateMutability": "nonpayable",
      "type": "function"
    },
    {
      "inputs": [
        {
          "internalType": "address",
          "name": "operator",
          "type": "address"
        },
        {
          "internalType": "bool",
          "name": "approved",
          "type": "bool"
        }
      ],
      "name": "setApprovalForAll",
      "outputs": [],
      "stateMutability": "nonpayable",
      "type": "function"
    },
    {
      "inputs": [
        {
          "internalType": "string",
          "name": "_URI",
          "type": "string"
        }
      ],
      "name": "setContractURI",
      "outputs": [],
      "stateMutability": "nonpayable",
      "type": "function"
    },
    {
      "inputs": [
        {
          "internalType": "bool",
          "name": "_restrictedTransfer",
          "type": "bool"
        }
      ],
      "name": "setRestrictedTransfer",
      "outputs": [],
      "stateMutability": "nonpayable",
      "type": "function"
    },
    {
      "inputs": [
        {
          "internalType": "uint256",
          "name": "_royaltyBps",
          "type": "uint256"
        }
      ],
      "name": "setRoyaltyBps",
      "outputs": [],
      "stateMutability": "nonpayable",
      "type": "function"
    },
    {
      "inputs": [
        {
          "internalType": "bytes4",
          "name": "interfaceId",
          "type": "bytes4"
        }
      ],
      "name": "supportsInterface",
      "outputs": [
        {
          "internalType": "bool",
          "name": "",
          "type": "bool"
        }
      ],
      "stateMutability": "view",
      "type": "function"
    },
    {
      "inputs": [],
      "name": "symbol",
      "outputs": [
        {
          "internalType": "string",
          "name": "",
          "type": "string"
        }
      ],
      "stateMutability": "view",
      "type": "function"
    },
    {
      "inputs": [
        {
          "internalType": "uint256",
          "name": "index",
          "type": "uint256"
        }
      ],
      "name": "tokenByIndex",
      "outputs": [
        {
          "internalType": "uint256",
          "name": "",
          "type": "uint256"
        }
      ],
      "stateMutability": "view",
      "type": "function"
    },
    {
      "inputs": [
        {
          "internalType": "address",
          "name": "owner",
          "type": "address"
        },
        {
          "internalType": "uint256",
          "name": "index",
          "type": "uint256"
        }
      ],
      "name": "tokenOfOwnerByIndex",
      "outputs": [
        {
          "internalType": "uint256",
          "name": "",
          "type": "uint256"
        }
      ],
      "stateMutability": "view",
      "type": "function"
    },
    {
      "inputs": [
        {
          "internalType": "uint256",
          "name": "tokenId",
          "type": "uint256"
        }
      ],
      "name": "tokenURI",
      "outputs": [
        {
          "internalType": "string",
          "name": "",
          "type": "string"
        }
      ],
      "stateMutability": "view",
      "type": "function"
    },
    {
      "inputs": [],
      "name": "totalSupply",
      "outputs": [
        {
          "internalType": "uint256",
          "name": "",
          "type": "uint256"
        }
      ],
      "stateMutability": "view",
      "type": "function"
    },
    {
      "inputs": [
        {
          "internalType": "address",
          "name": "from",
          "type": "address"
        },
        {
          "internalType": "address",
          "name": "to",
          "type": "address"
        },
        {
          "internalType": "uint256",
          "name": "tokenId",
          "type": "uint256"
        }
      ],
      "name": "transferFrom",
      "outputs": [],
      "stateMutability": "nonpayable",
      "type": "function"
    },
    {
      "inputs": [],
      "name": "transfersRestricted",
      "outputs": [
        {
          "internalType": "bool",
          "name": "",
          "type": "bool"
        }
      ],
      "stateMutability": "view",
      "type": "function"
    },
    {
      "inputs": [],
      "name": "unpause",
      "outputs": [],
      "stateMutability": "nonpayable",
      "type": "function"
    }
  ],
  "bytecode": "0x60806040523480156200001157600080fd5b50604051620043d8380380620043d88339810160408190526200003491620004d5565b81848483828281600290805190602001906200005292919062000384565b5080516200006890600390602084019062000384565b5050600c805460ff191690555080516200008a90600e90602084019062000384565b50620000a160006200009b62000182565b6200019f565b620000d07f9f2df0fed2c77648de5860a4cc508cd0818c85b8b8a1ab4ceeef8d981c8956a66200009b62000182565b620000ff7f65d7a28e3265b37a6474929f336521b332c1681b933f6cb9f3376673440d862a6200009b62000182565b5050600f80546001600160a01b03199081166001600160a01b039485161790915560108054909116928816929092179091555080516200014790601290602084019062000384565b50620001777f8502233096d909befbda0999bb8ea2f3a6be3c138b9fbf003752a4c8bce86f6c6200009b62000182565b5050505050620005fa565b600062000199620001e260201b6200199d1760201c565b90505b90565b620001b682826200022260201b620019cb1760201c565b6000828152600160209081526040909120620001dd918390620019d962000232821b17901c565b505050565b6000620001ef3362000252565b1562000205575060131936013560601c6200019c565b6200021a6200026660201b620019ee1760201c565b90506200019c565b6200022e82826200026a565b5050565b600062000249836001600160a01b038416620002f4565b90505b92915050565b600f546001600160a01b0390811691161490565b3390565b62000276828262000343565b6200022e576000828152602081815260408083206001600160a01b03851684529091529020805460ff19166001179055620002b062000182565b6001600160a01b0316816001600160a01b0316837f2f8788117e7eff1d82e926ec794901d17c78024a50270940304540a733656f0d60405160405180910390a45050565b60006200030283836200036c565b6200033a575081546001818101845560008481526020808220909301849055845484825282860190935260409020919091556200024c565b5060006200024c565b6000918252602082815260408084206001600160a01b0393909316845291905290205460ff1690565b60009081526001919091016020526040902054151590565b82805462000392906200058e565b90600052602060002090601f016020900481019282620003b6576000855562000401565b82601f10620003d157805160ff191683800117855562000401565b8280016001018555821562000401579182015b8281111562000401578251825591602001919060010190620003e4565b506200040f92915062000413565b5090565b5b808211156200040f576000815560010162000414565b600082601f8301126200043b578081fd5b81516001600160401b0380821115620004585762000458620005cb565b6040516020601f8401601f1916820181018381118382101715620004805762000480620005cb565b604052838252858401810187101562000497578485fd5b8492505b83831015620004ba57858301810151828401820152918201916200049b565b83831115620004cb57848185840101525b5095945050505050565b600080600080600060a08688031215620004ed578081fd5b8551620004fa81620005e1565b60208701519095506001600160401b038082111562000517578283fd5b6200052589838a016200042a565b955060408801519150808211156200053b578283fd5b6200054989838a016200042a565b9450606088015191506200055d82620005e1565b60808801519193508082111562000572578283fd5b5062000581888289016200042a565b9150509295509295909350565b600281046001821680620005a357607f821691505b60208210811415620005c557634e487b7160e01b600052602260045260246000fd5b50919050565b634e487b7160e01b600052604160045260246000fd5b6001600160a01b0381168114620005f757600080fd5b50565b613dce806200060a6000396000f3fe608060405234801561001057600080fd5b50600436106103155760003560e01c806370a08231116101a7578063b88d4fde116100ee578063d547741f11610097578063e985e9c511610071578063e985e9c514610613578063eacabe1414610626578063efe476871461063957610315565b8063d547741f146105f0578063e63ab1e914610603578063e8a3d4851461060b57610315565b8063c87b56dd116100c8578063c87b56dd146105c2578063ca15c873146105d5578063d5391393146105e857610315565b8063b88d4fde1461059f578063c0e72740146105b2578063c63adb2b146105ba57610315565b806391d1485411610150578063a217fddf1161012a578063a217fddf14610564578063a22cb4651461056c578063ac9650d81461057f57610315565b806391d1485414610536578063938e3d7b1461054957806395d89b411461055c57610315565b80638456cb59116101815780638456cb59146105085780638ba448c2146105105780639010d07c1461052357610315565b806370a08231146104e557806375794a3c146104f85780638423df791461050057610315565b80632f745c591161026b5780634f6ccce7116102145780635c975abb116101ee5780635c975abb146104b75780636352211e146104bf5780636a627842146104d257610315565b80634f6ccce71461047e578063510b515814610491578063572b6c05146104a457610315565b806342842e0e1161024557806342842e0e1461044557806342966c681461045857806349a33a2f1461046b57610315565b80632f745c591461041757806336568abe1461042a5780633f4ba83a1461043d57610315565b80631f72d831116102cd578063248a9ca3116102a7578063248a9ca3146103d05780632a55205a146103e35780632f2ff15d1461040457610315565b80631f72d831146103a2578063206b60f9146103b557806323b872dd146103bd57610315565b8063081812fc116102fe578063081812fc14610358578063095ea7b31461037857806318160ddd1461038d57610315565b806301ffc9a71461031a57806306fdde0314610343575b600080fd5b61032d610328366004612f42565b61064c565b60405161033a919061325e565b60405180910390f35b61034b610678565b60405161033a9190613289565b61036b610366366004612ecd565b61070b565b60405161033a91906130d1565b61038b610386366004612e2a565b610757565b005b6103956107ef565b60405161033a9190613269565b61038b6103b0366004612ecd565b6107f5565b610395610a01565b61038b6103cb366004612c54565b610a25565b6103956103de366004612ecd565b610a5d565b6103f66103f1366004612f21565b610a72565b60405161033a929190613117565b61038b610412366004612efd565b610bb2565b610395610425366004612e2a565b610bd4565b61038b610438366004612efd565b610c26565b61038b610c48565b61038b610453366004612c54565b610c9a565b61038b610466366004612ecd565b610cb5565b61038b610479366004612d64565b610ce8565b61039561048c366004612ecd565b610f6b565b61036b61049f366004612ecd565b610fc6565b61032d6104b2366004612be4565b610fe1565b61032d610ff5565b61036b6104cd366004612ecd565b610ffe565b61038b6104e0366004612be4565b611033565b6103956104f3366004612be4565b61104b565b61039561108f565b61032d611095565b61038b6110a5565b61038b61051e366004612e95565b6110f5565b61036b610531366004612f21565b611244565b61032d610544366004612efd565b611263565b61038b610557366004612f7a565b61128c565b61034b6113ae565b6103956113bd565b61038b61057a366004612db7565b6113c2565b61059261058d366004612e55565b611490565b60405161033a9190613130565b61038b6105ad366004612c94565b6115af565b61034b6115ee565b61039561167c565b61034b6105d0366004612ecd565b611682565b6103956105e3366004612ecd565b611724565b61039561173b565b61038b6105fe366004612efd565b61175f565b610395611769565b61034b61178d565b61032d610621366004612c1c565b61179c565b61038b610634366004612de4565b6117ca565b61034b610647366004612ecd565b611984565b6000610657826119f2565b8061067257506001600160e01b0319821663152a902d60e11b145b92915050565b60606002805461068790613cdf565b80601f01602080910402602001604051908101604052809291908181526020018280546106b390613cdf565b80156107005780601f106106d557610100808354040283529160200191610700565b820191906000526020600020905b8154815290600101906020018083116106e357829003601f168201915b505050505090505b90565b6000610716826119fd565b61073b5760405162461bcd60e51b81526004016107329061380a565b60405180910390fd5b506000908152600660205260409020546001600160a01b031690565b600061076282610ffe565b9050806001600160a01b0316836001600160a01b031614156107965760405162461bcd60e51b815260040161073290613910565b806001600160a01b03166107a8611a1a565b6001600160a01b031614806107c457506107c481610621611a1a565b6107e05760405162461bcd60e51b8152600401610732906135b1565b6107ea8383611a29565b505050565b600a5490565b6010546040805163a217fddf60e01b815290516001600160a01b03909216916391d1485491839163a217fddf91600480820192602092909190829003018186803b15801561084257600080fd5b505afa158015610856573d6000803e3d6000fd5b505050506040513d601f19601f8201168201806040525081019061087a9190612ee5565b610882611a1a565b6040518363ffffffff1660e01b815260040161089f929190613272565b60206040518083038186803b1580156108b757600080fd5b505afa1580156108cb573d6000803e3d6000fd5b505050506040513d601f19601f820116820180604052508101906108ef9190612eb1565b61090b5760405162461bcd60e51b8152600401610732906138b3565b601060009054906101000a90046001600160a01b03166001600160a01b031663fd967f476040518163ffffffff1660e01b815260040160206040518083038186803b15801561095957600080fd5b505afa15801561096d573d6000803e3d6000fd5b505050506040513d601f19601f820116820180604052508101906109919190612fae565b6fffffffffffffffffffffffffffffffff1681106109c15760405162461bcd60e51b815260040161073290613951565b60158190556040517f244ea8d7627f5a08f4299862bd5a45752842c183aee5b0fb0d1e4887bfa605b3906109f6908390613269565b60405180910390a150565b7f8502233096d909befbda0999bb8ea2f3a6be3c138b9fbf003752a4c8bce86f6c81565b610a36610a30611a1a565b82611a97565b610a525760405162461bcd60e51b8152600401610732906139f4565b6107ea838383611b1c565b60009081526020819052604090206001015490565b60105460405163f2aab4b360e01b815260009182916001600160a01b039091169063f2aab4b390610aa79030906004016130d1565b60206040518083038186803b158015610abf57600080fd5b505afa158015610ad3573d6000803e3d6000fd5b505050506040513d601f19601f82011682018060405250810190610af79190612c00565b9150601060009054906101000a90046001600160a01b03166001600160a01b031663fd967f476040518163ffffffff1660e01b815260040160206040518083038186803b158015610b4757600080fd5b505afa158015610b5b573d6000803e3d6000fd5b505050506040513d601f19601f82011682018060405250810190610b7f9190612fae565b6fffffffffffffffffffffffffffffffff1660155484610b9f9190613c66565b610ba99190613c46565b90509250929050565b610bbc8282611c49565b60008281526001602052604090206107ea90826119d9565b6000610bdf8361104b565b8210610bfd5760405162461bcd60e51b815260040161073290613365565b506001600160a01b03919091166000908152600860209081526040808320938352929052205490565b610c308282611c6d565b60008281526001602052604090206107ea9082611caf565b610c747f65d7a28e3265b37a6474929f336521b332c1681b933f6cb9f3376673440d862a610544611a1a565b610c905760405162461bcd60e51b815260040161073290613b0b565b610c98611cc4565b565b6107ea838383604051806020016040528060008152506115af565b610cc0610a30611a1a565b610cdc5760405162461bcd60e51b815260040161073290613aae565b610ce581611d32565b50565b601060009054906101000a90046001600160a01b03166001600160a01b0316639d2f83f06040518163ffffffff1660e01b815260040160206040518083038186803b158015610d3657600080fd5b505afa158015610d4a573d6000803e3d6000fd5b505050506040513d601f19601f82011682018060405250810190610d6e9190612eb1565b15610d8b5760405162461bcd60e51b8152600401610732906136c8565b610db77f9f2df0fed2c77648de5860a4cc508cd0818c85b8b8a1ab4ceeef8d981c8956a6610544611a1a565b610dd35760405162461bcd60e51b8152600401610732906137c8565b60008167ffffffffffffffff811115610dfc57634e487b7160e01b600052604160045260246000fd5b604051908082528060200260200182016040528015610e25578160200160208202803683370190505b506011549091506000610e36611a1a565b905060005b84811015610f0c5782848281518110610e6457634e487b7160e01b600052603260045260246000fd5b602002602001018181525050858582818110610e9057634e487b7160e01b600052603260045260246000fd5b9050602002810190610ea29190613be9565b6000858152601360205260409020610ebb929091612ac2565b50600083815260146020526040902080546001600160a01b0319166001600160a01b038416179055610eed8784611dd9565b610ef8600184613c2e565b925080610f0481613d1a565b915050610e3b565b5081601181905550856001600160a01b0316816001600160a01b03167f2a7af4d3b262c3e3d51c600cdf7a940c9aba3fedcc85148aeda266cc4c4a2f33858888604051610f5b93929190613190565b60405180910390a3505050505050565b6000610f756107ef565b8210610f935760405162461bcd60e51b815260040161073290613a51565b600a8281548110610fb457634e487b7160e01b600052603260045260246000fd5b90600052602060002001549050919050565b6014602052600090815260409020546001600160a01b031681565b600f546001600160a01b0390811691161490565b600c5460ff1690565b6000818152600460205260408120546001600160a01b0316806106725760405162461bcd60e51b81526004016107329061366b565b60405162461bcd60e51b81526004016107329061375c565b60006001600160a01b0382166110735760405162461bcd60e51b81526004016107329061360e565b506001600160a01b031660009081526005602052604090205490565b60115481565b600f54600160a01b900460ff1681565b6110d17f65d7a28e3265b37a6474929f336521b332c1681b933f6cb9f3376673440d862a610544611a1a565b6110ed5760405162461bcd60e51b815260040161073290613456565b610c98611eb8565b6010546040805163a217fddf60e01b815290516001600160a01b03909216916391d1485491839163a217fddf91600480820192602092909190829003018186803b15801561114257600080fd5b505afa158015611156573d6000803e3d6000fd5b505050506040513d601f19601f8201168201806040525081019061117a9190612ee5565b611182611a1a565b6040518363ffffffff1660e01b815260040161119f929190613272565b60206040518083038186803b1580156111b757600080fd5b505afa1580156111cb573d6000803e3d6000fd5b505050506040513d601f19601f820116820180604052508101906111ef9190612eb1565b61120b5760405162461bcd60e51b8152600401610732906138b3565b600f8054911515600160a01b027fffffffffffffffffffffff00ffffffffffffffffffffffffffffffffffffffff909216919091179055565b600082815260016020526040812061125c9083611f13565b9392505050565b6000918252602082815260408084206001600160a01b0393909316845291905290205460ff1690565b6010546040805163a217fddf60e01b815290516001600160a01b03909216916391d1485491839163a217fddf91600480820192602092909190829003018186803b1580156112d957600080fd5b505afa1580156112ed573d6000803e3d6000fd5b505050506040513d601f19601f820116820180604052508101906113119190612ee5565b611319611a1a565b6040518363ffffffff1660e01b8152600401611336929190613272565b60206040518083038186803b15801561134e57600080fd5b505afa158015611362573d6000803e3d6000fd5b505050506040513d601f19601f820116820180604052508101906113869190612eb1565b6113a25760405162461bcd60e51b8152600401610732906138b3565b6107ea60128383612ac2565b60606003805461068790613cdf565b600081565b6113ca611a1a565b6001600160a01b0316826001600160a01b031614156113fb5760405162461bcd60e51b8152600401610732906134f7565b8060076000611408611a1a565b6001600160a01b03908116825260208083019390935260409182016000908120918716808252919093529120805460ff19169215159290921790915561144c611a1a565b6001600160a01b03167f17307eab39ab6107e8899845ad3d59bd9653f200f220920489ca2b5937696c3183604051611484919061325e565b60405180910390a35050565b60608167ffffffffffffffff8111156114b957634e487b7160e01b600052604160045260246000fd5b6040519080825280602002602001820160405280156114ec57816020015b60608152602001906001900390816114d75790505b50905060005b828110156115a85761156a3085858481811061151e57634e487b7160e01b600052603260045260246000fd5b90506020028101906115309190613be9565b8080601f016020809104026020016040519081016040528093929190818152602001838380828437600092019190915250611f1f92505050565b82828151811061158a57634e487b7160e01b600052603260045260246000fd5b602002602001018190525080806115a090613d1a565b9150506114f2565b5092915050565b6115c06115ba611a1a565b83611a97565b6115dc5760405162461bcd60e51b8152600401610732906139f4565b6115e884848484611f44565b50505050565b601280546115fb90613cdf565b80601f016020809104026020016040519081016040528092919081815260200182805461162790613cdf565b80156116745780601f1061164957610100808354040283529160200191611674565b820191906000526020600020905b81548152906001019060200180831161165757829003601f168201915b505050505081565b60155481565b600081815260136020526040902080546060919061169f90613cdf565b80601f01602080910402602001604051908101604052809291908181526020018280546116cb90613cdf565b80156117185780601f106116ed57610100808354040283529160200191611718565b820191906000526020600020905b8154815290600101906020018083116116fb57829003601f168201915b50505050509050919050565b600081815260016020526040812061067290611f77565b7f9f2df0fed2c77648de5860a4cc508cd0818c85b8b8a1ab4ceeef8d981c8956a681565b610c308282611f82565b7f65d7a28e3265b37a6474929f336521b332c1681b933f6cb9f3376673440d862a81565b60606012805461068790613cdf565b6001600160a01b03918216600090815260076020908152604080832093909416825291909152205460ff1690565b601060009054906101000a90046001600160a01b03166001600160a01b0316639d2f83f06040518163ffffffff1660e01b815260040160206040518083038186803b15801561181857600080fd5b505afa15801561182c573d6000803e3d6000fd5b505050506040513d601f19601f820116820180604052508101906118509190612eb1565b1561186d5760405162461bcd60e51b8152600401610732906136c8565b6118997f9f2df0fed2c77648de5860a4cc508cd0818c85b8b8a1ab4ceeef8d981c8956a6610544611a1a565b6118b55760405162461bcd60e51b8152600401610732906137c8565b60115460008181526013602052604090206118d1908484612ac2565b506118da611a1a565b600082815260146020526040902080546001600160a01b0319166001600160a01b03929092169190911790556119108482611dd9565b6001601160008282546119239190613c2e565b90915550506001600160a01b03841661193a611a1a565b6001600160a01b03167fafe8c5a4c36942a61550534b714a0076ab46ef8ef23e361572aad8b7ca2ac27d83868660405161197693929190613bc6565b60405180910390a350505050565b601360205260009081526040902080546115fb90613cdf565b60006119a833610fe1565b156119bc575060131936013560601c610708565b6119c46119ee565b9050610708565b6119d58282611fa1565b5050565b600061125c836001600160a01b038416612026565b3390565b600061067282612070565b6000908152600460205260409020546001600160a01b0316151590565b6000611a2461199d565b905090565b600081815260066020526040902080546001600160a01b0319166001600160a01b0384169081179091558190611a5e82610ffe565b6001600160a01b03167f8c5be1e5ebec7d5bd14f71427d1e84f3dd0314c0f7b2291e5b200ac8c7c3b92560405160405180910390a45050565b6000611aa2826119fd565b611abe5760405162461bcd60e51b81526004016107329061352e565b6000611ac983610ffe565b9050806001600160a01b0316846001600160a01b03161480611b045750836001600160a01b0316611af98461070b565b6001600160a01b0316145b80611b145750611b14818561179c565b949350505050565b826001600160a01b0316611b2f82610ffe565b6001600160a01b031614611b555760405162461bcd60e51b815260040161073290613856565b6001600160a01b038216611b7b5760405162461bcd60e51b8152600401610732906134b3565b611b86838383612095565b611b91600082611a29565b6001600160a01b0383166000908152600560205260408120805460019290611bba908490613c85565b90915550506001600160a01b0382166000908152600560205260408120805460019290611be8908490613c2e565b909155505060008181526004602052604080822080546001600160a01b0319166001600160a01b0386811691821790925591518493918716917fddf252ad1be2c89b69c2b068fc378daa952ba7f163c4a11628f55a4df523b3ef91a4505050565b611c5282610a5d565b611c6381611c5e611a1a565b612150565b6107ea8383611fa1565b611c75611a1a565b6001600160a01b0316816001600160a01b031614611ca55760405162461bcd60e51b815260040161073290613b69565b6119d582826121b4565b600061125c836001600160a01b038416612237565b611ccc610ff5565b611ce85760405162461bcd60e51b81526004016107329061332e565b600c805460ff191690557f5db9ee0a495bf2e6ff9c91a7834c1ba4fdd244a5e8aa4e537bd38aeae4b073aa611d1b611a1a565b604051611d2891906130d1565b60405180910390a1565b6000611d3d82610ffe565b9050611d4b81600084612095565b611d56600083611a29565b6001600160a01b0381166000908152600560205260408120805460019290611d7f908490613c85565b909155505060008281526004602052604080822080546001600160a01b0319169055518391906001600160a01b038416907fddf252ad1be2c89b69c2b068fc378daa952ba7f163c4a11628f55a4df523b3ef908390a45050565b6001600160a01b038216611dff5760405162461bcd60e51b815260040161073290613793565b611e08816119fd565b15611e255760405162461bcd60e51b81526004016107329061341f565b611e3160008383612095565b6001600160a01b0382166000908152600560205260408120805460019290611e5a908490613c2e565b909155505060008181526004602052604080822080546001600160a01b0319166001600160a01b03861690811790915590518392907fddf252ad1be2c89b69c2b068fc378daa952ba7f163c4a11628f55a4df523b3ef908290a45050565b611ec0610ff5565b15611edd5760405162461bcd60e51b81526004016107329061357a565b600c805460ff191660011790557f62e78cea01bee320cd4e420270b5ea74000d11b0c9f74754ebdbfc544b05a258611d1b611a1a565b600061125c8383612354565b606061125c8383604051806060016040528060278152602001613d9b6027913961238c565b611f4f848484611b1c565b611f5b84848484612428565b6115e85760405162461bcd60e51b8152600401610732906133c2565b600061067282612543565b611f8b82610a5d565b611f9781611c5e611a1a565b6107ea83836121b4565b611fab8282611263565b6119d5576000828152602081815260408083206001600160a01b03851684529091529020805460ff19166001179055611fe2611a1a565b6001600160a01b0316816001600160a01b0316837f2f8788117e7eff1d82e926ec794901d17c78024a50270940304540a733656f0d60405160405180910390a45050565b60006120328383612547565b61206857508154600181810184556000848152602080822090930184905584548482528286019093526040902091909155610672565b506000610672565b60006001600160e01b0319821663780e9d6360e01b148061067257506106728261255f565b6120a083838361259f565b600f54600160a01b900460ff1680156120c157506001600160a01b03831615155b80156120d557506001600160a01b03821615155b156107ea576121047f8502233096d909befbda0999bb8ea2f3a6be3c138b9fbf003752a4c8bce86f6c84611263565b8061213457506121347f8502233096d909befbda0999bb8ea2f3a6be3c138b9fbf003752a4c8bce86f6c83611263565b6107ea5760405162461bcd60e51b8152600401610732906136ff565b61215a8282611263565b6119d557612172816001600160a01b031660146125aa565b61217d8360206125aa565b60405160200161218e929190613050565b60408051601f198184030181529082905262461bcd60e51b825261073291600401613289565b6121be8282611263565b156119d5576000828152602081815260408083206001600160a01b03851684529091529020805460ff191690556121f3611a1a565b6001600160a01b0316816001600160a01b0316837ff6391f5c32d9c69d2a47ea670b442974b53935d1edc7fd64eb21e047a839171b60405160405180910390a45050565b6000818152600183016020526040812054801561234a57600061225b600183613c85565b855490915060009061226f90600190613c85565b90508181146122f057600086600001828154811061229d57634e487b7160e01b600052603260045260246000fd5b90600052602060002001549050808760000184815481106122ce57634e487b7160e01b600052603260045260246000fd5b6000918252602080832090910192909255918252600188019052604090208390555b855486908061230f57634e487b7160e01b600052603160045260246000fd5b600190038181906000526020600020016000905590558560010160008681526020019081526020016000206000905560019350505050610672565b6000915050610672565b600082600001828154811061237957634e487b7160e01b600052603260045260246000fd5b9060005260206000200154905092915050565b606061239784612769565b6123b35760405162461bcd60e51b8152600401610732906139ae565b600080856001600160a01b0316856040516123ce9190613034565b600060405180830381855af49150503d8060008114612409576040519150601f19603f3d011682016040523d82523d6000602084013e61240e565b606091505b509150915061241e82828661276f565b9695505050505050565b600061243c846001600160a01b0316612769565b1561253857836001600160a01b031663150b7a02612458611a1a565b8786866040518563ffffffff1660e01b815260040161247a94939291906130e5565b602060405180830381600087803b15801561249457600080fd5b505af19250505080156124c4575060408051601f3d908101601f191682019092526124c191810190612f5e565b60015b61251e573d8080156124f2576040519150601f19603f3d011682016040523d82523d6000602084013e6124f7565b606091505b5080516125165760405162461bcd60e51b8152600401610732906133c2565b805181602001fd5b6001600160e01b031916630a85bd0160e11b149050611b14565b506001949350505050565b5490565b60009081526001919091016020526040902054151590565b60006001600160e01b031982166380ac58cd60e01b148061259057506001600160e01b03198216635b5e139f60e01b145b806106725750610672826127a8565b6107ea8383836127cd565b606060006125b9836002613c66565b6125c4906002613c2e565b67ffffffffffffffff8111156125ea57634e487b7160e01b600052604160045260246000fd5b6040519080825280601f01601f191660200182016040528015612614576020820181803683370190505b509050600360fc1b8160008151811061263d57634e487b7160e01b600052603260045260246000fd5b60200101906001600160f81b031916908160001a905350600f60fb1b8160018151811061267a57634e487b7160e01b600052603260045260246000fd5b60200101906001600160f81b031916908160001a905350600061269e846002613c66565b6126a9906001613c2e565b90505b600181111561274a577f303132333435363738396162636465660000000000000000000000000000000085600f16601081106126f857634e487b7160e01b600052603260045260246000fd5b1a60f81b82828151811061271c57634e487b7160e01b600052603260045260246000fd5b60200101906001600160f81b031916908160001a90535060049490941c9361274381613cc8565b90506126ac565b50831561125c5760405162461bcd60e51b81526004016107329061329c565b3b151590565b6060831561277e57508161125c565b82511561278e5782518084602001fd5b8160405162461bcd60e51b81526004016107329190613289565b60006001600160e01b03198216635a05180f60e01b14806106725750610672826127fd565b6127d8838383612822565b6127e0610ff5565b156107ea5760405162461bcd60e51b8152600401610732906132d1565b60006001600160e01b03198216637965db0b60e01b14806106725750610672826128ab565b61282d8383836107ea565b6001600160a01b03831661284957612844816128c4565b61286c565b816001600160a01b0316836001600160a01b03161461286c5761286c8382612908565b6001600160a01b03821661288857612883816129a5565b6107ea565b826001600160a01b0316826001600160a01b0316146107ea576107ea8282612a7e565b6001600160e01b031981166301ffc9a760e01b14919050565b600a80546000838152600b60205260408120829055600182018355919091527fc65a7bb8d6351c1cf70c95a316cc6a92839c986682d98bc35f958f4883f9d2a80155565b600060016129158461104b565b61291f9190613c85565b600083815260096020526040902054909150808214612972576001600160a01b03841660009081526008602090815260408083208584528252808320548484528184208190558352600990915290208190555b5060009182526009602090815260408084208490556001600160a01b039094168352600881528383209183525290812055565b600a546000906129b790600190613c85565b6000838152600b6020526040812054600a80549394509092849081106129ed57634e487b7160e01b600052603260045260246000fd5b9060005260206000200154905080600a8381548110612a1c57634e487b7160e01b600052603260045260246000fd5b6000918252602080832090910192909255828152600b9091526040808220849055858252812055600a805480612a6257634e487b7160e01b600052603160045260246000fd5b6001900381819060005260206000200160009055905550505050565b6000612a898361104b565b6001600160a01b039093166000908152600860209081526040808320868452825280832085905593825260099052919091209190915550565b828054612ace90613cdf565b90600052602060002090601f016020900481019282612af05760008555612b36565b82601f10612b095782800160ff19823516178555612b36565b82800160010185558215612b36579182015b82811115612b36578235825591602001919060010190612b1b565b50612b42929150612b46565b5090565b5b80821115612b425760008155600101612b47565b60008083601f840112612b6c578081fd5b50813567ffffffffffffffff811115612b83578182fd5b6020830191508360208083028501011115612b9d57600080fd5b9250929050565b60008083601f840112612bb5578182fd5b50813567ffffffffffffffff811115612bcc578182fd5b602083019150836020828501011115612b9d57600080fd5b600060208284031215612bf5578081fd5b813561125c81613d61565b600060208284031215612c11578081fd5b815161125c81613d61565b60008060408385031215612c2e578081fd5b8235612c3981613d61565b91506020830135612c4981613d61565b809150509250929050565b600080600060608486031215612c68578081fd5b8335612c7381613d61565b92506020840135612c8381613d61565b929592945050506040919091013590565b60008060008060808587031215612ca9578081fd5b8435612cb481613d61565b9350602085810135612cc581613d61565b935060408601359250606086013567ffffffffffffffff80821115612ce8578384fd5b818801915088601f830112612cfb578384fd5b813581811115612d0d57612d0d613d4b565b604051601f8201601f1916810185018381118282101715612d3057612d30613d4b565b60405281815283820185018b1015612d46578586fd5b81858501868301379081019093019390935250939692955090935050565b600080600060408486031215612d78578283fd5b8335612d8381613d61565b9250602084013567ffffffffffffffff811115612d9e578283fd5b612daa86828701612b5b565b9497909650939450505050565b60008060408385031215612dc9578182fd5b8235612dd481613d61565b91506020830135612c4981613d76565b600080600060408486031215612df8578283fd5b8335612e0381613d61565b9250602084013567ffffffffffffffff811115612e1e578283fd5b612daa86828701612ba4565b60008060408385031215612e3c578182fd5b8235612e4781613d61565b946020939093013593505050565b60008060208385031215612e67578182fd5b823567ffffffffffffffff811115612e7d578283fd5b612e8985828601612b5b565b90969095509350505050565b600060208284031215612ea6578081fd5b813561125c81613d76565b600060208284031215612ec2578081fd5b815161125c81613d76565b600060208284031215612ede578081fd5b5035919050565b600060208284031215612ef6578081fd5b5051919050565b60008060408385031215612f0f578182fd5b823591506020830135612c4981613d61565b60008060408385031215612f33578182fd5b50508035926020909101359150565b600060208284031215612f53578081fd5b813561125c81613d84565b600060208284031215612f6f578081fd5b815161125c81613d84565b60008060208385031215612f8c578182fd5b823567ffffffffffffffff811115612fa2578283fd5b612e8985828601612ba4565b600060208284031215612fbf578081fd5b81516fffffffffffffffffffffffffffffffff8116811461125c578182fd5b60008151808452612ff6816020860160208601613c9c565b601f01601f19169290920160200192915050565b60008284528282602086013780602084860101526020601f19601f85011685010190509392505050565b60008251613046818460208701613c9c565b9190910192915050565b60007f416363657373436f6e74726f6c3a206163636f756e742000000000000000000082528351613088816017850160208801613c9c565b7f206973206d697373696e6720726f6c652000000000000000000000000000000060179184019182015283516130c5816028840160208801613c9c565b01602801949350505050565b6001600160a01b0391909116815260200190565b60006001600160a01b0380871683528086166020840152508360408301526080606083015261241e6080830184612fde565b6001600160a01b03929092168252602082015260400190565b6000602080830181845280855180835260408601915060408482028701019250838701855b8281101561318357603f19888603018452613171858351612fde565b94509285019290850190600101613155565b5092979650505050505050565b604080825284519082018190526000906020906060840190828801845b828110156131c9578151845292840192908401906001016131ad565b505050838103828501528481528181018583028201830187855b8881101561324f57848303601f190184528135368b9003601e19018112613208578788fd5b8a01803567ffffffffffffffff811115613220578889fd5b8036038c131561322e578889fd5b61323b85828a850161300a565b9588019594505050908501906001016131e3565b50909998505050505050505050565b901515815260200190565b90815260200190565b9182526001600160a01b0316602082015260400190565b60006020825261125c6020830184612fde565b6020808252818101527f537472696e67733a20686578206c656e67746820696e73756666696369656e74604082015260600190565b6020808252602b908201527f4552433732315061757361626c653a20746f6b656e207472616e73666572207760408201527f68696c6520706175736564000000000000000000000000000000000000000000606082015260800190565b60208082526014908201527f5061757361626c653a206e6f7420706175736564000000000000000000000000604082015260600190565b6020808252602b908201527f455243373231456e756d657261626c653a206f776e657220696e646578206f7560408201527f74206f6620626f756e6473000000000000000000000000000000000000000000606082015260800190565b60208082526032908201527f4552433732313a207472616e7366657220746f206e6f6e20455243373231526560408201527f63656976657220696d706c656d656e7465720000000000000000000000000000606082015260800190565b6020808252601c908201527f4552433732313a20746f6b656e20616c7265616479206d696e74656400000000604082015260600190565b6020808252603e908201527f4552433732315072657365744d696e7465725061757365724175746f49643a2060408201527f6d75737420686176652070617573657220726f6c6520746f2070617573650000606082015260800190565b60208082526024908201527f4552433732313a207472616e7366657220746f20746865207a65726f206164646040820152637265737360e01b606082015260800190565b60208082526019908201527f4552433732313a20617070726f766520746f2063616c6c657200000000000000604082015260600190565b6020808252602c908201527f4552433732313a206f70657261746f7220717565727920666f72206e6f6e657860408201526b34b9ba32b73a103a37b5b2b760a11b606082015260800190565b60208082526010908201527f5061757361626c653a2070617573656400000000000000000000000000000000604082015260600190565b60208082526038908201527f4552433732313a20617070726f76652063616c6c6572206973206e6f74206f7760408201527f6e6572206e6f7220617070726f76656420666f7220616c6c0000000000000000606082015260800190565b6020808252602a908201527f4552433732313a2062616c616e636520717565727920666f7220746865207a6560408201527f726f206164647265737300000000000000000000000000000000000000000000606082015260800190565b60208082526029908201527f4552433732313a206f776e657220717565727920666f72206e6f6e657869737460408201527f656e7420746f6b656e0000000000000000000000000000000000000000000000606082015260800190565b6020808252601c908201527f4e46543a205468652070726f746f636f6c206973207061757365642e00000000604082015260600190565b60208082526036908201527f4e46543a205472616e736665727320617265207265737472696374656420746f60408201527f205452414e534645525f524f4c4520686f6c6465727300000000000000000000606082015260800190565b6020808252601d908201527f4e46543732313a2043616c6c206d696e744e465420696e73746561642e000000604082015260600190565b6020808252818101527f4552433732313a206d696e7420746f20746865207a65726f2061646472657373604082015260600190565b60208082526022908201527f4e46543a206d7573742068617665206d696e74657220726f6c6520746f206d696040820152611b9d60f21b606082015260800190565b6020808252602c908201527f4552433732313a20617070726f76656420717565727920666f72206e6f6e657860408201526b34b9ba32b73a103a37b5b2b760a11b606082015260800190565b60208082526029908201527f4552433732313a207472616e73666572206f6620746f6b656e2074686174206960408201527f73206e6f74206f776e0000000000000000000000000000000000000000000000606082015260800190565b60208082526032908201527f4e46543a206f6e6c7920612070726f746f636f6c2061646d696e2063616e206360408201527f616c6c20746869732066756e6374696f6e2e0000000000000000000000000000606082015260800190565b60208082526021908201527f4552433732313a20617070726f76616c20746f2063757272656e74206f776e656040820152603960f91b606082015260800190565b6020808252602a908201527f4e46543a204270732070726f7669646564206d757374206265206c657373207460408201527f68616e2031302c30303000000000000000000000000000000000000000000000606082015260800190565b60208082526026908201527f416464726573733a2064656c65676174652063616c6c20746f206e6f6e2d636f6040820152651b9d1c9858dd60d21b606082015260800190565b60208082526031908201527f4552433732313a207472616e736665722063616c6c6572206973206e6f74206f60408201527f776e6572206e6f7220617070726f766564000000000000000000000000000000606082015260800190565b6020808252602c908201527f455243373231456e756d657261626c653a20676c6f62616c20696e646578206f60408201527f7574206f6620626f756e64730000000000000000000000000000000000000000606082015260800190565b60208082526030908201527f4552433732314275726e61626c653a2063616c6c6572206973206e6f74206f7760408201527f6e6572206e6f7220617070726f76656400000000000000000000000000000000606082015260800190565b602080825260409082018190527f4552433732315072657365744d696e7465725061757365724175746f49643a20908201527f6d75737420686176652070617573657220726f6c6520746f20756e7061757365606082015260800190565b6020808252602f908201527f416363657373436f6e74726f6c3a2063616e206f6e6c792072656e6f756e636560408201527f20726f6c657320666f722073656c660000000000000000000000000000000000606082015260800190565b600084825260406020830152613be060408301848661300a565b95945050505050565b6000808335601e19843603018112613bff578283fd5b83018035915067ffffffffffffffff821115613c19578283fd5b602001915036819003821315612b9d57600080fd5b60008219821115613c4157613c41613d35565b500190565b600082613c6157634e487b7160e01b81526012600452602481fd5b500490565b6000816000190483118215151615613c8057613c80613d35565b500290565b600082821015613c9757613c97613d35565b500390565b60005b83811015613cb7578181015183820152602001613c9f565b838111156115e85750506000910152565b600081613cd757613cd7613d35565b506000190190565b600281046001821680613cf357607f821691505b60208210811415613d1457634e487b7160e01b600052602260045260246000fd5b50919050565b6000600019821415613d2e57613d2e613d35565b5060010190565b634e487b7160e01b600052601160045260246000fd5b634e487b7160e01b600052604160045260246000fd5b6001600160a01b0381168114610ce557600080fd5b8015158114610ce557600080fd5b6001600160e01b031981168114610ce557600080fdfe416464726573733a206c6f772d6c6576656c2064656c65676174652063616c6c206661696c6564a164736f6c6343000800000a",
  "linkReferences": {},
  "deployedLinkReferences": {}
}