{
  "_format": "hh-sol-artifact-1",
  "contractName": "NFT",
  "sourceName": "contracts/NFT.sol",
  "abi": [
    {
      "inputs": [
        {
          "internalType": "address payable",
          "name": "_controlCenter",
          "type": "address"
        },
        {
          "internalType": "string",
          "name": "_name",
          "type": "string"
        },
        {
          "internalType": "string",
          "name": "_symbol",
          "type": "string"
        },
        {
          "internalType": "address",
          "name": "_trustedForwarder",
          "type": "address"
        },
        {
          "internalType": "string",
          "name": "_uri",
          "type": "string"
        }
      ],
      "stateMutability": "nonpayable",
      "type": "constructor"
    },
    {
      "anonymous": false,
      "inputs": [
        {
          "indexed": true,
          "internalType": "address",
          "name": "owner",
          "type": "address"
        },
        {
          "indexed": true,
          "internalType": "address",
          "name": "approved",
          "type": "address"
        },
        {
          "indexed": true,
          "internalType": "uint256",
          "name": "tokenId",
          "type": "uint256"
        }
      ],
      "name": "Approval",
      "type": "event"
    },
    {
      "anonymous": false,
      "inputs": [
        {
          "indexed": true,
          "internalType": "address",
          "name": "owner",
          "type": "address"
        },
        {
          "indexed": true,
          "internalType": "address",
          "name": "operator",
          "type": "address"
        },
        {
          "indexed": false,
          "internalType": "bool",
          "name": "approved",
          "type": "bool"
        }
      ],
      "name": "ApprovalForAll",
      "type": "event"
    },
    {
      "anonymous": false,
      "inputs": [
        {
          "indexed": true,
          "internalType": "address",
          "name": "to",
          "type": "address"
        },
        {
          "indexed": false,
          "internalType": "uint256",
          "name": "tokenId",
          "type": "uint256"
        },
        {
          "indexed": false,
          "internalType": "string",
          "name": "tokenURI",
          "type": "string"
        }
      ],
      "name": "Minted",
      "type": "event"
    },
    {
      "anonymous": false,
      "inputs": [
        {
          "indexed": false,
          "internalType": "address",
          "name": "account",
          "type": "address"
        }
      ],
      "name": "Paused",
      "type": "event"
    },
    {
      "anonymous": false,
      "inputs": [
        {
          "indexed": true,
          "internalType": "bytes32",
          "name": "role",
          "type": "bytes32"
        },
        {
          "indexed": true,
          "internalType": "bytes32",
          "name": "previousAdminRole",
          "type": "bytes32"
        },
        {
          "indexed": true,
          "internalType": "bytes32",
          "name": "newAdminRole",
          "type": "bytes32"
        }
      ],
      "name": "RoleAdminChanged",
      "type": "event"
    },
    {
      "anonymous": false,
      "inputs": [
        {
          "indexed": true,
          "internalType": "bytes32",
          "name": "role",
          "type": "bytes32"
        },
        {
          "indexed": true,
          "internalType": "address",
          "name": "account",
          "type": "address"
        },
        {
          "indexed": true,
          "internalType": "address",
          "name": "sender",
          "type": "address"
        }
      ],
      "name": "RoleGranted",
      "type": "event"
    },
    {
      "anonymous": false,
      "inputs": [
        {
          "indexed": true,
          "internalType": "bytes32",
          "name": "role",
          "type": "bytes32"
        },
        {
          "indexed": true,
          "internalType": "address",
          "name": "account",
          "type": "address"
        },
        {
          "indexed": true,
          "internalType": "address",
          "name": "sender",
          "type": "address"
        }
      ],
      "name": "RoleRevoked",
      "type": "event"
    },
    {
      "anonymous": false,
      "inputs": [
        {
          "indexed": true,
          "internalType": "address",
          "name": "from",
          "type": "address"
        },
        {
          "indexed": true,
          "internalType": "address",
          "name": "to",
          "type": "address"
        },
        {
          "indexed": true,
          "internalType": "uint256",
          "name": "tokenId",
          "type": "uint256"
        }
      ],
      "name": "Transfer",
      "type": "event"
    },
    {
      "anonymous": false,
      "inputs": [
        {
          "indexed": false,
          "internalType": "address",
          "name": "account",
          "type": "address"
        }
      ],
      "name": "Unpaused",
      "type": "event"
    },
    {
      "inputs": [],
      "name": "DEFAULT_ADMIN_ROLE",
      "outputs": [
        {
          "internalType": "bytes32",
          "name": "",
          "type": "bytes32"
        }
      ],
      "stateMutability": "view",
      "type": "function"
    },
    {
      "inputs": [],
      "name": "MINTER_ROLE",
      "outputs": [
        {
          "internalType": "bytes32",
          "name": "",
          "type": "bytes32"
        }
      ],
      "stateMutability": "view",
      "type": "function"
    },
    {
      "inputs": [],
      "name": "PAUSER_ROLE",
      "outputs": [
        {
          "internalType": "bytes32",
          "name": "",
          "type": "bytes32"
        }
      ],
      "stateMutability": "view",
      "type": "function"
    },
    {
      "inputs": [],
      "name": "_contractURI",
      "outputs": [
        {
          "internalType": "string",
          "name": "",
          "type": "string"
        }
      ],
      "stateMutability": "view",
      "type": "function"
    },
    {
      "inputs": [
        {
          "internalType": "address",
          "name": "to",
          "type": "address"
        },
        {
          "internalType": "uint256",
          "name": "tokenId",
          "type": "uint256"
        }
      ],
      "name": "approve",
      "outputs": [],
      "stateMutability": "nonpayable",
      "type": "function"
    },
    {
      "inputs": [
        {
          "internalType": "address",
          "name": "owner",
          "type": "address"
        }
      ],
      "name": "balanceOf",
      "outputs": [
        {
          "internalType": "uint256",
          "name": "",
          "type": "uint256"
        }
      ],
      "stateMutability": "view",
      "type": "function"
    },
    {
      "inputs": [
        {
          "internalType": "uint256",
          "name": "tokenId",
          "type": "uint256"
        }
      ],
      "name": "burn",
      "outputs": [],
      "stateMutability": "nonpayable",
      "type": "function"
    },
    {
      "inputs": [],
      "name": "contractURI",
      "outputs": [
        {
          "internalType": "string",
          "name": "",
          "type": "string"
        }
      ],
      "stateMutability": "view",
      "type": "function"
    },
    {
      "inputs": [
        {
          "internalType": "uint256",
          "name": "tokenId",
          "type": "uint256"
        }
      ],
      "name": "getApproved",
      "outputs": [
        {
          "internalType": "address",
          "name": "",
          "type": "address"
        }
      ],
      "stateMutability": "view",
      "type": "function"
    },
    {
      "inputs": [
        {
          "internalType": "bytes32",
          "name": "role",
          "type": "bytes32"
        }
      ],
      "name": "getRoleAdmin",
      "outputs": [
        {
          "internalType": "bytes32",
          "name": "",
          "type": "bytes32"
        }
      ],
      "stateMutability": "view",
      "type": "function"
    },
    {
      "inputs": [
        {
          "internalType": "bytes32",
          "name": "role",
          "type": "bytes32"
        },
        {
          "internalType": "uint256",
          "name": "index",
          "type": "uint256"
        }
      ],
      "name": "getRoleMember",
      "outputs": [
        {
          "internalType": "address",
          "name": "",
          "type": "address"
        }
      ],
      "stateMutability": "view",
      "type": "function"
    },
    {
      "inputs": [
        {
          "internalType": "bytes32",
          "name": "role",
          "type": "bytes32"
        }
      ],
      "name": "getRoleMemberCount",
      "outputs": [
        {
          "internalType": "uint256",
          "name": "",
          "type": "uint256"
        }
      ],
      "stateMutability": "view",
      "type": "function"
    },
    {
      "inputs": [
        {
          "internalType": "bytes32",
          "name": "role",
          "type": "bytes32"
        },
        {
          "internalType": "address",
          "name": "account",
          "type": "address"
        }
      ],
      "name": "grantRole",
      "outputs": [],
      "stateMutability": "nonpayable",
      "type": "function"
    },
    {
      "inputs": [
        {
          "internalType": "bytes32",
          "name": "role",
          "type": "bytes32"
        },
        {
          "internalType": "address",
          "name": "account",
          "type": "address"
        }
      ],
      "name": "hasRole",
      "outputs": [
        {
          "internalType": "bool",
          "name": "",
          "type": "bool"
        }
      ],
      "stateMutability": "view",
      "type": "function"
    },
    {
      "inputs": [
        {
          "internalType": "address",
          "name": "owner",
          "type": "address"
        },
        {
          "internalType": "address",
          "name": "operator",
          "type": "address"
        }
      ],
      "name": "isApprovedForAll",
      "outputs": [
        {
          "internalType": "bool",
          "name": "",
          "type": "bool"
        }
      ],
      "stateMutability": "view",
      "type": "function"
    },
    {
      "inputs": [
        {
          "internalType": "address",
          "name": "forwarder",
          "type": "address"
        }
      ],
      "name": "isTrustedForwarder",
      "outputs": [
        {
          "internalType": "bool",
          "name": "",
          "type": "bool"
        }
      ],
      "stateMutability": "view",
      "type": "function"
    },
    {
      "inputs": [
        {
          "internalType": "address",
          "name": "",
          "type": "address"
        }
      ],
      "name": "mint",
      "outputs": [],
      "stateMutability": "pure",
      "type": "function"
    },
    {
      "inputs": [
        {
          "internalType": "address",
          "name": "_to",
          "type": "address"
        },
        {
          "internalType": "string",
          "name": "_uri",
          "type": "string"
        }
      ],
      "name": "mintNFT",
      "outputs": [],
      "stateMutability": "nonpayable",
      "type": "function"
    },
    {
      "inputs": [],
      "name": "name",
      "outputs": [
        {
          "internalType": "string",
          "name": "",
          "type": "string"
        }
      ],
      "stateMutability": "view",
      "type": "function"
    },
    {
      "inputs": [],
      "name": "nextTokenId",
      "outputs": [
        {
          "internalType": "uint256",
          "name": "",
          "type": "uint256"
        }
      ],
      "stateMutability": "view",
      "type": "function"
    },
    {
      "inputs": [
        {
          "internalType": "uint256",
          "name": "",
          "type": "uint256"
        }
      ],
      "name": "nftURI",
      "outputs": [
        {
          "internalType": "string",
          "name": "",
          "type": "string"
        }
      ],
      "stateMutability": "view",
      "type": "function"
    },
    {
      "inputs": [
        {
          "internalType": "uint256",
          "name": "tokenId",
          "type": "uint256"
        }
      ],
      "name": "ownerOf",
      "outputs": [
        {
          "internalType": "address",
          "name": "",
          "type": "address"
        }
      ],
      "stateMutability": "view",
      "type": "function"
    },
    {
      "inputs": [],
      "name": "pause",
      "outputs": [],
      "stateMutability": "nonpayable",
      "type": "function"
    },
    {
      "inputs": [],
      "name": "paused",
      "outputs": [
        {
          "internalType": "bool",
          "name": "",
          "type": "bool"
        }
      ],
      "stateMutability": "view",
      "type": "function"
    },
    {
      "inputs": [
        {
          "internalType": "bytes32",
          "name": "role",
          "type": "bytes32"
        },
        {
          "internalType": "address",
          "name": "account",
          "type": "address"
        }
      ],
      "name": "renounceRole",
      "outputs": [],
      "stateMutability": "nonpayable",
      "type": "function"
    },
    {
      "inputs": [
        {
          "internalType": "bytes32",
          "name": "role",
          "type": "bytes32"
        },
        {
          "internalType": "address",
          "name": "account",
          "type": "address"
        }
      ],
      "name": "revokeRole",
      "outputs": [],
      "stateMutability": "nonpayable",
      "type": "function"
    },
    {
      "inputs": [
        {
          "internalType": "address",
          "name": "from",
          "type": "address"
        },
        {
          "internalType": "address",
          "name": "to",
          "type": "address"
        },
        {
          "internalType": "uint256",
          "name": "tokenId",
          "type": "uint256"
        }
      ],
      "name": "safeTransferFrom",
      "outputs": [],
      "stateMutability": "nonpayable",
      "type": "function"
    },
    {
      "inputs": [
        {
          "internalType": "address",
          "name": "from",
          "type": "address"
        },
        {
          "internalType": "address",
          "name": "to",
          "type": "address"
        },
        {
          "internalType": "uint256",
          "name": "tokenId",
          "type": "uint256"
        },
        {
          "internalType": "bytes",
          "name": "_data",
          "type": "bytes"
        }
      ],
      "name": "safeTransferFrom",
      "outputs": [],
      "stateMutability": "nonpayable",
      "type": "function"
    },
    {
      "inputs": [
        {
          "internalType": "address",
          "name": "operator",
          "type": "address"
        },
        {
          "internalType": "bool",
          "name": "approved",
          "type": "bool"
        }
      ],
      "name": "setApprovalForAll",
      "outputs": [],
      "stateMutability": "nonpayable",
      "type": "function"
    },
    {
      "inputs": [
        {
          "internalType": "string",
          "name": "_URI",
          "type": "string"
        }
      ],
      "name": "setContractURI",
      "outputs": [],
      "stateMutability": "nonpayable",
      "type": "function"
    },
    {
      "inputs": [
        {
          "internalType": "bytes4",
          "name": "interfaceId",
          "type": "bytes4"
        }
      ],
      "name": "supportsInterface",
      "outputs": [
        {
          "internalType": "bool",
          "name": "",
          "type": "bool"
        }
      ],
      "stateMutability": "view",
      "type": "function"
    },
    {
      "inputs": [],
      "name": "symbol",
      "outputs": [
        {
          "internalType": "string",
          "name": "",
          "type": "string"
        }
      ],
      "stateMutability": "view",
      "type": "function"
    },
    {
      "inputs": [
        {
          "internalType": "uint256",
          "name": "index",
          "type": "uint256"
        }
      ],
      "name": "tokenByIndex",
      "outputs": [
        {
          "internalType": "uint256",
          "name": "",
          "type": "uint256"
        }
      ],
      "stateMutability": "view",
      "type": "function"
    },
    {
      "inputs": [
        {
          "internalType": "address",
          "name": "owner",
          "type": "address"
        },
        {
          "internalType": "uint256",
          "name": "index",
          "type": "uint256"
        }
      ],
      "name": "tokenOfOwnerByIndex",
      "outputs": [
        {
          "internalType": "uint256",
          "name": "",
          "type": "uint256"
        }
      ],
      "stateMutability": "view",
      "type": "function"
    },
    {
      "inputs": [
        {
          "internalType": "uint256",
          "name": "tokenId",
          "type": "uint256"
        }
      ],
      "name": "tokenURI",
      "outputs": [
        {
          "internalType": "string",
          "name": "",
          "type": "string"
        }
      ],
      "stateMutability": "view",
      "type": "function"
    },
    {
      "inputs": [],
      "name": "totalSupply",
      "outputs": [
        {
          "internalType": "uint256",
          "name": "",
          "type": "uint256"
        }
      ],
      "stateMutability": "view",
      "type": "function"
    },
    {
      "inputs": [
        {
          "internalType": "address",
          "name": "from",
          "type": "address"
        },
        {
          "internalType": "address",
          "name": "to",
          "type": "address"
        },
        {
          "internalType": "uint256",
          "name": "tokenId",
          "type": "uint256"
        }
      ],
      "name": "transferFrom",
      "outputs": [],
      "stateMutability": "nonpayable",
      "type": "function"
    },
    {
      "inputs": [],
      "name": "unpause",
      "outputs": [],
      "stateMutability": "nonpayable",
      "type": "function"
    }
  ],
  "bytecode": "0x60806040523480156200001157600080fd5b5060405162003597380380620035978339810160408190526200003491620004a6565b81848483828281600290805190602001906200005292919062000355565b5080516200006890600390602084019062000355565b5050600c805460ff191690555080516200008a90600e90602084019062000355565b50620000a160006200009b62000153565b62000170565b620000d07f9f2df0fed2c77648de5860a4cc508cd0818c85b8b8a1ab4ceeef8d981c8956a66200009b62000153565b620000ff7f65d7a28e3265b37a6474929f336521b332c1681b933f6cb9f3376673440d862a6200009b62000153565b5050600f80546001600160a01b03199081166001600160a01b039485161790915560108054909116928816929092179091555080516200014790601290602084019062000355565b505050505050620005cb565b60006200016a620001b360201b62000f681760201c565b90505b90565b620001878282620001f360201b62000f961760201c565b6000828152600160209081526040909120620001ae91839062000fa462000203821b17901c565b505050565b6000620001c03362000223565b15620001d6575060131936013560601c6200016d565b620001eb6200023760201b62000fb91760201c565b90506200016d565b620001ff82826200023b565b5050565b60006200021a836001600160a01b038416620002c5565b90505b92915050565b600f546001600160a01b0390811691161490565b3390565b62000247828262000314565b620001ff576000828152602081815260408083206001600160a01b03851684529091529020805460ff191660011790556200028162000153565b6001600160a01b0316816001600160a01b0316837f2f8788117e7eff1d82e926ec794901d17c78024a50270940304540a733656f0d60405160405180910390a45050565b6000620002d383836200033d565b6200030b575081546001818101845560008481526020808220909301849055845484825282860190935260409020919091556200021d565b5060006200021d565b6000918252602082815260408084206001600160a01b0393909316845291905290205460ff1690565b60009081526001919091016020526040902054151590565b82805462000363906200055f565b90600052602060002090601f016020900481019282620003875760008555620003d2565b82601f10620003a257805160ff1916838001178555620003d2565b82800160010185558215620003d2579182015b82811115620003d2578251825591602001919060010190620003b5565b50620003e0929150620003e4565b5090565b5b80821115620003e05760008155600101620003e5565b600082601f8301126200040c578081fd5b81516001600160401b03808211156200042957620004296200059c565b6040516020601f8401601f19168201810183811183821017156200045157620004516200059c565b604052838252858401810187101562000468578485fd5b8492505b838310156200048b57858301810151828401820152918201916200046c565b838311156200049c57848185840101525b5095945050505050565b600080600080600060a08688031215620004be578081fd5b8551620004cb81620005b2565b60208701519095506001600160401b0380821115620004e8578283fd5b620004f689838a01620003fb565b955060408801519150808211156200050c578283fd5b6200051a89838a01620003fb565b9450606088015191506200052e82620005b2565b60808801519193508082111562000543578283fd5b506200055288828901620003fb565b9150509295509295909350565b6002810460018216806200057457607f821691505b602082108114156200059657634e487b7160e01b600052602260045260246000fd5b50919050565b634e487b7160e01b600052604160045260246000fd5b6001600160a01b0381168114620005c857600080fd5b50565b612fbc80620005db6000396000f3fe608060405234801561001057600080fd5b50600436106102925760003560e01c806375794a3c11610160578063c0e72740116100d8578063e63ab1e91161008c578063e985e9c511610071578063e985e9c5146104eb578063eacabe14146104fe578063efe476871461051157610292565b8063e63ab1e9146104db578063e8a3d485146104e357610292565b8063ca15c873116100bd578063ca15c873146104ad578063d5391393146104c0578063d547741f146104c857610292565b8063c0e7274014610492578063c87b56dd1461049a57610292565b8063938e3d7b1161012f578063a217fddf11610114578063a217fddf14610464578063a22cb4651461046c578063b88d4fde1461047f57610292565b8063938e3d7b1461044957806395d89b411461045c57610292565b806375794a3c146104135780638456cb591461041b5780639010d07c1461042357806391d148541461043657610292565b806336568abe1161020e578063572b6c05116101c25780636352211e116101a75780636352211e146103da5780636a627842146103ed57806370a082311461040057610292565b8063572b6c05146103bf5780635c975abb146103d257610292565b806342842e0e116101f357806342842e0e1461038657806342966c68146103995780634f6ccce7146103ac57610292565b806336568abe1461036b5780633f4ba83a1461037e57610292565b806318160ddd11610265578063248a9ca31161024a578063248a9ca3146103325780632f2ff15d146103455780632f745c591461035857610292565b806318160ddd1461030a57806323b872dd1461031f57610292565b806301ffc9a71461029757806306fdde03146102c0578063081812fc146102d5578063095ea7b3146102f5575b600080fd5b6102aa6102a5366004612380565b610524565b6040516102b79190612524565b60405180910390f35b6102c8610537565b6040516102b7919061254f565b6102e86102e336600461230d565b6105ca565b6040516102b791906124d4565b6103086103033660046122c8565b610616565b005b6103126106ae565b6040516102b7919061252f565b61030861032d36600461213a565b6106b4565b61031261034036600461230d565b6106ec565b61030861035336600461233d565b610701565b6103126103663660046122c8565b610723565b61030861037936600461233d565b610778565b61030861079a565b61030861039436600461213a565b6107ec565b6103086103a736600461230d565b610807565b6103126103ba36600461230d565b61083a565b6102aa6103cd3660046120ee565b610895565b6102aa6108a9565b6102e86103e836600461230d565b6108b2565b6103086103fb3660046120ee565b6108e7565b61031261040e3660046120ee565b6108ff565b610312610943565b610308610949565b6102e861043136600461235f565b610999565b6102aa61044436600461233d565b6109b8565b6103086104573660046123b8565b6109e1565b6102c8610b03565b610312610b12565b61030861047a366004612241565b610b17565b61030861048d366004612175565b610be5565b6102c8610c24565b6102c86104a836600461230d565b610cb2565b6103126104bb36600461230d565b610d34565b610312610d4b565b6103086104d636600461233d565b610d6f565b610312610d79565b6102c8610d9d565b6102aa6104f9366004612108565b610dac565b61030861050c366004612277565b610dda565b6102c861051f36600461230d565b610f4f565b600061052f82610fbd565b90505b919050565b60606002805461054690612edf565b80601f016020809104026020016040519081016040528092919081815260200182805461057290612edf565b80156105bf5780601f10610594576101008083540402835291602001916105bf565b820191906000526020600020905b8154815290600101906020018083116105a257829003601f168201915b505050505090505b90565b60006105d582610fe2565b6105fa5760405162461bcd60e51b81526004016105f190612aeb565b60405180910390fd5b506000908152600660205260409020546001600160a01b031690565b6000610621826108b2565b9050806001600160a01b0316836001600160a01b031614156106555760405162461bcd60e51b81526004016105f190612bf1565b806001600160a01b0316610667610fff565b6001600160a01b031614806106835750610683816104f9610fff565b61069f5760405162461bcd60e51b81526004016105f1906128d4565b6106a9838361100e565b505050565b600a5490565b6106c56106bf610fff565b8261107c565b6106e15760405162461bcd60e51b81526004016105f190612c32565b6106a9838383611101565b60009081526020819052604090206001015490565b61070b828261122e565b60008281526001602052604090206106a99082610fa4565b600061072e836108ff565b821061074c5760405162461bcd60e51b81526004016105f19061262b565b506001600160a01b03821660009081526008602090815260408083208484529091529020545b92915050565b6107828282611252565b60008281526001602052604090206106a99082611294565b6107c67f65d7a28e3265b37a6474929f336521b332c1681b933f6cb9f3376673440d862a610444610fff565b6107e25760405162461bcd60e51b81526004016105f190612d49565b6107ea6112a9565b565b6106a983838360405180602001604052806000815250610be5565b6108126106bf610fff565b61082e5760405162461bcd60e51b81526004016105f190612cec565b61083781611317565b50565b60006108446106ae565b82106108625760405162461bcd60e51b81526004016105f190612c8f565b600a828154811061088357634e487b7160e01b600052603260045260246000fd5b90600052602060002001549050919050565b600f546001600160a01b0390811691161490565b600c5460ff1690565b6000818152600460205260408120546001600160a01b03168061052f5760405162461bcd60e51b81526004016105f1906129c5565b60405162461bcd60e51b81526004016105f190612a7f565b60006001600160a01b0382166109275760405162461bcd60e51b81526004016105f190612968565b506001600160a01b031660009081526005602052604090205490565b60115481565b6109757f65d7a28e3265b37a6474929f336521b332c1681b933f6cb9f3376673440d862a610444610fff565b6109915760405162461bcd60e51b81526004016105f19061271c565b6107ea6113be565b60008281526001602052604081206109b19083611419565b9392505050565b6000918252602082815260408084206001600160a01b0393909316845291905290205460ff1690565b60105460408051634a32c6bf60e11b815290516001600160a01b03909216916391d148549183916394658d7e91600480820192602092909190829003018186803b158015610a2e57600080fd5b505afa158015610a42573d6000803e3d6000fd5b505050506040513d601f19601f82011682018060405250810190610a669190612325565b610a6e610fff565b6040518363ffffffff1660e01b8152600401610a8b929190612538565b60206040518083038186803b158015610aa357600080fd5b505afa158015610ab7573d6000803e3d6000fd5b505050506040513d601f19601f82011682018060405250810190610adb91906122f1565b610af75760405162461bcd60e51b81526004016105f190612877565b6106a960128383611ff7565b60606003805461054690612edf565b600081565b610b1f610fff565b6001600160a01b0316826001600160a01b03161415610b505760405162461bcd60e51b81526004016105f1906127bd565b8060076000610b5d610fff565b6001600160a01b03908116825260208083019390935260409182016000908120918716808252919093529120805460ff191692151592909217909155610ba1610fff565b6001600160a01b03167f17307eab39ab6107e8899845ad3d59bd9653f200f220920489ca2b5937696c3183604051610bd99190612524565b60405180910390a35050565b610bf6610bf0610fff565b8361107c565b610c125760405162461bcd60e51b81526004016105f190612c32565b610c1e84848484611425565b50505050565b60128054610c3190612edf565b80601f0160208091040260200160405190810160405280929190818152602001828054610c5d90612edf565b8015610caa5780601f10610c7f57610100808354040283529160200191610caa565b820191906000526020600020905b815481529060010190602001808311610c8d57829003601f168201915b505050505081565b6060610cbd82610fe2565b610cd95760405162461bcd60e51b81526004016105f190612b94565b6000610ce3611458565b90506000815111610d0357604051806020016040528060008152506109b1565b80610d0d84611467565b604051602001610d1e929190612424565b6040516020818303038152906040529392505050565b600081815260016020526040812061052f90611582565b7f9f2df0fed2c77648de5860a4cc508cd0818c85b8b8a1ab4ceeef8d981c8956a681565b610782828261158d565b7f65d7a28e3265b37a6474929f336521b332c1681b933f6cb9f3376673440d862a81565b60606012805461054690612edf565b6001600160a01b03918216600090815260076020908152604080832093909416825291909152205460ff1690565b601060009054906101000a90046001600160a01b03166001600160a01b0316639d2f83f06040518163ffffffff1660e01b815260040160206040518083038186803b158015610e2857600080fd5b505afa158015610e3c573d6000803e3d6000fd5b505050506040513d601f19601f82011682018060405250810190610e6091906122f1565b15610e7d5760405162461bcd60e51b81526004016105f190612931565b610ea97f9f2df0fed2c77648de5860a4cc508cd0818c85b8b8a1ab4ceeef8d981c8956a6610444610fff565b610ec55760405162461bcd60e51b81526004016105f190612a22565b601154610ed284826115ac565b600160116000828254610ee59190612e3a565b90915550506000818152601360205260409020610f03908484611ff7565b50836001600160a01b03167fe7cd4ce7f2a465edc730269a1305e8a48bad821e8fb7e152ec413829c01a53c4828585604051610f4193929190612e04565b60405180910390a250505050565b60136020526000908152604090208054610c3190612edf565b6000610f7333610895565b15610f87575060131936013560601c6105c7565b610f8f610fb9565b90506105c7565b610fa0828261168b565b5050565b60006109b1836001600160a01b038416611710565b3390565b60006001600160e01b0319821663780e9d6360e01b148061052f575061052f8261175a565b6000908152600460205260409020546001600160a01b0316151590565b6000611009610f68565b905090565b600081815260066020526040902080546001600160a01b0319166001600160a01b0384169081179091558190611043826108b2565b6001600160a01b03167f8c5be1e5ebec7d5bd14f71427d1e84f3dd0314c0f7b2291e5b200ac8c7c3b92560405160405180910390a45050565b600061108782610fe2565b6110a35760405162461bcd60e51b81526004016105f1906127f4565b60006110ae836108b2565b9050806001600160a01b0316846001600160a01b031614806110e95750836001600160a01b03166110de846105ca565b6001600160a01b0316145b806110f957506110f98185610dac565b949350505050565b826001600160a01b0316611114826108b2565b6001600160a01b03161461113a5760405162461bcd60e51b81526004016105f190612b37565b6001600160a01b0382166111605760405162461bcd60e51b81526004016105f190612779565b61116b83838361179a565b61117660008261100e565b6001600160a01b038316600090815260056020526040812080546001929061119f908490612e85565b90915550506001600160a01b03821660009081526005602052604081208054600192906111cd908490612e3a565b909155505060008181526004602052604080822080546001600160a01b0319166001600160a01b0386811691821790925591518493918716917fddf252ad1be2c89b69c2b068fc378daa952ba7f163c4a11628f55a4df523b3ef91a4505050565b611237826106ec565b61124881611243610fff565b6117a5565b6106a9838361168b565b61125a610fff565b6001600160a01b0316816001600160a01b03161461128a5760405162461bcd60e51b81526004016105f190612da7565b610fa08282611809565b60006109b1836001600160a01b03841661188c565b6112b16108a9565b6112cd5760405162461bcd60e51b81526004016105f1906125f4565b600c805460ff191690557f5db9ee0a495bf2e6ff9c91a7834c1ba4fdd244a5e8aa4e537bd38aeae4b073aa611300610fff565b60405161130d91906124d4565b60405180910390a1565b6000611322826108b2565b90506113308160008461179a565b61133b60008361100e565b6001600160a01b0381166000908152600560205260408120805460019290611364908490612e85565b909155505060008281526004602052604080822080546001600160a01b0319169055518391906001600160a01b038416907fddf252ad1be2c89b69c2b068fc378daa952ba7f163c4a11628f55a4df523b3ef908390a45050565b6113c66108a9565b156113e35760405162461bcd60e51b81526004016105f190612840565b600c805460ff191660011790557f62e78cea01bee320cd4e420270b5ea74000d11b0c9f74754ebdbfc544b05a258611300610fff565b60006109b183836119a9565b611430848484611101565b61143c848484846119e1565b610c1e5760405162461bcd60e51b81526004016105f190612688565b6060600e805461054690612edf565b60608161148c57506040805180820190915260018152600360fc1b6020820152610532565b8160005b81156114b657806114a081612f1a565b91506114af9050600a83612e52565b9150611490565b60008167ffffffffffffffff8111156114df57634e487b7160e01b600052604160045260246000fd5b6040519080825280601f01601f191660200182016040528015611509576020820181803683370190505b5090505b84156110f95761151e600183612e85565b915061152b600a86612f35565b611536906030612e3a565b60f81b81838151811061155957634e487b7160e01b600052603260045260246000fd5b60200101906001600160f81b031916908160001a90535061157b600a86612e52565b945061150d565b600061052f82611afc565b611596826106ec565b6115a281611243610fff565b6106a98383611809565b6001600160a01b0382166115d25760405162461bcd60e51b81526004016105f190612ab6565b6115db81610fe2565b156115f85760405162461bcd60e51b81526004016105f1906126e5565b6116046000838361179a565b6001600160a01b038216600090815260056020526040812080546001929061162d908490612e3a565b909155505060008181526004602052604080822080546001600160a01b0319166001600160a01b03861690811790915590518392907fddf252ad1be2c89b69c2b068fc378daa952ba7f163c4a11628f55a4df523b3ef908290a45050565b61169582826109b8565b610fa0576000828152602081815260408083206001600160a01b03851684529091529020805460ff191660011790556116cc610fff565b6001600160a01b0316816001600160a01b0316837f2f8788117e7eff1d82e926ec794901d17c78024a50270940304540a733656f0d60405160405180910390a45050565b600061171c8383611b00565b61175257508154600181810184556000848152602080822090930184905584548482528286019093526040902091909155610772565b506000610772565b60006001600160e01b031982166380ac58cd60e01b148061178b57506001600160e01b03198216635b5e139f60e01b145b8061052f575061052f82611b18565b6106a9838383611b3d565b6117af82826109b8565b610fa0576117c7816001600160a01b03166014611b6d565b6117d2836020611b6d565b6040516020016117e3929190612453565b60408051601f198184030181529082905262461bcd60e51b82526105f19160040161254f565b61181382826109b8565b15610fa0576000828152602081815260408083206001600160a01b03851684529091529020805460ff19169055611848610fff565b6001600160a01b0316816001600160a01b0316837ff6391f5c32d9c69d2a47ea670b442974b53935d1edc7fd64eb21e047a839171b60405160405180910390a45050565b6000818152600183016020526040812054801561199f5760006118b0600183612e85565b85549091506000906118c490600190612e85565b90508181146119455760008660000182815481106118f257634e487b7160e01b600052603260045260246000fd5b906000526020600020015490508087600001848154811061192357634e487b7160e01b600052603260045260246000fd5b6000918252602080832090910192909255918252600188019052604090208390555b855486908061196457634e487b7160e01b600052603160045260246000fd5b600190038181906000526020600020016000905590558560010160008681526020019081526020016000206000905560019350505050610772565b6000915050610772565b60008260000182815481106119ce57634e487b7160e01b600052603260045260246000fd5b9060005260206000200154905092915050565b60006119f5846001600160a01b0316611d2c565b15611af157836001600160a01b031663150b7a02611a11610fff565b8786866040518563ffffffff1660e01b8152600401611a3394939291906124e8565b602060405180830381600087803b158015611a4d57600080fd5b505af1925050508015611a7d575060408051601f3d908101601f19168201909252611a7a9181019061239c565b60015b611ad7573d808015611aab576040519150601f19603f3d011682016040523d82523d6000602084013e611ab0565b606091505b508051611acf5760405162461bcd60e51b81526004016105f190612688565b805181602001fd5b6001600160e01b031916630a85bd0160e11b1490506110f9565b506001949350505050565b5490565b60009081526001919091016020526040902054151590565b60006001600160e01b03198216635a05180f60e01b148061052f575061052f82611d32565b611b48838383611d57565b611b506108a9565b156106a95760405162461bcd60e51b81526004016105f190612597565b60606000611b7c836002612e66565b611b87906002612e3a565b67ffffffffffffffff811115611bad57634e487b7160e01b600052604160045260246000fd5b6040519080825280601f01601f191660200182016040528015611bd7576020820181803683370190505b509050600360fc1b81600081518110611c0057634e487b7160e01b600052603260045260246000fd5b60200101906001600160f81b031916908160001a905350600f60fb1b81600181518110611c3d57634e487b7160e01b600052603260045260246000fd5b60200101906001600160f81b031916908160001a9053506000611c61846002612e66565b611c6c906001612e3a565b90505b6001811115611d0d577f303132333435363738396162636465660000000000000000000000000000000085600f1660108110611cbb57634e487b7160e01b600052603260045260246000fd5b1a60f81b828281518110611cdf57634e487b7160e01b600052603260045260246000fd5b60200101906001600160f81b031916908160001a90535060049490941c93611d0681612ec8565b9050611c6f565b5083156109b15760405162461bcd60e51b81526004016105f190612562565b3b151590565b60006001600160e01b03198216637965db0b60e01b148061052f575061052f82611de0565b611d628383836106a9565b6001600160a01b038316611d7e57611d7981611df9565b611da1565b816001600160a01b0316836001600160a01b031614611da157611da18382611e3d565b6001600160a01b038216611dbd57611db881611eda565b6106a9565b826001600160a01b0316826001600160a01b0316146106a9576106a98282611fb3565b6001600160e01b031981166301ffc9a760e01b14919050565b600a80546000838152600b60205260408120829055600182018355919091527fc65a7bb8d6351c1cf70c95a316cc6a92839c986682d98bc35f958f4883f9d2a80155565b60006001611e4a846108ff565b611e549190612e85565b600083815260096020526040902054909150808214611ea7576001600160a01b03841660009081526008602090815260408083208584528252808320548484528184208190558352600990915290208190555b5060009182526009602090815260408084208490556001600160a01b039094168352600881528383209183525290812055565b600a54600090611eec90600190612e85565b6000838152600b6020526040812054600a8054939450909284908110611f2257634e487b7160e01b600052603260045260246000fd5b9060005260206000200154905080600a8381548110611f5157634e487b7160e01b600052603260045260246000fd5b6000918252602080832090910192909255828152600b9091526040808220849055858252812055600a805480611f9757634e487b7160e01b600052603160045260246000fd5b6001900381819060005260206000200160009055905550505050565b6000611fbe836108ff565b6001600160a01b039093166000908152600860209081526040808320868452825280832085905593825260099052919091209190915550565b82805461200390612edf565b90600052602060002090601f016020900481019282612025576000855561206b565b82601f1061203e5782800160ff1982351617855561206b565b8280016001018555821561206b579182015b8281111561206b578235825591602001919060010190612050565b5061207792915061207b565b5090565b5b80821115612077576000815560010161207c565b80356001600160a01b038116811461053257600080fd5b60008083601f8401126120b8578182fd5b50813567ffffffffffffffff8111156120cf578182fd5b6020830191508360208285010111156120e757600080fd5b9250929050565b6000602082840312156120ff578081fd5b6109b182612090565b6000806040838503121561211a578081fd5b61212383612090565b915061213160208401612090565b90509250929050565b60008060006060848603121561214e578081fd5b61215784612090565b925061216560208501612090565b9150604084013590509250925092565b6000806000806080858703121561218a578081fd5b61219385612090565b935060206121a2818701612090565b935060408601359250606086013567ffffffffffffffff808211156121c5578384fd5b818801915088601f8301126121d8578384fd5b8135818111156121ea576121ea612f75565b604051601f8201601f191681018501838111828210171561220d5761220d612f75565b60405281815283820185018b1015612223578586fd5b81858501868301379081019093019390935250939692955090935050565b60008060408385031215612253578182fd5b61225c83612090565b9150602083013561226c81612f8b565b809150509250929050565b60008060006040848603121561228b578283fd5b61229484612090565b9250602084013567ffffffffffffffff8111156122af578283fd5b6122bb868287016120a7565b9497909650939450505050565b600080604083850312156122da578182fd5b6122e383612090565b946020939093013593505050565b600060208284031215612302578081fd5b81516109b181612f8b565b60006020828403121561231e578081fd5b5035919050565b600060208284031215612336578081fd5b5051919050565b6000806040838503121561234f578182fd5b8235915061213160208401612090565b60008060408385031215612371578182fd5b50508035926020909101359150565b600060208284031215612391578081fd5b81356109b181612f99565b6000602082840312156123ad578081fd5b81516109b181612f99565b600080602083850312156123ca578182fd5b823567ffffffffffffffff8111156123e0578283fd5b6123ec858286016120a7565b90969095509350505050565b60008151808452612410816020860160208601612e9c565b601f01601f19169290920160200192915050565b60008351612436818460208801612e9c565b83519083019061244a818360208801612e9c565b01949350505050565b60007f416363657373436f6e74726f6c3a206163636f756e74200000000000000000008252835161248b816017850160208801612e9c565b7f206973206d697373696e6720726f6c652000000000000000000000000000000060179184019182015283516124c8816028840160208801612e9c565b01602801949350505050565b6001600160a01b0391909116815260200190565b60006001600160a01b0380871683528086166020840152508360408301526080606083015261251a60808301846123f8565b9695505050505050565b901515815260200190565b90815260200190565b9182526001600160a01b0316602082015260400190565b6000602082526109b160208301846123f8565b6020808252818101527f537472696e67733a20686578206c656e67746820696e73756666696369656e74604082015260600190565b6020808252602b908201527f4552433732315061757361626c653a20746f6b656e207472616e73666572207760408201527f68696c6520706175736564000000000000000000000000000000000000000000606082015260800190565b60208082526014908201527f5061757361626c653a206e6f7420706175736564000000000000000000000000604082015260600190565b6020808252602b908201527f455243373231456e756d657261626c653a206f776e657220696e646578206f7560408201527f74206f6620626f756e6473000000000000000000000000000000000000000000606082015260800190565b60208082526032908201527f4552433732313a207472616e7366657220746f206e6f6e20455243373231526560408201527f63656976657220696d706c656d656e7465720000000000000000000000000000606082015260800190565b6020808252601c908201527f4552433732313a20746f6b656e20616c7265616479206d696e74656400000000604082015260600190565b6020808252603e908201527f4552433732315072657365744d696e7465725061757365724175746f49643a2060408201527f6d75737420686176652070617573657220726f6c6520746f2070617573650000606082015260800190565b60208082526024908201527f4552433732313a207472616e7366657220746f20746865207a65726f206164646040820152637265737360e01b606082015260800190565b60208082526019908201527f4552433732313a20617070726f766520746f2063616c6c657200000000000000604082015260600190565b6020808252602c908201527f4552433732313a206f70657261746f7220717565727920666f72206e6f6e657860408201526b34b9ba32b73a103a37b5b2b760a11b606082015260800190565b60208082526010908201527f5061757361626c653a2070617573656400000000000000000000000000000000604082015260600190565b60208082526035908201527f4e46543732313a206f6e6c7920612070726f746f636f6c2061646d696e20636160408201527f6e2063616c6c20746869732066756e6374696f6e2e0000000000000000000000606082015260800190565b60208082526038908201527f4552433732313a20617070726f76652063616c6c6572206973206e6f74206f7760408201527f6e6572206e6f7220617070726f76656420666f7220616c6c0000000000000000606082015260800190565b6020808252601f908201527f4e46543732313a205468652070726f746f636f6c206973207061757365642e00604082015260600190565b6020808252602a908201527f4552433732313a2062616c616e636520717565727920666f7220746865207a6560408201527f726f206164647265737300000000000000000000000000000000000000000000606082015260800190565b60208082526029908201527f4552433732313a206f776e657220717565727920666f72206e6f6e657869737460408201527f656e7420746f6b656e0000000000000000000000000000000000000000000000606082015260800190565b60208082526025908201527f4e46543732313a206d7573742068617665206d696e74657220726f6c6520746f60408201527f206d696e74000000000000000000000000000000000000000000000000000000606082015260800190565b6020808252601d908201527f4e46543732313a2043616c6c206d696e744e465420696e73746561642e000000604082015260600190565b6020808252818101527f4552433732313a206d696e7420746f20746865207a65726f2061646472657373604082015260600190565b6020808252602c908201527f4552433732313a20617070726f76656420717565727920666f72206e6f6e657860408201526b34b9ba32b73a103a37b5b2b760a11b606082015260800190565b60208082526029908201527f4552433732313a207472616e73666572206f6620746f6b656e2074686174206960408201527f73206e6f74206f776e0000000000000000000000000000000000000000000000606082015260800190565b6020808252602f908201527f4552433732314d657461646174613a2055524920717565727920666f72206e6f60408201527f6e6578697374656e7420746f6b656e0000000000000000000000000000000000606082015260800190565b60208082526021908201527f4552433732313a20617070726f76616c20746f2063757272656e74206f776e656040820152603960f91b606082015260800190565b60208082526031908201527f4552433732313a207472616e736665722063616c6c6572206973206e6f74206f60408201527f776e6572206e6f7220617070726f766564000000000000000000000000000000606082015260800190565b6020808252602c908201527f455243373231456e756d657261626c653a20676c6f62616c20696e646578206f60408201527f7574206f6620626f756e64730000000000000000000000000000000000000000606082015260800190565b60208082526030908201527f4552433732314275726e61626c653a2063616c6c6572206973206e6f74206f7760408201527f6e6572206e6f7220617070726f76656400000000000000000000000000000000606082015260800190565b602080825260409082018190527f4552433732315072657365744d696e7465725061757365724175746f49643a20908201527f6d75737420686176652070617573657220726f6c6520746f20756e7061757365606082015260800190565b6020808252602f908201527f416363657373436f6e74726f6c3a2063616e206f6e6c792072656e6f756e636560408201527f20726f6c657320666f722073656c660000000000000000000000000000000000606082015260800190565b60008482526040602083015282604083015282846060840137818301606090810191909152601f909201601f1916010192915050565b60008219821115612e4d57612e4d612f49565b500190565b600082612e6157612e61612f5f565b500490565b6000816000190483118215151615612e8057612e80612f49565b500290565b600082821015612e9757612e97612f49565b500390565b60005b83811015612eb7578181015183820152602001612e9f565b83811115610c1e5750506000910152565b600081612ed757612ed7612f49565b506000190190565b600281046001821680612ef357607f821691505b60208210811415612f1457634e487b7160e01b600052602260045260246000fd5b50919050565b6000600019821415612f2e57612f2e612f49565b5060010190565b600082612f4457612f44612f5f565b500690565b634e487b7160e01b600052601160045260246000fd5b634e487b7160e01b600052601260045260246000fd5b634e487b7160e01b600052604160045260246000fd5b801515811461083757600080fd5b6001600160e01b03198116811461083757600080fdfea164736f6c6343000800000a",
  "linkReferences": {},
  "deployedLinkReferences": {}
}