{
  "_format": "hh-sol-artifact-1",
  "contractName": "NFT",
  "sourceName": "contracts/NFT.sol",
  "abi": [
    {
      "inputs": [
        {
          "internalType": "address payable",
          "name": "_controlCenter",
          "type": "address"
        },
        {
          "internalType": "string",
          "name": "_name",
          "type": "string"
        },
        {
          "internalType": "string",
          "name": "_symbol",
          "type": "string"
        },
        {
          "internalType": "address",
          "name": "_trustedForwarder",
          "type": "address"
        },
        {
          "internalType": "string",
          "name": "_uri",
          "type": "string"
        }
      ],
      "stateMutability": "nonpayable",
      "type": "constructor"
    },
    {
      "anonymous": false,
      "inputs": [
        {
          "indexed": true,
          "internalType": "address",
          "name": "owner",
          "type": "address"
        },
        {
          "indexed": true,
          "internalType": "address",
          "name": "approved",
          "type": "address"
        },
        {
          "indexed": true,
          "internalType": "uint256",
          "name": "tokenId",
          "type": "uint256"
        }
      ],
      "name": "Approval",
      "type": "event"
    },
    {
      "anonymous": false,
      "inputs": [
        {
          "indexed": true,
          "internalType": "address",
          "name": "owner",
          "type": "address"
        },
        {
          "indexed": true,
          "internalType": "address",
          "name": "operator",
          "type": "address"
        },
        {
          "indexed": false,
          "internalType": "bool",
          "name": "approved",
          "type": "bool"
        }
      ],
      "name": "ApprovalForAll",
      "type": "event"
    },
    {
      "anonymous": false,
      "inputs": [
        {
          "indexed": true,
          "internalType": "address",
          "name": "creator",
          "type": "address"
        },
        {
          "indexed": true,
          "internalType": "address",
          "name": "to",
          "type": "address"
        },
        {
          "indexed": false,
          "internalType": "uint256",
          "name": "tokenId",
          "type": "uint256"
        },
        {
          "indexed": false,
          "internalType": "string",
          "name": "tokenURI",
          "type": "string"
        }
      ],
      "name": "Minted",
      "type": "event"
    },
    {
      "anonymous": false,
      "inputs": [
        {
          "indexed": true,
          "internalType": "address",
          "name": "creator",
          "type": "address"
        },
        {
          "indexed": true,
          "internalType": "address",
          "name": "to",
          "type": "address"
        },
        {
          "indexed": false,
          "internalType": "uint256[]",
          "name": "tokenIds",
          "type": "uint256[]"
        },
        {
          "indexed": false,
          "internalType": "string[]",
          "name": "tokenURI",
          "type": "string[]"
        }
      ],
      "name": "MintedBatch",
      "type": "event"
    },
    {
      "anonymous": false,
      "inputs": [
        {
          "indexed": false,
          "internalType": "address",
          "name": "account",
          "type": "address"
        }
      ],
      "name": "Paused",
      "type": "event"
    },
    {
      "anonymous": false,
      "inputs": [
        {
          "indexed": true,
          "internalType": "bytes32",
          "name": "role",
          "type": "bytes32"
        },
        {
          "indexed": true,
          "internalType": "bytes32",
          "name": "previousAdminRole",
          "type": "bytes32"
        },
        {
          "indexed": true,
          "internalType": "bytes32",
          "name": "newAdminRole",
          "type": "bytes32"
        }
      ],
      "name": "RoleAdminChanged",
      "type": "event"
    },
    {
      "anonymous": false,
      "inputs": [
        {
          "indexed": true,
          "internalType": "bytes32",
          "name": "role",
          "type": "bytes32"
        },
        {
          "indexed": true,
          "internalType": "address",
          "name": "account",
          "type": "address"
        },
        {
          "indexed": true,
          "internalType": "address",
          "name": "sender",
          "type": "address"
        }
      ],
      "name": "RoleGranted",
      "type": "event"
    },
    {
      "anonymous": false,
      "inputs": [
        {
          "indexed": true,
          "internalType": "bytes32",
          "name": "role",
          "type": "bytes32"
        },
        {
          "indexed": true,
          "internalType": "address",
          "name": "account",
          "type": "address"
        },
        {
          "indexed": true,
          "internalType": "address",
          "name": "sender",
          "type": "address"
        }
      ],
      "name": "RoleRevoked",
      "type": "event"
    },
    {
      "anonymous": false,
      "inputs": [
        {
          "indexed": false,
          "internalType": "uint256",
          "name": "royaltyBps",
          "type": "uint256"
        }
      ],
      "name": "RoyaltyUpdated",
      "type": "event"
    },
    {
      "anonymous": false,
      "inputs": [
        {
          "indexed": true,
          "internalType": "address",
          "name": "from",
          "type": "address"
        },
        {
          "indexed": true,
          "internalType": "address",
          "name": "to",
          "type": "address"
        },
        {
          "indexed": true,
          "internalType": "uint256",
          "name": "tokenId",
          "type": "uint256"
        }
      ],
      "name": "Transfer",
      "type": "event"
    },
    {
      "anonymous": false,
      "inputs": [
        {
          "indexed": false,
          "internalType": "address",
          "name": "account",
          "type": "address"
        }
      ],
      "name": "Unpaused",
      "type": "event"
    },
    {
      "inputs": [],
      "name": "DEFAULT_ADMIN_ROLE",
      "outputs": [
        {
          "internalType": "bytes32",
          "name": "",
          "type": "bytes32"
        }
      ],
      "stateMutability": "view",
      "type": "function"
    },
    {
      "inputs": [],
      "name": "MINTER_ROLE",
      "outputs": [
        {
          "internalType": "bytes32",
          "name": "",
          "type": "bytes32"
        }
      ],
      "stateMutability": "view",
      "type": "function"
    },
    {
      "inputs": [],
      "name": "PAUSER_ROLE",
      "outputs": [
        {
          "internalType": "bytes32",
          "name": "",
          "type": "bytes32"
        }
      ],
      "stateMutability": "view",
      "type": "function"
    },
    {
      "inputs": [],
      "name": "_contractURI",
      "outputs": [
        {
          "internalType": "string",
          "name": "",
          "type": "string"
        }
      ],
      "stateMutability": "view",
      "type": "function"
    },
    {
      "inputs": [
        {
          "internalType": "address",
          "name": "to",
          "type": "address"
        },
        {
          "internalType": "uint256",
          "name": "tokenId",
          "type": "uint256"
        }
      ],
      "name": "approve",
      "outputs": [],
      "stateMutability": "nonpayable",
      "type": "function"
    },
    {
      "inputs": [
        {
          "internalType": "address",
          "name": "owner",
          "type": "address"
        }
      ],
      "name": "balanceOf",
      "outputs": [
        {
          "internalType": "uint256",
          "name": "",
          "type": "uint256"
        }
      ],
      "stateMutability": "view",
      "type": "function"
    },
    {
      "inputs": [
        {
          "internalType": "uint256",
          "name": "tokenId",
          "type": "uint256"
        }
      ],
      "name": "burn",
      "outputs": [],
      "stateMutability": "nonpayable",
      "type": "function"
    },
    {
      "inputs": [],
      "name": "contractURI",
      "outputs": [
        {
          "internalType": "string",
          "name": "",
          "type": "string"
        }
      ],
      "stateMutability": "view",
      "type": "function"
    },
    {
      "inputs": [
        {
          "internalType": "uint256",
          "name": "tokenId",
          "type": "uint256"
        }
      ],
      "name": "getApproved",
      "outputs": [
        {
          "internalType": "address",
          "name": "",
          "type": "address"
        }
      ],
      "stateMutability": "view",
      "type": "function"
    },
    {
      "inputs": [
        {
          "internalType": "bytes32",
          "name": "role",
          "type": "bytes32"
        }
      ],
      "name": "getRoleAdmin",
      "outputs": [
        {
          "internalType": "bytes32",
          "name": "",
          "type": "bytes32"
        }
      ],
      "stateMutability": "view",
      "type": "function"
    },
    {
      "inputs": [
        {
          "internalType": "bytes32",
          "name": "role",
          "type": "bytes32"
        },
        {
          "internalType": "uint256",
          "name": "index",
          "type": "uint256"
        }
      ],
      "name": "getRoleMember",
      "outputs": [
        {
          "internalType": "address",
          "name": "",
          "type": "address"
        }
      ],
      "stateMutability": "view",
      "type": "function"
    },
    {
      "inputs": [
        {
          "internalType": "bytes32",
          "name": "role",
          "type": "bytes32"
        }
      ],
      "name": "getRoleMemberCount",
      "outputs": [
        {
          "internalType": "uint256",
          "name": "",
          "type": "uint256"
        }
      ],
      "stateMutability": "view",
      "type": "function"
    },
    {
      "inputs": [
        {
          "internalType": "bytes32",
          "name": "role",
          "type": "bytes32"
        },
        {
          "internalType": "address",
          "name": "account",
          "type": "address"
        }
      ],
      "name": "grantRole",
      "outputs": [],
      "stateMutability": "nonpayable",
      "type": "function"
    },
    {
      "inputs": [
        {
          "internalType": "bytes32",
          "name": "role",
          "type": "bytes32"
        },
        {
          "internalType": "address",
          "name": "account",
          "type": "address"
        }
      ],
      "name": "hasRole",
      "outputs": [
        {
          "internalType": "bool",
          "name": "",
          "type": "bool"
        }
      ],
      "stateMutability": "view",
      "type": "function"
    },
    {
      "inputs": [
        {
          "internalType": "address",
          "name": "owner",
          "type": "address"
        },
        {
          "internalType": "address",
          "name": "operator",
          "type": "address"
        }
      ],
      "name": "isApprovedForAll",
      "outputs": [
        {
          "internalType": "bool",
          "name": "",
          "type": "bool"
        }
      ],
      "stateMutability": "view",
      "type": "function"
    },
    {
      "inputs": [
        {
          "internalType": "address",
          "name": "forwarder",
          "type": "address"
        }
      ],
      "name": "isTrustedForwarder",
      "outputs": [
        {
          "internalType": "bool",
          "name": "",
          "type": "bool"
        }
      ],
      "stateMutability": "view",
      "type": "function"
    },
    {
      "inputs": [
        {
          "internalType": "address",
          "name": "",
          "type": "address"
        }
      ],
      "name": "mint",
      "outputs": [],
      "stateMutability": "pure",
      "type": "function"
    },
    {
      "inputs": [
        {
          "internalType": "address",
          "name": "_to",
          "type": "address"
        },
        {
          "internalType": "string",
          "name": "_uri",
          "type": "string"
        }
      ],
      "name": "mintNFT",
      "outputs": [],
      "stateMutability": "nonpayable",
      "type": "function"
    },
    {
      "inputs": [
        {
          "internalType": "address",
          "name": "_to",
          "type": "address"
        },
        {
          "internalType": "string[]",
          "name": "_uris",
          "type": "string[]"
        }
      ],
      "name": "mintNFTBatch",
      "outputs": [],
      "stateMutability": "nonpayable",
      "type": "function"
    },
    {
      "inputs": [],
      "name": "name",
      "outputs": [
        {
          "internalType": "string",
          "name": "",
          "type": "string"
        }
      ],
      "stateMutability": "view",
      "type": "function"
    },
    {
      "inputs": [],
      "name": "nextTokenId",
      "outputs": [
        {
          "internalType": "uint256",
          "name": "",
          "type": "uint256"
        }
      ],
      "stateMutability": "view",
      "type": "function"
    },
    {
      "inputs": [
        {
          "internalType": "uint256",
          "name": "",
          "type": "uint256"
        }
      ],
      "name": "nftCreator",
      "outputs": [
        {
          "internalType": "address",
          "name": "",
          "type": "address"
        }
      ],
      "stateMutability": "view",
      "type": "function"
    },
    {
      "inputs": [
        {
          "internalType": "uint256",
          "name": "",
          "type": "uint256"
        }
      ],
      "name": "nftURI",
      "outputs": [
        {
          "internalType": "string",
          "name": "",
          "type": "string"
        }
      ],
      "stateMutability": "view",
      "type": "function"
    },
    {
      "inputs": [
        {
          "internalType": "uint256",
          "name": "tokenId",
          "type": "uint256"
        }
      ],
      "name": "ownerOf",
      "outputs": [
        {
          "internalType": "address",
          "name": "",
          "type": "address"
        }
      ],
      "stateMutability": "view",
      "type": "function"
    },
    {
      "inputs": [],
      "name": "pause",
      "outputs": [],
      "stateMutability": "nonpayable",
      "type": "function"
    },
    {
      "inputs": [],
      "name": "paused",
      "outputs": [
        {
          "internalType": "bool",
          "name": "",
          "type": "bool"
        }
      ],
      "stateMutability": "view",
      "type": "function"
    },
    {
      "inputs": [
        {
          "internalType": "bytes32",
          "name": "role",
          "type": "bytes32"
        },
        {
          "internalType": "address",
          "name": "account",
          "type": "address"
        }
      ],
      "name": "renounceRole",
      "outputs": [],
      "stateMutability": "nonpayable",
      "type": "function"
    },
    {
      "inputs": [
        {
          "internalType": "bytes32",
          "name": "role",
          "type": "bytes32"
        },
        {
          "internalType": "address",
          "name": "account",
          "type": "address"
        }
      ],
      "name": "revokeRole",
      "outputs": [],
      "stateMutability": "nonpayable",
      "type": "function"
    },
    {
      "inputs": [],
      "name": "royaltyBps",
      "outputs": [
        {
          "internalType": "uint256",
          "name": "",
          "type": "uint256"
        }
      ],
      "stateMutability": "view",
      "type": "function"
    },
    {
      "inputs": [
        {
          "internalType": "uint256",
          "name": "tokenId",
          "type": "uint256"
        },
        {
          "internalType": "uint256",
          "name": "salePrice",
          "type": "uint256"
        }
      ],
      "name": "royaltyInfo",
      "outputs": [
        {
          "internalType": "address",
          "name": "receiver",
          "type": "address"
        },
        {
          "internalType": "uint256",
          "name": "royaltyAmount",
          "type": "uint256"
        }
      ],
      "stateMutability": "view",
      "type": "function"
    },
    {
      "inputs": [
        {
          "internalType": "address",
          "name": "from",
          "type": "address"
        },
        {
          "internalType": "address",
          "name": "to",
          "type": "address"
        },
        {
          "internalType": "uint256",
          "name": "tokenId",
          "type": "uint256"
        }
      ],
      "name": "safeTransferFrom",
      "outputs": [],
      "stateMutability": "nonpayable",
      "type": "function"
    },
    {
      "inputs": [
        {
          "internalType": "address",
          "name": "from",
          "type": "address"
        },
        {
          "internalType": "address",
          "name": "to",
          "type": "address"
        },
        {
          "internalType": "uint256",
          "name": "tokenId",
          "type": "uint256"
        },
        {
          "internalType": "bytes",
          "name": "_data",
          "type": "bytes"
        }
      ],
      "name": "safeTransferFrom",
      "outputs": [],
      "stateMutability": "nonpayable",
      "type": "function"
    },
    {
      "inputs": [
        {
          "internalType": "address",
          "name": "operator",
          "type": "address"
        },
        {
          "internalType": "bool",
          "name": "approved",
          "type": "bool"
        }
      ],
      "name": "setApprovalForAll",
      "outputs": [],
      "stateMutability": "nonpayable",
      "type": "function"
    },
    {
      "inputs": [
        {
          "internalType": "string",
          "name": "_URI",
          "type": "string"
        }
      ],
      "name": "setContractURI",
      "outputs": [],
      "stateMutability": "nonpayable",
      "type": "function"
    },
    {
      "inputs": [
        {
          "internalType": "uint256",
          "name": "_royaltyBps",
          "type": "uint256"
        }
      ],
      "name": "setRoyaltyBps",
      "outputs": [],
      "stateMutability": "nonpayable",
      "type": "function"
    },
    {
      "inputs": [
        {
          "internalType": "bytes4",
          "name": "interfaceId",
          "type": "bytes4"
        }
      ],
      "name": "supportsInterface",
      "outputs": [
        {
          "internalType": "bool",
          "name": "",
          "type": "bool"
        }
      ],
      "stateMutability": "view",
      "type": "function"
    },
    {
      "inputs": [],
      "name": "symbol",
      "outputs": [
        {
          "internalType": "string",
          "name": "",
          "type": "string"
        }
      ],
      "stateMutability": "view",
      "type": "function"
    },
    {
      "inputs": [
        {
          "internalType": "uint256",
          "name": "index",
          "type": "uint256"
        }
      ],
      "name": "tokenByIndex",
      "outputs": [
        {
          "internalType": "uint256",
          "name": "",
          "type": "uint256"
        }
      ],
      "stateMutability": "view",
      "type": "function"
    },
    {
      "inputs": [
        {
          "internalType": "address",
          "name": "owner",
          "type": "address"
        },
        {
          "internalType": "uint256",
          "name": "index",
          "type": "uint256"
        }
      ],
      "name": "tokenOfOwnerByIndex",
      "outputs": [
        {
          "internalType": "uint256",
          "name": "",
          "type": "uint256"
        }
      ],
      "stateMutability": "view",
      "type": "function"
    },
    {
      "inputs": [
        {
          "internalType": "uint256",
          "name": "tokenId",
          "type": "uint256"
        }
      ],
      "name": "tokenURI",
      "outputs": [
        {
          "internalType": "string",
          "name": "",
          "type": "string"
        }
      ],
      "stateMutability": "view",
      "type": "function"
    },
    {
      "inputs": [],
      "name": "totalSupply",
      "outputs": [
        {
          "internalType": "uint256",
          "name": "",
          "type": "uint256"
        }
      ],
      "stateMutability": "view",
      "type": "function"
    },
    {
      "inputs": [
        {
          "internalType": "address",
          "name": "from",
          "type": "address"
        },
        {
          "internalType": "address",
          "name": "to",
          "type": "address"
        },
        {
          "internalType": "uint256",
          "name": "tokenId",
          "type": "uint256"
        }
      ],
      "name": "transferFrom",
      "outputs": [],
      "stateMutability": "nonpayable",
      "type": "function"
    },
    {
      "inputs": [],
      "name": "unpause",
      "outputs": [],
      "stateMutability": "nonpayable",
      "type": "function"
    }
  ],
  "bytecode": "0x60806040523480156200001157600080fd5b506040516200410f3803806200410f8339810160408190526200003491620004a6565b81848483828281600290805190602001906200005292919062000355565b5080516200006890600390602084019062000355565b5050600c805460ff191690555080516200008a90600e90602084019062000355565b50620000a160006200009b62000153565b62000170565b620000d07f9f2df0fed2c77648de5860a4cc508cd0818c85b8b8a1ab4ceeef8d981c8956a66200009b62000153565b620000ff7f65d7a28e3265b37a6474929f336521b332c1681b933f6cb9f3376673440d862a6200009b62000153565b5050600f80546001600160a01b03199081166001600160a01b039485161790915560108054909116928816929092179091555080516200014790601290602084019062000355565b505050505050620005cb565b60006200016a620001b360201b620016821760201c565b90505b90565b620001878282620001f360201b620016b01760201c565b6000828152600160209081526040909120620001ae918390620016be62000203821b17901c565b505050565b6000620001c03362000223565b15620001d6575060131936013560601c6200016d565b620001eb6200023760201b620016d31760201c565b90506200016d565b620001ff82826200023b565b5050565b60006200021a836001600160a01b038416620002c5565b90505b92915050565b600f546001600160a01b0390811691161490565b3390565b62000247828262000314565b620001ff576000828152602081815260408083206001600160a01b03851684529091529020805460ff191660011790556200028162000153565b6001600160a01b0316816001600160a01b0316837f2f8788117e7eff1d82e926ec794901d17c78024a50270940304540a733656f0d60405160405180910390a45050565b6000620002d383836200033d565b6200030b575081546001818101845560008481526020808220909301849055845484825282860190935260409020919091556200021d565b5060006200021d565b6000918252602082815260408084206001600160a01b0393909316845291905290205460ff1690565b60009081526001919091016020526040902054151590565b82805462000363906200055f565b90600052602060002090601f016020900481019282620003875760008555620003d2565b82601f10620003a257805160ff1916838001178555620003d2565b82800160010185558215620003d2579182015b82811115620003d2578251825591602001919060010190620003b5565b50620003e0929150620003e4565b5090565b5b80821115620003e05760008155600101620003e5565b600082601f8301126200040c578081fd5b81516001600160401b03808211156200042957620004296200059c565b6040516020601f8401601f19168201810183811183821017156200045157620004516200059c565b604052838252858401810187101562000468578485fd5b8492505b838310156200048b57858301810151828401820152918201916200046c565b838311156200049c57848185840101525b5095945050505050565b600080600080600060a08688031215620004be578081fd5b8551620004cb81620005b2565b60208701519095506001600160401b0380821115620004e8578283fd5b620004f689838a01620003fb565b955060408801519150808211156200050c578283fd5b6200051a89838a01620003fb565b9450606088015191506200052e82620005b2565b60808801519193508082111562000543578283fd5b506200055288828901620003fb565b9150509295509295909350565b6002810460018216806200057457607f821691505b602082108114156200059657634e487b7160e01b600052602260045260246000fd5b50919050565b634e487b7160e01b600052604160045260246000fd5b6001600160a01b0381168114620005c857600080fd5b50565b613b3480620005db6000396000f3fe608060405234801561001057600080fd5b50600436106102e95760003560e01c80636a62784211610191578063c0e72740116100e3578063d547741f11610097578063e985e9c511610071578063e985e9c5146105a4578063eacabe14146105b7578063efe47687146105ca576102e9565b8063d547741f14610581578063e63ab1e914610594578063e8a3d4851461059c576102e9565b8063c87b56dd116100c8578063c87b56dd14610553578063ca15c87314610566578063d539139314610579576102e9565b8063c0e7274014610543578063c63adb2b1461054b576102e9565b806391d1485411610145578063a217fddf1161011f578063a217fddf14610515578063a22cb4651461051d578063b88d4fde14610530576102e9565b806391d14854146104e7578063938e3d7b146104fa57806395d89b411461050d576102e9565b806375794a3c1161017657806375794a3c146104c45780638456cb59146104cc5780639010d07c146104d4576102e9565b80636a6278421461049e57806370a08231146104b1576102e9565b80632f2ff15d1161024a57806342966c68116101fe578063572b6c05116101d8578063572b6c05146104705780635c975abb146104835780636352211e1461048b576102e9565b806342966c681461043757806349a33a2f1461044a5780634f6ccce71461045d576102e9565b806336568abe1161022f57806336568abe146104095780633f4ba83a1461041c57806342842e0e14610424576102e9565b80632f2ff15d146103e35780632f745c59146103f6576102e9565b806318160ddd116102a157806323b872dd1161028657806323b872dd1461039c578063248a9ca3146103af5780632a55205a146103c2576102e9565b806318160ddd146103745780631f72d83114610389576102e9565b8063081812fc116102d2578063081812fc1461032c578063095ea7b31461034c5780630ef3744814610361576102e9565b806301ffc9a7146102ee57806306fdde0314610317575b600080fd5b6103016102fc366004612cbb565b6105dd565b60405161030e9190612fa0565b60405180910390f35b61031f61060b565b60405161030e9190612fcb565b61033f61033a366004612c48565b61069e565b60405161030e9190612e69565b61035f61035a366004612c03565b6106ea565b005b61033f61036f366004612c48565b610782565b61037c61079d565b60405161030e9190612fab565b61035f610397366004612c48565b6107a3565b61035f6103aa3660046129f5565b610a3f565b61037c6103bd366004612c48565b610a77565b6103d56103d0366004612c9a565b610a8c565b60405161030e929190612eb9565b61035f6103f1366004612c78565b610b4d565b61037c610404366004612c03565b610b6f565b61035f610417366004612c78565b610bc4565b61035f610be6565b61035f6104323660046129f5565b610c38565b61035f610445366004612c48565b610c53565b61035f610458366004612afc565b610c86565b61037c61046b366004612c48565b610f09565b61030161047e3660046129b2565b610f64565b610301610f78565b61033f610499366004612c48565b610f81565b61035f6104ac3660046129b2565b610fb6565b61037c6104bf3660046129b2565b610fce565b61037c611012565b61035f611018565b61033f6104e2366004612c9a565b611068565b6103016104f5366004612c78565b611087565b61035f610508366004612cf3565b6110b0565b61031f6111d2565b61037c6111e1565b61035f61052b366004612b7c565b6111e6565b61035f61053e366004612a30565b6112b4565b61031f6112f3565b61037c611381565b61031f610561366004612c48565b611387565b61037c610574366004612c48565b611409565b61037c611420565b61035f61058f366004612c78565b611444565b61037c61144e565b61031f611472565b6103016105b23660046129cc565b611481565b61035f6105c5366004612bb2565b6114af565b61031f6105d8366004612c48565b611669565b60006105e8826116d7565b8061060357506001600160e01b0319821663152a902d60e11b145b90505b919050565b60606002805461061a90613a57565b80601f016020809104026020016040519081016040528092919081815260200182805461064690613a57565b80156106935780601f1061066857610100808354040283529160200191610693565b820191906000526020600020905b81548152906001019060200180831161067657829003601f168201915b505050505090505b90565b60006106a9826116e2565b6106ce5760405162461bcd60e51b81526004016106c59061354c565b60405180910390fd5b506000908152600660205260409020546001600160a01b031690565b60006106f582610f81565b9050806001600160a01b0316836001600160a01b031614156107295760405162461bcd60e51b81526004016106c5906136af565b806001600160a01b031661073b6116ff565b6001600160a01b031614806107575750610757816105b26116ff565b6107735760405162461bcd60e51b81526004016106c5906132f3565b61077d838361170e565b505050565b6014602052600090815260409020546001600160a01b031681565b600a5490565b60105460408051634a32c6bf60e11b815290516001600160a01b03909216916391d148549183916394658d7e91600480820192602092909190829003018186803b1580156107f057600080fd5b505afa158015610804573d6000803e3d6000fd5b505050506040513d601f19601f820116820180604052508101906108289190612c60565b6108306116ff565b6040518363ffffffff1660e01b815260040161084d929190612fb4565b60206040518083038186803b15801561086557600080fd5b505afa158015610879573d6000803e3d6000fd5b505050506040513d601f19601f8201168201806040525081019061089d9190612c2c565b6108b95760405162461bcd60e51b81526004016106c590613652565b601060009054906101000a90046001600160a01b03166001600160a01b0316635cd423156040518163ffffffff1660e01b815260040160206040518083038186803b15801561090757600080fd5b505afa15801561091b573d6000803e3d6000fd5b505050506040513d601f19601f8201168201806040525081019061093f9190612d33565b601060009054906101000a90046001600160a01b03166001600160a01b031663fd967f476040518163ffffffff1660e01b815260040160206040518083038186803b15801561098d57600080fd5b505afa1580156109a1573d6000803e3d6000fd5b505050506040513d601f19601f820116820180604052508101906109c59190612d33565b6109cf9190613987565b6fffffffffffffffffffffffffffffffff1681106109ff5760405162461bcd60e51b81526004016106c590613807565b60158190556040517f244ea8d7627f5a08f4299862bd5a45752842c183aee5b0fb0d1e4887bfa605b390610a34908390612fab565b60405180910390a150565b610a50610a4a6116ff565b8261177c565b610a6c5760405162461bcd60e51b81526004016106c5906136f0565b61077d83838361191b565b60009081526020819052604090206001015490565b600082815260146020908152604080832054601054825163fd967f4760e01b815292516001600160a01b039283169594919092169263fd967f479260048083019392829003018186803b158015610ae257600080fd5b505afa158015610af6573d6000803e3d6000fd5b505050506040513d601f19601f82011682018060405250810190610b1a9190612d33565b6fffffffffffffffffffffffffffffffff1660155484610b3a91906139de565b610b4491906139ca565b90509250929050565b610b578282611a48565b600082815260016020526040902061077d90826116be565b6000610b7a83610fce565b8210610b985760405162461bcd60e51b81526004016106c5906130a7565b506001600160a01b03821660009081526008602090815260408083208484529091529020545b92915050565b610bce8282611a6c565b600082815260016020526040902061077d9082611aae565b610c127f65d7a28e3265b37a6474929f336521b332c1681b933f6cb9f3376673440d862a6104f56116ff565b610c2e5760405162461bcd60e51b81526004016106c590613864565b610c36611ac3565b565b61077d838383604051806020016040528060008152506112b4565b610c5e610a4a6116ff565b610c7a5760405162461bcd60e51b81526004016106c5906137aa565b610c8381611b31565b50565b601060009054906101000a90046001600160a01b03166001600160a01b0316639d2f83f06040518163ffffffff1660e01b815260040160206040518083038186803b158015610cd457600080fd5b505afa158015610ce8573d6000803e3d6000fd5b505050506040513d601f19601f82011682018060405250810190610d0c9190612c2c565b15610d295760405162461bcd60e51b81526004016106c59061340a565b610d557f9f2df0fed2c77648de5860a4cc508cd0818c85b8b8a1ab4ceeef8d981c8956a66104f56116ff565b610d715760405162461bcd60e51b81526004016106c59061350a565b60008167ffffffffffffffff811115610d9a57634e487b7160e01b600052604160045260246000fd5b604051908082528060200260200182016040528015610dc3578160200160208202803683370190505b506011549091506000610dd46116ff565b905060005b84811015610eaa5782848281518110610e0257634e487b7160e01b600052603260045260246000fd5b602002602001018181525050858582818110610e2e57634e487b7160e01b600052603260045260246000fd5b9050602002810190610e409190613942565b6000858152601360205260409020610e599290916128bb565b50600083815260146020526040902080546001600160a01b0319166001600160a01b038416179055610e8b8784611bd8565b610e966001846139b2565b925080610ea281613a92565b915050610dd9565b5081601181905550856001600160a01b0316816001600160a01b03167f2a7af4d3b262c3e3d51c600cdf7a940c9aba3fedcc85148aeda266cc4c4a2f33858888604051610ef993929190612ed2565b60405180910390a3505050505050565b6000610f1361079d565b8210610f315760405162461bcd60e51b81526004016106c59061374d565b600a8281548110610f5257634e487b7160e01b600052603260045260246000fd5b90600052602060002001549050919050565b600f546001600160a01b0390811691161490565b600c5460ff1690565b6000818152600460205260408120546001600160a01b0316806106035760405162461bcd60e51b81526004016106c5906133ad565b60405162461bcd60e51b81526004016106c59061349e565b60006001600160a01b038216610ff65760405162461bcd60e51b81526004016106c590613350565b506001600160a01b031660009081526005602052604090205490565b60115481565b6110447f65d7a28e3265b37a6474929f336521b332c1681b933f6cb9f3376673440d862a6104f56116ff565b6110605760405162461bcd60e51b81526004016106c590613198565b610c36611cb7565b60008281526001602052604081206110809083611d12565b9392505050565b6000918252602082815260408084206001600160a01b0393909316845291905290205460ff1690565b60105460408051634a32c6bf60e11b815290516001600160a01b03909216916391d148549183916394658d7e91600480820192602092909190829003018186803b1580156110fd57600080fd5b505afa158015611111573d6000803e3d6000fd5b505050506040513d601f19601f820116820180604052508101906111359190612c60565b61113d6116ff565b6040518363ffffffff1660e01b815260040161115a929190612fb4565b60206040518083038186803b15801561117257600080fd5b505afa158015611186573d6000803e3d6000fd5b505050506040513d601f19601f820116820180604052508101906111aa9190612c2c565b6111c65760405162461bcd60e51b81526004016106c590613652565b61077d601283836128bb565b60606003805461061a90613a57565b600081565b6111ee6116ff565b6001600160a01b0316826001600160a01b0316141561121f5760405162461bcd60e51b81526004016106c590613239565b806007600061122c6116ff565b6001600160a01b03908116825260208083019390935260409182016000908120918716808252919093529120805460ff1916921515929092179091556112706116ff565b6001600160a01b03167f17307eab39ab6107e8899845ad3d59bd9653f200f220920489ca2b5937696c31836040516112a89190612fa0565b60405180910390a35050565b6112c56112bf6116ff565b8361177c565b6112e15760405162461bcd60e51b81526004016106c5906136f0565b6112ed84848484611d1e565b50505050565b6012805461130090613a57565b80601f016020809104026020016040519081016040528092919081815260200182805461132c90613a57565b80156113795780601f1061134e57610100808354040283529160200191611379565b820191906000526020600020905b81548152906001019060200180831161135c57829003601f168201915b505050505081565b60155481565b6060611392826116e2565b6113ae5760405162461bcd60e51b81526004016106c5906135f5565b60006113b8611d51565b905060008151116113d85760405180602001604052806000815250611080565b806113e284611d60565b6040516020016113f3929190612db9565b6040516020818303038152906040529392505050565b600081815260016020526040812061060390611e83565b7f9f2df0fed2c77648de5860a4cc508cd0818c85b8b8a1ab4ceeef8d981c8956a681565b610bce8282611e8e565b7f65d7a28e3265b37a6474929f336521b332c1681b933f6cb9f3376673440d862a81565b60606012805461061a90613a57565b6001600160a01b03918216600090815260076020908152604080832093909416825291909152205460ff1690565b601060009054906101000a90046001600160a01b03166001600160a01b0316639d2f83f06040518163ffffffff1660e01b815260040160206040518083038186803b1580156114fd57600080fd5b505afa158015611511573d6000803e3d6000fd5b505050506040513d601f19601f820116820180604052508101906115359190612c2c565b156115525760405162461bcd60e51b81526004016106c59061340a565b61157e7f9f2df0fed2c77648de5860a4cc508cd0818c85b8b8a1ab4ceeef8d981c8956a66104f56116ff565b61159a5760405162461bcd60e51b81526004016106c59061350a565b60115460008181526013602052604090206115b69084846128bb565b506115bf6116ff565b600082815260146020526040902080546001600160a01b0319166001600160a01b03929092169190911790556115f58482611bd8565b60016011600082825461160891906139b2565b90915550506001600160a01b03841661161f6116ff565b6001600160a01b03167fafe8c5a4c36942a61550534b714a0076ab46ef8ef23e361572aad8b7ca2ac27d83868660405161165b9392919061391f565b60405180910390a350505050565b6013602052600090815260409020805461130090613a57565b600061168d33610f64565b156116a1575060131936013560601c61069b565b6116a96116d3565b905061069b565b6116ba8282611ead565b5050565b6000611080836001600160a01b038416611f32565b3390565b600061060382611f7c565b6000908152600460205260409020546001600160a01b0316151590565b6000611709611682565b905090565b600081815260066020526040902080546001600160a01b0319166001600160a01b038416908117909155819061174382610f81565b6001600160a01b03167f8c5be1e5ebec7d5bd14f71427d1e84f3dd0314c0f7b2291e5b200ac8c7c3b92560405160405180910390a45050565b60105460405163216c788d60e11b81526000916001600160a01b0316906342d8f11a906117ad903090600401612e69565b60206040518083038186803b1580156117c557600080fd5b505afa1580156117d9573d6000803e3d6000fd5b505050506040513d601f19601f820116820180604052508101906117fd9190612c2c565b15611911576010546040805163206b60f960e01b815290516001600160a01b03909216916391d1485491839163206b60f991600480820192602092909190829003018186803b15801561184f57600080fd5b505afa158015611863573d6000803e3d6000fd5b505050506040513d601f19601f820116820180604052508101906118879190612c60565b856040518363ffffffff1660e01b81526004016118a5929190612fb4565b60206040518083038186803b1580156118bd57600080fd5b505afa1580156118d1573d6000803e3d6000fd5b505050506040513d601f19601f820116820180604052508101906118f59190612c2c565b6119115760405162461bcd60e51b81526004016106c590613441565b6110808383611fa1565b826001600160a01b031661192e82610f81565b6001600160a01b0316146119545760405162461bcd60e51b81526004016106c590613598565b6001600160a01b03821661197a5760405162461bcd60e51b81526004016106c5906131f5565b61198583838361201e565b61199060008261170e565b6001600160a01b03831660009081526005602052604081208054600192906119b99084906139fd565b90915550506001600160a01b03821660009081526005602052604081208054600192906119e79084906139b2565b909155505060008181526004602052604080822080546001600160a01b0319166001600160a01b0386811691821790925591518493918716917fddf252ad1be2c89b69c2b068fc378daa952ba7f163c4a11628f55a4df523b3ef91a4505050565b611a5182610a77565b611a6281611a5d6116ff565b612029565b61077d8383611ead565b611a746116ff565b6001600160a01b0316816001600160a01b031614611aa45760405162461bcd60e51b81526004016106c5906138c2565b6116ba828261208d565b6000611080836001600160a01b038416612110565b611acb610f78565b611ae75760405162461bcd60e51b81526004016106c590613070565b600c805460ff191690557f5db9ee0a495bf2e6ff9c91a7834c1ba4fdd244a5e8aa4e537bd38aeae4b073aa611b1a6116ff565b604051611b279190612e69565b60405180910390a1565b6000611b3c82610f81565b9050611b4a8160008461201e565b611b5560008361170e565b6001600160a01b0381166000908152600560205260408120805460019290611b7e9084906139fd565b909155505060008281526004602052604080822080546001600160a01b0319169055518391906001600160a01b038416907fddf252ad1be2c89b69c2b068fc378daa952ba7f163c4a11628f55a4df523b3ef908390a45050565b6001600160a01b038216611bfe5760405162461bcd60e51b81526004016106c5906134d5565b611c07816116e2565b15611c245760405162461bcd60e51b81526004016106c590613161565b611c306000838361201e565b6001600160a01b0382166000908152600560205260408120805460019290611c599084906139b2565b909155505060008181526004602052604080822080546001600160a01b0319166001600160a01b03861690811790915590518392907fddf252ad1be2c89b69c2b068fc378daa952ba7f163c4a11628f55a4df523b3ef908290a45050565b611cbf610f78565b15611cdc5760405162461bcd60e51b81526004016106c5906132bc565b600c805460ff191660011790557f62e78cea01bee320cd4e420270b5ea74000d11b0c9f74754ebdbfc544b05a258611b1a6116ff565b6000611080838361222d565b611d2984848461191b565b611d3584848484612265565b6112ed5760405162461bcd60e51b81526004016106c590613104565b6060600e805461061a90613a57565b606081611d8557506040805180820190915260018152600360fc1b6020820152610606565b8160005b8115611daf5780611d9981613a92565b9150611da89050600a836139ca565b9150611d89565b60008167ffffffffffffffff811115611dd857634e487b7160e01b600052604160045260246000fd5b6040519080825280601f01601f191660200182016040528015611e02576020820181803683370190505b5090505b8415611e7b57611e176001836139fd565b9150611e24600a86613aad565b611e2f9060306139b2565b60f81b818381518110611e5257634e487b7160e01b600052603260045260246000fd5b60200101906001600160f81b031916908160001a905350611e74600a866139ca565b9450611e06565b949350505050565b600061060382612380565b611e9782610a77565b611ea381611a5d6116ff565b61077d838361208d565b611eb78282611087565b6116ba576000828152602081815260408083206001600160a01b03851684529091529020805460ff19166001179055611eee6116ff565b6001600160a01b0316816001600160a01b0316837f2f8788117e7eff1d82e926ec794901d17c78024a50270940304540a733656f0d60405160405180910390a45050565b6000611f3e8383612384565b611f7457508154600181810184556000848152602080822090930184905584548482528286019093526040902091909155610bbe565b506000610bbe565b60006001600160e01b0319821663780e9d6360e01b148061060357506106038261239c565b6000611fac826116e2565b611fc85760405162461bcd60e51b81526004016106c590613270565b6000611fd383610f81565b9050806001600160a01b0316846001600160a01b0316148061200e5750836001600160a01b03166120038461069e565b6001600160a01b0316145b80611e7b5750611e7b8185611481565b61077d8383836123dc565b6120338282611087565b6116ba5761204b816001600160a01b0316601461240c565b61205683602061240c565b604051602001612067929190612de8565b60408051601f198184030181529082905262461bcd60e51b82526106c591600401612fcb565b6120978282611087565b156116ba576000828152602081815260408083206001600160a01b03851684529091529020805460ff191690556120cc6116ff565b6001600160a01b0316816001600160a01b0316837ff6391f5c32d9c69d2a47ea670b442974b53935d1edc7fd64eb21e047a839171b60405160405180910390a45050565b600081815260018301602052604081205480156122235760006121346001836139fd565b8554909150600090612148906001906139fd565b90508181146121c957600086600001828154811061217657634e487b7160e01b600052603260045260246000fd5b90600052602060002001549050808760000184815481106121a757634e487b7160e01b600052603260045260246000fd5b6000918252602080832090910192909255918252600188019052604090208390555b85548690806121e857634e487b7160e01b600052603160045260246000fd5b600190038181906000526020600020016000905590558560010160008681526020019081526020016000206000905560019350505050610bbe565b6000915050610bbe565b600082600001828154811061225257634e487b7160e01b600052603260045260246000fd5b9060005260206000200154905092915050565b6000612279846001600160a01b03166125cb565b1561237557836001600160a01b031663150b7a026122956116ff565b8786866040518563ffffffff1660e01b81526004016122b79493929190612e7d565b602060405180830381600087803b1580156122d157600080fd5b505af1925050508015612301575060408051601f3d908101601f191682019092526122fe91810190612cd7565b60015b61235b573d80801561232f576040519150601f19603f3d011682016040523d82523d6000602084013e612334565b606091505b5080516123535760405162461bcd60e51b81526004016106c590613104565b805181602001fd5b6001600160e01b031916630a85bd0160e11b149050611e7b565b506001949350505050565b5490565b60009081526001919091016020526040902054151590565b60006001600160e01b031982166380ac58cd60e01b14806123cd57506001600160e01b03198216635b5e139f60e01b145b806106035750610603826125d1565b6123e78383836125f6565b6123ef610f78565b1561077d5760405162461bcd60e51b81526004016106c590613013565b6060600061241b8360026139de565b6124269060026139b2565b67ffffffffffffffff81111561244c57634e487b7160e01b600052604160045260246000fd5b6040519080825280601f01601f191660200182016040528015612476576020820181803683370190505b509050600360fc1b8160008151811061249f57634e487b7160e01b600052603260045260246000fd5b60200101906001600160f81b031916908160001a905350600f60fb1b816001815181106124dc57634e487b7160e01b600052603260045260246000fd5b60200101906001600160f81b031916908160001a90535060006125008460026139de565b61250b9060016139b2565b90505b60018111156125ac577f303132333435363738396162636465660000000000000000000000000000000085600f166010811061255a57634e487b7160e01b600052603260045260246000fd5b1a60f81b82828151811061257e57634e487b7160e01b600052603260045260246000fd5b60200101906001600160f81b031916908160001a90535060049490941c936125a581613a40565b905061250e565b5083156110805760405162461bcd60e51b81526004016106c590612fde565b3b151590565b60006001600160e01b03198216635a05180f60e01b148061060357506106038261267f565b61260183838361077d565b6001600160a01b03831661261d57612618816126a4565b612640565b816001600160a01b0316836001600160a01b0316146126405761264083826126e8565b6001600160a01b03821661265c5761265781612785565b61077d565b826001600160a01b0316826001600160a01b03161461077d5761077d828261285e565b60006001600160e01b03198216637965db0b60e01b14806106035750610603826128a2565b600a80546000838152600b60205260408120829055600182018355919091527fc65a7bb8d6351c1cf70c95a316cc6a92839c986682d98bc35f958f4883f9d2a80155565b600060016126f584610fce565b6126ff91906139fd565b600083815260096020526040902054909150808214612752576001600160a01b03841660009081526008602090815260408083208584528252808320548484528184208190558352600990915290208190555b5060009182526009602090815260408084208490556001600160a01b039094168352600881528383209183525290812055565b600a54600090612797906001906139fd565b6000838152600b6020526040812054600a80549394509092849081106127cd57634e487b7160e01b600052603260045260246000fd5b9060005260206000200154905080600a83815481106127fc57634e487b7160e01b600052603260045260246000fd5b6000918252602080832090910192909255828152600b9091526040808220849055858252812055600a80548061284257634e487b7160e01b600052603160045260246000fd5b6001900381819060005260206000200160009055905550505050565b600061286983610fce565b6001600160a01b039093166000908152600860209081526040808320868452825280832085905593825260099052919091209190915550565b6001600160e01b031981166301ffc9a760e01b14919050565b8280546128c790613a57565b90600052602060002090601f0160209004810192826128e9576000855561292f565b82601f106129025782800160ff1982351617855561292f565b8280016001018555821561292f579182015b8281111561292f578235825591602001919060010190612914565b5061293b92915061293f565b5090565b5b8082111561293b5760008155600101612940565b80356001600160a01b038116811461060657600080fd5b60008083601f84011261297c578182fd5b50813567ffffffffffffffff811115612993578182fd5b6020830191508360208285010111156129ab57600080fd5b9250929050565b6000602082840312156129c3578081fd5b61108082612954565b600080604083850312156129de578081fd5b6129e783612954565b9150610b4460208401612954565b600080600060608486031215612a09578081fd5b612a1284612954565b9250612a2060208501612954565b9150604084013590509250925092565b60008060008060808587031215612a45578081fd5b612a4e85612954565b93506020612a5d818701612954565b935060408601359250606086013567ffffffffffffffff80821115612a80578384fd5b818801915088601f830112612a93578384fd5b813581811115612aa557612aa5613aed565b604051601f8201601f1916810185018381118282101715612ac857612ac8613aed565b60405281815283820185018b1015612ade578586fd5b81858501868301379081019093019390935250939692955090935050565b600080600060408486031215612b10578283fd5b612b1984612954565b9250602084013567ffffffffffffffff80821115612b35578384fd5b818601915086601f830112612b48578384fd5b813581811115612b56578485fd5b8760208083028501011115612b69578485fd5b6020830194508093505050509250925092565b60008060408385031215612b8e578182fd5b612b9783612954565b91506020830135612ba781613b03565b809150509250929050565b600080600060408486031215612bc6578283fd5b612bcf84612954565b9250602084013567ffffffffffffffff811115612bea578283fd5b612bf68682870161296b565b9497909650939450505050565b60008060408385031215612c15578182fd5b612c1e83612954565b946020939093013593505050565b600060208284031215612c3d578081fd5b815161108081613b03565b600060208284031215612c59578081fd5b5035919050565b600060208284031215612c71578081fd5b5051919050565b60008060408385031215612c8a578081fd5b82359150610b4460208401612954565b60008060408385031215612cac578182fd5b50508035926020909101359150565b600060208284031215612ccc578081fd5b813561108081613b11565b600060208284031215612ce8578081fd5b815161108081613b11565b60008060208385031215612d05578182fd5b823567ffffffffffffffff811115612d1b578283fd5b612d278582860161296b565b90969095509350505050565b600060208284031215612d44578081fd5b81516fffffffffffffffffffffffffffffffff81168114611080578182fd5b60008151808452612d7b816020860160208601613a14565b601f01601f19169290920160200192915050565b60008284528282602086013780602084860101526020601f19601f85011685010190509392505050565b60008351612dcb818460208801613a14565b835190830190612ddf818360208801613a14565b01949350505050565b60007f416363657373436f6e74726f6c3a206163636f756e742000000000000000000082528351612e20816017850160208801613a14565b7f206973206d697373696e6720726f6c65200000000000000000000000000000006017918401918201528351612e5d816028840160208801613a14565b01602801949350505050565b6001600160a01b0391909116815260200190565b60006001600160a01b03808716835280861660208401525083604083015260806060830152612eaf6080830184612d63565b9695505050505050565b6001600160a01b03929092168252602082015260400190565b604080825284519082018190526000906020906060840190828801845b82811015612f0b57815184529284019290840190600101612eef565b505050838103828501528481528181018583028201830187855b88811015612f9157848303601f190184528135368b9003601e19018112612f4a578788fd5b8a01803567ffffffffffffffff811115612f62578889fd5b8036038c1315612f70578889fd5b612f7d85828a8501612d8f565b958801959450505090850190600101612f25565b50909998505050505050505050565b901515815260200190565b90815260200190565b9182526001600160a01b0316602082015260400190565b6000602082526110806020830184612d63565b6020808252818101527f537472696e67733a20686578206c656e67746820696e73756666696369656e74604082015260600190565b6020808252602b908201527f4552433732315061757361626c653a20746f6b656e207472616e73666572207760408201527f68696c6520706175736564000000000000000000000000000000000000000000606082015260800190565b60208082526014908201527f5061757361626c653a206e6f7420706175736564000000000000000000000000604082015260600190565b6020808252602b908201527f455243373231456e756d657261626c653a206f776e657220696e646578206f7560408201527f74206f6620626f756e6473000000000000000000000000000000000000000000606082015260800190565b60208082526032908201527f4552433732313a207472616e7366657220746f206e6f6e20455243373231526560408201527f63656976657220696d706c656d656e7465720000000000000000000000000000606082015260800190565b6020808252601c908201527f4552433732313a20746f6b656e20616c7265616479206d696e74656400000000604082015260600190565b6020808252603e908201527f4552433732315072657365744d696e7465725061757365724175746f49643a2060408201527f6d75737420686176652070617573657220726f6c6520746f2070617573650000606082015260800190565b60208082526024908201527f4552433732313a207472616e7366657220746f20746865207a65726f206164646040820152637265737360e01b606082015260800190565b60208082526019908201527f4552433732313a20617070726f766520746f2063616c6c657200000000000000604082015260600190565b6020808252602c908201527f4552433732313a206f70657261746f7220717565727920666f72206e6f6e657860408201526b34b9ba32b73a103a37b5b2b760a11b606082015260800190565b60208082526010908201527f5061757361626c653a2070617573656400000000000000000000000000000000604082015260600190565b60208082526038908201527f4552433732313a20617070726f76652063616c6c6572206973206e6f74206f7760408201527f6e6572206e6f7220617070726f76656420666f7220616c6c0000000000000000606082015260800190565b6020808252602a908201527f4552433732313a2062616c616e636520717565727920666f7220746865207a6560408201527f726f206164647265737300000000000000000000000000000000000000000000606082015260800190565b60208082526029908201527f4552433732313a206f776e657220717565727920666f72206e6f6e657869737460408201527f656e7420746f6b656e0000000000000000000000000000000000000000000000606082015260800190565b6020808252601c908201527f4e46543a205468652070726f746f636f6c206973207061757365642e00000000604082015260600190565b60208082526036908201527f4e46543a205472616e736665727320617265207265737472696374656420746f60408201527f205452414e534645525f524f4c4520686f6c6465727300000000000000000000606082015260800190565b6020808252601d908201527f4e46543732313a2043616c6c206d696e744e465420696e73746561642e000000604082015260600190565b6020808252818101527f4552433732313a206d696e7420746f20746865207a65726f2061646472657373604082015260600190565b60208082526022908201527f4e46543a206d7573742068617665206d696e74657220726f6c6520746f206d696040820152611b9d60f21b606082015260800190565b6020808252602c908201527f4552433732313a20617070726f76656420717565727920666f72206e6f6e657860408201526b34b9ba32b73a103a37b5b2b760a11b606082015260800190565b60208082526029908201527f4552433732313a207472616e73666572206f6620746f6b656e2074686174206960408201527f73206e6f74206f776e0000000000000000000000000000000000000000000000606082015260800190565b6020808252602f908201527f4552433732314d657461646174613a2055524920717565727920666f72206e6f60408201527f6e6578697374656e7420746f6b656e0000000000000000000000000000000000606082015260800190565b60208082526032908201527f4e46543a206f6e6c7920612070726f746f636f6c2061646d696e2063616e206360408201527f616c6c20746869732066756e6374696f6e2e0000000000000000000000000000606082015260800190565b60208082526021908201527f4552433732313a20617070726f76616c20746f2063757272656e74206f776e656040820152603960f91b606082015260800190565b60208082526031908201527f4552433732313a207472616e736665722063616c6c6572206973206e6f74206f60408201527f776e6572206e6f7220617070726f766564000000000000000000000000000000606082015260800190565b6020808252602c908201527f455243373231456e756d657261626c653a20676c6f62616c20696e646578206f60408201527f7574206f6620626f756e64730000000000000000000000000000000000000000606082015260800190565b60208082526030908201527f4552433732314275726e61626c653a2063616c6c6572206973206e6f74206f7760408201527f6e6572206e6f7220617070726f76656400000000000000000000000000000000606082015260800190565b60208082526029908201527f4e46543a204270732070726f7669646564206d757374206265206c657373207460408201527f68616e20392c3030300000000000000000000000000000000000000000000000606082015260800190565b602080825260409082018190527f4552433732315072657365744d696e7465725061757365724175746f49643a20908201527f6d75737420686176652070617573657220726f6c6520746f20756e7061757365606082015260800190565b6020808252602f908201527f416363657373436f6e74726f6c3a2063616e206f6e6c792072656e6f756e636560408201527f20726f6c657320666f722073656c660000000000000000000000000000000000606082015260800190565b600084825260406020830152613939604083018486612d8f565b95945050505050565b6000808335601e19843603018112613958578283fd5b83018035915067ffffffffffffffff821115613972578283fd5b6020019150368190038213156129ab57600080fd5b60006fffffffffffffffffffffffffffffffff808316818516808303821115612ddf57612ddf613ac1565b600082198211156139c5576139c5613ac1565b500190565b6000826139d9576139d9613ad7565b500490565b60008160001904831182151516156139f8576139f8613ac1565b500290565b600082821015613a0f57613a0f613ac1565b500390565b60005b83811015613a2f578181015183820152602001613a17565b838111156112ed5750506000910152565b600081613a4f57613a4f613ac1565b506000190190565b600281046001821680613a6b57607f821691505b60208210811415613a8c57634e487b7160e01b600052602260045260246000fd5b50919050565b6000600019821415613aa657613aa6613ac1565b5060010190565b600082613abc57613abc613ad7565b500690565b634e487b7160e01b600052601160045260246000fd5b634e487b7160e01b600052601260045260246000fd5b634e487b7160e01b600052604160045260246000fd5b8015158114610c8357600080fd5b6001600160e01b031981168114610c8357600080fdfea164736f6c6343000800000a",
  "linkReferences": {},
  "deployedLinkReferences": {}
}