{
  "_format": "hh-sol-artifact-1",
  "contractName": "Nft",
  "sourceName": "contracts/Nft.sol",
  "abi": [
    {
      "inputs": [
        {
          "internalType": "address",
          "name": "_controlCenter",
          "type": "address"
        },
        {
          "internalType": "address",
          "name": "_trustedForwarder",
          "type": "address"
        },
        {
          "internalType": "string",
          "name": "_uri",
          "type": "string"
        }
      ],
      "stateMutability": "nonpayable",
      "type": "constructor"
    },
    {
      "anonymous": false,
      "inputs": [
        {
          "indexed": true,
          "internalType": "address",
          "name": "account",
          "type": "address"
        },
        {
          "indexed": true,
          "internalType": "address",
          "name": "operator",
          "type": "address"
        },
        {
          "indexed": false,
          "internalType": "bool",
          "name": "approved",
          "type": "bool"
        }
      ],
      "name": "ApprovalForAll",
      "type": "event"
    },
    {
      "anonymous": false,
      "inputs": [
        {
          "indexed": true,
          "internalType": "address",
          "name": "redeemer",
          "type": "address"
        },
        {
          "indexed": true,
          "internalType": "address",
          "name": "tokenContract",
          "type": "address"
        },
        {
          "indexed": false,
          "internalType": "uint256",
          "name": "tokenAmountReceived",
          "type": "uint256"
        },
        {
          "indexed": false,
          "internalType": "uint256",
          "name": "nftAmountRedeemed",
          "type": "uint256"
        }
      ],
      "name": "ERC20Redeemed",
      "type": "event"
    },
    {
      "anonymous": false,
      "inputs": [
        {
          "indexed": true,
          "internalType": "address",
          "name": "creator",
          "type": "address"
        },
        {
          "indexed": true,
          "internalType": "address",
          "name": "tokenContract",
          "type": "address"
        },
        {
          "indexed": false,
          "internalType": "uint256",
          "name": "tokenAmount",
          "type": "uint256"
        },
        {
          "indexed": false,
          "internalType": "uint256",
          "name": "nftsMinted",
          "type": "uint256"
        },
        {
          "indexed": false,
          "internalType": "string",
          "name": "nftURI",
          "type": "string"
        }
      ],
      "name": "ERC20WrappedNfts",
      "type": "event"
    },
    {
      "anonymous": false,
      "inputs": [
        {
          "indexed": true,
          "internalType": "address",
          "name": "redeemer",
          "type": "address"
        },
        {
          "indexed": true,
          "internalType": "address",
          "name": "nftContract",
          "type": "address"
        },
        {
          "indexed": false,
          "internalType": "uint256",
          "name": "nftTokenId",
          "type": "uint256"
        },
        {
          "indexed": false,
          "internalType": "uint256",
          "name": "nativeNftTokenId",
          "type": "uint256"
        }
      ],
      "name": "ERC721Redeemed",
      "type": "event"
    },
    {
      "anonymous": false,
      "inputs": [
        {
          "indexed": true,
          "internalType": "address",
          "name": "creator",
          "type": "address"
        },
        {
          "indexed": true,
          "internalType": "address",
          "name": "nftContract",
          "type": "address"
        },
        {
          "indexed": false,
          "internalType": "uint256",
          "name": "nftTokenId",
          "type": "uint256"
        },
        {
          "indexed": false,
          "internalType": "uint256",
          "name": "nativeNftTokenId",
          "type": "uint256"
        },
        {
          "indexed": false,
          "internalType": "string",
          "name": "nativeNftURI",
          "type": "string"
        }
      ],
      "name": "ERC721WrappedNft",
      "type": "event"
    },
    {
      "anonymous": false,
      "inputs": [
        {
          "indexed": true,
          "internalType": "address",
          "name": "creator",
          "type": "address"
        },
        {
          "indexed": false,
          "internalType": "uint256[]",
          "name": "nftIds",
          "type": "uint256[]"
        },
        {
          "indexed": false,
          "internalType": "string[]",
          "name": "nftURIs",
          "type": "string[]"
        },
        {
          "indexed": false,
          "internalType": "uint256[]",
          "name": "nftSupplies",
          "type": "uint256[]"
        }
      ],
      "name": "NativeNfts",
      "type": "event"
    },
    {
      "anonymous": false,
      "inputs": [
        {
          "indexed": false,
          "internalType": "uint256",
          "name": "royaltyBps",
          "type": "uint256"
        }
      ],
      "name": "NftRoyaltyUpdated",
      "type": "event"
    },
    {
      "anonymous": false,
      "inputs": [
        {
          "indexed": false,
          "internalType": "address",
          "name": "account",
          "type": "address"
        }
      ],
      "name": "Paused",
      "type": "event"
    },
    {
      "anonymous": false,
      "inputs": [
        {
          "indexed": true,
          "internalType": "bytes32",
          "name": "role",
          "type": "bytes32"
        },
        {
          "indexed": true,
          "internalType": "bytes32",
          "name": "previousAdminRole",
          "type": "bytes32"
        },
        {
          "indexed": true,
          "internalType": "bytes32",
          "name": "newAdminRole",
          "type": "bytes32"
        }
      ],
      "name": "RoleAdminChanged",
      "type": "event"
    },
    {
      "anonymous": false,
      "inputs": [
        {
          "indexed": true,
          "internalType": "bytes32",
          "name": "role",
          "type": "bytes32"
        },
        {
          "indexed": true,
          "internalType": "address",
          "name": "account",
          "type": "address"
        },
        {
          "indexed": true,
          "internalType": "address",
          "name": "sender",
          "type": "address"
        }
      ],
      "name": "RoleGranted",
      "type": "event"
    },
    {
      "anonymous": false,
      "inputs": [
        {
          "indexed": true,
          "internalType": "bytes32",
          "name": "role",
          "type": "bytes32"
        },
        {
          "indexed": true,
          "internalType": "address",
          "name": "account",
          "type": "address"
        },
        {
          "indexed": true,
          "internalType": "address",
          "name": "sender",
          "type": "address"
        }
      ],
      "name": "RoleRevoked",
      "type": "event"
    },
    {
      "anonymous": false,
      "inputs": [
        {
          "indexed": true,
          "internalType": "address",
          "name": "operator",
          "type": "address"
        },
        {
          "indexed": true,
          "internalType": "address",
          "name": "from",
          "type": "address"
        },
        {
          "indexed": true,
          "internalType": "address",
          "name": "to",
          "type": "address"
        },
        {
          "indexed": false,
          "internalType": "uint256[]",
          "name": "ids",
          "type": "uint256[]"
        },
        {
          "indexed": false,
          "internalType": "uint256[]",
          "name": "values",
          "type": "uint256[]"
        }
      ],
      "name": "TransferBatch",
      "type": "event"
    },
    {
      "anonymous": false,
      "inputs": [
        {
          "indexed": true,
          "internalType": "address",
          "name": "operator",
          "type": "address"
        },
        {
          "indexed": true,
          "internalType": "address",
          "name": "from",
          "type": "address"
        },
        {
          "indexed": true,
          "internalType": "address",
          "name": "to",
          "type": "address"
        },
        {
          "indexed": false,
          "internalType": "uint256",
          "name": "id",
          "type": "uint256"
        },
        {
          "indexed": false,
          "internalType": "uint256",
          "name": "value",
          "type": "uint256"
        }
      ],
      "name": "TransferSingle",
      "type": "event"
    },
    {
      "anonymous": false,
      "inputs": [
        {
          "indexed": false,
          "internalType": "string",
          "name": "value",
          "type": "string"
        },
        {
          "indexed": true,
          "internalType": "uint256",
          "name": "id",
          "type": "uint256"
        }
      ],
      "name": "URI",
      "type": "event"
    },
    {
      "anonymous": false,
      "inputs": [
        {
          "indexed": false,
          "internalType": "address",
          "name": "account",
          "type": "address"
        }
      ],
      "name": "Unpaused",
      "type": "event"
    },
    {
      "inputs": [],
      "name": "DEFAULT_ADMIN_ROLE",
      "outputs": [
        {
          "internalType": "bytes32",
          "name": "",
          "type": "bytes32"
        }
      ],
      "stateMutability": "view",
      "type": "function"
    },
    {
      "inputs": [],
      "name": "MINTER_ROLE",
      "outputs": [
        {
          "internalType": "bytes32",
          "name": "",
          "type": "bytes32"
        }
      ],
      "stateMutability": "view",
      "type": "function"
    },
    {
      "inputs": [],
      "name": "PAUSER_ROLE",
      "outputs": [
        {
          "internalType": "bytes32",
          "name": "",
          "type": "bytes32"
        }
      ],
      "stateMutability": "view",
      "type": "function"
    },
    {
      "inputs": [],
      "name": "_contractURI",
      "outputs": [
        {
          "internalType": "string",
          "name": "",
          "type": "string"
        }
      ],
      "stateMutability": "view",
      "type": "function"
    },
    {
      "inputs": [
        {
          "internalType": "address",
          "name": "account",
          "type": "address"
        },
        {
          "internalType": "uint256",
          "name": "id",
          "type": "uint256"
        }
      ],
      "name": "balanceOf",
      "outputs": [
        {
          "internalType": "uint256",
          "name": "",
          "type": "uint256"
        }
      ],
      "stateMutability": "view",
      "type": "function"
    },
    {
      "inputs": [
        {
          "internalType": "address[]",
          "name": "accounts",
          "type": "address[]"
        },
        {
          "internalType": "uint256[]",
          "name": "ids",
          "type": "uint256[]"
        }
      ],
      "name": "balanceOfBatch",
      "outputs": [
        {
          "internalType": "uint256[]",
          "name": "",
          "type": "uint256[]"
        }
      ],
      "stateMutability": "view",
      "type": "function"
    },
    {
      "inputs": [
        {
          "internalType": "address",
          "name": "account",
          "type": "address"
        },
        {
          "internalType": "uint256",
          "name": "id",
          "type": "uint256"
        },
        {
          "internalType": "uint256",
          "name": "value",
          "type": "uint256"
        }
      ],
      "name": "burn",
      "outputs": [],
      "stateMutability": "nonpayable",
      "type": "function"
    },
    {
      "inputs": [
        {
          "internalType": "address",
          "name": "account",
          "type": "address"
        },
        {
          "internalType": "uint256[]",
          "name": "ids",
          "type": "uint256[]"
        },
        {
          "internalType": "uint256[]",
          "name": "values",
          "type": "uint256[]"
        }
      ],
      "name": "burnBatch",
      "outputs": [],
      "stateMutability": "nonpayable",
      "type": "function"
    },
    {
      "inputs": [],
      "name": "contractURI",
      "outputs": [
        {
          "internalType": "string",
          "name": "",
          "type": "string"
        }
      ],
      "stateMutability": "view",
      "type": "function"
    },
    {
      "inputs": [
        {
          "internalType": "string[]",
          "name": "_nftURIs",
          "type": "string[]"
        },
        {
          "internalType": "uint256[]",
          "name": "_nftSupplies",
          "type": "uint256[]"
        }
      ],
      "name": "createNativeNfts",
      "outputs": [
        {
          "internalType": "uint256[]",
          "name": "nftIds",
          "type": "uint256[]"
        }
      ],
      "stateMutability": "nonpayable",
      "type": "function"
    },
    {
      "inputs": [
        {
          "internalType": "address",
          "name": "_pack",
          "type": "address"
        },
        {
          "internalType": "string[]",
          "name": "_nftURIs",
          "type": "string[]"
        },
        {
          "internalType": "uint256[]",
          "name": "_nftSupplies",
          "type": "uint256[]"
        },
        {
          "internalType": "string",
          "name": "_packURI",
          "type": "string"
        },
        {
          "internalType": "uint256",
          "name": "_secondsUntilOpenStart",
          "type": "uint256"
        },
        {
          "internalType": "uint256",
          "name": "_secondsUntilOpenEnd",
          "type": "uint256"
        },
        {
          "internalType": "uint256",
          "name": "_nftsPerOpen",
          "type": "uint256"
        }
      ],
      "name": "createPackAtomic",
      "outputs": [],
      "stateMutability": "nonpayable",
      "type": "function"
    },
    {
      "inputs": [
        {
          "internalType": "uint256",
          "name": "_nftId",
          "type": "uint256"
        }
      ],
      "name": "creator",
      "outputs": [
        {
          "internalType": "address",
          "name": "",
          "type": "address"
        }
      ],
      "stateMutability": "view",
      "type": "function"
    },
    {
      "inputs": [
        {
          "internalType": "uint256",
          "name": "",
          "type": "uint256"
        }
      ],
      "name": "erc20WrappedNfts",
      "outputs": [
        {
          "internalType": "address",
          "name": "tokenContract",
          "type": "address"
        },
        {
          "internalType": "uint256",
          "name": "shares",
          "type": "uint256"
        },
        {
          "internalType": "uint256",
          "name": "underlyingTokenAmount",
          "type": "uint256"
        }
      ],
      "stateMutability": "view",
      "type": "function"
    },
    {
      "inputs": [
        {
          "internalType": "uint256",
          "name": "",
          "type": "uint256"
        }
      ],
      "name": "erc721WrappedNfts",
      "outputs": [
        {
          "internalType": "address",
          "name": "nftContract",
          "type": "address"
        },
        {
          "internalType": "uint256",
          "name": "nftTokenId",
          "type": "uint256"
        }
      ],
      "stateMutability": "view",
      "type": "function"
    },
    {
      "inputs": [
        {
          "internalType": "bytes32",
          "name": "role",
          "type": "bytes32"
        }
      ],
      "name": "getRoleAdmin",
      "outputs": [
        {
          "internalType": "bytes32",
          "name": "",
          "type": "bytes32"
        }
      ],
      "stateMutability": "view",
      "type": "function"
    },
    {
      "inputs": [
        {
          "internalType": "bytes32",
          "name": "role",
          "type": "bytes32"
        },
        {
          "internalType": "uint256",
          "name": "index",
          "type": "uint256"
        }
      ],
      "name": "getRoleMember",
      "outputs": [
        {
          "internalType": "address",
          "name": "",
          "type": "address"
        }
      ],
      "stateMutability": "view",
      "type": "function"
    },
    {
      "inputs": [
        {
          "internalType": "bytes32",
          "name": "role",
          "type": "bytes32"
        }
      ],
      "name": "getRoleMemberCount",
      "outputs": [
        {
          "internalType": "uint256",
          "name": "",
          "type": "uint256"
        }
      ],
      "stateMutability": "view",
      "type": "function"
    },
    {
      "inputs": [
        {
          "internalType": "bytes32",
          "name": "role",
          "type": "bytes32"
        },
        {
          "internalType": "address",
          "name": "account",
          "type": "address"
        }
      ],
      "name": "grantRole",
      "outputs": [],
      "stateMutability": "nonpayable",
      "type": "function"
    },
    {
      "inputs": [
        {
          "internalType": "bytes32",
          "name": "role",
          "type": "bytes32"
        },
        {
          "internalType": "address",
          "name": "account",
          "type": "address"
        }
      ],
      "name": "hasRole",
      "outputs": [
        {
          "internalType": "bool",
          "name": "",
          "type": "bool"
        }
      ],
      "stateMutability": "view",
      "type": "function"
    },
    {
      "inputs": [
        {
          "internalType": "address",
          "name": "account",
          "type": "address"
        },
        {
          "internalType": "address",
          "name": "operator",
          "type": "address"
        }
      ],
      "name": "isApprovedForAll",
      "outputs": [
        {
          "internalType": "bool",
          "name": "",
          "type": "bool"
        }
      ],
      "stateMutability": "view",
      "type": "function"
    },
    {
      "inputs": [
        {
          "internalType": "address",
          "name": "forwarder",
          "type": "address"
        }
      ],
      "name": "isTrustedForwarder",
      "outputs": [
        {
          "internalType": "bool",
          "name": "",
          "type": "bool"
        }
      ],
      "stateMutability": "view",
      "type": "function"
    },
    {
      "inputs": [
        {
          "internalType": "address",
          "name": "to",
          "type": "address"
        },
        {
          "internalType": "uint256",
          "name": "id",
          "type": "uint256"
        },
        {
          "internalType": "uint256",
          "name": "amount",
          "type": "uint256"
        },
        {
          "internalType": "bytes",
          "name": "data",
          "type": "bytes"
        }
      ],
      "name": "mint",
      "outputs": [],
      "stateMutability": "nonpayable",
      "type": "function"
    },
    {
      "inputs": [
        {
          "internalType": "address",
          "name": "to",
          "type": "address"
        },
        {
          "internalType": "uint256[]",
          "name": "ids",
          "type": "uint256[]"
        },
        {
          "internalType": "uint256[]",
          "name": "amounts",
          "type": "uint256[]"
        },
        {
          "internalType": "bytes",
          "name": "data",
          "type": "bytes"
        }
      ],
      "name": "mintBatch",
      "outputs": [],
      "stateMutability": "nonpayable",
      "type": "function"
    },
    {
      "inputs": [],
      "name": "nextTokenId",
      "outputs": [
        {
          "internalType": "uint256",
          "name": "",
          "type": "uint256"
        }
      ],
      "stateMutability": "view",
      "type": "function"
    },
    {
      "inputs": [
        {
          "internalType": "uint256",
          "name": "",
          "type": "uint256"
        }
      ],
      "name": "nftInfo",
      "outputs": [
        {
          "internalType": "address",
          "name": "creator",
          "type": "address"
        },
        {
          "internalType": "string",
          "name": "uri",
          "type": "string"
        },
        {
          "internalType": "uint256",
          "name": "supply",
          "type": "uint256"
        },
        {
          "internalType": "enum Nft.UnderlyingType",
          "name": "underlyingType",
          "type": "uint8"
        }
      ],
      "stateMutability": "view",
      "type": "function"
    },
    {
      "inputs": [],
      "name": "nftRoyaltyBps",
      "outputs": [
        {
          "internalType": "uint256",
          "name": "",
          "type": "uint256"
        }
      ],
      "stateMutability": "view",
      "type": "function"
    },
    {
      "inputs": [],
      "name": "pause",
      "outputs": [],
      "stateMutability": "nonpayable",
      "type": "function"
    },
    {
      "inputs": [],
      "name": "paused",
      "outputs": [
        {
          "internalType": "bool",
          "name": "",
          "type": "bool"
        }
      ],
      "stateMutability": "view",
      "type": "function"
    },
    {
      "inputs": [
        {
          "internalType": "uint256",
          "name": "_nftId",
          "type": "uint256"
        },
        {
          "internalType": "uint256",
          "name": "_amount",
          "type": "uint256"
        }
      ],
      "name": "redeemERC20",
      "outputs": [],
      "stateMutability": "nonpayable",
      "type": "function"
    },
    {
      "inputs": [
        {
          "internalType": "uint256",
          "name": "_nftId",
          "type": "uint256"
        }
      ],
      "name": "redeemERC721",
      "outputs": [],
      "stateMutability": "nonpayable",
      "type": "function"
    },
    {
      "inputs": [
        {
          "internalType": "bytes32",
          "name": "role",
          "type": "bytes32"
        },
        {
          "internalType": "address",
          "name": "account",
          "type": "address"
        }
      ],
      "name": "renounceRole",
      "outputs": [],
      "stateMutability": "nonpayable",
      "type": "function"
    },
    {
      "inputs": [
        {
          "internalType": "bytes32",
          "name": "role",
          "type": "bytes32"
        },
        {
          "internalType": "address",
          "name": "account",
          "type": "address"
        }
      ],
      "name": "revokeRole",
      "outputs": [],
      "stateMutability": "nonpayable",
      "type": "function"
    },
    {
      "inputs": [
        {
          "internalType": "uint256",
          "name": "tokenId",
          "type": "uint256"
        },
        {
          "internalType": "uint256",
          "name": "salePrice",
          "type": "uint256"
        }
      ],
      "name": "royaltyInfo",
      "outputs": [
        {
          "internalType": "address",
          "name": "receiver",
          "type": "address"
        },
        {
          "internalType": "uint256",
          "name": "royaltyAmount",
          "type": "uint256"
        }
      ],
      "stateMutability": "view",
      "type": "function"
    },
    {
      "inputs": [
        {
          "internalType": "address",
          "name": "from",
          "type": "address"
        },
        {
          "internalType": "address",
          "name": "to",
          "type": "address"
        },
        {
          "internalType": "uint256[]",
          "name": "ids",
          "type": "uint256[]"
        },
        {
          "internalType": "uint256[]",
          "name": "amounts",
          "type": "uint256[]"
        },
        {
          "internalType": "bytes",
          "name": "data",
          "type": "bytes"
        }
      ],
      "name": "safeBatchTransferFrom",
      "outputs": [],
      "stateMutability": "nonpayable",
      "type": "function"
    },
    {
      "inputs": [
        {
          "internalType": "address",
          "name": "from",
          "type": "address"
        },
        {
          "internalType": "address",
          "name": "to",
          "type": "address"
        },
        {
          "internalType": "uint256",
          "name": "id",
          "type": "uint256"
        },
        {
          "internalType": "uint256",
          "name": "amount",
          "type": "uint256"
        },
        {
          "internalType": "bytes",
          "name": "data",
          "type": "bytes"
        }
      ],
      "name": "safeTransferFrom",
      "outputs": [],
      "stateMutability": "nonpayable",
      "type": "function"
    },
    {
      "inputs": [
        {
          "internalType": "address",
          "name": "operator",
          "type": "address"
        },
        {
          "internalType": "bool",
          "name": "approved",
          "type": "bool"
        }
      ],
      "name": "setApprovalForAll",
      "outputs": [],
      "stateMutability": "nonpayable",
      "type": "function"
    },
    {
      "inputs": [
        {
          "internalType": "string",
          "name": "_URI",
          "type": "string"
        }
      ],
      "name": "setContractURI",
      "outputs": [],
      "stateMutability": "nonpayable",
      "type": "function"
    },
    {
      "inputs": [
        {
          "internalType": "uint256",
          "name": "_royaltyBps",
          "type": "uint256"
        }
      ],
      "name": "setNftRoyaltyBps",
      "outputs": [],
      "stateMutability": "nonpayable",
      "type": "function"
    },
    {
      "inputs": [
        {
          "internalType": "bytes4",
          "name": "interfaceId",
          "type": "bytes4"
        }
      ],
      "name": "supportsInterface",
      "outputs": [
        {
          "internalType": "bool",
          "name": "",
          "type": "bool"
        }
      ],
      "stateMutability": "view",
      "type": "function"
    },
    {
      "inputs": [
        {
          "internalType": "uint256",
          "name": "_nftId",
          "type": "uint256"
        }
      ],
      "name": "tokenURI",
      "outputs": [
        {
          "internalType": "string",
          "name": "",
          "type": "string"
        }
      ],
      "stateMutability": "view",
      "type": "function"
    },
    {
      "inputs": [],
      "name": "unpause",
      "outputs": [],
      "stateMutability": "nonpayable",
      "type": "function"
    },
    {
      "inputs": [
        {
          "internalType": "uint256",
          "name": "_nftId",
          "type": "uint256"
        }
      ],
      "name": "uri",
      "outputs": [
        {
          "internalType": "string",
          "name": "",
          "type": "string"
        }
      ],
      "stateMutability": "view",
      "type": "function"
    },
    {
      "inputs": [
        {
          "internalType": "address",
          "name": "_tokenContract",
          "type": "address"
        },
        {
          "internalType": "uint256",
          "name": "_tokenAmount",
          "type": "uint256"
        },
        {
          "internalType": "uint256",
          "name": "_numOfNftsToMint",
          "type": "uint256"
        },
        {
          "internalType": "string",
          "name": "_nftURI",
          "type": "string"
        }
      ],
      "name": "wrapERC20",
      "outputs": [],
      "stateMutability": "nonpayable",
      "type": "function"
    },
    {
      "inputs": [
        {
          "internalType": "address",
          "name": "_nftContract",
          "type": "address"
        },
        {
          "internalType": "uint256",
          "name": "_tokenId",
          "type": "uint256"
        },
        {
          "internalType": "string",
          "name": "_nftURI",
          "type": "string"
        }
      ],
      "name": "wrapERC721",
      "outputs": [],
      "stateMutability": "nonpayable",
      "type": "function"
    }
  ],
  "bytecode": "0x60806040523480156200001157600080fd5b5060405162005542380380620055428339810160408190526200003491620003f6565b818180620000428162000119565b506005805460ff191690556200006360006200005d62000132565b6200014f565b620000927f9f2df0fed2c77648de5860a4cc508cd0818c85b8b8a1ab4ceeef8d981c8956a66200005d62000132565b620000c17f65d7a28e3265b37a6474929f336521b332c1681b933f6cb9f3376673440d862a6200005d62000132565b5060058054610100600160a81b0319166101006001600160a01b0393841602179055600680546001600160a01b03191691851691909117905580516200010f90600990602084019062000338565b5050505062000540565b80516200012e90600490602084019062000338565b5050565b6000620001496200019260201b620021a01760201c565b90505b90565b620001668282620001d260201b620021ce1760201c565b60008281526001602090815260409091206200018d918390620021dc620001de821b17901c565b505050565b60006200019f33620001fe565b15620001b5575060131936013560601c6200014c565b620001ca6200021a60201b620021f11760201c565b90506200014c565b6200012e82826200021e565b6000620001f5836001600160a01b038416620002a8565b90505b92915050565b6005546001600160a01b0382811661010090920416145b919050565b3390565b6200022a8282620002f7565b6200012e576000828152602081815260408083206001600160a01b03851684529091529020805460ff191660011790556200026462000132565b6001600160a01b0316816001600160a01b0316837f2f8788117e7eff1d82e926ec794901d17c78024a50270940304540a733656f0d60405160405180910390a45050565b6000620002b6838362000320565b620002ee57508154600181810184556000848152602080822090930184905584548482528286019093526040902091909155620001f8565b506000620001f8565b6000918252602082815260408084206001600160a01b0393909316845291905290205460ff1690565b60009081526001919091016020526040902054151590565b8280546200034690620004ed565b90600052602060002090601f0160209004810192826200036a5760008555620003b5565b82601f106200038557805160ff1916838001178555620003b5565b82800160010185558215620003b5579182015b82811115620003b557825182559160200191906001019062000398565b50620003c3929150620003c7565b5090565b5b80821115620003c35760008155600101620003c8565b80516001600160a01b03811681146200021557600080fd5b6000806000606084860312156200040b578283fd5b6200041684620003de565b9250602062000427818601620003de565b60408601519093506001600160401b038082111562000444578384fd5b818701915087601f83011262000458578384fd5b8151818111156200046d576200046d6200052a565b604051601f8201601f19168101850183811182821017156200049357620004936200052a565b60405281815283820185018a1015620004aa578586fd5b8592505b81831015620004cd5783830185015181840186015291840191620004ae565b81831115620004de57858583830101525b80955050505050509250925092565b6002810460018216806200050257607f821691505b602082108114156200052457634e487b7160e01b600052602260045260246000fd5b50919050565b634e487b7160e01b600052604160045260246000fd5b614ff280620005506000396000f3fe608060405234801561001057600080fd5b50600436106102f35760003560e01c806375794a3c11610191578063c87b56dd116100e3578063ddfa3e2211610097578063e985e9c511610071578063e985e9c5146105fb578063f242432a1461060e578063f5298aca14610621576102f3565b8063ddfa3e22146105d8578063e63ab1e9146105eb578063e8a3d485146105f3576102f3565b8063d5391393116100c8578063d5391393146105aa578063d547741f146105b2578063db884b0c146105c5576102f3565b8063c87b56dd14610356578063ca15c87314610597576102f3565b806391d1485411610145578063a217fddf1161011f578063a217fddf14610574578063a22cb4651461057c578063c0e727401461058f576102f3565b806391d148541461053b578063938e3d7b1461054e57806393b778d414610561576102f3565b80637a61080b116101765780637a61080b1461050d5780638456cb59146105205780639010d07c14610528576102f3565b806375794a3c146104f2578063788f1f5e146104fa576102f3565b80632f9c131a1161024a5780634e1273f4116101fe5780635c975abb116101d85780635c975abb146104c45780636b20c454146104cc578063731133e9146104df576102f3565b80634e1273f41461047e578063510b515814610491578063572b6c05146104b1576102f3565b80633f4ba83a1161022f5780633f4ba83a1461044e57806341466a951461045657806345d62dbc14610476576102f3565b80632f9c131a1461042857806336568abe1461043b576102f3565b80631f7fdffa116102ac5780632a55205a116102865780632a55205a146103e15780632eb2c2d6146104025780632f2ff15d14610415576102f3565b80631f7fdffa146103985780631f8bc790146103ab578063248a9ca3146103ce576102f3565b8063090a3282116102dd578063090a3282146103415780630e89341c146103565780631ceb2dc214610376576102f3565b8062fdd58e146102f857806301ffc9a714610321575b600080fd5b61030b610306366004613a68565b610634565b60405161031891906141f1565b60405180910390f35b61033461032f366004613d8c565b610690565b60405161031891906141e6565b61035461034f366004613a93565b61069b565b005b610369610364366004613d17565b610ab8565b6040516103189190614253565b610389610384366004613d17565b610b5d565b604051610318939291906140c5565b6103546103a63660046139a4565b610b88565b6103be6103b9366004613d17565b610be2565b6040516103189493929190614055565b61030b6103dc366004613d17565b610ca1565b6103f46103ef366004613d6b565b610cb6565b6040516103189291906140ac565b61035461041036600461375d565b610d64565b610354610423366004613d47565b610dc2565b610354610436366004613d17565b610de9565b610354610449366004613d47565b610fdc565b610354610ffe565b610469610464366004613c9e565b611050565b60405161031891906140e6565b61030b611342565b61046961048c366004613bde565b611348565b6104a461049f366004613d17565b611468565b6040516103189190613f62565b6103346104bf3660046136ed565b611483565b61033461149c565b6103546104da366004613931565b6114a6565b6103546104ed366004613b21565b6114fb565b61030b61154f565b61035461050836600461386e565b611555565b61035461051b366004613d6b565b6115e9565b610354611774565b6104a4610536366004613d6b565b6117c4565b610334610549366004613d47565b6117e3565b61035461055c366004613dc4565b61180c565b61035461056f366004613d17565b611926565b61030b611a73565b61035461058a366004613a3b565b611a78565b610369611b46565b61030b6105a5366004613d17565b611bd4565b61030b611beb565b6103546105c0366004613d47565b611c0f565b6103546105d3366004613b76565b611c19565b6103f46105e6366004613d17565b611feb565b61030b612010565b610369612034565b610334610609366004613725565b6120c6565b61035461061c366004613807565b6120f4565b61035461062f366004613aed565b61214b565b60006001600160a01b0383166106655760405162461bcd60e51b815260040161065c9061438c565b60405180910390fd5b5060008181526002602090815260408083206001600160a01b03861684529091529020545b92915050565b600061068a826121f5565b6106a3612235565b6001600160a01b0316846001600160a01b0316636352211e856040518263ffffffff1660e01b81526004016106d891906141f1565b60206040518083038186803b1580156106f057600080fd5b505afa158015610704573d6000803e3d6000fd5b505050506040513d601f19601f820116820180604052508101906107289190613709565b6001600160a01b03161461074e5760405162461bcd60e51b815260040161065c90614c46565b60405163020604bf60e21b815230906001600160a01b0386169063081812fc9061077c9087906004016141f1565b60206040518083038186803b15801561079457600080fd5b505afa1580156107a8573d6000803e3d6000fd5b505050506040513d601f19601f820116820180604052508101906107cc9190613709565b6001600160a01b031614806108615750836001600160a01b031663e985e9c56107f3612235565b306040518363ffffffff1660e01b8152600401610811929190613f76565b60206040518083038186803b15801561082957600080fd5b505afa15801561083d573d6000803e3d6000fd5b505050506040513d601f19601f820116820180604052508101906108619190613cfb565b61087d5760405162461bcd60e51b815260040161065c9061451c565b836001600160a01b03166342842e0e610894612235565b30866040518463ffffffff1660e01b81526004016108b493929190613fee565b600060405180830381600087803b1580156108ce57600080fd5b505af11580156108e2573d6000803e3d6000fd5b5050505061090b6108f1612235565b600754600160405180602001604052806000815250612244565b604051806080016040528061091e612235565b6001600160a01b0316815260200183838080601f016020809104026020016040519081016040528093929190818152602001838380828437600092018290525093855250506001602080850182905260026040958601526007548452600a815293909220845181546001600160a01b0319166001600160a01b0390911617815584840151805191946109b594860193500190613480565b506040820151816002015560608201518160030160006101000a81548160ff021916908360028111156109f857634e487b7160e01b600052602160045260246000fd5b0217905550506040805180820182526001600160a01b0387811680835260208084018981526007546000908152600b909252949020925183546001600160a01b031916921691909117825591516001909101559050610a55612235565b6001600160a01b03167fdae1779be741094a20f8287fd2c7a4d2d745eeae29c438867017066ae27a1bc4856007548686604051610a959493929190614d0e565b60405180910390a360078054906000610aad83614eb7565b919050555050505050565b6000818152600a60205260409020600101805460609190610ad890614e7c565b80601f0160208091040260200160405190810160405280929190818152602001828054610b0490614e7c565b8015610b515780601f10610b2657610100808354040283529160200191610b51565b820191906000526020600020905b815481529060010190602001808311610b3457829003601f168201915b50505050509050919050565b600c602052600090815260409020805460018201546002909201546001600160a01b03909116919083565b610bb47f9f2df0fed2c77648de5860a4cc508cd0818c85b8b8a1ab4ceeef8d981c8956a6610549612235565b610bd05760405162461bcd60e51b815260040161065c90614767565b610bdc84848484612335565b50505050565b600a60205260009081526040902080546001820180546001600160a01b039092169291610c0e90614e7c565b80601f0160208091040260200160405190810160405280929190818152602001828054610c3a90614e7c565b8015610c875780601f10610c5c57610100808354040283529160200191610c87565b820191906000526020600020905b815481529060010190602001808311610c6a57829003601f168201915b50505050600283015460039093015491929160ff16905084565b60009081526020819052604090206001015490565b6000828152600a6020908152604080832054600654825163fd967f4760e01b815292516001600160a01b039283169594919092169263fd967f479260048083019392829003018186803b158015610d0c57600080fd5b505afa158015610d20573d6000803e3d6000fd5b505050506040513d601f19601f82011682018060405250810190610d449190613d2f565b600854610d519085614e03565b610d5b9190614de3565b90509250929050565b610d6c612235565b6001600160a01b0316856001600160a01b03161480610d925750610d9285610609612235565b610dae5760405162461bcd60e51b815260040161065c906146c7565b610dbb85858585856124b7565b5050505050565b610dcc828261268b565b6000828152600160205260409020610de490826121dc565b505050565b60065460408051634a32c6bf60e11b8152905133926001600160a01b0316916391d148549183916394658d7e916004808301926020929190829003018186803b158015610e3557600080fd5b505afa158015610e49573d6000803e3d6000fd5b505050506040513d601f19601f82011682018060405250810190610e6d9190613d2f565b836040518363ffffffff1660e01b8152600401610e8b9291906141fa565b60206040518083038186803b158015610ea357600080fd5b505afa158015610eb7573d6000803e3d6000fd5b505050506040513d601f19601f82011682018060405250810190610edb9190613cfb565b610ef75760405162461bcd60e51b815260040161065c906148db565b600660009054906101000a90046001600160a01b03166001600160a01b031663fd967f476040518163ffffffff1660e01b815260040160206040518083038186803b158015610f4557600080fd5b505afa158015610f59573d6000803e3d6000fd5b505050506040513d601f19601f82011682018060405250810190610f7d9190613d2f565b8210610f9b5760405162461bcd60e51b815260040161065c90614579565b60088290556040517ffe0145b1017176fc94d0dfab7c8631a2f2c4b287fc395f4b3e8bfec35e150dac90610fd09084906141f1565b60405180910390a15050565b610fe682826126af565b6000828152600160205260409020610de490826126f1565b61102a7f65d7a28e3265b37a6474929f336521b332c1681b933f6cb9f3376673440d862a610549612235565b6110465760405162461bcd60e51b815260040161065c9061497a565b61104e612706565b565b60608382146110715760405162461bcd60e51b815260040161065c906149d7565b8361108e5760405162461bcd60e51b815260040161065c90614938565b8367ffffffffffffffff8111156110b557634e487b7160e01b600052604160045260246000fd5b6040519080825280602002602001820160405280156110de578160200160208202803683370190505b50905060005b848110156112965760075482828151811061110f57634e487b7160e01b600052603260045260246000fd5b602002602001018181525050604051806080016040528061112e612235565b6001600160a01b0316815260200187878481811061115c57634e487b7160e01b600052603260045260246000fd5b905060200281019061116e9190614d38565b8080601f0160208091040260200160405190810160405280939291908181526020018383808284376000920191909152505050908252506020018585848181106111c857634e487b7160e01b600052603260045260246000fd5b6020908102929092013583525001600090526007546000908152600a60209081526040909120825181546001600160a01b0319166001600160a01b03909116178155828201518051919261122492600185019290910190613480565b506040820151816002015560608201518160030160006101000a81548160ff0219169083600281111561126757634e487b7160e01b600052602160045260246000fd5b021790555050600780549150600061127e83614eb7565b9190505550808061128e90614eb7565b9150506110e4565b506112ea6112a2612235565b82858580806020026020016040519081016040528093929190818152602001838360200280828437600092018290525060408051602081019091529081529250612335915050565b6112f2612235565b6001600160a01b03167f9ead818be0b43d79a78daaabe6c787d254ac1279ac99d9ff62b6b227804f7b3382878787876040516113329594939291906140f9565b60405180910390a2949350505050565b60085481565b6060815183511461136b5760405162461bcd60e51b815260040161065c90614aee565b6000835167ffffffffffffffff81111561139557634e487b7160e01b600052604160045260246000fd5b6040519080825280602002602001820160405280156113be578160200160208202803683370190505b50905060005b8451811015611460576114258582815181106113f057634e487b7160e01b600052603260045260246000fd5b602002602001015185838151811061141857634e487b7160e01b600052603260045260246000fd5b6020026020010151610634565b82828151811061144557634e487b7160e01b600052603260045260246000fd5b602090810291909101015261145981614eb7565b90506113c4565b509392505050565b6000908152600a60205260409020546001600160a01b031690565b60055461010090046001600160a01b0390811691161490565b60055460ff165b90565b6114ae612235565b6001600160a01b0316836001600160a01b031614806114d457506114d483610609612235565b6114f05760405162461bcd60e51b815260040161065c906144bf565b610de4838383612774565b6115277f9f2df0fed2c77648de5860a4cc508cd0818c85b8b8a1ab4ceeef8d981c8956a6610549612235565b6115435760405162461bcd60e51b815260040161065c90614767565b610bdc84848484612244565b60075481565b60006115638a8a8a8a611050565b9050600086863087878760405160200161158296959493929190614211565b60405160208183030381529060405290506115db61159e612235565b8d848c8c80806020026020016040519081016040528093929190818152602001838360200280828437600092019190915250889250610d64915050565b505050505050505050505050565b806115fb6115f5612235565b84610634565b10156116195760405162461bcd60e51b815260040161065c9061487e565b61162b611624612235565b8383612928565b6000828152600c60205260408120600181015460029091015461164f908490614e03565b6116599190614de3565b6000848152600c60205260409020549091506001600160a01b031663a9059cbb611681612235565b836040518363ffffffff1660e01b815260040161169f9291906140ac565b602060405180830381600087803b1580156116b957600080fd5b505af11580156116cd573d6000803e3d6000fd5b505050506040513d601f19601f820116820180604052508101906116f19190613cfb565b61170d5760405162461bcd60e51b815260040161065c906145d6565b6000838152600c60205260409020546001600160a01b031661172d612235565b6001600160a01b03167fb7ca9e3aa58248cbaa6a5f83ca826cc57bf8ecd128fd88da420e294353c652f98385604051611767929190614d00565b60405180910390a3505050565b6117a07f65d7a28e3265b37a6474929f336521b332c1681b933f6cb9f3376673440d862a610549612235565b6117bc5760405162461bcd60e51b815260040161065c90614a34565b61104e612a3b565b60008281526001602052604081206117dc9083612a96565b9392505050565b6000918252602082815260408084206001600160a01b0393909316845291905290205460ff1690565b60065460408051634a32c6bf60e11b8152905133926001600160a01b0316916391d148549183916394658d7e916004808301926020929190829003018186803b15801561185857600080fd5b505afa15801561186c573d6000803e3d6000fd5b505050506040513d601f19601f820116820180604052508101906118909190613d2f565b836040518363ffffffff1660e01b81526004016118ae9291906141fa565b60206040518083038186803b1580156118c657600080fd5b505afa1580156118da573d6000803e3d6000fd5b505050506040513d601f19601f820116820180604052508101906118fe9190613cfb565b61191a5760405162461bcd60e51b815260040161065c906148db565b610bdc60098484613504565b6000611939611933612235565b83610634565b116119565760405162461bcd60e51b815260040161065c9061487e565b611969611961612235565b826001612928565b6000818152600b60205260409020546001600160a01b03166342842e0e3061198f612235565b6000858152600b6020526040908190206001015490516001600160e01b031960e086901b1681526119c593929190600401613fee565b600060405180830381600087803b1580156119df57600080fd5b505af11580156119f3573d6000803e3d6000fd5b5050506000828152600b60205260409020546001600160a01b03169050611a18612235565b6001600160a01b03167fea7b88a04220a2292e142652e8e1a59cc00e7d27d8ad6b11da6cf5870e6ba866600b60008581526020019081526020016000206001015484604051611a68929190614d00565b60405180910390a350565b600081565b816001600160a01b0316611a8a612235565b6001600160a01b03161415611ab15760405162461bcd60e51b815260040161065c90614a91565b8060036000611abe612235565b6001600160a01b03908116825260208083019390935260409182016000908120918716808252919093529120805460ff191692151592909217909155611b02612235565b6001600160a01b03167f17307eab39ab6107e8899845ad3d59bd9653f200f220920489ca2b5937696c3183604051611b3a91906141e6565b60405180910390a35050565b60098054611b5390614e7c565b80601f0160208091040260200160405190810160405280929190818152602001828054611b7f90614e7c565b8015611bcc5780601f10611ba157610100808354040283529160200191611bcc565b820191906000526020600020905b815481529060010190602001808311611baf57829003601f168201915b505050505081565b600081815260016020526040812061068a90612aa2565b7f9f2df0fed2c77648de5860a4cc508cd0818c85b8b8a1ab4ceeef8d981c8956a681565b610fe68282612aad565b83856001600160a01b03166370a08231611c31612235565b6040518263ffffffff1660e01b8152600401611c4d9190613f62565b60206040518083038186803b158015611c6557600080fd5b505afa158015611c79573d6000803e3d6000fd5b505050506040513d601f19601f82011682018060405250810190611c9d9190613d2f565b1015611cbb5760405162461bcd60e51b815260040161065c90614b4b565b83856001600160a01b031663dd62ed3e611cd3612235565b306040518363ffffffff1660e01b8152600401611cf1929190613f76565b60206040518083038186803b158015611d0957600080fd5b505afa158015611d1d573d6000803e3d6000fd5b505050506040513d601f19601f82011682018060405250810190611d419190613d2f565b1015611d5f5760405162461bcd60e51b815260040161065c90614821565b846001600160a01b03166323b872dd611d76612235565b30876040518463ffffffff1660e01b8152600401611d9693929190613fee565b602060405180830381600087803b158015611db057600080fd5b505af1158015611dc4573d6000803e3d6000fd5b505050506040513d601f19601f82011682018060405250810190611de89190613cfb565b611e045760405162461bcd60e51b815260040161065c906143e9565b611e28611e0f612235565b6007548560405180602001604052806000815250612244565b6040518060800160405280611e3b612235565b6001600160a01b0316815260200183838080601f01602080910402602001604051908101604052809392919081815260200183838082843760009201919091525050509082525060208101859052604001600190526007546000908152600a60209081526040909120825181546001600160a01b0319166001600160a01b039091161781558282015180519192611eda92600185019290910190613480565b506040820151816002015560608201518160030160006101000a81548160ff02191690836002811115611f1d57634e487b7160e01b600052602160045260246000fd5b021790555050604080516060810182526001600160a01b0388811680835260208084018981528486018b81526007546000908152600c90935295909120935184546001600160a01b03191693169290921783559051600183015591516002909101559050611f89612235565b6001600160a01b03167fd8bffec4446d425694f73630f7822315baa62da5311e89f0d83335ef6a3917ba86868686604051611fc79493929190614d0e565b60405180910390a360078054906000611fdf83614eb7565b91905055505050505050565b600b60205260009081526040902080546001909101546001600160a01b039091169082565b7f65d7a28e3265b37a6474929f336521b332c1681b933f6cb9f3376673440d862a81565b60606009805461204390614e7c565b80601f016020809104026020016040519081016040528092919081815260200182805461206f90614e7c565b80156120bc5780601f10612091576101008083540402835291602001916120bc565b820191906000526020600020905b81548152906001019060200180831161209f57829003601f168201915b5050505050905090565b6001600160a01b03918216600090815260036020908152604080832093909416825291909152205460ff1690565b6120fc612235565b6001600160a01b0316856001600160a01b03161480612122575061212285610609612235565b61213e5760405162461bcd60e51b815260040161065c906144bf565b610dbb8585858585612acc565b612153612235565b6001600160a01b0316836001600160a01b03161480612179575061217983610609612235565b6121955760405162461bcd60e51b815260040161065c906144bf565b610de4838383612928565b60006121ab33611483565b156121bf575060131936013560601c6114a3565b6121c76121f1565b90506114a3565b6121d88282612c04565b5050565b60006117dc836001600160a01b038416612c89565b3390565b60006001600160e01b03198216636cdb3d1360e11b148061222657506001600160e01b031982166303a24d0760e21b145b8061068a575061068a82612cd3565b600061223f6121a0565b905090565b6001600160a01b03841661226a5760405162461bcd60e51b815260040161065c90614c05565b6000612274612235565b90506122958160008761228688612cf8565b61228f88612cf8565b87612d51565b60008481526002602090815260408083206001600160a01b0389168452909152812080548592906122c7908490614dcb565b92505081905550846001600160a01b031660006001600160a01b0316826001600160a01b03167fc3d58168c5ae7397731d063d5bbf3d657854427343f4c083240f7aacaa2d0f62878760405161231e929190614d00565b60405180910390a4610dbb81600087878787612e05565b6001600160a01b03841661235b5760405162461bcd60e51b815260040161065c90614c05565b815183511461237c5760405162461bcd60e51b815260040161065c90614ba8565b6000612386612235565b905061239781600087878787612d51565b60005b845181101561244f578381815181106123c357634e487b7160e01b600052603260045260246000fd5b6020026020010151600260008784815181106123ef57634e487b7160e01b600052603260045260246000fd5b602002602001015181526020019081526020016000206000886001600160a01b03166001600160a01b0316815260200190815260200160002060008282546124379190614dcb565b9091555081905061244781614eb7565b91505061239a565b50846001600160a01b031660006001600160a01b0316826001600160a01b03167f4a39dc06d4c0dbc64b70af90fd698a233a518aa5d07e595d983b8c0526c8f7fb87876040516124a09291906141b8565b60405180910390a4610dbb81600087878787612f13565b81518351146124d85760405162461bcd60e51b815260040161065c90614ba8565b6001600160a01b0384166124fe5760405162461bcd60e51b815260040161065c9061466a565b6000612508612235565b9050612518818787878787612d51565b60005b845181101561261d57600085828151811061254657634e487b7160e01b600052603260045260246000fd5b60200260200101519050600085838151811061257257634e487b7160e01b600052603260045260246000fd5b60209081029190910181015160008481526002835260408082206001600160a01b038e1683529093529190912054909150818110156125c35760405162461bcd60e51b815260040161065c906147c4565b60008381526002602090815260408083206001600160a01b038e8116855292528083208585039055908b16825281208054849290612602908490614dcb565b925050819055505050508061261690614eb7565b905061251b565b50846001600160a01b0316866001600160a01b0316826001600160a01b03167f4a39dc06d4c0dbc64b70af90fd698a233a518aa5d07e595d983b8c0526c8f7fb878760405161266d9291906141b8565b60405180910390a4612683818787878787612f13565b505050505050565b61269482610ca1565b6126a5816126a0612235565b612fe4565b610de48383612c04565b6126b7612235565b6001600160a01b0316816001600160a01b0316146126e75760405162461bcd60e51b815260040161065c90614ca3565b6121d88282613048565b60006117dc836001600160a01b0384166130cb565b61270e61149c565b61272a5760405162461bcd60e51b815260040161065c90614355565b6005805460ff191690557f5db9ee0a495bf2e6ff9c91a7834c1ba4fdd244a5e8aa4e537bd38aeae4b073aa61275d612235565b60405161276a9190613f62565b60405180910390a1565b6001600160a01b03831661279a5760405162461bcd60e51b815260040161065c90614724565b80518251146127bb5760405162461bcd60e51b815260040161065c90614ba8565b60006127c5612235565b90506127e581856000868660405180602001604052806000815250612d51565b60005b83518110156128c957600084828151811061281357634e487b7160e01b600052603260045260246000fd5b60200260200101519050600084838151811061283f57634e487b7160e01b600052603260045260246000fd5b60209081029190910181015160008481526002835260408082206001600160a01b038c1683529093529190912054909150818110156128905760405162461bcd60e51b815260040161065c9061441e565b60009283526002602090815260408085206001600160a01b038b16865290915290922091039055806128c181614eb7565b9150506127e8565b5060006001600160a01b0316846001600160a01b0316826001600160a01b03167f4a39dc06d4c0dbc64b70af90fd698a233a518aa5d07e595d983b8c0526c8f7fb868660405161291a9291906141b8565b60405180910390a450505050565b6001600160a01b03831661294e5760405162461bcd60e51b815260040161065c90614724565b6000612958612235565b90506129888185600061296a87612cf8565b61297387612cf8565b60405180602001604052806000815250612d51565b60008381526002602090815260408083206001600160a01b0388168452909152902054828110156129cb5760405162461bcd60e51b815260040161065c9061441e565b60008481526002602090815260408083206001600160a01b03808a16808652919093528184208786039055905190918516907fc3d58168c5ae7397731d063d5bbf3d657854427343f4c083240f7aacaa2d0f6290612a2c9089908990614d00565b60405180910390a45050505050565b612a4361149c565b15612a605760405162461bcd60e51b815260040161065c90614633565b6005805460ff191660011790557f62e78cea01bee320cd4e420270b5ea74000d11b0c9f74754ebdbfc544b05a25861275d612235565b60006117dc83836131e8565b600061068a82613220565b612ab682610ca1565b612ac2816126a0612235565b610de48383613048565b6001600160a01b038416612af25760405162461bcd60e51b815260040161065c9061466a565b6000612afc612235565b9050612b0d81878761228688612cf8565b60008481526002602090815260408083206001600160a01b038a16845290915290205483811015612b505760405162461bcd60e51b815260040161065c906147c4565b60008581526002602090815260408083206001600160a01b038b8116855292528083208785039055908816825281208054869290612b8f908490614dcb565b92505081905550856001600160a01b0316876001600160a01b0316836001600160a01b03167fc3d58168c5ae7397731d063d5bbf3d657854427343f4c083240f7aacaa2d0f628888604051612be5929190614d00565b60405180910390a4612bfb828888888888612e05565b50505050505050565b612c0e82826117e3565b6121d8576000828152602081815260408083206001600160a01b03851684529091529020805460ff19166001179055612c45612235565b6001600160a01b0316816001600160a01b0316837f2f8788117e7eff1d82e926ec794901d17c78024a50270940304540a733656f0d60405160405180910390a45050565b6000612c958383613224565b612ccb5750815460018181018455600084815260208082209093018490558454848252828601909352604090209190915561068a565b50600061068a565b60006001600160e01b03198216635a05180f60e01b148061068a575061068a8261323c565b60408051600180825281830190925260609160009190602080830190803683370190505090508281600081518110612d4057634e487b7160e01b600052603260045260246000fd5b602090810291909101015292915050565b612d5f868686868686613261565b6001600160a01b0384166126835760005b8351811015612bfb57828181518110612d9957634e487b7160e01b600052603260045260246000fd5b6020026020010151600a6000868481518110612dc557634e487b7160e01b600052603260045260246000fd5b602002602001015181526020019081526020016000206002016000828254612ded9190614e22565b90915550819050612dfd81614eb7565b915050612d70565b612e17846001600160a01b031661326f565b156126835760405163f23a6e6160e01b81526001600160a01b0385169063f23a6e6190612e509089908990889088908890600401614012565b602060405180830381600087803b158015612e6a57600080fd5b505af1925050508015612e9a575060408051601f3d908101601f19168201909252612e9791810190613da8565b60015b612ee357612ea6614f04565b80612eb15750612ecb565b8060405162461bcd60e51b815260040161065c9190614253565b60405162461bcd60e51b815260040161065c90614266565b6001600160e01b0319811663f23a6e6160e01b14612bfb5760405162461bcd60e51b815260040161065c906142f8565b612f25846001600160a01b031661326f565b156126835760405163bc197c8160e01b81526001600160a01b0385169063bc197c8190612f5e9089908990889088908890600401613f90565b602060405180830381600087803b158015612f7857600080fd5b505af1925050508015612fa8575060408051601f3d908101601f19168201909252612fa591810190613da8565b60015b612fb457612ea6614f04565b6001600160e01b0319811663bc197c8160e01b14612bfb5760405162461bcd60e51b815260040161065c906142f8565b612fee82826117e3565b6121d857613006816001600160a01b03166014613275565b613011836020613275565b604051602001613022929190613ee1565b60408051601f198184030181529082905262461bcd60e51b825261065c91600401614253565b61305282826117e3565b156121d8576000828152602081815260408083206001600160a01b03851684529091529020805460ff19169055613087612235565b6001600160a01b0316816001600160a01b0316837ff6391f5c32d9c69d2a47ea670b442974b53935d1edc7fd64eb21e047a839171b60405160405180910390a45050565b600081815260018301602052604081205480156131de5760006130ef600183614e22565b855490915060009061310390600190614e22565b905081811461318457600086600001828154811061313157634e487b7160e01b600052603260045260246000fd5b906000526020600020015490508087600001848154811061316257634e487b7160e01b600052603260045260246000fd5b6000918252602080832090910192909255918252600188019052604090208390555b85548690806131a357634e487b7160e01b600052603160045260246000fd5b60019003818190600052602060002001600090559055856001016000868152602001908152602001600020600090556001935050505061068a565b600091505061068a565b600082600001828154811061320d57634e487b7160e01b600052603260045260246000fd5b9060005260206000200154905092915050565b5490565b60009081526001919091016020526040902054151590565b60006001600160e01b03198216637965db0b60e01b148061068a575061068a82613434565b61268386868686868661344d565b3b151590565b60606000613284836002614e03565b61328f906002614dcb565b67ffffffffffffffff8111156132b557634e487b7160e01b600052604160045260246000fd5b6040519080825280601f01601f1916602001820160405280156132df576020820181803683370190505b509050600360fc1b8160008151811061330857634e487b7160e01b600052603260045260246000fd5b60200101906001600160f81b031916908160001a905350600f60fb1b8160018151811061334557634e487b7160e01b600052603260045260246000fd5b60200101906001600160f81b031916908160001a9053506000613369846002614e03565b613374906001614dcb565b90505b6001811115613415577f303132333435363738396162636465660000000000000000000000000000000085600f16601081106133c357634e487b7160e01b600052603260045260246000fd5b1a60f81b8282815181106133e757634e487b7160e01b600052603260045260246000fd5b60200101906001600160f81b031916908160001a90535060049490941c9361340e81614e65565b9050613377565b5083156117dc5760405162461bcd60e51b815260040161065c906142c3565b6001600160e01b031981166301ffc9a760e01b14919050565b61345b868686868686612683565b61346361149c565b156126835760405162461bcd60e51b815260040161065c90614462565b82805461348c90614e7c565b90600052602060002090601f0160209004810192826134ae57600085556134f4565b82601f106134c757805160ff19168380011785556134f4565b828001600101855582156134f4579182015b828111156134f45782518255916020019190600101906134d9565b50613500929150613578565b5090565b82805461351090614e7c565b90600052602060002090601f01602090048101928261353257600085556134f4565b82601f1061354b5782800160ff198235161785556134f4565b828001600101855582156134f4579182015b828111156134f457823582559160200191906001019061355d565b5b808211156135005760008155600101613579565b60008083601f84011261359e578182fd5b50813567ffffffffffffffff8111156135b5578182fd5b60208301915083602080830285010111156135cf57600080fd5b9250929050565b600082601f8301126135e6578081fd5b813560206135fb6135f683614da7565b614d7d565b8281528181019085830183850287018401881015613617578586fd5b855b8581101561363557813584529284019290840190600101613619565b5090979650505050505050565b600082601f830112613652578081fd5b813567ffffffffffffffff81111561366c5761366c614ee8565b61367f601f8201601f1916602001614d7d565b818152846020838601011115613693578283fd5b816020850160208301379081016020019190915292915050565b60008083601f8401126136be578182fd5b50813567ffffffffffffffff8111156136d5578182fd5b6020830191508360208285010111156135cf57600080fd5b6000602082840312156136fe578081fd5b81356117dc81614fa9565b60006020828403121561371a578081fd5b81516117dc81614fa9565b60008060408385031215613737578081fd5b823561374281614fa9565b9150602083013561375281614fa9565b809150509250929050565b600080600080600060a08688031215613774578081fd5b853561377f81614fa9565b9450602086013561378f81614fa9565b9350604086013567ffffffffffffffff808211156137ab578283fd5b6137b789838a016135d6565b945060608801359150808211156137cc578283fd5b6137d889838a016135d6565b935060808801359150808211156137ed578283fd5b506137fa88828901613642565b9150509295509295909350565b600080600080600060a0868803121561381e578081fd5b853561382981614fa9565b9450602086013561383981614fa9565b93506040860135925060608601359150608086013567ffffffffffffffff811115613862578182fd5b6137fa88828901613642565b60008060008060008060008060008060e08b8d03121561388c578788fd5b8a3561389781614fa9565b995060208b013567ffffffffffffffff808211156138b357898afd5b6138bf8e838f0161358d565b909b50995060408d01359150808211156138d7578687fd5b6138e38e838f0161358d565b909950975060608d01359150808211156138fb578687fd5b506139088d828e016136ad565b9b9e9a9d50989b979a9699969760808101359760a0820135975060c09091013595509350505050565b600080600060608486031215613945578081fd5b833561395081614fa9565b9250602084013567ffffffffffffffff8082111561396c578283fd5b613978878388016135d6565b9350604086013591508082111561398d578283fd5b5061399a868287016135d6565b9150509250925092565b600080600080608085870312156139b9578182fd5b84356139c481614fa9565b9350602085013567ffffffffffffffff808211156139e0578384fd5b6139ec888389016135d6565b94506040870135915080821115613a01578384fd5b613a0d888389016135d6565b93506060870135915080821115613a22578283fd5b50613a2f87828801613642565b91505092959194509250565b60008060408385031215613a4d578182fd5b8235613a5881614fa9565b9150602083013561375281614fc1565b60008060408385031215613a7a578182fd5b8235613a8581614fa9565b946020939093013593505050565b60008060008060608587031215613aa8578182fd5b8435613ab381614fa9565b935060208501359250604085013567ffffffffffffffff811115613ad5578283fd5b613ae1878288016136ad565b95989497509550505050565b600080600060608486031215613b01578081fd5b8335613b0c81614fa9565b95602085013595506040909401359392505050565b60008060008060808587031215613b36578182fd5b8435613b4181614fa9565b93506020850135925060408501359150606085013567ffffffffffffffff811115613b6a578182fd5b613a2f87828801613642565b600080600080600060808688031215613b8d578283fd5b8535613b9881614fa9565b94506020860135935060408601359250606086013567ffffffffffffffff811115613bc1578182fd5b613bcd888289016136ad565b969995985093965092949392505050565b60008060408385031215613bf0578182fd5b823567ffffffffffffffff80821115613c07578384fd5b818501915085601f830112613c1a578384fd5b81356020613c2a6135f683614da7565b82815281810190858301838502870184018b1015613c46578889fd5b8896505b84871015613c71578035613c5d81614fa9565b835260019690960195918301918301613c4a565b5096505086013592505080821115613c87578283fd5b50613c94858286016135d6565b9150509250929050565b60008060008060408587031215613cb3578182fd5b843567ffffffffffffffff80821115613cca578384fd5b613cd68883890161358d565b90965094506020870135915080821115613cee578384fd5b50613ae18782880161358d565b600060208284031215613d0c578081fd5b81516117dc81614fc1565b600060208284031215613d28578081fd5b5035919050565b600060208284031215613d40578081fd5b5051919050565b60008060408385031215613d59578182fd5b82359150602083013561375281614fa9565b60008060408385031215613d7d578182fd5b50508035926020909101359150565b600060208284031215613d9d578081fd5b81356117dc81614fcf565b600060208284031215613db9578081fd5b81516117dc81614fcf565b60008060208385031215613dd6578182fd5b823567ffffffffffffffff811115613dec578283fd5b613df8858286016136ad565b90969095509350505050565b60008284527f07ffffffffffffffffffffffffffffffffffffffffffffffffffffffffffffff831115613e35578081fd5b6020830280836020870137939093016020019283525090919050565b6000815180845260208085019450808401835b83811015613e8057815187529582019590820190600101613e64565b509495945050505050565b60008151808452613ea3816020860160208601614e39565b601f01601f19169290920160200192915050565b60008284528282602086013780602084860101526020601f19601f85011685010190509392505050565b60007f416363657373436f6e74726f6c3a206163636f756e742000000000000000000082528351613f19816017850160208801614e39565b7f206973206d697373696e6720726f6c65200000000000000000000000000000006017918401918201528351613f56816028840160208801614e39565b01602801949350505050565b6001600160a01b0391909116815260200190565b6001600160a01b0392831681529116602082015260400190565b60006001600160a01b03808816835280871660208401525060a06040830152613fbc60a0830186613e51565b8281036060840152613fce8186613e51565b90508281036080840152613fe28185613e8b565b98975050505050505050565b6001600160a01b039384168152919092166020820152604081019190915260600190565b60006001600160a01b03808816835280871660208401525084604083015283606083015260a0608083015261404a60a0830184613e8b565b979650505050505050565b60006001600160a01b0386168252608060208301526140776080830186613e8b565b90508360408301526003831061409d57634e487b7160e01b600052602160045260246000fd5b82606083015295945050505050565b6001600160a01b03929092168252602082015260400190565b6001600160a01b039390931683526020830191909152604082015260600190565b6000602082526117dc6020830184613e51565b60006060825261410c6060830188613e51565b6020838203818501528187835281830190508182890284010189855b8a81101561419457858303601f190184528135368d9003601e1901811261414d578788fd5b8c01803567ffffffffffffffff811115614165578889fd5b8036038e1315614173578889fd5b6141808582898501613eb7565b958701959450505090840190600101614128565b505085810360408701526141a981888a613e04565b9b9a5050505050505050505050565b6000604082526141cb6040830185613e51565b82810360208401526141dd8185613e51565b95945050505050565b901515815260200190565b90815260200190565b9182526001600160a01b0316602082015260400190565b600060a0825261422560a08301888a613eb7565b90506001600160a01b0386166020830152846040830152836060830152826080830152979650505050505050565b6000602082526117dc6020830184613e8b565b60208082526034908201527f455243313135353a207472616e7366657220746f206e6f6e204552433131353560408201527f526563656976657220696d706c656d656e746572000000000000000000000000606082015260800190565b6020808252818101527f537472696e67733a20686578206c656e67746820696e73756666696369656e74604082015260600190565b60208082526028908201527f455243313135353a204552433131353552656365697665722072656a6563746560408201527f6420746f6b656e73000000000000000000000000000000000000000000000000606082015260800190565b60208082526014908201527f5061757361626c653a206e6f7420706175736564000000000000000000000000604082015260600190565b6020808252602b908201527f455243313135353a2062616c616e636520717565727920666f7220746865207a60408201527f65726f2061646472657373000000000000000000000000000000000000000000606082015260800190565b6020808252818101527f4661696c656420746f207472616e7366657220455243323020746f6b656e732e604082015260600190565b60208082526024908201527f455243313135353a206275726e20616d6f756e7420657863656564732062616c604082015263616e636560e01b606082015260800190565b6020808252602c908201527f455243313135355061757361626c653a20746f6b656e207472616e736665722060408201527f7768696c65207061757365640000000000000000000000000000000000000000606082015260800190565b60208082526029908201527f455243313135353a2063616c6c6572206973206e6f74206f776e6572206e6f7260408201527f20617070726f7665640000000000000000000000000000000000000000000000606082015260800190565b60208082526033908201527f4e46543a204d75737420617070726f76652074686520636f6e7472616374207460408201527f6f207472616e7366657220746865204e46542e00000000000000000000000000606082015260800190565b6020808252602b908201527f5061636b3a204270732070726f7669646564206d757374206265206c6573732060408201527f7468616e2031302c303030000000000000000000000000000000000000000000606082015260800190565b60208082526025908201527f4e46543a204661696c656420746f207472616e7366657220455243323020746f60408201527f6b656e732e000000000000000000000000000000000000000000000000000000606082015260800190565b60208082526010908201527f5061757361626c653a2070617573656400000000000000000000000000000000604082015260600190565b60208082526025908201527f455243313135353a207472616e7366657220746f20746865207a65726f20616460408201527f6472657373000000000000000000000000000000000000000000000000000000606082015260800190565b60208082526032908201527f455243313135353a207472616e736665722063616c6c6572206973206e6f742060408201527f6f776e6572206e6f7220617070726f7665640000000000000000000000000000606082015260800190565b60208082526023908201527f455243313135353a206275726e2066726f6d20746865207a65726f206164647260408201526265737360e81b606082015260800190565b60208082526038908201527f455243313135355072657365744d696e7465725061757365723a206d7573742060408201527f68617665206d696e74657220726f6c6520746f206d696e740000000000000000606082015260800190565b6020808252602a908201527f455243313135353a20696e73756666696369656e742062616c616e636520666f60408201527f72207472616e7366657200000000000000000000000000000000000000000000606082015260800190565b60208082526039908201527f4e46543a204d75737420617070726f7665207468697320636f6e74726163742060408201527f746f207472616e7366657220455243323020746f6b656e732e00000000000000606082015260800190565b60208082526029908201527f4e46543a2043616e6e6f742072656465656d20616e204e465420796f7520646f60408201527f206e6f74206f776e2e0000000000000000000000000000000000000000000000606082015260800190565b60208082526032908201527f4e46543a206f6e6c7920612070726f746f636f6c2061646d696e2063616e206360408201527f616c6c20746869732066756e6374696f6e2e0000000000000000000000000000606082015260800190565b60208082526022908201527f4e46543a204d75737420637265617465206174206c65617374206f6e65204e466040820152612a1760f11b606082015260800190565b6020808252603b908201527f455243313135355072657365744d696e7465725061757365723a206d7573742060408201527f686176652070617573657220726f6c6520746f20756e70617573650000000000606082015260800190565b60208082526030908201527f4e46543a204d757374207370656369667920657175616c206e756d626572206f60408201527f6620636f6e6669672076616c7565732e00000000000000000000000000000000606082015260800190565b60208082526039908201527f455243313135355072657365744d696e7465725061757365723a206d7573742060408201527f686176652070617573657220726f6c6520746f20706175736500000000000000606082015260800190565b60208082526029908201527f455243313135353a2073657474696e6720617070726f76616c2073746174757360408201527f20666f722073656c660000000000000000000000000000000000000000000000606082015260800190565b60208082526029908201527f455243313135353a206163636f756e747320616e6420696473206c656e67746860408201527f206d69736d617463680000000000000000000000000000000000000000000000606082015260800190565b6020808252603a908201527f4e46543a204d757374206f776e2074686520616d6f756e74206f6620746f6b6560408201527f6e73207468617420617265206265696e6720777261707065642e000000000000606082015260800190565b60208082526028908201527f455243313135353a2069647320616e6420616d6f756e7473206c656e6774682060408201527f6d69736d61746368000000000000000000000000000000000000000000000000606082015260800190565b60208082526021908201527f455243313135353a206d696e7420746f20746865207a65726f206164647265736040820152607360f81b606082015260800190565b6020808252602b908201527f4e46543a204f6e6c7920746865206f776e6572206f6620746865204e4654206360408201527f616e20777261702069742e000000000000000000000000000000000000000000606082015260800190565b6020808252602f908201527f416363657373436f6e74726f6c3a2063616e206f6e6c792072656e6f756e636560408201527f20726f6c657320666f722073656c660000000000000000000000000000000000606082015260800190565b918252602082015260400190565b600085825284602083015260606040830152614d2e606083018486613eb7565b9695505050505050565b6000808335601e19843603018112614d4e578283fd5b83018035915067ffffffffffffffff821115614d68578283fd5b6020019150368190038213156135cf57600080fd5b60405181810167ffffffffffffffff81118282101715614d9f57614d9f614ee8565b604052919050565b600067ffffffffffffffff821115614dc157614dc1614ee8565b5060209081020190565b60008219821115614dde57614dde614ed2565b500190565b600082614dfe57634e487b7160e01b81526012600452602481fd5b500490565b6000816000190483118215151615614e1d57614e1d614ed2565b500290565b600082821015614e3457614e34614ed2565b500390565b60005b83811015614e54578181015183820152602001614e3c565b83811115610bdc5750506000910152565b600081614e7457614e74614ed2565b506000190190565b600281046001821680614e9057607f821691505b60208210811415614eb157634e487b7160e01b600052602260045260246000fd5b50919050565b6000600019821415614ecb57614ecb614ed2565b5060010190565b634e487b7160e01b600052601160045260246000fd5b634e487b7160e01b600052604160045260246000fd5b60e01c90565b600060443d1015614f14576114a3565b600481823e6308c379a0614f288251614efe565b14614f32576114a3565b6040513d600319016004823e80513d67ffffffffffffffff8160248401118184111715614f6257505050506114a3565b82840192508251915080821115614f7c57505050506114a3565b503d83016020828401011115614f94575050506114a3565b601f01601f1916810160200160405291505090565b6001600160a01b0381168114614fbe57600080fd5b50565b8015158114614fbe57600080fd5b6001600160e01b031981168114614fbe57600080fdfea164736f6c6343000800000a",
  "linkReferences": {},
  "deployedLinkReferences": {}
}