{
  "_format": "hh-sol-artifact-1",
  "contractName": "Nft",
  "sourceName": "contracts/Nft.sol",
  "abi": [
    {
      "inputs": [
        {
          "internalType": "address",
          "name": "_controlCenter",
          "type": "address"
        },
        {
          "internalType": "address",
          "name": "_trustedForwarder",
          "type": "address"
        },
        {
          "internalType": "string",
          "name": "_baseURI",
          "type": "string"
        }
      ],
      "stateMutability": "nonpayable",
      "type": "constructor"
    },
    {
      "anonymous": false,
      "inputs": [
        {
          "indexed": true,
          "internalType": "address",
          "name": "account",
          "type": "address"
        },
        {
          "indexed": true,
          "internalType": "address",
          "name": "operator",
          "type": "address"
        },
        {
          "indexed": false,
          "internalType": "bool",
          "name": "approved",
          "type": "bool"
        }
      ],
      "name": "ApprovalForAll",
      "type": "event"
    },
    {
      "anonymous": false,
      "inputs": [
        {
          "indexed": true,
          "internalType": "address",
          "name": "redeemer",
          "type": "address"
        },
        {
          "indexed": true,
          "internalType": "address",
          "name": "tokenContract",
          "type": "address"
        },
        {
          "indexed": false,
          "internalType": "uint256",
          "name": "tokenAmountReceived",
          "type": "uint256"
        },
        {
          "indexed": false,
          "internalType": "uint256",
          "name": "nftAmountRedeemed",
          "type": "uint256"
        }
      ],
      "name": "ERC20Redeemed",
      "type": "event"
    },
    {
      "anonymous": false,
      "inputs": [
        {
          "indexed": true,
          "internalType": "address",
          "name": "creator",
          "type": "address"
        },
        {
          "indexed": true,
          "internalType": "address",
          "name": "tokenContract",
          "type": "address"
        },
        {
          "indexed": false,
          "internalType": "uint256",
          "name": "tokenAmount",
          "type": "uint256"
        },
        {
          "indexed": false,
          "internalType": "uint256",
          "name": "nftsMinted",
          "type": "uint256"
        },
        {
          "indexed": false,
          "internalType": "string",
          "name": "nftURI",
          "type": "string"
        }
      ],
      "name": "ERC20WrappedNfts",
      "type": "event"
    },
    {
      "anonymous": false,
      "inputs": [
        {
          "indexed": true,
          "internalType": "address",
          "name": "redeemer",
          "type": "address"
        },
        {
          "indexed": true,
          "internalType": "address",
          "name": "nftContract",
          "type": "address"
        },
        {
          "indexed": false,
          "internalType": "uint256",
          "name": "nftTokenId",
          "type": "uint256"
        },
        {
          "indexed": false,
          "internalType": "uint256",
          "name": "nativeNftTokenId",
          "type": "uint256"
        }
      ],
      "name": "ERC721Redeemed",
      "type": "event"
    },
    {
      "anonymous": false,
      "inputs": [
        {
          "indexed": true,
          "internalType": "address",
          "name": "creator",
          "type": "address"
        },
        {
          "indexed": true,
          "internalType": "address",
          "name": "nftContract",
          "type": "address"
        },
        {
          "indexed": false,
          "internalType": "uint256",
          "name": "nftTokenId",
          "type": "uint256"
        },
        {
          "indexed": false,
          "internalType": "uint256",
          "name": "nativeNftTokenId",
          "type": "uint256"
        },
        {
          "indexed": false,
          "internalType": "string",
          "name": "nativeNftURI",
          "type": "string"
        }
      ],
      "name": "ERC721WrappedNft",
      "type": "event"
    },
    {
      "anonymous": false,
      "inputs": [
        {
          "indexed": true,
          "internalType": "address",
          "name": "creator",
          "type": "address"
        },
        {
          "indexed": false,
          "internalType": "uint256[]",
          "name": "nftIds",
          "type": "uint256[]"
        },
        {
          "indexed": false,
          "internalType": "string[]",
          "name": "nftURIs",
          "type": "string[]"
        },
        {
          "indexed": false,
          "internalType": "uint256[]",
          "name": "nftSupplies",
          "type": "uint256[]"
        }
      ],
      "name": "NativeNfts",
      "type": "event"
    },
    {
      "anonymous": false,
      "inputs": [
        {
          "indexed": false,
          "internalType": "uint256",
          "name": "royaltyBps",
          "type": "uint256"
        }
      ],
      "name": "NftRoyaltyUpdated",
      "type": "event"
    },
    {
      "anonymous": false,
      "inputs": [
        {
          "indexed": true,
          "internalType": "address",
          "name": "previousOwner",
          "type": "address"
        },
        {
          "indexed": true,
          "internalType": "address",
          "name": "newOwner",
          "type": "address"
        }
      ],
      "name": "OwnershipTransferred",
      "type": "event"
    },
    {
      "anonymous": false,
      "inputs": [
        {
          "indexed": false,
          "internalType": "address",
          "name": "account",
          "type": "address"
        }
      ],
      "name": "Paused",
      "type": "event"
    },
    {
      "anonymous": false,
      "inputs": [
        {
          "indexed": true,
          "internalType": "bytes32",
          "name": "role",
          "type": "bytes32"
        },
        {
          "indexed": true,
          "internalType": "bytes32",
          "name": "previousAdminRole",
          "type": "bytes32"
        },
        {
          "indexed": true,
          "internalType": "bytes32",
          "name": "newAdminRole",
          "type": "bytes32"
        }
      ],
      "name": "RoleAdminChanged",
      "type": "event"
    },
    {
      "anonymous": false,
      "inputs": [
        {
          "indexed": true,
          "internalType": "bytes32",
          "name": "role",
          "type": "bytes32"
        },
        {
          "indexed": true,
          "internalType": "address",
          "name": "account",
          "type": "address"
        },
        {
          "indexed": true,
          "internalType": "address",
          "name": "sender",
          "type": "address"
        }
      ],
      "name": "RoleGranted",
      "type": "event"
    },
    {
      "anonymous": false,
      "inputs": [
        {
          "indexed": true,
          "internalType": "bytes32",
          "name": "role",
          "type": "bytes32"
        },
        {
          "indexed": true,
          "internalType": "address",
          "name": "account",
          "type": "address"
        },
        {
          "indexed": true,
          "internalType": "address",
          "name": "sender",
          "type": "address"
        }
      ],
      "name": "RoleRevoked",
      "type": "event"
    },
    {
      "anonymous": false,
      "inputs": [
        {
          "indexed": true,
          "internalType": "address",
          "name": "operator",
          "type": "address"
        },
        {
          "indexed": true,
          "internalType": "address",
          "name": "from",
          "type": "address"
        },
        {
          "indexed": true,
          "internalType": "address",
          "name": "to",
          "type": "address"
        },
        {
          "indexed": false,
          "internalType": "uint256[]",
          "name": "ids",
          "type": "uint256[]"
        },
        {
          "indexed": false,
          "internalType": "uint256[]",
          "name": "values",
          "type": "uint256[]"
        }
      ],
      "name": "TransferBatch",
      "type": "event"
    },
    {
      "anonymous": false,
      "inputs": [
        {
          "indexed": true,
          "internalType": "address",
          "name": "operator",
          "type": "address"
        },
        {
          "indexed": true,
          "internalType": "address",
          "name": "from",
          "type": "address"
        },
        {
          "indexed": true,
          "internalType": "address",
          "name": "to",
          "type": "address"
        },
        {
          "indexed": false,
          "internalType": "uint256",
          "name": "id",
          "type": "uint256"
        },
        {
          "indexed": false,
          "internalType": "uint256",
          "name": "value",
          "type": "uint256"
        }
      ],
      "name": "TransferSingle",
      "type": "event"
    },
    {
      "anonymous": false,
      "inputs": [
        {
          "indexed": false,
          "internalType": "string",
          "name": "value",
          "type": "string"
        },
        {
          "indexed": true,
          "internalType": "uint256",
          "name": "id",
          "type": "uint256"
        }
      ],
      "name": "URI",
      "type": "event"
    },
    {
      "anonymous": false,
      "inputs": [
        {
          "indexed": false,
          "internalType": "address",
          "name": "account",
          "type": "address"
        }
      ],
      "name": "Unpaused",
      "type": "event"
    },
    {
      "inputs": [],
      "name": "DEFAULT_ADMIN_ROLE",
      "outputs": [
        {
          "internalType": "bytes32",
          "name": "",
          "type": "bytes32"
        }
      ],
      "stateMutability": "view",
      "type": "function"
    },
    {
      "inputs": [],
      "name": "MINTER_ROLE",
      "outputs": [
        {
          "internalType": "bytes32",
          "name": "",
          "type": "bytes32"
        }
      ],
      "stateMutability": "view",
      "type": "function"
    },
    {
      "inputs": [],
      "name": "PAUSER_ROLE",
      "outputs": [
        {
          "internalType": "bytes32",
          "name": "",
          "type": "bytes32"
        }
      ],
      "stateMutability": "view",
      "type": "function"
    },
    {
      "inputs": [
        {
          "internalType": "address",
          "name": "account",
          "type": "address"
        },
        {
          "internalType": "uint256",
          "name": "id",
          "type": "uint256"
        }
      ],
      "name": "balanceOf",
      "outputs": [
        {
          "internalType": "uint256",
          "name": "",
          "type": "uint256"
        }
      ],
      "stateMutability": "view",
      "type": "function"
    },
    {
      "inputs": [
        {
          "internalType": "address[]",
          "name": "accounts",
          "type": "address[]"
        },
        {
          "internalType": "uint256[]",
          "name": "ids",
          "type": "uint256[]"
        }
      ],
      "name": "balanceOfBatch",
      "outputs": [
        {
          "internalType": "uint256[]",
          "name": "",
          "type": "uint256[]"
        }
      ],
      "stateMutability": "view",
      "type": "function"
    },
    {
      "inputs": [
        {
          "internalType": "address",
          "name": "account",
          "type": "address"
        },
        {
          "internalType": "uint256",
          "name": "id",
          "type": "uint256"
        },
        {
          "internalType": "uint256",
          "name": "value",
          "type": "uint256"
        }
      ],
      "name": "burn",
      "outputs": [],
      "stateMutability": "nonpayable",
      "type": "function"
    },
    {
      "inputs": [
        {
          "internalType": "address",
          "name": "account",
          "type": "address"
        },
        {
          "internalType": "uint256[]",
          "name": "ids",
          "type": "uint256[]"
        },
        {
          "internalType": "uint256[]",
          "name": "values",
          "type": "uint256[]"
        }
      ],
      "name": "burnBatch",
      "outputs": [],
      "stateMutability": "nonpayable",
      "type": "function"
    },
    {
      "inputs": [
        {
          "internalType": "string[]",
          "name": "_nftURIs",
          "type": "string[]"
        },
        {
          "internalType": "uint256[]",
          "name": "_nftSupplies",
          "type": "uint256[]"
        }
      ],
      "name": "createNativeNfts",
      "outputs": [
        {
          "internalType": "uint256[]",
          "name": "nftIds",
          "type": "uint256[]"
        }
      ],
      "stateMutability": "nonpayable",
      "type": "function"
    },
    {
      "inputs": [
        {
          "internalType": "address",
          "name": "_pack",
          "type": "address"
        },
        {
          "internalType": "string[]",
          "name": "_nftURIs",
          "type": "string[]"
        },
        {
          "internalType": "uint256[]",
          "name": "_nftSupplies",
          "type": "uint256[]"
        },
        {
          "internalType": "string",
          "name": "_packURI",
          "type": "string"
        },
        {
          "internalType": "uint256",
          "name": "_secondsUntilOpenStart",
          "type": "uint256"
        },
        {
          "internalType": "uint256",
          "name": "_secondsUntilOpenEnd",
          "type": "uint256"
        },
        {
          "internalType": "uint256",
          "name": "_nftsPerOpen",
          "type": "uint256"
        }
      ],
      "name": "createPackAtomic",
      "outputs": [],
      "stateMutability": "nonpayable",
      "type": "function"
    },
    {
      "inputs": [
        {
          "internalType": "uint256",
          "name": "_nftId",
          "type": "uint256"
        }
      ],
      "name": "creator",
      "outputs": [
        {
          "internalType": "address",
          "name": "",
          "type": "address"
        }
      ],
      "stateMutability": "view",
      "type": "function"
    },
    {
      "inputs": [
        {
          "internalType": "uint256",
          "name": "",
          "type": "uint256"
        }
      ],
      "name": "erc20WrappedNfts",
      "outputs": [
        {
          "internalType": "address",
          "name": "tokenContract",
          "type": "address"
        },
        {
          "internalType": "uint256",
          "name": "shares",
          "type": "uint256"
        },
        {
          "internalType": "uint256",
          "name": "underlyingTokenAmount",
          "type": "uint256"
        }
      ],
      "stateMutability": "view",
      "type": "function"
    },
    {
      "inputs": [
        {
          "internalType": "uint256",
          "name": "",
          "type": "uint256"
        }
      ],
      "name": "erc721WrappedNfts",
      "outputs": [
        {
          "internalType": "address",
          "name": "nftContract",
          "type": "address"
        },
        {
          "internalType": "uint256",
          "name": "nftTokenId",
          "type": "uint256"
        }
      ],
      "stateMutability": "view",
      "type": "function"
    },
    {
      "inputs": [
        {
          "internalType": "bytes32",
          "name": "role",
          "type": "bytes32"
        }
      ],
      "name": "getRoleAdmin",
      "outputs": [
        {
          "internalType": "bytes32",
          "name": "",
          "type": "bytes32"
        }
      ],
      "stateMutability": "view",
      "type": "function"
    },
    {
      "inputs": [
        {
          "internalType": "bytes32",
          "name": "role",
          "type": "bytes32"
        },
        {
          "internalType": "uint256",
          "name": "index",
          "type": "uint256"
        }
      ],
      "name": "getRoleMember",
      "outputs": [
        {
          "internalType": "address",
          "name": "",
          "type": "address"
        }
      ],
      "stateMutability": "view",
      "type": "function"
    },
    {
      "inputs": [
        {
          "internalType": "bytes32",
          "name": "role",
          "type": "bytes32"
        }
      ],
      "name": "getRoleMemberCount",
      "outputs": [
        {
          "internalType": "uint256",
          "name": "",
          "type": "uint256"
        }
      ],
      "stateMutability": "view",
      "type": "function"
    },
    {
      "inputs": [
        {
          "internalType": "bytes32",
          "name": "role",
          "type": "bytes32"
        },
        {
          "internalType": "address",
          "name": "account",
          "type": "address"
        }
      ],
      "name": "grantRole",
      "outputs": [],
      "stateMutability": "nonpayable",
      "type": "function"
    },
    {
      "inputs": [
        {
          "internalType": "bytes32",
          "name": "role",
          "type": "bytes32"
        },
        {
          "internalType": "address",
          "name": "account",
          "type": "address"
        }
      ],
      "name": "hasRole",
      "outputs": [
        {
          "internalType": "bool",
          "name": "",
          "type": "bool"
        }
      ],
      "stateMutability": "view",
      "type": "function"
    },
    {
      "inputs": [
        {
          "internalType": "address",
          "name": "account",
          "type": "address"
        },
        {
          "internalType": "address",
          "name": "operator",
          "type": "address"
        }
      ],
      "name": "isApprovedForAll",
      "outputs": [
        {
          "internalType": "bool",
          "name": "",
          "type": "bool"
        }
      ],
      "stateMutability": "view",
      "type": "function"
    },
    {
      "inputs": [
        {
          "internalType": "address",
          "name": "forwarder",
          "type": "address"
        }
      ],
      "name": "isTrustedForwarder",
      "outputs": [
        {
          "internalType": "bool",
          "name": "",
          "type": "bool"
        }
      ],
      "stateMutability": "view",
      "type": "function"
    },
    {
      "inputs": [
        {
          "internalType": "address",
          "name": "to",
          "type": "address"
        },
        {
          "internalType": "uint256",
          "name": "id",
          "type": "uint256"
        },
        {
          "internalType": "uint256",
          "name": "amount",
          "type": "uint256"
        },
        {
          "internalType": "bytes",
          "name": "data",
          "type": "bytes"
        }
      ],
      "name": "mint",
      "outputs": [],
      "stateMutability": "nonpayable",
      "type": "function"
    },
    {
      "inputs": [
        {
          "internalType": "address",
          "name": "to",
          "type": "address"
        },
        {
          "internalType": "uint256[]",
          "name": "ids",
          "type": "uint256[]"
        },
        {
          "internalType": "uint256[]",
          "name": "amounts",
          "type": "uint256[]"
        },
        {
          "internalType": "bytes",
          "name": "data",
          "type": "bytes"
        }
      ],
      "name": "mintBatch",
      "outputs": [],
      "stateMutability": "nonpayable",
      "type": "function"
    },
    {
      "inputs": [],
      "name": "nextTokenId",
      "outputs": [
        {
          "internalType": "uint256",
          "name": "",
          "type": "uint256"
        }
      ],
      "stateMutability": "view",
      "type": "function"
    },
    {
      "inputs": [
        {
          "internalType": "uint256",
          "name": "",
          "type": "uint256"
        }
      ],
      "name": "nftInfo",
      "outputs": [
        {
          "internalType": "address",
          "name": "creator",
          "type": "address"
        },
        {
          "internalType": "string",
          "name": "uri",
          "type": "string"
        },
        {
          "internalType": "uint256",
          "name": "supply",
          "type": "uint256"
        },
        {
          "internalType": "enum Nft.UnderlyingType",
          "name": "underlyingType",
          "type": "uint8"
        }
      ],
      "stateMutability": "view",
      "type": "function"
    },
    {
      "inputs": [],
      "name": "nftRoyaltyBps",
      "outputs": [
        {
          "internalType": "uint256",
          "name": "",
          "type": "uint256"
        }
      ],
      "stateMutability": "view",
      "type": "function"
    },
    {
      "inputs": [],
      "name": "owner",
      "outputs": [
        {
          "internalType": "address",
          "name": "",
          "type": "address"
        }
      ],
      "stateMutability": "view",
      "type": "function"
    },
    {
      "inputs": [],
      "name": "pause",
      "outputs": [],
      "stateMutability": "nonpayable",
      "type": "function"
    },
    {
      "inputs": [],
      "name": "paused",
      "outputs": [
        {
          "internalType": "bool",
          "name": "",
          "type": "bool"
        }
      ],
      "stateMutability": "view",
      "type": "function"
    },
    {
      "inputs": [
        {
          "internalType": "uint256",
          "name": "_nftId",
          "type": "uint256"
        },
        {
          "internalType": "uint256",
          "name": "_amount",
          "type": "uint256"
        }
      ],
      "name": "redeemERC20",
      "outputs": [],
      "stateMutability": "nonpayable",
      "type": "function"
    },
    {
      "inputs": [
        {
          "internalType": "uint256",
          "name": "_nftId",
          "type": "uint256"
        }
      ],
      "name": "redeemERC721",
      "outputs": [],
      "stateMutability": "nonpayable",
      "type": "function"
    },
    {
      "inputs": [],
      "name": "renounceOwnership",
      "outputs": [],
      "stateMutability": "nonpayable",
      "type": "function"
    },
    {
      "inputs": [
        {
          "internalType": "bytes32",
          "name": "role",
          "type": "bytes32"
        },
        {
          "internalType": "address",
          "name": "account",
          "type": "address"
        }
      ],
      "name": "renounceRole",
      "outputs": [],
      "stateMutability": "nonpayable",
      "type": "function"
    },
    {
      "inputs": [
        {
          "internalType": "bytes32",
          "name": "role",
          "type": "bytes32"
        },
        {
          "internalType": "address",
          "name": "account",
          "type": "address"
        }
      ],
      "name": "revokeRole",
      "outputs": [],
      "stateMutability": "nonpayable",
      "type": "function"
    },
    {
      "inputs": [
        {
          "internalType": "uint256",
          "name": "tokenId",
          "type": "uint256"
        },
        {
          "internalType": "uint256",
          "name": "salePrice",
          "type": "uint256"
        }
      ],
      "name": "royaltyInfo",
      "outputs": [
        {
          "internalType": "address",
          "name": "receiver",
          "type": "address"
        },
        {
          "internalType": "uint256",
          "name": "royaltyAmount",
          "type": "uint256"
        }
      ],
      "stateMutability": "view",
      "type": "function"
    },
    {
      "inputs": [
        {
          "internalType": "address",
          "name": "from",
          "type": "address"
        },
        {
          "internalType": "address",
          "name": "to",
          "type": "address"
        },
        {
          "internalType": "uint256[]",
          "name": "ids",
          "type": "uint256[]"
        },
        {
          "internalType": "uint256[]",
          "name": "amounts",
          "type": "uint256[]"
        },
        {
          "internalType": "bytes",
          "name": "data",
          "type": "bytes"
        }
      ],
      "name": "safeBatchTransferFrom",
      "outputs": [],
      "stateMutability": "nonpayable",
      "type": "function"
    },
    {
      "inputs": [
        {
          "internalType": "address",
          "name": "from",
          "type": "address"
        },
        {
          "internalType": "address",
          "name": "to",
          "type": "address"
        },
        {
          "internalType": "uint256",
          "name": "id",
          "type": "uint256"
        },
        {
          "internalType": "uint256",
          "name": "amount",
          "type": "uint256"
        },
        {
          "internalType": "bytes",
          "name": "data",
          "type": "bytes"
        }
      ],
      "name": "safeTransferFrom",
      "outputs": [],
      "stateMutability": "nonpayable",
      "type": "function"
    },
    {
      "inputs": [
        {
          "internalType": "address",
          "name": "operator",
          "type": "address"
        },
        {
          "internalType": "bool",
          "name": "approved",
          "type": "bool"
        }
      ],
      "name": "setApprovalForAll",
      "outputs": [],
      "stateMutability": "nonpayable",
      "type": "function"
    },
    {
      "inputs": [
        {
          "internalType": "uint256",
          "name": "_royaltyBps",
          "type": "uint256"
        }
      ],
      "name": "setNftRoyaltyBps",
      "outputs": [],
      "stateMutability": "nonpayable",
      "type": "function"
    },
    {
      "inputs": [
        {
          "internalType": "bytes4",
          "name": "interfaceId",
          "type": "bytes4"
        }
      ],
      "name": "supportsInterface",
      "outputs": [
        {
          "internalType": "bool",
          "name": "",
          "type": "bool"
        }
      ],
      "stateMutability": "view",
      "type": "function"
    },
    {
      "inputs": [
        {
          "internalType": "uint256",
          "name": "_nftId",
          "type": "uint256"
        }
      ],
      "name": "tokenURI",
      "outputs": [
        {
          "internalType": "string",
          "name": "",
          "type": "string"
        }
      ],
      "stateMutability": "view",
      "type": "function"
    },
    {
      "inputs": [
        {
          "internalType": "address",
          "name": "newOwner",
          "type": "address"
        }
      ],
      "name": "transferOwnership",
      "outputs": [],
      "stateMutability": "nonpayable",
      "type": "function"
    },
    {
      "inputs": [],
      "name": "unpause",
      "outputs": [],
      "stateMutability": "nonpayable",
      "type": "function"
    },
    {
      "inputs": [
        {
          "internalType": "uint256",
          "name": "_nftId",
          "type": "uint256"
        }
      ],
      "name": "uri",
      "outputs": [
        {
          "internalType": "string",
          "name": "",
          "type": "string"
        }
      ],
      "stateMutability": "view",
      "type": "function"
    },
    {
      "inputs": [
        {
          "internalType": "address",
          "name": "_tokenContract",
          "type": "address"
        },
        {
          "internalType": "uint256",
          "name": "_tokenAmount",
          "type": "uint256"
        },
        {
          "internalType": "uint256",
          "name": "_numOfNftsToMint",
          "type": "uint256"
        },
        {
          "internalType": "string",
          "name": "_nftURI",
          "type": "string"
        }
      ],
      "name": "wrapERC20",
      "outputs": [],
      "stateMutability": "nonpayable",
      "type": "function"
    },
    {
      "inputs": [
        {
          "internalType": "address",
          "name": "_nftContract",
          "type": "address"
        },
        {
          "internalType": "uint256",
          "name": "_tokenId",
          "type": "uint256"
        },
        {
          "internalType": "string",
          "name": "_nftURI",
          "type": "string"
        }
      ],
      "name": "wrapERC721",
      "outputs": [],
      "stateMutability": "nonpayable",
      "type": "function"
    }
  ],
  "bytecode": "0x60806040523480156200001157600080fd5b506040516200546838038062005468833981016040819052620000349162000441565b81818062000042816200010f565b506005805460ff191690556200006360006200005d62000128565b62000145565b620000927f9f2df0fed2c77648de5860a4cc508cd0818c85b8b8a1ab4ceeef8d981c8956a66200005d62000128565b620000c17f65d7a28e3265b37a6474929f336521b332c1681b933f6cb9f3376673440d862a6200005d62000128565b50620000d6620000d062000128565b62000188565b600680546001600160a01b039283166001600160a01b0319918216179091556007805495909216941693909317909255506200058b9050565b80516200012490600490602084019062000383565b5050565b60006200013f620001e260201b6200202f1760201c565b90505b90565b6200015c82826200022260201b6200205d1760201c565b6000828152600160209081526040909120620001839183906200206b6200022e821b17901c565b505050565b600580546001600160a01b03838116610100818102610100600160a81b031985161790945560405193909204169182907f8be0079c531659141344cd1fd0a4f28419497f9722a3daafe3b4186f6b6457e090600090a35050565b6000620001ef336200024e565b1562000205575060131936013560601c62000142565b6200021a6200026560201b620020801760201c565b905062000142565b62000124828262000269565b600062000245836001600160a01b038416620002f3565b90505b92915050565b6006546001600160a01b038281169116145b919050565b3390565b62000275828262000342565b62000124576000828152602081815260408083206001600160a01b03851684529091529020805460ff19166001179055620002af62000128565b6001600160a01b0316816001600160a01b0316837f2f8788117e7eff1d82e926ec794901d17c78024a50270940304540a733656f0d60405160405180910390a45050565b60006200030183836200036b565b620003395750815460018181018455600084815260208082209093018490558454848252828601909352604090209190915562000248565b50600062000248565b6000918252602082815260408084206001600160a01b0393909316845291905290205460ff1690565b60009081526001919091016020526040902054151590565b828054620003919062000538565b90600052602060002090601f016020900481019282620003b5576000855562000400565b82601f10620003d057805160ff191683800117855562000400565b8280016001018555821562000400579182015b8281111562000400578251825591602001919060010190620003e3565b506200040e92915062000412565b5090565b5b808211156200040e576000815560010162000413565b80516001600160a01b03811681146200026057600080fd5b60008060006060848603121562000456578283fd5b620004618462000429565b925060206200047281860162000429565b60408601519093506001600160401b03808211156200048f578384fd5b818701915087601f830112620004a3578384fd5b815181811115620004b857620004b862000575565b604051601f8201601f1916810185018381118282101715620004de57620004de62000575565b60405281815283820185018a1015620004f5578586fd5b8592505b81831015620005185783830185015181840186015291840191620004f9565b818311156200052957858583830101525b80955050505050509250925092565b6002810460018216806200054d57607f821691505b602082108114156200056f57634e487b7160e01b600052602260045260246000fd5b50919050565b634e487b7160e01b600052604160045260246000fd5b614ecd806200059b6000396000f3fe608060405234801561001057600080fd5b50600436106102f35760003560e01c8063731133e911610191578063c87b56dd116100e3578063ddfa3e2211610097578063f242432a11610071578063f242432a146105fb578063f2fde38b1461060e578063f5298aca14610621576102f3565b8063ddfa3e22146105cd578063e63ab1e9146105e0578063e985e9c5146105e8576102f3565b8063d5391393116100c8578063d53913931461059f578063d547741f146105a7578063db884b0c146105ba576102f3565b8063c87b56dd14610356578063ca15c8731461058c576102f3565b80638da5cb5b1161014557806393b778d41161011f57806393b778d41461055e578063a217fddf14610571578063a22cb46514610579576102f3565b80638da5cb5b146105305780639010d07c1461053857806391d148541461054b576102f3565b8063788f1f5e11610176578063788f1f5e146105025780637a61080b146105155780638456cb5914610528576102f3565b8063731133e9146104e757806375794a3c146104fa576102f3565b80632f9c131a1161024a5780634e1273f4116101fe5780635c975abb116101d85780635c975abb146104c45780636b20c454146104cc578063715018a6146104df576102f3565b80634e1273f41461047e578063510b515814610491578063572b6c05146104b1576102f3565b80633f4ba83a1161022f5780633f4ba83a1461044e57806341466a951461045657806345d62dbc14610476576102f3565b80632f9c131a1461042857806336568abe1461043b576102f3565b80631f7fdffa116102ac5780632a55205a116102865780632a55205a146103e15780632eb2c2d6146104025780632f2ff15d14610415576102f3565b80631f7fdffa146103985780631f8bc790146103ab578063248a9ca3146103ce576102f3565b8063090a3282116102dd578063090a3282146103415780630e89341c146103565780631ceb2dc214610376576102f3565b8062fdd58e146102f857806301ffc9a714610321575b600080fd5b61030b6103063660046138f4565b610634565b604051610318919061403d565b60405180910390f35b61033461032f366004613c18565b610690565b6040516103189190614032565b61035461034f36600461391f565b61069b565b005b610369610364366004613ba3565b610ab8565b604051610318919061409f565b610389610384366004613ba3565b610b5d565b60405161031893929190613f11565b6103546103a6366004613830565b610b88565b6103be6103b9366004613ba3565b610be2565b6040516103189493929190613ea1565b61030b6103dc366004613ba3565b610ca1565b6103f46103ef366004613bf7565b610cb6565b604051610318929190613ef8565b6103546104103660046135e9565b610d64565b610354610423366004613bd3565b610dc2565b610354610436366004613ba3565b610de9565b610354610449366004613bd3565b610fdc565b610354610ffe565b610469610464366004613b2a565b611050565b6040516103189190613f32565b61030b611342565b61046961048c366004613a6a565b611348565b6104a461049f366004613ba3565b611468565b6040516103189190613dae565b6103346104bf366004613579565b611483565b610334611497565b6103546104da3660046137bd565b6114a1565b6103546114f6565b6103546104f53660046139ad565b61153f565b61030b611593565b6103546105103660046136fa565b611599565b610354610523366004613bf7565b61162d565b6103546117b8565b6104a4611808565b6104a4610546366004613bf7565b61181c565b610334610559366004613bd3565b61183b565b61035461056c366004613ba3565b611864565b61030b6119b1565b6103546105873660046138c7565b6119b6565b61030b61059a366004613ba3565b611a84565b61030b611a9b565b6103546105b5366004613bd3565b611abf565b6103546105c8366004613a02565b611ac9565b6103f46105db366004613ba3565b611e9b565b61030b611ec0565b6103346105f63660046135b1565b611ee4565b610354610609366004613693565b611f12565b61035461061c366004613579565b611f69565b61035461062f366004613979565b611fda565b60006001600160a01b0383166106655760405162461bcd60e51b815260040161065c906141d8565b60405180910390fd5b5060008181526002602090815260408083206001600160a01b03861684529091529020545b92915050565b600061068a82612084565b6106a36120c4565b6001600160a01b0316846001600160a01b0316636352211e856040518263ffffffff1660e01b81526004016106d8919061403d565b60206040518083038186803b1580156106f057600080fd5b505afa158015610704573d6000803e3d6000fd5b505050506040513d601f19601f820116820180604052508101906107289190613595565b6001600160a01b03161461074e5760405162461bcd60e51b815260040161065c90614b24565b60405163020604bf60e21b815230906001600160a01b0386169063081812fc9061077c90879060040161403d565b60206040518083038186803b15801561079457600080fd5b505afa1580156107a8573d6000803e3d6000fd5b505050506040513d601f19601f820116820180604052508101906107cc9190613595565b6001600160a01b031614806108615750836001600160a01b031663e985e9c56107f36120c4565b306040518363ffffffff1660e01b8152600401610811929190613dc2565b60206040518083038186803b15801561082957600080fd5b505afa15801561083d573d6000803e3d6000fd5b505050506040513d601f19601f820116820180604052508101906108619190613b87565b61087d5760405162461bcd60e51b815260040161065c906143c5565b836001600160a01b03166342842e0e6108946120c4565b30866040518463ffffffff1660e01b81526004016108b493929190613e3a565b600060405180830381600087803b1580156108ce57600080fd5b505af11580156108e2573d6000803e3d6000fd5b5050505061090b6108f16120c4565b6008546001604051806020016040528060008152506120d3565b604051806080016040528061091e6120c4565b6001600160a01b0316815260200183838080601f016020809104026020016040519081016040528093929190818152602001838380828437600092018290525093855250506001602080850182905260026040958601526008548452600a815293909220845181546001600160a01b0319166001600160a01b0390911617815584840151805191946109b594860193500190613380565b506040820151816002015560608201518160030160006101000a81548160ff021916908360028111156109f857634e487b7160e01b600052602160045260246000fd5b0217905550506040805180820182526001600160a01b0387811680835260208084018981526008546000908152600b909252949020925183546001600160a01b031916921691909117825591516001909101559050610a556120c4565b6001600160a01b03167fdae1779be741094a20f8287fd2c7a4d2d745eeae29c438867017066ae27a1bc4856008548686604051610a959493929190614bec565b60405180910390a360088054906000610aad83614d95565b919050555050505050565b6000818152600a60205260409020600101805460609190610ad890614d5a565b80601f0160208091040260200160405190810160405280929190818152602001828054610b0490614d5a565b8015610b515780601f10610b2657610100808354040283529160200191610b51565b820191906000526020600020905b815481529060010190602001808311610b3457829003601f168201915b50505050509050919050565b600c602052600090815260409020805460018201546002909201546001600160a01b03909116919083565b610bb47f9f2df0fed2c77648de5860a4cc508cd0818c85b8b8a1ab4ceeef8d981c8956a66105596120c4565b610bd05760405162461bcd60e51b815260040161065c90614610565b610bdc848484846121c4565b50505050565b600a60205260009081526040902080546001820180546001600160a01b039092169291610c0e90614d5a565b80601f0160208091040260200160405190810160405280929190818152602001828054610c3a90614d5a565b8015610c875780601f10610c5c57610100808354040283529160200191610c87565b820191906000526020600020905b815481529060010190602001808311610c6a57829003601f168201915b50505050600283015460039093015491929160ff16905084565b60009081526020819052604090206001015490565b6000828152600a6020908152604080832054600754825163fd967f4760e01b815292516001600160a01b039283169594919092169263fd967f479260048083019392829003018186803b158015610d0c57600080fd5b505afa158015610d20573d6000803e3d6000fd5b505050506040513d601f19601f82011682018060405250810190610d449190613bbb565b600954610d519085614ce1565b610d5b9190614cc1565b90509250929050565b610d6c6120c4565b6001600160a01b0316856001600160a01b03161480610d925750610d92856105f66120c4565b610dae5760405162461bcd60e51b815260040161065c90614570565b610dbb8585858585612346565b5050505050565b610dcc828261251a565b6000828152600160205260409020610de4908261206b565b505050565b60075460408051634a32c6bf60e11b8152905133926001600160a01b0316916391d148549183916394658d7e916004808301926020929190829003018186803b158015610e3557600080fd5b505afa158015610e49573d6000803e3d6000fd5b505050506040513d601f19601f82011682018060405250810190610e6d9190613bbb565b836040518363ffffffff1660e01b8152600401610e8b929190614046565b60206040518083038186803b158015610ea357600080fd5b505afa158015610eb7573d6000803e3d6000fd5b505050506040513d601f19601f82011682018060405250810190610edb9190613b87565b610ef75760405162461bcd60e51b815260040161065c906147b9565b600760009054906101000a90046001600160a01b03166001600160a01b031663fd967f476040518163ffffffff1660e01b815260040160206040518083038186803b158015610f4557600080fd5b505afa158015610f59573d6000803e3d6000fd5b505050506040513d601f19601f82011682018060405250810190610f7d9190613bbb565b8210610f9b5760405162461bcd60e51b815260040161065c90614422565b60098290556040517ffe0145b1017176fc94d0dfab7c8631a2f2c4b287fc395f4b3e8bfec35e150dac90610fd090849061403d565b60405180910390a15050565b610fe6828261253e565b6000828152600160205260409020610de49082612580565b61102a7f65d7a28e3265b37a6474929f336521b332c1681b933f6cb9f3376673440d862a6105596120c4565b6110465760405162461bcd60e51b815260040161065c90614858565b61104e612595565b565b60608382146110715760405162461bcd60e51b815260040161065c906148b5565b8361108e5760405162461bcd60e51b815260040161065c90614816565b8367ffffffffffffffff8111156110b557634e487b7160e01b600052604160045260246000fd5b6040519080825280602002602001820160405280156110de578160200160208202803683370190505b50905060005b848110156112965760085482828151811061110f57634e487b7160e01b600052603260045260246000fd5b602002602001018181525050604051806080016040528061112e6120c4565b6001600160a01b0316815260200187878481811061115c57634e487b7160e01b600052603260045260246000fd5b905060200281019061116e9190614c16565b8080601f0160208091040260200160405190810160405280939291908181526020018383808284376000920191909152505050908252506020018585848181106111c857634e487b7160e01b600052603260045260246000fd5b6020908102929092013583525001600090526008546000908152600a60209081526040909120825181546001600160a01b0319166001600160a01b03909116178155828201518051919261122492600185019290910190613380565b506040820151816002015560608201518160030160006101000a81548160ff0219169083600281111561126757634e487b7160e01b600052602160045260246000fd5b021790555050600880549150600061127e83614d95565b9190505550808061128e90614d95565b9150506110e4565b506112ea6112a26120c4565b828585808060200260200160405190810160405280939291908181526020018383602002808284376000920182905250604080516020810190915290815292506121c4915050565b6112f26120c4565b6001600160a01b03167f9ead818be0b43d79a78daaabe6c787d254ac1279ac99d9ff62b6b227804f7b338287878787604051611332959493929190613f45565b60405180910390a2949350505050565b60095481565b6060815183511461136b5760405162461bcd60e51b815260040161065c906149cc565b6000835167ffffffffffffffff81111561139557634e487b7160e01b600052604160045260246000fd5b6040519080825280602002602001820160405280156113be578160200160208202803683370190505b50905060005b8451811015611460576114258582815181106113f057634e487b7160e01b600052603260045260246000fd5b602002602001015185838151811061141857634e487b7160e01b600052603260045260246000fd5b6020026020010151610634565b82828151811061144557634e487b7160e01b600052603260045260246000fd5b602090810291909101015261145981614d95565b90506113c4565b509392505050565b6000908152600a60205260409020546001600160a01b031690565b6006546001600160a01b0390811691161490565b60055460ff165b90565b6114a96120c4565b6001600160a01b0316836001600160a01b031614806114cf57506114cf836105f66120c4565b6114eb5760405162461bcd60e51b815260040161065c90614368565b610de4838383612603565b6114fe6120c4565b6001600160a01b031661150f611808565b6001600160a01b0316146115355760405162461bcd60e51b815260040161065c90614784565b61104e60006127b7565b61156b7f9f2df0fed2c77648de5860a4cc508cd0818c85b8b8a1ab4ceeef8d981c8956a66105596120c4565b6115875760405162461bcd60e51b815260040161065c90614610565b610bdc848484846120d3565b60085481565b60006115a78a8a8a8a611050565b905060008686308787876040516020016115c69695949392919061405d565b604051602081830303815290604052905061161f6115e26120c4565b8d848c8c80806020026020016040519081016040528093929190818152602001838360200280828437600092019190915250889250610d64915050565b505050505050505050505050565b8061163f6116396120c4565b84610634565b101561165d5760405162461bcd60e51b815260040161065c90614727565b61166f6116686120c4565b8383612828565b6000828152600c602052604081206001810154600290910154611693908490614ce1565b61169d9190614cc1565b6000848152600c60205260409020549091506001600160a01b031663a9059cbb6116c56120c4565b836040518363ffffffff1660e01b81526004016116e3929190613ef8565b602060405180830381600087803b1580156116fd57600080fd5b505af1158015611711573d6000803e3d6000fd5b505050506040513d601f19601f820116820180604052508101906117359190613b87565b6117515760405162461bcd60e51b815260040161065c9061447f565b6000838152600c60205260409020546001600160a01b03166117716120c4565b6001600160a01b03167fb7ca9e3aa58248cbaa6a5f83ca826cc57bf8ecd128fd88da420e294353c652f983856040516117ab929190614bde565b60405180910390a3505050565b6117e47f65d7a28e3265b37a6474929f336521b332c1681b933f6cb9f3376673440d862a6105596120c4565b6118005760405162461bcd60e51b815260040161065c90614912565b61104e61293b565b60055461010090046001600160a01b031690565b60008281526001602052604081206118349083612996565b9392505050565b6000918252602082815260408084206001600160a01b0393909316845291905290205460ff1690565b60006118776118716120c4565b83610634565b116118945760405162461bcd60e51b815260040161065c90614727565b6118a761189f6120c4565b826001612828565b6000818152600b60205260409020546001600160a01b03166342842e0e306118cd6120c4565b6000858152600b6020526040908190206001015490516001600160e01b031960e086901b16815261190393929190600401613e3a565b600060405180830381600087803b15801561191d57600080fd5b505af1158015611931573d6000803e3d6000fd5b5050506000828152600b60205260409020546001600160a01b031690506119566120c4565b6001600160a01b03167fea7b88a04220a2292e142652e8e1a59cc00e7d27d8ad6b11da6cf5870e6ba866600b600085815260200190815260200160002060010154846040516119a6929190614bde565b60405180910390a350565b600081565b816001600160a01b03166119c86120c4565b6001600160a01b031614156119ef5760405162461bcd60e51b815260040161065c9061496f565b80600360006119fc6120c4565b6001600160a01b03908116825260208083019390935260409182016000908120918716808252919093529120805460ff191692151592909217909155611a406120c4565b6001600160a01b03167f17307eab39ab6107e8899845ad3d59bd9653f200f220920489ca2b5937696c3183604051611a789190614032565b60405180910390a35050565b600081815260016020526040812061068a906129a2565b7f9f2df0fed2c77648de5860a4cc508cd0818c85b8b8a1ab4ceeef8d981c8956a681565b610fe682826129ad565b83856001600160a01b03166370a08231611ae16120c4565b6040518263ffffffff1660e01b8152600401611afd9190613dae565b60206040518083038186803b158015611b1557600080fd5b505afa158015611b29573d6000803e3d6000fd5b505050506040513d601f19601f82011682018060405250810190611b4d9190613bbb565b1015611b6b5760405162461bcd60e51b815260040161065c90614a29565b83856001600160a01b031663dd62ed3e611b836120c4565b306040518363ffffffff1660e01b8152600401611ba1929190613dc2565b60206040518083038186803b158015611bb957600080fd5b505afa158015611bcd573d6000803e3d6000fd5b505050506040513d601f19601f82011682018060405250810190611bf19190613bbb565b1015611c0f5760405162461bcd60e51b815260040161065c906146ca565b846001600160a01b03166323b872dd611c266120c4565b30876040518463ffffffff1660e01b8152600401611c4693929190613e3a565b602060405180830381600087803b158015611c6057600080fd5b505af1158015611c74573d6000803e3d6000fd5b505050506040513d601f19601f82011682018060405250810190611c989190613b87565b611cb45760405162461bcd60e51b815260040161065c90614235565b611cd8611cbf6120c4565b60085485604051806020016040528060008152506120d3565b6040518060800160405280611ceb6120c4565b6001600160a01b0316815260200183838080601f01602080910402602001604051908101604052809392919081815260200183838082843760009201919091525050509082525060208101859052604001600190526008546000908152600a60209081526040909120825181546001600160a01b0319166001600160a01b039091161781558282015180519192611d8a92600185019290910190613380565b506040820151816002015560608201518160030160006101000a81548160ff02191690836002811115611dcd57634e487b7160e01b600052602160045260246000fd5b021790555050604080516060810182526001600160a01b0388811680835260208084018981528486018b81526008546000908152600c90935295909120935184546001600160a01b03191693169290921783559051600183015591516002909101559050611e396120c4565b6001600160a01b03167fd8bffec4446d425694f73630f7822315baa62da5311e89f0d83335ef6a3917ba86868686604051611e779493929190614bec565b60405180910390a360088054906000611e8f83614d95565b91905055505050505050565b600b60205260009081526040902080546001909101546001600160a01b039091169082565b7f65d7a28e3265b37a6474929f336521b332c1681b933f6cb9f3376673440d862a81565b6001600160a01b03918216600090815260036020908152604080832093909416825291909152205460ff1690565b611f1a6120c4565b6001600160a01b0316856001600160a01b03161480611f405750611f40856105f66120c4565b611f5c5760405162461bcd60e51b815260040161065c90614368565b610dbb85858585856129cc565b611f716120c4565b6001600160a01b0316611f82611808565b6001600160a01b031614611fa85760405162461bcd60e51b815260040161065c90614784565b6001600160a01b038116611fce5760405162461bcd60e51b815260040161065c9061426a565b611fd7816127b7565b50565b611fe26120c4565b6001600160a01b0316836001600160a01b031614806120085750612008836105f66120c4565b6120245760405162461bcd60e51b815260040161065c90614368565b610de4838383612828565b600061203a33611483565b1561204e575060131936013560601c61149e565b612056612080565b905061149e565b6120678282612b04565b5050565b6000611834836001600160a01b038416612b89565b3390565b60006001600160e01b03198216636cdb3d1360e11b14806120b557506001600160e01b031982166303a24d0760e21b145b8061068a575061068a82612bd3565b60006120ce61202f565b905090565b6001600160a01b0384166120f95760405162461bcd60e51b815260040161065c90614ae3565b60006121036120c4565b90506121248160008761211588612bf8565b61211e88612bf8565b87612c51565b60008481526002602090815260408083206001600160a01b038916845290915281208054859290612156908490614ca9565b92505081905550846001600160a01b031660006001600160a01b0316826001600160a01b03167fc3d58168c5ae7397731d063d5bbf3d657854427343f4c083240f7aacaa2d0f6287876040516121ad929190614bde565b60405180910390a4610dbb81600087878787612d05565b6001600160a01b0384166121ea5760405162461bcd60e51b815260040161065c90614ae3565b815183511461220b5760405162461bcd60e51b815260040161065c90614a86565b60006122156120c4565b905061222681600087878787612c51565b60005b84518110156122de5783818151811061225257634e487b7160e01b600052603260045260246000fd5b60200260200101516002600087848151811061227e57634e487b7160e01b600052603260045260246000fd5b602002602001015181526020019081526020016000206000886001600160a01b03166001600160a01b0316815260200190815260200160002060008282546122c69190614ca9565b909155508190506122d681614d95565b915050612229565b50846001600160a01b031660006001600160a01b0316826001600160a01b03167f4a39dc06d4c0dbc64b70af90fd698a233a518aa5d07e595d983b8c0526c8f7fb878760405161232f929190614004565b60405180910390a4610dbb81600087878787612e13565b81518351146123675760405162461bcd60e51b815260040161065c90614a86565b6001600160a01b03841661238d5760405162461bcd60e51b815260040161065c90614513565b60006123976120c4565b90506123a7818787878787612c51565b60005b84518110156124ac5760008582815181106123d557634e487b7160e01b600052603260045260246000fd5b60200260200101519050600085838151811061240157634e487b7160e01b600052603260045260246000fd5b60209081029190910181015160008481526002835260408082206001600160a01b038e1683529093529190912054909150818110156124525760405162461bcd60e51b815260040161065c9061466d565b60008381526002602090815260408083206001600160a01b038e8116855292528083208585039055908b16825281208054849290612491908490614ca9565b92505081905550505050806124a590614d95565b90506123aa565b50846001600160a01b0316866001600160a01b0316826001600160a01b03167f4a39dc06d4c0dbc64b70af90fd698a233a518aa5d07e595d983b8c0526c8f7fb87876040516124fc929190614004565b60405180910390a4612512818787878787612e13565b505050505050565b61252382610ca1565b6125348161252f6120c4565b612ee4565b610de48383612b04565b6125466120c4565b6001600160a01b0316816001600160a01b0316146125765760405162461bcd60e51b815260040161065c90614b81565b6120678282612f48565b6000611834836001600160a01b038416612fcb565b61259d611497565b6125b95760405162461bcd60e51b815260040161065c906141a1565b6005805460ff191690557f5db9ee0a495bf2e6ff9c91a7834c1ba4fdd244a5e8aa4e537bd38aeae4b073aa6125ec6120c4565b6040516125f99190613dae565b60405180910390a1565b6001600160a01b0383166126295760405162461bcd60e51b815260040161065c906145cd565b805182511461264a5760405162461bcd60e51b815260040161065c90614a86565b60006126546120c4565b905061267481856000868660405180602001604052806000815250612c51565b60005b83518110156127585760008482815181106126a257634e487b7160e01b600052603260045260246000fd5b6020026020010151905060008483815181106126ce57634e487b7160e01b600052603260045260246000fd5b60209081029190910181015160008481526002835260408082206001600160a01b038c16835290935291909120549091508181101561271f5760405162461bcd60e51b815260040161065c906142c7565b60009283526002602090815260408085206001600160a01b038b168652909152909220910390558061275081614d95565b915050612677565b5060006001600160a01b0316846001600160a01b0316826001600160a01b03167f4a39dc06d4c0dbc64b70af90fd698a233a518aa5d07e595d983b8c0526c8f7fb86866040516127a9929190614004565b60405180910390a450505050565b600580546001600160a01b038381166101008181027fffffffffffffffffffffff0000000000000000000000000000000000000000ff85161790945560405193909204169182907f8be0079c531659141344cd1fd0a4f28419497f9722a3daafe3b4186f6b6457e090600090a35050565b6001600160a01b03831661284e5760405162461bcd60e51b815260040161065c906145cd565b60006128586120c4565b90506128888185600061286a87612bf8565b61287387612bf8565b60405180602001604052806000815250612c51565b60008381526002602090815260408083206001600160a01b0388168452909152902054828110156128cb5760405162461bcd60e51b815260040161065c906142c7565b60008481526002602090815260408083206001600160a01b03808a16808652919093528184208786039055905190918516907fc3d58168c5ae7397731d063d5bbf3d657854427343f4c083240f7aacaa2d0f629061292c9089908990614bde565b60405180910390a45050505050565b612943611497565b156129605760405162461bcd60e51b815260040161065c906144dc565b6005805460ff191660011790557f62e78cea01bee320cd4e420270b5ea74000d11b0c9f74754ebdbfc544b05a2586125ec6120c4565b600061183483836130e8565b600061068a82613120565b6129b682610ca1565b6129c28161252f6120c4565b610de48383612f48565b6001600160a01b0384166129f25760405162461bcd60e51b815260040161065c90614513565b60006129fc6120c4565b9050612a0d81878761211588612bf8565b60008481526002602090815260408083206001600160a01b038a16845290915290205483811015612a505760405162461bcd60e51b815260040161065c9061466d565b60008581526002602090815260408083206001600160a01b038b8116855292528083208785039055908816825281208054869290612a8f908490614ca9565b92505081905550856001600160a01b0316876001600160a01b0316836001600160a01b03167fc3d58168c5ae7397731d063d5bbf3d657854427343f4c083240f7aacaa2d0f628888604051612ae5929190614bde565b60405180910390a4612afb828888888888612d05565b50505050505050565b612b0e828261183b565b612067576000828152602081815260408083206001600160a01b03851684529091529020805460ff19166001179055612b456120c4565b6001600160a01b0316816001600160a01b0316837f2f8788117e7eff1d82e926ec794901d17c78024a50270940304540a733656f0d60405160405180910390a45050565b6000612b958383613124565b612bcb5750815460018181018455600084815260208082209093018490558454848252828601909352604090209190915561068a565b50600061068a565b60006001600160e01b03198216635a05180f60e01b148061068a575061068a8261313c565b60408051600180825281830190925260609160009190602080830190803683370190505090508281600081518110612c4057634e487b7160e01b600052603260045260246000fd5b602090810291909101015292915050565b612c5f868686868686613161565b6001600160a01b0384166125125760005b8351811015612afb57828181518110612c9957634e487b7160e01b600052603260045260246000fd5b6020026020010151600a6000868481518110612cc557634e487b7160e01b600052603260045260246000fd5b602002602001015181526020019081526020016000206002016000828254612ced9190614d00565b90915550819050612cfd81614d95565b915050612c70565b612d17846001600160a01b031661316f565b156125125760405163f23a6e6160e01b81526001600160a01b0385169063f23a6e6190612d509089908990889088908890600401613e5e565b602060405180830381600087803b158015612d6a57600080fd5b505af1925050508015612d9a575060408051601f3d908101601f19168201909252612d9791810190613c34565b60015b612de357612da6614de2565b80612db15750612dcb565b8060405162461bcd60e51b815260040161065c919061409f565b60405162461bcd60e51b815260040161065c906140b2565b6001600160e01b0319811663f23a6e6160e01b14612afb5760405162461bcd60e51b815260040161065c90614144565b612e25846001600160a01b031661316f565b156125125760405163bc197c8160e01b81526001600160a01b0385169063bc197c8190612e5e9089908990889088908890600401613ddc565b602060405180830381600087803b158015612e7857600080fd5b505af1925050508015612ea8575060408051601f3d908101601f19168201909252612ea591810190613c34565b60015b612eb457612da6614de2565b6001600160e01b0319811663bc197c8160e01b14612afb5760405162461bcd60e51b815260040161065c90614144565b612eee828261183b565b61206757612f06816001600160a01b03166014613175565b612f11836020613175565b604051602001612f22929190613d2d565b60408051601f198184030181529082905262461bcd60e51b825261065c9160040161409f565b612f52828261183b565b15612067576000828152602081815260408083206001600160a01b03851684529091529020805460ff19169055612f876120c4565b6001600160a01b0316816001600160a01b0316837ff6391f5c32d9c69d2a47ea670b442974b53935d1edc7fd64eb21e047a839171b60405160405180910390a45050565b600081815260018301602052604081205480156130de576000612fef600183614d00565b855490915060009061300390600190614d00565b905081811461308457600086600001828154811061303157634e487b7160e01b600052603260045260246000fd5b906000526020600020015490508087600001848154811061306257634e487b7160e01b600052603260045260246000fd5b6000918252602080832090910192909255918252600188019052604090208390555b85548690806130a357634e487b7160e01b600052603160045260246000fd5b60019003818190600052602060002001600090559055856001016000868152602001908152602001600020600090556001935050505061068a565b600091505061068a565b600082600001828154811061310d57634e487b7160e01b600052603260045260246000fd5b9060005260206000200154905092915050565b5490565b60009081526001919091016020526040902054151590565b60006001600160e01b03198216637965db0b60e01b148061068a575061068a82613334565b61251286868686868661334d565b3b151590565b60606000613184836002614ce1565b61318f906002614ca9565b67ffffffffffffffff8111156131b557634e487b7160e01b600052604160045260246000fd5b6040519080825280601f01601f1916602001820160405280156131df576020820181803683370190505b509050600360fc1b8160008151811061320857634e487b7160e01b600052603260045260246000fd5b60200101906001600160f81b031916908160001a905350600f60fb1b8160018151811061324557634e487b7160e01b600052603260045260246000fd5b60200101906001600160f81b031916908160001a9053506000613269846002614ce1565b613274906001614ca9565b90505b6001811115613315577f303132333435363738396162636465660000000000000000000000000000000085600f16601081106132c357634e487b7160e01b600052603260045260246000fd5b1a60f81b8282815181106132e757634e487b7160e01b600052603260045260246000fd5b60200101906001600160f81b031916908160001a90535060049490941c9361330e81614d43565b9050613277565b5083156118345760405162461bcd60e51b815260040161065c9061410f565b6001600160e01b031981166301ffc9a760e01b14919050565b61335b868686868686612512565b613363611497565b156125125760405162461bcd60e51b815260040161065c9061430b565b82805461338c90614d5a565b90600052602060002090601f0160209004810192826133ae57600085556133f4565b82601f106133c757805160ff19168380011785556133f4565b828001600101855582156133f4579182015b828111156133f45782518255916020019190600101906133d9565b50613400929150613404565b5090565b5b808211156134005760008155600101613405565b60008083601f84011261342a578182fd5b50813567ffffffffffffffff811115613441578182fd5b602083019150836020808302850101111561345b57600080fd5b9250929050565b600082601f830112613472578081fd5b8135602061348761348283614c85565b614c5b565b82815281810190858301838502870184018810156134a3578586fd5b855b858110156134c1578135845292840192908401906001016134a5565b5090979650505050505050565b600082601f8301126134de578081fd5b813567ffffffffffffffff8111156134f8576134f8614dc6565b61350b601f8201601f1916602001614c5b565b81815284602083860101111561351f578283fd5b816020850160208301379081016020019190915292915050565b60008083601f84011261354a578182fd5b50813567ffffffffffffffff811115613561578182fd5b60208301915083602082850101111561345b57600080fd5b60006020828403121561358a578081fd5b813561183481614e87565b6000602082840312156135a6578081fd5b815161183481614e87565b600080604083850312156135c3578081fd5b82356135ce81614e87565b915060208301356135de81614e87565b809150509250929050565b600080600080600060a08688031215613600578081fd5b853561360b81614e87565b9450602086013561361b81614e87565b9350604086013567ffffffffffffffff80821115613637578283fd5b61364389838a01613462565b94506060880135915080821115613658578283fd5b61366489838a01613462565b93506080880135915080821115613679578283fd5b50613686888289016134ce565b9150509295509295909350565b600080600080600060a086880312156136aa578081fd5b85356136b581614e87565b945060208601356136c581614e87565b93506040860135925060608601359150608086013567ffffffffffffffff8111156136ee578182fd5b613686888289016134ce565b60008060008060008060008060008060e08b8d031215613718578788fd5b8a3561372381614e87565b995060208b013567ffffffffffffffff8082111561373f57898afd5b61374b8e838f01613419565b909b50995060408d0135915080821115613763578687fd5b61376f8e838f01613419565b909950975060608d0135915080821115613787578687fd5b506137948d828e01613539565b9b9e9a9d50989b979a9699969760808101359760a0820135975060c09091013595509350505050565b6000806000606084860312156137d1578081fd5b83356137dc81614e87565b9250602084013567ffffffffffffffff808211156137f8578283fd5b61380487838801613462565b93506040860135915080821115613819578283fd5b5061382686828701613462565b9150509250925092565b60008060008060808587031215613845578182fd5b843561385081614e87565b9350602085013567ffffffffffffffff8082111561386c578384fd5b61387888838901613462565b9450604087013591508082111561388d578384fd5b61389988838901613462565b935060608701359150808211156138ae578283fd5b506138bb878288016134ce565b91505092959194509250565b600080604083850312156138d9578182fd5b82356138e481614e87565b915060208301356135de81614e9c565b60008060408385031215613906578182fd5b823561391181614e87565b946020939093013593505050565b60008060008060608587031215613934578182fd5b843561393f81614e87565b935060208501359250604085013567ffffffffffffffff811115613961578283fd5b61396d87828801613539565b95989497509550505050565b60008060006060848603121561398d578081fd5b833561399881614e87565b95602085013595506040909401359392505050565b600080600080608085870312156139c2578182fd5b84356139cd81614e87565b93506020850135925060408501359150606085013567ffffffffffffffff8111156139f6578182fd5b6138bb878288016134ce565b600080600080600060808688031215613a19578283fd5b8535613a2481614e87565b94506020860135935060408601359250606086013567ffffffffffffffff811115613a4d578182fd5b613a5988828901613539565b969995985093965092949392505050565b60008060408385031215613a7c578182fd5b823567ffffffffffffffff80821115613a93578384fd5b818501915085601f830112613aa6578384fd5b81356020613ab661348283614c85565b82815281810190858301838502870184018b1015613ad2578889fd5b8896505b84871015613afd578035613ae981614e87565b835260019690960195918301918301613ad6565b5096505086013592505080821115613b13578283fd5b50613b2085828601613462565b9150509250929050565b60008060008060408587031215613b3f578182fd5b843567ffffffffffffffff80821115613b56578384fd5b613b6288838901613419565b90965094506020870135915080821115613b7a578384fd5b5061396d87828801613419565b600060208284031215613b98578081fd5b815161183481614e9c565b600060208284031215613bb4578081fd5b5035919050565b600060208284031215613bcc578081fd5b5051919050565b60008060408385031215613be5578182fd5b8235915060208301356135de81614e87565b60008060408385031215613c09578182fd5b50508035926020909101359150565b600060208284031215613c29578081fd5b813561183481614eaa565b600060208284031215613c45578081fd5b815161183481614eaa565b60008284527f07ffffffffffffffffffffffffffffffffffffffffffffffffffffffffffffff831115613c81578081fd5b6020830280836020870137939093016020019283525090919050565b6000815180845260208085019450808401835b83811015613ccc57815187529582019590820190600101613cb0565b509495945050505050565b60008151808452613cef816020860160208601614d17565b601f01601f19169290920160200192915050565b60008284528282602086013780602084860101526020601f19601f85011685010190509392505050565b60007f416363657373436f6e74726f6c3a206163636f756e742000000000000000000082528351613d65816017850160208801614d17565b7f206973206d697373696e6720726f6c65200000000000000000000000000000006017918401918201528351613da2816028840160208801614d17565b01602801949350505050565b6001600160a01b0391909116815260200190565b6001600160a01b0392831681529116602082015260400190565b60006001600160a01b03808816835280871660208401525060a06040830152613e0860a0830186613c9d565b8281036060840152613e1a8186613c9d565b90508281036080840152613e2e8185613cd7565b98975050505050505050565b6001600160a01b039384168152919092166020820152604081019190915260600190565b60006001600160a01b03808816835280871660208401525084604083015283606083015260a06080830152613e9660a0830184613cd7565b979650505050505050565b60006001600160a01b038616825260806020830152613ec36080830186613cd7565b905083604083015260038310613ee957634e487b7160e01b600052602160045260246000fd5b82606083015295945050505050565b6001600160a01b03929092168252602082015260400190565b6001600160a01b039390931683526020830191909152604082015260600190565b6000602082526118346020830184613c9d565b600060608252613f586060830188613c9d565b6020838203818501528187835281830190508182890284010189855b8a811015613fe057858303601f190184528135368d9003601e19018112613f99578788fd5b8c01803567ffffffffffffffff811115613fb1578889fd5b8036038e1315613fbf578889fd5b613fcc8582898501613d03565b958701959450505090840190600101613f74565b50508581036040870152613ff581888a613c50565b9b9a5050505050505050505050565b6000604082526140176040830185613c9d565b82810360208401526140298185613c9d565b95945050505050565b901515815260200190565b90815260200190565b9182526001600160a01b0316602082015260400190565b600060a0825261407160a08301888a613d03565b90506001600160a01b0386166020830152846040830152836060830152826080830152979650505050505050565b6000602082526118346020830184613cd7565b60208082526034908201527f455243313135353a207472616e7366657220746f206e6f6e204552433131353560408201527f526563656976657220696d706c656d656e746572000000000000000000000000606082015260800190565b6020808252818101527f537472696e67733a20686578206c656e67746820696e73756666696369656e74604082015260600190565b60208082526028908201527f455243313135353a204552433131353552656365697665722072656a6563746560408201527f6420746f6b656e73000000000000000000000000000000000000000000000000606082015260800190565b60208082526014908201527f5061757361626c653a206e6f7420706175736564000000000000000000000000604082015260600190565b6020808252602b908201527f455243313135353a2062616c616e636520717565727920666f7220746865207a60408201527f65726f2061646472657373000000000000000000000000000000000000000000606082015260800190565b6020808252818101527f4661696c656420746f207472616e7366657220455243323020746f6b656e732e604082015260600190565b60208082526026908201527f4f776e61626c653a206e6577206f776e657220697320746865207a65726f206160408201527f6464726573730000000000000000000000000000000000000000000000000000606082015260800190565b60208082526024908201527f455243313135353a206275726e20616d6f756e7420657863656564732062616c604082015263616e636560e01b606082015260800190565b6020808252602c908201527f455243313135355061757361626c653a20746f6b656e207472616e736665722060408201527f7768696c65207061757365640000000000000000000000000000000000000000606082015260800190565b60208082526029908201527f455243313135353a2063616c6c6572206973206e6f74206f776e6572206e6f7260408201527f20617070726f7665640000000000000000000000000000000000000000000000606082015260800190565b60208082526033908201527f4e46543a204d75737420617070726f76652074686520636f6e7472616374207460408201527f6f207472616e7366657220746865204e46542e00000000000000000000000000606082015260800190565b6020808252602b908201527f5061636b3a204270732070726f7669646564206d757374206265206c6573732060408201527f7468616e2031302c303030000000000000000000000000000000000000000000606082015260800190565b60208082526025908201527f4e46543a204661696c656420746f207472616e7366657220455243323020746f60408201527f6b656e732e000000000000000000000000000000000000000000000000000000606082015260800190565b60208082526010908201527f5061757361626c653a2070617573656400000000000000000000000000000000604082015260600190565b60208082526025908201527f455243313135353a207472616e7366657220746f20746865207a65726f20616460408201527f6472657373000000000000000000000000000000000000000000000000000000606082015260800190565b60208082526032908201527f455243313135353a207472616e736665722063616c6c6572206973206e6f742060408201527f6f776e6572206e6f7220617070726f7665640000000000000000000000000000606082015260800190565b60208082526023908201527f455243313135353a206275726e2066726f6d20746865207a65726f206164647260408201526265737360e81b606082015260800190565b60208082526038908201527f455243313135355072657365744d696e7465725061757365723a206d7573742060408201527f68617665206d696e74657220726f6c6520746f206d696e740000000000000000606082015260800190565b6020808252602a908201527f455243313135353a20696e73756666696369656e742062616c616e636520666f60408201527f72207472616e7366657200000000000000000000000000000000000000000000606082015260800190565b60208082526039908201527f4e46543a204d75737420617070726f7665207468697320636f6e74726163742060408201527f746f207472616e7366657220455243323020746f6b656e732e00000000000000606082015260800190565b60208082526029908201527f4e46543a2043616e6e6f742072656465656d20616e204e465420796f7520646f60408201527f206e6f74206f776e2e0000000000000000000000000000000000000000000000606082015260800190565b6020808252818101527f4f776e61626c653a2063616c6c6572206973206e6f7420746865206f776e6572604082015260600190565b60208082526032908201527f4e46543a206f6e6c7920612070726f746f636f6c2061646d696e2063616e206360408201527f616c6c20746869732066756e6374696f6e2e0000000000000000000000000000606082015260800190565b60208082526022908201527f4e46543a204d75737420637265617465206174206c65617374206f6e65204e466040820152612a1760f11b606082015260800190565b6020808252603b908201527f455243313135355072657365744d696e7465725061757365723a206d7573742060408201527f686176652070617573657220726f6c6520746f20756e70617573650000000000606082015260800190565b60208082526030908201527f4e46543a204d757374207370656369667920657175616c206e756d626572206f60408201527f6620636f6e6669672076616c7565732e00000000000000000000000000000000606082015260800190565b60208082526039908201527f455243313135355072657365744d696e7465725061757365723a206d7573742060408201527f686176652070617573657220726f6c6520746f20706175736500000000000000606082015260800190565b60208082526029908201527f455243313135353a2073657474696e6720617070726f76616c2073746174757360408201527f20666f722073656c660000000000000000000000000000000000000000000000606082015260800190565b60208082526029908201527f455243313135353a206163636f756e747320616e6420696473206c656e67746860408201527f206d69736d617463680000000000000000000000000000000000000000000000606082015260800190565b6020808252603a908201527f4e46543a204d757374206f776e2074686520616d6f756e74206f6620746f6b6560408201527f6e73207468617420617265206265696e6720777261707065642e000000000000606082015260800190565b60208082526028908201527f455243313135353a2069647320616e6420616d6f756e7473206c656e6774682060408201527f6d69736d61746368000000000000000000000000000000000000000000000000606082015260800190565b60208082526021908201527f455243313135353a206d696e7420746f20746865207a65726f206164647265736040820152607360f81b606082015260800190565b6020808252602b908201527f4e46543a204f6e6c7920746865206f776e6572206f6620746865204e4654206360408201527f616e20777261702069742e000000000000000000000000000000000000000000606082015260800190565b6020808252602f908201527f416363657373436f6e74726f6c3a2063616e206f6e6c792072656e6f756e636560408201527f20726f6c657320666f722073656c660000000000000000000000000000000000606082015260800190565b918252602082015260400190565b600085825284602083015260606040830152614c0c606083018486613d03565b9695505050505050565b6000808335601e19843603018112614c2c578283fd5b83018035915067ffffffffffffffff821115614c46578283fd5b60200191503681900382131561345b57600080fd5b60405181810167ffffffffffffffff81118282101715614c7d57614c7d614dc6565b604052919050565b600067ffffffffffffffff821115614c9f57614c9f614dc6565b5060209081020190565b60008219821115614cbc57614cbc614db0565b500190565b600082614cdc57634e487b7160e01b81526012600452602481fd5b500490565b6000816000190483118215151615614cfb57614cfb614db0565b500290565b600082821015614d1257614d12614db0565b500390565b60005b83811015614d32578181015183820152602001614d1a565b83811115610bdc5750506000910152565b600081614d5257614d52614db0565b506000190190565b600281046001821680614d6e57607f821691505b60208210811415614d8f57634e487b7160e01b600052602260045260246000fd5b50919050565b6000600019821415614da957614da9614db0565b5060010190565b634e487b7160e01b600052601160045260246000fd5b634e487b7160e01b600052604160045260246000fd5b60e01c90565b600060443d1015614df25761149e565b600481823e6308c379a0614e068251614ddc565b14614e105761149e565b6040513d600319016004823e80513d67ffffffffffffffff8160248401118184111715614e40575050505061149e565b82840192508251915080821115614e5a575050505061149e565b503d83016020828401011115614e725750505061149e565b601f01601f1916810160200160405291505090565b6001600160a01b0381168114611fd757600080fd5b8015158114611fd757600080fd5b6001600160e01b031981168114611fd757600080fdfea164736f6c6343000800000a",
  "linkReferences": {},
  "deployedLinkReferences": {}
}