{
  "_format": "hh-sol-artifact-1",
  "contractName": "NFT",
  "sourceName": "contracts/NFT.sol",
  "abi": [
    {
      "inputs": [
        {
          "internalType": "address payable",
          "name": "_controlCenter",
          "type": "address"
        },
        {
          "internalType": "string",
          "name": "_name",
          "type": "string"
        },
        {
          "internalType": "string",
          "name": "_symbol",
          "type": "string"
        },
        {
          "internalType": "address",
          "name": "_trustedForwarder",
          "type": "address"
        },
        {
          "internalType": "string",
          "name": "_uri",
          "type": "string"
        },
        {
          "internalType": "uint256",
          "name": "_royaltyBps",
          "type": "uint256"
        }
      ],
      "stateMutability": "nonpayable",
      "type": "constructor"
    },
    {
      "anonymous": false,
      "inputs": [
        {
          "indexed": true,
          "internalType": "address",
          "name": "owner",
          "type": "address"
        },
        {
          "indexed": true,
          "internalType": "address",
          "name": "approved",
          "type": "address"
        },
        {
          "indexed": true,
          "internalType": "uint256",
          "name": "tokenId",
          "type": "uint256"
        }
      ],
      "name": "Approval",
      "type": "event"
    },
    {
      "anonymous": false,
      "inputs": [
        {
          "indexed": true,
          "internalType": "address",
          "name": "owner",
          "type": "address"
        },
        {
          "indexed": true,
          "internalType": "address",
          "name": "operator",
          "type": "address"
        },
        {
          "indexed": false,
          "internalType": "bool",
          "name": "approved",
          "type": "bool"
        }
      ],
      "name": "ApprovalForAll",
      "type": "event"
    },
    {
      "anonymous": false,
      "inputs": [
        {
          "indexed": true,
          "internalType": "address",
          "name": "creator",
          "type": "address"
        },
        {
          "indexed": true,
          "internalType": "address",
          "name": "to",
          "type": "address"
        },
        {
          "indexed": false,
          "internalType": "uint256",
          "name": "tokenId",
          "type": "uint256"
        },
        {
          "indexed": false,
          "internalType": "string",
          "name": "tokenURI",
          "type": "string"
        }
      ],
      "name": "Minted",
      "type": "event"
    },
    {
      "anonymous": false,
      "inputs": [
        {
          "indexed": true,
          "internalType": "address",
          "name": "creator",
          "type": "address"
        },
        {
          "indexed": true,
          "internalType": "address",
          "name": "to",
          "type": "address"
        },
        {
          "indexed": false,
          "internalType": "uint256[]",
          "name": "tokenIds",
          "type": "uint256[]"
        },
        {
          "indexed": false,
          "internalType": "string[]",
          "name": "tokenURI",
          "type": "string[]"
        }
      ],
      "name": "MintedBatch",
      "type": "event"
    },
    {
      "anonymous": false,
      "inputs": [
        {
          "indexed": false,
          "internalType": "address",
          "name": "account",
          "type": "address"
        }
      ],
      "name": "Paused",
      "type": "event"
    },
    {
      "anonymous": false,
      "inputs": [
        {
          "indexed": false,
          "internalType": "bool",
          "name": "transferable",
          "type": "bool"
        }
      ],
      "name": "RestrictedTransferUpdated",
      "type": "event"
    },
    {
      "anonymous": false,
      "inputs": [
        {
          "indexed": true,
          "internalType": "bytes32",
          "name": "role",
          "type": "bytes32"
        },
        {
          "indexed": true,
          "internalType": "bytes32",
          "name": "previousAdminRole",
          "type": "bytes32"
        },
        {
          "indexed": true,
          "internalType": "bytes32",
          "name": "newAdminRole",
          "type": "bytes32"
        }
      ],
      "name": "RoleAdminChanged",
      "type": "event"
    },
    {
      "anonymous": false,
      "inputs": [
        {
          "indexed": true,
          "internalType": "bytes32",
          "name": "role",
          "type": "bytes32"
        },
        {
          "indexed": true,
          "internalType": "address",
          "name": "account",
          "type": "address"
        },
        {
          "indexed": true,
          "internalType": "address",
          "name": "sender",
          "type": "address"
        }
      ],
      "name": "RoleGranted",
      "type": "event"
    },
    {
      "anonymous": false,
      "inputs": [
        {
          "indexed": true,
          "internalType": "bytes32",
          "name": "role",
          "type": "bytes32"
        },
        {
          "indexed": true,
          "internalType": "address",
          "name": "account",
          "type": "address"
        },
        {
          "indexed": true,
          "internalType": "address",
          "name": "sender",
          "type": "address"
        }
      ],
      "name": "RoleRevoked",
      "type": "event"
    },
    {
      "anonymous": false,
      "inputs": [
        {
          "indexed": false,
          "internalType": "uint256",
          "name": "royaltyBps",
          "type": "uint256"
        }
      ],
      "name": "RoyaltyUpdated",
      "type": "event"
    },
    {
      "anonymous": false,
      "inputs": [
        {
          "indexed": true,
          "internalType": "address",
          "name": "from",
          "type": "address"
        },
        {
          "indexed": true,
          "internalType": "address",
          "name": "to",
          "type": "address"
        },
        {
          "indexed": true,
          "internalType": "uint256",
          "name": "tokenId",
          "type": "uint256"
        }
      ],
      "name": "Transfer",
      "type": "event"
    },
    {
      "anonymous": false,
      "inputs": [
        {
          "indexed": false,
          "internalType": "address",
          "name": "account",
          "type": "address"
        }
      ],
      "name": "Unpaused",
      "type": "event"
    },
    {
      "inputs": [],
      "name": "DEFAULT_ADMIN_ROLE",
      "outputs": [
        {
          "internalType": "bytes32",
          "name": "",
          "type": "bytes32"
        }
      ],
      "stateMutability": "view",
      "type": "function"
    },
    {
      "inputs": [],
      "name": "MINTER_ROLE",
      "outputs": [
        {
          "internalType": "bytes32",
          "name": "",
          "type": "bytes32"
        }
      ],
      "stateMutability": "view",
      "type": "function"
    },
    {
      "inputs": [],
      "name": "PAUSER_ROLE",
      "outputs": [
        {
          "internalType": "bytes32",
          "name": "",
          "type": "bytes32"
        }
      ],
      "stateMutability": "view",
      "type": "function"
    },
    {
      "inputs": [],
      "name": "TRANSFER_ROLE",
      "outputs": [
        {
          "internalType": "bytes32",
          "name": "",
          "type": "bytes32"
        }
      ],
      "stateMutability": "view",
      "type": "function"
    },
    {
      "inputs": [],
      "name": "_contractURI",
      "outputs": [
        {
          "internalType": "string",
          "name": "",
          "type": "string"
        }
      ],
      "stateMutability": "view",
      "type": "function"
    },
    {
      "inputs": [
        {
          "internalType": "address",
          "name": "to",
          "type": "address"
        },
        {
          "internalType": "uint256",
          "name": "tokenId",
          "type": "uint256"
        }
      ],
      "name": "approve",
      "outputs": [],
      "stateMutability": "nonpayable",
      "type": "function"
    },
    {
      "inputs": [
        {
          "internalType": "address",
          "name": "owner",
          "type": "address"
        }
      ],
      "name": "balanceOf",
      "outputs": [
        {
          "internalType": "uint256",
          "name": "",
          "type": "uint256"
        }
      ],
      "stateMutability": "view",
      "type": "function"
    },
    {
      "inputs": [
        {
          "internalType": "uint256",
          "name": "tokenId",
          "type": "uint256"
        }
      ],
      "name": "burn",
      "outputs": [],
      "stateMutability": "nonpayable",
      "type": "function"
    },
    {
      "inputs": [],
      "name": "contractURI",
      "outputs": [
        {
          "internalType": "string",
          "name": "",
          "type": "string"
        }
      ],
      "stateMutability": "view",
      "type": "function"
    },
    {
      "inputs": [
        {
          "internalType": "uint256",
          "name": "",
          "type": "uint256"
        }
      ],
      "name": "creator",
      "outputs": [
        {
          "internalType": "address",
          "name": "",
          "type": "address"
        }
      ],
      "stateMutability": "view",
      "type": "function"
    },
    {
      "inputs": [
        {
          "internalType": "uint256",
          "name": "tokenId",
          "type": "uint256"
        }
      ],
      "name": "getApproved",
      "outputs": [
        {
          "internalType": "address",
          "name": "",
          "type": "address"
        }
      ],
      "stateMutability": "view",
      "type": "function"
    },
    {
      "inputs": [
        {
          "internalType": "bytes32",
          "name": "role",
          "type": "bytes32"
        }
      ],
      "name": "getRoleAdmin",
      "outputs": [
        {
          "internalType": "bytes32",
          "name": "",
          "type": "bytes32"
        }
      ],
      "stateMutability": "view",
      "type": "function"
    },
    {
      "inputs": [
        {
          "internalType": "bytes32",
          "name": "role",
          "type": "bytes32"
        },
        {
          "internalType": "uint256",
          "name": "index",
          "type": "uint256"
        }
      ],
      "name": "getRoleMember",
      "outputs": [
        {
          "internalType": "address",
          "name": "",
          "type": "address"
        }
      ],
      "stateMutability": "view",
      "type": "function"
    },
    {
      "inputs": [
        {
          "internalType": "bytes32",
          "name": "role",
          "type": "bytes32"
        }
      ],
      "name": "getRoleMemberCount",
      "outputs": [
        {
          "internalType": "uint256",
          "name": "",
          "type": "uint256"
        }
      ],
      "stateMutability": "view",
      "type": "function"
    },
    {
      "inputs": [
        {
          "internalType": "bytes32",
          "name": "role",
          "type": "bytes32"
        },
        {
          "internalType": "address",
          "name": "account",
          "type": "address"
        }
      ],
      "name": "grantRole",
      "outputs": [],
      "stateMutability": "nonpayable",
      "type": "function"
    },
    {
      "inputs": [
        {
          "internalType": "bytes32",
          "name": "role",
          "type": "bytes32"
        },
        {
          "internalType": "address",
          "name": "account",
          "type": "address"
        }
      ],
      "name": "hasRole",
      "outputs": [
        {
          "internalType": "bool",
          "name": "",
          "type": "bool"
        }
      ],
      "stateMutability": "view",
      "type": "function"
    },
    {
      "inputs": [
        {
          "internalType": "address",
          "name": "owner",
          "type": "address"
        },
        {
          "internalType": "address",
          "name": "operator",
          "type": "address"
        }
      ],
      "name": "isApprovedForAll",
      "outputs": [
        {
          "internalType": "bool",
          "name": "",
          "type": "bool"
        }
      ],
      "stateMutability": "view",
      "type": "function"
    },
    {
      "inputs": [
        {
          "internalType": "address",
          "name": "forwarder",
          "type": "address"
        }
      ],
      "name": "isTrustedForwarder",
      "outputs": [
        {
          "internalType": "bool",
          "name": "",
          "type": "bool"
        }
      ],
      "stateMutability": "view",
      "type": "function"
    },
    {
      "inputs": [
        {
          "internalType": "address",
          "name": "",
          "type": "address"
        }
      ],
      "name": "mint",
      "outputs": [],
      "stateMutability": "pure",
      "type": "function"
    },
    {
      "inputs": [
        {
          "internalType": "address",
          "name": "_to",
          "type": "address"
        },
        {
          "internalType": "string",
          "name": "_uri",
          "type": "string"
        }
      ],
      "name": "mintNFT",
      "outputs": [],
      "stateMutability": "nonpayable",
      "type": "function"
    },
    {
      "inputs": [
        {
          "internalType": "address",
          "name": "_to",
          "type": "address"
        },
        {
          "internalType": "string[]",
          "name": "_uris",
          "type": "string[]"
        }
      ],
      "name": "mintNFTBatch",
      "outputs": [],
      "stateMutability": "nonpayable",
      "type": "function"
    },
    {
      "inputs": [
        {
          "internalType": "bytes[]",
          "name": "data",
          "type": "bytes[]"
        }
      ],
      "name": "multicall",
      "outputs": [
        {
          "internalType": "bytes[]",
          "name": "results",
          "type": "bytes[]"
        }
      ],
      "stateMutability": "nonpayable",
      "type": "function"
    },
    {
      "inputs": [],
      "name": "name",
      "outputs": [
        {
          "internalType": "string",
          "name": "",
          "type": "string"
        }
      ],
      "stateMutability": "view",
      "type": "function"
    },
    {
      "inputs": [],
      "name": "nextTokenId",
      "outputs": [
        {
          "internalType": "uint256",
          "name": "",
          "type": "uint256"
        }
      ],
      "stateMutability": "view",
      "type": "function"
    },
    {
      "inputs": [
        {
          "internalType": "uint256",
          "name": "",
          "type": "uint256"
        }
      ],
      "name": "nftURI",
      "outputs": [
        {
          "internalType": "string",
          "name": "",
          "type": "string"
        }
      ],
      "stateMutability": "view",
      "type": "function"
    },
    {
      "inputs": [
        {
          "internalType": "uint256",
          "name": "tokenId",
          "type": "uint256"
        }
      ],
      "name": "ownerOf",
      "outputs": [
        {
          "internalType": "address",
          "name": "",
          "type": "address"
        }
      ],
      "stateMutability": "view",
      "type": "function"
    },
    {
      "inputs": [],
      "name": "pause",
      "outputs": [],
      "stateMutability": "nonpayable",
      "type": "function"
    },
    {
      "inputs": [],
      "name": "paused",
      "outputs": [
        {
          "internalType": "bool",
          "name": "",
          "type": "bool"
        }
      ],
      "stateMutability": "view",
      "type": "function"
    },
    {
      "inputs": [
        {
          "internalType": "bytes32",
          "name": "role",
          "type": "bytes32"
        },
        {
          "internalType": "address",
          "name": "account",
          "type": "address"
        }
      ],
      "name": "renounceRole",
      "outputs": [],
      "stateMutability": "nonpayable",
      "type": "function"
    },
    {
      "inputs": [
        {
          "internalType": "bytes32",
          "name": "role",
          "type": "bytes32"
        },
        {
          "internalType": "address",
          "name": "account",
          "type": "address"
        }
      ],
      "name": "revokeRole",
      "outputs": [],
      "stateMutability": "nonpayable",
      "type": "function"
    },
    {
      "inputs": [],
      "name": "royaltyBps",
      "outputs": [
        {
          "internalType": "uint256",
          "name": "",
          "type": "uint256"
        }
      ],
      "stateMutability": "view",
      "type": "function"
    },
    {
      "inputs": [
        {
          "internalType": "uint256",
          "name": "",
          "type": "uint256"
        },
        {
          "internalType": "uint256",
          "name": "salePrice",
          "type": "uint256"
        }
      ],
      "name": "royaltyInfo",
      "outputs": [
        {
          "internalType": "address",
          "name": "receiver",
          "type": "address"
        },
        {
          "internalType": "uint256",
          "name": "royaltyAmount",
          "type": "uint256"
        }
      ],
      "stateMutability": "view",
      "type": "function"
    },
    {
      "inputs": [
        {
          "internalType": "address",
          "name": "from",
          "type": "address"
        },
        {
          "internalType": "address",
          "name": "to",
          "type": "address"
        },
        {
          "internalType": "uint256",
          "name": "tokenId",
          "type": "uint256"
        }
      ],
      "name": "safeTransferFrom",
      "outputs": [],
      "stateMutability": "nonpayable",
      "type": "function"
    },
    {
      "inputs": [
        {
          "internalType": "address",
          "name": "from",
          "type": "address"
        },
        {
          "internalType": "address",
          "name": "to",
          "type": "address"
        },
        {
          "internalType": "uint256",
          "name": "tokenId",
          "type": "uint256"
        },
        {
          "internalType": "bytes",
          "name": "_data",
          "type": "bytes"
        }
      ],
      "name": "safeTransferFrom",
      "outputs": [],
      "stateMutability": "nonpayable",
      "type": "function"
    },
    {
      "inputs": [
        {
          "internalType": "address",
          "name": "operator",
          "type": "address"
        },
        {
          "internalType": "bool",
          "name": "approved",
          "type": "bool"
        }
      ],
      "name": "setApprovalForAll",
      "outputs": [],
      "stateMutability": "nonpayable",
      "type": "function"
    },
    {
      "inputs": [
        {
          "internalType": "string",
          "name": "_URI",
          "type": "string"
        }
      ],
      "name": "setContractURI",
      "outputs": [],
      "stateMutability": "nonpayable",
      "type": "function"
    },
    {
      "inputs": [
        {
          "internalType": "bool",
          "name": "_restrictedTransfer",
          "type": "bool"
        }
      ],
      "name": "setRestrictedTransfer",
      "outputs": [],
      "stateMutability": "nonpayable",
      "type": "function"
    },
    {
      "inputs": [
        {
          "internalType": "uint256",
          "name": "_royaltyBps",
          "type": "uint256"
        }
      ],
      "name": "setRoyaltyBps",
      "outputs": [],
      "stateMutability": "nonpayable",
      "type": "function"
    },
    {
      "inputs": [
        {
          "internalType": "bytes4",
          "name": "interfaceId",
          "type": "bytes4"
        }
      ],
      "name": "supportsInterface",
      "outputs": [
        {
          "internalType": "bool",
          "name": "",
          "type": "bool"
        }
      ],
      "stateMutability": "view",
      "type": "function"
    },
    {
      "inputs": [],
      "name": "symbol",
      "outputs": [
        {
          "internalType": "string",
          "name": "",
          "type": "string"
        }
      ],
      "stateMutability": "view",
      "type": "function"
    },
    {
      "inputs": [
        {
          "internalType": "uint256",
          "name": "index",
          "type": "uint256"
        }
      ],
      "name": "tokenByIndex",
      "outputs": [
        {
          "internalType": "uint256",
          "name": "",
          "type": "uint256"
        }
      ],
      "stateMutability": "view",
      "type": "function"
    },
    {
      "inputs": [
        {
          "internalType": "address",
          "name": "owner",
          "type": "address"
        },
        {
          "internalType": "uint256",
          "name": "index",
          "type": "uint256"
        }
      ],
      "name": "tokenOfOwnerByIndex",
      "outputs": [
        {
          "internalType": "uint256",
          "name": "",
          "type": "uint256"
        }
      ],
      "stateMutability": "view",
      "type": "function"
    },
    {
      "inputs": [
        {
          "internalType": "uint256",
          "name": "tokenId",
          "type": "uint256"
        }
      ],
      "name": "tokenURI",
      "outputs": [
        {
          "internalType": "string",
          "name": "",
          "type": "string"
        }
      ],
      "stateMutability": "view",
      "type": "function"
    },
    {
      "inputs": [],
      "name": "totalSupply",
      "outputs": [
        {
          "internalType": "uint256",
          "name": "",
          "type": "uint256"
        }
      ],
      "stateMutability": "view",
      "type": "function"
    },
    {
      "inputs": [
        {
          "internalType": "address",
          "name": "from",
          "type": "address"
        },
        {
          "internalType": "address",
          "name": "to",
          "type": "address"
        },
        {
          "internalType": "uint256",
          "name": "tokenId",
          "type": "uint256"
        }
      ],
      "name": "transferFrom",
      "outputs": [],
      "stateMutability": "nonpayable",
      "type": "function"
    },
    {
      "inputs": [],
      "name": "transfersRestricted",
      "outputs": [
        {
          "internalType": "bool",
          "name": "",
          "type": "bool"
        }
      ],
      "stateMutability": "view",
      "type": "function"
    },
    {
      "inputs": [],
      "name": "unpause",
      "outputs": [],
      "stateMutability": "nonpayable",
      "type": "function"
    }
  ],
  "bytecode": "0x60806040523480156200001157600080fd5b506040516200428a3803806200428a833981016040819052620000349162000696565b8285858482828160029080519060200190620000529291906200050a565b508051620000689060039060208401906200050a565b5050600c805460ff191690555080516200008a90600e9060208401906200050a565b50620000a160006200009b6200018e565b620001aa565b620000d07f9f2df0fed2c77648de5860a4cc508cd0818c85b8b8a1ab4ceeef8d981c8956a66200009b6200018e565b620000ff7f65d7a28e3265b37a6474929f336521b332c1681b933f6cb9f3376673440d862a6200009b6200018e565b5050600f80546001600160a01b03199081166001600160a01b03948516179091556010805490911692891692909217909155508151620001479060129060208501906200050a565b50620001777f8502233096d909befbda0999bb8ea2f3a6be3c138b9fbf003752a4c8bce86f6c6200009b6200018e565b6200018281620001ed565b505050505050620007ca565b6000620001a5620003a960201b62001c621760201c565b905090565b620001c18282620003e260201b62001c8f1760201c565b6000828152600160209081526040909120620001e891839062001c9d620003f2821b17901c565b505050565b620002266000620001fd6200018e565b6000918252602082815260408084206001600160a01b0393909316845291905290205460ff1690565b620002785760405162461bcd60e51b815260206004820152601660248201527f6f6e6c79206d6f64756c652061646d696e20726f6c650000000000000000000060448201526064015b60405180910390fd5b601060009054906101000a90046001600160a01b03166001600160a01b031663fd967f476040518163ffffffff1660e01b815260040160206040518083038186803b158015620002c757600080fd5b505afa158015620002dc573d6000803e3d6000fd5b505050506040513d601f19601f820116820180604052508101906200030291906200075b565b6001600160801b031681106200036e5760405162461bcd60e51b815260206004820152602a60248201527f4e46543a204270732070726f7669646564206d757374206265206c6573732074604482015269068616e2031302c3030360b41b60648201526084016200026f565b60158190556040518181527f244ea8d7627f5a08f4299862bd5a45752842c183aee5b0fb0d1e4887bfa605b39060200160405180910390a150565b600f546000906001600160a01b0316331415620003cd575060131936013560601c90565b620001a56200041260201b62001cb21760201c565b620003ee828262000416565b5050565b600062000409836001600160a01b038416620004b8565b90505b92915050565b3390565b6000828152602081815260408083206001600160a01b038516845290915290205460ff16620003ee576000828152602081815260408083206001600160a01b03851684529091529020805460ff19166001179055620004746200018e565b6001600160a01b0316816001600160a01b0316837f2f8788117e7eff1d82e926ec794901d17c78024a50270940304540a733656f0d60405160405180910390a45050565b600081815260018301602052604081205462000501575081546001818101845560008481526020808220909301849055845484825282860190935260409020919091556200040c565b5060006200040c565b82805462000518906200078d565b90600052602060002090601f0160209004810192826200053c576000855562000587565b82601f106200055757805160ff191683800117855562000587565b8280016001018555821562000587579182015b82811115620005875782518255916020019190600101906200056a565b506200059592915062000599565b5090565b5b808211156200059557600081556001016200059a565b6001600160a01b0381168114620005c657600080fd5b50565b634e487b7160e01b600052604160045260246000fd5b600082601f830112620005f157600080fd5b81516001600160401b03808211156200060e576200060e620005c9565b604051601f8301601f19908116603f01168101908282118183101715620006395762000639620005c9565b816040528381526020925086838588010111156200065657600080fd5b600091505b838210156200067a57858201830151818301840152908201906200065b565b838211156200068c5760008385830101525b9695505050505050565b60008060008060008060c08789031215620006b057600080fd5b8651620006bd81620005b0565b60208801519096506001600160401b0380821115620006db57600080fd5b620006e98a838b01620005df565b965060408901519150808211156200070057600080fd5b6200070e8a838b01620005df565b9550606089015191506200072282620005b0565b6080890151919450808211156200073857600080fd5b506200074789828a01620005df565b92505060a087015190509295509295509295565b6000602082840312156200076e57600080fd5b81516001600160801b03811681146200078657600080fd5b9392505050565b600181811c90821680620007a257607f821691505b60208210811415620007c457634e487b7160e01b600052602260045260246000fd5b50919050565b613ab080620007da6000396000f3fe608060405234801561001057600080fd5b50600436106103155760003560e01c806370a08231116101a7578063b88d4fde116100ee578063d547741f11610097578063e985e9c511610071578063e985e9c5146106f2578063eacabe141461072e578063efe476871461074157600080fd5b8063d547741f146106b0578063e63ab1e9146106c3578063e8a3d485146106ea57600080fd5b8063c87b56dd116100c8578063c87b56dd14610663578063ca15c87314610676578063d53913931461068957600080fd5b8063b88d4fde1461063f578063c0e7274014610652578063c63adb2b1461065a57600080fd5b806391d1485411610150578063a217fddf1161012a578063a217fddf14610604578063a22cb4651461060c578063ac9650d81461061f57600080fd5b806391d14854146105b2578063938e3d7b146105e957806395d89b41146105fc57600080fd5b80638456cb59116101815780638456cb59146105845780638ba448c21461058c5780639010d07c1461059f57600080fd5b806370a082311461055457806375794a3c146105675780638423df791461057057600080fd5b80632f745c591161026b5780634f6ccce7116102145780635c975abb116101ee5780635c975abb146105235780636352211e1461052e5780636a6278421461054157600080fd5b80634f6ccce7146104c5578063510b5158146104d8578063572b6c051461050157600080fd5b806342842e0e1161024557806342842e0e1461048c57806342966c681461049f57806349a33a2f146104b257600080fd5b80632f745c591461045e57806336568abe146104715780633f4ba83a1461048457600080fd5b80631f72d831116102cd578063248a9ca3116102a7578063248a9ca3146103f65780632a55205a146104195780632f2ff15d1461044b57600080fd5b80631f72d831146103a9578063206b60f9146103bc57806323b872dd146103e357600080fd5b8063081812fc116102fe578063081812fc14610357578063095ea7b31461038257806318160ddd1461039757600080fd5b806301ffc9a71461031a57806306fdde0314610342575b600080fd5b61032d610328366004613171565b610754565b60405190151581526020015b60405180910390f35b61034a610780565b60405161033991906131e6565b61036a6103653660046131f9565b610812565b6040516001600160a01b039091168152602001610339565b610395610390366004613227565b6108ac565b005b600a545b604051908152602001610339565b6103956103b73660046131f9565b6109d4565b61039b7f8502233096d909befbda0999bb8ea2f3a6be3c138b9fbf003752a4c8bce86f6c81565b6103956103f1366004613253565b610b75565b61039b6104043660046131f9565b60009081526020819052604090206001015490565b61042c610427366004613294565b610bf7565b604080516001600160a01b039093168352602083019190915201610339565b6103956104593660046132b6565b610d32565b61039b61046c366004613227565b610d54565b61039561047f3660046132b6565b610dfc565b610395610e1e565b61039561049a366004613253565b610ec8565b6103956104ad3660046131f9565b610ee3565b6103956104c0366004613332565b610f6c565b61039b6104d33660046131f9565b6111a3565b61036a6104e63660046131f9565b6014602052600090815260409020546001600160a01b031681565b61032d61050f366004613387565b600f546001600160a01b0391821691161490565b600c5460ff1661032d565b61036a61053c3660046131f9565b611247565b61039561054f366004613387565b6112d2565b61039b610562366004613387565b61131a565b61039b60115481565b600f5461032d90600160a01b900460ff1681565b6103956113b4565b61039561059a3660046133b2565b61145a565b61036a6105ad366004613294565b61151b565b61032d6105c03660046132b6565b6000918252602082815260408084206001600160a01b0393909316845291905290205460ff1690565b6103956105f7366004613411565b61153a565b61034a6116c2565b61039b600081565b61039561061a366004613453565b6116d1565b61063261062d366004613481565b6117d3565b60405161033991906134b7565b61039561064d36600461352f565b6118c8565b61034a611951565b61039b60155481565b61034a6106713660046131f9565b6119df565b61039b6106843660046131f9565b611a81565b61039b7f9f2df0fed2c77648de5860a4cc508cd0818c85b8b8a1ab4ceeef8d981c8956a681565b6103956106be3660046132b6565b611a98565b61039b7f65d7a28e3265b37a6474929f336521b332c1681b933f6cb9f3376673440d862a81565b61034a611aa2565b61032d61070036600461360f565b6001600160a01b03918216600090815260076020908152604080832093909416825291909152205460ff1690565b61039561073c36600461363d565b611ab1565b61034a61074f3660046131f9565b611c49565b600061075f82611cb6565b8061077a57506001600160e01b0319821663152a902d60e11b145b92915050565b60606002805461078f90613685565b80601f01602080910402602001604051908101604052809291908181526020018280546107bb90613685565b80156108085780601f106107dd57610100808354040283529160200191610808565b820191906000526020600020905b8154815290600101906020018083116107eb57829003601f168201915b5050505050905090565b6000818152600460205260408120546001600160a01b03166108905760405162461bcd60e51b815260206004820152602c60248201527f4552433732313a20617070726f76656420717565727920666f72206e6f6e657860448201526b34b9ba32b73a103a37b5b2b760a11b60648201526084015b60405180910390fd5b506000908152600660205260409020546001600160a01b031690565b60006108b782611247565b9050806001600160a01b0316836001600160a01b031614156109255760405162461bcd60e51b815260206004820152602160248201527f4552433732313a20617070726f76616c20746f2063757272656e74206f776e656044820152603960f91b6064820152608401610887565b806001600160a01b0316610937611cc1565b6001600160a01b03161480610953575061095381610700611cc1565b6109c55760405162461bcd60e51b815260206004820152603860248201527f4552433732313a20617070726f76652063616c6c6572206973206e6f74206f7760448201527f6e6572206e6f7220617070726f76656420666f7220616c6c00000000000000006064820152608401610887565b6109cf8383611ccb565b505050565b6109e160006105c0611cc1565b610a2d5760405162461bcd60e51b815260206004820152601660248201527f6f6e6c79206d6f64756c652061646d696e20726f6c65000000000000000000006044820152606401610887565b601060009054906101000a90046001600160a01b03166001600160a01b031663fd967f476040518163ffffffff1660e01b815260040160206040518083038186803b158015610a7b57600080fd5b505afa158015610a8f573d6000803e3d6000fd5b505050506040513d601f19601f82011682018060405250810190610ab391906136c0565b6fffffffffffffffffffffffffffffffff168110610b395760405162461bcd60e51b815260206004820152602a60248201527f4e46543a204270732070726f7669646564206d757374206265206c657373207460448201527f68616e2031302c303030000000000000000000000000000000000000000000006064820152608401610887565b60158190556040518181527f244ea8d7627f5a08f4299862bd5a45752842c183aee5b0fb0d1e4887bfa605b3906020015b60405180910390a150565b610b86610b80611cc1565b82611d39565b610bec5760405162461bcd60e51b815260206004820152603160248201527f4552433732313a207472616e736665722063616c6c6572206973206e6f74206f6044820152701ddb995c881b9bdc88185c1c1c9bdd9959607a1b6064820152608401610887565b6109cf838383611e30565b60105460405163f2aab4b360e01b815230600482015260009182916001600160a01b039091169063f2aab4b39060240160206040518083038186803b158015610c3f57600080fd5b505afa158015610c53573d6000803e3d6000fd5b505050506040513d601f19601f82011682018060405250810190610c7791906136f2565b9150601060009054906101000a90046001600160a01b03166001600160a01b031663fd967f476040518163ffffffff1660e01b815260040160206040518083038186803b158015610cc757600080fd5b505afa158015610cdb573d6000803e3d6000fd5b505050506040513d601f19601f82011682018060405250810190610cff91906136c0565b6fffffffffffffffffffffffffffffffff1660155484610d1f9190613725565b610d299190613744565b90509250929050565b610d3c8282611fef565b60008281526001602052604090206109cf9082611c9d565b6000610d5f8361131a565b8210610dd35760405162461bcd60e51b815260206004820152602b60248201527f455243373231456e756d657261626c653a206f776e657220696e646578206f7560448201527f74206f6620626f756e64730000000000000000000000000000000000000000006064820152608401610887565b506001600160a01b03919091166000908152600860209081526040808320938352929052205490565b610e06828261201c565b60008281526001602052604090206109cf90826120b4565b610e4a7f65d7a28e3265b37a6474929f336521b332c1681b933f6cb9f3376673440d862a6105c0611cc1565b610ebe576040805162461bcd60e51b81526020600482015260248101919091527f4552433732315072657365744d696e7465725061757365724175746f49643a2060448201527f6d75737420686176652070617573657220726f6c6520746f20756e70617573656064820152608401610887565b610ec66120c9565b565b6109cf838383604051806020016040528060008152506118c8565b610eee610b80611cc1565b610f605760405162461bcd60e51b815260206004820152603060248201527f4552433732314275726e61626c653a2063616c6c6572206973206e6f74206f7760448201527f6e6572206e6f7220617070726f766564000000000000000000000000000000006064820152608401610887565b610f698161216b565b50565b600c5460ff1615610fb25760405162461bcd60e51b815260206004820152601060248201526f14185d5cd8589b194e881c185d5cd95960821b6044820152606401610887565b610fde7f9f2df0fed2c77648de5860a4cc508cd0818c85b8b8a1ab4ceeef8d981c8956a66105c0611cc1565b6110355760405162461bcd60e51b815260206004820152602260248201527f4e46543a206d7573742068617665206d696e74657220726f6c6520746f206d696044820152611b9d60f21b6064820152608401610887565b60008167ffffffffffffffff81111561105057611050613519565b604051908082528060200260200182016040528015611079578160200160208202803683370190505b50601154909150600061108a611cc1565b905060005b8481101561114457828482815181106110aa576110aa613766565b6020026020010181815250508585828181106110c8576110c8613766565b90506020028101906110da919061377c565b60008581526013602052604090206110f39290916130c2565b50600083815260146020526040902080546001600160a01b0319166001600160a01b0384161790556111258784612212565b6111306001846137c3565b92508061113c816137db565b91505061108f565b5081601181905550856001600160a01b0316816001600160a01b03167f2a7af4d3b262c3e3d51c600cdf7a940c9aba3fedcc85148aeda266cc4c4a2f338588886040516111939392919061381f565b60405180910390a3505050505050565b60006111ae600a5490565b82106112225760405162461bcd60e51b815260206004820152602c60248201527f455243373231456e756d657261626c653a20676c6f62616c20696e646578206f60448201527f7574206f6620626f756e647300000000000000000000000000000000000000006064820152608401610887565b600a828154811061123557611235613766565b90600052602060002001549050919050565b6000818152600460205260408120546001600160a01b03168061077a5760405162461bcd60e51b815260206004820152602960248201527f4552433732313a206f776e657220717565727920666f72206e6f6e657869737460448201527f656e7420746f6b656e00000000000000000000000000000000000000000000006064820152608401610887565b60405162461bcd60e51b815260206004820152601d60248201527f4e46543732313a2043616c6c206d696e744e465420696e73746561642e0000006044820152606401610887565b60006001600160a01b0382166113985760405162461bcd60e51b815260206004820152602a60248201527f4552433732313a2062616c616e636520717565727920666f7220746865207a6560448201527f726f2061646472657373000000000000000000000000000000000000000000006064820152608401610887565b506001600160a01b031660009081526005602052604090205490565b6113e07f65d7a28e3265b37a6474929f336521b332c1681b933f6cb9f3376673440d862a6105c0611cc1565b6114525760405162461bcd60e51b815260206004820152603e60248201527f4552433732315072657365744d696e7465725061757365724175746f49643a2060448201527f6d75737420686176652070617573657220726f6c6520746f20706175736500006064820152608401610887565b610ec6612360565b61146760006105c0611cc1565b6114b35760405162461bcd60e51b815260206004820152601660248201527f6f6e6c79206d6f64756c652061646d696e20726f6c65000000000000000000006044820152606401610887565b600f8054821515600160a01b027fffffffffffffffffffffff00ffffffffffffffffffffffffffffffffffffffff9091161790556040517ffb4ba02cee22486df888d7ffb97c6100ec3193781e025cb9a4bc6fc358d626cc90610b6a90831515815260200190565b600082815260016020526040812061153390836123dc565b9392505050565b6010546040805163a217fddf60e01b815290516001600160a01b03909216916391d1485491839163a217fddf91600480820192602092909190829003018186803b15801561158757600080fd5b505afa15801561159b573d6000803e3d6000fd5b505050506040513d601f19601f820116820180604052508101906115bf91906138f3565b6115c7611cc1565b6040516001600160e01b031960e085901b16815260048101929092526001600160a01b0316602482015260440160206040518083038186803b15801561160c57600080fd5b505afa158015611620573d6000803e3d6000fd5b505050506040513d601f19601f82011682018060405250810190611644919061390c565b6116b65760405162461bcd60e51b815260206004820152603260248201527f4e46543a206f6e6c7920612070726f746f636f6c2061646d696e2063616e206360448201527f616c6c20746869732066756e6374696f6e2e00000000000000000000000000006064820152608401610887565b6109cf601283836130c2565b60606003805461078f90613685565b6116d9611cc1565b6001600160a01b0316826001600160a01b0316141561173a5760405162461bcd60e51b815260206004820152601960248201527f4552433732313a20617070726f766520746f2063616c6c6572000000000000006044820152606401610887565b8060076000611747611cc1565b6001600160a01b03908116825260208083019390935260409182016000908120918716808252919093529120805460ff19169215159290921790915561178b611cc1565b6001600160a01b03167f17307eab39ab6107e8899845ad3d59bd9653f200f220920489ca2b5937696c31836040516117c7911515815260200190565b60405180910390a35050565b60608167ffffffffffffffff8111156117ee576117ee613519565b60405190808252806020026020018201604052801561182157816020015b606081526020019060019003908161180c5790505b50905060005b828110156118c1576118913085858481811061184557611845613766565b9050602002810190611857919061377c565b8080601f0160208091040260200160405190810160405280939291908181526020018383808284376000920191909152506123e892505050565b8282815181106118a3576118a3613766565b602002602001018190525080806118b9906137db565b915050611827565b5092915050565b6118d96118d3611cc1565b83611d39565b61193f5760405162461bcd60e51b815260206004820152603160248201527f4552433732313a207472616e736665722063616c6c6572206973206e6f74206f6044820152701ddb995c881b9bdc88185c1c1c9bdd9959607a1b6064820152608401610887565b61194b8484848461240d565b50505050565b6012805461195e90613685565b80601f016020809104026020016040519081016040528092919081815260200182805461198a90613685565b80156119d75780601f106119ac576101008083540402835291602001916119d7565b820191906000526020600020905b8154815290600101906020018083116119ba57829003601f168201915b505050505081565b60008181526013602052604090208054606091906119fc90613685565b80601f0160208091040260200160405190810160405280929190818152602001828054611a2890613685565b8015611a755780601f10611a4a57610100808354040283529160200191611a75565b820191906000526020600020905b815481529060010190602001808311611a5857829003601f168201915b50505050509050919050565b600081815260016020526040812061077a9061248b565b610e068282612495565b60606012805461078f90613685565b600c5460ff1615611af75760405162461bcd60e51b815260206004820152601060248201526f14185d5cd8589b194e881c185d5cd95960821b6044820152606401610887565b611b237f9f2df0fed2c77648de5860a4cc508cd0818c85b8b8a1ab4ceeef8d981c8956a66105c0611cc1565b611b7a5760405162461bcd60e51b815260206004820152602260248201527f4e46543a206d7573742068617665206d696e74657220726f6c6520746f206d696044820152611b9d60f21b6064820152608401610887565b6011546000818152601360205260409020611b969084846130c2565b50611b9f611cc1565b600082815260146020526040902080546001600160a01b0319166001600160a01b0392909216919091179055611bd58482612212565b600160116000828254611be891906137c3565b90915550506001600160a01b038416611bff611cc1565b6001600160a01b03167fafe8c5a4c36942a61550534b714a0076ab46ef8ef23e361572aad8b7ca2ac27d838686604051611c3b93929190613929565b60405180910390a350505050565b6013602052600090815260409020805461195e90613685565b600f546000906001600160a01b0316331415611c85575060131936013560601c90565b503390565b905090565b611c9982826124bd565b5050565b6000611533836001600160a01b03841661255c565b3390565b600061077a826125ab565b6000611c8a611c62565b600081815260066020526040902080546001600160a01b0319166001600160a01b0384169081179091558190611d0082611247565b6001600160a01b03167f8c5be1e5ebec7d5bd14f71427d1e84f3dd0314c0f7b2291e5b200ac8c7c3b92560405160405180910390a45050565b6000818152600460205260408120546001600160a01b0316611db25760405162461bcd60e51b815260206004820152602c60248201527f4552433732313a206f70657261746f7220717565727920666f72206e6f6e657860448201526b34b9ba32b73a103a37b5b2b760a11b6064820152608401610887565b6000611dbd83611247565b9050806001600160a01b0316846001600160a01b03161480611df85750836001600160a01b0316611ded84610812565b6001600160a01b0316145b80611e2857506001600160a01b0380821660009081526007602090815260408083209388168352929052205460ff165b949350505050565b826001600160a01b0316611e4382611247565b6001600160a01b031614611ebf5760405162461bcd60e51b815260206004820152602960248201527f4552433732313a207472616e73666572206f6620746f6b656e2074686174206960448201527f73206e6f74206f776e00000000000000000000000000000000000000000000006064820152608401610887565b6001600160a01b038216611f215760405162461bcd60e51b8152602060048201526024808201527f4552433732313a207472616e7366657220746f20746865207a65726f206164646044820152637265737360e01b6064820152608401610887565b611f2c8383836125d0565b611f37600082611ccb565b6001600160a01b0383166000908152600560205260408120805460019290611f6090849061394c565b90915550506001600160a01b0382166000908152600560205260408120805460019290611f8e9084906137c3565b909155505060008181526004602052604080822080546001600160a01b0319166001600160a01b0386811691821790925591518493918716917fddf252ad1be2c89b69c2b068fc378daa952ba7f163c4a11628f55a4df523b3ef91a4505050565b6000828152602081905260409020600101546120128161200d611cc1565b612704565b6109cf83836124bd565b612024611cc1565b6001600160a01b0316816001600160a01b0316146120aa5760405162461bcd60e51b815260206004820152602f60248201527f416363657373436f6e74726f6c3a2063616e206f6e6c792072656e6f756e636560448201527f20726f6c657320666f722073656c6600000000000000000000000000000000006064820152608401610887565b611c998282612782565b6000611533836001600160a01b03841661281f565b600c5460ff1661211b5760405162461bcd60e51b815260206004820152601460248201527f5061757361626c653a206e6f74207061757365640000000000000000000000006044820152606401610887565b600c805460ff191690557f5db9ee0a495bf2e6ff9c91a7834c1ba4fdd244a5e8aa4e537bd38aeae4b073aa61214e611cc1565b6040516001600160a01b03909116815260200160405180910390a1565b600061217682611247565b9050612184816000846125d0565b61218f600083611ccb565b6001600160a01b03811660009081526005602052604081208054600192906121b890849061394c565b909155505060008281526004602052604080822080546001600160a01b0319169055518391906001600160a01b038416907fddf252ad1be2c89b69c2b068fc378daa952ba7f163c4a11628f55a4df523b3ef908390a45050565b6001600160a01b0382166122685760405162461bcd60e51b815260206004820181905260248201527f4552433732313a206d696e7420746f20746865207a65726f20616464726573736044820152606401610887565b6000818152600460205260409020546001600160a01b0316156122cd5760405162461bcd60e51b815260206004820152601c60248201527f4552433732313a20746f6b656e20616c7265616479206d696e746564000000006044820152606401610887565b6122d9600083836125d0565b6001600160a01b03821660009081526005602052604081208054600192906123029084906137c3565b909155505060008181526004602052604080822080546001600160a01b0319166001600160a01b03861690811790915590518392907fddf252ad1be2c89b69c2b068fc378daa952ba7f163c4a11628f55a4df523b3ef908290a45050565b600c5460ff16156123a65760405162461bcd60e51b815260206004820152601060248201526f14185d5cd8589b194e881c185d5cd95960821b6044820152606401610887565b600c805460ff191660011790557f62e78cea01bee320cd4e420270b5ea74000d11b0c9f74754ebdbfc544b05a25861214e611cc1565b60006115338383612912565b60606115338383604051806060016040528060278152602001613a7d6027913961293c565b612418848484611e30565b61242484848484612a10565b61194b5760405162461bcd60e51b815260206004820152603260248201527f4552433732313a207472616e7366657220746f206e6f6e20455243373231526560448201527131b2b4bb32b91034b6b83632b6b2b73a32b960711b6064820152608401610887565b600061077a825490565b6000828152602081905260409020600101546124b38161200d611cc1565b6109cf8383612782565b6000828152602081815260408083206001600160a01b038516845290915290205460ff16611c99576000828152602081815260408083206001600160a01b03851684529091529020805460ff19166001179055612518611cc1565b6001600160a01b0316816001600160a01b0316837f2f8788117e7eff1d82e926ec794901d17c78024a50270940304540a733656f0d60405160405180910390a45050565b60008181526001830160205260408120546125a35750815460018181018455600084815260208082209093018490558454848252828601909352604090209190915561077a565b50600061077a565b60006001600160e01b0319821663780e9d6360e01b148061077a575061077a82612b6f565b6125db838383612baf565b600f54600160a01b900460ff1680156125fc57506001600160a01b03831615155b801561261057506001600160a01b03821615155b156109cf576001600160a01b03831660009081527f7c7a990f752005aea38438cc35abc5417bd322e6c964ec21d52573494225142c602052604090205460ff168061269257506001600160a01b03821660009081527f7c7a990f752005aea38438cc35abc5417bd322e6c964ec21d52573494225142c602052604090205460ff165b6109cf5760405162461bcd60e51b815260206004820152603660248201527f4e46543a205472616e736665727320617265207265737472696374656420746f60448201527f205452414e534645525f524f4c4520686f6c64657273000000000000000000006064820152608401610887565b6000828152602081815260408083206001600160a01b038516845290915290205460ff16611c9957612740816001600160a01b03166014612bba565b61274b836020612bba565b60405160200161275c929190613963565b60408051601f198184030181529082905262461bcd60e51b8252610887916004016131e6565b6000828152602081815260408083206001600160a01b038516845290915290205460ff1615611c99576000828152602081815260408083206001600160a01b03851684529091529020805460ff191690556127db611cc1565b6001600160a01b0316816001600160a01b0316837ff6391f5c32d9c69d2a47ea670b442974b53935d1edc7fd64eb21e047a839171b60405160405180910390a45050565b6000818152600183016020526040812054801561290857600061284360018361394c565b85549091506000906128579060019061394c565b90508181146128bc57600086600001828154811061287757612877613766565b906000526020600020015490508087600001848154811061289a5761289a613766565b6000918252602080832090910192909255918252600188019052604090208390555b85548690806128cd576128cd6139e4565b60019003818190600052602060002001600090559055856001016000868152602001908152602001600020600090556001935050505061077a565b600091505061077a565b600082600001828154811061292957612929613766565b9060005260206000200154905092915050565b6060833b61299b5760405162461bcd60e51b815260206004820152602660248201527f416464726573733a2064656c65676174652063616c6c20746f206e6f6e2d636f6044820152651b9d1c9858dd60d21b6064820152608401610887565b600080856001600160a01b0316856040516129b691906139fa565b600060405180830381855af49150503d80600081146129f1576040519150601f19603f3d011682016040523d82523d6000602084013e6129f6565b606091505b5091509150612a06828286612d63565b9695505050505050565b60006001600160a01b0384163b15612b6457836001600160a01b031663150b7a02612a39611cc1565b8786866040518563ffffffff1660e01b8152600401612a5b9493929190613a16565b602060405180830381600087803b158015612a7557600080fd5b505af1925050508015612aa5575060408051601f3d908101601f19168201909252612aa291810190613a48565b60015b612b4a573d808015612ad3576040519150601f19603f3d011682016040523d82523d6000602084013e612ad8565b606091505b508051612b425760405162461bcd60e51b815260206004820152603260248201527f4552433732313a207472616e7366657220746f206e6f6e20455243373231526560448201527131b2b4bb32b91034b6b83632b6b2b73a32b960711b6064820152608401610887565b805181602001fd5b6001600160e01b031916630a85bd0160e11b149050611e28565b506001949350505050565b60006001600160e01b031982166380ac58cd60e01b1480612ba057506001600160e01b03198216635b5e139f60e01b145b8061077a575061077a82612d9c565b6109cf838383612dc1565b60606000612bc9836002613725565b612bd49060026137c3565b67ffffffffffffffff811115612bec57612bec613519565b6040519080825280601f01601f191660200182016040528015612c16576020820181803683370190505b509050600360fc1b81600081518110612c3157612c31613766565b60200101906001600160f81b031916908160001a905350600f60fb1b81600181518110612c6057612c60613766565b60200101906001600160f81b031916908160001a9053506000612c84846002613725565b612c8f9060016137c3565b90505b6001811115612d14577f303132333435363738396162636465660000000000000000000000000000000085600f1660108110612cd057612cd0613766565b1a60f81b828281518110612ce657612ce6613766565b60200101906001600160f81b031916908160001a90535060049490941c93612d0d81613a65565b9050612c92565b5083156115335760405162461bcd60e51b815260206004820181905260248201527f537472696e67733a20686578206c656e67746820696e73756666696369656e746044820152606401610887565b60608315612d72575081611533565b825115612d825782518084602001fd5b8160405162461bcd60e51b815260040161088791906131e6565b60006001600160e01b03198216635a05180f60e01b148061077a575061077a82612e45565b612dcc838383612e7a565b600c5460ff16156109cf5760405162461bcd60e51b815260206004820152602b60248201527f4552433732315061757361626c653a20746f6b656e207472616e73666572207760448201527f68696c65207061757365640000000000000000000000000000000000000000006064820152608401610887565b60006001600160e01b03198216637965db0b60e01b148061077a57506301ffc9a760e01b6001600160e01b031983161461077a565b6001600160a01b038316612ed557612ed081600a80546000838152600b60205260408120829055600182018355919091527fc65a7bb8d6351c1cf70c95a316cc6a92839c986682d98bc35f958f4883f9d2a80155565b612ef8565b816001600160a01b0316836001600160a01b031614612ef857612ef88382612f32565b6001600160a01b038216612f0f576109cf81612fcf565b826001600160a01b0316826001600160a01b0316146109cf576109cf828261307e565b60006001612f3f8461131a565b612f49919061394c565b600083815260096020526040902054909150808214612f9c576001600160a01b03841660009081526008602090815260408083208584528252808320548484528184208190558352600990915290208190555b5060009182526009602090815260408084208490556001600160a01b039094168352600881528383209183525290812055565b600a54600090612fe19060019061394c565b6000838152600b6020526040812054600a805493945090928490811061300957613009613766565b9060005260206000200154905080600a838154811061302a5761302a613766565b6000918252602080832090910192909255828152600b9091526040808220849055858252812055600a805480613062576130626139e4565b6001900381819060005260206000200160009055905550505050565b60006130898361131a565b6001600160a01b039093166000908152600860209081526040808320868452825280832085905593825260099052919091209190915550565b8280546130ce90613685565b90600052602060002090601f0160209004810192826130f05760008555613136565b82601f106131095782800160ff19823516178555613136565b82800160010185558215613136579182015b8281111561313657823582559160200191906001019061311b565b50613142929150613146565b5090565b5b808211156131425760008155600101613147565b6001600160e01b031981168114610f6957600080fd5b60006020828403121561318357600080fd5b81356115338161315b565b60005b838110156131a9578181015183820152602001613191565b8381111561194b5750506000910152565b600081518084526131d281602086016020860161318e565b601f01601f19169290920160200192915050565b60208152600061153360208301846131ba565b60006020828403121561320b57600080fd5b5035919050565b6001600160a01b0381168114610f6957600080fd5b6000806040838503121561323a57600080fd5b823561324581613212565b946020939093013593505050565b60008060006060848603121561326857600080fd5b833561327381613212565b9250602084013561328381613212565b929592945050506040919091013590565b600080604083850312156132a757600080fd5b50508035926020909101359150565b600080604083850312156132c957600080fd5b8235915060208301356132db81613212565b809150509250929050565b60008083601f8401126132f857600080fd5b50813567ffffffffffffffff81111561331057600080fd5b6020830191508360208260051b850101111561332b57600080fd5b9250929050565b60008060006040848603121561334757600080fd5b833561335281613212565b9250602084013567ffffffffffffffff81111561336e57600080fd5b61337a868287016132e6565b9497909650939450505050565b60006020828403121561339957600080fd5b813561153381613212565b8015158114610f6957600080fd5b6000602082840312156133c457600080fd5b8135611533816133a4565b60008083601f8401126133e157600080fd5b50813567ffffffffffffffff8111156133f957600080fd5b60208301915083602082850101111561332b57600080fd5b6000806020838503121561342457600080fd5b823567ffffffffffffffff81111561343b57600080fd5b613447858286016133cf565b90969095509350505050565b6000806040838503121561346657600080fd5b823561347181613212565b915060208301356132db816133a4565b6000806020838503121561349457600080fd5b823567ffffffffffffffff8111156134ab57600080fd5b613447858286016132e6565b6000602080830181845280855180835260408601915060408160051b870101925083870160005b8281101561350c57603f198886030184526134fa8583516131ba565b945092850192908501906001016134de565b5092979650505050505050565b634e487b7160e01b600052604160045260246000fd5b6000806000806080858703121561354557600080fd5b843561355081613212565b9350602085013561356081613212565b925060408501359150606085013567ffffffffffffffff8082111561358457600080fd5b818701915087601f83011261359857600080fd5b8135818111156135aa576135aa613519565b604051601f8201601f19908116603f011681019083821181831017156135d2576135d2613519565b816040528281528a60208487010111156135eb57600080fd5b82602086016020830137600060208483010152809550505050505092959194509250565b6000806040838503121561362257600080fd5b823561362d81613212565b915060208301356132db81613212565b60008060006040848603121561365257600080fd5b833561365d81613212565b9250602084013567ffffffffffffffff81111561367957600080fd5b61337a868287016133cf565b600181811c9082168061369957607f821691505b602082108114156136ba57634e487b7160e01b600052602260045260246000fd5b50919050565b6000602082840312156136d257600080fd5b81516fffffffffffffffffffffffffffffffff8116811461153357600080fd5b60006020828403121561370457600080fd5b815161153381613212565b634e487b7160e01b600052601160045260246000fd5b600081600019048311821515161561373f5761373f61370f565b500290565b60008261376157634e487b7160e01b600052601260045260246000fd5b500490565b634e487b7160e01b600052603260045260246000fd5b6000808335601e1984360301811261379357600080fd5b83018035915067ffffffffffffffff8211156137ae57600080fd5b60200191503681900382131561332b57600080fd5b600082198211156137d6576137d661370f565b500190565b60006000198214156137ef576137ef61370f565b5060010190565b81835281816020850137506000828201602090810191909152601f909101601f19169091010190565b604080825284519082018190526000906020906060840190828801845b828110156138585781518452928401929084019060010161383c565b50505083810382850152848152818101600586901b820183018760005b888110156138e457848303601f190184528135368b9003601e1901811261389b57600080fd5b8a01803567ffffffffffffffff8111156138b457600080fd5b8036038c13156138c357600080fd5b6138d085828a85016137f6565b958801959450505090850190600101613875565b50909998505050505050505050565b60006020828403121561390557600080fd5b5051919050565b60006020828403121561391e57600080fd5b8151611533816133a4565b8381526040602082015260006139436040830184866137f6565b95945050505050565b60008282101561395e5761395e61370f565b500390565b7f416363657373436f6e74726f6c3a206163636f756e742000000000000000000081526000835161399b81601785016020880161318e565b7f206973206d697373696e6720726f6c652000000000000000000000000000000060179184019182015283516139d881602884016020880161318e565b01602801949350505050565b634e487b7160e01b600052603160045260246000fd5b60008251613a0c81846020870161318e565b9190910192915050565b60006001600160a01b03808716835280861660208401525083604083015260806060830152612a0660808301846131ba565b600060208284031215613a5a57600080fd5b81516115338161315b565b600081613a7457613a7461370f565b50600019019056fe416464726573733a206c6f772d6c6576656c2064656c65676174652063616c6c206661696c6564a164736f6c6343000809000a",
  "linkReferences": {},
  "deployedLinkReferences": {}
}