{
  "_format": "hh-sol-artifact-1",
  "contractName": "NFT",
  "sourceName": "contracts/NFT.sol",
  "abi": [
    {
      "inputs": [
        {
          "internalType": "address payable",
          "name": "_controlCenter",
          "type": "address"
        },
        {
          "internalType": "string",
          "name": "_name",
          "type": "string"
        },
        {
          "internalType": "string",
          "name": "_symbol",
          "type": "string"
        },
        {
          "internalType": "address",
          "name": "_trustedForwarder",
          "type": "address"
        },
        {
          "internalType": "string",
          "name": "_uri",
          "type": "string"
        }
      ],
      "stateMutability": "nonpayable",
      "type": "constructor"
    },
    {
      "anonymous": false,
      "inputs": [
        {
          "indexed": true,
          "internalType": "address",
          "name": "owner",
          "type": "address"
        },
        {
          "indexed": true,
          "internalType": "address",
          "name": "approved",
          "type": "address"
        },
        {
          "indexed": true,
          "internalType": "uint256",
          "name": "tokenId",
          "type": "uint256"
        }
      ],
      "name": "Approval",
      "type": "event"
    },
    {
      "anonymous": false,
      "inputs": [
        {
          "indexed": true,
          "internalType": "address",
          "name": "owner",
          "type": "address"
        },
        {
          "indexed": true,
          "internalType": "address",
          "name": "operator",
          "type": "address"
        },
        {
          "indexed": false,
          "internalType": "bool",
          "name": "approved",
          "type": "bool"
        }
      ],
      "name": "ApprovalForAll",
      "type": "event"
    },
    {
      "anonymous": false,
      "inputs": [
        {
          "indexed": true,
          "internalType": "address",
          "name": "creator",
          "type": "address"
        },
        {
          "indexed": true,
          "internalType": "address",
          "name": "to",
          "type": "address"
        },
        {
          "indexed": false,
          "internalType": "uint256",
          "name": "tokenId",
          "type": "uint256"
        },
        {
          "indexed": false,
          "internalType": "string",
          "name": "tokenURI",
          "type": "string"
        }
      ],
      "name": "Minted",
      "type": "event"
    },
    {
      "anonymous": false,
      "inputs": [
        {
          "indexed": true,
          "internalType": "address",
          "name": "creator",
          "type": "address"
        },
        {
          "indexed": true,
          "internalType": "address",
          "name": "to",
          "type": "address"
        },
        {
          "indexed": false,
          "internalType": "uint256[]",
          "name": "tokenIds",
          "type": "uint256[]"
        },
        {
          "indexed": false,
          "internalType": "string[]",
          "name": "tokenURI",
          "type": "string[]"
        }
      ],
      "name": "MintedBatch",
      "type": "event"
    },
    {
      "anonymous": false,
      "inputs": [
        {
          "indexed": false,
          "internalType": "address",
          "name": "account",
          "type": "address"
        }
      ],
      "name": "Paused",
      "type": "event"
    },
    {
      "anonymous": false,
      "inputs": [
        {
          "indexed": true,
          "internalType": "bytes32",
          "name": "role",
          "type": "bytes32"
        },
        {
          "indexed": true,
          "internalType": "bytes32",
          "name": "previousAdminRole",
          "type": "bytes32"
        },
        {
          "indexed": true,
          "internalType": "bytes32",
          "name": "newAdminRole",
          "type": "bytes32"
        }
      ],
      "name": "RoleAdminChanged",
      "type": "event"
    },
    {
      "anonymous": false,
      "inputs": [
        {
          "indexed": true,
          "internalType": "bytes32",
          "name": "role",
          "type": "bytes32"
        },
        {
          "indexed": true,
          "internalType": "address",
          "name": "account",
          "type": "address"
        },
        {
          "indexed": true,
          "internalType": "address",
          "name": "sender",
          "type": "address"
        }
      ],
      "name": "RoleGranted",
      "type": "event"
    },
    {
      "anonymous": false,
      "inputs": [
        {
          "indexed": true,
          "internalType": "bytes32",
          "name": "role",
          "type": "bytes32"
        },
        {
          "indexed": true,
          "internalType": "address",
          "name": "account",
          "type": "address"
        },
        {
          "indexed": true,
          "internalType": "address",
          "name": "sender",
          "type": "address"
        }
      ],
      "name": "RoleRevoked",
      "type": "event"
    },
    {
      "anonymous": false,
      "inputs": [
        {
          "indexed": false,
          "internalType": "uint256",
          "name": "royaltyBps",
          "type": "uint256"
        }
      ],
      "name": "RoyaltyUpdated",
      "type": "event"
    },
    {
      "anonymous": false,
      "inputs": [
        {
          "indexed": true,
          "internalType": "address",
          "name": "from",
          "type": "address"
        },
        {
          "indexed": true,
          "internalType": "address",
          "name": "to",
          "type": "address"
        },
        {
          "indexed": true,
          "internalType": "uint256",
          "name": "tokenId",
          "type": "uint256"
        }
      ],
      "name": "Transfer",
      "type": "event"
    },
    {
      "anonymous": false,
      "inputs": [
        {
          "indexed": false,
          "internalType": "address",
          "name": "account",
          "type": "address"
        }
      ],
      "name": "Unpaused",
      "type": "event"
    },
    {
      "inputs": [],
      "name": "DEFAULT_ADMIN_ROLE",
      "outputs": [
        {
          "internalType": "bytes32",
          "name": "",
          "type": "bytes32"
        }
      ],
      "stateMutability": "view",
      "type": "function"
    },
    {
      "inputs": [],
      "name": "MINTER_ROLE",
      "outputs": [
        {
          "internalType": "bytes32",
          "name": "",
          "type": "bytes32"
        }
      ],
      "stateMutability": "view",
      "type": "function"
    },
    {
      "inputs": [],
      "name": "PAUSER_ROLE",
      "outputs": [
        {
          "internalType": "bytes32",
          "name": "",
          "type": "bytes32"
        }
      ],
      "stateMutability": "view",
      "type": "function"
    },
    {
      "inputs": [],
      "name": "_contractURI",
      "outputs": [
        {
          "internalType": "string",
          "name": "",
          "type": "string"
        }
      ],
      "stateMutability": "view",
      "type": "function"
    },
    {
      "inputs": [
        {
          "internalType": "address",
          "name": "to",
          "type": "address"
        },
        {
          "internalType": "uint256",
          "name": "tokenId",
          "type": "uint256"
        }
      ],
      "name": "approve",
      "outputs": [],
      "stateMutability": "nonpayable",
      "type": "function"
    },
    {
      "inputs": [
        {
          "internalType": "address",
          "name": "owner",
          "type": "address"
        }
      ],
      "name": "balanceOf",
      "outputs": [
        {
          "internalType": "uint256",
          "name": "",
          "type": "uint256"
        }
      ],
      "stateMutability": "view",
      "type": "function"
    },
    {
      "inputs": [
        {
          "internalType": "uint256",
          "name": "tokenId",
          "type": "uint256"
        }
      ],
      "name": "burn",
      "outputs": [],
      "stateMutability": "nonpayable",
      "type": "function"
    },
    {
      "inputs": [],
      "name": "contractURI",
      "outputs": [
        {
          "internalType": "string",
          "name": "",
          "type": "string"
        }
      ],
      "stateMutability": "view",
      "type": "function"
    },
    {
      "inputs": [
        {
          "internalType": "uint256",
          "name": "tokenId",
          "type": "uint256"
        }
      ],
      "name": "getApproved",
      "outputs": [
        {
          "internalType": "address",
          "name": "",
          "type": "address"
        }
      ],
      "stateMutability": "view",
      "type": "function"
    },
    {
      "inputs": [
        {
          "internalType": "bytes32",
          "name": "role",
          "type": "bytes32"
        }
      ],
      "name": "getRoleAdmin",
      "outputs": [
        {
          "internalType": "bytes32",
          "name": "",
          "type": "bytes32"
        }
      ],
      "stateMutability": "view",
      "type": "function"
    },
    {
      "inputs": [
        {
          "internalType": "bytes32",
          "name": "role",
          "type": "bytes32"
        },
        {
          "internalType": "uint256",
          "name": "index",
          "type": "uint256"
        }
      ],
      "name": "getRoleMember",
      "outputs": [
        {
          "internalType": "address",
          "name": "",
          "type": "address"
        }
      ],
      "stateMutability": "view",
      "type": "function"
    },
    {
      "inputs": [
        {
          "internalType": "bytes32",
          "name": "role",
          "type": "bytes32"
        }
      ],
      "name": "getRoleMemberCount",
      "outputs": [
        {
          "internalType": "uint256",
          "name": "",
          "type": "uint256"
        }
      ],
      "stateMutability": "view",
      "type": "function"
    },
    {
      "inputs": [
        {
          "internalType": "bytes32",
          "name": "role",
          "type": "bytes32"
        },
        {
          "internalType": "address",
          "name": "account",
          "type": "address"
        }
      ],
      "name": "grantRole",
      "outputs": [],
      "stateMutability": "nonpayable",
      "type": "function"
    },
    {
      "inputs": [
        {
          "internalType": "bytes32",
          "name": "role",
          "type": "bytes32"
        },
        {
          "internalType": "address",
          "name": "account",
          "type": "address"
        }
      ],
      "name": "hasRole",
      "outputs": [
        {
          "internalType": "bool",
          "name": "",
          "type": "bool"
        }
      ],
      "stateMutability": "view",
      "type": "function"
    },
    {
      "inputs": [
        {
          "internalType": "address",
          "name": "owner",
          "type": "address"
        },
        {
          "internalType": "address",
          "name": "operator",
          "type": "address"
        }
      ],
      "name": "isApprovedForAll",
      "outputs": [
        {
          "internalType": "bool",
          "name": "",
          "type": "bool"
        }
      ],
      "stateMutability": "view",
      "type": "function"
    },
    {
      "inputs": [
        {
          "internalType": "address",
          "name": "forwarder",
          "type": "address"
        }
      ],
      "name": "isTrustedForwarder",
      "outputs": [
        {
          "internalType": "bool",
          "name": "",
          "type": "bool"
        }
      ],
      "stateMutability": "view",
      "type": "function"
    },
    {
      "inputs": [
        {
          "internalType": "address",
          "name": "",
          "type": "address"
        }
      ],
      "name": "mint",
      "outputs": [],
      "stateMutability": "pure",
      "type": "function"
    },
    {
      "inputs": [
        {
          "internalType": "address",
          "name": "_to",
          "type": "address"
        },
        {
          "internalType": "string",
          "name": "_uri",
          "type": "string"
        }
      ],
      "name": "mintNFT",
      "outputs": [],
      "stateMutability": "nonpayable",
      "type": "function"
    },
    {
      "inputs": [
        {
          "internalType": "address",
          "name": "_to",
          "type": "address"
        },
        {
          "internalType": "string[]",
          "name": "_uris",
          "type": "string[]"
        }
      ],
      "name": "mintNFTBatch",
      "outputs": [],
      "stateMutability": "nonpayable",
      "type": "function"
    },
    {
      "inputs": [],
      "name": "name",
      "outputs": [
        {
          "internalType": "string",
          "name": "",
          "type": "string"
        }
      ],
      "stateMutability": "view",
      "type": "function"
    },
    {
      "inputs": [],
      "name": "nextTokenId",
      "outputs": [
        {
          "internalType": "uint256",
          "name": "",
          "type": "uint256"
        }
      ],
      "stateMutability": "view",
      "type": "function"
    },
    {
      "inputs": [
        {
          "internalType": "uint256",
          "name": "",
          "type": "uint256"
        }
      ],
      "name": "nftCreator",
      "outputs": [
        {
          "internalType": "address",
          "name": "",
          "type": "address"
        }
      ],
      "stateMutability": "view",
      "type": "function"
    },
    {
      "inputs": [
        {
          "internalType": "uint256",
          "name": "",
          "type": "uint256"
        }
      ],
      "name": "nftURI",
      "outputs": [
        {
          "internalType": "string",
          "name": "",
          "type": "string"
        }
      ],
      "stateMutability": "view",
      "type": "function"
    },
    {
      "inputs": [
        {
          "internalType": "uint256",
          "name": "tokenId",
          "type": "uint256"
        }
      ],
      "name": "ownerOf",
      "outputs": [
        {
          "internalType": "address",
          "name": "",
          "type": "address"
        }
      ],
      "stateMutability": "view",
      "type": "function"
    },
    {
      "inputs": [],
      "name": "pause",
      "outputs": [],
      "stateMutability": "nonpayable",
      "type": "function"
    },
    {
      "inputs": [],
      "name": "paused",
      "outputs": [
        {
          "internalType": "bool",
          "name": "",
          "type": "bool"
        }
      ],
      "stateMutability": "view",
      "type": "function"
    },
    {
      "inputs": [
        {
          "internalType": "bytes32",
          "name": "role",
          "type": "bytes32"
        },
        {
          "internalType": "address",
          "name": "account",
          "type": "address"
        }
      ],
      "name": "renounceRole",
      "outputs": [],
      "stateMutability": "nonpayable",
      "type": "function"
    },
    {
      "inputs": [
        {
          "internalType": "bytes32",
          "name": "role",
          "type": "bytes32"
        },
        {
          "internalType": "address",
          "name": "account",
          "type": "address"
        }
      ],
      "name": "revokeRole",
      "outputs": [],
      "stateMutability": "nonpayable",
      "type": "function"
    },
    {
      "inputs": [],
      "name": "royaltyBps",
      "outputs": [
        {
          "internalType": "uint256",
          "name": "",
          "type": "uint256"
        }
      ],
      "stateMutability": "view",
      "type": "function"
    },
    {
      "inputs": [
        {
          "internalType": "uint256",
          "name": "tokenId",
          "type": "uint256"
        },
        {
          "internalType": "uint256",
          "name": "salePrice",
          "type": "uint256"
        }
      ],
      "name": "royaltyInfo",
      "outputs": [
        {
          "internalType": "address",
          "name": "receiver",
          "type": "address"
        },
        {
          "internalType": "uint256",
          "name": "royaltyAmount",
          "type": "uint256"
        }
      ],
      "stateMutability": "view",
      "type": "function"
    },
    {
      "inputs": [
        {
          "internalType": "address",
          "name": "from",
          "type": "address"
        },
        {
          "internalType": "address",
          "name": "to",
          "type": "address"
        },
        {
          "internalType": "uint256",
          "name": "tokenId",
          "type": "uint256"
        }
      ],
      "name": "safeTransferFrom",
      "outputs": [],
      "stateMutability": "nonpayable",
      "type": "function"
    },
    {
      "inputs": [
        {
          "internalType": "address",
          "name": "from",
          "type": "address"
        },
        {
          "internalType": "address",
          "name": "to",
          "type": "address"
        },
        {
          "internalType": "uint256",
          "name": "tokenId",
          "type": "uint256"
        },
        {
          "internalType": "bytes",
          "name": "_data",
          "type": "bytes"
        }
      ],
      "name": "safeTransferFrom",
      "outputs": [],
      "stateMutability": "nonpayable",
      "type": "function"
    },
    {
      "inputs": [
        {
          "internalType": "address",
          "name": "operator",
          "type": "address"
        },
        {
          "internalType": "bool",
          "name": "approved",
          "type": "bool"
        }
      ],
      "name": "setApprovalForAll",
      "outputs": [],
      "stateMutability": "nonpayable",
      "type": "function"
    },
    {
      "inputs": [
        {
          "internalType": "string",
          "name": "_URI",
          "type": "string"
        }
      ],
      "name": "setContractURI",
      "outputs": [],
      "stateMutability": "nonpayable",
      "type": "function"
    },
    {
      "inputs": [
        {
          "internalType": "uint256",
          "name": "_royaltyBps",
          "type": "uint256"
        }
      ],
      "name": "setRoyaltyBps",
      "outputs": [],
      "stateMutability": "nonpayable",
      "type": "function"
    },
    {
      "inputs": [
        {
          "internalType": "bytes4",
          "name": "interfaceId",
          "type": "bytes4"
        }
      ],
      "name": "supportsInterface",
      "outputs": [
        {
          "internalType": "bool",
          "name": "",
          "type": "bool"
        }
      ],
      "stateMutability": "view",
      "type": "function"
    },
    {
      "inputs": [],
      "name": "symbol",
      "outputs": [
        {
          "internalType": "string",
          "name": "",
          "type": "string"
        }
      ],
      "stateMutability": "view",
      "type": "function"
    },
    {
      "inputs": [
        {
          "internalType": "uint256",
          "name": "index",
          "type": "uint256"
        }
      ],
      "name": "tokenByIndex",
      "outputs": [
        {
          "internalType": "uint256",
          "name": "",
          "type": "uint256"
        }
      ],
      "stateMutability": "view",
      "type": "function"
    },
    {
      "inputs": [
        {
          "internalType": "address",
          "name": "owner",
          "type": "address"
        },
        {
          "internalType": "uint256",
          "name": "index",
          "type": "uint256"
        }
      ],
      "name": "tokenOfOwnerByIndex",
      "outputs": [
        {
          "internalType": "uint256",
          "name": "",
          "type": "uint256"
        }
      ],
      "stateMutability": "view",
      "type": "function"
    },
    {
      "inputs": [
        {
          "internalType": "uint256",
          "name": "tokenId",
          "type": "uint256"
        }
      ],
      "name": "tokenURI",
      "outputs": [
        {
          "internalType": "string",
          "name": "",
          "type": "string"
        }
      ],
      "stateMutability": "view",
      "type": "function"
    },
    {
      "inputs": [],
      "name": "totalSupply",
      "outputs": [
        {
          "internalType": "uint256",
          "name": "",
          "type": "uint256"
        }
      ],
      "stateMutability": "view",
      "type": "function"
    },
    {
      "inputs": [
        {
          "internalType": "address",
          "name": "from",
          "type": "address"
        },
        {
          "internalType": "address",
          "name": "to",
          "type": "address"
        },
        {
          "internalType": "uint256",
          "name": "tokenId",
          "type": "uint256"
        }
      ],
      "name": "transferFrom",
      "outputs": [],
      "stateMutability": "nonpayable",
      "type": "function"
    },
    {
      "inputs": [],
      "name": "unpause",
      "outputs": [],
      "stateMutability": "nonpayable",
      "type": "function"
    }
  ],
  "bytecode": "0x60806040523480156200001157600080fd5b5060405162003e7338038062003e738339810160408190526200003491620004a6565b81848483828281600290805190602001906200005292919062000355565b5080516200006890600390602084019062000355565b5050600c805460ff191690555080516200008a90600e90602084019062000355565b50620000a160006200009b62000153565b62000170565b620000d07f9f2df0fed2c77648de5860a4cc508cd0818c85b8b8a1ab4ceeef8d981c8956a66200009b62000153565b620000ff7f65d7a28e3265b37a6474929f336521b332c1681b933f6cb9f3376673440d862a6200009b62000153565b5050600f80546001600160a01b03199081166001600160a01b039485161790915560108054909116928816929092179091555080516200014790601290602084019062000355565b505050505050620005cb565b60006200016a620001b360201b620015f21760201c565b90505b90565b620001878282620001f360201b620016201760201c565b6000828152600160209081526040909120620001ae9183906200162e62000203821b17901c565b505050565b6000620001c03362000223565b15620001d6575060131936013560601c6200016d565b620001eb6200023760201b620016431760201c565b90506200016d565b620001ff82826200023b565b5050565b60006200021a836001600160a01b038416620002c5565b90505b92915050565b600f546001600160a01b0390811691161490565b3390565b62000247828262000314565b620001ff576000828152602081815260408083206001600160a01b03851684529091529020805460ff191660011790556200028162000153565b6001600160a01b0316816001600160a01b0316837f2f8788117e7eff1d82e926ec794901d17c78024a50270940304540a733656f0d60405160405180910390a45050565b6000620002d383836200033d565b6200030b575081546001818101845560008481526020808220909301849055845484825282860190935260409020919091556200021d565b5060006200021d565b6000918252602082815260408084206001600160a01b0393909316845291905290205460ff1690565b60009081526001919091016020526040902054151590565b82805462000363906200055f565b90600052602060002090601f016020900481019282620003875760008555620003d2565b82601f10620003a257805160ff1916838001178555620003d2565b82800160010185558215620003d2579182015b82811115620003d2578251825591602001919060010190620003b5565b50620003e0929150620003e4565b5090565b5b80821115620003e05760008155600101620003e5565b600082601f8301126200040c578081fd5b81516001600160401b03808211156200042957620004296200059c565b6040516020601f8401601f19168201810183811183821017156200045157620004516200059c565b604052838252858401810187101562000468578485fd5b8492505b838310156200048b57858301810151828401820152918201916200046c565b838311156200049c57848185840101525b5095945050505050565b600080600080600060a08688031215620004be578081fd5b8551620004cb81620005b2565b60208701519095506001600160401b0380821115620004e8578283fd5b620004f689838a01620003fb565b955060408801519150808211156200050c578283fd5b6200051a89838a01620003fb565b9450606088015191506200052e82620005b2565b60808801519193508082111562000543578283fd5b506200055288828901620003fb565b9150509295509295909350565b6002810460018216806200057457607f821691505b602082108114156200059657634e487b7160e01b600052602260045260246000fd5b50919050565b634e487b7160e01b600052604160045260246000fd5b6001600160a01b0381168114620005c857600080fd5b50565b61389880620005db6000396000f3fe608060405234801561001057600080fd5b50600436106102e95760003560e01c80636a62784211610191578063c0e72740116100e3578063d547741f11610097578063e985e9c511610071578063e985e9c5146105a4578063eacabe14146105b7578063efe47687146105ca576102e9565b8063d547741f14610581578063e63ab1e914610594578063e8a3d4851461059c576102e9565b8063c87b56dd116100c8578063c87b56dd14610553578063ca15c87314610566578063d539139314610579576102e9565b8063c0e7274014610543578063c63adb2b1461054b576102e9565b806391d1485411610145578063a217fddf1161011f578063a217fddf14610515578063a22cb4651461051d578063b88d4fde14610530576102e9565b806391d14854146104e7578063938e3d7b146104fa57806395d89b411461050d576102e9565b806375794a3c1161017657806375794a3c146104c45780638456cb59146104cc5780639010d07c146104d4576102e9565b80636a6278421461049e57806370a08231146104b1576102e9565b80632f2ff15d1161024a57806342966c68116101fe578063572b6c05116101d8578063572b6c05146104705780635c975abb146104835780636352211e1461048b576102e9565b806342966c681461043757806349a33a2f1461044a5780634f6ccce71461045d576102e9565b806336568abe1161022f57806336568abe146104095780633f4ba83a1461041c57806342842e0e14610424576102e9565b80632f2ff15d146103e35780632f745c59146103f6576102e9565b806318160ddd116102a157806323b872dd1161028657806323b872dd1461039c578063248a9ca3146103af5780632a55205a146103c2576102e9565b806318160ddd146103745780631f72d83114610389576102e9565b8063081812fc116102d2578063081812fc1461032c578063095ea7b31461034c5780630ef3744814610361576102e9565b806301ffc9a7146102ee57806306fdde0314610317575b600080fd5b6103016102fc366004612a8c565b6105dd565b60405161030e9190612d71565b60405180910390f35b61031f61060b565b60405161030e9190612d9c565b61033f61033a366004612a19565b61069e565b60405161030e9190612c3a565b61035f61035a3660046129d4565b6106ea565b005b61033f61036f366004612a19565b610782565b61037c61079d565b60405161030e9190612d7c565b61035f610397366004612a19565b6107a3565b61035f6103aa3660046127c6565b6109af565b61037c6103bd366004612a19565b6109e7565b6103d56103d0366004612a6b565b6109fc565b60405161030e929190612c8a565b61035f6103f1366004612a49565b610abd565b61037c6104043660046129d4565b610adf565b61035f610417366004612a49565b610b34565b61035f610b56565b61035f6104323660046127c6565b610ba8565b61035f610445366004612a19565b610bc3565b61035f6104583660046128cd565b610bf6565b61037c61046b366004612a19565b610e79565b61030161047e366004612783565b610ed4565b610301610ee8565b61033f610499366004612a19565b610ef1565b61035f6104ac366004612783565b610f26565b61037c6104bf366004612783565b610f3e565b61037c610f82565b61035f610f88565b61033f6104e2366004612a6b565b610fd8565b6103016104f5366004612a49565b610ff7565b61035f610508366004612ac4565b611020565b61031f611142565b61037c611151565b61035f61052b36600461294d565b611156565b61035f61053e366004612801565b611224565b61031f611263565b61037c6112f1565b61031f610561366004612a19565b6112f7565b61037c610574366004612a19565b611379565b61037c611390565b61035f61058f366004612a49565b6113b4565b61037c6113be565b61031f6113e2565b6103016105b236600461279d565b6113f1565b61035f6105c5366004612983565b61141f565b61031f6105d8366004612a19565b6115d9565b60006105e882611647565b8061060357506001600160e01b0319821663152a902d60e11b145b90505b919050565b60606002805461061a906137bb565b80601f0160208091040260200160405190810160405280929190818152602001828054610646906137bb565b80156106935780601f1061066857610100808354040283529160200191610693565b820191906000526020600020905b81548152906001019060200180831161067657829003601f168201915b505050505090505b90565b60006106a982611652565b6106ce5760405162461bcd60e51b81526004016106c590613338565b60405180910390fd5b506000908152600660205260409020546001600160a01b031690565b60006106f582610ef1565b9050806001600160a01b0316836001600160a01b031614156107295760405162461bcd60e51b81526004016106c59061343e565b806001600160a01b031661073b61166f565b6001600160a01b031614806107575750610757816105b261166f565b6107735760405162461bcd60e51b81526004016106c590613121565b61077d838361167e565b505050565b6014602052600090815260409020546001600160a01b031681565b600a5490565b60105460408051634a32c6bf60e11b815290516001600160a01b03909216916391d148549183916394658d7e91600480820192602092909190829003018186803b1580156107f057600080fd5b505afa158015610804573d6000803e3d6000fd5b505050506040513d601f19601f820116820180604052508101906108289190612a31565b61083061166f565b6040518363ffffffff1660e01b815260040161084d929190612d85565b60206040518083038186803b15801561086557600080fd5b505afa158015610879573d6000803e3d6000fd5b505050506040513d601f19601f8201168201806040525081019061089d91906129fd565b6108b95760405162461bcd60e51b81526004016106c5906130c4565b601060009054906101000a90046001600160a01b03166001600160a01b031663fd967f476040518163ffffffff1660e01b815260040160206040518083038186803b15801561090757600080fd5b505afa15801561091b573d6000803e3d6000fd5b505050506040513d601f19601f8201168201806040525081019061093f9190612b04565b6fffffffffffffffffffffffffffffffff16811061096f5760405162461bcd60e51b81526004016106c59061347f565b60158190556040517f244ea8d7627f5a08f4299862bd5a45752842c183aee5b0fb0d1e4887bfa605b3906109a4908390612d7c565b60405180910390a150565b6109c06109ba61166f565b826116ec565b6109dc5760405162461bcd60e51b81526004016106c5906134dc565b61077d838383611771565b60009081526020819052604090206001015490565b600082815260146020908152604080832054601054825163fd967f4760e01b815292516001600160a01b039283169594919092169263fd967f479260048083019392829003018186803b158015610a5257600080fd5b505afa158015610a66573d6000803e3d6000fd5b505050506040513d601f19601f82011682018060405250810190610a8a9190612b04565b6fffffffffffffffffffffffffffffffff1660155484610aaa9190613742565b610ab4919061372e565b90509250929050565b610ac7828261189e565b600082815260016020526040902061077d908261162e565b6000610aea83610f3e565b8210610b085760405162461bcd60e51b81526004016106c590612e78565b506001600160a01b03821660009081526008602090815260408083208484529091529020545b92915050565b610b3e82826118c2565b600082815260016020526040902061077d9082611904565b610b827f65d7a28e3265b37a6474929f336521b332c1681b933f6cb9f3376673440d862a6104f561166f565b610b9e5760405162461bcd60e51b81526004016106c5906135f3565b610ba6611919565b565b61077d83838360405180602001604052806000815250611224565b610bce6109ba61166f565b610bea5760405162461bcd60e51b81526004016106c590613596565b610bf381611987565b50565b601060009054906101000a90046001600160a01b03166001600160a01b0316639d2f83f06040518163ffffffff1660e01b815260040160206040518083038186803b158015610c4457600080fd5b505afa158015610c58573d6000803e3d6000fd5b505050506040513d601f19601f82011682018060405250810190610c7c91906129fd565b15610c995760405162461bcd60e51b81526004016106c59061317e565b610cc57f9f2df0fed2c77648de5860a4cc508cd0818c85b8b8a1ab4ceeef8d981c8956a66104f561166f565b610ce15760405162461bcd60e51b81526004016106c59061326f565b60008167ffffffffffffffff811115610d0a57634e487b7160e01b600052604160045260246000fd5b604051908082528060200260200182016040528015610d33578160200160208202803683370190505b506011549091506000610d4461166f565b905060005b84811015610e1a5782848281518110610d7257634e487b7160e01b600052603260045260246000fd5b602002602001018181525050858582818110610d9e57634e487b7160e01b600052603260045260246000fd5b9050602002810190610db091906136d1565b6000858152601360205260409020610dc992909161268c565b50600083815260146020526040902080546001600160a01b0319166001600160a01b038416179055610dfb8784611a2e565b610e06600184613716565b925080610e12816137f6565b915050610d49565b5081601181905550856001600160a01b0316816001600160a01b03167f2a7af4d3b262c3e3d51c600cdf7a940c9aba3fedcc85148aeda266cc4c4a2f33858888604051610e6993929190612ca3565b60405180910390a3505050505050565b6000610e8361079d565b8210610ea15760405162461bcd60e51b81526004016106c590613539565b600a8281548110610ec257634e487b7160e01b600052603260045260246000fd5b90600052602060002001549050919050565b600f546001600160a01b0390811691161490565b600c5460ff1690565b6000818152600460205260408120546001600160a01b0316806106035760405162461bcd60e51b81526004016106c590613212565b60405162461bcd60e51b81526004016106c5906132cc565b60006001600160a01b038216610f665760405162461bcd60e51b81526004016106c5906131b5565b506001600160a01b031660009081526005602052604090205490565b60115481565b610fb47f65d7a28e3265b37a6474929f336521b332c1681b933f6cb9f3376673440d862a6104f561166f565b610fd05760405162461bcd60e51b81526004016106c590612f69565b610ba6611b0d565b6000828152600160205260408120610ff09083611b68565b9392505050565b6000918252602082815260408084206001600160a01b0393909316845291905290205460ff1690565b60105460408051634a32c6bf60e11b815290516001600160a01b03909216916391d148549183916394658d7e91600480820192602092909190829003018186803b15801561106d57600080fd5b505afa158015611081573d6000803e3d6000fd5b505050506040513d601f19601f820116820180604052508101906110a59190612a31565b6110ad61166f565b6040518363ffffffff1660e01b81526004016110ca929190612d85565b60206040518083038186803b1580156110e257600080fd5b505afa1580156110f6573d6000803e3d6000fd5b505050506040513d601f19601f8201168201806040525081019061111a91906129fd565b6111365760405162461bcd60e51b81526004016106c5906130c4565b61077d6012838361268c565b60606003805461061a906137bb565b600081565b61115e61166f565b6001600160a01b0316826001600160a01b0316141561118f5760405162461bcd60e51b81526004016106c59061300a565b806007600061119c61166f565b6001600160a01b03908116825260208083019390935260409182016000908120918716808252919093529120805460ff1916921515929092179091556111e061166f565b6001600160a01b03167f17307eab39ab6107e8899845ad3d59bd9653f200f220920489ca2b5937696c31836040516112189190612d71565b60405180910390a35050565b61123561122f61166f565b836116ec565b6112515760405162461bcd60e51b81526004016106c5906134dc565b61125d84848484611b74565b50505050565b60128054611270906137bb565b80601f016020809104026020016040519081016040528092919081815260200182805461129c906137bb565b80156112e95780601f106112be576101008083540402835291602001916112e9565b820191906000526020600020905b8154815290600101906020018083116112cc57829003601f168201915b505050505081565b60155481565b606061130282611652565b61131e5760405162461bcd60e51b81526004016106c5906133e1565b6000611328611ba7565b905060008151116113485760405180602001604052806000815250610ff0565b8061135284611bb6565b604051602001611363929190612b8a565b6040516020818303038152906040529392505050565b600081815260016020526040812061060390611cd1565b7f9f2df0fed2c77648de5860a4cc508cd0818c85b8b8a1ab4ceeef8d981c8956a681565b610b3e8282611cdc565b7f65d7a28e3265b37a6474929f336521b332c1681b933f6cb9f3376673440d862a81565b60606012805461061a906137bb565b6001600160a01b03918216600090815260076020908152604080832093909416825291909152205460ff1690565b601060009054906101000a90046001600160a01b03166001600160a01b0316639d2f83f06040518163ffffffff1660e01b815260040160206040518083038186803b15801561146d57600080fd5b505afa158015611481573d6000803e3d6000fd5b505050506040513d601f19601f820116820180604052508101906114a591906129fd565b156114c25760405162461bcd60e51b81526004016106c59061317e565b6114ee7f9f2df0fed2c77648de5860a4cc508cd0818c85b8b8a1ab4ceeef8d981c8956a66104f561166f565b61150a5760405162461bcd60e51b81526004016106c59061326f565b601154600081815260136020526040902061152690848461268c565b5061152f61166f565b600082815260146020526040902080546001600160a01b0319166001600160a01b03929092169190911790556115658482611a2e565b6001601160008282546115789190613716565b90915550506001600160a01b03841661158f61166f565b6001600160a01b03167fafe8c5a4c36942a61550534b714a0076ab46ef8ef23e361572aad8b7ca2ac27d8386866040516115cb939291906136ae565b60405180910390a350505050565b60136020526000908152604090208054611270906137bb565b60006115fd33610ed4565b15611611575060131936013560601c61069b565b611619611643565b905061069b565b61162a8282611cfb565b5050565b6000610ff0836001600160a01b038416611d80565b3390565b600061060382611dca565b6000908152600460205260409020546001600160a01b0316151590565b60006116796115f2565b905090565b600081815260066020526040902080546001600160a01b0319166001600160a01b03841690811790915581906116b382610ef1565b6001600160a01b03167f8c5be1e5ebec7d5bd14f71427d1e84f3dd0314c0f7b2291e5b200ac8c7c3b92560405160405180910390a45050565b60006116f782611652565b6117135760405162461bcd60e51b81526004016106c590613041565b600061171e83610ef1565b9050806001600160a01b0316846001600160a01b031614806117595750836001600160a01b031661174e8461069e565b6001600160a01b0316145b80611769575061176981856113f1565b949350505050565b826001600160a01b031661178482610ef1565b6001600160a01b0316146117aa5760405162461bcd60e51b81526004016106c590613384565b6001600160a01b0382166117d05760405162461bcd60e51b81526004016106c590612fc6565b6117db838383611def565b6117e660008261167e565b6001600160a01b038316600090815260056020526040812080546001929061180f908490613761565b90915550506001600160a01b038216600090815260056020526040812080546001929061183d908490613716565b909155505060008181526004602052604080822080546001600160a01b0319166001600160a01b0386811691821790925591518493918716917fddf252ad1be2c89b69c2b068fc378daa952ba7f163c4a11628f55a4df523b3ef91a4505050565b6118a7826109e7565b6118b8816118b361166f565b611dfa565b61077d8383611cfb565b6118ca61166f565b6001600160a01b0316816001600160a01b0316146118fa5760405162461bcd60e51b81526004016106c590613651565b61162a8282611e5e565b6000610ff0836001600160a01b038416611ee1565b611921610ee8565b61193d5760405162461bcd60e51b81526004016106c590612e41565b600c805460ff191690557f5db9ee0a495bf2e6ff9c91a7834c1ba4fdd244a5e8aa4e537bd38aeae4b073aa61197061166f565b60405161197d9190612c3a565b60405180910390a1565b600061199282610ef1565b90506119a081600084611def565b6119ab60008361167e565b6001600160a01b03811660009081526005602052604081208054600192906119d4908490613761565b909155505060008281526004602052604080822080546001600160a01b0319169055518391906001600160a01b038416907fddf252ad1be2c89b69c2b068fc378daa952ba7f163c4a11628f55a4df523b3ef908390a45050565b6001600160a01b038216611a545760405162461bcd60e51b81526004016106c590613303565b611a5d81611652565b15611a7a5760405162461bcd60e51b81526004016106c590612f32565b611a8660008383611def565b6001600160a01b0382166000908152600560205260408120805460019290611aaf908490613716565b909155505060008181526004602052604080822080546001600160a01b0319166001600160a01b03861690811790915590518392907fddf252ad1be2c89b69c2b068fc378daa952ba7f163c4a11628f55a4df523b3ef908290a45050565b611b15610ee8565b15611b325760405162461bcd60e51b81526004016106c59061308d565b600c805460ff191660011790557f62e78cea01bee320cd4e420270b5ea74000d11b0c9f74754ebdbfc544b05a25861197061166f565b6000610ff08383611ffe565b611b7f848484611771565b611b8b84848484612036565b61125d5760405162461bcd60e51b81526004016106c590612ed5565b6060600e805461061a906137bb565b606081611bdb57506040805180820190915260018152600360fc1b6020820152610606565b8160005b8115611c055780611bef816137f6565b9150611bfe9050600a8361372e565b9150611bdf565b60008167ffffffffffffffff811115611c2e57634e487b7160e01b600052604160045260246000fd5b6040519080825280601f01601f191660200182016040528015611c58576020820181803683370190505b5090505b841561176957611c6d600183613761565b9150611c7a600a86613811565b611c85906030613716565b60f81b818381518110611ca857634e487b7160e01b600052603260045260246000fd5b60200101906001600160f81b031916908160001a905350611cca600a8661372e565b9450611c5c565b600061060382612151565b611ce5826109e7565b611cf1816118b361166f565b61077d8383611e5e565b611d058282610ff7565b61162a576000828152602081815260408083206001600160a01b03851684529091529020805460ff19166001179055611d3c61166f565b6001600160a01b0316816001600160a01b0316837f2f8788117e7eff1d82e926ec794901d17c78024a50270940304540a733656f0d60405160405180910390a45050565b6000611d8c8383612155565b611dc257508154600181810184556000848152602080822090930184905584548482528286019093526040902091909155610b2e565b506000610b2e565b60006001600160e01b0319821663780e9d6360e01b148061060357506106038261216d565b61077d8383836121ad565b611e048282610ff7565b61162a57611e1c816001600160a01b031660146121dd565b611e278360206121dd565b604051602001611e38929190612bb9565b60408051601f198184030181529082905262461bcd60e51b82526106c591600401612d9c565b611e688282610ff7565b1561162a576000828152602081815260408083206001600160a01b03851684529091529020805460ff19169055611e9d61166f565b6001600160a01b0316816001600160a01b0316837ff6391f5c32d9c69d2a47ea670b442974b53935d1edc7fd64eb21e047a839171b60405160405180910390a45050565b60008181526001830160205260408120548015611ff4576000611f05600183613761565b8554909150600090611f1990600190613761565b9050818114611f9a576000866000018281548110611f4757634e487b7160e01b600052603260045260246000fd5b9060005260206000200154905080876000018481548110611f7857634e487b7160e01b600052603260045260246000fd5b6000918252602080832090910192909255918252600188019052604090208390555b8554869080611fb957634e487b7160e01b600052603160045260246000fd5b600190038181906000526020600020016000905590558560010160008681526020019081526020016000206000905560019350505050610b2e565b6000915050610b2e565b600082600001828154811061202357634e487b7160e01b600052603260045260246000fd5b9060005260206000200154905092915050565b600061204a846001600160a01b031661239c565b1561214657836001600160a01b031663150b7a0261206661166f565b8786866040518563ffffffff1660e01b81526004016120889493929190612c4e565b602060405180830381600087803b1580156120a257600080fd5b505af19250505080156120d2575060408051601f3d908101601f191682019092526120cf91810190612aa8565b60015b61212c573d808015612100576040519150601f19603f3d011682016040523d82523d6000602084013e612105565b606091505b5080516121245760405162461bcd60e51b81526004016106c590612ed5565b805181602001fd5b6001600160e01b031916630a85bd0160e11b149050611769565b506001949350505050565b5490565b60009081526001919091016020526040902054151590565b60006001600160e01b031982166380ac58cd60e01b148061219e57506001600160e01b03198216635b5e139f60e01b145b806106035750610603826123a2565b6121b88383836123c7565b6121c0610ee8565b1561077d5760405162461bcd60e51b81526004016106c590612de4565b606060006121ec836002613742565b6121f7906002613716565b67ffffffffffffffff81111561221d57634e487b7160e01b600052604160045260246000fd5b6040519080825280601f01601f191660200182016040528015612247576020820181803683370190505b509050600360fc1b8160008151811061227057634e487b7160e01b600052603260045260246000fd5b60200101906001600160f81b031916908160001a905350600f60fb1b816001815181106122ad57634e487b7160e01b600052603260045260246000fd5b60200101906001600160f81b031916908160001a90535060006122d1846002613742565b6122dc906001613716565b90505b600181111561237d577f303132333435363738396162636465660000000000000000000000000000000085600f166010811061232b57634e487b7160e01b600052603260045260246000fd5b1a60f81b82828151811061234f57634e487b7160e01b600052603260045260246000fd5b60200101906001600160f81b031916908160001a90535060049490941c93612376816137a4565b90506122df565b508315610ff05760405162461bcd60e51b81526004016106c590612daf565b3b151590565b60006001600160e01b03198216635a05180f60e01b1480610603575061060382612450565b6123d283838361077d565b6001600160a01b0383166123ee576123e981612475565b612411565b816001600160a01b0316836001600160a01b0316146124115761241183826124b9565b6001600160a01b03821661242d5761242881612556565b61077d565b826001600160a01b0316826001600160a01b03161461077d5761077d828261262f565b60006001600160e01b03198216637965db0b60e01b1480610603575061060382612673565b600a80546000838152600b60205260408120829055600182018355919091527fc65a7bb8d6351c1cf70c95a316cc6a92839c986682d98bc35f958f4883f9d2a80155565b600060016124c684610f3e565b6124d09190613761565b600083815260096020526040902054909150808214612523576001600160a01b03841660009081526008602090815260408083208584528252808320548484528184208190558352600990915290208190555b5060009182526009602090815260408084208490556001600160a01b039094168352600881528383209183525290812055565b600a5460009061256890600190613761565b6000838152600b6020526040812054600a805493945090928490811061259e57634e487b7160e01b600052603260045260246000fd5b9060005260206000200154905080600a83815481106125cd57634e487b7160e01b600052603260045260246000fd5b6000918252602080832090910192909255828152600b9091526040808220849055858252812055600a80548061261357634e487b7160e01b600052603160045260246000fd5b6001900381819060005260206000200160009055905550505050565b600061263a83610f3e565b6001600160a01b039093166000908152600860209081526040808320868452825280832085905593825260099052919091209190915550565b6001600160e01b031981166301ffc9a760e01b14919050565b828054612698906137bb565b90600052602060002090601f0160209004810192826126ba5760008555612700565b82601f106126d35782800160ff19823516178555612700565b82800160010185558215612700579182015b828111156127005782358255916020019190600101906126e5565b5061270c929150612710565b5090565b5b8082111561270c5760008155600101612711565b80356001600160a01b038116811461060657600080fd5b60008083601f84011261274d578182fd5b50813567ffffffffffffffff811115612764578182fd5b60208301915083602082850101111561277c57600080fd5b9250929050565b600060208284031215612794578081fd5b610ff082612725565b600080604083850312156127af578081fd5b6127b883612725565b9150610ab460208401612725565b6000806000606084860312156127da578081fd5b6127e384612725565b92506127f160208501612725565b9150604084013590509250925092565b60008060008060808587031215612816578081fd5b61281f85612725565b9350602061282e818701612725565b935060408601359250606086013567ffffffffffffffff80821115612851578384fd5b818801915088601f830112612864578384fd5b81358181111561287657612876613851565b604051601f8201601f191681018501838111828210171561289957612899613851565b60405281815283820185018b10156128af578586fd5b81858501868301379081019093019390935250939692955090935050565b6000806000604084860312156128e1578283fd5b6128ea84612725565b9250602084013567ffffffffffffffff80821115612906578384fd5b818601915086601f830112612919578384fd5b813581811115612927578485fd5b876020808302850101111561293a578485fd5b6020830194508093505050509250925092565b6000806040838503121561295f578182fd5b61296883612725565b9150602083013561297881613867565b809150509250929050565b600080600060408486031215612997578283fd5b6129a084612725565b9250602084013567ffffffffffffffff8111156129bb578283fd5b6129c78682870161273c565b9497909650939450505050565b600080604083850312156129e6578182fd5b6129ef83612725565b946020939093013593505050565b600060208284031215612a0e578081fd5b8151610ff081613867565b600060208284031215612a2a578081fd5b5035919050565b600060208284031215612a42578081fd5b5051919050565b60008060408385031215612a5b578081fd5b82359150610ab460208401612725565b60008060408385031215612a7d578182fd5b50508035926020909101359150565b600060208284031215612a9d578081fd5b8135610ff081613875565b600060208284031215612ab9578081fd5b8151610ff081613875565b60008060208385031215612ad6578182fd5b823567ffffffffffffffff811115612aec578283fd5b612af88582860161273c565b90969095509350505050565b600060208284031215612b15578081fd5b81516fffffffffffffffffffffffffffffffff81168114610ff0578182fd5b60008151808452612b4c816020860160208601613778565b601f01601f19169290920160200192915050565b60008284528282602086013780602084860101526020601f19601f85011685010190509392505050565b60008351612b9c818460208801613778565b835190830190612bb0818360208801613778565b01949350505050565b60007f416363657373436f6e74726f6c3a206163636f756e742000000000000000000082528351612bf1816017850160208801613778565b7f206973206d697373696e6720726f6c65200000000000000000000000000000006017918401918201528351612c2e816028840160208801613778565b01602801949350505050565b6001600160a01b0391909116815260200190565b60006001600160a01b03808716835280861660208401525083604083015260806060830152612c806080830184612b34565b9695505050505050565b6001600160a01b03929092168252602082015260400190565b604080825284519082018190526000906020906060840190828801845b82811015612cdc57815184529284019290840190600101612cc0565b505050838103828501528481528181018583028201830187855b88811015612d6257848303601f190184528135368b9003601e19018112612d1b578788fd5b8a01803567ffffffffffffffff811115612d33578889fd5b8036038c1315612d41578889fd5b612d4e85828a8501612b60565b958801959450505090850190600101612cf6565b50909998505050505050505050565b901515815260200190565b90815260200190565b9182526001600160a01b0316602082015260400190565b600060208252610ff06020830184612b34565b6020808252818101527f537472696e67733a20686578206c656e67746820696e73756666696369656e74604082015260600190565b6020808252602b908201527f4552433732315061757361626c653a20746f6b656e207472616e73666572207760408201527f68696c6520706175736564000000000000000000000000000000000000000000606082015260800190565b60208082526014908201527f5061757361626c653a206e6f7420706175736564000000000000000000000000604082015260600190565b6020808252602b908201527f455243373231456e756d657261626c653a206f776e657220696e646578206f7560408201527f74206f6620626f756e6473000000000000000000000000000000000000000000606082015260800190565b60208082526032908201527f4552433732313a207472616e7366657220746f206e6f6e20455243373231526560408201527f63656976657220696d706c656d656e7465720000000000000000000000000000606082015260800190565b6020808252601c908201527f4552433732313a20746f6b656e20616c7265616479206d696e74656400000000604082015260600190565b6020808252603e908201527f4552433732315072657365744d696e7465725061757365724175746f49643a2060408201527f6d75737420686176652070617573657220726f6c6520746f2070617573650000606082015260800190565b60208082526024908201527f4552433732313a207472616e7366657220746f20746865207a65726f206164646040820152637265737360e01b606082015260800190565b60208082526019908201527f4552433732313a20617070726f766520746f2063616c6c657200000000000000604082015260600190565b6020808252602c908201527f4552433732313a206f70657261746f7220717565727920666f72206e6f6e657860408201526b34b9ba32b73a103a37b5b2b760a11b606082015260800190565b60208082526010908201527f5061757361626c653a2070617573656400000000000000000000000000000000604082015260600190565b60208082526035908201527f4e46543732313a206f6e6c7920612070726f746f636f6c2061646d696e20636160408201527f6e2063616c6c20746869732066756e6374696f6e2e0000000000000000000000606082015260800190565b60208082526038908201527f4552433732313a20617070726f76652063616c6c6572206973206e6f74206f7760408201527f6e6572206e6f7220617070726f76656420666f7220616c6c0000000000000000606082015260800190565b6020808252601f908201527f4e46543732313a205468652070726f746f636f6c206973207061757365642e00604082015260600190565b6020808252602a908201527f4552433732313a2062616c616e636520717565727920666f7220746865207a6560408201527f726f206164647265737300000000000000000000000000000000000000000000606082015260800190565b60208082526029908201527f4552433732313a206f776e657220717565727920666f72206e6f6e657869737460408201527f656e7420746f6b656e0000000000000000000000000000000000000000000000606082015260800190565b60208082526025908201527f4e46543732313a206d7573742068617665206d696e74657220726f6c6520746f60408201527f206d696e74000000000000000000000000000000000000000000000000000000606082015260800190565b6020808252601d908201527f4e46543732313a2043616c6c206d696e744e465420696e73746561642e000000604082015260600190565b6020808252818101527f4552433732313a206d696e7420746f20746865207a65726f2061646472657373604082015260600190565b6020808252602c908201527f4552433732313a20617070726f76656420717565727920666f72206e6f6e657860408201526b34b9ba32b73a103a37b5b2b760a11b606082015260800190565b60208082526029908201527f4552433732313a207472616e73666572206f6620746f6b656e2074686174206960408201527f73206e6f74206f776e0000000000000000000000000000000000000000000000606082015260800190565b6020808252602f908201527f4552433732314d657461646174613a2055524920717565727920666f72206e6f60408201527f6e6578697374656e7420746f6b656e0000000000000000000000000000000000606082015260800190565b60208082526021908201527f4552433732313a20617070726f76616c20746f2063757272656e74206f776e656040820152603960f91b606082015260800190565b6020808252602a908201527f4e46543a204270732070726f7669646564206d757374206265206c657373207460408201527f68616e2031302c30303000000000000000000000000000000000000000000000606082015260800190565b60208082526031908201527f4552433732313a207472616e736665722063616c6c6572206973206e6f74206f60408201527f776e6572206e6f7220617070726f766564000000000000000000000000000000606082015260800190565b6020808252602c908201527f455243373231456e756d657261626c653a20676c6f62616c20696e646578206f60408201527f7574206f6620626f756e64730000000000000000000000000000000000000000606082015260800190565b60208082526030908201527f4552433732314275726e61626c653a2063616c6c6572206973206e6f74206f7760408201527f6e6572206e6f7220617070726f76656400000000000000000000000000000000606082015260800190565b602080825260409082018190527f4552433732315072657365744d696e7465725061757365724175746f49643a20908201527f6d75737420686176652070617573657220726f6c6520746f20756e7061757365606082015260800190565b6020808252602f908201527f416363657373436f6e74726f6c3a2063616e206f6e6c792072656e6f756e636560408201527f20726f6c657320666f722073656c660000000000000000000000000000000000606082015260800190565b6000848252604060208301526136c8604083018486612b60565b95945050505050565b6000808335601e198436030181126136e7578283fd5b83018035915067ffffffffffffffff821115613701578283fd5b60200191503681900382131561277c57600080fd5b6000821982111561372957613729613825565b500190565b60008261373d5761373d61383b565b500490565b600081600019048311821515161561375c5761375c613825565b500290565b60008282101561377357613773613825565b500390565b60005b8381101561379357818101518382015260200161377b565b8381111561125d5750506000910152565b6000816137b3576137b3613825565b506000190190565b6002810460018216806137cf57607f821691505b602082108114156137f057634e487b7160e01b600052602260045260246000fd5b50919050565b600060001982141561380a5761380a613825565b5060010190565b6000826138205761382061383b565b500690565b634e487b7160e01b600052601160045260246000fd5b634e487b7160e01b600052601260045260246000fd5b634e487b7160e01b600052604160045260246000fd5b8015158114610bf357600080fd5b6001600160e01b031981168114610bf357600080fdfea164736f6c6343000800000a",
  "linkReferences": {},
  "deployedLinkReferences": {}
}