{
  "_format": "hh-sol-artifact-1",
  "contractName": "Nft",
  "sourceName": "contracts/NFT.sol",
  "abi": [
    {
      "inputs": [
        {
          "internalType": "address",
          "name": "_controlCenter",
          "type": "address"
        },
        {
          "internalType": "address",
          "name": "_trustedForwarder",
          "type": "address"
        },
        {
          "internalType": "string",
          "name": "_uri",
          "type": "string"
        }
      ],
      "stateMutability": "nonpayable",
      "type": "constructor"
    },
    {
      "anonymous": false,
      "inputs": [
        {
          "indexed": true,
          "internalType": "address",
          "name": "account",
          "type": "address"
        },
        {
          "indexed": true,
          "internalType": "address",
          "name": "operator",
          "type": "address"
        },
        {
          "indexed": false,
          "internalType": "bool",
          "name": "approved",
          "type": "bool"
        }
      ],
      "name": "ApprovalForAll",
      "type": "event"
    },
    {
      "anonymous": false,
      "inputs": [
        {
          "indexed": true,
          "internalType": "address",
          "name": "redeemer",
          "type": "address"
        },
        {
          "indexed": true,
          "internalType": "address",
          "name": "tokenContract",
          "type": "address"
        },
        {
          "indexed": false,
          "internalType": "uint256",
          "name": "tokenAmountReceived",
          "type": "uint256"
        },
        {
          "indexed": false,
          "internalType": "uint256",
          "name": "nftAmountRedeemed",
          "type": "uint256"
        }
      ],
      "name": "ERC20Redeemed",
      "type": "event"
    },
    {
      "anonymous": false,
      "inputs": [
        {
          "indexed": true,
          "internalType": "address",
          "name": "creator",
          "type": "address"
        },
        {
          "indexed": true,
          "internalType": "address",
          "name": "tokenContract",
          "type": "address"
        },
        {
          "indexed": false,
          "internalType": "uint256",
          "name": "tokenAmount",
          "type": "uint256"
        },
        {
          "indexed": false,
          "internalType": "uint256",
          "name": "nftsMinted",
          "type": "uint256"
        },
        {
          "indexed": false,
          "internalType": "string",
          "name": "nftURI",
          "type": "string"
        }
      ],
      "name": "ERC20WrappedNfts",
      "type": "event"
    },
    {
      "anonymous": false,
      "inputs": [
        {
          "indexed": true,
          "internalType": "address",
          "name": "redeemer",
          "type": "address"
        },
        {
          "indexed": true,
          "internalType": "address",
          "name": "nftContract",
          "type": "address"
        },
        {
          "indexed": false,
          "internalType": "uint256",
          "name": "nftTokenId",
          "type": "uint256"
        },
        {
          "indexed": false,
          "internalType": "uint256",
          "name": "nativeNftTokenId",
          "type": "uint256"
        }
      ],
      "name": "ERC721Redeemed",
      "type": "event"
    },
    {
      "anonymous": false,
      "inputs": [
        {
          "indexed": true,
          "internalType": "address",
          "name": "creator",
          "type": "address"
        },
        {
          "indexed": true,
          "internalType": "address",
          "name": "nftContract",
          "type": "address"
        },
        {
          "indexed": false,
          "internalType": "uint256",
          "name": "nftTokenId",
          "type": "uint256"
        },
        {
          "indexed": false,
          "internalType": "uint256",
          "name": "nativeNftTokenId",
          "type": "uint256"
        },
        {
          "indexed": false,
          "internalType": "string",
          "name": "nativeNftURI",
          "type": "string"
        }
      ],
      "name": "ERC721WrappedNft",
      "type": "event"
    },
    {
      "anonymous": false,
      "inputs": [
        {
          "indexed": true,
          "internalType": "address",
          "name": "creator",
          "type": "address"
        },
        {
          "indexed": false,
          "internalType": "uint256[]",
          "name": "nftIds",
          "type": "uint256[]"
        },
        {
          "indexed": false,
          "internalType": "string[]",
          "name": "nftURIs",
          "type": "string[]"
        },
        {
          "indexed": false,
          "internalType": "uint256[]",
          "name": "nftSupplies",
          "type": "uint256[]"
        }
      ],
      "name": "NativeNfts",
      "type": "event"
    },
    {
      "anonymous": false,
      "inputs": [
        {
          "indexed": false,
          "internalType": "uint256",
          "name": "royaltyBps",
          "type": "uint256"
        }
      ],
      "name": "NftRoyaltyUpdated",
      "type": "event"
    },
    {
      "anonymous": false,
      "inputs": [
        {
          "indexed": false,
          "internalType": "address",
          "name": "account",
          "type": "address"
        }
      ],
      "name": "Paused",
      "type": "event"
    },
    {
      "anonymous": false,
      "inputs": [
        {
          "indexed": true,
          "internalType": "bytes32",
          "name": "role",
          "type": "bytes32"
        },
        {
          "indexed": true,
          "internalType": "bytes32",
          "name": "previousAdminRole",
          "type": "bytes32"
        },
        {
          "indexed": true,
          "internalType": "bytes32",
          "name": "newAdminRole",
          "type": "bytes32"
        }
      ],
      "name": "RoleAdminChanged",
      "type": "event"
    },
    {
      "anonymous": false,
      "inputs": [
        {
          "indexed": true,
          "internalType": "bytes32",
          "name": "role",
          "type": "bytes32"
        },
        {
          "indexed": true,
          "internalType": "address",
          "name": "account",
          "type": "address"
        },
        {
          "indexed": true,
          "internalType": "address",
          "name": "sender",
          "type": "address"
        }
      ],
      "name": "RoleGranted",
      "type": "event"
    },
    {
      "anonymous": false,
      "inputs": [
        {
          "indexed": true,
          "internalType": "bytes32",
          "name": "role",
          "type": "bytes32"
        },
        {
          "indexed": true,
          "internalType": "address",
          "name": "account",
          "type": "address"
        },
        {
          "indexed": true,
          "internalType": "address",
          "name": "sender",
          "type": "address"
        }
      ],
      "name": "RoleRevoked",
      "type": "event"
    },
    {
      "anonymous": false,
      "inputs": [
        {
          "indexed": true,
          "internalType": "address",
          "name": "operator",
          "type": "address"
        },
        {
          "indexed": true,
          "internalType": "address",
          "name": "from",
          "type": "address"
        },
        {
          "indexed": true,
          "internalType": "address",
          "name": "to",
          "type": "address"
        },
        {
          "indexed": false,
          "internalType": "uint256[]",
          "name": "ids",
          "type": "uint256[]"
        },
        {
          "indexed": false,
          "internalType": "uint256[]",
          "name": "values",
          "type": "uint256[]"
        }
      ],
      "name": "TransferBatch",
      "type": "event"
    },
    {
      "anonymous": false,
      "inputs": [
        {
          "indexed": true,
          "internalType": "address",
          "name": "operator",
          "type": "address"
        },
        {
          "indexed": true,
          "internalType": "address",
          "name": "from",
          "type": "address"
        },
        {
          "indexed": true,
          "internalType": "address",
          "name": "to",
          "type": "address"
        },
        {
          "indexed": false,
          "internalType": "uint256",
          "name": "id",
          "type": "uint256"
        },
        {
          "indexed": false,
          "internalType": "uint256",
          "name": "value",
          "type": "uint256"
        }
      ],
      "name": "TransferSingle",
      "type": "event"
    },
    {
      "anonymous": false,
      "inputs": [
        {
          "indexed": false,
          "internalType": "string",
          "name": "value",
          "type": "string"
        },
        {
          "indexed": true,
          "internalType": "uint256",
          "name": "id",
          "type": "uint256"
        }
      ],
      "name": "URI",
      "type": "event"
    },
    {
      "anonymous": false,
      "inputs": [
        {
          "indexed": false,
          "internalType": "address",
          "name": "account",
          "type": "address"
        }
      ],
      "name": "Unpaused",
      "type": "event"
    },
    {
      "inputs": [],
      "name": "DEFAULT_ADMIN_ROLE",
      "outputs": [
        {
          "internalType": "bytes32",
          "name": "",
          "type": "bytes32"
        }
      ],
      "stateMutability": "view",
      "type": "function"
    },
    {
      "inputs": [],
      "name": "MINTER_ROLE",
      "outputs": [
        {
          "internalType": "bytes32",
          "name": "",
          "type": "bytes32"
        }
      ],
      "stateMutability": "view",
      "type": "function"
    },
    {
      "inputs": [],
      "name": "PAUSER_ROLE",
      "outputs": [
        {
          "internalType": "bytes32",
          "name": "",
          "type": "bytes32"
        }
      ],
      "stateMutability": "view",
      "type": "function"
    },
    {
      "inputs": [],
      "name": "_contractURI",
      "outputs": [
        {
          "internalType": "string",
          "name": "",
          "type": "string"
        }
      ],
      "stateMutability": "view",
      "type": "function"
    },
    {
      "inputs": [
        {
          "internalType": "address",
          "name": "account",
          "type": "address"
        },
        {
          "internalType": "uint256",
          "name": "id",
          "type": "uint256"
        }
      ],
      "name": "balanceOf",
      "outputs": [
        {
          "internalType": "uint256",
          "name": "",
          "type": "uint256"
        }
      ],
      "stateMutability": "view",
      "type": "function"
    },
    {
      "inputs": [
        {
          "internalType": "address[]",
          "name": "accounts",
          "type": "address[]"
        },
        {
          "internalType": "uint256[]",
          "name": "ids",
          "type": "uint256[]"
        }
      ],
      "name": "balanceOfBatch",
      "outputs": [
        {
          "internalType": "uint256[]",
          "name": "",
          "type": "uint256[]"
        }
      ],
      "stateMutability": "view",
      "type": "function"
    },
    {
      "inputs": [
        {
          "internalType": "address",
          "name": "account",
          "type": "address"
        },
        {
          "internalType": "uint256",
          "name": "id",
          "type": "uint256"
        },
        {
          "internalType": "uint256",
          "name": "value",
          "type": "uint256"
        }
      ],
      "name": "burn",
      "outputs": [],
      "stateMutability": "nonpayable",
      "type": "function"
    },
    {
      "inputs": [
        {
          "internalType": "address",
          "name": "account",
          "type": "address"
        },
        {
          "internalType": "uint256[]",
          "name": "ids",
          "type": "uint256[]"
        },
        {
          "internalType": "uint256[]",
          "name": "values",
          "type": "uint256[]"
        }
      ],
      "name": "burnBatch",
      "outputs": [],
      "stateMutability": "nonpayable",
      "type": "function"
    },
    {
      "inputs": [],
      "name": "contractURI",
      "outputs": [
        {
          "internalType": "string",
          "name": "",
          "type": "string"
        }
      ],
      "stateMutability": "view",
      "type": "function"
    },
    {
      "inputs": [
        {
          "internalType": "string[]",
          "name": "_nftURIs",
          "type": "string[]"
        },
        {
          "internalType": "uint256[]",
          "name": "_nftSupplies",
          "type": "uint256[]"
        }
      ],
      "name": "createNativeNfts",
      "outputs": [
        {
          "internalType": "uint256[]",
          "name": "nftIds",
          "type": "uint256[]"
        }
      ],
      "stateMutability": "nonpayable",
      "type": "function"
    },
    {
      "inputs": [
        {
          "internalType": "address",
          "name": "_pack",
          "type": "address"
        },
        {
          "internalType": "string[]",
          "name": "_nftURIs",
          "type": "string[]"
        },
        {
          "internalType": "uint256[]",
          "name": "_nftSupplies",
          "type": "uint256[]"
        },
        {
          "internalType": "string",
          "name": "_packURI",
          "type": "string"
        },
        {
          "internalType": "uint256",
          "name": "_secondsUntilOpenStart",
          "type": "uint256"
        },
        {
          "internalType": "uint256",
          "name": "_secondsUntilOpenEnd",
          "type": "uint256"
        },
        {
          "internalType": "uint256",
          "name": "_nftsPerOpen",
          "type": "uint256"
        }
      ],
      "name": "createPackAtomic",
      "outputs": [],
      "stateMutability": "nonpayable",
      "type": "function"
    },
    {
      "inputs": [
        {
          "internalType": "uint256",
          "name": "_nftId",
          "type": "uint256"
        }
      ],
      "name": "creator",
      "outputs": [
        {
          "internalType": "address",
          "name": "",
          "type": "address"
        }
      ],
      "stateMutability": "view",
      "type": "function"
    },
    {
      "inputs": [
        {
          "internalType": "uint256",
          "name": "",
          "type": "uint256"
        }
      ],
      "name": "erc20WrappedNfts",
      "outputs": [
        {
          "internalType": "address",
          "name": "tokenContract",
          "type": "address"
        },
        {
          "internalType": "uint256",
          "name": "shares",
          "type": "uint256"
        },
        {
          "internalType": "uint256",
          "name": "underlyingTokenAmount",
          "type": "uint256"
        }
      ],
      "stateMutability": "view",
      "type": "function"
    },
    {
      "inputs": [
        {
          "internalType": "uint256",
          "name": "",
          "type": "uint256"
        }
      ],
      "name": "erc721WrappedNfts",
      "outputs": [
        {
          "internalType": "address",
          "name": "nftContract",
          "type": "address"
        },
        {
          "internalType": "uint256",
          "name": "nftTokenId",
          "type": "uint256"
        }
      ],
      "stateMutability": "view",
      "type": "function"
    },
    {
      "inputs": [
        {
          "internalType": "bytes32",
          "name": "role",
          "type": "bytes32"
        }
      ],
      "name": "getRoleAdmin",
      "outputs": [
        {
          "internalType": "bytes32",
          "name": "",
          "type": "bytes32"
        }
      ],
      "stateMutability": "view",
      "type": "function"
    },
    {
      "inputs": [
        {
          "internalType": "bytes32",
          "name": "role",
          "type": "bytes32"
        },
        {
          "internalType": "uint256",
          "name": "index",
          "type": "uint256"
        }
      ],
      "name": "getRoleMember",
      "outputs": [
        {
          "internalType": "address",
          "name": "",
          "type": "address"
        }
      ],
      "stateMutability": "view",
      "type": "function"
    },
    {
      "inputs": [
        {
          "internalType": "bytes32",
          "name": "role",
          "type": "bytes32"
        }
      ],
      "name": "getRoleMemberCount",
      "outputs": [
        {
          "internalType": "uint256",
          "name": "",
          "type": "uint256"
        }
      ],
      "stateMutability": "view",
      "type": "function"
    },
    {
      "inputs": [
        {
          "internalType": "bytes32",
          "name": "role",
          "type": "bytes32"
        },
        {
          "internalType": "address",
          "name": "account",
          "type": "address"
        }
      ],
      "name": "grantRole",
      "outputs": [],
      "stateMutability": "nonpayable",
      "type": "function"
    },
    {
      "inputs": [
        {
          "internalType": "bytes32",
          "name": "role",
          "type": "bytes32"
        },
        {
          "internalType": "address",
          "name": "account",
          "type": "address"
        }
      ],
      "name": "hasRole",
      "outputs": [
        {
          "internalType": "bool",
          "name": "",
          "type": "bool"
        }
      ],
      "stateMutability": "view",
      "type": "function"
    },
    {
      "inputs": [
        {
          "internalType": "address",
          "name": "account",
          "type": "address"
        },
        {
          "internalType": "address",
          "name": "operator",
          "type": "address"
        }
      ],
      "name": "isApprovedForAll",
      "outputs": [
        {
          "internalType": "bool",
          "name": "",
          "type": "bool"
        }
      ],
      "stateMutability": "view",
      "type": "function"
    },
    {
      "inputs": [
        {
          "internalType": "address",
          "name": "forwarder",
          "type": "address"
        }
      ],
      "name": "isTrustedForwarder",
      "outputs": [
        {
          "internalType": "bool",
          "name": "",
          "type": "bool"
        }
      ],
      "stateMutability": "view",
      "type": "function"
    },
    {
      "inputs": [
        {
          "internalType": "address",
          "name": "to",
          "type": "address"
        },
        {
          "internalType": "uint256",
          "name": "id",
          "type": "uint256"
        },
        {
          "internalType": "uint256",
          "name": "amount",
          "type": "uint256"
        },
        {
          "internalType": "bytes",
          "name": "data",
          "type": "bytes"
        }
      ],
      "name": "mint",
      "outputs": [],
      "stateMutability": "nonpayable",
      "type": "function"
    },
    {
      "inputs": [
        {
          "internalType": "address",
          "name": "to",
          "type": "address"
        },
        {
          "internalType": "uint256[]",
          "name": "ids",
          "type": "uint256[]"
        },
        {
          "internalType": "uint256[]",
          "name": "amounts",
          "type": "uint256[]"
        },
        {
          "internalType": "bytes",
          "name": "data",
          "type": "bytes"
        }
      ],
      "name": "mintBatch",
      "outputs": [],
      "stateMutability": "nonpayable",
      "type": "function"
    },
    {
      "inputs": [],
      "name": "nextTokenId",
      "outputs": [
        {
          "internalType": "uint256",
          "name": "",
          "type": "uint256"
        }
      ],
      "stateMutability": "view",
      "type": "function"
    },
    {
      "inputs": [
        {
          "internalType": "uint256",
          "name": "",
          "type": "uint256"
        }
      ],
      "name": "nftInfo",
      "outputs": [
        {
          "internalType": "address",
          "name": "creator",
          "type": "address"
        },
        {
          "internalType": "string",
          "name": "uri",
          "type": "string"
        },
        {
          "internalType": "uint256",
          "name": "supply",
          "type": "uint256"
        },
        {
          "internalType": "enum Nft.UnderlyingType",
          "name": "underlyingType",
          "type": "uint8"
        }
      ],
      "stateMutability": "view",
      "type": "function"
    },
    {
      "inputs": [],
      "name": "nftRoyaltyBps",
      "outputs": [
        {
          "internalType": "uint256",
          "name": "",
          "type": "uint256"
        }
      ],
      "stateMutability": "view",
      "type": "function"
    },
    {
      "inputs": [],
      "name": "pause",
      "outputs": [],
      "stateMutability": "nonpayable",
      "type": "function"
    },
    {
      "inputs": [],
      "name": "paused",
      "outputs": [
        {
          "internalType": "bool",
          "name": "",
          "type": "bool"
        }
      ],
      "stateMutability": "view",
      "type": "function"
    },
    {
      "inputs": [
        {
          "internalType": "uint256",
          "name": "_nftId",
          "type": "uint256"
        },
        {
          "internalType": "uint256",
          "name": "_amount",
          "type": "uint256"
        }
      ],
      "name": "redeemERC20",
      "outputs": [],
      "stateMutability": "nonpayable",
      "type": "function"
    },
    {
      "inputs": [
        {
          "internalType": "uint256",
          "name": "_nftId",
          "type": "uint256"
        }
      ],
      "name": "redeemERC721",
      "outputs": [],
      "stateMutability": "nonpayable",
      "type": "function"
    },
    {
      "inputs": [
        {
          "internalType": "bytes32",
          "name": "role",
          "type": "bytes32"
        },
        {
          "internalType": "address",
          "name": "account",
          "type": "address"
        }
      ],
      "name": "renounceRole",
      "outputs": [],
      "stateMutability": "nonpayable",
      "type": "function"
    },
    {
      "inputs": [
        {
          "internalType": "bytes32",
          "name": "role",
          "type": "bytes32"
        },
        {
          "internalType": "address",
          "name": "account",
          "type": "address"
        }
      ],
      "name": "revokeRole",
      "outputs": [],
      "stateMutability": "nonpayable",
      "type": "function"
    },
    {
      "inputs": [
        {
          "internalType": "uint256",
          "name": "tokenId",
          "type": "uint256"
        },
        {
          "internalType": "uint256",
          "name": "salePrice",
          "type": "uint256"
        }
      ],
      "name": "royaltyInfo",
      "outputs": [
        {
          "internalType": "address",
          "name": "receiver",
          "type": "address"
        },
        {
          "internalType": "uint256",
          "name": "royaltyAmount",
          "type": "uint256"
        }
      ],
      "stateMutability": "view",
      "type": "function"
    },
    {
      "inputs": [
        {
          "internalType": "address",
          "name": "from",
          "type": "address"
        },
        {
          "internalType": "address",
          "name": "to",
          "type": "address"
        },
        {
          "internalType": "uint256[]",
          "name": "ids",
          "type": "uint256[]"
        },
        {
          "internalType": "uint256[]",
          "name": "amounts",
          "type": "uint256[]"
        },
        {
          "internalType": "bytes",
          "name": "data",
          "type": "bytes"
        }
      ],
      "name": "safeBatchTransferFrom",
      "outputs": [],
      "stateMutability": "nonpayable",
      "type": "function"
    },
    {
      "inputs": [
        {
          "internalType": "address",
          "name": "from",
          "type": "address"
        },
        {
          "internalType": "address",
          "name": "to",
          "type": "address"
        },
        {
          "internalType": "uint256",
          "name": "id",
          "type": "uint256"
        },
        {
          "internalType": "uint256",
          "name": "amount",
          "type": "uint256"
        },
        {
          "internalType": "bytes",
          "name": "data",
          "type": "bytes"
        }
      ],
      "name": "safeTransferFrom",
      "outputs": [],
      "stateMutability": "nonpayable",
      "type": "function"
    },
    {
      "inputs": [
        {
          "internalType": "address",
          "name": "operator",
          "type": "address"
        },
        {
          "internalType": "bool",
          "name": "approved",
          "type": "bool"
        }
      ],
      "name": "setApprovalForAll",
      "outputs": [],
      "stateMutability": "nonpayable",
      "type": "function"
    },
    {
      "inputs": [
        {
          "internalType": "string",
          "name": "_URI",
          "type": "string"
        }
      ],
      "name": "setContractURI",
      "outputs": [],
      "stateMutability": "nonpayable",
      "type": "function"
    },
    {
      "inputs": [
        {
          "internalType": "uint256",
          "name": "_royaltyBps",
          "type": "uint256"
        }
      ],
      "name": "setNftRoyaltyBps",
      "outputs": [],
      "stateMutability": "nonpayable",
      "type": "function"
    },
    {
      "inputs": [
        {
          "internalType": "bytes4",
          "name": "interfaceId",
          "type": "bytes4"
        }
      ],
      "name": "supportsInterface",
      "outputs": [
        {
          "internalType": "bool",
          "name": "",
          "type": "bool"
        }
      ],
      "stateMutability": "view",
      "type": "function"
    },
    {
      "inputs": [
        {
          "internalType": "uint256",
          "name": "_nftId",
          "type": "uint256"
        }
      ],
      "name": "tokenURI",
      "outputs": [
        {
          "internalType": "string",
          "name": "",
          "type": "string"
        }
      ],
      "stateMutability": "view",
      "type": "function"
    },
    {
      "inputs": [],
      "name": "unpause",
      "outputs": [],
      "stateMutability": "nonpayable",
      "type": "function"
    },
    {
      "inputs": [
        {
          "internalType": "uint256",
          "name": "_nftId",
          "type": "uint256"
        }
      ],
      "name": "uri",
      "outputs": [
        {
          "internalType": "string",
          "name": "",
          "type": "string"
        }
      ],
      "stateMutability": "view",
      "type": "function"
    },
    {
      "inputs": [
        {
          "internalType": "address",
          "name": "_tokenContract",
          "type": "address"
        },
        {
          "internalType": "uint256",
          "name": "_tokenAmount",
          "type": "uint256"
        },
        {
          "internalType": "uint256",
          "name": "_numOfNftsToMint",
          "type": "uint256"
        },
        {
          "internalType": "string",
          "name": "_nftURI",
          "type": "string"
        }
      ],
      "name": "wrapERC20",
      "outputs": [],
      "stateMutability": "nonpayable",
      "type": "function"
    },
    {
      "inputs": [
        {
          "internalType": "address",
          "name": "_nftContract",
          "type": "address"
        },
        {
          "internalType": "uint256",
          "name": "_tokenId",
          "type": "uint256"
        },
        {
          "internalType": "string",
          "name": "_nftURI",
          "type": "string"
        }
      ],
      "name": "wrapERC721",
      "outputs": [],
      "stateMutability": "nonpayable",
      "type": "function"
    }
  ],
  "bytecode": "0x60806040523480156200001157600080fd5b50604051620055a6380380620055a68339810160408190526200003491620003f6565b818180620000428162000119565b506005805460ff191690556200006360006200005d62000132565b6200014f565b620000927f9f2df0fed2c77648de5860a4cc508cd0818c85b8b8a1ab4ceeef8d981c8956a66200005d62000132565b620000c17f65d7a28e3265b37a6474929f336521b332c1681b933f6cb9f3376673440d862a6200005d62000132565b5060058054610100600160a81b0319166101006001600160a01b0393841602179055600680546001600160a01b03191691851691909117905580516200010f90600990602084019062000338565b5050505062000540565b80516200012e90600490602084019062000338565b5050565b6000620001496200019260201b620021d41760201c565b90505b90565b620001668282620001d260201b620022021760201c565b60008281526001602090815260409091206200018d91839062002210620001de821b17901c565b505050565b60006200019f33620001fe565b15620001b5575060131936013560601c6200014c565b620001ca6200021a60201b620022251760201c565b90506200014c565b6200012e82826200021e565b6000620001f5836001600160a01b038416620002a8565b90505b92915050565b6005546001600160a01b0382811661010090920416145b919050565b3390565b6200022a8282620002f7565b6200012e576000828152602081815260408083206001600160a01b03851684529091529020805460ff191660011790556200026462000132565b6001600160a01b0316816001600160a01b0316837f2f8788117e7eff1d82e926ec794901d17c78024a50270940304540a733656f0d60405160405180910390a45050565b6000620002b6838362000320565b620002ee57508154600181810184556000848152602080822090930184905584548482528286019093526040902091909155620001f8565b506000620001f8565b6000918252602082815260408084206001600160a01b0393909316845291905290205460ff1690565b60009081526001919091016020526040902054151590565b8280546200034690620004ed565b90600052602060002090601f0160209004810192826200036a5760008555620003b5565b82601f106200038557805160ff1916838001178555620003b5565b82800160010185558215620003b5579182015b82811115620003b557825182559160200191906001019062000398565b50620003c3929150620003c7565b5090565b5b80821115620003c35760008155600101620003c8565b80516001600160a01b03811681146200021557600080fd5b6000806000606084860312156200040b578283fd5b6200041684620003de565b9250602062000427818601620003de565b60408601519093506001600160401b038082111562000444578384fd5b818701915087601f83011262000458578384fd5b8151818111156200046d576200046d6200052a565b604051601f8201601f19168101850183811182821017156200049357620004936200052a565b60405281815283820185018a1015620004aa578586fd5b8592505b81831015620004cd5783830185015181840186015291840191620004ae565b81831115620004de57858583830101525b80955050505050509250925092565b6002810460018216806200050257607f821691505b602082108114156200052457634e487b7160e01b600052602260045260246000fd5b50919050565b634e487b7160e01b600052604160045260246000fd5b61505680620005506000396000f3fe608060405234801561001057600080fd5b50600436106102f35760003560e01c806375794a3c11610191578063c87b56dd116100e3578063ddfa3e2211610097578063e985e9c511610071578063e985e9c5146105fb578063f242432a1461060e578063f5298aca14610621576102f3565b8063ddfa3e22146105d8578063e63ab1e9146105eb578063e8a3d485146105f3576102f3565b8063d5391393116100c8578063d5391393146105aa578063d547741f146105b2578063db884b0c146105c5576102f3565b8063c87b56dd14610356578063ca15c87314610597576102f3565b806391d1485411610145578063a217fddf1161011f578063a217fddf14610574578063a22cb4651461057c578063c0e727401461058f576102f3565b806391d148541461053b578063938e3d7b1461054e57806393b778d414610561576102f3565b80637a61080b116101765780637a61080b1461050d5780638456cb59146105205780639010d07c14610528576102f3565b806375794a3c146104f2578063788f1f5e146104fa576102f3565b80632f9c131a1161024a5780634e1273f4116101fe5780635c975abb116101d85780635c975abb146104c45780636b20c454146104cc578063731133e9146104df576102f3565b80634e1273f41461047e578063510b515814610491578063572b6c05146104b1576102f3565b80633f4ba83a1161022f5780633f4ba83a1461044e57806341466a951461045657806345d62dbc14610476576102f3565b80632f9c131a1461042857806336568abe1461043b576102f3565b80631f7fdffa116102ac5780632a55205a116102865780632a55205a146103e15780632eb2c2d6146104025780632f2ff15d14610415576102f3565b80631f7fdffa146103985780631f8bc790146103ab578063248a9ca3146103ce576102f3565b8063090a3282116102dd578063090a3282146103415780630e89341c146103565780631ceb2dc214610376576102f3565b8062fdd58e146102f857806301ffc9a714610321575b600080fd5b61030b610306366004613a9c565b610634565b6040516103189190614255565b60405180910390f35b61033461032f366004613dc0565b610690565b604051610318919061424a565b61035461034f366004613ac7565b61069b565b005b610369610364366004613d4b565b610ab8565b60405161031891906142b7565b610389610384366004613d4b565b610b5d565b60405161031893929190614129565b6103546103a63660046139d8565b610b88565b6103be6103b9366004613d4b565b610be2565b60405161031894939291906140b9565b61030b6103dc366004613d4b565b610ca1565b6103f46103ef366004613d9f565b610cb6565b604051610318929190614110565b610354610410366004613791565b610d77565b610354610423366004613d7b565b610dd5565b610354610436366004613d4b565b610dfc565b610354610449366004613d7b565b611008565b61035461102a565b610469610464366004613cd2565b61107c565b604051610318919061414a565b61030b61136e565b61046961048c366004613c12565b611374565b6104a461049f366004613d4b565b611494565b6040516103189190613fc6565b6103346104bf366004613721565b6114af565b6103346114c8565b6103546104da366004613965565b6114d2565b6103546104ed366004613b55565b611527565b61030b61157b565b6103546105083660046138a2565b611581565b61035461051b366004613d9f565b611615565b6103546117a0565b6104a4610536366004613d9f565b6117f0565b610334610549366004613d7b565b61180f565b61035461055c366004613df8565b611838565b61035461056f366004613d4b565b61195a565b61030b611aa7565b61035461058a366004613a6f565b611aac565b610369611b7a565b61030b6105a5366004613d4b565b611c08565b61030b611c1f565b6103546105c0366004613d7b565b611c43565b6103546105d3366004613baa565b611c4d565b6103f46105e6366004613d4b565b61201f565b61030b612044565b610369612068565b610334610609366004613759565b6120fa565b61035461061c36600461383b565b612128565b61035461062f366004613b21565b61217f565b60006001600160a01b0383166106655760405162461bcd60e51b815260040161065c9061444d565b60405180910390fd5b5060008181526002602090815260408083206001600160a01b03861684529091529020545b92915050565b600061068a82612229565b6106a3612269565b6001600160a01b0316846001600160a01b0316636352211e856040518263ffffffff1660e01b81526004016106d89190614255565b60206040518083038186803b1580156106f057600080fd5b505afa158015610704573d6000803e3d6000fd5b505050506040513d601f19601f82011682018060405250810190610728919061373d565b6001600160a01b03161461074e5760405162461bcd60e51b815260040161065c90614caa565b60405163020604bf60e21b815230906001600160a01b0386169063081812fc9061077c908790600401614255565b60206040518083038186803b15801561079457600080fd5b505afa1580156107a8573d6000803e3d6000fd5b505050506040513d601f19601f820116820180604052508101906107cc919061373d565b6001600160a01b031614806108615750836001600160a01b031663e985e9c56107f3612269565b306040518363ffffffff1660e01b8152600401610811929190613fda565b60206040518083038186803b15801561082957600080fd5b505afa15801561083d573d6000803e3d6000fd5b505050506040513d601f19601f820116820180604052508101906108619190613d2f565b61087d5760405162461bcd60e51b815260040161065c906145dd565b836001600160a01b03166342842e0e610894612269565b30866040518463ffffffff1660e01b81526004016108b493929190614052565b600060405180830381600087803b1580156108ce57600080fd5b505af11580156108e2573d6000803e3d6000fd5b5050505061090b6108f1612269565b600754600160405180602001604052806000815250612278565b604051806080016040528061091e612269565b6001600160a01b0316815260200183838080601f016020809104026020016040519081016040528093929190818152602001838380828437600092018290525093855250506001602080850182905260026040958601526007548452600a815293909220845181546001600160a01b0319166001600160a01b0390911617815584840151805191946109b5948601935001906134b4565b506040820151816002015560608201518160030160006101000a81548160ff021916908360028111156109f857634e487b7160e01b600052602160045260246000fd5b0217905550506040805180820182526001600160a01b0387811680835260208084018981526007546000908152600b909252949020925183546001600160a01b031916921691909117825591516001909101559050610a55612269565b6001600160a01b03167fdae1779be741094a20f8287fd2c7a4d2d745eeae29c438867017066ae27a1bc4856007548686604051610a959493929190614d72565b60405180910390a360078054906000610aad83614f1b565b919050555050505050565b6000818152600a60205260409020600101805460609190610ad890614ee0565b80601f0160208091040260200160405190810160405280929190818152602001828054610b0490614ee0565b8015610b515780601f10610b2657610100808354040283529160200191610b51565b820191906000526020600020905b815481529060010190602001808311610b3457829003601f168201915b50505050509050919050565b600c602052600090815260409020805460018201546002909201546001600160a01b03909116919083565b610bb47f9f2df0fed2c77648de5860a4cc508cd0818c85b8b8a1ab4ceeef8d981c8956a6610549612269565b610bd05760405162461bcd60e51b815260040161065c90614828565b610bdc84848484612369565b50505050565b600a60205260009081526040902080546001820180546001600160a01b039092169291610c0e90614ee0565b80601f0160208091040260200160405190810160405280929190818152602001828054610c3a90614ee0565b8015610c875780601f10610c5c57610100808354040283529160200191610c87565b820191906000526020600020905b815481529060010190602001808311610c6a57829003601f168201915b50505050600283015460039093015491929160ff16905084565b60009081526020819052604090206001015490565b6000828152600a6020908152604080832054600654825163fd967f4760e01b815292516001600160a01b039283169594919092169263fd967f479260048083019392829003018186803b158015610d0c57600080fd5b505afa158015610d20573d6000803e3d6000fd5b505050506040513d601f19601f82011682018060405250810190610d449190613e38565b6fffffffffffffffffffffffffffffffff1660085484610d649190614e67565b610d6e9190614e47565b90509250929050565b610d7f612269565b6001600160a01b0316856001600160a01b03161480610da55750610da585610609612269565b610dc15760405162461bcd60e51b815260040161065c90614788565b610dce85858585856124eb565b5050505050565b610ddf82826126bf565b6000828152600160205260409020610df79082612210565b505050565b60065460408051634a32c6bf60e11b815290516001600160a01b03909216916391d148549183916394658d7e91600480820192602092909190829003018186803b158015610e4957600080fd5b505afa158015610e5d573d6000803e3d6000fd5b505050506040513d601f19601f82011682018060405250810190610e819190613d63565b610e89612269565b6040518363ffffffff1660e01b8152600401610ea692919061425e565b60206040518083038186803b158015610ebe57600080fd5b505afa158015610ed2573d6000803e3d6000fd5b505050506040513d601f19601f82011682018060405250810190610ef69190613d2f565b610f125760405162461bcd60e51b815260040161065c906143b9565b600660009054906101000a90046001600160a01b03166001600160a01b031663fd967f476040518163ffffffff1660e01b815260040160206040518083038186803b158015610f6057600080fd5b505afa158015610f74573d6000803e3d6000fd5b505050506040513d601f19601f82011682018060405250810190610f989190613e38565b6fffffffffffffffffffffffffffffffff168110610fc85760405162461bcd60e51b815260040161065c9061463a565b60088190556040517ffe0145b1017176fc94d0dfab7c8631a2f2c4b287fc395f4b3e8bfec35e150dac90610ffd908390614255565b60405180910390a150565b61101282826126e3565b6000828152600160205260409020610df79082612725565b6110567f65d7a28e3265b37a6474929f336521b332c1681b933f6cb9f3376673440d862a610549612269565b6110725760405162461bcd60e51b815260040161065c906149de565b61107a61273a565b565b606083821461109d5760405162461bcd60e51b815260040161065c90614a3b565b836110ba5760405162461bcd60e51b815260040161065c9061499c565b8367ffffffffffffffff8111156110e157634e487b7160e01b600052604160045260246000fd5b60405190808252806020026020018201604052801561110a578160200160208202803683370190505b50905060005b848110156112c25760075482828151811061113b57634e487b7160e01b600052603260045260246000fd5b602002602001018181525050604051806080016040528061115a612269565b6001600160a01b0316815260200187878481811061118857634e487b7160e01b600052603260045260246000fd5b905060200281019061119a9190614d9c565b8080601f0160208091040260200160405190810160405280939291908181526020018383808284376000920191909152505050908252506020018585848181106111f457634e487b7160e01b600052603260045260246000fd5b6020908102929092013583525001600090526007546000908152600a60209081526040909120825181546001600160a01b0319166001600160a01b039091161781558282015180519192611250926001850192909101906134b4565b506040820151816002015560608201518160030160006101000a81548160ff0219169083600281111561129357634e487b7160e01b600052602160045260246000fd5b02179055505060078054915060006112aa83614f1b565b919050555080806112ba90614f1b565b915050611110565b506113166112ce612269565b82858580806020026020016040519081016040528093929190818152602001838360200280828437600092018290525060408051602081019091529081529250612369915050565b61131e612269565b6001600160a01b03167f9ead818be0b43d79a78daaabe6c787d254ac1279ac99d9ff62b6b227804f7b33828787878760405161135e95949392919061415d565b60405180910390a2949350505050565b60085481565b606081518351146113975760405162461bcd60e51b815260040161065c90614b52565b6000835167ffffffffffffffff8111156113c157634e487b7160e01b600052604160045260246000fd5b6040519080825280602002602001820160405280156113ea578160200160208202803683370190505b50905060005b845181101561148c5761145185828151811061141c57634e487b7160e01b600052603260045260246000fd5b602002602001015185838151811061144457634e487b7160e01b600052603260045260246000fd5b6020026020010151610634565b82828151811061147157634e487b7160e01b600052603260045260246000fd5b602090810291909101015261148581614f1b565b90506113f0565b509392505050565b6000908152600a60205260409020546001600160a01b031690565b60055461010090046001600160a01b0390811691161490565b60055460ff165b90565b6114da612269565b6001600160a01b0316836001600160a01b03161480611500575061150083610609612269565b61151c5760405162461bcd60e51b815260040161065c90614580565b610df78383836127a8565b6115537f9f2df0fed2c77648de5860a4cc508cd0818c85b8b8a1ab4ceeef8d981c8956a6610549612269565b61156f5760405162461bcd60e51b815260040161065c90614828565b610bdc84848484612278565b60075481565b600061158f8a8a8a8a61107c565b905060008686308787876040516020016115ae96959493929190614275565b60405160208183030381529060405290506116076115ca612269565b8d848c8c80806020026020016040519081016040528093929190818152602001838360200280828437600092019190915250889250610d77915050565b505050505050505050505050565b80611627611621612269565b84610634565b10156116455760405162461bcd60e51b815260040161065c9061493f565b611657611650612269565b838361295c565b6000828152600c60205260408120600181015460029091015461167b908490614e67565b6116859190614e47565b6000848152600c60205260409020549091506001600160a01b031663a9059cbb6116ad612269565b836040518363ffffffff1660e01b81526004016116cb929190614110565b602060405180830381600087803b1580156116e557600080fd5b505af11580156116f9573d6000803e3d6000fd5b505050506040513d601f19601f8201168201806040525081019061171d9190613d2f565b6117395760405162461bcd60e51b815260040161065c90614697565b6000838152600c60205260409020546001600160a01b0316611759612269565b6001600160a01b03167fb7ca9e3aa58248cbaa6a5f83ca826cc57bf8ecd128fd88da420e294353c652f98385604051611793929190614d64565b60405180910390a3505050565b6117cc7f65d7a28e3265b37a6474929f336521b332c1681b933f6cb9f3376673440d862a610549612269565b6117e85760405162461bcd60e51b815260040161065c90614a98565b61107a612a6f565b60008281526001602052604081206118089083612aca565b9392505050565b6000918252602082815260408084206001600160a01b0393909316845291905290205460ff1690565b60065460408051634a32c6bf60e11b815290516001600160a01b03909216916391d148549183916394658d7e91600480820192602092909190829003018186803b15801561188557600080fd5b505afa158015611899573d6000803e3d6000fd5b505050506040513d601f19601f820116820180604052508101906118bd9190613d63565b6118c5612269565b6040518363ffffffff1660e01b81526004016118e292919061425e565b60206040518083038186803b1580156118fa57600080fd5b505afa15801561190e573d6000803e3d6000fd5b505050506040513d601f19601f820116820180604052508101906119329190613d2f565b61194e5760405162461bcd60e51b815260040161065c906143b9565b610df760098383613538565b600061196d611967612269565b83610634565b1161198a5760405162461bcd60e51b815260040161065c9061493f565b61199d611995612269565b82600161295c565b6000818152600b60205260409020546001600160a01b03166342842e0e306119c3612269565b6000858152600b6020526040908190206001015490516001600160e01b031960e086901b1681526119f993929190600401614052565b600060405180830381600087803b158015611a1357600080fd5b505af1158015611a27573d6000803e3d6000fd5b5050506000828152600b60205260409020546001600160a01b03169050611a4c612269565b6001600160a01b03167fea7b88a04220a2292e142652e8e1a59cc00e7d27d8ad6b11da6cf5870e6ba866600b60008581526020019081526020016000206001015484604051611a9c929190614d64565b60405180910390a350565b600081565b816001600160a01b0316611abe612269565b6001600160a01b03161415611ae55760405162461bcd60e51b815260040161065c90614af5565b8060036000611af2612269565b6001600160a01b03908116825260208083019390935260409182016000908120918716808252919093529120805460ff191692151592909217909155611b36612269565b6001600160a01b03167f17307eab39ab6107e8899845ad3d59bd9653f200f220920489ca2b5937696c3183604051611b6e919061424a565b60405180910390a35050565b60098054611b8790614ee0565b80601f0160208091040260200160405190810160405280929190818152602001828054611bb390614ee0565b8015611c005780601f10611bd557610100808354040283529160200191611c00565b820191906000526020600020905b815481529060010190602001808311611be357829003601f168201915b505050505081565b600081815260016020526040812061068a90612ad6565b7f9f2df0fed2c77648de5860a4cc508cd0818c85b8b8a1ab4ceeef8d981c8956a681565b6110128282612ae1565b83856001600160a01b03166370a08231611c65612269565b6040518263ffffffff1660e01b8152600401611c819190613fc6565b60206040518083038186803b158015611c9957600080fd5b505afa158015611cad573d6000803e3d6000fd5b505050506040513d601f19601f82011682018060405250810190611cd19190613d63565b1015611cef5760405162461bcd60e51b815260040161065c90614baf565b83856001600160a01b031663dd62ed3e611d07612269565b306040518363ffffffff1660e01b8152600401611d25929190613fda565b60206040518083038186803b158015611d3d57600080fd5b505afa158015611d51573d6000803e3d6000fd5b505050506040513d601f19601f82011682018060405250810190611d759190613d63565b1015611d935760405162461bcd60e51b815260040161065c906148e2565b846001600160a01b03166323b872dd611daa612269565b30876040518463ffffffff1660e01b8152600401611dca93929190614052565b602060405180830381600087803b158015611de457600080fd5b505af1158015611df8573d6000803e3d6000fd5b505050506040513d601f19601f82011682018060405250810190611e1c9190613d2f565b611e385760405162461bcd60e51b815260040161065c906144aa565b611e5c611e43612269565b6007548560405180602001604052806000815250612278565b6040518060800160405280611e6f612269565b6001600160a01b0316815260200183838080601f01602080910402602001604051908101604052809392919081815260200183838082843760009201919091525050509082525060208101859052604001600190526007546000908152600a60209081526040909120825181546001600160a01b0319166001600160a01b039091161781558282015180519192611f0e926001850192909101906134b4565b506040820151816002015560608201518160030160006101000a81548160ff02191690836002811115611f5157634e487b7160e01b600052602160045260246000fd5b021790555050604080516060810182526001600160a01b0388811680835260208084018981528486018b81526007546000908152600c90935295909120935184546001600160a01b03191693169290921783559051600183015591516002909101559050611fbd612269565b6001600160a01b03167fd8bffec4446d425694f73630f7822315baa62da5311e89f0d83335ef6a3917ba86868686604051611ffb9493929190614d72565b60405180910390a36007805490600061201383614f1b565b91905055505050505050565b600b60205260009081526040902080546001909101546001600160a01b039091169082565b7f65d7a28e3265b37a6474929f336521b332c1681b933f6cb9f3376673440d862a81565b60606009805461207790614ee0565b80601f01602080910402602001604051908101604052809291908181526020018280546120a390614ee0565b80156120f05780601f106120c5576101008083540402835291602001916120f0565b820191906000526020600020905b8154815290600101906020018083116120d357829003601f168201915b5050505050905090565b6001600160a01b03918216600090815260036020908152604080832093909416825291909152205460ff1690565b612130612269565b6001600160a01b0316856001600160a01b03161480612156575061215685610609612269565b6121725760405162461bcd60e51b815260040161065c90614580565b610dce8585858585612b00565b612187612269565b6001600160a01b0316836001600160a01b031614806121ad57506121ad83610609612269565b6121c95760405162461bcd60e51b815260040161065c90614580565b610df783838361295c565b60006121df336114af565b156121f3575060131936013560601c6114cf565b6121fb612225565b90506114cf565b61220c8282612c38565b5050565b6000611808836001600160a01b038416612cbd565b3390565b60006001600160e01b03198216636cdb3d1360e11b148061225a57506001600160e01b031982166303a24d0760e21b145b8061068a575061068a82612d07565b60006122736121d4565b905090565b6001600160a01b03841661229e5760405162461bcd60e51b815260040161065c90614c69565b60006122a8612269565b90506122c9816000876122ba88612d2c565b6122c388612d2c565b87612d85565b60008481526002602090815260408083206001600160a01b0389168452909152812080548592906122fb908490614e2f565b92505081905550846001600160a01b031660006001600160a01b0316826001600160a01b03167fc3d58168c5ae7397731d063d5bbf3d657854427343f4c083240f7aacaa2d0f628787604051612352929190614d64565b60405180910390a4610dce81600087878787612e39565b6001600160a01b03841661238f5760405162461bcd60e51b815260040161065c90614c69565b81518351146123b05760405162461bcd60e51b815260040161065c90614c0c565b60006123ba612269565b90506123cb81600087878787612d85565b60005b8451811015612483578381815181106123f757634e487b7160e01b600052603260045260246000fd5b60200260200101516002600087848151811061242357634e487b7160e01b600052603260045260246000fd5b602002602001015181526020019081526020016000206000886001600160a01b03166001600160a01b03168152602001908152602001600020600082825461246b9190614e2f565b9091555081905061247b81614f1b565b9150506123ce565b50846001600160a01b031660006001600160a01b0316826001600160a01b03167f4a39dc06d4c0dbc64b70af90fd698a233a518aa5d07e595d983b8c0526c8f7fb87876040516124d492919061421c565b60405180910390a4610dce81600087878787612f47565b815183511461250c5760405162461bcd60e51b815260040161065c90614c0c565b6001600160a01b0384166125325760405162461bcd60e51b815260040161065c9061472b565b600061253c612269565b905061254c818787878787612d85565b60005b845181101561265157600085828151811061257a57634e487b7160e01b600052603260045260246000fd5b6020026020010151905060008583815181106125a657634e487b7160e01b600052603260045260246000fd5b60209081029190910181015160008481526002835260408082206001600160a01b038e1683529093529190912054909150818110156125f75760405162461bcd60e51b815260040161065c90614885565b60008381526002602090815260408083206001600160a01b038e8116855292528083208585039055908b16825281208054849290612636908490614e2f565b925050819055505050508061264a90614f1b565b905061254f565b50846001600160a01b0316866001600160a01b0316826001600160a01b03167f4a39dc06d4c0dbc64b70af90fd698a233a518aa5d07e595d983b8c0526c8f7fb87876040516126a192919061421c565b60405180910390a46126b7818787878787612f47565b505050505050565b6126c882610ca1565b6126d9816126d4612269565b613018565b610df78383612c38565b6126eb612269565b6001600160a01b0316816001600160a01b03161461271b5760405162461bcd60e51b815260040161065c90614d07565b61220c828261307c565b6000611808836001600160a01b0384166130ff565b6127426114c8565b61275e5760405162461bcd60e51b815260040161065c90614416565b6005805460ff191690557f5db9ee0a495bf2e6ff9c91a7834c1ba4fdd244a5e8aa4e537bd38aeae4b073aa612791612269565b60405161279e9190613fc6565b60405180910390a1565b6001600160a01b0383166127ce5760405162461bcd60e51b815260040161065c906147e5565b80518251146127ef5760405162461bcd60e51b815260040161065c90614c0c565b60006127f9612269565b905061281981856000868660405180602001604052806000815250612d85565b60005b83518110156128fd57600084828151811061284757634e487b7160e01b600052603260045260246000fd5b60200260200101519050600084838151811061287357634e487b7160e01b600052603260045260246000fd5b60209081029190910181015160008481526002835260408082206001600160a01b038c1683529093529190912054909150818110156128c45760405162461bcd60e51b815260040161065c906144df565b60009283526002602090815260408085206001600160a01b038b16865290915290922091039055806128f581614f1b565b91505061281c565b5060006001600160a01b0316846001600160a01b0316826001600160a01b03167f4a39dc06d4c0dbc64b70af90fd698a233a518aa5d07e595d983b8c0526c8f7fb868660405161294e92919061421c565b60405180910390a450505050565b6001600160a01b0383166129825760405162461bcd60e51b815260040161065c906147e5565b600061298c612269565b90506129bc8185600061299e87612d2c565b6129a787612d2c565b60405180602001604052806000815250612d85565b60008381526002602090815260408083206001600160a01b0388168452909152902054828110156129ff5760405162461bcd60e51b815260040161065c906144df565b60008481526002602090815260408083206001600160a01b03808a16808652919093528184208786039055905190918516907fc3d58168c5ae7397731d063d5bbf3d657854427343f4c083240f7aacaa2d0f6290612a609089908990614d64565b60405180910390a45050505050565b612a776114c8565b15612a945760405162461bcd60e51b815260040161065c906146f4565b6005805460ff191660011790557f62e78cea01bee320cd4e420270b5ea74000d11b0c9f74754ebdbfc544b05a258612791612269565b6000611808838361321c565b600061068a82613254565b612aea82610ca1565b612af6816126d4612269565b610df7838361307c565b6001600160a01b038416612b265760405162461bcd60e51b815260040161065c9061472b565b6000612b30612269565b9050612b418187876122ba88612d2c565b60008481526002602090815260408083206001600160a01b038a16845290915290205483811015612b845760405162461bcd60e51b815260040161065c90614885565b60008581526002602090815260408083206001600160a01b038b8116855292528083208785039055908816825281208054869290612bc3908490614e2f565b92505081905550856001600160a01b0316876001600160a01b0316836001600160a01b03167fc3d58168c5ae7397731d063d5bbf3d657854427343f4c083240f7aacaa2d0f628888604051612c19929190614d64565b60405180910390a4612c2f828888888888612e39565b50505050505050565b612c42828261180f565b61220c576000828152602081815260408083206001600160a01b03851684529091529020805460ff19166001179055612c79612269565b6001600160a01b0316816001600160a01b0316837f2f8788117e7eff1d82e926ec794901d17c78024a50270940304540a733656f0d60405160405180910390a45050565b6000612cc98383613258565b612cff5750815460018181018455600084815260208082209093018490558454848252828601909352604090209190915561068a565b50600061068a565b60006001600160e01b03198216635a05180f60e01b148061068a575061068a82613270565b60408051600180825281830190925260609160009190602080830190803683370190505090508281600081518110612d7457634e487b7160e01b600052603260045260246000fd5b602090810291909101015292915050565b612d93868686868686613295565b6001600160a01b0384166126b75760005b8351811015612c2f57828181518110612dcd57634e487b7160e01b600052603260045260246000fd5b6020026020010151600a6000868481518110612df957634e487b7160e01b600052603260045260246000fd5b602002602001015181526020019081526020016000206002016000828254612e219190614e86565b90915550819050612e3181614f1b565b915050612da4565b612e4b846001600160a01b03166132a3565b156126b75760405163f23a6e6160e01b81526001600160a01b0385169063f23a6e6190612e849089908990889088908890600401614076565b602060405180830381600087803b158015612e9e57600080fd5b505af1925050508015612ece575060408051601f3d908101601f19168201909252612ecb91810190613ddc565b60015b612f1757612eda614f68565b80612ee55750612eff565b8060405162461bcd60e51b815260040161065c91906142b7565b60405162461bcd60e51b815260040161065c906142ca565b6001600160e01b0319811663f23a6e6160e01b14612c2f5760405162461bcd60e51b815260040161065c9061435c565b612f59846001600160a01b03166132a3565b156126b75760405163bc197c8160e01b81526001600160a01b0385169063bc197c8190612f929089908990889088908890600401613ff4565b602060405180830381600087803b158015612fac57600080fd5b505af1925050508015612fdc575060408051601f3d908101601f19168201909252612fd991810190613ddc565b60015b612fe857612eda614f68565b6001600160e01b0319811663bc197c8160e01b14612c2f5760405162461bcd60e51b815260040161065c9061435c565b613022828261180f565b61220c5761303a816001600160a01b031660146132a9565b6130458360206132a9565b604051602001613056929190613f45565b60408051601f198184030181529082905262461bcd60e51b825261065c916004016142b7565b613086828261180f565b1561220c576000828152602081815260408083206001600160a01b03851684529091529020805460ff191690556130bb612269565b6001600160a01b0316816001600160a01b0316837ff6391f5c32d9c69d2a47ea670b442974b53935d1edc7fd64eb21e047a839171b60405160405180910390a45050565b60008181526001830160205260408120548015613212576000613123600183614e86565b855490915060009061313790600190614e86565b90508181146131b857600086600001828154811061316557634e487b7160e01b600052603260045260246000fd5b906000526020600020015490508087600001848154811061319657634e487b7160e01b600052603260045260246000fd5b6000918252602080832090910192909255918252600188019052604090208390555b85548690806131d757634e487b7160e01b600052603160045260246000fd5b60019003818190600052602060002001600090559055856001016000868152602001908152602001600020600090556001935050505061068a565b600091505061068a565b600082600001828154811061324157634e487b7160e01b600052603260045260246000fd5b9060005260206000200154905092915050565b5490565b60009081526001919091016020526040902054151590565b60006001600160e01b03198216637965db0b60e01b148061068a575061068a82613468565b6126b7868686868686613481565b3b151590565b606060006132b8836002614e67565b6132c3906002614e2f565b67ffffffffffffffff8111156132e957634e487b7160e01b600052604160045260246000fd5b6040519080825280601f01601f191660200182016040528015613313576020820181803683370190505b509050600360fc1b8160008151811061333c57634e487b7160e01b600052603260045260246000fd5b60200101906001600160f81b031916908160001a905350600f60fb1b8160018151811061337957634e487b7160e01b600052603260045260246000fd5b60200101906001600160f81b031916908160001a905350600061339d846002614e67565b6133a8906001614e2f565b90505b6001811115613449577f303132333435363738396162636465660000000000000000000000000000000085600f16601081106133f757634e487b7160e01b600052603260045260246000fd5b1a60f81b82828151811061341b57634e487b7160e01b600052603260045260246000fd5b60200101906001600160f81b031916908160001a90535060049490941c9361344281614ec9565b90506133ab565b5083156118085760405162461bcd60e51b815260040161065c90614327565b6001600160e01b031981166301ffc9a760e01b14919050565b61348f8686868686866126b7565b6134976114c8565b156126b75760405162461bcd60e51b815260040161065c90614523565b8280546134c090614ee0565b90600052602060002090601f0160209004810192826134e25760008555613528565b82601f106134fb57805160ff1916838001178555613528565b82800160010185558215613528579182015b8281111561352857825182559160200191906001019061350d565b506135349291506135ac565b5090565b82805461354490614ee0565b90600052602060002090601f0160209004810192826135665760008555613528565b82601f1061357f5782800160ff19823516178555613528565b82800160010185558215613528579182015b82811115613528578235825591602001919060010190613591565b5b8082111561353457600081556001016135ad565b60008083601f8401126135d2578182fd5b50813567ffffffffffffffff8111156135e9578182fd5b602083019150836020808302850101111561360357600080fd5b9250929050565b600082601f83011261361a578081fd5b8135602061362f61362a83614e0b565b614de1565b828152818101908583018385028701840188101561364b578586fd5b855b858110156136695781358452928401929084019060010161364d565b5090979650505050505050565b600082601f830112613686578081fd5b813567ffffffffffffffff8111156136a0576136a0614f4c565b6136b3601f8201601f1916602001614de1565b8181528460208386010111156136c7578283fd5b816020850160208301379081016020019190915292915050565b60008083601f8401126136f2578182fd5b50813567ffffffffffffffff811115613709578182fd5b60208301915083602082850101111561360357600080fd5b600060208284031215613732578081fd5b81356118088161500d565b60006020828403121561374e578081fd5b81516118088161500d565b6000806040838503121561376b578081fd5b82356137768161500d565b915060208301356137868161500d565b809150509250929050565b600080600080600060a086880312156137a8578081fd5b85356137b38161500d565b945060208601356137c38161500d565b9350604086013567ffffffffffffffff808211156137df578283fd5b6137eb89838a0161360a565b94506060880135915080821115613800578283fd5b61380c89838a0161360a565b93506080880135915080821115613821578283fd5b5061382e88828901613676565b9150509295509295909350565b600080600080600060a08688031215613852578081fd5b853561385d8161500d565b9450602086013561386d8161500d565b93506040860135925060608601359150608086013567ffffffffffffffff811115613896578182fd5b61382e88828901613676565b60008060008060008060008060008060e08b8d0312156138c0578788fd5b8a356138cb8161500d565b995060208b013567ffffffffffffffff808211156138e757898afd5b6138f38e838f016135c1565b909b50995060408d013591508082111561390b578687fd5b6139178e838f016135c1565b909950975060608d013591508082111561392f578687fd5b5061393c8d828e016136e1565b9b9e9a9d50989b979a9699969760808101359760a0820135975060c09091013595509350505050565b600080600060608486031215613979578081fd5b83356139848161500d565b9250602084013567ffffffffffffffff808211156139a0578283fd5b6139ac8783880161360a565b935060408601359150808211156139c1578283fd5b506139ce8682870161360a565b9150509250925092565b600080600080608085870312156139ed578182fd5b84356139f88161500d565b9350602085013567ffffffffffffffff80821115613a14578384fd5b613a208883890161360a565b94506040870135915080821115613a35578384fd5b613a418883890161360a565b93506060870135915080821115613a56578283fd5b50613a6387828801613676565b91505092959194509250565b60008060408385031215613a81578182fd5b8235613a8c8161500d565b9150602083013561378681615025565b60008060408385031215613aae578182fd5b8235613ab98161500d565b946020939093013593505050565b60008060008060608587031215613adc578182fd5b8435613ae78161500d565b935060208501359250604085013567ffffffffffffffff811115613b09578283fd5b613b15878288016136e1565b95989497509550505050565b600080600060608486031215613b35578081fd5b8335613b408161500d565b95602085013595506040909401359392505050565b60008060008060808587031215613b6a578182fd5b8435613b758161500d565b93506020850135925060408501359150606085013567ffffffffffffffff811115613b9e578182fd5b613a6387828801613676565b600080600080600060808688031215613bc1578283fd5b8535613bcc8161500d565b94506020860135935060408601359250606086013567ffffffffffffffff811115613bf5578182fd5b613c01888289016136e1565b969995985093965092949392505050565b60008060408385031215613c24578182fd5b823567ffffffffffffffff80821115613c3b578384fd5b818501915085601f830112613c4e578384fd5b81356020613c5e61362a83614e0b565b82815281810190858301838502870184018b1015613c7a578889fd5b8896505b84871015613ca5578035613c918161500d565b835260019690960195918301918301613c7e565b5096505086013592505080821115613cbb578283fd5b50613cc88582860161360a565b9150509250929050565b60008060008060408587031215613ce7578182fd5b843567ffffffffffffffff80821115613cfe578384fd5b613d0a888389016135c1565b90965094506020870135915080821115613d22578384fd5b50613b15878288016135c1565b600060208284031215613d40578081fd5b815161180881615025565b600060208284031215613d5c578081fd5b5035919050565b600060208284031215613d74578081fd5b5051919050565b60008060408385031215613d8d578182fd5b8235915060208301356137868161500d565b60008060408385031215613db1578182fd5b50508035926020909101359150565b600060208284031215613dd1578081fd5b813561180881615033565b600060208284031215613ded578081fd5b815161180881615033565b60008060208385031215613e0a578182fd5b823567ffffffffffffffff811115613e20578283fd5b613e2c858286016136e1565b90969095509350505050565b600060208284031215613e49578081fd5b81516fffffffffffffffffffffffffffffffff81168114611808578182fd5b60008284527f07ffffffffffffffffffffffffffffffffffffffffffffffffffffffffffffff831115613e99578081fd5b6020830280836020870137939093016020019283525090919050565b6000815180845260208085019450808401835b83811015613ee457815187529582019590820190600101613ec8565b509495945050505050565b60008151808452613f07816020860160208601614e9d565b601f01601f19169290920160200192915050565b60008284528282602086013780602084860101526020601f19601f85011685010190509392505050565b60007f416363657373436f6e74726f6c3a206163636f756e742000000000000000000082528351613f7d816017850160208801614e9d565b7f206973206d697373696e6720726f6c65200000000000000000000000000000006017918401918201528351613fba816028840160208801614e9d565b01602801949350505050565b6001600160a01b0391909116815260200190565b6001600160a01b0392831681529116602082015260400190565b60006001600160a01b03808816835280871660208401525060a0604083015261402060a0830186613eb5565b82810360608401526140328186613eb5565b905082810360808401526140468185613eef565b98975050505050505050565b6001600160a01b039384168152919092166020820152604081019190915260600190565b60006001600160a01b03808816835280871660208401525084604083015283606083015260a060808301526140ae60a0830184613eef565b979650505050505050565b60006001600160a01b0386168252608060208301526140db6080830186613eef565b90508360408301526003831061410157634e487b7160e01b600052602160045260246000fd5b82606083015295945050505050565b6001600160a01b03929092168252602082015260400190565b6001600160a01b039390931683526020830191909152604082015260600190565b6000602082526118086020830184613eb5565b6000606082526141706060830188613eb5565b6020838203818501528187835281830190508182890284010189855b8a8110156141f857858303601f190184528135368d9003601e190181126141b1578788fd5b8c01803567ffffffffffffffff8111156141c9578889fd5b8036038e13156141d7578889fd5b6141e48582898501613f1b565b95870195945050509084019060010161418c565b5050858103604087015261420d81888a613e68565b9b9a5050505050505050505050565b60006040825261422f6040830185613eb5565b82810360208401526142418185613eb5565b95945050505050565b901515815260200190565b90815260200190565b9182526001600160a01b0316602082015260400190565b600060a0825261428960a08301888a613f1b565b90506001600160a01b0386166020830152846040830152836060830152826080830152979650505050505050565b6000602082526118086020830184613eef565b60208082526034908201527f455243313135353a207472616e7366657220746f206e6f6e204552433131353560408201527f526563656976657220696d706c656d656e746572000000000000000000000000606082015260800190565b6020808252818101527f537472696e67733a20686578206c656e67746820696e73756666696369656e74604082015260600190565b60208082526028908201527f455243313135353a204552433131353552656365697665722072656a6563746560408201527f6420746f6b656e73000000000000000000000000000000000000000000000000606082015260800190565b60208082526033908201527f5061636b3a206f6e6c7920612070726f746f636f6c2061646d696e2063616e2060408201527f63616c6c20746869732066756e6374696f6e2e00000000000000000000000000606082015260800190565b60208082526014908201527f5061757361626c653a206e6f7420706175736564000000000000000000000000604082015260600190565b6020808252602b908201527f455243313135353a2062616c616e636520717565727920666f7220746865207a60408201527f65726f2061646472657373000000000000000000000000000000000000000000606082015260800190565b6020808252818101527f4661696c656420746f207472616e7366657220455243323020746f6b656e732e604082015260600190565b60208082526024908201527f455243313135353a206275726e20616d6f756e7420657863656564732062616c604082015263616e636560e01b606082015260800190565b6020808252602c908201527f455243313135355061757361626c653a20746f6b656e207472616e736665722060408201527f7768696c65207061757365640000000000000000000000000000000000000000606082015260800190565b60208082526029908201527f455243313135353a2063616c6c6572206973206e6f74206f776e6572206e6f7260408201527f20617070726f7665640000000000000000000000000000000000000000000000606082015260800190565b60208082526033908201527f4e46543a204d75737420617070726f76652074686520636f6e7472616374207460408201527f6f207472616e7366657220746865204e46542e00000000000000000000000000606082015260800190565b6020808252602b908201527f5061636b3a204270732070726f7669646564206d757374206265206c6573732060408201527f7468616e2031302c303030000000000000000000000000000000000000000000606082015260800190565b60208082526025908201527f4e46543a204661696c656420746f207472616e7366657220455243323020746f60408201527f6b656e732e000000000000000000000000000000000000000000000000000000606082015260800190565b60208082526010908201527f5061757361626c653a2070617573656400000000000000000000000000000000604082015260600190565b60208082526025908201527f455243313135353a207472616e7366657220746f20746865207a65726f20616460408201527f6472657373000000000000000000000000000000000000000000000000000000606082015260800190565b60208082526032908201527f455243313135353a207472616e736665722063616c6c6572206973206e6f742060408201527f6f776e6572206e6f7220617070726f7665640000000000000000000000000000606082015260800190565b60208082526023908201527f455243313135353a206275726e2066726f6d20746865207a65726f206164647260408201526265737360e81b606082015260800190565b60208082526038908201527f455243313135355072657365744d696e7465725061757365723a206d7573742060408201527f68617665206d696e74657220726f6c6520746f206d696e740000000000000000606082015260800190565b6020808252602a908201527f455243313135353a20696e73756666696369656e742062616c616e636520666f60408201527f72207472616e7366657200000000000000000000000000000000000000000000606082015260800190565b60208082526039908201527f4e46543a204d75737420617070726f7665207468697320636f6e74726163742060408201527f746f207472616e7366657220455243323020746f6b656e732e00000000000000606082015260800190565b60208082526029908201527f4e46543a2043616e6e6f742072656465656d20616e204e465420796f7520646f60408201527f206e6f74206f776e2e0000000000000000000000000000000000000000000000606082015260800190565b60208082526022908201527f4e46543a204d75737420637265617465206174206c65617374206f6e65204e466040820152612a1760f11b606082015260800190565b6020808252603b908201527f455243313135355072657365744d696e7465725061757365723a206d7573742060408201527f686176652070617573657220726f6c6520746f20756e70617573650000000000606082015260800190565b60208082526030908201527f4e46543a204d757374207370656369667920657175616c206e756d626572206f60408201527f6620636f6e6669672076616c7565732e00000000000000000000000000000000606082015260800190565b60208082526039908201527f455243313135355072657365744d696e7465725061757365723a206d7573742060408201527f686176652070617573657220726f6c6520746f20706175736500000000000000606082015260800190565b60208082526029908201527f455243313135353a2073657474696e6720617070726f76616c2073746174757360408201527f20666f722073656c660000000000000000000000000000000000000000000000606082015260800190565b60208082526029908201527f455243313135353a206163636f756e747320616e6420696473206c656e67746860408201527f206d69736d617463680000000000000000000000000000000000000000000000606082015260800190565b6020808252603a908201527f4e46543a204d757374206f776e2074686520616d6f756e74206f6620746f6b6560408201527f6e73207468617420617265206265696e6720777261707065642e000000000000606082015260800190565b60208082526028908201527f455243313135353a2069647320616e6420616d6f756e7473206c656e6774682060408201527f6d69736d61746368000000000000000000000000000000000000000000000000606082015260800190565b60208082526021908201527f455243313135353a206d696e7420746f20746865207a65726f206164647265736040820152607360f81b606082015260800190565b6020808252602b908201527f4e46543a204f6e6c7920746865206f776e6572206f6620746865204e4654206360408201527f616e20777261702069742e000000000000000000000000000000000000000000606082015260800190565b6020808252602f908201527f416363657373436f6e74726f6c3a2063616e206f6e6c792072656e6f756e636560408201527f20726f6c657320666f722073656c660000000000000000000000000000000000606082015260800190565b918252602082015260400190565b600085825284602083015260606040830152614d92606083018486613f1b565b9695505050505050565b6000808335601e19843603018112614db2578283fd5b83018035915067ffffffffffffffff821115614dcc578283fd5b60200191503681900382131561360357600080fd5b60405181810167ffffffffffffffff81118282101715614e0357614e03614f4c565b604052919050565b600067ffffffffffffffff821115614e2557614e25614f4c565b5060209081020190565b60008219821115614e4257614e42614f36565b500190565b600082614e6257634e487b7160e01b81526012600452602481fd5b500490565b6000816000190483118215151615614e8157614e81614f36565b500290565b600082821015614e9857614e98614f36565b500390565b60005b83811015614eb8578181015183820152602001614ea0565b83811115610bdc5750506000910152565b600081614ed857614ed8614f36565b506000190190565b600281046001821680614ef457607f821691505b60208210811415614f1557634e487b7160e01b600052602260045260246000fd5b50919050565b6000600019821415614f2f57614f2f614f36565b5060010190565b634e487b7160e01b600052601160045260246000fd5b634e487b7160e01b600052604160045260246000fd5b60e01c90565b600060443d1015614f78576114cf565b600481823e6308c379a0614f8c8251614f62565b14614f96576114cf565b6040513d600319016004823e80513d67ffffffffffffffff8160248401118184111715614fc657505050506114cf565b82840192508251915080821115614fe057505050506114cf565b503d83016020828401011115614ff8575050506114cf565b601f01601f1916810160200160405291505090565b6001600160a01b038116811461502257600080fd5b50565b801515811461502257600080fd5b6001600160e01b03198116811461502257600080fdfea164736f6c6343000800000a",
  "linkReferences": {},
  "deployedLinkReferences": {}
}