{
  "_format": "hh-sol-artifact-1",
  "contractName": "AccessNFT",
  "sourceName": "contracts/AccessNFT.sol",
  "abi": [
    {
      "inputs": [
        {
          "internalType": "address payable",
          "name": "_controlCenter",
          "type": "address"
        },
        {
          "internalType": "address",
          "name": "_trustedForwarder",
          "type": "address"
        },
        {
          "internalType": "address",
          "name": "_nftWrapper",
          "type": "address"
        },
        {
          "internalType": "string",
          "name": "_uri",
          "type": "string"
        }
      ],
      "stateMutability": "nonpayable",
      "type": "constructor"
    },
    {
      "anonymous": false,
      "inputs": [
        {
          "indexed": true,
          "internalType": "address",
          "name": "redeemer",
          "type": "address"
        },
        {
          "indexed": true,
          "internalType": "uint256",
          "name": "nftTokenId",
          "type": "uint256"
        },
        {
          "indexed": true,
          "internalType": "uint256",
          "name": "accessNftId",
          "type": "uint256"
        },
        {
          "indexed": false,
          "internalType": "uint256",
          "name": "amount",
          "type": "uint256"
        }
      ],
      "name": "AccessNFTRedeemed",
      "type": "event"
    },
    {
      "anonymous": false,
      "inputs": [
        {
          "indexed": true,
          "internalType": "address",
          "name": "creator",
          "type": "address"
        },
        {
          "indexed": false,
          "internalType": "uint256[]",
          "name": "nftIds",
          "type": "uint256[]"
        },
        {
          "indexed": false,
          "internalType": "string[]",
          "name": "nftURIs",
          "type": "string[]"
        },
        {
          "indexed": false,
          "internalType": "uint256[]",
          "name": "acessNftIds",
          "type": "uint256[]"
        },
        {
          "indexed": false,
          "internalType": "string[]",
          "name": "accessNftURIs",
          "type": "string[]"
        },
        {
          "indexed": false,
          "internalType": "uint256[]",
          "name": "nftSupplies",
          "type": "uint256[]"
        }
      ],
      "name": "AccessNFTsCreated",
      "type": "event"
    },
    {
      "anonymous": false,
      "inputs": [
        {
          "indexed": false,
          "internalType": "bool",
          "name": "isTransferable",
          "type": "bool"
        }
      ],
      "name": "AccessTransferabilityUpdated",
      "type": "event"
    },
    {
      "anonymous": false,
      "inputs": [
        {
          "indexed": true,
          "internalType": "address",
          "name": "account",
          "type": "address"
        },
        {
          "indexed": true,
          "internalType": "address",
          "name": "operator",
          "type": "address"
        },
        {
          "indexed": false,
          "internalType": "bool",
          "name": "approved",
          "type": "bool"
        }
      ],
      "name": "ApprovalForAll",
      "type": "event"
    },
    {
      "anonymous": false,
      "inputs": [
        {
          "indexed": false,
          "internalType": "uint256",
          "name": "accessNftId",
          "type": "uint256"
        },
        {
          "indexed": false,
          "internalType": "address",
          "name": "creator",
          "type": "address"
        },
        {
          "indexed": false,
          "internalType": "uint256",
          "name": "lastTimeToRedeem",
          "type": "uint256"
        }
      ],
      "name": "LastRedeemTimeUpdated",
      "type": "event"
    },
    {
      "anonymous": false,
      "inputs": [
        {
          "indexed": false,
          "internalType": "address",
          "name": "account",
          "type": "address"
        }
      ],
      "name": "Paused",
      "type": "event"
    },
    {
      "anonymous": false,
      "inputs": [
        {
          "indexed": true,
          "internalType": "bytes32",
          "name": "role",
          "type": "bytes32"
        },
        {
          "indexed": true,
          "internalType": "bytes32",
          "name": "previousAdminRole",
          "type": "bytes32"
        },
        {
          "indexed": true,
          "internalType": "bytes32",
          "name": "newAdminRole",
          "type": "bytes32"
        }
      ],
      "name": "RoleAdminChanged",
      "type": "event"
    },
    {
      "anonymous": false,
      "inputs": [
        {
          "indexed": true,
          "internalType": "bytes32",
          "name": "role",
          "type": "bytes32"
        },
        {
          "indexed": true,
          "internalType": "address",
          "name": "account",
          "type": "address"
        },
        {
          "indexed": true,
          "internalType": "address",
          "name": "sender",
          "type": "address"
        }
      ],
      "name": "RoleGranted",
      "type": "event"
    },
    {
      "anonymous": false,
      "inputs": [
        {
          "indexed": true,
          "internalType": "bytes32",
          "name": "role",
          "type": "bytes32"
        },
        {
          "indexed": true,
          "internalType": "address",
          "name": "account",
          "type": "address"
        },
        {
          "indexed": true,
          "internalType": "address",
          "name": "sender",
          "type": "address"
        }
      ],
      "name": "RoleRevoked",
      "type": "event"
    },
    {
      "anonymous": false,
      "inputs": [
        {
          "indexed": false,
          "internalType": "uint256",
          "name": "royaltyBps",
          "type": "uint256"
        }
      ],
      "name": "RoyaltyUpdated",
      "type": "event"
    },
    {
      "anonymous": false,
      "inputs": [
        {
          "indexed": true,
          "internalType": "address",
          "name": "operator",
          "type": "address"
        },
        {
          "indexed": true,
          "internalType": "address",
          "name": "from",
          "type": "address"
        },
        {
          "indexed": true,
          "internalType": "address",
          "name": "to",
          "type": "address"
        },
        {
          "indexed": false,
          "internalType": "uint256[]",
          "name": "ids",
          "type": "uint256[]"
        },
        {
          "indexed": false,
          "internalType": "uint256[]",
          "name": "values",
          "type": "uint256[]"
        }
      ],
      "name": "TransferBatch",
      "type": "event"
    },
    {
      "anonymous": false,
      "inputs": [
        {
          "indexed": true,
          "internalType": "address",
          "name": "operator",
          "type": "address"
        },
        {
          "indexed": true,
          "internalType": "address",
          "name": "from",
          "type": "address"
        },
        {
          "indexed": true,
          "internalType": "address",
          "name": "to",
          "type": "address"
        },
        {
          "indexed": false,
          "internalType": "uint256",
          "name": "id",
          "type": "uint256"
        },
        {
          "indexed": false,
          "internalType": "uint256",
          "name": "value",
          "type": "uint256"
        }
      ],
      "name": "TransferSingle",
      "type": "event"
    },
    {
      "anonymous": false,
      "inputs": [
        {
          "indexed": false,
          "internalType": "string",
          "name": "value",
          "type": "string"
        },
        {
          "indexed": true,
          "internalType": "uint256",
          "name": "id",
          "type": "uint256"
        }
      ],
      "name": "URI",
      "type": "event"
    },
    {
      "anonymous": false,
      "inputs": [
        {
          "indexed": false,
          "internalType": "address",
          "name": "account",
          "type": "address"
        }
      ],
      "name": "Unpaused",
      "type": "event"
    },
    {
      "inputs": [],
      "name": "DEFAULT_ADMIN_ROLE",
      "outputs": [
        {
          "internalType": "bytes32",
          "name": "",
          "type": "bytes32"
        }
      ],
      "stateMutability": "view",
      "type": "function"
    },
    {
      "inputs": [],
      "name": "MINTER_ROLE",
      "outputs": [
        {
          "internalType": "bytes32",
          "name": "",
          "type": "bytes32"
        }
      ],
      "stateMutability": "view",
      "type": "function"
    },
    {
      "inputs": [],
      "name": "PAUSER_ROLE",
      "outputs": [
        {
          "internalType": "bytes32",
          "name": "",
          "type": "bytes32"
        }
      ],
      "stateMutability": "view",
      "type": "function"
    },
    {
      "inputs": [],
      "name": "TRANSFER_ROLE",
      "outputs": [
        {
          "internalType": "bytes32",
          "name": "",
          "type": "bytes32"
        }
      ],
      "stateMutability": "view",
      "type": "function"
    },
    {
      "inputs": [],
      "name": "_contractURI",
      "outputs": [
        {
          "internalType": "string",
          "name": "",
          "type": "string"
        }
      ],
      "stateMutability": "view",
      "type": "function"
    },
    {
      "inputs": [],
      "name": "accessNftIsTransferable",
      "outputs": [
        {
          "internalType": "bool",
          "name": "",
          "type": "bool"
        }
      ],
      "stateMutability": "view",
      "type": "function"
    },
    {
      "inputs": [
        {
          "internalType": "address",
          "name": "account",
          "type": "address"
        },
        {
          "internalType": "uint256",
          "name": "id",
          "type": "uint256"
        }
      ],
      "name": "balanceOf",
      "outputs": [
        {
          "internalType": "uint256",
          "name": "",
          "type": "uint256"
        }
      ],
      "stateMutability": "view",
      "type": "function"
    },
    {
      "inputs": [
        {
          "internalType": "address[]",
          "name": "accounts",
          "type": "address[]"
        },
        {
          "internalType": "uint256[]",
          "name": "ids",
          "type": "uint256[]"
        }
      ],
      "name": "balanceOfBatch",
      "outputs": [
        {
          "internalType": "uint256[]",
          "name": "",
          "type": "uint256[]"
        }
      ],
      "stateMutability": "view",
      "type": "function"
    },
    {
      "inputs": [
        {
          "internalType": "address",
          "name": "account",
          "type": "address"
        },
        {
          "internalType": "uint256",
          "name": "id",
          "type": "uint256"
        },
        {
          "internalType": "uint256",
          "name": "value",
          "type": "uint256"
        }
      ],
      "name": "burn",
      "outputs": [],
      "stateMutability": "nonpayable",
      "type": "function"
    },
    {
      "inputs": [
        {
          "internalType": "address",
          "name": "account",
          "type": "address"
        },
        {
          "internalType": "uint256[]",
          "name": "ids",
          "type": "uint256[]"
        },
        {
          "internalType": "uint256[]",
          "name": "values",
          "type": "uint256[]"
        }
      ],
      "name": "burnBatch",
      "outputs": [],
      "stateMutability": "nonpayable",
      "type": "function"
    },
    {
      "inputs": [],
      "name": "contractURI",
      "outputs": [
        {
          "internalType": "string",
          "name": "",
          "type": "string"
        }
      ],
      "stateMutability": "view",
      "type": "function"
    },
    {
      "inputs": [
        {
          "internalType": "string[]",
          "name": "_nftURIs",
          "type": "string[]"
        },
        {
          "internalType": "string[]",
          "name": "_accessNftURIs",
          "type": "string[]"
        },
        {
          "internalType": "uint256[]",
          "name": "_nftSupplies",
          "type": "uint256[]"
        },
        {
          "internalType": "address",
          "name": "_pack",
          "type": "address"
        },
        {
          "internalType": "bytes",
          "name": "_packArgs",
          "type": "bytes"
        }
      ],
      "name": "createAccessNfts",
      "outputs": [
        {
          "internalType": "uint256[]",
          "name": "nftIds",
          "type": "uint256[]"
        }
      ],
      "stateMutability": "nonpayable",
      "type": "function"
    },
    {
      "inputs": [
        {
          "internalType": "bytes32",
          "name": "role",
          "type": "bytes32"
        }
      ],
      "name": "getRoleAdmin",
      "outputs": [
        {
          "internalType": "bytes32",
          "name": "",
          "type": "bytes32"
        }
      ],
      "stateMutability": "view",
      "type": "function"
    },
    {
      "inputs": [
        {
          "internalType": "bytes32",
          "name": "role",
          "type": "bytes32"
        },
        {
          "internalType": "uint256",
          "name": "index",
          "type": "uint256"
        }
      ],
      "name": "getRoleMember",
      "outputs": [
        {
          "internalType": "address",
          "name": "",
          "type": "address"
        }
      ],
      "stateMutability": "view",
      "type": "function"
    },
    {
      "inputs": [
        {
          "internalType": "bytes32",
          "name": "role",
          "type": "bytes32"
        }
      ],
      "name": "getRoleMemberCount",
      "outputs": [
        {
          "internalType": "uint256",
          "name": "",
          "type": "uint256"
        }
      ],
      "stateMutability": "view",
      "type": "function"
    },
    {
      "inputs": [
        {
          "internalType": "bytes32",
          "name": "role",
          "type": "bytes32"
        },
        {
          "internalType": "address",
          "name": "account",
          "type": "address"
        }
      ],
      "name": "grantRole",
      "outputs": [],
      "stateMutability": "nonpayable",
      "type": "function"
    },
    {
      "inputs": [
        {
          "internalType": "bytes32",
          "name": "role",
          "type": "bytes32"
        },
        {
          "internalType": "address",
          "name": "account",
          "type": "address"
        }
      ],
      "name": "hasRole",
      "outputs": [
        {
          "internalType": "bool",
          "name": "",
          "type": "bool"
        }
      ],
      "stateMutability": "view",
      "type": "function"
    },
    {
      "inputs": [
        {
          "internalType": "address",
          "name": "account",
          "type": "address"
        },
        {
          "internalType": "address",
          "name": "operator",
          "type": "address"
        }
      ],
      "name": "isApprovedForAll",
      "outputs": [
        {
          "internalType": "bool",
          "name": "",
          "type": "bool"
        }
      ],
      "stateMutability": "view",
      "type": "function"
    },
    {
      "inputs": [
        {
          "internalType": "uint256",
          "name": "_nftId",
          "type": "uint256"
        }
      ],
      "name": "isRedeemable",
      "outputs": [
        {
          "internalType": "bool",
          "name": "",
          "type": "bool"
        }
      ],
      "stateMutability": "view",
      "type": "function"
    },
    {
      "inputs": [
        {
          "internalType": "address",
          "name": "forwarder",
          "type": "address"
        }
      ],
      "name": "isTrustedForwarder",
      "outputs": [
        {
          "internalType": "bool",
          "name": "",
          "type": "bool"
        }
      ],
      "stateMutability": "view",
      "type": "function"
    },
    {
      "inputs": [
        {
          "internalType": "uint256",
          "name": "",
          "type": "uint256"
        }
      ],
      "name": "lastTimeToRedeem",
      "outputs": [
        {
          "internalType": "uint256",
          "name": "",
          "type": "uint256"
        }
      ],
      "stateMutability": "view",
      "type": "function"
    },
    {
      "inputs": [
        {
          "internalType": "address",
          "name": "to",
          "type": "address"
        },
        {
          "internalType": "uint256",
          "name": "id",
          "type": "uint256"
        },
        {
          "internalType": "uint256",
          "name": "amount",
          "type": "uint256"
        },
        {
          "internalType": "bytes",
          "name": "data",
          "type": "bytes"
        }
      ],
      "name": "mint",
      "outputs": [],
      "stateMutability": "nonpayable",
      "type": "function"
    },
    {
      "inputs": [
        {
          "internalType": "address",
          "name": "to",
          "type": "address"
        },
        {
          "internalType": "uint256[]",
          "name": "ids",
          "type": "uint256[]"
        },
        {
          "internalType": "uint256[]",
          "name": "amounts",
          "type": "uint256[]"
        },
        {
          "internalType": "bytes",
          "name": "data",
          "type": "bytes"
        }
      ],
      "name": "mintBatch",
      "outputs": [],
      "stateMutability": "nonpayable",
      "type": "function"
    },
    {
      "inputs": [],
      "name": "nextTokenId",
      "outputs": [
        {
          "internalType": "uint256",
          "name": "",
          "type": "uint256"
        }
      ],
      "stateMutability": "view",
      "type": "function"
    },
    {
      "inputs": [
        {
          "internalType": "address",
          "name": "",
          "type": "address"
        },
        {
          "internalType": "address",
          "name": "",
          "type": "address"
        },
        {
          "internalType": "uint256[]",
          "name": "",
          "type": "uint256[]"
        },
        {
          "internalType": "uint256[]",
          "name": "",
          "type": "uint256[]"
        },
        {
          "internalType": "bytes",
          "name": "",
          "type": "bytes"
        }
      ],
      "name": "onERC1155BatchReceived",
      "outputs": [
        {
          "internalType": "bytes4",
          "name": "",
          "type": "bytes4"
        }
      ],
      "stateMutability": "nonpayable",
      "type": "function"
    },
    {
      "inputs": [
        {
          "internalType": "address",
          "name": "",
          "type": "address"
        },
        {
          "internalType": "address",
          "name": "",
          "type": "address"
        },
        {
          "internalType": "uint256",
          "name": "",
          "type": "uint256"
        },
        {
          "internalType": "uint256",
          "name": "",
          "type": "uint256"
        },
        {
          "internalType": "bytes",
          "name": "",
          "type": "bytes"
        }
      ],
      "name": "onERC1155Received",
      "outputs": [
        {
          "internalType": "bytes4",
          "name": "",
          "type": "bytes4"
        }
      ],
      "stateMutability": "nonpayable",
      "type": "function"
    },
    {
      "inputs": [
        {
          "internalType": "address",
          "name": "",
          "type": "address"
        },
        {
          "internalType": "address",
          "name": "",
          "type": "address"
        },
        {
          "internalType": "uint256",
          "name": "",
          "type": "uint256"
        },
        {
          "internalType": "bytes",
          "name": "",
          "type": "bytes"
        }
      ],
      "name": "onERC721Received",
      "outputs": [
        {
          "internalType": "bytes4",
          "name": "",
          "type": "bytes4"
        }
      ],
      "stateMutability": "nonpayable",
      "type": "function"
    },
    {
      "inputs": [],
      "name": "pause",
      "outputs": [],
      "stateMutability": "nonpayable",
      "type": "function"
    },
    {
      "inputs": [],
      "name": "paused",
      "outputs": [
        {
          "internalType": "bool",
          "name": "",
          "type": "bool"
        }
      ],
      "stateMutability": "view",
      "type": "function"
    },
    {
      "inputs": [
        {
          "internalType": "uint256",
          "name": "_tokenId",
          "type": "uint256"
        },
        {
          "internalType": "uint256",
          "name": "_amount",
          "type": "uint256"
        }
      ],
      "name": "redeemToken",
      "outputs": [],
      "stateMutability": "nonpayable",
      "type": "function"
    },
    {
      "inputs": [
        {
          "internalType": "bytes32",
          "name": "role",
          "type": "bytes32"
        },
        {
          "internalType": "address",
          "name": "account",
          "type": "address"
        }
      ],
      "name": "renounceRole",
      "outputs": [],
      "stateMutability": "nonpayable",
      "type": "function"
    },
    {
      "inputs": [
        {
          "internalType": "bytes32",
          "name": "role",
          "type": "bytes32"
        },
        {
          "internalType": "address",
          "name": "account",
          "type": "address"
        }
      ],
      "name": "revokeRole",
      "outputs": [],
      "stateMutability": "nonpayable",
      "type": "function"
    },
    {
      "inputs": [],
      "name": "royaltyBps",
      "outputs": [
        {
          "internalType": "uint256",
          "name": "",
          "type": "uint256"
        }
      ],
      "stateMutability": "view",
      "type": "function"
    },
    {
      "inputs": [
        {
          "internalType": "uint256",
          "name": "tokenId",
          "type": "uint256"
        },
        {
          "internalType": "uint256",
          "name": "salePrice",
          "type": "uint256"
        }
      ],
      "name": "royaltyInfo",
      "outputs": [
        {
          "internalType": "address",
          "name": "receiver",
          "type": "address"
        },
        {
          "internalType": "uint256",
          "name": "royaltyAmount",
          "type": "uint256"
        }
      ],
      "stateMutability": "view",
      "type": "function"
    },
    {
      "inputs": [
        {
          "internalType": "address",
          "name": "from",
          "type": "address"
        },
        {
          "internalType": "address",
          "name": "to",
          "type": "address"
        },
        {
          "internalType": "uint256[]",
          "name": "ids",
          "type": "uint256[]"
        },
        {
          "internalType": "uint256[]",
          "name": "amounts",
          "type": "uint256[]"
        },
        {
          "internalType": "bytes",
          "name": "data",
          "type": "bytes"
        }
      ],
      "name": "safeBatchTransferFrom",
      "outputs": [],
      "stateMutability": "nonpayable",
      "type": "function"
    },
    {
      "inputs": [
        {
          "internalType": "address",
          "name": "from",
          "type": "address"
        },
        {
          "internalType": "address",
          "name": "to",
          "type": "address"
        },
        {
          "internalType": "uint256",
          "name": "id",
          "type": "uint256"
        },
        {
          "internalType": "uint256",
          "name": "amount",
          "type": "uint256"
        },
        {
          "internalType": "bytes",
          "name": "data",
          "type": "bytes"
        }
      ],
      "name": "safeTransferFrom",
      "outputs": [],
      "stateMutability": "nonpayable",
      "type": "function"
    },
    {
      "inputs": [
        {
          "internalType": "bool",
          "name": "_isTransferable",
          "type": "bool"
        }
      ],
      "name": "setAccessNftTransferability",
      "outputs": [],
      "stateMutability": "nonpayable",
      "type": "function"
    },
    {
      "inputs": [
        {
          "internalType": "address",
          "name": "operator",
          "type": "address"
        },
        {
          "internalType": "bool",
          "name": "approved",
          "type": "bool"
        }
      ],
      "name": "setApprovalForAll",
      "outputs": [],
      "stateMutability": "nonpayable",
      "type": "function"
    },
    {
      "inputs": [
        {
          "internalType": "string",
          "name": "_URI",
          "type": "string"
        }
      ],
      "name": "setContractURI",
      "outputs": [],
      "stateMutability": "nonpayable",
      "type": "function"
    },
    {
      "inputs": [
        {
          "internalType": "uint256",
          "name": "_tokenId",
          "type": "uint256"
        },
        {
          "internalType": "uint256",
          "name": "_secondsUntilRedeem",
          "type": "uint256"
        }
      ],
      "name": "setLastTimeToRedeem",
      "outputs": [],
      "stateMutability": "nonpayable",
      "type": "function"
    },
    {
      "inputs": [
        {
          "internalType": "bool",
          "name": "_restrictedTransfer",
          "type": "bool"
        }
      ],
      "name": "setRestrictedTransfer",
      "outputs": [],
      "stateMutability": "nonpayable",
      "type": "function"
    },
    {
      "inputs": [
        {
          "internalType": "uint256",
          "name": "_royaltyBps",
          "type": "uint256"
        }
      ],
      "name": "setRoyaltyBps",
      "outputs": [],
      "stateMutability": "nonpayable",
      "type": "function"
    },
    {
      "inputs": [
        {
          "internalType": "bytes4",
          "name": "interfaceId",
          "type": "bytes4"
        }
      ],
      "name": "supportsInterface",
      "outputs": [
        {
          "internalType": "bool",
          "name": "",
          "type": "bool"
        }
      ],
      "stateMutability": "view",
      "type": "function"
    },
    {
      "inputs": [
        {
          "internalType": "uint256",
          "name": "",
          "type": "uint256"
        }
      ],
      "name": "tokenState",
      "outputs": [
        {
          "internalType": "address",
          "name": "creator",
          "type": "address"
        },
        {
          "internalType": "string",
          "name": "uri",
          "type": "string"
        },
        {
          "internalType": "bool",
          "name": "isRedeemable",
          "type": "bool"
        },
        {
          "internalType": "uint256",
          "name": "accessNftId",
          "type": "uint256"
        },
        {
          "internalType": "enum AccessNFT.UnderlyingType",
          "name": "underlyingType",
          "type": "uint8"
        }
      ],
      "stateMutability": "view",
      "type": "function"
    },
    {
      "inputs": [
        {
          "internalType": "uint256",
          "name": "_nftId",
          "type": "uint256"
        }
      ],
      "name": "tokenURI",
      "outputs": [
        {
          "internalType": "string",
          "name": "",
          "type": "string"
        }
      ],
      "stateMutability": "view",
      "type": "function"
    },
    {
      "inputs": [
        {
          "internalType": "uint256",
          "name": "id",
          "type": "uint256"
        }
      ],
      "name": "totalSupply",
      "outputs": [
        {
          "internalType": "uint256",
          "name": "",
          "type": "uint256"
        }
      ],
      "stateMutability": "view",
      "type": "function"
    },
    {
      "inputs": [],
      "name": "transfersRestricted",
      "outputs": [
        {
          "internalType": "bool",
          "name": "",
          "type": "bool"
        }
      ],
      "stateMutability": "view",
      "type": "function"
    },
    {
      "inputs": [],
      "name": "unpause",
      "outputs": [],
      "stateMutability": "nonpayable",
      "type": "function"
    },
    {
      "inputs": [
        {
          "internalType": "uint256",
          "name": "_nftId",
          "type": "uint256"
        }
      ],
      "name": "uri",
      "outputs": [
        {
          "internalType": "string",
          "name": "",
          "type": "string"
        }
      ],
      "stateMutability": "view",
      "type": "function"
    },
    {
      "inputs": [
        {
          "internalType": "address[]",
          "name": "_tokenContracts",
          "type": "address[]"
        },
        {
          "internalType": "uint256[]",
          "name": "_tokenAmounts",
          "type": "uint256[]"
        },
        {
          "internalType": "uint256[]",
          "name": "_numOfNftsToMint",
          "type": "uint256[]"
        },
        {
          "internalType": "string[]",
          "name": "_nftURIs",
          "type": "string[]"
        }
      ],
      "name": "wrapERC20",
      "outputs": [],
      "stateMutability": "nonpayable",
      "type": "function"
    },
    {
      "inputs": [
        {
          "internalType": "address[]",
          "name": "_nftContracts",
          "type": "address[]"
        },
        {
          "internalType": "uint256[]",
          "name": "_tokenIds",
          "type": "uint256[]"
        },
        {
          "internalType": "string[]",
          "name": "_nftURIs",
          "type": "string[]"
        }
      ],
      "name": "wrapERC721",
      "outputs": [],
      "stateMutability": "nonpayable",
      "type": "function"
    }
  ],
  "bytecode": "0x60806040523480156200001157600080fd5b506040516200658c3803806200658c833981016040819052620000349162000418565b82818062000042816200015b565b506005805460ff191690556200006360006200005d62000174565b62000191565b620000927f9f2df0fed2c77648de5860a4cc508cd0818c85b8b8a1ab4ceeef8d981c8956a66200005d62000174565b620000c17f65d7a28e3265b37a6474929f336521b332c1681b933f6cb9f3376673440d862a6200005d62000174565b50600780546001600160a01b03199081166001600160a01b03938416179091556008805490911691861691909117905580516200010690600c90602084019062000372565b50600980546001600160a01b0319166001600160a01b038416179055620001517f8502233096d909befbda0999bb8ea2f3a6be3c138b9fbf003752a4c8bce86f6c6200005d62000174565b5050505062000595565b80516200017090600490602084019062000372565b5050565b60006200018b620001d460201b6200283e1760201c565b90505b90565b620001a882826200021460201b6200286c1760201c565b6000828152600160209081526040909120620001cf9183906200287a62000220821b17901c565b505050565b6000620001e13362000240565b15620001f7575060131936013560601c6200018e565b6200020c6200025460201b6200288f1760201c565b90506200018e565b62000170828262000258565b600062000237836001600160a01b038416620002e2565b90505b92915050565b6007546001600160a01b0390811691161490565b3390565b62000264828262000331565b62000170576000828152602081815260408083206001600160a01b03851684529091529020805460ff191660011790556200029e62000174565b6001600160a01b0316816001600160a01b0316837f2f8788117e7eff1d82e926ec794901d17c78024a50270940304540a733656f0d60405160405180910390a45050565b6000620002f083836200035a565b62000328575081546001818101845560008481526020808220909301849055845484825282860190935260409020919091556200023a565b5060006200023a565b6000918252602082815260408084206001600160a01b0393909316845291905290205460ff1690565b60009081526001919091016020526040902054151590565b828054620003809062000529565b90600052602060002090601f016020900481019282620003a45760008555620003ef565b82601f10620003bf57805160ff1916838001178555620003ef565b82800160010185558215620003ef579182015b82811115620003ef578251825591602001919060010190620003d2565b50620003fd92915062000401565b5090565b5b80821115620003fd576000815560010162000402565b600080600080608085870312156200042e578384fd5b84516200043b816200057c565b8094505060208086015162000450816200057c565b604087015190945062000463816200057c565b60608701519093506001600160401b038082111562000480578384fd5b818801915088601f83011262000494578384fd5b815181811115620004a957620004a962000566565b604051601f8201601f1916810185018381118282101715620004cf57620004cf62000566565b60405281815283820185018b1015620004e6578586fd5b8592505b81831015620005095783830185015181840186015291840191620004ea565b818311156200051a57858583830101525b979a9699509497505050505050565b6002810460018216806200053e57607f821691505b602082108114156200056057634e487b7160e01b600052602260045260246000fd5b50919050565b634e487b7160e01b600052604160045260246000fd5b6001600160a01b03811681146200059257600080fd5b50565b615fe780620005a56000396000f3fe608060405234801561001057600080fd5b50600436106103405760003560e01c80638456cb59116101bd578063c87b56dd116100f9578063e63ab1e9116100a2578063f23a6e611161007c578063f23a6e6114610698578063f242432a146106ab578063f48cc326146106be578063f5298aca146106d157610340565b8063e63ab1e914610675578063e8a3d4851461067d578063e985e9c51461068557610340565b8063d5391393116100d3578063d539139314610652578063d547741f1461065a578063d9371ddd1461066d57610340565b8063c87b56dd146103a3578063ca15c8731461062c578063ca551b021461063f57610340565b80639f1d947711610166578063bc197c8111610140578063bc197c81146105f6578063bd85b03914610609578063c0e727401461061c578063c63adb2b1461062457610340565b80639f1d9477146105c8578063a217fddf146105db578063a22cb465146105e357610340565b806391d148541161019757806391d148541461057e578063938e3d7b146105915780639745cc3d146105a457610340565b80638456cb59146105435780638ba448c21461054b5780639010d07c1461055e57610340565b80632f2ff15d1161028c578063572b6c0511610235578063731133e91161020f578063731133e91461050d57806375794a3c1461052057806382b80fa8146105285780638423df791461053b57610340565b8063572b6c05146104df5780635c975abb146104f25780636b20c454146104fa57610340565b80633f4ba83a116102665780633f4ba83a146104a45780634487f6b4146104ac5780634e1273f4146104bf57610340565b80632f2ff15d1461046b5780632f4abf071461047e57806336568abe1461049157610340565b80631f72d831116102ee578063248a9ca3116102c8578063248a9ca3146104245780632a55205a146104375780632eb2c2d61461045857610340565b80631f72d831146103f65780631f7fdffa14610409578063206b60f91461041c57610340565b80630e89341c1161031f5780630e89341c146103a3578063150b7a02146103c357806317ffeba2146103e357610340565b8062fdd58e1461034557806301ffc9a71461036e5780630e4d7d471461038e575b600080fd5b610358610353366004614601565b6106e4565b6040516103659190614fa0565b60405180910390f35b61038161037c366004614ae0565b610740565b6040516103659190614f95565b6103a161039c36600461473a565b61076b565b005b6103b66103b1366004614a6b565b610abd565b6040516103659190614fd5565b6103d66103d1366004614405565b610b62565b6040516103659190614fc0565b6103586103f1366004614a6b565b610b72565b6103a1610404366004614a6b565b610b84565b6103a1610417366004614549565b610d90565b610358610e8a565b610358610432366004614a6b565b610eae565b61044a610445366004614abf565b610ec3565b604051610365929190614e94565b6103a161046636600461435b565b611003565b6103a1610479366004614a9b565b611061565b6103a161048c3660046146a9565b611088565b6103a161049f366004614a9b565b6113cb565b6103a16113ed565b6103a16104ba366004614abf565b61143f565b6104d26104cd3660046147ee565b61152c565b6040516103659190614ead565b6103816104ed3660046142eb565b61164c565b610381611660565b6103a16105083660046144d6565b61166a565b6103a161051b366004614660565b6116bf565b61035861173d565b6104d26105363660046148ae565b611743565b610381611dd5565b6103a1611dde565b6103a1610559366004614a33565b611e2e565b61057161056c366004614abf565b611f57565b6040516103659190614d47565b61038161058c366004614a9b565b611f76565b6103a161059f366004614b18565b611f9f565b6105b76105b2366004614a6b565b6120c1565b604051610365959493929190614e34565b6103a16105d6366004614a33565b612189565b6103586122e1565b6103a16105f13660046145d4565b6122e6565b6103d661060436600461435b565b6123b4565b610358610617366004614a6b565b6123c5565b6103b66123d7565b610358612465565b61035861063a366004614a6b565b61246b565b6103a161064d366004614abf565b612482565b610358612649565b6103a1610668366004614a9b565b61266d565b610381612677565b610358612685565b6103b66126a9565b610381610693366004614323565b61273b565b6103d66106a636600461446f565b612769565b6103a16106b936600461446f565b61277a565b6103816106cc366004614a6b565b6127d1565b6103a16106df36600461462c565b6127e9565b60006001600160a01b0383166107155760405162461bcd60e51b815260040161070c9061516b565b60405180910390fd5b5060008181526002602090815260408083206001600160a01b03861684529091529020545b92915050565b600061074b82612893565b8061073a57506001600160e01b0319821663152a902d60e11b1492915050565b600860009054906101000a90046001600160a01b03166001600160a01b0316639d2f83f06040518163ffffffff1660e01b815260040160206040518083038186803b1580156107b957600080fd5b505afa1580156107cd573d6000803e3d6000fd5b505050506040513d601f19601f820116820180604052508101906107f19190614a4f565b1561080e5760405162461bcd60e51b815260040161070c90615731565b61083a7f9f2df0fed2c77648de5860a4cc508cd0818c85b8b8a1ab4ceeef8d981c8956a661058c61289e565b6108565760405162461bcd60e51b815260040161070c906153dd565b600061086061289e565b600954600a5460405163381f4c4d60e21b815292935060009283926001600160a01b03169163e07d3134916108a6919087908e908e908e908e908e908e90600401615c6e565b600060405180830381600087803b1580156108c057600080fd5b505af11580156108d4573d6000803e3d6000fd5b505050506040513d6000823e601f3d908101601f191682016040526108fc91908101906149ee565b9150915080600a81905550610922838388604051806020016040528060008152506128ad565b60005b8251811015610ab1576040518060a00160405280856001600160a01b0316815260200187878481811061096857634e487b7160e01b600052603260045260246000fd5b905060200281019061097a9190615d2d565b8080601f01602080910402602001604051908101604052809392919081815260200183838082843760009201829052509385525050600160208401819052604084019290925250606090910190815250600e60008584815181106109ee57634e487b7160e01b600052603260045260246000fd5b602090810291909101810151825281810192909252604001600020825181546001600160a01b0319166001600160a01b039091161781558282015180519192610a3f92600185019290910190614024565b5060408201516002808301805492151560ff19938416179055606084015160038401556080840151600484018054919390929116906001908490811115610a9657634e487b7160e01b600052602160045260246000fd5b0217905550610aaa91506001905082615dc0565b9050610925565b50505050505050505050565b6000818152600e60205260409020600101805460609190610add90615e71565b80601f0160208091040260200160405190810160405280929190818152602001828054610b0990615e71565b8015610b565780601f10610b2b57610100808354040283529160200191610b56565b820191906000526020600020905b815481529060010190602001808311610b3957829003601f168201915b50505050509050919050565b630a85bd0160e11b949350505050565b600f6020526000908152604090205481565b6008546040805163a217fddf60e01b815290516001600160a01b03909216916391d1485491839163a217fddf91600480820192602092909190829003018186803b158015610bd157600080fd5b505afa158015610be5573d6000803e3d6000fd5b505050506040513d601f19601f82011682018060405250810190610c099190614a83565b610c1161289e565b6040518363ffffffff1660e01b8152600401610c2e929190614fa9565b60206040518083038186803b158015610c4657600080fd5b505afa158015610c5a573d6000803e3d6000fd5b505050506040513d601f19601f82011682018060405250810190610c7e9190614a4f565b610c9a5760405162461bcd60e51b815260040161070c90615269565b600860009054906101000a90046001600160a01b03166001600160a01b031663fd967f476040518163ffffffff1660e01b815260040160206040518083038186803b158015610ce857600080fd5b505afa158015610cfc573d6000803e3d6000fd5b505050506040513d601f19601f82011682018060405250810190610d209190614b58565b6fffffffffffffffffffffffffffffffff168110610d505760405162461bcd60e51b815260040161070c906158e7565b600b8190556040517f244ea8d7627f5a08f4299862bd5a45752842c183aee5b0fb0d1e4887bfa605b390610d85908390614fa0565b60405180910390a150565b60005b8351811015610e7757600a54848281518110610dbf57634e487b7160e01b600052603260045260246000fd5b602002602001015110610de45760405162461bcd60e51b815260040161070c9061510e565b6000600e6000868481518110610e0a57634e487b7160e01b600052603260045260246000fd5b60209081029190910181015182528101919091526040016000206004015460ff166002811115610e4a57634e487b7160e01b600052602160045260246000fd5b14610e675760405162461bcd60e51b815260040161070c906151c8565b610e7081615eac565b9050610d93565b50610e848484848461294c565b50505050565b7f8502233096d909befbda0999bb8ea2f3a6be3c138b9fbf003752a4c8bce86f6c81565b60009081526020819052604090206001015490565b60085460405163f2aab4b360e01b815260009182916001600160a01b039091169063f2aab4b390610ef8903090600401614d47565b60206040518083038186803b158015610f1057600080fd5b505afa158015610f24573d6000803e3d6000fd5b505050506040513d601f19601f82011682018060405250810190610f489190614307565b9150600860009054906101000a90046001600160a01b03166001600160a01b031663fd967f476040518163ffffffff1660e01b815260040160206040518083038186803b158015610f9857600080fd5b505afa158015610fac573d6000803e3d6000fd5b505050506040513d601f19601f82011682018060405250810190610fd09190614b58565b6fffffffffffffffffffffffffffffffff16600b5484610ff09190615df8565b610ffa9190615dd8565b90509250929050565b61100b61289e565b6001600160a01b0316856001600160a01b0316148061103157506110318561069361289e565b61104d5760405162461bcd60e51b815260040161070c9061551d565b61105a85858585856129a0565b5050505050565b61106b8282612b74565b6000828152600160205260409020611083908261287a565b505050565b600860009054906101000a90046001600160a01b03166001600160a01b0316639d2f83f06040518163ffffffff1660e01b815260040160206040518083038186803b1580156110d657600080fd5b505afa1580156110ea573d6000803e3d6000fd5b505050506040513d601f19601f8201168201806040525081019061110e9190614a4f565b1561112b5760405162461bcd60e51b815260040161070c90615731565b6111577f9f2df0fed2c77648de5860a4cc508cd0818c85b8b8a1ab4ceeef8d981c8956a661058c61289e565b6111735760405162461bcd60e51b815260040161070c906153dd565b600061117d61289e565b600954600a5460405163608a17b160e11b8152929350600092839283926001600160a01b039091169163c1142f62916111c49188908e908e908e908e908e90600401615c10565b600060405180830381600087803b1580156111de57600080fd5b505af11580156111f2573d6000803e3d6000fd5b505050506040513d6000823e601f3d908101601f1916820160405261121a9190810190614984565b92509250925080600a81905550611242848484604051806020016040528060008152506128ad565b60005b8351811015610ab1576040518060a00160405280866001600160a01b0316815260200188888481811061128857634e487b7160e01b600052603260045260246000fd5b905060200281019061129a9190615d2d565b8080601f01602080910402602001604051908101604052809392919081815260200183838082843760009201829052509385525050600160208401525060408201526060016002815250600e600086848151811061130857634e487b7160e01b600052603260045260246000fd5b602090810291909101810151825281810192909252604001600020825181546001600160a01b0319166001600160a01b03909116178155828201518051919261135992600185019290910190614024565b5060408201516002808301805492151560ff199384161790556060840151600384015560808401516004840180549193909291169060019084908111156113b057634e487b7160e01b600052602160045260246000fd5b02179055506113c491506001905082615dc0565b9050611245565b6113d58282612b98565b60008281526001602052604090206110839082612bda565b6114197f65d7a28e3265b37a6474929f336521b332c1681b933f6cb9f3376673440d862a61058c61289e565b6114355760405162461bcd60e51b815260040161070c90615944565b61143d612bef565b565b6000828152600e60205260409020546001600160a01b031661145f61289e565b6001600160a01b0316146114855760405162461bcd60e51b815260040161070c906159a1565b6000828152600e602052604090206002015460ff16156114b75760405162461bcd60e51b815260040161070c9061582d565b600081156114ce576114c98242615dc0565b6114d2565b6000195b6000848152600f6020526040902081905590507ff01057f3c55599179571189c7758b5ce72994adea5a8dc33095fdc8fdff071198361150f61289e565b8360405161151f93929190615ce1565b60405180910390a1505050565b6060815183511461154f5760405162461bcd60e51b815260040161070c90615ab8565b6000835167ffffffffffffffff81111561157957634e487b7160e01b600052604160045260246000fd5b6040519080825280602002602001820160405280156115a2578160200160208202803683370190505b50905060005b8451811015611644576116098582815181106115d457634e487b7160e01b600052603260045260246000fd5b60200260200101518583815181106115fc57634e487b7160e01b600052603260045260246000fd5b60200260200101516106e4565b82828151811061162957634e487b7160e01b600052603260045260246000fd5b602090810291909101015261163d81615eac565b90506115a8565b509392505050565b6007546001600160a01b0390811691161490565b60055460ff165b90565b61167261289e565b6001600160a01b0316836001600160a01b0316148061169857506116988361069361289e565b6116b45760405162461bcd60e51b815260040161070c90615323565b611083838383612c5d565b600a5483106116e05760405162461bcd60e51b815260040161070c9061510e565b6000838152600e602052604081206004015460ff16600281111561171457634e487b7160e01b600052602160045260246000fd5b146117315760405162461bcd60e51b815260040161070c906151c8565b610e8484848484612cfb565b600a5481565b600854604080516309d2f83f60e41b815290516060926001600160a01b031691639d2f83f0916004808301926020929190829003018186803b15801561178857600080fd5b505afa15801561179c573d6000803e3d6000fd5b505050506040513d601f19601f820116820180604052508101906117c09190614a4f565b156117dd5760405162461bcd60e51b815260040161070c90615731565b6118097f9f2df0fed2c77648de5860a4cc508cd0818c85b8b8a1ab4ceeef8d981c8956a661058c61289e565b6118255760405162461bcd60e51b815260040161070c906153dd565b888514801561183357508887145b61184f5760405162461bcd60e51b815260040161070c9061588a565b8861186c5760405162461bcd60e51b815260040161070c9061547b565b8867ffffffffffffffff81111561189357634e487b7160e01b600052604160045260246000fd5b6040519080825280602002602001820160405280156118bc578160200160208202803683370190505b50905060008967ffffffffffffffff8111156118e857634e487b7160e01b600052604160045260246000fd5b604051908082528060200260200182016040528015611911578160200160208202803683370190505b50600a5490915060005b8b811015611c40578183828151811061194457634e487b7160e01b600052603260045260246000fd5b6020026020010181815250506040518060a0016040528061196361289e565b6001600160a01b031681526020018c8c8481811061199157634e487b7160e01b600052603260045260246000fd5b90506020028101906119a39190615d2d565b8080601f016020809104026020016040519081016040528093929190818152602001838380828437600092018290525093855250505060208201819052604082018190526060909101526000838152600e60209081526040909120825181546001600160a01b0319166001600160a01b039091161781558282015180519192611a3492600185019290910190614024565b5060408201516002808301805492151560ff19938416179055606084015160038401556080840151600484018054919390929116906001908490811115611a8b57634e487b7160e01b600052602160045260246000fd5b0217905550611a9f91506001905083615dc0565b915081848281518110611ac257634e487b7160e01b600052603260045260246000fd5b6020026020010181815250506040518060a00160405280611ae161289e565b6001600160a01b031681526020018e8e84818110611b0f57634e487b7160e01b600052603260045260246000fd5b9050602002810190611b219190615d2d565b8080601f016020809104026020016040519081016040528093929190818152602001838380828437600092019190915250505090825250600160208201819052604090910190611b719085615e17565b8152602001600090526000838152600e60209081526040909120825181546001600160a01b0319166001600160a01b039091161781558282015180519192611bc192600185019290910190614024565b5060408201516002808301805492151560ff19938416179055606084015160038401556080840151600484018054919390929116906001908490811115611c1857634e487b7160e01b600052602160045260246000fd5b0217905550611c2c91506001905083615dc0565b915080611c3881615eac565b91505061191b565b5080600a81905550611c9430838a8a808060200260200160405190810160405280939291908181526020018383602002808284376000920182905250604080516020810190915290815292506128ad915050565b611ce7611c9f61289e565b848a8a808060200260200160405190810160405280939291908181526020018383602002808284376000920182905250604080516020810190915290815292506128ad915050565b611cef61289e565b6001600160a01b03167fe309c6cae6e35dcc6c2f37d5da32b19e0346074be56b9722cdf852d20fced6ee848e8e868f8f8f8f604051611d35989796959493929190614ec0565b60405180910390a26001600160a01b03861615611dc657611dc6611d5761289e565b87858b8b8080602002602001604051908101604052809392919081815260200183836020028082843760009201919091525050604080516020601f8e018190048102820181019092528c815292508c91508b908190840183828082843760009201919091525061100392505050565b50509998505050505050505050565b600d5460ff1681565b611e0a7f65d7a28e3265b37a6474929f336521b332c1681b933f6cb9f3376673440d862a61058c61289e565b611e265760405162461bcd60e51b815260040161070c906159fe565b61143d612d4f565b6008546040805163a217fddf60e01b815290516001600160a01b03909216916391d1485491839163a217fddf91600480820192602092909190829003018186803b158015611e7b57600080fd5b505afa158015611e8f573d6000803e3d6000fd5b505050506040513d601f19601f82011682018060405250810190611eb39190614a83565b611ebb61289e565b6040518363ffffffff1660e01b8152600401611ed8929190614fa9565b60206040518083038186803b158015611ef057600080fd5b505afa158015611f04573d6000803e3d6000fd5b505050506040513d601f19601f82011682018060405250810190611f289190614a4f565b611f445760405162461bcd60e51b815260040161070c90615269565b600d805460ff1916911515919091179055565b6000828152600160205260408120611f6f9083612daa565b9392505050565b6000918252602082815260408084206001600160a01b0393909316845291905290205460ff1690565b6008546040805163a217fddf60e01b815290516001600160a01b03909216916391d1485491839163a217fddf91600480820192602092909190829003018186803b158015611fec57600080fd5b505afa158015612000573d6000803e3d6000fd5b505050506040513d601f19601f820116820180604052508101906120249190614a83565b61202c61289e565b6040518363ffffffff1660e01b8152600401612049929190614fa9565b60206040518083038186803b15801561206157600080fd5b505afa158015612075573d6000803e3d6000fd5b505050506040513d601f19601f820116820180604052508101906120999190614a4f565b6120b55760405162461bcd60e51b815260040161070c90615269565b611083600c83836140a8565b600e60205260009081526040902080546001820180546001600160a01b0390921692916120ed90615e71565b80601f016020809104026020016040519081016040528092919081815260200182805461211990615e71565b80156121665780601f1061213b57610100808354040283529160200191612166565b820191906000526020600020905b81548152906001019060200180831161214957829003601f168201915b5050505060028301546003840154600490940154929360ff918216939092501685565b6008546040805163a217fddf60e01b815290516001600160a01b03909216916391d1485491839163a217fddf91600480820192602092909190829003018186803b1580156121d657600080fd5b505afa1580156121ea573d6000803e3d6000fd5b505050506040513d601f19601f8201168201806040525081019061220e9190614a83565b61221661289e565b6040518363ffffffff1660e01b8152600401612233929190614fa9565b60206040518083038186803b15801561224b57600080fd5b505afa15801561225f573d6000803e3d6000fd5b505050506040513d601f19601f820116820180604052508101906122839190614a4f565b61229f5760405162461bcd60e51b815260040161070c90615269565b600d805461ff001916610100831515021790556040517e4701906729f069b76305c2c6a0bfa1d4ba4ff97d08206c8716078bf7a5e02790610d85908390614f95565b600081565b816001600160a01b03166122f861289e565b6001600160a01b0316141561231f5760405162461bcd60e51b815260040161070c90615a5b565b806003600061232c61289e565b6001600160a01b03908116825260208083019390935260409182016000908120918716808252919093529120805460ff19169215159290921790915561237061289e565b6001600160a01b03167f17307eab39ab6107e8899845ad3d59bd9653f200f220920489ca2b5937696c31836040516123a89190614f95565b60405180910390a35050565b63bc197c8160e01b95945050505050565b60009081526006602052604090205490565b600c80546123e490615e71565b80601f016020809104026020016040519081016040528092919081815260200182805461241090615e71565b801561245d5780601f106124325761010080835404028352916020019161245d565b820191906000526020600020905b81548152906001019060200180831161244057829003601f168201915b505050505081565b600b5481565b600081815260016020526040812061073a90612db6565b600860009054906101000a90046001600160a01b03166001600160a01b0316639d2f83f06040518163ffffffff1660e01b815260040160206040518083038186803b1580156124d057600080fd5b505afa1580156124e4573d6000803e3d6000fd5b505050506040513d601f19601f820116820180604052508101906125089190614a4f565b156125255760405162461bcd60e51b815260040161070c90615731565b600061252f61289e565b6000848152600e602052604090206002015490915060ff166125635760405162461bcd60e51b815260040161070c906157d0565b8161256e82856106e4565b1015801561257c5750600082115b6125985760405162461bcd60e51b815260040161070c90615380565b6000838152600e602052604081206004015460ff16908160028111156125ce57634e487b7160e01b600052602160045260246000fd5b14156125e4576125df848484612dc1565b610e84565b600181600281111561260657634e487b7160e01b600052602160045260246000fd5b1415612617576125df848484612ece565b600281600281111561263957634e487b7160e01b600052602160045260246000fd5b1415610e8457610e848483612f44565b7f9f2df0fed2c77648de5860a4cc508cd0818c85b8b8a1ab4ceeef8d981c8956a681565b6113d58282612fb0565b600d54610100900460ff1681565b7f65d7a28e3265b37a6474929f336521b332c1681b933f6cb9f3376673440d862a81565b6060600c80546126b890615e71565b80601f01602080910402602001604051908101604052809291908181526020018280546126e490615e71565b80156127315780601f1061270657610100808354040283529160200191612731565b820191906000526020600020905b81548152906001019060200180831161271457829003601f168201915b5050505050905090565b6001600160a01b03918216600090815260036020908152604080832093909416825291909152205460ff1690565b63f23a6e6160e01b95945050505050565b61278261289e565b6001600160a01b0316856001600160a01b031614806127a857506127a88561069361289e565b6127c45760405162461bcd60e51b815260040161070c90615323565b61105a8585858585612fcf565b6000908152600e602052604090206002015460ff1690565b6127f161289e565b6001600160a01b0316836001600160a01b0316148061281757506128178361069361289e565b6128335760405162461bcd60e51b815260040161070c90615323565b61108383838361310d565b60006128493361164c565b1561285d575060131936013560601c611667565b61286561288f565b9050611667565b6128768282613140565b5050565b6000611f6f836001600160a01b0384166131c5565b3390565b600061073a8261320f565b60006128a861283e565b905090565b6128b984848484613234565b60005b835181101561105a578281815181106128e557634e487b7160e01b600052603260045260246000fd5b60200260200101516006600086848151811061291157634e487b7160e01b600052603260045260246000fd5b6020026020010151815260200190815260200160002060008282546129369190615dc0565b90915550612945905081615eac565b90506128bc565b6129787f9f2df0fed2c77648de5860a4cc508cd0818c85b8b8a1ab4ceeef8d981c8956a661058c61289e565b6129945760405162461bcd60e51b815260040161070c9061561a565b610e84848484846128ad565b81518351146129c15760405162461bcd60e51b815260040161070c90615b15565b6001600160a01b0384166129e75760405162461bcd60e51b815260040161070c906154d8565b60006129f161289e565b9050612a018187878787876133b6565b60005b8451811015612b06576000858281518110612a2f57634e487b7160e01b600052603260045260246000fd5b602002602001015190506000858381518110612a5b57634e487b7160e01b600052603260045260246000fd5b60209081029190910181015160008481526002835260408082206001600160a01b038e168352909352919091205490915081811015612aac5760405162461bcd60e51b815260040161070c90615677565b60008381526002602090815260408083206001600160a01b038e8116855292528083208585039055908b16825281208054849290612aeb908490615dc0565b9250508190555050505080612aff90615eac565b9050612a04565b50846001600160a01b0316866001600160a01b0316826001600160a01b03167f4a39dc06d4c0dbc64b70af90fd698a233a518aa5d07e595d983b8c0526c8f7fb8787604051612b56929190614f67565b60405180910390a4612b6c818787878787613524565b505050505050565b612b7d82610eae565b612b8e81612b8961289e565b613632565b6110838383613140565b612ba061289e565b6001600160a01b0316816001600160a01b031614612bd05760405162461bcd60e51b815260040161070c90615bb3565b6128768282613696565b6000611f6f836001600160a01b038416613719565b612bf7611660565b612c135760405162461bcd60e51b815260040161070c906150d7565b6005805460ff191690557f5db9ee0a495bf2e6ff9c91a7834c1ba4fdd244a5e8aa4e537bd38aeae4b073aa612c4661289e565b604051612c539190614d47565b60405180910390a1565b612c68838383613836565b60005b8251811015610e8457818181518110612c9457634e487b7160e01b600052603260045260246000fd5b602002602001015160066000858481518110612cc057634e487b7160e01b600052603260045260246000fd5b602002602001015181526020019081526020016000206000828254612ce59190615e17565b90915550612cf4905081615eac565b9050612c6b565b612d277f9f2df0fed2c77648de5860a4cc508cd0818c85b8b8a1ab4ceeef8d981c8956a661058c61289e565b612d435760405162461bcd60e51b815260040161070c9061561a565b610e84848484846139dc565b612d57611660565b15612d745760405162461bcd60e51b815260040161070c90615444565b6005805460ff191660011790557f62e78cea01bee320cd4e420270b5ea74000d11b0c9f74754ebdbfc544b05a258612c4661289e565b6000611f6f8383613a11565b600061073a82613a49565b612dd3612dcc61289e565b84846127e9565b6000838152600e6020908152604080832060030154808452600f9092529091205442111580612e0e57506000818152600f6020526040902054155b612e2a5760405162461bcd60e51b815260040161070c90615773565b604051637921219560e11b8152309063f242432a90612e53908390869086908990600401614dfc565b600060405180830381600087803b158015612e6d57600080fd5b505af1158015612e81573d6000803e3d6000fd5b505050508084836001600160a01b03167fa70022dc131dbd0be52c08bf87947e36b3e7d4934dce1efecf2d261c381d101786604051612ec09190614fa0565b60405180910390a450505050565b612ed981848461310d565b60095460405163f93bc78b60e01b81526001600160a01b039091169063f93bc78b90612f0d90869086908690600401615d0e565b600060405180830381600087803b158015612f2757600080fd5b505af1158015612f3b573d6000803e3d6000fd5b50505050505050565b612f508183600161310d565b600954604051635726a91b60e11b81526001600160a01b039091169063ae4d523690612f829085908590600401614fa9565b600060405180830381600087803b158015612f9c57600080fd5b505af1158015612b6c573d6000803e3d6000fd5b612fb982610eae565b612fc581612b8961289e565b6110838383613696565b6001600160a01b038416612ff55760405162461bcd60e51b815260040161070c906154d8565b6000612fff61289e565b905061301f81878761301088613a4d565b61301988613a4d565b876133b6565b60008481526002602090815260408083206001600160a01b038a168452909152902054838110156130625760405162461bcd60e51b815260040161070c90615677565b60008581526002602090815260408083206001600160a01b038b81168552925280832087850390559088168252812080548692906130a1908490615dc0565b92505081905550856001600160a01b0316876001600160a01b0316836001600160a01b03167fc3d58168c5ae7397731d063d5bbf3d657854427343f4c083240f7aacaa2d0f6288886040516130f7929190615d00565b60405180910390a4612f3b828888888888613aa6565b613118838383613b77565b60008281526006602052604081208054839290613136908490615e17565b9091555050505050565b61314a8282611f76565b612876576000828152602081815260408083206001600160a01b03851684529091529020805460ff1916600117905561318161289e565b6001600160a01b0316816001600160a01b0316837f2f8788117e7eff1d82e926ec794901d17c78024a50270940304540a733656f0d60405160405180910390a45050565b60006131d18383613c8a565b6132075750815460018181018455600084815260208082209093018490558454848252828601909352604090209190915561073a565b50600061073a565b60006001600160e01b03198216630271189760e51b148061073a575061073a82613ca2565b6001600160a01b03841661325a5760405162461bcd60e51b815260040161070c90615b72565b815183511461327b5760405162461bcd60e51b815260040161070c90615b15565b600061328561289e565b9050613296816000878787876133b6565b60005b845181101561334e578381815181106132c257634e487b7160e01b600052603260045260246000fd5b6020026020010151600260008784815181106132ee57634e487b7160e01b600052603260045260246000fd5b602002602001015181526020019081526020016000206000886001600160a01b03166001600160a01b0316815260200190815260200160002060008282546133369190615dc0565b9091555081905061334681615eac565b915050613299565b50846001600160a01b031660006001600160a01b0316826001600160a01b03167f4a39dc06d4c0dbc64b70af90fd698a233a518aa5d07e595d983b8c0526c8f7fb878760405161339f929190614f67565b60405180910390a461105a81600087878787613524565b6133c4868686868686613ce2565b600d5460ff1680156133de57506001600160a01b03851615155b80156133f257506001600160a01b03841615155b1561346d576134217f8502233096d909befbda0999bb8ea2f3a6be3c138b9fbf003752a4c8bce86f6c86611f76565b8061345157506134517f8502233096d909befbda0999bb8ea2f3a6be3c138b9fbf003752a4c8bce86f6c85611f76565b61346d5760405162461bcd60e51b815260040161070c906156d4565b60005b8351811015612f3b57600e600085838151811061349d57634e487b7160e01b600052603260045260246000fd5b60209081029190910181015182528101919091526040016000206002015460ff161580156134d35750600d54610100900460ff16155b15613512576001600160a01b03861615806134f657506001600160a01b03861630145b6135125760405162461bcd60e51b815260040161070c9061557a565b8061351c81615eac565b915050613470565b613536846001600160a01b0316613cf0565b15612b6c5760405163bc197c8160e01b81526001600160a01b0385169063bc197c819061356f9089908990889088908890600401614d5b565b602060405180830381600087803b15801561358957600080fd5b505af19250505080156135b9575060408051601f3d908101601f191682019092526135b691810190614afc565b60015b613602576135c5615ef9565b806135d057506135ea565b8060405162461bcd60e51b815260040161070c9190614fd5565b60405162461bcd60e51b815260040161070c90614fe8565b6001600160e01b0319811663bc197c8160e01b14612f3b5760405162461bcd60e51b815260040161070c9061507a565b61363c8282611f76565b61287657613654816001600160a01b03166014613cf6565b61365f836020613cf6565b604051602001613670929190614cc6565b60408051601f198184030181529082905262461bcd60e51b825261070c91600401614fd5565b6136a08282611f76565b15612876576000828152602081815260408083206001600160a01b03851684529091529020805460ff191690556136d561289e565b6001600160a01b0316816001600160a01b0316837ff6391f5c32d9c69d2a47ea670b442974b53935d1edc7fd64eb21e047a839171b60405160405180910390a45050565b6000818152600183016020526040812054801561382c57600061373d600183615e17565b855490915060009061375190600190615e17565b90508181146137d257600086600001828154811061377f57634e487b7160e01b600052603260045260246000fd5b90600052602060002001549050808760000184815481106137b057634e487b7160e01b600052603260045260246000fd5b6000918252602080832090910192909255918252600188019052604090208390555b85548690806137f157634e487b7160e01b600052603160045260246000fd5b60019003818190600052602060002001600090559055856001016000868152602001908152602001600020600090556001935050505061073a565b600091505061073a565b6001600160a01b03831661385c5760405162461bcd60e51b815260040161070c906155d7565b805182511461387d5760405162461bcd60e51b815260040161070c90615b15565b600061388761289e565b90506138a7818560008686604051806020016040528060008152506133b6565b60005b835181101561398b5760008482815181106138d557634e487b7160e01b600052603260045260246000fd5b60200260200101519050600084838151811061390157634e487b7160e01b600052603260045260246000fd5b60209081029190910181015160008481526002835260408082206001600160a01b038c1683529093529190912054909150818110156139525760405162461bcd60e51b815260040161070c90615225565b60009283526002602090815260408085206001600160a01b038b168652909152909220910390558061398381615eac565b9150506138aa565b5060006001600160a01b0316846001600160a01b0316826001600160a01b03167f4a39dc06d4c0dbc64b70af90fd698a233a518aa5d07e595d983b8c0526c8f7fb8686604051612ec0929190614f67565b6139e884848484613eb5565b60008381526006602052604081208054849290613a06908490615dc0565b909155505050505050565b6000826000018281548110613a3657634e487b7160e01b600052603260045260246000fd5b9060005260206000200154905092915050565b5490565b60408051600180825281830190925260609160009190602080830190803683370190505090508281600081518110613a9557634e487b7160e01b600052603260045260246000fd5b602090810291909101015292915050565b613ab8846001600160a01b0316613cf0565b15612b6c5760405163f23a6e6160e01b81526001600160a01b0385169063f23a6e6190613af19089908990889088908890600401614db9565b602060405180830381600087803b158015613b0b57600080fd5b505af1925050508015613b3b575060408051601f3d908101601f19168201909252613b3891810190614afc565b60015b613b47576135c5615ef9565b6001600160e01b0319811663f23a6e6160e01b14612f3b5760405162461bcd60e51b815260040161070c9061507a565b6001600160a01b038316613b9d5760405162461bcd60e51b815260040161070c906155d7565b6000613ba761289e565b9050613bd781856000613bb987613a4d565b613bc287613a4d565b604051806020016040528060008152506133b6565b60008381526002602090815260408083206001600160a01b038816845290915290205482811015613c1a5760405162461bcd60e51b815260040161070c90615225565b60008481526002602090815260408083206001600160a01b03808a16808652919093528184208786039055905190918516907fc3d58168c5ae7397731d063d5bbf3d657854427343f4c083240f7aacaa2d0f6290613c7b9089908990615d00565b60405180910390a45050505050565b60009081526001919091016020526040902054151590565b60006001600160e01b03198216636cdb3d1360e11b1480613cd357506001600160e01b031982166303a24d0760e21b145b8061073a575061073a82613f97565b612b6c868686868686613fbc565b3b151590565b60606000613d05836002615df8565b613d10906002615dc0565b67ffffffffffffffff811115613d3657634e487b7160e01b600052604160045260246000fd5b6040519080825280601f01601f191660200182016040528015613d60576020820181803683370190505b509050600360fc1b81600081518110613d8957634e487b7160e01b600052603260045260246000fd5b60200101906001600160f81b031916908160001a905350600f60fb1b81600181518110613dc657634e487b7160e01b600052603260045260246000fd5b60200101906001600160f81b031916908160001a9053506000613dea846002615df8565b613df5906001615dc0565b90505b6001811115613e96577f303132333435363738396162636465660000000000000000000000000000000085600f1660108110613e4457634e487b7160e01b600052603260045260246000fd5b1a60f81b828281518110613e6857634e487b7160e01b600052603260045260246000fd5b60200101906001600160f81b031916908160001a90535060049490941c93613e8f81615e5a565b9050613df8565b508315611f6f5760405162461bcd60e51b815260040161070c90615045565b6001600160a01b038416613edb5760405162461bcd60e51b815260040161070c90615b72565b6000613ee561289e565b9050613ef78160008761301088613a4d565b60008481526002602090815260408083206001600160a01b038916845290915281208054859290613f29908490615dc0565b92505081905550846001600160a01b031660006001600160a01b0316826001600160a01b03167fc3d58168c5ae7397731d063d5bbf3d657854427343f4c083240f7aacaa2d0f628787604051613f80929190615d00565b60405180910390a461105a81600087878787613aa6565b60006001600160e01b03198216635a05180f60e01b148061073a575061073a82613fef565b613fca868686868686612b6c565b613fd2611660565b15612b6c5760405162461bcd60e51b815260040161070c906152c6565b60006001600160e01b03198216637965db0b60e01b148061073a57506301ffc9a760e01b6001600160e01b031983161461073a565b82805461403090615e71565b90600052602060002090601f0160209004810192826140525760008555614098565b82601f1061406b57805160ff1916838001178555614098565b82800160010185558215614098579182015b8281111561409857825182559160200191906001019061407d565b506140a492915061411c565b5090565b8280546140b490615e71565b90600052602060002090601f0160209004810192826140d65760008555614098565b82601f106140ef5782800160ff19823516178555614098565b82800160010185558215614098579182015b82811115614098578235825591602001919060010190614101565b5b808211156140a4576000815560010161411d565b60008083601f840112614142578182fd5b50813567ffffffffffffffff811115614159578182fd5b602083019150836020808302850101111561417357600080fd5b9250929050565b600082601f83011261418a578081fd5b8135602061419f61419a83615d9c565b615d72565b82815281810190858301838502870184018810156141bb578586fd5b855b858110156141d9578135845292840192908401906001016141bd565b5090979650505050505050565b600082601f8301126141f6578081fd5b8151602061420661419a83615d9c565b8281528181019085830183850287018401881015614222578586fd5b855b858110156141d957815184529284019290840190600101614224565b60008083601f840112614251578182fd5b50813567ffffffffffffffff811115614268578182fd5b60208301915083602082850101111561417357600080fd5b600082601f830112614290578081fd5b813567ffffffffffffffff8111156142aa576142aa615edd565b6142bd601f8201601f1916602001615d72565b8181528460208386010111156142d1578283fd5b816020850160208301379081016020019190915292915050565b6000602082840312156142fc578081fd5b8135611f6f81615f9e565b600060208284031215614318578081fd5b8151611f6f81615f9e565b60008060408385031215614335578081fd5b823561434081615f9e565b9150602083013561435081615f9e565b809150509250929050565b600080600080600060a08688031215614372578081fd5b853561437d81615f9e565b9450602086013561438d81615f9e565b9350604086013567ffffffffffffffff808211156143a9578283fd5b6143b589838a0161417a565b945060608801359150808211156143ca578283fd5b6143d689838a0161417a565b935060808801359150808211156143eb578283fd5b506143f888828901614280565b9150509295509295909350565b6000806000806080858703121561441a578182fd5b843561442581615f9e565b9350602085013561443581615f9e565b925060408501359150606085013567ffffffffffffffff811115614457578182fd5b61446387828801614280565b91505092959194509250565b600080600080600060a08688031215614486578283fd5b853561449181615f9e565b945060208601356144a181615f9e565b93506040860135925060608601359150608086013567ffffffffffffffff8111156144ca578182fd5b6143f888828901614280565b6000806000606084860312156144ea578081fd5b83356144f581615f9e565b9250602084013567ffffffffffffffff80821115614511578283fd5b61451d8783880161417a565b93506040860135915080821115614532578283fd5b5061453f8682870161417a565b9150509250925092565b6000806000806080858703121561455e578182fd5b843561456981615f9e565b9350602085013567ffffffffffffffff80821115614585578384fd5b6145918883890161417a565b945060408701359150808211156145a6578384fd5b6145b28883890161417a565b935060608701359150808211156145c7578283fd5b5061446387828801614280565b600080604083850312156145e6578182fd5b82356145f181615f9e565b9150602083013561435081615fb6565b60008060408385031215614613578182fd5b823561461e81615f9e565b946020939093013593505050565b600080600060608486031215614640578081fd5b833561464b81615f9e565b95602085013595506040909401359392505050565b60008060008060808587031215614675578182fd5b843561468081615f9e565b93506020850135925060408501359150606085013567ffffffffffffffff811115614457578182fd5b6000806000806000606086880312156146c0578283fd5b853567ffffffffffffffff808211156146d7578485fd5b6146e389838a01614131565b909750955060208801359150808211156146fb578485fd5b61470789838a0161417a565b9450604088013591508082111561471c578283fd5b5061472988828901614131565b969995985093965092949392505050565b60008060008060008060808789031215614752578384fd5b863567ffffffffffffffff80821115614769578586fd5b6147758a838b01614131565b9098509650602089013591508082111561478d578586fd5b6147998a838b0161417a565b955060408901359150808211156147ae578283fd5b6147ba8a838b0161417a565b945060608901359150808211156147cf578283fd5b506147dc89828a01614131565b979a9699509497509295939492505050565b60008060408385031215614800578182fd5b823567ffffffffffffffff80821115614817578384fd5b818501915085601f83011261482a578384fd5b8135602061483a61419a83615d9c565b82815281810190858301838502870184018b1015614856578889fd5b8896505b8487101561488157803561486d81615f9e565b83526001969096019591830191830161485a565b5096505086013592505080821115614897578283fd5b506148a48582860161417a565b9150509250929050565b600080600080600080600080600060a08a8c0312156148cb578687fd5b893567ffffffffffffffff808211156148e2578889fd5b6148ee8d838e01614131565b909b50995060208c0135915080821115614906578889fd5b6149128d838e01614131565b909950975060408c013591508082111561492a578485fd5b6149368d838e01614131565b909750955060608c0135915061494b82615f9e565b90935060808b01359080821115614960578384fd5b5061496d8c828d01614240565b915080935050809150509295985092959850929598565b600080600060608486031215614998578081fd5b835167ffffffffffffffff808211156149af578283fd5b6149bb878388016141e6565b945060208601519150808211156149d0578283fd5b506149dd868287016141e6565b925050604084015190509250925092565b60008060408385031215614a00578182fd5b825167ffffffffffffffff811115614a16578283fd5b614a22858286016141e6565b925050602083015190509250929050565b600060208284031215614a44578081fd5b8135611f6f81615fb6565b600060208284031215614a60578081fd5b8151611f6f81615fb6565b600060208284031215614a7c578081fd5b5035919050565b600060208284031215614a94578081fd5b5051919050565b60008060408385031215614aad578182fd5b82359150602083013561435081615f9e565b60008060408385031215614ad1578182fd5b50508035926020909101359150565b600060208284031215614af1578081fd5b8135611f6f81615fc4565b600060208284031215614b0d578081fd5b8151611f6f81615fc4565b60008060208385031215614b2a578182fd5b823567ffffffffffffffff811115614b40578283fd5b614b4c85828601614240565b90969095509350505050565b600060208284031215614b69578081fd5b81516fffffffffffffffffffffffffffffffff81168114611f6f578182fd5b60008284526020808501945082825b85811015614bc5578135614baa81615f9e565b6001600160a01b031687529582019590820190600101614b97565b509495945050505050565b818352602080840193600091908185020181018584845b87811015614c5e5782840389528135601e19883603018112614c07578687fd5b8701803567ffffffffffffffff811115614c1f578788fd5b803603891315614c2d578788fd5b8086528087830188880137858101870188905299860199601f01601f19169094018501935090840190600101614be7565b5091979650505050505050565b6000815180845260208085019450808401835b83811015614bc557815187529582019590820190600101614c7e565b60008151808452614cb2816020860160208601615e2e565b601f01601f19169290920160200192915050565b60007f416363657373436f6e74726f6c3a206163636f756e742000000000000000000082528351614cfe816017850160208801615e2e565b7f206973206d697373696e6720726f6c65200000000000000000000000000000006017918401918201528351614d3b816028840160208801615e2e565b01602801949350505050565b6001600160a01b0391909116815260200190565b60006001600160a01b03808816835280871660208401525060a06040830152614d8760a0830186614c6b565b8281036060840152614d998186614c6b565b90508281036080840152614dad8185614c9a565b98975050505050505050565b60006001600160a01b03808816835280871660208401525084604083015283606083015260a06080830152614df160a0830184614c9a565b979650505050505050565b6001600160a01b0394851681529290931660208301526040820152606081019190915260a06080820181905260009082015260c00190565b60006001600160a01b038716825260a06020830152614e5660a0830187614c9a565b9050841515604083015283606083015260038310614e8457634e487b7160e01b600052602160045260246000fd5b8260808301529695505050505050565b6001600160a01b03929092168252602082015260400190565b600060208252611f6f6020830184614c6b565b600060a08252614ed360a083018b614c6b565b8281036020840152614ee6818a8c614bd0565b90508281036040840152614efa8189614c6b565b90508281036060840152614f0f818789614bd0565b905082810360808401528381527f07ffffffffffffffffffffffffffffffffffffffffffffffffffffffffffffff841115614f48578182fd5b6020840280866020840137016020019081529998505050505050505050565b600060408252614f7a6040830185614c6b565b8281036020840152614f8c8185614c6b565b95945050505050565b901515815260200190565b90815260200190565b9182526001600160a01b0316602082015260400190565b6001600160e01b031991909116815260200190565b600060208252611f6f6020830184614c9a565b60208082526034908201527f455243313135353a207472616e7366657220746f206e6f6e204552433131353560408201527f526563656976657220696d706c656d656e746572000000000000000000000000606082015260800190565b6020808252818101527f537472696e67733a20686578206c656e67746820696e73756666696369656e74604082015260600190565b60208082526028908201527f455243313135353a204552433131353552656365697665722072656a6563746560408201527f6420746f6b656e73000000000000000000000000000000000000000000000000606082015260800190565b60208082526014908201527f5061757361626c653a206e6f7420706175736564000000000000000000000000604082015260600190565b60208082526039908201527f4e4654436f6c6c656374696f6e3a2063616e6e6f742063616c6c20746869732060408201527f666e20666f72206372656174696e67206e6577204e4654732e00000000000000606082015260800190565b6020808252602b908201527f455243313135353a2062616c616e636520717565727920666f7220746865207a60408201527f65726f2061646472657373000000000000000000000000000000000000000000606082015260800190565b6020808252603a908201527f4e4654436f6c6c656374696f6e3a2063616e6e6f7420667265656c79206d696e60408201527f74206d6f7265206f66204552433230206f72204552433732312e000000000000606082015260800190565b60208082526024908201527f455243313135353a206275726e20616d6f756e7420657863656564732062616c604082015263616e636560e01b606082015260800190565b60208082526038908201527f4163636573734e46543a206f6e6c7920612070726f746f636f6c2061646d696e60408201527f2063616e2063616c6c20746869732066756e6374696f6e2e0000000000000000606082015260800190565b6020808252602c908201527f455243313135355061757361626c653a20746f6b656e207472616e736665722060408201527f7768696c65207061757365640000000000000000000000000000000000000000606082015260800190565b60208082526029908201527f455243313135353a2063616c6c6572206973206e6f74206f776e6572206e6f7260408201527f20617070726f7665640000000000000000000000000000000000000000000000606082015260800190565b6020808252602e908201527f4163636573734e46543a2043616e6e6f742072656465656d206d6f7265204e4660408201527f5473207468616e206f776e65642e000000000000000000000000000000000000606082015260800190565b60208082526041908201527f4163636573734e46543a204f6e6c79206163636f756e74732077697468204d4960408201527f4e5445525f524f4c452063616e2063616c6c20746869732066756e6374696f6e6060820152601760f91b608082015260a00190565b60208082526010908201527f5061757361626c653a2070617573656400000000000000000000000000000000604082015260600190565b60208082526028908201527f4163636573734e46543a204d75737420637265617465206174206c656173742060408201527f6f6e65204e46542e000000000000000000000000000000000000000000000000606082015260800190565b60208082526025908201527f455243313135353a207472616e7366657220746f20746865207a65726f206164604082015264647265737360d81b606082015260800190565b60208082526032908201527f455243313135353a207472616e736665722063616c6c6572206973206e6f742060408201527f6f776e6572206e6f7220617070726f7665640000000000000000000000000000606082015260800190565b60208082526039908201527f4163636573734e46543a2063616e6e6f74207472616e7366657220616e20616360408201527f63657373204e465420746861742069732072656465656d656400000000000000606082015260800190565b60208082526023908201527f455243313135353a206275726e2066726f6d20746865207a65726f206164647260408201526265737360e81b606082015260800190565b60208082526038908201527f455243313135355072657365744d696e7465725061757365723a206d7573742060408201527f68617665206d696e74657220726f6c6520746f206d696e740000000000000000606082015260800190565b6020808252602a908201527f455243313135353a20696e73756666696369656e742062616c616e636520666f60408201527f72207472616e7366657200000000000000000000000000000000000000000000606082015260800190565b6020808252603c908201527f4163636573734e46543a205472616e736665727320617265207265737472696360408201527f74656420746f205452414e534645525f524f4c4520686f6c6465727300000000606082015260800190565b60208082526022908201527f4163636573734e46543a205468652070726f746f636f6c206973207061757365604082015261321760f11b606082015260800190565b6020808252602e908201527f4163636573734e46543a2057696e646f7720746f2072656465656d206163636560408201527f73732068617320636c6f7365642e000000000000000000000000000000000000606082015260800190565b60208082526033908201527f4163636573734e46543a205468697320746f6b656e206973206e6f742072656460408201527f65656d61626c6520666f72206163636573732e00000000000000000000000000606082015260800190565b60208082526034908201527f4163636573734e46543a2063616e207365742072656465656d2074696d65206660408201527f6f72206f6e6c7920416363657373204e4654732e000000000000000000000000606082015260800190565b60208082526036908201527f4163636573734e46543a204d757374207370656369667920657175616c206e7560408201527f6d626572206f6620636f6e6669672076616c7565732e00000000000000000000606082015260800190565b6020808252602a908201527f4e46543a204270732070726f7669646564206d757374206265206c657373207460408201527f68616e2031302c30303000000000000000000000000000000000000000000000606082015260800190565b6020808252603b908201527f455243313135355072657365744d696e7465725061757365723a206d7573742060408201527f686176652070617573657220726f6c6520746f20756e70617573650000000000606082015260800190565b60208082526033908201527f4163636573734e46543a206f6e6c79207468652063726561746f722063616e2060408201527f63616c6c20746869732066756e6374696f6e2e00000000000000000000000000606082015260800190565b60208082526039908201527f455243313135355072657365744d696e7465725061757365723a206d7573742060408201527f686176652070617573657220726f6c6520746f20706175736500000000000000606082015260800190565b60208082526029908201527f455243313135353a2073657474696e6720617070726f76616c2073746174757360408201527f20666f722073656c660000000000000000000000000000000000000000000000606082015260800190565b60208082526029908201527f455243313135353a206163636f756e747320616e6420696473206c656e67746860408201527f206d69736d617463680000000000000000000000000000000000000000000000606082015260800190565b60208082526028908201527f455243313135353a2069647320616e6420616d6f756e7473206c656e6774682060408201527f6d69736d61746368000000000000000000000000000000000000000000000000606082015260800190565b60208082526021908201527f455243313135353a206d696e7420746f20746865207a65726f206164647265736040820152607360f81b606082015260800190565b6020808252602f908201527f416363657373436f6e74726f6c3a2063616e206f6e6c792072656e6f756e636560408201527f20726f6c657320666f722073656c660000000000000000000000000000000000606082015260800190565b60008882526001600160a01b038816602083015260a06040830152615c3960a083018789614b88565b8281036060840152615c4b8187614c6b565b90508281036080840152615c60818587614bd0565b9a9950505050505050505050565b60008982526001600160a01b038916602083015260c06040830152615c9760c08301888a614b88565b8281036060840152615ca98188614c6b565b90508281036080840152615cbd8187614c6b565b905082810360a0840152615cd2818587614bd0565b9b9a5050505050505050505050565b9283526001600160a01b03919091166020830152604082015260600190565b918252602082015260400190565b92835260208301919091526001600160a01b0316604082015260600190565b6000808335601e19843603018112615d43578283fd5b83018035915067ffffffffffffffff821115615d5d578283fd5b60200191503681900382131561417357600080fd5b60405181810167ffffffffffffffff81118282101715615d9457615d94615edd565b604052919050565b600067ffffffffffffffff821115615db657615db6615edd565b5060209081020190565b60008219821115615dd357615dd3615ec7565b500190565b600082615df357634e487b7160e01b81526012600452602481fd5b500490565b6000816000190483118215151615615e1257615e12615ec7565b500290565b600082821015615e2957615e29615ec7565b500390565b60005b83811015615e49578181015183820152602001615e31565b83811115610e845750506000910152565b600081615e6957615e69615ec7565b506000190190565b600281046001821680615e8557607f821691505b60208210811415615ea657634e487b7160e01b600052602260045260246000fd5b50919050565b6000600019821415615ec057615ec0615ec7565b5060010190565b634e487b7160e01b600052601160045260246000fd5b634e487b7160e01b600052604160045260246000fd5b60e01c90565b600060443d1015615f0957611667565b600481823e6308c379a0615f1d8251615ef3565b14615f2757611667565b6040513d600319016004823e80513d67ffffffffffffffff8160248401118184111715615f575750505050611667565b82840192508251915080821115615f715750505050611667565b503d83016020828401011115615f8957505050611667565b601f01601f1916810160200160405291505090565b6001600160a01b0381168114615fb357600080fd5b50565b8015158114615fb357600080fd5b6001600160e01b031981168114615fb357600080fdfea164736f6c6343000800000a",
  "linkReferences": {},
  "deployedLinkReferences": {}
}