{
  "_format": "hh-sol-artifact-1",
  "contractName": "AccessNFT",
  "sourceName": "contracts/AccessNFT.sol",
  "abi": [
    {
      "inputs": [
        {
          "internalType": "address payable",
          "name": "_controlCenter",
          "type": "address"
        },
        {
          "internalType": "address",
          "name": "_trustedForwarder",
          "type": "address"
        },
        {
          "internalType": "address",
          "name": "_nftWrapper",
          "type": "address"
        },
        {
          "internalType": "string",
          "name": "_uri",
          "type": "string"
        }
      ],
      "stateMutability": "nonpayable",
      "type": "constructor"
    },
    {
      "anonymous": false,
      "inputs": [
        {
          "indexed": true,
          "internalType": "address",
          "name": "redeemer",
          "type": "address"
        },
        {
          "indexed": true,
          "internalType": "uint256",
          "name": "nftTokenId",
          "type": "uint256"
        },
        {
          "indexed": true,
          "internalType": "uint256",
          "name": "accessNftId",
          "type": "uint256"
        },
        {
          "indexed": false,
          "internalType": "uint256",
          "name": "amount",
          "type": "uint256"
        }
      ],
      "name": "AccessNFTRedeemed",
      "type": "event"
    },
    {
      "anonymous": false,
      "inputs": [
        {
          "indexed": true,
          "internalType": "address",
          "name": "creator",
          "type": "address"
        },
        {
          "indexed": false,
          "internalType": "uint256[]",
          "name": "nftIds",
          "type": "uint256[]"
        },
        {
          "indexed": false,
          "internalType": "string[]",
          "name": "nftURIs",
          "type": "string[]"
        },
        {
          "indexed": false,
          "internalType": "uint256[]",
          "name": "acessNftIds",
          "type": "uint256[]"
        },
        {
          "indexed": false,
          "internalType": "string[]",
          "name": "accessNftURIs",
          "type": "string[]"
        },
        {
          "indexed": false,
          "internalType": "uint256[]",
          "name": "nftSupplies",
          "type": "uint256[]"
        }
      ],
      "name": "AccessNFTsCreated",
      "type": "event"
    },
    {
      "anonymous": false,
      "inputs": [
        {
          "indexed": false,
          "internalType": "bool",
          "name": "isTransferable",
          "type": "bool"
        }
      ],
      "name": "AccessTransferabilityUpdated",
      "type": "event"
    },
    {
      "anonymous": false,
      "inputs": [
        {
          "indexed": true,
          "internalType": "address",
          "name": "account",
          "type": "address"
        },
        {
          "indexed": true,
          "internalType": "address",
          "name": "operator",
          "type": "address"
        },
        {
          "indexed": false,
          "internalType": "bool",
          "name": "approved",
          "type": "bool"
        }
      ],
      "name": "ApprovalForAll",
      "type": "event"
    },
    {
      "anonymous": false,
      "inputs": [
        {
          "indexed": false,
          "internalType": "uint256",
          "name": "accessNftId",
          "type": "uint256"
        },
        {
          "indexed": false,
          "internalType": "address",
          "name": "creator",
          "type": "address"
        },
        {
          "indexed": false,
          "internalType": "uint256",
          "name": "lastTimeToRedeem",
          "type": "uint256"
        }
      ],
      "name": "LastRedeemTimeUpdated",
      "type": "event"
    },
    {
      "anonymous": false,
      "inputs": [
        {
          "indexed": false,
          "internalType": "address",
          "name": "account",
          "type": "address"
        }
      ],
      "name": "Paused",
      "type": "event"
    },
    {
      "anonymous": false,
      "inputs": [
        {
          "indexed": true,
          "internalType": "bytes32",
          "name": "role",
          "type": "bytes32"
        },
        {
          "indexed": true,
          "internalType": "bytes32",
          "name": "previousAdminRole",
          "type": "bytes32"
        },
        {
          "indexed": true,
          "internalType": "bytes32",
          "name": "newAdminRole",
          "type": "bytes32"
        }
      ],
      "name": "RoleAdminChanged",
      "type": "event"
    },
    {
      "anonymous": false,
      "inputs": [
        {
          "indexed": true,
          "internalType": "bytes32",
          "name": "role",
          "type": "bytes32"
        },
        {
          "indexed": true,
          "internalType": "address",
          "name": "account",
          "type": "address"
        },
        {
          "indexed": true,
          "internalType": "address",
          "name": "sender",
          "type": "address"
        }
      ],
      "name": "RoleGranted",
      "type": "event"
    },
    {
      "anonymous": false,
      "inputs": [
        {
          "indexed": true,
          "internalType": "bytes32",
          "name": "role",
          "type": "bytes32"
        },
        {
          "indexed": true,
          "internalType": "address",
          "name": "account",
          "type": "address"
        },
        {
          "indexed": true,
          "internalType": "address",
          "name": "sender",
          "type": "address"
        }
      ],
      "name": "RoleRevoked",
      "type": "event"
    },
    {
      "anonymous": false,
      "inputs": [
        {
          "indexed": false,
          "internalType": "uint256",
          "name": "royaltyBps",
          "type": "uint256"
        }
      ],
      "name": "RoyaltyUpdated",
      "type": "event"
    },
    {
      "anonymous": false,
      "inputs": [
        {
          "indexed": true,
          "internalType": "address",
          "name": "operator",
          "type": "address"
        },
        {
          "indexed": true,
          "internalType": "address",
          "name": "from",
          "type": "address"
        },
        {
          "indexed": true,
          "internalType": "address",
          "name": "to",
          "type": "address"
        },
        {
          "indexed": false,
          "internalType": "uint256[]",
          "name": "ids",
          "type": "uint256[]"
        },
        {
          "indexed": false,
          "internalType": "uint256[]",
          "name": "values",
          "type": "uint256[]"
        }
      ],
      "name": "TransferBatch",
      "type": "event"
    },
    {
      "anonymous": false,
      "inputs": [
        {
          "indexed": true,
          "internalType": "address",
          "name": "operator",
          "type": "address"
        },
        {
          "indexed": true,
          "internalType": "address",
          "name": "from",
          "type": "address"
        },
        {
          "indexed": true,
          "internalType": "address",
          "name": "to",
          "type": "address"
        },
        {
          "indexed": false,
          "internalType": "uint256",
          "name": "id",
          "type": "uint256"
        },
        {
          "indexed": false,
          "internalType": "uint256",
          "name": "value",
          "type": "uint256"
        }
      ],
      "name": "TransferSingle",
      "type": "event"
    },
    {
      "anonymous": false,
      "inputs": [
        {
          "indexed": false,
          "internalType": "string",
          "name": "value",
          "type": "string"
        },
        {
          "indexed": true,
          "internalType": "uint256",
          "name": "id",
          "type": "uint256"
        }
      ],
      "name": "URI",
      "type": "event"
    },
    {
      "anonymous": false,
      "inputs": [
        {
          "indexed": false,
          "internalType": "address",
          "name": "account",
          "type": "address"
        }
      ],
      "name": "Unpaused",
      "type": "event"
    },
    {
      "inputs": [],
      "name": "DEFAULT_ADMIN_ROLE",
      "outputs": [
        {
          "internalType": "bytes32",
          "name": "",
          "type": "bytes32"
        }
      ],
      "stateMutability": "view",
      "type": "function"
    },
    {
      "inputs": [],
      "name": "MINTER_ROLE",
      "outputs": [
        {
          "internalType": "bytes32",
          "name": "",
          "type": "bytes32"
        }
      ],
      "stateMutability": "view",
      "type": "function"
    },
    {
      "inputs": [],
      "name": "PAUSER_ROLE",
      "outputs": [
        {
          "internalType": "bytes32",
          "name": "",
          "type": "bytes32"
        }
      ],
      "stateMutability": "view",
      "type": "function"
    },
    {
      "inputs": [],
      "name": "TRANSFER_ROLE",
      "outputs": [
        {
          "internalType": "bytes32",
          "name": "",
          "type": "bytes32"
        }
      ],
      "stateMutability": "view",
      "type": "function"
    },
    {
      "inputs": [],
      "name": "_contractURI",
      "outputs": [
        {
          "internalType": "string",
          "name": "",
          "type": "string"
        }
      ],
      "stateMutability": "view",
      "type": "function"
    },
    {
      "inputs": [],
      "name": "accessNftIsTransferable",
      "outputs": [
        {
          "internalType": "bool",
          "name": "",
          "type": "bool"
        }
      ],
      "stateMutability": "view",
      "type": "function"
    },
    {
      "inputs": [
        {
          "internalType": "address",
          "name": "account",
          "type": "address"
        },
        {
          "internalType": "uint256",
          "name": "id",
          "type": "uint256"
        }
      ],
      "name": "balanceOf",
      "outputs": [
        {
          "internalType": "uint256",
          "name": "",
          "type": "uint256"
        }
      ],
      "stateMutability": "view",
      "type": "function"
    },
    {
      "inputs": [
        {
          "internalType": "address[]",
          "name": "accounts",
          "type": "address[]"
        },
        {
          "internalType": "uint256[]",
          "name": "ids",
          "type": "uint256[]"
        }
      ],
      "name": "balanceOfBatch",
      "outputs": [
        {
          "internalType": "uint256[]",
          "name": "",
          "type": "uint256[]"
        }
      ],
      "stateMutability": "view",
      "type": "function"
    },
    {
      "inputs": [
        {
          "internalType": "address",
          "name": "account",
          "type": "address"
        },
        {
          "internalType": "uint256",
          "name": "id",
          "type": "uint256"
        },
        {
          "internalType": "uint256",
          "name": "value",
          "type": "uint256"
        }
      ],
      "name": "burn",
      "outputs": [],
      "stateMutability": "nonpayable",
      "type": "function"
    },
    {
      "inputs": [
        {
          "internalType": "address",
          "name": "account",
          "type": "address"
        },
        {
          "internalType": "uint256[]",
          "name": "ids",
          "type": "uint256[]"
        },
        {
          "internalType": "uint256[]",
          "name": "values",
          "type": "uint256[]"
        }
      ],
      "name": "burnBatch",
      "outputs": [],
      "stateMutability": "nonpayable",
      "type": "function"
    },
    {
      "inputs": [],
      "name": "contractURI",
      "outputs": [
        {
          "internalType": "string",
          "name": "",
          "type": "string"
        }
      ],
      "stateMutability": "view",
      "type": "function"
    },
    {
      "inputs": [
        {
          "internalType": "address",
          "name": "to",
          "type": "address"
        },
        {
          "internalType": "string[]",
          "name": "_nftURIs",
          "type": "string[]"
        },
        {
          "internalType": "string[]",
          "name": "_accessNftURIs",
          "type": "string[]"
        },
        {
          "internalType": "uint256[]",
          "name": "_nftSupplies",
          "type": "uint256[]"
        },
        {
          "internalType": "bytes",
          "name": "data",
          "type": "bytes"
        }
      ],
      "name": "createAccessTokens",
      "outputs": [
        {
          "internalType": "uint256[]",
          "name": "nftIds",
          "type": "uint256[]"
        }
      ],
      "stateMutability": "nonpayable",
      "type": "function"
    },
    {
      "inputs": [
        {
          "internalType": "bytes32",
          "name": "role",
          "type": "bytes32"
        }
      ],
      "name": "getRoleAdmin",
      "outputs": [
        {
          "internalType": "bytes32",
          "name": "",
          "type": "bytes32"
        }
      ],
      "stateMutability": "view",
      "type": "function"
    },
    {
      "inputs": [
        {
          "internalType": "bytes32",
          "name": "role",
          "type": "bytes32"
        },
        {
          "internalType": "uint256",
          "name": "index",
          "type": "uint256"
        }
      ],
      "name": "getRoleMember",
      "outputs": [
        {
          "internalType": "address",
          "name": "",
          "type": "address"
        }
      ],
      "stateMutability": "view",
      "type": "function"
    },
    {
      "inputs": [
        {
          "internalType": "bytes32",
          "name": "role",
          "type": "bytes32"
        }
      ],
      "name": "getRoleMemberCount",
      "outputs": [
        {
          "internalType": "uint256",
          "name": "",
          "type": "uint256"
        }
      ],
      "stateMutability": "view",
      "type": "function"
    },
    {
      "inputs": [
        {
          "internalType": "bytes32",
          "name": "role",
          "type": "bytes32"
        },
        {
          "internalType": "address",
          "name": "account",
          "type": "address"
        }
      ],
      "name": "grantRole",
      "outputs": [],
      "stateMutability": "nonpayable",
      "type": "function"
    },
    {
      "inputs": [
        {
          "internalType": "bytes32",
          "name": "role",
          "type": "bytes32"
        },
        {
          "internalType": "address",
          "name": "account",
          "type": "address"
        }
      ],
      "name": "hasRole",
      "outputs": [
        {
          "internalType": "bool",
          "name": "",
          "type": "bool"
        }
      ],
      "stateMutability": "view",
      "type": "function"
    },
    {
      "inputs": [
        {
          "internalType": "address",
          "name": "account",
          "type": "address"
        },
        {
          "internalType": "address",
          "name": "operator",
          "type": "address"
        }
      ],
      "name": "isApprovedForAll",
      "outputs": [
        {
          "internalType": "bool",
          "name": "",
          "type": "bool"
        }
      ],
      "stateMutability": "view",
      "type": "function"
    },
    {
      "inputs": [
        {
          "internalType": "uint256",
          "name": "_nftId",
          "type": "uint256"
        }
      ],
      "name": "isRedeemable",
      "outputs": [
        {
          "internalType": "bool",
          "name": "",
          "type": "bool"
        }
      ],
      "stateMutability": "view",
      "type": "function"
    },
    {
      "inputs": [
        {
          "internalType": "address",
          "name": "forwarder",
          "type": "address"
        }
      ],
      "name": "isTrustedForwarder",
      "outputs": [
        {
          "internalType": "bool",
          "name": "",
          "type": "bool"
        }
      ],
      "stateMutability": "view",
      "type": "function"
    },
    {
      "inputs": [
        {
          "internalType": "uint256",
          "name": "",
          "type": "uint256"
        }
      ],
      "name": "lastTimeToRedeem",
      "outputs": [
        {
          "internalType": "uint256",
          "name": "",
          "type": "uint256"
        }
      ],
      "stateMutability": "view",
      "type": "function"
    },
    {
      "inputs": [
        {
          "internalType": "address",
          "name": "to",
          "type": "address"
        },
        {
          "internalType": "uint256",
          "name": "id",
          "type": "uint256"
        },
        {
          "internalType": "uint256",
          "name": "amount",
          "type": "uint256"
        },
        {
          "internalType": "bytes",
          "name": "data",
          "type": "bytes"
        }
      ],
      "name": "mint",
      "outputs": [],
      "stateMutability": "nonpayable",
      "type": "function"
    },
    {
      "inputs": [
        {
          "internalType": "address",
          "name": "to",
          "type": "address"
        },
        {
          "internalType": "uint256[]",
          "name": "ids",
          "type": "uint256[]"
        },
        {
          "internalType": "uint256[]",
          "name": "amounts",
          "type": "uint256[]"
        },
        {
          "internalType": "bytes",
          "name": "data",
          "type": "bytes"
        }
      ],
      "name": "mintBatch",
      "outputs": [],
      "stateMutability": "nonpayable",
      "type": "function"
    },
    {
      "inputs": [],
      "name": "nextTokenId",
      "outputs": [
        {
          "internalType": "uint256",
          "name": "",
          "type": "uint256"
        }
      ],
      "stateMutability": "view",
      "type": "function"
    },
    {
      "inputs": [
        {
          "internalType": "address",
          "name": "",
          "type": "address"
        },
        {
          "internalType": "address",
          "name": "",
          "type": "address"
        },
        {
          "internalType": "uint256[]",
          "name": "",
          "type": "uint256[]"
        },
        {
          "internalType": "uint256[]",
          "name": "",
          "type": "uint256[]"
        },
        {
          "internalType": "bytes",
          "name": "",
          "type": "bytes"
        }
      ],
      "name": "onERC1155BatchReceived",
      "outputs": [
        {
          "internalType": "bytes4",
          "name": "",
          "type": "bytes4"
        }
      ],
      "stateMutability": "nonpayable",
      "type": "function"
    },
    {
      "inputs": [
        {
          "internalType": "address",
          "name": "",
          "type": "address"
        },
        {
          "internalType": "address",
          "name": "",
          "type": "address"
        },
        {
          "internalType": "uint256",
          "name": "",
          "type": "uint256"
        },
        {
          "internalType": "uint256",
          "name": "",
          "type": "uint256"
        },
        {
          "internalType": "bytes",
          "name": "",
          "type": "bytes"
        }
      ],
      "name": "onERC1155Received",
      "outputs": [
        {
          "internalType": "bytes4",
          "name": "",
          "type": "bytes4"
        }
      ],
      "stateMutability": "nonpayable",
      "type": "function"
    },
    {
      "inputs": [
        {
          "internalType": "address",
          "name": "",
          "type": "address"
        },
        {
          "internalType": "address",
          "name": "",
          "type": "address"
        },
        {
          "internalType": "uint256",
          "name": "",
          "type": "uint256"
        },
        {
          "internalType": "bytes",
          "name": "",
          "type": "bytes"
        }
      ],
      "name": "onERC721Received",
      "outputs": [
        {
          "internalType": "bytes4",
          "name": "",
          "type": "bytes4"
        }
      ],
      "stateMutability": "nonpayable",
      "type": "function"
    },
    {
      "inputs": [],
      "name": "pause",
      "outputs": [],
      "stateMutability": "nonpayable",
      "type": "function"
    },
    {
      "inputs": [],
      "name": "paused",
      "outputs": [
        {
          "internalType": "bool",
          "name": "",
          "type": "bool"
        }
      ],
      "stateMutability": "view",
      "type": "function"
    },
    {
      "inputs": [
        {
          "internalType": "uint256",
          "name": "_tokenId",
          "type": "uint256"
        },
        {
          "internalType": "uint256",
          "name": "_amount",
          "type": "uint256"
        }
      ],
      "name": "redeemToken",
      "outputs": [],
      "stateMutability": "nonpayable",
      "type": "function"
    },
    {
      "inputs": [
        {
          "internalType": "bytes32",
          "name": "role",
          "type": "bytes32"
        },
        {
          "internalType": "address",
          "name": "account",
          "type": "address"
        }
      ],
      "name": "renounceRole",
      "outputs": [],
      "stateMutability": "nonpayable",
      "type": "function"
    },
    {
      "inputs": [
        {
          "internalType": "bytes32",
          "name": "role",
          "type": "bytes32"
        },
        {
          "internalType": "address",
          "name": "account",
          "type": "address"
        }
      ],
      "name": "revokeRole",
      "outputs": [],
      "stateMutability": "nonpayable",
      "type": "function"
    },
    {
      "inputs": [],
      "name": "royaltyBps",
      "outputs": [
        {
          "internalType": "uint256",
          "name": "",
          "type": "uint256"
        }
      ],
      "stateMutability": "view",
      "type": "function"
    },
    {
      "inputs": [
        {
          "internalType": "uint256",
          "name": "",
          "type": "uint256"
        },
        {
          "internalType": "uint256",
          "name": "salePrice",
          "type": "uint256"
        }
      ],
      "name": "royaltyInfo",
      "outputs": [
        {
          "internalType": "address",
          "name": "receiver",
          "type": "address"
        },
        {
          "internalType": "uint256",
          "name": "royaltyAmount",
          "type": "uint256"
        }
      ],
      "stateMutability": "view",
      "type": "function"
    },
    {
      "inputs": [
        {
          "internalType": "address",
          "name": "from",
          "type": "address"
        },
        {
          "internalType": "address",
          "name": "to",
          "type": "address"
        },
        {
          "internalType": "uint256[]",
          "name": "ids",
          "type": "uint256[]"
        },
        {
          "internalType": "uint256[]",
          "name": "amounts",
          "type": "uint256[]"
        },
        {
          "internalType": "bytes",
          "name": "data",
          "type": "bytes"
        }
      ],
      "name": "safeBatchTransferFrom",
      "outputs": [],
      "stateMutability": "nonpayable",
      "type": "function"
    },
    {
      "inputs": [
        {
          "internalType": "address",
          "name": "from",
          "type": "address"
        },
        {
          "internalType": "address",
          "name": "to",
          "type": "address"
        },
        {
          "internalType": "uint256",
          "name": "id",
          "type": "uint256"
        },
        {
          "internalType": "uint256",
          "name": "amount",
          "type": "uint256"
        },
        {
          "internalType": "bytes",
          "name": "data",
          "type": "bytes"
        }
      ],
      "name": "safeTransferFrom",
      "outputs": [],
      "stateMutability": "nonpayable",
      "type": "function"
    },
    {
      "inputs": [
        {
          "internalType": "bool",
          "name": "_isTransferable",
          "type": "bool"
        }
      ],
      "name": "setAccessNftTransferability",
      "outputs": [],
      "stateMutability": "nonpayable",
      "type": "function"
    },
    {
      "inputs": [
        {
          "internalType": "address",
          "name": "operator",
          "type": "address"
        },
        {
          "internalType": "bool",
          "name": "approved",
          "type": "bool"
        }
      ],
      "name": "setApprovalForAll",
      "outputs": [],
      "stateMutability": "nonpayable",
      "type": "function"
    },
    {
      "inputs": [
        {
          "internalType": "string",
          "name": "_URI",
          "type": "string"
        }
      ],
      "name": "setContractURI",
      "outputs": [],
      "stateMutability": "nonpayable",
      "type": "function"
    },
    {
      "inputs": [
        {
          "internalType": "uint256",
          "name": "_tokenId",
          "type": "uint256"
        },
        {
          "internalType": "uint256",
          "name": "_secondsUntilRedeem",
          "type": "uint256"
        }
      ],
      "name": "setLastTimeToRedeem",
      "outputs": [],
      "stateMutability": "nonpayable",
      "type": "function"
    },
    {
      "inputs": [
        {
          "internalType": "bool",
          "name": "_restrictedTransfer",
          "type": "bool"
        }
      ],
      "name": "setRestrictedTransfer",
      "outputs": [],
      "stateMutability": "nonpayable",
      "type": "function"
    },
    {
      "inputs": [
        {
          "internalType": "uint256",
          "name": "_royaltyBps",
          "type": "uint256"
        }
      ],
      "name": "setRoyaltyBps",
      "outputs": [],
      "stateMutability": "nonpayable",
      "type": "function"
    },
    {
      "inputs": [
        {
          "internalType": "bytes4",
          "name": "interfaceId",
          "type": "bytes4"
        }
      ],
      "name": "supportsInterface",
      "outputs": [
        {
          "internalType": "bool",
          "name": "",
          "type": "bool"
        }
      ],
      "stateMutability": "view",
      "type": "function"
    },
    {
      "inputs": [
        {
          "internalType": "uint256",
          "name": "",
          "type": "uint256"
        }
      ],
      "name": "tokenState",
      "outputs": [
        {
          "internalType": "address",
          "name": "creator",
          "type": "address"
        },
        {
          "internalType": "string",
          "name": "uri",
          "type": "string"
        },
        {
          "internalType": "bool",
          "name": "isRedeemable",
          "type": "bool"
        },
        {
          "internalType": "uint256",
          "name": "accessNftId",
          "type": "uint256"
        },
        {
          "internalType": "enum AccessNFT.UnderlyingType",
          "name": "underlyingType",
          "type": "uint8"
        }
      ],
      "stateMutability": "view",
      "type": "function"
    },
    {
      "inputs": [
        {
          "internalType": "uint256",
          "name": "_nftId",
          "type": "uint256"
        }
      ],
      "name": "tokenURI",
      "outputs": [
        {
          "internalType": "string",
          "name": "",
          "type": "string"
        }
      ],
      "stateMutability": "view",
      "type": "function"
    },
    {
      "inputs": [
        {
          "internalType": "uint256",
          "name": "id",
          "type": "uint256"
        }
      ],
      "name": "totalSupply",
      "outputs": [
        {
          "internalType": "uint256",
          "name": "",
          "type": "uint256"
        }
      ],
      "stateMutability": "view",
      "type": "function"
    },
    {
      "inputs": [],
      "name": "transfersRestricted",
      "outputs": [
        {
          "internalType": "bool",
          "name": "",
          "type": "bool"
        }
      ],
      "stateMutability": "view",
      "type": "function"
    },
    {
      "inputs": [],
      "name": "unpause",
      "outputs": [],
      "stateMutability": "nonpayable",
      "type": "function"
    },
    {
      "inputs": [
        {
          "internalType": "uint256",
          "name": "_nftId",
          "type": "uint256"
        }
      ],
      "name": "uri",
      "outputs": [
        {
          "internalType": "string",
          "name": "",
          "type": "string"
        }
      ],
      "stateMutability": "view",
      "type": "function"
    },
    {
      "inputs": [
        {
          "internalType": "address[]",
          "name": "_tokenContracts",
          "type": "address[]"
        },
        {
          "internalType": "uint256[]",
          "name": "_tokenAmounts",
          "type": "uint256[]"
        },
        {
          "internalType": "uint256[]",
          "name": "_numOfNftsToMint",
          "type": "uint256[]"
        },
        {
          "internalType": "string[]",
          "name": "_nftURIs",
          "type": "string[]"
        }
      ],
      "name": "wrapERC20",
      "outputs": [],
      "stateMutability": "nonpayable",
      "type": "function"
    },
    {
      "inputs": [
        {
          "internalType": "address[]",
          "name": "_nftContracts",
          "type": "address[]"
        },
        {
          "internalType": "uint256[]",
          "name": "_tokenIds",
          "type": "uint256[]"
        },
        {
          "internalType": "string[]",
          "name": "_nftURIs",
          "type": "string[]"
        }
      ],
      "name": "wrapERC721",
      "outputs": [],
      "stateMutability": "nonpayable",
      "type": "function"
    }
  ],
  "bytecode": "0x60806040523480156200001157600080fd5b506040516200652038038062006520833981016040819052620000349162000418565b82818062000042816200015b565b506005805460ff191690556200006360006200005d62000174565b62000191565b620000927f9f2df0fed2c77648de5860a4cc508cd0818c85b8b8a1ab4ceeef8d981c8956a66200005d62000174565b620000c17f65d7a28e3265b37a6474929f336521b332c1681b933f6cb9f3376673440d862a6200005d62000174565b50600780546001600160a01b03199081166001600160a01b03938416179091556008805490911691861691909117905580516200010690600c90602084019062000372565b50600980546001600160a01b0319166001600160a01b038416179055620001517f8502233096d909befbda0999bb8ea2f3a6be3c138b9fbf003752a4c8bce86f6c6200005d62000174565b5050505062000595565b80516200017090600490602084019062000372565b5050565b60006200018b620001d460201b620027d41760201c565b90505b90565b620001a882826200021460201b620028021760201c565b6000828152600160209081526040909120620001cf9183906200281062000220821b17901c565b505050565b6000620001e13362000240565b15620001f7575060131936013560601c6200018e565b6200020c6200025460201b620028251760201c565b90506200018e565b62000170828262000258565b600062000237836001600160a01b038416620002e2565b90505b92915050565b6007546001600160a01b0390811691161490565b3390565b62000264828262000331565b62000170576000828152602081815260408083206001600160a01b03851684529091529020805460ff191660011790556200029e62000174565b6001600160a01b0316816001600160a01b0316837f2f8788117e7eff1d82e926ec794901d17c78024a50270940304540a733656f0d60405160405180910390a45050565b6000620002f083836200035a565b62000328575081546001818101845560008481526020808220909301849055845484825282860190935260409020919091556200023a565b5060006200023a565b6000918252602082815260408084206001600160a01b0393909316845291905290205460ff1690565b60009081526001919091016020526040902054151590565b828054620003809062000529565b90600052602060002090601f016020900481019282620003a45760008555620003ef565b82601f10620003bf57805160ff1916838001178555620003ef565b82800160010185558215620003ef579182015b82811115620003ef578251825591602001919060010190620003d2565b50620003fd92915062000401565b5090565b5b80821115620003fd576000815560010162000402565b600080600080608085870312156200042e578384fd5b84516200043b816200057c565b8094505060208086015162000450816200057c565b604087015190945062000463816200057c565b60608701519093506001600160401b038082111562000480578384fd5b818801915088601f83011262000494578384fd5b815181811115620004a957620004a962000566565b604051601f8201601f1916810185018381118282101715620004cf57620004cf62000566565b60405281815283820185018b1015620004e6578586fd5b8592505b81831015620005095783830185015181840186015291840191620004ea565b818311156200051a57858583830101525b979a9699509497505050505050565b6002810460018216806200053e57607f821691505b602082108114156200056057634e487b7160e01b600052602260045260246000fd5b50919050565b634e487b7160e01b600052604160045260246000fd5b6001600160a01b03811681146200059257600080fd5b50565b615f7b80620005a56000396000f3fe608060405234801561001057600080fd5b50600436106103405760003560e01c80638456cb59116101bd578063c87b56dd116100f9578063e63ab1e9116100a2578063f23a6e611161007c578063f23a6e6114610698578063f242432a146106ab578063f48cc326146106be578063f5298aca146106d157610340565b8063e63ab1e914610675578063e8a3d4851461067d578063e985e9c51461068557610340565b8063d5391393116100d3578063d539139314610652578063d547741f1461065a578063d9371ddd1461066d57610340565b8063c87b56dd146103a3578063ca15c8731461062c578063ca551b021461063f57610340565b80639f1d947711610166578063bc197c8111610140578063bc197c81146105f6578063bd85b03914610609578063c0e727401461061c578063c63adb2b1461062457610340565b80639f1d9477146105c8578063a217fddf146105db578063a22cb465146105e357610340565b806391d148541161019757806391d148541461057e578063938e3d7b146105915780639745cc3d146105a457610340565b80638456cb59146105435780638ba448c21461054b5780639010d07c1461055e57610340565b80632f2ff15d1161028c5780634e1273f4116102355780636b20c4541161020f5780636b20c4541461050d578063731133e91461052057806375794a3c146105335780638423df791461053b57610340565b80634e1273f4146104df578063572b6c05146104f25780635c975abb1461050557610340565b80633f4ba83a116102665780633f4ba83a146104a4578063400c477a146104ac5780634487f6b4146104cc57610340565b80632f2ff15d1461046b5780632f4abf071461047e57806336568abe1461049157610340565b80631f72d831116102ee578063248a9ca3116102c8578063248a9ca3146104245780632a55205a146104375780632eb2c2d61461045857610340565b80631f72d831146103f65780631f7fdffa14610409578063206b60f91461041c57610340565b80630e89341c1161031f5780630e89341c146103a3578063150b7a02146103c357806317ffeba2146103e357610340565b8062fdd58e1461034557806301ffc9a71461036e5780630e4d7d471461038e575b600080fd5b61035861035336600461466b565b6106e4565b6040516103659190614f34565b60405180910390f35b61038161037c366004614a74565b610740565b6040516103659190614f29565b6103a161039c3660046147a4565b61076b565b005b6103b66103b13660046149ff565b610abd565b6040516103659190614f69565b6103d66103d136600461439b565b610b62565b6040516103659190614f54565b6103586103f13660046149ff565b610b72565b6103a16104043660046149ff565b610b84565b6103a16104173660046145b3565b610d90565b610358610e8a565b6103586104323660046149ff565b610eae565b61044a610445366004614a53565b610ec3565b604051610365929190614e28565b6103a16104663660046142f1565b611003565b6103a1610479366004614a2f565b611061565b6103a161048c366004614713565b611088565b6103a161049f366004614a2f565b6113cb565b6103a16113ed565b6104bf6104ba36600461446c565b61143f565b6040516103659190614e41565b6103a16104da366004614a53565b611a67565b6104bf6104ed366004614858565b611b54565b610381610500366004614281565b611c74565b610381611c88565b6103a161051b366004614540565b611c92565b6103a161052e3660046146ca565b611ce7565b610358611d65565b610381611d6b565b6103a1611d74565b6103a16105593660046149c7565b611dc4565b61057161056c366004614a53565b611eed565b6040516103659190614cdb565b61038161058c366004614a2f565b611f0c565b6103a161059f366004614aac565b611f35565b6105b76105b23660046149ff565b612057565b604051610365959493929190614dc8565b6103a16105d63660046149c7565b61211f565b610358612277565b6103a16105f136600461463e565b61227c565b6103d66106043660046142f1565b61234a565b6103586106173660046149ff565b61235b565b6103b661236d565b6103586123fb565b61035861063a3660046149ff565b612401565b6103a161064d366004614a53565b612418565b6103586125df565b6103a1610668366004614a2f565b612603565b61038161260d565b61035861261b565b6103b661263f565b6103816106933660046142b9565b6126d1565b6103d66106a6366004614405565b6126ff565b6103a16106b9366004614405565b612710565b6103816106cc3660046149ff565b612767565b6103a16106df366004614696565b61277f565b60006001600160a01b0383166107155760405162461bcd60e51b815260040161070c906150ff565b60405180910390fd5b5060008181526002602090815260408083206001600160a01b03861684529091529020545b92915050565b600061074b82612829565b8061073a57506001600160e01b0319821663152a902d60e11b1492915050565b600860009054906101000a90046001600160a01b03166001600160a01b0316639d2f83f06040518163ffffffff1660e01b815260040160206040518083038186803b1580156107b957600080fd5b505afa1580156107cd573d6000803e3d6000fd5b505050506040513d601f19601f820116820180604052508101906107f191906149e3565b1561080e5760405162461bcd60e51b815260040161070c906156c5565b61083a7f9f2df0fed2c77648de5860a4cc508cd0818c85b8b8a1ab4ceeef8d981c8956a661058c612834565b6108565760405162461bcd60e51b815260040161070c90615371565b6000610860612834565b600954600a5460405163381f4c4d60e21b815292935060009283926001600160a01b03169163e07d3134916108a6919087908e908e908e908e908e908e90600401615c02565b600060405180830381600087803b1580156108c057600080fd5b505af11580156108d4573d6000803e3d6000fd5b505050506040513d6000823e601f3d908101601f191682016040526108fc9190810190614982565b9150915080600a8190555061092283838860405180602001604052806000815250612843565b60005b8251811015610ab1576040518060a00160405280856001600160a01b0316815260200187878481811061096857634e487b7160e01b600052603260045260246000fd5b905060200281019061097a9190615cc1565b8080601f01602080910402602001604051908101604052809392919081815260200183838082843760009201829052509385525050600160208401819052604084019290925250606090910190815250600e60008584815181106109ee57634e487b7160e01b600052603260045260246000fd5b602090810291909101810151825281810192909252604001600020825181546001600160a01b0319166001600160a01b039091161781558282015180519192610a3f92600185019290910190613fba565b5060408201516002808301805492151560ff19938416179055606084015160038401556080840151600484018054919390929116906001908490811115610a9657634e487b7160e01b600052602160045260246000fd5b0217905550610aaa91506001905082615d54565b9050610925565b50505050505050505050565b6000818152600e60205260409020600101805460609190610add90615e05565b80601f0160208091040260200160405190810160405280929190818152602001828054610b0990615e05565b8015610b565780601f10610b2b57610100808354040283529160200191610b56565b820191906000526020600020905b815481529060010190602001808311610b3957829003601f168201915b50505050509050919050565b630a85bd0160e11b949350505050565b600f6020526000908152604090205481565b6008546040805163a217fddf60e01b815290516001600160a01b03909216916391d1485491839163a217fddf91600480820192602092909190829003018186803b158015610bd157600080fd5b505afa158015610be5573d6000803e3d6000fd5b505050506040513d601f19601f82011682018060405250810190610c099190614a17565b610c11612834565b6040518363ffffffff1660e01b8152600401610c2e929190614f3d565b60206040518083038186803b158015610c4657600080fd5b505afa158015610c5a573d6000803e3d6000fd5b505050506040513d601f19601f82011682018060405250810190610c7e91906149e3565b610c9a5760405162461bcd60e51b815260040161070c906151fd565b600860009054906101000a90046001600160a01b03166001600160a01b031663fd967f476040518163ffffffff1660e01b815260040160206040518083038186803b158015610ce857600080fd5b505afa158015610cfc573d6000803e3d6000fd5b505050506040513d601f19601f82011682018060405250810190610d209190614aec565b6fffffffffffffffffffffffffffffffff168110610d505760405162461bcd60e51b815260040161070c9061587b565b600b8190556040517f244ea8d7627f5a08f4299862bd5a45752842c183aee5b0fb0d1e4887bfa605b390610d85908390614f34565b60405180910390a150565b60005b8351811015610e7757600a54848281518110610dbf57634e487b7160e01b600052603260045260246000fd5b602002602001015110610de45760405162461bcd60e51b815260040161070c906150a2565b6000600e6000868481518110610e0a57634e487b7160e01b600052603260045260246000fd5b60209081029190910181015182528101919091526040016000206004015460ff166002811115610e4a57634e487b7160e01b600052602160045260246000fd5b14610e675760405162461bcd60e51b815260040161070c9061515c565b610e7081615e40565b9050610d93565b50610e84848484846128e2565b50505050565b7f8502233096d909befbda0999bb8ea2f3a6be3c138b9fbf003752a4c8bce86f6c81565b60009081526020819052604090206001015490565b60085460405163f2aab4b360e01b815260009182916001600160a01b039091169063f2aab4b390610ef8903090600401614cdb565b60206040518083038186803b158015610f1057600080fd5b505afa158015610f24573d6000803e3d6000fd5b505050506040513d601f19601f82011682018060405250810190610f48919061429d565b9150600860009054906101000a90046001600160a01b03166001600160a01b031663fd967f476040518163ffffffff1660e01b815260040160206040518083038186803b158015610f9857600080fd5b505afa158015610fac573d6000803e3d6000fd5b505050506040513d601f19601f82011682018060405250810190610fd09190614aec565b6fffffffffffffffffffffffffffffffff16600b5484610ff09190615d8c565b610ffa9190615d6c565b90509250929050565b61100b612834565b6001600160a01b0316856001600160a01b03161480611031575061103185610693612834565b61104d5760405162461bcd60e51b815260040161070c906154b1565b61105a8585858585612936565b5050505050565b61106b8282612b0a565b60008281526001602052604090206110839082612810565b505050565b600860009054906101000a90046001600160a01b03166001600160a01b0316639d2f83f06040518163ffffffff1660e01b815260040160206040518083038186803b1580156110d657600080fd5b505afa1580156110ea573d6000803e3d6000fd5b505050506040513d601f19601f8201168201806040525081019061110e91906149e3565b1561112b5760405162461bcd60e51b815260040161070c906156c5565b6111577f9f2df0fed2c77648de5860a4cc508cd0818c85b8b8a1ab4ceeef8d981c8956a661058c612834565b6111735760405162461bcd60e51b815260040161070c90615371565b600061117d612834565b600954600a5460405163608a17b160e11b8152929350600092839283926001600160a01b039091169163c1142f62916111c49188908e908e908e908e908e90600401615ba4565b600060405180830381600087803b1580156111de57600080fd5b505af11580156111f2573d6000803e3d6000fd5b505050506040513d6000823e601f3d908101601f1916820160405261121a9190810190614918565b92509250925080600a8190555061124284848460405180602001604052806000815250612843565b60005b8351811015610ab1576040518060a00160405280866001600160a01b0316815260200188888481811061128857634e487b7160e01b600052603260045260246000fd5b905060200281019061129a9190615cc1565b8080601f01602080910402602001604051908101604052809392919081815260200183838082843760009201829052509385525050600160208401525060408201526060016002815250600e600086848151811061130857634e487b7160e01b600052603260045260246000fd5b602090810291909101810151825281810192909252604001600020825181546001600160a01b0319166001600160a01b03909116178155828201518051919261135992600185019290910190613fba565b5060408201516002808301805492151560ff199384161790556060840151600384015560808401516004840180549193909291169060019084908111156113b057634e487b7160e01b600052602160045260246000fd5b02179055506113c491506001905082615d54565b9050611245565b6113d58282612b2e565b60008281526001602052604090206110839082612b70565b6114197f65d7a28e3265b37a6474929f336521b332c1681b933f6cb9f3376673440d862a61058c612834565b6114355760405162461bcd60e51b815260040161070c906158d8565b61143d612b85565b565b600854604080516309d2f83f60e41b815290516060926001600160a01b031691639d2f83f0916004808301926020929190829003018186803b15801561148457600080fd5b505afa158015611498573d6000803e3d6000fd5b505050506040513d601f19601f820116820180604052508101906114bc91906149e3565b156114d95760405162461bcd60e51b815260040161070c906156c5565b6115057f9f2df0fed2c77648de5860a4cc508cd0818c85b8b8a1ab4ceeef8d981c8956a661058c612834565b6115215760405162461bcd60e51b815260040161070c90615371565b878414801561152f57508786145b61154b5760405162461bcd60e51b815260040161070c9061581e565b876115685760405162461bcd60e51b815260040161070c9061540f565b8767ffffffffffffffff81111561158f57634e487b7160e01b600052604160045260246000fd5b6040519080825280602002602001820160405280156115b8578160200160208202803683370190505b50905060008867ffffffffffffffff8111156115e457634e487b7160e01b600052604160045260246000fd5b60405190808252806020026020018201604052801561160d578160200160208202803683370190505b50600a5490915060005b8a81101561193c578183828151811061164057634e487b7160e01b600052603260045260246000fd5b6020026020010181815250506040518060a0016040528061165f612834565b6001600160a01b031681526020018b8b8481811061168d57634e487b7160e01b600052603260045260246000fd5b905060200281019061169f9190615cc1565b8080601f016020809104026020016040519081016040528093929190818152602001838380828437600092018290525093855250505060208201819052604082018190526060909101526000838152600e60209081526040909120825181546001600160a01b0319166001600160a01b03909116178155828201518051919261173092600185019290910190613fba565b5060408201516002808301805492151560ff1993841617905560608401516003840155608084015160048401805491939092911690600190849081111561178757634e487b7160e01b600052602160045260246000fd5b021790555061179b91506001905083615d54565b9150818482815181106117be57634e487b7160e01b600052603260045260246000fd5b6020026020010181815250506040518060a001604052806117dd612834565b6001600160a01b031681526020018d8d8481811061180b57634e487b7160e01b600052603260045260246000fd5b905060200281019061181d9190615cc1565b8080601f01602080910402602001604051908101604052809392919081815260200183838082843760009201919091525050509082525060016020820181905260409091019061186d9085615dab565b8152602001600090526000838152600e60209081526040909120825181546001600160a01b0319166001600160a01b0390911617815582820151805191926118bd92600185019290910190613fba565b5060408201516002808301805492151560ff1993841617905560608401516003840155608084015160048401805491939092911690600190849081111561191457634e487b7160e01b600052602160045260246000fd5b021790555061192891506001905083615d54565b91508061193481615e40565b915050611617565b5080600a819055506119903083898980806020026020016040519081016040528093929190818152602001838360200280828437600092018290525060408051602081019091529081529250612843915050565b611a028c8489898080602002602001604051908101604052809392919081815260200183836020028082843760009201919091525050604080516020601f8d018190048102820181019092528b815292508b91508a908190840183828082843760009201919091525061284392505050565b611a0a612834565b6001600160a01b03167fe309c6cae6e35dcc6c2f37d5da32b19e0346074be56b9722cdf852d20fced6ee848d8d868e8e8e8e604051611a50989796959493929190614e54565b60405180910390a250509998505050505050505050565b6000828152600e60205260409020546001600160a01b0316611a87612834565b6001600160a01b031614611aad5760405162461bcd60e51b815260040161070c90615935565b6000828152600e602052604090206002015460ff1615611adf5760405162461bcd60e51b815260040161070c906157c1565b60008115611af657611af18242615d54565b611afa565b6000195b6000848152600f6020526040902081905590507ff01057f3c55599179571189c7758b5ce72994adea5a8dc33095fdc8fdff0711983611b37612834565b83604051611b4793929190615c75565b60405180910390a1505050565b60608151835114611b775760405162461bcd60e51b815260040161070c90615a4c565b6000835167ffffffffffffffff811115611ba157634e487b7160e01b600052604160045260246000fd5b604051908082528060200260200182016040528015611bca578160200160208202803683370190505b50905060005b8451811015611c6c57611c31858281518110611bfc57634e487b7160e01b600052603260045260246000fd5b6020026020010151858381518110611c2457634e487b7160e01b600052603260045260246000fd5b60200260200101516106e4565b828281518110611c5157634e487b7160e01b600052603260045260246000fd5b6020908102919091010152611c6581615e40565b9050611bd0565b509392505050565b6007546001600160a01b0390811691161490565b60055460ff165b90565b611c9a612834565b6001600160a01b0316836001600160a01b03161480611cc05750611cc083610693612834565b611cdc5760405162461bcd60e51b815260040161070c906152b7565b611083838383612bf3565b600a548310611d085760405162461bcd60e51b815260040161070c906150a2565b6000838152600e602052604081206004015460ff166002811115611d3c57634e487b7160e01b600052602160045260246000fd5b14611d595760405162461bcd60e51b815260040161070c9061515c565b610e8484848484612c91565b600a5481565b600d5460ff1681565b611da07f65d7a28e3265b37a6474929f336521b332c1681b933f6cb9f3376673440d862a61058c612834565b611dbc5760405162461bcd60e51b815260040161070c90615992565b61143d612ce5565b6008546040805163a217fddf60e01b815290516001600160a01b03909216916391d1485491839163a217fddf91600480820192602092909190829003018186803b158015611e1157600080fd5b505afa158015611e25573d6000803e3d6000fd5b505050506040513d601f19601f82011682018060405250810190611e499190614a17565b611e51612834565b6040518363ffffffff1660e01b8152600401611e6e929190614f3d565b60206040518083038186803b158015611e8657600080fd5b505afa158015611e9a573d6000803e3d6000fd5b505050506040513d601f19601f82011682018060405250810190611ebe91906149e3565b611eda5760405162461bcd60e51b815260040161070c906151fd565b600d805460ff1916911515919091179055565b6000828152600160205260408120611f059083612d40565b9392505050565b6000918252602082815260408084206001600160a01b0393909316845291905290205460ff1690565b6008546040805163a217fddf60e01b815290516001600160a01b03909216916391d1485491839163a217fddf91600480820192602092909190829003018186803b158015611f8257600080fd5b505afa158015611f96573d6000803e3d6000fd5b505050506040513d601f19601f82011682018060405250810190611fba9190614a17565b611fc2612834565b6040518363ffffffff1660e01b8152600401611fdf929190614f3d565b60206040518083038186803b158015611ff757600080fd5b505afa15801561200b573d6000803e3d6000fd5b505050506040513d601f19601f8201168201806040525081019061202f91906149e3565b61204b5760405162461bcd60e51b815260040161070c906151fd565b611083600c838361403e565b600e60205260009081526040902080546001820180546001600160a01b03909216929161208390615e05565b80601f01602080910402602001604051908101604052809291908181526020018280546120af90615e05565b80156120fc5780601f106120d1576101008083540402835291602001916120fc565b820191906000526020600020905b8154815290600101906020018083116120df57829003601f168201915b5050505060028301546003840154600490940154929360ff918216939092501685565b6008546040805163a217fddf60e01b815290516001600160a01b03909216916391d1485491839163a217fddf91600480820192602092909190829003018186803b15801561216c57600080fd5b505afa158015612180573d6000803e3d6000fd5b505050506040513d601f19601f820116820180604052508101906121a49190614a17565b6121ac612834565b6040518363ffffffff1660e01b81526004016121c9929190614f3d565b60206040518083038186803b1580156121e157600080fd5b505afa1580156121f5573d6000803e3d6000fd5b505050506040513d601f19601f8201168201806040525081019061221991906149e3565b6122355760405162461bcd60e51b815260040161070c906151fd565b600d805461ff001916610100831515021790556040517e4701906729f069b76305c2c6a0bfa1d4ba4ff97d08206c8716078bf7a5e02790610d85908390614f29565b600081565b816001600160a01b031661228e612834565b6001600160a01b031614156122b55760405162461bcd60e51b815260040161070c906159ef565b80600360006122c2612834565b6001600160a01b03908116825260208083019390935260409182016000908120918716808252919093529120805460ff191692151592909217909155612306612834565b6001600160a01b03167f17307eab39ab6107e8899845ad3d59bd9653f200f220920489ca2b5937696c318360405161233e9190614f29565b60405180910390a35050565b63bc197c8160e01b95945050505050565b60009081526006602052604090205490565b600c805461237a90615e05565b80601f01602080910402602001604051908101604052809291908181526020018280546123a690615e05565b80156123f35780601f106123c8576101008083540402835291602001916123f3565b820191906000526020600020905b8154815290600101906020018083116123d657829003601f168201915b505050505081565b600b5481565b600081815260016020526040812061073a90612d4c565b600860009054906101000a90046001600160a01b03166001600160a01b0316639d2f83f06040518163ffffffff1660e01b815260040160206040518083038186803b15801561246657600080fd5b505afa15801561247a573d6000803e3d6000fd5b505050506040513d601f19601f8201168201806040525081019061249e91906149e3565b156124bb5760405162461bcd60e51b815260040161070c906156c5565b60006124c5612834565b6000848152600e602052604090206002015490915060ff166124f95760405162461bcd60e51b815260040161070c90615764565b8161250482856106e4565b101580156125125750600082115b61252e5760405162461bcd60e51b815260040161070c90615314565b6000838152600e602052604081206004015460ff169081600281111561256457634e487b7160e01b600052602160045260246000fd5b141561257a57612575848484612d57565b610e84565b600181600281111561259c57634e487b7160e01b600052602160045260246000fd5b14156125ad57612575848484612e64565b60028160028111156125cf57634e487b7160e01b600052602160045260246000fd5b1415610e8457610e848483612eda565b7f9f2df0fed2c77648de5860a4cc508cd0818c85b8b8a1ab4ceeef8d981c8956a681565b6113d58282612f46565b600d54610100900460ff1681565b7f65d7a28e3265b37a6474929f336521b332c1681b933f6cb9f3376673440d862a81565b6060600c805461264e90615e05565b80601f016020809104026020016040519081016040528092919081815260200182805461267a90615e05565b80156126c75780601f1061269c576101008083540402835291602001916126c7565b820191906000526020600020905b8154815290600101906020018083116126aa57829003601f168201915b5050505050905090565b6001600160a01b03918216600090815260036020908152604080832093909416825291909152205460ff1690565b63f23a6e6160e01b95945050505050565b612718612834565b6001600160a01b0316856001600160a01b0316148061273e575061273e85610693612834565b61275a5760405162461bcd60e51b815260040161070c906152b7565b61105a8585858585612f65565b6000908152600e602052604090206002015460ff1690565b612787612834565b6001600160a01b0316836001600160a01b031614806127ad57506127ad83610693612834565b6127c95760405162461bcd60e51b815260040161070c906152b7565b6110838383836130a3565b60006127df33611c74565b156127f3575060131936013560601c611c8f565b6127fb612825565b9050611c8f565b61280c82826130d6565b5050565b6000611f05836001600160a01b03841661315b565b3390565b600061073a826131a5565b600061283e6127d4565b905090565b61284f848484846131ca565b60005b835181101561105a5782818151811061287b57634e487b7160e01b600052603260045260246000fd5b6020026020010151600660008684815181106128a757634e487b7160e01b600052603260045260246000fd5b6020026020010151815260200190815260200160002060008282546128cc9190615d54565b909155506128db905081615e40565b9050612852565b61290e7f9f2df0fed2c77648de5860a4cc508cd0818c85b8b8a1ab4ceeef8d981c8956a661058c612834565b61292a5760405162461bcd60e51b815260040161070c906155ae565b610e8484848484612843565b81518351146129575760405162461bcd60e51b815260040161070c90615aa9565b6001600160a01b03841661297d5760405162461bcd60e51b815260040161070c9061546c565b6000612987612834565b905061299781878787878761334c565b60005b8451811015612a9c5760008582815181106129c557634e487b7160e01b600052603260045260246000fd5b6020026020010151905060008583815181106129f157634e487b7160e01b600052603260045260246000fd5b60209081029190910181015160008481526002835260408082206001600160a01b038e168352909352919091205490915081811015612a425760405162461bcd60e51b815260040161070c9061560b565b60008381526002602090815260408083206001600160a01b038e8116855292528083208585039055908b16825281208054849290612a81908490615d54565b9250508190555050505080612a9590615e40565b905061299a565b50846001600160a01b0316866001600160a01b0316826001600160a01b03167f4a39dc06d4c0dbc64b70af90fd698a233a518aa5d07e595d983b8c0526c8f7fb8787604051612aec929190614efb565b60405180910390a4612b028187878787876134ba565b505050505050565b612b1382610eae565b612b2481612b1f612834565b6135c8565b61108383836130d6565b612b36612834565b6001600160a01b0316816001600160a01b031614612b665760405162461bcd60e51b815260040161070c90615b47565b61280c828261362c565b6000611f05836001600160a01b0384166136af565b612b8d611c88565b612ba95760405162461bcd60e51b815260040161070c9061506b565b6005805460ff191690557f5db9ee0a495bf2e6ff9c91a7834c1ba4fdd244a5e8aa4e537bd38aeae4b073aa612bdc612834565b604051612be99190614cdb565b60405180910390a1565b612bfe8383836137cc565b60005b8251811015610e8457818181518110612c2a57634e487b7160e01b600052603260045260246000fd5b602002602001015160066000858481518110612c5657634e487b7160e01b600052603260045260246000fd5b602002602001015181526020019081526020016000206000828254612c7b9190615dab565b90915550612c8a905081615e40565b9050612c01565b612cbd7f9f2df0fed2c77648de5860a4cc508cd0818c85b8b8a1ab4ceeef8d981c8956a661058c612834565b612cd95760405162461bcd60e51b815260040161070c906155ae565b610e8484848484613972565b612ced611c88565b15612d0a5760405162461bcd60e51b815260040161070c906153d8565b6005805460ff191660011790557f62e78cea01bee320cd4e420270b5ea74000d11b0c9f74754ebdbfc544b05a258612bdc612834565b6000611f0583836139a7565b600061073a826139df565b612d69612d62612834565b848461277f565b6000838152600e6020908152604080832060030154808452600f9092529091205442111580612da457506000818152600f6020526040902054155b612dc05760405162461bcd60e51b815260040161070c90615707565b604051637921219560e11b8152309063f242432a90612de9908390869086908990600401614d90565b600060405180830381600087803b158015612e0357600080fd5b505af1158015612e17573d6000803e3d6000fd5b505050508084836001600160a01b03167fa70022dc131dbd0be52c08bf87947e36b3e7d4934dce1efecf2d261c381d101786604051612e569190614f34565b60405180910390a450505050565b612e6f8184846130a3565b60095460405163f93bc78b60e01b81526001600160a01b039091169063f93bc78b90612ea390869086908690600401615ca2565b600060405180830381600087803b158015612ebd57600080fd5b505af1158015612ed1573d6000803e3d6000fd5b50505050505050565b612ee6818360016130a3565b600954604051635726a91b60e11b81526001600160a01b039091169063ae4d523690612f189085908590600401614f3d565b600060405180830381600087803b158015612f3257600080fd5b505af1158015612b02573d6000803e3d6000fd5b612f4f82610eae565b612f5b81612b1f612834565b611083838361362c565b6001600160a01b038416612f8b5760405162461bcd60e51b815260040161070c9061546c565b6000612f95612834565b9050612fb5818787612fa6886139e3565b612faf886139e3565b8761334c565b60008481526002602090815260408083206001600160a01b038a16845290915290205483811015612ff85760405162461bcd60e51b815260040161070c9061560b565b60008581526002602090815260408083206001600160a01b038b8116855292528083208785039055908816825281208054869290613037908490615d54565b92505081905550856001600160a01b0316876001600160a01b0316836001600160a01b03167fc3d58168c5ae7397731d063d5bbf3d657854427343f4c083240f7aacaa2d0f62888860405161308d929190615c94565b60405180910390a4612ed1828888888888613a3c565b6130ae838383613b0d565b600082815260066020526040812080548392906130cc908490615dab565b9091555050505050565b6130e08282611f0c565b61280c576000828152602081815260408083206001600160a01b03851684529091529020805460ff19166001179055613117612834565b6001600160a01b0316816001600160a01b0316837f2f8788117e7eff1d82e926ec794901d17c78024a50270940304540a733656f0d60405160405180910390a45050565b60006131678383613c20565b61319d5750815460018181018455600084815260208082209093018490558454848252828601909352604090209190915561073a565b50600061073a565b60006001600160e01b03198216630271189760e51b148061073a575061073a82613c38565b6001600160a01b0384166131f05760405162461bcd60e51b815260040161070c90615b06565b81518351146132115760405162461bcd60e51b815260040161070c90615aa9565b600061321b612834565b905061322c8160008787878761334c565b60005b84518110156132e45783818151811061325857634e487b7160e01b600052603260045260246000fd5b60200260200101516002600087848151811061328457634e487b7160e01b600052603260045260246000fd5b602002602001015181526020019081526020016000206000886001600160a01b03166001600160a01b0316815260200190815260200160002060008282546132cc9190615d54565b909155508190506132dc81615e40565b91505061322f565b50846001600160a01b031660006001600160a01b0316826001600160a01b03167f4a39dc06d4c0dbc64b70af90fd698a233a518aa5d07e595d983b8c0526c8f7fb8787604051613335929190614efb565b60405180910390a461105a816000878787876134ba565b61335a868686868686613c78565b600d5460ff16801561337457506001600160a01b03851615155b801561338857506001600160a01b03841615155b15613403576133b77f8502233096d909befbda0999bb8ea2f3a6be3c138b9fbf003752a4c8bce86f6c86611f0c565b806133e757506133e77f8502233096d909befbda0999bb8ea2f3a6be3c138b9fbf003752a4c8bce86f6c85611f0c565b6134035760405162461bcd60e51b815260040161070c90615668565b60005b8351811015612ed157600e600085838151811061343357634e487b7160e01b600052603260045260246000fd5b60209081029190910181015182528101919091526040016000206002015460ff161580156134695750600d54610100900460ff16155b156134a8576001600160a01b038616158061348c57506001600160a01b03861630145b6134a85760405162461bcd60e51b815260040161070c9061550e565b806134b281615e40565b915050613406565b6134cc846001600160a01b0316613c86565b15612b025760405163bc197c8160e01b81526001600160a01b0385169063bc197c81906135059089908990889088908890600401614cef565b602060405180830381600087803b15801561351f57600080fd5b505af192505050801561354f575060408051601f3d908101601f1916820190925261354c91810190614a90565b60015b6135985761355b615e8d565b806135665750613580565b8060405162461bcd60e51b815260040161070c9190614f69565b60405162461bcd60e51b815260040161070c90614f7c565b6001600160e01b0319811663bc197c8160e01b14612ed15760405162461bcd60e51b815260040161070c9061500e565b6135d28282611f0c565b61280c576135ea816001600160a01b03166014613c8c565b6135f5836020613c8c565b604051602001613606929190614c5a565b60408051601f198184030181529082905262461bcd60e51b825261070c91600401614f69565b6136368282611f0c565b1561280c576000828152602081815260408083206001600160a01b03851684529091529020805460ff1916905561366b612834565b6001600160a01b0316816001600160a01b0316837ff6391f5c32d9c69d2a47ea670b442974b53935d1edc7fd64eb21e047a839171b60405160405180910390a45050565b600081815260018301602052604081205480156137c25760006136d3600183615dab565b85549091506000906136e790600190615dab565b905081811461376857600086600001828154811061371557634e487b7160e01b600052603260045260246000fd5b906000526020600020015490508087600001848154811061374657634e487b7160e01b600052603260045260246000fd5b6000918252602080832090910192909255918252600188019052604090208390555b855486908061378757634e487b7160e01b600052603160045260246000fd5b60019003818190600052602060002001600090559055856001016000868152602001908152602001600020600090556001935050505061073a565b600091505061073a565b6001600160a01b0383166137f25760405162461bcd60e51b815260040161070c9061556b565b80518251146138135760405162461bcd60e51b815260040161070c90615aa9565b600061381d612834565b905061383d8185600086866040518060200160405280600081525061334c565b60005b835181101561392157600084828151811061386b57634e487b7160e01b600052603260045260246000fd5b60200260200101519050600084838151811061389757634e487b7160e01b600052603260045260246000fd5b60209081029190910181015160008481526002835260408082206001600160a01b038c1683529093529190912054909150818110156138e85760405162461bcd60e51b815260040161070c906151b9565b60009283526002602090815260408085206001600160a01b038b168652909152909220910390558061391981615e40565b915050613840565b5060006001600160a01b0316846001600160a01b0316826001600160a01b03167f4a39dc06d4c0dbc64b70af90fd698a233a518aa5d07e595d983b8c0526c8f7fb8686604051612e56929190614efb565b61397e84848484613e4b565b6000838152600660205260408120805484929061399c908490615d54565b909155505050505050565b60008260000182815481106139cc57634e487b7160e01b600052603260045260246000fd5b9060005260206000200154905092915050565b5490565b60408051600180825281830190925260609160009190602080830190803683370190505090508281600081518110613a2b57634e487b7160e01b600052603260045260246000fd5b602090810291909101015292915050565b613a4e846001600160a01b0316613c86565b15612b025760405163f23a6e6160e01b81526001600160a01b0385169063f23a6e6190613a879089908990889088908890600401614d4d565b602060405180830381600087803b158015613aa157600080fd5b505af1925050508015613ad1575060408051601f3d908101601f19168201909252613ace91810190614a90565b60015b613add5761355b615e8d565b6001600160e01b0319811663f23a6e6160e01b14612ed15760405162461bcd60e51b815260040161070c9061500e565b6001600160a01b038316613b335760405162461bcd60e51b815260040161070c9061556b565b6000613b3d612834565b9050613b6d81856000613b4f876139e3565b613b58876139e3565b6040518060200160405280600081525061334c565b60008381526002602090815260408083206001600160a01b038816845290915290205482811015613bb05760405162461bcd60e51b815260040161070c906151b9565b60008481526002602090815260408083206001600160a01b03808a16808652919093528184208786039055905190918516907fc3d58168c5ae7397731d063d5bbf3d657854427343f4c083240f7aacaa2d0f6290613c119089908990615c94565b60405180910390a45050505050565b60009081526001919091016020526040902054151590565b60006001600160e01b03198216636cdb3d1360e11b1480613c6957506001600160e01b031982166303a24d0760e21b145b8061073a575061073a82613f2d565b612b02868686868686613f52565b3b151590565b60606000613c9b836002615d8c565b613ca6906002615d54565b67ffffffffffffffff811115613ccc57634e487b7160e01b600052604160045260246000fd5b6040519080825280601f01601f191660200182016040528015613cf6576020820181803683370190505b509050600360fc1b81600081518110613d1f57634e487b7160e01b600052603260045260246000fd5b60200101906001600160f81b031916908160001a905350600f60fb1b81600181518110613d5c57634e487b7160e01b600052603260045260246000fd5b60200101906001600160f81b031916908160001a9053506000613d80846002615d8c565b613d8b906001615d54565b90505b6001811115613e2c577f303132333435363738396162636465660000000000000000000000000000000085600f1660108110613dda57634e487b7160e01b600052603260045260246000fd5b1a60f81b828281518110613dfe57634e487b7160e01b600052603260045260246000fd5b60200101906001600160f81b031916908160001a90535060049490941c93613e2581615dee565b9050613d8e565b508315611f055760405162461bcd60e51b815260040161070c90614fd9565b6001600160a01b038416613e715760405162461bcd60e51b815260040161070c90615b06565b6000613e7b612834565b9050613e8d81600087612fa6886139e3565b60008481526002602090815260408083206001600160a01b038916845290915281208054859290613ebf908490615d54565b92505081905550846001600160a01b031660006001600160a01b0316826001600160a01b03167fc3d58168c5ae7397731d063d5bbf3d657854427343f4c083240f7aacaa2d0f628787604051613f16929190615c94565b60405180910390a461105a81600087878787613a3c565b60006001600160e01b03198216635a05180f60e01b148061073a575061073a82613f85565b613f60868686868686612b02565b613f68611c88565b15612b025760405162461bcd60e51b815260040161070c9061525a565b60006001600160e01b03198216637965db0b60e01b148061073a57506301ffc9a760e01b6001600160e01b031983161461073a565b828054613fc690615e05565b90600052602060002090601f016020900481019282613fe8576000855561402e565b82601f1061400157805160ff191683800117855561402e565b8280016001018555821561402e579182015b8281111561402e578251825591602001919060010190614013565b5061403a9291506140b2565b5090565b82805461404a90615e05565b90600052602060002090601f01602090048101928261406c576000855561402e565b82601f106140855782800160ff1982351617855561402e565b8280016001018555821561402e579182015b8281111561402e578235825591602001919060010190614097565b5b8082111561403a57600081556001016140b3565b60008083601f8401126140d8578182fd5b50813567ffffffffffffffff8111156140ef578182fd5b602083019150836020808302850101111561410957600080fd5b9250929050565b600082601f830112614120578081fd5b8135602061413561413083615d30565b615d06565b8281528181019085830183850287018401881015614151578586fd5b855b8581101561416f57813584529284019290840190600101614153565b5090979650505050505050565b600082601f83011261418c578081fd5b8151602061419c61413083615d30565b82815281810190858301838502870184018810156141b8578586fd5b855b8581101561416f578151845292840192908401906001016141ba565b60008083601f8401126141e7578182fd5b50813567ffffffffffffffff8111156141fe578182fd5b60208301915083602082850101111561410957600080fd5b600082601f830112614226578081fd5b813567ffffffffffffffff81111561424057614240615e71565b614253601f8201601f1916602001615d06565b818152846020838601011115614267578283fd5b816020850160208301379081016020019190915292915050565b600060208284031215614292578081fd5b8135611f0581615f32565b6000602082840312156142ae578081fd5b8151611f0581615f32565b600080604083850312156142cb578081fd5b82356142d681615f32565b915060208301356142e681615f32565b809150509250929050565b600080600080600060a08688031215614308578081fd5b853561431381615f32565b9450602086013561432381615f32565b9350604086013567ffffffffffffffff8082111561433f578283fd5b61434b89838a01614110565b94506060880135915080821115614360578283fd5b61436c89838a01614110565b93506080880135915080821115614381578283fd5b5061438e88828901614216565b9150509295509295909350565b600080600080608085870312156143b0578182fd5b84356143bb81615f32565b935060208501356143cb81615f32565b925060408501359150606085013567ffffffffffffffff8111156143ed578182fd5b6143f987828801614216565b91505092959194509250565b600080600080600060a0868803121561441c578283fd5b853561442781615f32565b9450602086013561443781615f32565b93506040860135925060608601359150608086013567ffffffffffffffff811115614460578182fd5b61438e88828901614216565b600080600080600080600080600060a08a8c031215614489578687fd5b893561449481615f32565b985060208a013567ffffffffffffffff808211156144b0578889fd5b6144bc8d838e016140c7565b909a50985060408c01359150808211156144d4578586fd5b6144e08d838e016140c7565b909850965060608c01359150808211156144f8578586fd5b6145048d838e016140c7565b909650945060808c013591508082111561451c578384fd5b506145298c828d016141d6565b915080935050809150509295985092959850929598565b600080600060608486031215614554578081fd5b833561455f81615f32565b9250602084013567ffffffffffffffff8082111561457b578283fd5b61458787838801614110565b9350604086013591508082111561459c578283fd5b506145a986828701614110565b9150509250925092565b600080600080608085870312156145c8578182fd5b84356145d381615f32565b9350602085013567ffffffffffffffff808211156145ef578384fd5b6145fb88838901614110565b94506040870135915080821115614610578384fd5b61461c88838901614110565b93506060870135915080821115614631578283fd5b506143f987828801614216565b60008060408385031215614650578182fd5b823561465b81615f32565b915060208301356142e681615f4a565b6000806040838503121561467d578182fd5b823561468881615f32565b946020939093013593505050565b6000806000606084860312156146aa578081fd5b83356146b581615f32565b95602085013595506040909401359392505050565b600080600080608085870312156146df578182fd5b84356146ea81615f32565b93506020850135925060408501359150606085013567ffffffffffffffff8111156143ed578182fd5b60008060008060006060868803121561472a578283fd5b853567ffffffffffffffff80821115614741578485fd5b61474d89838a016140c7565b90975095506020880135915080821115614765578485fd5b61477189838a01614110565b94506040880135915080821115614786578283fd5b50614793888289016140c7565b969995985093965092949392505050565b600080600080600080608087890312156147bc578384fd5b863567ffffffffffffffff808211156147d3578586fd5b6147df8a838b016140c7565b909850965060208901359150808211156147f7578586fd5b6148038a838b01614110565b95506040890135915080821115614818578384fd5b6148248a838b01614110565b94506060890135915080821115614839578384fd5b5061484689828a016140c7565b979a9699509497509295939492505050565b6000806040838503121561486a578182fd5b823567ffffffffffffffff80821115614881578384fd5b818501915085601f830112614894578384fd5b813560206148a461413083615d30565b82815281810190858301838502870184018b10156148c0578889fd5b8896505b848710156148eb5780356148d781615f32565b8352600196909601959183019183016148c4565b5096505086013592505080821115614901578283fd5b5061490e85828601614110565b9150509250929050565b60008060006060848603121561492c578081fd5b835167ffffffffffffffff80821115614943578283fd5b61494f8783880161417c565b94506020860151915080821115614964578283fd5b506149718682870161417c565b925050604084015190509250925092565b60008060408385031215614994578182fd5b825167ffffffffffffffff8111156149aa578283fd5b6149b68582860161417c565b925050602083015190509250929050565b6000602082840312156149d8578081fd5b8135611f0581615f4a565b6000602082840312156149f4578081fd5b8151611f0581615f4a565b600060208284031215614a10578081fd5b5035919050565b600060208284031215614a28578081fd5b5051919050565b60008060408385031215614a41578182fd5b8235915060208301356142e681615f32565b60008060408385031215614a65578182fd5b50508035926020909101359150565b600060208284031215614a85578081fd5b8135611f0581615f58565b600060208284031215614aa1578081fd5b8151611f0581615f58565b60008060208385031215614abe578182fd5b823567ffffffffffffffff811115614ad4578283fd5b614ae0858286016141d6565b90969095509350505050565b600060208284031215614afd578081fd5b81516fffffffffffffffffffffffffffffffff81168114611f05578182fd5b60008284526020808501945082825b85811015614b59578135614b3e81615f32565b6001600160a01b031687529582019590820190600101614b2b565b509495945050505050565b818352602080840193600091908185020181018584845b87811015614bf25782840389528135601e19883603018112614b9b578687fd5b8701803567ffffffffffffffff811115614bb3578788fd5b803603891315614bc1578788fd5b8086528087830188880137858101870188905299860199601f01601f19169094018501935090840190600101614b7b565b5091979650505050505050565b6000815180845260208085019450808401835b83811015614b5957815187529582019590820190600101614c12565b60008151808452614c46816020860160208601615dc2565b601f01601f19169290920160200192915050565b60007f416363657373436f6e74726f6c3a206163636f756e742000000000000000000082528351614c92816017850160208801615dc2565b7f206973206d697373696e6720726f6c65200000000000000000000000000000006017918401918201528351614ccf816028840160208801615dc2565b01602801949350505050565b6001600160a01b0391909116815260200190565b60006001600160a01b03808816835280871660208401525060a06040830152614d1b60a0830186614bff565b8281036060840152614d2d8186614bff565b90508281036080840152614d418185614c2e565b98975050505050505050565b60006001600160a01b03808816835280871660208401525084604083015283606083015260a06080830152614d8560a0830184614c2e565b979650505050505050565b6001600160a01b0394851681529290931660208301526040820152606081019190915260a06080820181905260009082015260c00190565b60006001600160a01b038716825260a06020830152614dea60a0830187614c2e565b9050841515604083015283606083015260038310614e1857634e487b7160e01b600052602160045260246000fd5b8260808301529695505050505050565b6001600160a01b03929092168252602082015260400190565b600060208252611f056020830184614bff565b600060a08252614e6760a083018b614bff565b8281036020840152614e7a818a8c614b64565b90508281036040840152614e8e8189614bff565b90508281036060840152614ea3818789614b64565b905082810360808401528381527f07ffffffffffffffffffffffffffffffffffffffffffffffffffffffffffffff841115614edc578182fd5b6020840280866020840137016020019081529998505050505050505050565b600060408252614f0e6040830185614bff565b8281036020840152614f208185614bff565b95945050505050565b901515815260200190565b90815260200190565b9182526001600160a01b0316602082015260400190565b6001600160e01b031991909116815260200190565b600060208252611f056020830184614c2e565b60208082526034908201527f455243313135353a207472616e7366657220746f206e6f6e204552433131353560408201527f526563656976657220696d706c656d656e746572000000000000000000000000606082015260800190565b6020808252818101527f537472696e67733a20686578206c656e67746820696e73756666696369656e74604082015260600190565b60208082526028908201527f455243313135353a204552433131353552656365697665722072656a6563746560408201527f6420746f6b656e73000000000000000000000000000000000000000000000000606082015260800190565b60208082526014908201527f5061757361626c653a206e6f7420706175736564000000000000000000000000604082015260600190565b60208082526039908201527f4e4654436f6c6c656374696f6e3a2063616e6e6f742063616c6c20746869732060408201527f666e20666f72206372656174696e67206e6577204e4654732e00000000000000606082015260800190565b6020808252602b908201527f455243313135353a2062616c616e636520717565727920666f7220746865207a60408201527f65726f2061646472657373000000000000000000000000000000000000000000606082015260800190565b6020808252603a908201527f4e4654436f6c6c656374696f6e3a2063616e6e6f7420667265656c79206d696e60408201527f74206d6f7265206f66204552433230206f72204552433732312e000000000000606082015260800190565b60208082526024908201527f455243313135353a206275726e20616d6f756e7420657863656564732062616c604082015263616e636560e01b606082015260800190565b60208082526038908201527f4163636573734e46543a206f6e6c7920612070726f746f636f6c2061646d696e60408201527f2063616e2063616c6c20746869732066756e6374696f6e2e0000000000000000606082015260800190565b6020808252602c908201527f455243313135355061757361626c653a20746f6b656e207472616e736665722060408201527f7768696c65207061757365640000000000000000000000000000000000000000606082015260800190565b60208082526029908201527f455243313135353a2063616c6c6572206973206e6f74206f776e6572206e6f7260408201527f20617070726f7665640000000000000000000000000000000000000000000000606082015260800190565b6020808252602e908201527f4163636573734e46543a2043616e6e6f742072656465656d206d6f7265204e4660408201527f5473207468616e206f776e65642e000000000000000000000000000000000000606082015260800190565b60208082526041908201527f4163636573734e46543a204f6e6c79206163636f756e74732077697468204d4960408201527f4e5445525f524f4c452063616e2063616c6c20746869732066756e6374696f6e6060820152601760f91b608082015260a00190565b60208082526010908201527f5061757361626c653a2070617573656400000000000000000000000000000000604082015260600190565b60208082526028908201527f4163636573734e46543a204d75737420637265617465206174206c656173742060408201527f6f6e65204e46542e000000000000000000000000000000000000000000000000606082015260800190565b60208082526025908201527f455243313135353a207472616e7366657220746f20746865207a65726f206164604082015264647265737360d81b606082015260800190565b60208082526032908201527f455243313135353a207472616e736665722063616c6c6572206973206e6f742060408201527f6f776e6572206e6f7220617070726f7665640000000000000000000000000000606082015260800190565b60208082526039908201527f4163636573734e46543a2063616e6e6f74207472616e7366657220616e20616360408201527f63657373204e465420746861742069732072656465656d656400000000000000606082015260800190565b60208082526023908201527f455243313135353a206275726e2066726f6d20746865207a65726f206164647260408201526265737360e81b606082015260800190565b60208082526038908201527f455243313135355072657365744d696e7465725061757365723a206d7573742060408201527f68617665206d696e74657220726f6c6520746f206d696e740000000000000000606082015260800190565b6020808252602a908201527f455243313135353a20696e73756666696369656e742062616c616e636520666f60408201527f72207472616e7366657200000000000000000000000000000000000000000000606082015260800190565b6020808252603c908201527f4163636573734e46543a205472616e736665727320617265207265737472696360408201527f74656420746f205452414e534645525f524f4c4520686f6c6465727300000000606082015260800190565b60208082526022908201527f4163636573734e46543a205468652070726f746f636f6c206973207061757365604082015261321760f11b606082015260800190565b6020808252602e908201527f4163636573734e46543a2057696e646f7720746f2072656465656d206163636560408201527f73732068617320636c6f7365642e000000000000000000000000000000000000606082015260800190565b60208082526033908201527f4163636573734e46543a205468697320746f6b656e206973206e6f742072656460408201527f65656d61626c6520666f72206163636573732e00000000000000000000000000606082015260800190565b60208082526034908201527f4163636573734e46543a2063616e207365742072656465656d2074696d65206660408201527f6f72206f6e6c7920416363657373204e4654732e000000000000000000000000606082015260800190565b60208082526036908201527f4163636573734e46543a204d757374207370656369667920657175616c206e7560408201527f6d626572206f6620636f6e6669672076616c7565732e00000000000000000000606082015260800190565b6020808252602a908201527f4e46543a204270732070726f7669646564206d757374206265206c657373207460408201527f68616e2031302c30303000000000000000000000000000000000000000000000606082015260800190565b6020808252603b908201527f455243313135355072657365744d696e7465725061757365723a206d7573742060408201527f686176652070617573657220726f6c6520746f20756e70617573650000000000606082015260800190565b60208082526033908201527f4163636573734e46543a206f6e6c79207468652063726561746f722063616e2060408201527f63616c6c20746869732066756e6374696f6e2e00000000000000000000000000606082015260800190565b60208082526039908201527f455243313135355072657365744d696e7465725061757365723a206d7573742060408201527f686176652070617573657220726f6c6520746f20706175736500000000000000606082015260800190565b60208082526029908201527f455243313135353a2073657474696e6720617070726f76616c2073746174757360408201527f20666f722073656c660000000000000000000000000000000000000000000000606082015260800190565b60208082526029908201527f455243313135353a206163636f756e747320616e6420696473206c656e67746860408201527f206d69736d617463680000000000000000000000000000000000000000000000606082015260800190565b60208082526028908201527f455243313135353a2069647320616e6420616d6f756e7473206c656e6774682060408201527f6d69736d61746368000000000000000000000000000000000000000000000000606082015260800190565b60208082526021908201527f455243313135353a206d696e7420746f20746865207a65726f206164647265736040820152607360f81b606082015260800190565b6020808252602f908201527f416363657373436f6e74726f6c3a2063616e206f6e6c792072656e6f756e636560408201527f20726f6c657320666f722073656c660000000000000000000000000000000000606082015260800190565b60008882526001600160a01b038816602083015260a06040830152615bcd60a083018789614b1c565b8281036060840152615bdf8187614bff565b90508281036080840152615bf4818587614b64565b9a9950505050505050505050565b60008982526001600160a01b038916602083015260c06040830152615c2b60c08301888a614b1c565b8281036060840152615c3d8188614bff565b90508281036080840152615c518187614bff565b905082810360a0840152615c66818587614b64565b9b9a5050505050505050505050565b9283526001600160a01b03919091166020830152604082015260600190565b918252602082015260400190565b92835260208301919091526001600160a01b0316604082015260600190565b6000808335601e19843603018112615cd7578283fd5b83018035915067ffffffffffffffff821115615cf1578283fd5b60200191503681900382131561410957600080fd5b60405181810167ffffffffffffffff81118282101715615d2857615d28615e71565b604052919050565b600067ffffffffffffffff821115615d4a57615d4a615e71565b5060209081020190565b60008219821115615d6757615d67615e5b565b500190565b600082615d8757634e487b7160e01b81526012600452602481fd5b500490565b6000816000190483118215151615615da657615da6615e5b565b500290565b600082821015615dbd57615dbd615e5b565b500390565b60005b83811015615ddd578181015183820152602001615dc5565b83811115610e845750506000910152565b600081615dfd57615dfd615e5b565b506000190190565b600281046001821680615e1957607f821691505b60208210811415615e3a57634e487b7160e01b600052602260045260246000fd5b50919050565b6000600019821415615e5457615e54615e5b565b5060010190565b634e487b7160e01b600052601160045260246000fd5b634e487b7160e01b600052604160045260246000fd5b60e01c90565b600060443d1015615e9d57611c8f565b600481823e6308c379a0615eb18251615e87565b14615ebb57611c8f565b6040513d600319016004823e80513d67ffffffffffffffff8160248401118184111715615eeb5750505050611c8f565b82840192508251915080821115615f055750505050611c8f565b503d83016020828401011115615f1d57505050611c8f565b601f01601f1916810160200160405291505090565b6001600160a01b0381168114615f4757600080fd5b50565b8015158114615f4757600080fd5b6001600160e01b031981168114615f4757600080fdfea164736f6c6343000800000a",
  "linkReferences": {},
  "deployedLinkReferences": {}
}