{
  "_format": "hh-sol-artifact-1",
  "contractName": "AccessNFT",
  "sourceName": "contracts/AccessNFT.sol",
  "abi": [
    {
      "inputs": [
        {
          "internalType": "address payable",
          "name": "_controlCenter",
          "type": "address"
        },
        {
          "internalType": "address",
          "name": "_trustedForwarder",
          "type": "address"
        },
        {
          "internalType": "string",
          "name": "_uri",
          "type": "string"
        }
      ],
      "stateMutability": "nonpayable",
      "type": "constructor"
    },
    {
      "anonymous": false,
      "inputs": [
        {
          "indexed": true,
          "internalType": "address",
          "name": "redeemer",
          "type": "address"
        },
        {
          "indexed": true,
          "internalType": "uint256",
          "name": "nftTokenId",
          "type": "uint256"
        },
        {
          "indexed": true,
          "internalType": "uint256",
          "name": "accessNftId",
          "type": "uint256"
        },
        {
          "indexed": false,
          "internalType": "uint256",
          "name": "amount",
          "type": "uint256"
        }
      ],
      "name": "AccessNFTRedeemed",
      "type": "event"
    },
    {
      "anonymous": false,
      "inputs": [
        {
          "indexed": true,
          "internalType": "address",
          "name": "creator",
          "type": "address"
        },
        {
          "indexed": false,
          "internalType": "uint256[]",
          "name": "nftIds",
          "type": "uint256[]"
        },
        {
          "indexed": false,
          "internalType": "string[]",
          "name": "nftURIs",
          "type": "string[]"
        },
        {
          "indexed": false,
          "internalType": "uint256[]",
          "name": "acessNftIds",
          "type": "uint256[]"
        },
        {
          "indexed": false,
          "internalType": "string[]",
          "name": "accessNftURIs",
          "type": "string[]"
        },
        {
          "indexed": false,
          "internalType": "uint256[]",
          "name": "nftSupplies",
          "type": "uint256[]"
        }
      ],
      "name": "AccessNFTsCreated",
      "type": "event"
    },
    {
      "anonymous": false,
      "inputs": [
        {
          "indexed": true,
          "internalType": "address",
          "name": "account",
          "type": "address"
        },
        {
          "indexed": true,
          "internalType": "address",
          "name": "operator",
          "type": "address"
        },
        {
          "indexed": false,
          "internalType": "bool",
          "name": "approved",
          "type": "bool"
        }
      ],
      "name": "ApprovalForAll",
      "type": "event"
    },
    {
      "anonymous": false,
      "inputs": [
        {
          "indexed": false,
          "internalType": "uint256",
          "name": "accessNftId",
          "type": "uint256"
        },
        {
          "indexed": false,
          "internalType": "address",
          "name": "creator",
          "type": "address"
        },
        {
          "indexed": false,
          "internalType": "uint256",
          "name": "lastTimeToRedeem",
          "type": "uint256"
        }
      ],
      "name": "LastRedeemTimeUpdated",
      "type": "event"
    },
    {
      "anonymous": false,
      "inputs": [
        {
          "indexed": false,
          "internalType": "address",
          "name": "account",
          "type": "address"
        }
      ],
      "name": "Paused",
      "type": "event"
    },
    {
      "anonymous": false,
      "inputs": [
        {
          "indexed": true,
          "internalType": "bytes32",
          "name": "role",
          "type": "bytes32"
        },
        {
          "indexed": true,
          "internalType": "bytes32",
          "name": "previousAdminRole",
          "type": "bytes32"
        },
        {
          "indexed": true,
          "internalType": "bytes32",
          "name": "newAdminRole",
          "type": "bytes32"
        }
      ],
      "name": "RoleAdminChanged",
      "type": "event"
    },
    {
      "anonymous": false,
      "inputs": [
        {
          "indexed": true,
          "internalType": "bytes32",
          "name": "role",
          "type": "bytes32"
        },
        {
          "indexed": true,
          "internalType": "address",
          "name": "account",
          "type": "address"
        },
        {
          "indexed": true,
          "internalType": "address",
          "name": "sender",
          "type": "address"
        }
      ],
      "name": "RoleGranted",
      "type": "event"
    },
    {
      "anonymous": false,
      "inputs": [
        {
          "indexed": true,
          "internalType": "bytes32",
          "name": "role",
          "type": "bytes32"
        },
        {
          "indexed": true,
          "internalType": "address",
          "name": "account",
          "type": "address"
        },
        {
          "indexed": true,
          "internalType": "address",
          "name": "sender",
          "type": "address"
        }
      ],
      "name": "RoleRevoked",
      "type": "event"
    },
    {
      "anonymous": false,
      "inputs": [
        {
          "indexed": false,
          "internalType": "uint256",
          "name": "royaltyBps",
          "type": "uint256"
        }
      ],
      "name": "RoyaltyUpdated",
      "type": "event"
    },
    {
      "anonymous": false,
      "inputs": [
        {
          "indexed": true,
          "internalType": "address",
          "name": "operator",
          "type": "address"
        },
        {
          "indexed": true,
          "internalType": "address",
          "name": "from",
          "type": "address"
        },
        {
          "indexed": true,
          "internalType": "address",
          "name": "to",
          "type": "address"
        },
        {
          "indexed": false,
          "internalType": "uint256[]",
          "name": "ids",
          "type": "uint256[]"
        },
        {
          "indexed": false,
          "internalType": "uint256[]",
          "name": "values",
          "type": "uint256[]"
        }
      ],
      "name": "TransferBatch",
      "type": "event"
    },
    {
      "anonymous": false,
      "inputs": [
        {
          "indexed": true,
          "internalType": "address",
          "name": "operator",
          "type": "address"
        },
        {
          "indexed": true,
          "internalType": "address",
          "name": "from",
          "type": "address"
        },
        {
          "indexed": true,
          "internalType": "address",
          "name": "to",
          "type": "address"
        },
        {
          "indexed": false,
          "internalType": "uint256",
          "name": "id",
          "type": "uint256"
        },
        {
          "indexed": false,
          "internalType": "uint256",
          "name": "value",
          "type": "uint256"
        }
      ],
      "name": "TransferSingle",
      "type": "event"
    },
    {
      "anonymous": false,
      "inputs": [
        {
          "indexed": false,
          "internalType": "string",
          "name": "value",
          "type": "string"
        },
        {
          "indexed": true,
          "internalType": "uint256",
          "name": "id",
          "type": "uint256"
        }
      ],
      "name": "URI",
      "type": "event"
    },
    {
      "anonymous": false,
      "inputs": [
        {
          "indexed": false,
          "internalType": "address",
          "name": "account",
          "type": "address"
        }
      ],
      "name": "Unpaused",
      "type": "event"
    },
    {
      "inputs": [],
      "name": "DEFAULT_ADMIN_ROLE",
      "outputs": [
        {
          "internalType": "bytes32",
          "name": "",
          "type": "bytes32"
        }
      ],
      "stateMutability": "view",
      "type": "function"
    },
    {
      "inputs": [],
      "name": "MINTER_ROLE",
      "outputs": [
        {
          "internalType": "bytes32",
          "name": "",
          "type": "bytes32"
        }
      ],
      "stateMutability": "view",
      "type": "function"
    },
    {
      "inputs": [],
      "name": "PAUSER_ROLE",
      "outputs": [
        {
          "internalType": "bytes32",
          "name": "",
          "type": "bytes32"
        }
      ],
      "stateMutability": "view",
      "type": "function"
    },
    {
      "inputs": [],
      "name": "TRANSFER_ROLE",
      "outputs": [
        {
          "internalType": "bytes32",
          "name": "",
          "type": "bytes32"
        }
      ],
      "stateMutability": "view",
      "type": "function"
    },
    {
      "inputs": [],
      "name": "_contractURI",
      "outputs": [
        {
          "internalType": "string",
          "name": "",
          "type": "string"
        }
      ],
      "stateMutability": "view",
      "type": "function"
    },
    {
      "inputs": [
        {
          "internalType": "address",
          "name": "account",
          "type": "address"
        },
        {
          "internalType": "uint256",
          "name": "id",
          "type": "uint256"
        }
      ],
      "name": "balanceOf",
      "outputs": [
        {
          "internalType": "uint256",
          "name": "",
          "type": "uint256"
        }
      ],
      "stateMutability": "view",
      "type": "function"
    },
    {
      "inputs": [
        {
          "internalType": "address[]",
          "name": "accounts",
          "type": "address[]"
        },
        {
          "internalType": "uint256[]",
          "name": "ids",
          "type": "uint256[]"
        }
      ],
      "name": "balanceOfBatch",
      "outputs": [
        {
          "internalType": "uint256[]",
          "name": "",
          "type": "uint256[]"
        }
      ],
      "stateMutability": "view",
      "type": "function"
    },
    {
      "inputs": [
        {
          "internalType": "address",
          "name": "account",
          "type": "address"
        },
        {
          "internalType": "uint256",
          "name": "id",
          "type": "uint256"
        },
        {
          "internalType": "uint256",
          "name": "value",
          "type": "uint256"
        }
      ],
      "name": "burn",
      "outputs": [],
      "stateMutability": "nonpayable",
      "type": "function"
    },
    {
      "inputs": [
        {
          "internalType": "address",
          "name": "account",
          "type": "address"
        },
        {
          "internalType": "uint256[]",
          "name": "ids",
          "type": "uint256[]"
        },
        {
          "internalType": "uint256[]",
          "name": "values",
          "type": "uint256[]"
        }
      ],
      "name": "burnBatch",
      "outputs": [],
      "stateMutability": "nonpayable",
      "type": "function"
    },
    {
      "inputs": [],
      "name": "contractURI",
      "outputs": [
        {
          "internalType": "string",
          "name": "",
          "type": "string"
        }
      ],
      "stateMutability": "view",
      "type": "function"
    },
    {
      "inputs": [
        {
          "internalType": "string[]",
          "name": "_nftURIs",
          "type": "string[]"
        },
        {
          "internalType": "string[]",
          "name": "_accessNftURIs",
          "type": "string[]"
        },
        {
          "internalType": "uint256[]",
          "name": "_nftSupplies",
          "type": "uint256[]"
        }
      ],
      "name": "createAccessNfts",
      "outputs": [
        {
          "internalType": "uint256[]",
          "name": "nftIds",
          "type": "uint256[]"
        }
      ],
      "stateMutability": "nonpayable",
      "type": "function"
    },
    {
      "inputs": [
        {
          "internalType": "address",
          "name": "_pack",
          "type": "address"
        },
        {
          "internalType": "string[]",
          "name": "_nftURIs",
          "type": "string[]"
        },
        {
          "internalType": "string[]",
          "name": "_accessNftURIs",
          "type": "string[]"
        },
        {
          "internalType": "uint256[]",
          "name": "_nftSupplies",
          "type": "uint256[]"
        },
        {
          "internalType": "string",
          "name": "_packURI",
          "type": "string"
        },
        {
          "internalType": "uint256",
          "name": "_secondsUntilOpenStart",
          "type": "uint256"
        },
        {
          "internalType": "uint256",
          "name": "_secondsUntilOpenEnd",
          "type": "uint256"
        },
        {
          "internalType": "uint256",
          "name": "_nftsPerOpen",
          "type": "uint256"
        }
      ],
      "name": "createAccessPack",
      "outputs": [],
      "stateMutability": "nonpayable",
      "type": "function"
    },
    {
      "inputs": [
        {
          "internalType": "bytes32",
          "name": "role",
          "type": "bytes32"
        }
      ],
      "name": "getRoleAdmin",
      "outputs": [
        {
          "internalType": "bytes32",
          "name": "",
          "type": "bytes32"
        }
      ],
      "stateMutability": "view",
      "type": "function"
    },
    {
      "inputs": [
        {
          "internalType": "bytes32",
          "name": "role",
          "type": "bytes32"
        },
        {
          "internalType": "uint256",
          "name": "index",
          "type": "uint256"
        }
      ],
      "name": "getRoleMember",
      "outputs": [
        {
          "internalType": "address",
          "name": "",
          "type": "address"
        }
      ],
      "stateMutability": "view",
      "type": "function"
    },
    {
      "inputs": [
        {
          "internalType": "bytes32",
          "name": "role",
          "type": "bytes32"
        }
      ],
      "name": "getRoleMemberCount",
      "outputs": [
        {
          "internalType": "uint256",
          "name": "",
          "type": "uint256"
        }
      ],
      "stateMutability": "view",
      "type": "function"
    },
    {
      "inputs": [
        {
          "internalType": "bytes32",
          "name": "role",
          "type": "bytes32"
        },
        {
          "internalType": "address",
          "name": "account",
          "type": "address"
        }
      ],
      "name": "grantRole",
      "outputs": [],
      "stateMutability": "nonpayable",
      "type": "function"
    },
    {
      "inputs": [
        {
          "internalType": "bytes32",
          "name": "role",
          "type": "bytes32"
        },
        {
          "internalType": "address",
          "name": "account",
          "type": "address"
        }
      ],
      "name": "hasRole",
      "outputs": [
        {
          "internalType": "bool",
          "name": "",
          "type": "bool"
        }
      ],
      "stateMutability": "view",
      "type": "function"
    },
    {
      "inputs": [
        {
          "internalType": "address",
          "name": "account",
          "type": "address"
        },
        {
          "internalType": "address",
          "name": "operator",
          "type": "address"
        }
      ],
      "name": "isApprovedForAll",
      "outputs": [
        {
          "internalType": "bool",
          "name": "",
          "type": "bool"
        }
      ],
      "stateMutability": "view",
      "type": "function"
    },
    {
      "inputs": [
        {
          "internalType": "uint256",
          "name": "_nftId",
          "type": "uint256"
        }
      ],
      "name": "isRedeemed",
      "outputs": [
        {
          "internalType": "bool",
          "name": "",
          "type": "bool"
        }
      ],
      "stateMutability": "view",
      "type": "function"
    },
    {
      "inputs": [],
      "name": "isRestrictedTransfer",
      "outputs": [
        {
          "internalType": "bool",
          "name": "",
          "type": "bool"
        }
      ],
      "stateMutability": "view",
      "type": "function"
    },
    {
      "inputs": [
        {
          "internalType": "address",
          "name": "forwarder",
          "type": "address"
        }
      ],
      "name": "isTrustedForwarder",
      "outputs": [
        {
          "internalType": "bool",
          "name": "",
          "type": "bool"
        }
      ],
      "stateMutability": "view",
      "type": "function"
    },
    {
      "inputs": [
        {
          "internalType": "uint256",
          "name": "",
          "type": "uint256"
        }
      ],
      "name": "lastTimeToRedeem",
      "outputs": [
        {
          "internalType": "uint256",
          "name": "",
          "type": "uint256"
        }
      ],
      "stateMutability": "view",
      "type": "function"
    },
    {
      "inputs": [
        {
          "internalType": "address",
          "name": "to",
          "type": "address"
        },
        {
          "internalType": "uint256",
          "name": "id",
          "type": "uint256"
        },
        {
          "internalType": "uint256",
          "name": "amount",
          "type": "uint256"
        },
        {
          "internalType": "bytes",
          "name": "data",
          "type": "bytes"
        }
      ],
      "name": "mint",
      "outputs": [],
      "stateMutability": "nonpayable",
      "type": "function"
    },
    {
      "inputs": [
        {
          "internalType": "address",
          "name": "to",
          "type": "address"
        },
        {
          "internalType": "uint256[]",
          "name": "ids",
          "type": "uint256[]"
        },
        {
          "internalType": "uint256[]",
          "name": "amounts",
          "type": "uint256[]"
        },
        {
          "internalType": "bytes",
          "name": "data",
          "type": "bytes"
        }
      ],
      "name": "mintBatch",
      "outputs": [],
      "stateMutability": "nonpayable",
      "type": "function"
    },
    {
      "inputs": [],
      "name": "nextTokenId",
      "outputs": [
        {
          "internalType": "uint256",
          "name": "",
          "type": "uint256"
        }
      ],
      "stateMutability": "view",
      "type": "function"
    },
    {
      "inputs": [
        {
          "internalType": "uint256",
          "name": "",
          "type": "uint256"
        }
      ],
      "name": "nftInfo",
      "outputs": [
        {
          "internalType": "address",
          "name": "creator",
          "type": "address"
        },
        {
          "internalType": "string",
          "name": "uri",
          "type": "string"
        },
        {
          "internalType": "uint256",
          "name": "supply",
          "type": "uint256"
        },
        {
          "internalType": "bool",
          "name": "isAccess",
          "type": "bool"
        },
        {
          "internalType": "uint256",
          "name": "accessNftId",
          "type": "uint256"
        },
        {
          "internalType": "enum AccessNFT.UnderlyingType",
          "name": "underlyingType",
          "type": "uint8"
        }
      ],
      "stateMutability": "view",
      "type": "function"
    },
    {
      "inputs": [
        {
          "internalType": "address",
          "name": "",
          "type": "address"
        },
        {
          "internalType": "address",
          "name": "",
          "type": "address"
        },
        {
          "internalType": "uint256[]",
          "name": "",
          "type": "uint256[]"
        },
        {
          "internalType": "uint256[]",
          "name": "",
          "type": "uint256[]"
        },
        {
          "internalType": "bytes",
          "name": "",
          "type": "bytes"
        }
      ],
      "name": "onERC1155BatchReceived",
      "outputs": [
        {
          "internalType": "bytes4",
          "name": "",
          "type": "bytes4"
        }
      ],
      "stateMutability": "nonpayable",
      "type": "function"
    },
    {
      "inputs": [
        {
          "internalType": "address",
          "name": "",
          "type": "address"
        },
        {
          "internalType": "address",
          "name": "",
          "type": "address"
        },
        {
          "internalType": "uint256",
          "name": "",
          "type": "uint256"
        },
        {
          "internalType": "uint256",
          "name": "",
          "type": "uint256"
        },
        {
          "internalType": "bytes",
          "name": "",
          "type": "bytes"
        }
      ],
      "name": "onERC1155Received",
      "outputs": [
        {
          "internalType": "bytes4",
          "name": "",
          "type": "bytes4"
        }
      ],
      "stateMutability": "nonpayable",
      "type": "function"
    },
    {
      "inputs": [],
      "name": "pause",
      "outputs": [],
      "stateMutability": "nonpayable",
      "type": "function"
    },
    {
      "inputs": [],
      "name": "paused",
      "outputs": [
        {
          "internalType": "bool",
          "name": "",
          "type": "bool"
        }
      ],
      "stateMutability": "view",
      "type": "function"
    },
    {
      "inputs": [
        {
          "internalType": "uint256",
          "name": "_tokenId",
          "type": "uint256"
        },
        {
          "internalType": "uint256",
          "name": "_amount",
          "type": "uint256"
        }
      ],
      "name": "redeemAccess",
      "outputs": [],
      "stateMutability": "nonpayable",
      "type": "function"
    },
    {
      "inputs": [
        {
          "internalType": "bytes32",
          "name": "role",
          "type": "bytes32"
        },
        {
          "internalType": "address",
          "name": "account",
          "type": "address"
        }
      ],
      "name": "renounceRole",
      "outputs": [],
      "stateMutability": "nonpayable",
      "type": "function"
    },
    {
      "inputs": [
        {
          "internalType": "bytes32",
          "name": "role",
          "type": "bytes32"
        },
        {
          "internalType": "address",
          "name": "account",
          "type": "address"
        }
      ],
      "name": "revokeRole",
      "outputs": [],
      "stateMutability": "nonpayable",
      "type": "function"
    },
    {
      "inputs": [],
      "name": "royaltyBps",
      "outputs": [
        {
          "internalType": "uint256",
          "name": "",
          "type": "uint256"
        }
      ],
      "stateMutability": "view",
      "type": "function"
    },
    {
      "inputs": [
        {
          "internalType": "uint256",
          "name": "",
          "type": "uint256"
        },
        {
          "internalType": "uint256",
          "name": "salePrice",
          "type": "uint256"
        }
      ],
      "name": "royaltyInfo",
      "outputs": [
        {
          "internalType": "address",
          "name": "receiver",
          "type": "address"
        },
        {
          "internalType": "uint256",
          "name": "royaltyAmount",
          "type": "uint256"
        }
      ],
      "stateMutability": "view",
      "type": "function"
    },
    {
      "inputs": [
        {
          "internalType": "address",
          "name": "from",
          "type": "address"
        },
        {
          "internalType": "address",
          "name": "to",
          "type": "address"
        },
        {
          "internalType": "uint256[]",
          "name": "ids",
          "type": "uint256[]"
        },
        {
          "internalType": "uint256[]",
          "name": "amounts",
          "type": "uint256[]"
        },
        {
          "internalType": "bytes",
          "name": "data",
          "type": "bytes"
        }
      ],
      "name": "safeBatchTransferFrom",
      "outputs": [],
      "stateMutability": "nonpayable",
      "type": "function"
    },
    {
      "inputs": [
        {
          "internalType": "address",
          "name": "from",
          "type": "address"
        },
        {
          "internalType": "address",
          "name": "to",
          "type": "address"
        },
        {
          "internalType": "uint256",
          "name": "id",
          "type": "uint256"
        },
        {
          "internalType": "uint256",
          "name": "amount",
          "type": "uint256"
        },
        {
          "internalType": "bytes",
          "name": "data",
          "type": "bytes"
        }
      ],
      "name": "safeTransferFrom",
      "outputs": [],
      "stateMutability": "nonpayable",
      "type": "function"
    },
    {
      "inputs": [
        {
          "internalType": "address",
          "name": "operator",
          "type": "address"
        },
        {
          "internalType": "bool",
          "name": "approved",
          "type": "bool"
        }
      ],
      "name": "setApprovalForAll",
      "outputs": [],
      "stateMutability": "nonpayable",
      "type": "function"
    },
    {
      "inputs": [
        {
          "internalType": "string",
          "name": "_URI",
          "type": "string"
        }
      ],
      "name": "setContractURI",
      "outputs": [],
      "stateMutability": "nonpayable",
      "type": "function"
    },
    {
      "inputs": [
        {
          "internalType": "uint256",
          "name": "_tokenId",
          "type": "uint256"
        },
        {
          "internalType": "uint256",
          "name": "_secondsUntilRedeem",
          "type": "uint256"
        }
      ],
      "name": "setLastTimeToRedeem",
      "outputs": [],
      "stateMutability": "nonpayable",
      "type": "function"
    },
    {
      "inputs": [
        {
          "internalType": "bool",
          "name": "_restrictedTransfer",
          "type": "bool"
        }
      ],
      "name": "setRestrictedTransfer",
      "outputs": [],
      "stateMutability": "nonpayable",
      "type": "function"
    },
    {
      "inputs": [
        {
          "internalType": "uint256",
          "name": "_royaltyBps",
          "type": "uint256"
        }
      ],
      "name": "setRoyaltyBps",
      "outputs": [],
      "stateMutability": "nonpayable",
      "type": "function"
    },
    {
      "inputs": [
        {
          "internalType": "bytes4",
          "name": "interfaceId",
          "type": "bytes4"
        }
      ],
      "name": "supportsInterface",
      "outputs": [
        {
          "internalType": "bool",
          "name": "",
          "type": "bool"
        }
      ],
      "stateMutability": "pure",
      "type": "function"
    },
    {
      "inputs": [
        {
          "internalType": "uint256",
          "name": "_nftId",
          "type": "uint256"
        }
      ],
      "name": "tokenURI",
      "outputs": [
        {
          "internalType": "string",
          "name": "",
          "type": "string"
        }
      ],
      "stateMutability": "view",
      "type": "function"
    },
    {
      "inputs": [],
      "name": "unpause",
      "outputs": [],
      "stateMutability": "nonpayable",
      "type": "function"
    },
    {
      "inputs": [
        {
          "internalType": "uint256",
          "name": "_nftId",
          "type": "uint256"
        }
      ],
      "name": "uri",
      "outputs": [
        {
          "internalType": "string",
          "name": "",
          "type": "string"
        }
      ],
      "stateMutability": "view",
      "type": "function"
    }
  ],
  "bytecode": "0x60806040523480156200001157600080fd5b5060405162005ae438038062005ae483398101604081905262000034916200040a565b818180620000428162000148565b506005805460ff191690556200006360006200005d62000161565b6200017e565b620000927f9f2df0fed2c77648de5860a4cc508cd0818c85b8b8a1ab4ceeef8d981c8956a66200005d62000161565b620000c17f65d7a28e3265b37a6474929f336521b332c1681b933f6cb9f3376673440d862a6200005d62000161565b5060058054610100600160a81b0319166101006001600160a01b0393841602179055600680546001600160a01b03191691851691909117905580516200010f90600990602084019062000364565b506200013f7f8502233096d909befbda0999bb8ea2f3a6be3c138b9fbf003752a4c8bce86f6c6200005d62000161565b50505062000573565b80516200015d90600490602084019062000364565b5050565b600062000178620001c160201b6200226f1760201c565b90505b90565b6200019582826200020160201b6200229d1760201c565b6000828152600160209081526040909120620001bc918390620022ab6200020d821b17901c565b505050565b6000620001ce336200022d565b15620001e4575060131936013560601c6200017b565b620001f96200024660201b620022c01760201c565b90506200017b565b6200015d82826200024a565b600062000224836001600160a01b038416620002d4565b90505b92915050565b60055461010090046001600160a01b0390811691161490565b3390565b62000256828262000323565b6200015d576000828152602081815260408083206001600160a01b03851684529091529020805460ff191660011790556200029062000161565b6001600160a01b0316816001600160a01b0316837f2f8788117e7eff1d82e926ec794901d17c78024a50270940304540a733656f0d60405160405180910390a45050565b6000620002e283836200034c565b6200031a5750815460018181018455600084815260208082209093018490558454848252828601909352604090209190915562000227565b50600062000227565b6000918252602082815260408084206001600160a01b0393909316845291905290205460ff1690565b60009081526001919091016020526040902054151590565b828054620003729062000507565b90600052602060002090601f016020900481019282620003965760008555620003e1565b82601f10620003b157805160ff1916838001178555620003e1565b82800160010185558215620003e1579182015b82811115620003e1578251825591602001919060010190620003c4565b50620003ef929150620003f3565b5090565b5b80821115620003ef5760008155600101620003f4565b6000806000606084860312156200041f578283fd5b83516200042c816200055a565b8093505060208085015162000441816200055a565b60408601519093506001600160401b03808211156200045e578384fd5b818701915087601f83011262000472578384fd5b81518181111562000487576200048762000544565b604051601f8201601f1916810185018381118282101715620004ad57620004ad62000544565b60405281815283820185018a1015620004c4578586fd5b8592505b81831015620004e75783830185015181840186015291840191620004c8565b81831115620004f857858583830101525b80955050505050509250925092565b6002810460018216806200051c57607f821691505b602082108114156200053e57634e487b7160e01b600052602260045260246000fd5b50919050565b634e487b7160e01b600052604160045260246000fd5b6001600160a01b03811681146200057057600080fd5b50565b61556180620005836000396000f3fe608060405234801561001057600080fd5b50600436106103095760003560e01c806375794a3c1161019c578063c0e72740116100ee578063e63ab1e911610097578063f23a6e6111610071578063f23a6e6114610621578063f242432a14610634578063f5298aca1461064757610309565b8063e63ab1e9146105fe578063e8a3d48514610606578063e985e9c51461060e57610309565b8063ca15c873116100c8578063ca15c873146105d0578063d5391393146105e3578063d547741f146105eb57610309565b8063c0e72740146105c0578063c63adb2b146105c8578063c87b56dd1461035757610309565b80639010d07c11610150578063a217fddf1161012a578063a217fddf14610585578063a22cb4651461058d578063bc197c81146105a057610309565b80639010d07c1461053f57806391d148541461055f578063938e3d7b1461057257610309565b80638456cb59116101815780638456cb59146105115780638aa01653146105195780638ba448c21461052c57610309565b806375794a3c1461050157806383661b291461050957610309565b80632eb2c2d6116102605780634487f6b4116102095780635c975abb116101e35780635c975abb146104d35780636b20c454146104db578063731133e9146104ee57610309565b80634487f6b41461049a5780634e1273f4146104ad578063572b6c05146104c057610309565b806336568abe1161023a57806336568abe1461045f5780633c16b12e146104725780633f4ba83a1461049257610309565b80632eb2c2d6146104265780632f2ff15d1461043957806332d33cd01461044c57610309565b80631f7fdffa116102c2578063248a9ca31161029c578063248a9ca3146103df5780632a55205a146103f25780632e14bee81461041357610309565b80631f7fdffa1461039f5780631f8bc790146103b2578063206b60f9146103d757610309565b80630e89341c116102f35780630e89341c1461035757806317ffeba2146103775780631f72d8311461038a57610309565b8062fdd58e1461030e57806301ffc9a714610337575b600080fd5b61032161031c366004613e32565b61065a565b60405161032e919061458d565b60405180910390f35b61034a6103453660046140e9565b6106b6565b60405161032e9190614582565b61036a610365366004614074565b61070a565b60405161032e91906145f3565b610321610385366004614074565b6107af565b61039d610398366004614074565b6107c1565b005b61039d6103ad366004613d6e565b610a5d565b6103c56103c0366004614074565b610b86565b60405161032e9695949392919061441a565b610321610c53565b6103216103ed366004614074565b610c77565b6104056104003660046140c8565b610c8c565b60405161032e929190614481565b61039d6104213660046140c8565b610dd0565b61039d610434366004613ae3565b610fe7565b61039d6104473660046140a4565b611045565b61034a61045a366004614074565b61106c565b61039d61046d3660046140a4565b611084565b610485610480366004613fa6565b6110a6565b60405161032e919061449a565b61039d61175f565b61039d6104a83660046140c8565b6117b1565b6104856104bb366004613ee6565b61189d565b61034a6104ce366004613a73565b6119bd565b61034a6119d6565b61039d6104e9366004613cfb565b6119e0565b61039d6104fc366004613e91565b611a35565b610321611ab9565b61034a611abf565b61039d611acf565b61039d610527366004613bf4565b611b1f565b61039d61053a36600461403c565b611c58565b61055261054d3660046140c8565b611da7565b60405161032e919061432d565b61034a61056d3660046140a4565b611dc6565b61039d610580366004614121565b611def565b610321611f11565b61039d61059b366004613e05565b611f16565b6105b36105ae366004613ae3565b611fe4565b60405161032e91906145ad565b61036a611ff5565b610321612083565b6103216105de366004614074565b612089565b6103216120a0565b61039d6105f93660046140a4565b6120c4565b6103216120ce565b61036a6120f2565b61034a61061c366004613aab565b612184565b6105b361062f366004613b8d565b6121b2565b61039d610642366004613b8d565b6121c3565b61039d610655366004613e5d565b61221a565b60006001600160a01b03831661068b5760405162461bcd60e51b815260040161068290614789565b60405180910390fd5b5060008181526002602090815260408083206001600160a01b03861684529091529020545b92915050565b60006001600160e01b03198216630271189760e51b14806106e757506001600160e01b03198216636cdb3d1360e11b145b8061070257506001600160e01b0319821663152a902d60e11b145b90505b919050565b6000818152600a6020526040902060010180546060919061072a906153eb565b80601f0160208091040260200160405190810160405280929190818152602001828054610756906153eb565b80156107a35780601f10610778576101008083540402835291602001916107a3565b820191906000526020600020905b81548152906001019060200180831161078657829003601f168201915b50505050509050919050565b600b6020526000908152604090205481565b60065460408051634a32c6bf60e11b815290516001600160a01b03909216916391d148549183916394658d7e91600480820192602092909190829003018186803b15801561080e57600080fd5b505afa158015610822573d6000803e3d6000fd5b505050506040513d601f19601f82011682018060405250810190610846919061408c565b61084e6122c4565b6040518363ffffffff1660e01b815260040161086b929190614596565b60206040518083038186803b15801561088357600080fd5b505afa158015610897573d6000803e3d6000fd5b505050506040513d601f19601f820116820180604052508101906108bb9190614058565b6108d75760405162461bcd60e51b815260040161068290614887565b600660009054906101000a90046001600160a01b03166001600160a01b0316635cd423156040518163ffffffff1660e01b815260040160206040518083038186803b15801561092557600080fd5b505afa158015610939573d6000803e3d6000fd5b505050506040513d601f19601f8201168201806040525081019061095d9190614161565b600660009054906101000a90046001600160a01b03166001600160a01b031663fd967f476040518163ffffffff1660e01b815260040160206040518083038186803b1580156109ab57600080fd5b505afa1580156109bf573d6000803e3d6000fd5b505050506040513d601f19601f820116820180604052508101906109e39190614161565b6109ed9190615306565b6fffffffffffffffffffffffffffffffff168110610a1d5760405162461bcd60e51b81526004016106829061518c565b60088190556040517f244ea8d7627f5a08f4299862bd5a45752842c183aee5b0fb0d1e4887bfa605b390610a5290839061458d565b60405180910390a150565b60018060005b8551811015610b3757600754868281518110610a8f57634e487b7160e01b600052603260045260246000fd5b602002602001015110158015610aa25750825b15610aac57600092505b6000600a6000888481518110610ad257634e487b7160e01b600052603260045260246000fd5b60209081029190910181015182528101919091526040016000206005015460ff166002811115610b1257634e487b7160e01b600052602160045260246000fd5b14158015610b1d5750815b15610b2757600091505b610b3081615426565b9050610a63565b5081610b555760405162461bcd60e51b81526004016106829061472c565b80610b725760405162461bcd60e51b8152600401610682906147e6565b610b7e868686866122d3565b505050505050565b600a60205260009081526040902080546001820180546001600160a01b039092169291610bb2906153eb565b80601f0160208091040260200160405190810160405280929190818152602001828054610bde906153eb565b8015610c2b5780601f10610c0057610100808354040283529160200191610c2b565b820191906000526020600020905b815481529060010190602001808311610c0e57829003601f168201915b505050506002830154600384015460048501546005909501549394919360ff91821693501686565b7f8502233096d909befbda0999bb8ea2f3a6be3c138b9fbf003752a4c8bce86f6c81565b60009081526020819052604090206001015490565b600080600660009054906101000a90046001600160a01b03166001600160a01b0316630f603ed36040518163ffffffff1660e01b815260040160206040518083038186803b158015610cdd57600080fd5b505afa158015610cf1573d6000803e3d6000fd5b505050506040513d601f19601f82011682018060405250810190610d159190613a8f565b9150600660009054906101000a90046001600160a01b03166001600160a01b031663fd967f476040518163ffffffff1660e01b815260040160206040518083038186803b158015610d6557600080fd5b505afa158015610d79573d6000803e3d6000fd5b505050506040513d601f19601f82011682018060405250810190610d9d9190614161565b6fffffffffffffffffffffffffffffffff1660085484610dbd9190615372565b610dc79190615352565b90509250929050565b600660009054906101000a90046001600160a01b03166001600160a01b0316639d2f83f06040518163ffffffff1660e01b815260040160206040518083038186803b158015610e1e57600080fd5b505afa158015610e32573d6000803e3d6000fd5b505050506040513d601f19601f82011682018060405250810190610e569190614058565b15610e735760405162461bcd60e51b815260040161068290614d67565b6000828152600a602052604090206003015460ff1615610ea55760405162461bcd60e51b815260040161068290614e06565b6000610eaf6122c4565b905081610ebc828561065a565b1015610eda5760405162461bcd60e51b81526004016106829061499e565b610eec610ee56122c4565b848461221a565b6000838152600a6020908152604080832060040154808452600b9092529091205442111580610f2757506000818152600b6020526040902054155b610f435760405162461bcd60e51b815260040161068290614da9565b604051637921219560e11b8152309063f242432a90610f6c9083908690869089906004016143e2565b600060405180830381600087803b158015610f8657600080fd5b505af1158015610f9a573d6000803e3d6000fd5b505050508084836001600160a01b03167fa70022dc131dbd0be52c08bf87947e36b3e7d4934dce1efecf2d261c381d101786604051610fd9919061458d565b60405180910390a450505050565b610fef6122c4565b6001600160a01b0316856001600160a01b0316148061101557506110158561061c6122c4565b6110315760405162461bcd60e51b815260040161068290614b53565b61103e8585858585612327565b5050505050565b61104f82826124f3565b600082815260016020526040902061106790826122ab565b505050565b6000908152600a602052604090206003015460ff1690565b61108e8282612517565b60008281526001602052604090206110679082612559565b600654604080516309d2f83f60e41b815290516060926001600160a01b031691639d2f83f0916004808301926020929190829003018186803b1580156110eb57600080fd5b505afa1580156110ff573d6000803e3d6000fd5b505050506040513d601f19601f820116820180604052508101906111239190614058565b156111405760405162461bcd60e51b815260040161068290614d67565b61116c7f9f2df0fed2c77648de5860a4cc508cd0818c85b8b8a1ab4ceeef8d981c8956a661056d6122c4565b6111885760405162461bcd60e51b8152600401610682906149fb565b858214801561119657508584145b6111b25760405162461bcd60e51b815260040161068290614ec0565b856111cf5760405162461bcd60e51b815260040161068290614a99565b8567ffffffffffffffff8111156111f657634e487b7160e01b600052604160045260246000fd5b60405190808252806020026020018201604052801561121f578160200160208202803683370190505b50905060008667ffffffffffffffff81111561124b57634e487b7160e01b600052604160045260246000fd5b604051908082528060200260200182016040528015611274578160200160208202803683370190505b5060075490915060005b8881101561165657818382815181106112a757634e487b7160e01b600052603260045260246000fd5b6020026020010181815250506040518060c001604052806112c66122c4565b6001600160a01b031681526020018989848181106112f457634e487b7160e01b600052603260045260246000fd5b90506020028101906113069190615273565b8080601f01602080910402602001604051908101604052809392919081815260200183838082843760009201919091525050509082525060200187878481811061136057634e487b7160e01b600052603260045260246000fd5b905060200201358152602001600115158152602001600081526020016000600281111561139d57634e487b7160e01b600052602160045260246000fd5b90526000838152600a602090815260409091208251815473ffffffffffffffffffffffffffffffffffffffff19166001600160a01b0390911617815582820151805191926113f3926001850192909101906137fb565b506040820151600280830191909155606083015160038301805491151560ff199283161790556080840151600484015560a0840151600584018054919390929190911690600190849081111561145957634e487b7160e01b600052602160045260246000fd5b021790555061146d9150600190508361533a565b91508184828151811061149057634e487b7160e01b600052603260045260246000fd5b6020026020010181815250506040518060c001604052806114af6122c4565b6001600160a01b031681526020018b8b848181106114dd57634e487b7160e01b600052603260045260246000fd5b90506020028101906114ef9190615273565b8080601f01602080910402602001604051908101604052809392919081815260200183838082843760009201919091525050509082525060200187878481811061154957634e487b7160e01b600052603260045260246000fd5b90506020020135815260200160001515815260200160018461156b9190615391565b8152602001600090526000838152600a602090815260409091208251815473ffffffffffffffffffffffffffffffffffffffff19166001600160a01b0390911617815582820151805191926115c8926001850192909101906137fb565b506040820151600280830191909155606083015160038301805491151560ff199283161790556080840151600484015560a0840151600584018054919390929190911690600190849081111561162e57634e487b7160e01b600052602160045260246000fd5b02179055506116429150600190508361533a565b91508061164e81615426565b91505061127e565b50806007819055506116aa308387878080602002602001604051908101604052809392919081815260200183836020028082843760009201829052506040805160208101909152908152925061256e915050565b6116fd6116b56122c4565b8487878080602002602001604051908101604052809392919081815260200183836020028082843760009201829052506040805160208101909152908152925061256e915050565b6117056122c4565b6001600160a01b03167fe309c6cae6e35dcc6c2f37d5da32b19e0346074be56b9722cdf852d20fced6ee848b8b868c8c8c8c60405161174b9897969594939291906144ad565b60405180910390a250509695505050505050565b61178b7f65d7a28e3265b37a6474929f336521b332c1681b933f6cb9f3376673440d862a61056d6122c4565b6117a75760405162461bcd60e51b815260040161068290614f1d565b6117af612610565b565b6000828152600a60205260409020546001600160a01b03166117d16122c4565b6001600160a01b0316146117f75760405162461bcd60e51b815260040161068290614f7a565b6000828152600a602052604090206003015460ff166118285760405162461bcd60e51b815260040161068290614e63565b6000811561183f5761183a824261533a565b611843565b6000195b6000848152600b6020526040902081905590507ff01057f3c55599179571189c7758b5ce72994adea5a8dc33095fdc8fdff07119836118806122c4565b8360405161189093929190615246565b60405180910390a1505050565b606081518351146118c05760405162461bcd60e51b815260040161068290615091565b6000835167ffffffffffffffff8111156118ea57634e487b7160e01b600052604160045260246000fd5b604051908082528060200260200182016040528015611913578160200160208202803683370190505b50905060005b84518110156119b55761197a85828151811061194557634e487b7160e01b600052603260045260246000fd5b602002602001015185838151811061196d57634e487b7160e01b600052603260045260246000fd5b602002602001015161065a565b82828151811061199a57634e487b7160e01b600052603260045260246000fd5b60209081029190910101526119ae81615426565b9050611919565b509392505050565b60055461010090046001600160a01b0390811691161490565b60055460ff165b90565b6119e86122c4565b6001600160a01b0316836001600160a01b03161480611a0e5750611a0e8361061c6122c4565b611a2a5760405162461bcd60e51b815260040161068290614941565b61106783838361267e565b6007548310611a565760405162461bcd60e51b81526004016106829061472c565b6000838152600a602052604081206005015460ff166002811115611a8a57634e487b7160e01b600052602160045260246000fd5b14611aa75760405162461bcd60e51b8152600401610682906147e6565b611ab38484848461271f565b50505050565b60075481565b600554600160a81b900460ff1681565b611afb7f65d7a28e3265b37a6474929f336521b332c1681b933f6cb9f3376673440d862a61056d6122c4565b611b175760405162461bcd60e51b815260040161068290614fd7565b6117af612773565b600660009054906101000a90046001600160a01b03166001600160a01b0316639d2f83f06040518163ffffffff1660e01b815260040160206040518083038186803b158015611b6d57600080fd5b505afa158015611b81573d6000803e3d6000fd5b505050506040513d601f19601f82011682018060405250810190611ba59190614058565b15611bc25760405162461bcd60e51b815260040161068290614d67565b6000611bd28c8c8c8c8c8c6110a6565b905060008686868686604051602001611bef9594939291906145c2565b6040516020818303038152906040529050611c48611c0b6122c4565b8f848c8c80806020026020016040519081016040528093929190818152602001838360200280828437600092019190915250889250610fe7915050565b5050505050505050505050505050565b60065460408051634a32c6bf60e11b815290516001600160a01b03909216916391d148549183916394658d7e91600480820192602092909190829003018186803b158015611ca557600080fd5b505afa158015611cb9573d6000803e3d6000fd5b505050506040513d601f19601f82011682018060405250810190611cdd919061408c565b611ce56122c4565b6040518363ffffffff1660e01b8152600401611d02929190614596565b60206040518083038186803b158015611d1a57600080fd5b505afa158015611d2e573d6000803e3d6000fd5b505050506040513d601f19601f82011682018060405250810190611d529190614058565b611d6e5760405162461bcd60e51b815260040161068290614887565b60058054911515600160a81b027fffffffffffffffffffff00ffffffffffffffffffffffffffffffffffffffffff909216919091179055565b6000828152600160205260408120611dbf90836127ce565b9392505050565b6000918252602082815260408084206001600160a01b0393909316845291905290205460ff1690565b60065460408051634a32c6bf60e11b815290516001600160a01b03909216916391d148549183916394658d7e91600480820192602092909190829003018186803b158015611e3c57600080fd5b505afa158015611e50573d6000803e3d6000fd5b505050506040513d601f19601f82011682018060405250810190611e74919061408c565b611e7c6122c4565b6040518363ffffffff1660e01b8152600401611e99929190614596565b60206040518083038186803b158015611eb157600080fd5b505afa158015611ec5573d6000803e3d6000fd5b505050506040513d601f19601f82011682018060405250810190611ee99190614058565b611f055760405162461bcd60e51b815260040161068290614887565b6110676009838361387f565b600081565b816001600160a01b0316611f286122c4565b6001600160a01b03161415611f4f5760405162461bcd60e51b815260040161068290615034565b8060036000611f5c6122c4565b6001600160a01b03908116825260208083019390935260409182016000908120918716808252919093529120805460ff191692151592909217909155611fa06122c4565b6001600160a01b03167f17307eab39ab6107e8899845ad3d59bd9653f200f220920489ca2b5937696c3183604051611fd89190614582565b60405180910390a35050565b63bc197c8160e01b95945050505050565b60098054612002906153eb565b80601f016020809104026020016040519081016040528092919081815260200182805461202e906153eb565b801561207b5780601f106120505761010080835404028352916020019161207b565b820191906000526020600020905b81548152906001019060200180831161205e57829003601f168201915b505050505081565b60085481565b6000818152600160205260408120610702906127da565b7f9f2df0fed2c77648de5860a4cc508cd0818c85b8b8a1ab4ceeef8d981c8956a681565b61108e82826127e5565b7f65d7a28e3265b37a6474929f336521b332c1681b933f6cb9f3376673440d862a81565b606060098054612101906153eb565b80601f016020809104026020016040519081016040528092919081815260200182805461212d906153eb565b801561217a5780601f1061214f5761010080835404028352916020019161217a565b820191906000526020600020905b81548152906001019060200180831161215d57829003601f168201915b5050505050905090565b6001600160a01b03918216600090815260036020908152604080832093909416825291909152205460ff1690565b63f23a6e6160e01b95945050505050565b6121cb6122c4565b6001600160a01b0316856001600160a01b031614806121f157506121f18561061c6122c4565b61220d5760405162461bcd60e51b815260040161068290614941565b61103e8585858585612804565b6122226122c4565b6001600160a01b0316836001600160a01b0316148061224857506122488361061c6122c4565b6122645760405162461bcd60e51b815260040161068290614941565b61106783838361294b565b600061227a336119bd565b1561228e575060131936013560601c6119dd565b6122966122c0565b90506119dd565b6122a78282612981565b5050565b6000611dbf836001600160a01b038416612a06565b3390565b60006122ce61226f565b905090565b6122ff7f9f2df0fed2c77648de5860a4cc508cd0818c85b8b8a1ab4ceeef8d981c8956a661056d6122c4565b61231b5760405162461bcd60e51b815260040161068290614c50565b611ab38484848461256e565b81518351146123485760405162461bcd60e51b8152600401610682906150ee565b6001600160a01b03841661236e5760405162461bcd60e51b815260040161068290614af6565b60006123786122c4565b9050612388818787878787612a50565b60005b845181101561248d5760008582815181106123b657634e487b7160e01b600052603260045260246000fd5b6020026020010151905060008583815181106123e257634e487b7160e01b600052603260045260246000fd5b60209081029190910181015160008481526002835260408082206001600160a01b038e1683529093529190912054909150818110156124335760405162461bcd60e51b815260040161068290614cad565b60008381526002602090815260408083206001600160a01b038e8116855292528083208585039055908b1682528120805484929061247290849061533a565b925050819055505050508061248690615426565b905061238b565b50846001600160a01b0316866001600160a01b0316826001600160a01b03167f4a39dc06d4c0dbc64b70af90fd698a233a518aa5d07e595d983b8c0526c8f7fb87876040516124dd929190614554565b60405180910390a4610b7e818787878787612c10565b6124fc82610c77565b61250d816125086122c4565b612d1e565b6110678383612981565b61251f6122c4565b6001600160a01b0316816001600160a01b03161461254f5760405162461bcd60e51b8152600401610682906151e9565b6122a78282612d82565b6000611dbf836001600160a01b038416612e05565b61257a84848484612f22565b60005b835181101561103e578281815181106125a657634e487b7160e01b600052603260045260246000fd5b6020026020010151600a60008684815181106125d257634e487b7160e01b600052603260045260246000fd5b6020026020010151815260200190815260200160002060020160008282546125fa919061533a565b90915550612609905081615426565b905061257d565b6126186119d6565b6126345760405162461bcd60e51b8152600401610682906146f5565b6005805460ff191690557f5db9ee0a495bf2e6ff9c91a7834c1ba4fdd244a5e8aa4e537bd38aeae4b073aa6126676122c4565b604051612674919061432d565b60405180910390a1565b6126898383836130a4565b60005b8251811015611ab3578181815181106126b557634e487b7160e01b600052603260045260246000fd5b6020026020010151600a60008584815181106126e157634e487b7160e01b600052603260045260246000fd5b6020026020010151815260200190815260200160002060020160008282546127099190615391565b90915550612718905081615426565b905061268c565b61274b7f9f2df0fed2c77648de5860a4cc508cd0818c85b8b8a1ab4ceeef8d981c8956a661056d6122c4565b6127675760405162461bcd60e51b815260040161068290614c50565b611ab38484848461324a565b61277b6119d6565b156127985760405162461bcd60e51b815260040161068290614a62565b6005805460ff191660011790557f62e78cea01bee320cd4e420270b5ea74000d11b0c9f74754ebdbfc544b05a2586126676122c4565b6000611dbf8383613282565b6000610702826132ba565b6127ee82610c77565b6127fa816125086122c4565b6110678383612d82565b6001600160a01b03841661282a5760405162461bcd60e51b815260040161068290614af6565b60006128346122c4565b9050612854818787612845886132be565b61284e886132be565b87612a50565b60008481526002602090815260408083206001600160a01b038a168452909152902054838110156128975760405162461bcd60e51b815260040161068290614cad565b60008581526002602090815260408083206001600160a01b038b81168552925280832087850390559088168252812080548692906128d690849061533a565b92505081905550856001600160a01b0316876001600160a01b0316836001600160a01b03167fc3d58168c5ae7397731d063d5bbf3d657854427343f4c083240f7aacaa2d0f62888860405161292c929190615265565b60405180910390a4612942828888888888613317565b50505050505050565b6129568383836133e8565b6000828152600a602052604081206002018054839290612977908490615391565b9091555050505050565b61298b8282611dc6565b6122a7576000828152602081815260408083206001600160a01b03851684529091529020805460ff191660011790556129c26122c4565b6001600160a01b0316816001600160a01b0316837f2f8788117e7eff1d82e926ec794901d17c78024a50270940304540a733656f0d60405160405180910390a45050565b6000612a1283836134fb565b612a48575081546001818101845560008481526020808220909301849055845484825282860190935260409020919091556106b0565b5060006106b0565b612a5e868686868686613513565b600554600160a81b900460ff1615612ae657612a9a7f8502233096d909befbda0999bb8ea2f3a6be3c138b9fbf003752a4c8bce86f6c86611dc6565b80612aca5750612aca7f8502233096d909befbda0999bb8ea2f3a6be3c138b9fbf003752a4c8bce86f6c85611dc6565b612ae65760405162461bcd60e51b815260040161068290614d0a565b60005b8351811015612942576001600160a01b038516612b7a57828181518110612b2057634e487b7160e01b600052603260045260246000fd5b6020026020010151600a6000868481518110612b4c57634e487b7160e01b600052603260045260246000fd5b602002602001015181526020019081526020016000206002016000828254612b749190615391565b90915550505b600a6000858381518110612b9e57634e487b7160e01b600052603260045260246000fd5b60209081029190910181015182528101919091526040016000206003015460ff1615612bfe576001600160a01b0386161580612be257506001600160a01b03861630145b612bfe5760405162461bcd60e51b815260040161068290614bb0565b80612c0881615426565b915050612ae9565b612c22846001600160a01b0316613521565b15610b7e5760405163bc197c8160e01b81526001600160a01b0385169063bc197c8190612c5b9089908990889088908890600401614341565b602060405180830381600087803b158015612c7557600080fd5b505af1925050508015612ca5575060408051601f3d908101601f19168201909252612ca291810190614105565b60015b612cee57612cb1615473565b80612cbc5750612cd6565b8060405162461bcd60e51b815260040161068291906145f3565b60405162461bcd60e51b815260040161068290614606565b6001600160e01b0319811663bc197c8160e01b146129425760405162461bcd60e51b815260040161068290614698565b612d288282611dc6565b6122a757612d40816001600160a01b03166014613527565b612d4b836020613527565b604051602001612d5c9291906142ac565b60408051601f198184030181529082905262461bcd60e51b8252610682916004016145f3565b612d8c8282611dc6565b156122a7576000828152602081815260408083206001600160a01b03851684529091529020805460ff19169055612dc16122c4565b6001600160a01b0316816001600160a01b0316837ff6391f5c32d9c69d2a47ea670b442974b53935d1edc7fd64eb21e047a839171b60405160405180910390a45050565b60008181526001830160205260408120548015612f18576000612e29600183615391565b8554909150600090612e3d90600190615391565b9050818114612ebe576000866000018281548110612e6b57634e487b7160e01b600052603260045260246000fd5b9060005260206000200154905080876000018481548110612e9c57634e487b7160e01b600052603260045260246000fd5b6000918252602080832090910192909255918252600188019052604090208390555b8554869080612edd57634e487b7160e01b600052603160045260246000fd5b6001900381819060005260206000200160009055905585600101600086815260200190815260200160002060009055600193505050506106b0565b60009150506106b0565b6001600160a01b038416612f485760405162461bcd60e51b81526004016106829061514b565b8151835114612f695760405162461bcd60e51b8152600401610682906150ee565b6000612f736122c4565b9050612f8481600087878787612a50565b60005b845181101561303c57838181518110612fb057634e487b7160e01b600052603260045260246000fd5b602002602001015160026000878481518110612fdc57634e487b7160e01b600052603260045260246000fd5b602002602001015181526020019081526020016000206000886001600160a01b03166001600160a01b031681526020019081526020016000206000828254613024919061533a565b9091555081905061303481615426565b915050612f87565b50846001600160a01b031660006001600160a01b0316826001600160a01b03167f4a39dc06d4c0dbc64b70af90fd698a233a518aa5d07e595d983b8c0526c8f7fb878760405161308d929190614554565b60405180910390a461103e81600087878787612c10565b6001600160a01b0383166130ca5760405162461bcd60e51b815260040161068290614c0d565b80518251146130eb5760405162461bcd60e51b8152600401610682906150ee565b60006130f56122c4565b905061311581856000868660405180602001604052806000815250612a50565b60005b83518110156131f957600084828151811061314357634e487b7160e01b600052603260045260246000fd5b60200260200101519050600084838151811061316f57634e487b7160e01b600052603260045260246000fd5b60209081029190910181015160008481526002835260408082206001600160a01b038c1683529093529190912054909150818110156131c05760405162461bcd60e51b815260040161068290614843565b60009283526002602090815260408085206001600160a01b038b16865290915290922091039055806131f181615426565b915050613118565b5060006001600160a01b0316846001600160a01b0316826001600160a01b03167f4a39dc06d4c0dbc64b70af90fd698a233a518aa5d07e595d983b8c0526c8f7fb8686604051610fd9929190614554565b613256848484846136e6565b6000838152600a60205260408120600201805484929061327790849061533a565b909155505050505050565b60008260000182815481106132a757634e487b7160e01b600052603260045260246000fd5b9060005260206000200154905092915050565b5490565b6040805160018082528183019092526060916000919060208083019080368337019050509050828160008151811061330657634e487b7160e01b600052603260045260246000fd5b602090810291909101015292915050565b613329846001600160a01b0316613521565b15610b7e5760405163f23a6e6160e01b81526001600160a01b0385169063f23a6e6190613362908990899088908890889060040161439f565b602060405180830381600087803b15801561337c57600080fd5b505af19250505080156133ac575060408051601f3d908101601f191682019092526133a991810190614105565b60015b6133b857612cb1615473565b6001600160e01b0319811663f23a6e6160e01b146129425760405162461bcd60e51b815260040161068290614698565b6001600160a01b03831661340e5760405162461bcd60e51b815260040161068290614c0d565b60006134186122c4565b90506134488185600061342a876132be565b613433876132be565b60405180602001604052806000815250612a50565b60008381526002602090815260408083206001600160a01b03881684529091529020548281101561348b5760405162461bcd60e51b815260040161068290614843565b60008481526002602090815260408083206001600160a01b03808a16808652919093528184208786039055905190918516907fc3d58168c5ae7397731d063d5bbf3d657854427343f4c083240f7aacaa2d0f62906134ec9089908990615265565b60405180910390a45050505050565b60009081526001919091016020526040902054151590565b610b7e8686868686866137c8565b3b151590565b60606000613536836002615372565b61354190600261533a565b67ffffffffffffffff81111561356757634e487b7160e01b600052604160045260246000fd5b6040519080825280601f01601f191660200182016040528015613591576020820181803683370190505b509050600360fc1b816000815181106135ba57634e487b7160e01b600052603260045260246000fd5b60200101906001600160f81b031916908160001a905350600f60fb1b816001815181106135f757634e487b7160e01b600052603260045260246000fd5b60200101906001600160f81b031916908160001a905350600061361b846002615372565b61362690600161533a565b90505b60018111156136c7577f303132333435363738396162636465660000000000000000000000000000000085600f166010811061367557634e487b7160e01b600052603260045260246000fd5b1a60f81b82828151811061369957634e487b7160e01b600052603260045260246000fd5b60200101906001600160f81b031916908160001a90535060049490941c936136c0816153d4565b9050613629565b508315611dbf5760405162461bcd60e51b815260040161068290614663565b6001600160a01b03841661370c5760405162461bcd60e51b81526004016106829061514b565b60006137166122c4565b905061372881600087612845886132be565b60008481526002602090815260408083206001600160a01b03891684529091528120805485929061375a90849061533a565b92505081905550846001600160a01b031660006001600160a01b0316826001600160a01b03167fc3d58168c5ae7397731d063d5bbf3d657854427343f4c083240f7aacaa2d0f6287876040516137b1929190615265565b60405180910390a461103e81600087878787613317565b6137d6868686868686610b7e565b6137de6119d6565b15610b7e5760405162461bcd60e51b8152600401610682906148e4565b828054613807906153eb565b90600052602060002090601f016020900481019282613829576000855561386f565b82601f1061384257805160ff191683800117855561386f565b8280016001018555821561386f579182015b8281111561386f578251825591602001919060010190613854565b5061387b9291506138f3565b5090565b82805461388b906153eb565b90600052602060002090601f0160209004810192826138ad576000855561386f565b82601f106138c65782800160ff1982351617855561386f565b8280016001018555821561386f579182015b8281111561386f5782358255916020019190600101906138d8565b5b8082111561387b57600081556001016138f4565b803561070581615518565b60008083601f840112613924578182fd5b50813567ffffffffffffffff81111561393b578182fd5b602083019150836020808302850101111561395557600080fd5b9250929050565b600082601f83011261396c578081fd5b8135602061398161397c836152e2565b6152b8565b828152818101908583018385028701840188101561399d578586fd5b855b858110156139bb5781358452928401929084019060010161399f565b5090979650505050505050565b600082601f8301126139d8578081fd5b813567ffffffffffffffff8111156139f2576139f2615457565b613a05601f8201601f19166020016152b8565b818152846020838601011115613a19578283fd5b816020850160208301379081016020019190915292915050565b60008083601f840112613a44578182fd5b50813567ffffffffffffffff811115613a5b578182fd5b60208301915083602082850101111561395557600080fd5b600060208284031215613a84578081fd5b8135611dbf81615518565b600060208284031215613aa0578081fd5b8151611dbf81615518565b60008060408385031215613abd578081fd5b8235613ac881615518565b91506020830135613ad881615518565b809150509250929050565b600080600080600060a08688031215613afa578081fd5b8535613b0581615518565b94506020860135613b1581615518565b9350604086013567ffffffffffffffff80821115613b31578283fd5b613b3d89838a0161395c565b94506060880135915080821115613b52578283fd5b613b5e89838a0161395c565b93506080880135915080821115613b73578283fd5b50613b80888289016139c8565b9150509295509295909350565b600080600080600060a08688031215613ba4578081fd5b8535613baf81615518565b94506020860135613bbf81615518565b93506040860135925060608601359150608086013567ffffffffffffffff811115613be8578182fd5b613b80888289016139c8565b6000806000806000806000806000806000806101008d8f031215613c1657898afd5b613c1f8d613908565b9b5067ffffffffffffffff60208e01351115613c3957898afd5b613c498e60208f01358f01613913565b909b50995067ffffffffffffffff60408e01351115613c66578687fd5b613c768e60408f01358f01613913565b909950975067ffffffffffffffff60608e01351115613c93578687fd5b613ca38e60608f01358f01613913565b909750955067ffffffffffffffff60808e01351115613cc0578485fd5b613cd08e60808f01358f01613a33565b9c9f9b9e50999c989b979a9699959895979660a08701359660c0810135965060e00135945092505050565b600080600060608486031215613d0f578081fd5b8335613d1a81615518565b9250602084013567ffffffffffffffff80821115613d36578283fd5b613d428783880161395c565b93506040860135915080821115613d57578283fd5b50613d648682870161395c565b9150509250925092565b60008060008060808587031215613d83578182fd5b8435613d8e81615518565b9350602085013567ffffffffffffffff80821115613daa578384fd5b613db68883890161395c565b94506040870135915080821115613dcb578384fd5b613dd78883890161395c565b93506060870135915080821115613dec578283fd5b50613df9878288016139c8565b91505092959194509250565b60008060408385031215613e17578182fd5b8235613e2281615518565b91506020830135613ad881615530565b60008060408385031215613e44578182fd5b8235613e4f81615518565b946020939093013593505050565b600080600060608486031215613e71578081fd5b8335613e7c81615518565b95602085013595506040909401359392505050565b60008060008060808587031215613ea6578182fd5b8435613eb181615518565b93506020850135925060408501359150606085013567ffffffffffffffff811115613eda578182fd5b613df9878288016139c8565b60008060408385031215613ef8578182fd5b823567ffffffffffffffff80821115613f0f578384fd5b818501915085601f830112613f22578384fd5b81356020613f3261397c836152e2565b82815281810190858301838502870184018b1015613f4e578889fd5b8896505b84871015613f79578035613f6581615518565b835260019690960195918301918301613f52565b5096505086013592505080821115613f8f578283fd5b50613f9c8582860161395c565b9150509250929050565b60008060008060008060608789031215613fbe578384fd5b863567ffffffffffffffff80821115613fd5578586fd5b613fe18a838b01613913565b90985096506020890135915080821115613ff9578586fd5b6140058a838b01613913565b9096509450604089013591508082111561401d578384fd5b5061402a89828a01613913565b979a9699509497509295939492505050565b60006020828403121561404d578081fd5b8135611dbf81615530565b600060208284031215614069578081fd5b8151611dbf81615530565b600060208284031215614085578081fd5b5035919050565b60006020828403121561409d578081fd5b5051919050565b600080604083850312156140b6578182fd5b823591506020830135613ad881615518565b600080604083850312156140da578182fd5b50508035926020909101359150565b6000602082840312156140fa578081fd5b8135611dbf8161553e565b600060208284031215614116578081fd5b8151611dbf8161553e565b60008060208385031215614133578182fd5b823567ffffffffffffffff811115614149578283fd5b61415585828601613a33565b90969095509350505050565b600060208284031215614172578081fd5b81516fffffffffffffffffffffffffffffffff81168114611dbf578182fd5b818352602080840193600091908185020181018584845b8781101561420f5782840389528135601e198836030181126141c8578687fd5b8701803567ffffffffffffffff8111156141e0578788fd5b8036038913156141ee578788fd5b6141fb8682898501614282565b9a87019a95505050908401906001016141a8565b5091979650505050505050565b6000815180845260208085019450808401835b8381101561424b5781518752958201959082019060010161422f565b509495945050505050565b6000815180845261426e8160208601602086016153a8565b601f01601f19169290920160200192915050565b60008284528282602086013780602084860101526020601f19601f85011685010190509392505050565b60007f416363657373436f6e74726f6c3a206163636f756e7420000000000000000000825283516142e48160178501602088016153a8565b7f206973206d697373696e6720726f6c652000000000000000000000000000000060179184019182015283516143218160288401602088016153a8565b01602801949350505050565b6001600160a01b0391909116815260200190565b60006001600160a01b03808816835280871660208401525060a0604083015261436d60a083018661421c565b828103606084015261437f818661421c565b905082810360808401526143938185614256565b98975050505050505050565b60006001600160a01b03808816835280871660208401525084604083015283606083015260a060808301526143d760a0830184614256565b979650505050505050565b6001600160a01b0394851681529290931660208301526040820152606081019190915260a06080820181905260009082015260c00190565b60006001600160a01b038816825260c0602083015261443c60c0830188614256565b905085604083015284151560608301528360808301526003831061447057634e487b7160e01b600052602160045260246000fd5b8260a0830152979650505050505050565b6001600160a01b03929092168252602082015260400190565b600060208252611dbf602083018461421c565b600060a082526144c060a083018b61421c565b82810360208401526144d3818a8c614191565b905082810360408401526144e7818961421c565b905082810360608401526144fc818789614191565b905082810360808401528381527f07ffffffffffffffffffffffffffffffffffffffffffffffffffffffffffffff841115614535578182fd5b6020840280866020840137016020019081529998505050505050505050565b600060408252614567604083018561421c565b8281036020840152614579818561421c565b95945050505050565b901515815260200190565b90815260200190565b9182526001600160a01b0316602082015260400190565b6001600160e01b031991909116815260200190565b6000608082526145d6608083018789614282565b602083019590955250604081019290925260609091015292915050565b600060208252611dbf6020830184614256565b60208082526034908201527f455243313135353a207472616e7366657220746f206e6f6e204552433131353560408201527f526563656976657220696d706c656d656e746572000000000000000000000000606082015260800190565b6020808252818101527f537472696e67733a20686578206c656e67746820696e73756666696369656e74604082015260600190565b60208082526028908201527f455243313135353a204552433131353552656365697665722072656a6563746560408201527f6420746f6b656e73000000000000000000000000000000000000000000000000606082015260800190565b60208082526014908201527f5061757361626c653a206e6f7420706175736564000000000000000000000000604082015260600190565b60208082526039908201527f4e4654436f6c6c656374696f6e3a2063616e6e6f742063616c6c20746869732060408201527f666e20666f72206372656174696e67206e6577204e4654732e00000000000000606082015260800190565b6020808252602b908201527f455243313135353a2062616c616e636520717565727920666f7220746865207a60408201527f65726f2061646472657373000000000000000000000000000000000000000000606082015260800190565b6020808252603a908201527f4e4654436f6c6c656374696f6e3a2063616e6e6f7420667265656c79206d696e60408201527f74206d6f7265206f66204552433230206f72204552433732312e000000000000606082015260800190565b60208082526024908201527f455243313135353a206275726e20616d6f756e7420657863656564732062616c604082015263616e636560e01b606082015260800190565b60208082526038908201527f4163636573734e46543a206f6e6c7920612070726f746f636f6c2061646d696e60408201527f2063616e2063616c6c20746869732066756e6374696f6e2e0000000000000000606082015260800190565b6020808252602c908201527f455243313135355061757361626c653a20746f6b656e207472616e736665722060408201527f7768696c65207061757365640000000000000000000000000000000000000000606082015260800190565b60208082526029908201527f455243313135353a2063616c6c6572206973206e6f74206f776e6572206e6f7260408201527f20617070726f7665640000000000000000000000000000000000000000000000606082015260800190565b6020808252602e908201527f4163636573734e46543a2043616e6e6f742072656465656d206d6f7265204e4660408201527f5473207468616e206f776e65642e000000000000000000000000000000000000606082015260800190565b60208082526041908201527f4163636573734e46543a204f6e6c79206163636f756e74732077697468204d4960408201527f4e5445525f524f4c452063616e2063616c6c20746869732066756e6374696f6e6060820152601760f91b608082015260a00190565b60208082526010908201527f5061757361626c653a2070617573656400000000000000000000000000000000604082015260600190565b60208082526028908201527f4163636573734e46543a204d75737420637265617465206174206c656173742060408201527f6f6e65204e46542e000000000000000000000000000000000000000000000000606082015260800190565b60208082526025908201527f455243313135353a207472616e7366657220746f20746865207a65726f20616460408201527f6472657373000000000000000000000000000000000000000000000000000000606082015260800190565b60208082526032908201527f455243313135353a207472616e736665722063616c6c6572206973206e6f742060408201527f6f776e6572206e6f7220617070726f7665640000000000000000000000000000606082015260800190565b60208082526039908201527f4163636573734e46543a2063616e6e6f74207472616e7366657220616e20616360408201527f63657373204e465420746861742069732072656465656d656400000000000000606082015260800190565b60208082526023908201527f455243313135353a206275726e2066726f6d20746865207a65726f206164647260408201526265737360e81b606082015260800190565b60208082526038908201527f455243313135355072657365744d696e7465725061757365723a206d7573742060408201527f68617665206d696e74657220726f6c6520746f206d696e740000000000000000606082015260800190565b6020808252602a908201527f455243313135353a20696e73756666696369656e742062616c616e636520666f60408201527f72207472616e7366657200000000000000000000000000000000000000000000606082015260800190565b6020808252603c908201527f4163636573734e46543a205472616e736665727320617265207265737472696360408201527f74656420746f205452414e534645525f524f4c4520686f6c6465727300000000606082015260800190565b60208082526022908201527f4163636573734e46543a205468652070726f746f636f6c206973207061757365604082015261321760f11b606082015260800190565b6020808252602e908201527f4163636573734e46543a2057696e646f7720746f2072656465656d206163636560408201527f73732068617320636c6f7365642e000000000000000000000000000000000000606082015260800190565b60208082526033908201527f4163636573734e46543a205468697320746f6b656e206973206e6f742072656460408201527f65656d61626c6520666f72206163636573732e00000000000000000000000000606082015260800190565b60208082526034908201527f4163636573734e46543a2063616e207365742072656465656d2074696d65206660408201527f6f72206f6e6c7920416363657373204e4654732e000000000000000000000000606082015260800190565b60208082526036908201527f4163636573734e46543a204d757374207370656369667920657175616c206e7560408201527f6d626572206f6620636f6e6669672076616c7565732e00000000000000000000606082015260800190565b6020808252603b908201527f455243313135355072657365744d696e7465725061757365723a206d7573742060408201527f686176652070617573657220726f6c6520746f20756e70617573650000000000606082015260800190565b60208082526033908201527f4163636573734e46543a206f6e6c79207468652063726561746f722063616e2060408201527f63616c6c20746869732066756e6374696f6e2e00000000000000000000000000606082015260800190565b60208082526039908201527f455243313135355072657365744d696e7465725061757365723a206d7573742060408201527f686176652070617573657220726f6c6520746f20706175736500000000000000606082015260800190565b60208082526029908201527f455243313135353a2073657474696e6720617070726f76616c2073746174757360408201527f20666f722073656c660000000000000000000000000000000000000000000000606082015260800190565b60208082526029908201527f455243313135353a206163636f756e747320616e6420696473206c656e67746860408201527f206d69736d617463680000000000000000000000000000000000000000000000606082015260800190565b60208082526028908201527f455243313135353a2069647320616e6420616d6f756e7473206c656e6774682060408201527f6d69736d61746368000000000000000000000000000000000000000000000000606082015260800190565b60208082526021908201527f455243313135353a206d696e7420746f20746865207a65726f206164647265736040820152607360f81b606082015260800190565b60208082526029908201527f4e46543a204270732070726f7669646564206d757374206265206c657373207460408201527f68616e20392c3030300000000000000000000000000000000000000000000000606082015260800190565b6020808252602f908201527f416363657373436f6e74726f6c3a2063616e206f6e6c792072656e6f756e636560408201527f20726f6c657320666f722073656c660000000000000000000000000000000000606082015260800190565b9283526001600160a01b03919091166020830152604082015260600190565b918252602082015260400190565b6000808335601e19843603018112615289578283fd5b83018035915067ffffffffffffffff8211156152a3578283fd5b60200191503681900382131561395557600080fd5b60405181810167ffffffffffffffff811182821017156152da576152da615457565b604052919050565b600067ffffffffffffffff8211156152fc576152fc615457565b5060209081020190565b60006fffffffffffffffffffffffffffffffff80831681851680830382111561533157615331615441565b01949350505050565b6000821982111561534d5761534d615441565b500190565b60008261536d57634e487b7160e01b81526012600452602481fd5b500490565b600081600019048311821515161561538c5761538c615441565b500290565b6000828210156153a3576153a3615441565b500390565b60005b838110156153c35781810151838201526020016153ab565b83811115611ab35750506000910152565b6000816153e3576153e3615441565b506000190190565b6002810460018216806153ff57607f821691505b6020821081141561542057634e487b7160e01b600052602260045260246000fd5b50919050565b600060001982141561543a5761543a615441565b5060010190565b634e487b7160e01b600052601160045260246000fd5b634e487b7160e01b600052604160045260246000fd5b60e01c90565b600060443d1015615483576119dd565b600481823e6308c379a0615497825161546d565b146154a1576119dd565b6040513d600319016004823e80513d67ffffffffffffffff81602484011181841117156154d157505050506119dd565b828401925082519150808211156154eb57505050506119dd565b503d83016020828401011115615503575050506119dd565b601f01601f1916810160200160405291505090565b6001600160a01b038116811461552d57600080fd5b50565b801515811461552d57600080fd5b6001600160e01b03198116811461552d57600080fdfea164736f6c6343000800000a",
  "linkReferences": {},
  "deployedLinkReferences": {}
}