{
  "_format": "hh-sol-artifact-1",
  "contractName": "AccessNFT",
  "sourceName": "contracts/AccessNFT.sol",
  "abi": [
    {
      "inputs": [
        {
          "internalType": "address payable",
          "name": "_controlCenter",
          "type": "address"
        },
        {
          "internalType": "address",
          "name": "_trustedForwarder",
          "type": "address"
        },
        {
          "internalType": "string",
          "name": "_uri",
          "type": "string"
        },
        {
          "internalType": "uint256",
          "name": "_royaltyBps",
          "type": "uint256"
        }
      ],
      "stateMutability": "nonpayable",
      "type": "constructor"
    },
    {
      "anonymous": false,
      "inputs": [
        {
          "indexed": true,
          "internalType": "address",
          "name": "redeemer",
          "type": "address"
        },
        {
          "indexed": true,
          "internalType": "uint256",
          "name": "nftTokenId",
          "type": "uint256"
        },
        {
          "indexed": true,
          "internalType": "uint256",
          "name": "accessNftId",
          "type": "uint256"
        },
        {
          "indexed": false,
          "internalType": "uint256",
          "name": "amount",
          "type": "uint256"
        }
      ],
      "name": "AccessNFTRedeemed",
      "type": "event"
    },
    {
      "anonymous": false,
      "inputs": [
        {
          "indexed": true,
          "internalType": "address",
          "name": "creator",
          "type": "address"
        },
        {
          "indexed": false,
          "internalType": "uint256[]",
          "name": "nftIds",
          "type": "uint256[]"
        },
        {
          "indexed": false,
          "internalType": "string[]",
          "name": "nftURIs",
          "type": "string[]"
        },
        {
          "indexed": false,
          "internalType": "uint256[]",
          "name": "acessNftIds",
          "type": "uint256[]"
        },
        {
          "indexed": false,
          "internalType": "string[]",
          "name": "accessNftURIs",
          "type": "string[]"
        },
        {
          "indexed": false,
          "internalType": "uint256[]",
          "name": "nftSupplies",
          "type": "uint256[]"
        }
      ],
      "name": "AccessNFTsCreated",
      "type": "event"
    },
    {
      "anonymous": false,
      "inputs": [
        {
          "indexed": false,
          "internalType": "bool",
          "name": "isTransferable",
          "type": "bool"
        }
      ],
      "name": "AccessTransferabilityUpdated",
      "type": "event"
    },
    {
      "anonymous": false,
      "inputs": [
        {
          "indexed": true,
          "internalType": "address",
          "name": "account",
          "type": "address"
        },
        {
          "indexed": true,
          "internalType": "address",
          "name": "operator",
          "type": "address"
        },
        {
          "indexed": false,
          "internalType": "bool",
          "name": "approved",
          "type": "bool"
        }
      ],
      "name": "ApprovalForAll",
      "type": "event"
    },
    {
      "anonymous": false,
      "inputs": [
        {
          "indexed": false,
          "internalType": "uint256",
          "name": "accessNftId",
          "type": "uint256"
        },
        {
          "indexed": false,
          "internalType": "address",
          "name": "creator",
          "type": "address"
        },
        {
          "indexed": false,
          "internalType": "uint256",
          "name": "lastTimeToRedeem",
          "type": "uint256"
        }
      ],
      "name": "LastRedeemTimeUpdated",
      "type": "event"
    },
    {
      "anonymous": false,
      "inputs": [
        {
          "indexed": false,
          "internalType": "address",
          "name": "account",
          "type": "address"
        }
      ],
      "name": "Paused",
      "type": "event"
    },
    {
      "anonymous": false,
      "inputs": [
        {
          "indexed": false,
          "internalType": "bool",
          "name": "transferable",
          "type": "bool"
        }
      ],
      "name": "RestrictedTransferUpdated",
      "type": "event"
    },
    {
      "anonymous": false,
      "inputs": [
        {
          "indexed": true,
          "internalType": "bytes32",
          "name": "role",
          "type": "bytes32"
        },
        {
          "indexed": true,
          "internalType": "bytes32",
          "name": "previousAdminRole",
          "type": "bytes32"
        },
        {
          "indexed": true,
          "internalType": "bytes32",
          "name": "newAdminRole",
          "type": "bytes32"
        }
      ],
      "name": "RoleAdminChanged",
      "type": "event"
    },
    {
      "anonymous": false,
      "inputs": [
        {
          "indexed": true,
          "internalType": "bytes32",
          "name": "role",
          "type": "bytes32"
        },
        {
          "indexed": true,
          "internalType": "address",
          "name": "account",
          "type": "address"
        },
        {
          "indexed": true,
          "internalType": "address",
          "name": "sender",
          "type": "address"
        }
      ],
      "name": "RoleGranted",
      "type": "event"
    },
    {
      "anonymous": false,
      "inputs": [
        {
          "indexed": true,
          "internalType": "bytes32",
          "name": "role",
          "type": "bytes32"
        },
        {
          "indexed": true,
          "internalType": "address",
          "name": "account",
          "type": "address"
        },
        {
          "indexed": true,
          "internalType": "address",
          "name": "sender",
          "type": "address"
        }
      ],
      "name": "RoleRevoked",
      "type": "event"
    },
    {
      "anonymous": false,
      "inputs": [
        {
          "indexed": false,
          "internalType": "uint256",
          "name": "royaltyBps",
          "type": "uint256"
        }
      ],
      "name": "RoyaltyUpdated",
      "type": "event"
    },
    {
      "anonymous": false,
      "inputs": [
        {
          "indexed": true,
          "internalType": "address",
          "name": "operator",
          "type": "address"
        },
        {
          "indexed": true,
          "internalType": "address",
          "name": "from",
          "type": "address"
        },
        {
          "indexed": true,
          "internalType": "address",
          "name": "to",
          "type": "address"
        },
        {
          "indexed": false,
          "internalType": "uint256[]",
          "name": "ids",
          "type": "uint256[]"
        },
        {
          "indexed": false,
          "internalType": "uint256[]",
          "name": "values",
          "type": "uint256[]"
        }
      ],
      "name": "TransferBatch",
      "type": "event"
    },
    {
      "anonymous": false,
      "inputs": [
        {
          "indexed": true,
          "internalType": "address",
          "name": "operator",
          "type": "address"
        },
        {
          "indexed": true,
          "internalType": "address",
          "name": "from",
          "type": "address"
        },
        {
          "indexed": true,
          "internalType": "address",
          "name": "to",
          "type": "address"
        },
        {
          "indexed": false,
          "internalType": "uint256",
          "name": "id",
          "type": "uint256"
        },
        {
          "indexed": false,
          "internalType": "uint256",
          "name": "value",
          "type": "uint256"
        }
      ],
      "name": "TransferSingle",
      "type": "event"
    },
    {
      "anonymous": false,
      "inputs": [
        {
          "indexed": false,
          "internalType": "string",
          "name": "value",
          "type": "string"
        },
        {
          "indexed": true,
          "internalType": "uint256",
          "name": "id",
          "type": "uint256"
        }
      ],
      "name": "URI",
      "type": "event"
    },
    {
      "anonymous": false,
      "inputs": [
        {
          "indexed": false,
          "internalType": "address",
          "name": "account",
          "type": "address"
        }
      ],
      "name": "Unpaused",
      "type": "event"
    },
    {
      "inputs": [],
      "name": "DEFAULT_ADMIN_ROLE",
      "outputs": [
        {
          "internalType": "bytes32",
          "name": "",
          "type": "bytes32"
        }
      ],
      "stateMutability": "view",
      "type": "function"
    },
    {
      "inputs": [],
      "name": "MINTER_ROLE",
      "outputs": [
        {
          "internalType": "bytes32",
          "name": "",
          "type": "bytes32"
        }
      ],
      "stateMutability": "view",
      "type": "function"
    },
    {
      "inputs": [],
      "name": "PAUSER_ROLE",
      "outputs": [
        {
          "internalType": "bytes32",
          "name": "",
          "type": "bytes32"
        }
      ],
      "stateMutability": "view",
      "type": "function"
    },
    {
      "inputs": [],
      "name": "TRANSFER_ROLE",
      "outputs": [
        {
          "internalType": "bytes32",
          "name": "",
          "type": "bytes32"
        }
      ],
      "stateMutability": "view",
      "type": "function"
    },
    {
      "inputs": [],
      "name": "_contractURI",
      "outputs": [
        {
          "internalType": "string",
          "name": "",
          "type": "string"
        }
      ],
      "stateMutability": "view",
      "type": "function"
    },
    {
      "inputs": [],
      "name": "accessNftIsTransferable",
      "outputs": [
        {
          "internalType": "bool",
          "name": "",
          "type": "bool"
        }
      ],
      "stateMutability": "view",
      "type": "function"
    },
    {
      "inputs": [
        {
          "internalType": "address",
          "name": "account",
          "type": "address"
        },
        {
          "internalType": "uint256",
          "name": "id",
          "type": "uint256"
        }
      ],
      "name": "balanceOf",
      "outputs": [
        {
          "internalType": "uint256",
          "name": "",
          "type": "uint256"
        }
      ],
      "stateMutability": "view",
      "type": "function"
    },
    {
      "inputs": [
        {
          "internalType": "address[]",
          "name": "accounts",
          "type": "address[]"
        },
        {
          "internalType": "uint256[]",
          "name": "ids",
          "type": "uint256[]"
        }
      ],
      "name": "balanceOfBatch",
      "outputs": [
        {
          "internalType": "uint256[]",
          "name": "",
          "type": "uint256[]"
        }
      ],
      "stateMutability": "view",
      "type": "function"
    },
    {
      "inputs": [
        {
          "internalType": "address",
          "name": "account",
          "type": "address"
        },
        {
          "internalType": "uint256",
          "name": "id",
          "type": "uint256"
        },
        {
          "internalType": "uint256",
          "name": "value",
          "type": "uint256"
        }
      ],
      "name": "burn",
      "outputs": [],
      "stateMutability": "nonpayable",
      "type": "function"
    },
    {
      "inputs": [
        {
          "internalType": "address",
          "name": "account",
          "type": "address"
        },
        {
          "internalType": "uint256[]",
          "name": "ids",
          "type": "uint256[]"
        },
        {
          "internalType": "uint256[]",
          "name": "values",
          "type": "uint256[]"
        }
      ],
      "name": "burnBatch",
      "outputs": [],
      "stateMutability": "nonpayable",
      "type": "function"
    },
    {
      "inputs": [],
      "name": "contractURI",
      "outputs": [
        {
          "internalType": "string",
          "name": "",
          "type": "string"
        }
      ],
      "stateMutability": "view",
      "type": "function"
    },
    {
      "inputs": [
        {
          "internalType": "address",
          "name": "to",
          "type": "address"
        },
        {
          "internalType": "string[]",
          "name": "_nftURIs",
          "type": "string[]"
        },
        {
          "internalType": "string[]",
          "name": "_accessNftURIs",
          "type": "string[]"
        },
        {
          "internalType": "uint256[]",
          "name": "_nftSupplies",
          "type": "uint256[]"
        },
        {
          "internalType": "bytes",
          "name": "data",
          "type": "bytes"
        }
      ],
      "name": "createAccessTokens",
      "outputs": [],
      "stateMutability": "nonpayable",
      "type": "function"
    },
    {
      "inputs": [
        {
          "internalType": "bytes32",
          "name": "role",
          "type": "bytes32"
        }
      ],
      "name": "getRoleAdmin",
      "outputs": [
        {
          "internalType": "bytes32",
          "name": "",
          "type": "bytes32"
        }
      ],
      "stateMutability": "view",
      "type": "function"
    },
    {
      "inputs": [
        {
          "internalType": "bytes32",
          "name": "role",
          "type": "bytes32"
        },
        {
          "internalType": "uint256",
          "name": "index",
          "type": "uint256"
        }
      ],
      "name": "getRoleMember",
      "outputs": [
        {
          "internalType": "address",
          "name": "",
          "type": "address"
        }
      ],
      "stateMutability": "view",
      "type": "function"
    },
    {
      "inputs": [
        {
          "internalType": "bytes32",
          "name": "role",
          "type": "bytes32"
        }
      ],
      "name": "getRoleMemberCount",
      "outputs": [
        {
          "internalType": "uint256",
          "name": "",
          "type": "uint256"
        }
      ],
      "stateMutability": "view",
      "type": "function"
    },
    {
      "inputs": [
        {
          "internalType": "bytes32",
          "name": "role",
          "type": "bytes32"
        },
        {
          "internalType": "address",
          "name": "account",
          "type": "address"
        }
      ],
      "name": "grantRole",
      "outputs": [],
      "stateMutability": "nonpayable",
      "type": "function"
    },
    {
      "inputs": [
        {
          "internalType": "bytes32",
          "name": "role",
          "type": "bytes32"
        },
        {
          "internalType": "address",
          "name": "account",
          "type": "address"
        }
      ],
      "name": "hasRole",
      "outputs": [
        {
          "internalType": "bool",
          "name": "",
          "type": "bool"
        }
      ],
      "stateMutability": "view",
      "type": "function"
    },
    {
      "inputs": [
        {
          "internalType": "address",
          "name": "account",
          "type": "address"
        },
        {
          "internalType": "address",
          "name": "operator",
          "type": "address"
        }
      ],
      "name": "isApprovedForAll",
      "outputs": [
        {
          "internalType": "bool",
          "name": "",
          "type": "bool"
        }
      ],
      "stateMutability": "view",
      "type": "function"
    },
    {
      "inputs": [
        {
          "internalType": "uint256",
          "name": "_nftId",
          "type": "uint256"
        }
      ],
      "name": "isRedeemable",
      "outputs": [
        {
          "internalType": "bool",
          "name": "",
          "type": "bool"
        }
      ],
      "stateMutability": "view",
      "type": "function"
    },
    {
      "inputs": [
        {
          "internalType": "address",
          "name": "forwarder",
          "type": "address"
        }
      ],
      "name": "isTrustedForwarder",
      "outputs": [
        {
          "internalType": "bool",
          "name": "",
          "type": "bool"
        }
      ],
      "stateMutability": "view",
      "type": "function"
    },
    {
      "inputs": [
        {
          "internalType": "uint256",
          "name": "",
          "type": "uint256"
        }
      ],
      "name": "lastTimeToRedeem",
      "outputs": [
        {
          "internalType": "uint256",
          "name": "",
          "type": "uint256"
        }
      ],
      "stateMutability": "view",
      "type": "function"
    },
    {
      "inputs": [
        {
          "internalType": "address",
          "name": "to",
          "type": "address"
        },
        {
          "internalType": "uint256",
          "name": "id",
          "type": "uint256"
        },
        {
          "internalType": "uint256",
          "name": "amount",
          "type": "uint256"
        },
        {
          "internalType": "bytes",
          "name": "data",
          "type": "bytes"
        }
      ],
      "name": "mint",
      "outputs": [],
      "stateMutability": "nonpayable",
      "type": "function"
    },
    {
      "inputs": [
        {
          "internalType": "address",
          "name": "to",
          "type": "address"
        },
        {
          "internalType": "uint256[]",
          "name": "ids",
          "type": "uint256[]"
        },
        {
          "internalType": "uint256[]",
          "name": "amounts",
          "type": "uint256[]"
        },
        {
          "internalType": "bytes",
          "name": "data",
          "type": "bytes"
        }
      ],
      "name": "mintBatch",
      "outputs": [],
      "stateMutability": "nonpayable",
      "type": "function"
    },
    {
      "inputs": [
        {
          "internalType": "bytes[]",
          "name": "data",
          "type": "bytes[]"
        }
      ],
      "name": "multicall",
      "outputs": [
        {
          "internalType": "bytes[]",
          "name": "results",
          "type": "bytes[]"
        }
      ],
      "stateMutability": "nonpayable",
      "type": "function"
    },
    {
      "inputs": [],
      "name": "nextTokenId",
      "outputs": [
        {
          "internalType": "uint256",
          "name": "",
          "type": "uint256"
        }
      ],
      "stateMutability": "view",
      "type": "function"
    },
    {
      "inputs": [
        {
          "internalType": "address",
          "name": "",
          "type": "address"
        },
        {
          "internalType": "address",
          "name": "",
          "type": "address"
        },
        {
          "internalType": "uint256[]",
          "name": "",
          "type": "uint256[]"
        },
        {
          "internalType": "uint256[]",
          "name": "",
          "type": "uint256[]"
        },
        {
          "internalType": "bytes",
          "name": "",
          "type": "bytes"
        }
      ],
      "name": "onERC1155BatchReceived",
      "outputs": [
        {
          "internalType": "bytes4",
          "name": "",
          "type": "bytes4"
        }
      ],
      "stateMutability": "nonpayable",
      "type": "function"
    },
    {
      "inputs": [
        {
          "internalType": "address",
          "name": "",
          "type": "address"
        },
        {
          "internalType": "address",
          "name": "",
          "type": "address"
        },
        {
          "internalType": "uint256",
          "name": "",
          "type": "uint256"
        },
        {
          "internalType": "uint256",
          "name": "",
          "type": "uint256"
        },
        {
          "internalType": "bytes",
          "name": "",
          "type": "bytes"
        }
      ],
      "name": "onERC1155Received",
      "outputs": [
        {
          "internalType": "bytes4",
          "name": "",
          "type": "bytes4"
        }
      ],
      "stateMutability": "nonpayable",
      "type": "function"
    },
    {
      "inputs": [
        {
          "internalType": "address",
          "name": "",
          "type": "address"
        },
        {
          "internalType": "address",
          "name": "",
          "type": "address"
        },
        {
          "internalType": "uint256",
          "name": "",
          "type": "uint256"
        },
        {
          "internalType": "bytes",
          "name": "",
          "type": "bytes"
        }
      ],
      "name": "onERC721Received",
      "outputs": [
        {
          "internalType": "bytes4",
          "name": "",
          "type": "bytes4"
        }
      ],
      "stateMutability": "nonpayable",
      "type": "function"
    },
    {
      "inputs": [],
      "name": "pause",
      "outputs": [],
      "stateMutability": "nonpayable",
      "type": "function"
    },
    {
      "inputs": [],
      "name": "paused",
      "outputs": [
        {
          "internalType": "bool",
          "name": "",
          "type": "bool"
        }
      ],
      "stateMutability": "view",
      "type": "function"
    },
    {
      "inputs": [
        {
          "internalType": "uint256",
          "name": "_tokenId",
          "type": "uint256"
        },
        {
          "internalType": "uint256",
          "name": "_amount",
          "type": "uint256"
        }
      ],
      "name": "redeemToken",
      "outputs": [],
      "stateMutability": "nonpayable",
      "type": "function"
    },
    {
      "inputs": [
        {
          "internalType": "bytes32",
          "name": "role",
          "type": "bytes32"
        },
        {
          "internalType": "address",
          "name": "account",
          "type": "address"
        }
      ],
      "name": "renounceRole",
      "outputs": [],
      "stateMutability": "nonpayable",
      "type": "function"
    },
    {
      "inputs": [
        {
          "internalType": "bytes32",
          "name": "role",
          "type": "bytes32"
        },
        {
          "internalType": "address",
          "name": "account",
          "type": "address"
        }
      ],
      "name": "revokeRole",
      "outputs": [],
      "stateMutability": "nonpayable",
      "type": "function"
    },
    {
      "inputs": [],
      "name": "royaltyBps",
      "outputs": [
        {
          "internalType": "uint256",
          "name": "",
          "type": "uint256"
        }
      ],
      "stateMutability": "view",
      "type": "function"
    },
    {
      "inputs": [
        {
          "internalType": "uint256",
          "name": "",
          "type": "uint256"
        },
        {
          "internalType": "uint256",
          "name": "salePrice",
          "type": "uint256"
        }
      ],
      "name": "royaltyInfo",
      "outputs": [
        {
          "internalType": "address",
          "name": "receiver",
          "type": "address"
        },
        {
          "internalType": "uint256",
          "name": "royaltyAmount",
          "type": "uint256"
        }
      ],
      "stateMutability": "view",
      "type": "function"
    },
    {
      "inputs": [
        {
          "internalType": "address",
          "name": "from",
          "type": "address"
        },
        {
          "internalType": "address",
          "name": "to",
          "type": "address"
        },
        {
          "internalType": "uint256[]",
          "name": "ids",
          "type": "uint256[]"
        },
        {
          "internalType": "uint256[]",
          "name": "amounts",
          "type": "uint256[]"
        },
        {
          "internalType": "bytes",
          "name": "data",
          "type": "bytes"
        }
      ],
      "name": "safeBatchTransferFrom",
      "outputs": [],
      "stateMutability": "nonpayable",
      "type": "function"
    },
    {
      "inputs": [
        {
          "internalType": "address",
          "name": "from",
          "type": "address"
        },
        {
          "internalType": "address",
          "name": "to",
          "type": "address"
        },
        {
          "internalType": "uint256",
          "name": "id",
          "type": "uint256"
        },
        {
          "internalType": "uint256",
          "name": "amount",
          "type": "uint256"
        },
        {
          "internalType": "bytes",
          "name": "data",
          "type": "bytes"
        }
      ],
      "name": "safeTransferFrom",
      "outputs": [],
      "stateMutability": "nonpayable",
      "type": "function"
    },
    {
      "inputs": [
        {
          "internalType": "bool",
          "name": "_isTransferable",
          "type": "bool"
        }
      ],
      "name": "setAccessNftTransferability",
      "outputs": [],
      "stateMutability": "nonpayable",
      "type": "function"
    },
    {
      "inputs": [
        {
          "internalType": "address",
          "name": "operator",
          "type": "address"
        },
        {
          "internalType": "bool",
          "name": "approved",
          "type": "bool"
        }
      ],
      "name": "setApprovalForAll",
      "outputs": [],
      "stateMutability": "nonpayable",
      "type": "function"
    },
    {
      "inputs": [
        {
          "internalType": "string",
          "name": "_uri",
          "type": "string"
        }
      ],
      "name": "setContractURI",
      "outputs": [],
      "stateMutability": "nonpayable",
      "type": "function"
    },
    {
      "inputs": [
        {
          "internalType": "uint256",
          "name": "_tokenId",
          "type": "uint256"
        },
        {
          "internalType": "uint256",
          "name": "_secondsUntilRedeem",
          "type": "uint256"
        }
      ],
      "name": "setLastTimeToRedeem",
      "outputs": [],
      "stateMutability": "nonpayable",
      "type": "function"
    },
    {
      "inputs": [
        {
          "internalType": "bool",
          "name": "_restrictedTransfer",
          "type": "bool"
        }
      ],
      "name": "setRestrictedTransfer",
      "outputs": [],
      "stateMutability": "nonpayable",
      "type": "function"
    },
    {
      "inputs": [
        {
          "internalType": "uint256",
          "name": "_royaltyBps",
          "type": "uint256"
        }
      ],
      "name": "setRoyaltyBps",
      "outputs": [],
      "stateMutability": "nonpayable",
      "type": "function"
    },
    {
      "inputs": [
        {
          "internalType": "bytes4",
          "name": "interfaceId",
          "type": "bytes4"
        }
      ],
      "name": "supportsInterface",
      "outputs": [
        {
          "internalType": "bool",
          "name": "",
          "type": "bool"
        }
      ],
      "stateMutability": "view",
      "type": "function"
    },
    {
      "inputs": [
        {
          "internalType": "uint256",
          "name": "",
          "type": "uint256"
        }
      ],
      "name": "tokenState",
      "outputs": [
        {
          "internalType": "address",
          "name": "creator",
          "type": "address"
        },
        {
          "internalType": "string",
          "name": "uri",
          "type": "string"
        },
        {
          "internalType": "bool",
          "name": "isRedeemable",
          "type": "bool"
        },
        {
          "internalType": "uint256",
          "name": "accessNftId",
          "type": "uint256"
        },
        {
          "internalType": "enum AccessNFT.UnderlyingType",
          "name": "underlyingType",
          "type": "uint8"
        }
      ],
      "stateMutability": "view",
      "type": "function"
    },
    {
      "inputs": [
        {
          "internalType": "uint256",
          "name": "_nftId",
          "type": "uint256"
        }
      ],
      "name": "tokenURI",
      "outputs": [
        {
          "internalType": "string",
          "name": "",
          "type": "string"
        }
      ],
      "stateMutability": "view",
      "type": "function"
    },
    {
      "inputs": [
        {
          "internalType": "uint256",
          "name": "id",
          "type": "uint256"
        }
      ],
      "name": "totalSupply",
      "outputs": [
        {
          "internalType": "uint256",
          "name": "",
          "type": "uint256"
        }
      ],
      "stateMutability": "view",
      "type": "function"
    },
    {
      "inputs": [],
      "name": "transfersRestricted",
      "outputs": [
        {
          "internalType": "bool",
          "name": "",
          "type": "bool"
        }
      ],
      "stateMutability": "view",
      "type": "function"
    },
    {
      "inputs": [],
      "name": "unpause",
      "outputs": [],
      "stateMutability": "nonpayable",
      "type": "function"
    },
    {
      "inputs": [
        {
          "internalType": "uint256",
          "name": "_nftId",
          "type": "uint256"
        }
      ],
      "name": "uri",
      "outputs": [
        {
          "internalType": "string",
          "name": "",
          "type": "string"
        }
      ],
      "stateMutability": "view",
      "type": "function"
    }
  ],
  "bytecode": "0x60806040523480156200001157600080fd5b5060405162005af038038062005af08339810160408190526200003491620005a8565b82828062000042816200014b565b506005805460ff191690556200006360006200005d62000164565b62000180565b620000927f9f2df0fed2c77648de5860a4cc508cd0818c85b8b8a1ab4ceeef8d981c8956a66200005d62000164565b620000c17f65d7a28e3265b37a6474929f336521b332c1681b933f6cb9f3376673440d862a6200005d62000164565b50600780546001600160a01b03199081166001600160a01b03938416179091556008805490911691861691909117905581516200010690600b90602085019062000502565b50620001367f8502233096d909befbda0999bb8ea2f3a6be3c138b9fbf003752a4c8bce86f6c6200005d62000164565b6200014181620001c3565b505050506200074e565b80516200016090600490602084019062000502565b5050565b60006200017b620003a560201b620025791760201c565b905090565b620001978282620003de60201b620025a91760201c565b6000828152600160209081526040909120620001be918390620025b7620003ea821b17901c565b505050565b620001fc6000620001d362000164565b6000918252602082815260408084206001600160a01b0393909316845291905290205460ff1690565b620002745760405162461bcd60e51b815260206004820152603660248201527f4163636573734e46543a206f6e6c792061206d6f64756c652061646d696e206360448201527f616e2063616c6c20746869732066756e6374696f6e2e0000000000000000000060648201526084015b60405180910390fd5b600860009054906101000a90046001600160a01b03166001600160a01b031663fd967f476040518163ffffffff1660e01b815260040160206040518083038186803b158015620002c357600080fd5b505afa158015620002d8573d6000803e3d6000fd5b505050506040513d601f19601f82011682018060405250810190620002fe9190620006b2565b6001600160801b031681106200036a5760405162461bcd60e51b815260206004820152602a60248201527f4e46543a204270732070726f7669646564206d757374206265206c6573732074604482015269068616e2031302c3030360b41b60648201526084016200026b565b600a8190556040518181527f244ea8d7627f5a08f4299862bd5a45752842c183aee5b0fb0d1e4887bfa605b39060200160405180910390a150565b6007546000906001600160a01b0316331415620003c9575060131936013560601c90565b6200017b6200040a60201b620025cc1760201c565b6200016082826200040e565b600062000401836001600160a01b038416620004b0565b90505b92915050565b3390565b6000828152602081815260408083206001600160a01b038516845290915290205460ff1662000160576000828152602081815260408083206001600160a01b03851684529091529020805460ff191660011790556200046c62000164565b6001600160a01b0316816001600160a01b0316837f2f8788117e7eff1d82e926ec794901d17c78024a50270940304540a733656f0d60405160405180910390a45050565b6000818152600183016020526040812054620004f95750815460018181018455600084815260208082209093018490558454848252828601909352604090209190915562000404565b50600062000404565b8280546200051090620006e2565b90600052602060002090601f0160209004810192826200053457600085556200057f565b82601f106200054f57805160ff19168380011785556200057f565b828001600101855582156200057f579182015b828111156200057f57825182559160200191906001019062000562565b506200058d92915062000591565b5090565b5b808211156200058d576000815560010162000592565b60008060008060808587031215620005be578384fd5b8451620005cb8162000735565b80945050602080860151620005e08162000735565b60408701519094506001600160401b0380821115620005fd578485fd5b818801915088601f83011262000611578485fd5b8151818111156200062657620006266200071f565b604051601f8201601f19908116603f011681019083821181831017156200065157620006516200071f565b816040528281528b8684870101111562000669578788fd5b8793505b828410156200068c57848401860151818501870152928501926200066d565b828411156200069d57878684830101525b60609a909a0151989b979a5050505050505050565b600060208284031215620006c4578081fd5b81516001600160801b0381168114620006db578182fd5b9392505050565b600181811c90821680620006f757607f821691505b602082108114156200071957634e487b7160e01b600052602260045260246000fd5b50919050565b634e487b7160e01b600052604160045260246000fd5b6001600160a01b03811681146200074b57600080fd5b50565b615392806200075e6000396000f3fe608060405234801561001057600080fd5b50600436106103355760003560e01c80639010d07c116101b2578063c87b56dd116100f9578063e63ab1e9116100a2578063f23a6e611161007c578063f23a6e61146107bd578063f242432a146107dc578063f48cc326146107ef578063f5298aca1461081557600080fd5b8063e63ab1e914610752578063e8a3d48514610779578063e985e9c51461078157600080fd5b8063d5391393116100d3578063d539139314610706578063d547741f1461072d578063d9371ddd1461074057600080fd5b8063c87b56dd14610383578063ca15c873146106e0578063ca551b02146106f357600080fd5b8063a22cb4651161015b578063bd85b03911610135578063bd85b039146106af578063c0e72740146106cf578063c63adb2b146106d757600080fd5b8063a22cb4651461065d578063ac9650d814610670578063bc197c811461069057600080fd5b80639745cc3d1161018c5780639745cc3d1461061e5780639f1d947714610642578063a217fddf1461065557600080fd5b80639010d07c146105a957806391d14854146105d4578063938e3d7b1461060b57600080fd5b806336568abe116102815780635c975abb1161022a57806375794a3c1161020457806375794a3c146105785780638423df79146105815780638456cb591461058e5780638ba448c21461059657600080fd5b80635c975abb146105475780636b20c45414610552578063731133e91461056557600080fd5b80634487f6b41161025b5780634487f6b4146104f25780634e1273f414610505578063572b6c051461052557600080fd5b806336568abe146104c45780633f4ba83a146104d7578063400c477a146104df57600080fd5b80631f7fdffa116102e35780632a55205a116102bd5780632a55205a1461046c5780632eb2c2d61461049e5780632f2ff15d146104b157600080fd5b80631f7fdffa1461040f578063206b60f914610422578063248a9ca31461044957600080fd5b8063150b7a0211610314578063150b7a02146103a357806317ffeba2146103da5780631f72d831146103fa57600080fd5b8062fdd58e1461033a57806301ffc9a7146103605780630e89341c14610383575b600080fd5b61034d6103483660046148e8565b610828565b6040519081526020015b60405180910390f35b61037361036e366004614b4a565b6108c4565b6040519015158152602001610357565b610396610391366004614ad5565b6108ef565b6040516103579190614fb7565b6103c16103b1366004614618565b630a85bd0160e11b949350505050565b6040516001600160e01b03199091168152602001610357565b61034d6103e8366004614ad5565b600e6020526000908152604090205481565b61040d610408366004614ad5565b610994565b005b61040d61041d366004614830565b610ae9565b61034d7f8502233096d909befbda0999bb8ea2f3a6be3c138b9fbf003752a4c8bce86f6c81565b61034d610457366004614ad5565b60009081526020819052604090206001015490565b61047f61047a366004614b29565b610c8f565b604080516001600160a01b039093168352602083019190915201610357565b61040d6104ac36600461456e565b610dc1565b61040d6104bf366004614b05565b610e75565b61040d6104d2366004614b05565b610e9c565b61040d610ebe565b61040d6104ed3660046146e9565b610f66565b61040d610500366004614b29565b611618565b610518610513366004614990565b6117bf565b6040516103579190614ee8565b6103736105333660046144fe565b6007546001600160a01b0391821691161490565b60055460ff16610373565b61040d6105603660046147bd565b611921565b61040d610573366004614947565b611976565b61034d60095481565b600c546103739060ff1681565b61040d611aa0565b61040d6105a4366004614a9d565b611b46565b6105bc6105b7366004614b29565b611bb0565b6040516001600160a01b039091168152602001610357565b6103736105e2366004614b05565b6000918252602082815260408084206001600160a01b0393909316845291905290205460ff1690565b61040d610619366004614b82565b611bcf565b61063161062c366004614ad5565b611d57565b604051610357959493929190614e27565b61040d610650366004614a9d565b611e1f565b61034d600081565b61040d61066b3660046148bb565b611e90565b61068361067e366004614a5d565b611fa4565b6040516103579190614e87565b6103c161069e36600461456e565b63bc197c8160e01b95945050505050565b61034d6106bd366004614ad5565b60009081526006602052604090205490565b6103966120c3565b61034d600a5481565b61034d6106ee366004614ad5565b612151565b61040d610701366004614b29565b612168565b61034d7f9f2df0fed2c77648de5860a4cc508cd0818c85b8b8a1ab4ceeef8d981c8956a681565b61040d61073b366004614b05565b612431565b600c5461037390610100900460ff1681565b61034d7f65d7a28e3265b37a6474929f336521b332c1681b933f6cb9f3376673440d862a81565b61039661243b565b61037361078f366004614536565b6001600160a01b03918216600090815260036020908152604080832093909416825291909152205460ff1690565b6103c16107cb366004614682565b63f23a6e6160e01b95945050505050565b61040d6107ea366004614682565b6124cd565b6103736107fd366004614ad5565b6000908152600d602052604090206002015460ff1690565b61040d610823366004614913565b612524565b60006001600160a01b0383166108995760405162461bcd60e51b815260206004820152602b60248201527f455243313135353a2062616c616e636520717565727920666f7220746865207a60448201526a65726f206164647265737360a81b60648201526084015b60405180910390fd5b5060008181526002602090815260408083206001600160a01b03861684529091529020545b92915050565b60006108cf826125d0565b806108be57506001600160e01b0319821663152a902d60e11b1492915050565b6000818152600d6020526040902060010180546060919061090f906151d2565b80601f016020809104026020016040519081016040528092919081815260200182805461093b906151d2565b80156109885780601f1061095d57610100808354040283529160200191610988565b820191906000526020600020905b81548152906001019060200180831161096b57829003601f168201915b50505050509050919050565b6109a160006105e26125db565b6109bd5760405162461bcd60e51b815260040161089090614fca565b600860009054906101000a90046001600160a01b03166001600160a01b031663fd967f476040518163ffffffff1660e01b815260040160206040518083038186803b158015610a0b57600080fd5b505afa158015610a1f573d6000803e3d6000fd5b505050506040513d601f19601f82011682018060405250810190610a439190614bb6565b6001600160801b03168110610aad5760405162461bcd60e51b815260206004820152602a60248201527f4e46543a204270732070726f7669646564206d757374206265206c6573732074604482015269068616e2031302c3030360b41b6064820152608401610890565b600a8190556040518181527f244ea8d7627f5a08f4299862bd5a45752842c183aee5b0fb0d1e4887bfa605b3906020015b60405180910390a150565b60005b8351811015610c7c57600954848281518110610b1857634e487b7160e01b600052603260045260246000fd5b602002602001015110610b935760405162461bcd60e51b815260206004820152603960248201527f4e4654436f6c6c656374696f6e3a2063616e6e6f742063616c6c20746869732060448201527f666e20666f72206372656174696e67206e6577204e4654732e000000000000006064820152608401610890565b6000600d6000868481518110610bb957634e487b7160e01b600052603260045260246000fd5b60209081029190910181015182528101919091526040016000206004015460ff166002811115610bf957634e487b7160e01b600052602160045260246000fd5b14610c6c5760405162461bcd60e51b815260206004820152603a60248201527f4e4654436f6c6c656374696f6e3a2063616e6e6f7420667265656c79206d696e60448201527f74206d6f7265206f66204552433230206f72204552433732312e0000000000006064820152608401610890565b610c758161523a565b9050610aec565b50610c89848484846125e5565b50505050565b60085460405163f2aab4b360e01b815230600482015260009182916001600160a01b039091169063f2aab4b39060240160206040518083038186803b158015610cd757600080fd5b505afa158015610ceb573d6000803e3d6000fd5b505050506040513d601f19601f82011682018060405250810190610d0f919061451a565b9150600860009054906101000a90046001600160a01b03166001600160a01b031663fd967f476040518163ffffffff1660e01b815260040160206040518083038186803b158015610d5f57600080fd5b505afa158015610d73573d6000803e3d6000fd5b505050506040513d601f19601f82011682018060405250810190610d979190614bb6565b6001600160801b0316600a5484610dae9190615159565b610db89190615139565b90509250929050565b610dc96125db565b6001600160a01b0316856001600160a01b03161480610def5750610def8561078f6125db565b610e615760405162461bcd60e51b815260206004820152603260248201527f455243313135353a207472616e736665722063616c6c6572206973206e6f742060448201527f6f776e6572206e6f7220617070726f76656400000000000000000000000000006064820152608401610890565b610e6e858585858561268f565b5050505050565b610e7f82826128e4565b6000828152600160205260409020610e9790826125b7565b505050565b610ea68282612911565b6000828152600160205260409020610e97908261299b565b610eea7f65d7a28e3265b37a6474929f336521b332c1681b933f6cb9f3376673440d862a6105e26125db565b610f5c5760405162461bcd60e51b815260206004820152603b60248201527f455243313135355072657365744d696e7465725061757365723a206d7573742060448201527f686176652070617573657220726f6c6520746f20756e706175736500000000006064820152608401610890565b610f646129b0565b565b60055460ff1615610fac5760405162461bcd60e51b815260206004820152601060248201526f14185d5cd8589b194e881c185d5cd95960821b6044820152606401610890565b610fd87f9f2df0fed2c77648de5860a4cc508cd0818c85b8b8a1ab4ceeef8d981c8956a66105e26125db565b61103a5760405162461bcd60e51b815260206004820152602d60248201527f4163636573734e46543a206163636f756e7420646f6573206e6f74206861766560448201526c1026a4a72a22a92fa927a6229760991b6064820152608401610890565b868314801561104857508685145b6110ba5760405162461bcd60e51b815260206004820152603660248201527f4163636573734e46543a204d757374207370656369667920657175616c206e7560448201527f6d626572206f6620636f6e6669672076616c7565732e000000000000000000006064820152608401610890565b866111185760405162461bcd60e51b815260206004820152602860248201527f4163636573734e46543a204d75737420637265617465206174206c656173742060448201526737b7329027232a1760c11b6064820152608401610890565b60008767ffffffffffffffff81111561114157634e487b7160e01b600052604160045260246000fd5b60405190808252806020026020018201604052801561116a578160200160208202803683370190505b50905060008867ffffffffffffffff81111561119657634e487b7160e01b600052604160045260246000fd5b6040519080825280602002602001820160405280156111bf578160200160208202803683370190505b5060095490915060005b8a8110156114ee57818382815181106111f257634e487b7160e01b600052603260045260246000fd5b6020026020010181815250506040518060a001604052806112116125db565b6001600160a01b031681526020018b8b8481811061123f57634e487b7160e01b600052603260045260246000fd5b905060200281019061125191906150b8565b8080601f016020809104026020016040519081016040528093929190818152602001838380828437600092018290525093855250505060208201819052604082018190526060909101526000838152600d60209081526040909120825181546001600160a01b0319166001600160a01b0390911617815582820151805191926112e292600185019290910190614284565b5060408201516002808301805492151560ff1993841617905560608401516003840155608084015160048401805491939092911690600190849081111561133957634e487b7160e01b600052602160045260246000fd5b021790555061134d91506001905083615121565b91508184828151811061137057634e487b7160e01b600052603260045260246000fd5b6020026020010181815250506040518060a0016040528061138f6125db565b6001600160a01b031681526020018d8d848181106113bd57634e487b7160e01b600052603260045260246000fd5b90506020028101906113cf91906150b8565b8080601f01602080910402602001604051908101604052809392919081815260200183838082843760009201919091525050509082525060016020820181905260409091019061141f9085615178565b8152602001600090526000838152600d60209081526040909120825181546001600160a01b0319166001600160a01b03909116178155828201518051919261146f92600185019290910190614284565b5060408201516002808301805492151560ff199384161790556060840151600384015560808401516004840180549193909291169060019084908111156114c657634e487b7160e01b600052602160045260246000fd5b02179055506114da91506001905083615121565b9150806114e68161523a565b9150506111c9565b50806009819055506115423083898980806020026020016040519081016040528093929190818152602001838360200280828437600092018290525060408051602081019091529081529250612a52915050565b6115b48c8489898080602002602001604051908101604052809392919081815260200183836020028082843760009201919091525050604080516020601f8d018190048102820181019092528b815292508b91508a9081908401838280828437600092019190915250612a5292505050565b6115bc6125db565b6001600160a01b03167fe309c6cae6e35dcc6c2f37d5da32b19e0346074be56b9722cdf852d20fced6ee848d8d868e8e8e8e604051611602989796959493929190614efb565b60405180910390a2505050505050505050505050565b6000828152600d60205260409020546001600160a01b03166116386125db565b6001600160a01b0316146116b45760405162461bcd60e51b815260206004820152603360248201527f4163636573734e46543a206f6e6c79207468652063726561746f722063616e2060448201527f63616c6c20746869732066756e6374696f6e2e000000000000000000000000006064820152608401610890565b6000828152600d602052604090206002015460ff1661173b5760405162461bcd60e51b815260206004820152603860248201527f4163636573734e46543a2063616e207365742072656465656d2074696d65206660448201527f6f72206f6e6c792072656465656d61626c65204e4654732e00000000000000006064820152608401610890565b600081156117525761174d8242615121565b611756565b6000195b6000848152600e6020526040902081905590507ff01057f3c55599179571189c7758b5ce72994adea5a8dc33095fdc8fdff07119836117936125db565b604080519283526001600160a01b039091166020830152810183905260600160405180910390a1505050565b606081518351146118245760405162461bcd60e51b815260206004820152602960248201527f455243313135353a206163636f756e747320616e6420696473206c656e677468604482015268040dad2e6dac2e8c6d60bb1b6064820152608401610890565b6000835167ffffffffffffffff81111561184e57634e487b7160e01b600052604160045260246000fd5b604051908082528060200260200182016040528015611877578160200160208202803683370190505b50905060005b8451811015611919576118de8582815181106118a957634e487b7160e01b600052603260045260246000fd5b60200260200101518583815181106118d157634e487b7160e01b600052603260045260246000fd5b6020026020010151610828565b8282815181106118fe57634e487b7160e01b600052603260045260246000fd5b60209081029190910101526119128161523a565b905061187d565b509392505050565b6119296125db565b6001600160a01b0316836001600160a01b0316148061194f575061194f8361078f6125db565b61196b5760405162461bcd60e51b815260040161089090615027565b610e97838383612af1565b60095483106119ed5760405162461bcd60e51b815260206004820152603960248201527f4e4654436f6c6c656374696f6e3a2063616e6e6f742063616c6c20746869732060448201527f666e20666f72206372656174696e67206e6577204e4654732e000000000000006064820152608401610890565b6000838152600d602052604081206004015460ff166002811115611a2157634e487b7160e01b600052602160045260246000fd5b14611a945760405162461bcd60e51b815260206004820152603a60248201527f4e4654436f6c6c656374696f6e3a2063616e6e6f7420667265656c79206d696e60448201527f74206d6f7265206f66204552433230206f72204552433732312e0000000000006064820152608401610890565b610c8984848484612b8f565b611acc7f65d7a28e3265b37a6474929f336521b332c1681b933f6cb9f3376673440d862a6105e26125db565b611b3e5760405162461bcd60e51b815260206004820152603960248201527f455243313135355072657365744d696e7465725061757365723a206d7573742060448201527f686176652070617573657220726f6c6520746f207061757365000000000000006064820152608401610890565b610f64612c39565b611b5360006105e26125db565b611b6f5760405162461bcd60e51b815260040161089090614fca565b600c805460ff19168215159081179091556040519081527ffb4ba02cee22486df888d7ffb97c6100ec3193781e025cb9a4bc6fc358d626cc90602001610ade565b6000828152600160205260408120611bc89083612cb5565b9392505050565b6008546040805163a217fddf60e01b815290516001600160a01b03909216916391d1485491839163a217fddf91600480820192602092909190829003018186803b158015611c1c57600080fd5b505afa158015611c30573d6000803e3d6000fd5b505050506040513d601f19601f82011682018060405250810190611c549190614aed565b611c5c6125db565b6040516001600160e01b031960e085901b16815260048101929092526001600160a01b0316602482015260440160206040518083038186803b158015611ca157600080fd5b505afa158015611cb5573d6000803e3d6000fd5b505050506040513d601f19601f82011682018060405250810190611cd99190614ab9565b611d4b5760405162461bcd60e51b815260206004820152603860248201527f4163636573734e46543a206f6e6c7920612070726f746f636f6c2061646d696e60448201527f2063616e2063616c6c20746869732066756e6374696f6e2e00000000000000006064820152608401610890565b610e97600b8383614308565b600d60205260009081526040902080546001820180546001600160a01b039092169291611d83906151d2565b80601f0160208091040260200160405190810160405280929190818152602001828054611daf906151d2565b8015611dfc5780601f10611dd157610100808354040283529160200191611dfc565b820191906000526020600020905b815481529060010190602001808311611ddf57829003601f168201915b5050505060028301546003840154600490940154929360ff918216939092501685565b611e2c60006105e26125db565b611e485760405162461bcd60e51b815260040161089090614fca565b600c80548215156101000261ff00199091161790556040517e4701906729f069b76305c2c6a0bfa1d4ba4ff97d08206c8716078bf7a5e02790610ade90831515815260200190565b816001600160a01b0316611ea26125db565b6001600160a01b03161415611f0b5760405162461bcd60e51b815260206004820152602960248201527f455243313135353a2073657474696e6720617070726f76616c20737461747573604482015268103337b91039b2b63360b91b6064820152608401610890565b8060036000611f186125db565b6001600160a01b03908116825260208083019390935260409182016000908120918716808252919093529120805460ff191692151592909217909155611f5c6125db565b6001600160a01b03167f17307eab39ab6107e8899845ad3d59bd9653f200f220920489ca2b5937696c3183604051611f98911515815260200190565b60405180910390a35050565b60608167ffffffffffffffff811115611fcd57634e487b7160e01b600052604160045260246000fd5b60405190808252806020026020018201604052801561200057816020015b6060815260200190600190039081611feb5790505b50905060005b828110156120bc5761207e3085858481811061203257634e487b7160e01b600052603260045260246000fd5b905060200281019061204491906150b8565b8080601f016020809104026020016040519081016040528093929190818152602001838380828437600092019190915250612cc192505050565b82828151811061209e57634e487b7160e01b600052603260045260246000fd5b602002602001018190525080806120b49061523a565b915050612006565b5092915050565b600b80546120d0906151d2565b80601f01602080910402602001604051908101604052809291908181526020018280546120fc906151d2565b80156121495780601f1061211e57610100808354040283529160200191612149565b820191906000526020600020905b81548152906001019060200180831161212c57829003601f168201915b505050505081565b60008181526001602052604081206108be90612ce6565b60055460ff16156121ae5760405162461bcd60e51b815260206004820152601060248201526f14185d5cd8589b194e881c185d5cd95960821b6044820152606401610890565b60006121b86125db565b6000848152600d602052604090206002015490915060ff166122425760405162461bcd60e51b815260206004820152603360248201527f4163636573734e46543a205468697320746f6b656e206973206e6f742072656460448201527f65656d61626c6520666f72206163636573732e000000000000000000000000006064820152608401610890565b8161224d8285610828565b1015801561225b5750600082115b6122be5760405162461bcd60e51b815260206004820152602e60248201527f4163636573734e46543a2043616e6e6f742072656465656d206d6f7265204e4660448201526d2a39903a3430b71037bbb732b21760911b6064820152608401610890565b6000838152600e6020526040902054421115806122e757506000838152600e6020526040902054155b61234a5760405162461bcd60e51b815260206004820152602e60248201527f4163636573734e46543a2057696e646f7720746f2072656465656d206163636560448201526d39b9903430b99031b637b9b2b21760911b6064820152608401610890565b612355818484612524565b6000838152600d6020526040808220600301549051637921219560e11b815230600482018190526001600160a01b0385166024830152604482018390526064820186905260a0608483015260a482019390935290919063f242432a9060c401600060405180830381600087803b1580156123ce57600080fd5b505af11580156123e2573d6000803e3d6000fd5b505050508084836001600160a01b03167fa70022dc131dbd0be52c08bf87947e36b3e7d4934dce1efecf2d261c381d10178660405161242391815260200190565b60405180910390a450505050565b610ea68282612cf0565b6060600b805461244a906151d2565b80601f0160208091040260200160405190810160405280929190818152602001828054612476906151d2565b80156124c35780601f10612498576101008083540402835291602001916124c3565b820191906000526020600020905b8154815290600101906020018083116124a657829003601f168201915b5050505050905090565b6124d56125db565b6001600160a01b0316856001600160a01b031614806124fb57506124fb8561078f6125db565b6125175760405162461bcd60e51b815260040161089090615027565b610e6e8585858585612d18565b61252c6125db565b6001600160a01b0316836001600160a01b0316148061255257506125528361078f6125db565b61256e5760405162461bcd60e51b815260040161089090615027565b610e97838383612ed4565b6007546000906001600160a01b031633141561259c575060131936013560601c90565b503390565b905090565b90565b6125b38282612f07565b5050565b6000611bc8836001600160a01b038416612fa6565b3390565b60006108be82612ff5565b60006125a1612579565b6126117f9f2df0fed2c77648de5860a4cc508cd0818c85b8b8a1ab4ceeef8d981c8956a66105e26125db565b6126835760405162461bcd60e51b815260206004820152603860248201527f455243313135355072657365744d696e7465725061757365723a206d7573742060448201527f68617665206d696e74657220726f6c6520746f206d696e7400000000000000006064820152608401610890565b610c8984848484612a52565b81518351146126b05760405162461bcd60e51b815260040161089090615070565b6001600160a01b0384166127145760405162461bcd60e51b815260206004820152602560248201527f455243313135353a207472616e7366657220746f20746865207a65726f206164604482015264647265737360d81b6064820152608401610890565b600061271e6125db565b905061272e81878787878761301a565b60005b845181101561287657600085828151811061275c57634e487b7160e01b600052603260045260246000fd5b60200260200101519050600085838151811061278857634e487b7160e01b600052603260045260246000fd5b60209081029190910181015160008481526002835260408082206001600160a01b038e16835290935291909120549091508181101561281c5760405162461bcd60e51b815260206004820152602a60248201527f455243313135353a20696e73756666696369656e742062616c616e636520666f60448201526939103a3930b739b332b960b11b6064820152608401610890565b60008381526002602090815260408083206001600160a01b038e8116855292528083208585039055908b1682528120805484929061285b908490615121565b925050819055505050508061286f9061523a565b9050612731565b50846001600160a01b0316866001600160a01b0316826001600160a01b03167f4a39dc06d4c0dbc64b70af90fd698a233a518aa5d07e595d983b8c0526c8f7fb87876040516128c6929190614f89565b60405180910390a46128dc818787878787613257565b505050505050565b600082815260208190526040902060010154612907816129026125db565b61340c565b610e978383612f07565b6129196125db565b6001600160a01b0316816001600160a01b0316146129915760405162461bcd60e51b815260206004820152602f60248201527f416363657373436f6e74726f6c3a2063616e206f6e6c792072656e6f756e636560448201526e103937b632b9903337b91039b2b63360891b6064820152608401610890565b6125b3828261348a565b6000611bc8836001600160a01b038416613527565b60055460ff16612a025760405162461bcd60e51b815260206004820152601460248201527f5061757361626c653a206e6f74207061757365640000000000000000000000006044820152606401610890565b6005805460ff191690557f5db9ee0a495bf2e6ff9c91a7834c1ba4fdd244a5e8aa4e537bd38aeae4b073aa612a356125db565b6040516001600160a01b03909116815260200160405180910390a1565b612a5e84848484613644565b60005b8351811015610e6e57828181518110612a8a57634e487b7160e01b600052603260045260246000fd5b602002602001015160066000868481518110612ab657634e487b7160e01b600052603260045260246000fd5b602002602001015181526020019081526020016000206000828254612adb9190615121565b90915550612aea90508161523a565b9050612a61565b612afc838383613800565b60005b8251811015610c8957818181518110612b2857634e487b7160e01b600052603260045260246000fd5b602002602001015160066000858481518110612b5457634e487b7160e01b600052603260045260246000fd5b602002602001015181526020019081526020016000206000828254612b799190615178565b90915550612b8890508161523a565b9050612aff565b612bbb7f9f2df0fed2c77648de5860a4cc508cd0818c85b8b8a1ab4ceeef8d981c8956a66105e26125db565b612c2d5760405162461bcd60e51b815260206004820152603860248201527f455243313135355072657365744d696e7465725061757365723a206d7573742060448201527f68617665206d696e74657220726f6c6520746f206d696e7400000000000000006064820152608401610890565b610c8984848484613a1e565b60055460ff1615612c7f5760405162461bcd60e51b815260206004820152601060248201526f14185d5cd8589b194e881c185d5cd95960821b6044820152606401610890565b6005805460ff191660011790557f62e78cea01bee320cd4e420270b5ea74000d11b0c9f74754ebdbfc544b05a258612a356125db565b6000611bc88383613a53565b6060611bc8838360405180606001604052806027815260200161535f60279139613a8b565b60006108be825490565b600082815260208190526040902060010154612d0e816129026125db565b610e97838361348a565b6001600160a01b038416612d7c5760405162461bcd60e51b815260206004820152602560248201527f455243313135353a207472616e7366657220746f20746865207a65726f206164604482015264647265737360d81b6064820152608401610890565b6000612d866125db565b9050612da6818787612d9788613b5f565b612da088613b5f565b8761301a565b60008481526002602090815260408083206001600160a01b038a16845290915290205483811015612e2c5760405162461bcd60e51b815260206004820152602a60248201527f455243313135353a20696e73756666696369656e742062616c616e636520666f60448201526939103a3930b739b332b960b11b6064820152608401610890565b60008581526002602090815260408083206001600160a01b038b8116855292528083208785039055908816825281208054869290612e6b908490615121565b909155505060408051868152602081018690526001600160a01b03808916928a821692918616917fc3d58168c5ae7397731d063d5bbf3d657854427343f4c083240f7aacaa2d0f62910160405180910390a4612ecb828888888888613bb8565b50505050505050565b612edf838383613cc3565b60008281526006602052604081208054839290612efd908490615178565b9091555050505050565b6000828152602081815260408083206001600160a01b038516845290915290205460ff166125b3576000828152602081815260408083206001600160a01b03851684529091529020805460ff19166001179055612f626125db565b6001600160a01b0316816001600160a01b0316837f2f8788117e7eff1d82e926ec794901d17c78024a50270940304540a733656f0d60405160405180910390a45050565b6000818152600183016020526040812054612fed575081546001818101845560008481526020808220909301849055845484825282860190935260409020919091556108be565b5060006108be565b60006001600160e01b03198216630271189760e51b14806108be57506108be82613e4b565b613028868686868686613e8b565b600c5460ff16801561304257506001600160a01b03851615155b801561305657506001600160a01b03841615155b1561314a576001600160a01b03851660009081527f7c7a990f752005aea38438cc35abc5417bd322e6c964ec21d52573494225142c602052604090205460ff16806130d857506001600160a01b03841660009081527f7c7a990f752005aea38438cc35abc5417bd322e6c964ec21d52573494225142c602052604090205460ff165b61314a5760405162461bcd60e51b815260206004820152603c60248201527f4163636573734e46543a205472616e736665727320617265207265737472696360448201527f74656420746f205452414e534645525f524f4c4520686f6c64657273000000006064820152608401610890565b60005b8351811015612ecb57600d600085838151811061317a57634e487b7160e01b600052603260045260246000fd5b60209081029190910181015182528101919091526040016000206002015460ff161580156131b05750600c54610100900460ff16155b15613245576001600160a01b03861615806131d357506001600160a01b03861630145b6132455760405162461bcd60e51b815260206004820152603960248201527f4163636573734e46543a2063616e6e6f74207472616e7366657220616e20616360448201527f63657373204e465420746861742069732072656465656d6564000000000000006064820152608401610890565b8061324f8161523a565b91505061314d565b6001600160a01b0384163b156128dc5760405163bc197c8160e01b81526001600160a01b0385169063bc197c819061329b9089908990889088908890600401614d86565b602060405180830381600087803b1580156132b557600080fd5b505af19250505080156132e5575060408051601f3d908101601f191682019092526132e291810190614b66565b60015b61339b576132f1615281565b806308c379a0141561332b5750613306615298565b80613311575061332d565b8060405162461bcd60e51b81526004016108909190614fb7565b505b60405162461bcd60e51b815260206004820152603460248201527f455243313135353a207472616e7366657220746f206e6f6e204552433131353560448201527f526563656976657220696d706c656d656e7465720000000000000000000000006064820152608401610890565b6001600160e01b0319811663bc197c8160e01b14612ecb5760405162461bcd60e51b815260206004820152602860248201527f455243313135353a204552433131353552656365697665722072656a656374656044820152676420746f6b656e7360c01b6064820152608401610890565b6000828152602081815260408083206001600160a01b038516845290915290205460ff166125b357613448816001600160a01b03166014613e99565b613453836020613e99565b604051602001613464929190614d05565b60408051601f198184030181529082905262461bcd60e51b825261089091600401614fb7565b6000828152602081815260408083206001600160a01b038516845290915290205460ff16156125b3576000828152602081815260408083206001600160a01b03851684529091529020805460ff191690556134e36125db565b6001600160a01b0316816001600160a01b0316837ff6391f5c32d9c69d2a47ea670b442974b53935d1edc7fd64eb21e047a839171b60405160405180910390a45050565b6000818152600183016020526040812054801561363a57600061354b600183615178565b855490915060009061355f90600190615178565b90508181146135e057600086600001828154811061358d57634e487b7160e01b600052603260045260246000fd5b90600052602060002001549050808760000184815481106135be57634e487b7160e01b600052603260045260246000fd5b6000918252602080832090910192909255918252600188019052604090208390555b85548690806135ff57634e487b7160e01b600052603160045260246000fd5b6001900381819060005260206000200160009055905585600101600086815260200190815260200160002060009055600193505050506108be565b60009150506108be565b6001600160a01b0384166136a45760405162461bcd60e51b815260206004820152602160248201527f455243313135353a206d696e7420746f20746865207a65726f206164647265736044820152607360f81b6064820152608401610890565b81518351146136c55760405162461bcd60e51b815260040161089090615070565b60006136cf6125db565b90506136e08160008787878761301a565b60005b84518110156137985783818151811061370c57634e487b7160e01b600052603260045260246000fd5b60200260200101516002600087848151811061373857634e487b7160e01b600052603260045260246000fd5b602002602001015181526020019081526020016000206000886001600160a01b03166001600160a01b0316815260200190815260200160002060008282546137809190615121565b909155508190506137908161523a565b9150506136e3565b50846001600160a01b031660006001600160a01b0316826001600160a01b03167f4a39dc06d4c0dbc64b70af90fd698a233a518aa5d07e595d983b8c0526c8f7fb87876040516137e9929190614f89565b60405180910390a4610e6e81600087878787613257565b6001600160a01b0383166138625760405162461bcd60e51b815260206004820152602360248201527f455243313135353a206275726e2066726f6d20746865207a65726f206164647260448201526265737360e81b6064820152608401610890565b80518251146138835760405162461bcd60e51b815260040161089090615070565b600061388d6125db565b90506138ad8185600086866040518060200160405280600081525061301a565b60005b83518110156139cd5760008482815181106138db57634e487b7160e01b600052603260045260246000fd5b60200260200101519050600084838151811061390757634e487b7160e01b600052603260045260246000fd5b60209081029190910181015160008481526002835260408082206001600160a01b038c1683529093529190912054909150818110156139945760405162461bcd60e51b8152602060048201526024808201527f455243313135353a206275726e20616d6f756e7420657863656564732062616c604482015263616e636560e01b6064820152608401610890565b60009283526002602090815260408085206001600160a01b038b16865290915290922091039055806139c58161523a565b9150506138b0565b5060006001600160a01b0316846001600160a01b0316826001600160a01b03167f4a39dc06d4c0dbc64b70af90fd698a233a518aa5d07e595d983b8c0526c8f7fb8686604051612423929190614f89565b613a2a8484848461407b565b60008381526006602052604081208054849290613a48908490615121565b909155505050505050565b6000826000018281548110613a7857634e487b7160e01b600052603260045260246000fd5b9060005260206000200154905092915050565b6060833b613aea5760405162461bcd60e51b815260206004820152602660248201527f416464726573733a2064656c65676174652063616c6c20746f206e6f6e2d636f6044820152651b9d1c9858dd60d21b6064820152608401610890565b600080856001600160a01b031685604051613b059190614ce9565b600060405180830381855af49150503d8060008114613b40576040519150601f19603f3d011682016040523d82523d6000602084013e613b45565b606091505b5091509150613b55828286614189565b9695505050505050565b60408051600180825281830190925260609160009190602080830190803683370190505090508281600081518110613ba757634e487b7160e01b600052603260045260246000fd5b602090810291909101015292915050565b6001600160a01b0384163b156128dc5760405163f23a6e6160e01b81526001600160a01b0385169063f23a6e6190613bfc9089908990889088908890600401614de4565b602060405180830381600087803b158015613c1657600080fd5b505af1925050508015613c46575060408051601f3d908101601f19168201909252613c4391810190614b66565b60015b613c52576132f1615281565b6001600160e01b0319811663f23a6e6160e01b14612ecb5760405162461bcd60e51b815260206004820152602860248201527f455243313135353a204552433131353552656365697665722072656a656374656044820152676420746f6b656e7360c01b6064820152608401610890565b6001600160a01b038316613d255760405162461bcd60e51b815260206004820152602360248201527f455243313135353a206275726e2066726f6d20746865207a65726f206164647260448201526265737360e81b6064820152608401610890565b6000613d2f6125db565b9050613d5f81856000613d4187613b5f565b613d4a87613b5f565b6040518060200160405280600081525061301a565b60008381526002602090815260408083206001600160a01b038816845290915290205482811015613dde5760405162461bcd60e51b8152602060048201526024808201527f455243313135353a206275726e20616d6f756e7420657863656564732062616c604482015263616e636560e01b6064820152608401610890565b60008481526002602090815260408083206001600160a01b03898116808652918452828520888703905582518981529384018890529092908616917fc3d58168c5ae7397731d063d5bbf3d657854427343f4c083240f7aacaa2d0f62910160405180910390a45050505050565b60006001600160e01b03198216636cdb3d1360e11b1480613e7c57506001600160e01b031982166303a24d0760e21b145b806108be57506108be826141c2565b6128dc8686868686866141e7565b60606000613ea8836002615159565b613eb3906002615121565b67ffffffffffffffff811115613ed957634e487b7160e01b600052604160045260246000fd5b6040519080825280601f01601f191660200182016040528015613f03576020820181803683370190505b509050600360fc1b81600081518110613f2c57634e487b7160e01b600052603260045260246000fd5b60200101906001600160f81b031916908160001a905350600f60fb1b81600181518110613f6957634e487b7160e01b600052603260045260246000fd5b60200101906001600160f81b031916908160001a9053506000613f8d846002615159565b613f98906001615121565b90505b600181111561402c576f181899199a1a9b1b9c1cb0b131b232b360811b85600f1660108110613fda57634e487b7160e01b600052603260045260246000fd5b1a60f81b828281518110613ffe57634e487b7160e01b600052603260045260246000fd5b60200101906001600160f81b031916908160001a90535060049490941c93614025816151bb565b9050613f9b565b508315611bc85760405162461bcd60e51b815260206004820181905260248201527f537472696e67733a20686578206c656e67746820696e73756666696369656e746044820152606401610890565b6001600160a01b0384166140db5760405162461bcd60e51b815260206004820152602160248201527f455243313135353a206d696e7420746f20746865207a65726f206164647265736044820152607360f81b6064820152608401610890565b60006140e56125db565b90506140f781600087612d9788613b5f565b60008481526002602090815260408083206001600160a01b038916845290915281208054859290614129908490615121565b909155505060408051858152602081018590526001600160a01b0380881692600092918516917fc3d58168c5ae7397731d063d5bbf3d657854427343f4c083240f7aacaa2d0f62910160405180910390a4610e6e81600087878787613bb8565b60608315614198575081611bc8565b8251156141a85782518084602001fd5b8160405162461bcd60e51b81526004016108909190614fb7565b60006001600160e01b03198216635a05180f60e01b14806108be57506108be8261424f565b60055460ff16156128dc5760405162461bcd60e51b815260206004820152602c60248201527f455243313135355061757361626c653a20746f6b656e207472616e736665722060448201526b1dda1a5b19481c185d5cd95960a21b6064820152608401610890565b60006001600160e01b03198216637965db0b60e01b14806108be57506301ffc9a760e01b6001600160e01b03198316146108be565b828054614290906151d2565b90600052602060002090601f0160209004810192826142b257600085556142f8565b82601f106142cb57805160ff19168380011785556142f8565b828001600101855582156142f8579182015b828111156142f85782518255916020019190600101906142dd565b5061430492915061437c565b5090565b828054614314906151d2565b90600052602060002090601f01602090048101928261433657600085556142f8565b82601f1061434f5782800160ff198235161785556142f8565b828001600101855582156142f8579182015b828111156142f8578235825591602001919060010190614361565b5b80821115614304576000815560010161437d565b60008083601f8401126143a2578182fd5b50813567ffffffffffffffff8111156143b9578182fd5b6020830191508360208260051b85010111156143d457600080fd5b9250929050565b600082601f8301126143eb578081fd5b813560206143f8826150fd565b604051614405828261520d565b8381528281019150858301600585901b87018401881015614424578586fd5b855b8581101561444257813584529284019290840190600101614426565b5090979650505050505050565b60008083601f840112614460578182fd5b50813567ffffffffffffffff811115614477578182fd5b6020830191508360208285010111156143d457600080fd5b600082601f83011261449f578081fd5b813567ffffffffffffffff8111156144b9576144b961526b565b6040516144d0601f8301601f19166020018261520d565b8181528460208386010111156144e4578283fd5b816020850160208301379081016020019190915292915050565b60006020828403121561450f578081fd5b8135611bc881615322565b60006020828403121561452b578081fd5b8151611bc881615322565b60008060408385031215614548578081fd5b823561455381615322565b9150602083013561456381615322565b809150509250929050565b600080600080600060a08688031215614585578081fd5b853561459081615322565b945060208601356145a081615322565b9350604086013567ffffffffffffffff808211156145bc578283fd5b6145c889838a016143db565b945060608801359150808211156145dd578283fd5b6145e989838a016143db565b935060808801359150808211156145fe578283fd5b5061460b8882890161448f565b9150509295509295909350565b6000806000806080858703121561462d578384fd5b843561463881615322565b9350602085013561464881615322565b925060408501359150606085013567ffffffffffffffff81111561466a578182fd5b6146768782880161448f565b91505092959194509250565b600080600080600060a08688031215614699578283fd5b85356146a481615322565b945060208601356146b481615322565b93506040860135925060608601359150608086013567ffffffffffffffff8111156146dd578182fd5b61460b8882890161448f565b600080600080600080600080600060a08a8c031215614706578687fd5b893561471181615322565b985060208a013567ffffffffffffffff8082111561472d578889fd5b6147398d838e01614391565b909a50985060408c0135915080821115614751578586fd5b61475d8d838e01614391565b909850965060608c0135915080821115614775578586fd5b6147818d838e01614391565b909650945060808c0135915080821115614799578384fd5b506147a68c828d0161444f565b915080935050809150509295985092959850929598565b6000806000606084860312156147d1578081fd5b83356147dc81615322565b9250602084013567ffffffffffffffff808211156147f8578283fd5b614804878388016143db565b93506040860135915080821115614819578283fd5b50614826868287016143db565b9150509250925092565b60008060008060808587031215614845578182fd5b843561485081615322565b9350602085013567ffffffffffffffff8082111561486c578384fd5b614878888389016143db565b9450604087013591508082111561488d578384fd5b614899888389016143db565b935060608701359150808211156148ae578283fd5b506146768782880161448f565b600080604083850312156148cd578182fd5b82356148d881615322565b915060208301356145638161533a565b600080604083850312156148fa578182fd5b823561490581615322565b946020939093013593505050565b600080600060608486031215614927578081fd5b833561493281615322565b95602085013595506040909401359392505050565b6000806000806080858703121561495c578182fd5b843561496781615322565b93506020850135925060408501359150606085013567ffffffffffffffff81111561466a578182fd5b600080604083850312156149a2578182fd5b823567ffffffffffffffff808211156149b9578384fd5b818501915085601f8301126149cc578384fd5b813560206149d9826150fd565b6040516149e6828261520d565b8381528281019150858301600585901b870184018b1015614a05578889fd5b8896505b84871015614a30578035614a1c81615322565b835260019690960195918301918301614a09565b5096505086013592505080821115614a46578283fd5b50614a53858286016143db565b9150509250929050565b60008060208385031215614a6f578182fd5b823567ffffffffffffffff811115614a85578283fd5b614a9185828601614391565b90969095509350505050565b600060208284031215614aae578081fd5b8135611bc88161533a565b600060208284031215614aca578081fd5b8151611bc88161533a565b600060208284031215614ae6578081fd5b5035919050565b600060208284031215614afe578081fd5b5051919050565b60008060408385031215614b17578182fd5b82359150602083013561456381615322565b60008060408385031215614b3b578182fd5b50508035926020909101359150565b600060208284031215614b5b578081fd5b8135611bc881615348565b600060208284031215614b77578081fd5b8151611bc881615348565b60008060208385031215614b94578182fd5b823567ffffffffffffffff811115614baa578283fd5b614a918582860161444f565b600060208284031215614bc7578081fd5b81516001600160801b0381168114611bc8578182fd5b818352600060208085019450848460051b860184845b878110156144425783830389528135601e19883603018112614c13578687fd5b8701803567ffffffffffffffff811115614c2b578788fd5b803603891315614c39578788fd5b614c468582898501614cc0565b9a87019a9450505090840190600101614bf3565b6000815180845260208085019450808401835b83811015614c8957815187529582019590820190600101614c6d565b509495945050505050565b60008151808452614cac81602086016020860161518f565b601f01601f19169290920160200192915050565b81835281816020850137506000828201602090810191909152601f909101601f19169091010190565b60008251614cfb81846020870161518f565b9190910192915050565b7f416363657373436f6e74726f6c3a206163636f756e7420000000000000000000815260008351614d3d81601785016020880161518f565b7f206973206d697373696e6720726f6c65200000000000000000000000000000006017918401918201528351614d7a81602884016020880161518f565b01602801949350505050565b60006001600160a01b03808816835280871660208401525060a06040830152614db260a0830186614c5a565b8281036060840152614dc48186614c5a565b90508281036080840152614dd88185614c94565b98975050505050505050565b60006001600160a01b03808816835280871660208401525084604083015283606083015260a06080830152614e1c60a0830184614c94565b979650505050505050565b6001600160a01b038616815260a060208201526000614e4960a0830187614c94565b9050841515604083015283606083015260038310614e7757634e487b7160e01b600052602160045260246000fd5b8260808301529695505050505050565b6000602080830181845280855180835260408601915060408160051b8701019250838701855b82811015614edb57603f19888603018452614ec9858351614c94565b94509285019290850190600101614ead565b5092979650505050505050565b602081526000611bc86020830184614c5a565b60a081526000614f0e60a083018b614c5a565b8281036020840152614f21818a8c614bdd565b90508281036040840152614f358189614c5a565b90508281036060840152614f4a818789614bdd565b838103608085015284815290506001600160fb1b03841115614f6a578182fd5b8360051b80866020840137016020019081529998505050505050505050565b604081526000614f9c6040830185614c5a565b8281036020840152614fae8185614c5a565b95945050505050565b602081526000611bc86020830184614c94565b60208082526036908201527f4163636573734e46543a206f6e6c792061206d6f64756c652061646d696e206360408201527f616e2063616c6c20746869732066756e6374696f6e2e00000000000000000000606082015260800190565b60208082526029908201527f455243313135353a2063616c6c6572206973206e6f74206f776e6572206e6f7260408201526808185c1c1c9bdd995960ba1b606082015260800190565b60208082526028908201527f455243313135353a2069647320616e6420616d6f756e7473206c656e677468206040820152670dad2e6dac2e8c6d60c31b606082015260800190565b6000808335601e198436030181126150ce578283fd5b83018035915067ffffffffffffffff8211156150e8578283fd5b6020019150368190038213156143d457600080fd5b600067ffffffffffffffff8211156151175761511761526b565b5060051b60200190565b6000821982111561513457615134615255565b500190565b60008261515457634e487b7160e01b81526012600452602481fd5b500490565b600081600019048311821515161561517357615173615255565b500290565b60008282101561518a5761518a615255565b500390565b60005b838110156151aa578181015183820152602001615192565b83811115610c895750506000910152565b6000816151ca576151ca615255565b506000190190565b600181811c908216806151e657607f821691505b6020821081141561520757634e487b7160e01b600052602260045260246000fd5b50919050565b601f8201601f1916810167ffffffffffffffff811182821017156152335761523361526b565b6040525050565b600060001982141561524e5761524e615255565b5060010190565b634e487b7160e01b600052601160045260246000fd5b634e487b7160e01b600052604160045260246000fd5b600060033d11156125a657600481823e5160e01c90565b600060443d10156152a65790565b6040516003193d81016004833e81513d67ffffffffffffffff81602484011181841117156152d657505050505090565b82850191508151818111156152ee5750505050505090565b843d87010160208285010111156153085750505050505090565b6153176020828601018761520d565b509095945050505050565b6001600160a01b038116811461533757600080fd5b50565b801515811461533757600080fd5b6001600160e01b03198116811461533757600080fdfe416464726573733a206c6f772d6c6576656c2064656c65676174652063616c6c206661696c6564a164736f6c6343000804000a",
  "linkReferences": {},
  "deployedLinkReferences": {}
}