{
  "_format": "hh-sol-artifact-1",
  "contractName": "AccessNFT",
  "sourceName": "contracts/AccessNFT.sol",
  "abi": [
    {
      "inputs": [
        {
          "internalType": "address payable",
          "name": "_controlCenter",
          "type": "address"
        },
        {
          "internalType": "address",
          "name": "_trustedForwarder",
          "type": "address"
        },
        {
          "internalType": "string",
          "name": "_uri",
          "type": "string"
        }
      ],
      "stateMutability": "nonpayable",
      "type": "constructor"
    },
    {
      "anonymous": false,
      "inputs": [
        {
          "indexed": true,
          "internalType": "address",
          "name": "redeemer",
          "type": "address"
        },
        {
          "indexed": true,
          "internalType": "uint256",
          "name": "nftTokenId",
          "type": "uint256"
        },
        {
          "indexed": true,
          "internalType": "uint256",
          "name": "accessNftId",
          "type": "uint256"
        },
        {
          "indexed": false,
          "internalType": "uint256",
          "name": "amount",
          "type": "uint256"
        }
      ],
      "name": "AccessNFTRedeemed",
      "type": "event"
    },
    {
      "anonymous": false,
      "inputs": [
        {
          "indexed": true,
          "internalType": "address",
          "name": "creator",
          "type": "address"
        },
        {
          "indexed": false,
          "internalType": "uint256[]",
          "name": "nftIds",
          "type": "uint256[]"
        },
        {
          "indexed": false,
          "internalType": "string[]",
          "name": "nftURIs",
          "type": "string[]"
        },
        {
          "indexed": false,
          "internalType": "uint256[]",
          "name": "acessNftIds",
          "type": "uint256[]"
        },
        {
          "indexed": false,
          "internalType": "string[]",
          "name": "accessNftURIs",
          "type": "string[]"
        },
        {
          "indexed": false,
          "internalType": "uint256[]",
          "name": "nftSupplies",
          "type": "uint256[]"
        }
      ],
      "name": "AccessNFTsCreated",
      "type": "event"
    },
    {
      "anonymous": false,
      "inputs": [
        {
          "indexed": false,
          "internalType": "bool",
          "name": "isTransferable",
          "type": "bool"
        }
      ],
      "name": "AccessTransferabilityUpdated",
      "type": "event"
    },
    {
      "anonymous": false,
      "inputs": [
        {
          "indexed": true,
          "internalType": "address",
          "name": "account",
          "type": "address"
        },
        {
          "indexed": true,
          "internalType": "address",
          "name": "operator",
          "type": "address"
        },
        {
          "indexed": false,
          "internalType": "bool",
          "name": "approved",
          "type": "bool"
        }
      ],
      "name": "ApprovalForAll",
      "type": "event"
    },
    {
      "anonymous": false,
      "inputs": [
        {
          "indexed": false,
          "internalType": "uint256",
          "name": "accessNftId",
          "type": "uint256"
        },
        {
          "indexed": false,
          "internalType": "address",
          "name": "creator",
          "type": "address"
        },
        {
          "indexed": false,
          "internalType": "uint256",
          "name": "lastTimeToRedeem",
          "type": "uint256"
        }
      ],
      "name": "LastRedeemTimeUpdated",
      "type": "event"
    },
    {
      "anonymous": false,
      "inputs": [
        {
          "indexed": false,
          "internalType": "address",
          "name": "account",
          "type": "address"
        }
      ],
      "name": "Paused",
      "type": "event"
    },
    {
      "anonymous": false,
      "inputs": [
        {
          "indexed": true,
          "internalType": "bytes32",
          "name": "role",
          "type": "bytes32"
        },
        {
          "indexed": true,
          "internalType": "bytes32",
          "name": "previousAdminRole",
          "type": "bytes32"
        },
        {
          "indexed": true,
          "internalType": "bytes32",
          "name": "newAdminRole",
          "type": "bytes32"
        }
      ],
      "name": "RoleAdminChanged",
      "type": "event"
    },
    {
      "anonymous": false,
      "inputs": [
        {
          "indexed": true,
          "internalType": "bytes32",
          "name": "role",
          "type": "bytes32"
        },
        {
          "indexed": true,
          "internalType": "address",
          "name": "account",
          "type": "address"
        },
        {
          "indexed": true,
          "internalType": "address",
          "name": "sender",
          "type": "address"
        }
      ],
      "name": "RoleGranted",
      "type": "event"
    },
    {
      "anonymous": false,
      "inputs": [
        {
          "indexed": true,
          "internalType": "bytes32",
          "name": "role",
          "type": "bytes32"
        },
        {
          "indexed": true,
          "internalType": "address",
          "name": "account",
          "type": "address"
        },
        {
          "indexed": true,
          "internalType": "address",
          "name": "sender",
          "type": "address"
        }
      ],
      "name": "RoleRevoked",
      "type": "event"
    },
    {
      "anonymous": false,
      "inputs": [
        {
          "indexed": false,
          "internalType": "uint256",
          "name": "royaltyBps",
          "type": "uint256"
        }
      ],
      "name": "RoyaltyUpdated",
      "type": "event"
    },
    {
      "anonymous": false,
      "inputs": [
        {
          "indexed": true,
          "internalType": "address",
          "name": "operator",
          "type": "address"
        },
        {
          "indexed": true,
          "internalType": "address",
          "name": "from",
          "type": "address"
        },
        {
          "indexed": true,
          "internalType": "address",
          "name": "to",
          "type": "address"
        },
        {
          "indexed": false,
          "internalType": "uint256[]",
          "name": "ids",
          "type": "uint256[]"
        },
        {
          "indexed": false,
          "internalType": "uint256[]",
          "name": "values",
          "type": "uint256[]"
        }
      ],
      "name": "TransferBatch",
      "type": "event"
    },
    {
      "anonymous": false,
      "inputs": [
        {
          "indexed": true,
          "internalType": "address",
          "name": "operator",
          "type": "address"
        },
        {
          "indexed": true,
          "internalType": "address",
          "name": "from",
          "type": "address"
        },
        {
          "indexed": true,
          "internalType": "address",
          "name": "to",
          "type": "address"
        },
        {
          "indexed": false,
          "internalType": "uint256",
          "name": "id",
          "type": "uint256"
        },
        {
          "indexed": false,
          "internalType": "uint256",
          "name": "value",
          "type": "uint256"
        }
      ],
      "name": "TransferSingle",
      "type": "event"
    },
    {
      "anonymous": false,
      "inputs": [
        {
          "indexed": false,
          "internalType": "string",
          "name": "value",
          "type": "string"
        },
        {
          "indexed": true,
          "internalType": "uint256",
          "name": "id",
          "type": "uint256"
        }
      ],
      "name": "URI",
      "type": "event"
    },
    {
      "anonymous": false,
      "inputs": [
        {
          "indexed": false,
          "internalType": "address",
          "name": "account",
          "type": "address"
        }
      ],
      "name": "Unpaused",
      "type": "event"
    },
    {
      "inputs": [],
      "name": "DEFAULT_ADMIN_ROLE",
      "outputs": [
        {
          "internalType": "bytes32",
          "name": "",
          "type": "bytes32"
        }
      ],
      "stateMutability": "view",
      "type": "function"
    },
    {
      "inputs": [],
      "name": "MINTER_ROLE",
      "outputs": [
        {
          "internalType": "bytes32",
          "name": "",
          "type": "bytes32"
        }
      ],
      "stateMutability": "view",
      "type": "function"
    },
    {
      "inputs": [],
      "name": "PAUSER_ROLE",
      "outputs": [
        {
          "internalType": "bytes32",
          "name": "",
          "type": "bytes32"
        }
      ],
      "stateMutability": "view",
      "type": "function"
    },
    {
      "inputs": [],
      "name": "TRANSFER_ROLE",
      "outputs": [
        {
          "internalType": "bytes32",
          "name": "",
          "type": "bytes32"
        }
      ],
      "stateMutability": "view",
      "type": "function"
    },
    {
      "inputs": [],
      "name": "_contractURI",
      "outputs": [
        {
          "internalType": "string",
          "name": "",
          "type": "string"
        }
      ],
      "stateMutability": "view",
      "type": "function"
    },
    {
      "inputs": [],
      "name": "accessNftIsTransferable",
      "outputs": [
        {
          "internalType": "bool",
          "name": "",
          "type": "bool"
        }
      ],
      "stateMutability": "view",
      "type": "function"
    },
    {
      "inputs": [
        {
          "internalType": "address",
          "name": "account",
          "type": "address"
        },
        {
          "internalType": "uint256",
          "name": "id",
          "type": "uint256"
        }
      ],
      "name": "balanceOf",
      "outputs": [
        {
          "internalType": "uint256",
          "name": "",
          "type": "uint256"
        }
      ],
      "stateMutability": "view",
      "type": "function"
    },
    {
      "inputs": [
        {
          "internalType": "address[]",
          "name": "accounts",
          "type": "address[]"
        },
        {
          "internalType": "uint256[]",
          "name": "ids",
          "type": "uint256[]"
        }
      ],
      "name": "balanceOfBatch",
      "outputs": [
        {
          "internalType": "uint256[]",
          "name": "",
          "type": "uint256[]"
        }
      ],
      "stateMutability": "view",
      "type": "function"
    },
    {
      "inputs": [
        {
          "internalType": "address",
          "name": "account",
          "type": "address"
        },
        {
          "internalType": "uint256",
          "name": "id",
          "type": "uint256"
        },
        {
          "internalType": "uint256",
          "name": "value",
          "type": "uint256"
        }
      ],
      "name": "burn",
      "outputs": [],
      "stateMutability": "nonpayable",
      "type": "function"
    },
    {
      "inputs": [
        {
          "internalType": "address",
          "name": "account",
          "type": "address"
        },
        {
          "internalType": "uint256[]",
          "name": "ids",
          "type": "uint256[]"
        },
        {
          "internalType": "uint256[]",
          "name": "values",
          "type": "uint256[]"
        }
      ],
      "name": "burnBatch",
      "outputs": [],
      "stateMutability": "nonpayable",
      "type": "function"
    },
    {
      "inputs": [],
      "name": "contractURI",
      "outputs": [
        {
          "internalType": "string",
          "name": "",
          "type": "string"
        }
      ],
      "stateMutability": "view",
      "type": "function"
    },
    {
      "inputs": [
        {
          "internalType": "address",
          "name": "to",
          "type": "address"
        },
        {
          "internalType": "string[]",
          "name": "_nftURIs",
          "type": "string[]"
        },
        {
          "internalType": "string[]",
          "name": "_accessNftURIs",
          "type": "string[]"
        },
        {
          "internalType": "uint256[]",
          "name": "_nftSupplies",
          "type": "uint256[]"
        },
        {
          "internalType": "bytes",
          "name": "data",
          "type": "bytes"
        }
      ],
      "name": "createAccessTokens",
      "outputs": [],
      "stateMutability": "nonpayable",
      "type": "function"
    },
    {
      "inputs": [
        {
          "internalType": "bytes32",
          "name": "role",
          "type": "bytes32"
        }
      ],
      "name": "getRoleAdmin",
      "outputs": [
        {
          "internalType": "bytes32",
          "name": "",
          "type": "bytes32"
        }
      ],
      "stateMutability": "view",
      "type": "function"
    },
    {
      "inputs": [
        {
          "internalType": "bytes32",
          "name": "role",
          "type": "bytes32"
        },
        {
          "internalType": "uint256",
          "name": "index",
          "type": "uint256"
        }
      ],
      "name": "getRoleMember",
      "outputs": [
        {
          "internalType": "address",
          "name": "",
          "type": "address"
        }
      ],
      "stateMutability": "view",
      "type": "function"
    },
    {
      "inputs": [
        {
          "internalType": "bytes32",
          "name": "role",
          "type": "bytes32"
        }
      ],
      "name": "getRoleMemberCount",
      "outputs": [
        {
          "internalType": "uint256",
          "name": "",
          "type": "uint256"
        }
      ],
      "stateMutability": "view",
      "type": "function"
    },
    {
      "inputs": [
        {
          "internalType": "bytes32",
          "name": "role",
          "type": "bytes32"
        },
        {
          "internalType": "address",
          "name": "account",
          "type": "address"
        }
      ],
      "name": "grantRole",
      "outputs": [],
      "stateMutability": "nonpayable",
      "type": "function"
    },
    {
      "inputs": [
        {
          "internalType": "bytes32",
          "name": "role",
          "type": "bytes32"
        },
        {
          "internalType": "address",
          "name": "account",
          "type": "address"
        }
      ],
      "name": "hasRole",
      "outputs": [
        {
          "internalType": "bool",
          "name": "",
          "type": "bool"
        }
      ],
      "stateMutability": "view",
      "type": "function"
    },
    {
      "inputs": [
        {
          "internalType": "address",
          "name": "account",
          "type": "address"
        },
        {
          "internalType": "address",
          "name": "operator",
          "type": "address"
        }
      ],
      "name": "isApprovedForAll",
      "outputs": [
        {
          "internalType": "bool",
          "name": "",
          "type": "bool"
        }
      ],
      "stateMutability": "view",
      "type": "function"
    },
    {
      "inputs": [
        {
          "internalType": "uint256",
          "name": "_nftId",
          "type": "uint256"
        }
      ],
      "name": "isRedeemable",
      "outputs": [
        {
          "internalType": "bool",
          "name": "",
          "type": "bool"
        }
      ],
      "stateMutability": "view",
      "type": "function"
    },
    {
      "inputs": [
        {
          "internalType": "address",
          "name": "forwarder",
          "type": "address"
        }
      ],
      "name": "isTrustedForwarder",
      "outputs": [
        {
          "internalType": "bool",
          "name": "",
          "type": "bool"
        }
      ],
      "stateMutability": "view",
      "type": "function"
    },
    {
      "inputs": [
        {
          "internalType": "uint256",
          "name": "",
          "type": "uint256"
        }
      ],
      "name": "lastTimeToRedeem",
      "outputs": [
        {
          "internalType": "uint256",
          "name": "",
          "type": "uint256"
        }
      ],
      "stateMutability": "view",
      "type": "function"
    },
    {
      "inputs": [
        {
          "internalType": "address",
          "name": "to",
          "type": "address"
        },
        {
          "internalType": "uint256",
          "name": "id",
          "type": "uint256"
        },
        {
          "internalType": "uint256",
          "name": "amount",
          "type": "uint256"
        },
        {
          "internalType": "bytes",
          "name": "data",
          "type": "bytes"
        }
      ],
      "name": "mint",
      "outputs": [],
      "stateMutability": "nonpayable",
      "type": "function"
    },
    {
      "inputs": [
        {
          "internalType": "address",
          "name": "to",
          "type": "address"
        },
        {
          "internalType": "uint256[]",
          "name": "ids",
          "type": "uint256[]"
        },
        {
          "internalType": "uint256[]",
          "name": "amounts",
          "type": "uint256[]"
        },
        {
          "internalType": "bytes",
          "name": "data",
          "type": "bytes"
        }
      ],
      "name": "mintBatch",
      "outputs": [],
      "stateMutability": "nonpayable",
      "type": "function"
    },
    {
      "inputs": [],
      "name": "nextTokenId",
      "outputs": [
        {
          "internalType": "uint256",
          "name": "",
          "type": "uint256"
        }
      ],
      "stateMutability": "view",
      "type": "function"
    },
    {
      "inputs": [
        {
          "internalType": "address",
          "name": "",
          "type": "address"
        },
        {
          "internalType": "address",
          "name": "",
          "type": "address"
        },
        {
          "internalType": "uint256[]",
          "name": "",
          "type": "uint256[]"
        },
        {
          "internalType": "uint256[]",
          "name": "",
          "type": "uint256[]"
        },
        {
          "internalType": "bytes",
          "name": "",
          "type": "bytes"
        }
      ],
      "name": "onERC1155BatchReceived",
      "outputs": [
        {
          "internalType": "bytes4",
          "name": "",
          "type": "bytes4"
        }
      ],
      "stateMutability": "nonpayable",
      "type": "function"
    },
    {
      "inputs": [
        {
          "internalType": "address",
          "name": "",
          "type": "address"
        },
        {
          "internalType": "address",
          "name": "",
          "type": "address"
        },
        {
          "internalType": "uint256",
          "name": "",
          "type": "uint256"
        },
        {
          "internalType": "uint256",
          "name": "",
          "type": "uint256"
        },
        {
          "internalType": "bytes",
          "name": "",
          "type": "bytes"
        }
      ],
      "name": "onERC1155Received",
      "outputs": [
        {
          "internalType": "bytes4",
          "name": "",
          "type": "bytes4"
        }
      ],
      "stateMutability": "nonpayable",
      "type": "function"
    },
    {
      "inputs": [
        {
          "internalType": "address",
          "name": "",
          "type": "address"
        },
        {
          "internalType": "address",
          "name": "",
          "type": "address"
        },
        {
          "internalType": "uint256",
          "name": "",
          "type": "uint256"
        },
        {
          "internalType": "bytes",
          "name": "",
          "type": "bytes"
        }
      ],
      "name": "onERC721Received",
      "outputs": [
        {
          "internalType": "bytes4",
          "name": "",
          "type": "bytes4"
        }
      ],
      "stateMutability": "nonpayable",
      "type": "function"
    },
    {
      "inputs": [],
      "name": "pause",
      "outputs": [],
      "stateMutability": "nonpayable",
      "type": "function"
    },
    {
      "inputs": [],
      "name": "paused",
      "outputs": [
        {
          "internalType": "bool",
          "name": "",
          "type": "bool"
        }
      ],
      "stateMutability": "view",
      "type": "function"
    },
    {
      "inputs": [
        {
          "internalType": "uint256",
          "name": "_tokenId",
          "type": "uint256"
        },
        {
          "internalType": "uint256",
          "name": "_amount",
          "type": "uint256"
        }
      ],
      "name": "redeemToken",
      "outputs": [],
      "stateMutability": "nonpayable",
      "type": "function"
    },
    {
      "inputs": [
        {
          "internalType": "bytes32",
          "name": "role",
          "type": "bytes32"
        },
        {
          "internalType": "address",
          "name": "account",
          "type": "address"
        }
      ],
      "name": "renounceRole",
      "outputs": [],
      "stateMutability": "nonpayable",
      "type": "function"
    },
    {
      "inputs": [
        {
          "internalType": "bytes32",
          "name": "role",
          "type": "bytes32"
        },
        {
          "internalType": "address",
          "name": "account",
          "type": "address"
        }
      ],
      "name": "revokeRole",
      "outputs": [],
      "stateMutability": "nonpayable",
      "type": "function"
    },
    {
      "inputs": [],
      "name": "royaltyBps",
      "outputs": [
        {
          "internalType": "uint256",
          "name": "",
          "type": "uint256"
        }
      ],
      "stateMutability": "view",
      "type": "function"
    },
    {
      "inputs": [
        {
          "internalType": "uint256",
          "name": "",
          "type": "uint256"
        },
        {
          "internalType": "uint256",
          "name": "salePrice",
          "type": "uint256"
        }
      ],
      "name": "royaltyInfo",
      "outputs": [
        {
          "internalType": "address",
          "name": "receiver",
          "type": "address"
        },
        {
          "internalType": "uint256",
          "name": "royaltyAmount",
          "type": "uint256"
        }
      ],
      "stateMutability": "view",
      "type": "function"
    },
    {
      "inputs": [
        {
          "internalType": "address",
          "name": "from",
          "type": "address"
        },
        {
          "internalType": "address",
          "name": "to",
          "type": "address"
        },
        {
          "internalType": "uint256[]",
          "name": "ids",
          "type": "uint256[]"
        },
        {
          "internalType": "uint256[]",
          "name": "amounts",
          "type": "uint256[]"
        },
        {
          "internalType": "bytes",
          "name": "data",
          "type": "bytes"
        }
      ],
      "name": "safeBatchTransferFrom",
      "outputs": [],
      "stateMutability": "nonpayable",
      "type": "function"
    },
    {
      "inputs": [
        {
          "internalType": "address",
          "name": "from",
          "type": "address"
        },
        {
          "internalType": "address",
          "name": "to",
          "type": "address"
        },
        {
          "internalType": "uint256",
          "name": "id",
          "type": "uint256"
        },
        {
          "internalType": "uint256",
          "name": "amount",
          "type": "uint256"
        },
        {
          "internalType": "bytes",
          "name": "data",
          "type": "bytes"
        }
      ],
      "name": "safeTransferFrom",
      "outputs": [],
      "stateMutability": "nonpayable",
      "type": "function"
    },
    {
      "inputs": [
        {
          "internalType": "bool",
          "name": "_isTransferable",
          "type": "bool"
        }
      ],
      "name": "setAccessNftTransferability",
      "outputs": [],
      "stateMutability": "nonpayable",
      "type": "function"
    },
    {
      "inputs": [
        {
          "internalType": "address",
          "name": "operator",
          "type": "address"
        },
        {
          "internalType": "bool",
          "name": "approved",
          "type": "bool"
        }
      ],
      "name": "setApprovalForAll",
      "outputs": [],
      "stateMutability": "nonpayable",
      "type": "function"
    },
    {
      "inputs": [
        {
          "internalType": "string",
          "name": "_uri",
          "type": "string"
        }
      ],
      "name": "setContractURI",
      "outputs": [],
      "stateMutability": "nonpayable",
      "type": "function"
    },
    {
      "inputs": [
        {
          "internalType": "uint256",
          "name": "_tokenId",
          "type": "uint256"
        },
        {
          "internalType": "uint256",
          "name": "_secondsUntilRedeem",
          "type": "uint256"
        }
      ],
      "name": "setLastTimeToRedeem",
      "outputs": [],
      "stateMutability": "nonpayable",
      "type": "function"
    },
    {
      "inputs": [
        {
          "internalType": "bool",
          "name": "_restrictedTransfer",
          "type": "bool"
        }
      ],
      "name": "setRestrictedTransfer",
      "outputs": [],
      "stateMutability": "nonpayable",
      "type": "function"
    },
    {
      "inputs": [
        {
          "internalType": "uint256",
          "name": "_royaltyBps",
          "type": "uint256"
        }
      ],
      "name": "setRoyaltyBps",
      "outputs": [],
      "stateMutability": "nonpayable",
      "type": "function"
    },
    {
      "inputs": [
        {
          "internalType": "bytes4",
          "name": "interfaceId",
          "type": "bytes4"
        }
      ],
      "name": "supportsInterface",
      "outputs": [
        {
          "internalType": "bool",
          "name": "",
          "type": "bool"
        }
      ],
      "stateMutability": "view",
      "type": "function"
    },
    {
      "inputs": [
        {
          "internalType": "uint256",
          "name": "",
          "type": "uint256"
        }
      ],
      "name": "tokenState",
      "outputs": [
        {
          "internalType": "address",
          "name": "creator",
          "type": "address"
        },
        {
          "internalType": "string",
          "name": "uri",
          "type": "string"
        },
        {
          "internalType": "bool",
          "name": "isRedeemable",
          "type": "bool"
        },
        {
          "internalType": "uint256",
          "name": "accessNftId",
          "type": "uint256"
        },
        {
          "internalType": "enum AccessNFT.UnderlyingType",
          "name": "underlyingType",
          "type": "uint8"
        }
      ],
      "stateMutability": "view",
      "type": "function"
    },
    {
      "inputs": [
        {
          "internalType": "uint256",
          "name": "_nftId",
          "type": "uint256"
        }
      ],
      "name": "tokenURI",
      "outputs": [
        {
          "internalType": "string",
          "name": "",
          "type": "string"
        }
      ],
      "stateMutability": "view",
      "type": "function"
    },
    {
      "inputs": [
        {
          "internalType": "uint256",
          "name": "id",
          "type": "uint256"
        }
      ],
      "name": "totalSupply",
      "outputs": [
        {
          "internalType": "uint256",
          "name": "",
          "type": "uint256"
        }
      ],
      "stateMutability": "view",
      "type": "function"
    },
    {
      "inputs": [],
      "name": "transfersRestricted",
      "outputs": [
        {
          "internalType": "bool",
          "name": "",
          "type": "bool"
        }
      ],
      "stateMutability": "view",
      "type": "function"
    },
    {
      "inputs": [],
      "name": "unpause",
      "outputs": [],
      "stateMutability": "nonpayable",
      "type": "function"
    },
    {
      "inputs": [
        {
          "internalType": "uint256",
          "name": "_nftId",
          "type": "uint256"
        }
      ],
      "name": "uri",
      "outputs": [
        {
          "internalType": "string",
          "name": "",
          "type": "string"
        }
      ],
      "stateMutability": "view",
      "type": "function"
    }
  ],
  "bytecode": "0x60806040523480156200001157600080fd5b506040516200592d3803806200592d8339810160408190526200003491620003fc565b81818062000042816200013f565b506005805460ff191690556200006360006200005d62000158565b62000175565b620000927f9f2df0fed2c77648de5860a4cc508cd0818c85b8b8a1ab4ceeef8d981c8956a66200005d62000158565b620000c17f65d7a28e3265b37a6474929f336521b332c1681b933f6cb9f3376673440d862a6200005d62000158565b50600780546001600160a01b03199081166001600160a01b03938416179091556008805490911691851691909117905580516200010690600b90602084019062000356565b50620001367f8502233096d909befbda0999bb8ea2f3a6be3c138b9fbf003752a4c8bce86f6c6200005d62000158565b50505062000565565b80516200015490600490602084019062000356565b5050565b60006200016f620001b860201b6200217c1760201c565b90505b90565b6200018c8282620001f860201b620021aa1760201c565b6000828152600160209081526040909120620001b3918390620021b862000204821b17901c565b505050565b6000620001c53362000224565b15620001db575060131936013560601c62000172565b620001f06200023860201b620021cd1760201c565b905062000172565b6200015482826200023c565b60006200021b836001600160a01b038416620002c6565b90505b92915050565b6007546001600160a01b0390811691161490565b3390565b62000248828262000315565b62000154576000828152602081815260408083206001600160a01b03851684529091529020805460ff191660011790556200028262000158565b6001600160a01b0316816001600160a01b0316837f2f8788117e7eff1d82e926ec794901d17c78024a50270940304540a733656f0d60405160405180910390a45050565b6000620002d483836200033e565b6200030c575081546001818101845560008481526020808220909301849055845484825282860190935260409020919091556200021e565b5060006200021e565b6000918252602082815260408084206001600160a01b0393909316845291905290205460ff1690565b60009081526001919091016020526040902054151590565b8280546200036490620004f9565b90600052602060002090601f016020900481019282620003885760008555620003d3565b82601f10620003a357805160ff1916838001178555620003d3565b82800160010185558215620003d3579182015b82811115620003d3578251825591602001919060010190620003b6565b50620003e1929150620003e5565b5090565b5b80821115620003e15760008155600101620003e6565b60008060006060848603121562000411578283fd5b83516200041e816200054c565b8093505060208085015162000433816200054c565b60408601519093506001600160401b038082111562000450578384fd5b818701915087601f83011262000464578384fd5b81518181111562000479576200047962000536565b604051601f8201601f19168101850183811182821017156200049f576200049f62000536565b60405281815283820185018a1015620004b6578586fd5b8592505b81831015620004d95783830185015181840186015291840191620004ba565b81831115620004ea57858583830101525b80955050505050509250925092565b6002810460018216806200050e57607f821691505b602082108114156200053057634e487b7160e01b600052602260045260246000fd5b50919050565b634e487b7160e01b600052604160045260246000fd5b6001600160a01b03811681146200056257600080fd5b50565b6153b880620005756000396000f3fe608060405234801561001057600080fd5b506004361061032a5760003560e01c80638ba448c2116101b2578063c87b56dd116100f9578063e63ab1e9116100a2578063f23a6e611161007c578063f23a6e611461065c578063f242432a1461066f578063f48cc32614610682578063f5298aca146106955761032a565b8063e63ab1e914610639578063e8a3d48514610641578063e985e9c5146106495761032a565b8063d5391393116100d3578063d539139314610616578063d547741f1461061e578063d9371ddd146106315761032a565b8063c87b56dd14610378578063ca15c873146105f0578063ca551b02146106035761032a565b8063a217fddf1161015b578063bd85b03911610135578063bd85b039146105cd578063c0e72740146105e0578063c63adb2b146105e85761032a565b8063a217fddf1461059f578063a22cb465146105a7578063bc197c81146105ba5761032a565b8063938e3d7b1161018c578063938e3d7b146105555780639745cc3d146105685780639f1d94771461058c5761032a565b80638ba448c21461050f5780639010d07c1461052257806391d14854146105425761032a565b806336568abe116102765780635c975abb1161021f57806375794a3c116101f957806375794a3c146104f75780638423df79146104ff5780638456cb59146105075761032a565b80635c975abb146104c95780636b20c454146104d1578063731133e9146104e45761032a565b80634487f6b4116102505780634487f6b4146104835780634e1273f414610496578063572b6c05146104b65761032a565b806336568abe146104555780633f4ba83a14610468578063400c477a146104705761032a565b80631f7fdffa116102d85780632a55205a116102b25780632a55205a1461040e5780632eb2c2d61461042f5780632f2ff15d146104425761032a565b80631f7fdffa146103e0578063206b60f9146103f3578063248a9ca3146103fb5761032a565b8063150b7a0211610309578063150b7a021461039857806317ffeba2146103b85780631f72d831146103cb5761032a565b8062fdd58e1461032f57806301ffc9a7146103585780630e89341c14610378575b600080fd5b61034261033d366004613dd3565b6106a8565b60405161034f919061446b565b60405180910390f35b61036b610366366004613fe8565b610704565b60405161034f9190614460565b61038b610386366004613f73565b61072f565b60405161034f91906144a0565b6103ab6103a6366004613b03565b6107d4565b60405161034f919061448b565b6103426103c6366004613f73565b6107e4565b6103de6103d9366004613f73565b6107f6565b005b6103de6103ee366004613d1b565b610a02565b610342610afc565b610342610409366004613f73565b610b20565b61042161041c366004613fc7565b610b35565b60405161034f92919061435f565b6103de61043d366004613a59565b610c75565b6103de610450366004613fa3565b610cd3565b6103de610463366004613fa3565b610cfa565b6103de610d1c565b6103de61047e366004613bd4565b610d6e565b6103de610491366004613fc7565b6113ba565b6104a96104a4366004613e7b565b6114a6565b60405161034f9190614378565b61036b6104c43660046139e9565b6115c6565b61036b6115da565b6103de6104df366004613ca8565b6115e4565b6103de6104f2366004613e32565b611639565b6103426116b7565b61036b6116bd565b6103de6116c6565b6103de61051d366004613f3b565b611716565b610535610530366004613fc7565b61183f565b60405161034f9190614212565b61036b610550366004613fa3565b61185e565b6103de610563366004614020565b611887565b61057b610576366004613f73565b6119a9565b60405161034f9594939291906142ff565b6103de61059a366004613f3b565b611a71565b610342611bc9565b6103de6105b5366004613da6565b611bce565b6103ab6105c8366004613a59565b611c9c565b6103426105db366004613f73565b611cad565b61038b611cbf565b610342611d4d565b6103426105fe366004613f73565b611d53565b6103de610611366004613fc7565b611d6a565b610342611f87565b6103de61062c366004613fa3565b611fab565b61036b611fb5565b610342611fc3565b61038b611fe7565b61036b610657366004613a21565b612079565b6103ab61066a366004613b6d565b6120a7565b6103de61067d366004613b6d565b6120b8565b61036b610690366004613f73565b61210f565b6103de6106a3366004613dfe565b612127565b60006001600160a01b0383166106d95760405162461bcd60e51b81526004016106d090614636565b60405180910390fd5b5060008181526002602090815260408083206001600160a01b03861684529091529020545b92915050565b600061070f826121d1565b806106fe57506001600160e01b0319821663152a902d60e11b1492915050565b6000818152600d6020526040902060010180546060919061074f90615242565b80601f016020809104026020016040519081016040528092919081815260200182805461077b90615242565b80156107c85780601f1061079d576101008083540402835291602001916107c8565b820191906000526020600020905b8154815290600101906020018083116107ab57829003601f168201915b50505050509050919050565b630a85bd0160e11b949350505050565b600e6020526000908152604090205481565b6008546040805163a217fddf60e01b815290516001600160a01b03909216916391d1485491839163a217fddf91600480820192602092909190829003018186803b15801561084357600080fd5b505afa158015610857573d6000803e3d6000fd5b505050506040513d601f19601f8201168201806040525081019061087b9190613f8b565b6108836121dc565b6040518363ffffffff1660e01b81526004016108a0929190614474565b60206040518083038186803b1580156108b857600080fd5b505afa1580156108cc573d6000803e3d6000fd5b505050506040513d601f19601f820116820180604052508101906108f09190613f57565b61090c5760405162461bcd60e51b81526004016106d090614734565b600860009054906101000a90046001600160a01b03166001600160a01b031663fd967f476040518163ffffffff1660e01b815260040160206040518083038186803b15801561095a57600080fd5b505afa15801561096e573d6000803e3d6000fd5b505050506040513d601f19601f820116820180604052508101906109929190614060565b6fffffffffffffffffffffffffffffffff1681106109c25760405162461bcd60e51b81526004016106d090614da8565b600a8190556040517f244ea8d7627f5a08f4299862bd5a45752842c183aee5b0fb0d1e4887bfa605b3906109f790839061446b565b60405180910390a150565b60005b8351811015610ae957600954848281518110610a3157634e487b7160e01b600052603260045260246000fd5b602002602001015110610a565760405162461bcd60e51b81526004016106d0906145d9565b6000600d6000868481518110610a7c57634e487b7160e01b600052603260045260246000fd5b60209081029190910181015182528101919091526040016000206004015460ff166002811115610abc57634e487b7160e01b600052602160045260246000fd5b14610ad95760405162461bcd60e51b81526004016106d090614693565b610ae28161527d565b9050610a05565b50610af6848484846121eb565b50505050565b7f8502233096d909befbda0999bb8ea2f3a6be3c138b9fbf003752a4c8bce86f6c81565b60009081526020819052604090206001015490565b60085460405163f2aab4b360e01b815260009182916001600160a01b039091169063f2aab4b390610b6a903090600401614212565b60206040518083038186803b158015610b8257600080fd5b505afa158015610b96573d6000803e3d6000fd5b505050506040513d601f19601f82011682018060405250810190610bba9190613a05565b9150600860009054906101000a90046001600160a01b03166001600160a01b031663fd967f476040518163ffffffff1660e01b815260040160206040518083038186803b158015610c0a57600080fd5b505afa158015610c1e573d6000803e3d6000fd5b505050506040513d601f19601f82011682018060405250810190610c429190614060565b6fffffffffffffffffffffffffffffffff16600a5484610c6291906151c9565b610c6c91906151a9565b90509250929050565b610c7d6121dc565b6001600160a01b0316856001600160a01b03161480610ca35750610ca3856106576121dc565b610cbf5760405162461bcd60e51b81526004016106d090614981565b610ccc858585858561223f565b5050505050565b610cdd8282612413565b6000828152600160205260409020610cf590826121b8565b505050565b610d048282612437565b6000828152600160205260409020610cf59082612479565b610d487f65d7a28e3265b37a6474929f336521b332c1681b933f6cb9f3376673440d862a6105506121dc565b610d645760405162461bcd60e51b81526004016106d090614e05565b610d6c61248e565b565b600860009054906101000a90046001600160a01b03166001600160a01b0316639d2f83f06040518163ffffffff1660e01b815260040160206040518083038186803b158015610dbc57600080fd5b505afa158015610dd0573d6000803e3d6000fd5b505050506040513d601f19601f82011682018060405250810190610df49190613f57565b15610e115760405162461bcd60e51b81526004016106d090614bf2565b610e3d7f9f2df0fed2c77648de5860a4cc508cd0818c85b8b8a1ab4ceeef8d981c8956a66105506121dc565b610e595760405162461bcd60e51b81526004016106d090614a3b565b8683148015610e6757508685145b610e835760405162461bcd60e51b81526004016106d090614d4b565b86610ea05760405162461bcd60e51b81526004016106d0906148df565b60008767ffffffffffffffff811115610ec957634e487b7160e01b600052604160045260246000fd5b604051908082528060200260200182016040528015610ef2578160200160208202803683370190505b50905060008867ffffffffffffffff811115610f1e57634e487b7160e01b600052604160045260246000fd5b604051908082528060200260200182016040528015610f47578160200160208202803683370190505b5060095490915060005b8a8110156112905781838281518110610f7a57634e487b7160e01b600052603260045260246000fd5b6020026020010181815250506040518060a00160405280610f996121dc565b6001600160a01b031681526020018b8b84818110610fc757634e487b7160e01b600052603260045260246000fd5b9050602002810190610fd991906150fe565b8080601f016020809104026020016040519081016040528093929190818152602001838380828437600092018290525093855250505060208201819052604082018190526060909101526000838152600d602090815260409091208251815473ffffffffffffffffffffffffffffffffffffffff19166001600160a01b0390911617815582820151805191926110779260018501929091019061377c565b5060408201516002808301805492151560ff199384161790556060840151600384015560808401516004840180549193909291169060019084908111156110ce57634e487b7160e01b600052602160045260246000fd5b02179055506110e291506001905083615191565b91508184828151811061110557634e487b7160e01b600052603260045260246000fd5b6020026020010181815250506040518060a001604052806111246121dc565b6001600160a01b031681526020018d8d8481811061115257634e487b7160e01b600052603260045260246000fd5b905060200281019061116491906150fe565b8080601f0160208091040260200160405190810160405280939291908181526020018383808284376000920191909152505050908252506001602082018190526040909101906111b490856151e8565b8152602001600090526000838152600d602090815260409091208251815473ffffffffffffffffffffffffffffffffffffffff19166001600160a01b0390911617815582820151805191926112119260018501929091019061377c565b5060408201516002808301805492151560ff1993841617905560608401516003840155608084015160048401805491939092911690600190849081111561126857634e487b7160e01b600052602160045260246000fd5b021790555061127c91506001905083615191565b9150806112888161527d565b915050610f51565b50806009819055506112e430838989808060200260200160405190810160405280939291908181526020018383602002808284376000920182905250604080516020810190915290815292506124fc915050565b6113568c8489898080602002602001604051908101604052809392919081815260200183836020028082843760009201919091525050604080516020601f8d018190048102820181019092528b815292508b91508a90819084018382808284376000920191909152506124fc92505050565b61135e6121dc565b6001600160a01b03167fe309c6cae6e35dcc6c2f37d5da32b19e0346074be56b9722cdf852d20fced6ee848d8d868e8e8e8e6040516113a498979695949392919061438b565b60405180910390a2505050505050505050505050565b6000828152600d60205260409020546001600160a01b03166113da6121dc565b6001600160a01b0316146114005760405162461bcd60e51b81526004016106d090614e62565b6000828152600d602052604090206002015460ff166114315760405162461bcd60e51b81526004016106d090614c91565b60008115611448576114438242615191565b61144c565b6000195b6000848152600e6020526040902081905590507ff01057f3c55599179571189c7758b5ce72994adea5a8dc33095fdc8fdff07119836114896121dc565b83604051611499939291906150d1565b60405180910390a1505050565b606081518351146114c95760405162461bcd60e51b81526004016106d090614f79565b6000835167ffffffffffffffff8111156114f357634e487b7160e01b600052604160045260246000fd5b60405190808252806020026020018201604052801561151c578160200160208202803683370190505b50905060005b84518110156115be5761158385828151811061154e57634e487b7160e01b600052603260045260246000fd5b602002602001015185838151811061157657634e487b7160e01b600052603260045260246000fd5b60200260200101516106a8565b8282815181106115a357634e487b7160e01b600052603260045260246000fd5b60209081029190910101526115b78161527d565b9050611522565b509392505050565b6007546001600160a01b0390811691161490565b60055460ff165b90565b6115ec6121dc565b6001600160a01b0316836001600160a01b031614806116125750611612836106576121dc565b61162e5760405162461bcd60e51b81526004016106d0906147ee565b610cf583838361259b565b600954831061165a5760405162461bcd60e51b81526004016106d0906145d9565b6000838152600d602052604081206004015460ff16600281111561168e57634e487b7160e01b600052602160045260246000fd5b146116ab5760405162461bcd60e51b81526004016106d090614693565b610af684848484612639565b60095481565b600c5460ff1681565b6116f27f65d7a28e3265b37a6474929f336521b332c1681b933f6cb9f3376673440d862a6105506121dc565b61170e5760405162461bcd60e51b81526004016106d090614ebf565b610d6c61268d565b6008546040805163a217fddf60e01b815290516001600160a01b03909216916391d1485491839163a217fddf91600480820192602092909190829003018186803b15801561176357600080fd5b505afa158015611777573d6000803e3d6000fd5b505050506040513d601f19601f8201168201806040525081019061179b9190613f8b565b6117a36121dc565b6040518363ffffffff1660e01b81526004016117c0929190614474565b60206040518083038186803b1580156117d857600080fd5b505afa1580156117ec573d6000803e3d6000fd5b505050506040513d601f19601f820116820180604052508101906118109190613f57565b61182c5760405162461bcd60e51b81526004016106d090614734565b600c805460ff1916911515919091179055565b600082815260016020526040812061185790836126e8565b9392505050565b6000918252602082815260408084206001600160a01b0393909316845291905290205460ff1690565b6008546040805163a217fddf60e01b815290516001600160a01b03909216916391d1485491839163a217fddf91600480820192602092909190829003018186803b1580156118d457600080fd5b505afa1580156118e8573d6000803e3d6000fd5b505050506040513d601f19601f8201168201806040525081019061190c9190613f8b565b6119146121dc565b6040518363ffffffff1660e01b8152600401611931929190614474565b60206040518083038186803b15801561194957600080fd5b505afa15801561195d573d6000803e3d6000fd5b505050506040513d601f19601f820116820180604052508101906119819190613f57565b61199d5760405162461bcd60e51b81526004016106d090614734565b610cf5600b8383613800565b600d60205260009081526040902080546001820180546001600160a01b0390921692916119d590615242565b80601f0160208091040260200160405190810160405280929190818152602001828054611a0190615242565b8015611a4e5780601f10611a2357610100808354040283529160200191611a4e565b820191906000526020600020905b815481529060010190602001808311611a3157829003601f168201915b5050505060028301546003840154600490940154929360ff918216939092501685565b6008546040805163a217fddf60e01b815290516001600160a01b03909216916391d1485491839163a217fddf91600480820192602092909190829003018186803b158015611abe57600080fd5b505afa158015611ad2573d6000803e3d6000fd5b505050506040513d601f19601f82011682018060405250810190611af69190613f8b565b611afe6121dc565b6040518363ffffffff1660e01b8152600401611b1b929190614474565b60206040518083038186803b158015611b3357600080fd5b505afa158015611b47573d6000803e3d6000fd5b505050506040513d601f19601f82011682018060405250810190611b6b9190613f57565b611b875760405162461bcd60e51b81526004016106d090614734565b600c805461ff001916610100831515021790556040517e4701906729f069b76305c2c6a0bfa1d4ba4ff97d08206c8716078bf7a5e027906109f7908390614460565b600081565b816001600160a01b0316611be06121dc565b6001600160a01b03161415611c075760405162461bcd60e51b81526004016106d090614f1c565b8060036000611c146121dc565b6001600160a01b03908116825260208083019390935260409182016000908120918716808252919093529120805460ff191692151592909217909155611c586121dc565b6001600160a01b03167f17307eab39ab6107e8899845ad3d59bd9653f200f220920489ca2b5937696c3183604051611c909190614460565b60405180910390a35050565b63bc197c8160e01b95945050505050565b60009081526006602052604090205490565b600b8054611ccc90615242565b80601f0160208091040260200160405190810160405280929190818152602001828054611cf890615242565b8015611d455780601f10611d1a57610100808354040283529160200191611d45565b820191906000526020600020905b815481529060010190602001808311611d2857829003601f168201915b505050505081565b600a5481565b60008181526001602052604081206106fe906126f4565b600860009054906101000a90046001600160a01b03166001600160a01b0316639d2f83f06040518163ffffffff1660e01b815260040160206040518083038186803b158015611db857600080fd5b505afa158015611dcc573d6000803e3d6000fd5b505050506040513d601f19601f82011682018060405250810190611df09190613f57565b15611e0d5760405162461bcd60e51b81526004016106d090614bf2565b6000611e176121dc565b6000848152600d602052604090206002015490915060ff16611e4b5760405162461bcd60e51b81526004016106d090614cee565b81611e5682856106a8565b10158015611e645750600082115b611e805760405162461bcd60e51b81526004016106d09061484b565b6000838152600e602052604090205442111580611ea957506000838152600e6020526040902054155b611ec55760405162461bcd60e51b81526004016106d090614c34565b611ed0818484612127565b6000838152600d602052604090819020600301549051637921219560e11b8152309063f242432a90611f0c9083908690869089906004016142c7565b600060405180830381600087803b158015611f2657600080fd5b505af1158015611f3a573d6000803e3d6000fd5b505050508084836001600160a01b03167fa70022dc131dbd0be52c08bf87947e36b3e7d4934dce1efecf2d261c381d101786604051611f79919061446b565b60405180910390a450505050565b7f9f2df0fed2c77648de5860a4cc508cd0818c85b8b8a1ab4ceeef8d981c8956a681565b610d0482826126ff565b600c54610100900460ff1681565b7f65d7a28e3265b37a6474929f336521b332c1681b933f6cb9f3376673440d862a81565b6060600b8054611ff690615242565b80601f016020809104026020016040519081016040528092919081815260200182805461202290615242565b801561206f5780601f106120445761010080835404028352916020019161206f565b820191906000526020600020905b81548152906001019060200180831161205257829003601f168201915b5050505050905090565b6001600160a01b03918216600090815260036020908152604080832093909416825291909152205460ff1690565b63f23a6e6160e01b95945050505050565b6120c06121dc565b6001600160a01b0316856001600160a01b031614806120e657506120e6856106576121dc565b6121025760405162461bcd60e51b81526004016106d0906147ee565b610ccc858585858561271e565b6000908152600d602052604090206002015460ff1690565b61212f6121dc565b6001600160a01b0316836001600160a01b031614806121555750612155836106576121dc565b6121715760405162461bcd60e51b81526004016106d0906147ee565b610cf5838383612865565b6000612187336115c6565b1561219b575060131936013560601c6115e1565b6121a36121cd565b90506115e1565b6121b48282612898565b5050565b6000611857836001600160a01b03841661291d565b3390565b60006106fe82612967565b60006121e661217c565b905090565b6122177f9f2df0fed2c77648de5860a4cc508cd0818c85b8b8a1ab4ceeef8d981c8956a66105506121dc565b6122335760405162461bcd60e51b81526004016106d090614adb565b610af6848484846124fc565b81518351146122605760405162461bcd60e51b81526004016106d090614fd6565b6001600160a01b0384166122865760405162461bcd60e51b81526004016106d09061493c565b60006122906121dc565b90506122a081878787878761298c565b60005b84518110156123a55760008582815181106122ce57634e487b7160e01b600052603260045260246000fd5b6020026020010151905060008583815181106122fa57634e487b7160e01b600052603260045260246000fd5b60209081029190910181015160008481526002835260408082206001600160a01b038e16835290935291909120549091508181101561234b5760405162461bcd60e51b81526004016106d090614b38565b60008381526002602090815260408083206001600160a01b038e8116855292528083208585039055908b1682528120805484929061238a908490615191565b925050819055505050508061239e9061527d565b90506122a3565b50846001600160a01b0316866001600160a01b0316826001600160a01b03167f4a39dc06d4c0dbc64b70af90fd698a233a518aa5d07e595d983b8c0526c8f7fb87876040516123f5929190614432565b60405180910390a461240b818787878787612afa565b505050505050565b61241c82610b20565b61242d816124286121dc565b612c08565b610cf58383612898565b61243f6121dc565b6001600160a01b0316816001600160a01b03161461246f5760405162461bcd60e51b81526004016106d090615074565b6121b48282612c6c565b6000611857836001600160a01b038416612cef565b6124966115da565b6124b25760405162461bcd60e51b81526004016106d0906145a2565b6005805460ff191690557f5db9ee0a495bf2e6ff9c91a7834c1ba4fdd244a5e8aa4e537bd38aeae4b073aa6124e56121dc565b6040516124f29190614212565b60405180910390a1565b61250884848484612e0c565b60005b8351811015610ccc5782818151811061253457634e487b7160e01b600052603260045260246000fd5b60200260200101516006600086848151811061256057634e487b7160e01b600052603260045260246000fd5b6020026020010151815260200190815260200160002060008282546125859190615191565b9091555061259490508161527d565b905061250b565b6125a6838383612f8e565b60005b8251811015610af6578181815181106125d257634e487b7160e01b600052603260045260246000fd5b6020026020010151600660008584815181106125fe57634e487b7160e01b600052603260045260246000fd5b60200260200101518152602001908152602001600020600082825461262391906151e8565b9091555061263290508161527d565b90506125a9565b6126657f9f2df0fed2c77648de5860a4cc508cd0818c85b8b8a1ab4ceeef8d981c8956a66105506121dc565b6126815760405162461bcd60e51b81526004016106d090614adb565b610af684848484613134565b6126956115da565b156126b25760405162461bcd60e51b81526004016106d0906148a8565b6005805460ff191660011790557f62e78cea01bee320cd4e420270b5ea74000d11b0c9f74754ebdbfc544b05a2586124e56121dc565b60006118578383613169565b60006106fe826131a1565b61270882610b20565b612714816124286121dc565b610cf58383612c6c565b6001600160a01b0384166127445760405162461bcd60e51b81526004016106d09061493c565b600061274e6121dc565b905061276e81878761275f886131a5565b612768886131a5565b8761298c565b60008481526002602090815260408083206001600160a01b038a168452909152902054838110156127b15760405162461bcd60e51b81526004016106d090614b38565b60008581526002602090815260408083206001600160a01b038b81168552925280832087850390559088168252812080548692906127f0908490615191565b92505081905550856001600160a01b0316876001600160a01b0316836001600160a01b03167fc3d58168c5ae7397731d063d5bbf3d657854427343f4c083240f7aacaa2d0f6288886040516128469291906150f0565b60405180910390a461285c8288888888886131fe565b50505050505050565b6128708383836132cf565b6000828152600660205260408120805483929061288e9084906151e8565b9091555050505050565b6128a2828261185e565b6121b4576000828152602081815260408083206001600160a01b03851684529091529020805460ff191660011790556128d96121dc565b6001600160a01b0316816001600160a01b0316837f2f8788117e7eff1d82e926ec794901d17c78024a50270940304540a733656f0d60405160405180910390a45050565b600061292983836133e2565b61295f575081546001818101845560008481526020808220909301849055845484825282860190935260409020919091556106fe565b5060006106fe565b60006001600160e01b03198216630271189760e51b14806106fe57506106fe826133fa565b61299a86868686868661343a565b600c5460ff1680156129b457506001600160a01b03851615155b80156129c857506001600160a01b03841615155b15612a43576129f77f8502233096d909befbda0999bb8ea2f3a6be3c138b9fbf003752a4c8bce86f6c8661185e565b80612a275750612a277f8502233096d909befbda0999bb8ea2f3a6be3c138b9fbf003752a4c8bce86f6c8561185e565b612a435760405162461bcd60e51b81526004016106d090614b95565b60005b835181101561285c57600d6000858381518110612a7357634e487b7160e01b600052603260045260246000fd5b60209081029190910181015182528101919091526040016000206002015460ff16158015612aa95750600c54610100900460ff16155b15612ae8576001600160a01b0386161580612acc57506001600160a01b03861630145b612ae85760405162461bcd60e51b81526004016106d0906149de565b80612af28161527d565b915050612a46565b612b0c846001600160a01b0316613448565b1561240b5760405163bc197c8160e01b81526001600160a01b0385169063bc197c8190612b459089908990889088908890600401614226565b602060405180830381600087803b158015612b5f57600080fd5b505af1925050508015612b8f575060408051601f3d908101601f19168201909252612b8c91810190614004565b60015b612bd857612b9b6152ca565b80612ba65750612bc0565b8060405162461bcd60e51b81526004016106d091906144a0565b60405162461bcd60e51b81526004016106d0906144b3565b6001600160e01b0319811663bc197c8160e01b1461285c5760405162461bcd60e51b81526004016106d090614545565b612c12828261185e565b6121b457612c2a816001600160a01b0316601461344e565b612c3583602061344e565b604051602001612c46929190614191565b60408051601f198184030181529082905262461bcd60e51b82526106d0916004016144a0565b612c76828261185e565b156121b4576000828152602081815260408083206001600160a01b03851684529091529020805460ff19169055612cab6121dc565b6001600160a01b0316816001600160a01b0316837ff6391f5c32d9c69d2a47ea670b442974b53935d1edc7fd64eb21e047a839171b60405160405180910390a45050565b60008181526001830160205260408120548015612e02576000612d136001836151e8565b8554909150600090612d27906001906151e8565b9050818114612da8576000866000018281548110612d5557634e487b7160e01b600052603260045260246000fd5b9060005260206000200154905080876000018481548110612d8657634e487b7160e01b600052603260045260246000fd5b6000918252602080832090910192909255918252600188019052604090208390555b8554869080612dc757634e487b7160e01b600052603160045260246000fd5b6001900381819060005260206000200160009055905585600101600086815260200190815260200160002060009055600193505050506106fe565b60009150506106fe565b6001600160a01b038416612e325760405162461bcd60e51b81526004016106d090615033565b8151835114612e535760405162461bcd60e51b81526004016106d090614fd6565b6000612e5d6121dc565b9050612e6e8160008787878761298c565b60005b8451811015612f2657838181518110612e9a57634e487b7160e01b600052603260045260246000fd5b602002602001015160026000878481518110612ec657634e487b7160e01b600052603260045260246000fd5b602002602001015181526020019081526020016000206000886001600160a01b03166001600160a01b031681526020019081526020016000206000828254612f0e9190615191565b90915550819050612f1e8161527d565b915050612e71565b50846001600160a01b031660006001600160a01b0316826001600160a01b03167f4a39dc06d4c0dbc64b70af90fd698a233a518aa5d07e595d983b8c0526c8f7fb8787604051612f77929190614432565b60405180910390a4610ccc81600087878787612afa565b6001600160a01b038316612fb45760405162461bcd60e51b81526004016106d090614a98565b8051825114612fd55760405162461bcd60e51b81526004016106d090614fd6565b6000612fdf6121dc565b9050612fff8185600086866040518060200160405280600081525061298c565b60005b83518110156130e357600084828151811061302d57634e487b7160e01b600052603260045260246000fd5b60200260200101519050600084838151811061305957634e487b7160e01b600052603260045260246000fd5b60209081029190910181015160008481526002835260408082206001600160a01b038c1683529093529190912054909150818110156130aa5760405162461bcd60e51b81526004016106d0906146f0565b60009283526002602090815260408085206001600160a01b038b16865290915290922091039055806130db8161527d565b915050613002565b5060006001600160a01b0316846001600160a01b0316826001600160a01b03167f4a39dc06d4c0dbc64b70af90fd698a233a518aa5d07e595d983b8c0526c8f7fb8686604051611f79929190614432565b6131408484848461360d565b6000838152600660205260408120805484929061315e908490615191565b909155505050505050565b600082600001828154811061318e57634e487b7160e01b600052603260045260246000fd5b9060005260206000200154905092915050565b5490565b604080516001808252818301909252606091600091906020808301908036833701905050905082816000815181106131ed57634e487b7160e01b600052603260045260246000fd5b602090810291909101015292915050565b613210846001600160a01b0316613448565b1561240b5760405163f23a6e6160e01b81526001600160a01b0385169063f23a6e61906132499089908990889088908890600401614284565b602060405180830381600087803b15801561326357600080fd5b505af1925050508015613293575060408051601f3d908101601f1916820190925261329091810190614004565b60015b61329f57612b9b6152ca565b6001600160e01b0319811663f23a6e6160e01b1461285c5760405162461bcd60e51b81526004016106d090614545565b6001600160a01b0383166132f55760405162461bcd60e51b81526004016106d090614a98565b60006132ff6121dc565b905061332f81856000613311876131a5565b61331a876131a5565b6040518060200160405280600081525061298c565b60008381526002602090815260408083206001600160a01b0388168452909152902054828110156133725760405162461bcd60e51b81526004016106d0906146f0565b60008481526002602090815260408083206001600160a01b03808a16808652919093528184208786039055905190918516907fc3d58168c5ae7397731d063d5bbf3d657854427343f4c083240f7aacaa2d0f62906133d390899089906150f0565b60405180910390a45050505050565b60009081526001919091016020526040902054151590565b60006001600160e01b03198216636cdb3d1360e11b148061342b57506001600160e01b031982166303a24d0760e21b145b806106fe57506106fe826136ef565b61240b868686868686613714565b3b151590565b6060600061345d8360026151c9565b613468906002615191565b67ffffffffffffffff81111561348e57634e487b7160e01b600052604160045260246000fd5b6040519080825280601f01601f1916602001820160405280156134b8576020820181803683370190505b509050600360fc1b816000815181106134e157634e487b7160e01b600052603260045260246000fd5b60200101906001600160f81b031916908160001a905350600f60fb1b8160018151811061351e57634e487b7160e01b600052603260045260246000fd5b60200101906001600160f81b031916908160001a90535060006135428460026151c9565b61354d906001615191565b90505b60018111156135ee577f303132333435363738396162636465660000000000000000000000000000000085600f166010811061359c57634e487b7160e01b600052603260045260246000fd5b1a60f81b8282815181106135c057634e487b7160e01b600052603260045260246000fd5b60200101906001600160f81b031916908160001a90535060049490941c936135e78161522b565b9050613550565b5083156118575760405162461bcd60e51b81526004016106d090614510565b6001600160a01b0384166136335760405162461bcd60e51b81526004016106d090615033565b600061363d6121dc565b905061364f8160008761275f886131a5565b60008481526002602090815260408083206001600160a01b038916845290915281208054859290613681908490615191565b92505081905550846001600160a01b031660006001600160a01b0316826001600160a01b03167fc3d58168c5ae7397731d063d5bbf3d657854427343f4c083240f7aacaa2d0f6287876040516136d89291906150f0565b60405180910390a4610ccc816000878787876131fe565b60006001600160e01b03198216635a05180f60e01b14806106fe57506106fe82613747565b61372286868686868661240b565b61372a6115da565b1561240b5760405162461bcd60e51b81526004016106d090614791565b60006001600160e01b03198216637965db0b60e01b14806106fe57506301ffc9a760e01b6001600160e01b03198316146106fe565b82805461378890615242565b90600052602060002090601f0160209004810192826137aa57600085556137f0565b82601f106137c357805160ff19168380011785556137f0565b828001600101855582156137f0579182015b828111156137f05782518255916020019190600101906137d5565b506137fc929150613874565b5090565b82805461380c90615242565b90600052602060002090601f01602090048101928261382e57600085556137f0565b82601f106138475782800160ff198235161785556137f0565b828001600101855582156137f0579182015b828111156137f0578235825591602001919060010190613859565b5b808211156137fc5760008155600101613875565b60008083601f84011261389a578182fd5b50813567ffffffffffffffff8111156138b1578182fd5b60208301915083602080830285010111156138cb57600080fd5b9250929050565b600082601f8301126138e2578081fd5b813560206138f76138f28361516d565b615143565b8281528181019085830183850287018401881015613913578586fd5b855b8581101561393157813584529284019290840190600101613915565b5090979650505050505050565b60008083601f84011261394f578182fd5b50813567ffffffffffffffff811115613966578182fd5b6020830191508360208285010111156138cb57600080fd5b600082601f83011261398e578081fd5b813567ffffffffffffffff8111156139a8576139a86152ae565b6139bb601f8201601f1916602001615143565b8181528460208386010111156139cf578283fd5b816020850160208301379081016020019190915292915050565b6000602082840312156139fa578081fd5b81356118578161536f565b600060208284031215613a16578081fd5b81516118578161536f565b60008060408385031215613a33578081fd5b8235613a3e8161536f565b91506020830135613a4e8161536f565b809150509250929050565b600080600080600060a08688031215613a70578081fd5b8535613a7b8161536f565b94506020860135613a8b8161536f565b9350604086013567ffffffffffffffff80821115613aa7578283fd5b613ab389838a016138d2565b94506060880135915080821115613ac8578283fd5b613ad489838a016138d2565b93506080880135915080821115613ae9578283fd5b50613af68882890161397e565b9150509295509295909350565b60008060008060808587031215613b18578384fd5b8435613b238161536f565b93506020850135613b338161536f565b925060408501359150606085013567ffffffffffffffff811115613b55578182fd5b613b618782880161397e565b91505092959194509250565b600080600080600060a08688031215613b84578283fd5b8535613b8f8161536f565b94506020860135613b9f8161536f565b93506040860135925060608601359150608086013567ffffffffffffffff811115613bc8578182fd5b613af68882890161397e565b600080600080600080600080600060a08a8c031215613bf1578687fd5b8935613bfc8161536f565b985060208a013567ffffffffffffffff80821115613c18578889fd5b613c248d838e01613889565b909a50985060408c0135915080821115613c3c578586fd5b613c488d838e01613889565b909850965060608c0135915080821115613c60578586fd5b613c6c8d838e01613889565b909650945060808c0135915080821115613c84578384fd5b50613c918c828d0161393e565b915080935050809150509295985092959850929598565b600080600060608486031215613cbc578081fd5b8335613cc78161536f565b9250602084013567ffffffffffffffff80821115613ce3578283fd5b613cef878388016138d2565b93506040860135915080821115613d04578283fd5b50613d11868287016138d2565b9150509250925092565b60008060008060808587031215613d30578182fd5b8435613d3b8161536f565b9350602085013567ffffffffffffffff80821115613d57578384fd5b613d63888389016138d2565b94506040870135915080821115613d78578384fd5b613d84888389016138d2565b93506060870135915080821115613d99578283fd5b50613b618782880161397e565b60008060408385031215613db8578182fd5b8235613dc38161536f565b91506020830135613a4e81615387565b60008060408385031215613de5578182fd5b8235613df08161536f565b946020939093013593505050565b600080600060608486031215613e12578081fd5b8335613e1d8161536f565b95602085013595506040909401359392505050565b60008060008060808587031215613e47578182fd5b8435613e528161536f565b93506020850135925060408501359150606085013567ffffffffffffffff811115613b55578182fd5b60008060408385031215613e8d578182fd5b823567ffffffffffffffff80821115613ea4578384fd5b818501915085601f830112613eb7578384fd5b81356020613ec76138f28361516d565b82815281810190858301838502870184018b1015613ee3578889fd5b8896505b84871015613f0e578035613efa8161536f565b835260019690960195918301918301613ee7565b5096505086013592505080821115613f24578283fd5b50613f31858286016138d2565b9150509250929050565b600060208284031215613f4c578081fd5b813561185781615387565b600060208284031215613f68578081fd5b815161185781615387565b600060208284031215613f84578081fd5b5035919050565b600060208284031215613f9c578081fd5b5051919050565b60008060408385031215613fb5578182fd5b823591506020830135613a4e8161536f565b60008060408385031215613fd9578182fd5b50508035926020909101359150565b600060208284031215613ff9578081fd5b813561185781615395565b600060208284031215614015578081fd5b815161185781615395565b60008060208385031215614032578182fd5b823567ffffffffffffffff811115614048578283fd5b6140548582860161393e565b90969095509350505050565b600060208284031215614071578081fd5b81516fffffffffffffffffffffffffffffffff81168114611857578182fd5b818352602080840193600091908185020181018584845b8781101561411e5782840389528135601e198836030181126140c7578687fd5b8701803567ffffffffffffffff8111156140df578788fd5b8036038913156140ed578788fd5b8086528087830188880137858101870188905299860199601f01601f191690940185019350908401906001016140a7565b5091979650505050505050565b6000815180845260208085019450808401835b8381101561415a5781518752958201959082019060010161413e565b509495945050505050565b6000815180845261417d8160208601602086016151ff565b601f01601f19169290920160200192915050565b60007f416363657373436f6e74726f6c3a206163636f756e7420000000000000000000825283516141c98160178501602088016151ff565b7f206973206d697373696e6720726f6c652000000000000000000000000000000060179184019182015283516142068160288401602088016151ff565b01602801949350505050565b6001600160a01b0391909116815260200190565b60006001600160a01b03808816835280871660208401525060a0604083015261425260a083018661412b565b8281036060840152614264818661412b565b905082810360808401526142788185614165565b98975050505050505050565b60006001600160a01b03808816835280871660208401525084604083015283606083015260a060808301526142bc60a0830184614165565b979650505050505050565b6001600160a01b0394851681529290931660208301526040820152606081019190915260a06080820181905260009082015260c00190565b60006001600160a01b038716825260a0602083015261432160a0830187614165565b905084151560408301528360608301526003831061434f57634e487b7160e01b600052602160045260246000fd5b8260808301529695505050505050565b6001600160a01b03929092168252602082015260400190565b600060208252611857602083018461412b565b600060a0825261439e60a083018b61412b565b82810360208401526143b1818a8c614090565b905082810360408401526143c5818961412b565b905082810360608401526143da818789614090565b905082810360808401528381527f07ffffffffffffffffffffffffffffffffffffffffffffffffffffffffffffff841115614413578182fd5b6020840280866020840137016020019081529998505050505050505050565b600060408252614445604083018561412b565b8281036020840152614457818561412b565b95945050505050565b901515815260200190565b90815260200190565b9182526001600160a01b0316602082015260400190565b6001600160e01b031991909116815260200190565b6000602082526118576020830184614165565b60208082526034908201527f455243313135353a207472616e7366657220746f206e6f6e204552433131353560408201527f526563656976657220696d706c656d656e746572000000000000000000000000606082015260800190565b6020808252818101527f537472696e67733a20686578206c656e67746820696e73756666696369656e74604082015260600190565b60208082526028908201527f455243313135353a204552433131353552656365697665722072656a6563746560408201527f6420746f6b656e73000000000000000000000000000000000000000000000000606082015260800190565b60208082526014908201527f5061757361626c653a206e6f7420706175736564000000000000000000000000604082015260600190565b60208082526039908201527f4e4654436f6c6c656374696f6e3a2063616e6e6f742063616c6c20746869732060408201527f666e20666f72206372656174696e67206e6577204e4654732e00000000000000606082015260800190565b6020808252602b908201527f455243313135353a2062616c616e636520717565727920666f7220746865207a60408201527f65726f2061646472657373000000000000000000000000000000000000000000606082015260800190565b6020808252603a908201527f4e4654436f6c6c656374696f6e3a2063616e6e6f7420667265656c79206d696e60408201527f74206d6f7265206f66204552433230206f72204552433732312e000000000000606082015260800190565b60208082526024908201527f455243313135353a206275726e20616d6f756e7420657863656564732062616c604082015263616e636560e01b606082015260800190565b60208082526038908201527f4163636573734e46543a206f6e6c7920612070726f746f636f6c2061646d696e60408201527f2063616e2063616c6c20746869732066756e6374696f6e2e0000000000000000606082015260800190565b6020808252602c908201527f455243313135355061757361626c653a20746f6b656e207472616e736665722060408201527f7768696c65207061757365640000000000000000000000000000000000000000606082015260800190565b60208082526029908201527f455243313135353a2063616c6c6572206973206e6f74206f776e6572206e6f7260408201527f20617070726f7665640000000000000000000000000000000000000000000000606082015260800190565b6020808252602e908201527f4163636573734e46543a2043616e6e6f742072656465656d206d6f7265204e4660408201527f5473207468616e206f776e65642e000000000000000000000000000000000000606082015260800190565b60208082526010908201527f5061757361626c653a2070617573656400000000000000000000000000000000604082015260600190565b60208082526028908201527f4163636573734e46543a204d75737420637265617465206174206c656173742060408201527f6f6e65204e46542e000000000000000000000000000000000000000000000000606082015260800190565b60208082526025908201527f455243313135353a207472616e7366657220746f20746865207a65726f206164604082015264647265737360d81b606082015260800190565b60208082526032908201527f455243313135353a207472616e736665722063616c6c6572206973206e6f742060408201527f6f776e6572206e6f7220617070726f7665640000000000000000000000000000606082015260800190565b60208082526039908201527f4163636573734e46543a2063616e6e6f74207472616e7366657220616e20616360408201527f63657373204e465420746861742069732072656465656d656400000000000000606082015260800190565b6020808252602d908201527f4163636573734e46543a206163636f756e7420646f6573206e6f74206861766560408201527f204d494e5445525f524f4c452e00000000000000000000000000000000000000606082015260800190565b60208082526023908201527f455243313135353a206275726e2066726f6d20746865207a65726f206164647260408201526265737360e81b606082015260800190565b60208082526038908201527f455243313135355072657365744d696e7465725061757365723a206d7573742060408201527f68617665206d696e74657220726f6c6520746f206d696e740000000000000000606082015260800190565b6020808252602a908201527f455243313135353a20696e73756666696369656e742062616c616e636520666f60408201527f72207472616e7366657200000000000000000000000000000000000000000000606082015260800190565b6020808252603c908201527f4163636573734e46543a205472616e736665727320617265207265737472696360408201527f74656420746f205452414e534645525f524f4c4520686f6c6465727300000000606082015260800190565b60208082526022908201527f4163636573734e46543a205468652070726f746f636f6c206973207061757365604082015261321760f11b606082015260800190565b6020808252602e908201527f4163636573734e46543a2057696e646f7720746f2072656465656d206163636560408201527f73732068617320636c6f7365642e000000000000000000000000000000000000606082015260800190565b60208082526038908201527f4163636573734e46543a2063616e207365742072656465656d2074696d65206660408201527f6f72206f6e6c792072656465656d61626c65204e4654732e0000000000000000606082015260800190565b60208082526033908201527f4163636573734e46543a205468697320746f6b656e206973206e6f742072656460408201527f65656d61626c6520666f72206163636573732e00000000000000000000000000606082015260800190565b60208082526036908201527f4163636573734e46543a204d757374207370656369667920657175616c206e7560408201527f6d626572206f6620636f6e6669672076616c7565732e00000000000000000000606082015260800190565b6020808252602a908201527f4e46543a204270732070726f7669646564206d757374206265206c657373207460408201527f68616e2031302c30303000000000000000000000000000000000000000000000606082015260800190565b6020808252603b908201527f455243313135355072657365744d696e7465725061757365723a206d7573742060408201527f686176652070617573657220726f6c6520746f20756e70617573650000000000606082015260800190565b60208082526033908201527f4163636573734e46543a206f6e6c79207468652063726561746f722063616e2060408201527f63616c6c20746869732066756e6374696f6e2e00000000000000000000000000606082015260800190565b60208082526039908201527f455243313135355072657365744d696e7465725061757365723a206d7573742060408201527f686176652070617573657220726f6c6520746f20706175736500000000000000606082015260800190565b60208082526029908201527f455243313135353a2073657474696e6720617070726f76616c2073746174757360408201527f20666f722073656c660000000000000000000000000000000000000000000000606082015260800190565b60208082526029908201527f455243313135353a206163636f756e747320616e6420696473206c656e67746860408201527f206d69736d617463680000000000000000000000000000000000000000000000606082015260800190565b60208082526028908201527f455243313135353a2069647320616e6420616d6f756e7473206c656e6774682060408201527f6d69736d61746368000000000000000000000000000000000000000000000000606082015260800190565b60208082526021908201527f455243313135353a206d696e7420746f20746865207a65726f206164647265736040820152607360f81b606082015260800190565b6020808252602f908201527f416363657373436f6e74726f6c3a2063616e206f6e6c792072656e6f756e636560408201527f20726f6c657320666f722073656c660000000000000000000000000000000000606082015260800190565b9283526001600160a01b03919091166020830152604082015260600190565b918252602082015260400190565b6000808335601e19843603018112615114578283fd5b83018035915067ffffffffffffffff82111561512e578283fd5b6020019150368190038213156138cb57600080fd5b60405181810167ffffffffffffffff81118282101715615165576151656152ae565b604052919050565b600067ffffffffffffffff821115615187576151876152ae565b5060209081020190565b600082198211156151a4576151a4615298565b500190565b6000826151c457634e487b7160e01b81526012600452602481fd5b500490565b60008160001904831182151516156151e3576151e3615298565b500290565b6000828210156151fa576151fa615298565b500390565b60005b8381101561521a578181015183820152602001615202565b83811115610af65750506000910152565b60008161523a5761523a615298565b506000190190565b60028104600182168061525657607f821691505b6020821081141561527757634e487b7160e01b600052602260045260246000fd5b50919050565b600060001982141561529157615291615298565b5060010190565b634e487b7160e01b600052601160045260246000fd5b634e487b7160e01b600052604160045260246000fd5b60e01c90565b600060443d10156152da576115e1565b600481823e6308c379a06152ee82516152c4565b146152f8576115e1565b6040513d600319016004823e80513d67ffffffffffffffff816024840111818411171561532857505050506115e1565b8284019250825191508082111561534257505050506115e1565b503d8301602082840101111561535a575050506115e1565b601f01601f1916810160200160405291505090565b6001600160a01b038116811461538457600080fd5b50565b801515811461538457600080fd5b6001600160e01b03198116811461538457600080fdfea164736f6c6343000800000a",
  "linkReferences": {},
  "deployedLinkReferences": {}
}