{
  "_format": "hh-sol-artifact-1",
  "contractName": "AccessNFT",
  "sourceName": "contracts/AccessNFT.sol",
  "abi": [
    {
      "inputs": [
        {
          "internalType": "address payable",
          "name": "_controlCenter",
          "type": "address"
        },
        {
          "internalType": "address",
          "name": "_trustedForwarder",
          "type": "address"
        },
        {
          "internalType": "string",
          "name": "_uri",
          "type": "string"
        }
      ],
      "stateMutability": "nonpayable",
      "type": "constructor"
    },
    {
      "anonymous": false,
      "inputs": [
        {
          "indexed": true,
          "internalType": "address",
          "name": "redeemer",
          "type": "address"
        },
        {
          "indexed": true,
          "internalType": "uint256",
          "name": "nftTokenId",
          "type": "uint256"
        },
        {
          "indexed": true,
          "internalType": "uint256",
          "name": "accessNftId",
          "type": "uint256"
        },
        {
          "indexed": false,
          "internalType": "uint256",
          "name": "amount",
          "type": "uint256"
        }
      ],
      "name": "AccessNFTRedeemed",
      "type": "event"
    },
    {
      "anonymous": false,
      "inputs": [
        {
          "indexed": true,
          "internalType": "address",
          "name": "creator",
          "type": "address"
        },
        {
          "indexed": false,
          "internalType": "uint256[]",
          "name": "nftIds",
          "type": "uint256[]"
        },
        {
          "indexed": false,
          "internalType": "string[]",
          "name": "nftURIs",
          "type": "string[]"
        },
        {
          "indexed": false,
          "internalType": "uint256[]",
          "name": "acessNftIds",
          "type": "uint256[]"
        },
        {
          "indexed": false,
          "internalType": "string[]",
          "name": "accessNftURIs",
          "type": "string[]"
        },
        {
          "indexed": false,
          "internalType": "uint256[]",
          "name": "nftSupplies",
          "type": "uint256[]"
        }
      ],
      "name": "AccessNFTsCreated",
      "type": "event"
    },
    {
      "anonymous": false,
      "inputs": [
        {
          "indexed": true,
          "internalType": "address",
          "name": "account",
          "type": "address"
        },
        {
          "indexed": true,
          "internalType": "address",
          "name": "operator",
          "type": "address"
        },
        {
          "indexed": false,
          "internalType": "bool",
          "name": "approved",
          "type": "bool"
        }
      ],
      "name": "ApprovalForAll",
      "type": "event"
    },
    {
      "anonymous": false,
      "inputs": [
        {
          "indexed": false,
          "internalType": "address",
          "name": "account",
          "type": "address"
        }
      ],
      "name": "Paused",
      "type": "event"
    },
    {
      "anonymous": false,
      "inputs": [
        {
          "indexed": true,
          "internalType": "bytes32",
          "name": "role",
          "type": "bytes32"
        },
        {
          "indexed": true,
          "internalType": "bytes32",
          "name": "previousAdminRole",
          "type": "bytes32"
        },
        {
          "indexed": true,
          "internalType": "bytes32",
          "name": "newAdminRole",
          "type": "bytes32"
        }
      ],
      "name": "RoleAdminChanged",
      "type": "event"
    },
    {
      "anonymous": false,
      "inputs": [
        {
          "indexed": true,
          "internalType": "bytes32",
          "name": "role",
          "type": "bytes32"
        },
        {
          "indexed": true,
          "internalType": "address",
          "name": "account",
          "type": "address"
        },
        {
          "indexed": true,
          "internalType": "address",
          "name": "sender",
          "type": "address"
        }
      ],
      "name": "RoleGranted",
      "type": "event"
    },
    {
      "anonymous": false,
      "inputs": [
        {
          "indexed": true,
          "internalType": "bytes32",
          "name": "role",
          "type": "bytes32"
        },
        {
          "indexed": true,
          "internalType": "address",
          "name": "account",
          "type": "address"
        },
        {
          "indexed": true,
          "internalType": "address",
          "name": "sender",
          "type": "address"
        }
      ],
      "name": "RoleRevoked",
      "type": "event"
    },
    {
      "anonymous": false,
      "inputs": [
        {
          "indexed": false,
          "internalType": "uint256",
          "name": "royaltyBps",
          "type": "uint256"
        }
      ],
      "name": "RoyaltyUpdated",
      "type": "event"
    },
    {
      "anonymous": false,
      "inputs": [
        {
          "indexed": true,
          "internalType": "address",
          "name": "operator",
          "type": "address"
        },
        {
          "indexed": true,
          "internalType": "address",
          "name": "from",
          "type": "address"
        },
        {
          "indexed": true,
          "internalType": "address",
          "name": "to",
          "type": "address"
        },
        {
          "indexed": false,
          "internalType": "uint256[]",
          "name": "ids",
          "type": "uint256[]"
        },
        {
          "indexed": false,
          "internalType": "uint256[]",
          "name": "values",
          "type": "uint256[]"
        }
      ],
      "name": "TransferBatch",
      "type": "event"
    },
    {
      "anonymous": false,
      "inputs": [
        {
          "indexed": true,
          "internalType": "address",
          "name": "operator",
          "type": "address"
        },
        {
          "indexed": true,
          "internalType": "address",
          "name": "from",
          "type": "address"
        },
        {
          "indexed": true,
          "internalType": "address",
          "name": "to",
          "type": "address"
        },
        {
          "indexed": false,
          "internalType": "uint256",
          "name": "id",
          "type": "uint256"
        },
        {
          "indexed": false,
          "internalType": "uint256",
          "name": "value",
          "type": "uint256"
        }
      ],
      "name": "TransferSingle",
      "type": "event"
    },
    {
      "anonymous": false,
      "inputs": [
        {
          "indexed": false,
          "internalType": "string",
          "name": "value",
          "type": "string"
        },
        {
          "indexed": true,
          "internalType": "uint256",
          "name": "id",
          "type": "uint256"
        }
      ],
      "name": "URI",
      "type": "event"
    },
    {
      "anonymous": false,
      "inputs": [
        {
          "indexed": false,
          "internalType": "address",
          "name": "account",
          "type": "address"
        }
      ],
      "name": "Unpaused",
      "type": "event"
    },
    {
      "inputs": [],
      "name": "DEFAULT_ADMIN_ROLE",
      "outputs": [
        {
          "internalType": "bytes32",
          "name": "",
          "type": "bytes32"
        }
      ],
      "stateMutability": "view",
      "type": "function"
    },
    {
      "inputs": [],
      "name": "MINTER_ROLE",
      "outputs": [
        {
          "internalType": "bytes32",
          "name": "",
          "type": "bytes32"
        }
      ],
      "stateMutability": "view",
      "type": "function"
    },
    {
      "inputs": [],
      "name": "PAUSER_ROLE",
      "outputs": [
        {
          "internalType": "bytes32",
          "name": "",
          "type": "bytes32"
        }
      ],
      "stateMutability": "view",
      "type": "function"
    },
    {
      "inputs": [],
      "name": "_contractURI",
      "outputs": [
        {
          "internalType": "string",
          "name": "",
          "type": "string"
        }
      ],
      "stateMutability": "view",
      "type": "function"
    },
    {
      "inputs": [
        {
          "internalType": "address",
          "name": "account",
          "type": "address"
        },
        {
          "internalType": "uint256",
          "name": "id",
          "type": "uint256"
        }
      ],
      "name": "balanceOf",
      "outputs": [
        {
          "internalType": "uint256",
          "name": "",
          "type": "uint256"
        }
      ],
      "stateMutability": "view",
      "type": "function"
    },
    {
      "inputs": [
        {
          "internalType": "address[]",
          "name": "accounts",
          "type": "address[]"
        },
        {
          "internalType": "uint256[]",
          "name": "ids",
          "type": "uint256[]"
        }
      ],
      "name": "balanceOfBatch",
      "outputs": [
        {
          "internalType": "uint256[]",
          "name": "",
          "type": "uint256[]"
        }
      ],
      "stateMutability": "view",
      "type": "function"
    },
    {
      "inputs": [
        {
          "internalType": "address",
          "name": "account",
          "type": "address"
        },
        {
          "internalType": "uint256",
          "name": "id",
          "type": "uint256"
        },
        {
          "internalType": "uint256",
          "name": "value",
          "type": "uint256"
        }
      ],
      "name": "burn",
      "outputs": [],
      "stateMutability": "nonpayable",
      "type": "function"
    },
    {
      "inputs": [
        {
          "internalType": "address",
          "name": "account",
          "type": "address"
        },
        {
          "internalType": "uint256[]",
          "name": "ids",
          "type": "uint256[]"
        },
        {
          "internalType": "uint256[]",
          "name": "values",
          "type": "uint256[]"
        }
      ],
      "name": "burnBatch",
      "outputs": [],
      "stateMutability": "nonpayable",
      "type": "function"
    },
    {
      "inputs": [],
      "name": "contractURI",
      "outputs": [
        {
          "internalType": "string",
          "name": "",
          "type": "string"
        }
      ],
      "stateMutability": "view",
      "type": "function"
    },
    {
      "inputs": [
        {
          "internalType": "string[]",
          "name": "_nftURIs",
          "type": "string[]"
        },
        {
          "internalType": "string[]",
          "name": "_accessNftURIs",
          "type": "string[]"
        },
        {
          "internalType": "uint256[]",
          "name": "_nftSupplies",
          "type": "uint256[]"
        }
      ],
      "name": "createAccessNfts",
      "outputs": [
        {
          "internalType": "uint256[]",
          "name": "nftIds",
          "type": "uint256[]"
        }
      ],
      "stateMutability": "nonpayable",
      "type": "function"
    },
    {
      "inputs": [
        {
          "internalType": "address",
          "name": "_pack",
          "type": "address"
        },
        {
          "internalType": "string[]",
          "name": "_nftURIs",
          "type": "string[]"
        },
        {
          "internalType": "string[]",
          "name": "_accessNftURIs",
          "type": "string[]"
        },
        {
          "internalType": "uint256[]",
          "name": "_nftSupplies",
          "type": "uint256[]"
        },
        {
          "internalType": "string",
          "name": "_packURI",
          "type": "string"
        },
        {
          "internalType": "uint256",
          "name": "_secondsUntilOpenStart",
          "type": "uint256"
        },
        {
          "internalType": "uint256",
          "name": "_secondsUntilOpenEnd",
          "type": "uint256"
        },
        {
          "internalType": "uint256",
          "name": "_nftsPerOpen",
          "type": "uint256"
        }
      ],
      "name": "createAccessPack",
      "outputs": [],
      "stateMutability": "nonpayable",
      "type": "function"
    },
    {
      "inputs": [
        {
          "internalType": "bytes32",
          "name": "role",
          "type": "bytes32"
        }
      ],
      "name": "getRoleAdmin",
      "outputs": [
        {
          "internalType": "bytes32",
          "name": "",
          "type": "bytes32"
        }
      ],
      "stateMutability": "view",
      "type": "function"
    },
    {
      "inputs": [
        {
          "internalType": "bytes32",
          "name": "role",
          "type": "bytes32"
        },
        {
          "internalType": "uint256",
          "name": "index",
          "type": "uint256"
        }
      ],
      "name": "getRoleMember",
      "outputs": [
        {
          "internalType": "address",
          "name": "",
          "type": "address"
        }
      ],
      "stateMutability": "view",
      "type": "function"
    },
    {
      "inputs": [
        {
          "internalType": "bytes32",
          "name": "role",
          "type": "bytes32"
        }
      ],
      "name": "getRoleMemberCount",
      "outputs": [
        {
          "internalType": "uint256",
          "name": "",
          "type": "uint256"
        }
      ],
      "stateMutability": "view",
      "type": "function"
    },
    {
      "inputs": [
        {
          "internalType": "bytes32",
          "name": "role",
          "type": "bytes32"
        },
        {
          "internalType": "address",
          "name": "account",
          "type": "address"
        }
      ],
      "name": "grantRole",
      "outputs": [],
      "stateMutability": "nonpayable",
      "type": "function"
    },
    {
      "inputs": [
        {
          "internalType": "bytes32",
          "name": "role",
          "type": "bytes32"
        },
        {
          "internalType": "address",
          "name": "account",
          "type": "address"
        }
      ],
      "name": "hasRole",
      "outputs": [
        {
          "internalType": "bool",
          "name": "",
          "type": "bool"
        }
      ],
      "stateMutability": "view",
      "type": "function"
    },
    {
      "inputs": [
        {
          "internalType": "address",
          "name": "account",
          "type": "address"
        },
        {
          "internalType": "address",
          "name": "operator",
          "type": "address"
        }
      ],
      "name": "isApprovedForAll",
      "outputs": [
        {
          "internalType": "bool",
          "name": "",
          "type": "bool"
        }
      ],
      "stateMutability": "view",
      "type": "function"
    },
    {
      "inputs": [
        {
          "internalType": "uint256",
          "name": "_nftId",
          "type": "uint256"
        }
      ],
      "name": "isRedeemed",
      "outputs": [
        {
          "internalType": "bool",
          "name": "",
          "type": "bool"
        }
      ],
      "stateMutability": "view",
      "type": "function"
    },
    {
      "inputs": [
        {
          "internalType": "address",
          "name": "forwarder",
          "type": "address"
        }
      ],
      "name": "isTrustedForwarder",
      "outputs": [
        {
          "internalType": "bool",
          "name": "",
          "type": "bool"
        }
      ],
      "stateMutability": "view",
      "type": "function"
    },
    {
      "inputs": [
        {
          "internalType": "address",
          "name": "to",
          "type": "address"
        },
        {
          "internalType": "uint256",
          "name": "id",
          "type": "uint256"
        },
        {
          "internalType": "uint256",
          "name": "amount",
          "type": "uint256"
        },
        {
          "internalType": "bytes",
          "name": "data",
          "type": "bytes"
        }
      ],
      "name": "mint",
      "outputs": [],
      "stateMutability": "nonpayable",
      "type": "function"
    },
    {
      "inputs": [
        {
          "internalType": "address",
          "name": "to",
          "type": "address"
        },
        {
          "internalType": "uint256[]",
          "name": "ids",
          "type": "uint256[]"
        },
        {
          "internalType": "uint256[]",
          "name": "amounts",
          "type": "uint256[]"
        },
        {
          "internalType": "bytes",
          "name": "data",
          "type": "bytes"
        }
      ],
      "name": "mintBatch",
      "outputs": [],
      "stateMutability": "nonpayable",
      "type": "function"
    },
    {
      "inputs": [],
      "name": "nextTokenId",
      "outputs": [
        {
          "internalType": "uint256",
          "name": "",
          "type": "uint256"
        }
      ],
      "stateMutability": "view",
      "type": "function"
    },
    {
      "inputs": [
        {
          "internalType": "uint256",
          "name": "",
          "type": "uint256"
        }
      ],
      "name": "nftInfo",
      "outputs": [
        {
          "internalType": "address",
          "name": "creator",
          "type": "address"
        },
        {
          "internalType": "string",
          "name": "uri",
          "type": "string"
        },
        {
          "internalType": "uint256",
          "name": "supply",
          "type": "uint256"
        },
        {
          "internalType": "bool",
          "name": "isAccess",
          "type": "bool"
        },
        {
          "internalType": "uint256",
          "name": "accessNftId",
          "type": "uint256"
        },
        {
          "internalType": "enum AccessNFT.UnderlyingType",
          "name": "underlyingType",
          "type": "uint8"
        }
      ],
      "stateMutability": "view",
      "type": "function"
    },
    {
      "inputs": [
        {
          "internalType": "address",
          "name": "",
          "type": "address"
        },
        {
          "internalType": "address",
          "name": "",
          "type": "address"
        },
        {
          "internalType": "uint256[]",
          "name": "",
          "type": "uint256[]"
        },
        {
          "internalType": "uint256[]",
          "name": "",
          "type": "uint256[]"
        },
        {
          "internalType": "bytes",
          "name": "",
          "type": "bytes"
        }
      ],
      "name": "onERC1155BatchReceived",
      "outputs": [
        {
          "internalType": "bytes4",
          "name": "",
          "type": "bytes4"
        }
      ],
      "stateMutability": "nonpayable",
      "type": "function"
    },
    {
      "inputs": [
        {
          "internalType": "address",
          "name": "",
          "type": "address"
        },
        {
          "internalType": "address",
          "name": "",
          "type": "address"
        },
        {
          "internalType": "uint256",
          "name": "",
          "type": "uint256"
        },
        {
          "internalType": "uint256",
          "name": "",
          "type": "uint256"
        },
        {
          "internalType": "bytes",
          "name": "",
          "type": "bytes"
        }
      ],
      "name": "onERC1155Received",
      "outputs": [
        {
          "internalType": "bytes4",
          "name": "",
          "type": "bytes4"
        }
      ],
      "stateMutability": "nonpayable",
      "type": "function"
    },
    {
      "inputs": [],
      "name": "pause",
      "outputs": [],
      "stateMutability": "nonpayable",
      "type": "function"
    },
    {
      "inputs": [],
      "name": "paused",
      "outputs": [
        {
          "internalType": "bool",
          "name": "",
          "type": "bool"
        }
      ],
      "stateMutability": "view",
      "type": "function"
    },
    {
      "inputs": [
        {
          "internalType": "uint256",
          "name": "_tokenId",
          "type": "uint256"
        },
        {
          "internalType": "uint256",
          "name": "_amount",
          "type": "uint256"
        }
      ],
      "name": "redeemAccess",
      "outputs": [],
      "stateMutability": "nonpayable",
      "type": "function"
    },
    {
      "inputs": [
        {
          "internalType": "bytes32",
          "name": "role",
          "type": "bytes32"
        },
        {
          "internalType": "address",
          "name": "account",
          "type": "address"
        }
      ],
      "name": "renounceRole",
      "outputs": [],
      "stateMutability": "nonpayable",
      "type": "function"
    },
    {
      "inputs": [
        {
          "internalType": "bytes32",
          "name": "role",
          "type": "bytes32"
        },
        {
          "internalType": "address",
          "name": "account",
          "type": "address"
        }
      ],
      "name": "revokeRole",
      "outputs": [],
      "stateMutability": "nonpayable",
      "type": "function"
    },
    {
      "inputs": [],
      "name": "royaltyBps",
      "outputs": [
        {
          "internalType": "uint256",
          "name": "",
          "type": "uint256"
        }
      ],
      "stateMutability": "view",
      "type": "function"
    },
    {
      "inputs": [
        {
          "internalType": "uint256",
          "name": "tokenId",
          "type": "uint256"
        },
        {
          "internalType": "uint256",
          "name": "salePrice",
          "type": "uint256"
        }
      ],
      "name": "royaltyInfo",
      "outputs": [
        {
          "internalType": "address",
          "name": "receiver",
          "type": "address"
        },
        {
          "internalType": "uint256",
          "name": "royaltyAmount",
          "type": "uint256"
        }
      ],
      "stateMutability": "view",
      "type": "function"
    },
    {
      "inputs": [
        {
          "internalType": "address",
          "name": "from",
          "type": "address"
        },
        {
          "internalType": "address",
          "name": "to",
          "type": "address"
        },
        {
          "internalType": "uint256[]",
          "name": "ids",
          "type": "uint256[]"
        },
        {
          "internalType": "uint256[]",
          "name": "amounts",
          "type": "uint256[]"
        },
        {
          "internalType": "bytes",
          "name": "data",
          "type": "bytes"
        }
      ],
      "name": "safeBatchTransferFrom",
      "outputs": [],
      "stateMutability": "nonpayable",
      "type": "function"
    },
    {
      "inputs": [
        {
          "internalType": "address",
          "name": "from",
          "type": "address"
        },
        {
          "internalType": "address",
          "name": "to",
          "type": "address"
        },
        {
          "internalType": "uint256",
          "name": "id",
          "type": "uint256"
        },
        {
          "internalType": "uint256",
          "name": "amount",
          "type": "uint256"
        },
        {
          "internalType": "bytes",
          "name": "data",
          "type": "bytes"
        }
      ],
      "name": "safeTransferFrom",
      "outputs": [],
      "stateMutability": "nonpayable",
      "type": "function"
    },
    {
      "inputs": [
        {
          "internalType": "address",
          "name": "operator",
          "type": "address"
        },
        {
          "internalType": "bool",
          "name": "approved",
          "type": "bool"
        }
      ],
      "name": "setApprovalForAll",
      "outputs": [],
      "stateMutability": "nonpayable",
      "type": "function"
    },
    {
      "inputs": [
        {
          "internalType": "string",
          "name": "_URI",
          "type": "string"
        }
      ],
      "name": "setContractURI",
      "outputs": [],
      "stateMutability": "nonpayable",
      "type": "function"
    },
    {
      "inputs": [
        {
          "internalType": "uint256",
          "name": "_royaltyBps",
          "type": "uint256"
        }
      ],
      "name": "setRoyaltyBps",
      "outputs": [],
      "stateMutability": "nonpayable",
      "type": "function"
    },
    {
      "inputs": [
        {
          "internalType": "bytes4",
          "name": "interfaceId",
          "type": "bytes4"
        }
      ],
      "name": "supportsInterface",
      "outputs": [
        {
          "internalType": "bool",
          "name": "",
          "type": "bool"
        }
      ],
      "stateMutability": "pure",
      "type": "function"
    },
    {
      "inputs": [
        {
          "internalType": "uint256",
          "name": "_nftId",
          "type": "uint256"
        }
      ],
      "name": "tokenURI",
      "outputs": [
        {
          "internalType": "string",
          "name": "",
          "type": "string"
        }
      ],
      "stateMutability": "view",
      "type": "function"
    },
    {
      "inputs": [],
      "name": "unpause",
      "outputs": [],
      "stateMutability": "nonpayable",
      "type": "function"
    },
    {
      "inputs": [
        {
          "internalType": "uint256",
          "name": "_nftId",
          "type": "uint256"
        }
      ],
      "name": "uri",
      "outputs": [
        {
          "internalType": "string",
          "name": "",
          "type": "string"
        }
      ],
      "stateMutability": "view",
      "type": "function"
    }
  ],
  "bytecode": "0x60806040523480156200001157600080fd5b5060405162004fab38038062004fab8339810160408190526200003491620003db565b818180620000428162000119565b506005805460ff191690556200006360006200005d62000132565b6200014f565b620000927f9f2df0fed2c77648de5860a4cc508cd0818c85b8b8a1ab4ceeef8d981c8956a66200005d62000132565b620000c17f65d7a28e3265b37a6474929f336521b332c1681b933f6cb9f3376673440d862a6200005d62000132565b5060058054610100600160a81b0319166101006001600160a01b0393841602179055600680546001600160a01b03191691851691909117905580516200010f90600990602084019062000335565b5050505062000544565b80516200012e90600490602084019062000335565b5050565b6000620001496200019260201b62001d601760201c565b90505b90565b620001668282620001d260201b62001d8e1760201c565b60008281526001602090815260409091206200018d91839062001d9c620001de821b17901c565b505050565b60006200019f33620001fe565b15620001b5575060131936013560601c6200014c565b620001ca6200021760201b62001db11760201c565b90506200014c565b6200012e82826200021b565b6000620001f5836001600160a01b038416620002a5565b90505b92915050565b60055461010090046001600160a01b0390811691161490565b3390565b620002278282620002f4565b6200012e576000828152602081815260408083206001600160a01b03851684529091529020805460ff191660011790556200026162000132565b6001600160a01b0316816001600160a01b0316837f2f8788117e7eff1d82e926ec794901d17c78024a50270940304540a733656f0d60405160405180910390a45050565b6000620002b383836200031d565b620002eb57508154600181810184556000848152602080822090930184905584548482528286019093526040902091909155620001f8565b506000620001f8565b6000918252602082815260408084206001600160a01b0393909316845291905290205460ff1690565b60009081526001919091016020526040902054151590565b8280546200034390620004d8565b90600052602060002090601f016020900481019282620003675760008555620003b2565b82601f106200038257805160ff1916838001178555620003b2565b82800160010185558215620003b2579182015b82811115620003b257825182559160200191906001019062000395565b50620003c0929150620003c4565b5090565b5b80821115620003c05760008155600101620003c5565b600080600060608486031215620003f0578283fd5b8351620003fd816200052b565b8093505060208085015162000412816200052b565b60408601519093506001600160401b03808211156200042f578384fd5b818701915087601f83011262000443578384fd5b81518181111562000458576200045862000515565b604051601f8201601f19168101850183811182821017156200047e576200047e62000515565b60405281815283820185018a101562000495578586fd5b8592505b81831015620004b8578383018501518184018601529184019162000499565b81831115620004c957858583830101525b80955050505050509250925092565b600281046001821680620004ed57607f821691505b602082108114156200050f57634e487b7160e01b600052602260045260246000fd5b50919050565b634e487b7160e01b600052604160045260246000fd5b6001600160a01b03811681146200054157600080fd5b50565b614a5780620005546000396000f3fe608060405234801561001057600080fd5b50600436106102d25760003560e01c806375794a3c11610186578063c63adb2b116100e3578063e63ab1e911610097578063f23a6e6111610071578063f23a6e61146105a1578063f242432a146105b4578063f5298aca146105c7576102d2565b8063e63ab1e91461057e578063e8a3d48514610586578063e985e9c51461058e576102d2565b8063ca15c873116100c8578063ca15c87314610550578063d539139314610563578063d547741f1461056b576102d2565b8063c63adb2b14610548578063c87b56dd14610320576102d2565b8063938e3d7b1161013a578063a22cb4651161011f578063a22cb4651461050d578063bc197c8114610520578063c0e7274014610540576102d2565b8063938e3d7b146104f2578063a217fddf14610505576102d2565b80638aa016531161016b5780638aa01653146104ac5780639010d07c146104bf57806391d14854146104df576102d2565b806375794a3c1461049c5780638456cb59146104a4576102d2565b80632f2ff15d116102345780634e1273f4116101e85780635c975abb116101cd5780635c975abb1461046e5780636b20c45414610476578063731133e914610489576102d2565b80634e1273f414610448578063572b6c051461045b576102d2565b806336568abe1161021957806336568abe1461040d5780633c16b12e146104205780633f4ba83a14610440576102d2565b80632f2ff15d146103e757806332d33cd0146103fa576102d2565b80631f8bc7901161028b5780632a55205a116102705780632a55205a146103a05780632e14bee8146103c15780632eb2c2d6146103d4576102d2565b80631f8bc79014610368578063248a9ca31461038d576102d2565b80630e89341c116102bc5780630e89341c146103205780631f72d831146103405780631f7fdffa14610355576102d2565b8062fdd58e146102d757806301ffc9a714610300575b600080fd5b6102ea6102e5366004613626565b6105da565b6040516102f79190613d4c565b60405180910390f35b61031361030e3660046138b7565b610636565b6040516102f79190613d41565b61033361032e366004613844565b61068a565b6040516102f79190613db2565b61035361034e366004613844565b61072f565b005b61035361036336600461355b565b6109cb565b61037b610376366004613844565b610a25565b6040516102f796959493929190613bd9565b6102ea61039b366004613844565b610af2565b6103b36103ae366004613896565b610b07565b6040516102f7929190613c40565b6103536103cf366004613896565b610bc8565b6103536103e23660046132da565b610d9b565b6103536103f5366004613874565b610df9565b610313610408366004613844565b610e20565b61035361041b366004613874565b610e38565b61043361042e366004613792565b610e5a565b6040516102f79190613c59565b6103536114cb565b6104336104563660046136d4565b61151d565b610313610469366004613297565b61163d565b610313611656565b6103536104843660046134ea565b611660565b610353610497366004613681565b6116b5565b6102ea611709565b61035361170f565b6103536104ba3660046133e3565b61175f565b6104d26104cd366004613896565b611898565b6040516102f79190613aec565b6103136104ed366004613874565b6118b7565b6103536105003660046138ef565b6118e0565b6102ea611a02565b61035361051b3660046135f0565b611a07565b61053361052e3660046132da565b611ad5565b6040516102f79190613d6c565b610333611ae6565b6102ea611b74565b6102ea61055e366004613844565b611b7a565b6102ea611b91565b610353610579366004613874565b611bb5565b6102ea611bbf565b610333611be3565b61031361059c3660046132b1565b611c75565b6105336105af366004613380565b611ca3565b6103536105c2366004613380565b611cb4565b6103536105d536600461364f565b611d0b565b60006001600160a01b03831661060b5760405162461bcd60e51b815260040161060290613eeb565b60405180910390fd5b5060008181526002602090815260408083206001600160a01b03861684529091529020545b92915050565b60006001600160e01b03198216630271189760e51b148061066757506001600160e01b03198216636cdb3d1360e11b145b8061068257506001600160e01b0319821663152a902d60e11b145b90505b919050565b6000818152600a602052604090206001018054606091906106aa906148f6565b80601f01602080910402602001604051908101604052809291908181526020018280546106d6906148f6565b80156107235780601f106106f857610100808354040283529160200191610723565b820191906000526020600020905b81548152906001019060200180831161070657829003601f168201915b50505050509050919050565b60065460408051634a32c6bf60e11b815290516001600160a01b03909216916391d148549183916394658d7e91600480820192602092909190829003018186803b15801561077c57600080fd5b505afa158015610790573d6000803e3d6000fd5b505050506040513d601f19601f820116820180604052508101906107b4919061385c565b6107bc611db5565b6040518363ffffffff1660e01b81526004016107d9929190613d55565b60206040518083038186803b1580156107f157600080fd5b505afa158015610805573d6000803e3d6000fd5b505050506040513d601f19601f820116820180604052508101906108299190613828565b6108455760405162461bcd60e51b815260040161060290613f8c565b600660009054906101000a90046001600160a01b03166001600160a01b0316635cd423156040518163ffffffff1660e01b815260040160206040518083038186803b15801561089357600080fd5b505afa1580156108a7573d6000803e3d6000fd5b505050506040513d601f19601f820116820180604052508101906108cb919061392f565b600660009054906101000a90046001600160a01b03166001600160a01b031663fd967f476040518163ffffffff1660e01b815260040160206040518083038186803b15801561091957600080fd5b505afa15801561092d573d6000803e3d6000fd5b505050506040513d601f19601f82011682018060405250810190610951919061392f565b61095b9190614811565b6fffffffffffffffffffffffffffffffff16811061098b5760405162461bcd60e51b8152600401610602906146b6565b60088190556040517f244ea8d7627f5a08f4299862bd5a45752842c183aee5b0fb0d1e4887bfa605b3906109c0908390613d4c565b60405180910390a150565b6109f77f9f2df0fed2c77648de5860a4cc508cd0818c85b8b8a1ab4ceeef8d981c8956a66104ed611db5565b610a135760405162461bcd60e51b8152600401610602906142ee565b610a1f84848484611dc4565b50505050565b600a60205260009081526040902080546001820180546001600160a01b039092169291610a51906148f6565b80601f0160208091040260200160405190810160405280929190818152602001828054610a7d906148f6565b8015610aca5780601f10610a9f57610100808354040283529160200191610aca565b820191906000526020600020905b815481529060010190602001808311610aad57829003601f168201915b505050506002830154600384015460048501546005909501549394919360ff91821693501686565b60009081526020819052604090206001015490565b6000828152600a6020908152604080832054600654825163fd967f4760e01b815292516001600160a01b039283169594919092169263fd967f479260048083019392829003018186803b158015610b5d57600080fd5b505afa158015610b71573d6000803e3d6000fd5b505050506040513d601f19601f82011682018060405250810190610b95919061392f565b6fffffffffffffffffffffffffffffffff1660085484610bb5919061487d565b610bbf919061485d565b90509250929050565b600660009054906101000a90046001600160a01b03166001600160a01b0316639d2f83f06040518163ffffffff1660e01b815260040160206040518083038186803b158015610c1657600080fd5b505afa158015610c2a573d6000803e3d6000fd5b505050506040513d601f19601f82011682018060405250810190610c4e9190613828565b15610c6b5760405162461bcd60e51b8152600401610602906143a8565b6000828152600a602052604090206003015460ff1615610c9d5760405162461bcd60e51b8152600401610602906143ea565b6000610ca7611db5565b905081610cb482856105da565b1015610cd25760405162461bcd60e51b8152600401610602906140a3565b610ce4610cdd611db5565b8484611d0b565b6000838152600a6020526040908190206004908101549151637921219560e11b8152309163f242432a91610d20918491879187918a9101613ba1565b600060405180830381600087803b158015610d3a57600080fd5b505af1158015610d4e573d6000803e3d6000fd5b505050508084836001600160a01b03167fa70022dc131dbd0be52c08bf87947e36b3e7d4934dce1efecf2d261c381d101786604051610d8d9190613d4c565b60405180910390a450505050565b610da3611db5565b6001600160a01b0316856001600160a01b03161480610dc95750610dc98561059c611db5565b610de55760405162461bcd60e51b8152600401610602906141f1565b610df28585858585611f46565b5050505050565b610e03828261211a565b6000828152600160205260409020610e1b9082611d9c565b505050565b6000908152600a602052604090206003015460ff1690565b610e42828261213e565b6000828152600160205260409020610e1b9082612180565b600654604080516309d2f83f60e41b815290516060926001600160a01b031691639d2f83f0916004808301926020929190829003018186803b158015610e9f57600080fd5b505afa158015610eb3573d6000803e3d6000fd5b505050506040513d601f19601f82011682018060405250810190610ed79190613828565b15610ef45760405162461bcd60e51b8152600401610602906143a8565b8582148015610f0257508584145b610f1e5760405162461bcd60e51b815260040161060290614447565b85610f3b5760405162461bcd60e51b815260040161060290614137565b8567ffffffffffffffff811115610f6257634e487b7160e01b600052604160045260246000fd5b604051908082528060200260200182016040528015610f8b578160200160208202803683370190505b50905060008667ffffffffffffffff811115610fb757634e487b7160e01b600052604160045260246000fd5b604051908082528060200260200182016040528015610fe0578160200160208202803683370190505b5060075490915060005b888110156113c2578183828151811061101357634e487b7160e01b600052603260045260246000fd5b6020026020010181815250506040518060c00160405280611032611db5565b6001600160a01b0316815260200189898481811061106057634e487b7160e01b600052603260045260246000fd5b9050602002810190611072919061477e565b8080601f0160208091040260200160405190810160405280939291908181526020018383808284376000920191909152505050908252506020018787848181106110cc57634e487b7160e01b600052603260045260246000fd5b905060200201358152602001600115158152602001600081526020016000600281111561110957634e487b7160e01b600052602160045260246000fd5b90526000838152600a602090815260409091208251815473ffffffffffffffffffffffffffffffffffffffff19166001600160a01b03909116178155828201518051919261115f92600185019290910190613013565b506040820151600280830191909155606083015160038301805491151560ff199283161790556080840151600484015560a084015160058401805491939092919091169060019084908111156111c557634e487b7160e01b600052602160045260246000fd5b02179055506111d991506001905083614845565b9150818482815181106111fc57634e487b7160e01b600052603260045260246000fd5b6020026020010181815250506040518060c0016040528061121b611db5565b6001600160a01b031681526020018b8b8481811061124957634e487b7160e01b600052603260045260246000fd5b905060200281019061125b919061477e565b8080601f0160208091040260200160405190810160405280939291908181526020018383808284376000920191909152505050908252506020018787848181106112b557634e487b7160e01b600052603260045260246000fd5b9050602002013581526020016000151581526020016001846112d7919061489c565b8152602001600090526000838152600a602090815260409091208251815473ffffffffffffffffffffffffffffffffffffffff19166001600160a01b03909116178155828201518051919261133492600185019290910190613013565b506040820151600280830191909155606083015160038301805491151560ff199283161790556080840151600484015560a0840151600584018054919390929190911690600190849081111561139a57634e487b7160e01b600052602160045260246000fd5b02179055506113ae91506001905083614845565b9150806113ba81614931565b915050610fea565b508060078190555061141630838787808060200260200160405190810160405280939291908181526020018383602002808284376000920182905250604080516020810190915290815292506109cb915050565b611469611421611db5565b848787808060200260200160405190810160405280939291908181526020018383602002808284376000920182905250604080516020810190915290815292506109cb915050565b611471611db5565b6001600160a01b03167fe309c6cae6e35dcc6c2f37d5da32b19e0346074be56b9722cdf852d20fced6ee848b8b868c8c8c8c6040516114b7989796959493929190613c6c565b60405180910390a250509695505050505050565b6114f77f65d7a28e3265b37a6474929f336521b332c1681b933f6cb9f3376673440d862a6104ed611db5565b6115135760405162461bcd60e51b8152600401610602906144a4565b61151b612195565b565b606081518351146115405760405162461bcd60e51b8152600401610602906145bb565b6000835167ffffffffffffffff81111561156a57634e487b7160e01b600052604160045260246000fd5b604051908082528060200260200182016040528015611593578160200160208202803683370190505b50905060005b8451811015611635576115fa8582815181106115c557634e487b7160e01b600052603260045260246000fd5b60200260200101518583815181106115ed57634e487b7160e01b600052603260045260246000fd5b60200260200101516105da565b82828151811061161a57634e487b7160e01b600052603260045260246000fd5b602090810291909101015261162e81614931565b9050611599565b509392505050565b60055461010090046001600160a01b0390811691161490565b60055460ff165b90565b611668611db5565b6001600160a01b0316836001600160a01b0316148061168e575061168e8361059c611db5565b6116aa5760405162461bcd60e51b815260040161060290614046565b610e1b838383612203565b6116e17f9f2df0fed2c77648de5860a4cc508cd0818c85b8b8a1ab4ceeef8d981c8956a66104ed611db5565b6116fd5760405162461bcd60e51b8152600401610602906142ee565b610a1f848484846123a9565b60075481565b61173b7f65d7a28e3265b37a6474929f336521b332c1681b933f6cb9f3376673440d862a6104ed611db5565b6117575760405162461bcd60e51b815260040161060290614501565b61151b61249a565b600660009054906101000a90046001600160a01b03166001600160a01b0316639d2f83f06040518163ffffffff1660e01b815260040160206040518083038186803b1580156117ad57600080fd5b505afa1580156117c1573d6000803e3d6000fd5b505050506040513d601f19601f820116820180604052508101906117e59190613828565b156118025760405162461bcd60e51b8152600401610602906143a8565b60006118128c8c8c8c8c8c610e5a565b90506000868686868660405160200161182f959493929190613d81565b604051602081830303815290604052905061188861184b611db5565b8f848c8c80806020026020016040519081016040528093929190818152602001838360200280828437600092019190915250889250610d9b915050565b5050505050505050505050505050565b60008281526001602052604081206118b090836124f5565b9392505050565b6000918252602082815260408084206001600160a01b0393909316845291905290205460ff1690565b60065460408051634a32c6bf60e11b815290516001600160a01b03909216916391d148549183916394658d7e91600480820192602092909190829003018186803b15801561192d57600080fd5b505afa158015611941573d6000803e3d6000fd5b505050506040513d601f19601f82011682018060405250810190611965919061385c565b61196d611db5565b6040518363ffffffff1660e01b815260040161198a929190613d55565b60206040518083038186803b1580156119a257600080fd5b505afa1580156119b6573d6000803e3d6000fd5b505050506040513d601f19601f820116820180604052508101906119da9190613828565b6119f65760405162461bcd60e51b815260040161060290613f8c565b610e1b60098383613097565b600081565b816001600160a01b0316611a19611db5565b6001600160a01b03161415611a405760405162461bcd60e51b81526004016106029061455e565b8060036000611a4d611db5565b6001600160a01b03908116825260208083019390935260409182016000908120918716808252919093529120805460ff191692151592909217909155611a91611db5565b6001600160a01b03167f17307eab39ab6107e8899845ad3d59bd9653f200f220920489ca2b5937696c3183604051611ac99190613d41565b60405180910390a35050565b63bc197c8160e01b95945050505050565b60098054611af3906148f6565b80601f0160208091040260200160405190810160405280929190818152602001828054611b1f906148f6565b8015611b6c5780601f10611b4157610100808354040283529160200191611b6c565b820191906000526020600020905b815481529060010190602001808311611b4f57829003601f168201915b505050505081565b60085481565b600081815260016020526040812061068290612501565b7f9f2df0fed2c77648de5860a4cc508cd0818c85b8b8a1ab4ceeef8d981c8956a681565b610e42828261250c565b7f65d7a28e3265b37a6474929f336521b332c1681b933f6cb9f3376673440d862a81565b606060098054611bf2906148f6565b80601f0160208091040260200160405190810160405280929190818152602001828054611c1e906148f6565b8015611c6b5780601f10611c4057610100808354040283529160200191611c6b565b820191906000526020600020905b815481529060010190602001808311611c4e57829003601f168201915b5050505050905090565b6001600160a01b03918216600090815260036020908152604080832093909416825291909152205460ff1690565b63f23a6e6160e01b95945050505050565b611cbc611db5565b6001600160a01b0316856001600160a01b03161480611ce25750611ce28561059c611db5565b611cfe5760405162461bcd60e51b815260040161060290614046565b610df2858585858561252b565b611d13611db5565b6001600160a01b0316836001600160a01b03161480611d395750611d398361059c611db5565b611d555760405162461bcd60e51b815260040161060290614046565b610e1b838383612663565b6000611d6b3361163d565b15611d7f575060131936013560601c61165d565b611d87611db1565b905061165d565b611d988282612776565b5050565b60006118b0836001600160a01b0384166127fb565b3390565b6000611dbf611d60565b905090565b6001600160a01b038416611dea5760405162461bcd60e51b815260040161060290614675565b8151835114611e0b5760405162461bcd60e51b815260040161060290614618565b6000611e15611db5565b9050611e2681600087878787612845565b60005b8451811015611ede57838181518110611e5257634e487b7160e01b600052603260045260246000fd5b602002602001015160026000878481518110611e7e57634e487b7160e01b600052603260045260246000fd5b602002602001015181526020019081526020016000206000886001600160a01b03166001600160a01b031681526020019081526020016000206000828254611ec69190614845565b90915550819050611ed681614931565b915050611e29565b50846001600160a01b031660006001600160a01b0316826001600160a01b03167f4a39dc06d4c0dbc64b70af90fd698a233a518aa5d07e595d983b8c0526c8f7fb8787604051611f2f929190613d13565b60405180910390a4610df28160008787878761297d565b8151835114611f675760405162461bcd60e51b815260040161060290614618565b6001600160a01b038416611f8d5760405162461bcd60e51b815260040161060290614194565b6000611f97611db5565b9050611fa7818787878787612845565b60005b84518110156120ac576000858281518110611fd557634e487b7160e01b600052603260045260246000fd5b60200260200101519050600085838151811061200157634e487b7160e01b600052603260045260246000fd5b60209081029190910181015160008481526002835260408082206001600160a01b038e1683529093529190912054909150818110156120525760405162461bcd60e51b81526004016106029061434b565b60008381526002602090815260408083206001600160a01b038e8116855292528083208585039055908b16825281208054849290612091908490614845565b92505081905550505050806120a590614931565b9050611faa565b50846001600160a01b0316866001600160a01b0316826001600160a01b03167f4a39dc06d4c0dbc64b70af90fd698a233a518aa5d07e595d983b8c0526c8f7fb87876040516120fc929190613d13565b60405180910390a461211281878787878761297d565b505050505050565b61212382610af2565b6121348161212f611db5565b612a8b565b610e1b8383612776565b612146611db5565b6001600160a01b0316816001600160a01b0316146121765760405162461bcd60e51b815260040161060290614713565b611d988282612aef565b60006118b0836001600160a01b038416612b72565b61219d611656565b6121b95760405162461bcd60e51b815260040161060290613eb4565b6005805460ff191690557f5db9ee0a495bf2e6ff9c91a7834c1ba4fdd244a5e8aa4e537bd38aeae4b073aa6121ec611db5565b6040516121f99190613aec565b60405180910390a1565b6001600160a01b0383166122295760405162461bcd60e51b8152600401610602906142ab565b805182511461224a5760405162461bcd60e51b815260040161060290614618565b6000612254611db5565b905061227481856000868660405180602001604052806000815250612845565b60005b83518110156123585760008482815181106122a257634e487b7160e01b600052603260045260246000fd5b6020026020010151905060008483815181106122ce57634e487b7160e01b600052603260045260246000fd5b60209081029190910181015160008481526002835260408082206001600160a01b038c16835290935291909120549091508181101561231f5760405162461bcd60e51b815260040161060290613f48565b60009283526002602090815260408085206001600160a01b038b168652909152909220910390558061235081614931565b915050612277565b5060006001600160a01b0316846001600160a01b0316826001600160a01b03167f4a39dc06d4c0dbc64b70af90fd698a233a518aa5d07e595d983b8c0526c8f7fb8686604051610d8d929190613d13565b6001600160a01b0384166123cf5760405162461bcd60e51b815260040161060290614675565b60006123d9611db5565b90506123fa816000876123eb88612c8f565b6123f488612c8f565b87612845565b60008481526002602090815260408083206001600160a01b03891684529091528120805485929061242c908490614845565b92505081905550846001600160a01b031660006001600160a01b0316826001600160a01b03167fc3d58168c5ae7397731d063d5bbf3d657854427343f4c083240f7aacaa2d0f628787604051612483929190614770565b60405180910390a4610df281600087878787612ce8565b6124a2611656565b156124bf5760405162461bcd60e51b815260040161060290614100565b6005805460ff191660011790557f62e78cea01bee320cd4e420270b5ea74000d11b0c9f74754ebdbfc544b05a2586121ec611db5565b60006118b08383612db9565b600061068282612df1565b61251582610af2565b6125218161212f611db5565b610e1b8383612aef565b6001600160a01b0384166125515760405162461bcd60e51b815260040161060290614194565b600061255b611db5565b905061256c8187876123eb88612c8f565b60008481526002602090815260408083206001600160a01b038a168452909152902054838110156125af5760405162461bcd60e51b81526004016106029061434b565b60008581526002602090815260408083206001600160a01b038b81168552925280832087850390559088168252812080548692906125ee908490614845565b92505081905550856001600160a01b0316876001600160a01b0316836001600160a01b03167fc3d58168c5ae7397731d063d5bbf3d657854427343f4c083240f7aacaa2d0f628888604051612644929190614770565b60405180910390a461265a828888888888612ce8565b50505050505050565b6001600160a01b0383166126895760405162461bcd60e51b8152600401610602906142ab565b6000612693611db5565b90506126c3818560006126a587612c8f565b6126ae87612c8f565b60405180602001604052806000815250612845565b60008381526002602090815260408083206001600160a01b0388168452909152902054828110156127065760405162461bcd60e51b815260040161060290613f48565b60008481526002602090815260408083206001600160a01b03808a16808652919093528184208786039055905190918516907fc3d58168c5ae7397731d063d5bbf3d657854427343f4c083240f7aacaa2d0f62906127679089908990614770565b60405180910390a45050505050565b61278082826118b7565b611d98576000828152602081815260408083206001600160a01b03851684529091529020805460ff191660011790556127b7611db5565b6001600160a01b0316816001600160a01b0316837f2f8788117e7eff1d82e926ec794901d17c78024a50270940304540a733656f0d60405160405180910390a45050565b60006128078383612df5565b61283d57508154600181810184556000848152602080822090930184905584548482528286019093526040902091909155610630565b506000610630565b612853868686868686612e0d565b60005b835181101561265a576001600160a01b0385166128e75782818151811061288d57634e487b7160e01b600052603260045260246000fd5b6020026020010151600a60008684815181106128b957634e487b7160e01b600052603260045260246000fd5b6020026020010151815260200190815260200160002060020160008282546128e1919061489c565b90915550505b600a600085838151811061290b57634e487b7160e01b600052603260045260246000fd5b60209081029190910181015182528101919091526040016000206003015460ff161561296b576001600160a01b038616158061294f57506001600160a01b03861630145b61296b5760405162461bcd60e51b81526004016106029061424e565b8061297581614931565b915050612856565b61298f846001600160a01b0316612e1b565b156121125760405163bc197c8160e01b81526001600160a01b0385169063bc197c81906129c89089908990889088908890600401613b00565b602060405180830381600087803b1580156129e257600080fd5b505af1925050508015612a12575060408051601f3d908101601f19168201909252612a0f918101906138d3565b60015b612a5b57612a1e61497e565b80612a295750612a43565b8060405162461bcd60e51b81526004016106029190613db2565b60405162461bcd60e51b815260040161060290613dc5565b6001600160e01b0319811663bc197c8160e01b1461265a5760405162461bcd60e51b815260040161060290613e57565b612a9582826118b7565b611d9857612aad816001600160a01b03166014612e21565b612ab8836020612e21565b604051602001612ac9929190613a6b565b60408051601f198184030181529082905262461bcd60e51b825261060291600401613db2565b612af982826118b7565b15611d98576000828152602081815260408083206001600160a01b03851684529091529020805460ff19169055612b2e611db5565b6001600160a01b0316816001600160a01b0316837ff6391f5c32d9c69d2a47ea670b442974b53935d1edc7fd64eb21e047a839171b60405160405180910390a45050565b60008181526001830160205260408120548015612c85576000612b9660018361489c565b8554909150600090612baa9060019061489c565b9050818114612c2b576000866000018281548110612bd857634e487b7160e01b600052603260045260246000fd5b9060005260206000200154905080876000018481548110612c0957634e487b7160e01b600052603260045260246000fd5b6000918252602080832090910192909255918252600188019052604090208390555b8554869080612c4a57634e487b7160e01b600052603160045260246000fd5b600190038181906000526020600020016000905590558560010160008681526020019081526020016000206000905560019350505050610630565b6000915050610630565b60408051600180825281830190925260609160009190602080830190803683370190505090508281600081518110612cd757634e487b7160e01b600052603260045260246000fd5b602090810291909101015292915050565b612cfa846001600160a01b0316612e1b565b156121125760405163f23a6e6160e01b81526001600160a01b0385169063f23a6e6190612d339089908990889088908890600401613b5e565b602060405180830381600087803b158015612d4d57600080fd5b505af1925050508015612d7d575060408051601f3d908101601f19168201909252612d7a918101906138d3565b60015b612d8957612a1e61497e565b6001600160e01b0319811663f23a6e6160e01b1461265a5760405162461bcd60e51b815260040161060290613e57565b6000826000018281548110612dde57634e487b7160e01b600052603260045260246000fd5b9060005260206000200154905092915050565b5490565b60009081526001919091016020526040902054151590565b612112868686868686612fe0565b3b151590565b60606000612e3083600261487d565b612e3b906002614845565b67ffffffffffffffff811115612e6157634e487b7160e01b600052604160045260246000fd5b6040519080825280601f01601f191660200182016040528015612e8b576020820181803683370190505b509050600360fc1b81600081518110612eb457634e487b7160e01b600052603260045260246000fd5b60200101906001600160f81b031916908160001a905350600f60fb1b81600181518110612ef157634e487b7160e01b600052603260045260246000fd5b60200101906001600160f81b031916908160001a9053506000612f1584600261487d565b612f20906001614845565b90505b6001811115612fc1577f303132333435363738396162636465660000000000000000000000000000000085600f1660108110612f6f57634e487b7160e01b600052603260045260246000fd5b1a60f81b828281518110612f9357634e487b7160e01b600052603260045260246000fd5b60200101906001600160f81b031916908160001a90535060049490941c93612fba816148df565b9050612f23565b5083156118b05760405162461bcd60e51b815260040161060290613e22565b612fee868686868686612112565b612ff6611656565b156121125760405162461bcd60e51b815260040161060290613fe9565b82805461301f906148f6565b90600052602060002090601f0160209004810192826130415760008555613087565b82601f1061305a57805160ff1916838001178555613087565b82800160010185558215613087579182015b8281111561308757825182559160200191906001019061306c565b5061309392915061310b565b5090565b8280546130a3906148f6565b90600052602060002090601f0160209004810192826130c55760008555613087565b82601f106130de5782800160ff19823516178555613087565b82800160010185558215613087579182015b828111156130875782358255916020019190600101906130f0565b5b80821115613093576000815560010161310c565b80356001600160a01b038116811461068557600080fd5b60008083601f840112613148578182fd5b50813567ffffffffffffffff81111561315f578182fd5b602083019150836020808302850101111561317957600080fd5b9250929050565b600082601f830112613190578081fd5b813560206131a56131a0836147ed565b6147c3565b82815281810190858301838502870184018810156131c1578586fd5b855b858110156131df578135845292840192908401906001016131c3565b5090979650505050505050565b600082601f8301126131fc578081fd5b813567ffffffffffffffff81111561321657613216614962565b613229601f8201601f19166020016147c3565b81815284602083860101111561323d578283fd5b816020850160208301379081016020019190915292915050565b60008083601f840112613268578182fd5b50813567ffffffffffffffff81111561327f578182fd5b60208301915083602082850101111561317957600080fd5b6000602082840312156132a8578081fd5b6118b082613120565b600080604083850312156132c3578081fd5b6132cc83613120565b9150610bbf60208401613120565b600080600080600060a086880312156132f1578081fd5b6132fa86613120565b945061330860208701613120565b9350604086013567ffffffffffffffff80821115613324578283fd5b61333089838a01613180565b94506060880135915080821115613345578283fd5b61335189838a01613180565b93506080880135915080821115613366578283fd5b50613373888289016131ec565b9150509295509295909350565b600080600080600060a08688031215613397578081fd5b6133a086613120565b94506133ae60208701613120565b93506040860135925060608601359150608086013567ffffffffffffffff8111156133d7578182fd5b613373888289016131ec565b6000806000806000806000806000806000806101008d8f031215613405578687fd5b61340e8d613120565b9b5067ffffffffffffffff60208e01351115613428578687fd5b6134388e60208f01358f01613137565b909b50995067ffffffffffffffff60408e01351115613455578687fd5b6134658e60408f01358f01613137565b909950975067ffffffffffffffff60608e01351115613482578687fd5b6134928e60608f01358f01613137565b909750955067ffffffffffffffff60808e013511156134af578485fd5b6134bf8e60808f01358f01613257565b9c9f9b9e50999c989b979a9699959895979660a08701359660c0810135965060e00135945092505050565b6000806000606084860312156134fe578081fd5b61350784613120565b9250602084013567ffffffffffffffff80821115613523578283fd5b61352f87838801613180565b93506040860135915080821115613544578283fd5b5061355186828701613180565b9150509250925092565b60008060008060808587031215613570578182fd5b61357985613120565b9350602085013567ffffffffffffffff80821115613595578384fd5b6135a188838901613180565b945060408701359150808211156135b6578384fd5b6135c288838901613180565b935060608701359150808211156135d7578283fd5b506135e4878288016131ec565b91505092959194509250565b60008060408385031215613602578182fd5b61360b83613120565b9150602083013561361b81614a23565b809150509250929050565b60008060408385031215613638578182fd5b61364183613120565b946020939093013593505050565b600080600060608486031215613663578081fd5b61366c84613120565b95602085013595506040909401359392505050565b60008060008060808587031215613696578182fd5b61369f85613120565b93506020850135925060408501359150606085013567ffffffffffffffff8111156136c8578182fd5b6135e4878288016131ec565b600080604083850312156136e6578182fd5b823567ffffffffffffffff808211156136fd578384fd5b818501915085601f830112613710578384fd5b813560206137206131a0836147ed565b82815281810190858301838502870184018b101561373c578889fd5b8896505b848710156137655761375181613120565b835260019690960195918301918301613740565b509650508601359250508082111561377b578283fd5b5061378885828601613180565b9150509250929050565b600080600080600080606087890312156137aa578384fd5b863567ffffffffffffffff808211156137c1578586fd5b6137cd8a838b01613137565b909850965060208901359150808211156137e5578586fd5b6137f18a838b01613137565b90965094506040890135915080821115613809578384fd5b5061381689828a01613137565b979a9699509497509295939492505050565b600060208284031215613839578081fd5b81516118b081614a23565b600060208284031215613855578081fd5b5035919050565b60006020828403121561386d578081fd5b5051919050565b60008060408385031215613886578182fd5b82359150610bbf60208401613120565b600080604083850312156138a8578182fd5b50508035926020909101359150565b6000602082840312156138c8578081fd5b81356118b081614a34565b6000602082840312156138e4578081fd5b81516118b081614a34565b60008060208385031215613901578182fd5b823567ffffffffffffffff811115613917578283fd5b61392385828601613257565b90969095509350505050565b600060208284031215613940578081fd5b81516fffffffffffffffffffffffffffffffff811681146118b0578182fd5b60008284526020808501945084818502860184845b878110156131df5783830389528135601e19883603018112613994578687fd5b8701803567ffffffffffffffff8111156139ac578788fd5b8036038913156139ba578788fd5b6139c78582898501613a41565b9a87019a9450505090840190600101613974565b6000815180845260208085019450808401835b83811015613a0a578151875295820195908201906001016139ee565b509495945050505050565b60008151808452613a2d8160208601602086016148b3565b601f01601f19169290920160200192915050565b60008284528282602086013780602084860101526020601f19601f85011685010190509392505050565b60007f416363657373436f6e74726f6c3a206163636f756e742000000000000000000082528351613aa38160178501602088016148b3565b7f206973206d697373696e6720726f6c65200000000000000000000000000000006017918401918201528351613ae08160288401602088016148b3565b01602801949350505050565b6001600160a01b0391909116815260200190565b60006001600160a01b03808816835280871660208401525060a06040830152613b2c60a08301866139db565b8281036060840152613b3e81866139db565b90508281036080840152613b528185613a15565b98975050505050505050565b60006001600160a01b03808816835280871660208401525084604083015283606083015260a06080830152613b9660a0830184613a15565b979650505050505050565b6001600160a01b0394851681529290931660208301526040820152606081019190915260a06080820181905260009082015260c00190565b60006001600160a01b038816825260c06020830152613bfb60c0830188613a15565b9050856040830152841515606083015283608083015260038310613c2f57634e487b7160e01b600052602160045260246000fd5b8260a0830152979650505050505050565b6001600160a01b03929092168252602082015260400190565b6000602082526118b060208301846139db565b600060a08252613c7f60a083018b6139db565b8281036020840152613c92818a8c61395f565b90508281036040840152613ca681896139db565b90508281036060840152613cbb81878961395f565b905082810360808401528381527f07ffffffffffffffffffffffffffffffffffffffffffffffffffffffffffffff841115613cf4578182fd5b6020840280866020840137016020019081529998505050505050505050565b600060408252613d2660408301856139db565b8281036020840152613d3881856139db565b95945050505050565b901515815260200190565b90815260200190565b9182526001600160a01b0316602082015260400190565b6001600160e01b031991909116815260200190565b600060808252613d95608083018789613a41565b602083019590955250604081019290925260609091015292915050565b6000602082526118b06020830184613a15565b60208082526034908201527f455243313135353a207472616e7366657220746f206e6f6e204552433131353560408201527f526563656976657220696d706c656d656e746572000000000000000000000000606082015260800190565b6020808252818101527f537472696e67733a20686578206c656e67746820696e73756666696369656e74604082015260600190565b60208082526028908201527f455243313135353a204552433131353552656365697665722072656a6563746560408201527f6420746f6b656e73000000000000000000000000000000000000000000000000606082015260800190565b60208082526014908201527f5061757361626c653a206e6f7420706175736564000000000000000000000000604082015260600190565b6020808252602b908201527f455243313135353a2062616c616e636520717565727920666f7220746865207a60408201527f65726f2061646472657373000000000000000000000000000000000000000000606082015260800190565b60208082526024908201527f455243313135353a206275726e20616d6f756e7420657863656564732062616c604082015263616e636560e01b606082015260800190565b60208082526038908201527f4163636573734e46543a206f6e6c7920612070726f746f636f6c2061646d696e60408201527f2063616e2063616c6c20746869732066756e6374696f6e2e0000000000000000606082015260800190565b6020808252602c908201527f455243313135355061757361626c653a20746f6b656e207472616e736665722060408201527f7768696c65207061757365640000000000000000000000000000000000000000606082015260800190565b60208082526029908201527f455243313135353a2063616c6c6572206973206e6f74206f776e6572206e6f7260408201527f20617070726f7665640000000000000000000000000000000000000000000000606082015260800190565b6020808252602e908201527f4163636573734e46543a2043616e6e6f742072656465656d206d6f7265204e4660408201527f5473207468616e206f776e65642e000000000000000000000000000000000000606082015260800190565b60208082526010908201527f5061757361626c653a2070617573656400000000000000000000000000000000604082015260600190565b60208082526028908201527f4163636573734e46543a204d75737420637265617465206174206c656173742060408201527f6f6e65204e46542e000000000000000000000000000000000000000000000000606082015260800190565b60208082526025908201527f455243313135353a207472616e7366657220746f20746865207a65726f20616460408201527f6472657373000000000000000000000000000000000000000000000000000000606082015260800190565b60208082526032908201527f455243313135353a207472616e736665722063616c6c6572206973206e6f742060408201527f6f776e6572206e6f7220617070726f7665640000000000000000000000000000606082015260800190565b60208082526039908201527f4163636573734e46543a2063616e6e6f74207472616e7366657220616e20616360408201527f63657373204e465420746861742069732072656465656d656400000000000000606082015260800190565b60208082526023908201527f455243313135353a206275726e2066726f6d20746865207a65726f206164647260408201526265737360e81b606082015260800190565b60208082526038908201527f455243313135355072657365744d696e7465725061757365723a206d7573742060408201527f68617665206d696e74657220726f6c6520746f206d696e740000000000000000606082015260800190565b6020808252602a908201527f455243313135353a20696e73756666696369656e742062616c616e636520666f60408201527f72207472616e7366657200000000000000000000000000000000000000000000606082015260800190565b60208082526022908201527f4163636573734e46543a205468652070726f746f636f6c206973207061757365604082015261321760f11b606082015260800190565b60208082526033908201527f4163636573734e46543a205468697320746f6b656e206973206e6f742072656460408201527f65656d61626c6520666f72206163636573732e00000000000000000000000000606082015260800190565b60208082526036908201527f4163636573734e46543a204d757374207370656369667920657175616c206e7560408201527f6d626572206f6620636f6e6669672076616c7565732e00000000000000000000606082015260800190565b6020808252603b908201527f455243313135355072657365744d696e7465725061757365723a206d7573742060408201527f686176652070617573657220726f6c6520746f20756e70617573650000000000606082015260800190565b60208082526039908201527f455243313135355072657365744d696e7465725061757365723a206d7573742060408201527f686176652070617573657220726f6c6520746f20706175736500000000000000606082015260800190565b60208082526029908201527f455243313135353a2073657474696e6720617070726f76616c2073746174757360408201527f20666f722073656c660000000000000000000000000000000000000000000000606082015260800190565b60208082526029908201527f455243313135353a206163636f756e747320616e6420696473206c656e67746860408201527f206d69736d617463680000000000000000000000000000000000000000000000606082015260800190565b60208082526028908201527f455243313135353a2069647320616e6420616d6f756e7473206c656e6774682060408201527f6d69736d61746368000000000000000000000000000000000000000000000000606082015260800190565b60208082526021908201527f455243313135353a206d696e7420746f20746865207a65726f206164647265736040820152607360f81b606082015260800190565b60208082526029908201527f4e46543a204270732070726f7669646564206d757374206265206c657373207460408201527f68616e20392c3030300000000000000000000000000000000000000000000000606082015260800190565b6020808252602f908201527f416363657373436f6e74726f6c3a2063616e206f6e6c792072656e6f756e636560408201527f20726f6c657320666f722073656c660000000000000000000000000000000000606082015260800190565b918252602082015260400190565b6000808335601e19843603018112614794578283fd5b83018035915067ffffffffffffffff8211156147ae578283fd5b60200191503681900382131561317957600080fd5b60405181810167ffffffffffffffff811182821017156147e5576147e5614962565b604052919050565b600067ffffffffffffffff82111561480757614807614962565b5060209081020190565b60006fffffffffffffffffffffffffffffffff80831681851680830382111561483c5761483c61494c565b01949350505050565b600082198211156148585761485861494c565b500190565b60008261487857634e487b7160e01b81526012600452602481fd5b500490565b60008160001904831182151516156148975761489761494c565b500290565b6000828210156148ae576148ae61494c565b500390565b60005b838110156148ce5781810151838201526020016148b6565b83811115610a1f5750506000910152565b6000816148ee576148ee61494c565b506000190190565b60028104600182168061490a57607f821691505b6020821081141561492b57634e487b7160e01b600052602260045260246000fd5b50919050565b60006000198214156149455761494561494c565b5060010190565b634e487b7160e01b600052601160045260246000fd5b634e487b7160e01b600052604160045260246000fd5b60e01c90565b600060443d101561498e5761165d565b600481823e6308c379a06149a28251614978565b146149ac5761165d565b6040513d600319016004823e80513d67ffffffffffffffff81602484011181841117156149dc575050505061165d565b828401925082519150808211156149f6575050505061165d565b503d83016020828401011115614a0e5750505061165d565b601f01601f1916810160200160405291505090565b8015158114614a3157600080fd5b50565b6001600160e01b031981168114614a3157600080fdfea164736f6c6343000800000a",
  "linkReferences": {},
  "deployedLinkReferences": {}
}