{
  "_format": "hh-sol-artifact-1",
  "contractName": "AccessNFT",
  "sourceName": "contracts/AccessNFT.sol",
  "abi": [
    {
      "inputs": [
        {
          "internalType": "address payable",
          "name": "_controlCenter",
          "type": "address"
        },
        {
          "internalType": "address",
          "name": "_trustedForwarder",
          "type": "address"
        },
        {
          "internalType": "string",
          "name": "_uri",
          "type": "string"
        }
      ],
      "stateMutability": "nonpayable",
      "type": "constructor"
    },
    {
      "anonymous": false,
      "inputs": [
        {
          "indexed": true,
          "internalType": "address",
          "name": "redeemer",
          "type": "address"
        },
        {
          "indexed": true,
          "internalType": "uint256",
          "name": "nftTokenId",
          "type": "uint256"
        },
        {
          "indexed": true,
          "internalType": "uint256",
          "name": "accessNftId",
          "type": "uint256"
        },
        {
          "indexed": false,
          "internalType": "uint256",
          "name": "amount",
          "type": "uint256"
        }
      ],
      "name": "AccessNFTRedeemed",
      "type": "event"
    },
    {
      "anonymous": false,
      "inputs": [
        {
          "indexed": true,
          "internalType": "address",
          "name": "creator",
          "type": "address"
        },
        {
          "indexed": false,
          "internalType": "uint256[]",
          "name": "nftIds",
          "type": "uint256[]"
        },
        {
          "indexed": false,
          "internalType": "string[]",
          "name": "nftURIs",
          "type": "string[]"
        },
        {
          "indexed": false,
          "internalType": "uint256[]",
          "name": "acessNftIds",
          "type": "uint256[]"
        },
        {
          "indexed": false,
          "internalType": "string[]",
          "name": "accessNftURIs",
          "type": "string[]"
        },
        {
          "indexed": false,
          "internalType": "uint256[]",
          "name": "nftSupplies",
          "type": "uint256[]"
        }
      ],
      "name": "AccessNFTsCreated",
      "type": "event"
    },
    {
      "anonymous": false,
      "inputs": [
        {
          "indexed": false,
          "internalType": "bool",
          "name": "isTransferable",
          "type": "bool"
        }
      ],
      "name": "AccessTransferabilityUpdated",
      "type": "event"
    },
    {
      "anonymous": false,
      "inputs": [
        {
          "indexed": true,
          "internalType": "address",
          "name": "account",
          "type": "address"
        },
        {
          "indexed": true,
          "internalType": "address",
          "name": "operator",
          "type": "address"
        },
        {
          "indexed": false,
          "internalType": "bool",
          "name": "approved",
          "type": "bool"
        }
      ],
      "name": "ApprovalForAll",
      "type": "event"
    },
    {
      "anonymous": false,
      "inputs": [
        {
          "indexed": false,
          "internalType": "uint256",
          "name": "accessNftId",
          "type": "uint256"
        },
        {
          "indexed": false,
          "internalType": "address",
          "name": "creator",
          "type": "address"
        },
        {
          "indexed": false,
          "internalType": "uint256",
          "name": "lastTimeToRedeem",
          "type": "uint256"
        }
      ],
      "name": "LastRedeemTimeUpdated",
      "type": "event"
    },
    {
      "anonymous": false,
      "inputs": [
        {
          "indexed": false,
          "internalType": "address",
          "name": "account",
          "type": "address"
        }
      ],
      "name": "Paused",
      "type": "event"
    },
    {
      "anonymous": false,
      "inputs": [
        {
          "indexed": true,
          "internalType": "bytes32",
          "name": "role",
          "type": "bytes32"
        },
        {
          "indexed": true,
          "internalType": "bytes32",
          "name": "previousAdminRole",
          "type": "bytes32"
        },
        {
          "indexed": true,
          "internalType": "bytes32",
          "name": "newAdminRole",
          "type": "bytes32"
        }
      ],
      "name": "RoleAdminChanged",
      "type": "event"
    },
    {
      "anonymous": false,
      "inputs": [
        {
          "indexed": true,
          "internalType": "bytes32",
          "name": "role",
          "type": "bytes32"
        },
        {
          "indexed": true,
          "internalType": "address",
          "name": "account",
          "type": "address"
        },
        {
          "indexed": true,
          "internalType": "address",
          "name": "sender",
          "type": "address"
        }
      ],
      "name": "RoleGranted",
      "type": "event"
    },
    {
      "anonymous": false,
      "inputs": [
        {
          "indexed": true,
          "internalType": "bytes32",
          "name": "role",
          "type": "bytes32"
        },
        {
          "indexed": true,
          "internalType": "address",
          "name": "account",
          "type": "address"
        },
        {
          "indexed": true,
          "internalType": "address",
          "name": "sender",
          "type": "address"
        }
      ],
      "name": "RoleRevoked",
      "type": "event"
    },
    {
      "anonymous": false,
      "inputs": [
        {
          "indexed": false,
          "internalType": "uint256",
          "name": "royaltyBps",
          "type": "uint256"
        }
      ],
      "name": "RoyaltyUpdated",
      "type": "event"
    },
    {
      "anonymous": false,
      "inputs": [
        {
          "indexed": true,
          "internalType": "address",
          "name": "operator",
          "type": "address"
        },
        {
          "indexed": true,
          "internalType": "address",
          "name": "from",
          "type": "address"
        },
        {
          "indexed": true,
          "internalType": "address",
          "name": "to",
          "type": "address"
        },
        {
          "indexed": false,
          "internalType": "uint256[]",
          "name": "ids",
          "type": "uint256[]"
        },
        {
          "indexed": false,
          "internalType": "uint256[]",
          "name": "values",
          "type": "uint256[]"
        }
      ],
      "name": "TransferBatch",
      "type": "event"
    },
    {
      "anonymous": false,
      "inputs": [
        {
          "indexed": true,
          "internalType": "address",
          "name": "operator",
          "type": "address"
        },
        {
          "indexed": true,
          "internalType": "address",
          "name": "from",
          "type": "address"
        },
        {
          "indexed": true,
          "internalType": "address",
          "name": "to",
          "type": "address"
        },
        {
          "indexed": false,
          "internalType": "uint256",
          "name": "id",
          "type": "uint256"
        },
        {
          "indexed": false,
          "internalType": "uint256",
          "name": "value",
          "type": "uint256"
        }
      ],
      "name": "TransferSingle",
      "type": "event"
    },
    {
      "anonymous": false,
      "inputs": [
        {
          "indexed": false,
          "internalType": "string",
          "name": "value",
          "type": "string"
        },
        {
          "indexed": true,
          "internalType": "uint256",
          "name": "id",
          "type": "uint256"
        }
      ],
      "name": "URI",
      "type": "event"
    },
    {
      "anonymous": false,
      "inputs": [
        {
          "indexed": false,
          "internalType": "address",
          "name": "account",
          "type": "address"
        }
      ],
      "name": "Unpaused",
      "type": "event"
    },
    {
      "inputs": [],
      "name": "DEFAULT_ADMIN_ROLE",
      "outputs": [
        {
          "internalType": "bytes32",
          "name": "",
          "type": "bytes32"
        }
      ],
      "stateMutability": "view",
      "type": "function"
    },
    {
      "inputs": [],
      "name": "MINTER_ROLE",
      "outputs": [
        {
          "internalType": "bytes32",
          "name": "",
          "type": "bytes32"
        }
      ],
      "stateMutability": "view",
      "type": "function"
    },
    {
      "inputs": [],
      "name": "PAUSER_ROLE",
      "outputs": [
        {
          "internalType": "bytes32",
          "name": "",
          "type": "bytes32"
        }
      ],
      "stateMutability": "view",
      "type": "function"
    },
    {
      "inputs": [],
      "name": "TRANSFER_ROLE",
      "outputs": [
        {
          "internalType": "bytes32",
          "name": "",
          "type": "bytes32"
        }
      ],
      "stateMutability": "view",
      "type": "function"
    },
    {
      "inputs": [],
      "name": "_contractURI",
      "outputs": [
        {
          "internalType": "string",
          "name": "",
          "type": "string"
        }
      ],
      "stateMutability": "view",
      "type": "function"
    },
    {
      "inputs": [],
      "name": "accessNftIsTransferable",
      "outputs": [
        {
          "internalType": "bool",
          "name": "",
          "type": "bool"
        }
      ],
      "stateMutability": "view",
      "type": "function"
    },
    {
      "inputs": [
        {
          "internalType": "address",
          "name": "account",
          "type": "address"
        },
        {
          "internalType": "uint256",
          "name": "id",
          "type": "uint256"
        }
      ],
      "name": "balanceOf",
      "outputs": [
        {
          "internalType": "uint256",
          "name": "",
          "type": "uint256"
        }
      ],
      "stateMutability": "view",
      "type": "function"
    },
    {
      "inputs": [
        {
          "internalType": "address[]",
          "name": "accounts",
          "type": "address[]"
        },
        {
          "internalType": "uint256[]",
          "name": "ids",
          "type": "uint256[]"
        }
      ],
      "name": "balanceOfBatch",
      "outputs": [
        {
          "internalType": "uint256[]",
          "name": "",
          "type": "uint256[]"
        }
      ],
      "stateMutability": "view",
      "type": "function"
    },
    {
      "inputs": [
        {
          "internalType": "address",
          "name": "account",
          "type": "address"
        },
        {
          "internalType": "uint256",
          "name": "id",
          "type": "uint256"
        },
        {
          "internalType": "uint256",
          "name": "value",
          "type": "uint256"
        }
      ],
      "name": "burn",
      "outputs": [],
      "stateMutability": "nonpayable",
      "type": "function"
    },
    {
      "inputs": [
        {
          "internalType": "address",
          "name": "account",
          "type": "address"
        },
        {
          "internalType": "uint256[]",
          "name": "ids",
          "type": "uint256[]"
        },
        {
          "internalType": "uint256[]",
          "name": "values",
          "type": "uint256[]"
        }
      ],
      "name": "burnBatch",
      "outputs": [],
      "stateMutability": "nonpayable",
      "type": "function"
    },
    {
      "inputs": [],
      "name": "contractURI",
      "outputs": [
        {
          "internalType": "string",
          "name": "",
          "type": "string"
        }
      ],
      "stateMutability": "view",
      "type": "function"
    },
    {
      "inputs": [
        {
          "internalType": "string[]",
          "name": "_nftURIs",
          "type": "string[]"
        },
        {
          "internalType": "string[]",
          "name": "_accessNftURIs",
          "type": "string[]"
        },
        {
          "internalType": "uint256[]",
          "name": "_nftSupplies",
          "type": "uint256[]"
        }
      ],
      "name": "createAccessNfts",
      "outputs": [
        {
          "internalType": "uint256[]",
          "name": "nftIds",
          "type": "uint256[]"
        }
      ],
      "stateMutability": "nonpayable",
      "type": "function"
    },
    {
      "inputs": [
        {
          "internalType": "address",
          "name": "_pack",
          "type": "address"
        },
        {
          "internalType": "string[]",
          "name": "_nftURIs",
          "type": "string[]"
        },
        {
          "internalType": "string[]",
          "name": "_accessNftURIs",
          "type": "string[]"
        },
        {
          "internalType": "uint256[]",
          "name": "_nftSupplies",
          "type": "uint256[]"
        },
        {
          "internalType": "string",
          "name": "_packURI",
          "type": "string"
        },
        {
          "internalType": "uint256",
          "name": "_secondsUntilOpenStart",
          "type": "uint256"
        },
        {
          "internalType": "uint256",
          "name": "_secondsUntilOpenEnd",
          "type": "uint256"
        },
        {
          "internalType": "uint256",
          "name": "_nftsPerOpen",
          "type": "uint256"
        }
      ],
      "name": "createAccessPack",
      "outputs": [],
      "stateMutability": "nonpayable",
      "type": "function"
    },
    {
      "inputs": [
        {
          "internalType": "bytes32",
          "name": "role",
          "type": "bytes32"
        }
      ],
      "name": "getRoleAdmin",
      "outputs": [
        {
          "internalType": "bytes32",
          "name": "",
          "type": "bytes32"
        }
      ],
      "stateMutability": "view",
      "type": "function"
    },
    {
      "inputs": [
        {
          "internalType": "bytes32",
          "name": "role",
          "type": "bytes32"
        },
        {
          "internalType": "uint256",
          "name": "index",
          "type": "uint256"
        }
      ],
      "name": "getRoleMember",
      "outputs": [
        {
          "internalType": "address",
          "name": "",
          "type": "address"
        }
      ],
      "stateMutability": "view",
      "type": "function"
    },
    {
      "inputs": [
        {
          "internalType": "bytes32",
          "name": "role",
          "type": "bytes32"
        }
      ],
      "name": "getRoleMemberCount",
      "outputs": [
        {
          "internalType": "uint256",
          "name": "",
          "type": "uint256"
        }
      ],
      "stateMutability": "view",
      "type": "function"
    },
    {
      "inputs": [
        {
          "internalType": "bytes32",
          "name": "role",
          "type": "bytes32"
        },
        {
          "internalType": "address",
          "name": "account",
          "type": "address"
        }
      ],
      "name": "grantRole",
      "outputs": [],
      "stateMutability": "nonpayable",
      "type": "function"
    },
    {
      "inputs": [
        {
          "internalType": "bytes32",
          "name": "role",
          "type": "bytes32"
        },
        {
          "internalType": "address",
          "name": "account",
          "type": "address"
        }
      ],
      "name": "hasRole",
      "outputs": [
        {
          "internalType": "bool",
          "name": "",
          "type": "bool"
        }
      ],
      "stateMutability": "view",
      "type": "function"
    },
    {
      "inputs": [
        {
          "internalType": "address",
          "name": "account",
          "type": "address"
        },
        {
          "internalType": "address",
          "name": "operator",
          "type": "address"
        }
      ],
      "name": "isApprovedForAll",
      "outputs": [
        {
          "internalType": "bool",
          "name": "",
          "type": "bool"
        }
      ],
      "stateMutability": "view",
      "type": "function"
    },
    {
      "inputs": [
        {
          "internalType": "uint256",
          "name": "_nftId",
          "type": "uint256"
        }
      ],
      "name": "isRedeemed",
      "outputs": [
        {
          "internalType": "bool",
          "name": "",
          "type": "bool"
        }
      ],
      "stateMutability": "view",
      "type": "function"
    },
    {
      "inputs": [
        {
          "internalType": "address",
          "name": "forwarder",
          "type": "address"
        }
      ],
      "name": "isTrustedForwarder",
      "outputs": [
        {
          "internalType": "bool",
          "name": "",
          "type": "bool"
        }
      ],
      "stateMutability": "view",
      "type": "function"
    },
    {
      "inputs": [
        {
          "internalType": "uint256",
          "name": "",
          "type": "uint256"
        }
      ],
      "name": "lastTimeToRedeem",
      "outputs": [
        {
          "internalType": "uint256",
          "name": "",
          "type": "uint256"
        }
      ],
      "stateMutability": "view",
      "type": "function"
    },
    {
      "inputs": [
        {
          "internalType": "address",
          "name": "to",
          "type": "address"
        },
        {
          "internalType": "uint256",
          "name": "id",
          "type": "uint256"
        },
        {
          "internalType": "uint256",
          "name": "amount",
          "type": "uint256"
        },
        {
          "internalType": "bytes",
          "name": "data",
          "type": "bytes"
        }
      ],
      "name": "mint",
      "outputs": [],
      "stateMutability": "nonpayable",
      "type": "function"
    },
    {
      "inputs": [
        {
          "internalType": "address",
          "name": "to",
          "type": "address"
        },
        {
          "internalType": "uint256[]",
          "name": "ids",
          "type": "uint256[]"
        },
        {
          "internalType": "uint256[]",
          "name": "amounts",
          "type": "uint256[]"
        },
        {
          "internalType": "bytes",
          "name": "data",
          "type": "bytes"
        }
      ],
      "name": "mintBatch",
      "outputs": [],
      "stateMutability": "nonpayable",
      "type": "function"
    },
    {
      "inputs": [],
      "name": "nextTokenId",
      "outputs": [
        {
          "internalType": "uint256",
          "name": "",
          "type": "uint256"
        }
      ],
      "stateMutability": "view",
      "type": "function"
    },
    {
      "inputs": [
        {
          "internalType": "address",
          "name": "",
          "type": "address"
        },
        {
          "internalType": "address",
          "name": "",
          "type": "address"
        },
        {
          "internalType": "uint256[]",
          "name": "",
          "type": "uint256[]"
        },
        {
          "internalType": "uint256[]",
          "name": "",
          "type": "uint256[]"
        },
        {
          "internalType": "bytes",
          "name": "",
          "type": "bytes"
        }
      ],
      "name": "onERC1155BatchReceived",
      "outputs": [
        {
          "internalType": "bytes4",
          "name": "",
          "type": "bytes4"
        }
      ],
      "stateMutability": "nonpayable",
      "type": "function"
    },
    {
      "inputs": [
        {
          "internalType": "address",
          "name": "",
          "type": "address"
        },
        {
          "internalType": "address",
          "name": "",
          "type": "address"
        },
        {
          "internalType": "uint256",
          "name": "",
          "type": "uint256"
        },
        {
          "internalType": "uint256",
          "name": "",
          "type": "uint256"
        },
        {
          "internalType": "bytes",
          "name": "",
          "type": "bytes"
        }
      ],
      "name": "onERC1155Received",
      "outputs": [
        {
          "internalType": "bytes4",
          "name": "",
          "type": "bytes4"
        }
      ],
      "stateMutability": "nonpayable",
      "type": "function"
    },
    {
      "inputs": [
        {
          "internalType": "address",
          "name": "",
          "type": "address"
        },
        {
          "internalType": "address",
          "name": "",
          "type": "address"
        },
        {
          "internalType": "uint256",
          "name": "",
          "type": "uint256"
        },
        {
          "internalType": "bytes",
          "name": "",
          "type": "bytes"
        }
      ],
      "name": "onERC721Received",
      "outputs": [
        {
          "internalType": "bytes4",
          "name": "",
          "type": "bytes4"
        }
      ],
      "stateMutability": "nonpayable",
      "type": "function"
    },
    {
      "inputs": [],
      "name": "pause",
      "outputs": [],
      "stateMutability": "nonpayable",
      "type": "function"
    },
    {
      "inputs": [],
      "name": "paused",
      "outputs": [
        {
          "internalType": "bool",
          "name": "",
          "type": "bool"
        }
      ],
      "stateMutability": "view",
      "type": "function"
    },
    {
      "inputs": [
        {
          "internalType": "uint256",
          "name": "_tokenId",
          "type": "uint256"
        },
        {
          "internalType": "uint256",
          "name": "_amount",
          "type": "uint256"
        }
      ],
      "name": "redeemAccess",
      "outputs": [],
      "stateMutability": "nonpayable",
      "type": "function"
    },
    {
      "inputs": [
        {
          "internalType": "bytes32",
          "name": "role",
          "type": "bytes32"
        },
        {
          "internalType": "address",
          "name": "account",
          "type": "address"
        }
      ],
      "name": "renounceRole",
      "outputs": [],
      "stateMutability": "nonpayable",
      "type": "function"
    },
    {
      "inputs": [
        {
          "internalType": "bytes32",
          "name": "role",
          "type": "bytes32"
        },
        {
          "internalType": "address",
          "name": "account",
          "type": "address"
        }
      ],
      "name": "revokeRole",
      "outputs": [],
      "stateMutability": "nonpayable",
      "type": "function"
    },
    {
      "inputs": [],
      "name": "royaltyBps",
      "outputs": [
        {
          "internalType": "uint256",
          "name": "",
          "type": "uint256"
        }
      ],
      "stateMutability": "view",
      "type": "function"
    },
    {
      "inputs": [
        {
          "internalType": "uint256",
          "name": "",
          "type": "uint256"
        },
        {
          "internalType": "uint256",
          "name": "salePrice",
          "type": "uint256"
        }
      ],
      "name": "royaltyInfo",
      "outputs": [
        {
          "internalType": "address",
          "name": "receiver",
          "type": "address"
        },
        {
          "internalType": "uint256",
          "name": "royaltyAmount",
          "type": "uint256"
        }
      ],
      "stateMutability": "view",
      "type": "function"
    },
    {
      "inputs": [
        {
          "internalType": "address",
          "name": "from",
          "type": "address"
        },
        {
          "internalType": "address",
          "name": "to",
          "type": "address"
        },
        {
          "internalType": "uint256[]",
          "name": "ids",
          "type": "uint256[]"
        },
        {
          "internalType": "uint256[]",
          "name": "amounts",
          "type": "uint256[]"
        },
        {
          "internalType": "bytes",
          "name": "data",
          "type": "bytes"
        }
      ],
      "name": "safeBatchTransferFrom",
      "outputs": [],
      "stateMutability": "nonpayable",
      "type": "function"
    },
    {
      "inputs": [
        {
          "internalType": "address",
          "name": "from",
          "type": "address"
        },
        {
          "internalType": "address",
          "name": "to",
          "type": "address"
        },
        {
          "internalType": "uint256",
          "name": "id",
          "type": "uint256"
        },
        {
          "internalType": "uint256",
          "name": "amount",
          "type": "uint256"
        },
        {
          "internalType": "bytes",
          "name": "data",
          "type": "bytes"
        }
      ],
      "name": "safeTransferFrom",
      "outputs": [],
      "stateMutability": "nonpayable",
      "type": "function"
    },
    {
      "inputs": [
        {
          "internalType": "address",
          "name": "operator",
          "type": "address"
        },
        {
          "internalType": "bool",
          "name": "approved",
          "type": "bool"
        }
      ],
      "name": "setApprovalForAll",
      "outputs": [],
      "stateMutability": "nonpayable",
      "type": "function"
    },
    {
      "inputs": [
        {
          "internalType": "string",
          "name": "_URI",
          "type": "string"
        }
      ],
      "name": "setContractURI",
      "outputs": [],
      "stateMutability": "nonpayable",
      "type": "function"
    },
    {
      "inputs": [
        {
          "internalType": "uint256",
          "name": "_tokenId",
          "type": "uint256"
        },
        {
          "internalType": "uint256",
          "name": "_secondsUntilRedeem",
          "type": "uint256"
        }
      ],
      "name": "setLastTimeToRedeem",
      "outputs": [],
      "stateMutability": "nonpayable",
      "type": "function"
    },
    {
      "inputs": [
        {
          "internalType": "bool",
          "name": "_restrictedTransfer",
          "type": "bool"
        }
      ],
      "name": "setRestrictedTransfer",
      "outputs": [],
      "stateMutability": "nonpayable",
      "type": "function"
    },
    {
      "inputs": [
        {
          "internalType": "uint256",
          "name": "_royaltyBps",
          "type": "uint256"
        }
      ],
      "name": "setRoyaltyBps",
      "outputs": [],
      "stateMutability": "nonpayable",
      "type": "function"
    },
    {
      "inputs": [
        {
          "internalType": "bool",
          "name": "_isTransferable",
          "type": "bool"
        }
      ],
      "name": "setTransferability",
      "outputs": [],
      "stateMutability": "nonpayable",
      "type": "function"
    },
    {
      "inputs": [
        {
          "internalType": "bytes4",
          "name": "interfaceId",
          "type": "bytes4"
        }
      ],
      "name": "supportsInterface",
      "outputs": [
        {
          "internalType": "bool",
          "name": "",
          "type": "bool"
        }
      ],
      "stateMutability": "view",
      "type": "function"
    },
    {
      "inputs": [
        {
          "internalType": "uint256",
          "name": "",
          "type": "uint256"
        }
      ],
      "name": "tokenState",
      "outputs": [
        {
          "internalType": "address",
          "name": "creator",
          "type": "address"
        },
        {
          "internalType": "string",
          "name": "uri",
          "type": "string"
        },
        {
          "internalType": "bool",
          "name": "isAccess",
          "type": "bool"
        },
        {
          "internalType": "uint256",
          "name": "accessNftId",
          "type": "uint256"
        },
        {
          "internalType": "enum AccessNFT.UnderlyingType",
          "name": "underlyingType",
          "type": "uint8"
        }
      ],
      "stateMutability": "view",
      "type": "function"
    },
    {
      "inputs": [
        {
          "internalType": "uint256",
          "name": "_nftId",
          "type": "uint256"
        }
      ],
      "name": "tokenURI",
      "outputs": [
        {
          "internalType": "string",
          "name": "",
          "type": "string"
        }
      ],
      "stateMutability": "view",
      "type": "function"
    },
    {
      "inputs": [
        {
          "internalType": "uint256",
          "name": "id",
          "type": "uint256"
        }
      ],
      "name": "totalSupply",
      "outputs": [
        {
          "internalType": "uint256",
          "name": "",
          "type": "uint256"
        }
      ],
      "stateMutability": "view",
      "type": "function"
    },
    {
      "inputs": [],
      "name": "transfersRestricted",
      "outputs": [
        {
          "internalType": "bool",
          "name": "",
          "type": "bool"
        }
      ],
      "stateMutability": "view",
      "type": "function"
    },
    {
      "inputs": [],
      "name": "unpause",
      "outputs": [],
      "stateMutability": "nonpayable",
      "type": "function"
    },
    {
      "inputs": [
        {
          "internalType": "uint256",
          "name": "_nftId",
          "type": "uint256"
        }
      ],
      "name": "uri",
      "outputs": [
        {
          "internalType": "string",
          "name": "",
          "type": "string"
        }
      ],
      "stateMutability": "view",
      "type": "function"
    }
  ],
  "bytecode": "0x60806040523480156200001157600080fd5b5060405162005c5238038062005c528339810160408190526200003491620003fc565b81818062000042816200013f565b506005805460ff191690556200006360006200005d62000158565b62000175565b620000927f9f2df0fed2c77648de5860a4cc508cd0818c85b8b8a1ab4ceeef8d981c8956a66200005d62000158565b620000c17f65d7a28e3265b37a6474929f336521b332c1681b933f6cb9f3376673440d862a6200005d62000158565b50600780546001600160a01b03199081166001600160a01b03938416179091556008805490911691851691909117905580516200010690600b90602084019062000356565b50620001367f8502233096d909befbda0999bb8ea2f3a6be3c138b9fbf003752a4c8bce86f6c6200005d62000158565b50505062000565565b80516200015490600490602084019062000356565b5050565b60006200016f620001b860201b620023661760201c565b90505b90565b6200018c8282620001f860201b620023941760201c565b6000828152600160209081526040909120620001b3918390620023a262000204821b17901c565b505050565b6000620001c53362000224565b15620001db575060131936013560601c62000172565b620001f06200023860201b620023b71760201c565b905062000172565b6200015482826200023c565b60006200021b836001600160a01b038416620002c6565b90505b92915050565b6007546001600160a01b0390811691161490565b3390565b62000248828262000315565b62000154576000828152602081815260408083206001600160a01b03851684529091529020805460ff191660011790556200028262000158565b6001600160a01b0316816001600160a01b0316837f2f8788117e7eff1d82e926ec794901d17c78024a50270940304540a733656f0d60405160405180910390a45050565b6000620002d483836200033e565b6200030c575081546001818101845560008481526020808220909301849055845484825282860190935260409020919091556200021e565b5060006200021e565b6000918252602082815260408084206001600160a01b0393909316845291905290205460ff1690565b60009081526001919091016020526040902054151590565b8280546200036490620004f9565b90600052602060002090601f016020900481019282620003885760008555620003d3565b82601f10620003a357805160ff1916838001178555620003d3565b82800160010185558215620003d3579182015b82811115620003d3578251825591602001919060010190620003b6565b50620003e1929150620003e5565b5090565b5b80821115620003e15760008155600101620003e6565b60008060006060848603121562000411578283fd5b83516200041e816200054c565b8093505060208085015162000433816200054c565b60408601519093506001600160401b038082111562000450578384fd5b818701915087601f83011262000464578384fd5b81518181111562000479576200047962000536565b604051601f8201601f19168101850183811182821017156200049f576200049f62000536565b60405281815283820185018a1015620004b6578586fd5b8592505b81831015620004d95783830185015181840186015291840191620004ba565b81831115620004ea57858583830101525b80955050505050509250925092565b6002810460018216806200050e57607f821691505b602082108114156200053057634e487b7160e01b600052602260045260246000fd5b50919050565b634e487b7160e01b600052604160045260246000fd5b6001600160a01b03811681146200056257600080fd5b50565b6156dd80620005756000396000f3fe608060405234801561001057600080fd5b50600436106103355760003560e01c80638423df79116101b2578063c0e72740116100f9578063d9371ddd116100a2578063e985e9c51161007c578063e985e9c51461067a578063f23a6e611461068d578063f242432a146106a0578063f5298aca146106b357610335565b8063d9371ddd14610662578063e63ab1e91461066a578063e8a3d4851461067257610335565b8063ca15c873116100d3578063ca15c87314610634578063d539139314610647578063d547741f1461064f57610335565b8063c0e7274014610624578063c63adb2b1461062c578063c87b56dd1461038357610335565b8063938e3d7b1161015b578063a22cb46511610135578063a22cb465146105eb578063bc197c81146105fe578063bd85b0391461061157610335565b8063938e3d7b146105ac5780639745cc3d146105bf578063a217fddf146105e357610335565b80638ba448c21161018c5780638ba448c2146105665780639010d07c1461057957806391d148541461059957610335565b80638423df79146105435780638456cb591461054b5780638aa016531461055357610335565b80632f2ff15d116102815780634e1273f41161022a5780635c975abb116102045780635c975abb1461050d5780636b20c45414610515578063731133e91461052857806375794a3c1461053b57610335565b80634e1273f4146104d4578063572b6c05146104e75780635948ab63146104fa57610335565b80633c16b12e1161025b5780633c16b12e146104995780633f4ba83a146104b95780634487f6b4146104c157610335565b80632f2ff15d1461046057806332d33cd01461047357806336568abe1461048657610335565b80631f7fdffa116102e35780632a55205a116102bd5780632a55205a146104195780632e14bee81461043a5780632eb2c2d61461044d57610335565b80631f7fdffa146103eb578063206b60f9146103fe578063248a9ca31461040657610335565b8063150b7a0211610314578063150b7a02146103a357806317ffeba2146103c35780631f72d831146103d657610335565b8062fdd58e1461033a57806301ffc9a7146103635780630e89341c14610383575b600080fd5b61034d610348366004613fca565b6106c6565b60405161035a9190614709565b60405180910390f35b610376610371366004614275565b610722565b60405161035a91906146fe565b610396610391366004614200565b610750565b60405161035a919061476f565b6103b66103b1366004613cc7565b6107f5565b60405161035a9190614729565b61034d6103d1366004614200565b610805565b6103e96103e4366004614200565b610817565b005b6103e96103f9366004613f12565b610ab3565b61034d610bdc565b61034d610414366004614200565b610c00565b61042c610427366004614254565b610c15565b60405161035a9291906145fd565b6103e9610448366004614254565b610d59565b6103e961045b366004613c1d565b610f70565b6103e961046e366004614230565b610fce565b610376610481366004614200565b610ff5565b6103e9610494366004614230565b61100d565b6104ac6104a7366004614132565b61102f565b60405161035a9190614616565b6103e9611648565b6103e96104cf366004614254565b61169a565b6104ac6104e2366004614072565b611786565b6103766104f5366004613bad565b6118a6565b6103e96105083660046141c8565b6118ba565b610376611a12565b6103e9610523366004613e9f565b611a1c565b6103e9610536366004614029565b611a71565b61034d611af5565b610376611afb565b6103e9611b04565b6103e9610561366004613d98565b611b54565b6103e96105743660046141c8565b611c8d565b61058c610587366004614254565b611db6565b60405161035a91906144b0565b6103766105a7366004614230565b611dd5565b6103e96105ba3660046142ad565b611dfe565b6105d26105cd366004614200565b611f20565b60405161035a95949392919061459d565b61034d611fe8565b6103e96105f9366004613f9d565b611fed565b6103b661060c366004613c1d565b6120bb565b61034d61061f366004614200565b6120cc565b6103966120de565b61034d61216c565b61034d610642366004614200565b612172565b61034d612189565b6103e961065d366004614230565b6121ad565b6103766121b7565b61034d6121c5565b6103966121e9565b610376610688366004613be5565b61227b565b6103b661069b366004613d31565b6122a9565b6103e96106ae366004613d31565b6122ba565b6103e96106c1366004613ff5565b612311565b60006001600160a01b0383166106f75760405162461bcd60e51b81526004016106ee90614905565b60405180910390fd5b5060008181526002602090815260408083206001600160a01b03861684529091529020545b92915050565b600061072d826123bb565b8061074857506001600160e01b0319821663152a902d60e11b145b90505b919050565b6000818152600d6020526040902060010180546060919061077090615567565b80601f016020809104026020016040519081016040528092919081815260200182805461079c90615567565b80156107e95780601f106107be576101008083540402835291602001916107e9565b820191906000526020600020905b8154815290600101906020018083116107cc57829003601f168201915b50505050509050919050565b630a85bd0160e11b949350505050565b600e6020526000908152604090205481565b60085460408051634a32c6bf60e11b815290516001600160a01b03909216916391d148549183916394658d7e91600480820192602092909190829003018186803b15801561086457600080fd5b505afa158015610878573d6000803e3d6000fd5b505050506040513d601f19601f8201168201806040525081019061089c9190614218565b6108a46123c6565b6040518363ffffffff1660e01b81526004016108c1929190614712565b60206040518083038186803b1580156108d957600080fd5b505afa1580156108ed573d6000803e3d6000fd5b505050506040513d601f19601f8201168201806040525081019061091191906141e4565b61092d5760405162461bcd60e51b81526004016106ee90614a03565b600860009054906101000a90046001600160a01b03166001600160a01b0316635cd423156040518163ffffffff1660e01b815260040160206040518083038186803b15801561097b57600080fd5b505afa15801561098f573d6000803e3d6000fd5b505050506040513d601f19601f820116820180604052508101906109b391906142ed565b600860009054906101000a90046001600160a01b03166001600160a01b031663fd967f476040518163ffffffff1660e01b815260040160206040518083038186803b158015610a0157600080fd5b505afa158015610a15573d6000803e3d6000fd5b505050506040513d601f19601f82011682018060405250810190610a3991906142ed565b610a439190615482565b6fffffffffffffffffffffffffffffffff168110610a735760405162461bcd60e51b81526004016106ee90615308565b600a8190556040517f244ea8d7627f5a08f4299862bd5a45752842c183aee5b0fb0d1e4887bfa605b390610aa8908390614709565b60405180910390a150565b60018060005b8551811015610b8d57600954868281518110610ae557634e487b7160e01b600052603260045260246000fd5b602002602001015110158015610af85750825b15610b0257600092505b6000600d6000888481518110610b2857634e487b7160e01b600052603260045260246000fd5b60209081029190910181015182528101919091526040016000206004015460ff166002811115610b6857634e487b7160e01b600052602160045260246000fd5b14158015610b735750815b15610b7d57600091505b610b86816155a2565b9050610ab9565b5081610bab5760405162461bcd60e51b81526004016106ee906148a8565b80610bc85760405162461bcd60e51b81526004016106ee90614962565b610bd4868686866123d5565b505050505050565b7f8502233096d909befbda0999bb8ea2f3a6be3c138b9fbf003752a4c8bce86f6c81565b60009081526020819052604090206001015490565b600080600860009054906101000a90046001600160a01b03166001600160a01b0316630f603ed36040518163ffffffff1660e01b815260040160206040518083038186803b158015610c6657600080fd5b505afa158015610c7a573d6000803e3d6000fd5b505050506040513d601f19601f82011682018060405250810190610c9e9190613bc9565b9150600860009054906101000a90046001600160a01b03166001600160a01b031663fd967f476040518163ffffffff1660e01b815260040160206040518083038186803b158015610cee57600080fd5b505afa158015610d02573d6000803e3d6000fd5b505050506040513d601f19601f82011682018060405250810190610d2691906142ed565b6fffffffffffffffffffffffffffffffff16600a5484610d4691906154ee565b610d5091906154ce565b90509250929050565b600860009054906101000a90046001600160a01b03166001600160a01b0316639d2f83f06040518163ffffffff1660e01b815260040160206040518083038186803b158015610da757600080fd5b505afa158015610dbb573d6000803e3d6000fd5b505050506040513d601f19601f82011682018060405250810190610ddf91906141e4565b15610dfc5760405162461bcd60e51b81526004016106ee90614ee3565b6000828152600d602052604090206002015460ff1615610e2e5760405162461bcd60e51b81526004016106ee90614f82565b6000610e386123c6565b905081610e4582856106c6565b1015610e635760405162461bcd60e51b81526004016106ee90614b1a565b610e75610e6e6123c6565b8484612311565b6000838152600d6020908152604080832060030154808452600e9092529091205442111580610eb057506000818152600e6020526040902054155b610ecc5760405162461bcd60e51b81526004016106ee90614f25565b604051637921219560e11b8152309063f242432a90610ef5908390869086908990600401614565565b600060405180830381600087803b158015610f0f57600080fd5b505af1158015610f23573d6000803e3d6000fd5b505050508084836001600160a01b03167fa70022dc131dbd0be52c08bf87947e36b3e7d4934dce1efecf2d261c381d101786604051610f629190614709565b60405180910390a450505050565b610f786123c6565b6001600160a01b0316856001600160a01b03161480610f9e5750610f9e856106886123c6565b610fba5760405162461bcd60e51b81526004016106ee90614ccf565b610fc78585858585612429565b5050505050565b610fd882826125f5565b6000828152600160205260409020610ff090826123a2565b505050565b6000908152600d602052604090206002015460ff1690565b6110178282612619565b6000828152600160205260409020610ff0908261265b565b600854604080516309d2f83f60e41b815290516060926001600160a01b031691639d2f83f0916004808301926020929190829003018186803b15801561107457600080fd5b505afa158015611088573d6000803e3d6000fd5b505050506040513d601f19601f820116820180604052508101906110ac91906141e4565b156110c95760405162461bcd60e51b81526004016106ee90614ee3565b6110f57f9f2df0fed2c77648de5860a4cc508cd0818c85b8b8a1ab4ceeef8d981c8956a66105a76123c6565b6111115760405162461bcd60e51b81526004016106ee90614b77565b858214801561111f57508584145b61113b5760405162461bcd60e51b81526004016106ee9061503c565b856111585760405162461bcd60e51b81526004016106ee90614c15565b8567ffffffffffffffff81111561117f57634e487b7160e01b600052604160045260246000fd5b6040519080825280602002602001820160405280156111a8578160200160208202803683370190505b50905060008667ffffffffffffffff8111156111d457634e487b7160e01b600052604160045260246000fd5b6040519080825280602002602001820160405280156111fd578160200160208202803683370190505b5060095490915060005b8881101561153f578183828151811061123057634e487b7160e01b600052603260045260246000fd5b6020026020010181815250506040518060a0016040528061124f6123c6565b6001600160a01b0316815260200189898481811061127d57634e487b7160e01b600052603260045260246000fd5b905060200281019061128f91906153ef565b8080601f016020809104026020016040519081016040528093929190818152602001838380828437600092018290525093855250506001602084015250604082018190526060909101526000838152600d602090815260409091208251815473ffffffffffffffffffffffffffffffffffffffff19166001600160a01b03909116178155828201518051919261132d92600185019290910190613935565b5060408201516002808301805492151560ff1993841617905560608401516003840155608084015160048401805491939092911690600190849081111561138457634e487b7160e01b600052602160045260246000fd5b0217905550611398915060019050836154b6565b9150818482815181106113bb57634e487b7160e01b600052603260045260246000fd5b6020026020010181815250506040518060a001604052806113da6123c6565b6001600160a01b031681526020018b8b8481811061140857634e487b7160e01b600052603260045260246000fd5b905060200281019061141a91906153ef565b8080601f0160208091040260200160405190810160405280939291908181526020018383808284376000920182905250938552505050602082015260400161146360018561550d565b8152602001600090526000838152600d602090815260409091208251815473ffffffffffffffffffffffffffffffffffffffff19166001600160a01b0390911617815582820151805191926114c092600185019290910190613935565b5060408201516002808301805492151560ff1993841617905560608401516003840155608084015160048401805491939092911690600190849081111561151757634e487b7160e01b600052602160045260246000fd5b021790555061152b915060019050836154b6565b915080611537816155a2565b915050611207565b50806009819055506115933083878780806020026020016040519081016040528093929190818152602001838360200280828437600092018290525060408051602081019091529081529250612670915050565b6115e661159e6123c6565b84878780806020026020016040519081016040528093929190818152602001838360200280828437600092018290525060408051602081019091529081529250612670915050565b6115ee6123c6565b6001600160a01b03167fe309c6cae6e35dcc6c2f37d5da32b19e0346074be56b9722cdf852d20fced6ee848b8b868c8c8c8c604051611634989796959493929190614629565b60405180910390a250509695505050505050565b6116747f65d7a28e3265b37a6474929f336521b332c1681b933f6cb9f3376673440d862a6105a76123c6565b6116905760405162461bcd60e51b81526004016106ee90615099565b61169861270f565b565b6000828152600d60205260409020546001600160a01b03166116ba6123c6565b6001600160a01b0316146116e05760405162461bcd60e51b81526004016106ee906150f6565b6000828152600d602052604090206002015460ff166117115760405162461bcd60e51b81526004016106ee90614fdf565b600081156117285761172382426154b6565b61172c565b6000195b6000848152600e6020526040902081905590507ff01057f3c55599179571189c7758b5ce72994adea5a8dc33095fdc8fdff07119836117696123c6565b83604051611779939291906153c2565b60405180910390a1505050565b606081518351146117a95760405162461bcd60e51b81526004016106ee9061520d565b6000835167ffffffffffffffff8111156117d357634e487b7160e01b600052604160045260246000fd5b6040519080825280602002602001820160405280156117fc578160200160208202803683370190505b50905060005b845181101561189e5761186385828151811061182e57634e487b7160e01b600052603260045260246000fd5b602002602001015185838151811061185657634e487b7160e01b600052603260045260246000fd5b60200260200101516106c6565b82828151811061188357634e487b7160e01b600052603260045260246000fd5b6020908102919091010152611897816155a2565b9050611802565b509392505050565b6007546001600160a01b0390811691161490565b60085460408051634a32c6bf60e11b815290516001600160a01b03909216916391d148549183916394658d7e91600480820192602092909190829003018186803b15801561190757600080fd5b505afa15801561191b573d6000803e3d6000fd5b505050506040513d601f19601f8201168201806040525081019061193f9190614218565b6119476123c6565b6040518363ffffffff1660e01b8152600401611964929190614712565b60206040518083038186803b15801561197c57600080fd5b505afa158015611990573d6000803e3d6000fd5b505050506040513d601f19601f820116820180604052508101906119b491906141e4565b6119d05760405162461bcd60e51b81526004016106ee90614a03565b600c805461ff001916610100831515021790556040517e4701906729f069b76305c2c6a0bfa1d4ba4ff97d08206c8716078bf7a5e02790610aa89083906146fe565b60055460ff165b90565b611a246123c6565b6001600160a01b0316836001600160a01b03161480611a4a5750611a4a836106886123c6565b611a665760405162461bcd60e51b81526004016106ee90614abd565b610ff083838361277d565b6009548310611a925760405162461bcd60e51b81526004016106ee906148a8565b6000838152600d602052604081206004015460ff166002811115611ac657634e487b7160e01b600052602160045260246000fd5b14611ae35760405162461bcd60e51b81526004016106ee90614962565b611aef8484848461281b565b50505050565b60095481565b600c5460ff1681565b611b307f65d7a28e3265b37a6474929f336521b332c1681b933f6cb9f3376673440d862a6105a76123c6565b611b4c5760405162461bcd60e51b81526004016106ee90615153565b61169861286f565b600860009054906101000a90046001600160a01b03166001600160a01b0316639d2f83f06040518163ffffffff1660e01b815260040160206040518083038186803b158015611ba257600080fd5b505afa158015611bb6573d6000803e3d6000fd5b505050506040513d601f19601f82011682018060405250810190611bda91906141e4565b15611bf75760405162461bcd60e51b81526004016106ee90614ee3565b6000611c078c8c8c8c8c8c61102f565b905060008686868686604051602001611c2495949392919061473e565b6040516020818303038152906040529050611c7d611c406123c6565b8f848c8c80806020026020016040519081016040528093929190818152602001838360200280828437600092019190915250889250610f70915050565b5050505050505050505050505050565b60085460408051634a32c6bf60e11b815290516001600160a01b03909216916391d148549183916394658d7e91600480820192602092909190829003018186803b158015611cda57600080fd5b505afa158015611cee573d6000803e3d6000fd5b505050506040513d601f19601f82011682018060405250810190611d129190614218565b611d1a6123c6565b6040518363ffffffff1660e01b8152600401611d37929190614712565b60206040518083038186803b158015611d4f57600080fd5b505afa158015611d63573d6000803e3d6000fd5b505050506040513d601f19601f82011682018060405250810190611d8791906141e4565b611da35760405162461bcd60e51b81526004016106ee90614a03565b600c805460ff1916911515919091179055565b6000828152600160205260408120611dce90836128ca565b9392505050565b6000918252602082815260408084206001600160a01b0393909316845291905290205460ff1690565b60085460408051634a32c6bf60e11b815290516001600160a01b03909216916391d148549183916394658d7e91600480820192602092909190829003018186803b158015611e4b57600080fd5b505afa158015611e5f573d6000803e3d6000fd5b505050506040513d601f19601f82011682018060405250810190611e839190614218565b611e8b6123c6565b6040518363ffffffff1660e01b8152600401611ea8929190614712565b60206040518083038186803b158015611ec057600080fd5b505afa158015611ed4573d6000803e3d6000fd5b505050506040513d601f19601f82011682018060405250810190611ef891906141e4565b611f145760405162461bcd60e51b81526004016106ee90614a03565b610ff0600b83836139b9565b600d60205260009081526040902080546001820180546001600160a01b039092169291611f4c90615567565b80601f0160208091040260200160405190810160405280929190818152602001828054611f7890615567565b8015611fc55780601f10611f9a57610100808354040283529160200191611fc5565b820191906000526020600020905b815481529060010190602001808311611fa857829003601f168201915b5050505060028301546003840154600490940154929360ff918216939092501685565b600081565b816001600160a01b0316611fff6123c6565b6001600160a01b031614156120265760405162461bcd60e51b81526004016106ee906151b0565b80600360006120336123c6565b6001600160a01b03908116825260208083019390935260409182016000908120918716808252919093529120805460ff1916921515929092179091556120776123c6565b6001600160a01b03167f17307eab39ab6107e8899845ad3d59bd9653f200f220920489ca2b5937696c31836040516120af91906146fe565b60405180910390a35050565b63bc197c8160e01b95945050505050565b60009081526006602052604090205490565b600b80546120eb90615567565b80601f016020809104026020016040519081016040528092919081815260200182805461211790615567565b80156121645780601f1061213957610100808354040283529160200191612164565b820191906000526020600020905b81548152906001019060200180831161214757829003601f168201915b505050505081565b600a5481565b6000818152600160205260408120610748906128d6565b7f9f2df0fed2c77648de5860a4cc508cd0818c85b8b8a1ab4ceeef8d981c8956a681565b61101782826128e1565b600c54610100900460ff1681565b7f65d7a28e3265b37a6474929f336521b332c1681b933f6cb9f3376673440d862a81565b6060600b80546121f890615567565b80601f016020809104026020016040519081016040528092919081815260200182805461222490615567565b80156122715780601f1061224657610100808354040283529160200191612271565b820191906000526020600020905b81548152906001019060200180831161225457829003601f168201915b5050505050905090565b6001600160a01b03918216600090815260036020908152604080832093909416825291909152205460ff1690565b63f23a6e6160e01b95945050505050565b6122c26123c6565b6001600160a01b0316856001600160a01b031614806122e857506122e8856106886123c6565b6123045760405162461bcd60e51b81526004016106ee90614abd565b610fc78585858585612900565b6123196123c6565b6001600160a01b0316836001600160a01b0316148061233f575061233f836106886123c6565b61235b5760405162461bcd60e51b81526004016106ee90614abd565b610ff0838383612a47565b6000612371336118a6565b15612385575060131936013560601c611a19565b61238d6123b7565b9050611a19565b61239e8282612a7a565b5050565b6000611dce836001600160a01b038416612aff565b3390565b600061074882612b49565b60006123d0612366565b905090565b6124017f9f2df0fed2c77648de5860a4cc508cd0818c85b8b8a1ab4ceeef8d981c8956a66105a76123c6565b61241d5760405162461bcd60e51b81526004016106ee90614dcc565b611aef84848484612670565b815183511461244a5760405162461bcd60e51b81526004016106ee9061526a565b6001600160a01b0384166124705760405162461bcd60e51b81526004016106ee90614c72565b600061247a6123c6565b905061248a818787878787612b6e565b60005b845181101561258f5760008582815181106124b857634e487b7160e01b600052603260045260246000fd5b6020026020010151905060008583815181106124e457634e487b7160e01b600052603260045260246000fd5b60209081029190910181015160008481526002835260408082206001600160a01b038e1683529093529190912054909150818110156125355760405162461bcd60e51b81526004016106ee90614e29565b60008381526002602090815260408083206001600160a01b038e8116855292528083208585039055908b168252812080548492906125749084906154b6565b9250508190555050505080612588906155a2565b905061248d565b50846001600160a01b0316866001600160a01b0316826001600160a01b03167f4a39dc06d4c0dbc64b70af90fd698a233a518aa5d07e595d983b8c0526c8f7fb87876040516125df9291906146d0565b60405180910390a4610bd4818787878787612cb3565b6125fe82610c00565b61260f8161260a6123c6565b612dc1565b610ff08383612a7a565b6126216123c6565b6001600160a01b0316816001600160a01b0316146126515760405162461bcd60e51b81526004016106ee90615365565b61239e8282612e25565b6000611dce836001600160a01b038416612ea8565b61267c84848484612fc5565b60005b8351811015610fc7578281815181106126a857634e487b7160e01b600052603260045260246000fd5b6020026020010151600660008684815181106126d457634e487b7160e01b600052603260045260246000fd5b6020026020010151815260200190815260200160002060008282546126f991906154b6565b909155506127089050816155a2565b905061267f565b612717611a12565b6127335760405162461bcd60e51b81526004016106ee90614871565b6005805460ff191690557f5db9ee0a495bf2e6ff9c91a7834c1ba4fdd244a5e8aa4e537bd38aeae4b073aa6127666123c6565b60405161277391906144b0565b60405180910390a1565b612788838383613147565b60005b8251811015611aef578181815181106127b457634e487b7160e01b600052603260045260246000fd5b6020026020010151600660008584815181106127e057634e487b7160e01b600052603260045260246000fd5b602002602001015181526020019081526020016000206000828254612805919061550d565b909155506128149050816155a2565b905061278b565b6128477f9f2df0fed2c77648de5860a4cc508cd0818c85b8b8a1ab4ceeef8d981c8956a66105a76123c6565b6128635760405162461bcd60e51b81526004016106ee90614dcc565b611aef848484846132ed565b612877611a12565b156128945760405162461bcd60e51b81526004016106ee90614bde565b6005805460ff191660011790557f62e78cea01bee320cd4e420270b5ea74000d11b0c9f74754ebdbfc544b05a2586127666123c6565b6000611dce8383613322565b60006107488261335a565b6128ea82610c00565b6128f68161260a6123c6565b610ff08383612e25565b6001600160a01b0384166129265760405162461bcd60e51b81526004016106ee90614c72565b60006129306123c6565b90506129508187876129418861335e565b61294a8861335e565b87612b6e565b60008481526002602090815260408083206001600160a01b038a168452909152902054838110156129935760405162461bcd60e51b81526004016106ee90614e29565b60008581526002602090815260408083206001600160a01b038b81168552925280832087850390559088168252812080548692906129d29084906154b6565b92505081905550856001600160a01b0316876001600160a01b0316836001600160a01b03167fc3d58168c5ae7397731d063d5bbf3d657854427343f4c083240f7aacaa2d0f628888604051612a289291906153e1565b60405180910390a4612a3e8288888888886133b7565b50505050505050565b612a52838383613488565b60008281526006602052604081208054839290612a7090849061550d565b9091555050505050565b612a848282611dd5565b61239e576000828152602081815260408083206001600160a01b03851684529091529020805460ff19166001179055612abb6123c6565b6001600160a01b0316816001600160a01b0316837f2f8788117e7eff1d82e926ec794901d17c78024a50270940304540a733656f0d60405160405180910390a45050565b6000612b0b838361359b565b612b415750815460018181018455600084815260208082209093018490558454848252828601909352604090209190915561071c565b50600061071c565b60006001600160e01b03198216630271189760e51b14806107485750610748826135b3565b612b7c8686868686866135f3565b600c5460ff1615612bfd57612bb17f8502233096d909befbda0999bb8ea2f3a6be3c138b9fbf003752a4c8bce86f6c86611dd5565b80612be15750612be17f8502233096d909befbda0999bb8ea2f3a6be3c138b9fbf003752a4c8bce86f6c85611dd5565b612bfd5760405162461bcd60e51b81526004016106ee90614e86565b60005b8351811015612a3e57600d6000858381518110612c2d57634e487b7160e01b600052603260045260246000fd5b60209081029190910181015182528101919091526040016000206002015460ff168015612c625750600c54610100900460ff16155b15612ca1576001600160a01b0386161580612c8557506001600160a01b03861630145b612ca15760405162461bcd60e51b81526004016106ee90614d2c565b80612cab816155a2565b915050612c00565b612cc5846001600160a01b0316613601565b15610bd45760405163bc197c8160e01b81526001600160a01b0385169063bc197c8190612cfe90899089908890889088906004016144c4565b602060405180830381600087803b158015612d1857600080fd5b505af1925050508015612d48575060408051601f3d908101601f19168201909252612d4591810190614291565b60015b612d9157612d546155ef565b80612d5f5750612d79565b8060405162461bcd60e51b81526004016106ee919061476f565b60405162461bcd60e51b81526004016106ee90614782565b6001600160e01b0319811663bc197c8160e01b14612a3e5760405162461bcd60e51b81526004016106ee90614814565b612dcb8282611dd5565b61239e57612de3816001600160a01b03166014613607565b612dee836020613607565b604051602001612dff92919061442f565b60408051601f198184030181529082905262461bcd60e51b82526106ee9160040161476f565b612e2f8282611dd5565b1561239e576000828152602081815260408083206001600160a01b03851684529091529020805460ff19169055612e646123c6565b6001600160a01b0316816001600160a01b0316837ff6391f5c32d9c69d2a47ea670b442974b53935d1edc7fd64eb21e047a839171b60405160405180910390a45050565b60008181526001830160205260408120548015612fbb576000612ecc60018361550d565b8554909150600090612ee09060019061550d565b9050818114612f61576000866000018281548110612f0e57634e487b7160e01b600052603260045260246000fd5b9060005260206000200154905080876000018481548110612f3f57634e487b7160e01b600052603260045260246000fd5b6000918252602080832090910192909255918252600188019052604090208390555b8554869080612f8057634e487b7160e01b600052603160045260246000fd5b60019003818190600052602060002001600090559055856001016000868152602001908152602001600020600090556001935050505061071c565b600091505061071c565b6001600160a01b038416612feb5760405162461bcd60e51b81526004016106ee906152c7565b815183511461300c5760405162461bcd60e51b81526004016106ee9061526a565b60006130166123c6565b905061302781600087878787612b6e565b60005b84518110156130df5783818151811061305357634e487b7160e01b600052603260045260246000fd5b60200260200101516002600087848151811061307f57634e487b7160e01b600052603260045260246000fd5b602002602001015181526020019081526020016000206000886001600160a01b03166001600160a01b0316815260200190815260200160002060008282546130c791906154b6565b909155508190506130d7816155a2565b91505061302a565b50846001600160a01b031660006001600160a01b0316826001600160a01b03167f4a39dc06d4c0dbc64b70af90fd698a233a518aa5d07e595d983b8c0526c8f7fb87876040516131309291906146d0565b60405180910390a4610fc781600087878787612cb3565b6001600160a01b03831661316d5760405162461bcd60e51b81526004016106ee90614d89565b805182511461318e5760405162461bcd60e51b81526004016106ee9061526a565b60006131986123c6565b90506131b881856000868660405180602001604052806000815250612b6e565b60005b835181101561329c5760008482815181106131e657634e487b7160e01b600052603260045260246000fd5b60200260200101519050600084838151811061321257634e487b7160e01b600052603260045260246000fd5b60209081029190910181015160008481526002835260408082206001600160a01b038c1683529093529190912054909150818110156132635760405162461bcd60e51b81526004016106ee906149bf565b60009283526002602090815260408085206001600160a01b038b1686529091529092209103905580613294816155a2565b9150506131bb565b5060006001600160a01b0316846001600160a01b0316826001600160a01b03167f4a39dc06d4c0dbc64b70af90fd698a233a518aa5d07e595d983b8c0526c8f7fb8686604051610f629291906146d0565b6132f9848484846137c6565b600083815260066020526040812080548492906133179084906154b6565b909155505050505050565b600082600001828154811061334757634e487b7160e01b600052603260045260246000fd5b9060005260206000200154905092915050565b5490565b604080516001808252818301909252606091600091906020808301908036833701905050905082816000815181106133a657634e487b7160e01b600052603260045260246000fd5b602090810291909101015292915050565b6133c9846001600160a01b0316613601565b15610bd45760405163f23a6e6160e01b81526001600160a01b0385169063f23a6e61906134029089908990889088908890600401614522565b602060405180830381600087803b15801561341c57600080fd5b505af192505050801561344c575060408051601f3d908101601f1916820190925261344991810190614291565b60015b61345857612d546155ef565b6001600160e01b0319811663f23a6e6160e01b14612a3e5760405162461bcd60e51b81526004016106ee90614814565b6001600160a01b0383166134ae5760405162461bcd60e51b81526004016106ee90614d89565b60006134b86123c6565b90506134e8818560006134ca8761335e565b6134d38761335e565b60405180602001604052806000815250612b6e565b60008381526002602090815260408083206001600160a01b03881684529091529020548281101561352b5760405162461bcd60e51b81526004016106ee906149bf565b60008481526002602090815260408083206001600160a01b03808a16808652919093528184208786039055905190918516907fc3d58168c5ae7397731d063d5bbf3d657854427343f4c083240f7aacaa2d0f629061358c90899089906153e1565b60405180910390a45050505050565b60009081526001919091016020526040902054151590565b60006001600160e01b03198216636cdb3d1360e11b14806135e457506001600160e01b031982166303a24d0760e21b145b806107485750610748826138a8565b610bd48686868686866138cd565b3b151590565b606060006136168360026154ee565b6136219060026154b6565b67ffffffffffffffff81111561364757634e487b7160e01b600052604160045260246000fd5b6040519080825280601f01601f191660200182016040528015613671576020820181803683370190505b509050600360fc1b8160008151811061369a57634e487b7160e01b600052603260045260246000fd5b60200101906001600160f81b031916908160001a905350600f60fb1b816001815181106136d757634e487b7160e01b600052603260045260246000fd5b60200101906001600160f81b031916908160001a90535060006136fb8460026154ee565b6137069060016154b6565b90505b60018111156137a7577f303132333435363738396162636465660000000000000000000000000000000085600f166010811061375557634e487b7160e01b600052603260045260246000fd5b1a60f81b82828151811061377957634e487b7160e01b600052603260045260246000fd5b60200101906001600160f81b031916908160001a90535060049490941c936137a081615550565b9050613709565b508315611dce5760405162461bcd60e51b81526004016106ee906147df565b6001600160a01b0384166137ec5760405162461bcd60e51b81526004016106ee906152c7565b60006137f66123c6565b9050613808816000876129418861335e565b60008481526002602090815260408083206001600160a01b03891684529091528120805485929061383a9084906154b6565b92505081905550846001600160a01b031660006001600160a01b0316826001600160a01b03167fc3d58168c5ae7397731d063d5bbf3d657854427343f4c083240f7aacaa2d0f6287876040516138919291906153e1565b60405180910390a4610fc7816000878787876133b7565b60006001600160e01b03198216635a05180f60e01b1480610748575061074882613900565b6138db868686868686610bd4565b6138e3611a12565b15610bd45760405162461bcd60e51b81526004016106ee90614a60565b60006001600160e01b03198216637965db0b60e01b148061074857506301ffc9a760e01b6001600160e01b0319831614610748565b82805461394190615567565b90600052602060002090601f01602090048101928261396357600085556139a9565b82601f1061397c57805160ff19168380011785556139a9565b828001600101855582156139a9579182015b828111156139a957825182559160200191906001019061398e565b506139b5929150613a2d565b5090565b8280546139c590615567565b90600052602060002090601f0160209004810192826139e757600085556139a9565b82601f10613a005782800160ff198235161785556139a9565b828001600101855582156139a9579182015b828111156139a9578235825591602001919060010190613a12565b5b808211156139b55760008155600101613a2e565b803561074b81615694565b60008083601f840112613a5e578182fd5b50813567ffffffffffffffff811115613a75578182fd5b6020830191508360208083028501011115613a8f57600080fd5b9250929050565b600082601f830112613aa6578081fd5b81356020613abb613ab68361545e565b615434565b8281528181019085830183850287018401881015613ad7578586fd5b855b85811015613af557813584529284019290840190600101613ad9565b5090979650505050505050565b600082601f830112613b12578081fd5b813567ffffffffffffffff811115613b2c57613b2c6155d3565b613b3f601f8201601f1916602001615434565b818152846020838601011115613b53578283fd5b816020850160208301379081016020019190915292915050565b60008083601f840112613b7e578182fd5b50813567ffffffffffffffff811115613b95578182fd5b602083019150836020828501011115613a8f57600080fd5b600060208284031215613bbe578081fd5b8135611dce81615694565b600060208284031215613bda578081fd5b8151611dce81615694565b60008060408385031215613bf7578081fd5b8235613c0281615694565b91506020830135613c1281615694565b809150509250929050565b600080600080600060a08688031215613c34578081fd5b8535613c3f81615694565b94506020860135613c4f81615694565b9350604086013567ffffffffffffffff80821115613c6b578283fd5b613c7789838a01613a96565b94506060880135915080821115613c8c578283fd5b613c9889838a01613a96565b93506080880135915080821115613cad578283fd5b50613cba88828901613b02565b9150509295509295909350565b60008060008060808587031215613cdc578384fd5b8435613ce781615694565b93506020850135613cf781615694565b925060408501359150606085013567ffffffffffffffff811115613d19578182fd5b613d2587828801613b02565b91505092959194509250565b600080600080600060a08688031215613d48578081fd5b8535613d5381615694565b94506020860135613d6381615694565b93506040860135925060608601359150608086013567ffffffffffffffff811115613d8c578182fd5b613cba88828901613b02565b6000806000806000806000806000806000806101008d8f031215613dba57898afd5b613dc38d613a42565b9b5067ffffffffffffffff60208e01351115613ddd57898afd5b613ded8e60208f01358f01613a4d565b909b50995067ffffffffffffffff60408e01351115613e0a578687fd5b613e1a8e60408f01358f01613a4d565b909950975067ffffffffffffffff60608e01351115613e37578687fd5b613e478e60608f01358f01613a4d565b909750955067ffffffffffffffff60808e01351115613e64578485fd5b613e748e60808f01358f01613b6d565b9c9f9b9e50999c989b979a9699959895979660a08701359660c0810135965060e00135945092505050565b600080600060608486031215613eb3578081fd5b8335613ebe81615694565b9250602084013567ffffffffffffffff80821115613eda578283fd5b613ee687838801613a96565b93506040860135915080821115613efb578283fd5b50613f0886828701613a96565b9150509250925092565b60008060008060808587031215613f27578182fd5b8435613f3281615694565b9350602085013567ffffffffffffffff80821115613f4e578384fd5b613f5a88838901613a96565b94506040870135915080821115613f6f578384fd5b613f7b88838901613a96565b93506060870135915080821115613f90578283fd5b50613d2587828801613b02565b60008060408385031215613faf578182fd5b8235613fba81615694565b91506020830135613c12816156ac565b60008060408385031215613fdc578182fd5b8235613fe781615694565b946020939093013593505050565b600080600060608486031215614009578081fd5b833561401481615694565b95602085013595506040909401359392505050565b6000806000806080858703121561403e578182fd5b843561404981615694565b93506020850135925060408501359150606085013567ffffffffffffffff811115613d19578182fd5b60008060408385031215614084578182fd5b823567ffffffffffffffff8082111561409b578384fd5b818501915085601f8301126140ae578384fd5b813560206140be613ab68361545e565b82815281810190858301838502870184018b10156140da578889fd5b8896505b848710156141055780356140f181615694565b8352600196909601959183019183016140de565b509650508601359250508082111561411b578283fd5b5061412885828601613a96565b9150509250929050565b6000806000806000806060878903121561414a578384fd5b863567ffffffffffffffff80821115614161578586fd5b61416d8a838b01613a4d565b90985096506020890135915080821115614185578586fd5b6141918a838b01613a4d565b909650945060408901359150808211156141a9578384fd5b506141b689828a01613a4d565b979a9699509497509295939492505050565b6000602082840312156141d9578081fd5b8135611dce816156ac565b6000602082840312156141f5578081fd5b8151611dce816156ac565b600060208284031215614211578081fd5b5035919050565b600060208284031215614229578081fd5b5051919050565b60008060408385031215614242578182fd5b823591506020830135613c1281615694565b60008060408385031215614266578182fd5b50508035926020909101359150565b600060208284031215614286578081fd5b8135611dce816156ba565b6000602082840312156142a2578081fd5b8151611dce816156ba565b600080602083850312156142bf578182fd5b823567ffffffffffffffff8111156142d5578283fd5b6142e185828601613b6d565b90969095509350505050565b6000602082840312156142fe578081fd5b81516fffffffffffffffffffffffffffffffff81168114611dce578182fd5b8183526020808401936000918085028201810184845b87811015613af557848303601f19018952813536889003601e19018112614358578687fd5b8701803567ffffffffffffffff811115614370578788fd5b80360389131561437e578788fd5b61438b8582888501614405565b9a86019a9450505090830190600101614333565b6000815180845260208085019450808401835b838110156143ce578151875295820195908201906001016143b2565b509495945050505050565b600081518084526143f1816020860160208601615524565b601f01601f19169290920160200192915050565b60008284528282602086013780602084860101526020601f19601f85011685010190509392505050565b60007f416363657373436f6e74726f6c3a206163636f756e742000000000000000000082528351614467816017850160208801615524565b7f206973206d697373696e6720726f6c652000000000000000000000000000000060179184019182015283516144a4816028840160208801615524565b01602801949350505050565b6001600160a01b0391909116815260200190565b60006001600160a01b03808816835280871660208401525060a060408301526144f060a083018661439f565b8281036060840152614502818661439f565b9050828103608084015261451681856143d9565b98975050505050505050565b60006001600160a01b03808816835280871660208401525084604083015283606083015260a0608083015261455a60a08301846143d9565b979650505050505050565b6001600160a01b0394851681529290931660208301526040820152606081019190915260a06080820181905260009082015260c00190565b60006001600160a01b038716825260a060208301526145bf60a08301876143d9565b90508415156040830152836060830152600383106145ed57634e487b7160e01b600052602160045260246000fd5b8260808301529695505050505050565b6001600160a01b03929092168252602082015260400190565b600060208252611dce602083018461439f565b600060a0825261463c60a083018b61439f565b828103602084015261464f818a8c61431d565b90508281036040840152614663818961439f565b9050828103606084015261467881878961431d565b905082810360808401528381527f07ffffffffffffffffffffffffffffffffffffffffffffffffffffffffffffff8411156146b1578182fd5b6020840280866020840137016020019081529998505050505050505050565b6000604082526146e3604083018561439f565b82810360208401526146f5818561439f565b95945050505050565b901515815260200190565b90815260200190565b9182526001600160a01b0316602082015260400190565b6001600160e01b031991909116815260200190565b600060808252614752608083018789614405565b602083019590955250604081019290925260609091015292915050565b600060208252611dce60208301846143d9565b60208082526034908201527f455243313135353a207472616e7366657220746f206e6f6e204552433131353560408201527f526563656976657220696d706c656d656e746572000000000000000000000000606082015260800190565b6020808252818101527f537472696e67733a20686578206c656e67746820696e73756666696369656e74604082015260600190565b60208082526028908201527f455243313135353a204552433131353552656365697665722072656a6563746560408201527f6420746f6b656e73000000000000000000000000000000000000000000000000606082015260800190565b60208082526014908201527f5061757361626c653a206e6f7420706175736564000000000000000000000000604082015260600190565b60208082526039908201527f4e4654436f6c6c656374696f6e3a2063616e6e6f742063616c6c20746869732060408201527f666e20666f72206372656174696e67206e6577204e4654732e00000000000000606082015260800190565b6020808252602b908201527f455243313135353a2062616c616e636520717565727920666f7220746865207a60408201527f65726f2061646472657373000000000000000000000000000000000000000000606082015260800190565b6020808252603a908201527f4e4654436f6c6c656374696f6e3a2063616e6e6f7420667265656c79206d696e60408201527f74206d6f7265206f66204552433230206f72204552433732312e000000000000606082015260800190565b60208082526024908201527f455243313135353a206275726e20616d6f756e7420657863656564732062616c604082015263616e636560e01b606082015260800190565b60208082526038908201527f4163636573734e46543a206f6e6c7920612070726f746f636f6c2061646d696e60408201527f2063616e2063616c6c20746869732066756e6374696f6e2e0000000000000000606082015260800190565b6020808252602c908201527f455243313135355061757361626c653a20746f6b656e207472616e736665722060408201527f7768696c65207061757365640000000000000000000000000000000000000000606082015260800190565b60208082526029908201527f455243313135353a2063616c6c6572206973206e6f74206f776e6572206e6f7260408201527f20617070726f7665640000000000000000000000000000000000000000000000606082015260800190565b6020808252602e908201527f4163636573734e46543a2043616e6e6f742072656465656d206d6f7265204e4660408201527f5473207468616e206f776e65642e000000000000000000000000000000000000606082015260800190565b60208082526041908201527f4163636573734e46543a204f6e6c79206163636f756e74732077697468204d4960408201527f4e5445525f524f4c452063616e2063616c6c20746869732066756e6374696f6e6060820152601760f91b608082015260a00190565b60208082526010908201527f5061757361626c653a2070617573656400000000000000000000000000000000604082015260600190565b60208082526028908201527f4163636573734e46543a204d75737420637265617465206174206c656173742060408201527f6f6e65204e46542e000000000000000000000000000000000000000000000000606082015260800190565b60208082526025908201527f455243313135353a207472616e7366657220746f20746865207a65726f20616460408201527f6472657373000000000000000000000000000000000000000000000000000000606082015260800190565b60208082526032908201527f455243313135353a207472616e736665722063616c6c6572206973206e6f742060408201527f6f776e6572206e6f7220617070726f7665640000000000000000000000000000606082015260800190565b60208082526039908201527f4163636573734e46543a2063616e6e6f74207472616e7366657220616e20616360408201527f63657373204e465420746861742069732072656465656d656400000000000000606082015260800190565b60208082526023908201527f455243313135353a206275726e2066726f6d20746865207a65726f206164647260408201526265737360e81b606082015260800190565b60208082526038908201527f455243313135355072657365744d696e7465725061757365723a206d7573742060408201527f68617665206d696e74657220726f6c6520746f206d696e740000000000000000606082015260800190565b6020808252602a908201527f455243313135353a20696e73756666696369656e742062616c616e636520666f60408201527f72207472616e7366657200000000000000000000000000000000000000000000606082015260800190565b6020808252603c908201527f4163636573734e46543a205472616e736665727320617265207265737472696360408201527f74656420746f205452414e534645525f524f4c4520686f6c6465727300000000606082015260800190565b60208082526022908201527f4163636573734e46543a205468652070726f746f636f6c206973207061757365604082015261321760f11b606082015260800190565b6020808252602e908201527f4163636573734e46543a2057696e646f7720746f2072656465656d206163636560408201527f73732068617320636c6f7365642e000000000000000000000000000000000000606082015260800190565b60208082526033908201527f4163636573734e46543a205468697320746f6b656e206973206e6f742072656460408201527f65656d61626c6520666f72206163636573732e00000000000000000000000000606082015260800190565b60208082526034908201527f4163636573734e46543a2063616e207365742072656465656d2074696d65206660408201527f6f72206f6e6c7920416363657373204e4654732e000000000000000000000000606082015260800190565b60208082526036908201527f4163636573734e46543a204d757374207370656369667920657175616c206e7560408201527f6d626572206f6620636f6e6669672076616c7565732e00000000000000000000606082015260800190565b6020808252603b908201527f455243313135355072657365744d696e7465725061757365723a206d7573742060408201527f686176652070617573657220726f6c6520746f20756e70617573650000000000606082015260800190565b60208082526033908201527f4163636573734e46543a206f6e6c79207468652063726561746f722063616e2060408201527f63616c6c20746869732066756e6374696f6e2e00000000000000000000000000606082015260800190565b60208082526039908201527f455243313135355072657365744d696e7465725061757365723a206d7573742060408201527f686176652070617573657220726f6c6520746f20706175736500000000000000606082015260800190565b60208082526029908201527f455243313135353a2073657474696e6720617070726f76616c2073746174757360408201527f20666f722073656c660000000000000000000000000000000000000000000000606082015260800190565b60208082526029908201527f455243313135353a206163636f756e747320616e6420696473206c656e67746860408201527f206d69736d617463680000000000000000000000000000000000000000000000606082015260800190565b60208082526028908201527f455243313135353a2069647320616e6420616d6f756e7473206c656e6774682060408201527f6d69736d61746368000000000000000000000000000000000000000000000000606082015260800190565b60208082526021908201527f455243313135353a206d696e7420746f20746865207a65726f206164647265736040820152607360f81b606082015260800190565b60208082526029908201527f4e46543a204270732070726f7669646564206d757374206265206c657373207460408201527f68616e20392c3030300000000000000000000000000000000000000000000000606082015260800190565b6020808252602f908201527f416363657373436f6e74726f6c3a2063616e206f6e6c792072656e6f756e636560408201527f20726f6c657320666f722073656c660000000000000000000000000000000000606082015260800190565b9283526001600160a01b03919091166020830152604082015260600190565b918252602082015260400190565b6000808335601e19843603018112615405578283fd5b83018035915067ffffffffffffffff82111561541f578283fd5b602001915036819003821315613a8f57600080fd5b60405181810167ffffffffffffffff81118282101715615456576154566155d3565b604052919050565b600067ffffffffffffffff821115615478576154786155d3565b5060209081020190565b60006fffffffffffffffffffffffffffffffff8083168185168083038211156154ad576154ad6155bd565b01949350505050565b600082198211156154c9576154c96155bd565b500190565b6000826154e957634e487b7160e01b81526012600452602481fd5b500490565b6000816000190483118215151615615508576155086155bd565b500290565b60008282101561551f5761551f6155bd565b500390565b60005b8381101561553f578181015183820152602001615527565b83811115611aef5750506000910152565b60008161555f5761555f6155bd565b506000190190565b60028104600182168061557b57607f821691505b6020821081141561559c57634e487b7160e01b600052602260045260246000fd5b50919050565b60006000198214156155b6576155b66155bd565b5060010190565b634e487b7160e01b600052601160045260246000fd5b634e487b7160e01b600052604160045260246000fd5b60e01c90565b600060443d10156155ff57611a19565b600481823e6308c379a061561382516155e9565b1461561d57611a19565b6040513d600319016004823e80513d67ffffffffffffffff816024840111818411171561564d5750505050611a19565b828401925082519150808211156156675750505050611a19565b503d8301602082840101111561567f57505050611a19565b601f01601f1916810160200160405291505090565b6001600160a01b03811681146156a957600080fd5b50565b80151581146156a957600080fd5b6001600160e01b0319811681146156a957600080fdfea164736f6c6343000800000a",
  "linkReferences": {},
  "deployedLinkReferences": {}
}