{
  "_format": "hh-sol-artifact-1",
  "contractName": "AccessNFT",
  "sourceName": "contracts/AccessNFT.sol",
  "abi": [
    {
      "inputs": [
        {
          "internalType": "address payable",
          "name": "_controlCenter",
          "type": "address"
        },
        {
          "internalType": "address",
          "name": "_trustedForwarder",
          "type": "address"
        },
        {
          "internalType": "string",
          "name": "_uri",
          "type": "string"
        }
      ],
      "stateMutability": "nonpayable",
      "type": "constructor"
    },
    {
      "anonymous": false,
      "inputs": [
        {
          "indexed": true,
          "internalType": "address",
          "name": "redeemer",
          "type": "address"
        },
        {
          "indexed": true,
          "internalType": "uint256",
          "name": "nftTokenId",
          "type": "uint256"
        },
        {
          "indexed": true,
          "internalType": "uint256",
          "name": "accessNftId",
          "type": "uint256"
        },
        {
          "indexed": false,
          "internalType": "uint256",
          "name": "amount",
          "type": "uint256"
        }
      ],
      "name": "AccessNFTRedeemed",
      "type": "event"
    },
    {
      "anonymous": false,
      "inputs": [
        {
          "indexed": true,
          "internalType": "address",
          "name": "creator",
          "type": "address"
        },
        {
          "indexed": false,
          "internalType": "uint256[]",
          "name": "nftIds",
          "type": "uint256[]"
        },
        {
          "indexed": false,
          "internalType": "string[]",
          "name": "nftURIs",
          "type": "string[]"
        },
        {
          "indexed": false,
          "internalType": "uint256[]",
          "name": "acessNftIds",
          "type": "uint256[]"
        },
        {
          "indexed": false,
          "internalType": "string[]",
          "name": "accessNftURIs",
          "type": "string[]"
        },
        {
          "indexed": false,
          "internalType": "uint256[]",
          "name": "nftSupplies",
          "type": "uint256[]"
        }
      ],
      "name": "AccessNFTsCreated",
      "type": "event"
    },
    {
      "anonymous": false,
      "inputs": [
        {
          "indexed": true,
          "internalType": "address",
          "name": "account",
          "type": "address"
        },
        {
          "indexed": true,
          "internalType": "address",
          "name": "operator",
          "type": "address"
        },
        {
          "indexed": false,
          "internalType": "bool",
          "name": "approved",
          "type": "bool"
        }
      ],
      "name": "ApprovalForAll",
      "type": "event"
    },
    {
      "anonymous": false,
      "inputs": [
        {
          "indexed": false,
          "internalType": "address",
          "name": "account",
          "type": "address"
        }
      ],
      "name": "Paused",
      "type": "event"
    },
    {
      "anonymous": false,
      "inputs": [
        {
          "indexed": true,
          "internalType": "bytes32",
          "name": "role",
          "type": "bytes32"
        },
        {
          "indexed": true,
          "internalType": "bytes32",
          "name": "previousAdminRole",
          "type": "bytes32"
        },
        {
          "indexed": true,
          "internalType": "bytes32",
          "name": "newAdminRole",
          "type": "bytes32"
        }
      ],
      "name": "RoleAdminChanged",
      "type": "event"
    },
    {
      "anonymous": false,
      "inputs": [
        {
          "indexed": true,
          "internalType": "bytes32",
          "name": "role",
          "type": "bytes32"
        },
        {
          "indexed": true,
          "internalType": "address",
          "name": "account",
          "type": "address"
        },
        {
          "indexed": true,
          "internalType": "address",
          "name": "sender",
          "type": "address"
        }
      ],
      "name": "RoleGranted",
      "type": "event"
    },
    {
      "anonymous": false,
      "inputs": [
        {
          "indexed": true,
          "internalType": "bytes32",
          "name": "role",
          "type": "bytes32"
        },
        {
          "indexed": true,
          "internalType": "address",
          "name": "account",
          "type": "address"
        },
        {
          "indexed": true,
          "internalType": "address",
          "name": "sender",
          "type": "address"
        }
      ],
      "name": "RoleRevoked",
      "type": "event"
    },
    {
      "anonymous": false,
      "inputs": [
        {
          "indexed": false,
          "internalType": "uint256",
          "name": "royaltyBps",
          "type": "uint256"
        }
      ],
      "name": "RoyaltyUpdated",
      "type": "event"
    },
    {
      "anonymous": false,
      "inputs": [
        {
          "indexed": true,
          "internalType": "address",
          "name": "operator",
          "type": "address"
        },
        {
          "indexed": true,
          "internalType": "address",
          "name": "from",
          "type": "address"
        },
        {
          "indexed": true,
          "internalType": "address",
          "name": "to",
          "type": "address"
        },
        {
          "indexed": false,
          "internalType": "uint256[]",
          "name": "ids",
          "type": "uint256[]"
        },
        {
          "indexed": false,
          "internalType": "uint256[]",
          "name": "values",
          "type": "uint256[]"
        }
      ],
      "name": "TransferBatch",
      "type": "event"
    },
    {
      "anonymous": false,
      "inputs": [
        {
          "indexed": true,
          "internalType": "address",
          "name": "operator",
          "type": "address"
        },
        {
          "indexed": true,
          "internalType": "address",
          "name": "from",
          "type": "address"
        },
        {
          "indexed": true,
          "internalType": "address",
          "name": "to",
          "type": "address"
        },
        {
          "indexed": false,
          "internalType": "uint256",
          "name": "id",
          "type": "uint256"
        },
        {
          "indexed": false,
          "internalType": "uint256",
          "name": "value",
          "type": "uint256"
        }
      ],
      "name": "TransferSingle",
      "type": "event"
    },
    {
      "anonymous": false,
      "inputs": [
        {
          "indexed": false,
          "internalType": "string",
          "name": "value",
          "type": "string"
        },
        {
          "indexed": true,
          "internalType": "uint256",
          "name": "id",
          "type": "uint256"
        }
      ],
      "name": "URI",
      "type": "event"
    },
    {
      "anonymous": false,
      "inputs": [
        {
          "indexed": false,
          "internalType": "address",
          "name": "account",
          "type": "address"
        }
      ],
      "name": "Unpaused",
      "type": "event"
    },
    {
      "inputs": [],
      "name": "DEFAULT_ADMIN_ROLE",
      "outputs": [
        {
          "internalType": "bytes32",
          "name": "",
          "type": "bytes32"
        }
      ],
      "stateMutability": "view",
      "type": "function"
    },
    {
      "inputs": [],
      "name": "MINTER_ROLE",
      "outputs": [
        {
          "internalType": "bytes32",
          "name": "",
          "type": "bytes32"
        }
      ],
      "stateMutability": "view",
      "type": "function"
    },
    {
      "inputs": [],
      "name": "PAUSER_ROLE",
      "outputs": [
        {
          "internalType": "bytes32",
          "name": "",
          "type": "bytes32"
        }
      ],
      "stateMutability": "view",
      "type": "function"
    },
    {
      "inputs": [],
      "name": "_contractURI",
      "outputs": [
        {
          "internalType": "string",
          "name": "",
          "type": "string"
        }
      ],
      "stateMutability": "view",
      "type": "function"
    },
    {
      "inputs": [
        {
          "internalType": "uint256",
          "name": "",
          "type": "uint256"
        }
      ],
      "name": "accessNftInfo",
      "outputs": [
        {
          "internalType": "address",
          "name": "creator",
          "type": "address"
        },
        {
          "internalType": "string",
          "name": "uri",
          "type": "string"
        },
        {
          "internalType": "uint256",
          "name": "supply",
          "type": "uint256"
        }
      ],
      "stateMutability": "view",
      "type": "function"
    },
    {
      "inputs": [
        {
          "internalType": "address",
          "name": "account",
          "type": "address"
        },
        {
          "internalType": "uint256",
          "name": "id",
          "type": "uint256"
        }
      ],
      "name": "balanceOf",
      "outputs": [
        {
          "internalType": "uint256",
          "name": "",
          "type": "uint256"
        }
      ],
      "stateMutability": "view",
      "type": "function"
    },
    {
      "inputs": [
        {
          "internalType": "address[]",
          "name": "accounts",
          "type": "address[]"
        },
        {
          "internalType": "uint256[]",
          "name": "ids",
          "type": "uint256[]"
        }
      ],
      "name": "balanceOfBatch",
      "outputs": [
        {
          "internalType": "uint256[]",
          "name": "",
          "type": "uint256[]"
        }
      ],
      "stateMutability": "view",
      "type": "function"
    },
    {
      "inputs": [
        {
          "internalType": "address",
          "name": "account",
          "type": "address"
        },
        {
          "internalType": "uint256",
          "name": "id",
          "type": "uint256"
        },
        {
          "internalType": "uint256",
          "name": "value",
          "type": "uint256"
        }
      ],
      "name": "burn",
      "outputs": [],
      "stateMutability": "nonpayable",
      "type": "function"
    },
    {
      "inputs": [
        {
          "internalType": "address",
          "name": "account",
          "type": "address"
        },
        {
          "internalType": "uint256[]",
          "name": "ids",
          "type": "uint256[]"
        },
        {
          "internalType": "uint256[]",
          "name": "values",
          "type": "uint256[]"
        }
      ],
      "name": "burnBatch",
      "outputs": [],
      "stateMutability": "nonpayable",
      "type": "function"
    },
    {
      "inputs": [],
      "name": "contractURI",
      "outputs": [
        {
          "internalType": "string",
          "name": "",
          "type": "string"
        }
      ],
      "stateMutability": "view",
      "type": "function"
    },
    {
      "inputs": [
        {
          "internalType": "string[]",
          "name": "_nftURIs",
          "type": "string[]"
        },
        {
          "internalType": "string[]",
          "name": "_accessNftURIs",
          "type": "string[]"
        },
        {
          "internalType": "uint256[]",
          "name": "_nftSupplies",
          "type": "uint256[]"
        }
      ],
      "name": "createAccessNfts",
      "outputs": [
        {
          "internalType": "uint256[]",
          "name": "nftIds",
          "type": "uint256[]"
        }
      ],
      "stateMutability": "nonpayable",
      "type": "function"
    },
    {
      "inputs": [
        {
          "internalType": "address",
          "name": "_pack",
          "type": "address"
        },
        {
          "internalType": "string[]",
          "name": "_nftURIs",
          "type": "string[]"
        },
        {
          "internalType": "string[]",
          "name": "_accessNftURIs",
          "type": "string[]"
        },
        {
          "internalType": "uint256[]",
          "name": "_nftSupplies",
          "type": "uint256[]"
        },
        {
          "internalType": "string",
          "name": "_packURI",
          "type": "string"
        },
        {
          "internalType": "uint256",
          "name": "_secondsUntilOpenStart",
          "type": "uint256"
        },
        {
          "internalType": "uint256",
          "name": "_secondsUntilOpenEnd",
          "type": "uint256"
        },
        {
          "internalType": "uint256",
          "name": "_nftsPerOpen",
          "type": "uint256"
        }
      ],
      "name": "createAccessPack",
      "outputs": [],
      "stateMutability": "nonpayable",
      "type": "function"
    },
    {
      "inputs": [
        {
          "internalType": "bytes32",
          "name": "role",
          "type": "bytes32"
        }
      ],
      "name": "getRoleAdmin",
      "outputs": [
        {
          "internalType": "bytes32",
          "name": "",
          "type": "bytes32"
        }
      ],
      "stateMutability": "view",
      "type": "function"
    },
    {
      "inputs": [
        {
          "internalType": "bytes32",
          "name": "role",
          "type": "bytes32"
        },
        {
          "internalType": "uint256",
          "name": "index",
          "type": "uint256"
        }
      ],
      "name": "getRoleMember",
      "outputs": [
        {
          "internalType": "address",
          "name": "",
          "type": "address"
        }
      ],
      "stateMutability": "view",
      "type": "function"
    },
    {
      "inputs": [
        {
          "internalType": "bytes32",
          "name": "role",
          "type": "bytes32"
        }
      ],
      "name": "getRoleMemberCount",
      "outputs": [
        {
          "internalType": "uint256",
          "name": "",
          "type": "uint256"
        }
      ],
      "stateMutability": "view",
      "type": "function"
    },
    {
      "inputs": [
        {
          "internalType": "bytes32",
          "name": "role",
          "type": "bytes32"
        },
        {
          "internalType": "address",
          "name": "account",
          "type": "address"
        }
      ],
      "name": "grantRole",
      "outputs": [],
      "stateMutability": "nonpayable",
      "type": "function"
    },
    {
      "inputs": [
        {
          "internalType": "bytes32",
          "name": "role",
          "type": "bytes32"
        },
        {
          "internalType": "address",
          "name": "account",
          "type": "address"
        }
      ],
      "name": "hasRole",
      "outputs": [
        {
          "internalType": "bool",
          "name": "",
          "type": "bool"
        }
      ],
      "stateMutability": "view",
      "type": "function"
    },
    {
      "inputs": [
        {
          "internalType": "address",
          "name": "account",
          "type": "address"
        },
        {
          "internalType": "address",
          "name": "operator",
          "type": "address"
        }
      ],
      "name": "isApprovedForAll",
      "outputs": [
        {
          "internalType": "bool",
          "name": "",
          "type": "bool"
        }
      ],
      "stateMutability": "view",
      "type": "function"
    },
    {
      "inputs": [
        {
          "internalType": "address",
          "name": "forwarder",
          "type": "address"
        }
      ],
      "name": "isTrustedForwarder",
      "outputs": [
        {
          "internalType": "bool",
          "name": "",
          "type": "bool"
        }
      ],
      "stateMutability": "view",
      "type": "function"
    },
    {
      "inputs": [
        {
          "internalType": "address",
          "name": "to",
          "type": "address"
        },
        {
          "internalType": "uint256",
          "name": "id",
          "type": "uint256"
        },
        {
          "internalType": "uint256",
          "name": "amount",
          "type": "uint256"
        },
        {
          "internalType": "bytes",
          "name": "data",
          "type": "bytes"
        }
      ],
      "name": "mint",
      "outputs": [],
      "stateMutability": "nonpayable",
      "type": "function"
    },
    {
      "inputs": [
        {
          "internalType": "address",
          "name": "to",
          "type": "address"
        },
        {
          "internalType": "uint256[]",
          "name": "ids",
          "type": "uint256[]"
        },
        {
          "internalType": "uint256[]",
          "name": "amounts",
          "type": "uint256[]"
        },
        {
          "internalType": "bytes",
          "name": "data",
          "type": "bytes"
        }
      ],
      "name": "mintBatch",
      "outputs": [],
      "stateMutability": "nonpayable",
      "type": "function"
    },
    {
      "inputs": [],
      "name": "nextTokenId",
      "outputs": [
        {
          "internalType": "uint256",
          "name": "",
          "type": "uint256"
        }
      ],
      "stateMutability": "view",
      "type": "function"
    },
    {
      "inputs": [
        {
          "internalType": "uint256",
          "name": "",
          "type": "uint256"
        }
      ],
      "name": "nftInfo",
      "outputs": [
        {
          "internalType": "address",
          "name": "creator",
          "type": "address"
        },
        {
          "internalType": "string",
          "name": "uri",
          "type": "string"
        },
        {
          "internalType": "uint256",
          "name": "supply",
          "type": "uint256"
        },
        {
          "internalType": "uint256",
          "name": "accessNftId",
          "type": "uint256"
        },
        {
          "internalType": "enum AccessNFT.UnderlyingType",
          "name": "underlyingType",
          "type": "uint8"
        }
      ],
      "stateMutability": "view",
      "type": "function"
    },
    {
      "inputs": [],
      "name": "pause",
      "outputs": [],
      "stateMutability": "nonpayable",
      "type": "function"
    },
    {
      "inputs": [],
      "name": "paused",
      "outputs": [
        {
          "internalType": "bool",
          "name": "",
          "type": "bool"
        }
      ],
      "stateMutability": "view",
      "type": "function"
    },
    {
      "inputs": [
        {
          "internalType": "uint256",
          "name": "_tokenId",
          "type": "uint256"
        },
        {
          "internalType": "uint256",
          "name": "_amount",
          "type": "uint256"
        }
      ],
      "name": "redeemAccess",
      "outputs": [],
      "stateMutability": "nonpayable",
      "type": "function"
    },
    {
      "inputs": [
        {
          "internalType": "bytes32",
          "name": "role",
          "type": "bytes32"
        },
        {
          "internalType": "address",
          "name": "account",
          "type": "address"
        }
      ],
      "name": "renounceRole",
      "outputs": [],
      "stateMutability": "nonpayable",
      "type": "function"
    },
    {
      "inputs": [
        {
          "internalType": "bytes32",
          "name": "role",
          "type": "bytes32"
        },
        {
          "internalType": "address",
          "name": "account",
          "type": "address"
        }
      ],
      "name": "revokeRole",
      "outputs": [],
      "stateMutability": "nonpayable",
      "type": "function"
    },
    {
      "inputs": [],
      "name": "royaltyBps",
      "outputs": [
        {
          "internalType": "uint256",
          "name": "",
          "type": "uint256"
        }
      ],
      "stateMutability": "view",
      "type": "function"
    },
    {
      "inputs": [
        {
          "internalType": "uint256",
          "name": "tokenId",
          "type": "uint256"
        },
        {
          "internalType": "uint256",
          "name": "salePrice",
          "type": "uint256"
        }
      ],
      "name": "royaltyInfo",
      "outputs": [
        {
          "internalType": "address",
          "name": "receiver",
          "type": "address"
        },
        {
          "internalType": "uint256",
          "name": "royaltyAmount",
          "type": "uint256"
        }
      ],
      "stateMutability": "view",
      "type": "function"
    },
    {
      "inputs": [
        {
          "internalType": "address",
          "name": "from",
          "type": "address"
        },
        {
          "internalType": "address",
          "name": "to",
          "type": "address"
        },
        {
          "internalType": "uint256[]",
          "name": "ids",
          "type": "uint256[]"
        },
        {
          "internalType": "uint256[]",
          "name": "amounts",
          "type": "uint256[]"
        },
        {
          "internalType": "bytes",
          "name": "data",
          "type": "bytes"
        }
      ],
      "name": "safeBatchTransferFrom",
      "outputs": [],
      "stateMutability": "nonpayable",
      "type": "function"
    },
    {
      "inputs": [
        {
          "internalType": "address",
          "name": "from",
          "type": "address"
        },
        {
          "internalType": "address",
          "name": "to",
          "type": "address"
        },
        {
          "internalType": "uint256",
          "name": "id",
          "type": "uint256"
        },
        {
          "internalType": "uint256",
          "name": "amount",
          "type": "uint256"
        },
        {
          "internalType": "bytes",
          "name": "data",
          "type": "bytes"
        }
      ],
      "name": "safeTransferFrom",
      "outputs": [],
      "stateMutability": "nonpayable",
      "type": "function"
    },
    {
      "inputs": [
        {
          "internalType": "address",
          "name": "operator",
          "type": "address"
        },
        {
          "internalType": "bool",
          "name": "approved",
          "type": "bool"
        }
      ],
      "name": "setApprovalForAll",
      "outputs": [],
      "stateMutability": "nonpayable",
      "type": "function"
    },
    {
      "inputs": [
        {
          "internalType": "string",
          "name": "_URI",
          "type": "string"
        }
      ],
      "name": "setContractURI",
      "outputs": [],
      "stateMutability": "nonpayable",
      "type": "function"
    },
    {
      "inputs": [
        {
          "internalType": "uint256",
          "name": "_royaltyBps",
          "type": "uint256"
        }
      ],
      "name": "setRoyaltyBps",
      "outputs": [],
      "stateMutability": "nonpayable",
      "type": "function"
    },
    {
      "inputs": [
        {
          "internalType": "bytes4",
          "name": "interfaceId",
          "type": "bytes4"
        }
      ],
      "name": "supportsInterface",
      "outputs": [
        {
          "internalType": "bool",
          "name": "",
          "type": "bool"
        }
      ],
      "stateMutability": "view",
      "type": "function"
    },
    {
      "inputs": [
        {
          "internalType": "uint256",
          "name": "_nftId",
          "type": "uint256"
        }
      ],
      "name": "tokenURI",
      "outputs": [
        {
          "internalType": "string",
          "name": "",
          "type": "string"
        }
      ],
      "stateMutability": "view",
      "type": "function"
    },
    {
      "inputs": [],
      "name": "unpause",
      "outputs": [],
      "stateMutability": "nonpayable",
      "type": "function"
    },
    {
      "inputs": [
        {
          "internalType": "uint256",
          "name": "_nftId",
          "type": "uint256"
        }
      ],
      "name": "uri",
      "outputs": [
        {
          "internalType": "string",
          "name": "",
          "type": "string"
        }
      ],
      "stateMutability": "view",
      "type": "function"
    }
  ],
  "bytecode": "0x60806040523480156200001157600080fd5b5060405162004dcb38038062004dcb8339810160408190526200003491620003db565b818180620000428162000119565b506005805460ff191690556200006360006200005d62000132565b6200014f565b620000927f9f2df0fed2c77648de5860a4cc508cd0818c85b8b8a1ab4ceeef8d981c8956a66200005d62000132565b620000c17f65d7a28e3265b37a6474929f336521b332c1681b933f6cb9f3376673440d862a6200005d62000132565b5060058054610100600160a81b0319166101006001600160a01b0393841602179055600680546001600160a01b03191691851691909117905580516200010f90600990602084019062000335565b5050505062000544565b80516200012e90600490602084019062000335565b5050565b6000620001496200019260201b62001c301760201c565b90505b90565b620001668282620001d260201b62001c5e1760201c565b60008281526001602090815260409091206200018d91839062001c6c620001de821b17901c565b505050565b60006200019f33620001fe565b15620001b5575060131936013560601c6200014c565b620001ca6200021760201b62001c811760201c565b90506200014c565b6200012e82826200021b565b6000620001f5836001600160a01b038416620002a5565b90505b92915050565b60055461010090046001600160a01b0390811691161490565b3390565b620002278282620002f4565b6200012e576000828152602081815260408083206001600160a01b03851684529091529020805460ff191660011790556200026162000132565b6001600160a01b0316816001600160a01b0316837f2f8788117e7eff1d82e926ec794901d17c78024a50270940304540a733656f0d60405160405180910390a45050565b6000620002b383836200031d565b620002eb57508154600181810184556000848152602080822090930184905584548482528286019093526040902091909155620001f8565b506000620001f8565b6000918252602082815260408084206001600160a01b0393909316845291905290205460ff1690565b60009081526001919091016020526040902054151590565b8280546200034390620004d8565b90600052602060002090601f016020900481019282620003675760008555620003b2565b82601f106200038257805160ff1916838001178555620003b2565b82800160010185558215620003b2579182015b82811115620003b257825182559160200191906001019062000395565b50620003c0929150620003c4565b5090565b5b80821115620003c05760008155600101620003c5565b600080600060608486031215620003f0578283fd5b8351620003fd816200052b565b8093505060208085015162000412816200052b565b60408601519093506001600160401b03808211156200042f578384fd5b818701915087601f83011262000443578384fd5b81518181111562000458576200045862000515565b604051601f8201601f19168101850183811182821017156200047e576200047e62000515565b60405281815283820185018a101562000495578586fd5b8592505b81831015620004b8578383018501518184018601529184019162000499565b81831115620004c957858583830101525b80955050505050509250925092565b600281046001821680620004ed57607f821691505b602082108114156200050f57634e487b7160e01b600052602260045260246000fd5b50919050565b634e487b7160e01b600052604160045260246000fd5b6001600160a01b03811681146200054157600080fd5b50565b61487780620005546000396000f3fe608060405234801561001057600080fd5b50600436106102ac5760003560e01c806375794a3c1161017b578063c6997422116100d8578063e63ab1e91161008c578063e985e9c511610071578063e985e9c514610556578063f242432a14610569578063f5298aca1461057c576102ac565b8063e63ab1e914610546578063e8a3d4851461054e576102ac565b8063ca15c873116100bd578063ca15c87314610518578063d53913931461052b578063d547741f14610533576102ac565b8063c6997422146104f6578063c87b56dd146102fa576102ac565b8063938e3d7b1161012f578063a22cb46511610114578063a22cb465146104d3578063c0e72740146104e6578063c63adb2b146104ee576102ac565b8063938e3d7b146104b8578063a217fddf146104cb576102ac565b80638aa01653116101605780638aa01653146104725780639010d07c1461048557806391d14854146104a5576102ac565b806375794a3c146104625780638456cb591461046a576102ac565b80632eb2c2d6116102295780634e1273f4116101dd5780635c975abb116101c25780635c975abb146104345780636b20c4541461043c578063731133e91461044f576102ac565b80634e1273f41461040e578063572b6c0514610421576102ac565b806336568abe1161020e57806336568abe146103d35780633c16b12e146103e65780633f4ba83a14610406576102ac565b80632eb2c2d6146103ad5780632f2ff15d146103c0576102ac565b80631f7fdffa11610280578063248a9ca311610265578063248a9ca3146103665780632a55205a146103795780632e14bee81461039a576102ac565b80631f7fdffa1461032f5780631f8bc79014610342576102ac565b8062fdd58e146102b157806301ffc9a7146102da5780630e89341c146102fa5780631f72d8311461031a575b600080fd5b6102c46102bf366004613515565b61058f565b6040516102d19190613c3b565b60405180910390f35b6102ed6102e83660046137a6565b6105eb565b6040516102d19190613c30565b61030d610308366004613733565b6105fe565b6040516102d19190613c8c565b61032d610328366004613733565b6106a3565b005b61032d61033d36600461344a565b61093f565b610355610350366004613733565b610999565b6040516102d1959493929190613ad1565b6102c4610374366004613733565b610a5f565b61038c610387366004613785565b610a74565b6040516102d1929190613b2f565b61032d6103a8366004613785565b610b35565b61032d6103bb3660046131c9565b610ca9565b61032d6103ce366004613763565b610d07565b61032d6103e1366004613763565b610d2e565b6103f96103f4366004613681565b610d50565b6040516102d19190613b48565b61032d611308565b6103f961041c3660046135c3565b61135a565b6102ed61042f366004613186565b61147a565b6102ed611493565b61032d61044a3660046133d9565b61149d565b61032d61045d366004613570565b6114f2565b6102c4611546565b61032d61154c565b61032d6104803660046132d2565b61159c565b610498610493366004613785565b6116d5565b6040516102d191906139ea565b6102ed6104b3366004613763565b6116f4565b61032d6104c63660046137de565b61171d565b6102c461183f565b61032d6104e13660046134df565b611844565b61030d611912565b6102c46119a0565b610509610504366004613733565b6119a6565b6040516102d193929190613a9f565b6102c4610526366004613733565b611a5b565b6102c4611a72565b61032d610541366004613763565b611a96565b6102c4611aa0565b61030d611ac4565b6102ed6105643660046131a0565b611b56565b61032d61057736600461326f565b611b84565b61032d61058a36600461353e565b611bdb565b60006001600160a01b0383166105c05760405162461bcd60e51b81526004016105b790613dc5565b60405180910390fd5b5060008181526002602090815260408083206001600160a01b03861684529091529020545b92915050565b60006105f682611c85565b90505b919050565b6000818152600a6020526040902060010180546060919061061e90614716565b80601f016020809104026020016040519081016040528092919081815260200182805461064a90614716565b80156106975780601f1061066c57610100808354040283529160200191610697565b820191906000526020600020905b81548152906001019060200180831161067a57829003601f168201915b50505050509050919050565b60065460408051634a32c6bf60e11b815290516001600160a01b03909216916391d148549183916394658d7e91600480820192602092909190829003018186803b1580156106f057600080fd5b505afa158015610704573d6000803e3d6000fd5b505050506040513d601f19601f82011682018060405250810190610728919061374b565b610730611cc5565b6040518363ffffffff1660e01b815260040161074d929190613c44565b60206040518083038186803b15801561076557600080fd5b505afa158015610779573d6000803e3d6000fd5b505050506040513d601f19601f8201168201806040525081019061079d9190613717565b6107b95760405162461bcd60e51b81526004016105b790613e66565b600660009054906101000a90046001600160a01b03166001600160a01b0316635cd423156040518163ffffffff1660e01b815260040160206040518083038186803b15801561080757600080fd5b505afa15801561081b573d6000803e3d6000fd5b505050506040513d601f19601f8201168201806040525081019061083f919061381e565b600660009054906101000a90046001600160a01b03166001600160a01b031663fd967f476040518163ffffffff1660e01b815260040160206040518083038186803b15801561088d57600080fd5b505afa1580156108a1573d6000803e3d6000fd5b505050506040513d601f19601f820116820180604052508101906108c5919061381e565b6108cf9190614631565b6fffffffffffffffffffffffffffffffff1681106108ff5760405162461bcd60e51b81526004016105b7906144d6565b60088190556040517f244ea8d7627f5a08f4299862bd5a45752842c183aee5b0fb0d1e4887bfa605b390610934908390613c3b565b60405180910390a150565b61096b7f9f2df0fed2c77648de5860a4cc508cd0818c85b8b8a1ab4ceeef8d981c8956a66104b3611cc5565b6109875760405162461bcd60e51b81526004016105b79061416b565b61099384848484611cd4565b50505050565b600a60205260009081526040902080546001820180546001600160a01b0390921692916109c590614716565b80601f01602080910402602001604051908101604052809291908181526020018280546109f190614716565b8015610a3e5780601f10610a1357610100808354040283529160200191610a3e565b820191906000526020600020905b815481529060010190602001808311610a2157829003601f168201915b50505050600283015460038401546004909401549293909290915060ff1685565b60009081526020819052604090206001015490565b6000828152600a6020908152604080832054600654825163fd967f4760e01b815292516001600160a01b039283169594919092169263fd967f479260048083019392829003018186803b158015610aca57600080fd5b505afa158015610ade573d6000803e3d6000fd5b505050506040513d601f19601f82011682018060405250810190610b02919061381e565b6fffffffffffffffffffffffffffffffff1660085484610b22919061469d565b610b2c919061467d565b90509250929050565b600660009054906101000a90046001600160a01b03166001600160a01b0316639d2f83f06040518163ffffffff1660e01b815260040160206040518083038186803b158015610b8357600080fd5b505afa158015610b97573d6000803e3d6000fd5b505050506040513d601f19601f82011682018060405250810190610bbb9190613717565b15610bd85760405162461bcd60e51b81526004016105b790614225565b6000610be2611cc5565b905081610bef828561058f565b1015610c0d5760405162461bcd60e51b81526004016105b790613f7d565b610c298130858560405180602001604052806000815250611b84565b6000600a6000858152602001908152602001600020600301549050610c603083838660405180602001604052806000815250611b84565b8084836001600160a01b03167fa70022dc131dbd0be52c08bf87947e36b3e7d4934dce1efecf2d261c381d101786604051610c9b9190613c3b565b60405180910390a450505050565b610cb1611cc5565b6001600160a01b0316856001600160a01b03161480610cd75750610cd785610564611cc5565b610cf35760405162461bcd60e51b81526004016105b7906140cb565b610d008585858585611e56565b5050505050565b610d11828261202a565b6000828152600160205260409020610d299082611c6c565b505050565b610d38828261204e565b6000828152600160205260409020610d299082612090565b600654604080516309d2f83f60e41b815290516060926001600160a01b031691639d2f83f0916004808301926020929190829003018186803b158015610d9557600080fd5b505afa158015610da9573d6000803e3d6000fd5b505050506040513d601f19601f82011682018060405250810190610dcd9190613717565b15610dea5760405162461bcd60e51b81526004016105b790614225565b8582148015610df857508584145b610e145760405162461bcd60e51b81526004016105b790614267565b85610e315760405162461bcd60e51b81526004016105b790614011565b8567ffffffffffffffff811115610e5857634e487b7160e01b600052604160045260246000fd5b604051908082528060200260200182016040528015610e81578160200160208202803683370190505b50905060008667ffffffffffffffff811115610ead57634e487b7160e01b600052604160045260246000fd5b604051908082528060200260200182016040528015610ed6578160200160208202803683370190505b5060075490915060005b888110156111ff5781838281518110610f0957634e487b7160e01b600052603260045260246000fd5b6020026020010181815250506040518060600160405280610f28611cc5565b6001600160a01b031681526020018b8b84818110610f5657634e487b7160e01b600052603260045260246000fd5b9050602002810190610f68919061459e565b8080601f016020809104026020016040519081016040528093929190818152602001838380828437600092019190915250505090825250602001878784818110610fc257634e487b7160e01b600052603260045260246000fd5b602090810292909201359092526000858152600b8252604090208351815473ffffffffffffffffffffffffffffffffffffffff19166001600160a01b0390911617815583820151805191935061101f926001850192910190612f02565b5060409190910151600290910155611038600183614665565b91508184828151811061105b57634e487b7160e01b600052603260045260246000fd5b6020026020010181815250506040518060a0016040528061107a611cc5565b6001600160a01b031681526020018b8b848181106110a857634e487b7160e01b600052603260045260246000fd5b90506020028101906110ba919061459e565b8080601f01602080910402602001604051908101604052809392919081815260200183838082843760009201919091525050509082525060200187878481811061111457634e487b7160e01b600052603260045260246000fd5b90506020020135815260200160018461112d91906146bc565b8152602001600390526000838152600a602090815260409091208251815473ffffffffffffffffffffffffffffffffffffffff19166001600160a01b03909116178155828201518051919261118a92600185019290910190612f02565b50604082015181600201556060820151816003015560808201518160040160006101000a81548160ff021916908360038111156111d757634e487b7160e01b600052602160045260246000fd5b02179055506111eb91506001905083614665565b9150806111f781614751565b915050610ee0565b50806007819055506112533083878780806020026020016040519081016040528093929190818152602001838360200280828437600092018290525060408051602081019091529081529250611cd4915050565b6112a661125e611cc5565b84878780806020026020016040519081016040528093929190818152602001838360200280828437600092018290525060408051602081019091529081529250611cd4915050565b6112ae611cc5565b6001600160a01b03167fe309c6cae6e35dcc6c2f37d5da32b19e0346074be56b9722cdf852d20fced6ee848b8b868c8c8c8c6040516112f4989796959493929190613b5b565b60405180910390a250509695505050505050565b6113347f65d7a28e3265b37a6474929f336521b332c1681b933f6cb9f3376673440d862a6104b3611cc5565b6113505760405162461bcd60e51b81526004016105b7906142c4565b6113586120a5565b565b6060815183511461137d5760405162461bcd60e51b81526004016105b7906143db565b6000835167ffffffffffffffff8111156113a757634e487b7160e01b600052604160045260246000fd5b6040519080825280602002602001820160405280156113d0578160200160208202803683370190505b50905060005b84518110156114725761143785828151811061140257634e487b7160e01b600052603260045260246000fd5b602002602001015185838151811061142a57634e487b7160e01b600052603260045260246000fd5b602002602001015161058f565b82828151811061145757634e487b7160e01b600052603260045260246000fd5b602090810291909101015261146b81614751565b90506113d6565b509392505050565b60055461010090046001600160a01b0390811691161490565b60055460ff165b90565b6114a5611cc5565b6001600160a01b0316836001600160a01b031614806114cb57506114cb83610564611cc5565b6114e75760405162461bcd60e51b81526004016105b790613f20565b610d29838383612113565b61151e7f9f2df0fed2c77648de5860a4cc508cd0818c85b8b8a1ab4ceeef8d981c8956a66104b3611cc5565b61153a5760405162461bcd60e51b81526004016105b79061416b565b610993848484846122b9565b60075481565b6115787f65d7a28e3265b37a6474929f336521b332c1681b933f6cb9f3376673440d862a6104b3611cc5565b6115945760405162461bcd60e51b81526004016105b790614321565b6113586123aa565b600660009054906101000a90046001600160a01b03166001600160a01b0316639d2f83f06040518163ffffffff1660e01b815260040160206040518083038186803b1580156115ea57600080fd5b505afa1580156115fe573d6000803e3d6000fd5b505050506040513d601f19601f820116820180604052508101906116229190613717565b1561163f5760405162461bcd60e51b81526004016105b790614225565b600061164f8c8c8c8c8c8c610d50565b90506000868686868660405160200161166c959493929190613c5b565b60405160208183030381529060405290506116c5611688611cc5565b8f848c8c80806020026020016040519081016040528093929190818152602001838360200280828437600092019190915250889250610ca9915050565b5050505050505050505050505050565b60008281526001602052604081206116ed9083612405565b9392505050565b6000918252602082815260408084206001600160a01b0393909316845291905290205460ff1690565b60065460408051634a32c6bf60e11b815290516001600160a01b03909216916391d148549183916394658d7e91600480820192602092909190829003018186803b15801561176a57600080fd5b505afa15801561177e573d6000803e3d6000fd5b505050506040513d601f19601f820116820180604052508101906117a2919061374b565b6117aa611cc5565b6040518363ffffffff1660e01b81526004016117c7929190613c44565b60206040518083038186803b1580156117df57600080fd5b505afa1580156117f3573d6000803e3d6000fd5b505050506040513d601f19601f820116820180604052508101906118179190613717565b6118335760405162461bcd60e51b81526004016105b790613e66565b610d2960098383612f86565b600081565b816001600160a01b0316611856611cc5565b6001600160a01b0316141561187d5760405162461bcd60e51b81526004016105b79061437e565b806003600061188a611cc5565b6001600160a01b03908116825260208083019390935260409182016000908120918716808252919093529120805460ff1916921515929092179091556118ce611cc5565b6001600160a01b03167f17307eab39ab6107e8899845ad3d59bd9653f200f220920489ca2b5937696c31836040516119069190613c30565b60405180910390a35050565b6009805461191f90614716565b80601f016020809104026020016040519081016040528092919081815260200182805461194b90614716565b80156119985780601f1061196d57610100808354040283529160200191611998565b820191906000526020600020905b81548152906001019060200180831161197b57829003601f168201915b505050505081565b60085481565b600b60205260009081526040902080546001820180546001600160a01b0390921692916119d290614716565b80601f01602080910402602001604051908101604052809291908181526020018280546119fe90614716565b8015611a4b5780601f10611a2057610100808354040283529160200191611a4b565b820191906000526020600020905b815481529060010190602001808311611a2e57829003601f168201915b5050505050908060020154905083565b60008181526001602052604081206105f690612411565b7f9f2df0fed2c77648de5860a4cc508cd0818c85b8b8a1ab4ceeef8d981c8956a681565b610d38828261241c565b7f65d7a28e3265b37a6474929f336521b332c1681b933f6cb9f3376673440d862a81565b606060098054611ad390614716565b80601f0160208091040260200160405190810160405280929190818152602001828054611aff90614716565b8015611b4c5780601f10611b2157610100808354040283529160200191611b4c565b820191906000526020600020905b815481529060010190602001808311611b2f57829003601f168201915b5050505050905090565b6001600160a01b03918216600090815260036020908152604080832093909416825291909152205460ff1690565b611b8c611cc5565b6001600160a01b0316856001600160a01b03161480611bb25750611bb285610564611cc5565b611bce5760405162461bcd60e51b81526004016105b790613f20565b610d00858585858561243b565b611be3611cc5565b6001600160a01b0316836001600160a01b03161480611c095750611c0983610564611cc5565b611c255760405162461bcd60e51b81526004016105b790613f20565b610d29838383612573565b6000611c3b3361147a565b15611c4f575060131936013560601c61149a565b611c57611c81565b905061149a565b611c688282612686565b5050565b60006116ed836001600160a01b03841661270b565b3390565b60006001600160e01b03198216636cdb3d1360e11b1480611cb657506001600160e01b031982166303a24d0760e21b145b806105f657506105f682612755565b6000611ccf611c30565b905090565b6001600160a01b038416611cfa5760405162461bcd60e51b81526004016105b790614495565b8151835114611d1b5760405162461bcd60e51b81526004016105b790614438565b6000611d25611cc5565b9050611d368160008787878761277a565b60005b8451811015611dee57838181518110611d6257634e487b7160e01b600052603260045260246000fd5b602002602001015160026000878481518110611d8e57634e487b7160e01b600052603260045260246000fd5b602002602001015181526020019081526020016000206000886001600160a01b03166001600160a01b031681526020019081526020016000206000828254611dd69190614665565b90915550819050611de681614751565b915050611d39565b50846001600160a01b031660006001600160a01b0316826001600160a01b03167f4a39dc06d4c0dbc64b70af90fd698a233a518aa5d07e595d983b8c0526c8f7fb8787604051611e3f929190613c02565b60405180910390a4610d008160008787878761282e565b8151835114611e775760405162461bcd60e51b81526004016105b790614438565b6001600160a01b038416611e9d5760405162461bcd60e51b81526004016105b79061406e565b6000611ea7611cc5565b9050611eb781878787878761277a565b60005b8451811015611fbc576000858281518110611ee557634e487b7160e01b600052603260045260246000fd5b602002602001015190506000858381518110611f1157634e487b7160e01b600052603260045260246000fd5b60209081029190910181015160008481526002835260408082206001600160a01b038e168352909352919091205490915081811015611f625760405162461bcd60e51b81526004016105b7906141c8565b60008381526002602090815260408083206001600160a01b038e8116855292528083208585039055908b16825281208054849290611fa1908490614665565b9250508190555050505080611fb590614751565b9050611eba565b50846001600160a01b0316866001600160a01b0316826001600160a01b03167f4a39dc06d4c0dbc64b70af90fd698a233a518aa5d07e595d983b8c0526c8f7fb878760405161200c929190613c02565b60405180910390a461202281878787878761282e565b505050505050565b61203382610a5f565b6120448161203f611cc5565b61293c565b610d298383612686565b612056611cc5565b6001600160a01b0316816001600160a01b0316146120865760405162461bcd60e51b81526004016105b790614533565b611c6882826129a0565b60006116ed836001600160a01b038416612a23565b6120ad611493565b6120c95760405162461bcd60e51b81526004016105b790613d8e565b6005805460ff191690557f5db9ee0a495bf2e6ff9c91a7834c1ba4fdd244a5e8aa4e537bd38aeae4b073aa6120fc611cc5565b60405161210991906139ea565b60405180910390a1565b6001600160a01b0383166121395760405162461bcd60e51b81526004016105b790614128565b805182511461215a5760405162461bcd60e51b81526004016105b790614438565b6000612164611cc5565b90506121848185600086866040518060200160405280600081525061277a565b60005b83518110156122685760008482815181106121b257634e487b7160e01b600052603260045260246000fd5b6020026020010151905060008483815181106121de57634e487b7160e01b600052603260045260246000fd5b60209081029190910181015160008481526002835260408082206001600160a01b038c16835290935291909120549091508181101561222f5760405162461bcd60e51b81526004016105b790613e22565b60009283526002602090815260408085206001600160a01b038b168652909152909220910390558061226081614751565b915050612187565b5060006001600160a01b0316846001600160a01b0316826001600160a01b03167f4a39dc06d4c0dbc64b70af90fd698a233a518aa5d07e595d983b8c0526c8f7fb8686604051610c9b929190613c02565b6001600160a01b0384166122df5760405162461bcd60e51b81526004016105b790614495565b60006122e9611cc5565b905061230a816000876122fb88612b40565b61230488612b40565b8761277a565b60008481526002602090815260408083206001600160a01b03891684529091528120805485929061233c908490614665565b92505081905550846001600160a01b031660006001600160a01b0316826001600160a01b03167fc3d58168c5ae7397731d063d5bbf3d657854427343f4c083240f7aacaa2d0f628787604051612393929190614590565b60405180910390a4610d0081600087878787612b99565b6123b2611493565b156123cf5760405162461bcd60e51b81526004016105b790613fda565b6005805460ff191660011790557f62e78cea01bee320cd4e420270b5ea74000d11b0c9f74754ebdbfc544b05a2586120fc611cc5565b60006116ed8383612c6a565b60006105f682612ca2565b61242582610a5f565b6124318161203f611cc5565b610d2983836129a0565b6001600160a01b0384166124615760405162461bcd60e51b81526004016105b79061406e565b600061246b611cc5565b905061247c8187876122fb88612b40565b60008481526002602090815260408083206001600160a01b038a168452909152902054838110156124bf5760405162461bcd60e51b81526004016105b7906141c8565b60008581526002602090815260408083206001600160a01b038b81168552925280832087850390559088168252812080548692906124fe908490614665565b92505081905550856001600160a01b0316876001600160a01b0316836001600160a01b03167fc3d58168c5ae7397731d063d5bbf3d657854427343f4c083240f7aacaa2d0f628888604051612554929190614590565b60405180910390a461256a828888888888612b99565b50505050505050565b6001600160a01b0383166125995760405162461bcd60e51b81526004016105b790614128565b60006125a3611cc5565b90506125d3818560006125b587612b40565b6125be87612b40565b6040518060200160405280600081525061277a565b60008381526002602090815260408083206001600160a01b0388168452909152902054828110156126165760405162461bcd60e51b81526004016105b790613e22565b60008481526002602090815260408083206001600160a01b03808a16808652919093528184208786039055905190918516907fc3d58168c5ae7397731d063d5bbf3d657854427343f4c083240f7aacaa2d0f62906126779089908990614590565b60405180910390a45050505050565b61269082826116f4565b611c68576000828152602081815260408083206001600160a01b03851684529091529020805460ff191660011790556126c7611cc5565b6001600160a01b0316816001600160a01b0316837f2f8788117e7eff1d82e926ec794901d17c78024a50270940304540a733656f0d60405160405180910390a45050565b60006127178383612ca6565b61274d575081546001818101845560008481526020808220909301849055845484825282860190935260409020919091556105e5565b5060006105e5565b60006001600160e01b03198216635a05180f60e01b14806105f657506105f682612cbe565b612788868686868686612ce3565b6001600160a01b0384166120225760005b835181101561256a578281815181106127c257634e487b7160e01b600052603260045260246000fd5b6020026020010151600a60008684815181106127ee57634e487b7160e01b600052603260045260246000fd5b60200260200101518152602001908152602001600020600201600082825461281691906146bc565b9091555081905061282681614751565b915050612799565b612840846001600160a01b0316612cf1565b156120225760405163bc197c8160e01b81526001600160a01b0385169063bc197c819061287990899089908890889088906004016139fe565b602060405180830381600087803b15801561289357600080fd5b505af19250505080156128c3575060408051601f3d908101601f191682019092526128c0918101906137c2565b60015b61290c576128cf61479e565b806128da57506128f4565b8060405162461bcd60e51b81526004016105b79190613c8c565b60405162461bcd60e51b81526004016105b790613c9f565b6001600160e01b0319811663bc197c8160e01b1461256a5760405162461bcd60e51b81526004016105b790613d31565b61294682826116f4565b611c685761295e816001600160a01b03166014612cf7565b612969836020612cf7565b60405160200161297a929190613969565b60408051601f198184030181529082905262461bcd60e51b82526105b791600401613c8c565b6129aa82826116f4565b15611c68576000828152602081815260408083206001600160a01b03851684529091529020805460ff191690556129df611cc5565b6001600160a01b0316816001600160a01b0316837ff6391f5c32d9c69d2a47ea670b442974b53935d1edc7fd64eb21e047a839171b60405160405180910390a45050565b60008181526001830160205260408120548015612b36576000612a476001836146bc565b8554909150600090612a5b906001906146bc565b9050818114612adc576000866000018281548110612a8957634e487b7160e01b600052603260045260246000fd5b9060005260206000200154905080876000018481548110612aba57634e487b7160e01b600052603260045260246000fd5b6000918252602080832090910192909255918252600188019052604090208390555b8554869080612afb57634e487b7160e01b600052603160045260246000fd5b6001900381819060005260206000200160009055905585600101600086815260200190815260200160002060009055600193505050506105e5565b60009150506105e5565b60408051600180825281830190925260609160009190602080830190803683370190505090508281600081518110612b8857634e487b7160e01b600052603260045260246000fd5b602090810291909101015292915050565b612bab846001600160a01b0316612cf1565b156120225760405163f23a6e6160e01b81526001600160a01b0385169063f23a6e6190612be49089908990889088908890600401613a5c565b602060405180830381600087803b158015612bfe57600080fd5b505af1925050508015612c2e575060408051601f3d908101601f19168201909252612c2b918101906137c2565b60015b612c3a576128cf61479e565b6001600160e01b0319811663f23a6e6160e01b1461256a5760405162461bcd60e51b81526004016105b790613d31565b6000826000018281548110612c8f57634e487b7160e01b600052603260045260246000fd5b9060005260206000200154905092915050565b5490565b60009081526001919091016020526040902054151590565b60006001600160e01b03198216637965db0b60e01b14806105f657506105f682612eb6565b612022868686868686612ecf565b3b151590565b60606000612d0683600261469d565b612d11906002614665565b67ffffffffffffffff811115612d3757634e487b7160e01b600052604160045260246000fd5b6040519080825280601f01601f191660200182016040528015612d61576020820181803683370190505b509050600360fc1b81600081518110612d8a57634e487b7160e01b600052603260045260246000fd5b60200101906001600160f81b031916908160001a905350600f60fb1b81600181518110612dc757634e487b7160e01b600052603260045260246000fd5b60200101906001600160f81b031916908160001a9053506000612deb84600261469d565b612df6906001614665565b90505b6001811115612e97577f303132333435363738396162636465660000000000000000000000000000000085600f1660108110612e4557634e487b7160e01b600052603260045260246000fd5b1a60f81b828281518110612e6957634e487b7160e01b600052603260045260246000fd5b60200101906001600160f81b031916908160001a90535060049490941c93612e90816146ff565b9050612df9565b5083156116ed5760405162461bcd60e51b81526004016105b790613cfc565b6001600160e01b031981166301ffc9a760e01b14919050565b612edd868686868686612022565b612ee5611493565b156120225760405162461bcd60e51b81526004016105b790613ec3565b828054612f0e90614716565b90600052602060002090601f016020900481019282612f305760008555612f76565b82601f10612f4957805160ff1916838001178555612f76565b82800160010185558215612f76579182015b82811115612f76578251825591602001919060010190612f5b565b50612f82929150612ffa565b5090565b828054612f9290614716565b90600052602060002090601f016020900481019282612fb45760008555612f76565b82601f10612fcd5782800160ff19823516178555612f76565b82800160010185558215612f76579182015b82811115612f76578235825591602001919060010190612fdf565b5b80821115612f825760008155600101612ffb565b80356001600160a01b03811681146105f957600080fd5b60008083601f840112613037578182fd5b50813567ffffffffffffffff81111561304e578182fd5b602083019150836020808302850101111561306857600080fd5b9250929050565b600082601f83011261307f578081fd5b8135602061309461308f8361460d565b6145e3565b82815281810190858301838502870184018810156130b0578586fd5b855b858110156130ce578135845292840192908401906001016130b2565b5090979650505050505050565b600082601f8301126130eb578081fd5b813567ffffffffffffffff81111561310557613105614782565b613118601f8201601f19166020016145e3565b81815284602083860101111561312c578283fd5b816020850160208301379081016020019190915292915050565b60008083601f840112613157578182fd5b50813567ffffffffffffffff81111561316e578182fd5b60208301915083602082850101111561306857600080fd5b600060208284031215613197578081fd5b6116ed8261300f565b600080604083850312156131b2578081fd5b6131bb8361300f565b9150610b2c6020840161300f565b600080600080600060a086880312156131e0578081fd5b6131e98661300f565b94506131f76020870161300f565b9350604086013567ffffffffffffffff80821115613213578283fd5b61321f89838a0161306f565b94506060880135915080821115613234578283fd5b61324089838a0161306f565b93506080880135915080821115613255578283fd5b50613262888289016130db565b9150509295509295909350565b600080600080600060a08688031215613286578081fd5b61328f8661300f565b945061329d6020870161300f565b93506040860135925060608601359150608086013567ffffffffffffffff8111156132c6578182fd5b613262888289016130db565b6000806000806000806000806000806000806101008d8f0312156132f4578687fd5b6132fd8d61300f565b9b5067ffffffffffffffff60208e01351115613317578687fd5b6133278e60208f01358f01613026565b909b50995067ffffffffffffffff60408e01351115613344578687fd5b6133548e60408f01358f01613026565b909950975067ffffffffffffffff60608e01351115613371578687fd5b6133818e60608f01358f01613026565b909750955067ffffffffffffffff60808e0135111561339e578485fd5b6133ae8e60808f01358f01613146565b9c9f9b9e50999c989b979a9699959895979660a08701359660c0810135965060e00135945092505050565b6000806000606084860312156133ed578081fd5b6133f68461300f565b9250602084013567ffffffffffffffff80821115613412578283fd5b61341e8783880161306f565b93506040860135915080821115613433578283fd5b506134408682870161306f565b9150509250925092565b6000806000806080858703121561345f578182fd5b6134688561300f565b9350602085013567ffffffffffffffff80821115613484578384fd5b6134908883890161306f565b945060408701359150808211156134a5578384fd5b6134b18883890161306f565b935060608701359150808211156134c6578283fd5b506134d3878288016130db565b91505092959194509250565b600080604083850312156134f1578182fd5b6134fa8361300f565b9150602083013561350a81614843565b809150509250929050565b60008060408385031215613527578182fd5b6135308361300f565b946020939093013593505050565b600080600060608486031215613552578081fd5b61355b8461300f565b95602085013595506040909401359392505050565b60008060008060808587031215613585578182fd5b61358e8561300f565b93506020850135925060408501359150606085013567ffffffffffffffff8111156135b7578182fd5b6134d3878288016130db565b600080604083850312156135d5578182fd5b823567ffffffffffffffff808211156135ec578384fd5b818501915085601f8301126135ff578384fd5b8135602061360f61308f8361460d565b82815281810190858301838502870184018b101561362b578889fd5b8896505b84871015613654576136408161300f565b83526001969096019591830191830161362f565b509650508601359250508082111561366a578283fd5b506136778582860161306f565b9150509250929050565b60008060008060008060608789031215613699578384fd5b863567ffffffffffffffff808211156136b0578586fd5b6136bc8a838b01613026565b909850965060208901359150808211156136d4578586fd5b6136e08a838b01613026565b909650945060408901359150808211156136f8578384fd5b5061370589828a01613026565b979a9699509497509295939492505050565b600060208284031215613728578081fd5b81516116ed81614843565b600060208284031215613744578081fd5b5035919050565b60006020828403121561375c578081fd5b5051919050565b60008060408385031215613775578182fd5b82359150610b2c6020840161300f565b60008060408385031215613797578182fd5b50508035926020909101359150565b6000602082840312156137b7578081fd5b81356116ed81614854565b6000602082840312156137d3578081fd5b81516116ed81614854565b600080602083850312156137f0578182fd5b823567ffffffffffffffff811115613806578283fd5b61381285828601613146565b90969095509350505050565b60006020828403121561382f578081fd5b81516fffffffffffffffffffffffffffffffff811681146116ed578182fd5b818352602080840193600091908185020181018584845b878110156138cc5782840389528135601e19883603018112613885578687fd5b8701803567ffffffffffffffff81111561389d578788fd5b8036038913156138ab578788fd5b6138b8868289850161393f565b9a87019a9550505090840190600101613865565b5091979650505050505050565b6000815180845260208085019450808401835b83811015613908578151875295820195908201906001016138ec565b509495945050505050565b6000815180845261392b8160208601602086016146d3565b601f01601f19169290920160200192915050565b60008284528282602086013780602084860101526020601f19601f85011685010190509392505050565b60007f416363657373436f6e74726f6c3a206163636f756e7420000000000000000000825283516139a18160178501602088016146d3565b7f206973206d697373696e6720726f6c652000000000000000000000000000000060179184019182015283516139de8160288401602088016146d3565b01602801949350505050565b6001600160a01b0391909116815260200190565b60006001600160a01b03808816835280871660208401525060a06040830152613a2a60a08301866138d9565b8281036060840152613a3c81866138d9565b90508281036080840152613a508185613913565b98975050505050505050565b60006001600160a01b03808816835280871660208401525084604083015283606083015260a06080830152613a9460a0830184613913565b979650505050505050565b60006001600160a01b038516825260606020830152613ac16060830185613913565b9050826040830152949350505050565b60006001600160a01b038716825260a06020830152613af360a0830187613913565b905084604083015283606083015260048310613b1f57634e487b7160e01b600052602160045260246000fd5b8260808301529695505050505050565b6001600160a01b03929092168252602082015260400190565b6000602082526116ed60208301846138d9565b600060a08252613b6e60a083018b6138d9565b8281036020840152613b81818a8c61384e565b90508281036040840152613b9581896138d9565b90508281036060840152613baa81878961384e565b905082810360808401528381527f07ffffffffffffffffffffffffffffffffffffffffffffffffffffffffffffff841115613be3578182fd5b6020840280866020840137016020019081529998505050505050505050565b600060408252613c1560408301856138d9565b8281036020840152613c2781856138d9565b95945050505050565b901515815260200190565b90815260200190565b9182526001600160a01b0316602082015260400190565b600060808252613c6f60808301878961393f565b602083019590955250604081019290925260609091015292915050565b6000602082526116ed6020830184613913565b60208082526034908201527f455243313135353a207472616e7366657220746f206e6f6e204552433131353560408201527f526563656976657220696d706c656d656e746572000000000000000000000000606082015260800190565b6020808252818101527f537472696e67733a20686578206c656e67746820696e73756666696369656e74604082015260600190565b60208082526028908201527f455243313135353a204552433131353552656365697665722072656a6563746560408201527f6420746f6b656e73000000000000000000000000000000000000000000000000606082015260800190565b60208082526014908201527f5061757361626c653a206e6f7420706175736564000000000000000000000000604082015260600190565b6020808252602b908201527f455243313135353a2062616c616e636520717565727920666f7220746865207a60408201527f65726f2061646472657373000000000000000000000000000000000000000000606082015260800190565b60208082526024908201527f455243313135353a206275726e20616d6f756e7420657863656564732062616c604082015263616e636560e01b606082015260800190565b60208082526038908201527f4163636573734e46543a206f6e6c7920612070726f746f636f6c2061646d696e60408201527f2063616e2063616c6c20746869732066756e6374696f6e2e0000000000000000606082015260800190565b6020808252602c908201527f455243313135355061757361626c653a20746f6b656e207472616e736665722060408201527f7768696c65207061757365640000000000000000000000000000000000000000606082015260800190565b60208082526029908201527f455243313135353a2063616c6c6572206973206e6f74206f776e6572206e6f7260408201527f20617070726f7665640000000000000000000000000000000000000000000000606082015260800190565b6020808252602e908201527f4163636573734e46543a2043616e6e6f742072656465656d206d6f7265204e4660408201527f5473207468616e206f776e65642e000000000000000000000000000000000000606082015260800190565b60208082526010908201527f5061757361626c653a2070617573656400000000000000000000000000000000604082015260600190565b60208082526028908201527f4163636573734e46543a204d75737420637265617465206174206c656173742060408201527f6f6e65204e46542e000000000000000000000000000000000000000000000000606082015260800190565b60208082526025908201527f455243313135353a207472616e7366657220746f20746865207a65726f20616460408201527f6472657373000000000000000000000000000000000000000000000000000000606082015260800190565b60208082526032908201527f455243313135353a207472616e736665722063616c6c6572206973206e6f742060408201527f6f776e6572206e6f7220617070726f7665640000000000000000000000000000606082015260800190565b60208082526023908201527f455243313135353a206275726e2066726f6d20746865207a65726f206164647260408201526265737360e81b606082015260800190565b60208082526038908201527f455243313135355072657365744d696e7465725061757365723a206d7573742060408201527f68617665206d696e74657220726f6c6520746f206d696e740000000000000000606082015260800190565b6020808252602a908201527f455243313135353a20696e73756666696369656e742062616c616e636520666f60408201527f72207472616e7366657200000000000000000000000000000000000000000000606082015260800190565b60208082526022908201527f4163636573734e46543a205468652070726f746f636f6c206973207061757365604082015261321760f11b606082015260800190565b60208082526036908201527f4163636573734e46543a204d757374207370656369667920657175616c206e7560408201527f6d626572206f6620636f6e6669672076616c7565732e00000000000000000000606082015260800190565b6020808252603b908201527f455243313135355072657365744d696e7465725061757365723a206d7573742060408201527f686176652070617573657220726f6c6520746f20756e70617573650000000000606082015260800190565b60208082526039908201527f455243313135355072657365744d696e7465725061757365723a206d7573742060408201527f686176652070617573657220726f6c6520746f20706175736500000000000000606082015260800190565b60208082526029908201527f455243313135353a2073657474696e6720617070726f76616c2073746174757360408201527f20666f722073656c660000000000000000000000000000000000000000000000606082015260800190565b60208082526029908201527f455243313135353a206163636f756e747320616e6420696473206c656e67746860408201527f206d69736d617463680000000000000000000000000000000000000000000000606082015260800190565b60208082526028908201527f455243313135353a2069647320616e6420616d6f756e7473206c656e6774682060408201527f6d69736d61746368000000000000000000000000000000000000000000000000606082015260800190565b60208082526021908201527f455243313135353a206d696e7420746f20746865207a65726f206164647265736040820152607360f81b606082015260800190565b60208082526029908201527f4e46543a204270732070726f7669646564206d757374206265206c657373207460408201527f68616e20392c3030300000000000000000000000000000000000000000000000606082015260800190565b6020808252602f908201527f416363657373436f6e74726f6c3a2063616e206f6e6c792072656e6f756e636560408201527f20726f6c657320666f722073656c660000000000000000000000000000000000606082015260800190565b918252602082015260400190565b6000808335601e198436030181126145b4578283fd5b83018035915067ffffffffffffffff8211156145ce578283fd5b60200191503681900382131561306857600080fd5b60405181810167ffffffffffffffff8111828210171561460557614605614782565b604052919050565b600067ffffffffffffffff82111561462757614627614782565b5060209081020190565b60006fffffffffffffffffffffffffffffffff80831681851680830382111561465c5761465c61476c565b01949350505050565b600082198211156146785761467861476c565b500190565b60008261469857634e487b7160e01b81526012600452602481fd5b500490565b60008160001904831182151516156146b7576146b761476c565b500290565b6000828210156146ce576146ce61476c565b500390565b60005b838110156146ee5781810151838201526020016146d6565b838111156109935750506000910152565b60008161470e5761470e61476c565b506000190190565b60028104600182168061472a57607f821691505b6020821081141561474b57634e487b7160e01b600052602260045260246000fd5b50919050565b60006000198214156147655761476561476c565b5060010190565b634e487b7160e01b600052601160045260246000fd5b634e487b7160e01b600052604160045260246000fd5b60e01c90565b600060443d10156147ae5761149a565b600481823e6308c379a06147c28251614798565b146147cc5761149a565b6040513d600319016004823e80513d67ffffffffffffffff81602484011181841117156147fc575050505061149a565b82840192508251915080821115614816575050505061149a565b503d8301602082840101111561482e5750505061149a565b601f01601f1916810160200160405291505090565b801515811461485157600080fd5b50565b6001600160e01b03198116811461485157600080fdfea164736f6c6343000800000a",
  "linkReferences": {},
  "deployedLinkReferences": {}
}