{
  "_format": "hh-sol-artifact-1",
  "contractName": "AccessNFT",
  "sourceName": "contracts/AccessNFT.sol",
  "abi": [
    {
      "inputs": [
        {
          "internalType": "address payable",
          "name": "_controlCenter",
          "type": "address"
        },
        {
          "internalType": "address",
          "name": "_trustedForwarder",
          "type": "address"
        },
        {
          "internalType": "string",
          "name": "_uri",
          "type": "string"
        }
      ],
      "stateMutability": "nonpayable",
      "type": "constructor"
    },
    {
      "anonymous": false,
      "inputs": [
        {
          "indexed": true,
          "internalType": "address",
          "name": "redeemer",
          "type": "address"
        },
        {
          "indexed": true,
          "internalType": "uint256",
          "name": "nftTokenId",
          "type": "uint256"
        },
        {
          "indexed": true,
          "internalType": "uint256",
          "name": "accessNftId",
          "type": "uint256"
        },
        {
          "indexed": false,
          "internalType": "uint256",
          "name": "amount",
          "type": "uint256"
        }
      ],
      "name": "AccessNFTRedeemed",
      "type": "event"
    },
    {
      "anonymous": false,
      "inputs": [
        {
          "indexed": true,
          "internalType": "address",
          "name": "creator",
          "type": "address"
        },
        {
          "indexed": false,
          "internalType": "uint256[]",
          "name": "nftIds",
          "type": "uint256[]"
        },
        {
          "indexed": false,
          "internalType": "string[]",
          "name": "nftURIs",
          "type": "string[]"
        },
        {
          "indexed": false,
          "internalType": "uint256[]",
          "name": "acessNftIds",
          "type": "uint256[]"
        },
        {
          "indexed": false,
          "internalType": "string[]",
          "name": "accessNftURIs",
          "type": "string[]"
        },
        {
          "indexed": false,
          "internalType": "uint256[]",
          "name": "nftSupplies",
          "type": "uint256[]"
        }
      ],
      "name": "AccessNFTsCreated",
      "type": "event"
    },
    {
      "anonymous": false,
      "inputs": [
        {
          "indexed": true,
          "internalType": "address",
          "name": "account",
          "type": "address"
        },
        {
          "indexed": true,
          "internalType": "address",
          "name": "operator",
          "type": "address"
        },
        {
          "indexed": false,
          "internalType": "bool",
          "name": "approved",
          "type": "bool"
        }
      ],
      "name": "ApprovalForAll",
      "type": "event"
    },
    {
      "anonymous": false,
      "inputs": [
        {
          "indexed": false,
          "internalType": "address",
          "name": "account",
          "type": "address"
        }
      ],
      "name": "Paused",
      "type": "event"
    },
    {
      "anonymous": false,
      "inputs": [
        {
          "indexed": true,
          "internalType": "bytes32",
          "name": "role",
          "type": "bytes32"
        },
        {
          "indexed": true,
          "internalType": "bytes32",
          "name": "previousAdminRole",
          "type": "bytes32"
        },
        {
          "indexed": true,
          "internalType": "bytes32",
          "name": "newAdminRole",
          "type": "bytes32"
        }
      ],
      "name": "RoleAdminChanged",
      "type": "event"
    },
    {
      "anonymous": false,
      "inputs": [
        {
          "indexed": true,
          "internalType": "bytes32",
          "name": "role",
          "type": "bytes32"
        },
        {
          "indexed": true,
          "internalType": "address",
          "name": "account",
          "type": "address"
        },
        {
          "indexed": true,
          "internalType": "address",
          "name": "sender",
          "type": "address"
        }
      ],
      "name": "RoleGranted",
      "type": "event"
    },
    {
      "anonymous": false,
      "inputs": [
        {
          "indexed": true,
          "internalType": "bytes32",
          "name": "role",
          "type": "bytes32"
        },
        {
          "indexed": true,
          "internalType": "address",
          "name": "account",
          "type": "address"
        },
        {
          "indexed": true,
          "internalType": "address",
          "name": "sender",
          "type": "address"
        }
      ],
      "name": "RoleRevoked",
      "type": "event"
    },
    {
      "anonymous": false,
      "inputs": [
        {
          "indexed": false,
          "internalType": "uint256",
          "name": "royaltyBps",
          "type": "uint256"
        }
      ],
      "name": "RoyaltyUpdated",
      "type": "event"
    },
    {
      "anonymous": false,
      "inputs": [
        {
          "indexed": true,
          "internalType": "address",
          "name": "operator",
          "type": "address"
        },
        {
          "indexed": true,
          "internalType": "address",
          "name": "from",
          "type": "address"
        },
        {
          "indexed": true,
          "internalType": "address",
          "name": "to",
          "type": "address"
        },
        {
          "indexed": false,
          "internalType": "uint256[]",
          "name": "ids",
          "type": "uint256[]"
        },
        {
          "indexed": false,
          "internalType": "uint256[]",
          "name": "values",
          "type": "uint256[]"
        }
      ],
      "name": "TransferBatch",
      "type": "event"
    },
    {
      "anonymous": false,
      "inputs": [
        {
          "indexed": true,
          "internalType": "address",
          "name": "operator",
          "type": "address"
        },
        {
          "indexed": true,
          "internalType": "address",
          "name": "from",
          "type": "address"
        },
        {
          "indexed": true,
          "internalType": "address",
          "name": "to",
          "type": "address"
        },
        {
          "indexed": false,
          "internalType": "uint256",
          "name": "id",
          "type": "uint256"
        },
        {
          "indexed": false,
          "internalType": "uint256",
          "name": "value",
          "type": "uint256"
        }
      ],
      "name": "TransferSingle",
      "type": "event"
    },
    {
      "anonymous": false,
      "inputs": [
        {
          "indexed": false,
          "internalType": "string",
          "name": "value",
          "type": "string"
        },
        {
          "indexed": true,
          "internalType": "uint256",
          "name": "id",
          "type": "uint256"
        }
      ],
      "name": "URI",
      "type": "event"
    },
    {
      "anonymous": false,
      "inputs": [
        {
          "indexed": false,
          "internalType": "address",
          "name": "account",
          "type": "address"
        }
      ],
      "name": "Unpaused",
      "type": "event"
    },
    {
      "inputs": [],
      "name": "DEFAULT_ADMIN_ROLE",
      "outputs": [
        {
          "internalType": "bytes32",
          "name": "",
          "type": "bytes32"
        }
      ],
      "stateMutability": "view",
      "type": "function"
    },
    {
      "inputs": [],
      "name": "MINTER_ROLE",
      "outputs": [
        {
          "internalType": "bytes32",
          "name": "",
          "type": "bytes32"
        }
      ],
      "stateMutability": "view",
      "type": "function"
    },
    {
      "inputs": [],
      "name": "PAUSER_ROLE",
      "outputs": [
        {
          "internalType": "bytes32",
          "name": "",
          "type": "bytes32"
        }
      ],
      "stateMutability": "view",
      "type": "function"
    },
    {
      "inputs": [],
      "name": "TRANSFER_ROLE",
      "outputs": [
        {
          "internalType": "bytes32",
          "name": "",
          "type": "bytes32"
        }
      ],
      "stateMutability": "view",
      "type": "function"
    },
    {
      "inputs": [],
      "name": "_contractURI",
      "outputs": [
        {
          "internalType": "string",
          "name": "",
          "type": "string"
        }
      ],
      "stateMutability": "view",
      "type": "function"
    },
    {
      "inputs": [
        {
          "internalType": "address",
          "name": "account",
          "type": "address"
        },
        {
          "internalType": "uint256",
          "name": "id",
          "type": "uint256"
        }
      ],
      "name": "balanceOf",
      "outputs": [
        {
          "internalType": "uint256",
          "name": "",
          "type": "uint256"
        }
      ],
      "stateMutability": "view",
      "type": "function"
    },
    {
      "inputs": [
        {
          "internalType": "address[]",
          "name": "accounts",
          "type": "address[]"
        },
        {
          "internalType": "uint256[]",
          "name": "ids",
          "type": "uint256[]"
        }
      ],
      "name": "balanceOfBatch",
      "outputs": [
        {
          "internalType": "uint256[]",
          "name": "",
          "type": "uint256[]"
        }
      ],
      "stateMutability": "view",
      "type": "function"
    },
    {
      "inputs": [
        {
          "internalType": "address",
          "name": "account",
          "type": "address"
        },
        {
          "internalType": "uint256",
          "name": "id",
          "type": "uint256"
        },
        {
          "internalType": "uint256",
          "name": "value",
          "type": "uint256"
        }
      ],
      "name": "burn",
      "outputs": [],
      "stateMutability": "nonpayable",
      "type": "function"
    },
    {
      "inputs": [
        {
          "internalType": "address",
          "name": "account",
          "type": "address"
        },
        {
          "internalType": "uint256[]",
          "name": "ids",
          "type": "uint256[]"
        },
        {
          "internalType": "uint256[]",
          "name": "values",
          "type": "uint256[]"
        }
      ],
      "name": "burnBatch",
      "outputs": [],
      "stateMutability": "nonpayable",
      "type": "function"
    },
    {
      "inputs": [],
      "name": "contractURI",
      "outputs": [
        {
          "internalType": "string",
          "name": "",
          "type": "string"
        }
      ],
      "stateMutability": "view",
      "type": "function"
    },
    {
      "inputs": [
        {
          "internalType": "string[]",
          "name": "_nftURIs",
          "type": "string[]"
        },
        {
          "internalType": "string[]",
          "name": "_accessNftURIs",
          "type": "string[]"
        },
        {
          "internalType": "uint256[]",
          "name": "_nftSupplies",
          "type": "uint256[]"
        }
      ],
      "name": "createAccessNfts",
      "outputs": [
        {
          "internalType": "uint256[]",
          "name": "nftIds",
          "type": "uint256[]"
        }
      ],
      "stateMutability": "nonpayable",
      "type": "function"
    },
    {
      "inputs": [
        {
          "internalType": "address",
          "name": "_pack",
          "type": "address"
        },
        {
          "internalType": "string[]",
          "name": "_nftURIs",
          "type": "string[]"
        },
        {
          "internalType": "string[]",
          "name": "_accessNftURIs",
          "type": "string[]"
        },
        {
          "internalType": "uint256[]",
          "name": "_nftSupplies",
          "type": "uint256[]"
        },
        {
          "internalType": "string",
          "name": "_packURI",
          "type": "string"
        },
        {
          "internalType": "uint256",
          "name": "_secondsUntilOpenStart",
          "type": "uint256"
        },
        {
          "internalType": "uint256",
          "name": "_secondsUntilOpenEnd",
          "type": "uint256"
        },
        {
          "internalType": "uint256",
          "name": "_nftsPerOpen",
          "type": "uint256"
        }
      ],
      "name": "createAccessPack",
      "outputs": [],
      "stateMutability": "nonpayable",
      "type": "function"
    },
    {
      "inputs": [
        {
          "internalType": "bytes32",
          "name": "role",
          "type": "bytes32"
        }
      ],
      "name": "getRoleAdmin",
      "outputs": [
        {
          "internalType": "bytes32",
          "name": "",
          "type": "bytes32"
        }
      ],
      "stateMutability": "view",
      "type": "function"
    },
    {
      "inputs": [
        {
          "internalType": "bytes32",
          "name": "role",
          "type": "bytes32"
        },
        {
          "internalType": "uint256",
          "name": "index",
          "type": "uint256"
        }
      ],
      "name": "getRoleMember",
      "outputs": [
        {
          "internalType": "address",
          "name": "",
          "type": "address"
        }
      ],
      "stateMutability": "view",
      "type": "function"
    },
    {
      "inputs": [
        {
          "internalType": "bytes32",
          "name": "role",
          "type": "bytes32"
        }
      ],
      "name": "getRoleMemberCount",
      "outputs": [
        {
          "internalType": "uint256",
          "name": "",
          "type": "uint256"
        }
      ],
      "stateMutability": "view",
      "type": "function"
    },
    {
      "inputs": [
        {
          "internalType": "bytes32",
          "name": "role",
          "type": "bytes32"
        },
        {
          "internalType": "address",
          "name": "account",
          "type": "address"
        }
      ],
      "name": "grantRole",
      "outputs": [],
      "stateMutability": "nonpayable",
      "type": "function"
    },
    {
      "inputs": [
        {
          "internalType": "bytes32",
          "name": "role",
          "type": "bytes32"
        },
        {
          "internalType": "address",
          "name": "account",
          "type": "address"
        }
      ],
      "name": "hasRole",
      "outputs": [
        {
          "internalType": "bool",
          "name": "",
          "type": "bool"
        }
      ],
      "stateMutability": "view",
      "type": "function"
    },
    {
      "inputs": [
        {
          "internalType": "address",
          "name": "account",
          "type": "address"
        },
        {
          "internalType": "address",
          "name": "operator",
          "type": "address"
        }
      ],
      "name": "isApprovedForAll",
      "outputs": [
        {
          "internalType": "bool",
          "name": "",
          "type": "bool"
        }
      ],
      "stateMutability": "view",
      "type": "function"
    },
    {
      "inputs": [
        {
          "internalType": "uint256",
          "name": "_nftId",
          "type": "uint256"
        }
      ],
      "name": "isRedeemed",
      "outputs": [
        {
          "internalType": "bool",
          "name": "",
          "type": "bool"
        }
      ],
      "stateMutability": "view",
      "type": "function"
    },
    {
      "inputs": [],
      "name": "isRestrictedTransfer",
      "outputs": [
        {
          "internalType": "bool",
          "name": "",
          "type": "bool"
        }
      ],
      "stateMutability": "view",
      "type": "function"
    },
    {
      "inputs": [
        {
          "internalType": "address",
          "name": "forwarder",
          "type": "address"
        }
      ],
      "name": "isTrustedForwarder",
      "outputs": [
        {
          "internalType": "bool",
          "name": "",
          "type": "bool"
        }
      ],
      "stateMutability": "view",
      "type": "function"
    },
    {
      "inputs": [
        {
          "internalType": "address",
          "name": "to",
          "type": "address"
        },
        {
          "internalType": "uint256",
          "name": "id",
          "type": "uint256"
        },
        {
          "internalType": "uint256",
          "name": "amount",
          "type": "uint256"
        },
        {
          "internalType": "bytes",
          "name": "data",
          "type": "bytes"
        }
      ],
      "name": "mint",
      "outputs": [],
      "stateMutability": "nonpayable",
      "type": "function"
    },
    {
      "inputs": [
        {
          "internalType": "address",
          "name": "to",
          "type": "address"
        },
        {
          "internalType": "uint256[]",
          "name": "ids",
          "type": "uint256[]"
        },
        {
          "internalType": "uint256[]",
          "name": "amounts",
          "type": "uint256[]"
        },
        {
          "internalType": "bytes",
          "name": "data",
          "type": "bytes"
        }
      ],
      "name": "mintBatch",
      "outputs": [],
      "stateMutability": "nonpayable",
      "type": "function"
    },
    {
      "inputs": [],
      "name": "nextTokenId",
      "outputs": [
        {
          "internalType": "uint256",
          "name": "",
          "type": "uint256"
        }
      ],
      "stateMutability": "view",
      "type": "function"
    },
    {
      "inputs": [
        {
          "internalType": "uint256",
          "name": "",
          "type": "uint256"
        }
      ],
      "name": "nftInfo",
      "outputs": [
        {
          "internalType": "address",
          "name": "creator",
          "type": "address"
        },
        {
          "internalType": "string",
          "name": "uri",
          "type": "string"
        },
        {
          "internalType": "uint256",
          "name": "supply",
          "type": "uint256"
        },
        {
          "internalType": "bool",
          "name": "isAccess",
          "type": "bool"
        },
        {
          "internalType": "uint256",
          "name": "accessNftId",
          "type": "uint256"
        },
        {
          "internalType": "enum AccessNFT.UnderlyingType",
          "name": "underlyingType",
          "type": "uint8"
        }
      ],
      "stateMutability": "view",
      "type": "function"
    },
    {
      "inputs": [
        {
          "internalType": "address",
          "name": "",
          "type": "address"
        },
        {
          "internalType": "address",
          "name": "",
          "type": "address"
        },
        {
          "internalType": "uint256[]",
          "name": "",
          "type": "uint256[]"
        },
        {
          "internalType": "uint256[]",
          "name": "",
          "type": "uint256[]"
        },
        {
          "internalType": "bytes",
          "name": "",
          "type": "bytes"
        }
      ],
      "name": "onERC1155BatchReceived",
      "outputs": [
        {
          "internalType": "bytes4",
          "name": "",
          "type": "bytes4"
        }
      ],
      "stateMutability": "nonpayable",
      "type": "function"
    },
    {
      "inputs": [
        {
          "internalType": "address",
          "name": "",
          "type": "address"
        },
        {
          "internalType": "address",
          "name": "",
          "type": "address"
        },
        {
          "internalType": "uint256",
          "name": "",
          "type": "uint256"
        },
        {
          "internalType": "uint256",
          "name": "",
          "type": "uint256"
        },
        {
          "internalType": "bytes",
          "name": "",
          "type": "bytes"
        }
      ],
      "name": "onERC1155Received",
      "outputs": [
        {
          "internalType": "bytes4",
          "name": "",
          "type": "bytes4"
        }
      ],
      "stateMutability": "nonpayable",
      "type": "function"
    },
    {
      "inputs": [],
      "name": "pause",
      "outputs": [],
      "stateMutability": "nonpayable",
      "type": "function"
    },
    {
      "inputs": [],
      "name": "paused",
      "outputs": [
        {
          "internalType": "bool",
          "name": "",
          "type": "bool"
        }
      ],
      "stateMutability": "view",
      "type": "function"
    },
    {
      "inputs": [
        {
          "internalType": "uint256",
          "name": "_tokenId",
          "type": "uint256"
        },
        {
          "internalType": "uint256",
          "name": "_amount",
          "type": "uint256"
        }
      ],
      "name": "redeemAccess",
      "outputs": [],
      "stateMutability": "nonpayable",
      "type": "function"
    },
    {
      "inputs": [
        {
          "internalType": "bytes32",
          "name": "role",
          "type": "bytes32"
        },
        {
          "internalType": "address",
          "name": "account",
          "type": "address"
        }
      ],
      "name": "renounceRole",
      "outputs": [],
      "stateMutability": "nonpayable",
      "type": "function"
    },
    {
      "inputs": [
        {
          "internalType": "bytes32",
          "name": "role",
          "type": "bytes32"
        },
        {
          "internalType": "address",
          "name": "account",
          "type": "address"
        }
      ],
      "name": "revokeRole",
      "outputs": [],
      "stateMutability": "nonpayable",
      "type": "function"
    },
    {
      "inputs": [],
      "name": "royaltyBps",
      "outputs": [
        {
          "internalType": "uint256",
          "name": "",
          "type": "uint256"
        }
      ],
      "stateMutability": "view",
      "type": "function"
    },
    {
      "inputs": [
        {
          "internalType": "uint256",
          "name": "tokenId",
          "type": "uint256"
        },
        {
          "internalType": "uint256",
          "name": "salePrice",
          "type": "uint256"
        }
      ],
      "name": "royaltyInfo",
      "outputs": [
        {
          "internalType": "address",
          "name": "receiver",
          "type": "address"
        },
        {
          "internalType": "uint256",
          "name": "royaltyAmount",
          "type": "uint256"
        }
      ],
      "stateMutability": "view",
      "type": "function"
    },
    {
      "inputs": [
        {
          "internalType": "address",
          "name": "from",
          "type": "address"
        },
        {
          "internalType": "address",
          "name": "to",
          "type": "address"
        },
        {
          "internalType": "uint256[]",
          "name": "ids",
          "type": "uint256[]"
        },
        {
          "internalType": "uint256[]",
          "name": "amounts",
          "type": "uint256[]"
        },
        {
          "internalType": "bytes",
          "name": "data",
          "type": "bytes"
        }
      ],
      "name": "safeBatchTransferFrom",
      "outputs": [],
      "stateMutability": "nonpayable",
      "type": "function"
    },
    {
      "inputs": [
        {
          "internalType": "address",
          "name": "from",
          "type": "address"
        },
        {
          "internalType": "address",
          "name": "to",
          "type": "address"
        },
        {
          "internalType": "uint256",
          "name": "id",
          "type": "uint256"
        },
        {
          "internalType": "uint256",
          "name": "amount",
          "type": "uint256"
        },
        {
          "internalType": "bytes",
          "name": "data",
          "type": "bytes"
        }
      ],
      "name": "safeTransferFrom",
      "outputs": [],
      "stateMutability": "nonpayable",
      "type": "function"
    },
    {
      "inputs": [
        {
          "internalType": "address",
          "name": "operator",
          "type": "address"
        },
        {
          "internalType": "bool",
          "name": "approved",
          "type": "bool"
        }
      ],
      "name": "setApprovalForAll",
      "outputs": [],
      "stateMutability": "nonpayable",
      "type": "function"
    },
    {
      "inputs": [
        {
          "internalType": "string",
          "name": "_URI",
          "type": "string"
        }
      ],
      "name": "setContractURI",
      "outputs": [],
      "stateMutability": "nonpayable",
      "type": "function"
    },
    {
      "inputs": [
        {
          "internalType": "bool",
          "name": "_restrictedTransfer",
          "type": "bool"
        }
      ],
      "name": "setRestrictedTransfer",
      "outputs": [],
      "stateMutability": "nonpayable",
      "type": "function"
    },
    {
      "inputs": [
        {
          "internalType": "uint256",
          "name": "_royaltyBps",
          "type": "uint256"
        }
      ],
      "name": "setRoyaltyBps",
      "outputs": [],
      "stateMutability": "nonpayable",
      "type": "function"
    },
    {
      "inputs": [
        {
          "internalType": "bytes4",
          "name": "interfaceId",
          "type": "bytes4"
        }
      ],
      "name": "supportsInterface",
      "outputs": [
        {
          "internalType": "bool",
          "name": "",
          "type": "bool"
        }
      ],
      "stateMutability": "pure",
      "type": "function"
    },
    {
      "inputs": [
        {
          "internalType": "uint256",
          "name": "_nftId",
          "type": "uint256"
        }
      ],
      "name": "tokenURI",
      "outputs": [
        {
          "internalType": "string",
          "name": "",
          "type": "string"
        }
      ],
      "stateMutability": "view",
      "type": "function"
    },
    {
      "inputs": [],
      "name": "unpause",
      "outputs": [],
      "stateMutability": "nonpayable",
      "type": "function"
    },
    {
      "inputs": [
        {
          "internalType": "uint256",
          "name": "_nftId",
          "type": "uint256"
        }
      ],
      "name": "uri",
      "outputs": [
        {
          "internalType": "string",
          "name": "",
          "type": "string"
        }
      ],
      "stateMutability": "view",
      "type": "function"
    }
  ],
  "bytecode": "0x60806040523480156200001157600080fd5b506040516200527d3803806200527d83398101604081905262000034916200040a565b818180620000428162000148565b506005805460ff191690556200006360006200005d62000161565b6200017e565b620000927f9f2df0fed2c77648de5860a4cc508cd0818c85b8b8a1ab4ceeef8d981c8956a66200005d62000161565b620000c17f65d7a28e3265b37a6474929f336521b332c1681b933f6cb9f3376673440d862a6200005d62000161565b5060058054610100600160a81b0319166101006001600160a01b0393841602179055600680546001600160a01b03191691851691909117905580516200010f90600990602084019062000364565b506200013f7f8502233096d909befbda0999bb8ea2f3a6be3c138b9fbf003752a4c8bce86f6c6200005d62000161565b50505062000573565b80516200015d90600490602084019062000364565b5050565b600062000178620001c160201b62001efa1760201c565b90505b90565b6200019582826200020160201b62001f281760201c565b6000828152600160209081526040909120620001bc91839062001f366200020d821b17901c565b505050565b6000620001ce336200022d565b15620001e4575060131936013560601c6200017b565b620001f96200024660201b62001f4b1760201c565b90506200017b565b6200015d82826200024a565b600062000224836001600160a01b038416620002d4565b90505b92915050565b60055461010090046001600160a01b0390811691161490565b3390565b62000256828262000323565b6200015d576000828152602081815260408083206001600160a01b03851684529091529020805460ff191660011790556200029062000161565b6001600160a01b0316816001600160a01b0316837f2f8788117e7eff1d82e926ec794901d17c78024a50270940304540a733656f0d60405160405180910390a45050565b6000620002e283836200034c565b6200031a5750815460018181018455600084815260208082209093018490558454848252828601909352604090209190915562000227565b50600062000227565b6000918252602082815260408084206001600160a01b0393909316845291905290205460ff1690565b60009081526001919091016020526040902054151590565b828054620003729062000507565b90600052602060002090601f016020900481019282620003965760008555620003e1565b82601f10620003b157805160ff1916838001178555620003e1565b82800160010185558215620003e1579182015b82811115620003e1578251825591602001919060010190620003c4565b50620003ef929150620003f3565b5090565b5b80821115620003ef5760008155600101620003f4565b6000806000606084860312156200041f578283fd5b83516200042c816200055a565b8093505060208085015162000441816200055a565b60408601519093506001600160401b03808211156200045e578384fd5b818701915087601f83011262000472578384fd5b81518181111562000487576200048762000544565b604051601f8201601f1916810185018381118282101715620004ad57620004ad62000544565b60405281815283820185018a1015620004c4578586fd5b8592505b81831015620004e75783830185015181840186015291840191620004c8565b81831115620004f857858583830101525b80955050505050509250925092565b6002810460018216806200051c57607f821691505b602082108114156200053e57634e487b7160e01b600052602260045260246000fd5b50919050565b634e487b7160e01b600052604160045260246000fd5b6001600160a01b03811681146200057057600080fd5b50565b614cfa80620005836000396000f3fe608060405234801561001057600080fd5b50600436106102f35760003560e01c806383661b2911610191578063c63adb2b116100e3578063e63ab1e911610097578063f23a6e6111610071578063f23a6e61146105e5578063f242432a146105f8578063f5298aca1461060b576102f3565b8063e63ab1e9146105c2578063e8a3d485146105ca578063e985e9c5146105d2576102f3565b8063ca15c873116100c8578063ca15c87314610594578063d5391393146105a7578063d547741f146105af576102f3565b8063c63adb2b1461058c578063c87b56dd14610341576102f3565b806391d1485411610145578063a22cb4651161011f578063a22cb46514610551578063bc197c8114610564578063c0e7274014610584576102f3565b806391d1485414610523578063938e3d7b14610536578063a217fddf14610549576102f3565b80638aa01653116101765780638aa01653146104dd5780638ba448c2146104f05780639010d07c14610503576102f3565b806383661b29146104cd5780638456cb59146104d5576102f3565b80632f2ff15d1161024a5780634e1273f4116101fe5780636b20c454116101d85780636b20c4541461049f578063731133e9146104b257806375794a3c146104c5576102f3565b80634e1273f414610471578063572b6c05146104845780635c975abb14610497576102f3565b806336568abe1161022f57806336568abe146104365780633c16b12e146104495780633f4ba83a14610469576102f3565b80632f2ff15d1461041057806332d33cd014610423576102f3565b80631f8bc790116102ac5780632a55205a116102865780632a55205a146103c95780632e14bee8146103ea5780632eb2c2d6146103fd576102f3565b80631f8bc79014610389578063206b60f9146103ae578063248a9ca3146103b6576102f3565b80630e89341c116102dd5780630e89341c146103415780631f72d831146103615780631f7fdffa14610376576102f3565b8062fdd58e146102f857806301ffc9a714610321575b600080fd5b61030b610306366004613841565b61061e565b6040516103189190613f92565b60405180910390f35b61033461032f366004613aee565b61067a565b6040516103189190613f87565b61035461034f366004613a7b565b6106ce565b6040516103189190613ff8565b61037461036f366004613a7b565b610773565b005b610374610384366004613776565b610a0f565b61039c610397366004613a7b565b610a69565b60405161031896959493929190613e1f565b61030b610b36565b61030b6103c4366004613a7b565b610b5a565b6103dc6103d7366004613acd565b610b6f565b604051610318929190613e86565b6103746103f8366004613acd565b610c30565b61037461040b3660046134f5565b610e03565b61037461041e366004613aab565b610e61565b610334610431366004613a7b565b610e88565b610374610444366004613aab565b610ea0565b61045c6104573660046139ad565b610ec2565b6040516103189190613e9f565b610374611533565b61045c61047f3660046138ef565b611585565b6103346104923660046134b2565b6116a5565b6103346116be565b6103746104ad366004613705565b6116c8565b6103746104c036600461389c565b61171d565b61030b611771565b610334611777565b610374611780565b6103746104eb3660046135fe565b6117d0565b6103746104fe366004613a43565b611909565b610516610511366004613acd565b611a32565b6040516103189190613d32565b610334610531366004613aab565b611a51565b610374610544366004613b26565b611a7a565b61030b611b9c565b61037461055f36600461380b565b611ba1565b6105776105723660046134f5565b611c6f565b6040516103189190613fb2565b610354611c80565b61030b611d0e565b61030b6105a2366004613a7b565b611d14565b61030b611d2b565b6103746105bd366004613aab565b611d4f565b61030b611d59565b610354611d7d565b6103346105e03660046134cc565b611e0f565b6105776105f336600461359b565b611e3d565b61037461060636600461359b565b611e4e565b61037461061936600461386a565b611ea5565b60006001600160a01b03831661064f5760405162461bcd60e51b815260040161064690614131565b60405180910390fd5b5060008181526002602090815260408083206001600160a01b03861684529091529020545b92915050565b60006001600160e01b03198216630271189760e51b14806106ab57506001600160e01b03198216636cdb3d1360e11b145b806106c657506001600160e01b0319821663152a902d60e11b145b90505b919050565b6000818152600b602052604090206001018054606091906106ee90614b99565b80601f016020809104026020016040519081016040528092919081815260200182805461071a90614b99565b80156107675780601f1061073c57610100808354040283529160200191610767565b820191906000526020600020905b81548152906001019060200180831161074a57829003601f168201915b50505050509050919050565b60065460408051634a32c6bf60e11b815290516001600160a01b03909216916391d148549183916394658d7e91600480820192602092909190829003018186803b1580156107c057600080fd5b505afa1580156107d4573d6000803e3d6000fd5b505050506040513d601f19601f820116820180604052508101906107f89190613a93565b610800611f4f565b6040518363ffffffff1660e01b815260040161081d929190613f9b565b60206040518083038186803b15801561083557600080fd5b505afa158015610849573d6000803e3d6000fd5b505050506040513d601f19601f8201168201806040525081019061086d9190613a5f565b6108895760405162461bcd60e51b8152600401610646906141d2565b600660009054906101000a90046001600160a01b03166001600160a01b0316635cd423156040518163ffffffff1660e01b815260040160206040518083038186803b1580156108d757600080fd5b505afa1580156108eb573d6000803e3d6000fd5b505050506040513d601f19601f8201168201806040525081019061090f9190613b66565b600660009054906101000a90046001600160a01b03166001600160a01b031663fd967f476040518163ffffffff1660e01b815260040160206040518083038186803b15801561095d57600080fd5b505afa158015610971573d6000803e3d6000fd5b505050506040513d601f19601f820116820180604052508101906109959190613b66565b61099f9190614ab4565b6fffffffffffffffffffffffffffffffff1681106109cf5760405162461bcd60e51b815260040161064690614959565b60088190556040517f244ea8d7627f5a08f4299862bd5a45752842c183aee5b0fb0d1e4887bfa605b390610a04908390613f92565b60405180910390a150565b610a3b7f9f2df0fed2c77648de5860a4cc508cd0818c85b8b8a1ab4ceeef8d981c8956a6610531611f4f565b610a575760405162461bcd60e51b815260040161064690614534565b610a6384848484611f5e565b50505050565b600b60205260009081526040902080546001820180546001600160a01b039092169291610a9590614b99565b80601f0160208091040260200160405190810160405280929190818152602001828054610ac190614b99565b8015610b0e5780601f10610ae357610100808354040283529160200191610b0e565b820191906000526020600020905b815481529060010190602001808311610af157829003601f168201915b505050506002830154600384015460048501546005909501549394919360ff91821693501686565b7f8502233096d909befbda0999bb8ea2f3a6be3c138b9fbf003752a4c8bce86f6c81565b60009081526020819052604090206001015490565b6000828152600b6020908152604080832054600654825163fd967f4760e01b815292516001600160a01b039283169594919092169263fd967f479260048083019392829003018186803b158015610bc557600080fd5b505afa158015610bd9573d6000803e3d6000fd5b505050506040513d601f19601f82011682018060405250810190610bfd9190613b66565b6fffffffffffffffffffffffffffffffff1660085484610c1d9190614b20565b610c279190614b00565b90509250929050565b600660009054906101000a90046001600160a01b03166001600160a01b0316639d2f83f06040518163ffffffff1660e01b815260040160206040518083038186803b158015610c7e57600080fd5b505afa158015610c92573d6000803e3d6000fd5b505050506040513d601f19601f82011682018060405250810190610cb69190613a5f565b15610cd35760405162461bcd60e51b81526004016106469061464b565b6000828152600b602052604090206003015460ff1615610d055760405162461bcd60e51b81526004016106469061468d565b6000610d0f611f4f565b905081610d1c828561061e565b1015610d3a5760405162461bcd60e51b8152600401610646906142e9565b610d4c610d45611f4f565b8484611ea5565b6000838152600b6020526040908190206004908101549151637921219560e11b8152309163f242432a91610d88918491879187918a9101613de7565b600060405180830381600087803b158015610da257600080fd5b505af1158015610db6573d6000803e3d6000fd5b505050508084836001600160a01b03167fa70022dc131dbd0be52c08bf87947e36b3e7d4934dce1efecf2d261c381d101786604051610df59190613f92565b60405180910390a450505050565b610e0b611f4f565b6001600160a01b0316856001600160a01b03161480610e315750610e31856105e0611f4f565b610e4d5760405162461bcd60e51b815260040161064690614437565b610e5a85858585856120e0565b5050505050565b610e6b82826122b4565b6000828152600160205260409020610e839082611f36565b505050565b6000908152600b602052604090206003015460ff1690565b610eaa82826122d8565b6000828152600160205260409020610e83908261231a565b600654604080516309d2f83f60e41b815290516060926001600160a01b031691639d2f83f0916004808301926020929190829003018186803b158015610f0757600080fd5b505afa158015610f1b573d6000803e3d6000fd5b505050506040513d601f19601f82011682018060405250810190610f3f9190613a5f565b15610f5c5760405162461bcd60e51b81526004016106469061464b565b8582148015610f6a57508584145b610f865760405162461bcd60e51b8152600401610646906146ea565b85610fa35760405162461bcd60e51b81526004016106469061437d565b8567ffffffffffffffff811115610fca57634e487b7160e01b600052604160045260246000fd5b604051908082528060200260200182016040528015610ff3578160200160208202803683370190505b50905060008667ffffffffffffffff81111561101f57634e487b7160e01b600052604160045260246000fd5b604051908082528060200260200182016040528015611048578160200160208202803683370190505b5060075490915060005b8881101561142a578183828151811061107b57634e487b7160e01b600052603260045260246000fd5b6020026020010181815250506040518060c0016040528061109a611f4f565b6001600160a01b031681526020018989848181106110c857634e487b7160e01b600052603260045260246000fd5b90506020028101906110da9190614a21565b8080601f01602080910402602001604051908101604052809392919081815260200183838082843760009201919091525050509082525060200187878481811061113457634e487b7160e01b600052603260045260246000fd5b905060200201358152602001600115158152602001600081526020016000600281111561117157634e487b7160e01b600052602160045260246000fd5b90526000838152600b602090815260409091208251815473ffffffffffffffffffffffffffffffffffffffff19166001600160a01b0390911617815582820151805191926111c79260018501929091019061322e565b506040820151600280830191909155606083015160038301805491151560ff199283161790556080840151600484015560a0840151600584018054919390929190911690600190849081111561122d57634e487b7160e01b600052602160045260246000fd5b021790555061124191506001905083614ae8565b91508184828151811061126457634e487b7160e01b600052603260045260246000fd5b6020026020010181815250506040518060c00160405280611283611f4f565b6001600160a01b031681526020018b8b848181106112b157634e487b7160e01b600052603260045260246000fd5b90506020028101906112c39190614a21565b8080601f01602080910402602001604051908101604052809392919081815260200183838082843760009201919091525050509082525060200187878481811061131d57634e487b7160e01b600052603260045260246000fd5b90506020020135815260200160001515815260200160018461133f9190614b3f565b8152602001600090526000838152600b602090815260409091208251815473ffffffffffffffffffffffffffffffffffffffff19166001600160a01b03909116178155828201518051919261139c9260018501929091019061322e565b506040820151600280830191909155606083015160038301805491151560ff199283161790556080840151600484015560a0840151600584018054919390929190911690600190849081111561140257634e487b7160e01b600052602160045260246000fd5b021790555061141691506001905083614ae8565b91508061142281614bd4565b915050611052565b508060078190555061147e3083878780806020026020016040519081016040528093929190818152602001838360200280828437600092018290525060408051602081019091529081529250610a0f915050565b6114d1611489611f4f565b84878780806020026020016040519081016040528093929190818152602001838360200280828437600092018290525060408051602081019091529081529250610a0f915050565b6114d9611f4f565b6001600160a01b03167fe309c6cae6e35dcc6c2f37d5da32b19e0346074be56b9722cdf852d20fced6ee848b8b868c8c8c8c60405161151f989796959493929190613eb2565b60405180910390a250509695505050505050565b61155f7f65d7a28e3265b37a6474929f336521b332c1681b933f6cb9f3376673440d862a610531611f4f565b61157b5760405162461bcd60e51b815260040161064690614747565b61158361232f565b565b606081518351146115a85760405162461bcd60e51b81526004016106469061485e565b6000835167ffffffffffffffff8111156115d257634e487b7160e01b600052604160045260246000fd5b6040519080825280602002602001820160405280156115fb578160200160208202803683370190505b50905060005b845181101561169d5761166285828151811061162d57634e487b7160e01b600052603260045260246000fd5b602002602001015185838151811061165557634e487b7160e01b600052603260045260246000fd5b602002602001015161061e565b82828151811061168257634e487b7160e01b600052603260045260246000fd5b602090810291909101015261169681614bd4565b9050611601565b509392505050565b60055461010090046001600160a01b0390811691161490565b60055460ff165b90565b6116d0611f4f565b6001600160a01b0316836001600160a01b031614806116f657506116f6836105e0611f4f565b6117125760405162461bcd60e51b81526004016106469061428c565b610e8383838361239d565b6117497f9f2df0fed2c77648de5860a4cc508cd0818c85b8b8a1ab4ceeef8d981c8956a6610531611f4f565b6117655760405162461bcd60e51b815260040161064690614534565b610a6384848484612543565b60075481565b600a5460ff1681565b6117ac7f65d7a28e3265b37a6474929f336521b332c1681b933f6cb9f3376673440d862a610531611f4f565b6117c85760405162461bcd60e51b8152600401610646906147a4565b611583612634565b600660009054906101000a90046001600160a01b03166001600160a01b0316639d2f83f06040518163ffffffff1660e01b815260040160206040518083038186803b15801561181e57600080fd5b505afa158015611832573d6000803e3d6000fd5b505050506040513d601f19601f820116820180604052508101906118569190613a5f565b156118735760405162461bcd60e51b81526004016106469061464b565b60006118838c8c8c8c8c8c610ec2565b9050600086868686866040516020016118a0959493929190613fc7565b60405160208183030381529060405290506118f96118bc611f4f565b8f848c8c80806020026020016040519081016040528093929190818152602001838360200280828437600092019190915250889250610e03915050565b5050505050505050505050505050565b60065460408051634a32c6bf60e11b815290516001600160a01b03909216916391d148549183916394658d7e91600480820192602092909190829003018186803b15801561195657600080fd5b505afa15801561196a573d6000803e3d6000fd5b505050506040513d601f19601f8201168201806040525081019061198e9190613a93565b611996611f4f565b6040518363ffffffff1660e01b81526004016119b3929190613f9b565b60206040518083038186803b1580156119cb57600080fd5b505afa1580156119df573d6000803e3d6000fd5b505050506040513d601f19601f82011682018060405250810190611a039190613a5f565b611a1f5760405162461bcd60e51b8152600401610646906141d2565b600a805460ff1916911515919091179055565b6000828152600160205260408120611a4a908361268f565b9392505050565b6000918252602082815260408084206001600160a01b0393909316845291905290205460ff1690565b60065460408051634a32c6bf60e11b815290516001600160a01b03909216916391d148549183916394658d7e91600480820192602092909190829003018186803b158015611ac757600080fd5b505afa158015611adb573d6000803e3d6000fd5b505050506040513d601f19601f82011682018060405250810190611aff9190613a93565b611b07611f4f565b6040518363ffffffff1660e01b8152600401611b24929190613f9b565b60206040518083038186803b158015611b3c57600080fd5b505afa158015611b50573d6000803e3d6000fd5b505050506040513d601f19601f82011682018060405250810190611b749190613a5f565b611b905760405162461bcd60e51b8152600401610646906141d2565b610e83600983836132b2565b600081565b816001600160a01b0316611bb3611f4f565b6001600160a01b03161415611bda5760405162461bcd60e51b815260040161064690614801565b8060036000611be7611f4f565b6001600160a01b03908116825260208083019390935260409182016000908120918716808252919093529120805460ff191692151592909217909155611c2b611f4f565b6001600160a01b03167f17307eab39ab6107e8899845ad3d59bd9653f200f220920489ca2b5937696c3183604051611c639190613f87565b60405180910390a35050565b63bc197c8160e01b95945050505050565b60098054611c8d90614b99565b80601f0160208091040260200160405190810160405280929190818152602001828054611cb990614b99565b8015611d065780601f10611cdb57610100808354040283529160200191611d06565b820191906000526020600020905b815481529060010190602001808311611ce957829003601f168201915b505050505081565b60085481565b60008181526001602052604081206106c69061269b565b7f9f2df0fed2c77648de5860a4cc508cd0818c85b8b8a1ab4ceeef8d981c8956a681565b610eaa82826126a6565b7f65d7a28e3265b37a6474929f336521b332c1681b933f6cb9f3376673440d862a81565b606060098054611d8c90614b99565b80601f0160208091040260200160405190810160405280929190818152602001828054611db890614b99565b8015611e055780601f10611dda57610100808354040283529160200191611e05565b820191906000526020600020905b815481529060010190602001808311611de857829003601f168201915b5050505050905090565b6001600160a01b03918216600090815260036020908152604080832093909416825291909152205460ff1690565b63f23a6e6160e01b95945050505050565b611e56611f4f565b6001600160a01b0316856001600160a01b03161480611e7c5750611e7c856105e0611f4f565b611e985760405162461bcd60e51b81526004016106469061428c565b610e5a85858585856126c5565b611ead611f4f565b6001600160a01b0316836001600160a01b03161480611ed35750611ed3836105e0611f4f565b611eef5760405162461bcd60e51b81526004016106469061428c565b610e838383836127fd565b6000611f05336116a5565b15611f19575060131936013560601c6116c5565b611f21611f4b565b90506116c5565b611f328282612910565b5050565b6000611a4a836001600160a01b038416612995565b3390565b6000611f59611efa565b905090565b6001600160a01b038416611f845760405162461bcd60e51b815260040161064690614918565b8151835114611fa55760405162461bcd60e51b8152600401610646906148bb565b6000611faf611f4f565b9050611fc0816000878787876129df565b60005b845181101561207857838181518110611fec57634e487b7160e01b600052603260045260246000fd5b60200260200101516002600087848151811061201857634e487b7160e01b600052603260045260246000fd5b602002602001015181526020019081526020016000206000886001600160a01b03166001600160a01b0316815260200190815260200160002060008282546120609190614ae8565b9091555081905061207081614bd4565b915050611fc3565b50846001600160a01b031660006001600160a01b0316826001600160a01b03167f4a39dc06d4c0dbc64b70af90fd698a233a518aa5d07e595d983b8c0526c8f7fb87876040516120c9929190613f59565b60405180910390a4610e5a81600087878787612b98565b81518351146121015760405162461bcd60e51b8152600401610646906148bb565b6001600160a01b0384166121275760405162461bcd60e51b8152600401610646906143da565b6000612131611f4f565b90506121418187878787876129df565b60005b845181101561224657600085828151811061216f57634e487b7160e01b600052603260045260246000fd5b60200260200101519050600085838151811061219b57634e487b7160e01b600052603260045260246000fd5b60209081029190910181015160008481526002835260408082206001600160a01b038e1683529093529190912054909150818110156121ec5760405162461bcd60e51b815260040161064690614591565b60008381526002602090815260408083206001600160a01b038e8116855292528083208585039055908b1682528120805484929061222b908490614ae8565b925050819055505050508061223f90614bd4565b9050612144565b50846001600160a01b0316866001600160a01b0316826001600160a01b03167f4a39dc06d4c0dbc64b70af90fd698a233a518aa5d07e595d983b8c0526c8f7fb8787604051612296929190613f59565b60405180910390a46122ac818787878787612b98565b505050505050565b6122bd82610b5a565b6122ce816122c9611f4f565b612ca6565b610e838383612910565b6122e0611f4f565b6001600160a01b0316816001600160a01b0316146123105760405162461bcd60e51b8152600401610646906149b6565b611f328282612d0a565b6000611a4a836001600160a01b038416612d8d565b6123376116be565b6123535760405162461bcd60e51b8152600401610646906140fa565b6005805460ff191690557f5db9ee0a495bf2e6ff9c91a7834c1ba4fdd244a5e8aa4e537bd38aeae4b073aa612386611f4f565b6040516123939190613d32565b60405180910390a1565b6001600160a01b0383166123c35760405162461bcd60e51b8152600401610646906144f1565b80518251146123e45760405162461bcd60e51b8152600401610646906148bb565b60006123ee611f4f565b905061240e818560008686604051806020016040528060008152506129df565b60005b83518110156124f257600084828151811061243c57634e487b7160e01b600052603260045260246000fd5b60200260200101519050600084838151811061246857634e487b7160e01b600052603260045260246000fd5b60209081029190910181015160008481526002835260408082206001600160a01b038c1683529093529190912054909150818110156124b95760405162461bcd60e51b81526004016106469061418e565b60009283526002602090815260408085206001600160a01b038b16865290915290922091039055806124ea81614bd4565b915050612411565b5060006001600160a01b0316846001600160a01b0316826001600160a01b03167f4a39dc06d4c0dbc64b70af90fd698a233a518aa5d07e595d983b8c0526c8f7fb8686604051610df5929190613f59565b6001600160a01b0384166125695760405162461bcd60e51b815260040161064690614918565b6000612573611f4f565b90506125948160008761258588612eaa565b61258e88612eaa565b876129df565b60008481526002602090815260408083206001600160a01b0389168452909152812080548592906125c6908490614ae8565b92505081905550846001600160a01b031660006001600160a01b0316826001600160a01b03167fc3d58168c5ae7397731d063d5bbf3d657854427343f4c083240f7aacaa2d0f62878760405161261d929190614a13565b60405180910390a4610e5a81600087878787612f03565b61263c6116be565b156126595760405162461bcd60e51b815260040161064690614346565b6005805460ff191660011790557f62e78cea01bee320cd4e420270b5ea74000d11b0c9f74754ebdbfc544b05a258612386611f4f565b6000611a4a8383612fd4565b60006106c68261300c565b6126af82610b5a565b6126bb816122c9611f4f565b610e838383612d0a565b6001600160a01b0384166126eb5760405162461bcd60e51b8152600401610646906143da565b60006126f5611f4f565b905061270681878761258588612eaa565b60008481526002602090815260408083206001600160a01b038a168452909152902054838110156127495760405162461bcd60e51b815260040161064690614591565b60008581526002602090815260408083206001600160a01b038b8116855292528083208785039055908816825281208054869290612788908490614ae8565b92505081905550856001600160a01b0316876001600160a01b0316836001600160a01b03167fc3d58168c5ae7397731d063d5bbf3d657854427343f4c083240f7aacaa2d0f6288886040516127de929190614a13565b60405180910390a46127f4828888888888612f03565b50505050505050565b6001600160a01b0383166128235760405162461bcd60e51b8152600401610646906144f1565b600061282d611f4f565b905061285d8185600061283f87612eaa565b61284887612eaa565b604051806020016040528060008152506129df565b60008381526002602090815260408083206001600160a01b0388168452909152902054828110156128a05760405162461bcd60e51b81526004016106469061418e565b60008481526002602090815260408083206001600160a01b03808a16808652919093528184208786039055905190918516907fc3d58168c5ae7397731d063d5bbf3d657854427343f4c083240f7aacaa2d0f62906129019089908990614a13565b60405180910390a45050505050565b61291a8282611a51565b611f32576000828152602081815260408083206001600160a01b03851684529091529020805460ff19166001179055612951611f4f565b6001600160a01b0316816001600160a01b0316837f2f8788117e7eff1d82e926ec794901d17c78024a50270940304540a733656f0d60405160405180910390a45050565b60006129a18383613010565b6129d757508154600181810184556000848152602080822090930184905584548482528286019093526040902091909155610674565b506000610674565b6129ed868686868686613028565b600a5460ff1615612a6e57612a227f8502233096d909befbda0999bb8ea2f3a6be3c138b9fbf003752a4c8bce86f6c86611a51565b80612a525750612a527f8502233096d909befbda0999bb8ea2f3a6be3c138b9fbf003752a4c8bce86f6c85611a51565b612a6e5760405162461bcd60e51b8152600401610646906145ee565b60005b83518110156127f4576001600160a01b038516612b0257828181518110612aa857634e487b7160e01b600052603260045260246000fd5b6020026020010151600b6000868481518110612ad457634e487b7160e01b600052603260045260246000fd5b602002602001015181526020019081526020016000206002016000828254612afc9190614b3f565b90915550505b600b6000858381518110612b2657634e487b7160e01b600052603260045260246000fd5b60209081029190910181015182528101919091526040016000206003015460ff1615612b86576001600160a01b0386161580612b6a57506001600160a01b03861630145b612b865760405162461bcd60e51b815260040161064690614494565b80612b9081614bd4565b915050612a71565b612baa846001600160a01b0316613036565b156122ac5760405163bc197c8160e01b81526001600160a01b0385169063bc197c8190612be39089908990889088908890600401613d46565b602060405180830381600087803b158015612bfd57600080fd5b505af1925050508015612c2d575060408051601f3d908101601f19168201909252612c2a91810190613b0a565b60015b612c7657612c39614c21565b80612c445750612c5e565b8060405162461bcd60e51b81526004016106469190613ff8565b60405162461bcd60e51b81526004016106469061400b565b6001600160e01b0319811663bc197c8160e01b146127f45760405162461bcd60e51b81526004016106469061409d565b612cb08282611a51565b611f3257612cc8816001600160a01b0316601461303c565b612cd383602061303c565b604051602001612ce4929190613cb1565b60408051601f198184030181529082905262461bcd60e51b825261064691600401613ff8565b612d148282611a51565b15611f32576000828152602081815260408083206001600160a01b03851684529091529020805460ff19169055612d49611f4f565b6001600160a01b0316816001600160a01b0316837ff6391f5c32d9c69d2a47ea670b442974b53935d1edc7fd64eb21e047a839171b60405160405180910390a45050565b60008181526001830160205260408120548015612ea0576000612db1600183614b3f565b8554909150600090612dc590600190614b3f565b9050818114612e46576000866000018281548110612df357634e487b7160e01b600052603260045260246000fd5b9060005260206000200154905080876000018481548110612e2457634e487b7160e01b600052603260045260246000fd5b6000918252602080832090910192909255918252600188019052604090208390555b8554869080612e6557634e487b7160e01b600052603160045260246000fd5b600190038181906000526020600020016000905590558560010160008681526020019081526020016000206000905560019350505050610674565b6000915050610674565b60408051600180825281830190925260609160009190602080830190803683370190505090508281600081518110612ef257634e487b7160e01b600052603260045260246000fd5b602090810291909101015292915050565b612f15846001600160a01b0316613036565b156122ac5760405163f23a6e6160e01b81526001600160a01b0385169063f23a6e6190612f4e9089908990889088908890600401613da4565b602060405180830381600087803b158015612f6857600080fd5b505af1925050508015612f98575060408051601f3d908101601f19168201909252612f9591810190613b0a565b60015b612fa457612c39614c21565b6001600160e01b0319811663f23a6e6160e01b146127f45760405162461bcd60e51b81526004016106469061409d565b6000826000018281548110612ff957634e487b7160e01b600052603260045260246000fd5b9060005260206000200154905092915050565b5490565b60009081526001919091016020526040902054151590565b6122ac8686868686866131fb565b3b151590565b6060600061304b836002614b20565b613056906002614ae8565b67ffffffffffffffff81111561307c57634e487b7160e01b600052604160045260246000fd5b6040519080825280601f01601f1916602001820160405280156130a6576020820181803683370190505b509050600360fc1b816000815181106130cf57634e487b7160e01b600052603260045260246000fd5b60200101906001600160f81b031916908160001a905350600f60fb1b8160018151811061310c57634e487b7160e01b600052603260045260246000fd5b60200101906001600160f81b031916908160001a9053506000613130846002614b20565b61313b906001614ae8565b90505b60018111156131dc577f303132333435363738396162636465660000000000000000000000000000000085600f166010811061318a57634e487b7160e01b600052603260045260246000fd5b1a60f81b8282815181106131ae57634e487b7160e01b600052603260045260246000fd5b60200101906001600160f81b031916908160001a90535060049490941c936131d581614b82565b905061313e565b508315611a4a5760405162461bcd60e51b815260040161064690614068565b6132098686868686866122ac565b6132116116be565b156122ac5760405162461bcd60e51b81526004016106469061422f565b82805461323a90614b99565b90600052602060002090601f01602090048101928261325c57600085556132a2565b82601f1061327557805160ff19168380011785556132a2565b828001600101855582156132a2579182015b828111156132a2578251825591602001919060010190613287565b506132ae929150613326565b5090565b8280546132be90614b99565b90600052602060002090601f0160209004810192826132e057600085556132a2565b82601f106132f95782800160ff198235161785556132a2565b828001600101855582156132a2579182015b828111156132a257823582559160200191906001019061330b565b5b808211156132ae5760008155600101613327565b80356001600160a01b03811681146106c957600080fd5b60008083601f840112613363578182fd5b50813567ffffffffffffffff81111561337a578182fd5b602083019150836020808302850101111561339457600080fd5b9250929050565b600082601f8301126133ab578081fd5b813560206133c06133bb83614a90565b614a66565b82815281810190858301838502870184018810156133dc578586fd5b855b858110156133fa578135845292840192908401906001016133de565b5090979650505050505050565b600082601f830112613417578081fd5b813567ffffffffffffffff81111561343157613431614c05565b613444601f8201601f1916602001614a66565b818152846020838601011115613458578283fd5b816020850160208301379081016020019190915292915050565b60008083601f840112613483578182fd5b50813567ffffffffffffffff81111561349a578182fd5b60208301915083602082850101111561339457600080fd5b6000602082840312156134c3578081fd5b611a4a8261333b565b600080604083850312156134de578081fd5b6134e78361333b565b9150610c276020840161333b565b600080600080600060a0868803121561350c578081fd5b6135158661333b565b94506135236020870161333b565b9350604086013567ffffffffffffffff8082111561353f578283fd5b61354b89838a0161339b565b94506060880135915080821115613560578283fd5b61356c89838a0161339b565b93506080880135915080821115613581578283fd5b5061358e88828901613407565b9150509295509295909350565b600080600080600060a086880312156135b2578081fd5b6135bb8661333b565b94506135c96020870161333b565b93506040860135925060608601359150608086013567ffffffffffffffff8111156135f2578182fd5b61358e88828901613407565b6000806000806000806000806000806000806101008d8f031215613620578687fd5b6136298d61333b565b9b5067ffffffffffffffff60208e01351115613643578687fd5b6136538e60208f01358f01613352565b909b50995067ffffffffffffffff60408e01351115613670578687fd5b6136808e60408f01358f01613352565b909950975067ffffffffffffffff60608e0135111561369d578687fd5b6136ad8e60608f01358f01613352565b909750955067ffffffffffffffff60808e013511156136ca578485fd5b6136da8e60808f01358f01613472565b9c9f9b9e50999c989b979a9699959895979660a08701359660c0810135965060e00135945092505050565b600080600060608486031215613719578081fd5b6137228461333b565b9250602084013567ffffffffffffffff8082111561373e578283fd5b61374a8783880161339b565b9350604086013591508082111561375f578283fd5b5061376c8682870161339b565b9150509250925092565b6000806000806080858703121561378b578182fd5b6137948561333b565b9350602085013567ffffffffffffffff808211156137b0578384fd5b6137bc8883890161339b565b945060408701359150808211156137d1578384fd5b6137dd8883890161339b565b935060608701359150808211156137f2578283fd5b506137ff87828801613407565b91505092959194509250565b6000806040838503121561381d578182fd5b6138268361333b565b9150602083013561383681614cc6565b809150509250929050565b60008060408385031215613853578182fd5b61385c8361333b565b946020939093013593505050565b60008060006060848603121561387e578081fd5b6138878461333b565b95602085013595506040909401359392505050565b600080600080608085870312156138b1578182fd5b6138ba8561333b565b93506020850135925060408501359150606085013567ffffffffffffffff8111156138e3578182fd5b6137ff87828801613407565b60008060408385031215613901578182fd5b823567ffffffffffffffff80821115613918578384fd5b818501915085601f83011261392b578384fd5b8135602061393b6133bb83614a90565b82815281810190858301838502870184018b1015613957578889fd5b8896505b848710156139805761396c8161333b565b83526001969096019591830191830161395b565b5096505086013592505080821115613996578283fd5b506139a38582860161339b565b9150509250929050565b600080600080600080606087890312156139c5578384fd5b863567ffffffffffffffff808211156139dc578586fd5b6139e88a838b01613352565b90985096506020890135915080821115613a00578586fd5b613a0c8a838b01613352565b90965094506040890135915080821115613a24578384fd5b50613a3189828a01613352565b979a9699509497509295939492505050565b600060208284031215613a54578081fd5b8135611a4a81614cc6565b600060208284031215613a70578081fd5b8151611a4a81614cc6565b600060208284031215613a8c578081fd5b5035919050565b600060208284031215613aa4578081fd5b5051919050565b60008060408385031215613abd578182fd5b82359150610c276020840161333b565b60008060408385031215613adf578182fd5b50508035926020909101359150565b600060208284031215613aff578081fd5b8135611a4a81614cd7565b600060208284031215613b1b578081fd5b8151611a4a81614cd7565b60008060208385031215613b38578182fd5b823567ffffffffffffffff811115613b4e578283fd5b613b5a85828601613472565b90969095509350505050565b600060208284031215613b77578081fd5b81516fffffffffffffffffffffffffffffffff81168114611a4a578182fd5b818352602080840193600091908185020181018584845b87811015613c145782840389528135601e19883603018112613bcd578687fd5b8701803567ffffffffffffffff811115613be5578788fd5b803603891315613bf3578788fd5b613c008682898501613c87565b9a87019a9550505090840190600101613bad565b5091979650505050505050565b6000815180845260208085019450808401835b83811015613c5057815187529582019590820190600101613c34565b509495945050505050565b60008151808452613c73816020860160208601614b56565b601f01601f19169290920160200192915050565b60008284528282602086013780602084860101526020601f19601f85011685010190509392505050565b60007f416363657373436f6e74726f6c3a206163636f756e742000000000000000000082528351613ce9816017850160208801614b56565b7f206973206d697373696e6720726f6c65200000000000000000000000000000006017918401918201528351613d26816028840160208801614b56565b01602801949350505050565b6001600160a01b0391909116815260200190565b60006001600160a01b03808816835280871660208401525060a06040830152613d7260a0830186613c21565b8281036060840152613d848186613c21565b90508281036080840152613d988185613c5b565b98975050505050505050565b60006001600160a01b03808816835280871660208401525084604083015283606083015260a06080830152613ddc60a0830184613c5b565b979650505050505050565b6001600160a01b0394851681529290931660208301526040820152606081019190915260a06080820181905260009082015260c00190565b60006001600160a01b038816825260c06020830152613e4160c0830188613c5b565b9050856040830152841515606083015283608083015260038310613e7557634e487b7160e01b600052602160045260246000fd5b8260a0830152979650505050505050565b6001600160a01b03929092168252602082015260400190565b600060208252611a4a6020830184613c21565b600060a08252613ec560a083018b613c21565b8281036020840152613ed8818a8c613b96565b90508281036040840152613eec8189613c21565b90508281036060840152613f01818789613b96565b905082810360808401528381527f07ffffffffffffffffffffffffffffffffffffffffffffffffffffffffffffff841115613f3a578182fd5b6020840280866020840137016020019081529998505050505050505050565b600060408252613f6c6040830185613c21565b8281036020840152613f7e8185613c21565b95945050505050565b901515815260200190565b90815260200190565b9182526001600160a01b0316602082015260400190565b6001600160e01b031991909116815260200190565b600060808252613fdb608083018789613c87565b602083019590955250604081019290925260609091015292915050565b600060208252611a4a6020830184613c5b565b60208082526034908201527f455243313135353a207472616e7366657220746f206e6f6e204552433131353560408201527f526563656976657220696d706c656d656e746572000000000000000000000000606082015260800190565b6020808252818101527f537472696e67733a20686578206c656e67746820696e73756666696369656e74604082015260600190565b60208082526028908201527f455243313135353a204552433131353552656365697665722072656a6563746560408201527f6420746f6b656e73000000000000000000000000000000000000000000000000606082015260800190565b60208082526014908201527f5061757361626c653a206e6f7420706175736564000000000000000000000000604082015260600190565b6020808252602b908201527f455243313135353a2062616c616e636520717565727920666f7220746865207a60408201527f65726f2061646472657373000000000000000000000000000000000000000000606082015260800190565b60208082526024908201527f455243313135353a206275726e20616d6f756e7420657863656564732062616c604082015263616e636560e01b606082015260800190565b60208082526038908201527f4163636573734e46543a206f6e6c7920612070726f746f636f6c2061646d696e60408201527f2063616e2063616c6c20746869732066756e6374696f6e2e0000000000000000606082015260800190565b6020808252602c908201527f455243313135355061757361626c653a20746f6b656e207472616e736665722060408201527f7768696c65207061757365640000000000000000000000000000000000000000606082015260800190565b60208082526029908201527f455243313135353a2063616c6c6572206973206e6f74206f776e6572206e6f7260408201527f20617070726f7665640000000000000000000000000000000000000000000000606082015260800190565b6020808252602e908201527f4163636573734e46543a2043616e6e6f742072656465656d206d6f7265204e4660408201527f5473207468616e206f776e65642e000000000000000000000000000000000000606082015260800190565b60208082526010908201527f5061757361626c653a2070617573656400000000000000000000000000000000604082015260600190565b60208082526028908201527f4163636573734e46543a204d75737420637265617465206174206c656173742060408201527f6f6e65204e46542e000000000000000000000000000000000000000000000000606082015260800190565b60208082526025908201527f455243313135353a207472616e7366657220746f20746865207a65726f20616460408201527f6472657373000000000000000000000000000000000000000000000000000000606082015260800190565b60208082526032908201527f455243313135353a207472616e736665722063616c6c6572206973206e6f742060408201527f6f776e6572206e6f7220617070726f7665640000000000000000000000000000606082015260800190565b60208082526039908201527f4163636573734e46543a2063616e6e6f74207472616e7366657220616e20616360408201527f63657373204e465420746861742069732072656465656d656400000000000000606082015260800190565b60208082526023908201527f455243313135353a206275726e2066726f6d20746865207a65726f206164647260408201526265737360e81b606082015260800190565b60208082526038908201527f455243313135355072657365744d696e7465725061757365723a206d7573742060408201527f68617665206d696e74657220726f6c6520746f206d696e740000000000000000606082015260800190565b6020808252602a908201527f455243313135353a20696e73756666696369656e742062616c616e636520666f60408201527f72207472616e7366657200000000000000000000000000000000000000000000606082015260800190565b6020808252603c908201527f4163636573734e46543a205472616e736665727320617265207265737472696360408201527f74656420746f205452414e534645525f524f4c4520686f6c6465727300000000606082015260800190565b60208082526022908201527f4163636573734e46543a205468652070726f746f636f6c206973207061757365604082015261321760f11b606082015260800190565b60208082526033908201527f4163636573734e46543a205468697320746f6b656e206973206e6f742072656460408201527f65656d61626c6520666f72206163636573732e00000000000000000000000000606082015260800190565b60208082526036908201527f4163636573734e46543a204d757374207370656369667920657175616c206e7560408201527f6d626572206f6620636f6e6669672076616c7565732e00000000000000000000606082015260800190565b6020808252603b908201527f455243313135355072657365744d696e7465725061757365723a206d7573742060408201527f686176652070617573657220726f6c6520746f20756e70617573650000000000606082015260800190565b60208082526039908201527f455243313135355072657365744d696e7465725061757365723a206d7573742060408201527f686176652070617573657220726f6c6520746f20706175736500000000000000606082015260800190565b60208082526029908201527f455243313135353a2073657474696e6720617070726f76616c2073746174757360408201527f20666f722073656c660000000000000000000000000000000000000000000000606082015260800190565b60208082526029908201527f455243313135353a206163636f756e747320616e6420696473206c656e67746860408201527f206d69736d617463680000000000000000000000000000000000000000000000606082015260800190565b60208082526028908201527f455243313135353a2069647320616e6420616d6f756e7473206c656e6774682060408201527f6d69736d61746368000000000000000000000000000000000000000000000000606082015260800190565b60208082526021908201527f455243313135353a206d696e7420746f20746865207a65726f206164647265736040820152607360f81b606082015260800190565b60208082526029908201527f4e46543a204270732070726f7669646564206d757374206265206c657373207460408201527f68616e20392c3030300000000000000000000000000000000000000000000000606082015260800190565b6020808252602f908201527f416363657373436f6e74726f6c3a2063616e206f6e6c792072656e6f756e636560408201527f20726f6c657320666f722073656c660000000000000000000000000000000000606082015260800190565b918252602082015260400190565b6000808335601e19843603018112614a37578283fd5b83018035915067ffffffffffffffff821115614a51578283fd5b60200191503681900382131561339457600080fd5b60405181810167ffffffffffffffff81118282101715614a8857614a88614c05565b604052919050565b600067ffffffffffffffff821115614aaa57614aaa614c05565b5060209081020190565b60006fffffffffffffffffffffffffffffffff808316818516808303821115614adf57614adf614bef565b01949350505050565b60008219821115614afb57614afb614bef565b500190565b600082614b1b57634e487b7160e01b81526012600452602481fd5b500490565b6000816000190483118215151615614b3a57614b3a614bef565b500290565b600082821015614b5157614b51614bef565b500390565b60005b83811015614b71578181015183820152602001614b59565b83811115610a635750506000910152565b600081614b9157614b91614bef565b506000190190565b600281046001821680614bad57607f821691505b60208210811415614bce57634e487b7160e01b600052602260045260246000fd5b50919050565b6000600019821415614be857614be8614bef565b5060010190565b634e487b7160e01b600052601160045260246000fd5b634e487b7160e01b600052604160045260246000fd5b60e01c90565b600060443d1015614c31576116c5565b600481823e6308c379a0614c458251614c1b565b14614c4f576116c5565b6040513d600319016004823e80513d67ffffffffffffffff8160248401118184111715614c7f57505050506116c5565b82840192508251915080821115614c9957505050506116c5565b503d83016020828401011115614cb1575050506116c5565b601f01601f1916810160200160405291505090565b8015158114614cd457600080fd5b50565b6001600160e01b031981168114614cd457600080fdfea164736f6c6343000800000a",
  "linkReferences": {},
  "deployedLinkReferences": {}
}