{
  "_format": "hh-sol-artifact-1",
  "contractName": "AccessNFT",
  "sourceName": "contracts/AccessNFT.sol",
  "abi": [
    {
      "inputs": [
        {
          "internalType": "address payable",
          "name": "_controlCenter",
          "type": "address"
        },
        {
          "internalType": "address",
          "name": "_trustedForwarder",
          "type": "address"
        },
        {
          "internalType": "string",
          "name": "_uri",
          "type": "string"
        }
      ],
      "stateMutability": "nonpayable",
      "type": "constructor"
    },
    {
      "anonymous": false,
      "inputs": [
        {
          "indexed": true,
          "internalType": "address",
          "name": "redeemer",
          "type": "address"
        },
        {
          "indexed": true,
          "internalType": "uint256",
          "name": "nftTokenId",
          "type": "uint256"
        },
        {
          "indexed": true,
          "internalType": "uint256",
          "name": "accessNftId",
          "type": "uint256"
        },
        {
          "indexed": false,
          "internalType": "uint256",
          "name": "amount",
          "type": "uint256"
        }
      ],
      "name": "AccessNFTRedeemed",
      "type": "event"
    },
    {
      "anonymous": false,
      "inputs": [
        {
          "indexed": true,
          "internalType": "address",
          "name": "creator",
          "type": "address"
        },
        {
          "indexed": false,
          "internalType": "uint256[]",
          "name": "nftIds",
          "type": "uint256[]"
        },
        {
          "indexed": false,
          "internalType": "string[]",
          "name": "nftURIs",
          "type": "string[]"
        },
        {
          "indexed": false,
          "internalType": "uint256[]",
          "name": "acessNftIds",
          "type": "uint256[]"
        },
        {
          "indexed": false,
          "internalType": "string[]",
          "name": "accessNftURIs",
          "type": "string[]"
        },
        {
          "indexed": false,
          "internalType": "uint256[]",
          "name": "nftSupplies",
          "type": "uint256[]"
        }
      ],
      "name": "AccessNFTsCreated",
      "type": "event"
    },
    {
      "anonymous": false,
      "inputs": [
        {
          "indexed": false,
          "internalType": "bool",
          "name": "isTransferable",
          "type": "bool"
        }
      ],
      "name": "AccessTransferabilityUpdated",
      "type": "event"
    },
    {
      "anonymous": false,
      "inputs": [
        {
          "indexed": true,
          "internalType": "address",
          "name": "account",
          "type": "address"
        },
        {
          "indexed": true,
          "internalType": "address",
          "name": "operator",
          "type": "address"
        },
        {
          "indexed": false,
          "internalType": "bool",
          "name": "approved",
          "type": "bool"
        }
      ],
      "name": "ApprovalForAll",
      "type": "event"
    },
    {
      "anonymous": false,
      "inputs": [
        {
          "indexed": false,
          "internalType": "uint256",
          "name": "accessNftId",
          "type": "uint256"
        },
        {
          "indexed": false,
          "internalType": "address",
          "name": "creator",
          "type": "address"
        },
        {
          "indexed": false,
          "internalType": "uint256",
          "name": "lastTimeToRedeem",
          "type": "uint256"
        }
      ],
      "name": "LastRedeemTimeUpdated",
      "type": "event"
    },
    {
      "anonymous": false,
      "inputs": [
        {
          "indexed": false,
          "internalType": "address",
          "name": "account",
          "type": "address"
        }
      ],
      "name": "Paused",
      "type": "event"
    },
    {
      "anonymous": false,
      "inputs": [
        {
          "indexed": true,
          "internalType": "bytes32",
          "name": "role",
          "type": "bytes32"
        },
        {
          "indexed": true,
          "internalType": "bytes32",
          "name": "previousAdminRole",
          "type": "bytes32"
        },
        {
          "indexed": true,
          "internalType": "bytes32",
          "name": "newAdminRole",
          "type": "bytes32"
        }
      ],
      "name": "RoleAdminChanged",
      "type": "event"
    },
    {
      "anonymous": false,
      "inputs": [
        {
          "indexed": true,
          "internalType": "bytes32",
          "name": "role",
          "type": "bytes32"
        },
        {
          "indexed": true,
          "internalType": "address",
          "name": "account",
          "type": "address"
        },
        {
          "indexed": true,
          "internalType": "address",
          "name": "sender",
          "type": "address"
        }
      ],
      "name": "RoleGranted",
      "type": "event"
    },
    {
      "anonymous": false,
      "inputs": [
        {
          "indexed": true,
          "internalType": "bytes32",
          "name": "role",
          "type": "bytes32"
        },
        {
          "indexed": true,
          "internalType": "address",
          "name": "account",
          "type": "address"
        },
        {
          "indexed": true,
          "internalType": "address",
          "name": "sender",
          "type": "address"
        }
      ],
      "name": "RoleRevoked",
      "type": "event"
    },
    {
      "anonymous": false,
      "inputs": [
        {
          "indexed": false,
          "internalType": "uint256",
          "name": "royaltyBps",
          "type": "uint256"
        }
      ],
      "name": "RoyaltyUpdated",
      "type": "event"
    },
    {
      "anonymous": false,
      "inputs": [
        {
          "indexed": true,
          "internalType": "address",
          "name": "operator",
          "type": "address"
        },
        {
          "indexed": true,
          "internalType": "address",
          "name": "from",
          "type": "address"
        },
        {
          "indexed": true,
          "internalType": "address",
          "name": "to",
          "type": "address"
        },
        {
          "indexed": false,
          "internalType": "uint256[]",
          "name": "ids",
          "type": "uint256[]"
        },
        {
          "indexed": false,
          "internalType": "uint256[]",
          "name": "values",
          "type": "uint256[]"
        }
      ],
      "name": "TransferBatch",
      "type": "event"
    },
    {
      "anonymous": false,
      "inputs": [
        {
          "indexed": true,
          "internalType": "address",
          "name": "operator",
          "type": "address"
        },
        {
          "indexed": true,
          "internalType": "address",
          "name": "from",
          "type": "address"
        },
        {
          "indexed": true,
          "internalType": "address",
          "name": "to",
          "type": "address"
        },
        {
          "indexed": false,
          "internalType": "uint256",
          "name": "id",
          "type": "uint256"
        },
        {
          "indexed": false,
          "internalType": "uint256",
          "name": "value",
          "type": "uint256"
        }
      ],
      "name": "TransferSingle",
      "type": "event"
    },
    {
      "anonymous": false,
      "inputs": [
        {
          "indexed": false,
          "internalType": "string",
          "name": "value",
          "type": "string"
        },
        {
          "indexed": true,
          "internalType": "uint256",
          "name": "id",
          "type": "uint256"
        }
      ],
      "name": "URI",
      "type": "event"
    },
    {
      "anonymous": false,
      "inputs": [
        {
          "indexed": false,
          "internalType": "address",
          "name": "account",
          "type": "address"
        }
      ],
      "name": "Unpaused",
      "type": "event"
    },
    {
      "inputs": [],
      "name": "DEFAULT_ADMIN_ROLE",
      "outputs": [
        {
          "internalType": "bytes32",
          "name": "",
          "type": "bytes32"
        }
      ],
      "stateMutability": "view",
      "type": "function"
    },
    {
      "inputs": [],
      "name": "MINTER_ROLE",
      "outputs": [
        {
          "internalType": "bytes32",
          "name": "",
          "type": "bytes32"
        }
      ],
      "stateMutability": "view",
      "type": "function"
    },
    {
      "inputs": [],
      "name": "PAUSER_ROLE",
      "outputs": [
        {
          "internalType": "bytes32",
          "name": "",
          "type": "bytes32"
        }
      ],
      "stateMutability": "view",
      "type": "function"
    },
    {
      "inputs": [],
      "name": "TRANSFER_ROLE",
      "outputs": [
        {
          "internalType": "bytes32",
          "name": "",
          "type": "bytes32"
        }
      ],
      "stateMutability": "view",
      "type": "function"
    },
    {
      "inputs": [],
      "name": "_contractURI",
      "outputs": [
        {
          "internalType": "string",
          "name": "",
          "type": "string"
        }
      ],
      "stateMutability": "view",
      "type": "function"
    },
    {
      "inputs": [],
      "name": "accessNftIsTransferable",
      "outputs": [
        {
          "internalType": "bool",
          "name": "",
          "type": "bool"
        }
      ],
      "stateMutability": "view",
      "type": "function"
    },
    {
      "inputs": [
        {
          "internalType": "address",
          "name": "account",
          "type": "address"
        },
        {
          "internalType": "uint256",
          "name": "id",
          "type": "uint256"
        }
      ],
      "name": "balanceOf",
      "outputs": [
        {
          "internalType": "uint256",
          "name": "",
          "type": "uint256"
        }
      ],
      "stateMutability": "view",
      "type": "function"
    },
    {
      "inputs": [
        {
          "internalType": "address[]",
          "name": "accounts",
          "type": "address[]"
        },
        {
          "internalType": "uint256[]",
          "name": "ids",
          "type": "uint256[]"
        }
      ],
      "name": "balanceOfBatch",
      "outputs": [
        {
          "internalType": "uint256[]",
          "name": "",
          "type": "uint256[]"
        }
      ],
      "stateMutability": "view",
      "type": "function"
    },
    {
      "inputs": [
        {
          "internalType": "address",
          "name": "account",
          "type": "address"
        },
        {
          "internalType": "uint256",
          "name": "id",
          "type": "uint256"
        },
        {
          "internalType": "uint256",
          "name": "value",
          "type": "uint256"
        }
      ],
      "name": "burn",
      "outputs": [],
      "stateMutability": "nonpayable",
      "type": "function"
    },
    {
      "inputs": [
        {
          "internalType": "address",
          "name": "account",
          "type": "address"
        },
        {
          "internalType": "uint256[]",
          "name": "ids",
          "type": "uint256[]"
        },
        {
          "internalType": "uint256[]",
          "name": "values",
          "type": "uint256[]"
        }
      ],
      "name": "burnBatch",
      "outputs": [],
      "stateMutability": "nonpayable",
      "type": "function"
    },
    {
      "inputs": [],
      "name": "contractURI",
      "outputs": [
        {
          "internalType": "string",
          "name": "",
          "type": "string"
        }
      ],
      "stateMutability": "view",
      "type": "function"
    },
    {
      "inputs": [
        {
          "internalType": "string[]",
          "name": "_nftURIs",
          "type": "string[]"
        },
        {
          "internalType": "string[]",
          "name": "_accessNftURIs",
          "type": "string[]"
        },
        {
          "internalType": "uint256[]",
          "name": "_nftSupplies",
          "type": "uint256[]"
        }
      ],
      "name": "createAccessNfts",
      "outputs": [
        {
          "internalType": "uint256[]",
          "name": "nftIds",
          "type": "uint256[]"
        }
      ],
      "stateMutability": "nonpayable",
      "type": "function"
    },
    {
      "inputs": [
        {
          "internalType": "address",
          "name": "_pack",
          "type": "address"
        },
        {
          "internalType": "string[]",
          "name": "_nftURIs",
          "type": "string[]"
        },
        {
          "internalType": "string[]",
          "name": "_accessNftURIs",
          "type": "string[]"
        },
        {
          "internalType": "uint256[]",
          "name": "_nftSupplies",
          "type": "uint256[]"
        },
        {
          "internalType": "string",
          "name": "_packURI",
          "type": "string"
        },
        {
          "internalType": "uint256",
          "name": "_secondsUntilOpenStart",
          "type": "uint256"
        },
        {
          "internalType": "uint256",
          "name": "_secondsUntilOpenEnd",
          "type": "uint256"
        },
        {
          "internalType": "uint256",
          "name": "_nftsPerOpen",
          "type": "uint256"
        }
      ],
      "name": "createAccessPack",
      "outputs": [],
      "stateMutability": "nonpayable",
      "type": "function"
    },
    {
      "inputs": [
        {
          "internalType": "bytes32",
          "name": "role",
          "type": "bytes32"
        }
      ],
      "name": "getRoleAdmin",
      "outputs": [
        {
          "internalType": "bytes32",
          "name": "",
          "type": "bytes32"
        }
      ],
      "stateMutability": "view",
      "type": "function"
    },
    {
      "inputs": [
        {
          "internalType": "bytes32",
          "name": "role",
          "type": "bytes32"
        },
        {
          "internalType": "uint256",
          "name": "index",
          "type": "uint256"
        }
      ],
      "name": "getRoleMember",
      "outputs": [
        {
          "internalType": "address",
          "name": "",
          "type": "address"
        }
      ],
      "stateMutability": "view",
      "type": "function"
    },
    {
      "inputs": [
        {
          "internalType": "bytes32",
          "name": "role",
          "type": "bytes32"
        }
      ],
      "name": "getRoleMemberCount",
      "outputs": [
        {
          "internalType": "uint256",
          "name": "",
          "type": "uint256"
        }
      ],
      "stateMutability": "view",
      "type": "function"
    },
    {
      "inputs": [
        {
          "internalType": "bytes32",
          "name": "role",
          "type": "bytes32"
        },
        {
          "internalType": "address",
          "name": "account",
          "type": "address"
        }
      ],
      "name": "grantRole",
      "outputs": [],
      "stateMutability": "nonpayable",
      "type": "function"
    },
    {
      "inputs": [
        {
          "internalType": "bytes32",
          "name": "role",
          "type": "bytes32"
        },
        {
          "internalType": "address",
          "name": "account",
          "type": "address"
        }
      ],
      "name": "hasRole",
      "outputs": [
        {
          "internalType": "bool",
          "name": "",
          "type": "bool"
        }
      ],
      "stateMutability": "view",
      "type": "function"
    },
    {
      "inputs": [
        {
          "internalType": "address",
          "name": "account",
          "type": "address"
        },
        {
          "internalType": "address",
          "name": "operator",
          "type": "address"
        }
      ],
      "name": "isApprovedForAll",
      "outputs": [
        {
          "internalType": "bool",
          "name": "",
          "type": "bool"
        }
      ],
      "stateMutability": "view",
      "type": "function"
    },
    {
      "inputs": [
        {
          "internalType": "uint256",
          "name": "_nftId",
          "type": "uint256"
        }
      ],
      "name": "isRedeemed",
      "outputs": [
        {
          "internalType": "bool",
          "name": "",
          "type": "bool"
        }
      ],
      "stateMutability": "view",
      "type": "function"
    },
    {
      "inputs": [],
      "name": "isRestrictedTransfer",
      "outputs": [
        {
          "internalType": "bool",
          "name": "",
          "type": "bool"
        }
      ],
      "stateMutability": "view",
      "type": "function"
    },
    {
      "inputs": [
        {
          "internalType": "address",
          "name": "forwarder",
          "type": "address"
        }
      ],
      "name": "isTrustedForwarder",
      "outputs": [
        {
          "internalType": "bool",
          "name": "",
          "type": "bool"
        }
      ],
      "stateMutability": "view",
      "type": "function"
    },
    {
      "inputs": [
        {
          "internalType": "uint256",
          "name": "",
          "type": "uint256"
        }
      ],
      "name": "lastTimeToRedeem",
      "outputs": [
        {
          "internalType": "uint256",
          "name": "",
          "type": "uint256"
        }
      ],
      "stateMutability": "view",
      "type": "function"
    },
    {
      "inputs": [
        {
          "internalType": "address",
          "name": "to",
          "type": "address"
        },
        {
          "internalType": "uint256",
          "name": "id",
          "type": "uint256"
        },
        {
          "internalType": "uint256",
          "name": "amount",
          "type": "uint256"
        },
        {
          "internalType": "bytes",
          "name": "data",
          "type": "bytes"
        }
      ],
      "name": "mint",
      "outputs": [],
      "stateMutability": "nonpayable",
      "type": "function"
    },
    {
      "inputs": [
        {
          "internalType": "address",
          "name": "to",
          "type": "address"
        },
        {
          "internalType": "uint256[]",
          "name": "ids",
          "type": "uint256[]"
        },
        {
          "internalType": "uint256[]",
          "name": "amounts",
          "type": "uint256[]"
        },
        {
          "internalType": "bytes",
          "name": "data",
          "type": "bytes"
        }
      ],
      "name": "mintBatch",
      "outputs": [],
      "stateMutability": "nonpayable",
      "type": "function"
    },
    {
      "inputs": [],
      "name": "nextTokenId",
      "outputs": [
        {
          "internalType": "uint256",
          "name": "",
          "type": "uint256"
        }
      ],
      "stateMutability": "view",
      "type": "function"
    },
    {
      "inputs": [
        {
          "internalType": "uint256",
          "name": "",
          "type": "uint256"
        }
      ],
      "name": "nftInfo",
      "outputs": [
        {
          "internalType": "address",
          "name": "creator",
          "type": "address"
        },
        {
          "internalType": "string",
          "name": "uri",
          "type": "string"
        },
        {
          "internalType": "uint256",
          "name": "supply",
          "type": "uint256"
        },
        {
          "internalType": "bool",
          "name": "isAccess",
          "type": "bool"
        },
        {
          "internalType": "uint256",
          "name": "accessNftId",
          "type": "uint256"
        },
        {
          "internalType": "enum AccessNFT.UnderlyingType",
          "name": "underlyingType",
          "type": "uint8"
        }
      ],
      "stateMutability": "view",
      "type": "function"
    },
    {
      "inputs": [
        {
          "internalType": "address",
          "name": "",
          "type": "address"
        },
        {
          "internalType": "address",
          "name": "",
          "type": "address"
        },
        {
          "internalType": "uint256[]",
          "name": "",
          "type": "uint256[]"
        },
        {
          "internalType": "uint256[]",
          "name": "",
          "type": "uint256[]"
        },
        {
          "internalType": "bytes",
          "name": "",
          "type": "bytes"
        }
      ],
      "name": "onERC1155BatchReceived",
      "outputs": [
        {
          "internalType": "bytes4",
          "name": "",
          "type": "bytes4"
        }
      ],
      "stateMutability": "nonpayable",
      "type": "function"
    },
    {
      "inputs": [
        {
          "internalType": "address",
          "name": "",
          "type": "address"
        },
        {
          "internalType": "address",
          "name": "",
          "type": "address"
        },
        {
          "internalType": "uint256",
          "name": "",
          "type": "uint256"
        },
        {
          "internalType": "uint256",
          "name": "",
          "type": "uint256"
        },
        {
          "internalType": "bytes",
          "name": "",
          "type": "bytes"
        }
      ],
      "name": "onERC1155Received",
      "outputs": [
        {
          "internalType": "bytes4",
          "name": "",
          "type": "bytes4"
        }
      ],
      "stateMutability": "nonpayable",
      "type": "function"
    },
    {
      "inputs": [],
      "name": "pause",
      "outputs": [],
      "stateMutability": "nonpayable",
      "type": "function"
    },
    {
      "inputs": [],
      "name": "paused",
      "outputs": [
        {
          "internalType": "bool",
          "name": "",
          "type": "bool"
        }
      ],
      "stateMutability": "view",
      "type": "function"
    },
    {
      "inputs": [
        {
          "internalType": "uint256",
          "name": "_tokenId",
          "type": "uint256"
        },
        {
          "internalType": "uint256",
          "name": "_amount",
          "type": "uint256"
        }
      ],
      "name": "redeemAccess",
      "outputs": [],
      "stateMutability": "nonpayable",
      "type": "function"
    },
    {
      "inputs": [
        {
          "internalType": "bytes32",
          "name": "role",
          "type": "bytes32"
        },
        {
          "internalType": "address",
          "name": "account",
          "type": "address"
        }
      ],
      "name": "renounceRole",
      "outputs": [],
      "stateMutability": "nonpayable",
      "type": "function"
    },
    {
      "inputs": [
        {
          "internalType": "bytes32",
          "name": "role",
          "type": "bytes32"
        },
        {
          "internalType": "address",
          "name": "account",
          "type": "address"
        }
      ],
      "name": "revokeRole",
      "outputs": [],
      "stateMutability": "nonpayable",
      "type": "function"
    },
    {
      "inputs": [],
      "name": "royaltyBps",
      "outputs": [
        {
          "internalType": "uint256",
          "name": "",
          "type": "uint256"
        }
      ],
      "stateMutability": "view",
      "type": "function"
    },
    {
      "inputs": [
        {
          "internalType": "uint256",
          "name": "",
          "type": "uint256"
        },
        {
          "internalType": "uint256",
          "name": "salePrice",
          "type": "uint256"
        }
      ],
      "name": "royaltyInfo",
      "outputs": [
        {
          "internalType": "address",
          "name": "receiver",
          "type": "address"
        },
        {
          "internalType": "uint256",
          "name": "royaltyAmount",
          "type": "uint256"
        }
      ],
      "stateMutability": "view",
      "type": "function"
    },
    {
      "inputs": [
        {
          "internalType": "address",
          "name": "from",
          "type": "address"
        },
        {
          "internalType": "address",
          "name": "to",
          "type": "address"
        },
        {
          "internalType": "uint256[]",
          "name": "ids",
          "type": "uint256[]"
        },
        {
          "internalType": "uint256[]",
          "name": "amounts",
          "type": "uint256[]"
        },
        {
          "internalType": "bytes",
          "name": "data",
          "type": "bytes"
        }
      ],
      "name": "safeBatchTransferFrom",
      "outputs": [],
      "stateMutability": "nonpayable",
      "type": "function"
    },
    {
      "inputs": [
        {
          "internalType": "address",
          "name": "from",
          "type": "address"
        },
        {
          "internalType": "address",
          "name": "to",
          "type": "address"
        },
        {
          "internalType": "uint256",
          "name": "id",
          "type": "uint256"
        },
        {
          "internalType": "uint256",
          "name": "amount",
          "type": "uint256"
        },
        {
          "internalType": "bytes",
          "name": "data",
          "type": "bytes"
        }
      ],
      "name": "safeTransferFrom",
      "outputs": [],
      "stateMutability": "nonpayable",
      "type": "function"
    },
    {
      "inputs": [
        {
          "internalType": "address",
          "name": "operator",
          "type": "address"
        },
        {
          "internalType": "bool",
          "name": "approved",
          "type": "bool"
        }
      ],
      "name": "setApprovalForAll",
      "outputs": [],
      "stateMutability": "nonpayable",
      "type": "function"
    },
    {
      "inputs": [
        {
          "internalType": "string",
          "name": "_URI",
          "type": "string"
        }
      ],
      "name": "setContractURI",
      "outputs": [],
      "stateMutability": "nonpayable",
      "type": "function"
    },
    {
      "inputs": [
        {
          "internalType": "uint256",
          "name": "_tokenId",
          "type": "uint256"
        },
        {
          "internalType": "uint256",
          "name": "_secondsUntilRedeem",
          "type": "uint256"
        }
      ],
      "name": "setLastTimeToRedeem",
      "outputs": [],
      "stateMutability": "nonpayable",
      "type": "function"
    },
    {
      "inputs": [
        {
          "internalType": "bool",
          "name": "_restrictedTransfer",
          "type": "bool"
        }
      ],
      "name": "setRestrictedTransfer",
      "outputs": [],
      "stateMutability": "nonpayable",
      "type": "function"
    },
    {
      "inputs": [
        {
          "internalType": "uint256",
          "name": "_royaltyBps",
          "type": "uint256"
        }
      ],
      "name": "setRoyaltyBps",
      "outputs": [],
      "stateMutability": "nonpayable",
      "type": "function"
    },
    {
      "inputs": [
        {
          "internalType": "bool",
          "name": "_isTransferable",
          "type": "bool"
        }
      ],
      "name": "setTransferability",
      "outputs": [],
      "stateMutability": "nonpayable",
      "type": "function"
    },
    {
      "inputs": [
        {
          "internalType": "bytes4",
          "name": "interfaceId",
          "type": "bytes4"
        }
      ],
      "name": "supportsInterface",
      "outputs": [
        {
          "internalType": "bool",
          "name": "",
          "type": "bool"
        }
      ],
      "stateMutability": "pure",
      "type": "function"
    },
    {
      "inputs": [
        {
          "internalType": "uint256",
          "name": "_nftId",
          "type": "uint256"
        }
      ],
      "name": "tokenURI",
      "outputs": [
        {
          "internalType": "string",
          "name": "",
          "type": "string"
        }
      ],
      "stateMutability": "view",
      "type": "function"
    },
    {
      "inputs": [],
      "name": "unpause",
      "outputs": [],
      "stateMutability": "nonpayable",
      "type": "function"
    },
    {
      "inputs": [
        {
          "internalType": "uint256",
          "name": "_nftId",
          "type": "uint256"
        }
      ],
      "name": "uri",
      "outputs": [
        {
          "internalType": "string",
          "name": "",
          "type": "string"
        }
      ],
      "stateMutability": "view",
      "type": "function"
    }
  ],
  "bytecode": "0x60806040523480156200001157600080fd5b5060405162005c7138038062005c7183398101604081905262000034916200040a565b818180620000428162000148565b506005805460ff191690556200006360006200005d62000161565b6200017e565b620000927f9f2df0fed2c77648de5860a4cc508cd0818c85b8b8a1ab4ceeef8d981c8956a66200005d62000161565b620000c17f65d7a28e3265b37a6474929f336521b332c1681b933f6cb9f3376673440d862a6200005d62000161565b5060058054610100600160a81b0319166101006001600160a01b0393841602179055600680546001600160a01b03191691851691909117905580516200010f90600990602084019062000364565b506200013f7f8502233096d909befbda0999bb8ea2f3a6be3c138b9fbf003752a4c8bce86f6c6200005d62000161565b50505062000573565b80516200015d90600490602084019062000364565b5050565b600062000178620001c160201b620023fc1760201c565b90505b90565b6200019582826200020160201b6200242a1760201c565b6000828152600160209081526040909120620001bc918390620024386200020d821b17901c565b505050565b6000620001ce336200022d565b15620001e4575060131936013560601c6200017b565b620001f96200024660201b6200244d1760201c565b90506200017b565b6200015d82826200024a565b600062000224836001600160a01b038416620002d4565b90505b92915050565b60055461010090046001600160a01b0390811691161490565b3390565b62000256828262000323565b6200015d576000828152602081815260408083206001600160a01b03851684529091529020805460ff191660011790556200029062000161565b6001600160a01b0316816001600160a01b0316837f2f8788117e7eff1d82e926ec794901d17c78024a50270940304540a733656f0d60405160405180910390a45050565b6000620002e283836200034c565b6200031a5750815460018181018455600084815260208082209093018490558454848252828601909352604090209190915562000227565b50600062000227565b6000918252602082815260408084206001600160a01b0393909316845291905290205460ff1690565b60009081526001919091016020526040902054151590565b828054620003729062000507565b90600052602060002090601f016020900481019282620003965760008555620003e1565b82601f10620003b157805160ff1916838001178555620003e1565b82800160010185558215620003e1579182015b82811115620003e1578251825591602001919060010190620003c4565b50620003ef929150620003f3565b5090565b5b80821115620003ef5760008155600101620003f4565b6000806000606084860312156200041f578283fd5b83516200042c816200055a565b8093505060208085015162000441816200055a565b60408601519093506001600160401b03808211156200045e578384fd5b818701915087601f83011262000472578384fd5b81518181111562000487576200048762000544565b604051601f8201601f1916810185018381118282101715620004ad57620004ad62000544565b60405281815283820185018a1015620004c4578586fd5b8592505b81831015620004e75783830185015181840186015291840191620004c8565b81831115620004f857858583830101525b80955050505050509250925092565b6002810460018216806200051c57607f821691505b602082108114156200053e57634e487b7160e01b600052602260045260246000fd5b50919050565b634e487b7160e01b600052604160045260246000fd5b6001600160a01b03811681146200057057600080fd5b50565b6156ee80620005836000396000f3fe608060405234801561001057600080fd5b506004361061031f5760003560e01c806375794a3c116101a7578063c63adb2b116100ee578063e63ab1e911610097578063f23a6e6111610071578063f23a6e6114610652578063f242432a14610665578063f5298aca146106785761031f565b8063e63ab1e91461062f578063e8a3d48514610637578063e985e9c51461063f5761031f565b8063d5391393116100c8578063d53913931461060c578063d547741f14610614578063d9371ddd146106275761031f565b8063c63adb2b146105f1578063c87b56dd1461036d578063ca15c873146105f95761031f565b806391d1485411610150578063a22cb4651161012a578063a22cb465146105b6578063bc197c81146105c9578063c0e72740146105e95761031f565b806391d1485414610588578063938e3d7b1461059b578063a217fddf146105ae5761031f565b80638aa01653116101815780638aa01653146105425780638ba448c2146105555780639010d07c146105685761031f565b806375794a3c1461052a57806383661b29146105325780638456cb591461053a5761031f565b80632f2ff15d1161026b5780634e1273f4116102145780635c975abb116101ee5780635c975abb146104fc5780636b20c45414610504578063731133e9146105175761031f565b80634e1273f4146104c3578063572b6c05146104d65780635948ab63146104e95761031f565b80633c16b12e116102455780633c16b12e146104885780633f4ba83a146104a85780634487f6b4146104b05761031f565b80632f2ff15d1461044f57806332d33cd01461046257806336568abe146104755761031f565b80631f8bc790116102cd5780632a55205a116102a75780632a55205a146104085780632e14bee8146104295780632eb2c2d61461043c5761031f565b80631f8bc790146103c8578063206b60f9146103ed578063248a9ca3146103f55761031f565b806317ffeba2116102fe57806317ffeba21461038d5780631f72d831146103a05780631f7fdffa146103b55761031f565b8062fdd58e1461032457806301ffc9a71461034d5780630e89341c1461036d575b600080fd5b610337610332366004613fbf565b61068b565b604051610344919061471a565b60405180910390f35b61036061035b366004614276565b6106e7565b604051610344919061470f565b61038061037b366004614201565b61073b565b6040516103449190614780565b61033761039b366004614201565b6107e0565b6103b36103ae366004614201565b6107f2565b005b6103b36103c3366004613efb565b610a8e565b6103db6103d6366004614201565b610bb7565b604051610344969594939291906145a7565b610337610c84565b610337610403366004614201565b610ca8565b61041b610416366004614255565b610cbd565b60405161034492919061460e565b6103b3610437366004614255565b610e01565b6103b361044a366004613c70565b611018565b6103b361045d366004614231565b611076565b610360610470366004614201565b61109d565b6103b3610483366004614231565b6110b5565b61049b610496366004614133565b6110d7565b6040516103449190614627565b6103b3611790565b6103b36104be366004614255565b6117e2565b61049b6104d1366004614073565b6118ce565b6103606104e4366004613c00565b6119ee565b6103b36104f73660046141c9565b611a07565b610360611b5a565b6103b3610512366004613e88565b611b64565b6103b361052536600461401e565b611bb9565b610337611c3d565b610360611c43565b6103b3611c53565b6103b3610550366004613d81565b611ca3565b6103b36105633660046141c9565b611ddc565b61057b610576366004614255565b611f2b565b60405161034491906144ba565b610360610596366004614231565b611f4a565b6103b36105a93660046142ae565b611f73565b610337612095565b6103b36105c4366004613f92565b61209a565b6105dc6105d7366004613c70565b612168565b604051610344919061473a565b610380612179565b610337612207565b610337610607366004614201565b61220d565b610337612224565b6103b3610622366004614231565b612248565b610360612252565b61033761225b565b61038061227f565b61036061064d366004613c38565b612311565b6105dc610660366004613d1a565b61233f565b6103b3610673366004613d1a565b612350565b6103b3610686366004613fea565b6123a7565b60006001600160a01b0383166106bc5760405162461bcd60e51b81526004016106b390614916565b60405180910390fd5b5060008181526002602090815260408083206001600160a01b03861684529091529020545b92915050565b60006001600160e01b03198216630271189760e51b148061071857506001600160e01b03198216636cdb3d1360e11b145b8061073357506001600160e01b0319821663152a902d60e11b145b90505b919050565b6000818152600b6020526040902060010180546060919061075b90615578565b80601f016020809104026020016040519081016040528092919081815260200182805461078790615578565b80156107d45780601f106107a9576101008083540402835291602001916107d4565b820191906000526020600020905b8154815290600101906020018083116107b757829003601f168201915b50505050509050919050565b600c6020526000908152604090205481565b60065460408051634a32c6bf60e11b815290516001600160a01b03909216916391d148549183916394658d7e91600480820192602092909190829003018186803b15801561083f57600080fd5b505afa158015610853573d6000803e3d6000fd5b505050506040513d601f19601f820116820180604052508101906108779190614219565b61087f612451565b6040518363ffffffff1660e01b815260040161089c929190614723565b60206040518083038186803b1580156108b457600080fd5b505afa1580156108c8573d6000803e3d6000fd5b505050506040513d601f19601f820116820180604052508101906108ec91906141e5565b6109085760405162461bcd60e51b81526004016106b390614a14565b600660009054906101000a90046001600160a01b03166001600160a01b0316635cd423156040518163ffffffff1660e01b815260040160206040518083038186803b15801561095657600080fd5b505afa15801561096a573d6000803e3d6000fd5b505050506040513d601f19601f8201168201806040525081019061098e91906142ee565b600660009054906101000a90046001600160a01b03166001600160a01b031663fd967f476040518163ffffffff1660e01b815260040160206040518083038186803b1580156109dc57600080fd5b505afa1580156109f0573d6000803e3d6000fd5b505050506040513d601f19601f82011682018060405250810190610a1491906142ee565b610a1e9190615493565b6fffffffffffffffffffffffffffffffff168110610a4e5760405162461bcd60e51b81526004016106b390615319565b60088190556040517f244ea8d7627f5a08f4299862bd5a45752842c183aee5b0fb0d1e4887bfa605b390610a8390839061471a565b60405180910390a150565b60018060005b8551811015610b6857600754868281518110610ac057634e487b7160e01b600052603260045260246000fd5b602002602001015110158015610ad35750825b15610add57600092505b6000600b6000888481518110610b0357634e487b7160e01b600052603260045260246000fd5b60209081029190910181015182528101919091526040016000206005015460ff166002811115610b4357634e487b7160e01b600052602160045260246000fd5b14158015610b4e5750815b15610b5857600091505b610b61816155b3565b9050610a94565b5081610b865760405162461bcd60e51b81526004016106b3906148b9565b80610ba35760405162461bcd60e51b81526004016106b390614973565b610baf86868686612460565b505050505050565b600b60205260009081526040902080546001820180546001600160a01b039092169291610be390615578565b80601f0160208091040260200160405190810160405280929190818152602001828054610c0f90615578565b8015610c5c5780601f10610c3157610100808354040283529160200191610c5c565b820191906000526020600020905b815481529060010190602001808311610c3f57829003601f168201915b505050506002830154600384015460048501546005909501549394919360ff91821693501686565b7f8502233096d909befbda0999bb8ea2f3a6be3c138b9fbf003752a4c8bce86f6c81565b60009081526020819052604090206001015490565b600080600660009054906101000a90046001600160a01b03166001600160a01b0316630f603ed36040518163ffffffff1660e01b815260040160206040518083038186803b158015610d0e57600080fd5b505afa158015610d22573d6000803e3d6000fd5b505050506040513d601f19601f82011682018060405250810190610d469190613c1c565b9150600660009054906101000a90046001600160a01b03166001600160a01b031663fd967f476040518163ffffffff1660e01b815260040160206040518083038186803b158015610d9657600080fd5b505afa158015610daa573d6000803e3d6000fd5b505050506040513d601f19601f82011682018060405250810190610dce91906142ee565b6fffffffffffffffffffffffffffffffff1660085484610dee91906154ff565b610df891906154df565b90509250929050565b600660009054906101000a90046001600160a01b03166001600160a01b0316639d2f83f06040518163ffffffff1660e01b815260040160206040518083038186803b158015610e4f57600080fd5b505afa158015610e63573d6000803e3d6000fd5b505050506040513d601f19601f82011682018060405250810190610e8791906141e5565b15610ea45760405162461bcd60e51b81526004016106b390614ef4565b6000828152600b602052604090206003015460ff1615610ed65760405162461bcd60e51b81526004016106b390614f93565b6000610ee0612451565b905081610eed828561068b565b1015610f0b5760405162461bcd60e51b81526004016106b390614b2b565b610f1d610f16612451565b84846123a7565b6000838152600b6020908152604080832060040154808452600c9092529091205442111580610f5857506000818152600c6020526040902054155b610f745760405162461bcd60e51b81526004016106b390614f36565b604051637921219560e11b8152309063f242432a90610f9d90839086908690899060040161456f565b600060405180830381600087803b158015610fb757600080fd5b505af1158015610fcb573d6000803e3d6000fd5b505050508084836001600160a01b03167fa70022dc131dbd0be52c08bf87947e36b3e7d4934dce1efecf2d261c381d10178660405161100a919061471a565b60405180910390a450505050565b611020612451565b6001600160a01b0316856001600160a01b0316148061104657506110468561064d612451565b6110625760405162461bcd60e51b81526004016106b390614ce0565b61106f85858585856124b4565b5050505050565b6110808282612680565b60008281526001602052604090206110989082612438565b505050565b6000908152600b602052604090206003015460ff1690565b6110bf82826126a4565b600082815260016020526040902061109890826126e6565b600654604080516309d2f83f60e41b815290516060926001600160a01b031691639d2f83f0916004808301926020929190829003018186803b15801561111c57600080fd5b505afa158015611130573d6000803e3d6000fd5b505050506040513d601f19601f8201168201806040525081019061115491906141e5565b156111715760405162461bcd60e51b81526004016106b390614ef4565b61119d7f9f2df0fed2c77648de5860a4cc508cd0818c85b8b8a1ab4ceeef8d981c8956a6610596612451565b6111b95760405162461bcd60e51b81526004016106b390614b88565b85821480156111c757508584145b6111e35760405162461bcd60e51b81526004016106b39061504d565b856112005760405162461bcd60e51b81526004016106b390614c26565b8567ffffffffffffffff81111561122757634e487b7160e01b600052604160045260246000fd5b604051908082528060200260200182016040528015611250578160200160208202803683370190505b50905060008667ffffffffffffffff81111561127c57634e487b7160e01b600052604160045260246000fd5b6040519080825280602002602001820160405280156112a5578160200160208202803683370190505b5060075490915060005b8881101561168757818382815181106112d857634e487b7160e01b600052603260045260246000fd5b6020026020010181815250506040518060c001604052806112f7612451565b6001600160a01b0316815260200189898481811061132557634e487b7160e01b600052603260045260246000fd5b90506020028101906113379190615400565b8080601f01602080910402602001604051908101604052809392919081815260200183838082843760009201919091525050509082525060200187878481811061139157634e487b7160e01b600052603260045260246000fd5b90506020020135815260200160011515815260200160008152602001600060028111156113ce57634e487b7160e01b600052602160045260246000fd5b90526000838152600b602090815260409091208251815473ffffffffffffffffffffffffffffffffffffffff19166001600160a01b03909116178155828201518051919261142492600185019290910190613988565b506040820151600280830191909155606083015160038301805491151560ff199283161790556080840151600484015560a0840151600584018054919390929190911690600190849081111561148a57634e487b7160e01b600052602160045260246000fd5b021790555061149e915060019050836154c7565b9150818482815181106114c157634e487b7160e01b600052603260045260246000fd5b6020026020010181815250506040518060c001604052806114e0612451565b6001600160a01b031681526020018b8b8481811061150e57634e487b7160e01b600052603260045260246000fd5b90506020028101906115209190615400565b8080601f01602080910402602001604051908101604052809392919081815260200183838082843760009201919091525050509082525060200187878481811061157a57634e487b7160e01b600052603260045260246000fd5b90506020020135815260200160001515815260200160018461159c919061551e565b8152602001600090526000838152600b602090815260409091208251815473ffffffffffffffffffffffffffffffffffffffff19166001600160a01b0390911617815582820151805191926115f992600185019290910190613988565b506040820151600280830191909155606083015160038301805491151560ff199283161790556080840151600484015560a0840151600584018054919390929190911690600190849081111561165f57634e487b7160e01b600052602160045260246000fd5b0217905550611673915060019050836154c7565b91508061167f816155b3565b9150506112af565b50806007819055506116db30838787808060200260200160405190810160405280939291908181526020018383602002808284376000920182905250604080516020810190915290815292506126fb915050565b61172e6116e6612451565b848787808060200260200160405190810160405280939291908181526020018383602002808284376000920182905250604080516020810190915290815292506126fb915050565b611736612451565b6001600160a01b03167fe309c6cae6e35dcc6c2f37d5da32b19e0346074be56b9722cdf852d20fced6ee848b8b868c8c8c8c60405161177c98979695949392919061463a565b60405180910390a250509695505050505050565b6117bc7f65d7a28e3265b37a6474929f336521b332c1681b933f6cb9f3376673440d862a610596612451565b6117d85760405162461bcd60e51b81526004016106b3906150aa565b6117e061279d565b565b6000828152600b60205260409020546001600160a01b0316611802612451565b6001600160a01b0316146118285760405162461bcd60e51b81526004016106b390615107565b6000828152600b602052604090206003015460ff166118595760405162461bcd60e51b81526004016106b390614ff0565b600081156118705761186b82426154c7565b611874565b6000195b6000848152600c6020526040902081905590507ff01057f3c55599179571189c7758b5ce72994adea5a8dc33095fdc8fdff07119836118b1612451565b836040516118c1939291906153d3565b60405180910390a1505050565b606081518351146118f15760405162461bcd60e51b81526004016106b39061521e565b6000835167ffffffffffffffff81111561191b57634e487b7160e01b600052604160045260246000fd5b604051908082528060200260200182016040528015611944578160200160208202803683370190505b50905060005b84518110156119e6576119ab85828151811061197657634e487b7160e01b600052603260045260246000fd5b602002602001015185838151811061199e57634e487b7160e01b600052603260045260246000fd5b602002602001015161068b565b8282815181106119cb57634e487b7160e01b600052603260045260246000fd5b60209081029190910101526119df816155b3565b905061194a565b509392505050565b60055461010090046001600160a01b0390811691161490565b60065460408051634a32c6bf60e11b815290516001600160a01b03909216916391d148549183916394658d7e91600480820192602092909190829003018186803b158015611a5457600080fd5b505afa158015611a68573d6000803e3d6000fd5b505050506040513d601f19601f82011682018060405250810190611a8c9190614219565b611a94612451565b6040518363ffffffff1660e01b8152600401611ab1929190614723565b60206040518083038186803b158015611ac957600080fd5b505afa158015611add573d6000803e3d6000fd5b505050506040513d601f19601f82011682018060405250810190611b0191906141e5565b611b1d5760405162461bcd60e51b81526004016106b390614a14565b600a805460ff19168215151790556040517e4701906729f069b76305c2c6a0bfa1d4ba4ff97d08206c8716078bf7a5e02790610a8390839061470f565b60055460ff165b90565b611b6c612451565b6001600160a01b0316836001600160a01b03161480611b925750611b928361064d612451565b611bae5760405162461bcd60e51b81526004016106b390614ace565b61109883838361280b565b6007548310611bda5760405162461bcd60e51b81526004016106b3906148b9565b6000838152600b602052604081206005015460ff166002811115611c0e57634e487b7160e01b600052602160045260246000fd5b14611c2b5760405162461bcd60e51b81526004016106b390614973565b611c37848484846128ac565b50505050565b60075481565b600554600160a81b900460ff1681565b611c7f7f65d7a28e3265b37a6474929f336521b332c1681b933f6cb9f3376673440d862a610596612451565b611c9b5760405162461bcd60e51b81526004016106b390615164565b6117e0612900565b600660009054906101000a90046001600160a01b03166001600160a01b0316639d2f83f06040518163ffffffff1660e01b815260040160206040518083038186803b158015611cf157600080fd5b505afa158015611d05573d6000803e3d6000fd5b505050506040513d601f19601f82011682018060405250810190611d2991906141e5565b15611d465760405162461bcd60e51b81526004016106b390614ef4565b6000611d568c8c8c8c8c8c6110d7565b905060008686868686604051602001611d7395949392919061474f565b6040516020818303038152906040529050611dcc611d8f612451565b8f848c8c80806020026020016040519081016040528093929190818152602001838360200280828437600092019190915250889250611018915050565b5050505050505050505050505050565b60065460408051634a32c6bf60e11b815290516001600160a01b03909216916391d148549183916394658d7e91600480820192602092909190829003018186803b158015611e2957600080fd5b505afa158015611e3d573d6000803e3d6000fd5b505050506040513d601f19601f82011682018060405250810190611e619190614219565b611e69612451565b6040518363ffffffff1660e01b8152600401611e86929190614723565b60206040518083038186803b158015611e9e57600080fd5b505afa158015611eb2573d6000803e3d6000fd5b505050506040513d601f19601f82011682018060405250810190611ed691906141e5565b611ef25760405162461bcd60e51b81526004016106b390614a14565b60058054911515600160a81b027fffffffffffffffffffff00ffffffffffffffffffffffffffffffffffffffffff909216919091179055565b6000828152600160205260408120611f43908361295b565b9392505050565b6000918252602082815260408084206001600160a01b0393909316845291905290205460ff1690565b60065460408051634a32c6bf60e11b815290516001600160a01b03909216916391d148549183916394658d7e91600480820192602092909190829003018186803b158015611fc057600080fd5b505afa158015611fd4573d6000803e3d6000fd5b505050506040513d601f19601f82011682018060405250810190611ff89190614219565b612000612451565b6040518363ffffffff1660e01b815260040161201d929190614723565b60206040518083038186803b15801561203557600080fd5b505afa158015612049573d6000803e3d6000fd5b505050506040513d601f19601f8201168201806040525081019061206d91906141e5565b6120895760405162461bcd60e51b81526004016106b390614a14565b61109860098383613a0c565b600081565b816001600160a01b03166120ac612451565b6001600160a01b031614156120d35760405162461bcd60e51b81526004016106b3906151c1565b80600360006120e0612451565b6001600160a01b03908116825260208083019390935260409182016000908120918716808252919093529120805460ff191692151592909217909155612124612451565b6001600160a01b03167f17307eab39ab6107e8899845ad3d59bd9653f200f220920489ca2b5937696c318360405161215c919061470f565b60405180910390a35050565b63bc197c8160e01b95945050505050565b6009805461218690615578565b80601f01602080910402602001604051908101604052809291908181526020018280546121b290615578565b80156121ff5780601f106121d4576101008083540402835291602001916121ff565b820191906000526020600020905b8154815290600101906020018083116121e257829003601f168201915b505050505081565b60085481565b600081815260016020526040812061073390612967565b7f9f2df0fed2c77648de5860a4cc508cd0818c85b8b8a1ab4ceeef8d981c8956a681565b6110bf8282612972565b600a5460ff1681565b7f65d7a28e3265b37a6474929f336521b332c1681b933f6cb9f3376673440d862a81565b60606009805461228e90615578565b80601f01602080910402602001604051908101604052809291908181526020018280546122ba90615578565b80156123075780601f106122dc57610100808354040283529160200191612307565b820191906000526020600020905b8154815290600101906020018083116122ea57829003601f168201915b5050505050905090565b6001600160a01b03918216600090815260036020908152604080832093909416825291909152205460ff1690565b63f23a6e6160e01b95945050505050565b612358612451565b6001600160a01b0316856001600160a01b0316148061237e575061237e8561064d612451565b61239a5760405162461bcd60e51b81526004016106b390614ace565b61106f8585858585612991565b6123af612451565b6001600160a01b0316836001600160a01b031614806123d557506123d58361064d612451565b6123f15760405162461bcd60e51b81526004016106b390614ace565b611098838383612ad8565b6000612407336119ee565b1561241b575060131936013560601c611b61565b61242361244d565b9050611b61565b6124348282612b0e565b5050565b6000611f43836001600160a01b038416612b93565b3390565b600061245b6123fc565b905090565b61248c7f9f2df0fed2c77648de5860a4cc508cd0818c85b8b8a1ab4ceeef8d981c8956a6610596612451565b6124a85760405162461bcd60e51b81526004016106b390614ddd565b611c37848484846126fb565b81518351146124d55760405162461bcd60e51b81526004016106b39061527b565b6001600160a01b0384166124fb5760405162461bcd60e51b81526004016106b390614c83565b6000612505612451565b9050612515818787878787612bdd565b60005b845181101561261a57600085828151811061254357634e487b7160e01b600052603260045260246000fd5b60200260200101519050600085838151811061256f57634e487b7160e01b600052603260045260246000fd5b60209081029190910181015160008481526002835260408082206001600160a01b038e1683529093529190912054909150818110156125c05760405162461bcd60e51b81526004016106b390614e3a565b60008381526002602090815260408083206001600160a01b038e8116855292528083208585039055908b168252812080548492906125ff9084906154c7565b9250508190555050505080612613906155b3565b9050612518565b50846001600160a01b0316866001600160a01b0316826001600160a01b03167f4a39dc06d4c0dbc64b70af90fd698a233a518aa5d07e595d983b8c0526c8f7fb878760405161266a9291906146e1565b60405180910390a4610baf818787878787612d9d565b61268982610ca8565b61269a81612695612451565b612eab565b6110988383612b0e565b6126ac612451565b6001600160a01b0316816001600160a01b0316146126dc5760405162461bcd60e51b81526004016106b390615376565b6124348282612f0f565b6000611f43836001600160a01b038416612f92565b612707848484846130af565b60005b835181101561106f5782818151811061273357634e487b7160e01b600052603260045260246000fd5b6020026020010151600b600086848151811061275f57634e487b7160e01b600052603260045260246000fd5b60200260200101518152602001908152602001600020600201600082825461278791906154c7565b909155506127969050816155b3565b905061270a565b6127a5611b5a565b6127c15760405162461bcd60e51b81526004016106b390614882565b6005805460ff191690557f5db9ee0a495bf2e6ff9c91a7834c1ba4fdd244a5e8aa4e537bd38aeae4b073aa6127f4612451565b60405161280191906144ba565b60405180910390a1565b612816838383613231565b60005b8251811015611c375781818151811061284257634e487b7160e01b600052603260045260246000fd5b6020026020010151600b600085848151811061286e57634e487b7160e01b600052603260045260246000fd5b602002602001015181526020019081526020016000206002016000828254612896919061551e565b909155506128a59050816155b3565b9050612819565b6128d87f9f2df0fed2c77648de5860a4cc508cd0818c85b8b8a1ab4ceeef8d981c8956a6610596612451565b6128f45760405162461bcd60e51b81526004016106b390614ddd565b611c37848484846133d7565b612908611b5a565b156129255760405162461bcd60e51b81526004016106b390614bef565b6005805460ff191660011790557f62e78cea01bee320cd4e420270b5ea74000d11b0c9f74754ebdbfc544b05a2586127f4612451565b6000611f43838361340f565b600061073382613447565b61297b82610ca8565b61298781612695612451565b6110988383612f0f565b6001600160a01b0384166129b75760405162461bcd60e51b81526004016106b390614c83565b60006129c1612451565b90506129e18187876129d28861344b565b6129db8861344b565b87612bdd565b60008481526002602090815260408083206001600160a01b038a16845290915290205483811015612a245760405162461bcd60e51b81526004016106b390614e3a565b60008581526002602090815260408083206001600160a01b038b8116855292528083208785039055908816825281208054869290612a639084906154c7565b92505081905550856001600160a01b0316876001600160a01b0316836001600160a01b03167fc3d58168c5ae7397731d063d5bbf3d657854427343f4c083240f7aacaa2d0f628888604051612ab99291906153f2565b60405180910390a4612acf8288888888886134a4565b50505050505050565b612ae3838383613575565b6000828152600b602052604081206002018054839290612b0490849061551e565b9091555050505050565b612b188282611f4a565b612434576000828152602081815260408083206001600160a01b03851684529091529020805460ff19166001179055612b4f612451565b6001600160a01b0316816001600160a01b0316837f2f8788117e7eff1d82e926ec794901d17c78024a50270940304540a733656f0d60405160405180910390a45050565b6000612b9f8383613688565b612bd5575081546001818101845560008481526020808220909301849055845484825282860190935260409020919091556106e1565b5060006106e1565b612beb8686868686866136a0565b600554600160a81b900460ff1615612c7357612c277f8502233096d909befbda0999bb8ea2f3a6be3c138b9fbf003752a4c8bce86f6c86611f4a565b80612c575750612c577f8502233096d909befbda0999bb8ea2f3a6be3c138b9fbf003752a4c8bce86f6c85611f4a565b612c735760405162461bcd60e51b81526004016106b390614e97565b60005b8351811015612acf576001600160a01b038516612d0757828181518110612cad57634e487b7160e01b600052603260045260246000fd5b6020026020010151600b6000868481518110612cd957634e487b7160e01b600052603260045260246000fd5b602002602001015181526020019081526020016000206002016000828254612d01919061551e565b90915550505b600b6000858381518110612d2b57634e487b7160e01b600052603260045260246000fd5b60209081029190910181015182528101919091526040016000206003015460ff1615612d8b576001600160a01b0386161580612d6f57506001600160a01b03861630145b612d8b5760405162461bcd60e51b81526004016106b390614d3d565b80612d95816155b3565b915050612c76565b612daf846001600160a01b03166136ae565b15610baf5760405163bc197c8160e01b81526001600160a01b0385169063bc197c8190612de890899089908890889088906004016144ce565b602060405180830381600087803b158015612e0257600080fd5b505af1925050508015612e32575060408051601f3d908101601f19168201909252612e2f91810190614292565b60015b612e7b57612e3e615600565b80612e495750612e63565b8060405162461bcd60e51b81526004016106b39190614780565b60405162461bcd60e51b81526004016106b390614793565b6001600160e01b0319811663bc197c8160e01b14612acf5760405162461bcd60e51b81526004016106b390614825565b612eb58282611f4a565b61243457612ecd816001600160a01b031660146136b4565b612ed88360206136b4565b604051602001612ee9929190614439565b60408051601f198184030181529082905262461bcd60e51b82526106b391600401614780565b612f198282611f4a565b15612434576000828152602081815260408083206001600160a01b03851684529091529020805460ff19169055612f4e612451565b6001600160a01b0316816001600160a01b0316837ff6391f5c32d9c69d2a47ea670b442974b53935d1edc7fd64eb21e047a839171b60405160405180910390a45050565b600081815260018301602052604081205480156130a5576000612fb660018361551e565b8554909150600090612fca9060019061551e565b905081811461304b576000866000018281548110612ff857634e487b7160e01b600052603260045260246000fd5b906000526020600020015490508087600001848154811061302957634e487b7160e01b600052603260045260246000fd5b6000918252602080832090910192909255918252600188019052604090208390555b855486908061306a57634e487b7160e01b600052603160045260246000fd5b6001900381819060005260206000200160009055905585600101600086815260200190815260200160002060009055600193505050506106e1565b60009150506106e1565b6001600160a01b0384166130d55760405162461bcd60e51b81526004016106b3906152d8565b81518351146130f65760405162461bcd60e51b81526004016106b39061527b565b6000613100612451565b905061311181600087878787612bdd565b60005b84518110156131c95783818151811061313d57634e487b7160e01b600052603260045260246000fd5b60200260200101516002600087848151811061316957634e487b7160e01b600052603260045260246000fd5b602002602001015181526020019081526020016000206000886001600160a01b03166001600160a01b0316815260200190815260200160002060008282546131b191906154c7565b909155508190506131c1816155b3565b915050613114565b50846001600160a01b031660006001600160a01b0316826001600160a01b03167f4a39dc06d4c0dbc64b70af90fd698a233a518aa5d07e595d983b8c0526c8f7fb878760405161321a9291906146e1565b60405180910390a461106f81600087878787612d9d565b6001600160a01b0383166132575760405162461bcd60e51b81526004016106b390614d9a565b80518251146132785760405162461bcd60e51b81526004016106b39061527b565b6000613282612451565b90506132a281856000868660405180602001604052806000815250612bdd565b60005b83518110156133865760008482815181106132d057634e487b7160e01b600052603260045260246000fd5b6020026020010151905060008483815181106132fc57634e487b7160e01b600052603260045260246000fd5b60209081029190910181015160008481526002835260408082206001600160a01b038c16835290935291909120549091508181101561334d5760405162461bcd60e51b81526004016106b3906149d0565b60009283526002602090815260408085206001600160a01b038b168652909152909220910390558061337e816155b3565b9150506132a5565b5060006001600160a01b0316846001600160a01b0316826001600160a01b03167f4a39dc06d4c0dbc64b70af90fd698a233a518aa5d07e595d983b8c0526c8f7fb868660405161100a9291906146e1565b6133e384848484613873565b6000838152600b6020526040812060020180548492906134049084906154c7565b909155505050505050565b600082600001828154811061343457634e487b7160e01b600052603260045260246000fd5b9060005260206000200154905092915050565b5490565b6040805160018082528183019092526060916000919060208083019080368337019050509050828160008151811061349357634e487b7160e01b600052603260045260246000fd5b602090810291909101015292915050565b6134b6846001600160a01b03166136ae565b15610baf5760405163f23a6e6160e01b81526001600160a01b0385169063f23a6e61906134ef908990899088908890889060040161452c565b602060405180830381600087803b15801561350957600080fd5b505af1925050508015613539575060408051601f3d908101601f1916820190925261353691810190614292565b60015b61354557612e3e615600565b6001600160e01b0319811663f23a6e6160e01b14612acf5760405162461bcd60e51b81526004016106b390614825565b6001600160a01b03831661359b5760405162461bcd60e51b81526004016106b390614d9a565b60006135a5612451565b90506135d5818560006135b78761344b565b6135c08761344b565b60405180602001604052806000815250612bdd565b60008381526002602090815260408083206001600160a01b0388168452909152902054828110156136185760405162461bcd60e51b81526004016106b3906149d0565b60008481526002602090815260408083206001600160a01b03808a16808652919093528184208786039055905190918516907fc3d58168c5ae7397731d063d5bbf3d657854427343f4c083240f7aacaa2d0f629061367990899089906153f2565b60405180910390a45050505050565b60009081526001919091016020526040902054151590565b610baf868686868686613955565b3b151590565b606060006136c38360026154ff565b6136ce9060026154c7565b67ffffffffffffffff8111156136f457634e487b7160e01b600052604160045260246000fd5b6040519080825280601f01601f19166020018201604052801561371e576020820181803683370190505b509050600360fc1b8160008151811061374757634e487b7160e01b600052603260045260246000fd5b60200101906001600160f81b031916908160001a905350600f60fb1b8160018151811061378457634e487b7160e01b600052603260045260246000fd5b60200101906001600160f81b031916908160001a90535060006137a88460026154ff565b6137b39060016154c7565b90505b6001811115613854577f303132333435363738396162636465660000000000000000000000000000000085600f166010811061380257634e487b7160e01b600052603260045260246000fd5b1a60f81b82828151811061382657634e487b7160e01b600052603260045260246000fd5b60200101906001600160f81b031916908160001a90535060049490941c9361384d81615561565b90506137b6565b508315611f435760405162461bcd60e51b81526004016106b3906147f0565b6001600160a01b0384166138995760405162461bcd60e51b81526004016106b3906152d8565b60006138a3612451565b90506138b5816000876129d28861344b565b60008481526002602090815260408083206001600160a01b0389168452909152812080548592906138e79084906154c7565b92505081905550846001600160a01b031660006001600160a01b0316826001600160a01b03167fc3d58168c5ae7397731d063d5bbf3d657854427343f4c083240f7aacaa2d0f62878760405161393e9291906153f2565b60405180910390a461106f816000878787876134a4565b613963868686868686610baf565b61396b611b5a565b15610baf5760405162461bcd60e51b81526004016106b390614a71565b82805461399490615578565b90600052602060002090601f0160209004810192826139b657600085556139fc565b82601f106139cf57805160ff19168380011785556139fc565b828001600101855582156139fc579182015b828111156139fc5782518255916020019190600101906139e1565b50613a08929150613a80565b5090565b828054613a1890615578565b90600052602060002090601f016020900481019282613a3a57600085556139fc565b82601f10613a535782800160ff198235161785556139fc565b828001600101855582156139fc579182015b828111156139fc578235825591602001919060010190613a65565b5b80821115613a085760008155600101613a81565b8035610736816156a5565b60008083601f840112613ab1578182fd5b50813567ffffffffffffffff811115613ac8578182fd5b6020830191508360208083028501011115613ae257600080fd5b9250929050565b600082601f830112613af9578081fd5b81356020613b0e613b098361546f565b615445565b8281528181019085830183850287018401881015613b2a578586fd5b855b85811015613b4857813584529284019290840190600101613b2c565b5090979650505050505050565b600082601f830112613b65578081fd5b813567ffffffffffffffff811115613b7f57613b7f6155e4565b613b92601f8201601f1916602001615445565b818152846020838601011115613ba6578283fd5b816020850160208301379081016020019190915292915050565b60008083601f840112613bd1578182fd5b50813567ffffffffffffffff811115613be8578182fd5b602083019150836020828501011115613ae257600080fd5b600060208284031215613c11578081fd5b8135611f43816156a5565b600060208284031215613c2d578081fd5b8151611f43816156a5565b60008060408385031215613c4a578081fd5b8235613c55816156a5565b91506020830135613c65816156a5565b809150509250929050565b600080600080600060a08688031215613c87578081fd5b8535613c92816156a5565b94506020860135613ca2816156a5565b9350604086013567ffffffffffffffff80821115613cbe578283fd5b613cca89838a01613ae9565b94506060880135915080821115613cdf578283fd5b613ceb89838a01613ae9565b93506080880135915080821115613d00578283fd5b50613d0d88828901613b55565b9150509295509295909350565b600080600080600060a08688031215613d31578081fd5b8535613d3c816156a5565b94506020860135613d4c816156a5565b93506040860135925060608601359150608086013567ffffffffffffffff811115613d75578182fd5b613d0d88828901613b55565b6000806000806000806000806000806000806101008d8f031215613da357898afd5b613dac8d613a95565b9b5067ffffffffffffffff60208e01351115613dc657898afd5b613dd68e60208f01358f01613aa0565b909b50995067ffffffffffffffff60408e01351115613df3578687fd5b613e038e60408f01358f01613aa0565b909950975067ffffffffffffffff60608e01351115613e20578687fd5b613e308e60608f01358f01613aa0565b909750955067ffffffffffffffff60808e01351115613e4d578485fd5b613e5d8e60808f01358f01613bc0565b9c9f9b9e50999c989b979a9699959895979660a08701359660c0810135965060e00135945092505050565b600080600060608486031215613e9c578081fd5b8335613ea7816156a5565b9250602084013567ffffffffffffffff80821115613ec3578283fd5b613ecf87838801613ae9565b93506040860135915080821115613ee4578283fd5b50613ef186828701613ae9565b9150509250925092565b60008060008060808587031215613f10578182fd5b8435613f1b816156a5565b9350602085013567ffffffffffffffff80821115613f37578384fd5b613f4388838901613ae9565b94506040870135915080821115613f58578384fd5b613f6488838901613ae9565b93506060870135915080821115613f79578283fd5b50613f8687828801613b55565b91505092959194509250565b60008060408385031215613fa4578182fd5b8235613faf816156a5565b91506020830135613c65816156bd565b60008060408385031215613fd1578182fd5b8235613fdc816156a5565b946020939093013593505050565b600080600060608486031215613ffe578081fd5b8335614009816156a5565b95602085013595506040909401359392505050565b60008060008060808587031215614033578182fd5b843561403e816156a5565b93506020850135925060408501359150606085013567ffffffffffffffff811115614067578182fd5b613f8687828801613b55565b60008060408385031215614085578182fd5b823567ffffffffffffffff8082111561409c578384fd5b818501915085601f8301126140af578384fd5b813560206140bf613b098361546f565b82815281810190858301838502870184018b10156140db578889fd5b8896505b848710156141065780356140f2816156a5565b8352600196909601959183019183016140df565b509650508601359250508082111561411c578283fd5b5061412985828601613ae9565b9150509250929050565b6000806000806000806060878903121561414b578384fd5b863567ffffffffffffffff80821115614162578586fd5b61416e8a838b01613aa0565b90985096506020890135915080821115614186578586fd5b6141928a838b01613aa0565b909650945060408901359150808211156141aa578384fd5b506141b789828a01613aa0565b979a9699509497509295939492505050565b6000602082840312156141da578081fd5b8135611f43816156bd565b6000602082840312156141f6578081fd5b8151611f43816156bd565b600060208284031215614212578081fd5b5035919050565b60006020828403121561422a578081fd5b5051919050565b60008060408385031215614243578182fd5b823591506020830135613c65816156a5565b60008060408385031215614267578182fd5b50508035926020909101359150565b600060208284031215614287578081fd5b8135611f43816156cb565b6000602082840312156142a3578081fd5b8151611f43816156cb565b600080602083850312156142c0578182fd5b823567ffffffffffffffff8111156142d6578283fd5b6142e285828601613bc0565b90969095509350505050565b6000602082840312156142ff578081fd5b81516fffffffffffffffffffffffffffffffff81168114611f43578182fd5b818352602080840193600091908185020181018584845b8781101561439c5782840389528135601e19883603018112614355578687fd5b8701803567ffffffffffffffff81111561436d578788fd5b80360389131561437b578788fd5b614388868289850161440f565b9a87019a9550505090840190600101614335565b5091979650505050505050565b6000815180845260208085019450808401835b838110156143d8578151875295820195908201906001016143bc565b509495945050505050565b600081518084526143fb816020860160208601615535565b601f01601f19169290920160200192915050565b60008284528282602086013780602084860101526020601f19601f85011685010190509392505050565b60007f416363657373436f6e74726f6c3a206163636f756e742000000000000000000082528351614471816017850160208801615535565b7f206973206d697373696e6720726f6c652000000000000000000000000000000060179184019182015283516144ae816028840160208801615535565b01602801949350505050565b6001600160a01b0391909116815260200190565b60006001600160a01b03808816835280871660208401525060a060408301526144fa60a08301866143a9565b828103606084015261450c81866143a9565b9050828103608084015261452081856143e3565b98975050505050505050565b60006001600160a01b03808816835280871660208401525084604083015283606083015260a0608083015261456460a08301846143e3565b979650505050505050565b6001600160a01b0394851681529290931660208301526040820152606081019190915260a06080820181905260009082015260c00190565b60006001600160a01b038816825260c060208301526145c960c08301886143e3565b90508560408301528415156060830152836080830152600383106145fd57634e487b7160e01b600052602160045260246000fd5b8260a0830152979650505050505050565b6001600160a01b03929092168252602082015260400190565b600060208252611f4360208301846143a9565b600060a0825261464d60a083018b6143a9565b8281036020840152614660818a8c61431e565b9050828103604084015261467481896143a9565b9050828103606084015261468981878961431e565b905082810360808401528381527f07ffffffffffffffffffffffffffffffffffffffffffffffffffffffffffffff8411156146c2578182fd5b6020840280866020840137016020019081529998505050505050505050565b6000604082526146f460408301856143a9565b828103602084015261470681856143a9565b95945050505050565b901515815260200190565b90815260200190565b9182526001600160a01b0316602082015260400190565b6001600160e01b031991909116815260200190565b60006080825261476360808301878961440f565b602083019590955250604081019290925260609091015292915050565b600060208252611f4360208301846143e3565b60208082526034908201527f455243313135353a207472616e7366657220746f206e6f6e204552433131353560408201527f526563656976657220696d706c656d656e746572000000000000000000000000606082015260800190565b6020808252818101527f537472696e67733a20686578206c656e67746820696e73756666696369656e74604082015260600190565b60208082526028908201527f455243313135353a204552433131353552656365697665722072656a6563746560408201527f6420746f6b656e73000000000000000000000000000000000000000000000000606082015260800190565b60208082526014908201527f5061757361626c653a206e6f7420706175736564000000000000000000000000604082015260600190565b60208082526039908201527f4e4654436f6c6c656374696f6e3a2063616e6e6f742063616c6c20746869732060408201527f666e20666f72206372656174696e67206e6577204e4654732e00000000000000606082015260800190565b6020808252602b908201527f455243313135353a2062616c616e636520717565727920666f7220746865207a60408201527f65726f2061646472657373000000000000000000000000000000000000000000606082015260800190565b6020808252603a908201527f4e4654436f6c6c656374696f6e3a2063616e6e6f7420667265656c79206d696e60408201527f74206d6f7265206f66204552433230206f72204552433732312e000000000000606082015260800190565b60208082526024908201527f455243313135353a206275726e20616d6f756e7420657863656564732062616c604082015263616e636560e01b606082015260800190565b60208082526038908201527f4163636573734e46543a206f6e6c7920612070726f746f636f6c2061646d696e60408201527f2063616e2063616c6c20746869732066756e6374696f6e2e0000000000000000606082015260800190565b6020808252602c908201527f455243313135355061757361626c653a20746f6b656e207472616e736665722060408201527f7768696c65207061757365640000000000000000000000000000000000000000606082015260800190565b60208082526029908201527f455243313135353a2063616c6c6572206973206e6f74206f776e6572206e6f7260408201527f20617070726f7665640000000000000000000000000000000000000000000000606082015260800190565b6020808252602e908201527f4163636573734e46543a2043616e6e6f742072656465656d206d6f7265204e4660408201527f5473207468616e206f776e65642e000000000000000000000000000000000000606082015260800190565b60208082526041908201527f4163636573734e46543a204f6e6c79206163636f756e74732077697468204d4960408201527f4e5445525f524f4c452063616e2063616c6c20746869732066756e6374696f6e6060820152601760f91b608082015260a00190565b60208082526010908201527f5061757361626c653a2070617573656400000000000000000000000000000000604082015260600190565b60208082526028908201527f4163636573734e46543a204d75737420637265617465206174206c656173742060408201527f6f6e65204e46542e000000000000000000000000000000000000000000000000606082015260800190565b60208082526025908201527f455243313135353a207472616e7366657220746f20746865207a65726f20616460408201527f6472657373000000000000000000000000000000000000000000000000000000606082015260800190565b60208082526032908201527f455243313135353a207472616e736665722063616c6c6572206973206e6f742060408201527f6f776e6572206e6f7220617070726f7665640000000000000000000000000000606082015260800190565b60208082526039908201527f4163636573734e46543a2063616e6e6f74207472616e7366657220616e20616360408201527f63657373204e465420746861742069732072656465656d656400000000000000606082015260800190565b60208082526023908201527f455243313135353a206275726e2066726f6d20746865207a65726f206164647260408201526265737360e81b606082015260800190565b60208082526038908201527f455243313135355072657365744d696e7465725061757365723a206d7573742060408201527f68617665206d696e74657220726f6c6520746f206d696e740000000000000000606082015260800190565b6020808252602a908201527f455243313135353a20696e73756666696369656e742062616c616e636520666f60408201527f72207472616e7366657200000000000000000000000000000000000000000000606082015260800190565b6020808252603c908201527f4163636573734e46543a205472616e736665727320617265207265737472696360408201527f74656420746f205452414e534645525f524f4c4520686f6c6465727300000000606082015260800190565b60208082526022908201527f4163636573734e46543a205468652070726f746f636f6c206973207061757365604082015261321760f11b606082015260800190565b6020808252602e908201527f4163636573734e46543a2057696e646f7720746f2072656465656d206163636560408201527f73732068617320636c6f7365642e000000000000000000000000000000000000606082015260800190565b60208082526033908201527f4163636573734e46543a205468697320746f6b656e206973206e6f742072656460408201527f65656d61626c6520666f72206163636573732e00000000000000000000000000606082015260800190565b60208082526034908201527f4163636573734e46543a2063616e207365742072656465656d2074696d65206660408201527f6f72206f6e6c7920416363657373204e4654732e000000000000000000000000606082015260800190565b60208082526036908201527f4163636573734e46543a204d757374207370656369667920657175616c206e7560408201527f6d626572206f6620636f6e6669672076616c7565732e00000000000000000000606082015260800190565b6020808252603b908201527f455243313135355072657365744d696e7465725061757365723a206d7573742060408201527f686176652070617573657220726f6c6520746f20756e70617573650000000000606082015260800190565b60208082526033908201527f4163636573734e46543a206f6e6c79207468652063726561746f722063616e2060408201527f63616c6c20746869732066756e6374696f6e2e00000000000000000000000000606082015260800190565b60208082526039908201527f455243313135355072657365744d696e7465725061757365723a206d7573742060408201527f686176652070617573657220726f6c6520746f20706175736500000000000000606082015260800190565b60208082526029908201527f455243313135353a2073657474696e6720617070726f76616c2073746174757360408201527f20666f722073656c660000000000000000000000000000000000000000000000606082015260800190565b60208082526029908201527f455243313135353a206163636f756e747320616e6420696473206c656e67746860408201527f206d69736d617463680000000000000000000000000000000000000000000000606082015260800190565b60208082526028908201527f455243313135353a2069647320616e6420616d6f756e7473206c656e6774682060408201527f6d69736d61746368000000000000000000000000000000000000000000000000606082015260800190565b60208082526021908201527f455243313135353a206d696e7420746f20746865207a65726f206164647265736040820152607360f81b606082015260800190565b60208082526029908201527f4e46543a204270732070726f7669646564206d757374206265206c657373207460408201527f68616e20392c3030300000000000000000000000000000000000000000000000606082015260800190565b6020808252602f908201527f416363657373436f6e74726f6c3a2063616e206f6e6c792072656e6f756e636560408201527f20726f6c657320666f722073656c660000000000000000000000000000000000606082015260800190565b9283526001600160a01b03919091166020830152604082015260600190565b918252602082015260400190565b6000808335601e19843603018112615416578283fd5b83018035915067ffffffffffffffff821115615430578283fd5b602001915036819003821315613ae257600080fd5b60405181810167ffffffffffffffff81118282101715615467576154676155e4565b604052919050565b600067ffffffffffffffff821115615489576154896155e4565b5060209081020190565b60006fffffffffffffffffffffffffffffffff8083168185168083038211156154be576154be6155ce565b01949350505050565b600082198211156154da576154da6155ce565b500190565b6000826154fa57634e487b7160e01b81526012600452602481fd5b500490565b6000816000190483118215151615615519576155196155ce565b500290565b600082821015615530576155306155ce565b500390565b60005b83811015615550578181015183820152602001615538565b83811115611c375750506000910152565b600081615570576155706155ce565b506000190190565b60028104600182168061558c57607f821691505b602082108114156155ad57634e487b7160e01b600052602260045260246000fd5b50919050565b60006000198214156155c7576155c76155ce565b5060010190565b634e487b7160e01b600052601160045260246000fd5b634e487b7160e01b600052604160045260246000fd5b60e01c90565b600060443d101561561057611b61565b600481823e6308c379a061562482516155fa565b1461562e57611b61565b6040513d600319016004823e80513d67ffffffffffffffff816024840111818411171561565e5750505050611b61565b828401925082519150808211156156785750505050611b61565b503d8301602082840101111561569057505050611b61565b601f01601f1916810160200160405291505090565b6001600160a01b03811681146156ba57600080fd5b50565b80151581146156ba57600080fd5b6001600160e01b0319811681146156ba57600080fdfea164736f6c6343000800000a",
  "linkReferences": {},
  "deployedLinkReferences": {}
}