{
  "_format": "hh-sol-artifact-1",
  "contractName": "AccessNFT",
  "sourceName": "contracts/AccessNFT.sol",
  "abi": [
    {
      "inputs": [
        {
          "internalType": "address",
          "name": "_controlCenter",
          "type": "address"
        },
        {
          "internalType": "address",
          "name": "_trustedForwarder",
          "type": "address"
        },
        {
          "internalType": "string",
          "name": "_uri",
          "type": "string"
        }
      ],
      "stateMutability": "nonpayable",
      "type": "constructor"
    },
    {
      "anonymous": false,
      "inputs": [
        {
          "indexed": true,
          "internalType": "address",
          "name": "redeemer",
          "type": "address"
        },
        {
          "indexed": true,
          "internalType": "uint256",
          "name": "nftTokenId",
          "type": "uint256"
        },
        {
          "indexed": true,
          "internalType": "uint256",
          "name": "accessNftId",
          "type": "uint256"
        },
        {
          "indexed": false,
          "internalType": "uint256",
          "name": "amount",
          "type": "uint256"
        }
      ],
      "name": "AccessNFTRedeemed",
      "type": "event"
    },
    {
      "anonymous": false,
      "inputs": [
        {
          "indexed": true,
          "internalType": "address",
          "name": "creator",
          "type": "address"
        },
        {
          "indexed": false,
          "internalType": "uint256[]",
          "name": "nftIds",
          "type": "uint256[]"
        },
        {
          "indexed": false,
          "internalType": "string[]",
          "name": "nftURIs",
          "type": "string[]"
        },
        {
          "indexed": false,
          "internalType": "uint256[]",
          "name": "acessNftIds",
          "type": "uint256[]"
        },
        {
          "indexed": false,
          "internalType": "string[]",
          "name": "accessNftURIs",
          "type": "string[]"
        },
        {
          "indexed": false,
          "internalType": "uint256[]",
          "name": "nftSupplies",
          "type": "uint256[]"
        }
      ],
      "name": "AccessNFTsCreated",
      "type": "event"
    },
    {
      "anonymous": false,
      "inputs": [
        {
          "indexed": false,
          "internalType": "bool",
          "name": "isTransferable",
          "type": "bool"
        }
      ],
      "name": "AccessTransferabilityUpdated",
      "type": "event"
    },
    {
      "anonymous": false,
      "inputs": [
        {
          "indexed": true,
          "internalType": "address",
          "name": "account",
          "type": "address"
        },
        {
          "indexed": true,
          "internalType": "address",
          "name": "operator",
          "type": "address"
        },
        {
          "indexed": false,
          "internalType": "bool",
          "name": "approved",
          "type": "bool"
        }
      ],
      "name": "ApprovalForAll",
      "type": "event"
    },
    {
      "anonymous": false,
      "inputs": [
        {
          "indexed": false,
          "internalType": "uint256",
          "name": "accessNftId",
          "type": "uint256"
        },
        {
          "indexed": false,
          "internalType": "address",
          "name": "creator",
          "type": "address"
        },
        {
          "indexed": false,
          "internalType": "uint256",
          "name": "lastTimeToRedeem",
          "type": "uint256"
        }
      ],
      "name": "LastRedeemTimeUpdated",
      "type": "event"
    },
    {
      "anonymous": false,
      "inputs": [
        {
          "indexed": false,
          "internalType": "address",
          "name": "account",
          "type": "address"
        }
      ],
      "name": "Paused",
      "type": "event"
    },
    {
      "anonymous": false,
      "inputs": [
        {
          "indexed": false,
          "internalType": "bool",
          "name": "transferable",
          "type": "bool"
        }
      ],
      "name": "RestrictedTransferUpdated",
      "type": "event"
    },
    {
      "anonymous": false,
      "inputs": [
        {
          "indexed": true,
          "internalType": "bytes32",
          "name": "role",
          "type": "bytes32"
        },
        {
          "indexed": true,
          "internalType": "bytes32",
          "name": "previousAdminRole",
          "type": "bytes32"
        },
        {
          "indexed": true,
          "internalType": "bytes32",
          "name": "newAdminRole",
          "type": "bytes32"
        }
      ],
      "name": "RoleAdminChanged",
      "type": "event"
    },
    {
      "anonymous": false,
      "inputs": [
        {
          "indexed": true,
          "internalType": "bytes32",
          "name": "role",
          "type": "bytes32"
        },
        {
          "indexed": true,
          "internalType": "address",
          "name": "account",
          "type": "address"
        },
        {
          "indexed": true,
          "internalType": "address",
          "name": "sender",
          "type": "address"
        }
      ],
      "name": "RoleGranted",
      "type": "event"
    },
    {
      "anonymous": false,
      "inputs": [
        {
          "indexed": true,
          "internalType": "bytes32",
          "name": "role",
          "type": "bytes32"
        },
        {
          "indexed": true,
          "internalType": "address",
          "name": "account",
          "type": "address"
        },
        {
          "indexed": true,
          "internalType": "address",
          "name": "sender",
          "type": "address"
        }
      ],
      "name": "RoleRevoked",
      "type": "event"
    },
    {
      "anonymous": false,
      "inputs": [
        {
          "indexed": false,
          "internalType": "uint256",
          "name": "royaltyBps",
          "type": "uint256"
        }
      ],
      "name": "RoyaltyUpdated",
      "type": "event"
    },
    {
      "anonymous": false,
      "inputs": [
        {
          "indexed": true,
          "internalType": "address",
          "name": "operator",
          "type": "address"
        },
        {
          "indexed": true,
          "internalType": "address",
          "name": "from",
          "type": "address"
        },
        {
          "indexed": true,
          "internalType": "address",
          "name": "to",
          "type": "address"
        },
        {
          "indexed": false,
          "internalType": "uint256[]",
          "name": "ids",
          "type": "uint256[]"
        },
        {
          "indexed": false,
          "internalType": "uint256[]",
          "name": "values",
          "type": "uint256[]"
        }
      ],
      "name": "TransferBatch",
      "type": "event"
    },
    {
      "anonymous": false,
      "inputs": [
        {
          "indexed": true,
          "internalType": "address",
          "name": "operator",
          "type": "address"
        },
        {
          "indexed": true,
          "internalType": "address",
          "name": "from",
          "type": "address"
        },
        {
          "indexed": true,
          "internalType": "address",
          "name": "to",
          "type": "address"
        },
        {
          "indexed": false,
          "internalType": "uint256",
          "name": "id",
          "type": "uint256"
        },
        {
          "indexed": false,
          "internalType": "uint256",
          "name": "value",
          "type": "uint256"
        }
      ],
      "name": "TransferSingle",
      "type": "event"
    },
    {
      "anonymous": false,
      "inputs": [
        {
          "indexed": false,
          "internalType": "string",
          "name": "value",
          "type": "string"
        },
        {
          "indexed": true,
          "internalType": "uint256",
          "name": "id",
          "type": "uint256"
        }
      ],
      "name": "URI",
      "type": "event"
    },
    {
      "anonymous": false,
      "inputs": [
        {
          "indexed": false,
          "internalType": "address",
          "name": "account",
          "type": "address"
        }
      ],
      "name": "Unpaused",
      "type": "event"
    },
    {
      "inputs": [],
      "name": "DEFAULT_ADMIN_ROLE",
      "outputs": [
        {
          "internalType": "bytes32",
          "name": "",
          "type": "bytes32"
        }
      ],
      "stateMutability": "view",
      "type": "function"
    },
    {
      "inputs": [],
      "name": "MINTER_ROLE",
      "outputs": [
        {
          "internalType": "bytes32",
          "name": "",
          "type": "bytes32"
        }
      ],
      "stateMutability": "view",
      "type": "function"
    },
    {
      "inputs": [],
      "name": "PAUSER_ROLE",
      "outputs": [
        {
          "internalType": "bytes32",
          "name": "",
          "type": "bytes32"
        }
      ],
      "stateMutability": "view",
      "type": "function"
    },
    {
      "inputs": [],
      "name": "TRANSFER_ROLE",
      "outputs": [
        {
          "internalType": "bytes32",
          "name": "",
          "type": "bytes32"
        }
      ],
      "stateMutability": "view",
      "type": "function"
    },
    {
      "inputs": [],
      "name": "_contractURI",
      "outputs": [
        {
          "internalType": "string",
          "name": "",
          "type": "string"
        }
      ],
      "stateMutability": "view",
      "type": "function"
    },
    {
      "inputs": [],
      "name": "accessNftIsTransferable",
      "outputs": [
        {
          "internalType": "bool",
          "name": "",
          "type": "bool"
        }
      ],
      "stateMutability": "view",
      "type": "function"
    },
    {
      "inputs": [
        {
          "internalType": "address",
          "name": "account",
          "type": "address"
        },
        {
          "internalType": "uint256",
          "name": "id",
          "type": "uint256"
        }
      ],
      "name": "balanceOf",
      "outputs": [
        {
          "internalType": "uint256",
          "name": "",
          "type": "uint256"
        }
      ],
      "stateMutability": "view",
      "type": "function"
    },
    {
      "inputs": [
        {
          "internalType": "address[]",
          "name": "accounts",
          "type": "address[]"
        },
        {
          "internalType": "uint256[]",
          "name": "ids",
          "type": "uint256[]"
        }
      ],
      "name": "balanceOfBatch",
      "outputs": [
        {
          "internalType": "uint256[]",
          "name": "",
          "type": "uint256[]"
        }
      ],
      "stateMutability": "view",
      "type": "function"
    },
    {
      "inputs": [
        {
          "internalType": "address",
          "name": "account",
          "type": "address"
        },
        {
          "internalType": "uint256",
          "name": "id",
          "type": "uint256"
        },
        {
          "internalType": "uint256",
          "name": "value",
          "type": "uint256"
        }
      ],
      "name": "burn",
      "outputs": [],
      "stateMutability": "nonpayable",
      "type": "function"
    },
    {
      "inputs": [
        {
          "internalType": "address",
          "name": "account",
          "type": "address"
        },
        {
          "internalType": "uint256[]",
          "name": "ids",
          "type": "uint256[]"
        },
        {
          "internalType": "uint256[]",
          "name": "values",
          "type": "uint256[]"
        }
      ],
      "name": "burnBatch",
      "outputs": [],
      "stateMutability": "nonpayable",
      "type": "function"
    },
    {
      "inputs": [],
      "name": "contractURI",
      "outputs": [
        {
          "internalType": "string",
          "name": "",
          "type": "string"
        }
      ],
      "stateMutability": "view",
      "type": "function"
    },
    {
      "inputs": [
        {
          "internalType": "address",
          "name": "to",
          "type": "address"
        },
        {
          "internalType": "string[]",
          "name": "_nftURIs",
          "type": "string[]"
        },
        {
          "internalType": "string[]",
          "name": "_accessNftURIs",
          "type": "string[]"
        },
        {
          "internalType": "uint256[]",
          "name": "_nftSupplies",
          "type": "uint256[]"
        },
        {
          "internalType": "bytes",
          "name": "data",
          "type": "bytes"
        }
      ],
      "name": "createAccessTokens",
      "outputs": [],
      "stateMutability": "nonpayable",
      "type": "function"
    },
    {
      "inputs": [
        {
          "internalType": "bytes32",
          "name": "role",
          "type": "bytes32"
        }
      ],
      "name": "getRoleAdmin",
      "outputs": [
        {
          "internalType": "bytes32",
          "name": "",
          "type": "bytes32"
        }
      ],
      "stateMutability": "view",
      "type": "function"
    },
    {
      "inputs": [
        {
          "internalType": "bytes32",
          "name": "role",
          "type": "bytes32"
        },
        {
          "internalType": "uint256",
          "name": "index",
          "type": "uint256"
        }
      ],
      "name": "getRoleMember",
      "outputs": [
        {
          "internalType": "address",
          "name": "",
          "type": "address"
        }
      ],
      "stateMutability": "view",
      "type": "function"
    },
    {
      "inputs": [
        {
          "internalType": "bytes32",
          "name": "role",
          "type": "bytes32"
        }
      ],
      "name": "getRoleMemberCount",
      "outputs": [
        {
          "internalType": "uint256",
          "name": "",
          "type": "uint256"
        }
      ],
      "stateMutability": "view",
      "type": "function"
    },
    {
      "inputs": [
        {
          "internalType": "bytes32",
          "name": "role",
          "type": "bytes32"
        },
        {
          "internalType": "address",
          "name": "account",
          "type": "address"
        }
      ],
      "name": "grantRole",
      "outputs": [],
      "stateMutability": "nonpayable",
      "type": "function"
    },
    {
      "inputs": [
        {
          "internalType": "bytes32",
          "name": "role",
          "type": "bytes32"
        },
        {
          "internalType": "address",
          "name": "account",
          "type": "address"
        }
      ],
      "name": "hasRole",
      "outputs": [
        {
          "internalType": "bool",
          "name": "",
          "type": "bool"
        }
      ],
      "stateMutability": "view",
      "type": "function"
    },
    {
      "inputs": [
        {
          "internalType": "address",
          "name": "account",
          "type": "address"
        },
        {
          "internalType": "address",
          "name": "operator",
          "type": "address"
        }
      ],
      "name": "isApprovedForAll",
      "outputs": [
        {
          "internalType": "bool",
          "name": "",
          "type": "bool"
        }
      ],
      "stateMutability": "view",
      "type": "function"
    },
    {
      "inputs": [
        {
          "internalType": "uint256",
          "name": "_nftId",
          "type": "uint256"
        }
      ],
      "name": "isRedeemable",
      "outputs": [
        {
          "internalType": "bool",
          "name": "",
          "type": "bool"
        }
      ],
      "stateMutability": "view",
      "type": "function"
    },
    {
      "inputs": [
        {
          "internalType": "address",
          "name": "forwarder",
          "type": "address"
        }
      ],
      "name": "isTrustedForwarder",
      "outputs": [
        {
          "internalType": "bool",
          "name": "",
          "type": "bool"
        }
      ],
      "stateMutability": "view",
      "type": "function"
    },
    {
      "inputs": [
        {
          "internalType": "uint256",
          "name": "",
          "type": "uint256"
        }
      ],
      "name": "lastTimeToRedeem",
      "outputs": [
        {
          "internalType": "uint256",
          "name": "",
          "type": "uint256"
        }
      ],
      "stateMutability": "view",
      "type": "function"
    },
    {
      "inputs": [
        {
          "internalType": "address",
          "name": "to",
          "type": "address"
        },
        {
          "internalType": "uint256",
          "name": "id",
          "type": "uint256"
        },
        {
          "internalType": "uint256",
          "name": "amount",
          "type": "uint256"
        },
        {
          "internalType": "bytes",
          "name": "data",
          "type": "bytes"
        }
      ],
      "name": "mint",
      "outputs": [],
      "stateMutability": "nonpayable",
      "type": "function"
    },
    {
      "inputs": [
        {
          "internalType": "address",
          "name": "to",
          "type": "address"
        },
        {
          "internalType": "uint256[]",
          "name": "ids",
          "type": "uint256[]"
        },
        {
          "internalType": "uint256[]",
          "name": "amounts",
          "type": "uint256[]"
        },
        {
          "internalType": "bytes",
          "name": "data",
          "type": "bytes"
        }
      ],
      "name": "mintBatch",
      "outputs": [],
      "stateMutability": "nonpayable",
      "type": "function"
    },
    {
      "inputs": [
        {
          "internalType": "bytes[]",
          "name": "data",
          "type": "bytes[]"
        }
      ],
      "name": "multicall",
      "outputs": [
        {
          "internalType": "bytes[]",
          "name": "results",
          "type": "bytes[]"
        }
      ],
      "stateMutability": "nonpayable",
      "type": "function"
    },
    {
      "inputs": [],
      "name": "nextTokenId",
      "outputs": [
        {
          "internalType": "uint256",
          "name": "",
          "type": "uint256"
        }
      ],
      "stateMutability": "view",
      "type": "function"
    },
    {
      "inputs": [
        {
          "internalType": "address",
          "name": "",
          "type": "address"
        },
        {
          "internalType": "address",
          "name": "",
          "type": "address"
        },
        {
          "internalType": "uint256[]",
          "name": "",
          "type": "uint256[]"
        },
        {
          "internalType": "uint256[]",
          "name": "",
          "type": "uint256[]"
        },
        {
          "internalType": "bytes",
          "name": "",
          "type": "bytes"
        }
      ],
      "name": "onERC1155BatchReceived",
      "outputs": [
        {
          "internalType": "bytes4",
          "name": "",
          "type": "bytes4"
        }
      ],
      "stateMutability": "nonpayable",
      "type": "function"
    },
    {
      "inputs": [
        {
          "internalType": "address",
          "name": "",
          "type": "address"
        },
        {
          "internalType": "address",
          "name": "",
          "type": "address"
        },
        {
          "internalType": "uint256",
          "name": "",
          "type": "uint256"
        },
        {
          "internalType": "uint256",
          "name": "",
          "type": "uint256"
        },
        {
          "internalType": "bytes",
          "name": "",
          "type": "bytes"
        }
      ],
      "name": "onERC1155Received",
      "outputs": [
        {
          "internalType": "bytes4",
          "name": "",
          "type": "bytes4"
        }
      ],
      "stateMutability": "nonpayable",
      "type": "function"
    },
    {
      "inputs": [
        {
          "internalType": "address",
          "name": "",
          "type": "address"
        },
        {
          "internalType": "address",
          "name": "",
          "type": "address"
        },
        {
          "internalType": "uint256",
          "name": "",
          "type": "uint256"
        },
        {
          "internalType": "bytes",
          "name": "",
          "type": "bytes"
        }
      ],
      "name": "onERC721Received",
      "outputs": [
        {
          "internalType": "bytes4",
          "name": "",
          "type": "bytes4"
        }
      ],
      "stateMutability": "nonpayable",
      "type": "function"
    },
    {
      "inputs": [],
      "name": "pause",
      "outputs": [],
      "stateMutability": "nonpayable",
      "type": "function"
    },
    {
      "inputs": [],
      "name": "paused",
      "outputs": [
        {
          "internalType": "bool",
          "name": "",
          "type": "bool"
        }
      ],
      "stateMutability": "view",
      "type": "function"
    },
    {
      "inputs": [
        {
          "internalType": "uint256",
          "name": "_tokenId",
          "type": "uint256"
        },
        {
          "internalType": "uint256",
          "name": "_amount",
          "type": "uint256"
        }
      ],
      "name": "redeemToken",
      "outputs": [],
      "stateMutability": "nonpayable",
      "type": "function"
    },
    {
      "inputs": [
        {
          "internalType": "bytes32",
          "name": "role",
          "type": "bytes32"
        },
        {
          "internalType": "address",
          "name": "account",
          "type": "address"
        }
      ],
      "name": "renounceRole",
      "outputs": [],
      "stateMutability": "nonpayable",
      "type": "function"
    },
    {
      "inputs": [
        {
          "internalType": "bytes32",
          "name": "role",
          "type": "bytes32"
        },
        {
          "internalType": "address",
          "name": "account",
          "type": "address"
        }
      ],
      "name": "revokeRole",
      "outputs": [],
      "stateMutability": "nonpayable",
      "type": "function"
    },
    {
      "inputs": [],
      "name": "royaltyBps",
      "outputs": [
        {
          "internalType": "uint256",
          "name": "",
          "type": "uint256"
        }
      ],
      "stateMutability": "view",
      "type": "function"
    },
    {
      "inputs": [
        {
          "internalType": "uint256",
          "name": "",
          "type": "uint256"
        },
        {
          "internalType": "uint256",
          "name": "salePrice",
          "type": "uint256"
        }
      ],
      "name": "royaltyInfo",
      "outputs": [
        {
          "internalType": "address",
          "name": "receiver",
          "type": "address"
        },
        {
          "internalType": "uint256",
          "name": "royaltyAmount",
          "type": "uint256"
        }
      ],
      "stateMutability": "view",
      "type": "function"
    },
    {
      "inputs": [
        {
          "internalType": "address",
          "name": "from",
          "type": "address"
        },
        {
          "internalType": "address",
          "name": "to",
          "type": "address"
        },
        {
          "internalType": "uint256[]",
          "name": "ids",
          "type": "uint256[]"
        },
        {
          "internalType": "uint256[]",
          "name": "amounts",
          "type": "uint256[]"
        },
        {
          "internalType": "bytes",
          "name": "data",
          "type": "bytes"
        }
      ],
      "name": "safeBatchTransferFrom",
      "outputs": [],
      "stateMutability": "nonpayable",
      "type": "function"
    },
    {
      "inputs": [
        {
          "internalType": "address",
          "name": "from",
          "type": "address"
        },
        {
          "internalType": "address",
          "name": "to",
          "type": "address"
        },
        {
          "internalType": "uint256",
          "name": "id",
          "type": "uint256"
        },
        {
          "internalType": "uint256",
          "name": "amount",
          "type": "uint256"
        },
        {
          "internalType": "bytes",
          "name": "data",
          "type": "bytes"
        }
      ],
      "name": "safeTransferFrom",
      "outputs": [],
      "stateMutability": "nonpayable",
      "type": "function"
    },
    {
      "inputs": [
        {
          "internalType": "bool",
          "name": "_isTransferable",
          "type": "bool"
        }
      ],
      "name": "setAccessNftTransferability",
      "outputs": [],
      "stateMutability": "nonpayable",
      "type": "function"
    },
    {
      "inputs": [
        {
          "internalType": "address",
          "name": "operator",
          "type": "address"
        },
        {
          "internalType": "bool",
          "name": "approved",
          "type": "bool"
        }
      ],
      "name": "setApprovalForAll",
      "outputs": [],
      "stateMutability": "nonpayable",
      "type": "function"
    },
    {
      "inputs": [
        {
          "internalType": "string",
          "name": "_uri",
          "type": "string"
        }
      ],
      "name": "setContractURI",
      "outputs": [],
      "stateMutability": "nonpayable",
      "type": "function"
    },
    {
      "inputs": [
        {
          "internalType": "uint256",
          "name": "_tokenId",
          "type": "uint256"
        },
        {
          "internalType": "uint256",
          "name": "_secondsUntilRedeem",
          "type": "uint256"
        }
      ],
      "name": "setLastTimeToRedeem",
      "outputs": [],
      "stateMutability": "nonpayable",
      "type": "function"
    },
    {
      "inputs": [
        {
          "internalType": "bool",
          "name": "_restrictedTransfer",
          "type": "bool"
        }
      ],
      "name": "setRestrictedTransfer",
      "outputs": [],
      "stateMutability": "nonpayable",
      "type": "function"
    },
    {
      "inputs": [
        {
          "internalType": "uint256",
          "name": "_royaltyBps",
          "type": "uint256"
        }
      ],
      "name": "setRoyaltyBps",
      "outputs": [],
      "stateMutability": "nonpayable",
      "type": "function"
    },
    {
      "inputs": [
        {
          "internalType": "bytes4",
          "name": "interfaceId",
          "type": "bytes4"
        }
      ],
      "name": "supportsInterface",
      "outputs": [
        {
          "internalType": "bool",
          "name": "",
          "type": "bool"
        }
      ],
      "stateMutability": "view",
      "type": "function"
    },
    {
      "inputs": [
        {
          "internalType": "uint256",
          "name": "",
          "type": "uint256"
        }
      ],
      "name": "tokenState",
      "outputs": [
        {
          "internalType": "address",
          "name": "creator",
          "type": "address"
        },
        {
          "internalType": "string",
          "name": "uri",
          "type": "string"
        },
        {
          "internalType": "bool",
          "name": "isRedeemable",
          "type": "bool"
        },
        {
          "internalType": "uint256",
          "name": "accessNftId",
          "type": "uint256"
        },
        {
          "internalType": "enum AccessNFT.UnderlyingType",
          "name": "underlyingType",
          "type": "uint8"
        }
      ],
      "stateMutability": "view",
      "type": "function"
    },
    {
      "inputs": [
        {
          "internalType": "uint256",
          "name": "_nftId",
          "type": "uint256"
        }
      ],
      "name": "tokenURI",
      "outputs": [
        {
          "internalType": "string",
          "name": "",
          "type": "string"
        }
      ],
      "stateMutability": "view",
      "type": "function"
    },
    {
      "inputs": [
        {
          "internalType": "uint256",
          "name": "id",
          "type": "uint256"
        }
      ],
      "name": "totalSupply",
      "outputs": [
        {
          "internalType": "uint256",
          "name": "",
          "type": "uint256"
        }
      ],
      "stateMutability": "view",
      "type": "function"
    },
    {
      "inputs": [],
      "name": "transfersRestricted",
      "outputs": [
        {
          "internalType": "bool",
          "name": "",
          "type": "bool"
        }
      ],
      "stateMutability": "view",
      "type": "function"
    },
    {
      "inputs": [],
      "name": "unpause",
      "outputs": [],
      "stateMutability": "nonpayable",
      "type": "function"
    },
    {
      "inputs": [
        {
          "internalType": "uint256",
          "name": "_nftId",
          "type": "uint256"
        }
      ],
      "name": "uri",
      "outputs": [
        {
          "internalType": "string",
          "name": "",
          "type": "string"
        }
      ],
      "stateMutability": "view",
      "type": "function"
    }
  ],
  "bytecode": "0x60806040523480156200001157600080fd5b506040516200590d3803806200590d833981016040819052620000349162000417565b81818062000042816200013f565b506005805460ff191690556200006360006200005d62000158565b62000175565b620000927f9f2df0fed2c77648de5860a4cc508cd0818c85b8b8a1ab4ceeef8d981c8956a66200005d62000158565b620000c17f65d7a28e3265b37a6474929f336521b332c1681b933f6cb9f3376673440d862a6200005d62000158565b50600780546001600160a01b03199081166001600160a01b03938416179091556008805490911691851691909117905580516200010690600b90602084019062000359565b50620001367f8502233096d909befbda0999bb8ea2f3a6be3c138b9fbf003752a4c8bce86f6c6200005d62000158565b50505062000561565b80516200015490600490602084019062000359565b5050565b60006200016f620001b860201b62001f2e1760201c565b90505b90565b6200018c8282620001f860201b62001f5c1760201c565b6000828152600160209081526040909120620001b391839062001f6a62000204821b17901c565b505050565b6000620001c53362000224565b15620001db575060131936013560601c62000172565b620001f06200023b60201b62001f7f1760201c565b905062000172565b6200015482826200023f565b60006200021b836001600160a01b038416620002c9565b90505b92915050565b6007546001600160a01b038281169116145b919050565b3390565b6200024b828262000318565b62000154576000828152602081815260408083206001600160a01b03851684529091529020805460ff191660011790556200028562000158565b6001600160a01b0316816001600160a01b0316837f2f8788117e7eff1d82e926ec794901d17c78024a50270940304540a733656f0d60405160405180910390a45050565b6000620002d7838362000341565b6200030f575081546001818101845560008481526020808220909301849055845484825282860190935260409020919091556200021e565b5060006200021e565b6000918252602082815260408084206001600160a01b0393909316845291905290205460ff1690565b60009081526001919091016020526040902054151590565b82805462000367906200050e565b90600052602060002090601f0160209004810192826200038b5760008555620003d6565b82601f10620003a657805160ff1916838001178555620003d6565b82800160010185558215620003d6579182015b82811115620003d6578251825591602001919060010190620003b9565b50620003e4929150620003e8565b5090565b5b80821115620003e45760008155600101620003e9565b80516001600160a01b03811681146200023657600080fd5b6000806000606084860312156200042c578283fd5b6200043784620003ff565b9250602062000448818601620003ff565b60408601519093506001600160401b038082111562000465578384fd5b818701915087601f83011262000479578384fd5b8151818111156200048e576200048e6200054b565b604051601f8201601f1916810185018381118282101715620004b457620004b46200054b565b60405281815283820185018a1015620004cb578586fd5b8592505b81831015620004ee5783830185015181840186015291840191620004cf565b81831115620004ff57858583830101525b80955050505050509250925092565b6002810460018216806200052357607f821691505b602082108114156200054557634e487b7160e01b600052602260045260246000fd5b50919050565b634e487b7160e01b600052604160045260246000fd5b61539c80620005716000396000f3fe608060405234801561001057600080fd5b50600436106103355760003560e01c80639010d07c116101b2578063c87b56dd116100f9578063e63ab1e9116100a2578063f23a6e611161007c578063f23a6e6114610687578063f242432a1461069a578063f48cc326146106ad578063f5298aca146106c057610335565b8063e63ab1e914610664578063e8a3d4851461066c578063e985e9c51461067457610335565b8063d5391393116100d3578063d539139314610641578063d547741f14610649578063d9371ddd1461065c57610335565b8063c87b56dd14610383578063ca15c8731461061b578063ca551b021461062e57610335565b8063a22cb4651161015b578063bd85b03911610135578063bd85b039146105f8578063c0e727401461060b578063c63adb2b1461061357610335565b8063a22cb465146105b2578063ac9650d8146105c5578063bc197c81146105e557610335565b80639745cc3d1161018c5780639745cc3d146105735780639f1d947714610597578063a217fddf146105aa57610335565b80639010d07c1461052d57806391d148541461054d578063938e3d7b1461056057610335565b806336568abe116102815780635c975abb1161022a57806375794a3c1161020457806375794a3c146105025780638423df791461050a5780638456cb59146105125780638ba448c21461051a57610335565b80635c975abb146104d45780636b20c454146104dc578063731133e9146104ef57610335565b80634487f6b41161025b5780634487f6b41461048e5780634e1273f4146104a1578063572b6c05146104c157610335565b806336568abe146104605780633f4ba83a14610473578063400c477a1461047b57610335565b80631f7fdffa116102e35780632a55205a116102bd5780632a55205a146104195780632eb2c2d61461043a5780632f2ff15d1461044d57610335565b80631f7fdffa146103eb578063206b60f9146103fe578063248a9ca31461040657610335565b8063150b7a0211610314578063150b7a02146103a357806317ffeba2146103c35780631f72d831146103d657610335565b8062fdd58e1461033a57806301ffc9a7146103635780630e89341c14610383575b600080fd5b61034d610348366004613c7f565b6106d3565b60405161035a91906143c7565b60405180910390f35b610376610371366004613ed4565b61072f565b60405161035a91906143bc565b610396610391366004613e5f565b61075a565b60405161035a91906143fc565b6103b66103b13660046139af565b6107ff565b60405161035a91906143e7565b61034d6103d1366004613e5f565b61080f565b6103e96103e4366004613e5f565b610821565b005b6103e96103f9366004613bc7565b610940565b61034d610a3a565b61034d610414366004613e5f565b610a5e565b61042c610427366004613eb3565b610a73565b60405161035a92919061425b565b6103e9610448366004613905565b610bb3565b6103e961045b366004613e8f565b610c11565b6103e961046e366004613e8f565b610c38565b6103e9610c5a565b6103e9610489366004613a80565b610cac565b6103e961049c366004613eb3565b61127a565b6104b46104af366004613d27565b611366565b60405161035a91906142d4565b6103766104cf366004613895565b611486565b61037661149a565b6103e96104ea366004613b54565b6114a4565b6103e96104fd366004613cde565b6114f9565b61034d611577565b61037661157d565b6103e9611586565b6103e9610528366004613e27565b6115d6565b61054061053b366004613eb3565b61163d565b60405161035a919061410e565b61037661055b366004613e8f565b61165c565b6103e961056e366004613f0c565b611685565b610586610581366004613e5f565b6117a7565b60405161035a9594939291906141fb565b6103e96105a5366004613e27565b61186f565b61034d6118da565b6103e96105c0366004613c52565b6118df565b6105d86105d3366004613de7565b6119ad565b60405161035a9190614274565b6103b66105f3366004613905565b611acc565b61034d610606366004613e5f565b611add565b610396611aef565b61034d611b7d565b61034d610629366004613e5f565b611b83565b6103e961063c366004613eb3565b611b9a565b61034d611d39565b6103e9610657366004613e8f565b611d5d565b610376611d67565b61034d611d75565b610396611d99565b6103766106823660046138cd565b611e2b565b6103b6610695366004613a19565b611e59565b6103e96106a8366004613a19565b611e6a565b6103766106bb366004613e5f565b611ec1565b6103e96106ce366004613caa565b611ed9565b60006001600160a01b0383166107045760405162461bcd60e51b81526004016106fb906145ef565b60405180910390fd5b5060008181526002602090815260408083206001600160a01b03861684529091529020545b92915050565b600061073a82611f83565b8061072957506001600160e01b0319821663152a902d60e11b1492915050565b6000818152600d6020526040902060010180546060919061077a906151ff565b80601f01602080910402602001604051908101604052809291908181526020018280546107a6906151ff565b80156107f35780601f106107c8576101008083540402835291602001916107f3565b820191906000526020600020905b8154815290600101906020018083116107d657829003601f168201915b50505050509050919050565b630a85bd0160e11b949350505050565b600e6020526000908152604090205481565b61082e600061055b611f8e565b61084a5760405162461bcd60e51b81526004016106fb90614535565b600860009054906101000a90046001600160a01b03166001600160a01b031663fd967f476040518163ffffffff1660e01b815260040160206040518083038186803b15801561089857600080fd5b505afa1580156108ac573d6000803e3d6000fd5b505050506040513d601f19601f820116820180604052508101906108d09190613f40565b6fffffffffffffffffffffffffffffffff1681106109005760405162461bcd60e51b81526004016106fb90614d1f565b600a8190556040517f244ea8d7627f5a08f4299862bd5a45752842c183aee5b0fb0d1e4887bfa605b3906109359083906143c7565b60405180910390a150565b60005b8351811015610a275760095484828151811061096f57634e487b7160e01b600052603260045260246000fd5b6020026020010151106109945760405162461bcd60e51b81526004016106fb90614592565b6000600d60008684815181106109ba57634e487b7160e01b600052603260045260246000fd5b60209081029190910181015182528101919091526040016000206004015460ff1660028111156109fa57634e487b7160e01b600052602160045260246000fd5b14610a175760405162461bcd60e51b81526004016106fb9061464c565b610a208161523a565b9050610943565b50610a3484848484611f9d565b50505050565b7f8502233096d909befbda0999bb8ea2f3a6be3c138b9fbf003752a4c8bce86f6c81565b60009081526020819052604090206001015490565b60085460405163f2aab4b360e01b815260009182916001600160a01b039091169063f2aab4b390610aa890309060040161410e565b60206040518083038186803b158015610ac057600080fd5b505afa158015610ad4573d6000803e3d6000fd5b505050506040513d601f19601f82011682018060405250810190610af891906138b1565b9150600860009054906101000a90046001600160a01b03166001600160a01b031663fd967f476040518163ffffffff1660e01b815260040160206040518083038186803b158015610b4857600080fd5b505afa158015610b5c573d6000803e3d6000fd5b505050506040513d601f19601f82011682018060405250810190610b809190613f40565b6fffffffffffffffffffffffffffffffff16600a5484610ba09190615186565b610baa9190615166565b90509250929050565b610bbb611f8e565b6001600160a01b0316856001600160a01b03161480610be15750610be185610682611f8e565b610bfd5760405162461bcd60e51b81526004016106fb9061493a565b610c0a8585858585611ff1565b5050505050565b610c1b82826121c5565b6000828152600160205260409020610c339082611f6a565b505050565b610c4282826121e9565b6000828152600160205260409020610c33908261222b565b610c867f65d7a28e3265b37a6474929f336521b332c1681b933f6cb9f3376673440d862a61055b611f8e565b610ca25760405162461bcd60e51b81526004016106fb90614dc2565b610caa612240565b565b610cb461149a565b15610cd15760405162461bcd60e51b81526004016106fb90614861565b610cfd7f9f2df0fed2c77648de5860a4cc508cd0818c85b8b8a1ab4ceeef8d981c8956a661055b611f8e565b610d195760405162461bcd60e51b81526004016106fb906149f4565b8683148015610d2757508685145b610d435760405162461bcd60e51b81526004016106fb90614cc2565b86610d605760405162461bcd60e51b81526004016106fb90614898565b60008767ffffffffffffffff811115610d8957634e487b7160e01b600052604160045260246000fd5b604051908082528060200260200182016040528015610db2578160200160208202803683370190505b50905060008867ffffffffffffffff811115610dde57634e487b7160e01b600052604160045260246000fd5b604051908082528060200260200182016040528015610e07578160200160208202803683370190505b5060095490915060005b8a8110156111505781838281518110610e3a57634e487b7160e01b600052603260045260246000fd5b6020026020010181815250506040518060a00160405280610e59611f8e565b6001600160a01b031681526020018b8b84818110610e8757634e487b7160e01b600052603260045260246000fd5b9050602002810190610e9991906150bb565b8080601f016020809104026020016040519081016040528093929190818152602001838380828437600092018290525093855250505060208201819052604082018190526060909101526000838152600d602090815260409091208251815473ffffffffffffffffffffffffffffffffffffffff19166001600160a01b039091161781558282015180519192610f3792600185019290910190613628565b5060408201516002808301805492151560ff19938416179055606084015160038401556080840151600484018054919390929116906001908490811115610f8e57634e487b7160e01b600052602160045260246000fd5b0217905550610fa29150600190508361514e565b915081848281518110610fc557634e487b7160e01b600052603260045260246000fd5b6020026020010181815250506040518060a00160405280610fe4611f8e565b6001600160a01b031681526020018d8d8481811061101257634e487b7160e01b600052603260045260246000fd5b905060200281019061102491906150bb565b8080601f01602080910402602001604051908101604052809392919081815260200183838082843760009201919091525050509082525060016020820181905260409091019061107490856151a5565b8152602001600090526000838152600d602090815260409091208251815473ffffffffffffffffffffffffffffffffffffffff19166001600160a01b0390911617815582820151805191926110d192600185019290910190613628565b5060408201516002808301805492151560ff1993841617905560608401516003840155608084015160048401805491939092911690600190849081111561112857634e487b7160e01b600052602160045260246000fd5b021790555061113c9150600190508361514e565b9150806111488161523a565b915050610e11565b50806009819055506111a430838989808060200260200160405190810160405280939291908181526020018383602002808284376000920182905250604080516020810190915290815292506122ae915050565b6112168c8489898080602002602001604051908101604052809392919081815260200183836020028082843760009201919091525050604080516020601f8d018190048102820181019092528b815292508b91508a90819084018382808284376000920191909152506122ae92505050565b61121e611f8e565b6001600160a01b03167fe309c6cae6e35dcc6c2f37d5da32b19e0346074be56b9722cdf852d20fced6ee848d8d868e8e8e8e6040516112649897969594939291906142e7565b60405180910390a2505050505050505050505050565b6000828152600d60205260409020546001600160a01b031661129a611f8e565b6001600160a01b0316146112c05760405162461bcd60e51b81526004016106fb90614e1f565b6000828152600d602052604090206002015460ff166112f15760405162461bcd60e51b81526004016106fb90614c08565b6000811561130857611303824261514e565b61130c565b6000195b6000848152600e6020526040902081905590507ff01057f3c55599179571189c7758b5ce72994adea5a8dc33095fdc8fdff0711983611349611f8e565b836040516113599392919061508e565b60405180910390a1505050565b606081518351146113895760405162461bcd60e51b81526004016106fb90614f36565b6000835167ffffffffffffffff8111156113b357634e487b7160e01b600052604160045260246000fd5b6040519080825280602002602001820160405280156113dc578160200160208202803683370190505b50905060005b845181101561147e5761144385828151811061140e57634e487b7160e01b600052603260045260246000fd5b602002602001015185838151811061143657634e487b7160e01b600052603260045260246000fd5b60200260200101516106d3565b82828151811061146357634e487b7160e01b600052603260045260246000fd5b60209081029190910101526114778161523a565b90506113e2565b509392505050565b6007546001600160a01b0390811691161490565b60055460ff165b90565b6114ac611f8e565b6001600160a01b0316836001600160a01b031614806114d257506114d283610682611f8e565b6114ee5760405162461bcd60e51b81526004016106fb906147a7565b610c3383838361234d565b600954831061151a5760405162461bcd60e51b81526004016106fb90614592565b6000838152600d602052604081206004015460ff16600281111561154e57634e487b7160e01b600052602160045260246000fd5b1461156b5760405162461bcd60e51b81526004016106fb9061464c565b610a34848484846123eb565b60095481565b600c5460ff1681565b6115b27f65d7a28e3265b37a6474929f336521b332c1681b933f6cb9f3376673440d862a61055b611f8e565b6115ce5760405162461bcd60e51b81526004016106fb90614e7c565b610caa61243f565b6115e3600061055b611f8e565b6115ff5760405162461bcd60e51b81526004016106fb90614535565b600c805460ff19168215151790556040517ffb4ba02cee22486df888d7ffb97c6100ec3193781e025cb9a4bc6fc358d626cc906109359083906143bc565b6000828152600160205260408120611655908361249a565b9392505050565b6000918252602082815260408084206001600160a01b0393909316845291905290205460ff1690565b6008546040805163a217fddf60e01b815290516001600160a01b03909216916391d1485491839163a217fddf91600480820192602092909190829003018186803b1580156116d257600080fd5b505afa1580156116e6573d6000803e3d6000fd5b505050506040513d601f19601f8201168201806040525081019061170a9190613e77565b611712611f8e565b6040518363ffffffff1660e01b815260040161172f9291906143d0565b60206040518083038186803b15801561174757600080fd5b505afa15801561175b573d6000803e3d6000fd5b505050506040513d601f19601f8201168201806040525081019061177f9190613e43565b61179b5760405162461bcd60e51b81526004016106fb906146ed565b610c33600b83836136ac565b600d60205260009081526040902080546001820180546001600160a01b0390921692916117d3906151ff565b80601f01602080910402602001604051908101604052809291908181526020018280546117ff906151ff565b801561184c5780601f106118215761010080835404028352916020019161184c565b820191906000526020600020905b81548152906001019060200180831161182f57829003601f168201915b5050505060028301546003840154600490940154929360ff918216939092501685565b61187c600061055b611f8e565b6118985760405162461bcd60e51b81526004016106fb90614535565b600c805461ff001916610100831515021790556040517e4701906729f069b76305c2c6a0bfa1d4ba4ff97d08206c8716078bf7a5e027906109359083906143bc565b600081565b816001600160a01b03166118f1611f8e565b6001600160a01b031614156119185760405162461bcd60e51b81526004016106fb90614ed9565b8060036000611925611f8e565b6001600160a01b03908116825260208083019390935260409182016000908120918716808252919093529120805460ff191692151592909217909155611969611f8e565b6001600160a01b03167f17307eab39ab6107e8899845ad3d59bd9653f200f220920489ca2b5937696c31836040516119a191906143bc565b60405180910390a35050565b60608167ffffffffffffffff8111156119d657634e487b7160e01b600052604160045260246000fd5b604051908082528060200260200182016040528015611a0957816020015b60608152602001906001900390816119f45790505b50905060005b82811015611ac557611a8730858584818110611a3b57634e487b7160e01b600052603260045260246000fd5b9050602002810190611a4d91906150bb565b8080601f0160208091040260200160405190810160405280939291908181526020018383808284376000920191909152506124a692505050565b828281518110611aa757634e487b7160e01b600052603260045260246000fd5b60200260200101819052508080611abd9061523a565b915050611a0f565b5092915050565b63bc197c8160e01b95945050505050565b60009081526006602052604090205490565b600b8054611afc906151ff565b80601f0160208091040260200160405190810160405280929190818152602001828054611b28906151ff565b8015611b755780601f10611b4a57610100808354040283529160200191611b75565b820191906000526020600020905b815481529060010190602001808311611b5857829003601f168201915b505050505081565b600a5481565b6000818152600160205260408120610729906124cb565b611ba261149a565b15611bbf5760405162461bcd60e51b81526004016106fb90614861565b6000611bc9611f8e565b6000848152600d602052604090206002015490915060ff16611bfd5760405162461bcd60e51b81526004016106fb90614c65565b81611c0882856106d3565b10158015611c165750600082115b611c325760405162461bcd60e51b81526004016106fb90614804565b6000838152600e602052604090205442111580611c5b57506000838152600e6020526040902054155b611c775760405162461bcd60e51b81526004016106fb90614bab565b611c82818484611ed9565b6000838152600d602052604090819020600301549051637921219560e11b8152309063f242432a90611cbe9083908690869089906004016141c3565b600060405180830381600087803b158015611cd857600080fd5b505af1158015611cec573d6000803e3d6000fd5b505050508084836001600160a01b03167fa70022dc131dbd0be52c08bf87947e36b3e7d4934dce1efecf2d261c381d101786604051611d2b91906143c7565b60405180910390a450505050565b7f9f2df0fed2c77648de5860a4cc508cd0818c85b8b8a1ab4ceeef8d981c8956a681565b610c4282826124d6565b600c54610100900460ff1681565b7f65d7a28e3265b37a6474929f336521b332c1681b933f6cb9f3376673440d862a81565b6060600b8054611da8906151ff565b80601f0160208091040260200160405190810160405280929190818152602001828054611dd4906151ff565b8015611e215780601f10611df657610100808354040283529160200191611e21565b820191906000526020600020905b815481529060010190602001808311611e0457829003601f168201915b5050505050905090565b6001600160a01b03918216600090815260036020908152604080832093909416825291909152205460ff1690565b63f23a6e6160e01b95945050505050565b611e72611f8e565b6001600160a01b0316856001600160a01b03161480611e985750611e9885610682611f8e565b611eb45760405162461bcd60e51b81526004016106fb906147a7565b610c0a85858585856124f5565b6000908152600d602052604090206002015460ff1690565b611ee1611f8e565b6001600160a01b0316836001600160a01b03161480611f075750611f0783610682611f8e565b611f235760405162461bcd60e51b81526004016106fb906147a7565b610c3383838361263c565b6000611f3933611486565b15611f4d575060131936013560601c6114a1565b611f55611f7f565b90506114a1565b611f66828261266f565b5050565b6000611655836001600160a01b0384166126f4565b3390565b60006107298261273e565b6000611f98611f2e565b905090565b611fc97f9f2df0fed2c77648de5860a4cc508cd0818c85b8b8a1ab4ceeef8d981c8956a661055b611f8e565b611fe55760405162461bcd60e51b81526004016106fb90614a94565b610a34848484846122ae565b81518351146120125760405162461bcd60e51b81526004016106fb90614f93565b6001600160a01b0384166120385760405162461bcd60e51b81526004016106fb906148f5565b6000612042611f8e565b9050612052818787878787612763565b60005b845181101561215757600085828151811061208057634e487b7160e01b600052603260045260246000fd5b6020026020010151905060008583815181106120ac57634e487b7160e01b600052603260045260246000fd5b60209081029190910181015160008481526002835260408082206001600160a01b038e1683529093529190912054909150818110156120fd5760405162461bcd60e51b81526004016106fb90614af1565b60008381526002602090815260408083206001600160a01b038e8116855292528083208585039055908b1682528120805484929061213c90849061514e565b92505081905550505050806121509061523a565b9050612055565b50846001600160a01b0316866001600160a01b0316826001600160a01b03167f4a39dc06d4c0dbc64b70af90fd698a233a518aa5d07e595d983b8c0526c8f7fb87876040516121a792919061438e565b60405180910390a46121bd8187878787876128d1565b505050505050565b6121ce82610a5e565b6121df816121da611f8e565b6129df565b610c33838361266f565b6121f1611f8e565b6001600160a01b0316816001600160a01b0316146122215760405162461bcd60e51b81526004016106fb90615031565b611f668282612a43565b6000611655836001600160a01b038416612ac6565b61224861149a565b6122645760405162461bcd60e51b81526004016106fb906144fe565b6005805460ff191690557f5db9ee0a495bf2e6ff9c91a7834c1ba4fdd244a5e8aa4e537bd38aeae4b073aa612297611f8e565b6040516122a4919061410e565b60405180910390a1565b6122ba84848484612be3565b60005b8351811015610c0a578281815181106122e657634e487b7160e01b600052603260045260246000fd5b60200260200101516006600086848151811061231257634e487b7160e01b600052603260045260246000fd5b602002602001015181526020019081526020016000206000828254612337919061514e565b9091555061234690508161523a565b90506122bd565b612358838383612d65565b60005b8251811015610a345781818151811061238457634e487b7160e01b600052603260045260246000fd5b6020026020010151600660008584815181106123b057634e487b7160e01b600052603260045260246000fd5b6020026020010151815260200190815260200160002060008282546123d591906151a5565b909155506123e490508161523a565b905061235b565b6124177f9f2df0fed2c77648de5860a4cc508cd0818c85b8b8a1ab4ceeef8d981c8956a661055b611f8e565b6124335760405162461bcd60e51b81526004016106fb90614a94565b610a3484848484612f0b565b61244761149a565b156124645760405162461bcd60e51b81526004016106fb90614861565b6005805460ff191660011790557f62e78cea01bee320cd4e420270b5ea74000d11b0c9f74754ebdbfc544b05a258612297611f8e565b60006116558383612f40565b6060611655838360405180606001604052806027815260200161536960279139612f78565b600061072982613014565b6124df82610a5e565b6124eb816121da611f8e565b610c338383612a43565b6001600160a01b03841661251b5760405162461bcd60e51b81526004016106fb906148f5565b6000612525611f8e565b905061254581878761253688613018565b61253f88613018565b87612763565b60008481526002602090815260408083206001600160a01b038a168452909152902054838110156125885760405162461bcd60e51b81526004016106fb90614af1565b60008581526002602090815260408083206001600160a01b038b81168552925280832087850390559088168252812080548692906125c790849061514e565b92505081905550856001600160a01b0316876001600160a01b0316836001600160a01b03167fc3d58168c5ae7397731d063d5bbf3d657854427343f4c083240f7aacaa2d0f62888860405161261d9291906150ad565b60405180910390a4612633828888888888613071565b50505050505050565b612647838383613142565b600082815260066020526040812080548392906126659084906151a5565b9091555050505050565b612679828261165c565b611f66576000828152602081815260408083206001600160a01b03851684529091529020805460ff191660011790556126b0611f8e565b6001600160a01b0316816001600160a01b0316837f2f8788117e7eff1d82e926ec794901d17c78024a50270940304540a733656f0d60405160405180910390a45050565b60006127008383613255565b61273657508154600181810184556000848152602080822090930184905584548482528286019093526040902091909155610729565b506000610729565b60006001600160e01b03198216630271189760e51b148061072957506107298261326d565b6127718686868686866132ad565b600c5460ff16801561278b57506001600160a01b03851615155b801561279f57506001600160a01b03841615155b1561281a576127ce7f8502233096d909befbda0999bb8ea2f3a6be3c138b9fbf003752a4c8bce86f6c8661165c565b806127fe57506127fe7f8502233096d909befbda0999bb8ea2f3a6be3c138b9fbf003752a4c8bce86f6c8561165c565b61281a5760405162461bcd60e51b81526004016106fb90614b4e565b60005b835181101561263357600d600085838151811061284a57634e487b7160e01b600052603260045260246000fd5b60209081029190910181015182528101919091526040016000206002015460ff161580156128805750600c54610100900460ff16155b156128bf576001600160a01b03861615806128a357506001600160a01b03861630145b6128bf5760405162461bcd60e51b81526004016106fb90614997565b806128c98161523a565b91505061281d565b6128e3846001600160a01b03166132bb565b156121bd5760405163bc197c8160e01b81526001600160a01b0385169063bc197c819061291c9089908990889088908890600401614122565b602060405180830381600087803b15801561293657600080fd5b505af1925050508015612966575060408051601f3d908101601f1916820190925261296391810190613ef0565b60015b6129af57612972615287565b8061297d5750612997565b8060405162461bcd60e51b81526004016106fb91906143fc565b60405162461bcd60e51b81526004016106fb9061440f565b6001600160e01b0319811663bc197c8160e01b146126335760405162461bcd60e51b81526004016106fb906144a1565b6129e9828261165c565b611f6657612a01816001600160a01b031660146132c1565b612a0c8360206132c1565b604051602001612a1d92919061408d565b60408051601f198184030181529082905262461bcd60e51b82526106fb916004016143fc565b612a4d828261165c565b15611f66576000828152602081815260408083206001600160a01b03851684529091529020805460ff19169055612a82611f8e565b6001600160a01b0316816001600160a01b0316837ff6391f5c32d9c69d2a47ea670b442974b53935d1edc7fd64eb21e047a839171b60405160405180910390a45050565b60008181526001830160205260408120548015612bd9576000612aea6001836151a5565b8554909150600090612afe906001906151a5565b9050818114612b7f576000866000018281548110612b2c57634e487b7160e01b600052603260045260246000fd5b9060005260206000200154905080876000018481548110612b5d57634e487b7160e01b600052603260045260246000fd5b6000918252602080832090910192909255918252600188019052604090208390555b8554869080612b9e57634e487b7160e01b600052603160045260246000fd5b600190038181906000526020600020016000905590558560010160008681526020019081526020016000206000905560019350505050610729565b6000915050610729565b6001600160a01b038416612c095760405162461bcd60e51b81526004016106fb90614ff0565b8151835114612c2a5760405162461bcd60e51b81526004016106fb90614f93565b6000612c34611f8e565b9050612c4581600087878787612763565b60005b8451811015612cfd57838181518110612c7157634e487b7160e01b600052603260045260246000fd5b602002602001015160026000878481518110612c9d57634e487b7160e01b600052603260045260246000fd5b602002602001015181526020019081526020016000206000886001600160a01b03166001600160a01b031681526020019081526020016000206000828254612ce5919061514e565b90915550819050612cf58161523a565b915050612c48565b50846001600160a01b031660006001600160a01b0316826001600160a01b03167f4a39dc06d4c0dbc64b70af90fd698a233a518aa5d07e595d983b8c0526c8f7fb8787604051612d4e92919061438e565b60405180910390a4610c0a816000878787876128d1565b6001600160a01b038316612d8b5760405162461bcd60e51b81526004016106fb90614a51565b8051825114612dac5760405162461bcd60e51b81526004016106fb90614f93565b6000612db6611f8e565b9050612dd681856000868660405180602001604052806000815250612763565b60005b8351811015612eba576000848281518110612e0457634e487b7160e01b600052603260045260246000fd5b602002602001015190506000848381518110612e3057634e487b7160e01b600052603260045260246000fd5b60209081029190910181015160008481526002835260408082206001600160a01b038c168352909352919091205490915081811015612e815760405162461bcd60e51b81526004016106fb906146a9565b60009283526002602090815260408085206001600160a01b038b1686529091529092209103905580612eb28161523a565b915050612dd9565b5060006001600160a01b0316846001600160a01b0316826001600160a01b03167f4a39dc06d4c0dbc64b70af90fd698a233a518aa5d07e595d983b8c0526c8f7fb8686604051611d2b92919061438e565b612f1784848484613480565b60008381526006602052604081208054849290612f3590849061514e565b909155505050505050565b6000826000018281548110612f6557634e487b7160e01b600052603260045260246000fd5b9060005260206000200154905092915050565b6060612f83846132bb565b612f9f5760405162461bcd60e51b81526004016106fb90614d7c565b600080856001600160a01b031685604051612fba9190614071565b600060405180830381855af49150503d8060008114612ff5576040519150601f19603f3d011682016040523d82523d6000602084013e612ffa565b606091505b509150915061300a828286613562565b9695505050505050565b5490565b6040805160018082528183019092526060916000919060208083019080368337019050509050828160008151811061306057634e487b7160e01b600052603260045260246000fd5b602090810291909101015292915050565b613083846001600160a01b03166132bb565b156121bd5760405163f23a6e6160e01b81526001600160a01b0385169063f23a6e61906130bc9089908990889088908890600401614180565b602060405180830381600087803b1580156130d657600080fd5b505af1925050508015613106575060408051601f3d908101601f1916820190925261310391810190613ef0565b60015b61311257612972615287565b6001600160e01b0319811663f23a6e6160e01b146126335760405162461bcd60e51b81526004016106fb906144a1565b6001600160a01b0383166131685760405162461bcd60e51b81526004016106fb90614a51565b6000613172611f8e565b90506131a28185600061318487613018565b61318d87613018565b60405180602001604052806000815250612763565b60008381526002602090815260408083206001600160a01b0388168452909152902054828110156131e55760405162461bcd60e51b81526004016106fb906146a9565b60008481526002602090815260408083206001600160a01b03808a16808652919093528184208786039055905190918516907fc3d58168c5ae7397731d063d5bbf3d657854427343f4c083240f7aacaa2d0f629061324690899089906150ad565b60405180910390a45050505050565b60009081526001919091016020526040902054151590565b60006001600160e01b03198216636cdb3d1360e11b148061329e57506001600160e01b031982166303a24d0760e21b145b8061072957506107298261359b565b6121bd8686868686866135c0565b3b151590565b606060006132d0836002615186565b6132db90600261514e565b67ffffffffffffffff81111561330157634e487b7160e01b600052604160045260246000fd5b6040519080825280601f01601f19166020018201604052801561332b576020820181803683370190505b509050600360fc1b8160008151811061335457634e487b7160e01b600052603260045260246000fd5b60200101906001600160f81b031916908160001a905350600f60fb1b8160018151811061339157634e487b7160e01b600052603260045260246000fd5b60200101906001600160f81b031916908160001a90535060006133b5846002615186565b6133c090600161514e565b90505b6001811115613461577f303132333435363738396162636465660000000000000000000000000000000085600f166010811061340f57634e487b7160e01b600052603260045260246000fd5b1a60f81b82828151811061343357634e487b7160e01b600052603260045260246000fd5b60200101906001600160f81b031916908160001a90535060049490941c9361345a816151e8565b90506133c3565b5083156116555760405162461bcd60e51b81526004016106fb9061446c565b6001600160a01b0384166134a65760405162461bcd60e51b81526004016106fb90614ff0565b60006134b0611f8e565b90506134c28160008761253688613018565b60008481526002602090815260408083206001600160a01b0389168452909152812080548592906134f490849061514e565b92505081905550846001600160a01b031660006001600160a01b0316826001600160a01b03167fc3d58168c5ae7397731d063d5bbf3d657854427343f4c083240f7aacaa2d0f62878760405161354b9291906150ad565b60405180910390a4610c0a81600087878787613071565b60608315613571575081611655565b8251156135815782518084602001fd5b8160405162461bcd60e51b81526004016106fb91906143fc565b60006001600160e01b03198216635a05180f60e01b14806107295750610729826135f3565b6135ce8686868686866121bd565b6135d661149a565b156121bd5760405162461bcd60e51b81526004016106fb9061474a565b60006001600160e01b03198216637965db0b60e01b148061072957506301ffc9a760e01b6001600160e01b0319831614610729565b828054613634906151ff565b90600052602060002090601f016020900481019282613656576000855561369c565b82601f1061366f57805160ff191683800117855561369c565b8280016001018555821561369c579182015b8281111561369c578251825591602001919060010190613681565b506136a8929150613720565b5090565b8280546136b8906151ff565b90600052602060002090601f0160209004810192826136da576000855561369c565b82601f106136f35782800160ff1982351617855561369c565b8280016001018555821561369c579182015b8281111561369c578235825591602001919060010190613705565b5b808211156136a85760008155600101613721565b60008083601f840112613746578182fd5b50813567ffffffffffffffff81111561375d578182fd5b602083019150836020808302850101111561377757600080fd5b9250929050565b600082601f83011261378e578081fd5b813560206137a361379e8361512a565b615100565b82815281810190858301838502870184018810156137bf578586fd5b855b858110156137dd578135845292840192908401906001016137c1565b5090979650505050505050565b60008083601f8401126137fb578182fd5b50813567ffffffffffffffff811115613812578182fd5b60208301915083602082850101111561377757600080fd5b600082601f83011261383a578081fd5b813567ffffffffffffffff8111156138545761385461526b565b613867601f8201601f1916602001615100565b81815284602083860101111561387b578283fd5b816020850160208301379081016020019190915292915050565b6000602082840312156138a6578081fd5b81356116558161532c565b6000602082840312156138c2578081fd5b81516116558161532c565b600080604083850312156138df578081fd5b82356138ea8161532c565b915060208301356138fa8161532c565b809150509250929050565b600080600080600060a0868803121561391c578081fd5b85356139278161532c565b945060208601356139378161532c565b9350604086013567ffffffffffffffff80821115613953578283fd5b61395f89838a0161377e565b94506060880135915080821115613974578283fd5b61398089838a0161377e565b93506080880135915080821115613995578283fd5b506139a28882890161382a565b9150509295509295909350565b600080600080608085870312156139c4578384fd5b84356139cf8161532c565b935060208501356139df8161532c565b925060408501359150606085013567ffffffffffffffff811115613a01578182fd5b613a0d8782880161382a565b91505092959194509250565b600080600080600060a08688031215613a30578283fd5b8535613a3b8161532c565b94506020860135613a4b8161532c565b93506040860135925060608601359150608086013567ffffffffffffffff811115613a74578182fd5b6139a28882890161382a565b600080600080600080600080600060a08a8c031215613a9d578687fd5b8935613aa88161532c565b985060208a013567ffffffffffffffff80821115613ac4578889fd5b613ad08d838e01613735565b909a50985060408c0135915080821115613ae8578586fd5b613af48d838e01613735565b909850965060608c0135915080821115613b0c578586fd5b613b188d838e01613735565b909650945060808c0135915080821115613b30578384fd5b50613b3d8c828d016137ea565b915080935050809150509295985092959850929598565b600080600060608486031215613b68578081fd5b8335613b738161532c565b9250602084013567ffffffffffffffff80821115613b8f578283fd5b613b9b8783880161377e565b93506040860135915080821115613bb0578283fd5b50613bbd8682870161377e565b9150509250925092565b60008060008060808587031215613bdc578182fd5b8435613be78161532c565b9350602085013567ffffffffffffffff80821115613c03578384fd5b613c0f8883890161377e565b94506040870135915080821115613c24578384fd5b613c308883890161377e565b93506060870135915080821115613c45578283fd5b50613a0d8782880161382a565b60008060408385031215613c64578182fd5b8235613c6f8161532c565b915060208301356138fa81615344565b60008060408385031215613c91578182fd5b8235613c9c8161532c565b946020939093013593505050565b600080600060608486031215613cbe578081fd5b8335613cc98161532c565b95602085013595506040909401359392505050565b60008060008060808587031215613cf3578182fd5b8435613cfe8161532c565b93506020850135925060408501359150606085013567ffffffffffffffff811115613a01578182fd5b60008060408385031215613d39578182fd5b823567ffffffffffffffff80821115613d50578384fd5b818501915085601f830112613d63578384fd5b81356020613d7361379e8361512a565b82815281810190858301838502870184018b1015613d8f578889fd5b8896505b84871015613dba578035613da68161532c565b835260019690960195918301918301613d93565b5096505086013592505080821115613dd0578283fd5b50613ddd8582860161377e565b9150509250929050565b60008060208385031215613df9578182fd5b823567ffffffffffffffff811115613e0f578283fd5b613e1b85828601613735565b90969095509350505050565b600060208284031215613e38578081fd5b813561165581615344565b600060208284031215613e54578081fd5b815161165581615344565b600060208284031215613e70578081fd5b5035919050565b600060208284031215613e88578081fd5b5051919050565b60008060408385031215613ea1578182fd5b8235915060208301356138fa8161532c565b60008060408385031215613ec5578182fd5b50508035926020909101359150565b600060208284031215613ee5578081fd5b813561165581615352565b600060208284031215613f01578081fd5b815161165581615352565b60008060208385031215613f1e578182fd5b823567ffffffffffffffff811115613f34578283fd5b613e1b858286016137ea565b600060208284031215613f51578081fd5b81516fffffffffffffffffffffffffffffffff81168114611655578182fd5b818352602080840193600091908185020181018584845b87811015613ffe5782840389528135601e19883603018112613fa7578687fd5b8701803567ffffffffffffffff811115613fbf578788fd5b803603891315613fcd578788fd5b8086528087830188880137858101870188905299860199601f01601f19169094018501935090840190600101613f87565b5091979650505050505050565b6000815180845260208085019450808401835b8381101561403a5781518752958201959082019060010161401e565b509495945050505050565b6000815180845261405d8160208601602086016151bc565b601f01601f19169290920160200192915050565b600082516140838184602087016151bc565b9190910192915050565b60007f416363657373436f6e74726f6c3a206163636f756e7420000000000000000000825283516140c58160178501602088016151bc565b7f206973206d697373696e6720726f6c652000000000000000000000000000000060179184019182015283516141028160288401602088016151bc565b01602801949350505050565b6001600160a01b0391909116815260200190565b60006001600160a01b03808816835280871660208401525060a0604083015261414e60a083018661400b565b8281036060840152614160818661400b565b905082810360808401526141748185614045565b98975050505050505050565b60006001600160a01b03808816835280871660208401525084604083015283606083015260a060808301526141b860a0830184614045565b979650505050505050565b6001600160a01b0394851681529290931660208301526040820152606081019190915260a06080820181905260009082015260c00190565b60006001600160a01b038716825260a0602083015261421d60a0830187614045565b905084151560408301528360608301526003831061424b57634e487b7160e01b600052602160045260246000fd5b8260808301529695505050505050565b6001600160a01b03929092168252602082015260400190565b6000602080830181845280855180835260408601915060408482028701019250838701855b828110156142c757603f198886030184526142b5858351614045565b94509285019290850190600101614299565b5092979650505050505050565b600060208252611655602083018461400b565b600060a082526142fa60a083018b61400b565b828103602084015261430d818a8c613f70565b90508281036040840152614321818961400b565b90508281036060840152614336818789613f70565b905082810360808401528381527f07ffffffffffffffffffffffffffffffffffffffffffffffffffffffffffffff84111561436f578182fd5b6020840280866020840137016020019081529998505050505050505050565b6000604082526143a1604083018561400b565b82810360208401526143b3818561400b565b95945050505050565b901515815260200190565b90815260200190565b9182526001600160a01b0316602082015260400190565b6001600160e01b031991909116815260200190565b6000602082526116556020830184614045565b60208082526034908201527f455243313135353a207472616e7366657220746f206e6f6e204552433131353560408201527f526563656976657220696d706c656d656e746572000000000000000000000000606082015260800190565b6020808252818101527f537472696e67733a20686578206c656e67746820696e73756666696369656e74604082015260600190565b60208082526028908201527f455243313135353a204552433131353552656365697665722072656a6563746560408201527f6420746f6b656e73000000000000000000000000000000000000000000000000606082015260800190565b60208082526014908201527f5061757361626c653a206e6f7420706175736564000000000000000000000000604082015260600190565b60208082526036908201527f4163636573734e46543a206f6e6c792061206d6f64756c652061646d696e206360408201527f616e2063616c6c20746869732066756e6374696f6e2e00000000000000000000606082015260800190565b60208082526039908201527f4e4654436f6c6c656374696f6e3a2063616e6e6f742063616c6c20746869732060408201527f666e20666f72206372656174696e67206e6577204e4654732e00000000000000606082015260800190565b6020808252602b908201527f455243313135353a2062616c616e636520717565727920666f7220746865207a60408201527f65726f2061646472657373000000000000000000000000000000000000000000606082015260800190565b6020808252603a908201527f4e4654436f6c6c656374696f6e3a2063616e6e6f7420667265656c79206d696e60408201527f74206d6f7265206f66204552433230206f72204552433732312e000000000000606082015260800190565b60208082526024908201527f455243313135353a206275726e20616d6f756e7420657863656564732062616c604082015263616e636560e01b606082015260800190565b60208082526038908201527f4163636573734e46543a206f6e6c7920612070726f746f636f6c2061646d696e60408201527f2063616e2063616c6c20746869732066756e6374696f6e2e0000000000000000606082015260800190565b6020808252602c908201527f455243313135355061757361626c653a20746f6b656e207472616e736665722060408201527f7768696c65207061757365640000000000000000000000000000000000000000606082015260800190565b60208082526029908201527f455243313135353a2063616c6c6572206973206e6f74206f776e6572206e6f7260408201527f20617070726f7665640000000000000000000000000000000000000000000000606082015260800190565b6020808252602e908201527f4163636573734e46543a2043616e6e6f742072656465656d206d6f7265204e4660408201527f5473207468616e206f776e65642e000000000000000000000000000000000000606082015260800190565b60208082526010908201527f5061757361626c653a2070617573656400000000000000000000000000000000604082015260600190565b60208082526028908201527f4163636573734e46543a204d75737420637265617465206174206c656173742060408201527f6f6e65204e46542e000000000000000000000000000000000000000000000000606082015260800190565b60208082526025908201527f455243313135353a207472616e7366657220746f20746865207a65726f206164604082015264647265737360d81b606082015260800190565b60208082526032908201527f455243313135353a207472616e736665722063616c6c6572206973206e6f742060408201527f6f776e6572206e6f7220617070726f7665640000000000000000000000000000606082015260800190565b60208082526039908201527f4163636573734e46543a2063616e6e6f74207472616e7366657220616e20616360408201527f63657373204e465420746861742069732072656465656d656400000000000000606082015260800190565b6020808252602d908201527f4163636573734e46543a206163636f756e7420646f6573206e6f74206861766560408201527f204d494e5445525f524f4c452e00000000000000000000000000000000000000606082015260800190565b60208082526023908201527f455243313135353a206275726e2066726f6d20746865207a65726f206164647260408201526265737360e81b606082015260800190565b60208082526038908201527f455243313135355072657365744d696e7465725061757365723a206d7573742060408201527f68617665206d696e74657220726f6c6520746f206d696e740000000000000000606082015260800190565b6020808252602a908201527f455243313135353a20696e73756666696369656e742062616c616e636520666f60408201527f72207472616e7366657200000000000000000000000000000000000000000000606082015260800190565b6020808252603c908201527f4163636573734e46543a205472616e736665727320617265207265737472696360408201527f74656420746f205452414e534645525f524f4c4520686f6c6465727300000000606082015260800190565b6020808252602e908201527f4163636573734e46543a2057696e646f7720746f2072656465656d206163636560408201527f73732068617320636c6f7365642e000000000000000000000000000000000000606082015260800190565b60208082526038908201527f4163636573734e46543a2063616e207365742072656465656d2074696d65206660408201527f6f72206f6e6c792072656465656d61626c65204e4654732e0000000000000000606082015260800190565b60208082526033908201527f4163636573734e46543a205468697320746f6b656e206973206e6f742072656460408201527f65656d61626c6520666f72206163636573732e00000000000000000000000000606082015260800190565b60208082526036908201527f4163636573734e46543a204d757374207370656369667920657175616c206e7560408201527f6d626572206f6620636f6e6669672076616c7565732e00000000000000000000606082015260800190565b6020808252602a908201527f4e46543a204270732070726f7669646564206d757374206265206c657373207460408201527f68616e2031302c30303000000000000000000000000000000000000000000000606082015260800190565b60208082526026908201527f416464726573733a2064656c65676174652063616c6c20746f206e6f6e2d636f6040820152651b9d1c9858dd60d21b606082015260800190565b6020808252603b908201527f455243313135355072657365744d696e7465725061757365723a206d7573742060408201527f686176652070617573657220726f6c6520746f20756e70617573650000000000606082015260800190565b60208082526033908201527f4163636573734e46543a206f6e6c79207468652063726561746f722063616e2060408201527f63616c6c20746869732066756e6374696f6e2e00000000000000000000000000606082015260800190565b60208082526039908201527f455243313135355072657365744d696e7465725061757365723a206d7573742060408201527f686176652070617573657220726f6c6520746f20706175736500000000000000606082015260800190565b60208082526029908201527f455243313135353a2073657474696e6720617070726f76616c2073746174757360408201527f20666f722073656c660000000000000000000000000000000000000000000000606082015260800190565b60208082526029908201527f455243313135353a206163636f756e747320616e6420696473206c656e67746860408201527f206d69736d617463680000000000000000000000000000000000000000000000606082015260800190565b60208082526028908201527f455243313135353a2069647320616e6420616d6f756e7473206c656e6774682060408201527f6d69736d61746368000000000000000000000000000000000000000000000000606082015260800190565b60208082526021908201527f455243313135353a206d696e7420746f20746865207a65726f206164647265736040820152607360f81b606082015260800190565b6020808252602f908201527f416363657373436f6e74726f6c3a2063616e206f6e6c792072656e6f756e636560408201527f20726f6c657320666f722073656c660000000000000000000000000000000000606082015260800190565b9283526001600160a01b03919091166020830152604082015260600190565b918252602082015260400190565b6000808335601e198436030181126150d1578283fd5b83018035915067ffffffffffffffff8211156150eb578283fd5b60200191503681900382131561377757600080fd5b60405181810167ffffffffffffffff811182821017156151225761512261526b565b604052919050565b600067ffffffffffffffff8211156151445761514461526b565b5060209081020190565b6000821982111561516157615161615255565b500190565b60008261518157634e487b7160e01b81526012600452602481fd5b500490565b60008160001904831182151516156151a0576151a0615255565b500290565b6000828210156151b7576151b7615255565b500390565b60005b838110156151d75781810151838201526020016151bf565b83811115610a345750506000910152565b6000816151f7576151f7615255565b506000190190565b60028104600182168061521357607f821691505b6020821081141561523457634e487b7160e01b600052602260045260246000fd5b50919050565b600060001982141561524e5761524e615255565b5060010190565b634e487b7160e01b600052601160045260246000fd5b634e487b7160e01b600052604160045260246000fd5b60e01c90565b600060443d1015615297576114a1565b600481823e6308c379a06152ab8251615281565b146152b5576114a1565b6040513d600319016004823e80513d67ffffffffffffffff81602484011181841117156152e557505050506114a1565b828401925082519150808211156152ff57505050506114a1565b503d83016020828401011115615317575050506114a1565b601f01601f1916810160200160405291505090565b6001600160a01b038116811461534157600080fd5b50565b801515811461534157600080fd5b6001600160e01b03198116811461534157600080fdfe416464726573733a206c6f772d6c6576656c2064656c65676174652063616c6c206661696c6564a164736f6c6343000800000a",
  "linkReferences": {},
  "deployedLinkReferences": {}
}