{
  "_format": "hh-sol-artifact-1",
  "contractName": "AccessNFT",
  "sourceName": "contracts/AccessNFT.sol",
  "abi": [
    {
      "inputs": [
        {
          "internalType": "address payable",
          "name": "_controlCenter",
          "type": "address"
        },
        {
          "internalType": "address",
          "name": "_trustedForwarder",
          "type": "address"
        },
        {
          "internalType": "string",
          "name": "_uri",
          "type": "string"
        }
      ],
      "stateMutability": "nonpayable",
      "type": "constructor"
    },
    {
      "anonymous": false,
      "inputs": [
        {
          "indexed": true,
          "internalType": "address",
          "name": "redeemer",
          "type": "address"
        },
        {
          "indexed": true,
          "internalType": "uint256",
          "name": "nftTokenId",
          "type": "uint256"
        },
        {
          "indexed": true,
          "internalType": "uint256",
          "name": "accessNftId",
          "type": "uint256"
        },
        {
          "indexed": false,
          "internalType": "uint256",
          "name": "amount",
          "type": "uint256"
        }
      ],
      "name": "AccessNFTRedeemed",
      "type": "event"
    },
    {
      "anonymous": false,
      "inputs": [
        {
          "indexed": true,
          "internalType": "address",
          "name": "creator",
          "type": "address"
        },
        {
          "indexed": false,
          "internalType": "uint256[]",
          "name": "nftIds",
          "type": "uint256[]"
        },
        {
          "indexed": false,
          "internalType": "string[]",
          "name": "nftURIs",
          "type": "string[]"
        },
        {
          "indexed": false,
          "internalType": "uint256[]",
          "name": "acessNftIds",
          "type": "uint256[]"
        },
        {
          "indexed": false,
          "internalType": "string[]",
          "name": "accessNftURIs",
          "type": "string[]"
        },
        {
          "indexed": false,
          "internalType": "uint256[]",
          "name": "nftSupplies",
          "type": "uint256[]"
        }
      ],
      "name": "AccessNFTsCreated",
      "type": "event"
    },
    {
      "anonymous": false,
      "inputs": [
        {
          "indexed": false,
          "internalType": "bool",
          "name": "isTransferable",
          "type": "bool"
        }
      ],
      "name": "AccessTransferabilityUpdated",
      "type": "event"
    },
    {
      "anonymous": false,
      "inputs": [
        {
          "indexed": true,
          "internalType": "address",
          "name": "account",
          "type": "address"
        },
        {
          "indexed": true,
          "internalType": "address",
          "name": "operator",
          "type": "address"
        },
        {
          "indexed": false,
          "internalType": "bool",
          "name": "approved",
          "type": "bool"
        }
      ],
      "name": "ApprovalForAll",
      "type": "event"
    },
    {
      "anonymous": false,
      "inputs": [
        {
          "indexed": false,
          "internalType": "uint256",
          "name": "accessNftId",
          "type": "uint256"
        },
        {
          "indexed": false,
          "internalType": "address",
          "name": "creator",
          "type": "address"
        },
        {
          "indexed": false,
          "internalType": "uint256",
          "name": "lastTimeToRedeem",
          "type": "uint256"
        }
      ],
      "name": "LastRedeemTimeUpdated",
      "type": "event"
    },
    {
      "anonymous": false,
      "inputs": [
        {
          "indexed": false,
          "internalType": "address",
          "name": "account",
          "type": "address"
        }
      ],
      "name": "Paused",
      "type": "event"
    },
    {
      "anonymous": false,
      "inputs": [
        {
          "indexed": true,
          "internalType": "bytes32",
          "name": "role",
          "type": "bytes32"
        },
        {
          "indexed": true,
          "internalType": "bytes32",
          "name": "previousAdminRole",
          "type": "bytes32"
        },
        {
          "indexed": true,
          "internalType": "bytes32",
          "name": "newAdminRole",
          "type": "bytes32"
        }
      ],
      "name": "RoleAdminChanged",
      "type": "event"
    },
    {
      "anonymous": false,
      "inputs": [
        {
          "indexed": true,
          "internalType": "bytes32",
          "name": "role",
          "type": "bytes32"
        },
        {
          "indexed": true,
          "internalType": "address",
          "name": "account",
          "type": "address"
        },
        {
          "indexed": true,
          "internalType": "address",
          "name": "sender",
          "type": "address"
        }
      ],
      "name": "RoleGranted",
      "type": "event"
    },
    {
      "anonymous": false,
      "inputs": [
        {
          "indexed": true,
          "internalType": "bytes32",
          "name": "role",
          "type": "bytes32"
        },
        {
          "indexed": true,
          "internalType": "address",
          "name": "account",
          "type": "address"
        },
        {
          "indexed": true,
          "internalType": "address",
          "name": "sender",
          "type": "address"
        }
      ],
      "name": "RoleRevoked",
      "type": "event"
    },
    {
      "anonymous": false,
      "inputs": [
        {
          "indexed": false,
          "internalType": "uint256",
          "name": "royaltyBps",
          "type": "uint256"
        }
      ],
      "name": "RoyaltyUpdated",
      "type": "event"
    },
    {
      "anonymous": false,
      "inputs": [
        {
          "indexed": true,
          "internalType": "address",
          "name": "operator",
          "type": "address"
        },
        {
          "indexed": true,
          "internalType": "address",
          "name": "from",
          "type": "address"
        },
        {
          "indexed": true,
          "internalType": "address",
          "name": "to",
          "type": "address"
        },
        {
          "indexed": false,
          "internalType": "uint256[]",
          "name": "ids",
          "type": "uint256[]"
        },
        {
          "indexed": false,
          "internalType": "uint256[]",
          "name": "values",
          "type": "uint256[]"
        }
      ],
      "name": "TransferBatch",
      "type": "event"
    },
    {
      "anonymous": false,
      "inputs": [
        {
          "indexed": true,
          "internalType": "address",
          "name": "operator",
          "type": "address"
        },
        {
          "indexed": true,
          "internalType": "address",
          "name": "from",
          "type": "address"
        },
        {
          "indexed": true,
          "internalType": "address",
          "name": "to",
          "type": "address"
        },
        {
          "indexed": false,
          "internalType": "uint256",
          "name": "id",
          "type": "uint256"
        },
        {
          "indexed": false,
          "internalType": "uint256",
          "name": "value",
          "type": "uint256"
        }
      ],
      "name": "TransferSingle",
      "type": "event"
    },
    {
      "anonymous": false,
      "inputs": [
        {
          "indexed": false,
          "internalType": "string",
          "name": "value",
          "type": "string"
        },
        {
          "indexed": true,
          "internalType": "uint256",
          "name": "id",
          "type": "uint256"
        }
      ],
      "name": "URI",
      "type": "event"
    },
    {
      "anonymous": false,
      "inputs": [
        {
          "indexed": false,
          "internalType": "address",
          "name": "account",
          "type": "address"
        }
      ],
      "name": "Unpaused",
      "type": "event"
    },
    {
      "inputs": [],
      "name": "DEFAULT_ADMIN_ROLE",
      "outputs": [
        {
          "internalType": "bytes32",
          "name": "",
          "type": "bytes32"
        }
      ],
      "stateMutability": "view",
      "type": "function"
    },
    {
      "inputs": [],
      "name": "MINTER_ROLE",
      "outputs": [
        {
          "internalType": "bytes32",
          "name": "",
          "type": "bytes32"
        }
      ],
      "stateMutability": "view",
      "type": "function"
    },
    {
      "inputs": [],
      "name": "PAUSER_ROLE",
      "outputs": [
        {
          "internalType": "bytes32",
          "name": "",
          "type": "bytes32"
        }
      ],
      "stateMutability": "view",
      "type": "function"
    },
    {
      "inputs": [],
      "name": "TRANSFER_ROLE",
      "outputs": [
        {
          "internalType": "bytes32",
          "name": "",
          "type": "bytes32"
        }
      ],
      "stateMutability": "view",
      "type": "function"
    },
    {
      "inputs": [],
      "name": "_contractURI",
      "outputs": [
        {
          "internalType": "string",
          "name": "",
          "type": "string"
        }
      ],
      "stateMutability": "view",
      "type": "function"
    },
    {
      "inputs": [],
      "name": "accessNftIsTransferable",
      "outputs": [
        {
          "internalType": "bool",
          "name": "",
          "type": "bool"
        }
      ],
      "stateMutability": "view",
      "type": "function"
    },
    {
      "inputs": [
        {
          "internalType": "address",
          "name": "account",
          "type": "address"
        },
        {
          "internalType": "uint256",
          "name": "id",
          "type": "uint256"
        }
      ],
      "name": "balanceOf",
      "outputs": [
        {
          "internalType": "uint256",
          "name": "",
          "type": "uint256"
        }
      ],
      "stateMutability": "view",
      "type": "function"
    },
    {
      "inputs": [
        {
          "internalType": "address[]",
          "name": "accounts",
          "type": "address[]"
        },
        {
          "internalType": "uint256[]",
          "name": "ids",
          "type": "uint256[]"
        }
      ],
      "name": "balanceOfBatch",
      "outputs": [
        {
          "internalType": "uint256[]",
          "name": "",
          "type": "uint256[]"
        }
      ],
      "stateMutability": "view",
      "type": "function"
    },
    {
      "inputs": [
        {
          "internalType": "address",
          "name": "account",
          "type": "address"
        },
        {
          "internalType": "uint256",
          "name": "id",
          "type": "uint256"
        },
        {
          "internalType": "uint256",
          "name": "value",
          "type": "uint256"
        }
      ],
      "name": "burn",
      "outputs": [],
      "stateMutability": "nonpayable",
      "type": "function"
    },
    {
      "inputs": [
        {
          "internalType": "address",
          "name": "account",
          "type": "address"
        },
        {
          "internalType": "uint256[]",
          "name": "ids",
          "type": "uint256[]"
        },
        {
          "internalType": "uint256[]",
          "name": "values",
          "type": "uint256[]"
        }
      ],
      "name": "burnBatch",
      "outputs": [],
      "stateMutability": "nonpayable",
      "type": "function"
    },
    {
      "inputs": [],
      "name": "contractURI",
      "outputs": [
        {
          "internalType": "string",
          "name": "",
          "type": "string"
        }
      ],
      "stateMutability": "view",
      "type": "function"
    },
    {
      "inputs": [
        {
          "internalType": "string[]",
          "name": "_nftURIs",
          "type": "string[]"
        },
        {
          "internalType": "string[]",
          "name": "_accessNftURIs",
          "type": "string[]"
        },
        {
          "internalType": "uint256[]",
          "name": "_nftSupplies",
          "type": "uint256[]"
        }
      ],
      "name": "createAccessNfts",
      "outputs": [
        {
          "internalType": "uint256[]",
          "name": "nftIds",
          "type": "uint256[]"
        }
      ],
      "stateMutability": "nonpayable",
      "type": "function"
    },
    {
      "inputs": [
        {
          "internalType": "address",
          "name": "_pack",
          "type": "address"
        },
        {
          "internalType": "string[]",
          "name": "_nftURIs",
          "type": "string[]"
        },
        {
          "internalType": "string[]",
          "name": "_accessNftURIs",
          "type": "string[]"
        },
        {
          "internalType": "uint256[]",
          "name": "_nftSupplies",
          "type": "uint256[]"
        },
        {
          "internalType": "string",
          "name": "_packURI",
          "type": "string"
        },
        {
          "internalType": "uint256",
          "name": "_secondsUntilOpenStart",
          "type": "uint256"
        },
        {
          "internalType": "uint256",
          "name": "_secondsUntilOpenEnd",
          "type": "uint256"
        },
        {
          "internalType": "uint256",
          "name": "_nftsPerOpen",
          "type": "uint256"
        }
      ],
      "name": "createAccessPack",
      "outputs": [],
      "stateMutability": "nonpayable",
      "type": "function"
    },
    {
      "inputs": [
        {
          "internalType": "bytes32",
          "name": "role",
          "type": "bytes32"
        }
      ],
      "name": "getRoleAdmin",
      "outputs": [
        {
          "internalType": "bytes32",
          "name": "",
          "type": "bytes32"
        }
      ],
      "stateMutability": "view",
      "type": "function"
    },
    {
      "inputs": [
        {
          "internalType": "bytes32",
          "name": "role",
          "type": "bytes32"
        },
        {
          "internalType": "uint256",
          "name": "index",
          "type": "uint256"
        }
      ],
      "name": "getRoleMember",
      "outputs": [
        {
          "internalType": "address",
          "name": "",
          "type": "address"
        }
      ],
      "stateMutability": "view",
      "type": "function"
    },
    {
      "inputs": [
        {
          "internalType": "bytes32",
          "name": "role",
          "type": "bytes32"
        }
      ],
      "name": "getRoleMemberCount",
      "outputs": [
        {
          "internalType": "uint256",
          "name": "",
          "type": "uint256"
        }
      ],
      "stateMutability": "view",
      "type": "function"
    },
    {
      "inputs": [
        {
          "internalType": "bytes32",
          "name": "role",
          "type": "bytes32"
        },
        {
          "internalType": "address",
          "name": "account",
          "type": "address"
        }
      ],
      "name": "grantRole",
      "outputs": [],
      "stateMutability": "nonpayable",
      "type": "function"
    },
    {
      "inputs": [
        {
          "internalType": "bytes32",
          "name": "role",
          "type": "bytes32"
        },
        {
          "internalType": "address",
          "name": "account",
          "type": "address"
        }
      ],
      "name": "hasRole",
      "outputs": [
        {
          "internalType": "bool",
          "name": "",
          "type": "bool"
        }
      ],
      "stateMutability": "view",
      "type": "function"
    },
    {
      "inputs": [
        {
          "internalType": "address",
          "name": "account",
          "type": "address"
        },
        {
          "internalType": "address",
          "name": "operator",
          "type": "address"
        }
      ],
      "name": "isApprovedForAll",
      "outputs": [
        {
          "internalType": "bool",
          "name": "",
          "type": "bool"
        }
      ],
      "stateMutability": "view",
      "type": "function"
    },
    {
      "inputs": [
        {
          "internalType": "uint256",
          "name": "_nftId",
          "type": "uint256"
        }
      ],
      "name": "isRedeemed",
      "outputs": [
        {
          "internalType": "bool",
          "name": "",
          "type": "bool"
        }
      ],
      "stateMutability": "view",
      "type": "function"
    },
    {
      "inputs": [],
      "name": "isRestrictedTransfer",
      "outputs": [
        {
          "internalType": "bool",
          "name": "",
          "type": "bool"
        }
      ],
      "stateMutability": "view",
      "type": "function"
    },
    {
      "inputs": [
        {
          "internalType": "address",
          "name": "forwarder",
          "type": "address"
        }
      ],
      "name": "isTrustedForwarder",
      "outputs": [
        {
          "internalType": "bool",
          "name": "",
          "type": "bool"
        }
      ],
      "stateMutability": "view",
      "type": "function"
    },
    {
      "inputs": [
        {
          "internalType": "uint256",
          "name": "",
          "type": "uint256"
        }
      ],
      "name": "lastTimeToRedeem",
      "outputs": [
        {
          "internalType": "uint256",
          "name": "",
          "type": "uint256"
        }
      ],
      "stateMutability": "view",
      "type": "function"
    },
    {
      "inputs": [
        {
          "internalType": "address",
          "name": "to",
          "type": "address"
        },
        {
          "internalType": "uint256",
          "name": "id",
          "type": "uint256"
        },
        {
          "internalType": "uint256",
          "name": "amount",
          "type": "uint256"
        },
        {
          "internalType": "bytes",
          "name": "data",
          "type": "bytes"
        }
      ],
      "name": "mint",
      "outputs": [],
      "stateMutability": "nonpayable",
      "type": "function"
    },
    {
      "inputs": [
        {
          "internalType": "address",
          "name": "to",
          "type": "address"
        },
        {
          "internalType": "uint256[]",
          "name": "ids",
          "type": "uint256[]"
        },
        {
          "internalType": "uint256[]",
          "name": "amounts",
          "type": "uint256[]"
        },
        {
          "internalType": "bytes",
          "name": "data",
          "type": "bytes"
        }
      ],
      "name": "mintBatch",
      "outputs": [],
      "stateMutability": "nonpayable",
      "type": "function"
    },
    {
      "inputs": [],
      "name": "nextTokenId",
      "outputs": [
        {
          "internalType": "uint256",
          "name": "",
          "type": "uint256"
        }
      ],
      "stateMutability": "view",
      "type": "function"
    },
    {
      "inputs": [
        {
          "internalType": "uint256",
          "name": "",
          "type": "uint256"
        }
      ],
      "name": "nftInfo",
      "outputs": [
        {
          "internalType": "address",
          "name": "creator",
          "type": "address"
        },
        {
          "internalType": "string",
          "name": "uri",
          "type": "string"
        },
        {
          "internalType": "bool",
          "name": "isAccess",
          "type": "bool"
        },
        {
          "internalType": "uint256",
          "name": "accessNftId",
          "type": "uint256"
        },
        {
          "internalType": "enum AccessNFT.UnderlyingType",
          "name": "underlyingType",
          "type": "uint8"
        }
      ],
      "stateMutability": "view",
      "type": "function"
    },
    {
      "inputs": [
        {
          "internalType": "address",
          "name": "",
          "type": "address"
        },
        {
          "internalType": "address",
          "name": "",
          "type": "address"
        },
        {
          "internalType": "uint256[]",
          "name": "",
          "type": "uint256[]"
        },
        {
          "internalType": "uint256[]",
          "name": "",
          "type": "uint256[]"
        },
        {
          "internalType": "bytes",
          "name": "",
          "type": "bytes"
        }
      ],
      "name": "onERC1155BatchReceived",
      "outputs": [
        {
          "internalType": "bytes4",
          "name": "",
          "type": "bytes4"
        }
      ],
      "stateMutability": "nonpayable",
      "type": "function"
    },
    {
      "inputs": [
        {
          "internalType": "address",
          "name": "",
          "type": "address"
        },
        {
          "internalType": "address",
          "name": "",
          "type": "address"
        },
        {
          "internalType": "uint256",
          "name": "",
          "type": "uint256"
        },
        {
          "internalType": "uint256",
          "name": "",
          "type": "uint256"
        },
        {
          "internalType": "bytes",
          "name": "",
          "type": "bytes"
        }
      ],
      "name": "onERC1155Received",
      "outputs": [
        {
          "internalType": "bytes4",
          "name": "",
          "type": "bytes4"
        }
      ],
      "stateMutability": "nonpayable",
      "type": "function"
    },
    {
      "inputs": [
        {
          "internalType": "address",
          "name": "",
          "type": "address"
        },
        {
          "internalType": "address",
          "name": "",
          "type": "address"
        },
        {
          "internalType": "uint256",
          "name": "",
          "type": "uint256"
        },
        {
          "internalType": "bytes",
          "name": "",
          "type": "bytes"
        }
      ],
      "name": "onERC721Received",
      "outputs": [
        {
          "internalType": "bytes4",
          "name": "",
          "type": "bytes4"
        }
      ],
      "stateMutability": "nonpayable",
      "type": "function"
    },
    {
      "inputs": [],
      "name": "pause",
      "outputs": [],
      "stateMutability": "nonpayable",
      "type": "function"
    },
    {
      "inputs": [],
      "name": "paused",
      "outputs": [
        {
          "internalType": "bool",
          "name": "",
          "type": "bool"
        }
      ],
      "stateMutability": "view",
      "type": "function"
    },
    {
      "inputs": [
        {
          "internalType": "uint256",
          "name": "_tokenId",
          "type": "uint256"
        },
        {
          "internalType": "uint256",
          "name": "_amount",
          "type": "uint256"
        }
      ],
      "name": "redeemAccess",
      "outputs": [],
      "stateMutability": "nonpayable",
      "type": "function"
    },
    {
      "inputs": [
        {
          "internalType": "bytes32",
          "name": "role",
          "type": "bytes32"
        },
        {
          "internalType": "address",
          "name": "account",
          "type": "address"
        }
      ],
      "name": "renounceRole",
      "outputs": [],
      "stateMutability": "nonpayable",
      "type": "function"
    },
    {
      "inputs": [
        {
          "internalType": "bytes32",
          "name": "role",
          "type": "bytes32"
        },
        {
          "internalType": "address",
          "name": "account",
          "type": "address"
        }
      ],
      "name": "revokeRole",
      "outputs": [],
      "stateMutability": "nonpayable",
      "type": "function"
    },
    {
      "inputs": [],
      "name": "royaltyBps",
      "outputs": [
        {
          "internalType": "uint256",
          "name": "",
          "type": "uint256"
        }
      ],
      "stateMutability": "view",
      "type": "function"
    },
    {
      "inputs": [
        {
          "internalType": "uint256",
          "name": "",
          "type": "uint256"
        },
        {
          "internalType": "uint256",
          "name": "salePrice",
          "type": "uint256"
        }
      ],
      "name": "royaltyInfo",
      "outputs": [
        {
          "internalType": "address",
          "name": "receiver",
          "type": "address"
        },
        {
          "internalType": "uint256",
          "name": "royaltyAmount",
          "type": "uint256"
        }
      ],
      "stateMutability": "view",
      "type": "function"
    },
    {
      "inputs": [
        {
          "internalType": "address",
          "name": "from",
          "type": "address"
        },
        {
          "internalType": "address",
          "name": "to",
          "type": "address"
        },
        {
          "internalType": "uint256[]",
          "name": "ids",
          "type": "uint256[]"
        },
        {
          "internalType": "uint256[]",
          "name": "amounts",
          "type": "uint256[]"
        },
        {
          "internalType": "bytes",
          "name": "data",
          "type": "bytes"
        }
      ],
      "name": "safeBatchTransferFrom",
      "outputs": [],
      "stateMutability": "nonpayable",
      "type": "function"
    },
    {
      "inputs": [
        {
          "internalType": "address",
          "name": "from",
          "type": "address"
        },
        {
          "internalType": "address",
          "name": "to",
          "type": "address"
        },
        {
          "internalType": "uint256",
          "name": "id",
          "type": "uint256"
        },
        {
          "internalType": "uint256",
          "name": "amount",
          "type": "uint256"
        },
        {
          "internalType": "bytes",
          "name": "data",
          "type": "bytes"
        }
      ],
      "name": "safeTransferFrom",
      "outputs": [],
      "stateMutability": "nonpayable",
      "type": "function"
    },
    {
      "inputs": [
        {
          "internalType": "address",
          "name": "operator",
          "type": "address"
        },
        {
          "internalType": "bool",
          "name": "approved",
          "type": "bool"
        }
      ],
      "name": "setApprovalForAll",
      "outputs": [],
      "stateMutability": "nonpayable",
      "type": "function"
    },
    {
      "inputs": [
        {
          "internalType": "string",
          "name": "_URI",
          "type": "string"
        }
      ],
      "name": "setContractURI",
      "outputs": [],
      "stateMutability": "nonpayable",
      "type": "function"
    },
    {
      "inputs": [
        {
          "internalType": "uint256",
          "name": "_tokenId",
          "type": "uint256"
        },
        {
          "internalType": "uint256",
          "name": "_secondsUntilRedeem",
          "type": "uint256"
        }
      ],
      "name": "setLastTimeToRedeem",
      "outputs": [],
      "stateMutability": "nonpayable",
      "type": "function"
    },
    {
      "inputs": [
        {
          "internalType": "bool",
          "name": "_restrictedTransfer",
          "type": "bool"
        }
      ],
      "name": "setRestrictedTransfer",
      "outputs": [],
      "stateMutability": "nonpayable",
      "type": "function"
    },
    {
      "inputs": [
        {
          "internalType": "uint256",
          "name": "_royaltyBps",
          "type": "uint256"
        }
      ],
      "name": "setRoyaltyBps",
      "outputs": [],
      "stateMutability": "nonpayable",
      "type": "function"
    },
    {
      "inputs": [
        {
          "internalType": "bool",
          "name": "_isTransferable",
          "type": "bool"
        }
      ],
      "name": "setTransferability",
      "outputs": [],
      "stateMutability": "nonpayable",
      "type": "function"
    },
    {
      "inputs": [
        {
          "internalType": "bytes4",
          "name": "interfaceId",
          "type": "bytes4"
        }
      ],
      "name": "supportsInterface",
      "outputs": [
        {
          "internalType": "bool",
          "name": "",
          "type": "bool"
        }
      ],
      "stateMutability": "pure",
      "type": "function"
    },
    {
      "inputs": [
        {
          "internalType": "uint256",
          "name": "_nftId",
          "type": "uint256"
        }
      ],
      "name": "tokenURI",
      "outputs": [
        {
          "internalType": "string",
          "name": "",
          "type": "string"
        }
      ],
      "stateMutability": "view",
      "type": "function"
    },
    {
      "inputs": [
        {
          "internalType": "uint256",
          "name": "id",
          "type": "uint256"
        }
      ],
      "name": "totalSupply",
      "outputs": [
        {
          "internalType": "uint256",
          "name": "",
          "type": "uint256"
        }
      ],
      "stateMutability": "view",
      "type": "function"
    },
    {
      "inputs": [],
      "name": "unpause",
      "outputs": [],
      "stateMutability": "nonpayable",
      "type": "function"
    },
    {
      "inputs": [
        {
          "internalType": "uint256",
          "name": "_nftId",
          "type": "uint256"
        }
      ],
      "name": "uri",
      "outputs": [
        {
          "internalType": "string",
          "name": "",
          "type": "string"
        }
      ],
      "stateMutability": "view",
      "type": "function"
    }
  ],
  "bytecode": "0x60806040523480156200001157600080fd5b5060405162005bc438038062005bc48339810160408190526200003491620003fc565b81818062000042816200013f565b506005805460ff191690556200006360006200005d62000158565b62000175565b620000927f9f2df0fed2c77648de5860a4cc508cd0818c85b8b8a1ab4ceeef8d981c8956a66200005d62000158565b620000c17f65d7a28e3265b37a6474929f336521b332c1681b933f6cb9f3376673440d862a6200005d62000158565b50600780546001600160a01b03199081166001600160a01b03938416179091556008805490911691851691909117905580516200010690600b90602084019062000356565b50620001367f8502233096d909befbda0999bb8ea2f3a6be3c138b9fbf003752a4c8bce86f6c6200005d62000158565b50505062000565565b80516200015490600490602084019062000356565b5050565b60006200016f620001b860201b620023af1760201c565b90505b90565b6200018c8282620001f860201b620023dd1760201c565b6000828152600160209081526040909120620001b3918390620023eb62000204821b17901c565b505050565b6000620001c53362000224565b15620001db575060131936013560601c62000172565b620001f06200023860201b620024001760201c565b905062000172565b6200015482826200023c565b60006200021b836001600160a01b038416620002c6565b90505b92915050565b6007546001600160a01b0390811691161490565b3390565b62000248828262000315565b62000154576000828152602081815260408083206001600160a01b03851684529091529020805460ff191660011790556200028262000158565b6001600160a01b0316816001600160a01b0316837f2f8788117e7eff1d82e926ec794901d17c78024a50270940304540a733656f0d60405160405180910390a45050565b6000620002d483836200033e565b6200030c575081546001818101845560008481526020808220909301849055845484825282860190935260409020919091556200021e565b5060006200021e565b6000918252602082815260408084206001600160a01b0393909316845291905290205460ff1690565b60009081526001919091016020526040902054151590565b8280546200036490620004f9565b90600052602060002090601f016020900481019282620003885760008555620003d3565b82601f10620003a357805160ff1916838001178555620003d3565b82800160010185558215620003d3579182015b82811115620003d3578251825591602001919060010190620003b6565b50620003e1929150620003e5565b5090565b5b80821115620003e15760008155600101620003e6565b60008060006060848603121562000411578283fd5b83516200041e816200054c565b8093505060208085015162000433816200054c565b60408601519093506001600160401b038082111562000450578384fd5b818701915087601f83011262000464578384fd5b81518181111562000479576200047962000536565b604051601f8201601f19168101850183811182821017156200049f576200049f62000536565b60405281815283820185018a1015620004b6578586fd5b8592505b81831015620004d95783830185015181840186015291840191620004ba565b81831115620004ea57858583830101525b80955050505050509250925092565b6002810460018216806200050e57607f821691505b602082108114156200053057634e487b7160e01b600052602260045260246000fd5b50919050565b634e487b7160e01b600052604160045260246000fd5b6001600160a01b03811681146200056257600080fd5b50565b61564f80620005756000396000f3fe608060405234801561001057600080fd5b50600436106103355760003560e01c806375794a3c116101b2578063c0e72740116100f9578063d9371ddd116100a2578063e985e9c51161007c578063e985e9c51461067a578063f23a6e611461068d578063f242432a146106a0578063f5298aca146106b357610335565b8063d9371ddd14610662578063e63ab1e91461066a578063e8a3d4851461067257610335565b8063ca15c873116100d3578063ca15c87314610634578063d539139314610647578063d547741f1461064f57610335565b8063c0e7274014610624578063c63adb2b1461062c578063c87b56dd1461038357610335565b806391d148541161015b578063a22cb46511610135578063a22cb465146105eb578063bc197c81146105fe578063bd85b0391461061157610335565b806391d14854146105bd578063938e3d7b146105d0578063a217fddf146105e357610335565b80638aa016531161018c5780638aa01653146105775780638ba448c21461058a5780639010d07c1461059d57610335565b806375794a3c1461055f57806383661b29146105675780638456cb591461056f57610335565b80632eb2c2d6116102815780634487f6b41161022a5780635948ab63116102045780635948ab631461051e5780635c975abb146105315780636b20c45414610539578063731133e91461054c57610335565b80634487f6b4146104e55780634e1273f4146104f8578063572b6c051461050b57610335565b806336568abe1161025b57806336568abe146104aa5780633c16b12e146104bd5780633f4ba83a146104dd57610335565b80632eb2c2d6146104715780632f2ff15d1461048457806332d33cd01461049757610335565b80631f7fdffa116102e3578063248a9ca3116102bd578063248a9ca31461042a5780632a55205a1461043d5780632e14bee81461045e57610335565b80631f7fdffa146103eb5780631f8bc790146103fe578063206b60f91461042257610335565b8063150b7a0211610314578063150b7a02146103a357806317ffeba2146103c35780631f72d831146103d657610335565b8062fdd58e1461033a57806301ffc9a7146103635780630e89341c14610383575b600080fd5b61034d610348366004613f3c565b6106c6565b60405161035a919061467b565b60405180910390f35b6103766103713660046141e7565b610722565b60405161035a9190614670565b610396610391366004614172565b610776565b60405161035a91906146e1565b6103b66103b1366004613c39565b61081b565b60405161035a919061469b565b61034d6103d1366004614172565b61082b565b6103e96103e4366004614172565b61083d565b005b6103e96103f9366004613e84565b610ad9565b61041161040c366004614172565b610c02565b60405161035a95949392919061450f565b61034d610cca565b61034d610438366004614172565b610cee565b61045061044b3660046141c6565b610d03565b60405161035a92919061456f565b6103e961046c3660046141c6565b610e47565b6103e961047f366004613b8f565b61105e565b6103e96104923660046141a2565b6110bc565b6103766104a5366004614172565b6110e3565b6103e96104b83660046141a2565b6110fb565b6104d06104cb3660046140a4565b61111d565b60405161035a9190614588565b6103e9611736565b6103e96104f33660046141c6565b611788565b6104d0610506366004613fe4565b611874565b610376610519366004613b1f565b611994565b6103e961052c36600461413a565b6119a8565b610376611afb565b6103e9610547366004613e11565b611b05565b6103e961055a366004613f9b565b611b5a565b61034d611bde565b610376611be4565b6103e9611bf4565b6103e9610585366004613d0a565b611c44565b6103e961059836600461413a565b611d7d565b6105b06105ab3660046141c6565b611ecc565b60405161035a9190614422565b6103766105cb3660046141a2565b611eeb565b6103e96105de36600461421f565b611f14565b61034d612036565b6103e96105f9366004613f0f565b61203b565b6103b661060c366004613b8f565b612109565b61034d61061f366004614172565b61211a565b61039661212c565b61034d6121ba565b61034d610642366004614172565b6121c0565b61034d6121d7565b6103e961065d3660046141a2565b6121fb565b610376612205565b61034d61220e565b610396612232565b610376610688366004613b57565b6122c4565b6103b661069b366004613ca3565b6122f2565b6103e96106ae366004613ca3565b612303565b6103e96106c1366004613f67565b61235a565b60006001600160a01b0383166106f75760405162461bcd60e51b81526004016106ee90614877565b60405180910390fd5b5060008181526002602090815260408083206001600160a01b03861684529091529020545b92915050565b60006001600160e01b03198216630271189760e51b148061075357506001600160e01b03198216636cdb3d1360e11b145b8061076e57506001600160e01b0319821663152a902d60e11b145b90505b919050565b6000818152600d60205260409020600101805460609190610796906154d9565b80601f01602080910402602001604051908101604052809291908181526020018280546107c2906154d9565b801561080f5780601f106107e45761010080835404028352916020019161080f565b820191906000526020600020905b8154815290600101906020018083116107f257829003601f168201915b50505050509050919050565b630a85bd0160e11b949350505050565b600e6020526000908152604090205481565b60085460408051634a32c6bf60e11b815290516001600160a01b03909216916391d148549183916394658d7e91600480820192602092909190829003018186803b15801561088a57600080fd5b505afa15801561089e573d6000803e3d6000fd5b505050506040513d601f19601f820116820180604052508101906108c2919061418a565b6108ca612404565b6040518363ffffffff1660e01b81526004016108e7929190614684565b60206040518083038186803b1580156108ff57600080fd5b505afa158015610913573d6000803e3d6000fd5b505050506040513d601f19601f820116820180604052508101906109379190614156565b6109535760405162461bcd60e51b81526004016106ee90614975565b600860009054906101000a90046001600160a01b03166001600160a01b0316635cd423156040518163ffffffff1660e01b815260040160206040518083038186803b1580156109a157600080fd5b505afa1580156109b5573d6000803e3d6000fd5b505050506040513d601f19601f820116820180604052508101906109d9919061425f565b600860009054906101000a90046001600160a01b03166001600160a01b031663fd967f476040518163ffffffff1660e01b815260040160206040518083038186803b158015610a2757600080fd5b505afa158015610a3b573d6000803e3d6000fd5b505050506040513d601f19601f82011682018060405250810190610a5f919061425f565b610a6991906153f4565b6fffffffffffffffffffffffffffffffff168110610a995760405162461bcd60e51b81526004016106ee9061527a565b600a8190556040517f244ea8d7627f5a08f4299862bd5a45752842c183aee5b0fb0d1e4887bfa605b390610ace90839061467b565b60405180910390a150565b60018060005b8551811015610bb357600954868281518110610b0b57634e487b7160e01b600052603260045260246000fd5b602002602001015110158015610b1e5750825b15610b2857600092505b6000600d6000888481518110610b4e57634e487b7160e01b600052603260045260246000fd5b60209081029190910181015182528101919091526040016000206004015460ff166002811115610b8e57634e487b7160e01b600052602160045260246000fd5b14158015610b995750815b15610ba357600091505b610bac81615514565b9050610adf565b5081610bd15760405162461bcd60e51b81526004016106ee9061481a565b80610bee5760405162461bcd60e51b81526004016106ee906148d4565b610bfa86868686612413565b505050505050565b600d60205260009081526040902080546001820180546001600160a01b039092169291610c2e906154d9565b80601f0160208091040260200160405190810160405280929190818152602001828054610c5a906154d9565b8015610ca75780601f10610c7c57610100808354040283529160200191610ca7565b820191906000526020600020905b815481529060010190602001808311610c8a57829003601f168201915b5050505060028301546003840154600490940154929360ff918216939092501685565b7f8502233096d909befbda0999bb8ea2f3a6be3c138b9fbf003752a4c8bce86f6c81565b60009081526020819052604090206001015490565b600080600860009054906101000a90046001600160a01b03166001600160a01b0316630f603ed36040518163ffffffff1660e01b815260040160206040518083038186803b158015610d5457600080fd5b505afa158015610d68573d6000803e3d6000fd5b505050506040513d601f19601f82011682018060405250810190610d8c9190613b3b565b9150600860009054906101000a90046001600160a01b03166001600160a01b031663fd967f476040518163ffffffff1660e01b815260040160206040518083038186803b158015610ddc57600080fd5b505afa158015610df0573d6000803e3d6000fd5b505050506040513d601f19601f82011682018060405250810190610e14919061425f565b6fffffffffffffffffffffffffffffffff16600a5484610e349190615460565b610e3e9190615440565b90509250929050565b600860009054906101000a90046001600160a01b03166001600160a01b0316639d2f83f06040518163ffffffff1660e01b815260040160206040518083038186803b158015610e9557600080fd5b505afa158015610ea9573d6000803e3d6000fd5b505050506040513d601f19601f82011682018060405250810190610ecd9190614156565b15610eea5760405162461bcd60e51b81526004016106ee90614e55565b6000828152600d602052604090206002015460ff1615610f1c5760405162461bcd60e51b81526004016106ee90614ef4565b6000610f26612404565b905081610f3382856106c6565b1015610f515760405162461bcd60e51b81526004016106ee90614a8c565b610f63610f5c612404565b848461235a565b6000838152600d6020908152604080832060030154808452600e9092529091205442111580610f9e57506000818152600e6020526040902054155b610fba5760405162461bcd60e51b81526004016106ee90614e97565b604051637921219560e11b8152309063f242432a90610fe39083908690869089906004016144d7565b600060405180830381600087803b158015610ffd57600080fd5b505af1158015611011573d6000803e3d6000fd5b505050508084836001600160a01b03167fa70022dc131dbd0be52c08bf87947e36b3e7d4934dce1efecf2d261c381d101786604051611050919061467b565b60405180910390a450505050565b611066612404565b6001600160a01b0316856001600160a01b0316148061108c575061108c85610688612404565b6110a85760405162461bcd60e51b81526004016106ee90614c41565b6110b58585858585612467565b5050505050565b6110c68282612633565b60008281526001602052604090206110de90826123eb565b505050565b6000908152600d602052604090206002015460ff1690565b6111058282612657565b60008281526001602052604090206110de9082612699565b600854604080516309d2f83f60e41b815290516060926001600160a01b031691639d2f83f0916004808301926020929190829003018186803b15801561116257600080fd5b505afa158015611176573d6000803e3d6000fd5b505050506040513d601f19601f8201168201806040525081019061119a9190614156565b156111b75760405162461bcd60e51b81526004016106ee90614e55565b6111e37f9f2df0fed2c77648de5860a4cc508cd0818c85b8b8a1ab4ceeef8d981c8956a66105cb612404565b6111ff5760405162461bcd60e51b81526004016106ee90614ae9565b858214801561120d57508584145b6112295760405162461bcd60e51b81526004016106ee90614fae565b856112465760405162461bcd60e51b81526004016106ee90614b87565b8567ffffffffffffffff81111561126d57634e487b7160e01b600052604160045260246000fd5b604051908082528060200260200182016040528015611296578160200160208202803683370190505b50905060008667ffffffffffffffff8111156112c257634e487b7160e01b600052604160045260246000fd5b6040519080825280602002602001820160405280156112eb578160200160208202803683370190505b5060095490915060005b8881101561162d578183828151811061131e57634e487b7160e01b600052603260045260246000fd5b6020026020010181815250506040518060a0016040528061133d612404565b6001600160a01b0316815260200189898481811061136b57634e487b7160e01b600052603260045260246000fd5b905060200281019061137d9190615361565b8080601f016020809104026020016040519081016040528093929190818152602001838380828437600092018290525093855250506001602084015250604082018190526060909101526000838152600d602090815260409091208251815473ffffffffffffffffffffffffffffffffffffffff19166001600160a01b03909116178155828201518051919261141b926001850192909101906138a7565b5060408201516002808301805492151560ff1993841617905560608401516003840155608084015160048401805491939092911690600190849081111561147257634e487b7160e01b600052602160045260246000fd5b021790555061148691506001905083615428565b9150818482815181106114a957634e487b7160e01b600052603260045260246000fd5b6020026020010181815250506040518060a001604052806114c8612404565b6001600160a01b031681526020018b8b848181106114f657634e487b7160e01b600052603260045260246000fd5b90506020028101906115089190615361565b8080601f0160208091040260200160405190810160405280939291908181526020018383808284376000920182905250938552505050602082015260400161155160018561547f565b8152602001600090526000838152600d602090815260409091208251815473ffffffffffffffffffffffffffffffffffffffff19166001600160a01b0390911617815582820151805191926115ae926001850192909101906138a7565b5060408201516002808301805492151560ff1993841617905560608401516003840155608084015160048401805491939092911690600190849081111561160557634e487b7160e01b600052602160045260246000fd5b021790555061161991506001905083615428565b91508061162581615514565b9150506112f5565b508060098190555061168130838787808060200260200160405190810160405280939291908181526020018383602002808284376000920182905250604080516020810190915290815292506126ae915050565b6116d461168c612404565b848787808060200260200160405190810160405280939291908181526020018383602002808284376000920182905250604080516020810190915290815292506126ae915050565b6116dc612404565b6001600160a01b03167fe309c6cae6e35dcc6c2f37d5da32b19e0346074be56b9722cdf852d20fced6ee848b8b868c8c8c8c60405161172298979695949392919061459b565b60405180910390a250509695505050505050565b6117627f65d7a28e3265b37a6474929f336521b332c1681b933f6cb9f3376673440d862a6105cb612404565b61177e5760405162461bcd60e51b81526004016106ee9061500b565b61178661274d565b565b6000828152600d60205260409020546001600160a01b03166117a8612404565b6001600160a01b0316146117ce5760405162461bcd60e51b81526004016106ee90615068565b6000828152600d602052604090206002015460ff166117ff5760405162461bcd60e51b81526004016106ee90614f51565b60008115611816576118118242615428565b61181a565b6000195b6000848152600e6020526040902081905590507ff01057f3c55599179571189c7758b5ce72994adea5a8dc33095fdc8fdff0711983611857612404565b8360405161186793929190615334565b60405180910390a1505050565b606081518351146118975760405162461bcd60e51b81526004016106ee9061517f565b6000835167ffffffffffffffff8111156118c157634e487b7160e01b600052604160045260246000fd5b6040519080825280602002602001820160405280156118ea578160200160208202803683370190505b50905060005b845181101561198c5761195185828151811061191c57634e487b7160e01b600052603260045260246000fd5b602002602001015185838151811061194457634e487b7160e01b600052603260045260246000fd5b60200260200101516106c6565b82828151811061197157634e487b7160e01b600052603260045260246000fd5b602090810291909101015261198581615514565b90506118f0565b509392505050565b6007546001600160a01b0390811691161490565b60085460408051634a32c6bf60e11b815290516001600160a01b03909216916391d148549183916394658d7e91600480820192602092909190829003018186803b1580156119f557600080fd5b505afa158015611a09573d6000803e3d6000fd5b505050506040513d601f19601f82011682018060405250810190611a2d919061418a565b611a35612404565b6040518363ffffffff1660e01b8152600401611a52929190614684565b60206040518083038186803b158015611a6a57600080fd5b505afa158015611a7e573d6000803e3d6000fd5b505050506040513d601f19601f82011682018060405250810190611aa29190614156565b611abe5760405162461bcd60e51b81526004016106ee90614975565b600c805460ff19168215151790556040517e4701906729f069b76305c2c6a0bfa1d4ba4ff97d08206c8716078bf7a5e02790610ace908390614670565b60055460ff165b90565b611b0d612404565b6001600160a01b0316836001600160a01b03161480611b335750611b3383610688612404565b611b4f5760405162461bcd60e51b81526004016106ee90614a2f565b6110de8383836127bb565b6009548310611b7b5760405162461bcd60e51b81526004016106ee9061481a565b6000838152600d602052604081206004015460ff166002811115611baf57634e487b7160e01b600052602160045260246000fd5b14611bcc5760405162461bcd60e51b81526004016106ee906148d4565b611bd884848484612859565b50505050565b60095481565b600754600160a01b900460ff1681565b611c207f65d7a28e3265b37a6474929f336521b332c1681b933f6cb9f3376673440d862a6105cb612404565b611c3c5760405162461bcd60e51b81526004016106ee906150c5565b6117866128ad565b600860009054906101000a90046001600160a01b03166001600160a01b0316639d2f83f06040518163ffffffff1660e01b815260040160206040518083038186803b158015611c9257600080fd5b505afa158015611ca6573d6000803e3d6000fd5b505050506040513d601f19601f82011682018060405250810190611cca9190614156565b15611ce75760405162461bcd60e51b81526004016106ee90614e55565b6000611cf78c8c8c8c8c8c61111d565b905060008686868686604051602001611d149594939291906146b0565b6040516020818303038152906040529050611d6d611d30612404565b8f848c8c8080602002602001604051908101604052809392919081815260200183836020028082843760009201919091525088925061105e915050565b5050505050505050505050505050565b60085460408051634a32c6bf60e11b815290516001600160a01b03909216916391d148549183916394658d7e91600480820192602092909190829003018186803b158015611dca57600080fd5b505afa158015611dde573d6000803e3d6000fd5b505050506040513d601f19601f82011682018060405250810190611e02919061418a565b611e0a612404565b6040518363ffffffff1660e01b8152600401611e27929190614684565b60206040518083038186803b158015611e3f57600080fd5b505afa158015611e53573d6000803e3d6000fd5b505050506040513d601f19601f82011682018060405250810190611e779190614156565b611e935760405162461bcd60e51b81526004016106ee90614975565b60078054911515600160a01b027fffffffffffffffffffffff00ffffffffffffffffffffffffffffffffffffffff909216919091179055565b6000828152600160205260408120611ee49083612908565b9392505050565b6000918252602082815260408084206001600160a01b0393909316845291905290205460ff1690565b60085460408051634a32c6bf60e11b815290516001600160a01b03909216916391d148549183916394658d7e91600480820192602092909190829003018186803b158015611f6157600080fd5b505afa158015611f75573d6000803e3d6000fd5b505050506040513d601f19601f82011682018060405250810190611f99919061418a565b611fa1612404565b6040518363ffffffff1660e01b8152600401611fbe929190614684565b60206040518083038186803b158015611fd657600080fd5b505afa158015611fea573d6000803e3d6000fd5b505050506040513d601f19601f8201168201806040525081019061200e9190614156565b61202a5760405162461bcd60e51b81526004016106ee90614975565b6110de600b838361392b565b600081565b816001600160a01b031661204d612404565b6001600160a01b031614156120745760405162461bcd60e51b81526004016106ee90615122565b8060036000612081612404565b6001600160a01b03908116825260208083019390935260409182016000908120918716808252919093529120805460ff1916921515929092179091556120c5612404565b6001600160a01b03167f17307eab39ab6107e8899845ad3d59bd9653f200f220920489ca2b5937696c31836040516120fd9190614670565b60405180910390a35050565b63bc197c8160e01b95945050505050565b60009081526006602052604090205490565b600b8054612139906154d9565b80601f0160208091040260200160405190810160405280929190818152602001828054612165906154d9565b80156121b25780601f10612187576101008083540402835291602001916121b2565b820191906000526020600020905b81548152906001019060200180831161219557829003601f168201915b505050505081565b600a5481565b600081815260016020526040812061076e90612914565b7f9f2df0fed2c77648de5860a4cc508cd0818c85b8b8a1ab4ceeef8d981c8956a681565b611105828261291f565b600c5460ff1681565b7f65d7a28e3265b37a6474929f336521b332c1681b933f6cb9f3376673440d862a81565b6060600b8054612241906154d9565b80601f016020809104026020016040519081016040528092919081815260200182805461226d906154d9565b80156122ba5780601f1061228f576101008083540402835291602001916122ba565b820191906000526020600020905b81548152906001019060200180831161229d57829003601f168201915b5050505050905090565b6001600160a01b03918216600090815260036020908152604080832093909416825291909152205460ff1690565b63f23a6e6160e01b95945050505050565b61230b612404565b6001600160a01b0316856001600160a01b03161480612331575061233185610688612404565b61234d5760405162461bcd60e51b81526004016106ee90614a2f565b6110b5858585858561293e565b612362612404565b6001600160a01b0316836001600160a01b03161480612388575061238883610688612404565b6123a45760405162461bcd60e51b81526004016106ee90614a2f565b6110de838383612a85565b60006123ba33611994565b156123ce575060131936013560601c611b02565b6123d6612400565b9050611b02565b6123e78282612ab8565b5050565b6000611ee4836001600160a01b038416612b3d565b3390565b600061240e6123af565b905090565b61243f7f9f2df0fed2c77648de5860a4cc508cd0818c85b8b8a1ab4ceeef8d981c8956a66105cb612404565b61245b5760405162461bcd60e51b81526004016106ee90614d3e565b611bd8848484846126ae565b81518351146124885760405162461bcd60e51b81526004016106ee906151dc565b6001600160a01b0384166124ae5760405162461bcd60e51b81526004016106ee90614be4565b60006124b8612404565b90506124c8818787878787612b87565b60005b84518110156125cd5760008582815181106124f657634e487b7160e01b600052603260045260246000fd5b60200260200101519050600085838151811061252257634e487b7160e01b600052603260045260246000fd5b60209081029190910181015160008481526002835260408082206001600160a01b038e1683529093529190912054909150818110156125735760405162461bcd60e51b81526004016106ee90614d9b565b60008381526002602090815260408083206001600160a01b038e8116855292528083208585039055908b168252812080548492906125b2908490615428565b92505081905550505050806125c690615514565b90506124cb565b50846001600160a01b0316866001600160a01b0316826001600160a01b03167f4a39dc06d4c0dbc64b70af90fd698a233a518aa5d07e595d983b8c0526c8f7fb878760405161261d929190614642565b60405180910390a4610bfa818787878787612cbf565b61263c82610cee565b61264d81612648612404565b612dcd565b6110de8383612ab8565b61265f612404565b6001600160a01b0316816001600160a01b03161461268f5760405162461bcd60e51b81526004016106ee906152d7565b6123e78282612e31565b6000611ee4836001600160a01b038416612eb4565b6126ba84848484612fd1565b60005b83518110156110b5578281815181106126e657634e487b7160e01b600052603260045260246000fd5b60200260200101516006600086848151811061271257634e487b7160e01b600052603260045260246000fd5b6020026020010151815260200190815260200160002060008282546127379190615428565b90915550612746905081615514565b90506126bd565b612755611afb565b6127715760405162461bcd60e51b81526004016106ee906147e3565b6005805460ff191690557f5db9ee0a495bf2e6ff9c91a7834c1ba4fdd244a5e8aa4e537bd38aeae4b073aa6127a4612404565b6040516127b19190614422565b60405180910390a1565b6127c6838383613153565b60005b8251811015611bd8578181815181106127f257634e487b7160e01b600052603260045260246000fd5b60200260200101516006600085848151811061281e57634e487b7160e01b600052603260045260246000fd5b602002602001015181526020019081526020016000206000828254612843919061547f565b90915550612852905081615514565b90506127c9565b6128857f9f2df0fed2c77648de5860a4cc508cd0818c85b8b8a1ab4ceeef8d981c8956a66105cb612404565b6128a15760405162461bcd60e51b81526004016106ee90614d3e565b611bd8848484846132f9565b6128b5611afb565b156128d25760405162461bcd60e51b81526004016106ee90614b50565b6005805460ff191660011790557f62e78cea01bee320cd4e420270b5ea74000d11b0c9f74754ebdbfc544b05a2586127a4612404565b6000611ee4838361332e565b600061076e82613366565b61292882610cee565b61293481612648612404565b6110de8383612e31565b6001600160a01b0384166129645760405162461bcd60e51b81526004016106ee90614be4565b600061296e612404565b905061298e81878761297f8861336a565b6129888861336a565b87612b87565b60008481526002602090815260408083206001600160a01b038a168452909152902054838110156129d15760405162461bcd60e51b81526004016106ee90614d9b565b60008581526002602090815260408083206001600160a01b038b8116855292528083208785039055908816825281208054869290612a10908490615428565b92505081905550856001600160a01b0316876001600160a01b0316836001600160a01b03167fc3d58168c5ae7397731d063d5bbf3d657854427343f4c083240f7aacaa2d0f628888604051612a66929190615353565b60405180910390a4612a7c8288888888886133c3565b50505050505050565b612a90838383613494565b60008281526006602052604081208054839290612aae90849061547f565b9091555050505050565b612ac28282611eeb565b6123e7576000828152602081815260408083206001600160a01b03851684529091529020805460ff19166001179055612af9612404565b6001600160a01b0316816001600160a01b0316837f2f8788117e7eff1d82e926ec794901d17c78024a50270940304540a733656f0d60405160405180910390a45050565b6000612b4983836135a7565b612b7f5750815460018181018455600084815260208082209093018490558454848252828601909352604090209190915561071c565b50600061071c565b612b958686868686866135bf565b600754600160a01b900460ff1615612c1d57612bd17f8502233096d909befbda0999bb8ea2f3a6be3c138b9fbf003752a4c8bce86f6c86611eeb565b80612c015750612c017f8502233096d909befbda0999bb8ea2f3a6be3c138b9fbf003752a4c8bce86f6c85611eeb565b612c1d5760405162461bcd60e51b81526004016106ee90614df8565b60005b8351811015612a7c57600d6000858381518110612c4d57634e487b7160e01b600052603260045260246000fd5b60209081029190910181015182528101919091526040016000206002015460ff1615612cad576001600160a01b0386161580612c9157506001600160a01b03861630145b612cad5760405162461bcd60e51b81526004016106ee90614c9e565b80612cb781615514565b915050612c20565b612cd1846001600160a01b03166135cd565b15610bfa5760405163bc197c8160e01b81526001600160a01b0385169063bc197c8190612d0a9089908990889088908890600401614436565b602060405180830381600087803b158015612d2457600080fd5b505af1925050508015612d54575060408051601f3d908101601f19168201909252612d5191810190614203565b60015b612d9d57612d60615561565b80612d6b5750612d85565b8060405162461bcd60e51b81526004016106ee91906146e1565b60405162461bcd60e51b81526004016106ee906146f4565b6001600160e01b0319811663bc197c8160e01b14612a7c5760405162461bcd60e51b81526004016106ee90614786565b612dd78282611eeb565b6123e757612def816001600160a01b031660146135d3565b612dfa8360206135d3565b604051602001612e0b9291906143a1565b60408051601f198184030181529082905262461bcd60e51b82526106ee916004016146e1565b612e3b8282611eeb565b156123e7576000828152602081815260408083206001600160a01b03851684529091529020805460ff19169055612e70612404565b6001600160a01b0316816001600160a01b0316837ff6391f5c32d9c69d2a47ea670b442974b53935d1edc7fd64eb21e047a839171b60405160405180910390a45050565b60008181526001830160205260408120548015612fc7576000612ed860018361547f565b8554909150600090612eec9060019061547f565b9050818114612f6d576000866000018281548110612f1a57634e487b7160e01b600052603260045260246000fd5b9060005260206000200154905080876000018481548110612f4b57634e487b7160e01b600052603260045260246000fd5b6000918252602080832090910192909255918252600188019052604090208390555b8554869080612f8c57634e487b7160e01b600052603160045260246000fd5b60019003818190600052602060002001600090559055856001016000868152602001908152602001600020600090556001935050505061071c565b600091505061071c565b6001600160a01b038416612ff75760405162461bcd60e51b81526004016106ee90615239565b81518351146130185760405162461bcd60e51b81526004016106ee906151dc565b6000613022612404565b905061303381600087878787612b87565b60005b84518110156130eb5783818151811061305f57634e487b7160e01b600052603260045260246000fd5b60200260200101516002600087848151811061308b57634e487b7160e01b600052603260045260246000fd5b602002602001015181526020019081526020016000206000886001600160a01b03166001600160a01b0316815260200190815260200160002060008282546130d39190615428565b909155508190506130e381615514565b915050613036565b50846001600160a01b031660006001600160a01b0316826001600160a01b03167f4a39dc06d4c0dbc64b70af90fd698a233a518aa5d07e595d983b8c0526c8f7fb878760405161313c929190614642565b60405180910390a46110b581600087878787612cbf565b6001600160a01b0383166131795760405162461bcd60e51b81526004016106ee90614cfb565b805182511461319a5760405162461bcd60e51b81526004016106ee906151dc565b60006131a4612404565b90506131c481856000868660405180602001604052806000815250612b87565b60005b83518110156132a85760008482815181106131f257634e487b7160e01b600052603260045260246000fd5b60200260200101519050600084838151811061321e57634e487b7160e01b600052603260045260246000fd5b60209081029190910181015160008481526002835260408082206001600160a01b038c16835290935291909120549091508181101561326f5760405162461bcd60e51b81526004016106ee90614931565b60009283526002602090815260408085206001600160a01b038b16865290915290922091039055806132a081615514565b9150506131c7565b5060006001600160a01b0316846001600160a01b0316826001600160a01b03167f4a39dc06d4c0dbc64b70af90fd698a233a518aa5d07e595d983b8c0526c8f7fb8686604051611050929190614642565b61330584848484613792565b60008381526006602052604081208054849290613323908490615428565b909155505050505050565b600082600001828154811061335357634e487b7160e01b600052603260045260246000fd5b9060005260206000200154905092915050565b5490565b604080516001808252818301909252606091600091906020808301908036833701905050905082816000815181106133b257634e487b7160e01b600052603260045260246000fd5b602090810291909101015292915050565b6133d5846001600160a01b03166135cd565b15610bfa5760405163f23a6e6160e01b81526001600160a01b0385169063f23a6e619061340e9089908990889088908890600401614494565b602060405180830381600087803b15801561342857600080fd5b505af1925050508015613458575060408051601f3d908101601f1916820190925261345591810190614203565b60015b61346457612d60615561565b6001600160e01b0319811663f23a6e6160e01b14612a7c5760405162461bcd60e51b81526004016106ee90614786565b6001600160a01b0383166134ba5760405162461bcd60e51b81526004016106ee90614cfb565b60006134c4612404565b90506134f4818560006134d68761336a565b6134df8761336a565b60405180602001604052806000815250612b87565b60008381526002602090815260408083206001600160a01b0388168452909152902054828110156135375760405162461bcd60e51b81526004016106ee90614931565b60008481526002602090815260408083206001600160a01b03808a16808652919093528184208786039055905190918516907fc3d58168c5ae7397731d063d5bbf3d657854427343f4c083240f7aacaa2d0f62906135989089908990615353565b60405180910390a45050505050565b60009081526001919091016020526040902054151590565b610bfa868686868686613874565b3b151590565b606060006135e2836002615460565b6135ed906002615428565b67ffffffffffffffff81111561361357634e487b7160e01b600052604160045260246000fd5b6040519080825280601f01601f19166020018201604052801561363d576020820181803683370190505b509050600360fc1b8160008151811061366657634e487b7160e01b600052603260045260246000fd5b60200101906001600160f81b031916908160001a905350600f60fb1b816001815181106136a357634e487b7160e01b600052603260045260246000fd5b60200101906001600160f81b031916908160001a90535060006136c7846002615460565b6136d2906001615428565b90505b6001811115613773577f303132333435363738396162636465660000000000000000000000000000000085600f166010811061372157634e487b7160e01b600052603260045260246000fd5b1a60f81b82828151811061374557634e487b7160e01b600052603260045260246000fd5b60200101906001600160f81b031916908160001a90535060049490941c9361376c816154c2565b90506136d5565b508315611ee45760405162461bcd60e51b81526004016106ee90614751565b6001600160a01b0384166137b85760405162461bcd60e51b81526004016106ee90615239565b60006137c2612404565b90506137d48160008761297f8861336a565b60008481526002602090815260408083206001600160a01b038916845290915281208054859290613806908490615428565b92505081905550846001600160a01b031660006001600160a01b0316826001600160a01b03167fc3d58168c5ae7397731d063d5bbf3d657854427343f4c083240f7aacaa2d0f62878760405161385d929190615353565b60405180910390a46110b5816000878787876133c3565b613882868686868686610bfa565b61388a611afb565b15610bfa5760405162461bcd60e51b81526004016106ee906149d2565b8280546138b3906154d9565b90600052602060002090601f0160209004810192826138d5576000855561391b565b82601f106138ee57805160ff191683800117855561391b565b8280016001018555821561391b579182015b8281111561391b578251825591602001919060010190613900565b5061392792915061399f565b5090565b828054613937906154d9565b90600052602060002090601f016020900481019282613959576000855561391b565b82601f106139725782800160ff1982351617855561391b565b8280016001018555821561391b579182015b8281111561391b578235825591602001919060010190613984565b5b8082111561392757600081556001016139a0565b803561077181615606565b60008083601f8401126139d0578182fd5b50813567ffffffffffffffff8111156139e7578182fd5b6020830191508360208083028501011115613a0157600080fd5b9250929050565b600082601f830112613a18578081fd5b81356020613a2d613a28836153d0565b6153a6565b8281528181019085830183850287018401881015613a49578586fd5b855b85811015613a6757813584529284019290840190600101613a4b565b5090979650505050505050565b600082601f830112613a84578081fd5b813567ffffffffffffffff811115613a9e57613a9e615545565b613ab1601f8201601f19166020016153a6565b818152846020838601011115613ac5578283fd5b816020850160208301379081016020019190915292915050565b60008083601f840112613af0578182fd5b50813567ffffffffffffffff811115613b07578182fd5b602083019150836020828501011115613a0157600080fd5b600060208284031215613b30578081fd5b8135611ee481615606565b600060208284031215613b4c578081fd5b8151611ee481615606565b60008060408385031215613b69578081fd5b8235613b7481615606565b91506020830135613b8481615606565b809150509250929050565b600080600080600060a08688031215613ba6578081fd5b8535613bb181615606565b94506020860135613bc181615606565b9350604086013567ffffffffffffffff80821115613bdd578283fd5b613be989838a01613a08565b94506060880135915080821115613bfe578283fd5b613c0a89838a01613a08565b93506080880135915080821115613c1f578283fd5b50613c2c88828901613a74565b9150509295509295909350565b60008060008060808587031215613c4e578384fd5b8435613c5981615606565b93506020850135613c6981615606565b925060408501359150606085013567ffffffffffffffff811115613c8b578182fd5b613c9787828801613a74565b91505092959194509250565b600080600080600060a08688031215613cba578081fd5b8535613cc581615606565b94506020860135613cd581615606565b93506040860135925060608601359150608086013567ffffffffffffffff811115613cfe578182fd5b613c2c88828901613a74565b6000806000806000806000806000806000806101008d8f031215613d2c57898afd5b613d358d6139b4565b9b5067ffffffffffffffff60208e01351115613d4f57898afd5b613d5f8e60208f01358f016139bf565b909b50995067ffffffffffffffff60408e01351115613d7c578687fd5b613d8c8e60408f01358f016139bf565b909950975067ffffffffffffffff60608e01351115613da9578687fd5b613db98e60608f01358f016139bf565b909750955067ffffffffffffffff60808e01351115613dd6578485fd5b613de68e60808f01358f01613adf565b9c9f9b9e50999c989b979a9699959895979660a08701359660c0810135965060e00135945092505050565b600080600060608486031215613e25578081fd5b8335613e3081615606565b9250602084013567ffffffffffffffff80821115613e4c578283fd5b613e5887838801613a08565b93506040860135915080821115613e6d578283fd5b50613e7a86828701613a08565b9150509250925092565b60008060008060808587031215613e99578182fd5b8435613ea481615606565b9350602085013567ffffffffffffffff80821115613ec0578384fd5b613ecc88838901613a08565b94506040870135915080821115613ee1578384fd5b613eed88838901613a08565b93506060870135915080821115613f02578283fd5b50613c9787828801613a74565b60008060408385031215613f21578182fd5b8235613f2c81615606565b91506020830135613b848161561e565b60008060408385031215613f4e578182fd5b8235613f5981615606565b946020939093013593505050565b600080600060608486031215613f7b578081fd5b8335613f8681615606565b95602085013595506040909401359392505050565b60008060008060808587031215613fb0578182fd5b8435613fbb81615606565b93506020850135925060408501359150606085013567ffffffffffffffff811115613c8b578182fd5b60008060408385031215613ff6578182fd5b823567ffffffffffffffff8082111561400d578384fd5b818501915085601f830112614020578384fd5b81356020614030613a28836153d0565b82815281810190858301838502870184018b101561404c578889fd5b8896505b8487101561407757803561406381615606565b835260019690960195918301918301614050565b509650508601359250508082111561408d578283fd5b5061409a85828601613a08565b9150509250929050565b600080600080600080606087890312156140bc578384fd5b863567ffffffffffffffff808211156140d3578586fd5b6140df8a838b016139bf565b909850965060208901359150808211156140f7578586fd5b6141038a838b016139bf565b9096509450604089013591508082111561411b578384fd5b5061412889828a016139bf565b979a9699509497509295939492505050565b60006020828403121561414b578081fd5b8135611ee48161561e565b600060208284031215614167578081fd5b8151611ee48161561e565b600060208284031215614183578081fd5b5035919050565b60006020828403121561419b578081fd5b5051919050565b600080604083850312156141b4578182fd5b823591506020830135613b8481615606565b600080604083850312156141d8578182fd5b50508035926020909101359150565b6000602082840312156141f8578081fd5b8135611ee48161562c565b600060208284031215614214578081fd5b8151611ee48161562c565b60008060208385031215614231578182fd5b823567ffffffffffffffff811115614247578283fd5b61425385828601613adf565b90969095509350505050565b600060208284031215614270578081fd5b81516fffffffffffffffffffffffffffffffff81168114611ee4578182fd5b8183526020808401936000918085028201810184845b87811015613a6757848303601f19018952813536889003601e190181126142ca578687fd5b8701803567ffffffffffffffff8111156142e2578788fd5b8036038913156142f0578788fd5b6142fd8582888501614377565b9a86019a94505050908301906001016142a5565b6000815180845260208085019450808401835b8381101561434057815187529582019590820190600101614324565b509495945050505050565b60008151808452614363816020860160208601615496565b601f01601f19169290920160200192915050565b60008284528282602086013780602084860101526020601f19601f85011685010190509392505050565b60007f416363657373436f6e74726f6c3a206163636f756e7420000000000000000000825283516143d9816017850160208801615496565b7f206973206d697373696e6720726f6c65200000000000000000000000000000006017918401918201528351614416816028840160208801615496565b01602801949350505050565b6001600160a01b0391909116815260200190565b60006001600160a01b03808816835280871660208401525060a0604083015261446260a0830186614311565b82810360608401526144748186614311565b90508281036080840152614488818561434b565b98975050505050505050565b60006001600160a01b03808816835280871660208401525084604083015283606083015260a060808301526144cc60a083018461434b565b979650505050505050565b6001600160a01b0394851681529290931660208301526040820152606081019190915260a06080820181905260009082015260c00190565b60006001600160a01b038716825260a0602083015261453160a083018761434b565b905084151560408301528360608301526003831061455f57634e487b7160e01b600052602160045260246000fd5b8260808301529695505050505050565b6001600160a01b03929092168252602082015260400190565b600060208252611ee46020830184614311565b600060a082526145ae60a083018b614311565b82810360208401526145c1818a8c61428f565b905082810360408401526145d58189614311565b905082810360608401526145ea81878961428f565b905082810360808401528381527f07ffffffffffffffffffffffffffffffffffffffffffffffffffffffffffffff841115614623578182fd5b6020840280866020840137016020019081529998505050505050505050565b6000604082526146556040830185614311565b82810360208401526146678185614311565b95945050505050565b901515815260200190565b90815260200190565b9182526001600160a01b0316602082015260400190565b6001600160e01b031991909116815260200190565b6000608082526146c4608083018789614377565b602083019590955250604081019290925260609091015292915050565b600060208252611ee4602083018461434b565b60208082526034908201527f455243313135353a207472616e7366657220746f206e6f6e204552433131353560408201527f526563656976657220696d706c656d656e746572000000000000000000000000606082015260800190565b6020808252818101527f537472696e67733a20686578206c656e67746820696e73756666696369656e74604082015260600190565b60208082526028908201527f455243313135353a204552433131353552656365697665722072656a6563746560408201527f6420746f6b656e73000000000000000000000000000000000000000000000000606082015260800190565b60208082526014908201527f5061757361626c653a206e6f7420706175736564000000000000000000000000604082015260600190565b60208082526039908201527f4e4654436f6c6c656374696f6e3a2063616e6e6f742063616c6c20746869732060408201527f666e20666f72206372656174696e67206e6577204e4654732e00000000000000606082015260800190565b6020808252602b908201527f455243313135353a2062616c616e636520717565727920666f7220746865207a60408201527f65726f2061646472657373000000000000000000000000000000000000000000606082015260800190565b6020808252603a908201527f4e4654436f6c6c656374696f6e3a2063616e6e6f7420667265656c79206d696e60408201527f74206d6f7265206f66204552433230206f72204552433732312e000000000000606082015260800190565b60208082526024908201527f455243313135353a206275726e20616d6f756e7420657863656564732062616c604082015263616e636560e01b606082015260800190565b60208082526038908201527f4163636573734e46543a206f6e6c7920612070726f746f636f6c2061646d696e60408201527f2063616e2063616c6c20746869732066756e6374696f6e2e0000000000000000606082015260800190565b6020808252602c908201527f455243313135355061757361626c653a20746f6b656e207472616e736665722060408201527f7768696c65207061757365640000000000000000000000000000000000000000606082015260800190565b60208082526029908201527f455243313135353a2063616c6c6572206973206e6f74206f776e6572206e6f7260408201527f20617070726f7665640000000000000000000000000000000000000000000000606082015260800190565b6020808252602e908201527f4163636573734e46543a2043616e6e6f742072656465656d206d6f7265204e4660408201527f5473207468616e206f776e65642e000000000000000000000000000000000000606082015260800190565b60208082526041908201527f4163636573734e46543a204f6e6c79206163636f756e74732077697468204d4960408201527f4e5445525f524f4c452063616e2063616c6c20746869732066756e6374696f6e6060820152601760f91b608082015260a00190565b60208082526010908201527f5061757361626c653a2070617573656400000000000000000000000000000000604082015260600190565b60208082526028908201527f4163636573734e46543a204d75737420637265617465206174206c656173742060408201527f6f6e65204e46542e000000000000000000000000000000000000000000000000606082015260800190565b60208082526025908201527f455243313135353a207472616e7366657220746f20746865207a65726f20616460408201527f6472657373000000000000000000000000000000000000000000000000000000606082015260800190565b60208082526032908201527f455243313135353a207472616e736665722063616c6c6572206973206e6f742060408201527f6f776e6572206e6f7220617070726f7665640000000000000000000000000000606082015260800190565b60208082526039908201527f4163636573734e46543a2063616e6e6f74207472616e7366657220616e20616360408201527f63657373204e465420746861742069732072656465656d656400000000000000606082015260800190565b60208082526023908201527f455243313135353a206275726e2066726f6d20746865207a65726f206164647260408201526265737360e81b606082015260800190565b60208082526038908201527f455243313135355072657365744d696e7465725061757365723a206d7573742060408201527f68617665206d696e74657220726f6c6520746f206d696e740000000000000000606082015260800190565b6020808252602a908201527f455243313135353a20696e73756666696369656e742062616c616e636520666f60408201527f72207472616e7366657200000000000000000000000000000000000000000000606082015260800190565b6020808252603c908201527f4163636573734e46543a205472616e736665727320617265207265737472696360408201527f74656420746f205452414e534645525f524f4c4520686f6c6465727300000000606082015260800190565b60208082526022908201527f4163636573734e46543a205468652070726f746f636f6c206973207061757365604082015261321760f11b606082015260800190565b6020808252602e908201527f4163636573734e46543a2057696e646f7720746f2072656465656d206163636560408201527f73732068617320636c6f7365642e000000000000000000000000000000000000606082015260800190565b60208082526033908201527f4163636573734e46543a205468697320746f6b656e206973206e6f742072656460408201527f65656d61626c6520666f72206163636573732e00000000000000000000000000606082015260800190565b60208082526034908201527f4163636573734e46543a2063616e207365742072656465656d2074696d65206660408201527f6f72206f6e6c7920416363657373204e4654732e000000000000000000000000606082015260800190565b60208082526036908201527f4163636573734e46543a204d757374207370656369667920657175616c206e7560408201527f6d626572206f6620636f6e6669672076616c7565732e00000000000000000000606082015260800190565b6020808252603b908201527f455243313135355072657365744d696e7465725061757365723a206d7573742060408201527f686176652070617573657220726f6c6520746f20756e70617573650000000000606082015260800190565b60208082526033908201527f4163636573734e46543a206f6e6c79207468652063726561746f722063616e2060408201527f63616c6c20746869732066756e6374696f6e2e00000000000000000000000000606082015260800190565b60208082526039908201527f455243313135355072657365744d696e7465725061757365723a206d7573742060408201527f686176652070617573657220726f6c6520746f20706175736500000000000000606082015260800190565b60208082526029908201527f455243313135353a2073657474696e6720617070726f76616c2073746174757360408201527f20666f722073656c660000000000000000000000000000000000000000000000606082015260800190565b60208082526029908201527f455243313135353a206163636f756e747320616e6420696473206c656e67746860408201527f206d69736d617463680000000000000000000000000000000000000000000000606082015260800190565b60208082526028908201527f455243313135353a2069647320616e6420616d6f756e7473206c656e6774682060408201527f6d69736d61746368000000000000000000000000000000000000000000000000606082015260800190565b60208082526021908201527f455243313135353a206d696e7420746f20746865207a65726f206164647265736040820152607360f81b606082015260800190565b60208082526029908201527f4e46543a204270732070726f7669646564206d757374206265206c657373207460408201527f68616e20392c3030300000000000000000000000000000000000000000000000606082015260800190565b6020808252602f908201527f416363657373436f6e74726f6c3a2063616e206f6e6c792072656e6f756e636560408201527f20726f6c657320666f722073656c660000000000000000000000000000000000606082015260800190565b9283526001600160a01b03919091166020830152604082015260600190565b918252602082015260400190565b6000808335601e19843603018112615377578283fd5b83018035915067ffffffffffffffff821115615391578283fd5b602001915036819003821315613a0157600080fd5b60405181810167ffffffffffffffff811182821017156153c8576153c8615545565b604052919050565b600067ffffffffffffffff8211156153ea576153ea615545565b5060209081020190565b60006fffffffffffffffffffffffffffffffff80831681851680830382111561541f5761541f61552f565b01949350505050565b6000821982111561543b5761543b61552f565b500190565b60008261545b57634e487b7160e01b81526012600452602481fd5b500490565b600081600019048311821515161561547a5761547a61552f565b500290565b6000828210156154915761549161552f565b500390565b60005b838110156154b1578181015183820152602001615499565b83811115611bd85750506000910152565b6000816154d1576154d161552f565b506000190190565b6002810460018216806154ed57607f821691505b6020821081141561550e57634e487b7160e01b600052602260045260246000fd5b50919050565b60006000198214156155285761552861552f565b5060010190565b634e487b7160e01b600052601160045260246000fd5b634e487b7160e01b600052604160045260246000fd5b60e01c90565b600060443d101561557157611b02565b600481823e6308c379a0615585825161555b565b1461558f57611b02565b6040513d600319016004823e80513d67ffffffffffffffff81602484011181841117156155bf5750505050611b02565b828401925082519150808211156155d95750505050611b02565b503d830160208284010111156155f157505050611b02565b601f01601f1916810160200160405291505090565b6001600160a01b038116811461561b57600080fd5b50565b801515811461561b57600080fd5b6001600160e01b03198116811461561b57600080fdfea164736f6c6343000800000a",
  "linkReferences": {},
  "deployedLinkReferences": {}
}