{
  "_format": "hh-sol-artifact-1",
  "contractName": "AccessNFT",
  "sourceName": "contracts/AccessNFT.sol",
  "abi": [
    {
      "inputs": [
        {
          "internalType": "address payable",
          "name": "_controlCenter",
          "type": "address"
        },
        {
          "internalType": "address",
          "name": "_trustedForwarder",
          "type": "address"
        },
        {
          "internalType": "string",
          "name": "_uri",
          "type": "string"
        }
      ],
      "stateMutability": "nonpayable",
      "type": "constructor"
    },
    {
      "anonymous": false,
      "inputs": [
        {
          "indexed": true,
          "internalType": "address",
          "name": "redeemer",
          "type": "address"
        },
        {
          "indexed": true,
          "internalType": "uint256",
          "name": "nftTokenId",
          "type": "uint256"
        },
        {
          "indexed": true,
          "internalType": "uint256",
          "name": "accessNftId",
          "type": "uint256"
        },
        {
          "indexed": false,
          "internalType": "uint256",
          "name": "amount",
          "type": "uint256"
        }
      ],
      "name": "AccessNFTRedeemed",
      "type": "event"
    },
    {
      "anonymous": false,
      "inputs": [
        {
          "indexed": true,
          "internalType": "address",
          "name": "creator",
          "type": "address"
        },
        {
          "indexed": false,
          "internalType": "uint256[]",
          "name": "nftIds",
          "type": "uint256[]"
        },
        {
          "indexed": false,
          "internalType": "string[]",
          "name": "nftURIs",
          "type": "string[]"
        },
        {
          "indexed": false,
          "internalType": "uint256[]",
          "name": "acessNftIds",
          "type": "uint256[]"
        },
        {
          "indexed": false,
          "internalType": "string[]",
          "name": "accessNftURIs",
          "type": "string[]"
        },
        {
          "indexed": false,
          "internalType": "uint256[]",
          "name": "nftSupplies",
          "type": "uint256[]"
        }
      ],
      "name": "AccessNFTsCreated",
      "type": "event"
    },
    {
      "anonymous": false,
      "inputs": [
        {
          "indexed": true,
          "internalType": "address",
          "name": "account",
          "type": "address"
        },
        {
          "indexed": true,
          "internalType": "address",
          "name": "operator",
          "type": "address"
        },
        {
          "indexed": false,
          "internalType": "bool",
          "name": "approved",
          "type": "bool"
        }
      ],
      "name": "ApprovalForAll",
      "type": "event"
    },
    {
      "anonymous": false,
      "inputs": [
        {
          "indexed": false,
          "internalType": "address",
          "name": "account",
          "type": "address"
        }
      ],
      "name": "Paused",
      "type": "event"
    },
    {
      "anonymous": false,
      "inputs": [
        {
          "indexed": true,
          "internalType": "bytes32",
          "name": "role",
          "type": "bytes32"
        },
        {
          "indexed": true,
          "internalType": "bytes32",
          "name": "previousAdminRole",
          "type": "bytes32"
        },
        {
          "indexed": true,
          "internalType": "bytes32",
          "name": "newAdminRole",
          "type": "bytes32"
        }
      ],
      "name": "RoleAdminChanged",
      "type": "event"
    },
    {
      "anonymous": false,
      "inputs": [
        {
          "indexed": true,
          "internalType": "bytes32",
          "name": "role",
          "type": "bytes32"
        },
        {
          "indexed": true,
          "internalType": "address",
          "name": "account",
          "type": "address"
        },
        {
          "indexed": true,
          "internalType": "address",
          "name": "sender",
          "type": "address"
        }
      ],
      "name": "RoleGranted",
      "type": "event"
    },
    {
      "anonymous": false,
      "inputs": [
        {
          "indexed": true,
          "internalType": "bytes32",
          "name": "role",
          "type": "bytes32"
        },
        {
          "indexed": true,
          "internalType": "address",
          "name": "account",
          "type": "address"
        },
        {
          "indexed": true,
          "internalType": "address",
          "name": "sender",
          "type": "address"
        }
      ],
      "name": "RoleRevoked",
      "type": "event"
    },
    {
      "anonymous": false,
      "inputs": [
        {
          "indexed": false,
          "internalType": "uint256",
          "name": "royaltyBps",
          "type": "uint256"
        }
      ],
      "name": "RoyaltyUpdated",
      "type": "event"
    },
    {
      "anonymous": false,
      "inputs": [
        {
          "indexed": true,
          "internalType": "address",
          "name": "operator",
          "type": "address"
        },
        {
          "indexed": true,
          "internalType": "address",
          "name": "from",
          "type": "address"
        },
        {
          "indexed": true,
          "internalType": "address",
          "name": "to",
          "type": "address"
        },
        {
          "indexed": false,
          "internalType": "uint256[]",
          "name": "ids",
          "type": "uint256[]"
        },
        {
          "indexed": false,
          "internalType": "uint256[]",
          "name": "values",
          "type": "uint256[]"
        }
      ],
      "name": "TransferBatch",
      "type": "event"
    },
    {
      "anonymous": false,
      "inputs": [
        {
          "indexed": true,
          "internalType": "address",
          "name": "operator",
          "type": "address"
        },
        {
          "indexed": true,
          "internalType": "address",
          "name": "from",
          "type": "address"
        },
        {
          "indexed": true,
          "internalType": "address",
          "name": "to",
          "type": "address"
        },
        {
          "indexed": false,
          "internalType": "uint256",
          "name": "id",
          "type": "uint256"
        },
        {
          "indexed": false,
          "internalType": "uint256",
          "name": "value",
          "type": "uint256"
        }
      ],
      "name": "TransferSingle",
      "type": "event"
    },
    {
      "anonymous": false,
      "inputs": [
        {
          "indexed": false,
          "internalType": "string",
          "name": "value",
          "type": "string"
        },
        {
          "indexed": true,
          "internalType": "uint256",
          "name": "id",
          "type": "uint256"
        }
      ],
      "name": "URI",
      "type": "event"
    },
    {
      "anonymous": false,
      "inputs": [
        {
          "indexed": false,
          "internalType": "address",
          "name": "account",
          "type": "address"
        }
      ],
      "name": "Unpaused",
      "type": "event"
    },
    {
      "inputs": [],
      "name": "DEFAULT_ADMIN_ROLE",
      "outputs": [
        {
          "internalType": "bytes32",
          "name": "",
          "type": "bytes32"
        }
      ],
      "stateMutability": "view",
      "type": "function"
    },
    {
      "inputs": [],
      "name": "MINTER_ROLE",
      "outputs": [
        {
          "internalType": "bytes32",
          "name": "",
          "type": "bytes32"
        }
      ],
      "stateMutability": "view",
      "type": "function"
    },
    {
      "inputs": [],
      "name": "PAUSER_ROLE",
      "outputs": [
        {
          "internalType": "bytes32",
          "name": "",
          "type": "bytes32"
        }
      ],
      "stateMutability": "view",
      "type": "function"
    },
    {
      "inputs": [],
      "name": "_contractURI",
      "outputs": [
        {
          "internalType": "string",
          "name": "",
          "type": "string"
        }
      ],
      "stateMutability": "view",
      "type": "function"
    },
    {
      "inputs": [
        {
          "internalType": "address",
          "name": "account",
          "type": "address"
        },
        {
          "internalType": "uint256",
          "name": "id",
          "type": "uint256"
        }
      ],
      "name": "balanceOf",
      "outputs": [
        {
          "internalType": "uint256",
          "name": "",
          "type": "uint256"
        }
      ],
      "stateMutability": "view",
      "type": "function"
    },
    {
      "inputs": [
        {
          "internalType": "address[]",
          "name": "accounts",
          "type": "address[]"
        },
        {
          "internalType": "uint256[]",
          "name": "ids",
          "type": "uint256[]"
        }
      ],
      "name": "balanceOfBatch",
      "outputs": [
        {
          "internalType": "uint256[]",
          "name": "",
          "type": "uint256[]"
        }
      ],
      "stateMutability": "view",
      "type": "function"
    },
    {
      "inputs": [
        {
          "internalType": "address",
          "name": "account",
          "type": "address"
        },
        {
          "internalType": "uint256",
          "name": "id",
          "type": "uint256"
        },
        {
          "internalType": "uint256",
          "name": "value",
          "type": "uint256"
        }
      ],
      "name": "burn",
      "outputs": [],
      "stateMutability": "nonpayable",
      "type": "function"
    },
    {
      "inputs": [
        {
          "internalType": "address",
          "name": "account",
          "type": "address"
        },
        {
          "internalType": "uint256[]",
          "name": "ids",
          "type": "uint256[]"
        },
        {
          "internalType": "uint256[]",
          "name": "values",
          "type": "uint256[]"
        }
      ],
      "name": "burnBatch",
      "outputs": [],
      "stateMutability": "nonpayable",
      "type": "function"
    },
    {
      "inputs": [],
      "name": "contractURI",
      "outputs": [
        {
          "internalType": "string",
          "name": "",
          "type": "string"
        }
      ],
      "stateMutability": "view",
      "type": "function"
    },
    {
      "inputs": [
        {
          "internalType": "string[]",
          "name": "_nftURIs",
          "type": "string[]"
        },
        {
          "internalType": "string[]",
          "name": "_accessNftURIs",
          "type": "string[]"
        },
        {
          "internalType": "uint256[]",
          "name": "_nftSupplies",
          "type": "uint256[]"
        }
      ],
      "name": "createAccessNfts",
      "outputs": [
        {
          "internalType": "uint256[]",
          "name": "nftIds",
          "type": "uint256[]"
        }
      ],
      "stateMutability": "nonpayable",
      "type": "function"
    },
    {
      "inputs": [
        {
          "internalType": "address",
          "name": "_pack",
          "type": "address"
        },
        {
          "internalType": "string[]",
          "name": "_nftURIs",
          "type": "string[]"
        },
        {
          "internalType": "string[]",
          "name": "_accessNftURIs",
          "type": "string[]"
        },
        {
          "internalType": "uint256[]",
          "name": "_nftSupplies",
          "type": "uint256[]"
        },
        {
          "internalType": "string",
          "name": "_packURI",
          "type": "string"
        },
        {
          "internalType": "uint256",
          "name": "_secondsUntilOpenStart",
          "type": "uint256"
        },
        {
          "internalType": "uint256",
          "name": "_secondsUntilOpenEnd",
          "type": "uint256"
        },
        {
          "internalType": "uint256",
          "name": "_nftsPerOpen",
          "type": "uint256"
        }
      ],
      "name": "createAccessPack",
      "outputs": [],
      "stateMutability": "nonpayable",
      "type": "function"
    },
    {
      "inputs": [
        {
          "internalType": "bytes32",
          "name": "role",
          "type": "bytes32"
        }
      ],
      "name": "getRoleAdmin",
      "outputs": [
        {
          "internalType": "bytes32",
          "name": "",
          "type": "bytes32"
        }
      ],
      "stateMutability": "view",
      "type": "function"
    },
    {
      "inputs": [
        {
          "internalType": "bytes32",
          "name": "role",
          "type": "bytes32"
        },
        {
          "internalType": "uint256",
          "name": "index",
          "type": "uint256"
        }
      ],
      "name": "getRoleMember",
      "outputs": [
        {
          "internalType": "address",
          "name": "",
          "type": "address"
        }
      ],
      "stateMutability": "view",
      "type": "function"
    },
    {
      "inputs": [
        {
          "internalType": "bytes32",
          "name": "role",
          "type": "bytes32"
        }
      ],
      "name": "getRoleMemberCount",
      "outputs": [
        {
          "internalType": "uint256",
          "name": "",
          "type": "uint256"
        }
      ],
      "stateMutability": "view",
      "type": "function"
    },
    {
      "inputs": [
        {
          "internalType": "bytes32",
          "name": "role",
          "type": "bytes32"
        },
        {
          "internalType": "address",
          "name": "account",
          "type": "address"
        }
      ],
      "name": "grantRole",
      "outputs": [],
      "stateMutability": "nonpayable",
      "type": "function"
    },
    {
      "inputs": [
        {
          "internalType": "bytes32",
          "name": "role",
          "type": "bytes32"
        },
        {
          "internalType": "address",
          "name": "account",
          "type": "address"
        }
      ],
      "name": "hasRole",
      "outputs": [
        {
          "internalType": "bool",
          "name": "",
          "type": "bool"
        }
      ],
      "stateMutability": "view",
      "type": "function"
    },
    {
      "inputs": [
        {
          "internalType": "address",
          "name": "account",
          "type": "address"
        },
        {
          "internalType": "address",
          "name": "operator",
          "type": "address"
        }
      ],
      "name": "isApprovedForAll",
      "outputs": [
        {
          "internalType": "bool",
          "name": "",
          "type": "bool"
        }
      ],
      "stateMutability": "view",
      "type": "function"
    },
    {
      "inputs": [
        {
          "internalType": "uint256",
          "name": "_nftId",
          "type": "uint256"
        }
      ],
      "name": "isRedeemed",
      "outputs": [
        {
          "internalType": "bool",
          "name": "",
          "type": "bool"
        }
      ],
      "stateMutability": "view",
      "type": "function"
    },
    {
      "inputs": [
        {
          "internalType": "address",
          "name": "forwarder",
          "type": "address"
        }
      ],
      "name": "isTrustedForwarder",
      "outputs": [
        {
          "internalType": "bool",
          "name": "",
          "type": "bool"
        }
      ],
      "stateMutability": "view",
      "type": "function"
    },
    {
      "inputs": [
        {
          "internalType": "address",
          "name": "to",
          "type": "address"
        },
        {
          "internalType": "uint256",
          "name": "id",
          "type": "uint256"
        },
        {
          "internalType": "uint256",
          "name": "amount",
          "type": "uint256"
        },
        {
          "internalType": "bytes",
          "name": "data",
          "type": "bytes"
        }
      ],
      "name": "mint",
      "outputs": [],
      "stateMutability": "nonpayable",
      "type": "function"
    },
    {
      "inputs": [
        {
          "internalType": "address",
          "name": "to",
          "type": "address"
        },
        {
          "internalType": "uint256[]",
          "name": "ids",
          "type": "uint256[]"
        },
        {
          "internalType": "uint256[]",
          "name": "amounts",
          "type": "uint256[]"
        },
        {
          "internalType": "bytes",
          "name": "data",
          "type": "bytes"
        }
      ],
      "name": "mintBatch",
      "outputs": [],
      "stateMutability": "nonpayable",
      "type": "function"
    },
    {
      "inputs": [],
      "name": "nextTokenId",
      "outputs": [
        {
          "internalType": "uint256",
          "name": "",
          "type": "uint256"
        }
      ],
      "stateMutability": "view",
      "type": "function"
    },
    {
      "inputs": [
        {
          "internalType": "uint256",
          "name": "",
          "type": "uint256"
        }
      ],
      "name": "nftInfo",
      "outputs": [
        {
          "internalType": "address",
          "name": "creator",
          "type": "address"
        },
        {
          "internalType": "string",
          "name": "uri",
          "type": "string"
        },
        {
          "internalType": "uint256",
          "name": "supply",
          "type": "uint256"
        },
        {
          "internalType": "bool",
          "name": "isAccess",
          "type": "bool"
        },
        {
          "internalType": "uint256",
          "name": "accessNftId",
          "type": "uint256"
        },
        {
          "internalType": "enum AccessNFT.UnderlyingType",
          "name": "underlyingType",
          "type": "uint8"
        }
      ],
      "stateMutability": "view",
      "type": "function"
    },
    {
      "inputs": [
        {
          "internalType": "address",
          "name": "",
          "type": "address"
        },
        {
          "internalType": "address",
          "name": "",
          "type": "address"
        },
        {
          "internalType": "uint256[]",
          "name": "",
          "type": "uint256[]"
        },
        {
          "internalType": "uint256[]",
          "name": "",
          "type": "uint256[]"
        },
        {
          "internalType": "bytes",
          "name": "",
          "type": "bytes"
        }
      ],
      "name": "onERC1155BatchReceived",
      "outputs": [
        {
          "internalType": "bytes4",
          "name": "",
          "type": "bytes4"
        }
      ],
      "stateMutability": "nonpayable",
      "type": "function"
    },
    {
      "inputs": [
        {
          "internalType": "address",
          "name": "",
          "type": "address"
        },
        {
          "internalType": "address",
          "name": "",
          "type": "address"
        },
        {
          "internalType": "uint256",
          "name": "",
          "type": "uint256"
        },
        {
          "internalType": "uint256",
          "name": "",
          "type": "uint256"
        },
        {
          "internalType": "bytes",
          "name": "",
          "type": "bytes"
        }
      ],
      "name": "onERC1155Received",
      "outputs": [
        {
          "internalType": "bytes4",
          "name": "",
          "type": "bytes4"
        }
      ],
      "stateMutability": "nonpayable",
      "type": "function"
    },
    {
      "inputs": [],
      "name": "pause",
      "outputs": [],
      "stateMutability": "nonpayable",
      "type": "function"
    },
    {
      "inputs": [],
      "name": "paused",
      "outputs": [
        {
          "internalType": "bool",
          "name": "",
          "type": "bool"
        }
      ],
      "stateMutability": "view",
      "type": "function"
    },
    {
      "inputs": [
        {
          "internalType": "uint256",
          "name": "_tokenId",
          "type": "uint256"
        },
        {
          "internalType": "uint256",
          "name": "_amount",
          "type": "uint256"
        }
      ],
      "name": "redeemAccess",
      "outputs": [],
      "stateMutability": "nonpayable",
      "type": "function"
    },
    {
      "inputs": [
        {
          "internalType": "bytes32",
          "name": "role",
          "type": "bytes32"
        },
        {
          "internalType": "address",
          "name": "account",
          "type": "address"
        }
      ],
      "name": "renounceRole",
      "outputs": [],
      "stateMutability": "nonpayable",
      "type": "function"
    },
    {
      "inputs": [
        {
          "internalType": "bytes32",
          "name": "role",
          "type": "bytes32"
        },
        {
          "internalType": "address",
          "name": "account",
          "type": "address"
        }
      ],
      "name": "revokeRole",
      "outputs": [],
      "stateMutability": "nonpayable",
      "type": "function"
    },
    {
      "inputs": [],
      "name": "royaltyBps",
      "outputs": [
        {
          "internalType": "uint256",
          "name": "",
          "type": "uint256"
        }
      ],
      "stateMutability": "view",
      "type": "function"
    },
    {
      "inputs": [
        {
          "internalType": "uint256",
          "name": "tokenId",
          "type": "uint256"
        },
        {
          "internalType": "uint256",
          "name": "salePrice",
          "type": "uint256"
        }
      ],
      "name": "royaltyInfo",
      "outputs": [
        {
          "internalType": "address",
          "name": "receiver",
          "type": "address"
        },
        {
          "internalType": "uint256",
          "name": "royaltyAmount",
          "type": "uint256"
        }
      ],
      "stateMutability": "view",
      "type": "function"
    },
    {
      "inputs": [
        {
          "internalType": "address",
          "name": "from",
          "type": "address"
        },
        {
          "internalType": "address",
          "name": "to",
          "type": "address"
        },
        {
          "internalType": "uint256[]",
          "name": "ids",
          "type": "uint256[]"
        },
        {
          "internalType": "uint256[]",
          "name": "amounts",
          "type": "uint256[]"
        },
        {
          "internalType": "bytes",
          "name": "data",
          "type": "bytes"
        }
      ],
      "name": "safeBatchTransferFrom",
      "outputs": [],
      "stateMutability": "nonpayable",
      "type": "function"
    },
    {
      "inputs": [
        {
          "internalType": "address",
          "name": "from",
          "type": "address"
        },
        {
          "internalType": "address",
          "name": "to",
          "type": "address"
        },
        {
          "internalType": "uint256",
          "name": "id",
          "type": "uint256"
        },
        {
          "internalType": "uint256",
          "name": "amount",
          "type": "uint256"
        },
        {
          "internalType": "bytes",
          "name": "data",
          "type": "bytes"
        }
      ],
      "name": "safeTransferFrom",
      "outputs": [],
      "stateMutability": "nonpayable",
      "type": "function"
    },
    {
      "inputs": [
        {
          "internalType": "address",
          "name": "operator",
          "type": "address"
        },
        {
          "internalType": "bool",
          "name": "approved",
          "type": "bool"
        }
      ],
      "name": "setApprovalForAll",
      "outputs": [],
      "stateMutability": "nonpayable",
      "type": "function"
    },
    {
      "inputs": [
        {
          "internalType": "string",
          "name": "_URI",
          "type": "string"
        }
      ],
      "name": "setContractURI",
      "outputs": [],
      "stateMutability": "nonpayable",
      "type": "function"
    },
    {
      "inputs": [
        {
          "internalType": "uint256",
          "name": "_royaltyBps",
          "type": "uint256"
        }
      ],
      "name": "setRoyaltyBps",
      "outputs": [],
      "stateMutability": "nonpayable",
      "type": "function"
    },
    {
      "inputs": [
        {
          "internalType": "bytes4",
          "name": "interfaceId",
          "type": "bytes4"
        }
      ],
      "name": "supportsInterface",
      "outputs": [
        {
          "internalType": "bool",
          "name": "",
          "type": "bool"
        }
      ],
      "stateMutability": "pure",
      "type": "function"
    },
    {
      "inputs": [
        {
          "internalType": "uint256",
          "name": "_nftId",
          "type": "uint256"
        }
      ],
      "name": "tokenURI",
      "outputs": [
        {
          "internalType": "string",
          "name": "",
          "type": "string"
        }
      ],
      "stateMutability": "view",
      "type": "function"
    },
    {
      "inputs": [],
      "name": "unpause",
      "outputs": [],
      "stateMutability": "nonpayable",
      "type": "function"
    },
    {
      "inputs": [
        {
          "internalType": "uint256",
          "name": "_nftId",
          "type": "uint256"
        }
      ],
      "name": "uri",
      "outputs": [
        {
          "internalType": "string",
          "name": "",
          "type": "string"
        }
      ],
      "stateMutability": "view",
      "type": "function"
    }
  ],
  "bytecode": "0x60806040523480156200001157600080fd5b506040516200519c3803806200519c8339810160408190526200003491620003db565b818180620000428162000119565b506005805460ff191690556200006360006200005d62000132565b6200014f565b620000927f9f2df0fed2c77648de5860a4cc508cd0818c85b8b8a1ab4ceeef8d981c8956a66200005d62000132565b620000c17f65d7a28e3265b37a6474929f336521b332c1681b933f6cb9f3376673440d862a6200005d62000132565b5060058054610100600160a81b0319166101006001600160a01b0393841602179055600680546001600160a01b03191691851691909117905580516200010f90600990602084019062000335565b5050505062000544565b80516200012e90600490602084019062000335565b5050565b6000620001496200019260201b62001d601760201c565b90505b90565b620001668282620001d260201b62001d8e1760201c565b60008281526001602090815260409091206200018d91839062001d9c620001de821b17901c565b505050565b60006200019f33620001fe565b15620001b5575060131936013560601c6200014c565b620001ca6200021760201b62001db11760201c565b90506200014c565b6200012e82826200021b565b6000620001f5836001600160a01b038416620002a5565b90505b92915050565b60055461010090046001600160a01b0390811691161490565b3390565b620002278282620002f4565b6200012e576000828152602081815260408083206001600160a01b03851684529091529020805460ff191660011790556200026162000132565b6001600160a01b0316816001600160a01b0316837f2f8788117e7eff1d82e926ec794901d17c78024a50270940304540a733656f0d60405160405180910390a45050565b6000620002b383836200031d565b620002eb57508154600181810184556000848152602080822090930184905584548482528286019093526040902091909155620001f8565b506000620001f8565b6000918252602082815260408084206001600160a01b0393909316845291905290205460ff1690565b60009081526001919091016020526040902054151590565b8280546200034390620004d8565b90600052602060002090601f016020900481019282620003675760008555620003b2565b82601f106200038257805160ff1916838001178555620003b2565b82800160010185558215620003b2579182015b82811115620003b257825182559160200191906001019062000395565b50620003c0929150620003c4565b5090565b5b80821115620003c05760008155600101620003c5565b600080600060608486031215620003f0578283fd5b8351620003fd816200052b565b8093505060208085015162000412816200052b565b60408601519093506001600160401b03808211156200042f578384fd5b818701915087601f83011262000443578384fd5b81518181111562000458576200045862000515565b604051601f8201601f19168101850183811182821017156200047e576200047e62000515565b60405281815283820185018a101562000495578586fd5b8592505b81831015620004b8578383018501518184018601529184019162000499565b81831115620004c957858583830101525b80955050505050509250925092565b600281046001821680620004ed57607f821691505b602082108114156200050f57634e487b7160e01b600052602260045260246000fd5b50919050565b634e487b7160e01b600052604160045260246000fd5b6001600160a01b03811681146200054157600080fd5b50565b614c4880620005546000396000f3fe608060405234801561001057600080fd5b50600436106102d25760003560e01c806375794a3c11610186578063c63adb2b116100e3578063e63ab1e911610097578063f23a6e6111610071578063f23a6e61146105a1578063f242432a146105b4578063f5298aca146105c7576102d2565b8063e63ab1e91461057e578063e8a3d48514610586578063e985e9c51461058e576102d2565b8063ca15c873116100c8578063ca15c87314610550578063d539139314610563578063d547741f1461056b576102d2565b8063c63adb2b14610548578063c87b56dd14610320576102d2565b8063938e3d7b1161013a578063a22cb4651161011f578063a22cb4651461050d578063bc197c8114610520578063c0e7274014610540576102d2565b8063938e3d7b146104f2578063a217fddf14610505576102d2565b80638aa016531161016b5780638aa01653146104ac5780639010d07c146104bf57806391d14854146104df576102d2565b806375794a3c1461049c5780638456cb59146104a4576102d2565b80632f2ff15d116102345780634e1273f4116101e85780635c975abb116101cd5780635c975abb1461046e5780636b20c45414610476578063731133e914610489576102d2565b80634e1273f414610448578063572b6c051461045b576102d2565b806336568abe1161021957806336568abe1461040d5780633c16b12e146104205780633f4ba83a14610440576102d2565b80632f2ff15d146103e757806332d33cd0146103fa576102d2565b80631f8bc7901161028b5780632a55205a116102705780632a55205a146103a05780632e14bee8146103c15780632eb2c2d6146103d4576102d2565b80631f8bc79014610368578063248a9ca31461038d576102d2565b80630e89341c116102bc5780630e89341c146103205780631f72d831146103405780631f7fdffa14610355576102d2565b8062fdd58e146102d757806301ffc9a714610300575b600080fd5b6102ea6102e53660046137ba565b6105da565b6040516102f79190613ee0565b60405180910390f35b61031361030e366004613a4b565b610636565b6040516102f79190613ed5565b61033361032e3660046139d8565b61068a565b6040516102f79190613f46565b61035361034e3660046139d8565b61072f565b005b6103536103633660046136ef565b6109cb565b61037b6103763660046139d8565b610a25565b6040516102f796959493929190613d6d565b6102ea61039b3660046139d8565b610af2565b6103b36103ae366004613a2a565b610b07565b6040516102f7929190613dd4565b6103536103cf366004613a2a565b610bc8565b6103536103e236600461346e565b610d9b565b6103536103f5366004613a08565b610df9565b6103136104083660046139d8565b610e20565b61035361041b366004613a08565b610e38565b61043361042e366004613926565b610e5a565b6040516102f79190613ded565b6103536114cb565b610433610456366004613868565b61151d565b61031361046936600461342b565b61163d565b610313611656565b61035361048436600461367e565b611660565b610353610497366004613815565b6116b5565b6102ea611709565b61035361170f565b6103536104ba366004613577565b61175f565b6104d26104cd366004613a2a565b611898565b6040516102f79190613c80565b6103136104ed366004613a08565b6118b7565b610353610500366004613a83565b6118e0565b6102ea611a02565b61035361051b366004613784565b611a07565b61053361052e36600461346e565b611ad5565b6040516102f79190613f00565b610333611ae6565b6102ea611b74565b6102ea61055e3660046139d8565b611b7a565b6102ea611b91565b610353610579366004613a08565b611bb5565b6102ea611bbf565b610333611be3565b61031361059c366004613445565b611c75565b6105336105af366004613514565b611ca3565b6103536105c2366004613514565b611cb4565b6103536105d53660046137e3565b611d0b565b60006001600160a01b03831661060b5760405162461bcd60e51b81526004016106029061407f565b60405180910390fd5b5060008181526002602090815260408083206001600160a01b03861684529091529020545b92915050565b60006001600160e01b03198216630271189760e51b148061066757506001600160e01b03198216636cdb3d1360e11b145b8061068257506001600160e01b0319821663152a902d60e11b145b90505b919050565b6000818152600a602052604090206001018054606091906106aa90614ae7565b80601f01602080910402602001604051908101604052809291908181526020018280546106d690614ae7565b80156107235780601f106106f857610100808354040283529160200191610723565b820191906000526020600020905b81548152906001019060200180831161070657829003601f168201915b50505050509050919050565b60065460408051634a32c6bf60e11b815290516001600160a01b03909216916391d148549183916394658d7e91600480820192602092909190829003018186803b15801561077c57600080fd5b505afa158015610790573d6000803e3d6000fd5b505050506040513d601f19601f820116820180604052508101906107b491906139f0565b6107bc611db5565b6040518363ffffffff1660e01b81526004016107d9929190613ee9565b60206040518083038186803b1580156107f157600080fd5b505afa158015610805573d6000803e3d6000fd5b505050506040513d601f19601f8201168201806040525081019061082991906139bc565b6108455760405162461bcd60e51b815260040161060290614120565b600660009054906101000a90046001600160a01b03166001600160a01b0316635cd423156040518163ffffffff1660e01b815260040160206040518083038186803b15801561089357600080fd5b505afa1580156108a7573d6000803e3d6000fd5b505050506040513d601f19601f820116820180604052508101906108cb9190613ac3565b600660009054906101000a90046001600160a01b03166001600160a01b031663fd967f476040518163ffffffff1660e01b815260040160206040518083038186803b15801561091957600080fd5b505afa15801561092d573d6000803e3d6000fd5b505050506040513d601f19601f820116820180604052508101906109519190613ac3565b61095b9190614a02565b6fffffffffffffffffffffffffffffffff16811061098b5760405162461bcd60e51b8152600401610602906148a7565b60088190556040517f244ea8d7627f5a08f4299862bd5a45752842c183aee5b0fb0d1e4887bfa605b3906109c0908390613ee0565b60405180910390a150565b6109f77f9f2df0fed2c77648de5860a4cc508cd0818c85b8b8a1ab4ceeef8d981c8956a66104ed611db5565b610a135760405162461bcd60e51b815260040161060290614482565b610a1f84848484611dc4565b50505050565b600a60205260009081526040902080546001820180546001600160a01b039092169291610a5190614ae7565b80601f0160208091040260200160405190810160405280929190818152602001828054610a7d90614ae7565b8015610aca5780601f10610a9f57610100808354040283529160200191610aca565b820191906000526020600020905b815481529060010190602001808311610aad57829003601f168201915b505050506002830154600384015460048501546005909501549394919360ff91821693501686565b60009081526020819052604090206001015490565b6000828152600a6020908152604080832054600654825163fd967f4760e01b815292516001600160a01b039283169594919092169263fd967f479260048083019392829003018186803b158015610b5d57600080fd5b505afa158015610b71573d6000803e3d6000fd5b505050506040513d601f19601f82011682018060405250810190610b959190613ac3565b6fffffffffffffffffffffffffffffffff1660085484610bb59190614a6e565b610bbf9190614a4e565b90509250929050565b600660009054906101000a90046001600160a01b03166001600160a01b0316639d2f83f06040518163ffffffff1660e01b815260040160206040518083038186803b158015610c1657600080fd5b505afa158015610c2a573d6000803e3d6000fd5b505050506040513d601f19601f82011682018060405250810190610c4e91906139bc565b15610c6b5760405162461bcd60e51b815260040161060290614599565b6000828152600a602052604090206003015460ff1615610c9d5760405162461bcd60e51b8152600401610602906145db565b6000610ca7611db5565b905081610cb482856105da565b1015610cd25760405162461bcd60e51b815260040161060290614237565b610ce4610cdd611db5565b8484611d0b565b6000838152600a6020526040908190206004908101549151637921219560e11b8152309163f242432a91610d20918491879187918a9101613d35565b600060405180830381600087803b158015610d3a57600080fd5b505af1158015610d4e573d6000803e3d6000fd5b505050508084836001600160a01b03167fa70022dc131dbd0be52c08bf87947e36b3e7d4934dce1efecf2d261c381d101786604051610d8d9190613ee0565b60405180910390a450505050565b610da3611db5565b6001600160a01b0316856001600160a01b03161480610dc95750610dc98561059c611db5565b610de55760405162461bcd60e51b815260040161060290614385565b610df28585858585611f46565b5050505050565b610e03828261211a565b6000828152600160205260409020610e1b9082611d9c565b505050565b6000908152600a602052604090206003015460ff1690565b610e42828261213e565b6000828152600160205260409020610e1b9082612180565b600654604080516309d2f83f60e41b815290516060926001600160a01b031691639d2f83f0916004808301926020929190829003018186803b158015610e9f57600080fd5b505afa158015610eb3573d6000803e3d6000fd5b505050506040513d601f19601f82011682018060405250810190610ed791906139bc565b15610ef45760405162461bcd60e51b815260040161060290614599565b8582148015610f0257508584145b610f1e5760405162461bcd60e51b815260040161060290614638565b85610f3b5760405162461bcd60e51b8152600401610602906142cb565b8567ffffffffffffffff811115610f6257634e487b7160e01b600052604160045260246000fd5b604051908082528060200260200182016040528015610f8b578160200160208202803683370190505b50905060008667ffffffffffffffff811115610fb757634e487b7160e01b600052604160045260246000fd5b604051908082528060200260200182016040528015610fe0578160200160208202803683370190505b5060075490915060005b888110156113c2578183828151811061101357634e487b7160e01b600052603260045260246000fd5b6020026020010181815250506040518060c00160405280611032611db5565b6001600160a01b0316815260200189898481811061106057634e487b7160e01b600052603260045260246000fd5b9050602002810190611072919061496f565b8080601f0160208091040260200160405190810160405280939291908181526020018383808284376000920191909152505050908252506020018787848181106110cc57634e487b7160e01b600052603260045260246000fd5b905060200201358152602001600115158152602001600081526020016000600281111561110957634e487b7160e01b600052602160045260246000fd5b90526000838152600a602090815260409091208251815473ffffffffffffffffffffffffffffffffffffffff19166001600160a01b03909116178155828201518051919261115f926001850192909101906131a7565b506040820151600280830191909155606083015160038301805491151560ff199283161790556080840151600484015560a084015160058401805491939092919091169060019084908111156111c557634e487b7160e01b600052602160045260246000fd5b02179055506111d991506001905083614a36565b9150818482815181106111fc57634e487b7160e01b600052603260045260246000fd5b6020026020010181815250506040518060c0016040528061121b611db5565b6001600160a01b031681526020018b8b8481811061124957634e487b7160e01b600052603260045260246000fd5b905060200281019061125b919061496f565b8080601f0160208091040260200160405190810160405280939291908181526020018383808284376000920191909152505050908252506020018787848181106112b557634e487b7160e01b600052603260045260246000fd5b9050602002013581526020016000151581526020016001846112d79190614a8d565b8152602001600090526000838152600a602090815260409091208251815473ffffffffffffffffffffffffffffffffffffffff19166001600160a01b039091161781558282015180519192611334926001850192909101906131a7565b506040820151600280830191909155606083015160038301805491151560ff199283161790556080840151600484015560a0840151600584018054919390929190911690600190849081111561139a57634e487b7160e01b600052602160045260246000fd5b02179055506113ae91506001905083614a36565b9150806113ba81614b22565b915050610fea565b508060078190555061141630838787808060200260200160405190810160405280939291908181526020018383602002808284376000920182905250604080516020810190915290815292506109cb915050565b611469611421611db5565b848787808060200260200160405190810160405280939291908181526020018383602002808284376000920182905250604080516020810190915290815292506109cb915050565b611471611db5565b6001600160a01b03167fe309c6cae6e35dcc6c2f37d5da32b19e0346074be56b9722cdf852d20fced6ee848b8b868c8c8c8c6040516114b7989796959493929190613e00565b60405180910390a250509695505050505050565b6114f77f65d7a28e3265b37a6474929f336521b332c1681b933f6cb9f3376673440d862a6104ed611db5565b6115135760405162461bcd60e51b815260040161060290614695565b61151b612195565b565b606081518351146115405760405162461bcd60e51b8152600401610602906147ac565b6000835167ffffffffffffffff81111561156a57634e487b7160e01b600052604160045260246000fd5b604051908082528060200260200182016040528015611593578160200160208202803683370190505b50905060005b8451811015611635576115fa8582815181106115c557634e487b7160e01b600052603260045260246000fd5b60200260200101518583815181106115ed57634e487b7160e01b600052603260045260246000fd5b60200260200101516105da565b82828151811061161a57634e487b7160e01b600052603260045260246000fd5b602090810291909101015261162e81614b22565b9050611599565b509392505050565b60055461010090046001600160a01b0390811691161490565b60055460ff165b90565b611668611db5565b6001600160a01b0316836001600160a01b0316148061168e575061168e8361059c611db5565b6116aa5760405162461bcd60e51b8152600401610602906141da565b610e1b838383612203565b6116e17f9f2df0fed2c77648de5860a4cc508cd0818c85b8b8a1ab4ceeef8d981c8956a66104ed611db5565b6116fd5760405162461bcd60e51b815260040161060290614482565b610a1f848484846123a9565b60075481565b61173b7f65d7a28e3265b37a6474929f336521b332c1681b933f6cb9f3376673440d862a6104ed611db5565b6117575760405162461bcd60e51b8152600401610602906146f2565b61151b61249a565b600660009054906101000a90046001600160a01b03166001600160a01b0316639d2f83f06040518163ffffffff1660e01b815260040160206040518083038186803b1580156117ad57600080fd5b505afa1580156117c1573d6000803e3d6000fd5b505050506040513d601f19601f820116820180604052508101906117e591906139bc565b156118025760405162461bcd60e51b815260040161060290614599565b60006118128c8c8c8c8c8c610e5a565b90506000868686868660405160200161182f959493929190613f15565b604051602081830303815290604052905061188861184b611db5565b8f848c8c80806020026020016040519081016040528093929190818152602001838360200280828437600092019190915250889250610d9b915050565b5050505050505050505050505050565b60008281526001602052604081206118b090836124f5565b9392505050565b6000918252602082815260408084206001600160a01b0393909316845291905290205460ff1690565b60065460408051634a32c6bf60e11b815290516001600160a01b03909216916391d148549183916394658d7e91600480820192602092909190829003018186803b15801561192d57600080fd5b505afa158015611941573d6000803e3d6000fd5b505050506040513d601f19601f8201168201806040525081019061196591906139f0565b61196d611db5565b6040518363ffffffff1660e01b815260040161198a929190613ee9565b60206040518083038186803b1580156119a257600080fd5b505afa1580156119b6573d6000803e3d6000fd5b505050506040513d601f19601f820116820180604052508101906119da91906139bc565b6119f65760405162461bcd60e51b815260040161060290614120565b610e1b6009838361322b565b600081565b816001600160a01b0316611a19611db5565b6001600160a01b03161415611a405760405162461bcd60e51b81526004016106029061474f565b8060036000611a4d611db5565b6001600160a01b03908116825260208083019390935260409182016000908120918716808252919093529120805460ff191692151592909217909155611a91611db5565b6001600160a01b03167f17307eab39ab6107e8899845ad3d59bd9653f200f220920489ca2b5937696c3183604051611ac99190613ed5565b60405180910390a35050565b63bc197c8160e01b95945050505050565b60098054611af390614ae7565b80601f0160208091040260200160405190810160405280929190818152602001828054611b1f90614ae7565b8015611b6c5780601f10611b4157610100808354040283529160200191611b6c565b820191906000526020600020905b815481529060010190602001808311611b4f57829003601f168201915b505050505081565b60085481565b600081815260016020526040812061068290612501565b7f9f2df0fed2c77648de5860a4cc508cd0818c85b8b8a1ab4ceeef8d981c8956a681565b610e42828261250c565b7f65d7a28e3265b37a6474929f336521b332c1681b933f6cb9f3376673440d862a81565b606060098054611bf290614ae7565b80601f0160208091040260200160405190810160405280929190818152602001828054611c1e90614ae7565b8015611c6b5780601f10611c4057610100808354040283529160200191611c6b565b820191906000526020600020905b815481529060010190602001808311611c4e57829003601f168201915b5050505050905090565b6001600160a01b03918216600090815260036020908152604080832093909416825291909152205460ff1690565b63f23a6e6160e01b95945050505050565b611cbc611db5565b6001600160a01b0316856001600160a01b03161480611ce25750611ce28561059c611db5565b611cfe5760405162461bcd60e51b8152600401610602906141da565b610df2858585858561252b565b611d13611db5565b6001600160a01b0316836001600160a01b03161480611d395750611d398361059c611db5565b611d555760405162461bcd60e51b8152600401610602906141da565b610e1b838383612663565b6000611d6b3361163d565b15611d7f575060131936013560601c61165d565b611d87611db1565b905061165d565b611d988282612776565b5050565b60006118b0836001600160a01b0384166127fb565b3390565b6000611dbf611d60565b905090565b6001600160a01b038416611dea5760405162461bcd60e51b815260040161060290614866565b8151835114611e0b5760405162461bcd60e51b815260040161060290614809565b6000611e15611db5565b9050611e2681600087878787612845565b60005b8451811015611ede57838181518110611e5257634e487b7160e01b600052603260045260246000fd5b602002602001015160026000878481518110611e7e57634e487b7160e01b600052603260045260246000fd5b602002602001015181526020019081526020016000206000886001600160a01b03166001600160a01b031681526020019081526020016000206000828254611ec69190614a36565b90915550819050611ed681614b22565b915050611e29565b50846001600160a01b031660006001600160a01b0316826001600160a01b03167f4a39dc06d4c0dbc64b70af90fd698a233a518aa5d07e595d983b8c0526c8f7fb8787604051611f2f929190613ea7565b60405180910390a4610df281600087878787612b11565b8151835114611f675760405162461bcd60e51b815260040161060290614809565b6001600160a01b038416611f8d5760405162461bcd60e51b815260040161060290614328565b6000611f97611db5565b9050611fa7818787878787612845565b60005b84518110156120ac576000858281518110611fd557634e487b7160e01b600052603260045260246000fd5b60200260200101519050600085838151811061200157634e487b7160e01b600052603260045260246000fd5b60209081029190910181015160008481526002835260408082206001600160a01b038e1683529093529190912054909150818110156120525760405162461bcd60e51b8152600401610602906144df565b60008381526002602090815260408083206001600160a01b038e8116855292528083208585039055908b16825281208054849290612091908490614a36565b92505081905550505050806120a590614b22565b9050611faa565b50846001600160a01b0316866001600160a01b0316826001600160a01b03167f4a39dc06d4c0dbc64b70af90fd698a233a518aa5d07e595d983b8c0526c8f7fb87876040516120fc929190613ea7565b60405180910390a4612112818787878787612b11565b505050505050565b61212382610af2565b6121348161212f611db5565b612c1f565b610e1b8383612776565b612146611db5565b6001600160a01b0316816001600160a01b0316146121765760405162461bcd60e51b815260040161060290614904565b611d988282612c83565b60006118b0836001600160a01b038416612d06565b61219d611656565b6121b95760405162461bcd60e51b815260040161060290614048565b6005805460ff191690557f5db9ee0a495bf2e6ff9c91a7834c1ba4fdd244a5e8aa4e537bd38aeae4b073aa6121ec611db5565b6040516121f99190613c80565b60405180910390a1565b6001600160a01b0383166122295760405162461bcd60e51b81526004016106029061443f565b805182511461224a5760405162461bcd60e51b815260040161060290614809565b6000612254611db5565b905061227481856000868660405180602001604052806000815250612845565b60005b83518110156123585760008482815181106122a257634e487b7160e01b600052603260045260246000fd5b6020026020010151905060008483815181106122ce57634e487b7160e01b600052603260045260246000fd5b60209081029190910181015160008481526002835260408082206001600160a01b038c16835290935291909120549091508181101561231f5760405162461bcd60e51b8152600401610602906140dc565b60009283526002602090815260408085206001600160a01b038b168652909152909220910390558061235081614b22565b915050612277565b5060006001600160a01b0316846001600160a01b0316826001600160a01b03167f4a39dc06d4c0dbc64b70af90fd698a233a518aa5d07e595d983b8c0526c8f7fb8686604051610d8d929190613ea7565b6001600160a01b0384166123cf5760405162461bcd60e51b815260040161060290614866565b60006123d9611db5565b90506123fa816000876123eb88612e23565b6123f488612e23565b87612845565b60008481526002602090815260408083206001600160a01b03891684529091528120805485929061242c908490614a36565b92505081905550846001600160a01b031660006001600160a01b0316826001600160a01b03167fc3d58168c5ae7397731d063d5bbf3d657854427343f4c083240f7aacaa2d0f628787604051612483929190614961565b60405180910390a4610df281600087878787612e7c565b6124a2611656565b156124bf5760405162461bcd60e51b815260040161060290614294565b6005805460ff191660011790557f62e78cea01bee320cd4e420270b5ea74000d11b0c9f74754ebdbfc544b05a2586121ec611db5565b60006118b08383612f4d565b600061068282612f85565b61251582610af2565b6125218161212f611db5565b610e1b8383612c83565b6001600160a01b0384166125515760405162461bcd60e51b815260040161060290614328565b600061255b611db5565b905061256c8187876123eb88612e23565b60008481526002602090815260408083206001600160a01b038a168452909152902054838110156125af5760405162461bcd60e51b8152600401610602906144df565b60008581526002602090815260408083206001600160a01b038b81168552925280832087850390559088168252812080548692906125ee908490614a36565b92505081905550856001600160a01b0316876001600160a01b0316836001600160a01b03167fc3d58168c5ae7397731d063d5bbf3d657854427343f4c083240f7aacaa2d0f628888604051612644929190614961565b60405180910390a461265a828888888888612e7c565b50505050505050565b6001600160a01b0383166126895760405162461bcd60e51b81526004016106029061443f565b6000612693611db5565b90506126c3818560006126a587612e23565b6126ae87612e23565b60405180602001604052806000815250612845565b60008381526002602090815260408083206001600160a01b0388168452909152902054828110156127065760405162461bcd60e51b8152600401610602906140dc565b60008481526002602090815260408083206001600160a01b03808a16808652919093528184208786039055905190918516907fc3d58168c5ae7397731d063d5bbf3d657854427343f4c083240f7aacaa2d0f62906127679089908990614961565b60405180910390a45050505050565b61278082826118b7565b611d98576000828152602081815260408083206001600160a01b03851684529091529020805460ff191660011790556127b7611db5565b6001600160a01b0316816001600160a01b0316837f2f8788117e7eff1d82e926ec794901d17c78024a50270940304540a733656f0d60405160405180910390a45050565b60006128078383612f89565b61283d57508154600181810184556000848152602080822090930184905584548482528286019093526040902091909155610630565b506000610630565b612853868686868686612fa1565b60065460405163216c788d60e11b81526001600160a01b03909116906342d8f11a90612883903090600401613c80565b60206040518083038186803b15801561289b57600080fd5b505afa1580156128af573d6000803e3d6000fd5b505050506040513d601f19601f820116820180604052508101906128d391906139bc565b156129e7576006546040805163206b60f960e01b815290516001600160a01b03909216916391d1485491839163206b60f991600480820192602092909190829003018186803b15801561292557600080fd5b505afa158015612939573d6000803e3d6000fd5b505050506040513d601f19601f8201168201806040525081019061295d91906139f0565b886040518363ffffffff1660e01b815260040161297b929190613ee9565b60206040518083038186803b15801561299357600080fd5b505afa1580156129a7573d6000803e3d6000fd5b505050506040513d601f19601f820116820180604052508101906129cb91906139bc565b6129e75760405162461bcd60e51b81526004016106029061453c565b60005b835181101561265a576001600160a01b038516612a7b57828181518110612a2157634e487b7160e01b600052603260045260246000fd5b6020026020010151600a6000868481518110612a4d57634e487b7160e01b600052603260045260246000fd5b602002602001015181526020019081526020016000206002016000828254612a759190614a8d565b90915550505b600a6000858381518110612a9f57634e487b7160e01b600052603260045260246000fd5b60209081029190910181015182528101919091526040016000206003015460ff1615612aff576001600160a01b0386161580612ae357506001600160a01b03861630145b612aff5760405162461bcd60e51b8152600401610602906143e2565b80612b0981614b22565b9150506129ea565b612b23846001600160a01b0316612faf565b156121125760405163bc197c8160e01b81526001600160a01b0385169063bc197c8190612b5c9089908990889088908890600401613c94565b602060405180830381600087803b158015612b7657600080fd5b505af1925050508015612ba6575060408051601f3d908101601f19168201909252612ba391810190613a67565b60015b612bef57612bb2614b6f565b80612bbd5750612bd7565b8060405162461bcd60e51b81526004016106029190613f46565b60405162461bcd60e51b815260040161060290613f59565b6001600160e01b0319811663bc197c8160e01b1461265a5760405162461bcd60e51b815260040161060290613feb565b612c2982826118b7565b611d9857612c41816001600160a01b03166014612fb5565b612c4c836020612fb5565b604051602001612c5d929190613bff565b60408051601f198184030181529082905262461bcd60e51b825261060291600401613f46565b612c8d82826118b7565b15611d98576000828152602081815260408083206001600160a01b03851684529091529020805460ff19169055612cc2611db5565b6001600160a01b0316816001600160a01b0316837ff6391f5c32d9c69d2a47ea670b442974b53935d1edc7fd64eb21e047a839171b60405160405180910390a45050565b60008181526001830160205260408120548015612e19576000612d2a600183614a8d565b8554909150600090612d3e90600190614a8d565b9050818114612dbf576000866000018281548110612d6c57634e487b7160e01b600052603260045260246000fd5b9060005260206000200154905080876000018481548110612d9d57634e487b7160e01b600052603260045260246000fd5b6000918252602080832090910192909255918252600188019052604090208390555b8554869080612dde57634e487b7160e01b600052603160045260246000fd5b600190038181906000526020600020016000905590558560010160008681526020019081526020016000206000905560019350505050610630565b6000915050610630565b60408051600180825281830190925260609160009190602080830190803683370190505090508281600081518110612e6b57634e487b7160e01b600052603260045260246000fd5b602090810291909101015292915050565b612e8e846001600160a01b0316612faf565b156121125760405163f23a6e6160e01b81526001600160a01b0385169063f23a6e6190612ec79089908990889088908890600401613cf2565b602060405180830381600087803b158015612ee157600080fd5b505af1925050508015612f11575060408051601f3d908101601f19168201909252612f0e91810190613a67565b60015b612f1d57612bb2614b6f565b6001600160e01b0319811663f23a6e6160e01b1461265a5760405162461bcd60e51b815260040161060290613feb565b6000826000018281548110612f7257634e487b7160e01b600052603260045260246000fd5b9060005260206000200154905092915050565b5490565b60009081526001919091016020526040902054151590565b612112868686868686613174565b3b151590565b60606000612fc4836002614a6e565b612fcf906002614a36565b67ffffffffffffffff811115612ff557634e487b7160e01b600052604160045260246000fd5b6040519080825280601f01601f19166020018201604052801561301f576020820181803683370190505b509050600360fc1b8160008151811061304857634e487b7160e01b600052603260045260246000fd5b60200101906001600160f81b031916908160001a905350600f60fb1b8160018151811061308557634e487b7160e01b600052603260045260246000fd5b60200101906001600160f81b031916908160001a90535060006130a9846002614a6e565b6130b4906001614a36565b90505b6001811115613155577f303132333435363738396162636465660000000000000000000000000000000085600f166010811061310357634e487b7160e01b600052603260045260246000fd5b1a60f81b82828151811061312757634e487b7160e01b600052603260045260246000fd5b60200101906001600160f81b031916908160001a90535060049490941c9361314e81614ad0565b90506130b7565b5083156118b05760405162461bcd60e51b815260040161060290613fb6565b613182868686868686612112565b61318a611656565b156121125760405162461bcd60e51b81526004016106029061417d565b8280546131b390614ae7565b90600052602060002090601f0160209004810192826131d5576000855561321b565b82601f106131ee57805160ff191683800117855561321b565b8280016001018555821561321b579182015b8281111561321b578251825591602001919060010190613200565b5061322792915061329f565b5090565b82805461323790614ae7565b90600052602060002090601f016020900481019282613259576000855561321b565b82601f106132725782800160ff1982351617855561321b565b8280016001018555821561321b579182015b8281111561321b578235825591602001919060010190613284565b5b8082111561322757600081556001016132a0565b80356001600160a01b038116811461068557600080fd5b60008083601f8401126132dc578182fd5b50813567ffffffffffffffff8111156132f3578182fd5b602083019150836020808302850101111561330d57600080fd5b9250929050565b600082601f830112613324578081fd5b81356020613339613334836149de565b6149b4565b8281528181019085830183850287018401881015613355578586fd5b855b8581101561337357813584529284019290840190600101613357565b5090979650505050505050565b600082601f830112613390578081fd5b813567ffffffffffffffff8111156133aa576133aa614b53565b6133bd601f8201601f19166020016149b4565b8181528460208386010111156133d1578283fd5b816020850160208301379081016020019190915292915050565b60008083601f8401126133fc578182fd5b50813567ffffffffffffffff811115613413578182fd5b60208301915083602082850101111561330d57600080fd5b60006020828403121561343c578081fd5b6118b0826132b4565b60008060408385031215613457578081fd5b613460836132b4565b9150610bbf602084016132b4565b600080600080600060a08688031215613485578081fd5b61348e866132b4565b945061349c602087016132b4565b9350604086013567ffffffffffffffff808211156134b8578283fd5b6134c489838a01613314565b945060608801359150808211156134d9578283fd5b6134e589838a01613314565b935060808801359150808211156134fa578283fd5b5061350788828901613380565b9150509295509295909350565b600080600080600060a0868803121561352b578081fd5b613534866132b4565b9450613542602087016132b4565b93506040860135925060608601359150608086013567ffffffffffffffff81111561356b578182fd5b61350788828901613380565b6000806000806000806000806000806000806101008d8f031215613599578687fd5b6135a28d6132b4565b9b5067ffffffffffffffff60208e013511156135bc578687fd5b6135cc8e60208f01358f016132cb565b909b50995067ffffffffffffffff60408e013511156135e9578687fd5b6135f98e60408f01358f016132cb565b909950975067ffffffffffffffff60608e01351115613616578687fd5b6136268e60608f01358f016132cb565b909750955067ffffffffffffffff60808e01351115613643578485fd5b6136538e60808f01358f016133eb565b9c9f9b9e50999c989b979a9699959895979660a08701359660c0810135965060e00135945092505050565b600080600060608486031215613692578081fd5b61369b846132b4565b9250602084013567ffffffffffffffff808211156136b7578283fd5b6136c387838801613314565b935060408601359150808211156136d8578283fd5b506136e586828701613314565b9150509250925092565b60008060008060808587031215613704578182fd5b61370d856132b4565b9350602085013567ffffffffffffffff80821115613729578384fd5b61373588838901613314565b9450604087013591508082111561374a578384fd5b61375688838901613314565b9350606087013591508082111561376b578283fd5b5061377887828801613380565b91505092959194509250565b60008060408385031215613796578182fd5b61379f836132b4565b915060208301356137af81614c14565b809150509250929050565b600080604083850312156137cc578182fd5b6137d5836132b4565b946020939093013593505050565b6000806000606084860312156137f7578081fd5b613800846132b4565b95602085013595506040909401359392505050565b6000806000806080858703121561382a578182fd5b613833856132b4565b93506020850135925060408501359150606085013567ffffffffffffffff81111561385c578182fd5b61377887828801613380565b6000806040838503121561387a578182fd5b823567ffffffffffffffff80821115613891578384fd5b818501915085601f8301126138a4578384fd5b813560206138b4613334836149de565b82815281810190858301838502870184018b10156138d0578889fd5b8896505b848710156138f9576138e5816132b4565b8352600196909601959183019183016138d4565b509650508601359250508082111561390f578283fd5b5061391c85828601613314565b9150509250929050565b6000806000806000806060878903121561393e578384fd5b863567ffffffffffffffff80821115613955578586fd5b6139618a838b016132cb565b90985096506020890135915080821115613979578586fd5b6139858a838b016132cb565b9096509450604089013591508082111561399d578384fd5b506139aa89828a016132cb565b979a9699509497509295939492505050565b6000602082840312156139cd578081fd5b81516118b081614c14565b6000602082840312156139e9578081fd5b5035919050565b600060208284031215613a01578081fd5b5051919050565b60008060408385031215613a1a578182fd5b82359150610bbf602084016132b4565b60008060408385031215613a3c578182fd5b50508035926020909101359150565b600060208284031215613a5c578081fd5b81356118b081614c25565b600060208284031215613a78578081fd5b81516118b081614c25565b60008060208385031215613a95578182fd5b823567ffffffffffffffff811115613aab578283fd5b613ab7858286016133eb565b90969095509350505050565b600060208284031215613ad4578081fd5b81516fffffffffffffffffffffffffffffffff811681146118b0578182fd5b60008284526020808501945084818502860184845b878110156133735783830389528135601e19883603018112613b28578687fd5b8701803567ffffffffffffffff811115613b40578788fd5b803603891315613b4e578788fd5b613b5b8582898501613bd5565b9a87019a9450505090840190600101613b08565b6000815180845260208085019450808401835b83811015613b9e57815187529582019590820190600101613b82565b509495945050505050565b60008151808452613bc1816020860160208601614aa4565b601f01601f19169290920160200192915050565b60008284528282602086013780602084860101526020601f19601f85011685010190509392505050565b60007f416363657373436f6e74726f6c3a206163636f756e742000000000000000000082528351613c37816017850160208801614aa4565b7f206973206d697373696e6720726f6c65200000000000000000000000000000006017918401918201528351613c74816028840160208801614aa4565b01602801949350505050565b6001600160a01b0391909116815260200190565b60006001600160a01b03808816835280871660208401525060a06040830152613cc060a0830186613b6f565b8281036060840152613cd28186613b6f565b90508281036080840152613ce68185613ba9565b98975050505050505050565b60006001600160a01b03808816835280871660208401525084604083015283606083015260a06080830152613d2a60a0830184613ba9565b979650505050505050565b6001600160a01b0394851681529290931660208301526040820152606081019190915260a06080820181905260009082015260c00190565b60006001600160a01b038816825260c06020830152613d8f60c0830188613ba9565b9050856040830152841515606083015283608083015260038310613dc357634e487b7160e01b600052602160045260246000fd5b8260a0830152979650505050505050565b6001600160a01b03929092168252602082015260400190565b6000602082526118b06020830184613b6f565b600060a08252613e1360a083018b613b6f565b8281036020840152613e26818a8c613af3565b90508281036040840152613e3a8189613b6f565b90508281036060840152613e4f818789613af3565b905082810360808401528381527f07ffffffffffffffffffffffffffffffffffffffffffffffffffffffffffffff841115613e88578182fd5b6020840280866020840137016020019081529998505050505050505050565b600060408252613eba6040830185613b6f565b8281036020840152613ecc8185613b6f565b95945050505050565b901515815260200190565b90815260200190565b9182526001600160a01b0316602082015260400190565b6001600160e01b031991909116815260200190565b600060808252613f29608083018789613bd5565b602083019590955250604081019290925260609091015292915050565b6000602082526118b06020830184613ba9565b60208082526034908201527f455243313135353a207472616e7366657220746f206e6f6e204552433131353560408201527f526563656976657220696d706c656d656e746572000000000000000000000000606082015260800190565b6020808252818101527f537472696e67733a20686578206c656e67746820696e73756666696369656e74604082015260600190565b60208082526028908201527f455243313135353a204552433131353552656365697665722072656a6563746560408201527f6420746f6b656e73000000000000000000000000000000000000000000000000606082015260800190565b60208082526014908201527f5061757361626c653a206e6f7420706175736564000000000000000000000000604082015260600190565b6020808252602b908201527f455243313135353a2062616c616e636520717565727920666f7220746865207a60408201527f65726f2061646472657373000000000000000000000000000000000000000000606082015260800190565b60208082526024908201527f455243313135353a206275726e20616d6f756e7420657863656564732062616c604082015263616e636560e01b606082015260800190565b60208082526038908201527f4163636573734e46543a206f6e6c7920612070726f746f636f6c2061646d696e60408201527f2063616e2063616c6c20746869732066756e6374696f6e2e0000000000000000606082015260800190565b6020808252602c908201527f455243313135355061757361626c653a20746f6b656e207472616e736665722060408201527f7768696c65207061757365640000000000000000000000000000000000000000606082015260800190565b60208082526029908201527f455243313135353a2063616c6c6572206973206e6f74206f776e6572206e6f7260408201527f20617070726f7665640000000000000000000000000000000000000000000000606082015260800190565b6020808252602e908201527f4163636573734e46543a2043616e6e6f742072656465656d206d6f7265204e4660408201527f5473207468616e206f776e65642e000000000000000000000000000000000000606082015260800190565b60208082526010908201527f5061757361626c653a2070617573656400000000000000000000000000000000604082015260600190565b60208082526028908201527f4163636573734e46543a204d75737420637265617465206174206c656173742060408201527f6f6e65204e46542e000000000000000000000000000000000000000000000000606082015260800190565b60208082526025908201527f455243313135353a207472616e7366657220746f20746865207a65726f20616460408201527f6472657373000000000000000000000000000000000000000000000000000000606082015260800190565b60208082526032908201527f455243313135353a207472616e736665722063616c6c6572206973206e6f742060408201527f6f776e6572206e6f7220617070726f7665640000000000000000000000000000606082015260800190565b60208082526039908201527f4163636573734e46543a2063616e6e6f74207472616e7366657220616e20616360408201527f63657373204e465420746861742069732072656465656d656400000000000000606082015260800190565b60208082526023908201527f455243313135353a206275726e2066726f6d20746865207a65726f206164647260408201526265737360e81b606082015260800190565b60208082526038908201527f455243313135355072657365744d696e7465725061757365723a206d7573742060408201527f68617665206d696e74657220726f6c6520746f206d696e740000000000000000606082015260800190565b6020808252602a908201527f455243313135353a20696e73756666696369656e742062616c616e636520666f60408201527f72207472616e7366657200000000000000000000000000000000000000000000606082015260800190565b6020808252603c908201527f4163636573734e46543a205472616e736665727320617265207265737472696360408201527f74656420746f205452414e534645525f524f4c4520686f6c6465727300000000606082015260800190565b60208082526022908201527f4163636573734e46543a205468652070726f746f636f6c206973207061757365604082015261321760f11b606082015260800190565b60208082526033908201527f4163636573734e46543a205468697320746f6b656e206973206e6f742072656460408201527f65656d61626c6520666f72206163636573732e00000000000000000000000000606082015260800190565b60208082526036908201527f4163636573734e46543a204d757374207370656369667920657175616c206e7560408201527f6d626572206f6620636f6e6669672076616c7565732e00000000000000000000606082015260800190565b6020808252603b908201527f455243313135355072657365744d696e7465725061757365723a206d7573742060408201527f686176652070617573657220726f6c6520746f20756e70617573650000000000606082015260800190565b60208082526039908201527f455243313135355072657365744d696e7465725061757365723a206d7573742060408201527f686176652070617573657220726f6c6520746f20706175736500000000000000606082015260800190565b60208082526029908201527f455243313135353a2073657474696e6720617070726f76616c2073746174757360408201527f20666f722073656c660000000000000000000000000000000000000000000000606082015260800190565b60208082526029908201527f455243313135353a206163636f756e747320616e6420696473206c656e67746860408201527f206d69736d617463680000000000000000000000000000000000000000000000606082015260800190565b60208082526028908201527f455243313135353a2069647320616e6420616d6f756e7473206c656e6774682060408201527f6d69736d61746368000000000000000000000000000000000000000000000000606082015260800190565b60208082526021908201527f455243313135353a206d696e7420746f20746865207a65726f206164647265736040820152607360f81b606082015260800190565b60208082526029908201527f4e46543a204270732070726f7669646564206d757374206265206c657373207460408201527f68616e20392c3030300000000000000000000000000000000000000000000000606082015260800190565b6020808252602f908201527f416363657373436f6e74726f6c3a2063616e206f6e6c792072656e6f756e636560408201527f20726f6c657320666f722073656c660000000000000000000000000000000000606082015260800190565b918252602082015260400190565b6000808335601e19843603018112614985578283fd5b83018035915067ffffffffffffffff82111561499f578283fd5b60200191503681900382131561330d57600080fd5b60405181810167ffffffffffffffff811182821017156149d6576149d6614b53565b604052919050565b600067ffffffffffffffff8211156149f8576149f8614b53565b5060209081020190565b60006fffffffffffffffffffffffffffffffff808316818516808303821115614a2d57614a2d614b3d565b01949350505050565b60008219821115614a4957614a49614b3d565b500190565b600082614a6957634e487b7160e01b81526012600452602481fd5b500490565b6000816000190483118215151615614a8857614a88614b3d565b500290565b600082821015614a9f57614a9f614b3d565b500390565b60005b83811015614abf578181015183820152602001614aa7565b83811115610a1f5750506000910152565b600081614adf57614adf614b3d565b506000190190565b600281046001821680614afb57607f821691505b60208210811415614b1c57634e487b7160e01b600052602260045260246000fd5b50919050565b6000600019821415614b3657614b36614b3d565b5060010190565b634e487b7160e01b600052601160045260246000fd5b634e487b7160e01b600052604160045260246000fd5b60e01c90565b600060443d1015614b7f5761165d565b600481823e6308c379a0614b938251614b69565b14614b9d5761165d565b6040513d600319016004823e80513d67ffffffffffffffff8160248401118184111715614bcd575050505061165d565b82840192508251915080821115614be7575050505061165d565b503d83016020828401011115614bff5750505061165d565b601f01601f1916810160200160405291505090565b8015158114614c2257600080fd5b50565b6001600160e01b031981168114614c2257600080fdfea164736f6c6343000800000a",
  "linkReferences": {},
  "deployedLinkReferences": {}
}