{
  "_format": "hh-sol-artifact-1",
  "contractName": "AccessNFT",
  "sourceName": "contracts/AccessNFT.sol",
  "abi": [
    {
      "inputs": [
        {
          "internalType": "address payable",
          "name": "_controlCenter",
          "type": "address"
        },
        {
          "internalType": "address",
          "name": "_trustedForwarder",
          "type": "address"
        },
        {
          "internalType": "string",
          "name": "_uri",
          "type": "string"
        }
      ],
      "stateMutability": "nonpayable",
      "type": "constructor"
    },
    {
      "anonymous": false,
      "inputs": [
        {
          "indexed": true,
          "internalType": "address",
          "name": "redeemer",
          "type": "address"
        },
        {
          "indexed": true,
          "internalType": "uint256",
          "name": "nftTokenId",
          "type": "uint256"
        },
        {
          "indexed": true,
          "internalType": "uint256",
          "name": "accessNftId",
          "type": "uint256"
        },
        {
          "indexed": false,
          "internalType": "uint256",
          "name": "amount",
          "type": "uint256"
        }
      ],
      "name": "AccessNFTRedeemed",
      "type": "event"
    },
    {
      "anonymous": false,
      "inputs": [
        {
          "indexed": true,
          "internalType": "address",
          "name": "creator",
          "type": "address"
        },
        {
          "indexed": false,
          "internalType": "uint256[]",
          "name": "nftIds",
          "type": "uint256[]"
        },
        {
          "indexed": false,
          "internalType": "string[]",
          "name": "nftURIs",
          "type": "string[]"
        },
        {
          "indexed": false,
          "internalType": "uint256[]",
          "name": "acessNftIds",
          "type": "uint256[]"
        },
        {
          "indexed": false,
          "internalType": "string[]",
          "name": "accessNftURIs",
          "type": "string[]"
        },
        {
          "indexed": false,
          "internalType": "uint256[]",
          "name": "nftSupplies",
          "type": "uint256[]"
        }
      ],
      "name": "AccessNFTsCreated",
      "type": "event"
    },
    {
      "anonymous": false,
      "inputs": [
        {
          "indexed": true,
          "internalType": "address",
          "name": "account",
          "type": "address"
        },
        {
          "indexed": true,
          "internalType": "address",
          "name": "operator",
          "type": "address"
        },
        {
          "indexed": false,
          "internalType": "bool",
          "name": "approved",
          "type": "bool"
        }
      ],
      "name": "ApprovalForAll",
      "type": "event"
    },
    {
      "anonymous": false,
      "inputs": [
        {
          "indexed": false,
          "internalType": "address",
          "name": "account",
          "type": "address"
        }
      ],
      "name": "Paused",
      "type": "event"
    },
    {
      "anonymous": false,
      "inputs": [
        {
          "indexed": true,
          "internalType": "bytes32",
          "name": "role",
          "type": "bytes32"
        },
        {
          "indexed": true,
          "internalType": "bytes32",
          "name": "previousAdminRole",
          "type": "bytes32"
        },
        {
          "indexed": true,
          "internalType": "bytes32",
          "name": "newAdminRole",
          "type": "bytes32"
        }
      ],
      "name": "RoleAdminChanged",
      "type": "event"
    },
    {
      "anonymous": false,
      "inputs": [
        {
          "indexed": true,
          "internalType": "bytes32",
          "name": "role",
          "type": "bytes32"
        },
        {
          "indexed": true,
          "internalType": "address",
          "name": "account",
          "type": "address"
        },
        {
          "indexed": true,
          "internalType": "address",
          "name": "sender",
          "type": "address"
        }
      ],
      "name": "RoleGranted",
      "type": "event"
    },
    {
      "anonymous": false,
      "inputs": [
        {
          "indexed": true,
          "internalType": "bytes32",
          "name": "role",
          "type": "bytes32"
        },
        {
          "indexed": true,
          "internalType": "address",
          "name": "account",
          "type": "address"
        },
        {
          "indexed": true,
          "internalType": "address",
          "name": "sender",
          "type": "address"
        }
      ],
      "name": "RoleRevoked",
      "type": "event"
    },
    {
      "anonymous": false,
      "inputs": [
        {
          "indexed": false,
          "internalType": "uint256",
          "name": "royaltyBps",
          "type": "uint256"
        }
      ],
      "name": "RoyaltyUpdated",
      "type": "event"
    },
    {
      "anonymous": false,
      "inputs": [
        {
          "indexed": true,
          "internalType": "address",
          "name": "operator",
          "type": "address"
        },
        {
          "indexed": true,
          "internalType": "address",
          "name": "from",
          "type": "address"
        },
        {
          "indexed": true,
          "internalType": "address",
          "name": "to",
          "type": "address"
        },
        {
          "indexed": false,
          "internalType": "uint256[]",
          "name": "ids",
          "type": "uint256[]"
        },
        {
          "indexed": false,
          "internalType": "uint256[]",
          "name": "values",
          "type": "uint256[]"
        }
      ],
      "name": "TransferBatch",
      "type": "event"
    },
    {
      "anonymous": false,
      "inputs": [
        {
          "indexed": true,
          "internalType": "address",
          "name": "operator",
          "type": "address"
        },
        {
          "indexed": true,
          "internalType": "address",
          "name": "from",
          "type": "address"
        },
        {
          "indexed": true,
          "internalType": "address",
          "name": "to",
          "type": "address"
        },
        {
          "indexed": false,
          "internalType": "uint256",
          "name": "id",
          "type": "uint256"
        },
        {
          "indexed": false,
          "internalType": "uint256",
          "name": "value",
          "type": "uint256"
        }
      ],
      "name": "TransferSingle",
      "type": "event"
    },
    {
      "anonymous": false,
      "inputs": [
        {
          "indexed": false,
          "internalType": "string",
          "name": "value",
          "type": "string"
        },
        {
          "indexed": true,
          "internalType": "uint256",
          "name": "id",
          "type": "uint256"
        }
      ],
      "name": "URI",
      "type": "event"
    },
    {
      "anonymous": false,
      "inputs": [
        {
          "indexed": false,
          "internalType": "address",
          "name": "account",
          "type": "address"
        }
      ],
      "name": "Unpaused",
      "type": "event"
    },
    {
      "inputs": [],
      "name": "DEFAULT_ADMIN_ROLE",
      "outputs": [
        {
          "internalType": "bytes32",
          "name": "",
          "type": "bytes32"
        }
      ],
      "stateMutability": "view",
      "type": "function"
    },
    {
      "inputs": [],
      "name": "MINTER_ROLE",
      "outputs": [
        {
          "internalType": "bytes32",
          "name": "",
          "type": "bytes32"
        }
      ],
      "stateMutability": "view",
      "type": "function"
    },
    {
      "inputs": [],
      "name": "PAUSER_ROLE",
      "outputs": [
        {
          "internalType": "bytes32",
          "name": "",
          "type": "bytes32"
        }
      ],
      "stateMutability": "view",
      "type": "function"
    },
    {
      "inputs": [],
      "name": "_contractURI",
      "outputs": [
        {
          "internalType": "string",
          "name": "",
          "type": "string"
        }
      ],
      "stateMutability": "view",
      "type": "function"
    },
    {
      "inputs": [
        {
          "internalType": "uint256",
          "name": "",
          "type": "uint256"
        }
      ],
      "name": "accessNftInfo",
      "outputs": [
        {
          "internalType": "address",
          "name": "creator",
          "type": "address"
        },
        {
          "internalType": "string",
          "name": "uri",
          "type": "string"
        },
        {
          "internalType": "uint256",
          "name": "supply",
          "type": "uint256"
        }
      ],
      "stateMutability": "view",
      "type": "function"
    },
    {
      "inputs": [
        {
          "internalType": "address",
          "name": "account",
          "type": "address"
        },
        {
          "internalType": "uint256",
          "name": "id",
          "type": "uint256"
        }
      ],
      "name": "balanceOf",
      "outputs": [
        {
          "internalType": "uint256",
          "name": "",
          "type": "uint256"
        }
      ],
      "stateMutability": "view",
      "type": "function"
    },
    {
      "inputs": [
        {
          "internalType": "address[]",
          "name": "accounts",
          "type": "address[]"
        },
        {
          "internalType": "uint256[]",
          "name": "ids",
          "type": "uint256[]"
        }
      ],
      "name": "balanceOfBatch",
      "outputs": [
        {
          "internalType": "uint256[]",
          "name": "",
          "type": "uint256[]"
        }
      ],
      "stateMutability": "view",
      "type": "function"
    },
    {
      "inputs": [
        {
          "internalType": "address",
          "name": "account",
          "type": "address"
        },
        {
          "internalType": "uint256",
          "name": "id",
          "type": "uint256"
        },
        {
          "internalType": "uint256",
          "name": "value",
          "type": "uint256"
        }
      ],
      "name": "burn",
      "outputs": [],
      "stateMutability": "nonpayable",
      "type": "function"
    },
    {
      "inputs": [
        {
          "internalType": "address",
          "name": "account",
          "type": "address"
        },
        {
          "internalType": "uint256[]",
          "name": "ids",
          "type": "uint256[]"
        },
        {
          "internalType": "uint256[]",
          "name": "values",
          "type": "uint256[]"
        }
      ],
      "name": "burnBatch",
      "outputs": [],
      "stateMutability": "nonpayable",
      "type": "function"
    },
    {
      "inputs": [],
      "name": "contractURI",
      "outputs": [
        {
          "internalType": "string",
          "name": "",
          "type": "string"
        }
      ],
      "stateMutability": "view",
      "type": "function"
    },
    {
      "inputs": [
        {
          "internalType": "string[]",
          "name": "_nftURIs",
          "type": "string[]"
        },
        {
          "internalType": "string[]",
          "name": "_accessNftURIs",
          "type": "string[]"
        },
        {
          "internalType": "uint256[]",
          "name": "_nftSupplies",
          "type": "uint256[]"
        }
      ],
      "name": "createAccessNfts",
      "outputs": [
        {
          "internalType": "uint256[]",
          "name": "nftIds",
          "type": "uint256[]"
        }
      ],
      "stateMutability": "nonpayable",
      "type": "function"
    },
    {
      "inputs": [
        {
          "internalType": "address",
          "name": "_pack",
          "type": "address"
        },
        {
          "internalType": "string[]",
          "name": "_nftURIs",
          "type": "string[]"
        },
        {
          "internalType": "string[]",
          "name": "_accessNftURIs",
          "type": "string[]"
        },
        {
          "internalType": "uint256[]",
          "name": "_nftSupplies",
          "type": "uint256[]"
        },
        {
          "internalType": "string",
          "name": "_packURI",
          "type": "string"
        },
        {
          "internalType": "uint256",
          "name": "_secondsUntilOpenStart",
          "type": "uint256"
        },
        {
          "internalType": "uint256",
          "name": "_secondsUntilOpenEnd",
          "type": "uint256"
        },
        {
          "internalType": "uint256",
          "name": "_nftsPerOpen",
          "type": "uint256"
        }
      ],
      "name": "createAccessPack",
      "outputs": [],
      "stateMutability": "nonpayable",
      "type": "function"
    },
    {
      "inputs": [
        {
          "internalType": "bytes32",
          "name": "role",
          "type": "bytes32"
        }
      ],
      "name": "getRoleAdmin",
      "outputs": [
        {
          "internalType": "bytes32",
          "name": "",
          "type": "bytes32"
        }
      ],
      "stateMutability": "view",
      "type": "function"
    },
    {
      "inputs": [
        {
          "internalType": "bytes32",
          "name": "role",
          "type": "bytes32"
        },
        {
          "internalType": "uint256",
          "name": "index",
          "type": "uint256"
        }
      ],
      "name": "getRoleMember",
      "outputs": [
        {
          "internalType": "address",
          "name": "",
          "type": "address"
        }
      ],
      "stateMutability": "view",
      "type": "function"
    },
    {
      "inputs": [
        {
          "internalType": "bytes32",
          "name": "role",
          "type": "bytes32"
        }
      ],
      "name": "getRoleMemberCount",
      "outputs": [
        {
          "internalType": "uint256",
          "name": "",
          "type": "uint256"
        }
      ],
      "stateMutability": "view",
      "type": "function"
    },
    {
      "inputs": [
        {
          "internalType": "bytes32",
          "name": "role",
          "type": "bytes32"
        },
        {
          "internalType": "address",
          "name": "account",
          "type": "address"
        }
      ],
      "name": "grantRole",
      "outputs": [],
      "stateMutability": "nonpayable",
      "type": "function"
    },
    {
      "inputs": [
        {
          "internalType": "bytes32",
          "name": "role",
          "type": "bytes32"
        },
        {
          "internalType": "address",
          "name": "account",
          "type": "address"
        }
      ],
      "name": "hasRole",
      "outputs": [
        {
          "internalType": "bool",
          "name": "",
          "type": "bool"
        }
      ],
      "stateMutability": "view",
      "type": "function"
    },
    {
      "inputs": [
        {
          "internalType": "address",
          "name": "account",
          "type": "address"
        },
        {
          "internalType": "address",
          "name": "operator",
          "type": "address"
        }
      ],
      "name": "isApprovedForAll",
      "outputs": [
        {
          "internalType": "bool",
          "name": "",
          "type": "bool"
        }
      ],
      "stateMutability": "view",
      "type": "function"
    },
    {
      "inputs": [
        {
          "internalType": "address",
          "name": "forwarder",
          "type": "address"
        }
      ],
      "name": "isTrustedForwarder",
      "outputs": [
        {
          "internalType": "bool",
          "name": "",
          "type": "bool"
        }
      ],
      "stateMutability": "view",
      "type": "function"
    },
    {
      "inputs": [
        {
          "internalType": "address",
          "name": "to",
          "type": "address"
        },
        {
          "internalType": "uint256",
          "name": "id",
          "type": "uint256"
        },
        {
          "internalType": "uint256",
          "name": "amount",
          "type": "uint256"
        },
        {
          "internalType": "bytes",
          "name": "data",
          "type": "bytes"
        }
      ],
      "name": "mint",
      "outputs": [],
      "stateMutability": "nonpayable",
      "type": "function"
    },
    {
      "inputs": [
        {
          "internalType": "address",
          "name": "to",
          "type": "address"
        },
        {
          "internalType": "uint256[]",
          "name": "ids",
          "type": "uint256[]"
        },
        {
          "internalType": "uint256[]",
          "name": "amounts",
          "type": "uint256[]"
        },
        {
          "internalType": "bytes",
          "name": "data",
          "type": "bytes"
        }
      ],
      "name": "mintBatch",
      "outputs": [],
      "stateMutability": "nonpayable",
      "type": "function"
    },
    {
      "inputs": [],
      "name": "nextTokenId",
      "outputs": [
        {
          "internalType": "uint256",
          "name": "",
          "type": "uint256"
        }
      ],
      "stateMutability": "view",
      "type": "function"
    },
    {
      "inputs": [
        {
          "internalType": "uint256",
          "name": "",
          "type": "uint256"
        }
      ],
      "name": "nftInfo",
      "outputs": [
        {
          "internalType": "address",
          "name": "creator",
          "type": "address"
        },
        {
          "internalType": "string",
          "name": "uri",
          "type": "string"
        },
        {
          "internalType": "uint256",
          "name": "supply",
          "type": "uint256"
        },
        {
          "internalType": "uint256",
          "name": "accessNftId",
          "type": "uint256"
        },
        {
          "internalType": "enum AccessNFT.UnderlyingType",
          "name": "underlyingType",
          "type": "uint8"
        }
      ],
      "stateMutability": "view",
      "type": "function"
    },
    {
      "inputs": [],
      "name": "pause",
      "outputs": [],
      "stateMutability": "nonpayable",
      "type": "function"
    },
    {
      "inputs": [],
      "name": "paused",
      "outputs": [
        {
          "internalType": "bool",
          "name": "",
          "type": "bool"
        }
      ],
      "stateMutability": "view",
      "type": "function"
    },
    {
      "inputs": [
        {
          "internalType": "uint256",
          "name": "_tokenId",
          "type": "uint256"
        },
        {
          "internalType": "uint256",
          "name": "_amount",
          "type": "uint256"
        }
      ],
      "name": "redeemAccess",
      "outputs": [],
      "stateMutability": "nonpayable",
      "type": "function"
    },
    {
      "inputs": [
        {
          "internalType": "bytes32",
          "name": "role",
          "type": "bytes32"
        },
        {
          "internalType": "address",
          "name": "account",
          "type": "address"
        }
      ],
      "name": "renounceRole",
      "outputs": [],
      "stateMutability": "nonpayable",
      "type": "function"
    },
    {
      "inputs": [
        {
          "internalType": "bytes32",
          "name": "role",
          "type": "bytes32"
        },
        {
          "internalType": "address",
          "name": "account",
          "type": "address"
        }
      ],
      "name": "revokeRole",
      "outputs": [],
      "stateMutability": "nonpayable",
      "type": "function"
    },
    {
      "inputs": [],
      "name": "royaltyBps",
      "outputs": [
        {
          "internalType": "uint256",
          "name": "",
          "type": "uint256"
        }
      ],
      "stateMutability": "view",
      "type": "function"
    },
    {
      "inputs": [
        {
          "internalType": "uint256",
          "name": "tokenId",
          "type": "uint256"
        },
        {
          "internalType": "uint256",
          "name": "salePrice",
          "type": "uint256"
        }
      ],
      "name": "royaltyInfo",
      "outputs": [
        {
          "internalType": "address",
          "name": "receiver",
          "type": "address"
        },
        {
          "internalType": "uint256",
          "name": "royaltyAmount",
          "type": "uint256"
        }
      ],
      "stateMutability": "view",
      "type": "function"
    },
    {
      "inputs": [
        {
          "internalType": "address",
          "name": "from",
          "type": "address"
        },
        {
          "internalType": "address",
          "name": "to",
          "type": "address"
        },
        {
          "internalType": "uint256[]",
          "name": "ids",
          "type": "uint256[]"
        },
        {
          "internalType": "uint256[]",
          "name": "amounts",
          "type": "uint256[]"
        },
        {
          "internalType": "bytes",
          "name": "data",
          "type": "bytes"
        }
      ],
      "name": "safeBatchTransferFrom",
      "outputs": [],
      "stateMutability": "nonpayable",
      "type": "function"
    },
    {
      "inputs": [
        {
          "internalType": "address",
          "name": "from",
          "type": "address"
        },
        {
          "internalType": "address",
          "name": "to",
          "type": "address"
        },
        {
          "internalType": "uint256",
          "name": "id",
          "type": "uint256"
        },
        {
          "internalType": "uint256",
          "name": "amount",
          "type": "uint256"
        },
        {
          "internalType": "bytes",
          "name": "data",
          "type": "bytes"
        }
      ],
      "name": "safeTransferFrom",
      "outputs": [],
      "stateMutability": "nonpayable",
      "type": "function"
    },
    {
      "inputs": [
        {
          "internalType": "address",
          "name": "operator",
          "type": "address"
        },
        {
          "internalType": "bool",
          "name": "approved",
          "type": "bool"
        }
      ],
      "name": "setApprovalForAll",
      "outputs": [],
      "stateMutability": "nonpayable",
      "type": "function"
    },
    {
      "inputs": [
        {
          "internalType": "string",
          "name": "_URI",
          "type": "string"
        }
      ],
      "name": "setContractURI",
      "outputs": [],
      "stateMutability": "nonpayable",
      "type": "function"
    },
    {
      "inputs": [
        {
          "internalType": "uint256",
          "name": "_royaltyBps",
          "type": "uint256"
        }
      ],
      "name": "setRoyaltyBps",
      "outputs": [],
      "stateMutability": "nonpayable",
      "type": "function"
    },
    {
      "inputs": [
        {
          "internalType": "bytes4",
          "name": "interfaceId",
          "type": "bytes4"
        }
      ],
      "name": "supportsInterface",
      "outputs": [
        {
          "internalType": "bool",
          "name": "",
          "type": "bool"
        }
      ],
      "stateMutability": "view",
      "type": "function"
    },
    {
      "inputs": [
        {
          "internalType": "uint256",
          "name": "_nftId",
          "type": "uint256"
        }
      ],
      "name": "tokenURI",
      "outputs": [
        {
          "internalType": "string",
          "name": "",
          "type": "string"
        }
      ],
      "stateMutability": "view",
      "type": "function"
    },
    {
      "inputs": [],
      "name": "unpause",
      "outputs": [],
      "stateMutability": "nonpayable",
      "type": "function"
    },
    {
      "inputs": [
        {
          "internalType": "uint256",
          "name": "_nftId",
          "type": "uint256"
        }
      ],
      "name": "uri",
      "outputs": [
        {
          "internalType": "string",
          "name": "",
          "type": "string"
        }
      ],
      "stateMutability": "view",
      "type": "function"
    }
  ],
  "bytecode": "0x60806040523480156200001157600080fd5b5060405162004d0738038062004d078339810160408190526200003491620003db565b818180620000428162000119565b506005805460ff191690556200006360006200005d62000132565b6200014f565b620000927f9f2df0fed2c77648de5860a4cc508cd0818c85b8b8a1ab4ceeef8d981c8956a66200005d62000132565b620000c17f65d7a28e3265b37a6474929f336521b332c1681b933f6cb9f3376673440d862a6200005d62000132565b5060058054610100600160a81b0319166101006001600160a01b0393841602179055600680546001600160a01b03191691851691909117905580516200010f90600990602084019062000335565b5050505062000544565b80516200012e90600490602084019062000335565b5050565b6000620001496200019260201b62001ba01760201c565b90505b90565b620001668282620001d260201b62001bce1760201c565b60008281526001602090815260409091206200018d91839062001bdc620001de821b17901c565b505050565b60006200019f33620001fe565b15620001b5575060131936013560601c6200014c565b620001ca6200021760201b62001bf11760201c565b90506200014c565b6200012e82826200021b565b6000620001f5836001600160a01b038416620002a5565b90505b92915050565b60055461010090046001600160a01b0390811691161490565b3390565b620002278282620002f4565b6200012e576000828152602081815260408083206001600160a01b03851684529091529020805460ff191660011790556200026162000132565b6001600160a01b0316816001600160a01b0316837f2f8788117e7eff1d82e926ec794901d17c78024a50270940304540a733656f0d60405160405180910390a45050565b6000620002b383836200031d565b620002eb57508154600181810184556000848152602080822090930184905584548482528286019093526040902091909155620001f8565b506000620001f8565b6000918252602082815260408084206001600160a01b0393909316845291905290205460ff1690565b60009081526001919091016020526040902054151590565b8280546200034390620004d8565b90600052602060002090601f016020900481019282620003675760008555620003b2565b82601f106200038257805160ff1916838001178555620003b2565b82800160010185558215620003b2579182015b82811115620003b257825182559160200191906001019062000395565b50620003c0929150620003c4565b5090565b5b80821115620003c05760008155600101620003c5565b600080600060608486031215620003f0578283fd5b8351620003fd816200052b565b8093505060208085015162000412816200052b565b60408601519093506001600160401b03808211156200042f578384fd5b818701915087601f83011262000443578384fd5b81518181111562000458576200045862000515565b604051601f8201601f19168101850183811182821017156200047e576200047e62000515565b60405281815283820185018a101562000495578586fd5b8592505b81831015620004b8578383018501518184018601529184019162000499565b81831115620004c957858583830101525b80955050505050509250925092565b600281046001821680620004ed57607f821691505b602082108114156200050f57634e487b7160e01b600052602260045260246000fd5b50919050565b634e487b7160e01b600052604160045260246000fd5b6001600160a01b03811681146200054157600080fd5b50565b6147b380620005546000396000f3fe608060405234801561001057600080fd5b50600436106102ac5760003560e01c806375794a3c1161017b578063c6997422116100d8578063e63ab1e91161008c578063e985e9c511610071578063e985e9c514610556578063f242432a14610569578063f5298aca1461057c576102ac565b8063e63ab1e914610546578063e8a3d4851461054e576102ac565b8063ca15c873116100bd578063ca15c87314610518578063d53913931461052b578063d547741f14610533576102ac565b8063c6997422146104f6578063c87b56dd146102fa576102ac565b8063938e3d7b1161012f578063a22cb46511610114578063a22cb465146104d3578063c0e72740146104e6578063c63adb2b146104ee576102ac565b8063938e3d7b146104b8578063a217fddf146104cb576102ac565b80638aa01653116101605780638aa01653146104725780639010d07c1461048557806391d14854146104a5576102ac565b806375794a3c146104625780638456cb591461046a576102ac565b80632eb2c2d6116102295780634e1273f4116101dd5780635c975abb116101c25780635c975abb146104345780636b20c4541461043c578063731133e91461044f576102ac565b80634e1273f41461040e578063572b6c0514610421576102ac565b806336568abe1161020e57806336568abe146103d35780633c16b12e146103e65780633f4ba83a14610406576102ac565b80632eb2c2d6146103ad5780632f2ff15d146103c0576102ac565b80631f7fdffa11610280578063248a9ca311610265578063248a9ca3146103665780632a55205a146103795780632e14bee81461039a576102ac565b80631f7fdffa1461032f5780631f8bc79014610342576102ac565b8062fdd58e146102b157806301ffc9a7146102da5780630e89341c146102fa5780631f72d8311461031a575b600080fd5b6102c46102bf366004613485565b61058f565b6040516102d19190613bab565b60405180910390f35b6102ed6102e8366004613716565b6105eb565b6040516102d19190613ba0565b61030d6103083660046136a3565b6105fe565b6040516102d19190613bfc565b61032d6103283660046136a3565b6106a3565b005b61032d61033d3660046133ba565b6108af565b6103556103503660046136a3565b610909565b6040516102d1959493929190613a41565b6102c46103743660046136a3565b6109cf565b61038c6103873660046136f5565b6109e4565b6040516102d1929190613a9f565b61032d6103a83660046136f5565b610aa5565b61032d6103bb366004613139565b610c19565b61032d6103ce3660046136d3565b610c77565b61032d6103e13660046136d3565b610c9e565b6103f96103f43660046135f1565b610cc0565b6040516102d19190613ab8565b61032d611278565b6103f961041c366004613533565b6112ca565b6102ed61042f3660046130f6565b6113ea565b6102ed611403565b61032d61044a366004613349565b61140d565b61032d61045d3660046134e0565b611462565b6102c46114b6565b61032d6114bc565b61032d610480366004613242565b61150c565b6104986104933660046136f5565b611645565b6040516102d1919061395a565b6102ed6104b33660046136d3565b611664565b61032d6104c636600461374e565b61168d565b6102c46117af565b61032d6104e136600461344f565b6117b4565b61030d611882565b6102c4611910565b6105096105043660046136a3565b611916565b6040516102d193929190613a0f565b6102c46105263660046136a3565b6119cb565b6102c46119e2565b61032d6105413660046136d3565b611a06565b6102c4611a10565b61030d611a34565b6102ed610564366004613110565b611ac6565b61032d6105773660046131df565b611af4565b61032d61058a3660046134ae565b611b4b565b60006001600160a01b0383166105c05760405162461bcd60e51b81526004016105b790613d35565b60405180910390fd5b5060008181526002602090815260408083206001600160a01b03861684529091529020545b92915050565b60006105f682611bf5565b90505b919050565b6000818152600a6020526040902060010180546060919061061e90614652565b80601f016020809104026020016040519081016040528092919081815260200182805461064a90614652565b80156106975780601f1061066c57610100808354040283529160200191610697565b820191906000526020600020905b81548152906001019060200180831161067a57829003601f168201915b50505050509050919050565b60065460408051634a32c6bf60e11b815290516001600160a01b03909216916391d148549183916394658d7e91600480820192602092909190829003018186803b1580156106f057600080fd5b505afa158015610704573d6000803e3d6000fd5b505050506040513d601f19601f8201168201806040525081019061072891906136bb565b610730611c35565b6040518363ffffffff1660e01b815260040161074d929190613bb4565b60206040518083038186803b15801561076557600080fd5b505afa158015610779573d6000803e3d6000fd5b505050506040513d601f19601f8201168201806040525081019061079d9190613687565b6107b95760405162461bcd60e51b81526004016105b790613dd6565b600660009054906101000a90046001600160a01b03166001600160a01b031663fd967f476040518163ffffffff1660e01b815260040160206040518083038186803b15801561080757600080fd5b505afa15801561081b573d6000803e3d6000fd5b505050506040513d601f19601f8201168201806040525081019061083f919061378e565b6fffffffffffffffffffffffffffffffff16811061086f5760405162461bcd60e51b81526004016105b790613f4a565b60088190556040517f244ea8d7627f5a08f4299862bd5a45752842c183aee5b0fb0d1e4887bfa605b3906108a4908390613bab565b60405180910390a150565b6108db7f9f2df0fed2c77648de5860a4cc508cd0818c85b8b8a1ab4ceeef8d981c8956a66104b3611c35565b6108f75760405162461bcd60e51b81526004016105b790614138565b61090384848484611c44565b50505050565b600a60205260009081526040902080546001820180546001600160a01b03909216929161093590614652565b80601f016020809104026020016040519081016040528092919081815260200182805461096190614652565b80156109ae5780601f10610983576101008083540402835291602001916109ae565b820191906000526020600020905b81548152906001019060200180831161099157829003601f168201915b50505050600283015460038401546004909401549293909290915060ff1685565b60009081526020819052604090206001015490565b6000828152600a6020908152604080832054600654825163fd967f4760e01b815292516001600160a01b039283169594919092169263fd967f479260048083019392829003018186803b158015610a3a57600080fd5b505afa158015610a4e573d6000803e3d6000fd5b505050506040513d601f19601f82011682018060405250810190610a72919061378e565b6fffffffffffffffffffffffffffffffff1660085484610a9291906145d9565b610a9c91906145b9565b90509250929050565b600660009054906101000a90046001600160a01b03166001600160a01b0316639d2f83f06040518163ffffffff1660e01b815260040160206040518083038186803b158015610af357600080fd5b505afa158015610b07573d6000803e3d6000fd5b505050506040513d601f19601f82011682018060405250810190610b2b9190613687565b15610b485760405162461bcd60e51b81526004016105b7906141f2565b6000610b52611c35565b905081610b5f828561058f565b1015610b7d5760405162461bcd60e51b81526004016105b790613eed565b610b998130858560405180602001604052806000815250611af4565b6000600a6000858152602001908152602001600020600301549050610bd03083838660405180602001604052806000815250611af4565b8084836001600160a01b03167fa70022dc131dbd0be52c08bf87947e36b3e7d4934dce1efecf2d261c381d101786604051610c0b9190613bab565b60405180910390a450505050565b610c21611c35565b6001600160a01b0316856001600160a01b03161480610c475750610c4785610564611c35565b610c635760405162461bcd60e51b81526004016105b790614098565b610c708585858585611dc6565b5050505050565b610c818282611f9a565b6000828152600160205260409020610c999082611bdc565b505050565b610ca88282611fbe565b6000828152600160205260409020610c999082612000565b600654604080516309d2f83f60e41b815290516060926001600160a01b031691639d2f83f0916004808301926020929190829003018186803b158015610d0557600080fd5b505afa158015610d19573d6000803e3d6000fd5b505050506040513d601f19601f82011682018060405250810190610d3d9190613687565b15610d5a5760405162461bcd60e51b81526004016105b7906141f2565b8582148015610d6857508584145b610d845760405162461bcd60e51b81526004016105b790614234565b85610da15760405162461bcd60e51b81526004016105b790613fde565b8567ffffffffffffffff811115610dc857634e487b7160e01b600052604160045260246000fd5b604051908082528060200260200182016040528015610df1578160200160208202803683370190505b50905060008667ffffffffffffffff811115610e1d57634e487b7160e01b600052604160045260246000fd5b604051908082528060200260200182016040528015610e46578160200160208202803683370190505b5060075490915060005b8881101561116f5781838281518110610e7957634e487b7160e01b600052603260045260246000fd5b6020026020010181815250506040518060600160405280610e98611c35565b6001600160a01b031681526020018b8b84818110610ec657634e487b7160e01b600052603260045260246000fd5b9050602002810190610ed8919061450e565b8080601f016020809104026020016040519081016040528093929190818152602001838380828437600092019190915250505090825250602001878784818110610f3257634e487b7160e01b600052603260045260246000fd5b602090810292909201359092526000858152600b8252604090208351815473ffffffffffffffffffffffffffffffffffffffff19166001600160a01b03909116178155838201518051919350610f8f926001850192910190612e72565b5060409190910151600290910155610fa86001836145a1565b915081848281518110610fcb57634e487b7160e01b600052603260045260246000fd5b6020026020010181815250506040518060a00160405280610fea611c35565b6001600160a01b031681526020018b8b8481811061101857634e487b7160e01b600052603260045260246000fd5b905060200281019061102a919061450e565b8080601f01602080910402602001604051908101604052809392919081815260200183838082843760009201919091525050509082525060200187878481811061108457634e487b7160e01b600052603260045260246000fd5b90506020020135815260200160018461109d91906145f8565b8152602001600390526000838152600a602090815260409091208251815473ffffffffffffffffffffffffffffffffffffffff19166001600160a01b0390911617815582820151805191926110fa92600185019290910190612e72565b50604082015181600201556060820151816003015560808201518160040160006101000a81548160ff0219169083600381111561114757634e487b7160e01b600052602160045260246000fd5b021790555061115b915060019050836145a1565b9150806111678161468d565b915050610e50565b50806007819055506111c33083878780806020026020016040519081016040528093929190818152602001838360200280828437600092018290525060408051602081019091529081529250611c44915050565b6112166111ce611c35565b84878780806020026020016040519081016040528093929190818152602001838360200280828437600092018290525060408051602081019091529081529250611c44915050565b61121e611c35565b6001600160a01b03167fe309c6cae6e35dcc6c2f37d5da32b19e0346074be56b9722cdf852d20fced6ee848b8b868c8c8c8c604051611264989796959493929190613acb565b60405180910390a250509695505050505050565b6112a47f65d7a28e3265b37a6474929f336521b332c1681b933f6cb9f3376673440d862a6104b3611c35565b6112c05760405162461bcd60e51b81526004016105b790614291565b6112c8612015565b565b606081518351146112ed5760405162461bcd60e51b81526004016105b7906143a8565b6000835167ffffffffffffffff81111561131757634e487b7160e01b600052604160045260246000fd5b604051908082528060200260200182016040528015611340578160200160208202803683370190505b50905060005b84518110156113e2576113a785828151811061137257634e487b7160e01b600052603260045260246000fd5b602002602001015185838151811061139a57634e487b7160e01b600052603260045260246000fd5b602002602001015161058f565b8282815181106113c757634e487b7160e01b600052603260045260246000fd5b60209081029190910101526113db8161468d565b9050611346565b509392505050565b60055461010090046001600160a01b0390811691161490565b60055460ff165b90565b611415611c35565b6001600160a01b0316836001600160a01b0316148061143b575061143b83610564611c35565b6114575760405162461bcd60e51b81526004016105b790613e90565b610c99838383612083565b61148e7f9f2df0fed2c77648de5860a4cc508cd0818c85b8b8a1ab4ceeef8d981c8956a66104b3611c35565b6114aa5760405162461bcd60e51b81526004016105b790614138565b61090384848484612229565b60075481565b6114e87f65d7a28e3265b37a6474929f336521b332c1681b933f6cb9f3376673440d862a6104b3611c35565b6115045760405162461bcd60e51b81526004016105b7906142ee565b6112c861231a565b600660009054906101000a90046001600160a01b03166001600160a01b0316639d2f83f06040518163ffffffff1660e01b815260040160206040518083038186803b15801561155a57600080fd5b505afa15801561156e573d6000803e3d6000fd5b505050506040513d601f19601f820116820180604052508101906115929190613687565b156115af5760405162461bcd60e51b81526004016105b7906141f2565b60006115bf8c8c8c8c8c8c610cc0565b9050600086868686866040516020016115dc959493929190613bcb565b60405160208183030381529060405290506116356115f8611c35565b8f848c8c80806020026020016040519081016040528093929190818152602001838360200280828437600092019190915250889250610c19915050565b5050505050505050505050505050565b600082815260016020526040812061165d9083612375565b9392505050565b6000918252602082815260408084206001600160a01b0393909316845291905290205460ff1690565b60065460408051634a32c6bf60e11b815290516001600160a01b03909216916391d148549183916394658d7e91600480820192602092909190829003018186803b1580156116da57600080fd5b505afa1580156116ee573d6000803e3d6000fd5b505050506040513d601f19601f8201168201806040525081019061171291906136bb565b61171a611c35565b6040518363ffffffff1660e01b8152600401611737929190613bb4565b60206040518083038186803b15801561174f57600080fd5b505afa158015611763573d6000803e3d6000fd5b505050506040513d601f19601f820116820180604052508101906117879190613687565b6117a35760405162461bcd60e51b81526004016105b790613dd6565b610c9960098383612ef6565b600081565b816001600160a01b03166117c6611c35565b6001600160a01b031614156117ed5760405162461bcd60e51b81526004016105b79061434b565b80600360006117fa611c35565b6001600160a01b03908116825260208083019390935260409182016000908120918716808252919093529120805460ff19169215159290921790915561183e611c35565b6001600160a01b03167f17307eab39ab6107e8899845ad3d59bd9653f200f220920489ca2b5937696c31836040516118769190613ba0565b60405180910390a35050565b6009805461188f90614652565b80601f01602080910402602001604051908101604052809291908181526020018280546118bb90614652565b80156119085780601f106118dd57610100808354040283529160200191611908565b820191906000526020600020905b8154815290600101906020018083116118eb57829003601f168201915b505050505081565b60085481565b600b60205260009081526040902080546001820180546001600160a01b03909216929161194290614652565b80601f016020809104026020016040519081016040528092919081815260200182805461196e90614652565b80156119bb5780601f10611990576101008083540402835291602001916119bb565b820191906000526020600020905b81548152906001019060200180831161199e57829003601f168201915b5050505050908060020154905083565b60008181526001602052604081206105f690612381565b7f9f2df0fed2c77648de5860a4cc508cd0818c85b8b8a1ab4ceeef8d981c8956a681565b610ca8828261238c565b7f65d7a28e3265b37a6474929f336521b332c1681b933f6cb9f3376673440d862a81565b606060098054611a4390614652565b80601f0160208091040260200160405190810160405280929190818152602001828054611a6f90614652565b8015611abc5780601f10611a9157610100808354040283529160200191611abc565b820191906000526020600020905b815481529060010190602001808311611a9f57829003601f168201915b5050505050905090565b6001600160a01b03918216600090815260036020908152604080832093909416825291909152205460ff1690565b611afc611c35565b6001600160a01b0316856001600160a01b03161480611b225750611b2285610564611c35565b611b3e5760405162461bcd60e51b81526004016105b790613e90565b610c7085858585856123ab565b611b53611c35565b6001600160a01b0316836001600160a01b03161480611b795750611b7983610564611c35565b611b955760405162461bcd60e51b81526004016105b790613e90565b610c998383836124e3565b6000611bab336113ea565b15611bbf575060131936013560601c61140a565b611bc7611bf1565b905061140a565b611bd882826125f6565b5050565b600061165d836001600160a01b03841661267b565b3390565b60006001600160e01b03198216636cdb3d1360e11b1480611c2657506001600160e01b031982166303a24d0760e21b145b806105f657506105f6826126c5565b6000611c3f611ba0565b905090565b6001600160a01b038416611c6a5760405162461bcd60e51b81526004016105b790614462565b8151835114611c8b5760405162461bcd60e51b81526004016105b790614405565b6000611c95611c35565b9050611ca6816000878787876126ea565b60005b8451811015611d5e57838181518110611cd257634e487b7160e01b600052603260045260246000fd5b602002602001015160026000878481518110611cfe57634e487b7160e01b600052603260045260246000fd5b602002602001015181526020019081526020016000206000886001600160a01b03166001600160a01b031681526020019081526020016000206000828254611d4691906145a1565b90915550819050611d568161468d565b915050611ca9565b50846001600160a01b031660006001600160a01b0316826001600160a01b03167f4a39dc06d4c0dbc64b70af90fd698a233a518aa5d07e595d983b8c0526c8f7fb8787604051611daf929190613b72565b60405180910390a4610c708160008787878761279e565b8151835114611de75760405162461bcd60e51b81526004016105b790614405565b6001600160a01b038416611e0d5760405162461bcd60e51b81526004016105b79061403b565b6000611e17611c35565b9050611e278187878787876126ea565b60005b8451811015611f2c576000858281518110611e5557634e487b7160e01b600052603260045260246000fd5b602002602001015190506000858381518110611e8157634e487b7160e01b600052603260045260246000fd5b60209081029190910181015160008481526002835260408082206001600160a01b038e168352909352919091205490915081811015611ed25760405162461bcd60e51b81526004016105b790614195565b60008381526002602090815260408083206001600160a01b038e8116855292528083208585039055908b16825281208054849290611f119084906145a1565b9250508190555050505080611f259061468d565b9050611e2a565b50846001600160a01b0316866001600160a01b0316826001600160a01b03167f4a39dc06d4c0dbc64b70af90fd698a233a518aa5d07e595d983b8c0526c8f7fb8787604051611f7c929190613b72565b60405180910390a4611f9281878787878761279e565b505050505050565b611fa3826109cf565b611fb481611faf611c35565b6128ac565b610c9983836125f6565b611fc6611c35565b6001600160a01b0316816001600160a01b031614611ff65760405162461bcd60e51b81526004016105b7906144a3565b611bd88282612910565b600061165d836001600160a01b038416612993565b61201d611403565b6120395760405162461bcd60e51b81526004016105b790613cfe565b6005805460ff191690557f5db9ee0a495bf2e6ff9c91a7834c1ba4fdd244a5e8aa4e537bd38aeae4b073aa61206c611c35565b604051612079919061395a565b60405180910390a1565b6001600160a01b0383166120a95760405162461bcd60e51b81526004016105b7906140f5565b80518251146120ca5760405162461bcd60e51b81526004016105b790614405565b60006120d4611c35565b90506120f4818560008686604051806020016040528060008152506126ea565b60005b83518110156121d857600084828151811061212257634e487b7160e01b600052603260045260246000fd5b60200260200101519050600084838151811061214e57634e487b7160e01b600052603260045260246000fd5b60209081029190910181015160008481526002835260408082206001600160a01b038c16835290935291909120549091508181101561219f5760405162461bcd60e51b81526004016105b790613d92565b60009283526002602090815260408085206001600160a01b038b16865290915290922091039055806121d08161468d565b9150506120f7565b5060006001600160a01b0316846001600160a01b0316826001600160a01b03167f4a39dc06d4c0dbc64b70af90fd698a233a518aa5d07e595d983b8c0526c8f7fb8686604051610c0b929190613b72565b6001600160a01b03841661224f5760405162461bcd60e51b81526004016105b790614462565b6000612259611c35565b905061227a8160008761226b88612ab0565b61227488612ab0565b876126ea565b60008481526002602090815260408083206001600160a01b0389168452909152812080548592906122ac9084906145a1565b92505081905550846001600160a01b031660006001600160a01b0316826001600160a01b03167fc3d58168c5ae7397731d063d5bbf3d657854427343f4c083240f7aacaa2d0f628787604051612303929190614500565b60405180910390a4610c7081600087878787612b09565b612322611403565b1561233f5760405162461bcd60e51b81526004016105b790613fa7565b6005805460ff191660011790557f62e78cea01bee320cd4e420270b5ea74000d11b0c9f74754ebdbfc544b05a25861206c611c35565b600061165d8383612bda565b60006105f682612c12565b612395826109cf565b6123a181611faf611c35565b610c998383612910565b6001600160a01b0384166123d15760405162461bcd60e51b81526004016105b79061403b565b60006123db611c35565b90506123ec81878761226b88612ab0565b60008481526002602090815260408083206001600160a01b038a1684529091529020548381101561242f5760405162461bcd60e51b81526004016105b790614195565b60008581526002602090815260408083206001600160a01b038b811685529252808320878503905590881682528120805486929061246e9084906145a1565b92505081905550856001600160a01b0316876001600160a01b0316836001600160a01b03167fc3d58168c5ae7397731d063d5bbf3d657854427343f4c083240f7aacaa2d0f6288886040516124c4929190614500565b60405180910390a46124da828888888888612b09565b50505050505050565b6001600160a01b0383166125095760405162461bcd60e51b81526004016105b7906140f5565b6000612513611c35565b90506125438185600061252587612ab0565b61252e87612ab0565b604051806020016040528060008152506126ea565b60008381526002602090815260408083206001600160a01b0388168452909152902054828110156125865760405162461bcd60e51b81526004016105b790613d92565b60008481526002602090815260408083206001600160a01b03808a16808652919093528184208786039055905190918516907fc3d58168c5ae7397731d063d5bbf3d657854427343f4c083240f7aacaa2d0f62906125e79089908990614500565b60405180910390a45050505050565b6126008282611664565b611bd8576000828152602081815260408083206001600160a01b03851684529091529020805460ff19166001179055612637611c35565b6001600160a01b0316816001600160a01b0316837f2f8788117e7eff1d82e926ec794901d17c78024a50270940304540a733656f0d60405160405180910390a45050565b60006126878383612c16565b6126bd575081546001818101845560008481526020808220909301849055845484825282860190935260409020919091556105e5565b5060006105e5565b60006001600160e01b03198216635a05180f60e01b14806105f657506105f682612c2e565b6126f8868686868686612c53565b6001600160a01b038416611f925760005b83518110156124da5782818151811061273257634e487b7160e01b600052603260045260246000fd5b6020026020010151600a600086848151811061275e57634e487b7160e01b600052603260045260246000fd5b60200260200101518152602001908152602001600020600201600082825461278691906145f8565b909155508190506127968161468d565b915050612709565b6127b0846001600160a01b0316612c61565b15611f925760405163bc197c8160e01b81526001600160a01b0385169063bc197c81906127e9908990899088908890889060040161396e565b602060405180830381600087803b15801561280357600080fd5b505af1925050508015612833575060408051601f3d908101601f1916820190925261283091810190613732565b60015b61287c5761283f6146da565b8061284a5750612864565b8060405162461bcd60e51b81526004016105b79190613bfc565b60405162461bcd60e51b81526004016105b790613c0f565b6001600160e01b0319811663bc197c8160e01b146124da5760405162461bcd60e51b81526004016105b790613ca1565b6128b68282611664565b611bd8576128ce816001600160a01b03166014612c67565b6128d9836020612c67565b6040516020016128ea9291906138d9565b60408051601f198184030181529082905262461bcd60e51b82526105b791600401613bfc565b61291a8282611664565b15611bd8576000828152602081815260408083206001600160a01b03851684529091529020805460ff1916905561294f611c35565b6001600160a01b0316816001600160a01b0316837ff6391f5c32d9c69d2a47ea670b442974b53935d1edc7fd64eb21e047a839171b60405160405180910390a45050565b60008181526001830160205260408120548015612aa65760006129b76001836145f8565b85549091506000906129cb906001906145f8565b9050818114612a4c5760008660000182815481106129f957634e487b7160e01b600052603260045260246000fd5b9060005260206000200154905080876000018481548110612a2a57634e487b7160e01b600052603260045260246000fd5b6000918252602080832090910192909255918252600188019052604090208390555b8554869080612a6b57634e487b7160e01b600052603160045260246000fd5b6001900381819060005260206000200160009055905585600101600086815260200190815260200160002060009055600193505050506105e5565b60009150506105e5565b60408051600180825281830190925260609160009190602080830190803683370190505090508281600081518110612af857634e487b7160e01b600052603260045260246000fd5b602090810291909101015292915050565b612b1b846001600160a01b0316612c61565b15611f925760405163f23a6e6160e01b81526001600160a01b0385169063f23a6e6190612b5490899089908890889088906004016139cc565b602060405180830381600087803b158015612b6e57600080fd5b505af1925050508015612b9e575060408051601f3d908101601f19168201909252612b9b91810190613732565b60015b612baa5761283f6146da565b6001600160e01b0319811663f23a6e6160e01b146124da5760405162461bcd60e51b81526004016105b790613ca1565b6000826000018281548110612bff57634e487b7160e01b600052603260045260246000fd5b9060005260206000200154905092915050565b5490565b60009081526001919091016020526040902054151590565b60006001600160e01b03198216637965db0b60e01b14806105f657506105f682612e26565b611f92868686868686612e3f565b3b151590565b60606000612c768360026145d9565b612c819060026145a1565b67ffffffffffffffff811115612ca757634e487b7160e01b600052604160045260246000fd5b6040519080825280601f01601f191660200182016040528015612cd1576020820181803683370190505b509050600360fc1b81600081518110612cfa57634e487b7160e01b600052603260045260246000fd5b60200101906001600160f81b031916908160001a905350600f60fb1b81600181518110612d3757634e487b7160e01b600052603260045260246000fd5b60200101906001600160f81b031916908160001a9053506000612d5b8460026145d9565b612d669060016145a1565b90505b6001811115612e07577f303132333435363738396162636465660000000000000000000000000000000085600f1660108110612db557634e487b7160e01b600052603260045260246000fd5b1a60f81b828281518110612dd957634e487b7160e01b600052603260045260246000fd5b60200101906001600160f81b031916908160001a90535060049490941c93612e008161463b565b9050612d69565b50831561165d5760405162461bcd60e51b81526004016105b790613c6c565b6001600160e01b031981166301ffc9a760e01b14919050565b612e4d868686868686611f92565b612e55611403565b15611f925760405162461bcd60e51b81526004016105b790613e33565b828054612e7e90614652565b90600052602060002090601f016020900481019282612ea05760008555612ee6565b82601f10612eb957805160ff1916838001178555612ee6565b82800160010185558215612ee6579182015b82811115612ee6578251825591602001919060010190612ecb565b50612ef2929150612f6a565b5090565b828054612f0290614652565b90600052602060002090601f016020900481019282612f245760008555612ee6565b82601f10612f3d5782800160ff19823516178555612ee6565b82800160010185558215612ee6579182015b82811115612ee6578235825591602001919060010190612f4f565b5b80821115612ef25760008155600101612f6b565b80356001600160a01b03811681146105f957600080fd5b60008083601f840112612fa7578182fd5b50813567ffffffffffffffff811115612fbe578182fd5b6020830191508360208083028501011115612fd857600080fd5b9250929050565b600082601f830112612fef578081fd5b81356020613004612fff8361457d565b614553565b8281528181019085830183850287018401881015613020578586fd5b855b8581101561303e57813584529284019290840190600101613022565b5090979650505050505050565b600082601f83011261305b578081fd5b813567ffffffffffffffff811115613075576130756146be565b613088601f8201601f1916602001614553565b81815284602083860101111561309c578283fd5b816020850160208301379081016020019190915292915050565b60008083601f8401126130c7578182fd5b50813567ffffffffffffffff8111156130de578182fd5b602083019150836020828501011115612fd857600080fd5b600060208284031215613107578081fd5b61165d82612f7f565b60008060408385031215613122578081fd5b61312b83612f7f565b9150610a9c60208401612f7f565b600080600080600060a08688031215613150578081fd5b61315986612f7f565b945061316760208701612f7f565b9350604086013567ffffffffffffffff80821115613183578283fd5b61318f89838a01612fdf565b945060608801359150808211156131a4578283fd5b6131b089838a01612fdf565b935060808801359150808211156131c5578283fd5b506131d28882890161304b565b9150509295509295909350565b600080600080600060a086880312156131f6578081fd5b6131ff86612f7f565b945061320d60208701612f7f565b93506040860135925060608601359150608086013567ffffffffffffffff811115613236578182fd5b6131d28882890161304b565b6000806000806000806000806000806000806101008d8f031215613264578687fd5b61326d8d612f7f565b9b5067ffffffffffffffff60208e01351115613287578687fd5b6132978e60208f01358f01612f96565b909b50995067ffffffffffffffff60408e013511156132b4578687fd5b6132c48e60408f01358f01612f96565b909950975067ffffffffffffffff60608e013511156132e1578687fd5b6132f18e60608f01358f01612f96565b909750955067ffffffffffffffff60808e0135111561330e578485fd5b61331e8e60808f01358f016130b6565b9c9f9b9e50999c989b979a9699959895979660a08701359660c0810135965060e00135945092505050565b60008060006060848603121561335d578081fd5b61336684612f7f565b9250602084013567ffffffffffffffff80821115613382578283fd5b61338e87838801612fdf565b935060408601359150808211156133a3578283fd5b506133b086828701612fdf565b9150509250925092565b600080600080608085870312156133cf578182fd5b6133d885612f7f565b9350602085013567ffffffffffffffff808211156133f4578384fd5b61340088838901612fdf565b94506040870135915080821115613415578384fd5b61342188838901612fdf565b93506060870135915080821115613436578283fd5b506134438782880161304b565b91505092959194509250565b60008060408385031215613461578182fd5b61346a83612f7f565b9150602083013561347a8161477f565b809150509250929050565b60008060408385031215613497578182fd5b6134a083612f7f565b946020939093013593505050565b6000806000606084860312156134c2578081fd5b6134cb84612f7f565b95602085013595506040909401359392505050565b600080600080608085870312156134f5578182fd5b6134fe85612f7f565b93506020850135925060408501359150606085013567ffffffffffffffff811115613527578182fd5b6134438782880161304b565b60008060408385031215613545578182fd5b823567ffffffffffffffff8082111561355c578384fd5b818501915085601f83011261356f578384fd5b8135602061357f612fff8361457d565b82815281810190858301838502870184018b101561359b578889fd5b8896505b848710156135c4576135b081612f7f565b83526001969096019591830191830161359f565b50965050860135925050808211156135da578283fd5b506135e785828601612fdf565b9150509250929050565b60008060008060008060608789031215613609578384fd5b863567ffffffffffffffff80821115613620578586fd5b61362c8a838b01612f96565b90985096506020890135915080821115613644578586fd5b6136508a838b01612f96565b90965094506040890135915080821115613668578384fd5b5061367589828a01612f96565b979a9699509497509295939492505050565b600060208284031215613698578081fd5b815161165d8161477f565b6000602082840312156136b4578081fd5b5035919050565b6000602082840312156136cc578081fd5b5051919050565b600080604083850312156136e5578182fd5b82359150610a9c60208401612f7f565b60008060408385031215613707578182fd5b50508035926020909101359150565b600060208284031215613727578081fd5b813561165d81614790565b600060208284031215613743578081fd5b815161165d81614790565b60008060208385031215613760578182fd5b823567ffffffffffffffff811115613776578283fd5b613782858286016130b6565b90969095509350505050565b60006020828403121561379f578081fd5b81516fffffffffffffffffffffffffffffffff8116811461165d578182fd5b818352602080840193600091908185020181018584845b8781101561383c5782840389528135601e198836030181126137f5578687fd5b8701803567ffffffffffffffff81111561380d578788fd5b80360389131561381b578788fd5b61382886828985016138af565b9a87019a95505050908401906001016137d5565b5091979650505050505050565b6000815180845260208085019450808401835b838110156138785781518752958201959082019060010161385c565b509495945050505050565b6000815180845261389b81602086016020860161460f565b601f01601f19169290920160200192915050565b60008284528282602086013780602084860101526020601f19601f85011685010190509392505050565b60007f416363657373436f6e74726f6c3a206163636f756e74200000000000000000008252835161391181601785016020880161460f565b7f206973206d697373696e6720726f6c6520000000000000000000000000000000601791840191820152835161394e81602884016020880161460f565b01602801949350505050565b6001600160a01b0391909116815260200190565b60006001600160a01b03808816835280871660208401525060a0604083015261399a60a0830186613849565b82810360608401526139ac8186613849565b905082810360808401526139c08185613883565b98975050505050505050565b60006001600160a01b03808816835280871660208401525084604083015283606083015260a06080830152613a0460a0830184613883565b979650505050505050565b60006001600160a01b038516825260606020830152613a316060830185613883565b9050826040830152949350505050565b60006001600160a01b038716825260a06020830152613a6360a0830187613883565b905084604083015283606083015260048310613a8f57634e487b7160e01b600052602160045260246000fd5b8260808301529695505050505050565b6001600160a01b03929092168252602082015260400190565b60006020825261165d6020830184613849565b600060a08252613ade60a083018b613849565b8281036020840152613af1818a8c6137be565b90508281036040840152613b058189613849565b90508281036060840152613b1a8187896137be565b905082810360808401528381527f07ffffffffffffffffffffffffffffffffffffffffffffffffffffffffffffff841115613b53578182fd5b6020840280866020840137016020019081529998505050505050505050565b600060408252613b856040830185613849565b8281036020840152613b978185613849565b95945050505050565b901515815260200190565b90815260200190565b9182526001600160a01b0316602082015260400190565b600060808252613bdf6080830187896138af565b602083019590955250604081019290925260609091015292915050565b60006020825261165d6020830184613883565b60208082526034908201527f455243313135353a207472616e7366657220746f206e6f6e204552433131353560408201527f526563656976657220696d706c656d656e746572000000000000000000000000606082015260800190565b6020808252818101527f537472696e67733a20686578206c656e67746820696e73756666696369656e74604082015260600190565b60208082526028908201527f455243313135353a204552433131353552656365697665722072656a6563746560408201527f6420746f6b656e73000000000000000000000000000000000000000000000000606082015260800190565b60208082526014908201527f5061757361626c653a206e6f7420706175736564000000000000000000000000604082015260600190565b6020808252602b908201527f455243313135353a2062616c616e636520717565727920666f7220746865207a60408201527f65726f2061646472657373000000000000000000000000000000000000000000606082015260800190565b60208082526024908201527f455243313135353a206275726e20616d6f756e7420657863656564732062616c604082015263616e636560e01b606082015260800190565b60208082526038908201527f4163636573734e46543a206f6e6c7920612070726f746f636f6c2061646d696e60408201527f2063616e2063616c6c20746869732066756e6374696f6e2e0000000000000000606082015260800190565b6020808252602c908201527f455243313135355061757361626c653a20746f6b656e207472616e736665722060408201527f7768696c65207061757365640000000000000000000000000000000000000000606082015260800190565b60208082526029908201527f455243313135353a2063616c6c6572206973206e6f74206f776e6572206e6f7260408201527f20617070726f7665640000000000000000000000000000000000000000000000606082015260800190565b6020808252602e908201527f4163636573734e46543a2043616e6e6f742072656465656d206d6f7265204e4660408201527f5473207468616e206f776e65642e000000000000000000000000000000000000606082015260800190565b60208082526030908201527f4163636573734e46543a204270732070726f7669646564206d7573742062652060408201527f6c657373207468616e2031302c30303000000000000000000000000000000000606082015260800190565b60208082526010908201527f5061757361626c653a2070617573656400000000000000000000000000000000604082015260600190565b60208082526028908201527f4163636573734e46543a204d75737420637265617465206174206c656173742060408201527f6f6e65204e46542e000000000000000000000000000000000000000000000000606082015260800190565b60208082526025908201527f455243313135353a207472616e7366657220746f20746865207a65726f20616460408201527f6472657373000000000000000000000000000000000000000000000000000000606082015260800190565b60208082526032908201527f455243313135353a207472616e736665722063616c6c6572206973206e6f742060408201527f6f776e6572206e6f7220617070726f7665640000000000000000000000000000606082015260800190565b60208082526023908201527f455243313135353a206275726e2066726f6d20746865207a65726f206164647260408201526265737360e81b606082015260800190565b60208082526038908201527f455243313135355072657365744d696e7465725061757365723a206d7573742060408201527f68617665206d696e74657220726f6c6520746f206d696e740000000000000000606082015260800190565b6020808252602a908201527f455243313135353a20696e73756666696369656e742062616c616e636520666f60408201527f72207472616e7366657200000000000000000000000000000000000000000000606082015260800190565b60208082526022908201527f4163636573734e46543a205468652070726f746f636f6c206973207061757365604082015261321760f11b606082015260800190565b60208082526036908201527f4163636573734e46543a204d757374207370656369667920657175616c206e7560408201527f6d626572206f6620636f6e6669672076616c7565732e00000000000000000000606082015260800190565b6020808252603b908201527f455243313135355072657365744d696e7465725061757365723a206d7573742060408201527f686176652070617573657220726f6c6520746f20756e70617573650000000000606082015260800190565b60208082526039908201527f455243313135355072657365744d696e7465725061757365723a206d7573742060408201527f686176652070617573657220726f6c6520746f20706175736500000000000000606082015260800190565b60208082526029908201527f455243313135353a2073657474696e6720617070726f76616c2073746174757360408201527f20666f722073656c660000000000000000000000000000000000000000000000606082015260800190565b60208082526029908201527f455243313135353a206163636f756e747320616e6420696473206c656e67746860408201527f206d69736d617463680000000000000000000000000000000000000000000000606082015260800190565b60208082526028908201527f455243313135353a2069647320616e6420616d6f756e7473206c656e6774682060408201527f6d69736d61746368000000000000000000000000000000000000000000000000606082015260800190565b60208082526021908201527f455243313135353a206d696e7420746f20746865207a65726f206164647265736040820152607360f81b606082015260800190565b6020808252602f908201527f416363657373436f6e74726f6c3a2063616e206f6e6c792072656e6f756e636560408201527f20726f6c657320666f722073656c660000000000000000000000000000000000606082015260800190565b918252602082015260400190565b6000808335601e19843603018112614524578283fd5b83018035915067ffffffffffffffff82111561453e578283fd5b602001915036819003821315612fd857600080fd5b60405181810167ffffffffffffffff81118282101715614575576145756146be565b604052919050565b600067ffffffffffffffff821115614597576145976146be565b5060209081020190565b600082198211156145b4576145b46146a8565b500190565b6000826145d457634e487b7160e01b81526012600452602481fd5b500490565b60008160001904831182151516156145f3576145f36146a8565b500290565b60008282101561460a5761460a6146a8565b500390565b60005b8381101561462a578181015183820152602001614612565b838111156109035750506000910152565b60008161464a5761464a6146a8565b506000190190565b60028104600182168061466657607f821691505b6020821081141561468757634e487b7160e01b600052602260045260246000fd5b50919050565b60006000198214156146a1576146a16146a8565b5060010190565b634e487b7160e01b600052601160045260246000fd5b634e487b7160e01b600052604160045260246000fd5b60e01c90565b600060443d10156146ea5761140a565b600481823e6308c379a06146fe82516146d4565b146147085761140a565b6040513d600319016004823e80513d67ffffffffffffffff8160248401118184111715614738575050505061140a565b82840192508251915080821115614752575050505061140a565b503d8301602082840101111561476a5750505061140a565b601f01601f1916810160200160405291505090565b801515811461478d57600080fd5b50565b6001600160e01b03198116811461478d57600080fdfea164736f6c6343000800000a",
  "linkReferences": {},
  "deployedLinkReferences": {}
}