{
  "_format": "hh-sol-artifact-1",
  "contractName": "ERC1155PresetMinterPauser",
  "sourceName": "contracts/openzeppelin-presets/ERC1155PresetMinterPauser.sol",
  "abi": [
    {
      "inputs": [
        {
          "internalType": "string",
          "name": "uri",
          "type": "string"
        }
      ],
      "stateMutability": "nonpayable",
      "type": "constructor"
    },
    {
      "anonymous": false,
      "inputs": [
        {
          "indexed": true,
          "internalType": "address",
          "name": "account",
          "type": "address"
        },
        {
          "indexed": true,
          "internalType": "address",
          "name": "operator",
          "type": "address"
        },
        {
          "indexed": false,
          "internalType": "bool",
          "name": "approved",
          "type": "bool"
        }
      ],
      "name": "ApprovalForAll",
      "type": "event"
    },
    {
      "anonymous": false,
      "inputs": [
        {
          "indexed": false,
          "internalType": "address",
          "name": "account",
          "type": "address"
        }
      ],
      "name": "Paused",
      "type": "event"
    },
    {
      "anonymous": false,
      "inputs": [
        {
          "indexed": true,
          "internalType": "bytes32",
          "name": "role",
          "type": "bytes32"
        },
        {
          "indexed": true,
          "internalType": "bytes32",
          "name": "previousAdminRole",
          "type": "bytes32"
        },
        {
          "indexed": true,
          "internalType": "bytes32",
          "name": "newAdminRole",
          "type": "bytes32"
        }
      ],
      "name": "RoleAdminChanged",
      "type": "event"
    },
    {
      "anonymous": false,
      "inputs": [
        {
          "indexed": true,
          "internalType": "bytes32",
          "name": "role",
          "type": "bytes32"
        },
        {
          "indexed": true,
          "internalType": "address",
          "name": "account",
          "type": "address"
        },
        {
          "indexed": true,
          "internalType": "address",
          "name": "sender",
          "type": "address"
        }
      ],
      "name": "RoleGranted",
      "type": "event"
    },
    {
      "anonymous": false,
      "inputs": [
        {
          "indexed": true,
          "internalType": "bytes32",
          "name": "role",
          "type": "bytes32"
        },
        {
          "indexed": true,
          "internalType": "address",
          "name": "account",
          "type": "address"
        },
        {
          "indexed": true,
          "internalType": "address",
          "name": "sender",
          "type": "address"
        }
      ],
      "name": "RoleRevoked",
      "type": "event"
    },
    {
      "anonymous": false,
      "inputs": [
        {
          "indexed": true,
          "internalType": "address",
          "name": "operator",
          "type": "address"
        },
        {
          "indexed": true,
          "internalType": "address",
          "name": "from",
          "type": "address"
        },
        {
          "indexed": true,
          "internalType": "address",
          "name": "to",
          "type": "address"
        },
        {
          "indexed": false,
          "internalType": "uint256[]",
          "name": "ids",
          "type": "uint256[]"
        },
        {
          "indexed": false,
          "internalType": "uint256[]",
          "name": "values",
          "type": "uint256[]"
        }
      ],
      "name": "TransferBatch",
      "type": "event"
    },
    {
      "anonymous": false,
      "inputs": [
        {
          "indexed": true,
          "internalType": "address",
          "name": "operator",
          "type": "address"
        },
        {
          "indexed": true,
          "internalType": "address",
          "name": "from",
          "type": "address"
        },
        {
          "indexed": true,
          "internalType": "address",
          "name": "to",
          "type": "address"
        },
        {
          "indexed": false,
          "internalType": "uint256",
          "name": "id",
          "type": "uint256"
        },
        {
          "indexed": false,
          "internalType": "uint256",
          "name": "value",
          "type": "uint256"
        }
      ],
      "name": "TransferSingle",
      "type": "event"
    },
    {
      "anonymous": false,
      "inputs": [
        {
          "indexed": false,
          "internalType": "string",
          "name": "value",
          "type": "string"
        },
        {
          "indexed": true,
          "internalType": "uint256",
          "name": "id",
          "type": "uint256"
        }
      ],
      "name": "URI",
      "type": "event"
    },
    {
      "anonymous": false,
      "inputs": [
        {
          "indexed": false,
          "internalType": "address",
          "name": "account",
          "type": "address"
        }
      ],
      "name": "Unpaused",
      "type": "event"
    },
    {
      "inputs": [],
      "name": "DEFAULT_ADMIN_ROLE",
      "outputs": [
        {
          "internalType": "bytes32",
          "name": "",
          "type": "bytes32"
        }
      ],
      "stateMutability": "view",
      "type": "function"
    },
    {
      "inputs": [],
      "name": "MINTER_ROLE",
      "outputs": [
        {
          "internalType": "bytes32",
          "name": "",
          "type": "bytes32"
        }
      ],
      "stateMutability": "view",
      "type": "function"
    },
    {
      "inputs": [],
      "name": "PAUSER_ROLE",
      "outputs": [
        {
          "internalType": "bytes32",
          "name": "",
          "type": "bytes32"
        }
      ],
      "stateMutability": "view",
      "type": "function"
    },
    {
      "inputs": [
        {
          "internalType": "address",
          "name": "account",
          "type": "address"
        },
        {
          "internalType": "uint256",
          "name": "id",
          "type": "uint256"
        }
      ],
      "name": "balanceOf",
      "outputs": [
        {
          "internalType": "uint256",
          "name": "",
          "type": "uint256"
        }
      ],
      "stateMutability": "view",
      "type": "function"
    },
    {
      "inputs": [
        {
          "internalType": "address[]",
          "name": "accounts",
          "type": "address[]"
        },
        {
          "internalType": "uint256[]",
          "name": "ids",
          "type": "uint256[]"
        }
      ],
      "name": "balanceOfBatch",
      "outputs": [
        {
          "internalType": "uint256[]",
          "name": "",
          "type": "uint256[]"
        }
      ],
      "stateMutability": "view",
      "type": "function"
    },
    {
      "inputs": [
        {
          "internalType": "address",
          "name": "account",
          "type": "address"
        },
        {
          "internalType": "uint256",
          "name": "id",
          "type": "uint256"
        },
        {
          "internalType": "uint256",
          "name": "value",
          "type": "uint256"
        }
      ],
      "name": "burn",
      "outputs": [],
      "stateMutability": "nonpayable",
      "type": "function"
    },
    {
      "inputs": [
        {
          "internalType": "address",
          "name": "account",
          "type": "address"
        },
        {
          "internalType": "uint256[]",
          "name": "ids",
          "type": "uint256[]"
        },
        {
          "internalType": "uint256[]",
          "name": "values",
          "type": "uint256[]"
        }
      ],
      "name": "burnBatch",
      "outputs": [],
      "stateMutability": "nonpayable",
      "type": "function"
    },
    {
      "inputs": [
        {
          "internalType": "bytes32",
          "name": "role",
          "type": "bytes32"
        }
      ],
      "name": "getRoleAdmin",
      "outputs": [
        {
          "internalType": "bytes32",
          "name": "",
          "type": "bytes32"
        }
      ],
      "stateMutability": "view",
      "type": "function"
    },
    {
      "inputs": [
        {
          "internalType": "bytes32",
          "name": "role",
          "type": "bytes32"
        },
        {
          "internalType": "uint256",
          "name": "index",
          "type": "uint256"
        }
      ],
      "name": "getRoleMember",
      "outputs": [
        {
          "internalType": "address",
          "name": "",
          "type": "address"
        }
      ],
      "stateMutability": "view",
      "type": "function"
    },
    {
      "inputs": [
        {
          "internalType": "bytes32",
          "name": "role",
          "type": "bytes32"
        }
      ],
      "name": "getRoleMemberCount",
      "outputs": [
        {
          "internalType": "uint256",
          "name": "",
          "type": "uint256"
        }
      ],
      "stateMutability": "view",
      "type": "function"
    },
    {
      "inputs": [
        {
          "internalType": "bytes32",
          "name": "role",
          "type": "bytes32"
        },
        {
          "internalType": "address",
          "name": "account",
          "type": "address"
        }
      ],
      "name": "grantRole",
      "outputs": [],
      "stateMutability": "nonpayable",
      "type": "function"
    },
    {
      "inputs": [
        {
          "internalType": "bytes32",
          "name": "role",
          "type": "bytes32"
        },
        {
          "internalType": "address",
          "name": "account",
          "type": "address"
        }
      ],
      "name": "hasRole",
      "outputs": [
        {
          "internalType": "bool",
          "name": "",
          "type": "bool"
        }
      ],
      "stateMutability": "view",
      "type": "function"
    },
    {
      "inputs": [
        {
          "internalType": "address",
          "name": "account",
          "type": "address"
        },
        {
          "internalType": "address",
          "name": "operator",
          "type": "address"
        }
      ],
      "name": "isApprovedForAll",
      "outputs": [
        {
          "internalType": "bool",
          "name": "",
          "type": "bool"
        }
      ],
      "stateMutability": "view",
      "type": "function"
    },
    {
      "inputs": [
        {
          "internalType": "address",
          "name": "to",
          "type": "address"
        },
        {
          "internalType": "uint256",
          "name": "id",
          "type": "uint256"
        },
        {
          "internalType": "uint256",
          "name": "amount",
          "type": "uint256"
        },
        {
          "internalType": "bytes",
          "name": "data",
          "type": "bytes"
        }
      ],
      "name": "mint",
      "outputs": [],
      "stateMutability": "nonpayable",
      "type": "function"
    },
    {
      "inputs": [
        {
          "internalType": "address",
          "name": "to",
          "type": "address"
        },
        {
          "internalType": "uint256[]",
          "name": "ids",
          "type": "uint256[]"
        },
        {
          "internalType": "uint256[]",
          "name": "amounts",
          "type": "uint256[]"
        },
        {
          "internalType": "bytes",
          "name": "data",
          "type": "bytes"
        }
      ],
      "name": "mintBatch",
      "outputs": [],
      "stateMutability": "nonpayable",
      "type": "function"
    },
    {
      "inputs": [
        {
          "internalType": "address",
          "name": "",
          "type": "address"
        },
        {
          "internalType": "address",
          "name": "",
          "type": "address"
        },
        {
          "internalType": "uint256[]",
          "name": "",
          "type": "uint256[]"
        },
        {
          "internalType": "uint256[]",
          "name": "",
          "type": "uint256[]"
        },
        {
          "internalType": "bytes",
          "name": "",
          "type": "bytes"
        }
      ],
      "name": "onERC1155BatchReceived",
      "outputs": [
        {
          "internalType": "bytes4",
          "name": "",
          "type": "bytes4"
        }
      ],
      "stateMutability": "nonpayable",
      "type": "function"
    },
    {
      "inputs": [
        {
          "internalType": "address",
          "name": "",
          "type": "address"
        },
        {
          "internalType": "address",
          "name": "",
          "type": "address"
        },
        {
          "internalType": "uint256",
          "name": "",
          "type": "uint256"
        },
        {
          "internalType": "uint256",
          "name": "",
          "type": "uint256"
        },
        {
          "internalType": "bytes",
          "name": "",
          "type": "bytes"
        }
      ],
      "name": "onERC1155Received",
      "outputs": [
        {
          "internalType": "bytes4",
          "name": "",
          "type": "bytes4"
        }
      ],
      "stateMutability": "nonpayable",
      "type": "function"
    },
    {
      "inputs": [
        {
          "internalType": "address",
          "name": "",
          "type": "address"
        },
        {
          "internalType": "address",
          "name": "",
          "type": "address"
        },
        {
          "internalType": "uint256",
          "name": "",
          "type": "uint256"
        },
        {
          "internalType": "bytes",
          "name": "",
          "type": "bytes"
        }
      ],
      "name": "onERC721Received",
      "outputs": [
        {
          "internalType": "bytes4",
          "name": "",
          "type": "bytes4"
        }
      ],
      "stateMutability": "nonpayable",
      "type": "function"
    },
    {
      "inputs": [],
      "name": "pause",
      "outputs": [],
      "stateMutability": "nonpayable",
      "type": "function"
    },
    {
      "inputs": [],
      "name": "paused",
      "outputs": [
        {
          "internalType": "bool",
          "name": "",
          "type": "bool"
        }
      ],
      "stateMutability": "view",
      "type": "function"
    },
    {
      "inputs": [
        {
          "internalType": "bytes32",
          "name": "role",
          "type": "bytes32"
        },
        {
          "internalType": "address",
          "name": "account",
          "type": "address"
        }
      ],
      "name": "renounceRole",
      "outputs": [],
      "stateMutability": "nonpayable",
      "type": "function"
    },
    {
      "inputs": [
        {
          "internalType": "bytes32",
          "name": "role",
          "type": "bytes32"
        },
        {
          "internalType": "address",
          "name": "account",
          "type": "address"
        }
      ],
      "name": "revokeRole",
      "outputs": [],
      "stateMutability": "nonpayable",
      "type": "function"
    },
    {
      "inputs": [
        {
          "internalType": "address",
          "name": "from",
          "type": "address"
        },
        {
          "internalType": "address",
          "name": "to",
          "type": "address"
        },
        {
          "internalType": "uint256[]",
          "name": "ids",
          "type": "uint256[]"
        },
        {
          "internalType": "uint256[]",
          "name": "amounts",
          "type": "uint256[]"
        },
        {
          "internalType": "bytes",
          "name": "data",
          "type": "bytes"
        }
      ],
      "name": "safeBatchTransferFrom",
      "outputs": [],
      "stateMutability": "nonpayable",
      "type": "function"
    },
    {
      "inputs": [
        {
          "internalType": "address",
          "name": "from",
          "type": "address"
        },
        {
          "internalType": "address",
          "name": "to",
          "type": "address"
        },
        {
          "internalType": "uint256",
          "name": "id",
          "type": "uint256"
        },
        {
          "internalType": "uint256",
          "name": "amount",
          "type": "uint256"
        },
        {
          "internalType": "bytes",
          "name": "data",
          "type": "bytes"
        }
      ],
      "name": "safeTransferFrom",
      "outputs": [],
      "stateMutability": "nonpayable",
      "type": "function"
    },
    {
      "inputs": [
        {
          "internalType": "address",
          "name": "operator",
          "type": "address"
        },
        {
          "internalType": "bool",
          "name": "approved",
          "type": "bool"
        }
      ],
      "name": "setApprovalForAll",
      "outputs": [],
      "stateMutability": "nonpayable",
      "type": "function"
    },
    {
      "inputs": [
        {
          "internalType": "bytes4",
          "name": "interfaceId",
          "type": "bytes4"
        }
      ],
      "name": "supportsInterface",
      "outputs": [
        {
          "internalType": "bool",
          "name": "",
          "type": "bool"
        }
      ],
      "stateMutability": "view",
      "type": "function"
    },
    {
      "inputs": [
        {
          "internalType": "uint256",
          "name": "id",
          "type": "uint256"
        }
      ],
      "name": "totalSupply",
      "outputs": [
        {
          "internalType": "uint256",
          "name": "",
          "type": "uint256"
        }
      ],
      "stateMutability": "view",
      "type": "function"
    },
    {
      "inputs": [],
      "name": "unpause",
      "outputs": [],
      "stateMutability": "nonpayable",
      "type": "function"
    },
    {
      "inputs": [
        {
          "internalType": "uint256",
          "name": "",
          "type": "uint256"
        }
      ],
      "name": "uri",
      "outputs": [
        {
          "internalType": "string",
          "name": "",
          "type": "string"
        }
      ],
      "stateMutability": "view",
      "type": "function"
    }
  ],
  "bytecode": "0x60806040523480156200001157600080fd5b506040516200342238038062003422833981016040819052620000349162000312565b806200004081620000c6565b506005805460ff191690556200006160006200005b620000df565b620000e3565b620000907f9f2df0fed2c77648de5860a4cc508cd0818c85b8b8a1ab4ceeef8d981c8956a66200005b620000df565b620000bf7f65d7a28e3265b37a6474929f336521b332c1681b933f6cb9f3376673440d862a6200005b620000df565b5062000434565b8051620000db9060049060208401906200026c565b5050565b3390565b620000fa82826200012660201b62000b411760201c565b60008281526001602090815260409091206200012191839062000b4f62000132821b17901c565b505050565b620000db828262000152565b600062000149836001600160a01b038416620001dc565b90505b92915050565b6200015e82826200022b565b620000db576000828152602081815260408083206001600160a01b03851684529091529020805460ff1916600117905562000198620000df565b6001600160a01b0316816001600160a01b0316837f2f8788117e7eff1d82e926ec794901d17c78024a50270940304540a733656f0d60405160405180910390a45050565b6000620001ea838362000254565b62000222575081546001818101845560008481526020808220909301849055845484825282860190935260409020919091556200014c565b5060006200014c565b6000918252602082815260408084206001600160a01b0393909316845291905290205460ff1690565b60009081526001919091016020526040902054151590565b8280546200027a90620003e1565b90600052602060002090601f0160209004810192826200029e5760008555620002e9565b82601f10620002b957805160ff1916838001178555620002e9565b82800160010185558215620002e9579182015b82811115620002e9578251825591602001919060010190620002cc565b50620002f7929150620002fb565b5090565b5b80821115620002f75760008155600101620002fc565b6000602080838503121562000325578182fd5b82516001600160401b03808211156200033c578384fd5b818501915085601f83011262000350578384fd5b8151818111156200036557620003656200041e565b604051601f8201601f19168101850183811182821017156200038b576200038b6200041e565b6040528181528382018501881015620003a2578586fd5b8592505b81831015620003c55783830185015181840186015291840191620003a6565b81831115620003d657858583830101525b979650505050505050565b600281046001821680620003f657607f821691505b602082108114156200041857634e487b7160e01b600052602260045260246000fd5b50919050565b634e487b7160e01b600052604160045260246000fd5b612fde80620004446000396000f3fe608060405234801561001057600080fd5b50600436106101ce5760003560e01c80638456cb5911610104578063ca15c873116100a2578063e985e9c511610071578063e985e9c5146103c5578063f23a6e61146103d8578063f242432a146103eb578063f5298aca146103fe576101ce565b8063ca15c8731461038f578063d5391393146103a2578063d547741f146103aa578063e63ab1e9146103bd576101ce565b8063a217fddf116100de578063a217fddf1461034e578063a22cb46514610356578063bc197c8114610369578063bd85b0391461037c576101ce565b80638456cb59146103135780639010d07c1461031b57806391d148541461033b576101ce565b80632f2ff15d116101715780634e1273f41161014b5780634e1273f4146102c55780635c975abb146102e55780636b20c454146102ed578063731133e914610300576101ce565b80632f2ff15d1461029757806336568abe146102aa5780633f4ba83a146102bd576101ce565b8063150b7a02116101ad578063150b7a021461023c5780631f7fdffa1461025c578063248a9ca3146102715780632eb2c2d614610284576101ce565b8062fdd58e146101d357806301ffc9a7146101fc5780630e89341c1461021c575b600080fd5b6101e66101e13660046122b4565b610411565b6040516101f3919061268f565b60405180910390f35b61020f61020a36600461246f565b61046d565b6040516101f39190612684565b61022f61022a366004612414565b610480565b6040516101f391906126ad565b61024f61024a3660046120b7565b610514565b6040516101f39190612698565b61026f61026a3660046121f1565b610524565b005b6101e661027f366004612414565b61057e565b61026f610292366004612011565b610593565b61026f6102a536600461242c565b6105f1565b61026f6102b836600461242c565b610618565b61026f61063a565b6102d86102d3366004612356565b61068c565b6040516101f39190612643565b61020f6107ac565b61026f6102fb366004612180565b6107b6565b61026f61030e36600461230f565b61080b565b61026f61085f565b61032e61032936600461244e565b6108af565b6040516101f3919061258e565b61020f61034936600461242c565b6108ce565b6101e66108f7565b61026f61036436600461227a565b6108fc565b61024f610377366004612011565b6109ca565b6101e661038a366004612414565b6109db565b6101e661039d366004612414565b6109ed565b6101e6610a04565b61026f6103b836600461242c565b610a28565b6101e6610a32565b61020f6103d3366004611fdf565b610a56565b61024f6103e636600461211d565b610a84565b61026f6103f936600461211d565b610a95565b61026f61040c3660046122dd565b610aec565b60006001600160a01b0383166104425760405162461bcd60e51b8152600401610439906127e6565b60405180910390fd5b5060008181526002602090815260408083206001600160a01b03861684529091529020545b92915050565b600061047882610b64565b90505b919050565b60606004805461048f90612e8b565b80601f01602080910402602001604051908101604052809291908181526020018280546104bb90612e8b565b80156105085780601f106104dd57610100808354040283529160200191610508565b820191906000526020600020905b8154815290600101906020018083116104eb57829003601f168201915b50505050509050919050565b630a85bd0160e11b949350505050565b6105507f9f2df0fed2c77648de5860a4cc508cd0818c85b8b8a1ab4ceeef8d981c8956a6610349610b89565b61056c5760405162461bcd60e51b815260040161043990612a75565b61057884848484610b8d565b50505050565b60009081526020819052604090206001015490565b61059b610b89565b6001600160a01b0316856001600160a01b031614806105c157506105c1856103d3610b89565b6105dd5760405162461bcd60e51b8152600401610439906129d5565b6105ea8585858585610c2c565b5050505050565b6105fb8282610e00565b60008281526001602052604090206106139082610b4f565b505050565b6106228282610e24565b60008281526001602052604090206106139082610e66565b6106667f65d7a28e3265b37a6474929f336521b332c1681b933f6cb9f3376673440d862a610349610b89565b6106825760405162461bcd60e51b815260040161043990612b2f565b61068a610e7b565b565b606081518351146106af5760405162461bcd60e51b815260040161043990612c46565b6000835167ffffffffffffffff8111156106d957634e487b7160e01b600052604160045260246000fd5b604051908082528060200260200182016040528015610702578160200160208202803683370190505b50905060005b84518110156107a45761076985828151811061073457634e487b7160e01b600052603260045260246000fd5b602002602001015185838151811061075c57634e487b7160e01b600052603260045260246000fd5b6020026020010151610411565b82828151811061078957634e487b7160e01b600052603260045260246000fd5b602090810291909101015261079d81612ec6565b9050610708565b509392505050565b60055460ff165b90565b6107be610b89565b6001600160a01b0316836001600160a01b031614806107e457506107e4836103d3610b89565b6108005760405162461bcd60e51b8152600401610439906128e4565b610613838383610ee9565b6108377f9f2df0fed2c77648de5860a4cc508cd0818c85b8b8a1ab4ceeef8d981c8956a6610349610b89565b6108535760405162461bcd60e51b815260040161043990612a75565b61057884848484610f87565b61088b7f65d7a28e3265b37a6474929f336521b332c1681b933f6cb9f3376673440d862a610349610b89565b6108a75760405162461bcd60e51b815260040161043990612b8c565b61068a610fbc565b60008281526001602052604081206108c79083611017565b9392505050565b6000918252602082815260408084206001600160a01b0393909316845291905290205460ff1690565b600081565b816001600160a01b031661090e610b89565b6001600160a01b031614156109355760405162461bcd60e51b815260040161043990612be9565b8060036000610942610b89565b6001600160a01b03908116825260208083019390935260409182016000908120918716808252919093529120805460ff191692151592909217909155610986610b89565b6001600160a01b03167f17307eab39ab6107e8899845ad3d59bd9653f200f220920489ca2b5937696c31836040516109be9190612684565b60405180910390a35050565b63bc197c8160e01b95945050505050565b60009081526006602052604090205490565b600081815260016020526040812061047890611023565b7f9f2df0fed2c77648de5860a4cc508cd0818c85b8b8a1ab4ceeef8d981c8956a681565b610622828261102e565b7f65d7a28e3265b37a6474929f336521b332c1681b933f6cb9f3376673440d862a81565b6001600160a01b03918216600090815260036020908152604080832093909416825291909152205460ff1690565b63f23a6e6160e01b95945050505050565b610a9d610b89565b6001600160a01b0316856001600160a01b03161480610ac35750610ac3856103d3610b89565b610adf5760405162461bcd60e51b8152600401610439906128e4565b6105ea858585858561104d565b610af4610b89565b6001600160a01b0316836001600160a01b03161480610b1a5750610b1a836103d3610b89565b610b365760405162461bcd60e51b8152600401610439906128e4565b610613838383611194565b610b4b82826111c7565b5050565b60006108c7836001600160a01b03841661124c565b60006001600160e01b03198216630271189760e51b1480610478575061047882611296565b3390565b610b99848484846112d6565b60005b83518110156105ea57828181518110610bc557634e487b7160e01b600052603260045260246000fd5b602002602001015160066000868481518110610bf157634e487b7160e01b600052603260045260246000fd5b602002602001015181526020019081526020016000206000828254610c169190612dfa565b90915550610c25905081612ec6565b9050610b9c565b8151835114610c4d5760405162461bcd60e51b815260040161043990612ca3565b6001600160a01b038416610c735760405162461bcd60e51b815260040161043990612978565b6000610c7d610b89565b9050610c8d818787878787611458565b60005b8451811015610d92576000858281518110610cbb57634e487b7160e01b600052603260045260246000fd5b602002602001015190506000858381518110610ce757634e487b7160e01b600052603260045260246000fd5b60209081029190910181015160008481526002835260408082206001600160a01b038e168352909352919091205490915081811015610d385760405162461bcd60e51b815260040161043990612ad2565b60008381526002602090815260408083206001600160a01b038e8116855292528083208585039055908b16825281208054849290610d77908490612dfa565b9250508190555050505080610d8b90612ec6565b9050610c90565b50846001600160a01b0316866001600160a01b0316826001600160a01b03167f4a39dc06d4c0dbc64b70af90fd698a233a518aa5d07e595d983b8c0526c8f7fb8787604051610de2929190612656565b60405180910390a4610df8818787878787611466565b505050505050565b610e098261057e565b610e1a81610e15610b89565b611574565b61061383836111c7565b610e2c610b89565b6001600160a01b0316816001600160a01b031614610e5c5760405162461bcd60e51b815260040161043990612d41565b610b4b82826115d8565b60006108c7836001600160a01b03841661165b565b610e836107ac565b610e9f5760405162461bcd60e51b8152600401610439906127af565b6005805460ff191690557f5db9ee0a495bf2e6ff9c91a7834c1ba4fdd244a5e8aa4e537bd38aeae4b073aa610ed2610b89565b604051610edf919061258e565b60405180910390a1565b610ef4838383611778565b60005b825181101561057857818181518110610f2057634e487b7160e01b600052603260045260246000fd5b602002602001015160066000858481518110610f4c57634e487b7160e01b600052603260045260246000fd5b602002602001015181526020019081526020016000206000828254610f719190612e31565b90915550610f80905081612ec6565b9050610ef7565b610f938484848461192c565b60008381526006602052604081208054849290610fb1908490612dfa565b909155505050505050565b610fc46107ac565b15610fe15760405162461bcd60e51b815260040161043990612941565b6005805460ff191660011790557f62e78cea01bee320cd4e420270b5ea74000d11b0c9f74754ebdbfc544b05a258610ed2610b89565b60006108c78383611a0e565b600061047882611a46565b6110378261057e565b61104381610e15610b89565b61061383836115d8565b6001600160a01b0384166110735760405162461bcd60e51b815260040161043990612978565b600061107d610b89565b905061109d81878761108e88611a4a565b61109788611a4a565b87611458565b60008481526002602090815260408083206001600160a01b038a168452909152902054838110156110e05760405162461bcd60e51b815260040161043990612ad2565b60008581526002602090815260408083206001600160a01b038b811685529252808320878503905590881682528120805486929061111f908490612dfa565b92505081905550856001600160a01b0316876001600160a01b0316836001600160a01b03167fc3d58168c5ae7397731d063d5bbf3d657854427343f4c083240f7aacaa2d0f628888604051611175929190612d9e565b60405180910390a461118b828888888888611aa3565b50505050505050565b61119f838383611b74565b600082815260066020526040812080548392906111bd908490612e31565b9091555050505050565b6111d182826108ce565b610b4b576000828152602081815260408083206001600160a01b03851684529091529020805460ff19166001179055611208610b89565b6001600160a01b0316816001600160a01b0316837f2f8788117e7eff1d82e926ec794901d17c78024a50270940304540a733656f0d60405160405180910390a45050565b60006112588383611c87565b61128e57508154600181810184556000848152602080822090930184905584548482528286019093526040902091909155610467565b506000610467565b60006001600160e01b03198216636cdb3d1360e11b14806112c757506001600160e01b031982166303a24d0760e21b145b80610478575061047882611c9f565b6001600160a01b0384166112fc5760405162461bcd60e51b815260040161043990612d00565b815183511461131d5760405162461bcd60e51b815260040161043990612ca3565b6000611327610b89565b905061133881600087878787611458565b60005b84518110156113f05783818151811061136457634e487b7160e01b600052603260045260246000fd5b60200260200101516002600087848151811061139057634e487b7160e01b600052603260045260246000fd5b602002602001015181526020019081526020016000206000886001600160a01b03166001600160a01b0316815260200190815260200160002060008282546113d89190612dfa565b909155508190506113e881612ec6565b91505061133b565b50846001600160a01b031660006001600160a01b0316826001600160a01b03167f4a39dc06d4c0dbc64b70af90fd698a233a518aa5d07e595d983b8c0526c8f7fb8787604051611441929190612656565b60405180910390a46105ea81600087878787611466565b610df8868686868686611cc4565b611478846001600160a01b0316611cf7565b15610df85760405163bc197c8160e01b81526001600160a01b0385169063bc197c81906114b190899089908890889088906004016125a2565b602060405180830381600087803b1580156114cb57600080fd5b505af19250505080156114fb575060408051601f3d908101601f191682019092526114f89181019061248b565b60015b61154457611507612f13565b80611512575061152c565b8060405162461bcd60e51b815260040161043991906126ad565b60405162461bcd60e51b8152600401610439906126c0565b6001600160e01b0319811663bc197c8160e01b1461118b5760405162461bcd60e51b815260040161043990612752565b61157e82826108ce565b610b4b57611596816001600160a01b03166014611cfd565b6115a1836020611cfd565b6040516020016115b292919061250d565b60408051601f198184030181529082905262461bcd60e51b8252610439916004016126ad565b6115e282826108ce565b15610b4b576000828152602081815260408083206001600160a01b03851684529091529020805460ff19169055611617610b89565b6001600160a01b0316816001600160a01b0316837ff6391f5c32d9c69d2a47ea670b442974b53935d1edc7fd64eb21e047a839171b60405160405180910390a45050565b6000818152600183016020526040812054801561176e57600061167f600183612e31565b855490915060009061169390600190612e31565b90508181146117145760008660000182815481106116c157634e487b7160e01b600052603260045260246000fd5b90600052602060002001549050808760000184815481106116f257634e487b7160e01b600052603260045260246000fd5b6000918252602080832090910192909255918252600188019052604090208390555b855486908061173357634e487b7160e01b600052603160045260246000fd5b600190038181906000526020600020016000905590558560010160008681526020019081526020016000206000905560019350505050610467565b6000915050610467565b6001600160a01b03831661179e5760405162461bcd60e51b815260040161043990612a32565b80518251146117bf5760405162461bcd60e51b815260040161043990612ca3565b60006117c9610b89565b90506117e981856000868660405180602001604052806000815250611458565b60005b83518110156118cd57600084828151811061181757634e487b7160e01b600052603260045260246000fd5b60200260200101519050600084838151811061184357634e487b7160e01b600052603260045260246000fd5b60209081029190910181015160008481526002835260408082206001600160a01b038c1683529093529190912054909150818110156118945760405162461bcd60e51b815260040161043990612843565b60009283526002602090815260408085206001600160a01b038b16865290915290922091039055806118c581612ec6565b9150506117ec565b5060006001600160a01b0316846001600160a01b0316826001600160a01b03167f4a39dc06d4c0dbc64b70af90fd698a233a518aa5d07e595d983b8c0526c8f7fb868660405161191e929190612656565b60405180910390a450505050565b6001600160a01b0384166119525760405162461bcd60e51b815260040161043990612d00565b600061195c610b89565b905061196e8160008761108e88611a4a565b60008481526002602090815260408083206001600160a01b0389168452909152812080548592906119a0908490612dfa565b92505081905550846001600160a01b031660006001600160a01b0316826001600160a01b03167fc3d58168c5ae7397731d063d5bbf3d657854427343f4c083240f7aacaa2d0f6287876040516119f7929190612d9e565b60405180910390a46105ea81600087878787611aa3565b6000826000018281548110611a3357634e487b7160e01b600052603260045260246000fd5b9060005260206000200154905092915050565b5490565b60408051600180825281830190925260609160009190602080830190803683370190505090508281600081518110611a9257634e487b7160e01b600052603260045260246000fd5b602090810291909101015292915050565b611ab5846001600160a01b0316611cf7565b15610df85760405163f23a6e6160e01b81526001600160a01b0385169063f23a6e6190611aee9089908990889088908890600401612600565b602060405180830381600087803b158015611b0857600080fd5b505af1925050508015611b38575060408051601f3d908101601f19168201909252611b359181019061248b565b60015b611b4457611507612f13565b6001600160e01b0319811663f23a6e6160e01b1461118b5760405162461bcd60e51b815260040161043990612752565b6001600160a01b038316611b9a5760405162461bcd60e51b815260040161043990612a32565b6000611ba4610b89565b9050611bd481856000611bb687611a4a565b611bbf87611a4a565b60405180602001604052806000815250611458565b60008381526002602090815260408083206001600160a01b038816845290915290205482811015611c175760405162461bcd60e51b815260040161043990612843565b60008481526002602090815260408083206001600160a01b03808a16808652919093528184208786039055905190918516907fc3d58168c5ae7397731d063d5bbf3d657854427343f4c083240f7aacaa2d0f6290611c789089908990612d9e565b60405180910390a45050505050565b60009081526001919091016020526040902054151590565b60006001600160e01b03198216635a05180f60e01b1480610478575061047882611ebc565b611cd2868686868686610df8565b611cda6107ac565b15610df85760405162461bcd60e51b815260040161043990612887565b3b151590565b60606000611d0c836002612e12565b611d17906002612dfa565b67ffffffffffffffff811115611d3d57634e487b7160e01b600052604160045260246000fd5b6040519080825280601f01601f191660200182016040528015611d67576020820181803683370190505b509050600360fc1b81600081518110611d9057634e487b7160e01b600052603260045260246000fd5b60200101906001600160f81b031916908160001a905350600f60fb1b81600181518110611dcd57634e487b7160e01b600052603260045260246000fd5b60200101906001600160f81b031916908160001a9053506000611df1846002612e12565b611dfc906001612dfa565b90505b6001811115611e9d577f303132333435363738396162636465660000000000000000000000000000000085600f1660108110611e4b57634e487b7160e01b600052603260045260246000fd5b1a60f81b828281518110611e6f57634e487b7160e01b600052603260045260246000fd5b60200101906001600160f81b031916908160001a90535060049490941c93611e9681612e74565b9050611dff565b5083156108c75760405162461bcd60e51b81526004016104399061271d565b60006001600160e01b03198216637965db0b60e01b148061047857506301ffc9a760e01b6001600160e01b0319831614610478565b80356001600160a01b038116811461047b57600080fd5b600082601f830112611f18578081fd5b81356020611f2d611f2883612dd6565b612dac565b8281528181019085830183850287018401881015611f49578586fd5b855b85811015611f6757813584529284019290840190600101611f4b565b5090979650505050505050565b600082601f830112611f84578081fd5b813567ffffffffffffffff811115611f9e57611f9e612ef7565b611fb1601f8201601f1916602001612dac565b818152846020838601011115611fc5578283fd5b816020850160208301379081016020019190915292915050565b60008060408385031215611ff1578182fd5b611ffa83611ef1565b915061200860208401611ef1565b90509250929050565b600080600080600060a08688031215612028578081fd5b61203186611ef1565b945061203f60208701611ef1565b9350604086013567ffffffffffffffff8082111561205b578283fd5b61206789838a01611f08565b9450606088013591508082111561207c578283fd5b61208889838a01611f08565b9350608088013591508082111561209d578283fd5b506120aa88828901611f74565b9150509295509295909350565b600080600080608085870312156120cc578384fd5b6120d585611ef1565b93506120e360208601611ef1565b925060408501359150606085013567ffffffffffffffff811115612105578182fd5b61211187828801611f74565b91505092959194509250565b600080600080600060a08688031215612134578081fd5b61213d86611ef1565b945061214b60208701611ef1565b93506040860135925060608601359150608086013567ffffffffffffffff811115612174578182fd5b6120aa88828901611f74565b600080600060608486031215612194578283fd5b61219d84611ef1565b9250602084013567ffffffffffffffff808211156121b9578384fd5b6121c587838801611f08565b935060408601359150808211156121da578283fd5b506121e786828701611f08565b9150509250925092565b60008060008060808587031215612206578384fd5b61220f85611ef1565b9350602085013567ffffffffffffffff8082111561222b578485fd5b61223788838901611f08565b9450604087013591508082111561224c578384fd5b61225888838901611f08565b9350606087013591508082111561226d578283fd5b5061211187828801611f74565b6000806040838503121561228c578182fd5b61229583611ef1565b9150602083013580151581146122a9578182fd5b809150509250929050565b600080604083850312156122c6578182fd5b6122cf83611ef1565b946020939093013593505050565b6000806000606084860312156122f1578081fd5b6122fa84611ef1565b95602085013595506040909401359392505050565b60008060008060808587031215612324578182fd5b61232d85611ef1565b93506020850135925060408501359150606085013567ffffffffffffffff811115612105578182fd5b60008060408385031215612368578182fd5b823567ffffffffffffffff8082111561237f578384fd5b818501915085601f830112612392578384fd5b813560206123a2611f2883612dd6565b82815281810190858301838502870184018b10156123be578889fd5b8896505b848710156123e7576123d381611ef1565b8352600196909601959183019183016123c2565b50965050860135925050808211156123fd578283fd5b5061240a85828601611f08565b9150509250929050565b600060208284031215612425578081fd5b5035919050565b6000806040838503121561243e578182fd5b8235915061200860208401611ef1565b60008060408385031215612460578182fd5b50508035926020909101359150565b600060208284031215612480578081fd5b81356108c781612fb8565b60006020828403121561249c578081fd5b81516108c781612fb8565b6000815180845260208085019450808401835b838110156124d6578151875295820195908201906001016124ba565b509495945050505050565b600081518084526124f9816020860160208601612e48565b601f01601f19169290920160200192915050565b60007f416363657373436f6e74726f6c3a206163636f756e742000000000000000000082528351612545816017850160208801612e48565b7f206973206d697373696e6720726f6c65200000000000000000000000000000006017918401918201528351612582816028840160208801612e48565b01602801949350505050565b6001600160a01b0391909116815260200190565b60006001600160a01b03808816835280871660208401525060a060408301526125ce60a08301866124a7565b82810360608401526125e081866124a7565b905082810360808401526125f481856124e1565b98975050505050505050565b60006001600160a01b03808816835280871660208401525084604083015283606083015260a0608083015261263860a08301846124e1565b979650505050505050565b6000602082526108c760208301846124a7565b60006040825261266960408301856124a7565b828103602084015261267b81856124a7565b95945050505050565b901515815260200190565b90815260200190565b6001600160e01b031991909116815260200190565b6000602082526108c760208301846124e1565b60208082526034908201527f455243313135353a207472616e7366657220746f206e6f6e204552433131353560408201527f526563656976657220696d706c656d656e746572000000000000000000000000606082015260800190565b6020808252818101527f537472696e67733a20686578206c656e67746820696e73756666696369656e74604082015260600190565b60208082526028908201527f455243313135353a204552433131353552656365697665722072656a6563746560408201527f6420746f6b656e73000000000000000000000000000000000000000000000000606082015260800190565b60208082526014908201527f5061757361626c653a206e6f7420706175736564000000000000000000000000604082015260600190565b6020808252602b908201527f455243313135353a2062616c616e636520717565727920666f7220746865207a60408201527f65726f2061646472657373000000000000000000000000000000000000000000606082015260800190565b60208082526024908201527f455243313135353a206275726e20616d6f756e7420657863656564732062616c604082015263616e636560e01b606082015260800190565b6020808252602c908201527f455243313135355061757361626c653a20746f6b656e207472616e736665722060408201527f7768696c65207061757365640000000000000000000000000000000000000000606082015260800190565b60208082526029908201527f455243313135353a2063616c6c6572206973206e6f74206f776e6572206e6f7260408201527f20617070726f7665640000000000000000000000000000000000000000000000606082015260800190565b60208082526010908201527f5061757361626c653a2070617573656400000000000000000000000000000000604082015260600190565b60208082526025908201527f455243313135353a207472616e7366657220746f20746865207a65726f20616460408201527f6472657373000000000000000000000000000000000000000000000000000000606082015260800190565b60208082526032908201527f455243313135353a207472616e736665722063616c6c6572206973206e6f742060408201527f6f776e6572206e6f7220617070726f7665640000000000000000000000000000606082015260800190565b60208082526023908201527f455243313135353a206275726e2066726f6d20746865207a65726f206164647260408201526265737360e81b606082015260800190565b60208082526038908201527f455243313135355072657365744d696e7465725061757365723a206d7573742060408201527f68617665206d696e74657220726f6c6520746f206d696e740000000000000000606082015260800190565b6020808252602a908201527f455243313135353a20696e73756666696369656e742062616c616e636520666f60408201527f72207472616e7366657200000000000000000000000000000000000000000000606082015260800190565b6020808252603b908201527f455243313135355072657365744d696e7465725061757365723a206d7573742060408201527f686176652070617573657220726f6c6520746f20756e70617573650000000000606082015260800190565b60208082526039908201527f455243313135355072657365744d696e7465725061757365723a206d7573742060408201527f686176652070617573657220726f6c6520746f20706175736500000000000000606082015260800190565b60208082526029908201527f455243313135353a2073657474696e6720617070726f76616c2073746174757360408201527f20666f722073656c660000000000000000000000000000000000000000000000606082015260800190565b60208082526029908201527f455243313135353a206163636f756e747320616e6420696473206c656e67746860408201527f206d69736d617463680000000000000000000000000000000000000000000000606082015260800190565b60208082526028908201527f455243313135353a2069647320616e6420616d6f756e7473206c656e6774682060408201527f6d69736d61746368000000000000000000000000000000000000000000000000606082015260800190565b60208082526021908201527f455243313135353a206d696e7420746f20746865207a65726f206164647265736040820152607360f81b606082015260800190565b6020808252602f908201527f416363657373436f6e74726f6c3a2063616e206f6e6c792072656e6f756e636560408201527f20726f6c657320666f722073656c660000000000000000000000000000000000606082015260800190565b918252602082015260400190565b60405181810167ffffffffffffffff81118282101715612dce57612dce612ef7565b604052919050565b600067ffffffffffffffff821115612df057612df0612ef7565b5060209081020190565b60008219821115612e0d57612e0d612ee1565b500190565b6000816000190483118215151615612e2c57612e2c612ee1565b500290565b600082821015612e4357612e43612ee1565b500390565b60005b83811015612e63578181015183820152602001612e4b565b838111156105785750506000910152565b600081612e8357612e83612ee1565b506000190190565b600281046001821680612e9f57607f821691505b60208210811415612ec057634e487b7160e01b600052602260045260246000fd5b50919050565b6000600019821415612eda57612eda612ee1565b5060010190565b634e487b7160e01b600052601160045260246000fd5b634e487b7160e01b600052604160045260246000fd5b60e01c90565b600060443d1015612f23576107b3565b600481823e6308c379a0612f378251612f0d565b14612f41576107b3565b6040513d600319016004823e80513d67ffffffffffffffff8160248401118184111715612f7157505050506107b3565b82840192508251915080821115612f8b57505050506107b3565b503d83016020828401011115612fa3575050506107b3565b601f01601f1916810160200160405291505090565b6001600160e01b031981168114612fce57600080fd5b5056fea164736f6c6343000800000a",
  "linkReferences": {},
  "deployedLinkReferences": {}
}