{
  "_format": "hh-sol-artifact-1",
  "contractName": "ControlDeployer",
  "sourceName": "contracts/ControlDeployer.sol",
  "abi": [
    {
      "inputs": [],
      "stateMutability": "nonpayable",
      "type": "constructor"
    },
    {
      "anonymous": false,
      "inputs": [
        {
          "indexed": true,
          "internalType": "address",
          "name": "registry",
          "type": "address"
        },
        {
          "indexed": true,
          "internalType": "address",
          "name": "deployer",
          "type": "address"
        },
        {
          "indexed": true,
          "internalType": "address",
          "name": "control",
          "type": "address"
        }
      ],
      "name": "DeployedControl",
      "type": "event"
    },
    {
      "anonymous": false,
      "inputs": [
        {
          "indexed": true,
          "internalType": "bytes32",
          "name": "role",
          "type": "bytes32"
        },
        {
          "indexed": true,
          "internalType": "bytes32",
          "name": "previousAdminRole",
          "type": "bytes32"
        },
        {
          "indexed": true,
          "internalType": "bytes32",
          "name": "newAdminRole",
          "type": "bytes32"
        }
      ],
      "name": "RoleAdminChanged",
      "type": "event"
    },
    {
      "anonymous": false,
      "inputs": [
        {
          "indexed": true,
          "internalType": "bytes32",
          "name": "role",
          "type": "bytes32"
        },
        {
          "indexed": true,
          "internalType": "address",
          "name": "account",
          "type": "address"
        },
        {
          "indexed": true,
          "internalType": "address",
          "name": "sender",
          "type": "address"
        }
      ],
      "name": "RoleGranted",
      "type": "event"
    },
    {
      "anonymous": false,
      "inputs": [
        {
          "indexed": true,
          "internalType": "bytes32",
          "name": "role",
          "type": "bytes32"
        },
        {
          "indexed": true,
          "internalType": "address",
          "name": "account",
          "type": "address"
        },
        {
          "indexed": true,
          "internalType": "address",
          "name": "sender",
          "type": "address"
        }
      ],
      "name": "RoleRevoked",
      "type": "event"
    },
    {
      "inputs": [],
      "name": "DEFAULT_ADMIN_ROLE",
      "outputs": [
        {
          "internalType": "bytes32",
          "name": "",
          "type": "bytes32"
        }
      ],
      "stateMutability": "view",
      "type": "function"
    },
    {
      "inputs": [],
      "name": "REGISTRY_ROLE",
      "outputs": [
        {
          "internalType": "bytes32",
          "name": "",
          "type": "bytes32"
        }
      ],
      "stateMutability": "view",
      "type": "function"
    },
    {
      "inputs": [
        {
          "internalType": "uint256",
          "name": "nonce",
          "type": "uint256"
        },
        {
          "internalType": "address",
          "name": "deployer",
          "type": "address"
        },
        {
          "internalType": "string",
          "name": "uri",
          "type": "string"
        }
      ],
      "name": "deployControl",
      "outputs": [
        {
          "internalType": "address",
          "name": "control",
          "type": "address"
        }
      ],
      "stateMutability": "nonpayable",
      "type": "function"
    },
    {
      "inputs": [
        {
          "internalType": "bytes32",
          "name": "role",
          "type": "bytes32"
        }
      ],
      "name": "getRoleAdmin",
      "outputs": [
        {
          "internalType": "bytes32",
          "name": "",
          "type": "bytes32"
        }
      ],
      "stateMutability": "view",
      "type": "function"
    },
    {
      "inputs": [
        {
          "internalType": "bytes32",
          "name": "role",
          "type": "bytes32"
        },
        {
          "internalType": "address",
          "name": "account",
          "type": "address"
        }
      ],
      "name": "grantRole",
      "outputs": [],
      "stateMutability": "nonpayable",
      "type": "function"
    },
    {
      "inputs": [
        {
          "internalType": "bytes32",
          "name": "role",
          "type": "bytes32"
        },
        {
          "internalType": "address",
          "name": "account",
          "type": "address"
        }
      ],
      "name": "hasRole",
      "outputs": [
        {
          "internalType": "bool",
          "name": "",
          "type": "bool"
        }
      ],
      "stateMutability": "view",
      "type": "function"
    },
    {
      "inputs": [
        {
          "internalType": "bytes32",
          "name": "role",
          "type": "bytes32"
        },
        {
          "internalType": "address",
          "name": "account",
          "type": "address"
        }
      ],
      "name": "renounceRole",
      "outputs": [],
      "stateMutability": "nonpayable",
      "type": "function"
    },
    {
      "inputs": [
        {
          "internalType": "bytes32",
          "name": "role",
          "type": "bytes32"
        },
        {
          "internalType": "address",
          "name": "account",
          "type": "address"
        }
      ],
      "name": "revokeRole",
      "outputs": [],
      "stateMutability": "nonpayable",
      "type": "function"
    },
    {
      "inputs": [
        {
          "internalType": "bytes4",
          "name": "interfaceId",
          "type": "bytes4"
        }
      ],
      "name": "supportsInterface",
      "outputs": [
        {
          "internalType": "bool",
          "name": "",
          "type": "bool"
        }
      ],
      "stateMutability": "view",
      "type": "function"
    }
  ],
  "bytecode": "0x608060405234801561001057600080fd5b5061001c600033610021565b6100e1565b61002b828261002f565b5050565b61003982826100b4565b61002b576000828152602081815260408083206001600160a01b03851684529091529020805460ff191660011790556100706100dd565b6001600160a01b0316816001600160a01b0316837f2f8788117e7eff1d82e926ec794901d17c78024a50270940304540a733656f0d60405160405180910390a45050565b6000918252602082815260408084206001600160a01b0393909316845291905290205460ff1690565b3390565b613162806100f06000396000f3fe60806040523480156200001157600080fd5b5060043610620000b25760003560e01c806342f1e8791162000081578063a217fddf1162000063578063a217fddf146200015d578063ca282cb31462000167578063d547741f146200018d57620000b2565b806342f1e879146200013c57806391d14854146200014657620000b2565b806301ffc9a714620000b7578063248a9ca314620000e65780632f2ff15d146200010c57806336568abe1462000125575b600080fd5b620000ce620000c8366004620008ae565b620001a4565b604051620000dd919062000b00565b60405180910390f35b620000fd620000f736600462000867565b620001d4565b604051620000dd919062000b0b565b620001236200011d36600462000880565b620001e9565b005b620001236200013636600462000880565b6200021a565b620000fd62000270565b620000ce6200015736600462000880565b62000294565b620000fd620002bd565b6200017e62000178366004620008d8565b620002c2565b604051620000dd919062000ab5565b620001236200019e36600462000880565b6200041f565b60006001600160e01b03198216637965db0b60e01b1480620001cc5750620001cc8262000445565b90505b919050565b60009081526020819052604090206001015490565b620001f482620001d4565b6200020981620002036200045e565b62000462565b620002158383620004d1565b505050565b620002246200045e565b6001600160a01b0316816001600160a01b031614620002605760405162461bcd60e51b8152600401620002579062000c38565b60405180910390fd5b6200026c82826200055b565b5050565b7fc2979137d1774e40fe2638d355bf7a7b092be4c67f242aad1655e1e27f9df9cc81565b6000918252602082815260408084206001600160a01b0393909316845291905290205460ff1690565b600081565b600080620002cf6200045e565b9050620002fd7fc2979137d1774e40fe2638d355bf7a7b092be4c67f242aad1655e1e27f9df9cc8262000294565b6200031c5760405162461bcd60e51b8152600401620002579062000b5e565b600060405180602001620003309062000841565b601f1982820381018352601f909101166040819052620003599084908890889060200162000ac9565b60408051601f1981840301815290829052620003799291602001620009fd565b60405160208183030381529060405290506000828688604051602001620003a393929190620009cf565b604051602081830303815290604052805190602001209050620003c960008284620005e3565b9350836001600160a01b0316866001600160a01b0316846001600160a01b03167f42b7c3bcb4f81bdee60d3f586a6843ee1571f21e8bf0480af04e2c6418465b4760405160405180910390a45050509392505050565b6200042a82620001d4565b6200043981620002036200045e565b6200021583836200055b565b6001600160e01b031981166301ffc9a760e01b14919050565b3390565b6200046e828262000294565b6200026c5762000489816001600160a01b0316601462000666565b6200049683602062000666565b604051602001620004a992919062000a30565b60408051601f198184030181529082905262461bcd60e51b8252620002579160040162000b14565b620004dd828262000294565b6200026c576000828152602081815260408083206001600160a01b03851684529091529020805460ff19166001179055620005176200045e565b6001600160a01b0316816001600160a01b0316837f2f8788117e7eff1d82e926ec794901d17c78024a50270940304540a733656f0d60405160405180910390a45050565b62000567828262000294565b156200026c576000828152602081815260408083206001600160a01b03851684529091529020805460ff191690556200059f6200045e565b6001600160a01b0316816001600160a01b0316837ff6391f5c32d9c69d2a47ea670b442974b53935d1edc7fd64eb21e047a839171b60405160405180910390a45050565b60008084471015620006095760405162461bcd60e51b8152600401620002579062000c01565b82516200062a5760405162461bcd60e51b8152600401620002579062000b95565b8383516020850187f590506001600160a01b0381166200065e5760405162461bcd60e51b8152600401620002579062000bca565b949350505050565b606060006200067783600262000cb0565b6200068490600262000c95565b67ffffffffffffffff811115620006ab57634e487b7160e01b600052604160045260246000fd5b6040519080825280601f01601f191660200182016040528015620006d6576020820181803683370190505b509050600360fc1b816000815181106200070057634e487b7160e01b600052603260045260246000fd5b60200101906001600160f81b031916908160001a905350600f60fb1b816001815181106200073e57634e487b7160e01b600052603260045260246000fd5b60200101906001600160f81b031916908160001a90535060006200076484600262000cb0565b6200077190600162000c95565b90505b600181111562000818577f303132333435363738396162636465660000000000000000000000000000000085600f1660108110620007c257634e487b7160e01b600052603260045260246000fd5b1a60f81b828281518110620007e757634e487b7160e01b600052603260045260246000fd5b60200101906001600160f81b031916908160001a90535060049490941c93620008108162000d05565b905062000774565b5083156200083a5760405162461bcd60e51b8152600401620002579062000b29565b9392505050565b61240a8062000d4c83390190565b80356001600160a01b0381168114620001cf57600080fd5b60006020828403121562000879578081fd5b5035919050565b6000806040838503121562000893578081fd5b82359150620008a5602084016200084f565b90509250929050565b600060208284031215620008c0578081fd5b81356001600160e01b0319811681146200083a578182fd5b600080600060608486031215620008ed578081fd5b833592506020620009008186016200084f565b9250604085013567ffffffffffffffff808211156200091d578384fd5b818701915087601f83011262000931578384fd5b81358181111562000946576200094662000d35565b604051601f8201601f19168101850183811182821017156200096c576200096c62000d35565b60405281815283820185018a101562000983578586fd5b81858501868301378585838301015280955050505050509250925092565b60008151808452620009bb81602086016020860162000cd2565b601f01601f19169290920160200192915050565b6bffffffffffffffffffffffff19606094851b811682529290931b9091166014830152602882015260480190565b6000835162000a1181846020880162000cd2565b83519083019062000a2781836020880162000cd2565b01949350505050565b60007f416363657373436f6e74726f6c3a206163636f756e74200000000000000000008252835162000a6a81601785016020880162000cd2565b7f206973206d697373696e6720726f6c6520000000000000000000000000000000601791840191820152835162000aa981602884016020880162000cd2565b01602801949350505050565b6001600160a01b0391909116815260200190565b60006001600160a01b0380861683528085166020840152506060604083015262000af76060830184620009a1565b95945050505050565b901515815260200190565b90815260200190565b6000602082526200083a6020830184620009a1565b6020808252818101527f537472696e67733a20686578206c656e67746820696e73756666696369656e74604082015260600190565b60208082526010908201527f696e76616c696420726567697374727900000000000000000000000000000000604082015260600190565b6020808252818101527f437265617465323a2062797465636f6465206c656e677468206973207a65726f604082015260600190565b60208082526019908201527f437265617465323a204661696c6564206f6e206465706c6f7900000000000000604082015260600190565b6020808252601d908201527f437265617465323a20696e73756666696369656e742062616c616e6365000000604082015260600190565b6020808252602f908201527f416363657373436f6e74726f6c3a2063616e206f6e6c792072656e6f756e636560408201527f20726f6c657320666f722073656c660000000000000000000000000000000000606082015260800190565b6000821982111562000cab5762000cab62000d1f565b500190565b600081600019048311821515161562000ccd5762000ccd62000d1f565b500290565b60005b8381101562000cef57818101518382015260200162000cd5565b8381111562000cff576000848401525b50505050565b60008162000d175762000d1762000d1f565b506000190190565b634e487b7160e01b600052601160045260246000fd5b634e487b7160e01b600052604160045260246000fdfe60806040523480156200001157600080fd5b506040516200240a3803806200240a8339810160408190526200003491620002dd565b8051620000499060089060208401906200021a565b50600580546001600160a01b0385166001600160a01b03199182161790915560068054909116301790556200008060008362000089565b50505062000427565b620000a08282620000cc60201b62000ffc1760201c565b6000828152600160209081526040909120620000c79183906200100a620000dc821b17901c565b505050565b620000d88282620000fc565b5050565b6000620000f3836001600160a01b03841662000186565b90505b92915050565b620001088282620001d5565b620000d8576000828152602081815260408083206001600160a01b03851684529091529020805460ff1916600117905562000142620001fe565b6001600160a01b0316816001600160a01b0316837f2f8788117e7eff1d82e926ec794901d17c78024a50270940304540a733656f0d60405160405180910390a45050565b600062000194838362000202565b620001cc57508154600181810184556000848152602080822090930184905584548482528286019093526040902091909155620000f6565b506000620000f6565b6000918252602082815260408084206001600160a01b0393909316845291905290205460ff1690565b3390565b60009081526001919091016020526040902054151590565b8280546200022890620003d4565b90600052602060002090601f0160209004810192826200024c576000855562000297565b82601f106200026757805160ff191683800117855562000297565b8280016001018555821562000297579182015b82811115620002975782518255916020019190600101906200027a565b50620002a5929150620002a9565b5090565b5b80821115620002a55760008155600101620002aa565b80516001600160a01b0381168114620002d857600080fd5b919050565b600080600060608486031215620002f2578283fd5b620002fd84620002c0565b925060206200030e818601620002c0565b60408601519093506001600160401b03808211156200032b578384fd5b818701915087601f8301126200033f578384fd5b81518181111562000354576200035462000411565b604051601f8201601f19168101850183811182821017156200037a576200037a62000411565b60405281815283820185018a101562000391578586fd5b8592505b81831015620003b4578383018501518184018601529184019162000395565b81831115620003c557858583830101525b80955050505050509250925092565b600281046001821680620003e957607f821691505b602082108114156200040b57634e487b7160e01b600052602260045260246000fd5b50919050565b634e487b7160e01b600052604160045260246000fd5b611fd380620004376000396000f3fe608060405234801561001057600080fd5b50600436106101a25760003560e01c8063938e3d7b116100ee578063b9998a2411610097578063d547741f11610071578063d547741f14610349578063e8a3d4851461035c578063f2aab4b314610371578063fd967f4714610384576101a2565b8063b9998a2414610310578063c097b1fb14610323578063ca15c87314610336576101a2565b8063a217fddf116100c8578063a217fddf146102d5578063aca84175146102dd578063b0b6cc1a146102fd576101a2565b8063938e3d7b146102a757806396362d32146102ba578063a0042526146102cd576101a2565b80633b98a7df116101505780637b1039991161012a5780637b103999146102795780639010d07c1461028157806391d1485414610294576101a2565b80633b98a7df146102405780633fff7bf8146102535780634d81888514610266576101a2565b8063248a9ca311610181578063248a9ca3146101fa5780632f2ff15d1461021a57806336568abe1461022d576101a2565b80620fa9fb146101a757806301ffc9a7146101bc57806305e9ca9b146101e5575b600080fd5b6101ba6101b53660046118f0565b610399565b005b6101cf6101ca3660046119e2565b610882565b6040516101dc9190611ba3565b60405180910390f35b6101ed6108af565b6040516101dc9190611b1e565b61020d610208366004611985565b6108be565b6040516101dc9190611bae565b6101ba61022836600461199d565b6108d3565b6101ba61023b36600461199d565b6108fa565b6101ba61024e3660046118b8565b61091c565b61020d610261366004611985565b6109c3565b6101ba610274366004611928565b6109d5565b6101ed610a8f565b6101ed61028f3660046119c1565b610a9e565b6101cf6102a236600461199d565b610abf565b6101ba6102b5366004611a0a565b610ae8565b61020d6102c836600461193a565b610b1b565b6101ed610c01565b61020d610cb2565b6102f06102eb366004611985565b610cb7565b6040516101dc9190611b56565b6101ed61030b366004611985565b610dc2565b6101ba61031e3660046118b8565b610ddd565b6101ba61033136600461199d565b610e5a565b61020d610344366004611985565b610f0e565b6101ba61035736600461199d565b610f25565b610364610f2f565b6040516101dc9190611bb7565b6101ed61037f3660046118b8565b610fc1565b61038c610ff6565b6040516101dc9190611e8b565b6103a4600033610abf565b6103c95760405162461bcd60e51b81526004016103c090611c1f565b60405180910390fd5b600554604080516361d027b360e01b815290516001600160a01b0390921691839160009184916361d027b3916004808301926020929190829003018186803b15801561041457600080fd5b505afa158015610428573d6000803e3d6000fd5b505050506040513d601f19601f8201168201806040525081019061044c91906118d4565b90506000806001600160a01b0386166104665750476104e5565b6040516370a0823160e01b81526001600160a01b038516906370a0823190610492903090600401611b1e565b60206040518083038186803b1580156104aa57600080fd5b505afa1580156104be573d6000803e3d6000fd5b505050506040513d601f19601f820116820180604052508101906104e29190611a77565b90505b604051630e78de6f60e31b8152612710906001600160a01b038716906373c6f37890610515903090600401611b1e565b60206040518083038186803b15801561052d57600080fd5b505afa158015610541573d6000803e3d6000fd5b505050506040513d601f19601f820116820180604052508101906105659190611a77565b61056f9083611ee0565b6105799190611ec0565b91506105858282611eff565b90506001600160a01b0386166106e1576000876001600160a01b0316826040516105ae90610caf565b60006040518083038185875af1925050503d80600081146105eb576040519150601f19603f3d011682016040523d82523d6000602084013e6105f0565b606091505b50509050806106115760405162461bcd60e51b81526004016103c090611df7565b6000846001600160a01b03168460405161062a90610caf565b60006040518083038185875af1925050503d8060008114610667576040519150601f19603f3d011682016040523d82523d6000602084013e61066c565b606091505b505090508061068d5760405162461bcd60e51b81526004016103c090611c7c565b876001600160a01b0316896001600160a01b03167f080a49aa43b33f2f3fe14496cbedde2305f0cc484e98afb78e943cf9881adc8a85876040516106d2929190611b10565b60405180910390a35050610879565b836001600160a01b03166323b872dd6106f861101f565b89846040518463ffffffff1660e01b815260040161071893929190611b32565b602060405180830381600087803b15801561073257600080fd5b505af1158015610746573d6000803e3d6000fd5b505050506040513d601f19601f8201168201806040525081019061076a9190611965565b6107865760405162461bcd60e51b81526004016103c090611d63565b836001600160a01b03166323b872dd61079d61101f565b85856040518463ffffffff1660e01b81526004016107bd93929190611b32565b602060405180830381600087803b1580156107d757600080fd5b505af11580156107eb573d6000803e3d6000fd5b505050506040513d601f19601f8201168201806040525081019061080f9190611965565b61082b5760405162461bcd60e51b81526004016103c090611cc0565b856001600160a01b0316876001600160a01b03167f080a49aa43b33f2f3fe14496cbedde2305f0cc484e98afb78e943cf9881adc8a8385604051610870929190611b10565b60405180910390a35b50505050505050565b60006001600160e01b03198216635a05180f60e01b14806108a757506108a782611023565b90505b919050565b6006546001600160a01b031681565b60009081526020819052604090206001015490565b6108dd8282611048565b60008281526001602052604090206108f5908261100a565b505050565b610904828261106c565b60008281526001602052604090206108f590826110ae565b610927600033610abf565b6109435760405162461bcd60e51b81526004016103c090611c1f565b61094c816110c3565b6109685760405162461bcd60e51b81526004016103c090611d9a565b600680546001600160a01b0319166001600160a01b03831617905560405160009030907f55a6d5ecee94ad7f72b42efa05adae50807422b98f5c511cf7f0a0205b65b751906109b8908590611b1e565b60405180910390a350565b60036020526000908152604090205481565b6109e0600033610abf565b6109fc5760405162461bcd60e51b81526004016103c090611c1f565b610a05816110c3565b610a215760405162461bcd60e51b81526004016103c090611d9a565b6001600160a01b038281166000818152600460205260409081902080546001600160a01b03191693851693909317909255905130907f55a6d5ecee94ad7f72b42efa05adae50807422b98f5c511cf7f0a0205b65b75190610a83908590611b1e565b60405180910390a35050565b6005546001600160a01b031681565b6000828152600160205260408120610ab690836112ea565b90505b92915050565b6000918252602082815260408084206001600160a01b0393909316845291905290205460ff1690565b610af3600033610abf565b610b0f5760405162461bcd60e51b81526004016103c090611c1f565b6108f56008838361181f565b6000610b278133610abf565b610b435760405162461bcd60e51b81526004016103c090611c1f565b600082815260036020908152604091829020549151610b659291859101611b10565b6040516020818303038152906040528051906020012090506001600360008481526020019081526020016000206000828254610ba19190611ea8565b909155505060008181526002602052604080822080546001600160a01b0319166001600160a01b0387169081179091559051909183917ff0d0fe9ecd941ad0096a6b95e0998ddcd76ba6a240a106fef284fc2d4f0caa419190a392915050565b6007546000906001600160a01b0316610ca157600560009054906101000a90046001600160a01b03166001600160a01b031663f645d4f96040518163ffffffff1660e01b815260040160206040518083038186803b158015610c6257600080fd5b505afa158015610c76573d6000803e3d6000fd5b505050506040513d601f19601f82011682018060405250810190610c9a91906118d4565b9050610caf565b506007546001600160a01b03165b90565b600081565b6000818152600360205260409020546060908067ffffffffffffffff811115610cf057634e487b7160e01b600052604160045260246000fd5b604051908082528060200260200182016040528015610d19578160200160208202803683370190505b50915060005b81811015610dbb5760008185604051602001610d3c929190611b10565b60408051601f1981840301815291815281516020928301206000818152600290935291205485519192506001600160a01b031690859084908110610d9057634e487b7160e01b600052603260045260246000fd5b6001600160a01b039092166020928302919091019091015250610db4600182611ea8565b9050610d1f565b5050919050565b6002602052600090815260409020546001600160a01b031681565b610de8600033610abf565b610e045760405162461bcd60e51b81526004016103c090611c1f565b600780546001600160a01b0319166001600160a01b0383161790556040517f9d90a82ec1d038d4e13317a0eb136f9c65b7ed42156fc204ec4b7c4731e7395090610e4f908390611b1e565b60405180910390a150565b610e65600033610abf565b610e815760405162461bcd60e51b81526004016103c090611c1f565b6000828152600260205260409020546001600160a01b0316610eb55760405162461bcd60e51b81526004016103c090611d06565b60008281526002602052604080822080546001600160a01b0319166001600160a01b0385169081179091559051909184917ff0d0fe9ecd941ad0096a6b95e0998ddcd76ba6a240a106fef284fc2d4f0caa419190a35050565b60008181526001602052604081206108a7906112f6565b6109048282611301565b606060088054610f3e90611f5d565b80601f0160208091040260200160405190810160405280929190818152602001828054610f6a90611f5d565b8015610fb75780601f10610f8c57610100808354040283529160200191610fb7565b820191906000526020600020905b815481529060010190602001808311610f9a57829003601f168201915b5050505050905090565b6001600160a01b03808216600090815260046020526040812054909116806108a75750506006546001600160a01b03166108aa565b61271081565b6110068282611320565b5050565b6000610ab6836001600160a01b0384166113a5565b3390565b60006001600160e01b03198216637965db0b60e01b14806108a757506108a7826113ef565b611051826108be565b6110628161105d61101f565b611408565b6108f58383611320565b61107461101f565b6001600160a01b0316816001600160a01b0316146110a45760405162461bcd60e51b81526004016103c090611e2e565b611006828261146c565b6000610ab6836001600160a01b0384166114ef565b600554604080516361d027b360e01b8152905160009284926001600160a01b0391821692859285169163ce7c2ac29185916361d027b3916004808301926020929190829003018186803b15801561111957600080fd5b505afa15801561112d573d6000803e3d6000fd5b505050506040513d601f19601f8201168201806040525081019061115191906118d4565b6040518263ffffffff1660e01b815260040161116d9190611b1e565b60206040518083038186803b15801561118557600080fd5b505afa158015611199573d6000803e3d6000fd5b505050506040513d601f19601f820116820180604052508101906111bd9190611a77565b90506000836001600160a01b0316633a98ef396040518163ffffffff1660e01b815260040160206040518083038186803b1580156111fa57600080fd5b505afa15801561120e573d6000803e3d6000fd5b505050506040513d601f19601f820116820180604052508101906112329190611a77565b905060008161124361271085611ee0565b61124d9190611ec0565b604051630e78de6f60e31b8152909150600a9081906001600160a01b038716906373c6f37890611281903090600401611b1e565b60206040518083038186803b15801561129957600080fd5b505afa1580156112ad573d6000803e3d6000fd5b505050506040513d601f19601f820116820180604052508101906112d19190611a77565b6112db9190611eff565b90911015979650505050505050565b6000610ab6838361160c565b60006108a782611644565b61130a826108be565b6113168161105d61101f565b6108f5838361146c565b61132a8282610abf565b611006576000828152602081815260408083206001600160a01b03851684529091529020805460ff1916600117905561136161101f565b6001600160a01b0316816001600160a01b0316837f2f8788117e7eff1d82e926ec794901d17c78024a50270940304540a733656f0d60405160405180910390a45050565b60006113b18383611648565b6113e757508154600181810184556000848152602080822090930184905584548482528286019093526040902091909155610ab9565b506000610ab9565b6001600160e01b031981166301ffc9a760e01b14919050565b6114128282610abf565b6110065761142a816001600160a01b03166014611660565b611435836020611660565b604051602001611446929190611a8f565b60408051601f198184030181529082905262461bcd60e51b82526103c091600401611bb7565b6114768282610abf565b15611006576000828152602081815260408083206001600160a01b03851684529091529020805460ff191690556114ab61101f565b6001600160a01b0316816001600160a01b0316837ff6391f5c32d9c69d2a47ea670b442974b53935d1edc7fd64eb21e047a839171b60405160405180910390a45050565b60008181526001830160205260408120548015611602576000611513600183611eff565b855490915060009061152790600190611eff565b90508181146115a857600086600001828154811061155557634e487b7160e01b600052603260045260246000fd5b906000526020600020015490508087600001848154811061158657634e487b7160e01b600052603260045260246000fd5b6000918252602080832090910192909255918252600188019052604090208390555b85548690806115c757634e487b7160e01b600052603160045260246000fd5b600190038181906000526020600020016000905590558560010160008681526020019081526020016000206000905560019350505050610ab9565b6000915050610ab9565b600082600001828154811061163157634e487b7160e01b600052603260045260246000fd5b9060005260206000200154905092915050565b5490565b60009081526001919091016020526040902054151590565b6060600061166f836002611ee0565b61167a906002611ea8565b67ffffffffffffffff8111156116a057634e487b7160e01b600052604160045260246000fd5b6040519080825280601f01601f1916602001820160405280156116ca576020820181803683370190505b509050600360fc1b816000815181106116f357634e487b7160e01b600052603260045260246000fd5b60200101906001600160f81b031916908160001a905350600f60fb1b8160018151811061173057634e487b7160e01b600052603260045260246000fd5b60200101906001600160f81b031916908160001a9053506000611754846002611ee0565b61175f906001611ea8565b90505b6001811115611800577f303132333435363738396162636465660000000000000000000000000000000085600f16601081106117ae57634e487b7160e01b600052603260045260246000fd5b1a60f81b8282815181106117d257634e487b7160e01b600052603260045260246000fd5b60200101906001600160f81b031916908160001a90535060049490941c936117f981611f46565b9050611762565b508315610ab65760405162461bcd60e51b81526004016103c090611bea565b82805461182b90611f5d565b90600052602060002090601f01602090048101928261184d5760008555611893565b82601f106118665782800160ff19823516178555611893565b82800160010185558215611893579182015b82811115611893578235825591602001919060010190611878565b5061189f9291506118a3565b5090565b5b8082111561189f57600081556001016118a4565b6000602082840312156118c9578081fd5b8135610ab681611fae565b6000602082840312156118e5578081fd5b8151610ab681611fae565b60008060408385031215611902578081fd5b823561190d81611fae565b9150602083013561191d81611fae565b809150509250929050565b60008060408385031215611902578182fd5b6000806040838503121561194c578182fd5b823561195781611fae565b946020939093013593505050565b600060208284031215611976578081fd5b81518015158114610ab6578182fd5b600060208284031215611996578081fd5b5035919050565b600080604083850312156119af578182fd5b82359150602083013561191d81611fae565b600080604083850312156119d3578182fd5b50508035926020909101359150565b6000602082840312156119f3578081fd5b81356001600160e01b031981168114610ab6578182fd5b60008060208385031215611a1c578182fd5b823567ffffffffffffffff80821115611a33578384fd5b818501915085601f830112611a46578384fd5b813581811115611a54578485fd5b866020828501011115611a65578485fd5b60209290920196919550909350505050565b600060208284031215611a88578081fd5b5051919050565b60007f416363657373436f6e74726f6c3a206163636f756e742000000000000000000082528351611ac7816017850160208801611f16565b7f206973206d697373696e6720726f6c65200000000000000000000000000000006017918401918201528351611b04816028840160208801611f16565b01602801949350505050565b918252602082015260400190565b6001600160a01b0391909116815260200190565b6001600160a01b039384168152919092166020820152604081019190915260600190565b6020808252825182820181905260009190848201906040850190845b81811015611b975783516001600160a01b031683529284019291840191600101611b72565b50909695505050505050565b901515815260200190565b90815260200190565b6000602082528251806020840152611bd6816040850160208701611f16565b601f01601f19169190910160400192915050565b6020808252818101527f537472696e67733a20686578206c656e67746820696e73756666696369656e74604082015260600190565b6020808252603d908201527f50726f746f636f6c436f6e74726f6c3a204f6e6c792070726f746f636f6c206160408201527f646d696e732063616e2063616c6c20746869732066756e6374696f6e2e000000606082015260800190565b60208082526024908201527f6661696c656420746f2077697468647261772066756e647320746f20726567696040820152637374727960e01b606082015260800190565b60208082526026908201527f6661696c656420746f207472616e73666572207061796d656e7420746f20726560408201526567697374727960d01b606082015260800190565b60208082526036908201527f50726f746f636f6c436f6e74726f6c3a2061206d6f64756c652077697468207460408201527f68697320494420646f6573206e6f742065786973742e00000000000000000000606082015260800190565b6020808252601a908201527f6661696c656420746f207472616e73666572207061796d656e74000000000000604082015260600190565b60208082526029908201527f50726f746f636f6c436f6e74726f6c3a2070726f76696465722073686172657360408201527f20746f6f206c6f772e0000000000000000000000000000000000000000000000606082015260800190565b60208082526018908201527f6661696c656420746f2077697468647261772066756e64730000000000000000604082015260600190565b6020808252602f908201527f416363657373436f6e74726f6c3a2063616e206f6e6c792072656e6f756e636560408201527f20726f6c657320666f722073656c660000000000000000000000000000000000606082015260800190565b6fffffffffffffffffffffffffffffffff91909116815260200190565b60008219821115611ebb57611ebb611f98565b500190565b600082611edb57634e487b7160e01b81526012600452602481fd5b500490565b6000816000190483118215151615611efa57611efa611f98565b500290565b600082821015611f1157611f11611f98565b500390565b60005b83811015611f31578181015183820152602001611f19565b83811115611f40576000848401525b50505050565b600081611f5557611f55611f98565b506000190190565b600281046001821680611f7157607f821691505b60208210811415611f9257634e487b7160e01b600052602260045260246000fd5b50919050565b634e487b7160e01b600052601160045260246000fd5b6001600160a01b0381168114611fc357600080fd5b5056fea164736f6c6343000800000aa164736f6c6343000800000a",
  "linkReferences": {},
  "deployedLinkReferences": {}
}