{
  "_format": "hh-sol-artifact-1",
  "contractName": "NFT_PL",
  "sourceName": "contracts/permissionless/NFT_PL.sol",
  "abi": [
    {
      "inputs": [
        {
          "internalType": "address payable",
          "name": "_controlCenter",
          "type": "address"
        },
        {
          "internalType": "string",
          "name": "_name",
          "type": "string"
        },
        {
          "internalType": "string",
          "name": "_symbol",
          "type": "string"
        },
        {
          "internalType": "address",
          "name": "_trustedForwarder",
          "type": "address"
        },
        {
          "internalType": "string",
          "name": "_uri",
          "type": "string"
        }
      ],
      "stateMutability": "nonpayable",
      "type": "constructor"
    },
    {
      "anonymous": false,
      "inputs": [
        {
          "indexed": true,
          "internalType": "address",
          "name": "owner",
          "type": "address"
        },
        {
          "indexed": true,
          "internalType": "address",
          "name": "approved",
          "type": "address"
        },
        {
          "indexed": true,
          "internalType": "uint256",
          "name": "tokenId",
          "type": "uint256"
        }
      ],
      "name": "Approval",
      "type": "event"
    },
    {
      "anonymous": false,
      "inputs": [
        {
          "indexed": true,
          "internalType": "address",
          "name": "owner",
          "type": "address"
        },
        {
          "indexed": true,
          "internalType": "address",
          "name": "operator",
          "type": "address"
        },
        {
          "indexed": false,
          "internalType": "bool",
          "name": "approved",
          "type": "bool"
        }
      ],
      "name": "ApprovalForAll",
      "type": "event"
    },
    {
      "anonymous": false,
      "inputs": [
        {
          "indexed": true,
          "internalType": "address",
          "name": "creator",
          "type": "address"
        },
        {
          "indexed": true,
          "internalType": "address",
          "name": "to",
          "type": "address"
        },
        {
          "indexed": false,
          "internalType": "uint256",
          "name": "tokenId",
          "type": "uint256"
        },
        {
          "indexed": false,
          "internalType": "string",
          "name": "tokenURI",
          "type": "string"
        }
      ],
      "name": "Minted",
      "type": "event"
    },
    {
      "anonymous": false,
      "inputs": [
        {
          "indexed": true,
          "internalType": "address",
          "name": "creator",
          "type": "address"
        },
        {
          "indexed": true,
          "internalType": "address",
          "name": "to",
          "type": "address"
        },
        {
          "indexed": false,
          "internalType": "uint256[]",
          "name": "tokenIds",
          "type": "uint256[]"
        },
        {
          "indexed": false,
          "internalType": "string[]",
          "name": "tokenURI",
          "type": "string[]"
        }
      ],
      "name": "MintedBatch",
      "type": "event"
    },
    {
      "anonymous": false,
      "inputs": [
        {
          "indexed": false,
          "internalType": "address",
          "name": "account",
          "type": "address"
        }
      ],
      "name": "Paused",
      "type": "event"
    },
    {
      "anonymous": false,
      "inputs": [
        {
          "indexed": true,
          "internalType": "bytes32",
          "name": "role",
          "type": "bytes32"
        },
        {
          "indexed": true,
          "internalType": "bytes32",
          "name": "previousAdminRole",
          "type": "bytes32"
        },
        {
          "indexed": true,
          "internalType": "bytes32",
          "name": "newAdminRole",
          "type": "bytes32"
        }
      ],
      "name": "RoleAdminChanged",
      "type": "event"
    },
    {
      "anonymous": false,
      "inputs": [
        {
          "indexed": true,
          "internalType": "bytes32",
          "name": "role",
          "type": "bytes32"
        },
        {
          "indexed": true,
          "internalType": "address",
          "name": "account",
          "type": "address"
        },
        {
          "indexed": true,
          "internalType": "address",
          "name": "sender",
          "type": "address"
        }
      ],
      "name": "RoleGranted",
      "type": "event"
    },
    {
      "anonymous": false,
      "inputs": [
        {
          "indexed": true,
          "internalType": "bytes32",
          "name": "role",
          "type": "bytes32"
        },
        {
          "indexed": true,
          "internalType": "address",
          "name": "account",
          "type": "address"
        },
        {
          "indexed": true,
          "internalType": "address",
          "name": "sender",
          "type": "address"
        }
      ],
      "name": "RoleRevoked",
      "type": "event"
    },
    {
      "anonymous": false,
      "inputs": [
        {
          "indexed": false,
          "internalType": "uint256",
          "name": "royaltyBps",
          "type": "uint256"
        }
      ],
      "name": "RoyaltyUpdated",
      "type": "event"
    },
    {
      "anonymous": false,
      "inputs": [
        {
          "indexed": true,
          "internalType": "address",
          "name": "from",
          "type": "address"
        },
        {
          "indexed": true,
          "internalType": "address",
          "name": "to",
          "type": "address"
        },
        {
          "indexed": true,
          "internalType": "uint256",
          "name": "tokenId",
          "type": "uint256"
        }
      ],
      "name": "Transfer",
      "type": "event"
    },
    {
      "anonymous": false,
      "inputs": [
        {
          "indexed": false,
          "internalType": "address",
          "name": "account",
          "type": "address"
        }
      ],
      "name": "Unpaused",
      "type": "event"
    },
    {
      "inputs": [],
      "name": "DEFAULT_ADMIN_ROLE",
      "outputs": [
        {
          "internalType": "bytes32",
          "name": "",
          "type": "bytes32"
        }
      ],
      "stateMutability": "view",
      "type": "function"
    },
    {
      "inputs": [],
      "name": "MINTER_ROLE",
      "outputs": [
        {
          "internalType": "bytes32",
          "name": "",
          "type": "bytes32"
        }
      ],
      "stateMutability": "view",
      "type": "function"
    },
    {
      "inputs": [],
      "name": "PAUSER_ROLE",
      "outputs": [
        {
          "internalType": "bytes32",
          "name": "",
          "type": "bytes32"
        }
      ],
      "stateMutability": "view",
      "type": "function"
    },
    {
      "inputs": [],
      "name": "TRANSFER_ROLE",
      "outputs": [
        {
          "internalType": "bytes32",
          "name": "",
          "type": "bytes32"
        }
      ],
      "stateMutability": "view",
      "type": "function"
    },
    {
      "inputs": [],
      "name": "_contractURI",
      "outputs": [
        {
          "internalType": "string",
          "name": "",
          "type": "string"
        }
      ],
      "stateMutability": "view",
      "type": "function"
    },
    {
      "inputs": [
        {
          "internalType": "address",
          "name": "to",
          "type": "address"
        },
        {
          "internalType": "uint256",
          "name": "tokenId",
          "type": "uint256"
        }
      ],
      "name": "approve",
      "outputs": [],
      "stateMutability": "nonpayable",
      "type": "function"
    },
    {
      "inputs": [
        {
          "internalType": "address",
          "name": "owner",
          "type": "address"
        }
      ],
      "name": "balanceOf",
      "outputs": [
        {
          "internalType": "uint256",
          "name": "",
          "type": "uint256"
        }
      ],
      "stateMutability": "view",
      "type": "function"
    },
    {
      "inputs": [
        {
          "internalType": "uint256",
          "name": "tokenId",
          "type": "uint256"
        }
      ],
      "name": "burn",
      "outputs": [],
      "stateMutability": "nonpayable",
      "type": "function"
    },
    {
      "inputs": [],
      "name": "contractURI",
      "outputs": [
        {
          "internalType": "string",
          "name": "",
          "type": "string"
        }
      ],
      "stateMutability": "view",
      "type": "function"
    },
    {
      "inputs": [
        {
          "internalType": "uint256",
          "name": "tokenId",
          "type": "uint256"
        }
      ],
      "name": "getApproved",
      "outputs": [
        {
          "internalType": "address",
          "name": "",
          "type": "address"
        }
      ],
      "stateMutability": "view",
      "type": "function"
    },
    {
      "inputs": [
        {
          "internalType": "bytes32",
          "name": "role",
          "type": "bytes32"
        }
      ],
      "name": "getRoleAdmin",
      "outputs": [
        {
          "internalType": "bytes32",
          "name": "",
          "type": "bytes32"
        }
      ],
      "stateMutability": "view",
      "type": "function"
    },
    {
      "inputs": [
        {
          "internalType": "bytes32",
          "name": "role",
          "type": "bytes32"
        },
        {
          "internalType": "uint256",
          "name": "index",
          "type": "uint256"
        }
      ],
      "name": "getRoleMember",
      "outputs": [
        {
          "internalType": "address",
          "name": "",
          "type": "address"
        }
      ],
      "stateMutability": "view",
      "type": "function"
    },
    {
      "inputs": [
        {
          "internalType": "bytes32",
          "name": "role",
          "type": "bytes32"
        }
      ],
      "name": "getRoleMemberCount",
      "outputs": [
        {
          "internalType": "uint256",
          "name": "",
          "type": "uint256"
        }
      ],
      "stateMutability": "view",
      "type": "function"
    },
    {
      "inputs": [
        {
          "internalType": "bytes32",
          "name": "role",
          "type": "bytes32"
        },
        {
          "internalType": "address",
          "name": "account",
          "type": "address"
        }
      ],
      "name": "grantRole",
      "outputs": [],
      "stateMutability": "nonpayable",
      "type": "function"
    },
    {
      "inputs": [
        {
          "internalType": "bytes32",
          "name": "role",
          "type": "bytes32"
        },
        {
          "internalType": "address",
          "name": "account",
          "type": "address"
        }
      ],
      "name": "hasRole",
      "outputs": [
        {
          "internalType": "bool",
          "name": "",
          "type": "bool"
        }
      ],
      "stateMutability": "view",
      "type": "function"
    },
    {
      "inputs": [
        {
          "internalType": "address",
          "name": "owner",
          "type": "address"
        },
        {
          "internalType": "address",
          "name": "operator",
          "type": "address"
        }
      ],
      "name": "isApprovedForAll",
      "outputs": [
        {
          "internalType": "bool",
          "name": "",
          "type": "bool"
        }
      ],
      "stateMutability": "view",
      "type": "function"
    },
    {
      "inputs": [],
      "name": "isRestrictedTransfer",
      "outputs": [
        {
          "internalType": "bool",
          "name": "",
          "type": "bool"
        }
      ],
      "stateMutability": "view",
      "type": "function"
    },
    {
      "inputs": [
        {
          "internalType": "address",
          "name": "forwarder",
          "type": "address"
        }
      ],
      "name": "isTrustedForwarder",
      "outputs": [
        {
          "internalType": "bool",
          "name": "",
          "type": "bool"
        }
      ],
      "stateMutability": "view",
      "type": "function"
    },
    {
      "inputs": [
        {
          "internalType": "address",
          "name": "",
          "type": "address"
        }
      ],
      "name": "mint",
      "outputs": [],
      "stateMutability": "pure",
      "type": "function"
    },
    {
      "inputs": [
        {
          "internalType": "address",
          "name": "_to",
          "type": "address"
        },
        {
          "internalType": "string",
          "name": "_uri",
          "type": "string"
        }
      ],
      "name": "mintNFT",
      "outputs": [],
      "stateMutability": "nonpayable",
      "type": "function"
    },
    {
      "inputs": [
        {
          "internalType": "address",
          "name": "_to",
          "type": "address"
        },
        {
          "internalType": "string[]",
          "name": "_uris",
          "type": "string[]"
        }
      ],
      "name": "mintNFTBatch",
      "outputs": [],
      "stateMutability": "nonpayable",
      "type": "function"
    },
    {
      "inputs": [],
      "name": "name",
      "outputs": [
        {
          "internalType": "string",
          "name": "",
          "type": "string"
        }
      ],
      "stateMutability": "view",
      "type": "function"
    },
    {
      "inputs": [],
      "name": "nextTokenId",
      "outputs": [
        {
          "internalType": "uint256",
          "name": "",
          "type": "uint256"
        }
      ],
      "stateMutability": "view",
      "type": "function"
    },
    {
      "inputs": [
        {
          "internalType": "uint256",
          "name": "",
          "type": "uint256"
        }
      ],
      "name": "nftCreator",
      "outputs": [
        {
          "internalType": "address",
          "name": "",
          "type": "address"
        }
      ],
      "stateMutability": "view",
      "type": "function"
    },
    {
      "inputs": [
        {
          "internalType": "uint256",
          "name": "",
          "type": "uint256"
        }
      ],
      "name": "nftURI",
      "outputs": [
        {
          "internalType": "string",
          "name": "",
          "type": "string"
        }
      ],
      "stateMutability": "view",
      "type": "function"
    },
    {
      "inputs": [
        {
          "internalType": "uint256",
          "name": "tokenId",
          "type": "uint256"
        }
      ],
      "name": "ownerOf",
      "outputs": [
        {
          "internalType": "address",
          "name": "",
          "type": "address"
        }
      ],
      "stateMutability": "view",
      "type": "function"
    },
    {
      "inputs": [],
      "name": "pause",
      "outputs": [],
      "stateMutability": "nonpayable",
      "type": "function"
    },
    {
      "inputs": [],
      "name": "paused",
      "outputs": [
        {
          "internalType": "bool",
          "name": "",
          "type": "bool"
        }
      ],
      "stateMutability": "view",
      "type": "function"
    },
    {
      "inputs": [
        {
          "internalType": "bytes32",
          "name": "role",
          "type": "bytes32"
        },
        {
          "internalType": "address",
          "name": "account",
          "type": "address"
        }
      ],
      "name": "renounceRole",
      "outputs": [],
      "stateMutability": "nonpayable",
      "type": "function"
    },
    {
      "inputs": [
        {
          "internalType": "bytes32",
          "name": "role",
          "type": "bytes32"
        },
        {
          "internalType": "address",
          "name": "account",
          "type": "address"
        }
      ],
      "name": "revokeRole",
      "outputs": [],
      "stateMutability": "nonpayable",
      "type": "function"
    },
    {
      "inputs": [],
      "name": "royaltyBps",
      "outputs": [
        {
          "internalType": "uint256",
          "name": "",
          "type": "uint256"
        }
      ],
      "stateMutability": "view",
      "type": "function"
    },
    {
      "inputs": [
        {
          "internalType": "uint256",
          "name": "tokenId",
          "type": "uint256"
        },
        {
          "internalType": "uint256",
          "name": "salePrice",
          "type": "uint256"
        }
      ],
      "name": "royaltyInfo",
      "outputs": [
        {
          "internalType": "address",
          "name": "receiver",
          "type": "address"
        },
        {
          "internalType": "uint256",
          "name": "royaltyAmount",
          "type": "uint256"
        }
      ],
      "stateMutability": "view",
      "type": "function"
    },
    {
      "inputs": [
        {
          "internalType": "address",
          "name": "from",
          "type": "address"
        },
        {
          "internalType": "address",
          "name": "to",
          "type": "address"
        },
        {
          "internalType": "uint256",
          "name": "tokenId",
          "type": "uint256"
        }
      ],
      "name": "safeTransferFrom",
      "outputs": [],
      "stateMutability": "nonpayable",
      "type": "function"
    },
    {
      "inputs": [
        {
          "internalType": "address",
          "name": "from",
          "type": "address"
        },
        {
          "internalType": "address",
          "name": "to",
          "type": "address"
        },
        {
          "internalType": "uint256",
          "name": "tokenId",
          "type": "uint256"
        },
        {
          "internalType": "bytes",
          "name": "_data",
          "type": "bytes"
        }
      ],
      "name": "safeTransferFrom",
      "outputs": [],
      "stateMutability": "nonpayable",
      "type": "function"
    },
    {
      "inputs": [
        {
          "internalType": "address",
          "name": "operator",
          "type": "address"
        },
        {
          "internalType": "bool",
          "name": "approved",
          "type": "bool"
        }
      ],
      "name": "setApprovalForAll",
      "outputs": [],
      "stateMutability": "nonpayable",
      "type": "function"
    },
    {
      "inputs": [
        {
          "internalType": "string",
          "name": "_URI",
          "type": "string"
        }
      ],
      "name": "setContractURI",
      "outputs": [],
      "stateMutability": "nonpayable",
      "type": "function"
    },
    {
      "inputs": [
        {
          "internalType": "bool",
          "name": "_restrictedTransfer",
          "type": "bool"
        }
      ],
      "name": "setRestrictedTransfer",
      "outputs": [],
      "stateMutability": "nonpayable",
      "type": "function"
    },
    {
      "inputs": [
        {
          "internalType": "uint256",
          "name": "_royaltyBps",
          "type": "uint256"
        }
      ],
      "name": "setRoyaltyBps",
      "outputs": [],
      "stateMutability": "nonpayable",
      "type": "function"
    },
    {
      "inputs": [
        {
          "internalType": "bytes4",
          "name": "interfaceId",
          "type": "bytes4"
        }
      ],
      "name": "supportsInterface",
      "outputs": [
        {
          "internalType": "bool",
          "name": "",
          "type": "bool"
        }
      ],
      "stateMutability": "view",
      "type": "function"
    },
    {
      "inputs": [],
      "name": "symbol",
      "outputs": [
        {
          "internalType": "string",
          "name": "",
          "type": "string"
        }
      ],
      "stateMutability": "view",
      "type": "function"
    },
    {
      "inputs": [
        {
          "internalType": "uint256",
          "name": "index",
          "type": "uint256"
        }
      ],
      "name": "tokenByIndex",
      "outputs": [
        {
          "internalType": "uint256",
          "name": "",
          "type": "uint256"
        }
      ],
      "stateMutability": "view",
      "type": "function"
    },
    {
      "inputs": [
        {
          "internalType": "address",
          "name": "owner",
          "type": "address"
        },
        {
          "internalType": "uint256",
          "name": "index",
          "type": "uint256"
        }
      ],
      "name": "tokenOfOwnerByIndex",
      "outputs": [
        {
          "internalType": "uint256",
          "name": "",
          "type": "uint256"
        }
      ],
      "stateMutability": "view",
      "type": "function"
    },
    {
      "inputs": [
        {
          "internalType": "uint256",
          "name": "tokenId",
          "type": "uint256"
        }
      ],
      "name": "tokenURI",
      "outputs": [
        {
          "internalType": "string",
          "name": "",
          "type": "string"
        }
      ],
      "stateMutability": "view",
      "type": "function"
    },
    {
      "inputs": [],
      "name": "totalSupply",
      "outputs": [
        {
          "internalType": "uint256",
          "name": "",
          "type": "uint256"
        }
      ],
      "stateMutability": "view",
      "type": "function"
    },
    {
      "inputs": [
        {
          "internalType": "address",
          "name": "from",
          "type": "address"
        },
        {
          "internalType": "address",
          "name": "to",
          "type": "address"
        },
        {
          "internalType": "uint256",
          "name": "tokenId",
          "type": "uint256"
        }
      ],
      "name": "transferFrom",
      "outputs": [],
      "stateMutability": "nonpayable",
      "type": "function"
    },
    {
      "inputs": [],
      "name": "unpause",
      "outputs": [],
      "stateMutability": "nonpayable",
      "type": "function"
    }
  ],
  "bytecode": "0x60806040523480156200001157600080fd5b50604051620040ea380380620040ea833981016040819052620000349162000500565b8484848484818484838282816002908051906020019062000057929190620003af565b5080516200006d906003906020840190620003af565b5050600c805460ff191690555080516200008f90600e906020840190620003af565b50620000a66000620000a06200017b565b62000198565b620000c4600080516020620040ca833981519152620000a06200017b565b620000f37f65d7a28e3265b37a6474929f336521b332c1681b933f6cb9f3376673440d862a620000a06200017b565b5050600f80546001600160a01b03199081166001600160a01b039485161790915560108054909116928816929092179091555080516200013b906012906020840190620003af565b506200016b7f8502233096d909befbda0999bb8ea2f3a6be3c138b9fbf003752a4c8bce86f6c620000a06200017b565b5050505050505050505062000625565b600062000192620001db60201b620018751760201c565b90505b90565b620001af82826200021b60201b620018a31760201c565b6000828152600160209081526040909120620001d6918390620018b16200022b821b17901c565b505050565b6000620001e8336200024b565b15620001fe575060131936013560601c62000195565b620002136200025f60201b620018c61760201c565b905062000195565b62000227828262000263565b5050565b600062000242836001600160a01b038416620002ed565b90505b92915050565b600f546001600160a01b0390811691161490565b3390565b6200026f82826200033c565b62000227576000828152602081815260408083206001600160a01b03851684529091529020805460ff19166001179055620002a96200017b565b6001600160a01b0316816001600160a01b0316837f2f8788117e7eff1d82e926ec794901d17c78024a50270940304540a733656f0d60405160405180910390a45050565b6000620002fb83836200036e565b620003335750815460018181018455600084815260208082209093018490558454848252828601909352604090209190915562000245565b50600062000245565b6000600080516020620040ca8339815191528314806200024257506200024283836200038660201b620018ca1760201c565b60009081526001919091016020526040902054151590565b6000918252602082815260408084206001600160a01b0393909316845291905290205460ff1690565b828054620003bd90620005b9565b90600052602060002090601f016020900481019282620003e157600085556200042c565b82601f10620003fc57805160ff19168380011785556200042c565b828001600101855582156200042c579182015b828111156200042c5782518255916020019190600101906200040f565b506200043a9291506200043e565b5090565b5b808211156200043a57600081556001016200043f565b600082601f83011262000466578081fd5b81516001600160401b0380821115620004835762000483620005f6565b6040516020601f8401601f1916820181018381118382101715620004ab57620004ab620005f6565b6040528382528584018101871015620004c2578485fd5b8492505b83831015620004e55785830181015182840182015291820191620004c6565b83831115620004f657848185840101525b5095945050505050565b600080600080600060a0868803121562000518578081fd5b855162000525816200060c565b60208701519095506001600160401b038082111562000542578283fd5b6200055089838a0162000455565b9550604088015191508082111562000566578283fd5b6200057489838a0162000455565b94506060880151915062000588826200060c565b6080880151919350808211156200059d578283fd5b50620005ac8882890162000455565b9150509295509295909350565b600281046001821680620005ce57607f821691505b60208210811415620005f057634e487b7160e01b600052602260045260246000fd5b50919050565b634e487b7160e01b600052604160045260246000fd5b6001600160a01b03811681146200062257600080fd5b50565b613a9580620006356000396000f3fe608060405234801561001057600080fd5b506004361061030a5760003560e01c806370a082311161019c578063b88d4fde116100ee578063d547741f11610097578063e985e9c511610071578063e985e9c5146105e8578063eacabe14146105fb578063efe476871461060e5761030a565b8063d547741f146105c5578063e63ab1e9146105d8578063e8a3d485146105e05761030a565b8063c87b56dd116100c8578063c87b56dd14610597578063ca15c873146105aa578063d5391393146105bd5761030a565b8063b88d4fde14610574578063c0e7274014610587578063c63adb2b1461058f5761030a565b80639010d07c1161015057806395d89b411161012a57806395d89b4114610551578063a217fddf14610559578063a22cb465146105615761030a565b80639010d07c1461051857806391d148541461052b578063938e3d7b1461053e5761030a565b806383661b291161018157806383661b29146104f55780638456cb59146104fd5780638ba448c2146105055761030a565b806370a08231146104da57806375794a3c146104ed5761030a565b80632f2ff15d1161026057806349a33a2f116102095780635c975abb116101e35780635c975abb146104ac5780636352211e146104b45780636a627842146104c75761030a565b806349a33a2f146104735780634f6ccce714610486578063572b6c05146104995761030a565b80633f4ba83a1161023a5780633f4ba83a1461044557806342842e0e1461044d57806342966c68146104605761030a565b80632f2ff15d1461040c5780632f745c591461041f57806336568abe146104325761030a565b806318160ddd116102c257806323b872dd1161029c57806323b872dd146103c5578063248a9ca3146103d85780632a55205a146103eb5761030a565b806318160ddd146103955780631f72d831146103aa578063206b60f9146103bd5761030a565b8063081812fc116102f3578063081812fc1461034d578063095ea7b31461036d5780630ef37448146103825761030a565b806301ffc9a71461030f57806306fdde0314610338575b600080fd5b61032261031d366004612cbd565b610621565b60405161032f9190612f73565b60405180910390f35b61034061064f565b60405161032f9190612f9e565b61036061035b366004612c4a565b6106e2565b60405161032f9190612e3c565b61038061037b366004612be9565b61072e565b005b610360610390366004612c4a565b6107c6565b61039d6107e1565b60405161032f9190612f7e565b6103806103b8366004612c4a565b6107e7565b61039d610a83565b6103806103d33660046129db565b610aa7565b61039d6103e6366004612c4a565b610adf565b6103fe6103f9366004612c9c565b610af4565b60405161032f929190612e8c565b61038061041a366004612c7a565b610bb5565b61039d61042d366004612be9565b610bd7565b610380610440366004612c7a565b610c2c565b610380610c4e565b61038061045b3660046129db565b610ca0565b61038061046e366004612c4a565b610cbb565b610380610481366004612ae2565b610cee565b61039d610494366004612c4a565b610f71565b6103226104a7366004612998565b610fcc565b610322610fe0565b6103606104c2366004612c4a565b610fe9565b6103806104d5366004612998565b61101e565b61039d6104e8366004612998565b611036565b61039d61107a565b610322611080565b610380611090565b610380610513366004612c12565b6110e0565b610360610526366004612c9c565b61122f565b610322610539366004612c7a565b61124e565b61038061054c366004612cf5565b611283565b6103406113a5565b61039d6113b4565b61038061056f366004612b62565b6113b9565b610380610582366004612a16565b611487565b6103406114c6565b61039d611554565b6103406105a5366004612c4a565b61155a565b61039d6105b8366004612c4a565b6115fc565b61039d611613565b6103806105d3366004612c7a565b611637565b61039d611641565b610340611665565b6103226105f63660046129b2565b611674565b610380610609366004612b98565b6116a2565b61034061061c366004612c4a565b61185c565b600061062c826118f3565b8061064757506001600160e01b0319821663152a902d60e11b145b90505b919050565b60606002805461065e906139e2565b80601f016020809104026020016040519081016040528092919081815260200182805461068a906139e2565b80156106d75780601f106106ac576101008083540402835291602001916106d7565b820191906000526020600020905b8154815290600101906020018083116106ba57829003601f168201915b505050505090505b90565b60006106ed826118fe565b6107125760405162461bcd60e51b81526004016107099061351f565b60405180910390fd5b506000908152600660205260409020546001600160a01b031690565b600061073982610fe9565b9050806001600160a01b0316836001600160a01b0316141561076d5760405162461bcd60e51b815260040161070990613625565b806001600160a01b031661077f61191b565b6001600160a01b0316148061079b575061079b816105f661191b565b6107b75760405162461bcd60e51b8152600401610709906132c6565b6107c1838361192a565b505050565b6014602052600090815260409020546001600160a01b031681565b600a5490565b60105460408051634a32c6bf60e11b815290516001600160a01b03909216916391d148549183916394658d7e91600480820192602092909190829003018186803b15801561083457600080fd5b505afa158015610848573d6000803e3d6000fd5b505050506040513d601f19601f8201168201806040525081019061086c9190612c62565b61087461191b565b6040518363ffffffff1660e01b8152600401610891929190612f87565b60206040518083038186803b1580156108a957600080fd5b505afa1580156108bd573d6000803e3d6000fd5b505050506040513d601f19601f820116820180604052508101906108e19190612c2e565b6108fd5760405162461bcd60e51b8152600401610709906135c8565b601060009054906101000a90046001600160a01b03166001600160a01b0316635cd423156040518163ffffffff1660e01b815260040160206040518083038186803b15801561094b57600080fd5b505afa15801561095f573d6000803e3d6000fd5b505050506040513d601f19601f820116820180604052508101906109839190612d35565b601060009054906101000a90046001600160a01b03166001600160a01b031663fd967f476040518163ffffffff1660e01b815260040160206040518083038186803b1580156109d157600080fd5b505afa1580156109e5573d6000803e3d6000fd5b505050506040513d601f19601f82011682018060405250810190610a099190612d35565b610a1391906138fd565b6fffffffffffffffffffffffffffffffff168110610a435760405162461bcd60e51b81526004016107099061377d565b60158190556040517f244ea8d7627f5a08f4299862bd5a45752842c183aee5b0fb0d1e4887bfa605b390610a78908390612f7e565b60405180910390a150565b7f8502233096d909befbda0999bb8ea2f3a6be3c138b9fbf003752a4c8bce86f6c81565b610ab8610ab261191b565b82611998565b610ad45760405162461bcd60e51b815260040161070990613666565b6107c1838383611a1d565b60009081526020819052604090206001015490565b600082815260146020908152604080832054601054825163fd967f4760e01b815292516001600160a01b039283169594919092169263fd967f479260048083019392829003018186803b158015610b4a57600080fd5b505afa158015610b5e573d6000803e3d6000fd5b505050506040513d601f19601f82011682018060405250810190610b829190612d35565b6fffffffffffffffffffffffffffffffff1660155484610ba29190613969565b610bac9190613949565b90509250929050565b610bbf8282611b4a565b60008281526001602052604090206107c190826118b1565b6000610be283611036565b8210610c005760405162461bcd60e51b81526004016107099061307a565b506001600160a01b03821660009081526008602090815260408083208484529091529020545b92915050565b610c368282611b6e565b60008281526001602052604090206107c19082611bb0565b610c7a7f65d7a28e3265b37a6474929f336521b332c1681b933f6cb9f3376673440d862a61053961191b565b610c965760405162461bcd60e51b8152600401610709906137da565b610c9e611bc5565b565b6107c183838360405180602001604052806000815250611487565b610cc6610ab261191b565b610ce25760405162461bcd60e51b815260040161070990613720565b610ceb81611c33565b50565b601060009054906101000a90046001600160a01b03166001600160a01b0316639d2f83f06040518163ffffffff1660e01b815260040160206040518083038186803b158015610d3c57600080fd5b505afa158015610d50573d6000803e3d6000fd5b505050506040513d601f19601f82011682018060405250810190610d749190612c2e565b15610d915760405162461bcd60e51b8152600401610709906133dd565b610dbd7f9f2df0fed2c77648de5860a4cc508cd0818c85b8b8a1ab4ceeef8d981c8956a661053961191b565b610dd95760405162461bcd60e51b8152600401610709906134dd565b60008167ffffffffffffffff811115610e0257634e487b7160e01b600052604160045260246000fd5b604051908082528060200260200182016040528015610e2b578160200160208202803683370190505b506011549091506000610e3c61191b565b905060005b84811015610f125782848281518110610e6a57634e487b7160e01b600052603260045260246000fd5b602002602001018181525050858582818110610e9657634e487b7160e01b600052603260045260246000fd5b9050602002810190610ea891906138b8565b6000858152601360205260409020610ec19290916128a1565b50600083815260146020526040902080546001600160a01b0319166001600160a01b038416179055610ef38784611cda565b610efe600184613931565b925080610f0a81613a1d565b915050610e41565b5081601181905550856001600160a01b0316816001600160a01b03167f2a7af4d3b262c3e3d51c600cdf7a940c9aba3fedcc85148aeda266cc4c4a2f33858888604051610f6193929190612ea5565b60405180910390a3505050505050565b6000610f7b6107e1565b8210610f995760405162461bcd60e51b8152600401610709906136c3565b600a8281548110610fba57634e487b7160e01b600052603260045260246000fd5b90600052602060002001549050919050565b600f546001600160a01b0390811691161490565b600c5460ff1690565b6000818152600460205260408120546001600160a01b0316806106475760405162461bcd60e51b815260040161070990613380565b60405162461bcd60e51b815260040161070990613471565b60006001600160a01b03821661105e5760405162461bcd60e51b815260040161070990613323565b506001600160a01b031660009081526005602052604090205490565b60115481565b600f54600160a01b900460ff1681565b6110bc7f65d7a28e3265b37a6474929f336521b332c1681b933f6cb9f3376673440d862a61053961191b565b6110d85760405162461bcd60e51b81526004016107099061316b565b610c9e611db9565b60105460408051634a32c6bf60e11b815290516001600160a01b03909216916391d148549183916394658d7e91600480820192602092909190829003018186803b15801561112d57600080fd5b505afa158015611141573d6000803e3d6000fd5b505050506040513d601f19601f820116820180604052508101906111659190612c62565b61116d61191b565b6040518363ffffffff1660e01b815260040161118a929190612f87565b60206040518083038186803b1580156111a257600080fd5b505afa1580156111b6573d6000803e3d6000fd5b505050506040513d601f19601f820116820180604052508101906111da9190612c2e565b6111f65760405162461bcd60e51b8152600401610709906135c8565b600f8054911515600160a01b027fffffffffffffffffffffff00ffffffffffffffffffffffffffffffffffffffff909216919091179055565b60008281526001602052604081206112479083611e14565b9392505050565b60007f9f2df0fed2c77648de5860a4cc508cd0818c85b8b8a1ab4ceeef8d981c8956a6831480611247575061124783836118ca565b60105460408051634a32c6bf60e11b815290516001600160a01b03909216916391d148549183916394658d7e91600480820192602092909190829003018186803b1580156112d057600080fd5b505afa1580156112e4573d6000803e3d6000fd5b505050506040513d601f19601f820116820180604052508101906113089190612c62565b61131061191b565b6040518363ffffffff1660e01b815260040161132d929190612f87565b60206040518083038186803b15801561134557600080fd5b505afa158015611359573d6000803e3d6000fd5b505050506040513d601f19601f8201168201806040525081019061137d9190612c2e565b6113995760405162461bcd60e51b8152600401610709906135c8565b6107c1601283836128a1565b60606003805461065e906139e2565b600081565b6113c161191b565b6001600160a01b0316826001600160a01b031614156113f25760405162461bcd60e51b81526004016107099061320c565b80600760006113ff61191b565b6001600160a01b03908116825260208083019390935260409182016000908120918716808252919093529120805460ff19169215159290921790915561144361191b565b6001600160a01b03167f17307eab39ab6107e8899845ad3d59bd9653f200f220920489ca2b5937696c318360405161147b9190612f73565b60405180910390a35050565b61149861149261191b565b83611998565b6114b45760405162461bcd60e51b815260040161070990613666565b6114c084848484611e20565b50505050565b601280546114d3906139e2565b80601f01602080910402602001604051908101604052809291908181526020018280546114ff906139e2565b801561154c5780601f106115215761010080835404028352916020019161154c565b820191906000526020600020905b81548152906001019060200180831161152f57829003601f168201915b505050505081565b60155481565b6000818152601360205260409020805460609190611577906139e2565b80601f01602080910402602001604051908101604052809291908181526020018280546115a3906139e2565b80156115f05780601f106115c5576101008083540402835291602001916115f0565b820191906000526020600020905b8154815290600101906020018083116115d357829003601f168201915b50505050509050919050565b600081815260016020526040812061064790611e53565b7f9f2df0fed2c77648de5860a4cc508cd0818c85b8b8a1ab4ceeef8d981c8956a681565b610c368282611e5e565b7f65d7a28e3265b37a6474929f336521b332c1681b933f6cb9f3376673440d862a81565b60606012805461065e906139e2565b6001600160a01b03918216600090815260076020908152604080832093909416825291909152205460ff1690565b601060009054906101000a90046001600160a01b03166001600160a01b0316639d2f83f06040518163ffffffff1660e01b815260040160206040518083038186803b1580156116f057600080fd5b505afa158015611704573d6000803e3d6000fd5b505050506040513d601f19601f820116820180604052508101906117289190612c2e565b156117455760405162461bcd60e51b8152600401610709906133dd565b6117717f9f2df0fed2c77648de5860a4cc508cd0818c85b8b8a1ab4ceeef8d981c8956a661053961191b565b61178d5760405162461bcd60e51b8152600401610709906134dd565b60115460008181526013602052604090206117a99084846128a1565b506117b261191b565b600082815260146020526040902080546001600160a01b0319166001600160a01b03929092169190911790556117e88482611cda565b6001601160008282546117fb9190613931565b90915550506001600160a01b03841661181261191b565b6001600160a01b03167fafe8c5a4c36942a61550534b714a0076ab46ef8ef23e361572aad8b7ca2ac27d83868660405161184e93929190613895565b60405180910390a350505050565b601360205260009081526040902080546114d3906139e2565b600061188033610fcc565b15611894575060131936013560601c6106df565b61189c6118c6565b90506106df565b6118ad8282611e7d565b5050565b6000611247836001600160a01b038416611f02565b3390565b6000918252602082815260408084206001600160a01b0393909316845291905290205460ff1690565b600061064782611f4c565b6000908152600460205260409020546001600160a01b0316151590565b6000611925611875565b905090565b600081815260066020526040902080546001600160a01b0319166001600160a01b038416908117909155819061195f82610fe9565b6001600160a01b03167f8c5be1e5ebec7d5bd14f71427d1e84f3dd0314c0f7b2291e5b200ac8c7c3b92560405160405180910390a45050565b60006119a3826118fe565b6119bf5760405162461bcd60e51b815260040161070990613243565b60006119ca83610fe9565b9050806001600160a01b0316846001600160a01b03161480611a055750836001600160a01b03166119fa846106e2565b6001600160a01b0316145b80611a155750611a158185611674565b949350505050565b826001600160a01b0316611a3082610fe9565b6001600160a01b031614611a565760405162461bcd60e51b81526004016107099061356b565b6001600160a01b038216611a7c5760405162461bcd60e51b8152600401610709906131c8565b611a87838383611f71565b611a9260008261192a565b6001600160a01b0383166000908152600560205260408120805460019290611abb908490613988565b90915550506001600160a01b0382166000908152600560205260408120805460019290611ae9908490613931565b909155505060008181526004602052604080822080546001600160a01b0319166001600160a01b0386811691821790925591518493918716917fddf252ad1be2c89b69c2b068fc378daa952ba7f163c4a11628f55a4df523b3ef91a4505050565b611b5382610adf565b611b6481611b5f61191b565b612004565b6107c18383611e7d565b611b7661191b565b6001600160a01b0316816001600160a01b031614611ba65760405162461bcd60e51b815260040161070990613838565b6118ad8282612068565b6000611247836001600160a01b0384166120eb565b611bcd610fe0565b611be95760405162461bcd60e51b815260040161070990613043565b600c805460ff191690557f5db9ee0a495bf2e6ff9c91a7834c1ba4fdd244a5e8aa4e537bd38aeae4b073aa611c1c61191b565b604051611c299190612e3c565b60405180910390a1565b6000611c3e82610fe9565b9050611c4c81600084611f71565b611c5760008361192a565b6001600160a01b0381166000908152600560205260408120805460019290611c80908490613988565b909155505060008281526004602052604080822080546001600160a01b0319169055518391906001600160a01b038416907fddf252ad1be2c89b69c2b068fc378daa952ba7f163c4a11628f55a4df523b3ef908390a45050565b6001600160a01b038216611d005760405162461bcd60e51b8152600401610709906134a8565b611d09816118fe565b15611d265760405162461bcd60e51b815260040161070990613134565b611d3260008383611f71565b6001600160a01b0382166000908152600560205260408120805460019290611d5b908490613931565b909155505060008181526004602052604080822080546001600160a01b0319166001600160a01b03861690811790915590518392907fddf252ad1be2c89b69c2b068fc378daa952ba7f163c4a11628f55a4df523b3ef908290a45050565b611dc1610fe0565b15611dde5760405162461bcd60e51b81526004016107099061328f565b600c805460ff191660011790557f62e78cea01bee320cd4e420270b5ea74000d11b0c9f74754ebdbfc544b05a258611c1c61191b565b60006112478383612208565b611e2b848484611a1d565b611e3784848484612240565b6114c05760405162461bcd60e51b8152600401610709906130d7565b60006106478261235b565b611e6782610adf565b611e7381611b5f61191b565b6107c18383612068565b611e87828261124e565b6118ad576000828152602081815260408083206001600160a01b03851684529091529020805460ff19166001179055611ebe61191b565b6001600160a01b0316816001600160a01b0316837f2f8788117e7eff1d82e926ec794901d17c78024a50270940304540a733656f0d60405160405180910390a45050565b6000611f0e838361235f565b611f4457508154600181810184556000848152602080822090930184905584548482528286019093526040902091909155610c26565b506000610c26565b60006001600160e01b0319821663780e9d6360e01b1480610647575061064782612377565b611f7c8383836123b7565b600f54600160a01b900460ff16156107c157611fb87f8502233096d909befbda0999bb8ea2f3a6be3c138b9fbf003752a4c8bce86f6c8461124e565b80611fe85750611fe87f8502233096d909befbda0999bb8ea2f3a6be3c138b9fbf003752a4c8bce86f6c8361124e565b6107c15760405162461bcd60e51b815260040161070990613414565b61200e828261124e565b6118ad57612026816001600160a01b031660146123c2565b6120318360206123c2565b604051602001612042929190612dbb565b60408051601f198184030181529082905262461bcd60e51b825261070991600401612f9e565b612072828261124e565b156118ad576000828152602081815260408083206001600160a01b03851684529091529020805460ff191690556120a761191b565b6001600160a01b0316816001600160a01b0316837ff6391f5c32d9c69d2a47ea670b442974b53935d1edc7fd64eb21e047a839171b60405160405180910390a45050565b600081815260018301602052604081205480156121fe57600061210f600183613988565b855490915060009061212390600190613988565b90508181146121a457600086600001828154811061215157634e487b7160e01b600052603260045260246000fd5b906000526020600020015490508087600001848154811061218257634e487b7160e01b600052603260045260246000fd5b6000918252602080832090910192909255918252600188019052604090208390555b85548690806121c357634e487b7160e01b600052603160045260246000fd5b600190038181906000526020600020016000905590558560010160008681526020019081526020016000206000905560019350505050610c26565b6000915050610c26565b600082600001828154811061222d57634e487b7160e01b600052603260045260246000fd5b9060005260206000200154905092915050565b6000612254846001600160a01b0316612581565b1561235057836001600160a01b031663150b7a0261227061191b565b8786866040518563ffffffff1660e01b81526004016122929493929190612e50565b602060405180830381600087803b1580156122ac57600080fd5b505af19250505080156122dc575060408051601f3d908101601f191682019092526122d991810190612cd9565b60015b612336573d80801561230a576040519150601f19603f3d011682016040523d82523d6000602084013e61230f565b606091505b50805161232e5760405162461bcd60e51b8152600401610709906130d7565b805181602001fd5b6001600160e01b031916630a85bd0160e11b149050611a15565b506001949350505050565b5490565b60009081526001919091016020526040902054151590565b60006001600160e01b031982166380ac58cd60e01b14806123a857506001600160e01b03198216635b5e139f60e01b145b80610647575061064782612587565b6107c18383836125ac565b606060006123d1836002613969565b6123dc906002613931565b67ffffffffffffffff81111561240257634e487b7160e01b600052604160045260246000fd5b6040519080825280601f01601f19166020018201604052801561242c576020820181803683370190505b509050600360fc1b8160008151811061245557634e487b7160e01b600052603260045260246000fd5b60200101906001600160f81b031916908160001a905350600f60fb1b8160018151811061249257634e487b7160e01b600052603260045260246000fd5b60200101906001600160f81b031916908160001a90535060006124b6846002613969565b6124c1906001613931565b90505b6001811115612562577f303132333435363738396162636465660000000000000000000000000000000085600f166010811061251057634e487b7160e01b600052603260045260246000fd5b1a60f81b82828151811061253457634e487b7160e01b600052603260045260246000fd5b60200101906001600160f81b031916908160001a90535060049490941c9361255b816139cb565b90506124c4565b5083156112475760405162461bcd60e51b815260040161070990612fb1565b3b151590565b60006001600160e01b03198216635a05180f60e01b14806106475750610647826125dc565b6125b7838383612601565b6125bf610fe0565b156107c15760405162461bcd60e51b815260040161070990612fe6565b60006001600160e01b03198216637965db0b60e01b148061064757506106478261268a565b61260c8383836107c1565b6001600160a01b03831661262857612623816126a3565b61264b565b816001600160a01b0316836001600160a01b03161461264b5761264b83826126e7565b6001600160a01b0382166126675761266281612784565b6107c1565b826001600160a01b0316826001600160a01b0316146107c1576107c1828261285d565b6001600160e01b031981166301ffc9a760e01b14919050565b600a80546000838152600b60205260408120829055600182018355919091527fc65a7bb8d6351c1cf70c95a316cc6a92839c986682d98bc35f958f4883f9d2a80155565b600060016126f484611036565b6126fe9190613988565b600083815260096020526040902054909150808214612751576001600160a01b03841660009081526008602090815260408083208584528252808320548484528184208190558352600990915290208190555b5060009182526009602090815260408084208490556001600160a01b039094168352600881528383209183525290812055565b600a5460009061279690600190613988565b6000838152600b6020526040812054600a80549394509092849081106127cc57634e487b7160e01b600052603260045260246000fd5b9060005260206000200154905080600a83815481106127fb57634e487b7160e01b600052603260045260246000fd5b6000918252602080832090910192909255828152600b9091526040808220849055858252812055600a80548061284157634e487b7160e01b600052603160045260246000fd5b6001900381819060005260206000200160009055905550505050565b600061286883611036565b6001600160a01b039093166000908152600860209081526040808320868452825280832085905593825260099052919091209190915550565b8280546128ad906139e2565b90600052602060002090601f0160209004810192826128cf5760008555612915565b82601f106128e85782800160ff19823516178555612915565b82800160010185558215612915579182015b828111156129155782358255916020019190600101906128fa565b50612921929150612925565b5090565b5b808211156129215760008155600101612926565b80356001600160a01b038116811461064a57600080fd5b60008083601f840112612962578182fd5b50813567ffffffffffffffff811115612979578182fd5b60208301915083602082850101111561299157600080fd5b9250929050565b6000602082840312156129a9578081fd5b6112478261293a565b600080604083850312156129c4578081fd5b6129cd8361293a565b9150610bac6020840161293a565b6000806000606084860312156129ef578081fd5b6129f88461293a565b9250612a066020850161293a565b9150604084013590509250925092565b60008060008060808587031215612a2b578081fd5b612a348561293a565b93506020612a4381870161293a565b935060408601359250606086013567ffffffffffffffff80821115612a66578384fd5b818801915088601f830112612a79578384fd5b813581811115612a8b57612a8b613a4e565b604051601f8201601f1916810185018381118282101715612aae57612aae613a4e565b60405281815283820185018b1015612ac4578586fd5b81858501868301379081019093019390935250939692955090935050565b600080600060408486031215612af6578283fd5b612aff8461293a565b9250602084013567ffffffffffffffff80821115612b1b578384fd5b818601915086601f830112612b2e578384fd5b813581811115612b3c578485fd5b8760208083028501011115612b4f578485fd5b6020830194508093505050509250925092565b60008060408385031215612b74578182fd5b612b7d8361293a565b91506020830135612b8d81613a64565b809150509250929050565b600080600060408486031215612bac578283fd5b612bb58461293a565b9250602084013567ffffffffffffffff811115612bd0578283fd5b612bdc86828701612951565b9497909650939450505050565b60008060408385031215612bfb578182fd5b612c048361293a565b946020939093013593505050565b600060208284031215612c23578081fd5b813561124781613a64565b600060208284031215612c3f578081fd5b815161124781613a64565b600060208284031215612c5b578081fd5b5035919050565b600060208284031215612c73578081fd5b5051919050565b60008060408385031215612c8c578182fd5b82359150610bac6020840161293a565b60008060408385031215612cae578182fd5b50508035926020909101359150565b600060208284031215612cce578081fd5b813561124781613a72565b600060208284031215612cea578081fd5b815161124781613a72565b60008060208385031215612d07578182fd5b823567ffffffffffffffff811115612d1d578283fd5b612d2985828601612951565b90969095509350505050565b600060208284031215612d46578081fd5b81516fffffffffffffffffffffffffffffffff81168114611247578182fd5b60008151808452612d7d81602086016020860161399f565b601f01601f19169290920160200192915050565b60008284528282602086013780602084860101526020601f19601f85011685010190509392505050565b60007f416363657373436f6e74726f6c3a206163636f756e742000000000000000000082528351612df381601785016020880161399f565b7f206973206d697373696e6720726f6c65200000000000000000000000000000006017918401918201528351612e3081602884016020880161399f565b01602801949350505050565b6001600160a01b0391909116815260200190565b60006001600160a01b03808716835280861660208401525083604083015260806060830152612e826080830184612d65565b9695505050505050565b6001600160a01b03929092168252602082015260400190565b604080825284519082018190526000906020906060840190828801845b82811015612ede57815184529284019290840190600101612ec2565b505050838103828501528481528181018583028201830187855b88811015612f6457848303601f190184528135368b9003601e19018112612f1d578788fd5b8a01803567ffffffffffffffff811115612f35578889fd5b8036038c1315612f43578889fd5b612f5085828a8501612d91565b958801959450505090850190600101612ef8565b50909998505050505050505050565b901515815260200190565b90815260200190565b9182526001600160a01b0316602082015260400190565b6000602082526112476020830184612d65565b6020808252818101527f537472696e67733a20686578206c656e67746820696e73756666696369656e74604082015260600190565b6020808252602b908201527f4552433732315061757361626c653a20746f6b656e207472616e73666572207760408201527f68696c6520706175736564000000000000000000000000000000000000000000606082015260800190565b60208082526014908201527f5061757361626c653a206e6f7420706175736564000000000000000000000000604082015260600190565b6020808252602b908201527f455243373231456e756d657261626c653a206f776e657220696e646578206f7560408201527f74206f6620626f756e6473000000000000000000000000000000000000000000606082015260800190565b60208082526032908201527f4552433732313a207472616e7366657220746f206e6f6e20455243373231526560408201527f63656976657220696d706c656d656e7465720000000000000000000000000000606082015260800190565b6020808252601c908201527f4552433732313a20746f6b656e20616c7265616479206d696e74656400000000604082015260600190565b6020808252603e908201527f4552433732315072657365744d696e7465725061757365724175746f49643a2060408201527f6d75737420686176652070617573657220726f6c6520746f2070617573650000606082015260800190565b60208082526024908201527f4552433732313a207472616e7366657220746f20746865207a65726f206164646040820152637265737360e01b606082015260800190565b60208082526019908201527f4552433732313a20617070726f766520746f2063616c6c657200000000000000604082015260600190565b6020808252602c908201527f4552433732313a206f70657261746f7220717565727920666f72206e6f6e657860408201526b34b9ba32b73a103a37b5b2b760a11b606082015260800190565b60208082526010908201527f5061757361626c653a2070617573656400000000000000000000000000000000604082015260600190565b60208082526038908201527f4552433732313a20617070726f76652063616c6c6572206973206e6f74206f7760408201527f6e6572206e6f7220617070726f76656420666f7220616c6c0000000000000000606082015260800190565b6020808252602a908201527f4552433732313a2062616c616e636520717565727920666f7220746865207a6560408201527f726f206164647265737300000000000000000000000000000000000000000000606082015260800190565b60208082526029908201527f4552433732313a206f776e657220717565727920666f72206e6f6e657869737460408201527f656e7420746f6b656e0000000000000000000000000000000000000000000000606082015260800190565b6020808252601c908201527f4e46543a205468652070726f746f636f6c206973207061757365642e00000000604082015260600190565b60208082526036908201527f4e46543a205472616e736665727320617265207265737472696374656420746f60408201527f205452414e534645525f524f4c4520686f6c6465727300000000000000000000606082015260800190565b6020808252601d908201527f4e46543732313a2043616c6c206d696e744e465420696e73746561642e000000604082015260600190565b6020808252818101527f4552433732313a206d696e7420746f20746865207a65726f2061646472657373604082015260600190565b60208082526022908201527f4e46543a206d7573742068617665206d696e74657220726f6c6520746f206d696040820152611b9d60f21b606082015260800190565b6020808252602c908201527f4552433732313a20617070726f76656420717565727920666f72206e6f6e657860408201526b34b9ba32b73a103a37b5b2b760a11b606082015260800190565b60208082526029908201527f4552433732313a207472616e73666572206f6620746f6b656e2074686174206960408201527f73206e6f74206f776e0000000000000000000000000000000000000000000000606082015260800190565b60208082526032908201527f4e46543a206f6e6c7920612070726f746f636f6c2061646d696e2063616e206360408201527f616c6c20746869732066756e6374696f6e2e0000000000000000000000000000606082015260800190565b60208082526021908201527f4552433732313a20617070726f76616c20746f2063757272656e74206f776e656040820152603960f91b606082015260800190565b60208082526031908201527f4552433732313a207472616e736665722063616c6c6572206973206e6f74206f60408201527f776e6572206e6f7220617070726f766564000000000000000000000000000000606082015260800190565b6020808252602c908201527f455243373231456e756d657261626c653a20676c6f62616c20696e646578206f60408201527f7574206f6620626f756e64730000000000000000000000000000000000000000606082015260800190565b60208082526030908201527f4552433732314275726e61626c653a2063616c6c6572206973206e6f74206f7760408201527f6e6572206e6f7220617070726f76656400000000000000000000000000000000606082015260800190565b60208082526029908201527f4e46543a204270732070726f7669646564206d757374206265206c657373207460408201527f68616e20392c3030300000000000000000000000000000000000000000000000606082015260800190565b602080825260409082018190527f4552433732315072657365744d696e7465725061757365724175746f49643a20908201527f6d75737420686176652070617573657220726f6c6520746f20756e7061757365606082015260800190565b6020808252602f908201527f416363657373436f6e74726f6c3a2063616e206f6e6c792072656e6f756e636560408201527f20726f6c657320666f722073656c660000000000000000000000000000000000606082015260800190565b6000848252604060208301526138af604083018486612d91565b95945050505050565b6000808335601e198436030181126138ce578283fd5b83018035915067ffffffffffffffff8211156138e8578283fd5b60200191503681900382131561299157600080fd5b60006fffffffffffffffffffffffffffffffff80831681851680830382111561392857613928613a38565b01949350505050565b6000821982111561394457613944613a38565b500190565b60008261396457634e487b7160e01b81526012600452602481fd5b500490565b600081600019048311821515161561398357613983613a38565b500290565b60008282101561399a5761399a613a38565b500390565b60005b838110156139ba5781810151838201526020016139a2565b838111156114c05750506000910152565b6000816139da576139da613a38565b506000190190565b6002810460018216806139f657607f821691505b60208210811415613a1757634e487b7160e01b600052602260045260246000fd5b50919050565b6000600019821415613a3157613a31613a38565b5060010190565b634e487b7160e01b600052601160045260246000fd5b634e487b7160e01b600052604160045260246000fd5b8015158114610ceb57600080fd5b6001600160e01b031981168114610ceb57600080fdfea164736f6c6343000800000a9f2df0fed2c77648de5860a4cc508cd0818c85b8b8a1ab4ceeef8d981c8956a6",
  "linkReferences": {},
  "deployedLinkReferences": {}
}