{
  "_format": "hh-sol-artifact-1",
  "contractName": "NFT_PL",
  "sourceName": "contracts/permissionless/NFT_PL.sol",
  "abi": [
    {
      "inputs": [
        {
          "internalType": "address payable",
          "name": "_controlCenter",
          "type": "address"
        },
        {
          "internalType": "string",
          "name": "_name",
          "type": "string"
        },
        {
          "internalType": "string",
          "name": "_symbol",
          "type": "string"
        },
        {
          "internalType": "address",
          "name": "_trustedForwarder",
          "type": "address"
        },
        {
          "internalType": "string",
          "name": "_uri",
          "type": "string"
        }
      ],
      "stateMutability": "nonpayable",
      "type": "constructor"
    },
    {
      "anonymous": false,
      "inputs": [
        {
          "indexed": true,
          "internalType": "address",
          "name": "owner",
          "type": "address"
        },
        {
          "indexed": true,
          "internalType": "address",
          "name": "approved",
          "type": "address"
        },
        {
          "indexed": true,
          "internalType": "uint256",
          "name": "tokenId",
          "type": "uint256"
        }
      ],
      "name": "Approval",
      "type": "event"
    },
    {
      "anonymous": false,
      "inputs": [
        {
          "indexed": true,
          "internalType": "address",
          "name": "owner",
          "type": "address"
        },
        {
          "indexed": true,
          "internalType": "address",
          "name": "operator",
          "type": "address"
        },
        {
          "indexed": false,
          "internalType": "bool",
          "name": "approved",
          "type": "bool"
        }
      ],
      "name": "ApprovalForAll",
      "type": "event"
    },
    {
      "anonymous": false,
      "inputs": [
        {
          "indexed": true,
          "internalType": "address",
          "name": "creator",
          "type": "address"
        },
        {
          "indexed": true,
          "internalType": "address",
          "name": "to",
          "type": "address"
        },
        {
          "indexed": false,
          "internalType": "uint256",
          "name": "tokenId",
          "type": "uint256"
        },
        {
          "indexed": false,
          "internalType": "string",
          "name": "tokenURI",
          "type": "string"
        }
      ],
      "name": "Minted",
      "type": "event"
    },
    {
      "anonymous": false,
      "inputs": [
        {
          "indexed": true,
          "internalType": "address",
          "name": "creator",
          "type": "address"
        },
        {
          "indexed": true,
          "internalType": "address",
          "name": "to",
          "type": "address"
        },
        {
          "indexed": false,
          "internalType": "uint256[]",
          "name": "tokenIds",
          "type": "uint256[]"
        },
        {
          "indexed": false,
          "internalType": "string[]",
          "name": "tokenURI",
          "type": "string[]"
        }
      ],
      "name": "MintedBatch",
      "type": "event"
    },
    {
      "anonymous": false,
      "inputs": [
        {
          "indexed": false,
          "internalType": "address",
          "name": "account",
          "type": "address"
        }
      ],
      "name": "Paused",
      "type": "event"
    },
    {
      "anonymous": false,
      "inputs": [
        {
          "indexed": true,
          "internalType": "bytes32",
          "name": "role",
          "type": "bytes32"
        },
        {
          "indexed": true,
          "internalType": "bytes32",
          "name": "previousAdminRole",
          "type": "bytes32"
        },
        {
          "indexed": true,
          "internalType": "bytes32",
          "name": "newAdminRole",
          "type": "bytes32"
        }
      ],
      "name": "RoleAdminChanged",
      "type": "event"
    },
    {
      "anonymous": false,
      "inputs": [
        {
          "indexed": true,
          "internalType": "bytes32",
          "name": "role",
          "type": "bytes32"
        },
        {
          "indexed": true,
          "internalType": "address",
          "name": "account",
          "type": "address"
        },
        {
          "indexed": true,
          "internalType": "address",
          "name": "sender",
          "type": "address"
        }
      ],
      "name": "RoleGranted",
      "type": "event"
    },
    {
      "anonymous": false,
      "inputs": [
        {
          "indexed": true,
          "internalType": "bytes32",
          "name": "role",
          "type": "bytes32"
        },
        {
          "indexed": true,
          "internalType": "address",
          "name": "account",
          "type": "address"
        },
        {
          "indexed": true,
          "internalType": "address",
          "name": "sender",
          "type": "address"
        }
      ],
      "name": "RoleRevoked",
      "type": "event"
    },
    {
      "anonymous": false,
      "inputs": [
        {
          "indexed": false,
          "internalType": "uint256",
          "name": "royaltyBps",
          "type": "uint256"
        }
      ],
      "name": "RoyaltyUpdated",
      "type": "event"
    },
    {
      "anonymous": false,
      "inputs": [
        {
          "indexed": true,
          "internalType": "address",
          "name": "from",
          "type": "address"
        },
        {
          "indexed": true,
          "internalType": "address",
          "name": "to",
          "type": "address"
        },
        {
          "indexed": true,
          "internalType": "uint256",
          "name": "tokenId",
          "type": "uint256"
        }
      ],
      "name": "Transfer",
      "type": "event"
    },
    {
      "anonymous": false,
      "inputs": [
        {
          "indexed": false,
          "internalType": "address",
          "name": "account",
          "type": "address"
        }
      ],
      "name": "Unpaused",
      "type": "event"
    },
    {
      "inputs": [],
      "name": "DEFAULT_ADMIN_ROLE",
      "outputs": [
        {
          "internalType": "bytes32",
          "name": "",
          "type": "bytes32"
        }
      ],
      "stateMutability": "view",
      "type": "function"
    },
    {
      "inputs": [],
      "name": "MINTER_ROLE",
      "outputs": [
        {
          "internalType": "bytes32",
          "name": "",
          "type": "bytes32"
        }
      ],
      "stateMutability": "view",
      "type": "function"
    },
    {
      "inputs": [],
      "name": "PAUSER_ROLE",
      "outputs": [
        {
          "internalType": "bytes32",
          "name": "",
          "type": "bytes32"
        }
      ],
      "stateMutability": "view",
      "type": "function"
    },
    {
      "inputs": [],
      "name": "TRANSFER_ROLE",
      "outputs": [
        {
          "internalType": "bytes32",
          "name": "",
          "type": "bytes32"
        }
      ],
      "stateMutability": "view",
      "type": "function"
    },
    {
      "inputs": [],
      "name": "_contractURI",
      "outputs": [
        {
          "internalType": "string",
          "name": "",
          "type": "string"
        }
      ],
      "stateMutability": "view",
      "type": "function"
    },
    {
      "inputs": [
        {
          "internalType": "address",
          "name": "to",
          "type": "address"
        },
        {
          "internalType": "uint256",
          "name": "tokenId",
          "type": "uint256"
        }
      ],
      "name": "approve",
      "outputs": [],
      "stateMutability": "nonpayable",
      "type": "function"
    },
    {
      "inputs": [
        {
          "internalType": "address",
          "name": "owner",
          "type": "address"
        }
      ],
      "name": "balanceOf",
      "outputs": [
        {
          "internalType": "uint256",
          "name": "",
          "type": "uint256"
        }
      ],
      "stateMutability": "view",
      "type": "function"
    },
    {
      "inputs": [
        {
          "internalType": "uint256",
          "name": "tokenId",
          "type": "uint256"
        }
      ],
      "name": "burn",
      "outputs": [],
      "stateMutability": "nonpayable",
      "type": "function"
    },
    {
      "inputs": [],
      "name": "contractURI",
      "outputs": [
        {
          "internalType": "string",
          "name": "",
          "type": "string"
        }
      ],
      "stateMutability": "view",
      "type": "function"
    },
    {
      "inputs": [
        {
          "internalType": "uint256",
          "name": "tokenId",
          "type": "uint256"
        }
      ],
      "name": "getApproved",
      "outputs": [
        {
          "internalType": "address",
          "name": "",
          "type": "address"
        }
      ],
      "stateMutability": "view",
      "type": "function"
    },
    {
      "inputs": [
        {
          "internalType": "bytes32",
          "name": "role",
          "type": "bytes32"
        }
      ],
      "name": "getRoleAdmin",
      "outputs": [
        {
          "internalType": "bytes32",
          "name": "",
          "type": "bytes32"
        }
      ],
      "stateMutability": "view",
      "type": "function"
    },
    {
      "inputs": [
        {
          "internalType": "bytes32",
          "name": "role",
          "type": "bytes32"
        },
        {
          "internalType": "uint256",
          "name": "index",
          "type": "uint256"
        }
      ],
      "name": "getRoleMember",
      "outputs": [
        {
          "internalType": "address",
          "name": "",
          "type": "address"
        }
      ],
      "stateMutability": "view",
      "type": "function"
    },
    {
      "inputs": [
        {
          "internalType": "bytes32",
          "name": "role",
          "type": "bytes32"
        }
      ],
      "name": "getRoleMemberCount",
      "outputs": [
        {
          "internalType": "uint256",
          "name": "",
          "type": "uint256"
        }
      ],
      "stateMutability": "view",
      "type": "function"
    },
    {
      "inputs": [
        {
          "internalType": "bytes32",
          "name": "role",
          "type": "bytes32"
        },
        {
          "internalType": "address",
          "name": "account",
          "type": "address"
        }
      ],
      "name": "grantRole",
      "outputs": [],
      "stateMutability": "nonpayable",
      "type": "function"
    },
    {
      "inputs": [
        {
          "internalType": "bytes32",
          "name": "role",
          "type": "bytes32"
        },
        {
          "internalType": "address",
          "name": "account",
          "type": "address"
        }
      ],
      "name": "hasRole",
      "outputs": [
        {
          "internalType": "bool",
          "name": "",
          "type": "bool"
        }
      ],
      "stateMutability": "view",
      "type": "function"
    },
    {
      "inputs": [
        {
          "internalType": "address",
          "name": "owner",
          "type": "address"
        },
        {
          "internalType": "address",
          "name": "operator",
          "type": "address"
        }
      ],
      "name": "isApprovedForAll",
      "outputs": [
        {
          "internalType": "bool",
          "name": "",
          "type": "bool"
        }
      ],
      "stateMutability": "view",
      "type": "function"
    },
    {
      "inputs": [],
      "name": "isRestrictedTransfer",
      "outputs": [
        {
          "internalType": "bool",
          "name": "",
          "type": "bool"
        }
      ],
      "stateMutability": "view",
      "type": "function"
    },
    {
      "inputs": [
        {
          "internalType": "address",
          "name": "forwarder",
          "type": "address"
        }
      ],
      "name": "isTrustedForwarder",
      "outputs": [
        {
          "internalType": "bool",
          "name": "",
          "type": "bool"
        }
      ],
      "stateMutability": "view",
      "type": "function"
    },
    {
      "inputs": [
        {
          "internalType": "address",
          "name": "",
          "type": "address"
        }
      ],
      "name": "mint",
      "outputs": [],
      "stateMutability": "pure",
      "type": "function"
    },
    {
      "inputs": [
        {
          "internalType": "address",
          "name": "_to",
          "type": "address"
        },
        {
          "internalType": "string",
          "name": "_uri",
          "type": "string"
        }
      ],
      "name": "mintNFT",
      "outputs": [],
      "stateMutability": "nonpayable",
      "type": "function"
    },
    {
      "inputs": [
        {
          "internalType": "address",
          "name": "_to",
          "type": "address"
        },
        {
          "internalType": "string[]",
          "name": "_uris",
          "type": "string[]"
        }
      ],
      "name": "mintNFTBatch",
      "outputs": [],
      "stateMutability": "nonpayable",
      "type": "function"
    },
    {
      "inputs": [],
      "name": "name",
      "outputs": [
        {
          "internalType": "string",
          "name": "",
          "type": "string"
        }
      ],
      "stateMutability": "view",
      "type": "function"
    },
    {
      "inputs": [],
      "name": "nextTokenId",
      "outputs": [
        {
          "internalType": "uint256",
          "name": "",
          "type": "uint256"
        }
      ],
      "stateMutability": "view",
      "type": "function"
    },
    {
      "inputs": [
        {
          "internalType": "uint256",
          "name": "",
          "type": "uint256"
        }
      ],
      "name": "nftCreator",
      "outputs": [
        {
          "internalType": "address",
          "name": "",
          "type": "address"
        }
      ],
      "stateMutability": "view",
      "type": "function"
    },
    {
      "inputs": [
        {
          "internalType": "uint256",
          "name": "",
          "type": "uint256"
        }
      ],
      "name": "nftURI",
      "outputs": [
        {
          "internalType": "string",
          "name": "",
          "type": "string"
        }
      ],
      "stateMutability": "view",
      "type": "function"
    },
    {
      "inputs": [
        {
          "internalType": "uint256",
          "name": "tokenId",
          "type": "uint256"
        }
      ],
      "name": "ownerOf",
      "outputs": [
        {
          "internalType": "address",
          "name": "",
          "type": "address"
        }
      ],
      "stateMutability": "view",
      "type": "function"
    },
    {
      "inputs": [],
      "name": "pause",
      "outputs": [],
      "stateMutability": "nonpayable",
      "type": "function"
    },
    {
      "inputs": [],
      "name": "paused",
      "outputs": [
        {
          "internalType": "bool",
          "name": "",
          "type": "bool"
        }
      ],
      "stateMutability": "view",
      "type": "function"
    },
    {
      "inputs": [
        {
          "internalType": "bytes32",
          "name": "role",
          "type": "bytes32"
        },
        {
          "internalType": "address",
          "name": "account",
          "type": "address"
        }
      ],
      "name": "renounceRole",
      "outputs": [],
      "stateMutability": "nonpayable",
      "type": "function"
    },
    {
      "inputs": [
        {
          "internalType": "bytes32",
          "name": "role",
          "type": "bytes32"
        },
        {
          "internalType": "address",
          "name": "account",
          "type": "address"
        }
      ],
      "name": "revokeRole",
      "outputs": [],
      "stateMutability": "nonpayable",
      "type": "function"
    },
    {
      "inputs": [],
      "name": "royaltyBps",
      "outputs": [
        {
          "internalType": "uint256",
          "name": "",
          "type": "uint256"
        }
      ],
      "stateMutability": "view",
      "type": "function"
    },
    {
      "inputs": [
        {
          "internalType": "uint256",
          "name": "tokenId",
          "type": "uint256"
        },
        {
          "internalType": "uint256",
          "name": "salePrice",
          "type": "uint256"
        }
      ],
      "name": "royaltyInfo",
      "outputs": [
        {
          "internalType": "address",
          "name": "receiver",
          "type": "address"
        },
        {
          "internalType": "uint256",
          "name": "royaltyAmount",
          "type": "uint256"
        }
      ],
      "stateMutability": "view",
      "type": "function"
    },
    {
      "inputs": [
        {
          "internalType": "address",
          "name": "from",
          "type": "address"
        },
        {
          "internalType": "address",
          "name": "to",
          "type": "address"
        },
        {
          "internalType": "uint256",
          "name": "tokenId",
          "type": "uint256"
        }
      ],
      "name": "safeTransferFrom",
      "outputs": [],
      "stateMutability": "nonpayable",
      "type": "function"
    },
    {
      "inputs": [
        {
          "internalType": "address",
          "name": "from",
          "type": "address"
        },
        {
          "internalType": "address",
          "name": "to",
          "type": "address"
        },
        {
          "internalType": "uint256",
          "name": "tokenId",
          "type": "uint256"
        },
        {
          "internalType": "bytes",
          "name": "_data",
          "type": "bytes"
        }
      ],
      "name": "safeTransferFrom",
      "outputs": [],
      "stateMutability": "nonpayable",
      "type": "function"
    },
    {
      "inputs": [
        {
          "internalType": "address",
          "name": "operator",
          "type": "address"
        },
        {
          "internalType": "bool",
          "name": "approved",
          "type": "bool"
        }
      ],
      "name": "setApprovalForAll",
      "outputs": [],
      "stateMutability": "nonpayable",
      "type": "function"
    },
    {
      "inputs": [
        {
          "internalType": "string",
          "name": "_URI",
          "type": "string"
        }
      ],
      "name": "setContractURI",
      "outputs": [],
      "stateMutability": "nonpayable",
      "type": "function"
    },
    {
      "inputs": [
        {
          "internalType": "bool",
          "name": "_restrictedTransfer",
          "type": "bool"
        }
      ],
      "name": "setRestrictedTransfer",
      "outputs": [],
      "stateMutability": "nonpayable",
      "type": "function"
    },
    {
      "inputs": [
        {
          "internalType": "uint256",
          "name": "_royaltyBps",
          "type": "uint256"
        }
      ],
      "name": "setRoyaltyBps",
      "outputs": [],
      "stateMutability": "nonpayable",
      "type": "function"
    },
    {
      "inputs": [
        {
          "internalType": "bytes4",
          "name": "interfaceId",
          "type": "bytes4"
        }
      ],
      "name": "supportsInterface",
      "outputs": [
        {
          "internalType": "bool",
          "name": "",
          "type": "bool"
        }
      ],
      "stateMutability": "view",
      "type": "function"
    },
    {
      "inputs": [],
      "name": "symbol",
      "outputs": [
        {
          "internalType": "string",
          "name": "",
          "type": "string"
        }
      ],
      "stateMutability": "view",
      "type": "function"
    },
    {
      "inputs": [
        {
          "internalType": "uint256",
          "name": "index",
          "type": "uint256"
        }
      ],
      "name": "tokenByIndex",
      "outputs": [
        {
          "internalType": "uint256",
          "name": "",
          "type": "uint256"
        }
      ],
      "stateMutability": "view",
      "type": "function"
    },
    {
      "inputs": [
        {
          "internalType": "address",
          "name": "owner",
          "type": "address"
        },
        {
          "internalType": "uint256",
          "name": "index",
          "type": "uint256"
        }
      ],
      "name": "tokenOfOwnerByIndex",
      "outputs": [
        {
          "internalType": "uint256",
          "name": "",
          "type": "uint256"
        }
      ],
      "stateMutability": "view",
      "type": "function"
    },
    {
      "inputs": [
        {
          "internalType": "uint256",
          "name": "tokenId",
          "type": "uint256"
        }
      ],
      "name": "tokenURI",
      "outputs": [
        {
          "internalType": "string",
          "name": "",
          "type": "string"
        }
      ],
      "stateMutability": "view",
      "type": "function"
    },
    {
      "inputs": [],
      "name": "totalSupply",
      "outputs": [
        {
          "internalType": "uint256",
          "name": "",
          "type": "uint256"
        }
      ],
      "stateMutability": "view",
      "type": "function"
    },
    {
      "inputs": [
        {
          "internalType": "address",
          "name": "from",
          "type": "address"
        },
        {
          "internalType": "address",
          "name": "to",
          "type": "address"
        },
        {
          "internalType": "uint256",
          "name": "tokenId",
          "type": "uint256"
        }
      ],
      "name": "transferFrom",
      "outputs": [],
      "stateMutability": "nonpayable",
      "type": "function"
    },
    {
      "inputs": [],
      "name": "unpause",
      "outputs": [],
      "stateMutability": "nonpayable",
      "type": "function"
    }
  ],
  "bytecode": "0x60806040523480156200001157600080fd5b506040516200409138038062004091833981016040819052620000349162000500565b8484848484818484838282816002908051906020019062000057929190620003af565b5080516200006d906003906020840190620003af565b5050600c805460ff191690555080516200008f90600e906020840190620003af565b50620000a66000620000a06200017b565b62000198565b620000c460008051602062004071833981519152620000a06200017b565b620000f37f65d7a28e3265b37a6474929f336521b332c1681b933f6cb9f3376673440d862a620000a06200017b565b5050600f80546001600160a01b03199081166001600160a01b039485161790915560108054909116928816929092179091555080516200013b906012906020840190620003af565b506200016b7f8502233096d909befbda0999bb8ea2f3a6be3c138b9fbf003752a4c8bce86f6c620000a06200017b565b5050505050505050505062000625565b600062000192620001db60201b6200186b1760201c565b90505b90565b620001af82826200021b60201b620018991760201c565b6000828152600160209081526040909120620001d6918390620018a76200022b821b17901c565b505050565b6000620001e8336200024b565b15620001fe575060131936013560601c62000195565b620002136200025f60201b620018bc1760201c565b905062000195565b62000227828262000263565b5050565b600062000242836001600160a01b038416620002ed565b90505b92915050565b600f546001600160a01b0390811691161490565b3390565b6200026f82826200033c565b62000227576000828152602081815260408083206001600160a01b03851684529091529020805460ff19166001179055620002a96200017b565b6001600160a01b0316816001600160a01b0316837f2f8788117e7eff1d82e926ec794901d17c78024a50270940304540a733656f0d60405160405180910390a45050565b6000620002fb83836200036e565b620003335750815460018181018455600084815260208082209093018490558454848252828601909352604090209190915562000245565b50600062000245565b6000600080516020620040718339815191528314806200024257506200024283836200038660201b620018c01760201c565b60009081526001919091016020526040902054151590565b6000918252602082815260408084206001600160a01b0393909316845291905290205460ff1690565b828054620003bd90620005b9565b90600052602060002090601f016020900481019282620003e157600085556200042c565b82601f10620003fc57805160ff19168380011785556200042c565b828001600101855582156200042c579182015b828111156200042c5782518255916020019190600101906200040f565b506200043a9291506200043e565b5090565b5b808211156200043a57600081556001016200043f565b600082601f83011262000466578081fd5b81516001600160401b0380821115620004835762000483620005f6565b6040516020601f8401601f1916820181018381118382101715620004ab57620004ab620005f6565b6040528382528584018101871015620004c2578485fd5b8492505b83831015620004e55785830181015182840182015291820191620004c6565b83831115620004f657848185840101525b5095945050505050565b600080600080600060a0868803121562000518578081fd5b855162000525816200060c565b60208701519095506001600160401b038082111562000542578283fd5b6200055089838a0162000455565b9550604088015191508082111562000566578283fd5b6200057489838a0162000455565b94506060880151915062000588826200060c565b6080880151919350808211156200059d578283fd5b50620005ac8882890162000455565b9150509295509295909350565b600281046001821680620005ce57607f821691505b60208210811415620005f057634e487b7160e01b600052602260045260246000fd5b50919050565b634e487b7160e01b600052604160045260246000fd5b6001600160a01b03811681146200062257600080fd5b50565b613a3c80620006356000396000f3fe608060405234801561001057600080fd5b506004361061030a5760003560e01c806370a082311161019c578063b88d4fde116100ee578063d547741f11610097578063e985e9c511610071578063e985e9c5146105e8578063eacabe14146105fb578063efe476871461060e5761030a565b8063d547741f146105c5578063e63ab1e9146105d8578063e8a3d485146105e05761030a565b8063c87b56dd116100c8578063c87b56dd14610597578063ca15c873146105aa578063d5391393146105bd5761030a565b8063b88d4fde14610574578063c0e7274014610587578063c63adb2b1461058f5761030a565b80639010d07c1161015057806395d89b411161012a57806395d89b4114610551578063a217fddf14610559578063a22cb465146105615761030a565b80639010d07c1461051857806391d148541461052b578063938e3d7b1461053e5761030a565b806383661b291161018157806383661b29146104f55780638456cb59146104fd5780638ba448c2146105055761030a565b806370a08231146104da57806375794a3c146104ed5761030a565b80632f2ff15d1161026057806349a33a2f116102095780635c975abb116101e35780635c975abb146104ac5780636352211e146104b45780636a627842146104c75761030a565b806349a33a2f146104735780634f6ccce714610486578063572b6c05146104995761030a565b80633f4ba83a1161023a5780633f4ba83a1461044557806342842e0e1461044d57806342966c68146104605761030a565b80632f2ff15d1461040c5780632f745c591461041f57806336568abe146104325761030a565b806318160ddd116102c257806323b872dd1161029c57806323b872dd146103c5578063248a9ca3146103d85780632a55205a146103eb5761030a565b806318160ddd146103955780631f72d831146103aa578063206b60f9146103bd5761030a565b8063081812fc116102f3578063081812fc1461034d578063095ea7b31461036d5780630ef37448146103825761030a565b806301ffc9a71461030f57806306fdde0314610338575b600080fd5b61032261031d366004612cb3565b610621565b60405161032f9190612f69565b60405180910390f35b61034061064f565b60405161032f9190612f94565b61036061035b366004612c40565b6106e2565b60405161032f9190612e32565b61038061037b366004612bdf565b61072e565b005b610360610390366004612c40565b6107c6565b61039d6107e1565b60405161032f9190612f74565b6103806103b8366004612c40565b6107e7565b61039d610a83565b6103806103d33660046129d1565b610aa7565b61039d6103e6366004612c40565b610adf565b6103fe6103f9366004612c92565b610af4565b60405161032f929190612e82565b61038061041a366004612c70565b610bb5565b61039d61042d366004612bdf565b610bd7565b610380610440366004612c70565b610c2c565b610380610c4e565b61038061045b3660046129d1565b610ca0565b61038061046e366004612c40565b610cbb565b610380610481366004612ad8565b610cee565b61039d610494366004612c40565b610f71565b6103226104a736600461298e565b610fcc565b610322610fe0565b6103606104c2366004612c40565b610fe9565b6103806104d536600461298e565b61101e565b61039d6104e836600461298e565b611036565b61039d61107a565b610322611080565b610380611090565b610380610513366004612c08565b6110e0565b610360610526366004612c92565b611225565b610322610539366004612c70565b611244565b61038061054c366004612ceb565b611279565b61034061139b565b61039d6113aa565b61038061056f366004612b58565b6113af565b610380610582366004612a0c565b61147d565b6103406114bc565b61039d61154a565b6103406105a5366004612c40565b611550565b61039d6105b8366004612c40565b6115f2565b61039d611609565b6103806105d3366004612c70565b61162d565b61039d611637565b61034061165b565b6103226105f63660046129a8565b61166a565b610380610609366004612b8e565b611698565b61034061061c366004612c40565b611852565b600061062c826118e9565b8061064757506001600160e01b0319821663152a902d60e11b145b90505b919050565b60606002805461065e90613989565b80601f016020809104026020016040519081016040528092919081815260200182805461068a90613989565b80156106d75780601f106106ac576101008083540402835291602001916106d7565b820191906000526020600020905b8154815290600101906020018083116106ba57829003601f168201915b505050505090505b90565b60006106ed826118f4565b6107125760405162461bcd60e51b8152600401610709906134ee565b60405180910390fd5b506000908152600660205260409020546001600160a01b031690565b600061073982610fe9565b9050806001600160a01b0316836001600160a01b0316141561076d5760405162461bcd60e51b8152600401610709906135e0565b806001600160a01b031661077f611911565b6001600160a01b0316148061079b575061079b816105f6611911565b6107b75760405162461bcd60e51b8152600401610709906132bc565b6107c18383611920565b505050565b6014602052600090815260409020546001600160a01b031681565b600a5490565b60105460408051634a32c6bf60e11b815290516001600160a01b03909216916391d148549183916394658d7e91600480820192602092909190829003018186803b15801561083457600080fd5b505afa158015610848573d6000803e3d6000fd5b505050506040513d601f19601f8201168201806040525081019061086c9190612c58565b610874611911565b6040518363ffffffff1660e01b8152600401610891929190612f7d565b60206040518083038186803b1580156108a957600080fd5b505afa1580156108bd573d6000803e3d6000fd5b505050506040513d601f19601f820116820180604052508101906108e19190612c24565b6108fd5760405162461bcd60e51b815260040161070990613583565b601060009054906101000a90046001600160a01b03166001600160a01b0316635cd423156040518163ffffffff1660e01b815260040160206040518083038186803b15801561094b57600080fd5b505afa15801561095f573d6000803e3d6000fd5b505050506040513d601f19601f820116820180604052508101906109839190612d2b565b601060009054906101000a90046001600160a01b03166001600160a01b031663fd967f476040518163ffffffff1660e01b815260040160206040518083038186803b1580156109d157600080fd5b505afa1580156109e5573d6000803e3d6000fd5b505050506040513d601f19601f82011682018060405250810190610a099190612d2b565b610a1391906138a4565b6fffffffffffffffffffffffffffffffff168110610a435760405162461bcd60e51b815260040161070990613738565b60158190556040517f244ea8d7627f5a08f4299862bd5a45752842c183aee5b0fb0d1e4887bfa605b390610a78908390612f74565b60405180910390a150565b7f8502233096d909befbda0999bb8ea2f3a6be3c138b9fbf003752a4c8bce86f6c81565b610ab8610ab2611911565b8261198e565b610ad45760405162461bcd60e51b815260040161070990613621565b6107c1838383611a13565b60009081526020819052604090206001015490565b600082815260146020908152604080832054601054825163fd967f4760e01b815292516001600160a01b039283169594919092169263fd967f479260048083019392829003018186803b158015610b4a57600080fd5b505afa158015610b5e573d6000803e3d6000fd5b505050506040513d601f19601f82011682018060405250810190610b829190612d2b565b6fffffffffffffffffffffffffffffffff1660155484610ba29190613910565b610bac91906138f0565b90509250929050565b610bbf8282611b40565b60008281526001602052604090206107c190826118a7565b6000610be283611036565b8210610c005760405162461bcd60e51b815260040161070990613070565b506001600160a01b03821660009081526008602090815260408083208484529091529020545b92915050565b610c368282611b64565b60008281526001602052604090206107c19082611ba6565b610c7a7f65d7a28e3265b37a6474929f336521b332c1681b933f6cb9f3376673440d862a610539611911565b610c965760405162461bcd60e51b815260040161070990613781565b610c9e611bbb565b565b6107c18383836040518060200160405280600081525061147d565b610cc6610ab2611911565b610ce25760405162461bcd60e51b8152600401610709906136db565b610ceb81611c29565b50565b601060009054906101000a90046001600160a01b03166001600160a01b0316639d2f83f06040518163ffffffff1660e01b815260040160206040518083038186803b158015610d3c57600080fd5b505afa158015610d50573d6000803e3d6000fd5b505050506040513d601f19601f82011682018060405250810190610d749190612c24565b15610d915760405162461bcd60e51b8152600401610709906133ac565b610dbd7f9f2df0fed2c77648de5860a4cc508cd0818c85b8b8a1ab4ceeef8d981c8956a6610539611911565b610dd95760405162461bcd60e51b8152600401610709906134ac565b60008167ffffffffffffffff811115610e0257634e487b7160e01b600052604160045260246000fd5b604051908082528060200260200182016040528015610e2b578160200160208202803683370190505b506011549091506000610e3c611911565b905060005b84811015610f125782848281518110610e6a57634e487b7160e01b600052603260045260246000fd5b602002602001018181525050858582818110610e9657634e487b7160e01b600052603260045260246000fd5b9050602002810190610ea8919061385f565b6000858152601360205260409020610ec1929091612897565b50600083815260146020526040902080546001600160a01b0319166001600160a01b038416179055610ef38784611cd0565b610efe6001846138d8565b925080610f0a816139c4565b915050610e41565b5081601181905550856001600160a01b0316816001600160a01b03167f2a7af4d3b262c3e3d51c600cdf7a940c9aba3fedcc85148aeda266cc4c4a2f33858888604051610f6193929190612e9b565b60405180910390a3505050505050565b6000610f7b6107e1565b8210610f995760405162461bcd60e51b81526004016107099061367e565b600a8281548110610fba57634e487b7160e01b600052603260045260246000fd5b90600052602060002001549050919050565b600f546001600160a01b0390811691161490565b600c5460ff1690565b6000818152600460205260408120546001600160a01b0316806106475760405162461bcd60e51b815260040161070990613363565b60405162461bcd60e51b815260040161070990613440565b60006001600160a01b03821661105e5760405162461bcd60e51b815260040161070990613319565b506001600160a01b031660009081526005602052604090205490565b60115481565b600f54600160a01b900460ff1681565b6110bc7f65d7a28e3265b37a6474929f336521b332c1681b933f6cb9f3376673440d862a610539611911565b6110d85760405162461bcd60e51b815260040161070990613161565b610c9e611daf565b60105460408051634a32c6bf60e11b815290516001600160a01b03909216916391d148549183916394658d7e91600480820192602092909190829003018186803b15801561112d57600080fd5b505afa158015611141573d6000803e3d6000fd5b505050506040513d601f19601f820116820180604052508101906111659190612c58565b61116d611911565b6040518363ffffffff1660e01b815260040161118a929190612f7d565b60206040518083038186803b1580156111a257600080fd5b505afa1580156111b6573d6000803e3d6000fd5b505050506040513d601f19601f820116820180604052508101906111da9190612c24565b6111f65760405162461bcd60e51b815260040161070990613583565b600f8054911515600160a01b0274ff000000000000000000000000000000000000000019909216919091179055565b600082815260016020526040812061123d9083611e0a565b9392505050565b60007f9f2df0fed2c77648de5860a4cc508cd0818c85b8b8a1ab4ceeef8d981c8956a683148061123d575061123d83836118c0565b60105460408051634a32c6bf60e11b815290516001600160a01b03909216916391d148549183916394658d7e91600480820192602092909190829003018186803b1580156112c657600080fd5b505afa1580156112da573d6000803e3d6000fd5b505050506040513d601f19601f820116820180604052508101906112fe9190612c58565b611306611911565b6040518363ffffffff1660e01b8152600401611323929190612f7d565b60206040518083038186803b15801561133b57600080fd5b505afa15801561134f573d6000803e3d6000fd5b505050506040513d601f19601f820116820180604052508101906113739190612c24565b61138f5760405162461bcd60e51b815260040161070990613583565b6107c160128383612897565b60606003805461065e90613989565b600081565b6113b7611911565b6001600160a01b0316826001600160a01b031614156113e85760405162461bcd60e51b815260040161070990613202565b80600760006113f5611911565b6001600160a01b03908116825260208083019390935260409182016000908120918716808252919093529120805460ff191692151592909217909155611439611911565b6001600160a01b03167f17307eab39ab6107e8899845ad3d59bd9653f200f220920489ca2b5937696c31836040516114719190612f69565b60405180910390a35050565b61148e611488611911565b8361198e565b6114aa5760405162461bcd60e51b815260040161070990613621565b6114b684848484611e16565b50505050565b601280546114c990613989565b80601f01602080910402602001604051908101604052809291908181526020018280546114f590613989565b80156115425780601f1061151757610100808354040283529160200191611542565b820191906000526020600020905b81548152906001019060200180831161152557829003601f168201915b505050505081565b60155481565b600081815260136020526040902080546060919061156d90613989565b80601f016020809104026020016040519081016040528092919081815260200182805461159990613989565b80156115e65780601f106115bb576101008083540402835291602001916115e6565b820191906000526020600020905b8154815290600101906020018083116115c957829003601f168201915b50505050509050919050565b600081815260016020526040812061064790611e49565b7f9f2df0fed2c77648de5860a4cc508cd0818c85b8b8a1ab4ceeef8d981c8956a681565b610c368282611e54565b7f65d7a28e3265b37a6474929f336521b332c1681b933f6cb9f3376673440d862a81565b60606012805461065e90613989565b6001600160a01b03918216600090815260076020908152604080832093909416825291909152205460ff1690565b601060009054906101000a90046001600160a01b03166001600160a01b0316639d2f83f06040518163ffffffff1660e01b815260040160206040518083038186803b1580156116e657600080fd5b505afa1580156116fa573d6000803e3d6000fd5b505050506040513d601f19601f8201168201806040525081019061171e9190612c24565b1561173b5760405162461bcd60e51b8152600401610709906133ac565b6117677f9f2df0fed2c77648de5860a4cc508cd0818c85b8b8a1ab4ceeef8d981c8956a6610539611911565b6117835760405162461bcd60e51b8152600401610709906134ac565b601154600081815260136020526040902061179f908484612897565b506117a8611911565b600082815260146020526040902080546001600160a01b0319166001600160a01b03929092169190911790556117de8482611cd0565b6001601160008282546117f191906138d8565b90915550506001600160a01b038416611808611911565b6001600160a01b03167fafe8c5a4c36942a61550534b714a0076ab46ef8ef23e361572aad8b7ca2ac27d8386866040516118449392919061383c565b60405180910390a350505050565b601360205260009081526040902080546114c990613989565b600061187633610fcc565b1561188a575060131936013560601c6106df565b6118926118bc565b90506106df565b6118a38282611e73565b5050565b600061123d836001600160a01b038416611ef8565b3390565b6000918252602082815260408084206001600160a01b0393909316845291905290205460ff1690565b600061064782611f42565b6000908152600460205260409020546001600160a01b0316151590565b600061191b61186b565b905090565b600081815260066020526040902080546001600160a01b0319166001600160a01b038416908117909155819061195582610fe9565b6001600160a01b03167f8c5be1e5ebec7d5bd14f71427d1e84f3dd0314c0f7b2291e5b200ac8c7c3b92560405160405180910390a45050565b6000611999826118f4565b6119b55760405162461bcd60e51b815260040161070990613239565b60006119c083610fe9565b9050806001600160a01b0316846001600160a01b031614806119fb5750836001600160a01b03166119f0846106e2565b6001600160a01b0316145b80611a0b5750611a0b818561166a565b949350505050565b826001600160a01b0316611a2682610fe9565b6001600160a01b031614611a4c5760405162461bcd60e51b81526004016107099061353a565b6001600160a01b038216611a725760405162461bcd60e51b8152600401610709906131be565b611a7d838383611f67565b611a88600082611920565b6001600160a01b0383166000908152600560205260408120805460019290611ab190849061392f565b90915550506001600160a01b0382166000908152600560205260408120805460019290611adf9084906138d8565b909155505060008181526004602052604080822080546001600160a01b0319166001600160a01b0386811691821790925591518493918716917fddf252ad1be2c89b69c2b068fc378daa952ba7f163c4a11628f55a4df523b3ef91a4505050565b611b4982610adf565b611b5a81611b55611911565b611ffa565b6107c18383611e73565b611b6c611911565b6001600160a01b0316816001600160a01b031614611b9c5760405162461bcd60e51b8152600401610709906137df565b6118a3828261205e565b600061123d836001600160a01b0384166120e1565b611bc3610fe0565b611bdf5760405162461bcd60e51b815260040161070990613039565b600c805460ff191690557f5db9ee0a495bf2e6ff9c91a7834c1ba4fdd244a5e8aa4e537bd38aeae4b073aa611c12611911565b604051611c1f9190612e32565b60405180910390a1565b6000611c3482610fe9565b9050611c4281600084611f67565b611c4d600083611920565b6001600160a01b0381166000908152600560205260408120805460019290611c7690849061392f565b909155505060008281526004602052604080822080546001600160a01b0319169055518391906001600160a01b038416907fddf252ad1be2c89b69c2b068fc378daa952ba7f163c4a11628f55a4df523b3ef908390a45050565b6001600160a01b038216611cf65760405162461bcd60e51b815260040161070990613477565b611cff816118f4565b15611d1c5760405162461bcd60e51b81526004016107099061312a565b611d2860008383611f67565b6001600160a01b0382166000908152600560205260408120805460019290611d519084906138d8565b909155505060008181526004602052604080822080546001600160a01b0319166001600160a01b03861690811790915590518392907fddf252ad1be2c89b69c2b068fc378daa952ba7f163c4a11628f55a4df523b3ef908290a45050565b611db7610fe0565b15611dd45760405162461bcd60e51b815260040161070990613285565b600c805460ff191660011790557f62e78cea01bee320cd4e420270b5ea74000d11b0c9f74754ebdbfc544b05a258611c12611911565b600061123d83836121fe565b611e21848484611a13565b611e2d84848484612236565b6114b65760405162461bcd60e51b8152600401610709906130cd565b600061064782612351565b611e5d82610adf565b611e6981611b55611911565b6107c1838361205e565b611e7d8282611244565b6118a3576000828152602081815260408083206001600160a01b03851684529091529020805460ff19166001179055611eb4611911565b6001600160a01b0316816001600160a01b0316837f2f8788117e7eff1d82e926ec794901d17c78024a50270940304540a733656f0d60405160405180910390a45050565b6000611f048383612355565b611f3a57508154600181810184556000848152602080822090930184905584548482528286019093526040902091909155610c26565b506000610c26565b60006001600160e01b0319821663780e9d6360e01b148061064757506106478261236d565b611f728383836123ad565b600f54600160a01b900460ff16156107c157611fae7f8502233096d909befbda0999bb8ea2f3a6be3c138b9fbf003752a4c8bce86f6c84611244565b80611fde5750611fde7f8502233096d909befbda0999bb8ea2f3a6be3c138b9fbf003752a4c8bce86f6c83611244565b6107c15760405162461bcd60e51b8152600401610709906133e3565b6120048282611244565b6118a35761201c816001600160a01b031660146123b8565b6120278360206123b8565b604051602001612038929190612db1565b60408051601f198184030181529082905262461bcd60e51b825261070991600401612f94565b6120688282611244565b156118a3576000828152602081815260408083206001600160a01b03851684529091529020805460ff1916905561209d611911565b6001600160a01b0316816001600160a01b0316837ff6391f5c32d9c69d2a47ea670b442974b53935d1edc7fd64eb21e047a839171b60405160405180910390a45050565b600081815260018301602052604081205480156121f457600061210560018361392f565b85549091506000906121199060019061392f565b905081811461219a57600086600001828154811061214757634e487b7160e01b600052603260045260246000fd5b906000526020600020015490508087600001848154811061217857634e487b7160e01b600052603260045260246000fd5b6000918252602080832090910192909255918252600188019052604090208390555b85548690806121b957634e487b7160e01b600052603160045260246000fd5b600190038181906000526020600020016000905590558560010160008681526020019081526020016000206000905560019350505050610c26565b6000915050610c26565b600082600001828154811061222357634e487b7160e01b600052603260045260246000fd5b9060005260206000200154905092915050565b600061224a846001600160a01b0316612577565b1561234657836001600160a01b031663150b7a02612266611911565b8786866040518563ffffffff1660e01b81526004016122889493929190612e46565b602060405180830381600087803b1580156122a257600080fd5b505af19250505080156122d2575060408051601f3d908101601f191682019092526122cf91810190612ccf565b60015b61232c573d808015612300576040519150601f19603f3d011682016040523d82523d6000602084013e612305565b606091505b5080516123245760405162461bcd60e51b8152600401610709906130cd565b805181602001fd5b6001600160e01b031916630a85bd0160e11b149050611a0b565b506001949350505050565b5490565b60009081526001919091016020526040902054151590565b60006001600160e01b031982166380ac58cd60e01b148061239e57506001600160e01b03198216635b5e139f60e01b145b8061064757506106478261257d565b6107c18383836125a2565b606060006123c7836002613910565b6123d29060026138d8565b67ffffffffffffffff8111156123f857634e487b7160e01b600052604160045260246000fd5b6040519080825280601f01601f191660200182016040528015612422576020820181803683370190505b509050600360fc1b8160008151811061244b57634e487b7160e01b600052603260045260246000fd5b60200101906001600160f81b031916908160001a905350600f60fb1b8160018151811061248857634e487b7160e01b600052603260045260246000fd5b60200101906001600160f81b031916908160001a90535060006124ac846002613910565b6124b79060016138d8565b90505b6001811115612558577f303132333435363738396162636465660000000000000000000000000000000085600f166010811061250657634e487b7160e01b600052603260045260246000fd5b1a60f81b82828151811061252a57634e487b7160e01b600052603260045260246000fd5b60200101906001600160f81b031916908160001a90535060049490941c9361255181613972565b90506124ba565b50831561123d5760405162461bcd60e51b815260040161070990612fa7565b3b151590565b60006001600160e01b03198216635a05180f60e01b14806106475750610647826125d2565b6125ad8383836125f7565b6125b5610fe0565b156107c15760405162461bcd60e51b815260040161070990612fdc565b60006001600160e01b03198216637965db0b60e01b1480610647575061064782612680565b6126028383836107c1565b6001600160a01b03831661261e5761261981612699565b612641565b816001600160a01b0316836001600160a01b0316146126415761264183826126dd565b6001600160a01b03821661265d576126588161277a565b6107c1565b826001600160a01b0316826001600160a01b0316146107c1576107c18282612853565b6001600160e01b031981166301ffc9a760e01b14919050565b600a80546000838152600b60205260408120829055600182018355919091527fc65a7bb8d6351c1cf70c95a316cc6a92839c986682d98bc35f958f4883f9d2a80155565b600060016126ea84611036565b6126f4919061392f565b600083815260096020526040902054909150808214612747576001600160a01b03841660009081526008602090815260408083208584528252808320548484528184208190558352600990915290208190555b5060009182526009602090815260408084208490556001600160a01b039094168352600881528383209183525290812055565b600a5460009061278c9060019061392f565b6000838152600b6020526040812054600a80549394509092849081106127c257634e487b7160e01b600052603260045260246000fd5b9060005260206000200154905080600a83815481106127f157634e487b7160e01b600052603260045260246000fd5b6000918252602080832090910192909255828152600b9091526040808220849055858252812055600a80548061283757634e487b7160e01b600052603160045260246000fd5b6001900381819060005260206000200160009055905550505050565b600061285e83611036565b6001600160a01b039093166000908152600860209081526040808320868452825280832085905593825260099052919091209190915550565b8280546128a390613989565b90600052602060002090601f0160209004810192826128c5576000855561290b565b82601f106128de5782800160ff1982351617855561290b565b8280016001018555821561290b579182015b8281111561290b5782358255916020019190600101906128f0565b5061291792915061291b565b5090565b5b80821115612917576000815560010161291c565b80356001600160a01b038116811461064a57600080fd5b60008083601f840112612958578182fd5b50813567ffffffffffffffff81111561296f578182fd5b60208301915083602082850101111561298757600080fd5b9250929050565b60006020828403121561299f578081fd5b61123d82612930565b600080604083850312156129ba578081fd5b6129c383612930565b9150610bac60208401612930565b6000806000606084860312156129e5578081fd5b6129ee84612930565b92506129fc60208501612930565b9150604084013590509250925092565b60008060008060808587031215612a21578081fd5b612a2a85612930565b93506020612a39818701612930565b935060408601359250606086013567ffffffffffffffff80821115612a5c578384fd5b818801915088601f830112612a6f578384fd5b813581811115612a8157612a816139f5565b604051601f8201601f1916810185018381118282101715612aa457612aa46139f5565b60405281815283820185018b1015612aba578586fd5b81858501868301379081019093019390935250939692955090935050565b600080600060408486031215612aec578283fd5b612af584612930565b9250602084013567ffffffffffffffff80821115612b11578384fd5b818601915086601f830112612b24578384fd5b813581811115612b32578485fd5b8760208083028501011115612b45578485fd5b6020830194508093505050509250925092565b60008060408385031215612b6a578182fd5b612b7383612930565b91506020830135612b8381613a0b565b809150509250929050565b600080600060408486031215612ba2578283fd5b612bab84612930565b9250602084013567ffffffffffffffff811115612bc6578283fd5b612bd286828701612947565b9497909650939450505050565b60008060408385031215612bf1578182fd5b612bfa83612930565b946020939093013593505050565b600060208284031215612c19578081fd5b813561123d81613a0b565b600060208284031215612c35578081fd5b815161123d81613a0b565b600060208284031215612c51578081fd5b5035919050565b600060208284031215612c69578081fd5b5051919050565b60008060408385031215612c82578182fd5b82359150610bac60208401612930565b60008060408385031215612ca4578182fd5b50508035926020909101359150565b600060208284031215612cc4578081fd5b813561123d81613a19565b600060208284031215612ce0578081fd5b815161123d81613a19565b60008060208385031215612cfd578182fd5b823567ffffffffffffffff811115612d13578283fd5b612d1f85828601612947565b90969095509350505050565b600060208284031215612d3c578081fd5b81516fffffffffffffffffffffffffffffffff8116811461123d578182fd5b60008151808452612d73816020860160208601613946565b601f01601f19169290920160200192915050565b60008284528282602086013780602084860101526020601f19601f85011685010190509392505050565b60007f416363657373436f6e74726f6c3a206163636f756e742000000000000000000082528351612de9816017850160208801613946565b7f206973206d697373696e6720726f6c65200000000000000000000000000000006017918401918201528351612e26816028840160208801613946565b01602801949350505050565b6001600160a01b0391909116815260200190565b60006001600160a01b03808716835280861660208401525083604083015260806060830152612e786080830184612d5b565b9695505050505050565b6001600160a01b03929092168252602082015260400190565b604080825284519082018190526000906020906060840190828801845b82811015612ed457815184529284019290840190600101612eb8565b505050838103828501528481528181018583028201830187855b88811015612f5a57848303601f190184528135368b9003601e19018112612f13578788fd5b8a01803567ffffffffffffffff811115612f2b578889fd5b8036038c1315612f39578889fd5b612f4685828a8501612d87565b958801959450505090850190600101612eee565b50909998505050505050505050565b901515815260200190565b90815260200190565b9182526001600160a01b0316602082015260400190565b60006020825261123d6020830184612d5b565b6020808252818101527f537472696e67733a20686578206c656e67746820696e73756666696369656e74604082015260600190565b6020808252602b908201527f4552433732315061757361626c653a20746f6b656e207472616e73666572207760408201527f68696c6520706175736564000000000000000000000000000000000000000000606082015260800190565b60208082526014908201527f5061757361626c653a206e6f7420706175736564000000000000000000000000604082015260600190565b6020808252602b908201527f455243373231456e756d657261626c653a206f776e657220696e646578206f7560408201527f74206f6620626f756e6473000000000000000000000000000000000000000000606082015260800190565b60208082526032908201527f4552433732313a207472616e7366657220746f206e6f6e20455243373231526560408201527f63656976657220696d706c656d656e7465720000000000000000000000000000606082015260800190565b6020808252601c908201527f4552433732313a20746f6b656e20616c7265616479206d696e74656400000000604082015260600190565b6020808252603e908201527f4552433732315072657365744d696e7465725061757365724175746f49643a2060408201527f6d75737420686176652070617573657220726f6c6520746f2070617573650000606082015260800190565b60208082526024908201527f4552433732313a207472616e7366657220746f20746865207a65726f206164646040820152637265737360e01b606082015260800190565b60208082526019908201527f4552433732313a20617070726f766520746f2063616c6c657200000000000000604082015260600190565b6020808252602c908201527f4552433732313a206f70657261746f7220717565727920666f72206e6f6e657860408201526b34b9ba32b73a103a37b5b2b760a11b606082015260800190565b60208082526010908201527f5061757361626c653a2070617573656400000000000000000000000000000000604082015260600190565b60208082526038908201527f4552433732313a20617070726f76652063616c6c6572206973206e6f74206f7760408201527f6e6572206e6f7220617070726f76656420666f7220616c6c0000000000000000606082015260800190565b6020808252602a908201527f4552433732313a2062616c616e636520717565727920666f7220746865207a65604082015269726f206164647265737360b01b606082015260800190565b60208082526029908201527f4552433732313a206f776e657220717565727920666f72206e6f6e657869737460408201526832b73a103a37b5b2b760b91b606082015260800190565b6020808252601c908201527f4e46543a205468652070726f746f636f6c206973207061757365642e00000000604082015260600190565b60208082526036908201527f4e46543a205472616e736665727320617265207265737472696374656420746f60408201527f205452414e534645525f524f4c4520686f6c6465727300000000000000000000606082015260800190565b6020808252601d908201527f4e46543732313a2043616c6c206d696e744e465420696e73746561642e000000604082015260600190565b6020808252818101527f4552433732313a206d696e7420746f20746865207a65726f2061646472657373604082015260600190565b60208082526022908201527f4e46543a206d7573742068617665206d696e74657220726f6c6520746f206d696040820152611b9d60f21b606082015260800190565b6020808252602c908201527f4552433732313a20617070726f76656420717565727920666f72206e6f6e657860408201526b34b9ba32b73a103a37b5b2b760a11b606082015260800190565b60208082526029908201527f4552433732313a207472616e73666572206f6620746f6b656e2074686174206960408201526839903737ba1037bbb760b91b606082015260800190565b60208082526032908201527f4e46543a206f6e6c7920612070726f746f636f6c2061646d696e2063616e206360408201527f616c6c20746869732066756e6374696f6e2e0000000000000000000000000000606082015260800190565b60208082526021908201527f4552433732313a20617070726f76616c20746f2063757272656e74206f776e656040820152603960f91b606082015260800190565b60208082526031908201527f4552433732313a207472616e736665722063616c6c6572206973206e6f74206f60408201527f776e6572206e6f7220617070726f766564000000000000000000000000000000606082015260800190565b6020808252602c908201527f455243373231456e756d657261626c653a20676c6f62616c20696e646578206f60408201527f7574206f6620626f756e64730000000000000000000000000000000000000000606082015260800190565b60208082526030908201527f4552433732314275726e61626c653a2063616c6c6572206973206e6f74206f7760408201527f6e6572206e6f7220617070726f76656400000000000000000000000000000000606082015260800190565b60208082526029908201527f4e46543a204270732070726f7669646564206d757374206265206c6573732074604082015268068616e20392c3030360bc1b606082015260800190565b602080825260409082018190527f4552433732315072657365744d696e7465725061757365724175746f49643a20908201527f6d75737420686176652070617573657220726f6c6520746f20756e7061757365606082015260800190565b6020808252602f908201527f416363657373436f6e74726f6c3a2063616e206f6e6c792072656e6f756e636560408201527f20726f6c657320666f722073656c660000000000000000000000000000000000606082015260800190565b600084825260406020830152613856604083018486612d87565b95945050505050565b6000808335601e19843603018112613875578283fd5b83018035915067ffffffffffffffff82111561388f578283fd5b60200191503681900382131561298757600080fd5b60006fffffffffffffffffffffffffffffffff8083168185168083038211156138cf576138cf6139df565b01949350505050565b600082198211156138eb576138eb6139df565b500190565b60008261390b57634e487b7160e01b81526012600452602481fd5b500490565b600081600019048311821515161561392a5761392a6139df565b500290565b600082821015613941576139416139df565b500390565b60005b83811015613961578181015183820152602001613949565b838111156114b65750506000910152565b600081613981576139816139df565b506000190190565b60028104600182168061399d57607f821691505b602082108114156139be57634e487b7160e01b600052602260045260246000fd5b50919050565b60006000198214156139d8576139d86139df565b5060010190565b634e487b7160e01b600052601160045260246000fd5b634e487b7160e01b600052604160045260246000fd5b8015158114610ceb57600080fd5b6001600160e01b031981168114610ceb57600080fdfea164736f6c6343000800000a9f2df0fed2c77648de5860a4cc508cd0818c85b8b8a1ab4ceeef8d981c8956a6",
  "linkReferences": {},
  "deployedLinkReferences": {}
}