{
  "_format": "hh-sol-artifact-1",
  "contractName": "MockRoyaltyNoFees",
  "sourceName": "contracts/test-helpers/MockRoyaltyNoFees.sol",
  "abi": [
    {
      "inputs": [
        {
          "internalType": "address payable",
          "name": "_controlCenter",
          "type": "address"
        },
        {
          "internalType": "address",
          "name": "_trustedForwarder",
          "type": "address"
        },
        {
          "internalType": "string",
          "name": "_uri",
          "type": "string"
        },
        {
          "internalType": "address[]",
          "name": "payees",
          "type": "address[]"
        },
        {
          "internalType": "uint256[]",
          "name": "shares_",
          "type": "uint256[]"
        }
      ],
      "stateMutability": "nonpayable",
      "type": "constructor"
    },
    {
      "anonymous": false,
      "inputs": [
        {
          "indexed": true,
          "internalType": "contract IERC20",
          "name": "token",
          "type": "address"
        },
        {
          "indexed": false,
          "internalType": "address",
          "name": "to",
          "type": "address"
        },
        {
          "indexed": false,
          "internalType": "uint256",
          "name": "amount",
          "type": "uint256"
        }
      ],
      "name": "ERC20PaymentReleased",
      "type": "event"
    },
    {
      "anonymous": false,
      "inputs": [
        {
          "indexed": false,
          "internalType": "address",
          "name": "account",
          "type": "address"
        },
        {
          "indexed": false,
          "internalType": "uint256",
          "name": "shares",
          "type": "uint256"
        }
      ],
      "name": "PayeeAdded",
      "type": "event"
    },
    {
      "anonymous": false,
      "inputs": [
        {
          "indexed": false,
          "internalType": "address",
          "name": "from",
          "type": "address"
        },
        {
          "indexed": false,
          "internalType": "uint256",
          "name": "amount",
          "type": "uint256"
        }
      ],
      "name": "PaymentReceived",
      "type": "event"
    },
    {
      "anonymous": false,
      "inputs": [
        {
          "indexed": false,
          "internalType": "address",
          "name": "to",
          "type": "address"
        },
        {
          "indexed": false,
          "internalType": "uint256",
          "name": "amount",
          "type": "uint256"
        }
      ],
      "name": "PaymentReleased",
      "type": "event"
    },
    {
      "inputs": [],
      "name": "contractURI",
      "outputs": [
        {
          "internalType": "string",
          "name": "",
          "type": "string"
        }
      ],
      "stateMutability": "view",
      "type": "function"
    },
    {
      "inputs": [
        {
          "internalType": "contract IERC20",
          "name": "token",
          "type": "address"
        }
      ],
      "name": "distribute",
      "outputs": [],
      "stateMutability": "nonpayable",
      "type": "function"
    },
    {
      "inputs": [],
      "name": "distribute",
      "outputs": [],
      "stateMutability": "nonpayable",
      "type": "function"
    },
    {
      "inputs": [
        {
          "internalType": "address",
          "name": "forwarder",
          "type": "address"
        }
      ],
      "name": "isTrustedForwarder",
      "outputs": [
        {
          "internalType": "bool",
          "name": "",
          "type": "bool"
        }
      ],
      "stateMutability": "view",
      "type": "function"
    },
    {
      "inputs": [
        {
          "internalType": "uint256",
          "name": "index",
          "type": "uint256"
        }
      ],
      "name": "payee",
      "outputs": [
        {
          "internalType": "address",
          "name": "",
          "type": "address"
        }
      ],
      "stateMutability": "view",
      "type": "function"
    },
    {
      "inputs": [],
      "name": "payeeCount",
      "outputs": [
        {
          "internalType": "uint256",
          "name": "",
          "type": "uint256"
        }
      ],
      "stateMutability": "view",
      "type": "function"
    },
    {
      "inputs": [
        {
          "internalType": "address payable",
          "name": "account",
          "type": "address"
        }
      ],
      "name": "release",
      "outputs": [],
      "stateMutability": "nonpayable",
      "type": "function"
    },
    {
      "inputs": [
        {
          "internalType": "contract IERC20",
          "name": "token",
          "type": "address"
        },
        {
          "internalType": "address",
          "name": "account",
          "type": "address"
        }
      ],
      "name": "release",
      "outputs": [],
      "stateMutability": "nonpayable",
      "type": "function"
    },
    {
      "inputs": [
        {
          "internalType": "contract IERC20",
          "name": "token",
          "type": "address"
        },
        {
          "internalType": "address",
          "name": "account",
          "type": "address"
        }
      ],
      "name": "released",
      "outputs": [
        {
          "internalType": "uint256",
          "name": "",
          "type": "uint256"
        }
      ],
      "stateMutability": "view",
      "type": "function"
    },
    {
      "inputs": [
        {
          "internalType": "address",
          "name": "account",
          "type": "address"
        }
      ],
      "name": "released",
      "outputs": [
        {
          "internalType": "uint256",
          "name": "",
          "type": "uint256"
        }
      ],
      "stateMutability": "view",
      "type": "function"
    },
    {
      "inputs": [
        {
          "internalType": "string",
          "name": "_URI",
          "type": "string"
        }
      ],
      "name": "setContractURI",
      "outputs": [],
      "stateMutability": "nonpayable",
      "type": "function"
    },
    {
      "inputs": [
        {
          "internalType": "address",
          "name": "account",
          "type": "address"
        }
      ],
      "name": "shares",
      "outputs": [
        {
          "internalType": "uint256",
          "name": "",
          "type": "uint256"
        }
      ],
      "stateMutability": "view",
      "type": "function"
    },
    {
      "inputs": [
        {
          "internalType": "contract IERC20",
          "name": "token",
          "type": "address"
        }
      ],
      "name": "totalReleased",
      "outputs": [
        {
          "internalType": "uint256",
          "name": "",
          "type": "uint256"
        }
      ],
      "stateMutability": "view",
      "type": "function"
    },
    {
      "inputs": [],
      "name": "totalReleased",
      "outputs": [
        {
          "internalType": "uint256",
          "name": "",
          "type": "uint256"
        }
      ],
      "stateMutability": "view",
      "type": "function"
    },
    {
      "inputs": [],
      "name": "totalShares",
      "outputs": [
        {
          "internalType": "uint256",
          "name": "",
          "type": "uint256"
        }
      ],
      "stateMutability": "view",
      "type": "function"
    },
    {
      "stateMutability": "payable",
      "type": "receive"
    }
  ],
  "bytecode": "0x60806040523480156200001157600080fd5b50604051620019dd380380620019dd83398101604081905262000034916200056d565b600780546001600160a01b0319166001600160a01b0386161790558051825114620000cc5760405162461bcd60e51b815260206004820152603660248201527f526f79616c74793a20756e657175616c206e756d626572206f6620706179656560448201527f7320616e64207368617265732070726f76696465642e0000000000000000000060648201526084015b60405180910390fd5b60008251116200011f5760405162461bcd60e51b815260206004820152601c60248201527f526f79616c74793a206e6f207061796565732070726f76696465642e000000006044820152606401620000c3565b825162000134906009906020860190620003e1565b50600880546001600160a01b0319166001600160a01b03871617905560005b8251811015620001e95760008282815181106200018057634e487b7160e01b600052603260045260246000fd5b602002602001015161271062000197919062000713565b9050620001d3848381518110620001be57634e487b7160e01b600052603260045260246000fd5b602002602001015182620001f560201b60201c565b5080620001e08162000772565b91505062000153565b505050505050620007d5565b6001600160a01b038216620002625760405162461bcd60e51b815260206004820152602c60248201527f5061796d656e7453706c69747465723a206163636f756e74206973207468652060448201526b7a65726f206164647265737360a01b6064820152608401620000c3565b60008111620002b45760405162461bcd60e51b815260206004820152601d60248201527f5061796d656e7453706c69747465723a207368617265732061726520300000006044820152606401620000c3565b6001600160a01b03821660009081526002602052604090205415620003305760405162461bcd60e51b815260206004820152602b60248201527f5061796d656e7453706c69747465723a206163636f756e7420616c726561647960448201526a206861732073686172657360a81b6064820152608401620000c3565b60048054600181019091557f8a35acfbc15ff81a39ae7d344fd709f28e8600b4aa8c65c6b64bfe7fe36bd19b0180546001600160a01b0319166001600160a01b03841690811790915560009081526002602052604081208290555462000398908290620006f8565b600055604080516001600160a01b0384168152602081018390527f40c340f65e17194d14ddddb073d3c9f888e3cb52b5aae0c6c7706b4fbc905fac910160405180910390a15050565b828054620003ef9062000735565b90600052602060002090601f0160209004810192826200041357600085556200045e565b82601f106200042e57805160ff19168380011785556200045e565b828001600101855582156200045e579182015b828111156200045e57825182559160200191906001019062000441565b506200046c92915062000470565b5090565b5b808211156200046c576000815560010162000471565b600082601f83011262000498578081fd5b81516020620004b1620004ab83620006d2565b6200069f565b80838252828201915082860187848660051b8901011115620004d1578586fd5b855b85811015620004fc578151620004e981620007bc565b84529284019290840190600101620004d3565b5090979650505050505050565b600082601f8301126200051a578081fd5b815160206200052d620004ab83620006d2565b80838252828201915082860187848660051b89010111156200054d578586fd5b855b85811015620004fc578151845292840192908401906001016200054f565b600080600080600060a0868803121562000585578081fd5b85516200059281620007bc565b80955050602080870151620005a781620007bc565b60408801519095506001600160401b0380821115620005c4578384fd5b818901915089601f830112620005d8578384fd5b815181811115620005ed57620005ed620007a6565b62000601601f8201601f191685016200069f565b8181528b8583860101111562000615578586fd5b855b828110156200063457848101860151828201870152850162000617565b828111156200064557868684840101525b5060608b0151909750935050808311156200065e578384fd5b6200066c8a848b0162000487565b9450608089015192508083111562000682578384fd5b5050620006928882890162000509565b9150509295509295909350565b604051601f8201601f191681016001600160401b0381118282101715620006ca57620006ca620007a6565b604052919050565b60006001600160401b03821115620006ee57620006ee620007a6565b5060051b60200190565b600082198211156200070e576200070e62000790565b500190565b600081600019048311821515161562000730576200073062000790565b500290565b600181811c908216806200074a57607f821691505b602082108114156200076c57634e487b7160e01b600052602260045260246000fd5b50919050565b600060001982141562000789576200078962000790565b5060010190565b634e487b7160e01b600052601160045260246000fd5b634e487b7160e01b600052604160045260246000fd5b6001600160a01b0381168114620007d257600080fd5b50565b6111f880620007e56000396000f3fe6080604052600436106100eb5760003560e01c80638b83209b1161008a578063d79779b211610059578063d79779b214610324578063e33b7de31461035a578063e4fc6b6d1461036f578063e8a3d4851461038457600080fd5b80638b83209b14610260578063938e3d7b146102985780639852595c146102b8578063ce7c2ac2146102ee57600080fd5b8063406072a9116100c6578063406072a91461019b57806348b75044146101e1578063572b6c051461020157806363453ae11461024057600080fd5b8062dbe1091461014057806319165587146101645780633a98ef391461018657600080fd5b3661013b577f6ef95f06320e7a25a04a175ca677b7052bdd97131872c2192525a629f51be7706101196103a6565b604080516001600160a01b0390921682523460208301520160405180910390a1005b600080fd5b34801561014c57600080fd5b506004545b6040519081526020015b60405180910390f35b34801561017057600080fd5b5061018461017f366004610f6c565b6103b5565b005b34801561019257600080fd5b50600054610151565b3480156101a757600080fd5b506101516101b6366004610fc0565b6001600160a01b03918216600090815260066020908152604080832093909416825291909152205490565b3480156101ed57600080fd5b506101846101fc366004610fc0565b61056b565b34801561020d57600080fd5b5061023061021c366004610f6c565b6007546001600160a01b0391821691161490565b604051901515815260200161015b565b34801561024c57600080fd5b5061018461025b366004610f6c565b6107d6565b34801561026c57600080fd5b5061028061027b366004611065565b610838565b6040516001600160a01b03909116815260200161015b565b3480156102a457600080fd5b506101846102b3366004610ff8565b610876565b3480156102c457600080fd5b506101516102d3366004610f6c565b6001600160a01b031660009081526003602052604090205490565b3480156102fa57600080fd5b50610151610309366004610f6c565b6001600160a01b031660009081526002602052604090205490565b34801561033057600080fd5b5061015161033f366004610f6c565b6001600160a01b031660009081526005602052604090205490565b34801561036657600080fd5b50600154610151565b34801561037b57600080fd5b50610184610a1b565b34801561039057600080fd5b50610399610a7b565b60405161015b9190611099565b60006103b0610b0d565b905090565b6001600160a01b03811660009081526002602052604090205461042e5760405162461bcd60e51b815260206004820152602660248201527f5061796d656e7453706c69747465723a206163636f756e7420686173206e6f2060448201526573686172657360d01b60648201526084015b60405180910390fd5b600061043960015490565b61044390476110cc565b90506000610470838361046b866001600160a01b031660009081526003602052604090205490565b610b35565b9050806104d35760405162461bcd60e51b815260206004820152602b60248201527f5061796d656e7453706c69747465723a206163636f756e74206973206e6f742060448201526a191d59481c185e5b595b9d60aa1b6064820152608401610425565b6001600160a01b038316600090815260036020526040812080548392906104fb9084906110cc565b92505081905550806001600082825461051491906110cc565b9091555061052490508382610b7a565b604080516001600160a01b0385168152602081018390527fdf20fd1e76bc69d672e4814fafb2c449bba3a5369d8359adf9e05e6fde87b056910160405180910390a1505050565b6001600160a01b0381166000908152600260205260409020546105df5760405162461bcd60e51b815260206004820152602660248201527f5061796d656e7453706c69747465723a206163636f756e7420686173206e6f2060448201526573686172657360d01b6064820152608401610425565b6001600160a01b0382166000908152600560205260408120546040516370a0823160e01b81523060048201526001600160a01b038516906370a082319060240160206040518083038186803b15801561063757600080fd5b505afa15801561064b573d6000803e3d6000fd5b505050506040513d601f19601f8201168201806040525081019061066f9190610fa8565b61067991906110cc565b905060006106b2838361046b87876001600160a01b03918216600090815260066020908152604080832093909416825291909152205490565b9050806107155760405162461bcd60e51b815260206004820152602b60248201527f5061796d656e7453706c69747465723a206163636f756e74206973206e6f742060448201526a191d59481c185e5b595b9d60aa1b6064820152608401610425565b6001600160a01b0380851660009081526006602090815260408083209387168352929052908120805483929061074c9084906110cc565b90915550506001600160a01b038416600090815260056020526040812080548392906107799084906110cc565b9091555061078a9050848483610c93565b604080516001600160a01b038581168252602082018490528616917f3be5b7a71e84ed12875d241991c70855ac5817d847039e17a9d895c1ceb0f18a910160405180910390a250505050565b60005b60045481101561083457610822826004838154811061080857634e487b7160e01b600052603260045260246000fd5b6000918252602090912001546001600160a01b031661056b565b8061082c816111a5565b9150506107d9565b5050565b60006004828154811061085b57634e487b7160e01b600052603260045260246000fd5b6000918252602090912001546001600160a01b031692915050565b6008546040805163a217fddf60e01b815290516001600160a01b03909216916391d1485491839163a217fddf91600480820192602092909190829003018186803b1580156108c357600080fd5b505afa1580156108d7573d6000803e3d6000fd5b505050506040513d601f19601f820116820180604052508101906108fb9190610fa8565b6109036103a6565b6040517fffffffff0000000000000000000000000000000000000000000000000000000060e085901b16815260048101929092526001600160a01b0316602482015260440160206040518083038186803b15801561096057600080fd5b505afa158015610974573d6000803e3d6000fd5b505050506040513d601f19601f820116820180604052508101906109989190610f88565b610a0a5760405162461bcd60e51b815260206004820152603660248201527f526f79616c74793a206f6e6c7920612070726f746f636f6c2061646d696e206360448201527f616e2063616c6c20746869732066756e6374696f6e2e000000000000000000006064820152608401610425565b610a1660098383610ed3565b505050565b60005b600454811015610a7857610a6660048281548110610a4c57634e487b7160e01b600052603260045260246000fd5b6000918252602090912001546001600160a01b03166103b5565b80610a70816111a5565b915050610a1e565b50565b606060098054610a8a9061116a565b80601f0160208091040260200160405190810160405280929190818152602001828054610ab69061116a565b8015610b035780601f10610ad857610100808354040283529160200191610b03565b820191906000526020600020905b815481529060010190602001808311610ae657829003601f168201915b5050505050905090565b6007546000906001600160a01b0316331415610b30575060131936013560601c90565b503390565b600080546001600160a01b038516825260026020526040822054839190610b5c9086611104565b610b6691906110e4565b610b709190611123565b90505b9392505050565b80471015610bca5760405162461bcd60e51b815260206004820152601d60248201527f416464726573733a20696e73756666696369656e742062616c616e63650000006044820152606401610425565b6000826001600160a01b03168260405160006040518083038185875af1925050503d8060008114610c17576040519150601f19603f3d011682016040523d82523d6000602084013e610c1c565b606091505b5050905080610a165760405162461bcd60e51b815260206004820152603a60248201527f416464726573733a20756e61626c6520746f2073656e642076616c75652c207260448201527f6563697069656e74206d617920686176652072657665727465640000000000006064820152608401610425565b604080516001600160a01b03848116602483015260448083018590528351808403909101815260649092018352602080830180517bffffffffffffffffffffffffffffffffffffffffffffffffffffffff1663a9059cbb60e01b17905283518085019094528084527f5361666545524332303a206c6f772d6c6576656c2063616c6c206661696c656490840152610a1692869291600091610d38918516908490610dc8565b805190915015610a165780806020019051810190610d569190610f88565b610a165760405162461bcd60e51b815260206004820152602a60248201527f5361666545524332303a204552433230206f7065726174696f6e20646964206e60448201527f6f742073756363656564000000000000000000000000000000000000000000006064820152608401610425565b6060610b70848460008585843b610e215760405162461bcd60e51b815260206004820152601d60248201527f416464726573733a2063616c6c20746f206e6f6e2d636f6e74726163740000006044820152606401610425565b600080866001600160a01b03168587604051610e3d919061107d565b60006040518083038185875af1925050503d8060008114610e7a576040519150601f19603f3d011682016040523d82523d6000602084013e610e7f565b606091505b5091509150610e8f828286610e9a565b979650505050505050565b60608315610ea9575081610b73565b825115610eb95782518084602001fd5b8160405162461bcd60e51b81526004016104259190611099565b828054610edf9061116a565b90600052602060002090601f016020900481019282610f015760008555610f47565b82601f10610f1a5782800160ff19823516178555610f47565b82800160010185558215610f47579182015b82811115610f47578235825591602001919060010190610f2c565b50610f53929150610f57565b5090565b5b80821115610f535760008155600101610f58565b600060208284031215610f7d578081fd5b8135610b73816111d6565b600060208284031215610f99578081fd5b81518015158114610b73578182fd5b600060208284031215610fb9578081fd5b5051919050565b60008060408385031215610fd2578081fd5b8235610fdd816111d6565b91506020830135610fed816111d6565b809150509250929050565b6000806020838503121561100a578182fd5b823567ffffffffffffffff80821115611021578384fd5b818501915085601f830112611034578384fd5b813581811115611042578485fd5b866020828501011115611053578485fd5b60209290920196919550909350505050565b600060208284031215611076578081fd5b5035919050565b6000825161108f81846020870161113a565b9190910192915050565b60208152600082518060208401526110b881604085016020870161113a565b601f01601f19169190910160400192915050565b600082198211156110df576110df6111c0565b500190565b6000826110ff57634e487b7160e01b81526012600452602481fd5b500490565b600081600019048311821515161561111e5761111e6111c0565b500290565b600082821015611135576111356111c0565b500390565b60005b8381101561115557818101518382015260200161113d565b83811115611164576000848401525b50505050565b600181811c9082168061117e57607f821691505b6020821081141561119f57634e487b7160e01b600052602260045260246000fd5b50919050565b60006000198214156111b9576111b96111c0565b5060010190565b634e487b7160e01b600052601160045260246000fd5b6001600160a01b0381168114610a7857600080fdfea164736f6c6343000804000a",
  "linkReferences": {},
  "deployedLinkReferences": {}
}