{
  "_format": "hh-sol-artifact-1",
  "contractName": "MockRoyaltyNoFees",
  "sourceName": "contracts/test-helpers/MockRoyaltyNoFees.sol",
  "abi": [
    {
      "inputs": [
        {
          "internalType": "address payable",
          "name": "_controlCenter",
          "type": "address"
        },
        {
          "internalType": "address",
          "name": "_trustedForwarder",
          "type": "address"
        },
        {
          "internalType": "string",
          "name": "_uri",
          "type": "string"
        },
        {
          "internalType": "address[]",
          "name": "payees",
          "type": "address[]"
        },
        {
          "internalType": "uint256[]",
          "name": "shares_",
          "type": "uint256[]"
        }
      ],
      "stateMutability": "nonpayable",
      "type": "constructor"
    },
    {
      "anonymous": false,
      "inputs": [
        {
          "indexed": true,
          "internalType": "contract IERC20",
          "name": "token",
          "type": "address"
        },
        {
          "indexed": false,
          "internalType": "address",
          "name": "to",
          "type": "address"
        },
        {
          "indexed": false,
          "internalType": "uint256",
          "name": "amount",
          "type": "uint256"
        }
      ],
      "name": "ERC20PaymentReleased",
      "type": "event"
    },
    {
      "anonymous": false,
      "inputs": [
        {
          "indexed": false,
          "internalType": "address",
          "name": "account",
          "type": "address"
        },
        {
          "indexed": false,
          "internalType": "uint256",
          "name": "shares",
          "type": "uint256"
        }
      ],
      "name": "PayeeAdded",
      "type": "event"
    },
    {
      "anonymous": false,
      "inputs": [
        {
          "indexed": false,
          "internalType": "address",
          "name": "from",
          "type": "address"
        },
        {
          "indexed": false,
          "internalType": "uint256",
          "name": "amount",
          "type": "uint256"
        }
      ],
      "name": "PaymentReceived",
      "type": "event"
    },
    {
      "anonymous": false,
      "inputs": [
        {
          "indexed": false,
          "internalType": "address",
          "name": "to",
          "type": "address"
        },
        {
          "indexed": false,
          "internalType": "uint256",
          "name": "amount",
          "type": "uint256"
        }
      ],
      "name": "PaymentReleased",
      "type": "event"
    },
    {
      "inputs": [],
      "name": "contractURI",
      "outputs": [
        {
          "internalType": "string",
          "name": "",
          "type": "string"
        }
      ],
      "stateMutability": "view",
      "type": "function"
    },
    {
      "inputs": [
        {
          "internalType": "address",
          "name": "forwarder",
          "type": "address"
        }
      ],
      "name": "isTrustedForwarder",
      "outputs": [
        {
          "internalType": "bool",
          "name": "",
          "type": "bool"
        }
      ],
      "stateMutability": "view",
      "type": "function"
    },
    {
      "inputs": [
        {
          "internalType": "uint256",
          "name": "index",
          "type": "uint256"
        }
      ],
      "name": "payee",
      "outputs": [
        {
          "internalType": "address",
          "name": "",
          "type": "address"
        }
      ],
      "stateMutability": "view",
      "type": "function"
    },
    {
      "inputs": [
        {
          "internalType": "address payable",
          "name": "account",
          "type": "address"
        }
      ],
      "name": "release",
      "outputs": [],
      "stateMutability": "nonpayable",
      "type": "function"
    },
    {
      "inputs": [
        {
          "internalType": "contract IERC20",
          "name": "token",
          "type": "address"
        },
        {
          "internalType": "address",
          "name": "account",
          "type": "address"
        }
      ],
      "name": "release",
      "outputs": [],
      "stateMutability": "nonpayable",
      "type": "function"
    },
    {
      "inputs": [
        {
          "internalType": "contract IERC20",
          "name": "token",
          "type": "address"
        },
        {
          "internalType": "address",
          "name": "account",
          "type": "address"
        }
      ],
      "name": "released",
      "outputs": [
        {
          "internalType": "uint256",
          "name": "",
          "type": "uint256"
        }
      ],
      "stateMutability": "view",
      "type": "function"
    },
    {
      "inputs": [
        {
          "internalType": "address",
          "name": "account",
          "type": "address"
        }
      ],
      "name": "released",
      "outputs": [
        {
          "internalType": "uint256",
          "name": "",
          "type": "uint256"
        }
      ],
      "stateMutability": "view",
      "type": "function"
    },
    {
      "inputs": [
        {
          "internalType": "string",
          "name": "_URI",
          "type": "string"
        }
      ],
      "name": "setContractURI",
      "outputs": [],
      "stateMutability": "nonpayable",
      "type": "function"
    },
    {
      "inputs": [
        {
          "internalType": "address",
          "name": "account",
          "type": "address"
        }
      ],
      "name": "shares",
      "outputs": [
        {
          "internalType": "uint256",
          "name": "",
          "type": "uint256"
        }
      ],
      "stateMutability": "view",
      "type": "function"
    },
    {
      "inputs": [
        {
          "internalType": "contract IERC20",
          "name": "token",
          "type": "address"
        }
      ],
      "name": "totalReleased",
      "outputs": [
        {
          "internalType": "uint256",
          "name": "",
          "type": "uint256"
        }
      ],
      "stateMutability": "view",
      "type": "function"
    },
    {
      "inputs": [],
      "name": "totalReleased",
      "outputs": [
        {
          "internalType": "uint256",
          "name": "",
          "type": "uint256"
        }
      ],
      "stateMutability": "view",
      "type": "function"
    },
    {
      "inputs": [],
      "name": "totalShares",
      "outputs": [
        {
          "internalType": "uint256",
          "name": "",
          "type": "uint256"
        }
      ],
      "stateMutability": "view",
      "type": "function"
    },
    {
      "stateMutability": "payable",
      "type": "receive"
    }
  ],
  "bytecode": "0x60806040523480156200001157600080fd5b50604051620018993803806200189983398101604081905262000034916200056d565b600780546001600160a01b0319166001600160a01b0386161790558051825114620000cc5760405162461bcd60e51b815260206004820152603660248201527f526f79616c74793a20756e657175616c206e756d626572206f6620706179656560448201527f7320616e64207368617265732070726f76696465642e0000000000000000000060648201526084015b60405180910390fd5b60008251116200011f5760405162461bcd60e51b815260206004820152601c60248201527f526f79616c74793a206e6f207061796565732070726f76696465642e000000006044820152606401620000c3565b825162000134906009906020860190620003e1565b50600880546001600160a01b0319166001600160a01b03871617905560005b8251811015620001e95760008282815181106200018057634e487b7160e01b600052603260045260246000fd5b602002602001015161271062000197919062000713565b9050620001d3848381518110620001be57634e487b7160e01b600052603260045260246000fd5b602002602001015182620001f560201b60201c565b5080620001e08162000772565b91505062000153565b505050505050620007d5565b6001600160a01b038216620002625760405162461bcd60e51b815260206004820152602c60248201527f5061796d656e7453706c69747465723a206163636f756e74206973207468652060448201526b7a65726f206164647265737360a01b6064820152608401620000c3565b60008111620002b45760405162461bcd60e51b815260206004820152601d60248201527f5061796d656e7453706c69747465723a207368617265732061726520300000006044820152606401620000c3565b6001600160a01b03821660009081526002602052604090205415620003305760405162461bcd60e51b815260206004820152602b60248201527f5061796d656e7453706c69747465723a206163636f756e7420616c726561647960448201526a206861732073686172657360a81b6064820152608401620000c3565b60048054600181019091557f8a35acfbc15ff81a39ae7d344fd709f28e8600b4aa8c65c6b64bfe7fe36bd19b0180546001600160a01b0319166001600160a01b03841690811790915560009081526002602052604081208290555462000398908290620006f8565b600055604080516001600160a01b0384168152602081018390527f40c340f65e17194d14ddddb073d3c9f888e3cb52b5aae0c6c7706b4fbc905fac910160405180910390a15050565b828054620003ef9062000735565b90600052602060002090601f0160209004810192826200041357600085556200045e565b82601f106200042e57805160ff19168380011785556200045e565b828001600101855582156200045e579182015b828111156200045e57825182559160200191906001019062000441565b506200046c92915062000470565b5090565b5b808211156200046c576000815560010162000471565b600082601f83011262000498578081fd5b81516020620004b1620004ab83620006d2565b6200069f565b80838252828201915082860187848660051b8901011115620004d1578586fd5b855b85811015620004fc578151620004e981620007bc565b84529284019290840190600101620004d3565b5090979650505050505050565b600082601f8301126200051a578081fd5b815160206200052d620004ab83620006d2565b80838252828201915082860187848660051b89010111156200054d578586fd5b855b85811015620004fc578151845292840192908401906001016200054f565b600080600080600060a0868803121562000585578081fd5b85516200059281620007bc565b80955050602080870151620005a781620007bc565b60408801519095506001600160401b0380821115620005c4578384fd5b818901915089601f830112620005d8578384fd5b815181811115620005ed57620005ed620007a6565b62000601601f8201601f191685016200069f565b8181528b8583860101111562000615578586fd5b855b828110156200063457848101860151828201870152850162000617565b828111156200064557868684840101525b5060608b0151909750935050808311156200065e578384fd5b6200066c8a848b0162000487565b9450608089015192508083111562000682578384fd5b5050620006928882890162000509565b9150509295509295909350565b604051601f8201601f191681016001600160401b0381118282101715620006ca57620006ca620007a6565b604052919050565b60006001600160401b03821115620006ee57620006ee620007a6565b5060051b60200190565b600082198211156200070e576200070e62000790565b500190565b600081600019048311821515161562000730576200073062000790565b500290565b600181811c908216806200074a57607f821691505b602082108114156200076c57634e487b7160e01b600052602260045260246000fd5b50919050565b600060001982141562000789576200078962000790565b5060010190565b634e487b7160e01b600052601160045260246000fd5b634e487b7160e01b600052604160045260246000fd5b6001600160a01b0381168114620007d257600080fd5b50565b6110b480620007e56000396000f3fe6080604052600436106100cb5760003560e01c8063938e3d7b11610074578063d79779b21161004e578063d79779b2146102cf578063e33b7de314610305578063e8a3d4851461031a57600080fd5b8063938e3d7b146102435780639852595c14610263578063ce7c2ac21461029957600080fd5b806348b75044116100a557806348b75044146101ac578063572b6c05146101cc5780638b83209b1461020b57600080fd5b806319165587146101205780633a98ef3914610142578063406072a91461016657600080fd5b3661011b577f6ef95f06320e7a25a04a175ca677b7052bdd97131872c2192525a629f51be7706100f961033c565b604080516001600160a01b0390921682523460208301520160405180910390a1005b600080fd5b34801561012c57600080fd5b5061014061013b366004610e40565b61034b565b005b34801561014e57600080fd5b506000545b6040519081526020015b60405180910390f35b34801561017257600080fd5b50610153610181366004610e94565b6001600160a01b03918216600090815260066020908152604080832093909416825291909152205490565b3480156101b857600080fd5b506101406101c7366004610e94565b610501565b3480156101d857600080fd5b506101fb6101e7366004610e40565b6007546001600160a01b0391821691161490565b604051901515815260200161015d565b34801561021757600080fd5b5061022b610226366004610f39565b61076c565b6040516001600160a01b03909116815260200161015d565b34801561024f57600080fd5b5061014061025e366004610ecc565b6107aa565b34801561026f57600080fd5b5061015361027e366004610e40565b6001600160a01b031660009081526003602052604090205490565b3480156102a557600080fd5b506101536102b4366004610e40565b6001600160a01b031660009081526002602052604090205490565b3480156102db57600080fd5b506101536102ea366004610e40565b6001600160a01b031660009081526005602052604090205490565b34801561031157600080fd5b50600154610153565b34801561032657600080fd5b5061032f61094f565b60405161015d9190610f6d565b60006103466109e1565b905090565b6001600160a01b0381166000908152600260205260409020546103c45760405162461bcd60e51b815260206004820152602660248201527f5061796d656e7453706c69747465723a206163636f756e7420686173206e6f2060448201526573686172657360d01b60648201526084015b60405180910390fd5b60006103cf60015490565b6103d99047610fa0565b905060006104068383610401866001600160a01b031660009081526003602052604090205490565b610a09565b9050806104695760405162461bcd60e51b815260206004820152602b60248201527f5061796d656e7453706c69747465723a206163636f756e74206973206e6f742060448201526a191d59481c185e5b595b9d60aa1b60648201526084016103bb565b6001600160a01b03831660009081526003602052604081208054839290610491908490610fa0565b9250508190555080600160008282546104aa9190610fa0565b909155506104ba90508382610a4e565b604080516001600160a01b0385168152602081018390527fdf20fd1e76bc69d672e4814fafb2c449bba3a5369d8359adf9e05e6fde87b056910160405180910390a1505050565b6001600160a01b0381166000908152600260205260409020546105755760405162461bcd60e51b815260206004820152602660248201527f5061796d656e7453706c69747465723a206163636f756e7420686173206e6f2060448201526573686172657360d01b60648201526084016103bb565b6001600160a01b0382166000908152600560205260408120546040516370a0823160e01b81523060048201526001600160a01b038516906370a082319060240160206040518083038186803b1580156105cd57600080fd5b505afa1580156105e1573d6000803e3d6000fd5b505050506040513d601f19601f820116820180604052508101906106059190610e7c565b61060f9190610fa0565b90506000610648838361040187876001600160a01b03918216600090815260066020908152604080832093909416825291909152205490565b9050806106ab5760405162461bcd60e51b815260206004820152602b60248201527f5061796d656e7453706c69747465723a206163636f756e74206973206e6f742060448201526a191d59481c185e5b595b9d60aa1b60648201526084016103bb565b6001600160a01b038085166000908152600660209081526040808320938716835292905290812080548392906106e2908490610fa0565b90915550506001600160a01b0384166000908152600560205260408120805483929061070f908490610fa0565b909155506107209050848483610b67565b604080516001600160a01b038581168252602082018490528616917f3be5b7a71e84ed12875d241991c70855ac5817d847039e17a9d895c1ceb0f18a910160405180910390a250505050565b60006004828154811061078f57634e487b7160e01b600052603260045260246000fd5b6000918252602090912001546001600160a01b031692915050565b6008546040805163a217fddf60e01b815290516001600160a01b03909216916391d1485491839163a217fddf91600480820192602092909190829003018186803b1580156107f757600080fd5b505afa15801561080b573d6000803e3d6000fd5b505050506040513d601f19601f8201168201806040525081019061082f9190610e7c565b61083761033c565b6040517fffffffff0000000000000000000000000000000000000000000000000000000060e085901b16815260048101929092526001600160a01b0316602482015260440160206040518083038186803b15801561089457600080fd5b505afa1580156108a8573d6000803e3d6000fd5b505050506040513d601f19601f820116820180604052508101906108cc9190610e5c565b61093e5760405162461bcd60e51b815260206004820152603660248201527f526f79616c74793a206f6e6c7920612070726f746f636f6c2061646d696e206360448201527f616e2063616c6c20746869732066756e6374696f6e2e0000000000000000000060648201526084016103bb565b61094a60098383610da7565b505050565b60606009805461095e9061103e565b80601f016020809104026020016040519081016040528092919081815260200182805461098a9061103e565b80156109d75780601f106109ac576101008083540402835291602001916109d7565b820191906000526020600020905b8154815290600101906020018083116109ba57829003601f168201915b5050505050905090565b6007546000906001600160a01b0316331415610a04575060131936013560601c90565b503390565b600080546001600160a01b038516825260026020526040822054839190610a309086610fd8565b610a3a9190610fb8565b610a449190610ff7565b90505b9392505050565b80471015610a9e5760405162461bcd60e51b815260206004820152601d60248201527f416464726573733a20696e73756666696369656e742062616c616e636500000060448201526064016103bb565b6000826001600160a01b03168260405160006040518083038185875af1925050503d8060008114610aeb576040519150601f19603f3d011682016040523d82523d6000602084013e610af0565b606091505b505090508061094a5760405162461bcd60e51b815260206004820152603a60248201527f416464726573733a20756e61626c6520746f2073656e642076616c75652c207260448201527f6563697069656e74206d6179206861766520726576657274656400000000000060648201526084016103bb565b604080516001600160a01b03848116602483015260448083018590528351808403909101815260649092018352602080830180517bffffffffffffffffffffffffffffffffffffffffffffffffffffffff1663a9059cbb60e01b17905283518085019094528084527f5361666545524332303a206c6f772d6c6576656c2063616c6c206661696c65649084015261094a92869291600091610c0c918516908490610c9c565b80519091501561094a5780806020019051810190610c2a9190610e5c565b61094a5760405162461bcd60e51b815260206004820152602a60248201527f5361666545524332303a204552433230206f7065726174696f6e20646964206e60448201527f6f7420737563636565640000000000000000000000000000000000000000000060648201526084016103bb565b6060610a44848460008585843b610cf55760405162461bcd60e51b815260206004820152601d60248201527f416464726573733a2063616c6c20746f206e6f6e2d636f6e747261637400000060448201526064016103bb565b600080866001600160a01b03168587604051610d119190610f51565b60006040518083038185875af1925050503d8060008114610d4e576040519150601f19603f3d011682016040523d82523d6000602084013e610d53565b606091505b5091509150610d63828286610d6e565b979650505050505050565b60608315610d7d575081610a47565b825115610d8d5782518084602001fd5b8160405162461bcd60e51b81526004016103bb9190610f6d565b828054610db39061103e565b90600052602060002090601f016020900481019282610dd55760008555610e1b565b82601f10610dee5782800160ff19823516178555610e1b565b82800160010185558215610e1b579182015b82811115610e1b578235825591602001919060010190610e00565b50610e27929150610e2b565b5090565b5b80821115610e275760008155600101610e2c565b600060208284031215610e51578081fd5b8135610a478161108f565b600060208284031215610e6d578081fd5b81518015158114610a47578182fd5b600060208284031215610e8d578081fd5b5051919050565b60008060408385031215610ea6578081fd5b8235610eb18161108f565b91506020830135610ec18161108f565b809150509250929050565b60008060208385031215610ede578182fd5b823567ffffffffffffffff80821115610ef5578384fd5b818501915085601f830112610f08578384fd5b813581811115610f16578485fd5b866020828501011115610f27578485fd5b60209290920196919550909350505050565b600060208284031215610f4a578081fd5b5035919050565b60008251610f6381846020870161100e565b9190910192915050565b6020815260008251806020840152610f8c81604085016020870161100e565b601f01601f19169190910160400192915050565b60008219821115610fb357610fb3611079565b500190565b600082610fd357634e487b7160e01b81526012600452602481fd5b500490565b6000816000190483118215151615610ff257610ff2611079565b500290565b60008282101561100957611009611079565b500390565b60005b83811015611029578181015183820152602001611011565b83811115611038576000848401525b50505050565b600181811c9082168061105257607f821691505b6020821081141561107357634e487b7160e01b600052602260045260246000fd5b50919050565b634e487b7160e01b600052601160045260246000fd5b6001600160a01b03811681146110a457600080fd5b5056fea164736f6c6343000804000a",
  "linkReferences": {},
  "deployedLinkReferences": {}
}