{
  "_format": "hh-sol-artifact-1",
  "contractName": "MarketWithAuction",
  "sourceName": "contracts/v2/MarketWithAuction.sol",
  "abi": [
    {
      "inputs": [
        {
          "internalType": "address payable",
          "name": "_controlCenter",
          "type": "address"
        },
        {
          "internalType": "address",
          "name": "_trustedForwarder",
          "type": "address"
        },
        {
          "internalType": "address",
          "name": "_nativeTokenWrapper",
          "type": "address"
        },
        {
          "internalType": "string",
          "name": "_uri",
          "type": "string"
        },
        {
          "internalType": "uint256",
          "name": "_marketFeeBps",
          "type": "uint256"
        }
      ],
      "stateMutability": "nonpayable",
      "type": "constructor"
    },
    {
      "anonymous": false,
      "inputs": [
        {
          "indexed": false,
          "internalType": "uint256",
          "name": "timeBuffer",
          "type": "uint256"
        },
        {
          "indexed": false,
          "internalType": "uint256",
          "name": "bidBufferBps",
          "type": "uint256"
        }
      ],
      "name": "AuctionBuffersUpdated",
      "type": "event"
    },
    {
      "anonymous": false,
      "inputs": [
        {
          "indexed": true,
          "internalType": "uint256",
          "name": "listingId",
          "type": "uint256"
        },
        {
          "indexed": true,
          "internalType": "address",
          "name": "auctionCreator",
          "type": "address"
        },
        {
          "components": [
            {
              "internalType": "uint256",
              "name": "listingId",
              "type": "uint256"
            },
            {
              "internalType": "address",
              "name": "tokenOwner",
              "type": "address"
            },
            {
              "internalType": "address",
              "name": "assetContract",
              "type": "address"
            },
            {
              "internalType": "uint256",
              "name": "tokenId",
              "type": "uint256"
            },
            {
              "internalType": "uint256",
              "name": "startTime",
              "type": "uint256"
            },
            {
              "internalType": "uint256",
              "name": "endTime",
              "type": "uint256"
            },
            {
              "internalType": "uint256",
              "name": "quantity",
              "type": "uint256"
            },
            {
              "internalType": "address",
              "name": "currency",
              "type": "address"
            },
            {
              "internalType": "uint256",
              "name": "reservePricePerToken",
              "type": "uint256"
            },
            {
              "internalType": "uint256",
              "name": "buyoutPricePerToken",
              "type": "uint256"
            },
            {
              "internalType": "uint256",
              "name": "tokensPerBuyer",
              "type": "uint256"
            },
            {
              "internalType": "enum IMarket.TokenType",
              "name": "tokenType",
              "type": "uint8"
            },
            {
              "internalType": "enum IMarket.ListingType",
              "name": "listingType",
              "type": "uint8"
            }
          ],
          "indexed": false,
          "internalType": "struct IMarket.Listing",
          "name": "listing",
          "type": "tuple"
        }
      ],
      "name": "AuctionCanceled",
      "type": "event"
    },
    {
      "anonymous": false,
      "inputs": [
        {
          "indexed": true,
          "internalType": "uint256",
          "name": "listingId",
          "type": "uint256"
        },
        {
          "indexed": true,
          "internalType": "address",
          "name": "closer",
          "type": "address"
        },
        {
          "indexed": false,
          "internalType": "address",
          "name": "auctionCreator",
          "type": "address"
        },
        {
          "indexed": false,
          "internalType": "address",
          "name": "winningBidder",
          "type": "address"
        },
        {
          "components": [
            {
              "internalType": "uint256",
              "name": "listingId",
              "type": "uint256"
            },
            {
              "internalType": "address",
              "name": "offeror",
              "type": "address"
            },
            {
              "internalType": "uint256",
              "name": "quantityWanted",
              "type": "uint256"
            },
            {
              "internalType": "uint256",
              "name": "offerAmount",
              "type": "uint256"
            }
          ],
          "indexed": false,
          "internalType": "struct IMarket.Offer",
          "name": "winningBid",
          "type": "tuple"
        },
        {
          "components": [
            {
              "internalType": "uint256",
              "name": "listingId",
              "type": "uint256"
            },
            {
              "internalType": "address",
              "name": "tokenOwner",
              "type": "address"
            },
            {
              "internalType": "address",
              "name": "assetContract",
              "type": "address"
            },
            {
              "internalType": "uint256",
              "name": "tokenId",
              "type": "uint256"
            },
            {
              "internalType": "uint256",
              "name": "startTime",
              "type": "uint256"
            },
            {
              "internalType": "uint256",
              "name": "endTime",
              "type": "uint256"
            },
            {
              "internalType": "uint256",
              "name": "quantity",
              "type": "uint256"
            },
            {
              "internalType": "address",
              "name": "currency",
              "type": "address"
            },
            {
              "internalType": "uint256",
              "name": "reservePricePerToken",
              "type": "uint256"
            },
            {
              "internalType": "uint256",
              "name": "buyoutPricePerToken",
              "type": "uint256"
            },
            {
              "internalType": "uint256",
              "name": "tokensPerBuyer",
              "type": "uint256"
            },
            {
              "internalType": "enum IMarket.TokenType",
              "name": "tokenType",
              "type": "uint8"
            },
            {
              "internalType": "enum IMarket.ListingType",
              "name": "listingType",
              "type": "uint8"
            }
          ],
          "indexed": false,
          "internalType": "struct IMarket.Listing",
          "name": "listing",
          "type": "tuple"
        }
      ],
      "name": "AuctionClosed",
      "type": "event"
    },
    {
      "anonymous": false,
      "inputs": [
        {
          "indexed": false,
          "internalType": "address",
          "name": "from",
          "type": "address"
        },
        {
          "indexed": false,
          "internalType": "uint256",
          "name": "amount",
          "type": "uint256"
        }
      ],
      "name": "EtherReceived",
      "type": "event"
    },
    {
      "anonymous": false,
      "inputs": [
        {
          "indexed": true,
          "internalType": "address",
          "name": "listingCreator",
          "type": "address"
        },
        {
          "indexed": true,
          "internalType": "uint256",
          "name": "listingId",
          "type": "uint256"
        },
        {
          "components": [
            {
              "internalType": "uint256",
              "name": "listingId",
              "type": "uint256"
            },
            {
              "internalType": "address",
              "name": "tokenOwner",
              "type": "address"
            },
            {
              "internalType": "address",
              "name": "assetContract",
              "type": "address"
            },
            {
              "internalType": "uint256",
              "name": "tokenId",
              "type": "uint256"
            },
            {
              "internalType": "uint256",
              "name": "startTime",
              "type": "uint256"
            },
            {
              "internalType": "uint256",
              "name": "endTime",
              "type": "uint256"
            },
            {
              "internalType": "uint256",
              "name": "quantity",
              "type": "uint256"
            },
            {
              "internalType": "address",
              "name": "currency",
              "type": "address"
            },
            {
              "internalType": "uint256",
              "name": "reservePricePerToken",
              "type": "uint256"
            },
            {
              "internalType": "uint256",
              "name": "buyoutPricePerToken",
              "type": "uint256"
            },
            {
              "internalType": "uint256",
              "name": "tokensPerBuyer",
              "type": "uint256"
            },
            {
              "internalType": "enum IMarket.TokenType",
              "name": "tokenType",
              "type": "uint8"
            },
            {
              "internalType": "enum IMarket.ListingType",
              "name": "listingType",
              "type": "uint8"
            }
          ],
          "indexed": false,
          "internalType": "struct IMarket.Listing",
          "name": "listing",
          "type": "tuple"
        }
      ],
      "name": "ListingUpdate",
      "type": "event"
    },
    {
      "anonymous": false,
      "inputs": [
        {
          "indexed": false,
          "internalType": "uint64",
          "name": "newFee",
          "type": "uint64"
        }
      ],
      "name": "MarketFeeUpdate",
      "type": "event"
    },
    {
      "anonymous": false,
      "inputs": [
        {
          "indexed": true,
          "internalType": "uint256",
          "name": "listingId",
          "type": "uint256"
        },
        {
          "indexed": true,
          "internalType": "address",
          "name": "bidder",
          "type": "address"
        },
        {
          "components": [
            {
              "internalType": "uint256",
              "name": "listingId",
              "type": "uint256"
            },
            {
              "internalType": "address",
              "name": "offeror",
              "type": "address"
            },
            {
              "internalType": "uint256",
              "name": "quantityWanted",
              "type": "uint256"
            },
            {
              "internalType": "uint256",
              "name": "offerAmount",
              "type": "uint256"
            }
          ],
          "indexed": false,
          "internalType": "struct IMarket.Offer",
          "name": "bid",
          "type": "tuple"
        },
        {
          "components": [
            {
              "internalType": "uint256",
              "name": "listingId",
              "type": "uint256"
            },
            {
              "internalType": "address",
              "name": "tokenOwner",
              "type": "address"
            },
            {
              "internalType": "address",
              "name": "assetContract",
              "type": "address"
            },
            {
              "internalType": "uint256",
              "name": "tokenId",
              "type": "uint256"
            },
            {
              "internalType": "uint256",
              "name": "startTime",
              "type": "uint256"
            },
            {
              "internalType": "uint256",
              "name": "endTime",
              "type": "uint256"
            },
            {
              "internalType": "uint256",
              "name": "quantity",
              "type": "uint256"
            },
            {
              "internalType": "address",
              "name": "currency",
              "type": "address"
            },
            {
              "internalType": "uint256",
              "name": "reservePricePerToken",
              "type": "uint256"
            },
            {
              "internalType": "uint256",
              "name": "buyoutPricePerToken",
              "type": "uint256"
            },
            {
              "internalType": "uint256",
              "name": "tokensPerBuyer",
              "type": "uint256"
            },
            {
              "internalType": "enum IMarket.TokenType",
              "name": "tokenType",
              "type": "uint8"
            },
            {
              "internalType": "enum IMarket.ListingType",
              "name": "listingType",
              "type": "uint8"
            }
          ],
          "indexed": false,
          "internalType": "struct IMarket.Listing",
          "name": "listing",
          "type": "tuple"
        }
      ],
      "name": "NewBid",
      "type": "event"
    },
    {
      "anonymous": false,
      "inputs": [
        {
          "indexed": true,
          "internalType": "address",
          "name": "assetContract",
          "type": "address"
        },
        {
          "indexed": true,
          "internalType": "address",
          "name": "seller",
          "type": "address"
        },
        {
          "indexed": true,
          "internalType": "uint256",
          "name": "listingId",
          "type": "uint256"
        },
        {
          "indexed": false,
          "internalType": "address",
          "name": "buyer",
          "type": "address"
        },
        {
          "indexed": false,
          "internalType": "uint256",
          "name": "quantity",
          "type": "uint256"
        },
        {
          "components": [
            {
              "internalType": "uint256",
              "name": "listingId",
              "type": "uint256"
            },
            {
              "internalType": "address",
              "name": "tokenOwner",
              "type": "address"
            },
            {
              "internalType": "address",
              "name": "assetContract",
              "type": "address"
            },
            {
              "internalType": "uint256",
              "name": "tokenId",
              "type": "uint256"
            },
            {
              "internalType": "uint256",
              "name": "startTime",
              "type": "uint256"
            },
            {
              "internalType": "uint256",
              "name": "endTime",
              "type": "uint256"
            },
            {
              "internalType": "uint256",
              "name": "quantity",
              "type": "uint256"
            },
            {
              "internalType": "address",
              "name": "currency",
              "type": "address"
            },
            {
              "internalType": "uint256",
              "name": "reservePricePerToken",
              "type": "uint256"
            },
            {
              "internalType": "uint256",
              "name": "buyoutPricePerToken",
              "type": "uint256"
            },
            {
              "internalType": "uint256",
              "name": "tokensPerBuyer",
              "type": "uint256"
            },
            {
              "internalType": "enum IMarket.TokenType",
              "name": "tokenType",
              "type": "uint8"
            },
            {
              "internalType": "enum IMarket.ListingType",
              "name": "listingType",
              "type": "uint8"
            }
          ],
          "indexed": false,
          "internalType": "struct IMarket.Listing",
          "name": "listing",
          "type": "tuple"
        }
      ],
      "name": "NewDirectSale",
      "type": "event"
    },
    {
      "anonymous": false,
      "inputs": [
        {
          "indexed": true,
          "internalType": "address",
          "name": "assetContract",
          "type": "address"
        },
        {
          "indexed": true,
          "internalType": "address",
          "name": "seller",
          "type": "address"
        },
        {
          "indexed": true,
          "internalType": "uint256",
          "name": "listingId",
          "type": "uint256"
        },
        {
          "components": [
            {
              "internalType": "uint256",
              "name": "listingId",
              "type": "uint256"
            },
            {
              "internalType": "address",
              "name": "tokenOwner",
              "type": "address"
            },
            {
              "internalType": "address",
              "name": "assetContract",
              "type": "address"
            },
            {
              "internalType": "uint256",
              "name": "tokenId",
              "type": "uint256"
            },
            {
              "internalType": "uint256",
              "name": "startTime",
              "type": "uint256"
            },
            {
              "internalType": "uint256",
              "name": "endTime",
              "type": "uint256"
            },
            {
              "internalType": "uint256",
              "name": "quantity",
              "type": "uint256"
            },
            {
              "internalType": "address",
              "name": "currency",
              "type": "address"
            },
            {
              "internalType": "uint256",
              "name": "reservePricePerToken",
              "type": "uint256"
            },
            {
              "internalType": "uint256",
              "name": "buyoutPricePerToken",
              "type": "uint256"
            },
            {
              "internalType": "uint256",
              "name": "tokensPerBuyer",
              "type": "uint256"
            },
            {
              "internalType": "enum IMarket.TokenType",
              "name": "tokenType",
              "type": "uint8"
            },
            {
              "internalType": "enum IMarket.ListingType",
              "name": "listingType",
              "type": "uint8"
            }
          ],
          "indexed": false,
          "internalType": "struct IMarket.Listing",
          "name": "listing",
          "type": "tuple"
        }
      ],
      "name": "NewListing",
      "type": "event"
    },
    {
      "anonymous": false,
      "inputs": [
        {
          "indexed": true,
          "internalType": "uint256",
          "name": "listingId",
          "type": "uint256"
        },
        {
          "indexed": true,
          "internalType": "address",
          "name": "offeror",
          "type": "address"
        },
        {
          "components": [
            {
              "internalType": "uint256",
              "name": "listingId",
              "type": "uint256"
            },
            {
              "internalType": "address",
              "name": "offeror",
              "type": "address"
            },
            {
              "internalType": "uint256",
              "name": "quantityWanted",
              "type": "uint256"
            },
            {
              "internalType": "uint256",
              "name": "offerAmount",
              "type": "uint256"
            }
          ],
          "indexed": false,
          "internalType": "struct IMarket.Offer",
          "name": "offer",
          "type": "tuple"
        },
        {
          "components": [
            {
              "internalType": "uint256",
              "name": "listingId",
              "type": "uint256"
            },
            {
              "internalType": "address",
              "name": "tokenOwner",
              "type": "address"
            },
            {
              "internalType": "address",
              "name": "assetContract",
              "type": "address"
            },
            {
              "internalType": "uint256",
              "name": "tokenId",
              "type": "uint256"
            },
            {
              "internalType": "uint256",
              "name": "startTime",
              "type": "uint256"
            },
            {
              "internalType": "uint256",
              "name": "endTime",
              "type": "uint256"
            },
            {
              "internalType": "uint256",
              "name": "quantity",
              "type": "uint256"
            },
            {
              "internalType": "address",
              "name": "currency",
              "type": "address"
            },
            {
              "internalType": "uint256",
              "name": "reservePricePerToken",
              "type": "uint256"
            },
            {
              "internalType": "uint256",
              "name": "buyoutPricePerToken",
              "type": "uint256"
            },
            {
              "internalType": "uint256",
              "name": "tokensPerBuyer",
              "type": "uint256"
            },
            {
              "internalType": "enum IMarket.TokenType",
              "name": "tokenType",
              "type": "uint8"
            },
            {
              "internalType": "enum IMarket.ListingType",
              "name": "listingType",
              "type": "uint8"
            }
          ],
          "indexed": false,
          "internalType": "struct IMarket.Listing",
          "name": "listing",
          "type": "tuple"
        }
      ],
      "name": "NewOffer",
      "type": "event"
    },
    {
      "anonymous": false,
      "inputs": [
        {
          "indexed": false,
          "internalType": "bool",
          "name": "restricted",
          "type": "bool"
        }
      ],
      "name": "RestrictedListerRoleUpdated",
      "type": "event"
    },
    {
      "anonymous": false,
      "inputs": [
        {
          "indexed": true,
          "internalType": "bytes32",
          "name": "role",
          "type": "bytes32"
        },
        {
          "indexed": true,
          "internalType": "bytes32",
          "name": "previousAdminRole",
          "type": "bytes32"
        },
        {
          "indexed": true,
          "internalType": "bytes32",
          "name": "newAdminRole",
          "type": "bytes32"
        }
      ],
      "name": "RoleAdminChanged",
      "type": "event"
    },
    {
      "anonymous": false,
      "inputs": [
        {
          "indexed": true,
          "internalType": "bytes32",
          "name": "role",
          "type": "bytes32"
        },
        {
          "indexed": true,
          "internalType": "address",
          "name": "account",
          "type": "address"
        },
        {
          "indexed": true,
          "internalType": "address",
          "name": "sender",
          "type": "address"
        }
      ],
      "name": "RoleGranted",
      "type": "event"
    },
    {
      "anonymous": false,
      "inputs": [
        {
          "indexed": true,
          "internalType": "bytes32",
          "name": "role",
          "type": "bytes32"
        },
        {
          "indexed": true,
          "internalType": "address",
          "name": "account",
          "type": "address"
        },
        {
          "indexed": true,
          "internalType": "address",
          "name": "sender",
          "type": "address"
        }
      ],
      "name": "RoleRevoked",
      "type": "event"
    },
    {
      "inputs": [],
      "name": "DEFAULT_ADMIN_ROLE",
      "outputs": [
        {
          "internalType": "bytes32",
          "name": "",
          "type": "bytes32"
        }
      ],
      "stateMutability": "view",
      "type": "function"
    },
    {
      "inputs": [],
      "name": "LISTER_ROLE",
      "outputs": [
        {
          "internalType": "bytes32",
          "name": "",
          "type": "bytes32"
        }
      ],
      "stateMutability": "view",
      "type": "function"
    },
    {
      "inputs": [],
      "name": "MAX_BPS",
      "outputs": [
        {
          "internalType": "uint64",
          "name": "",
          "type": "uint64"
        }
      ],
      "stateMutability": "view",
      "type": "function"
    },
    {
      "inputs": [],
      "name": "_contractURI",
      "outputs": [
        {
          "internalType": "string",
          "name": "",
          "type": "string"
        }
      ],
      "stateMutability": "view",
      "type": "function"
    },
    {
      "inputs": [
        {
          "internalType": "uint256",
          "name": "_listingId",
          "type": "uint256"
        },
        {
          "internalType": "address",
          "name": "offeror",
          "type": "address"
        }
      ],
      "name": "acceptOffer",
      "outputs": [],
      "stateMutability": "nonpayable",
      "type": "function"
    },
    {
      "inputs": [],
      "name": "bidBufferBps",
      "outputs": [
        {
          "internalType": "uint64",
          "name": "",
          "type": "uint64"
        }
      ],
      "stateMutability": "view",
      "type": "function"
    },
    {
      "inputs": [
        {
          "internalType": "uint256",
          "name": "",
          "type": "uint256"
        },
        {
          "internalType": "address",
          "name": "",
          "type": "address"
        }
      ],
      "name": "boughtFromListing",
      "outputs": [
        {
          "internalType": "uint256",
          "name": "",
          "type": "uint256"
        }
      ],
      "stateMutability": "view",
      "type": "function"
    },
    {
      "inputs": [
        {
          "internalType": "uint256",
          "name": "_listingId",
          "type": "uint256"
        },
        {
          "internalType": "uint256",
          "name": "_quantityToBuy",
          "type": "uint256"
        }
      ],
      "name": "buy",
      "outputs": [],
      "stateMutability": "nonpayable",
      "type": "function"
    },
    {
      "inputs": [
        {
          "internalType": "uint256",
          "name": "_listingId",
          "type": "uint256"
        }
      ],
      "name": "closeAuction",
      "outputs": [],
      "stateMutability": "nonpayable",
      "type": "function"
    },
    {
      "inputs": [],
      "name": "contractURI",
      "outputs": [
        {
          "internalType": "string",
          "name": "",
          "type": "string"
        }
      ],
      "stateMutability": "view",
      "type": "function"
    },
    {
      "inputs": [
        {
          "components": [
            {
              "internalType": "address",
              "name": "assetContract",
              "type": "address"
            },
            {
              "internalType": "uint256",
              "name": "tokenId",
              "type": "uint256"
            },
            {
              "internalType": "uint256",
              "name": "secondsUntilStartTime",
              "type": "uint256"
            },
            {
              "internalType": "uint256",
              "name": "secondsUntilEndTime",
              "type": "uint256"
            },
            {
              "internalType": "uint256",
              "name": "quantityToList",
              "type": "uint256"
            },
            {
              "internalType": "address",
              "name": "currencyToAccept",
              "type": "address"
            },
            {
              "internalType": "uint256",
              "name": "reservePricePerToken",
              "type": "uint256"
            },
            {
              "internalType": "uint256",
              "name": "buyoutPricePerToken",
              "type": "uint256"
            },
            {
              "internalType": "uint256",
              "name": "tokensPerBuyer",
              "type": "uint256"
            },
            {
              "internalType": "enum IMarket.ListingType",
              "name": "listingType",
              "type": "uint8"
            }
          ],
          "internalType": "struct IMarket.ListingParameters",
          "name": "_params",
          "type": "tuple"
        }
      ],
      "name": "createListing",
      "outputs": [],
      "stateMutability": "nonpayable",
      "type": "function"
    },
    {
      "inputs": [
        {
          "internalType": "uint256",
          "name": "_listingId",
          "type": "uint256"
        },
        {
          "internalType": "uint256",
          "name": "_quantityToList",
          "type": "uint256"
        },
        {
          "internalType": "uint256",
          "name": "_reservePricePerToken",
          "type": "uint256"
        },
        {
          "internalType": "uint256",
          "name": "_buyoutPricePerToken",
          "type": "uint256"
        },
        {
          "internalType": "uint256",
          "name": "_tokensPerBuyer",
          "type": "uint256"
        },
        {
          "internalType": "address",
          "name": "_currencyToAccept",
          "type": "address"
        },
        {
          "internalType": "uint256",
          "name": "_secondsUntilStartTime",
          "type": "uint256"
        },
        {
          "internalType": "uint256",
          "name": "_secondsUntilEndTime",
          "type": "uint256"
        }
      ],
      "name": "editListingParametrs",
      "outputs": [],
      "stateMutability": "nonpayable",
      "type": "function"
    },
    {
      "inputs": [
        {
          "internalType": "bytes32",
          "name": "role",
          "type": "bytes32"
        }
      ],
      "name": "getRoleAdmin",
      "outputs": [
        {
          "internalType": "bytes32",
          "name": "",
          "type": "bytes32"
        }
      ],
      "stateMutability": "view",
      "type": "function"
    },
    {
      "inputs": [
        {
          "internalType": "bytes32",
          "name": "role",
          "type": "bytes32"
        },
        {
          "internalType": "uint256",
          "name": "index",
          "type": "uint256"
        }
      ],
      "name": "getRoleMember",
      "outputs": [
        {
          "internalType": "address",
          "name": "",
          "type": "address"
        }
      ],
      "stateMutability": "view",
      "type": "function"
    },
    {
      "inputs": [
        {
          "internalType": "bytes32",
          "name": "role",
          "type": "bytes32"
        }
      ],
      "name": "getRoleMemberCount",
      "outputs": [
        {
          "internalType": "uint256",
          "name": "",
          "type": "uint256"
        }
      ],
      "stateMutability": "view",
      "type": "function"
    },
    {
      "inputs": [
        {
          "internalType": "bytes32",
          "name": "role",
          "type": "bytes32"
        },
        {
          "internalType": "address",
          "name": "account",
          "type": "address"
        }
      ],
      "name": "grantRole",
      "outputs": [],
      "stateMutability": "nonpayable",
      "type": "function"
    },
    {
      "inputs": [
        {
          "internalType": "bytes32",
          "name": "role",
          "type": "bytes32"
        },
        {
          "internalType": "address",
          "name": "account",
          "type": "address"
        }
      ],
      "name": "hasRole",
      "outputs": [
        {
          "internalType": "bool",
          "name": "",
          "type": "bool"
        }
      ],
      "stateMutability": "view",
      "type": "function"
    },
    {
      "inputs": [
        {
          "internalType": "address",
          "name": "forwarder",
          "type": "address"
        }
      ],
      "name": "isTrustedForwarder",
      "outputs": [
        {
          "internalType": "bool",
          "name": "",
          "type": "bool"
        }
      ],
      "stateMutability": "view",
      "type": "function"
    },
    {
      "inputs": [
        {
          "internalType": "uint256",
          "name": "",
          "type": "uint256"
        }
      ],
      "name": "listings",
      "outputs": [
        {
          "internalType": "uint256",
          "name": "listingId",
          "type": "uint256"
        },
        {
          "internalType": "address",
          "name": "tokenOwner",
          "type": "address"
        },
        {
          "internalType": "address",
          "name": "assetContract",
          "type": "address"
        },
        {
          "internalType": "uint256",
          "name": "tokenId",
          "type": "uint256"
        },
        {
          "internalType": "uint256",
          "name": "startTime",
          "type": "uint256"
        },
        {
          "internalType": "uint256",
          "name": "endTime",
          "type": "uint256"
        },
        {
          "internalType": "uint256",
          "name": "quantity",
          "type": "uint256"
        },
        {
          "internalType": "address",
          "name": "currency",
          "type": "address"
        },
        {
          "internalType": "uint256",
          "name": "reservePricePerToken",
          "type": "uint256"
        },
        {
          "internalType": "uint256",
          "name": "buyoutPricePerToken",
          "type": "uint256"
        },
        {
          "internalType": "uint256",
          "name": "tokensPerBuyer",
          "type": "uint256"
        },
        {
          "internalType": "enum IMarket.TokenType",
          "name": "tokenType",
          "type": "uint8"
        },
        {
          "internalType": "enum IMarket.ListingType",
          "name": "listingType",
          "type": "uint8"
        }
      ],
      "stateMutability": "view",
      "type": "function"
    },
    {
      "inputs": [],
      "name": "marketFeeBps",
      "outputs": [
        {
          "internalType": "uint64",
          "name": "",
          "type": "uint64"
        }
      ],
      "stateMutability": "view",
      "type": "function"
    },
    {
      "inputs": [
        {
          "internalType": "bytes[]",
          "name": "data",
          "type": "bytes[]"
        }
      ],
      "name": "multicall",
      "outputs": [
        {
          "internalType": "bytes[]",
          "name": "results",
          "type": "bytes[]"
        }
      ],
      "stateMutability": "nonpayable",
      "type": "function"
    },
    {
      "inputs": [],
      "name": "nativeToken",
      "outputs": [
        {
          "internalType": "address",
          "name": "",
          "type": "address"
        }
      ],
      "stateMutability": "view",
      "type": "function"
    },
    {
      "inputs": [],
      "name": "nativeTokenWrapper",
      "outputs": [
        {
          "internalType": "address",
          "name": "",
          "type": "address"
        }
      ],
      "stateMutability": "view",
      "type": "function"
    },
    {
      "inputs": [
        {
          "internalType": "uint256",
          "name": "_listingId",
          "type": "uint256"
        },
        {
          "internalType": "uint256",
          "name": "_quantityWanted",
          "type": "uint256"
        },
        {
          "internalType": "uint256",
          "name": "_totalOfferAmount",
          "type": "uint256"
        }
      ],
      "name": "offer",
      "outputs": [],
      "stateMutability": "payable",
      "type": "function"
    },
    {
      "inputs": [
        {
          "internalType": "uint256",
          "name": "",
          "type": "uint256"
        },
        {
          "internalType": "address",
          "name": "",
          "type": "address"
        }
      ],
      "name": "offers",
      "outputs": [
        {
          "internalType": "uint256",
          "name": "listingId",
          "type": "uint256"
        },
        {
          "internalType": "address",
          "name": "offeror",
          "type": "address"
        },
        {
          "internalType": "uint256",
          "name": "quantityWanted",
          "type": "uint256"
        },
        {
          "internalType": "uint256",
          "name": "offerAmount",
          "type": "uint256"
        }
      ],
      "stateMutability": "view",
      "type": "function"
    },
    {
      "inputs": [
        {
          "internalType": "address",
          "name": "",
          "type": "address"
        },
        {
          "internalType": "address",
          "name": "",
          "type": "address"
        },
        {
          "internalType": "uint256[]",
          "name": "",
          "type": "uint256[]"
        },
        {
          "internalType": "uint256[]",
          "name": "",
          "type": "uint256[]"
        },
        {
          "internalType": "bytes",
          "name": "",
          "type": "bytes"
        }
      ],
      "name": "onERC1155BatchReceived",
      "outputs": [
        {
          "internalType": "bytes4",
          "name": "",
          "type": "bytes4"
        }
      ],
      "stateMutability": "nonpayable",
      "type": "function"
    },
    {
      "inputs": [
        {
          "internalType": "address",
          "name": "",
          "type": "address"
        },
        {
          "internalType": "address",
          "name": "",
          "type": "address"
        },
        {
          "internalType": "uint256",
          "name": "",
          "type": "uint256"
        },
        {
          "internalType": "uint256",
          "name": "",
          "type": "uint256"
        },
        {
          "internalType": "bytes",
          "name": "",
          "type": "bytes"
        }
      ],
      "name": "onERC1155Received",
      "outputs": [
        {
          "internalType": "bytes4",
          "name": "",
          "type": "bytes4"
        }
      ],
      "stateMutability": "nonpayable",
      "type": "function"
    },
    {
      "inputs": [
        {
          "internalType": "address",
          "name": "",
          "type": "address"
        },
        {
          "internalType": "address",
          "name": "",
          "type": "address"
        },
        {
          "internalType": "uint256",
          "name": "",
          "type": "uint256"
        },
        {
          "internalType": "bytes",
          "name": "",
          "type": "bytes"
        }
      ],
      "name": "onERC721Received",
      "outputs": [
        {
          "internalType": "bytes4",
          "name": "",
          "type": "bytes4"
        }
      ],
      "stateMutability": "pure",
      "type": "function"
    },
    {
      "inputs": [
        {
          "internalType": "bytes32",
          "name": "role",
          "type": "bytes32"
        },
        {
          "internalType": "address",
          "name": "account",
          "type": "address"
        }
      ],
      "name": "renounceRole",
      "outputs": [],
      "stateMutability": "nonpayable",
      "type": "function"
    },
    {
      "inputs": [],
      "name": "restrictedListerRoleOnly",
      "outputs": [
        {
          "internalType": "bool",
          "name": "",
          "type": "bool"
        }
      ],
      "stateMutability": "view",
      "type": "function"
    },
    {
      "inputs": [
        {
          "internalType": "bytes32",
          "name": "role",
          "type": "bytes32"
        },
        {
          "internalType": "address",
          "name": "account",
          "type": "address"
        }
      ],
      "name": "revokeRole",
      "outputs": [],
      "stateMutability": "nonpayable",
      "type": "function"
    },
    {
      "inputs": [
        {
          "internalType": "uint256",
          "name": "_timeBuffer",
          "type": "uint256"
        },
        {
          "internalType": "uint256",
          "name": "_bidBufferBps",
          "type": "uint256"
        }
      ],
      "name": "setAuctionBuffers",
      "outputs": [],
      "stateMutability": "nonpayable",
      "type": "function"
    },
    {
      "inputs": [
        {
          "internalType": "string",
          "name": "_uri",
          "type": "string"
        }
      ],
      "name": "setContractURI",
      "outputs": [],
      "stateMutability": "nonpayable",
      "type": "function"
    },
    {
      "inputs": [
        {
          "internalType": "uint256",
          "name": "_feeBps",
          "type": "uint256"
        }
      ],
      "name": "setMarketFeeBps",
      "outputs": [],
      "stateMutability": "nonpayable",
      "type": "function"
    },
    {
      "inputs": [
        {
          "internalType": "bool",
          "name": "restricted",
          "type": "bool"
        }
      ],
      "name": "setRestrictedListerRoleOnly",
      "outputs": [],
      "stateMutability": "nonpayable",
      "type": "function"
    },
    {
      "inputs": [
        {
          "internalType": "bytes4",
          "name": "interfaceId",
          "type": "bytes4"
        }
      ],
      "name": "supportsInterface",
      "outputs": [
        {
          "internalType": "bool",
          "name": "",
          "type": "bool"
        }
      ],
      "stateMutability": "view",
      "type": "function"
    },
    {
      "inputs": [],
      "name": "timeBuffer",
      "outputs": [
        {
          "internalType": "uint64",
          "name": "",
          "type": "uint64"
        }
      ],
      "stateMutability": "view",
      "type": "function"
    },
    {
      "inputs": [],
      "name": "totalListings",
      "outputs": [
        {
          "internalType": "uint256",
          "name": "",
          "type": "uint256"
        }
      ],
      "stateMutability": "view",
      "type": "function"
    },
    {
      "inputs": [
        {
          "internalType": "uint256",
          "name": "",
          "type": "uint256"
        }
      ],
      "name": "winningBid",
      "outputs": [
        {
          "internalType": "uint256",
          "name": "listingId",
          "type": "uint256"
        },
        {
          "internalType": "address",
          "name": "offeror",
          "type": "address"
        },
        {
          "internalType": "uint256",
          "name": "quantityWanted",
          "type": "uint256"
        },
        {
          "internalType": "uint256",
          "name": "offerAmount",
          "type": "uint256"
        }
      ],
      "stateMutability": "view",
      "type": "function"
    },
    {
      "stateMutability": "payable",
      "type": "receive"
    }
  ],
  "bytecode": "0x60a060405260078054600160481b600160c81b0319167201f400000000000003840000000000000000001790553480156200003957600080fd5b5060405162006404380380620064048339810160408190526200005c9162000395565b6001600255600380546001600160a01b0319166001600160a01b038616179055815162000091906006906020850190620002ef565b50600480546001600160a01b0319166001600160a01b038716179055606083901b6001600160601b03191660805260078054610100600160481b0319166101006001600160401b03841602179055620000f56000620000ef6200012f565b6200014b565b620001247ff94103142c1baabe9ac2b5d1487bf783de9e69cfeea9a72f5c9c94afd7877b8c620000ef6200012f565b505050505062000525565b6000620001466200018e60201b6200311d1760201c565b905090565b620001628282620001c760201b620031451760201c565b60008281526001602090815260409091206200018991839062003153620001d7821b17901c565b505050565b6003546000906001600160a01b0316331415620001b2575060131936013560601c90565b62000146620001f760201b620031681760201c565b620001d38282620001fb565b5050565b6000620001ee836001600160a01b0384166200029d565b90505b92915050565b3390565b6000828152602081815260408083206001600160a01b038516845290915290205460ff16620001d3576000828152602081815260408083206001600160a01b03851684529091529020805460ff19166001179055620002596200012f565b6001600160a01b0316816001600160a01b0316837f2f8788117e7eff1d82e926ec794901d17c78024a50270940304540a733656f0d60405160405180910390a45050565b6000818152600183016020526040812054620002e657508154600181810184556000848152602080822090930184905584548482528286019093526040902091909155620001f1565b506000620001f1565b828054620002fd90620004b9565b90600052602060002090601f0160209004810192826200032157600085556200036c565b82601f106200033c57805160ff19168380011785556200036c565b828001600101855582156200036c579182015b828111156200036c5782518255916020019190600101906200034f565b506200037a9291506200037e565b5090565b5b808211156200037a57600081556001016200037f565b600080600080600060a08688031215620003ad578081fd5b8551620003ba816200050c565b80955050602080870151620003cf816200050c565b6040880151909550620003e2816200050c565b60608801519094506001600160401b0380821115620003ff578384fd5b818901915089601f83011262000413578384fd5b815181811115620004285762000428620004f6565b604051601f8201601f19908116603f01168101908382118183101715620004535762000453620004f6565b816040528281528c868487010111156200046b578687fd5b8693505b828410156200048e57848401860151818501870152928501926200046f565b828411156200049f57868684830101525b809750505050505050608086015190509295509295909350565b600181811c90821680620004ce57607f821691505b60208210811415620004f057634e487b7160e01b600052602260045260246000fd5b50919050565b634e487b7160e01b600052604160045260246000fd5b6001600160a01b03811681146200052257600080fd5b50565b60805160601c615eab62000559600039600081816109ba01528181614776015281816147ea01526148f50152615eab6000f3fe6080604052600436106102a45760003560e01c8063bc197c811161016e578063deb26b94116100cb578063ebdfbce51161007f578063f23a6e6111610064578063f23a6e611461097c578063f9ea29cb146109a8578063fd967f47146109dc57600080fd5b8063ebdfbce5146108f7578063ec91f2a41461094e57600080fd5b8063e4104eaf116100b0578063e4104eaf146108a2578063e8a3d485146108c2578063ea0e0241146108d757600080fd5b8063deb26b9414610846578063e1758bd81461087a57600080fd5b8063d1e42ec011610122578063d547741f11610107578063d547741f14610758578063d6febde814610778578063de74e57b1461079857600080fd5b8063d1e42ec0146106c4578063d4ac9b8c146106e457600080fd5b8063c24afe4e11610153578063c24afe4e1461066e578063c78b616c1461068e578063ca15c873146106a457600080fd5b8063bc197c8114610620578063c0e727401461064c57600080fd5b80634e03f28d1161021c578063918d407d116101d0578063938e3d7b116101b5578063938e3d7b146105be578063a217fddf146105de578063ac9650d8146105f357600080fd5b8063918d407d1461055a57806391d148541461057a57600080fd5b806361096ec61161020157806361096ec6146104f557806380cd24641461050f5780639010d07c1461052257600080fd5b80634e03f28d1461049e578063572b6c05146104c657600080fd5b8063248a9ca311610273578063354c7ab611610258578063354c7ab61461041f57806336568abe1461043f5780633f5c3e871461045f57600080fd5b8063248a9ca3146103cf5780632f2ff15d146103ff57600080fd5b806301ffc9a7146102f9578063150b7a021461032e57806320c7852c14610367578063236ed8f3146103ad57600080fd5b366102f4577f1e57e3bb474320be3d2c77138f75b7c3941292d647f5f9634e33a8e94e0e069b6102d26109f2565b604080516001600160a01b0390921682523460208301520160405180910390a1005b600080fd5b34801561030557600080fd5b5061031961031436600461575d565b610a01565b60405190151581526020015b60405180910390f35b34801561033a57600080fd5b5061034e610349366004615530565b610a53565b6040516001600160e01b03199091168152602001610325565b34801561037357600080fd5b5061039f61038236600461570d565b600b60209081526000928352604080842090915290825290205481565b604051908152602001610325565b3480156103b957600080fd5b506103cd6103c83660046156dd565b610a65565b005b3480156103db57600080fd5b5061039f6103ea3660046156dd565b60009081526020819052604090206001015490565b34801561040b57600080fd5b506103cd61041a36600461570d565b6112d4565b34801561042b57600080fd5b506103cd61043a3660046156a5565b6112fb565b34801561044b57600080fd5b506103cd61045a36600461570d565b61139c565b34801561046b57600080fd5b5060075461048590610100900467ffffffffffffffff1681565b60405167ffffffffffffffff9091168152602001610325565b3480156104aa57600080fd5b5060075461048590600160881b900467ffffffffffffffff1681565b3480156104d257600080fd5b506103196104e136600461544e565b6003546001600160a01b0391821691161490565b34801561050157600080fd5b506007546103199060ff1681565b6103cd61051d36600461585c565b6113be565b34801561052e57600080fd5b5061054261053d36600461573c565b61188e565b6040516001600160a01b039091168152602001610325565b34801561056657600080fd5b506103cd61057536600461570d565b6118ad565b34801561058657600080fd5b5061031961059536600461570d565b6000918252602082815260408084206001600160a01b0393909316845291905290205460ff1690565b3480156105ca57600080fd5b506103cd6105d9366004615785565b611e03565b3480156105ea57600080fd5b5061039f600081565b3480156105ff57600080fd5b5061061361060e366004615635565b611f8a565b6040516103259190615b14565b34801561062c57600080fd5b5061034e61063b366004615486565b63bc197c8160e01b95945050505050565b34801561065857600080fd5b506106616120a9565b6040516103259190615b75565b34801561067a57600080fd5b506103cd610689366004615887565b612137565b34801561069a57600080fd5b5061039f60055481565b3480156106b057600080fd5b5061039f6106bf3660046156dd565b612630565b3480156106d057600080fd5b506103cd6106df3660046157c5565b612647565b3480156106f057600080fd5b506107306106ff3660046156dd565b600a60205260009081526040902080546001820154600283015460039093015491926001600160a01b039091169184565b604080519485526001600160a01b039093166020850152918301526060820152608001610325565b34801561076457600080fd5b506103cd61077336600461570d565b612a5d565b34801561078457600080fd5b506103cd61079336600461573c565b612a67565b3480156107a457600080fd5b5061082d6107b33660046156dd565b600860208190526000918252604090912080546001820154600283015460038401546004850154600586015460068701546007880154988801546009890154600a8a0154600b909a0154989a6001600160a01b039889169a9789169996989597949693951693919290919060ff808216916101009004168d565b6040516103259d9c9b9a99989796959493929190615bd4565b34801561085257600080fd5b5061039f7ff94103142c1baabe9ac2b5d1487bf783de9e69cfeea9a72f5c9c94afd7877b8c81565b34801561088657600080fd5b5061054273eeeeeeeeeeeeeeeeeeeeeeeeeeeeeeeeeeeeeeee81565b3480156108ae57600080fd5b506103cd6108bd3660046156dd565b612e2d565b3480156108ce57600080fd5b50610661612f2f565b3480156108e357600080fd5b506103cd6108f236600461573c565b612fc1565b34801561090357600080fd5b5061073061091236600461570d565b6009602090815260009283526040808420909152908252902080546001820154600283015460039093015491926001600160a01b039091169184565b34801561095a57600080fd5b50600754610485906901000000000000000000900467ffffffffffffffff1681565b34801561098857600080fd5b5061034e6109973660046155a1565b63f23a6e6160e01b95945050505050565b3480156109b457600080fd5b506105427f000000000000000000000000000000000000000000000000000000000000000081565b3480156109e857600080fd5b5061048561271081565b60006109fc61311d565b905090565b60006001600160e01b03198216630271189760e51b1480610a3257506001600160e01b03198216630a85bd0160e11b145b80610a4d57506001600160e01b0319821663152a902d60e11b145b92915050565b630a85bd0160e11b5b95945050505050565b600280541415610abc5760405162461bcd60e51b815260206004820152601f60248201527f5265656e7472616e637947756172643a207265656e7472616e742063616c6c0060448201526064015b60405180910390fd5b6002808055600082815260086020818152604080842081516101a081018352815481526001808301546001600160a01b0390811695830195909552968201548416928101929092526003810154606083015260048101546080830152600581015460a0830152600681015460c0830152600781015490921660e0820152918101546101008301526009810154610120830152600a810154610140830152600b81015492939192909161016084019160ff1690811115610b8b57634e487b7160e01b600052602160045260246000fd5b6001811115610baa57634e487b7160e01b600052602160045260246000fd5b8152602001600b820160019054906101000a900460ff166001811115610be057634e487b7160e01b600052602160045260246000fd5b6001811115610bff57634e487b7160e01b600052602160045260246000fd5b9052506000838152600a6020908152604080832081516080810183528154815260018201546001600160a01b031693810193909352600281015491830191909152600301546060820152919250610c546109f2565b90504283608001511115610e88576000848152600860205260409020600101546001600160a01b03828116911614610cf45760405162461bcd60e51b815260206004820152602a60248201527f4d61726b65743a2063616c6c6572206973206e6f7420746865206c697374696e60448201527f672063726561746f722e000000000000000000000000000000000000000000006064820152608401610ab3565b60c08301805160008083524260a08701908152878252600860208181526040938490208951815590890151600180830180546001600160a01b039384166001600160a01b031991821617909155958b015160028401805491841691881691909117905560608b0151600384015560808b01516004840155935160058301559551600682015560e089015160078201805491909716941693909317909455610100870151938201939093556101208601516009820155610140860151600a820155610160860151600b820180549394889460ff1916908381811115610de857634e487b7160e01b600052602160045260246000fd5b0217905550610180820151600b8201805461ff001916610100836001811115610e2157634e487b7160e01b600052602160045260246000fd5b0217905550905050610e39308560200151838761316c565b83602001516001600160a01b0316857f8b8c78dbb114fabd551e84de4546a68891b5f7a217a98e3f2fe7adb18519959b86604051610e779190615b88565b60405180910390a3505050506112cc565b82602001516001600160a01b0316816001600160a01b03161480610ec1575081602001516001600160a01b0316816001600160a01b0316145b610f335760405162461bcd60e51b815260206004820152602a60248201527f4d61726b65743a206d75737420626520626964646572206f722061756374696f60448201527f6e2063726561746f722e000000000000000000000000000000000000000000006064820152608401610ab3565b60018361018001516001811115610f5a57634e487b7160e01b600052602160045260246000fd5b14610fb25760405162461bcd60e51b815260206004820152602260248201527f4d61726b65743a206c697374696e67206973206e6f7420616e2061756374696f604482015261371760f11b6064820152608401610ab3565b428360a001511061102b5760405162461bcd60e51b815260206004820152603260248201527f4d61726b65743a2063616e206f6e6c7920636c6f73652061756374696f6e206160448201527f667465722069742068617320656e6465642e00000000000000000000000000006064820152608401610ab3565b82602001516001600160a01b03166110416109f2565b6001600160a01b031614156111f157606082810151600060c086018181524260a08801908152888352600860208181526040948590208a518155908a0151600180830180546001600160a01b03199081166001600160a01b0394851617909155968c01516002840180548916918416919091179055978b0151600383015560808b01516004830155925160058201559251600684015560e0890151600784018054909516921691909117909255610100870151918101919091556101208601516009820155610140860151600a820155610160860151600b820180549394889460ff191690838181111561114557634e487b7160e01b600052602160045260246000fd5b0217905550610180820151600b8201805461ff00191661010083600181111561117e57634e487b7160e01b600052602160045260246000fd5b021790555050600060608501818152878252600a602090815260409283902087518155818801516001820180546001600160a01b0319166001600160a01b0390921691909117905592870151600284015590516003909201919091558501516111eb9150309083876132df565b50611278565b81602001516001600160a01b03166112076109f2565b6001600160a01b0316141561127857604082810180516000808352878152600a602090815293902085518155928501516001840180546001600160a01b0319166001600160a01b038316179055915160028401556060850151600390930192909255611276903090838761316c565b505b806001600160a01b0316847f42bdf1b5daec205081fa6758882be4b9c6633d2b16ea489d1c36cddfd46d7cab8560200151856020015186886040516112c09493929190615a8a565b60405180910390a35050505b506001600255565b6112de828261359d565b60008281526001602052604090206112f69082613153565b505050565b61130860006105956109f2565b6113545760405162461bcd60e51b815260206004820152601b60248201527f4d61726b65743a206e6f742061206d6f64756c652061646d696e2e00000000006044820152606401610ab3565b6007805460ff19168215159081179091556040519081527f56668abce4c06e28f52176150c07856e31ee073b9b62df62a5afbf1a22aec24c906020015b60405180910390a150565b6113a682826135ca565b60008281526001602052604090206112f69082613662565b6002805414156114105760405162461bcd60e51b815260206004820152601f60248201527f5265656e7472616e637947756172643a207265656e7472616e742063616c6c006044820152606401610ab3565b60028055600061141e6109f2565b600085815260086020818152604080842081516101a081018352815481526001808301546001600160a01b039081169583019590955260028301548516938201939093526003820154606082015260048201546080820152600582015460a0820152600682015460c0820152600782015490931660e0840152928301546101008301526009830154610120830152600a830154610140830152600b8301549495509293909261016084019160ff16908111156114ea57634e487b7160e01b600052602160045260246000fd5b600181111561150957634e487b7160e01b600052602160045260246000fd5b8152602001600b820160019054906101000a900460ff16600181111561153f57634e487b7160e01b600052602160045260246000fd5b600181111561155e57634e487b7160e01b600052602160045260246000fd5b815250509050428160a0015111801561157a5750428160800151105b6115ec5760405162461bcd60e51b815260206004820152603160248201527f4d61726b65743a2063616e206f6e6c79206d616b65206f666665727320696e2060448201527f6c697374696e67206475726174696f6e2e0000000000000000000000000000006064820152608401610ab3565b6001816101800151600181111561161357634e487b7160e01b600052602160045260246000fd5b14156116a857828160c0015182610100015161162f9190615d38565b11156116a35760405162461bcd60e51b815260206004820152602a60248201527f4d61726b65743a206d757374206f66666572206174206c65617374207265736560448201527f7276652070726963652e000000000000000000000000000000000000000000006064820152608401610ab3565b611743565b600081610180015160018111156116cf57634e487b7160e01b600052602160045260246000fd5b14156117435760008160c00151116117345760405162461bcd60e51b815260206004820152602260248201527f4d61726b65743a206e6f20746f6b656e73206c697374656420666f722073616c604482015261329760f11b6064820152608401610ab3565b611743828260e0015185613677565b60006001826101800151600181111561176c57634e487b7160e01b600052602160045260246000fd5b1461178557611780826101600151866137f3565b611798565b6117988261016001518360c001516137f3565b604080516080810182528881526001600160a01b038681166020808401828152848601878152606086018c815260008f815260098552888120868252909452928790208651815591516001830180546001600160a01b0319169190961617909455925160028401555160039092019190915591519293509188907f325ebd560da99b6ec57c8698998d68ddf274d0b921541d5b702974d58ca87992906118419085908890615b97565b60405180910390a36001836101800151600181111561187057634e487b7160e01b600052602160045260246000fd5b1415611880576118808382613838565b505060016002555050505050565b60008281526001602052604081206118a69083613dbf565b9392505050565b6002805414156118ff5760405162461bcd60e51b815260206004820152601f60248201527f5265656e7472616e637947756172643a207265656e7472616e742063616c6c006044820152606401610ab3565b600280558161190c6109f2565b6000828152600860205260409020600101546001600160a01b039081169116146119875760405162461bcd60e51b815260206004820152602660248201527f4d61726b65743a2063616c6c6572206973206e6f74206c697374696e6720637260448201526532b0ba37b91760d11b6064820152608401610ab3565b60008381526009602081815260408084206001600160a01b03808816865290835281852082516080808201855282548252600180840154851683880152600280850154848801526003948501546060808601919091528d8b526008808a52888c2089516101a081018b5281548152818601548a169b81019b909b52928301548816988a01989098529481015494880194909452600484015491870191909152600583015460a0870152600683015460c0870152600783015490931660e08601529281015461010085015293840154610120840152600a840154610140840152600b8401549194939161016084019160ff90911690811115611a9857634e487b7160e01b600052602160045260246000fd5b6001811115611ab757634e487b7160e01b600052602160045260246000fd5b8152602001600b820160019054906101000a900460ff166001811115611aed57634e487b7160e01b600052602160045260246000fd5b6001811115611b0c57634e487b7160e01b600052602160045260246000fd5b905250905060008161018001516001811115611b3857634e487b7160e01b600052602160045260246000fd5b148015611b685750611b688160200151826040015183606001518560400151856101600151866101800151613dcb565b611bcd5760405162461bcd60e51b815260206004820152603060248201527f4d61726b65743a206d757374206f776e20616e6420617070726f766520746f2060448201526f3a3930b739b332b9103a37b5b2b7399760811b6064820152608401610ab3565b6040828101805160608501805160008085528083528a8152600960209081528682206001600160a01b038c811684529082529690912088518155908801516001820180546001600160a01b0319169190971617909555925160028501555160039093019290925560c083018051839190611c48908390615d57565b9052506000878152600860208181526040928390208651815590860151600180830180546001600160a01b03199081166001600160a01b0394851617909155948801516002840180548716918416919091179055606088015160038401556080880151600484015560a0880151600584015560c0880151600684015560e0880151600784018054909616921691909117909355610100860151918101919091556101208501516009820155610140850151600a820155610160850151600b82018054879460ff19909116908381811115611d3257634e487b7160e01b600052602160045260246000fd5b0217905550610180820151600b8201805461ff001916610100836001811115611d6b57634e487b7160e01b600052602160045260246000fd5b021790555050506020830151611d8d908790611d878585615d38565b866132df565b611d9d836020015187848661316c565b8683602001516001600160a01b031684604001516001600160a01b03167f13f347bec00b07d4fa8ffa656bbcb29bd18e63fd4621925b71f60ff36c6425c9898688604051611ded93929190615ae7565b60405180910390a4505060016002555050505050565b600480546040805163a217fddf60e01b815290516001600160a01b03909216926391d1485492849263a217fddf9281810192602092909190829003018186803b158015611e4f57600080fd5b505afa158015611e63573d6000803e3d6000fd5b505050506040513d601f19601f82011682018060405250810190611e8791906156f5565b611e8f6109f2565b6040516001600160e01b031960e085901b16815260048101929092526001600160a01b0316602482015260440160206040518083038186803b158015611ed457600080fd5b505afa158015611ee8573d6000803e3d6000fd5b505050506040513d601f19601f82011682018060405250810190611f0c91906156c1565b611f7e5760405162461bcd60e51b815260206004820152603560248201527f4d61726b65743a206f6e6c7920612070726f746f636f6c2061646d696e20636160448201527f6e2063616c6c20746869732066756e6374696f6e2e00000000000000000000006064820152608401610ab3565b6112f660068383615266565b60608167ffffffffffffffff811115611fb357634e487b7160e01b600052604160045260246000fd5b604051908082528060200260200182016040528015611fe657816020015b6060815260200190600190039081611fd15790505b50905060005b828110156120a2576120643085858481811061201857634e487b7160e01b600052603260045260246000fd5b905060200281019061202a9190615c60565b8080601f01602080910402602001604051908101604052809392919081815260200183838082843760009201919091525061423392505050565b82828151811061208457634e487b7160e01b600052603260045260246000fd5b6020026020010181905250808061209a90615dec565b915050611fec565b5092915050565b600680546120b690615db1565b80601f01602080910402602001604051908101604052809291908181526020018280546120e290615db1565b801561212f5780601f106121045761010080835404028352916020019161212f565b820191906000526020600020905b81548152906001019060200180831161211257829003601f168201915b505050505081565b876121406109f2565b6000828152600860205260409020600101546001600160a01b039081169116146121bb5760405162461bcd60e51b815260206004820152602660248201527f4d61726b65743a2063616c6c6572206973206e6f74206c697374696e6720637260448201526532b0ba37b91760d11b6064820152608401610ab3565b600089815260086020818152604080842081516101a081018352815481526001808301546001600160a01b039081169583019590955260028301548516938201939093526003820154606082015260048201546080820152600582015460a0820152600682015460c0820152600782015490931660e0840152928301546101008301526009830154610120830152600a830154610140830152600b83015491929161016084019160ff9091169081111561228557634e487b7160e01b600052602160045260246000fd5b60018111156122a457634e487b7160e01b600052602160045260246000fd5b8152602001600b820160019054906101000a900460ff1660018111156122da57634e487b7160e01b600052602160045260246000fd5b60018111156122f957634e487b7160e01b600052602160045260246000fd5b81525050905060006123108261016001518b6137f3565b90506001826101800151600181111561233957634e487b7160e01b600052602160045260246000fd5b14156123c957428260800151106123b85760405162461bcd60e51b815260206004820152602860248201527f4d61726b65743a2063616e6e6f7420656469742061756374696f6e206166746560448201527f722073746172742e0000000000000000000000000000000000000000000000006064820152608401610ab3565b610100820189905261012082018890525b898260c0015114612465576123f882602001518360400151846060015184866101600151876101800151613dcb565b61245d5760405162461bcd60e51b815260206004820152603060248201527f4d61726b65743a206d757374206f776e20616e6420617070726f766520746f2060448201526f3a3930b739b332b9103a37b5b2b7399760811b6064820152608401610ab3565b60c082018190525b6001600160a01b03861660e0830152610140820187905284156124915761248c8542615d00565b612497565b81608001515b608083015283156124b1576124ac8442615d00565b6124b7565b8160a001515b60a0830190815260008c8152600860208181526040928390208651815590860151600180830180546001600160a01b03199081166001600160a01b039485161790915594880151600284018054871691841691909117905560608801516003840155608088015160048401559451600583015560c0870151600683015560e0870151600783018054909516911617909255610100850151908201556101208401516009820155610140840151600a820155610160840151600b82018054869460ff1990911690838181111561259c57634e487b7160e01b600052602160045260246000fd5b0217905550610180820151600b8201805461ff0019166101008360018111156125d557634e487b7160e01b600052602160045260246000fd5b02179055509050508a82602001516001600160a01b03167f9897b5e6dd37a61b6f078227f64ef9c4d6744428f9ab322e9d3160c1a39604648460405161261b9190615b88565b60405180910390a35050505050505050505050565b6000818152600160205260408120610a4d90614258565b60075460ff16158061268057506126807ff94103142c1baabe9ac2b5d1487bf783de9e69cfeea9a72f5c9c94afd7877b8c6105956109f2565b6126f25760405162461bcd60e51b815260206004820152602960248201527f4d61726b65743a2063616c6c657220646f6573206e6f742068617665204c495360448201527f5445525f524f4c452e00000000000000000000000000000000000000000000006064820152608401610ab3565b60006126fc614262565b905060006127086109f2565b905060006127198460000151614280565b90506000846080015111801561274957506127498285600001518660200151876080015185896101200151613dcb565b6127ae5760405162461bcd60e51b815260206004820152603060248201527f4d61726b65743a206d757374206f776e20616e6420617070726f766520746f2060448201526f3a3930b739b332b9103a37b5b2b7399760811b6064820152608401610ab3565b6000604051806101a00160405280858152602001846001600160a01b0316815260200186600001516001600160a01b03168152602001866020015181526020018660400151426127fe9190615d00565b8152602001866060015160001461282357606087015161281e9042615d00565b612827565b6000195b815260200161283a8488608001516137f3565b81526020018660a001516001600160a01b031681526020018660c0015181526020018660e00151815260200186610100015160001461287e57866101000151612884565b86608001515b81526020018360018111156128a957634e487b7160e01b600052602160045260246000fd5b815260200186610120015160018111156128d357634e487b7160e01b600052602160045260246000fd5b90526000858152600860208181526040928390208451815590840151600180830180546001600160a01b03199081166001600160a01b0394851617909155948601516002840180548716918416919091179055606086015160038401556080860151600484015560a0860151600584015560c0860151600684015560e0860151600784018054909616921691909117909355610100840151918101919091556101208301516009820155610140830151600a820155610160830151600b82018054949550859492939192909160ff199091169083818111156129c557634e487b7160e01b600052602160045260246000fd5b0217905550610180820151600b8201805461ff0019166101008360018111156129fe57634e487b7160e01b600052602160045260246000fd5b021790555090505083836001600160a01b031686600001516001600160a01b03167fbd4ad658f54c65cfbfb4961c722cac4e1bc357eaabbd6ad51273e752a448191684604051612a4e9190615b88565b60405180910390a45050505050565b6113a6828261440c565b600280541415612ab95760405162461bcd60e51b815260206004820152601f60248201527f5265656e7472616e637947756172643a207265656e7472616e742063616c6c006044820152606401610ab3565b6002808055600083815260086020818152604080842081516101a081018352815481526001808301546001600160a01b0390811695830195909552968201548416928101929092526003810154606083015260048101546080830152600581015460a0830152600681015460c0830152600781015490921660e0820152918101546101008301526009810154610120830152600a810154610140830152600b81015492939192909161016084019160ff1690811115612b8857634e487b7160e01b600052602160045260246000fd5b6001811115612ba757634e487b7160e01b600052602160045260246000fd5b8152602001600b820160019054906101000a900460ff166001811115612bdd57634e487b7160e01b600052602160045260246000fd5b6001811115612bfc57634e487b7160e01b600052602160045260246000fd5b90525090506000612c0b6109f2565b9050612c18828285614434565b828260c001818151612c2a9190615d57565b9052506000848152600860208181526040928390208551815590850151600180830180546001600160a01b03199081166001600160a01b0394851617909155948701516002840180548716918416919091179055606087015160038401556080870151600484015560a0870151600584015560c0870151600684015560e0870151600784018054909616921691909117909355610100850151918101919091556101208401516009820155610140840151600a820155610160840151600b82018054869460ff19909116908381811115612d1457634e487b7160e01b600052602160045260246000fd5b0217905550610180820151600b8201805461ff001916610100836001811115612d4d57634e487b7160e01b600052602160045260246000fd5b021790555050506000848152600b602090815260408083206001600160a01b038516845290915281208054859290612d86908490615d00565b909155505061012082015115612db657612db681836020015185856101200151612db09190615d38565b856132df565b612dc6826020015182858561316c565b816000015182602001516001600160a01b031683604001516001600160a01b03167f13f347bec00b07d4fa8ffa656bbcb29bd18e63fd4621925b71f60ff36c6425c9848787604051612e1a93929190615ae7565b60405180910390a4505060016002555050565b612e3a60006105956109f2565b612e865760405162461bcd60e51b815260206004820152601b60248201527f4d61726b65743a206e6f742061206d6f64756c652061646d696e2e00000000006044820152606401610ab3565b6127108110612ed75760405162461bcd60e51b815260206004820152601460248201527f4d61726b65743a20696e76616c6964204250532e0000000000000000000000006044820152606401610ab3565b6007805468ffffffffffffffff00191661010067ffffffffffffffff8416908102919091179091556040519081527f1923ecef8dbc1cebea2768819f7df282b72fb6d62bf99da204590b9d5cac7a7b90602001611391565b606060068054612f3e90615db1565b80601f0160208091040260200160405190810160405280929190818152602001828054612f6a90615db1565b8015612fb75780601f10612f8c57610100808354040283529160200191612fb7565b820191906000526020600020905b815481529060010190602001808311612f9a57829003601f168201915b5050505050905090565b612fce60006105956109f2565b61301a5760405162461bcd60e51b815260206004820152601b60248201527f4d61726b65743a206e6f742061206d6f64756c652061646d696e2e00000000006044820152606401610ab3565b612710811061306b5760405162461bcd60e51b815260206004820152601460248201527f4d61726b65743a20696e76616c6964204250532e0000000000000000000000006044820152606401610ab3565b6007805467ffffffffffffffff838116600160881b027fffffffffffffff0000000000000000ffffffffffffffffffffffffffffffffff918616690100000000000000000002919091167fffffffffffffff00000000000000000000000000000000ffffffffffffffffff9092169190911717905560408051838152602081018390527f441ed6470e96704c3f8c9e70c209107078aab3f17311385e886081b91aa75088910160405180910390a15050565b6003546000906001600160a01b0316331415613140575060131936013560601c90565b503390565b61314f828261463c565b5050565b60006118a6836001600160a01b0384166146db565b3390565b6000816101600151600181111561319357634e487b7160e01b600052602160045260246000fd5b14156132285760408082015160608301519151637921219560e11b81526001600160a01b038781166004830152868116602483015260448201939093526064810185905260a06084820152600060a482015291169063f242432a9060c401600060405180830381600087803b15801561320b57600080fd5b505af115801561321f573d6000803e3d6000fd5b505050506132d9565b6001816101600151600181111561324f57634e487b7160e01b600052602160045260246000fd5b14156132d95760408082015160608301519151635c46a7ef60e11b81526001600160a01b03878116600483015286811660248301526044820193909352608060648201526000608482015291169063b88d4fde9060a401600060405180830381600087803b1580156132c057600080fd5b505af11580156132d4573d6000803e3d6000fd5b505050505b50505050565b6007546000906127109061330290610100900467ffffffffffffffff1685615d38565b61330c9190615d18565b60e08301516004805460405163f2aab4b360e01b8152309281019290925292935061339e9288916001600160a01b039091169063f2aab4b39060240160206040518083038186803b15801561336057600080fd5b505afa158015613374573d6000803e3d6000fd5b505050506040513d601f19601f82011682018060405250810190613398919061546a565b8461472a565b60006133aa8285615d57565b60408085015190516301ffc9a760e01b815263152a902d60e11b60048201529192506001600160a01b0316906301ffc9a79060240160206040518083038186803b1580156133f757600080fd5b505afa15801561340b573d6000803e3d6000fd5b505050506040513d601f19601f8201168201806040525081019061342f91906156c1565b156135855760008084604001516001600160a01b0316632a55205a8660600151886040518363ffffffff1660e01b8152600401613476929190918252602082015260400190565b604080518083038186803b15801561348d57600080fd5b505afa1580156134a1573d6000803e3d6000fd5b505050506040513d601f19601f820116820180604052508101906134c59190615608565b90925090506001600160a01b038216158015906134e25750600081115b1561358257856134f28583615d00565b11156135665760405162461bcd60e51b815260206004820152602b60248201527f4d61726b65743a20546f74616c206d61726b657420666565732065786365656460448201527f207468652070726963652e0000000000000000000000000000000000000000006064820152608401610ab3565b6135708184615d57565b92506135828560e0015189848461472a565b50505b6135958360e0015187878461472a565b505050505050565b6000828152602081905260409020600101546135c0816135bb6109f2565b614982565b6112f6838361463c565b6135d26109f2565b6001600160a01b0316816001600160a01b0316146136585760405162461bcd60e51b815260206004820152602f60248201527f416363657373436f6e74726f6c3a2063616e206f6e6c792072656e6f756e636560448201527f20726f6c657320666f722073656c6600000000000000000000000000000000006064820152608401610ab3565b61314f8282614a00565b60006118a6836001600160a01b038416614a9d565b6040516370a0823160e01b81526001600160a01b0384811660048301528291908416906370a082319060240160206040518083038186803b1580156136bb57600080fd5b505afa1580156136cf573d6000803e3d6000fd5b505050506040513d601f19601f820116820180604052508101906136f391906156f5565b101580156137815750604051636eb1769f60e11b81526001600160a01b03848116600483015230602483015282919084169063dd62ed3e9060440160206040518083038186803b15801561374657600080fd5b505afa15801561375a573d6000803e3d6000fd5b505050506040513d601f19601f8201168201806040525081019061377e91906156f5565b10155b6112f65760405162461bcd60e51b815260206004820152603960248201527f4d61726b65743a206d757374206f776e20616e6420617070726f7665204d617260448201527f6b657420746f207472616e736665722063757272656e63792e000000000000006064820152608401610ab3565b60008161380257506000610a4d565b600183600181111561382457634e487b7160e01b600052602160045260246000fd5b1461382f57816118a6565b50600192915050565b81516000908152600a602090815260409182902082516080810184528154815260018201546001600160a01b03169281019290925260028101549282019290925260039091015460608083018290528301516138949190614bba565b156112f6576020808201805160608085018051948701516001600160a01b0316909352850151909152610120850151909190600090158015906138ef57508560c001518661012001516138e79190615d38565b856060015110155b90508015613b3757428660a0018181525050600084604001818152505083600a6000886000015181526020019081526020016000206000820151816000015560208201518160010160006101000a8154816001600160a01b0302191690836001600160a01b0316021790555060408201518160020155606082015181600301559050508560086000886000015181526020019081526020016000206000820151816000015560208201518160010160006101000a8154816001600160a01b0302191690836001600160a01b0316021790555060408201518160020160006101000a8154816001600160a01b0302191690836001600160a01b03160217905550606082015181600301556080820151816004015560a0820151816005015560c0820151816006015560e08201518160070160006101000a8154816001600160a01b0302191690836001600160a01b031602179055506101008201518160080155610120820151816009015561014082015181600a015561016082015181600b0160006101000a81548160ff02191690836001811115613a9d57634e487b7160e01b600052602160045260246000fd5b0217905550610180820151600b8201805461ff001916610100836001811115613ad657634e487b7160e01b600052602160045260246000fd5b021790555050506020808601518751918801516040516001600160a01b03831693927f42bdf1b5daec205081fa6758882be4b9c6633d2b16ea489d1c36cddfd46d7cab92613b2a929091908b908d90615a8a565b60405180910390a3613d60565b85516000908152600a602090815260409182902087518155908701516001820180546001600160a01b0319166001600160a01b03909216919091179055908601516002820155606086015160039091015560075460a0870151690100000000000000000090910467ffffffffffffffff1690613bb4904290615d57565b11613d135760075460a087018051690100000000000000000090920467ffffffffffffffff1691613be6908390615d00565b90525085516000908152600860208181526040928390208951815590890151600180830180546001600160a01b03199081166001600160a01b0394851617909155948b0151600284018054871691841691909117905560608b0151600384015560808b0151600484015560a08b0151600584015560c08b0151600684015560e08b0151600784018054909616921691909117909355610100890151918101919091556101208801516009820155610140880151600a820155610160880151600b820180548a9460ff19909116908381811115613cd257634e487b7160e01b600052602160045260246000fd5b0217905550610180820151600b8201805461ff001916610100836001811115613d0b57634e487b7160e01b600052602160045260246000fd5b021790555050505b84602001516001600160a01b031686600001517f4aebf4dd6dc586d8e61e80b74856628c80f4e50926edf340a66ce6b25a760b438789604051613d57929190615b97565b60405180910390a35b6001600160a01b03831615801590613d785750600082115b15613d8d57613d8d8660e0015130858561472a565b613da58660e00151866020015130886060015161472a565b80156135955761359530866020015187604001518961316c565b60006118a68383614c0d565b60003081846001811115613def57634e487b7160e01b600052602160045260246000fd5b1415613fb857604051627eeac760e11b81526001600160a01b0389811660048301526024820188905286919089169062fdd58e9060440160206040518083038186803b158015613e3e57600080fd5b505afa158015613e52573d6000803e3d6000fd5b505050506040513d601f19601f82011682018060405250810190613e7691906156f5565b10158015613f00575060405163e985e9c560e01b81526001600160a01b038981166004830152828116602483015288169063e985e9c59060440160206040518083038186803b158015613ec857600080fd5b505afa158015613edc573d6000803e3d6000fd5b505050506040513d601f19601f82011682018060405250810190613f0091906156c1565b9150818015613f2e57506001836001811115613f2c57634e487b7160e01b600052602160045260246000fd5b145b15613fb357604051637921219560e11b81526001600160a01b0389811660048301528281166024830152604482018890526064820187905260a06084830152600060a483015288169063f242432a9060c401600060405180830381600087803b158015613f9a57600080fd5b505af1158015613fae573d6000803e3d6000fd5b505050505b614228565b6001846001811115613fda57634e487b7160e01b600052602160045260246000fd5b1415614228576040516331a9108f60e11b8152600481018790526001600160a01b03808a169190891690636352211e9060240160206040518083038186803b15801561402557600080fd5b505afa158015614039573d6000803e3d6000fd5b505050506040513d601f19601f8201168201806040525081019061405d919061546a565b6001600160a01b031614801561417c575060405163020604bf60e21b8152600481018790526001600160a01b03808316919089169063081812fc9060240160206040518083038186803b1580156140b357600080fd5b505afa1580156140c7573d6000803e3d6000fd5b505050506040513d601f19601f820116820180604052508101906140eb919061546a565b6001600160a01b0316148061417c575060405163e985e9c560e01b81526001600160a01b038981166004830152828116602483015288169063e985e9c59060440160206040518083038186803b15801561414457600080fd5b505afa158015614158573d6000803e3d6000fd5b505050506040513d601f19601f8201168201806040525081019061417c91906156c1565b91508180156141aa575060018360018111156141a857634e487b7160e01b600052602160045260246000fd5b145b1561422857604051635c46a7ef60e11b81526001600160a01b038981166004830152828116602483015260448201889052608060648301526000608483015288169063b88d4fde9060a401600060405180830381600087803b15801561420f57600080fd5b505af1158015614223573d6000803e3d6000fd5b505050505b509695505050505050565b60606118a68383604051806060016040528060278152602001615e7860279139614c45565b6000610a4d825490565b600580549060019060006142768385615d00565b9250508190555090565b6040516301ffc9a760e01b8152636cdb3d1360e11b60048201526000906001600160a01b038316906301ffc9a79060240160206040518083038186803b1580156142c957600080fd5b505afa1580156142dd573d6000803e3d6000fd5b505050506040513d601f19601f8201168201806040525081019061430191906156c1565b1561430e57506000919050565b6040516301ffc9a760e01b81526380ac58cd60e01b60048201526001600160a01b038316906301ffc9a79060240160206040518083038186803b15801561435457600080fd5b505afa158015614368573d6000803e3d6000fd5b505050506040513d601f19601f8201168201806040525081019061438c91906156c1565b1561439957506001919050565b60405162461bcd60e51b815260206004820152602b60248201527f4d61726b65743a206d75737420696d706c656d656e742045524320313135352060448201527f6f7220455243203732312e0000000000000000000000000000000000000000006064820152608401610ab3565b919050565b60008281526020819052604090206001015461442a816135bb6109f2565b6112f68383614a00565b614453828460e001518561012001518461444e9190615d38565b613677565b61447b8360200151846040015185606001518660c00151876101600151886101800151613dcb565b6144ed5760405162461bcd60e51b815260206004820152602c60248201527f4d61726b65743a2063616e6e6f742062757920746f6b656e732066726f6d207460448201527f686973206c697374696e672e00000000000000000000000000000000000000006064820152608401610ab3565b60008111801561450157508260c001518111155b8015614540575061014083015183516000908152600b602090815260408083206001600160a01b038716845290915290205461453d9083615d00565b11155b6145b25760405162461bcd60e51b815260206004820152603160248201527f4d61726b65743a206d7573742062757920616e20617070726f7072696174652060448201527f616d6f756e74206f6620746f6b656e732e0000000000000000000000000000006064820152608401610ab3565b8260a0015142111580156145ca575082608001514210155b6112f65760405162461bcd60e51b815260206004820152603260248201527f4d61726b65743a207468652073616c652068617320656974686572206e6f742060448201527f73746172746564206f7220636c6f7365642e00000000000000000000000000006064820152608401610ab3565b6000828152602081815260408083206001600160a01b038516845290915290205460ff1661314f576000828152602081815260408083206001600160a01b03851684529091529020805460ff191660011790556146976109f2565b6001600160a01b0316816001600160a01b0316837f2f8788117e7eff1d82e926ec794901d17c78024a50270940304540a733656f0d60405160405180910390a45050565b600081815260018301602052604081205461472257508154600181810184556000848152602080822090930184905584548482528286019093526040902091909155610a4d565b506000610a4d565b6001600160a01b03841673eeeeeeeeeeeeeeeeeeeeeeeeeeeeeeeeeeeeeeee1415614976576001600160a01b03831630141561486d57604051632e1a7d4d60e01b8152600481018290527f00000000000000000000000000000000000000000000000000000000000000006001600160a01b031690632e1a7d4d90602401600060405180830381600087803b1580156147c257600080fd5b505af11580156147d6573d6000803e3d6000fd5b505050506147e48282614d30565b614868577f00000000000000000000000000000000000000000000000000000000000000006001600160a01b031663d0e30db0826040518263ffffffff1660e01b81526004016000604051808303818588803b15801561484357600080fd5b505af1158015614857573d6000803e3d6000fd5b505050505061486884308484614da7565b6132d9565b6001600160a01b03821630141561496c573481146148f35760405162461bcd60e51b815260206004820152603560248201527f4d61726b65743a206e617469766520746f6b656e2076616c756520646f65732060448201527f6e6f74206d617463682062696420616d6f756e742e00000000000000000000006064820152608401610ab3565b7f00000000000000000000000000000000000000000000000000000000000000006001600160a01b031663d0e30db0826040518263ffffffff1660e01b81526004016000604051808303818588803b15801561494e57600080fd5b505af1158015614962573d6000803e3d6000fd5b50505050506132d9565b6147e48282614d30565b6132d984848484614da7565b6000828152602081815260408083206001600160a01b038516845290915290205460ff1661314f576149be816001600160a01b0316601461503e565b6149c983602061503e565b6040516020016149da929190615a09565b60408051601f198184030181529082905262461bcd60e51b8252610ab391600401615b75565b6000828152602081815260408083206001600160a01b038516845290915290205460ff161561314f576000828152602081815260408083206001600160a01b03851684529091529020805460ff19169055614a596109f2565b6001600160a01b0316816001600160a01b0316837ff6391f5c32d9c69d2a47ea670b442974b53935d1edc7fd64eb21e047a839171b60405160405180910390a45050565b60008181526001830160205260408120548015614bb0576000614ac1600183615d57565b8554909150600090614ad590600190615d57565b9050818114614b56576000866000018281548110614b0357634e487b7160e01b600052603260045260246000fd5b9060005260206000200154905080876000018481548110614b3457634e487b7160e01b600052603260045260246000fd5b6000918252602080832090910192909255918252600188019052604090208390555b8554869080614b7557634e487b7160e01b600052603160045260246000fd5b600190038181906000526020600020016000905590558560010160008681526020019081526020016000206000905560019350505050610a4d565b6000915050610a4d565b60008215806118a6575082821180156118a65750600754600160881b900467ffffffffffffffff1683612710614bf08286615d57565b614bfa9190615d38565b614c049190615d18565b10159392505050565b6000826000018281548110614c3257634e487b7160e01b600052603260045260246000fd5b9060005260206000200154905092915050565b6060833b614cbb5760405162461bcd60e51b815260206004820152602660248201527f416464726573733a2064656c65676174652063616c6c20746f206e6f6e2d636f60448201527f6e747261637400000000000000000000000000000000000000000000000000006064820152608401610ab3565b600080856001600160a01b031685604051614cd691906159ed565b600060405180830381855af49150503d8060008114614d11576040519150601f19603f3d011682016040523d82523d6000602084013e614d16565b606091505b5091509150614d2682828661522d565b9695505050505050565b60408051600080825260208201928390529182916001600160a01b038616918591614d5a916159ed565b60006040518083038185875af1925050503d8060008114614d97576040519150601f19603f3d011682016040523d82523d6000602084013e614d9c565b606091505b509095945050505050565b6001600160a01b038316301415614e3a5760405163095ea7b360e01b8152306004820152602481018290526001600160a01b0385169063095ea7b390604401602060405180830381600087803b158015614e0057600080fd5b505af1158015614e14573d6000803e3d6000fd5b505050506040513d601f19601f82011682018060405250810190614e3891906156c1565b505b6040516370a0823160e01b81526001600160a01b038381166004830152600091908616906370a082319060240160206040518083038186803b158015614e7f57600080fd5b505afa158015614e93573d6000803e3d6000fd5b505050506040513d601f19601f82011682018060405250810190614eb791906156f5565b6040516323b872dd60e01b81526001600160a01b0386811660048301528581166024830152604482018590529192506000918716906323b872dd90606401602060405180830381600087803b158015614f0f57600080fd5b505af1158015614f23573d6000803e3d6000fd5b505050506040513d601f19601f82011682018060405250810190614f4791906156c1565b6040516370a0823160e01b81526001600160a01b0386811660048301529192506000918816906370a082319060240160206040518083038186803b158015614f8e57600080fd5b505afa158015614fa2573d6000803e3d6000fd5b505050506040513d601f19601f82011682018060405250810190614fc691906156f5565b9050818015614fdd5750614fda8484615d00565b81145b6150355760405162461bcd60e51b8152602060048201526024808201527f4d61726b65743a206661696c656420746f207472616e736665722063757272656044820152633731bc9760e11b6064820152608401610ab3565b50505050505050565b6060600061504d836002615d38565b615058906002615d00565b67ffffffffffffffff81111561507e57634e487b7160e01b600052604160045260246000fd5b6040519080825280601f01601f1916602001820160405280156150a8576020820181803683370190505b509050600360fc1b816000815181106150d157634e487b7160e01b600052603260045260246000fd5b60200101906001600160f81b031916908160001a905350600f60fb1b8160018151811061510e57634e487b7160e01b600052603260045260246000fd5b60200101906001600160f81b031916908160001a9053506000615132846002615d38565b61513d906001615d00565b90505b60018111156151de577f303132333435363738396162636465660000000000000000000000000000000085600f166010811061518c57634e487b7160e01b600052603260045260246000fd5b1a60f81b8282815181106151b057634e487b7160e01b600052603260045260246000fd5b60200101906001600160f81b031916908160001a90535060049490941c936151d781615d9a565b9050615140565b5083156118a65760405162461bcd60e51b815260206004820181905260248201527f537472696e67733a20686578206c656e67746820696e73756666696369656e746044820152606401610ab3565b6060831561523c5750816118a6565b82511561524c5782518084602001fd5b8160405162461bcd60e51b8152600401610ab39190615b75565b82805461527290615db1565b90600052602060002090601f01602090048101928261529457600085556152da565b82601f106152ad5782800160ff198235161785556152da565b828001600101855582156152da579182015b828111156152da5782358255916020019190600101906152bf565b506152e69291506152ea565b5090565b5b808211156152e657600081556001016152eb565b803561440781615e54565b600082601f83011261531a578081fd5b8135602067ffffffffffffffff82111561533657615336615e1d565b8160051b615345828201615ccf565b83815282810190868401838801850189101561535f578687fd5b8693505b85841015615381578035835260019390930192918401918401615363565b50979650505050505050565b60008083601f84011261539e578182fd5b50813567ffffffffffffffff8111156153b5578182fd5b6020830191508360208285010111156153cd57600080fd5b9250929050565b600082601f8301126153e4578081fd5b813567ffffffffffffffff8111156153fe576153fe615e1d565b615411601f8201601f1916602001615ccf565b818152846020838601011115615425578283fd5b816020850160208301379081016020019190915292915050565b80356002811061440757600080fd5b60006020828403121561545f578081fd5b81356118a681615e54565b60006020828403121561547b578081fd5b81516118a681615e54565b600080600080600060a0868803121561549d578081fd5b85356154a881615e54565b945060208601356154b881615e54565b9350604086013567ffffffffffffffff808211156154d4578283fd5b6154e089838a0161530a565b945060608801359150808211156154f5578283fd5b61550189838a0161530a565b93506080880135915080821115615516578283fd5b50615523888289016153d4565b9150509295509295909350565b600080600080600060808688031215615547578081fd5b853561555281615e54565b9450602086013561556281615e54565b935060408601359250606086013567ffffffffffffffff811115615584578182fd5b6155908882890161538d565b969995985093965092949392505050565b600080600080600060a086880312156155b8578081fd5b85356155c381615e54565b945060208601356155d381615e54565b93506040860135925060608601359150608086013567ffffffffffffffff8111156155fc578182fd5b615523888289016153d4565b6000806040838503121561561a578182fd5b825161562581615e54565b6020939093015192949293505050565b60008060208385031215615647578182fd5b823567ffffffffffffffff8082111561565e578384fd5b818501915085601f830112615671578384fd5b81358181111561567f578485fd5b8660208260051b8501011115615693578485fd5b60209290920196919550909350505050565b6000602082840312156156b6578081fd5b81356118a681615e69565b6000602082840312156156d2578081fd5b81516118a681615e69565b6000602082840312156156ee578081fd5b5035919050565b600060208284031215615706578081fd5b5051919050565b6000806040838503121561571f578182fd5b82359150602083013561573181615e54565b809150509250929050565b6000806040838503121561574e578182fd5b50508035926020909101359150565b60006020828403121561576e578081fd5b81356001600160e01b0319811681146118a6578182fd5b60008060208385031215615797578182fd5b823567ffffffffffffffff8111156157ad578283fd5b6157b98582860161538d565b90969095509350505050565b600061014082840312156157d7578081fd5b6157df615ca5565b6157e8836152ff565b81526020830135602082015260408301356040820152606083013560608201526080830135608082015261581e60a084016152ff565b60a082015260c083013560c082015260e083013560e082015261010080840135818301525061012061585181850161543f565b908201529392505050565b600080600060608486031215615870578081fd5b505081359360208301359350604090920135919050565b600080600080600080600080610100898b0312156158a3578586fd5b883597506020890135965060408901359550606089013594506080890135935060a08901356158d181615e54565b979a969950949793969295929450505060c08201359160e0013590565b60008151808452615906816020860160208601615d6e565b601f01601f19169290920160200192915050565b61592381615e33565b9052565b80518252602081015161594560208401826001600160a01b03169052565b50604081015161596060408401826001600160a01b03169052565b50606081015160608301526080810151608083015260a081015160a083015260c081015160c083015260e08101516159a360e08401826001600160a01b03169052565b50610100818101519083015261012080820151908301526101408082015190830152610160808201516159d88285018261591a565b5050610180808201516132d98285018261591a565b600082516159ff818460208701615d6e565b9190910192915050565b7f416363657373436f6e74726f6c3a206163636f756e7420000000000000000000815260008351615a41816017850160208801615d6e565b7f206973206d697373696e6720726f6c65200000000000000000000000000000006017918401918201528351615a7e816028840160208801615d6e565b01602801949350505050565b6001600160a01b038581168252841660208201526102608101615ada6040830185805182526001600160a01b03602082015116602083015260408101516040830152606081015160608301525050565b610a5c60c0830184615927565b6001600160a01b0384168152602081018390526101e08101615b0c6040830184615927565b949350505050565b6000602080830181845280855180835260408601915060408160051b8701019250838701855b82811015615b6857603f19888603018452615b568583516158ee565b94509285019290850190600101615b3a565b5092979650505050505050565b6020815260006118a660208301846158ee565b6101a08101610a4d8284615927565b825181526020808401516001600160a01b031690820152604080840151908201526060808401519082015261022081016118a66080830184615927565b60006101a0820190508e82526001600160a01b03808f166020840152808e1660408401528c60608401528b60808401528a60a08401528960c084015280891660e084015250866101008301528561012083015284610140830152615c3784615e33565b83610160830152615c4783615e33565b826101808301529e9d5050505050505050505050505050565b6000808335601e19843603018112615c76578283fd5b83018035915067ffffffffffffffff821115615c90578283fd5b6020019150368190038213156153cd57600080fd5b604051610140810167ffffffffffffffff81118282101715615cc957615cc9615e1d565b60405290565b604051601f8201601f1916810167ffffffffffffffff81118282101715615cf857615cf8615e1d565b604052919050565b60008219821115615d1357615d13615e07565b500190565b600082615d3357634e487b7160e01b81526012600452602481fd5b500490565b6000816000190483118215151615615d5257615d52615e07565b500290565b600082821015615d6957615d69615e07565b500390565b60005b83811015615d89578181015183820152602001615d71565b838111156132d95750506000910152565b600081615da957615da9615e07565b506000190190565b600181811c90821680615dc557607f821691505b60208210811415615de657634e487b7160e01b600052602260045260246000fd5b50919050565b6000600019821415615e0057615e00615e07565b5060010190565b634e487b7160e01b600052601160045260246000fd5b634e487b7160e01b600052604160045260246000fd5b60028110615e5157634e487b7160e01b600052602160045260246000fd5b50565b6001600160a01b0381168114615e5157600080fd5b8015158114615e5157600080fdfe416464726573733a206c6f772d6c6576656c2064656c65676174652063616c6c206661696c6564a164736f6c6343000804000a",
  "linkReferences": {},
  "deployedLinkReferences": {}
}