{
  "_format": "hh-sol-artifact-1",
  "contractName": "MarketWithAuction",
  "sourceName": "contracts/v2/MarketWithAuction.sol",
  "abi": [
    {
      "inputs": [
        {
          "internalType": "address payable",
          "name": "_controlCenter",
          "type": "address"
        },
        {
          "internalType": "address",
          "name": "_trustedForwarder",
          "type": "address"
        },
        {
          "internalType": "address",
          "name": "_nativeTokenWrapper",
          "type": "address"
        },
        {
          "internalType": "string",
          "name": "_uri",
          "type": "string"
        },
        {
          "internalType": "uint256",
          "name": "_marketFeeBps",
          "type": "uint256"
        }
      ],
      "stateMutability": "nonpayable",
      "type": "constructor"
    },
    {
      "anonymous": false,
      "inputs": [
        {
          "indexed": false,
          "internalType": "uint256",
          "name": "timeBuffer",
          "type": "uint256"
        },
        {
          "indexed": false,
          "internalType": "uint256",
          "name": "bidBufferBps",
          "type": "uint256"
        }
      ],
      "name": "AuctionBuffersUpdated",
      "type": "event"
    },
    {
      "anonymous": false,
      "inputs": [
        {
          "indexed": true,
          "internalType": "uint256",
          "name": "listingId",
          "type": "uint256"
        },
        {
          "indexed": true,
          "internalType": "address",
          "name": "auctionCreator",
          "type": "address"
        },
        {
          "components": [
            {
              "internalType": "uint256",
              "name": "listingId",
              "type": "uint256"
            },
            {
              "internalType": "address",
              "name": "tokenOwner",
              "type": "address"
            },
            {
              "internalType": "address",
              "name": "assetContract",
              "type": "address"
            },
            {
              "internalType": "uint256",
              "name": "tokenId",
              "type": "uint256"
            },
            {
              "internalType": "uint256",
              "name": "startTime",
              "type": "uint256"
            },
            {
              "internalType": "uint256",
              "name": "endTime",
              "type": "uint256"
            },
            {
              "internalType": "uint256",
              "name": "quantity",
              "type": "uint256"
            },
            {
              "internalType": "address",
              "name": "currency",
              "type": "address"
            },
            {
              "internalType": "uint256",
              "name": "reservePricePerToken",
              "type": "uint256"
            },
            {
              "internalType": "uint256",
              "name": "buyoutPricePerToken",
              "type": "uint256"
            },
            {
              "internalType": "enum IMarket.TokenType",
              "name": "tokenType",
              "type": "uint8"
            },
            {
              "internalType": "enum IMarket.ListingType",
              "name": "listingType",
              "type": "uint8"
            }
          ],
          "indexed": false,
          "internalType": "struct IMarket.Listing",
          "name": "listing",
          "type": "tuple"
        }
      ],
      "name": "AuctionCanceled",
      "type": "event"
    },
    {
      "anonymous": false,
      "inputs": [
        {
          "indexed": true,
          "internalType": "uint256",
          "name": "listingId",
          "type": "uint256"
        },
        {
          "indexed": true,
          "internalType": "address",
          "name": "closer",
          "type": "address"
        },
        {
          "indexed": false,
          "internalType": "address",
          "name": "auctionCreator",
          "type": "address"
        },
        {
          "indexed": false,
          "internalType": "address",
          "name": "winningBidder",
          "type": "address"
        },
        {
          "components": [
            {
              "internalType": "uint256",
              "name": "listingId",
              "type": "uint256"
            },
            {
              "internalType": "address",
              "name": "offeror",
              "type": "address"
            },
            {
              "internalType": "uint256",
              "name": "quantityWanted",
              "type": "uint256"
            },
            {
              "internalType": "address",
              "name": "currency",
              "type": "address"
            },
            {
              "internalType": "uint256",
              "name": "pricePerToken",
              "type": "uint256"
            }
          ],
          "indexed": false,
          "internalType": "struct IMarket.Offer",
          "name": "winningBid",
          "type": "tuple"
        },
        {
          "components": [
            {
              "internalType": "uint256",
              "name": "listingId",
              "type": "uint256"
            },
            {
              "internalType": "address",
              "name": "tokenOwner",
              "type": "address"
            },
            {
              "internalType": "address",
              "name": "assetContract",
              "type": "address"
            },
            {
              "internalType": "uint256",
              "name": "tokenId",
              "type": "uint256"
            },
            {
              "internalType": "uint256",
              "name": "startTime",
              "type": "uint256"
            },
            {
              "internalType": "uint256",
              "name": "endTime",
              "type": "uint256"
            },
            {
              "internalType": "uint256",
              "name": "quantity",
              "type": "uint256"
            },
            {
              "internalType": "address",
              "name": "currency",
              "type": "address"
            },
            {
              "internalType": "uint256",
              "name": "reservePricePerToken",
              "type": "uint256"
            },
            {
              "internalType": "uint256",
              "name": "buyoutPricePerToken",
              "type": "uint256"
            },
            {
              "internalType": "enum IMarket.TokenType",
              "name": "tokenType",
              "type": "uint8"
            },
            {
              "internalType": "enum IMarket.ListingType",
              "name": "listingType",
              "type": "uint8"
            }
          ],
          "indexed": false,
          "internalType": "struct IMarket.Listing",
          "name": "listing",
          "type": "tuple"
        }
      ],
      "name": "AuctionClosed",
      "type": "event"
    },
    {
      "anonymous": false,
      "inputs": [
        {
          "indexed": false,
          "internalType": "address",
          "name": "from",
          "type": "address"
        },
        {
          "indexed": false,
          "internalType": "uint256",
          "name": "amount",
          "type": "uint256"
        }
      ],
      "name": "EtherReceived",
      "type": "event"
    },
    {
      "anonymous": false,
      "inputs": [
        {
          "indexed": true,
          "internalType": "address",
          "name": "listingCreator",
          "type": "address"
        },
        {
          "indexed": true,
          "internalType": "uint256",
          "name": "listingId",
          "type": "uint256"
        },
        {
          "components": [
            {
              "internalType": "uint256",
              "name": "listingId",
              "type": "uint256"
            },
            {
              "internalType": "address",
              "name": "tokenOwner",
              "type": "address"
            },
            {
              "internalType": "address",
              "name": "assetContract",
              "type": "address"
            },
            {
              "internalType": "uint256",
              "name": "tokenId",
              "type": "uint256"
            },
            {
              "internalType": "uint256",
              "name": "startTime",
              "type": "uint256"
            },
            {
              "internalType": "uint256",
              "name": "endTime",
              "type": "uint256"
            },
            {
              "internalType": "uint256",
              "name": "quantity",
              "type": "uint256"
            },
            {
              "internalType": "address",
              "name": "currency",
              "type": "address"
            },
            {
              "internalType": "uint256",
              "name": "reservePricePerToken",
              "type": "uint256"
            },
            {
              "internalType": "uint256",
              "name": "buyoutPricePerToken",
              "type": "uint256"
            },
            {
              "internalType": "enum IMarket.TokenType",
              "name": "tokenType",
              "type": "uint8"
            },
            {
              "internalType": "enum IMarket.ListingType",
              "name": "listingType",
              "type": "uint8"
            }
          ],
          "indexed": false,
          "internalType": "struct IMarket.Listing",
          "name": "listing",
          "type": "tuple"
        }
      ],
      "name": "ListingUpdate",
      "type": "event"
    },
    {
      "anonymous": false,
      "inputs": [
        {
          "indexed": false,
          "internalType": "uint64",
          "name": "newFee",
          "type": "uint64"
        }
      ],
      "name": "MarketFeeUpdate",
      "type": "event"
    },
    {
      "anonymous": false,
      "inputs": [
        {
          "indexed": true,
          "internalType": "uint256",
          "name": "listingId",
          "type": "uint256"
        },
        {
          "indexed": true,
          "internalType": "address",
          "name": "bidder",
          "type": "address"
        },
        {
          "components": [
            {
              "internalType": "uint256",
              "name": "listingId",
              "type": "uint256"
            },
            {
              "internalType": "address",
              "name": "offeror",
              "type": "address"
            },
            {
              "internalType": "uint256",
              "name": "quantityWanted",
              "type": "uint256"
            },
            {
              "internalType": "address",
              "name": "currency",
              "type": "address"
            },
            {
              "internalType": "uint256",
              "name": "pricePerToken",
              "type": "uint256"
            }
          ],
          "indexed": false,
          "internalType": "struct IMarket.Offer",
          "name": "bid",
          "type": "tuple"
        },
        {
          "components": [
            {
              "internalType": "uint256",
              "name": "listingId",
              "type": "uint256"
            },
            {
              "internalType": "address",
              "name": "tokenOwner",
              "type": "address"
            },
            {
              "internalType": "address",
              "name": "assetContract",
              "type": "address"
            },
            {
              "internalType": "uint256",
              "name": "tokenId",
              "type": "uint256"
            },
            {
              "internalType": "uint256",
              "name": "startTime",
              "type": "uint256"
            },
            {
              "internalType": "uint256",
              "name": "endTime",
              "type": "uint256"
            },
            {
              "internalType": "uint256",
              "name": "quantity",
              "type": "uint256"
            },
            {
              "internalType": "address",
              "name": "currency",
              "type": "address"
            },
            {
              "internalType": "uint256",
              "name": "reservePricePerToken",
              "type": "uint256"
            },
            {
              "internalType": "uint256",
              "name": "buyoutPricePerToken",
              "type": "uint256"
            },
            {
              "internalType": "enum IMarket.TokenType",
              "name": "tokenType",
              "type": "uint8"
            },
            {
              "internalType": "enum IMarket.ListingType",
              "name": "listingType",
              "type": "uint8"
            }
          ],
          "indexed": false,
          "internalType": "struct IMarket.Listing",
          "name": "listing",
          "type": "tuple"
        }
      ],
      "name": "NewBid",
      "type": "event"
    },
    {
      "anonymous": false,
      "inputs": [
        {
          "indexed": true,
          "internalType": "address",
          "name": "assetContract",
          "type": "address"
        },
        {
          "indexed": true,
          "internalType": "address",
          "name": "seller",
          "type": "address"
        },
        {
          "indexed": true,
          "internalType": "uint256",
          "name": "listingId",
          "type": "uint256"
        },
        {
          "indexed": false,
          "internalType": "address",
          "name": "buyer",
          "type": "address"
        },
        {
          "indexed": false,
          "internalType": "uint256",
          "name": "quantity",
          "type": "uint256"
        },
        {
          "components": [
            {
              "internalType": "uint256",
              "name": "listingId",
              "type": "uint256"
            },
            {
              "internalType": "address",
              "name": "tokenOwner",
              "type": "address"
            },
            {
              "internalType": "address",
              "name": "assetContract",
              "type": "address"
            },
            {
              "internalType": "uint256",
              "name": "tokenId",
              "type": "uint256"
            },
            {
              "internalType": "uint256",
              "name": "startTime",
              "type": "uint256"
            },
            {
              "internalType": "uint256",
              "name": "endTime",
              "type": "uint256"
            },
            {
              "internalType": "uint256",
              "name": "quantity",
              "type": "uint256"
            },
            {
              "internalType": "address",
              "name": "currency",
              "type": "address"
            },
            {
              "internalType": "uint256",
              "name": "reservePricePerToken",
              "type": "uint256"
            },
            {
              "internalType": "uint256",
              "name": "buyoutPricePerToken",
              "type": "uint256"
            },
            {
              "internalType": "enum IMarket.TokenType",
              "name": "tokenType",
              "type": "uint8"
            },
            {
              "internalType": "enum IMarket.ListingType",
              "name": "listingType",
              "type": "uint8"
            }
          ],
          "indexed": false,
          "internalType": "struct IMarket.Listing",
          "name": "listing",
          "type": "tuple"
        }
      ],
      "name": "NewDirectSale",
      "type": "event"
    },
    {
      "anonymous": false,
      "inputs": [
        {
          "indexed": true,
          "internalType": "address",
          "name": "assetContract",
          "type": "address"
        },
        {
          "indexed": true,
          "internalType": "address",
          "name": "seller",
          "type": "address"
        },
        {
          "indexed": true,
          "internalType": "uint256",
          "name": "listingId",
          "type": "uint256"
        },
        {
          "components": [
            {
              "internalType": "uint256",
              "name": "listingId",
              "type": "uint256"
            },
            {
              "internalType": "address",
              "name": "tokenOwner",
              "type": "address"
            },
            {
              "internalType": "address",
              "name": "assetContract",
              "type": "address"
            },
            {
              "internalType": "uint256",
              "name": "tokenId",
              "type": "uint256"
            },
            {
              "internalType": "uint256",
              "name": "startTime",
              "type": "uint256"
            },
            {
              "internalType": "uint256",
              "name": "endTime",
              "type": "uint256"
            },
            {
              "internalType": "uint256",
              "name": "quantity",
              "type": "uint256"
            },
            {
              "internalType": "address",
              "name": "currency",
              "type": "address"
            },
            {
              "internalType": "uint256",
              "name": "reservePricePerToken",
              "type": "uint256"
            },
            {
              "internalType": "uint256",
              "name": "buyoutPricePerToken",
              "type": "uint256"
            },
            {
              "internalType": "enum IMarket.TokenType",
              "name": "tokenType",
              "type": "uint8"
            },
            {
              "internalType": "enum IMarket.ListingType",
              "name": "listingType",
              "type": "uint8"
            }
          ],
          "indexed": false,
          "internalType": "struct IMarket.Listing",
          "name": "listing",
          "type": "tuple"
        }
      ],
      "name": "NewListing",
      "type": "event"
    },
    {
      "anonymous": false,
      "inputs": [
        {
          "indexed": true,
          "internalType": "uint256",
          "name": "listingId",
          "type": "uint256"
        },
        {
          "indexed": true,
          "internalType": "address",
          "name": "offeror",
          "type": "address"
        },
        {
          "components": [
            {
              "internalType": "uint256",
              "name": "listingId",
              "type": "uint256"
            },
            {
              "internalType": "address",
              "name": "offeror",
              "type": "address"
            },
            {
              "internalType": "uint256",
              "name": "quantityWanted",
              "type": "uint256"
            },
            {
              "internalType": "address",
              "name": "currency",
              "type": "address"
            },
            {
              "internalType": "uint256",
              "name": "pricePerToken",
              "type": "uint256"
            }
          ],
          "indexed": false,
          "internalType": "struct IMarket.Offer",
          "name": "offer",
          "type": "tuple"
        },
        {
          "components": [
            {
              "internalType": "uint256",
              "name": "listingId",
              "type": "uint256"
            },
            {
              "internalType": "address",
              "name": "tokenOwner",
              "type": "address"
            },
            {
              "internalType": "address",
              "name": "assetContract",
              "type": "address"
            },
            {
              "internalType": "uint256",
              "name": "tokenId",
              "type": "uint256"
            },
            {
              "internalType": "uint256",
              "name": "startTime",
              "type": "uint256"
            },
            {
              "internalType": "uint256",
              "name": "endTime",
              "type": "uint256"
            },
            {
              "internalType": "uint256",
              "name": "quantity",
              "type": "uint256"
            },
            {
              "internalType": "address",
              "name": "currency",
              "type": "address"
            },
            {
              "internalType": "uint256",
              "name": "reservePricePerToken",
              "type": "uint256"
            },
            {
              "internalType": "uint256",
              "name": "buyoutPricePerToken",
              "type": "uint256"
            },
            {
              "internalType": "enum IMarket.TokenType",
              "name": "tokenType",
              "type": "uint8"
            },
            {
              "internalType": "enum IMarket.ListingType",
              "name": "listingType",
              "type": "uint8"
            }
          ],
          "indexed": false,
          "internalType": "struct IMarket.Listing",
          "name": "listing",
          "type": "tuple"
        }
      ],
      "name": "NewOffer",
      "type": "event"
    },
    {
      "anonymous": false,
      "inputs": [
        {
          "indexed": false,
          "internalType": "bool",
          "name": "restricted",
          "type": "bool"
        }
      ],
      "name": "RestrictedListerRoleUpdated",
      "type": "event"
    },
    {
      "anonymous": false,
      "inputs": [
        {
          "indexed": true,
          "internalType": "bytes32",
          "name": "role",
          "type": "bytes32"
        },
        {
          "indexed": true,
          "internalType": "bytes32",
          "name": "previousAdminRole",
          "type": "bytes32"
        },
        {
          "indexed": true,
          "internalType": "bytes32",
          "name": "newAdminRole",
          "type": "bytes32"
        }
      ],
      "name": "RoleAdminChanged",
      "type": "event"
    },
    {
      "anonymous": false,
      "inputs": [
        {
          "indexed": true,
          "internalType": "bytes32",
          "name": "role",
          "type": "bytes32"
        },
        {
          "indexed": true,
          "internalType": "address",
          "name": "account",
          "type": "address"
        },
        {
          "indexed": true,
          "internalType": "address",
          "name": "sender",
          "type": "address"
        }
      ],
      "name": "RoleGranted",
      "type": "event"
    },
    {
      "anonymous": false,
      "inputs": [
        {
          "indexed": true,
          "internalType": "bytes32",
          "name": "role",
          "type": "bytes32"
        },
        {
          "indexed": true,
          "internalType": "address",
          "name": "account",
          "type": "address"
        },
        {
          "indexed": true,
          "internalType": "address",
          "name": "sender",
          "type": "address"
        }
      ],
      "name": "RoleRevoked",
      "type": "event"
    },
    {
      "inputs": [],
      "name": "DEFAULT_ADMIN_ROLE",
      "outputs": [
        {
          "internalType": "bytes32",
          "name": "",
          "type": "bytes32"
        }
      ],
      "stateMutability": "view",
      "type": "function"
    },
    {
      "inputs": [],
      "name": "LISTER_ROLE",
      "outputs": [
        {
          "internalType": "bytes32",
          "name": "",
          "type": "bytes32"
        }
      ],
      "stateMutability": "view",
      "type": "function"
    },
    {
      "inputs": [],
      "name": "MAX_BPS",
      "outputs": [
        {
          "internalType": "uint64",
          "name": "",
          "type": "uint64"
        }
      ],
      "stateMutability": "view",
      "type": "function"
    },
    {
      "inputs": [],
      "name": "_contractURI",
      "outputs": [
        {
          "internalType": "string",
          "name": "",
          "type": "string"
        }
      ],
      "stateMutability": "view",
      "type": "function"
    },
    {
      "inputs": [
        {
          "internalType": "uint256",
          "name": "_listingId",
          "type": "uint256"
        },
        {
          "internalType": "address",
          "name": "offeror",
          "type": "address"
        }
      ],
      "name": "acceptOffer",
      "outputs": [],
      "stateMutability": "nonpayable",
      "type": "function"
    },
    {
      "inputs": [],
      "name": "bidBufferBps",
      "outputs": [
        {
          "internalType": "uint64",
          "name": "",
          "type": "uint64"
        }
      ],
      "stateMutability": "view",
      "type": "function"
    },
    {
      "inputs": [
        {
          "internalType": "uint256",
          "name": "_listingId",
          "type": "uint256"
        },
        {
          "internalType": "uint256",
          "name": "_quantityToBuy",
          "type": "uint256"
        }
      ],
      "name": "buy",
      "outputs": [],
      "stateMutability": "nonpayable",
      "type": "function"
    },
    {
      "inputs": [
        {
          "internalType": "uint256",
          "name": "_listingId",
          "type": "uint256"
        }
      ],
      "name": "closeAuction",
      "outputs": [],
      "stateMutability": "nonpayable",
      "type": "function"
    },
    {
      "inputs": [],
      "name": "contractURI",
      "outputs": [
        {
          "internalType": "string",
          "name": "",
          "type": "string"
        }
      ],
      "stateMutability": "view",
      "type": "function"
    },
    {
      "inputs": [
        {
          "components": [
            {
              "internalType": "address",
              "name": "assetContract",
              "type": "address"
            },
            {
              "internalType": "uint256",
              "name": "tokenId",
              "type": "uint256"
            },
            {
              "internalType": "uint256",
              "name": "secondsUntilStartTime",
              "type": "uint256"
            },
            {
              "internalType": "uint256",
              "name": "secondsUntilEndTime",
              "type": "uint256"
            },
            {
              "internalType": "uint256",
              "name": "quantityToList",
              "type": "uint256"
            },
            {
              "internalType": "address",
              "name": "currencyToAccept",
              "type": "address"
            },
            {
              "internalType": "uint256",
              "name": "reservePricePerToken",
              "type": "uint256"
            },
            {
              "internalType": "uint256",
              "name": "buyoutPricePerToken",
              "type": "uint256"
            },
            {
              "internalType": "enum IMarket.ListingType",
              "name": "listingType",
              "type": "uint8"
            }
          ],
          "internalType": "struct IMarket.ListingParameters",
          "name": "_params",
          "type": "tuple"
        }
      ],
      "name": "createListing",
      "outputs": [],
      "stateMutability": "nonpayable",
      "type": "function"
    },
    {
      "inputs": [
        {
          "internalType": "uint256",
          "name": "_listingId",
          "type": "uint256"
        },
        {
          "internalType": "uint256",
          "name": "_quantityToList",
          "type": "uint256"
        },
        {
          "internalType": "uint256",
          "name": "_reservePricePerToken",
          "type": "uint256"
        },
        {
          "internalType": "uint256",
          "name": "_buyoutPricePerToken",
          "type": "uint256"
        },
        {
          "internalType": "address",
          "name": "_currencyToAccept",
          "type": "address"
        },
        {
          "internalType": "uint256",
          "name": "_secondsUntilStartTime",
          "type": "uint256"
        },
        {
          "internalType": "uint256",
          "name": "_secondsUntilEndTime",
          "type": "uint256"
        }
      ],
      "name": "editListingParametrs",
      "outputs": [],
      "stateMutability": "nonpayable",
      "type": "function"
    },
    {
      "inputs": [
        {
          "internalType": "bytes32",
          "name": "role",
          "type": "bytes32"
        }
      ],
      "name": "getRoleAdmin",
      "outputs": [
        {
          "internalType": "bytes32",
          "name": "",
          "type": "bytes32"
        }
      ],
      "stateMutability": "view",
      "type": "function"
    },
    {
      "inputs": [
        {
          "internalType": "bytes32",
          "name": "role",
          "type": "bytes32"
        },
        {
          "internalType": "uint256",
          "name": "index",
          "type": "uint256"
        }
      ],
      "name": "getRoleMember",
      "outputs": [
        {
          "internalType": "address",
          "name": "",
          "type": "address"
        }
      ],
      "stateMutability": "view",
      "type": "function"
    },
    {
      "inputs": [
        {
          "internalType": "bytes32",
          "name": "role",
          "type": "bytes32"
        }
      ],
      "name": "getRoleMemberCount",
      "outputs": [
        {
          "internalType": "uint256",
          "name": "",
          "type": "uint256"
        }
      ],
      "stateMutability": "view",
      "type": "function"
    },
    {
      "inputs": [
        {
          "internalType": "bytes32",
          "name": "role",
          "type": "bytes32"
        },
        {
          "internalType": "address",
          "name": "account",
          "type": "address"
        }
      ],
      "name": "grantRole",
      "outputs": [],
      "stateMutability": "nonpayable",
      "type": "function"
    },
    {
      "inputs": [
        {
          "internalType": "bytes32",
          "name": "role",
          "type": "bytes32"
        },
        {
          "internalType": "address",
          "name": "account",
          "type": "address"
        }
      ],
      "name": "hasRole",
      "outputs": [
        {
          "internalType": "bool",
          "name": "",
          "type": "bool"
        }
      ],
      "stateMutability": "view",
      "type": "function"
    },
    {
      "inputs": [
        {
          "internalType": "address",
          "name": "forwarder",
          "type": "address"
        }
      ],
      "name": "isTrustedForwarder",
      "outputs": [
        {
          "internalType": "bool",
          "name": "",
          "type": "bool"
        }
      ],
      "stateMutability": "view",
      "type": "function"
    },
    {
      "inputs": [
        {
          "internalType": "uint256",
          "name": "",
          "type": "uint256"
        }
      ],
      "name": "listings",
      "outputs": [
        {
          "internalType": "uint256",
          "name": "listingId",
          "type": "uint256"
        },
        {
          "internalType": "address",
          "name": "tokenOwner",
          "type": "address"
        },
        {
          "internalType": "address",
          "name": "assetContract",
          "type": "address"
        },
        {
          "internalType": "uint256",
          "name": "tokenId",
          "type": "uint256"
        },
        {
          "internalType": "uint256",
          "name": "startTime",
          "type": "uint256"
        },
        {
          "internalType": "uint256",
          "name": "endTime",
          "type": "uint256"
        },
        {
          "internalType": "uint256",
          "name": "quantity",
          "type": "uint256"
        },
        {
          "internalType": "address",
          "name": "currency",
          "type": "address"
        },
        {
          "internalType": "uint256",
          "name": "reservePricePerToken",
          "type": "uint256"
        },
        {
          "internalType": "uint256",
          "name": "buyoutPricePerToken",
          "type": "uint256"
        },
        {
          "internalType": "enum IMarket.TokenType",
          "name": "tokenType",
          "type": "uint8"
        },
        {
          "internalType": "enum IMarket.ListingType",
          "name": "listingType",
          "type": "uint8"
        }
      ],
      "stateMutability": "view",
      "type": "function"
    },
    {
      "inputs": [],
      "name": "marketFeeBps",
      "outputs": [
        {
          "internalType": "uint64",
          "name": "",
          "type": "uint64"
        }
      ],
      "stateMutability": "view",
      "type": "function"
    },
    {
      "inputs": [
        {
          "internalType": "bytes[]",
          "name": "data",
          "type": "bytes[]"
        }
      ],
      "name": "multicall",
      "outputs": [
        {
          "internalType": "bytes[]",
          "name": "results",
          "type": "bytes[]"
        }
      ],
      "stateMutability": "nonpayable",
      "type": "function"
    },
    {
      "inputs": [],
      "name": "nativeToken",
      "outputs": [
        {
          "internalType": "address",
          "name": "",
          "type": "address"
        }
      ],
      "stateMutability": "view",
      "type": "function"
    },
    {
      "inputs": [],
      "name": "nativeTokenWrapper",
      "outputs": [
        {
          "internalType": "address",
          "name": "",
          "type": "address"
        }
      ],
      "stateMutability": "view",
      "type": "function"
    },
    {
      "inputs": [
        {
          "internalType": "uint256",
          "name": "_listingId",
          "type": "uint256"
        },
        {
          "internalType": "uint256",
          "name": "_quantityWanted",
          "type": "uint256"
        },
        {
          "internalType": "address",
          "name": "_currency",
          "type": "address"
        },
        {
          "internalType": "uint256",
          "name": "_pricePerToken",
          "type": "uint256"
        }
      ],
      "name": "offer",
      "outputs": [],
      "stateMutability": "payable",
      "type": "function"
    },
    {
      "inputs": [
        {
          "internalType": "uint256",
          "name": "",
          "type": "uint256"
        },
        {
          "internalType": "address",
          "name": "",
          "type": "address"
        }
      ],
      "name": "offers",
      "outputs": [
        {
          "internalType": "uint256",
          "name": "listingId",
          "type": "uint256"
        },
        {
          "internalType": "address",
          "name": "offeror",
          "type": "address"
        },
        {
          "internalType": "uint256",
          "name": "quantityWanted",
          "type": "uint256"
        },
        {
          "internalType": "address",
          "name": "currency",
          "type": "address"
        },
        {
          "internalType": "uint256",
          "name": "pricePerToken",
          "type": "uint256"
        }
      ],
      "stateMutability": "view",
      "type": "function"
    },
    {
      "inputs": [
        {
          "internalType": "address",
          "name": "",
          "type": "address"
        },
        {
          "internalType": "address",
          "name": "",
          "type": "address"
        },
        {
          "internalType": "uint256[]",
          "name": "",
          "type": "uint256[]"
        },
        {
          "internalType": "uint256[]",
          "name": "",
          "type": "uint256[]"
        },
        {
          "internalType": "bytes",
          "name": "",
          "type": "bytes"
        }
      ],
      "name": "onERC1155BatchReceived",
      "outputs": [
        {
          "internalType": "bytes4",
          "name": "",
          "type": "bytes4"
        }
      ],
      "stateMutability": "nonpayable",
      "type": "function"
    },
    {
      "inputs": [
        {
          "internalType": "address",
          "name": "",
          "type": "address"
        },
        {
          "internalType": "address",
          "name": "",
          "type": "address"
        },
        {
          "internalType": "uint256",
          "name": "",
          "type": "uint256"
        },
        {
          "internalType": "uint256",
          "name": "",
          "type": "uint256"
        },
        {
          "internalType": "bytes",
          "name": "",
          "type": "bytes"
        }
      ],
      "name": "onERC1155Received",
      "outputs": [
        {
          "internalType": "bytes4",
          "name": "",
          "type": "bytes4"
        }
      ],
      "stateMutability": "nonpayable",
      "type": "function"
    },
    {
      "inputs": [
        {
          "internalType": "address",
          "name": "",
          "type": "address"
        },
        {
          "internalType": "address",
          "name": "",
          "type": "address"
        },
        {
          "internalType": "uint256",
          "name": "",
          "type": "uint256"
        },
        {
          "internalType": "bytes",
          "name": "",
          "type": "bytes"
        }
      ],
      "name": "onERC721Received",
      "outputs": [
        {
          "internalType": "bytes4",
          "name": "",
          "type": "bytes4"
        }
      ],
      "stateMutability": "pure",
      "type": "function"
    },
    {
      "inputs": [
        {
          "internalType": "bytes32",
          "name": "role",
          "type": "bytes32"
        },
        {
          "internalType": "address",
          "name": "account",
          "type": "address"
        }
      ],
      "name": "renounceRole",
      "outputs": [],
      "stateMutability": "nonpayable",
      "type": "function"
    },
    {
      "inputs": [],
      "name": "restrictedListerRoleOnly",
      "outputs": [
        {
          "internalType": "bool",
          "name": "",
          "type": "bool"
        }
      ],
      "stateMutability": "view",
      "type": "function"
    },
    {
      "inputs": [
        {
          "internalType": "bytes32",
          "name": "role",
          "type": "bytes32"
        },
        {
          "internalType": "address",
          "name": "account",
          "type": "address"
        }
      ],
      "name": "revokeRole",
      "outputs": [],
      "stateMutability": "nonpayable",
      "type": "function"
    },
    {
      "inputs": [
        {
          "internalType": "uint256",
          "name": "_timeBuffer",
          "type": "uint256"
        },
        {
          "internalType": "uint256",
          "name": "_bidBufferBps",
          "type": "uint256"
        }
      ],
      "name": "setAuctionBuffers",
      "outputs": [],
      "stateMutability": "nonpayable",
      "type": "function"
    },
    {
      "inputs": [
        {
          "internalType": "string",
          "name": "_uri",
          "type": "string"
        }
      ],
      "name": "setContractURI",
      "outputs": [],
      "stateMutability": "nonpayable",
      "type": "function"
    },
    {
      "inputs": [
        {
          "internalType": "uint256",
          "name": "_feeBps",
          "type": "uint256"
        }
      ],
      "name": "setMarketFeeBps",
      "outputs": [],
      "stateMutability": "nonpayable",
      "type": "function"
    },
    {
      "inputs": [
        {
          "internalType": "bool",
          "name": "restricted",
          "type": "bool"
        }
      ],
      "name": "setRestrictedListerRoleOnly",
      "outputs": [],
      "stateMutability": "nonpayable",
      "type": "function"
    },
    {
      "inputs": [
        {
          "internalType": "bytes4",
          "name": "interfaceId",
          "type": "bytes4"
        }
      ],
      "name": "supportsInterface",
      "outputs": [
        {
          "internalType": "bool",
          "name": "",
          "type": "bool"
        }
      ],
      "stateMutability": "view",
      "type": "function"
    },
    {
      "inputs": [],
      "name": "timeBuffer",
      "outputs": [
        {
          "internalType": "uint64",
          "name": "",
          "type": "uint64"
        }
      ],
      "stateMutability": "view",
      "type": "function"
    },
    {
      "inputs": [],
      "name": "totalListings",
      "outputs": [
        {
          "internalType": "uint256",
          "name": "",
          "type": "uint256"
        }
      ],
      "stateMutability": "view",
      "type": "function"
    },
    {
      "inputs": [
        {
          "internalType": "uint256",
          "name": "",
          "type": "uint256"
        }
      ],
      "name": "winningBid",
      "outputs": [
        {
          "internalType": "uint256",
          "name": "listingId",
          "type": "uint256"
        },
        {
          "internalType": "address",
          "name": "offeror",
          "type": "address"
        },
        {
          "internalType": "uint256",
          "name": "quantityWanted",
          "type": "uint256"
        },
        {
          "internalType": "address",
          "name": "currency",
          "type": "address"
        },
        {
          "internalType": "uint256",
          "name": "pricePerToken",
          "type": "uint256"
        }
      ],
      "stateMutability": "view",
      "type": "function"
    },
    {
      "stateMutability": "payable",
      "type": "receive"
    }
  ],
  "bytecode": "0x60a060405260078054600160481b600160c81b0319167201f400000000000003840000000000000000001790553480156200003957600080fd5b506040516200643d3803806200643d8339810160408190526200005c9162000395565b6001600255600380546001600160a01b0319166001600160a01b038616179055815162000091906006906020850190620002ef565b50600480546001600160a01b0319166001600160a01b038716179055606083901b6001600160601b03191660805260078054610100600160481b0319166101006001600160401b03841602179055620000f56000620000ef6200012f565b6200014b565b620001247ff94103142c1baabe9ac2b5d1487bf783de9e69cfeea9a72f5c9c94afd7877b8c620000ef6200012f565b505050505062000525565b6000620001466200018e60201b620031b01760201c565b905090565b620001628282620001c760201b620031d81760201c565b600082815260016020908152604090912062000189918390620031e6620001d7821b17901c565b505050565b6003546000906001600160a01b0316331415620001b2575060131936013560601c90565b62000146620001f760201b620031fb1760201c565b620001d38282620001fb565b5050565b6000620001ee836001600160a01b0384166200029d565b90505b92915050565b3390565b6000828152602081815260408083206001600160a01b038516845290915290205460ff16620001d3576000828152602081815260408083206001600160a01b03851684529091529020805460ff19166001179055620002596200012f565b6001600160a01b0316816001600160a01b0316837f2f8788117e7eff1d82e926ec794901d17c78024a50270940304540a733656f0d60405160405180910390a45050565b6000818152600183016020526040812054620002e657508154600181810184556000848152602080822090930184905584548482528286019093526040902091909155620001f1565b506000620001f1565b828054620002fd90620004b9565b90600052602060002090601f0160209004810192826200032157600085556200036c565b82601f106200033c57805160ff19168380011785556200036c565b828001600101855582156200036c579182015b828111156200036c5782518255916020019190600101906200034f565b506200037a9291506200037e565b5090565b5b808211156200037a57600081556001016200037f565b600080600080600060a08688031215620003ad578081fd5b8551620003ba816200050c565b80955050602080870151620003cf816200050c565b6040880151909550620003e2816200050c565b60608801519094506001600160401b0380821115620003ff578384fd5b818901915089601f83011262000413578384fd5b815181811115620004285762000428620004f6565b604051601f8201601f19908116603f01168101908382118183101715620004535762000453620004f6565b816040528281528c868487010111156200046b578687fd5b8693505b828410156200048e57848401860151818501870152928501926200046f565b828411156200049f57868684830101525b809750505050505050608086015190509295509295909350565b600181811c90821680620004ce57607f821691505b60208210811415620004f057634e487b7160e01b600052602260045260246000fd5b50919050565b634e487b7160e01b600052604160045260246000fd5b6001600160a01b03811681146200052257600080fd5b50565b60805160601c615ee4620005596000396000818161097a015281816147a40152818161481801526149230152615ee46000f3fe6080604052600436106102895760003560e01c8063bc197c8111610153578063deb26b94116100cb578063ebdfbce51161007f578063f23a6e6111610064578063f23a6e611461093c578063f9ea29cb14610968578063fd967f471461099c57600080fd5b8063ebdfbce5146108ae578063ec91f2a41461090e57600080fd5b8063e4104eaf116100b0578063e4104eaf14610859578063e8a3d48514610879578063ea0e02411461088e57600080fd5b8063deb26b94146107fd578063e1758bd81461083157600080fd5b8063ca15c87311610122578063d547741f11610107578063d547741f14610718578063d6febde814610738578063de74e57b1461075857600080fd5b8063ca15c87314610671578063d4ac9b8c1461069157600080fd5b8063bc197c81146105ed578063bcebc64414610619578063c0e7274014610639578063c78b616c1461065b57600080fd5b80634e03f28d1161020157806391d14854116101b5578063a217fddf1161019a578063a217fddf14610598578063ac9650d8146105ad578063acb1ba67146105da57600080fd5b806391d1485414610534578063938e3d7b1461057857600080fd5b806361096ec6116101e657806361096ec6146104c25780639010d07c146104dc578063918d407d1461051457600080fd5b80634e03f28d1461046b578063572b6c051461049357600080fd5b8063296f4e1611610258578063354c7ab61161023d578063354c7ab6146103ec57806336568abe1461040c5780633f5c3e871461042c57600080fd5b8063296f4e16146103ac5780632f2ff15d146103cc57600080fd5b806301ffc9a7146102de578063150b7a0214610313578063236ed8f31461034c578063248a9ca31461036e57600080fd5b366102d9577f1e57e3bb474320be3d2c77138f75b7c3941292d647f5f9634e33a8e94e0e069b6102b76109b2565b604080516001600160a01b0390921682523460208301520160405180910390a1005b600080fd5b3480156102ea57600080fd5b506102fe6102f9366004615782565b6109c1565b60405190151581526020015b60405180910390f35b34801561031f57600080fd5b5061033361032e366004615555565b610a13565b6040516001600160e01b0319909116815260200161030a565b34801561035857600080fd5b5061036c610367366004615702565b610a25565b005b34801561037a57600080fd5b5061039e610389366004615702565b60009081526020819052604090206001015490565b60405190815260200161030a565b3480156103b857600080fd5b5061036c6103c73660046157ea565b6112d1565b3480156103d857600080fd5b5061036c6103e7366004615732565b6116b9565b3480156103f857600080fd5b5061036c6104073660046156ca565b6116e0565b34801561041857600080fd5b5061036c610427366004615732565b611781565b34801561043857600080fd5b5060075461045290610100900467ffffffffffffffff1681565b60405167ffffffffffffffff909116815260200161030a565b34801561047757600080fd5b5060075461045290600160881b900467ffffffffffffffff1681565b34801561049f57600080fd5b506102fe6104ae366004615473565b6003546001600160a01b0391821691161490565b3480156104ce57600080fd5b506007546102fe9060ff1681565b3480156104e857600080fd5b506104fc6104f7366004615761565b6117a3565b6040516001600160a01b03909116815260200161030a565b34801561052057600080fd5b5061036c61052f366004615732565b6117c2565b34801561054057600080fd5b506102fe61054f366004615732565b6000918252602082815260408084206001600160a01b0393909316845291905290205460ff1690565b34801561058457600080fd5b5061036c6105933660046157aa565b611d37565b3480156105a457600080fd5b5061039e600081565b3480156105b957600080fd5b506105cd6105c836600461565a565b611ebe565b60405161030a9190615b3c565b61036c6105e8366004615875565b611fdd565b3480156105f957600080fd5b506103336106083660046154ab565b63bc197c8160e01b95945050505050565b34801561062557600080fd5b5061036c6106343660046158b3565b612587565b34801561064557600080fd5b5061064e612a93565b60405161030a9190615b9d565b34801561066757600080fd5b5061039e60055481565b34801561067d57600080fd5b5061039e61068c366004615702565b612b21565b34801561069d57600080fd5b506106e66106ac366004615702565b600a602052600090815260409020805460018201546002830154600384015460049094015492936001600160a01b03928316939192169085565b604080519586526001600160a01b0394851660208701528501929092529091166060830152608082015260a00161030a565b34801561072457600080fd5b5061036c610733366004615732565b612b38565b34801561074457600080fd5b5061036c610753366004615761565b612b42565b34801561076457600080fd5b506107e5610773366004615702565b600860208190526000918252604090912080546001820154600283015460038401546004850154600586015460068701546007880154988801546009890154600a9099015497996001600160a01b03978816999688169895979496939592941692909160ff808216916101009004168c565b60405161030a9c9b9a99989796959493929190615c15565b34801561080957600080fd5b5061039e7ff94103142c1baabe9ac2b5d1487bf783de9e69cfeea9a72f5c9c94afd7877b8c81565b34801561083d57600080fd5b506104fc73eeeeeeeeeeeeeeeeeeeeeeeeeeeeeeeeeeeeeeee81565b34801561086557600080fd5b5061036c610874366004615702565b612ec0565b34801561088557600080fd5b5061064e612fc2565b34801561089a57600080fd5b5061036c6108a9366004615761565b613054565b3480156108ba57600080fd5b506106e66108c9366004615732565b60096020908152600092835260408084209091529082529020805460018201546002830154600384015460049094015492936001600160a01b03928316939192169085565b34801561091a57600080fd5b50600754610452906901000000000000000000900467ffffffffffffffff1681565b34801561094857600080fd5b506103336109573660046155c6565b63f23a6e6160e01b95945050505050565b34801561097457600080fd5b506104fc7f000000000000000000000000000000000000000000000000000000000000000081565b3480156109a857600080fd5b5061045261271081565b60006109bc6131b0565b905090565b60006001600160e01b03198216630271189760e51b14806109f257506001600160e01b03198216630a85bd0160e11b145b80610a0d57506001600160e01b0319821663152a902d60e11b145b92915050565b630a85bd0160e11b5b95945050505050565b600280541415610a7c5760405162461bcd60e51b815260206004820152601f60248201527f5265656e7472616e637947756172643a207265656e7472616e742063616c6c0060448201526064015b60405180910390fd5b60028080556000828152600860208181526040808420815161018081018352815481526001808301546001600160a01b0390811695830195909552968201548416928101929092526003810154606083015260048101546080830152600581015460a0830152600681015460c0830152600781015490921660e0820152918101546101008301526009810154610120830152600a81015492939192909161014084019160ff1690811115610b4057634e487b7160e01b600052602160045260246000fd5b6001811115610b5f57634e487b7160e01b600052602160045260246000fd5b8152602001600a820160019054906101000a900460ff166001811115610b9557634e487b7160e01b600052602160045260246000fd5b6001811115610bb457634e487b7160e01b600052602160045260246000fd5b9052506000838152600a60209081526040808320815160a0810183528154815260018201546001600160a01b0390811694820194909452600282015492810192909252600381015490921660608201526004909101546080820152919250610c1a6109b2565b90504283608001511115610e43576000848152600860205260409020600101546001600160a01b03828116911614610cba5760405162461bcd60e51b815260206004820152602a60248201527f4d61726b65743a2063616c6c6572206973206e6f7420746865206c697374696e60448201527f672063726561746f722e000000000000000000000000000000000000000000006064820152608401610a73565b60c08301805160008083524260a08701908152878252600860208181526040938490208951815590890151600180830180546001600160a01b039384166001600160a01b031991821617909155958b015160028401805491841691881691909117905560608b0151600384015560808b01516004840155935160058301559551600682015560e089015160078201805491909716941693909317909455610100870151938201939093556101208601516009820155610140860151600a820180549394889460ff1916908381811115610da357634e487b7160e01b600052602160045260246000fd5b0217905550610160820151600a8201805461ff001916610100836001811115610ddc57634e487b7160e01b600052602160045260246000fd5b0217905550905050610df430856020015183876131ff565b83602001516001600160a01b0316857fb0d30498d58f551f4a1d6eec2a2e87f7ad9738e3f4f07897f50e87c15b27455886604051610e329190615bb0565b60405180910390a3505050506112c9565b82602001516001600160a01b0316816001600160a01b03161480610e7c575081602001516001600160a01b0316816001600160a01b0316145b610eee5760405162461bcd60e51b815260206004820152602a60248201527f4d61726b65743a206d75737420626520626964646572206f722061756374696f60448201527f6e2063726561746f722e000000000000000000000000000000000000000000006064820152608401610a73565b60018361016001516001811115610f1557634e487b7160e01b600052602160045260246000fd5b14610f6d5760405162461bcd60e51b815260206004820152602260248201527f4d61726b65743a206c697374696e67206973206e6f7420616e2061756374696f604482015261371760f11b6064820152608401610a73565b428360a0015110610fe65760405162461bcd60e51b815260206004820152603260248201527f4d61726b65743a2063616e206f6e6c7920636c6f73652061756374696f6e206160448201527f667465722069742068617320656e6465642e00000000000000000000000000006064820152608401610a73565b82602001516001600160a01b0316610ffc6109b2565b6001600160a01b031614156111d3576000826040015183608001516110219190615d71565b600060c086018181524260a08801908152888352600860208181526040948590208a518155908a0151600180830180546001600160a01b039384166001600160a01b031991821617909155968c015160028401805491841691891691909117905560608c0151600384015560808c01516004840155935160058301559351600682015560e08a015160078201805491909516951694909417909255610100880151918301919091556101208701516009830155610140870151600a8301805494955088949192909160ff191690838181111561110d57634e487b7160e01b600052602160045260246000fd5b0217905550610160820151600a8201805461ff00191661010083600181111561114657634e487b7160e01b600052602160045260246000fd5b021790555050600060808501818152878252600a602090815260409283902087518155818801516001820180546001600160a01b03199081166001600160a01b03938416179091559489015160028301556060890151600383018054909616911617909355905160049092019190915585015160e08601516111cd92503091908488613372565b50611275565b81602001516001600160a01b03166111e96109b2565b6001600160a01b0316141561127557604082810180516000808352878152600a602090815293902085518155928501516001840180546001600160a01b03199081166001600160a01b0380851691909117909255935160028601556060870151600386018054909516911617909255608085015160049093019290925561127390309083876131ff565b505b806001600160a01b0316847f50ac7797abdd874a5f47b37efd62cb303828db8981674771998d2120a5a419998560200151856020015186886040516112bd9493929190615aa2565b60405180910390a35050505b506001600255565b60075460ff16158061130a575061130a7ff94103142c1baabe9ac2b5d1487bf783de9e69cfeea9a72f5c9c94afd7877b8c61054f6109b2565b61137c5760405162461bcd60e51b815260206004820152602960248201527f4d61726b65743a2063616c6c657220646f6573206e6f742068617665204c495360448201527f5445525f524f4c452e00000000000000000000000000000000000000000000006064820152608401610a73565b600061138661357e565b905060006113926109b2565b905060006113a3846000015161359c565b9050600084608001511180156113d357506113d38285600001518660200151876080015185896101000151613728565b6114385760405162461bcd60e51b815260206004820152603060248201527f4d61726b65743a206d757374206f776e20616e6420617070726f766520746f2060448201526f3a3930b739b332b9103a37b5b2b7399760811b6064820152608401610a73565b6000604051806101800160405280858152602001846001600160a01b0316815260200186600001516001600160a01b03168152602001866020015181526020018660400151426114889190615d39565b815260200186606001516000146114ad5760608701516114a89042615d39565b6114b1565b6000195b81526020016114c4848860800151613b90565b81526020018660a001516001600160a01b031681526020018660c0015181526020018660e00151815260200183600181111561151057634e487b7160e01b600052602160045260246000fd5b8152602001866101000151600181111561153a57634e487b7160e01b600052602160045260246000fd5b90526000858152600860208181526040928390208451815590840151600180830180546001600160a01b03199081166001600160a01b0394851617909155948601516002840180548716918416919091179055606086015160038401556080860151600484015560a0860151600584015560c0860151600684015560e0860151600784018054909616921691909117909355610100840151918101919091556101208301516009820155610140830151600a82018054949550859492939192909160ff1990911690838181111561162157634e487b7160e01b600052602160045260246000fd5b0217905550610160820151600a8201805461ff00191661010083600181111561165a57634e487b7160e01b600052602160045260246000fd5b021790555090505083836001600160a01b031686600001516001600160a01b03167fd8a9bd7d189c9404a6954761b159187af5546fe099af5e1cbd585f3d0d2e246d846040516116aa9190615bb0565b60405180910390a45050505050565b6116c38282613bd5565b60008281526001602052604090206116db90826131e6565b505050565b6116ed600061054f6109b2565b6117395760405162461bcd60e51b815260206004820152601b60248201527f4d61726b65743a206e6f742061206d6f64756c652061646d696e2e00000000006044820152606401610a73565b6007805460ff19168215159081179091556040519081527f56668abce4c06e28f52176150c07856e31ee073b9b62df62a5afbf1a22aec24c906020015b60405180910390a150565b61178b8282613c02565b60008281526001602052604090206116db9082613c9a565b60008281526001602052604081206117bb9083613caf565b9392505050565b6002805414156118145760405162461bcd60e51b815260206004820152601f60248201527f5265656e7472616e637947756172643a207265656e7472616e742063616c6c006044820152606401610a73565b60028055816118216109b2565b6000828152600860205260409020600101546001600160a01b0390811691161461189c5760405162461bcd60e51b815260206004820152602660248201527f4d61726b65743a2063616c6c6572206973206e6f74206c697374696e6720637260448201526532b0ba37b91760d11b6064820152608401610a73565b60008381526009602081815260408084206001600160a01b038088168652908352818520825160a08082018552825482526001808401548516838801526002808501548488015260038086015487166060808701919091526004968701546080808801919091528f8d526008808c528a8e208b5161018081018d5281548152818801548c169d81019d909d52948501548a169a8c019a909a5291830154908a01529481015494880194909452600584015491870191909152600683015460c0870152600783015490931660e08601529281015461010085015293840154610120840152600a8401549194939161014084019160ff909116908111156119b157634e487b7160e01b600052602160045260246000fd5b60018111156119d057634e487b7160e01b600052602160045260246000fd5b8152602001600a820160019054906101000a900460ff166001811115611a0657634e487b7160e01b600052602160045260246000fd5b6001811115611a2557634e487b7160e01b600052602160045260246000fd5b905250905060008161016001516001811115611a5157634e487b7160e01b600052602160045260246000fd5b148015611a815750611a818160200151826040015183606001518560400151856101400151866101600151613728565b611ae65760405162461bcd60e51b815260206004820152603060248201527f4d61726b65743a206d757374206f776e20616e6420617070726f766520746f2060448201526f3a3930b739b332b9103a37b5b2b7399760811b6064820152608401610a73565b60408201516080830151600090611afe908390615d71565b60006040808701828152608088018381528b8452600960209081528385206001600160a01b03808e1687529082529390942089518155938901516001850180549185166001600160a01b0319928316179055915160028501556060890151600385018054919094169216919091179091555160049091015560c0840180519192508391611b8c908390615d90565b9052506000878152600860208181526040928390208651815590860151600180830180546001600160a01b03199081166001600160a01b0394851617909155948801516002840180548716918416919091179055606088015160038401556080880151600484015560a0880151600584015560c0880151600684015560e0880151600784018054909616921691909117909355610100860151918101919091556101208501516009820155610140850151600a82018054879460ff19909116908381811115611c6b57634e487b7160e01b600052602160045260246000fd5b0217905550610160820151600a8201805461ff001916610100836001811115611ca457634e487b7160e01b600052602160045260246000fd5b0217905550905050611cc186846020015186606001518487613372565b611cd183602001518784866131ff565b8683602001516001600160a01b031684604001516001600160a01b03167f3ccc07b7cdeffeb0c32f26a7aa313391a34d485229012dcdc8f332c27e11d7dc898688604051611d2193929190615b0f565b60405180910390a4505060016002555050505050565b600480546040805163a217fddf60e01b815290516001600160a01b03909216926391d1485492849263a217fddf9281810192602092909190829003018186803b158015611d8357600080fd5b505afa158015611d97573d6000803e3d6000fd5b505050506040513d601f19601f82011682018060405250810190611dbb919061571a565b611dc36109b2565b6040516001600160e01b031960e085901b16815260048101929092526001600160a01b0316602482015260440160206040518083038186803b158015611e0857600080fd5b505afa158015611e1c573d6000803e3d6000fd5b505050506040513d601f19601f82011682018060405250810190611e4091906156e6565b611eb25760405162461bcd60e51b815260206004820152603560248201527f4d61726b65743a206f6e6c7920612070726f746f636f6c2061646d696e20636160448201527f6e2063616c6c20746869732066756e6374696f6e2e00000000000000000000006064820152608401610a73565b6116db6006838361528b565b60608167ffffffffffffffff811115611ee757634e487b7160e01b600052604160045260246000fd5b604051908082528060200260200182016040528015611f1a57816020015b6060815260200190600190039081611f055790505b50905060005b82811015611fd657611f9830858584818110611f4c57634e487b7160e01b600052603260045260246000fd5b9050602002810190611f5e9190615c99565b8080601f016020809104026020016040519081016040528093929190818152602001838380828437600092019190915250613cbb92505050565b828281518110611fb857634e487b7160e01b600052603260045260246000fd5b60200260200101819052508080611fce90615e25565b915050611f20565b5092915050565b60028054141561202f5760405162461bcd60e51b815260206004820152601f60248201527f5265656e7472616e637947756172643a207265656e7472616e742063616c6c006044820152606401610a73565b60028055600061203d6109b2565b6000868152600860208181526040808420815161018081018352815481526001808301546001600160a01b039081169583019590955260028301548516938201939093526003820154606082015260048201546080820152600582015460a0820152600682015460c0820152600782015490931660e0840152928301546101008301526009830154610120830152600a8301549495509293909261014084019160ff16908111156120fe57634e487b7160e01b600052602160045260246000fd5b600181111561211d57634e487b7160e01b600052602160045260246000fd5b8152602001600a820160019054906101000a900460ff16600181111561215357634e487b7160e01b600052602160045260246000fd5b600181111561217257634e487b7160e01b600052602160045260246000fd5b815250509050428160a0015111801561218e5750428160800151105b6122005760405162461bcd60e51b815260206004820152603160248201527f4d61726b65743a2063616e206f6e6c79206d616b65206f666665727320696e2060448201527f6c697374696e67206475726174696f6e2e0000000000000000000000000000006064820152608401610a73565b6000806001836101600151600181111561222a57634e487b7160e01b600052602160045260246000fd5b14612244578561223f84610140015189613b90565b61225c565b8260e0015161225c8461014001518560c00151613b90565b90925090506001836101600151600181111561228857634e487b7160e01b600052602160045260246000fd5b141561236d576001600160a01b03821673eeeeeeeeeeeeeeeeeeeeeeeeeeeeeeeeeeeeeeee146122dd5760c08301516122c19086615d71565b8360c001518461010001516122d69190615d71565b11156122f6565b348360c001518461010001516122f39190615d71565b11155b6123685760405162461bcd60e51b815260206004820152602a60248201527f4d61726b65743a206d757374206f66666572206174206c65617374207265736560448201527f7276652070726963652e000000000000000000000000000000000000000000006064820152608401610a73565b61240d565b6000836101600151600181111561239457634e487b7160e01b600052602160045260246000fd5b141561240d5760008360c00151116123f95760405162461bcd60e51b815260206004820152602260248201527f4d61726b65743a206e6f20746f6b656e73206c697374656420666f722073616c604482015261329760f11b6064820152608401610a73565b61240d84836124088a89615d71565b613ce0565b60006040518060a001604052808a8152602001866001600160a01b03168152602001838152602001846001600160a01b0316815260200187815250905080600960008b81526020019081526020016000206000876001600160a01b03166001600160a01b031681526020019081526020016000206000820151816000015560208201518160010160006101000a8154816001600160a01b0302191690836001600160a01b031602179055506040820151816002015560608201518160030160006101000a8154816001600160a01b0302191690836001600160a01b0316021790555060808201518160040155905050846001600160a01b0316897f232a7221ad786148674e098a73505fab79234346b2557a59fcbf3790f3e8ef608387604051612538929190615bbf565b60405180910390a36001846101600151600181111561256757634e487b7160e01b600052602160045260246000fd5b1415612577576125778482613e9c565b5050600160025550505050505050565b866125906109b2565b6000828152600860205260409020600101546001600160a01b0390811691161461260b5760405162461bcd60e51b815260206004820152602660248201527f4d61726b65743a2063616c6c6572206973206e6f74206c697374696e6720637260448201526532b0ba37b91760d11b6064820152608401610a73565b6000888152600860208181526040808420815161018081018352815481526001808301546001600160a01b039081169583019590955260028301548516938201939093526003820154606082015260048201546080820152600582015460a0820152600682015460c0820152600782015490931660e0840152928301546101008301526009830154610120830152600a83015491929161014084019160ff909116908111156126ca57634e487b7160e01b600052602160045260246000fd5b60018111156126e957634e487b7160e01b600052602160045260246000fd5b8152602001600a820160019054906101000a900460ff16600181111561271f57634e487b7160e01b600052602160045260246000fd5b600181111561273e57634e487b7160e01b600052602160045260246000fd5b81525050905060006127558261014001518a613b90565b90506001826101600151600181111561277e57634e487b7160e01b600052602160045260246000fd5b141561280e57428260800151106127fd5760405162461bcd60e51b815260206004820152602860248201527f4d61726b65743a2063616e6e6f7420656469742061756374696f6e206166746560448201527f722073746172742e0000000000000000000000000000000000000000000000006064820152608401610a73565b610100820188905261012082018790525b6000826101600151600181111561283557634e487b7160e01b600052602160045260246000fd5b1480156128465750888260c0015114155b156128dc5761286f82602001518360400151846060015184866101400151876101600151613728565b6128d45760405162461bcd60e51b815260206004820152603060248201527f4d61726b65743a206d757374206f776e20616e6420617070726f766520746f2060448201526f3a3930b739b332b9103a37b5b2b7399760811b6064820152608401610a73565b60c082018190525b6001600160a01b03861660e08301528415612900576128fb8542615d39565b612906565b81608001515b608083015283156129205761291b8442615d39565b612926565b8160a001515b60a0830190815260008b8152600860208181526040928390208651815590860151600180830180546001600160a01b03199081166001600160a01b039485161790915594880151600284018054871691841691909117905560608801516003840155608088015160048401559451600583015560c0870151600683015560e0870151600783018054909516911617909255610100850151908201556101208401516009820155610140840151600a82018054869460ff19909116908381811115612a0057634e487b7160e01b600052602160045260246000fd5b0217905550610160820151600a8201805461ff001916610100836001811115612a3957634e487b7160e01b600052602160045260246000fd5b02179055509050508982602001516001600160a01b03167facae26cf04d6f4427216f4e7321674e1e7bc77fd18a599e75114a1f46a70ca2884604051612a7f9190615bb0565b60405180910390a350505050505050505050565b60068054612aa090615dea565b80601f0160208091040260200160405190810160405280929190818152602001828054612acc90615dea565b8015612b195780601f10612aee57610100808354040283529160200191612b19565b820191906000526020600020905b815481529060010190602001808311612afc57829003601f168201915b505050505081565b6000818152600160205260408120610a0d90614474565b61178b828261447e565b600280541415612b945760405162461bcd60e51b815260206004820152601f60248201527f5265656e7472616e637947756172643a207265656e7472616e742063616c6c006044820152606401610a73565b60028080556000838152600860208181526040808420815161018081018352815481526001808301546001600160a01b0390811695830195909552968201548416928101929092526003810154606083015260048101546080830152600581015460a0830152600681015460c0830152600781015490921660e0820152918101546101008301526009810154610120830152600a81015492939192909161014084019160ff1690811115612c5857634e487b7160e01b600052602160045260246000fd5b6001811115612c7757634e487b7160e01b600052602160045260246000fd5b8152602001600a820160019054906101000a900460ff166001811115612cad57634e487b7160e01b600052602160045260246000fd5b6001811115612ccc57634e487b7160e01b600052602160045260246000fd5b90525090506000612cdb6109b2565b9050612ce88282856144a6565b828260c001818151612cfa9190615d90565b9052506000848152600860208181526040928390208551815590850151600180830180546001600160a01b03199081166001600160a01b0394851617909155948701516002840180548716918416919091179055606087015160038401556080870151600484015560a0870151600584015560c0870151600684015560e0870151600784018054909616921691909117909355610100850151918101919091556101208401516009820155610140840151600a82018054869460ff19909116908381811115612dd957634e487b7160e01b600052602160045260246000fd5b0217905550610160820151600a8201805461ff001916610100836001811115612e1257634e487b7160e01b600052602160045260246000fd5b0217905550505061012082015115612e4957612e498183602001518460e0015186866101200151612e439190615d71565b86613372565b612e5982602001518285856131ff565b816000015182602001516001600160a01b031683604001516001600160a01b03167f3ccc07b7cdeffeb0c32f26a7aa313391a34d485229012dcdc8f332c27e11d7dc848787604051612ead93929190615b0f565b60405180910390a4505060016002555050565b612ecd600061054f6109b2565b612f195760405162461bcd60e51b815260206004820152601b60248201527f4d61726b65743a206e6f742061206d6f64756c652061646d696e2e00000000006044820152606401610a73565b6127108110612f6a5760405162461bcd60e51b815260206004820152601460248201527f4d61726b65743a20696e76616c6964204250532e0000000000000000000000006044820152606401610a73565b6007805468ffffffffffffffff00191661010067ffffffffffffffff8416908102919091179091556040519081527f1923ecef8dbc1cebea2768819f7df282b72fb6d62bf99da204590b9d5cac7a7b90602001611776565b606060068054612fd190615dea565b80601f0160208091040260200160405190810160405280929190818152602001828054612ffd90615dea565b801561304a5780601f1061301f5761010080835404028352916020019161304a565b820191906000526020600020905b81548152906001019060200180831161302d57829003601f168201915b5050505050905090565b613061600061054f6109b2565b6130ad5760405162461bcd60e51b815260206004820152601b60248201527f4d61726b65743a206e6f742061206d6f64756c652061646d696e2e00000000006044820152606401610a73565b61271081106130fe5760405162461bcd60e51b815260206004820152601460248201527f4d61726b65743a20696e76616c6964204250532e0000000000000000000000006044820152606401610a73565b6007805467ffffffffffffffff838116600160881b027fffffffffffffff0000000000000000ffffffffffffffffffffffffffffffffff918616690100000000000000000002919091167fffffffffffffff00000000000000000000000000000000ffffffffffffffffff9092169190911717905560408051838152602081018390527f441ed6470e96704c3f8c9e70c209107078aab3f17311385e886081b91aa75088910160405180910390a15050565b6003546000906001600160a01b03163314156131d3575060131936013560601c90565b503390565b6131e2828261466a565b5050565b60006117bb836001600160a01b038416614709565b3390565b6000816101400151600181111561322657634e487b7160e01b600052602160045260246000fd5b14156132bb5760408082015160608301519151637921219560e11b81526001600160a01b038781166004830152868116602483015260448201939093526064810185905260a06084820152600060a482015291169063f242432a9060c401600060405180830381600087803b15801561329e57600080fd5b505af11580156132b2573d6000803e3d6000fd5b5050505061336c565b600181610140015160018111156132e257634e487b7160e01b600052602160045260246000fd5b141561336c5760408082015160608301519151635c46a7ef60e11b81526001600160a01b03878116600483015286811660248301526044820193909352608060648201526000608482015291169063b88d4fde9060a401600060405180830381600087803b15801561335357600080fd5b505af1158015613367573d6000803e3d6000fd5b505050505b50505050565b6007546000906127109061339590610100900467ffffffffffffffff1685615d71565b61339f9190615d51565b6004805460405163f2aab4b360e01b8152309281019290925291925061342c91869189916001600160a01b03169063f2aab4b39060240160206040518083038186803b1580156133ee57600080fd5b505afa158015613402573d6000803e3d6000fd5b505050506040513d601f19601f82011682018060405250810190613426919061548f565b84614758565b60006134388285615d90565b6040808501516060860151915163152a902d60e11b81529293506001600160a01b031691632a55205a91613479918890600401918252602082015260400190565b604080518083038186803b15801561349057600080fd5b505afa9250505080156134c0575060408051601f3d908101601f191682019092526134bd9181019061562d565b60015b6134c957613569565b801561356657856134da8583615d39565b111561354e5760405162461bcd60e51b815260206004820152602b60248201527f4d61726b65743a20546f74616c206d61726b657420666565732065786365656460448201527f207468652070726963652e0000000000000000000000000000000000000000006064820152608401610a73565b6135588184615d90565b9250613566878a8484614758565b50505b61357585888884614758565b50505050505050565b600580549060019060006135928385615d39565b9250508190555090565b6040516301ffc9a760e01b8152636cdb3d1360e11b60048201526000906001600160a01b038316906301ffc9a79060240160206040518083038186803b1580156135e557600080fd5b505afa1580156135f9573d6000803e3d6000fd5b505050506040513d601f19601f8201168201806040525081019061361d91906156e6565b1561362a57506000919050565b6040516301ffc9a760e01b81526380ac58cd60e01b60048201526001600160a01b038316906301ffc9a79060240160206040518083038186803b15801561367057600080fd5b505afa158015613684573d6000803e3d6000fd5b505050506040513d601f19601f820116820180604052508101906136a891906156e6565b156136b557506001919050565b60405162461bcd60e51b815260206004820152602b60248201527f4d61726b65743a206d75737420696d706c656d656e742045524320313135352060448201527f6f7220455243203732312e0000000000000000000000000000000000000000006064820152608401610a73565b919050565b6000308184600181111561374c57634e487b7160e01b600052602160045260246000fd5b141561391557604051627eeac760e11b81526001600160a01b0389811660048301526024820188905286919089169062fdd58e9060440160206040518083038186803b15801561379b57600080fd5b505afa1580156137af573d6000803e3d6000fd5b505050506040513d601f19601f820116820180604052508101906137d3919061571a565b1015801561385d575060405163e985e9c560e01b81526001600160a01b038981166004830152828116602483015288169063e985e9c59060440160206040518083038186803b15801561382557600080fd5b505afa158015613839573d6000803e3d6000fd5b505050506040513d601f19601f8201168201806040525081019061385d91906156e6565b915081801561388b5750600183600181111561388957634e487b7160e01b600052602160045260246000fd5b145b1561391057604051637921219560e11b81526001600160a01b0389811660048301528281166024830152604482018890526064820187905260a06084830152600060a483015288169063f242432a9060c401600060405180830381600087803b1580156138f757600080fd5b505af115801561390b573d6000803e3d6000fd5b505050505b613b85565b600184600181111561393757634e487b7160e01b600052602160045260246000fd5b1415613b85576040516331a9108f60e11b8152600481018790526001600160a01b03808a169190891690636352211e9060240160206040518083038186803b15801561398257600080fd5b505afa158015613996573d6000803e3d6000fd5b505050506040513d601f19601f820116820180604052508101906139ba919061548f565b6001600160a01b0316148015613ad9575060405163020604bf60e21b8152600481018790526001600160a01b03808316919089169063081812fc9060240160206040518083038186803b158015613a1057600080fd5b505afa158015613a24573d6000803e3d6000fd5b505050506040513d601f19601f82011682018060405250810190613a48919061548f565b6001600160a01b03161480613ad9575060405163e985e9c560e01b81526001600160a01b038981166004830152828116602483015288169063e985e9c59060440160206040518083038186803b158015613aa157600080fd5b505afa158015613ab5573d6000803e3d6000fd5b505050506040513d601f19601f82011682018060405250810190613ad991906156e6565b9150818015613b0757506001836001811115613b0557634e487b7160e01b600052602160045260246000fd5b145b15613b8557604051635c46a7ef60e11b81526001600160a01b038981166004830152828116602483015260448201889052608060648301526000608483015288169063b88d4fde9060a401600060405180830381600087803b158015613b6c57600080fd5b505af1158015613b80573d6000803e3d6000fd5b505050505b509695505050505050565b600081613b9f57506000610a0d565b6001836001811115613bc157634e487b7160e01b600052602160045260246000fd5b14613bcc57816117bb565b50600192915050565b600082815260208190526040902060010154613bf881613bf36109b2565b6149b0565b6116db838361466a565b613c0a6109b2565b6001600160a01b0316816001600160a01b031614613c905760405162461bcd60e51b815260206004820152602f60248201527f416363657373436f6e74726f6c3a2063616e206f6e6c792072656e6f756e636560448201527f20726f6c657320666f722073656c6600000000000000000000000000000000006064820152608401610a73565b6131e28282614a2e565b60006117bb836001600160a01b038416614acb565b60006117bb8383614be8565b60606117bb8383604051806060016040528060278152602001615eb160279139614c20565b60006001600160a01b03831673eeeeeeeeeeeeeeeeeeeeeeeeeeeeeeeeeeeeeeee1415613d1c5781846001600160a01b03163110159050613e29565b6040516370a0823160e01b81526001600160a01b0385811660048301528391908516906370a082319060240160206040518083038186803b158015613d6057600080fd5b505afa158015613d74573d6000803e3d6000fd5b505050506040513d601f19601f82011682018060405250810190613d98919061571a565b10158015613e265750604051636eb1769f60e11b81526001600160a01b03858116600483015230602483015283919085169063dd62ed3e9060440160206040518083038186803b158015613deb57600080fd5b505afa158015613dff573d6000803e3d6000fd5b505050506040513d601f19601f82011682018060405250810190613e23919061571a565b10155b90505b8061336c5760405162461bcd60e51b815260206004820152603960248201527f4d61726b65743a206d757374206f776e20616e6420617070726f7665204d617260448201527f6b657420746f207472616e736665722063757272656e63792e000000000000006064820152608401610a73565b81516000908152600a60209081526040808320815160a0810183528154815260018201546001600160a01b03908116948201949094526002820154928101839052600382015490931660608401526004015460808301819052919291613f029190615d71565b9050600083604001518460800151613f1a9190615d71565b9050613f268282614d0b565b1561446d5760208084018051918601516001600160a01b031690526080808601519085015261012086015160009015801590613f7657508660c00151876101200151613f729190615d71565b8310155b905080156141e057428760a0018181525050600085604001818152505084600a6000896000015181526020019081526020016000206000820151816000015560208201518160010160006101000a8154816001600160a01b0302191690836001600160a01b031602179055506040820151816002015560608201518160030160006101000a8154816001600160a01b0302191690836001600160a01b03160217905550608082015181600401559050508660086000896000015181526020019081526020016000206000820151816000015560208201518160010160006101000a8154816001600160a01b0302191690836001600160a01b0316021790555060408201518160020160006101000a8154816001600160a01b0302191690836001600160a01b03160217905550606082015181600301556080820151816004015560a0820151816005015560c0820151816006015560e08201518160070160006101000a8154816001600160a01b0302191690836001600160a01b031602179055506101008201518160080155610120820151816009015561014082015181600a0160006101000a81548160ff0219169083600181111561414657634e487b7160e01b600052602160045260246000fd5b0217905550610160820151600a8201805461ff00191661010083600181111561417f57634e487b7160e01b600052602160045260246000fd5b021790555050506020808701518851918901516040516001600160a01b03831693927f50ac7797abdd874a5f47b37efd62cb303828db8981674771998d2120a5a41999926141d3929091908c908e90615aa2565b60405180910390a3614412565b86516000908152600a602090815260409182902088518155908801516001820180546001600160a01b03199081166001600160a01b03938416179091559289015160028301556060890151600383018054909416911617909155608087015160049091015560075460a0880151690100000000000000000090910467ffffffffffffffff1690614271904290615d90565b116143c55760075460a088018051690100000000000000000090920467ffffffffffffffff16916142a3908390615d39565b90525086516000908152600860208181526040928390208a518155908a0151600180830180546001600160a01b03199081166001600160a01b0394851617909155948c0151600284018054871691841691909117905560608c0151600384015560808c0151600484015560a08c0151600584015560c08c0151600684015560e08c01516007840180549096169216919091179093556101008a0151918101919091556101208901516009820155610140890151600a820180548b9460ff1990911690838181111561438457634e487b7160e01b600052602160045260246000fd5b0217905550610160820151600a8201805461ff0019166101008360018111156143bd57634e487b7160e01b600052602160045260246000fd5b021790555050505b85602001516001600160a01b031687600001517f606480c67a70893b744713ed1f573bd6c8b9bca761d6646784ce53ceeaed6300888a604051614409929190615bbf565b60405180910390a35b6001600160a01b0382161580159061442a5750600084115b1561443f5761443f8760e00151308487614758565b6144538760e0015187602001513086614758565b80156135755761357530876020015188604001518a6131ff565b5050505050565b6000610a0d825490565b60008281526020819052604090206001015461449c81613bf36109b2565b6116db8383614a2e565b6144c0828460e00151856101200151846124089190615d71565b6144e88360200151846040015185606001518660c00151876101400151886101600151613728565b61455a5760405162461bcd60e51b815260206004820152602c60248201527f4d61726b65743a2063616e6e6f742062757920746f6b656e732066726f6d207460448201527f686973206c697374696e672e00000000000000000000000000000000000000006064820152608401610a73565b60008111801561456e57508260c001518111155b6145e05760405162461bcd60e51b815260206004820152603160248201527f4d61726b65743a206d7573742062757920616e20617070726f7072696174652060448201527f616d6f756e74206f6620746f6b656e732e0000000000000000000000000000006064820152608401610a73565b8260a0015142111580156145f8575082608001514210155b6116db5760405162461bcd60e51b815260206004820152603260248201527f4d61726b65743a207468652073616c652068617320656974686572206e6f742060448201527f73746172746564206f7220636c6f7365642e00000000000000000000000000006064820152608401610a73565b6000828152602081815260408083206001600160a01b038516845290915290205460ff166131e2576000828152602081815260408083206001600160a01b03851684529091529020805460ff191660011790556146c56109b2565b6001600160a01b0316816001600160a01b0316837f2f8788117e7eff1d82e926ec794901d17c78024a50270940304540a733656f0d60405160405180910390a45050565b600081815260018301602052604081205461475057508154600181810184556000848152602080822090930184905584548482528286019093526040902091909155610a0d565b506000610a0d565b6001600160a01b03841673eeeeeeeeeeeeeeeeeeeeeeeeeeeeeeeeeeeeeeee14156149a4576001600160a01b03831630141561489b57604051632e1a7d4d60e01b8152600481018290527f00000000000000000000000000000000000000000000000000000000000000006001600160a01b031690632e1a7d4d90602401600060405180830381600087803b1580156147f057600080fd5b505af1158015614804573d6000803e3d6000fd5b505050506148128282614d5e565b614896577f00000000000000000000000000000000000000000000000000000000000000006001600160a01b031663d0e30db0826040518263ffffffff1660e01b81526004016000604051808303818588803b15801561487157600080fd5b505af1158015614885573d6000803e3d6000fd5b505050505061489684308484614dd5565b61336c565b6001600160a01b03821630141561499a573481146149215760405162461bcd60e51b815260206004820152603560248201527f4d61726b65743a206e617469766520746f6b656e2076616c756520646f65732060448201527f6e6f74206d617463682062696420616d6f756e742e00000000000000000000006064820152608401610a73565b7f00000000000000000000000000000000000000000000000000000000000000006001600160a01b031663d0e30db0826040518263ffffffff1660e01b81526004016000604051808303818588803b15801561497c57600080fd5b505af1158015614990573d6000803e3d6000fd5b505050505061336c565b6148128282614d5e565b61336c84848484614dd5565b6000828152602081815260408083206001600160a01b038516845290915290205460ff166131e2576149ec816001600160a01b03166014615063565b6149f7836020615063565b604051602001614a08929190615a21565b60408051601f198184030181529082905262461bcd60e51b8252610a7391600401615b9d565b6000828152602081815260408083206001600160a01b038516845290915290205460ff16156131e2576000828152602081815260408083206001600160a01b03851684529091529020805460ff19169055614a876109b2565b6001600160a01b0316816001600160a01b0316837ff6391f5c32d9c69d2a47ea670b442974b53935d1edc7fd64eb21e047a839171b60405160405180910390a45050565b60008181526001830160205260408120548015614bde576000614aef600183615d90565b8554909150600090614b0390600190615d90565b9050818114614b84576000866000018281548110614b3157634e487b7160e01b600052603260045260246000fd5b9060005260206000200154905080876000018481548110614b6257634e487b7160e01b600052603260045260246000fd5b6000918252602080832090910192909255918252600188019052604090208390555b8554869080614ba357634e487b7160e01b600052603160045260246000fd5b600190038181906000526020600020016000905590558560010160008681526020019081526020016000206000905560019350505050610a0d565b6000915050610a0d565b6000826000018281548110614c0d57634e487b7160e01b600052603260045260246000fd5b9060005260206000200154905092915050565b6060833b614c965760405162461bcd60e51b815260206004820152602660248201527f416464726573733a2064656c65676174652063616c6c20746f206e6f6e2d636f60448201527f6e747261637400000000000000000000000000000000000000000000000000006064820152608401610a73565b600080856001600160a01b031685604051614cb19190615a05565b600060405180830381855af49150503d8060008114614cec576040519150601f19603f3d011682016040523d82523d6000602084013e614cf1565b606091505b5091509150614d01828286615252565b9695505050505050565b60008215806117bb575082821180156117bb5750600754600160881b900467ffffffffffffffff1683612710614d418286615d90565b614d4b9190615d71565b614d559190615d51565b10159392505050565b60408051600080825260208201928390529182916001600160a01b038616918591614d8891615a05565b60006040518083038185875af1925050503d8060008114614dc5576040519150601f19603f3d011682016040523d82523d6000602084013e614dca565b606091505b509095945050505050565b6001600160a01b038316301415614e685760405163095ea7b360e01b8152306004820152602481018290526001600160a01b0385169063095ea7b390604401602060405180830381600087803b158015614e2e57600080fd5b505af1158015614e42573d6000803e3d6000fd5b505050506040513d601f19601f82011682018060405250810190614e6691906156e6565b505b6040516370a0823160e01b81526001600160a01b038381166004830152600091908616906370a082319060240160206040518083038186803b158015614ead57600080fd5b505afa158015614ec1573d6000803e3d6000fd5b505050506040513d601f19601f82011682018060405250810190614ee5919061571a565b6040516323b872dd60e01b81526001600160a01b0386811660048301528581166024830152604482018590529192506000918716906323b872dd90606401602060405180830381600087803b158015614f3d57600080fd5b505af1158015614f51573d6000803e3d6000fd5b505050506040513d601f19601f82011682018060405250810190614f7591906156e6565b6040516370a0823160e01b81526001600160a01b0386811660048301529192506000918816906370a082319060240160206040518083038186803b158015614fbc57600080fd5b505afa158015614fd0573d6000803e3d6000fd5b505050506040513d601f19601f82011682018060405250810190614ff4919061571a565b905081801561500b57506150088484615d39565b81145b6135755760405162461bcd60e51b8152602060048201526024808201527f4d61726b65743a206661696c656420746f207472616e736665722063757272656044820152633731bc9760e11b6064820152608401610a73565b60606000615072836002615d71565b61507d906002615d39565b67ffffffffffffffff8111156150a357634e487b7160e01b600052604160045260246000fd5b6040519080825280601f01601f1916602001820160405280156150cd576020820181803683370190505b509050600360fc1b816000815181106150f657634e487b7160e01b600052603260045260246000fd5b60200101906001600160f81b031916908160001a905350600f60fb1b8160018151811061513357634e487b7160e01b600052603260045260246000fd5b60200101906001600160f81b031916908160001a9053506000615157846002615d71565b615162906001615d39565b90505b6001811115615203577f303132333435363738396162636465660000000000000000000000000000000085600f16601081106151b157634e487b7160e01b600052603260045260246000fd5b1a60f81b8282815181106151d557634e487b7160e01b600052603260045260246000fd5b60200101906001600160f81b031916908160001a90535060049490941c936151fc81615dd3565b9050615165565b5083156117bb5760405162461bcd60e51b815260206004820181905260248201527f537472696e67733a20686578206c656e67746820696e73756666696369656e746044820152606401610a73565b606083156152615750816117bb565b8251156152715782518084602001fd5b8160405162461bcd60e51b8152600401610a739190615b9d565b82805461529790615dea565b90600052602060002090601f0160209004810192826152b957600085556152ff565b82601f106152d25782800160ff198235161785556152ff565b828001600101855582156152ff579182015b828111156152ff5782358255916020019190600101906152e4565b5061530b92915061530f565b5090565b5b8082111561530b5760008155600101615310565b803561372381615e8d565b600082601f83011261533f578081fd5b8135602067ffffffffffffffff82111561535b5761535b615e56565b8160051b61536a828201615d08565b838152828101908684018388018501891015615384578687fd5b8693505b858410156153a6578035835260019390930192918401918401615388565b50979650505050505050565b60008083601f8401126153c3578182fd5b50813567ffffffffffffffff8111156153da578182fd5b6020830191508360208285010111156153f257600080fd5b9250929050565b600082601f830112615409578081fd5b813567ffffffffffffffff81111561542357615423615e56565b615436601f8201601f1916602001615d08565b81815284602083860101111561544a578283fd5b816020850160208301379081016020019190915292915050565b80356002811061372357600080fd5b600060208284031215615484578081fd5b81356117bb81615e8d565b6000602082840312156154a0578081fd5b81516117bb81615e8d565b600080600080600060a086880312156154c2578081fd5b85356154cd81615e8d565b945060208601356154dd81615e8d565b9350604086013567ffffffffffffffff808211156154f9578283fd5b61550589838a0161532f565b9450606088013591508082111561551a578283fd5b61552689838a0161532f565b9350608088013591508082111561553b578283fd5b50615548888289016153f9565b9150509295509295909350565b60008060008060006080868803121561556c578081fd5b853561557781615e8d565b9450602086013561558781615e8d565b935060408601359250606086013567ffffffffffffffff8111156155a9578182fd5b6155b5888289016153b2565b969995985093965092949392505050565b600080600080600060a086880312156155dd578081fd5b85356155e881615e8d565b945060208601356155f881615e8d565b93506040860135925060608601359150608086013567ffffffffffffffff811115615621578182fd5b615548888289016153f9565b6000806040838503121561563f578182fd5b825161564a81615e8d565b6020939093015192949293505050565b6000806020838503121561566c578182fd5b823567ffffffffffffffff80821115615683578384fd5b818501915085601f830112615696578384fd5b8135818111156156a4578485fd5b8660208260051b85010111156156b8578485fd5b60209290920196919550909350505050565b6000602082840312156156db578081fd5b81356117bb81615ea2565b6000602082840312156156f7578081fd5b81516117bb81615ea2565b600060208284031215615713578081fd5b5035919050565b60006020828403121561572b578081fd5b5051919050565b60008060408385031215615744578182fd5b82359150602083013561575681615e8d565b809150509250929050565b60008060408385031215615773578182fd5b50508035926020909101359150565b600060208284031215615793578081fd5b81356001600160e01b0319811681146117bb578182fd5b600080602083850312156157bc578182fd5b823567ffffffffffffffff8111156157d2578283fd5b6157de858286016153b2565b90969095509350505050565b600061012082840312156157fc578081fd5b615804615cde565b61580d83615324565b81526020830135602082015260408301356040820152606083013560608201526080830135608082015261584360a08401615324565b60a082015260c083013560c082015260e083013560e082015261010061586a818501615464565b908201529392505050565b6000806000806080858703121561588a578182fd5b843593506020850135925060408501356158a381615e8d565b9396929550929360600135925050565b600080600080600080600060e0888a0312156158cd578485fd5b8735965060208801359550604088013594506060880135935060808801356158f481615e8d565b9699959850939692959460a0840135945060c09093013592915050565b60008151808452615929816020860160208601615da7565b601f01601f19169290920160200192915050565b61594681615e6c565b9052565b80518252602081015161596860208401826001600160a01b03169052565b50604081015161598360408401826001600160a01b03169052565b50606081015160608301526080810151608083015260a081015160a083015260c081015160c083015260e08101516159c660e08401826001600160a01b03169052565b5061010081810151908301526101208082015190830152610140808201516159f08285018261593d565b50506101608082015161336c8285018261593d565b60008251615a17818460208701615da7565b9190910192915050565b7f416363657373436f6e74726f6c3a206163636f756e7420000000000000000000815260008351615a59816017850160208801615da7565b7f206973206d697373696e6720726f6c65200000000000000000000000000000006017918401918201528351615a96816028840160208801615da7565b01602801949350505050565b6001600160a01b038581168252841660208201526102608101615b0260408301858051825260208101516001600160a01b038082166020850152604083015160408501528060608401511660608501525050608081015160808301525050565b610a1c60e083018461594a565b6001600160a01b0384168152602081018390526101c08101615b34604083018461594a565b949350505050565b6000602080830181845280855180835260408601915060408160051b8701019250838701855b82811015615b9057603f19888603018452615b7e858351615911565b94509285019290850190600101615b62565b5092979650505050505050565b6020815260006117bb6020830184615911565b6101808101610a0d828461594a565b6102208101615c0882858051825260208101516001600160a01b038082166020850152604083015160408501528060608401511660608501525050608081015160808301525050565b6117bb60a083018461594a565b6000610180820190508d82526001600160a01b03808e166020840152808d1660408401528b60608401528a60808401528960a08401528860c084015280881660e0840152508561010083015284610120830152615c7184615e6c565b83610140830152615c8183615e6c565b826101608301529d9c50505050505050505050505050565b6000808335601e19843603018112615caf578283fd5b83018035915067ffffffffffffffff821115615cc9578283fd5b6020019150368190038213156153f257600080fd5b604051610120810167ffffffffffffffff81118282101715615d0257615d02615e56565b60405290565b604051601f8201601f1916810167ffffffffffffffff81118282101715615d3157615d31615e56565b604052919050565b60008219821115615d4c57615d4c615e40565b500190565b600082615d6c57634e487b7160e01b81526012600452602481fd5b500490565b6000816000190483118215151615615d8b57615d8b615e40565b500290565b600082821015615da257615da2615e40565b500390565b60005b83811015615dc2578181015183820152602001615daa565b8381111561336c5750506000910152565b600081615de257615de2615e40565b506000190190565b600181811c90821680615dfe57607f821691505b60208210811415615e1f57634e487b7160e01b600052602260045260246000fd5b50919050565b6000600019821415615e3957615e39615e40565b5060010190565b634e487b7160e01b600052601160045260246000fd5b634e487b7160e01b600052604160045260246000fd5b60028110615e8a57634e487b7160e01b600052602160045260246000fd5b50565b6001600160a01b0381168114615e8a57600080fd5b8015158114615e8a57600080fdfe416464726573733a206c6f772d6c6576656c2064656c65676174652063616c6c206661696c6564a164736f6c6343000804000a",
  "linkReferences": {},
  "deployedLinkReferences": {}
}