{
  "_format": "hh-sol-artifact-1",
  "contractName": "MarketWithAuction",
  "sourceName": "contracts/v2/MarketWithAuction.sol",
  "abi": [
    {
      "inputs": [
        {
          "internalType": "address payable",
          "name": "_controlCenter",
          "type": "address"
        },
        {
          "internalType": "address",
          "name": "_trustedForwarder",
          "type": "address"
        },
        {
          "internalType": "address",
          "name": "_nativeTokenWrapper",
          "type": "address"
        },
        {
          "internalType": "string",
          "name": "_uri",
          "type": "string"
        },
        {
          "internalType": "uint256",
          "name": "_marketFeeBps",
          "type": "uint256"
        }
      ],
      "stateMutability": "nonpayable",
      "type": "constructor"
    },
    {
      "anonymous": false,
      "inputs": [
        {
          "indexed": false,
          "internalType": "uint256",
          "name": "timeBuffer",
          "type": "uint256"
        },
        {
          "indexed": false,
          "internalType": "uint256",
          "name": "bidBufferBps",
          "type": "uint256"
        }
      ],
      "name": "AuctionBuffersUpdated",
      "type": "event"
    },
    {
      "anonymous": false,
      "inputs": [
        {
          "indexed": true,
          "internalType": "uint256",
          "name": "listingId",
          "type": "uint256"
        },
        {
          "indexed": true,
          "internalType": "address",
          "name": "auctionCreator",
          "type": "address"
        },
        {
          "components": [
            {
              "internalType": "uint256",
              "name": "listingId",
              "type": "uint256"
            },
            {
              "internalType": "address",
              "name": "tokenOwner",
              "type": "address"
            },
            {
              "internalType": "address",
              "name": "assetContract",
              "type": "address"
            },
            {
              "internalType": "uint256",
              "name": "tokenId",
              "type": "uint256"
            },
            {
              "internalType": "uint256",
              "name": "startTime",
              "type": "uint256"
            },
            {
              "internalType": "uint256",
              "name": "endTime",
              "type": "uint256"
            },
            {
              "internalType": "uint256",
              "name": "quantity",
              "type": "uint256"
            },
            {
              "internalType": "address",
              "name": "currency",
              "type": "address"
            },
            {
              "internalType": "uint256",
              "name": "reservePricePerToken",
              "type": "uint256"
            },
            {
              "internalType": "uint256",
              "name": "buyoutPricePerToken",
              "type": "uint256"
            },
            {
              "internalType": "enum IMarket.TokenType",
              "name": "tokenType",
              "type": "uint8"
            },
            {
              "internalType": "enum IMarket.ListingType",
              "name": "listingType",
              "type": "uint8"
            }
          ],
          "indexed": false,
          "internalType": "struct IMarket.Listing",
          "name": "listing",
          "type": "tuple"
        }
      ],
      "name": "AuctionCanceled",
      "type": "event"
    },
    {
      "anonymous": false,
      "inputs": [
        {
          "indexed": true,
          "internalType": "uint256",
          "name": "listingId",
          "type": "uint256"
        },
        {
          "indexed": true,
          "internalType": "address",
          "name": "closer",
          "type": "address"
        },
        {
          "indexed": false,
          "internalType": "address",
          "name": "auctionCreator",
          "type": "address"
        },
        {
          "indexed": false,
          "internalType": "address",
          "name": "winningBidder",
          "type": "address"
        },
        {
          "components": [
            {
              "internalType": "uint256",
              "name": "listingId",
              "type": "uint256"
            },
            {
              "internalType": "address",
              "name": "offeror",
              "type": "address"
            },
            {
              "internalType": "uint256",
              "name": "quantityWanted",
              "type": "uint256"
            },
            {
              "internalType": "uint256",
              "name": "pricePerToken",
              "type": "uint256"
            }
          ],
          "indexed": false,
          "internalType": "struct IMarket.Offer",
          "name": "winningBid",
          "type": "tuple"
        },
        {
          "components": [
            {
              "internalType": "uint256",
              "name": "listingId",
              "type": "uint256"
            },
            {
              "internalType": "address",
              "name": "tokenOwner",
              "type": "address"
            },
            {
              "internalType": "address",
              "name": "assetContract",
              "type": "address"
            },
            {
              "internalType": "uint256",
              "name": "tokenId",
              "type": "uint256"
            },
            {
              "internalType": "uint256",
              "name": "startTime",
              "type": "uint256"
            },
            {
              "internalType": "uint256",
              "name": "endTime",
              "type": "uint256"
            },
            {
              "internalType": "uint256",
              "name": "quantity",
              "type": "uint256"
            },
            {
              "internalType": "address",
              "name": "currency",
              "type": "address"
            },
            {
              "internalType": "uint256",
              "name": "reservePricePerToken",
              "type": "uint256"
            },
            {
              "internalType": "uint256",
              "name": "buyoutPricePerToken",
              "type": "uint256"
            },
            {
              "internalType": "enum IMarket.TokenType",
              "name": "tokenType",
              "type": "uint8"
            },
            {
              "internalType": "enum IMarket.ListingType",
              "name": "listingType",
              "type": "uint8"
            }
          ],
          "indexed": false,
          "internalType": "struct IMarket.Listing",
          "name": "listing",
          "type": "tuple"
        }
      ],
      "name": "AuctionClosed",
      "type": "event"
    },
    {
      "anonymous": false,
      "inputs": [
        {
          "indexed": false,
          "internalType": "address",
          "name": "from",
          "type": "address"
        },
        {
          "indexed": false,
          "internalType": "uint256",
          "name": "amount",
          "type": "uint256"
        }
      ],
      "name": "EtherReceived",
      "type": "event"
    },
    {
      "anonymous": false,
      "inputs": [
        {
          "indexed": true,
          "internalType": "address",
          "name": "listingCreator",
          "type": "address"
        },
        {
          "indexed": true,
          "internalType": "uint256",
          "name": "listingId",
          "type": "uint256"
        },
        {
          "components": [
            {
              "internalType": "uint256",
              "name": "listingId",
              "type": "uint256"
            },
            {
              "internalType": "address",
              "name": "tokenOwner",
              "type": "address"
            },
            {
              "internalType": "address",
              "name": "assetContract",
              "type": "address"
            },
            {
              "internalType": "uint256",
              "name": "tokenId",
              "type": "uint256"
            },
            {
              "internalType": "uint256",
              "name": "startTime",
              "type": "uint256"
            },
            {
              "internalType": "uint256",
              "name": "endTime",
              "type": "uint256"
            },
            {
              "internalType": "uint256",
              "name": "quantity",
              "type": "uint256"
            },
            {
              "internalType": "address",
              "name": "currency",
              "type": "address"
            },
            {
              "internalType": "uint256",
              "name": "reservePricePerToken",
              "type": "uint256"
            },
            {
              "internalType": "uint256",
              "name": "buyoutPricePerToken",
              "type": "uint256"
            },
            {
              "internalType": "enum IMarket.TokenType",
              "name": "tokenType",
              "type": "uint8"
            },
            {
              "internalType": "enum IMarket.ListingType",
              "name": "listingType",
              "type": "uint8"
            }
          ],
          "indexed": false,
          "internalType": "struct IMarket.Listing",
          "name": "listing",
          "type": "tuple"
        }
      ],
      "name": "ListingUpdate",
      "type": "event"
    },
    {
      "anonymous": false,
      "inputs": [
        {
          "indexed": false,
          "internalType": "uint64",
          "name": "newFee",
          "type": "uint64"
        }
      ],
      "name": "MarketFeeUpdate",
      "type": "event"
    },
    {
      "anonymous": false,
      "inputs": [
        {
          "indexed": true,
          "internalType": "uint256",
          "name": "listingId",
          "type": "uint256"
        },
        {
          "indexed": true,
          "internalType": "address",
          "name": "bidder",
          "type": "address"
        },
        {
          "components": [
            {
              "internalType": "uint256",
              "name": "listingId",
              "type": "uint256"
            },
            {
              "internalType": "address",
              "name": "offeror",
              "type": "address"
            },
            {
              "internalType": "uint256",
              "name": "quantityWanted",
              "type": "uint256"
            },
            {
              "internalType": "uint256",
              "name": "pricePerToken",
              "type": "uint256"
            }
          ],
          "indexed": false,
          "internalType": "struct IMarket.Offer",
          "name": "bid",
          "type": "tuple"
        },
        {
          "components": [
            {
              "internalType": "uint256",
              "name": "listingId",
              "type": "uint256"
            },
            {
              "internalType": "address",
              "name": "tokenOwner",
              "type": "address"
            },
            {
              "internalType": "address",
              "name": "assetContract",
              "type": "address"
            },
            {
              "internalType": "uint256",
              "name": "tokenId",
              "type": "uint256"
            },
            {
              "internalType": "uint256",
              "name": "startTime",
              "type": "uint256"
            },
            {
              "internalType": "uint256",
              "name": "endTime",
              "type": "uint256"
            },
            {
              "internalType": "uint256",
              "name": "quantity",
              "type": "uint256"
            },
            {
              "internalType": "address",
              "name": "currency",
              "type": "address"
            },
            {
              "internalType": "uint256",
              "name": "reservePricePerToken",
              "type": "uint256"
            },
            {
              "internalType": "uint256",
              "name": "buyoutPricePerToken",
              "type": "uint256"
            },
            {
              "internalType": "enum IMarket.TokenType",
              "name": "tokenType",
              "type": "uint8"
            },
            {
              "internalType": "enum IMarket.ListingType",
              "name": "listingType",
              "type": "uint8"
            }
          ],
          "indexed": false,
          "internalType": "struct IMarket.Listing",
          "name": "listing",
          "type": "tuple"
        }
      ],
      "name": "NewBid",
      "type": "event"
    },
    {
      "anonymous": false,
      "inputs": [
        {
          "indexed": true,
          "internalType": "address",
          "name": "assetContract",
          "type": "address"
        },
        {
          "indexed": true,
          "internalType": "address",
          "name": "seller",
          "type": "address"
        },
        {
          "indexed": true,
          "internalType": "uint256",
          "name": "listingId",
          "type": "uint256"
        },
        {
          "indexed": false,
          "internalType": "address",
          "name": "buyer",
          "type": "address"
        },
        {
          "indexed": false,
          "internalType": "uint256",
          "name": "quantity",
          "type": "uint256"
        },
        {
          "components": [
            {
              "internalType": "uint256",
              "name": "listingId",
              "type": "uint256"
            },
            {
              "internalType": "address",
              "name": "tokenOwner",
              "type": "address"
            },
            {
              "internalType": "address",
              "name": "assetContract",
              "type": "address"
            },
            {
              "internalType": "uint256",
              "name": "tokenId",
              "type": "uint256"
            },
            {
              "internalType": "uint256",
              "name": "startTime",
              "type": "uint256"
            },
            {
              "internalType": "uint256",
              "name": "endTime",
              "type": "uint256"
            },
            {
              "internalType": "uint256",
              "name": "quantity",
              "type": "uint256"
            },
            {
              "internalType": "address",
              "name": "currency",
              "type": "address"
            },
            {
              "internalType": "uint256",
              "name": "reservePricePerToken",
              "type": "uint256"
            },
            {
              "internalType": "uint256",
              "name": "buyoutPricePerToken",
              "type": "uint256"
            },
            {
              "internalType": "enum IMarket.TokenType",
              "name": "tokenType",
              "type": "uint8"
            },
            {
              "internalType": "enum IMarket.ListingType",
              "name": "listingType",
              "type": "uint8"
            }
          ],
          "indexed": false,
          "internalType": "struct IMarket.Listing",
          "name": "listing",
          "type": "tuple"
        }
      ],
      "name": "NewDirectSale",
      "type": "event"
    },
    {
      "anonymous": false,
      "inputs": [
        {
          "indexed": true,
          "internalType": "address",
          "name": "assetContract",
          "type": "address"
        },
        {
          "indexed": true,
          "internalType": "address",
          "name": "seller",
          "type": "address"
        },
        {
          "indexed": true,
          "internalType": "uint256",
          "name": "listingId",
          "type": "uint256"
        },
        {
          "components": [
            {
              "internalType": "uint256",
              "name": "listingId",
              "type": "uint256"
            },
            {
              "internalType": "address",
              "name": "tokenOwner",
              "type": "address"
            },
            {
              "internalType": "address",
              "name": "assetContract",
              "type": "address"
            },
            {
              "internalType": "uint256",
              "name": "tokenId",
              "type": "uint256"
            },
            {
              "internalType": "uint256",
              "name": "startTime",
              "type": "uint256"
            },
            {
              "internalType": "uint256",
              "name": "endTime",
              "type": "uint256"
            },
            {
              "internalType": "uint256",
              "name": "quantity",
              "type": "uint256"
            },
            {
              "internalType": "address",
              "name": "currency",
              "type": "address"
            },
            {
              "internalType": "uint256",
              "name": "reservePricePerToken",
              "type": "uint256"
            },
            {
              "internalType": "uint256",
              "name": "buyoutPricePerToken",
              "type": "uint256"
            },
            {
              "internalType": "enum IMarket.TokenType",
              "name": "tokenType",
              "type": "uint8"
            },
            {
              "internalType": "enum IMarket.ListingType",
              "name": "listingType",
              "type": "uint8"
            }
          ],
          "indexed": false,
          "internalType": "struct IMarket.Listing",
          "name": "listing",
          "type": "tuple"
        }
      ],
      "name": "NewListing",
      "type": "event"
    },
    {
      "anonymous": false,
      "inputs": [
        {
          "indexed": true,
          "internalType": "uint256",
          "name": "listingId",
          "type": "uint256"
        },
        {
          "indexed": true,
          "internalType": "address",
          "name": "offeror",
          "type": "address"
        },
        {
          "components": [
            {
              "internalType": "uint256",
              "name": "listingId",
              "type": "uint256"
            },
            {
              "internalType": "address",
              "name": "offeror",
              "type": "address"
            },
            {
              "internalType": "uint256",
              "name": "quantityWanted",
              "type": "uint256"
            },
            {
              "internalType": "uint256",
              "name": "pricePerToken",
              "type": "uint256"
            }
          ],
          "indexed": false,
          "internalType": "struct IMarket.Offer",
          "name": "offer",
          "type": "tuple"
        },
        {
          "components": [
            {
              "internalType": "uint256",
              "name": "listingId",
              "type": "uint256"
            },
            {
              "internalType": "address",
              "name": "tokenOwner",
              "type": "address"
            },
            {
              "internalType": "address",
              "name": "assetContract",
              "type": "address"
            },
            {
              "internalType": "uint256",
              "name": "tokenId",
              "type": "uint256"
            },
            {
              "internalType": "uint256",
              "name": "startTime",
              "type": "uint256"
            },
            {
              "internalType": "uint256",
              "name": "endTime",
              "type": "uint256"
            },
            {
              "internalType": "uint256",
              "name": "quantity",
              "type": "uint256"
            },
            {
              "internalType": "address",
              "name": "currency",
              "type": "address"
            },
            {
              "internalType": "uint256",
              "name": "reservePricePerToken",
              "type": "uint256"
            },
            {
              "internalType": "uint256",
              "name": "buyoutPricePerToken",
              "type": "uint256"
            },
            {
              "internalType": "enum IMarket.TokenType",
              "name": "tokenType",
              "type": "uint8"
            },
            {
              "internalType": "enum IMarket.ListingType",
              "name": "listingType",
              "type": "uint8"
            }
          ],
          "indexed": false,
          "internalType": "struct IMarket.Listing",
          "name": "listing",
          "type": "tuple"
        }
      ],
      "name": "NewOffer",
      "type": "event"
    },
    {
      "anonymous": false,
      "inputs": [
        {
          "indexed": false,
          "internalType": "bool",
          "name": "restricted",
          "type": "bool"
        }
      ],
      "name": "RestrictedListerRoleUpdated",
      "type": "event"
    },
    {
      "anonymous": false,
      "inputs": [
        {
          "indexed": true,
          "internalType": "bytes32",
          "name": "role",
          "type": "bytes32"
        },
        {
          "indexed": true,
          "internalType": "bytes32",
          "name": "previousAdminRole",
          "type": "bytes32"
        },
        {
          "indexed": true,
          "internalType": "bytes32",
          "name": "newAdminRole",
          "type": "bytes32"
        }
      ],
      "name": "RoleAdminChanged",
      "type": "event"
    },
    {
      "anonymous": false,
      "inputs": [
        {
          "indexed": true,
          "internalType": "bytes32",
          "name": "role",
          "type": "bytes32"
        },
        {
          "indexed": true,
          "internalType": "address",
          "name": "account",
          "type": "address"
        },
        {
          "indexed": true,
          "internalType": "address",
          "name": "sender",
          "type": "address"
        }
      ],
      "name": "RoleGranted",
      "type": "event"
    },
    {
      "anonymous": false,
      "inputs": [
        {
          "indexed": true,
          "internalType": "bytes32",
          "name": "role",
          "type": "bytes32"
        },
        {
          "indexed": true,
          "internalType": "address",
          "name": "account",
          "type": "address"
        },
        {
          "indexed": true,
          "internalType": "address",
          "name": "sender",
          "type": "address"
        }
      ],
      "name": "RoleRevoked",
      "type": "event"
    },
    {
      "inputs": [],
      "name": "DEFAULT_ADMIN_ROLE",
      "outputs": [
        {
          "internalType": "bytes32",
          "name": "",
          "type": "bytes32"
        }
      ],
      "stateMutability": "view",
      "type": "function"
    },
    {
      "inputs": [],
      "name": "LISTER_ROLE",
      "outputs": [
        {
          "internalType": "bytes32",
          "name": "",
          "type": "bytes32"
        }
      ],
      "stateMutability": "view",
      "type": "function"
    },
    {
      "inputs": [],
      "name": "MAX_BPS",
      "outputs": [
        {
          "internalType": "uint64",
          "name": "",
          "type": "uint64"
        }
      ],
      "stateMutability": "view",
      "type": "function"
    },
    {
      "inputs": [],
      "name": "_contractURI",
      "outputs": [
        {
          "internalType": "string",
          "name": "",
          "type": "string"
        }
      ],
      "stateMutability": "view",
      "type": "function"
    },
    {
      "inputs": [
        {
          "internalType": "uint256",
          "name": "_listingId",
          "type": "uint256"
        },
        {
          "internalType": "address",
          "name": "offeror",
          "type": "address"
        }
      ],
      "name": "acceptOffer",
      "outputs": [],
      "stateMutability": "nonpayable",
      "type": "function"
    },
    {
      "inputs": [],
      "name": "bidBufferBps",
      "outputs": [
        {
          "internalType": "uint64",
          "name": "",
          "type": "uint64"
        }
      ],
      "stateMutability": "view",
      "type": "function"
    },
    {
      "inputs": [
        {
          "internalType": "uint256",
          "name": "_listingId",
          "type": "uint256"
        },
        {
          "internalType": "uint256",
          "name": "_quantityToBuy",
          "type": "uint256"
        }
      ],
      "name": "buy",
      "outputs": [],
      "stateMutability": "nonpayable",
      "type": "function"
    },
    {
      "inputs": [
        {
          "internalType": "uint256",
          "name": "_listingId",
          "type": "uint256"
        }
      ],
      "name": "closeAuction",
      "outputs": [],
      "stateMutability": "nonpayable",
      "type": "function"
    },
    {
      "inputs": [],
      "name": "contractURI",
      "outputs": [
        {
          "internalType": "string",
          "name": "",
          "type": "string"
        }
      ],
      "stateMutability": "view",
      "type": "function"
    },
    {
      "inputs": [
        {
          "components": [
            {
              "internalType": "address",
              "name": "assetContract",
              "type": "address"
            },
            {
              "internalType": "uint256",
              "name": "tokenId",
              "type": "uint256"
            },
            {
              "internalType": "uint256",
              "name": "secondsUntilStartTime",
              "type": "uint256"
            },
            {
              "internalType": "uint256",
              "name": "secondsUntilEndTime",
              "type": "uint256"
            },
            {
              "internalType": "uint256",
              "name": "quantityToList",
              "type": "uint256"
            },
            {
              "internalType": "address",
              "name": "currencyToAccept",
              "type": "address"
            },
            {
              "internalType": "uint256",
              "name": "reservePricePerToken",
              "type": "uint256"
            },
            {
              "internalType": "uint256",
              "name": "buyoutPricePerToken",
              "type": "uint256"
            },
            {
              "internalType": "enum IMarket.ListingType",
              "name": "listingType",
              "type": "uint8"
            }
          ],
          "internalType": "struct IMarket.ListingParameters",
          "name": "_params",
          "type": "tuple"
        }
      ],
      "name": "createListing",
      "outputs": [],
      "stateMutability": "nonpayable",
      "type": "function"
    },
    {
      "inputs": [
        {
          "internalType": "uint256",
          "name": "_listingId",
          "type": "uint256"
        },
        {
          "internalType": "uint256",
          "name": "_quantityToList",
          "type": "uint256"
        },
        {
          "internalType": "uint256",
          "name": "_reservePricePerToken",
          "type": "uint256"
        },
        {
          "internalType": "uint256",
          "name": "_buyoutPricePerToken",
          "type": "uint256"
        },
        {
          "internalType": "address",
          "name": "_currencyToAccept",
          "type": "address"
        },
        {
          "internalType": "uint256",
          "name": "_secondsUntilStartTime",
          "type": "uint256"
        },
        {
          "internalType": "uint256",
          "name": "_secondsUntilEndTime",
          "type": "uint256"
        }
      ],
      "name": "editListingParametrs",
      "outputs": [],
      "stateMutability": "nonpayable",
      "type": "function"
    },
    {
      "inputs": [
        {
          "internalType": "bytes32",
          "name": "role",
          "type": "bytes32"
        }
      ],
      "name": "getRoleAdmin",
      "outputs": [
        {
          "internalType": "bytes32",
          "name": "",
          "type": "bytes32"
        }
      ],
      "stateMutability": "view",
      "type": "function"
    },
    {
      "inputs": [
        {
          "internalType": "bytes32",
          "name": "role",
          "type": "bytes32"
        },
        {
          "internalType": "uint256",
          "name": "index",
          "type": "uint256"
        }
      ],
      "name": "getRoleMember",
      "outputs": [
        {
          "internalType": "address",
          "name": "",
          "type": "address"
        }
      ],
      "stateMutability": "view",
      "type": "function"
    },
    {
      "inputs": [
        {
          "internalType": "bytes32",
          "name": "role",
          "type": "bytes32"
        }
      ],
      "name": "getRoleMemberCount",
      "outputs": [
        {
          "internalType": "uint256",
          "name": "",
          "type": "uint256"
        }
      ],
      "stateMutability": "view",
      "type": "function"
    },
    {
      "inputs": [
        {
          "internalType": "bytes32",
          "name": "role",
          "type": "bytes32"
        },
        {
          "internalType": "address",
          "name": "account",
          "type": "address"
        }
      ],
      "name": "grantRole",
      "outputs": [],
      "stateMutability": "nonpayable",
      "type": "function"
    },
    {
      "inputs": [
        {
          "internalType": "bytes32",
          "name": "role",
          "type": "bytes32"
        },
        {
          "internalType": "address",
          "name": "account",
          "type": "address"
        }
      ],
      "name": "hasRole",
      "outputs": [
        {
          "internalType": "bool",
          "name": "",
          "type": "bool"
        }
      ],
      "stateMutability": "view",
      "type": "function"
    },
    {
      "inputs": [
        {
          "internalType": "address",
          "name": "forwarder",
          "type": "address"
        }
      ],
      "name": "isTrustedForwarder",
      "outputs": [
        {
          "internalType": "bool",
          "name": "",
          "type": "bool"
        }
      ],
      "stateMutability": "view",
      "type": "function"
    },
    {
      "inputs": [
        {
          "internalType": "uint256",
          "name": "",
          "type": "uint256"
        }
      ],
      "name": "listings",
      "outputs": [
        {
          "internalType": "uint256",
          "name": "listingId",
          "type": "uint256"
        },
        {
          "internalType": "address",
          "name": "tokenOwner",
          "type": "address"
        },
        {
          "internalType": "address",
          "name": "assetContract",
          "type": "address"
        },
        {
          "internalType": "uint256",
          "name": "tokenId",
          "type": "uint256"
        },
        {
          "internalType": "uint256",
          "name": "startTime",
          "type": "uint256"
        },
        {
          "internalType": "uint256",
          "name": "endTime",
          "type": "uint256"
        },
        {
          "internalType": "uint256",
          "name": "quantity",
          "type": "uint256"
        },
        {
          "internalType": "address",
          "name": "currency",
          "type": "address"
        },
        {
          "internalType": "uint256",
          "name": "reservePricePerToken",
          "type": "uint256"
        },
        {
          "internalType": "uint256",
          "name": "buyoutPricePerToken",
          "type": "uint256"
        },
        {
          "internalType": "enum IMarket.TokenType",
          "name": "tokenType",
          "type": "uint8"
        },
        {
          "internalType": "enum IMarket.ListingType",
          "name": "listingType",
          "type": "uint8"
        }
      ],
      "stateMutability": "view",
      "type": "function"
    },
    {
      "inputs": [],
      "name": "marketFeeBps",
      "outputs": [
        {
          "internalType": "uint64",
          "name": "",
          "type": "uint64"
        }
      ],
      "stateMutability": "view",
      "type": "function"
    },
    {
      "inputs": [
        {
          "internalType": "bytes[]",
          "name": "data",
          "type": "bytes[]"
        }
      ],
      "name": "multicall",
      "outputs": [
        {
          "internalType": "bytes[]",
          "name": "results",
          "type": "bytes[]"
        }
      ],
      "stateMutability": "nonpayable",
      "type": "function"
    },
    {
      "inputs": [],
      "name": "nativeToken",
      "outputs": [
        {
          "internalType": "address",
          "name": "",
          "type": "address"
        }
      ],
      "stateMutability": "view",
      "type": "function"
    },
    {
      "inputs": [],
      "name": "nativeTokenWrapper",
      "outputs": [
        {
          "internalType": "address",
          "name": "",
          "type": "address"
        }
      ],
      "stateMutability": "view",
      "type": "function"
    },
    {
      "inputs": [
        {
          "internalType": "uint256",
          "name": "_listingId",
          "type": "uint256"
        },
        {
          "internalType": "uint256",
          "name": "_quantityWanted",
          "type": "uint256"
        },
        {
          "internalType": "uint256",
          "name": "_pricePerToken",
          "type": "uint256"
        }
      ],
      "name": "offer",
      "outputs": [],
      "stateMutability": "payable",
      "type": "function"
    },
    {
      "inputs": [
        {
          "internalType": "uint256",
          "name": "",
          "type": "uint256"
        },
        {
          "internalType": "address",
          "name": "",
          "type": "address"
        }
      ],
      "name": "offers",
      "outputs": [
        {
          "internalType": "uint256",
          "name": "listingId",
          "type": "uint256"
        },
        {
          "internalType": "address",
          "name": "offeror",
          "type": "address"
        },
        {
          "internalType": "uint256",
          "name": "quantityWanted",
          "type": "uint256"
        },
        {
          "internalType": "uint256",
          "name": "pricePerToken",
          "type": "uint256"
        }
      ],
      "stateMutability": "view",
      "type": "function"
    },
    {
      "inputs": [
        {
          "internalType": "address",
          "name": "",
          "type": "address"
        },
        {
          "internalType": "address",
          "name": "",
          "type": "address"
        },
        {
          "internalType": "uint256[]",
          "name": "",
          "type": "uint256[]"
        },
        {
          "internalType": "uint256[]",
          "name": "",
          "type": "uint256[]"
        },
        {
          "internalType": "bytes",
          "name": "",
          "type": "bytes"
        }
      ],
      "name": "onERC1155BatchReceived",
      "outputs": [
        {
          "internalType": "bytes4",
          "name": "",
          "type": "bytes4"
        }
      ],
      "stateMutability": "nonpayable",
      "type": "function"
    },
    {
      "inputs": [
        {
          "internalType": "address",
          "name": "",
          "type": "address"
        },
        {
          "internalType": "address",
          "name": "",
          "type": "address"
        },
        {
          "internalType": "uint256",
          "name": "",
          "type": "uint256"
        },
        {
          "internalType": "uint256",
          "name": "",
          "type": "uint256"
        },
        {
          "internalType": "bytes",
          "name": "",
          "type": "bytes"
        }
      ],
      "name": "onERC1155Received",
      "outputs": [
        {
          "internalType": "bytes4",
          "name": "",
          "type": "bytes4"
        }
      ],
      "stateMutability": "nonpayable",
      "type": "function"
    },
    {
      "inputs": [
        {
          "internalType": "address",
          "name": "",
          "type": "address"
        },
        {
          "internalType": "address",
          "name": "",
          "type": "address"
        },
        {
          "internalType": "uint256",
          "name": "",
          "type": "uint256"
        },
        {
          "internalType": "bytes",
          "name": "",
          "type": "bytes"
        }
      ],
      "name": "onERC721Received",
      "outputs": [
        {
          "internalType": "bytes4",
          "name": "",
          "type": "bytes4"
        }
      ],
      "stateMutability": "pure",
      "type": "function"
    },
    {
      "inputs": [
        {
          "internalType": "bytes32",
          "name": "role",
          "type": "bytes32"
        },
        {
          "internalType": "address",
          "name": "account",
          "type": "address"
        }
      ],
      "name": "renounceRole",
      "outputs": [],
      "stateMutability": "nonpayable",
      "type": "function"
    },
    {
      "inputs": [],
      "name": "restrictedListerRoleOnly",
      "outputs": [
        {
          "internalType": "bool",
          "name": "",
          "type": "bool"
        }
      ],
      "stateMutability": "view",
      "type": "function"
    },
    {
      "inputs": [
        {
          "internalType": "bytes32",
          "name": "role",
          "type": "bytes32"
        },
        {
          "internalType": "address",
          "name": "account",
          "type": "address"
        }
      ],
      "name": "revokeRole",
      "outputs": [],
      "stateMutability": "nonpayable",
      "type": "function"
    },
    {
      "inputs": [
        {
          "internalType": "uint256",
          "name": "_timeBuffer",
          "type": "uint256"
        },
        {
          "internalType": "uint256",
          "name": "_bidBufferBps",
          "type": "uint256"
        }
      ],
      "name": "setAuctionBuffers",
      "outputs": [],
      "stateMutability": "nonpayable",
      "type": "function"
    },
    {
      "inputs": [
        {
          "internalType": "string",
          "name": "_uri",
          "type": "string"
        }
      ],
      "name": "setContractURI",
      "outputs": [],
      "stateMutability": "nonpayable",
      "type": "function"
    },
    {
      "inputs": [
        {
          "internalType": "uint256",
          "name": "_feeBps",
          "type": "uint256"
        }
      ],
      "name": "setMarketFeeBps",
      "outputs": [],
      "stateMutability": "nonpayable",
      "type": "function"
    },
    {
      "inputs": [
        {
          "internalType": "bool",
          "name": "restricted",
          "type": "bool"
        }
      ],
      "name": "setRestrictedListerRoleOnly",
      "outputs": [],
      "stateMutability": "nonpayable",
      "type": "function"
    },
    {
      "inputs": [
        {
          "internalType": "bytes4",
          "name": "interfaceId",
          "type": "bytes4"
        }
      ],
      "name": "supportsInterface",
      "outputs": [
        {
          "internalType": "bool",
          "name": "",
          "type": "bool"
        }
      ],
      "stateMutability": "view",
      "type": "function"
    },
    {
      "inputs": [],
      "name": "timeBuffer",
      "outputs": [
        {
          "internalType": "uint64",
          "name": "",
          "type": "uint64"
        }
      ],
      "stateMutability": "view",
      "type": "function"
    },
    {
      "inputs": [],
      "name": "totalListings",
      "outputs": [
        {
          "internalType": "uint256",
          "name": "",
          "type": "uint256"
        }
      ],
      "stateMutability": "view",
      "type": "function"
    },
    {
      "inputs": [
        {
          "internalType": "uint256",
          "name": "",
          "type": "uint256"
        }
      ],
      "name": "winningBid",
      "outputs": [
        {
          "internalType": "uint256",
          "name": "listingId",
          "type": "uint256"
        },
        {
          "internalType": "address",
          "name": "offeror",
          "type": "address"
        },
        {
          "internalType": "uint256",
          "name": "quantityWanted",
          "type": "uint256"
        },
        {
          "internalType": "uint256",
          "name": "pricePerToken",
          "type": "uint256"
        }
      ],
      "stateMutability": "view",
      "type": "function"
    },
    {
      "stateMutability": "payable",
      "type": "receive"
    }
  ],
  "bytecode": "0x60a060405260078054600160481b600160c81b0319167201f400000000000003840000000000000000001790553480156200003957600080fd5b50604051620062f5380380620062f58339810160408190526200005c9162000395565b6001600255600380546001600160a01b0319166001600160a01b038616179055815162000091906006906020850190620002ef565b50600480546001600160a01b0319166001600160a01b038716179055606083901b6001600160601b03191660805260078054610100600160481b0319166101006001600160401b03841602179055620000f56000620000ef6200012f565b6200014b565b620001247ff94103142c1baabe9ac2b5d1487bf783de9e69cfeea9a72f5c9c94afd7877b8c620000ef6200012f565b505050505062000525565b6000620001466200018e60201b620030e51760201c565b905090565b620001628282620001c760201b6200310d1760201c565b6000828152600160209081526040909120620001899183906200311b620001d7821b17901c565b505050565b6003546000906001600160a01b0316331415620001b2575060131936013560601c90565b62000146620001f760201b620031301760201c565b620001d38282620001fb565b5050565b6000620001ee836001600160a01b0384166200029d565b90505b92915050565b3390565b6000828152602081815260408083206001600160a01b038516845290915290205460ff16620001d3576000828152602081815260408083206001600160a01b03851684529091529020805460ff19166001179055620002596200012f565b6001600160a01b0316816001600160a01b0316837f2f8788117e7eff1d82e926ec794901d17c78024a50270940304540a733656f0d60405160405180910390a45050565b6000818152600183016020526040812054620002e657508154600181810184556000848152602080822090930184905584548482528286019093526040902091909155620001f1565b506000620001f1565b828054620002fd90620004b9565b90600052602060002090601f0160209004810192826200032157600085556200036c565b82601f106200033c57805160ff19168380011785556200036c565b828001600101855582156200036c579182015b828111156200036c5782518255916020019190600101906200034f565b506200037a9291506200037e565b5090565b5b808211156200037a57600081556001016200037f565b600080600080600060a08688031215620003ad578081fd5b8551620003ba816200050c565b80955050602080870151620003cf816200050c565b6040880151909550620003e2816200050c565b60608801519094506001600160401b0380821115620003ff578384fd5b818901915089601f83011262000413578384fd5b815181811115620004285762000428620004f6565b604051601f8201601f19908116603f01168101908382118183101715620004535762000453620004f6565b816040528281528c868487010111156200046b578687fd5b8693505b828410156200048e57848401860151818501870152928501926200046f565b828411156200049f57868684830101525b809750505050505050608086015190509295509295909350565b600181811c90821680620004ce57607f821691505b60208210811415620004f057634e487b7160e01b600052602260045260246000fd5b50919050565b634e487b7160e01b600052604160045260246000fd5b6001600160a01b03811681146200052257600080fd5b50565b60805160601c615d9c620005596000396000818161095e015281816146980152818161470c01526148170152615d9c6000f3fe6080604052600436106102895760003560e01c8063bc197c8111610153578063deb26b94116100cb578063ebdfbce51161007f578063f23a6e6111610064578063f23a6e6114610920578063f9ea29cb1461094c578063fd967f471461098057600080fd5b8063ebdfbce51461089b578063ec91f2a4146108f257600080fd5b8063e4104eaf116100b0578063e4104eaf14610846578063e8a3d48514610866578063ea0e02411461087b57600080fd5b8063deb26b94146107ea578063e1758bd81461081e57600080fd5b8063ca15c87311610122578063d547741f11610107578063d547741f14610705578063d6febde814610725578063de74e57b1461074557600080fd5b8063ca15c87314610671578063d4ac9b8c1461069157600080fd5b8063bc197c81146105ed578063bcebc64414610619578063c0e7274014610639578063c78b616c1461065b57600080fd5b80634e03f28d11610201578063918d407d116101b5578063938e3d7b1161019a578063938e3d7b1461058b578063a217fddf146105ab578063ac9650d8146105c057600080fd5b8063918d407d1461052757806391d148541461054757600080fd5b806361096ec6116101e657806361096ec6146104c257806380cd2464146104dc5780639010d07c146104ef57600080fd5b80634e03f28d1461046b578063572b6c051461049357600080fd5b8063296f4e1611610258578063354c7ab61161023d578063354c7ab6146103ec57806336568abe1461040c5780633f5c3e871461042c57600080fd5b8063296f4e16146103ac5780632f2ff15d146103cc57600080fd5b806301ffc9a7146102de578063150b7a0214610313578063236ed8f31461034c578063248a9ca31461036e57600080fd5b366102d9577f1e57e3bb474320be3d2c77138f75b7c3941292d647f5f9634e33a8e94e0e069b6102b7610996565b604080516001600160a01b0390921682523460208301520160405180910390a1005b600080fd5b3480156102ea57600080fd5b506102fe6102f9366004615676565b6109a5565b60405190151581526020015b60405180910390f35b34801561031f57600080fd5b5061033361032e366004615449565b6109f7565b6040516001600160e01b0319909116815260200161030a565b34801561035857600080fd5b5061036c6103673660046155f6565b610a09565b005b34801561037a57600080fd5b5061039e6103893660046155f6565b60009081526020819052604090206001015490565b60405190815260200161030a565b3480156103b857600080fd5b5061036c6103c73660046156de565b61126f565b3480156103d857600080fd5b5061036c6103e7366004615626565b611657565b3480156103f857600080fd5b5061036c6104073660046155be565b61167e565b34801561041857600080fd5b5061036c610427366004615626565b61171f565b34801561043857600080fd5b5060075461045290610100900467ffffffffffffffff1681565b60405167ffffffffffffffff909116815260200161030a565b34801561047757600080fd5b5060075461045290600160881b900467ffffffffffffffff1681565b34801561049f57600080fd5b506102fe6104ae366004615367565b6003546001600160a01b0391821691161490565b3480156104ce57600080fd5b506007546102fe9060ff1681565b61036c6104ea366004615769565b611741565b3480156104fb57600080fd5b5061050f61050a366004615655565b611cb4565b6040516001600160a01b03909116815260200161030a565b34801561053357600080fd5b5061036c610542366004615626565b611cd3565b34801561055357600080fd5b506102fe610562366004615626565b6000918252602082815260408084206001600160a01b0393909316845291905290205460ff1690565b34801561059757600080fd5b5061036c6105a636600461569e565b61221b565b3480156105b757600080fd5b5061039e600081565b3480156105cc57600080fd5b506105e06105db36600461554e565b6123a2565b60405161030a9190615a0d565b3480156105f957600080fd5b5061033361060836600461539f565b63bc197c8160e01b95945050505050565b34801561062557600080fd5b5061036c610634366004615794565b6124c1565b34801561064557600080fd5b5061064e6129cd565b60405161030a9190615a6e565b34801561066757600080fd5b5061039e60055481565b34801561067d57600080fd5b5061039e61068c3660046155f6565b612a5b565b34801561069d57600080fd5b506106dd6106ac3660046155f6565b600a60205260009081526040902080546001820154600283015460039093015491926001600160a01b039091169184565b604080519485526001600160a01b03909316602085015291830152606082015260800161030a565b34801561071157600080fd5b5061036c610720366004615626565b612a72565b34801561073157600080fd5b5061036c610740366004615655565b612a7c565b34801561075157600080fd5b506107d26107603660046155f6565b600860208190526000918252604090912080546001820154600283015460038401546004850154600586015460068701546007880154988801546009890154600a9099015497996001600160a01b03978816999688169895979496939592941692909160ff808216916101009004168c565b60405161030a9c9b9a99989796959493929190615acd565b3480156107f657600080fd5b5061039e7ff94103142c1baabe9ac2b5d1487bf783de9e69cfeea9a72f5c9c94afd7877b8c81565b34801561082a57600080fd5b5061050f73eeeeeeeeeeeeeeeeeeeeeeeeeeeeeeeeeeeeeeee81565b34801561085257600080fd5b5061036c6108613660046155f6565b612df5565b34801561087257600080fd5b5061064e612ef7565b34801561088757600080fd5b5061036c610896366004615655565b612f89565b3480156108a757600080fd5b506106dd6108b6366004615626565b6009602090815260009283526040808420909152908252902080546001820154600283015460039093015491926001600160a01b039091169184565b3480156108fe57600080fd5b50600754610452906901000000000000000000900467ffffffffffffffff1681565b34801561092c57600080fd5b5061033361093b3660046154ba565b63f23a6e6160e01b95945050505050565b34801561095857600080fd5b5061050f7f000000000000000000000000000000000000000000000000000000000000000081565b34801561098c57600080fd5b5061045261271081565b60006109a06130e5565b905090565b60006001600160e01b03198216630271189760e51b14806109d657506001600160e01b03198216630a85bd0160e11b145b806109f157506001600160e01b0319821663152a902d60e11b145b92915050565b630a85bd0160e11b5b95945050505050565b600280541415610a605760405162461bcd60e51b815260206004820152601f60248201527f5265656e7472616e637947756172643a207265656e7472616e742063616c6c0060448201526064015b60405180910390fd5b60028080556000828152600860208181526040808420815161018081018352815481526001808301546001600160a01b0390811695830195909552968201548416928101929092526003810154606083015260048101546080830152600581015460a0830152600681015460c0830152600781015490921660e0820152918101546101008301526009810154610120830152600a81015492939192909161014084019160ff1690811115610b2457634e487b7160e01b600052602160045260246000fd5b6001811115610b4357634e487b7160e01b600052602160045260246000fd5b8152602001600a820160019054906101000a900460ff166001811115610b7957634e487b7160e01b600052602160045260246000fd5b6001811115610b9857634e487b7160e01b600052602160045260246000fd5b9052506000838152600a6020908152604080832081516080810183528154815260018201546001600160a01b031693810193909352600281015491830191909152600301546060820152919250610bed610996565b90504283608001511115610e16576000848152600860205260409020600101546001600160a01b03828116911614610c8d5760405162461bcd60e51b815260206004820152602a60248201527f4d61726b65743a2063616c6c6572206973206e6f7420746865206c697374696e60448201527f672063726561746f722e000000000000000000000000000000000000000000006064820152608401610a57565b60c08301805160008083524260a08701908152878252600860208181526040938490208951815590890151600180830180546001600160a01b039384166001600160a01b031991821617909155958b015160028401805491841691881691909117905560608b0151600384015560808b01516004840155935160058301559551600682015560e089015160078201805491909716941693909317909455610100870151938201939093556101208601516009820155610140860151600a820180549394889460ff1916908381811115610d7657634e487b7160e01b600052602160045260246000fd5b0217905550610160820151600a8201805461ff001916610100836001811115610daf57634e487b7160e01b600052602160045260246000fd5b0217905550905050610dc73085602001518387613134565b83602001516001600160a01b0316857fb0d30498d58f551f4a1d6eec2a2e87f7ad9738e3f4f07897f50e87c15b27455886604051610e059190615a81565b60405180910390a350505050611267565b82602001516001600160a01b0316816001600160a01b03161480610e4f575081602001516001600160a01b0316816001600160a01b0316145b610ec15760405162461bcd60e51b815260206004820152602a60248201527f4d61726b65743a206d75737420626520626964646572206f722061756374696f60448201527f6e2063726561746f722e000000000000000000000000000000000000000000006064820152608401610a57565b60018361016001516001811115610ee857634e487b7160e01b600052602160045260246000fd5b14610f405760405162461bcd60e51b815260206004820152602260248201527f4d61726b65743a206c697374696e67206973206e6f7420616e2061756374696f604482015261371760f11b6064820152608401610a57565b428360a0015110610fb95760405162461bcd60e51b815260206004820152603260248201527f4d61726b65743a2063616e206f6e6c7920636c6f73652061756374696f6e206160448201527f667465722069742068617320656e6465642e00000000000000000000000000006064820152608401610a57565b82602001516001600160a01b0316610fcf610996565b6001600160a01b0316141561118c57600082604001518360600151610ff49190615c29565b600060c086018181524260a08801908152888352600860208181526040948590208a518155908a0151600180830180546001600160a01b039384166001600160a01b031991821617909155968c015160028401805491841691891691909117905560608c0151600384015560808c01516004840155935160058301559351600682015560e08a015160078201805491909516951694909417909255610100880151918301919091556101208701516009830155610140870151600a8301805494955088949192909160ff19169083818111156110e057634e487b7160e01b600052602160045260246000fd5b0217905550610160820151600a8201805461ff00191661010083600181111561111957634e487b7160e01b600052602160045260246000fd5b021790555050600060608501818152878252600a602090815260409283902087518155818801516001820180546001600160a01b0319166001600160a01b0390921691909117905592870151600284015590516003909201919091558501516111869150309083876132a7565b50611213565b81602001516001600160a01b03166111a2610996565b6001600160a01b0316141561121357604082810180516000808352878152600a602090815293902085518155928501516001840180546001600160a01b0319166001600160a01b0383161790559151600284015560608501516003909301929092556112119030908387613134565b505b806001600160a01b0316847ff595878d9676c74b23550f262f8b52dbe748a37173f297a78d0262234ab9b7a785602001518560200151868860405161125b9493929190615983565b60405180910390a35050505b506001600255565b60075460ff1615806112a857506112a87ff94103142c1baabe9ac2b5d1487bf783de9e69cfeea9a72f5c9c94afd7877b8c610562610996565b61131a5760405162461bcd60e51b815260206004820152602960248201527f4d61726b65743a2063616c6c657220646f6573206e6f742068617665204c495360448201527f5445525f524f4c452e00000000000000000000000000000000000000000000006064820152608401610a57565b60006113246134bf565b90506000611330610996565b9050600061134184600001516134dd565b90506000846080015111801561137157506113718285600001518660200151876080015185896101000151613669565b6113d65760405162461bcd60e51b815260206004820152603060248201527f4d61726b65743a206d757374206f776e20616e6420617070726f766520746f2060448201526f3a3930b739b332b9103a37b5b2b7399760811b6064820152608401610a57565b6000604051806101800160405280858152602001846001600160a01b0316815260200186600001516001600160a01b03168152602001866020015181526020018660400151426114269190615bf1565b8152602001866060015160001461144b5760608701516114469042615bf1565b61144f565b6000195b8152602001611462848860800151613ad1565b81526020018660a001516001600160a01b031681526020018660c0015181526020018660e0015181526020018360018111156114ae57634e487b7160e01b600052602160045260246000fd5b815260200186610100015160018111156114d857634e487b7160e01b600052602160045260246000fd5b90526000858152600860208181526040928390208451815590840151600180830180546001600160a01b03199081166001600160a01b0394851617909155948601516002840180548716918416919091179055606086015160038401556080860151600484015560a0860151600584015560c0860151600684015560e0860151600784018054909616921691909117909355610100840151918101919091556101208301516009820155610140830151600a82018054949550859492939192909160ff199091169083818111156115bf57634e487b7160e01b600052602160045260246000fd5b0217905550610160820151600a8201805461ff0019166101008360018111156115f857634e487b7160e01b600052602160045260246000fd5b021790555090505083836001600160a01b031686600001516001600160a01b03167fd8a9bd7d189c9404a6954761b159187af5546fe099af5e1cbd585f3d0d2e246d846040516116489190615a81565b60405180910390a45050505050565b6116618282613b16565b6000828152600160205260409020611679908261311b565b505050565b61168b6000610562610996565b6116d75760405162461bcd60e51b815260206004820152601b60248201527f4d61726b65743a206e6f742061206d6f64756c652061646d696e2e00000000006044820152606401610a57565b6007805460ff19168215159081179091556040519081527f56668abce4c06e28f52176150c07856e31ee073b9b62df62a5afbf1a22aec24c906020015b60405180910390a150565b6117298282613b43565b60008281526001602052604090206116799082613bdb565b6002805414156117935760405162461bcd60e51b815260206004820152601f60248201527f5265656e7472616e637947756172643a207265656e7472616e742063616c6c006044820152606401610a57565b6002805560006117a1610996565b6000858152600860208181526040808420815161018081018352815481526001808301546001600160a01b039081169583019590955260028301548516938201939093526003820154606082015260048201546080820152600582015460a0820152600682015460c0820152600782015490931660e0840152928301546101008301526009830154610120830152600a8301549495509293909261014084019160ff169081111561186257634e487b7160e01b600052602160045260246000fd5b600181111561188157634e487b7160e01b600052602160045260246000fd5b8152602001600a820160019054906101000a900460ff1660018111156118b757634e487b7160e01b600052602160045260246000fd5b60018111156118d657634e487b7160e01b600052602160045260246000fd5b815250509050428160a001511180156118f25750428160800151105b6119645760405162461bcd60e51b815260206004820152603160248201527f4d61726b65743a2063616e206f6e6c79206d616b65206f666665727320696e2060448201527f6c697374696e67206475726174696f6e2e0000000000000000000000000000006064820152608401610a57565b6001816101600151600181111561198b57634e487b7160e01b600052602160045260246000fd5b1415611a745760e08101516001600160a01b031673eeeeeeeeeeeeeeeeeeeeeeeeeeeeeeeeeeeeeeee146119e45760c08101516119c89084615c29565b8160c001518261010001516119dd9190615c29565b11156119fd565b348160c001518261010001516119fa9190615c29565b11155b611a6f5760405162461bcd60e51b815260206004820152602a60248201527f4d61726b65743a206d757374206f66666572206174206c65617374207265736560448201527f7276652070726963652e000000000000000000000000000000000000000000006064820152608401610a57565b611b1a565b60008161016001516001811115611a9b57634e487b7160e01b600052602160045260246000fd5b1415611b1a5760008160c0015111611b005760405162461bcd60e51b815260206004820152602260248201527f4d61726b65743a206e6f20746f6b656e73206c697374656420666f722073616c604482015261329760f11b6064820152608401610a57565b611b1a828260e001518686611b159190615c29565b613bf0565b600060018261016001516001811115611b4357634e487b7160e01b600052602160045260246000fd5b14611b5c57611b5782610140015186613ad1565b611b6f565b611b6f8261014001518360c00151613ad1565b604080516080810182528881526001600160a01b038616602082015291925060009190810160018561016001516001811115611bbb57634e487b7160e01b600052602160045260246000fd5b14611bc65783611bcc565b8460c001515b8152602090810187905260008981526009825260408082206001600160a01b038981168085529185529282902085518155938501516001850180546001600160a01b0319169190941617909255838101516002840155606084015160039093019290925590519192509088907f8c5f85f34fc60062c89de495fad3a4d025e187be1f2be348efb3c961580a0daa90611c679085908890615a90565b60405180910390a360018361016001516001811115611c9657634e487b7160e01b600052602160045260246000fd5b1415611ca657611ca68382613dac565b505060016002555050505050565b6000828152600160205260408120611ccc9083614337565b9392505050565b600280541415611d255760405162461bcd60e51b815260206004820152601f60248201527f5265656e7472616e637947756172643a207265656e7472616e742063616c6c006044820152606401610a57565b6002805581611d32610996565b6000828152600860205260409020600101546001600160a01b03908116911614611dad5760405162461bcd60e51b815260206004820152602660248201527f4d61726b65743a2063616c6c6572206973206e6f74206c697374696e6720637260448201526532b0ba37b91760d11b6064820152608401610a57565b60008381526009602081815260408084206001600160a01b03808816865290835281852082516080808201855282548252600180840154851683880152600280850154848801526003948501546060808601919091528d8b526008808a52888c20895161018081018b5281548152818601548a169b81019b909b52928301548816988a01989098529481015494880194909452600484015491870191909152600583015460a0870152600683015460c0870152600783015490931660e08601529281015461010085015293840154610120840152600a8401549194939161014084019160ff90911690811115611eb357634e487b7160e01b600052602160045260246000fd5b6001811115611ed257634e487b7160e01b600052602160045260246000fd5b8152602001600a820160019054906101000a900460ff166001811115611f0857634e487b7160e01b600052602160045260246000fd5b6001811115611f2757634e487b7160e01b600052602160045260246000fd5b905250905060008161016001516001811115611f5357634e487b7160e01b600052602160045260246000fd5b148015611f835750611f838160200151826040015183606001518560400151856101400151866101600151613669565b611fe85760405162461bcd60e51b815260206004820152603060248201527f4d61726b65743a206d757374206f776e20616e6420617070726f766520746f2060448201526f3a3930b739b332b9103a37b5b2b7399760811b6064820152608401610a57565b60408201516060830151600090612000908390615c29565b60006040868101828152606088018381528b8452600960209081528385206001600160a01b038d811687529082529390942089518155938901516001850180546001600160a01b03191691909416179092555160028301555160039091015560c0840180519192508391612075908390615c48565b9052506000878152600860208181526040928390208651815590860151600180830180546001600160a01b03199081166001600160a01b0394851617909155948801516002840180548716918416919091179055606088015160038401556080880151600484015560a0880151600584015560c0880151600684015560e0880151600784018054909616921691909117909355610100860151918101919091556101208501516009820155610140850151600a82018054879460ff1990911690838181111561215457634e487b7160e01b600052602160045260246000fd5b0217905550610160820151600a8201805461ff00191661010083600181111561218d57634e487b7160e01b600052602160045260246000fd5b02179055509050506121a586846020015183866132a7565b6121b58360200151878486613134565b8683602001516001600160a01b031684604001516001600160a01b03167f3ccc07b7cdeffeb0c32f26a7aa313391a34d485229012dcdc8f332c27e11d7dc898688604051612205939291906159e0565b60405180910390a4505060016002555050505050565b600480546040805163a217fddf60e01b815290516001600160a01b03909216926391d1485492849263a217fddf9281810192602092909190829003018186803b15801561226757600080fd5b505afa15801561227b573d6000803e3d6000fd5b505050506040513d601f19601f8201168201806040525081019061229f919061560e565b6122a7610996565b6040516001600160e01b031960e085901b16815260048101929092526001600160a01b0316602482015260440160206040518083038186803b1580156122ec57600080fd5b505afa158015612300573d6000803e3d6000fd5b505050506040513d601f19601f8201168201806040525081019061232491906155da565b6123965760405162461bcd60e51b815260206004820152603560248201527f4d61726b65743a206f6e6c7920612070726f746f636f6c2061646d696e20636160448201527f6e2063616c6c20746869732066756e6374696f6e2e00000000000000000000006064820152608401610a57565b6116796006838361517f565b60608167ffffffffffffffff8111156123cb57634e487b7160e01b600052604160045260246000fd5b6040519080825280602002602001820160405280156123fe57816020015b60608152602001906001900390816123e95790505b50905060005b828110156124ba5761247c3085858481811061243057634e487b7160e01b600052603260045260246000fd5b90506020028101906124429190615b51565b8080601f01602080910402602001604051908101604052809392919081815260200183838082843760009201919091525061434392505050565b82828151811061249c57634e487b7160e01b600052603260045260246000fd5b602002602001018190525080806124b290615cdd565b915050612404565b5092915050565b866124ca610996565b6000828152600860205260409020600101546001600160a01b039081169116146125455760405162461bcd60e51b815260206004820152602660248201527f4d61726b65743a2063616c6c6572206973206e6f74206c697374696e6720637260448201526532b0ba37b91760d11b6064820152608401610a57565b6000888152600860208181526040808420815161018081018352815481526001808301546001600160a01b039081169583019590955260028301548516938201939093526003820154606082015260048201546080820152600582015460a0820152600682015460c0820152600782015490931660e0840152928301546101008301526009830154610120830152600a83015491929161014084019160ff9091169081111561260457634e487b7160e01b600052602160045260246000fd5b600181111561262357634e487b7160e01b600052602160045260246000fd5b8152602001600a820160019054906101000a900460ff16600181111561265957634e487b7160e01b600052602160045260246000fd5b600181111561267857634e487b7160e01b600052602160045260246000fd5b815250509050600061268f8261014001518a613ad1565b9050600182610160015160018111156126b857634e487b7160e01b600052602160045260246000fd5b141561274857428260800151106127375760405162461bcd60e51b815260206004820152602860248201527f4d61726b65743a2063616e6e6f7420656469742061756374696f6e206166746560448201527f722073746172742e0000000000000000000000000000000000000000000000006064820152608401610a57565b610100820188905261012082018790525b6000826101600151600181111561276f57634e487b7160e01b600052602160045260246000fd5b1480156127805750888260c0015114155b15612816576127a982602001518360400151846060015184866101400151876101600151613669565b61280e5760405162461bcd60e51b815260206004820152603060248201527f4d61726b65743a206d757374206f776e20616e6420617070726f766520746f2060448201526f3a3930b739b332b9103a37b5b2b7399760811b6064820152608401610a57565b60c082018190525b6001600160a01b03861660e0830152841561283a576128358542615bf1565b612840565b81608001515b6080830152831561285a576128558442615bf1565b612860565b8160a001515b60a0830190815260008b8152600860208181526040928390208651815590860151600180830180546001600160a01b03199081166001600160a01b039485161790915594880151600284018054871691841691909117905560608801516003840155608088015160048401559451600583015560c0870151600683015560e0870151600783018054909516911617909255610100850151908201556101208401516009820155610140840151600a82018054869460ff1990911690838181111561293a57634e487b7160e01b600052602160045260246000fd5b0217905550610160820151600a8201805461ff00191661010083600181111561297357634e487b7160e01b600052602160045260246000fd5b02179055509050508982602001516001600160a01b03167facae26cf04d6f4427216f4e7321674e1e7bc77fd18a599e75114a1f46a70ca28846040516129b99190615a81565b60405180910390a350505050505050505050565b600680546129da90615ca2565b80601f0160208091040260200160405190810160405280929190818152602001828054612a0690615ca2565b8015612a535780601f10612a2857610100808354040283529160200191612a53565b820191906000526020600020905b815481529060010190602001808311612a3657829003601f168201915b505050505081565b60008181526001602052604081206109f190614368565b6117298282614372565b600280541415612ace5760405162461bcd60e51b815260206004820152601f60248201527f5265656e7472616e637947756172643a207265656e7472616e742063616c6c006044820152606401610a57565b60028080556000838152600860208181526040808420815161018081018352815481526001808301546001600160a01b0390811695830195909552968201548416928101929092526003810154606083015260048101546080830152600581015460a0830152600681015460c0830152600781015490921660e0820152918101546101008301526009810154610120830152600a81015492939192909161014084019160ff1690811115612b9257634e487b7160e01b600052602160045260246000fd5b6001811115612bb157634e487b7160e01b600052602160045260246000fd5b8152602001600a820160019054906101000a900460ff166001811115612be757634e487b7160e01b600052602160045260246000fd5b6001811115612c0657634e487b7160e01b600052602160045260246000fd5b90525090506000612c15610996565b9050612c2282828561439a565b828260c001818151612c349190615c48565b9052506000848152600860208181526040928390208551815590850151600180830180546001600160a01b03199081166001600160a01b0394851617909155948701516002840180548716918416919091179055606087015160038401556080870151600484015560a0870151600584015560c0870151600684015560e0870151600784018054909616921691909117909355610100850151918101919091556101208401516009820155610140840151600a82018054869460ff19909116908381811115612d1357634e487b7160e01b600052602160045260246000fd5b0217905550610160820151600a8201805461ff001916610100836001811115612d4c57634e487b7160e01b600052602160045260246000fd5b0217905550505061012082015115612d7e57612d7e81836020015185856101200151612d789190615c29565b856132a7565b612d8e8260200151828585613134565b816000015182602001516001600160a01b031683604001516001600160a01b03167f3ccc07b7cdeffeb0c32f26a7aa313391a34d485229012dcdc8f332c27e11d7dc848787604051612de2939291906159e0565b60405180910390a4505060016002555050565b612e026000610562610996565b612e4e5760405162461bcd60e51b815260206004820152601b60248201527f4d61726b65743a206e6f742061206d6f64756c652061646d696e2e00000000006044820152606401610a57565b6127108110612e9f5760405162461bcd60e51b815260206004820152601460248201527f4d61726b65743a20696e76616c6964204250532e0000000000000000000000006044820152606401610a57565b6007805468ffffffffffffffff00191661010067ffffffffffffffff8416908102919091179091556040519081527f1923ecef8dbc1cebea2768819f7df282b72fb6d62bf99da204590b9d5cac7a7b90602001611714565b606060068054612f0690615ca2565b80601f0160208091040260200160405190810160405280929190818152602001828054612f3290615ca2565b8015612f7f5780601f10612f5457610100808354040283529160200191612f7f565b820191906000526020600020905b815481529060010190602001808311612f6257829003601f168201915b5050505050905090565b612f966000610562610996565b612fe25760405162461bcd60e51b815260206004820152601b60248201527f4d61726b65743a206e6f742061206d6f64756c652061646d696e2e00000000006044820152606401610a57565b61271081106130335760405162461bcd60e51b815260206004820152601460248201527f4d61726b65743a20696e76616c6964204250532e0000000000000000000000006044820152606401610a57565b6007805467ffffffffffffffff838116600160881b027fffffffffffffff0000000000000000ffffffffffffffffffffffffffffffffff918616690100000000000000000002919091167fffffffffffffff00000000000000000000000000000000ffffffffffffffffff9092169190911717905560408051838152602081018390527f441ed6470e96704c3f8c9e70c209107078aab3f17311385e886081b91aa75088910160405180910390a15050565b6003546000906001600160a01b0316331415613108575060131936013560601c90565b503390565b613117828261455e565b5050565b6000611ccc836001600160a01b0384166145fd565b3390565b6000816101400151600181111561315b57634e487b7160e01b600052602160045260246000fd5b14156131f05760408082015160608301519151637921219560e11b81526001600160a01b038781166004830152868116602483015260448201939093526064810185905260a06084820152600060a482015291169063f242432a9060c401600060405180830381600087803b1580156131d357600080fd5b505af11580156131e7573d6000803e3d6000fd5b505050506132a1565b6001816101400151600181111561321757634e487b7160e01b600052602160045260246000fd5b14156132a15760408082015160608301519151635c46a7ef60e11b81526001600160a01b03878116600483015286811660248301526044820193909352608060648201526000608482015291169063b88d4fde9060a401600060405180830381600087803b15801561328857600080fd5b505af115801561329c573d6000803e3d6000fd5b505050505b50505050565b600754600090612710906132ca90610100900467ffffffffffffffff1685615c29565b6132d49190615c09565b60e08301516004805460405163f2aab4b360e01b815230928101929092529293506133669288916001600160a01b039091169063f2aab4b39060240160206040518083038186803b15801561332857600080fd5b505afa15801561333c573d6000803e3d6000fd5b505050506040513d601f19601f820116820180604052508101906133609190615383565b8461464c565b60006133728285615c48565b6040808501516060860151915163152a902d60e11b81529293506001600160a01b031691632a55205a916133b3918890600401918252602082015260400190565b604080518083038186803b1580156133ca57600080fd5b505afa9250505080156133fa575060408051601f3d908101601f191682019092526133f791810190615521565b60015b613403576134a7565b80156134a457856134148583615bf1565b11156134885760405162461bcd60e51b815260206004820152602b60248201527f4d61726b65743a20546f74616c206d61726b657420666565732065786365656460448201527f207468652070726963652e0000000000000000000000000000000000000000006064820152608401610a57565b6134928184615c48565b92506134a48560e0015189848461464c565b50505b6134b78360e0015187878461464c565b505050505050565b600580549060019060006134d38385615bf1565b9250508190555090565b6040516301ffc9a760e01b8152636cdb3d1360e11b60048201526000906001600160a01b038316906301ffc9a79060240160206040518083038186803b15801561352657600080fd5b505afa15801561353a573d6000803e3d6000fd5b505050506040513d601f19601f8201168201806040525081019061355e91906155da565b1561356b57506000919050565b6040516301ffc9a760e01b81526380ac58cd60e01b60048201526001600160a01b038316906301ffc9a79060240160206040518083038186803b1580156135b157600080fd5b505afa1580156135c5573d6000803e3d6000fd5b505050506040513d601f19601f820116820180604052508101906135e991906155da565b156135f657506001919050565b60405162461bcd60e51b815260206004820152602b60248201527f4d61726b65743a206d75737420696d706c656d656e742045524320313135352060448201527f6f7220455243203732312e0000000000000000000000000000000000000000006064820152608401610a57565b919050565b6000308184600181111561368d57634e487b7160e01b600052602160045260246000fd5b141561385657604051627eeac760e11b81526001600160a01b0389811660048301526024820188905286919089169062fdd58e9060440160206040518083038186803b1580156136dc57600080fd5b505afa1580156136f0573d6000803e3d6000fd5b505050506040513d601f19601f82011682018060405250810190613714919061560e565b1015801561379e575060405163e985e9c560e01b81526001600160a01b038981166004830152828116602483015288169063e985e9c59060440160206040518083038186803b15801561376657600080fd5b505afa15801561377a573d6000803e3d6000fd5b505050506040513d601f19601f8201168201806040525081019061379e91906155da565b91508180156137cc575060018360018111156137ca57634e487b7160e01b600052602160045260246000fd5b145b1561385157604051637921219560e11b81526001600160a01b0389811660048301528281166024830152604482018890526064820187905260a06084830152600060a483015288169063f242432a9060c401600060405180830381600087803b15801561383857600080fd5b505af115801561384c573d6000803e3d6000fd5b505050505b613ac6565b600184600181111561387857634e487b7160e01b600052602160045260246000fd5b1415613ac6576040516331a9108f60e11b8152600481018790526001600160a01b03808a169190891690636352211e9060240160206040518083038186803b1580156138c357600080fd5b505afa1580156138d7573d6000803e3d6000fd5b505050506040513d601f19601f820116820180604052508101906138fb9190615383565b6001600160a01b0316148015613a1a575060405163020604bf60e21b8152600481018790526001600160a01b03808316919089169063081812fc9060240160206040518083038186803b15801561395157600080fd5b505afa158015613965573d6000803e3d6000fd5b505050506040513d601f19601f820116820180604052508101906139899190615383565b6001600160a01b03161480613a1a575060405163e985e9c560e01b81526001600160a01b038981166004830152828116602483015288169063e985e9c59060440160206040518083038186803b1580156139e257600080fd5b505afa1580156139f6573d6000803e3d6000fd5b505050506040513d601f19601f82011682018060405250810190613a1a91906155da565b9150818015613a4857506001836001811115613a4657634e487b7160e01b600052602160045260246000fd5b145b15613ac657604051635c46a7ef60e11b81526001600160a01b038981166004830152828116602483015260448201889052608060648301526000608483015288169063b88d4fde9060a401600060405180830381600087803b158015613aad57600080fd5b505af1158015613ac1573d6000803e3d6000fd5b505050505b509695505050505050565b600081613ae0575060006109f1565b6001836001811115613b0257634e487b7160e01b600052602160045260246000fd5b14613b0d5781611ccc565b50600192915050565b600082815260208190526040902060010154613b3981613b34610996565b6148a4565b611679838361455e565b613b4b610996565b6001600160a01b0316816001600160a01b031614613bd15760405162461bcd60e51b815260206004820152602f60248201527f416363657373436f6e74726f6c3a2063616e206f6e6c792072656e6f756e636560448201527f20726f6c657320666f722073656c6600000000000000000000000000000000006064820152608401610a57565b6131178282614922565b6000611ccc836001600160a01b0384166149bf565b60006001600160a01b03831673eeeeeeeeeeeeeeeeeeeeeeeeeeeeeeeeeeeeeeee1415613c2c5781846001600160a01b03163110159050613d39565b6040516370a0823160e01b81526001600160a01b0385811660048301528391908516906370a082319060240160206040518083038186803b158015613c7057600080fd5b505afa158015613c84573d6000803e3d6000fd5b505050506040513d601f19601f82011682018060405250810190613ca8919061560e565b10158015613d365750604051636eb1769f60e11b81526001600160a01b03858116600483015230602483015283919085169063dd62ed3e9060440160206040518083038186803b158015613cfb57600080fd5b505afa158015613d0f573d6000803e3d6000fd5b505050506040513d601f19601f82011682018060405250810190613d33919061560e565b10155b90505b806132a15760405162461bcd60e51b815260206004820152603960248201527f4d61726b65743a206d757374206f776e20616e6420617070726f7665204d617260448201527f6b657420746f207472616e736665722063757272656e63792e000000000000006064820152608401610a57565b81516000908152600a6020908152604080832081516080810183528154815260018201546001600160a01b03169381019390935260028101549183018290526003015460608301819052919291613e039190615c29565b9050600083604001518460600151613e1b9190615c29565b9050613e278282614adc565b156143305760208084018051918601516001600160a01b031690526060808601519085015261012086015160009015801590613e7757508660c00151876101200151613e739190615c29565b8310155b905080156140b457428760a0018181525050600085604001818152505084600a6000896000015181526020019081526020016000206000820151816000015560208201518160010160006101000a8154816001600160a01b0302191690836001600160a01b0316021790555060408201518160020155606082015181600301559050508660086000896000015181526020019081526020016000206000820151816000015560208201518160010160006101000a8154816001600160a01b0302191690836001600160a01b0316021790555060408201518160020160006101000a8154816001600160a01b0302191690836001600160a01b03160217905550606082015181600301556080820151816004015560a0820151816005015560c0820151816006015560e08201518160070160006101000a8154816001600160a01b0302191690836001600160a01b031602179055506101008201518160080155610120820151816009015561014082015181600a0160006101000a81548160ff0219169083600181111561401a57634e487b7160e01b600052602160045260246000fd5b0217905550610160820151600a8201805461ff00191661010083600181111561405357634e487b7160e01b600052602160045260246000fd5b021790555050506020808701518851918901516040516001600160a01b03831693927ff595878d9676c74b23550f262f8b52dbe748a37173f297a78d0262234ab9b7a7926140a7929091908c908e90615983565b60405180910390a36142d2565b86516000908152600a602090815260409182902088518155908801516001820180546001600160a01b0319166001600160a01b03909216919091179055908701516002820155606087015160039091015560075460a0880151690100000000000000000090910467ffffffffffffffff1690614131904290615c48565b116142855760075460a088018051690100000000000000000090920467ffffffffffffffff1691614163908390615bf1565b90525086516000908152600860208181526040928390208a518155908a0151600180830180546001600160a01b03199081166001600160a01b0394851617909155948c0151600284018054871691841691909117905560608c0151600384015560808c0151600484015560a08c0151600584015560c08c0151600684015560e08c01516007840180549096169216919091179093556101008a0151918101919091556101208901516009820155610140890151600a820180548b9460ff1990911690838181111561424457634e487b7160e01b600052602160045260246000fd5b0217905550610160820151600a8201805461ff00191661010083600181111561427d57634e487b7160e01b600052602160045260246000fd5b021790555050505b85602001516001600160a01b031687600001517f0dc1caa56150efa4bf90d0556f512c86cb632c2b5c2b5ca6a517b5bc3acd1c83888a6040516142c9929190615a90565b60405180910390a35b6001600160a01b038216158015906142ea5750600084115b156142ff576142ff8760e0015130848761464c565b6143138760e001518760200151308661464c565b801561432d5761432d30876020015188604001518a613134565b50505b5050505050565b6000611ccc8383614b2f565b6060611ccc8383604051806060016040528060278152602001615d6960279139614b67565b60006109f1825490565b60008281526020819052604090206001015461439081613b34610996565b6116798383614922565b6143b4828460e0015185610120015184611b159190615c29565b6143dc8360200151846040015185606001518660c00151876101400151886101600151613669565b61444e5760405162461bcd60e51b815260206004820152602c60248201527f4d61726b65743a2063616e6e6f742062757920746f6b656e732066726f6d207460448201527f686973206c697374696e672e00000000000000000000000000000000000000006064820152608401610a57565b60008111801561446257508260c001518111155b6144d45760405162461bcd60e51b815260206004820152603160248201527f4d61726b65743a206d7573742062757920616e20617070726f7072696174652060448201527f616d6f756e74206f6620746f6b656e732e0000000000000000000000000000006064820152608401610a57565b8260a0015142111580156144ec575082608001514210155b6116795760405162461bcd60e51b815260206004820152603260248201527f4d61726b65743a207468652073616c652068617320656974686572206e6f742060448201527f73746172746564206f7220636c6f7365642e00000000000000000000000000006064820152608401610a57565b6000828152602081815260408083206001600160a01b038516845290915290205460ff16613117576000828152602081815260408083206001600160a01b03851684529091529020805460ff191660011790556145b9610996565b6001600160a01b0316816001600160a01b0316837f2f8788117e7eff1d82e926ec794901d17c78024a50270940304540a733656f0d60405160405180910390a45050565b6000818152600183016020526040812054614644575081546001818101845560008481526020808220909301849055845484825282860190935260409020919091556109f1565b5060006109f1565b6001600160a01b03841673eeeeeeeeeeeeeeeeeeeeeeeeeeeeeeeeeeeeeeee1415614898576001600160a01b03831630141561478f57604051632e1a7d4d60e01b8152600481018290527f00000000000000000000000000000000000000000000000000000000000000006001600160a01b031690632e1a7d4d90602401600060405180830381600087803b1580156146e457600080fd5b505af11580156146f8573d6000803e3d6000fd5b505050506147068282614c52565b61478a577f00000000000000000000000000000000000000000000000000000000000000006001600160a01b031663d0e30db0826040518263ffffffff1660e01b81526004016000604051808303818588803b15801561476557600080fd5b505af1158015614779573d6000803e3d6000fd5b505050505061478a84308484614cc9565b6132a1565b6001600160a01b03821630141561488e573481146148155760405162461bcd60e51b815260206004820152603560248201527f4d61726b65743a206e617469766520746f6b656e2076616c756520646f65732060448201527f6e6f74206d617463682062696420616d6f756e742e00000000000000000000006064820152608401610a57565b7f00000000000000000000000000000000000000000000000000000000000000006001600160a01b031663d0e30db0826040518263ffffffff1660e01b81526004016000604051808303818588803b15801561487057600080fd5b505af1158015614884573d6000803e3d6000fd5b50505050506132a1565b6147068282614c52565b6132a184848484614cc9565b6000828152602081815260408083206001600160a01b038516845290915290205460ff16613117576148e0816001600160a01b03166014614f57565b6148eb836020614f57565b6040516020016148fc929190615902565b60408051601f198184030181529082905262461bcd60e51b8252610a5791600401615a6e565b6000828152602081815260408083206001600160a01b038516845290915290205460ff1615613117576000828152602081815260408083206001600160a01b03851684529091529020805460ff1916905561497b610996565b6001600160a01b0316816001600160a01b0316837ff6391f5c32d9c69d2a47ea670b442974b53935d1edc7fd64eb21e047a839171b60405160405180910390a45050565b60008181526001830160205260408120548015614ad25760006149e3600183615c48565b85549091506000906149f790600190615c48565b9050818114614a78576000866000018281548110614a2557634e487b7160e01b600052603260045260246000fd5b9060005260206000200154905080876000018481548110614a5657634e487b7160e01b600052603260045260246000fd5b6000918252602080832090910192909255918252600188019052604090208390555b8554869080614a9757634e487b7160e01b600052603160045260246000fd5b6001900381819060005260206000200160009055905585600101600086815260200190815260200160002060009055600193505050506109f1565b60009150506109f1565b6000821580611ccc57508282118015611ccc5750600754600160881b900467ffffffffffffffff1683612710614b128286615c48565b614b1c9190615c29565b614b269190615c09565b10159392505050565b6000826000018281548110614b5457634e487b7160e01b600052603260045260246000fd5b9060005260206000200154905092915050565b6060833b614bdd5760405162461bcd60e51b815260206004820152602660248201527f416464726573733a2064656c65676174652063616c6c20746f206e6f6e2d636f60448201527f6e747261637400000000000000000000000000000000000000000000000000006064820152608401610a57565b600080856001600160a01b031685604051614bf891906158e6565b600060405180830381855af49150503d8060008114614c33576040519150601f19603f3d011682016040523d82523d6000602084013e614c38565b606091505b5091509150614c48828286615146565b9695505050505050565b60408051600080825260208201928390529182916001600160a01b038616918591614c7c916158e6565b60006040518083038185875af1925050503d8060008114614cb9576040519150601f19603f3d011682016040523d82523d6000602084013e614cbe565b606091505b509095945050505050565b6001600160a01b038316301415614d5c5760405163095ea7b360e01b8152306004820152602481018290526001600160a01b0385169063095ea7b390604401602060405180830381600087803b158015614d2257600080fd5b505af1158015614d36573d6000803e3d6000fd5b505050506040513d601f19601f82011682018060405250810190614d5a91906155da565b505b6040516370a0823160e01b81526001600160a01b038381166004830152600091908616906370a082319060240160206040518083038186803b158015614da157600080fd5b505afa158015614db5573d6000803e3d6000fd5b505050506040513d601f19601f82011682018060405250810190614dd9919061560e565b6040516323b872dd60e01b81526001600160a01b0386811660048301528581166024830152604482018590529192506000918716906323b872dd90606401602060405180830381600087803b158015614e3157600080fd5b505af1158015614e45573d6000803e3d6000fd5b505050506040513d601f19601f82011682018060405250810190614e6991906155da565b6040516370a0823160e01b81526001600160a01b0386811660048301529192506000918816906370a082319060240160206040518083038186803b158015614eb057600080fd5b505afa158015614ec4573d6000803e3d6000fd5b505050506040513d601f19601f82011682018060405250810190614ee8919061560e565b9050818015614eff5750614efc8484615bf1565b81145b61432d5760405162461bcd60e51b8152602060048201526024808201527f4d61726b65743a206661696c656420746f207472616e736665722063757272656044820152633731bc9760e11b6064820152608401610a57565b60606000614f66836002615c29565b614f71906002615bf1565b67ffffffffffffffff811115614f9757634e487b7160e01b600052604160045260246000fd5b6040519080825280601f01601f191660200182016040528015614fc1576020820181803683370190505b509050600360fc1b81600081518110614fea57634e487b7160e01b600052603260045260246000fd5b60200101906001600160f81b031916908160001a905350600f60fb1b8160018151811061502757634e487b7160e01b600052603260045260246000fd5b60200101906001600160f81b031916908160001a905350600061504b846002615c29565b615056906001615bf1565b90505b60018111156150f7577f303132333435363738396162636465660000000000000000000000000000000085600f16601081106150a557634e487b7160e01b600052603260045260246000fd5b1a60f81b8282815181106150c957634e487b7160e01b600052603260045260246000fd5b60200101906001600160f81b031916908160001a90535060049490941c936150f081615c8b565b9050615059565b508315611ccc5760405162461bcd60e51b815260206004820181905260248201527f537472696e67733a20686578206c656e67746820696e73756666696369656e746044820152606401610a57565b60608315615155575081611ccc565b8251156151655782518084602001fd5b8160405162461bcd60e51b8152600401610a579190615a6e565b82805461518b90615ca2565b90600052602060002090601f0160209004810192826151ad57600085556151f3565b82601f106151c65782800160ff198235161785556151f3565b828001600101855582156151f3579182015b828111156151f35782358255916020019190600101906151d8565b506151ff929150615203565b5090565b5b808211156151ff5760008155600101615204565b803561366481615d45565b600082601f830112615233578081fd5b8135602067ffffffffffffffff82111561524f5761524f615d0e565b8160051b61525e828201615bc0565b838152828101908684018388018501891015615278578687fd5b8693505b8584101561529a57803583526001939093019291840191840161527c565b50979650505050505050565b60008083601f8401126152b7578182fd5b50813567ffffffffffffffff8111156152ce578182fd5b6020830191508360208285010111156152e657600080fd5b9250929050565b600082601f8301126152fd578081fd5b813567ffffffffffffffff81111561531757615317615d0e565b61532a601f8201601f1916602001615bc0565b81815284602083860101111561533e578283fd5b816020850160208301379081016020019190915292915050565b80356002811061366457600080fd5b600060208284031215615378578081fd5b8135611ccc81615d45565b600060208284031215615394578081fd5b8151611ccc81615d45565b600080600080600060a086880312156153b6578081fd5b85356153c181615d45565b945060208601356153d181615d45565b9350604086013567ffffffffffffffff808211156153ed578283fd5b6153f989838a01615223565b9450606088013591508082111561540e578283fd5b61541a89838a01615223565b9350608088013591508082111561542f578283fd5b5061543c888289016152ed565b9150509295509295909350565b600080600080600060808688031215615460578081fd5b853561546b81615d45565b9450602086013561547b81615d45565b935060408601359250606086013567ffffffffffffffff81111561549d578182fd5b6154a9888289016152a6565b969995985093965092949392505050565b600080600080600060a086880312156154d1578081fd5b85356154dc81615d45565b945060208601356154ec81615d45565b93506040860135925060608601359150608086013567ffffffffffffffff811115615515578182fd5b61543c888289016152ed565b60008060408385031215615533578182fd5b825161553e81615d45565b6020939093015192949293505050565b60008060208385031215615560578182fd5b823567ffffffffffffffff80821115615577578384fd5b818501915085601f83011261558a578384fd5b813581811115615598578485fd5b8660208260051b85010111156155ac578485fd5b60209290920196919550909350505050565b6000602082840312156155cf578081fd5b8135611ccc81615d5a565b6000602082840312156155eb578081fd5b8151611ccc81615d5a565b600060208284031215615607578081fd5b5035919050565b60006020828403121561561f578081fd5b5051919050565b60008060408385031215615638578182fd5b82359150602083013561564a81615d45565b809150509250929050565b60008060408385031215615667578182fd5b50508035926020909101359150565b600060208284031215615687578081fd5b81356001600160e01b031981168114611ccc578182fd5b600080602083850312156156b0578182fd5b823567ffffffffffffffff8111156156c6578283fd5b6156d2858286016152a6565b90969095509350505050565b600061012082840312156156f0578081fd5b6156f8615b96565b61570183615218565b81526020830135602082015260408301356040820152606083013560608201526080830135608082015261573760a08401615218565b60a082015260c083013560c082015260e083013560e082015261010061575e818501615358565b908201529392505050565b60008060006060848603121561577d578081fd5b505081359360208301359350604090920135919050565b600080600080600080600060e0888a0312156157ae578485fd5b8735965060208801359550604088013594506060880135935060808801356157d581615d45565b9699959850939692959460a0840135945060c09093013592915050565b6000815180845261580a816020860160208601615c5f565b601f01601f19169290920160200192915050565b61582781615d24565b9052565b80518252602081015161584960208401826001600160a01b03169052565b50604081015161586460408401826001600160a01b03169052565b50606081015160608301526080810151608083015260a081015160a083015260c081015160c083015260e08101516158a760e08401826001600160a01b03169052565b5061010081810151908301526101208082015190830152610140808201516158d18285018261581e565b5050610160808201516132a18285018261581e565b600082516158f8818460208701615c5f565b9190910192915050565b7f416363657373436f6e74726f6c3a206163636f756e742000000000000000000081526000835161593a816017850160208801615c5f565b7f206973206d697373696e6720726f6c65200000000000000000000000000000006017918401918201528351615977816028840160208801615c5f565b01602801949350505050565b6001600160a01b0385811682528416602082015261024081016159d36040830185805182526001600160a01b03602082015116602083015260408101516040830152606081015160608301525050565b610a0060c083018461582b565b6001600160a01b0384168152602081018390526101c08101615a05604083018461582b565b949350505050565b6000602080830181845280855180835260408601915060408160051b8701019250838701855b82811015615a6157603f19888603018452615a4f8583516157f2565b94509285019290850190600101615a33565b5092979650505050505050565b602081526000611ccc60208301846157f2565b61018081016109f1828461582b565b825181526020808401516001600160a01b03169082015260408084015190820152606080840151908201526102008101611ccc608083018461582b565b6000610180820190508d82526001600160a01b03808e166020840152808d1660408401528b60608401528a60808401528960a08401528860c084015280881660e0840152508561010083015284610120830152615b2984615d24565b83610140830152615b3983615d24565b826101608301529d9c50505050505050505050505050565b6000808335601e19843603018112615b67578283fd5b83018035915067ffffffffffffffff821115615b81578283fd5b6020019150368190038213156152e657600080fd5b604051610120810167ffffffffffffffff81118282101715615bba57615bba615d0e565b60405290565b604051601f8201601f1916810167ffffffffffffffff81118282101715615be957615be9615d0e565b604052919050565b60008219821115615c0457615c04615cf8565b500190565b600082615c2457634e487b7160e01b81526012600452602481fd5b500490565b6000816000190483118215151615615c4357615c43615cf8565b500290565b600082821015615c5a57615c5a615cf8565b500390565b60005b83811015615c7a578181015183820152602001615c62565b838111156132a15750506000910152565b600081615c9a57615c9a615cf8565b506000190190565b600181811c90821680615cb657607f821691505b60208210811415615cd757634e487b7160e01b600052602260045260246000fd5b50919050565b6000600019821415615cf157615cf1615cf8565b5060010190565b634e487b7160e01b600052601160045260246000fd5b634e487b7160e01b600052604160045260246000fd5b60028110615d4257634e487b7160e01b600052602160045260246000fd5b50565b6001600160a01b0381168114615d4257600080fd5b8015158114615d4257600080fdfe416464726573733a206c6f772d6c6576656c2064656c65676174652063616c6c206661696c6564a164736f6c6343000804000a",
  "linkReferences": {},
  "deployedLinkReferences": {}
}