{
  "_format": "hh-sol-artifact-1",
  "contractName": "MarketWithAuction",
  "sourceName": "contracts/v2/MarketWithAuction.sol",
  "abi": [
    {
      "inputs": [
        {
          "internalType": "address payable",
          "name": "_controlCenter",
          "type": "address"
        },
        {
          "internalType": "address",
          "name": "_trustedForwarder",
          "type": "address"
        },
        {
          "internalType": "address",
          "name": "_nativeTokenWrapper",
          "type": "address"
        },
        {
          "internalType": "string",
          "name": "_uri",
          "type": "string"
        },
        {
          "internalType": "uint256",
          "name": "_marketFeeBps",
          "type": "uint256"
        }
      ],
      "stateMutability": "nonpayable",
      "type": "constructor"
    },
    {
      "anonymous": false,
      "inputs": [
        {
          "indexed": false,
          "internalType": "uint256",
          "name": "timeBuffer",
          "type": "uint256"
        },
        {
          "indexed": false,
          "internalType": "uint256",
          "name": "bidBufferBps",
          "type": "uint256"
        }
      ],
      "name": "AuctionBuffersUpdated",
      "type": "event"
    },
    {
      "anonymous": false,
      "inputs": [
        {
          "indexed": true,
          "internalType": "uint256",
          "name": "listingId",
          "type": "uint256"
        },
        {
          "indexed": true,
          "internalType": "address",
          "name": "auctionCreator",
          "type": "address"
        },
        {
          "components": [
            {
              "internalType": "uint256",
              "name": "listingId",
              "type": "uint256"
            },
            {
              "internalType": "address",
              "name": "tokenOwner",
              "type": "address"
            },
            {
              "internalType": "address",
              "name": "assetContract",
              "type": "address"
            },
            {
              "internalType": "uint256",
              "name": "tokenId",
              "type": "uint256"
            },
            {
              "internalType": "uint256",
              "name": "startTime",
              "type": "uint256"
            },
            {
              "internalType": "uint256",
              "name": "endTime",
              "type": "uint256"
            },
            {
              "internalType": "uint256",
              "name": "quantity",
              "type": "uint256"
            },
            {
              "internalType": "address",
              "name": "currency",
              "type": "address"
            },
            {
              "internalType": "uint256",
              "name": "reservePricePerToken",
              "type": "uint256"
            },
            {
              "internalType": "uint256",
              "name": "buyoutPricePerToken",
              "type": "uint256"
            },
            {
              "internalType": "enum IMarket.TokenType",
              "name": "tokenType",
              "type": "uint8"
            },
            {
              "internalType": "enum IMarket.ListingType",
              "name": "listingType",
              "type": "uint8"
            }
          ],
          "indexed": false,
          "internalType": "struct IMarket.Listing",
          "name": "listing",
          "type": "tuple"
        }
      ],
      "name": "AuctionCanceled",
      "type": "event"
    },
    {
      "anonymous": false,
      "inputs": [
        {
          "indexed": true,
          "internalType": "uint256",
          "name": "listingId",
          "type": "uint256"
        },
        {
          "indexed": true,
          "internalType": "address",
          "name": "closer",
          "type": "address"
        },
        {
          "indexed": false,
          "internalType": "address",
          "name": "auctionCreator",
          "type": "address"
        },
        {
          "indexed": false,
          "internalType": "address",
          "name": "winningBidder",
          "type": "address"
        },
        {
          "components": [
            {
              "internalType": "uint256",
              "name": "listingId",
              "type": "uint256"
            },
            {
              "internalType": "address",
              "name": "offeror",
              "type": "address"
            },
            {
              "internalType": "uint256",
              "name": "quantityWanted",
              "type": "uint256"
            },
            {
              "internalType": "uint256",
              "name": "pricePerToken",
              "type": "uint256"
            }
          ],
          "indexed": false,
          "internalType": "struct IMarket.Offer",
          "name": "winningBid",
          "type": "tuple"
        },
        {
          "components": [
            {
              "internalType": "uint256",
              "name": "listingId",
              "type": "uint256"
            },
            {
              "internalType": "address",
              "name": "tokenOwner",
              "type": "address"
            },
            {
              "internalType": "address",
              "name": "assetContract",
              "type": "address"
            },
            {
              "internalType": "uint256",
              "name": "tokenId",
              "type": "uint256"
            },
            {
              "internalType": "uint256",
              "name": "startTime",
              "type": "uint256"
            },
            {
              "internalType": "uint256",
              "name": "endTime",
              "type": "uint256"
            },
            {
              "internalType": "uint256",
              "name": "quantity",
              "type": "uint256"
            },
            {
              "internalType": "address",
              "name": "currency",
              "type": "address"
            },
            {
              "internalType": "uint256",
              "name": "reservePricePerToken",
              "type": "uint256"
            },
            {
              "internalType": "uint256",
              "name": "buyoutPricePerToken",
              "type": "uint256"
            },
            {
              "internalType": "enum IMarket.TokenType",
              "name": "tokenType",
              "type": "uint8"
            },
            {
              "internalType": "enum IMarket.ListingType",
              "name": "listingType",
              "type": "uint8"
            }
          ],
          "indexed": false,
          "internalType": "struct IMarket.Listing",
          "name": "listing",
          "type": "tuple"
        }
      ],
      "name": "AuctionClosed",
      "type": "event"
    },
    {
      "anonymous": false,
      "inputs": [
        {
          "indexed": false,
          "internalType": "address",
          "name": "from",
          "type": "address"
        },
        {
          "indexed": false,
          "internalType": "uint256",
          "name": "amount",
          "type": "uint256"
        }
      ],
      "name": "EtherReceived",
      "type": "event"
    },
    {
      "anonymous": false,
      "inputs": [
        {
          "indexed": true,
          "internalType": "address",
          "name": "listingCreator",
          "type": "address"
        },
        {
          "indexed": true,
          "internalType": "uint256",
          "name": "listingId",
          "type": "uint256"
        },
        {
          "components": [
            {
              "internalType": "uint256",
              "name": "listingId",
              "type": "uint256"
            },
            {
              "internalType": "address",
              "name": "tokenOwner",
              "type": "address"
            },
            {
              "internalType": "address",
              "name": "assetContract",
              "type": "address"
            },
            {
              "internalType": "uint256",
              "name": "tokenId",
              "type": "uint256"
            },
            {
              "internalType": "uint256",
              "name": "startTime",
              "type": "uint256"
            },
            {
              "internalType": "uint256",
              "name": "endTime",
              "type": "uint256"
            },
            {
              "internalType": "uint256",
              "name": "quantity",
              "type": "uint256"
            },
            {
              "internalType": "address",
              "name": "currency",
              "type": "address"
            },
            {
              "internalType": "uint256",
              "name": "reservePricePerToken",
              "type": "uint256"
            },
            {
              "internalType": "uint256",
              "name": "buyoutPricePerToken",
              "type": "uint256"
            },
            {
              "internalType": "enum IMarket.TokenType",
              "name": "tokenType",
              "type": "uint8"
            },
            {
              "internalType": "enum IMarket.ListingType",
              "name": "listingType",
              "type": "uint8"
            }
          ],
          "indexed": false,
          "internalType": "struct IMarket.Listing",
          "name": "listing",
          "type": "tuple"
        }
      ],
      "name": "ListingUpdate",
      "type": "event"
    },
    {
      "anonymous": false,
      "inputs": [
        {
          "indexed": false,
          "internalType": "uint64",
          "name": "newFee",
          "type": "uint64"
        }
      ],
      "name": "MarketFeeUpdate",
      "type": "event"
    },
    {
      "anonymous": false,
      "inputs": [
        {
          "indexed": true,
          "internalType": "uint256",
          "name": "listingId",
          "type": "uint256"
        },
        {
          "indexed": true,
          "internalType": "address",
          "name": "bidder",
          "type": "address"
        },
        {
          "components": [
            {
              "internalType": "uint256",
              "name": "listingId",
              "type": "uint256"
            },
            {
              "internalType": "address",
              "name": "offeror",
              "type": "address"
            },
            {
              "internalType": "uint256",
              "name": "quantityWanted",
              "type": "uint256"
            },
            {
              "internalType": "uint256",
              "name": "pricePerToken",
              "type": "uint256"
            }
          ],
          "indexed": false,
          "internalType": "struct IMarket.Offer",
          "name": "bid",
          "type": "tuple"
        },
        {
          "components": [
            {
              "internalType": "uint256",
              "name": "listingId",
              "type": "uint256"
            },
            {
              "internalType": "address",
              "name": "tokenOwner",
              "type": "address"
            },
            {
              "internalType": "address",
              "name": "assetContract",
              "type": "address"
            },
            {
              "internalType": "uint256",
              "name": "tokenId",
              "type": "uint256"
            },
            {
              "internalType": "uint256",
              "name": "startTime",
              "type": "uint256"
            },
            {
              "internalType": "uint256",
              "name": "endTime",
              "type": "uint256"
            },
            {
              "internalType": "uint256",
              "name": "quantity",
              "type": "uint256"
            },
            {
              "internalType": "address",
              "name": "currency",
              "type": "address"
            },
            {
              "internalType": "uint256",
              "name": "reservePricePerToken",
              "type": "uint256"
            },
            {
              "internalType": "uint256",
              "name": "buyoutPricePerToken",
              "type": "uint256"
            },
            {
              "internalType": "enum IMarket.TokenType",
              "name": "tokenType",
              "type": "uint8"
            },
            {
              "internalType": "enum IMarket.ListingType",
              "name": "listingType",
              "type": "uint8"
            }
          ],
          "indexed": false,
          "internalType": "struct IMarket.Listing",
          "name": "listing",
          "type": "tuple"
        }
      ],
      "name": "NewBid",
      "type": "event"
    },
    {
      "anonymous": false,
      "inputs": [
        {
          "indexed": true,
          "internalType": "address",
          "name": "assetContract",
          "type": "address"
        },
        {
          "indexed": true,
          "internalType": "address",
          "name": "seller",
          "type": "address"
        },
        {
          "indexed": true,
          "internalType": "uint256",
          "name": "listingId",
          "type": "uint256"
        },
        {
          "indexed": false,
          "internalType": "address",
          "name": "buyer",
          "type": "address"
        },
        {
          "indexed": false,
          "internalType": "uint256",
          "name": "quantity",
          "type": "uint256"
        },
        {
          "components": [
            {
              "internalType": "uint256",
              "name": "listingId",
              "type": "uint256"
            },
            {
              "internalType": "address",
              "name": "tokenOwner",
              "type": "address"
            },
            {
              "internalType": "address",
              "name": "assetContract",
              "type": "address"
            },
            {
              "internalType": "uint256",
              "name": "tokenId",
              "type": "uint256"
            },
            {
              "internalType": "uint256",
              "name": "startTime",
              "type": "uint256"
            },
            {
              "internalType": "uint256",
              "name": "endTime",
              "type": "uint256"
            },
            {
              "internalType": "uint256",
              "name": "quantity",
              "type": "uint256"
            },
            {
              "internalType": "address",
              "name": "currency",
              "type": "address"
            },
            {
              "internalType": "uint256",
              "name": "reservePricePerToken",
              "type": "uint256"
            },
            {
              "internalType": "uint256",
              "name": "buyoutPricePerToken",
              "type": "uint256"
            },
            {
              "internalType": "enum IMarket.TokenType",
              "name": "tokenType",
              "type": "uint8"
            },
            {
              "internalType": "enum IMarket.ListingType",
              "name": "listingType",
              "type": "uint8"
            }
          ],
          "indexed": false,
          "internalType": "struct IMarket.Listing",
          "name": "listing",
          "type": "tuple"
        }
      ],
      "name": "NewDirectSale",
      "type": "event"
    },
    {
      "anonymous": false,
      "inputs": [
        {
          "indexed": true,
          "internalType": "address",
          "name": "assetContract",
          "type": "address"
        },
        {
          "indexed": true,
          "internalType": "address",
          "name": "seller",
          "type": "address"
        },
        {
          "indexed": true,
          "internalType": "uint256",
          "name": "listingId",
          "type": "uint256"
        },
        {
          "components": [
            {
              "internalType": "uint256",
              "name": "listingId",
              "type": "uint256"
            },
            {
              "internalType": "address",
              "name": "tokenOwner",
              "type": "address"
            },
            {
              "internalType": "address",
              "name": "assetContract",
              "type": "address"
            },
            {
              "internalType": "uint256",
              "name": "tokenId",
              "type": "uint256"
            },
            {
              "internalType": "uint256",
              "name": "startTime",
              "type": "uint256"
            },
            {
              "internalType": "uint256",
              "name": "endTime",
              "type": "uint256"
            },
            {
              "internalType": "uint256",
              "name": "quantity",
              "type": "uint256"
            },
            {
              "internalType": "address",
              "name": "currency",
              "type": "address"
            },
            {
              "internalType": "uint256",
              "name": "reservePricePerToken",
              "type": "uint256"
            },
            {
              "internalType": "uint256",
              "name": "buyoutPricePerToken",
              "type": "uint256"
            },
            {
              "internalType": "enum IMarket.TokenType",
              "name": "tokenType",
              "type": "uint8"
            },
            {
              "internalType": "enum IMarket.ListingType",
              "name": "listingType",
              "type": "uint8"
            }
          ],
          "indexed": false,
          "internalType": "struct IMarket.Listing",
          "name": "listing",
          "type": "tuple"
        }
      ],
      "name": "NewListing",
      "type": "event"
    },
    {
      "anonymous": false,
      "inputs": [
        {
          "indexed": true,
          "internalType": "uint256",
          "name": "listingId",
          "type": "uint256"
        },
        {
          "indexed": true,
          "internalType": "address",
          "name": "offeror",
          "type": "address"
        },
        {
          "components": [
            {
              "internalType": "uint256",
              "name": "listingId",
              "type": "uint256"
            },
            {
              "internalType": "address",
              "name": "offeror",
              "type": "address"
            },
            {
              "internalType": "uint256",
              "name": "quantityWanted",
              "type": "uint256"
            },
            {
              "internalType": "uint256",
              "name": "pricePerToken",
              "type": "uint256"
            }
          ],
          "indexed": false,
          "internalType": "struct IMarket.Offer",
          "name": "offer",
          "type": "tuple"
        },
        {
          "components": [
            {
              "internalType": "uint256",
              "name": "listingId",
              "type": "uint256"
            },
            {
              "internalType": "address",
              "name": "tokenOwner",
              "type": "address"
            },
            {
              "internalType": "address",
              "name": "assetContract",
              "type": "address"
            },
            {
              "internalType": "uint256",
              "name": "tokenId",
              "type": "uint256"
            },
            {
              "internalType": "uint256",
              "name": "startTime",
              "type": "uint256"
            },
            {
              "internalType": "uint256",
              "name": "endTime",
              "type": "uint256"
            },
            {
              "internalType": "uint256",
              "name": "quantity",
              "type": "uint256"
            },
            {
              "internalType": "address",
              "name": "currency",
              "type": "address"
            },
            {
              "internalType": "uint256",
              "name": "reservePricePerToken",
              "type": "uint256"
            },
            {
              "internalType": "uint256",
              "name": "buyoutPricePerToken",
              "type": "uint256"
            },
            {
              "internalType": "enum IMarket.TokenType",
              "name": "tokenType",
              "type": "uint8"
            },
            {
              "internalType": "enum IMarket.ListingType",
              "name": "listingType",
              "type": "uint8"
            }
          ],
          "indexed": false,
          "internalType": "struct IMarket.Listing",
          "name": "listing",
          "type": "tuple"
        }
      ],
      "name": "NewOffer",
      "type": "event"
    },
    {
      "anonymous": false,
      "inputs": [
        {
          "indexed": false,
          "internalType": "bool",
          "name": "restricted",
          "type": "bool"
        }
      ],
      "name": "RestrictedListerRoleUpdated",
      "type": "event"
    },
    {
      "anonymous": false,
      "inputs": [
        {
          "indexed": true,
          "internalType": "bytes32",
          "name": "role",
          "type": "bytes32"
        },
        {
          "indexed": true,
          "internalType": "bytes32",
          "name": "previousAdminRole",
          "type": "bytes32"
        },
        {
          "indexed": true,
          "internalType": "bytes32",
          "name": "newAdminRole",
          "type": "bytes32"
        }
      ],
      "name": "RoleAdminChanged",
      "type": "event"
    },
    {
      "anonymous": false,
      "inputs": [
        {
          "indexed": true,
          "internalType": "bytes32",
          "name": "role",
          "type": "bytes32"
        },
        {
          "indexed": true,
          "internalType": "address",
          "name": "account",
          "type": "address"
        },
        {
          "indexed": true,
          "internalType": "address",
          "name": "sender",
          "type": "address"
        }
      ],
      "name": "RoleGranted",
      "type": "event"
    },
    {
      "anonymous": false,
      "inputs": [
        {
          "indexed": true,
          "internalType": "bytes32",
          "name": "role",
          "type": "bytes32"
        },
        {
          "indexed": true,
          "internalType": "address",
          "name": "account",
          "type": "address"
        },
        {
          "indexed": true,
          "internalType": "address",
          "name": "sender",
          "type": "address"
        }
      ],
      "name": "RoleRevoked",
      "type": "event"
    },
    {
      "inputs": [],
      "name": "DEFAULT_ADMIN_ROLE",
      "outputs": [
        {
          "internalType": "bytes32",
          "name": "",
          "type": "bytes32"
        }
      ],
      "stateMutability": "view",
      "type": "function"
    },
    {
      "inputs": [],
      "name": "LISTER_ROLE",
      "outputs": [
        {
          "internalType": "bytes32",
          "name": "",
          "type": "bytes32"
        }
      ],
      "stateMutability": "view",
      "type": "function"
    },
    {
      "inputs": [],
      "name": "MAX_BPS",
      "outputs": [
        {
          "internalType": "uint64",
          "name": "",
          "type": "uint64"
        }
      ],
      "stateMutability": "view",
      "type": "function"
    },
    {
      "inputs": [],
      "name": "_contractURI",
      "outputs": [
        {
          "internalType": "string",
          "name": "",
          "type": "string"
        }
      ],
      "stateMutability": "view",
      "type": "function"
    },
    {
      "inputs": [
        {
          "internalType": "uint256",
          "name": "_listingId",
          "type": "uint256"
        },
        {
          "internalType": "address",
          "name": "offeror",
          "type": "address"
        }
      ],
      "name": "acceptOffer",
      "outputs": [],
      "stateMutability": "nonpayable",
      "type": "function"
    },
    {
      "inputs": [],
      "name": "bidBufferBps",
      "outputs": [
        {
          "internalType": "uint64",
          "name": "",
          "type": "uint64"
        }
      ],
      "stateMutability": "view",
      "type": "function"
    },
    {
      "inputs": [
        {
          "internalType": "uint256",
          "name": "_listingId",
          "type": "uint256"
        },
        {
          "internalType": "uint256",
          "name": "_quantityToBuy",
          "type": "uint256"
        }
      ],
      "name": "buy",
      "outputs": [],
      "stateMutability": "nonpayable",
      "type": "function"
    },
    {
      "inputs": [
        {
          "internalType": "uint256",
          "name": "_listingId",
          "type": "uint256"
        }
      ],
      "name": "closeAuction",
      "outputs": [],
      "stateMutability": "nonpayable",
      "type": "function"
    },
    {
      "inputs": [],
      "name": "contractURI",
      "outputs": [
        {
          "internalType": "string",
          "name": "",
          "type": "string"
        }
      ],
      "stateMutability": "view",
      "type": "function"
    },
    {
      "inputs": [
        {
          "components": [
            {
              "internalType": "address",
              "name": "assetContract",
              "type": "address"
            },
            {
              "internalType": "uint256",
              "name": "tokenId",
              "type": "uint256"
            },
            {
              "internalType": "uint256",
              "name": "secondsUntilStartTime",
              "type": "uint256"
            },
            {
              "internalType": "uint256",
              "name": "secondsUntilEndTime",
              "type": "uint256"
            },
            {
              "internalType": "uint256",
              "name": "quantityToList",
              "type": "uint256"
            },
            {
              "internalType": "address",
              "name": "currencyToAccept",
              "type": "address"
            },
            {
              "internalType": "uint256",
              "name": "reservePricePerToken",
              "type": "uint256"
            },
            {
              "internalType": "uint256",
              "name": "buyoutPricePerToken",
              "type": "uint256"
            },
            {
              "internalType": "enum IMarket.ListingType",
              "name": "listingType",
              "type": "uint8"
            }
          ],
          "internalType": "struct IMarket.ListingParameters",
          "name": "_params",
          "type": "tuple"
        }
      ],
      "name": "createListing",
      "outputs": [],
      "stateMutability": "nonpayable",
      "type": "function"
    },
    {
      "inputs": [
        {
          "internalType": "uint256",
          "name": "_listingId",
          "type": "uint256"
        },
        {
          "internalType": "uint256",
          "name": "_quantityToList",
          "type": "uint256"
        },
        {
          "internalType": "uint256",
          "name": "_reservePricePerToken",
          "type": "uint256"
        },
        {
          "internalType": "uint256",
          "name": "_buyoutPricePerToken",
          "type": "uint256"
        },
        {
          "internalType": "address",
          "name": "_currencyToAccept",
          "type": "address"
        },
        {
          "internalType": "uint256",
          "name": "_secondsUntilStartTime",
          "type": "uint256"
        },
        {
          "internalType": "uint256",
          "name": "_secondsUntilEndTime",
          "type": "uint256"
        }
      ],
      "name": "editListingParametrs",
      "outputs": [],
      "stateMutability": "nonpayable",
      "type": "function"
    },
    {
      "inputs": [
        {
          "internalType": "bytes32",
          "name": "role",
          "type": "bytes32"
        }
      ],
      "name": "getRoleAdmin",
      "outputs": [
        {
          "internalType": "bytes32",
          "name": "",
          "type": "bytes32"
        }
      ],
      "stateMutability": "view",
      "type": "function"
    },
    {
      "inputs": [
        {
          "internalType": "bytes32",
          "name": "role",
          "type": "bytes32"
        },
        {
          "internalType": "uint256",
          "name": "index",
          "type": "uint256"
        }
      ],
      "name": "getRoleMember",
      "outputs": [
        {
          "internalType": "address",
          "name": "",
          "type": "address"
        }
      ],
      "stateMutability": "view",
      "type": "function"
    },
    {
      "inputs": [
        {
          "internalType": "bytes32",
          "name": "role",
          "type": "bytes32"
        }
      ],
      "name": "getRoleMemberCount",
      "outputs": [
        {
          "internalType": "uint256",
          "name": "",
          "type": "uint256"
        }
      ],
      "stateMutability": "view",
      "type": "function"
    },
    {
      "inputs": [
        {
          "internalType": "bytes32",
          "name": "role",
          "type": "bytes32"
        },
        {
          "internalType": "address",
          "name": "account",
          "type": "address"
        }
      ],
      "name": "grantRole",
      "outputs": [],
      "stateMutability": "nonpayable",
      "type": "function"
    },
    {
      "inputs": [
        {
          "internalType": "bytes32",
          "name": "role",
          "type": "bytes32"
        },
        {
          "internalType": "address",
          "name": "account",
          "type": "address"
        }
      ],
      "name": "hasRole",
      "outputs": [
        {
          "internalType": "bool",
          "name": "",
          "type": "bool"
        }
      ],
      "stateMutability": "view",
      "type": "function"
    },
    {
      "inputs": [
        {
          "internalType": "address",
          "name": "forwarder",
          "type": "address"
        }
      ],
      "name": "isTrustedForwarder",
      "outputs": [
        {
          "internalType": "bool",
          "name": "",
          "type": "bool"
        }
      ],
      "stateMutability": "view",
      "type": "function"
    },
    {
      "inputs": [
        {
          "internalType": "uint256",
          "name": "",
          "type": "uint256"
        }
      ],
      "name": "listings",
      "outputs": [
        {
          "internalType": "uint256",
          "name": "listingId",
          "type": "uint256"
        },
        {
          "internalType": "address",
          "name": "tokenOwner",
          "type": "address"
        },
        {
          "internalType": "address",
          "name": "assetContract",
          "type": "address"
        },
        {
          "internalType": "uint256",
          "name": "tokenId",
          "type": "uint256"
        },
        {
          "internalType": "uint256",
          "name": "startTime",
          "type": "uint256"
        },
        {
          "internalType": "uint256",
          "name": "endTime",
          "type": "uint256"
        },
        {
          "internalType": "uint256",
          "name": "quantity",
          "type": "uint256"
        },
        {
          "internalType": "address",
          "name": "currency",
          "type": "address"
        },
        {
          "internalType": "uint256",
          "name": "reservePricePerToken",
          "type": "uint256"
        },
        {
          "internalType": "uint256",
          "name": "buyoutPricePerToken",
          "type": "uint256"
        },
        {
          "internalType": "enum IMarket.TokenType",
          "name": "tokenType",
          "type": "uint8"
        },
        {
          "internalType": "enum IMarket.ListingType",
          "name": "listingType",
          "type": "uint8"
        }
      ],
      "stateMutability": "view",
      "type": "function"
    },
    {
      "inputs": [],
      "name": "marketFeeBps",
      "outputs": [
        {
          "internalType": "uint64",
          "name": "",
          "type": "uint64"
        }
      ],
      "stateMutability": "view",
      "type": "function"
    },
    {
      "inputs": [
        {
          "internalType": "bytes[]",
          "name": "data",
          "type": "bytes[]"
        }
      ],
      "name": "multicall",
      "outputs": [
        {
          "internalType": "bytes[]",
          "name": "results",
          "type": "bytes[]"
        }
      ],
      "stateMutability": "nonpayable",
      "type": "function"
    },
    {
      "inputs": [],
      "name": "nativeToken",
      "outputs": [
        {
          "internalType": "address",
          "name": "",
          "type": "address"
        }
      ],
      "stateMutability": "view",
      "type": "function"
    },
    {
      "inputs": [],
      "name": "nativeTokenWrapper",
      "outputs": [
        {
          "internalType": "address",
          "name": "",
          "type": "address"
        }
      ],
      "stateMutability": "view",
      "type": "function"
    },
    {
      "inputs": [
        {
          "internalType": "uint256",
          "name": "_listingId",
          "type": "uint256"
        },
        {
          "internalType": "uint256",
          "name": "_quantityWanted",
          "type": "uint256"
        },
        {
          "internalType": "uint256",
          "name": "_pricePerToken",
          "type": "uint256"
        }
      ],
      "name": "offer",
      "outputs": [],
      "stateMutability": "payable",
      "type": "function"
    },
    {
      "inputs": [
        {
          "internalType": "uint256",
          "name": "",
          "type": "uint256"
        },
        {
          "internalType": "address",
          "name": "",
          "type": "address"
        }
      ],
      "name": "offers",
      "outputs": [
        {
          "internalType": "uint256",
          "name": "listingId",
          "type": "uint256"
        },
        {
          "internalType": "address",
          "name": "offeror",
          "type": "address"
        },
        {
          "internalType": "uint256",
          "name": "quantityWanted",
          "type": "uint256"
        },
        {
          "internalType": "uint256",
          "name": "pricePerToken",
          "type": "uint256"
        }
      ],
      "stateMutability": "view",
      "type": "function"
    },
    {
      "inputs": [
        {
          "internalType": "address",
          "name": "",
          "type": "address"
        },
        {
          "internalType": "address",
          "name": "",
          "type": "address"
        },
        {
          "internalType": "uint256[]",
          "name": "",
          "type": "uint256[]"
        },
        {
          "internalType": "uint256[]",
          "name": "",
          "type": "uint256[]"
        },
        {
          "internalType": "bytes",
          "name": "",
          "type": "bytes"
        }
      ],
      "name": "onERC1155BatchReceived",
      "outputs": [
        {
          "internalType": "bytes4",
          "name": "",
          "type": "bytes4"
        }
      ],
      "stateMutability": "nonpayable",
      "type": "function"
    },
    {
      "inputs": [
        {
          "internalType": "address",
          "name": "",
          "type": "address"
        },
        {
          "internalType": "address",
          "name": "",
          "type": "address"
        },
        {
          "internalType": "uint256",
          "name": "",
          "type": "uint256"
        },
        {
          "internalType": "uint256",
          "name": "",
          "type": "uint256"
        },
        {
          "internalType": "bytes",
          "name": "",
          "type": "bytes"
        }
      ],
      "name": "onERC1155Received",
      "outputs": [
        {
          "internalType": "bytes4",
          "name": "",
          "type": "bytes4"
        }
      ],
      "stateMutability": "nonpayable",
      "type": "function"
    },
    {
      "inputs": [
        {
          "internalType": "address",
          "name": "",
          "type": "address"
        },
        {
          "internalType": "address",
          "name": "",
          "type": "address"
        },
        {
          "internalType": "uint256",
          "name": "",
          "type": "uint256"
        },
        {
          "internalType": "bytes",
          "name": "",
          "type": "bytes"
        }
      ],
      "name": "onERC721Received",
      "outputs": [
        {
          "internalType": "bytes4",
          "name": "",
          "type": "bytes4"
        }
      ],
      "stateMutability": "pure",
      "type": "function"
    },
    {
      "inputs": [
        {
          "internalType": "bytes32",
          "name": "role",
          "type": "bytes32"
        },
        {
          "internalType": "address",
          "name": "account",
          "type": "address"
        }
      ],
      "name": "renounceRole",
      "outputs": [],
      "stateMutability": "nonpayable",
      "type": "function"
    },
    {
      "inputs": [],
      "name": "restrictedListerRoleOnly",
      "outputs": [
        {
          "internalType": "bool",
          "name": "",
          "type": "bool"
        }
      ],
      "stateMutability": "view",
      "type": "function"
    },
    {
      "inputs": [
        {
          "internalType": "bytes32",
          "name": "role",
          "type": "bytes32"
        },
        {
          "internalType": "address",
          "name": "account",
          "type": "address"
        }
      ],
      "name": "revokeRole",
      "outputs": [],
      "stateMutability": "nonpayable",
      "type": "function"
    },
    {
      "inputs": [
        {
          "internalType": "uint256",
          "name": "_timeBuffer",
          "type": "uint256"
        },
        {
          "internalType": "uint256",
          "name": "_bidBufferBps",
          "type": "uint256"
        }
      ],
      "name": "setAuctionBuffers",
      "outputs": [],
      "stateMutability": "nonpayable",
      "type": "function"
    },
    {
      "inputs": [
        {
          "internalType": "string",
          "name": "_uri",
          "type": "string"
        }
      ],
      "name": "setContractURI",
      "outputs": [],
      "stateMutability": "nonpayable",
      "type": "function"
    },
    {
      "inputs": [
        {
          "internalType": "uint256",
          "name": "_feeBps",
          "type": "uint256"
        }
      ],
      "name": "setMarketFeeBps",
      "outputs": [],
      "stateMutability": "nonpayable",
      "type": "function"
    },
    {
      "inputs": [
        {
          "internalType": "bool",
          "name": "restricted",
          "type": "bool"
        }
      ],
      "name": "setRestrictedListerRoleOnly",
      "outputs": [],
      "stateMutability": "nonpayable",
      "type": "function"
    },
    {
      "inputs": [
        {
          "internalType": "bytes4",
          "name": "interfaceId",
          "type": "bytes4"
        }
      ],
      "name": "supportsInterface",
      "outputs": [
        {
          "internalType": "bool",
          "name": "",
          "type": "bool"
        }
      ],
      "stateMutability": "view",
      "type": "function"
    },
    {
      "inputs": [],
      "name": "timeBuffer",
      "outputs": [
        {
          "internalType": "uint64",
          "name": "",
          "type": "uint64"
        }
      ],
      "stateMutability": "view",
      "type": "function"
    },
    {
      "inputs": [],
      "name": "totalListings",
      "outputs": [
        {
          "internalType": "uint256",
          "name": "",
          "type": "uint256"
        }
      ],
      "stateMutability": "view",
      "type": "function"
    },
    {
      "inputs": [
        {
          "internalType": "uint256",
          "name": "",
          "type": "uint256"
        }
      ],
      "name": "winningBid",
      "outputs": [
        {
          "internalType": "uint256",
          "name": "listingId",
          "type": "uint256"
        },
        {
          "internalType": "address",
          "name": "offeror",
          "type": "address"
        },
        {
          "internalType": "uint256",
          "name": "quantityWanted",
          "type": "uint256"
        },
        {
          "internalType": "uint256",
          "name": "pricePerToken",
          "type": "uint256"
        }
      ],
      "stateMutability": "view",
      "type": "function"
    },
    {
      "stateMutability": "payable",
      "type": "receive"
    }
  ],
  "bytecode": "0x60a060405260078054600160481b600160c81b0319167201f400000000000003840000000000000000001790553480156200003957600080fd5b506040516200639b3803806200639b8339810160408190526200005c9162000395565b6001600255600380546001600160a01b0319166001600160a01b038616179055815162000091906006906020850190620002ef565b50600480546001600160a01b0319166001600160a01b038716179055606083901b6001600160601b03191660805260078054610100600160481b0319166101006001600160401b03841602179055620000f56000620000ef6200012f565b6200014b565b620001247ff94103142c1baabe9ac2b5d1487bf783de9e69cfeea9a72f5c9c94afd7877b8c620000ef6200012f565b505050505062000525565b6000620001466200018e60201b620030e51760201c565b905090565b620001628282620001c760201b6200310d1760201c565b6000828152600160209081526040909120620001899183906200311b620001d7821b17901c565b505050565b6003546000906001600160a01b0316331415620001b2575060131936013560601c90565b62000146620001f760201b620031301760201c565b620001d38282620001fb565b5050565b6000620001ee836001600160a01b0384166200029d565b90505b92915050565b3390565b6000828152602081815260408083206001600160a01b038516845290915290205460ff16620001d3576000828152602081815260408083206001600160a01b03851684529091529020805460ff19166001179055620002596200012f565b6001600160a01b0316816001600160a01b0316837f2f8788117e7eff1d82e926ec794901d17c78024a50270940304540a733656f0d60405160405180910390a45050565b6000818152600183016020526040812054620002e657508154600181810184556000848152602080822090930184905584548482528286019093526040902091909155620001f1565b506000620001f1565b828054620002fd90620004b9565b90600052602060002090601f0160209004810192826200032157600085556200036c565b82601f106200033c57805160ff19168380011785556200036c565b828001600101855582156200036c579182015b828111156200036c5782518255916020019190600101906200034f565b506200037a9291506200037e565b5090565b5b808211156200037a57600081556001016200037f565b600080600080600060a08688031215620003ad578081fd5b8551620003ba816200050c565b80955050602080870151620003cf816200050c565b6040880151909550620003e2816200050c565b60608801519094506001600160401b0380821115620003ff578384fd5b818901915089601f83011262000413578384fd5b815181811115620004285762000428620004f6565b604051601f8201601f19908116603f01168101908382118183101715620004535762000453620004f6565b816040528281528c868487010111156200046b578687fd5b8693505b828410156200048e57848401860151818501870152928501926200046f565b828411156200049f57868684830101525b809750505050505050608086015190509295509295909350565b600181811c90821680620004ce57607f821691505b60208210811415620004f057634e487b7160e01b600052602260045260246000fd5b50919050565b634e487b7160e01b600052604160045260246000fd5b6001600160a01b03811681146200052257600080fd5b50565b60805160601c615e42620005596000396000818161095e0152818161473e015281816147b201526148bd0152615e426000f3fe6080604052600436106102895760003560e01c8063bc197c8111610153578063deb26b94116100cb578063ebdfbce51161007f578063f23a6e6111610064578063f23a6e6114610920578063f9ea29cb1461094c578063fd967f471461098057600080fd5b8063ebdfbce51461089b578063ec91f2a4146108f257600080fd5b8063e4104eaf116100b0578063e4104eaf14610846578063e8a3d48514610866578063ea0e02411461087b57600080fd5b8063deb26b94146107ea578063e1758bd81461081e57600080fd5b8063ca15c87311610122578063d547741f11610107578063d547741f14610705578063d6febde814610725578063de74e57b1461074557600080fd5b8063ca15c87314610671578063d4ac9b8c1461069157600080fd5b8063bc197c81146105ed578063bcebc64414610619578063c0e7274014610639578063c78b616c1461065b57600080fd5b80634e03f28d11610201578063918d407d116101b5578063938e3d7b1161019a578063938e3d7b1461058b578063a217fddf146105ab578063ac9650d8146105c057600080fd5b8063918d407d1461052757806391d148541461054757600080fd5b806361096ec6116101e657806361096ec6146104c257806380cd2464146104dc5780639010d07c146104ef57600080fd5b80634e03f28d1461046b578063572b6c051461049357600080fd5b8063296f4e1611610258578063354c7ab61161023d578063354c7ab6146103ec57806336568abe1461040c5780633f5c3e871461042c57600080fd5b8063296f4e16146103ac5780632f2ff15d146103cc57600080fd5b806301ffc9a7146102de578063150b7a0214610313578063236ed8f31461034c578063248a9ca31461036e57600080fd5b366102d9577f1e57e3bb474320be3d2c77138f75b7c3941292d647f5f9634e33a8e94e0e069b6102b7610996565b604080516001600160a01b0390921682523460208301520160405180910390a1005b600080fd5b3480156102ea57600080fd5b506102fe6102f936600461571c565b6109a5565b60405190151581526020015b60405180910390f35b34801561031f57600080fd5b5061033361032e3660046154ef565b6109f7565b6040516001600160e01b0319909116815260200161030a565b34801561035857600080fd5b5061036c61036736600461569c565b610a09565b005b34801561037a57600080fd5b5061039e61038936600461569c565b60009081526020819052604090206001015490565b60405190815260200161030a565b3480156103b857600080fd5b5061036c6103c7366004615784565b61126f565b3480156103d857600080fd5b5061036c6103e73660046156cc565b611657565b3480156103f857600080fd5b5061036c610407366004615664565b61167e565b34801561041857600080fd5b5061036c6104273660046156cc565b61171f565b34801561043857600080fd5b5060075461045290610100900467ffffffffffffffff1681565b60405167ffffffffffffffff909116815260200161030a565b34801561047757600080fd5b5060075461045290600160881b900467ffffffffffffffff1681565b34801561049f57600080fd5b506102fe6104ae36600461540d565b6003546001600160a01b0391821691161490565b3480156104ce57600080fd5b506007546102fe9060ff1681565b61036c6104ea36600461580f565b611741565b3480156104fb57600080fd5b5061050f61050a3660046156fb565b611cb4565b6040516001600160a01b03909116815260200161030a565b34801561053357600080fd5b5061036c6105423660046156cc565b611cd3565b34801561055357600080fd5b506102fe6105623660046156cc565b6000918252602082815260408084206001600160a01b0393909316845291905290205460ff1690565b34801561059757600080fd5b5061036c6105a6366004615744565b61221b565b3480156105b757600080fd5b5061039e600081565b3480156105cc57600080fd5b506105e06105db3660046155f4565b6123a2565b60405161030a9190615ab3565b3480156105f957600080fd5b50610333610608366004615445565b63bc197c8160e01b95945050505050565b34801561062557600080fd5b5061036c61063436600461583a565b6124c1565b34801561064557600080fd5b5061064e6129cd565b60405161030a9190615b14565b34801561066757600080fd5b5061039e60055481565b34801561067d57600080fd5b5061039e61068c36600461569c565b612a5b565b34801561069d57600080fd5b506106dd6106ac36600461569c565b600a60205260009081526040902080546001820154600283015460039093015491926001600160a01b039091169184565b604080519485526001600160a01b03909316602085015291830152606082015260800161030a565b34801561071157600080fd5b5061036c6107203660046156cc565b612a72565b34801561073157600080fd5b5061036c6107403660046156fb565b612a7c565b34801561075157600080fd5b506107d261076036600461569c565b600860208190526000918252604090912080546001820154600283015460038401546004850154600586015460068701546007880154988801546009890154600a9099015497996001600160a01b03978816999688169895979496939592941692909160ff808216916101009004168c565b60405161030a9c9b9a99989796959493929190615b73565b3480156107f657600080fd5b5061039e7ff94103142c1baabe9ac2b5d1487bf783de9e69cfeea9a72f5c9c94afd7877b8c81565b34801561082a57600080fd5b5061050f73eeeeeeeeeeeeeeeeeeeeeeeeeeeeeeeeeeeeeeee81565b34801561085257600080fd5b5061036c61086136600461569c565b612df5565b34801561087257600080fd5b5061064e612ef7565b34801561088757600080fd5b5061036c6108963660046156fb565b612f89565b3480156108a757600080fd5b506106dd6108b63660046156cc565b6009602090815260009283526040808420909152908252902080546001820154600283015460039093015491926001600160a01b039091169184565b3480156108fe57600080fd5b50600754610452906901000000000000000000900467ffffffffffffffff1681565b34801561092c57600080fd5b5061033361093b366004615560565b63f23a6e6160e01b95945050505050565b34801561095857600080fd5b5061050f7f000000000000000000000000000000000000000000000000000000000000000081565b34801561098c57600080fd5b5061045261271081565b60006109a06130e5565b905090565b60006001600160e01b03198216630271189760e51b14806109d657506001600160e01b03198216630a85bd0160e11b145b806109f157506001600160e01b0319821663152a902d60e11b145b92915050565b630a85bd0160e11b5b95945050505050565b600280541415610a605760405162461bcd60e51b815260206004820152601f60248201527f5265656e7472616e637947756172643a207265656e7472616e742063616c6c0060448201526064015b60405180910390fd5b60028080556000828152600860208181526040808420815161018081018352815481526001808301546001600160a01b0390811695830195909552968201548416928101929092526003810154606083015260048101546080830152600581015460a0830152600681015460c0830152600781015490921660e0820152918101546101008301526009810154610120830152600a81015492939192909161014084019160ff1690811115610b2457634e487b7160e01b600052602160045260246000fd5b6001811115610b4357634e487b7160e01b600052602160045260246000fd5b8152602001600a820160019054906101000a900460ff166001811115610b7957634e487b7160e01b600052602160045260246000fd5b6001811115610b9857634e487b7160e01b600052602160045260246000fd5b9052506000838152600a6020908152604080832081516080810183528154815260018201546001600160a01b031693810193909352600281015491830191909152600301546060820152919250610bed610996565b90504283608001511115610e16576000848152600860205260409020600101546001600160a01b03828116911614610c8d5760405162461bcd60e51b815260206004820152602a60248201527f4d61726b65743a2063616c6c6572206973206e6f7420746865206c697374696e60448201527f672063726561746f722e000000000000000000000000000000000000000000006064820152608401610a57565b60c08301805160008083524260a08701908152878252600860208181526040938490208951815590890151600180830180546001600160a01b039384166001600160a01b031991821617909155958b015160028401805491841691881691909117905560608b0151600384015560808b01516004840155935160058301559551600682015560e089015160078201805491909716941693909317909455610100870151938201939093556101208601516009820155610140860151600a820180549394889460ff1916908381811115610d7657634e487b7160e01b600052602160045260246000fd5b0217905550610160820151600a8201805461ff001916610100836001811115610daf57634e487b7160e01b600052602160045260246000fd5b0217905550905050610dc73085602001518387613134565b83602001516001600160a01b0316857fb0d30498d58f551f4a1d6eec2a2e87f7ad9738e3f4f07897f50e87c15b27455886604051610e059190615b27565b60405180910390a350505050611267565b82602001516001600160a01b0316816001600160a01b03161480610e4f575081602001516001600160a01b0316816001600160a01b0316145b610ec15760405162461bcd60e51b815260206004820152602a60248201527f4d61726b65743a206d75737420626520626964646572206f722061756374696f60448201527f6e2063726561746f722e000000000000000000000000000000000000000000006064820152608401610a57565b60018361016001516001811115610ee857634e487b7160e01b600052602160045260246000fd5b14610f405760405162461bcd60e51b815260206004820152602260248201527f4d61726b65743a206c697374696e67206973206e6f7420616e2061756374696f604482015261371760f11b6064820152608401610a57565b428360a0015110610fb95760405162461bcd60e51b815260206004820152603260248201527f4d61726b65743a2063616e206f6e6c7920636c6f73652061756374696f6e206160448201527f667465722069742068617320656e6465642e00000000000000000000000000006064820152608401610a57565b82602001516001600160a01b0316610fcf610996565b6001600160a01b0316141561118c57600082604001518360600151610ff49190615ccf565b600060c086018181524260a08801908152888352600860208181526040948590208a518155908a0151600180830180546001600160a01b039384166001600160a01b031991821617909155968c015160028401805491841691891691909117905560608c0151600384015560808c01516004840155935160058301559351600682015560e08a015160078201805491909516951694909417909255610100880151918301919091556101208701516009830155610140870151600a8301805494955088949192909160ff19169083818111156110e057634e487b7160e01b600052602160045260246000fd5b0217905550610160820151600a8201805461ff00191661010083600181111561111957634e487b7160e01b600052602160045260246000fd5b021790555050600060608501818152878252600a602090815260409283902087518155818801516001820180546001600160a01b0319166001600160a01b0390921691909117905592870151600284015590516003909201919091558501516111869150309083876132a7565b50611213565b81602001516001600160a01b03166111a2610996565b6001600160a01b0316141561121357604082810180516000808352878152600a602090815293902085518155928501516001840180546001600160a01b0319166001600160a01b0383161790559151600284015560608501516003909301929092556112119030908387613134565b505b806001600160a01b0316847ff595878d9676c74b23550f262f8b52dbe748a37173f297a78d0262234ab9b7a785602001518560200151868860405161125b9493929190615a29565b60405180910390a35050505b506001600255565b60075460ff1615806112a857506112a87ff94103142c1baabe9ac2b5d1487bf783de9e69cfeea9a72f5c9c94afd7877b8c610562610996565b61131a5760405162461bcd60e51b815260206004820152602960248201527f4d61726b65743a2063616c6c657220646f6573206e6f742068617665204c495360448201527f5445525f524f4c452e00000000000000000000000000000000000000000000006064820152608401610a57565b6000611324613565565b90506000611330610996565b905060006113418460000151613583565b9050600084608001511180156113715750611371828560000151866020015187608001518589610100015161370f565b6113d65760405162461bcd60e51b815260206004820152603060248201527f4d61726b65743a206d757374206f776e20616e6420617070726f766520746f2060448201526f3a3930b739b332b9103a37b5b2b7399760811b6064820152608401610a57565b6000604051806101800160405280858152602001846001600160a01b0316815260200186600001516001600160a01b03168152602001866020015181526020018660400151426114269190615c97565b8152602001866060015160001461144b5760608701516114469042615c97565b61144f565b6000195b8152602001611462848860800151613b77565b81526020018660a001516001600160a01b031681526020018660c0015181526020018660e0015181526020018360018111156114ae57634e487b7160e01b600052602160045260246000fd5b815260200186610100015160018111156114d857634e487b7160e01b600052602160045260246000fd5b90526000858152600860208181526040928390208451815590840151600180830180546001600160a01b03199081166001600160a01b0394851617909155948601516002840180548716918416919091179055606086015160038401556080860151600484015560a0860151600584015560c0860151600684015560e0860151600784018054909616921691909117909355610100840151918101919091556101208301516009820155610140830151600a82018054949550859492939192909160ff199091169083818111156115bf57634e487b7160e01b600052602160045260246000fd5b0217905550610160820151600a8201805461ff0019166101008360018111156115f857634e487b7160e01b600052602160045260246000fd5b021790555090505083836001600160a01b031686600001516001600160a01b03167fd8a9bd7d189c9404a6954761b159187af5546fe099af5e1cbd585f3d0d2e246d846040516116489190615b27565b60405180910390a45050505050565b6116618282613bbc565b6000828152600160205260409020611679908261311b565b505050565b61168b6000610562610996565b6116d75760405162461bcd60e51b815260206004820152601b60248201527f4d61726b65743a206e6f742061206d6f64756c652061646d696e2e00000000006044820152606401610a57565b6007805460ff19168215159081179091556040519081527f56668abce4c06e28f52176150c07856e31ee073b9b62df62a5afbf1a22aec24c906020015b60405180910390a150565b6117298282613be9565b60008281526001602052604090206116799082613c81565b6002805414156117935760405162461bcd60e51b815260206004820152601f60248201527f5265656e7472616e637947756172643a207265656e7472616e742063616c6c006044820152606401610a57565b6002805560006117a1610996565b6000858152600860208181526040808420815161018081018352815481526001808301546001600160a01b039081169583019590955260028301548516938201939093526003820154606082015260048201546080820152600582015460a0820152600682015460c0820152600782015490931660e0840152928301546101008301526009830154610120830152600a8301549495509293909261014084019160ff169081111561186257634e487b7160e01b600052602160045260246000fd5b600181111561188157634e487b7160e01b600052602160045260246000fd5b8152602001600a820160019054906101000a900460ff1660018111156118b757634e487b7160e01b600052602160045260246000fd5b60018111156118d657634e487b7160e01b600052602160045260246000fd5b815250509050428160a001511180156118f25750428160800151105b6119645760405162461bcd60e51b815260206004820152603160248201527f4d61726b65743a2063616e206f6e6c79206d616b65206f666665727320696e2060448201527f6c697374696e67206475726174696f6e2e0000000000000000000000000000006064820152608401610a57565b6001816101600151600181111561198b57634e487b7160e01b600052602160045260246000fd5b1415611a745760e08101516001600160a01b031673eeeeeeeeeeeeeeeeeeeeeeeeeeeeeeeeeeeeeeee146119e45760c08101516119c89084615ccf565b8160c001518261010001516119dd9190615ccf565b11156119fd565b348160c001518261010001516119fa9190615ccf565b11155b611a6f5760405162461bcd60e51b815260206004820152602a60248201527f4d61726b65743a206d757374206f66666572206174206c65617374207265736560448201527f7276652070726963652e000000000000000000000000000000000000000000006064820152608401610a57565b611b1a565b60008161016001516001811115611a9b57634e487b7160e01b600052602160045260246000fd5b1415611b1a5760008160c0015111611b005760405162461bcd60e51b815260206004820152602260248201527f4d61726b65743a206e6f20746f6b656e73206c697374656420666f722073616c604482015261329760f11b6064820152608401610a57565b611b1a828260e001518686611b159190615ccf565b613c96565b600060018261016001516001811115611b4357634e487b7160e01b600052602160045260246000fd5b14611b5c57611b5782610140015186613b77565b611b6f565b611b6f8261014001518360c00151613b77565b604080516080810182528881526001600160a01b038616602082015291925060009190810160018561016001516001811115611bbb57634e487b7160e01b600052602160045260246000fd5b14611bc65783611bcc565b8460c001515b8152602090810187905260008981526009825260408082206001600160a01b038981168085529185529282902085518155938501516001850180546001600160a01b0319169190941617909255838101516002840155606084015160039093019290925590519192509088907f8c5f85f34fc60062c89de495fad3a4d025e187be1f2be348efb3c961580a0daa90611c679085908890615b36565b60405180910390a360018361016001516001811115611c9657634e487b7160e01b600052602160045260246000fd5b1415611ca657611ca68382613e52565b505060016002555050505050565b6000828152600160205260408120611ccc90836143dd565b9392505050565b600280541415611d255760405162461bcd60e51b815260206004820152601f60248201527f5265656e7472616e637947756172643a207265656e7472616e742063616c6c006044820152606401610a57565b6002805581611d32610996565b6000828152600860205260409020600101546001600160a01b03908116911614611dad5760405162461bcd60e51b815260206004820152602660248201527f4d61726b65743a2063616c6c6572206973206e6f74206c697374696e6720637260448201526532b0ba37b91760d11b6064820152608401610a57565b60008381526009602081815260408084206001600160a01b03808816865290835281852082516080808201855282548252600180840154851683880152600280850154848801526003948501546060808601919091528d8b526008808a52888c20895161018081018b5281548152818601548a169b81019b909b52928301548816988a01989098529481015494880194909452600484015491870191909152600583015460a0870152600683015460c0870152600783015490931660e08601529281015461010085015293840154610120840152600a8401549194939161014084019160ff90911690811115611eb357634e487b7160e01b600052602160045260246000fd5b6001811115611ed257634e487b7160e01b600052602160045260246000fd5b8152602001600a820160019054906101000a900460ff166001811115611f0857634e487b7160e01b600052602160045260246000fd5b6001811115611f2757634e487b7160e01b600052602160045260246000fd5b905250905060008161016001516001811115611f5357634e487b7160e01b600052602160045260246000fd5b148015611f835750611f83816020015182604001518360600151856040015185610140015186610160015161370f565b611fe85760405162461bcd60e51b815260206004820152603060248201527f4d61726b65743a206d757374206f776e20616e6420617070726f766520746f2060448201526f3a3930b739b332b9103a37b5b2b7399760811b6064820152608401610a57565b60408201516060830151600090612000908390615ccf565b60006040868101828152606088018381528b8452600960209081528385206001600160a01b038d811687529082529390942089518155938901516001850180546001600160a01b03191691909416179092555160028301555160039091015560c0840180519192508391612075908390615cee565b9052506000878152600860208181526040928390208651815590860151600180830180546001600160a01b03199081166001600160a01b0394851617909155948801516002840180548716918416919091179055606088015160038401556080880151600484015560a0880151600584015560c0880151600684015560e0880151600784018054909616921691909117909355610100860151918101919091556101208501516009820155610140850151600a82018054879460ff1990911690838181111561215457634e487b7160e01b600052602160045260246000fd5b0217905550610160820151600a8201805461ff00191661010083600181111561218d57634e487b7160e01b600052602160045260246000fd5b02179055509050506121a586846020015183866132a7565b6121b58360200151878486613134565b8683602001516001600160a01b031684604001516001600160a01b03167f3ccc07b7cdeffeb0c32f26a7aa313391a34d485229012dcdc8f332c27e11d7dc89868860405161220593929190615a86565b60405180910390a4505060016002555050505050565b600480546040805163a217fddf60e01b815290516001600160a01b03909216926391d1485492849263a217fddf9281810192602092909190829003018186803b15801561226757600080fd5b505afa15801561227b573d6000803e3d6000fd5b505050506040513d601f19601f8201168201806040525081019061229f91906156b4565b6122a7610996565b6040516001600160e01b031960e085901b16815260048101929092526001600160a01b0316602482015260440160206040518083038186803b1580156122ec57600080fd5b505afa158015612300573d6000803e3d6000fd5b505050506040513d601f19601f820116820180604052508101906123249190615680565b6123965760405162461bcd60e51b815260206004820152603560248201527f4d61726b65743a206f6e6c7920612070726f746f636f6c2061646d696e20636160448201527f6e2063616c6c20746869732066756e6374696f6e2e00000000000000000000006064820152608401610a57565b61167960068383615225565b60608167ffffffffffffffff8111156123cb57634e487b7160e01b600052604160045260246000fd5b6040519080825280602002602001820160405280156123fe57816020015b60608152602001906001900390816123e95790505b50905060005b828110156124ba5761247c3085858481811061243057634e487b7160e01b600052603260045260246000fd5b90506020028101906124429190615bf7565b8080601f0160208091040260200160405190810160405280939291908181526020018383808284376000920191909152506143e992505050565b82828151811061249c57634e487b7160e01b600052603260045260246000fd5b602002602001018190525080806124b290615d83565b915050612404565b5092915050565b866124ca610996565b6000828152600860205260409020600101546001600160a01b039081169116146125455760405162461bcd60e51b815260206004820152602660248201527f4d61726b65743a2063616c6c6572206973206e6f74206c697374696e6720637260448201526532b0ba37b91760d11b6064820152608401610a57565b6000888152600860208181526040808420815161018081018352815481526001808301546001600160a01b039081169583019590955260028301548516938201939093526003820154606082015260048201546080820152600582015460a0820152600682015460c0820152600782015490931660e0840152928301546101008301526009830154610120830152600a83015491929161014084019160ff9091169081111561260457634e487b7160e01b600052602160045260246000fd5b600181111561262357634e487b7160e01b600052602160045260246000fd5b8152602001600a820160019054906101000a900460ff16600181111561265957634e487b7160e01b600052602160045260246000fd5b600181111561267857634e487b7160e01b600052602160045260246000fd5b815250509050600061268f8261014001518a613b77565b9050600182610160015160018111156126b857634e487b7160e01b600052602160045260246000fd5b141561274857428260800151106127375760405162461bcd60e51b815260206004820152602860248201527f4d61726b65743a2063616e6e6f7420656469742061756374696f6e206166746560448201527f722073746172742e0000000000000000000000000000000000000000000000006064820152608401610a57565b610100820188905261012082018790525b6000826101600151600181111561276f57634e487b7160e01b600052602160045260246000fd5b1480156127805750888260c0015114155b15612816576127a98260200151836040015184606001518486610140015187610160015161370f565b61280e5760405162461bcd60e51b815260206004820152603060248201527f4d61726b65743a206d757374206f776e20616e6420617070726f766520746f2060448201526f3a3930b739b332b9103a37b5b2b7399760811b6064820152608401610a57565b60c082018190525b6001600160a01b03861660e0830152841561283a576128358542615c97565b612840565b81608001515b6080830152831561285a576128558442615c97565b612860565b8160a001515b60a0830190815260008b8152600860208181526040928390208651815590860151600180830180546001600160a01b03199081166001600160a01b039485161790915594880151600284018054871691841691909117905560608801516003840155608088015160048401559451600583015560c0870151600683015560e0870151600783018054909516911617909255610100850151908201556101208401516009820155610140840151600a82018054869460ff1990911690838181111561293a57634e487b7160e01b600052602160045260246000fd5b0217905550610160820151600a8201805461ff00191661010083600181111561297357634e487b7160e01b600052602160045260246000fd5b02179055509050508982602001516001600160a01b03167facae26cf04d6f4427216f4e7321674e1e7bc77fd18a599e75114a1f46a70ca28846040516129b99190615b27565b60405180910390a350505050505050505050565b600680546129da90615d48565b80601f0160208091040260200160405190810160405280929190818152602001828054612a0690615d48565b8015612a535780601f10612a2857610100808354040283529160200191612a53565b820191906000526020600020905b815481529060010190602001808311612a3657829003601f168201915b505050505081565b60008181526001602052604081206109f19061440e565b6117298282614418565b600280541415612ace5760405162461bcd60e51b815260206004820152601f60248201527f5265656e7472616e637947756172643a207265656e7472616e742063616c6c006044820152606401610a57565b60028080556000838152600860208181526040808420815161018081018352815481526001808301546001600160a01b0390811695830195909552968201548416928101929092526003810154606083015260048101546080830152600581015460a0830152600681015460c0830152600781015490921660e0820152918101546101008301526009810154610120830152600a81015492939192909161014084019160ff1690811115612b9257634e487b7160e01b600052602160045260246000fd5b6001811115612bb157634e487b7160e01b600052602160045260246000fd5b8152602001600a820160019054906101000a900460ff166001811115612be757634e487b7160e01b600052602160045260246000fd5b6001811115612c0657634e487b7160e01b600052602160045260246000fd5b90525090506000612c15610996565b9050612c22828285614440565b828260c001818151612c349190615cee565b9052506000848152600860208181526040928390208551815590850151600180830180546001600160a01b03199081166001600160a01b0394851617909155948701516002840180548716918416919091179055606087015160038401556080870151600484015560a0870151600584015560c0870151600684015560e0870151600784018054909616921691909117909355610100850151918101919091556101208401516009820155610140840151600a82018054869460ff19909116908381811115612d1357634e487b7160e01b600052602160045260246000fd5b0217905550610160820151600a8201805461ff001916610100836001811115612d4c57634e487b7160e01b600052602160045260246000fd5b0217905550505061012082015115612d7e57612d7e81836020015185856101200151612d789190615ccf565b856132a7565b612d8e8260200151828585613134565b816000015182602001516001600160a01b031683604001516001600160a01b03167f3ccc07b7cdeffeb0c32f26a7aa313391a34d485229012dcdc8f332c27e11d7dc848787604051612de293929190615a86565b60405180910390a4505060016002555050565b612e026000610562610996565b612e4e5760405162461bcd60e51b815260206004820152601b60248201527f4d61726b65743a206e6f742061206d6f64756c652061646d696e2e00000000006044820152606401610a57565b6127108110612e9f5760405162461bcd60e51b815260206004820152601460248201527f4d61726b65743a20696e76616c6964204250532e0000000000000000000000006044820152606401610a57565b6007805468ffffffffffffffff00191661010067ffffffffffffffff8416908102919091179091556040519081527f1923ecef8dbc1cebea2768819f7df282b72fb6d62bf99da204590b9d5cac7a7b90602001611714565b606060068054612f0690615d48565b80601f0160208091040260200160405190810160405280929190818152602001828054612f3290615d48565b8015612f7f5780601f10612f5457610100808354040283529160200191612f7f565b820191906000526020600020905b815481529060010190602001808311612f6257829003601f168201915b5050505050905090565b612f966000610562610996565b612fe25760405162461bcd60e51b815260206004820152601b60248201527f4d61726b65743a206e6f742061206d6f64756c652061646d696e2e00000000006044820152606401610a57565b61271081106130335760405162461bcd60e51b815260206004820152601460248201527f4d61726b65743a20696e76616c6964204250532e0000000000000000000000006044820152606401610a57565b6007805467ffffffffffffffff838116600160881b027fffffffffffffff0000000000000000ffffffffffffffffffffffffffffffffff918616690100000000000000000002919091167fffffffffffffff00000000000000000000000000000000ffffffffffffffffff9092169190911717905560408051838152602081018390527f441ed6470e96704c3f8c9e70c209107078aab3f17311385e886081b91aa75088910160405180910390a15050565b6003546000906001600160a01b0316331415613108575060131936013560601c90565b503390565b6131178282614604565b5050565b6000611ccc836001600160a01b0384166146a3565b3390565b6000816101400151600181111561315b57634e487b7160e01b600052602160045260246000fd5b14156131f05760408082015160608301519151637921219560e11b81526001600160a01b038781166004830152868116602483015260448201939093526064810185905260a06084820152600060a482015291169063f242432a9060c401600060405180830381600087803b1580156131d357600080fd5b505af11580156131e7573d6000803e3d6000fd5b505050506132a1565b6001816101400151600181111561321757634e487b7160e01b600052602160045260246000fd5b14156132a15760408082015160608301519151635c46a7ef60e11b81526001600160a01b03878116600483015286811660248301526044820193909352608060648201526000608482015291169063b88d4fde9060a401600060405180830381600087803b15801561328857600080fd5b505af115801561329c573d6000803e3d6000fd5b505050505b50505050565b600754600090612710906132ca90610100900467ffffffffffffffff1685615ccf565b6132d49190615caf565b60e08301516004805460405163f2aab4b360e01b815230928101929092529293506133669288916001600160a01b039091169063f2aab4b39060240160206040518083038186803b15801561332857600080fd5b505afa15801561333c573d6000803e3d6000fd5b505050506040513d601f19601f820116820180604052508101906133609190615429565b846146f2565b60006133728285615cee565b60408085015190516301ffc9a760e01b815263152a902d60e11b60048201529192506001600160a01b0316906301ffc9a79060240160206040518083038186803b1580156133bf57600080fd5b505afa1580156133d3573d6000803e3d6000fd5b505050506040513d601f19601f820116820180604052508101906133f79190615680565b1561354d5760008084604001516001600160a01b0316632a55205a8660600151886040518363ffffffff1660e01b815260040161343e929190918252602082015260400190565b604080518083038186803b15801561345557600080fd5b505afa158015613469573d6000803e3d6000fd5b505050506040513d601f19601f8201168201806040525081019061348d91906155c7565b90925090506001600160a01b038216158015906134aa5750600081115b1561354a57856134ba8583615c97565b111561352e5760405162461bcd60e51b815260206004820152602b60248201527f4d61726b65743a20546f74616c206d61726b657420666565732065786365656460448201527f207468652070726963652e0000000000000000000000000000000000000000006064820152608401610a57565b6135388184615cee565b925061354a8560e001518984846146f2565b50505b61355d8360e001518787846146f2565b505050505050565b600580549060019060006135798385615c97565b9250508190555090565b6040516301ffc9a760e01b8152636cdb3d1360e11b60048201526000906001600160a01b038316906301ffc9a79060240160206040518083038186803b1580156135cc57600080fd5b505afa1580156135e0573d6000803e3d6000fd5b505050506040513d601f19601f820116820180604052508101906136049190615680565b1561361157506000919050565b6040516301ffc9a760e01b81526380ac58cd60e01b60048201526001600160a01b038316906301ffc9a79060240160206040518083038186803b15801561365757600080fd5b505afa15801561366b573d6000803e3d6000fd5b505050506040513d601f19601f8201168201806040525081019061368f9190615680565b1561369c57506001919050565b60405162461bcd60e51b815260206004820152602b60248201527f4d61726b65743a206d75737420696d706c656d656e742045524320313135352060448201527f6f7220455243203732312e0000000000000000000000000000000000000000006064820152608401610a57565b919050565b6000308184600181111561373357634e487b7160e01b600052602160045260246000fd5b14156138fc57604051627eeac760e11b81526001600160a01b0389811660048301526024820188905286919089169062fdd58e9060440160206040518083038186803b15801561378257600080fd5b505afa158015613796573d6000803e3d6000fd5b505050506040513d601f19601f820116820180604052508101906137ba91906156b4565b10158015613844575060405163e985e9c560e01b81526001600160a01b038981166004830152828116602483015288169063e985e9c59060440160206040518083038186803b15801561380c57600080fd5b505afa158015613820573d6000803e3d6000fd5b505050506040513d601f19601f820116820180604052508101906138449190615680565b91508180156138725750600183600181111561387057634e487b7160e01b600052602160045260246000fd5b145b156138f757604051637921219560e11b81526001600160a01b0389811660048301528281166024830152604482018890526064820187905260a06084830152600060a483015288169063f242432a9060c401600060405180830381600087803b1580156138de57600080fd5b505af11580156138f2573d6000803e3d6000fd5b505050505b613b6c565b600184600181111561391e57634e487b7160e01b600052602160045260246000fd5b1415613b6c576040516331a9108f60e11b8152600481018790526001600160a01b03808a169190891690636352211e9060240160206040518083038186803b15801561396957600080fd5b505afa15801561397d573d6000803e3d6000fd5b505050506040513d601f19601f820116820180604052508101906139a19190615429565b6001600160a01b0316148015613ac0575060405163020604bf60e21b8152600481018790526001600160a01b03808316919089169063081812fc9060240160206040518083038186803b1580156139f757600080fd5b505afa158015613a0b573d6000803e3d6000fd5b505050506040513d601f19601f82011682018060405250810190613a2f9190615429565b6001600160a01b03161480613ac0575060405163e985e9c560e01b81526001600160a01b038981166004830152828116602483015288169063e985e9c59060440160206040518083038186803b158015613a8857600080fd5b505afa158015613a9c573d6000803e3d6000fd5b505050506040513d601f19601f82011682018060405250810190613ac09190615680565b9150818015613aee57506001836001811115613aec57634e487b7160e01b600052602160045260246000fd5b145b15613b6c57604051635c46a7ef60e11b81526001600160a01b038981166004830152828116602483015260448201889052608060648301526000608483015288169063b88d4fde9060a401600060405180830381600087803b158015613b5357600080fd5b505af1158015613b67573d6000803e3d6000fd5b505050505b509695505050505050565b600081613b86575060006109f1565b6001836001811115613ba857634e487b7160e01b600052602160045260246000fd5b14613bb35781611ccc565b50600192915050565b600082815260208190526040902060010154613bdf81613bda610996565b61494a565b6116798383614604565b613bf1610996565b6001600160a01b0316816001600160a01b031614613c775760405162461bcd60e51b815260206004820152602f60248201527f416363657373436f6e74726f6c3a2063616e206f6e6c792072656e6f756e636560448201527f20726f6c657320666f722073656c6600000000000000000000000000000000006064820152608401610a57565b61311782826149c8565b6000611ccc836001600160a01b038416614a65565b60006001600160a01b03831673eeeeeeeeeeeeeeeeeeeeeeeeeeeeeeeeeeeeeeee1415613cd25781846001600160a01b03163110159050613ddf565b6040516370a0823160e01b81526001600160a01b0385811660048301528391908516906370a082319060240160206040518083038186803b158015613d1657600080fd5b505afa158015613d2a573d6000803e3d6000fd5b505050506040513d601f19601f82011682018060405250810190613d4e91906156b4565b10158015613ddc5750604051636eb1769f60e11b81526001600160a01b03858116600483015230602483015283919085169063dd62ed3e9060440160206040518083038186803b158015613da157600080fd5b505afa158015613db5573d6000803e3d6000fd5b505050506040513d601f19601f82011682018060405250810190613dd991906156b4565b10155b90505b806132a15760405162461bcd60e51b815260206004820152603960248201527f4d61726b65743a206d757374206f776e20616e6420617070726f7665204d617260448201527f6b657420746f207472616e736665722063757272656e63792e000000000000006064820152608401610a57565b81516000908152600a6020908152604080832081516080810183528154815260018201546001600160a01b03169381019390935260028101549183018290526003015460608301819052919291613ea99190615ccf565b9050600083604001518460600151613ec19190615ccf565b9050613ecd8282614b82565b156143d65760208084018051918601516001600160a01b031690526060808601519085015261012086015160009015801590613f1d57508660c00151876101200151613f199190615ccf565b8310155b9050801561415a57428760a0018181525050600085604001818152505084600a6000896000015181526020019081526020016000206000820151816000015560208201518160010160006101000a8154816001600160a01b0302191690836001600160a01b0316021790555060408201518160020155606082015181600301559050508660086000896000015181526020019081526020016000206000820151816000015560208201518160010160006101000a8154816001600160a01b0302191690836001600160a01b0316021790555060408201518160020160006101000a8154816001600160a01b0302191690836001600160a01b03160217905550606082015181600301556080820151816004015560a0820151816005015560c0820151816006015560e08201518160070160006101000a8154816001600160a01b0302191690836001600160a01b031602179055506101008201518160080155610120820151816009015561014082015181600a0160006101000a81548160ff021916908360018111156140c057634e487b7160e01b600052602160045260246000fd5b0217905550610160820151600a8201805461ff0019166101008360018111156140f957634e487b7160e01b600052602160045260246000fd5b021790555050506020808701518851918901516040516001600160a01b03831693927ff595878d9676c74b23550f262f8b52dbe748a37173f297a78d0262234ab9b7a79261414d929091908c908e90615a29565b60405180910390a3614378565b86516000908152600a602090815260409182902088518155908801516001820180546001600160a01b0319166001600160a01b03909216919091179055908701516002820155606087015160039091015560075460a0880151690100000000000000000090910467ffffffffffffffff16906141d7904290615cee565b1161432b5760075460a088018051690100000000000000000090920467ffffffffffffffff1691614209908390615c97565b90525086516000908152600860208181526040928390208a518155908a0151600180830180546001600160a01b03199081166001600160a01b0394851617909155948c0151600284018054871691841691909117905560608c0151600384015560808c0151600484015560a08c0151600584015560c08c0151600684015560e08c01516007840180549096169216919091179093556101008a0151918101919091556101208901516009820155610140890151600a820180548b9460ff199091169083818111156142ea57634e487b7160e01b600052602160045260246000fd5b0217905550610160820151600a8201805461ff00191661010083600181111561432357634e487b7160e01b600052602160045260246000fd5b021790555050505b85602001516001600160a01b031687600001517f0dc1caa56150efa4bf90d0556f512c86cb632c2b5c2b5ca6a517b5bc3acd1c83888a60405161436f929190615b36565b60405180910390a35b6001600160a01b038216158015906143905750600084115b156143a5576143a58760e001513084876146f2565b6143b98760e00151876020015130866146f2565b80156143d3576143d330876020015188604001518a613134565b50505b5050505050565b6000611ccc8383614bd5565b6060611ccc8383604051806060016040528060278152602001615e0f60279139614c0d565b60006109f1825490565b60008281526020819052604090206001015461443681613bda610996565b61167983836149c8565b61445a828460e0015185610120015184611b159190615ccf565b6144828360200151846040015185606001518660c0015187610140015188610160015161370f565b6144f45760405162461bcd60e51b815260206004820152602c60248201527f4d61726b65743a2063616e6e6f742062757920746f6b656e732066726f6d207460448201527f686973206c697374696e672e00000000000000000000000000000000000000006064820152608401610a57565b60008111801561450857508260c001518111155b61457a5760405162461bcd60e51b815260206004820152603160248201527f4d61726b65743a206d7573742062757920616e20617070726f7072696174652060448201527f616d6f756e74206f6620746f6b656e732e0000000000000000000000000000006064820152608401610a57565b8260a001514211158015614592575082608001514210155b6116795760405162461bcd60e51b815260206004820152603260248201527f4d61726b65743a207468652073616c652068617320656974686572206e6f742060448201527f73746172746564206f7220636c6f7365642e00000000000000000000000000006064820152608401610a57565b6000828152602081815260408083206001600160a01b038516845290915290205460ff16613117576000828152602081815260408083206001600160a01b03851684529091529020805460ff1916600117905561465f610996565b6001600160a01b0316816001600160a01b0316837f2f8788117e7eff1d82e926ec794901d17c78024a50270940304540a733656f0d60405160405180910390a45050565b60008181526001830160205260408120546146ea575081546001818101845560008481526020808220909301849055845484825282860190935260409020919091556109f1565b5060006109f1565b6001600160a01b03841673eeeeeeeeeeeeeeeeeeeeeeeeeeeeeeeeeeeeeeee141561493e576001600160a01b03831630141561483557604051632e1a7d4d60e01b8152600481018290527f00000000000000000000000000000000000000000000000000000000000000006001600160a01b031690632e1a7d4d90602401600060405180830381600087803b15801561478a57600080fd5b505af115801561479e573d6000803e3d6000fd5b505050506147ac8282614cf8565b614830577f00000000000000000000000000000000000000000000000000000000000000006001600160a01b031663d0e30db0826040518263ffffffff1660e01b81526004016000604051808303818588803b15801561480b57600080fd5b505af115801561481f573d6000803e3d6000fd5b505050505061483084308484614d6f565b6132a1565b6001600160a01b038216301415614934573481146148bb5760405162461bcd60e51b815260206004820152603560248201527f4d61726b65743a206e617469766520746f6b656e2076616c756520646f65732060448201527f6e6f74206d617463682062696420616d6f756e742e00000000000000000000006064820152608401610a57565b7f00000000000000000000000000000000000000000000000000000000000000006001600160a01b031663d0e30db0826040518263ffffffff1660e01b81526004016000604051808303818588803b15801561491657600080fd5b505af115801561492a573d6000803e3d6000fd5b50505050506132a1565b6147ac8282614cf8565b6132a184848484614d6f565b6000828152602081815260408083206001600160a01b038516845290915290205460ff1661311757614986816001600160a01b03166014614ffd565b614991836020614ffd565b6040516020016149a29291906159a8565b60408051601f198184030181529082905262461bcd60e51b8252610a5791600401615b14565b6000828152602081815260408083206001600160a01b038516845290915290205460ff1615613117576000828152602081815260408083206001600160a01b03851684529091529020805460ff19169055614a21610996565b6001600160a01b0316816001600160a01b0316837ff6391f5c32d9c69d2a47ea670b442974b53935d1edc7fd64eb21e047a839171b60405160405180910390a45050565b60008181526001830160205260408120548015614b78576000614a89600183615cee565b8554909150600090614a9d90600190615cee565b9050818114614b1e576000866000018281548110614acb57634e487b7160e01b600052603260045260246000fd5b9060005260206000200154905080876000018481548110614afc57634e487b7160e01b600052603260045260246000fd5b6000918252602080832090910192909255918252600188019052604090208390555b8554869080614b3d57634e487b7160e01b600052603160045260246000fd5b6001900381819060005260206000200160009055905585600101600086815260200190815260200160002060009055600193505050506109f1565b60009150506109f1565b6000821580611ccc57508282118015611ccc5750600754600160881b900467ffffffffffffffff1683612710614bb88286615cee565b614bc29190615ccf565b614bcc9190615caf565b10159392505050565b6000826000018281548110614bfa57634e487b7160e01b600052603260045260246000fd5b9060005260206000200154905092915050565b6060833b614c835760405162461bcd60e51b815260206004820152602660248201527f416464726573733a2064656c65676174652063616c6c20746f206e6f6e2d636f60448201527f6e747261637400000000000000000000000000000000000000000000000000006064820152608401610a57565b600080856001600160a01b031685604051614c9e919061598c565b600060405180830381855af49150503d8060008114614cd9576040519150601f19603f3d011682016040523d82523d6000602084013e614cde565b606091505b5091509150614cee8282866151ec565b9695505050505050565b60408051600080825260208201928390529182916001600160a01b038616918591614d229161598c565b60006040518083038185875af1925050503d8060008114614d5f576040519150601f19603f3d011682016040523d82523d6000602084013e614d64565b606091505b509095945050505050565b6001600160a01b038316301415614e025760405163095ea7b360e01b8152306004820152602481018290526001600160a01b0385169063095ea7b390604401602060405180830381600087803b158015614dc857600080fd5b505af1158015614ddc573d6000803e3d6000fd5b505050506040513d601f19601f82011682018060405250810190614e009190615680565b505b6040516370a0823160e01b81526001600160a01b038381166004830152600091908616906370a082319060240160206040518083038186803b158015614e4757600080fd5b505afa158015614e5b573d6000803e3d6000fd5b505050506040513d601f19601f82011682018060405250810190614e7f91906156b4565b6040516323b872dd60e01b81526001600160a01b0386811660048301528581166024830152604482018590529192506000918716906323b872dd90606401602060405180830381600087803b158015614ed757600080fd5b505af1158015614eeb573d6000803e3d6000fd5b505050506040513d601f19601f82011682018060405250810190614f0f9190615680565b6040516370a0823160e01b81526001600160a01b0386811660048301529192506000918816906370a082319060240160206040518083038186803b158015614f5657600080fd5b505afa158015614f6a573d6000803e3d6000fd5b505050506040513d601f19601f82011682018060405250810190614f8e91906156b4565b9050818015614fa55750614fa28484615c97565b81145b6143d35760405162461bcd60e51b8152602060048201526024808201527f4d61726b65743a206661696c656420746f207472616e736665722063757272656044820152633731bc9760e11b6064820152608401610a57565b6060600061500c836002615ccf565b615017906002615c97565b67ffffffffffffffff81111561503d57634e487b7160e01b600052604160045260246000fd5b6040519080825280601f01601f191660200182016040528015615067576020820181803683370190505b509050600360fc1b8160008151811061509057634e487b7160e01b600052603260045260246000fd5b60200101906001600160f81b031916908160001a905350600f60fb1b816001815181106150cd57634e487b7160e01b600052603260045260246000fd5b60200101906001600160f81b031916908160001a90535060006150f1846002615ccf565b6150fc906001615c97565b90505b600181111561519d577f303132333435363738396162636465660000000000000000000000000000000085600f166010811061514b57634e487b7160e01b600052603260045260246000fd5b1a60f81b82828151811061516f57634e487b7160e01b600052603260045260246000fd5b60200101906001600160f81b031916908160001a90535060049490941c9361519681615d31565b90506150ff565b508315611ccc5760405162461bcd60e51b815260206004820181905260248201527f537472696e67733a20686578206c656e67746820696e73756666696369656e746044820152606401610a57565b606083156151fb575081611ccc565b82511561520b5782518084602001fd5b8160405162461bcd60e51b8152600401610a579190615b14565b82805461523190615d48565b90600052602060002090601f0160209004810192826152535760008555615299565b82601f1061526c5782800160ff19823516178555615299565b82800160010185558215615299579182015b8281111561529957823582559160200191906001019061527e565b506152a59291506152a9565b5090565b5b808211156152a557600081556001016152aa565b803561370a81615deb565b600082601f8301126152d9578081fd5b8135602067ffffffffffffffff8211156152f5576152f5615db4565b8160051b615304828201615c66565b83815282810190868401838801850189101561531e578687fd5b8693505b85841015615340578035835260019390930192918401918401615322565b50979650505050505050565b60008083601f84011261535d578182fd5b50813567ffffffffffffffff811115615374578182fd5b60208301915083602082850101111561538c57600080fd5b9250929050565b600082601f8301126153a3578081fd5b813567ffffffffffffffff8111156153bd576153bd615db4565b6153d0601f8201601f1916602001615c66565b8181528460208386010111156153e4578283fd5b816020850160208301379081016020019190915292915050565b80356002811061370a57600080fd5b60006020828403121561541e578081fd5b8135611ccc81615deb565b60006020828403121561543a578081fd5b8151611ccc81615deb565b600080600080600060a0868803121561545c578081fd5b853561546781615deb565b9450602086013561547781615deb565b9350604086013567ffffffffffffffff80821115615493578283fd5b61549f89838a016152c9565b945060608801359150808211156154b4578283fd5b6154c089838a016152c9565b935060808801359150808211156154d5578283fd5b506154e288828901615393565b9150509295509295909350565b600080600080600060808688031215615506578081fd5b853561551181615deb565b9450602086013561552181615deb565b935060408601359250606086013567ffffffffffffffff811115615543578182fd5b61554f8882890161534c565b969995985093965092949392505050565b600080600080600060a08688031215615577578081fd5b853561558281615deb565b9450602086013561559281615deb565b93506040860135925060608601359150608086013567ffffffffffffffff8111156155bb578182fd5b6154e288828901615393565b600080604083850312156155d9578182fd5b82516155e481615deb565b6020939093015192949293505050565b60008060208385031215615606578182fd5b823567ffffffffffffffff8082111561561d578384fd5b818501915085601f830112615630578384fd5b81358181111561563e578485fd5b8660208260051b8501011115615652578485fd5b60209290920196919550909350505050565b600060208284031215615675578081fd5b8135611ccc81615e00565b600060208284031215615691578081fd5b8151611ccc81615e00565b6000602082840312156156ad578081fd5b5035919050565b6000602082840312156156c5578081fd5b5051919050565b600080604083850312156156de578182fd5b8235915060208301356156f081615deb565b809150509250929050565b6000806040838503121561570d578182fd5b50508035926020909101359150565b60006020828403121561572d578081fd5b81356001600160e01b031981168114611ccc578182fd5b60008060208385031215615756578182fd5b823567ffffffffffffffff81111561576c578283fd5b6157788582860161534c565b90969095509350505050565b60006101208284031215615796578081fd5b61579e615c3c565b6157a7836152be565b8152602083013560208201526040830135604082015260608301356060820152608083013560808201526157dd60a084016152be565b60a082015260c083013560c082015260e083013560e08201526101006158048185016153fe565b908201529392505050565b600080600060608486031215615823578081fd5b505081359360208301359350604090920135919050565b600080600080600080600060e0888a031215615854578485fd5b87359650602088013595506040880135945060608801359350608088013561587b81615deb565b9699959850939692959460a0840135945060c09093013592915050565b600081518084526158b0816020860160208601615d05565b601f01601f19169290920160200192915050565b6158cd81615dca565b9052565b8051825260208101516158ef60208401826001600160a01b03169052565b50604081015161590a60408401826001600160a01b03169052565b50606081015160608301526080810151608083015260a081015160a083015260c081015160c083015260e081015161594d60e08401826001600160a01b03169052565b506101008181015190830152610120808201519083015261014080820151615977828501826158c4565b5050610160808201516132a1828501826158c4565b6000825161599e818460208701615d05565b9190910192915050565b7f416363657373436f6e74726f6c3a206163636f756e74200000000000000000008152600083516159e0816017850160208801615d05565b7f206973206d697373696e6720726f6c65200000000000000000000000000000006017918401918201528351615a1d816028840160208801615d05565b01602801949350505050565b6001600160a01b038581168252841660208201526102408101615a796040830185805182526001600160a01b03602082015116602083015260408101516040830152606081015160608301525050565b610a0060c08301846158d1565b6001600160a01b0384168152602081018390526101c08101615aab60408301846158d1565b949350505050565b6000602080830181845280855180835260408601915060408160051b8701019250838701855b82811015615b0757603f19888603018452615af5858351615898565b94509285019290850190600101615ad9565b5092979650505050505050565b602081526000611ccc6020830184615898565b61018081016109f182846158d1565b825181526020808401516001600160a01b03169082015260408084015190820152606080840151908201526102008101611ccc60808301846158d1565b6000610180820190508d82526001600160a01b03808e166020840152808d1660408401528b60608401528a60808401528960a08401528860c084015280881660e0840152508561010083015284610120830152615bcf84615dca565b83610140830152615bdf83615dca565b826101608301529d9c50505050505050505050505050565b6000808335601e19843603018112615c0d578283fd5b83018035915067ffffffffffffffff821115615c27578283fd5b60200191503681900382131561538c57600080fd5b604051610120810167ffffffffffffffff81118282101715615c6057615c60615db4565b60405290565b604051601f8201601f1916810167ffffffffffffffff81118282101715615c8f57615c8f615db4565b604052919050565b60008219821115615caa57615caa615d9e565b500190565b600082615cca57634e487b7160e01b81526012600452602481fd5b500490565b6000816000190483118215151615615ce957615ce9615d9e565b500290565b600082821015615d0057615d00615d9e565b500390565b60005b83811015615d20578181015183820152602001615d08565b838111156132a15750506000910152565b600081615d4057615d40615d9e565b506000190190565b600181811c90821680615d5c57607f821691505b60208210811415615d7d57634e487b7160e01b600052602260045260246000fd5b50919050565b6000600019821415615d9757615d97615d9e565b5060010190565b634e487b7160e01b600052601160045260246000fd5b634e487b7160e01b600052604160045260246000fd5b60028110615de857634e487b7160e01b600052602160045260246000fd5b50565b6001600160a01b0381168114615de857600080fd5b8015158114615de857600080fdfe416464726573733a206c6f772d6c6576656c2064656c65676174652063616c6c206661696c6564a164736f6c6343000804000a",
  "linkReferences": {},
  "deployedLinkReferences": {}
}