{
  "_format": "hh-sol-artifact-1",
  "contractName": "MarketWithAuction",
  "sourceName": "contracts/v2/MarketWithAuction.sol",
  "abi": [
    {
      "inputs": [
        {
          "internalType": "address payable",
          "name": "_controlCenter",
          "type": "address"
        },
        {
          "internalType": "address",
          "name": "_trustedForwarder",
          "type": "address"
        },
        {
          "internalType": "address",
          "name": "_nativeTokenWrapper",
          "type": "address"
        },
        {
          "internalType": "string",
          "name": "_uri",
          "type": "string"
        },
        {
          "internalType": "uint256",
          "name": "_marketFeeBps",
          "type": "uint256"
        }
      ],
      "stateMutability": "nonpayable",
      "type": "constructor"
    },
    {
      "anonymous": false,
      "inputs": [
        {
          "indexed": false,
          "internalType": "uint256",
          "name": "timeBuffer",
          "type": "uint256"
        },
        {
          "indexed": false,
          "internalType": "uint256",
          "name": "bidBufferBps",
          "type": "uint256"
        }
      ],
      "name": "AuctionBuffersUpdated",
      "type": "event"
    },
    {
      "anonymous": false,
      "inputs": [
        {
          "indexed": true,
          "internalType": "uint256",
          "name": "listingId",
          "type": "uint256"
        },
        {
          "indexed": true,
          "internalType": "address",
          "name": "auctionCreator",
          "type": "address"
        },
        {
          "components": [
            {
              "internalType": "uint256",
              "name": "listingId",
              "type": "uint256"
            },
            {
              "internalType": "address",
              "name": "tokenOwner",
              "type": "address"
            },
            {
              "internalType": "address",
              "name": "assetContract",
              "type": "address"
            },
            {
              "internalType": "uint256",
              "name": "tokenId",
              "type": "uint256"
            },
            {
              "internalType": "uint256",
              "name": "startTime",
              "type": "uint256"
            },
            {
              "internalType": "uint256",
              "name": "endTime",
              "type": "uint256"
            },
            {
              "internalType": "uint256",
              "name": "quantity",
              "type": "uint256"
            },
            {
              "internalType": "address",
              "name": "currency",
              "type": "address"
            },
            {
              "internalType": "uint256",
              "name": "reservePricePerToken",
              "type": "uint256"
            },
            {
              "internalType": "uint256",
              "name": "buyoutPricePerToken",
              "type": "uint256"
            },
            {
              "internalType": "enum IMarket.TokenType",
              "name": "tokenType",
              "type": "uint8"
            },
            {
              "internalType": "enum IMarket.ListingType",
              "name": "listingType",
              "type": "uint8"
            }
          ],
          "indexed": false,
          "internalType": "struct IMarket.Listing",
          "name": "listing",
          "type": "tuple"
        }
      ],
      "name": "AuctionCanceled",
      "type": "event"
    },
    {
      "anonymous": false,
      "inputs": [
        {
          "indexed": true,
          "internalType": "uint256",
          "name": "listingId",
          "type": "uint256"
        },
        {
          "indexed": true,
          "internalType": "address",
          "name": "closer",
          "type": "address"
        },
        {
          "indexed": false,
          "internalType": "address",
          "name": "auctionCreator",
          "type": "address"
        },
        {
          "indexed": false,
          "internalType": "address",
          "name": "winningBidder",
          "type": "address"
        },
        {
          "components": [
            {
              "internalType": "uint256",
              "name": "listingId",
              "type": "uint256"
            },
            {
              "internalType": "address",
              "name": "offeror",
              "type": "address"
            },
            {
              "internalType": "uint256",
              "name": "quantityWanted",
              "type": "uint256"
            },
            {
              "internalType": "address",
              "name": "currency",
              "type": "address"
            },
            {
              "internalType": "uint256",
              "name": "pricePerToken",
              "type": "uint256"
            }
          ],
          "indexed": false,
          "internalType": "struct IMarket.Offer",
          "name": "winningBid",
          "type": "tuple"
        },
        {
          "components": [
            {
              "internalType": "uint256",
              "name": "listingId",
              "type": "uint256"
            },
            {
              "internalType": "address",
              "name": "tokenOwner",
              "type": "address"
            },
            {
              "internalType": "address",
              "name": "assetContract",
              "type": "address"
            },
            {
              "internalType": "uint256",
              "name": "tokenId",
              "type": "uint256"
            },
            {
              "internalType": "uint256",
              "name": "startTime",
              "type": "uint256"
            },
            {
              "internalType": "uint256",
              "name": "endTime",
              "type": "uint256"
            },
            {
              "internalType": "uint256",
              "name": "quantity",
              "type": "uint256"
            },
            {
              "internalType": "address",
              "name": "currency",
              "type": "address"
            },
            {
              "internalType": "uint256",
              "name": "reservePricePerToken",
              "type": "uint256"
            },
            {
              "internalType": "uint256",
              "name": "buyoutPricePerToken",
              "type": "uint256"
            },
            {
              "internalType": "enum IMarket.TokenType",
              "name": "tokenType",
              "type": "uint8"
            },
            {
              "internalType": "enum IMarket.ListingType",
              "name": "listingType",
              "type": "uint8"
            }
          ],
          "indexed": false,
          "internalType": "struct IMarket.Listing",
          "name": "listing",
          "type": "tuple"
        }
      ],
      "name": "AuctionClosed",
      "type": "event"
    },
    {
      "anonymous": false,
      "inputs": [
        {
          "indexed": false,
          "internalType": "address",
          "name": "from",
          "type": "address"
        },
        {
          "indexed": false,
          "internalType": "uint256",
          "name": "amount",
          "type": "uint256"
        }
      ],
      "name": "EtherReceived",
      "type": "event"
    },
    {
      "anonymous": false,
      "inputs": [
        {
          "indexed": true,
          "internalType": "address",
          "name": "listingCreator",
          "type": "address"
        },
        {
          "indexed": true,
          "internalType": "uint256",
          "name": "listingId",
          "type": "uint256"
        },
        {
          "components": [
            {
              "internalType": "uint256",
              "name": "listingId",
              "type": "uint256"
            },
            {
              "internalType": "address",
              "name": "tokenOwner",
              "type": "address"
            },
            {
              "internalType": "address",
              "name": "assetContract",
              "type": "address"
            },
            {
              "internalType": "uint256",
              "name": "tokenId",
              "type": "uint256"
            },
            {
              "internalType": "uint256",
              "name": "startTime",
              "type": "uint256"
            },
            {
              "internalType": "uint256",
              "name": "endTime",
              "type": "uint256"
            },
            {
              "internalType": "uint256",
              "name": "quantity",
              "type": "uint256"
            },
            {
              "internalType": "address",
              "name": "currency",
              "type": "address"
            },
            {
              "internalType": "uint256",
              "name": "reservePricePerToken",
              "type": "uint256"
            },
            {
              "internalType": "uint256",
              "name": "buyoutPricePerToken",
              "type": "uint256"
            },
            {
              "internalType": "enum IMarket.TokenType",
              "name": "tokenType",
              "type": "uint8"
            },
            {
              "internalType": "enum IMarket.ListingType",
              "name": "listingType",
              "type": "uint8"
            }
          ],
          "indexed": false,
          "internalType": "struct IMarket.Listing",
          "name": "listing",
          "type": "tuple"
        }
      ],
      "name": "ListingUpdate",
      "type": "event"
    },
    {
      "anonymous": false,
      "inputs": [
        {
          "indexed": false,
          "internalType": "uint64",
          "name": "newFee",
          "type": "uint64"
        }
      ],
      "name": "MarketFeeUpdate",
      "type": "event"
    },
    {
      "anonymous": false,
      "inputs": [
        {
          "indexed": true,
          "internalType": "uint256",
          "name": "listingId",
          "type": "uint256"
        },
        {
          "indexed": true,
          "internalType": "address",
          "name": "bidder",
          "type": "address"
        },
        {
          "components": [
            {
              "internalType": "uint256",
              "name": "listingId",
              "type": "uint256"
            },
            {
              "internalType": "address",
              "name": "offeror",
              "type": "address"
            },
            {
              "internalType": "uint256",
              "name": "quantityWanted",
              "type": "uint256"
            },
            {
              "internalType": "address",
              "name": "currency",
              "type": "address"
            },
            {
              "internalType": "uint256",
              "name": "pricePerToken",
              "type": "uint256"
            }
          ],
          "indexed": false,
          "internalType": "struct IMarket.Offer",
          "name": "bid",
          "type": "tuple"
        },
        {
          "components": [
            {
              "internalType": "uint256",
              "name": "listingId",
              "type": "uint256"
            },
            {
              "internalType": "address",
              "name": "tokenOwner",
              "type": "address"
            },
            {
              "internalType": "address",
              "name": "assetContract",
              "type": "address"
            },
            {
              "internalType": "uint256",
              "name": "tokenId",
              "type": "uint256"
            },
            {
              "internalType": "uint256",
              "name": "startTime",
              "type": "uint256"
            },
            {
              "internalType": "uint256",
              "name": "endTime",
              "type": "uint256"
            },
            {
              "internalType": "uint256",
              "name": "quantity",
              "type": "uint256"
            },
            {
              "internalType": "address",
              "name": "currency",
              "type": "address"
            },
            {
              "internalType": "uint256",
              "name": "reservePricePerToken",
              "type": "uint256"
            },
            {
              "internalType": "uint256",
              "name": "buyoutPricePerToken",
              "type": "uint256"
            },
            {
              "internalType": "enum IMarket.TokenType",
              "name": "tokenType",
              "type": "uint8"
            },
            {
              "internalType": "enum IMarket.ListingType",
              "name": "listingType",
              "type": "uint8"
            }
          ],
          "indexed": false,
          "internalType": "struct IMarket.Listing",
          "name": "listing",
          "type": "tuple"
        }
      ],
      "name": "NewBid",
      "type": "event"
    },
    {
      "anonymous": false,
      "inputs": [
        {
          "indexed": true,
          "internalType": "address",
          "name": "assetContract",
          "type": "address"
        },
        {
          "indexed": true,
          "internalType": "address",
          "name": "seller",
          "type": "address"
        },
        {
          "indexed": true,
          "internalType": "uint256",
          "name": "listingId",
          "type": "uint256"
        },
        {
          "indexed": false,
          "internalType": "address",
          "name": "buyer",
          "type": "address"
        },
        {
          "indexed": false,
          "internalType": "uint256",
          "name": "quantity",
          "type": "uint256"
        },
        {
          "components": [
            {
              "internalType": "uint256",
              "name": "listingId",
              "type": "uint256"
            },
            {
              "internalType": "address",
              "name": "tokenOwner",
              "type": "address"
            },
            {
              "internalType": "address",
              "name": "assetContract",
              "type": "address"
            },
            {
              "internalType": "uint256",
              "name": "tokenId",
              "type": "uint256"
            },
            {
              "internalType": "uint256",
              "name": "startTime",
              "type": "uint256"
            },
            {
              "internalType": "uint256",
              "name": "endTime",
              "type": "uint256"
            },
            {
              "internalType": "uint256",
              "name": "quantity",
              "type": "uint256"
            },
            {
              "internalType": "address",
              "name": "currency",
              "type": "address"
            },
            {
              "internalType": "uint256",
              "name": "reservePricePerToken",
              "type": "uint256"
            },
            {
              "internalType": "uint256",
              "name": "buyoutPricePerToken",
              "type": "uint256"
            },
            {
              "internalType": "enum IMarket.TokenType",
              "name": "tokenType",
              "type": "uint8"
            },
            {
              "internalType": "enum IMarket.ListingType",
              "name": "listingType",
              "type": "uint8"
            }
          ],
          "indexed": false,
          "internalType": "struct IMarket.Listing",
          "name": "listing",
          "type": "tuple"
        }
      ],
      "name": "NewDirectSale",
      "type": "event"
    },
    {
      "anonymous": false,
      "inputs": [
        {
          "indexed": true,
          "internalType": "address",
          "name": "assetContract",
          "type": "address"
        },
        {
          "indexed": true,
          "internalType": "address",
          "name": "seller",
          "type": "address"
        },
        {
          "indexed": true,
          "internalType": "uint256",
          "name": "listingId",
          "type": "uint256"
        },
        {
          "components": [
            {
              "internalType": "uint256",
              "name": "listingId",
              "type": "uint256"
            },
            {
              "internalType": "address",
              "name": "tokenOwner",
              "type": "address"
            },
            {
              "internalType": "address",
              "name": "assetContract",
              "type": "address"
            },
            {
              "internalType": "uint256",
              "name": "tokenId",
              "type": "uint256"
            },
            {
              "internalType": "uint256",
              "name": "startTime",
              "type": "uint256"
            },
            {
              "internalType": "uint256",
              "name": "endTime",
              "type": "uint256"
            },
            {
              "internalType": "uint256",
              "name": "quantity",
              "type": "uint256"
            },
            {
              "internalType": "address",
              "name": "currency",
              "type": "address"
            },
            {
              "internalType": "uint256",
              "name": "reservePricePerToken",
              "type": "uint256"
            },
            {
              "internalType": "uint256",
              "name": "buyoutPricePerToken",
              "type": "uint256"
            },
            {
              "internalType": "enum IMarket.TokenType",
              "name": "tokenType",
              "type": "uint8"
            },
            {
              "internalType": "enum IMarket.ListingType",
              "name": "listingType",
              "type": "uint8"
            }
          ],
          "indexed": false,
          "internalType": "struct IMarket.Listing",
          "name": "listing",
          "type": "tuple"
        }
      ],
      "name": "NewListing",
      "type": "event"
    },
    {
      "anonymous": false,
      "inputs": [
        {
          "indexed": true,
          "internalType": "uint256",
          "name": "listingId",
          "type": "uint256"
        },
        {
          "indexed": true,
          "internalType": "address",
          "name": "offeror",
          "type": "address"
        },
        {
          "components": [
            {
              "internalType": "uint256",
              "name": "listingId",
              "type": "uint256"
            },
            {
              "internalType": "address",
              "name": "offeror",
              "type": "address"
            },
            {
              "internalType": "uint256",
              "name": "quantityWanted",
              "type": "uint256"
            },
            {
              "internalType": "address",
              "name": "currency",
              "type": "address"
            },
            {
              "internalType": "uint256",
              "name": "pricePerToken",
              "type": "uint256"
            }
          ],
          "indexed": false,
          "internalType": "struct IMarket.Offer",
          "name": "offer",
          "type": "tuple"
        },
        {
          "components": [
            {
              "internalType": "uint256",
              "name": "listingId",
              "type": "uint256"
            },
            {
              "internalType": "address",
              "name": "tokenOwner",
              "type": "address"
            },
            {
              "internalType": "address",
              "name": "assetContract",
              "type": "address"
            },
            {
              "internalType": "uint256",
              "name": "tokenId",
              "type": "uint256"
            },
            {
              "internalType": "uint256",
              "name": "startTime",
              "type": "uint256"
            },
            {
              "internalType": "uint256",
              "name": "endTime",
              "type": "uint256"
            },
            {
              "internalType": "uint256",
              "name": "quantity",
              "type": "uint256"
            },
            {
              "internalType": "address",
              "name": "currency",
              "type": "address"
            },
            {
              "internalType": "uint256",
              "name": "reservePricePerToken",
              "type": "uint256"
            },
            {
              "internalType": "uint256",
              "name": "buyoutPricePerToken",
              "type": "uint256"
            },
            {
              "internalType": "enum IMarket.TokenType",
              "name": "tokenType",
              "type": "uint8"
            },
            {
              "internalType": "enum IMarket.ListingType",
              "name": "listingType",
              "type": "uint8"
            }
          ],
          "indexed": false,
          "internalType": "struct IMarket.Listing",
          "name": "listing",
          "type": "tuple"
        }
      ],
      "name": "NewOffer",
      "type": "event"
    },
    {
      "anonymous": false,
      "inputs": [
        {
          "indexed": false,
          "internalType": "bool",
          "name": "restricted",
          "type": "bool"
        }
      ],
      "name": "RestrictedListerRoleUpdated",
      "type": "event"
    },
    {
      "anonymous": false,
      "inputs": [
        {
          "indexed": true,
          "internalType": "bytes32",
          "name": "role",
          "type": "bytes32"
        },
        {
          "indexed": true,
          "internalType": "bytes32",
          "name": "previousAdminRole",
          "type": "bytes32"
        },
        {
          "indexed": true,
          "internalType": "bytes32",
          "name": "newAdminRole",
          "type": "bytes32"
        }
      ],
      "name": "RoleAdminChanged",
      "type": "event"
    },
    {
      "anonymous": false,
      "inputs": [
        {
          "indexed": true,
          "internalType": "bytes32",
          "name": "role",
          "type": "bytes32"
        },
        {
          "indexed": true,
          "internalType": "address",
          "name": "account",
          "type": "address"
        },
        {
          "indexed": true,
          "internalType": "address",
          "name": "sender",
          "type": "address"
        }
      ],
      "name": "RoleGranted",
      "type": "event"
    },
    {
      "anonymous": false,
      "inputs": [
        {
          "indexed": true,
          "internalType": "bytes32",
          "name": "role",
          "type": "bytes32"
        },
        {
          "indexed": true,
          "internalType": "address",
          "name": "account",
          "type": "address"
        },
        {
          "indexed": true,
          "internalType": "address",
          "name": "sender",
          "type": "address"
        }
      ],
      "name": "RoleRevoked",
      "type": "event"
    },
    {
      "inputs": [],
      "name": "DEFAULT_ADMIN_ROLE",
      "outputs": [
        {
          "internalType": "bytes32",
          "name": "",
          "type": "bytes32"
        }
      ],
      "stateMutability": "view",
      "type": "function"
    },
    {
      "inputs": [],
      "name": "LISTER_ROLE",
      "outputs": [
        {
          "internalType": "bytes32",
          "name": "",
          "type": "bytes32"
        }
      ],
      "stateMutability": "view",
      "type": "function"
    },
    {
      "inputs": [],
      "name": "MAX_BPS",
      "outputs": [
        {
          "internalType": "uint64",
          "name": "",
          "type": "uint64"
        }
      ],
      "stateMutability": "view",
      "type": "function"
    },
    {
      "inputs": [],
      "name": "_contractURI",
      "outputs": [
        {
          "internalType": "string",
          "name": "",
          "type": "string"
        }
      ],
      "stateMutability": "view",
      "type": "function"
    },
    {
      "inputs": [
        {
          "internalType": "uint256",
          "name": "_listingId",
          "type": "uint256"
        },
        {
          "internalType": "address",
          "name": "offeror",
          "type": "address"
        }
      ],
      "name": "acceptOffer",
      "outputs": [],
      "stateMutability": "nonpayable",
      "type": "function"
    },
    {
      "inputs": [],
      "name": "bidBufferBps",
      "outputs": [
        {
          "internalType": "uint64",
          "name": "",
          "type": "uint64"
        }
      ],
      "stateMutability": "view",
      "type": "function"
    },
    {
      "inputs": [
        {
          "internalType": "uint256",
          "name": "_listingId",
          "type": "uint256"
        },
        {
          "internalType": "uint256",
          "name": "_quantityToBuy",
          "type": "uint256"
        }
      ],
      "name": "buy",
      "outputs": [],
      "stateMutability": "payable",
      "type": "function"
    },
    {
      "inputs": [
        {
          "internalType": "uint256",
          "name": "_listingId",
          "type": "uint256"
        }
      ],
      "name": "closeAuction",
      "outputs": [],
      "stateMutability": "nonpayable",
      "type": "function"
    },
    {
      "inputs": [],
      "name": "contractURI",
      "outputs": [
        {
          "internalType": "string",
          "name": "",
          "type": "string"
        }
      ],
      "stateMutability": "view",
      "type": "function"
    },
    {
      "inputs": [
        {
          "components": [
            {
              "internalType": "address",
              "name": "assetContract",
              "type": "address"
            },
            {
              "internalType": "uint256",
              "name": "tokenId",
              "type": "uint256"
            },
            {
              "internalType": "uint256",
              "name": "secondsUntilStartTime",
              "type": "uint256"
            },
            {
              "internalType": "uint256",
              "name": "secondsUntilEndTime",
              "type": "uint256"
            },
            {
              "internalType": "uint256",
              "name": "quantityToList",
              "type": "uint256"
            },
            {
              "internalType": "address",
              "name": "currencyToAccept",
              "type": "address"
            },
            {
              "internalType": "uint256",
              "name": "reservePricePerToken",
              "type": "uint256"
            },
            {
              "internalType": "uint256",
              "name": "buyoutPricePerToken",
              "type": "uint256"
            },
            {
              "internalType": "enum IMarket.ListingType",
              "name": "listingType",
              "type": "uint8"
            }
          ],
          "internalType": "struct IMarket.ListingParameters",
          "name": "_params",
          "type": "tuple"
        }
      ],
      "name": "createListing",
      "outputs": [],
      "stateMutability": "nonpayable",
      "type": "function"
    },
    {
      "inputs": [
        {
          "internalType": "uint256",
          "name": "_listingId",
          "type": "uint256"
        },
        {
          "internalType": "uint256",
          "name": "_quantityToList",
          "type": "uint256"
        },
        {
          "internalType": "uint256",
          "name": "_reservePricePerToken",
          "type": "uint256"
        },
        {
          "internalType": "uint256",
          "name": "_buyoutPricePerToken",
          "type": "uint256"
        },
        {
          "internalType": "address",
          "name": "_currencyToAccept",
          "type": "address"
        },
        {
          "internalType": "uint256",
          "name": "_secondsUntilStartTime",
          "type": "uint256"
        },
        {
          "internalType": "uint256",
          "name": "_secondsUntilEndTime",
          "type": "uint256"
        }
      ],
      "name": "editListingParametrs",
      "outputs": [],
      "stateMutability": "nonpayable",
      "type": "function"
    },
    {
      "inputs": [
        {
          "internalType": "bytes32",
          "name": "role",
          "type": "bytes32"
        }
      ],
      "name": "getRoleAdmin",
      "outputs": [
        {
          "internalType": "bytes32",
          "name": "",
          "type": "bytes32"
        }
      ],
      "stateMutability": "view",
      "type": "function"
    },
    {
      "inputs": [
        {
          "internalType": "bytes32",
          "name": "role",
          "type": "bytes32"
        },
        {
          "internalType": "uint256",
          "name": "index",
          "type": "uint256"
        }
      ],
      "name": "getRoleMember",
      "outputs": [
        {
          "internalType": "address",
          "name": "",
          "type": "address"
        }
      ],
      "stateMutability": "view",
      "type": "function"
    },
    {
      "inputs": [
        {
          "internalType": "bytes32",
          "name": "role",
          "type": "bytes32"
        }
      ],
      "name": "getRoleMemberCount",
      "outputs": [
        {
          "internalType": "uint256",
          "name": "",
          "type": "uint256"
        }
      ],
      "stateMutability": "view",
      "type": "function"
    },
    {
      "inputs": [
        {
          "internalType": "bytes32",
          "name": "role",
          "type": "bytes32"
        },
        {
          "internalType": "address",
          "name": "account",
          "type": "address"
        }
      ],
      "name": "grantRole",
      "outputs": [],
      "stateMutability": "nonpayable",
      "type": "function"
    },
    {
      "inputs": [
        {
          "internalType": "bytes32",
          "name": "role",
          "type": "bytes32"
        },
        {
          "internalType": "address",
          "name": "account",
          "type": "address"
        }
      ],
      "name": "hasRole",
      "outputs": [
        {
          "internalType": "bool",
          "name": "",
          "type": "bool"
        }
      ],
      "stateMutability": "view",
      "type": "function"
    },
    {
      "inputs": [
        {
          "internalType": "address",
          "name": "forwarder",
          "type": "address"
        }
      ],
      "name": "isTrustedForwarder",
      "outputs": [
        {
          "internalType": "bool",
          "name": "",
          "type": "bool"
        }
      ],
      "stateMutability": "view",
      "type": "function"
    },
    {
      "inputs": [
        {
          "internalType": "uint256",
          "name": "",
          "type": "uint256"
        }
      ],
      "name": "listings",
      "outputs": [
        {
          "internalType": "uint256",
          "name": "listingId",
          "type": "uint256"
        },
        {
          "internalType": "address",
          "name": "tokenOwner",
          "type": "address"
        },
        {
          "internalType": "address",
          "name": "assetContract",
          "type": "address"
        },
        {
          "internalType": "uint256",
          "name": "tokenId",
          "type": "uint256"
        },
        {
          "internalType": "uint256",
          "name": "startTime",
          "type": "uint256"
        },
        {
          "internalType": "uint256",
          "name": "endTime",
          "type": "uint256"
        },
        {
          "internalType": "uint256",
          "name": "quantity",
          "type": "uint256"
        },
        {
          "internalType": "address",
          "name": "currency",
          "type": "address"
        },
        {
          "internalType": "uint256",
          "name": "reservePricePerToken",
          "type": "uint256"
        },
        {
          "internalType": "uint256",
          "name": "buyoutPricePerToken",
          "type": "uint256"
        },
        {
          "internalType": "enum IMarket.TokenType",
          "name": "tokenType",
          "type": "uint8"
        },
        {
          "internalType": "enum IMarket.ListingType",
          "name": "listingType",
          "type": "uint8"
        }
      ],
      "stateMutability": "view",
      "type": "function"
    },
    {
      "inputs": [],
      "name": "marketFeeBps",
      "outputs": [
        {
          "internalType": "uint64",
          "name": "",
          "type": "uint64"
        }
      ],
      "stateMutability": "view",
      "type": "function"
    },
    {
      "inputs": [
        {
          "internalType": "bytes[]",
          "name": "data",
          "type": "bytes[]"
        }
      ],
      "name": "multicall",
      "outputs": [
        {
          "internalType": "bytes[]",
          "name": "results",
          "type": "bytes[]"
        }
      ],
      "stateMutability": "nonpayable",
      "type": "function"
    },
    {
      "inputs": [],
      "name": "nativeToken",
      "outputs": [
        {
          "internalType": "address",
          "name": "",
          "type": "address"
        }
      ],
      "stateMutability": "view",
      "type": "function"
    },
    {
      "inputs": [],
      "name": "nativeTokenWrapper",
      "outputs": [
        {
          "internalType": "address",
          "name": "",
          "type": "address"
        }
      ],
      "stateMutability": "view",
      "type": "function"
    },
    {
      "inputs": [
        {
          "internalType": "uint256",
          "name": "_listingId",
          "type": "uint256"
        },
        {
          "internalType": "uint256",
          "name": "_quantityWanted",
          "type": "uint256"
        },
        {
          "internalType": "address",
          "name": "_currency",
          "type": "address"
        },
        {
          "internalType": "uint256",
          "name": "_pricePerToken",
          "type": "uint256"
        }
      ],
      "name": "offer",
      "outputs": [],
      "stateMutability": "payable",
      "type": "function"
    },
    {
      "inputs": [
        {
          "internalType": "uint256",
          "name": "",
          "type": "uint256"
        },
        {
          "internalType": "address",
          "name": "",
          "type": "address"
        }
      ],
      "name": "offers",
      "outputs": [
        {
          "internalType": "uint256",
          "name": "listingId",
          "type": "uint256"
        },
        {
          "internalType": "address",
          "name": "offeror",
          "type": "address"
        },
        {
          "internalType": "uint256",
          "name": "quantityWanted",
          "type": "uint256"
        },
        {
          "internalType": "address",
          "name": "currency",
          "type": "address"
        },
        {
          "internalType": "uint256",
          "name": "pricePerToken",
          "type": "uint256"
        }
      ],
      "stateMutability": "view",
      "type": "function"
    },
    {
      "inputs": [
        {
          "internalType": "address",
          "name": "",
          "type": "address"
        },
        {
          "internalType": "address",
          "name": "",
          "type": "address"
        },
        {
          "internalType": "uint256[]",
          "name": "",
          "type": "uint256[]"
        },
        {
          "internalType": "uint256[]",
          "name": "",
          "type": "uint256[]"
        },
        {
          "internalType": "bytes",
          "name": "",
          "type": "bytes"
        }
      ],
      "name": "onERC1155BatchReceived",
      "outputs": [
        {
          "internalType": "bytes4",
          "name": "",
          "type": "bytes4"
        }
      ],
      "stateMutability": "nonpayable",
      "type": "function"
    },
    {
      "inputs": [
        {
          "internalType": "address",
          "name": "",
          "type": "address"
        },
        {
          "internalType": "address",
          "name": "",
          "type": "address"
        },
        {
          "internalType": "uint256",
          "name": "",
          "type": "uint256"
        },
        {
          "internalType": "uint256",
          "name": "",
          "type": "uint256"
        },
        {
          "internalType": "bytes",
          "name": "",
          "type": "bytes"
        }
      ],
      "name": "onERC1155Received",
      "outputs": [
        {
          "internalType": "bytes4",
          "name": "",
          "type": "bytes4"
        }
      ],
      "stateMutability": "nonpayable",
      "type": "function"
    },
    {
      "inputs": [
        {
          "internalType": "address",
          "name": "",
          "type": "address"
        },
        {
          "internalType": "address",
          "name": "",
          "type": "address"
        },
        {
          "internalType": "uint256",
          "name": "",
          "type": "uint256"
        },
        {
          "internalType": "bytes",
          "name": "",
          "type": "bytes"
        }
      ],
      "name": "onERC721Received",
      "outputs": [
        {
          "internalType": "bytes4",
          "name": "",
          "type": "bytes4"
        }
      ],
      "stateMutability": "pure",
      "type": "function"
    },
    {
      "inputs": [
        {
          "internalType": "bytes32",
          "name": "role",
          "type": "bytes32"
        },
        {
          "internalType": "address",
          "name": "account",
          "type": "address"
        }
      ],
      "name": "renounceRole",
      "outputs": [],
      "stateMutability": "nonpayable",
      "type": "function"
    },
    {
      "inputs": [],
      "name": "restrictedListerRoleOnly",
      "outputs": [
        {
          "internalType": "bool",
          "name": "",
          "type": "bool"
        }
      ],
      "stateMutability": "view",
      "type": "function"
    },
    {
      "inputs": [
        {
          "internalType": "bytes32",
          "name": "role",
          "type": "bytes32"
        },
        {
          "internalType": "address",
          "name": "account",
          "type": "address"
        }
      ],
      "name": "revokeRole",
      "outputs": [],
      "stateMutability": "nonpayable",
      "type": "function"
    },
    {
      "inputs": [
        {
          "internalType": "uint256",
          "name": "_timeBuffer",
          "type": "uint256"
        },
        {
          "internalType": "uint256",
          "name": "_bidBufferBps",
          "type": "uint256"
        }
      ],
      "name": "setAuctionBuffers",
      "outputs": [],
      "stateMutability": "nonpayable",
      "type": "function"
    },
    {
      "inputs": [
        {
          "internalType": "string",
          "name": "_uri",
          "type": "string"
        }
      ],
      "name": "setContractURI",
      "outputs": [],
      "stateMutability": "nonpayable",
      "type": "function"
    },
    {
      "inputs": [
        {
          "internalType": "uint256",
          "name": "_feeBps",
          "type": "uint256"
        }
      ],
      "name": "setMarketFeeBps",
      "outputs": [],
      "stateMutability": "nonpayable",
      "type": "function"
    },
    {
      "inputs": [
        {
          "internalType": "bool",
          "name": "restricted",
          "type": "bool"
        }
      ],
      "name": "setRestrictedListerRoleOnly",
      "outputs": [],
      "stateMutability": "nonpayable",
      "type": "function"
    },
    {
      "inputs": [
        {
          "internalType": "bytes4",
          "name": "interfaceId",
          "type": "bytes4"
        }
      ],
      "name": "supportsInterface",
      "outputs": [
        {
          "internalType": "bool",
          "name": "",
          "type": "bool"
        }
      ],
      "stateMutability": "view",
      "type": "function"
    },
    {
      "inputs": [],
      "name": "timeBuffer",
      "outputs": [
        {
          "internalType": "uint64",
          "name": "",
          "type": "uint64"
        }
      ],
      "stateMutability": "view",
      "type": "function"
    },
    {
      "inputs": [],
      "name": "totalListings",
      "outputs": [
        {
          "internalType": "uint256",
          "name": "",
          "type": "uint256"
        }
      ],
      "stateMutability": "view",
      "type": "function"
    },
    {
      "inputs": [
        {
          "internalType": "uint256",
          "name": "",
          "type": "uint256"
        }
      ],
      "name": "winningBid",
      "outputs": [
        {
          "internalType": "uint256",
          "name": "listingId",
          "type": "uint256"
        },
        {
          "internalType": "address",
          "name": "offeror",
          "type": "address"
        },
        {
          "internalType": "uint256",
          "name": "quantityWanted",
          "type": "uint256"
        },
        {
          "internalType": "address",
          "name": "currency",
          "type": "address"
        },
        {
          "internalType": "uint256",
          "name": "pricePerToken",
          "type": "uint256"
        }
      ],
      "stateMutability": "view",
      "type": "function"
    }
  ],
  "bytecode": "0x60a060405260078054600160481b600160c81b0319167201f400000000000003840000000000000000001790553480156200003957600080fd5b50604051620063dc380380620063dc8339810160408190526200005c9162000395565b6001600255600380546001600160a01b0319166001600160a01b038616179055815162000091906006906020850190620002ef565b50600480546001600160a01b0319166001600160a01b038716179055606083901b6001600160601b03191660805260078054610100600160481b0319166101006001600160401b03841602179055620000f56000620000ef6200012f565b6200014b565b620001247ff94103142c1baabe9ac2b5d1487bf783de9e69cfeea9a72f5c9c94afd7877b8c620000ef6200012f565b505050505062000525565b6000620001466200018e60201b620031401760201c565b905090565b620001628282620001c760201b6200316d1760201c565b6000828152600160209081526040909120620001899183906200317b620001d7821b17901c565b505050565b6003546000906001600160a01b0316331415620001b2575060131936013560601c90565b62000146620001f760201b620031901760201c565b620001d38282620001fb565b5050565b6000620001ee836001600160a01b0384166200029d565b90505b92915050565b3390565b6000828152602081815260408083206001600160a01b038516845290915290205460ff16620001d3576000828152602081815260408083206001600160a01b03851684529091529020805460ff19166001179055620002596200012f565b6001600160a01b0316816001600160a01b0316837f2f8788117e7eff1d82e926ec794901d17c78024a50270940304540a733656f0d60405160405180910390a45050565b6000818152600183016020526040812054620002e657508154600181810184556000848152602080822090930184905584548482528286019093526040902091909155620001f1565b506000620001f1565b828054620002fd90620004b9565b90600052602060002090601f0160209004810192826200032157600085556200036c565b82601f106200033c57805160ff19168380011785556200036c565b828001600101855582156200036c579182015b828111156200036c5782518255916020019190600101906200034f565b506200037a9291506200037e565b5090565b5b808211156200037a57600081556001016200037f565b600080600080600060a08688031215620003ad578081fd5b8551620003ba816200050c565b80955050602080870151620003cf816200050c565b6040880151909550620003e2816200050c565b60608801519094506001600160401b0380821115620003ff578384fd5b818901915089601f83011262000413578384fd5b815181811115620004285762000428620004f6565b604051601f8201601f19908116603f01168101908382118183101715620004535762000453620004f6565b816040528281528c868487010111156200046b578687fd5b8693505b828410156200048e57848401860151818501870152928501926200046f565b828411156200049f57868684830101525b809750505050505050608086015190509295509295909350565b600181811c90821680620004ce57607f821691505b60208210811415620004f057634e487b7160e01b600052602260045260246000fd5b50919050565b634e487b7160e01b600052604160045260246000fd5b6001600160a01b03811681146200052257600080fd5b50565b60805160601c615e83620005596000396000818161091901528181614743015281816147b701526148c20152615e836000f3fe6080604052600436106102855760003560e01c8063bc197c8111610153578063deb26b94116100cb578063ebdfbce51161007f578063f23a6e6111610064578063f23a6e61146108db578063f9ea29cb14610907578063fd967f471461093b57600080fd5b8063ebdfbce51461084d578063ec91f2a4146108ad57600080fd5b8063e4104eaf116100b0578063e4104eaf146107f8578063e8a3d48514610818578063ea0e02411461082d57600080fd5b8063deb26b941461079c578063e1758bd8146107d057600080fd5b8063ca15c87311610122578063d547741f11610107578063d547741f146106c4578063d6febde8146106e4578063de74e57b146106f757600080fd5b8063ca15c8731461061d578063d4ac9b8c1461063d57600080fd5b8063bc197c8114610599578063bcebc644146105c5578063c0e72740146105e5578063c78b616c1461060757600080fd5b80634e03f28d1161020157806391d14854116101b5578063a217fddf1161019a578063a217fddf14610544578063ac9650d814610559578063acb1ba671461058657600080fd5b806391d14854146104e0578063938e3d7b1461052457600080fd5b806361096ec6116101e657806361096ec61461046e5780639010d07c14610488578063918d407d146104c057600080fd5b80634e03f28d14610417578063572b6c051461043f57600080fd5b8063296f4e1611610258578063354c7ab61161023d578063354c7ab61461039857806336568abe146103b85780633f5c3e87146103d857600080fd5b8063296f4e16146103585780632f2ff15d1461037857600080fd5b806301ffc9a71461028a578063150b7a02146102bf578063236ed8f3146102f8578063248a9ca31461031a575b600080fd5b34801561029657600080fd5b506102aa6102a5366004615721565b610951565b60405190151581526020015b60405180910390f35b3480156102cb57600080fd5b506102df6102da3660046154f4565b6109a3565b6040516001600160e01b031990911681526020016102b6565b34801561030457600080fd5b506103186103133660046156a1565b6109b5565b005b34801561032657600080fd5b5061034a6103353660046156a1565b60009081526020819052604090206001015490565b6040519081526020016102b6565b34801561036457600080fd5b50610318610373366004615789565b611261565b34801561038457600080fd5b506103186103933660046156d1565b611649565b3480156103a457600080fd5b506103186103b3366004615669565b611670565b3480156103c457600080fd5b506103186103d33660046156d1565b611711565b3480156103e457600080fd5b506007546103fe90610100900467ffffffffffffffff1681565b60405167ffffffffffffffff90911681526020016102b6565b34801561042357600080fd5b506007546103fe90600160881b900467ffffffffffffffff1681565b34801561044b57600080fd5b506102aa61045a366004615412565b6003546001600160a01b0391821691161490565b34801561047a57600080fd5b506007546102aa9060ff1681565b34801561049457600080fd5b506104a86104a3366004615700565b611733565b6040516001600160a01b0390911681526020016102b6565b3480156104cc57600080fd5b506103186104db3660046156d1565b611752565b3480156104ec57600080fd5b506102aa6104fb3660046156d1565b6000918252602082815260408084206001600160a01b0393909316845291905290205460ff1690565b34801561053057600080fd5b5061031861053f366004615749565b611cc7565b34801561055057600080fd5b5061034a600081565b34801561056557600080fd5b506105796105743660046155f9565b611e4e565b6040516102b69190615adb565b610318610594366004615814565b611f6d565b3480156105a557600080fd5b506102df6105b436600461544a565b63bc197c8160e01b95945050505050565b3480156105d157600080fd5b506103186105e0366004615852565b612517565b3480156105f157600080fd5b506105fa612a23565b6040516102b69190615b3c565b34801561061357600080fd5b5061034a60055481565b34801561062957600080fd5b5061034a6106383660046156a1565b612ab1565b34801561064957600080fd5b506106926106583660046156a1565b600a602052600090815260409020805460018201546002830154600384015460049094015492936001600160a01b03928316939192169085565b604080519586526001600160a01b0394851660208701528501929092529091166060830152608082015260a0016102b6565b3480156106d057600080fd5b506103186106df3660046156d1565b612ac8565b6103186106f2366004615700565b612ad2565b34801561070357600080fd5b506107846107123660046156a1565b600860208190526000918252604090912080546001820154600283015460038401546004850154600586015460068701546007880154988801546009890154600a9099015497996001600160a01b03978816999688169895979496939592941692909160ff808216916101009004168c565b6040516102b69c9b9a99989796959493929190615bb4565b3480156107a857600080fd5b5061034a7ff94103142c1baabe9ac2b5d1487bf783de9e69cfeea9a72f5c9c94afd7877b8c81565b3480156107dc57600080fd5b506104a873eeeeeeeeeeeeeeeeeeeeeeeeeeeeeeeeeeeeeeee81565b34801561080457600080fd5b506103186108133660046156a1565b612e50565b34801561082457600080fd5b506105fa612f52565b34801561083957600080fd5b50610318610848366004615700565b612fe4565b34801561085957600080fd5b506106926108683660046156d1565b60096020908152600092835260408084209091529082529020805460018201546002830154600384015460049094015492936001600160a01b03928316939192169085565b3480156108b957600080fd5b506007546103fe906901000000000000000000900467ffffffffffffffff1681565b3480156108e757600080fd5b506102df6108f6366004615565565b63f23a6e6160e01b95945050505050565b34801561091357600080fd5b506104a87f000000000000000000000000000000000000000000000000000000000000000081565b34801561094757600080fd5b506103fe61271081565b60006001600160e01b03198216630271189760e51b148061098257506001600160e01b03198216630a85bd0160e11b145b8061099d57506001600160e01b0319821663152a902d60e11b145b92915050565b630a85bd0160e11b5b95945050505050565b600280541415610a0c5760405162461bcd60e51b815260206004820152601f60248201527f5265656e7472616e637947756172643a207265656e7472616e742063616c6c0060448201526064015b60405180910390fd5b60028080556000828152600860208181526040808420815161018081018352815481526001808301546001600160a01b0390811695830195909552968201548416928101929092526003810154606083015260048101546080830152600581015460a0830152600681015460c0830152600781015490921660e0820152918101546101008301526009810154610120830152600a81015492939192909161014084019160ff1690811115610ad057634e487b7160e01b600052602160045260246000fd5b6001811115610aef57634e487b7160e01b600052602160045260246000fd5b8152602001600a820160019054906101000a900460ff166001811115610b2557634e487b7160e01b600052602160045260246000fd5b6001811115610b4457634e487b7160e01b600052602160045260246000fd5b9052506000838152600a60209081526040808320815160a0810183528154815260018201546001600160a01b0390811694820194909452600282015492810192909252600381015490921660608201526004909101546080820152919250610baa613194565b90504283608001511115610dd3576000848152600860205260409020600101546001600160a01b03828116911614610c4a5760405162461bcd60e51b815260206004820152602a60248201527f4d61726b65743a2063616c6c6572206973206e6f7420746865206c697374696e60448201527f672063726561746f722e000000000000000000000000000000000000000000006064820152608401610a03565b60c08301805160008083524260a08701908152878252600860208181526040938490208951815590890151600180830180546001600160a01b039384166001600160a01b031991821617909155958b015160028401805491841691881691909117905560608b0151600384015560808b01516004840155935160058301559551600682015560e089015160078201805491909716941693909317909455610100870151938201939093556101208601516009820155610140860151600a820180549394889460ff1916908381811115610d3357634e487b7160e01b600052602160045260246000fd5b0217905550610160820151600a8201805461ff001916610100836001811115610d6c57634e487b7160e01b600052602160045260246000fd5b0217905550905050610d84308560200151838761319e565b83602001516001600160a01b0316857fb0d30498d58f551f4a1d6eec2a2e87f7ad9738e3f4f07897f50e87c15b27455886604051610dc29190615b4f565b60405180910390a350505050611259565b82602001516001600160a01b0316816001600160a01b03161480610e0c575081602001516001600160a01b0316816001600160a01b0316145b610e7e5760405162461bcd60e51b815260206004820152602a60248201527f4d61726b65743a206d75737420626520626964646572206f722061756374696f60448201527f6e2063726561746f722e000000000000000000000000000000000000000000006064820152608401610a03565b60018361016001516001811115610ea557634e487b7160e01b600052602160045260246000fd5b14610efd5760405162461bcd60e51b815260206004820152602260248201527f4d61726b65743a206c697374696e67206973206e6f7420616e2061756374696f604482015261371760f11b6064820152608401610a03565b428360a0015110610f765760405162461bcd60e51b815260206004820152603260248201527f4d61726b65743a2063616e206f6e6c7920636c6f73652061756374696f6e206160448201527f667465722069742068617320656e6465642e00000000000000000000000000006064820152608401610a03565b82602001516001600160a01b0316610f8c613194565b6001600160a01b0316141561116357600082604001518360800151610fb19190615d10565b600060c086018181524260a08801908152888352600860208181526040948590208a518155908a0151600180830180546001600160a01b039384166001600160a01b031991821617909155968c015160028401805491841691891691909117905560608c0151600384015560808c01516004840155935160058301559351600682015560e08a015160078201805491909516951694909417909255610100880151918301919091556101208701516009830155610140870151600a8301805494955088949192909160ff191690838181111561109d57634e487b7160e01b600052602160045260246000fd5b0217905550610160820151600a8201805461ff0019166101008360018111156110d657634e487b7160e01b600052602160045260246000fd5b021790555050600060808501818152878252600a602090815260409283902087518155818801516001820180546001600160a01b03199081166001600160a01b03938416179091559489015160028301556060890151600383018054909616911617909355905160049092019190915585015160e086015161115d92503091908488613311565b50611205565b81602001516001600160a01b0316611179613194565b6001600160a01b0316141561120557604082810180516000808352878152600a602090815293902085518155928501516001840180546001600160a01b03199081166001600160a01b03808516919091179092559351600286015560608701516003860180549095169116179092556080850151600490930192909255611203903090838761319e565b505b806001600160a01b0316847f50ac7797abdd874a5f47b37efd62cb303828db8981674771998d2120a5a4199985602001518560200151868860405161124d9493929190615a41565b60405180910390a35050505b506001600255565b60075460ff16158061129a575061129a7ff94103142c1baabe9ac2b5d1487bf783de9e69cfeea9a72f5c9c94afd7877b8c6104fb613194565b61130c5760405162461bcd60e51b815260206004820152602960248201527f4d61726b65743a2063616c6c657220646f6573206e6f742068617665204c495360448201527f5445525f524f4c452e00000000000000000000000000000000000000000000006064820152608401610a03565b600061131661351d565b90506000611322613194565b90506000611333846000015161353b565b905060008460800151118015611363575061136382856000015186602001518760800151858961010001516136c7565b6113c85760405162461bcd60e51b815260206004820152603060248201527f4d61726b65743a206d757374206f776e20616e6420617070726f766520746f2060448201526f3a3930b739b332b9103a37b5b2b7399760811b6064820152608401610a03565b6000604051806101800160405280858152602001846001600160a01b0316815260200186600001516001600160a01b03168152602001866020015181526020018660400151426114189190615cd8565b8152602001866060015160001461143d5760608701516114389042615cd8565b611441565b6000195b8152602001611454848860800151613b2f565b81526020018660a001516001600160a01b031681526020018660c0015181526020018660e0015181526020018360018111156114a057634e487b7160e01b600052602160045260246000fd5b815260200186610100015160018111156114ca57634e487b7160e01b600052602160045260246000fd5b90526000858152600860208181526040928390208451815590840151600180830180546001600160a01b03199081166001600160a01b0394851617909155948601516002840180548716918416919091179055606086015160038401556080860151600484015560a0860151600584015560c0860151600684015560e0860151600784018054909616921691909117909355610100840151918101919091556101208301516009820155610140830151600a82018054949550859492939192909160ff199091169083818111156115b157634e487b7160e01b600052602160045260246000fd5b0217905550610160820151600a8201805461ff0019166101008360018111156115ea57634e487b7160e01b600052602160045260246000fd5b021790555090505083836001600160a01b031686600001516001600160a01b03167fd8a9bd7d189c9404a6954761b159187af5546fe099af5e1cbd585f3d0d2e246d8460405161163a9190615b4f565b60405180910390a45050505050565b6116538282613b74565b600082815260016020526040902061166b908261317b565b505050565b61167d60006104fb613194565b6116c95760405162461bcd60e51b815260206004820152601b60248201527f4d61726b65743a206e6f742061206d6f64756c652061646d696e2e00000000006044820152606401610a03565b6007805460ff19168215159081179091556040519081527f56668abce4c06e28f52176150c07856e31ee073b9b62df62a5afbf1a22aec24c906020015b60405180910390a150565b61171b8282613ba1565b600082815260016020526040902061166b9082613c39565b600082815260016020526040812061174b9083613c4e565b9392505050565b6002805414156117a45760405162461bcd60e51b815260206004820152601f60248201527f5265656e7472616e637947756172643a207265656e7472616e742063616c6c006044820152606401610a03565b60028055816117b1613194565b6000828152600860205260409020600101546001600160a01b0390811691161461182c5760405162461bcd60e51b815260206004820152602660248201527f4d61726b65743a2063616c6c6572206973206e6f74206c697374696e6720637260448201526532b0ba37b91760d11b6064820152608401610a03565b60008381526009602081815260408084206001600160a01b038088168652908352818520825160a08082018552825482526001808401548516838801526002808501548488015260038086015487166060808701919091526004968701546080808801919091528f8d526008808c528a8e208b5161018081018d5281548152818801548c169d81019d909d52948501548a169a8c019a909a5291830154908a01529481015494880194909452600584015491870191909152600683015460c0870152600783015490931660e08601529281015461010085015293840154610120840152600a8401549194939161014084019160ff9091169081111561194157634e487b7160e01b600052602160045260246000fd5b600181111561196057634e487b7160e01b600052602160045260246000fd5b8152602001600a820160019054906101000a900460ff16600181111561199657634e487b7160e01b600052602160045260246000fd5b60018111156119b557634e487b7160e01b600052602160045260246000fd5b9052509050600081610160015160018111156119e157634e487b7160e01b600052602160045260246000fd5b148015611a115750611a1181602001518260400151836060015185604001518561014001518661016001516136c7565b611a765760405162461bcd60e51b815260206004820152603060248201527f4d61726b65743a206d757374206f776e20616e6420617070726f766520746f2060448201526f3a3930b739b332b9103a37b5b2b7399760811b6064820152608401610a03565b60408201516080830151600090611a8e908390615d10565b60006040808701828152608088018381528b8452600960209081528385206001600160a01b03808e1687529082529390942089518155938901516001850180549185166001600160a01b0319928316179055915160028501556060890151600385018054919094169216919091179091555160049091015560c0840180519192508391611b1c908390615d2f565b9052506000878152600860208181526040928390208651815590860151600180830180546001600160a01b03199081166001600160a01b0394851617909155948801516002840180548716918416919091179055606088015160038401556080880151600484015560a0880151600584015560c0880151600684015560e0880151600784018054909616921691909117909355610100860151918101919091556101208501516009820155610140850151600a82018054879460ff19909116908381811115611bfb57634e487b7160e01b600052602160045260246000fd5b0217905550610160820151600a8201805461ff001916610100836001811115611c3457634e487b7160e01b600052602160045260246000fd5b0217905550905050611c5186846020015186606001518487613311565b611c61836020015187848661319e565b8683602001516001600160a01b031684604001516001600160a01b03167f3ccc07b7cdeffeb0c32f26a7aa313391a34d485229012dcdc8f332c27e11d7dc898688604051611cb193929190615aae565b60405180910390a4505060016002555050505050565b600480546040805163a217fddf60e01b815290516001600160a01b03909216926391d1485492849263a217fddf9281810192602092909190829003018186803b158015611d1357600080fd5b505afa158015611d27573d6000803e3d6000fd5b505050506040513d601f19601f82011682018060405250810190611d4b91906156b9565b611d53613194565b6040516001600160e01b031960e085901b16815260048101929092526001600160a01b0316602482015260440160206040518083038186803b158015611d9857600080fd5b505afa158015611dac573d6000803e3d6000fd5b505050506040513d601f19601f82011682018060405250810190611dd09190615685565b611e425760405162461bcd60e51b815260206004820152603560248201527f4d61726b65743a206f6e6c7920612070726f746f636f6c2061646d696e20636160448201527f6e2063616c6c20746869732066756e6374696f6e2e00000000000000000000006064820152608401610a03565b61166b6006838361522a565b60608167ffffffffffffffff811115611e7757634e487b7160e01b600052604160045260246000fd5b604051908082528060200260200182016040528015611eaa57816020015b6060815260200190600190039081611e955790505b50905060005b82811015611f6657611f2830858584818110611edc57634e487b7160e01b600052603260045260246000fd5b9050602002810190611eee9190615c38565b8080601f016020809104026020016040519081016040528093929190818152602001838380828437600092019190915250613c5a92505050565b828281518110611f4857634e487b7160e01b600052603260045260246000fd5b60200260200101819052508080611f5e90615dc4565b915050611eb0565b5092915050565b600280541415611fbf5760405162461bcd60e51b815260206004820152601f60248201527f5265656e7472616e637947756172643a207265656e7472616e742063616c6c006044820152606401610a03565b600280556000611fcd613194565b6000868152600860208181526040808420815161018081018352815481526001808301546001600160a01b039081169583019590955260028301548516938201939093526003820154606082015260048201546080820152600582015460a0820152600682015460c0820152600782015490931660e0840152928301546101008301526009830154610120830152600a8301549495509293909261014084019160ff169081111561208e57634e487b7160e01b600052602160045260246000fd5b60018111156120ad57634e487b7160e01b600052602160045260246000fd5b8152602001600a820160019054906101000a900460ff1660018111156120e357634e487b7160e01b600052602160045260246000fd5b600181111561210257634e487b7160e01b600052602160045260246000fd5b815250509050428160a0015111801561211e5750428160800151105b6121905760405162461bcd60e51b815260206004820152603160248201527f4d61726b65743a2063616e206f6e6c79206d616b65206f666665727320696e2060448201527f6c697374696e67206475726174696f6e2e0000000000000000000000000000006064820152608401610a03565b600080600183610160015160018111156121ba57634e487b7160e01b600052602160045260246000fd5b146121d457856121cf84610140015189613b2f565b6121ec565b8260e001516121ec8461014001518560c00151613b2f565b90925090506001836101600151600181111561221857634e487b7160e01b600052602160045260246000fd5b14156122fd576001600160a01b03821673eeeeeeeeeeeeeeeeeeeeeeeeeeeeeeeeeeeeeeee1461226d5760c08301516122519086615d10565b8360c001518461010001516122669190615d10565b1115612286565b348360c001518461010001516122839190615d10565b11155b6122f85760405162461bcd60e51b815260206004820152602a60248201527f4d61726b65743a206d757374206f66666572206174206c65617374207265736560448201527f7276652070726963652e000000000000000000000000000000000000000000006064820152608401610a03565b61239d565b6000836101600151600181111561232457634e487b7160e01b600052602160045260246000fd5b141561239d5760008360c00151116123895760405162461bcd60e51b815260206004820152602260248201527f4d61726b65743a206e6f20746f6b656e73206c697374656420666f722073616c604482015261329760f11b6064820152608401610a03565b61239d84836123988a89615d10565b613c7f565b60006040518060a001604052808a8152602001866001600160a01b03168152602001838152602001846001600160a01b0316815260200187815250905080600960008b81526020019081526020016000206000876001600160a01b03166001600160a01b031681526020019081526020016000206000820151816000015560208201518160010160006101000a8154816001600160a01b0302191690836001600160a01b031602179055506040820151816002015560608201518160030160006101000a8154816001600160a01b0302191690836001600160a01b0316021790555060808201518160040155905050846001600160a01b0316897f232a7221ad786148674e098a73505fab79234346b2557a59fcbf3790f3e8ef6083876040516124c8929190615b5e565b60405180910390a3600184610160015160018111156124f757634e487b7160e01b600052602160045260246000fd5b1415612507576125078482613e3b565b5050600160025550505050505050565b86612520613194565b6000828152600860205260409020600101546001600160a01b0390811691161461259b5760405162461bcd60e51b815260206004820152602660248201527f4d61726b65743a2063616c6c6572206973206e6f74206c697374696e6720637260448201526532b0ba37b91760d11b6064820152608401610a03565b6000888152600860208181526040808420815161018081018352815481526001808301546001600160a01b039081169583019590955260028301548516938201939093526003820154606082015260048201546080820152600582015460a0820152600682015460c0820152600782015490931660e0840152928301546101008301526009830154610120830152600a83015491929161014084019160ff9091169081111561265a57634e487b7160e01b600052602160045260246000fd5b600181111561267957634e487b7160e01b600052602160045260246000fd5b8152602001600a820160019054906101000a900460ff1660018111156126af57634e487b7160e01b600052602160045260246000fd5b60018111156126ce57634e487b7160e01b600052602160045260246000fd5b81525050905060006126e58261014001518a613b2f565b90506001826101600151600181111561270e57634e487b7160e01b600052602160045260246000fd5b141561279e574282608001511061278d5760405162461bcd60e51b815260206004820152602860248201527f4d61726b65743a2063616e6e6f7420656469742061756374696f6e206166746560448201527f722073746172742e0000000000000000000000000000000000000000000000006064820152608401610a03565b610100820188905261012082018790525b600082610160015160018111156127c557634e487b7160e01b600052602160045260246000fd5b1480156127d65750888260c0015114155b1561286c576127ff826020015183604001518460600151848661014001518761016001516136c7565b6128645760405162461bcd60e51b815260206004820152603060248201527f4d61726b65743a206d757374206f776e20616e6420617070726f766520746f2060448201526f3a3930b739b332b9103a37b5b2b7399760811b6064820152608401610a03565b60c082018190525b6001600160a01b03861660e083015284156128905761288b8542615cd8565b612896565b81608001515b608083015283156128b0576128ab8442615cd8565b6128b6565b8160a001515b60a0830190815260008b8152600860208181526040928390208651815590860151600180830180546001600160a01b03199081166001600160a01b039485161790915594880151600284018054871691841691909117905560608801516003840155608088015160048401559451600583015560c0870151600683015560e0870151600783018054909516911617909255610100850151908201556101208401516009820155610140840151600a82018054869460ff1990911690838181111561299057634e487b7160e01b600052602160045260246000fd5b0217905550610160820151600a8201805461ff0019166101008360018111156129c957634e487b7160e01b600052602160045260246000fd5b02179055509050508982602001516001600160a01b03167facae26cf04d6f4427216f4e7321674e1e7bc77fd18a599e75114a1f46a70ca2884604051612a0f9190615b4f565b60405180910390a350505050505050505050565b60068054612a3090615d89565b80601f0160208091040260200160405190810160405280929190818152602001828054612a5c90615d89565b8015612aa95780601f10612a7e57610100808354040283529160200191612aa9565b820191906000526020600020905b815481529060010190602001808311612a8c57829003601f168201915b505050505081565b600081815260016020526040812061099d90614413565b61171b828261441d565b600280541415612b245760405162461bcd60e51b815260206004820152601f60248201527f5265656e7472616e637947756172643a207265656e7472616e742063616c6c006044820152606401610a03565b60028080556000838152600860208181526040808420815161018081018352815481526001808301546001600160a01b0390811695830195909552968201548416928101929092526003810154606083015260048101546080830152600581015460a0830152600681015460c0830152600781015490921660e0820152918101546101008301526009810154610120830152600a81015492939192909161014084019160ff1690811115612be857634e487b7160e01b600052602160045260246000fd5b6001811115612c0757634e487b7160e01b600052602160045260246000fd5b8152602001600a820160019054906101000a900460ff166001811115612c3d57634e487b7160e01b600052602160045260246000fd5b6001811115612c5c57634e487b7160e01b600052602160045260246000fd5b90525090506000612c6b613194565b9050612c78828285614445565b828260c001818151612c8a9190615d2f565b9052506000848152600860208181526040928390208551815590850151600180830180546001600160a01b03199081166001600160a01b0394851617909155948701516002840180548716918416919091179055606087015160038401556080870151600484015560a0870151600584015560c0870151600684015560e0870151600784018054909616921691909117909355610100850151918101919091556101208401516009820155610140840151600a82018054869460ff19909116908381811115612d6957634e487b7160e01b600052602160045260246000fd5b0217905550610160820151600a8201805461ff001916610100836001811115612da257634e487b7160e01b600052602160045260246000fd5b0217905550505061012082015115612dd957612dd98183602001518460e0015186866101200151612dd39190615d10565b86613311565b612de9826020015182858561319e565b816000015182602001516001600160a01b031683604001516001600160a01b03167f3ccc07b7cdeffeb0c32f26a7aa313391a34d485229012dcdc8f332c27e11d7dc848787604051612e3d93929190615aae565b60405180910390a4505060016002555050565b612e5d60006104fb613194565b612ea95760405162461bcd60e51b815260206004820152601b60248201527f4d61726b65743a206e6f742061206d6f64756c652061646d696e2e00000000006044820152606401610a03565b6127108110612efa5760405162461bcd60e51b815260206004820152601460248201527f4d61726b65743a20696e76616c6964204250532e0000000000000000000000006044820152606401610a03565b6007805468ffffffffffffffff00191661010067ffffffffffffffff8416908102919091179091556040519081527f1923ecef8dbc1cebea2768819f7df282b72fb6d62bf99da204590b9d5cac7a7b90602001611706565b606060068054612f6190615d89565b80601f0160208091040260200160405190810160405280929190818152602001828054612f8d90615d89565b8015612fda5780601f10612faf57610100808354040283529160200191612fda565b820191906000526020600020905b815481529060010190602001808311612fbd57829003601f168201915b5050505050905090565b612ff160006104fb613194565b61303d5760405162461bcd60e51b815260206004820152601b60248201527f4d61726b65743a206e6f742061206d6f64756c652061646d696e2e00000000006044820152606401610a03565b612710811061308e5760405162461bcd60e51b815260206004820152601460248201527f4d61726b65743a20696e76616c6964204250532e0000000000000000000000006044820152606401610a03565b6007805467ffffffffffffffff838116600160881b027fffffffffffffff0000000000000000ffffffffffffffffffffffffffffffffff918616690100000000000000000002919091167fffffffffffffff00000000000000000000000000000000ffffffffffffffffff9092169190911717905560408051838152602081018390527f441ed6470e96704c3f8c9e70c209107078aab3f17311385e886081b91aa75088910160405180910390a15050565b6003546000906001600160a01b0316331415613163575060131936013560601c90565b503390565b905090565b6131778282614609565b5050565b600061174b836001600160a01b0384166146a8565b3390565b6000613168613140565b600081610140015160018111156131c557634e487b7160e01b600052602160045260246000fd5b141561325a5760408082015160608301519151637921219560e11b81526001600160a01b038781166004830152868116602483015260448201939093526064810185905260a06084820152600060a482015291169063f242432a9060c401600060405180830381600087803b15801561323d57600080fd5b505af1158015613251573d6000803e3d6000fd5b5050505061330b565b6001816101400151600181111561328157634e487b7160e01b600052602160045260246000fd5b141561330b5760408082015160608301519151635c46a7ef60e11b81526001600160a01b03878116600483015286811660248301526044820193909352608060648201526000608482015291169063b88d4fde9060a401600060405180830381600087803b1580156132f257600080fd5b505af1158015613306573d6000803e3d6000fd5b505050505b50505050565b6007546000906127109061333490610100900467ffffffffffffffff1685615d10565b61333e9190615cf0565b6004805460405163f2aab4b360e01b815230928101929092529192506133cb91869189916001600160a01b03169063f2aab4b39060240160206040518083038186803b15801561338d57600080fd5b505afa1580156133a1573d6000803e3d6000fd5b505050506040513d601f19601f820116820180604052508101906133c5919061542e565b846146f7565b60006133d78285615d2f565b6040808501516060860151915163152a902d60e11b81529293506001600160a01b031691632a55205a91613418918890600401918252602082015260400190565b604080518083038186803b15801561342f57600080fd5b505afa92505050801561345f575060408051601f3d908101601f1916820190925261345c918101906155cc565b60015b61346857613508565b801561350557856134798583615cd8565b11156134ed5760405162461bcd60e51b815260206004820152602b60248201527f4d61726b65743a20546f74616c206d61726b657420666565732065786365656460448201527f207468652070726963652e0000000000000000000000000000000000000000006064820152608401610a03565b6134f78184615d2f565b9250613505878a84846146f7565b50505b613514858888846146f7565b50505050505050565b600580549060019060006135318385615cd8565b9250508190555090565b6040516301ffc9a760e01b8152636cdb3d1360e11b60048201526000906001600160a01b038316906301ffc9a79060240160206040518083038186803b15801561358457600080fd5b505afa158015613598573d6000803e3d6000fd5b505050506040513d601f19601f820116820180604052508101906135bc9190615685565b156135c957506000919050565b6040516301ffc9a760e01b81526380ac58cd60e01b60048201526001600160a01b038316906301ffc9a79060240160206040518083038186803b15801561360f57600080fd5b505afa158015613623573d6000803e3d6000fd5b505050506040513d601f19601f820116820180604052508101906136479190615685565b1561365457506001919050565b60405162461bcd60e51b815260206004820152602b60248201527f4d61726b65743a206d75737420696d706c656d656e742045524320313135352060448201527f6f7220455243203732312e0000000000000000000000000000000000000000006064820152608401610a03565b919050565b600030818460018111156136eb57634e487b7160e01b600052602160045260246000fd5b14156138b457604051627eeac760e11b81526001600160a01b0389811660048301526024820188905286919089169062fdd58e9060440160206040518083038186803b15801561373a57600080fd5b505afa15801561374e573d6000803e3d6000fd5b505050506040513d601f19601f8201168201806040525081019061377291906156b9565b101580156137fc575060405163e985e9c560e01b81526001600160a01b038981166004830152828116602483015288169063e985e9c59060440160206040518083038186803b1580156137c457600080fd5b505afa1580156137d8573d6000803e3d6000fd5b505050506040513d601f19601f820116820180604052508101906137fc9190615685565b915081801561382a5750600183600181111561382857634e487b7160e01b600052602160045260246000fd5b145b156138af57604051637921219560e11b81526001600160a01b0389811660048301528281166024830152604482018890526064820187905260a06084830152600060a483015288169063f242432a9060c401600060405180830381600087803b15801561389657600080fd5b505af11580156138aa573d6000803e3d6000fd5b505050505b613b24565b60018460018111156138d657634e487b7160e01b600052602160045260246000fd5b1415613b24576040516331a9108f60e11b8152600481018790526001600160a01b03808a169190891690636352211e9060240160206040518083038186803b15801561392157600080fd5b505afa158015613935573d6000803e3d6000fd5b505050506040513d601f19601f82011682018060405250810190613959919061542e565b6001600160a01b0316148015613a78575060405163020604bf60e21b8152600481018790526001600160a01b03808316919089169063081812fc9060240160206040518083038186803b1580156139af57600080fd5b505afa1580156139c3573d6000803e3d6000fd5b505050506040513d601f19601f820116820180604052508101906139e7919061542e565b6001600160a01b03161480613a78575060405163e985e9c560e01b81526001600160a01b038981166004830152828116602483015288169063e985e9c59060440160206040518083038186803b158015613a4057600080fd5b505afa158015613a54573d6000803e3d6000fd5b505050506040513d601f19601f82011682018060405250810190613a789190615685565b9150818015613aa657506001836001811115613aa457634e487b7160e01b600052602160045260246000fd5b145b15613b2457604051635c46a7ef60e11b81526001600160a01b038981166004830152828116602483015260448201889052608060648301526000608483015288169063b88d4fde9060a401600060405180830381600087803b158015613b0b57600080fd5b505af1158015613b1f573d6000803e3d6000fd5b505050505b509695505050505050565b600081613b3e5750600061099d565b6001836001811115613b6057634e487b7160e01b600052602160045260246000fd5b14613b6b578161174b565b50600192915050565b600082815260208190526040902060010154613b9781613b92613194565b61494f565b61166b8383614609565b613ba9613194565b6001600160a01b0316816001600160a01b031614613c2f5760405162461bcd60e51b815260206004820152602f60248201527f416363657373436f6e74726f6c3a2063616e206f6e6c792072656e6f756e636560448201527f20726f6c657320666f722073656c6600000000000000000000000000000000006064820152608401610a03565b61317782826149cd565b600061174b836001600160a01b038416614a6a565b600061174b8383614b87565b606061174b8383604051806060016040528060278152602001615e5060279139614bbf565b60006001600160a01b03831673eeeeeeeeeeeeeeeeeeeeeeeeeeeeeeeeeeeeeeee1415613cbb5781846001600160a01b03163110159050613dc8565b6040516370a0823160e01b81526001600160a01b0385811660048301528391908516906370a082319060240160206040518083038186803b158015613cff57600080fd5b505afa158015613d13573d6000803e3d6000fd5b505050506040513d601f19601f82011682018060405250810190613d3791906156b9565b10158015613dc55750604051636eb1769f60e11b81526001600160a01b03858116600483015230602483015283919085169063dd62ed3e9060440160206040518083038186803b158015613d8a57600080fd5b505afa158015613d9e573d6000803e3d6000fd5b505050506040513d601f19601f82011682018060405250810190613dc291906156b9565b10155b90505b8061330b5760405162461bcd60e51b815260206004820152603960248201527f4d61726b65743a206d757374206f776e20616e6420617070726f7665204d617260448201527f6b657420746f207472616e736665722063757272656e63792e000000000000006064820152608401610a03565b81516000908152600a60209081526040808320815160a0810183528154815260018201546001600160a01b03908116948201949094526002820154928101839052600382015490931660608401526004015460808301819052919291613ea19190615d10565b9050600083604001518460800151613eb99190615d10565b9050613ec58282614caa565b1561440c5760208084018051918601516001600160a01b031690526080808601519085015261012086015160009015801590613f1557508660c00151876101200151613f119190615d10565b8310155b9050801561417f57428760a0018181525050600085604001818152505084600a6000896000015181526020019081526020016000206000820151816000015560208201518160010160006101000a8154816001600160a01b0302191690836001600160a01b031602179055506040820151816002015560608201518160030160006101000a8154816001600160a01b0302191690836001600160a01b03160217905550608082015181600401559050508660086000896000015181526020019081526020016000206000820151816000015560208201518160010160006101000a8154816001600160a01b0302191690836001600160a01b0316021790555060408201518160020160006101000a8154816001600160a01b0302191690836001600160a01b03160217905550606082015181600301556080820151816004015560a0820151816005015560c0820151816006015560e08201518160070160006101000a8154816001600160a01b0302191690836001600160a01b031602179055506101008201518160080155610120820151816009015561014082015181600a0160006101000a81548160ff021916908360018111156140e557634e487b7160e01b600052602160045260246000fd5b0217905550610160820151600a8201805461ff00191661010083600181111561411e57634e487b7160e01b600052602160045260246000fd5b021790555050506020808701518851918901516040516001600160a01b03831693927f50ac7797abdd874a5f47b37efd62cb303828db8981674771998d2120a5a4199992614172929091908c908e90615a41565b60405180910390a36143b1565b86516000908152600a602090815260409182902088518155908801516001820180546001600160a01b03199081166001600160a01b03938416179091559289015160028301556060890151600383018054909416911617909155608087015160049091015560075460a0880151690100000000000000000090910467ffffffffffffffff1690614210904290615d2f565b116143645760075460a088018051690100000000000000000090920467ffffffffffffffff1691614242908390615cd8565b90525086516000908152600860208181526040928390208a518155908a0151600180830180546001600160a01b03199081166001600160a01b0394851617909155948c0151600284018054871691841691909117905560608c0151600384015560808c0151600484015560a08c0151600584015560c08c0151600684015560e08c01516007840180549096169216919091179093556101008a0151918101919091556101208901516009820155610140890151600a820180548b9460ff1990911690838181111561432357634e487b7160e01b600052602160045260246000fd5b0217905550610160820151600a8201805461ff00191661010083600181111561435c57634e487b7160e01b600052602160045260246000fd5b021790555050505b85602001516001600160a01b031687600001517f606480c67a70893b744713ed1f573bd6c8b9bca761d6646784ce53ceeaed6300888a6040516143a8929190615b5e565b60405180910390a35b6001600160a01b038216158015906143c95750600084115b156143de576143de8760e001513084876146f7565b6143f28760e00151876020015130866146f7565b80156135145761351430876020015188604001518a61319e565b5050505050565b600061099d825490565b60008281526020819052604090206001015461443b81613b92613194565b61166b83836149cd565b61445f828460e00151856101200151846123989190615d10565b6144878360200151846040015185606001518660c001518761014001518861016001516136c7565b6144f95760405162461bcd60e51b815260206004820152602c60248201527f4d61726b65743a2063616e6e6f742062757920746f6b656e732066726f6d207460448201527f686973206c697374696e672e00000000000000000000000000000000000000006064820152608401610a03565b60008111801561450d57508260c001518111155b61457f5760405162461bcd60e51b815260206004820152603160248201527f4d61726b65743a206d7573742062757920616e20617070726f7072696174652060448201527f616d6f756e74206f6620746f6b656e732e0000000000000000000000000000006064820152608401610a03565b8260a001514211158015614597575082608001514210155b61166b5760405162461bcd60e51b815260206004820152603260248201527f4d61726b65743a207468652073616c652068617320656974686572206e6f742060448201527f73746172746564206f7220636c6f7365642e00000000000000000000000000006064820152608401610a03565b6000828152602081815260408083206001600160a01b038516845290915290205460ff16613177576000828152602081815260408083206001600160a01b03851684529091529020805460ff19166001179055614664613194565b6001600160a01b0316816001600160a01b0316837f2f8788117e7eff1d82e926ec794901d17c78024a50270940304540a733656f0d60405160405180910390a45050565b60008181526001830160205260408120546146ef5750815460018181018455600084815260208082209093018490558454848252828601909352604090209190915561099d565b50600061099d565b6001600160a01b03841673eeeeeeeeeeeeeeeeeeeeeeeeeeeeeeeeeeeeeeee1415614943576001600160a01b03831630141561483a57604051632e1a7d4d60e01b8152600481018290527f00000000000000000000000000000000000000000000000000000000000000006001600160a01b031690632e1a7d4d90602401600060405180830381600087803b15801561478f57600080fd5b505af11580156147a3573d6000803e3d6000fd5b505050506147b18282614cfd565b614835577f00000000000000000000000000000000000000000000000000000000000000006001600160a01b031663d0e30db0826040518263ffffffff1660e01b81526004016000604051808303818588803b15801561481057600080fd5b505af1158015614824573d6000803e3d6000fd5b505050505061483584308484614d74565b61330b565b6001600160a01b038216301415614939573481146148c05760405162461bcd60e51b815260206004820152603560248201527f4d61726b65743a206e617469766520746f6b656e2076616c756520646f65732060448201527f6e6f74206d617463682062696420616d6f756e742e00000000000000000000006064820152608401610a03565b7f00000000000000000000000000000000000000000000000000000000000000006001600160a01b031663d0e30db0826040518263ffffffff1660e01b81526004016000604051808303818588803b15801561491b57600080fd5b505af115801561492f573d6000803e3d6000fd5b505050505061330b565b6147b18282614cfd565b61330b84848484614d74565b6000828152602081815260408083206001600160a01b038516845290915290205460ff166131775761498b816001600160a01b03166014615002565b614996836020615002565b6040516020016149a79291906159c0565b60408051601f198184030181529082905262461bcd60e51b8252610a0391600401615b3c565b6000828152602081815260408083206001600160a01b038516845290915290205460ff1615613177576000828152602081815260408083206001600160a01b03851684529091529020805460ff19169055614a26613194565b6001600160a01b0316816001600160a01b0316837ff6391f5c32d9c69d2a47ea670b442974b53935d1edc7fd64eb21e047a839171b60405160405180910390a45050565b60008181526001830160205260408120548015614b7d576000614a8e600183615d2f565b8554909150600090614aa290600190615d2f565b9050818114614b23576000866000018281548110614ad057634e487b7160e01b600052603260045260246000fd5b9060005260206000200154905080876000018481548110614b0157634e487b7160e01b600052603260045260246000fd5b6000918252602080832090910192909255918252600188019052604090208390555b8554869080614b4257634e487b7160e01b600052603160045260246000fd5b60019003818190600052602060002001600090559055856001016000868152602001908152602001600020600090556001935050505061099d565b600091505061099d565b6000826000018281548110614bac57634e487b7160e01b600052603260045260246000fd5b9060005260206000200154905092915050565b6060833b614c355760405162461bcd60e51b815260206004820152602660248201527f416464726573733a2064656c65676174652063616c6c20746f206e6f6e2d636f60448201527f6e747261637400000000000000000000000000000000000000000000000000006064820152608401610a03565b600080856001600160a01b031685604051614c5091906159a4565b600060405180830381855af49150503d8060008114614c8b576040519150601f19603f3d011682016040523d82523d6000602084013e614c90565b606091505b5091509150614ca08282866151f1565b9695505050505050565b600082158061174b5750828211801561174b5750600754600160881b900467ffffffffffffffff1683612710614ce08286615d2f565b614cea9190615d10565b614cf49190615cf0565b10159392505050565b60408051600080825260208201928390529182916001600160a01b038616918591614d27916159a4565b60006040518083038185875af1925050503d8060008114614d64576040519150601f19603f3d011682016040523d82523d6000602084013e614d69565b606091505b509095945050505050565b6001600160a01b038316301415614e075760405163095ea7b360e01b8152306004820152602481018290526001600160a01b0385169063095ea7b390604401602060405180830381600087803b158015614dcd57600080fd5b505af1158015614de1573d6000803e3d6000fd5b505050506040513d601f19601f82011682018060405250810190614e059190615685565b505b6040516370a0823160e01b81526001600160a01b038381166004830152600091908616906370a082319060240160206040518083038186803b158015614e4c57600080fd5b505afa158015614e60573d6000803e3d6000fd5b505050506040513d601f19601f82011682018060405250810190614e8491906156b9565b6040516323b872dd60e01b81526001600160a01b0386811660048301528581166024830152604482018590529192506000918716906323b872dd90606401602060405180830381600087803b158015614edc57600080fd5b505af1158015614ef0573d6000803e3d6000fd5b505050506040513d601f19601f82011682018060405250810190614f149190615685565b6040516370a0823160e01b81526001600160a01b0386811660048301529192506000918816906370a082319060240160206040518083038186803b158015614f5b57600080fd5b505afa158015614f6f573d6000803e3d6000fd5b505050506040513d601f19601f82011682018060405250810190614f9391906156b9565b9050818015614faa5750614fa78484615cd8565b81145b6135145760405162461bcd60e51b8152602060048201526024808201527f4d61726b65743a206661696c656420746f207472616e736665722063757272656044820152633731bc9760e11b6064820152608401610a03565b60606000615011836002615d10565b61501c906002615cd8565b67ffffffffffffffff81111561504257634e487b7160e01b600052604160045260246000fd5b6040519080825280601f01601f19166020018201604052801561506c576020820181803683370190505b509050600360fc1b8160008151811061509557634e487b7160e01b600052603260045260246000fd5b60200101906001600160f81b031916908160001a905350600f60fb1b816001815181106150d257634e487b7160e01b600052603260045260246000fd5b60200101906001600160f81b031916908160001a90535060006150f6846002615d10565b615101906001615cd8565b90505b60018111156151a2577f303132333435363738396162636465660000000000000000000000000000000085600f166010811061515057634e487b7160e01b600052603260045260246000fd5b1a60f81b82828151811061517457634e487b7160e01b600052603260045260246000fd5b60200101906001600160f81b031916908160001a90535060049490941c9361519b81615d72565b9050615104565b50831561174b5760405162461bcd60e51b815260206004820181905260248201527f537472696e67733a20686578206c656e67746820696e73756666696369656e746044820152606401610a03565b6060831561520057508161174b565b8251156152105782518084602001fd5b8160405162461bcd60e51b8152600401610a039190615b3c565b82805461523690615d89565b90600052602060002090601f016020900481019282615258576000855561529e565b82601f106152715782800160ff1982351617855561529e565b8280016001018555821561529e579182015b8281111561529e578235825591602001919060010190615283565b506152aa9291506152ae565b5090565b5b808211156152aa57600081556001016152af565b80356136c281615e2c565b600082601f8301126152de578081fd5b8135602067ffffffffffffffff8211156152fa576152fa615df5565b8160051b615309828201615ca7565b838152828101908684018388018501891015615323578687fd5b8693505b85841015615345578035835260019390930192918401918401615327565b50979650505050505050565b60008083601f840112615362578182fd5b50813567ffffffffffffffff811115615379578182fd5b60208301915083602082850101111561539157600080fd5b9250929050565b600082601f8301126153a8578081fd5b813567ffffffffffffffff8111156153c2576153c2615df5565b6153d5601f8201601f1916602001615ca7565b8181528460208386010111156153e9578283fd5b816020850160208301379081016020019190915292915050565b8035600281106136c257600080fd5b600060208284031215615423578081fd5b813561174b81615e2c565b60006020828403121561543f578081fd5b815161174b81615e2c565b600080600080600060a08688031215615461578081fd5b853561546c81615e2c565b9450602086013561547c81615e2c565b9350604086013567ffffffffffffffff80821115615498578283fd5b6154a489838a016152ce565b945060608801359150808211156154b9578283fd5b6154c589838a016152ce565b935060808801359150808211156154da578283fd5b506154e788828901615398565b9150509295509295909350565b60008060008060006080868803121561550b578081fd5b853561551681615e2c565b9450602086013561552681615e2c565b935060408601359250606086013567ffffffffffffffff811115615548578182fd5b61555488828901615351565b969995985093965092949392505050565b600080600080600060a0868803121561557c578081fd5b853561558781615e2c565b9450602086013561559781615e2c565b93506040860135925060608601359150608086013567ffffffffffffffff8111156155c0578182fd5b6154e788828901615398565b600080604083850312156155de578182fd5b82516155e981615e2c565b6020939093015192949293505050565b6000806020838503121561560b578182fd5b823567ffffffffffffffff80821115615622578384fd5b818501915085601f830112615635578384fd5b813581811115615643578485fd5b8660208260051b8501011115615657578485fd5b60209290920196919550909350505050565b60006020828403121561567a578081fd5b813561174b81615e41565b600060208284031215615696578081fd5b815161174b81615e41565b6000602082840312156156b2578081fd5b5035919050565b6000602082840312156156ca578081fd5b5051919050565b600080604083850312156156e3578182fd5b8235915060208301356156f581615e2c565b809150509250929050565b60008060408385031215615712578182fd5b50508035926020909101359150565b600060208284031215615732578081fd5b81356001600160e01b03198116811461174b578182fd5b6000806020838503121561575b578182fd5b823567ffffffffffffffff811115615771578283fd5b61577d85828601615351565b90969095509350505050565b6000610120828403121561579b578081fd5b6157a3615c7d565b6157ac836152c3565b8152602083013560208201526040830135604082015260608301356060820152608083013560808201526157e260a084016152c3565b60a082015260c083013560c082015260e083013560e0820152610100615809818501615403565b908201529392505050565b60008060008060808587031215615829578182fd5b8435935060208501359250604085013561584281615e2c565b9396929550929360600135925050565b600080600080600080600060e0888a03121561586c578485fd5b87359650602088013595506040880135945060608801359350608088013561589381615e2c565b9699959850939692959460a0840135945060c09093013592915050565b600081518084526158c8816020860160208601615d46565b601f01601f19169290920160200192915050565b6158e581615e0b565b9052565b80518252602081015161590760208401826001600160a01b03169052565b50604081015161592260408401826001600160a01b03169052565b50606081015160608301526080810151608083015260a081015160a083015260c081015160c083015260e081015161596560e08401826001600160a01b03169052565b50610100818101519083015261012080820151908301526101408082015161598f828501826158dc565b50506101608082015161330b828501826158dc565b600082516159b6818460208701615d46565b9190910192915050565b7f416363657373436f6e74726f6c3a206163636f756e74200000000000000000008152600083516159f8816017850160208801615d46565b7f206973206d697373696e6720726f6c65200000000000000000000000000000006017918401918201528351615a35816028840160208801615d46565b01602801949350505050565b6001600160a01b038581168252841660208201526102608101615aa160408301858051825260208101516001600160a01b038082166020850152604083015160408501528060608401511660608501525050608081015160808301525050565b6109ac60e08301846158e9565b6001600160a01b0384168152602081018390526101c08101615ad360408301846158e9565b949350505050565b6000602080830181845280855180835260408601915060408160051b8701019250838701855b82811015615b2f57603f19888603018452615b1d8583516158b0565b94509285019290850190600101615b01565b5092979650505050505050565b60208152600061174b60208301846158b0565b610180810161099d82846158e9565b6102208101615ba782858051825260208101516001600160a01b038082166020850152604083015160408501528060608401511660608501525050608081015160808301525050565b61174b60a08301846158e9565b6000610180820190508d82526001600160a01b03808e166020840152808d1660408401528b60608401528a60808401528960a08401528860c084015280881660e0840152508561010083015284610120830152615c1084615e0b565b83610140830152615c2083615e0b565b826101608301529d9c50505050505050505050505050565b6000808335601e19843603018112615c4e578283fd5b83018035915067ffffffffffffffff821115615c68578283fd5b60200191503681900382131561539157600080fd5b604051610120810167ffffffffffffffff81118282101715615ca157615ca1615df5565b60405290565b604051601f8201601f1916810167ffffffffffffffff81118282101715615cd057615cd0615df5565b604052919050565b60008219821115615ceb57615ceb615ddf565b500190565b600082615d0b57634e487b7160e01b81526012600452602481fd5b500490565b6000816000190483118215151615615d2a57615d2a615ddf565b500290565b600082821015615d4157615d41615ddf565b500390565b60005b83811015615d61578181015183820152602001615d49565b8381111561330b5750506000910152565b600081615d8157615d81615ddf565b506000190190565b600181811c90821680615d9d57607f821691505b60208210811415615dbe57634e487b7160e01b600052602260045260246000fd5b50919050565b6000600019821415615dd857615dd8615ddf565b5060010190565b634e487b7160e01b600052601160045260246000fd5b634e487b7160e01b600052604160045260246000fd5b60028110615e2957634e487b7160e01b600052602160045260246000fd5b50565b6001600160a01b0381168114615e2957600080fd5b8015158114615e2957600080fdfe416464726573733a206c6f772d6c6576656c2064656c65676174652063616c6c206661696c6564a164736f6c6343000804000a",
  "linkReferences": {},
  "deployedLinkReferences": {}
}