{
  "_format": "hh-sol-artifact-1",
  "contractName": "MarketWithAuction",
  "sourceName": "contracts/v2/MarketWithAuction.sol",
  "abi": [
    {
      "inputs": [
        {
          "internalType": "address payable",
          "name": "_controlCenter",
          "type": "address"
        },
        {
          "internalType": "address",
          "name": "_trustedForwarder",
          "type": "address"
        },
        {
          "internalType": "string",
          "name": "_uri",
          "type": "string"
        },
        {
          "internalType": "uint256",
          "name": "_marketFeeBps",
          "type": "uint256"
        }
      ],
      "stateMutability": "nonpayable",
      "type": "constructor"
    },
    {
      "anonymous": false,
      "inputs": [
        {
          "indexed": false,
          "internalType": "uint256",
          "name": "timeBuffer",
          "type": "uint256"
        },
        {
          "indexed": false,
          "internalType": "uint256",
          "name": "bidBufferBps",
          "type": "uint256"
        }
      ],
      "name": "AuctionBuffersUpdated",
      "type": "event"
    },
    {
      "anonymous": false,
      "inputs": [
        {
          "indexed": true,
          "internalType": "uint256",
          "name": "listingId",
          "type": "uint256"
        },
        {
          "indexed": true,
          "internalType": "address",
          "name": "auctionCreator",
          "type": "address"
        },
        {
          "components": [
            {
              "internalType": "uint256",
              "name": "listingId",
              "type": "uint256"
            },
            {
              "internalType": "address",
              "name": "tokenOwner",
              "type": "address"
            },
            {
              "internalType": "address",
              "name": "assetContract",
              "type": "address"
            },
            {
              "internalType": "uint256",
              "name": "tokenId",
              "type": "uint256"
            },
            {
              "internalType": "uint256",
              "name": "startTime",
              "type": "uint256"
            },
            {
              "internalType": "uint256",
              "name": "endTime",
              "type": "uint256"
            },
            {
              "internalType": "uint256",
              "name": "quantity",
              "type": "uint256"
            },
            {
              "internalType": "address",
              "name": "currency",
              "type": "address"
            },
            {
              "internalType": "uint256",
              "name": "reservePricePerToken",
              "type": "uint256"
            },
            {
              "internalType": "uint256",
              "name": "buyoutPricePerToken",
              "type": "uint256"
            },
            {
              "internalType": "uint256",
              "name": "tokensPerBuyer",
              "type": "uint256"
            },
            {
              "internalType": "enum IMarket.TokenType",
              "name": "tokenType",
              "type": "uint8"
            },
            {
              "internalType": "enum IMarket.ListingType",
              "name": "listingType",
              "type": "uint8"
            }
          ],
          "indexed": false,
          "internalType": "struct IMarket.Listing",
          "name": "listing",
          "type": "tuple"
        }
      ],
      "name": "AuctionCanceled",
      "type": "event"
    },
    {
      "anonymous": false,
      "inputs": [
        {
          "indexed": true,
          "internalType": "uint256",
          "name": "listingId",
          "type": "uint256"
        },
        {
          "indexed": true,
          "internalType": "address",
          "name": "closer",
          "type": "address"
        },
        {
          "indexed": false,
          "internalType": "address",
          "name": "auctionCreator",
          "type": "address"
        },
        {
          "indexed": false,
          "internalType": "address",
          "name": "winningBidder",
          "type": "address"
        },
        {
          "components": [
            {
              "internalType": "uint256",
              "name": "listingId",
              "type": "uint256"
            },
            {
              "internalType": "address",
              "name": "offeror",
              "type": "address"
            },
            {
              "internalType": "uint256",
              "name": "quantityWanted",
              "type": "uint256"
            },
            {
              "internalType": "uint256",
              "name": "offerAmount",
              "type": "uint256"
            }
          ],
          "indexed": false,
          "internalType": "struct IMarket.Offer",
          "name": "winningBid",
          "type": "tuple"
        },
        {
          "components": [
            {
              "internalType": "uint256",
              "name": "listingId",
              "type": "uint256"
            },
            {
              "internalType": "address",
              "name": "tokenOwner",
              "type": "address"
            },
            {
              "internalType": "address",
              "name": "assetContract",
              "type": "address"
            },
            {
              "internalType": "uint256",
              "name": "tokenId",
              "type": "uint256"
            },
            {
              "internalType": "uint256",
              "name": "startTime",
              "type": "uint256"
            },
            {
              "internalType": "uint256",
              "name": "endTime",
              "type": "uint256"
            },
            {
              "internalType": "uint256",
              "name": "quantity",
              "type": "uint256"
            },
            {
              "internalType": "address",
              "name": "currency",
              "type": "address"
            },
            {
              "internalType": "uint256",
              "name": "reservePricePerToken",
              "type": "uint256"
            },
            {
              "internalType": "uint256",
              "name": "buyoutPricePerToken",
              "type": "uint256"
            },
            {
              "internalType": "uint256",
              "name": "tokensPerBuyer",
              "type": "uint256"
            },
            {
              "internalType": "enum IMarket.TokenType",
              "name": "tokenType",
              "type": "uint8"
            },
            {
              "internalType": "enum IMarket.ListingType",
              "name": "listingType",
              "type": "uint8"
            }
          ],
          "indexed": false,
          "internalType": "struct IMarket.Listing",
          "name": "listing",
          "type": "tuple"
        }
      ],
      "name": "AuctionClosed",
      "type": "event"
    },
    {
      "anonymous": false,
      "inputs": [
        {
          "indexed": true,
          "internalType": "address",
          "name": "listingCreator",
          "type": "address"
        },
        {
          "indexed": true,
          "internalType": "uint256",
          "name": "listingId",
          "type": "uint256"
        },
        {
          "components": [
            {
              "internalType": "uint256",
              "name": "listingId",
              "type": "uint256"
            },
            {
              "internalType": "address",
              "name": "tokenOwner",
              "type": "address"
            },
            {
              "internalType": "address",
              "name": "assetContract",
              "type": "address"
            },
            {
              "internalType": "uint256",
              "name": "tokenId",
              "type": "uint256"
            },
            {
              "internalType": "uint256",
              "name": "startTime",
              "type": "uint256"
            },
            {
              "internalType": "uint256",
              "name": "endTime",
              "type": "uint256"
            },
            {
              "internalType": "uint256",
              "name": "quantity",
              "type": "uint256"
            },
            {
              "internalType": "address",
              "name": "currency",
              "type": "address"
            },
            {
              "internalType": "uint256",
              "name": "reservePricePerToken",
              "type": "uint256"
            },
            {
              "internalType": "uint256",
              "name": "buyoutPricePerToken",
              "type": "uint256"
            },
            {
              "internalType": "uint256",
              "name": "tokensPerBuyer",
              "type": "uint256"
            },
            {
              "internalType": "enum IMarket.TokenType",
              "name": "tokenType",
              "type": "uint8"
            },
            {
              "internalType": "enum IMarket.ListingType",
              "name": "listingType",
              "type": "uint8"
            }
          ],
          "indexed": false,
          "internalType": "struct IMarket.Listing",
          "name": "listing",
          "type": "tuple"
        }
      ],
      "name": "ListingUpdate",
      "type": "event"
    },
    {
      "anonymous": false,
      "inputs": [
        {
          "indexed": false,
          "internalType": "uint64",
          "name": "newFee",
          "type": "uint64"
        }
      ],
      "name": "MarketFeeUpdate",
      "type": "event"
    },
    {
      "anonymous": false,
      "inputs": [
        {
          "indexed": true,
          "internalType": "uint256",
          "name": "listingId",
          "type": "uint256"
        },
        {
          "indexed": true,
          "internalType": "address",
          "name": "bidder",
          "type": "address"
        },
        {
          "components": [
            {
              "internalType": "uint256",
              "name": "listingId",
              "type": "uint256"
            },
            {
              "internalType": "address",
              "name": "offeror",
              "type": "address"
            },
            {
              "internalType": "uint256",
              "name": "quantityWanted",
              "type": "uint256"
            },
            {
              "internalType": "uint256",
              "name": "offerAmount",
              "type": "uint256"
            }
          ],
          "indexed": false,
          "internalType": "struct IMarket.Offer",
          "name": "bid",
          "type": "tuple"
        },
        {
          "components": [
            {
              "internalType": "uint256",
              "name": "listingId",
              "type": "uint256"
            },
            {
              "internalType": "address",
              "name": "tokenOwner",
              "type": "address"
            },
            {
              "internalType": "address",
              "name": "assetContract",
              "type": "address"
            },
            {
              "internalType": "uint256",
              "name": "tokenId",
              "type": "uint256"
            },
            {
              "internalType": "uint256",
              "name": "startTime",
              "type": "uint256"
            },
            {
              "internalType": "uint256",
              "name": "endTime",
              "type": "uint256"
            },
            {
              "internalType": "uint256",
              "name": "quantity",
              "type": "uint256"
            },
            {
              "internalType": "address",
              "name": "currency",
              "type": "address"
            },
            {
              "internalType": "uint256",
              "name": "reservePricePerToken",
              "type": "uint256"
            },
            {
              "internalType": "uint256",
              "name": "buyoutPricePerToken",
              "type": "uint256"
            },
            {
              "internalType": "uint256",
              "name": "tokensPerBuyer",
              "type": "uint256"
            },
            {
              "internalType": "enum IMarket.TokenType",
              "name": "tokenType",
              "type": "uint8"
            },
            {
              "internalType": "enum IMarket.ListingType",
              "name": "listingType",
              "type": "uint8"
            }
          ],
          "indexed": false,
          "internalType": "struct IMarket.Listing",
          "name": "listing",
          "type": "tuple"
        }
      ],
      "name": "NewBid",
      "type": "event"
    },
    {
      "anonymous": false,
      "inputs": [
        {
          "indexed": true,
          "internalType": "address",
          "name": "assetContract",
          "type": "address"
        },
        {
          "indexed": true,
          "internalType": "address",
          "name": "seller",
          "type": "address"
        },
        {
          "indexed": true,
          "internalType": "uint256",
          "name": "listingId",
          "type": "uint256"
        },
        {
          "indexed": false,
          "internalType": "address",
          "name": "buyer",
          "type": "address"
        },
        {
          "indexed": false,
          "internalType": "uint256",
          "name": "quantity",
          "type": "uint256"
        },
        {
          "components": [
            {
              "internalType": "uint256",
              "name": "listingId",
              "type": "uint256"
            },
            {
              "internalType": "address",
              "name": "tokenOwner",
              "type": "address"
            },
            {
              "internalType": "address",
              "name": "assetContract",
              "type": "address"
            },
            {
              "internalType": "uint256",
              "name": "tokenId",
              "type": "uint256"
            },
            {
              "internalType": "uint256",
              "name": "startTime",
              "type": "uint256"
            },
            {
              "internalType": "uint256",
              "name": "endTime",
              "type": "uint256"
            },
            {
              "internalType": "uint256",
              "name": "quantity",
              "type": "uint256"
            },
            {
              "internalType": "address",
              "name": "currency",
              "type": "address"
            },
            {
              "internalType": "uint256",
              "name": "reservePricePerToken",
              "type": "uint256"
            },
            {
              "internalType": "uint256",
              "name": "buyoutPricePerToken",
              "type": "uint256"
            },
            {
              "internalType": "uint256",
              "name": "tokensPerBuyer",
              "type": "uint256"
            },
            {
              "internalType": "enum IMarket.TokenType",
              "name": "tokenType",
              "type": "uint8"
            },
            {
              "internalType": "enum IMarket.ListingType",
              "name": "listingType",
              "type": "uint8"
            }
          ],
          "indexed": false,
          "internalType": "struct IMarket.Listing",
          "name": "listing",
          "type": "tuple"
        }
      ],
      "name": "NewDirectSale",
      "type": "event"
    },
    {
      "anonymous": false,
      "inputs": [
        {
          "indexed": true,
          "internalType": "address",
          "name": "assetContract",
          "type": "address"
        },
        {
          "indexed": true,
          "internalType": "address",
          "name": "seller",
          "type": "address"
        },
        {
          "indexed": true,
          "internalType": "uint256",
          "name": "listingId",
          "type": "uint256"
        },
        {
          "components": [
            {
              "internalType": "uint256",
              "name": "listingId",
              "type": "uint256"
            },
            {
              "internalType": "address",
              "name": "tokenOwner",
              "type": "address"
            },
            {
              "internalType": "address",
              "name": "assetContract",
              "type": "address"
            },
            {
              "internalType": "uint256",
              "name": "tokenId",
              "type": "uint256"
            },
            {
              "internalType": "uint256",
              "name": "startTime",
              "type": "uint256"
            },
            {
              "internalType": "uint256",
              "name": "endTime",
              "type": "uint256"
            },
            {
              "internalType": "uint256",
              "name": "quantity",
              "type": "uint256"
            },
            {
              "internalType": "address",
              "name": "currency",
              "type": "address"
            },
            {
              "internalType": "uint256",
              "name": "reservePricePerToken",
              "type": "uint256"
            },
            {
              "internalType": "uint256",
              "name": "buyoutPricePerToken",
              "type": "uint256"
            },
            {
              "internalType": "uint256",
              "name": "tokensPerBuyer",
              "type": "uint256"
            },
            {
              "internalType": "enum IMarket.TokenType",
              "name": "tokenType",
              "type": "uint8"
            },
            {
              "internalType": "enum IMarket.ListingType",
              "name": "listingType",
              "type": "uint8"
            }
          ],
          "indexed": false,
          "internalType": "struct IMarket.Listing",
          "name": "listing",
          "type": "tuple"
        }
      ],
      "name": "NewListing",
      "type": "event"
    },
    {
      "anonymous": false,
      "inputs": [
        {
          "indexed": true,
          "internalType": "uint256",
          "name": "listingId",
          "type": "uint256"
        },
        {
          "indexed": true,
          "internalType": "address",
          "name": "offeror",
          "type": "address"
        },
        {
          "components": [
            {
              "internalType": "uint256",
              "name": "listingId",
              "type": "uint256"
            },
            {
              "internalType": "address",
              "name": "offeror",
              "type": "address"
            },
            {
              "internalType": "uint256",
              "name": "quantityWanted",
              "type": "uint256"
            },
            {
              "internalType": "uint256",
              "name": "offerAmount",
              "type": "uint256"
            }
          ],
          "indexed": false,
          "internalType": "struct IMarket.Offer",
          "name": "offer",
          "type": "tuple"
        },
        {
          "components": [
            {
              "internalType": "uint256",
              "name": "listingId",
              "type": "uint256"
            },
            {
              "internalType": "address",
              "name": "tokenOwner",
              "type": "address"
            },
            {
              "internalType": "address",
              "name": "assetContract",
              "type": "address"
            },
            {
              "internalType": "uint256",
              "name": "tokenId",
              "type": "uint256"
            },
            {
              "internalType": "uint256",
              "name": "startTime",
              "type": "uint256"
            },
            {
              "internalType": "uint256",
              "name": "endTime",
              "type": "uint256"
            },
            {
              "internalType": "uint256",
              "name": "quantity",
              "type": "uint256"
            },
            {
              "internalType": "address",
              "name": "currency",
              "type": "address"
            },
            {
              "internalType": "uint256",
              "name": "reservePricePerToken",
              "type": "uint256"
            },
            {
              "internalType": "uint256",
              "name": "buyoutPricePerToken",
              "type": "uint256"
            },
            {
              "internalType": "uint256",
              "name": "tokensPerBuyer",
              "type": "uint256"
            },
            {
              "internalType": "enum IMarket.TokenType",
              "name": "tokenType",
              "type": "uint8"
            },
            {
              "internalType": "enum IMarket.ListingType",
              "name": "listingType",
              "type": "uint8"
            }
          ],
          "indexed": false,
          "internalType": "struct IMarket.Listing",
          "name": "listing",
          "type": "tuple"
        }
      ],
      "name": "NewOffer",
      "type": "event"
    },
    {
      "anonymous": false,
      "inputs": [
        {
          "indexed": false,
          "internalType": "bool",
          "name": "restricted",
          "type": "bool"
        }
      ],
      "name": "RestrictedListerRoleUpdated",
      "type": "event"
    },
    {
      "anonymous": false,
      "inputs": [
        {
          "indexed": true,
          "internalType": "bytes32",
          "name": "role",
          "type": "bytes32"
        },
        {
          "indexed": true,
          "internalType": "bytes32",
          "name": "previousAdminRole",
          "type": "bytes32"
        },
        {
          "indexed": true,
          "internalType": "bytes32",
          "name": "newAdminRole",
          "type": "bytes32"
        }
      ],
      "name": "RoleAdminChanged",
      "type": "event"
    },
    {
      "anonymous": false,
      "inputs": [
        {
          "indexed": true,
          "internalType": "bytes32",
          "name": "role",
          "type": "bytes32"
        },
        {
          "indexed": true,
          "internalType": "address",
          "name": "account",
          "type": "address"
        },
        {
          "indexed": true,
          "internalType": "address",
          "name": "sender",
          "type": "address"
        }
      ],
      "name": "RoleGranted",
      "type": "event"
    },
    {
      "anonymous": false,
      "inputs": [
        {
          "indexed": true,
          "internalType": "bytes32",
          "name": "role",
          "type": "bytes32"
        },
        {
          "indexed": true,
          "internalType": "address",
          "name": "account",
          "type": "address"
        },
        {
          "indexed": true,
          "internalType": "address",
          "name": "sender",
          "type": "address"
        }
      ],
      "name": "RoleRevoked",
      "type": "event"
    },
    {
      "inputs": [],
      "name": "DEFAULT_ADMIN_ROLE",
      "outputs": [
        {
          "internalType": "bytes32",
          "name": "",
          "type": "bytes32"
        }
      ],
      "stateMutability": "view",
      "type": "function"
    },
    {
      "inputs": [],
      "name": "LISTER_ROLE",
      "outputs": [
        {
          "internalType": "bytes32",
          "name": "",
          "type": "bytes32"
        }
      ],
      "stateMutability": "view",
      "type": "function"
    },
    {
      "inputs": [],
      "name": "MAX_BPS",
      "outputs": [
        {
          "internalType": "uint64",
          "name": "",
          "type": "uint64"
        }
      ],
      "stateMutability": "view",
      "type": "function"
    },
    {
      "inputs": [],
      "name": "_contractURI",
      "outputs": [
        {
          "internalType": "string",
          "name": "",
          "type": "string"
        }
      ],
      "stateMutability": "view",
      "type": "function"
    },
    {
      "inputs": [
        {
          "internalType": "uint256",
          "name": "_listingId",
          "type": "uint256"
        },
        {
          "internalType": "address",
          "name": "offeror",
          "type": "address"
        }
      ],
      "name": "acceptOffer",
      "outputs": [],
      "stateMutability": "nonpayable",
      "type": "function"
    },
    {
      "inputs": [],
      "name": "bidBufferBps",
      "outputs": [
        {
          "internalType": "uint64",
          "name": "",
          "type": "uint64"
        }
      ],
      "stateMutability": "view",
      "type": "function"
    },
    {
      "inputs": [
        {
          "internalType": "uint256",
          "name": "",
          "type": "uint256"
        },
        {
          "internalType": "address",
          "name": "",
          "type": "address"
        }
      ],
      "name": "boughtFromListing",
      "outputs": [
        {
          "internalType": "uint256",
          "name": "",
          "type": "uint256"
        }
      ],
      "stateMutability": "view",
      "type": "function"
    },
    {
      "inputs": [
        {
          "internalType": "uint256",
          "name": "_listingId",
          "type": "uint256"
        },
        {
          "internalType": "uint256",
          "name": "_quantityToBuy",
          "type": "uint256"
        }
      ],
      "name": "buy",
      "outputs": [],
      "stateMutability": "nonpayable",
      "type": "function"
    },
    {
      "inputs": [
        {
          "internalType": "uint256",
          "name": "_listingId",
          "type": "uint256"
        }
      ],
      "name": "closeAuction",
      "outputs": [],
      "stateMutability": "nonpayable",
      "type": "function"
    },
    {
      "inputs": [],
      "name": "contractURI",
      "outputs": [
        {
          "internalType": "string",
          "name": "",
          "type": "string"
        }
      ],
      "stateMutability": "view",
      "type": "function"
    },
    {
      "inputs": [
        {
          "components": [
            {
              "internalType": "address",
              "name": "assetContract",
              "type": "address"
            },
            {
              "internalType": "uint256",
              "name": "tokenId",
              "type": "uint256"
            },
            {
              "internalType": "uint256",
              "name": "secondsUntilStartTime",
              "type": "uint256"
            },
            {
              "internalType": "uint256",
              "name": "secondsUntilEndTime",
              "type": "uint256"
            },
            {
              "internalType": "uint256",
              "name": "quantityToList",
              "type": "uint256"
            },
            {
              "internalType": "address",
              "name": "currencyToAccept",
              "type": "address"
            },
            {
              "internalType": "uint256",
              "name": "reservePricePerToken",
              "type": "uint256"
            },
            {
              "internalType": "uint256",
              "name": "buyoutPricePerToken",
              "type": "uint256"
            },
            {
              "internalType": "uint256",
              "name": "tokensPerBuyer",
              "type": "uint256"
            },
            {
              "internalType": "enum IMarket.ListingType",
              "name": "listingType",
              "type": "uint8"
            }
          ],
          "internalType": "struct IMarket.ListingParameters",
          "name": "_params",
          "type": "tuple"
        }
      ],
      "name": "createListing",
      "outputs": [],
      "stateMutability": "nonpayable",
      "type": "function"
    },
    {
      "inputs": [
        {
          "internalType": "uint256",
          "name": "_listingId",
          "type": "uint256"
        },
        {
          "internalType": "uint256",
          "name": "_quantityToList",
          "type": "uint256"
        },
        {
          "internalType": "uint256",
          "name": "_reservePricePerToken",
          "type": "uint256"
        },
        {
          "internalType": "uint256",
          "name": "_buyoutPricePerToken",
          "type": "uint256"
        },
        {
          "internalType": "uint256",
          "name": "_tokensPerBuyer",
          "type": "uint256"
        },
        {
          "internalType": "address",
          "name": "_currencyToAccept",
          "type": "address"
        },
        {
          "internalType": "uint256",
          "name": "_secondsUntilStartTime",
          "type": "uint256"
        },
        {
          "internalType": "uint256",
          "name": "_secondsUntilEndTime",
          "type": "uint256"
        }
      ],
      "name": "editListingParametrs",
      "outputs": [],
      "stateMutability": "nonpayable",
      "type": "function"
    },
    {
      "inputs": [
        {
          "internalType": "bytes32",
          "name": "role",
          "type": "bytes32"
        }
      ],
      "name": "getRoleAdmin",
      "outputs": [
        {
          "internalType": "bytes32",
          "name": "",
          "type": "bytes32"
        }
      ],
      "stateMutability": "view",
      "type": "function"
    },
    {
      "inputs": [
        {
          "internalType": "bytes32",
          "name": "role",
          "type": "bytes32"
        },
        {
          "internalType": "uint256",
          "name": "index",
          "type": "uint256"
        }
      ],
      "name": "getRoleMember",
      "outputs": [
        {
          "internalType": "address",
          "name": "",
          "type": "address"
        }
      ],
      "stateMutability": "view",
      "type": "function"
    },
    {
      "inputs": [
        {
          "internalType": "bytes32",
          "name": "role",
          "type": "bytes32"
        }
      ],
      "name": "getRoleMemberCount",
      "outputs": [
        {
          "internalType": "uint256",
          "name": "",
          "type": "uint256"
        }
      ],
      "stateMutability": "view",
      "type": "function"
    },
    {
      "inputs": [
        {
          "internalType": "bytes32",
          "name": "role",
          "type": "bytes32"
        },
        {
          "internalType": "address",
          "name": "account",
          "type": "address"
        }
      ],
      "name": "grantRole",
      "outputs": [],
      "stateMutability": "nonpayable",
      "type": "function"
    },
    {
      "inputs": [
        {
          "internalType": "bytes32",
          "name": "role",
          "type": "bytes32"
        },
        {
          "internalType": "address",
          "name": "account",
          "type": "address"
        }
      ],
      "name": "hasRole",
      "outputs": [
        {
          "internalType": "bool",
          "name": "",
          "type": "bool"
        }
      ],
      "stateMutability": "view",
      "type": "function"
    },
    {
      "inputs": [
        {
          "internalType": "address",
          "name": "forwarder",
          "type": "address"
        }
      ],
      "name": "isTrustedForwarder",
      "outputs": [
        {
          "internalType": "bool",
          "name": "",
          "type": "bool"
        }
      ],
      "stateMutability": "view",
      "type": "function"
    },
    {
      "inputs": [
        {
          "internalType": "uint256",
          "name": "",
          "type": "uint256"
        }
      ],
      "name": "listings",
      "outputs": [
        {
          "internalType": "uint256",
          "name": "listingId",
          "type": "uint256"
        },
        {
          "internalType": "address",
          "name": "tokenOwner",
          "type": "address"
        },
        {
          "internalType": "address",
          "name": "assetContract",
          "type": "address"
        },
        {
          "internalType": "uint256",
          "name": "tokenId",
          "type": "uint256"
        },
        {
          "internalType": "uint256",
          "name": "startTime",
          "type": "uint256"
        },
        {
          "internalType": "uint256",
          "name": "endTime",
          "type": "uint256"
        },
        {
          "internalType": "uint256",
          "name": "quantity",
          "type": "uint256"
        },
        {
          "internalType": "address",
          "name": "currency",
          "type": "address"
        },
        {
          "internalType": "uint256",
          "name": "reservePricePerToken",
          "type": "uint256"
        },
        {
          "internalType": "uint256",
          "name": "buyoutPricePerToken",
          "type": "uint256"
        },
        {
          "internalType": "uint256",
          "name": "tokensPerBuyer",
          "type": "uint256"
        },
        {
          "internalType": "enum IMarket.TokenType",
          "name": "tokenType",
          "type": "uint8"
        },
        {
          "internalType": "enum IMarket.ListingType",
          "name": "listingType",
          "type": "uint8"
        }
      ],
      "stateMutability": "view",
      "type": "function"
    },
    {
      "inputs": [],
      "name": "marketFeeBps",
      "outputs": [
        {
          "internalType": "uint64",
          "name": "",
          "type": "uint64"
        }
      ],
      "stateMutability": "view",
      "type": "function"
    },
    {
      "inputs": [
        {
          "internalType": "bytes[]",
          "name": "data",
          "type": "bytes[]"
        }
      ],
      "name": "multicall",
      "outputs": [
        {
          "internalType": "bytes[]",
          "name": "results",
          "type": "bytes[]"
        }
      ],
      "stateMutability": "nonpayable",
      "type": "function"
    },
    {
      "inputs": [
        {
          "internalType": "uint256",
          "name": "_listingId",
          "type": "uint256"
        },
        {
          "internalType": "uint256",
          "name": "_quantityWanted",
          "type": "uint256"
        },
        {
          "internalType": "uint256",
          "name": "_totalOfferAmount",
          "type": "uint256"
        }
      ],
      "name": "offer",
      "outputs": [],
      "stateMutability": "nonpayable",
      "type": "function"
    },
    {
      "inputs": [
        {
          "internalType": "uint256",
          "name": "",
          "type": "uint256"
        },
        {
          "internalType": "address",
          "name": "",
          "type": "address"
        }
      ],
      "name": "offers",
      "outputs": [
        {
          "internalType": "uint256",
          "name": "listingId",
          "type": "uint256"
        },
        {
          "internalType": "address",
          "name": "offeror",
          "type": "address"
        },
        {
          "internalType": "uint256",
          "name": "quantityWanted",
          "type": "uint256"
        },
        {
          "internalType": "uint256",
          "name": "offerAmount",
          "type": "uint256"
        }
      ],
      "stateMutability": "view",
      "type": "function"
    },
    {
      "inputs": [
        {
          "internalType": "address",
          "name": "",
          "type": "address"
        },
        {
          "internalType": "address",
          "name": "",
          "type": "address"
        },
        {
          "internalType": "uint256[]",
          "name": "",
          "type": "uint256[]"
        },
        {
          "internalType": "uint256[]",
          "name": "",
          "type": "uint256[]"
        },
        {
          "internalType": "bytes",
          "name": "",
          "type": "bytes"
        }
      ],
      "name": "onERC1155BatchReceived",
      "outputs": [
        {
          "internalType": "bytes4",
          "name": "",
          "type": "bytes4"
        }
      ],
      "stateMutability": "nonpayable",
      "type": "function"
    },
    {
      "inputs": [
        {
          "internalType": "address",
          "name": "",
          "type": "address"
        },
        {
          "internalType": "address",
          "name": "",
          "type": "address"
        },
        {
          "internalType": "uint256",
          "name": "",
          "type": "uint256"
        },
        {
          "internalType": "uint256",
          "name": "",
          "type": "uint256"
        },
        {
          "internalType": "bytes",
          "name": "",
          "type": "bytes"
        }
      ],
      "name": "onERC1155Received",
      "outputs": [
        {
          "internalType": "bytes4",
          "name": "",
          "type": "bytes4"
        }
      ],
      "stateMutability": "nonpayable",
      "type": "function"
    },
    {
      "inputs": [
        {
          "internalType": "address",
          "name": "",
          "type": "address"
        },
        {
          "internalType": "address",
          "name": "",
          "type": "address"
        },
        {
          "internalType": "uint256",
          "name": "",
          "type": "uint256"
        },
        {
          "internalType": "bytes",
          "name": "",
          "type": "bytes"
        }
      ],
      "name": "onERC721Received",
      "outputs": [
        {
          "internalType": "bytes4",
          "name": "",
          "type": "bytes4"
        }
      ],
      "stateMutability": "pure",
      "type": "function"
    },
    {
      "inputs": [
        {
          "internalType": "bytes32",
          "name": "role",
          "type": "bytes32"
        },
        {
          "internalType": "address",
          "name": "account",
          "type": "address"
        }
      ],
      "name": "renounceRole",
      "outputs": [],
      "stateMutability": "nonpayable",
      "type": "function"
    },
    {
      "inputs": [],
      "name": "restrictedListerRoleOnly",
      "outputs": [
        {
          "internalType": "bool",
          "name": "",
          "type": "bool"
        }
      ],
      "stateMutability": "view",
      "type": "function"
    },
    {
      "inputs": [
        {
          "internalType": "bytes32",
          "name": "role",
          "type": "bytes32"
        },
        {
          "internalType": "address",
          "name": "account",
          "type": "address"
        }
      ],
      "name": "revokeRole",
      "outputs": [],
      "stateMutability": "nonpayable",
      "type": "function"
    },
    {
      "inputs": [
        {
          "internalType": "uint256",
          "name": "_timeBuffer",
          "type": "uint256"
        },
        {
          "internalType": "uint256",
          "name": "_bidBufferBps",
          "type": "uint256"
        }
      ],
      "name": "setAuctionBuffers",
      "outputs": [],
      "stateMutability": "nonpayable",
      "type": "function"
    },
    {
      "inputs": [
        {
          "internalType": "string",
          "name": "_uri",
          "type": "string"
        }
      ],
      "name": "setContractURI",
      "outputs": [],
      "stateMutability": "nonpayable",
      "type": "function"
    },
    {
      "inputs": [
        {
          "internalType": "uint256",
          "name": "_feeBps",
          "type": "uint256"
        }
      ],
      "name": "setMarketFeeBps",
      "outputs": [],
      "stateMutability": "nonpayable",
      "type": "function"
    },
    {
      "inputs": [
        {
          "internalType": "bool",
          "name": "restricted",
          "type": "bool"
        }
      ],
      "name": "setRestrictedListerRoleOnly",
      "outputs": [],
      "stateMutability": "nonpayable",
      "type": "function"
    },
    {
      "inputs": [
        {
          "internalType": "bytes4",
          "name": "interfaceId",
          "type": "bytes4"
        }
      ],
      "name": "supportsInterface",
      "outputs": [
        {
          "internalType": "bool",
          "name": "",
          "type": "bool"
        }
      ],
      "stateMutability": "view",
      "type": "function"
    },
    {
      "inputs": [],
      "name": "timeBuffer",
      "outputs": [
        {
          "internalType": "uint64",
          "name": "",
          "type": "uint64"
        }
      ],
      "stateMutability": "view",
      "type": "function"
    },
    {
      "inputs": [],
      "name": "totalListings",
      "outputs": [
        {
          "internalType": "uint256",
          "name": "",
          "type": "uint256"
        }
      ],
      "stateMutability": "view",
      "type": "function"
    },
    {
      "inputs": [
        {
          "internalType": "uint256",
          "name": "",
          "type": "uint256"
        }
      ],
      "name": "winningBid",
      "outputs": [
        {
          "internalType": "uint256",
          "name": "listingId",
          "type": "uint256"
        },
        {
          "internalType": "address",
          "name": "offeror",
          "type": "address"
        },
        {
          "internalType": "uint256",
          "name": "quantityWanted",
          "type": "uint256"
        },
        {
          "internalType": "uint256",
          "name": "offerAmount",
          "type": "uint256"
        }
      ],
      "stateMutability": "view",
      "type": "function"
    }
  ],
  "bytecode": "0x608060405260078054600160481b600160c81b0319167201f400000000000003840000000000000000001790553480156200003957600080fd5b5060405162005c3f38038062005c3f8339810160408190526200005c9162000382565b6001600255600380546001600160a01b0319166001600160a01b038516179055815162000091906006906020850190620002dc565b50600480546001600160a01b0319166001600160a01b03861617905560078054610100600160481b0319166101006001600160401b03841602179055620000e36000620000dd6200011c565b62000138565b620001127ff94103142c1baabe9ac2b5d1487bf783de9e69cfeea9a72f5c9c94afd7877b8c620000dd6200011c565b50505050620004f8565b6000620001336200017b60201b62002cdb1760201c565b905090565b6200014f8282620001b460201b62002d081760201c565b60008281526001602090815260409091206200017691839062002d16620001c4821b17901c565b505050565b6003546000906001600160a01b03163314156200019f575060131936013560601c90565b62000133620001e460201b62002d2b1760201c565b620001c08282620001e8565b5050565b6000620001db836001600160a01b0384166200028a565b90505b92915050565b3390565b6000828152602081815260408083206001600160a01b038516845290915290205460ff16620001c0576000828152602081815260408083206001600160a01b03851684529091529020805460ff19166001179055620002466200011c565b6001600160a01b0316816001600160a01b0316837f2f8788117e7eff1d82e926ec794901d17c78024a50270940304540a733656f0d60405160405180910390a45050565b6000818152600183016020526040812054620002d357508154600181810184556000848152602080822090930184905584548482528286019093526040902091909155620001de565b506000620001de565b828054620002ea906200048c565b90600052602060002090601f0160209004810192826200030e576000855562000359565b82601f106200032957805160ff191683800117855562000359565b8280016001018555821562000359579182015b82811115620003595782518255916020019190600101906200033c565b50620003679291506200036b565b5090565b5b808211156200036757600081556001016200036c565b6000806000806080858703121562000398578384fd5b8451620003a581620004df565b80945050602080860151620003ba81620004df565b60408701519094506001600160401b0380821115620003d7578485fd5b818801915088601f830112620003eb578485fd5b815181811115620004005762000400620004c9565b604051601f8201601f19908116603f011681019083821181831017156200042b576200042b620004c9565b816040528281528b8684870101111562000443578788fd5b8793505b8284101562000466578484018601518185018701529285019262000447565b828411156200047757878684830101525b60609a909a0151989b979a5050505050505050565b600181811c90821680620004a157607f821691505b60208210811415620004c357634e487b7160e01b600052602260045260246000fd5b50919050565b634e487b7160e01b600052604160045260246000fd5b6001600160a01b0381168114620004f557600080fd5b50565b61573780620005086000396000f3fe608060405234801561001057600080fd5b50600436106102775760003560e01c8063ac9650d811610160578063d6febde8116100d8578063ea0e02411161008c578063ec91f2a411610071578063ec91f2a4146106fc578063f23a6e611461071d578063fd967f471461073c57600080fd5b8063ea0e02411461069f578063ebdfbce5146106b257600080fd5b8063deb26b94116100bd578063deb26b941461065d578063e4104eaf14610684578063e8a3d4851461069757600080fd5b8063d6febde8146105a9578063de74e57b146105bc57600080fd5b8063c78b616c1161012f578063d1e42ec011610114578063d1e42ec01461051c578063d4ac9b8c1461052f578063d547741f1461059657600080fd5b8063c78b616c14610500578063ca15c8731461050957600080fd5b8063ac9650d814610499578063bc197c81146104b9578063c0e72740146104d8578063c24afe4e146104ed57600080fd5b80634e03f28d116101f35780639010d07c116101c257806391d14854116101a757806391d1485414610447578063938e3d7b1461047e578063a217fddf1461049157600080fd5b80639010d07c14610409578063918d407d1461043457600080fd5b80634e03f28d146103ac578063572b6c05146103c757806361096ec6146103e957806380cd2464146103f657600080fd5b8063248a9ca31161024a578063354c7ab61161022f578063354c7ab61461035457806336568abe146103675780633f5c3e871461037a57600080fd5b8063248a9ca31461031e5780632f2ff15d1461034157600080fd5b806301ffc9a71461027c578063150b7a02146102a457806320c7852c146102d0578063236ed8f314610309575b600080fd5b61028f61028a366004614fe9565b610745565b60405190151581526020015b60405180910390f35b6102b76102b2366004614dbc565b610797565b6040516001600160e01b0319909116815260200161029b565b6102fb6102de366004614f99565b600b60209081526000928352604080842090915290825290205481565b60405190815260200161029b565b61031c610317366004614f69565b6107a9565b005b6102fb61032c366004614f69565b60009081526020819052604090206001015490565b61031c61034f366004614f99565b611030565b61031c610362366004614f31565b611057565b61031c610375366004614f99565b6110f8565b60075461039390610100900467ffffffffffffffff1681565b60405167ffffffffffffffff909116815260200161029b565b60075461039390600160881b900467ffffffffffffffff1681565b61028f6103d5366004614cda565b6003546001600160a01b0391821691161490565b60075461028f9060ff1681565b61031c6104043660046150e8565b61111a565b61041c610417366004614fc8565b6114d0565b6040516001600160a01b03909116815260200161029b565b61031c610442366004614f99565b6114ef565b61028f610455366004614f99565b6000918252602082815260408084206001600160a01b0393909316845291905290205460ff1690565b61031c61048c366004615011565b6119c1565b6102fb600081565b6104ac6104a7366004614ec1565b611b48565b60405161029b91906153a0565b6102b76104c7366004614d12565b63bc197c8160e01b95945050505050565b6104e0611c67565b60405161029b9190615401565b61031c6104fb366004615113565b611cf5565b6102fb60055481565b6102fb610517366004614f69565b6121ee565b61031c61052a366004615051565b612205565b61056e61053d366004614f69565b600a60205260009081526040902080546001820154600283015460039093015491926001600160a01b039091169184565b604080519485526001600160a01b03909316602085015291830152606082015260800161029b565b61031c6105a4366004614f99565b61261b565b61031c6105b7366004614fc8565b612625565b6106446105ca366004614f69565b600860208190526000918252604090912080546001820154600283015460038401546004850154600586015460068701546007880154988801546009890154600a8a0154600b909a0154989a6001600160a01b039889169a9789169996989597949693951693919290919060ff808216916101009004168d565b60405161029b9d9c9b9a99989796959493929190615460565b6102fb7ff94103142c1baabe9ac2b5d1487bf783de9e69cfeea9a72f5c9c94afd7877b8c81565b61031c610692366004614f69565b6129eb565b6104e0612aed565b61031c6106ad366004614fc8565b612b7f565b61056e6106c0366004614f99565b6009602090815260009283526040808420909152908252902080546001820154600283015460039093015491926001600160a01b039091169184565b600754610393906901000000000000000000900467ffffffffffffffff1681565b6102b761072b366004614e2d565b63f23a6e6160e01b95945050505050565b61039361271081565b60006001600160e01b03198216630271189760e51b148061077657506001600160e01b03198216630a85bd0160e11b145b8061079157506001600160e01b0319821663152a902d60e11b145b92915050565b630a85bd0160e11b5b95945050505050565b6002805414156108005760405162461bcd60e51b815260206004820152601f60248201527f5265656e7472616e637947756172643a207265656e7472616e742063616c6c0060448201526064015b60405180910390fd5b6002808055600082815260086020818152604080842081516101a081018352815481526001808301546001600160a01b0390811695830195909552968201548416928101929092526003810154606083015260048101546080830152600581015460a0830152600681015460c0830152600781015490921660e0820152918101546101008301526009810154610120830152600a810154610140830152600b81015492939192909161016084019160ff16908111156108cf57634e487b7160e01b600052602160045260246000fd5b60018111156108ee57634e487b7160e01b600052602160045260246000fd5b8152602001600b820160019054906101000a900460ff16600181111561092457634e487b7160e01b600052602160045260246000fd5b600181111561094357634e487b7160e01b600052602160045260246000fd5b9052506000838152600a6020908152604080832081516080810183528154815260018201546001600160a01b031693810193909352600281015491830191909152600301546060820152919250610998612d2f565b90504283608001511115610bcc576000848152600860205260409020600101546001600160a01b03828116911614610a385760405162461bcd60e51b815260206004820152602c60248201527f4d61726b65743a2063616c6c657220646f6573206e6f7420746865206c69737460448201527f696e672063726561746f722e000000000000000000000000000000000000000060648201526084016107f7565b60c08301805160008083524260a08701908152878252600860208181526040938490208951815590890151600180830180546001600160a01b039384166001600160a01b031991821617909155958b015160028401805491841691881691909117905560608b0151600384015560808b01516004840155935160058301559551600682015560e089015160078201805491909716941693909317909455610100870151938201939093556101208601516009820155610140860151600a820155610160860151600b820180549394889460ff1916908381811115610b2c57634e487b7160e01b600052602160045260246000fd5b0217905550610180820151600b8201805461ff001916610100836001811115610b6557634e487b7160e01b600052602160045260246000fd5b0217905550905050610b7d3085602001518387612d39565b83602001516001600160a01b0316857f8b8c78dbb114fabd551e84de4546a68891b5f7a217a98e3f2fe7adb18519959b86604051610bbb9190615414565b60405180910390a350505050611028565b82602001516001600160a01b0316816001600160a01b03161480610c05575081602001516001600160a01b0316816001600160a01b0316145b610c775760405162461bcd60e51b815260206004820152602a60248201527f4d61726b65743a206d75737420626520626964646572206f722061756374696f60448201527f6e2063726561746f722e0000000000000000000000000000000000000000000060648201526084016107f7565b60018361018001516001811115610c9e57634e487b7160e01b600052602160045260246000fd5b14610cf65760405162461bcd60e51b815260206004820152602260248201527f4d61726b65743a206c697374696e67206973206e6f7420616e2061756374696f604482015261371760f11b60648201526084016107f7565b428360a0015110610d6f5760405162461bcd60e51b815260206004820152603260248201527f4d61726b65743a2063616e206f6e6c7920636c6f73652061756374696f6e206160448201527f667465722069742068617320656e6465642e000000000000000000000000000060648201526084016107f7565b82602001516001600160a01b0316610d85612d2f565b6001600160a01b03161415610f4d5760008360c001518360600151610daa91906155c4565b600060c086018181524260a08801908152888352600860208181526040948590208a518155908a0151600180830180546001600160a01b039384166001600160a01b031991821617909155968c015160028401805491841691891691909117905560608c0151600384015560808c01516004840155935160058301559351600682015560e08a015160078201805491909516951694909417909255610100880151918301919091556101208701516009830155610140870151600a830155610160870151600b8301805494955088949192909160ff1916908381811115610ea157634e487b7160e01b600052602160045260246000fd5b0217905550610180820151600b8201805461ff001916610100836001811115610eda57634e487b7160e01b600052602160045260246000fd5b021790555050600060608501818152878252600a602090815260409283902087518155818801516001820180546001600160a01b0319166001600160a01b039092169190911790559287015160028401559051600390920191909155850151610f47915030908387612eac565b50610fd4565b81602001516001600160a01b0316610f63612d2f565b6001600160a01b03161415610fd457604082810180516000808352878152600a602090815293902085518155928501516001840180546001600160a01b0319166001600160a01b038316179055915160028401556060850151600390930192909255610fd29030908387612d39565b505b806001600160a01b0316847f42bdf1b5daec205081fa6758882be4b9c6633d2b16ea489d1c36cddfd46d7cab85602001518560200151868860405161101c9493929190615316565b60405180910390a35050505b506001600255565b61103a828261336d565b60008281526001602052604090206110529082612d16565b505050565b6110646000610455612d2f565b6110b05760405162461bcd60e51b815260206004820152601b60248201527f4d61726b65743a206e6f742061206d6f64756c652061646d696e2e000000000060448201526064016107f7565b6007805460ff19168215159081179091556040519081527f56668abce4c06e28f52176150c07856e31ee073b9b62df62a5afbf1a22aec24c906020015b60405180910390a150565b611102828261339a565b60008281526001602052604090206110529082613432565b60028054141561116c5760405162461bcd60e51b815260206004820152601f60248201527f5265656e7472616e637947756172643a207265656e7472616e742063616c6c0060448201526064016107f7565b6002808055600084815260086020818152604080842081516101a081018352815481526001808301546001600160a01b0390811695830195909552968201548416928101929092526003810154606083015260048101546080830152600581015460a0830152600681015460c0830152600781015490921660e0820152918101546101008301526009810154610120830152600a810154610140830152600b81015492939192909161016084019160ff169081111561123b57634e487b7160e01b600052602160045260246000fd5b600181111561125a57634e487b7160e01b600052602160045260246000fd5b8152602001600b820160019054906101000a900460ff16600181111561129057634e487b7160e01b600052602160045260246000fd5b60018111156112af57634e487b7160e01b600052602160045260246000fd5b9052509050600181610180015160018111156112db57634e487b7160e01b600052602160045260246000fd5b141561136957428160a001511180156112f75750428160800151105b6113695760405162461bcd60e51b815260206004820152602f60248201527f4d61726b65743a2063616e206f6e6c79206d616b65206269647320696e20617560448201527f6374696f6e206475726174696f6e2e000000000000000000000000000000000060648201526084016107f7565b6000611373612d2f565b905060006001836101800151600181111561139e57634e487b7160e01b600052602160045260246000fd5b146113b7576113b283610160015186613447565b6113ca565b6113ca8361016001518460c00151613447565b90506113db828460e001518661348c565b604080516080810182528781526001600160a01b038481166020808401828152848601878152606086018b815260008e815260098552888120868252909452928790208651815591516001830180546001600160a01b03191691909616179094559251600284015551600390920191909155915190919088907f325ebd560da99b6ec57c8698998d68ddf274d0b921541d5b702974d58ca87992906114839085908990615423565b60405180910390a3600184610180015160018111156114b257634e487b7160e01b600052602160045260246000fd5b14156114c2576114c28482613608565b505060016002555050505050565b60008281526001602052604081206114e890836139a4565b9392505050565b6002805414156115415760405162461bcd60e51b815260206004820152601f60248201527f5265656e7472616e637947756172643a207265656e7472616e742063616c6c0060448201526064016107f7565b600280558161154e612d2f565b6000828152600860205260409020600101546001600160a01b039081169116146115c95760405162461bcd60e51b815260206004820152602660248201527f4d61726b65743a2063616c6c6572206973206e6f74206c697374696e6720637260448201526532b0ba37b91760d11b60648201526084016107f7565b60008381526009602081815260408084206001600160a01b03808816865290835281852082516080808201855282548252600180840154851683880152600280850154848801526003948501546060808601919091528d8b526008808a52888c2089516101a081018b5281548152818601548a169b81019b909b52928301548816988a01989098529481015494880194909452600484015491870191909152600583015460a0870152600683015460c0870152600783015490931660e08601529281015461010085015293840154610120840152600a840154610140840152600b8401549194939161016084019160ff909116908111156116da57634e487b7160e01b600052602160045260246000fd5b60018111156116f957634e487b7160e01b600052602160045260246000fd5b8152602001600b820160019054906101000a900460ff16600181111561172f57634e487b7160e01b600052602160045260246000fd5b600181111561174e57634e487b7160e01b600052602160045260246000fd5b81525050905061177c81602001518260400151836060015185604001518561016001518661018001516139b0565b6117e15760405162461bcd60e51b815260206004820152603060248201527f4d61726b65743a206d757374206f776e20616e6420617070726f766520746f2060448201526f3a3930b739b332b9103a37b5b2b7399760811b60648201526084016107f7565b81604001518160c0018181516117f791906155e3565b9052506000858152600860208181526040928390208451815590840151600180830180546001600160a01b03199081166001600160a01b0394851617909155948601516002840180548716918416919091179055606086015160038401556080860151600484015560a0860151600584015560c0860151600684015560e0860151600784018054909616921691909117909355610100840151918101919091556101208301516009820155610140830151600a820155610160830151600b82018054859460ff199091169083818111156118e157634e487b7160e01b600052602160045260246000fd5b0217905550610180820151600b8201805461ff00191661010083600181111561191a57634e487b7160e01b600052602160045260246000fd5b02179055509050506119458482602001518460400151856060015161193f91906155c4565b84612eac565b611959816020015185846040015184612d39565b8481602001516001600160a01b031682604001516001600160a01b03167f13f347bec00b07d4fa8ffa656bbcb29bd18e63fd4621925b71f60ff36c6425c9878660400151866040516119ad93929190615373565b60405180910390a450506001600255505050565b600480546040805163a217fddf60e01b815290516001600160a01b03909216926391d1485492849263a217fddf9281810192602092909190829003018186803b158015611a0d57600080fd5b505afa158015611a21573d6000803e3d6000fd5b505050506040513d601f19601f82011682018060405250810190611a459190614f81565b611a4d612d2f565b6040516001600160e01b031960e085901b16815260048101929092526001600160a01b0316602482015260440160206040518083038186803b158015611a9257600080fd5b505afa158015611aa6573d6000803e3d6000fd5b505050506040513d601f19601f82011682018060405250810190611aca9190614f4d565b611b3c5760405162461bcd60e51b815260206004820152603560248201527f4d61726b65743a206f6e6c7920612070726f746f636f6c2061646d696e20636160448201527f6e2063616c6c20746869732066756e6374696f6e2e000000000000000000000060648201526084016107f7565b61105260068383614af2565b60608167ffffffffffffffff811115611b7157634e487b7160e01b600052604160045260246000fd5b604051908082528060200260200182016040528015611ba457816020015b6060815260200190600190039081611b8f5790505b50905060005b82811015611c6057611c2230858584818110611bd657634e487b7160e01b600052603260045260246000fd5b9050602002810190611be891906154ec565b8080601f016020809104026020016040519081016040528093929190818152602001838380828437600092019190915250613e1892505050565b828281518110611c4257634e487b7160e01b600052603260045260246000fd5b60200260200101819052508080611c5890615678565b915050611baa565b5092915050565b60068054611c749061563d565b80601f0160208091040260200160405190810160405280929190818152602001828054611ca09061563d565b8015611ced5780601f10611cc257610100808354040283529160200191611ced565b820191906000526020600020905b815481529060010190602001808311611cd057829003601f168201915b505050505081565b87611cfe612d2f565b6000828152600860205260409020600101546001600160a01b03908116911614611d795760405162461bcd60e51b815260206004820152602660248201527f4d61726b65743a2063616c6c6572206973206e6f74206c697374696e6720637260448201526532b0ba37b91760d11b60648201526084016107f7565b600089815260086020818152604080842081516101a081018352815481526001808301546001600160a01b039081169583019590955260028301548516938201939093526003820154606082015260048201546080820152600582015460a0820152600682015460c0820152600782015490931660e0840152928301546101008301526009830154610120830152600a830154610140830152600b83015491929161016084019160ff90911690811115611e4357634e487b7160e01b600052602160045260246000fd5b6001811115611e6257634e487b7160e01b600052602160045260246000fd5b8152602001600b820160019054906101000a900460ff166001811115611e9857634e487b7160e01b600052602160045260246000fd5b6001811115611eb757634e487b7160e01b600052602160045260246000fd5b8152505090506000611ece8261016001518b613447565b905060018261018001516001811115611ef757634e487b7160e01b600052602160045260246000fd5b1415611f875742826080015110611f765760405162461bcd60e51b815260206004820152602860248201527f4d61726b65743a2063616e6e6f7420656469742061756374696f6e206166746560448201527f722073746172742e00000000000000000000000000000000000000000000000060648201526084016107f7565b610100820189905261012082018890525b898260c001511461202357611fb6826020015183604001518460600151848661016001518761018001516139b0565b61201b5760405162461bcd60e51b815260206004820152603060248201527f4d61726b65743a206d757374206f776e20616e6420617070726f766520746f2060448201526f3a3930b739b332b9103a37b5b2b7399760811b60648201526084016107f7565b60c082018190525b6001600160a01b03861660e08301526101408201879052841561204f5761204a854261558c565b612055565b81608001515b6080830152831561206f5761206a844261558c565b612075565b8160a001515b60a0830190815260008c8152600860208181526040928390208651815590860151600180830180546001600160a01b03199081166001600160a01b039485161790915594880151600284018054871691841691909117905560608801516003840155608088015160048401559451600583015560c0870151600683015560e0870151600783018054909516911617909255610100850151908201556101208401516009820155610140840151600a820155610160840151600b82018054869460ff1990911690838181111561215a57634e487b7160e01b600052602160045260246000fd5b0217905550610180820151600b8201805461ff00191661010083600181111561219357634e487b7160e01b600052602160045260246000fd5b02179055509050508a82602001516001600160a01b03167f9897b5e6dd37a61b6f078227f64ef9c4d6744428f9ab322e9d3160c1a3960464846040516121d99190615414565b60405180910390a35050505050505050505050565b600081815260016020526040812061079190613e3d565b60075460ff16158061223e575061223e7ff94103142c1baabe9ac2b5d1487bf783de9e69cfeea9a72f5c9c94afd7877b8c610455612d2f565b6122b05760405162461bcd60e51b815260206004820152602960248201527f4d61726b65743a2063616c6c657220646f6573206e6f742068617665204c495360448201527f5445525f524f4c452e000000000000000000000000000000000000000000000060648201526084016107f7565b60006122ba613e47565b905060006122c6612d2f565b905060006122d78460000151613e65565b905060008460800151118015612307575061230782856000015186602001518760800151858961012001516139b0565b61236c5760405162461bcd60e51b815260206004820152603060248201527f4d61726b65743a206d757374206f776e20616e6420617070726f766520746f2060448201526f3a3930b739b332b9103a37b5b2b7399760811b60648201526084016107f7565b6000604051806101a00160405280858152602001846001600160a01b0316815260200186600001516001600160a01b03168152602001866020015181526020018660400151426123bc919061558c565b815260200186606001516000146123e15760608701516123dc904261558c565b6123e5565b6000195b81526020016123f8848860800151613447565b81526020018660a001516001600160a01b031681526020018660c0015181526020018660e00151815260200186610100015160001461243c57866101000151612442565b86608001515b815260200183600181111561246757634e487b7160e01b600052602160045260246000fd5b8152602001866101200151600181111561249157634e487b7160e01b600052602160045260246000fd5b90526000858152600860208181526040928390208451815590840151600180830180546001600160a01b03199081166001600160a01b0394851617909155948601516002840180548716918416919091179055606086015160038401556080860151600484015560a0860151600584015560c0860151600684015560e0860151600784018054909616921691909117909355610100840151918101919091556101208301516009820155610140830151600a820155610160830151600b82018054949550859492939192909160ff1990911690838181111561258357634e487b7160e01b600052602160045260246000fd5b0217905550610180820151600b8201805461ff0019166101008360018111156125bc57634e487b7160e01b600052602160045260246000fd5b021790555090505083836001600160a01b031686600001516001600160a01b03167fbd4ad658f54c65cfbfb4961c722cac4e1bc357eaabbd6ad51273e752a44819168460405161260c9190615414565b60405180910390a45050505050565b6111028282613ff1565b6002805414156126775760405162461bcd60e51b815260206004820152601f60248201527f5265656e7472616e637947756172643a207265656e7472616e742063616c6c0060448201526064016107f7565b6002808055600083815260086020818152604080842081516101a081018352815481526001808301546001600160a01b0390811695830195909552968201548416928101929092526003810154606083015260048101546080830152600581015460a0830152600681015460c0830152600781015490921660e0820152918101546101008301526009810154610120830152600a810154610140830152600b81015492939192909161016084019160ff169081111561274657634e487b7160e01b600052602160045260246000fd5b600181111561276557634e487b7160e01b600052602160045260246000fd5b8152602001600b820160019054906101000a900460ff16600181111561279b57634e487b7160e01b600052602160045260246000fd5b60018111156127ba57634e487b7160e01b600052602160045260246000fd5b905250905060006127c9612d2f565b90506127d6828285614019565b828260c0018181516127e891906155e3565b9052506000848152600860208181526040928390208551815590850151600180830180546001600160a01b03199081166001600160a01b0394851617909155948701516002840180548716918416919091179055606087015160038401556080870151600484015560a0870151600584015560c0870151600684015560e0870151600784018054909616921691909117909355610100850151918101919091556101208401516009820155610140840151600a820155610160840151600b82018054869460ff199091169083818111156128d257634e487b7160e01b600052602160045260246000fd5b0217905550610180820151600b8201805461ff00191661010083600181111561290b57634e487b7160e01b600052602160045260246000fd5b021790555050506000848152600b602090815260408083206001600160a01b03851684529091528120805485929061294490849061558c565b909155505061012082015115612974576129748183602001518585610120015161296e91906155c4565b85612eac565b6129848260200151828585612d39565b816000015182602001516001600160a01b031683604001516001600160a01b03167f13f347bec00b07d4fa8ffa656bbcb29bd18e63fd4621925b71f60ff36c6425c98487876040516129d893929190615373565b60405180910390a4505060016002555050565b6129f86000610455612d2f565b612a445760405162461bcd60e51b815260206004820152601b60248201527f4d61726b65743a206e6f742061206d6f64756c652061646d696e2e000000000060448201526064016107f7565b6127108110612a955760405162461bcd60e51b815260206004820152601460248201527f4d61726b65743a20696e76616c6964204250532e00000000000000000000000060448201526064016107f7565b6007805468ffffffffffffffff00191661010067ffffffffffffffff8416908102919091179091556040519081527f1923ecef8dbc1cebea2768819f7df282b72fb6d62bf99da204590b9d5cac7a7b906020016110ed565b606060068054612afc9061563d565b80601f0160208091040260200160405190810160405280929190818152602001828054612b289061563d565b8015612b755780601f10612b4a57610100808354040283529160200191612b75565b820191906000526020600020905b815481529060010190602001808311612b5857829003601f168201915b5050505050905090565b612b8c6000610455612d2f565b612bd85760405162461bcd60e51b815260206004820152601b60248201527f4d61726b65743a206e6f742061206d6f64756c652061646d696e2e000000000060448201526064016107f7565b6127108110612c295760405162461bcd60e51b815260206004820152601460248201527f4d61726b65743a20696e76616c6964204250532e00000000000000000000000060448201526064016107f7565b6007805467ffffffffffffffff838116600160881b027fffffffffffffff0000000000000000ffffffffffffffffffffffffffffffffff918616690100000000000000000002919091167fffffffffffffff00000000000000000000000000000000ffffffffffffffffff9092169190911717905560408051838152602081018390527f441ed6470e96704c3f8c9e70c209107078aab3f17311385e886081b91aa75088910160405180910390a15050565b6003546000906001600160a01b0316331415612cfe575060131936013560601c90565b503390565b905090565b612d128282614221565b5050565b60006114e8836001600160a01b0384166142c0565b3390565b6000612d03612cdb565b60008161016001516001811115612d6057634e487b7160e01b600052602160045260246000fd5b1415612df55760408082015160608301519151637921219560e11b81526001600160a01b038781166004830152868116602483015260448201939093526064810185905260a06084820152600060a482015291169063f242432a9060c401600060405180830381600087803b158015612dd857600080fd5b505af1158015612dec573d6000803e3d6000fd5b50505050612ea6565b60018161016001516001811115612e1c57634e487b7160e01b600052602160045260246000fd5b1415612ea65760408082015160608301519151635c46a7ef60e11b81526001600160a01b03878116600483015286811660248301526044820193909352608060648201526000608482015291169063b88d4fde9060a401600060405180830381600087803b158015612e8d57600080fd5b505af1158015612ea1573d6000803e3d6000fd5b505050505b50505050565b600754600090819061271090612ed190610100900467ffffffffffffffff16866155c4565b612edb91906155a4565b60e08401516004805460405163f2aab4b360e01b815230928101929092529293506001600160a01b03918216926323b872dd928a9291169063f2aab4b39060240160206040518083038186803b158015612f3457600080fd5b505afa158015612f48573d6000803e3d6000fd5b505050506040513d601f19601f82011682018060405250810190612f6c9190614cf6565b6040516001600160e01b031960e085901b1681526001600160a01b0392831660048201529116602482015260448101849052606401602060405180830381600087803b158015612fbb57600080fd5b505af1158015612fcf573d6000803e3d6000fd5b505050506040513d601f19601f82011682018060405250810190612ff39190614f4d565b9150600061300182866155e3565b60408086015190516301ffc9a760e01b815263152a902d60e11b60048201529192506001600160a01b0316906301ffc9a79060240160206040518083038186803b15801561304e57600080fd5b505afa158015613062573d6000803e3d6000fd5b505050506040513d601f19601f820116820180604052508101906130869190614f4d565b1561325f5760008085604001516001600160a01b0316632a55205a8760600151896040518363ffffffff1660e01b81526004016130cd929190918252602082015260400190565b604080518083038186803b1580156130e457600080fd5b505afa1580156130f8573d6000803e3d6000fd5b505050506040513d601f19601f8201168201806040525081019061311c9190614e94565b90925090506001600160a01b038216158015906131395750600081115b1561325c5786613149858361558c565b11156131bd5760405162461bcd60e51b815260206004820152602b60248201527f4d61726b65743a20546f74616c206d61726b657420666565732065786365656460448201527f207468652070726963652e00000000000000000000000000000000000000000060648201526084016107f7565b6131c781846155e3565b60e08701516040516323b872dd60e01b81526001600160a01b038c811660048301528581166024830152604482018590529295509116906323b872dd90606401602060405180830381600087803b15801561322157600080fd5b505af1158015613235573d6000803e3d6000fd5b505050506040513d601f19601f820116820180604052508101906132599190614f4d565b94505b50505b60e08401516040516323b872dd60e01b81526001600160a01b038981166004830152888116602483015260448201849052909116906323b872dd90606401602060405180830381600087803b1580156132b757600080fd5b505af11580156132cb573d6000803e3d6000fd5b505050506040513d601f19601f820116820180604052508101906132ef9190614f4d565b9250826133645760405162461bcd60e51b815260206004820152602660248201527f4d61726b65743a206661696c656420746f207061796f7574207374616b65686f60448201527f6c646572732e000000000000000000000000000000000000000000000000000060648201526084016107f7565b50505050505050565b6000828152602081905260409020600101546133908161338b612d2f565b61430f565b6110528383614221565b6133a2612d2f565b6001600160a01b0316816001600160a01b0316146134285760405162461bcd60e51b815260206004820152602f60248201527f416363657373436f6e74726f6c3a2063616e206f6e6c792072656e6f756e636560448201527f20726f6c657320666f722073656c66000000000000000000000000000000000060648201526084016107f7565b612d12828261438d565b60006114e8836001600160a01b03841661442a565b60008161345657506000610791565b600183600181111561347857634e487b7160e01b600052602160045260246000fd5b1461348357816114e8565b50600192915050565b6040516370a0823160e01b81526001600160a01b0384811660048301528291908416906370a082319060240160206040518083038186803b1580156134d057600080fd5b505afa1580156134e4573d6000803e3d6000fd5b505050506040513d601f19601f820116820180604052508101906135089190614f81565b101580156135965750604051636eb1769f60e11b81526001600160a01b03848116600483015230602483015282919084169063dd62ed3e9060440160206040518083038186803b15801561355b57600080fd5b505afa15801561356f573d6000803e3d6000fd5b505050506040513d601f19601f820116820180604052508101906135939190614f81565b10155b6110525760405162461bcd60e51b815260206004820152603960248201527f4d61726b65743a206d757374206f776e20616e6420617070726f7665204d617260448201527f6b657420746f207472616e736665722063757272656e63792e0000000000000060648201526084016107f7565b81516000908152600a602090815260409182902082516080810184528154815260018201546001600160a01b03169281019290925260028101549282019290925260039091015460608083018290528301516136649190614547565b15611052576000816020015190506000826060015190508392506136958560e0015185602001518660600151614592565b60e08501516040516323b872dd60e01b81523060048201526001600160a01b03848116602483015260448201849052909116906323b872dd90606401602060405180830381600087803b1580156136eb57600080fd5b505af11580156136ff573d6000803e3d6000fd5b505050506040513d601f19601f820116820180604052508101906137239190614f4d565b50600085610120015111801561375157508460c0015185610120015161374991906155c4565b846060015110155b1561377f5760408301805160009091524260a087015260208401516137799030908389612d39565b506137e1565b60075460a0860151690100000000000000000090910467ffffffffffffffff16906137ab9042906155e3565b116137e15760075460a086018051690100000000000000000090920467ffffffffffffffff16916137dd90839061558c565b9052505b84516000908152600860208181526040928390208851815590880151600180830180546001600160a01b03199081166001600160a01b0394851617909155948a0151600284018054871691841691909117905560608a0151600384015560808a0151600484015560a08a0151600584015560c08a0151600684015560e08a0151600784018054909616921691909117909355610100880151918101919091556101208701516009820155610140870151600a820155610160870151600b82018054899460ff199091169083818111156138ca57634e487b7160e01b600052602160045260246000fd5b0217905550610180820151600b8201805461ff00191661010083600181111561390357634e487b7160e01b600052602160045260246000fd5b02179055505085516000908152600a602090815260409182902086518155868201516001820180546001600160a01b0319166001600160a01b0392831617905587840151600283015560608801516003909201919091559087015188519251911692507f4aebf4dd6dc586d8e61e80b74856628c80f4e50926edf340a66ce6b25a760b43906139959087908a90615423565b60405180910390a35050505050565b60006114e883836147a7565b600030818460018111156139d457634e487b7160e01b600052602160045260246000fd5b1415613b9d57604051627eeac760e11b81526001600160a01b0389811660048301526024820188905286919089169062fdd58e9060440160206040518083038186803b158015613a2357600080fd5b505afa158015613a37573d6000803e3d6000fd5b505050506040513d601f19601f82011682018060405250810190613a5b9190614f81565b10158015613ae5575060405163e985e9c560e01b81526001600160a01b038981166004830152828116602483015288169063e985e9c59060440160206040518083038186803b158015613aad57600080fd5b505afa158015613ac1573d6000803e3d6000fd5b505050506040513d601f19601f82011682018060405250810190613ae59190614f4d565b9150818015613b1357506001836001811115613b1157634e487b7160e01b600052602160045260246000fd5b145b15613b9857604051637921219560e11b81526001600160a01b0389811660048301528281166024830152604482018890526064820187905260a06084830152600060a483015288169063f242432a9060c401600060405180830381600087803b158015613b7f57600080fd5b505af1158015613b93573d6000803e3d6000fd5b505050505b613e0d565b6001846001811115613bbf57634e487b7160e01b600052602160045260246000fd5b1415613e0d576040516331a9108f60e11b8152600481018790526001600160a01b03808a169190891690636352211e9060240160206040518083038186803b158015613c0a57600080fd5b505afa158015613c1e573d6000803e3d6000fd5b505050506040513d601f19601f82011682018060405250810190613c429190614cf6565b6001600160a01b0316148015613d61575060405163020604bf60e21b8152600481018790526001600160a01b03808316919089169063081812fc9060240160206040518083038186803b158015613c9857600080fd5b505afa158015613cac573d6000803e3d6000fd5b505050506040513d601f19601f82011682018060405250810190613cd09190614cf6565b6001600160a01b03161480613d61575060405163e985e9c560e01b81526001600160a01b038981166004830152828116602483015288169063e985e9c59060440160206040518083038186803b158015613d2957600080fd5b505afa158015613d3d573d6000803e3d6000fd5b505050506040513d601f19601f82011682018060405250810190613d619190614f4d565b9150818015613d8f57506001836001811115613d8d57634e487b7160e01b600052602160045260246000fd5b145b15613e0d57604051635c46a7ef60e11b81526001600160a01b038981166004830152828116602483015260448201889052608060648301526000608483015288169063b88d4fde9060a401600060405180830381600087803b158015613df457600080fd5b505af1158015613e08573d6000803e3d6000fd5b505050505b509695505050505050565b60606114e88383604051806060016040528060278152602001615704602791396147df565b6000610791825490565b60058054906001906000613e5b838561558c565b9250508190555090565b6040516301ffc9a760e01b8152636cdb3d1360e11b60048201526000906001600160a01b038316906301ffc9a79060240160206040518083038186803b158015613eae57600080fd5b505afa158015613ec2573d6000803e3d6000fd5b505050506040513d601f19601f82011682018060405250810190613ee69190614f4d565b15613ef357506000919050565b6040516301ffc9a760e01b81526380ac58cd60e01b60048201526001600160a01b038316906301ffc9a79060240160206040518083038186803b158015613f3957600080fd5b505afa158015613f4d573d6000803e3d6000fd5b505050506040513d601f19601f82011682018060405250810190613f719190614f4d565b15613f7e57506001919050565b60405162461bcd60e51b815260206004820152602b60248201527f4d61726b65743a206d75737420696d706c656d656e742045524320313135352060448201527f6f7220455243203732312e00000000000000000000000000000000000000000060648201526084016107f7565b919050565b60008281526020819052604090206001015461400f8161338b612d2f565b611052838361438d565b614038828460e001518561012001518461403391906155c4565b61348c565b6140608360200151846040015185606001518660c001518761016001518861018001516139b0565b6140d25760405162461bcd60e51b815260206004820152602c60248201527f4d61726b65743a2063616e6e6f742062757920746f6b656e732066726f6d207460448201527f686973206c697374696e672e000000000000000000000000000000000000000060648201526084016107f7565b6000811180156140e657508260c001518111155b8015614125575061014083015183516000908152600b602090815260408083206001600160a01b0387168452909152902054614122908361558c565b11155b6141975760405162461bcd60e51b815260206004820152603160248201527f4d61726b65743a206d7573742062757920616e20617070726f7072696174652060448201527f616d6f756e74206f6620746f6b656e732e00000000000000000000000000000060648201526084016107f7565b8260a0015142111580156141af575082608001514210155b6110525760405162461bcd60e51b815260206004820152603260248201527f4d61726b65743a207468652073616c652068617320656974686572206e6f742060448201527f73746172746564206f7220636c6f7365642e000000000000000000000000000060648201526084016107f7565b6000828152602081815260408083206001600160a01b038516845290915290205460ff16612d12576000828152602081815260408083206001600160a01b03851684529091529020805460ff1916600117905561427c612d2f565b6001600160a01b0316816001600160a01b0316837f2f8788117e7eff1d82e926ec794901d17c78024a50270940304540a733656f0d60405160405180910390a45050565b600081815260018301602052604081205461430757508154600181810184556000848152602080822090930184905584548482528286019093526040902091909155610791565b506000610791565b6000828152602081815260408083206001600160a01b038516845290915290205460ff16612d125761434b816001600160a01b031660146148ca565b6143568360206148ca565b604051602001614367929190615295565b60408051601f198184030181529082905262461bcd60e51b82526107f791600401615401565b6000828152602081815260408083206001600160a01b038516845290915290205460ff1615612d12576000828152602081815260408083206001600160a01b03851684529091529020805460ff191690556143e6612d2f565b6001600160a01b0316816001600160a01b0316837ff6391f5c32d9c69d2a47ea670b442974b53935d1edc7fd64eb21e047a839171b60405160405180910390a45050565b6000818152600183016020526040812054801561453d57600061444e6001836155e3565b8554909150600090614462906001906155e3565b90508181146144e357600086600001828154811061449057634e487b7160e01b600052603260045260246000fd5b90600052602060002001549050808760000184815481106144c157634e487b7160e01b600052603260045260246000fd5b6000918252602080832090910192909255918252600188019052604090208390555b855486908061450257634e487b7160e01b600052603160045260246000fd5b600190038181906000526020600020016000905590558560010160008681526020019081526020016000206000905560019350505050610791565b6000915050610791565b600082821180156114e85750600754600160881b900467ffffffffffffffff168361271061457582866155e3565b61457f91906155c4565b61458991906155a4565b10159392505050565b6040516370a0823160e01b81523060048201819052906000906001600160a01b038616906370a082319060240160206040518083038186803b1580156145d757600080fd5b505afa1580156145eb573d6000803e3d6000fd5b505050506040513d601f19601f8201168201806040525081019061460f9190614f81565b6040516323b872dd60e01b81526001600160a01b0386811660048301528481166024830152604482018690529192506000918716906323b872dd90606401602060405180830381600087803b15801561466757600080fd5b505af115801561467b573d6000803e3d6000fd5b505050506040513d601f19601f8201168201806040525081019061469f9190614f4d565b6040516370a0823160e01b81526001600160a01b0385811660048301529192506000918816906370a082319060240160206040518083038186803b1580156146e657600080fd5b505afa1580156146fa573d6000803e3d6000fd5b505050506040513d601f19601f8201168201806040525081019061471e9190614f81565b90508180156147355750614732858461558c565b81145b6133645760405162461bcd60e51b815260206004820152602760248201527f4d61726b65743a206661696c656420746f207265636569766520696e636f6d6960448201527f6e67206269642e0000000000000000000000000000000000000000000000000060648201526084016107f7565b60008260000182815481106147cc57634e487b7160e01b600052603260045260246000fd5b9060005260206000200154905092915050565b6060833b6148555760405162461bcd60e51b815260206004820152602660248201527f416464726573733a2064656c65676174652063616c6c20746f206e6f6e2d636f60448201527f6e7472616374000000000000000000000000000000000000000000000000000060648201526084016107f7565b600080856001600160a01b0316856040516148709190615279565b600060405180830381855af49150503d80600081146148ab576040519150601f19603f3d011682016040523d82523d6000602084013e6148b0565b606091505b50915091506148c0828286614ab9565b9695505050505050565b606060006148d98360026155c4565b6148e490600261558c565b67ffffffffffffffff81111561490a57634e487b7160e01b600052604160045260246000fd5b6040519080825280601f01601f191660200182016040528015614934576020820181803683370190505b509050600360fc1b8160008151811061495d57634e487b7160e01b600052603260045260246000fd5b60200101906001600160f81b031916908160001a905350600f60fb1b8160018151811061499a57634e487b7160e01b600052603260045260246000fd5b60200101906001600160f81b031916908160001a90535060006149be8460026155c4565b6149c990600161558c565b90505b6001811115614a6a577f303132333435363738396162636465660000000000000000000000000000000085600f1660108110614a1857634e487b7160e01b600052603260045260246000fd5b1a60f81b828281518110614a3c57634e487b7160e01b600052603260045260246000fd5b60200101906001600160f81b031916908160001a90535060049490941c93614a6381615626565b90506149cc565b5083156114e85760405162461bcd60e51b815260206004820181905260248201527f537472696e67733a20686578206c656e67746820696e73756666696369656e7460448201526064016107f7565b60608315614ac85750816114e8565b825115614ad85782518084602001fd5b8160405162461bcd60e51b81526004016107f79190615401565b828054614afe9061563d565b90600052602060002090601f016020900481019282614b205760008555614b66565b82601f10614b395782800160ff19823516178555614b66565b82800160010185558215614b66579182015b82811115614b66578235825591602001919060010190614b4b565b50614b72929150614b76565b5090565b5b80821115614b725760008155600101614b77565b8035613fec816156e0565b600082601f830112614ba6578081fd5b8135602067ffffffffffffffff821115614bc257614bc26156a9565b8160051b614bd182820161555b565b838152828101908684018388018501891015614beb578687fd5b8693505b85841015614c0d578035835260019390930192918401918401614bef565b50979650505050505050565b60008083601f840112614c2a578182fd5b50813567ffffffffffffffff811115614c41578182fd5b602083019150836020828501011115614c5957600080fd5b9250929050565b600082601f830112614c70578081fd5b813567ffffffffffffffff811115614c8a57614c8a6156a9565b614c9d601f8201601f191660200161555b565b818152846020838601011115614cb1578283fd5b816020850160208301379081016020019190915292915050565b803560028110613fec57600080fd5b600060208284031215614ceb578081fd5b81356114e8816156e0565b600060208284031215614d07578081fd5b81516114e8816156e0565b600080600080600060a08688031215614d29578081fd5b8535614d34816156e0565b94506020860135614d44816156e0565b9350604086013567ffffffffffffffff80821115614d60578283fd5b614d6c89838a01614b96565b94506060880135915080821115614d81578283fd5b614d8d89838a01614b96565b93506080880135915080821115614da2578283fd5b50614daf88828901614c60565b9150509295509295909350565b600080600080600060808688031215614dd3578081fd5b8535614dde816156e0565b94506020860135614dee816156e0565b935060408601359250606086013567ffffffffffffffff811115614e10578182fd5b614e1c88828901614c19565b969995985093965092949392505050565b600080600080600060a08688031215614e44578081fd5b8535614e4f816156e0565b94506020860135614e5f816156e0565b93506040860135925060608601359150608086013567ffffffffffffffff811115614e88578182fd5b614daf88828901614c60565b60008060408385031215614ea6578182fd5b8251614eb1816156e0565b6020939093015192949293505050565b60008060208385031215614ed3578182fd5b823567ffffffffffffffff80821115614eea578384fd5b818501915085601f830112614efd578384fd5b813581811115614f0b578485fd5b8660208260051b8501011115614f1f578485fd5b60209290920196919550909350505050565b600060208284031215614f42578081fd5b81356114e8816156f5565b600060208284031215614f5e578081fd5b81516114e8816156f5565b600060208284031215614f7a578081fd5b5035919050565b600060208284031215614f92578081fd5b5051919050565b60008060408385031215614fab578182fd5b823591506020830135614fbd816156e0565b809150509250929050565b60008060408385031215614fda578182fd5b50508035926020909101359150565b600060208284031215614ffa578081fd5b81356001600160e01b0319811681146114e8578182fd5b60008060208385031215615023578182fd5b823567ffffffffffffffff811115615039578283fd5b61504585828601614c19565b90969095509350505050565b60006101408284031215615063578081fd5b61506b615531565b61507483614b8b565b8152602083013560208201526040830135604082015260608301356060820152608083013560808201526150aa60a08401614b8b565b60a082015260c083013560c082015260e083013560e08201526101008084013581830152506101206150dd818501614ccb565b908201529392505050565b6000806000606084860312156150fc578081fd5b505081359360208301359350604090920135919050565b600080600080600080600080610100898b03121561512f578586fd5b883597506020890135965060408901359550606089013594506080890135935060a089013561515d816156e0565b979a969950949793969295929450505060c08201359160e0013590565b600081518084526151928160208601602086016155fa565b601f01601f19169290920160200192915050565b6151af816156bf565b9052565b8051825260208101516151d160208401826001600160a01b03169052565b5060408101516151ec60408401826001600160a01b03169052565b50606081015160608301526080810151608083015260a081015160a083015260c081015160c083015260e081015161522f60e08401826001600160a01b03169052565b5061010081810151908301526101208082015190830152610140808201519083015261016080820151615264828501826151a6565b505061018080820151612ea6828501826151a6565b6000825161528b8184602087016155fa565b9190910192915050565b7f416363657373436f6e74726f6c3a206163636f756e74200000000000000000008152600083516152cd8160178501602088016155fa565b7f206973206d697373696e6720726f6c6520000000000000000000000000000000601791840191820152835161530a8160288401602088016155fa565b01602801949350505050565b6001600160a01b0385811682528416602082015261026081016153666040830185805182526001600160a01b03602082015116602083015260408101516040830152606081015160608301525050565b6107a060c08301846151b3565b6001600160a01b0384168152602081018390526101e0810161539860408301846151b3565b949350505050565b6000602080830181845280855180835260408601915060408160051b8701019250838701855b828110156153f457603f198886030184526153e285835161517a565b945092850192908501906001016153c6565b5092979650505050505050565b6020815260006114e8602083018461517a565b6101a0810161079182846151b3565b825181526020808401516001600160a01b031690820152604080840151908201526060808401519082015261022081016114e860808301846151b3565b60006101a0820190508e82526001600160a01b03808f166020840152808e1660408401528c60608401528b60808401528a60a08401528960c084015280891660e0840152508661010083015285610120830152846101408301526154c3846156bf565b836101608301526154d3836156bf565b826101808301529e9d5050505050505050505050505050565b6000808335601e19843603018112615502578283fd5b83018035915067ffffffffffffffff82111561551c578283fd5b602001915036819003821315614c5957600080fd5b604051610140810167ffffffffffffffff81118282101715615555576155556156a9565b60405290565b604051601f8201601f1916810167ffffffffffffffff81118282101715615584576155846156a9565b604052919050565b6000821982111561559f5761559f615693565b500190565b6000826155bf57634e487b7160e01b81526012600452602481fd5b500490565b60008160001904831182151516156155de576155de615693565b500290565b6000828210156155f5576155f5615693565b500390565b60005b838110156156155781810151838201526020016155fd565b83811115612ea65750506000910152565b60008161563557615635615693565b506000190190565b600181811c9082168061565157607f821691505b6020821081141561567257634e487b7160e01b600052602260045260246000fd5b50919050565b600060001982141561568c5761568c615693565b5060010190565b634e487b7160e01b600052601160045260246000fd5b634e487b7160e01b600052604160045260246000fd5b600281106156dd57634e487b7160e01b600052602160045260246000fd5b50565b6001600160a01b03811681146156dd57600080fd5b80151581146156dd57600080fdfe416464726573733a206c6f772d6c6576656c2064656c65676174652063616c6c206661696c6564a164736f6c6343000804000a",
  "linkReferences": {},
  "deployedLinkReferences": {}
}