{
  "_format": "hh-sol-artifact-1",
  "contractName": "MarketWithAuction",
  "sourceName": "contracts/v2/MarketWithAuction.sol",
  "abi": [
    {
      "inputs": [
        {
          "internalType": "address payable",
          "name": "_controlCenter",
          "type": "address"
        },
        {
          "internalType": "address",
          "name": "_trustedForwarder",
          "type": "address"
        },
        {
          "internalType": "string",
          "name": "_uri",
          "type": "string"
        },
        {
          "internalType": "uint256",
          "name": "_marketFeeBps",
          "type": "uint256"
        }
      ],
      "stateMutability": "nonpayable",
      "type": "constructor"
    },
    {
      "anonymous": false,
      "inputs": [
        {
          "indexed": false,
          "internalType": "uint256",
          "name": "timeBuffer",
          "type": "uint256"
        },
        {
          "indexed": false,
          "internalType": "uint256",
          "name": "bidBufferBps",
          "type": "uint256"
        }
      ],
      "name": "AuctionBuffersUpdated",
      "type": "event"
    },
    {
      "anonymous": false,
      "inputs": [
        {
          "indexed": true,
          "internalType": "uint256",
          "name": "listingId",
          "type": "uint256"
        },
        {
          "indexed": true,
          "internalType": "address",
          "name": "auctionCreator",
          "type": "address"
        },
        {
          "components": [
            {
              "internalType": "uint256",
              "name": "listingId",
              "type": "uint256"
            },
            {
              "internalType": "address",
              "name": "tokenOwner",
              "type": "address"
            },
            {
              "internalType": "address",
              "name": "assetContract",
              "type": "address"
            },
            {
              "internalType": "uint256",
              "name": "tokenId",
              "type": "uint256"
            },
            {
              "internalType": "uint256",
              "name": "startTime",
              "type": "uint256"
            },
            {
              "internalType": "uint256",
              "name": "endTime",
              "type": "uint256"
            },
            {
              "internalType": "uint256",
              "name": "quantity",
              "type": "uint256"
            },
            {
              "internalType": "address",
              "name": "currency",
              "type": "address"
            },
            {
              "internalType": "uint256",
              "name": "reservePricePerToken",
              "type": "uint256"
            },
            {
              "internalType": "uint256",
              "name": "buyoutPricePerToken",
              "type": "uint256"
            },
            {
              "internalType": "uint256",
              "name": "tokensPerBuyer",
              "type": "uint256"
            },
            {
              "internalType": "enum IMarket.TokenType",
              "name": "tokenType",
              "type": "uint8"
            },
            {
              "internalType": "enum IMarket.ListingType",
              "name": "listingType",
              "type": "uint8"
            }
          ],
          "indexed": false,
          "internalType": "struct IMarket.Listing",
          "name": "listing",
          "type": "tuple"
        }
      ],
      "name": "AuctionCanceled",
      "type": "event"
    },
    {
      "anonymous": false,
      "inputs": [
        {
          "indexed": true,
          "internalType": "uint256",
          "name": "listingId",
          "type": "uint256"
        },
        {
          "indexed": true,
          "internalType": "address",
          "name": "closer",
          "type": "address"
        },
        {
          "indexed": false,
          "internalType": "address",
          "name": "auctionCreator",
          "type": "address"
        },
        {
          "indexed": false,
          "internalType": "address",
          "name": "winningBidder",
          "type": "address"
        },
        {
          "components": [
            {
              "internalType": "uint256",
              "name": "listingId",
              "type": "uint256"
            },
            {
              "internalType": "address",
              "name": "offeror",
              "type": "address"
            },
            {
              "internalType": "uint256",
              "name": "quantityWanted",
              "type": "uint256"
            },
            {
              "internalType": "uint256",
              "name": "offerAmount",
              "type": "uint256"
            }
          ],
          "indexed": false,
          "internalType": "struct IMarket.Offer",
          "name": "winningBid",
          "type": "tuple"
        },
        {
          "components": [
            {
              "internalType": "uint256",
              "name": "listingId",
              "type": "uint256"
            },
            {
              "internalType": "address",
              "name": "tokenOwner",
              "type": "address"
            },
            {
              "internalType": "address",
              "name": "assetContract",
              "type": "address"
            },
            {
              "internalType": "uint256",
              "name": "tokenId",
              "type": "uint256"
            },
            {
              "internalType": "uint256",
              "name": "startTime",
              "type": "uint256"
            },
            {
              "internalType": "uint256",
              "name": "endTime",
              "type": "uint256"
            },
            {
              "internalType": "uint256",
              "name": "quantity",
              "type": "uint256"
            },
            {
              "internalType": "address",
              "name": "currency",
              "type": "address"
            },
            {
              "internalType": "uint256",
              "name": "reservePricePerToken",
              "type": "uint256"
            },
            {
              "internalType": "uint256",
              "name": "buyoutPricePerToken",
              "type": "uint256"
            },
            {
              "internalType": "uint256",
              "name": "tokensPerBuyer",
              "type": "uint256"
            },
            {
              "internalType": "enum IMarket.TokenType",
              "name": "tokenType",
              "type": "uint8"
            },
            {
              "internalType": "enum IMarket.ListingType",
              "name": "listingType",
              "type": "uint8"
            }
          ],
          "indexed": false,
          "internalType": "struct IMarket.Listing",
          "name": "listing",
          "type": "tuple"
        }
      ],
      "name": "AuctionClosed",
      "type": "event"
    },
    {
      "anonymous": false,
      "inputs": [
        {
          "indexed": true,
          "internalType": "address",
          "name": "listingCreator",
          "type": "address"
        },
        {
          "indexed": true,
          "internalType": "uint256",
          "name": "listingId",
          "type": "uint256"
        },
        {
          "components": [
            {
              "internalType": "uint256",
              "name": "listingId",
              "type": "uint256"
            },
            {
              "internalType": "address",
              "name": "tokenOwner",
              "type": "address"
            },
            {
              "internalType": "address",
              "name": "assetContract",
              "type": "address"
            },
            {
              "internalType": "uint256",
              "name": "tokenId",
              "type": "uint256"
            },
            {
              "internalType": "uint256",
              "name": "startTime",
              "type": "uint256"
            },
            {
              "internalType": "uint256",
              "name": "endTime",
              "type": "uint256"
            },
            {
              "internalType": "uint256",
              "name": "quantity",
              "type": "uint256"
            },
            {
              "internalType": "address",
              "name": "currency",
              "type": "address"
            },
            {
              "internalType": "uint256",
              "name": "reservePricePerToken",
              "type": "uint256"
            },
            {
              "internalType": "uint256",
              "name": "buyoutPricePerToken",
              "type": "uint256"
            },
            {
              "internalType": "uint256",
              "name": "tokensPerBuyer",
              "type": "uint256"
            },
            {
              "internalType": "enum IMarket.TokenType",
              "name": "tokenType",
              "type": "uint8"
            },
            {
              "internalType": "enum IMarket.ListingType",
              "name": "listingType",
              "type": "uint8"
            }
          ],
          "indexed": false,
          "internalType": "struct IMarket.Listing",
          "name": "listing",
          "type": "tuple"
        }
      ],
      "name": "ListingUpdate",
      "type": "event"
    },
    {
      "anonymous": false,
      "inputs": [
        {
          "indexed": false,
          "internalType": "uint64",
          "name": "newFee",
          "type": "uint64"
        }
      ],
      "name": "MarketFeeUpdate",
      "type": "event"
    },
    {
      "anonymous": false,
      "inputs": [
        {
          "indexed": true,
          "internalType": "uint256",
          "name": "listingId",
          "type": "uint256"
        },
        {
          "indexed": true,
          "internalType": "address",
          "name": "bidder",
          "type": "address"
        },
        {
          "components": [
            {
              "internalType": "uint256",
              "name": "listingId",
              "type": "uint256"
            },
            {
              "internalType": "address",
              "name": "offeror",
              "type": "address"
            },
            {
              "internalType": "uint256",
              "name": "quantityWanted",
              "type": "uint256"
            },
            {
              "internalType": "uint256",
              "name": "offerAmount",
              "type": "uint256"
            }
          ],
          "indexed": false,
          "internalType": "struct IMarket.Offer",
          "name": "bid",
          "type": "tuple"
        },
        {
          "components": [
            {
              "internalType": "uint256",
              "name": "listingId",
              "type": "uint256"
            },
            {
              "internalType": "address",
              "name": "tokenOwner",
              "type": "address"
            },
            {
              "internalType": "address",
              "name": "assetContract",
              "type": "address"
            },
            {
              "internalType": "uint256",
              "name": "tokenId",
              "type": "uint256"
            },
            {
              "internalType": "uint256",
              "name": "startTime",
              "type": "uint256"
            },
            {
              "internalType": "uint256",
              "name": "endTime",
              "type": "uint256"
            },
            {
              "internalType": "uint256",
              "name": "quantity",
              "type": "uint256"
            },
            {
              "internalType": "address",
              "name": "currency",
              "type": "address"
            },
            {
              "internalType": "uint256",
              "name": "reservePricePerToken",
              "type": "uint256"
            },
            {
              "internalType": "uint256",
              "name": "buyoutPricePerToken",
              "type": "uint256"
            },
            {
              "internalType": "uint256",
              "name": "tokensPerBuyer",
              "type": "uint256"
            },
            {
              "internalType": "enum IMarket.TokenType",
              "name": "tokenType",
              "type": "uint8"
            },
            {
              "internalType": "enum IMarket.ListingType",
              "name": "listingType",
              "type": "uint8"
            }
          ],
          "indexed": false,
          "internalType": "struct IMarket.Listing",
          "name": "listing",
          "type": "tuple"
        }
      ],
      "name": "NewBid",
      "type": "event"
    },
    {
      "anonymous": false,
      "inputs": [
        {
          "indexed": true,
          "internalType": "address",
          "name": "assetContract",
          "type": "address"
        },
        {
          "indexed": true,
          "internalType": "address",
          "name": "seller",
          "type": "address"
        },
        {
          "indexed": true,
          "internalType": "uint256",
          "name": "listingId",
          "type": "uint256"
        },
        {
          "indexed": false,
          "internalType": "address",
          "name": "buyer",
          "type": "address"
        },
        {
          "indexed": false,
          "internalType": "uint256",
          "name": "quantity",
          "type": "uint256"
        },
        {
          "components": [
            {
              "internalType": "uint256",
              "name": "listingId",
              "type": "uint256"
            },
            {
              "internalType": "address",
              "name": "tokenOwner",
              "type": "address"
            },
            {
              "internalType": "address",
              "name": "assetContract",
              "type": "address"
            },
            {
              "internalType": "uint256",
              "name": "tokenId",
              "type": "uint256"
            },
            {
              "internalType": "uint256",
              "name": "startTime",
              "type": "uint256"
            },
            {
              "internalType": "uint256",
              "name": "endTime",
              "type": "uint256"
            },
            {
              "internalType": "uint256",
              "name": "quantity",
              "type": "uint256"
            },
            {
              "internalType": "address",
              "name": "currency",
              "type": "address"
            },
            {
              "internalType": "uint256",
              "name": "reservePricePerToken",
              "type": "uint256"
            },
            {
              "internalType": "uint256",
              "name": "buyoutPricePerToken",
              "type": "uint256"
            },
            {
              "internalType": "uint256",
              "name": "tokensPerBuyer",
              "type": "uint256"
            },
            {
              "internalType": "enum IMarket.TokenType",
              "name": "tokenType",
              "type": "uint8"
            },
            {
              "internalType": "enum IMarket.ListingType",
              "name": "listingType",
              "type": "uint8"
            }
          ],
          "indexed": false,
          "internalType": "struct IMarket.Listing",
          "name": "listing",
          "type": "tuple"
        }
      ],
      "name": "NewDirectSale",
      "type": "event"
    },
    {
      "anonymous": false,
      "inputs": [
        {
          "indexed": true,
          "internalType": "address",
          "name": "assetContract",
          "type": "address"
        },
        {
          "indexed": true,
          "internalType": "address",
          "name": "seller",
          "type": "address"
        },
        {
          "indexed": true,
          "internalType": "uint256",
          "name": "listingId",
          "type": "uint256"
        },
        {
          "components": [
            {
              "internalType": "uint256",
              "name": "listingId",
              "type": "uint256"
            },
            {
              "internalType": "address",
              "name": "tokenOwner",
              "type": "address"
            },
            {
              "internalType": "address",
              "name": "assetContract",
              "type": "address"
            },
            {
              "internalType": "uint256",
              "name": "tokenId",
              "type": "uint256"
            },
            {
              "internalType": "uint256",
              "name": "startTime",
              "type": "uint256"
            },
            {
              "internalType": "uint256",
              "name": "endTime",
              "type": "uint256"
            },
            {
              "internalType": "uint256",
              "name": "quantity",
              "type": "uint256"
            },
            {
              "internalType": "address",
              "name": "currency",
              "type": "address"
            },
            {
              "internalType": "uint256",
              "name": "reservePricePerToken",
              "type": "uint256"
            },
            {
              "internalType": "uint256",
              "name": "buyoutPricePerToken",
              "type": "uint256"
            },
            {
              "internalType": "uint256",
              "name": "tokensPerBuyer",
              "type": "uint256"
            },
            {
              "internalType": "enum IMarket.TokenType",
              "name": "tokenType",
              "type": "uint8"
            },
            {
              "internalType": "enum IMarket.ListingType",
              "name": "listingType",
              "type": "uint8"
            }
          ],
          "indexed": false,
          "internalType": "struct IMarket.Listing",
          "name": "listing",
          "type": "tuple"
        }
      ],
      "name": "NewListing",
      "type": "event"
    },
    {
      "anonymous": false,
      "inputs": [
        {
          "indexed": true,
          "internalType": "uint256",
          "name": "listingId",
          "type": "uint256"
        },
        {
          "indexed": true,
          "internalType": "address",
          "name": "offeror",
          "type": "address"
        },
        {
          "components": [
            {
              "internalType": "uint256",
              "name": "listingId",
              "type": "uint256"
            },
            {
              "internalType": "address",
              "name": "offeror",
              "type": "address"
            },
            {
              "internalType": "uint256",
              "name": "quantityWanted",
              "type": "uint256"
            },
            {
              "internalType": "uint256",
              "name": "offerAmount",
              "type": "uint256"
            }
          ],
          "indexed": false,
          "internalType": "struct IMarket.Offer",
          "name": "offer",
          "type": "tuple"
        },
        {
          "components": [
            {
              "internalType": "uint256",
              "name": "listingId",
              "type": "uint256"
            },
            {
              "internalType": "address",
              "name": "tokenOwner",
              "type": "address"
            },
            {
              "internalType": "address",
              "name": "assetContract",
              "type": "address"
            },
            {
              "internalType": "uint256",
              "name": "tokenId",
              "type": "uint256"
            },
            {
              "internalType": "uint256",
              "name": "startTime",
              "type": "uint256"
            },
            {
              "internalType": "uint256",
              "name": "endTime",
              "type": "uint256"
            },
            {
              "internalType": "uint256",
              "name": "quantity",
              "type": "uint256"
            },
            {
              "internalType": "address",
              "name": "currency",
              "type": "address"
            },
            {
              "internalType": "uint256",
              "name": "reservePricePerToken",
              "type": "uint256"
            },
            {
              "internalType": "uint256",
              "name": "buyoutPricePerToken",
              "type": "uint256"
            },
            {
              "internalType": "uint256",
              "name": "tokensPerBuyer",
              "type": "uint256"
            },
            {
              "internalType": "enum IMarket.TokenType",
              "name": "tokenType",
              "type": "uint8"
            },
            {
              "internalType": "enum IMarket.ListingType",
              "name": "listingType",
              "type": "uint8"
            }
          ],
          "indexed": false,
          "internalType": "struct IMarket.Listing",
          "name": "listing",
          "type": "tuple"
        }
      ],
      "name": "NewOffer",
      "type": "event"
    },
    {
      "anonymous": false,
      "inputs": [
        {
          "indexed": false,
          "internalType": "bool",
          "name": "restricted",
          "type": "bool"
        }
      ],
      "name": "RestrictedListerRoleUpdated",
      "type": "event"
    },
    {
      "anonymous": false,
      "inputs": [
        {
          "indexed": true,
          "internalType": "bytes32",
          "name": "role",
          "type": "bytes32"
        },
        {
          "indexed": true,
          "internalType": "bytes32",
          "name": "previousAdminRole",
          "type": "bytes32"
        },
        {
          "indexed": true,
          "internalType": "bytes32",
          "name": "newAdminRole",
          "type": "bytes32"
        }
      ],
      "name": "RoleAdminChanged",
      "type": "event"
    },
    {
      "anonymous": false,
      "inputs": [
        {
          "indexed": true,
          "internalType": "bytes32",
          "name": "role",
          "type": "bytes32"
        },
        {
          "indexed": true,
          "internalType": "address",
          "name": "account",
          "type": "address"
        },
        {
          "indexed": true,
          "internalType": "address",
          "name": "sender",
          "type": "address"
        }
      ],
      "name": "RoleGranted",
      "type": "event"
    },
    {
      "anonymous": false,
      "inputs": [
        {
          "indexed": true,
          "internalType": "bytes32",
          "name": "role",
          "type": "bytes32"
        },
        {
          "indexed": true,
          "internalType": "address",
          "name": "account",
          "type": "address"
        },
        {
          "indexed": true,
          "internalType": "address",
          "name": "sender",
          "type": "address"
        }
      ],
      "name": "RoleRevoked",
      "type": "event"
    },
    {
      "inputs": [],
      "name": "DEFAULT_ADMIN_ROLE",
      "outputs": [
        {
          "internalType": "bytes32",
          "name": "",
          "type": "bytes32"
        }
      ],
      "stateMutability": "view",
      "type": "function"
    },
    {
      "inputs": [],
      "name": "LISTER_ROLE",
      "outputs": [
        {
          "internalType": "bytes32",
          "name": "",
          "type": "bytes32"
        }
      ],
      "stateMutability": "view",
      "type": "function"
    },
    {
      "inputs": [],
      "name": "MAX_BPS",
      "outputs": [
        {
          "internalType": "uint64",
          "name": "",
          "type": "uint64"
        }
      ],
      "stateMutability": "view",
      "type": "function"
    },
    {
      "inputs": [],
      "name": "_contractURI",
      "outputs": [
        {
          "internalType": "string",
          "name": "",
          "type": "string"
        }
      ],
      "stateMutability": "view",
      "type": "function"
    },
    {
      "inputs": [
        {
          "internalType": "uint256",
          "name": "_listingId",
          "type": "uint256"
        },
        {
          "internalType": "address",
          "name": "offeror",
          "type": "address"
        }
      ],
      "name": "acceptOffer",
      "outputs": [],
      "stateMutability": "nonpayable",
      "type": "function"
    },
    {
      "inputs": [],
      "name": "bidBufferBps",
      "outputs": [
        {
          "internalType": "uint64",
          "name": "",
          "type": "uint64"
        }
      ],
      "stateMutability": "view",
      "type": "function"
    },
    {
      "inputs": [
        {
          "internalType": "uint256",
          "name": "",
          "type": "uint256"
        },
        {
          "internalType": "address",
          "name": "",
          "type": "address"
        }
      ],
      "name": "boughtFromListing",
      "outputs": [
        {
          "internalType": "uint256",
          "name": "",
          "type": "uint256"
        }
      ],
      "stateMutability": "view",
      "type": "function"
    },
    {
      "inputs": [
        {
          "internalType": "uint256",
          "name": "_listingId",
          "type": "uint256"
        },
        {
          "internalType": "uint256",
          "name": "_quantityToBuy",
          "type": "uint256"
        }
      ],
      "name": "buy",
      "outputs": [],
      "stateMutability": "nonpayable",
      "type": "function"
    },
    {
      "inputs": [
        {
          "internalType": "uint256",
          "name": "_listingId",
          "type": "uint256"
        }
      ],
      "name": "closeAuction",
      "outputs": [],
      "stateMutability": "nonpayable",
      "type": "function"
    },
    {
      "inputs": [],
      "name": "contractURI",
      "outputs": [
        {
          "internalType": "string",
          "name": "",
          "type": "string"
        }
      ],
      "stateMutability": "view",
      "type": "function"
    },
    {
      "inputs": [
        {
          "components": [
            {
              "internalType": "address",
              "name": "assetContract",
              "type": "address"
            },
            {
              "internalType": "uint256",
              "name": "tokenId",
              "type": "uint256"
            },
            {
              "internalType": "uint256",
              "name": "secondsUntilStartTime",
              "type": "uint256"
            },
            {
              "internalType": "uint256",
              "name": "secondsUntilEndTime",
              "type": "uint256"
            },
            {
              "internalType": "uint256",
              "name": "quantityToList",
              "type": "uint256"
            },
            {
              "internalType": "address",
              "name": "currencyToAccept",
              "type": "address"
            },
            {
              "internalType": "uint256",
              "name": "reservePricePerToken",
              "type": "uint256"
            },
            {
              "internalType": "uint256",
              "name": "buyoutPricePerToken",
              "type": "uint256"
            },
            {
              "internalType": "uint256",
              "name": "tokensPerBuyer",
              "type": "uint256"
            },
            {
              "internalType": "enum IMarket.ListingType",
              "name": "listingType",
              "type": "uint8"
            }
          ],
          "internalType": "struct IMarket.ListingParameters",
          "name": "_params",
          "type": "tuple"
        }
      ],
      "name": "createListing",
      "outputs": [],
      "stateMutability": "nonpayable",
      "type": "function"
    },
    {
      "inputs": [
        {
          "internalType": "uint256",
          "name": "_listingId",
          "type": "uint256"
        },
        {
          "internalType": "uint256",
          "name": "_quantityToList",
          "type": "uint256"
        },
        {
          "internalType": "uint256",
          "name": "_reservePricePerToken",
          "type": "uint256"
        },
        {
          "internalType": "uint256",
          "name": "_buyoutPricePerToken",
          "type": "uint256"
        },
        {
          "internalType": "uint256",
          "name": "_tokensPerBuyer",
          "type": "uint256"
        },
        {
          "internalType": "address",
          "name": "_currencyToAccept",
          "type": "address"
        },
        {
          "internalType": "uint256",
          "name": "_secondsUntilStartTime",
          "type": "uint256"
        },
        {
          "internalType": "uint256",
          "name": "_secondsUntilEndTime",
          "type": "uint256"
        }
      ],
      "name": "editListingParametrs",
      "outputs": [],
      "stateMutability": "nonpayable",
      "type": "function"
    },
    {
      "inputs": [
        {
          "internalType": "bytes32",
          "name": "role",
          "type": "bytes32"
        }
      ],
      "name": "getRoleAdmin",
      "outputs": [
        {
          "internalType": "bytes32",
          "name": "",
          "type": "bytes32"
        }
      ],
      "stateMutability": "view",
      "type": "function"
    },
    {
      "inputs": [
        {
          "internalType": "bytes32",
          "name": "role",
          "type": "bytes32"
        },
        {
          "internalType": "uint256",
          "name": "index",
          "type": "uint256"
        }
      ],
      "name": "getRoleMember",
      "outputs": [
        {
          "internalType": "address",
          "name": "",
          "type": "address"
        }
      ],
      "stateMutability": "view",
      "type": "function"
    },
    {
      "inputs": [
        {
          "internalType": "bytes32",
          "name": "role",
          "type": "bytes32"
        }
      ],
      "name": "getRoleMemberCount",
      "outputs": [
        {
          "internalType": "uint256",
          "name": "",
          "type": "uint256"
        }
      ],
      "stateMutability": "view",
      "type": "function"
    },
    {
      "inputs": [
        {
          "internalType": "bytes32",
          "name": "role",
          "type": "bytes32"
        },
        {
          "internalType": "address",
          "name": "account",
          "type": "address"
        }
      ],
      "name": "grantRole",
      "outputs": [],
      "stateMutability": "nonpayable",
      "type": "function"
    },
    {
      "inputs": [
        {
          "internalType": "bytes32",
          "name": "role",
          "type": "bytes32"
        },
        {
          "internalType": "address",
          "name": "account",
          "type": "address"
        }
      ],
      "name": "hasRole",
      "outputs": [
        {
          "internalType": "bool",
          "name": "",
          "type": "bool"
        }
      ],
      "stateMutability": "view",
      "type": "function"
    },
    {
      "inputs": [
        {
          "internalType": "address",
          "name": "forwarder",
          "type": "address"
        }
      ],
      "name": "isTrustedForwarder",
      "outputs": [
        {
          "internalType": "bool",
          "name": "",
          "type": "bool"
        }
      ],
      "stateMutability": "view",
      "type": "function"
    },
    {
      "inputs": [
        {
          "internalType": "uint256",
          "name": "",
          "type": "uint256"
        }
      ],
      "name": "listings",
      "outputs": [
        {
          "internalType": "uint256",
          "name": "listingId",
          "type": "uint256"
        },
        {
          "internalType": "address",
          "name": "tokenOwner",
          "type": "address"
        },
        {
          "internalType": "address",
          "name": "assetContract",
          "type": "address"
        },
        {
          "internalType": "uint256",
          "name": "tokenId",
          "type": "uint256"
        },
        {
          "internalType": "uint256",
          "name": "startTime",
          "type": "uint256"
        },
        {
          "internalType": "uint256",
          "name": "endTime",
          "type": "uint256"
        },
        {
          "internalType": "uint256",
          "name": "quantity",
          "type": "uint256"
        },
        {
          "internalType": "address",
          "name": "currency",
          "type": "address"
        },
        {
          "internalType": "uint256",
          "name": "reservePricePerToken",
          "type": "uint256"
        },
        {
          "internalType": "uint256",
          "name": "buyoutPricePerToken",
          "type": "uint256"
        },
        {
          "internalType": "uint256",
          "name": "tokensPerBuyer",
          "type": "uint256"
        },
        {
          "internalType": "enum IMarket.TokenType",
          "name": "tokenType",
          "type": "uint8"
        },
        {
          "internalType": "enum IMarket.ListingType",
          "name": "listingType",
          "type": "uint8"
        }
      ],
      "stateMutability": "view",
      "type": "function"
    },
    {
      "inputs": [],
      "name": "marketFeeBps",
      "outputs": [
        {
          "internalType": "uint64",
          "name": "",
          "type": "uint64"
        }
      ],
      "stateMutability": "view",
      "type": "function"
    },
    {
      "inputs": [
        {
          "internalType": "bytes[]",
          "name": "data",
          "type": "bytes[]"
        }
      ],
      "name": "multicall",
      "outputs": [
        {
          "internalType": "bytes[]",
          "name": "results",
          "type": "bytes[]"
        }
      ],
      "stateMutability": "nonpayable",
      "type": "function"
    },
    {
      "inputs": [
        {
          "internalType": "uint256",
          "name": "_listingId",
          "type": "uint256"
        },
        {
          "internalType": "uint256",
          "name": "_quantityWanted",
          "type": "uint256"
        },
        {
          "internalType": "uint256",
          "name": "_totalOfferAmount",
          "type": "uint256"
        }
      ],
      "name": "offer",
      "outputs": [],
      "stateMutability": "nonpayable",
      "type": "function"
    },
    {
      "inputs": [
        {
          "internalType": "uint256",
          "name": "",
          "type": "uint256"
        },
        {
          "internalType": "address",
          "name": "",
          "type": "address"
        }
      ],
      "name": "offers",
      "outputs": [
        {
          "internalType": "uint256",
          "name": "listingId",
          "type": "uint256"
        },
        {
          "internalType": "address",
          "name": "offeror",
          "type": "address"
        },
        {
          "internalType": "uint256",
          "name": "quantityWanted",
          "type": "uint256"
        },
        {
          "internalType": "uint256",
          "name": "offerAmount",
          "type": "uint256"
        }
      ],
      "stateMutability": "view",
      "type": "function"
    },
    {
      "inputs": [
        {
          "internalType": "address",
          "name": "",
          "type": "address"
        },
        {
          "internalType": "address",
          "name": "",
          "type": "address"
        },
        {
          "internalType": "uint256[]",
          "name": "",
          "type": "uint256[]"
        },
        {
          "internalType": "uint256[]",
          "name": "",
          "type": "uint256[]"
        },
        {
          "internalType": "bytes",
          "name": "",
          "type": "bytes"
        }
      ],
      "name": "onERC1155BatchReceived",
      "outputs": [
        {
          "internalType": "bytes4",
          "name": "",
          "type": "bytes4"
        }
      ],
      "stateMutability": "nonpayable",
      "type": "function"
    },
    {
      "inputs": [
        {
          "internalType": "address",
          "name": "",
          "type": "address"
        },
        {
          "internalType": "address",
          "name": "",
          "type": "address"
        },
        {
          "internalType": "uint256",
          "name": "",
          "type": "uint256"
        },
        {
          "internalType": "uint256",
          "name": "",
          "type": "uint256"
        },
        {
          "internalType": "bytes",
          "name": "",
          "type": "bytes"
        }
      ],
      "name": "onERC1155Received",
      "outputs": [
        {
          "internalType": "bytes4",
          "name": "",
          "type": "bytes4"
        }
      ],
      "stateMutability": "nonpayable",
      "type": "function"
    },
    {
      "inputs": [
        {
          "internalType": "address",
          "name": "",
          "type": "address"
        },
        {
          "internalType": "address",
          "name": "",
          "type": "address"
        },
        {
          "internalType": "uint256",
          "name": "",
          "type": "uint256"
        },
        {
          "internalType": "bytes",
          "name": "",
          "type": "bytes"
        }
      ],
      "name": "onERC721Received",
      "outputs": [
        {
          "internalType": "bytes4",
          "name": "",
          "type": "bytes4"
        }
      ],
      "stateMutability": "pure",
      "type": "function"
    },
    {
      "inputs": [
        {
          "internalType": "bytes32",
          "name": "role",
          "type": "bytes32"
        },
        {
          "internalType": "address",
          "name": "account",
          "type": "address"
        }
      ],
      "name": "renounceRole",
      "outputs": [],
      "stateMutability": "nonpayable",
      "type": "function"
    },
    {
      "inputs": [],
      "name": "restrictedListerRoleOnly",
      "outputs": [
        {
          "internalType": "bool",
          "name": "",
          "type": "bool"
        }
      ],
      "stateMutability": "view",
      "type": "function"
    },
    {
      "inputs": [
        {
          "internalType": "bytes32",
          "name": "role",
          "type": "bytes32"
        },
        {
          "internalType": "address",
          "name": "account",
          "type": "address"
        }
      ],
      "name": "revokeRole",
      "outputs": [],
      "stateMutability": "nonpayable",
      "type": "function"
    },
    {
      "inputs": [
        {
          "internalType": "uint256",
          "name": "_timeBuffer",
          "type": "uint256"
        },
        {
          "internalType": "uint256",
          "name": "_bidBufferBps",
          "type": "uint256"
        }
      ],
      "name": "setAuctionBuffers",
      "outputs": [],
      "stateMutability": "nonpayable",
      "type": "function"
    },
    {
      "inputs": [
        {
          "internalType": "string",
          "name": "_uri",
          "type": "string"
        }
      ],
      "name": "setContractURI",
      "outputs": [],
      "stateMutability": "nonpayable",
      "type": "function"
    },
    {
      "inputs": [
        {
          "internalType": "uint256",
          "name": "_feeBps",
          "type": "uint256"
        }
      ],
      "name": "setMarketFeeBps",
      "outputs": [],
      "stateMutability": "nonpayable",
      "type": "function"
    },
    {
      "inputs": [
        {
          "internalType": "bool",
          "name": "restricted",
          "type": "bool"
        }
      ],
      "name": "setRestrictedListerRoleOnly",
      "outputs": [],
      "stateMutability": "nonpayable",
      "type": "function"
    },
    {
      "inputs": [
        {
          "internalType": "bytes4",
          "name": "interfaceId",
          "type": "bytes4"
        }
      ],
      "name": "supportsInterface",
      "outputs": [
        {
          "internalType": "bool",
          "name": "",
          "type": "bool"
        }
      ],
      "stateMutability": "view",
      "type": "function"
    },
    {
      "inputs": [],
      "name": "timeBuffer",
      "outputs": [
        {
          "internalType": "uint64",
          "name": "",
          "type": "uint64"
        }
      ],
      "stateMutability": "view",
      "type": "function"
    },
    {
      "inputs": [],
      "name": "totalListings",
      "outputs": [
        {
          "internalType": "uint256",
          "name": "",
          "type": "uint256"
        }
      ],
      "stateMutability": "view",
      "type": "function"
    },
    {
      "inputs": [
        {
          "internalType": "uint256",
          "name": "",
          "type": "uint256"
        }
      ],
      "name": "winningBid",
      "outputs": [
        {
          "internalType": "uint256",
          "name": "listingId",
          "type": "uint256"
        },
        {
          "internalType": "address",
          "name": "offeror",
          "type": "address"
        },
        {
          "internalType": "uint256",
          "name": "quantityWanted",
          "type": "uint256"
        },
        {
          "internalType": "uint256",
          "name": "offerAmount",
          "type": "uint256"
        }
      ],
      "stateMutability": "view",
      "type": "function"
    }
  ],
  "bytecode": "0x608060405260078054600160481b600160c81b0319167201f400000000000003840000000000000000001790553480156200003957600080fd5b50604051620060d6380380620060d68339810160408190526200005c9162000382565b6001600255600380546001600160a01b0319166001600160a01b038516179055815162000091906006906020850190620002dc565b50600480546001600160a01b0319166001600160a01b03861617905560078054610100600160481b0319166101006001600160401b03841602179055620000e36000620000dd6200011c565b62000138565b620001127ff94103142c1baabe9ac2b5d1487bf783de9e69cfeea9a72f5c9c94afd7877b8c620000dd6200011c565b50505050620004f8565b6000620001336200017b60201b62002e791760201c565b905090565b6200014f8282620001b460201b62002ea61760201c565b60008281526001602090815260409091206200017691839062002eb4620001c4821b17901c565b505050565b6003546000906001600160a01b03163314156200019f575060131936013560601c90565b62000133620001e460201b62002ec91760201c565b620001c08282620001e8565b5050565b6000620001db836001600160a01b0384166200028a565b90505b92915050565b3390565b6000828152602081815260408083206001600160a01b038516845290915290205460ff16620001c0576000828152602081815260408083206001600160a01b03851684529091529020805460ff19166001179055620002466200011c565b6001600160a01b0316816001600160a01b0316837f2f8788117e7eff1d82e926ec794901d17c78024a50270940304540a733656f0d60405160405180910390a45050565b6000818152600183016020526040812054620002d357508154600181810184556000848152602080822090930184905584548482528286019093526040902091909155620001de565b506000620001de565b828054620002ea906200048c565b90600052602060002090601f0160209004810192826200030e576000855562000359565b82601f106200032957805160ff191683800117855562000359565b8280016001018555821562000359579182015b82811115620003595782518255916020019190600101906200033c565b50620003679291506200036b565b5090565b5b808211156200036757600081556001016200036c565b6000806000806080858703121562000398578384fd5b8451620003a581620004df565b80945050602080860151620003ba81620004df565b60408701519094506001600160401b0380821115620003d7578485fd5b818801915088601f830112620003eb578485fd5b815181811115620004005762000400620004c9565b604051601f8201601f19908116603f011681019083821181831017156200042b576200042b620004c9565b816040528281528b8684870101111562000443578788fd5b8793505b8284101562000466578484018601518185018701529285019262000447565b828411156200047757878684830101525b60609a909a0151989b979a5050505050505050565b600181811c90821680620004a157607f821691505b60208210811415620004c357634e487b7160e01b600052602260045260246000fd5b50919050565b634e487b7160e01b600052604160045260246000fd5b6001600160a01b0381168114620004f557600080fd5b50565b615bce80620005086000396000f3fe608060405234801561001057600080fd5b50600436106102775760003560e01c8063ac9650d811610160578063d6febde8116100d8578063ea0e02411161008c578063ec91f2a411610071578063ec91f2a4146106fc578063f23a6e611461071d578063fd967f471461073c57600080fd5b8063ea0e02411461069f578063ebdfbce5146106b257600080fd5b8063deb26b94116100bd578063deb26b941461065d578063e4104eaf14610684578063e8a3d4851461069757600080fd5b8063d6febde8146105a9578063de74e57b146105bc57600080fd5b8063c78b616c1161012f578063d1e42ec011610114578063d1e42ec01461051c578063d4ac9b8c1461052f578063d547741f1461059657600080fd5b8063c78b616c14610500578063ca15c8731461050957600080fd5b8063ac9650d814610499578063bc197c81146104b9578063c0e72740146104d8578063c24afe4e146104ed57600080fd5b80634e03f28d116101f35780639010d07c116101c257806391d14854116101a757806391d1485414610447578063938e3d7b1461047e578063a217fddf1461049157600080fd5b80639010d07c14610409578063918d407d1461043457600080fd5b80634e03f28d146103ac578063572b6c05146103c757806361096ec6146103e957806380cd2464146103f657600080fd5b8063248a9ca31161024a578063354c7ab61161022f578063354c7ab61461035457806336568abe146103675780633f5c3e871461037a57600080fd5b8063248a9ca31461031e5780632f2ff15d1461034157600080fd5b806301ffc9a71461027c578063150b7a02146102a457806320c7852c146102d0578063236ed8f314610309575b600080fd5b61028f61028a366004615480565b610745565b60405190151581526020015b60405180910390f35b6102b76102b2366004615253565b610797565b6040516001600160e01b0319909116815260200161029b565b6102fb6102de366004615430565b600b60209081526000928352604080842090915290825290205481565b60405190815260200161029b565b61031c610317366004615400565b6107a9565b005b6102fb61032c366004615400565b60009081526020819052604090206001015490565b61031c61034f366004615430565b611030565b61031c6103623660046153c8565b611057565b61031c610375366004615430565b6110f8565b60075461039390610100900467ffffffffffffffff1681565b60405167ffffffffffffffff909116815260200161029b565b60075461039390600160881b900467ffffffffffffffff1681565b61028f6103d5366004615171565b6003546001600160a01b0391821691161490565b60075461028f9060ff1681565b61031c61040436600461557f565b61111a565b61041c61041736600461545f565b6115ea565b6040516001600160a01b03909116815260200161029b565b61031c610442366004615430565b611609565b61028f610455366004615430565b6000918252602082815260408084206001600160a01b0393909316845291905290205460ff1690565b61031c61048c3660046154a8565b611b5f565b6102fb600081565b6104ac6104a7366004615358565b611ce6565b60405161029b9190615837565b6102b76104c73660046151a9565b63bc197c8160e01b95945050505050565b6104e0611e05565b60405161029b9190615898565b61031c6104fb3660046155aa565b611e93565b6102fb60055481565b6102fb610517366004615400565b61238c565b61031c61052a3660046154e8565b6123a3565b61056e61053d366004615400565b600a60205260009081526040902080546001820154600283015460039093015491926001600160a01b039091169184565b604080519485526001600160a01b03909316602085015291830152606082015260800161029b565b61031c6105a4366004615430565b6127b9565b61031c6105b736600461545f565b6127c3565b6106446105ca366004615400565b600860208190526000918252604090912080546001820154600283015460038401546004850154600586015460068701546007880154988801546009890154600a8a0154600b909a0154989a6001600160a01b039889169a9789169996989597949693951693919290919060ff808216916101009004168d565b60405161029b9d9c9b9a999897969594939291906158f7565b6102fb7ff94103142c1baabe9ac2b5d1487bf783de9e69cfeea9a72f5c9c94afd7877b8c81565b61031c610692366004615400565b612b89565b6104e0612c8b565b61031c6106ad36600461545f565b612d1d565b61056e6106c0366004615430565b6009602090815260009283526040808420909152908252902080546001820154600283015460039093015491926001600160a01b039091169184565b600754610393906901000000000000000000900467ffffffffffffffff1681565b6102b761072b3660046152c4565b63f23a6e6160e01b95945050505050565b61039361271081565b60006001600160e01b03198216630271189760e51b148061077657506001600160e01b03198216630a85bd0160e11b145b8061079157506001600160e01b0319821663152a902d60e11b145b92915050565b630a85bd0160e11b5b95945050505050565b6002805414156108005760405162461bcd60e51b815260206004820152601f60248201527f5265656e7472616e637947756172643a207265656e7472616e742063616c6c0060448201526064015b60405180910390fd5b6002808055600082815260086020818152604080842081516101a081018352815481526001808301546001600160a01b0390811695830195909552968201548416928101929092526003810154606083015260048101546080830152600581015460a0830152600681015460c0830152600781015490921660e0820152918101546101008301526009810154610120830152600a810154610140830152600b81015492939192909161016084019160ff16908111156108cf57634e487b7160e01b600052602160045260246000fd5b60018111156108ee57634e487b7160e01b600052602160045260246000fd5b8152602001600b820160019054906101000a900460ff16600181111561092457634e487b7160e01b600052602160045260246000fd5b600181111561094357634e487b7160e01b600052602160045260246000fd5b9052506000838152600a6020908152604080832081516080810183528154815260018201546001600160a01b031693810193909352600281015491830191909152600301546060820152919250610998612ecd565b90504283608001511115610bcc576000848152600860205260409020600101546001600160a01b03828116911614610a385760405162461bcd60e51b815260206004820152602a60248201527f4d61726b65743a2063616c6c6572206973206e6f7420746865206c697374696e60448201527f672063726561746f722e0000000000000000000000000000000000000000000060648201526084016107f7565b60c08301805160008083524260a08701908152878252600860208181526040938490208951815590890151600180830180546001600160a01b039384166001600160a01b031991821617909155958b015160028401805491841691881691909117905560608b0151600384015560808b01516004840155935160058301559551600682015560e089015160078201805491909716941693909317909455610100870151938201939093556101208601516009820155610140860151600a820155610160860151600b820180549394889460ff1916908381811115610b2c57634e487b7160e01b600052602160045260246000fd5b0217905550610180820151600b8201805461ff001916610100836001811115610b6557634e487b7160e01b600052602160045260246000fd5b0217905550905050610b7d3085602001518387612ed7565b83602001516001600160a01b0316857f8b8c78dbb114fabd551e84de4546a68891b5f7a217a98e3f2fe7adb18519959b86604051610bbb91906158ab565b60405180910390a350505050611028565b82602001516001600160a01b0316816001600160a01b03161480610c05575081602001516001600160a01b0316816001600160a01b0316145b610c775760405162461bcd60e51b815260206004820152602a60248201527f4d61726b65743a206d75737420626520626964646572206f722061756374696f60448201527f6e2063726561746f722e0000000000000000000000000000000000000000000060648201526084016107f7565b60018361018001516001811115610c9e57634e487b7160e01b600052602160045260246000fd5b14610cf65760405162461bcd60e51b815260206004820152602260248201527f4d61726b65743a206c697374696e67206973206e6f7420616e2061756374696f604482015261371760f11b60648201526084016107f7565b428360a0015110610d6f5760405162461bcd60e51b815260206004820152603260248201527f4d61726b65743a2063616e206f6e6c7920636c6f73652061756374696f6e206160448201527f667465722069742068617320656e6465642e000000000000000000000000000060648201526084016107f7565b82602001516001600160a01b0316610d85612ecd565b6001600160a01b03161415610f4d5760008360c001518360600151610daa9190615a5b565b600060c086018181524260a08801908152888352600860208181526040948590208a518155908a0151600180830180546001600160a01b039384166001600160a01b031991821617909155968c015160028401805491841691891691909117905560608c0151600384015560808c01516004840155935160058301559351600682015560e08a015160078201805491909516951694909417909255610100880151918301919091556101208701516009830155610140870151600a830155610160870151600b8301805494955088949192909160ff1916908381811115610ea157634e487b7160e01b600052602160045260246000fd5b0217905550610180820151600b8201805461ff001916610100836001811115610eda57634e487b7160e01b600052602160045260246000fd5b021790555050600060608501818152878252600a602090815260409283902087518155818801516001820180546001600160a01b0319166001600160a01b039092169190911790559287015160028401559051600390920191909155850151610f4791503090838761304a565b50610fd4565b81602001516001600160a01b0316610f63612ecd565b6001600160a01b03161415610fd457604082810180516000808352878152600a602090815293902085518155928501516001840180546001600160a01b0319166001600160a01b038316179055915160028401556060850151600390930192909255610fd29030908387612ed7565b505b806001600160a01b0316847f42bdf1b5daec205081fa6758882be4b9c6633d2b16ea489d1c36cddfd46d7cab85602001518560200151868860405161101c94939291906157ad565b60405180910390a35050505b506001600255565b61103a828261350b565b60008281526001602052604090206110529082612eb4565b505050565b6110646000610455612ecd565b6110b05760405162461bcd60e51b815260206004820152601b60248201527f4d61726b65743a206e6f742061206d6f64756c652061646d696e2e000000000060448201526064016107f7565b6007805460ff19168215159081179091556040519081527f56668abce4c06e28f52176150c07856e31ee073b9b62df62a5afbf1a22aec24c906020015b60405180910390a150565b6111028282613538565b600082815260016020526040902061105290826135d0565b60028054141561116c5760405162461bcd60e51b815260206004820152601f60248201527f5265656e7472616e637947756172643a207265656e7472616e742063616c6c0060448201526064016107f7565b60028055600061117a612ecd565b600085815260086020818152604080842081516101a081018352815481526001808301546001600160a01b039081169583019590955260028301548516938201939093526003820154606082015260048201546080820152600582015460a0820152600682015460c0820152600782015490931660e0840152928301546101008301526009830154610120830152600a830154610140830152600b8301549495509293909261016084019160ff169081111561124657634e487b7160e01b600052602160045260246000fd5b600181111561126557634e487b7160e01b600052602160045260246000fd5b8152602001600b820160019054906101000a900460ff16600181111561129b57634e487b7160e01b600052602160045260246000fd5b60018111156112ba57634e487b7160e01b600052602160045260246000fd5b815250509050428160a001511180156112d65750428160800151105b6113485760405162461bcd60e51b815260206004820152603160248201527f4d61726b65743a2063616e206f6e6c79206d616b65206f666665727320696e2060448201527f6c697374696e67206475726174696f6e2e00000000000000000000000000000060648201526084016107f7565b6001816101800151600181111561136f57634e487b7160e01b600052602160045260246000fd5b141561140457828160c0015182610100015161138b9190615a5b565b11156113ff5760405162461bcd60e51b815260206004820152602a60248201527f4d61726b65743a206d757374206f66666572206174206c65617374207265736560448201527f7276652070726963652e0000000000000000000000000000000000000000000060648201526084016107f7565b61149f565b6000816101800151600181111561142b57634e487b7160e01b600052602160045260246000fd5b141561149f5760008160c00151116114905760405162461bcd60e51b815260206004820152602260248201527f4d61726b65743a206e6f20746f6b656e73206c697374656420666f722073616c604482015261329760f11b60648201526084016107f7565b61149f828260e00151856135e5565b6000600182610180015160018111156114c857634e487b7160e01b600052602160045260246000fd5b146114e1576114dc82610160015186613761565b6114f4565b6114f48261016001518360c00151613761565b604080516080810182528881526001600160a01b038681166020808401828152848601878152606086018c815260008f815260098552888120868252909452928790208651815591516001830180546001600160a01b0319169190961617909455925160028401555160039092019190915591519293509188907f325ebd560da99b6ec57c8698998d68ddf274d0b921541d5b702974d58ca879929061159d90859088906158ba565b60405180910390a3600183610180015160018111156115cc57634e487b7160e01b600052602160045260246000fd5b14156115dc576115dc83826137a6565b505060016002555050505050565b60008281526001602052604081206116029083613e33565b9392505050565b60028054141561165b5760405162461bcd60e51b815260206004820152601f60248201527f5265656e7472616e637947756172643a207265656e7472616e742063616c6c0060448201526064016107f7565b6002805581611668612ecd565b6000828152600860205260409020600101546001600160a01b039081169116146116e35760405162461bcd60e51b815260206004820152602660248201527f4d61726b65743a2063616c6c6572206973206e6f74206c697374696e6720637260448201526532b0ba37b91760d11b60648201526084016107f7565b60008381526009602081815260408084206001600160a01b03808816865290835281852082516080808201855282548252600180840154851683880152600280850154848801526003948501546060808601919091528d8b526008808a52888c2089516101a081018b5281548152818601548a169b81019b909b52928301548816988a01989098529481015494880194909452600484015491870191909152600583015460a0870152600683015460c0870152600783015490931660e08601529281015461010085015293840154610120840152600a840154610140840152600b8401549194939161016084019160ff909116908111156117f457634e487b7160e01b600052602160045260246000fd5b600181111561181357634e487b7160e01b600052602160045260246000fd5b8152602001600b820160019054906101000a900460ff16600181111561184957634e487b7160e01b600052602160045260246000fd5b600181111561186857634e487b7160e01b600052602160045260246000fd5b90525090506000816101800151600181111561189457634e487b7160e01b600052602160045260246000fd5b1480156118c457506118c48160200151826040015183606001518560400151856101600151866101800151613e3f565b6119295760405162461bcd60e51b815260206004820152603060248201527f4d61726b65743a206d757374206f776e20616e6420617070726f766520746f2060448201526f3a3930b739b332b9103a37b5b2b7399760811b60648201526084016107f7565b6040828101805160608501805160008085528083528a8152600960209081528682206001600160a01b038c811684529082529690912088518155908801516001820180546001600160a01b0319169190971617909555925160028501555160039093019290925560c0830180518391906119a4908390615a7a565b9052506000878152600860208181526040928390208651815590860151600180830180546001600160a01b03199081166001600160a01b0394851617909155948801516002840180548716918416919091179055606088015160038401556080880151600484015560a0880151600584015560c0880151600684015560e0880151600784018054909616921691909117909355610100860151918101919091556101208501516009820155610140850151600a820155610160850151600b82018054879460ff19909116908381811115611a8e57634e487b7160e01b600052602160045260246000fd5b0217905550610180820151600b8201805461ff001916610100836001811115611ac757634e487b7160e01b600052602160045260246000fd5b021790555050506020830151611ae9908790611ae38585615a5b565b8661304a565b611af98360200151878486612ed7565b8683602001516001600160a01b031684604001516001600160a01b03167f13f347bec00b07d4fa8ffa656bbcb29bd18e63fd4621925b71f60ff36c6425c9898688604051611b499392919061580a565b60405180910390a4505060016002555050505050565b600480546040805163a217fddf60e01b815290516001600160a01b03909216926391d1485492849263a217fddf9281810192602092909190829003018186803b158015611bab57600080fd5b505afa158015611bbf573d6000803e3d6000fd5b505050506040513d601f19601f82011682018060405250810190611be39190615418565b611beb612ecd565b6040516001600160e01b031960e085901b16815260048101929092526001600160a01b0316602482015260440160206040518083038186803b158015611c3057600080fd5b505afa158015611c44573d6000803e3d6000fd5b505050506040513d601f19601f82011682018060405250810190611c6891906153e4565b611cda5760405162461bcd60e51b815260206004820152603560248201527f4d61726b65743a206f6e6c7920612070726f746f636f6c2061646d696e20636160448201527f6e2063616c6c20746869732066756e6374696f6e2e000000000000000000000060648201526084016107f7565b61105260068383614f89565b60608167ffffffffffffffff811115611d0f57634e487b7160e01b600052604160045260246000fd5b604051908082528060200260200182016040528015611d4257816020015b6060815260200190600190039081611d2d5790505b50905060005b82811015611dfe57611dc030858584818110611d7457634e487b7160e01b600052603260045260246000fd5b9050602002810190611d869190615983565b8080601f0160208091040260200160405190810160405280939291908181526020018383808284376000920191909152506142a792505050565b828281518110611de057634e487b7160e01b600052603260045260246000fd5b60200260200101819052508080611df690615b0f565b915050611d48565b5092915050565b60068054611e1290615ad4565b80601f0160208091040260200160405190810160405280929190818152602001828054611e3e90615ad4565b8015611e8b5780601f10611e6057610100808354040283529160200191611e8b565b820191906000526020600020905b815481529060010190602001808311611e6e57829003601f168201915b505050505081565b87611e9c612ecd565b6000828152600860205260409020600101546001600160a01b03908116911614611f175760405162461bcd60e51b815260206004820152602660248201527f4d61726b65743a2063616c6c6572206973206e6f74206c697374696e6720637260448201526532b0ba37b91760d11b60648201526084016107f7565b600089815260086020818152604080842081516101a081018352815481526001808301546001600160a01b039081169583019590955260028301548516938201939093526003820154606082015260048201546080820152600582015460a0820152600682015460c0820152600782015490931660e0840152928301546101008301526009830154610120830152600a830154610140830152600b83015491929161016084019160ff90911690811115611fe157634e487b7160e01b600052602160045260246000fd5b600181111561200057634e487b7160e01b600052602160045260246000fd5b8152602001600b820160019054906101000a900460ff16600181111561203657634e487b7160e01b600052602160045260246000fd5b600181111561205557634e487b7160e01b600052602160045260246000fd5b815250509050600061206c8261016001518b613761565b90506001826101800151600181111561209557634e487b7160e01b600052602160045260246000fd5b141561212557428260800151106121145760405162461bcd60e51b815260206004820152602860248201527f4d61726b65743a2063616e6e6f7420656469742061756374696f6e206166746560448201527f722073746172742e00000000000000000000000000000000000000000000000060648201526084016107f7565b610100820189905261012082018890525b898260c00151146121c15761215482602001518360400151846060015184866101600151876101800151613e3f565b6121b95760405162461bcd60e51b815260206004820152603060248201527f4d61726b65743a206d757374206f776e20616e6420617070726f766520746f2060448201526f3a3930b739b332b9103a37b5b2b7399760811b60648201526084016107f7565b60c082018190525b6001600160a01b03861660e0830152610140820187905284156121ed576121e88542615a23565b6121f3565b81608001515b6080830152831561220d576122088442615a23565b612213565b8160a001515b60a0830190815260008c8152600860208181526040928390208651815590860151600180830180546001600160a01b03199081166001600160a01b039485161790915594880151600284018054871691841691909117905560608801516003840155608088015160048401559451600583015560c0870151600683015560e0870151600783018054909516911617909255610100850151908201556101208401516009820155610140840151600a820155610160840151600b82018054869460ff199091169083818111156122f857634e487b7160e01b600052602160045260246000fd5b0217905550610180820151600b8201805461ff00191661010083600181111561233157634e487b7160e01b600052602160045260246000fd5b02179055509050508a82602001516001600160a01b03167f9897b5e6dd37a61b6f078227f64ef9c4d6744428f9ab322e9d3160c1a39604648460405161237791906158ab565b60405180910390a35050505050505050505050565b6000818152600160205260408120610791906142cc565b60075460ff1615806123dc57506123dc7ff94103142c1baabe9ac2b5d1487bf783de9e69cfeea9a72f5c9c94afd7877b8c610455612ecd565b61244e5760405162461bcd60e51b815260206004820152602960248201527f4d61726b65743a2063616c6c657220646f6573206e6f742068617665204c495360448201527f5445525f524f4c452e000000000000000000000000000000000000000000000060648201526084016107f7565b60006124586142d6565b90506000612464612ecd565b9050600061247584600001516142f4565b9050600084608001511180156124a557506124a58285600001518660200151876080015185896101200151613e3f565b61250a5760405162461bcd60e51b815260206004820152603060248201527f4d61726b65743a206d757374206f776e20616e6420617070726f766520746f2060448201526f3a3930b739b332b9103a37b5b2b7399760811b60648201526084016107f7565b6000604051806101a00160405280858152602001846001600160a01b0316815260200186600001516001600160a01b031681526020018660200151815260200186604001514261255a9190615a23565b8152602001866060015160001461257f57606087015161257a9042615a23565b612583565b6000195b8152602001612596848860800151613761565b81526020018660a001516001600160a01b031681526020018660c0015181526020018660e0015181526020018661010001516000146125da578661010001516125e0565b86608001515b815260200183600181111561260557634e487b7160e01b600052602160045260246000fd5b8152602001866101200151600181111561262f57634e487b7160e01b600052602160045260246000fd5b90526000858152600860208181526040928390208451815590840151600180830180546001600160a01b03199081166001600160a01b0394851617909155948601516002840180548716918416919091179055606086015160038401556080860151600484015560a0860151600584015560c0860151600684015560e0860151600784018054909616921691909117909355610100840151918101919091556101208301516009820155610140830151600a820155610160830151600b82018054949550859492939192909160ff1990911690838181111561272157634e487b7160e01b600052602160045260246000fd5b0217905550610180820151600b8201805461ff00191661010083600181111561275a57634e487b7160e01b600052602160045260246000fd5b021790555090505083836001600160a01b031686600001516001600160a01b03167fbd4ad658f54c65cfbfb4961c722cac4e1bc357eaabbd6ad51273e752a4481916846040516127aa91906158ab565b60405180910390a45050505050565b6111028282614480565b6002805414156128155760405162461bcd60e51b815260206004820152601f60248201527f5265656e7472616e637947756172643a207265656e7472616e742063616c6c0060448201526064016107f7565b6002808055600083815260086020818152604080842081516101a081018352815481526001808301546001600160a01b0390811695830195909552968201548416928101929092526003810154606083015260048101546080830152600581015460a0830152600681015460c0830152600781015490921660e0820152918101546101008301526009810154610120830152600a810154610140830152600b81015492939192909161016084019160ff16908111156128e457634e487b7160e01b600052602160045260246000fd5b600181111561290357634e487b7160e01b600052602160045260246000fd5b8152602001600b820160019054906101000a900460ff16600181111561293957634e487b7160e01b600052602160045260246000fd5b600181111561295857634e487b7160e01b600052602160045260246000fd5b90525090506000612967612ecd565b90506129748282856144a8565b828260c0018181516129869190615a7a565b9052506000848152600860208181526040928390208551815590850151600180830180546001600160a01b03199081166001600160a01b0394851617909155948701516002840180548716918416919091179055606087015160038401556080870151600484015560a0870151600584015560c0870151600684015560e0870151600784018054909616921691909117909355610100850151918101919091556101208401516009820155610140840151600a820155610160840151600b82018054869460ff19909116908381811115612a7057634e487b7160e01b600052602160045260246000fd5b0217905550610180820151600b8201805461ff001916610100836001811115612aa957634e487b7160e01b600052602160045260246000fd5b021790555050506000848152600b602090815260408083206001600160a01b038516845290915281208054859290612ae2908490615a23565b909155505061012082015115612b1257612b1281836020015185856101200151612b0c9190615a5b565b8561304a565b612b228260200151828585612ed7565b816000015182602001516001600160a01b031683604001516001600160a01b03167f13f347bec00b07d4fa8ffa656bbcb29bd18e63fd4621925b71f60ff36c6425c9848787604051612b769392919061580a565b60405180910390a4505060016002555050565b612b966000610455612ecd565b612be25760405162461bcd60e51b815260206004820152601b60248201527f4d61726b65743a206e6f742061206d6f64756c652061646d696e2e000000000060448201526064016107f7565b6127108110612c335760405162461bcd60e51b815260206004820152601460248201527f4d61726b65743a20696e76616c6964204250532e00000000000000000000000060448201526064016107f7565b6007805468ffffffffffffffff00191661010067ffffffffffffffff8416908102919091179091556040519081527f1923ecef8dbc1cebea2768819f7df282b72fb6d62bf99da204590b9d5cac7a7b906020016110ed565b606060068054612c9a90615ad4565b80601f0160208091040260200160405190810160405280929190818152602001828054612cc690615ad4565b8015612d135780601f10612ce857610100808354040283529160200191612d13565b820191906000526020600020905b815481529060010190602001808311612cf657829003601f168201915b5050505050905090565b612d2a6000610455612ecd565b612d765760405162461bcd60e51b815260206004820152601b60248201527f4d61726b65743a206e6f742061206d6f64756c652061646d696e2e000000000060448201526064016107f7565b6127108110612dc75760405162461bcd60e51b815260206004820152601460248201527f4d61726b65743a20696e76616c6964204250532e00000000000000000000000060448201526064016107f7565b6007805467ffffffffffffffff838116600160881b027fffffffffffffff0000000000000000ffffffffffffffffffffffffffffffffff918616690100000000000000000002919091167fffffffffffffff00000000000000000000000000000000ffffffffffffffffff9092169190911717905560408051838152602081018390527f441ed6470e96704c3f8c9e70c209107078aab3f17311385e886081b91aa75088910160405180910390a15050565b6003546000906001600160a01b0316331415612e9c575060131936013560601c90565b503390565b905090565b612eb082826146b0565b5050565b6000611602836001600160a01b03841661474f565b3390565b6000612ea1612e79565b60008161016001516001811115612efe57634e487b7160e01b600052602160045260246000fd5b1415612f935760408082015160608301519151637921219560e11b81526001600160a01b038781166004830152868116602483015260448201939093526064810185905260a06084820152600060a482015291169063f242432a9060c401600060405180830381600087803b158015612f7657600080fd5b505af1158015612f8a573d6000803e3d6000fd5b50505050613044565b60018161016001516001811115612fba57634e487b7160e01b600052602160045260246000fd5b14156130445760408082015160608301519151635c46a7ef60e11b81526001600160a01b03878116600483015286811660248301526044820193909352608060648201526000608482015291169063b88d4fde9060a401600060405180830381600087803b15801561302b57600080fd5b505af115801561303f573d6000803e3d6000fd5b505050505b50505050565b60075460009081906127109061306f90610100900467ffffffffffffffff1686615a5b565b6130799190615a3b565b60e08401516004805460405163f2aab4b360e01b815230928101929092529293506001600160a01b03918216926323b872dd928a9291169063f2aab4b39060240160206040518083038186803b1580156130d257600080fd5b505afa1580156130e6573d6000803e3d6000fd5b505050506040513d601f19601f8201168201806040525081019061310a919061518d565b6040516001600160e01b031960e085901b1681526001600160a01b0392831660048201529116602482015260448101849052606401602060405180830381600087803b15801561315957600080fd5b505af115801561316d573d6000803e3d6000fd5b505050506040513d601f19601f8201168201806040525081019061319191906153e4565b9150600061319f8286615a7a565b60408086015190516301ffc9a760e01b815263152a902d60e11b60048201529192506001600160a01b0316906301ffc9a79060240160206040518083038186803b1580156131ec57600080fd5b505afa158015613200573d6000803e3d6000fd5b505050506040513d601f19601f8201168201806040525081019061322491906153e4565b156133fd5760008085604001516001600160a01b0316632a55205a8760600151896040518363ffffffff1660e01b815260040161326b929190918252602082015260400190565b604080518083038186803b15801561328257600080fd5b505afa158015613296573d6000803e3d6000fd5b505050506040513d601f19601f820116820180604052508101906132ba919061532b565b90925090506001600160a01b038216158015906132d75750600081115b156133fa57866132e78583615a23565b111561335b5760405162461bcd60e51b815260206004820152602b60248201527f4d61726b65743a20546f74616c206d61726b657420666565732065786365656460448201527f207468652070726963652e00000000000000000000000000000000000000000060648201526084016107f7565b6133658184615a7a565b60e08701516040516323b872dd60e01b81526001600160a01b038c811660048301528581166024830152604482018590529295509116906323b872dd90606401602060405180830381600087803b1580156133bf57600080fd5b505af11580156133d3573d6000803e3d6000fd5b505050506040513d601f19601f820116820180604052508101906133f791906153e4565b94505b50505b60e08401516040516323b872dd60e01b81526001600160a01b038981166004830152888116602483015260448201849052909116906323b872dd90606401602060405180830381600087803b15801561345557600080fd5b505af1158015613469573d6000803e3d6000fd5b505050506040513d601f19601f8201168201806040525081019061348d91906153e4565b9250826135025760405162461bcd60e51b815260206004820152602660248201527f4d61726b65743a206661696c656420746f207061796f7574207374616b65686f60448201527f6c646572732e000000000000000000000000000000000000000000000000000060648201526084016107f7565b50505050505050565b60008281526020819052604090206001015461352e81613529612ecd565b61479e565b61105283836146b0565b613540612ecd565b6001600160a01b0316816001600160a01b0316146135c65760405162461bcd60e51b815260206004820152602f60248201527f416363657373436f6e74726f6c3a2063616e206f6e6c792072656e6f756e636560448201527f20726f6c657320666f722073656c66000000000000000000000000000000000060648201526084016107f7565b612eb0828261481c565b6000611602836001600160a01b0384166148b9565b6040516370a0823160e01b81526001600160a01b0384811660048301528291908416906370a082319060240160206040518083038186803b15801561362957600080fd5b505afa15801561363d573d6000803e3d6000fd5b505050506040513d601f19601f820116820180604052508101906136619190615418565b101580156136ef5750604051636eb1769f60e11b81526001600160a01b03848116600483015230602483015282919084169063dd62ed3e9060440160206040518083038186803b1580156136b457600080fd5b505afa1580156136c8573d6000803e3d6000fd5b505050506040513d601f19601f820116820180604052508101906136ec9190615418565b10155b6110525760405162461bcd60e51b815260206004820152603960248201527f4d61726b65743a206d757374206f776e20616e6420617070726f7665204d617260448201527f6b657420746f207472616e736665722063757272656e63792e0000000000000060648201526084016107f7565b60008161377057506000610791565b600183600181111561379257634e487b7160e01b600052602160045260246000fd5b1461379d5781611602565b50600192915050565b81516000908152600a602090815260409182902082516080810184528154815260018201546001600160a01b031692810192909252600281015492820192909252600390910154606080830182905283015161380291906149d6565b15611052576020808201805160608085018051948701516001600160a01b03169093528501519091526101208501519091906000901580159061385d57508560c001518661012001516138559190615a5b565b856060015110155b90508015613aa557428660a0018181525050600084604001818152505083600a6000886000015181526020019081526020016000206000820151816000015560208201518160010160006101000a8154816001600160a01b0302191690836001600160a01b0316021790555060408201518160020155606082015181600301559050508560086000886000015181526020019081526020016000206000820151816000015560208201518160010160006101000a8154816001600160a01b0302191690836001600160a01b0316021790555060408201518160020160006101000a8154816001600160a01b0302191690836001600160a01b03160217905550606082015181600301556080820151816004015560a0820151816005015560c0820151816006015560e08201518160070160006101000a8154816001600160a01b0302191690836001600160a01b031602179055506101008201518160080155610120820151816009015561014082015181600a015561016082015181600b0160006101000a81548160ff02191690836001811115613a0b57634e487b7160e01b600052602160045260246000fd5b0217905550610180820151600b8201805461ff001916610100836001811115613a4457634e487b7160e01b600052602160045260246000fd5b021790555050506020808601518751918801516040516001600160a01b03831693927f42bdf1b5daec205081fa6758882be4b9c6633d2b16ea489d1c36cddfd46d7cab92613a98929091908b908d906157ad565b60405180910390a3613cce565b85516000908152600a602090815260409182902087518155908701516001820180546001600160a01b0319166001600160a01b03909216919091179055908601516002820155606086015160039091015560075460a0870151690100000000000000000090910467ffffffffffffffff1690613b22904290615a7a565b11613c815760075460a087018051690100000000000000000090920467ffffffffffffffff1691613b54908390615a23565b90525085516000908152600860208181526040928390208951815590890151600180830180546001600160a01b03199081166001600160a01b0394851617909155948b0151600284018054871691841691909117905560608b0151600384015560808b0151600484015560a08b0151600584015560c08b0151600684015560e08b0151600784018054909616921691909117909355610100890151918101919091556101208801516009820155610140880151600a820155610160880151600b820180548a9460ff19909116908381811115613c4057634e487b7160e01b600052602160045260246000fd5b0217905550610180820151600b8201805461ff001916610100836001811115613c7957634e487b7160e01b600052602160045260246000fd5b021790555050505b84602001516001600160a01b031686600001517f4aebf4dd6dc586d8e61e80b74856628c80f4e50926edf340a66ce6b25a760b438789604051613cc59291906158ba565b60405180910390a35b613ce58660e0015186602001518760600151614a29565b8015613cff57613cff308660200151876040015189612ed7565b6001600160a01b03831615801590613d175750600082115b15613e2b5760e086015160405163095ea7b360e01b8152306004820152602481018490526001600160a01b039091169063095ea7b390604401602060405180830381600087803b158015613d6a57600080fd5b505af1158015613d7e573d6000803e3d6000fd5b505050506040513d601f19601f82011682018060405250810190613da291906153e4565b5060e086015160405163a9059cbb60e01b81526001600160a01b038581166004830152602482018590529091169063a9059cbb90604401602060405180830381600087803b158015613df357600080fd5b505af1158015613e07573d6000803e3d6000fd5b505050506040513d601f19601f8201168201806040525081019061350291906153e4565b505050505050565b60006116028383614c3e565b60003081846001811115613e6357634e487b7160e01b600052602160045260246000fd5b141561402c57604051627eeac760e11b81526001600160a01b0389811660048301526024820188905286919089169062fdd58e9060440160206040518083038186803b158015613eb257600080fd5b505afa158015613ec6573d6000803e3d6000fd5b505050506040513d601f19601f82011682018060405250810190613eea9190615418565b10158015613f74575060405163e985e9c560e01b81526001600160a01b038981166004830152828116602483015288169063e985e9c59060440160206040518083038186803b158015613f3c57600080fd5b505afa158015613f50573d6000803e3d6000fd5b505050506040513d601f19601f82011682018060405250810190613f7491906153e4565b9150818015613fa257506001836001811115613fa057634e487b7160e01b600052602160045260246000fd5b145b1561402757604051637921219560e11b81526001600160a01b0389811660048301528281166024830152604482018890526064820187905260a06084830152600060a483015288169063f242432a9060c401600060405180830381600087803b15801561400e57600080fd5b505af1158015614022573d6000803e3d6000fd5b505050505b61429c565b600184600181111561404e57634e487b7160e01b600052602160045260246000fd5b141561429c576040516331a9108f60e11b8152600481018790526001600160a01b03808a169190891690636352211e9060240160206040518083038186803b15801561409957600080fd5b505afa1580156140ad573d6000803e3d6000fd5b505050506040513d601f19601f820116820180604052508101906140d1919061518d565b6001600160a01b03161480156141f0575060405163020604bf60e21b8152600481018790526001600160a01b03808316919089169063081812fc9060240160206040518083038186803b15801561412757600080fd5b505afa15801561413b573d6000803e3d6000fd5b505050506040513d601f19601f8201168201806040525081019061415f919061518d565b6001600160a01b031614806141f0575060405163e985e9c560e01b81526001600160a01b038981166004830152828116602483015288169063e985e9c59060440160206040518083038186803b1580156141b857600080fd5b505afa1580156141cc573d6000803e3d6000fd5b505050506040513d601f19601f820116820180604052508101906141f091906153e4565b915081801561421e5750600183600181111561421c57634e487b7160e01b600052602160045260246000fd5b145b1561429c57604051635c46a7ef60e11b81526001600160a01b038981166004830152828116602483015260448201889052608060648301526000608483015288169063b88d4fde9060a401600060405180830381600087803b15801561428357600080fd5b505af1158015614297573d6000803e3d6000fd5b505050505b509695505050505050565b60606116028383604051806060016040528060278152602001615b9b60279139614c76565b6000610791825490565b600580549060019060006142ea8385615a23565b9250508190555090565b6040516301ffc9a760e01b8152636cdb3d1360e11b60048201526000906001600160a01b038316906301ffc9a79060240160206040518083038186803b15801561433d57600080fd5b505afa158015614351573d6000803e3d6000fd5b505050506040513d601f19601f8201168201806040525081019061437591906153e4565b1561438257506000919050565b6040516301ffc9a760e01b81526380ac58cd60e01b60048201526001600160a01b038316906301ffc9a79060240160206040518083038186803b1580156143c857600080fd5b505afa1580156143dc573d6000803e3d6000fd5b505050506040513d601f19601f8201168201806040525081019061440091906153e4565b1561440d57506001919050565b60405162461bcd60e51b815260206004820152602b60248201527f4d61726b65743a206d75737420696d706c656d656e742045524320313135352060448201527f6f7220455243203732312e00000000000000000000000000000000000000000060648201526084016107f7565b919050565b60008281526020819052604090206001015461449e81613529612ecd565b611052838361481c565b6144c7828460e00151856101200151846144c29190615a5b565b6135e5565b6144ef8360200151846040015185606001518660c00151876101600151886101800151613e3f565b6145615760405162461bcd60e51b815260206004820152602c60248201527f4d61726b65743a2063616e6e6f742062757920746f6b656e732066726f6d207460448201527f686973206c697374696e672e000000000000000000000000000000000000000060648201526084016107f7565b60008111801561457557508260c001518111155b80156145b4575061014083015183516000908152600b602090815260408083206001600160a01b03871684529091529020546145b19083615a23565b11155b6146265760405162461bcd60e51b815260206004820152603160248201527f4d61726b65743a206d7573742062757920616e20617070726f7072696174652060448201527f616d6f756e74206f6620746f6b656e732e00000000000000000000000000000060648201526084016107f7565b8260a00151421115801561463e575082608001514210155b6110525760405162461bcd60e51b815260206004820152603260248201527f4d61726b65743a207468652073616c652068617320656974686572206e6f742060448201527f73746172746564206f7220636c6f7365642e000000000000000000000000000060648201526084016107f7565b6000828152602081815260408083206001600160a01b038516845290915290205460ff16612eb0576000828152602081815260408083206001600160a01b03851684529091529020805460ff1916600117905561470b612ecd565b6001600160a01b0316816001600160a01b0316837f2f8788117e7eff1d82e926ec794901d17c78024a50270940304540a733656f0d60405160405180910390a45050565b600081815260018301602052604081205461479657508154600181810184556000848152602080822090930184905584548482528286019093526040902091909155610791565b506000610791565b6000828152602081815260408083206001600160a01b038516845290915290205460ff16612eb0576147da816001600160a01b03166014614d61565b6147e5836020614d61565b6040516020016147f692919061572c565b60408051601f198184030181529082905262461bcd60e51b82526107f791600401615898565b6000828152602081815260408083206001600160a01b038516845290915290205460ff1615612eb0576000828152602081815260408083206001600160a01b03851684529091529020805460ff19169055614875612ecd565b6001600160a01b0316816001600160a01b0316837ff6391f5c32d9c69d2a47ea670b442974b53935d1edc7fd64eb21e047a839171b60405160405180910390a45050565b600081815260018301602052604081205480156149cc5760006148dd600183615a7a565b85549091506000906148f190600190615a7a565b905081811461497257600086600001828154811061491f57634e487b7160e01b600052603260045260246000fd5b906000526020600020015490508087600001848154811061495057634e487b7160e01b600052603260045260246000fd5b6000918252602080832090910192909255918252600188019052604090208390555b855486908061499157634e487b7160e01b600052603160045260246000fd5b600190038181906000526020600020016000905590558560010160008681526020019081526020016000206000905560019350505050610791565b6000915050610791565b6000821580611602575082821180156116025750600754600160881b900467ffffffffffffffff1683612710614a0c8286615a7a565b614a169190615a5b565b614a209190615a3b565b10159392505050565b6040516370a0823160e01b81523060048201819052906000906001600160a01b038616906370a082319060240160206040518083038186803b158015614a6e57600080fd5b505afa158015614a82573d6000803e3d6000fd5b505050506040513d601f19601f82011682018060405250810190614aa69190615418565b6040516323b872dd60e01b81526001600160a01b0386811660048301528481166024830152604482018690529192506000918716906323b872dd90606401602060405180830381600087803b158015614afe57600080fd5b505af1158015614b12573d6000803e3d6000fd5b505050506040513d601f19601f82011682018060405250810190614b3691906153e4565b6040516370a0823160e01b81526001600160a01b0385811660048301529192506000918816906370a082319060240160206040518083038186803b158015614b7d57600080fd5b505afa158015614b91573d6000803e3d6000fd5b505050506040513d601f19601f82011682018060405250810190614bb59190615418565b9050818015614bcc5750614bc98584615a23565b81145b6135025760405162461bcd60e51b815260206004820152602760248201527f4d61726b65743a206661696c656420746f207265636569766520696e636f6d6960448201527f6e67206269642e0000000000000000000000000000000000000000000000000060648201526084016107f7565b6000826000018281548110614c6357634e487b7160e01b600052603260045260246000fd5b9060005260206000200154905092915050565b6060833b614cec5760405162461bcd60e51b815260206004820152602660248201527f416464726573733a2064656c65676174652063616c6c20746f206e6f6e2d636f60448201527f6e7472616374000000000000000000000000000000000000000000000000000060648201526084016107f7565b600080856001600160a01b031685604051614d079190615710565b600060405180830381855af49150503d8060008114614d42576040519150601f19603f3d011682016040523d82523d6000602084013e614d47565b606091505b5091509150614d57828286614f50565b9695505050505050565b60606000614d70836002615a5b565b614d7b906002615a23565b67ffffffffffffffff811115614da157634e487b7160e01b600052604160045260246000fd5b6040519080825280601f01601f191660200182016040528015614dcb576020820181803683370190505b509050600360fc1b81600081518110614df457634e487b7160e01b600052603260045260246000fd5b60200101906001600160f81b031916908160001a905350600f60fb1b81600181518110614e3157634e487b7160e01b600052603260045260246000fd5b60200101906001600160f81b031916908160001a9053506000614e55846002615a5b565b614e60906001615a23565b90505b6001811115614f01577f303132333435363738396162636465660000000000000000000000000000000085600f1660108110614eaf57634e487b7160e01b600052603260045260246000fd5b1a60f81b828281518110614ed357634e487b7160e01b600052603260045260246000fd5b60200101906001600160f81b031916908160001a90535060049490941c93614efa81615abd565b9050614e63565b5083156116025760405162461bcd60e51b815260206004820181905260248201527f537472696e67733a20686578206c656e67746820696e73756666696369656e7460448201526064016107f7565b60608315614f5f575081611602565b825115614f6f5782518084602001fd5b8160405162461bcd60e51b81526004016107f79190615898565b828054614f9590615ad4565b90600052602060002090601f016020900481019282614fb75760008555614ffd565b82601f10614fd05782800160ff19823516178555614ffd565b82800160010185558215614ffd579182015b82811115614ffd578235825591602001919060010190614fe2565b5061500992915061500d565b5090565b5b80821115615009576000815560010161500e565b803561447b81615b77565b600082601f83011261503d578081fd5b8135602067ffffffffffffffff82111561505957615059615b40565b8160051b6150688282016159f2565b838152828101908684018388018501891015615082578687fd5b8693505b858410156150a4578035835260019390930192918401918401615086565b50979650505050505050565b60008083601f8401126150c1578182fd5b50813567ffffffffffffffff8111156150d8578182fd5b6020830191508360208285010111156150f057600080fd5b9250929050565b600082601f830112615107578081fd5b813567ffffffffffffffff81111561512157615121615b40565b615134601f8201601f19166020016159f2565b818152846020838601011115615148578283fd5b816020850160208301379081016020019190915292915050565b80356002811061447b57600080fd5b600060208284031215615182578081fd5b813561160281615b77565b60006020828403121561519e578081fd5b815161160281615b77565b600080600080600060a086880312156151c0578081fd5b85356151cb81615b77565b945060208601356151db81615b77565b9350604086013567ffffffffffffffff808211156151f7578283fd5b61520389838a0161502d565b94506060880135915080821115615218578283fd5b61522489838a0161502d565b93506080880135915080821115615239578283fd5b50615246888289016150f7565b9150509295509295909350565b60008060008060006080868803121561526a578081fd5b853561527581615b77565b9450602086013561528581615b77565b935060408601359250606086013567ffffffffffffffff8111156152a7578182fd5b6152b3888289016150b0565b969995985093965092949392505050565b600080600080600060a086880312156152db578081fd5b85356152e681615b77565b945060208601356152f681615b77565b93506040860135925060608601359150608086013567ffffffffffffffff81111561531f578182fd5b615246888289016150f7565b6000806040838503121561533d578182fd5b825161534881615b77565b6020939093015192949293505050565b6000806020838503121561536a578182fd5b823567ffffffffffffffff80821115615381578384fd5b818501915085601f830112615394578384fd5b8135818111156153a2578485fd5b8660208260051b85010111156153b6578485fd5b60209290920196919550909350505050565b6000602082840312156153d9578081fd5b813561160281615b8c565b6000602082840312156153f5578081fd5b815161160281615b8c565b600060208284031215615411578081fd5b5035919050565b600060208284031215615429578081fd5b5051919050565b60008060408385031215615442578182fd5b82359150602083013561545481615b77565b809150509250929050565b60008060408385031215615471578182fd5b50508035926020909101359150565b600060208284031215615491578081fd5b81356001600160e01b031981168114611602578182fd5b600080602083850312156154ba578182fd5b823567ffffffffffffffff8111156154d0578283fd5b6154dc858286016150b0565b90969095509350505050565b600061014082840312156154fa578081fd5b6155026159c8565b61550b83615022565b81526020830135602082015260408301356040820152606083013560608201526080830135608082015261554160a08401615022565b60a082015260c083013560c082015260e083013560e0820152610100808401358183015250610120615574818501615162565b908201529392505050565b600080600060608486031215615593578081fd5b505081359360208301359350604090920135919050565b600080600080600080600080610100898b0312156155c6578586fd5b883597506020890135965060408901359550606089013594506080890135935060a08901356155f481615b77565b979a969950949793969295929450505060c08201359160e0013590565b60008151808452615629816020860160208601615a91565b601f01601f19169290920160200192915050565b61564681615b56565b9052565b80518252602081015161566860208401826001600160a01b03169052565b50604081015161568360408401826001600160a01b03169052565b50606081015160608301526080810151608083015260a081015160a083015260c081015160c083015260e08101516156c660e08401826001600160a01b03169052565b50610100818101519083015261012080820151908301526101408082015190830152610160808201516156fb8285018261563d565b5050610180808201516130448285018261563d565b60008251615722818460208701615a91565b9190910192915050565b7f416363657373436f6e74726f6c3a206163636f756e7420000000000000000000815260008351615764816017850160208801615a91565b7f206973206d697373696e6720726f6c652000000000000000000000000000000060179184019182015283516157a1816028840160208801615a91565b01602801949350505050565b6001600160a01b0385811682528416602082015261026081016157fd6040830185805182526001600160a01b03602082015116602083015260408101516040830152606081015160608301525050565b6107a060c083018461564a565b6001600160a01b0384168152602081018390526101e0810161582f604083018461564a565b949350505050565b6000602080830181845280855180835260408601915060408160051b8701019250838701855b8281101561588b57603f19888603018452615879858351615611565b9450928501929085019060010161585d565b5092979650505050505050565b6020815260006116026020830184615611565b6101a08101610791828461564a565b825181526020808401516001600160a01b03169082015260408084015190820152606080840151908201526102208101611602608083018461564a565b60006101a0820190508e82526001600160a01b03808f166020840152808e1660408401528c60608401528b60808401528a60a08401528960c084015280891660e08401525086610100830152856101208301528461014083015261595a84615b56565b8361016083015261596a83615b56565b826101808301529e9d5050505050505050505050505050565b6000808335601e19843603018112615999578283fd5b83018035915067ffffffffffffffff8211156159b3578283fd5b6020019150368190038213156150f057600080fd5b604051610140810167ffffffffffffffff811182821017156159ec576159ec615b40565b60405290565b604051601f8201601f1916810167ffffffffffffffff81118282101715615a1b57615a1b615b40565b604052919050565b60008219821115615a3657615a36615b2a565b500190565b600082615a5657634e487b7160e01b81526012600452602481fd5b500490565b6000816000190483118215151615615a7557615a75615b2a565b500290565b600082821015615a8c57615a8c615b2a565b500390565b60005b83811015615aac578181015183820152602001615a94565b838111156130445750506000910152565b600081615acc57615acc615b2a565b506000190190565b600181811c90821680615ae857607f821691505b60208210811415615b0957634e487b7160e01b600052602260045260246000fd5b50919050565b6000600019821415615b2357615b23615b2a565b5060010190565b634e487b7160e01b600052601160045260246000fd5b634e487b7160e01b600052604160045260246000fd5b60028110615b7457634e487b7160e01b600052602160045260246000fd5b50565b6001600160a01b0381168114615b7457600080fd5b8015158114615b7457600080fdfe416464726573733a206c6f772d6c6576656c2064656c65676174652063616c6c206661696c6564a164736f6c6343000804000a",
  "linkReferences": {},
  "deployedLinkReferences": {}
}