{
  "_format": "hh-sol-artifact-1",
  "contractName": "MarketWithAuction",
  "sourceName": "contracts/v2/MarketWithAuction.sol",
  "abi": [
    {
      "inputs": [
        {
          "internalType": "address payable",
          "name": "_controlCenter",
          "type": "address"
        },
        {
          "internalType": "address",
          "name": "_trustedForwarder",
          "type": "address"
        },
        {
          "internalType": "string",
          "name": "_uri",
          "type": "string"
        },
        {
          "internalType": "uint256",
          "name": "_marketFeeBps",
          "type": "uint256"
        }
      ],
      "stateMutability": "nonpayable",
      "type": "constructor"
    },
    {
      "anonymous": false,
      "inputs": [
        {
          "indexed": false,
          "internalType": "uint256",
          "name": "timeBuffer",
          "type": "uint256"
        },
        {
          "indexed": false,
          "internalType": "uint256",
          "name": "bidBufferBps",
          "type": "uint256"
        }
      ],
      "name": "AuctionBuffersUpdated",
      "type": "event"
    },
    {
      "anonymous": false,
      "inputs": [
        {
          "indexed": true,
          "internalType": "uint256",
          "name": "listingId",
          "type": "uint256"
        },
        {
          "indexed": true,
          "internalType": "address",
          "name": "auctionCreator",
          "type": "address"
        },
        {
          "components": [
            {
              "internalType": "uint256",
              "name": "listingId",
              "type": "uint256"
            },
            {
              "internalType": "address",
              "name": "tokenOwner",
              "type": "address"
            },
            {
              "internalType": "address",
              "name": "assetContract",
              "type": "address"
            },
            {
              "internalType": "uint256",
              "name": "tokenId",
              "type": "uint256"
            },
            {
              "internalType": "uint256",
              "name": "startTime",
              "type": "uint256"
            },
            {
              "internalType": "uint256",
              "name": "endTime",
              "type": "uint256"
            },
            {
              "internalType": "uint256",
              "name": "quantity",
              "type": "uint256"
            },
            {
              "internalType": "address",
              "name": "currency",
              "type": "address"
            },
            {
              "internalType": "uint256",
              "name": "reservePricePerToken",
              "type": "uint256"
            },
            {
              "internalType": "uint256",
              "name": "buyoutPricePerToken",
              "type": "uint256"
            },
            {
              "internalType": "uint256",
              "name": "tokensPerBuyer",
              "type": "uint256"
            },
            {
              "internalType": "enum IMarket.TokenType",
              "name": "tokenType",
              "type": "uint8"
            },
            {
              "internalType": "enum IMarket.ListingType",
              "name": "listingType",
              "type": "uint8"
            }
          ],
          "indexed": false,
          "internalType": "struct IMarket.Listing",
          "name": "listing",
          "type": "tuple"
        }
      ],
      "name": "AuctionCanceled",
      "type": "event"
    },
    {
      "anonymous": false,
      "inputs": [
        {
          "indexed": true,
          "internalType": "uint256",
          "name": "listingId",
          "type": "uint256"
        },
        {
          "indexed": true,
          "internalType": "address",
          "name": "closer",
          "type": "address"
        },
        {
          "indexed": false,
          "internalType": "address",
          "name": "auctionCreator",
          "type": "address"
        },
        {
          "indexed": false,
          "internalType": "address",
          "name": "winningBidder",
          "type": "address"
        },
        {
          "components": [
            {
              "internalType": "uint256",
              "name": "listingId",
              "type": "uint256"
            },
            {
              "internalType": "address",
              "name": "offeror",
              "type": "address"
            },
            {
              "internalType": "uint256",
              "name": "quantityWanted",
              "type": "uint256"
            },
            {
              "internalType": "uint256",
              "name": "offerAmount",
              "type": "uint256"
            }
          ],
          "indexed": false,
          "internalType": "struct IMarket.Offer",
          "name": "winningBid",
          "type": "tuple"
        },
        {
          "components": [
            {
              "internalType": "uint256",
              "name": "listingId",
              "type": "uint256"
            },
            {
              "internalType": "address",
              "name": "tokenOwner",
              "type": "address"
            },
            {
              "internalType": "address",
              "name": "assetContract",
              "type": "address"
            },
            {
              "internalType": "uint256",
              "name": "tokenId",
              "type": "uint256"
            },
            {
              "internalType": "uint256",
              "name": "startTime",
              "type": "uint256"
            },
            {
              "internalType": "uint256",
              "name": "endTime",
              "type": "uint256"
            },
            {
              "internalType": "uint256",
              "name": "quantity",
              "type": "uint256"
            },
            {
              "internalType": "address",
              "name": "currency",
              "type": "address"
            },
            {
              "internalType": "uint256",
              "name": "reservePricePerToken",
              "type": "uint256"
            },
            {
              "internalType": "uint256",
              "name": "buyoutPricePerToken",
              "type": "uint256"
            },
            {
              "internalType": "uint256",
              "name": "tokensPerBuyer",
              "type": "uint256"
            },
            {
              "internalType": "enum IMarket.TokenType",
              "name": "tokenType",
              "type": "uint8"
            },
            {
              "internalType": "enum IMarket.ListingType",
              "name": "listingType",
              "type": "uint8"
            }
          ],
          "indexed": false,
          "internalType": "struct IMarket.Listing",
          "name": "listing",
          "type": "tuple"
        }
      ],
      "name": "AuctionClosed",
      "type": "event"
    },
    {
      "anonymous": false,
      "inputs": [
        {
          "indexed": false,
          "internalType": "address",
          "name": "from",
          "type": "address"
        },
        {
          "indexed": false,
          "internalType": "uint256",
          "name": "amount",
          "type": "uint256"
        }
      ],
      "name": "EtherReceived",
      "type": "event"
    },
    {
      "anonymous": false,
      "inputs": [
        {
          "indexed": true,
          "internalType": "address",
          "name": "listingCreator",
          "type": "address"
        },
        {
          "indexed": true,
          "internalType": "uint256",
          "name": "listingId",
          "type": "uint256"
        },
        {
          "components": [
            {
              "internalType": "uint256",
              "name": "listingId",
              "type": "uint256"
            },
            {
              "internalType": "address",
              "name": "tokenOwner",
              "type": "address"
            },
            {
              "internalType": "address",
              "name": "assetContract",
              "type": "address"
            },
            {
              "internalType": "uint256",
              "name": "tokenId",
              "type": "uint256"
            },
            {
              "internalType": "uint256",
              "name": "startTime",
              "type": "uint256"
            },
            {
              "internalType": "uint256",
              "name": "endTime",
              "type": "uint256"
            },
            {
              "internalType": "uint256",
              "name": "quantity",
              "type": "uint256"
            },
            {
              "internalType": "address",
              "name": "currency",
              "type": "address"
            },
            {
              "internalType": "uint256",
              "name": "reservePricePerToken",
              "type": "uint256"
            },
            {
              "internalType": "uint256",
              "name": "buyoutPricePerToken",
              "type": "uint256"
            },
            {
              "internalType": "uint256",
              "name": "tokensPerBuyer",
              "type": "uint256"
            },
            {
              "internalType": "enum IMarket.TokenType",
              "name": "tokenType",
              "type": "uint8"
            },
            {
              "internalType": "enum IMarket.ListingType",
              "name": "listingType",
              "type": "uint8"
            }
          ],
          "indexed": false,
          "internalType": "struct IMarket.Listing",
          "name": "listing",
          "type": "tuple"
        }
      ],
      "name": "ListingUpdate",
      "type": "event"
    },
    {
      "anonymous": false,
      "inputs": [
        {
          "indexed": false,
          "internalType": "uint64",
          "name": "newFee",
          "type": "uint64"
        }
      ],
      "name": "MarketFeeUpdate",
      "type": "event"
    },
    {
      "anonymous": false,
      "inputs": [
        {
          "indexed": true,
          "internalType": "uint256",
          "name": "listingId",
          "type": "uint256"
        },
        {
          "indexed": true,
          "internalType": "address",
          "name": "bidder",
          "type": "address"
        },
        {
          "components": [
            {
              "internalType": "uint256",
              "name": "listingId",
              "type": "uint256"
            },
            {
              "internalType": "address",
              "name": "offeror",
              "type": "address"
            },
            {
              "internalType": "uint256",
              "name": "quantityWanted",
              "type": "uint256"
            },
            {
              "internalType": "uint256",
              "name": "offerAmount",
              "type": "uint256"
            }
          ],
          "indexed": false,
          "internalType": "struct IMarket.Offer",
          "name": "bid",
          "type": "tuple"
        },
        {
          "components": [
            {
              "internalType": "uint256",
              "name": "listingId",
              "type": "uint256"
            },
            {
              "internalType": "address",
              "name": "tokenOwner",
              "type": "address"
            },
            {
              "internalType": "address",
              "name": "assetContract",
              "type": "address"
            },
            {
              "internalType": "uint256",
              "name": "tokenId",
              "type": "uint256"
            },
            {
              "internalType": "uint256",
              "name": "startTime",
              "type": "uint256"
            },
            {
              "internalType": "uint256",
              "name": "endTime",
              "type": "uint256"
            },
            {
              "internalType": "uint256",
              "name": "quantity",
              "type": "uint256"
            },
            {
              "internalType": "address",
              "name": "currency",
              "type": "address"
            },
            {
              "internalType": "uint256",
              "name": "reservePricePerToken",
              "type": "uint256"
            },
            {
              "internalType": "uint256",
              "name": "buyoutPricePerToken",
              "type": "uint256"
            },
            {
              "internalType": "uint256",
              "name": "tokensPerBuyer",
              "type": "uint256"
            },
            {
              "internalType": "enum IMarket.TokenType",
              "name": "tokenType",
              "type": "uint8"
            },
            {
              "internalType": "enum IMarket.ListingType",
              "name": "listingType",
              "type": "uint8"
            }
          ],
          "indexed": false,
          "internalType": "struct IMarket.Listing",
          "name": "listing",
          "type": "tuple"
        }
      ],
      "name": "NewBid",
      "type": "event"
    },
    {
      "anonymous": false,
      "inputs": [
        {
          "indexed": true,
          "internalType": "address",
          "name": "assetContract",
          "type": "address"
        },
        {
          "indexed": true,
          "internalType": "address",
          "name": "seller",
          "type": "address"
        },
        {
          "indexed": true,
          "internalType": "uint256",
          "name": "listingId",
          "type": "uint256"
        },
        {
          "indexed": false,
          "internalType": "address",
          "name": "buyer",
          "type": "address"
        },
        {
          "indexed": false,
          "internalType": "uint256",
          "name": "quantity",
          "type": "uint256"
        },
        {
          "components": [
            {
              "internalType": "uint256",
              "name": "listingId",
              "type": "uint256"
            },
            {
              "internalType": "address",
              "name": "tokenOwner",
              "type": "address"
            },
            {
              "internalType": "address",
              "name": "assetContract",
              "type": "address"
            },
            {
              "internalType": "uint256",
              "name": "tokenId",
              "type": "uint256"
            },
            {
              "internalType": "uint256",
              "name": "startTime",
              "type": "uint256"
            },
            {
              "internalType": "uint256",
              "name": "endTime",
              "type": "uint256"
            },
            {
              "internalType": "uint256",
              "name": "quantity",
              "type": "uint256"
            },
            {
              "internalType": "address",
              "name": "currency",
              "type": "address"
            },
            {
              "internalType": "uint256",
              "name": "reservePricePerToken",
              "type": "uint256"
            },
            {
              "internalType": "uint256",
              "name": "buyoutPricePerToken",
              "type": "uint256"
            },
            {
              "internalType": "uint256",
              "name": "tokensPerBuyer",
              "type": "uint256"
            },
            {
              "internalType": "enum IMarket.TokenType",
              "name": "tokenType",
              "type": "uint8"
            },
            {
              "internalType": "enum IMarket.ListingType",
              "name": "listingType",
              "type": "uint8"
            }
          ],
          "indexed": false,
          "internalType": "struct IMarket.Listing",
          "name": "listing",
          "type": "tuple"
        }
      ],
      "name": "NewDirectSale",
      "type": "event"
    },
    {
      "anonymous": false,
      "inputs": [
        {
          "indexed": true,
          "internalType": "address",
          "name": "assetContract",
          "type": "address"
        },
        {
          "indexed": true,
          "internalType": "address",
          "name": "seller",
          "type": "address"
        },
        {
          "indexed": true,
          "internalType": "uint256",
          "name": "listingId",
          "type": "uint256"
        },
        {
          "components": [
            {
              "internalType": "uint256",
              "name": "listingId",
              "type": "uint256"
            },
            {
              "internalType": "address",
              "name": "tokenOwner",
              "type": "address"
            },
            {
              "internalType": "address",
              "name": "assetContract",
              "type": "address"
            },
            {
              "internalType": "uint256",
              "name": "tokenId",
              "type": "uint256"
            },
            {
              "internalType": "uint256",
              "name": "startTime",
              "type": "uint256"
            },
            {
              "internalType": "uint256",
              "name": "endTime",
              "type": "uint256"
            },
            {
              "internalType": "uint256",
              "name": "quantity",
              "type": "uint256"
            },
            {
              "internalType": "address",
              "name": "currency",
              "type": "address"
            },
            {
              "internalType": "uint256",
              "name": "reservePricePerToken",
              "type": "uint256"
            },
            {
              "internalType": "uint256",
              "name": "buyoutPricePerToken",
              "type": "uint256"
            },
            {
              "internalType": "uint256",
              "name": "tokensPerBuyer",
              "type": "uint256"
            },
            {
              "internalType": "enum IMarket.TokenType",
              "name": "tokenType",
              "type": "uint8"
            },
            {
              "internalType": "enum IMarket.ListingType",
              "name": "listingType",
              "type": "uint8"
            }
          ],
          "indexed": false,
          "internalType": "struct IMarket.Listing",
          "name": "listing",
          "type": "tuple"
        }
      ],
      "name": "NewListing",
      "type": "event"
    },
    {
      "anonymous": false,
      "inputs": [
        {
          "indexed": true,
          "internalType": "uint256",
          "name": "listingId",
          "type": "uint256"
        },
        {
          "indexed": true,
          "internalType": "address",
          "name": "offeror",
          "type": "address"
        },
        {
          "components": [
            {
              "internalType": "uint256",
              "name": "listingId",
              "type": "uint256"
            },
            {
              "internalType": "address",
              "name": "offeror",
              "type": "address"
            },
            {
              "internalType": "uint256",
              "name": "quantityWanted",
              "type": "uint256"
            },
            {
              "internalType": "uint256",
              "name": "offerAmount",
              "type": "uint256"
            }
          ],
          "indexed": false,
          "internalType": "struct IMarket.Offer",
          "name": "offer",
          "type": "tuple"
        },
        {
          "components": [
            {
              "internalType": "uint256",
              "name": "listingId",
              "type": "uint256"
            },
            {
              "internalType": "address",
              "name": "tokenOwner",
              "type": "address"
            },
            {
              "internalType": "address",
              "name": "assetContract",
              "type": "address"
            },
            {
              "internalType": "uint256",
              "name": "tokenId",
              "type": "uint256"
            },
            {
              "internalType": "uint256",
              "name": "startTime",
              "type": "uint256"
            },
            {
              "internalType": "uint256",
              "name": "endTime",
              "type": "uint256"
            },
            {
              "internalType": "uint256",
              "name": "quantity",
              "type": "uint256"
            },
            {
              "internalType": "address",
              "name": "currency",
              "type": "address"
            },
            {
              "internalType": "uint256",
              "name": "reservePricePerToken",
              "type": "uint256"
            },
            {
              "internalType": "uint256",
              "name": "buyoutPricePerToken",
              "type": "uint256"
            },
            {
              "internalType": "uint256",
              "name": "tokensPerBuyer",
              "type": "uint256"
            },
            {
              "internalType": "enum IMarket.TokenType",
              "name": "tokenType",
              "type": "uint8"
            },
            {
              "internalType": "enum IMarket.ListingType",
              "name": "listingType",
              "type": "uint8"
            }
          ],
          "indexed": false,
          "internalType": "struct IMarket.Listing",
          "name": "listing",
          "type": "tuple"
        }
      ],
      "name": "NewOffer",
      "type": "event"
    },
    {
      "anonymous": false,
      "inputs": [
        {
          "indexed": false,
          "internalType": "bool",
          "name": "restricted",
          "type": "bool"
        }
      ],
      "name": "RestrictedListerRoleUpdated",
      "type": "event"
    },
    {
      "anonymous": false,
      "inputs": [
        {
          "indexed": true,
          "internalType": "bytes32",
          "name": "role",
          "type": "bytes32"
        },
        {
          "indexed": true,
          "internalType": "bytes32",
          "name": "previousAdminRole",
          "type": "bytes32"
        },
        {
          "indexed": true,
          "internalType": "bytes32",
          "name": "newAdminRole",
          "type": "bytes32"
        }
      ],
      "name": "RoleAdminChanged",
      "type": "event"
    },
    {
      "anonymous": false,
      "inputs": [
        {
          "indexed": true,
          "internalType": "bytes32",
          "name": "role",
          "type": "bytes32"
        },
        {
          "indexed": true,
          "internalType": "address",
          "name": "account",
          "type": "address"
        },
        {
          "indexed": true,
          "internalType": "address",
          "name": "sender",
          "type": "address"
        }
      ],
      "name": "RoleGranted",
      "type": "event"
    },
    {
      "anonymous": false,
      "inputs": [
        {
          "indexed": true,
          "internalType": "bytes32",
          "name": "role",
          "type": "bytes32"
        },
        {
          "indexed": true,
          "internalType": "address",
          "name": "account",
          "type": "address"
        },
        {
          "indexed": true,
          "internalType": "address",
          "name": "sender",
          "type": "address"
        }
      ],
      "name": "RoleRevoked",
      "type": "event"
    },
    {
      "inputs": [],
      "name": "DEFAULT_ADMIN_ROLE",
      "outputs": [
        {
          "internalType": "bytes32",
          "name": "",
          "type": "bytes32"
        }
      ],
      "stateMutability": "view",
      "type": "function"
    },
    {
      "inputs": [],
      "name": "LISTER_ROLE",
      "outputs": [
        {
          "internalType": "bytes32",
          "name": "",
          "type": "bytes32"
        }
      ],
      "stateMutability": "view",
      "type": "function"
    },
    {
      "inputs": [],
      "name": "MAX_BPS",
      "outputs": [
        {
          "internalType": "uint64",
          "name": "",
          "type": "uint64"
        }
      ],
      "stateMutability": "view",
      "type": "function"
    },
    {
      "inputs": [],
      "name": "_contractURI",
      "outputs": [
        {
          "internalType": "string",
          "name": "",
          "type": "string"
        }
      ],
      "stateMutability": "view",
      "type": "function"
    },
    {
      "inputs": [
        {
          "internalType": "uint256",
          "name": "_listingId",
          "type": "uint256"
        },
        {
          "internalType": "address",
          "name": "offeror",
          "type": "address"
        }
      ],
      "name": "acceptOffer",
      "outputs": [],
      "stateMutability": "nonpayable",
      "type": "function"
    },
    {
      "inputs": [],
      "name": "bidBufferBps",
      "outputs": [
        {
          "internalType": "uint64",
          "name": "",
          "type": "uint64"
        }
      ],
      "stateMutability": "view",
      "type": "function"
    },
    {
      "inputs": [
        {
          "internalType": "uint256",
          "name": "",
          "type": "uint256"
        },
        {
          "internalType": "address",
          "name": "",
          "type": "address"
        }
      ],
      "name": "boughtFromListing",
      "outputs": [
        {
          "internalType": "uint256",
          "name": "",
          "type": "uint256"
        }
      ],
      "stateMutability": "view",
      "type": "function"
    },
    {
      "inputs": [
        {
          "internalType": "uint256",
          "name": "_listingId",
          "type": "uint256"
        },
        {
          "internalType": "uint256",
          "name": "_quantityToBuy",
          "type": "uint256"
        }
      ],
      "name": "buy",
      "outputs": [],
      "stateMutability": "nonpayable",
      "type": "function"
    },
    {
      "inputs": [
        {
          "internalType": "uint256",
          "name": "_listingId",
          "type": "uint256"
        }
      ],
      "name": "closeAuction",
      "outputs": [],
      "stateMutability": "nonpayable",
      "type": "function"
    },
    {
      "inputs": [],
      "name": "contractURI",
      "outputs": [
        {
          "internalType": "string",
          "name": "",
          "type": "string"
        }
      ],
      "stateMutability": "view",
      "type": "function"
    },
    {
      "inputs": [
        {
          "components": [
            {
              "internalType": "address",
              "name": "assetContract",
              "type": "address"
            },
            {
              "internalType": "uint256",
              "name": "tokenId",
              "type": "uint256"
            },
            {
              "internalType": "uint256",
              "name": "secondsUntilStartTime",
              "type": "uint256"
            },
            {
              "internalType": "uint256",
              "name": "secondsUntilEndTime",
              "type": "uint256"
            },
            {
              "internalType": "uint256",
              "name": "quantityToList",
              "type": "uint256"
            },
            {
              "internalType": "address",
              "name": "currencyToAccept",
              "type": "address"
            },
            {
              "internalType": "uint256",
              "name": "reservePricePerToken",
              "type": "uint256"
            },
            {
              "internalType": "uint256",
              "name": "buyoutPricePerToken",
              "type": "uint256"
            },
            {
              "internalType": "uint256",
              "name": "tokensPerBuyer",
              "type": "uint256"
            },
            {
              "internalType": "enum IMarket.ListingType",
              "name": "listingType",
              "type": "uint8"
            }
          ],
          "internalType": "struct IMarket.ListingParameters",
          "name": "_params",
          "type": "tuple"
        }
      ],
      "name": "createListing",
      "outputs": [],
      "stateMutability": "nonpayable",
      "type": "function"
    },
    {
      "inputs": [
        {
          "internalType": "uint256",
          "name": "_listingId",
          "type": "uint256"
        },
        {
          "internalType": "uint256",
          "name": "_quantityToList",
          "type": "uint256"
        },
        {
          "internalType": "uint256",
          "name": "_reservePricePerToken",
          "type": "uint256"
        },
        {
          "internalType": "uint256",
          "name": "_buyoutPricePerToken",
          "type": "uint256"
        },
        {
          "internalType": "uint256",
          "name": "_tokensPerBuyer",
          "type": "uint256"
        },
        {
          "internalType": "address",
          "name": "_currencyToAccept",
          "type": "address"
        },
        {
          "internalType": "uint256",
          "name": "_secondsUntilStartTime",
          "type": "uint256"
        },
        {
          "internalType": "uint256",
          "name": "_secondsUntilEndTime",
          "type": "uint256"
        }
      ],
      "name": "editListingParametrs",
      "outputs": [],
      "stateMutability": "nonpayable",
      "type": "function"
    },
    {
      "inputs": [
        {
          "internalType": "bytes32",
          "name": "role",
          "type": "bytes32"
        }
      ],
      "name": "getRoleAdmin",
      "outputs": [
        {
          "internalType": "bytes32",
          "name": "",
          "type": "bytes32"
        }
      ],
      "stateMutability": "view",
      "type": "function"
    },
    {
      "inputs": [
        {
          "internalType": "bytes32",
          "name": "role",
          "type": "bytes32"
        },
        {
          "internalType": "uint256",
          "name": "index",
          "type": "uint256"
        }
      ],
      "name": "getRoleMember",
      "outputs": [
        {
          "internalType": "address",
          "name": "",
          "type": "address"
        }
      ],
      "stateMutability": "view",
      "type": "function"
    },
    {
      "inputs": [
        {
          "internalType": "bytes32",
          "name": "role",
          "type": "bytes32"
        }
      ],
      "name": "getRoleMemberCount",
      "outputs": [
        {
          "internalType": "uint256",
          "name": "",
          "type": "uint256"
        }
      ],
      "stateMutability": "view",
      "type": "function"
    },
    {
      "inputs": [
        {
          "internalType": "bytes32",
          "name": "role",
          "type": "bytes32"
        },
        {
          "internalType": "address",
          "name": "account",
          "type": "address"
        }
      ],
      "name": "grantRole",
      "outputs": [],
      "stateMutability": "nonpayable",
      "type": "function"
    },
    {
      "inputs": [
        {
          "internalType": "bytes32",
          "name": "role",
          "type": "bytes32"
        },
        {
          "internalType": "address",
          "name": "account",
          "type": "address"
        }
      ],
      "name": "hasRole",
      "outputs": [
        {
          "internalType": "bool",
          "name": "",
          "type": "bool"
        }
      ],
      "stateMutability": "view",
      "type": "function"
    },
    {
      "inputs": [
        {
          "internalType": "address",
          "name": "forwarder",
          "type": "address"
        }
      ],
      "name": "isTrustedForwarder",
      "outputs": [
        {
          "internalType": "bool",
          "name": "",
          "type": "bool"
        }
      ],
      "stateMutability": "view",
      "type": "function"
    },
    {
      "inputs": [
        {
          "internalType": "uint256",
          "name": "",
          "type": "uint256"
        }
      ],
      "name": "listings",
      "outputs": [
        {
          "internalType": "uint256",
          "name": "listingId",
          "type": "uint256"
        },
        {
          "internalType": "address",
          "name": "tokenOwner",
          "type": "address"
        },
        {
          "internalType": "address",
          "name": "assetContract",
          "type": "address"
        },
        {
          "internalType": "uint256",
          "name": "tokenId",
          "type": "uint256"
        },
        {
          "internalType": "uint256",
          "name": "startTime",
          "type": "uint256"
        },
        {
          "internalType": "uint256",
          "name": "endTime",
          "type": "uint256"
        },
        {
          "internalType": "uint256",
          "name": "quantity",
          "type": "uint256"
        },
        {
          "internalType": "address",
          "name": "currency",
          "type": "address"
        },
        {
          "internalType": "uint256",
          "name": "reservePricePerToken",
          "type": "uint256"
        },
        {
          "internalType": "uint256",
          "name": "buyoutPricePerToken",
          "type": "uint256"
        },
        {
          "internalType": "uint256",
          "name": "tokensPerBuyer",
          "type": "uint256"
        },
        {
          "internalType": "enum IMarket.TokenType",
          "name": "tokenType",
          "type": "uint8"
        },
        {
          "internalType": "enum IMarket.ListingType",
          "name": "listingType",
          "type": "uint8"
        }
      ],
      "stateMutability": "view",
      "type": "function"
    },
    {
      "inputs": [],
      "name": "marketFeeBps",
      "outputs": [
        {
          "internalType": "uint64",
          "name": "",
          "type": "uint64"
        }
      ],
      "stateMutability": "view",
      "type": "function"
    },
    {
      "inputs": [
        {
          "internalType": "bytes[]",
          "name": "data",
          "type": "bytes[]"
        }
      ],
      "name": "multicall",
      "outputs": [
        {
          "internalType": "bytes[]",
          "name": "results",
          "type": "bytes[]"
        }
      ],
      "stateMutability": "nonpayable",
      "type": "function"
    },
    {
      "inputs": [],
      "name": "nativeToken",
      "outputs": [
        {
          "internalType": "address",
          "name": "",
          "type": "address"
        }
      ],
      "stateMutability": "view",
      "type": "function"
    },
    {
      "inputs": [
        {
          "internalType": "uint256",
          "name": "_listingId",
          "type": "uint256"
        },
        {
          "internalType": "uint256",
          "name": "_quantityWanted",
          "type": "uint256"
        },
        {
          "internalType": "uint256",
          "name": "_totalOfferAmount",
          "type": "uint256"
        }
      ],
      "name": "offer",
      "outputs": [],
      "stateMutability": "payable",
      "type": "function"
    },
    {
      "inputs": [
        {
          "internalType": "uint256",
          "name": "",
          "type": "uint256"
        },
        {
          "internalType": "address",
          "name": "",
          "type": "address"
        }
      ],
      "name": "offers",
      "outputs": [
        {
          "internalType": "uint256",
          "name": "listingId",
          "type": "uint256"
        },
        {
          "internalType": "address",
          "name": "offeror",
          "type": "address"
        },
        {
          "internalType": "uint256",
          "name": "quantityWanted",
          "type": "uint256"
        },
        {
          "internalType": "uint256",
          "name": "offerAmount",
          "type": "uint256"
        }
      ],
      "stateMutability": "view",
      "type": "function"
    },
    {
      "inputs": [
        {
          "internalType": "address",
          "name": "",
          "type": "address"
        },
        {
          "internalType": "address",
          "name": "",
          "type": "address"
        },
        {
          "internalType": "uint256[]",
          "name": "",
          "type": "uint256[]"
        },
        {
          "internalType": "uint256[]",
          "name": "",
          "type": "uint256[]"
        },
        {
          "internalType": "bytes",
          "name": "",
          "type": "bytes"
        }
      ],
      "name": "onERC1155BatchReceived",
      "outputs": [
        {
          "internalType": "bytes4",
          "name": "",
          "type": "bytes4"
        }
      ],
      "stateMutability": "nonpayable",
      "type": "function"
    },
    {
      "inputs": [
        {
          "internalType": "address",
          "name": "",
          "type": "address"
        },
        {
          "internalType": "address",
          "name": "",
          "type": "address"
        },
        {
          "internalType": "uint256",
          "name": "",
          "type": "uint256"
        },
        {
          "internalType": "uint256",
          "name": "",
          "type": "uint256"
        },
        {
          "internalType": "bytes",
          "name": "",
          "type": "bytes"
        }
      ],
      "name": "onERC1155Received",
      "outputs": [
        {
          "internalType": "bytes4",
          "name": "",
          "type": "bytes4"
        }
      ],
      "stateMutability": "nonpayable",
      "type": "function"
    },
    {
      "inputs": [
        {
          "internalType": "address",
          "name": "",
          "type": "address"
        },
        {
          "internalType": "address",
          "name": "",
          "type": "address"
        },
        {
          "internalType": "uint256",
          "name": "",
          "type": "uint256"
        },
        {
          "internalType": "bytes",
          "name": "",
          "type": "bytes"
        }
      ],
      "name": "onERC721Received",
      "outputs": [
        {
          "internalType": "bytes4",
          "name": "",
          "type": "bytes4"
        }
      ],
      "stateMutability": "pure",
      "type": "function"
    },
    {
      "inputs": [
        {
          "internalType": "bytes32",
          "name": "role",
          "type": "bytes32"
        },
        {
          "internalType": "address",
          "name": "account",
          "type": "address"
        }
      ],
      "name": "renounceRole",
      "outputs": [],
      "stateMutability": "nonpayable",
      "type": "function"
    },
    {
      "inputs": [],
      "name": "restrictedListerRoleOnly",
      "outputs": [
        {
          "internalType": "bool",
          "name": "",
          "type": "bool"
        }
      ],
      "stateMutability": "view",
      "type": "function"
    },
    {
      "inputs": [
        {
          "internalType": "bytes32",
          "name": "role",
          "type": "bytes32"
        },
        {
          "internalType": "address",
          "name": "account",
          "type": "address"
        }
      ],
      "name": "revokeRole",
      "outputs": [],
      "stateMutability": "nonpayable",
      "type": "function"
    },
    {
      "inputs": [
        {
          "internalType": "uint256",
          "name": "_timeBuffer",
          "type": "uint256"
        },
        {
          "internalType": "uint256",
          "name": "_bidBufferBps",
          "type": "uint256"
        }
      ],
      "name": "setAuctionBuffers",
      "outputs": [],
      "stateMutability": "nonpayable",
      "type": "function"
    },
    {
      "inputs": [
        {
          "internalType": "string",
          "name": "_uri",
          "type": "string"
        }
      ],
      "name": "setContractURI",
      "outputs": [],
      "stateMutability": "nonpayable",
      "type": "function"
    },
    {
      "inputs": [
        {
          "internalType": "uint256",
          "name": "_feeBps",
          "type": "uint256"
        }
      ],
      "name": "setMarketFeeBps",
      "outputs": [],
      "stateMutability": "nonpayable",
      "type": "function"
    },
    {
      "inputs": [
        {
          "internalType": "bool",
          "name": "restricted",
          "type": "bool"
        }
      ],
      "name": "setRestrictedListerRoleOnly",
      "outputs": [],
      "stateMutability": "nonpayable",
      "type": "function"
    },
    {
      "inputs": [
        {
          "internalType": "bytes4",
          "name": "interfaceId",
          "type": "bytes4"
        }
      ],
      "name": "supportsInterface",
      "outputs": [
        {
          "internalType": "bool",
          "name": "",
          "type": "bool"
        }
      ],
      "stateMutability": "view",
      "type": "function"
    },
    {
      "inputs": [],
      "name": "timeBuffer",
      "outputs": [
        {
          "internalType": "uint64",
          "name": "",
          "type": "uint64"
        }
      ],
      "stateMutability": "view",
      "type": "function"
    },
    {
      "inputs": [],
      "name": "totalListings",
      "outputs": [
        {
          "internalType": "uint256",
          "name": "",
          "type": "uint256"
        }
      ],
      "stateMutability": "view",
      "type": "function"
    },
    {
      "inputs": [
        {
          "internalType": "uint256",
          "name": "",
          "type": "uint256"
        }
      ],
      "name": "winningBid",
      "outputs": [
        {
          "internalType": "uint256",
          "name": "listingId",
          "type": "uint256"
        },
        {
          "internalType": "address",
          "name": "offeror",
          "type": "address"
        },
        {
          "internalType": "uint256",
          "name": "quantityWanted",
          "type": "uint256"
        },
        {
          "internalType": "uint256",
          "name": "offerAmount",
          "type": "uint256"
        }
      ],
      "stateMutability": "view",
      "type": "function"
    },
    {
      "stateMutability": "payable",
      "type": "receive"
    }
  ],
  "bytecode": "0x608060405260078054600160481b600160c81b0319167201f400000000000003840000000000000000001790553480156200003957600080fd5b5060405162006449380380620064498339810160408190526200005c9162000382565b6001600255600380546001600160a01b0319166001600160a01b038516179055815162000091906006906020850190620002dc565b50600480546001600160a01b0319166001600160a01b03861617905560078054610100600160481b0319166101006001600160401b03841602179055620000e36000620000dd6200011c565b62000138565b620001127ff94103142c1baabe9ac2b5d1487bf783de9e69cfeea9a72f5c9c94afd7877b8c620000dd6200011c565b50505050620004f8565b6000620001336200017b60201b620030ce1760201c565b905090565b6200014f8282620001b460201b620030f61760201c565b60008281526001602090815260409091206200017691839062003104620001c4821b17901c565b505050565b6003546000906001600160a01b03163314156200019f575060131936013560601c90565b62000133620001e460201b620031191760201c565b620001c08282620001e8565b5050565b6000620001db836001600160a01b0384166200028a565b90505b92915050565b3390565b6000828152602081815260408083206001600160a01b038516845290915290205460ff16620001c0576000828152602081815260408083206001600160a01b03851684529091529020805460ff19166001179055620002466200011c565b6001600160a01b0316816001600160a01b0316837f2f8788117e7eff1d82e926ec794901d17c78024a50270940304540a733656f0d60405160405180910390a45050565b6000818152600183016020526040812054620002d357508154600181810184556000848152602080822090930184905584548482528286019093526040902091909155620001de565b506000620001de565b828054620002ea906200048c565b90600052602060002090601f0160209004810192826200030e576000855562000359565b82601f106200032957805160ff191683800117855562000359565b8280016001018555821562000359579182015b82811115620003595782518255916020019190600101906200033c565b50620003679291506200036b565b5090565b5b808211156200036757600081556001016200036c565b6000806000806080858703121562000398578384fd5b8451620003a581620004df565b80945050602080860151620003ba81620004df565b60408701519094506001600160401b0380821115620003d7578485fd5b818801915088601f830112620003eb578485fd5b815181811115620004005762000400620004c9565b604051601f8201601f19908116603f011681019083821181831017156200042b576200042b620004c9565b816040528281528b8684870101111562000443578788fd5b8793505b8284101562000466578484018601518185018701529285019262000447565b828411156200047757878684830101525b60609a909a0151989b979a5050505050505050565b600181811c90821680620004a157607f821691505b60208210811415620004c357634e487b7160e01b600052602260045260246000fd5b50919050565b634e487b7160e01b600052604160045260246000fd5b6001600160a01b0381168114620004f557600080fd5b50565b615f4180620005086000396000f3fe6080604052600436106102895760003560e01c8063bc197c8111610153578063de74e57b116100cb578063ea0e02411161007f578063ec91f2a411610064578063ec91f2a414610933578063f23a6e6114610961578063fd967f471461098d57600080fd5b8063ea0e0241146108bc578063ebdfbce5146108dc57600080fd5b8063e1758bd8116100b0578063e1758bd81461085f578063e4104eaf14610887578063e8a3d485146108a757600080fd5b8063de74e57b1461077d578063deb26b941461082b57600080fd5b8063ca15c87311610122578063d4ac9b8c11610107578063d4ac9b8c146106c9578063d547741f1461073d578063d6febde81461075d57600080fd5b8063ca15c87314610689578063d1e42ec0146106a957600080fd5b8063bc197c8114610605578063c0e7274014610631578063c24afe4e14610653578063c78b616c1461067357600080fd5b80634e03f28d11610201578063918d407d116101b5578063938e3d7b1161019a578063938e3d7b146105a3578063a217fddf146105c3578063ac9650d8146105d857600080fd5b8063918d407d1461053f57806391d148541461055f57600080fd5b806361096ec6116101e657806361096ec6146104da57806380cd2464146104f45780639010d07c1461050757600080fd5b80634e03f28d14610483578063572b6c05146104ab57600080fd5b8063248a9ca311610258578063354c7ab61161023d578063354c7ab61461040457806336568abe146104245780633f5c3e871461044457600080fd5b8063248a9ca3146103b45780632f2ff15d146103e457600080fd5b806301ffc9a7146102de578063150b7a021461031357806320c7852c1461034c578063236ed8f31461039257600080fd5b366102d9577f1e57e3bb474320be3d2c77138f75b7c3941292d647f5f9634e33a8e94e0e069b6102b76109a3565b604080516001600160a01b0390921682523460208301520160405180910390a1005b600080fd5b3480156102ea57600080fd5b506102fe6102f93660046157f3565b6109b2565b60405190151581526020015b60405180910390f35b34801561031f57600080fd5b5061033361032e3660046155c6565b610a04565b6040516001600160e01b0319909116815260200161030a565b34801561035857600080fd5b506103846103673660046157a3565b600b60209081526000928352604080842090915290825290205481565b60405190815260200161030a565b34801561039e57600080fd5b506103b26103ad366004615773565b610a16565b005b3480156103c057600080fd5b506103846103cf366004615773565b60009081526020819052604090206001015490565b3480156103f057600080fd5b506103b26103ff3660046157a3565b611285565b34801561041057600080fd5b506103b261041f36600461573b565b6112ac565b34801561043057600080fd5b506103b261043f3660046157a3565b61134d565b34801561045057600080fd5b5060075461046a90610100900467ffffffffffffffff1681565b60405167ffffffffffffffff909116815260200161030a565b34801561048f57600080fd5b5060075461046a90600160881b900467ffffffffffffffff1681565b3480156104b757600080fd5b506102fe6104c63660046154e4565b6003546001600160a01b0391821691161490565b3480156104e657600080fd5b506007546102fe9060ff1681565b6103b26105023660046158f2565b61136f565b34801561051357600080fd5b506105276105223660046157d2565b61183f565b6040516001600160a01b03909116815260200161030a565b34801561054b57600080fd5b506103b261055a3660046157a3565b61185e565b34801561056b57600080fd5b506102fe61057a3660046157a3565b6000918252602082815260408084206001600160a01b0393909316845291905290205460ff1690565b3480156105af57600080fd5b506103b26105be36600461581b565b611db4565b3480156105cf57600080fd5b50610384600081565b3480156105e457600080fd5b506105f86105f33660046156cb565b611f3b565b60405161030a9190615baa565b34801561061157600080fd5b5061033361062036600461551c565b63bc197c8160e01b95945050505050565b34801561063d57600080fd5b5061064661205a565b60405161030a9190615c0b565b34801561065f57600080fd5b506103b261066e36600461591d565b6120e8565b34801561067f57600080fd5b5061038460055481565b34801561069557600080fd5b506103846106a4366004615773565b6125e1565b3480156106b557600080fd5b506103b26106c436600461585b565b6125f8565b3480156106d557600080fd5b506107156106e4366004615773565b600a60205260009081526040902080546001820154600283015460039093015491926001600160a01b039091169184565b604080519485526001600160a01b03909316602085015291830152606082015260800161030a565b34801561074957600080fd5b506103b26107583660046157a3565b612a0e565b34801561076957600080fd5b506103b26107783660046157d2565b612a18565b34801561078957600080fd5b50610812610798366004615773565b600860208190526000918252604090912080546001820154600283015460038401546004850154600586015460068701546007880154988801546009890154600a8a0154600b909a0154989a6001600160a01b039889169a9789169996989597949693951693919290919060ff808216916101009004168d565b60405161030a9d9c9b9a99989796959493929190615c6a565b34801561083757600080fd5b506103847ff94103142c1baabe9ac2b5d1487bf783de9e69cfeea9a72f5c9c94afd7877b8c81565b34801561086b57600080fd5b5061052773eeeeeeeeeeeeeeeeeeeeeeeeeeeeeeeeeeeeeeee81565b34801561089357600080fd5b506103b26108a2366004615773565b612dde565b3480156108b357600080fd5b50610646612ee0565b3480156108c857600080fd5b506103b26108d73660046157d2565b612f72565b3480156108e857600080fd5b506107156108f73660046157a3565b6009602090815260009283526040808420909152908252902080546001820154600283015460039093015491926001600160a01b039091169184565b34801561093f57600080fd5b5060075461046a906901000000000000000000900467ffffffffffffffff1681565b34801561096d57600080fd5b5061033361097c366004615637565b63f23a6e6160e01b95945050505050565b34801561099957600080fd5b5061046a61271081565b60006109ad6130ce565b905090565b60006001600160e01b03198216630271189760e51b14806109e357506001600160e01b03198216630a85bd0160e11b145b806109fe57506001600160e01b0319821663152a902d60e11b145b92915050565b630a85bd0160e11b5b95945050505050565b600280541415610a6d5760405162461bcd60e51b815260206004820152601f60248201527f5265656e7472616e637947756172643a207265656e7472616e742063616c6c0060448201526064015b60405180910390fd5b6002808055600082815260086020818152604080842081516101a081018352815481526001808301546001600160a01b0390811695830195909552968201548416928101929092526003810154606083015260048101546080830152600581015460a0830152600681015460c0830152600781015490921660e0820152918101546101008301526009810154610120830152600a810154610140830152600b81015492939192909161016084019160ff1690811115610b3c57634e487b7160e01b600052602160045260246000fd5b6001811115610b5b57634e487b7160e01b600052602160045260246000fd5b8152602001600b820160019054906101000a900460ff166001811115610b9157634e487b7160e01b600052602160045260246000fd5b6001811115610bb057634e487b7160e01b600052602160045260246000fd5b9052506000838152600a6020908152604080832081516080810183528154815260018201546001600160a01b031693810193909352600281015491830191909152600301546060820152919250610c056109a3565b90504283608001511115610e39576000848152600860205260409020600101546001600160a01b03828116911614610ca55760405162461bcd60e51b815260206004820152602a60248201527f4d61726b65743a2063616c6c6572206973206e6f7420746865206c697374696e60448201527f672063726561746f722e000000000000000000000000000000000000000000006064820152608401610a64565b60c08301805160008083524260a08701908152878252600860208181526040938490208951815590890151600180830180546001600160a01b039384166001600160a01b031991821617909155958b015160028401805491841691881691909117905560608b0151600384015560808b01516004840155935160058301559551600682015560e089015160078201805491909716941693909317909455610100870151938201939093556101208601516009820155610140860151600a820155610160860151600b820180549394889460ff1916908381811115610d9957634e487b7160e01b600052602160045260246000fd5b0217905550610180820151600b8201805461ff001916610100836001811115610dd257634e487b7160e01b600052602160045260246000fd5b0217905550905050610dea308560200151838761311d565b83602001516001600160a01b0316857f8b8c78dbb114fabd551e84de4546a68891b5f7a217a98e3f2fe7adb18519959b86604051610e289190615c1e565b60405180910390a35050505061127d565b82602001516001600160a01b0316816001600160a01b03161480610e72575081602001516001600160a01b0316816001600160a01b0316145b610ee45760405162461bcd60e51b815260206004820152602a60248201527f4d61726b65743a206d75737420626520626964646572206f722061756374696f60448201527f6e2063726561746f722e000000000000000000000000000000000000000000006064820152608401610a64565b60018361018001516001811115610f0b57634e487b7160e01b600052602160045260246000fd5b14610f635760405162461bcd60e51b815260206004820152602260248201527f4d61726b65743a206c697374696e67206973206e6f7420616e2061756374696f604482015261371760f11b6064820152608401610a64565b428360a0015110610fdc5760405162461bcd60e51b815260206004820152603260248201527f4d61726b65743a2063616e206f6e6c7920636c6f73652061756374696f6e206160448201527f667465722069742068617320656e6465642e00000000000000000000000000006064820152608401610a64565b82602001516001600160a01b0316610ff26109a3565b6001600160a01b031614156111a257606082810151600060c086018181524260a08801908152888352600860208181526040948590208a518155908a0151600180830180546001600160a01b03199081166001600160a01b0394851617909155968c01516002840180548916918416919091179055978b0151600383015560808b01516004830155925160058201559251600684015560e0890151600784018054909516921691909117909255610100870151918101919091556101208601516009820155610140860151600a820155610160860151600b820180549394889460ff19169083818111156110f657634e487b7160e01b600052602160045260246000fd5b0217905550610180820151600b8201805461ff00191661010083600181111561112f57634e487b7160e01b600052602160045260246000fd5b021790555050600060608501818152878252600a602090815260409283902087518155818801516001820180546001600160a01b0319166001600160a01b03909216919091179055928701516002840155905160039092019190915585015161119c915030908387613290565b50611229565b81602001516001600160a01b03166111b86109a3565b6001600160a01b0316141561122957604082810180516000808352878152600a602090815293902085518155928501516001840180546001600160a01b0319166001600160a01b038316179055915160028401556060850151600390930192909255611227903090838761311d565b505b806001600160a01b0316847f42bdf1b5daec205081fa6758882be4b9c6633d2b16ea489d1c36cddfd46d7cab8560200151856020015186886040516112719493929190615b20565b60405180910390a35050505b506001600255565b61128f82826137ed565b60008281526001602052604090206112a79082613104565b505050565b6112b9600061057a6109a3565b6113055760405162461bcd60e51b815260206004820152601b60248201527f4d61726b65743a206e6f742061206d6f64756c652061646d696e2e00000000006044820152606401610a64565b6007805460ff19168215159081179091556040519081527f56668abce4c06e28f52176150c07856e31ee073b9b62df62a5afbf1a22aec24c906020015b60405180910390a150565b611357828261381a565b60008281526001602052604090206112a790826138b2565b6002805414156113c15760405162461bcd60e51b815260206004820152601f60248201527f5265656e7472616e637947756172643a207265656e7472616e742063616c6c006044820152606401610a64565b6002805560006113cf6109a3565b600085815260086020818152604080842081516101a081018352815481526001808301546001600160a01b039081169583019590955260028301548516938201939093526003820154606082015260048201546080820152600582015460a0820152600682015460c0820152600782015490931660e0840152928301546101008301526009830154610120830152600a830154610140830152600b8301549495509293909261016084019160ff169081111561149b57634e487b7160e01b600052602160045260246000fd5b60018111156114ba57634e487b7160e01b600052602160045260246000fd5b8152602001600b820160019054906101000a900460ff1660018111156114f057634e487b7160e01b600052602160045260246000fd5b600181111561150f57634e487b7160e01b600052602160045260246000fd5b815250509050428160a0015111801561152b5750428160800151105b61159d5760405162461bcd60e51b815260206004820152603160248201527f4d61726b65743a2063616e206f6e6c79206d616b65206f666665727320696e2060448201527f6c697374696e67206475726174696f6e2e0000000000000000000000000000006064820152608401610a64565b600181610180015160018111156115c457634e487b7160e01b600052602160045260246000fd5b141561165957828160c001518261010001516115e09190615dce565b11156116545760405162461bcd60e51b815260206004820152602a60248201527f4d61726b65743a206d757374206f66666572206174206c65617374207265736560448201527f7276652070726963652e000000000000000000000000000000000000000000006064820152608401610a64565b6116f4565b6000816101800151600181111561168057634e487b7160e01b600052602160045260246000fd5b14156116f45760008160c00151116116e55760405162461bcd60e51b815260206004820152602260248201527f4d61726b65743a206e6f20746f6b656e73206c697374656420666f722073616c604482015261329760f11b6064820152608401610a64565b6116f4828260e00151856138c7565b60006001826101800151600181111561171d57634e487b7160e01b600052602160045260246000fd5b146117365761173182610160015186613a43565b611749565b6117498261016001518360c00151613a43565b604080516080810182528881526001600160a01b038681166020808401828152848601878152606086018c815260008f815260098552888120868252909452928790208651815591516001830180546001600160a01b0319169190961617909455925160028401555160039092019190915591519293509188907f325ebd560da99b6ec57c8698998d68ddf274d0b921541d5b702974d58ca87992906117f29085908890615c2d565b60405180910390a36001836101800151600181111561182157634e487b7160e01b600052602160045260246000fd5b1415611831576118318382613a88565b505060016002555050505050565b60008281526001602052604081206118579083614017565b9392505050565b6002805414156118b05760405162461bcd60e51b815260206004820152601f60248201527f5265656e7472616e637947756172643a207265656e7472616e742063616c6c006044820152606401610a64565b60028055816118bd6109a3565b6000828152600860205260409020600101546001600160a01b039081169116146119385760405162461bcd60e51b815260206004820152602660248201527f4d61726b65743a2063616c6c6572206973206e6f74206c697374696e6720637260448201526532b0ba37b91760d11b6064820152608401610a64565b60008381526009602081815260408084206001600160a01b03808816865290835281852082516080808201855282548252600180840154851683880152600280850154848801526003948501546060808601919091528d8b526008808a52888c2089516101a081018b5281548152818601548a169b81019b909b52928301548816988a01989098529481015494880194909452600484015491870191909152600583015460a0870152600683015460c0870152600783015490931660e08601529281015461010085015293840154610120840152600a840154610140840152600b8401549194939161016084019160ff90911690811115611a4957634e487b7160e01b600052602160045260246000fd5b6001811115611a6857634e487b7160e01b600052602160045260246000fd5b8152602001600b820160019054906101000a900460ff166001811115611a9e57634e487b7160e01b600052602160045260246000fd5b6001811115611abd57634e487b7160e01b600052602160045260246000fd5b905250905060008161018001516001811115611ae957634e487b7160e01b600052602160045260246000fd5b148015611b195750611b198160200151826040015183606001518560400151856101600151866101800151614023565b611b7e5760405162461bcd60e51b815260206004820152603060248201527f4d61726b65743a206d757374206f776e20616e6420617070726f766520746f2060448201526f3a3930b739b332b9103a37b5b2b7399760811b6064820152608401610a64565b6040828101805160608501805160008085528083528a8152600960209081528682206001600160a01b038c811684529082529690912088518155908801516001820180546001600160a01b0319169190971617909555925160028501555160039093019290925560c083018051839190611bf9908390615ded565b9052506000878152600860208181526040928390208651815590860151600180830180546001600160a01b03199081166001600160a01b0394851617909155948801516002840180548716918416919091179055606088015160038401556080880151600484015560a0880151600584015560c0880151600684015560e0880151600784018054909616921691909117909355610100860151918101919091556101208501516009820155610140850151600a820155610160850151600b82018054879460ff19909116908381811115611ce357634e487b7160e01b600052602160045260246000fd5b0217905550610180820151600b8201805461ff001916610100836001811115611d1c57634e487b7160e01b600052602160045260246000fd5b021790555050506020830151611d3e908790611d388585615dce565b86613290565b611d4e836020015187848661311d565b8683602001516001600160a01b031684604001516001600160a01b03167f13f347bec00b07d4fa8ffa656bbcb29bd18e63fd4621925b71f60ff36c6425c9898688604051611d9e93929190615b7d565b60405180910390a4505060016002555050505050565b600480546040805163a217fddf60e01b815290516001600160a01b03909216926391d1485492849263a217fddf9281810192602092909190829003018186803b158015611e0057600080fd5b505afa158015611e14573d6000803e3d6000fd5b505050506040513d601f19601f82011682018060405250810190611e38919061578b565b611e406109a3565b6040516001600160e01b031960e085901b16815260048101929092526001600160a01b0316602482015260440160206040518083038186803b158015611e8557600080fd5b505afa158015611e99573d6000803e3d6000fd5b505050506040513d601f19601f82011682018060405250810190611ebd9190615757565b611f2f5760405162461bcd60e51b815260206004820152603560248201527f4d61726b65743a206f6e6c7920612070726f746f636f6c2061646d696e20636160448201527f6e2063616c6c20746869732066756e6374696f6e2e00000000000000000000006064820152608401610a64565b6112a7600683836152fc565b60608167ffffffffffffffff811115611f6457634e487b7160e01b600052604160045260246000fd5b604051908082528060200260200182016040528015611f9757816020015b6060815260200190600190039081611f825790505b50905060005b828110156120535761201530858584818110611fc957634e487b7160e01b600052603260045260246000fd5b9050602002810190611fdb9190615cf6565b8080601f01602080910402602001604051908101604052809392919081815260200183838082843760009201919091525061448b92505050565b82828151811061203557634e487b7160e01b600052603260045260246000fd5b6020026020010181905250808061204b90615e82565b915050611f9d565b5092915050565b6006805461206790615e47565b80601f016020809104026020016040519081016040528092919081815260200182805461209390615e47565b80156120e05780601f106120b5576101008083540402835291602001916120e0565b820191906000526020600020905b8154815290600101906020018083116120c357829003601f168201915b505050505081565b876120f16109a3565b6000828152600860205260409020600101546001600160a01b0390811691161461216c5760405162461bcd60e51b815260206004820152602660248201527f4d61726b65743a2063616c6c6572206973206e6f74206c697374696e6720637260448201526532b0ba37b91760d11b6064820152608401610a64565b600089815260086020818152604080842081516101a081018352815481526001808301546001600160a01b039081169583019590955260028301548516938201939093526003820154606082015260048201546080820152600582015460a0820152600682015460c0820152600782015490931660e0840152928301546101008301526009830154610120830152600a830154610140830152600b83015491929161016084019160ff9091169081111561223657634e487b7160e01b600052602160045260246000fd5b600181111561225557634e487b7160e01b600052602160045260246000fd5b8152602001600b820160019054906101000a900460ff16600181111561228b57634e487b7160e01b600052602160045260246000fd5b60018111156122aa57634e487b7160e01b600052602160045260246000fd5b81525050905060006122c18261016001518b613a43565b9050600182610180015160018111156122ea57634e487b7160e01b600052602160045260246000fd5b141561237a57428260800151106123695760405162461bcd60e51b815260206004820152602860248201527f4d61726b65743a2063616e6e6f7420656469742061756374696f6e206166746560448201527f722073746172742e0000000000000000000000000000000000000000000000006064820152608401610a64565b610100820189905261012082018890525b898260c0015114612416576123a982602001518360400151846060015184866101600151876101800151614023565b61240e5760405162461bcd60e51b815260206004820152603060248201527f4d61726b65743a206d757374206f776e20616e6420617070726f766520746f2060448201526f3a3930b739b332b9103a37b5b2b7399760811b6064820152608401610a64565b60c082018190525b6001600160a01b03861660e0830152610140820187905284156124425761243d8542615d96565b612448565b81608001515b608083015283156124625761245d8442615d96565b612468565b8160a001515b60a0830190815260008c8152600860208181526040928390208651815590860151600180830180546001600160a01b03199081166001600160a01b039485161790915594880151600284018054871691841691909117905560608801516003840155608088015160048401559451600583015560c0870151600683015560e0870151600783018054909516911617909255610100850151908201556101208401516009820155610140840151600a820155610160840151600b82018054869460ff1990911690838181111561254d57634e487b7160e01b600052602160045260246000fd5b0217905550610180820151600b8201805461ff00191661010083600181111561258657634e487b7160e01b600052602160045260246000fd5b02179055509050508a82602001516001600160a01b03167f9897b5e6dd37a61b6f078227f64ef9c4d6744428f9ab322e9d3160c1a3960464846040516125cc9190615c1e565b60405180910390a35050505050505050505050565b60008181526001602052604081206109fe906144b0565b60075460ff16158061263157506126317ff94103142c1baabe9ac2b5d1487bf783de9e69cfeea9a72f5c9c94afd7877b8c61057a6109a3565b6126a35760405162461bcd60e51b815260206004820152602960248201527f4d61726b65743a2063616c6c657220646f6573206e6f742068617665204c495360448201527f5445525f524f4c452e00000000000000000000000000000000000000000000006064820152608401610a64565b60006126ad6144ba565b905060006126b96109a3565b905060006126ca84600001516144d8565b9050600084608001511180156126fa57506126fa8285600001518660200151876080015185896101200151614023565b61275f5760405162461bcd60e51b815260206004820152603060248201527f4d61726b65743a206d757374206f776e20616e6420617070726f766520746f2060448201526f3a3930b739b332b9103a37b5b2b7399760811b6064820152608401610a64565b6000604051806101a00160405280858152602001846001600160a01b0316815260200186600001516001600160a01b03168152602001866020015181526020018660400151426127af9190615d96565b815260200186606001516000146127d45760608701516127cf9042615d96565b6127d8565b6000195b81526020016127eb848860800151613a43565b81526020018660a001516001600160a01b031681526020018660c0015181526020018660e00151815260200186610100015160001461282f57866101000151612835565b86608001515b815260200183600181111561285a57634e487b7160e01b600052602160045260246000fd5b8152602001866101200151600181111561288457634e487b7160e01b600052602160045260246000fd5b90526000858152600860208181526040928390208451815590840151600180830180546001600160a01b03199081166001600160a01b0394851617909155948601516002840180548716918416919091179055606086015160038401556080860151600484015560a0860151600584015560c0860151600684015560e0860151600784018054909616921691909117909355610100840151918101919091556101208301516009820155610140830151600a820155610160830151600b82018054949550859492939192909160ff1990911690838181111561297657634e487b7160e01b600052602160045260246000fd5b0217905550610180820151600b8201805461ff0019166101008360018111156129af57634e487b7160e01b600052602160045260246000fd5b021790555090505083836001600160a01b031686600001516001600160a01b03167fbd4ad658f54c65cfbfb4961c722cac4e1bc357eaabbd6ad51273e752a4481916846040516129ff9190615c1e565b60405180910390a45050505050565b6113578282614664565b600280541415612a6a5760405162461bcd60e51b815260206004820152601f60248201527f5265656e7472616e637947756172643a207265656e7472616e742063616c6c006044820152606401610a64565b6002808055600083815260086020818152604080842081516101a081018352815481526001808301546001600160a01b0390811695830195909552968201548416928101929092526003810154606083015260048101546080830152600581015460a0830152600681015460c0830152600781015490921660e0820152918101546101008301526009810154610120830152600a810154610140830152600b81015492939192909161016084019160ff1690811115612b3957634e487b7160e01b600052602160045260246000fd5b6001811115612b5857634e487b7160e01b600052602160045260246000fd5b8152602001600b820160019054906101000a900460ff166001811115612b8e57634e487b7160e01b600052602160045260246000fd5b6001811115612bad57634e487b7160e01b600052602160045260246000fd5b90525090506000612bbc6109a3565b9050612bc982828561468c565b828260c001818151612bdb9190615ded565b9052506000848152600860208181526040928390208551815590850151600180830180546001600160a01b03199081166001600160a01b0394851617909155948701516002840180548716918416919091179055606087015160038401556080870151600484015560a0870151600584015560c0870151600684015560e0870151600784018054909616921691909117909355610100850151918101919091556101208401516009820155610140840151600a820155610160840151600b82018054869460ff19909116908381811115612cc557634e487b7160e01b600052602160045260246000fd5b0217905550610180820151600b8201805461ff001916610100836001811115612cfe57634e487b7160e01b600052602160045260246000fd5b021790555050506000848152600b602090815260408083206001600160a01b038516845290915281208054859290612d37908490615d96565b909155505061012082015115612d6757612d6781836020015185856101200151612d619190615dce565b85613290565b612d77826020015182858561311d565b816000015182602001516001600160a01b031683604001516001600160a01b03167f13f347bec00b07d4fa8ffa656bbcb29bd18e63fd4621925b71f60ff36c6425c9848787604051612dcb93929190615b7d565b60405180910390a4505060016002555050565b612deb600061057a6109a3565b612e375760405162461bcd60e51b815260206004820152601b60248201527f4d61726b65743a206e6f742061206d6f64756c652061646d696e2e00000000006044820152606401610a64565b6127108110612e885760405162461bcd60e51b815260206004820152601460248201527f4d61726b65743a20696e76616c6964204250532e0000000000000000000000006044820152606401610a64565b6007805468ffffffffffffffff00191661010067ffffffffffffffff8416908102919091179091556040519081527f1923ecef8dbc1cebea2768819f7df282b72fb6d62bf99da204590b9d5cac7a7b90602001611342565b606060068054612eef90615e47565b80601f0160208091040260200160405190810160405280929190818152602001828054612f1b90615e47565b8015612f685780601f10612f3d57610100808354040283529160200191612f68565b820191906000526020600020905b815481529060010190602001808311612f4b57829003601f168201915b5050505050905090565b612f7f600061057a6109a3565b612fcb5760405162461bcd60e51b815260206004820152601b60248201527f4d61726b65743a206e6f742061206d6f64756c652061646d696e2e00000000006044820152606401610a64565b612710811061301c5760405162461bcd60e51b815260206004820152601460248201527f4d61726b65743a20696e76616c6964204250532e0000000000000000000000006044820152606401610a64565b6007805467ffffffffffffffff838116600160881b027fffffffffffffff0000000000000000ffffffffffffffffffffffffffffffffff918616690100000000000000000002919091167fffffffffffffff00000000000000000000000000000000ffffffffffffffffff9092169190911717905560408051838152602081018390527f441ed6470e96704c3f8c9e70c209107078aab3f17311385e886081b91aa75088910160405180910390a15050565b6003546000906001600160a01b03163314156130f1575060131936013560601c90565b503390565b6131008282614894565b5050565b6000611857836001600160a01b038416614933565b3390565b6000816101600151600181111561314457634e487b7160e01b600052602160045260246000fd5b14156131d95760408082015160608301519151637921219560e11b81526001600160a01b038781166004830152868116602483015260448201939093526064810185905260a06084820152600060a482015291169063f242432a9060c401600060405180830381600087803b1580156131bc57600080fd5b505af11580156131d0573d6000803e3d6000fd5b5050505061328a565b6001816101600151600181111561320057634e487b7160e01b600052602160045260246000fd5b141561328a5760408082015160608301519151635c46a7ef60e11b81526001600160a01b03878116600483015286811660248301526044820193909352608060648201526000608482015291169063b88d4fde9060a401600060405180830381600087803b15801561327157600080fd5b505af1158015613285573d6000803e3d6000fd5b505050505b50505050565b60006001600160a01b03851630141561332e5760e082015160405163095ea7b360e01b81526001600160a01b038781166004830152602482018690529091169063095ea7b390604401602060405180830381600087803b1580156132f357600080fd5b505af1158015613307573d6000803e3d6000fd5b505050506040513d601f19601f8201168201806040525081019061332b9190615757565b90505b6007546000906127109061335190610100900467ffffffffffffffff1686615dce565b61335b9190615dae565b60e08401516004805460405163f2aab4b360e01b815230928101929092529293506001600160a01b03918216926323b872dd928a9291169063f2aab4b39060240160206040518083038186803b1580156133b457600080fd5b505afa1580156133c8573d6000803e3d6000fd5b505050506040513d601f19601f820116820180604052508101906133ec9190615500565b6040516001600160e01b031960e085901b1681526001600160a01b0392831660048201529116602482015260448101849052606401602060405180830381600087803b15801561343b57600080fd5b505af115801561344f573d6000803e3d6000fd5b505050506040513d601f19601f820116820180604052508101906134739190615757565b915060006134818286615ded565b60408086015190516301ffc9a760e01b815263152a902d60e11b60048201529192506001600160a01b0316906301ffc9a79060240160206040518083038186803b1580156134ce57600080fd5b505afa1580156134e2573d6000803e3d6000fd5b505050506040513d601f19601f820116820180604052508101906135069190615757565b156136df5760008085604001516001600160a01b0316632a55205a8760600151896040518363ffffffff1660e01b815260040161354d929190918252602082015260400190565b604080518083038186803b15801561356457600080fd5b505afa158015613578573d6000803e3d6000fd5b505050506040513d601f19601f8201168201806040525081019061359c919061569e565b90925090506001600160a01b038216158015906135b95750600081115b156136dc57866135c98583615d96565b111561363d5760405162461bcd60e51b815260206004820152602b60248201527f4d61726b65743a20546f74616c206d61726b657420666565732065786365656460448201527f207468652070726963652e0000000000000000000000000000000000000000006064820152608401610a64565b6136478184615ded565b60e08701516040516323b872dd60e01b81526001600160a01b038c811660048301528581166024830152604482018590529295509116906323b872dd90606401602060405180830381600087803b1580156136a157600080fd5b505af11580156136b5573d6000803e3d6000fd5b505050506040513d601f19601f820116820180604052508101906136d99190615757565b94505b50505b60e08401516040516323b872dd60e01b81526001600160a01b038981166004830152888116602483015260448201849052909116906323b872dd90606401602060405180830381600087803b15801561373757600080fd5b505af115801561374b573d6000803e3d6000fd5b505050506040513d601f19601f8201168201806040525081019061376f9190615757565b9250826137e45760405162461bcd60e51b815260206004820152602660248201527f4d61726b65743a206661696c656420746f207061796f7574207374616b65686f60448201527f6c646572732e00000000000000000000000000000000000000000000000000006064820152608401610a64565b50505050505050565b6000828152602081905260409020600101546138108161380b6109a3565b614982565b6112a78383614894565b6138226109a3565b6001600160a01b0316816001600160a01b0316146138a85760405162461bcd60e51b815260206004820152602f60248201527f416363657373436f6e74726f6c3a2063616e206f6e6c792072656e6f756e636560448201527f20726f6c657320666f722073656c6600000000000000000000000000000000006064820152608401610a64565b6131008282614a00565b6000611857836001600160a01b038416614a9d565b6040516370a0823160e01b81526001600160a01b0384811660048301528291908416906370a082319060240160206040518083038186803b15801561390b57600080fd5b505afa15801561391f573d6000803e3d6000fd5b505050506040513d601f19601f82011682018060405250810190613943919061578b565b101580156139d15750604051636eb1769f60e11b81526001600160a01b03848116600483015230602483015282919084169063dd62ed3e9060440160206040518083038186803b15801561399657600080fd5b505afa1580156139aa573d6000803e3d6000fd5b505050506040513d601f19601f820116820180604052508101906139ce919061578b565b10155b6112a75760405162461bcd60e51b815260206004820152603960248201527f4d61726b65743a206d757374206f776e20616e6420617070726f7665204d617260448201527f6b657420746f207472616e736665722063757272656e63792e000000000000006064820152608401610a64565b600081613a52575060006109fe565b6001836001811115613a7457634e487b7160e01b600052602160045260246000fd5b14613a7f5781611857565b50600192915050565b81516000908152600a602090815260409182902082516080810184528154815260018201546001600160a01b0316928101929092526002810154928201929092526003909101546060808301829052830151613ae49190614bba565b156112a7576020808201805160608085018051948701516001600160a01b031690935285015190915261012085015190919060009015801590613b3f57508560c00151866101200151613b379190615dce565b856060015110155b90508015613d8757428660a0018181525050600084604001818152505083600a6000886000015181526020019081526020016000206000820151816000015560208201518160010160006101000a8154816001600160a01b0302191690836001600160a01b0316021790555060408201518160020155606082015181600301559050508560086000886000015181526020019081526020016000206000820151816000015560208201518160010160006101000a8154816001600160a01b0302191690836001600160a01b0316021790555060408201518160020160006101000a8154816001600160a01b0302191690836001600160a01b03160217905550606082015181600301556080820151816004015560a0820151816005015560c0820151816006015560e08201518160070160006101000a8154816001600160a01b0302191690836001600160a01b031602179055506101008201518160080155610120820151816009015561014082015181600a015561016082015181600b0160006101000a81548160ff02191690836001811115613ced57634e487b7160e01b600052602160045260246000fd5b0217905550610180820151600b8201805461ff001916610100836001811115613d2657634e487b7160e01b600052602160045260246000fd5b021790555050506020808601518751918801516040516001600160a01b03831693927f42bdf1b5daec205081fa6758882be4b9c6633d2b16ea489d1c36cddfd46d7cab92613d7a929091908b908d90615b20565b60405180910390a3613fb0565b85516000908152600a602090815260409182902087518155908701516001820180546001600160a01b0319166001600160a01b03909216919091179055908601516002820155606086015160039091015560075460a0870151690100000000000000000090910467ffffffffffffffff1690613e04904290615ded565b11613f635760075460a087018051690100000000000000000090920467ffffffffffffffff1691613e36908390615d96565b90525085516000908152600860208181526040928390208951815590890151600180830180546001600160a01b03199081166001600160a01b0394851617909155948b0151600284018054871691841691909117905560608b0151600384015560808b0151600484015560a08b0151600584015560c08b0151600684015560e08b0151600784018054909616921691909117909355610100890151918101919091556101208801516009820155610140880151600a820155610160880151600b820180548a9460ff19909116908381811115613f2257634e487b7160e01b600052602160045260246000fd5b0217905550610180820151600b8201805461ff001916610100836001811115613f5b57634e487b7160e01b600052602160045260246000fd5b021790555050505b84602001516001600160a01b031686600001517f4aebf4dd6dc586d8e61e80b74856628c80f4e50926edf340a66ce6b25a760b438789604051613fa7929190615c2d565b60405180910390a35b6001600160a01b03831615801590613fc85750600082115b15613fdd57613fdd8660e00151308585614c0d565b613ff58660e001518660200151308860600151614c0d565b801561400f5761400f30866020015187604001518961311d565b505050505050565b60006118578383614fb1565b6000308184600181111561404757634e487b7160e01b600052602160045260246000fd5b141561421057604051627eeac760e11b81526001600160a01b0389811660048301526024820188905286919089169062fdd58e9060440160206040518083038186803b15801561409657600080fd5b505afa1580156140aa573d6000803e3d6000fd5b505050506040513d601f19601f820116820180604052508101906140ce919061578b565b10158015614158575060405163e985e9c560e01b81526001600160a01b038981166004830152828116602483015288169063e985e9c59060440160206040518083038186803b15801561412057600080fd5b505afa158015614134573d6000803e3d6000fd5b505050506040513d601f19601f820116820180604052508101906141589190615757565b91508180156141865750600183600181111561418457634e487b7160e01b600052602160045260246000fd5b145b1561420b57604051637921219560e11b81526001600160a01b0389811660048301528281166024830152604482018890526064820187905260a06084830152600060a483015288169063f242432a9060c401600060405180830381600087803b1580156141f257600080fd5b505af1158015614206573d6000803e3d6000fd5b505050505b614480565b600184600181111561423257634e487b7160e01b600052602160045260246000fd5b1415614480576040516331a9108f60e11b8152600481018790526001600160a01b03808a169190891690636352211e9060240160206040518083038186803b15801561427d57600080fd5b505afa158015614291573d6000803e3d6000fd5b505050506040513d601f19601f820116820180604052508101906142b59190615500565b6001600160a01b03161480156143d4575060405163020604bf60e21b8152600481018790526001600160a01b03808316919089169063081812fc9060240160206040518083038186803b15801561430b57600080fd5b505afa15801561431f573d6000803e3d6000fd5b505050506040513d601f19601f820116820180604052508101906143439190615500565b6001600160a01b031614806143d4575060405163e985e9c560e01b81526001600160a01b038981166004830152828116602483015288169063e985e9c59060440160206040518083038186803b15801561439c57600080fd5b505afa1580156143b0573d6000803e3d6000fd5b505050506040513d601f19601f820116820180604052508101906143d49190615757565b91508180156144025750600183600181111561440057634e487b7160e01b600052602160045260246000fd5b145b1561448057604051635c46a7ef60e11b81526001600160a01b038981166004830152828116602483015260448201889052608060648301526000608483015288169063b88d4fde9060a401600060405180830381600087803b15801561446757600080fd5b505af115801561447b573d6000803e3d6000fd5b505050505b509695505050505050565b60606118578383604051806060016040528060278152602001615f0e60279139614fe9565b60006109fe825490565b600580549060019060006144ce8385615d96565b9250508190555090565b6040516301ffc9a760e01b8152636cdb3d1360e11b60048201526000906001600160a01b038316906301ffc9a79060240160206040518083038186803b15801561452157600080fd5b505afa158015614535573d6000803e3d6000fd5b505050506040513d601f19601f820116820180604052508101906145599190615757565b1561456657506000919050565b6040516301ffc9a760e01b81526380ac58cd60e01b60048201526001600160a01b038316906301ffc9a79060240160206040518083038186803b1580156145ac57600080fd5b505afa1580156145c0573d6000803e3d6000fd5b505050506040513d601f19601f820116820180604052508101906145e49190615757565b156145f157506001919050565b60405162461bcd60e51b815260206004820152602b60248201527f4d61726b65743a206d75737420696d706c656d656e742045524320313135352060448201527f6f7220455243203732312e0000000000000000000000000000000000000000006064820152608401610a64565b919050565b6000828152602081905260409020600101546146828161380b6109a3565b6112a78383614a00565b6146ab828460e00151856101200151846146a69190615dce565b6138c7565b6146d38360200151846040015185606001518660c00151876101600151886101800151614023565b6147455760405162461bcd60e51b815260206004820152602c60248201527f4d61726b65743a2063616e6e6f742062757920746f6b656e732066726f6d207460448201527f686973206c697374696e672e00000000000000000000000000000000000000006064820152608401610a64565b60008111801561475957508260c001518111155b8015614798575061014083015183516000908152600b602090815260408083206001600160a01b03871684529091529020546147959083615d96565b11155b61480a5760405162461bcd60e51b815260206004820152603160248201527f4d61726b65743a206d7573742062757920616e20617070726f7072696174652060448201527f616d6f756e74206f6620746f6b656e732e0000000000000000000000000000006064820152608401610a64565b8260a001514211158015614822575082608001514210155b6112a75760405162461bcd60e51b815260206004820152603260248201527f4d61726b65743a207468652073616c652068617320656974686572206e6f742060448201527f73746172746564206f7220636c6f7365642e00000000000000000000000000006064820152608401610a64565b6000828152602081815260408083206001600160a01b038516845290915290205460ff16613100576000828152602081815260408083206001600160a01b03851684529091529020805460ff191660011790556148ef6109a3565b6001600160a01b0316816001600160a01b0316837f2f8788117e7eff1d82e926ec794901d17c78024a50270940304540a733656f0d60405160405180910390a45050565b600081815260018301602052604081205461497a575081546001818101845560008481526020808220909301849055845484825282860190935260409020919091556109fe565b5060006109fe565b6000828152602081815260408083206001600160a01b038516845290915290205460ff16613100576149be816001600160a01b031660146150d4565b6149c98360206150d4565b6040516020016149da929190615a9f565b60408051601f198184030181529082905262461bcd60e51b8252610a6491600401615c0b565b6000828152602081815260408083206001600160a01b038516845290915290205460ff1615613100576000828152602081815260408083206001600160a01b03851684529091529020805460ff19169055614a596109a3565b6001600160a01b0316816001600160a01b0316837ff6391f5c32d9c69d2a47ea670b442974b53935d1edc7fd64eb21e047a839171b60405160405180910390a45050565b60008181526001830160205260408120548015614bb0576000614ac1600183615ded565b8554909150600090614ad590600190615ded565b9050818114614b56576000866000018281548110614b0357634e487b7160e01b600052603260045260246000fd5b9060005260206000200154905080876000018481548110614b3457634e487b7160e01b600052603260045260246000fd5b6000918252602080832090910192909255918252600188019052604090208390555b8554869080614b7557634e487b7160e01b600052603160045260246000fd5b6001900381819060005260206000200160009055905585600101600086815260200190815260200160002060009055600193505050506109fe565b60009150506109fe565b6000821580611857575082821180156118575750600754600160881b900467ffffffffffffffff1683612710614bf08286615ded565b614bfa9190615dce565b614c049190615dae565b10159392505050565b6001600160a01b0383811630149060009081908190881673eeeeeeeeeeeeeeeeeeeeeeeeeeeeeeeeeeeeeeee1415614ca7576040516001600160a01b03871680319450908690600081818185875af1925050503d8060008114614c8c576040519150601f19603f3d011682016040523d82523d6000602084013e614c91565b606091505b50506001600160a01b0387163192509050614eba565b878415614d325760405163095ea7b360e01b81526001600160a01b0389811660048301526024820188905282169063095ea7b390604401602060405180830381600087803b158015614cf857600080fd5b505af1158015614d0c573d6000803e3d6000fd5b505050506040513d601f19601f82011682018060405250810190614d309190615757565b505b6040516370a0823160e01b81526001600160a01b0388811660048301528a16906370a082319060240160206040518083038186803b158015614d7357600080fd5b505afa158015614d87573d6000803e3d6000fd5b505050506040513d601f19601f82011682018060405250810190614dab919061578b565b6040516323b872dd60e01b81526001600160a01b038a81166004830152898116602483015260448201899052919550908216906323b872dd90606401602060405180830381600087803b158015614e0157600080fd5b505af1158015614e15573d6000803e3d6000fd5b505050506040513d601f19601f82011682018060405250810190614e399190615757565b6040516370a0823160e01b81526001600160a01b038981166004830152919350908a16906370a082319060240160206040518083038186803b158015614e7e57600080fd5b505afa158015614e92573d6000803e3d6000fd5b505050506040513d601f19601f82011682018060405250810190614eb6919061578b565b9250505b6001600160a01b03861630148015614eee57506001600160a01b03881673eeeeeeeeeeeeeeeeeeeeeeeeeeeeeeeeeeeeeeee145b15614f5057808015614eff57503485145b614f4b5760405162461bcd60e51b815260206004820181905260248201527f4d61726b65743a206661696c656420746f2073656e642063757272656e63792e6044820152606401610a64565b613285565b808015614f655750614f628584615d96565b82145b6132855760405162461bcd60e51b815260206004820181905260248201527f4d61726b65743a206661696c656420746f2073656e642063757272656e63792e6044820152606401610a64565b6000826000018281548110614fd657634e487b7160e01b600052603260045260246000fd5b9060005260206000200154905092915050565b6060833b61505f5760405162461bcd60e51b815260206004820152602660248201527f416464726573733a2064656c65676174652063616c6c20746f206e6f6e2d636f60448201527f6e747261637400000000000000000000000000000000000000000000000000006064820152608401610a64565b600080856001600160a01b03168560405161507a9190615a83565b600060405180830381855af49150503d80600081146150b5576040519150601f19603f3d011682016040523d82523d6000602084013e6150ba565b606091505b50915091506150ca8282866152c3565b9695505050505050565b606060006150e3836002615dce565b6150ee906002615d96565b67ffffffffffffffff81111561511457634e487b7160e01b600052604160045260246000fd5b6040519080825280601f01601f19166020018201604052801561513e576020820181803683370190505b509050600360fc1b8160008151811061516757634e487b7160e01b600052603260045260246000fd5b60200101906001600160f81b031916908160001a905350600f60fb1b816001815181106151a457634e487b7160e01b600052603260045260246000fd5b60200101906001600160f81b031916908160001a90535060006151c8846002615dce565b6151d3906001615d96565b90505b6001811115615274577f303132333435363738396162636465660000000000000000000000000000000085600f166010811061522257634e487b7160e01b600052603260045260246000fd5b1a60f81b82828151811061524657634e487b7160e01b600052603260045260246000fd5b60200101906001600160f81b031916908160001a90535060049490941c9361526d81615e30565b90506151d6565b5083156118575760405162461bcd60e51b815260206004820181905260248201527f537472696e67733a20686578206c656e67746820696e73756666696369656e746044820152606401610a64565b606083156152d2575081611857565b8251156152e25782518084602001fd5b8160405162461bcd60e51b8152600401610a649190615c0b565b82805461530890615e47565b90600052602060002090601f01602090048101928261532a5760008555615370565b82601f106153435782800160ff19823516178555615370565b82800160010185558215615370579182015b82811115615370578235825591602001919060010190615355565b5061537c929150615380565b5090565b5b8082111561537c5760008155600101615381565b803561465f81615eea565b600082601f8301126153b0578081fd5b8135602067ffffffffffffffff8211156153cc576153cc615eb3565b8160051b6153db828201615d65565b8381528281019086840183880185018910156153f5578687fd5b8693505b858410156154175780358352600193909301929184019184016153f9565b50979650505050505050565b60008083601f840112615434578182fd5b50813567ffffffffffffffff81111561544b578182fd5b60208301915083602082850101111561546357600080fd5b9250929050565b600082601f83011261547a578081fd5b813567ffffffffffffffff81111561549457615494615eb3565b6154a7601f8201601f1916602001615d65565b8181528460208386010111156154bb578283fd5b816020850160208301379081016020019190915292915050565b80356002811061465f57600080fd5b6000602082840312156154f5578081fd5b813561185781615eea565b600060208284031215615511578081fd5b815161185781615eea565b600080600080600060a08688031215615533578081fd5b853561553e81615eea565b9450602086013561554e81615eea565b9350604086013567ffffffffffffffff8082111561556a578283fd5b61557689838a016153a0565b9450606088013591508082111561558b578283fd5b61559789838a016153a0565b935060808801359150808211156155ac578283fd5b506155b98882890161546a565b9150509295509295909350565b6000806000806000608086880312156155dd578081fd5b85356155e881615eea565b945060208601356155f881615eea565b935060408601359250606086013567ffffffffffffffff81111561561a578182fd5b61562688828901615423565b969995985093965092949392505050565b600080600080600060a0868803121561564e578081fd5b853561565981615eea565b9450602086013561566981615eea565b93506040860135925060608601359150608086013567ffffffffffffffff811115615692578182fd5b6155b98882890161546a565b600080604083850312156156b0578182fd5b82516156bb81615eea565b6020939093015192949293505050565b600080602083850312156156dd578182fd5b823567ffffffffffffffff808211156156f4578384fd5b818501915085601f830112615707578384fd5b813581811115615715578485fd5b8660208260051b8501011115615729578485fd5b60209290920196919550909350505050565b60006020828403121561574c578081fd5b813561185781615eff565b600060208284031215615768578081fd5b815161185781615eff565b600060208284031215615784578081fd5b5035919050565b60006020828403121561579c578081fd5b5051919050565b600080604083850312156157b5578182fd5b8235915060208301356157c781615eea565b809150509250929050565b600080604083850312156157e4578182fd5b50508035926020909101359150565b600060208284031215615804578081fd5b81356001600160e01b031981168114611857578182fd5b6000806020838503121561582d578182fd5b823567ffffffffffffffff811115615843578283fd5b61584f85828601615423565b90969095509350505050565b6000610140828403121561586d578081fd5b615875615d3b565b61587e83615395565b8152602083013560208201526040830135604082015260608301356060820152608083013560808201526158b460a08401615395565b60a082015260c083013560c082015260e083013560e08201526101008084013581830152506101206158e78185016154d5565b908201529392505050565b600080600060608486031215615906578081fd5b505081359360208301359350604090920135919050565b600080600080600080600080610100898b031215615939578586fd5b883597506020890135965060408901359550606089013594506080890135935060a089013561596781615eea565b979a969950949793969295929450505060c08201359160e0013590565b6000815180845261599c816020860160208601615e04565b601f01601f19169290920160200192915050565b6159b981615ec9565b9052565b8051825260208101516159db60208401826001600160a01b03169052565b5060408101516159f660408401826001600160a01b03169052565b50606081015160608301526080810151608083015260a081015160a083015260c081015160c083015260e0810151615a3960e08401826001600160a01b03169052565b5061010081810151908301526101208082015190830152610140808201519083015261016080820151615a6e828501826159b0565b50506101808082015161328a828501826159b0565b60008251615a95818460208701615e04565b9190910192915050565b7f416363657373436f6e74726f6c3a206163636f756e7420000000000000000000815260008351615ad7816017850160208801615e04565b7f206973206d697373696e6720726f6c65200000000000000000000000000000006017918401918201528351615b14816028840160208801615e04565b01602801949350505050565b6001600160a01b038581168252841660208201526102608101615b706040830185805182526001600160a01b03602082015116602083015260408101516040830152606081015160608301525050565b610a0d60c08301846159bd565b6001600160a01b0384168152602081018390526101e08101615ba260408301846159bd565b949350505050565b6000602080830181845280855180835260408601915060408160051b8701019250838701855b82811015615bfe57603f19888603018452615bec858351615984565b94509285019290850190600101615bd0565b5092979650505050505050565b6020815260006118576020830184615984565b6101a081016109fe82846159bd565b825181526020808401516001600160a01b0316908201526040808401519082015260608084015190820152610220810161185760808301846159bd565b60006101a0820190508e82526001600160a01b03808f166020840152808e1660408401528c60608401528b60808401528a60a08401528960c084015280891660e084015250866101008301528561012083015284610140830152615ccd84615ec9565b83610160830152615cdd83615ec9565b826101808301529e9d5050505050505050505050505050565b6000808335601e19843603018112615d0c578283fd5b83018035915067ffffffffffffffff821115615d26578283fd5b60200191503681900382131561546357600080fd5b604051610140810167ffffffffffffffff81118282101715615d5f57615d5f615eb3565b60405290565b604051601f8201601f1916810167ffffffffffffffff81118282101715615d8e57615d8e615eb3565b604052919050565b60008219821115615da957615da9615e9d565b500190565b600082615dc957634e487b7160e01b81526012600452602481fd5b500490565b6000816000190483118215151615615de857615de8615e9d565b500290565b600082821015615dff57615dff615e9d565b500390565b60005b83811015615e1f578181015183820152602001615e07565b8381111561328a5750506000910152565b600081615e3f57615e3f615e9d565b506000190190565b600181811c90821680615e5b57607f821691505b60208210811415615e7c57634e487b7160e01b600052602260045260246000fd5b50919050565b6000600019821415615e9657615e96615e9d565b5060010190565b634e487b7160e01b600052601160045260246000fd5b634e487b7160e01b600052604160045260246000fd5b60028110615ee757634e487b7160e01b600052602160045260246000fd5b50565b6001600160a01b0381168114615ee757600080fd5b8015158114615ee757600080fdfe416464726573733a206c6f772d6c6576656c2064656c65676174652063616c6c206661696c6564a164736f6c6343000804000a",
  "linkReferences": {},
  "deployedLinkReferences": {}
}