{
  "_format": "hh-sol-artifact-1",
  "contractName": "AccessNFT_PL",
  "sourceName": "contracts/permissionless/AccessNFT_PL.sol",
  "abi": [
    {
      "inputs": [
        {
          "internalType": "address payable",
          "name": "_controlCenter",
          "type": "address"
        },
        {
          "internalType": "address",
          "name": "_trustedForwarder",
          "type": "address"
        },
        {
          "internalType": "string",
          "name": "_uri",
          "type": "string"
        }
      ],
      "stateMutability": "nonpayable",
      "type": "constructor"
    },
    {
      "anonymous": false,
      "inputs": [
        {
          "indexed": true,
          "internalType": "address",
          "name": "redeemer",
          "type": "address"
        },
        {
          "indexed": true,
          "internalType": "uint256",
          "name": "nftTokenId",
          "type": "uint256"
        },
        {
          "indexed": true,
          "internalType": "uint256",
          "name": "accessNftId",
          "type": "uint256"
        },
        {
          "indexed": false,
          "internalType": "uint256",
          "name": "amount",
          "type": "uint256"
        }
      ],
      "name": "AccessNFTRedeemed",
      "type": "event"
    },
    {
      "anonymous": false,
      "inputs": [
        {
          "indexed": true,
          "internalType": "address",
          "name": "creator",
          "type": "address"
        },
        {
          "indexed": false,
          "internalType": "uint256[]",
          "name": "nftIds",
          "type": "uint256[]"
        },
        {
          "indexed": false,
          "internalType": "string[]",
          "name": "nftURIs",
          "type": "string[]"
        },
        {
          "indexed": false,
          "internalType": "uint256[]",
          "name": "acessNftIds",
          "type": "uint256[]"
        },
        {
          "indexed": false,
          "internalType": "string[]",
          "name": "accessNftURIs",
          "type": "string[]"
        },
        {
          "indexed": false,
          "internalType": "uint256[]",
          "name": "nftSupplies",
          "type": "uint256[]"
        }
      ],
      "name": "AccessNFTsCreated",
      "type": "event"
    },
    {
      "anonymous": false,
      "inputs": [
        {
          "indexed": false,
          "internalType": "bool",
          "name": "isTransferable",
          "type": "bool"
        }
      ],
      "name": "AccessTransferabilityUpdated",
      "type": "event"
    },
    {
      "anonymous": false,
      "inputs": [
        {
          "indexed": true,
          "internalType": "address",
          "name": "account",
          "type": "address"
        },
        {
          "indexed": true,
          "internalType": "address",
          "name": "operator",
          "type": "address"
        },
        {
          "indexed": false,
          "internalType": "bool",
          "name": "approved",
          "type": "bool"
        }
      ],
      "name": "ApprovalForAll",
      "type": "event"
    },
    {
      "anonymous": false,
      "inputs": [
        {
          "indexed": false,
          "internalType": "uint256",
          "name": "accessNftId",
          "type": "uint256"
        },
        {
          "indexed": false,
          "internalType": "address",
          "name": "creator",
          "type": "address"
        },
        {
          "indexed": false,
          "internalType": "uint256",
          "name": "lastTimeToRedeem",
          "type": "uint256"
        }
      ],
      "name": "LastRedeemTimeUpdated",
      "type": "event"
    },
    {
      "anonymous": false,
      "inputs": [
        {
          "indexed": false,
          "internalType": "address",
          "name": "account",
          "type": "address"
        }
      ],
      "name": "Paused",
      "type": "event"
    },
    {
      "anonymous": false,
      "inputs": [
        {
          "indexed": true,
          "internalType": "bytes32",
          "name": "role",
          "type": "bytes32"
        },
        {
          "indexed": true,
          "internalType": "bytes32",
          "name": "previousAdminRole",
          "type": "bytes32"
        },
        {
          "indexed": true,
          "internalType": "bytes32",
          "name": "newAdminRole",
          "type": "bytes32"
        }
      ],
      "name": "RoleAdminChanged",
      "type": "event"
    },
    {
      "anonymous": false,
      "inputs": [
        {
          "indexed": true,
          "internalType": "bytes32",
          "name": "role",
          "type": "bytes32"
        },
        {
          "indexed": true,
          "internalType": "address",
          "name": "account",
          "type": "address"
        },
        {
          "indexed": true,
          "internalType": "address",
          "name": "sender",
          "type": "address"
        }
      ],
      "name": "RoleGranted",
      "type": "event"
    },
    {
      "anonymous": false,
      "inputs": [
        {
          "indexed": true,
          "internalType": "bytes32",
          "name": "role",
          "type": "bytes32"
        },
        {
          "indexed": true,
          "internalType": "address",
          "name": "account",
          "type": "address"
        },
        {
          "indexed": true,
          "internalType": "address",
          "name": "sender",
          "type": "address"
        }
      ],
      "name": "RoleRevoked",
      "type": "event"
    },
    {
      "anonymous": false,
      "inputs": [
        {
          "indexed": false,
          "internalType": "uint256",
          "name": "royaltyBps",
          "type": "uint256"
        }
      ],
      "name": "RoyaltyUpdated",
      "type": "event"
    },
    {
      "anonymous": false,
      "inputs": [
        {
          "indexed": true,
          "internalType": "address",
          "name": "operator",
          "type": "address"
        },
        {
          "indexed": true,
          "internalType": "address",
          "name": "from",
          "type": "address"
        },
        {
          "indexed": true,
          "internalType": "address",
          "name": "to",
          "type": "address"
        },
        {
          "indexed": false,
          "internalType": "uint256[]",
          "name": "ids",
          "type": "uint256[]"
        },
        {
          "indexed": false,
          "internalType": "uint256[]",
          "name": "values",
          "type": "uint256[]"
        }
      ],
      "name": "TransferBatch",
      "type": "event"
    },
    {
      "anonymous": false,
      "inputs": [
        {
          "indexed": true,
          "internalType": "address",
          "name": "operator",
          "type": "address"
        },
        {
          "indexed": true,
          "internalType": "address",
          "name": "from",
          "type": "address"
        },
        {
          "indexed": true,
          "internalType": "address",
          "name": "to",
          "type": "address"
        },
        {
          "indexed": false,
          "internalType": "uint256",
          "name": "id",
          "type": "uint256"
        },
        {
          "indexed": false,
          "internalType": "uint256",
          "name": "value",
          "type": "uint256"
        }
      ],
      "name": "TransferSingle",
      "type": "event"
    },
    {
      "anonymous": false,
      "inputs": [
        {
          "indexed": false,
          "internalType": "string",
          "name": "value",
          "type": "string"
        },
        {
          "indexed": true,
          "internalType": "uint256",
          "name": "id",
          "type": "uint256"
        }
      ],
      "name": "URI",
      "type": "event"
    },
    {
      "anonymous": false,
      "inputs": [
        {
          "indexed": false,
          "internalType": "address",
          "name": "account",
          "type": "address"
        }
      ],
      "name": "Unpaused",
      "type": "event"
    },
    {
      "inputs": [],
      "name": "DEFAULT_ADMIN_ROLE",
      "outputs": [
        {
          "internalType": "bytes32",
          "name": "",
          "type": "bytes32"
        }
      ],
      "stateMutability": "view",
      "type": "function"
    },
    {
      "inputs": [],
      "name": "MINTER_ROLE",
      "outputs": [
        {
          "internalType": "bytes32",
          "name": "",
          "type": "bytes32"
        }
      ],
      "stateMutability": "view",
      "type": "function"
    },
    {
      "inputs": [],
      "name": "PAUSER_ROLE",
      "outputs": [
        {
          "internalType": "bytes32",
          "name": "",
          "type": "bytes32"
        }
      ],
      "stateMutability": "view",
      "type": "function"
    },
    {
      "inputs": [],
      "name": "TRANSFER_ROLE",
      "outputs": [
        {
          "internalType": "bytes32",
          "name": "",
          "type": "bytes32"
        }
      ],
      "stateMutability": "view",
      "type": "function"
    },
    {
      "inputs": [],
      "name": "_contractURI",
      "outputs": [
        {
          "internalType": "string",
          "name": "",
          "type": "string"
        }
      ],
      "stateMutability": "view",
      "type": "function"
    },
    {
      "inputs": [],
      "name": "accessNftIsTransferable",
      "outputs": [
        {
          "internalType": "bool",
          "name": "",
          "type": "bool"
        }
      ],
      "stateMutability": "view",
      "type": "function"
    },
    {
      "inputs": [
        {
          "internalType": "address",
          "name": "account",
          "type": "address"
        },
        {
          "internalType": "uint256",
          "name": "id",
          "type": "uint256"
        }
      ],
      "name": "balanceOf",
      "outputs": [
        {
          "internalType": "uint256",
          "name": "",
          "type": "uint256"
        }
      ],
      "stateMutability": "view",
      "type": "function"
    },
    {
      "inputs": [
        {
          "internalType": "address[]",
          "name": "accounts",
          "type": "address[]"
        },
        {
          "internalType": "uint256[]",
          "name": "ids",
          "type": "uint256[]"
        }
      ],
      "name": "balanceOfBatch",
      "outputs": [
        {
          "internalType": "uint256[]",
          "name": "",
          "type": "uint256[]"
        }
      ],
      "stateMutability": "view",
      "type": "function"
    },
    {
      "inputs": [
        {
          "internalType": "address",
          "name": "account",
          "type": "address"
        },
        {
          "internalType": "uint256",
          "name": "id",
          "type": "uint256"
        },
        {
          "internalType": "uint256",
          "name": "value",
          "type": "uint256"
        }
      ],
      "name": "burn",
      "outputs": [],
      "stateMutability": "nonpayable",
      "type": "function"
    },
    {
      "inputs": [
        {
          "internalType": "address",
          "name": "account",
          "type": "address"
        },
        {
          "internalType": "uint256[]",
          "name": "ids",
          "type": "uint256[]"
        },
        {
          "internalType": "uint256[]",
          "name": "values",
          "type": "uint256[]"
        }
      ],
      "name": "burnBatch",
      "outputs": [],
      "stateMutability": "nonpayable",
      "type": "function"
    },
    {
      "inputs": [],
      "name": "contractURI",
      "outputs": [
        {
          "internalType": "string",
          "name": "",
          "type": "string"
        }
      ],
      "stateMutability": "view",
      "type": "function"
    },
    {
      "inputs": [
        {
          "internalType": "string[]",
          "name": "_nftURIs",
          "type": "string[]"
        },
        {
          "internalType": "string[]",
          "name": "_accessNftURIs",
          "type": "string[]"
        },
        {
          "internalType": "uint256[]",
          "name": "_nftSupplies",
          "type": "uint256[]"
        }
      ],
      "name": "createAccessNfts",
      "outputs": [
        {
          "internalType": "uint256[]",
          "name": "nftIds",
          "type": "uint256[]"
        }
      ],
      "stateMutability": "nonpayable",
      "type": "function"
    },
    {
      "inputs": [
        {
          "internalType": "address",
          "name": "_pack",
          "type": "address"
        },
        {
          "internalType": "string[]",
          "name": "_nftURIs",
          "type": "string[]"
        },
        {
          "internalType": "string[]",
          "name": "_accessNftURIs",
          "type": "string[]"
        },
        {
          "internalType": "uint256[]",
          "name": "_nftSupplies",
          "type": "uint256[]"
        },
        {
          "internalType": "string",
          "name": "_packURI",
          "type": "string"
        },
        {
          "internalType": "uint256",
          "name": "_secondsUntilOpenStart",
          "type": "uint256"
        },
        {
          "internalType": "uint256",
          "name": "_secondsUntilOpenEnd",
          "type": "uint256"
        },
        {
          "internalType": "uint256",
          "name": "_nftsPerOpen",
          "type": "uint256"
        }
      ],
      "name": "createAccessPack",
      "outputs": [],
      "stateMutability": "nonpayable",
      "type": "function"
    },
    {
      "inputs": [
        {
          "internalType": "bytes32",
          "name": "role",
          "type": "bytes32"
        }
      ],
      "name": "getRoleAdmin",
      "outputs": [
        {
          "internalType": "bytes32",
          "name": "",
          "type": "bytes32"
        }
      ],
      "stateMutability": "view",
      "type": "function"
    },
    {
      "inputs": [
        {
          "internalType": "bytes32",
          "name": "role",
          "type": "bytes32"
        },
        {
          "internalType": "uint256",
          "name": "index",
          "type": "uint256"
        }
      ],
      "name": "getRoleMember",
      "outputs": [
        {
          "internalType": "address",
          "name": "",
          "type": "address"
        }
      ],
      "stateMutability": "view",
      "type": "function"
    },
    {
      "inputs": [
        {
          "internalType": "bytes32",
          "name": "role",
          "type": "bytes32"
        }
      ],
      "name": "getRoleMemberCount",
      "outputs": [
        {
          "internalType": "uint256",
          "name": "",
          "type": "uint256"
        }
      ],
      "stateMutability": "view",
      "type": "function"
    },
    {
      "inputs": [
        {
          "internalType": "bytes32",
          "name": "role",
          "type": "bytes32"
        },
        {
          "internalType": "address",
          "name": "account",
          "type": "address"
        }
      ],
      "name": "grantRole",
      "outputs": [],
      "stateMutability": "nonpayable",
      "type": "function"
    },
    {
      "inputs": [
        {
          "internalType": "bytes32",
          "name": "role",
          "type": "bytes32"
        },
        {
          "internalType": "address",
          "name": "account",
          "type": "address"
        }
      ],
      "name": "hasRole",
      "outputs": [
        {
          "internalType": "bool",
          "name": "",
          "type": "bool"
        }
      ],
      "stateMutability": "view",
      "type": "function"
    },
    {
      "inputs": [
        {
          "internalType": "address",
          "name": "account",
          "type": "address"
        },
        {
          "internalType": "address",
          "name": "operator",
          "type": "address"
        }
      ],
      "name": "isApprovedForAll",
      "outputs": [
        {
          "internalType": "bool",
          "name": "",
          "type": "bool"
        }
      ],
      "stateMutability": "view",
      "type": "function"
    },
    {
      "inputs": [
        {
          "internalType": "uint256",
          "name": "_nftId",
          "type": "uint256"
        }
      ],
      "name": "isRedeemed",
      "outputs": [
        {
          "internalType": "bool",
          "name": "",
          "type": "bool"
        }
      ],
      "stateMutability": "view",
      "type": "function"
    },
    {
      "inputs": [],
      "name": "isRestrictedTransfer",
      "outputs": [
        {
          "internalType": "bool",
          "name": "",
          "type": "bool"
        }
      ],
      "stateMutability": "view",
      "type": "function"
    },
    {
      "inputs": [
        {
          "internalType": "address",
          "name": "forwarder",
          "type": "address"
        }
      ],
      "name": "isTrustedForwarder",
      "outputs": [
        {
          "internalType": "bool",
          "name": "",
          "type": "bool"
        }
      ],
      "stateMutability": "view",
      "type": "function"
    },
    {
      "inputs": [
        {
          "internalType": "uint256",
          "name": "",
          "type": "uint256"
        }
      ],
      "name": "lastTimeToRedeem",
      "outputs": [
        {
          "internalType": "uint256",
          "name": "",
          "type": "uint256"
        }
      ],
      "stateMutability": "view",
      "type": "function"
    },
    {
      "inputs": [
        {
          "internalType": "address",
          "name": "",
          "type": "address"
        },
        {
          "internalType": "uint256",
          "name": "",
          "type": "uint256"
        },
        {
          "internalType": "uint256",
          "name": "",
          "type": "uint256"
        },
        {
          "internalType": "bytes",
          "name": "",
          "type": "bytes"
        }
      ],
      "name": "mint",
      "outputs": [],
      "stateMutability": "pure",
      "type": "function"
    },
    {
      "inputs": [
        {
          "internalType": "address",
          "name": "",
          "type": "address"
        },
        {
          "internalType": "uint256[]",
          "name": "",
          "type": "uint256[]"
        },
        {
          "internalType": "uint256[]",
          "name": "",
          "type": "uint256[]"
        },
        {
          "internalType": "bytes",
          "name": "",
          "type": "bytes"
        }
      ],
      "name": "mintBatch",
      "outputs": [],
      "stateMutability": "pure",
      "type": "function"
    },
    {
      "inputs": [],
      "name": "nextTokenId",
      "outputs": [
        {
          "internalType": "uint256",
          "name": "",
          "type": "uint256"
        }
      ],
      "stateMutability": "view",
      "type": "function"
    },
    {
      "inputs": [
        {
          "internalType": "uint256",
          "name": "",
          "type": "uint256"
        }
      ],
      "name": "nftInfo",
      "outputs": [
        {
          "internalType": "address",
          "name": "creator",
          "type": "address"
        },
        {
          "internalType": "string",
          "name": "uri",
          "type": "string"
        },
        {
          "internalType": "uint256",
          "name": "supply",
          "type": "uint256"
        },
        {
          "internalType": "bool",
          "name": "isAccess",
          "type": "bool"
        },
        {
          "internalType": "uint256",
          "name": "accessNftId",
          "type": "uint256"
        },
        {
          "internalType": "enum AccessNFT.UnderlyingType",
          "name": "underlyingType",
          "type": "uint8"
        }
      ],
      "stateMutability": "view",
      "type": "function"
    },
    {
      "inputs": [
        {
          "internalType": "address",
          "name": "",
          "type": "address"
        },
        {
          "internalType": "address",
          "name": "",
          "type": "address"
        },
        {
          "internalType": "uint256[]",
          "name": "",
          "type": "uint256[]"
        },
        {
          "internalType": "uint256[]",
          "name": "",
          "type": "uint256[]"
        },
        {
          "internalType": "bytes",
          "name": "",
          "type": "bytes"
        }
      ],
      "name": "onERC1155BatchReceived",
      "outputs": [
        {
          "internalType": "bytes4",
          "name": "",
          "type": "bytes4"
        }
      ],
      "stateMutability": "nonpayable",
      "type": "function"
    },
    {
      "inputs": [
        {
          "internalType": "address",
          "name": "",
          "type": "address"
        },
        {
          "internalType": "address",
          "name": "",
          "type": "address"
        },
        {
          "internalType": "uint256",
          "name": "",
          "type": "uint256"
        },
        {
          "internalType": "uint256",
          "name": "",
          "type": "uint256"
        },
        {
          "internalType": "bytes",
          "name": "",
          "type": "bytes"
        }
      ],
      "name": "onERC1155Received",
      "outputs": [
        {
          "internalType": "bytes4",
          "name": "",
          "type": "bytes4"
        }
      ],
      "stateMutability": "nonpayable",
      "type": "function"
    },
    {
      "inputs": [],
      "name": "pause",
      "outputs": [],
      "stateMutability": "nonpayable",
      "type": "function"
    },
    {
      "inputs": [],
      "name": "paused",
      "outputs": [
        {
          "internalType": "bool",
          "name": "",
          "type": "bool"
        }
      ],
      "stateMutability": "view",
      "type": "function"
    },
    {
      "inputs": [
        {
          "internalType": "uint256",
          "name": "_tokenId",
          "type": "uint256"
        },
        {
          "internalType": "uint256",
          "name": "_amount",
          "type": "uint256"
        }
      ],
      "name": "redeemAccess",
      "outputs": [],
      "stateMutability": "nonpayable",
      "type": "function"
    },
    {
      "inputs": [
        {
          "internalType": "bytes32",
          "name": "role",
          "type": "bytes32"
        },
        {
          "internalType": "address",
          "name": "account",
          "type": "address"
        }
      ],
      "name": "renounceRole",
      "outputs": [],
      "stateMutability": "nonpayable",
      "type": "function"
    },
    {
      "inputs": [
        {
          "internalType": "bytes32",
          "name": "role",
          "type": "bytes32"
        },
        {
          "internalType": "address",
          "name": "account",
          "type": "address"
        }
      ],
      "name": "revokeRole",
      "outputs": [],
      "stateMutability": "nonpayable",
      "type": "function"
    },
    {
      "inputs": [],
      "name": "royaltyBps",
      "outputs": [
        {
          "internalType": "uint256",
          "name": "",
          "type": "uint256"
        }
      ],
      "stateMutability": "view",
      "type": "function"
    },
    {
      "inputs": [
        {
          "internalType": "uint256",
          "name": "tokenId",
          "type": "uint256"
        },
        {
          "internalType": "uint256",
          "name": "salePrice",
          "type": "uint256"
        }
      ],
      "name": "royaltyInfo",
      "outputs": [
        {
          "internalType": "address",
          "name": "receiver",
          "type": "address"
        },
        {
          "internalType": "uint256",
          "name": "royaltyAmount",
          "type": "uint256"
        }
      ],
      "stateMutability": "view",
      "type": "function"
    },
    {
      "inputs": [
        {
          "internalType": "address",
          "name": "from",
          "type": "address"
        },
        {
          "internalType": "address",
          "name": "to",
          "type": "address"
        },
        {
          "internalType": "uint256[]",
          "name": "ids",
          "type": "uint256[]"
        },
        {
          "internalType": "uint256[]",
          "name": "amounts",
          "type": "uint256[]"
        },
        {
          "internalType": "bytes",
          "name": "data",
          "type": "bytes"
        }
      ],
      "name": "safeBatchTransferFrom",
      "outputs": [],
      "stateMutability": "nonpayable",
      "type": "function"
    },
    {
      "inputs": [
        {
          "internalType": "address",
          "name": "from",
          "type": "address"
        },
        {
          "internalType": "address",
          "name": "to",
          "type": "address"
        },
        {
          "internalType": "uint256",
          "name": "id",
          "type": "uint256"
        },
        {
          "internalType": "uint256",
          "name": "amount",
          "type": "uint256"
        },
        {
          "internalType": "bytes",
          "name": "data",
          "type": "bytes"
        }
      ],
      "name": "safeTransferFrom",
      "outputs": [],
      "stateMutability": "nonpayable",
      "type": "function"
    },
    {
      "inputs": [
        {
          "internalType": "address",
          "name": "operator",
          "type": "address"
        },
        {
          "internalType": "bool",
          "name": "approved",
          "type": "bool"
        }
      ],
      "name": "setApprovalForAll",
      "outputs": [],
      "stateMutability": "nonpayable",
      "type": "function"
    },
    {
      "inputs": [
        {
          "internalType": "string",
          "name": "_URI",
          "type": "string"
        }
      ],
      "name": "setContractURI",
      "outputs": [],
      "stateMutability": "nonpayable",
      "type": "function"
    },
    {
      "inputs": [
        {
          "internalType": "uint256",
          "name": "_tokenId",
          "type": "uint256"
        },
        {
          "internalType": "uint256",
          "name": "_secondsUntilRedeem",
          "type": "uint256"
        }
      ],
      "name": "setLastTimeToRedeem",
      "outputs": [],
      "stateMutability": "nonpayable",
      "type": "function"
    },
    {
      "inputs": [
        {
          "internalType": "bool",
          "name": "_restrictedTransfer",
          "type": "bool"
        }
      ],
      "name": "setRestrictedTransfer",
      "outputs": [],
      "stateMutability": "nonpayable",
      "type": "function"
    },
    {
      "inputs": [
        {
          "internalType": "uint256",
          "name": "_royaltyBps",
          "type": "uint256"
        }
      ],
      "name": "setRoyaltyBps",
      "outputs": [],
      "stateMutability": "nonpayable",
      "type": "function"
    },
    {
      "inputs": [
        {
          "internalType": "bool",
          "name": "_isTransferable",
          "type": "bool"
        }
      ],
      "name": "setTransferability",
      "outputs": [],
      "stateMutability": "nonpayable",
      "type": "function"
    },
    {
      "inputs": [
        {
          "internalType": "bytes4",
          "name": "interfaceId",
          "type": "bytes4"
        }
      ],
      "name": "supportsInterface",
      "outputs": [
        {
          "internalType": "bool",
          "name": "",
          "type": "bool"
        }
      ],
      "stateMutability": "pure",
      "type": "function"
    },
    {
      "inputs": [
        {
          "internalType": "uint256",
          "name": "_nftId",
          "type": "uint256"
        }
      ],
      "name": "tokenURI",
      "outputs": [
        {
          "internalType": "string",
          "name": "",
          "type": "string"
        }
      ],
      "stateMutability": "view",
      "type": "function"
    },
    {
      "inputs": [],
      "name": "unpause",
      "outputs": [],
      "stateMutability": "nonpayable",
      "type": "function"
    },
    {
      "inputs": [
        {
          "internalType": "uint256",
          "name": "_nftId",
          "type": "uint256"
        }
      ],
      "name": "uri",
      "outputs": [
        {
          "internalType": "string",
          "name": "",
          "type": "string"
        }
      ],
      "stateMutability": "view",
      "type": "function"
    }
  ],
  "bytecode": "0x60806040523480156200001157600080fd5b506040516200589938038062005899833981016040819052620000349162000431565b82828281818062000045816200013d565b506005805460ff191690556200006660006200006062000156565b62000173565b62000084600080516020620058798339815191526200006062000156565b620000b37f65d7a28e3265b37a6474929f336521b332c1681b933f6cb9f3376673440d862a6200006062000156565b5060058054610100600160a81b0319166101006001600160a01b0393841602179055600680546001600160a01b0319169185169190911790558051620001019060099060208401906200038b565b50620001317f8502233096d909befbda0999bb8ea2f3a6be3c138b9fbf003752a4c8bce86f6c6200006062000156565b5050505050506200059a565b8051620001529060049060208401906200038b565b5050565b60006200016d620001b660201b620022081760201c565b90505b90565b6200018a8282620001f660201b620022361760201c565b6000828152600160209081526040909120620001b19183906200224462000202821b17901c565b505050565b6000620001c33362000222565b15620001d9575060131936013560601c62000170565b620001ee6200023b60201b620022591760201c565b905062000170565b6200015282826200023f565b600062000219836001600160a01b038416620002c9565b90505b92915050565b60055461010090046001600160a01b0390811691161490565b3390565b6200024b828262000318565b62000152576000828152602081815260408083206001600160a01b03851684529091529020805460ff191660011790556200028562000156565b6001600160a01b0316816001600160a01b0316837f2f8788117e7eff1d82e926ec794901d17c78024a50270940304540a733656f0d60405160405180910390a45050565b6000620002d783836200034a565b6200030f575081546001818101845560008481526020808220909301849055845484825282860190935260409020919091556200021c565b5060006200021c565b6000600080516020620058798339815191528314806200021957506200021983836200036260201b6200225d1760201c565b60009081526001919091016020526040902054151590565b6000918252602082815260408084206001600160a01b0393909316845291905290205460ff1690565b82805462000399906200052e565b90600052602060002090601f016020900481019282620003bd576000855562000408565b82601f10620003d857805160ff191683800117855562000408565b8280016001018555821562000408579182015b8281111562000408578251825591602001919060010190620003eb565b50620004169291506200041a565b5090565b5b808211156200041657600081556001016200041b565b60008060006060848603121562000446578283fd5b8351620004538162000581565b80935050602080850151620004688162000581565b60408601519093506001600160401b038082111562000485578384fd5b818701915087601f83011262000499578384fd5b815181811115620004ae57620004ae6200056b565b604051601f8201601f1916810185018381118282101715620004d457620004d46200056b565b60405281815283820185018a1015620004eb578586fd5b8592505b818310156200050e5783830185015181840186015291840191620004ef565b818311156200051f57858583830101525b80955050505050509250925092565b6002810460018216806200054357607f821691505b602082108114156200056557634e487b7160e01b600052602260045260246000fd5b50919050565b634e487b7160e01b600052604160045260246000fd5b6001600160a01b03811681146200059757600080fd5b50565b6152cf80620005aa6000396000f3fe608060405234801561001057600080fd5b506004361061031f5760003560e01c806375794a3c116101a7578063c63adb2b116100ee578063e63ab1e911610097578063f23a6e6111610071578063f23a6e6114610652578063f242432a14610665578063f5298aca146106785761031f565b8063e63ab1e91461062f578063e8a3d48514610637578063e985e9c51461063f5761031f565b8063d5391393116100c8578063d53913931461060c578063d547741f14610614578063d9371ddd146106275761031f565b8063c63adb2b146105f1578063c87b56dd1461036d578063ca15c873146105f95761031f565b806391d1485411610150578063a22cb4651161012a578063a22cb465146105b6578063bc197c81146105c9578063c0e72740146105e95761031f565b806391d1485414610588578063938e3d7b1461059b578063a217fddf146105ae5761031f565b80638aa01653116101815780638aa01653146105425780638ba448c2146105555780639010d07c146105685761031f565b806375794a3c1461052a57806383661b29146105325780638456cb591461053a5761031f565b80632f2ff15d1161026b5780634e1273f4116102145780635c975abb116101ee5780635c975abb146104fc5780636b20c45414610504578063731133e9146105175761031f565b80634e1273f4146104c3578063572b6c05146104d65780635948ab63146104e95761031f565b80633c16b12e116102455780633c16b12e146104885780633f4ba83a146104a85780634487f6b4146104b05761031f565b80632f2ff15d1461044f57806332d33cd01461046257806336568abe146104755761031f565b80631f8bc790116102cd5780632a55205a116102a75780632a55205a146104085780632e14bee8146104295780632eb2c2d61461043c5761031f565b80631f8bc790146103c8578063206b60f9146103ed578063248a9ca3146103f55761031f565b806317ffeba2116102fe57806317ffeba21461038d5780631f72d831146103a05780631f7fdffa146103b55761031f565b8062fdd58e1461032457806301ffc9a71461034d5780630e89341c1461036d575b600080fd5b610337610332366004613c1c565b61068b565b604051610344919061436d565b60405180910390f35b61036061035b366004613ec9565b6106e7565b6040516103449190614362565b61038061037b366004613e56565b61073b565b60405161034491906143d3565b61033761039b366004613e56565b6107e0565b6103b36103ae366004613e56565b6107f2565b005b6103b36103c3366004613b51565b610a8e565b6103db6103d6366004613e56565b610aa6565b604051610344969594939291906141fa565b610337610b73565b610337610403366004613e56565b610b97565b61041b610416366004613ea8565b610bac565b604051610344929190614261565b6103b3610437366004613ea8565b610c6d565b6103b361044a3660046138d0565b610e84565b6103b361045d366004613e86565b610ee2565b610360610470366004613e56565b610f09565b6103b3610483366004613e86565b610f21565b61049b610496366004613d88565b610f43565b604051610344919061427a565b6103b36115fc565b6103b36104be366004613ea8565b61164e565b61049b6104d1366004613cca565b61173a565b6103606104e436600461388d565b61185a565b6103b36104f7366004613e1e565b611873565b6103606119c6565b6103b3610512366004613ae0565b6119d0565b6103b3610525366004613c77565b611a25565b610337611a3d565b610360611a43565b6103b3611a53565b6103b36105503660046139d9565b611aa3565b6103b3610563366004613e1e565b611bdc565b61057b610576366004613ea8565b611d2b565b604051610344919061410d565b610360610596366004613e86565b611d4a565b6103b36105a9366004613f01565b611d7f565b610337611ea1565b6103b36105c4366004613be6565b611ea6565b6105dc6105d73660046138d0565b611f74565b604051610344919061438d565b610380611f85565b610337612013565b610337610607366004613e56565b612019565b610337612030565b6103b3610622366004613e86565b612054565b61036061205e565b610337612067565b61038061208b565b61036061064d3660046138a7565b61211d565b6105dc610660366004613976565b61214b565b6103b3610673366004613976565b61215c565b6103b3610686366004613c45565b6121b3565b60006001600160a01b0383166106bc5760405162461bcd60e51b81526004016106b39061450c565b60405180910390fd5b5060008181526002602090815260408083206001600160a01b03861684529091529020545b92915050565b60006001600160e01b03198216630271189760e51b148061071857506001600160e01b03198216636cdb3d1360e11b145b8061073357506001600160e01b0319821663152a902d60e11b145b90505b919050565b6000818152600b6020526040902060010180546060919061075b9061516e565b80601f01602080910402602001604051908101604052809291908181526020018280546107879061516e565b80156107d45780601f106107a9576101008083540402835291602001916107d4565b820191906000526020600020905b8154815290600101906020018083116107b757829003601f168201915b50505050509050919050565b600c6020526000908152604090205481565b60065460408051634a32c6bf60e11b815290516001600160a01b03909216916391d148549183916394658d7e91600480820192602092909190829003018186803b15801561083f57600080fd5b505afa158015610853573d6000803e3d6000fd5b505050506040513d601f19601f820116820180604052508101906108779190613e6e565b61087f612286565b6040518363ffffffff1660e01b815260040161089c929190614376565b60206040518083038186803b1580156108b457600080fd5b505afa1580156108c8573d6000803e3d6000fd5b505050506040513d601f19601f820116820180604052508101906108ec9190613e3a565b6109085760405162461bcd60e51b81526004016106b39061460a565b600660009054906101000a90046001600160a01b03166001600160a01b0316635cd423156040518163ffffffff1660e01b815260040160206040518083038186803b15801561095657600080fd5b505afa15801561096a573d6000803e3d6000fd5b505050506040513d601f19601f8201168201806040525081019061098e9190613f41565b600660009054906101000a90046001600160a01b03166001600160a01b031663fd967f476040518163ffffffff1660e01b815260040160206040518083038186803b1580156109dc57600080fd5b505afa1580156109f0573d6000803e3d6000fd5b505050506040513d601f19601f82011682018060405250810190610a149190613f41565b610a1e9190615089565b6fffffffffffffffffffffffffffffffff168110610a4e5760405162461bcd60e51b81526004016106b390614eb2565b60088190556040517f244ea8d7627f5a08f4299862bd5a45752842c183aee5b0fb0d1e4887bfa605b390610a8390839061436d565b60405180910390a150565b60405162461bcd60e51b81526004016106b3906145ad565b600b60205260009081526040902080546001820180546001600160a01b039092169291610ad29061516e565b80601f0160208091040260200160405190810160405280929190818152602001828054610afe9061516e565b8015610b4b5780601f10610b2057610100808354040283529160200191610b4b565b820191906000526020600020905b815481529060010190602001808311610b2e57829003601f168201915b505050506002830154600384015460048501546005909501549394919360ff91821693501686565b7f8502233096d909befbda0999bb8ea2f3a6be3c138b9fbf003752a4c8bce86f6c81565b60009081526020819052604090206001015490565b6000828152600b6020908152604080832054600654825163fd967f4760e01b815292516001600160a01b039283169594919092169263fd967f479260048083019392829003018186803b158015610c0257600080fd5b505afa158015610c16573d6000803e3d6000fd5b505050506040513d601f19601f82011682018060405250810190610c3a9190613f41565b6fffffffffffffffffffffffffffffffff1660085484610c5a91906150f5565b610c6491906150d5565b90509250929050565b600660009054906101000a90046001600160a01b03166001600160a01b0316639d2f83f06040518163ffffffff1660e01b815260040160206040518083038186803b158015610cbb57600080fd5b505afa158015610ccf573d6000803e3d6000fd5b505050506040513d601f19601f82011682018060405250810190610cf39190613e3a565b15610d105760405162461bcd60e51b81526004016106b390614a8d565b6000828152600b602052604090206003015460ff1615610d425760405162461bcd60e51b81526004016106b390614b2c565b6000610d4c612286565b905081610d59828561068b565b1015610d775760405162461bcd60e51b81526004016106b390614721565b610d89610d82612286565b84846121b3565b6000838152600b6020908152604080832060040154808452600c9092529091205442111580610dc457506000818152600c6020526040902054155b610de05760405162461bcd60e51b81526004016106b390614acf565b604051637921219560e11b8152309063f242432a90610e099083908690869089906004016141c2565b600060405180830381600087803b158015610e2357600080fd5b505af1158015610e37573d6000803e3d6000fd5b505050508084836001600160a01b03167fa70022dc131dbd0be52c08bf87947e36b3e7d4934dce1efecf2d261c381d101786604051610e76919061436d565b60405180910390a450505050565b610e8c612286565b6001600160a01b0316856001600160a01b03161480610eb25750610eb28561064d612286565b610ece5760405162461bcd60e51b81526004016106b3906148d6565b610edb8585858585612295565b5050505050565b610eec8282612469565b6000828152600160205260409020610f049082612244565b505050565b6000908152600b602052604090206003015460ff1690565b610f2b828261248d565b6000828152600160205260409020610f0490826124cf565b600654604080516309d2f83f60e41b815290516060926001600160a01b031691639d2f83f0916004808301926020929190829003018186803b158015610f8857600080fd5b505afa158015610f9c573d6000803e3d6000fd5b505050506040513d601f19601f82011682018060405250810190610fc09190613e3a565b15610fdd5760405162461bcd60e51b81526004016106b390614a8d565b6110097f9f2df0fed2c77648de5860a4cc508cd0818c85b8b8a1ab4ceeef8d981c8956a6610596612286565b6110255760405162461bcd60e51b81526004016106b39061477e565b858214801561103357508584145b61104f5760405162461bcd60e51b81526004016106b390614be6565b8561106c5760405162461bcd60e51b81526004016106b39061481c565b8567ffffffffffffffff81111561109357634e487b7160e01b600052604160045260246000fd5b6040519080825280602002602001820160405280156110bc578160200160208202803683370190505b50905060008667ffffffffffffffff8111156110e857634e487b7160e01b600052604160045260246000fd5b604051908082528060200260200182016040528015611111578160200160208202803683370190505b5060075490915060005b888110156114f3578183828151811061114457634e487b7160e01b600052603260045260246000fd5b6020026020010181815250506040518060c00160405280611163612286565b6001600160a01b0316815260200189898481811061119157634e487b7160e01b600052603260045260246000fd5b90506020028101906111a39190614ff6565b8080601f0160208091040260200160405190810160405280939291908181526020018383808284376000920191909152505050908252506020018787848181106111fd57634e487b7160e01b600052603260045260246000fd5b905060200201358152602001600115158152602001600081526020016000600281111561123a57634e487b7160e01b600052602160045260246000fd5b90526000838152600b602090815260409091208251815473ffffffffffffffffffffffffffffffffffffffff19166001600160a01b03909116178155828201518051919261129092600185019290910190613609565b506040820151600280830191909155606083015160038301805491151560ff199283161790556080840151600484015560a084015160058401805491939092919091169060019084908111156112f657634e487b7160e01b600052602160045260246000fd5b021790555061130a915060019050836150bd565b91508184828151811061132d57634e487b7160e01b600052603260045260246000fd5b6020026020010181815250506040518060c0016040528061134c612286565b6001600160a01b031681526020018b8b8481811061137a57634e487b7160e01b600052603260045260246000fd5b905060200281019061138c9190614ff6565b8080601f0160208091040260200160405190810160405280939291908181526020018383808284376000920191909152505050908252506020018787848181106113e657634e487b7160e01b600052603260045260246000fd5b9050602002013581526020016000151581526020016001846114089190615114565b8152602001600090526000838152600b602090815260409091208251815473ffffffffffffffffffffffffffffffffffffffff19166001600160a01b03909116178155828201518051919261146592600185019290910190613609565b506040820151600280830191909155606083015160038301805491151560ff199283161790556080840151600484015560a084015160058401805491939092919091169060019084908111156114cb57634e487b7160e01b600052602160045260246000fd5b02179055506114df915060019050836150bd565b9150806114eb816151a9565b91505061111b565b508060078190555061154730838787808060200260200160405190810160405280939291908181526020018383602002808284376000920182905250604080516020810190915290815292506124e4915050565b61159a611552612286565b848787808060200260200160405190810160405280939291908181526020018383602002808284376000920182905250604080516020810190915290815292506124e4915050565b6115a2612286565b6001600160a01b03167fe309c6cae6e35dcc6c2f37d5da32b19e0346074be56b9722cdf852d20fced6ee848b8b868c8c8c8c6040516115e898979695949392919061428d565b60405180910390a250509695505050505050565b6116287f65d7a28e3265b37a6474929f336521b332c1681b933f6cb9f3376673440d862a610596612286565b6116445760405162461bcd60e51b81526004016106b390614c43565b61164c612586565b565b6000828152600b60205260409020546001600160a01b031661166e612286565b6001600160a01b0316146116945760405162461bcd60e51b81526004016106b390614ca0565b6000828152600b602052604090206003015460ff166116c55760405162461bcd60e51b81526004016106b390614b89565b600081156116dc576116d782426150bd565b6116e0565b6000195b6000848152600c6020526040902081905590507ff01057f3c55599179571189c7758b5ce72994adea5a8dc33095fdc8fdff071198361171d612286565b8360405161172d93929190614fc9565b60405180910390a1505050565b6060815183511461175d5760405162461bcd60e51b81526004016106b390614db7565b6000835167ffffffffffffffff81111561178757634e487b7160e01b600052604160045260246000fd5b6040519080825280602002602001820160405280156117b0578160200160208202803683370190505b50905060005b8451811015611852576118178582815181106117e257634e487b7160e01b600052603260045260246000fd5b602002602001015185838151811061180a57634e487b7160e01b600052603260045260246000fd5b602002602001015161068b565b82828151811061183757634e487b7160e01b600052603260045260246000fd5b602090810291909101015261184b816151a9565b90506117b6565b509392505050565b60055461010090046001600160a01b0390811691161490565b60065460408051634a32c6bf60e11b815290516001600160a01b03909216916391d148549183916394658d7e91600480820192602092909190829003018186803b1580156118c057600080fd5b505afa1580156118d4573d6000803e3d6000fd5b505050506040513d601f19601f820116820180604052508101906118f89190613e6e565b611900612286565b6040518363ffffffff1660e01b815260040161191d929190614376565b60206040518083038186803b15801561193557600080fd5b505afa158015611949573d6000803e3d6000fd5b505050506040513d601f19601f8201168201806040525081019061196d9190613e3a565b6119895760405162461bcd60e51b81526004016106b39061460a565b600a805460ff19168215151790556040517e4701906729f069b76305c2c6a0bfa1d4ba4ff97d08206c8716078bf7a5e02790610a83908390614362565b60055460ff165b90565b6119d8612286565b6001600160a01b0316836001600160a01b031614806119fe57506119fe8361064d612286565b611a1a5760405162461bcd60e51b81526004016106b3906146c4565b610f048383836125f4565b60405162461bcd60e51b81526004016106b390614f0f565b60075481565b600554600160a81b900460ff1681565b611a7f7f65d7a28e3265b37a6474929f336521b332c1681b933f6cb9f3376673440d862a610596612286565b611a9b5760405162461bcd60e51b81526004016106b390614cfd565b61164c61269b565b600660009054906101000a90046001600160a01b03166001600160a01b0316639d2f83f06040518163ffffffff1660e01b815260040160206040518083038186803b158015611af157600080fd5b505afa158015611b05573d6000803e3d6000fd5b505050506040513d601f19601f82011682018060405250810190611b299190613e3a565b15611b465760405162461bcd60e51b81526004016106b390614a8d565b6000611b568c8c8c8c8c8c610f43565b905060008686868686604051602001611b739594939291906143a2565b6040516020818303038152906040529050611bcc611b8f612286565b8f848c8c80806020026020016040519081016040528093929190818152602001838360200280828437600092019190915250889250610e84915050565b5050505050505050505050505050565b60065460408051634a32c6bf60e11b815290516001600160a01b03909216916391d148549183916394658d7e91600480820192602092909190829003018186803b158015611c2957600080fd5b505afa158015611c3d573d6000803e3d6000fd5b505050506040513d601f19601f82011682018060405250810190611c619190613e6e565b611c69612286565b6040518363ffffffff1660e01b8152600401611c86929190614376565b60206040518083038186803b158015611c9e57600080fd5b505afa158015611cb2573d6000803e3d6000fd5b505050506040513d601f19601f82011682018060405250810190611cd69190613e3a565b611cf25760405162461bcd60e51b81526004016106b39061460a565b60058054911515600160a81b027fffffffffffffffffffff00ffffffffffffffffffffffffffffffffffffffffff909216919091179055565b6000828152600160205260408120611d4390836126f6565b9392505050565b60007f9f2df0fed2c77648de5860a4cc508cd0818c85b8b8a1ab4ceeef8d981c8956a6831480611d435750611d43838361225d565b60065460408051634a32c6bf60e11b815290516001600160a01b03909216916391d148549183916394658d7e91600480820192602092909190829003018186803b158015611dcc57600080fd5b505afa158015611de0573d6000803e3d6000fd5b505050506040513d601f19601f82011682018060405250810190611e049190613e6e565b611e0c612286565b6040518363ffffffff1660e01b8152600401611e29929190614376565b60206040518083038186803b158015611e4157600080fd5b505afa158015611e55573d6000803e3d6000fd5b505050506040513d601f19601f82011682018060405250810190611e799190613e3a565b611e955760405162461bcd60e51b81526004016106b39061460a565b610f046009838361368d565b600081565b816001600160a01b0316611eb8612286565b6001600160a01b03161415611edf5760405162461bcd60e51b81526004016106b390614d5a565b8060036000611eec612286565b6001600160a01b03908116825260208083019390935260409182016000908120918716808252919093529120805460ff191692151592909217909155611f30612286565b6001600160a01b03167f17307eab39ab6107e8899845ad3d59bd9653f200f220920489ca2b5937696c3183604051611f689190614362565b60405180910390a35050565b63bc197c8160e01b95945050505050565b60098054611f929061516e565b80601f0160208091040260200160405190810160405280929190818152602001828054611fbe9061516e565b801561200b5780601f10611fe05761010080835404028352916020019161200b565b820191906000526020600020905b815481529060010190602001808311611fee57829003601f168201915b505050505081565b60085481565b600081815260016020526040812061073390612702565b7f9f2df0fed2c77648de5860a4cc508cd0818c85b8b8a1ab4ceeef8d981c8956a681565b610f2b828261270d565b600a5460ff1681565b7f65d7a28e3265b37a6474929f336521b332c1681b933f6cb9f3376673440d862a81565b60606009805461209a9061516e565b80601f01602080910402602001604051908101604052809291908181526020018280546120c69061516e565b80156121135780601f106120e857610100808354040283529160200191612113565b820191906000526020600020905b8154815290600101906020018083116120f657829003601f168201915b5050505050905090565b6001600160a01b03918216600090815260036020908152604080832093909416825291909152205460ff1690565b63f23a6e6160e01b95945050505050565b612164612286565b6001600160a01b0316856001600160a01b0316148061218a575061218a8561064d612286565b6121a65760405162461bcd60e51b81526004016106b3906146c4565b610edb858585858561272c565b6121bb612286565b6001600160a01b0316836001600160a01b031614806121e157506121e18361064d612286565b6121fd5760405162461bcd60e51b81526004016106b3906146c4565b610f04838383612873565b60006122133361185a565b15612227575060131936013560601c6119cd565b61222f612259565b90506119cd565b61224082826128a9565b5050565b6000611d43836001600160a01b03841661292e565b3390565b6000918252602082815260408084206001600160a01b0393909316845291905290205460ff1690565b6000612290612208565b905090565b81518351146122b65760405162461bcd60e51b81526004016106b390614e14565b6001600160a01b0384166122dc5760405162461bcd60e51b81526004016106b390614879565b60006122e6612286565b90506122f6818787878787612978565b60005b84518110156123fb57600085828151811061232457634e487b7160e01b600052603260045260246000fd5b60200260200101519050600085838151811061235057634e487b7160e01b600052603260045260246000fd5b60209081029190910181015160008481526002835260408082206001600160a01b038e1683529093529190912054909150818110156123a15760405162461bcd60e51b81526004016106b3906149d3565b60008381526002602090815260408083206001600160a01b038e8116855292528083208585039055908b168252812080548492906123e09084906150bd565b92505081905550505050806123f4906151a9565b90506122f9565b50846001600160a01b0316866001600160a01b0316826001600160a01b03167f4a39dc06d4c0dbc64b70af90fd698a233a518aa5d07e595d983b8c0526c8f7fb878760405161244b929190614334565b60405180910390a4612461818787878787612b38565b505050505050565b61247282610b97565b6124838161247e612286565b612c46565b610f0483836128a9565b612495612286565b6001600160a01b0316816001600160a01b0316146124c55760405162461bcd60e51b81526004016106b390614f6c565b6122408282612caa565b6000611d43836001600160a01b038416612d2d565b6124f084848484612e4a565b60005b8351811015610edb5782818151811061251c57634e487b7160e01b600052603260045260246000fd5b6020026020010151600b600086848151811061254857634e487b7160e01b600052603260045260246000fd5b60200260200101518152602001908152602001600020600201600082825461257091906150bd565b9091555061257f9050816151a9565b90506124f3565b61258e6119c6565b6125aa5760405162461bcd60e51b81526004016106b3906144d5565b6005805460ff191690557f5db9ee0a495bf2e6ff9c91a7834c1ba4fdd244a5e8aa4e537bd38aeae4b073aa6125dd612286565b6040516125ea919061410d565b60405180910390a1565b6125ff838383612fcc565b60005b82518110156126955781818151811061262b57634e487b7160e01b600052603260045260246000fd5b6020026020010151600b600085848151811061265757634e487b7160e01b600052603260045260246000fd5b60200260200101518152602001908152602001600020600201600082825461267f9190615114565b9091555061268e9050816151a9565b9050612602565b50505050565b6126a36119c6565b156126c05760405162461bcd60e51b81526004016106b3906147e5565b6005805460ff191660011790557f62e78cea01bee320cd4e420270b5ea74000d11b0c9f74754ebdbfc544b05a2586125dd612286565b6000611d438383613172565b6000610733826131aa565b61271682610b97565b6127228161247e612286565b610f048383612caa565b6001600160a01b0384166127525760405162461bcd60e51b81526004016106b390614879565b600061275c612286565b905061277c81878761276d886131ae565b612776886131ae565b87612978565b60008481526002602090815260408083206001600160a01b038a168452909152902054838110156127bf5760405162461bcd60e51b81526004016106b3906149d3565b60008581526002602090815260408083206001600160a01b038b81168552925280832087850390559088168252812080548692906127fe9084906150bd565b92505081905550856001600160a01b0316876001600160a01b0316836001600160a01b03167fc3d58168c5ae7397731d063d5bbf3d657854427343f4c083240f7aacaa2d0f628888604051612854929190614fe8565b60405180910390a461286a828888888888613207565b50505050505050565b61287e8383836132d8565b6000828152600b60205260408120600201805483929061289f908490615114565b9091555050505050565b6128b38282611d4a565b612240576000828152602081815260408083206001600160a01b03851684529091529020805460ff191660011790556128ea612286565b6001600160a01b0316816001600160a01b0316837f2f8788117e7eff1d82e926ec794901d17c78024a50270940304540a733656f0d60405160405180910390a45050565b600061293a83836133eb565b612970575081546001818101845560008481526020808220909301849055845484825282860190935260409020919091556106e1565b5060006106e1565b612986868686868686613403565b600554600160a81b900460ff1615612a0e576129c27f8502233096d909befbda0999bb8ea2f3a6be3c138b9fbf003752a4c8bce86f6c86611d4a565b806129f257506129f27f8502233096d909befbda0999bb8ea2f3a6be3c138b9fbf003752a4c8bce86f6c85611d4a565b612a0e5760405162461bcd60e51b81526004016106b390614a30565b60005b835181101561286a576001600160a01b038516612aa257828181518110612a4857634e487b7160e01b600052603260045260246000fd5b6020026020010151600b6000868481518110612a7457634e487b7160e01b600052603260045260246000fd5b602002602001015181526020019081526020016000206002016000828254612a9c9190615114565b90915550505b600b6000858381518110612ac657634e487b7160e01b600052603260045260246000fd5b60209081029190910181015182528101919091526040016000206003015460ff1615612b26576001600160a01b0386161580612b0a57506001600160a01b03861630145b612b265760405162461bcd60e51b81526004016106b390614933565b80612b30816151a9565b915050612a11565b612b4a846001600160a01b0316613411565b156124615760405163bc197c8160e01b81526001600160a01b0385169063bc197c8190612b839089908990889088908890600401614121565b602060405180830381600087803b158015612b9d57600080fd5b505af1925050508015612bcd575060408051601f3d908101601f19168201909252612bca91810190613ee5565b60015b612c1657612bd96151f6565b80612be45750612bfe565b8060405162461bcd60e51b81526004016106b391906143d3565b60405162461bcd60e51b81526004016106b3906143e6565b6001600160e01b0319811663bc197c8160e01b1461286a5760405162461bcd60e51b81526004016106b390614478565b612c508282611d4a565b61224057612c68816001600160a01b03166014613417565b612c73836020613417565b604051602001612c8492919061408c565b60408051601f198184030181529082905262461bcd60e51b82526106b3916004016143d3565b612cb48282611d4a565b15612240576000828152602081815260408083206001600160a01b03851684529091529020805460ff19169055612ce9612286565b6001600160a01b0316816001600160a01b0316837ff6391f5c32d9c69d2a47ea670b442974b53935d1edc7fd64eb21e047a839171b60405160405180910390a45050565b60008181526001830160205260408120548015612e40576000612d51600183615114565b8554909150600090612d6590600190615114565b9050818114612de6576000866000018281548110612d9357634e487b7160e01b600052603260045260246000fd5b9060005260206000200154905080876000018481548110612dc457634e487b7160e01b600052603260045260246000fd5b6000918252602080832090910192909255918252600188019052604090208390555b8554869080612e0557634e487b7160e01b600052603160045260246000fd5b6001900381819060005260206000200160009055905585600101600086815260200190815260200160002060009055600193505050506106e1565b60009150506106e1565b6001600160a01b038416612e705760405162461bcd60e51b81526004016106b390614e71565b8151835114612e915760405162461bcd60e51b81526004016106b390614e14565b6000612e9b612286565b9050612eac81600087878787612978565b60005b8451811015612f6457838181518110612ed857634e487b7160e01b600052603260045260246000fd5b602002602001015160026000878481518110612f0457634e487b7160e01b600052603260045260246000fd5b602002602001015181526020019081526020016000206000886001600160a01b03166001600160a01b031681526020019081526020016000206000828254612f4c91906150bd565b90915550819050612f5c816151a9565b915050612eaf565b50846001600160a01b031660006001600160a01b0316826001600160a01b03167f4a39dc06d4c0dbc64b70af90fd698a233a518aa5d07e595d983b8c0526c8f7fb8787604051612fb5929190614334565b60405180910390a4610edb81600087878787612b38565b6001600160a01b038316612ff25760405162461bcd60e51b81526004016106b390614990565b80518251146130135760405162461bcd60e51b81526004016106b390614e14565b600061301d612286565b905061303d81856000868660405180602001604052806000815250612978565b60005b835181101561312157600084828151811061306b57634e487b7160e01b600052603260045260246000fd5b60200260200101519050600084838151811061309757634e487b7160e01b600052603260045260246000fd5b60209081029190910181015160008481526002835260408082206001600160a01b038c1683529093529190912054909150818110156130e85760405162461bcd60e51b81526004016106b390614569565b60009283526002602090815260408085206001600160a01b038b1686529091529092209103905580613119816151a9565b915050613040565b5060006001600160a01b0316846001600160a01b0316826001600160a01b03167f4a39dc06d4c0dbc64b70af90fd698a233a518aa5d07e595d983b8c0526c8f7fb8686604051610e76929190614334565b600082600001828154811061319757634e487b7160e01b600052603260045260246000fd5b9060005260206000200154905092915050565b5490565b604080516001808252818301909252606091600091906020808301908036833701905050905082816000815181106131f657634e487b7160e01b600052603260045260246000fd5b602090810291909101015292915050565b613219846001600160a01b0316613411565b156124615760405163f23a6e6160e01b81526001600160a01b0385169063f23a6e6190613252908990899088908890889060040161417f565b602060405180830381600087803b15801561326c57600080fd5b505af192505050801561329c575060408051601f3d908101601f1916820190925261329991810190613ee5565b60015b6132a857612bd96151f6565b6001600160e01b0319811663f23a6e6160e01b1461286a5760405162461bcd60e51b81526004016106b390614478565b6001600160a01b0383166132fe5760405162461bcd60e51b81526004016106b390614990565b6000613308612286565b90506133388185600061331a876131ae565b613323876131ae565b60405180602001604052806000815250612978565b60008381526002602090815260408083206001600160a01b03881684529091529020548281101561337b5760405162461bcd60e51b81526004016106b390614569565b60008481526002602090815260408083206001600160a01b03808a16808652919093528184208786039055905190918516907fc3d58168c5ae7397731d063d5bbf3d657854427343f4c083240f7aacaa2d0f62906133dc9089908990614fe8565b60405180910390a45050505050565b60009081526001919091016020526040902054151590565b6124618686868686866135d6565b3b151590565b606060006134268360026150f5565b6134319060026150bd565b67ffffffffffffffff81111561345757634e487b7160e01b600052604160045260246000fd5b6040519080825280601f01601f191660200182016040528015613481576020820181803683370190505b509050600360fc1b816000815181106134aa57634e487b7160e01b600052603260045260246000fd5b60200101906001600160f81b031916908160001a905350600f60fb1b816001815181106134e757634e487b7160e01b600052603260045260246000fd5b60200101906001600160f81b031916908160001a905350600061350b8460026150f5565b6135169060016150bd565b90505b60018111156135b7577f303132333435363738396162636465660000000000000000000000000000000085600f166010811061356557634e487b7160e01b600052603260045260246000fd5b1a60f81b82828151811061358957634e487b7160e01b600052603260045260246000fd5b60200101906001600160f81b031916908160001a90535060049490941c936135b081615157565b9050613519565b508315611d435760405162461bcd60e51b81526004016106b390614443565b6135e4868686868686612461565b6135ec6119c6565b156124615760405162461bcd60e51b81526004016106b390614667565b8280546136159061516e565b90600052602060002090601f016020900481019282613637576000855561367d565b82601f1061365057805160ff191683800117855561367d565b8280016001018555821561367d579182015b8281111561367d578251825591602001919060010190613662565b50613689929150613701565b5090565b8280546136999061516e565b90600052602060002090601f0160209004810192826136bb576000855561367d565b82601f106136d45782800160ff1982351617855561367d565b8280016001018555821561367d579182015b8281111561367d5782358255916020019190600101906136e6565b5b808211156136895760008155600101613702565b80356001600160a01b038116811461073657600080fd5b60008083601f84011261373e578182fd5b50813567ffffffffffffffff811115613755578182fd5b602083019150836020808302850101111561376f57600080fd5b9250929050565b600082601f830112613786578081fd5b8135602061379b61379683615065565b61503b565b82815281810190858301838502870184018810156137b7578586fd5b855b858110156137d5578135845292840192908401906001016137b9565b5090979650505050505050565b600082601f8301126137f2578081fd5b813567ffffffffffffffff81111561380c5761380c6151da565b61381f601f8201601f191660200161503b565b818152846020838601011115613833578283fd5b816020850160208301379081016020019190915292915050565b60008083601f84011261385e578182fd5b50813567ffffffffffffffff811115613875578182fd5b60208301915083602082850101111561376f57600080fd5b60006020828403121561389e578081fd5b611d4382613716565b600080604083850312156138b9578081fd5b6138c283613716565b9150610c6460208401613716565b600080600080600060a086880312156138e7578081fd5b6138f086613716565b94506138fe60208701613716565b9350604086013567ffffffffffffffff8082111561391a578283fd5b61392689838a01613776565b9450606088013591508082111561393b578283fd5b61394789838a01613776565b9350608088013591508082111561395c578283fd5b50613969888289016137e2565b9150509295509295909350565b600080600080600060a0868803121561398d578081fd5b61399686613716565b94506139a460208701613716565b93506040860135925060608601359150608086013567ffffffffffffffff8111156139cd578182fd5b613969888289016137e2565b6000806000806000806000806000806000806101008d8f0312156139fb578687fd5b613a048d613716565b9b5067ffffffffffffffff60208e01351115613a1e578687fd5b613a2e8e60208f01358f0161372d565b909b50995067ffffffffffffffff60408e01351115613a4b578687fd5b613a5b8e60408f01358f0161372d565b909950975067ffffffffffffffff60608e01351115613a78578687fd5b613a888e60608f01358f0161372d565b909750955067ffffffffffffffff60808e01351115613aa5578485fd5b613ab58e60808f01358f0161384d565b9c9f9b9e50999c989b979a9699959895979660a08701359660c0810135965060e00135945092505050565b600080600060608486031215613af4578081fd5b613afd84613716565b9250602084013567ffffffffffffffff80821115613b19578283fd5b613b2587838801613776565b93506040860135915080821115613b3a578283fd5b50613b4786828701613776565b9150509250925092565b60008060008060808587031215613b66578182fd5b613b6f85613716565b9350602085013567ffffffffffffffff80821115613b8b578384fd5b613b9788838901613776565b94506040870135915080821115613bac578384fd5b613bb888838901613776565b93506060870135915080821115613bcd578283fd5b50613bda878288016137e2565b91505092959194509250565b60008060408385031215613bf8578182fd5b613c0183613716565b91506020830135613c118161529b565b809150509250929050565b60008060408385031215613c2e578182fd5b613c3783613716565b946020939093013593505050565b600080600060608486031215613c59578081fd5b613c6284613716565b95602085013595506040909401359392505050565b60008060008060808587031215613c8c578182fd5b613c9585613716565b93506020850135925060408501359150606085013567ffffffffffffffff811115613cbe578182fd5b613bda878288016137e2565b60008060408385031215613cdc578182fd5b823567ffffffffffffffff80821115613cf3578384fd5b818501915085601f830112613d06578384fd5b81356020613d1661379683615065565b82815281810190858301838502870184018b1015613d32578889fd5b8896505b84871015613d5b57613d4781613716565b835260019690960195918301918301613d36565b5096505086013592505080821115613d71578283fd5b50613d7e85828601613776565b9150509250929050565b60008060008060008060608789031215613da0578384fd5b863567ffffffffffffffff80821115613db7578586fd5b613dc38a838b0161372d565b90985096506020890135915080821115613ddb578586fd5b613de78a838b0161372d565b90965094506040890135915080821115613dff578384fd5b50613e0c89828a0161372d565b979a9699509497509295939492505050565b600060208284031215613e2f578081fd5b8135611d438161529b565b600060208284031215613e4b578081fd5b8151611d438161529b565b600060208284031215613e67578081fd5b5035919050565b600060208284031215613e7f578081fd5b5051919050565b60008060408385031215613e98578182fd5b82359150610c6460208401613716565b60008060408385031215613eba578182fd5b50508035926020909101359150565b600060208284031215613eda578081fd5b8135611d43816152ac565b600060208284031215613ef6578081fd5b8151611d43816152ac565b60008060208385031215613f13578182fd5b823567ffffffffffffffff811115613f29578283fd5b613f358582860161384d565b90969095509350505050565b600060208284031215613f52578081fd5b81516fffffffffffffffffffffffffffffffff81168114611d43578182fd5b818352602080840193600091908185020181018584845b87811015613fef5782840389528135601e19883603018112613fa8578687fd5b8701803567ffffffffffffffff811115613fc0578788fd5b803603891315613fce578788fd5b613fdb8682898501614062565b9a87019a9550505090840190600101613f88565b5091979650505050505050565b6000815180845260208085019450808401835b8381101561402b5781518752958201959082019060010161400f565b509495945050505050565b6000815180845261404e81602086016020860161512b565b601f01601f19169290920160200192915050565b60008284528282602086013780602084860101526020601f19601f85011685010190509392505050565b60007f416363657373436f6e74726f6c3a206163636f756e7420000000000000000000825283516140c481601785016020880161512b565b7f206973206d697373696e6720726f6c6520000000000000000000000000000000601791840191820152835161410181602884016020880161512b565b01602801949350505050565b6001600160a01b0391909116815260200190565b60006001600160a01b03808816835280871660208401525060a0604083015261414d60a0830186613ffc565b828103606084015261415f8186613ffc565b905082810360808401526141738185614036565b98975050505050505050565b60006001600160a01b03808816835280871660208401525084604083015283606083015260a060808301526141b760a0830184614036565b979650505050505050565b6001600160a01b0394851681529290931660208301526040820152606081019190915260a06080820181905260009082015260c00190565b60006001600160a01b038816825260c0602083015261421c60c0830188614036565b905085604083015284151560608301528360808301526003831061425057634e487b7160e01b600052602160045260246000fd5b8260a0830152979650505050505050565b6001600160a01b03929092168252602082015260400190565b600060208252611d436020830184613ffc565b600060a082526142a060a083018b613ffc565b82810360208401526142b3818a8c613f71565b905082810360408401526142c78189613ffc565b905082810360608401526142dc818789613f71565b905082810360808401528381527f07ffffffffffffffffffffffffffffffffffffffffffffffffffffffffffffff841115614315578182fd5b6020840280866020840137016020019081529998505050505050505050565b6000604082526143476040830185613ffc565b82810360208401526143598185613ffc565b95945050505050565b901515815260200190565b90815260200190565b9182526001600160a01b0316602082015260400190565b6001600160e01b031991909116815260200190565b6000608082526143b6608083018789614062565b602083019590955250604081019290925260609091015292915050565b600060208252611d436020830184614036565b60208082526034908201527f455243313135353a207472616e7366657220746f206e6f6e204552433131353560408201527f526563656976657220696d706c656d656e746572000000000000000000000000606082015260800190565b6020808252818101527f537472696e67733a20686578206c656e67746820696e73756666696369656e74604082015260600190565b60208082526028908201527f455243313135353a204552433131353552656365697665722072656a6563746560408201527f6420746f6b656e73000000000000000000000000000000000000000000000000606082015260800190565b60208082526014908201527f5061757361626c653a206e6f7420706175736564000000000000000000000000604082015260600190565b6020808252602b908201527f455243313135353a2062616c616e636520717565727920666f7220746865207a60408201527f65726f2061646472657373000000000000000000000000000000000000000000606082015260800190565b60208082526024908201527f455243313135353a206275726e20616d6f756e7420657863656564732062616c604082015263616e636560e01b606082015260800190565b60208082526031908201527f4163636573734e46543a2063616e6e6f742075736520726567756c6172206d6960408201527f6e7442617463682066756e6374696f6e2e000000000000000000000000000000606082015260800190565b60208082526038908201527f4163636573734e46543a206f6e6c7920612070726f746f636f6c2061646d696e60408201527f2063616e2063616c6c20746869732066756e6374696f6e2e0000000000000000606082015260800190565b6020808252602c908201527f455243313135355061757361626c653a20746f6b656e207472616e736665722060408201527f7768696c65207061757365640000000000000000000000000000000000000000606082015260800190565b60208082526029908201527f455243313135353a2063616c6c6572206973206e6f74206f776e6572206e6f7260408201527f20617070726f7665640000000000000000000000000000000000000000000000606082015260800190565b6020808252602e908201527f4163636573734e46543a2043616e6e6f742072656465656d206d6f7265204e4660408201527f5473207468616e206f776e65642e000000000000000000000000000000000000606082015260800190565b60208082526041908201527f4163636573734e46543a204f6e6c79206163636f756e74732077697468204d4960408201527f4e5445525f524f4c452063616e2063616c6c20746869732066756e6374696f6e6060820152601760f91b608082015260a00190565b60208082526010908201527f5061757361626c653a2070617573656400000000000000000000000000000000604082015260600190565b60208082526028908201527f4163636573734e46543a204d75737420637265617465206174206c656173742060408201527f6f6e65204e46542e000000000000000000000000000000000000000000000000606082015260800190565b60208082526025908201527f455243313135353a207472616e7366657220746f20746865207a65726f20616460408201527f6472657373000000000000000000000000000000000000000000000000000000606082015260800190565b60208082526032908201527f455243313135353a207472616e736665722063616c6c6572206973206e6f742060408201527f6f776e6572206e6f7220617070726f7665640000000000000000000000000000606082015260800190565b60208082526039908201527f4163636573734e46543a2063616e6e6f74207472616e7366657220616e20616360408201527f63657373204e465420746861742069732072656465656d656400000000000000606082015260800190565b60208082526023908201527f455243313135353a206275726e2066726f6d20746865207a65726f206164647260408201526265737360e81b606082015260800190565b6020808252602a908201527f455243313135353a20696e73756666696369656e742062616c616e636520666f60408201527f72207472616e7366657200000000000000000000000000000000000000000000606082015260800190565b6020808252603c908201527f4163636573734e46543a205472616e736665727320617265207265737472696360408201527f74656420746f205452414e534645525f524f4c4520686f6c6465727300000000606082015260800190565b60208082526022908201527f4163636573734e46543a205468652070726f746f636f6c206973207061757365604082015261321760f11b606082015260800190565b6020808252602e908201527f4163636573734e46543a2057696e646f7720746f2072656465656d206163636560408201527f73732068617320636c6f7365642e000000000000000000000000000000000000606082015260800190565b60208082526033908201527f4163636573734e46543a205468697320746f6b656e206973206e6f742072656460408201527f65656d61626c6520666f72206163636573732e00000000000000000000000000606082015260800190565b60208082526034908201527f4163636573734e46543a2063616e207365742072656465656d2074696d65206660408201527f6f72206f6e6c7920416363657373204e4654732e000000000000000000000000606082015260800190565b60208082526036908201527f4163636573734e46543a204d757374207370656369667920657175616c206e7560408201527f6d626572206f6620636f6e6669672076616c7565732e00000000000000000000606082015260800190565b6020808252603b908201527f455243313135355072657365744d696e7465725061757365723a206d7573742060408201527f686176652070617573657220726f6c6520746f20756e70617573650000000000606082015260800190565b60208082526033908201527f4163636573734e46543a206f6e6c79207468652063726561746f722063616e2060408201527f63616c6c20746869732066756e6374696f6e2e00000000000000000000000000606082015260800190565b60208082526039908201527f455243313135355072657365744d696e7465725061757365723a206d7573742060408201527f686176652070617573657220726f6c6520746f20706175736500000000000000606082015260800190565b60208082526029908201527f455243313135353a2073657474696e6720617070726f76616c2073746174757360408201527f20666f722073656c660000000000000000000000000000000000000000000000606082015260800190565b60208082526029908201527f455243313135353a206163636f756e747320616e6420696473206c656e67746860408201527f206d69736d617463680000000000000000000000000000000000000000000000606082015260800190565b60208082526028908201527f455243313135353a2069647320616e6420616d6f756e7473206c656e6774682060408201527f6d69736d61746368000000000000000000000000000000000000000000000000606082015260800190565b60208082526021908201527f455243313135353a206d696e7420746f20746865207a65726f206164647265736040820152607360f81b606082015260800190565b60208082526029908201527f4e46543a204270732070726f7669646564206d757374206265206c657373207460408201527f68616e20392c3030300000000000000000000000000000000000000000000000606082015260800190565b6020808252602c908201527f4163636573734e46543a2063616e6e6f742075736520726567756c6172206d6960408201527f6e742066756e6374696f6e2e0000000000000000000000000000000000000000606082015260800190565b6020808252602f908201527f416363657373436f6e74726f6c3a2063616e206f6e6c792072656e6f756e636560408201527f20726f6c657320666f722073656c660000000000000000000000000000000000606082015260800190565b9283526001600160a01b03919091166020830152604082015260600190565b918252602082015260400190565b6000808335601e1984360301811261500c578283fd5b83018035915067ffffffffffffffff821115615026578283fd5b60200191503681900382131561376f57600080fd5b60405181810167ffffffffffffffff8111828210171561505d5761505d6151da565b604052919050565b600067ffffffffffffffff82111561507f5761507f6151da565b5060209081020190565b60006fffffffffffffffffffffffffffffffff8083168185168083038211156150b4576150b46151c4565b01949350505050565b600082198211156150d0576150d06151c4565b500190565b6000826150f057634e487b7160e01b81526012600452602481fd5b500490565b600081600019048311821515161561510f5761510f6151c4565b500290565b600082821015615126576151266151c4565b500390565b60005b8381101561514657818101518382015260200161512e565b838111156126955750506000910152565b600081615166576151666151c4565b506000190190565b60028104600182168061518257607f821691505b602082108114156151a357634e487b7160e01b600052602260045260246000fd5b50919050565b60006000198214156151bd576151bd6151c4565b5060010190565b634e487b7160e01b600052601160045260246000fd5b634e487b7160e01b600052604160045260246000fd5b60e01c90565b600060443d1015615206576119cd565b600481823e6308c379a061521a82516151f0565b14615224576119cd565b6040513d600319016004823e80513d67ffffffffffffffff816024840111818411171561525457505050506119cd565b8284019250825191508082111561526e57505050506119cd565b503d83016020828401011115615286575050506119cd565b601f01601f1916810160200160405291505090565b80151581146152a957600080fd5b50565b6001600160e01b0319811681146152a957600080fdfea164736f6c6343000800000a9f2df0fed2c77648de5860a4cc508cd0818c85b8b8a1ab4ceeef8d981c8956a6",
  "linkReferences": {},
  "deployedLinkReferences": {}
}