{
  "_format": "hh-sol-artifact-1",
  "contractName": "AccessNFT_PL",
  "sourceName": "contracts/permissionless/AccessNFT_PL.sol",
  "abi": [
    {
      "inputs": [
        {
          "internalType": "address payable",
          "name": "_controlCenter",
          "type": "address"
        },
        {
          "internalType": "address",
          "name": "_trustedForwarder",
          "type": "address"
        },
        {
          "internalType": "string",
          "name": "_uri",
          "type": "string"
        }
      ],
      "stateMutability": "nonpayable",
      "type": "constructor"
    },
    {
      "anonymous": false,
      "inputs": [
        {
          "indexed": true,
          "internalType": "address",
          "name": "redeemer",
          "type": "address"
        },
        {
          "indexed": true,
          "internalType": "uint256",
          "name": "nftTokenId",
          "type": "uint256"
        },
        {
          "indexed": true,
          "internalType": "uint256",
          "name": "accessNftId",
          "type": "uint256"
        },
        {
          "indexed": false,
          "internalType": "uint256",
          "name": "amount",
          "type": "uint256"
        }
      ],
      "name": "AccessNFTRedeemed",
      "type": "event"
    },
    {
      "anonymous": false,
      "inputs": [
        {
          "indexed": true,
          "internalType": "address",
          "name": "creator",
          "type": "address"
        },
        {
          "indexed": false,
          "internalType": "uint256[]",
          "name": "nftIds",
          "type": "uint256[]"
        },
        {
          "indexed": false,
          "internalType": "string[]",
          "name": "nftURIs",
          "type": "string[]"
        },
        {
          "indexed": false,
          "internalType": "uint256[]",
          "name": "acessNftIds",
          "type": "uint256[]"
        },
        {
          "indexed": false,
          "internalType": "string[]",
          "name": "accessNftURIs",
          "type": "string[]"
        },
        {
          "indexed": false,
          "internalType": "uint256[]",
          "name": "nftSupplies",
          "type": "uint256[]"
        }
      ],
      "name": "AccessNFTsCreated",
      "type": "event"
    },
    {
      "anonymous": false,
      "inputs": [
        {
          "indexed": false,
          "internalType": "bool",
          "name": "isTransferable",
          "type": "bool"
        }
      ],
      "name": "AccessTransferabilityUpdated",
      "type": "event"
    },
    {
      "anonymous": false,
      "inputs": [
        {
          "indexed": true,
          "internalType": "address",
          "name": "account",
          "type": "address"
        },
        {
          "indexed": true,
          "internalType": "address",
          "name": "operator",
          "type": "address"
        },
        {
          "indexed": false,
          "internalType": "bool",
          "name": "approved",
          "type": "bool"
        }
      ],
      "name": "ApprovalForAll",
      "type": "event"
    },
    {
      "anonymous": false,
      "inputs": [
        {
          "indexed": false,
          "internalType": "uint256",
          "name": "accessNftId",
          "type": "uint256"
        },
        {
          "indexed": false,
          "internalType": "address",
          "name": "creator",
          "type": "address"
        },
        {
          "indexed": false,
          "internalType": "uint256",
          "name": "lastTimeToRedeem",
          "type": "uint256"
        }
      ],
      "name": "LastRedeemTimeUpdated",
      "type": "event"
    },
    {
      "anonymous": false,
      "inputs": [
        {
          "indexed": false,
          "internalType": "address",
          "name": "account",
          "type": "address"
        }
      ],
      "name": "Paused",
      "type": "event"
    },
    {
      "anonymous": false,
      "inputs": [
        {
          "indexed": true,
          "internalType": "bytes32",
          "name": "role",
          "type": "bytes32"
        },
        {
          "indexed": true,
          "internalType": "bytes32",
          "name": "previousAdminRole",
          "type": "bytes32"
        },
        {
          "indexed": true,
          "internalType": "bytes32",
          "name": "newAdminRole",
          "type": "bytes32"
        }
      ],
      "name": "RoleAdminChanged",
      "type": "event"
    },
    {
      "anonymous": false,
      "inputs": [
        {
          "indexed": true,
          "internalType": "bytes32",
          "name": "role",
          "type": "bytes32"
        },
        {
          "indexed": true,
          "internalType": "address",
          "name": "account",
          "type": "address"
        },
        {
          "indexed": true,
          "internalType": "address",
          "name": "sender",
          "type": "address"
        }
      ],
      "name": "RoleGranted",
      "type": "event"
    },
    {
      "anonymous": false,
      "inputs": [
        {
          "indexed": true,
          "internalType": "bytes32",
          "name": "role",
          "type": "bytes32"
        },
        {
          "indexed": true,
          "internalType": "address",
          "name": "account",
          "type": "address"
        },
        {
          "indexed": true,
          "internalType": "address",
          "name": "sender",
          "type": "address"
        }
      ],
      "name": "RoleRevoked",
      "type": "event"
    },
    {
      "anonymous": false,
      "inputs": [
        {
          "indexed": false,
          "internalType": "uint256",
          "name": "royaltyBps",
          "type": "uint256"
        }
      ],
      "name": "RoyaltyUpdated",
      "type": "event"
    },
    {
      "anonymous": false,
      "inputs": [
        {
          "indexed": true,
          "internalType": "address",
          "name": "operator",
          "type": "address"
        },
        {
          "indexed": true,
          "internalType": "address",
          "name": "from",
          "type": "address"
        },
        {
          "indexed": true,
          "internalType": "address",
          "name": "to",
          "type": "address"
        },
        {
          "indexed": false,
          "internalType": "uint256[]",
          "name": "ids",
          "type": "uint256[]"
        },
        {
          "indexed": false,
          "internalType": "uint256[]",
          "name": "values",
          "type": "uint256[]"
        }
      ],
      "name": "TransferBatch",
      "type": "event"
    },
    {
      "anonymous": false,
      "inputs": [
        {
          "indexed": true,
          "internalType": "address",
          "name": "operator",
          "type": "address"
        },
        {
          "indexed": true,
          "internalType": "address",
          "name": "from",
          "type": "address"
        },
        {
          "indexed": true,
          "internalType": "address",
          "name": "to",
          "type": "address"
        },
        {
          "indexed": false,
          "internalType": "uint256",
          "name": "id",
          "type": "uint256"
        },
        {
          "indexed": false,
          "internalType": "uint256",
          "name": "value",
          "type": "uint256"
        }
      ],
      "name": "TransferSingle",
      "type": "event"
    },
    {
      "anonymous": false,
      "inputs": [
        {
          "indexed": false,
          "internalType": "string",
          "name": "value",
          "type": "string"
        },
        {
          "indexed": true,
          "internalType": "uint256",
          "name": "id",
          "type": "uint256"
        }
      ],
      "name": "URI",
      "type": "event"
    },
    {
      "anonymous": false,
      "inputs": [
        {
          "indexed": false,
          "internalType": "address",
          "name": "account",
          "type": "address"
        }
      ],
      "name": "Unpaused",
      "type": "event"
    },
    {
      "inputs": [],
      "name": "DEFAULT_ADMIN_ROLE",
      "outputs": [
        {
          "internalType": "bytes32",
          "name": "",
          "type": "bytes32"
        }
      ],
      "stateMutability": "view",
      "type": "function"
    },
    {
      "inputs": [],
      "name": "MINTER_ROLE",
      "outputs": [
        {
          "internalType": "bytes32",
          "name": "",
          "type": "bytes32"
        }
      ],
      "stateMutability": "view",
      "type": "function"
    },
    {
      "inputs": [],
      "name": "PAUSER_ROLE",
      "outputs": [
        {
          "internalType": "bytes32",
          "name": "",
          "type": "bytes32"
        }
      ],
      "stateMutability": "view",
      "type": "function"
    },
    {
      "inputs": [],
      "name": "TRANSFER_ROLE",
      "outputs": [
        {
          "internalType": "bytes32",
          "name": "",
          "type": "bytes32"
        }
      ],
      "stateMutability": "view",
      "type": "function"
    },
    {
      "inputs": [],
      "name": "_contractURI",
      "outputs": [
        {
          "internalType": "string",
          "name": "",
          "type": "string"
        }
      ],
      "stateMutability": "view",
      "type": "function"
    },
    {
      "inputs": [],
      "name": "accessNftIsTransferable",
      "outputs": [
        {
          "internalType": "bool",
          "name": "",
          "type": "bool"
        }
      ],
      "stateMutability": "view",
      "type": "function"
    },
    {
      "inputs": [
        {
          "internalType": "address",
          "name": "account",
          "type": "address"
        },
        {
          "internalType": "uint256",
          "name": "id",
          "type": "uint256"
        }
      ],
      "name": "balanceOf",
      "outputs": [
        {
          "internalType": "uint256",
          "name": "",
          "type": "uint256"
        }
      ],
      "stateMutability": "view",
      "type": "function"
    },
    {
      "inputs": [
        {
          "internalType": "address[]",
          "name": "accounts",
          "type": "address[]"
        },
        {
          "internalType": "uint256[]",
          "name": "ids",
          "type": "uint256[]"
        }
      ],
      "name": "balanceOfBatch",
      "outputs": [
        {
          "internalType": "uint256[]",
          "name": "",
          "type": "uint256[]"
        }
      ],
      "stateMutability": "view",
      "type": "function"
    },
    {
      "inputs": [
        {
          "internalType": "address",
          "name": "account",
          "type": "address"
        },
        {
          "internalType": "uint256",
          "name": "id",
          "type": "uint256"
        },
        {
          "internalType": "uint256",
          "name": "value",
          "type": "uint256"
        }
      ],
      "name": "burn",
      "outputs": [],
      "stateMutability": "nonpayable",
      "type": "function"
    },
    {
      "inputs": [
        {
          "internalType": "address",
          "name": "account",
          "type": "address"
        },
        {
          "internalType": "uint256[]",
          "name": "ids",
          "type": "uint256[]"
        },
        {
          "internalType": "uint256[]",
          "name": "values",
          "type": "uint256[]"
        }
      ],
      "name": "burnBatch",
      "outputs": [],
      "stateMutability": "nonpayable",
      "type": "function"
    },
    {
      "inputs": [],
      "name": "contractURI",
      "outputs": [
        {
          "internalType": "string",
          "name": "",
          "type": "string"
        }
      ],
      "stateMutability": "view",
      "type": "function"
    },
    {
      "inputs": [
        {
          "internalType": "string[]",
          "name": "_nftURIs",
          "type": "string[]"
        },
        {
          "internalType": "string[]",
          "name": "_accessNftURIs",
          "type": "string[]"
        },
        {
          "internalType": "uint256[]",
          "name": "_nftSupplies",
          "type": "uint256[]"
        }
      ],
      "name": "createAccessNfts",
      "outputs": [
        {
          "internalType": "uint256[]",
          "name": "nftIds",
          "type": "uint256[]"
        }
      ],
      "stateMutability": "nonpayable",
      "type": "function"
    },
    {
      "inputs": [
        {
          "internalType": "address",
          "name": "_pack",
          "type": "address"
        },
        {
          "internalType": "string[]",
          "name": "_nftURIs",
          "type": "string[]"
        },
        {
          "internalType": "string[]",
          "name": "_accessNftURIs",
          "type": "string[]"
        },
        {
          "internalType": "uint256[]",
          "name": "_nftSupplies",
          "type": "uint256[]"
        },
        {
          "internalType": "string",
          "name": "_packURI",
          "type": "string"
        },
        {
          "internalType": "uint256",
          "name": "_secondsUntilOpenStart",
          "type": "uint256"
        },
        {
          "internalType": "uint256",
          "name": "_secondsUntilOpenEnd",
          "type": "uint256"
        },
        {
          "internalType": "uint256",
          "name": "_nftsPerOpen",
          "type": "uint256"
        }
      ],
      "name": "createAccessPack",
      "outputs": [],
      "stateMutability": "nonpayable",
      "type": "function"
    },
    {
      "inputs": [
        {
          "internalType": "bytes32",
          "name": "role",
          "type": "bytes32"
        }
      ],
      "name": "getRoleAdmin",
      "outputs": [
        {
          "internalType": "bytes32",
          "name": "",
          "type": "bytes32"
        }
      ],
      "stateMutability": "view",
      "type": "function"
    },
    {
      "inputs": [
        {
          "internalType": "bytes32",
          "name": "role",
          "type": "bytes32"
        },
        {
          "internalType": "uint256",
          "name": "index",
          "type": "uint256"
        }
      ],
      "name": "getRoleMember",
      "outputs": [
        {
          "internalType": "address",
          "name": "",
          "type": "address"
        }
      ],
      "stateMutability": "view",
      "type": "function"
    },
    {
      "inputs": [
        {
          "internalType": "bytes32",
          "name": "role",
          "type": "bytes32"
        }
      ],
      "name": "getRoleMemberCount",
      "outputs": [
        {
          "internalType": "uint256",
          "name": "",
          "type": "uint256"
        }
      ],
      "stateMutability": "view",
      "type": "function"
    },
    {
      "inputs": [
        {
          "internalType": "bytes32",
          "name": "role",
          "type": "bytes32"
        },
        {
          "internalType": "address",
          "name": "account",
          "type": "address"
        }
      ],
      "name": "grantRole",
      "outputs": [],
      "stateMutability": "nonpayable",
      "type": "function"
    },
    {
      "inputs": [
        {
          "internalType": "bytes32",
          "name": "role",
          "type": "bytes32"
        },
        {
          "internalType": "address",
          "name": "account",
          "type": "address"
        }
      ],
      "name": "hasRole",
      "outputs": [
        {
          "internalType": "bool",
          "name": "",
          "type": "bool"
        }
      ],
      "stateMutability": "view",
      "type": "function"
    },
    {
      "inputs": [
        {
          "internalType": "address",
          "name": "account",
          "type": "address"
        },
        {
          "internalType": "address",
          "name": "operator",
          "type": "address"
        }
      ],
      "name": "isApprovedForAll",
      "outputs": [
        {
          "internalType": "bool",
          "name": "",
          "type": "bool"
        }
      ],
      "stateMutability": "view",
      "type": "function"
    },
    {
      "inputs": [
        {
          "internalType": "uint256",
          "name": "_nftId",
          "type": "uint256"
        }
      ],
      "name": "isRedeemed",
      "outputs": [
        {
          "internalType": "bool",
          "name": "",
          "type": "bool"
        }
      ],
      "stateMutability": "view",
      "type": "function"
    },
    {
      "inputs": [
        {
          "internalType": "address",
          "name": "forwarder",
          "type": "address"
        }
      ],
      "name": "isTrustedForwarder",
      "outputs": [
        {
          "internalType": "bool",
          "name": "",
          "type": "bool"
        }
      ],
      "stateMutability": "view",
      "type": "function"
    },
    {
      "inputs": [
        {
          "internalType": "uint256",
          "name": "",
          "type": "uint256"
        }
      ],
      "name": "lastTimeToRedeem",
      "outputs": [
        {
          "internalType": "uint256",
          "name": "",
          "type": "uint256"
        }
      ],
      "stateMutability": "view",
      "type": "function"
    },
    {
      "inputs": [
        {
          "internalType": "address",
          "name": "",
          "type": "address"
        },
        {
          "internalType": "uint256",
          "name": "",
          "type": "uint256"
        },
        {
          "internalType": "uint256",
          "name": "",
          "type": "uint256"
        },
        {
          "internalType": "bytes",
          "name": "",
          "type": "bytes"
        }
      ],
      "name": "mint",
      "outputs": [],
      "stateMutability": "pure",
      "type": "function"
    },
    {
      "inputs": [
        {
          "internalType": "address",
          "name": "",
          "type": "address"
        },
        {
          "internalType": "uint256[]",
          "name": "",
          "type": "uint256[]"
        },
        {
          "internalType": "uint256[]",
          "name": "",
          "type": "uint256[]"
        },
        {
          "internalType": "bytes",
          "name": "",
          "type": "bytes"
        }
      ],
      "name": "mintBatch",
      "outputs": [],
      "stateMutability": "pure",
      "type": "function"
    },
    {
      "inputs": [],
      "name": "nextTokenId",
      "outputs": [
        {
          "internalType": "uint256",
          "name": "",
          "type": "uint256"
        }
      ],
      "stateMutability": "view",
      "type": "function"
    },
    {
      "inputs": [
        {
          "internalType": "address",
          "name": "",
          "type": "address"
        },
        {
          "internalType": "address",
          "name": "",
          "type": "address"
        },
        {
          "internalType": "uint256[]",
          "name": "",
          "type": "uint256[]"
        },
        {
          "internalType": "uint256[]",
          "name": "",
          "type": "uint256[]"
        },
        {
          "internalType": "bytes",
          "name": "",
          "type": "bytes"
        }
      ],
      "name": "onERC1155BatchReceived",
      "outputs": [
        {
          "internalType": "bytes4",
          "name": "",
          "type": "bytes4"
        }
      ],
      "stateMutability": "nonpayable",
      "type": "function"
    },
    {
      "inputs": [
        {
          "internalType": "address",
          "name": "",
          "type": "address"
        },
        {
          "internalType": "address",
          "name": "",
          "type": "address"
        },
        {
          "internalType": "uint256",
          "name": "",
          "type": "uint256"
        },
        {
          "internalType": "uint256",
          "name": "",
          "type": "uint256"
        },
        {
          "internalType": "bytes",
          "name": "",
          "type": "bytes"
        }
      ],
      "name": "onERC1155Received",
      "outputs": [
        {
          "internalType": "bytes4",
          "name": "",
          "type": "bytes4"
        }
      ],
      "stateMutability": "nonpayable",
      "type": "function"
    },
    {
      "inputs": [
        {
          "internalType": "address",
          "name": "",
          "type": "address"
        },
        {
          "internalType": "address",
          "name": "",
          "type": "address"
        },
        {
          "internalType": "uint256",
          "name": "",
          "type": "uint256"
        },
        {
          "internalType": "bytes",
          "name": "",
          "type": "bytes"
        }
      ],
      "name": "onERC721Received",
      "outputs": [
        {
          "internalType": "bytes4",
          "name": "",
          "type": "bytes4"
        }
      ],
      "stateMutability": "nonpayable",
      "type": "function"
    },
    {
      "inputs": [],
      "name": "pause",
      "outputs": [],
      "stateMutability": "nonpayable",
      "type": "function"
    },
    {
      "inputs": [],
      "name": "paused",
      "outputs": [
        {
          "internalType": "bool",
          "name": "",
          "type": "bool"
        }
      ],
      "stateMutability": "view",
      "type": "function"
    },
    {
      "inputs": [
        {
          "internalType": "uint256",
          "name": "_tokenId",
          "type": "uint256"
        },
        {
          "internalType": "uint256",
          "name": "_amount",
          "type": "uint256"
        }
      ],
      "name": "redeemAccess",
      "outputs": [],
      "stateMutability": "nonpayable",
      "type": "function"
    },
    {
      "inputs": [
        {
          "internalType": "bytes32",
          "name": "role",
          "type": "bytes32"
        },
        {
          "internalType": "address",
          "name": "account",
          "type": "address"
        }
      ],
      "name": "renounceRole",
      "outputs": [],
      "stateMutability": "nonpayable",
      "type": "function"
    },
    {
      "inputs": [
        {
          "internalType": "bytes32",
          "name": "role",
          "type": "bytes32"
        },
        {
          "internalType": "address",
          "name": "account",
          "type": "address"
        }
      ],
      "name": "revokeRole",
      "outputs": [],
      "stateMutability": "nonpayable",
      "type": "function"
    },
    {
      "inputs": [],
      "name": "royaltyBps",
      "outputs": [
        {
          "internalType": "uint256",
          "name": "",
          "type": "uint256"
        }
      ],
      "stateMutability": "view",
      "type": "function"
    },
    {
      "inputs": [
        {
          "internalType": "uint256",
          "name": "tokenId",
          "type": "uint256"
        },
        {
          "internalType": "uint256",
          "name": "salePrice",
          "type": "uint256"
        }
      ],
      "name": "royaltyInfo",
      "outputs": [
        {
          "internalType": "address",
          "name": "receiver",
          "type": "address"
        },
        {
          "internalType": "uint256",
          "name": "royaltyAmount",
          "type": "uint256"
        }
      ],
      "stateMutability": "view",
      "type": "function"
    },
    {
      "inputs": [
        {
          "internalType": "address",
          "name": "from",
          "type": "address"
        },
        {
          "internalType": "address",
          "name": "to",
          "type": "address"
        },
        {
          "internalType": "uint256[]",
          "name": "ids",
          "type": "uint256[]"
        },
        {
          "internalType": "uint256[]",
          "name": "amounts",
          "type": "uint256[]"
        },
        {
          "internalType": "bytes",
          "name": "data",
          "type": "bytes"
        }
      ],
      "name": "safeBatchTransferFrom",
      "outputs": [],
      "stateMutability": "nonpayable",
      "type": "function"
    },
    {
      "inputs": [
        {
          "internalType": "address",
          "name": "from",
          "type": "address"
        },
        {
          "internalType": "address",
          "name": "to",
          "type": "address"
        },
        {
          "internalType": "uint256",
          "name": "id",
          "type": "uint256"
        },
        {
          "internalType": "uint256",
          "name": "amount",
          "type": "uint256"
        },
        {
          "internalType": "bytes",
          "name": "data",
          "type": "bytes"
        }
      ],
      "name": "safeTransferFrom",
      "outputs": [],
      "stateMutability": "nonpayable",
      "type": "function"
    },
    {
      "inputs": [
        {
          "internalType": "bool",
          "name": "_isTransferable",
          "type": "bool"
        }
      ],
      "name": "setAccessNftTransferability",
      "outputs": [],
      "stateMutability": "nonpayable",
      "type": "function"
    },
    {
      "inputs": [
        {
          "internalType": "address",
          "name": "operator",
          "type": "address"
        },
        {
          "internalType": "bool",
          "name": "approved",
          "type": "bool"
        }
      ],
      "name": "setApprovalForAll",
      "outputs": [],
      "stateMutability": "nonpayable",
      "type": "function"
    },
    {
      "inputs": [
        {
          "internalType": "string",
          "name": "_URI",
          "type": "string"
        }
      ],
      "name": "setContractURI",
      "outputs": [],
      "stateMutability": "nonpayable",
      "type": "function"
    },
    {
      "inputs": [
        {
          "internalType": "uint256",
          "name": "_tokenId",
          "type": "uint256"
        },
        {
          "internalType": "uint256",
          "name": "_secondsUntilRedeem",
          "type": "uint256"
        }
      ],
      "name": "setLastTimeToRedeem",
      "outputs": [],
      "stateMutability": "nonpayable",
      "type": "function"
    },
    {
      "inputs": [
        {
          "internalType": "bool",
          "name": "_restrictedTransfer",
          "type": "bool"
        }
      ],
      "name": "setRestrictedTransfer",
      "outputs": [],
      "stateMutability": "nonpayable",
      "type": "function"
    },
    {
      "inputs": [
        {
          "internalType": "uint256",
          "name": "_royaltyBps",
          "type": "uint256"
        }
      ],
      "name": "setRoyaltyBps",
      "outputs": [],
      "stateMutability": "nonpayable",
      "type": "function"
    },
    {
      "inputs": [
        {
          "internalType": "bytes4",
          "name": "interfaceId",
          "type": "bytes4"
        }
      ],
      "name": "supportsInterface",
      "outputs": [
        {
          "internalType": "bool",
          "name": "",
          "type": "bool"
        }
      ],
      "stateMutability": "view",
      "type": "function"
    },
    {
      "inputs": [
        {
          "internalType": "uint256",
          "name": "",
          "type": "uint256"
        }
      ],
      "name": "tokenState",
      "outputs": [
        {
          "internalType": "address",
          "name": "creator",
          "type": "address"
        },
        {
          "internalType": "string",
          "name": "uri",
          "type": "string"
        },
        {
          "internalType": "bool",
          "name": "isAccess",
          "type": "bool"
        },
        {
          "internalType": "uint256",
          "name": "accessNftId",
          "type": "uint256"
        },
        {
          "internalType": "enum AccessNFT.UnderlyingType",
          "name": "underlyingType",
          "type": "uint8"
        }
      ],
      "stateMutability": "view",
      "type": "function"
    },
    {
      "inputs": [
        {
          "internalType": "uint256",
          "name": "_nftId",
          "type": "uint256"
        }
      ],
      "name": "tokenURI",
      "outputs": [
        {
          "internalType": "string",
          "name": "",
          "type": "string"
        }
      ],
      "stateMutability": "view",
      "type": "function"
    },
    {
      "inputs": [
        {
          "internalType": "uint256",
          "name": "id",
          "type": "uint256"
        }
      ],
      "name": "totalSupply",
      "outputs": [
        {
          "internalType": "uint256",
          "name": "",
          "type": "uint256"
        }
      ],
      "stateMutability": "view",
      "type": "function"
    },
    {
      "inputs": [],
      "name": "transfersRestricted",
      "outputs": [
        {
          "internalType": "bool",
          "name": "",
          "type": "bool"
        }
      ],
      "stateMutability": "view",
      "type": "function"
    },
    {
      "inputs": [],
      "name": "unpause",
      "outputs": [],
      "stateMutability": "nonpayable",
      "type": "function"
    },
    {
      "inputs": [
        {
          "internalType": "uint256",
          "name": "_nftId",
          "type": "uint256"
        }
      ],
      "name": "uri",
      "outputs": [
        {
          "internalType": "string",
          "name": "",
          "type": "string"
        }
      ],
      "stateMutability": "view",
      "type": "function"
    }
  ],
  "bytecode": "0x60806040523480156200001157600080fd5b506040516200588238038062005882833981016040819052620000349162000423565b828282818180620000458162000134565b506005805460ff19169055620000666000620000606200014d565b6200016a565b6200008460008051602062005862833981519152620000606200014d565b620000b37f65d7a28e3265b37a6474929f336521b332c1681b933f6cb9f3376673440d862a620000606200014d565b50600780546001600160a01b03199081166001600160a01b0393841617909155600880549091169185169190911790558051620000f890600b9060208401906200037d565b50620001287f8502233096d909befbda0999bb8ea2f3a6be3c138b9fbf003752a4c8bce86f6c620000606200014d565b5050505050506200058c565b8051620001499060049060208401906200037d565b5050565b600062000164620001ad60201b620021721760201c565b90505b90565b620001818282620001ed60201b620021a01760201c565b6000828152600160209081526040909120620001a8918390620021ae620001f9821b17901c565b505050565b6000620001ba3362000219565b15620001d0575060131936013560601c62000167565b620001e56200022d60201b620021c31760201c565b905062000167565b62000149828262000231565b600062000210836001600160a01b038416620002bb565b90505b92915050565b6007546001600160a01b0390811691161490565b3390565b6200023d82826200030a565b62000149576000828152602081815260408083206001600160a01b03851684529091529020805460ff19166001179055620002776200014d565b6001600160a01b0316816001600160a01b0316837f2f8788117e7eff1d82e926ec794901d17c78024a50270940304540a733656f0d60405160405180910390a45050565b6000620002c983836200033c565b620003015750815460018181018455600084815260208082209093018490558454848252828601909352604090209190915562000213565b50600062000213565b6000600080516020620058628339815191528314806200021057506200021083836200035460201b620021c71760201c565b60009081526001919091016020526040902054151590565b6000918252602082815260408084206001600160a01b0393909316845291905290205460ff1690565b8280546200038b9062000520565b90600052602060002090601f016020900481019282620003af5760008555620003fa565b82601f10620003ca57805160ff1916838001178555620003fa565b82800160010185558215620003fa579182015b82811115620003fa578251825591602001919060010190620003dd565b50620004089291506200040c565b5090565b5b808211156200040857600081556001016200040d565b60008060006060848603121562000438578283fd5b8351620004458162000573565b809350506020808501516200045a8162000573565b60408601519093506001600160401b038082111562000477578384fd5b818701915087601f8301126200048b578384fd5b815181811115620004a057620004a06200055d565b604051601f8201601f1916810185018381118282101715620004c657620004c66200055d565b60405281815283820185018a1015620004dd578586fd5b8592505b81831015620005005783830185015181840186015291840191620004e1565b818311156200051157858583830101525b80955050505050509250925092565b6002810460018216806200053557607f821691505b602082108114156200055757634e487b7160e01b600052602260045260246000fd5b50919050565b634e487b7160e01b600052604160045260246000fd5b6001600160a01b03811681146200058957600080fd5b50565b6152c6806200059c6000396000f3fe608060405234801561001057600080fd5b50600436106103355760003560e01c80638456cb59116101b2578063c0e72740116100f9578063d9371ddd116100a2578063e985e9c51161007c578063e985e9c51461067a578063f23a6e611461068d578063f242432a146106a0578063f5298aca146106b357610335565b8063d9371ddd14610662578063e63ab1e91461066a578063e8a3d4851461067257610335565b8063ca15c873116100d3578063ca15c87314610634578063d539139314610647578063d547741f1461064f57610335565b8063c0e7274014610624578063c63adb2b1461062c578063c87b56dd1461038357610335565b80639745cc3d1161015b578063a22cb46511610135578063a22cb465146105eb578063bc197c81146105fe578063bd85b0391461061157610335565b80639745cc3d146105ac5780639f1d9477146105d0578063a217fddf146105e357610335565b80639010d07c1161018c5780639010d07c1461056657806391d1485414610586578063938e3d7b1461059957610335565b80638456cb59146105385780638aa01653146105405780638ba448c21461055357610335565b80632f2ff15d116102815780634e1273f41161022a5780636b20c454116102045780636b20c45414610502578063731133e91461051557806375794a3c146105285780638423df791461053057610335565b80634e1273f4146104d4578063572b6c05146104e75780635c975abb146104fa57610335565b80633c16b12e1161025b5780633c16b12e146104995780633f4ba83a146104b95780634487f6b4146104c157610335565b80632f2ff15d1461046057806332d33cd01461047357806336568abe1461048657610335565b80631f7fdffa116102e35780632a55205a116102bd5780632a55205a146104195780632e14bee81461043a5780632eb2c2d61461044d57610335565b80631f7fdffa146103eb578063206b60f9146103fe578063248a9ca31461040657610335565b8063150b7a0211610314578063150b7a02146103a357806317ffeba2146103c35780631f72d831146103d657610335565b8062fdd58e1461033a57806301ffc9a7146103635780630e89341c14610383575b600080fd5b61034d610348366004613c26565b6106c6565b60405161035a9190614364565b60405180910390f35b610376610371366004613ec7565b610722565b60405161035a9190614359565b610396610391366004613e54565b610750565b60405161035a91906143ca565b6103b66103b1366004613926565b6107f5565b60405161035a9190614384565b61034d6103d1366004613e54565b610805565b6103e96103e4366004613e54565b610817565b005b6103e96103f9366004613b67565b610ab3565b61034d610acb565b61034d610414366004613e54565b610aef565b61042c610427366004613ea6565b610b04565b60405161035a929190614258565b6103e9610448366004613ea6565b610bc5565b6103e961045b366004613880565b610ddc565b6103e961046e366004613e84565b610e3a565b610376610481366004613e54565b610e61565b6103e9610494366004613e84565b610e79565b6104ac6104a7366004613d86565b610e9b565b60405161035a9190614271565b6103e96114b4565b6103e96104cf366004613ea6565b611506565b6104ac6104e2366004613cc8565b6115f2565b6103766104f536600461383d565b611712565b610376611726565b6103e9610510366004613af6565b611730565b6103e9610523366004613c81565b611785565b61034d61179d565b6103766117a3565b6103e96117ac565b6103e961054e3660046139ef565b6117fc565b6103e9610561366004613e1c565b611935565b610579610574366004613ea6565b611a5e565b60405161035a919061410b565b610376610594366004613e84565b611a7d565b6103e96105a7366004613eff565b611ab2565b6105bf6105ba366004613e54565b611bd4565b60405161035a9594939291906141f8565b6103e96105de366004613e1c565b611c9c565b61034d611df4565b6103e96105f9366004613bf0565b611df9565b6103b661060c366004613880565b611ec7565b61034d61061f366004613e54565b611ed8565b610396611eea565b61034d611f78565b61034d610642366004613e54565b611f7e565b61034d611f95565b6103e961065d366004613e84565b611fb9565b610376611fc3565b61034d611fd1565b610396611ff5565b610376610688366004613857565b612087565b6103b661069b36600461398c565b6120b5565b6103e96106ae36600461398c565b6120c6565b6103e96106c1366004613c4f565b61211d565b60006001600160a01b0383166106f75760405162461bcd60e51b81526004016106ee90614503565b60405180910390fd5b5060008181526002602090815260408083206001600160a01b03861684529091529020545b92915050565b600061072d826121f0565b8061074857506001600160e01b0319821663152a902d60e11b145b90505b919050565b6000818152600d6020526040902060010180546060919061077090615165565b80601f016020809104026020016040519081016040528092919081815260200182805461079c90615165565b80156107e95780601f106107be576101008083540402835291602001916107e9565b820191906000526020600020905b8154815290600101906020018083116107cc57829003601f168201915b50505050509050919050565b630a85bd0160e11b949350505050565b600e6020526000908152604090205481565b60085460408051634a32c6bf60e11b815290516001600160a01b03909216916391d148549183916394658d7e91600480820192602092909190829003018186803b15801561086457600080fd5b505afa158015610878573d6000803e3d6000fd5b505050506040513d601f19601f8201168201806040525081019061089c9190613e6c565b6108a46121fb565b6040518363ffffffff1660e01b81526004016108c192919061436d565b60206040518083038186803b1580156108d957600080fd5b505afa1580156108ed573d6000803e3d6000fd5b505050506040513d601f19601f820116820180604052508101906109119190613e38565b61092d5760405162461bcd60e51b81526004016106ee90614601565b600860009054906101000a90046001600160a01b03166001600160a01b0316635cd423156040518163ffffffff1660e01b815260040160206040518083038186803b15801561097b57600080fd5b505afa15801561098f573d6000803e3d6000fd5b505050506040513d601f19601f820116820180604052508101906109b39190613f3f565b600860009054906101000a90046001600160a01b03166001600160a01b031663fd967f476040518163ffffffff1660e01b815260040160206040518083038186803b158015610a0157600080fd5b505afa158015610a15573d6000803e3d6000fd5b505050506040513d601f19601f82011682018060405250810190610a399190613f3f565b610a439190615080565b6fffffffffffffffffffffffffffffffff168110610a735760405162461bcd60e51b81526004016106ee90614ea9565b600a8190556040517f244ea8d7627f5a08f4299862bd5a45752842c183aee5b0fb0d1e4887bfa605b390610aa8908390614364565b60405180910390a150565b60405162461bcd60e51b81526004016106ee906145a4565b7f8502233096d909befbda0999bb8ea2f3a6be3c138b9fbf003752a4c8bce86f6c81565b60009081526020819052604090206001015490565b6000828152600d6020908152604080832054600854825163fd967f4760e01b815292516001600160a01b039283169594919092169263fd967f479260048083019392829003018186803b158015610b5a57600080fd5b505afa158015610b6e573d6000803e3d6000fd5b505050506040513d601f19601f82011682018060405250810190610b929190613f3f565b6fffffffffffffffffffffffffffffffff16600a5484610bb291906150ec565b610bbc91906150cc565b90509250929050565b600860009054906101000a90046001600160a01b03166001600160a01b0316639d2f83f06040518163ffffffff1660e01b815260040160206040518083038186803b158015610c1357600080fd5b505afa158015610c27573d6000803e3d6000fd5b505050506040513d601f19601f82011682018060405250810190610c4b9190613e38565b15610c685760405162461bcd60e51b81526004016106ee90614a84565b6000828152600d602052604090206002015460ff1615610c9a5760405162461bcd60e51b81526004016106ee90614b23565b6000610ca46121fb565b905081610cb182856106c6565b1015610ccf5760405162461bcd60e51b81526004016106ee90614718565b610ce1610cda6121fb565b848461211d565b6000838152600d6020908152604080832060030154808452600e9092529091205442111580610d1c57506000818152600e6020526040902054155b610d385760405162461bcd60e51b81526004016106ee90614ac6565b604051637921219560e11b8152309063f242432a90610d619083908690869089906004016141c0565b600060405180830381600087803b158015610d7b57600080fd5b505af1158015610d8f573d6000803e3d6000fd5b505050508084836001600160a01b03167fa70022dc131dbd0be52c08bf87947e36b3e7d4934dce1efecf2d261c381d101786604051610dce9190614364565b60405180910390a450505050565b610de46121fb565b6001600160a01b0316856001600160a01b03161480610e0a5750610e0a856106886121fb565b610e265760405162461bcd60e51b81526004016106ee906148cd565b610e33858585858561220a565b5050505050565b610e4482826123de565b6000828152600160205260409020610e5c90826121ae565b505050565b6000908152600d602052604090206002015460ff1690565b610e838282612402565b6000828152600160205260409020610e5c9082612444565b600854604080516309d2f83f60e41b815290516060926001600160a01b031691639d2f83f0916004808301926020929190829003018186803b158015610ee057600080fd5b505afa158015610ef4573d6000803e3d6000fd5b505050506040513d601f19601f82011682018060405250810190610f189190613e38565b15610f355760405162461bcd60e51b81526004016106ee90614a84565b610f617f9f2df0fed2c77648de5860a4cc508cd0818c85b8b8a1ab4ceeef8d981c8956a66105946121fb565b610f7d5760405162461bcd60e51b81526004016106ee90614775565b8582148015610f8b57508584145b610fa75760405162461bcd60e51b81526004016106ee90614bdd565b85610fc45760405162461bcd60e51b81526004016106ee90614813565b8567ffffffffffffffff811115610feb57634e487b7160e01b600052604160045260246000fd5b604051908082528060200260200182016040528015611014578160200160208202803683370190505b50905060008667ffffffffffffffff81111561104057634e487b7160e01b600052604160045260246000fd5b604051908082528060200260200182016040528015611069578160200160208202803683370190505b5060095490915060005b888110156113ab578183828151811061109c57634e487b7160e01b600052603260045260246000fd5b6020026020010181815250506040518060a001604052806110bb6121fb565b6001600160a01b031681526020018989848181106110e957634e487b7160e01b600052603260045260246000fd5b90506020028101906110fb9190614fed565b8080601f016020809104026020016040519081016040528093929190818152602001838380828437600092018290525093855250506001602084015250604082018190526060909101526000838152600d602090815260409091208251815473ffffffffffffffffffffffffffffffffffffffff19166001600160a01b039091161781558282015180519192611199926001850192909101906135b9565b5060408201516002808301805492151560ff199384161790556060840151600384015560808401516004840180549193909291169060019084908111156111f057634e487b7160e01b600052602160045260246000fd5b0217905550611204915060019050836150b4565b91508184828151811061122757634e487b7160e01b600052603260045260246000fd5b6020026020010181815250506040518060a001604052806112466121fb565b6001600160a01b031681526020018b8b8481811061127457634e487b7160e01b600052603260045260246000fd5b90506020028101906112869190614fed565b8080601f016020809104026020016040519081016040528093929190818152602001838380828437600092018290525093855250505060208201526040016112cf60018561510b565b8152602001600090526000838152600d602090815260409091208251815473ffffffffffffffffffffffffffffffffffffffff19166001600160a01b03909116178155828201518051919261132c926001850192909101906135b9565b5060408201516002808301805492151560ff1993841617905560608401516003840155608084015160048401805491939092911690600190849081111561138357634e487b7160e01b600052602160045260246000fd5b0217905550611397915060019050836150b4565b9150806113a3816151a0565b915050611073565b50806009819055506113ff3083878780806020026020016040519081016040528093929190818152602001838360200280828437600092018290525060408051602081019091529081529250612459915050565b61145261140a6121fb565b84878780806020026020016040519081016040528093929190818152602001838360200280828437600092018290525060408051602081019091529081529250612459915050565b61145a6121fb565b6001600160a01b03167fe309c6cae6e35dcc6c2f37d5da32b19e0346074be56b9722cdf852d20fced6ee848b8b868c8c8c8c6040516114a0989796959493929190614284565b60405180910390a250509695505050505050565b6114e07f65d7a28e3265b37a6474929f336521b332c1681b933f6cb9f3376673440d862a6105946121fb565b6114fc5760405162461bcd60e51b81526004016106ee90614c3a565b6115046124f8565b565b6000828152600d60205260409020546001600160a01b03166115266121fb565b6001600160a01b03161461154c5760405162461bcd60e51b81526004016106ee90614c97565b6000828152600d602052604090206002015460ff1661157d5760405162461bcd60e51b81526004016106ee90614b80565b600081156115945761158f82426150b4565b611598565b6000195b6000848152600e6020526040902081905590507ff01057f3c55599179571189c7758b5ce72994adea5a8dc33095fdc8fdff07119836115d56121fb565b836040516115e593929190614fc0565b60405180910390a1505050565b606081518351146116155760405162461bcd60e51b81526004016106ee90614dae565b6000835167ffffffffffffffff81111561163f57634e487b7160e01b600052604160045260246000fd5b604051908082528060200260200182016040528015611668578160200160208202803683370190505b50905060005b845181101561170a576116cf85828151811061169a57634e487b7160e01b600052603260045260246000fd5b60200260200101518583815181106116c257634e487b7160e01b600052603260045260246000fd5b60200260200101516106c6565b8282815181106116ef57634e487b7160e01b600052603260045260246000fd5b6020908102919091010152611703816151a0565b905061166e565b509392505050565b6007546001600160a01b0390811691161490565b60055460ff165b90565b6117386121fb565b6001600160a01b0316836001600160a01b0316148061175e575061175e836106886121fb565b61177a5760405162461bcd60e51b81526004016106ee906146bb565b610e5c838383612566565b60405162461bcd60e51b81526004016106ee90614f06565b60095481565b600c5460ff1681565b6117d87f65d7a28e3265b37a6474929f336521b332c1681b933f6cb9f3376673440d862a6105946121fb565b6117f45760405162461bcd60e51b81526004016106ee90614cf4565b61150461260a565b600860009054906101000a90046001600160a01b03166001600160a01b0316639d2f83f06040518163ffffffff1660e01b815260040160206040518083038186803b15801561184a57600080fd5b505afa15801561185e573d6000803e3d6000fd5b505050506040513d601f19601f820116820180604052508101906118829190613e38565b1561189f5760405162461bcd60e51b81526004016106ee90614a84565b60006118af8c8c8c8c8c8c610e9b565b9050600086868686866040516020016118cc959493929190614399565b60405160208183030381529060405290506119256118e86121fb565b8f848c8c80806020026020016040519081016040528093929190818152602001838360200280828437600092019190915250889250610ddc915050565b5050505050505050505050505050565b60085460408051634a32c6bf60e11b815290516001600160a01b03909216916391d148549183916394658d7e91600480820192602092909190829003018186803b15801561198257600080fd5b505afa158015611996573d6000803e3d6000fd5b505050506040513d601f19601f820116820180604052508101906119ba9190613e6c565b6119c26121fb565b6040518363ffffffff1660e01b81526004016119df92919061436d565b60206040518083038186803b1580156119f757600080fd5b505afa158015611a0b573d6000803e3d6000fd5b505050506040513d601f19601f82011682018060405250810190611a2f9190613e38565b611a4b5760405162461bcd60e51b81526004016106ee90614601565b600c805460ff1916911515919091179055565b6000828152600160205260408120611a769083612665565b9392505050565b60007f9f2df0fed2c77648de5860a4cc508cd0818c85b8b8a1ab4ceeef8d981c8956a6831480611a765750611a7683836121c7565b60085460408051634a32c6bf60e11b815290516001600160a01b03909216916391d148549183916394658d7e91600480820192602092909190829003018186803b158015611aff57600080fd5b505afa158015611b13573d6000803e3d6000fd5b505050506040513d601f19601f82011682018060405250810190611b379190613e6c565b611b3f6121fb565b6040518363ffffffff1660e01b8152600401611b5c92919061436d565b60206040518083038186803b158015611b7457600080fd5b505afa158015611b88573d6000803e3d6000fd5b505050506040513d601f19601f82011682018060405250810190611bac9190613e38565b611bc85760405162461bcd60e51b81526004016106ee90614601565b610e5c600b838361363d565b600d60205260009081526040902080546001820180546001600160a01b039092169291611c0090615165565b80601f0160208091040260200160405190810160405280929190818152602001828054611c2c90615165565b8015611c795780601f10611c4e57610100808354040283529160200191611c79565b820191906000526020600020905b815481529060010190602001808311611c5c57829003601f168201915b5050505060028301546003840154600490940154929360ff918216939092501685565b60085460408051634a32c6bf60e11b815290516001600160a01b03909216916391d148549183916394658d7e91600480820192602092909190829003018186803b158015611ce957600080fd5b505afa158015611cfd573d6000803e3d6000fd5b505050506040513d601f19601f82011682018060405250810190611d219190613e6c565b611d296121fb565b6040518363ffffffff1660e01b8152600401611d4692919061436d565b60206040518083038186803b158015611d5e57600080fd5b505afa158015611d72573d6000803e3d6000fd5b505050506040513d601f19601f82011682018060405250810190611d969190613e38565b611db25760405162461bcd60e51b81526004016106ee90614601565b600c805461ff001916610100831515021790556040517e4701906729f069b76305c2c6a0bfa1d4ba4ff97d08206c8716078bf7a5e02790610aa8908390614359565b600081565b816001600160a01b0316611e0b6121fb565b6001600160a01b03161415611e325760405162461bcd60e51b81526004016106ee90614d51565b8060036000611e3f6121fb565b6001600160a01b03908116825260208083019390935260409182016000908120918716808252919093529120805460ff191692151592909217909155611e836121fb565b6001600160a01b03167f17307eab39ab6107e8899845ad3d59bd9653f200f220920489ca2b5937696c3183604051611ebb9190614359565b60405180910390a35050565b63bc197c8160e01b95945050505050565b60009081526006602052604090205490565b600b8054611ef790615165565b80601f0160208091040260200160405190810160405280929190818152602001828054611f2390615165565b8015611f705780601f10611f4557610100808354040283529160200191611f70565b820191906000526020600020905b815481529060010190602001808311611f5357829003601f168201915b505050505081565b600a5481565b600081815260016020526040812061074890612671565b7f9f2df0fed2c77648de5860a4cc508cd0818c85b8b8a1ab4ceeef8d981c8956a681565b610e83828261267c565b600c54610100900460ff1681565b7f65d7a28e3265b37a6474929f336521b332c1681b933f6cb9f3376673440d862a81565b6060600b805461200490615165565b80601f016020809104026020016040519081016040528092919081815260200182805461203090615165565b801561207d5780601f106120525761010080835404028352916020019161207d565b820191906000526020600020905b81548152906001019060200180831161206057829003601f168201915b5050505050905090565b6001600160a01b03918216600090815260036020908152604080832093909416825291909152205460ff1690565b63f23a6e6160e01b95945050505050565b6120ce6121fb565b6001600160a01b0316856001600160a01b031614806120f457506120f4856106886121fb565b6121105760405162461bcd60e51b81526004016106ee906146bb565b610e33858585858561269b565b6121256121fb565b6001600160a01b0316836001600160a01b0316148061214b575061214b836106886121fb565b6121675760405162461bcd60e51b81526004016106ee906146bb565b610e5c8383836127e2565b600061217d33611712565b15612191575060131936013560601c61172d565b6121996121c3565b905061172d565b6121aa8282612815565b5050565b6000611a76836001600160a01b03841661289a565b3390565b6000918252602082815260408084206001600160a01b0393909316845291905290205460ff1690565b6000610748826128e4565b6000612205612172565b905090565b815183511461222b5760405162461bcd60e51b81526004016106ee90614e0b565b6001600160a01b0384166122515760405162461bcd60e51b81526004016106ee90614870565b600061225b6121fb565b905061226b818787878787612909565b60005b845181101561237057600085828151811061229957634e487b7160e01b600052603260045260246000fd5b6020026020010151905060008583815181106122c557634e487b7160e01b600052603260045260246000fd5b60209081029190910181015160008481526002835260408082206001600160a01b038e1683529093529190912054909150818110156123165760405162461bcd60e51b81526004016106ee906149ca565b60008381526002602090815260408083206001600160a01b038e8116855292528083208585039055908b168252812080548492906123559084906150b4565b9250508190555050505080612369906151a0565b905061226e565b50846001600160a01b0316866001600160a01b0316826001600160a01b03167f4a39dc06d4c0dbc64b70af90fd698a233a518aa5d07e595d983b8c0526c8f7fb87876040516123c092919061432b565b60405180910390a46123d6818787878787612a4e565b505050505050565b6123e782610aef565b6123f8816123f36121fb565b612b5c565b610e5c8383612815565b61240a6121fb565b6001600160a01b0316816001600160a01b03161461243a5760405162461bcd60e51b81526004016106ee90614f63565b6121aa8282612bc0565b6000611a76836001600160a01b038416612c43565b61246584848484612d60565b60005b8351811015610e335782818151811061249157634e487b7160e01b600052603260045260246000fd5b6020026020010151600660008684815181106124bd57634e487b7160e01b600052603260045260246000fd5b6020026020010151815260200190815260200160002060008282546124e291906150b4565b909155506124f19050816151a0565b9050612468565b612500611726565b61251c5760405162461bcd60e51b81526004016106ee906144cc565b6005805460ff191690557f5db9ee0a495bf2e6ff9c91a7834c1ba4fdd244a5e8aa4e537bd38aeae4b073aa61254f6121fb565b60405161255c919061410b565b60405180910390a1565b612571838383612ee2565b60005b82518110156126045781818151811061259d57634e487b7160e01b600052603260045260246000fd5b6020026020010151600660008584815181106125c957634e487b7160e01b600052603260045260246000fd5b6020026020010151815260200190815260200160002060008282546125ee919061510b565b909155506125fd9050816151a0565b9050612574565b50505050565b612612611726565b1561262f5760405162461bcd60e51b81526004016106ee906147dc565b6005805460ff191660011790557f62e78cea01bee320cd4e420270b5ea74000d11b0c9f74754ebdbfc544b05a25861254f6121fb565b6000611a768383613088565b6000610748826130c0565b61268582610aef565b612691816123f36121fb565b610e5c8383612bc0565b6001600160a01b0384166126c15760405162461bcd60e51b81526004016106ee90614870565b60006126cb6121fb565b90506126eb8187876126dc886130c4565b6126e5886130c4565b87612909565b60008481526002602090815260408083206001600160a01b038a1684529091529020548381101561272e5760405162461bcd60e51b81526004016106ee906149ca565b60008581526002602090815260408083206001600160a01b038b811685529252808320878503905590881682528120805486929061276d9084906150b4565b92505081905550856001600160a01b0316876001600160a01b0316836001600160a01b03167fc3d58168c5ae7397731d063d5bbf3d657854427343f4c083240f7aacaa2d0f6288886040516127c3929190614fdf565b60405180910390a46127d982888888888861311d565b50505050505050565b6127ed8383836131ee565b6000828152600660205260408120805483929061280b90849061510b565b9091555050505050565b61281f8282611a7d565b6121aa576000828152602081815260408083206001600160a01b03851684529091529020805460ff191660011790556128566121fb565b6001600160a01b0316816001600160a01b0316837f2f8788117e7eff1d82e926ec794901d17c78024a50270940304540a733656f0d60405160405180910390a45050565b60006128a68383613301565b6128dc5750815460018181018455600084815260208082209093018490558454848252828601909352604090209190915561071c565b50600061071c565b60006001600160e01b03198216630271189760e51b1480610748575061074882613319565b612917868686868686613359565b600c5460ff16156129985761294c7f8502233096d909befbda0999bb8ea2f3a6be3c138b9fbf003752a4c8bce86f6c86611a7d565b8061297c575061297c7f8502233096d909befbda0999bb8ea2f3a6be3c138b9fbf003752a4c8bce86f6c85611a7d565b6129985760405162461bcd60e51b81526004016106ee90614a27565b60005b83518110156127d957600d60008583815181106129c857634e487b7160e01b600052603260045260246000fd5b60209081029190910181015182528101919091526040016000206002015460ff1680156129fd5750600c54610100900460ff16155b15612a3c576001600160a01b0386161580612a2057506001600160a01b03861630145b612a3c5760405162461bcd60e51b81526004016106ee9061492a565b80612a46816151a0565b91505061299b565b612a60846001600160a01b0316613367565b156123d65760405163bc197c8160e01b81526001600160a01b0385169063bc197c8190612a99908990899088908890889060040161411f565b602060405180830381600087803b158015612ab357600080fd5b505af1925050508015612ae3575060408051601f3d908101601f19168201909252612ae091810190613ee3565b60015b612b2c57612aef6151ed565b80612afa5750612b14565b8060405162461bcd60e51b81526004016106ee91906143ca565b60405162461bcd60e51b81526004016106ee906143dd565b6001600160e01b0319811663bc197c8160e01b146127d95760405162461bcd60e51b81526004016106ee9061446f565b612b668282611a7d565b6121aa57612b7e816001600160a01b0316601461336d565b612b8983602061336d565b604051602001612b9a92919061408a565b60408051601f198184030181529082905262461bcd60e51b82526106ee916004016143ca565b612bca8282611a7d565b156121aa576000828152602081815260408083206001600160a01b03851684529091529020805460ff19169055612bff6121fb565b6001600160a01b0316816001600160a01b0316837ff6391f5c32d9c69d2a47ea670b442974b53935d1edc7fd64eb21e047a839171b60405160405180910390a45050565b60008181526001830160205260408120548015612d56576000612c6760018361510b565b8554909150600090612c7b9060019061510b565b9050818114612cfc576000866000018281548110612ca957634e487b7160e01b600052603260045260246000fd5b9060005260206000200154905080876000018481548110612cda57634e487b7160e01b600052603260045260246000fd5b6000918252602080832090910192909255918252600188019052604090208390555b8554869080612d1b57634e487b7160e01b600052603160045260246000fd5b60019003818190600052602060002001600090559055856001016000868152602001908152602001600020600090556001935050505061071c565b600091505061071c565b6001600160a01b038416612d865760405162461bcd60e51b81526004016106ee90614e68565b8151835114612da75760405162461bcd60e51b81526004016106ee90614e0b565b6000612db16121fb565b9050612dc281600087878787612909565b60005b8451811015612e7a57838181518110612dee57634e487b7160e01b600052603260045260246000fd5b602002602001015160026000878481518110612e1a57634e487b7160e01b600052603260045260246000fd5b602002602001015181526020019081526020016000206000886001600160a01b03166001600160a01b031681526020019081526020016000206000828254612e6291906150b4565b90915550819050612e72816151a0565b915050612dc5565b50846001600160a01b031660006001600160a01b0316826001600160a01b03167f4a39dc06d4c0dbc64b70af90fd698a233a518aa5d07e595d983b8c0526c8f7fb8787604051612ecb92919061432b565b60405180910390a4610e3381600087878787612a4e565b6001600160a01b038316612f085760405162461bcd60e51b81526004016106ee90614987565b8051825114612f295760405162461bcd60e51b81526004016106ee90614e0b565b6000612f336121fb565b9050612f5381856000868660405180602001604052806000815250612909565b60005b8351811015613037576000848281518110612f8157634e487b7160e01b600052603260045260246000fd5b602002602001015190506000848381518110612fad57634e487b7160e01b600052603260045260246000fd5b60209081029190910181015160008481526002835260408082206001600160a01b038c168352909352919091205490915081811015612ffe5760405162461bcd60e51b81526004016106ee90614560565b60009283526002602090815260408085206001600160a01b038b168652909152909220910390558061302f816151a0565b915050612f56565b5060006001600160a01b0316846001600160a01b0316826001600160a01b03167f4a39dc06d4c0dbc64b70af90fd698a233a518aa5d07e595d983b8c0526c8f7fb8686604051610dce92919061432b565b60008260000182815481106130ad57634e487b7160e01b600052603260045260246000fd5b9060005260206000200154905092915050565b5490565b6040805160018082528183019092526060916000919060208083019080368337019050509050828160008151811061310c57634e487b7160e01b600052603260045260246000fd5b602090810291909101015292915050565b61312f846001600160a01b0316613367565b156123d65760405163f23a6e6160e01b81526001600160a01b0385169063f23a6e6190613168908990899088908890889060040161417d565b602060405180830381600087803b15801561318257600080fd5b505af19250505080156131b2575060408051601f3d908101601f191682019092526131af91810190613ee3565b60015b6131be57612aef6151ed565b6001600160e01b0319811663f23a6e6160e01b146127d95760405162461bcd60e51b81526004016106ee9061446f565b6001600160a01b0383166132145760405162461bcd60e51b81526004016106ee90614987565b600061321e6121fb565b905061324e81856000613230876130c4565b613239876130c4565b60405180602001604052806000815250612909565b60008381526002602090815260408083206001600160a01b0388168452909152902054828110156132915760405162461bcd60e51b81526004016106ee90614560565b60008481526002602090815260408083206001600160a01b03808a16808652919093528184208786039055905190918516907fc3d58168c5ae7397731d063d5bbf3d657854427343f4c083240f7aacaa2d0f62906132f29089908990614fdf565b60405180910390a45050505050565b60009081526001919091016020526040902054151590565b60006001600160e01b03198216636cdb3d1360e11b148061334a57506001600160e01b031982166303a24d0760e21b145b8061074857506107488261352c565b6123d6868686868686613551565b3b151590565b6060600061337c8360026150ec565b6133879060026150b4565b67ffffffffffffffff8111156133ad57634e487b7160e01b600052604160045260246000fd5b6040519080825280601f01601f1916602001820160405280156133d7576020820181803683370190505b509050600360fc1b8160008151811061340057634e487b7160e01b600052603260045260246000fd5b60200101906001600160f81b031916908160001a905350600f60fb1b8160018151811061343d57634e487b7160e01b600052603260045260246000fd5b60200101906001600160f81b031916908160001a90535060006134618460026150ec565b61346c9060016150b4565b90505b600181111561350d577f303132333435363738396162636465660000000000000000000000000000000085600f16601081106134bb57634e487b7160e01b600052603260045260246000fd5b1a60f81b8282815181106134df57634e487b7160e01b600052603260045260246000fd5b60200101906001600160f81b031916908160001a90535060049490941c936135068161514e565b905061346f565b508315611a765760405162461bcd60e51b81526004016106ee9061443a565b60006001600160e01b03198216635a05180f60e01b1480610748575061074882613584565b61355f8686868686866123d6565b613567611726565b156123d65760405162461bcd60e51b81526004016106ee9061465e565b60006001600160e01b03198216637965db0b60e01b148061074857506301ffc9a760e01b6001600160e01b0319831614610748565b8280546135c590615165565b90600052602060002090601f0160209004810192826135e7576000855561362d565b82601f1061360057805160ff191683800117855561362d565b8280016001018555821561362d579182015b8281111561362d578251825591602001919060010190613612565b506136399291506136b1565b5090565b82805461364990615165565b90600052602060002090601f01602090048101928261366b576000855561362d565b82601f106136845782800160ff1982351617855561362d565b8280016001018555821561362d579182015b8281111561362d578235825591602001919060010190613696565b5b8082111561363957600081556001016136b2565b80356001600160a01b038116811461074b57600080fd5b60008083601f8401126136ee578182fd5b50813567ffffffffffffffff811115613705578182fd5b602083019150836020808302850101111561371f57600080fd5b9250929050565b600082601f830112613736578081fd5b8135602061374b6137468361505c565b615032565b8281528181019085830183850287018401881015613767578586fd5b855b8581101561378557813584529284019290840190600101613769565b5090979650505050505050565b600082601f8301126137a2578081fd5b813567ffffffffffffffff8111156137bc576137bc6151d1565b6137cf601f8201601f1916602001615032565b8181528460208386010111156137e3578283fd5b816020850160208301379081016020019190915292915050565b60008083601f84011261380e578182fd5b50813567ffffffffffffffff811115613825578182fd5b60208301915083602082850101111561371f57600080fd5b60006020828403121561384e578081fd5b611a76826136c6565b60008060408385031215613869578081fd5b613872836136c6565b9150610bbc602084016136c6565b600080600080600060a08688031215613897578081fd5b6138a0866136c6565b94506138ae602087016136c6565b9350604086013567ffffffffffffffff808211156138ca578283fd5b6138d689838a01613726565b945060608801359150808211156138eb578283fd5b6138f789838a01613726565b9350608088013591508082111561390c578283fd5b5061391988828901613792565b9150509295509295909350565b6000806000806080858703121561393b578384fd5b613944856136c6565b9350613952602086016136c6565b925060408501359150606085013567ffffffffffffffff811115613974578182fd5b61398087828801613792565b91505092959194509250565b600080600080600060a086880312156139a3578081fd5b6139ac866136c6565b94506139ba602087016136c6565b93506040860135925060608601359150608086013567ffffffffffffffff8111156139e3578182fd5b61391988828901613792565b6000806000806000806000806000806000806101008d8f031215613a1157898afd5b613a1a8d6136c6565b9b5067ffffffffffffffff60208e01351115613a3457898afd5b613a448e60208f01358f016136dd565b909b50995067ffffffffffffffff60408e01351115613a61578687fd5b613a718e60408f01358f016136dd565b909950975067ffffffffffffffff60608e01351115613a8e578687fd5b613a9e8e60608f01358f016136dd565b909750955067ffffffffffffffff60808e01351115613abb578485fd5b613acb8e60808f01358f016137fd565b9c9f9b9e50999c989b979a9699959895979660a08701359660c0810135965060e00135945092505050565b600080600060608486031215613b0a578081fd5b613b13846136c6565b9250602084013567ffffffffffffffff80821115613b2f578283fd5b613b3b87838801613726565b93506040860135915080821115613b50578283fd5b50613b5d86828701613726565b9150509250925092565b60008060008060808587031215613b7c578182fd5b613b85856136c6565b9350602085013567ffffffffffffffff80821115613ba1578384fd5b613bad88838901613726565b94506040870135915080821115613bc2578384fd5b613bce88838901613726565b93506060870135915080821115613be3578283fd5b5061398087828801613792565b60008060408385031215613c02578182fd5b613c0b836136c6565b91506020830135613c1b81615292565b809150509250929050565b60008060408385031215613c38578182fd5b613c41836136c6565b946020939093013593505050565b600080600060608486031215613c63578081fd5b613c6c846136c6565b95602085013595506040909401359392505050565b60008060008060808587031215613c96578182fd5b613c9f856136c6565b93506020850135925060408501359150606085013567ffffffffffffffff811115613974578182fd5b60008060408385031215613cda578182fd5b823567ffffffffffffffff80821115613cf1578384fd5b818501915085601f830112613d04578384fd5b81356020613d146137468361505c565b82815281810190858301838502870184018b1015613d30578889fd5b8896505b84871015613d5957613d45816136c6565b835260019690960195918301918301613d34565b5096505086013592505080821115613d6f578283fd5b50613d7c85828601613726565b9150509250929050565b60008060008060008060608789031215613d9e578384fd5b863567ffffffffffffffff80821115613db5578586fd5b613dc18a838b016136dd565b90985096506020890135915080821115613dd9578586fd5b613de58a838b016136dd565b90965094506040890135915080821115613dfd578384fd5b50613e0a89828a016136dd565b979a9699509497509295939492505050565b600060208284031215613e2d578081fd5b8135611a7681615292565b600060208284031215613e49578081fd5b8151611a7681615292565b600060208284031215613e65578081fd5b5035919050565b600060208284031215613e7d578081fd5b5051919050565b60008060408385031215613e96578182fd5b82359150610bbc602084016136c6565b60008060408385031215613eb8578182fd5b50508035926020909101359150565b600060208284031215613ed8578081fd5b8135611a76816152a3565b600060208284031215613ef4578081fd5b8151611a76816152a3565b60008060208385031215613f11578182fd5b823567ffffffffffffffff811115613f27578283fd5b613f33858286016137fd565b90969095509350505050565b600060208284031215613f50578081fd5b81516fffffffffffffffffffffffffffffffff81168114611a76578182fd5b818352602080840193600091908185020181018584845b87811015613fed5782840389528135601e19883603018112613fa6578687fd5b8701803567ffffffffffffffff811115613fbe578788fd5b803603891315613fcc578788fd5b613fd98682898501614060565b9a87019a9550505090840190600101613f86565b5091979650505050505050565b6000815180845260208085019450808401835b838110156140295781518752958201959082019060010161400d565b509495945050505050565b6000815180845261404c816020860160208601615122565b601f01601f19169290920160200192915050565b60008284528282602086013780602084860101526020601f19601f85011685010190509392505050565b60007f416363657373436f6e74726f6c3a206163636f756e7420000000000000000000825283516140c2816017850160208801615122565b7f206973206d697373696e6720726f6c652000000000000000000000000000000060179184019182015283516140ff816028840160208801615122565b01602801949350505050565b6001600160a01b0391909116815260200190565b60006001600160a01b03808816835280871660208401525060a0604083015261414b60a0830186613ffa565b828103606084015261415d8186613ffa565b905082810360808401526141718185614034565b98975050505050505050565b60006001600160a01b03808816835280871660208401525084604083015283606083015260a060808301526141b560a0830184614034565b979650505050505050565b6001600160a01b0394851681529290931660208301526040820152606081019190915260a06080820181905260009082015260c00190565b60006001600160a01b038716825260a0602083015261421a60a0830187614034565b905084151560408301528360608301526003831061424857634e487b7160e01b600052602160045260246000fd5b8260808301529695505050505050565b6001600160a01b03929092168252602082015260400190565b600060208252611a766020830184613ffa565b600060a0825261429760a083018b613ffa565b82810360208401526142aa818a8c613f6f565b905082810360408401526142be8189613ffa565b905082810360608401526142d3818789613f6f565b905082810360808401528381527f07ffffffffffffffffffffffffffffffffffffffffffffffffffffffffffffff84111561430c578182fd5b6020840280866020840137016020019081529998505050505050505050565b60006040825261433e6040830185613ffa565b82810360208401526143508185613ffa565b95945050505050565b901515815260200190565b90815260200190565b9182526001600160a01b0316602082015260400190565b6001600160e01b031991909116815260200190565b6000608082526143ad608083018789614060565b602083019590955250604081019290925260609091015292915050565b600060208252611a766020830184614034565b60208082526034908201527f455243313135353a207472616e7366657220746f206e6f6e204552433131353560408201527f526563656976657220696d706c656d656e746572000000000000000000000000606082015260800190565b6020808252818101527f537472696e67733a20686578206c656e67746820696e73756666696369656e74604082015260600190565b60208082526028908201527f455243313135353a204552433131353552656365697665722072656a6563746560408201527f6420746f6b656e73000000000000000000000000000000000000000000000000606082015260800190565b60208082526014908201527f5061757361626c653a206e6f7420706175736564000000000000000000000000604082015260600190565b6020808252602b908201527f455243313135353a2062616c616e636520717565727920666f7220746865207a60408201527f65726f2061646472657373000000000000000000000000000000000000000000606082015260800190565b60208082526024908201527f455243313135353a206275726e20616d6f756e7420657863656564732062616c604082015263616e636560e01b606082015260800190565b60208082526031908201527f4163636573734e46543a2063616e6e6f742075736520726567756c6172206d6960408201527f6e7442617463682066756e6374696f6e2e000000000000000000000000000000606082015260800190565b60208082526038908201527f4163636573734e46543a206f6e6c7920612070726f746f636f6c2061646d696e60408201527f2063616e2063616c6c20746869732066756e6374696f6e2e0000000000000000606082015260800190565b6020808252602c908201527f455243313135355061757361626c653a20746f6b656e207472616e736665722060408201527f7768696c65207061757365640000000000000000000000000000000000000000606082015260800190565b60208082526029908201527f455243313135353a2063616c6c6572206973206e6f74206f776e6572206e6f7260408201527f20617070726f7665640000000000000000000000000000000000000000000000606082015260800190565b6020808252602e908201527f4163636573734e46543a2043616e6e6f742072656465656d206d6f7265204e4660408201527f5473207468616e206f776e65642e000000000000000000000000000000000000606082015260800190565b60208082526041908201527f4163636573734e46543a204f6e6c79206163636f756e74732077697468204d4960408201527f4e5445525f524f4c452063616e2063616c6c20746869732066756e6374696f6e6060820152601760f91b608082015260a00190565b60208082526010908201527f5061757361626c653a2070617573656400000000000000000000000000000000604082015260600190565b60208082526028908201527f4163636573734e46543a204d75737420637265617465206174206c656173742060408201527f6f6e65204e46542e000000000000000000000000000000000000000000000000606082015260800190565b60208082526025908201527f455243313135353a207472616e7366657220746f20746865207a65726f20616460408201527f6472657373000000000000000000000000000000000000000000000000000000606082015260800190565b60208082526032908201527f455243313135353a207472616e736665722063616c6c6572206973206e6f742060408201527f6f776e6572206e6f7220617070726f7665640000000000000000000000000000606082015260800190565b60208082526039908201527f4163636573734e46543a2063616e6e6f74207472616e7366657220616e20616360408201527f63657373204e465420746861742069732072656465656d656400000000000000606082015260800190565b60208082526023908201527f455243313135353a206275726e2066726f6d20746865207a65726f206164647260408201526265737360e81b606082015260800190565b6020808252602a908201527f455243313135353a20696e73756666696369656e742062616c616e636520666f60408201527f72207472616e7366657200000000000000000000000000000000000000000000606082015260800190565b6020808252603c908201527f4163636573734e46543a205472616e736665727320617265207265737472696360408201527f74656420746f205452414e534645525f524f4c4520686f6c6465727300000000606082015260800190565b60208082526022908201527f4163636573734e46543a205468652070726f746f636f6c206973207061757365604082015261321760f11b606082015260800190565b6020808252602e908201527f4163636573734e46543a2057696e646f7720746f2072656465656d206163636560408201527f73732068617320636c6f7365642e000000000000000000000000000000000000606082015260800190565b60208082526033908201527f4163636573734e46543a205468697320746f6b656e206973206e6f742072656460408201527f65656d61626c6520666f72206163636573732e00000000000000000000000000606082015260800190565b60208082526034908201527f4163636573734e46543a2063616e207365742072656465656d2074696d65206660408201527f6f72206f6e6c7920416363657373204e4654732e000000000000000000000000606082015260800190565b60208082526036908201527f4163636573734e46543a204d757374207370656369667920657175616c206e7560408201527f6d626572206f6620636f6e6669672076616c7565732e00000000000000000000606082015260800190565b6020808252603b908201527f455243313135355072657365744d696e7465725061757365723a206d7573742060408201527f686176652070617573657220726f6c6520746f20756e70617573650000000000606082015260800190565b60208082526033908201527f4163636573734e46543a206f6e6c79207468652063726561746f722063616e2060408201527f63616c6c20746869732066756e6374696f6e2e00000000000000000000000000606082015260800190565b60208082526039908201527f455243313135355072657365744d696e7465725061757365723a206d7573742060408201527f686176652070617573657220726f6c6520746f20706175736500000000000000606082015260800190565b60208082526029908201527f455243313135353a2073657474696e6720617070726f76616c2073746174757360408201527f20666f722073656c660000000000000000000000000000000000000000000000606082015260800190565b60208082526029908201527f455243313135353a206163636f756e747320616e6420696473206c656e67746860408201527f206d69736d617463680000000000000000000000000000000000000000000000606082015260800190565b60208082526028908201527f455243313135353a2069647320616e6420616d6f756e7473206c656e6774682060408201527f6d69736d61746368000000000000000000000000000000000000000000000000606082015260800190565b60208082526021908201527f455243313135353a206d696e7420746f20746865207a65726f206164647265736040820152607360f81b606082015260800190565b60208082526029908201527f4e46543a204270732070726f7669646564206d757374206265206c657373207460408201527f68616e20392c3030300000000000000000000000000000000000000000000000606082015260800190565b6020808252602c908201527f4163636573734e46543a2063616e6e6f742075736520726567756c6172206d6960408201527f6e742066756e6374696f6e2e0000000000000000000000000000000000000000606082015260800190565b6020808252602f908201527f416363657373436f6e74726f6c3a2063616e206f6e6c792072656e6f756e636560408201527f20726f6c657320666f722073656c660000000000000000000000000000000000606082015260800190565b9283526001600160a01b03919091166020830152604082015260600190565b918252602082015260400190565b6000808335601e19843603018112615003578283fd5b83018035915067ffffffffffffffff82111561501d578283fd5b60200191503681900382131561371f57600080fd5b60405181810167ffffffffffffffff81118282101715615054576150546151d1565b604052919050565b600067ffffffffffffffff821115615076576150766151d1565b5060209081020190565b60006fffffffffffffffffffffffffffffffff8083168185168083038211156150ab576150ab6151bb565b01949350505050565b600082198211156150c7576150c76151bb565b500190565b6000826150e757634e487b7160e01b81526012600452602481fd5b500490565b6000816000190483118215151615615106576151066151bb565b500290565b60008282101561511d5761511d6151bb565b500390565b60005b8381101561513d578181015183820152602001615125565b838111156126045750506000910152565b60008161515d5761515d6151bb565b506000190190565b60028104600182168061517957607f821691505b6020821081141561519a57634e487b7160e01b600052602260045260246000fd5b50919050565b60006000198214156151b4576151b46151bb565b5060010190565b634e487b7160e01b600052601160045260246000fd5b634e487b7160e01b600052604160045260246000fd5b60e01c90565b600060443d10156151fd5761172d565b600481823e6308c379a061521182516151e7565b1461521b5761172d565b6040513d600319016004823e80513d67ffffffffffffffff816024840111818411171561524b575050505061172d565b82840192508251915080821115615265575050505061172d565b503d8301602082840101111561527d5750505061172d565b601f01601f1916810160200160405291505090565b80151581146152a057600080fd5b50565b6001600160e01b0319811681146152a057600080fdfea164736f6c6343000800000a9f2df0fed2c77648de5860a4cc508cd0818c85b8b8a1ab4ceeef8d981c8956a6",
  "linkReferences": {},
  "deployedLinkReferences": {}
}