{
  "_format": "hh-sol-artifact-1",
  "contractName": "AccessNFT_PL",
  "sourceName": "contracts/permissionless/AccessNFT_PL.sol",
  "abi": [
    {
      "inputs": [
        {
          "internalType": "address payable",
          "name": "_controlCenter",
          "type": "address"
        },
        {
          "internalType": "address",
          "name": "_trustedForwarder",
          "type": "address"
        },
        {
          "internalType": "string",
          "name": "_uri",
          "type": "string"
        }
      ],
      "stateMutability": "nonpayable",
      "type": "constructor"
    },
    {
      "anonymous": false,
      "inputs": [
        {
          "indexed": true,
          "internalType": "address",
          "name": "redeemer",
          "type": "address"
        },
        {
          "indexed": true,
          "internalType": "uint256",
          "name": "nftTokenId",
          "type": "uint256"
        },
        {
          "indexed": true,
          "internalType": "uint256",
          "name": "accessNftId",
          "type": "uint256"
        },
        {
          "indexed": false,
          "internalType": "uint256",
          "name": "amount",
          "type": "uint256"
        }
      ],
      "name": "AccessNFTRedeemed",
      "type": "event"
    },
    {
      "anonymous": false,
      "inputs": [
        {
          "indexed": true,
          "internalType": "address",
          "name": "creator",
          "type": "address"
        },
        {
          "indexed": false,
          "internalType": "uint256[]",
          "name": "nftIds",
          "type": "uint256[]"
        },
        {
          "indexed": false,
          "internalType": "string[]",
          "name": "nftURIs",
          "type": "string[]"
        },
        {
          "indexed": false,
          "internalType": "uint256[]",
          "name": "acessNftIds",
          "type": "uint256[]"
        },
        {
          "indexed": false,
          "internalType": "string[]",
          "name": "accessNftURIs",
          "type": "string[]"
        },
        {
          "indexed": false,
          "internalType": "uint256[]",
          "name": "nftSupplies",
          "type": "uint256[]"
        }
      ],
      "name": "AccessNFTsCreated",
      "type": "event"
    },
    {
      "anonymous": false,
      "inputs": [
        {
          "indexed": true,
          "internalType": "address",
          "name": "account",
          "type": "address"
        },
        {
          "indexed": true,
          "internalType": "address",
          "name": "operator",
          "type": "address"
        },
        {
          "indexed": false,
          "internalType": "bool",
          "name": "approved",
          "type": "bool"
        }
      ],
      "name": "ApprovalForAll",
      "type": "event"
    },
    {
      "anonymous": false,
      "inputs": [
        {
          "indexed": false,
          "internalType": "uint256",
          "name": "accessNftId",
          "type": "uint256"
        },
        {
          "indexed": false,
          "internalType": "address",
          "name": "creator",
          "type": "address"
        },
        {
          "indexed": false,
          "internalType": "uint256",
          "name": "lastTimeToRedeem",
          "type": "uint256"
        }
      ],
      "name": "LastRedeemTimeUpdated",
      "type": "event"
    },
    {
      "anonymous": false,
      "inputs": [
        {
          "indexed": false,
          "internalType": "address",
          "name": "account",
          "type": "address"
        }
      ],
      "name": "Paused",
      "type": "event"
    },
    {
      "anonymous": false,
      "inputs": [
        {
          "indexed": true,
          "internalType": "bytes32",
          "name": "role",
          "type": "bytes32"
        },
        {
          "indexed": true,
          "internalType": "bytes32",
          "name": "previousAdminRole",
          "type": "bytes32"
        },
        {
          "indexed": true,
          "internalType": "bytes32",
          "name": "newAdminRole",
          "type": "bytes32"
        }
      ],
      "name": "RoleAdminChanged",
      "type": "event"
    },
    {
      "anonymous": false,
      "inputs": [
        {
          "indexed": true,
          "internalType": "bytes32",
          "name": "role",
          "type": "bytes32"
        },
        {
          "indexed": true,
          "internalType": "address",
          "name": "account",
          "type": "address"
        },
        {
          "indexed": true,
          "internalType": "address",
          "name": "sender",
          "type": "address"
        }
      ],
      "name": "RoleGranted",
      "type": "event"
    },
    {
      "anonymous": false,
      "inputs": [
        {
          "indexed": true,
          "internalType": "bytes32",
          "name": "role",
          "type": "bytes32"
        },
        {
          "indexed": true,
          "internalType": "address",
          "name": "account",
          "type": "address"
        },
        {
          "indexed": true,
          "internalType": "address",
          "name": "sender",
          "type": "address"
        }
      ],
      "name": "RoleRevoked",
      "type": "event"
    },
    {
      "anonymous": false,
      "inputs": [
        {
          "indexed": false,
          "internalType": "uint256",
          "name": "royaltyBps",
          "type": "uint256"
        }
      ],
      "name": "RoyaltyUpdated",
      "type": "event"
    },
    {
      "anonymous": false,
      "inputs": [
        {
          "indexed": true,
          "internalType": "address",
          "name": "operator",
          "type": "address"
        },
        {
          "indexed": true,
          "internalType": "address",
          "name": "from",
          "type": "address"
        },
        {
          "indexed": true,
          "internalType": "address",
          "name": "to",
          "type": "address"
        },
        {
          "indexed": false,
          "internalType": "uint256[]",
          "name": "ids",
          "type": "uint256[]"
        },
        {
          "indexed": false,
          "internalType": "uint256[]",
          "name": "values",
          "type": "uint256[]"
        }
      ],
      "name": "TransferBatch",
      "type": "event"
    },
    {
      "anonymous": false,
      "inputs": [
        {
          "indexed": true,
          "internalType": "address",
          "name": "operator",
          "type": "address"
        },
        {
          "indexed": true,
          "internalType": "address",
          "name": "from",
          "type": "address"
        },
        {
          "indexed": true,
          "internalType": "address",
          "name": "to",
          "type": "address"
        },
        {
          "indexed": false,
          "internalType": "uint256",
          "name": "id",
          "type": "uint256"
        },
        {
          "indexed": false,
          "internalType": "uint256",
          "name": "value",
          "type": "uint256"
        }
      ],
      "name": "TransferSingle",
      "type": "event"
    },
    {
      "anonymous": false,
      "inputs": [
        {
          "indexed": false,
          "internalType": "string",
          "name": "value",
          "type": "string"
        },
        {
          "indexed": true,
          "internalType": "uint256",
          "name": "id",
          "type": "uint256"
        }
      ],
      "name": "URI",
      "type": "event"
    },
    {
      "anonymous": false,
      "inputs": [
        {
          "indexed": false,
          "internalType": "address",
          "name": "account",
          "type": "address"
        }
      ],
      "name": "Unpaused",
      "type": "event"
    },
    {
      "inputs": [],
      "name": "DEFAULT_ADMIN_ROLE",
      "outputs": [
        {
          "internalType": "bytes32",
          "name": "",
          "type": "bytes32"
        }
      ],
      "stateMutability": "view",
      "type": "function"
    },
    {
      "inputs": [],
      "name": "MINTER_ROLE",
      "outputs": [
        {
          "internalType": "bytes32",
          "name": "",
          "type": "bytes32"
        }
      ],
      "stateMutability": "view",
      "type": "function"
    },
    {
      "inputs": [],
      "name": "PAUSER_ROLE",
      "outputs": [
        {
          "internalType": "bytes32",
          "name": "",
          "type": "bytes32"
        }
      ],
      "stateMutability": "view",
      "type": "function"
    },
    {
      "inputs": [],
      "name": "TRANSFER_ROLE",
      "outputs": [
        {
          "internalType": "bytes32",
          "name": "",
          "type": "bytes32"
        }
      ],
      "stateMutability": "view",
      "type": "function"
    },
    {
      "inputs": [],
      "name": "_contractURI",
      "outputs": [
        {
          "internalType": "string",
          "name": "",
          "type": "string"
        }
      ],
      "stateMutability": "view",
      "type": "function"
    },
    {
      "inputs": [
        {
          "internalType": "address",
          "name": "account",
          "type": "address"
        },
        {
          "internalType": "uint256",
          "name": "id",
          "type": "uint256"
        }
      ],
      "name": "balanceOf",
      "outputs": [
        {
          "internalType": "uint256",
          "name": "",
          "type": "uint256"
        }
      ],
      "stateMutability": "view",
      "type": "function"
    },
    {
      "inputs": [
        {
          "internalType": "address[]",
          "name": "accounts",
          "type": "address[]"
        },
        {
          "internalType": "uint256[]",
          "name": "ids",
          "type": "uint256[]"
        }
      ],
      "name": "balanceOfBatch",
      "outputs": [
        {
          "internalType": "uint256[]",
          "name": "",
          "type": "uint256[]"
        }
      ],
      "stateMutability": "view",
      "type": "function"
    },
    {
      "inputs": [
        {
          "internalType": "address",
          "name": "account",
          "type": "address"
        },
        {
          "internalType": "uint256",
          "name": "id",
          "type": "uint256"
        },
        {
          "internalType": "uint256",
          "name": "value",
          "type": "uint256"
        }
      ],
      "name": "burn",
      "outputs": [],
      "stateMutability": "nonpayable",
      "type": "function"
    },
    {
      "inputs": [
        {
          "internalType": "address",
          "name": "account",
          "type": "address"
        },
        {
          "internalType": "uint256[]",
          "name": "ids",
          "type": "uint256[]"
        },
        {
          "internalType": "uint256[]",
          "name": "values",
          "type": "uint256[]"
        }
      ],
      "name": "burnBatch",
      "outputs": [],
      "stateMutability": "nonpayable",
      "type": "function"
    },
    {
      "inputs": [],
      "name": "contractURI",
      "outputs": [
        {
          "internalType": "string",
          "name": "",
          "type": "string"
        }
      ],
      "stateMutability": "view",
      "type": "function"
    },
    {
      "inputs": [
        {
          "internalType": "string[]",
          "name": "_nftURIs",
          "type": "string[]"
        },
        {
          "internalType": "string[]",
          "name": "_accessNftURIs",
          "type": "string[]"
        },
        {
          "internalType": "uint256[]",
          "name": "_nftSupplies",
          "type": "uint256[]"
        }
      ],
      "name": "createAccessNfts",
      "outputs": [
        {
          "internalType": "uint256[]",
          "name": "nftIds",
          "type": "uint256[]"
        }
      ],
      "stateMutability": "nonpayable",
      "type": "function"
    },
    {
      "inputs": [
        {
          "internalType": "address",
          "name": "_pack",
          "type": "address"
        },
        {
          "internalType": "string[]",
          "name": "_nftURIs",
          "type": "string[]"
        },
        {
          "internalType": "string[]",
          "name": "_accessNftURIs",
          "type": "string[]"
        },
        {
          "internalType": "uint256[]",
          "name": "_nftSupplies",
          "type": "uint256[]"
        },
        {
          "internalType": "string",
          "name": "_packURI",
          "type": "string"
        },
        {
          "internalType": "uint256",
          "name": "_secondsUntilOpenStart",
          "type": "uint256"
        },
        {
          "internalType": "uint256",
          "name": "_secondsUntilOpenEnd",
          "type": "uint256"
        },
        {
          "internalType": "uint256",
          "name": "_nftsPerOpen",
          "type": "uint256"
        }
      ],
      "name": "createAccessPack",
      "outputs": [],
      "stateMutability": "nonpayable",
      "type": "function"
    },
    {
      "inputs": [
        {
          "internalType": "bytes32",
          "name": "role",
          "type": "bytes32"
        }
      ],
      "name": "getRoleAdmin",
      "outputs": [
        {
          "internalType": "bytes32",
          "name": "",
          "type": "bytes32"
        }
      ],
      "stateMutability": "view",
      "type": "function"
    },
    {
      "inputs": [
        {
          "internalType": "bytes32",
          "name": "role",
          "type": "bytes32"
        },
        {
          "internalType": "uint256",
          "name": "index",
          "type": "uint256"
        }
      ],
      "name": "getRoleMember",
      "outputs": [
        {
          "internalType": "address",
          "name": "",
          "type": "address"
        }
      ],
      "stateMutability": "view",
      "type": "function"
    },
    {
      "inputs": [
        {
          "internalType": "bytes32",
          "name": "role",
          "type": "bytes32"
        }
      ],
      "name": "getRoleMemberCount",
      "outputs": [
        {
          "internalType": "uint256",
          "name": "",
          "type": "uint256"
        }
      ],
      "stateMutability": "view",
      "type": "function"
    },
    {
      "inputs": [
        {
          "internalType": "bytes32",
          "name": "role",
          "type": "bytes32"
        },
        {
          "internalType": "address",
          "name": "account",
          "type": "address"
        }
      ],
      "name": "grantRole",
      "outputs": [],
      "stateMutability": "nonpayable",
      "type": "function"
    },
    {
      "inputs": [
        {
          "internalType": "bytes32",
          "name": "role",
          "type": "bytes32"
        },
        {
          "internalType": "address",
          "name": "account",
          "type": "address"
        }
      ],
      "name": "hasRole",
      "outputs": [
        {
          "internalType": "bool",
          "name": "",
          "type": "bool"
        }
      ],
      "stateMutability": "view",
      "type": "function"
    },
    {
      "inputs": [
        {
          "internalType": "address",
          "name": "account",
          "type": "address"
        },
        {
          "internalType": "address",
          "name": "operator",
          "type": "address"
        }
      ],
      "name": "isApprovedForAll",
      "outputs": [
        {
          "internalType": "bool",
          "name": "",
          "type": "bool"
        }
      ],
      "stateMutability": "view",
      "type": "function"
    },
    {
      "inputs": [
        {
          "internalType": "uint256",
          "name": "_nftId",
          "type": "uint256"
        }
      ],
      "name": "isRedeemed",
      "outputs": [
        {
          "internalType": "bool",
          "name": "",
          "type": "bool"
        }
      ],
      "stateMutability": "view",
      "type": "function"
    },
    {
      "inputs": [],
      "name": "isRestrictedTransfer",
      "outputs": [
        {
          "internalType": "bool",
          "name": "",
          "type": "bool"
        }
      ],
      "stateMutability": "view",
      "type": "function"
    },
    {
      "inputs": [
        {
          "internalType": "address",
          "name": "forwarder",
          "type": "address"
        }
      ],
      "name": "isTrustedForwarder",
      "outputs": [
        {
          "internalType": "bool",
          "name": "",
          "type": "bool"
        }
      ],
      "stateMutability": "view",
      "type": "function"
    },
    {
      "inputs": [
        {
          "internalType": "uint256",
          "name": "",
          "type": "uint256"
        }
      ],
      "name": "lastTimeToRedeem",
      "outputs": [
        {
          "internalType": "uint256",
          "name": "",
          "type": "uint256"
        }
      ],
      "stateMutability": "view",
      "type": "function"
    },
    {
      "inputs": [
        {
          "internalType": "address",
          "name": "",
          "type": "address"
        },
        {
          "internalType": "uint256",
          "name": "",
          "type": "uint256"
        },
        {
          "internalType": "uint256",
          "name": "",
          "type": "uint256"
        },
        {
          "internalType": "bytes",
          "name": "",
          "type": "bytes"
        }
      ],
      "name": "mint",
      "outputs": [],
      "stateMutability": "pure",
      "type": "function"
    },
    {
      "inputs": [
        {
          "internalType": "address",
          "name": "",
          "type": "address"
        },
        {
          "internalType": "uint256[]",
          "name": "",
          "type": "uint256[]"
        },
        {
          "internalType": "uint256[]",
          "name": "",
          "type": "uint256[]"
        },
        {
          "internalType": "bytes",
          "name": "",
          "type": "bytes"
        }
      ],
      "name": "mintBatch",
      "outputs": [],
      "stateMutability": "pure",
      "type": "function"
    },
    {
      "inputs": [],
      "name": "nextTokenId",
      "outputs": [
        {
          "internalType": "uint256",
          "name": "",
          "type": "uint256"
        }
      ],
      "stateMutability": "view",
      "type": "function"
    },
    {
      "inputs": [
        {
          "internalType": "uint256",
          "name": "",
          "type": "uint256"
        }
      ],
      "name": "nftInfo",
      "outputs": [
        {
          "internalType": "address",
          "name": "creator",
          "type": "address"
        },
        {
          "internalType": "string",
          "name": "uri",
          "type": "string"
        },
        {
          "internalType": "uint256",
          "name": "supply",
          "type": "uint256"
        },
        {
          "internalType": "bool",
          "name": "isAccess",
          "type": "bool"
        },
        {
          "internalType": "uint256",
          "name": "accessNftId",
          "type": "uint256"
        },
        {
          "internalType": "enum AccessNFT.UnderlyingType",
          "name": "underlyingType",
          "type": "uint8"
        }
      ],
      "stateMutability": "view",
      "type": "function"
    },
    {
      "inputs": [
        {
          "internalType": "address",
          "name": "",
          "type": "address"
        },
        {
          "internalType": "address",
          "name": "",
          "type": "address"
        },
        {
          "internalType": "uint256[]",
          "name": "",
          "type": "uint256[]"
        },
        {
          "internalType": "uint256[]",
          "name": "",
          "type": "uint256[]"
        },
        {
          "internalType": "bytes",
          "name": "",
          "type": "bytes"
        }
      ],
      "name": "onERC1155BatchReceived",
      "outputs": [
        {
          "internalType": "bytes4",
          "name": "",
          "type": "bytes4"
        }
      ],
      "stateMutability": "nonpayable",
      "type": "function"
    },
    {
      "inputs": [
        {
          "internalType": "address",
          "name": "",
          "type": "address"
        },
        {
          "internalType": "address",
          "name": "",
          "type": "address"
        },
        {
          "internalType": "uint256",
          "name": "",
          "type": "uint256"
        },
        {
          "internalType": "uint256",
          "name": "",
          "type": "uint256"
        },
        {
          "internalType": "bytes",
          "name": "",
          "type": "bytes"
        }
      ],
      "name": "onERC1155Received",
      "outputs": [
        {
          "internalType": "bytes4",
          "name": "",
          "type": "bytes4"
        }
      ],
      "stateMutability": "nonpayable",
      "type": "function"
    },
    {
      "inputs": [],
      "name": "pause",
      "outputs": [],
      "stateMutability": "nonpayable",
      "type": "function"
    },
    {
      "inputs": [],
      "name": "paused",
      "outputs": [
        {
          "internalType": "bool",
          "name": "",
          "type": "bool"
        }
      ],
      "stateMutability": "view",
      "type": "function"
    },
    {
      "inputs": [
        {
          "internalType": "uint256",
          "name": "_tokenId",
          "type": "uint256"
        },
        {
          "internalType": "uint256",
          "name": "_amount",
          "type": "uint256"
        }
      ],
      "name": "redeemAccess",
      "outputs": [],
      "stateMutability": "nonpayable",
      "type": "function"
    },
    {
      "inputs": [
        {
          "internalType": "bytes32",
          "name": "role",
          "type": "bytes32"
        },
        {
          "internalType": "address",
          "name": "account",
          "type": "address"
        }
      ],
      "name": "renounceRole",
      "outputs": [],
      "stateMutability": "nonpayable",
      "type": "function"
    },
    {
      "inputs": [
        {
          "internalType": "bytes32",
          "name": "role",
          "type": "bytes32"
        },
        {
          "internalType": "address",
          "name": "account",
          "type": "address"
        }
      ],
      "name": "revokeRole",
      "outputs": [],
      "stateMutability": "nonpayable",
      "type": "function"
    },
    {
      "inputs": [],
      "name": "royaltyBps",
      "outputs": [
        {
          "internalType": "uint256",
          "name": "",
          "type": "uint256"
        }
      ],
      "stateMutability": "view",
      "type": "function"
    },
    {
      "inputs": [
        {
          "internalType": "uint256",
          "name": "tokenId",
          "type": "uint256"
        },
        {
          "internalType": "uint256",
          "name": "salePrice",
          "type": "uint256"
        }
      ],
      "name": "royaltyInfo",
      "outputs": [
        {
          "internalType": "address",
          "name": "receiver",
          "type": "address"
        },
        {
          "internalType": "uint256",
          "name": "royaltyAmount",
          "type": "uint256"
        }
      ],
      "stateMutability": "view",
      "type": "function"
    },
    {
      "inputs": [
        {
          "internalType": "address",
          "name": "from",
          "type": "address"
        },
        {
          "internalType": "address",
          "name": "to",
          "type": "address"
        },
        {
          "internalType": "uint256[]",
          "name": "ids",
          "type": "uint256[]"
        },
        {
          "internalType": "uint256[]",
          "name": "amounts",
          "type": "uint256[]"
        },
        {
          "internalType": "bytes",
          "name": "data",
          "type": "bytes"
        }
      ],
      "name": "safeBatchTransferFrom",
      "outputs": [],
      "stateMutability": "nonpayable",
      "type": "function"
    },
    {
      "inputs": [
        {
          "internalType": "address",
          "name": "from",
          "type": "address"
        },
        {
          "internalType": "address",
          "name": "to",
          "type": "address"
        },
        {
          "internalType": "uint256",
          "name": "id",
          "type": "uint256"
        },
        {
          "internalType": "uint256",
          "name": "amount",
          "type": "uint256"
        },
        {
          "internalType": "bytes",
          "name": "data",
          "type": "bytes"
        }
      ],
      "name": "safeTransferFrom",
      "outputs": [],
      "stateMutability": "nonpayable",
      "type": "function"
    },
    {
      "inputs": [
        {
          "internalType": "address",
          "name": "operator",
          "type": "address"
        },
        {
          "internalType": "bool",
          "name": "approved",
          "type": "bool"
        }
      ],
      "name": "setApprovalForAll",
      "outputs": [],
      "stateMutability": "nonpayable",
      "type": "function"
    },
    {
      "inputs": [
        {
          "internalType": "string",
          "name": "_URI",
          "type": "string"
        }
      ],
      "name": "setContractURI",
      "outputs": [],
      "stateMutability": "nonpayable",
      "type": "function"
    },
    {
      "inputs": [
        {
          "internalType": "uint256",
          "name": "_tokenId",
          "type": "uint256"
        },
        {
          "internalType": "uint256",
          "name": "_secondsUntilRedeem",
          "type": "uint256"
        }
      ],
      "name": "setLastTimeToRedeem",
      "outputs": [],
      "stateMutability": "nonpayable",
      "type": "function"
    },
    {
      "inputs": [
        {
          "internalType": "bool",
          "name": "_restrictedTransfer",
          "type": "bool"
        }
      ],
      "name": "setRestrictedTransfer",
      "outputs": [],
      "stateMutability": "nonpayable",
      "type": "function"
    },
    {
      "inputs": [
        {
          "internalType": "uint256",
          "name": "_royaltyBps",
          "type": "uint256"
        }
      ],
      "name": "setRoyaltyBps",
      "outputs": [],
      "stateMutability": "nonpayable",
      "type": "function"
    },
    {
      "inputs": [
        {
          "internalType": "bytes4",
          "name": "interfaceId",
          "type": "bytes4"
        }
      ],
      "name": "supportsInterface",
      "outputs": [
        {
          "internalType": "bool",
          "name": "",
          "type": "bool"
        }
      ],
      "stateMutability": "pure",
      "type": "function"
    },
    {
      "inputs": [
        {
          "internalType": "uint256",
          "name": "_nftId",
          "type": "uint256"
        }
      ],
      "name": "tokenURI",
      "outputs": [
        {
          "internalType": "string",
          "name": "",
          "type": "string"
        }
      ],
      "stateMutability": "view",
      "type": "function"
    },
    {
      "inputs": [],
      "name": "unpause",
      "outputs": [],
      "stateMutability": "nonpayable",
      "type": "function"
    },
    {
      "inputs": [
        {
          "internalType": "uint256",
          "name": "_nftId",
          "type": "uint256"
        }
      ],
      "name": "uri",
      "outputs": [
        {
          "internalType": "string",
          "name": "",
          "type": "string"
        }
      ],
      "stateMutability": "view",
      "type": "function"
    }
  ],
  "bytecode": "0x60806040523480156200001157600080fd5b506040516200570c3803806200570c833981016040819052620000349162000431565b82828281818062000045816200013d565b506005805460ff191690556200006660006200006062000156565b62000173565b62000084600080516020620056ec8339815191526200006062000156565b620000b37f65d7a28e3265b37a6474929f336521b332c1681b933f6cb9f3376673440d862a6200006062000156565b5060058054610100600160a81b0319166101006001600160a01b0393841602179055600680546001600160a01b0319169185169190911790558051620001019060099060208401906200038b565b50620001317f8502233096d909befbda0999bb8ea2f3a6be3c138b9fbf003752a4c8bce86f6c6200006062000156565b5050505050506200059a565b8051620001529060049060208401906200038b565b5050565b60006200016d620001b660201b6200207b1760201c565b90505b90565b6200018a8282620001f660201b620020a91760201c565b6000828152600160209081526040909120620001b1918390620020b762000202821b17901c565b505050565b6000620001c33362000222565b15620001d9575060131936013560601c62000170565b620001ee6200023b60201b620020cc1760201c565b905062000170565b6200015282826200023f565b600062000219836001600160a01b038416620002c9565b90505b92915050565b60055461010090046001600160a01b0390811691161490565b3390565b6200024b828262000318565b62000152576000828152602081815260408083206001600160a01b03851684529091529020805460ff191660011790556200028562000156565b6001600160a01b0316816001600160a01b0316837f2f8788117e7eff1d82e926ec794901d17c78024a50270940304540a733656f0d60405160405180910390a45050565b6000620002d783836200034a565b6200030f575081546001818101845560008481526020808220909301849055845484825282860190935260409020919091556200021c565b5060006200021c565b6000600080516020620056ec8339815191528314806200021957506200021983836200036260201b620020d01760201c565b60009081526001919091016020526040902054151590565b6000918252602082815260408084206001600160a01b0393909316845291905290205460ff1690565b82805462000399906200052e565b90600052602060002090601f016020900481019282620003bd576000855562000408565b82601f10620003d857805160ff191683800117855562000408565b8280016001018555821562000408579182015b8281111562000408578251825591602001919060010190620003eb565b50620004169291506200041a565b5090565b5b808211156200041657600081556001016200041b565b60008060006060848603121562000446578283fd5b8351620004538162000581565b80935050602080850151620004688162000581565b60408601519093506001600160401b038082111562000485578384fd5b818701915087601f83011262000499578384fd5b815181811115620004ae57620004ae6200056b565b604051601f8201601f1916810185018381118282101715620004d457620004d46200056b565b60405281815283820185018a1015620004eb578586fd5b8592505b818310156200050e5783830185015181840186015291840191620004ef565b818311156200051f57858583830101525b80955050505050509250925092565b6002810460018216806200054357607f821691505b602082108114156200056557634e487b7160e01b600052602260045260246000fd5b50919050565b634e487b7160e01b600052604160045260246000fd5b6001600160a01b03811681146200059757600080fd5b50565b61514280620005aa6000396000f3fe608060405234801561001057600080fd5b50600436106103095760003560e01c806375794a3c1161019c578063c0e72740116100ee578063e63ab1e911610097578063f23a6e6111610071578063f23a6e6114610621578063f242432a14610634578063f5298aca1461064757610309565b8063e63ab1e9146105fe578063e8a3d48514610606578063e985e9c51461060e57610309565b8063ca15c873116100c8578063ca15c873146105d0578063d5391393146105e3578063d547741f146105eb57610309565b8063c0e72740146105c0578063c63adb2b146105c8578063c87b56dd1461035757610309565b80639010d07c11610150578063a217fddf1161012a578063a217fddf14610585578063a22cb4651461058d578063bc197c81146105a057610309565b80639010d07c1461053f57806391d148541461055f578063938e3d7b1461057257610309565b80638456cb59116101815780638456cb59146105115780638aa01653146105195780638ba448c21461052c57610309565b806375794a3c1461050157806383661b291461050957610309565b80632eb2c2d6116102605780634487f6b4116102095780635c975abb116101e35780635c975abb146104d35780636b20c454146104db578063731133e9146104ee57610309565b80634487f6b41461049a5780634e1273f4146104ad578063572b6c05146104c057610309565b806336568abe1161023a57806336568abe1461045f5780633c16b12e146104725780633f4ba83a1461049257610309565b80632eb2c2d6146104265780632f2ff15d1461043957806332d33cd01461044c57610309565b80631f7fdffa116102c2578063248a9ca31161029c578063248a9ca3146103df5780632a55205a146103f25780632e14bee81461041357610309565b80631f7fdffa1461039f5780631f8bc790146103b2578063206b60f9146103d757610309565b80630e89341c116102f35780630e89341c1461035757806317ffeba2146103775780631f72d8311461038a57610309565b8062fdd58e1461030e57806301ffc9a714610337575b600080fd5b61032161031c366004613a8f565b61065a565b60405161032e91906141e0565b60405180910390f35b61034a610345366004613d3c565b6106b6565b60405161032e91906141d5565b61036a610365366004613cc9565b61070a565b60405161032e9190614246565b610321610385366004613cc9565b6107af565b61039d610398366004613cc9565b6107c1565b005b61039d6103ad3660046139c4565b610a5d565b6103c56103c0366004613cc9565b610a75565b60405161032e9695949392919061406d565b610321610b42565b6103216103ed366004613cc9565b610b66565b610405610400366004613d1b565b610b7b565b60405161032e9291906140d4565b61039d610421366004613d1b565b610c3c565b61039d610434366004613743565b610e53565b61039d610447366004613cf9565b610eb1565b61034a61045a366004613cc9565b610ed8565b61039d61046d366004613cf9565b610ef0565b610485610480366004613bfb565b610f12565b60405161032e91906140ed565b61039d6115cb565b61039d6104a8366004613d1b565b61161d565b6104856104bb366004613b3d565b611709565b61034a6104ce366004613700565b611829565b61034a611842565b61039d6104e9366004613953565b61184c565b61039d6104fc366004613aea565b6118a1565b6103216118b9565b61034a6118bf565b61039d6118cf565b61039d61052736600461384c565b61191f565b61039d61053a366004613c91565b611a58565b61055261054d366004613d1b565b611ba7565b60405161032e9190613f80565b61034a61056d366004613cf9565b611bc6565b61039d610580366004613d74565b611bfb565b610321611d1d565b61039d61059b366004613a59565b611d22565b6105b36105ae366004613743565b611df0565b60405161032e9190614200565b61036a611e01565b610321611e8f565b6103216105de366004613cc9565b611e95565b610321611eac565b61039d6105f9366004613cf9565b611ed0565b610321611eda565b61036a611efe565b61034a61061c36600461371a565b611f90565b6105b361062f3660046137e9565b611fbe565b61039d6106423660046137e9565b611fcf565b61039d610655366004613ab8565b612026565b60006001600160a01b03831661068b5760405162461bcd60e51b81526004016106829061437f565b60405180910390fd5b5060008181526002602090815260408083206001600160a01b03861684529091529020545b92915050565b60006001600160e01b03198216630271189760e51b14806106e757506001600160e01b03198216636cdb3d1360e11b145b8061070257506001600160e01b0319821663152a902d60e11b145b90505b919050565b6000818152600a6020526040902060010180546060919061072a90614fe1565b80601f016020809104026020016040519081016040528092919081815260200182805461075690614fe1565b80156107a35780601f10610778576101008083540402835291602001916107a3565b820191906000526020600020905b81548152906001019060200180831161078657829003601f168201915b50505050509050919050565b600b6020526000908152604090205481565b60065460408051634a32c6bf60e11b815290516001600160a01b03909216916391d148549183916394658d7e91600480820192602092909190829003018186803b15801561080e57600080fd5b505afa158015610822573d6000803e3d6000fd5b505050506040513d601f19601f820116820180604052508101906108469190613ce1565b61084e6120f9565b6040518363ffffffff1660e01b815260040161086b9291906141e9565b60206040518083038186803b15801561088357600080fd5b505afa158015610897573d6000803e3d6000fd5b505050506040513d601f19601f820116820180604052508101906108bb9190613cad565b6108d75760405162461bcd60e51b81526004016106829061447d565b600660009054906101000a90046001600160a01b03166001600160a01b0316635cd423156040518163ffffffff1660e01b815260040160206040518083038186803b15801561092557600080fd5b505afa158015610939573d6000803e3d6000fd5b505050506040513d601f19601f8201168201806040525081019061095d9190613db4565b600660009054906101000a90046001600160a01b03166001600160a01b031663fd967f476040518163ffffffff1660e01b815260040160206040518083038186803b1580156109ab57600080fd5b505afa1580156109bf573d6000803e3d6000fd5b505050506040513d601f19601f820116820180604052508101906109e39190613db4565b6109ed9190614efc565b6fffffffffffffffffffffffffffffffff168110610a1d5760405162461bcd60e51b815260040161068290614d25565b60088190556040517f244ea8d7627f5a08f4299862bd5a45752842c183aee5b0fb0d1e4887bfa605b390610a529083906141e0565b60405180910390a150565b60405162461bcd60e51b815260040161068290614420565b600a60205260009081526040902080546001820180546001600160a01b039092169291610aa190614fe1565b80601f0160208091040260200160405190810160405280929190818152602001828054610acd90614fe1565b8015610b1a5780601f10610aef57610100808354040283529160200191610b1a565b820191906000526020600020905b815481529060010190602001808311610afd57829003601f168201915b505050506002830154600384015460048501546005909501549394919360ff91821693501686565b7f8502233096d909befbda0999bb8ea2f3a6be3c138b9fbf003752a4c8bce86f6c81565b60009081526020819052604090206001015490565b6000828152600a6020908152604080832054600654825163fd967f4760e01b815292516001600160a01b039283169594919092169263fd967f479260048083019392829003018186803b158015610bd157600080fd5b505afa158015610be5573d6000803e3d6000fd5b505050506040513d601f19601f82011682018060405250810190610c099190613db4565b6fffffffffffffffffffffffffffffffff1660085484610c299190614f68565b610c339190614f48565b90509250929050565b600660009054906101000a90046001600160a01b03166001600160a01b0316639d2f83f06040518163ffffffff1660e01b815260040160206040518083038186803b158015610c8a57600080fd5b505afa158015610c9e573d6000803e3d6000fd5b505050506040513d601f19601f82011682018060405250810190610cc29190613cad565b15610cdf5760405162461bcd60e51b815260040161068290614900565b6000828152600a602052604090206003015460ff1615610d115760405162461bcd60e51b81526004016106829061499f565b6000610d1b6120f9565b905081610d28828561065a565b1015610d465760405162461bcd60e51b815260040161068290614594565b610d58610d516120f9565b8484612026565b6000838152600a6020908152604080832060040154808452600b9092529091205442111580610d9357506000818152600b6020526040902054155b610daf5760405162461bcd60e51b815260040161068290614942565b604051637921219560e11b8152309063f242432a90610dd8908390869086908990600401614035565b600060405180830381600087803b158015610df257600080fd5b505af1158015610e06573d6000803e3d6000fd5b505050508084836001600160a01b03167fa70022dc131dbd0be52c08bf87947e36b3e7d4934dce1efecf2d261c381d101786604051610e4591906141e0565b60405180910390a450505050565b610e5b6120f9565b6001600160a01b0316856001600160a01b03161480610e815750610e818561061c6120f9565b610e9d5760405162461bcd60e51b815260040161068290614749565b610eaa8585858585612108565b5050505050565b610ebb82826122dc565b6000828152600160205260409020610ed390826120b7565b505050565b6000908152600a602052604090206003015460ff1690565b610efa8282612300565b6000828152600160205260409020610ed39082612342565b600654604080516309d2f83f60e41b815290516060926001600160a01b031691639d2f83f0916004808301926020929190829003018186803b158015610f5757600080fd5b505afa158015610f6b573d6000803e3d6000fd5b505050506040513d601f19601f82011682018060405250810190610f8f9190613cad565b15610fac5760405162461bcd60e51b815260040161068290614900565b610fd87f9f2df0fed2c77648de5860a4cc508cd0818c85b8b8a1ab4ceeef8d981c8956a661056d6120f9565b610ff45760405162461bcd60e51b8152600401610682906145f1565b858214801561100257508584145b61101e5760405162461bcd60e51b815260040161068290614a59565b8561103b5760405162461bcd60e51b81526004016106829061468f565b8567ffffffffffffffff81111561106257634e487b7160e01b600052604160045260246000fd5b60405190808252806020026020018201604052801561108b578160200160208202803683370190505b50905060008667ffffffffffffffff8111156110b757634e487b7160e01b600052604160045260246000fd5b6040519080825280602002602001820160405280156110e0578160200160208202803683370190505b5060075490915060005b888110156114c2578183828151811061111357634e487b7160e01b600052603260045260246000fd5b6020026020010181815250506040518060c001604052806111326120f9565b6001600160a01b0316815260200189898481811061116057634e487b7160e01b600052603260045260246000fd5b90506020028101906111729190614e69565b8080601f0160208091040260200160405190810160405280939291908181526020018383808284376000920191909152505050908252506020018787848181106111cc57634e487b7160e01b600052603260045260246000fd5b905060200201358152602001600115158152602001600081526020016000600281111561120957634e487b7160e01b600052602160045260246000fd5b90526000838152600a602090815260409091208251815473ffffffffffffffffffffffffffffffffffffffff19166001600160a01b03909116178155828201518051919261125f9260018501929091019061347c565b506040820151600280830191909155606083015160038301805491151560ff199283161790556080840151600484015560a084015160058401805491939092919091169060019084908111156112c557634e487b7160e01b600052602160045260246000fd5b02179055506112d991506001905083614f30565b9150818482815181106112fc57634e487b7160e01b600052603260045260246000fd5b6020026020010181815250506040518060c0016040528061131b6120f9565b6001600160a01b031681526020018b8b8481811061134957634e487b7160e01b600052603260045260246000fd5b905060200281019061135b9190614e69565b8080601f0160208091040260200160405190810160405280939291908181526020018383808284376000920191909152505050908252506020018787848181106113b557634e487b7160e01b600052603260045260246000fd5b9050602002013581526020016000151581526020016001846113d79190614f87565b8152602001600090526000838152600a602090815260409091208251815473ffffffffffffffffffffffffffffffffffffffff19166001600160a01b0390911617815582820151805191926114349260018501929091019061347c565b506040820151600280830191909155606083015160038301805491151560ff199283161790556080840151600484015560a0840151600584018054919390929190911690600190849081111561149a57634e487b7160e01b600052602160045260246000fd5b02179055506114ae91506001905083614f30565b9150806114ba8161501c565b9150506110ea565b50806007819055506115163083878780806020026020016040519081016040528093929190818152602001838360200280828437600092018290525060408051602081019091529081529250612357915050565b6115696115216120f9565b84878780806020026020016040519081016040528093929190818152602001838360200280828437600092018290525060408051602081019091529081529250612357915050565b6115716120f9565b6001600160a01b03167fe309c6cae6e35dcc6c2f37d5da32b19e0346074be56b9722cdf852d20fced6ee848b8b868c8c8c8c6040516115b7989796959493929190614100565b60405180910390a250509695505050505050565b6115f77f65d7a28e3265b37a6474929f336521b332c1681b933f6cb9f3376673440d862a61056d6120f9565b6116135760405162461bcd60e51b815260040161068290614ab6565b61161b6123f9565b565b6000828152600a60205260409020546001600160a01b031661163d6120f9565b6001600160a01b0316146116635760405162461bcd60e51b815260040161068290614b13565b6000828152600a602052604090206003015460ff166116945760405162461bcd60e51b8152600401610682906149fc565b600081156116ab576116a68242614f30565b6116af565b6000195b6000848152600b6020526040902081905590507ff01057f3c55599179571189c7758b5ce72994adea5a8dc33095fdc8fdff07119836116ec6120f9565b836040516116fc93929190614e3c565b60405180910390a1505050565b6060815183511461172c5760405162461bcd60e51b815260040161068290614c2a565b6000835167ffffffffffffffff81111561175657634e487b7160e01b600052604160045260246000fd5b60405190808252806020026020018201604052801561177f578160200160208202803683370190505b50905060005b8451811015611821576117e68582815181106117b157634e487b7160e01b600052603260045260246000fd5b60200260200101518583815181106117d957634e487b7160e01b600052603260045260246000fd5b602002602001015161065a565b82828151811061180657634e487b7160e01b600052603260045260246000fd5b602090810291909101015261181a8161501c565b9050611785565b509392505050565b60055461010090046001600160a01b0390811691161490565b60055460ff165b90565b6118546120f9565b6001600160a01b0316836001600160a01b0316148061187a575061187a8361061c6120f9565b6118965760405162461bcd60e51b815260040161068290614537565b610ed3838383612467565b60405162461bcd60e51b815260040161068290614d82565b60075481565b600554600160a81b900460ff1681565b6118fb7f65d7a28e3265b37a6474929f336521b332c1681b933f6cb9f3376673440d862a61056d6120f9565b6119175760405162461bcd60e51b815260040161068290614b70565b61161b61250e565b600660009054906101000a90046001600160a01b03166001600160a01b0316639d2f83f06040518163ffffffff1660e01b815260040160206040518083038186803b15801561196d57600080fd5b505afa158015611981573d6000803e3d6000fd5b505050506040513d601f19601f820116820180604052508101906119a59190613cad565b156119c25760405162461bcd60e51b815260040161068290614900565b60006119d28c8c8c8c8c8c610f12565b9050600086868686866040516020016119ef959493929190614215565b6040516020818303038152906040529050611a48611a0b6120f9565b8f848c8c80806020026020016040519081016040528093929190818152602001838360200280828437600092019190915250889250610e53915050565b5050505050505050505050505050565b60065460408051634a32c6bf60e11b815290516001600160a01b03909216916391d148549183916394658d7e91600480820192602092909190829003018186803b158015611aa557600080fd5b505afa158015611ab9573d6000803e3d6000fd5b505050506040513d601f19601f82011682018060405250810190611add9190613ce1565b611ae56120f9565b6040518363ffffffff1660e01b8152600401611b029291906141e9565b60206040518083038186803b158015611b1a57600080fd5b505afa158015611b2e573d6000803e3d6000fd5b505050506040513d601f19601f82011682018060405250810190611b529190613cad565b611b6e5760405162461bcd60e51b81526004016106829061447d565b60058054911515600160a81b027fffffffffffffffffffff00ffffffffffffffffffffffffffffffffffffffffff909216919091179055565b6000828152600160205260408120611bbf9083612569565b9392505050565b60007f9f2df0fed2c77648de5860a4cc508cd0818c85b8b8a1ab4ceeef8d981c8956a6831480611bbf5750611bbf83836120d0565b60065460408051634a32c6bf60e11b815290516001600160a01b03909216916391d148549183916394658d7e91600480820192602092909190829003018186803b158015611c4857600080fd5b505afa158015611c5c573d6000803e3d6000fd5b505050506040513d601f19601f82011682018060405250810190611c809190613ce1565b611c886120f9565b6040518363ffffffff1660e01b8152600401611ca59291906141e9565b60206040518083038186803b158015611cbd57600080fd5b505afa158015611cd1573d6000803e3d6000fd5b505050506040513d601f19601f82011682018060405250810190611cf59190613cad565b611d115760405162461bcd60e51b81526004016106829061447d565b610ed360098383613500565b600081565b816001600160a01b0316611d346120f9565b6001600160a01b03161415611d5b5760405162461bcd60e51b815260040161068290614bcd565b8060036000611d686120f9565b6001600160a01b03908116825260208083019390935260409182016000908120918716808252919093529120805460ff191692151592909217909155611dac6120f9565b6001600160a01b03167f17307eab39ab6107e8899845ad3d59bd9653f200f220920489ca2b5937696c3183604051611de491906141d5565b60405180910390a35050565b63bc197c8160e01b95945050505050565b60098054611e0e90614fe1565b80601f0160208091040260200160405190810160405280929190818152602001828054611e3a90614fe1565b8015611e875780601f10611e5c57610100808354040283529160200191611e87565b820191906000526020600020905b815481529060010190602001808311611e6a57829003601f168201915b505050505081565b60085481565b600081815260016020526040812061070290612575565b7f9f2df0fed2c77648de5860a4cc508cd0818c85b8b8a1ab4ceeef8d981c8956a681565b610efa8282612580565b7f65d7a28e3265b37a6474929f336521b332c1681b933f6cb9f3376673440d862a81565b606060098054611f0d90614fe1565b80601f0160208091040260200160405190810160405280929190818152602001828054611f3990614fe1565b8015611f865780601f10611f5b57610100808354040283529160200191611f86565b820191906000526020600020905b815481529060010190602001808311611f6957829003601f168201915b5050505050905090565b6001600160a01b03918216600090815260036020908152604080832093909416825291909152205460ff1690565b63f23a6e6160e01b95945050505050565b611fd76120f9565b6001600160a01b0316856001600160a01b03161480611ffd5750611ffd8561061c6120f9565b6120195760405162461bcd60e51b815260040161068290614537565b610eaa858585858561259f565b61202e6120f9565b6001600160a01b0316836001600160a01b0316148061205457506120548361061c6120f9565b6120705760405162461bcd60e51b815260040161068290614537565b610ed38383836126e6565b600061208633611829565b1561209a575060131936013560601c611849565b6120a26120cc565b9050611849565b6120b3828261271c565b5050565b6000611bbf836001600160a01b0384166127a1565b3390565b6000918252602082815260408084206001600160a01b0393909316845291905290205460ff1690565b600061210361207b565b905090565b81518351146121295760405162461bcd60e51b815260040161068290614c87565b6001600160a01b03841661214f5760405162461bcd60e51b8152600401610682906146ec565b60006121596120f9565b90506121698187878787876127eb565b60005b845181101561226e57600085828151811061219757634e487b7160e01b600052603260045260246000fd5b6020026020010151905060008583815181106121c357634e487b7160e01b600052603260045260246000fd5b60209081029190910181015160008481526002835260408082206001600160a01b038e1683529093529190912054909150818110156122145760405162461bcd60e51b815260040161068290614846565b60008381526002602090815260408083206001600160a01b038e8116855292528083208585039055908b16825281208054849290612253908490614f30565b92505081905550505050806122679061501c565b905061216c565b50846001600160a01b0316866001600160a01b0316826001600160a01b03167f4a39dc06d4c0dbc64b70af90fd698a233a518aa5d07e595d983b8c0526c8f7fb87876040516122be9291906141a7565b60405180910390a46122d48187878787876129ab565b505050505050565b6122e582610b66565b6122f6816122f16120f9565b612ab9565b610ed3838361271c565b6123086120f9565b6001600160a01b0316816001600160a01b0316146123385760405162461bcd60e51b815260040161068290614ddf565b6120b38282612b1d565b6000611bbf836001600160a01b038416612ba0565b61236384848484612cbd565b60005b8351811015610eaa5782818151811061238f57634e487b7160e01b600052603260045260246000fd5b6020026020010151600a60008684815181106123bb57634e487b7160e01b600052603260045260246000fd5b6020026020010151815260200190815260200160002060020160008282546123e39190614f30565b909155506123f290508161501c565b9050612366565b612401611842565b61241d5760405162461bcd60e51b815260040161068290614348565b6005805460ff191690557f5db9ee0a495bf2e6ff9c91a7834c1ba4fdd244a5e8aa4e537bd38aeae4b073aa6124506120f9565b60405161245d9190613f80565b60405180910390a1565b612472838383612e3f565b60005b82518110156125085781818151811061249e57634e487b7160e01b600052603260045260246000fd5b6020026020010151600a60008584815181106124ca57634e487b7160e01b600052603260045260246000fd5b6020026020010151815260200190815260200160002060020160008282546124f29190614f87565b9091555061250190508161501c565b9050612475565b50505050565b612516611842565b156125335760405162461bcd60e51b815260040161068290614658565b6005805460ff191660011790557f62e78cea01bee320cd4e420270b5ea74000d11b0c9f74754ebdbfc544b05a2586124506120f9565b6000611bbf8383612fe5565b60006107028261301d565b61258982610b66565b612595816122f16120f9565b610ed38383612b1d565b6001600160a01b0384166125c55760405162461bcd60e51b8152600401610682906146ec565b60006125cf6120f9565b90506125ef8187876125e088613021565b6125e988613021565b876127eb565b60008481526002602090815260408083206001600160a01b038a168452909152902054838110156126325760405162461bcd60e51b815260040161068290614846565b60008581526002602090815260408083206001600160a01b038b8116855292528083208785039055908816825281208054869290612671908490614f30565b92505081905550856001600160a01b0316876001600160a01b0316836001600160a01b03167fc3d58168c5ae7397731d063d5bbf3d657854427343f4c083240f7aacaa2d0f6288886040516126c7929190614e5b565b60405180910390a46126dd82888888888861307a565b50505050505050565b6126f183838361314b565b6000828152600a602052604081206002018054839290612712908490614f87565b9091555050505050565b6127268282611bc6565b6120b3576000828152602081815260408083206001600160a01b03851684529091529020805460ff1916600117905561275d6120f9565b6001600160a01b0316816001600160a01b0316837f2f8788117e7eff1d82e926ec794901d17c78024a50270940304540a733656f0d60405160405180910390a45050565b60006127ad838361325e565b6127e3575081546001818101845560008481526020808220909301849055845484825282860190935260409020919091556106b0565b5060006106b0565b6127f9868686868686613276565b600554600160a81b900460ff1615612881576128357f8502233096d909befbda0999bb8ea2f3a6be3c138b9fbf003752a4c8bce86f6c86611bc6565b8061286557506128657f8502233096d909befbda0999bb8ea2f3a6be3c138b9fbf003752a4c8bce86f6c85611bc6565b6128815760405162461bcd60e51b8152600401610682906148a3565b60005b83518110156126dd576001600160a01b038516612915578281815181106128bb57634e487b7160e01b600052603260045260246000fd5b6020026020010151600a60008684815181106128e757634e487b7160e01b600052603260045260246000fd5b60200260200101518152602001908152602001600020600201600082825461290f9190614f87565b90915550505b600a600085838151811061293957634e487b7160e01b600052603260045260246000fd5b60209081029190910181015182528101919091526040016000206003015460ff1615612999576001600160a01b038616158061297d57506001600160a01b03861630145b6129995760405162461bcd60e51b8152600401610682906147a6565b806129a38161501c565b915050612884565b6129bd846001600160a01b0316613284565b156122d45760405163bc197c8160e01b81526001600160a01b0385169063bc197c81906129f69089908990889088908890600401613f94565b602060405180830381600087803b158015612a1057600080fd5b505af1925050508015612a40575060408051601f3d908101601f19168201909252612a3d91810190613d58565b60015b612a8957612a4c615069565b80612a575750612a71565b8060405162461bcd60e51b81526004016106829190614246565b60405162461bcd60e51b815260040161068290614259565b6001600160e01b0319811663bc197c8160e01b146126dd5760405162461bcd60e51b8152600401610682906142eb565b612ac38282611bc6565b6120b357612adb816001600160a01b0316601461328a565b612ae683602061328a565b604051602001612af7929190613eff565b60408051601f198184030181529082905262461bcd60e51b825261068291600401614246565b612b278282611bc6565b156120b3576000828152602081815260408083206001600160a01b03851684529091529020805460ff19169055612b5c6120f9565b6001600160a01b0316816001600160a01b0316837ff6391f5c32d9c69d2a47ea670b442974b53935d1edc7fd64eb21e047a839171b60405160405180910390a45050565b60008181526001830160205260408120548015612cb3576000612bc4600183614f87565b8554909150600090612bd890600190614f87565b9050818114612c59576000866000018281548110612c0657634e487b7160e01b600052603260045260246000fd5b9060005260206000200154905080876000018481548110612c3757634e487b7160e01b600052603260045260246000fd5b6000918252602080832090910192909255918252600188019052604090208390555b8554869080612c7857634e487b7160e01b600052603160045260246000fd5b6001900381819060005260206000200160009055905585600101600086815260200190815260200160002060009055600193505050506106b0565b60009150506106b0565b6001600160a01b038416612ce35760405162461bcd60e51b815260040161068290614ce4565b8151835114612d045760405162461bcd60e51b815260040161068290614c87565b6000612d0e6120f9565b9050612d1f816000878787876127eb565b60005b8451811015612dd757838181518110612d4b57634e487b7160e01b600052603260045260246000fd5b602002602001015160026000878481518110612d7757634e487b7160e01b600052603260045260246000fd5b602002602001015181526020019081526020016000206000886001600160a01b03166001600160a01b031681526020019081526020016000206000828254612dbf9190614f30565b90915550819050612dcf8161501c565b915050612d22565b50846001600160a01b031660006001600160a01b0316826001600160a01b03167f4a39dc06d4c0dbc64b70af90fd698a233a518aa5d07e595d983b8c0526c8f7fb8787604051612e289291906141a7565b60405180910390a4610eaa816000878787876129ab565b6001600160a01b038316612e655760405162461bcd60e51b815260040161068290614803565b8051825114612e865760405162461bcd60e51b815260040161068290614c87565b6000612e906120f9565b9050612eb0818560008686604051806020016040528060008152506127eb565b60005b8351811015612f94576000848281518110612ede57634e487b7160e01b600052603260045260246000fd5b602002602001015190506000848381518110612f0a57634e487b7160e01b600052603260045260246000fd5b60209081029190910181015160008481526002835260408082206001600160a01b038c168352909352919091205490915081811015612f5b5760405162461bcd60e51b8152600401610682906143dc565b60009283526002602090815260408085206001600160a01b038b1686529091529092209103905580612f8c8161501c565b915050612eb3565b5060006001600160a01b0316846001600160a01b0316826001600160a01b03167f4a39dc06d4c0dbc64b70af90fd698a233a518aa5d07e595d983b8c0526c8f7fb8686604051610e459291906141a7565b600082600001828154811061300a57634e487b7160e01b600052603260045260246000fd5b9060005260206000200154905092915050565b5490565b6040805160018082528183019092526060916000919060208083019080368337019050509050828160008151811061306957634e487b7160e01b600052603260045260246000fd5b602090810291909101015292915050565b61308c846001600160a01b0316613284565b156122d45760405163f23a6e6160e01b81526001600160a01b0385169063f23a6e61906130c59089908990889088908890600401613ff2565b602060405180830381600087803b1580156130df57600080fd5b505af192505050801561310f575060408051601f3d908101601f1916820190925261310c91810190613d58565b60015b61311b57612a4c615069565b6001600160e01b0319811663f23a6e6160e01b146126dd5760405162461bcd60e51b8152600401610682906142eb565b6001600160a01b0383166131715760405162461bcd60e51b815260040161068290614803565b600061317b6120f9565b90506131ab8185600061318d87613021565b61319687613021565b604051806020016040528060008152506127eb565b60008381526002602090815260408083206001600160a01b0388168452909152902054828110156131ee5760405162461bcd60e51b8152600401610682906143dc565b60008481526002602090815260408083206001600160a01b03808a16808652919093528184208786039055905190918516907fc3d58168c5ae7397731d063d5bbf3d657854427343f4c083240f7aacaa2d0f629061324f9089908990614e5b565b60405180910390a45050505050565b60009081526001919091016020526040902054151590565b6122d4868686868686613449565b3b151590565b60606000613299836002614f68565b6132a4906002614f30565b67ffffffffffffffff8111156132ca57634e487b7160e01b600052604160045260246000fd5b6040519080825280601f01601f1916602001820160405280156132f4576020820181803683370190505b509050600360fc1b8160008151811061331d57634e487b7160e01b600052603260045260246000fd5b60200101906001600160f81b031916908160001a905350600f60fb1b8160018151811061335a57634e487b7160e01b600052603260045260246000fd5b60200101906001600160f81b031916908160001a905350600061337e846002614f68565b613389906001614f30565b90505b600181111561342a577f303132333435363738396162636465660000000000000000000000000000000085600f16601081106133d857634e487b7160e01b600052603260045260246000fd5b1a60f81b8282815181106133fc57634e487b7160e01b600052603260045260246000fd5b60200101906001600160f81b031916908160001a90535060049490941c9361342381614fca565b905061338c565b508315611bbf5760405162461bcd60e51b8152600401610682906142b6565b6134578686868686866122d4565b61345f611842565b156122d45760405162461bcd60e51b8152600401610682906144da565b82805461348890614fe1565b90600052602060002090601f0160209004810192826134aa57600085556134f0565b82601f106134c357805160ff19168380011785556134f0565b828001600101855582156134f0579182015b828111156134f05782518255916020019190600101906134d5565b506134fc929150613574565b5090565b82805461350c90614fe1565b90600052602060002090601f01602090048101928261352e57600085556134f0565b82601f106135475782800160ff198235161785556134f0565b828001600101855582156134f0579182015b828111156134f0578235825591602001919060010190613559565b5b808211156134fc5760008155600101613575565b80356001600160a01b038116811461070557600080fd5b60008083601f8401126135b1578182fd5b50813567ffffffffffffffff8111156135c8578182fd5b60208301915083602080830285010111156135e257600080fd5b9250929050565b600082601f8301126135f9578081fd5b8135602061360e61360983614ed8565b614eae565b828152818101908583018385028701840188101561362a578586fd5b855b858110156136485781358452928401929084019060010161362c565b5090979650505050505050565b600082601f830112613665578081fd5b813567ffffffffffffffff81111561367f5761367f61504d565b613692601f8201601f1916602001614eae565b8181528460208386010111156136a6578283fd5b816020850160208301379081016020019190915292915050565b60008083601f8401126136d1578182fd5b50813567ffffffffffffffff8111156136e8578182fd5b6020830191508360208285010111156135e257600080fd5b600060208284031215613711578081fd5b611bbf82613589565b6000806040838503121561372c578081fd5b61373583613589565b9150610c3360208401613589565b600080600080600060a0868803121561375a578081fd5b61376386613589565b945061377160208701613589565b9350604086013567ffffffffffffffff8082111561378d578283fd5b61379989838a016135e9565b945060608801359150808211156137ae578283fd5b6137ba89838a016135e9565b935060808801359150808211156137cf578283fd5b506137dc88828901613655565b9150509295509295909350565b600080600080600060a08688031215613800578081fd5b61380986613589565b945061381760208701613589565b93506040860135925060608601359150608086013567ffffffffffffffff811115613840578182fd5b6137dc88828901613655565b6000806000806000806000806000806000806101008d8f03121561386e578687fd5b6138778d613589565b9b5067ffffffffffffffff60208e01351115613891578687fd5b6138a18e60208f01358f016135a0565b909b50995067ffffffffffffffff60408e013511156138be578687fd5b6138ce8e60408f01358f016135a0565b909950975067ffffffffffffffff60608e013511156138eb578687fd5b6138fb8e60608f01358f016135a0565b909750955067ffffffffffffffff60808e01351115613918578485fd5b6139288e60808f01358f016136c0565b9c9f9b9e50999c989b979a9699959895979660a08701359660c0810135965060e00135945092505050565b600080600060608486031215613967578081fd5b61397084613589565b9250602084013567ffffffffffffffff8082111561398c578283fd5b613998878388016135e9565b935060408601359150808211156139ad578283fd5b506139ba868287016135e9565b9150509250925092565b600080600080608085870312156139d9578182fd5b6139e285613589565b9350602085013567ffffffffffffffff808211156139fe578384fd5b613a0a888389016135e9565b94506040870135915080821115613a1f578384fd5b613a2b888389016135e9565b93506060870135915080821115613a40578283fd5b50613a4d87828801613655565b91505092959194509250565b60008060408385031215613a6b578182fd5b613a7483613589565b91506020830135613a848161510e565b809150509250929050565b60008060408385031215613aa1578182fd5b613aaa83613589565b946020939093013593505050565b600080600060608486031215613acc578081fd5b613ad584613589565b95602085013595506040909401359392505050565b60008060008060808587031215613aff578182fd5b613b0885613589565b93506020850135925060408501359150606085013567ffffffffffffffff811115613b31578182fd5b613a4d87828801613655565b60008060408385031215613b4f578182fd5b823567ffffffffffffffff80821115613b66578384fd5b818501915085601f830112613b79578384fd5b81356020613b8961360983614ed8565b82815281810190858301838502870184018b1015613ba5578889fd5b8896505b84871015613bce57613bba81613589565b835260019690960195918301918301613ba9565b5096505086013592505080821115613be4578283fd5b50613bf1858286016135e9565b9150509250929050565b60008060008060008060608789031215613c13578384fd5b863567ffffffffffffffff80821115613c2a578586fd5b613c368a838b016135a0565b90985096506020890135915080821115613c4e578586fd5b613c5a8a838b016135a0565b90965094506040890135915080821115613c72578384fd5b50613c7f89828a016135a0565b979a9699509497509295939492505050565b600060208284031215613ca2578081fd5b8135611bbf8161510e565b600060208284031215613cbe578081fd5b8151611bbf8161510e565b600060208284031215613cda578081fd5b5035919050565b600060208284031215613cf2578081fd5b5051919050565b60008060408385031215613d0b578182fd5b82359150610c3360208401613589565b60008060408385031215613d2d578182fd5b50508035926020909101359150565b600060208284031215613d4d578081fd5b8135611bbf8161511f565b600060208284031215613d69578081fd5b8151611bbf8161511f565b60008060208385031215613d86578182fd5b823567ffffffffffffffff811115613d9c578283fd5b613da8858286016136c0565b90969095509350505050565b600060208284031215613dc5578081fd5b81516fffffffffffffffffffffffffffffffff81168114611bbf578182fd5b818352602080840193600091908185020181018584845b87811015613e625782840389528135601e19883603018112613e1b578687fd5b8701803567ffffffffffffffff811115613e33578788fd5b803603891315613e41578788fd5b613e4e8682898501613ed5565b9a87019a9550505090840190600101613dfb565b5091979650505050505050565b6000815180845260208085019450808401835b83811015613e9e57815187529582019590820190600101613e82565b509495945050505050565b60008151808452613ec1816020860160208601614f9e565b601f01601f19169290920160200192915050565b60008284528282602086013780602084860101526020601f19601f85011685010190509392505050565b60007f416363657373436f6e74726f6c3a206163636f756e742000000000000000000082528351613f37816017850160208801614f9e565b7f206973206d697373696e6720726f6c65200000000000000000000000000000006017918401918201528351613f74816028840160208801614f9e565b01602801949350505050565b6001600160a01b0391909116815260200190565b60006001600160a01b03808816835280871660208401525060a06040830152613fc060a0830186613e6f565b8281036060840152613fd28186613e6f565b90508281036080840152613fe68185613ea9565b98975050505050505050565b60006001600160a01b03808816835280871660208401525084604083015283606083015260a0608083015261402a60a0830184613ea9565b979650505050505050565b6001600160a01b0394851681529290931660208301526040820152606081019190915260a06080820181905260009082015260c00190565b60006001600160a01b038816825260c0602083015261408f60c0830188613ea9565b90508560408301528415156060830152836080830152600383106140c357634e487b7160e01b600052602160045260246000fd5b8260a0830152979650505050505050565b6001600160a01b03929092168252602082015260400190565b600060208252611bbf6020830184613e6f565b600060a0825261411360a083018b613e6f565b8281036020840152614126818a8c613de4565b9050828103604084015261413a8189613e6f565b9050828103606084015261414f818789613de4565b905082810360808401528381527f07ffffffffffffffffffffffffffffffffffffffffffffffffffffffffffffff841115614188578182fd5b6020840280866020840137016020019081529998505050505050505050565b6000604082526141ba6040830185613e6f565b82810360208401526141cc8185613e6f565b95945050505050565b901515815260200190565b90815260200190565b9182526001600160a01b0316602082015260400190565b6001600160e01b031991909116815260200190565b600060808252614229608083018789613ed5565b602083019590955250604081019290925260609091015292915050565b600060208252611bbf6020830184613ea9565b60208082526034908201527f455243313135353a207472616e7366657220746f206e6f6e204552433131353560408201527f526563656976657220696d706c656d656e746572000000000000000000000000606082015260800190565b6020808252818101527f537472696e67733a20686578206c656e67746820696e73756666696369656e74604082015260600190565b60208082526028908201527f455243313135353a204552433131353552656365697665722072656a6563746560408201527f6420746f6b656e73000000000000000000000000000000000000000000000000606082015260800190565b60208082526014908201527f5061757361626c653a206e6f7420706175736564000000000000000000000000604082015260600190565b6020808252602b908201527f455243313135353a2062616c616e636520717565727920666f7220746865207a60408201527f65726f2061646472657373000000000000000000000000000000000000000000606082015260800190565b60208082526024908201527f455243313135353a206275726e20616d6f756e7420657863656564732062616c604082015263616e636560e01b606082015260800190565b60208082526031908201527f4163636573734e46543a2063616e6e6f742075736520726567756c6172206d6960408201527f6e7442617463682066756e6374696f6e2e000000000000000000000000000000606082015260800190565b60208082526038908201527f4163636573734e46543a206f6e6c7920612070726f746f636f6c2061646d696e60408201527f2063616e2063616c6c20746869732066756e6374696f6e2e0000000000000000606082015260800190565b6020808252602c908201527f455243313135355061757361626c653a20746f6b656e207472616e736665722060408201527f7768696c65207061757365640000000000000000000000000000000000000000606082015260800190565b60208082526029908201527f455243313135353a2063616c6c6572206973206e6f74206f776e6572206e6f7260408201527f20617070726f7665640000000000000000000000000000000000000000000000606082015260800190565b6020808252602e908201527f4163636573734e46543a2043616e6e6f742072656465656d206d6f7265204e4660408201527f5473207468616e206f776e65642e000000000000000000000000000000000000606082015260800190565b60208082526041908201527f4163636573734e46543a204f6e6c79206163636f756e74732077697468204d4960408201527f4e5445525f524f4c452063616e2063616c6c20746869732066756e6374696f6e6060820152601760f91b608082015260a00190565b60208082526010908201527f5061757361626c653a2070617573656400000000000000000000000000000000604082015260600190565b60208082526028908201527f4163636573734e46543a204d75737420637265617465206174206c656173742060408201527f6f6e65204e46542e000000000000000000000000000000000000000000000000606082015260800190565b60208082526025908201527f455243313135353a207472616e7366657220746f20746865207a65726f20616460408201527f6472657373000000000000000000000000000000000000000000000000000000606082015260800190565b60208082526032908201527f455243313135353a207472616e736665722063616c6c6572206973206e6f742060408201527f6f776e6572206e6f7220617070726f7665640000000000000000000000000000606082015260800190565b60208082526039908201527f4163636573734e46543a2063616e6e6f74207472616e7366657220616e20616360408201527f63657373204e465420746861742069732072656465656d656400000000000000606082015260800190565b60208082526023908201527f455243313135353a206275726e2066726f6d20746865207a65726f206164647260408201526265737360e81b606082015260800190565b6020808252602a908201527f455243313135353a20696e73756666696369656e742062616c616e636520666f60408201527f72207472616e7366657200000000000000000000000000000000000000000000606082015260800190565b6020808252603c908201527f4163636573734e46543a205472616e736665727320617265207265737472696360408201527f74656420746f205452414e534645525f524f4c4520686f6c6465727300000000606082015260800190565b60208082526022908201527f4163636573734e46543a205468652070726f746f636f6c206973207061757365604082015261321760f11b606082015260800190565b6020808252602e908201527f4163636573734e46543a2057696e646f7720746f2072656465656d206163636560408201527f73732068617320636c6f7365642e000000000000000000000000000000000000606082015260800190565b60208082526033908201527f4163636573734e46543a205468697320746f6b656e206973206e6f742072656460408201527f65656d61626c6520666f72206163636573732e00000000000000000000000000606082015260800190565b60208082526034908201527f4163636573734e46543a2063616e207365742072656465656d2074696d65206660408201527f6f72206f6e6c7920416363657373204e4654732e000000000000000000000000606082015260800190565b60208082526036908201527f4163636573734e46543a204d757374207370656369667920657175616c206e7560408201527f6d626572206f6620636f6e6669672076616c7565732e00000000000000000000606082015260800190565b6020808252603b908201527f455243313135355072657365744d696e7465725061757365723a206d7573742060408201527f686176652070617573657220726f6c6520746f20756e70617573650000000000606082015260800190565b60208082526033908201527f4163636573734e46543a206f6e6c79207468652063726561746f722063616e2060408201527f63616c6c20746869732066756e6374696f6e2e00000000000000000000000000606082015260800190565b60208082526039908201527f455243313135355072657365744d696e7465725061757365723a206d7573742060408201527f686176652070617573657220726f6c6520746f20706175736500000000000000606082015260800190565b60208082526029908201527f455243313135353a2073657474696e6720617070726f76616c2073746174757360408201527f20666f722073656c660000000000000000000000000000000000000000000000606082015260800190565b60208082526029908201527f455243313135353a206163636f756e747320616e6420696473206c656e67746860408201527f206d69736d617463680000000000000000000000000000000000000000000000606082015260800190565b60208082526028908201527f455243313135353a2069647320616e6420616d6f756e7473206c656e6774682060408201527f6d69736d61746368000000000000000000000000000000000000000000000000606082015260800190565b60208082526021908201527f455243313135353a206d696e7420746f20746865207a65726f206164647265736040820152607360f81b606082015260800190565b60208082526029908201527f4e46543a204270732070726f7669646564206d757374206265206c657373207460408201527f68616e20392c3030300000000000000000000000000000000000000000000000606082015260800190565b6020808252602c908201527f4163636573734e46543a2063616e6e6f742075736520726567756c6172206d6960408201527f6e742066756e6374696f6e2e0000000000000000000000000000000000000000606082015260800190565b6020808252602f908201527f416363657373436f6e74726f6c3a2063616e206f6e6c792072656e6f756e636560408201527f20726f6c657320666f722073656c660000000000000000000000000000000000606082015260800190565b9283526001600160a01b03919091166020830152604082015260600190565b918252602082015260400190565b6000808335601e19843603018112614e7f578283fd5b83018035915067ffffffffffffffff821115614e99578283fd5b6020019150368190038213156135e257600080fd5b60405181810167ffffffffffffffff81118282101715614ed057614ed061504d565b604052919050565b600067ffffffffffffffff821115614ef257614ef261504d565b5060209081020190565b60006fffffffffffffffffffffffffffffffff808316818516808303821115614f2757614f27615037565b01949350505050565b60008219821115614f4357614f43615037565b500190565b600082614f6357634e487b7160e01b81526012600452602481fd5b500490565b6000816000190483118215151615614f8257614f82615037565b500290565b600082821015614f9957614f99615037565b500390565b60005b83811015614fb9578181015183820152602001614fa1565b838111156125085750506000910152565b600081614fd957614fd9615037565b506000190190565b600281046001821680614ff557607f821691505b6020821081141561501657634e487b7160e01b600052602260045260246000fd5b50919050565b600060001982141561503057615030615037565b5060010190565b634e487b7160e01b600052601160045260246000fd5b634e487b7160e01b600052604160045260246000fd5b60e01c90565b600060443d101561507957611849565b600481823e6308c379a061508d8251615063565b1461509757611849565b6040513d600319016004823e80513d67ffffffffffffffff81602484011181841117156150c75750505050611849565b828401925082519150808211156150e15750505050611849565b503d830160208284010111156150f957505050611849565b601f01601f1916810160200160405291505090565b801515811461511c57600080fd5b50565b6001600160e01b03198116811461511c57600080fdfea164736f6c6343000800000a9f2df0fed2c77648de5860a4cc508cd0818c85b8b8a1ab4ceeef8d981c8956a6",
  "linkReferences": {},
  "deployedLinkReferences": {}
}