{
  "_format": "hh-sol-artifact-1",
  "contractName": "AccessNFT_PL",
  "sourceName": "contracts/permissionless/AccessNFT_PL.sol",
  "abi": [
    {
      "inputs": [
        {
          "internalType": "address payable",
          "name": "_controlCenter",
          "type": "address"
        },
        {
          "internalType": "address",
          "name": "_trustedForwarder",
          "type": "address"
        },
        {
          "internalType": "address",
          "name": "_nftWrapper",
          "type": "address"
        },
        {
          "internalType": "string",
          "name": "_uri",
          "type": "string"
        }
      ],
      "stateMutability": "nonpayable",
      "type": "constructor"
    },
    {
      "anonymous": false,
      "inputs": [
        {
          "indexed": true,
          "internalType": "address",
          "name": "redeemer",
          "type": "address"
        },
        {
          "indexed": true,
          "internalType": "uint256",
          "name": "nftTokenId",
          "type": "uint256"
        },
        {
          "indexed": true,
          "internalType": "uint256",
          "name": "accessNftId",
          "type": "uint256"
        },
        {
          "indexed": false,
          "internalType": "uint256",
          "name": "amount",
          "type": "uint256"
        }
      ],
      "name": "AccessNFTRedeemed",
      "type": "event"
    },
    {
      "anonymous": false,
      "inputs": [
        {
          "indexed": true,
          "internalType": "address",
          "name": "creator",
          "type": "address"
        },
        {
          "indexed": false,
          "internalType": "uint256[]",
          "name": "nftIds",
          "type": "uint256[]"
        },
        {
          "indexed": false,
          "internalType": "string[]",
          "name": "nftURIs",
          "type": "string[]"
        },
        {
          "indexed": false,
          "internalType": "uint256[]",
          "name": "acessNftIds",
          "type": "uint256[]"
        },
        {
          "indexed": false,
          "internalType": "string[]",
          "name": "accessNftURIs",
          "type": "string[]"
        },
        {
          "indexed": false,
          "internalType": "uint256[]",
          "name": "nftSupplies",
          "type": "uint256[]"
        }
      ],
      "name": "AccessNFTsCreated",
      "type": "event"
    },
    {
      "anonymous": false,
      "inputs": [
        {
          "indexed": false,
          "internalType": "bool",
          "name": "isTransferable",
          "type": "bool"
        }
      ],
      "name": "AccessTransferabilityUpdated",
      "type": "event"
    },
    {
      "anonymous": false,
      "inputs": [
        {
          "indexed": true,
          "internalType": "address",
          "name": "account",
          "type": "address"
        },
        {
          "indexed": true,
          "internalType": "address",
          "name": "operator",
          "type": "address"
        },
        {
          "indexed": false,
          "internalType": "bool",
          "name": "approved",
          "type": "bool"
        }
      ],
      "name": "ApprovalForAll",
      "type": "event"
    },
    {
      "anonymous": false,
      "inputs": [
        {
          "indexed": false,
          "internalType": "uint256",
          "name": "accessNftId",
          "type": "uint256"
        },
        {
          "indexed": false,
          "internalType": "address",
          "name": "creator",
          "type": "address"
        },
        {
          "indexed": false,
          "internalType": "uint256",
          "name": "lastTimeToRedeem",
          "type": "uint256"
        }
      ],
      "name": "LastRedeemTimeUpdated",
      "type": "event"
    },
    {
      "anonymous": false,
      "inputs": [
        {
          "indexed": false,
          "internalType": "address",
          "name": "account",
          "type": "address"
        }
      ],
      "name": "Paused",
      "type": "event"
    },
    {
      "anonymous": false,
      "inputs": [
        {
          "indexed": true,
          "internalType": "bytes32",
          "name": "role",
          "type": "bytes32"
        },
        {
          "indexed": true,
          "internalType": "bytes32",
          "name": "previousAdminRole",
          "type": "bytes32"
        },
        {
          "indexed": true,
          "internalType": "bytes32",
          "name": "newAdminRole",
          "type": "bytes32"
        }
      ],
      "name": "RoleAdminChanged",
      "type": "event"
    },
    {
      "anonymous": false,
      "inputs": [
        {
          "indexed": true,
          "internalType": "bytes32",
          "name": "role",
          "type": "bytes32"
        },
        {
          "indexed": true,
          "internalType": "address",
          "name": "account",
          "type": "address"
        },
        {
          "indexed": true,
          "internalType": "address",
          "name": "sender",
          "type": "address"
        }
      ],
      "name": "RoleGranted",
      "type": "event"
    },
    {
      "anonymous": false,
      "inputs": [
        {
          "indexed": true,
          "internalType": "bytes32",
          "name": "role",
          "type": "bytes32"
        },
        {
          "indexed": true,
          "internalType": "address",
          "name": "account",
          "type": "address"
        },
        {
          "indexed": true,
          "internalType": "address",
          "name": "sender",
          "type": "address"
        }
      ],
      "name": "RoleRevoked",
      "type": "event"
    },
    {
      "anonymous": false,
      "inputs": [
        {
          "indexed": false,
          "internalType": "uint256",
          "name": "royaltyBps",
          "type": "uint256"
        }
      ],
      "name": "RoyaltyUpdated",
      "type": "event"
    },
    {
      "anonymous": false,
      "inputs": [
        {
          "indexed": true,
          "internalType": "address",
          "name": "operator",
          "type": "address"
        },
        {
          "indexed": true,
          "internalType": "address",
          "name": "from",
          "type": "address"
        },
        {
          "indexed": true,
          "internalType": "address",
          "name": "to",
          "type": "address"
        },
        {
          "indexed": false,
          "internalType": "uint256[]",
          "name": "ids",
          "type": "uint256[]"
        },
        {
          "indexed": false,
          "internalType": "uint256[]",
          "name": "values",
          "type": "uint256[]"
        }
      ],
      "name": "TransferBatch",
      "type": "event"
    },
    {
      "anonymous": false,
      "inputs": [
        {
          "indexed": true,
          "internalType": "address",
          "name": "operator",
          "type": "address"
        },
        {
          "indexed": true,
          "internalType": "address",
          "name": "from",
          "type": "address"
        },
        {
          "indexed": true,
          "internalType": "address",
          "name": "to",
          "type": "address"
        },
        {
          "indexed": false,
          "internalType": "uint256",
          "name": "id",
          "type": "uint256"
        },
        {
          "indexed": false,
          "internalType": "uint256",
          "name": "value",
          "type": "uint256"
        }
      ],
      "name": "TransferSingle",
      "type": "event"
    },
    {
      "anonymous": false,
      "inputs": [
        {
          "indexed": false,
          "internalType": "string",
          "name": "value",
          "type": "string"
        },
        {
          "indexed": true,
          "internalType": "uint256",
          "name": "id",
          "type": "uint256"
        }
      ],
      "name": "URI",
      "type": "event"
    },
    {
      "anonymous": false,
      "inputs": [
        {
          "indexed": false,
          "internalType": "address",
          "name": "account",
          "type": "address"
        }
      ],
      "name": "Unpaused",
      "type": "event"
    },
    {
      "inputs": [],
      "name": "DEFAULT_ADMIN_ROLE",
      "outputs": [
        {
          "internalType": "bytes32",
          "name": "",
          "type": "bytes32"
        }
      ],
      "stateMutability": "view",
      "type": "function"
    },
    {
      "inputs": [],
      "name": "MINTER_ROLE",
      "outputs": [
        {
          "internalType": "bytes32",
          "name": "",
          "type": "bytes32"
        }
      ],
      "stateMutability": "view",
      "type": "function"
    },
    {
      "inputs": [],
      "name": "PAUSER_ROLE",
      "outputs": [
        {
          "internalType": "bytes32",
          "name": "",
          "type": "bytes32"
        }
      ],
      "stateMutability": "view",
      "type": "function"
    },
    {
      "inputs": [],
      "name": "TRANSFER_ROLE",
      "outputs": [
        {
          "internalType": "bytes32",
          "name": "",
          "type": "bytes32"
        }
      ],
      "stateMutability": "view",
      "type": "function"
    },
    {
      "inputs": [],
      "name": "_contractURI",
      "outputs": [
        {
          "internalType": "string",
          "name": "",
          "type": "string"
        }
      ],
      "stateMutability": "view",
      "type": "function"
    },
    {
      "inputs": [],
      "name": "accessNftIsTransferable",
      "outputs": [
        {
          "internalType": "bool",
          "name": "",
          "type": "bool"
        }
      ],
      "stateMutability": "view",
      "type": "function"
    },
    {
      "inputs": [
        {
          "internalType": "address",
          "name": "account",
          "type": "address"
        },
        {
          "internalType": "uint256",
          "name": "id",
          "type": "uint256"
        }
      ],
      "name": "balanceOf",
      "outputs": [
        {
          "internalType": "uint256",
          "name": "",
          "type": "uint256"
        }
      ],
      "stateMutability": "view",
      "type": "function"
    },
    {
      "inputs": [
        {
          "internalType": "address[]",
          "name": "accounts",
          "type": "address[]"
        },
        {
          "internalType": "uint256[]",
          "name": "ids",
          "type": "uint256[]"
        }
      ],
      "name": "balanceOfBatch",
      "outputs": [
        {
          "internalType": "uint256[]",
          "name": "",
          "type": "uint256[]"
        }
      ],
      "stateMutability": "view",
      "type": "function"
    },
    {
      "inputs": [
        {
          "internalType": "address",
          "name": "account",
          "type": "address"
        },
        {
          "internalType": "uint256",
          "name": "id",
          "type": "uint256"
        },
        {
          "internalType": "uint256",
          "name": "value",
          "type": "uint256"
        }
      ],
      "name": "burn",
      "outputs": [],
      "stateMutability": "nonpayable",
      "type": "function"
    },
    {
      "inputs": [
        {
          "internalType": "address",
          "name": "account",
          "type": "address"
        },
        {
          "internalType": "uint256[]",
          "name": "ids",
          "type": "uint256[]"
        },
        {
          "internalType": "uint256[]",
          "name": "values",
          "type": "uint256[]"
        }
      ],
      "name": "burnBatch",
      "outputs": [],
      "stateMutability": "nonpayable",
      "type": "function"
    },
    {
      "inputs": [],
      "name": "contractURI",
      "outputs": [
        {
          "internalType": "string",
          "name": "",
          "type": "string"
        }
      ],
      "stateMutability": "view",
      "type": "function"
    },
    {
      "inputs": [
        {
          "internalType": "string[]",
          "name": "_nftURIs",
          "type": "string[]"
        },
        {
          "internalType": "string[]",
          "name": "_accessNftURIs",
          "type": "string[]"
        },
        {
          "internalType": "uint256[]",
          "name": "_nftSupplies",
          "type": "uint256[]"
        },
        {
          "internalType": "address",
          "name": "_pack",
          "type": "address"
        },
        {
          "internalType": "bytes",
          "name": "_packArgs",
          "type": "bytes"
        }
      ],
      "name": "createAccessNfts",
      "outputs": [
        {
          "internalType": "uint256[]",
          "name": "nftIds",
          "type": "uint256[]"
        }
      ],
      "stateMutability": "nonpayable",
      "type": "function"
    },
    {
      "inputs": [
        {
          "internalType": "bytes32",
          "name": "role",
          "type": "bytes32"
        }
      ],
      "name": "getRoleAdmin",
      "outputs": [
        {
          "internalType": "bytes32",
          "name": "",
          "type": "bytes32"
        }
      ],
      "stateMutability": "view",
      "type": "function"
    },
    {
      "inputs": [
        {
          "internalType": "bytes32",
          "name": "role",
          "type": "bytes32"
        },
        {
          "internalType": "uint256",
          "name": "index",
          "type": "uint256"
        }
      ],
      "name": "getRoleMember",
      "outputs": [
        {
          "internalType": "address",
          "name": "",
          "type": "address"
        }
      ],
      "stateMutability": "view",
      "type": "function"
    },
    {
      "inputs": [
        {
          "internalType": "bytes32",
          "name": "role",
          "type": "bytes32"
        }
      ],
      "name": "getRoleMemberCount",
      "outputs": [
        {
          "internalType": "uint256",
          "name": "",
          "type": "uint256"
        }
      ],
      "stateMutability": "view",
      "type": "function"
    },
    {
      "inputs": [
        {
          "internalType": "bytes32",
          "name": "role",
          "type": "bytes32"
        },
        {
          "internalType": "address",
          "name": "account",
          "type": "address"
        }
      ],
      "name": "grantRole",
      "outputs": [],
      "stateMutability": "nonpayable",
      "type": "function"
    },
    {
      "inputs": [
        {
          "internalType": "bytes32",
          "name": "role",
          "type": "bytes32"
        },
        {
          "internalType": "address",
          "name": "account",
          "type": "address"
        }
      ],
      "name": "hasRole",
      "outputs": [
        {
          "internalType": "bool",
          "name": "",
          "type": "bool"
        }
      ],
      "stateMutability": "view",
      "type": "function"
    },
    {
      "inputs": [
        {
          "internalType": "address",
          "name": "account",
          "type": "address"
        },
        {
          "internalType": "address",
          "name": "operator",
          "type": "address"
        }
      ],
      "name": "isApprovedForAll",
      "outputs": [
        {
          "internalType": "bool",
          "name": "",
          "type": "bool"
        }
      ],
      "stateMutability": "view",
      "type": "function"
    },
    {
      "inputs": [
        {
          "internalType": "uint256",
          "name": "_nftId",
          "type": "uint256"
        }
      ],
      "name": "isRedeemable",
      "outputs": [
        {
          "internalType": "bool",
          "name": "",
          "type": "bool"
        }
      ],
      "stateMutability": "view",
      "type": "function"
    },
    {
      "inputs": [
        {
          "internalType": "address",
          "name": "forwarder",
          "type": "address"
        }
      ],
      "name": "isTrustedForwarder",
      "outputs": [
        {
          "internalType": "bool",
          "name": "",
          "type": "bool"
        }
      ],
      "stateMutability": "view",
      "type": "function"
    },
    {
      "inputs": [
        {
          "internalType": "uint256",
          "name": "",
          "type": "uint256"
        }
      ],
      "name": "lastTimeToRedeem",
      "outputs": [
        {
          "internalType": "uint256",
          "name": "",
          "type": "uint256"
        }
      ],
      "stateMutability": "view",
      "type": "function"
    },
    {
      "inputs": [
        {
          "internalType": "address",
          "name": "",
          "type": "address"
        },
        {
          "internalType": "uint256",
          "name": "",
          "type": "uint256"
        },
        {
          "internalType": "uint256",
          "name": "",
          "type": "uint256"
        },
        {
          "internalType": "bytes",
          "name": "",
          "type": "bytes"
        }
      ],
      "name": "mint",
      "outputs": [],
      "stateMutability": "pure",
      "type": "function"
    },
    {
      "inputs": [
        {
          "internalType": "address",
          "name": "",
          "type": "address"
        },
        {
          "internalType": "uint256[]",
          "name": "",
          "type": "uint256[]"
        },
        {
          "internalType": "uint256[]",
          "name": "",
          "type": "uint256[]"
        },
        {
          "internalType": "bytes",
          "name": "",
          "type": "bytes"
        }
      ],
      "name": "mintBatch",
      "outputs": [],
      "stateMutability": "pure",
      "type": "function"
    },
    {
      "inputs": [],
      "name": "nextTokenId",
      "outputs": [
        {
          "internalType": "uint256",
          "name": "",
          "type": "uint256"
        }
      ],
      "stateMutability": "view",
      "type": "function"
    },
    {
      "inputs": [
        {
          "internalType": "address",
          "name": "",
          "type": "address"
        },
        {
          "internalType": "address",
          "name": "",
          "type": "address"
        },
        {
          "internalType": "uint256[]",
          "name": "",
          "type": "uint256[]"
        },
        {
          "internalType": "uint256[]",
          "name": "",
          "type": "uint256[]"
        },
        {
          "internalType": "bytes",
          "name": "",
          "type": "bytes"
        }
      ],
      "name": "onERC1155BatchReceived",
      "outputs": [
        {
          "internalType": "bytes4",
          "name": "",
          "type": "bytes4"
        }
      ],
      "stateMutability": "nonpayable",
      "type": "function"
    },
    {
      "inputs": [
        {
          "internalType": "address",
          "name": "",
          "type": "address"
        },
        {
          "internalType": "address",
          "name": "",
          "type": "address"
        },
        {
          "internalType": "uint256",
          "name": "",
          "type": "uint256"
        },
        {
          "internalType": "uint256",
          "name": "",
          "type": "uint256"
        },
        {
          "internalType": "bytes",
          "name": "",
          "type": "bytes"
        }
      ],
      "name": "onERC1155Received",
      "outputs": [
        {
          "internalType": "bytes4",
          "name": "",
          "type": "bytes4"
        }
      ],
      "stateMutability": "nonpayable",
      "type": "function"
    },
    {
      "inputs": [
        {
          "internalType": "address",
          "name": "",
          "type": "address"
        },
        {
          "internalType": "address",
          "name": "",
          "type": "address"
        },
        {
          "internalType": "uint256",
          "name": "",
          "type": "uint256"
        },
        {
          "internalType": "bytes",
          "name": "",
          "type": "bytes"
        }
      ],
      "name": "onERC721Received",
      "outputs": [
        {
          "internalType": "bytes4",
          "name": "",
          "type": "bytes4"
        }
      ],
      "stateMutability": "nonpayable",
      "type": "function"
    },
    {
      "inputs": [],
      "name": "pause",
      "outputs": [],
      "stateMutability": "nonpayable",
      "type": "function"
    },
    {
      "inputs": [],
      "name": "paused",
      "outputs": [
        {
          "internalType": "bool",
          "name": "",
          "type": "bool"
        }
      ],
      "stateMutability": "view",
      "type": "function"
    },
    {
      "inputs": [
        {
          "internalType": "uint256",
          "name": "_tokenId",
          "type": "uint256"
        },
        {
          "internalType": "uint256",
          "name": "_amount",
          "type": "uint256"
        }
      ],
      "name": "redeemToken",
      "outputs": [],
      "stateMutability": "nonpayable",
      "type": "function"
    },
    {
      "inputs": [
        {
          "internalType": "bytes32",
          "name": "role",
          "type": "bytes32"
        },
        {
          "internalType": "address",
          "name": "account",
          "type": "address"
        }
      ],
      "name": "renounceRole",
      "outputs": [],
      "stateMutability": "nonpayable",
      "type": "function"
    },
    {
      "inputs": [
        {
          "internalType": "bytes32",
          "name": "role",
          "type": "bytes32"
        },
        {
          "internalType": "address",
          "name": "account",
          "type": "address"
        }
      ],
      "name": "revokeRole",
      "outputs": [],
      "stateMutability": "nonpayable",
      "type": "function"
    },
    {
      "inputs": [],
      "name": "royaltyBps",
      "outputs": [
        {
          "internalType": "uint256",
          "name": "",
          "type": "uint256"
        }
      ],
      "stateMutability": "view",
      "type": "function"
    },
    {
      "inputs": [
        {
          "internalType": "uint256",
          "name": "tokenId",
          "type": "uint256"
        },
        {
          "internalType": "uint256",
          "name": "salePrice",
          "type": "uint256"
        }
      ],
      "name": "royaltyInfo",
      "outputs": [
        {
          "internalType": "address",
          "name": "receiver",
          "type": "address"
        },
        {
          "internalType": "uint256",
          "name": "royaltyAmount",
          "type": "uint256"
        }
      ],
      "stateMutability": "view",
      "type": "function"
    },
    {
      "inputs": [
        {
          "internalType": "address",
          "name": "from",
          "type": "address"
        },
        {
          "internalType": "address",
          "name": "to",
          "type": "address"
        },
        {
          "internalType": "uint256[]",
          "name": "ids",
          "type": "uint256[]"
        },
        {
          "internalType": "uint256[]",
          "name": "amounts",
          "type": "uint256[]"
        },
        {
          "internalType": "bytes",
          "name": "data",
          "type": "bytes"
        }
      ],
      "name": "safeBatchTransferFrom",
      "outputs": [],
      "stateMutability": "nonpayable",
      "type": "function"
    },
    {
      "inputs": [
        {
          "internalType": "address",
          "name": "from",
          "type": "address"
        },
        {
          "internalType": "address",
          "name": "to",
          "type": "address"
        },
        {
          "internalType": "uint256",
          "name": "id",
          "type": "uint256"
        },
        {
          "internalType": "uint256",
          "name": "amount",
          "type": "uint256"
        },
        {
          "internalType": "bytes",
          "name": "data",
          "type": "bytes"
        }
      ],
      "name": "safeTransferFrom",
      "outputs": [],
      "stateMutability": "nonpayable",
      "type": "function"
    },
    {
      "inputs": [
        {
          "internalType": "bool",
          "name": "_isTransferable",
          "type": "bool"
        }
      ],
      "name": "setAccessNftTransferability",
      "outputs": [],
      "stateMutability": "nonpayable",
      "type": "function"
    },
    {
      "inputs": [
        {
          "internalType": "address",
          "name": "operator",
          "type": "address"
        },
        {
          "internalType": "bool",
          "name": "approved",
          "type": "bool"
        }
      ],
      "name": "setApprovalForAll",
      "outputs": [],
      "stateMutability": "nonpayable",
      "type": "function"
    },
    {
      "inputs": [
        {
          "internalType": "string",
          "name": "_URI",
          "type": "string"
        }
      ],
      "name": "setContractURI",
      "outputs": [],
      "stateMutability": "nonpayable",
      "type": "function"
    },
    {
      "inputs": [
        {
          "internalType": "uint256",
          "name": "_tokenId",
          "type": "uint256"
        },
        {
          "internalType": "uint256",
          "name": "_secondsUntilRedeem",
          "type": "uint256"
        }
      ],
      "name": "setLastTimeToRedeem",
      "outputs": [],
      "stateMutability": "nonpayable",
      "type": "function"
    },
    {
      "inputs": [
        {
          "internalType": "bool",
          "name": "_restrictedTransfer",
          "type": "bool"
        }
      ],
      "name": "setRestrictedTransfer",
      "outputs": [],
      "stateMutability": "nonpayable",
      "type": "function"
    },
    {
      "inputs": [
        {
          "internalType": "uint256",
          "name": "_royaltyBps",
          "type": "uint256"
        }
      ],
      "name": "setRoyaltyBps",
      "outputs": [],
      "stateMutability": "nonpayable",
      "type": "function"
    },
    {
      "inputs": [
        {
          "internalType": "bytes4",
          "name": "interfaceId",
          "type": "bytes4"
        }
      ],
      "name": "supportsInterface",
      "outputs": [
        {
          "internalType": "bool",
          "name": "",
          "type": "bool"
        }
      ],
      "stateMutability": "view",
      "type": "function"
    },
    {
      "inputs": [
        {
          "internalType": "uint256",
          "name": "",
          "type": "uint256"
        }
      ],
      "name": "tokenState",
      "outputs": [
        {
          "internalType": "address",
          "name": "creator",
          "type": "address"
        },
        {
          "internalType": "string",
          "name": "uri",
          "type": "string"
        },
        {
          "internalType": "bool",
          "name": "isRedeemable",
          "type": "bool"
        },
        {
          "internalType": "uint256",
          "name": "accessNftId",
          "type": "uint256"
        },
        {
          "internalType": "enum AccessNFT.UnderlyingType",
          "name": "underlyingType",
          "type": "uint8"
        }
      ],
      "stateMutability": "view",
      "type": "function"
    },
    {
      "inputs": [
        {
          "internalType": "uint256",
          "name": "_nftId",
          "type": "uint256"
        }
      ],
      "name": "tokenURI",
      "outputs": [
        {
          "internalType": "string",
          "name": "",
          "type": "string"
        }
      ],
      "stateMutability": "view",
      "type": "function"
    },
    {
      "inputs": [
        {
          "internalType": "uint256",
          "name": "id",
          "type": "uint256"
        }
      ],
      "name": "totalSupply",
      "outputs": [
        {
          "internalType": "uint256",
          "name": "",
          "type": "uint256"
        }
      ],
      "stateMutability": "view",
      "type": "function"
    },
    {
      "inputs": [],
      "name": "transfersRestricted",
      "outputs": [
        {
          "internalType": "bool",
          "name": "",
          "type": "bool"
        }
      ],
      "stateMutability": "view",
      "type": "function"
    },
    {
      "inputs": [],
      "name": "unpause",
      "outputs": [],
      "stateMutability": "nonpayable",
      "type": "function"
    },
    {
      "inputs": [
        {
          "internalType": "uint256",
          "name": "_nftId",
          "type": "uint256"
        }
      ],
      "name": "uri",
      "outputs": [
        {
          "internalType": "string",
          "name": "",
          "type": "string"
        }
      ],
      "stateMutability": "view",
      "type": "function"
    },
    {
      "inputs": [
        {
          "internalType": "address[]",
          "name": "_tokenContracts",
          "type": "address[]"
        },
        {
          "internalType": "uint256[]",
          "name": "_tokenAmounts",
          "type": "uint256[]"
        },
        {
          "internalType": "uint256[]",
          "name": "_numOfNftsToMint",
          "type": "uint256[]"
        },
        {
          "internalType": "string[]",
          "name": "_nftURIs",
          "type": "string[]"
        }
      ],
      "name": "wrapERC20",
      "outputs": [],
      "stateMutability": "nonpayable",
      "type": "function"
    },
    {
      "inputs": [
        {
          "internalType": "address[]",
          "name": "_nftContracts",
          "type": "address[]"
        },
        {
          "internalType": "uint256[]",
          "name": "_tokenIds",
          "type": "uint256[]"
        },
        {
          "internalType": "string[]",
          "name": "_nftURIs",
          "type": "string[]"
        }
      ],
      "name": "wrapERC721",
      "outputs": [],
      "stateMutability": "nonpayable",
      "type": "function"
    }
  ],
  "bytecode": "0x60806040523480156200001157600080fd5b50604051620062b5380380620062b5833981016040819052620000349162000441565b83838383828180620000468162000152565b506005805460ff19169055620000676000620000616200016b565b62000188565b6200008560008051602062006295833981519152620000616200016b565b620000b47f65d7a28e3265b37a6474929f336521b332c1681b933f6cb9f3376673440d862a620000616200016b565b50600780546001600160a01b03199081166001600160a01b0393841617909155600880549091169186169190911790558051620000f990600c9060208401906200039b565b50600980546001600160a01b0319166001600160a01b038416179055620001447f8502233096d909befbda0999bb8ea2f3a6be3c138b9fbf003752a4c8bce86f6c620000616200016b565b5050505050505050620005be565b8051620001679060049060208401906200039b565b5050565b600062000182620001cb60201b6200271c1760201c565b90505b90565b6200019f82826200020b60201b6200274a1760201c565b6000828152600160209081526040909120620001c69183906200275862000217821b17901c565b505050565b6000620001d83362000237565b15620001ee575060131936013560601c62000185565b620002036200024b60201b6200276d1760201c565b905062000185565b6200016782826200024f565b60006200022e836001600160a01b038416620002d9565b90505b92915050565b6007546001600160a01b0390811691161490565b3390565b6200025b828262000328565b62000167576000828152602081815260408083206001600160a01b03851684529091529020805460ff19166001179055620002956200016b565b6001600160a01b0316816001600160a01b0316837f2f8788117e7eff1d82e926ec794901d17c78024a50270940304540a733656f0d60405160405180910390a45050565b6000620002e783836200035a565b6200031f5750815460018181018455600084815260208082209093018490558454848252828601909352604090209190915562000231565b50600062000231565b6000600080516020620062958339815191528314806200022e57506200022e83836200037260201b620027711760201c565b60009081526001919091016020526040902054151590565b6000918252602082815260408084206001600160a01b0393909316845291905290205460ff1690565b828054620003a99062000552565b90600052602060002090601f016020900481019282620003cd576000855562000418565b82601f10620003e857805160ff191683800117855562000418565b8280016001018555821562000418579182015b8281111562000418578251825591602001919060010190620003fb565b50620004269291506200042a565b5090565b5b808211156200042657600081556001016200042b565b6000806000806080858703121562000457578384fd5b84516200046481620005a5565b809450506020808601516200047981620005a5565b60408701519094506200048c81620005a5565b60608701519093506001600160401b0380821115620004a9578384fd5b818801915088601f830112620004bd578384fd5b815181811115620004d257620004d26200058f565b604051601f8201601f1916810185018381118282101715620004f857620004f86200058f565b60405281815283820185018b10156200050f578586fd5b8592505b8183101562000532578383018501518184018601529184019162000513565b818311156200054357858583830101525b979a9699509497505050505050565b6002810460018216806200056757607f821691505b602082108114156200058957634e487b7160e01b600052602260045260246000fd5b50919050565b634e487b7160e01b600052604160045260246000fd5b6001600160a01b0381168114620005bb57600080fd5b50565b615cc780620005ce6000396000f3fe608060405234801561001057600080fd5b50600436106103405760003560e01c80638456cb59116101bd578063c87b56dd116100f9578063e63ab1e9116100a2578063f23a6e611161007c578063f23a6e6114610698578063f242432a146106ab578063f48cc326146106be578063f5298aca146106d157610340565b8063e63ab1e914610675578063e8a3d4851461067d578063e985e9c51461068557610340565b8063d5391393116100d3578063d539139314610652578063d547741f1461065a578063d9371ddd1461066d57610340565b8063c87b56dd146103a3578063ca15c8731461062c578063ca551b021461063f57610340565b80639f1d947711610166578063bc197c8111610140578063bc197c81146105f6578063bd85b03914610609578063c0e727401461061c578063c63adb2b1461062457610340565b80639f1d9477146105c8578063a217fddf146105db578063a22cb465146105e357610340565b806391d148541161019757806391d148541461057e578063938e3d7b146105915780639745cc3d146105a457610340565b80638456cb59146105435780638ba448c21461054b5780639010d07c1461055e57610340565b80632f2ff15d1161028c578063572b6c0511610235578063731133e91161020f578063731133e91461050d57806375794a3c1461052057806382b80fa8146105285780638423df791461053b57610340565b8063572b6c05146104df5780635c975abb146104f25780636b20c454146104fa57610340565b80633f4ba83a116102665780633f4ba83a146104a45780634487f6b4146104ac5780634e1273f4146104bf57610340565b80632f2ff15d1461046b5780632f4abf071461047e57806336568abe1461049157610340565b80631f72d831116102ee578063248a9ca3116102c8578063248a9ca3146104245780632a55205a146104375780632eb2c2d61461045857610340565b80631f72d831146103f65780631f7fdffa14610409578063206b60f91461041c57610340565b80630e89341c1161031f5780630e89341c146103a3578063150b7a02146103c357806317ffeba2146103e357610340565b8062fdd58e1461034557806301ffc9a71461036e5780630e4d7d471461038e575b600080fd5b61035861035336600461432c565b6106e4565b6040516103659190614cbe565b60405180910390f35b61038161037c366004614800565b610740565b6040516103659190614cb3565b6103a161039c36600461445f565b61076e565b005b6103b66103b136600461478d565b610ac0565b6040516103659190614cf3565b6103d66103d1366004614133565b610b65565b6040516103659190614cde565b6103586103f136600461478d565b610b75565b6103a161040436600461478d565b610b87565b6103a161041736600461426d565b610e23565b610358610e3b565b61035861043236600461478d565b610e5f565b61044a6104453660046147df565b610e74565b604051610365929190614bb2565b6103a161046636600461408d565b610f35565b6103a16104793660046147bd565b610f93565b6103a161048c3660046143ce565b610fba565b6103a161049f3660046147bd565b6112fd565b6103a161131f565b6103a16104ba3660046147df565b611371565b6104d26104cd366004614513565b61145e565b6040516103659190614bcb565b6103816104ed36600461404a565b61157e565b610381611592565b6103a16105083660046141fc565b61159c565b6103a161051b366004614387565b6115f1565b610358611609565b6104d26105363660046145d1565b61160f565b610381611ca1565b6103a1611caa565b6103a1610559366004614755565b611cfa565b61057161056c3660046147df565b611e23565b6040516103659190614a65565b61038161058c3660046147bd565b611e42565b6103a161059f366004614838565b611e77565b6105b76105b236600461478d565b611f99565b604051610365959493929190614b52565b6103a16105d6366004614755565b612061565b6103586121b9565b6103a16105f13660046142f6565b6121be565b6103d661060436600461408d565b61228c565b61035861061736600461478d565b61229d565b6103b66122af565b61035861233d565b61035861063a36600461478d565b612343565b6103a161064d3660046147df565b61235a565b610358612527565b6103a16106683660046147bd565b61254b565b610381612555565b610358612563565b6103b6612587565b610381610693366004614064565b612619565b6103d66106a6366004614199565b612647565b6103a16106b9366004614199565b612658565b6103816106cc36600461478d565b6126af565b6103a16106df366004614355565b6126c7565b60006001600160a01b0383166107155760405162461bcd60e51b815260040161070c90614e2c565b60405180910390fd5b5060008181526002602090815260408083206001600160a01b03861684529091529020545b92915050565b600061074b8261279a565b8061076657506001600160e01b0319821663152a902d60e11b145b90505b919050565b600860009054906101000a90046001600160a01b03166001600160a01b0316639d2f83f06040518163ffffffff1660e01b815260040160206040518083038186803b1580156107bc57600080fd5b505afa1580156107d0573d6000803e3d6000fd5b505050506040513d601f19601f820116820180604052508101906107f49190614771565b156108115760405162461bcd60e51b815260040161070c90615395565b61083d7f9f2df0fed2c77648de5860a4cc508cd0818c85b8b8a1ab4ceeef8d981c8956a661058c6127a5565b6108595760405162461bcd60e51b815260040161070c9061509e565b60006108636127a5565b600954600a5460405163381f4c4d60e21b815292935060009283926001600160a01b03169163e07d3134916108a9919087908e908e908e908e908e908e9060040161592f565b600060405180830381600087803b1580156108c357600080fd5b505af11580156108d7573d6000803e3d6000fd5b505050506040513d6000823e601f3d908101601f191682016040526108ff9190810190614710565b9150915080600a81905550610925838388604051806020016040528060008152506127b4565b60005b8251811015610ab4576040518060a00160405280856001600160a01b0316815260200187878481811061096b57634e487b7160e01b600052603260045260246000fd5b905060200281019061097d91906159ee565b8080601f01602080910402602001604051908101604052809392919081815260200183838082843760009201829052509385525050600160208401819052604084019290925250606090910190815250600e60008584815181106109f157634e487b7160e01b600052603260045260246000fd5b602090810291909101810151825281810192909252604001600020825181546001600160a01b0319166001600160a01b039091161781558282015180519192610a4292600185019290910190613d6c565b5060408201516002808301805492151560ff19938416179055606084015160038401556080840151600484018054919390929116906001908490811115610a9957634e487b7160e01b600052602160045260246000fd5b0217905550610aad91506001905082615ab5565b9050610928565b50505050505050505050565b6000818152600e60205260409020600101805460609190610ae090615b66565b80601f0160208091040260200160405190810160405280929190818152602001828054610b0c90615b66565b8015610b595780601f10610b2e57610100808354040283529160200191610b59565b820191906000526020600020905b815481529060010190602001808311610b3c57829003601f168201915b50505050509050919050565b630a85bd0160e11b949350505050565b600f6020526000908152604090205481565b60085460408051634a32c6bf60e11b815290516001600160a01b03909216916391d148549183916394658d7e91600480820192602092909190829003018186803b158015610bd457600080fd5b505afa158015610be8573d6000803e3d6000fd5b505050506040513d601f19601f82011682018060405250810190610c0c91906147a5565b610c146127a5565b6040518363ffffffff1660e01b8152600401610c31929190614cc7565b60206040518083038186803b158015610c4957600080fd5b505afa158015610c5d573d6000803e3d6000fd5b505050506040513d601f19601f82011682018060405250810190610c819190614771565b610c9d5760405162461bcd60e51b815260040161070c90614f2a565b600860009054906101000a90046001600160a01b03166001600160a01b0316635cd423156040518163ffffffff1660e01b815260040160206040518083038186803b158015610ceb57600080fd5b505afa158015610cff573d6000803e3d6000fd5b505050506040513d601f19601f82011682018060405250810190610d239190614878565b600860009054906101000a90046001600160a01b03166001600160a01b031663fd967f476040518163ffffffff1660e01b815260040160206040518083038186803b158015610d7157600080fd5b505afa158015610d85573d6000803e3d6000fd5b505050506040513d601f19601f82011682018060405250810190610da99190614878565b610db39190615a81565b6fffffffffffffffffffffffffffffffff168110610de35760405162461bcd60e51b815260040161070c906157ba565b600b8190556040517f244ea8d7627f5a08f4299862bd5a45752842c183aee5b0fb0d1e4887bfa605b390610e18908390614cbe565b60405180910390a150565b60405162461bcd60e51b815260040161070c90614ecd565b7f8502233096d909befbda0999bb8ea2f3a6be3c138b9fbf003752a4c8bce86f6c81565b60009081526020819052604090206001015490565b6000828152600e6020908152604080832054600854825163fd967f4760e01b815292516001600160a01b039283169594919092169263fd967f479260048083019392829003018186803b158015610eca57600080fd5b505afa158015610ede573d6000803e3d6000fd5b505050506040513d601f19601f82011682018060405250810190610f029190614878565b6fffffffffffffffffffffffffffffffff16600b5484610f229190615aed565b610f2c9190615acd565b90509250929050565b610f3d6127a5565b6001600160a01b0316856001600160a01b03161480610f635750610f63856106936127a5565b610f7f5760405162461bcd60e51b815260040161070c906151de565b610f8c8585858585612853565b5050505050565b610f9d8282612a27565b6000828152600160205260409020610fb59082612758565b505050565b600860009054906101000a90046001600160a01b03166001600160a01b0316639d2f83f06040518163ffffffff1660e01b815260040160206040518083038186803b15801561100857600080fd5b505afa15801561101c573d6000803e3d6000fd5b505050506040513d601f19601f820116820180604052508101906110409190614771565b1561105d5760405162461bcd60e51b815260040161070c90615395565b6110897f9f2df0fed2c77648de5860a4cc508cd0818c85b8b8a1ab4ceeef8d981c8956a661058c6127a5565b6110a55760405162461bcd60e51b815260040161070c9061509e565b60006110af6127a5565b600954600a5460405163608a17b160e11b8152929350600092839283926001600160a01b039091169163c1142f62916110f69188908e908e908e908e908e906004016158d1565b600060405180830381600087803b15801561111057600080fd5b505af1158015611124573d6000803e3d6000fd5b505050506040513d6000823e601f3d908101601f1916820160405261114c91908101906146a6565b92509250925080600a81905550611174848484604051806020016040528060008152506127b4565b60005b8351811015610ab4576040518060a00160405280866001600160a01b031681526020018888848181106111ba57634e487b7160e01b600052603260045260246000fd5b90506020028101906111cc91906159ee565b8080601f01602080910402602001604051908101604052809392919081815260200183838082843760009201829052509385525050600160208401525060408201526060016002815250600e600086848151811061123a57634e487b7160e01b600052603260045260246000fd5b602090810291909101810151825281810192909252604001600020825181546001600160a01b0319166001600160a01b03909116178155828201518051919261128b92600185019290910190613d6c565b5060408201516002808301805492151560ff199384161790556060840151600384015560808401516004840180549193909291169060019084908111156112e257634e487b7160e01b600052602160045260246000fd5b02179055506112f691506001905082615ab5565b9050611177565b6113078282612a4b565b6000828152600160205260409020610fb59082612a8d565b61134b7f65d7a28e3265b37a6474929f336521b332c1681b933f6cb9f3376673440d862a61058c6127a5565b6113675760405162461bcd60e51b815260040161070c9061554b565b61136f612aa2565b565b6000828152600e60205260409020546001600160a01b03166113916127a5565b6001600160a01b0316146113b75760405162461bcd60e51b815260040161070c906155a8565b6000828152600e602052604090206002015460ff16156113e95760405162461bcd60e51b815260040161070c90615491565b60008115611400576113fb8242615ab5565b611404565b6000195b6000848152600f6020526040902081905590507ff01057f3c55599179571189c7758b5ce72994adea5a8dc33095fdc8fdff07119836114416127a5565b83604051611451939291906159a2565b60405180910390a1505050565b606081518351146114815760405162461bcd60e51b815260040161070c906156bf565b6000835167ffffffffffffffff8111156114ab57634e487b7160e01b600052604160045260246000fd5b6040519080825280602002602001820160405280156114d4578160200160208202803683370190505b50905060005b84518110156115765761153b85828151811061150657634e487b7160e01b600052603260045260246000fd5b602002602001015185838151811061152e57634e487b7160e01b600052603260045260246000fd5b60200260200101516106e4565b82828151811061155b57634e487b7160e01b600052603260045260246000fd5b602090810291909101015261156f81615ba1565b90506114da565b509392505050565b6007546001600160a01b0390811691161490565b60055460ff165b90565b6115a46127a5565b6001600160a01b0316836001600160a01b031614806115ca57506115ca836106936127a5565b6115e65760405162461bcd60e51b815260040161070c90614fe4565b610fb5838383612b10565b60405162461bcd60e51b815260040161070c90615817565b600a5481565b600854604080516309d2f83f60e41b815290516060926001600160a01b031691639d2f83f0916004808301926020929190829003018186803b15801561165457600080fd5b505afa158015611668573d6000803e3d6000fd5b505050506040513d601f19601f8201168201806040525081019061168c9190614771565b156116a95760405162461bcd60e51b815260040161070c90615395565b6116d57f9f2df0fed2c77648de5860a4cc508cd0818c85b8b8a1ab4ceeef8d981c8956a661058c6127a5565b6116f15760405162461bcd60e51b815260040161070c9061509e565b88851480156116ff57508887145b61171b5760405162461bcd60e51b815260040161070c906154ee565b886117385760405162461bcd60e51b815260040161070c9061513c565b8867ffffffffffffffff81111561175f57634e487b7160e01b600052604160045260246000fd5b604051908082528060200260200182016040528015611788578160200160208202803683370190505b50905060008967ffffffffffffffff8111156117b457634e487b7160e01b600052604160045260246000fd5b6040519080825280602002602001820160405280156117dd578160200160208202803683370190505b50600a5490915060005b8b811015611b0c578183828151811061181057634e487b7160e01b600052603260045260246000fd5b6020026020010181815250506040518060a0016040528061182f6127a5565b6001600160a01b031681526020018c8c8481811061185d57634e487b7160e01b600052603260045260246000fd5b905060200281019061186f91906159ee565b8080601f016020809104026020016040519081016040528093929190818152602001838380828437600092018290525093855250505060208201819052604082018190526060909101526000838152600e60209081526040909120825181546001600160a01b0319166001600160a01b03909116178155828201518051919261190092600185019290910190613d6c565b5060408201516002808301805492151560ff1993841617905560608401516003840155608084015160048401805491939092911690600190849081111561195757634e487b7160e01b600052602160045260246000fd5b021790555061196b91506001905083615ab5565b91508184828151811061198e57634e487b7160e01b600052603260045260246000fd5b6020026020010181815250506040518060a001604052806119ad6127a5565b6001600160a01b031681526020018e8e848181106119db57634e487b7160e01b600052603260045260246000fd5b90506020028101906119ed91906159ee565b8080601f016020809104026020016040519081016040528093929190818152602001838380828437600092019190915250505090825250600160208201819052604090910190611a3d9085615b0c565b8152602001600090526000838152600e60209081526040909120825181546001600160a01b0319166001600160a01b039091161781558282015180519192611a8d92600185019290910190613d6c565b5060408201516002808301805492151560ff19938416179055606084015160038401556080840151600484018054919390929116906001908490811115611ae457634e487b7160e01b600052602160045260246000fd5b0217905550611af891506001905083615ab5565b915080611b0481615ba1565b9150506117e7565b5080600a81905550611b6030838a8a808060200260200160405190810160405280939291908181526020018383602002808284376000920182905250604080516020810190915290815292506127b4915050565b611bb3611b6b6127a5565b848a8a808060200260200160405190810160405280939291908181526020018383602002808284376000920182905250604080516020810190915290815292506127b4915050565b611bbb6127a5565b6001600160a01b03167fe309c6cae6e35dcc6c2f37d5da32b19e0346074be56b9722cdf852d20fced6ee848e8e868f8f8f8f604051611c01989796959493929190614bde565b60405180910390a26001600160a01b03861615611c9257611c92611c236127a5565b87858b8b8080602002602001604051908101604052809392919081815260200183836020028082843760009201919091525050604080516020601f8e018190048102820181019092528c815292508c91508b9081908401838280828437600092019190915250610f3592505050565b50509998505050505050505050565b600d5460ff1681565b611cd67f65d7a28e3265b37a6474929f336521b332c1681b933f6cb9f3376673440d862a61058c6127a5565b611cf25760405162461bcd60e51b815260040161070c90615605565b61136f612bae565b60085460408051634a32c6bf60e11b815290516001600160a01b03909216916391d148549183916394658d7e91600480820192602092909190829003018186803b158015611d4757600080fd5b505afa158015611d5b573d6000803e3d6000fd5b505050506040513d601f19601f82011682018060405250810190611d7f91906147a5565b611d876127a5565b6040518363ffffffff1660e01b8152600401611da4929190614cc7565b60206040518083038186803b158015611dbc57600080fd5b505afa158015611dd0573d6000803e3d6000fd5b505050506040513d601f19601f82011682018060405250810190611df49190614771565b611e105760405162461bcd60e51b815260040161070c90614f2a565b600d805460ff1916911515919091179055565b6000828152600160205260408120611e3b9083612c09565b9392505050565b60007f9f2df0fed2c77648de5860a4cc508cd0818c85b8b8a1ab4ceeef8d981c8956a6831480611e3b5750611e3b8383612771565b60085460408051634a32c6bf60e11b815290516001600160a01b03909216916391d148549183916394658d7e91600480820192602092909190829003018186803b158015611ec457600080fd5b505afa158015611ed8573d6000803e3d6000fd5b505050506040513d601f19601f82011682018060405250810190611efc91906147a5565b611f046127a5565b6040518363ffffffff1660e01b8152600401611f21929190614cc7565b60206040518083038186803b158015611f3957600080fd5b505afa158015611f4d573d6000803e3d6000fd5b505050506040513d601f19601f82011682018060405250810190611f719190614771565b611f8d5760405162461bcd60e51b815260040161070c90614f2a565b610fb5600c8383613df0565b600e60205260009081526040902080546001820180546001600160a01b039092169291611fc590615b66565b80601f0160208091040260200160405190810160405280929190818152602001828054611ff190615b66565b801561203e5780601f106120135761010080835404028352916020019161203e565b820191906000526020600020905b81548152906001019060200180831161202157829003601f168201915b5050505060028301546003840154600490940154929360ff918216939092501685565b60085460408051634a32c6bf60e11b815290516001600160a01b03909216916391d148549183916394658d7e91600480820192602092909190829003018186803b1580156120ae57600080fd5b505afa1580156120c2573d6000803e3d6000fd5b505050506040513d601f19601f820116820180604052508101906120e691906147a5565b6120ee6127a5565b6040518363ffffffff1660e01b815260040161210b929190614cc7565b60206040518083038186803b15801561212357600080fd5b505afa158015612137573d6000803e3d6000fd5b505050506040513d601f19601f8201168201806040525081019061215b9190614771565b6121775760405162461bcd60e51b815260040161070c90614f2a565b600d805461ff001916610100831515021790556040517e4701906729f069b76305c2c6a0bfa1d4ba4ff97d08206c8716078bf7a5e02790610e18908390614cb3565b600081565b816001600160a01b03166121d06127a5565b6001600160a01b031614156121f75760405162461bcd60e51b815260040161070c90615662565b80600360006122046127a5565b6001600160a01b03908116825260208083019390935260409182016000908120918716808252919093529120805460ff1916921515929092179091556122486127a5565b6001600160a01b03167f17307eab39ab6107e8899845ad3d59bd9653f200f220920489ca2b5937696c31836040516122809190614cb3565b60405180910390a35050565b63bc197c8160e01b95945050505050565b60009081526006602052604090205490565b600c80546122bc90615b66565b80601f01602080910402602001604051908101604052809291908181526020018280546122e890615b66565b80156123355780601f1061230a57610100808354040283529160200191612335565b820191906000526020600020905b81548152906001019060200180831161231857829003601f168201915b505050505081565b600b5481565b600081815260016020526040812061076690612c15565b600860009054906101000a90046001600160a01b03166001600160a01b0316639d2f83f06040518163ffffffff1660e01b815260040160206040518083038186803b1580156123a857600080fd5b505afa1580156123bc573d6000803e3d6000fd5b505050506040513d601f19601f820116820180604052508101906123e09190614771565b156123fd5760405162461bcd60e51b815260040161070c90615395565b60006124076127a5565b6000848152600e602052604090206002015490915060ff1661243b5760405162461bcd60e51b815260040161070c90615434565b8161244682856106e4565b101580156124545750600082115b6124705760405162461bcd60e51b815260040161070c90615041565b6000838152600e602052604081206004015460ff16908160028111156124a657634e487b7160e01b600052602160045260246000fd5b14156124bc576124b7848484612c20565b612521565b60018160028111156124de57634e487b7160e01b600052602160045260246000fd5b14156124ef576124b7848484612d2d565b600281600281111561251157634e487b7160e01b600052602160045260246000fd5b1415612521576125218483612da3565b50505050565b7f9f2df0fed2c77648de5860a4cc508cd0818c85b8b8a1ab4ceeef8d981c8956a681565b6113078282612e0f565b600d54610100900460ff1681565b7f65d7a28e3265b37a6474929f336521b332c1681b933f6cb9f3376673440d862a81565b6060600c805461259690615b66565b80601f01602080910402602001604051908101604052809291908181526020018280546125c290615b66565b801561260f5780601f106125e45761010080835404028352916020019161260f565b820191906000526020600020905b8154815290600101906020018083116125f257829003601f168201915b5050505050905090565b6001600160a01b03918216600090815260036020908152604080832093909416825291909152205460ff1690565b63f23a6e6160e01b95945050505050565b6126606127a5565b6001600160a01b0316856001600160a01b031614806126865750612686856106936127a5565b6126a25760405162461bcd60e51b815260040161070c90614fe4565b610f8c8585858585612e2e565b6000908152600e602052604090206002015460ff1690565b6126cf6127a5565b6001600160a01b0316836001600160a01b031614806126f557506126f5836106936127a5565b6127115760405162461bcd60e51b815260040161070c90614fe4565b610fb5838383612f6c565b60006127273361157e565b1561273b575060131936013560601c611599565b61274361276d565b9050611599565b6127548282612f9f565b5050565b6000611e3b836001600160a01b038416613024565b3390565b6000918252602082815260408084206001600160a01b0393909316845291905290205460ff1690565b60006107668261306e565b60006127af61271c565b905090565b6127c084848484613093565b60005b8351811015610f8c578281815181106127ec57634e487b7160e01b600052603260045260246000fd5b60200260200101516006600086848151811061281857634e487b7160e01b600052603260045260246000fd5b60200260200101518152602001908152602001600020600082825461283d9190615ab5565b9091555061284c905081615ba1565b90506127c3565b81518351146128745760405162461bcd60e51b815260040161070c9061571c565b6001600160a01b03841661289a5760405162461bcd60e51b815260040161070c90615199565b60006128a46127a5565b90506128b4818787878787613215565b60005b84518110156129b95760008582815181106128e257634e487b7160e01b600052603260045260246000fd5b60200260200101519050600085838151811061290e57634e487b7160e01b600052603260045260246000fd5b60209081029190910181015160008481526002835260408082206001600160a01b038e16835290935291909120549091508181101561295f5760405162461bcd60e51b815260040161070c906152db565b60008381526002602090815260408083206001600160a01b038e8116855292528083208585039055908b1682528120805484929061299e908490615ab5565b92505081905550505050806129b290615ba1565b90506128b7565b50846001600160a01b0316866001600160a01b0316826001600160a01b03167f4a39dc06d4c0dbc64b70af90fd698a233a518aa5d07e595d983b8c0526c8f7fb8787604051612a09929190614c85565b60405180910390a4612a1f818787878787613383565b505050505050565b612a3082610e5f565b612a4181612a3c6127a5565b613491565b610fb58383612f9f565b612a536127a5565b6001600160a01b0316816001600160a01b031614612a835760405162461bcd60e51b815260040161070c90615874565b61275482826134f5565b6000611e3b836001600160a01b038416613578565b612aaa611592565b612ac65760405162461bcd60e51b815260040161070c90614df5565b6005805460ff191690557f5db9ee0a495bf2e6ff9c91a7834c1ba4fdd244a5e8aa4e537bd38aeae4b073aa612af96127a5565b604051612b069190614a65565b60405180910390a1565b612b1b838383613695565b60005b825181101561252157818181518110612b4757634e487b7160e01b600052603260045260246000fd5b602002602001015160066000858481518110612b7357634e487b7160e01b600052603260045260246000fd5b602002602001015181526020019081526020016000206000828254612b989190615b0c565b90915550612ba7905081615ba1565b9050612b1e565b612bb6611592565b15612bd35760405162461bcd60e51b815260040161070c90615105565b6005805460ff191660011790557f62e78cea01bee320cd4e420270b5ea74000d11b0c9f74754ebdbfc544b05a258612af96127a5565b6000611e3b838361383b565b600061076682613873565b612c32612c2b6127a5565b84846126c7565b6000838152600e6020908152604080832060030154808452600f9092529091205442111580612c6d57506000818152600f6020526040902054155b612c895760405162461bcd60e51b815260040161070c906153d7565b604051637921219560e11b8152309063f242432a90612cb2908390869086908990600401614b1a565b600060405180830381600087803b158015612ccc57600080fd5b505af1158015612ce0573d6000803e3d6000fd5b505050508084836001600160a01b03167fa70022dc131dbd0be52c08bf87947e36b3e7d4934dce1efecf2d261c381d101786604051612d1f9190614cbe565b60405180910390a450505050565b612d38818484612f6c565b60095460405163f93bc78b60e01b81526001600160a01b039091169063f93bc78b90612d6c908690869086906004016159cf565b600060405180830381600087803b158015612d8657600080fd5b505af1158015612d9a573d6000803e3d6000fd5b50505050505050565b612daf81836001612f6c565b600954604051635726a91b60e11b81526001600160a01b039091169063ae4d523690612de19085908590600401614cc7565b600060405180830381600087803b158015612dfb57600080fd5b505af1158015612a1f573d6000803e3d6000fd5b612e1882610e5f565b612e2481612a3c6127a5565b610fb583836134f5565b6001600160a01b038416612e545760405162461bcd60e51b815260040161070c90615199565b6000612e5e6127a5565b9050612e7e818787612e6f88613877565b612e7888613877565b87613215565b60008481526002602090815260408083206001600160a01b038a16845290915290205483811015612ec15760405162461bcd60e51b815260040161070c906152db565b60008581526002602090815260408083206001600160a01b038b8116855292528083208785039055908816825281208054869290612f00908490615ab5565b92505081905550856001600160a01b0316876001600160a01b0316836001600160a01b03167fc3d58168c5ae7397731d063d5bbf3d657854427343f4c083240f7aacaa2d0f628888604051612f569291906159c1565b60405180910390a4612d9a8288888888886138d0565b612f778383836139a1565b60008281526006602052604081208054839290612f95908490615b0c565b9091555050505050565b612fa98282611e42565b612754576000828152602081815260408083206001600160a01b03851684529091529020805460ff19166001179055612fe06127a5565b6001600160a01b0316816001600160a01b0316837f2f8788117e7eff1d82e926ec794901d17c78024a50270940304540a733656f0d60405160405180910390a45050565b60006130308383613ab4565b6130665750815460018181018455600084815260208082209093018490558454848252828601909352604090209190915561073a565b50600061073a565b60006001600160e01b03198216630271189760e51b1480610766575061076682613acc565b6001600160a01b0384166130b95760405162461bcd60e51b815260040161070c90615779565b81518351146130da5760405162461bcd60e51b815260040161070c9061571c565b60006130e46127a5565b90506130f581600087878787613215565b60005b84518110156131ad5783818151811061312157634e487b7160e01b600052603260045260246000fd5b60200260200101516002600087848151811061314d57634e487b7160e01b600052603260045260246000fd5b602002602001015181526020019081526020016000206000886001600160a01b03166001600160a01b0316815260200190815260200160002060008282546131959190615ab5565b909155508190506131a581615ba1565b9150506130f8565b50846001600160a01b031660006001600160a01b0316826001600160a01b03167f4a39dc06d4c0dbc64b70af90fd698a233a518aa5d07e595d983b8c0526c8f7fb87876040516131fe929190614c85565b60405180910390a4610f8c81600087878787613383565b613223868686868686613b0c565b600d5460ff16801561323d57506001600160a01b03851615155b801561325157506001600160a01b03841615155b156132cc576132807f8502233096d909befbda0999bb8ea2f3a6be3c138b9fbf003752a4c8bce86f6c86611e42565b806132b057506132b07f8502233096d909befbda0999bb8ea2f3a6be3c138b9fbf003752a4c8bce86f6c85611e42565b6132cc5760405162461bcd60e51b815260040161070c90615338565b60005b8351811015612d9a57600e60008583815181106132fc57634e487b7160e01b600052603260045260246000fd5b60209081029190910181015182528101919091526040016000206002015460ff161580156133325750600d54610100900460ff16155b15613371576001600160a01b038616158061335557506001600160a01b03861630145b6133715760405162461bcd60e51b815260040161070c9061523b565b8061337b81615ba1565b9150506132cf565b613395846001600160a01b0316613b1a565b15612a1f5760405163bc197c8160e01b81526001600160a01b0385169063bc197c81906133ce9089908990889088908890600401614a79565b602060405180830381600087803b1580156133e857600080fd5b505af1925050508015613418575060408051601f3d908101601f191682019092526134159181019061481c565b60015b61346157613424615bee565b8061342f5750613449565b8060405162461bcd60e51b815260040161070c9190614cf3565b60405162461bcd60e51b815260040161070c90614d06565b6001600160e01b0319811663bc197c8160e01b14612d9a5760405162461bcd60e51b815260040161070c90614d98565b61349b8282611e42565b612754576134b3816001600160a01b03166014613b20565b6134be836020613b20565b6040516020016134cf9291906149e4565b60408051601f198184030181529082905262461bcd60e51b825261070c91600401614cf3565b6134ff8282611e42565b15612754576000828152602081815260408083206001600160a01b03851684529091529020805460ff191690556135346127a5565b6001600160a01b0316816001600160a01b0316837ff6391f5c32d9c69d2a47ea670b442974b53935d1edc7fd64eb21e047a839171b60405160405180910390a45050565b6000818152600183016020526040812054801561368b57600061359c600183615b0c565b85549091506000906135b090600190615b0c565b90508181146136315760008660000182815481106135de57634e487b7160e01b600052603260045260246000fd5b906000526020600020015490508087600001848154811061360f57634e487b7160e01b600052603260045260246000fd5b6000918252602080832090910192909255918252600188019052604090208390555b855486908061365057634e487b7160e01b600052603160045260246000fd5b60019003818190600052602060002001600090559055856001016000868152602001908152602001600020600090556001935050505061073a565b600091505061073a565b6001600160a01b0383166136bb5760405162461bcd60e51b815260040161070c90615298565b80518251146136dc5760405162461bcd60e51b815260040161070c9061571c565b60006136e66127a5565b905061370681856000868660405180602001604052806000815250613215565b60005b83518110156137ea57600084828151811061373457634e487b7160e01b600052603260045260246000fd5b60200260200101519050600084838151811061376057634e487b7160e01b600052603260045260246000fd5b60209081029190910181015160008481526002835260408082206001600160a01b038c1683529093529190912054909150818110156137b15760405162461bcd60e51b815260040161070c90614e89565b60009283526002602090815260408085206001600160a01b038b16865290915290922091039055806137e281615ba1565b915050613709565b5060006001600160a01b0316846001600160a01b0316826001600160a01b03167f4a39dc06d4c0dbc64b70af90fd698a233a518aa5d07e595d983b8c0526c8f7fb8686604051612d1f929190614c85565b600082600001828154811061386057634e487b7160e01b600052603260045260246000fd5b9060005260206000200154905092915050565b5490565b604080516001808252818301909252606091600091906020808301908036833701905050905082816000815181106138bf57634e487b7160e01b600052603260045260246000fd5b602090810291909101015292915050565b6138e2846001600160a01b0316613b1a565b15612a1f5760405163f23a6e6160e01b81526001600160a01b0385169063f23a6e619061391b9089908990889088908890600401614ad7565b602060405180830381600087803b15801561393557600080fd5b505af1925050508015613965575060408051601f3d908101601f191682019092526139629181019061481c565b60015b61397157613424615bee565b6001600160e01b0319811663f23a6e6160e01b14612d9a5760405162461bcd60e51b815260040161070c90614d98565b6001600160a01b0383166139c75760405162461bcd60e51b815260040161070c90615298565b60006139d16127a5565b9050613a01818560006139e387613877565b6139ec87613877565b60405180602001604052806000815250613215565b60008381526002602090815260408083206001600160a01b038816845290915290205482811015613a445760405162461bcd60e51b815260040161070c90614e89565b60008481526002602090815260408083206001600160a01b03808a16808652919093528184208786039055905190918516907fc3d58168c5ae7397731d063d5bbf3d657854427343f4c083240f7aacaa2d0f6290613aa590899089906159c1565b60405180910390a45050505050565b60009081526001919091016020526040902054151590565b60006001600160e01b03198216636cdb3d1360e11b1480613afd57506001600160e01b031982166303a24d0760e21b145b80610766575061076682613cdf565b612a1f868686868686613d04565b3b151590565b60606000613b2f836002615aed565b613b3a906002615ab5565b67ffffffffffffffff811115613b6057634e487b7160e01b600052604160045260246000fd5b6040519080825280601f01601f191660200182016040528015613b8a576020820181803683370190505b509050600360fc1b81600081518110613bb357634e487b7160e01b600052603260045260246000fd5b60200101906001600160f81b031916908160001a905350600f60fb1b81600181518110613bf057634e487b7160e01b600052603260045260246000fd5b60200101906001600160f81b031916908160001a9053506000613c14846002615aed565b613c1f906001615ab5565b90505b6001811115613cc0577f303132333435363738396162636465660000000000000000000000000000000085600f1660108110613c6e57634e487b7160e01b600052603260045260246000fd5b1a60f81b828281518110613c9257634e487b7160e01b600052603260045260246000fd5b60200101906001600160f81b031916908160001a90535060049490941c93613cb981615b4f565b9050613c22565b508315611e3b5760405162461bcd60e51b815260040161070c90614d63565b60006001600160e01b03198216635a05180f60e01b1480610766575061076682613d37565b613d12868686868686612a1f565b613d1a611592565b15612a1f5760405162461bcd60e51b815260040161070c90614f87565b60006001600160e01b03198216637965db0b60e01b148061076657506301ffc9a760e01b6001600160e01b0319831614610766565b828054613d7890615b66565b90600052602060002090601f016020900481019282613d9a5760008555613de0565b82601f10613db357805160ff1916838001178555613de0565b82800160010185558215613de0579182015b82811115613de0578251825591602001919060010190613dc5565b50613dec929150613e64565b5090565b828054613dfc90615b66565b90600052602060002090601f016020900481019282613e1e5760008555613de0565b82601f10613e375782800160ff19823516178555613de0565b82800160010185558215613de0579182015b82811115613de0578235825591602001919060010190613e49565b5b80821115613dec5760008155600101613e65565b80356001600160a01b038116811461076957600080fd5b60008083601f840112613ea1578182fd5b50813567ffffffffffffffff811115613eb8578182fd5b6020830191508360208083028501011115613ed257600080fd5b9250929050565b600082601f830112613ee9578081fd5b81356020613efe613ef983615a5d565b615a33565b8281528181019085830183850287018401881015613f1a578586fd5b855b85811015613f3857813584529284019290840190600101613f1c565b5090979650505050505050565b600082601f830112613f55578081fd5b81516020613f65613ef983615a5d565b8281528181019085830183850287018401881015613f81578586fd5b855b85811015613f3857815184529284019290840190600101613f83565b60008083601f840112613fb0578182fd5b50813567ffffffffffffffff811115613fc7578182fd5b602083019150836020828501011115613ed257600080fd5b600082601f830112613fef578081fd5b813567ffffffffffffffff81111561400957614009615bd2565b61401c601f8201601f1916602001615a33565b818152846020838601011115614030578283fd5b816020850160208301379081016020019190915292915050565b60006020828403121561405b578081fd5b611e3b82613e79565b60008060408385031215614076578081fd5b61407f83613e79565b9150610f2c60208401613e79565b600080600080600060a086880312156140a4578081fd5b6140ad86613e79565b94506140bb60208701613e79565b9350604086013567ffffffffffffffff808211156140d7578283fd5b6140e389838a01613ed9565b945060608801359150808211156140f8578283fd5b61410489838a01613ed9565b93506080880135915080821115614119578283fd5b5061412688828901613fdf565b9150509295509295909350565b60008060008060808587031215614148578182fd5b61415185613e79565b935061415f60208601613e79565b925060408501359150606085013567ffffffffffffffff811115614181578182fd5b61418d87828801613fdf565b91505092959194509250565b600080600080600060a086880312156141b0578283fd5b6141b986613e79565b94506141c760208701613e79565b93506040860135925060608601359150608086013567ffffffffffffffff8111156141f0578182fd5b61412688828901613fdf565b600080600060608486031215614210578081fd5b61421984613e79565b9250602084013567ffffffffffffffff80821115614235578283fd5b61424187838801613ed9565b93506040860135915080821115614256578283fd5b5061426386828701613ed9565b9150509250925092565b60008060008060808587031215614282578182fd5b61428b85613e79565b9350602085013567ffffffffffffffff808211156142a7578384fd5b6142b388838901613ed9565b945060408701359150808211156142c8578384fd5b6142d488838901613ed9565b935060608701359150808211156142e9578283fd5b5061418d87828801613fdf565b60008060408385031215614308578182fd5b61431183613e79565b9150602083013561432181615c93565b809150509250929050565b6000806040838503121561433e578182fd5b61434783613e79565b946020939093013593505050565b600080600060608486031215614369578081fd5b61437284613e79565b95602085013595506040909401359392505050565b6000806000806080858703121561439c578182fd5b6143a585613e79565b93506020850135925060408501359150606085013567ffffffffffffffff811115614181578182fd5b6000806000806000606086880312156143e5578283fd5b853567ffffffffffffffff808211156143fc578485fd5b61440889838a01613e90565b90975095506020880135915080821115614420578485fd5b61442c89838a01613ed9565b94506040880135915080821115614441578283fd5b5061444e88828901613e90565b969995985093965092949392505050565b60008060008060008060808789031215614477578384fd5b863567ffffffffffffffff8082111561448e578586fd5b61449a8a838b01613e90565b909850965060208901359150808211156144b2578586fd5b6144be8a838b01613ed9565b955060408901359150808211156144d3578283fd5b6144df8a838b01613ed9565b945060608901359150808211156144f4578283fd5b5061450189828a01613e90565b979a9699509497509295939492505050565b60008060408385031215614525578182fd5b823567ffffffffffffffff8082111561453c578384fd5b818501915085601f83011261454f578384fd5b8135602061455f613ef983615a5d565b82815281810190858301838502870184018b101561457b578889fd5b8896505b848710156145a45761459081613e79565b83526001969096019591830191830161457f565b50965050860135925050808211156145ba578283fd5b506145c785828601613ed9565b9150509250929050565b600080600080600080600080600060a08a8c0312156145ee578687fd5b893567ffffffffffffffff80821115614605578889fd5b6146118d838e01613e90565b909b50995060208c0135915080821115614629578889fd5b6146358d838e01613e90565b909950975060408c013591508082111561464d578485fd5b6146598d838e01613e90565b909750955085915061466d60608d01613e79565b945060808c0135915080821115614682578384fd5b5061468f8c828d01613f9f565b915080935050809150509295985092959850929598565b6000806000606084860312156146ba578081fd5b835167ffffffffffffffff808211156146d1578283fd5b6146dd87838801613f45565b945060208601519150808211156146f2578283fd5b506146ff86828701613f45565b925050604084015190509250925092565b60008060408385031215614722578182fd5b825167ffffffffffffffff811115614738578283fd5b61474485828601613f45565b925050602083015190509250929050565b600060208284031215614766578081fd5b8135611e3b81615c93565b600060208284031215614782578081fd5b8151611e3b81615c93565b60006020828403121561479e578081fd5b5035919050565b6000602082840312156147b6578081fd5b5051919050565b600080604083850312156147cf578182fd5b82359150610f2c60208401613e79565b600080604083850312156147f1578182fd5b50508035926020909101359150565b600060208284031215614811578081fd5b8135611e3b81615ca4565b60006020828403121561482d578081fd5b8151611e3b81615ca4565b6000806020838503121561484a578182fd5b823567ffffffffffffffff811115614860578283fd5b61486c85828601613f9f565b90969095509350505050565b600060208284031215614889578081fd5b81516fffffffffffffffffffffffffffffffff81168114611e3b578182fd5b60008284526020808501945082825b858110156148e3576001600160a01b036148d083613e79565b16875295820195908201906001016148b7565b509495945050505050565b818352602080840193600091908185020181018584845b8781101561497c5782840389528135601e19883603018112614925578687fd5b8701803567ffffffffffffffff81111561493d578788fd5b80360389131561494b578788fd5b8086528087830188880137858101870188905299860199601f01601f19169094018501935090840190600101614905565b5091979650505050505050565b6000815180845260208085019450808401835b838110156148e35781518752958201959082019060010161499c565b600081518084526149d0816020860160208601615b23565b601f01601f19169290920160200192915050565b60007f416363657373436f6e74726f6c3a206163636f756e742000000000000000000082528351614a1c816017850160208801615b23565b7f206973206d697373696e6720726f6c65200000000000000000000000000000006017918401918201528351614a59816028840160208801615b23565b01602801949350505050565b6001600160a01b0391909116815260200190565b60006001600160a01b03808816835280871660208401525060a06040830152614aa560a0830186614989565b8281036060840152614ab78186614989565b90508281036080840152614acb81856149b8565b98975050505050505050565b60006001600160a01b03808816835280871660208401525084604083015283606083015260a06080830152614b0f60a08301846149b8565b979650505050505050565b6001600160a01b0394851681529290931660208301526040820152606081019190915260a06080820181905260009082015260c00190565b60006001600160a01b038716825260a06020830152614b7460a08301876149b8565b9050841515604083015283606083015260038310614ba257634e487b7160e01b600052602160045260246000fd5b8260808301529695505050505050565b6001600160a01b03929092168252602082015260400190565b600060208252611e3b6020830184614989565b600060a08252614bf160a083018b614989565b8281036020840152614c04818a8c6148ee565b90508281036040840152614c188189614989565b90508281036060840152614c2d8187896148ee565b905082810360808401528381527f07ffffffffffffffffffffffffffffffffffffffffffffffffffffffffffffff841115614c66578182fd5b6020840280866020840137016020019081529998505050505050505050565b600060408252614c986040830185614989565b8281036020840152614caa8185614989565b95945050505050565b901515815260200190565b90815260200190565b9182526001600160a01b0316602082015260400190565b6001600160e01b031991909116815260200190565b600060208252611e3b60208301846149b8565b60208082526034908201527f455243313135353a207472616e7366657220746f206e6f6e204552433131353560408201527f526563656976657220696d706c656d656e746572000000000000000000000000606082015260800190565b6020808252818101527f537472696e67733a20686578206c656e67746820696e73756666696369656e74604082015260600190565b60208082526028908201527f455243313135353a204552433131353552656365697665722072656a6563746560408201527f6420746f6b656e73000000000000000000000000000000000000000000000000606082015260800190565b60208082526014908201527f5061757361626c653a206e6f7420706175736564000000000000000000000000604082015260600190565b6020808252602b908201527f455243313135353a2062616c616e636520717565727920666f7220746865207a60408201527f65726f2061646472657373000000000000000000000000000000000000000000606082015260800190565b60208082526024908201527f455243313135353a206275726e20616d6f756e7420657863656564732062616c604082015263616e636560e01b606082015260800190565b60208082526031908201527f4163636573734e46543a2063616e6e6f742075736520726567756c6172206d6960408201527f6e7442617463682066756e6374696f6e2e000000000000000000000000000000606082015260800190565b60208082526038908201527f4163636573734e46543a206f6e6c7920612070726f746f636f6c2061646d696e60408201527f2063616e2063616c6c20746869732066756e6374696f6e2e0000000000000000606082015260800190565b6020808252602c908201527f455243313135355061757361626c653a20746f6b656e207472616e736665722060408201527f7768696c65207061757365640000000000000000000000000000000000000000606082015260800190565b60208082526029908201527f455243313135353a2063616c6c6572206973206e6f74206f776e6572206e6f7260408201527f20617070726f7665640000000000000000000000000000000000000000000000606082015260800190565b6020808252602e908201527f4163636573734e46543a2043616e6e6f742072656465656d206d6f7265204e4660408201527f5473207468616e206f776e65642e000000000000000000000000000000000000606082015260800190565b60208082526041908201527f4163636573734e46543a204f6e6c79206163636f756e74732077697468204d4960408201527f4e5445525f524f4c452063616e2063616c6c20746869732066756e6374696f6e6060820152601760f91b608082015260a00190565b60208082526010908201527f5061757361626c653a2070617573656400000000000000000000000000000000604082015260600190565b60208082526028908201527f4163636573734e46543a204d75737420637265617465206174206c656173742060408201527f6f6e65204e46542e000000000000000000000000000000000000000000000000606082015260800190565b60208082526025908201527f455243313135353a207472616e7366657220746f20746865207a65726f206164604082015264647265737360d81b606082015260800190565b60208082526032908201527f455243313135353a207472616e736665722063616c6c6572206973206e6f742060408201527f6f776e6572206e6f7220617070726f7665640000000000000000000000000000606082015260800190565b60208082526039908201527f4163636573734e46543a2063616e6e6f74207472616e7366657220616e20616360408201527f63657373204e465420746861742069732072656465656d656400000000000000606082015260800190565b60208082526023908201527f455243313135353a206275726e2066726f6d20746865207a65726f206164647260408201526265737360e81b606082015260800190565b6020808252602a908201527f455243313135353a20696e73756666696369656e742062616c616e636520666f60408201527f72207472616e7366657200000000000000000000000000000000000000000000606082015260800190565b6020808252603c908201527f4163636573734e46543a205472616e736665727320617265207265737472696360408201527f74656420746f205452414e534645525f524f4c4520686f6c6465727300000000606082015260800190565b60208082526022908201527f4163636573734e46543a205468652070726f746f636f6c206973207061757365604082015261321760f11b606082015260800190565b6020808252602e908201527f4163636573734e46543a2057696e646f7720746f2072656465656d206163636560408201527f73732068617320636c6f7365642e000000000000000000000000000000000000606082015260800190565b60208082526033908201527f4163636573734e46543a205468697320746f6b656e206973206e6f742072656460408201527f65656d61626c6520666f72206163636573732e00000000000000000000000000606082015260800190565b60208082526034908201527f4163636573734e46543a2063616e207365742072656465656d2074696d65206660408201527f6f72206f6e6c7920416363657373204e4654732e000000000000000000000000606082015260800190565b60208082526036908201527f4163636573734e46543a204d757374207370656369667920657175616c206e7560408201527f6d626572206f6620636f6e6669672076616c7565732e00000000000000000000606082015260800190565b6020808252603b908201527f455243313135355072657365744d696e7465725061757365723a206d7573742060408201527f686176652070617573657220726f6c6520746f20756e70617573650000000000606082015260800190565b60208082526033908201527f4163636573734e46543a206f6e6c79207468652063726561746f722063616e2060408201527f63616c6c20746869732066756e6374696f6e2e00000000000000000000000000606082015260800190565b60208082526039908201527f455243313135355072657365744d696e7465725061757365723a206d7573742060408201527f686176652070617573657220726f6c6520746f20706175736500000000000000606082015260800190565b60208082526029908201527f455243313135353a2073657474696e6720617070726f76616c2073746174757360408201527f20666f722073656c660000000000000000000000000000000000000000000000606082015260800190565b60208082526029908201527f455243313135353a206163636f756e747320616e6420696473206c656e67746860408201527f206d69736d617463680000000000000000000000000000000000000000000000606082015260800190565b60208082526028908201527f455243313135353a2069647320616e6420616d6f756e7473206c656e6774682060408201527f6d69736d61746368000000000000000000000000000000000000000000000000606082015260800190565b60208082526021908201527f455243313135353a206d696e7420746f20746865207a65726f206164647265736040820152607360f81b606082015260800190565b60208082526029908201527f4e46543a204270732070726f7669646564206d757374206265206c657373207460408201527f68616e20392c3030300000000000000000000000000000000000000000000000606082015260800190565b6020808252602c908201527f4163636573734e46543a2063616e6e6f742075736520726567756c6172206d6960408201527f6e742066756e6374696f6e2e0000000000000000000000000000000000000000606082015260800190565b6020808252602f908201527f416363657373436f6e74726f6c3a2063616e206f6e6c792072656e6f756e636560408201527f20726f6c657320666f722073656c660000000000000000000000000000000000606082015260800190565b60008882526001600160a01b038816602083015260a060408301526158fa60a0830187896148a8565b828103606084015261590c8187614989565b905082810360808401526159218185876148ee565b9a9950505050505050505050565b60008982526001600160a01b038916602083015260c0604083015261595860c08301888a6148a8565b828103606084015261596a8188614989565b9050828103608084015261597e8187614989565b905082810360a08401526159938185876148ee565b9b9a5050505050505050505050565b9283526001600160a01b03919091166020830152604082015260600190565b918252602082015260400190565b92835260208301919091526001600160a01b0316604082015260600190565b6000808335601e19843603018112615a04578283fd5b83018035915067ffffffffffffffff821115615a1e578283fd5b602001915036819003821315613ed257600080fd5b60405181810167ffffffffffffffff81118282101715615a5557615a55615bd2565b604052919050565b600067ffffffffffffffff821115615a7757615a77615bd2565b5060209081020190565b60006fffffffffffffffffffffffffffffffff808316818516808303821115615aac57615aac615bbc565b01949350505050565b60008219821115615ac857615ac8615bbc565b500190565b600082615ae857634e487b7160e01b81526012600452602481fd5b500490565b6000816000190483118215151615615b0757615b07615bbc565b500290565b600082821015615b1e57615b1e615bbc565b500390565b60005b83811015615b3e578181015183820152602001615b26565b838111156125215750506000910152565b600081615b5e57615b5e615bbc565b506000190190565b600281046001821680615b7a57607f821691505b60208210811415615b9b57634e487b7160e01b600052602260045260246000fd5b50919050565b6000600019821415615bb557615bb5615bbc565b5060010190565b634e487b7160e01b600052601160045260246000fd5b634e487b7160e01b600052604160045260246000fd5b60e01c90565b600060443d1015615bfe57611599565b600481823e6308c379a0615c128251615be8565b14615c1c57611599565b6040513d600319016004823e80513d67ffffffffffffffff8160248401118184111715615c4c5750505050611599565b82840192508251915080821115615c665750505050611599565b503d83016020828401011115615c7e57505050611599565b601f01601f1916810160200160405291505090565b8015158114615ca157600080fd5b50565b6001600160e01b031981168114615ca157600080fdfea164736f6c6343000800000a9f2df0fed2c77648de5860a4cc508cd0818c85b8b8a1ab4ceeef8d981c8956a6",
  "linkReferences": {},
  "deployedLinkReferences": {}
}