{
  "_format": "hh-sol-artifact-1",
  "contractName": "AccessNFT_PL",
  "sourceName": "contracts/permissionless/AccessNFT_PL.sol",
  "abi": [
    {
      "inputs": [
        {
          "internalType": "address payable",
          "name": "_controlCenter",
          "type": "address"
        },
        {
          "internalType": "address",
          "name": "_trustedForwarder",
          "type": "address"
        },
        {
          "internalType": "string",
          "name": "_uri",
          "type": "string"
        }
      ],
      "stateMutability": "nonpayable",
      "type": "constructor"
    },
    {
      "anonymous": false,
      "inputs": [
        {
          "indexed": true,
          "internalType": "address",
          "name": "redeemer",
          "type": "address"
        },
        {
          "indexed": true,
          "internalType": "uint256",
          "name": "nftTokenId",
          "type": "uint256"
        },
        {
          "indexed": true,
          "internalType": "uint256",
          "name": "accessNftId",
          "type": "uint256"
        },
        {
          "indexed": false,
          "internalType": "uint256",
          "name": "amount",
          "type": "uint256"
        }
      ],
      "name": "AccessNFTRedeemed",
      "type": "event"
    },
    {
      "anonymous": false,
      "inputs": [
        {
          "indexed": true,
          "internalType": "address",
          "name": "creator",
          "type": "address"
        },
        {
          "indexed": false,
          "internalType": "uint256[]",
          "name": "nftIds",
          "type": "uint256[]"
        },
        {
          "indexed": false,
          "internalType": "string[]",
          "name": "nftURIs",
          "type": "string[]"
        },
        {
          "indexed": false,
          "internalType": "uint256[]",
          "name": "acessNftIds",
          "type": "uint256[]"
        },
        {
          "indexed": false,
          "internalType": "string[]",
          "name": "accessNftURIs",
          "type": "string[]"
        },
        {
          "indexed": false,
          "internalType": "uint256[]",
          "name": "nftSupplies",
          "type": "uint256[]"
        }
      ],
      "name": "AccessNFTsCreated",
      "type": "event"
    },
    {
      "anonymous": false,
      "inputs": [
        {
          "indexed": true,
          "internalType": "address",
          "name": "account",
          "type": "address"
        },
        {
          "indexed": true,
          "internalType": "address",
          "name": "operator",
          "type": "address"
        },
        {
          "indexed": false,
          "internalType": "bool",
          "name": "approved",
          "type": "bool"
        }
      ],
      "name": "ApprovalForAll",
      "type": "event"
    },
    {
      "anonymous": false,
      "inputs": [
        {
          "indexed": false,
          "internalType": "address",
          "name": "account",
          "type": "address"
        }
      ],
      "name": "Paused",
      "type": "event"
    },
    {
      "anonymous": false,
      "inputs": [
        {
          "indexed": true,
          "internalType": "bytes32",
          "name": "role",
          "type": "bytes32"
        },
        {
          "indexed": true,
          "internalType": "bytes32",
          "name": "previousAdminRole",
          "type": "bytes32"
        },
        {
          "indexed": true,
          "internalType": "bytes32",
          "name": "newAdminRole",
          "type": "bytes32"
        }
      ],
      "name": "RoleAdminChanged",
      "type": "event"
    },
    {
      "anonymous": false,
      "inputs": [
        {
          "indexed": true,
          "internalType": "bytes32",
          "name": "role",
          "type": "bytes32"
        },
        {
          "indexed": true,
          "internalType": "address",
          "name": "account",
          "type": "address"
        },
        {
          "indexed": true,
          "internalType": "address",
          "name": "sender",
          "type": "address"
        }
      ],
      "name": "RoleGranted",
      "type": "event"
    },
    {
      "anonymous": false,
      "inputs": [
        {
          "indexed": true,
          "internalType": "bytes32",
          "name": "role",
          "type": "bytes32"
        },
        {
          "indexed": true,
          "internalType": "address",
          "name": "account",
          "type": "address"
        },
        {
          "indexed": true,
          "internalType": "address",
          "name": "sender",
          "type": "address"
        }
      ],
      "name": "RoleRevoked",
      "type": "event"
    },
    {
      "anonymous": false,
      "inputs": [
        {
          "indexed": false,
          "internalType": "uint256",
          "name": "royaltyBps",
          "type": "uint256"
        }
      ],
      "name": "RoyaltyUpdated",
      "type": "event"
    },
    {
      "anonymous": false,
      "inputs": [
        {
          "indexed": true,
          "internalType": "address",
          "name": "operator",
          "type": "address"
        },
        {
          "indexed": true,
          "internalType": "address",
          "name": "from",
          "type": "address"
        },
        {
          "indexed": true,
          "internalType": "address",
          "name": "to",
          "type": "address"
        },
        {
          "indexed": false,
          "internalType": "uint256[]",
          "name": "ids",
          "type": "uint256[]"
        },
        {
          "indexed": false,
          "internalType": "uint256[]",
          "name": "values",
          "type": "uint256[]"
        }
      ],
      "name": "TransferBatch",
      "type": "event"
    },
    {
      "anonymous": false,
      "inputs": [
        {
          "indexed": true,
          "internalType": "address",
          "name": "operator",
          "type": "address"
        },
        {
          "indexed": true,
          "internalType": "address",
          "name": "from",
          "type": "address"
        },
        {
          "indexed": true,
          "internalType": "address",
          "name": "to",
          "type": "address"
        },
        {
          "indexed": false,
          "internalType": "uint256",
          "name": "id",
          "type": "uint256"
        },
        {
          "indexed": false,
          "internalType": "uint256",
          "name": "value",
          "type": "uint256"
        }
      ],
      "name": "TransferSingle",
      "type": "event"
    },
    {
      "anonymous": false,
      "inputs": [
        {
          "indexed": false,
          "internalType": "string",
          "name": "value",
          "type": "string"
        },
        {
          "indexed": true,
          "internalType": "uint256",
          "name": "id",
          "type": "uint256"
        }
      ],
      "name": "URI",
      "type": "event"
    },
    {
      "anonymous": false,
      "inputs": [
        {
          "indexed": false,
          "internalType": "address",
          "name": "account",
          "type": "address"
        }
      ],
      "name": "Unpaused",
      "type": "event"
    },
    {
      "inputs": [],
      "name": "DEFAULT_ADMIN_ROLE",
      "outputs": [
        {
          "internalType": "bytes32",
          "name": "",
          "type": "bytes32"
        }
      ],
      "stateMutability": "view",
      "type": "function"
    },
    {
      "inputs": [],
      "name": "MINTER_ROLE",
      "outputs": [
        {
          "internalType": "bytes32",
          "name": "",
          "type": "bytes32"
        }
      ],
      "stateMutability": "view",
      "type": "function"
    },
    {
      "inputs": [],
      "name": "PAUSER_ROLE",
      "outputs": [
        {
          "internalType": "bytes32",
          "name": "",
          "type": "bytes32"
        }
      ],
      "stateMutability": "view",
      "type": "function"
    },
    {
      "inputs": [],
      "name": "TRANSFER_ROLE",
      "outputs": [
        {
          "internalType": "bytes32",
          "name": "",
          "type": "bytes32"
        }
      ],
      "stateMutability": "view",
      "type": "function"
    },
    {
      "inputs": [],
      "name": "_contractURI",
      "outputs": [
        {
          "internalType": "string",
          "name": "",
          "type": "string"
        }
      ],
      "stateMutability": "view",
      "type": "function"
    },
    {
      "inputs": [
        {
          "internalType": "address",
          "name": "account",
          "type": "address"
        },
        {
          "internalType": "uint256",
          "name": "id",
          "type": "uint256"
        }
      ],
      "name": "balanceOf",
      "outputs": [
        {
          "internalType": "uint256",
          "name": "",
          "type": "uint256"
        }
      ],
      "stateMutability": "view",
      "type": "function"
    },
    {
      "inputs": [
        {
          "internalType": "address[]",
          "name": "accounts",
          "type": "address[]"
        },
        {
          "internalType": "uint256[]",
          "name": "ids",
          "type": "uint256[]"
        }
      ],
      "name": "balanceOfBatch",
      "outputs": [
        {
          "internalType": "uint256[]",
          "name": "",
          "type": "uint256[]"
        }
      ],
      "stateMutability": "view",
      "type": "function"
    },
    {
      "inputs": [
        {
          "internalType": "address",
          "name": "account",
          "type": "address"
        },
        {
          "internalType": "uint256",
          "name": "id",
          "type": "uint256"
        },
        {
          "internalType": "uint256",
          "name": "value",
          "type": "uint256"
        }
      ],
      "name": "burn",
      "outputs": [],
      "stateMutability": "nonpayable",
      "type": "function"
    },
    {
      "inputs": [
        {
          "internalType": "address",
          "name": "account",
          "type": "address"
        },
        {
          "internalType": "uint256[]",
          "name": "ids",
          "type": "uint256[]"
        },
        {
          "internalType": "uint256[]",
          "name": "values",
          "type": "uint256[]"
        }
      ],
      "name": "burnBatch",
      "outputs": [],
      "stateMutability": "nonpayable",
      "type": "function"
    },
    {
      "inputs": [],
      "name": "contractURI",
      "outputs": [
        {
          "internalType": "string",
          "name": "",
          "type": "string"
        }
      ],
      "stateMutability": "view",
      "type": "function"
    },
    {
      "inputs": [
        {
          "internalType": "string[]",
          "name": "_nftURIs",
          "type": "string[]"
        },
        {
          "internalType": "string[]",
          "name": "_accessNftURIs",
          "type": "string[]"
        },
        {
          "internalType": "uint256[]",
          "name": "_nftSupplies",
          "type": "uint256[]"
        }
      ],
      "name": "createAccessNfts",
      "outputs": [
        {
          "internalType": "uint256[]",
          "name": "nftIds",
          "type": "uint256[]"
        }
      ],
      "stateMutability": "nonpayable",
      "type": "function"
    },
    {
      "inputs": [
        {
          "internalType": "address",
          "name": "_pack",
          "type": "address"
        },
        {
          "internalType": "string[]",
          "name": "_nftURIs",
          "type": "string[]"
        },
        {
          "internalType": "string[]",
          "name": "_accessNftURIs",
          "type": "string[]"
        },
        {
          "internalType": "uint256[]",
          "name": "_nftSupplies",
          "type": "uint256[]"
        },
        {
          "internalType": "string",
          "name": "_packURI",
          "type": "string"
        },
        {
          "internalType": "uint256",
          "name": "_secondsUntilOpenStart",
          "type": "uint256"
        },
        {
          "internalType": "uint256",
          "name": "_secondsUntilOpenEnd",
          "type": "uint256"
        },
        {
          "internalType": "uint256",
          "name": "_nftsPerOpen",
          "type": "uint256"
        }
      ],
      "name": "createAccessPack",
      "outputs": [],
      "stateMutability": "nonpayable",
      "type": "function"
    },
    {
      "inputs": [
        {
          "internalType": "bytes32",
          "name": "role",
          "type": "bytes32"
        }
      ],
      "name": "getRoleAdmin",
      "outputs": [
        {
          "internalType": "bytes32",
          "name": "",
          "type": "bytes32"
        }
      ],
      "stateMutability": "view",
      "type": "function"
    },
    {
      "inputs": [
        {
          "internalType": "bytes32",
          "name": "role",
          "type": "bytes32"
        },
        {
          "internalType": "uint256",
          "name": "index",
          "type": "uint256"
        }
      ],
      "name": "getRoleMember",
      "outputs": [
        {
          "internalType": "address",
          "name": "",
          "type": "address"
        }
      ],
      "stateMutability": "view",
      "type": "function"
    },
    {
      "inputs": [
        {
          "internalType": "bytes32",
          "name": "role",
          "type": "bytes32"
        }
      ],
      "name": "getRoleMemberCount",
      "outputs": [
        {
          "internalType": "uint256",
          "name": "",
          "type": "uint256"
        }
      ],
      "stateMutability": "view",
      "type": "function"
    },
    {
      "inputs": [
        {
          "internalType": "bytes32",
          "name": "role",
          "type": "bytes32"
        },
        {
          "internalType": "address",
          "name": "account",
          "type": "address"
        }
      ],
      "name": "grantRole",
      "outputs": [],
      "stateMutability": "nonpayable",
      "type": "function"
    },
    {
      "inputs": [
        {
          "internalType": "bytes32",
          "name": "role",
          "type": "bytes32"
        },
        {
          "internalType": "address",
          "name": "account",
          "type": "address"
        }
      ],
      "name": "hasRole",
      "outputs": [
        {
          "internalType": "bool",
          "name": "",
          "type": "bool"
        }
      ],
      "stateMutability": "view",
      "type": "function"
    },
    {
      "inputs": [
        {
          "internalType": "address",
          "name": "account",
          "type": "address"
        },
        {
          "internalType": "address",
          "name": "operator",
          "type": "address"
        }
      ],
      "name": "isApprovedForAll",
      "outputs": [
        {
          "internalType": "bool",
          "name": "",
          "type": "bool"
        }
      ],
      "stateMutability": "view",
      "type": "function"
    },
    {
      "inputs": [
        {
          "internalType": "uint256",
          "name": "_nftId",
          "type": "uint256"
        }
      ],
      "name": "isRedeemed",
      "outputs": [
        {
          "internalType": "bool",
          "name": "",
          "type": "bool"
        }
      ],
      "stateMutability": "view",
      "type": "function"
    },
    {
      "inputs": [],
      "name": "isRestrictedTransfer",
      "outputs": [
        {
          "internalType": "bool",
          "name": "",
          "type": "bool"
        }
      ],
      "stateMutability": "view",
      "type": "function"
    },
    {
      "inputs": [
        {
          "internalType": "address",
          "name": "forwarder",
          "type": "address"
        }
      ],
      "name": "isTrustedForwarder",
      "outputs": [
        {
          "internalType": "bool",
          "name": "",
          "type": "bool"
        }
      ],
      "stateMutability": "view",
      "type": "function"
    },
    {
      "inputs": [
        {
          "internalType": "address",
          "name": "to",
          "type": "address"
        },
        {
          "internalType": "uint256",
          "name": "id",
          "type": "uint256"
        },
        {
          "internalType": "uint256",
          "name": "amount",
          "type": "uint256"
        },
        {
          "internalType": "bytes",
          "name": "data",
          "type": "bytes"
        }
      ],
      "name": "mint",
      "outputs": [],
      "stateMutability": "nonpayable",
      "type": "function"
    },
    {
      "inputs": [
        {
          "internalType": "address",
          "name": "to",
          "type": "address"
        },
        {
          "internalType": "uint256[]",
          "name": "ids",
          "type": "uint256[]"
        },
        {
          "internalType": "uint256[]",
          "name": "amounts",
          "type": "uint256[]"
        },
        {
          "internalType": "bytes",
          "name": "data",
          "type": "bytes"
        }
      ],
      "name": "mintBatch",
      "outputs": [],
      "stateMutability": "nonpayable",
      "type": "function"
    },
    {
      "inputs": [],
      "name": "nextTokenId",
      "outputs": [
        {
          "internalType": "uint256",
          "name": "",
          "type": "uint256"
        }
      ],
      "stateMutability": "view",
      "type": "function"
    },
    {
      "inputs": [
        {
          "internalType": "uint256",
          "name": "",
          "type": "uint256"
        }
      ],
      "name": "nftInfo",
      "outputs": [
        {
          "internalType": "address",
          "name": "creator",
          "type": "address"
        },
        {
          "internalType": "string",
          "name": "uri",
          "type": "string"
        },
        {
          "internalType": "uint256",
          "name": "supply",
          "type": "uint256"
        },
        {
          "internalType": "bool",
          "name": "isAccess",
          "type": "bool"
        },
        {
          "internalType": "uint256",
          "name": "accessNftId",
          "type": "uint256"
        },
        {
          "internalType": "enum AccessNFT.UnderlyingType",
          "name": "underlyingType",
          "type": "uint8"
        }
      ],
      "stateMutability": "view",
      "type": "function"
    },
    {
      "inputs": [
        {
          "internalType": "address",
          "name": "",
          "type": "address"
        },
        {
          "internalType": "address",
          "name": "",
          "type": "address"
        },
        {
          "internalType": "uint256[]",
          "name": "",
          "type": "uint256[]"
        },
        {
          "internalType": "uint256[]",
          "name": "",
          "type": "uint256[]"
        },
        {
          "internalType": "bytes",
          "name": "",
          "type": "bytes"
        }
      ],
      "name": "onERC1155BatchReceived",
      "outputs": [
        {
          "internalType": "bytes4",
          "name": "",
          "type": "bytes4"
        }
      ],
      "stateMutability": "nonpayable",
      "type": "function"
    },
    {
      "inputs": [
        {
          "internalType": "address",
          "name": "",
          "type": "address"
        },
        {
          "internalType": "address",
          "name": "",
          "type": "address"
        },
        {
          "internalType": "uint256",
          "name": "",
          "type": "uint256"
        },
        {
          "internalType": "uint256",
          "name": "",
          "type": "uint256"
        },
        {
          "internalType": "bytes",
          "name": "",
          "type": "bytes"
        }
      ],
      "name": "onERC1155Received",
      "outputs": [
        {
          "internalType": "bytes4",
          "name": "",
          "type": "bytes4"
        }
      ],
      "stateMutability": "nonpayable",
      "type": "function"
    },
    {
      "inputs": [],
      "name": "pause",
      "outputs": [],
      "stateMutability": "nonpayable",
      "type": "function"
    },
    {
      "inputs": [],
      "name": "paused",
      "outputs": [
        {
          "internalType": "bool",
          "name": "",
          "type": "bool"
        }
      ],
      "stateMutability": "view",
      "type": "function"
    },
    {
      "inputs": [
        {
          "internalType": "uint256",
          "name": "_tokenId",
          "type": "uint256"
        },
        {
          "internalType": "uint256",
          "name": "_amount",
          "type": "uint256"
        }
      ],
      "name": "redeemAccess",
      "outputs": [],
      "stateMutability": "nonpayable",
      "type": "function"
    },
    {
      "inputs": [
        {
          "internalType": "bytes32",
          "name": "role",
          "type": "bytes32"
        },
        {
          "internalType": "address",
          "name": "account",
          "type": "address"
        }
      ],
      "name": "renounceRole",
      "outputs": [],
      "stateMutability": "nonpayable",
      "type": "function"
    },
    {
      "inputs": [
        {
          "internalType": "bytes32",
          "name": "role",
          "type": "bytes32"
        },
        {
          "internalType": "address",
          "name": "account",
          "type": "address"
        }
      ],
      "name": "revokeRole",
      "outputs": [],
      "stateMutability": "nonpayable",
      "type": "function"
    },
    {
      "inputs": [],
      "name": "royaltyBps",
      "outputs": [
        {
          "internalType": "uint256",
          "name": "",
          "type": "uint256"
        }
      ],
      "stateMutability": "view",
      "type": "function"
    },
    {
      "inputs": [
        {
          "internalType": "uint256",
          "name": "tokenId",
          "type": "uint256"
        },
        {
          "internalType": "uint256",
          "name": "salePrice",
          "type": "uint256"
        }
      ],
      "name": "royaltyInfo",
      "outputs": [
        {
          "internalType": "address",
          "name": "receiver",
          "type": "address"
        },
        {
          "internalType": "uint256",
          "name": "royaltyAmount",
          "type": "uint256"
        }
      ],
      "stateMutability": "view",
      "type": "function"
    },
    {
      "inputs": [
        {
          "internalType": "address",
          "name": "from",
          "type": "address"
        },
        {
          "internalType": "address",
          "name": "to",
          "type": "address"
        },
        {
          "internalType": "uint256[]",
          "name": "ids",
          "type": "uint256[]"
        },
        {
          "internalType": "uint256[]",
          "name": "amounts",
          "type": "uint256[]"
        },
        {
          "internalType": "bytes",
          "name": "data",
          "type": "bytes"
        }
      ],
      "name": "safeBatchTransferFrom",
      "outputs": [],
      "stateMutability": "nonpayable",
      "type": "function"
    },
    {
      "inputs": [
        {
          "internalType": "address",
          "name": "from",
          "type": "address"
        },
        {
          "internalType": "address",
          "name": "to",
          "type": "address"
        },
        {
          "internalType": "uint256",
          "name": "id",
          "type": "uint256"
        },
        {
          "internalType": "uint256",
          "name": "amount",
          "type": "uint256"
        },
        {
          "internalType": "bytes",
          "name": "data",
          "type": "bytes"
        }
      ],
      "name": "safeTransferFrom",
      "outputs": [],
      "stateMutability": "nonpayable",
      "type": "function"
    },
    {
      "inputs": [
        {
          "internalType": "address",
          "name": "operator",
          "type": "address"
        },
        {
          "internalType": "bool",
          "name": "approved",
          "type": "bool"
        }
      ],
      "name": "setApprovalForAll",
      "outputs": [],
      "stateMutability": "nonpayable",
      "type": "function"
    },
    {
      "inputs": [
        {
          "internalType": "string",
          "name": "_URI",
          "type": "string"
        }
      ],
      "name": "setContractURI",
      "outputs": [],
      "stateMutability": "nonpayable",
      "type": "function"
    },
    {
      "inputs": [
        {
          "internalType": "bool",
          "name": "_restrictedTransfer",
          "type": "bool"
        }
      ],
      "name": "setRestrictedTransfer",
      "outputs": [],
      "stateMutability": "nonpayable",
      "type": "function"
    },
    {
      "inputs": [
        {
          "internalType": "uint256",
          "name": "_royaltyBps",
          "type": "uint256"
        }
      ],
      "name": "setRoyaltyBps",
      "outputs": [],
      "stateMutability": "nonpayable",
      "type": "function"
    },
    {
      "inputs": [
        {
          "internalType": "bytes4",
          "name": "interfaceId",
          "type": "bytes4"
        }
      ],
      "name": "supportsInterface",
      "outputs": [
        {
          "internalType": "bool",
          "name": "",
          "type": "bool"
        }
      ],
      "stateMutability": "pure",
      "type": "function"
    },
    {
      "inputs": [
        {
          "internalType": "uint256",
          "name": "_nftId",
          "type": "uint256"
        }
      ],
      "name": "tokenURI",
      "outputs": [
        {
          "internalType": "string",
          "name": "",
          "type": "string"
        }
      ],
      "stateMutability": "view",
      "type": "function"
    },
    {
      "inputs": [],
      "name": "unpause",
      "outputs": [],
      "stateMutability": "nonpayable",
      "type": "function"
    },
    {
      "inputs": [
        {
          "internalType": "uint256",
          "name": "_nftId",
          "type": "uint256"
        }
      ],
      "name": "uri",
      "outputs": [
        {
          "internalType": "string",
          "name": "",
          "type": "string"
        }
      ],
      "stateMutability": "view",
      "type": "function"
    }
  ],
  "bytecode": "0x60806040523480156200001157600080fd5b50604051620053b7380380620053b7833981016040819052620000349162000410565b82828281818062000045816200014e565b506005805460ff191690556200006660006200006062000167565b62000184565b620000957f9f2df0fed2c77648de5860a4cc508cd0818c85b8b8a1ab4ceeef8d981c8956a66200006062000167565b620000c47f65d7a28e3265b37a6474929f336521b332c1681b933f6cb9f3376673440d862a6200006062000167565b5060058054610100600160a81b0319166101006001600160a01b0393841602179055600680546001600160a01b0319169185169190911790558051620001129060099060208401906200036a565b50620001427f8502233096d909befbda0999bb8ea2f3a6be3c138b9fbf003752a4c8bce86f6c6200006062000167565b50505050505062000579565b8051620001639060049060208401906200036a565b5050565b60006200017e620001c760201b62001fbb1760201c565b90505b90565b6200019b82826200020760201b62001fe91760201c565b6000828152600160209081526040909120620001c291839062001ff762000213821b17901c565b505050565b6000620001d43362000233565b15620001ea575060131936013560601c62000181565b620001ff6200024c60201b6200200c1760201c565b905062000181565b62000163828262000250565b60006200022a836001600160a01b038416620002da565b90505b92915050565b60055461010090046001600160a01b0390811691161490565b3390565b6200025c828262000329565b62000163576000828152602081815260408083206001600160a01b03851684529091529020805460ff191660011790556200029662000167565b6001600160a01b0316816001600160a01b0316837f2f8788117e7eff1d82e926ec794901d17c78024a50270940304540a733656f0d60405160405180910390a45050565b6000620002e8838362000352565b62000320575081546001818101845560008481526020808220909301849055845484825282860190935260409020919091556200022d565b5060006200022d565b6000918252602082815260408084206001600160a01b0393909316845291905290205460ff1690565b60009081526001919091016020526040902054151590565b82805462000378906200050d565b90600052602060002090601f0160209004810192826200039c5760008555620003e7565b82601f10620003b757805160ff1916838001178555620003e7565b82800160010185558215620003e7579182015b82811115620003e7578251825591602001919060010190620003ca565b50620003f5929150620003f9565b5090565b5b80821115620003f55760008155600101620003fa565b60008060006060848603121562000425578283fd5b8351620004328162000560565b80935050602080850151620004478162000560565b60408601519093506001600160401b038082111562000464578384fd5b818701915087601f83011262000478578384fd5b8151818111156200048d576200048d6200054a565b604051601f8201601f1916810185018381118282101715620004b357620004b36200054a565b60405281815283820185018a1015620004ca578586fd5b8592505b81831015620004ed5783830185015181840186015291840191620004ce565b81831115620004fe57858583830101525b80955050505050509250925092565b6002810460018216806200052257607f821691505b602082108114156200054457634e487b7160e01b600052602260045260246000fd5b50919050565b634e487b7160e01b600052604160045260246000fd5b6001600160a01b03811681146200057657600080fd5b50565b614e2e80620005896000396000f3fe608060405234801561001057600080fd5b50600436106102f35760003560e01c806383661b2911610191578063c63adb2b116100e3578063e63ab1e911610097578063f23a6e6111610071578063f23a6e61146105e5578063f242432a146105f8578063f5298aca1461060b576102f3565b8063e63ab1e9146105c2578063e8a3d485146105ca578063e985e9c5146105d2576102f3565b8063ca15c873116100c8578063ca15c87314610594578063d5391393146105a7578063d547741f146105af576102f3565b8063c63adb2b1461058c578063c87b56dd14610341576102f3565b806391d1485411610145578063a22cb4651161011f578063a22cb46514610551578063bc197c8114610564578063c0e7274014610584576102f3565b806391d1485414610523578063938e3d7b14610536578063a217fddf14610549576102f3565b80638aa01653116101765780638aa01653146104dd5780638ba448c2146104f05780639010d07c14610503576102f3565b806383661b29146104cd5780638456cb59146104d5576102f3565b80632f2ff15d1161024a5780634e1273f4116101fe5780636b20c454116101d85780636b20c4541461049f578063731133e9146104b257806375794a3c146104c5576102f3565b80634e1273f414610471578063572b6c05146104845780635c975abb14610497576102f3565b806336568abe1161022f57806336568abe146104365780633c16b12e146104495780633f4ba83a14610469576102f3565b80632f2ff15d1461041057806332d33cd014610423576102f3565b80631f8bc790116102ac5780632a55205a116102865780632a55205a146103c95780632e14bee8146103ea5780632eb2c2d6146103fd576102f3565b80631f8bc79014610389578063206b60f9146103ae578063248a9ca3146103b6576102f3565b80630e89341c116102dd5780630e89341c146103415780631f72d831146103615780631f7fdffa14610376576102f3565b8062fdd58e146102f857806301ffc9a714610321575b600080fd5b61030b610306366004613956565b61061e565b60405161031891906140b1565b60405180910390f35b61033461032f366004613c0d565b61067a565b60405161031891906140a6565b61035461034f366004613b98565b6106ce565b6040516103189190614117565b61037461036f366004613b98565b610773565b005b610374610384366004613892565b610a0f565b61039c610397366004613b98565b610a6e565b60405161031896959493929190613f3e565b61030b610b3b565b61030b6103c4366004613b98565b610b5f565b6103dc6103d7366004613bec565b610b74565b604051610318929190613fa5565b6103746103f8366004613bec565b610cb8565b61037461040b366004613607565b610e8b565b61037461041e366004613bc8565b610ee9565b610334610431366004613b98565b610f10565b610374610444366004613bc8565b610f28565b61045c610457366004613aca565b610f4a565b6040516103189190613fbe565b6103746115bb565b61045c61047f366004613a0a565b61160d565b610334610492366004613597565b61172d565b610334611746565b6103746104ad36600461381f565b611750565b6103746104c03660046139b5565b6117a5565b61030b6117f9565b6103346117ff565b61037461180f565b6103746104eb366004613718565b61185f565b6103746104fe366004613b60565b611998565b610516610511366004613bec565b611ae7565b6040516103189190613e51565b610334610531366004613bc8565b611b06565b610374610544366004613c45565b611b3b565b61030b611c5d565b61037461055f366004613929565b611c62565b610577610572366004613607565b611d30565b60405161031891906140d1565b610354611d41565b61030b611dcf565b61030b6105a2366004613b98565b611dd5565b61030b611dec565b6103746105bd366004613bc8565b611e10565b61030b611e1a565b610354611e3e565b6103346105e03660046135cf565b611ed0565b6105776105f33660046136b1565b611efe565b6103746106063660046136b1565b611f0f565b610374610619366004613981565b611f66565b60006001600160a01b03831661064f5760405162461bcd60e51b815260040161064690614250565b60405180910390fd5b5060008181526002602090815260408083206001600160a01b03861684529091529020545b92915050565b60006001600160e01b03198216630271189760e51b14806106ab57506001600160e01b03198216636cdb3d1360e11b145b806106c657506001600160e01b0319821663152a902d60e11b145b90505b919050565b6000818152600a602052604090206001018054606091906106ee90614cb8565b80601f016020809104026020016040519081016040528092919081815260200182805461071a90614cb8565b80156107675780601f1061073c57610100808354040283529160200191610767565b820191906000526020600020905b81548152906001019060200180831161074a57829003601f168201915b50505050509050919050565b60065460408051634a32c6bf60e11b815290516001600160a01b03909216916391d148549183916394658d7e91600480820192602092909190829003018186803b1580156107c057600080fd5b505afa1580156107d4573d6000803e3d6000fd5b505050506040513d601f19601f820116820180604052508101906107f89190613bb0565b610800612010565b6040518363ffffffff1660e01b815260040161081d9291906140ba565b60206040518083038186803b15801561083557600080fd5b505afa158015610849573d6000803e3d6000fd5b505050506040513d601f19601f8201168201806040525081019061086d9190613b7c565b6108895760405162461bcd60e51b8152600401610646906142f1565b600660009054906101000a90046001600160a01b03166001600160a01b0316635cd423156040518163ffffffff1660e01b815260040160206040518083038186803b1580156108d757600080fd5b505afa1580156108eb573d6000803e3d6000fd5b505050506040513d601f19601f8201168201806040525081019061090f9190613c85565b600660009054906101000a90046001600160a01b03166001600160a01b031663fd967f476040518163ffffffff1660e01b815260040160206040518083038186803b15801561095d57600080fd5b505afa158015610971573d6000803e3d6000fd5b505050506040513d601f19601f820116820180604052508101906109959190613c85565b61099f9190614bd3565b6fffffffffffffffffffffffffffffffff1681106109cf5760405162461bcd60e51b815260040161064690614a78565b60088190556040517f244ea8d7627f5a08f4299862bd5a45752842c183aee5b0fb0d1e4887bfa605b390610a049083906140b1565b60405180910390a150565b610a407f9f2df0fed2c77648de5860a4cc508cd0818c85b8b8a1ab4ceeef8d981c8956a6610a3b612010565b61201f565b610a5c5760405162461bcd60e51b815260040161064690614653565b610a6884848484612048565b50505050565b600a60205260009081526040902080546001820180546001600160a01b039092169291610a9a90614cb8565b80601f0160208091040260200160405190810160405280929190818152602001828054610ac690614cb8565b8015610b135780601f10610ae857610100808354040283529160200191610b13565b820191906000526020600020905b815481529060010190602001808311610af657829003601f168201915b505050506002830154600384015460048501546005909501549394919360ff91821693501686565b7f8502233096d909befbda0999bb8ea2f3a6be3c138b9fbf003752a4c8bce86f6c81565b60009081526020819052604090206001015490565b600080600660009054906101000a90046001600160a01b03166001600160a01b0316630f603ed36040518163ffffffff1660e01b815260040160206040518083038186803b158015610bc557600080fd5b505afa158015610bd9573d6000803e3d6000fd5b505050506040513d601f19601f82011682018060405250810190610bfd91906135b3565b9150600660009054906101000a90046001600160a01b03166001600160a01b031663fd967f476040518163ffffffff1660e01b815260040160206040518083038186803b158015610c4d57600080fd5b505afa158015610c61573d6000803e3d6000fd5b505050506040513d601f19601f82011682018060405250810190610c859190613c85565b6fffffffffffffffffffffffffffffffff1660085484610ca59190614c3f565b610caf9190614c1f565b90509250929050565b600660009054906101000a90046001600160a01b03166001600160a01b0316639d2f83f06040518163ffffffff1660e01b815260040160206040518083038186803b158015610d0657600080fd5b505afa158015610d1a573d6000803e3d6000fd5b505050506040513d601f19601f82011682018060405250810190610d3e9190613b7c565b15610d5b5760405162461bcd60e51b81526004016106469061476a565b6000828152600a602052604090206003015460ff1615610d8d5760405162461bcd60e51b8152600401610646906147ac565b6000610d97612010565b905081610da4828561061e565b1015610dc25760405162461bcd60e51b815260040161064690614408565b610dd4610dcd612010565b8484611f66565b6000838152600a6020526040908190206004908101549151637921219560e11b8152309163f242432a91610e10918491879187918a9101613f06565b600060405180830381600087803b158015610e2a57600080fd5b505af1158015610e3e573d6000803e3d6000fd5b505050508084836001600160a01b03167fa70022dc131dbd0be52c08bf87947e36b3e7d4934dce1efecf2d261c381d101786604051610e7d91906140b1565b60405180910390a450505050565b610e93612010565b6001600160a01b0316856001600160a01b03161480610eb95750610eb9856105e0612010565b610ed55760405162461bcd60e51b815260040161064690614556565b610ee285858585856121ca565b5050505050565b610ef3828261239e565b6000828152600160205260409020610f0b9082611ff7565b505050565b6000908152600a602052604090206003015460ff1690565b610f3282826123c2565b6000828152600160205260409020610f0b9082612404565b600654604080516309d2f83f60e41b815290516060926001600160a01b031691639d2f83f0916004808301926020929190829003018186803b158015610f8f57600080fd5b505afa158015610fa3573d6000803e3d6000fd5b505050506040513d601f19601f82011682018060405250810190610fc79190613b7c565b15610fe45760405162461bcd60e51b81526004016106469061476a565b8582148015610ff257508584145b61100e5760405162461bcd60e51b815260040161064690614809565b8561102b5760405162461bcd60e51b81526004016106469061449c565b8567ffffffffffffffff81111561105257634e487b7160e01b600052604160045260246000fd5b60405190808252806020026020018201604052801561107b578160200160208202803683370190505b50905060008667ffffffffffffffff8111156110a757634e487b7160e01b600052604160045260246000fd5b6040519080825280602002602001820160405280156110d0578160200160208202803683370190505b5060075490915060005b888110156114b2578183828151811061110357634e487b7160e01b600052603260045260246000fd5b6020026020010181815250506040518060c00160405280611122612010565b6001600160a01b0316815260200189898481811061115057634e487b7160e01b600052603260045260246000fd5b90506020028101906111629190614b40565b8080601f0160208091040260200160405190810160405280939291908181526020018383808284376000920191909152505050908252506020018787848181106111bc57634e487b7160e01b600052603260045260246000fd5b90506020020135815260200160011515815260200160008152602001600060028111156111f957634e487b7160e01b600052602160045260246000fd5b90526000838152600a602090815260409091208251815473ffffffffffffffffffffffffffffffffffffffff19166001600160a01b03909116178155828201518051919261124f9260018501929091019061331f565b506040820151600280830191909155606083015160038301805491151560ff199283161790556080840151600484015560a084015160058401805491939092919091169060019084908111156112b557634e487b7160e01b600052602160045260246000fd5b02179055506112c991506001905083614c07565b9150818482815181106112ec57634e487b7160e01b600052603260045260246000fd5b6020026020010181815250506040518060c0016040528061130b612010565b6001600160a01b031681526020018b8b8481811061133957634e487b7160e01b600052603260045260246000fd5b905060200281019061134b9190614b40565b8080601f0160208091040260200160405190810160405280939291908181526020018383808284376000920191909152505050908252506020018787848181106113a557634e487b7160e01b600052603260045260246000fd5b9050602002013581526020016000151581526020016001846113c79190614c5e565b8152602001600090526000838152600a602090815260409091208251815473ffffffffffffffffffffffffffffffffffffffff19166001600160a01b0390911617815582820151805191926114249260018501929091019061331f565b506040820151600280830191909155606083015160038301805491151560ff199283161790556080840151600484015560a0840151600584018054919390929190911690600190849081111561148a57634e487b7160e01b600052602160045260246000fd5b021790555061149e91506001905083614c07565b9150806114aa81614cf3565b9150506110da565b50806007819055506115063083878780806020026020016040519081016040528093929190818152602001838360200280828437600092018290525060408051602081019091529081529250610a0f915050565b611559611511612010565b84878780806020026020016040519081016040528093929190818152602001838360200280828437600092018290525060408051602081019091529081529250610a0f915050565b611561612010565b6001600160a01b03167fe309c6cae6e35dcc6c2f37d5da32b19e0346074be56b9722cdf852d20fced6ee848b8b868c8c8c8c6040516115a7989796959493929190613fd1565b60405180910390a250509695505050505050565b6115e77f65d7a28e3265b37a6474929f336521b332c1681b933f6cb9f3376673440d862a610a3b612010565b6116035760405162461bcd60e51b815260040161064690614866565b61160b612419565b565b606081518351146116305760405162461bcd60e51b81526004016106469061497d565b6000835167ffffffffffffffff81111561165a57634e487b7160e01b600052604160045260246000fd5b604051908082528060200260200182016040528015611683578160200160208202803683370190505b50905060005b8451811015611725576116ea8582815181106116b557634e487b7160e01b600052603260045260246000fd5b60200260200101518583815181106116dd57634e487b7160e01b600052603260045260246000fd5b602002602001015161061e565b82828151811061170a57634e487b7160e01b600052603260045260246000fd5b602090810291909101015261171e81614cf3565b9050611689565b509392505050565b60055461010090046001600160a01b0390811691161490565b60055460ff165b90565b611758612010565b6001600160a01b0316836001600160a01b0316148061177e575061177e836105e0612010565b61179a5760405162461bcd60e51b8152600401610646906143ab565b610f0b838383612487565b6117d17f9f2df0fed2c77648de5860a4cc508cd0818c85b8b8a1ab4ceeef8d981c8956a6610a3b612010565b6117ed5760405162461bcd60e51b815260040161064690614653565b610a688484848461262d565b60075481565b600554600160a81b900460ff1681565b61183b7f65d7a28e3265b37a6474929f336521b332c1681b933f6cb9f3376673440d862a610a3b612010565b6118575760405162461bcd60e51b8152600401610646906148c3565b61160b61271e565b600660009054906101000a90046001600160a01b03166001600160a01b0316639d2f83f06040518163ffffffff1660e01b815260040160206040518083038186803b1580156118ad57600080fd5b505afa1580156118c1573d6000803e3d6000fd5b505050506040513d601f19601f820116820180604052508101906118e59190613b7c565b156119025760405162461bcd60e51b81526004016106469061476a565b60006119128c8c8c8c8c8c610f4a565b90506000868686868660405160200161192f9594939291906140e6565b604051602081830303815290604052905061198861194b612010565b8f848c8c80806020026020016040519081016040528093929190818152602001838360200280828437600092019190915250889250610e8b915050565b5050505050505050505050505050565b60065460408051634a32c6bf60e11b815290516001600160a01b03909216916391d148549183916394658d7e91600480820192602092909190829003018186803b1580156119e557600080fd5b505afa1580156119f9573d6000803e3d6000fd5b505050506040513d601f19601f82011682018060405250810190611a1d9190613bb0565b611a25612010565b6040518363ffffffff1660e01b8152600401611a429291906140ba565b60206040518083038186803b158015611a5a57600080fd5b505afa158015611a6e573d6000803e3d6000fd5b505050506040513d601f19601f82011682018060405250810190611a929190613b7c565b611aae5760405162461bcd60e51b8152600401610646906142f1565b60058054911515600160a81b027fffffffffffffffffffff00ffffffffffffffffffffffffffffffffffffffffff909216919091179055565b6000828152600160205260408120611aff9083612779565b9392505050565b60007f9f2df0fed2c77648de5860a4cc508cd0818c85b8b8a1ab4ceeef8d981c8956a6831480611aff5750611aff838361201f565b60065460408051634a32c6bf60e11b815290516001600160a01b03909216916391d148549183916394658d7e91600480820192602092909190829003018186803b158015611b8857600080fd5b505afa158015611b9c573d6000803e3d6000fd5b505050506040513d601f19601f82011682018060405250810190611bc09190613bb0565b611bc8612010565b6040518363ffffffff1660e01b8152600401611be59291906140ba565b60206040518083038186803b158015611bfd57600080fd5b505afa158015611c11573d6000803e3d6000fd5b505050506040513d601f19601f82011682018060405250810190611c359190613b7c565b611c515760405162461bcd60e51b8152600401610646906142f1565b610f0b600983836133a3565b600081565b816001600160a01b0316611c74612010565b6001600160a01b03161415611c9b5760405162461bcd60e51b815260040161064690614920565b8060036000611ca8612010565b6001600160a01b03908116825260208083019390935260409182016000908120918716808252919093529120805460ff191692151592909217909155611cec612010565b6001600160a01b03167f17307eab39ab6107e8899845ad3d59bd9653f200f220920489ca2b5937696c3183604051611d2491906140a6565b60405180910390a35050565b63bc197c8160e01b95945050505050565b60098054611d4e90614cb8565b80601f0160208091040260200160405190810160405280929190818152602001828054611d7a90614cb8565b8015611dc75780601f10611d9c57610100808354040283529160200191611dc7565b820191906000526020600020905b815481529060010190602001808311611daa57829003601f168201915b505050505081565b60085481565b60008181526001602052604081206106c690612785565b7f9f2df0fed2c77648de5860a4cc508cd0818c85b8b8a1ab4ceeef8d981c8956a681565b610f328282612790565b7f65d7a28e3265b37a6474929f336521b332c1681b933f6cb9f3376673440d862a81565b606060098054611e4d90614cb8565b80601f0160208091040260200160405190810160405280929190818152602001828054611e7990614cb8565b8015611ec65780601f10611e9b57610100808354040283529160200191611ec6565b820191906000526020600020905b815481529060010190602001808311611ea957829003601f168201915b5050505050905090565b6001600160a01b03918216600090815260036020908152604080832093909416825291909152205460ff1690565b63f23a6e6160e01b95945050505050565b611f17612010565b6001600160a01b0316856001600160a01b03161480611f3d5750611f3d856105e0612010565b611f595760405162461bcd60e51b8152600401610646906143ab565b610ee285858585856127af565b611f6e612010565b6001600160a01b0316836001600160a01b03161480611f945750611f94836105e0612010565b611fb05760405162461bcd60e51b8152600401610646906143ab565b610f0b8383836128e7565b6000611fc63361172d565b15611fda575060131936013560601c61174d565b611fe261200c565b905061174d565b611ff382826129fa565b5050565b6000611aff836001600160a01b038416612a7f565b3390565b600061201a611fbb565b905090565b6000918252602082815260408084206001600160a01b0393909316845291905290205460ff1690565b6001600160a01b03841661206e5760405162461bcd60e51b815260040161064690614a37565b815183511461208f5760405162461bcd60e51b8152600401610646906149da565b6000612099612010565b90506120aa81600087878787612ac9565b60005b8451811015612162578381815181106120d657634e487b7160e01b600052603260045260246000fd5b60200260200101516002600087848151811061210257634e487b7160e01b600052603260045260246000fd5b602002602001015181526020019081526020016000206000886001600160a01b03166001600160a01b03168152602001908152602001600020600082825461214a9190614c07565b9091555081905061215a81614cf3565b9150506120ad565b50846001600160a01b031660006001600160a01b0316826001600160a01b03167f4a39dc06d4c0dbc64b70af90fd698a233a518aa5d07e595d983b8c0526c8f7fb87876040516121b3929190614078565b60405180910390a4610ee281600087878787612c89565b81518351146121eb5760405162461bcd60e51b8152600401610646906149da565b6001600160a01b0384166122115760405162461bcd60e51b8152600401610646906144f9565b600061221b612010565b905061222b818787878787612ac9565b60005b845181101561233057600085828151811061225957634e487b7160e01b600052603260045260246000fd5b60200260200101519050600085838151811061228557634e487b7160e01b600052603260045260246000fd5b60209081029190910181015160008481526002835260408082206001600160a01b038e1683529093529190912054909150818110156122d65760405162461bcd60e51b8152600401610646906146b0565b60008381526002602090815260408083206001600160a01b038e8116855292528083208585039055908b16825281208054849290612315908490614c07565b925050819055505050508061232990614cf3565b905061222e565b50846001600160a01b0316866001600160a01b0316826001600160a01b03167f4a39dc06d4c0dbc64b70af90fd698a233a518aa5d07e595d983b8c0526c8f7fb8787604051612380929190614078565b60405180910390a4612396818787878787612c89565b505050505050565b6123a782610b5f565b6123b8816123b3612010565b612d97565b610f0b83836129fa565b6123ca612010565b6001600160a01b0316816001600160a01b0316146123fa5760405162461bcd60e51b815260040161064690614ad5565b611ff38282612dfb565b6000611aff836001600160a01b038416612e7e565b612421611746565b61243d5760405162461bcd60e51b815260040161064690614219565b6005805460ff191690557f5db9ee0a495bf2e6ff9c91a7834c1ba4fdd244a5e8aa4e537bd38aeae4b073aa612470612010565b60405161247d9190613e51565b60405180910390a1565b6001600160a01b0383166124ad5760405162461bcd60e51b815260040161064690614610565b80518251146124ce5760405162461bcd60e51b8152600401610646906149da565b60006124d8612010565b90506124f881856000868660405180602001604052806000815250612ac9565b60005b83518110156125dc57600084828151811061252657634e487b7160e01b600052603260045260246000fd5b60200260200101519050600084838151811061255257634e487b7160e01b600052603260045260246000fd5b60209081029190910181015160008481526002835260408082206001600160a01b038c1683529093529190912054909150818110156125a35760405162461bcd60e51b8152600401610646906142ad565b60009283526002602090815260408085206001600160a01b038b16865290915290922091039055806125d481614cf3565b9150506124fb565b5060006001600160a01b0316846001600160a01b0316826001600160a01b03167f4a39dc06d4c0dbc64b70af90fd698a233a518aa5d07e595d983b8c0526c8f7fb8686604051610e7d929190614078565b6001600160a01b0384166126535760405162461bcd60e51b815260040161064690614a37565b600061265d612010565b905061267e8160008761266f88612f9b565b61267888612f9b565b87612ac9565b60008481526002602090815260408083206001600160a01b0389168452909152812080548592906126b0908490614c07565b92505081905550846001600160a01b031660006001600160a01b0316826001600160a01b03167fc3d58168c5ae7397731d063d5bbf3d657854427343f4c083240f7aacaa2d0f628787604051612707929190614b32565b60405180910390a4610ee281600087878787612ff4565b612726611746565b156127435760405162461bcd60e51b815260040161064690614465565b6005805460ff191660011790557f62e78cea01bee320cd4e420270b5ea74000d11b0c9f74754ebdbfc544b05a258612470612010565b6000611aff83836130c5565b60006106c6826130fd565b61279982610b5f565b6127a5816123b3612010565b610f0b8383612dfb565b6001600160a01b0384166127d55760405162461bcd60e51b8152600401610646906144f9565b60006127df612010565b90506127f081878761266f88612f9b565b60008481526002602090815260408083206001600160a01b038a168452909152902054838110156128335760405162461bcd60e51b8152600401610646906146b0565b60008581526002602090815260408083206001600160a01b038b8116855292528083208785039055908816825281208054869290612872908490614c07565b92505081905550856001600160a01b0316876001600160a01b0316836001600160a01b03167fc3d58168c5ae7397731d063d5bbf3d657854427343f4c083240f7aacaa2d0f6288886040516128c8929190614b32565b60405180910390a46128de828888888888612ff4565b50505050505050565b6001600160a01b03831661290d5760405162461bcd60e51b815260040161064690614610565b6000612917612010565b90506129478185600061292987612f9b565b61293287612f9b565b60405180602001604052806000815250612ac9565b60008381526002602090815260408083206001600160a01b03881684529091529020548281101561298a5760405162461bcd60e51b8152600401610646906142ad565b60008481526002602090815260408083206001600160a01b03808a16808652919093528184208786039055905190918516907fc3d58168c5ae7397731d063d5bbf3d657854427343f4c083240f7aacaa2d0f62906129eb9089908990614b32565b60405180910390a45050505050565b612a04828261201f565b611ff3576000828152602081815260408083206001600160a01b03851684529091529020805460ff19166001179055612a3b612010565b6001600160a01b0316816001600160a01b0316837f2f8788117e7eff1d82e926ec794901d17c78024a50270940304540a733656f0d60405160405180910390a45050565b6000612a8b8383613101565b612ac157508154600181810184556000848152602080822090930184905584548482528286019093526040902091909155610674565b506000610674565b612ad7868686868686613119565b600554600160a81b900460ff1615612b5f57612b137f8502233096d909befbda0999bb8ea2f3a6be3c138b9fbf003752a4c8bce86f6c8661201f565b80612b435750612b437f8502233096d909befbda0999bb8ea2f3a6be3c138b9fbf003752a4c8bce86f6c8561201f565b612b5f5760405162461bcd60e51b81526004016106469061470d565b60005b83518110156128de576001600160a01b038516612bf357828181518110612b9957634e487b7160e01b600052603260045260246000fd5b6020026020010151600a6000868481518110612bc557634e487b7160e01b600052603260045260246000fd5b602002602001015181526020019081526020016000206002016000828254612bed9190614c5e565b90915550505b600a6000858381518110612c1757634e487b7160e01b600052603260045260246000fd5b60209081029190910181015182528101919091526040016000206003015460ff1615612c77576001600160a01b0386161580612c5b57506001600160a01b03861630145b612c775760405162461bcd60e51b8152600401610646906145b3565b80612c8181614cf3565b915050612b62565b612c9b846001600160a01b0316613127565b156123965760405163bc197c8160e01b81526001600160a01b0385169063bc197c8190612cd49089908990889088908890600401613e65565b602060405180830381600087803b158015612cee57600080fd5b505af1925050508015612d1e575060408051601f3d908101601f19168201909252612d1b91810190613c29565b60015b612d6757612d2a614d40565b80612d355750612d4f565b8060405162461bcd60e51b81526004016106469190614117565b60405162461bcd60e51b81526004016106469061412a565b6001600160e01b0319811663bc197c8160e01b146128de5760405162461bcd60e51b8152600401610646906141bc565b612da1828261201f565b611ff357612db9816001600160a01b0316601461312d565b612dc483602061312d565b604051602001612dd5929190613dd0565b60408051601f198184030181529082905262461bcd60e51b825261064691600401614117565b612e05828261201f565b15611ff3576000828152602081815260408083206001600160a01b03851684529091529020805460ff19169055612e3a612010565b6001600160a01b0316816001600160a01b0316837ff6391f5c32d9c69d2a47ea670b442974b53935d1edc7fd64eb21e047a839171b60405160405180910390a45050565b60008181526001830160205260408120548015612f91576000612ea2600183614c5e565b8554909150600090612eb690600190614c5e565b9050818114612f37576000866000018281548110612ee457634e487b7160e01b600052603260045260246000fd5b9060005260206000200154905080876000018481548110612f1557634e487b7160e01b600052603260045260246000fd5b6000918252602080832090910192909255918252600188019052604090208390555b8554869080612f5657634e487b7160e01b600052603160045260246000fd5b600190038181906000526020600020016000905590558560010160008681526020019081526020016000206000905560019350505050610674565b6000915050610674565b60408051600180825281830190925260609160009190602080830190803683370190505090508281600081518110612fe357634e487b7160e01b600052603260045260246000fd5b602090810291909101015292915050565b613006846001600160a01b0316613127565b156123965760405163f23a6e6160e01b81526001600160a01b0385169063f23a6e619061303f9089908990889088908890600401613ec3565b602060405180830381600087803b15801561305957600080fd5b505af1925050508015613089575060408051601f3d908101601f1916820190925261308691810190613c29565b60015b61309557612d2a614d40565b6001600160e01b0319811663f23a6e6160e01b146128de5760405162461bcd60e51b8152600401610646906141bc565b60008260000182815481106130ea57634e487b7160e01b600052603260045260246000fd5b9060005260206000200154905092915050565b5490565b60009081526001919091016020526040902054151590565b6123968686868686866132ec565b3b151590565b6060600061313c836002614c3f565b613147906002614c07565b67ffffffffffffffff81111561316d57634e487b7160e01b600052604160045260246000fd5b6040519080825280601f01601f191660200182016040528015613197576020820181803683370190505b509050600360fc1b816000815181106131c057634e487b7160e01b600052603260045260246000fd5b60200101906001600160f81b031916908160001a905350600f60fb1b816001815181106131fd57634e487b7160e01b600052603260045260246000fd5b60200101906001600160f81b031916908160001a9053506000613221846002614c3f565b61322c906001614c07565b90505b60018111156132cd577f303132333435363738396162636465660000000000000000000000000000000085600f166010811061327b57634e487b7160e01b600052603260045260246000fd5b1a60f81b82828151811061329f57634e487b7160e01b600052603260045260246000fd5b60200101906001600160f81b031916908160001a90535060049490941c936132c681614ca1565b905061322f565b508315611aff5760405162461bcd60e51b815260040161064690614187565b6132fa868686868686612396565b613302611746565b156123965760405162461bcd60e51b81526004016106469061434e565b82805461332b90614cb8565b90600052602060002090601f01602090048101928261334d5760008555613393565b82601f1061336657805160ff1916838001178555613393565b82800160010185558215613393579182015b82811115613393578251825591602001919060010190613378565b5061339f929150613417565b5090565b8280546133af90614cb8565b90600052602060002090601f0160209004810192826133d15760008555613393565b82601f106133ea5782800160ff19823516178555613393565b82800160010185558215613393579182015b828111156133935782358255916020019190600101906133fc565b5b8082111561339f5760008155600101613418565b80356106c981614de5565b60008083601f840112613448578182fd5b50813567ffffffffffffffff81111561345f578182fd5b602083019150836020808302850101111561347957600080fd5b9250929050565b600082601f830112613490578081fd5b813560206134a56134a083614baf565b614b85565b82815281810190858301838502870184018810156134c1578586fd5b855b858110156134df578135845292840192908401906001016134c3565b5090979650505050505050565b600082601f8301126134fc578081fd5b813567ffffffffffffffff81111561351657613516614d24565b613529601f8201601f1916602001614b85565b81815284602083860101111561353d578283fd5b816020850160208301379081016020019190915292915050565b60008083601f840112613568578182fd5b50813567ffffffffffffffff81111561357f578182fd5b60208301915083602082850101111561347957600080fd5b6000602082840312156135a8578081fd5b8135611aff81614de5565b6000602082840312156135c4578081fd5b8151611aff81614de5565b600080604083850312156135e1578081fd5b82356135ec81614de5565b915060208301356135fc81614de5565b809150509250929050565b600080600080600060a0868803121561361e578081fd5b853561362981614de5565b9450602086013561363981614de5565b9350604086013567ffffffffffffffff80821115613655578283fd5b61366189838a01613480565b94506060880135915080821115613676578283fd5b61368289838a01613480565b93506080880135915080821115613697578283fd5b506136a4888289016134ec565b9150509295509295909350565b600080600080600060a086880312156136c8578081fd5b85356136d381614de5565b945060208601356136e381614de5565b93506040860135925060608601359150608086013567ffffffffffffffff81111561370c578182fd5b6136a4888289016134ec565b6000806000806000806000806000806000806101008d8f03121561373a57898afd5b6137438d61342c565b9b5067ffffffffffffffff60208e0135111561375d57898afd5b61376d8e60208f01358f01613437565b909b50995067ffffffffffffffff60408e0135111561378a578687fd5b61379a8e60408f01358f01613437565b909950975067ffffffffffffffff60608e013511156137b7578687fd5b6137c78e60608f01358f01613437565b909750955067ffffffffffffffff60808e013511156137e4578485fd5b6137f48e60808f01358f01613557565b9c9f9b9e50999c989b979a9699959895979660a08701359660c0810135965060e00135945092505050565b600080600060608486031215613833578081fd5b833561383e81614de5565b9250602084013567ffffffffffffffff8082111561385a578283fd5b61386687838801613480565b9350604086013591508082111561387b578283fd5b5061388886828701613480565b9150509250925092565b600080600080608085870312156138a7578182fd5b84356138b281614de5565b9350602085013567ffffffffffffffff808211156138ce578384fd5b6138da88838901613480565b945060408701359150808211156138ef578384fd5b6138fb88838901613480565b93506060870135915080821115613910578283fd5b5061391d878288016134ec565b91505092959194509250565b6000806040838503121561393b578182fd5b823561394681614de5565b915060208301356135fc81614dfd565b60008060408385031215613968578182fd5b823561397381614de5565b946020939093013593505050565b600080600060608486031215613995578081fd5b83356139a081614de5565b95602085013595506040909401359392505050565b600080600080608085870312156139ca578182fd5b84356139d581614de5565b93506020850135925060408501359150606085013567ffffffffffffffff8111156139fe578182fd5b61391d878288016134ec565b60008060408385031215613a1c578182fd5b823567ffffffffffffffff80821115613a33578384fd5b818501915085601f830112613a46578384fd5b81356020613a566134a083614baf565b82815281810190858301838502870184018b1015613a72578889fd5b8896505b84871015613a9d578035613a8981614de5565b835260019690960195918301918301613a76565b5096505086013592505080821115613ab3578283fd5b50613ac085828601613480565b9150509250929050565b60008060008060008060608789031215613ae2578384fd5b863567ffffffffffffffff80821115613af9578586fd5b613b058a838b01613437565b90985096506020890135915080821115613b1d578586fd5b613b298a838b01613437565b90965094506040890135915080821115613b41578384fd5b50613b4e89828a01613437565b979a9699509497509295939492505050565b600060208284031215613b71578081fd5b8135611aff81614dfd565b600060208284031215613b8d578081fd5b8151611aff81614dfd565b600060208284031215613ba9578081fd5b5035919050565b600060208284031215613bc1578081fd5b5051919050565b60008060408385031215613bda578182fd5b8235915060208301356135fc81614de5565b60008060408385031215613bfe578182fd5b50508035926020909101359150565b600060208284031215613c1e578081fd5b8135611aff81614e0b565b600060208284031215613c3a578081fd5b8151611aff81614e0b565b60008060208385031215613c57578182fd5b823567ffffffffffffffff811115613c6d578283fd5b613c7985828601613557565b90969095509350505050565b600060208284031215613c96578081fd5b81516fffffffffffffffffffffffffffffffff81168114611aff578182fd5b818352602080840193600091908185020181018584845b87811015613d335782840389528135601e19883603018112613cec578687fd5b8701803567ffffffffffffffff811115613d04578788fd5b803603891315613d12578788fd5b613d1f8682898501613da6565b9a87019a9550505090840190600101613ccc565b5091979650505050505050565b6000815180845260208085019450808401835b83811015613d6f57815187529582019590820190600101613d53565b509495945050505050565b60008151808452613d92816020860160208601614c75565b601f01601f19169290920160200192915050565b60008284528282602086013780602084860101526020601f19601f85011685010190509392505050565b60007f416363657373436f6e74726f6c3a206163636f756e742000000000000000000082528351613e08816017850160208801614c75565b7f206973206d697373696e6720726f6c65200000000000000000000000000000006017918401918201528351613e45816028840160208801614c75565b01602801949350505050565b6001600160a01b0391909116815260200190565b60006001600160a01b03808816835280871660208401525060a06040830152613e9160a0830186613d40565b8281036060840152613ea38186613d40565b90508281036080840152613eb78185613d7a565b98975050505050505050565b60006001600160a01b03808816835280871660208401525084604083015283606083015260a06080830152613efb60a0830184613d7a565b979650505050505050565b6001600160a01b0394851681529290931660208301526040820152606081019190915260a06080820181905260009082015260c00190565b60006001600160a01b038816825260c06020830152613f6060c0830188613d7a565b9050856040830152841515606083015283608083015260038310613f9457634e487b7160e01b600052602160045260246000fd5b8260a0830152979650505050505050565b6001600160a01b03929092168252602082015260400190565b600060208252611aff6020830184613d40565b600060a08252613fe460a083018b613d40565b8281036020840152613ff7818a8c613cb5565b9050828103604084015261400b8189613d40565b90508281036060840152614020818789613cb5565b905082810360808401528381527f07ffffffffffffffffffffffffffffffffffffffffffffffffffffffffffffff841115614059578182fd5b6020840280866020840137016020019081529998505050505050505050565b60006040825261408b6040830185613d40565b828103602084015261409d8185613d40565b95945050505050565b901515815260200190565b90815260200190565b9182526001600160a01b0316602082015260400190565b6001600160e01b031991909116815260200190565b6000608082526140fa608083018789613da6565b602083019590955250604081019290925260609091015292915050565b600060208252611aff6020830184613d7a565b60208082526034908201527f455243313135353a207472616e7366657220746f206e6f6e204552433131353560408201527f526563656976657220696d706c656d656e746572000000000000000000000000606082015260800190565b6020808252818101527f537472696e67733a20686578206c656e67746820696e73756666696369656e74604082015260600190565b60208082526028908201527f455243313135353a204552433131353552656365697665722072656a6563746560408201527f6420746f6b656e73000000000000000000000000000000000000000000000000606082015260800190565b60208082526014908201527f5061757361626c653a206e6f7420706175736564000000000000000000000000604082015260600190565b6020808252602b908201527f455243313135353a2062616c616e636520717565727920666f7220746865207a60408201527f65726f2061646472657373000000000000000000000000000000000000000000606082015260800190565b60208082526024908201527f455243313135353a206275726e20616d6f756e7420657863656564732062616c604082015263616e636560e01b606082015260800190565b60208082526038908201527f4163636573734e46543a206f6e6c7920612070726f746f636f6c2061646d696e60408201527f2063616e2063616c6c20746869732066756e6374696f6e2e0000000000000000606082015260800190565b6020808252602c908201527f455243313135355061757361626c653a20746f6b656e207472616e736665722060408201527f7768696c65207061757365640000000000000000000000000000000000000000606082015260800190565b60208082526029908201527f455243313135353a2063616c6c6572206973206e6f74206f776e6572206e6f7260408201527f20617070726f7665640000000000000000000000000000000000000000000000606082015260800190565b6020808252602e908201527f4163636573734e46543a2043616e6e6f742072656465656d206d6f7265204e4660408201527f5473207468616e206f776e65642e000000000000000000000000000000000000606082015260800190565b60208082526010908201527f5061757361626c653a2070617573656400000000000000000000000000000000604082015260600190565b60208082526028908201527f4163636573734e46543a204d75737420637265617465206174206c656173742060408201527f6f6e65204e46542e000000000000000000000000000000000000000000000000606082015260800190565b60208082526025908201527f455243313135353a207472616e7366657220746f20746865207a65726f20616460408201527f6472657373000000000000000000000000000000000000000000000000000000606082015260800190565b60208082526032908201527f455243313135353a207472616e736665722063616c6c6572206973206e6f742060408201527f6f776e6572206e6f7220617070726f7665640000000000000000000000000000606082015260800190565b60208082526039908201527f4163636573734e46543a2063616e6e6f74207472616e7366657220616e20616360408201527f63657373204e465420746861742069732072656465656d656400000000000000606082015260800190565b60208082526023908201527f455243313135353a206275726e2066726f6d20746865207a65726f206164647260408201526265737360e81b606082015260800190565b60208082526038908201527f455243313135355072657365744d696e7465725061757365723a206d7573742060408201527f68617665206d696e74657220726f6c6520746f206d696e740000000000000000606082015260800190565b6020808252602a908201527f455243313135353a20696e73756666696369656e742062616c616e636520666f60408201527f72207472616e7366657200000000000000000000000000000000000000000000606082015260800190565b6020808252603c908201527f4163636573734e46543a205472616e736665727320617265207265737472696360408201527f74656420746f205452414e534645525f524f4c4520686f6c6465727300000000606082015260800190565b60208082526022908201527f4163636573734e46543a205468652070726f746f636f6c206973207061757365604082015261321760f11b606082015260800190565b60208082526033908201527f4163636573734e46543a205468697320746f6b656e206973206e6f742072656460408201527f65656d61626c6520666f72206163636573732e00000000000000000000000000606082015260800190565b60208082526036908201527f4163636573734e46543a204d757374207370656369667920657175616c206e7560408201527f6d626572206f6620636f6e6669672076616c7565732e00000000000000000000606082015260800190565b6020808252603b908201527f455243313135355072657365744d696e7465725061757365723a206d7573742060408201527f686176652070617573657220726f6c6520746f20756e70617573650000000000606082015260800190565b60208082526039908201527f455243313135355072657365744d696e7465725061757365723a206d7573742060408201527f686176652070617573657220726f6c6520746f20706175736500000000000000606082015260800190565b60208082526029908201527f455243313135353a2073657474696e6720617070726f76616c2073746174757360408201527f20666f722073656c660000000000000000000000000000000000000000000000606082015260800190565b60208082526029908201527f455243313135353a206163636f756e747320616e6420696473206c656e67746860408201527f206d69736d617463680000000000000000000000000000000000000000000000606082015260800190565b60208082526028908201527f455243313135353a2069647320616e6420616d6f756e7473206c656e6774682060408201527f6d69736d61746368000000000000000000000000000000000000000000000000606082015260800190565b60208082526021908201527f455243313135353a206d696e7420746f20746865207a65726f206164647265736040820152607360f81b606082015260800190565b60208082526029908201527f4e46543a204270732070726f7669646564206d757374206265206c657373207460408201527f68616e20392c3030300000000000000000000000000000000000000000000000606082015260800190565b6020808252602f908201527f416363657373436f6e74726f6c3a2063616e206f6e6c792072656e6f756e636560408201527f20726f6c657320666f722073656c660000000000000000000000000000000000606082015260800190565b918252602082015260400190565b6000808335601e19843603018112614b56578283fd5b83018035915067ffffffffffffffff821115614b70578283fd5b60200191503681900382131561347957600080fd5b60405181810167ffffffffffffffff81118282101715614ba757614ba7614d24565b604052919050565b600067ffffffffffffffff821115614bc957614bc9614d24565b5060209081020190565b60006fffffffffffffffffffffffffffffffff808316818516808303821115614bfe57614bfe614d0e565b01949350505050565b60008219821115614c1a57614c1a614d0e565b500190565b600082614c3a57634e487b7160e01b81526012600452602481fd5b500490565b6000816000190483118215151615614c5957614c59614d0e565b500290565b600082821015614c7057614c70614d0e565b500390565b60005b83811015614c90578181015183820152602001614c78565b83811115610a685750506000910152565b600081614cb057614cb0614d0e565b506000190190565b600281046001821680614ccc57607f821691505b60208210811415614ced57634e487b7160e01b600052602260045260246000fd5b50919050565b6000600019821415614d0757614d07614d0e565b5060010190565b634e487b7160e01b600052601160045260246000fd5b634e487b7160e01b600052604160045260246000fd5b60e01c90565b600060443d1015614d505761174d565b600481823e6308c379a0614d648251614d3a565b14614d6e5761174d565b6040513d600319016004823e80513d67ffffffffffffffff8160248401118184111715614d9e575050505061174d565b82840192508251915080821115614db8575050505061174d565b503d83016020828401011115614dd05750505061174d565b601f01601f1916810160200160405291505090565b6001600160a01b0381168114614dfa57600080fd5b50565b8015158114614dfa57600080fd5b6001600160e01b031981168114614dfa57600080fdfea164736f6c6343000800000a",
  "linkReferences": {},
  "deployedLinkReferences": {}
}