{
  "_format": "hh-sol-artifact-1",
  "contractName": "AccessNFT_PL",
  "sourceName": "contracts/permissionless/AccessNFT_PL.sol",
  "abi": [
    {
      "inputs": [
        {
          "internalType": "address payable",
          "name": "_controlCenter",
          "type": "address"
        },
        {
          "internalType": "address",
          "name": "_trustedForwarder",
          "type": "address"
        },
        {
          "internalType": "string",
          "name": "_uri",
          "type": "string"
        }
      ],
      "stateMutability": "nonpayable",
      "type": "constructor"
    },
    {
      "anonymous": false,
      "inputs": [
        {
          "indexed": true,
          "internalType": "address",
          "name": "redeemer",
          "type": "address"
        },
        {
          "indexed": true,
          "internalType": "uint256",
          "name": "nftTokenId",
          "type": "uint256"
        },
        {
          "indexed": true,
          "internalType": "uint256",
          "name": "accessNftId",
          "type": "uint256"
        },
        {
          "indexed": false,
          "internalType": "uint256",
          "name": "amount",
          "type": "uint256"
        }
      ],
      "name": "AccessNFTRedeemed",
      "type": "event"
    },
    {
      "anonymous": false,
      "inputs": [
        {
          "indexed": true,
          "internalType": "address",
          "name": "creator",
          "type": "address"
        },
        {
          "indexed": false,
          "internalType": "uint256[]",
          "name": "nftIds",
          "type": "uint256[]"
        },
        {
          "indexed": false,
          "internalType": "string[]",
          "name": "nftURIs",
          "type": "string[]"
        },
        {
          "indexed": false,
          "internalType": "uint256[]",
          "name": "acessNftIds",
          "type": "uint256[]"
        },
        {
          "indexed": false,
          "internalType": "string[]",
          "name": "accessNftURIs",
          "type": "string[]"
        },
        {
          "indexed": false,
          "internalType": "uint256[]",
          "name": "nftSupplies",
          "type": "uint256[]"
        }
      ],
      "name": "AccessNFTsCreated",
      "type": "event"
    },
    {
      "anonymous": false,
      "inputs": [
        {
          "indexed": false,
          "internalType": "bool",
          "name": "isTransferable",
          "type": "bool"
        }
      ],
      "name": "AccessTransferabilityUpdated",
      "type": "event"
    },
    {
      "anonymous": false,
      "inputs": [
        {
          "indexed": true,
          "internalType": "address",
          "name": "account",
          "type": "address"
        },
        {
          "indexed": true,
          "internalType": "address",
          "name": "operator",
          "type": "address"
        },
        {
          "indexed": false,
          "internalType": "bool",
          "name": "approved",
          "type": "bool"
        }
      ],
      "name": "ApprovalForAll",
      "type": "event"
    },
    {
      "anonymous": false,
      "inputs": [
        {
          "indexed": false,
          "internalType": "uint256",
          "name": "accessNftId",
          "type": "uint256"
        },
        {
          "indexed": false,
          "internalType": "address",
          "name": "creator",
          "type": "address"
        },
        {
          "indexed": false,
          "internalType": "uint256",
          "name": "lastTimeToRedeem",
          "type": "uint256"
        }
      ],
      "name": "LastRedeemTimeUpdated",
      "type": "event"
    },
    {
      "anonymous": false,
      "inputs": [
        {
          "indexed": false,
          "internalType": "address",
          "name": "account",
          "type": "address"
        }
      ],
      "name": "Paused",
      "type": "event"
    },
    {
      "anonymous": false,
      "inputs": [
        {
          "indexed": true,
          "internalType": "bytes32",
          "name": "role",
          "type": "bytes32"
        },
        {
          "indexed": true,
          "internalType": "bytes32",
          "name": "previousAdminRole",
          "type": "bytes32"
        },
        {
          "indexed": true,
          "internalType": "bytes32",
          "name": "newAdminRole",
          "type": "bytes32"
        }
      ],
      "name": "RoleAdminChanged",
      "type": "event"
    },
    {
      "anonymous": false,
      "inputs": [
        {
          "indexed": true,
          "internalType": "bytes32",
          "name": "role",
          "type": "bytes32"
        },
        {
          "indexed": true,
          "internalType": "address",
          "name": "account",
          "type": "address"
        },
        {
          "indexed": true,
          "internalType": "address",
          "name": "sender",
          "type": "address"
        }
      ],
      "name": "RoleGranted",
      "type": "event"
    },
    {
      "anonymous": false,
      "inputs": [
        {
          "indexed": true,
          "internalType": "bytes32",
          "name": "role",
          "type": "bytes32"
        },
        {
          "indexed": true,
          "internalType": "address",
          "name": "account",
          "type": "address"
        },
        {
          "indexed": true,
          "internalType": "address",
          "name": "sender",
          "type": "address"
        }
      ],
      "name": "RoleRevoked",
      "type": "event"
    },
    {
      "anonymous": false,
      "inputs": [
        {
          "indexed": false,
          "internalType": "uint256",
          "name": "royaltyBps",
          "type": "uint256"
        }
      ],
      "name": "RoyaltyUpdated",
      "type": "event"
    },
    {
      "anonymous": false,
      "inputs": [
        {
          "indexed": true,
          "internalType": "address",
          "name": "operator",
          "type": "address"
        },
        {
          "indexed": true,
          "internalType": "address",
          "name": "from",
          "type": "address"
        },
        {
          "indexed": true,
          "internalType": "address",
          "name": "to",
          "type": "address"
        },
        {
          "indexed": false,
          "internalType": "uint256[]",
          "name": "ids",
          "type": "uint256[]"
        },
        {
          "indexed": false,
          "internalType": "uint256[]",
          "name": "values",
          "type": "uint256[]"
        }
      ],
      "name": "TransferBatch",
      "type": "event"
    },
    {
      "anonymous": false,
      "inputs": [
        {
          "indexed": true,
          "internalType": "address",
          "name": "operator",
          "type": "address"
        },
        {
          "indexed": true,
          "internalType": "address",
          "name": "from",
          "type": "address"
        },
        {
          "indexed": true,
          "internalType": "address",
          "name": "to",
          "type": "address"
        },
        {
          "indexed": false,
          "internalType": "uint256",
          "name": "id",
          "type": "uint256"
        },
        {
          "indexed": false,
          "internalType": "uint256",
          "name": "value",
          "type": "uint256"
        }
      ],
      "name": "TransferSingle",
      "type": "event"
    },
    {
      "anonymous": false,
      "inputs": [
        {
          "indexed": false,
          "internalType": "string",
          "name": "value",
          "type": "string"
        },
        {
          "indexed": true,
          "internalType": "uint256",
          "name": "id",
          "type": "uint256"
        }
      ],
      "name": "URI",
      "type": "event"
    },
    {
      "anonymous": false,
      "inputs": [
        {
          "indexed": false,
          "internalType": "address",
          "name": "account",
          "type": "address"
        }
      ],
      "name": "Unpaused",
      "type": "event"
    },
    {
      "inputs": [],
      "name": "DEFAULT_ADMIN_ROLE",
      "outputs": [
        {
          "internalType": "bytes32",
          "name": "",
          "type": "bytes32"
        }
      ],
      "stateMutability": "view",
      "type": "function"
    },
    {
      "inputs": [],
      "name": "MINTER_ROLE",
      "outputs": [
        {
          "internalType": "bytes32",
          "name": "",
          "type": "bytes32"
        }
      ],
      "stateMutability": "view",
      "type": "function"
    },
    {
      "inputs": [],
      "name": "PAUSER_ROLE",
      "outputs": [
        {
          "internalType": "bytes32",
          "name": "",
          "type": "bytes32"
        }
      ],
      "stateMutability": "view",
      "type": "function"
    },
    {
      "inputs": [],
      "name": "TRANSFER_ROLE",
      "outputs": [
        {
          "internalType": "bytes32",
          "name": "",
          "type": "bytes32"
        }
      ],
      "stateMutability": "view",
      "type": "function"
    },
    {
      "inputs": [],
      "name": "_contractURI",
      "outputs": [
        {
          "internalType": "string",
          "name": "",
          "type": "string"
        }
      ],
      "stateMutability": "view",
      "type": "function"
    },
    {
      "inputs": [],
      "name": "accessNftIsTransferable",
      "outputs": [
        {
          "internalType": "bool",
          "name": "",
          "type": "bool"
        }
      ],
      "stateMutability": "view",
      "type": "function"
    },
    {
      "inputs": [
        {
          "internalType": "address",
          "name": "account",
          "type": "address"
        },
        {
          "internalType": "uint256",
          "name": "id",
          "type": "uint256"
        }
      ],
      "name": "balanceOf",
      "outputs": [
        {
          "internalType": "uint256",
          "name": "",
          "type": "uint256"
        }
      ],
      "stateMutability": "view",
      "type": "function"
    },
    {
      "inputs": [
        {
          "internalType": "address[]",
          "name": "accounts",
          "type": "address[]"
        },
        {
          "internalType": "uint256[]",
          "name": "ids",
          "type": "uint256[]"
        }
      ],
      "name": "balanceOfBatch",
      "outputs": [
        {
          "internalType": "uint256[]",
          "name": "",
          "type": "uint256[]"
        }
      ],
      "stateMutability": "view",
      "type": "function"
    },
    {
      "inputs": [
        {
          "internalType": "address",
          "name": "account",
          "type": "address"
        },
        {
          "internalType": "uint256",
          "name": "id",
          "type": "uint256"
        },
        {
          "internalType": "uint256",
          "name": "value",
          "type": "uint256"
        }
      ],
      "name": "burn",
      "outputs": [],
      "stateMutability": "nonpayable",
      "type": "function"
    },
    {
      "inputs": [
        {
          "internalType": "address",
          "name": "account",
          "type": "address"
        },
        {
          "internalType": "uint256[]",
          "name": "ids",
          "type": "uint256[]"
        },
        {
          "internalType": "uint256[]",
          "name": "values",
          "type": "uint256[]"
        }
      ],
      "name": "burnBatch",
      "outputs": [],
      "stateMutability": "nonpayable",
      "type": "function"
    },
    {
      "inputs": [],
      "name": "contractURI",
      "outputs": [
        {
          "internalType": "string",
          "name": "",
          "type": "string"
        }
      ],
      "stateMutability": "view",
      "type": "function"
    },
    {
      "inputs": [
        {
          "internalType": "string[]",
          "name": "_nftURIs",
          "type": "string[]"
        },
        {
          "internalType": "string[]",
          "name": "_accessNftURIs",
          "type": "string[]"
        },
        {
          "internalType": "uint256[]",
          "name": "_nftSupplies",
          "type": "uint256[]"
        }
      ],
      "name": "createAccessNfts",
      "outputs": [
        {
          "internalType": "uint256[]",
          "name": "nftIds",
          "type": "uint256[]"
        }
      ],
      "stateMutability": "nonpayable",
      "type": "function"
    },
    {
      "inputs": [
        {
          "internalType": "address",
          "name": "_pack",
          "type": "address"
        },
        {
          "internalType": "string[]",
          "name": "_nftURIs",
          "type": "string[]"
        },
        {
          "internalType": "string[]",
          "name": "_accessNftURIs",
          "type": "string[]"
        },
        {
          "internalType": "uint256[]",
          "name": "_nftSupplies",
          "type": "uint256[]"
        },
        {
          "internalType": "string",
          "name": "_packURI",
          "type": "string"
        },
        {
          "internalType": "uint256",
          "name": "_secondsUntilOpenStart",
          "type": "uint256"
        },
        {
          "internalType": "uint256",
          "name": "_secondsUntilOpenEnd",
          "type": "uint256"
        },
        {
          "internalType": "uint256",
          "name": "_nftsPerOpen",
          "type": "uint256"
        }
      ],
      "name": "createAccessPack",
      "outputs": [],
      "stateMutability": "nonpayable",
      "type": "function"
    },
    {
      "inputs": [
        {
          "internalType": "bytes32",
          "name": "role",
          "type": "bytes32"
        }
      ],
      "name": "getRoleAdmin",
      "outputs": [
        {
          "internalType": "bytes32",
          "name": "",
          "type": "bytes32"
        }
      ],
      "stateMutability": "view",
      "type": "function"
    },
    {
      "inputs": [
        {
          "internalType": "bytes32",
          "name": "role",
          "type": "bytes32"
        },
        {
          "internalType": "uint256",
          "name": "index",
          "type": "uint256"
        }
      ],
      "name": "getRoleMember",
      "outputs": [
        {
          "internalType": "address",
          "name": "",
          "type": "address"
        }
      ],
      "stateMutability": "view",
      "type": "function"
    },
    {
      "inputs": [
        {
          "internalType": "bytes32",
          "name": "role",
          "type": "bytes32"
        }
      ],
      "name": "getRoleMemberCount",
      "outputs": [
        {
          "internalType": "uint256",
          "name": "",
          "type": "uint256"
        }
      ],
      "stateMutability": "view",
      "type": "function"
    },
    {
      "inputs": [
        {
          "internalType": "bytes32",
          "name": "role",
          "type": "bytes32"
        },
        {
          "internalType": "address",
          "name": "account",
          "type": "address"
        }
      ],
      "name": "grantRole",
      "outputs": [],
      "stateMutability": "nonpayable",
      "type": "function"
    },
    {
      "inputs": [
        {
          "internalType": "bytes32",
          "name": "role",
          "type": "bytes32"
        },
        {
          "internalType": "address",
          "name": "account",
          "type": "address"
        }
      ],
      "name": "hasRole",
      "outputs": [
        {
          "internalType": "bool",
          "name": "",
          "type": "bool"
        }
      ],
      "stateMutability": "view",
      "type": "function"
    },
    {
      "inputs": [
        {
          "internalType": "address",
          "name": "account",
          "type": "address"
        },
        {
          "internalType": "address",
          "name": "operator",
          "type": "address"
        }
      ],
      "name": "isApprovedForAll",
      "outputs": [
        {
          "internalType": "bool",
          "name": "",
          "type": "bool"
        }
      ],
      "stateMutability": "view",
      "type": "function"
    },
    {
      "inputs": [
        {
          "internalType": "uint256",
          "name": "_nftId",
          "type": "uint256"
        }
      ],
      "name": "isRedeemed",
      "outputs": [
        {
          "internalType": "bool",
          "name": "",
          "type": "bool"
        }
      ],
      "stateMutability": "view",
      "type": "function"
    },
    {
      "inputs": [],
      "name": "isRestrictedTransfer",
      "outputs": [
        {
          "internalType": "bool",
          "name": "",
          "type": "bool"
        }
      ],
      "stateMutability": "view",
      "type": "function"
    },
    {
      "inputs": [
        {
          "internalType": "address",
          "name": "forwarder",
          "type": "address"
        }
      ],
      "name": "isTrustedForwarder",
      "outputs": [
        {
          "internalType": "bool",
          "name": "",
          "type": "bool"
        }
      ],
      "stateMutability": "view",
      "type": "function"
    },
    {
      "inputs": [
        {
          "internalType": "uint256",
          "name": "",
          "type": "uint256"
        }
      ],
      "name": "lastTimeToRedeem",
      "outputs": [
        {
          "internalType": "uint256",
          "name": "",
          "type": "uint256"
        }
      ],
      "stateMutability": "view",
      "type": "function"
    },
    {
      "inputs": [
        {
          "internalType": "address",
          "name": "",
          "type": "address"
        },
        {
          "internalType": "uint256",
          "name": "",
          "type": "uint256"
        },
        {
          "internalType": "uint256",
          "name": "",
          "type": "uint256"
        },
        {
          "internalType": "bytes",
          "name": "",
          "type": "bytes"
        }
      ],
      "name": "mint",
      "outputs": [],
      "stateMutability": "pure",
      "type": "function"
    },
    {
      "inputs": [
        {
          "internalType": "address",
          "name": "",
          "type": "address"
        },
        {
          "internalType": "uint256[]",
          "name": "",
          "type": "uint256[]"
        },
        {
          "internalType": "uint256[]",
          "name": "",
          "type": "uint256[]"
        },
        {
          "internalType": "bytes",
          "name": "",
          "type": "bytes"
        }
      ],
      "name": "mintBatch",
      "outputs": [],
      "stateMutability": "pure",
      "type": "function"
    },
    {
      "inputs": [],
      "name": "nextTokenId",
      "outputs": [
        {
          "internalType": "uint256",
          "name": "",
          "type": "uint256"
        }
      ],
      "stateMutability": "view",
      "type": "function"
    },
    {
      "inputs": [
        {
          "internalType": "uint256",
          "name": "",
          "type": "uint256"
        }
      ],
      "name": "nftInfo",
      "outputs": [
        {
          "internalType": "address",
          "name": "creator",
          "type": "address"
        },
        {
          "internalType": "string",
          "name": "uri",
          "type": "string"
        },
        {
          "internalType": "bool",
          "name": "isAccess",
          "type": "bool"
        },
        {
          "internalType": "uint256",
          "name": "accessNftId",
          "type": "uint256"
        },
        {
          "internalType": "enum AccessNFT.UnderlyingType",
          "name": "underlyingType",
          "type": "uint8"
        }
      ],
      "stateMutability": "view",
      "type": "function"
    },
    {
      "inputs": [
        {
          "internalType": "address",
          "name": "",
          "type": "address"
        },
        {
          "internalType": "address",
          "name": "",
          "type": "address"
        },
        {
          "internalType": "uint256[]",
          "name": "",
          "type": "uint256[]"
        },
        {
          "internalType": "uint256[]",
          "name": "",
          "type": "uint256[]"
        },
        {
          "internalType": "bytes",
          "name": "",
          "type": "bytes"
        }
      ],
      "name": "onERC1155BatchReceived",
      "outputs": [
        {
          "internalType": "bytes4",
          "name": "",
          "type": "bytes4"
        }
      ],
      "stateMutability": "nonpayable",
      "type": "function"
    },
    {
      "inputs": [
        {
          "internalType": "address",
          "name": "",
          "type": "address"
        },
        {
          "internalType": "address",
          "name": "",
          "type": "address"
        },
        {
          "internalType": "uint256",
          "name": "",
          "type": "uint256"
        },
        {
          "internalType": "uint256",
          "name": "",
          "type": "uint256"
        },
        {
          "internalType": "bytes",
          "name": "",
          "type": "bytes"
        }
      ],
      "name": "onERC1155Received",
      "outputs": [
        {
          "internalType": "bytes4",
          "name": "",
          "type": "bytes4"
        }
      ],
      "stateMutability": "nonpayable",
      "type": "function"
    },
    {
      "inputs": [
        {
          "internalType": "address",
          "name": "",
          "type": "address"
        },
        {
          "internalType": "address",
          "name": "",
          "type": "address"
        },
        {
          "internalType": "uint256",
          "name": "",
          "type": "uint256"
        },
        {
          "internalType": "bytes",
          "name": "",
          "type": "bytes"
        }
      ],
      "name": "onERC721Received",
      "outputs": [
        {
          "internalType": "bytes4",
          "name": "",
          "type": "bytes4"
        }
      ],
      "stateMutability": "nonpayable",
      "type": "function"
    },
    {
      "inputs": [],
      "name": "pause",
      "outputs": [],
      "stateMutability": "nonpayable",
      "type": "function"
    },
    {
      "inputs": [],
      "name": "paused",
      "outputs": [
        {
          "internalType": "bool",
          "name": "",
          "type": "bool"
        }
      ],
      "stateMutability": "view",
      "type": "function"
    },
    {
      "inputs": [
        {
          "internalType": "uint256",
          "name": "_tokenId",
          "type": "uint256"
        },
        {
          "internalType": "uint256",
          "name": "_amount",
          "type": "uint256"
        }
      ],
      "name": "redeemAccess",
      "outputs": [],
      "stateMutability": "nonpayable",
      "type": "function"
    },
    {
      "inputs": [
        {
          "internalType": "bytes32",
          "name": "role",
          "type": "bytes32"
        },
        {
          "internalType": "address",
          "name": "account",
          "type": "address"
        }
      ],
      "name": "renounceRole",
      "outputs": [],
      "stateMutability": "nonpayable",
      "type": "function"
    },
    {
      "inputs": [
        {
          "internalType": "bytes32",
          "name": "role",
          "type": "bytes32"
        },
        {
          "internalType": "address",
          "name": "account",
          "type": "address"
        }
      ],
      "name": "revokeRole",
      "outputs": [],
      "stateMutability": "nonpayable",
      "type": "function"
    },
    {
      "inputs": [],
      "name": "royaltyBps",
      "outputs": [
        {
          "internalType": "uint256",
          "name": "",
          "type": "uint256"
        }
      ],
      "stateMutability": "view",
      "type": "function"
    },
    {
      "inputs": [
        {
          "internalType": "uint256",
          "name": "tokenId",
          "type": "uint256"
        },
        {
          "internalType": "uint256",
          "name": "salePrice",
          "type": "uint256"
        }
      ],
      "name": "royaltyInfo",
      "outputs": [
        {
          "internalType": "address",
          "name": "receiver",
          "type": "address"
        },
        {
          "internalType": "uint256",
          "name": "royaltyAmount",
          "type": "uint256"
        }
      ],
      "stateMutability": "view",
      "type": "function"
    },
    {
      "inputs": [
        {
          "internalType": "address",
          "name": "from",
          "type": "address"
        },
        {
          "internalType": "address",
          "name": "to",
          "type": "address"
        },
        {
          "internalType": "uint256[]",
          "name": "ids",
          "type": "uint256[]"
        },
        {
          "internalType": "uint256[]",
          "name": "amounts",
          "type": "uint256[]"
        },
        {
          "internalType": "bytes",
          "name": "data",
          "type": "bytes"
        }
      ],
      "name": "safeBatchTransferFrom",
      "outputs": [],
      "stateMutability": "nonpayable",
      "type": "function"
    },
    {
      "inputs": [
        {
          "internalType": "address",
          "name": "from",
          "type": "address"
        },
        {
          "internalType": "address",
          "name": "to",
          "type": "address"
        },
        {
          "internalType": "uint256",
          "name": "id",
          "type": "uint256"
        },
        {
          "internalType": "uint256",
          "name": "amount",
          "type": "uint256"
        },
        {
          "internalType": "bytes",
          "name": "data",
          "type": "bytes"
        }
      ],
      "name": "safeTransferFrom",
      "outputs": [],
      "stateMutability": "nonpayable",
      "type": "function"
    },
    {
      "inputs": [
        {
          "internalType": "address",
          "name": "operator",
          "type": "address"
        },
        {
          "internalType": "bool",
          "name": "approved",
          "type": "bool"
        }
      ],
      "name": "setApprovalForAll",
      "outputs": [],
      "stateMutability": "nonpayable",
      "type": "function"
    },
    {
      "inputs": [
        {
          "internalType": "string",
          "name": "_URI",
          "type": "string"
        }
      ],
      "name": "setContractURI",
      "outputs": [],
      "stateMutability": "nonpayable",
      "type": "function"
    },
    {
      "inputs": [
        {
          "internalType": "uint256",
          "name": "_tokenId",
          "type": "uint256"
        },
        {
          "internalType": "uint256",
          "name": "_secondsUntilRedeem",
          "type": "uint256"
        }
      ],
      "name": "setLastTimeToRedeem",
      "outputs": [],
      "stateMutability": "nonpayable",
      "type": "function"
    },
    {
      "inputs": [
        {
          "internalType": "bool",
          "name": "_restrictedTransfer",
          "type": "bool"
        }
      ],
      "name": "setRestrictedTransfer",
      "outputs": [],
      "stateMutability": "nonpayable",
      "type": "function"
    },
    {
      "inputs": [
        {
          "internalType": "uint256",
          "name": "_royaltyBps",
          "type": "uint256"
        }
      ],
      "name": "setRoyaltyBps",
      "outputs": [],
      "stateMutability": "nonpayable",
      "type": "function"
    },
    {
      "inputs": [
        {
          "internalType": "bool",
          "name": "_isTransferable",
          "type": "bool"
        }
      ],
      "name": "setTransferability",
      "outputs": [],
      "stateMutability": "nonpayable",
      "type": "function"
    },
    {
      "inputs": [
        {
          "internalType": "bytes4",
          "name": "interfaceId",
          "type": "bytes4"
        }
      ],
      "name": "supportsInterface",
      "outputs": [
        {
          "internalType": "bool",
          "name": "",
          "type": "bool"
        }
      ],
      "stateMutability": "pure",
      "type": "function"
    },
    {
      "inputs": [
        {
          "internalType": "uint256",
          "name": "_nftId",
          "type": "uint256"
        }
      ],
      "name": "tokenURI",
      "outputs": [
        {
          "internalType": "string",
          "name": "",
          "type": "string"
        }
      ],
      "stateMutability": "view",
      "type": "function"
    },
    {
      "inputs": [
        {
          "internalType": "uint256",
          "name": "id",
          "type": "uint256"
        }
      ],
      "name": "totalSupply",
      "outputs": [
        {
          "internalType": "uint256",
          "name": "",
          "type": "uint256"
        }
      ],
      "stateMutability": "view",
      "type": "function"
    },
    {
      "inputs": [],
      "name": "unpause",
      "outputs": [],
      "stateMutability": "nonpayable",
      "type": "function"
    },
    {
      "inputs": [
        {
          "internalType": "uint256",
          "name": "_nftId",
          "type": "uint256"
        }
      ],
      "name": "uri",
      "outputs": [
        {
          "internalType": "string",
          "name": "",
          "type": "string"
        }
      ],
      "stateMutability": "view",
      "type": "function"
    }
  ],
  "bytecode": "0x60806040523480156200001157600080fd5b50604051620057f4380380620057f4833981016040819052620000349162000423565b828282818180620000458162000134565b506005805460ff19169055620000666000620000606200014d565b6200016a565b62000084600080516020620057d4833981519152620000606200014d565b620000b37f65d7a28e3265b37a6474929f336521b332c1681b933f6cb9f3376673440d862a620000606200014d565b50600780546001600160a01b03199081166001600160a01b0393841617909155600880549091169185169190911790558051620000f890600b9060208401906200037d565b50620001287f8502233096d909befbda0999bb8ea2f3a6be3c138b9fbf003752a4c8bce86f6c620000606200014d565b5050505050506200058c565b8051620001499060049060208401906200037d565b5050565b600062000164620001ad60201b620021bb1760201c565b90505b90565b620001818282620001ed60201b620021e91760201c565b6000828152600160209081526040909120620001a8918390620021f7620001f9821b17901c565b505050565b6000620001ba3362000219565b15620001d0575060131936013560601c62000167565b620001e56200022d60201b6200220c1760201c565b905062000167565b62000149828262000231565b600062000210836001600160a01b038416620002bb565b90505b92915050565b6007546001600160a01b0390811691161490565b3390565b6200023d82826200030a565b62000149576000828152602081815260408083206001600160a01b03851684529091529020805460ff19166001179055620002776200014d565b6001600160a01b0316816001600160a01b0316837f2f8788117e7eff1d82e926ec794901d17c78024a50270940304540a733656f0d60405160405180910390a45050565b6000620002c983836200033c565b620003015750815460018181018455600084815260208082209093018490558454848252828601909352604090209190915562000213565b50600062000213565b6000600080516020620057d48339815191528314806200021057506200021083836200035460201b620022101760201c565b60009081526001919091016020526040902054151590565b6000918252602082815260408084206001600160a01b0393909316845291905290205460ff1690565b8280546200038b9062000520565b90600052602060002090601f016020900481019282620003af5760008555620003fa565b82601f10620003ca57805160ff1916838001178555620003fa565b82800160010185558215620003fa579182015b82811115620003fa578251825591602001919060010190620003dd565b50620004089291506200040c565b5090565b5b808211156200040857600081556001016200040d565b60008060006060848603121562000438578283fd5b8351620004458162000573565b809350506020808501516200045a8162000573565b60408601519093506001600160401b038082111562000477578384fd5b818701915087601f8301126200048b578384fd5b815181811115620004a057620004a06200055d565b604051601f8201601f1916810185018381118282101715620004c657620004c66200055d565b60405281815283820185018a1015620004dd578586fd5b8592505b81831015620005005783830185015181840186015291840191620004e1565b818311156200051157858583830101525b80955050505050509250925092565b6002810460018216806200053557607f821691505b602082108114156200055757634e487b7160e01b600052602260045260246000fd5b50919050565b634e487b7160e01b600052604160045260246000fd5b6001600160a01b03811681146200058957600080fd5b50565b615238806200059c6000396000f3fe608060405234801561001057600080fd5b50600436106103355760003560e01c806375794a3c116101b2578063c0e72740116100f9578063d9371ddd116100a2578063e985e9c51161007c578063e985e9c51461067a578063f23a6e611461068d578063f242432a146106a0578063f5298aca146106b357610335565b8063d9371ddd14610662578063e63ab1e91461066a578063e8a3d4851461067257610335565b8063ca15c873116100d3578063ca15c87314610634578063d539139314610647578063d547741f1461064f57610335565b8063c0e7274014610624578063c63adb2b1461062c578063c87b56dd1461038357610335565b806391d148541161015b578063a22cb46511610135578063a22cb465146105eb578063bc197c81146105fe578063bd85b0391461061157610335565b806391d14854146105bd578063938e3d7b146105d0578063a217fddf146105e357610335565b80638aa016531161018c5780638aa01653146105775780638ba448c21461058a5780639010d07c1461059d57610335565b806375794a3c1461055f57806383661b29146105675780638456cb591461056f57610335565b80632eb2c2d6116102815780634487f6b41161022a5780635948ab63116102045780635948ab631461051e5780635c975abb146105315780636b20c45414610539578063731133e91461054c57610335565b80634487f6b4146104e55780634e1273f4146104f8578063572b6c051461050b57610335565b806336568abe1161025b57806336568abe146104aa5780633c16b12e146104bd5780633f4ba83a146104dd57610335565b80632eb2c2d6146104715780632f2ff15d1461048457806332d33cd01461049757610335565b80631f7fdffa116102e3578063248a9ca3116102bd578063248a9ca31461042a5780632a55205a1461043d5780632e14bee81461045e57610335565b80631f7fdffa146103eb5780631f8bc790146103fe578063206b60f91461042257610335565b8063150b7a0211610314578063150b7a02146103a357806317ffeba2146103c35780631f72d831146103d657610335565b8062fdd58e1461033a57806301ffc9a7146103635780630e89341c14610383575b600080fd5b61034d610348366004613b98565b6106c6565b60405161035a91906142d6565b60405180910390f35b610376610371366004613e39565b610722565b60405161035a91906142cb565b610396610391366004613dc6565b610776565b60405161035a919061433c565b6103b66103b1366004613898565b61081b565b60405161035a91906142f6565b61034d6103d1366004613dc6565b61082b565b6103e96103e4366004613dc6565b61083d565b005b6103e96103f9366004613ad9565b610ad9565b61041161040c366004613dc6565b610af1565b60405161035a95949392919061416a565b61034d610bb9565b61034d610438366004613dc6565b610bdd565b61045061044b366004613e18565b610bf2565b60405161035a9291906141ca565b6103e961046c366004613e18565b610cb3565b6103e961047f3660046137f2565b610eca565b6103e9610492366004613df6565b610f28565b6103766104a5366004613dc6565b610f4f565b6103e96104b8366004613df6565b610f67565b6104d06104cb366004613cf8565b610f89565b60405161035a91906141e3565b6103e96115a2565b6103e96104f3366004613e18565b6115f4565b6104d0610506366004613c3a565b6116e0565b6103766105193660046137af565b611800565b6103e961052c366004613d8e565b611814565b610376611967565b6103e9610547366004613a68565b611971565b6103e961055a366004613bf3565b6119c6565b61034d6119de565b6103766119e4565b6103e96119f4565b6103e9610585366004613961565b611a44565b6103e9610598366004613d8e565b611b7d565b6105b06105ab366004613e18565b611ccc565b60405161035a919061407d565b6103766105cb366004613df6565b611ceb565b6103e96105de366004613e71565b611d20565b61034d611e42565b6103e96105f9366004613b62565b611e47565b6103b661060c3660046137f2565b611f15565b61034d61061f366004613dc6565b611f26565b610396611f38565b61034d611fc6565b61034d610642366004613dc6565b611fcc565b61034d611fe3565b6103e961065d366004613df6565b612007565b610376612011565b61034d61201a565b61039661203e565b6103766106883660046137c9565b6120d0565b6103b661069b3660046138fe565b6120fe565b6103e96106ae3660046138fe565b61210f565b6103e96106c1366004613bc1565b612166565b60006001600160a01b0383166106f75760405162461bcd60e51b81526004016106ee90614475565b60405180910390fd5b5060008181526002602090815260408083206001600160a01b03861684529091529020545b92915050565b60006001600160e01b03198216630271189760e51b148061075357506001600160e01b03198216636cdb3d1360e11b145b8061076e57506001600160e01b0319821663152a902d60e11b145b90505b919050565b6000818152600d60205260409020600101805460609190610796906150d7565b80601f01602080910402602001604051908101604052809291908181526020018280546107c2906150d7565b801561080f5780601f106107e45761010080835404028352916020019161080f565b820191906000526020600020905b8154815290600101906020018083116107f257829003601f168201915b50505050509050919050565b630a85bd0160e11b949350505050565b600e6020526000908152604090205481565b60085460408051634a32c6bf60e11b815290516001600160a01b03909216916391d148549183916394658d7e91600480820192602092909190829003018186803b15801561088a57600080fd5b505afa15801561089e573d6000803e3d6000fd5b505050506040513d601f19601f820116820180604052508101906108c29190613dde565b6108ca612239565b6040518363ffffffff1660e01b81526004016108e79291906142df565b60206040518083038186803b1580156108ff57600080fd5b505afa158015610913573d6000803e3d6000fd5b505050506040513d601f19601f820116820180604052508101906109379190613daa565b6109535760405162461bcd60e51b81526004016106ee90614573565b600860009054906101000a90046001600160a01b03166001600160a01b0316635cd423156040518163ffffffff1660e01b815260040160206040518083038186803b1580156109a157600080fd5b505afa1580156109b5573d6000803e3d6000fd5b505050506040513d601f19601f820116820180604052508101906109d99190613eb1565b600860009054906101000a90046001600160a01b03166001600160a01b031663fd967f476040518163ffffffff1660e01b815260040160206040518083038186803b158015610a2757600080fd5b505afa158015610a3b573d6000803e3d6000fd5b505050506040513d601f19601f82011682018060405250810190610a5f9190613eb1565b610a699190614ff2565b6fffffffffffffffffffffffffffffffff168110610a995760405162461bcd60e51b81526004016106ee90614e1b565b600a8190556040517f244ea8d7627f5a08f4299862bd5a45752842c183aee5b0fb0d1e4887bfa605b390610ace9083906142d6565b60405180910390a150565b60405162461bcd60e51b81526004016106ee90614516565b600d60205260009081526040902080546001820180546001600160a01b039092169291610b1d906150d7565b80601f0160208091040260200160405190810160405280929190818152602001828054610b49906150d7565b8015610b965780601f10610b6b57610100808354040283529160200191610b96565b820191906000526020600020905b815481529060010190602001808311610b7957829003601f168201915b5050505060028301546003840154600490940154929360ff918216939092501685565b7f8502233096d909befbda0999bb8ea2f3a6be3c138b9fbf003752a4c8bce86f6c81565b60009081526020819052604090206001015490565b6000828152600d6020908152604080832054600854825163fd967f4760e01b815292516001600160a01b039283169594919092169263fd967f479260048083019392829003018186803b158015610c4857600080fd5b505afa158015610c5c573d6000803e3d6000fd5b505050506040513d601f19601f82011682018060405250810190610c809190613eb1565b6fffffffffffffffffffffffffffffffff16600a5484610ca0919061505e565b610caa919061503e565b90509250929050565b600860009054906101000a90046001600160a01b03166001600160a01b0316639d2f83f06040518163ffffffff1660e01b815260040160206040518083038186803b158015610d0157600080fd5b505afa158015610d15573d6000803e3d6000fd5b505050506040513d601f19601f82011682018060405250810190610d399190613daa565b15610d565760405162461bcd60e51b81526004016106ee906149f6565b6000828152600d602052604090206002015460ff1615610d885760405162461bcd60e51b81526004016106ee90614a95565b6000610d92612239565b905081610d9f82856106c6565b1015610dbd5760405162461bcd60e51b81526004016106ee9061468a565b610dcf610dc8612239565b8484612166565b6000838152600d6020908152604080832060030154808452600e9092529091205442111580610e0a57506000818152600e6020526040902054155b610e265760405162461bcd60e51b81526004016106ee90614a38565b604051637921219560e11b8152309063f242432a90610e4f908390869086908990600401614132565b600060405180830381600087803b158015610e6957600080fd5b505af1158015610e7d573d6000803e3d6000fd5b505050508084836001600160a01b03167fa70022dc131dbd0be52c08bf87947e36b3e7d4934dce1efecf2d261c381d101786604051610ebc91906142d6565b60405180910390a450505050565b610ed2612239565b6001600160a01b0316856001600160a01b03161480610ef85750610ef885610688612239565b610f145760405162461bcd60e51b81526004016106ee9061483f565b610f218585858585612248565b5050505050565b610f32828261241c565b6000828152600160205260409020610f4a90826121f7565b505050565b6000908152600d602052604090206002015460ff1690565b610f718282612440565b6000828152600160205260409020610f4a9082612482565b600854604080516309d2f83f60e41b815290516060926001600160a01b031691639d2f83f0916004808301926020929190829003018186803b158015610fce57600080fd5b505afa158015610fe2573d6000803e3d6000fd5b505050506040513d601f19601f820116820180604052508101906110069190613daa565b156110235760405162461bcd60e51b81526004016106ee906149f6565b61104f7f9f2df0fed2c77648de5860a4cc508cd0818c85b8b8a1ab4ceeef8d981c8956a66105cb612239565b61106b5760405162461bcd60e51b81526004016106ee906146e7565b858214801561107957508584145b6110955760405162461bcd60e51b81526004016106ee90614b4f565b856110b25760405162461bcd60e51b81526004016106ee90614785565b8567ffffffffffffffff8111156110d957634e487b7160e01b600052604160045260246000fd5b604051908082528060200260200182016040528015611102578160200160208202803683370190505b50905060008667ffffffffffffffff81111561112e57634e487b7160e01b600052604160045260246000fd5b604051908082528060200260200182016040528015611157578160200160208202803683370190505b5060095490915060005b88811015611499578183828151811061118a57634e487b7160e01b600052603260045260246000fd5b6020026020010181815250506040518060a001604052806111a9612239565b6001600160a01b031681526020018989848181106111d757634e487b7160e01b600052603260045260246000fd5b90506020028101906111e99190614f5f565b8080601f016020809104026020016040519081016040528093929190818152602001838380828437600092018290525093855250506001602084015250604082018190526060909101526000838152600d602090815260409091208251815473ffffffffffffffffffffffffffffffffffffffff19166001600160a01b0390911617815582820151805191926112879260018501929091019061352b565b5060408201516002808301805492151560ff199384161790556060840151600384015560808401516004840180549193909291169060019084908111156112de57634e487b7160e01b600052602160045260246000fd5b02179055506112f291506001905083615026565b91508184828151811061131557634e487b7160e01b600052603260045260246000fd5b6020026020010181815250506040518060a00160405280611334612239565b6001600160a01b031681526020018b8b8481811061136257634e487b7160e01b600052603260045260246000fd5b90506020028101906113749190614f5f565b8080601f016020809104026020016040519081016040528093929190818152602001838380828437600092018290525093855250505060208201526040016113bd60018561507d565b8152602001600090526000838152600d602090815260409091208251815473ffffffffffffffffffffffffffffffffffffffff19166001600160a01b03909116178155828201518051919261141a9260018501929091019061352b565b5060408201516002808301805492151560ff1993841617905560608401516003840155608084015160048401805491939092911690600190849081111561147157634e487b7160e01b600052602160045260246000fd5b021790555061148591506001905083615026565b91508061149181615112565b915050611161565b50806009819055506114ed3083878780806020026020016040519081016040528093929190818152602001838360200280828437600092018290525060408051602081019091529081529250612497915050565b6115406114f8612239565b84878780806020026020016040519081016040528093929190818152602001838360200280828437600092018290525060408051602081019091529081529250612497915050565b611548612239565b6001600160a01b03167fe309c6cae6e35dcc6c2f37d5da32b19e0346074be56b9722cdf852d20fced6ee848b8b868c8c8c8c60405161158e9897969594939291906141f6565b60405180910390a250509695505050505050565b6115ce7f65d7a28e3265b37a6474929f336521b332c1681b933f6cb9f3376673440d862a6105cb612239565b6115ea5760405162461bcd60e51b81526004016106ee90614bac565b6115f2612536565b565b6000828152600d60205260409020546001600160a01b0316611614612239565b6001600160a01b03161461163a5760405162461bcd60e51b81526004016106ee90614c09565b6000828152600d602052604090206002015460ff1661166b5760405162461bcd60e51b81526004016106ee90614af2565b600081156116825761167d8242615026565b611686565b6000195b6000848152600e6020526040902081905590507ff01057f3c55599179571189c7758b5ce72994adea5a8dc33095fdc8fdff07119836116c3612239565b836040516116d393929190614f32565b60405180910390a1505050565b606081518351146117035760405162461bcd60e51b81526004016106ee90614d20565b6000835167ffffffffffffffff81111561172d57634e487b7160e01b600052604160045260246000fd5b604051908082528060200260200182016040528015611756578160200160208202803683370190505b50905060005b84518110156117f8576117bd85828151811061178857634e487b7160e01b600052603260045260246000fd5b60200260200101518583815181106117b057634e487b7160e01b600052603260045260246000fd5b60200260200101516106c6565b8282815181106117dd57634e487b7160e01b600052603260045260246000fd5b60209081029190910101526117f181615112565b905061175c565b509392505050565b6007546001600160a01b0390811691161490565b60085460408051634a32c6bf60e11b815290516001600160a01b03909216916391d148549183916394658d7e91600480820192602092909190829003018186803b15801561186157600080fd5b505afa158015611875573d6000803e3d6000fd5b505050506040513d601f19601f820116820180604052508101906118999190613dde565b6118a1612239565b6040518363ffffffff1660e01b81526004016118be9291906142df565b60206040518083038186803b1580156118d657600080fd5b505afa1580156118ea573d6000803e3d6000fd5b505050506040513d601f19601f8201168201806040525081019061190e9190613daa565b61192a5760405162461bcd60e51b81526004016106ee90614573565b600c805460ff19168215151790556040517e4701906729f069b76305c2c6a0bfa1d4ba4ff97d08206c8716078bf7a5e02790610ace9083906142cb565b60055460ff165b90565b611979612239565b6001600160a01b0316836001600160a01b0316148061199f575061199f83610688612239565b6119bb5760405162461bcd60e51b81526004016106ee9061462d565b610f4a8383836125a4565b60405162461bcd60e51b81526004016106ee90614e78565b60095481565b600754600160a01b900460ff1681565b611a207f65d7a28e3265b37a6474929f336521b332c1681b933f6cb9f3376673440d862a6105cb612239565b611a3c5760405162461bcd60e51b81526004016106ee90614c66565b6115f2612648565b600860009054906101000a90046001600160a01b03166001600160a01b0316639d2f83f06040518163ffffffff1660e01b815260040160206040518083038186803b158015611a9257600080fd5b505afa158015611aa6573d6000803e3d6000fd5b505050506040513d601f19601f82011682018060405250810190611aca9190613daa565b15611ae75760405162461bcd60e51b81526004016106ee906149f6565b6000611af78c8c8c8c8c8c610f89565b905060008686868686604051602001611b1495949392919061430b565b6040516020818303038152906040529050611b6d611b30612239565b8f848c8c80806020026020016040519081016040528093929190818152602001838360200280828437600092019190915250889250610eca915050565b5050505050505050505050505050565b60085460408051634a32c6bf60e11b815290516001600160a01b03909216916391d148549183916394658d7e91600480820192602092909190829003018186803b158015611bca57600080fd5b505afa158015611bde573d6000803e3d6000fd5b505050506040513d601f19601f82011682018060405250810190611c029190613dde565b611c0a612239565b6040518363ffffffff1660e01b8152600401611c279291906142df565b60206040518083038186803b158015611c3f57600080fd5b505afa158015611c53573d6000803e3d6000fd5b505050506040513d601f19601f82011682018060405250810190611c779190613daa565b611c935760405162461bcd60e51b81526004016106ee90614573565b60078054911515600160a01b027fffffffffffffffffffffff00ffffffffffffffffffffffffffffffffffffffff909216919091179055565b6000828152600160205260408120611ce490836126a3565b9392505050565b60007f9f2df0fed2c77648de5860a4cc508cd0818c85b8b8a1ab4ceeef8d981c8956a6831480611ce45750611ce48383612210565b60085460408051634a32c6bf60e11b815290516001600160a01b03909216916391d148549183916394658d7e91600480820192602092909190829003018186803b158015611d6d57600080fd5b505afa158015611d81573d6000803e3d6000fd5b505050506040513d601f19601f82011682018060405250810190611da59190613dde565b611dad612239565b6040518363ffffffff1660e01b8152600401611dca9291906142df565b60206040518083038186803b158015611de257600080fd5b505afa158015611df6573d6000803e3d6000fd5b505050506040513d601f19601f82011682018060405250810190611e1a9190613daa565b611e365760405162461bcd60e51b81526004016106ee90614573565b610f4a600b83836135af565b600081565b816001600160a01b0316611e59612239565b6001600160a01b03161415611e805760405162461bcd60e51b81526004016106ee90614cc3565b8060036000611e8d612239565b6001600160a01b03908116825260208083019390935260409182016000908120918716808252919093529120805460ff191692151592909217909155611ed1612239565b6001600160a01b03167f17307eab39ab6107e8899845ad3d59bd9653f200f220920489ca2b5937696c3183604051611f0991906142cb565b60405180910390a35050565b63bc197c8160e01b95945050505050565b60009081526006602052604090205490565b600b8054611f45906150d7565b80601f0160208091040260200160405190810160405280929190818152602001828054611f71906150d7565b8015611fbe5780601f10611f9357610100808354040283529160200191611fbe565b820191906000526020600020905b815481529060010190602001808311611fa157829003601f168201915b505050505081565b600a5481565b600081815260016020526040812061076e906126af565b7f9f2df0fed2c77648de5860a4cc508cd0818c85b8b8a1ab4ceeef8d981c8956a681565b610f7182826126ba565b600c5460ff1681565b7f65d7a28e3265b37a6474929f336521b332c1681b933f6cb9f3376673440d862a81565b6060600b805461204d906150d7565b80601f0160208091040260200160405190810160405280929190818152602001828054612079906150d7565b80156120c65780601f1061209b576101008083540402835291602001916120c6565b820191906000526020600020905b8154815290600101906020018083116120a957829003601f168201915b5050505050905090565b6001600160a01b03918216600090815260036020908152604080832093909416825291909152205460ff1690565b63f23a6e6160e01b95945050505050565b612117612239565b6001600160a01b0316856001600160a01b0316148061213d575061213d85610688612239565b6121595760405162461bcd60e51b81526004016106ee9061462d565b610f2185858585856126d9565b61216e612239565b6001600160a01b0316836001600160a01b03161480612194575061219483610688612239565b6121b05760405162461bcd60e51b81526004016106ee9061462d565b610f4a838383612820565b60006121c633611800565b156121da575060131936013560601c61196e565b6121e261220c565b905061196e565b6121f38282612853565b5050565b6000611ce4836001600160a01b0384166128d8565b3390565b6000918252602082815260408084206001600160a01b0393909316845291905290205460ff1690565b60006122436121bb565b905090565b81518351146122695760405162461bcd60e51b81526004016106ee90614d7d565b6001600160a01b03841661228f5760405162461bcd60e51b81526004016106ee906147e2565b6000612299612239565b90506122a9818787878787612922565b60005b84518110156123ae5760008582815181106122d757634e487b7160e01b600052603260045260246000fd5b60200260200101519050600085838151811061230357634e487b7160e01b600052603260045260246000fd5b60209081029190910181015160008481526002835260408082206001600160a01b038e1683529093529190912054909150818110156123545760405162461bcd60e51b81526004016106ee9061493c565b60008381526002602090815260408083206001600160a01b038e8116855292528083208585039055908b16825281208054849290612393908490615026565b92505081905550505050806123a790615112565b90506122ac565b50846001600160a01b0316866001600160a01b0316826001600160a01b03167f4a39dc06d4c0dbc64b70af90fd698a233a518aa5d07e595d983b8c0526c8f7fb87876040516123fe92919061429d565b60405180910390a4612414818787878787612a5a565b505050505050565b61242582610bdd565b61243681612431612239565b612b68565b610f4a8383612853565b612448612239565b6001600160a01b0316816001600160a01b0316146124785760405162461bcd60e51b81526004016106ee90614ed5565b6121f38282612bcc565b6000611ce4836001600160a01b038416612c4f565b6124a384848484612d6c565b60005b8351811015610f21578281815181106124cf57634e487b7160e01b600052603260045260246000fd5b6020026020010151600660008684815181106124fb57634e487b7160e01b600052603260045260246000fd5b6020026020010151815260200190815260200160002060008282546125209190615026565b9091555061252f905081615112565b90506124a6565b61253e611967565b61255a5760405162461bcd60e51b81526004016106ee9061443e565b6005805460ff191690557f5db9ee0a495bf2e6ff9c91a7834c1ba4fdd244a5e8aa4e537bd38aeae4b073aa61258d612239565b60405161259a919061407d565b60405180910390a1565b6125af838383612eee565b60005b8251811015612642578181815181106125db57634e487b7160e01b600052603260045260246000fd5b60200260200101516006600085848151811061260757634e487b7160e01b600052603260045260246000fd5b60200260200101518152602001908152602001600020600082825461262c919061507d565b9091555061263b905081615112565b90506125b2565b50505050565b612650611967565b1561266d5760405162461bcd60e51b81526004016106ee9061474e565b6005805460ff191660011790557f62e78cea01bee320cd4e420270b5ea74000d11b0c9f74754ebdbfc544b05a25861258d612239565b6000611ce48383613094565b600061076e826130cc565b6126c382610bdd565b6126cf81612431612239565b610f4a8383612bcc565b6001600160a01b0384166126ff5760405162461bcd60e51b81526004016106ee906147e2565b6000612709612239565b905061272981878761271a886130d0565b612723886130d0565b87612922565b60008481526002602090815260408083206001600160a01b038a1684529091529020548381101561276c5760405162461bcd60e51b81526004016106ee9061493c565b60008581526002602090815260408083206001600160a01b038b81168552925280832087850390559088168252812080548692906127ab908490615026565b92505081905550856001600160a01b0316876001600160a01b0316836001600160a01b03167fc3d58168c5ae7397731d063d5bbf3d657854427343f4c083240f7aacaa2d0f628888604051612801929190614f51565b60405180910390a4612817828888888888613129565b50505050505050565b61282b8383836131fa565b6000828152600660205260408120805483929061284990849061507d565b9091555050505050565b61285d8282611ceb565b6121f3576000828152602081815260408083206001600160a01b03851684529091529020805460ff19166001179055612894612239565b6001600160a01b0316816001600160a01b0316837f2f8788117e7eff1d82e926ec794901d17c78024a50270940304540a733656f0d60405160405180910390a45050565b60006128e4838361330d565b61291a5750815460018181018455600084815260208082209093018490558454848252828601909352604090209190915561071c565b50600061071c565b612930868686868686613325565b600754600160a01b900460ff16156129b85761296c7f8502233096d909befbda0999bb8ea2f3a6be3c138b9fbf003752a4c8bce86f6c86611ceb565b8061299c575061299c7f8502233096d909befbda0999bb8ea2f3a6be3c138b9fbf003752a4c8bce86f6c85611ceb565b6129b85760405162461bcd60e51b81526004016106ee90614999565b60005b835181101561281757600d60008583815181106129e857634e487b7160e01b600052603260045260246000fd5b60209081029190910181015182528101919091526040016000206002015460ff1615612a48576001600160a01b0386161580612a2c57506001600160a01b03861630145b612a485760405162461bcd60e51b81526004016106ee9061489c565b80612a5281615112565b9150506129bb565b612a6c846001600160a01b0316613333565b156124145760405163bc197c8160e01b81526001600160a01b0385169063bc197c8190612aa59089908990889088908890600401614091565b602060405180830381600087803b158015612abf57600080fd5b505af1925050508015612aef575060408051601f3d908101601f19168201909252612aec91810190613e55565b60015b612b3857612afb61515f565b80612b065750612b20565b8060405162461bcd60e51b81526004016106ee919061433c565b60405162461bcd60e51b81526004016106ee9061434f565b6001600160e01b0319811663bc197c8160e01b146128175760405162461bcd60e51b81526004016106ee906143e1565b612b728282611ceb565b6121f357612b8a816001600160a01b03166014613339565b612b95836020613339565b604051602001612ba6929190613ffc565b60408051601f198184030181529082905262461bcd60e51b82526106ee9160040161433c565b612bd68282611ceb565b156121f3576000828152602081815260408083206001600160a01b03851684529091529020805460ff19169055612c0b612239565b6001600160a01b0316816001600160a01b0316837ff6391f5c32d9c69d2a47ea670b442974b53935d1edc7fd64eb21e047a839171b60405160405180910390a45050565b60008181526001830160205260408120548015612d62576000612c7360018361507d565b8554909150600090612c879060019061507d565b9050818114612d08576000866000018281548110612cb557634e487b7160e01b600052603260045260246000fd5b9060005260206000200154905080876000018481548110612ce657634e487b7160e01b600052603260045260246000fd5b6000918252602080832090910192909255918252600188019052604090208390555b8554869080612d2757634e487b7160e01b600052603160045260246000fd5b60019003818190600052602060002001600090559055856001016000868152602001908152602001600020600090556001935050505061071c565b600091505061071c565b6001600160a01b038416612d925760405162461bcd60e51b81526004016106ee90614dda565b8151835114612db35760405162461bcd60e51b81526004016106ee90614d7d565b6000612dbd612239565b9050612dce81600087878787612922565b60005b8451811015612e8657838181518110612dfa57634e487b7160e01b600052603260045260246000fd5b602002602001015160026000878481518110612e2657634e487b7160e01b600052603260045260246000fd5b602002602001015181526020019081526020016000206000886001600160a01b03166001600160a01b031681526020019081526020016000206000828254612e6e9190615026565b90915550819050612e7e81615112565b915050612dd1565b50846001600160a01b031660006001600160a01b0316826001600160a01b03167f4a39dc06d4c0dbc64b70af90fd698a233a518aa5d07e595d983b8c0526c8f7fb8787604051612ed792919061429d565b60405180910390a4610f2181600087878787612a5a565b6001600160a01b038316612f145760405162461bcd60e51b81526004016106ee906148f9565b8051825114612f355760405162461bcd60e51b81526004016106ee90614d7d565b6000612f3f612239565b9050612f5f81856000868660405180602001604052806000815250612922565b60005b8351811015613043576000848281518110612f8d57634e487b7160e01b600052603260045260246000fd5b602002602001015190506000848381518110612fb957634e487b7160e01b600052603260045260246000fd5b60209081029190910181015160008481526002835260408082206001600160a01b038c16835290935291909120549091508181101561300a5760405162461bcd60e51b81526004016106ee906144d2565b60009283526002602090815260408085206001600160a01b038b168652909152909220910390558061303b81615112565b915050612f62565b5060006001600160a01b0316846001600160a01b0316826001600160a01b03167f4a39dc06d4c0dbc64b70af90fd698a233a518aa5d07e595d983b8c0526c8f7fb8686604051610ebc92919061429d565b60008260000182815481106130b957634e487b7160e01b600052603260045260246000fd5b9060005260206000200154905092915050565b5490565b6040805160018082528183019092526060916000919060208083019080368337019050509050828160008151811061311857634e487b7160e01b600052603260045260246000fd5b602090810291909101015292915050565b61313b846001600160a01b0316613333565b156124145760405163f23a6e6160e01b81526001600160a01b0385169063f23a6e619061317490899089908890889088906004016140ef565b602060405180830381600087803b15801561318e57600080fd5b505af19250505080156131be575060408051601f3d908101601f191682019092526131bb91810190613e55565b60015b6131ca57612afb61515f565b6001600160e01b0319811663f23a6e6160e01b146128175760405162461bcd60e51b81526004016106ee906143e1565b6001600160a01b0383166132205760405162461bcd60e51b81526004016106ee906148f9565b600061322a612239565b905061325a8185600061323c876130d0565b613245876130d0565b60405180602001604052806000815250612922565b60008381526002602090815260408083206001600160a01b03881684529091529020548281101561329d5760405162461bcd60e51b81526004016106ee906144d2565b60008481526002602090815260408083206001600160a01b03808a16808652919093528184208786039055905190918516907fc3d58168c5ae7397731d063d5bbf3d657854427343f4c083240f7aacaa2d0f62906132fe9089908990614f51565b60405180910390a45050505050565b60009081526001919091016020526040902054151590565b6124148686868686866134f8565b3b151590565b6060600061334883600261505e565b613353906002615026565b67ffffffffffffffff81111561337957634e487b7160e01b600052604160045260246000fd5b6040519080825280601f01601f1916602001820160405280156133a3576020820181803683370190505b509050600360fc1b816000815181106133cc57634e487b7160e01b600052603260045260246000fd5b60200101906001600160f81b031916908160001a905350600f60fb1b8160018151811061340957634e487b7160e01b600052603260045260246000fd5b60200101906001600160f81b031916908160001a905350600061342d84600261505e565b613438906001615026565b90505b60018111156134d9577f303132333435363738396162636465660000000000000000000000000000000085600f166010811061348757634e487b7160e01b600052603260045260246000fd5b1a60f81b8282815181106134ab57634e487b7160e01b600052603260045260246000fd5b60200101906001600160f81b031916908160001a90535060049490941c936134d2816150c0565b905061343b565b508315611ce45760405162461bcd60e51b81526004016106ee906143ac565b613506868686868686612414565b61350e611967565b156124145760405162461bcd60e51b81526004016106ee906145d0565b828054613537906150d7565b90600052602060002090601f016020900481019282613559576000855561359f565b82601f1061357257805160ff191683800117855561359f565b8280016001018555821561359f579182015b8281111561359f578251825591602001919060010190613584565b506135ab929150613623565b5090565b8280546135bb906150d7565b90600052602060002090601f0160209004810192826135dd576000855561359f565b82601f106135f65782800160ff1982351617855561359f565b8280016001018555821561359f579182015b8281111561359f578235825591602001919060010190613608565b5b808211156135ab5760008155600101613624565b80356001600160a01b038116811461077157600080fd5b60008083601f840112613660578182fd5b50813567ffffffffffffffff811115613677578182fd5b602083019150836020808302850101111561369157600080fd5b9250929050565b600082601f8301126136a8578081fd5b813560206136bd6136b883614fce565b614fa4565b82815281810190858301838502870184018810156136d9578586fd5b855b858110156136f7578135845292840192908401906001016136db565b5090979650505050505050565b600082601f830112613714578081fd5b813567ffffffffffffffff81111561372e5761372e615143565b613741601f8201601f1916602001614fa4565b818152846020838601011115613755578283fd5b816020850160208301379081016020019190915292915050565b60008083601f840112613780578182fd5b50813567ffffffffffffffff811115613797578182fd5b60208301915083602082850101111561369157600080fd5b6000602082840312156137c0578081fd5b611ce482613638565b600080604083850312156137db578081fd5b6137e483613638565b9150610caa60208401613638565b600080600080600060a08688031215613809578081fd5b61381286613638565b945061382060208701613638565b9350604086013567ffffffffffffffff8082111561383c578283fd5b61384889838a01613698565b9450606088013591508082111561385d578283fd5b61386989838a01613698565b9350608088013591508082111561387e578283fd5b5061388b88828901613704565b9150509295509295909350565b600080600080608085870312156138ad578384fd5b6138b685613638565b93506138c460208601613638565b925060408501359150606085013567ffffffffffffffff8111156138e6578182fd5b6138f287828801613704565b91505092959194509250565b600080600080600060a08688031215613915578081fd5b61391e86613638565b945061392c60208701613638565b93506040860135925060608601359150608086013567ffffffffffffffff811115613955578182fd5b61388b88828901613704565b6000806000806000806000806000806000806101008d8f03121561398357898afd5b61398c8d613638565b9b5067ffffffffffffffff60208e013511156139a657898afd5b6139b68e60208f01358f0161364f565b909b50995067ffffffffffffffff60408e013511156139d3578687fd5b6139e38e60408f01358f0161364f565b909950975067ffffffffffffffff60608e01351115613a00578687fd5b613a108e60608f01358f0161364f565b909750955067ffffffffffffffff60808e01351115613a2d578485fd5b613a3d8e60808f01358f0161376f565b9c9f9b9e50999c989b979a9699959895979660a08701359660c0810135965060e00135945092505050565b600080600060608486031215613a7c578081fd5b613a8584613638565b9250602084013567ffffffffffffffff80821115613aa1578283fd5b613aad87838801613698565b93506040860135915080821115613ac2578283fd5b50613acf86828701613698565b9150509250925092565b60008060008060808587031215613aee578182fd5b613af785613638565b9350602085013567ffffffffffffffff80821115613b13578384fd5b613b1f88838901613698565b94506040870135915080821115613b34578384fd5b613b4088838901613698565b93506060870135915080821115613b55578283fd5b506138f287828801613704565b60008060408385031215613b74578182fd5b613b7d83613638565b91506020830135613b8d81615204565b809150509250929050565b60008060408385031215613baa578182fd5b613bb383613638565b946020939093013593505050565b600080600060608486031215613bd5578081fd5b613bde84613638565b95602085013595506040909401359392505050565b60008060008060808587031215613c08578182fd5b613c1185613638565b93506020850135925060408501359150606085013567ffffffffffffffff8111156138e6578182fd5b60008060408385031215613c4c578182fd5b823567ffffffffffffffff80821115613c63578384fd5b818501915085601f830112613c76578384fd5b81356020613c866136b883614fce565b82815281810190858301838502870184018b1015613ca2578889fd5b8896505b84871015613ccb57613cb781613638565b835260019690960195918301918301613ca6565b5096505086013592505080821115613ce1578283fd5b50613cee85828601613698565b9150509250929050565b60008060008060008060608789031215613d10578384fd5b863567ffffffffffffffff80821115613d27578586fd5b613d338a838b0161364f565b90985096506020890135915080821115613d4b578586fd5b613d578a838b0161364f565b90965094506040890135915080821115613d6f578384fd5b50613d7c89828a0161364f565b979a9699509497509295939492505050565b600060208284031215613d9f578081fd5b8135611ce481615204565b600060208284031215613dbb578081fd5b8151611ce481615204565b600060208284031215613dd7578081fd5b5035919050565b600060208284031215613def578081fd5b5051919050565b60008060408385031215613e08578182fd5b82359150610caa60208401613638565b60008060408385031215613e2a578182fd5b50508035926020909101359150565b600060208284031215613e4a578081fd5b8135611ce481615215565b600060208284031215613e66578081fd5b8151611ce481615215565b60008060208385031215613e83578182fd5b823567ffffffffffffffff811115613e99578283fd5b613ea58582860161376f565b90969095509350505050565b600060208284031215613ec2578081fd5b81516fffffffffffffffffffffffffffffffff81168114611ce4578182fd5b818352602080840193600091908185020181018584845b87811015613f5f5782840389528135601e19883603018112613f18578687fd5b8701803567ffffffffffffffff811115613f30578788fd5b803603891315613f3e578788fd5b613f4b8682898501613fd2565b9a87019a9550505090840190600101613ef8565b5091979650505050505050565b6000815180845260208085019450808401835b83811015613f9b57815187529582019590820190600101613f7f565b509495945050505050565b60008151808452613fbe816020860160208601615094565b601f01601f19169290920160200192915050565b60008284528282602086013780602084860101526020601f19601f85011685010190509392505050565b60007f416363657373436f6e74726f6c3a206163636f756e742000000000000000000082528351614034816017850160208801615094565b7f206973206d697373696e6720726f6c65200000000000000000000000000000006017918401918201528351614071816028840160208801615094565b01602801949350505050565b6001600160a01b0391909116815260200190565b60006001600160a01b03808816835280871660208401525060a060408301526140bd60a0830186613f6c565b82810360608401526140cf8186613f6c565b905082810360808401526140e38185613fa6565b98975050505050505050565b60006001600160a01b03808816835280871660208401525084604083015283606083015260a0608083015261412760a0830184613fa6565b979650505050505050565b6001600160a01b0394851681529290931660208301526040820152606081019190915260a06080820181905260009082015260c00190565b60006001600160a01b038716825260a0602083015261418c60a0830187613fa6565b90508415156040830152836060830152600383106141ba57634e487b7160e01b600052602160045260246000fd5b8260808301529695505050505050565b6001600160a01b03929092168252602082015260400190565b600060208252611ce46020830184613f6c565b600060a0825261420960a083018b613f6c565b828103602084015261421c818a8c613ee1565b905082810360408401526142308189613f6c565b90508281036060840152614245818789613ee1565b905082810360808401528381527f07ffffffffffffffffffffffffffffffffffffffffffffffffffffffffffffff84111561427e578182fd5b6020840280866020840137016020019081529998505050505050505050565b6000604082526142b06040830185613f6c565b82810360208401526142c28185613f6c565b95945050505050565b901515815260200190565b90815260200190565b9182526001600160a01b0316602082015260400190565b6001600160e01b031991909116815260200190565b60006080825261431f608083018789613fd2565b602083019590955250604081019290925260609091015292915050565b600060208252611ce46020830184613fa6565b60208082526034908201527f455243313135353a207472616e7366657220746f206e6f6e204552433131353560408201527f526563656976657220696d706c656d656e746572000000000000000000000000606082015260800190565b6020808252818101527f537472696e67733a20686578206c656e67746820696e73756666696369656e74604082015260600190565b60208082526028908201527f455243313135353a204552433131353552656365697665722072656a6563746560408201527f6420746f6b656e73000000000000000000000000000000000000000000000000606082015260800190565b60208082526014908201527f5061757361626c653a206e6f7420706175736564000000000000000000000000604082015260600190565b6020808252602b908201527f455243313135353a2062616c616e636520717565727920666f7220746865207a60408201527f65726f2061646472657373000000000000000000000000000000000000000000606082015260800190565b60208082526024908201527f455243313135353a206275726e20616d6f756e7420657863656564732062616c604082015263616e636560e01b606082015260800190565b60208082526031908201527f4163636573734e46543a2063616e6e6f742075736520726567756c6172206d6960408201527f6e7442617463682066756e6374696f6e2e000000000000000000000000000000606082015260800190565b60208082526038908201527f4163636573734e46543a206f6e6c7920612070726f746f636f6c2061646d696e60408201527f2063616e2063616c6c20746869732066756e6374696f6e2e0000000000000000606082015260800190565b6020808252602c908201527f455243313135355061757361626c653a20746f6b656e207472616e736665722060408201527f7768696c65207061757365640000000000000000000000000000000000000000606082015260800190565b60208082526029908201527f455243313135353a2063616c6c6572206973206e6f74206f776e6572206e6f7260408201527f20617070726f7665640000000000000000000000000000000000000000000000606082015260800190565b6020808252602e908201527f4163636573734e46543a2043616e6e6f742072656465656d206d6f7265204e4660408201527f5473207468616e206f776e65642e000000000000000000000000000000000000606082015260800190565b60208082526041908201527f4163636573734e46543a204f6e6c79206163636f756e74732077697468204d4960408201527f4e5445525f524f4c452063616e2063616c6c20746869732066756e6374696f6e6060820152601760f91b608082015260a00190565b60208082526010908201527f5061757361626c653a2070617573656400000000000000000000000000000000604082015260600190565b60208082526028908201527f4163636573734e46543a204d75737420637265617465206174206c656173742060408201527f6f6e65204e46542e000000000000000000000000000000000000000000000000606082015260800190565b60208082526025908201527f455243313135353a207472616e7366657220746f20746865207a65726f20616460408201527f6472657373000000000000000000000000000000000000000000000000000000606082015260800190565b60208082526032908201527f455243313135353a207472616e736665722063616c6c6572206973206e6f742060408201527f6f776e6572206e6f7220617070726f7665640000000000000000000000000000606082015260800190565b60208082526039908201527f4163636573734e46543a2063616e6e6f74207472616e7366657220616e20616360408201527f63657373204e465420746861742069732072656465656d656400000000000000606082015260800190565b60208082526023908201527f455243313135353a206275726e2066726f6d20746865207a65726f206164647260408201526265737360e81b606082015260800190565b6020808252602a908201527f455243313135353a20696e73756666696369656e742062616c616e636520666f60408201527f72207472616e7366657200000000000000000000000000000000000000000000606082015260800190565b6020808252603c908201527f4163636573734e46543a205472616e736665727320617265207265737472696360408201527f74656420746f205452414e534645525f524f4c4520686f6c6465727300000000606082015260800190565b60208082526022908201527f4163636573734e46543a205468652070726f746f636f6c206973207061757365604082015261321760f11b606082015260800190565b6020808252602e908201527f4163636573734e46543a2057696e646f7720746f2072656465656d206163636560408201527f73732068617320636c6f7365642e000000000000000000000000000000000000606082015260800190565b60208082526033908201527f4163636573734e46543a205468697320746f6b656e206973206e6f742072656460408201527f65656d61626c6520666f72206163636573732e00000000000000000000000000606082015260800190565b60208082526034908201527f4163636573734e46543a2063616e207365742072656465656d2074696d65206660408201527f6f72206f6e6c7920416363657373204e4654732e000000000000000000000000606082015260800190565b60208082526036908201527f4163636573734e46543a204d757374207370656369667920657175616c206e7560408201527f6d626572206f6620636f6e6669672076616c7565732e00000000000000000000606082015260800190565b6020808252603b908201527f455243313135355072657365744d696e7465725061757365723a206d7573742060408201527f686176652070617573657220726f6c6520746f20756e70617573650000000000606082015260800190565b60208082526033908201527f4163636573734e46543a206f6e6c79207468652063726561746f722063616e2060408201527f63616c6c20746869732066756e6374696f6e2e00000000000000000000000000606082015260800190565b60208082526039908201527f455243313135355072657365744d696e7465725061757365723a206d7573742060408201527f686176652070617573657220726f6c6520746f20706175736500000000000000606082015260800190565b60208082526029908201527f455243313135353a2073657474696e6720617070726f76616c2073746174757360408201527f20666f722073656c660000000000000000000000000000000000000000000000606082015260800190565b60208082526029908201527f455243313135353a206163636f756e747320616e6420696473206c656e67746860408201527f206d69736d617463680000000000000000000000000000000000000000000000606082015260800190565b60208082526028908201527f455243313135353a2069647320616e6420616d6f756e7473206c656e6774682060408201527f6d69736d61746368000000000000000000000000000000000000000000000000606082015260800190565b60208082526021908201527f455243313135353a206d696e7420746f20746865207a65726f206164647265736040820152607360f81b606082015260800190565b60208082526029908201527f4e46543a204270732070726f7669646564206d757374206265206c657373207460408201527f68616e20392c3030300000000000000000000000000000000000000000000000606082015260800190565b6020808252602c908201527f4163636573734e46543a2063616e6e6f742075736520726567756c6172206d6960408201527f6e742066756e6374696f6e2e0000000000000000000000000000000000000000606082015260800190565b6020808252602f908201527f416363657373436f6e74726f6c3a2063616e206f6e6c792072656e6f756e636560408201527f20726f6c657320666f722073656c660000000000000000000000000000000000606082015260800190565b9283526001600160a01b03919091166020830152604082015260600190565b918252602082015260400190565b6000808335601e19843603018112614f75578283fd5b83018035915067ffffffffffffffff821115614f8f578283fd5b60200191503681900382131561369157600080fd5b60405181810167ffffffffffffffff81118282101715614fc657614fc6615143565b604052919050565b600067ffffffffffffffff821115614fe857614fe8615143565b5060209081020190565b60006fffffffffffffffffffffffffffffffff80831681851680830382111561501d5761501d61512d565b01949350505050565b600082198211156150395761503961512d565b500190565b60008261505957634e487b7160e01b81526012600452602481fd5b500490565b60008160001904831182151516156150785761507861512d565b500290565b60008282101561508f5761508f61512d565b500390565b60005b838110156150af578181015183820152602001615097565b838111156126425750506000910152565b6000816150cf576150cf61512d565b506000190190565b6002810460018216806150eb57607f821691505b6020821081141561510c57634e487b7160e01b600052602260045260246000fd5b50919050565b60006000198214156151265761512661512d565b5060010190565b634e487b7160e01b600052601160045260246000fd5b634e487b7160e01b600052604160045260246000fd5b60e01c90565b600060443d101561516f5761196e565b600481823e6308c379a06151838251615159565b1461518d5761196e565b6040513d600319016004823e80513d67ffffffffffffffff81602484011181841117156151bd575050505061196e565b828401925082519150808211156151d7575050505061196e565b503d830160208284010111156151ef5750505061196e565b601f01601f1916810160200160405291505090565b801515811461521257600080fd5b50565b6001600160e01b03198116811461521257600080fdfea164736f6c6343000800000a9f2df0fed2c77648de5860a4cc508cd0818c85b8b8a1ab4ceeef8d981c8956a6",
  "linkReferences": {},
  "deployedLinkReferences": {}
}