{
  "_format": "hh-sol-artifact-1",
  "contractName": "ProtocolControl",
  "sourceName": "contracts/ProtocolControl.sol",
  "abi": [
    {
      "inputs": [
        {
          "internalType": "address",
          "name": "_admin",
          "type": "address"
        },
        {
          "internalType": "address",
          "name": "_nftlabs",
          "type": "address"
        }
      ],
      "stateMutability": "nonpayable",
      "type": "constructor"
    },
    {
      "anonymous": false,
      "inputs": [
        {
          "indexed": false,
          "internalType": "address",
          "name": "asset",
          "type": "address"
        },
        {
          "indexed": false,
          "internalType": "address",
          "name": "to",
          "type": "address"
        },
        {
          "indexed": false,
          "internalType": "uint256",
          "name": "amount",
          "type": "uint256"
        }
      ],
      "name": "FundsTransferred",
      "type": "event"
    },
    {
      "anonymous": false,
      "inputs": [
        {
          "indexed": false,
          "internalType": "uint256",
          "name": "marketFeeBps",
          "type": "uint256"
        }
      ],
      "name": "MarketFeeBps",
      "type": "event"
    },
    {
      "anonymous": false,
      "inputs": [
        {
          "indexed": true,
          "internalType": "bytes32",
          "name": "moduleId",
          "type": "bytes32"
        },
        {
          "indexed": true,
          "internalType": "address",
          "name": "module",
          "type": "address"
        },
        {
          "indexed": true,
          "internalType": "uint256",
          "name": "moduleType",
          "type": "uint256"
        }
      ],
      "name": "ModuleUpdated",
      "type": "event"
    },
    {
      "anonymous": false,
      "inputs": [
        {
          "indexed": true,
          "internalType": "bytes32",
          "name": "role",
          "type": "bytes32"
        },
        {
          "indexed": true,
          "internalType": "bytes32",
          "name": "previousAdminRole",
          "type": "bytes32"
        },
        {
          "indexed": true,
          "internalType": "bytes32",
          "name": "newAdminRole",
          "type": "bytes32"
        }
      ],
      "name": "RoleAdminChanged",
      "type": "event"
    },
    {
      "anonymous": false,
      "inputs": [
        {
          "indexed": true,
          "internalType": "bytes32",
          "name": "role",
          "type": "bytes32"
        },
        {
          "indexed": true,
          "internalType": "address",
          "name": "account",
          "type": "address"
        },
        {
          "indexed": true,
          "internalType": "address",
          "name": "sender",
          "type": "address"
        }
      ],
      "name": "RoleGranted",
      "type": "event"
    },
    {
      "anonymous": false,
      "inputs": [
        {
          "indexed": true,
          "internalType": "bytes32",
          "name": "role",
          "type": "bytes32"
        },
        {
          "indexed": true,
          "internalType": "address",
          "name": "account",
          "type": "address"
        },
        {
          "indexed": true,
          "internalType": "address",
          "name": "sender",
          "type": "address"
        }
      ],
      "name": "RoleRevoked",
      "type": "event"
    },
    {
      "anonymous": false,
      "inputs": [
        {
          "indexed": false,
          "internalType": "bool",
          "name": "isPaused",
          "type": "bool"
        }
      ],
      "name": "SystemPaused",
      "type": "event"
    },
    {
      "inputs": [],
      "name": "DEFAULT_ADMIN_ROLE",
      "outputs": [
        {
          "internalType": "bytes32",
          "name": "",
          "type": "bytes32"
        }
      ],
      "stateMutability": "view",
      "type": "function"
    },
    {
      "inputs": [],
      "name": "MAX_BPS",
      "outputs": [
        {
          "internalType": "uint128",
          "name": "",
          "type": "uint128"
        }
      ],
      "stateMutability": "view",
      "type": "function"
    },
    {
      "inputs": [],
      "name": "NFTLABS",
      "outputs": [
        {
          "internalType": "bytes32",
          "name": "",
          "type": "bytes32"
        }
      ],
      "stateMutability": "view",
      "type": "function"
    },
    {
      "inputs": [],
      "name": "PROTOCOL_ADMIN",
      "outputs": [
        {
          "internalType": "bytes32",
          "name": "",
          "type": "bytes32"
        }
      ],
      "stateMutability": "view",
      "type": "function"
    },
    {
      "inputs": [],
      "name": "_contractURI",
      "outputs": [
        {
          "internalType": "string",
          "name": "",
          "type": "string"
        }
      ],
      "stateMutability": "view",
      "type": "function"
    },
    {
      "inputs": [
        {
          "internalType": "address",
          "name": "_newModuleAddress",
          "type": "address"
        },
        {
          "internalType": "uint8",
          "name": "_moduleType",
          "type": "uint8"
        }
      ],
      "name": "addModule",
      "outputs": [
        {
          "internalType": "bytes32",
          "name": "moduleId",
          "type": "bytes32"
        }
      ],
      "stateMutability": "nonpayable",
      "type": "function"
    },
    {
      "inputs": [],
      "name": "contractURI",
      "outputs": [
        {
          "internalType": "string",
          "name": "",
          "type": "string"
        }
      ],
      "stateMutability": "view",
      "type": "function"
    },
    {
      "inputs": [
        {
          "internalType": "uint256",
          "name": "_moduleType",
          "type": "uint256"
        }
      ],
      "name": "getAllModulesOfType",
      "outputs": [
        {
          "internalType": "address[]",
          "name": "allModules",
          "type": "address[]"
        }
      ],
      "stateMutability": "view",
      "type": "function"
    },
    {
      "inputs": [
        {
          "internalType": "bytes32",
          "name": "role",
          "type": "bytes32"
        }
      ],
      "name": "getRoleAdmin",
      "outputs": [
        {
          "internalType": "bytes32",
          "name": "",
          "type": "bytes32"
        }
      ],
      "stateMutability": "view",
      "type": "function"
    },
    {
      "inputs": [
        {
          "internalType": "bytes32",
          "name": "role",
          "type": "bytes32"
        },
        {
          "internalType": "address",
          "name": "account",
          "type": "address"
        }
      ],
      "name": "grantRole",
      "outputs": [],
      "stateMutability": "nonpayable",
      "type": "function"
    },
    {
      "inputs": [
        {
          "internalType": "bytes32",
          "name": "role",
          "type": "bytes32"
        },
        {
          "internalType": "address",
          "name": "account",
          "type": "address"
        }
      ],
      "name": "hasRole",
      "outputs": [
        {
          "internalType": "bool",
          "name": "",
          "type": "bool"
        }
      ],
      "stateMutability": "view",
      "type": "function"
    },
    {
      "inputs": [],
      "name": "marketFeeBps",
      "outputs": [
        {
          "internalType": "uint128",
          "name": "",
          "type": "uint128"
        }
      ],
      "stateMutability": "view",
      "type": "function"
    },
    {
      "inputs": [
        {
          "internalType": "bytes32",
          "name": "",
          "type": "bytes32"
        }
      ],
      "name": "moduleType",
      "outputs": [
        {
          "internalType": "enum ProtocolControl.ModuleType",
          "name": "",
          "type": "uint8"
        }
      ],
      "stateMutability": "view",
      "type": "function"
    },
    {
      "inputs": [
        {
          "internalType": "bytes32",
          "name": "",
          "type": "bytes32"
        }
      ],
      "name": "modules",
      "outputs": [
        {
          "internalType": "address",
          "name": "",
          "type": "address"
        }
      ],
      "stateMutability": "view",
      "type": "function"
    },
    {
      "inputs": [],
      "name": "nftlabsTreasury",
      "outputs": [
        {
          "internalType": "address",
          "name": "",
          "type": "address"
        }
      ],
      "stateMutability": "view",
      "type": "function"
    },
    {
      "inputs": [
        {
          "internalType": "uint256",
          "name": "",
          "type": "uint256"
        }
      ],
      "name": "numOfModuleType",
      "outputs": [
        {
          "internalType": "uint256",
          "name": "",
          "type": "uint256"
        }
      ],
      "stateMutability": "view",
      "type": "function"
    },
    {
      "inputs": [
        {
          "internalType": "bool",
          "name": "_toPause",
          "type": "bool"
        }
      ],
      "name": "pausePackProtocol",
      "outputs": [],
      "stateMutability": "nonpayable",
      "type": "function"
    },
    {
      "inputs": [
        {
          "internalType": "bytes32",
          "name": "role",
          "type": "bytes32"
        },
        {
          "internalType": "address",
          "name": "account",
          "type": "address"
        }
      ],
      "name": "renounceRole",
      "outputs": [],
      "stateMutability": "nonpayable",
      "type": "function"
    },
    {
      "inputs": [
        {
          "internalType": "bytes32",
          "name": "role",
          "type": "bytes32"
        },
        {
          "internalType": "address",
          "name": "account",
          "type": "address"
        }
      ],
      "name": "revokeRole",
      "outputs": [],
      "stateMutability": "nonpayable",
      "type": "function"
    },
    {
      "inputs": [
        {
          "internalType": "string",
          "name": "_URI",
          "type": "string"
        }
      ],
      "name": "setContractURI",
      "outputs": [],
      "stateMutability": "nonpayable",
      "type": "function"
    },
    {
      "inputs": [
        {
          "internalType": "bytes4",
          "name": "interfaceId",
          "type": "bytes4"
        }
      ],
      "name": "supportsInterface",
      "outputs": [
        {
          "internalType": "bool",
          "name": "",
          "type": "bool"
        }
      ],
      "stateMutability": "view",
      "type": "function"
    },
    {
      "inputs": [],
      "name": "systemPaused",
      "outputs": [
        {
          "internalType": "bool",
          "name": "",
          "type": "bool"
        }
      ],
      "stateMutability": "view",
      "type": "function"
    },
    {
      "inputs": [
        {
          "internalType": "address",
          "name": "_asset",
          "type": "address"
        },
        {
          "internalType": "address",
          "name": "_to",
          "type": "address"
        },
        {
          "internalType": "uint256",
          "name": "_amount",
          "type": "uint256"
        }
      ],
      "name": "transferProtocolFunds",
      "outputs": [],
      "stateMutability": "nonpayable",
      "type": "function"
    },
    {
      "inputs": [
        {
          "internalType": "uint128",
          "name": "_newFeeBps",
          "type": "uint128"
        }
      ],
      "name": "updateMarketFeeBps",
      "outputs": [],
      "stateMutability": "nonpayable",
      "type": "function"
    },
    {
      "inputs": [
        {
          "internalType": "bytes32",
          "name": "_moduleId",
          "type": "bytes32"
        },
        {
          "internalType": "address",
          "name": "_newModuleAddress",
          "type": "address"
        }
      ],
      "name": "updateModule",
      "outputs": [],
      "stateMutability": "nonpayable",
      "type": "function"
    },
    {
      "inputs": [
        {
          "internalType": "address",
          "name": "_newTreasury",
          "type": "address"
        }
      ],
      "name": "updateNftlabsTreasury",
      "outputs": [],
      "stateMutability": "nonpayable",
      "type": "function"
    }
  ],
  "bytecode": "0x60806040523480156200001157600080fd5b5060405162001ac538038062001ac5833981016040819052620000349162000214565b60018054610100600160a81b0319166101006001600160a01b038416021790556200006f60008051602062001a8583398151915282620000c8565b6200008a60008051602062001aa583398151915283620000c8565b620000a560008051602062001aa583398151915280620000d8565b620000c060008051602062001a8583398151915280620000d8565b50506200024b565b620000d482826200012d565b5050565b6000620000e583620001b7565b600084815260208190526040808220600101859055519192508391839186917fbd79b86ffe0ab8e8776151514217cd7cacd52c909f66475c3af44e129f0b00ff9190a4505050565b620001398282620001cf565b620000d4576000828152602081815260408083206001600160a01b03851684529091529020805460ff1916600117905562000173620001f8565b6001600160a01b0316816001600160a01b0316837f2f8788117e7eff1d82e926ec794901d17c78024a50270940304540a733656f0d60405160405180910390a45050565b6000818152602081905260409020600101545b919050565b6000918252602082815260408084206001600160a01b0393909316845291905290205460ff1690565b3390565b80516001600160a01b0381168114620001ca57600080fd5b6000806040838503121562000227578182fd5b6200023283620001fc565b91506200024260208401620001fc565b90509250929050565b61182a806200025b6000396000f3fe608060405234801561001057600080fd5b50600436106101ae5760003560e01c80639494995b116100ee578063c097b1fb11610097578063d8f38eec11610071578063d8f38eec14610379578063e0a1d38414610381578063e8a3d48514610394578063fd967f471461039c576101ae565b8063c097b1fb1461033e578063c0e7274014610351578063d547741f14610366576101ae565b8063a8a10442116100c8578063a8a10442146102f8578063aca841751461030b578063b0b6cc1a1461032b576101ae565b80639494995b146102d35780639d2f83f0146102e8578063a217fddf146102f0576101ae565b80633af627551161015b57806340f182c51161013557806340f182c51461029257806391d14854146102a5578063938e3d7b146102b857806394658d7e146102cb576101ae565b80633af62755146102575780633f5c3e871461026a5780633fff7bf81461027f576101ae565b806328aa9b401161018c57806328aa9b40146102115780632f2ff15d1461023157806336568abe14610244576101ae565b806301ffc9a7146101b3578063248a9ca3146101dc57806326de4d6b146101fc575b600080fd5b6101c66101c1366004611229565b6103a4565b6040516101d3919061144e565b60405180910390f35b6101ef6101ea3660046111e6565b6103d1565b6040516101d39190611459565b61020f61020a36600461111e565b6103e6565b005b61022461021f3660046111e6565b610474565b6040516101d39190611462565b61020f61023f3660046111fe565b610489565b61020f6102523660046111fe565b6104b2565b61020f6102653660046111ae565b6104f8565b610272610587565b6040516101d39190611720565b6101ef61028d3660046111e6565b61059f565b6101ef6102a0366004611173565b6105b1565b6101c66102b33660046111fe565b6106f5565b61020f6102c6366004611251565b61071e565b6101ef610770565b6102db610794565b6040516101d391906113b0565b6101c66107a8565b6101ef6107b1565b61020f610306366004611138565b6107b6565b61031e6103193660046111e6565b6108d8565b6040516101d39190611401565b6102db6103393660046111e6565b6109e3565b61020f61034c3660046111fe565b6109fe565b610359610adf565b6040516101d3919061148a565b61020f6103743660046111fe565b610b6d565b6101ef610b8c565b61020f61038f3660046112be565b610bb0565b610359610c87565b610272610d19565b60006001600160e01b03198216637965db0b60e01b14806103c957506103c982610d1f565b90505b919050565b60009081526020819052604090206001015490565b6104107f1884995e9e21b948f653f9596094b17f12f1b114ed4ca397c21461be57c16fe8336106f5565b6104355760405162461bcd60e51b815260040161042c9061154f565b60405180910390fd5b600180546001600160a01b03909216610100027fffffffffffffffffffffff0000000000000000000000000000000000000000ff909216919091179055565b60036020526000908152604090205460ff1681565b610492826103d1565b6104a38161049e610d38565b610d3c565b6104ad8383610da0565b505050565b6104ba610d38565b6001600160a01b0316816001600160a01b0316146104ea5760405162461bcd60e51b815260040161042c906116c3565b6104f48282610e25565b5050565b6105227f0245b6cbab6b03e029f6c88bff9595f9f5c30170f52598c3459ee71476ad59c1336106f5565b61053e5760405162461bcd60e51b815260040161042c906114f2565b6001805460ff19168215151790556040517f59617e84cd4a4d47c34c76f190da73d3a6a0236e0770dcba41851db53f336f579061057c90839061144e565b60405180910390a150565b6005546fffffffffffffffffffffffffffffffff1681565b60046020526000908152604090205481565b60006105dd7f0245b6cbab6b03e029f6c88bff9595f9f5c30170f52598c3459ee71476ad59c1336106f5565b6105f95760405162461bcd60e51b815260040161042c906114f2565b600460ff8316111561061d5760405162461bcd60e51b815260040161042c906115ac565b600460008360ff168152602001908152602001600020548260405160200161064692919061137d565b6040516020818303038152906040528051906020012090506001600460008460ff1681526020019081526020016000206000828254610685919061173d565b9091555050600081815260026020526040808220805473ffffffffffffffffffffffffffffffffffffffff19166001600160a01b038716908117909155905160ff85169284917f1d3dc09176e587732ef26b4edb7961028f2e33cce7ad22d62f07e6a5e26d8e649190a492915050565b6000918252602082815260408084206001600160a01b0393909316845291905290205460ff1690565b6107487f0245b6cbab6b03e029f6c88bff9595f9f5c30170f52598c3459ee71476ad59c1336106f5565b6107645760405162461bcd60e51b815260040161042c906114f2565b6104ad6006838361106e565b7f0245b6cbab6b03e029f6c88bff9595f9f5c30170f52598c3459ee71476ad59c181565b60015461010090046001600160a01b031681565b60015460ff1681565b600081565b6107e07f0245b6cbab6b03e029f6c88bff9595f9f5c30170f52598c3459ee71476ad59c1336106f5565b6107fc5760405162461bcd60e51b815260040161042c906114f2565b60405163a9059cbb60e01b81526001600160a01b0384169063a9059cbb9061082a90859085906004016113e8565b602060405180830381600087803b15801561084457600080fd5b505af1158015610858573d6000803e3d6000fd5b505050506040513d601f19601f8201168201806040525081019061087c91906111ca565b6108985760405162461bcd60e51b815260040161042c90611666565b7f78e6250172d8e0a57d8d41f480f13581571a2d27bb2a93f5f7bd2511f5c22a6c8383836040516108cb939291906113c4565b60405180910390a1505050565b6000818152600460205260409020546060908067ffffffffffffffff81111561091157634e487b7160e01b600052604160045260246000fd5b60405190808252806020026020018201604052801561093a578160200160208202803683370190505b50915060005b818110156109dc576000818560405160200161095d92919061136f565b60408051601f1981840301815291815281516020928301206000818152600290935291205485519192506001600160a01b0316908590849081106109b157634e487b7160e01b600052603260045260246000fd5b6001600160a01b0390921660209283029190910190910152506109d560018261173d565b9050610940565b5050919050565b6002602052600090815260409020546001600160a01b031681565b610a287f0245b6cbab6b03e029f6c88bff9595f9f5c30170f52598c3459ee71476ad59c1336106f5565b610a445760405162461bcd60e51b815260040161042c906114f2565b6000828152600260209081526040808320805473ffffffffffffffffffffffffffffffffffffffff19166001600160a01b038616179055600390915290205460ff166004811115610aa557634e487b7160e01b600052602160045260246000fd5b6040516001600160a01b0383169084907f1d3dc09176e587732ef26b4edb7961028f2e33cce7ad22d62f07e6a5e26d8e6490600090a45050565b60068054610aec906117bb565b80601f0160208091040260200160405190810160405280929190818152602001828054610b18906117bb565b8015610b655780601f10610b3a57610100808354040283529160200191610b65565b820191906000526020600020905b815481529060010190602001808311610b4857829003601f168201915b505050505081565b610b76826103d1565b610b828161049e610d38565b6104ad8383610e25565b7f1884995e9e21b948f653f9596094b17f12f1b114ed4ca397c21461be57c16fe881565b610bda7f1884995e9e21b948f653f9596094b17f12f1b114ed4ca397c21461be57c16fe8336106f5565b610bf65760405162461bcd60e51b815260040161042c9061154f565b61012c816fffffffffffffffffffffffffffffffff161115610c2a5760405162461bcd60e51b815260040161042c90611609565b600580546fffffffffffffffffffffffffffffffff19166fffffffffffffffffffffffffffffffff83161790556040517f1890faa36c0d3210e563b3b71281f08fdb6016a537f6664317d853bd2af520329061057c908390611720565b606060068054610c96906117bb565b80601f0160208091040260200160405190810160405280929190818152602001828054610cc2906117bb565b8015610d0f5780601f10610ce457610100808354040283529160200191610d0f565b820191906000526020600020905b815481529060010190602001808311610cf257829003601f168201915b5050505050905090565b61271081565b6001600160e01b031981166301ffc9a760e01b14919050565b3390565b610d4682826106f5565b6104f457610d5e816001600160a01b03166014610ea8565b610d69836020610ea8565b604051602001610d7a9291906112ee565b60408051601f198184030181529082905262461bcd60e51b825261042c9160040161148a565b610daa82826106f5565b6104f4576000828152602081815260408083206001600160a01b03851684529091529020805460ff19166001179055610de1610d38565b6001600160a01b0316816001600160a01b0316837f2f8788117e7eff1d82e926ec794901d17c78024a50270940304540a733656f0d60405160405180910390a45050565b610e2f82826106f5565b156104f4576000828152602081815260408083206001600160a01b03851684529091529020805460ff19169055610e64610d38565b6001600160a01b0316816001600160a01b0316837ff6391f5c32d9c69d2a47ea670b442974b53935d1edc7fd64eb21e047a839171b60405160405180910390a45050565b60606000610eb7836002611755565b610ec290600261173d565b67ffffffffffffffff811115610ee857634e487b7160e01b600052604160045260246000fd5b6040519080825280601f01601f191660200182016040528015610f12576020820181803683370190505b509050600360fc1b81600081518110610f3b57634e487b7160e01b600052603260045260246000fd5b60200101906001600160f81b031916908160001a905350600f60fb1b81600181518110610f7857634e487b7160e01b600052603260045260246000fd5b60200101906001600160f81b031916908160001a9053506000610f9c846002611755565b610fa790600161173d565b90505b6001811115611048577f303132333435363738396162636465660000000000000000000000000000000085600f1660108110610ff657634e487b7160e01b600052603260045260246000fd5b1a60f81b82828151811061101a57634e487b7160e01b600052603260045260246000fd5b60200101906001600160f81b031916908160001a90535060049490941c93611041816117a4565b9050610faa565b5083156110675760405162461bcd60e51b815260040161042c906114bd565b9392505050565b82805461107a906117bb565b90600052602060002090601f01602090048101928261109c57600085556110e2565b82601f106110b55782800160ff198235161785556110e2565b828001600101855582156110e2579182015b828111156110e25782358255916020019190600101906110c7565b506110ee9291506110f2565b5090565b5b808211156110ee57600081556001016110f3565b80356001600160a01b03811681146103cc57600080fd5b60006020828403121561112f578081fd5b61106782611107565b60008060006060848603121561114c578182fd5b61115584611107565b925061116360208501611107565b9150604084013590509250925092565b60008060408385031215611185578182fd5b61118e83611107565b9150602083013560ff811681146111a3578182fd5b809150509250929050565b6000602082840312156111bf578081fd5b81356110678161180c565b6000602082840312156111db578081fd5b81516110678161180c565b6000602082840312156111f7578081fd5b5035919050565b60008060408385031215611210578182fd5b8235915061122060208401611107565b90509250929050565b60006020828403121561123a578081fd5b81356001600160e01b031981168114611067578182fd5b60008060208385031215611263578182fd5b823567ffffffffffffffff8082111561127a578384fd5b818501915085601f83011261128d578384fd5b81358181111561129b578485fd5b8660208285010111156112ac578485fd5b60209290920196919550909350505050565b6000602082840312156112cf578081fd5b81356fffffffffffffffffffffffffffffffff81168114611067578182fd5b60007f416363657373436f6e74726f6c3a206163636f756e742000000000000000000082528351611326816017850160208801611774565b7f206973206d697373696e6720726f6c65200000000000000000000000000000006017918401918201528351611363816028840160208801611774565b01602801949350505050565b918252602082015260400190565b91825260f81b7fff0000000000000000000000000000000000000000000000000000000000000016602082015260210190565b6001600160a01b0391909116815260200190565b6001600160a01b039384168152919092166020820152604081019190915260600190565b6001600160a01b03929092168252602082015260400190565b6020808252825182820181905260009190848201906040850190845b818110156114425783516001600160a01b03168352928401929184019160010161141d565b50909695505050505050565b901515815260200190565b90815260200190565b602081016005831061148457634e487b7160e01b600052602160045260246000fd5b91905290565b60006020825282518060208401526114a9816040850160208701611774565b601f01601f19169190910160400192915050565b6020808252818101527f537472696e67733a20686578206c656e67746820696e73756666696369656e74604082015260600190565b60208082526036908201527f50726f746f636f6c3a204f6e6c792070726f746f636f6c2061646d696e73206360408201527f616e2063616c6c20746869732066756e6374696f6e2e00000000000000000000606082015260800190565b60208082526035908201527f50726f746f636f6c3a204f6e6c79204e46544c6162732061646d696e7320636160408201527f6e2063616c6c20746869732066756e6374696f6e2e0000000000000000000000606082015260800190565b6020808252602e908201527f50726f746f636f6c436f6e74726f6c3a20696e76616c6964206d6f64756c652060408201527f747970652070726f76696465642e000000000000000000000000000000000000606082015260800190565b6020808252602e908201527f50726f746f636f6c436f6e74726f6c3a206665652063616e6e6f74206265206760408201527f726561746572207468616e203325000000000000000000000000000000000000606082015260800190565b60208082526034908201527f50726f746f636f6c20436f6e74726f6c3a206661696c656420746f207472616e60408201527f736665722070726f746f636f6c2066756e64732e000000000000000000000000606082015260800190565b6020808252602f908201527f416363657373436f6e74726f6c3a2063616e206f6e6c792072656e6f756e636560408201527f20726f6c657320666f722073656c660000000000000000000000000000000000606082015260800190565b6fffffffffffffffffffffffffffffffff91909116815260200190565b60008219821115611750576117506117f6565b500190565b600081600019048311821515161561176f5761176f6117f6565b500290565b60005b8381101561178f578181015183820152602001611777565b8381111561179e576000848401525b50505050565b6000816117b3576117b36117f6565b506000190190565b6002810460018216806117cf57607f821691505b602082108114156117f057634e487b7160e01b600052602260045260246000fd5b50919050565b634e487b7160e01b600052601160045260246000fd5b801515811461181a57600080fd5b5056fea164736f6c6343000800000a1884995e9e21b948f653f9596094b17f12f1b114ed4ca397c21461be57c16fe80245b6cbab6b03e029f6c88bff9595f9f5c30170f52598c3459ee71476ad59c1",
  "linkReferences": {},
  "deployedLinkReferences": {}
}