{
  "_format": "hh-sol-artifact-1",
  "contractName": "ProtocolControl",
  "sourceName": "contracts/ProtocolControl.sol",
  "abi": [
    {
      "inputs": [
        {
          "internalType": "address",
          "name": "_admin",
          "type": "address"
        },
        {
          "internalType": "address",
          "name": "_provider",
          "type": "address"
        },
        {
          "internalType": "string",
          "name": "_uri",
          "type": "string"
        }
      ],
      "stateMutability": "nonpayable",
      "type": "constructor"
    },
    {
      "anonymous": false,
      "inputs": [
        {
          "indexed": false,
          "internalType": "address",
          "name": "asset",
          "type": "address"
        },
        {
          "indexed": false,
          "internalType": "address",
          "name": "to",
          "type": "address"
        },
        {
          "indexed": false,
          "internalType": "uint256",
          "name": "amount",
          "type": "uint256"
        }
      ],
      "name": "FundsTransferred",
      "type": "event"
    },
    {
      "anonymous": false,
      "inputs": [
        {
          "indexed": true,
          "internalType": "bytes32",
          "name": "moduleId",
          "type": "bytes32"
        },
        {
          "indexed": true,
          "internalType": "address",
          "name": "module",
          "type": "address"
        },
        {
          "indexed": true,
          "internalType": "uint256",
          "name": "moduleType",
          "type": "uint256"
        }
      ],
      "name": "ModuleUpdated",
      "type": "event"
    },
    {
      "anonymous": false,
      "inputs": [
        {
          "indexed": false,
          "internalType": "address",
          "name": "_providerTreasury",
          "type": "address"
        }
      ],
      "name": "OwnerTreasuryUpdated",
      "type": "event"
    },
    {
      "anonymous": false,
      "inputs": [
        {
          "indexed": false,
          "internalType": "uint256",
          "name": "providerFeeBps",
          "type": "uint256"
        }
      ],
      "name": "ProviderFeeBpsUpdated",
      "type": "event"
    },
    {
      "anonymous": false,
      "inputs": [
        {
          "indexed": false,
          "internalType": "address",
          "name": "_providerTreasury",
          "type": "address"
        }
      ],
      "name": "ProviderTreasuryUpdated",
      "type": "event"
    },
    {
      "anonymous": false,
      "inputs": [
        {
          "indexed": true,
          "internalType": "bytes32",
          "name": "role",
          "type": "bytes32"
        },
        {
          "indexed": true,
          "internalType": "bytes32",
          "name": "previousAdminRole",
          "type": "bytes32"
        },
        {
          "indexed": true,
          "internalType": "bytes32",
          "name": "newAdminRole",
          "type": "bytes32"
        }
      ],
      "name": "RoleAdminChanged",
      "type": "event"
    },
    {
      "anonymous": false,
      "inputs": [
        {
          "indexed": true,
          "internalType": "bytes32",
          "name": "role",
          "type": "bytes32"
        },
        {
          "indexed": true,
          "internalType": "address",
          "name": "account",
          "type": "address"
        },
        {
          "indexed": true,
          "internalType": "address",
          "name": "sender",
          "type": "address"
        }
      ],
      "name": "RoleGranted",
      "type": "event"
    },
    {
      "anonymous": false,
      "inputs": [
        {
          "indexed": true,
          "internalType": "bytes32",
          "name": "role",
          "type": "bytes32"
        },
        {
          "indexed": true,
          "internalType": "address",
          "name": "account",
          "type": "address"
        },
        {
          "indexed": true,
          "internalType": "address",
          "name": "sender",
          "type": "address"
        }
      ],
      "name": "RoleRevoked",
      "type": "event"
    },
    {
      "anonymous": false,
      "inputs": [
        {
          "indexed": false,
          "internalType": "bool",
          "name": "isPaused",
          "type": "bool"
        }
      ],
      "name": "SystemPaused",
      "type": "event"
    },
    {
      "anonymous": false,
      "inputs": [
        {
          "indexed": false,
          "internalType": "bytes32",
          "name": "moduleId",
          "type": "bytes32"
        },
        {
          "indexed": false,
          "internalType": "address",
          "name": "moduleAddress",
          "type": "address"
        },
        {
          "indexed": false,
          "internalType": "bool",
          "name": "restriction",
          "type": "bool"
        }
      ],
      "name": "TransferRestricted",
      "type": "event"
    },
    {
      "inputs": [],
      "name": "DEFAULT_ADMIN_ROLE",
      "outputs": [
        {
          "internalType": "bytes32",
          "name": "",
          "type": "bytes32"
        }
      ],
      "stateMutability": "view",
      "type": "function"
    },
    {
      "inputs": [],
      "name": "MAX_BPS",
      "outputs": [
        {
          "internalType": "uint128",
          "name": "",
          "type": "uint128"
        }
      ],
      "stateMutability": "view",
      "type": "function"
    },
    {
      "inputs": [],
      "name": "MAX_PROVIDER_FEE_BPS",
      "outputs": [
        {
          "internalType": "uint128",
          "name": "",
          "type": "uint128"
        }
      ],
      "stateMutability": "view",
      "type": "function"
    },
    {
      "inputs": [],
      "name": "PROTOCOL_ADMIN",
      "outputs": [
        {
          "internalType": "bytes32",
          "name": "",
          "type": "bytes32"
        }
      ],
      "stateMutability": "view",
      "type": "function"
    },
    {
      "inputs": [],
      "name": "PROTOCOL_PROVIDER",
      "outputs": [
        {
          "internalType": "bytes32",
          "name": "",
          "type": "bytes32"
        }
      ],
      "stateMutability": "view",
      "type": "function"
    },
    {
      "inputs": [],
      "name": "TRANSFER_ROLE",
      "outputs": [
        {
          "internalType": "bytes32",
          "name": "",
          "type": "bytes32"
        }
      ],
      "stateMutability": "view",
      "type": "function"
    },
    {
      "inputs": [],
      "name": "_contractURI",
      "outputs": [
        {
          "internalType": "string",
          "name": "",
          "type": "string"
        }
      ],
      "stateMutability": "view",
      "type": "function"
    },
    {
      "inputs": [
        {
          "internalType": "address",
          "name": "_newModuleAddress",
          "type": "address"
        },
        {
          "internalType": "uint8",
          "name": "_moduleType",
          "type": "uint8"
        }
      ],
      "name": "addModule",
      "outputs": [
        {
          "internalType": "bytes32",
          "name": "moduleId",
          "type": "bytes32"
        }
      ],
      "stateMutability": "nonpayable",
      "type": "function"
    },
    {
      "inputs": [],
      "name": "contractURI",
      "outputs": [
        {
          "internalType": "string",
          "name": "",
          "type": "string"
        }
      ],
      "stateMutability": "view",
      "type": "function"
    },
    {
      "inputs": [
        {
          "internalType": "uint256",
          "name": "_moduleType",
          "type": "uint256"
        }
      ],
      "name": "getAllModulesOfType",
      "outputs": [
        {
          "internalType": "address[]",
          "name": "allModules",
          "type": "address[]"
        }
      ],
      "stateMutability": "view",
      "type": "function"
    },
    {
      "inputs": [
        {
          "internalType": "bytes32",
          "name": "role",
          "type": "bytes32"
        }
      ],
      "name": "getRoleAdmin",
      "outputs": [
        {
          "internalType": "bytes32",
          "name": "",
          "type": "bytes32"
        }
      ],
      "stateMutability": "view",
      "type": "function"
    },
    {
      "inputs": [
        {
          "internalType": "bytes32",
          "name": "role",
          "type": "bytes32"
        },
        {
          "internalType": "address",
          "name": "account",
          "type": "address"
        }
      ],
      "name": "grantRole",
      "outputs": [],
      "stateMutability": "nonpayable",
      "type": "function"
    },
    {
      "inputs": [
        {
          "internalType": "bytes32",
          "name": "role",
          "type": "bytes32"
        },
        {
          "internalType": "address",
          "name": "account",
          "type": "address"
        }
      ],
      "name": "hasRole",
      "outputs": [
        {
          "internalType": "bool",
          "name": "",
          "type": "bool"
        }
      ],
      "stateMutability": "view",
      "type": "function"
    },
    {
      "inputs": [
        {
          "internalType": "address",
          "name": "_moduleAddress",
          "type": "address"
        }
      ],
      "name": "isRestrictedTransfers",
      "outputs": [
        {
          "internalType": "bool",
          "name": "",
          "type": "bool"
        }
      ],
      "stateMutability": "view",
      "type": "function"
    },
    {
      "inputs": [
        {
          "internalType": "address",
          "name": "",
          "type": "address"
        }
      ],
      "name": "moduleIds",
      "outputs": [
        {
          "internalType": "bytes32",
          "name": "",
          "type": "bytes32"
        }
      ],
      "stateMutability": "view",
      "type": "function"
    },
    {
      "inputs": [
        {
          "internalType": "bytes32",
          "name": "",
          "type": "bytes32"
        }
      ],
      "name": "moduleType",
      "outputs": [
        {
          "internalType": "enum ProtocolControl.ModuleType",
          "name": "",
          "type": "uint8"
        }
      ],
      "stateMutability": "view",
      "type": "function"
    },
    {
      "inputs": [
        {
          "internalType": "bytes32",
          "name": "",
          "type": "bytes32"
        }
      ],
      "name": "modules",
      "outputs": [
        {
          "internalType": "address",
          "name": "",
          "type": "address"
        }
      ],
      "stateMutability": "view",
      "type": "function"
    },
    {
      "inputs": [
        {
          "internalType": "uint256",
          "name": "",
          "type": "uint256"
        }
      ],
      "name": "numOfModuleType",
      "outputs": [
        {
          "internalType": "uint256",
          "name": "",
          "type": "uint256"
        }
      ],
      "stateMutability": "view",
      "type": "function"
    },
    {
      "inputs": [],
      "name": "ownerTreasury",
      "outputs": [
        {
          "internalType": "address",
          "name": "",
          "type": "address"
        }
      ],
      "stateMutability": "view",
      "type": "function"
    },
    {
      "inputs": [
        {
          "internalType": "bool",
          "name": "_toPause",
          "type": "bool"
        }
      ],
      "name": "pauseProtocol",
      "outputs": [],
      "stateMutability": "nonpayable",
      "type": "function"
    },
    {
      "inputs": [],
      "name": "providerFeeBps",
      "outputs": [
        {
          "internalType": "uint128",
          "name": "",
          "type": "uint128"
        }
      ],
      "stateMutability": "view",
      "type": "function"
    },
    {
      "inputs": [],
      "name": "providerTreasury",
      "outputs": [
        {
          "internalType": "address",
          "name": "",
          "type": "address"
        }
      ],
      "stateMutability": "view",
      "type": "function"
    },
    {
      "inputs": [
        {
          "internalType": "bytes32",
          "name": "role",
          "type": "bytes32"
        },
        {
          "internalType": "address",
          "name": "account",
          "type": "address"
        }
      ],
      "name": "renounceRole",
      "outputs": [],
      "stateMutability": "nonpayable",
      "type": "function"
    },
    {
      "inputs": [
        {
          "internalType": "bytes32",
          "name": "_moduleId",
          "type": "bytes32"
        },
        {
          "internalType": "bool",
          "name": "_restriction",
          "type": "bool"
        }
      ],
      "name": "restrictTransfers",
      "outputs": [],
      "stateMutability": "nonpayable",
      "type": "function"
    },
    {
      "inputs": [
        {
          "internalType": "bytes32",
          "name": "role",
          "type": "bytes32"
        },
        {
          "internalType": "address",
          "name": "account",
          "type": "address"
        }
      ],
      "name": "revokeRole",
      "outputs": [],
      "stateMutability": "nonpayable",
      "type": "function"
    },
    {
      "inputs": [
        {
          "internalType": "string",
          "name": "_URI",
          "type": "string"
        }
      ],
      "name": "setContractURI",
      "outputs": [],
      "stateMutability": "nonpayable",
      "type": "function"
    },
    {
      "inputs": [
        {
          "internalType": "bytes4",
          "name": "interfaceId",
          "type": "bytes4"
        }
      ],
      "name": "supportsInterface",
      "outputs": [
        {
          "internalType": "bool",
          "name": "",
          "type": "bool"
        }
      ],
      "stateMutability": "view",
      "type": "function"
    },
    {
      "inputs": [],
      "name": "systemPaused",
      "outputs": [
        {
          "internalType": "bool",
          "name": "",
          "type": "bool"
        }
      ],
      "stateMutability": "view",
      "type": "function"
    },
    {
      "inputs": [
        {
          "internalType": "address",
          "name": "_asset",
          "type": "address"
        },
        {
          "internalType": "address",
          "name": "_to",
          "type": "address"
        },
        {
          "internalType": "uint256",
          "name": "_amount",
          "type": "uint256"
        }
      ],
      "name": "transferProtocolFunds",
      "outputs": [],
      "stateMutability": "nonpayable",
      "type": "function"
    },
    {
      "inputs": [
        {
          "internalType": "bytes32",
          "name": "",
          "type": "bytes32"
        }
      ],
      "name": "transfersRestricted",
      "outputs": [
        {
          "internalType": "bool",
          "name": "",
          "type": "bool"
        }
      ],
      "stateMutability": "view",
      "type": "function"
    },
    {
      "inputs": [
        {
          "internalType": "bytes32",
          "name": "_moduleId",
          "type": "bytes32"
        },
        {
          "internalType": "address",
          "name": "_newModuleAddress",
          "type": "address"
        }
      ],
      "name": "updateModule",
      "outputs": [],
      "stateMutability": "nonpayable",
      "type": "function"
    },
    {
      "inputs": [
        {
          "internalType": "address",
          "name": "_newTreasury",
          "type": "address"
        }
      ],
      "name": "updateOwnerTreasury",
      "outputs": [],
      "stateMutability": "nonpayable",
      "type": "function"
    },
    {
      "inputs": [
        {
          "internalType": "uint128",
          "name": "_newFeeBps",
          "type": "uint128"
        }
      ],
      "name": "updateProviderFeeBps",
      "outputs": [],
      "stateMutability": "nonpayable",
      "type": "function"
    },
    {
      "inputs": [
        {
          "internalType": "address",
          "name": "_newTreasury",
          "type": "address"
        }
      ],
      "name": "updateProviderTreasury",
      "outputs": [],
      "stateMutability": "nonpayable",
      "type": "function"
    },
    {
      "stateMutability": "payable",
      "type": "receive"
    }
  ],
  "bytecode": "0x6080604052600880546001600160801b0319166103e81790553480156200002557600080fd5b506040516200234d3803806200234d8339810160408190526200004891620003dc565b80516200005d9060099060208401906200031e565b5060018054610100600160a81b0319166101006001600160a01b038581169190910291909117909155600280546001600160a01b031916918516919091179055620000b86000805160206200232d83398151915284620001ea565b620000e47f8502233096d909befbda0999bb8ea2f3a6be3c138b9fbf003752a4c8bce86f6c84620001ea565b620000ff6000805160206200230d83398151915283620001ea565b6200011a6000805160206200232d83398151915280620001fa565b620001557f8502233096d909befbda0999bb8ea2f3a6be3c138b9fbf003752a4c8bce86f6c6000805160206200232d833981519152620001fa565b620001706000805160206200230d83398151915280620001fa565b7fb825ab4f81e4900f8508fcfa9b52c04f19a7bcf5ecc6b19d902fcde1fda9c21483604051620001a19190620004d3565b60405180910390a17e2db23efd8339ec0c6d1e7fe86528420c0a007b4f33268e7b90f75b3a17b77882604051620001d99190620004d3565b60405180910390a15050506200053a565b620001f682826200024f565b5050565b60006200020783620002d9565b600084815260208190526040808220600101859055519192508391839186917fbd79b86ffe0ab8e8776151514217cd7cacd52c909f66475c3af44e129f0b00ff9190a4505050565b6200025b8282620002f1565b620001f6576000828152602081815260408083206001600160a01b03851684529091529020805460ff19166001179055620002956200031a565b6001600160a01b0316816001600160a01b0316837f2f8788117e7eff1d82e926ec794901d17c78024a50270940304540a733656f0d60405160405180910390a45050565b6000818152602081905260409020600101545b919050565b6000918252602082815260408084206001600160a01b0393909316845291905290205460ff1690565b3390565b8280546200032c90620004e7565b90600052602060002090601f0160209004810192826200035057600085556200039b565b82601f106200036b57805160ff19168380011785556200039b565b828001600101855582156200039b579182015b828111156200039b5782518255916020019190600101906200037e565b50620003a9929150620003ad565b5090565b5b80821115620003a95760008155600101620003ae565b80516001600160a01b0381168114620002ec57600080fd5b600080600060608486031215620003f1578283fd5b620003fc84620003c4565b925060206200040d818601620003c4565b60408601519093506001600160401b03808211156200042a578384fd5b818701915087601f8301126200043e578384fd5b81518181111562000453576200045362000524565b604051601f8201601f191681018501838111828210171562000479576200047962000524565b60405281815283820185018a101562000490578586fd5b8592505b81831015620004b3578383018501518184018601529184019162000494565b81831115620004c457858583830101525b80955050505050509250925092565b6001600160a01b0391909116815260200190565b600281046001821680620004fc57607f821691505b602082108114156200051e57634e487b7160e01b600052602260045260246000fd5b50919050565b634e487b7160e01b600052604160045260246000fd5b611dc3806200054a6000396000f3fe60806040526004361061021d5760003560e01c806394658d7e1161011d578063be3e631c116100b0578063dfc61c421161007f578063ef2933ec11610064578063ef2933ec146105f6578063f7032e6514610616578063fd967f471461063657610224565b8063dfc61c42146105c1578063e8a3d485146105e157610224565b8063be3e631c1461053f578063c097b1fb1461055f578063c0e727401461057f578063d547741f146105a157610224565b8063a217fddf116100ec578063a217fddf146104bd578063a8a10442146104d2578063aca84175146104f2578063b0b6cc1a1461051f57610224565b806394658d7e1461046957806398990a0e1461047e57806399c04d3b146104935780639d2f83f0146104a857610224565b806340f182c5116101b05780636e05e41d1161017f5780638a131d5d116101645780638a131d5d1461040957806391d1485414610429578063938e3d7b1461044957610224565b80636e05e41d146103c95780637cdca11c146103e957610224565b806340f182c51461035257806342d8f11a1461037257806357a91814146103925780635cd42315146103a757610224565b806328aa9b40116101ec57806328aa9b40146102c35780632f2ff15d146102f057806336568abe146103125780633fff7bf81461033257610224565b806301ffc9a7146102295780630f603ed31461025f578063206b60f914610281578063248a9ca3146102a357610224565b3661022457005b600080fd5b34801561023557600080fd5b506102496102443660046117d1565b61064b565b60405161025691906119c6565b60405180910390f35b34801561026b57600080fd5b50610274610678565b6040516102569190611928565b34801561028d57600080fd5b50610296610687565b60405161025691906119d1565b3480156102af57600080fd5b506102966102be36600461176a565b6106ab565b3480156102cf57600080fd5b506102e36102de36600461176a565b6106c0565b60405161025691906119fb565b3480156102fc57600080fd5b5061031061030b366004611782565b6106d5565b005b34801561031e57600080fd5b5061031061032d366004611782565b6106fe565b34801561033e57600080fd5b5061029661034d36600461176a565b61074d565b34801561035e57600080fd5b5061029661036d3660046116f7565b61075f565b34801561037e57600080fd5b5061024961038d3660046116a2565b610889565b34801561039e57600080fd5b506102966108b4565b3480156103b357600080fd5b506103bc6108d8565b6040516102569190611cb9565b3480156103d557600080fd5b506102966103e43660046116a2565b6108de565b3480156103f557600080fd5b506103106104043660046116a2565b6108f0565b34801561041557600080fd5b506103106104243660046116a2565b6109a7565b34801561043557600080fd5b50610249610444366004611782565b610a45565b34801561045557600080fd5b506103106104643660046117f9565b610a6e565b34801561047557600080fd5b50610296610ac0565b34801561048a57600080fd5b50610274610ae4565b34801561049f57600080fd5b506103bc610af8565b3480156104b457600080fd5b50610249610b10565b3480156104c957600080fd5b50610296610b19565b3480156104de57600080fd5b506103106104ed3660046116bc565b610b1e565b3480156104fe57600080fd5b5061051261050d36600461176a565b610cb9565b6040516102569190611979565b34801561052b57600080fd5b5061027461053a36600461176a565b610dc4565b34801561054b57600080fd5b5061024961055a36600461176a565b610ddf565b34801561056b57600080fd5b5061031061057a366004611782565b610df4565b34801561058b57600080fd5b50610594610f1b565b6040516102569190611a23565b3480156105ad57600080fd5b506103106105bc366004611782565b610fa9565b3480156105cd57600080fd5b506103106105dc3660046117ad565b610fc8565b3480156105ed57600080fd5b506105946110b0565b34801561060257600080fd5b50610310610611366004611732565b611142565b34801561062257600080fd5b50610310610631366004611866565b6111c6565b34801561064257600080fd5b506103bc61129d565b60006001600160e01b03198216637965db0b60e01b14806106705750610670826112a3565b90505b919050565b6002546001600160a01b031681565b7f8502233096d909befbda0999bb8ea2f3a6be3c138b9fbf003752a4c8bce86f6c81565b60009081526020819052604090206001015490565b60046020526000908152604090205460ff1681565b6106de826106ab565b6106ef816106ea6112bc565b6112c0565b6106f98383611324565b505050565b6107066112bc565b6001600160a01b0316816001600160a01b03161461073f5760405162461bcd60e51b815260040161073690611c5c565b60405180910390fd5b61074982826113a9565b5050565b60066020526000908152604090205481565b600061078b7f0245b6cbab6b03e029f6c88bff9595f9f5c30170f52598c3459ee71476ad59c133610a45565b6107a75760405162461bcd60e51b815260040161073690611b45565b60ff82166000818152600660209081526040918290205491516107cb93910161191a565b6040516020818303038152906040528051906020012090506001600660008460ff168152602001908152602001600020600082825461080a9190611cd6565b90915550506000818152600360209081526040808320805473ffffffffffffffffffffffffffffffffffffffff19166001600160a01b03881690811790915580845260059092528083208490555160ff85169284917f1d3dc09176e587732ef26b4edb7961028f2e33cce7ad22d62f07e6a5e26d8e649190a492915050565b6001600160a01b03166000908152600560209081526040808320548352600790915290205460ff1690565b7ff20dc52d9f915492d8534c2045a2e74047b4a9fcc12dbd73812d6a9a24a6da4181565b6103e881565b60056020526000908152604090205481565b61091a7ff20dc52d9f915492d8534c2045a2e74047b4a9fcc12dbd73812d6a9a24a6da4133610a45565b6109365760405162461bcd60e51b815260040161073690611ae8565b600180547fffffffffffffffffffffff0000000000000000000000000000000000000000ff166101006001600160a01b038416021790556040517e2db23efd8339ec0c6d1e7fe86528420c0a007b4f33268e7b90f75b3a17b7789061099c908390611928565b60405180910390a150565b6109d17f0245b6cbab6b03e029f6c88bff9595f9f5c30170f52598c3459ee71476ad59c133610a45565b6109ed5760405162461bcd60e51b815260040161073690611b45565b6002805473ffffffffffffffffffffffffffffffffffffffff19166001600160a01b0383161790556040517fb825ab4f81e4900f8508fcfa9b52c04f19a7bcf5ecc6b19d902fcde1fda9c2149061099c908390611928565b6000918252602082815260408084206001600160a01b0393909316845291905290205460ff1690565b610a987f0245b6cbab6b03e029f6c88bff9595f9f5c30170f52598c3459ee71476ad59c133610a45565b610ab45760405162461bcd60e51b815260040161073690611b45565b6106f9600983836115f2565b7f0245b6cbab6b03e029f6c88bff9595f9f5c30170f52598c3459ee71476ad59c181565b60015461010090046001600160a01b031681565b6008546fffffffffffffffffffffffffffffffff1681565b60015460ff1681565b600081565b610b487f0245b6cbab6b03e029f6c88bff9595f9f5c30170f52598c3459ee71476ad59c133610a45565b610b645760405162461bcd60e51b815260040161073690611b45565b60006001600160a01b038416610bd857826001600160a01b031682604051610b8b90611896565b60006040518083038185875af1925050503d8060008114610bc8576040519150601f19603f3d011682016040523d82523d6000602084013e610bcd565b606091505b505080915050610c5b565b60405163a9059cbb60e01b81526001600160a01b0385169063a9059cbb90610c069086908690600401611960565b602060405180830381600087803b158015610c2057600080fd5b505af1158015610c34573d6000803e3d6000fd5b505050506040513d601f19601f82011682018060405250810190610c58919061174e565b90505b80610c785760405162461bcd60e51b815260040161073690611bff565b7f78e6250172d8e0a57d8d41f480f13581571a2d27bb2a93f5f7bd2511f5c22a6c848484604051610cab9392919061193c565b60405180910390a150505050565b6000818152600660205260409020546060908067ffffffffffffffff811115610cf257634e487b7160e01b600052604160045260246000fd5b604051908082528060200260200182016040528015610d1b578160200160208202803683370190505b50915060005b81811015610dbd5760008185604051602001610d3e92919061191a565b60408051601f1981840301815291815281516020928301206000818152600390935291205485519192506001600160a01b031690859084908110610d9257634e487b7160e01b600052603260045260246000fd5b6001600160a01b039092166020928302919091019091015250610db6600182611cd6565b9050610d21565b5050919050565b6003602052600090815260409020546001600160a01b031681565b60076020526000908152604090205460ff1681565b610e1e7f0245b6cbab6b03e029f6c88bff9595f9f5c30170f52598c3459ee71476ad59c133610a45565b610e3a5760405162461bcd60e51b815260040161073690611b45565b6000828152600360205260409020546001600160a01b0316610e6e5760405162461bcd60e51b815260040161073690611ba2565b6000828152600360209081526040808320805473ffffffffffffffffffffffffffffffffffffffff19166001600160a01b038616908117909155835260058252808320859055848352600490915290205460ff166007811115610ee157634e487b7160e01b600052602160045260246000fd5b6040516001600160a01b0383169084907f1d3dc09176e587732ef26b4edb7961028f2e33cce7ad22d62f07e6a5e26d8e6490600090a45050565b60098054610f2890611d54565b80601f0160208091040260200160405190810160405280929190818152602001828054610f5490611d54565b8015610fa15780601f10610f7657610100808354040283529160200191610fa1565b820191906000526020600020905b815481529060010190602001808311610f8457829003601f168201915b505050505081565b610fb2826106ab565b610fbe816106ea6112bc565b6106f983836113a9565b610ff27f0245b6cbab6b03e029f6c88bff9595f9f5c30170f52598c3459ee71476ad59c133610a45565b61100e5760405162461bcd60e51b815260040161073690611b45565b6000828152600360205260409020546001600160a01b03166110425760405162461bcd60e51b815260040161073690611ba2565b6000828152600760209081526040808320805460ff19168515151790556003909152908190205490517f131a5d878671955d57af5774edc85313391519e06205258c99352b6746dd720c916110a49185916001600160a01b03169085906119da565b60405180910390a15050565b6060600980546110bf90611d54565b80601f01602080910402602001604051908101604052809291908181526020018280546110eb90611d54565b80156111385780601f1061110d57610100808354040283529160200191611138565b820191906000526020600020905b81548152906001019060200180831161111b57829003601f168201915b5050505050905090565b61116c7f0245b6cbab6b03e029f6c88bff9595f9f5c30170f52598c3459ee71476ad59c133610a45565b6111885760405162461bcd60e51b815260040161073690611b45565b6001805460ff19168215151790556040517f59617e84cd4a4d47c34c76f190da73d3a6a0236e0770dcba41851db53f336f579061099c9083906119c6565b6111f07ff20dc52d9f915492d8534c2045a2e74047b4a9fcc12dbd73812d6a9a24a6da4133610a45565b61120c5760405162461bcd60e51b815260040161073690611ae8565b6103e86fffffffffffffffffffffffffffffffff821611156112405760405162461bcd60e51b815260040161073690611a8b565b600880546fffffffffffffffffffffffffffffffff19166fffffffffffffffffffffffffffffffff83161790556040517f6777126e1a64b3a9a031086219e1670bb7c131b028d08a9b037899f452b6513b9061099c908390611cb9565b61271081565b6001600160e01b031981166301ffc9a760e01b14919050565b3390565b6112ca8282610a45565b610749576112e2816001600160a01b0316601461142c565b6112ed83602061142c565b6040516020016112fe929190611899565b60408051601f198184030181529082905262461bcd60e51b825261073691600401611a23565b61132e8282610a45565b610749576000828152602081815260408083206001600160a01b03851684529091529020805460ff191660011790556113656112bc565b6001600160a01b0316816001600160a01b0316837f2f8788117e7eff1d82e926ec794901d17c78024a50270940304540a733656f0d60405160405180910390a45050565b6113b38282610a45565b15610749576000828152602081815260408083206001600160a01b03851684529091529020805460ff191690556113e86112bc565b6001600160a01b0316816001600160a01b0316837ff6391f5c32d9c69d2a47ea670b442974b53935d1edc7fd64eb21e047a839171b60405160405180910390a45050565b6060600061143b836002611cee565b611446906002611cd6565b67ffffffffffffffff81111561146c57634e487b7160e01b600052604160045260246000fd5b6040519080825280601f01601f191660200182016040528015611496576020820181803683370190505b509050600360fc1b816000815181106114bf57634e487b7160e01b600052603260045260246000fd5b60200101906001600160f81b031916908160001a905350600f60fb1b816001815181106114fc57634e487b7160e01b600052603260045260246000fd5b60200101906001600160f81b031916908160001a9053506000611520846002611cee565b61152b906001611cd6565b90505b60018111156115cc577f303132333435363738396162636465660000000000000000000000000000000085600f166010811061157a57634e487b7160e01b600052603260045260246000fd5b1a60f81b82828151811061159e57634e487b7160e01b600052603260045260246000fd5b60200101906001600160f81b031916908160001a90535060049490941c936115c581611d3d565b905061152e565b5083156115eb5760405162461bcd60e51b815260040161073690611a56565b9392505050565b8280546115fe90611d54565b90600052602060002090601f0160209004810192826116205760008555611666565b82601f106116395782800160ff19823516178555611666565b82800160010185558215611666579182015b8281111561166657823582559160200191906001019061164b565b50611672929150611676565b5090565b5b808211156116725760008155600101611677565b80356001600160a01b038116811461067357600080fd5b6000602082840312156116b3578081fd5b6115eb8261168b565b6000806000606084860312156116d0578182fd5b6116d98461168b565b92506116e76020850161168b565b9150604084013590509250925092565b60008060408385031215611709578182fd5b6117128361168b565b9150602083013560ff81168114611727578182fd5b809150509250929050565b600060208284031215611743578081fd5b81356115eb81611da5565b60006020828403121561175f578081fd5b81516115eb81611da5565b60006020828403121561177b578081fd5b5035919050565b60008060408385031215611794578182fd5b823591506117a46020840161168b565b90509250929050565b600080604083850312156117bf578182fd5b82359150602083013561172781611da5565b6000602082840312156117e2578081fd5b81356001600160e01b0319811681146115eb578182fd5b6000806020838503121561180b578182fd5b823567ffffffffffffffff80821115611822578384fd5b818501915085601f830112611835578384fd5b813581811115611843578485fd5b866020828501011115611854578485fd5b60209290920196919550909350505050565b600060208284031215611877578081fd5b81356fffffffffffffffffffffffffffffffff811681146115eb578182fd5b90565b60007f416363657373436f6e74726f6c3a206163636f756e7420000000000000000000825283516118d1816017850160208801611d0d565b7f206973206d697373696e6720726f6c6520000000000000000000000000000000601791840191820152835161190e816028840160208801611d0d565b01602801949350505050565b918252602082015260400190565b6001600160a01b0391909116815260200190565b6001600160a01b039384168152919092166020820152604081019190915260600190565b6001600160a01b03929092168252602082015260400190565b6020808252825182820181905260009190848201906040850190845b818110156119ba5783516001600160a01b031683529284019291840191600101611995565b50909695505050505050565b901515815260200190565b90815260200190565b9283526001600160a01b039190911660208301521515604082015260600190565b6020810160088310611a1d57634e487b7160e01b600052602160045260246000fd5b91905290565b6000602082528251806020840152611a42816040850160208701611d0d565b601f01601f19169190910160400192915050565b6020808252818101527f537472696e67733a20686578206c656e67746820696e73756666696369656e74604082015260600190565b60208082526038908201527f50726f746f636f6c436f6e74726f6c3a2070726f76696465722066656520636160408201527f6e6e6f742062652067726561746572207468616e203130250000000000000000606082015260800190565b6020808252603f908201527f50726f746f636f6c3a204f6e6c792070726f746f636f6c2070726f766964657260408201527f2061646d696e732063616e2063616c6c20746869732066756e6374696f6e2e00606082015260800190565b60208082526036908201527f50726f746f636f6c3a204f6e6c792070726f746f636f6c2061646d696e73206360408201527f616e2063616c6c20746869732066756e6374696f6e2e00000000000000000000606082015260800190565b60208082526036908201527f50726f746f636f6c436f6e74726f6c3a2061206d6f64756c652077697468207460408201527f68697320494420646f6573206e6f742065786973742e00000000000000000000606082015260800190565b60208082526034908201527f50726f746f636f6c20436f6e74726f6c3a206661696c656420746f207472616e60408201527f736665722070726f746f636f6c2066756e64732e000000000000000000000000606082015260800190565b6020808252602f908201527f416363657373436f6e74726f6c3a2063616e206f6e6c792072656e6f756e636560408201527f20726f6c657320666f722073656c660000000000000000000000000000000000606082015260800190565b6fffffffffffffffffffffffffffffffff91909116815260200190565b60008219821115611ce957611ce9611d8f565b500190565b6000816000190483118215151615611d0857611d08611d8f565b500290565b60005b83811015611d28578181015183820152602001611d10565b83811115611d37576000848401525b50505050565b600081611d4c57611d4c611d8f565b506000190190565b600281046001821680611d6857607f821691505b60208210811415611d8957634e487b7160e01b600052602260045260246000fd5b50919050565b634e487b7160e01b600052601160045260246000fd5b8015158114611db357600080fd5b5056fea164736f6c6343000800000af20dc52d9f915492d8534c2045a2e74047b4a9fcc12dbd73812d6a9a24a6da410245b6cbab6b03e029f6c88bff9595f9f5c30170f52598c3459ee71476ad59c1",
  "linkReferences": {},
  "deployedLinkReferences": {}
}