{
  "_format": "hh-sol-artifact-1",
  "contractName": "ProtocolControl",
  "sourceName": "contracts/ProtocolControl.sol",
  "abi": [
    {
      "inputs": [
        {
          "internalType": "address",
          "name": "_admin",
          "type": "address"
        },
        {
          "internalType": "address",
          "name": "_nftlabs",
          "type": "address"
        }
      ],
      "stateMutability": "nonpayable",
      "type": "constructor"
    },
    {
      "anonymous": false,
      "inputs": [
        {
          "indexed": false,
          "internalType": "address",
          "name": "asset",
          "type": "address"
        },
        {
          "indexed": false,
          "internalType": "address",
          "name": "to",
          "type": "address"
        },
        {
          "indexed": false,
          "internalType": "uint256",
          "name": "amount",
          "type": "uint256"
        }
      ],
      "name": "FundsTransferred",
      "type": "event"
    },
    {
      "anonymous": false,
      "inputs": [
        {
          "indexed": false,
          "internalType": "uint256",
          "name": "marketFeeBps",
          "type": "uint256"
        }
      ],
      "name": "MarketFeeBps",
      "type": "event"
    },
    {
      "anonymous": false,
      "inputs": [
        {
          "indexed": true,
          "internalType": "bytes32",
          "name": "moduleId",
          "type": "bytes32"
        },
        {
          "indexed": true,
          "internalType": "address",
          "name": "module",
          "type": "address"
        },
        {
          "indexed": true,
          "internalType": "uint256",
          "name": "moduleType",
          "type": "uint256"
        }
      ],
      "name": "ModuleUpdated",
      "type": "event"
    },
    {
      "anonymous": false,
      "inputs": [
        {
          "indexed": true,
          "internalType": "bytes32",
          "name": "role",
          "type": "bytes32"
        },
        {
          "indexed": true,
          "internalType": "bytes32",
          "name": "previousAdminRole",
          "type": "bytes32"
        },
        {
          "indexed": true,
          "internalType": "bytes32",
          "name": "newAdminRole",
          "type": "bytes32"
        }
      ],
      "name": "RoleAdminChanged",
      "type": "event"
    },
    {
      "anonymous": false,
      "inputs": [
        {
          "indexed": true,
          "internalType": "bytes32",
          "name": "role",
          "type": "bytes32"
        },
        {
          "indexed": true,
          "internalType": "address",
          "name": "account",
          "type": "address"
        },
        {
          "indexed": true,
          "internalType": "address",
          "name": "sender",
          "type": "address"
        }
      ],
      "name": "RoleGranted",
      "type": "event"
    },
    {
      "anonymous": false,
      "inputs": [
        {
          "indexed": true,
          "internalType": "bytes32",
          "name": "role",
          "type": "bytes32"
        },
        {
          "indexed": true,
          "internalType": "address",
          "name": "account",
          "type": "address"
        },
        {
          "indexed": true,
          "internalType": "address",
          "name": "sender",
          "type": "address"
        }
      ],
      "name": "RoleRevoked",
      "type": "event"
    },
    {
      "anonymous": false,
      "inputs": [
        {
          "indexed": false,
          "internalType": "bool",
          "name": "isPaused",
          "type": "bool"
        }
      ],
      "name": "SystemPaused",
      "type": "event"
    },
    {
      "inputs": [],
      "name": "DEFAULT_ADMIN_ROLE",
      "outputs": [
        {
          "internalType": "bytes32",
          "name": "",
          "type": "bytes32"
        }
      ],
      "stateMutability": "view",
      "type": "function"
    },
    {
      "inputs": [],
      "name": "MAX_BPS",
      "outputs": [
        {
          "internalType": "uint128",
          "name": "",
          "type": "uint128"
        }
      ],
      "stateMutability": "view",
      "type": "function"
    },
    {
      "inputs": [],
      "name": "NFTLABS",
      "outputs": [
        {
          "internalType": "bytes32",
          "name": "",
          "type": "bytes32"
        }
      ],
      "stateMutability": "view",
      "type": "function"
    },
    {
      "inputs": [],
      "name": "PROTOCOL_ADMIN",
      "outputs": [
        {
          "internalType": "bytes32",
          "name": "",
          "type": "bytes32"
        }
      ],
      "stateMutability": "view",
      "type": "function"
    },
    {
      "inputs": [],
      "name": "_contractURI",
      "outputs": [
        {
          "internalType": "string",
          "name": "",
          "type": "string"
        }
      ],
      "stateMutability": "view",
      "type": "function"
    },
    {
      "inputs": [
        {
          "internalType": "address",
          "name": "_newModuleAddress",
          "type": "address"
        },
        {
          "internalType": "uint8",
          "name": "_moduleType",
          "type": "uint8"
        }
      ],
      "name": "addModule",
      "outputs": [
        {
          "internalType": "bytes32",
          "name": "moduleId",
          "type": "bytes32"
        }
      ],
      "stateMutability": "nonpayable",
      "type": "function"
    },
    {
      "inputs": [],
      "name": "contractURI",
      "outputs": [
        {
          "internalType": "string",
          "name": "",
          "type": "string"
        }
      ],
      "stateMutability": "view",
      "type": "function"
    },
    {
      "inputs": [
        {
          "internalType": "uint256",
          "name": "_moduleType",
          "type": "uint256"
        }
      ],
      "name": "getAllModulesOfType",
      "outputs": [
        {
          "internalType": "address[]",
          "name": "allModules",
          "type": "address[]"
        }
      ],
      "stateMutability": "view",
      "type": "function"
    },
    {
      "inputs": [
        {
          "internalType": "bytes32",
          "name": "role",
          "type": "bytes32"
        }
      ],
      "name": "getRoleAdmin",
      "outputs": [
        {
          "internalType": "bytes32",
          "name": "",
          "type": "bytes32"
        }
      ],
      "stateMutability": "view",
      "type": "function"
    },
    {
      "inputs": [
        {
          "internalType": "bytes32",
          "name": "role",
          "type": "bytes32"
        },
        {
          "internalType": "address",
          "name": "account",
          "type": "address"
        }
      ],
      "name": "grantRole",
      "outputs": [],
      "stateMutability": "nonpayable",
      "type": "function"
    },
    {
      "inputs": [
        {
          "internalType": "bytes32",
          "name": "role",
          "type": "bytes32"
        },
        {
          "internalType": "address",
          "name": "account",
          "type": "address"
        }
      ],
      "name": "hasRole",
      "outputs": [
        {
          "internalType": "bool",
          "name": "",
          "type": "bool"
        }
      ],
      "stateMutability": "view",
      "type": "function"
    },
    {
      "inputs": [],
      "name": "marketFeeBps",
      "outputs": [
        {
          "internalType": "uint128",
          "name": "",
          "type": "uint128"
        }
      ],
      "stateMutability": "view",
      "type": "function"
    },
    {
      "inputs": [
        {
          "internalType": "bytes32",
          "name": "",
          "type": "bytes32"
        }
      ],
      "name": "moduleType",
      "outputs": [
        {
          "internalType": "enum ProtocolControl.ModuleType",
          "name": "",
          "type": "uint8"
        }
      ],
      "stateMutability": "view",
      "type": "function"
    },
    {
      "inputs": [
        {
          "internalType": "bytes32",
          "name": "",
          "type": "bytes32"
        }
      ],
      "name": "modules",
      "outputs": [
        {
          "internalType": "address",
          "name": "",
          "type": "address"
        }
      ],
      "stateMutability": "view",
      "type": "function"
    },
    {
      "inputs": [],
      "name": "nftlabsTreasury",
      "outputs": [
        {
          "internalType": "address",
          "name": "",
          "type": "address"
        }
      ],
      "stateMutability": "view",
      "type": "function"
    },
    {
      "inputs": [
        {
          "internalType": "uint256",
          "name": "",
          "type": "uint256"
        }
      ],
      "name": "numOfModuleType",
      "outputs": [
        {
          "internalType": "uint256",
          "name": "",
          "type": "uint256"
        }
      ],
      "stateMutability": "view",
      "type": "function"
    },
    {
      "inputs": [
        {
          "internalType": "bool",
          "name": "_toPause",
          "type": "bool"
        }
      ],
      "name": "pausePackProtocol",
      "outputs": [],
      "stateMutability": "nonpayable",
      "type": "function"
    },
    {
      "inputs": [
        {
          "internalType": "bytes32",
          "name": "role",
          "type": "bytes32"
        },
        {
          "internalType": "address",
          "name": "account",
          "type": "address"
        }
      ],
      "name": "renounceRole",
      "outputs": [],
      "stateMutability": "nonpayable",
      "type": "function"
    },
    {
      "inputs": [
        {
          "internalType": "bytes32",
          "name": "role",
          "type": "bytes32"
        },
        {
          "internalType": "address",
          "name": "account",
          "type": "address"
        }
      ],
      "name": "revokeRole",
      "outputs": [],
      "stateMutability": "nonpayable",
      "type": "function"
    },
    {
      "inputs": [
        {
          "internalType": "string",
          "name": "_URI",
          "type": "string"
        }
      ],
      "name": "setContractURI",
      "outputs": [],
      "stateMutability": "nonpayable",
      "type": "function"
    },
    {
      "inputs": [
        {
          "internalType": "bytes4",
          "name": "interfaceId",
          "type": "bytes4"
        }
      ],
      "name": "supportsInterface",
      "outputs": [
        {
          "internalType": "bool",
          "name": "",
          "type": "bool"
        }
      ],
      "stateMutability": "view",
      "type": "function"
    },
    {
      "inputs": [],
      "name": "systemPaused",
      "outputs": [
        {
          "internalType": "bool",
          "name": "",
          "type": "bool"
        }
      ],
      "stateMutability": "view",
      "type": "function"
    },
    {
      "inputs": [
        {
          "internalType": "address",
          "name": "_asset",
          "type": "address"
        },
        {
          "internalType": "address",
          "name": "_to",
          "type": "address"
        },
        {
          "internalType": "uint256",
          "name": "_amount",
          "type": "uint256"
        }
      ],
      "name": "transferProtocolFunds",
      "outputs": [],
      "stateMutability": "nonpayable",
      "type": "function"
    },
    {
      "inputs": [
        {
          "internalType": "uint128",
          "name": "_newFeeBps",
          "type": "uint128"
        }
      ],
      "name": "updateMarketFeeBps",
      "outputs": [],
      "stateMutability": "nonpayable",
      "type": "function"
    },
    {
      "inputs": [
        {
          "internalType": "bytes32",
          "name": "_moduleId",
          "type": "bytes32"
        },
        {
          "internalType": "address",
          "name": "_newModuleAddress",
          "type": "address"
        }
      ],
      "name": "updateModule",
      "outputs": [],
      "stateMutability": "nonpayable",
      "type": "function"
    },
    {
      "inputs": [
        {
          "internalType": "address",
          "name": "_newTreasury",
          "type": "address"
        }
      ],
      "name": "updateNftlabsTreasury",
      "outputs": [],
      "stateMutability": "nonpayable",
      "type": "function"
    }
  ],
  "bytecode": "0x60806040523480156200001157600080fd5b5060405162001a8d38038062001a8d833981016040819052620000349162000214565b60018054610100600160a81b0319166101006001600160a01b038416021790556200006f60008051602062001a4d83398151915282620000c8565b6200008a60008051602062001a6d83398151915283620000c8565b620000a560008051602062001a6d83398151915280620000d8565b620000c060008051602062001a4d83398151915280620000d8565b50506200024b565b620000d482826200012d565b5050565b6000620000e583620001b7565b600084815260208190526040808220600101859055519192508391839186917fbd79b86ffe0ab8e8776151514217cd7cacd52c909f66475c3af44e129f0b00ff9190a4505050565b620001398282620001cf565b620000d4576000828152602081815260408083206001600160a01b03851684529091529020805460ff1916600117905562000173620001f8565b6001600160a01b0316816001600160a01b0316837f2f8788117e7eff1d82e926ec794901d17c78024a50270940304540a733656f0d60405160405180910390a45050565b6000818152602081905260409020600101545b919050565b6000918252602082815260408084206001600160a01b0393909316845291905290205460ff1690565b3390565b80516001600160a01b0381168114620001ca57600080fd5b6000806040838503121562000227578182fd5b6200023283620001fc565b91506200024260208401620001fc565b90509250929050565b6117f2806200025b6000396000f3fe608060405234801561001057600080fd5b50600436106101ae5760003560e01c80639494995b116100ee578063c097b1fb11610097578063d8f38eec11610071578063d8f38eec14610379578063e0a1d38414610381578063e8a3d48514610394578063fd967f471461039c576101ae565b8063c097b1fb1461033e578063c0e7274014610351578063d547741f14610366576101ae565b8063a8a10442116100c8578063a8a10442146102f8578063aca841751461030b578063b0b6cc1a1461032b576101ae565b80639494995b146102d35780639d2f83f0146102e8578063a217fddf146102f0576101ae565b80633af627551161015b57806340f182c51161013557806340f182c51461029257806391d14854146102a5578063938e3d7b146102b857806394658d7e146102cb576101ae565b80633af62755146102575780633f5c3e871461026a5780633fff7bf81461027f576101ae565b806328aa9b401161018c57806328aa9b40146102115780632f2ff15d1461023157806336568abe14610244576101ae565b806301ffc9a7146101b3578063248a9ca3146101dc57806326de4d6b146101fc575b600080fd5b6101c66101c1366004611224565b6103a4565b6040516101d39190611416565b60405180910390f35b6101ef6101ea3660046111e1565b6103d1565b6040516101d39190611421565b61020f61020a366004611119565b6103e6565b005b61022461021f3660046111e1565b610474565b6040516101d3919061142a565b61020f61023f3660046111f9565b610489565b61020f6102523660046111f9565b6104b2565b61020f6102653660046111a9565b6104f8565b610272610587565b6040516101d391906116e8565b6101ef61028d3660046111e1565b61059f565b6101ef6102a036600461116e565b6105b1565b6101c66102b33660046111f9565b6106f0565b61020f6102c636600461124c565b610719565b6101ef61076b565b6102db61078f565b6040516101d39190611378565b6101c66107a3565b6101ef6107ac565b61020f610306366004611133565b6107b1565b61031e6103193660046111e1565b6108d3565b6040516101d391906113c9565b6102db6103393660046111e1565b6109de565b61020f61034c3660046111f9565b6109f9565b610359610ada565b6040516101d39190611452565b61020f6103743660046111f9565b610b68565b6101ef610b87565b61020f61038f3660046112b9565b610bab565b610359610c82565b610272610d14565b60006001600160e01b03198216637965db0b60e01b14806103c957506103c982610d1a565b90505b919050565b60009081526020819052604090206001015490565b6104107f1884995e9e21b948f653f9596094b17f12f1b114ed4ca397c21461be57c16fe8336106f0565b6104355760405162461bcd60e51b815260040161042c90611517565b60405180910390fd5b600180546001600160a01b03909216610100027fffffffffffffffffffffff0000000000000000000000000000000000000000ff909216919091179055565b60036020526000908152604090205460ff1681565b610492826103d1565b6104a38161049e610d33565b610d37565b6104ad8383610d9b565b505050565b6104ba610d33565b6001600160a01b0316816001600160a01b0316146104ea5760405162461bcd60e51b815260040161042c9061168b565b6104f48282610e20565b5050565b6105227f0245b6cbab6b03e029f6c88bff9595f9f5c30170f52598c3459ee71476ad59c1336106f0565b61053e5760405162461bcd60e51b815260040161042c906114ba565b6001805460ff19168215151790556040517f59617e84cd4a4d47c34c76f190da73d3a6a0236e0770dcba41851db53f336f579061057c908390611416565b60405180910390a150565b6005546fffffffffffffffffffffffffffffffff1681565b60046020526000908152604090205481565b60006105dd7f0245b6cbab6b03e029f6c88bff9595f9f5c30170f52598c3459ee71476ad59c1336106f0565b6105f95760405162461bcd60e51b815260040161042c906114ba565b600460ff8316111561061d5760405162461bcd60e51b815260040161042c90611574565b60ff821660008181526004602090815260409182902054915161064193910161136a565b6040516020818303038152906040528051906020012090506001600460008460ff16815260200190815260200160002060008282546106809190611705565b9091555050600081815260026020526040808220805473ffffffffffffffffffffffffffffffffffffffff19166001600160a01b038716908117909155905160ff85169284917f1d3dc09176e587732ef26b4edb7961028f2e33cce7ad22d62f07e6a5e26d8e649190a492915050565b6000918252602082815260408084206001600160a01b0393909316845291905290205460ff1690565b6107437f0245b6cbab6b03e029f6c88bff9595f9f5c30170f52598c3459ee71476ad59c1336106f0565b61075f5760405162461bcd60e51b815260040161042c906114ba565b6104ad60068383611069565b7f0245b6cbab6b03e029f6c88bff9595f9f5c30170f52598c3459ee71476ad59c181565b60015461010090046001600160a01b031681565b60015460ff1681565b600081565b6107db7f0245b6cbab6b03e029f6c88bff9595f9f5c30170f52598c3459ee71476ad59c1336106f0565b6107f75760405162461bcd60e51b815260040161042c906114ba565b60405163a9059cbb60e01b81526001600160a01b0384169063a9059cbb9061082590859085906004016113b0565b602060405180830381600087803b15801561083f57600080fd5b505af1158015610853573d6000803e3d6000fd5b505050506040513d601f19601f8201168201806040525081019061087791906111c5565b6108935760405162461bcd60e51b815260040161042c9061162e565b7f78e6250172d8e0a57d8d41f480f13581571a2d27bb2a93f5f7bd2511f5c22a6c8383836040516108c69392919061138c565b60405180910390a1505050565b6000818152600460205260409020546060908067ffffffffffffffff81111561090c57634e487b7160e01b600052604160045260246000fd5b604051908082528060200260200182016040528015610935578160200160208202803683370190505b50915060005b818110156109d7576000818560405160200161095892919061136a565b60408051601f1981840301815291815281516020928301206000818152600290935291205485519192506001600160a01b0316908590849081106109ac57634e487b7160e01b600052603260045260246000fd5b6001600160a01b0390921660209283029190910190910152506109d0600182611705565b905061093b565b5050919050565b6002602052600090815260409020546001600160a01b031681565b610a237f0245b6cbab6b03e029f6c88bff9595f9f5c30170f52598c3459ee71476ad59c1336106f0565b610a3f5760405162461bcd60e51b815260040161042c906114ba565b6000828152600260209081526040808320805473ffffffffffffffffffffffffffffffffffffffff19166001600160a01b038616179055600390915290205460ff166004811115610aa057634e487b7160e01b600052602160045260246000fd5b6040516001600160a01b0383169084907f1d3dc09176e587732ef26b4edb7961028f2e33cce7ad22d62f07e6a5e26d8e6490600090a45050565b60068054610ae790611783565b80601f0160208091040260200160405190810160405280929190818152602001828054610b1390611783565b8015610b605780601f10610b3557610100808354040283529160200191610b60565b820191906000526020600020905b815481529060010190602001808311610b4357829003601f168201915b505050505081565b610b71826103d1565b610b7d8161049e610d33565b6104ad8383610e20565b7f1884995e9e21b948f653f9596094b17f12f1b114ed4ca397c21461be57c16fe881565b610bd57f1884995e9e21b948f653f9596094b17f12f1b114ed4ca397c21461be57c16fe8336106f0565b610bf15760405162461bcd60e51b815260040161042c90611517565b61012c816fffffffffffffffffffffffffffffffff161115610c255760405162461bcd60e51b815260040161042c906115d1565b600580546fffffffffffffffffffffffffffffffff19166fffffffffffffffffffffffffffffffff83161790556040517f1890faa36c0d3210e563b3b71281f08fdb6016a537f6664317d853bd2af520329061057c9083906116e8565b606060068054610c9190611783565b80601f0160208091040260200160405190810160405280929190818152602001828054610cbd90611783565b8015610d0a5780601f10610cdf57610100808354040283529160200191610d0a565b820191906000526020600020905b815481529060010190602001808311610ced57829003601f168201915b5050505050905090565b61271081565b6001600160e01b031981166301ffc9a760e01b14919050565b3390565b610d4182826106f0565b6104f457610d59816001600160a01b03166014610ea3565b610d64836020610ea3565b604051602001610d759291906112e9565b60408051601f198184030181529082905262461bcd60e51b825261042c91600401611452565b610da582826106f0565b6104f4576000828152602081815260408083206001600160a01b03851684529091529020805460ff19166001179055610ddc610d33565b6001600160a01b0316816001600160a01b0316837f2f8788117e7eff1d82e926ec794901d17c78024a50270940304540a733656f0d60405160405180910390a45050565b610e2a82826106f0565b156104f4576000828152602081815260408083206001600160a01b03851684529091529020805460ff19169055610e5f610d33565b6001600160a01b0316816001600160a01b0316837ff6391f5c32d9c69d2a47ea670b442974b53935d1edc7fd64eb21e047a839171b60405160405180910390a45050565b60606000610eb283600261171d565b610ebd906002611705565b67ffffffffffffffff811115610ee357634e487b7160e01b600052604160045260246000fd5b6040519080825280601f01601f191660200182016040528015610f0d576020820181803683370190505b509050600360fc1b81600081518110610f3657634e487b7160e01b600052603260045260246000fd5b60200101906001600160f81b031916908160001a905350600f60fb1b81600181518110610f7357634e487b7160e01b600052603260045260246000fd5b60200101906001600160f81b031916908160001a9053506000610f9784600261171d565b610fa2906001611705565b90505b6001811115611043577f303132333435363738396162636465660000000000000000000000000000000085600f1660108110610ff157634e487b7160e01b600052603260045260246000fd5b1a60f81b82828151811061101557634e487b7160e01b600052603260045260246000fd5b60200101906001600160f81b031916908160001a90535060049490941c9361103c8161176c565b9050610fa5565b5083156110625760405162461bcd60e51b815260040161042c90611485565b9392505050565b82805461107590611783565b90600052602060002090601f01602090048101928261109757600085556110dd565b82601f106110b05782800160ff198235161785556110dd565b828001600101855582156110dd579182015b828111156110dd5782358255916020019190600101906110c2565b506110e99291506110ed565b5090565b5b808211156110e957600081556001016110ee565b80356001600160a01b03811681146103cc57600080fd5b60006020828403121561112a578081fd5b61106282611102565b600080600060608486031215611147578182fd5b61115084611102565b925061115e60208501611102565b9150604084013590509250925092565b60008060408385031215611180578182fd5b61118983611102565b9150602083013560ff8116811461119e578182fd5b809150509250929050565b6000602082840312156111ba578081fd5b8135611062816117d4565b6000602082840312156111d6578081fd5b8151611062816117d4565b6000602082840312156111f2578081fd5b5035919050565b6000806040838503121561120b578182fd5b8235915061121b60208401611102565b90509250929050565b600060208284031215611235578081fd5b81356001600160e01b031981168114611062578182fd5b6000806020838503121561125e578182fd5b823567ffffffffffffffff80821115611275578384fd5b818501915085601f830112611288578384fd5b813581811115611296578485fd5b8660208285010111156112a7578485fd5b60209290920196919550909350505050565b6000602082840312156112ca578081fd5b81356fffffffffffffffffffffffffffffffff81168114611062578182fd5b60007f416363657373436f6e74726f6c3a206163636f756e74200000000000000000008252835161132181601785016020880161173c565b7f206973206d697373696e6720726f6c6520000000000000000000000000000000601791840191820152835161135e81602884016020880161173c565b01602801949350505050565b918252602082015260400190565b6001600160a01b0391909116815260200190565b6001600160a01b039384168152919092166020820152604081019190915260600190565b6001600160a01b03929092168252602082015260400190565b6020808252825182820181905260009190848201906040850190845b8181101561140a5783516001600160a01b0316835292840192918401916001016113e5565b50909695505050505050565b901515815260200190565b90815260200190565b602081016005831061144c57634e487b7160e01b600052602160045260246000fd5b91905290565b600060208252825180602084015261147181604085016020870161173c565b601f01601f19169190910160400192915050565b6020808252818101527f537472696e67733a20686578206c656e67746820696e73756666696369656e74604082015260600190565b60208082526036908201527f50726f746f636f6c3a204f6e6c792070726f746f636f6c2061646d696e73206360408201527f616e2063616c6c20746869732066756e6374696f6e2e00000000000000000000606082015260800190565b60208082526035908201527f50726f746f636f6c3a204f6e6c79204e46544c6162732061646d696e7320636160408201527f6e2063616c6c20746869732066756e6374696f6e2e0000000000000000000000606082015260800190565b6020808252602e908201527f50726f746f636f6c436f6e74726f6c3a20696e76616c6964206d6f64756c652060408201527f747970652070726f76696465642e000000000000000000000000000000000000606082015260800190565b6020808252602e908201527f50726f746f636f6c436f6e74726f6c3a206665652063616e6e6f74206265206760408201527f726561746572207468616e203325000000000000000000000000000000000000606082015260800190565b60208082526034908201527f50726f746f636f6c20436f6e74726f6c3a206661696c656420746f207472616e60408201527f736665722070726f746f636f6c2066756e64732e000000000000000000000000606082015260800190565b6020808252602f908201527f416363657373436f6e74726f6c3a2063616e206f6e6c792072656e6f756e636560408201527f20726f6c657320666f722073656c660000000000000000000000000000000000606082015260800190565b6fffffffffffffffffffffffffffffffff91909116815260200190565b60008219821115611718576117186117be565b500190565b6000816000190483118215151615611737576117376117be565b500290565b60005b8381101561175757818101518382015260200161173f565b83811115611766576000848401525b50505050565b60008161177b5761177b6117be565b506000190190565b60028104600182168061179757607f821691505b602082108114156117b857634e487b7160e01b600052602260045260246000fd5b50919050565b634e487b7160e01b600052601160045260246000fd5b80151581146117e257600080fd5b5056fea164736f6c6343000800000a1884995e9e21b948f653f9596094b17f12f1b114ed4ca397c21461be57c16fe80245b6cbab6b03e029f6c88bff9595f9f5c30170f52598c3459ee71476ad59c1",
  "linkReferences": {},
  "deployedLinkReferences": {}
}