{
  "_format": "hh-sol-artifact-1",
  "contractName": "ProtocolControl",
  "sourceName": "contracts/ProtocolControl.sol",
  "abi": [
    {
      "inputs": [
        {
          "internalType": "address",
          "name": "_admin",
          "type": "address"
        },
        {
          "internalType": "address",
          "name": "_nftlabs",
          "type": "address"
        }
      ],
      "stateMutability": "nonpayable",
      "type": "constructor"
    },
    {
      "anonymous": false,
      "inputs": [
        {
          "indexed": false,
          "internalType": "address",
          "name": "asset",
          "type": "address"
        },
        {
          "indexed": false,
          "internalType": "address",
          "name": "to",
          "type": "address"
        },
        {
          "indexed": false,
          "internalType": "uint256",
          "name": "amount",
          "type": "uint256"
        }
      ],
      "name": "FundsTransferred",
      "type": "event"
    },
    {
      "anonymous": false,
      "inputs": [
        {
          "indexed": false,
          "internalType": "uint256",
          "name": "marketFeeBps",
          "type": "uint256"
        }
      ],
      "name": "MarketFeeBps",
      "type": "event"
    },
    {
      "anonymous": false,
      "inputs": [
        {
          "indexed": true,
          "internalType": "bytes32",
          "name": "moduleId",
          "type": "bytes32"
        },
        {
          "indexed": true,
          "internalType": "address",
          "name": "module",
          "type": "address"
        },
        {
          "indexed": true,
          "internalType": "uint256",
          "name": "moduleType",
          "type": "uint256"
        }
      ],
      "name": "ModuleUpdated",
      "type": "event"
    },
    {
      "anonymous": false,
      "inputs": [
        {
          "indexed": true,
          "internalType": "bytes32",
          "name": "role",
          "type": "bytes32"
        },
        {
          "indexed": true,
          "internalType": "bytes32",
          "name": "previousAdminRole",
          "type": "bytes32"
        },
        {
          "indexed": true,
          "internalType": "bytes32",
          "name": "newAdminRole",
          "type": "bytes32"
        }
      ],
      "name": "RoleAdminChanged",
      "type": "event"
    },
    {
      "anonymous": false,
      "inputs": [
        {
          "indexed": true,
          "internalType": "bytes32",
          "name": "role",
          "type": "bytes32"
        },
        {
          "indexed": true,
          "internalType": "address",
          "name": "account",
          "type": "address"
        },
        {
          "indexed": true,
          "internalType": "address",
          "name": "sender",
          "type": "address"
        }
      ],
      "name": "RoleGranted",
      "type": "event"
    },
    {
      "anonymous": false,
      "inputs": [
        {
          "indexed": true,
          "internalType": "bytes32",
          "name": "role",
          "type": "bytes32"
        },
        {
          "indexed": true,
          "internalType": "address",
          "name": "account",
          "type": "address"
        },
        {
          "indexed": true,
          "internalType": "address",
          "name": "sender",
          "type": "address"
        }
      ],
      "name": "RoleRevoked",
      "type": "event"
    },
    {
      "anonymous": false,
      "inputs": [
        {
          "indexed": false,
          "internalType": "bool",
          "name": "isPaused",
          "type": "bool"
        }
      ],
      "name": "SystemPaused",
      "type": "event"
    },
    {
      "inputs": [],
      "name": "DEFAULT_ADMIN_ROLE",
      "outputs": [
        {
          "internalType": "bytes32",
          "name": "",
          "type": "bytes32"
        }
      ],
      "stateMutability": "view",
      "type": "function"
    },
    {
      "inputs": [],
      "name": "MAX_BPS",
      "outputs": [
        {
          "internalType": "uint256",
          "name": "",
          "type": "uint256"
        }
      ],
      "stateMutability": "view",
      "type": "function"
    },
    {
      "inputs": [],
      "name": "NFTLABS",
      "outputs": [
        {
          "internalType": "bytes32",
          "name": "",
          "type": "bytes32"
        }
      ],
      "stateMutability": "view",
      "type": "function"
    },
    {
      "inputs": [],
      "name": "PROTOCOL_ADMIN",
      "outputs": [
        {
          "internalType": "bytes32",
          "name": "",
          "type": "bytes32"
        }
      ],
      "stateMutability": "view",
      "type": "function"
    },
    {
      "inputs": [],
      "name": "_contractURI",
      "outputs": [
        {
          "internalType": "string",
          "name": "",
          "type": "string"
        }
      ],
      "stateMutability": "view",
      "type": "function"
    },
    {
      "inputs": [
        {
          "internalType": "address",
          "name": "_newModuleAddress",
          "type": "address"
        },
        {
          "internalType": "uint256",
          "name": "_moduleType",
          "type": "uint256"
        }
      ],
      "name": "addModule",
      "outputs": [
        {
          "internalType": "bytes32",
          "name": "moduleId",
          "type": "bytes32"
        }
      ],
      "stateMutability": "nonpayable",
      "type": "function"
    },
    {
      "inputs": [],
      "name": "contractURI",
      "outputs": [
        {
          "internalType": "string",
          "name": "",
          "type": "string"
        }
      ],
      "stateMutability": "view",
      "type": "function"
    },
    {
      "inputs": [
        {
          "internalType": "uint256",
          "name": "_moduleType",
          "type": "uint256"
        }
      ],
      "name": "getAllModulesOfType",
      "outputs": [
        {
          "internalType": "address[]",
          "name": "allModules",
          "type": "address[]"
        }
      ],
      "stateMutability": "view",
      "type": "function"
    },
    {
      "inputs": [
        {
          "internalType": "bytes32",
          "name": "role",
          "type": "bytes32"
        }
      ],
      "name": "getRoleAdmin",
      "outputs": [
        {
          "internalType": "bytes32",
          "name": "",
          "type": "bytes32"
        }
      ],
      "stateMutability": "view",
      "type": "function"
    },
    {
      "inputs": [
        {
          "internalType": "bytes32",
          "name": "role",
          "type": "bytes32"
        },
        {
          "internalType": "address",
          "name": "account",
          "type": "address"
        }
      ],
      "name": "grantRole",
      "outputs": [],
      "stateMutability": "nonpayable",
      "type": "function"
    },
    {
      "inputs": [
        {
          "internalType": "bytes32",
          "name": "role",
          "type": "bytes32"
        },
        {
          "internalType": "address",
          "name": "account",
          "type": "address"
        }
      ],
      "name": "hasRole",
      "outputs": [
        {
          "internalType": "bool",
          "name": "",
          "type": "bool"
        }
      ],
      "stateMutability": "view",
      "type": "function"
    },
    {
      "inputs": [],
      "name": "marketFeeBps",
      "outputs": [
        {
          "internalType": "uint256",
          "name": "",
          "type": "uint256"
        }
      ],
      "stateMutability": "view",
      "type": "function"
    },
    {
      "inputs": [
        {
          "internalType": "bytes32",
          "name": "",
          "type": "bytes32"
        }
      ],
      "name": "moduleType",
      "outputs": [
        {
          "internalType": "enum ProtocolControl.ModuleType",
          "name": "",
          "type": "uint8"
        }
      ],
      "stateMutability": "view",
      "type": "function"
    },
    {
      "inputs": [
        {
          "internalType": "bytes32",
          "name": "",
          "type": "bytes32"
        }
      ],
      "name": "modules",
      "outputs": [
        {
          "internalType": "address",
          "name": "",
          "type": "address"
        }
      ],
      "stateMutability": "view",
      "type": "function"
    },
    {
      "inputs": [],
      "name": "nftlabsTreasury",
      "outputs": [
        {
          "internalType": "address",
          "name": "",
          "type": "address"
        }
      ],
      "stateMutability": "view",
      "type": "function"
    },
    {
      "inputs": [
        {
          "internalType": "uint256",
          "name": "",
          "type": "uint256"
        }
      ],
      "name": "numOfModuleType",
      "outputs": [
        {
          "internalType": "uint256",
          "name": "",
          "type": "uint256"
        }
      ],
      "stateMutability": "view",
      "type": "function"
    },
    {
      "inputs": [
        {
          "internalType": "bool",
          "name": "_toPause",
          "type": "bool"
        }
      ],
      "name": "pausePackProtocol",
      "outputs": [],
      "stateMutability": "nonpayable",
      "type": "function"
    },
    {
      "inputs": [
        {
          "internalType": "bytes32",
          "name": "role",
          "type": "bytes32"
        },
        {
          "internalType": "address",
          "name": "account",
          "type": "address"
        }
      ],
      "name": "renounceRole",
      "outputs": [],
      "stateMutability": "nonpayable",
      "type": "function"
    },
    {
      "inputs": [
        {
          "internalType": "bytes32",
          "name": "role",
          "type": "bytes32"
        },
        {
          "internalType": "address",
          "name": "account",
          "type": "address"
        }
      ],
      "name": "revokeRole",
      "outputs": [],
      "stateMutability": "nonpayable",
      "type": "function"
    },
    {
      "inputs": [
        {
          "internalType": "string",
          "name": "_URI",
          "type": "string"
        }
      ],
      "name": "setContractURI",
      "outputs": [],
      "stateMutability": "nonpayable",
      "type": "function"
    },
    {
      "inputs": [
        {
          "internalType": "bytes4",
          "name": "interfaceId",
          "type": "bytes4"
        }
      ],
      "name": "supportsInterface",
      "outputs": [
        {
          "internalType": "bool",
          "name": "",
          "type": "bool"
        }
      ],
      "stateMutability": "view",
      "type": "function"
    },
    {
      "inputs": [],
      "name": "systemPaused",
      "outputs": [
        {
          "internalType": "bool",
          "name": "",
          "type": "bool"
        }
      ],
      "stateMutability": "view",
      "type": "function"
    },
    {
      "inputs": [
        {
          "internalType": "address",
          "name": "_asset",
          "type": "address"
        },
        {
          "internalType": "address",
          "name": "_to",
          "type": "address"
        },
        {
          "internalType": "uint256",
          "name": "_amount",
          "type": "uint256"
        }
      ],
      "name": "transferProtocolFunds",
      "outputs": [],
      "stateMutability": "nonpayable",
      "type": "function"
    },
    {
      "inputs": [
        {
          "internalType": "uint256",
          "name": "_newFeeBps",
          "type": "uint256"
        }
      ],
      "name": "updateMarketFeeBps",
      "outputs": [],
      "stateMutability": "nonpayable",
      "type": "function"
    },
    {
      "inputs": [
        {
          "internalType": "bytes32",
          "name": "_moduleId",
          "type": "bytes32"
        },
        {
          "internalType": "address",
          "name": "_newModuleAddress",
          "type": "address"
        }
      ],
      "name": "updateModule",
      "outputs": [],
      "stateMutability": "nonpayable",
      "type": "function"
    },
    {
      "inputs": [
        {
          "internalType": "address",
          "name": "_newTreasury",
          "type": "address"
        }
      ],
      "name": "updateNftlabsTreasury",
      "outputs": [],
      "stateMutability": "nonpayable",
      "type": "function"
    }
  ],
  "bytecode": "0x60806040523480156200001157600080fd5b50604051620019ca380380620019ca833981016040819052620000349162000214565b60018054610100600160a81b0319166101006001600160a01b038416021790556200006f6000805160206200198a83398151915282620000c8565b6200008a600080516020620019aa83398151915283620000c8565b620000a5600080516020620019aa83398151915280620000d8565b620000c06000805160206200198a83398151915280620000d8565b50506200024b565b620000d482826200012d565b5050565b6000620000e583620001b7565b600084815260208190526040808220600101859055519192508391839186917fbd79b86ffe0ab8e8776151514217cd7cacd52c909f66475c3af44e129f0b00ff9190a4505050565b620001398282620001cf565b620000d4576000828152602081815260408083206001600160a01b03851684529091529020805460ff1916600117905562000173620001f8565b6001600160a01b0316816001600160a01b0316837f2f8788117e7eff1d82e926ec794901d17c78024a50270940304540a733656f0d60405160405180910390a45050565b6000818152602081905260409020600101545b919050565b6000918252602082815260408084206001600160a01b0393909316845291905290205460ff1690565b3390565b80516001600160a01b0381168114620001ca57600080fd5b6000806040838503121562000227578182fd5b6200023283620001fc565b91506200024260208401620001fc565b90509250929050565b61172f806200025b6000396000f3fe608060405234801561001057600080fd5b50600436106101ae5760003560e01c806396362d32116100ee578063b51cdec411610097578063d547741f11610071578063d547741f1461036c578063d8f38eec1461037f578063e8a3d48514610387578063fd967f471461038f576101ae565b8063b51cdec414610331578063c097b1fb14610344578063c0e7274014610357576101ae565b8063a8a10442116100c8578063a8a10442146102eb578063aca84175146102fe578063b0b6cc1a1461031e576101ae565b806396362d32146102c85780639d2f83f0146102db578063a217fddf146102e3576101ae565b80633af627551161015b57806391d148541161013557806391d1485414610285578063938e3d7b1461029857806394658d7e146102ab5780639494995b146102b3576101ae565b80633af62755146102575780633f5c3e871461026a5780633fff7bf814610272576101ae565b806328aa9b401161018c57806328aa9b40146102115780632f2ff15d1461023157806336568abe14610244576101ae565b806301ffc9a7146101b3578063248a9ca3146101dc57806326de4d6b146101fc575b600080fd5b6101c66101c13660046111ae565b610397565b6040516101d39190611370565b60405180910390f35b6101ef6101ea36600461116b565b6103c4565b6040516101d3919061137b565b61020f61020a3660046110b5565b6103d9565b005b61022461021f36600461116b565b610467565b6040516101d39190611384565b61020f61023f366004611183565b61047c565b61020f610252366004611183565b6104a5565b61020f610265366004611133565b6104eb565b6101ef61057a565b6101ef61028036600461116b565b610580565b6101c6610293366004611183565b610592565b61020f6102a63660046111d6565b6105bb565b6101ef61060d565b6102bb610631565b6040516101d391906112d2565b6101ef6102d636600461110a565b610645565b6101c6610779565b6101ef610782565b61020f6102f93660046110cf565b610787565b61031161030c36600461116b565b6108a9565b6040516101d39190611323565b6102bb61032c36600461116b565b6109b4565b61020f61033f36600461116b565b6109cf565b61020f610352366004611183565b610a6c565b61035f610b4d565b6040516101d391906113ac565b61020f61037a366004611183565b610bdb565b6101ef610bfa565b61035f610c1e565b6101ef610cb0565b60006001600160e01b03198216637965db0b60e01b14806103bc57506103bc82610cb6565b90505b919050565b60009081526020819052604090206001015490565b6104037f1884995e9e21b948f653f9596094b17f12f1b114ed4ca397c21461be57c16fe833610592565b6104285760405162461bcd60e51b815260040161041f90611471565b60405180910390fd5b600180546001600160a01b03909216610100027fffffffffffffffffffffff0000000000000000000000000000000000000000ff909216919091179055565b60036020526000908152604090205460ff1681565b610485826103c4565b61049681610491610ccf565b610cd3565b6104a08383610d37565b505050565b6104ad610ccf565b6001600160a01b0316816001600160a01b0316146104dd5760405162461bcd60e51b815260040161041f906115e5565b6104e78282610dbc565b5050565b6105157f0245b6cbab6b03e029f6c88bff9595f9f5c30170f52598c3459ee71476ad59c133610592565b6105315760405162461bcd60e51b815260040161041f90611414565b6001805460ff19168215151790556040517f59617e84cd4a4d47c34c76f190da73d3a6a0236e0770dcba41851db53f336f579061056f908390611370565b60405180910390a150565b60055481565b60046020526000908152604090205481565b6000918252602082815260408084206001600160a01b0393909316845291905290205460ff1690565b6105e57f0245b6cbab6b03e029f6c88bff9595f9f5c30170f52598c3459ee71476ad59c133610592565b6106015760405162461bcd60e51b815260040161041f90611414565b6104a060068383611005565b7f0245b6cbab6b03e029f6c88bff9595f9f5c30170f52598c3459ee71476ad59c181565b60015461010090046001600160a01b031681565b60006106717f0245b6cbab6b03e029f6c88bff9595f9f5c30170f52598c3459ee71476ad59c133610592565b61068d5760405162461bcd60e51b815260040161041f90611414565b60048211156106ae5760405162461bcd60e51b815260040161041f906114ce565b6000828152600460209081526040918290205491516106d092918591016112c4565b604051602081830303815290604052805190602001209050600160046000848152602001908152602001600020600082825461070c9190611642565b9091555050600081815260026020526040808220805473ffffffffffffffffffffffffffffffffffffffff19166001600160a01b0387169081179091559051849284917f1d3dc09176e587732ef26b4edb7961028f2e33cce7ad22d62f07e6a5e26d8e649190a492915050565b60015460ff1681565b600081565b6107b17f0245b6cbab6b03e029f6c88bff9595f9f5c30170f52598c3459ee71476ad59c133610592565b6107cd5760405162461bcd60e51b815260040161041f90611414565b60405163a9059cbb60e01b81526001600160a01b0384169063a9059cbb906107fb908590859060040161130a565b602060405180830381600087803b15801561081557600080fd5b505af1158015610829573d6000803e3d6000fd5b505050506040513d601f19601f8201168201806040525081019061084d919061114f565b6108695760405162461bcd60e51b815260040161041f90611588565b7f78e6250172d8e0a57d8d41f480f13581571a2d27bb2a93f5f7bd2511f5c22a6c83838360405161089c939291906112e6565b60405180910390a1505050565b6000818152600460205260409020546060908067ffffffffffffffff8111156108e257634e487b7160e01b600052604160045260246000fd5b60405190808252806020026020018201604052801561090b578160200160208202803683370190505b50915060005b818110156109ad576000818560405160200161092e9291906112c4565b60408051601f1981840301815291815281516020928301206000818152600290935291205485519192506001600160a01b03169085908490811061098257634e487b7160e01b600052603260045260246000fd5b6001600160a01b0390921660209283029190910190910152506109a6600182611642565b9050610911565b5050919050565b6002602052600090815260409020546001600160a01b031681565b6109f97f1884995e9e21b948f653f9596094b17f12f1b114ed4ca397c21461be57c16fe833610592565b610a155760405162461bcd60e51b815260040161041f90611471565b61012c811115610a375760405162461bcd60e51b815260040161041f9061152b565b60058190556040517f1890faa36c0d3210e563b3b71281f08fdb6016a537f6664317d853bd2af520329061056f90839061137b565b610a967f0245b6cbab6b03e029f6c88bff9595f9f5c30170f52598c3459ee71476ad59c133610592565b610ab25760405162461bcd60e51b815260040161041f90611414565b6000828152600260209081526040808320805473ffffffffffffffffffffffffffffffffffffffff19166001600160a01b038616179055600390915290205460ff166004811115610b1357634e487b7160e01b600052602160045260246000fd5b6040516001600160a01b0383169084907f1d3dc09176e587732ef26b4edb7961028f2e33cce7ad22d62f07e6a5e26d8e6490600090a45050565b60068054610b5a906116c0565b80601f0160208091040260200160405190810160405280929190818152602001828054610b86906116c0565b8015610bd35780601f10610ba857610100808354040283529160200191610bd3565b820191906000526020600020905b815481529060010190602001808311610bb657829003601f168201915b505050505081565b610be4826103c4565b610bf081610491610ccf565b6104a08383610dbc565b7f1884995e9e21b948f653f9596094b17f12f1b114ed4ca397c21461be57c16fe881565b606060068054610c2d906116c0565b80601f0160208091040260200160405190810160405280929190818152602001828054610c59906116c0565b8015610ca65780601f10610c7b57610100808354040283529160200191610ca6565b820191906000526020600020905b815481529060010190602001808311610c8957829003601f168201915b5050505050905090565b61271081565b6001600160e01b031981166301ffc9a760e01b14919050565b3390565b610cdd8282610592565b6104e757610cf5816001600160a01b03166014610e3f565b610d00836020610e3f565b604051602001610d11929190611243565b60408051601f198184030181529082905262461bcd60e51b825261041f916004016113ac565b610d418282610592565b6104e7576000828152602081815260408083206001600160a01b03851684529091529020805460ff19166001179055610d78610ccf565b6001600160a01b0316816001600160a01b0316837f2f8788117e7eff1d82e926ec794901d17c78024a50270940304540a733656f0d60405160405180910390a45050565b610dc68282610592565b156104e7576000828152602081815260408083206001600160a01b03851684529091529020805460ff19169055610dfb610ccf565b6001600160a01b0316816001600160a01b0316837ff6391f5c32d9c69d2a47ea670b442974b53935d1edc7fd64eb21e047a839171b60405160405180910390a45050565b60606000610e4e83600261165a565b610e59906002611642565b67ffffffffffffffff811115610e7f57634e487b7160e01b600052604160045260246000fd5b6040519080825280601f01601f191660200182016040528015610ea9576020820181803683370190505b509050600360fc1b81600081518110610ed257634e487b7160e01b600052603260045260246000fd5b60200101906001600160f81b031916908160001a905350600f60fb1b81600181518110610f0f57634e487b7160e01b600052603260045260246000fd5b60200101906001600160f81b031916908160001a9053506000610f3384600261165a565b610f3e906001611642565b90505b6001811115610fdf577f303132333435363738396162636465660000000000000000000000000000000085600f1660108110610f8d57634e487b7160e01b600052603260045260246000fd5b1a60f81b828281518110610fb157634e487b7160e01b600052603260045260246000fd5b60200101906001600160f81b031916908160001a90535060049490941c93610fd8816116a9565b9050610f41565b508315610ffe5760405162461bcd60e51b815260040161041f906113df565b9392505050565b828054611011906116c0565b90600052602060002090601f0160209004810192826110335760008555611079565b82601f1061104c5782800160ff19823516178555611079565b82800160010185558215611079579182015b8281111561107957823582559160200191906001019061105e565b50611085929150611089565b5090565b5b80821115611085576000815560010161108a565b80356001600160a01b03811681146103bf57600080fd5b6000602082840312156110c6578081fd5b610ffe8261109e565b6000806000606084860312156110e3578182fd5b6110ec8461109e565b92506110fa6020850161109e565b9150604084013590509250925092565b6000806040838503121561111c578182fd5b6111258361109e565b946020939093013593505050565b600060208284031215611144578081fd5b8135610ffe81611711565b600060208284031215611160578081fd5b8151610ffe81611711565b60006020828403121561117c578081fd5b5035919050565b60008060408385031215611195578182fd5b823591506111a56020840161109e565b90509250929050565b6000602082840312156111bf578081fd5b81356001600160e01b031981168114610ffe578182fd5b600080602083850312156111e8578182fd5b823567ffffffffffffffff808211156111ff578384fd5b818501915085601f830112611212578384fd5b813581811115611220578485fd5b866020828501011115611231578485fd5b60209290920196919550909350505050565b60007f416363657373436f6e74726f6c3a206163636f756e74200000000000000000008252835161127b816017850160208801611679565b7f206973206d697373696e6720726f6c652000000000000000000000000000000060179184019182015283516112b8816028840160208801611679565b01602801949350505050565b918252602082015260400190565b6001600160a01b0391909116815260200190565b6001600160a01b039384168152919092166020820152604081019190915260600190565b6001600160a01b03929092168252602082015260400190565b6020808252825182820181905260009190848201906040850190845b818110156113645783516001600160a01b03168352928401929184019160010161133f565b50909695505050505050565b901515815260200190565b90815260200190565b60208101600583106113a657634e487b7160e01b600052602160045260246000fd5b91905290565b60006020825282518060208401526113cb816040850160208701611679565b601f01601f19169190910160400192915050565b6020808252818101527f537472696e67733a20686578206c656e67746820696e73756666696369656e74604082015260600190565b60208082526036908201527f50726f746f636f6c3a204f6e6c792070726f746f636f6c2061646d696e73206360408201527f616e2063616c6c20746869732066756e6374696f6e2e00000000000000000000606082015260800190565b60208082526035908201527f50726f746f636f6c3a204f6e6c79204e46544c6162732061646d696e7320636160408201527f6e2063616c6c20746869732066756e6374696f6e2e0000000000000000000000606082015260800190565b6020808252602e908201527f50726f746f636f6c436f6e74726f6c3a20696e76616c6964206d6f64756c652060408201527f747970652070726f76696465642e000000000000000000000000000000000000606082015260800190565b6020808252602e908201527f50726f746f636f6c436f6e74726f6c3a206665652063616e6e6f74206265206760408201527f726561746572207468616e203325000000000000000000000000000000000000606082015260800190565b60208082526034908201527f50726f746f636f6c20436f6e74726f6c3a206661696c656420746f207472616e60408201527f736665722070726f746f636f6c2066756e64732e000000000000000000000000606082015260800190565b6020808252602f908201527f416363657373436f6e74726f6c3a2063616e206f6e6c792072656e6f756e636560408201527f20726f6c657320666f722073656c660000000000000000000000000000000000606082015260800190565b60008219821115611655576116556116fb565b500190565b6000816000190483118215151615611674576116746116fb565b500290565b60005b8381101561169457818101518382015260200161167c565b838111156116a3576000848401525b50505050565b6000816116b8576116b86116fb565b506000190190565b6002810460018216806116d457607f821691505b602082108114156116f557634e487b7160e01b600052602260045260246000fd5b50919050565b634e487b7160e01b600052601160045260246000fd5b801515811461171f57600080fd5b5056fea164736f6c6343000800000a1884995e9e21b948f653f9596094b17f12f1b114ed4ca397c21461be57c16fe80245b6cbab6b03e029f6c88bff9595f9f5c30170f52598c3459ee71476ad59c1",
  "linkReferences": {},
  "deployedLinkReferences": {}
}