{
  "_format": "hh-sol-artifact-1",
  "contractName": "ProtocolControl",
  "sourceName": "contracts/ProtocolControl.sol",
  "abi": [
    {
      "inputs": [
        {
          "internalType": "address",
          "name": "_registry",
          "type": "address"
        },
        {
          "internalType": "address",
          "name": "_admin",
          "type": "address"
        },
        {
          "internalType": "string",
          "name": "_uri",
          "type": "string"
        }
      ],
      "stateMutability": "nonpayable",
      "type": "constructor"
    },
    {
      "anonymous": false,
      "inputs": [
        {
          "indexed": false,
          "internalType": "address",
          "name": "from",
          "type": "address"
        },
        {
          "indexed": false,
          "internalType": "uint256",
          "name": "amount",
          "type": "uint256"
        }
      ],
      "name": "EtherReceived",
      "type": "event"
    },
    {
      "anonymous": false,
      "inputs": [
        {
          "indexed": false,
          "internalType": "address",
          "name": "_newForwarder",
          "type": "address"
        }
      ],
      "name": "ForwarderUpdated",
      "type": "event"
    },
    {
      "anonymous": false,
      "inputs": [
        {
          "indexed": true,
          "internalType": "address",
          "name": "to",
          "type": "address"
        },
        {
          "indexed": true,
          "internalType": "address",
          "name": "currency",
          "type": "address"
        },
        {
          "indexed": false,
          "internalType": "uint256",
          "name": "amount",
          "type": "uint256"
        },
        {
          "indexed": false,
          "internalType": "uint256",
          "name": "fee",
          "type": "uint256"
        }
      ],
      "name": "FundsWithdrawn",
      "type": "event"
    },
    {
      "anonymous": false,
      "inputs": [
        {
          "indexed": true,
          "internalType": "bytes32",
          "name": "moduleId",
          "type": "bytes32"
        },
        {
          "indexed": true,
          "internalType": "address",
          "name": "module",
          "type": "address"
        }
      ],
      "name": "ModuleUpdated",
      "type": "event"
    },
    {
      "anonymous": false,
      "inputs": [
        {
          "indexed": true,
          "internalType": "bytes32",
          "name": "role",
          "type": "bytes32"
        },
        {
          "indexed": true,
          "internalType": "bytes32",
          "name": "previousAdminRole",
          "type": "bytes32"
        },
        {
          "indexed": true,
          "internalType": "bytes32",
          "name": "newAdminRole",
          "type": "bytes32"
        }
      ],
      "name": "RoleAdminChanged",
      "type": "event"
    },
    {
      "anonymous": false,
      "inputs": [
        {
          "indexed": true,
          "internalType": "bytes32",
          "name": "role",
          "type": "bytes32"
        },
        {
          "indexed": true,
          "internalType": "address",
          "name": "account",
          "type": "address"
        },
        {
          "indexed": true,
          "internalType": "address",
          "name": "sender",
          "type": "address"
        }
      ],
      "name": "RoleGranted",
      "type": "event"
    },
    {
      "anonymous": false,
      "inputs": [
        {
          "indexed": true,
          "internalType": "bytes32",
          "name": "role",
          "type": "bytes32"
        },
        {
          "indexed": true,
          "internalType": "address",
          "name": "account",
          "type": "address"
        },
        {
          "indexed": true,
          "internalType": "address",
          "name": "sender",
          "type": "address"
        }
      ],
      "name": "RoleRevoked",
      "type": "event"
    },
    {
      "anonymous": false,
      "inputs": [
        {
          "indexed": true,
          "internalType": "address",
          "name": "protocolControlAddress",
          "type": "address"
        },
        {
          "indexed": true,
          "internalType": "address",
          "name": "moduleAddress",
          "type": "address"
        },
        {
          "indexed": false,
          "internalType": "address",
          "name": "treasury",
          "type": "address"
        }
      ],
      "name": "RoyaltyTreasuryUpdated",
      "type": "event"
    },
    {
      "anonymous": false,
      "inputs": [
        {
          "indexed": false,
          "internalType": "address",
          "name": "_newTreasury",
          "type": "address"
        }
      ],
      "name": "TreasuryUpdated",
      "type": "event"
    },
    {
      "inputs": [],
      "name": "DEFAULT_ADMIN_ROLE",
      "outputs": [
        {
          "internalType": "bytes32",
          "name": "",
          "type": "bytes32"
        }
      ],
      "stateMutability": "view",
      "type": "function"
    },
    {
      "inputs": [],
      "name": "MAX_BPS",
      "outputs": [
        {
          "internalType": "uint128",
          "name": "",
          "type": "uint128"
        }
      ],
      "stateMutability": "view",
      "type": "function"
    },
    {
      "inputs": [
        {
          "internalType": "address",
          "name": "_newModuleAddress",
          "type": "address"
        },
        {
          "internalType": "uint256",
          "name": "_moduleType",
          "type": "uint256"
        }
      ],
      "name": "addModule",
      "outputs": [
        {
          "internalType": "bytes32",
          "name": "moduleId",
          "type": "bytes32"
        }
      ],
      "stateMutability": "nonpayable",
      "type": "function"
    },
    {
      "inputs": [],
      "name": "contractURI",
      "outputs": [
        {
          "internalType": "string",
          "name": "",
          "type": "string"
        }
      ],
      "stateMutability": "view",
      "type": "function"
    },
    {
      "inputs": [
        {
          "internalType": "uint256",
          "name": "_moduleType",
          "type": "uint256"
        }
      ],
      "name": "getAllModulesOfType",
      "outputs": [
        {
          "internalType": "address[]",
          "name": "allModules",
          "type": "address[]"
        }
      ],
      "stateMutability": "view",
      "type": "function"
    },
    {
      "inputs": [],
      "name": "getForwarder",
      "outputs": [
        {
          "internalType": "address",
          "name": "",
          "type": "address"
        }
      ],
      "stateMutability": "view",
      "type": "function"
    },
    {
      "inputs": [
        {
          "internalType": "bytes32",
          "name": "role",
          "type": "bytes32"
        }
      ],
      "name": "getRoleAdmin",
      "outputs": [
        {
          "internalType": "bytes32",
          "name": "",
          "type": "bytes32"
        }
      ],
      "stateMutability": "view",
      "type": "function"
    },
    {
      "inputs": [
        {
          "internalType": "bytes32",
          "name": "role",
          "type": "bytes32"
        },
        {
          "internalType": "uint256",
          "name": "index",
          "type": "uint256"
        }
      ],
      "name": "getRoleMember",
      "outputs": [
        {
          "internalType": "address",
          "name": "",
          "type": "address"
        }
      ],
      "stateMutability": "view",
      "type": "function"
    },
    {
      "inputs": [
        {
          "internalType": "bytes32",
          "name": "role",
          "type": "bytes32"
        }
      ],
      "name": "getRoleMemberCount",
      "outputs": [
        {
          "internalType": "uint256",
          "name": "",
          "type": "uint256"
        }
      ],
      "stateMutability": "view",
      "type": "function"
    },
    {
      "inputs": [
        {
          "internalType": "address",
          "name": "moduleAddress",
          "type": "address"
        }
      ],
      "name": "getRoyaltyTreasury",
      "outputs": [
        {
          "internalType": "address",
          "name": "",
          "type": "address"
        }
      ],
      "stateMutability": "view",
      "type": "function"
    },
    {
      "inputs": [
        {
          "internalType": "bytes32",
          "name": "role",
          "type": "bytes32"
        },
        {
          "internalType": "address",
          "name": "account",
          "type": "address"
        }
      ],
      "name": "grantRole",
      "outputs": [],
      "stateMutability": "nonpayable",
      "type": "function"
    },
    {
      "inputs": [
        {
          "internalType": "bytes32",
          "name": "role",
          "type": "bytes32"
        },
        {
          "internalType": "address",
          "name": "account",
          "type": "address"
        }
      ],
      "name": "hasRole",
      "outputs": [
        {
          "internalType": "bool",
          "name": "",
          "type": "bool"
        }
      ],
      "stateMutability": "view",
      "type": "function"
    },
    {
      "inputs": [
        {
          "internalType": "bytes32",
          "name": "",
          "type": "bytes32"
        }
      ],
      "name": "modules",
      "outputs": [
        {
          "internalType": "address",
          "name": "",
          "type": "address"
        }
      ],
      "stateMutability": "view",
      "type": "function"
    },
    {
      "inputs": [
        {
          "internalType": "uint256",
          "name": "",
          "type": "uint256"
        }
      ],
      "name": "numOfModuleType",
      "outputs": [
        {
          "internalType": "uint256",
          "name": "",
          "type": "uint256"
        }
      ],
      "stateMutability": "view",
      "type": "function"
    },
    {
      "inputs": [],
      "name": "registry",
      "outputs": [
        {
          "internalType": "address",
          "name": "",
          "type": "address"
        }
      ],
      "stateMutability": "view",
      "type": "function"
    },
    {
      "inputs": [
        {
          "internalType": "bytes32",
          "name": "role",
          "type": "bytes32"
        },
        {
          "internalType": "address",
          "name": "account",
          "type": "address"
        }
      ],
      "name": "renounceRole",
      "outputs": [],
      "stateMutability": "nonpayable",
      "type": "function"
    },
    {
      "inputs": [
        {
          "internalType": "bytes32",
          "name": "role",
          "type": "bytes32"
        },
        {
          "internalType": "address",
          "name": "account",
          "type": "address"
        }
      ],
      "name": "revokeRole",
      "outputs": [],
      "stateMutability": "nonpayable",
      "type": "function"
    },
    {
      "inputs": [],
      "name": "royaltyTreasury",
      "outputs": [
        {
          "internalType": "address",
          "name": "",
          "type": "address"
        }
      ],
      "stateMutability": "view",
      "type": "function"
    },
    {
      "inputs": [
        {
          "internalType": "string",
          "name": "_URI",
          "type": "string"
        }
      ],
      "name": "setContractURI",
      "outputs": [],
      "stateMutability": "nonpayable",
      "type": "function"
    },
    {
      "inputs": [
        {
          "internalType": "address",
          "name": "forwarder",
          "type": "address"
        }
      ],
      "name": "setForwarder",
      "outputs": [],
      "stateMutability": "nonpayable",
      "type": "function"
    },
    {
      "inputs": [
        {
          "internalType": "address",
          "name": "moduleAddress",
          "type": "address"
        },
        {
          "internalType": "address payable",
          "name": "_treasury",
          "type": "address"
        }
      ],
      "name": "setModuleRoyaltyTreasury",
      "outputs": [],
      "stateMutability": "nonpayable",
      "type": "function"
    },
    {
      "inputs": [
        {
          "internalType": "address payable",
          "name": "_treasury",
          "type": "address"
        }
      ],
      "name": "setRoyaltyTreasury",
      "outputs": [],
      "stateMutability": "nonpayable",
      "type": "function"
    },
    {
      "inputs": [
        {
          "internalType": "bytes4",
          "name": "interfaceId",
          "type": "bytes4"
        }
      ],
      "name": "supportsInterface",
      "outputs": [
        {
          "internalType": "bool",
          "name": "",
          "type": "bool"
        }
      ],
      "stateMutability": "view",
      "type": "function"
    },
    {
      "inputs": [
        {
          "internalType": "bytes32",
          "name": "_moduleId",
          "type": "bytes32"
        },
        {
          "internalType": "address",
          "name": "_newModuleAddress",
          "type": "address"
        }
      ],
      "name": "updateModule",
      "outputs": [],
      "stateMutability": "nonpayable",
      "type": "function"
    },
    {
      "inputs": [
        {
          "internalType": "address",
          "name": "to",
          "type": "address"
        },
        {
          "internalType": "address",
          "name": "currency",
          "type": "address"
        }
      ],
      "name": "withdrawFunds",
      "outputs": [],
      "stateMutability": "nonpayable",
      "type": "function"
    },
    {
      "stateMutability": "payable",
      "type": "receive"
    }
  ],
  "bytecode": "0x60806040523480156200001157600080fd5b50604051620027fd380380620027fd8339810160408190526200003491620002b1565b805162000049906008906020840190620001ee565b50600580546001600160a01b0385166001600160a01b03199182161790915560068054909116301790556200008060008362000089565b50505062000402565b620000a08282620000cc60201b6200169d1760201c565b6000828152600160209081526040909120620000c7918390620016ab620000dc821b17901c565b505050565b620000d88282620000fc565b5050565b6000620000f3836001600160a01b0384166200019c565b90505b92915050565b6000828152602081815260408083206001600160a01b038516845290915290205460ff16620000d8576000828152602081815260408083206001600160a01b03851684529091529020805460ff19166001179055620001583390565b6001600160a01b0316816001600160a01b0316837f2f8788117e7eff1d82e926ec794901d17c78024a50270940304540a733656f0d60405160405180910390a45050565b6000818152600183016020526040812054620001e557508154600181810184556000848152602080822090930184905584548482528286019093526040902091909155620000f6565b506000620000f6565b828054620001fc90620003af565b90600052602060002090601f0160209004810192826200022057600085556200026b565b82601f106200023b57805160ff19168380011785556200026b565b828001600101855582156200026b579182015b828111156200026b5782518255916020019190600101906200024e565b50620002799291506200027d565b5090565b5b808211156200027957600081556001016200027e565b80516001600160a01b0381168114620002ac57600080fd5b919050565b600080600060608486031215620002c6578283fd5b620002d18462000294565b92506020620002e281860162000294565b60408601519093506001600160401b0380821115620002ff578384fd5b818701915087601f83011262000313578384fd5b815181811115620003285762000328620003ec565b604051601f8201601f19908116603f01168101908382118183101715620003535762000353620003ec565b816040528281528a868487010111156200036b578687fd5b8693505b828410156200038e57848401860151818501870152928501926200036f565b828411156200039f57868684830101525b8096505050505050509250925092565b600181811c90821680620003c457607f821691505b60208210811415620003e657634e487b7160e01b600052602260045260246000fd5b50919050565b634e487b7160e01b600052604160045260246000fd5b6123eb80620004126000396000f3fe6080604052600436106101995760003560e01c8063938e3d7b116100e1578063b9998a241161008a578063d547741f11610064578063d547741f14610508578063e8a3d48514610528578063f2aab4b31461054a578063fd967f471461056a57600080fd5b8063b9998a24146104a8578063c097b1fb146104c8578063ca15c873146104e857600080fd5b8063a217fddf116100bb578063a217fddf14610430578063aca8417514610445578063b0b6cc1a1461047257600080fd5b8063938e3d7b146103db57806396362d32146103fb578063a00425261461041b57600080fd5b80633b98a7df116101435780637b1039991161011d5780637b103999146103575780639010d07c1461037757806391d148541461039757600080fd5b80633b98a7df146102ea5780633fff7bf81461030a5780634d8188851461033757600080fd5b8063248a9ca311610174578063248a9ca31461026c5780632f2ff15d146102aa57806336568abe146102ca57600080fd5b80620fa9fb146101dd57806301ffc9a7146101ff57806305e9ca9b1461023457600080fd5b366101d857604080513381523460208201527f1e57e3bb474320be3d2c77138f75b7c3941292d647f5f9634e33a8e94e0e069b910160405180910390a1005b600080fd5b3480156101e957600080fd5b506101fd6101f8366004612020565b6105a1565b005b34801561020b57600080fd5b5061021f61021a366004612112565b610c09565b60405190151581526020015b60405180910390f35b34801561024057600080fd5b50600654610254906001600160a01b031681565b6040516001600160a01b03909116815260200161022b565b34801561027857600080fd5b5061029c6102873660046120b5565b60009081526020819052604090206001015490565b60405190815260200161022b565b3480156102b657600080fd5b506101fd6102c53660046120cd565b610c34565b3480156102d657600080fd5b506101fd6102e53660046120cd565b610c5b565b3480156102f657600080fd5b506101fd610305366004611fe8565b610c7d565b34801561031657600080fd5b5061029c6103253660046120b5565b60036020526000908152604090205481565b34801561034357600080fd5b506101fd610352366004612058565b610de1565b34801561036357600080fd5b50600554610254906001600160a01b031681565b34801561038357600080fd5b506102546103923660046120f1565b610f55565b3480156103a357600080fd5b5061021f6103b23660046120cd565b6000918252602082815260408084206001600160a01b0393909316845291905290205460ff1690565b3480156103e757600080fd5b506101fd6103f636600461213a565b610f74565b34801561040757600080fd5b5061029c61041636600461206a565b611024565b34801561042757600080fd5b5061025461117b565b34801561043c57600080fd5b5061029c600081565b34801561045157600080fd5b506104656104603660046120b5565b611229565b60405161022b9190612240565b34801561047e57600080fd5b5061025461048d3660046120b5565b6002602052600090815260409020546001600160a01b031681565b3480156104b457600080fd5b506101fd6104c3366004611fe8565b611336565b3480156104d457600080fd5b506101fd6104e33660046120cd565b61142e565b3480156104f457600080fd5b5061029c6105033660046120b5565b6115b5565b34801561051457600080fd5b506101fd6105233660046120cd565b6115cc565b34801561053457600080fd5b5061053d6115d6565b60405161022b919061228d565b34801561055657600080fd5b50610254610565366004611fe8565b611668565b34801561057657600080fd5b5061058061271081565b6040516fffffffffffffffffffffffffffffffff909116815260200161022b565b3360009081527fad3228b676f7d3cd4284a5443f17f1962b36e491b30a40b2405849e597ba5fb5602052604090205460ff1661064a5760405162461bcd60e51b815260206004820152603d60248201527f50726f746f636f6c436f6e74726f6c3a204f6e6c792070726f746f636f6c206160448201527f646d696e732063616e2063616c6c20746869732066756e6374696f6e2e00000060648201526084015b60405180910390fd5b600554604080516361d027b360e01b815290516001600160a01b0390921691839160009184916361d027b3916004808301926020929190829003018186803b15801561069557600080fd5b505afa1580156106a9573d6000803e3d6000fd5b505050506040513d601f19601f820116820180604052508101906106cd9190612004565b90506000806001600160a01b0386166106e7575047610761565b6040516370a0823160e01b81523060048201526001600160a01b038516906370a082319060240160206040518083038186803b15801561072657600080fd5b505afa15801561073a573d6000803e3d6000fd5b505050506040513d601f19601f8201168201806040525081019061075e91906121a7565b90505b604051630e78de6f60e31b8152306004820152612710906001600160a01b038716906373c6f3789060240160206040518083038186803b1580156107a457600080fd5b505afa1580156107b8573d6000803e3d6000fd5b505050506040513d601f19601f820116820180604052508101906107dc91906121a7565b6107e690836122f8565b6107f091906122d8565b91506107fc8282612317565b90506001600160a01b0386166109bb576000876001600160a01b03168260405160006040518083038185875af1925050503d8060008114610859576040519150601f19603f3d011682016040523d82523d6000602084013e61085e565b606091505b50509050806108af5760405162461bcd60e51b815260206004820152601860248201527f6661696c656420746f2077697468647261772066756e647300000000000000006044820152606401610641565b6000846001600160a01b03168460405160006040518083038185875af1925050503d80600081146108fc576040519150601f19603f3d011682016040523d82523d6000602084013e610901565b606091505b505090508061095e5760405162461bcd60e51b8152602060048201526024808201527f6661696c656420746f2077697468647261772066756e647320746f20726567696044820152637374727960e01b6064820152608401610641565b876001600160a01b0316896001600160a01b03167f080a49aa43b33f2f3fe14496cbedde2305f0cc484e98afb78e943cf9881adc8a85876040516109ac929190918252602082015260400190565b60405180910390a35050610c00565b6001600160a01b0384166323b872dd336040516001600160e01b031960e084901b1681526001600160a01b039182166004820152908a16602482015260448101849052606401602060405180830381600087803b158015610a1b57600080fd5b505af1158015610a2f573d6000803e3d6000fd5b505050506040513d601f19601f82011682018060405250810190610a539190612095565b610a9f5760405162461bcd60e51b815260206004820152601a60248201527f6661696c656420746f207472616e73666572207061796d656e740000000000006044820152606401610641565b6001600160a01b0384166323b872dd336040516001600160e01b031960e084901b1681526001600160a01b039182166004820152908616602482015260448101859052606401602060405180830381600087803b158015610aff57600080fd5b505af1158015610b13573d6000803e3d6000fd5b505050506040513d601f19601f82011682018060405250810190610b379190612095565b610ba95760405162461bcd60e51b815260206004820152602660248201527f6661696c656420746f207472616e73666572207061796d656e7420746f20726560448201527f67697374727900000000000000000000000000000000000000000000000000006064820152608401610641565b856001600160a01b0316876001600160a01b03167f080a49aa43b33f2f3fe14496cbedde2305f0cc484e98afb78e943cf9881adc8a8385604051610bf7929190918252602082015260400190565b60405180910390a35b50505050505050565b60006001600160e01b03198216635a05180f60e01b1480610c2e5750610c2e826116c0565b92915050565b610c3e82826116f5565b6000828152600160205260409020610c5690826116ab565b505050565b610c65828261171b565b6000828152600160205260409020610c5690826117a3565b3360009081527fad3228b676f7d3cd4284a5443f17f1962b36e491b30a40b2405849e597ba5fb5602052604090205460ff16610d215760405162461bcd60e51b815260206004820152603d60248201527f50726f746f636f6c436f6e74726f6c3a204f6e6c792070726f746f636f6c206160448201527f646d696e732063616e2063616c6c20746869732066756e6374696f6e2e0000006064820152608401610641565b610d2a816117b8565b610d885760405162461bcd60e51b815260206004820152602960248201527f50726f746f636f6c436f6e74726f6c3a2070726f766964657220736861726573604482015268103a37b7903637bb9760b91b6064820152608401610641565b600680546001600160a01b0319166001600160a01b03831690811790915560405190815260009030907f55a6d5ecee94ad7f72b42efa05adae50807422b98f5c511cf7f0a0205b65b7519060200160405180910390a350565b3360009081527fad3228b676f7d3cd4284a5443f17f1962b36e491b30a40b2405849e597ba5fb5602052604090205460ff16610e855760405162461bcd60e51b815260206004820152603d60248201527f50726f746f636f6c436f6e74726f6c3a204f6e6c792070726f746f636f6c206160448201527f646d696e732063616e2063616c6c20746869732066756e6374696f6e2e0000006064820152608401610641565b610e8e816117b8565b610eec5760405162461bcd60e51b815260206004820152602960248201527f50726f746f636f6c436f6e74726f6c3a2070726f766964657220736861726573604482015268103a37b7903637bb9760b91b6064820152608401610641565b6001600160a01b0382811660008181526004602090815260409182902080546001600160a01b03191694861694851790559051928352909130917f55a6d5ecee94ad7f72b42efa05adae50807422b98f5c511cf7f0a0205b65b751910160405180910390a35050565b6000828152600160205260408120610f6d90836119e5565b9392505050565b3360009081527fad3228b676f7d3cd4284a5443f17f1962b36e491b30a40b2405849e597ba5fb5602052604090205460ff166110185760405162461bcd60e51b815260206004820152603d60248201527f50726f746f636f6c436f6e74726f6c3a204f6e6c792070726f746f636f6c206160448201527f646d696e732063616e2063616c6c20746869732066756e6374696f6e2e0000006064820152608401610641565b610c5660088383611f4f565b3360009081527fad3228b676f7d3cd4284a5443f17f1962b36e491b30a40b2405849e597ba5fb5602052604081205460ff166110c85760405162461bcd60e51b815260206004820152603d60248201527f50726f746f636f6c436f6e74726f6c3a204f6e6c792070726f746f636f6c206160448201527f646d696e732063616e2063616c6c20746869732066756e6374696f6e2e0000006064820152608401610641565b50600081815260036020818152604080842080548251808501829052808401889052835180820385018152606090910190935282519284019290922086865293909252919260019261111b9084906122c0565b909155505060008181526002602052604080822080546001600160a01b0319166001600160a01b0387169081179091559051909183917ff0d0fe9ecd941ad0096a6b95e0998ddcd76ba6a240a106fef284fc2d4f0caa419190a392915050565b6007546000906001600160a01b031661121957600560009054906101000a90046001600160a01b03166001600160a01b031663f645d4f96040518163ffffffff1660e01b815260040160206040518083038186803b1580156111dc57600080fd5b505afa1580156111f0573d6000803e3d6000fd5b505050506040513d601f19601f820116820180604052508101906112149190612004565b905090565b506007546001600160a01b031690565b6000818152600360205260409020546060908067ffffffffffffffff81111561126257634e487b7160e01b600052604160045260246000fd5b60405190808252806020026020018201604052801561128b578160200160208202803683370190505b50915060005b8181101561132f57604080516020810183905290810185905260009060600160408051601f1981840301815291815281516020928301206000818152600290935291205485519192506001600160a01b03169085908490811061130457634e487b7160e01b600052603260045260246000fd5b6001600160a01b0390921660209283029190910190910152506113286001826122c0565b9050611291565b5050919050565b3360009081527fad3228b676f7d3cd4284a5443f17f1962b36e491b30a40b2405849e597ba5fb5602052604090205460ff166113da5760405162461bcd60e51b815260206004820152603d60248201527f50726f746f636f6c436f6e74726f6c3a204f6e6c792070726f746f636f6c206160448201527f646d696e732063616e2063616c6c20746869732066756e6374696f6e2e0000006064820152608401610641565b600780546001600160a01b0319166001600160a01b0383169081179091556040519081527f9d90a82ec1d038d4e13317a0eb136f9c65b7ed42156fc204ec4b7c4731e739509060200160405180910390a150565b3360009081527fad3228b676f7d3cd4284a5443f17f1962b36e491b30a40b2405849e597ba5fb5602052604090205460ff166114d25760405162461bcd60e51b815260206004820152603d60248201527f50726f746f636f6c436f6e74726f6c3a204f6e6c792070726f746f636f6c206160448201527f646d696e732063616e2063616c6c20746869732066756e6374696f6e2e0000006064820152608401610641565b6000828152600260205260409020546001600160a01b031661155c5760405162461bcd60e51b815260206004820152603660248201527f50726f746f636f6c436f6e74726f6c3a2061206d6f64756c652077697468207460448201527f68697320494420646f6573206e6f742065786973742e000000000000000000006064820152608401610641565b60008281526002602052604080822080546001600160a01b0319166001600160a01b0385169081179091559051909184917ff0d0fe9ecd941ad0096a6b95e0998ddcd76ba6a240a106fef284fc2d4f0caa419190a35050565b6000818152600160205260408120610c2e906119f1565b610c6582826119fb565b6060600880546115e590612375565b80601f016020809104026020016040519081016040528092919081815260200182805461161190612375565b801561165e5780601f106116335761010080835404028352916020019161165e565b820191906000526020600020905b81548152906001019060200180831161164157829003601f168201915b5050505050905090565b6001600160a01b0380821660009081526004602052604081205490911680610c2e5750506006546001600160a01b0316919050565b6116a78282611a21565b5050565b6000610f6d836001600160a01b038416611abf565b60006001600160e01b03198216637965db0b60e01b1480610c2e57506301ffc9a760e01b6001600160e01b0319831614610c2e565b6000828152602081905260409020600101546117118133611b0e565b610c568383611a21565b6001600160a01b03811633146117995760405162461bcd60e51b815260206004820152602f60248201527f416363657373436f6e74726f6c3a2063616e206f6e6c792072656e6f756e636560448201527f20726f6c657320666f722073656c6600000000000000000000000000000000006064820152608401610641565b6116a78282611b8c565b6000610f6d836001600160a01b038416611c0b565b600554604080516361d027b360e01b8152905160009284926001600160a01b0391821692859285169163ce7c2ac29185916361d027b3916004808301926020929190829003018186803b15801561180e57600080fd5b505afa158015611822573d6000803e3d6000fd5b505050506040513d601f19601f820116820180604052508101906118469190612004565b6040516001600160e01b031960e084901b1681526001600160a01b03909116600482015260240160206040518083038186803b15801561188557600080fd5b505afa158015611899573d6000803e3d6000fd5b505050506040513d601f19601f820116820180604052508101906118bd91906121a7565b90506000836001600160a01b0316633a98ef396040518163ffffffff1660e01b815260040160206040518083038186803b1580156118fa57600080fd5b505afa15801561190e573d6000803e3d6000fd5b505050506040513d601f19601f8201168201806040525081019061193291906121a7565b9050600081611943612710856122f8565b61194d91906122d8565b604051630e78de6f60e31b8152306004820152909150600a9081906001600160a01b038716906373c6f3789060240160206040518083038186803b15801561199457600080fd5b505afa1580156119a8573d6000803e3d6000fd5b505050506040513d601f19601f820116820180604052508101906119cc91906121a7565b6119d69190612317565b90911015979650505050505050565b6000610f6d8383611d28565b6000610c2e825490565b600082815260208190526040902060010154611a178133611b0e565b610c568383611b8c565b6000828152602081815260408083206001600160a01b038516845290915290205460ff166116a7576000828152602081815260408083206001600160a01b03851684529091529020805460ff19166001179055611a7b3390565b6001600160a01b0316816001600160a01b0316837f2f8788117e7eff1d82e926ec794901d17c78024a50270940304540a733656f0d60405160405180910390a45050565b6000818152600183016020526040812054611b0657508154600181810184556000848152602080822090930184905584548482528286019093526040902091909155610c2e565b506000610c2e565b6000828152602081815260408083206001600160a01b038516845290915290205460ff166116a757611b4a816001600160a01b03166014611d60565b611b55836020611d60565b604051602001611b669291906121bf565b60408051601f198184030181529082905262461bcd60e51b82526106419160040161228d565b6000828152602081815260408083206001600160a01b038516845290915290205460ff16156116a7576000828152602081815260408083206001600160a01b0385168085529252808320805460ff1916905551339285917ff6391f5c32d9c69d2a47ea670b442974b53935d1edc7fd64eb21e047a839171b9190a45050565b60008181526001830160205260408120548015611d1e576000611c2f600183612317565b8554909150600090611c4390600190612317565b9050818114611cc4576000866000018281548110611c7157634e487b7160e01b600052603260045260246000fd5b9060005260206000200154905080876000018481548110611ca257634e487b7160e01b600052603260045260246000fd5b6000918252602080832090910192909255918252600188019052604090208390555b8554869080611ce357634e487b7160e01b600052603160045260246000fd5b600190038181906000526020600020016000905590558560010160008681526020019081526020016000206000905560019350505050610c2e565b6000915050610c2e565b6000826000018281548110611d4d57634e487b7160e01b600052603260045260246000fd5b9060005260206000200154905092915050565b60606000611d6f8360026122f8565b611d7a9060026122c0565b67ffffffffffffffff811115611da057634e487b7160e01b600052604160045260246000fd5b6040519080825280601f01601f191660200182016040528015611dca576020820181803683370190505b509050600360fc1b81600081518110611df357634e487b7160e01b600052603260045260246000fd5b60200101906001600160f81b031916908160001a905350600f60fb1b81600181518110611e3057634e487b7160e01b600052603260045260246000fd5b60200101906001600160f81b031916908160001a9053506000611e548460026122f8565b611e5f9060016122c0565b90505b6001811115611f00577f303132333435363738396162636465660000000000000000000000000000000085600f1660108110611eae57634e487b7160e01b600052603260045260246000fd5b1a60f81b828281518110611ed257634e487b7160e01b600052603260045260246000fd5b60200101906001600160f81b031916908160001a90535060049490941c93611ef98161235e565b9050611e62565b508315610f6d5760405162461bcd60e51b815260206004820181905260248201527f537472696e67733a20686578206c656e67746820696e73756666696369656e746044820152606401610641565b828054611f5b90612375565b90600052602060002090601f016020900481019282611f7d5760008555611fc3565b82601f10611f965782800160ff19823516178555611fc3565b82800160010185558215611fc3579182015b82811115611fc3578235825591602001919060010190611fa8565b50611fcf929150611fd3565b5090565b5b80821115611fcf5760008155600101611fd4565b600060208284031215611ff9578081fd5b8135610f6d816123c6565b600060208284031215612015578081fd5b8151610f6d816123c6565b60008060408385031215612032578081fd5b823561203d816123c6565b9150602083013561204d816123c6565b809150509250929050565b60008060408385031215612032578182fd5b6000806040838503121561207c578182fd5b8235612087816123c6565b946020939093013593505050565b6000602082840312156120a6578081fd5b81518015158114610f6d578182fd5b6000602082840312156120c6578081fd5b5035919050565b600080604083850312156120df578182fd5b82359150602083013561204d816123c6565b60008060408385031215612103578182fd5b50508035926020909101359150565b600060208284031215612123578081fd5b81356001600160e01b031981168114610f6d578182fd5b6000806020838503121561214c578182fd5b823567ffffffffffffffff80821115612163578384fd5b818501915085601f830112612176578384fd5b813581811115612184578485fd5b866020828501011115612195578485fd5b60209290920196919550909350505050565b6000602082840312156121b8578081fd5b5051919050565b7f416363657373436f6e74726f6c3a206163636f756e74200000000000000000008152600083516121f781601785016020880161232e565b7f206973206d697373696e6720726f6c6520000000000000000000000000000000601791840191820152835161223481602884016020880161232e565b01602801949350505050565b6020808252825182820181905260009190848201906040850190845b818110156122815783516001600160a01b03168352928401929184019160010161225c565b50909695505050505050565b60208152600082518060208401526122ac81604085016020870161232e565b601f01601f19169190910160400192915050565b600082198211156122d3576122d36123b0565b500190565b6000826122f357634e487b7160e01b81526012600452602481fd5b500490565b6000816000190483118215151615612312576123126123b0565b500290565b600082821015612329576123296123b0565b500390565b60005b83811015612349578181015183820152602001612331565b83811115612358576000848401525b50505050565b60008161236d5761236d6123b0565b506000190190565b600181811c9082168061238957607f821691505b602082108114156123aa57634e487b7160e01b600052602260045260246000fd5b50919050565b634e487b7160e01b600052601160045260246000fd5b6001600160a01b03811681146123db57600080fd5b5056fea164736f6c6343000804000a",
  "linkReferences": {},
  "deployedLinkReferences": {}
}