{
  "_format": "hh-sol-artifact-1",
  "contractName": "ProtocolControl",
  "sourceName": "contracts/ProtocolControl.sol",
  "abi": [
    {
      "inputs": [
        {
          "internalType": "address",
          "name": "_registry",
          "type": "address"
        },
        {
          "internalType": "address",
          "name": "_admin",
          "type": "address"
        },
        {
          "internalType": "string",
          "name": "_uri",
          "type": "string"
        }
      ],
      "stateMutability": "nonpayable",
      "type": "constructor"
    },
    {
      "anonymous": false,
      "inputs": [
        {
          "indexed": false,
          "internalType": "address",
          "name": "_newForwarder",
          "type": "address"
        }
      ],
      "name": "ForwarderUpdated",
      "type": "event"
    },
    {
      "anonymous": false,
      "inputs": [
        {
          "indexed": true,
          "internalType": "bytes32",
          "name": "moduleId",
          "type": "bytes32"
        },
        {
          "indexed": true,
          "internalType": "address",
          "name": "module",
          "type": "address"
        }
      ],
      "name": "ModuleUpdated",
      "type": "event"
    },
    {
      "anonymous": false,
      "inputs": [
        {
          "indexed": true,
          "internalType": "bytes32",
          "name": "role",
          "type": "bytes32"
        },
        {
          "indexed": true,
          "internalType": "bytes32",
          "name": "previousAdminRole",
          "type": "bytes32"
        },
        {
          "indexed": true,
          "internalType": "bytes32",
          "name": "newAdminRole",
          "type": "bytes32"
        }
      ],
      "name": "RoleAdminChanged",
      "type": "event"
    },
    {
      "anonymous": false,
      "inputs": [
        {
          "indexed": true,
          "internalType": "bytes32",
          "name": "role",
          "type": "bytes32"
        },
        {
          "indexed": true,
          "internalType": "address",
          "name": "account",
          "type": "address"
        },
        {
          "indexed": true,
          "internalType": "address",
          "name": "sender",
          "type": "address"
        }
      ],
      "name": "RoleGranted",
      "type": "event"
    },
    {
      "anonymous": false,
      "inputs": [
        {
          "indexed": true,
          "internalType": "bytes32",
          "name": "role",
          "type": "bytes32"
        },
        {
          "indexed": true,
          "internalType": "address",
          "name": "account",
          "type": "address"
        },
        {
          "indexed": true,
          "internalType": "address",
          "name": "sender",
          "type": "address"
        }
      ],
      "name": "RoleRevoked",
      "type": "event"
    },
    {
      "anonymous": false,
      "inputs": [
        {
          "indexed": false,
          "internalType": "bool",
          "name": "isPaused",
          "type": "bool"
        }
      ],
      "name": "SystemPaused",
      "type": "event"
    },
    {
      "anonymous": false,
      "inputs": [
        {
          "indexed": false,
          "internalType": "address",
          "name": "_newTreasury",
          "type": "address"
        }
      ],
      "name": "TreasuryUpdated",
      "type": "event"
    },
    {
      "inputs": [],
      "name": "DEFAULT_ADMIN_ROLE",
      "outputs": [
        {
          "internalType": "bytes32",
          "name": "",
          "type": "bytes32"
        }
      ],
      "stateMutability": "view",
      "type": "function"
    },
    {
      "inputs": [],
      "name": "MAX_BPS",
      "outputs": [
        {
          "internalType": "uint128",
          "name": "",
          "type": "uint128"
        }
      ],
      "stateMutability": "view",
      "type": "function"
    },
    {
      "inputs": [
        {
          "internalType": "address",
          "name": "_newModuleAddress",
          "type": "address"
        },
        {
          "internalType": "uint256",
          "name": "_moduleType",
          "type": "uint256"
        }
      ],
      "name": "addModule",
      "outputs": [
        {
          "internalType": "bytes32",
          "name": "moduleId",
          "type": "bytes32"
        }
      ],
      "stateMutability": "nonpayable",
      "type": "function"
    },
    {
      "inputs": [],
      "name": "contractURI",
      "outputs": [
        {
          "internalType": "string",
          "name": "",
          "type": "string"
        }
      ],
      "stateMutability": "view",
      "type": "function"
    },
    {
      "inputs": [
        {
          "internalType": "uint256",
          "name": "_moduleType",
          "type": "uint256"
        }
      ],
      "name": "getAllModulesOfType",
      "outputs": [
        {
          "internalType": "address[]",
          "name": "allModules",
          "type": "address[]"
        }
      ],
      "stateMutability": "view",
      "type": "function"
    },
    {
      "inputs": [],
      "name": "getForwarder",
      "outputs": [
        {
          "internalType": "address",
          "name": "",
          "type": "address"
        }
      ],
      "stateMutability": "view",
      "type": "function"
    },
    {
      "inputs": [
        {
          "internalType": "bytes32",
          "name": "role",
          "type": "bytes32"
        }
      ],
      "name": "getRoleAdmin",
      "outputs": [
        {
          "internalType": "bytes32",
          "name": "",
          "type": "bytes32"
        }
      ],
      "stateMutability": "view",
      "type": "function"
    },
    {
      "inputs": [
        {
          "internalType": "bytes32",
          "name": "role",
          "type": "bytes32"
        },
        {
          "internalType": "uint256",
          "name": "index",
          "type": "uint256"
        }
      ],
      "name": "getRoleMember",
      "outputs": [
        {
          "internalType": "address",
          "name": "",
          "type": "address"
        }
      ],
      "stateMutability": "view",
      "type": "function"
    },
    {
      "inputs": [
        {
          "internalType": "bytes32",
          "name": "role",
          "type": "bytes32"
        }
      ],
      "name": "getRoleMemberCount",
      "outputs": [
        {
          "internalType": "uint256",
          "name": "",
          "type": "uint256"
        }
      ],
      "stateMutability": "view",
      "type": "function"
    },
    {
      "inputs": [
        {
          "internalType": "address",
          "name": "moduleAddress",
          "type": "address"
        }
      ],
      "name": "getRoyaltyTreasury",
      "outputs": [
        {
          "internalType": "address",
          "name": "",
          "type": "address"
        }
      ],
      "stateMutability": "view",
      "type": "function"
    },
    {
      "inputs": [
        {
          "internalType": "bytes32",
          "name": "role",
          "type": "bytes32"
        },
        {
          "internalType": "address",
          "name": "account",
          "type": "address"
        }
      ],
      "name": "grantRole",
      "outputs": [],
      "stateMutability": "nonpayable",
      "type": "function"
    },
    {
      "inputs": [
        {
          "internalType": "bytes32",
          "name": "role",
          "type": "bytes32"
        },
        {
          "internalType": "address",
          "name": "account",
          "type": "address"
        }
      ],
      "name": "hasRole",
      "outputs": [
        {
          "internalType": "bool",
          "name": "",
          "type": "bool"
        }
      ],
      "stateMutability": "view",
      "type": "function"
    },
    {
      "inputs": [
        {
          "internalType": "bytes32",
          "name": "",
          "type": "bytes32"
        }
      ],
      "name": "modules",
      "outputs": [
        {
          "internalType": "address",
          "name": "",
          "type": "address"
        }
      ],
      "stateMutability": "view",
      "type": "function"
    },
    {
      "inputs": [
        {
          "internalType": "uint256",
          "name": "",
          "type": "uint256"
        }
      ],
      "name": "numOfModuleType",
      "outputs": [
        {
          "internalType": "uint256",
          "name": "",
          "type": "uint256"
        }
      ],
      "stateMutability": "view",
      "type": "function"
    },
    {
      "inputs": [
        {
          "internalType": "bool",
          "name": "_toPause",
          "type": "bool"
        }
      ],
      "name": "pauseProtocol",
      "outputs": [],
      "stateMutability": "nonpayable",
      "type": "function"
    },
    {
      "inputs": [],
      "name": "registry",
      "outputs": [
        {
          "internalType": "address",
          "name": "",
          "type": "address"
        }
      ],
      "stateMutability": "view",
      "type": "function"
    },
    {
      "inputs": [
        {
          "internalType": "bytes32",
          "name": "role",
          "type": "bytes32"
        },
        {
          "internalType": "address",
          "name": "account",
          "type": "address"
        }
      ],
      "name": "renounceRole",
      "outputs": [],
      "stateMutability": "nonpayable",
      "type": "function"
    },
    {
      "inputs": [
        {
          "internalType": "bytes32",
          "name": "role",
          "type": "bytes32"
        },
        {
          "internalType": "address",
          "name": "account",
          "type": "address"
        }
      ],
      "name": "revokeRole",
      "outputs": [],
      "stateMutability": "nonpayable",
      "type": "function"
    },
    {
      "inputs": [],
      "name": "royaltyTreasury",
      "outputs": [
        {
          "internalType": "address",
          "name": "",
          "type": "address"
        }
      ],
      "stateMutability": "view",
      "type": "function"
    },
    {
      "inputs": [
        {
          "internalType": "string",
          "name": "_URI",
          "type": "string"
        }
      ],
      "name": "setContractURI",
      "outputs": [],
      "stateMutability": "nonpayable",
      "type": "function"
    },
    {
      "inputs": [
        {
          "internalType": "address",
          "name": "forwarder",
          "type": "address"
        }
      ],
      "name": "setForwarder",
      "outputs": [],
      "stateMutability": "nonpayable",
      "type": "function"
    },
    {
      "inputs": [
        {
          "internalType": "address",
          "name": "moduleAddress",
          "type": "address"
        },
        {
          "internalType": "address payable",
          "name": "_treasury",
          "type": "address"
        }
      ],
      "name": "setModuleRoyaltyTreasury",
      "outputs": [],
      "stateMutability": "nonpayable",
      "type": "function"
    },
    {
      "inputs": [
        {
          "internalType": "address payable",
          "name": "_treasury",
          "type": "address"
        }
      ],
      "name": "setRoyaltyTreasury",
      "outputs": [],
      "stateMutability": "nonpayable",
      "type": "function"
    },
    {
      "inputs": [
        {
          "internalType": "bytes4",
          "name": "interfaceId",
          "type": "bytes4"
        }
      ],
      "name": "supportsInterface",
      "outputs": [
        {
          "internalType": "bool",
          "name": "",
          "type": "bool"
        }
      ],
      "stateMutability": "view",
      "type": "function"
    },
    {
      "inputs": [],
      "name": "systemPaused",
      "outputs": [
        {
          "internalType": "bool",
          "name": "",
          "type": "bool"
        }
      ],
      "stateMutability": "view",
      "type": "function"
    },
    {
      "inputs": [
        {
          "internalType": "bytes32",
          "name": "_moduleId",
          "type": "bytes32"
        },
        {
          "internalType": "address",
          "name": "_newModuleAddress",
          "type": "address"
        }
      ],
      "name": "updateModule",
      "outputs": [],
      "stateMutability": "nonpayable",
      "type": "function"
    }
  ],
  "bytecode": "0x60806040523480156200001157600080fd5b5060405162001ea938038062001ea9833981016040819052620000349162000381565b805162000049906008906020840190620002a1565b50600580546001600160a01b0319166001600160a01b038516908117909155604080516361d027b360e01b815290516361d027b391600480820192602092909190829003018186803b1580156200009f57600080fd5b505afa158015620000b4573d6000803e3d6000fd5b505050506040513d601f19601f82011682018060405250810190620000da919062000364565b600680546001600160a01b0319166001600160a01b03929092169190911790556200010760008362000110565b505050620004cb565b6200012782826200015360201b62000b251760201c565b60008281526001602090815260409091206200014e91839062000b3362000163821b17901c565b505050565b6200015f828262000183565b5050565b60006200017a836001600160a01b0384166200020d565b90505b92915050565b6200018f82826200025c565b6200015f576000828152602081815260408083206001600160a01b03851684529091529020805460ff19166001179055620001c962000285565b6001600160a01b0316816001600160a01b0316837f2f8788117e7eff1d82e926ec794901d17c78024a50270940304540a733656f0d60405160405180910390a45050565b60006200021b838362000289565b62000253575081546001818101845560008481526020808220909301849055845484825282860190935260409020919091556200017d565b5060006200017d565b6000918252602082815260408084206001600160a01b0393909316845291905290205460ff1690565b3390565b60009081526001919091016020526040902054151590565b828054620002af9062000478565b90600052602060002090601f016020900481019282620002d357600085556200031e565b82601f10620002ee57805160ff19168380011785556200031e565b828001600101855582156200031e579182015b828111156200031e57825182559160200191906001019062000301565b506200032c92915062000330565b5090565b5b808211156200032c576000815560010162000331565b80516001600160a01b03811681146200035f57600080fd5b919050565b60006020828403121562000376578081fd5b6200017a8262000347565b60008060006060848603121562000396578182fd5b620003a18462000347565b92506020620003b281860162000347565b60408601519093506001600160401b0380821115620003cf578384fd5b818701915087601f830112620003e3578384fd5b815181811115620003f857620003f8620004b5565b604051601f8201601f19168101850183811182821017156200041e576200041e620004b5565b60405281815283820185018a101562000435578586fd5b8592505b8183101562000458578383018501518184018601529184019162000439565b818311156200046957858583830101525b80955050505050509250925092565b6002810460018216806200048d57607f821691505b60208210811415620004af57634e487b7160e01b600052602260045260246000fd5b50919050565b634e487b7160e01b600052604160045260246000fd5b6119ce80620004db6000396000f3fe608060405234801561001057600080fd5b50600436106101ae5760003560e01c80639d2f83f0116100ee578063c097b1fb11610097578063e8a3d48511610071578063e8a3d4851461035d578063ef2933ec14610372578063f2aab4b314610385578063fd967f4714610398576101ae565b8063c097b1fb14610324578063ca15c87314610337578063d547741f1461034a576101ae565b8063aca84175116100c8578063aca84175146102de578063b0b6cc1a146102fe578063b9998a2414610311576101ae565b80639d2f83f0146102c6578063a0042526146102ce578063a217fddf146102d6576101ae565b80633fff7bf81161015b5780639010d07c116101355780639010d07c1461027a57806391d148541461028d578063938e3d7b146102a057806396362d32146102b3576101ae565b80633fff7bf81461024c5780634d8188851461025f5780637b10399914610272576101ae565b80632f2ff15d1161018c5780632f2ff15d1461021157806336568abe146102265780633b98a7df14610239576101ae565b806301ffc9a7146101b357806305e9ca9b146101dc578063248a9ca3146101f1575b600080fd5b6101c66101c13660046114f9565b6103ad565b6040516101d39190611696565b60405180910390f35b6101e46103da565b6040516101d39190611635565b6102046101ff36600461149c565b6103e9565b6040516101d391906116a1565b61022461021f3660046114b4565b6103fe565b005b6102246102343660046114b4565b610425565b6102246102473660046113e1565b610447565b61020461025a36600461149c565b6104be565b61022461026d366004611419565b6104d0565b6101e461054a565b6101e46102883660046114d8565b610559565b6101c661029b3660046114b4565b61057a565b6102246102ae366004611521565b6105a3565b6102046102c1366004611451565b6105d6565b6101c66106bc565b6101e46106c5565b610204610776565b6102f16102ec36600461149c565b61077b565b6040516101d39190611649565b6101e461030c36600461149c565b610886565b61022461031f3660046113e1565b6108a1565b6102246103323660046114b4565b61091e565b61020461034536600461149c565b6109d2565b6102246103583660046114b4565b6109e9565b6103656109f3565b6040516101d391906116aa565b61022461038036600461147c565b610a85565b6101e46103933660046113e1565b610aea565b6103a0610b1f565b6040516101d39190611886565b60006001600160e01b03198216635a05180f60e01b14806103d257506103d282610b48565b90505b919050565b6006546001600160a01b031681565b60009081526020819052604090206001015490565b6104088282610b6d565b60008281526001602052604090206104209082610b33565b505050565b61042f8282610b91565b60008281526001602052604090206104209082610bd3565b61045260003361057a565b6104775760405162461bcd60e51b815260040161046e90611712565b60405180910390fd5b61048081610be8565b61049c5760405162461bcd60e51b815260040161046e906117cc565b600680546001600160a01b0319166001600160a01b0392909216919091179055565b60036020526000908152604090205481565b6104db60003361057a565b6104f75760405162461bcd60e51b815260040161046e90611712565b61050081610be8565b61051c5760405162461bcd60e51b815260040161046e906117cc565b6001600160a01b03918216600090815260046020526040902080546001600160a01b03191691909216179055565b6005546001600160a01b031681565b60008281526001602052604081206105719083610e0f565b90505b92915050565b6000918252602082815260408084206001600160a01b0393909316845291905290205460ff1690565b6105ae60003361057a565b6105ca5760405162461bcd60e51b815260040161046e90611712565b61042060088383611348565b60006105e2813361057a565b6105fe5760405162461bcd60e51b815260040161046e90611712565b6000828152600360209081526040918290205491516106209291859101611627565b604051602081830303815290604052805190602001209050600160036000848152602001908152602001600020600082825461065c91906118a3565b909155505060008181526002602052604080822080546001600160a01b0319166001600160a01b0387169081179091559051909183917ff0d0fe9ecd941ad0096a6b95e0998ddcd76ba6a240a106fef284fc2d4f0caa419190a392915050565b60095460ff1681565b6007546000906001600160a01b031661076557600560009054906101000a90046001600160a01b03166001600160a01b031663f645d4f96040518163ffffffff1660e01b815260040160206040518083038186803b15801561072657600080fd5b505afa15801561073a573d6000803e3d6000fd5b505050506040513d601f19601f8201168201806040525081019061075e91906113fd565b9050610773565b506007546001600160a01b03165b90565b600081565b6000818152600360205260409020546060908067ffffffffffffffff8111156107b457634e487b7160e01b600052604160045260246000fd5b6040519080825280602002602001820160405280156107dd578160200160208202803683370190505b50915060005b8181101561087f5760008185604051602001610800929190611627565b60408051601f1981840301815291815281516020928301206000818152600290935291205485519192506001600160a01b03169085908490811061085457634e487b7160e01b600052603260045260246000fd5b6001600160a01b0390921660209283029190910190910152506108786001826118a3565b90506107e3565b5050919050565b6002602052600090815260409020546001600160a01b031681565b6108ac60003361057a565b6108c85760405162461bcd60e51b815260040161046e90611712565b600780546001600160a01b0319166001600160a01b0383161790556040517f9d90a82ec1d038d4e13317a0eb136f9c65b7ed42156fc204ec4b7c4731e7395090610913908390611635565b60405180910390a150565b61092960003361057a565b6109455760405162461bcd60e51b815260040161046e90611712565b6000828152600260205260409020546001600160a01b03166109795760405162461bcd60e51b815260040161046e9061176f565b60008281526002602052604080822080546001600160a01b0319166001600160a01b0385169081179091559051909184917ff0d0fe9ecd941ad0096a6b95e0998ddcd76ba6a240a106fef284fc2d4f0caa419190a35050565b60008181526001602052604081206103d290610e1b565b61042f8282610e26565b606060088054610a0290611958565b80601f0160208091040260200160405190810160405280929190818152602001828054610a2e90611958565b8015610a7b5780601f10610a5057610100808354040283529160200191610a7b565b820191906000526020600020905b815481529060010190602001808311610a5e57829003601f168201915b5050505050905090565b610a9060003361057a565b610aac5760405162461bcd60e51b815260040161046e90611712565b6009805460ff19168215151790556040517f59617e84cd4a4d47c34c76f190da73d3a6a0236e0770dcba41851db53f336f5790610913908390611696565b6001600160a01b03808216600090815260046020526040812054909116806103d25750506006546001600160a01b03166103d5565b61271081565b610b2f8282610e45565b5050565b6000610571836001600160a01b038416610eca565b60006001600160e01b03198216637965db0b60e01b14806103d257506103d282610f14565b610b76826103e9565b610b8781610b82610f2d565b610f31565b6104208383610e45565b610b99610f2d565b6001600160a01b0316816001600160a01b031614610bc95760405162461bcd60e51b815260040161046e90611829565b610b2f8282610f95565b6000610571836001600160a01b038416611018565b600554604080516361d027b360e01b8152905160009284926001600160a01b0391821692859285169163ce7c2ac29185916361d027b3916004808301926020929190829003018186803b158015610c3e57600080fd5b505afa158015610c52573d6000803e3d6000fd5b505050506040513d601f19601f82011682018060405250810190610c7691906113fd565b6040518263ffffffff1660e01b8152600401610c929190611635565b60206040518083038186803b158015610caa57600080fd5b505afa158015610cbe573d6000803e3d6000fd5b505050506040513d601f19601f82011682018060405250810190610ce2919061158e565b90506000836001600160a01b0316633a98ef396040518163ffffffff1660e01b815260040160206040518083038186803b158015610d1f57600080fd5b505afa158015610d33573d6000803e3d6000fd5b505050506040513d601f19601f82011682018060405250810190610d57919061158e565b9050600081610d68612710856118db565b610d7291906118bb565b604051630e78de6f60e31b8152909150600a9081906001600160a01b038716906373c6f37890610da6903090600401611635565b60206040518083038186803b158015610dbe57600080fd5b505afa158015610dd2573d6000803e3d6000fd5b505050506040513d601f19601f82011682018060405250810190610df6919061158e565b610e0091906118fa565b90911015979650505050505050565b60006105718383611135565b60006103d28261116d565b610e2f826103e9565b610e3b81610b82610f2d565b6104208383610f95565b610e4f828261057a565b610b2f576000828152602081815260408083206001600160a01b03851684529091529020805460ff19166001179055610e86610f2d565b6001600160a01b0316816001600160a01b0316837f2f8788117e7eff1d82e926ec794901d17c78024a50270940304540a733656f0d60405160405180910390a45050565b6000610ed68383611171565b610f0c57508154600181810184556000848152602080822090930184905584548482528286019093526040902091909155610574565b506000610574565b6001600160e01b031981166301ffc9a760e01b14919050565b3390565b610f3b828261057a565b610b2f57610f53816001600160a01b03166014611189565b610f5e836020611189565b604051602001610f6f9291906115a6565b60408051601f198184030181529082905262461bcd60e51b825261046e916004016116aa565b610f9f828261057a565b15610b2f576000828152602081815260408083206001600160a01b03851684529091529020805460ff19169055610fd4610f2d565b6001600160a01b0316816001600160a01b0316837ff6391f5c32d9c69d2a47ea670b442974b53935d1edc7fd64eb21e047a839171b60405160405180910390a45050565b6000818152600183016020526040812054801561112b57600061103c6001836118fa565b8554909150600090611050906001906118fa565b90508181146110d157600086600001828154811061107e57634e487b7160e01b600052603260045260246000fd5b90600052602060002001549050808760000184815481106110af57634e487b7160e01b600052603260045260246000fd5b6000918252602080832090910192909255918252600188019052604090208390555b85548690806110f057634e487b7160e01b600052603160045260246000fd5b600190038181906000526020600020016000905590558560010160008681526020019081526020016000206000905560019350505050610574565b6000915050610574565b600082600001828154811061115a57634e487b7160e01b600052603260045260246000fd5b9060005260206000200154905092915050565b5490565b60009081526001919091016020526040902054151590565b606060006111988360026118db565b6111a39060026118a3565b67ffffffffffffffff8111156111c957634e487b7160e01b600052604160045260246000fd5b6040519080825280601f01601f1916602001820160405280156111f3576020820181803683370190505b509050600360fc1b8160008151811061121c57634e487b7160e01b600052603260045260246000fd5b60200101906001600160f81b031916908160001a905350600f60fb1b8160018151811061125957634e487b7160e01b600052603260045260246000fd5b60200101906001600160f81b031916908160001a905350600061127d8460026118db565b6112889060016118a3565b90505b6001811115611329577f303132333435363738396162636465660000000000000000000000000000000085600f16601081106112d757634e487b7160e01b600052603260045260246000fd5b1a60f81b8282815181106112fb57634e487b7160e01b600052603260045260246000fd5b60200101906001600160f81b031916908160001a90535060049490941c9361132281611941565b905061128b565b5083156105715760405162461bcd60e51b815260040161046e906116dd565b82805461135490611958565b90600052602060002090601f01602090048101928261137657600085556113bc565b82601f1061138f5782800160ff198235161785556113bc565b828001600101855582156113bc579182015b828111156113bc5782358255916020019190600101906113a1565b506113c89291506113cc565b5090565b5b808211156113c857600081556001016113cd565b6000602082840312156113f2578081fd5b8135610571816119a9565b60006020828403121561140e578081fd5b8151610571816119a9565b6000806040838503121561142b578081fd5b8235611436816119a9565b91506020830135611446816119a9565b809150509250929050565b60008060408385031215611463578182fd5b823561146e816119a9565b946020939093013593505050565b60006020828403121561148d578081fd5b81358015158114610571578182fd5b6000602082840312156114ad578081fd5b5035919050565b600080604083850312156114c6578182fd5b823591506020830135611446816119a9565b600080604083850312156114ea578182fd5b50508035926020909101359150565b60006020828403121561150a578081fd5b81356001600160e01b031981168114610571578182fd5b60008060208385031215611533578182fd5b823567ffffffffffffffff8082111561154a578384fd5b818501915085601f83011261155d578384fd5b81358181111561156b578485fd5b86602082850101111561157c578485fd5b60209290920196919550909350505050565b60006020828403121561159f578081fd5b5051919050565b60007f416363657373436f6e74726f6c3a206163636f756e7420000000000000000000825283516115de816017850160208801611911565b7f206973206d697373696e6720726f6c6520000000000000000000000000000000601791840191820152835161161b816028840160208801611911565b01602801949350505050565b918252602082015260400190565b6001600160a01b0391909116815260200190565b6020808252825182820181905260009190848201906040850190845b8181101561168a5783516001600160a01b031683529284019291840191600101611665565b50909695505050505050565b901515815260200190565b90815260200190565b60006020825282518060208401526116c9816040850160208701611911565b601f01601f19169190910160400192915050565b6020808252818101527f537472696e67733a20686578206c656e67746820696e73756666696369656e74604082015260600190565b6020808252603d908201527f50726f746f636f6c436f6e74726f6c3a204f6e6c792070726f746f636f6c206160408201527f646d696e732063616e2063616c6c20746869732066756e6374696f6e2e000000606082015260800190565b60208082526036908201527f50726f746f636f6c436f6e74726f6c3a2061206d6f64756c652077697468207460408201527f68697320494420646f6573206e6f742065786973742e00000000000000000000606082015260800190565b60208082526029908201527f50726f746f636f6c436f6e74726f6c3a2070726f76696465722073686172657360408201527f20746f6f206c6f772e0000000000000000000000000000000000000000000000606082015260800190565b6020808252602f908201527f416363657373436f6e74726f6c3a2063616e206f6e6c792072656e6f756e636560408201527f20726f6c657320666f722073656c660000000000000000000000000000000000606082015260800190565b6fffffffffffffffffffffffffffffffff91909116815260200190565b600082198211156118b6576118b6611993565b500190565b6000826118d657634e487b7160e01b81526012600452602481fd5b500490565b60008160001904831182151516156118f5576118f5611993565b500290565b60008282101561190c5761190c611993565b500390565b60005b8381101561192c578181015183820152602001611914565b8381111561193b576000848401525b50505050565b60008161195057611950611993565b506000190190565b60028104600182168061196c57607f821691505b6020821081141561198d57634e487b7160e01b600052602260045260246000fd5b50919050565b634e487b7160e01b600052601160045260246000fd5b6001600160a01b03811681146119be57600080fd5b5056fea164736f6c6343000800000a",
  "linkReferences": {},
  "deployedLinkReferences": {}
}