{
  "_format": "hh-sol-artifact-1",
  "contractName": "ProtocolControl",
  "sourceName": "contracts/ProtocolControl.sol",
  "abi": [
    {
      "inputs": [
        {
          "internalType": "address",
          "name": "_admin",
          "type": "address"
        },
        {
          "internalType": "address",
          "name": "_nftlabs",
          "type": "address"
        }
      ],
      "stateMutability": "nonpayable",
      "type": "constructor"
    },
    {
      "anonymous": false,
      "inputs": [
        {
          "indexed": false,
          "internalType": "address",
          "name": "asset",
          "type": "address"
        },
        {
          "indexed": false,
          "internalType": "address",
          "name": "to",
          "type": "address"
        },
        {
          "indexed": false,
          "internalType": "uint256",
          "name": "amount",
          "type": "uint256"
        }
      ],
      "name": "FundsTransferred",
      "type": "event"
    },
    {
      "anonymous": false,
      "inputs": [
        {
          "indexed": false,
          "internalType": "uint256",
          "name": "marketFeeBps",
          "type": "uint256"
        }
      ],
      "name": "MarketFeeBps",
      "type": "event"
    },
    {
      "anonymous": false,
      "inputs": [
        {
          "indexed": false,
          "internalType": "bytes32",
          "name": "moduleId",
          "type": "bytes32"
        },
        {
          "indexed": false,
          "internalType": "address",
          "name": "module",
          "type": "address"
        }
      ],
      "name": "ModuleInitialized",
      "type": "event"
    },
    {
      "anonymous": false,
      "inputs": [
        {
          "indexed": true,
          "internalType": "bytes32",
          "name": "moduleId",
          "type": "bytes32"
        },
        {
          "indexed": true,
          "internalType": "address",
          "name": "module",
          "type": "address"
        },
        {
          "indexed": true,
          "internalType": "uint256",
          "name": "moduleType",
          "type": "uint256"
        }
      ],
      "name": "ModuleUpdated",
      "type": "event"
    },
    {
      "anonymous": false,
      "inputs": [
        {
          "indexed": false,
          "internalType": "address",
          "name": "pack",
          "type": "address"
        },
        {
          "indexed": false,
          "internalType": "bytes32",
          "name": "packModuleId",
          "type": "bytes32"
        },
        {
          "indexed": false,
          "internalType": "address",
          "name": "market",
          "type": "address"
        },
        {
          "indexed": false,
          "internalType": "bytes32",
          "name": "marketModuleId",
          "type": "bytes32"
        },
        {
          "indexed": false,
          "internalType": "address",
          "name": "coin",
          "type": "address"
        },
        {
          "indexed": false,
          "internalType": "bytes32",
          "name": "coinModuleId",
          "type": "bytes32"
        },
        {
          "indexed": false,
          "internalType": "address",
          "name": "nft",
          "type": "address"
        },
        {
          "indexed": false,
          "internalType": "bytes32",
          "name": "nftModuleId",
          "type": "bytes32"
        }
      ],
      "name": "ProtocolInitialized",
      "type": "event"
    },
    {
      "anonymous": false,
      "inputs": [
        {
          "indexed": true,
          "internalType": "bytes32",
          "name": "role",
          "type": "bytes32"
        },
        {
          "indexed": true,
          "internalType": "bytes32",
          "name": "previousAdminRole",
          "type": "bytes32"
        },
        {
          "indexed": true,
          "internalType": "bytes32",
          "name": "newAdminRole",
          "type": "bytes32"
        }
      ],
      "name": "RoleAdminChanged",
      "type": "event"
    },
    {
      "anonymous": false,
      "inputs": [
        {
          "indexed": true,
          "internalType": "bytes32",
          "name": "role",
          "type": "bytes32"
        },
        {
          "indexed": true,
          "internalType": "address",
          "name": "account",
          "type": "address"
        },
        {
          "indexed": true,
          "internalType": "address",
          "name": "sender",
          "type": "address"
        }
      ],
      "name": "RoleGranted",
      "type": "event"
    },
    {
      "anonymous": false,
      "inputs": [
        {
          "indexed": true,
          "internalType": "bytes32",
          "name": "role",
          "type": "bytes32"
        },
        {
          "indexed": true,
          "internalType": "address",
          "name": "account",
          "type": "address"
        },
        {
          "indexed": true,
          "internalType": "address",
          "name": "sender",
          "type": "address"
        }
      ],
      "name": "RoleRevoked",
      "type": "event"
    },
    {
      "anonymous": false,
      "inputs": [
        {
          "indexed": false,
          "internalType": "bool",
          "name": "isPaused",
          "type": "bool"
        }
      ],
      "name": "SystemPaused",
      "type": "event"
    },
    {
      "inputs": [],
      "name": "DEFAULT_ADMIN_ROLE",
      "outputs": [
        {
          "internalType": "bytes32",
          "name": "",
          "type": "bytes32"
        }
      ],
      "stateMutability": "view",
      "type": "function"
    },
    {
      "inputs": [],
      "name": "MAX_BPS",
      "outputs": [
        {
          "internalType": "uint256",
          "name": "",
          "type": "uint256"
        }
      ],
      "stateMutability": "view",
      "type": "function"
    },
    {
      "inputs": [],
      "name": "NFTLABS",
      "outputs": [
        {
          "internalType": "bytes32",
          "name": "",
          "type": "bytes32"
        }
      ],
      "stateMutability": "view",
      "type": "function"
    },
    {
      "inputs": [],
      "name": "PROTOCOL_ADMIN",
      "outputs": [
        {
          "internalType": "bytes32",
          "name": "",
          "type": "bytes32"
        }
      ],
      "stateMutability": "view",
      "type": "function"
    },
    {
      "inputs": [
        {
          "internalType": "address",
          "name": "_newModuleAddress",
          "type": "address"
        },
        {
          "internalType": "uint256",
          "name": "_moduleType",
          "type": "uint256"
        }
      ],
      "name": "addModule",
      "outputs": [
        {
          "internalType": "bytes32",
          "name": "moduleId",
          "type": "bytes32"
        }
      ],
      "stateMutability": "nonpayable",
      "type": "function"
    },
    {
      "inputs": [
        {
          "internalType": "bytes32",
          "name": "role",
          "type": "bytes32"
        }
      ],
      "name": "getRoleAdmin",
      "outputs": [
        {
          "internalType": "bytes32",
          "name": "",
          "type": "bytes32"
        }
      ],
      "stateMutability": "view",
      "type": "function"
    },
    {
      "inputs": [
        {
          "internalType": "bytes32",
          "name": "role",
          "type": "bytes32"
        },
        {
          "internalType": "address",
          "name": "account",
          "type": "address"
        }
      ],
      "name": "grantRole",
      "outputs": [],
      "stateMutability": "nonpayable",
      "type": "function"
    },
    {
      "inputs": [
        {
          "internalType": "bytes32",
          "name": "role",
          "type": "bytes32"
        },
        {
          "internalType": "address",
          "name": "account",
          "type": "address"
        }
      ],
      "name": "hasRole",
      "outputs": [
        {
          "internalType": "bool",
          "name": "",
          "type": "bool"
        }
      ],
      "stateMutability": "view",
      "type": "function"
    },
    {
      "inputs": [
        {
          "internalType": "address",
          "name": "_coin",
          "type": "address"
        },
        {
          "internalType": "address",
          "name": "_nft",
          "type": "address"
        },
        {
          "internalType": "address",
          "name": "_pack",
          "type": "address"
        },
        {
          "internalType": "address",
          "name": "_market",
          "type": "address"
        }
      ],
      "name": "initializeProtocol",
      "outputs": [],
      "stateMutability": "nonpayable",
      "type": "function"
    },
    {
      "inputs": [],
      "name": "marketFeeBps",
      "outputs": [
        {
          "internalType": "uint256",
          "name": "",
          "type": "uint256"
        }
      ],
      "stateMutability": "view",
      "type": "function"
    },
    {
      "inputs": [
        {
          "internalType": "bytes32",
          "name": "",
          "type": "bytes32"
        }
      ],
      "name": "moduleType",
      "outputs": [
        {
          "internalType": "enum ProtocolControl.ModuleType",
          "name": "",
          "type": "uint8"
        }
      ],
      "stateMutability": "view",
      "type": "function"
    },
    {
      "inputs": [
        {
          "internalType": "bytes32",
          "name": "",
          "type": "bytes32"
        }
      ],
      "name": "modules",
      "outputs": [
        {
          "internalType": "address",
          "name": "",
          "type": "address"
        }
      ],
      "stateMutability": "view",
      "type": "function"
    },
    {
      "inputs": [],
      "name": "nftlabsTreasury",
      "outputs": [
        {
          "internalType": "address",
          "name": "",
          "type": "address"
        }
      ],
      "stateMutability": "view",
      "type": "function"
    },
    {
      "inputs": [
        {
          "internalType": "uint256",
          "name": "",
          "type": "uint256"
        }
      ],
      "name": "numOfModuleType",
      "outputs": [
        {
          "internalType": "uint256",
          "name": "",
          "type": "uint256"
        }
      ],
      "stateMutability": "view",
      "type": "function"
    },
    {
      "inputs": [
        {
          "internalType": "bool",
          "name": "_toPause",
          "type": "bool"
        }
      ],
      "name": "pausePackProtocol",
      "outputs": [],
      "stateMutability": "nonpayable",
      "type": "function"
    },
    {
      "inputs": [
        {
          "internalType": "bytes32",
          "name": "role",
          "type": "bytes32"
        },
        {
          "internalType": "address",
          "name": "account",
          "type": "address"
        }
      ],
      "name": "renounceRole",
      "outputs": [],
      "stateMutability": "nonpayable",
      "type": "function"
    },
    {
      "inputs": [
        {
          "internalType": "bytes32",
          "name": "role",
          "type": "bytes32"
        },
        {
          "internalType": "address",
          "name": "account",
          "type": "address"
        }
      ],
      "name": "revokeRole",
      "outputs": [],
      "stateMutability": "nonpayable",
      "type": "function"
    },
    {
      "inputs": [
        {
          "internalType": "bytes4",
          "name": "interfaceId",
          "type": "bytes4"
        }
      ],
      "name": "supportsInterface",
      "outputs": [
        {
          "internalType": "bool",
          "name": "",
          "type": "bool"
        }
      ],
      "stateMutability": "view",
      "type": "function"
    },
    {
      "inputs": [],
      "name": "systemPaused",
      "outputs": [
        {
          "internalType": "bool",
          "name": "",
          "type": "bool"
        }
      ],
      "stateMutability": "view",
      "type": "function"
    },
    {
      "inputs": [
        {
          "internalType": "address",
          "name": "_asset",
          "type": "address"
        },
        {
          "internalType": "address",
          "name": "_to",
          "type": "address"
        },
        {
          "internalType": "uint256",
          "name": "_amount",
          "type": "uint256"
        }
      ],
      "name": "transferProtocolFunds",
      "outputs": [],
      "stateMutability": "nonpayable",
      "type": "function"
    },
    {
      "inputs": [
        {
          "internalType": "uint256",
          "name": "_newFeeBps",
          "type": "uint256"
        }
      ],
      "name": "updateMarketFeeBps",
      "outputs": [],
      "stateMutability": "nonpayable",
      "type": "function"
    },
    {
      "inputs": [
        {
          "internalType": "bytes32",
          "name": "_moduleId",
          "type": "bytes32"
        },
        {
          "internalType": "address",
          "name": "_newModuleAddress",
          "type": "address"
        }
      ],
      "name": "updateModule",
      "outputs": [],
      "stateMutability": "nonpayable",
      "type": "function"
    },
    {
      "inputs": [
        {
          "internalType": "address",
          "name": "_newTreasury",
          "type": "address"
        }
      ],
      "name": "updateNftlabsTreasury",
      "outputs": [],
      "stateMutability": "nonpayable",
      "type": "function"
    }
  ],
  "bytecode": "0x60806040523480156200001157600080fd5b506040516200170438038062001704833981016040819052620000349162000214565b60018054610100600160a81b0319166101006001600160a01b038416021790556200006f600080516020620016c483398151915282620000c8565b6200008a600080516020620016e483398151915283620000c8565b620000a5600080516020620016e483398151915280620000d8565b620000c0600080516020620016c483398151915280620000d8565b50506200024b565b620000d482826200012d565b5050565b6000620000e583620001b7565b600084815260208190526040808220600101859055519192508391839186917fbd79b86ffe0ab8e8776151514217cd7cacd52c909f66475c3af44e129f0b00ff9190a4505050565b620001398282620001cf565b620000d4576000828152602081815260408083206001600160a01b03851684529091529020805460ff1916600117905562000173620001f8565b6001600160a01b0316816001600160a01b0316837f2f8788117e7eff1d82e926ec794901d17c78024a50270940304540a733656f0d60405160405180910390a45050565b6000818152602081905260409020600101545b919050565b6000918252602082815260408084206001600160a01b0393909316845291905290205460ff1690565b3390565b80516001600160a01b0381168114620001ca57600080fd5b6000806040838503121562000227578182fd5b6200023283620001fc565b91506200024260208401620001fc565b90509250929050565b611469806200025b6000396000f3fe608060405234801561001057600080fd5b506004361061018d5760003560e01c806394658d7e116100e3578063b0b6cc1a1161008c578063d547741f11610066578063d547741f14610316578063d8f38eec14610329578063fd967f47146103315761018d565b8063b0b6cc1a146102dd578063b51cdec4146102f0578063c097b1fb146103035761018d565b80639d2f83f0116100bd5780639d2f83f0146102ba578063a217fddf146102c2578063a8a10442146102ca5761018d565b806394658d7e1461028a5780639494995b1461029257806396362d32146102a75761018d565b806336568abe116101455780633f5c3e871161011f5780633f5c3e871461025c5780633fff7bf81461026457806391d14854146102775761018d565b806336568abe146102235780633af62755146102365780633de6d173146102495761018d565b806326de4d6b1161017657806326de4d6b146101db57806328aa9b40146101f05780632f2ff15d146102105761018d565b806301ffc9a714610192578063248a9ca3146101bb575b600080fd5b6101a56101a0366004610fff565b610339565b6040516101b2919061114b565b60405180910390f35b6101ce6101c9366004610fbc565b610366565b6040516101b291906110a8565b6101ee6101e9366004610eb3565b61037b565b005b6102036101fe366004610fbc565b610409565b6040516101b29190611156565b6101ee61021e366004610fd4565b61041e565b6101ee610231366004610fd4565b610447565b6101ee610244366004610f84565b61048d565b6101ee610257366004610ecd565b61051c565b6101ce6106d3565b6101ce610272366004610fbc565b6106d9565b6101a5610285366004610fd4565b6106eb565b6101ce610714565b61029a610738565b6040516101b291906110b1565b6101ce6102b5366004610f5b565b61074c565b6101a561085d565b6101ce610866565b6101ee6102d8366004610f20565b61086b565b61029a6102eb366004610fbc565b61098d565b6101ee6102fe366004610fbc565b6109a8565b6101ee610311366004610fd4565b610a23565b6101ee610324366004610fd4565b610b04565b6101ce610b23565b6101ce610b47565b60006001600160e01b03198216637965db0b60e01b148061035e575061035e82610b4d565b90505b919050565b60009081526020819052604090206001015490565b6103a57f1884995e9e21b948f653f9596094b17f12f1b114ed4ca397c21461be57c16fe8336106eb565b6103ca5760405162461bcd60e51b81526004016103c1906112a0565b60405180910390fd5b600180546001600160a01b03909216610100027fffffffffffffffffffffff0000000000000000000000000000000000000000ff909216919091179055565b60036020526000908152604090205460ff1681565b61042782610366565b61043881610433610b66565b610b6a565b6104428383610bce565b505050565b61044f610b66565b6001600160a01b0316816001600160a01b03161461047f5760405162461bcd60e51b81526004016103c19061135a565b6104898282610c53565b5050565b6104b77f0245b6cbab6b03e029f6c88bff9595f9f5c30170f52598c3459ee71476ad59c1336106eb565b6104d35760405162461bcd60e51b81526004016103c1906111e6565b6001805460ff19168215151790556040517f59617e84cd4a4d47c34c76f190da73d3a6a0236e0770dcba41851db53f336f579061051190839061114b565b60405180910390a150565b6105467f0245b6cbab6b03e029f6c88bff9595f9f5c30170f52598c3459ee71476ad59c1336106eb565b6105625760405162461bcd60e51b81526004016103c1906111e6565b600260005260046020527f91da3fd0782e51c6b3986e9e672fd566868e71f3dbc2d6c2cd6fbb3e361af2a7541580156105c45750600360005260046020527f2e174c10e159ea99b867ce3205125c24a42d128804e4070ed6fcc8cc98166aa054155b80156105f95750600160005260046020527fabd6e7cb50984ff9c2f3e18a2660c3353dadf4e3291deeb275dae2cd1e44fe0554155b801561062d57506000805260046020527f17ef568e3e12ab5b9c7254a8d58478811de00f9e6eb34345acd53bf8fd09d3ec54155b6106495760405162461bcd60e51b81526004016103c190611243565b60006106568360026102b5565b905060006106658360036102b5565b905060006106748660016102b5565b9050600061068288826102b5565b90507f4116146398ae59f9af661c3d1b65efc41789f2ba66c9c902219a0f2690b653ba868587868c878d886040516106c19897969594939291906110e9565b60405180910390a15050505050505050565b60055481565b60046020526000908152604090205481565b6000918252602082815260408084206001600160a01b0393909316845291905290205460ff1690565b7f0245b6cbab6b03e029f6c88bff9595f9f5c30170f52598c3459ee71476ad59c181565b60015461010090046001600160a01b031681565b60006107787f0245b6cbab6b03e029f6c88bff9595f9f5c30170f52598c3459ee71476ad59c1336106eb565b6107945760405162461bcd60e51b81526004016103c1906111e6565b6000828152600460209081526040918290205491516107b49291016110a8565b60405160208183030381529060405280519060200120905060016004600084815260200190815260200160002060008282546107f091906113b7565b9091555050600081815260026020526040808220805473ffffffffffffffffffffffffffffffffffffffff19166001600160a01b0387169081179091559051849284917f1d3dc09176e587732ef26b4edb7961028f2e33cce7ad22d62f07e6a5e26d8e649190a492915050565b60015460ff1681565b600081565b6108957f0245b6cbab6b03e029f6c88bff9595f9f5c30170f52598c3459ee71476ad59c1336106eb565b6108b15760405162461bcd60e51b81526004016103c1906111e6565b60405163a9059cbb60e01b81526001600160a01b0384169063a9059cbb906108df9085908590600401611132565b602060405180830381600087803b1580156108f957600080fd5b505af115801561090d573d6000803e3d6000fd5b505050506040513d601f19601f820116820180604052508101906109319190610fa0565b61094d5760405162461bcd60e51b81526004016103c1906112fd565b7f78e6250172d8e0a57d8d41f480f13581571a2d27bb2a93f5f7bd2511f5c22a6c838383604051610980939291906110c5565b60405180910390a1505050565b6002602052600090815260409020546001600160a01b031681565b6109d27f1884995e9e21b948f653f9596094b17f12f1b114ed4ca397c21461be57c16fe8336106eb565b6109ee5760405162461bcd60e51b81526004016103c1906112a0565b60058190556040517f1890faa36c0d3210e563b3b71281f08fdb6016a537f6664317d853bd2af52032906105119083906110a8565b610a4d7f0245b6cbab6b03e029f6c88bff9595f9f5c30170f52598c3459ee71476ad59c1336106eb565b610a695760405162461bcd60e51b81526004016103c1906111e6565b6000828152600260209081526040808320805473ffffffffffffffffffffffffffffffffffffffff19166001600160a01b038616179055600390915290205460ff166004811115610aca57634e487b7160e01b600052602160045260246000fd5b6040516001600160a01b0383169084907f1d3dc09176e587732ef26b4edb7961028f2e33cce7ad22d62f07e6a5e26d8e6490600090a45050565b610b0d82610366565b610b1981610433610b66565b6104428383610c53565b7f1884995e9e21b948f653f9596094b17f12f1b114ed4ca397c21461be57c16fe881565b61271081565b6001600160e01b031981166301ffc9a760e01b14919050565b3390565b610b7482826106eb565b61048957610b8c816001600160a01b03166014610cd6565b610b97836020610cd6565b604051602001610ba8929190611027565b60408051601f198184030181529082905262461bcd60e51b82526103c19160040161117e565b610bd882826106eb565b610489576000828152602081815260408083206001600160a01b03851684529091529020805460ff19166001179055610c0f610b66565b6001600160a01b0316816001600160a01b0316837f2f8788117e7eff1d82e926ec794901d17c78024a50270940304540a733656f0d60405160405180910390a45050565b610c5d82826106eb565b15610489576000828152602081815260408083206001600160a01b03851684529091529020805460ff19169055610c92610b66565b6001600160a01b0316816001600160a01b0316837ff6391f5c32d9c69d2a47ea670b442974b53935d1edc7fd64eb21e047a839171b60405160405180910390a45050565b60606000610ce58360026113cf565b610cf09060026113b7565b67ffffffffffffffff811115610d1657634e487b7160e01b600052604160045260246000fd5b6040519080825280601f01601f191660200182016040528015610d40576020820181803683370190505b509050600360fc1b81600081518110610d6957634e487b7160e01b600052603260045260246000fd5b60200101906001600160f81b031916908160001a905350600f60fb1b81600181518110610da657634e487b7160e01b600052603260045260246000fd5b60200101906001600160f81b031916908160001a9053506000610dca8460026113cf565b610dd59060016113b7565b90505b6001811115610e76577f303132333435363738396162636465660000000000000000000000000000000085600f1660108110610e2457634e487b7160e01b600052603260045260246000fd5b1a60f81b828281518110610e4857634e487b7160e01b600052603260045260246000fd5b60200101906001600160f81b031916908160001a90535060049490941c93610e6f8161141e565b9050610dd8565b508315610e955760405162461bcd60e51b81526004016103c1906111b1565b9392505050565b80356001600160a01b038116811461036157600080fd5b600060208284031215610ec4578081fd5b610e9582610e9c565b60008060008060808587031215610ee2578283fd5b610eeb85610e9c565b9350610ef960208601610e9c565b9250610f0760408601610e9c565b9150610f1560608601610e9c565b905092959194509250565b600080600060608486031215610f34578283fd5b610f3d84610e9c565b9250610f4b60208501610e9c565b9150604084013590509250925092565b60008060408385031215610f6d578182fd5b610f7683610e9c565b946020939093013593505050565b600060208284031215610f95578081fd5b8135610e958161144b565b600060208284031215610fb1578081fd5b8151610e958161144b565b600060208284031215610fcd578081fd5b5035919050565b60008060408385031215610fe6578182fd5b82359150610ff660208401610e9c565b90509250929050565b600060208284031215611010578081fd5b81356001600160e01b031981168114610e95578182fd5b60007f416363657373436f6e74726f6c3a206163636f756e74200000000000000000008252835161105f8160178501602088016113ee565b7f206973206d697373696e6720726f6c6520000000000000000000000000000000601791840191820152835161109c8160288401602088016113ee565b01602801949350505050565b90815260200190565b6001600160a01b0391909116815260200190565b6001600160a01b039384168152919092166020820152604081019190915260600190565b6001600160a01b039889168152602081019790975294871660408701526060860193909352908516608085015260a084015290921660c082015260e08101919091526101000190565b6001600160a01b03929092168252602082015260400190565b901515815260200190565b602081016005831061117857634e487b7160e01b600052602160045260246000fd5b91905290565b600060208252825180602084015261119d8160408501602087016113ee565b601f01601f19169190910160400192915050565b6020808252818101527f537472696e67733a20686578206c656e67746820696e73756666696369656e74604082015260600190565b60208082526036908201527f50726f746f636f6c3a204f6e6c792070726f746f636f6c2061646d696e73206360408201527f616e2063616c6c20746869732066756e6374696f6e2e00000000000000000000606082015260800190565b60208082526026908201527f50726f746f636f6c20436f6e74726f6c3a20616c726561647920696e6974696160408201527f6c697a65642e0000000000000000000000000000000000000000000000000000606082015260800190565b60208082526035908201527f50726f746f636f6c3a204f6e6c79204e46544c6162732061646d696e7320636160408201527f6e2063616c6c20746869732066756e6374696f6e2e0000000000000000000000606082015260800190565b60208082526034908201527f50726f746f636f6c20436f6e74726f6c3a206661696c656420746f207472616e60408201527f736665722070726f746f636f6c2066756e64732e000000000000000000000000606082015260800190565b6020808252602f908201527f416363657373436f6e74726f6c3a2063616e206f6e6c792072656e6f756e636560408201527f20726f6c657320666f722073656c660000000000000000000000000000000000606082015260800190565b600082198211156113ca576113ca611435565b500190565b60008160001904831182151516156113e9576113e9611435565b500290565b60005b838110156114095781810151838201526020016113f1565b83811115611418576000848401525b50505050565b60008161142d5761142d611435565b506000190190565b634e487b7160e01b600052601160045260246000fd5b801515811461145957600080fd5b5056fea164736f6c6343000800000a1884995e9e21b948f653f9596094b17f12f1b114ed4ca397c21461be57c16fe80245b6cbab6b03e029f6c88bff9595f9f5c30170f52598c3459ee71476ad59c1",
  "linkReferences": {},
  "deployedLinkReferences": {}
}