{
  "_format": "hh-sol-artifact-1",
  "contractName": "ProtocolControl",
  "sourceName": "contracts/ProtocolControl.sol",
  "abi": [
    {
      "inputs": [
        {
          "internalType": "address",
          "name": "_admin",
          "type": "address"
        },
        {
          "internalType": "address",
          "name": "_provider",
          "type": "address"
        },
        {
          "internalType": "string",
          "name": "_uri",
          "type": "string"
        }
      ],
      "stateMutability": "nonpayable",
      "type": "constructor"
    },
    {
      "anonymous": false,
      "inputs": [
        {
          "indexed": false,
          "internalType": "address",
          "name": "asset",
          "type": "address"
        },
        {
          "indexed": false,
          "internalType": "address",
          "name": "to",
          "type": "address"
        },
        {
          "indexed": false,
          "internalType": "uint256",
          "name": "amount",
          "type": "uint256"
        }
      ],
      "name": "FundsTransferred",
      "type": "event"
    },
    {
      "anonymous": false,
      "inputs": [
        {
          "indexed": true,
          "internalType": "bytes32",
          "name": "moduleId",
          "type": "bytes32"
        },
        {
          "indexed": true,
          "internalType": "address",
          "name": "module",
          "type": "address"
        },
        {
          "indexed": true,
          "internalType": "uint256",
          "name": "moduleType",
          "type": "uint256"
        }
      ],
      "name": "ModuleUpdated",
      "type": "event"
    },
    {
      "anonymous": false,
      "inputs": [
        {
          "indexed": false,
          "internalType": "address",
          "name": "_providerTreasury",
          "type": "address"
        }
      ],
      "name": "OwnerTreasuryUpdated",
      "type": "event"
    },
    {
      "anonymous": false,
      "inputs": [
        {
          "indexed": false,
          "internalType": "uint256",
          "name": "providerFeeBps",
          "type": "uint256"
        }
      ],
      "name": "ProviderFeeBpsUpdated",
      "type": "event"
    },
    {
      "anonymous": false,
      "inputs": [
        {
          "indexed": false,
          "internalType": "address",
          "name": "_providerTreasury",
          "type": "address"
        }
      ],
      "name": "ProviderTreasuryUpdated",
      "type": "event"
    },
    {
      "anonymous": false,
      "inputs": [
        {
          "indexed": true,
          "internalType": "bytes32",
          "name": "role",
          "type": "bytes32"
        },
        {
          "indexed": true,
          "internalType": "bytes32",
          "name": "previousAdminRole",
          "type": "bytes32"
        },
        {
          "indexed": true,
          "internalType": "bytes32",
          "name": "newAdminRole",
          "type": "bytes32"
        }
      ],
      "name": "RoleAdminChanged",
      "type": "event"
    },
    {
      "anonymous": false,
      "inputs": [
        {
          "indexed": true,
          "internalType": "bytes32",
          "name": "role",
          "type": "bytes32"
        },
        {
          "indexed": true,
          "internalType": "address",
          "name": "account",
          "type": "address"
        },
        {
          "indexed": true,
          "internalType": "address",
          "name": "sender",
          "type": "address"
        }
      ],
      "name": "RoleGranted",
      "type": "event"
    },
    {
      "anonymous": false,
      "inputs": [
        {
          "indexed": true,
          "internalType": "bytes32",
          "name": "role",
          "type": "bytes32"
        },
        {
          "indexed": true,
          "internalType": "address",
          "name": "account",
          "type": "address"
        },
        {
          "indexed": true,
          "internalType": "address",
          "name": "sender",
          "type": "address"
        }
      ],
      "name": "RoleRevoked",
      "type": "event"
    },
    {
      "anonymous": false,
      "inputs": [
        {
          "indexed": false,
          "internalType": "bool",
          "name": "isPaused",
          "type": "bool"
        }
      ],
      "name": "SystemPaused",
      "type": "event"
    },
    {
      "inputs": [],
      "name": "DEFAULT_ADMIN_ROLE",
      "outputs": [
        {
          "internalType": "bytes32",
          "name": "",
          "type": "bytes32"
        }
      ],
      "stateMutability": "view",
      "type": "function"
    },
    {
      "inputs": [],
      "name": "MAX_BPS",
      "outputs": [
        {
          "internalType": "uint128",
          "name": "",
          "type": "uint128"
        }
      ],
      "stateMutability": "view",
      "type": "function"
    },
    {
      "inputs": [],
      "name": "MAX_PROVIDER_FEE_BPS",
      "outputs": [
        {
          "internalType": "uint128",
          "name": "",
          "type": "uint128"
        }
      ],
      "stateMutability": "view",
      "type": "function"
    },
    {
      "inputs": [],
      "name": "PROTOCOL_ADMIN",
      "outputs": [
        {
          "internalType": "bytes32",
          "name": "",
          "type": "bytes32"
        }
      ],
      "stateMutability": "view",
      "type": "function"
    },
    {
      "inputs": [],
      "name": "PROTOCOL_PROVIDER",
      "outputs": [
        {
          "internalType": "bytes32",
          "name": "",
          "type": "bytes32"
        }
      ],
      "stateMutability": "view",
      "type": "function"
    },
    {
      "inputs": [],
      "name": "_contractURI",
      "outputs": [
        {
          "internalType": "string",
          "name": "",
          "type": "string"
        }
      ],
      "stateMutability": "view",
      "type": "function"
    },
    {
      "inputs": [
        {
          "internalType": "address",
          "name": "_newModuleAddress",
          "type": "address"
        },
        {
          "internalType": "uint8",
          "name": "_moduleType",
          "type": "uint8"
        }
      ],
      "name": "addModule",
      "outputs": [
        {
          "internalType": "bytes32",
          "name": "moduleId",
          "type": "bytes32"
        }
      ],
      "stateMutability": "nonpayable",
      "type": "function"
    },
    {
      "inputs": [],
      "name": "contractURI",
      "outputs": [
        {
          "internalType": "string",
          "name": "",
          "type": "string"
        }
      ],
      "stateMutability": "view",
      "type": "function"
    },
    {
      "inputs": [
        {
          "internalType": "uint256",
          "name": "_moduleType",
          "type": "uint256"
        }
      ],
      "name": "getAllModulesOfType",
      "outputs": [
        {
          "internalType": "address[]",
          "name": "allModules",
          "type": "address[]"
        }
      ],
      "stateMutability": "view",
      "type": "function"
    },
    {
      "inputs": [
        {
          "internalType": "bytes32",
          "name": "role",
          "type": "bytes32"
        }
      ],
      "name": "getRoleAdmin",
      "outputs": [
        {
          "internalType": "bytes32",
          "name": "",
          "type": "bytes32"
        }
      ],
      "stateMutability": "view",
      "type": "function"
    },
    {
      "inputs": [
        {
          "internalType": "bytes32",
          "name": "role",
          "type": "bytes32"
        },
        {
          "internalType": "address",
          "name": "account",
          "type": "address"
        }
      ],
      "name": "grantRole",
      "outputs": [],
      "stateMutability": "nonpayable",
      "type": "function"
    },
    {
      "inputs": [
        {
          "internalType": "bytes32",
          "name": "role",
          "type": "bytes32"
        },
        {
          "internalType": "address",
          "name": "account",
          "type": "address"
        }
      ],
      "name": "hasRole",
      "outputs": [
        {
          "internalType": "bool",
          "name": "",
          "type": "bool"
        }
      ],
      "stateMutability": "view",
      "type": "function"
    },
    {
      "inputs": [
        {
          "internalType": "bytes32",
          "name": "",
          "type": "bytes32"
        }
      ],
      "name": "moduleType",
      "outputs": [
        {
          "internalType": "enum ProtocolControl.ModuleType",
          "name": "",
          "type": "uint8"
        }
      ],
      "stateMutability": "view",
      "type": "function"
    },
    {
      "inputs": [
        {
          "internalType": "bytes32",
          "name": "",
          "type": "bytes32"
        }
      ],
      "name": "modules",
      "outputs": [
        {
          "internalType": "address",
          "name": "",
          "type": "address"
        }
      ],
      "stateMutability": "view",
      "type": "function"
    },
    {
      "inputs": [
        {
          "internalType": "uint256",
          "name": "",
          "type": "uint256"
        }
      ],
      "name": "numOfModuleType",
      "outputs": [
        {
          "internalType": "uint256",
          "name": "",
          "type": "uint256"
        }
      ],
      "stateMutability": "view",
      "type": "function"
    },
    {
      "inputs": [],
      "name": "ownerTreasury",
      "outputs": [
        {
          "internalType": "address",
          "name": "",
          "type": "address"
        }
      ],
      "stateMutability": "view",
      "type": "function"
    },
    {
      "inputs": [
        {
          "internalType": "bool",
          "name": "_toPause",
          "type": "bool"
        }
      ],
      "name": "pauseProtocol",
      "outputs": [],
      "stateMutability": "nonpayable",
      "type": "function"
    },
    {
      "inputs": [],
      "name": "providerFeeBps",
      "outputs": [
        {
          "internalType": "uint128",
          "name": "",
          "type": "uint128"
        }
      ],
      "stateMutability": "view",
      "type": "function"
    },
    {
      "inputs": [],
      "name": "providerTreasury",
      "outputs": [
        {
          "internalType": "address",
          "name": "",
          "type": "address"
        }
      ],
      "stateMutability": "view",
      "type": "function"
    },
    {
      "inputs": [
        {
          "internalType": "bytes32",
          "name": "role",
          "type": "bytes32"
        },
        {
          "internalType": "address",
          "name": "account",
          "type": "address"
        }
      ],
      "name": "renounceRole",
      "outputs": [],
      "stateMutability": "nonpayable",
      "type": "function"
    },
    {
      "inputs": [
        {
          "internalType": "bytes32",
          "name": "role",
          "type": "bytes32"
        },
        {
          "internalType": "address",
          "name": "account",
          "type": "address"
        }
      ],
      "name": "revokeRole",
      "outputs": [],
      "stateMutability": "nonpayable",
      "type": "function"
    },
    {
      "inputs": [
        {
          "internalType": "string",
          "name": "_URI",
          "type": "string"
        }
      ],
      "name": "setContractURI",
      "outputs": [],
      "stateMutability": "nonpayable",
      "type": "function"
    },
    {
      "inputs": [
        {
          "internalType": "bytes4",
          "name": "interfaceId",
          "type": "bytes4"
        }
      ],
      "name": "supportsInterface",
      "outputs": [
        {
          "internalType": "bool",
          "name": "",
          "type": "bool"
        }
      ],
      "stateMutability": "view",
      "type": "function"
    },
    {
      "inputs": [],
      "name": "systemPaused",
      "outputs": [
        {
          "internalType": "bool",
          "name": "",
          "type": "bool"
        }
      ],
      "stateMutability": "view",
      "type": "function"
    },
    {
      "inputs": [
        {
          "internalType": "address",
          "name": "_asset",
          "type": "address"
        },
        {
          "internalType": "address",
          "name": "_to",
          "type": "address"
        },
        {
          "internalType": "uint256",
          "name": "_amount",
          "type": "uint256"
        }
      ],
      "name": "transferProtocolFunds",
      "outputs": [],
      "stateMutability": "nonpayable",
      "type": "function"
    },
    {
      "inputs": [
        {
          "internalType": "bytes32",
          "name": "_moduleId",
          "type": "bytes32"
        },
        {
          "internalType": "address",
          "name": "_newModuleAddress",
          "type": "address"
        }
      ],
      "name": "updateModule",
      "outputs": [],
      "stateMutability": "nonpayable",
      "type": "function"
    },
    {
      "inputs": [
        {
          "internalType": "address",
          "name": "_newTreasury",
          "type": "address"
        }
      ],
      "name": "updateOwnerTreasury",
      "outputs": [],
      "stateMutability": "nonpayable",
      "type": "function"
    },
    {
      "inputs": [
        {
          "internalType": "uint128",
          "name": "_newFeeBps",
          "type": "uint128"
        }
      ],
      "name": "updateProviderFeeBps",
      "outputs": [],
      "stateMutability": "nonpayable",
      "type": "function"
    },
    {
      "inputs": [
        {
          "internalType": "address",
          "name": "_newTreasury",
          "type": "address"
        }
      ],
      "name": "updateProviderTreasury",
      "outputs": [],
      "stateMutability": "nonpayable",
      "type": "function"
    },
    {
      "stateMutability": "payable",
      "type": "receive"
    }
  ],
  "bytecode": "0x6080604052600680546001600160801b0319166103e81790553480156200002557600080fd5b506040516200203638038062002036833981016040819052620000489162000375565b80516200005d906007906020840190620002b7565b5060018054610100600160a81b0319166101006001600160a01b038581169190910291909117909155600280546001600160a01b031916918516919091179055620000b8600080516020620020168339815191528462000183565b620000d360008051602062001ff68339815191528362000183565b620000ee600080516020620020168339815191528062000193565b6200010960008051602062001ff68339815191528062000193565b7fb825ab4f81e4900f8508fcfa9b52c04f19a7bcf5ecc6b19d902fcde1fda9c214836040516200013a91906200046c565b60405180910390a17e2db23efd8339ec0c6d1e7fe86528420c0a007b4f33268e7b90f75b3a17b778826040516200017291906200046c565b60405180910390a1505050620004d3565b6200018f8282620001e8565b5050565b6000620001a08362000272565b600084815260208190526040808220600101859055519192508391839186917fbd79b86ffe0ab8e8776151514217cd7cacd52c909f66475c3af44e129f0b00ff9190a4505050565b620001f482826200028a565b6200018f576000828152602081815260408083206001600160a01b03851684529091529020805460ff191660011790556200022e620002b3565b6001600160a01b0316816001600160a01b0316837f2f8788117e7eff1d82e926ec794901d17c78024a50270940304540a733656f0d60405160405180910390a45050565b6000818152602081905260409020600101545b919050565b6000918252602082815260408084206001600160a01b0393909316845291905290205460ff1690565b3390565b828054620002c59062000480565b90600052602060002090601f016020900481019282620002e9576000855562000334565b82601f106200030457805160ff191683800117855562000334565b8280016001018555821562000334579182015b828111156200033457825182559160200191906001019062000317565b506200034292915062000346565b5090565b5b8082111562000342576000815560010162000347565b80516001600160a01b03811681146200028557600080fd5b6000806000606084860312156200038a578283fd5b62000395846200035d565b92506020620003a68186016200035d565b60408601519093506001600160401b0380821115620003c3578384fd5b818701915087601f830112620003d7578384fd5b815181811115620003ec57620003ec620004bd565b604051601f8201601f1916810185018381118282101715620004125762000412620004bd565b60405281815283820185018a101562000429578586fd5b8592505b818310156200044c57838301850151818401860152918401916200042d565b818311156200045d57858583830101525b80955050505050509250925092565b6001600160a01b0391909116815260200190565b6002810460018216806200049557607f821691505b60208210811415620004b757634e487b7160e01b600052602260045260246000fd5b50919050565b634e487b7160e01b600052604160045260246000fd5b611b1380620004e36000396000f3fe6080604052600436106101c65760003560e01c806394658d7e116100f7578063b0b6cc1a11610095578063e8a3d48511610064578063e8a3d485146104f5578063ef2933ec1461050a578063f7032e651461052a578063fd967f471461054a576101cd565b8063b0b6cc1a14610473578063c097b1fb14610493578063c0e72740146104b3578063d547741f146104d5576101cd565b80639d2f83f0116100d15780639d2f83f0146103fc578063a217fddf14610411578063a8a1044214610426578063aca8417514610446576101cd565b806394658d7e146103bd57806398990a0e146103d257806399c04d3b146103e7576101cd565b806340f182c5116101645780637cdca11c1161013e5780637cdca11c1461033d5780638a131d5d1461035d57806391d148541461037d578063938e3d7b1461039d576101cd565b806340f182c5146102e657806357a91814146103065780635cd423151461031b576101cd565b806328aa9b40116101a057806328aa9b40146102575780632f2ff15d1461028457806336568abe146102a65780633fff7bf8146102c6576101cd565b806301ffc9a7146101d25780630f603ed314610208578063248a9ca31461022a576101cd565b366101cd57005b600080fd5b3480156101de57600080fd5b506101f26101ed366004611542565b61055f565b6040516101ff9190611737565b60405180910390f35b34801561021457600080fd5b5061021d61058c565b6040516101ff9190611699565b34801561023657600080fd5b5061024a6102453660046114ff565b61059b565b6040516101ff9190611742565b34801561026357600080fd5b506102776102723660046114ff565b6105b0565b6040516101ff919061174b565b34801561029057600080fd5b506102a461029f366004611517565b6105c5565b005b3480156102b257600080fd5b506102a46102c1366004611517565b6105ee565b3480156102d257600080fd5b5061024a6102e13660046114ff565b61063d565b3480156102f257600080fd5b5061024a61030136600461148c565b61064f565b34801561031257600080fd5b5061024a61076a565b34801561032757600080fd5b5061033061078e565b6040516101ff9190611a09565b34801561034957600080fd5b506102a4610358366004611437565b610794565b34801561036957600080fd5b506102a4610378366004611437565b61084b565b34801561038957600080fd5b506101f2610398366004611517565b6108e9565b3480156103a957600080fd5b506102a46103b836600461156a565b610912565b3480156103c957600080fd5b5061024a610964565b3480156103de57600080fd5b5061021d610988565b3480156103f357600080fd5b5061033061099c565b34801561040857600080fd5b506101f26109b4565b34801561041d57600080fd5b5061024a6109bd565b34801561043257600080fd5b506102a4610441366004611451565b6109c2565b34801561045257600080fd5b506104666104613660046114ff565b610b5d565b6040516101ff91906116ea565b34801561047f57600080fd5b5061021d61048e3660046114ff565b610c68565b34801561049f57600080fd5b506102a46104ae366004611517565b610c83565b3480156104bf57600080fd5b506104c8610d98565b6040516101ff9190611773565b3480156104e157600080fd5b506102a46104f0366004611517565b610e26565b34801561050157600080fd5b506104c8610e45565b34801561051657600080fd5b506102a46105253660046114c7565b610ed7565b34801561053657600080fd5b506102a46105453660046115d7565b610f5b565b34801561055657600080fd5b50610330611032565b60006001600160e01b03198216637965db0b60e01b1480610584575061058482611038565b90505b919050565b6002546001600160a01b031681565b60009081526020819052604090206001015490565b60046020526000908152604090205460ff1681565b6105ce8261059b565b6105df816105da611051565b611055565b6105e983836110b9565b505050565b6105f6611051565b6001600160a01b0316816001600160a01b03161461062f5760405162461bcd60e51b8152600401610626906119ac565b60405180910390fd5b610639828261113e565b5050565b60056020526000908152604090205481565b600061067b7f0245b6cbab6b03e029f6c88bff9595f9f5c30170f52598c3459ee71476ad59c1336108e9565b6106975760405162461bcd60e51b815260040161062690611895565b60ff82166000818152600560209081526040918290205491516106bb93910161168b565b6040516020818303038152906040528051906020012090506001600560008460ff16815260200190815260200160002060008282546106fa9190611a26565b9091555050600081815260036020526040808220805473ffffffffffffffffffffffffffffffffffffffff19166001600160a01b038716908117909155905160ff85169284917f1d3dc09176e587732ef26b4edb7961028f2e33cce7ad22d62f07e6a5e26d8e649190a492915050565b7ff20dc52d9f915492d8534c2045a2e74047b4a9fcc12dbd73812d6a9a24a6da4181565b6103e881565b6107be7ff20dc52d9f915492d8534c2045a2e74047b4a9fcc12dbd73812d6a9a24a6da41336108e9565b6107da5760405162461bcd60e51b815260040161062690611838565b600180547fffffffffffffffffffffff0000000000000000000000000000000000000000ff166101006001600160a01b038416021790556040517e2db23efd8339ec0c6d1e7fe86528420c0a007b4f33268e7b90f75b3a17b77890610840908390611699565b60405180910390a150565b6108757f0245b6cbab6b03e029f6c88bff9595f9f5c30170f52598c3459ee71476ad59c1336108e9565b6108915760405162461bcd60e51b815260040161062690611895565b6002805473ffffffffffffffffffffffffffffffffffffffff19166001600160a01b0383161790556040517fb825ab4f81e4900f8508fcfa9b52c04f19a7bcf5ecc6b19d902fcde1fda9c21490610840908390611699565b6000918252602082815260408084206001600160a01b0393909316845291905290205460ff1690565b61093c7f0245b6cbab6b03e029f6c88bff9595f9f5c30170f52598c3459ee71476ad59c1336108e9565b6109585760405162461bcd60e51b815260040161062690611895565b6105e960078383611387565b7f0245b6cbab6b03e029f6c88bff9595f9f5c30170f52598c3459ee71476ad59c181565b60015461010090046001600160a01b031681565b6006546fffffffffffffffffffffffffffffffff1681565b60015460ff1681565b600081565b6109ec7f0245b6cbab6b03e029f6c88bff9595f9f5c30170f52598c3459ee71476ad59c1336108e9565b610a085760405162461bcd60e51b815260040161062690611895565b60006001600160a01b038416610a7c57826001600160a01b031682604051610a2f90611607565b60006040518083038185875af1925050503d8060008114610a6c576040519150601f19603f3d011682016040523d82523d6000602084013e610a71565b606091505b505080915050610aff565b60405163a9059cbb60e01b81526001600160a01b0385169063a9059cbb90610aaa90869086906004016116d1565b602060405180830381600087803b158015610ac457600080fd5b505af1158015610ad8573d6000803e3d6000fd5b505050506040513d601f19601f82011682018060405250810190610afc91906114e3565b90505b80610b1c5760405162461bcd60e51b81526004016106269061194f565b7f78e6250172d8e0a57d8d41f480f13581571a2d27bb2a93f5f7bd2511f5c22a6c848484604051610b4f939291906116ad565b60405180910390a150505050565b6000818152600560205260409020546060908067ffffffffffffffff811115610b9657634e487b7160e01b600052604160045260246000fd5b604051908082528060200260200182016040528015610bbf578160200160208202803683370190505b50915060005b81811015610c615760008185604051602001610be292919061168b565b60408051601f1981840301815291815281516020928301206000818152600390935291205485519192506001600160a01b031690859084908110610c3657634e487b7160e01b600052603260045260246000fd5b6001600160a01b039092166020928302919091019091015250610c5a600182611a26565b9050610bc5565b5050919050565b6003602052600090815260409020546001600160a01b031681565b610cad7f0245b6cbab6b03e029f6c88bff9595f9f5c30170f52598c3459ee71476ad59c1336108e9565b610cc95760405162461bcd60e51b815260040161062690611895565b6000828152600360205260409020546001600160a01b0316610cfd5760405162461bcd60e51b8152600401610626906118f2565b6000828152600360209081526040808320805473ffffffffffffffffffffffffffffffffffffffff19166001600160a01b038616179055600490915290205460ff166007811115610d5e57634e487b7160e01b600052602160045260246000fd5b6040516001600160a01b0383169084907f1d3dc09176e587732ef26b4edb7961028f2e33cce7ad22d62f07e6a5e26d8e6490600090a45050565b60078054610da590611aa4565b80601f0160208091040260200160405190810160405280929190818152602001828054610dd190611aa4565b8015610e1e5780601f10610df357610100808354040283529160200191610e1e565b820191906000526020600020905b815481529060010190602001808311610e0157829003601f168201915b505050505081565b610e2f8261059b565b610e3b816105da611051565b6105e9838361113e565b606060078054610e5490611aa4565b80601f0160208091040260200160405190810160405280929190818152602001828054610e8090611aa4565b8015610ecd5780601f10610ea257610100808354040283529160200191610ecd565b820191906000526020600020905b815481529060010190602001808311610eb057829003601f168201915b5050505050905090565b610f017f0245b6cbab6b03e029f6c88bff9595f9f5c30170f52598c3459ee71476ad59c1336108e9565b610f1d5760405162461bcd60e51b815260040161062690611895565b6001805460ff19168215151790556040517f59617e84cd4a4d47c34c76f190da73d3a6a0236e0770dcba41851db53f336f5790610840908390611737565b610f857ff20dc52d9f915492d8534c2045a2e74047b4a9fcc12dbd73812d6a9a24a6da41336108e9565b610fa15760405162461bcd60e51b815260040161062690611838565b6103e86fffffffffffffffffffffffffffffffff82161115610fd55760405162461bcd60e51b8152600401610626906117db565b600680546fffffffffffffffffffffffffffffffff19166fffffffffffffffffffffffffffffffff83161790556040517f6777126e1a64b3a9a031086219e1670bb7c131b028d08a9b037899f452b6513b90610840908390611a09565b61271081565b6001600160e01b031981166301ffc9a760e01b14919050565b3390565b61105f82826108e9565b61063957611077816001600160a01b031660146111c1565b6110828360206111c1565b60405160200161109392919061160a565b60408051601f198184030181529082905262461bcd60e51b825261062691600401611773565b6110c382826108e9565b610639576000828152602081815260408083206001600160a01b03851684529091529020805460ff191660011790556110fa611051565b6001600160a01b0316816001600160a01b0316837f2f8788117e7eff1d82e926ec794901d17c78024a50270940304540a733656f0d60405160405180910390a45050565b61114882826108e9565b15610639576000828152602081815260408083206001600160a01b03851684529091529020805460ff1916905561117d611051565b6001600160a01b0316816001600160a01b0316837ff6391f5c32d9c69d2a47ea670b442974b53935d1edc7fd64eb21e047a839171b60405160405180910390a45050565b606060006111d0836002611a3e565b6111db906002611a26565b67ffffffffffffffff81111561120157634e487b7160e01b600052604160045260246000fd5b6040519080825280601f01601f19166020018201604052801561122b576020820181803683370190505b509050600360fc1b8160008151811061125457634e487b7160e01b600052603260045260246000fd5b60200101906001600160f81b031916908160001a905350600f60fb1b8160018151811061129157634e487b7160e01b600052603260045260246000fd5b60200101906001600160f81b031916908160001a90535060006112b5846002611a3e565b6112c0906001611a26565b90505b6001811115611361577f303132333435363738396162636465660000000000000000000000000000000085600f166010811061130f57634e487b7160e01b600052603260045260246000fd5b1a60f81b82828151811061133357634e487b7160e01b600052603260045260246000fd5b60200101906001600160f81b031916908160001a90535060049490941c9361135a81611a8d565b90506112c3565b5083156113805760405162461bcd60e51b8152600401610626906117a6565b9392505050565b82805461139390611aa4565b90600052602060002090601f0160209004810192826113b557600085556113fb565b82601f106113ce5782800160ff198235161785556113fb565b828001600101855582156113fb579182015b828111156113fb5782358255916020019190600101906113e0565b5061140792915061140b565b5090565b5b80821115611407576000815560010161140c565b80356001600160a01b038116811461058757600080fd5b600060208284031215611448578081fd5b61138082611420565b600080600060608486031215611465578182fd5b61146e84611420565b925061147c60208501611420565b9150604084013590509250925092565b6000806040838503121561149e578182fd5b6114a783611420565b9150602083013560ff811681146114bc578182fd5b809150509250929050565b6000602082840312156114d8578081fd5b813561138081611af5565b6000602082840312156114f4578081fd5b815161138081611af5565b600060208284031215611510578081fd5b5035919050565b60008060408385031215611529578182fd5b8235915061153960208401611420565b90509250929050565b600060208284031215611553578081fd5b81356001600160e01b031981168114611380578182fd5b6000806020838503121561157c578182fd5b823567ffffffffffffffff80821115611593578384fd5b818501915085601f8301126115a6578384fd5b8135818111156115b4578485fd5b8660208285010111156115c5578485fd5b60209290920196919550909350505050565b6000602082840312156115e8578081fd5b81356fffffffffffffffffffffffffffffffff81168114611380578182fd5b90565b60007f416363657373436f6e74726f6c3a206163636f756e742000000000000000000082528351611642816017850160208801611a5d565b7f206973206d697373696e6720726f6c6520000000000000000000000000000000601791840191820152835161167f816028840160208801611a5d565b01602801949350505050565b918252602082015260400190565b6001600160a01b0391909116815260200190565b6001600160a01b039384168152919092166020820152604081019190915260600190565b6001600160a01b03929092168252602082015260400190565b6020808252825182820181905260009190848201906040850190845b8181101561172b5783516001600160a01b031683529284019291840191600101611706565b50909695505050505050565b901515815260200190565b90815260200190565b602081016008831061176d57634e487b7160e01b600052602160045260246000fd5b91905290565b6000602082528251806020840152611792816040850160208701611a5d565b601f01601f19169190910160400192915050565b6020808252818101527f537472696e67733a20686578206c656e67746820696e73756666696369656e74604082015260600190565b60208082526038908201527f50726f746f636f6c436f6e74726f6c3a2070726f76696465722066656520636160408201527f6e6e6f742062652067726561746572207468616e203130250000000000000000606082015260800190565b6020808252603f908201527f50726f746f636f6c3a204f6e6c792070726f746f636f6c2070726f766964657260408201527f2061646d696e732063616e2063616c6c20746869732066756e6374696f6e2e00606082015260800190565b60208082526036908201527f50726f746f636f6c3a204f6e6c792070726f746f636f6c2061646d696e73206360408201527f616e2063616c6c20746869732066756e6374696f6e2e00000000000000000000606082015260800190565b60208082526036908201527f50726f746f636f6c436f6e74726f6c3a2061206d6f64756c652077697468207460408201527f68697320494420646f6573206e6f742065786973742e00000000000000000000606082015260800190565b60208082526034908201527f50726f746f636f6c20436f6e74726f6c3a206661696c656420746f207472616e60408201527f736665722070726f746f636f6c2066756e64732e000000000000000000000000606082015260800190565b6020808252602f908201527f416363657373436f6e74726f6c3a2063616e206f6e6c792072656e6f756e636560408201527f20726f6c657320666f722073656c660000000000000000000000000000000000606082015260800190565b6fffffffffffffffffffffffffffffffff91909116815260200190565b60008219821115611a3957611a39611adf565b500190565b6000816000190483118215151615611a5857611a58611adf565b500290565b60005b83811015611a78578181015183820152602001611a60565b83811115611a87576000848401525b50505050565b600081611a9c57611a9c611adf565b506000190190565b600281046001821680611ab857607f821691505b60208210811415611ad957634e487b7160e01b600052602260045260246000fd5b50919050565b634e487b7160e01b600052601160045260246000fd5b8015158114611b0357600080fd5b5056fea164736f6c6343000800000af20dc52d9f915492d8534c2045a2e74047b4a9fcc12dbd73812d6a9a24a6da410245b6cbab6b03e029f6c88bff9595f9f5c30170f52598c3459ee71476ad59c1",
  "linkReferences": {},
  "deployedLinkReferences": {}
}