{
  "_format": "hh-sol-artifact-1",
  "contractName": "ProtocolControl",
  "sourceName": "contracts/ProtocolControl.sol",
  "abi": [
    {
      "inputs": [
        {
          "internalType": "address",
          "name": "_admin",
          "type": "address"
        },
        {
          "internalType": "address",
          "name": "_nftlabs",
          "type": "address"
        }
      ],
      "stateMutability": "nonpayable",
      "type": "constructor"
    },
    {
      "anonymous": false,
      "inputs": [
        {
          "indexed": false,
          "internalType": "address",
          "name": "asset",
          "type": "address"
        },
        {
          "indexed": false,
          "internalType": "address",
          "name": "to",
          "type": "address"
        },
        {
          "indexed": false,
          "internalType": "uint256",
          "name": "amount",
          "type": "uint256"
        }
      ],
      "name": "FundsTransferred",
      "type": "event"
    },
    {
      "anonymous": false,
      "inputs": [
        {
          "indexed": false,
          "internalType": "uint256",
          "name": "marketFeeBps",
          "type": "uint256"
        }
      ],
      "name": "MarketFeeBps",
      "type": "event"
    },
    {
      "anonymous": false,
      "inputs": [
        {
          "indexed": false,
          "internalType": "bytes32",
          "name": "moduleId",
          "type": "bytes32"
        },
        {
          "indexed": false,
          "internalType": "address",
          "name": "module",
          "type": "address"
        }
      ],
      "name": "ModuleInitialized",
      "type": "event"
    },
    {
      "anonymous": false,
      "inputs": [
        {
          "indexed": true,
          "internalType": "bytes32",
          "name": "moduleId",
          "type": "bytes32"
        },
        {
          "indexed": true,
          "internalType": "address",
          "name": "module",
          "type": "address"
        },
        {
          "indexed": true,
          "internalType": "uint256",
          "name": "moduleType",
          "type": "uint256"
        }
      ],
      "name": "ModuleUpdated",
      "type": "event"
    },
    {
      "anonymous": false,
      "inputs": [
        {
          "indexed": false,
          "internalType": "address",
          "name": "pack",
          "type": "address"
        },
        {
          "indexed": false,
          "internalType": "bytes32",
          "name": "packModuleId",
          "type": "bytes32"
        },
        {
          "indexed": false,
          "internalType": "address",
          "name": "market",
          "type": "address"
        },
        {
          "indexed": false,
          "internalType": "bytes32",
          "name": "marketModuleId",
          "type": "bytes32"
        },
        {
          "indexed": false,
          "internalType": "address",
          "name": "coin",
          "type": "address"
        },
        {
          "indexed": false,
          "internalType": "bytes32",
          "name": "coinModuleId",
          "type": "bytes32"
        },
        {
          "indexed": false,
          "internalType": "address",
          "name": "nft",
          "type": "address"
        },
        {
          "indexed": false,
          "internalType": "bytes32",
          "name": "nftModuleId",
          "type": "bytes32"
        }
      ],
      "name": "ProtocolInitialized",
      "type": "event"
    },
    {
      "anonymous": false,
      "inputs": [
        {
          "indexed": true,
          "internalType": "bytes32",
          "name": "role",
          "type": "bytes32"
        },
        {
          "indexed": true,
          "internalType": "bytes32",
          "name": "previousAdminRole",
          "type": "bytes32"
        },
        {
          "indexed": true,
          "internalType": "bytes32",
          "name": "newAdminRole",
          "type": "bytes32"
        }
      ],
      "name": "RoleAdminChanged",
      "type": "event"
    },
    {
      "anonymous": false,
      "inputs": [
        {
          "indexed": true,
          "internalType": "bytes32",
          "name": "role",
          "type": "bytes32"
        },
        {
          "indexed": true,
          "internalType": "address",
          "name": "account",
          "type": "address"
        },
        {
          "indexed": true,
          "internalType": "address",
          "name": "sender",
          "type": "address"
        }
      ],
      "name": "RoleGranted",
      "type": "event"
    },
    {
      "anonymous": false,
      "inputs": [
        {
          "indexed": true,
          "internalType": "bytes32",
          "name": "role",
          "type": "bytes32"
        },
        {
          "indexed": true,
          "internalType": "address",
          "name": "account",
          "type": "address"
        },
        {
          "indexed": true,
          "internalType": "address",
          "name": "sender",
          "type": "address"
        }
      ],
      "name": "RoleRevoked",
      "type": "event"
    },
    {
      "anonymous": false,
      "inputs": [
        {
          "indexed": false,
          "internalType": "bool",
          "name": "isPaused",
          "type": "bool"
        }
      ],
      "name": "SystemPaused",
      "type": "event"
    },
    {
      "inputs": [],
      "name": "DEFAULT_ADMIN_ROLE",
      "outputs": [
        {
          "internalType": "bytes32",
          "name": "",
          "type": "bytes32"
        }
      ],
      "stateMutability": "view",
      "type": "function"
    },
    {
      "inputs": [],
      "name": "MAX_BPS",
      "outputs": [
        {
          "internalType": "uint256",
          "name": "",
          "type": "uint256"
        }
      ],
      "stateMutability": "view",
      "type": "function"
    },
    {
      "inputs": [],
      "name": "NFTLABS",
      "outputs": [
        {
          "internalType": "bytes32",
          "name": "",
          "type": "bytes32"
        }
      ],
      "stateMutability": "view",
      "type": "function"
    },
    {
      "inputs": [],
      "name": "PROTOCOL_ADMIN",
      "outputs": [
        {
          "internalType": "bytes32",
          "name": "",
          "type": "bytes32"
        }
      ],
      "stateMutability": "view",
      "type": "function"
    },
    {
      "inputs": [
        {
          "internalType": "address",
          "name": "_newModuleAddress",
          "type": "address"
        },
        {
          "internalType": "uint256",
          "name": "_moduleType",
          "type": "uint256"
        }
      ],
      "name": "addModule",
      "outputs": [
        {
          "internalType": "bytes32",
          "name": "moduleId",
          "type": "bytes32"
        }
      ],
      "stateMutability": "nonpayable",
      "type": "function"
    },
    {
      "inputs": [
        {
          "internalType": "bytes32",
          "name": "role",
          "type": "bytes32"
        }
      ],
      "name": "getRoleAdmin",
      "outputs": [
        {
          "internalType": "bytes32",
          "name": "",
          "type": "bytes32"
        }
      ],
      "stateMutability": "view",
      "type": "function"
    },
    {
      "inputs": [
        {
          "internalType": "bytes32",
          "name": "role",
          "type": "bytes32"
        },
        {
          "internalType": "address",
          "name": "account",
          "type": "address"
        }
      ],
      "name": "grantRole",
      "outputs": [],
      "stateMutability": "nonpayable",
      "type": "function"
    },
    {
      "inputs": [
        {
          "internalType": "bytes32",
          "name": "role",
          "type": "bytes32"
        },
        {
          "internalType": "address",
          "name": "account",
          "type": "address"
        }
      ],
      "name": "hasRole",
      "outputs": [
        {
          "internalType": "bool",
          "name": "",
          "type": "bool"
        }
      ],
      "stateMutability": "view",
      "type": "function"
    },
    {
      "inputs": [],
      "name": "marketFeeBps",
      "outputs": [
        {
          "internalType": "uint256",
          "name": "",
          "type": "uint256"
        }
      ],
      "stateMutability": "view",
      "type": "function"
    },
    {
      "inputs": [
        {
          "internalType": "bytes32",
          "name": "",
          "type": "bytes32"
        }
      ],
      "name": "moduleType",
      "outputs": [
        {
          "internalType": "enum ProtocolControl.ModuleType",
          "name": "",
          "type": "uint8"
        }
      ],
      "stateMutability": "view",
      "type": "function"
    },
    {
      "inputs": [
        {
          "internalType": "bytes32",
          "name": "",
          "type": "bytes32"
        }
      ],
      "name": "modules",
      "outputs": [
        {
          "internalType": "address",
          "name": "",
          "type": "address"
        }
      ],
      "stateMutability": "view",
      "type": "function"
    },
    {
      "inputs": [],
      "name": "nftlabsTreasury",
      "outputs": [
        {
          "internalType": "address",
          "name": "",
          "type": "address"
        }
      ],
      "stateMutability": "view",
      "type": "function"
    },
    {
      "inputs": [
        {
          "internalType": "uint256",
          "name": "",
          "type": "uint256"
        }
      ],
      "name": "numOfModuleType",
      "outputs": [
        {
          "internalType": "uint256",
          "name": "",
          "type": "uint256"
        }
      ],
      "stateMutability": "view",
      "type": "function"
    },
    {
      "inputs": [
        {
          "internalType": "bool",
          "name": "_toPause",
          "type": "bool"
        }
      ],
      "name": "pausePackProtocol",
      "outputs": [],
      "stateMutability": "nonpayable",
      "type": "function"
    },
    {
      "inputs": [
        {
          "internalType": "bytes32",
          "name": "role",
          "type": "bytes32"
        },
        {
          "internalType": "address",
          "name": "account",
          "type": "address"
        }
      ],
      "name": "renounceRole",
      "outputs": [],
      "stateMutability": "nonpayable",
      "type": "function"
    },
    {
      "inputs": [
        {
          "internalType": "bytes32",
          "name": "role",
          "type": "bytes32"
        },
        {
          "internalType": "address",
          "name": "account",
          "type": "address"
        }
      ],
      "name": "revokeRole",
      "outputs": [],
      "stateMutability": "nonpayable",
      "type": "function"
    },
    {
      "inputs": [
        {
          "internalType": "bytes4",
          "name": "interfaceId",
          "type": "bytes4"
        }
      ],
      "name": "supportsInterface",
      "outputs": [
        {
          "internalType": "bool",
          "name": "",
          "type": "bool"
        }
      ],
      "stateMutability": "view",
      "type": "function"
    },
    {
      "inputs": [],
      "name": "systemPaused",
      "outputs": [
        {
          "internalType": "bool",
          "name": "",
          "type": "bool"
        }
      ],
      "stateMutability": "view",
      "type": "function"
    },
    {
      "inputs": [
        {
          "internalType": "address",
          "name": "_asset",
          "type": "address"
        },
        {
          "internalType": "address",
          "name": "_to",
          "type": "address"
        },
        {
          "internalType": "uint256",
          "name": "_amount",
          "type": "uint256"
        }
      ],
      "name": "transferProtocolFunds",
      "outputs": [],
      "stateMutability": "nonpayable",
      "type": "function"
    },
    {
      "inputs": [
        {
          "internalType": "uint256",
          "name": "_newFeeBps",
          "type": "uint256"
        }
      ],
      "name": "updateMarketFeeBps",
      "outputs": [],
      "stateMutability": "nonpayable",
      "type": "function"
    },
    {
      "inputs": [
        {
          "internalType": "bytes32",
          "name": "_moduleId",
          "type": "bytes32"
        },
        {
          "internalType": "address",
          "name": "_newModuleAddress",
          "type": "address"
        }
      ],
      "name": "updateModule",
      "outputs": [],
      "stateMutability": "nonpayable",
      "type": "function"
    },
    {
      "inputs": [
        {
          "internalType": "address",
          "name": "_newTreasury",
          "type": "address"
        }
      ],
      "name": "updateNftlabsTreasury",
      "outputs": [],
      "stateMutability": "nonpayable",
      "type": "function"
    }
  ],
  "bytecode": "0x60806040523480156200001157600080fd5b506040516200143638038062001436833981016040819052620000349162000214565b60018054610100600160a81b0319166101006001600160a01b038416021790556200006f600080516020620013f683398151915282620000c8565b6200008a6000805160206200141683398151915283620000c8565b620000a56000805160206200141683398151915280620000d8565b620000c0600080516020620013f683398151915280620000d8565b50506200024b565b620000d482826200012d565b5050565b6000620000e583620001b7565b600084815260208190526040808220600101859055519192508391839186917fbd79b86ffe0ab8e8776151514217cd7cacd52c909f66475c3af44e129f0b00ff9190a4505050565b620001398282620001cf565b620000d4576000828152602081815260408083206001600160a01b03851684529091529020805460ff1916600117905562000173620001f8565b6001600160a01b0316816001600160a01b0316837f2f8788117e7eff1d82e926ec794901d17c78024a50270940304540a733656f0d60405160405180910390a45050565b6000818152602081905260409020600101545b919050565b6000918252602082815260408084206001600160a01b0393909316845291905290205460ff1690565b3390565b80516001600160a01b0381168114620001ca57600080fd5b6000806040838503121562000227578182fd5b6200023283620001fc565b91506200024260208401620001fc565b90509250929050565b61119b806200025b6000396000f3fe608060405234801561001057600080fd5b50600436106101825760003560e01c80639494995b116100d8578063b0b6cc1a1161008c578063d547741f11610066578063d547741f146102f8578063d8f38eec1461030b578063fd967f471461031357610182565b8063b0b6cc1a146102bf578063b51cdec4146102d2578063c097b1fb146102e557610182565b80639d2f83f0116100bd5780639d2f83f01461029c578063a217fddf146102a4578063a8a10442146102ac57610182565b80639494995b1461027457806396362d321461028957610182565b806336568abe1161013a5780633fff7bf8116101145780633fff7bf81461024657806391d148541461025957806394658d7e1461026c57610182565b806336568abe146102185780633af627551461022b5780633f5c3e871461023e57610182565b806326de4d6b1161016b57806326de4d6b146101d057806328aa9b40146101e55780632f2ff15d1461020557610182565b806301ffc9a714610187578063248a9ca3146101b0575b600080fd5b61019a610195366004610dd7565b61031b565b6040516101a79190610eda565b60405180910390f35b6101c36101be366004610d94565b610348565b6040516101a79190610e80565b6101e36101de366004610cde565b61035d565b005b6101f86101f3366004610d94565b6103eb565b6040516101a79190610ee5565b6101e3610213366004610dac565b610400565b6101e3610226366004610dac565b610429565b6101e3610239366004610d5c565b61046f565b6101c36104fe565b6101c3610254366004610d94565b610504565b61019a610267366004610dac565b610516565b6101c361053f565b61027c610563565b6040516101a79190610e89565b6101c3610297366004610d33565b610577565b61019a610688565b6101c3610691565b6101e36102ba366004610cf8565b610696565b61027c6102cd366004610d94565b6107b8565b6101e36102e0366004610d94565b6107d3565b6101e36102f3366004610dac565b61084e565b6101e3610306366004610dac565b61092f565b6101c361094e565b6101c3610972565b60006001600160e01b03198216637965db0b60e01b1480610340575061034082610978565b90505b919050565b60009081526020819052604090206001015490565b6103877f1884995e9e21b948f653f9596094b17f12f1b114ed4ca397c21461be57c16fe833610516565b6103ac5760405162461bcd60e51b81526004016103a390610fd2565b60405180910390fd5b600180546001600160a01b03909216610100027fffffffffffffffffffffff0000000000000000000000000000000000000000ff909216919091179055565b60036020526000908152604090205460ff1681565b61040982610348565b61041a81610415610991565b610995565b61042483836109f9565b505050565b610431610991565b6001600160a01b0316816001600160a01b0316146104615760405162461bcd60e51b81526004016103a39061108c565b61046b8282610a7e565b5050565b6104997f0245b6cbab6b03e029f6c88bff9595f9f5c30170f52598c3459ee71476ad59c133610516565b6104b55760405162461bcd60e51b81526004016103a390610f75565b6001805460ff19168215151790556040517f59617e84cd4a4d47c34c76f190da73d3a6a0236e0770dcba41851db53f336f57906104f3908390610eda565b60405180910390a150565b60055481565b60046020526000908152604090205481565b6000918252602082815260408084206001600160a01b0393909316845291905290205460ff1690565b7f0245b6cbab6b03e029f6c88bff9595f9f5c30170f52598c3459ee71476ad59c181565b60015461010090046001600160a01b031681565b60006105a37f0245b6cbab6b03e029f6c88bff9595f9f5c30170f52598c3459ee71476ad59c133610516565b6105bf5760405162461bcd60e51b81526004016103a390610f75565b6000828152600460209081526040918290205491516105df929101610e80565b604051602081830303815290604052805190602001209050600160046000848152602001908152602001600020600082825461061b91906110e9565b9091555050600081815260026020526040808220805473ffffffffffffffffffffffffffffffffffffffff19166001600160a01b0387169081179091559051849284917f1d3dc09176e587732ef26b4edb7961028f2e33cce7ad22d62f07e6a5e26d8e649190a492915050565b60015460ff1681565b600081565b6106c07f0245b6cbab6b03e029f6c88bff9595f9f5c30170f52598c3459ee71476ad59c133610516565b6106dc5760405162461bcd60e51b81526004016103a390610f75565b60405163a9059cbb60e01b81526001600160a01b0384169063a9059cbb9061070a9085908590600401610ec1565b602060405180830381600087803b15801561072457600080fd5b505af1158015610738573d6000803e3d6000fd5b505050506040513d601f19601f8201168201806040525081019061075c9190610d78565b6107785760405162461bcd60e51b81526004016103a39061102f565b7f78e6250172d8e0a57d8d41f480f13581571a2d27bb2a93f5f7bd2511f5c22a6c8383836040516107ab93929190610e9d565b60405180910390a1505050565b6002602052600090815260409020546001600160a01b031681565b6107fd7f1884995e9e21b948f653f9596094b17f12f1b114ed4ca397c21461be57c16fe833610516565b6108195760405162461bcd60e51b81526004016103a390610fd2565b60058190556040517f1890faa36c0d3210e563b3b71281f08fdb6016a537f6664317d853bd2af52032906104f3908390610e80565b6108787f0245b6cbab6b03e029f6c88bff9595f9f5c30170f52598c3459ee71476ad59c133610516565b6108945760405162461bcd60e51b81526004016103a390610f75565b6000828152600260209081526040808320805473ffffffffffffffffffffffffffffffffffffffff19166001600160a01b038616179055600390915290205460ff1660048111156108f557634e487b7160e01b600052602160045260246000fd5b6040516001600160a01b0383169084907f1d3dc09176e587732ef26b4edb7961028f2e33cce7ad22d62f07e6a5e26d8e6490600090a45050565b61093882610348565b61094481610415610991565b6104248383610a7e565b7f1884995e9e21b948f653f9596094b17f12f1b114ed4ca397c21461be57c16fe881565b61271081565b6001600160e01b031981166301ffc9a760e01b14919050565b3390565b61099f8282610516565b61046b576109b7816001600160a01b03166014610b01565b6109c2836020610b01565b6040516020016109d3929190610dff565b60408051601f198184030181529082905262461bcd60e51b82526103a391600401610f0d565b610a038282610516565b61046b576000828152602081815260408083206001600160a01b03851684529091529020805460ff19166001179055610a3a610991565b6001600160a01b0316816001600160a01b0316837f2f8788117e7eff1d82e926ec794901d17c78024a50270940304540a733656f0d60405160405180910390a45050565b610a888282610516565b1561046b576000828152602081815260408083206001600160a01b03851684529091529020805460ff19169055610abd610991565b6001600160a01b0316816001600160a01b0316837ff6391f5c32d9c69d2a47ea670b442974b53935d1edc7fd64eb21e047a839171b60405160405180910390a45050565b60606000610b10836002611101565b610b1b9060026110e9565b67ffffffffffffffff811115610b4157634e487b7160e01b600052604160045260246000fd5b6040519080825280601f01601f191660200182016040528015610b6b576020820181803683370190505b509050600360fc1b81600081518110610b9457634e487b7160e01b600052603260045260246000fd5b60200101906001600160f81b031916908160001a905350600f60fb1b81600181518110610bd157634e487b7160e01b600052603260045260246000fd5b60200101906001600160f81b031916908160001a9053506000610bf5846002611101565b610c009060016110e9565b90505b6001811115610ca1577f303132333435363738396162636465660000000000000000000000000000000085600f1660108110610c4f57634e487b7160e01b600052603260045260246000fd5b1a60f81b828281518110610c7357634e487b7160e01b600052603260045260246000fd5b60200101906001600160f81b031916908160001a90535060049490941c93610c9a81611150565b9050610c03565b508315610cc05760405162461bcd60e51b81526004016103a390610f40565b9392505050565b80356001600160a01b038116811461034357600080fd5b600060208284031215610cef578081fd5b610cc082610cc7565b600080600060608486031215610d0c578182fd5b610d1584610cc7565b9250610d2360208501610cc7565b9150604084013590509250925092565b60008060408385031215610d45578182fd5b610d4e83610cc7565b946020939093013593505050565b600060208284031215610d6d578081fd5b8135610cc08161117d565b600060208284031215610d89578081fd5b8151610cc08161117d565b600060208284031215610da5578081fd5b5035919050565b60008060408385031215610dbe578182fd5b82359150610dce60208401610cc7565b90509250929050565b600060208284031215610de8578081fd5b81356001600160e01b031981168114610cc0578182fd5b60007f416363657373436f6e74726f6c3a206163636f756e742000000000000000000082528351610e37816017850160208801611120565b7f206973206d697373696e6720726f6c65200000000000000000000000000000006017918401918201528351610e74816028840160208801611120565b01602801949350505050565b90815260200190565b6001600160a01b0391909116815260200190565b6001600160a01b039384168152919092166020820152604081019190915260600190565b6001600160a01b03929092168252602082015260400190565b901515815260200190565b6020810160058310610f0757634e487b7160e01b600052602160045260246000fd5b91905290565b6000602082528251806020840152610f2c816040850160208701611120565b601f01601f19169190910160400192915050565b6020808252818101527f537472696e67733a20686578206c656e67746820696e73756666696369656e74604082015260600190565b60208082526036908201527f50726f746f636f6c3a204f6e6c792070726f746f636f6c2061646d696e73206360408201527f616e2063616c6c20746869732066756e6374696f6e2e00000000000000000000606082015260800190565b60208082526035908201527f50726f746f636f6c3a204f6e6c79204e46544c6162732061646d696e7320636160408201527f6e2063616c6c20746869732066756e6374696f6e2e0000000000000000000000606082015260800190565b60208082526034908201527f50726f746f636f6c20436f6e74726f6c3a206661696c656420746f207472616e60408201527f736665722070726f746f636f6c2066756e64732e000000000000000000000000606082015260800190565b6020808252602f908201527f416363657373436f6e74726f6c3a2063616e206f6e6c792072656e6f756e636560408201527f20726f6c657320666f722073656c660000000000000000000000000000000000606082015260800190565b600082198211156110fc576110fc611167565b500190565b600081600019048311821515161561111b5761111b611167565b500290565b60005b8381101561113b578181015183820152602001611123565b8381111561114a576000848401525b50505050565b60008161115f5761115f611167565b506000190190565b634e487b7160e01b600052601160045260246000fd5b801515811461118b57600080fd5b5056fea164736f6c6343000800000a1884995e9e21b948f653f9596094b17f12f1b114ed4ca397c21461be57c16fe80245b6cbab6b03e029f6c88bff9595f9f5c30170f52598c3459ee71476ad59c1",
  "linkReferences": {},
  "deployedLinkReferences": {}
}