{
  "_format": "hh-sol-artifact-1",
  "contractName": "ProtocolControl",
  "sourceName": "contracts/ProtocolControl.sol",
  "abi": [
    {
      "inputs": [
        {
          "internalType": "address",
          "name": "_admin",
          "type": "address"
        },
        {
          "internalType": "address",
          "name": "_nftlabs",
          "type": "address"
        },
        {
          "internalType": "string",
          "name": "_uri",
          "type": "string"
        }
      ],
      "stateMutability": "nonpayable",
      "type": "constructor"
    },
    {
      "anonymous": false,
      "inputs": [
        {
          "indexed": false,
          "internalType": "address",
          "name": "asset",
          "type": "address"
        },
        {
          "indexed": false,
          "internalType": "address",
          "name": "to",
          "type": "address"
        },
        {
          "indexed": false,
          "internalType": "uint256",
          "name": "amount",
          "type": "uint256"
        }
      ],
      "name": "FundsTransferred",
      "type": "event"
    },
    {
      "anonymous": false,
      "inputs": [
        {
          "indexed": false,
          "internalType": "uint256",
          "name": "marketFeeBps",
          "type": "uint256"
        }
      ],
      "name": "MarketFeeBps",
      "type": "event"
    },
    {
      "anonymous": false,
      "inputs": [
        {
          "indexed": true,
          "internalType": "bytes32",
          "name": "moduleId",
          "type": "bytes32"
        },
        {
          "indexed": true,
          "internalType": "address",
          "name": "module",
          "type": "address"
        },
        {
          "indexed": true,
          "internalType": "uint256",
          "name": "moduleType",
          "type": "uint256"
        }
      ],
      "name": "ModuleUpdated",
      "type": "event"
    },
    {
      "anonymous": false,
      "inputs": [
        {
          "indexed": false,
          "internalType": "address",
          "name": "_nftlabsTreasury",
          "type": "address"
        }
      ],
      "name": "NFTLabsTreasury",
      "type": "event"
    },
    {
      "anonymous": false,
      "inputs": [
        {
          "indexed": true,
          "internalType": "bytes32",
          "name": "role",
          "type": "bytes32"
        },
        {
          "indexed": true,
          "internalType": "bytes32",
          "name": "previousAdminRole",
          "type": "bytes32"
        },
        {
          "indexed": true,
          "internalType": "bytes32",
          "name": "newAdminRole",
          "type": "bytes32"
        }
      ],
      "name": "RoleAdminChanged",
      "type": "event"
    },
    {
      "anonymous": false,
      "inputs": [
        {
          "indexed": true,
          "internalType": "bytes32",
          "name": "role",
          "type": "bytes32"
        },
        {
          "indexed": true,
          "internalType": "address",
          "name": "account",
          "type": "address"
        },
        {
          "indexed": true,
          "internalType": "address",
          "name": "sender",
          "type": "address"
        }
      ],
      "name": "RoleGranted",
      "type": "event"
    },
    {
      "anonymous": false,
      "inputs": [
        {
          "indexed": true,
          "internalType": "bytes32",
          "name": "role",
          "type": "bytes32"
        },
        {
          "indexed": true,
          "internalType": "address",
          "name": "account",
          "type": "address"
        },
        {
          "indexed": true,
          "internalType": "address",
          "name": "sender",
          "type": "address"
        }
      ],
      "name": "RoleRevoked",
      "type": "event"
    },
    {
      "anonymous": false,
      "inputs": [
        {
          "indexed": false,
          "internalType": "bool",
          "name": "isPaused",
          "type": "bool"
        }
      ],
      "name": "SystemPaused",
      "type": "event"
    },
    {
      "inputs": [],
      "name": "DEFAULT_ADMIN_ROLE",
      "outputs": [
        {
          "internalType": "bytes32",
          "name": "",
          "type": "bytes32"
        }
      ],
      "stateMutability": "view",
      "type": "function"
    },
    {
      "inputs": [],
      "name": "MAX_BPS",
      "outputs": [
        {
          "internalType": "uint128",
          "name": "",
          "type": "uint128"
        }
      ],
      "stateMutability": "view",
      "type": "function"
    },
    {
      "inputs": [],
      "name": "NFTLABS",
      "outputs": [
        {
          "internalType": "bytes32",
          "name": "",
          "type": "bytes32"
        }
      ],
      "stateMutability": "view",
      "type": "function"
    },
    {
      "inputs": [],
      "name": "PROTOCOL_ADMIN",
      "outputs": [
        {
          "internalType": "bytes32",
          "name": "",
          "type": "bytes32"
        }
      ],
      "stateMutability": "view",
      "type": "function"
    },
    {
      "inputs": [],
      "name": "_contractURI",
      "outputs": [
        {
          "internalType": "string",
          "name": "",
          "type": "string"
        }
      ],
      "stateMutability": "view",
      "type": "function"
    },
    {
      "inputs": [
        {
          "internalType": "address",
          "name": "_newModuleAddress",
          "type": "address"
        },
        {
          "internalType": "uint8",
          "name": "_moduleType",
          "type": "uint8"
        }
      ],
      "name": "addModule",
      "outputs": [
        {
          "internalType": "bytes32",
          "name": "moduleId",
          "type": "bytes32"
        }
      ],
      "stateMutability": "nonpayable",
      "type": "function"
    },
    {
      "inputs": [],
      "name": "contractURI",
      "outputs": [
        {
          "internalType": "string",
          "name": "",
          "type": "string"
        }
      ],
      "stateMutability": "view",
      "type": "function"
    },
    {
      "inputs": [
        {
          "internalType": "uint256",
          "name": "_moduleType",
          "type": "uint256"
        }
      ],
      "name": "getAllModulesOfType",
      "outputs": [
        {
          "internalType": "address[]",
          "name": "allModules",
          "type": "address[]"
        }
      ],
      "stateMutability": "view",
      "type": "function"
    },
    {
      "inputs": [
        {
          "internalType": "bytes32",
          "name": "role",
          "type": "bytes32"
        }
      ],
      "name": "getRoleAdmin",
      "outputs": [
        {
          "internalType": "bytes32",
          "name": "",
          "type": "bytes32"
        }
      ],
      "stateMutability": "view",
      "type": "function"
    },
    {
      "inputs": [
        {
          "internalType": "bytes32",
          "name": "role",
          "type": "bytes32"
        },
        {
          "internalType": "address",
          "name": "account",
          "type": "address"
        }
      ],
      "name": "grantRole",
      "outputs": [],
      "stateMutability": "nonpayable",
      "type": "function"
    },
    {
      "inputs": [
        {
          "internalType": "bytes32",
          "name": "role",
          "type": "bytes32"
        },
        {
          "internalType": "address",
          "name": "account",
          "type": "address"
        }
      ],
      "name": "hasRole",
      "outputs": [
        {
          "internalType": "bool",
          "name": "",
          "type": "bool"
        }
      ],
      "stateMutability": "view",
      "type": "function"
    },
    {
      "inputs": [],
      "name": "marketFeeBps",
      "outputs": [
        {
          "internalType": "uint128",
          "name": "",
          "type": "uint128"
        }
      ],
      "stateMutability": "view",
      "type": "function"
    },
    {
      "inputs": [
        {
          "internalType": "bytes32",
          "name": "",
          "type": "bytes32"
        }
      ],
      "name": "moduleType",
      "outputs": [
        {
          "internalType": "enum ProtocolControl.ModuleType",
          "name": "",
          "type": "uint8"
        }
      ],
      "stateMutability": "view",
      "type": "function"
    },
    {
      "inputs": [
        {
          "internalType": "bytes32",
          "name": "",
          "type": "bytes32"
        }
      ],
      "name": "modules",
      "outputs": [
        {
          "internalType": "address",
          "name": "",
          "type": "address"
        }
      ],
      "stateMutability": "view",
      "type": "function"
    },
    {
      "inputs": [],
      "name": "nftlabsTreasury",
      "outputs": [
        {
          "internalType": "address",
          "name": "",
          "type": "address"
        }
      ],
      "stateMutability": "view",
      "type": "function"
    },
    {
      "inputs": [
        {
          "internalType": "uint256",
          "name": "",
          "type": "uint256"
        }
      ],
      "name": "numOfModuleType",
      "outputs": [
        {
          "internalType": "uint256",
          "name": "",
          "type": "uint256"
        }
      ],
      "stateMutability": "view",
      "type": "function"
    },
    {
      "inputs": [
        {
          "internalType": "bool",
          "name": "_toPause",
          "type": "bool"
        }
      ],
      "name": "pauseProtocol",
      "outputs": [],
      "stateMutability": "nonpayable",
      "type": "function"
    },
    {
      "inputs": [
        {
          "internalType": "bytes32",
          "name": "role",
          "type": "bytes32"
        },
        {
          "internalType": "address",
          "name": "account",
          "type": "address"
        }
      ],
      "name": "renounceRole",
      "outputs": [],
      "stateMutability": "nonpayable",
      "type": "function"
    },
    {
      "inputs": [
        {
          "internalType": "bytes32",
          "name": "role",
          "type": "bytes32"
        },
        {
          "internalType": "address",
          "name": "account",
          "type": "address"
        }
      ],
      "name": "revokeRole",
      "outputs": [],
      "stateMutability": "nonpayable",
      "type": "function"
    },
    {
      "inputs": [
        {
          "internalType": "string",
          "name": "_URI",
          "type": "string"
        }
      ],
      "name": "setContractURI",
      "outputs": [],
      "stateMutability": "nonpayable",
      "type": "function"
    },
    {
      "inputs": [
        {
          "internalType": "bytes4",
          "name": "interfaceId",
          "type": "bytes4"
        }
      ],
      "name": "supportsInterface",
      "outputs": [
        {
          "internalType": "bool",
          "name": "",
          "type": "bool"
        }
      ],
      "stateMutability": "view",
      "type": "function"
    },
    {
      "inputs": [],
      "name": "systemPaused",
      "outputs": [
        {
          "internalType": "bool",
          "name": "",
          "type": "bool"
        }
      ],
      "stateMutability": "view",
      "type": "function"
    },
    {
      "inputs": [
        {
          "internalType": "address",
          "name": "_asset",
          "type": "address"
        },
        {
          "internalType": "address",
          "name": "_to",
          "type": "address"
        },
        {
          "internalType": "uint256",
          "name": "_amount",
          "type": "uint256"
        }
      ],
      "name": "transferProtocolFunds",
      "outputs": [],
      "stateMutability": "nonpayable",
      "type": "function"
    },
    {
      "inputs": [
        {
          "internalType": "uint128",
          "name": "_newFeeBps",
          "type": "uint128"
        }
      ],
      "name": "updateMarketFeeBps",
      "outputs": [],
      "stateMutability": "nonpayable",
      "type": "function"
    },
    {
      "inputs": [
        {
          "internalType": "bytes32",
          "name": "_moduleId",
          "type": "bytes32"
        },
        {
          "internalType": "address",
          "name": "_newModuleAddress",
          "type": "address"
        }
      ],
      "name": "updateModule",
      "outputs": [],
      "stateMutability": "nonpayable",
      "type": "function"
    },
    {
      "inputs": [
        {
          "internalType": "address",
          "name": "_newTreasury",
          "type": "address"
        }
      ],
      "name": "updateNftlabsTreasury",
      "outputs": [],
      "stateMutability": "nonpayable",
      "type": "function"
    },
    {
      "stateMutability": "payable",
      "type": "receive"
    }
  ],
  "bytecode": "0x60806040523480156200001157600080fd5b5060405162001f2f38038062001f2f83398101604081905262000034916200030a565b8051620000499060069060208401906200024c565b5060018054610100600160a81b0319166101006001600160a01b038516021790556200008560008051602062001eef8339815191528362000118565b620000a060008051602062001f0f8339815191528462000118565b620000bb60008051602062001f0f8339815191528062000128565b620000d660008051602062001eef8339815191528062000128565b7fb9bd5a70b65e9f1207afd71c171fba4d2ae72ee389ef68ba6fa755a7c6bcc1f08260405162000107919062000401565b60405180910390a150505062000468565b6200012482826200017d565b5050565b6000620001358362000207565b600084815260208190526040808220600101859055519192508391839186917fbd79b86ffe0ab8e8776151514217cd7cacd52c909f66475c3af44e129f0b00ff9190a4505050565b6200018982826200021f565b62000124576000828152602081815260408083206001600160a01b03851684529091529020805460ff19166001179055620001c362000248565b6001600160a01b0316816001600160a01b0316837f2f8788117e7eff1d82e926ec794901d17c78024a50270940304540a733656f0d60405160405180910390a45050565b6000818152602081905260409020600101545b919050565b6000918252602082815260408084206001600160a01b0393909316845291905290205460ff1690565b3390565b8280546200025a9062000415565b90600052602060002090601f0160209004810192826200027e5760008555620002c9565b82601f106200029957805160ff1916838001178555620002c9565b82800160010185558215620002c9579182015b82811115620002c9578251825591602001919060010190620002ac565b50620002d7929150620002db565b5090565b5b80821115620002d75760008155600101620002dc565b80516001600160a01b03811681146200021a57600080fd5b6000806000606084860312156200031f578283fd5b6200032a84620002f2565b925060206200033b818601620002f2565b60408601519093506001600160401b038082111562000358578384fd5b818701915087601f8301126200036c578384fd5b81518181111562000381576200038162000452565b604051601f8201601f1916810185018381118282101715620003a757620003a762000452565b60405281815283820185018a1015620003be578586fd5b8592505b81831015620003e15783830185015181840186015291840191620003c2565b81831115620003f257858583830101525b80955050505050509250925092565b6001600160a01b0391909116815260200190565b6002810460018216806200042a57607f821691505b602082108114156200044c57634e487b7160e01b600052602260045260246000fd5b50919050565b634e487b7160e01b600052604160045260246000fd5b611a7780620004786000396000f3fe6080604052600436106101a55760003560e01c80639d2f83f0116100e1578063c0e727401161008a578063e0a1d38411610064578063e0a1d3841461048a578063e8a3d485146104aa578063ef2933ec146104bf578063fd967f47146104df576101ac565b8063c0e7274014610433578063d547741f14610455578063d8f38eec14610475576101ac565b8063aca84175116100bb578063aca84175146103c6578063b0b6cc1a146103f3578063c097b1fb14610413576101ac565b80639d2f83f01461037c578063a217fddf14610391578063a8a10442146103a6576101ac565b80633f5c3e871161014e57806391d148541161012857806391d1485414610305578063938e3d7b1461032557806394658d7e146103455780639494995b1461035a576101ac565b80633f5c3e87146102a35780633fff7bf8146102c557806340f182c5146102e5576101ac565b806328aa9b401161017f57806328aa9b40146102365780632f2ff15d1461026357806336568abe14610283576101ac565b806301ffc9a7146101b1578063248a9ca3146101e757806326de4d6b14610214576101ac565b366101ac57005b600080fd5b3480156101bd57600080fd5b506101d16101cc366004611449565b6104f4565b6040516101de919061163e565b60405180910390f35b3480156101f357600080fd5b50610207610202366004611406565b610521565b6040516101de9190611649565b34801561022057600080fd5b5061023461022f36600461133e565b610536565b005b34801561024257600080fd5b50610256610251366004611406565b6105f7565b6040516101de9190611652565b34801561026f57600080fd5b5061023461027e36600461141e565b61060c565b34801561028f57600080fd5b5061023461029e36600461141e565b610635565b3480156102af57600080fd5b506102b861067b565b6040516101de919061196d565b3480156102d157600080fd5b506102076102e0366004611406565b610693565b3480156102f157600080fd5b50610207610300366004611393565b6106a5565b34801561031157600080fd5b506101d161032036600461141e565b6107e4565b34801561033157600080fd5b50610234610340366004611471565b61080d565b34801561035157600080fd5b5061020761085f565b34801561036657600080fd5b5061036f610883565b6040516101de91906115a0565b34801561038857600080fd5b506101d1610897565b34801561039d57600080fd5b506102076108a0565b3480156103b257600080fd5b506102346103c1366004611358565b6108a5565b3480156103d257600080fd5b506103e66103e1366004611406565b610a40565b6040516101de91906115f1565b3480156103ff57600080fd5b5061036f61040e366004611406565b610b4b565b34801561041f57600080fd5b5061023461042e36600461141e565b610b66565b34801561043f57600080fd5b50610448610c7b565b6040516101de919061167a565b34801561046157600080fd5b5061023461047036600461141e565b610d09565b34801561048157600080fd5b50610207610d28565b34801561049657600080fd5b506102346104a53660046114de565b610d4c565b3480156104b657600080fd5b50610448610e23565b3480156104cb57600080fd5b506102346104da3660046113ce565b610eb5565b3480156104eb57600080fd5b506102b8610f39565b60006001600160e01b03198216637965db0b60e01b1480610519575061051982610f3f565b90505b919050565b60009081526020819052604090206001015490565b6105607f1884995e9e21b948f653f9596094b17f12f1b114ed4ca397c21461be57c16fe8336107e4565b6105855760405162461bcd60e51b815260040161057c9061173f565b60405180910390fd5b600180547fffffffffffffffffffffff0000000000000000000000000000000000000000ff166101006001600160a01b038416021790556040517fb9bd5a70b65e9f1207afd71c171fba4d2ae72ee389ef68ba6fa755a7c6bcc1f0906105ec9083906115a0565b60405180910390a150565b60036020526000908152604090205460ff1681565b61061582610521565b61062681610621610f58565b610f5c565b6106308383610fc0565b505050565b61063d610f58565b6001600160a01b0316816001600160a01b03161461066d5760405162461bcd60e51b815260040161057c90611910565b6106778282611045565b5050565b6005546fffffffffffffffffffffffffffffffff1681565b60046020526000908152604090205481565b60006106d17f0245b6cbab6b03e029f6c88bff9595f9f5c30170f52598c3459ee71476ad59c1336107e4565b6106ed5760405162461bcd60e51b815260040161057c906116e2565b600760ff831611156107115760405162461bcd60e51b815260040161057c906117f9565b60ff8216600081815260046020908152604091829020549151610735939101611592565b6040516020818303038152906040528051906020012090506001600460008460ff1681526020019081526020016000206000828254610774919061198a565b9091555050600081815260026020526040808220805473ffffffffffffffffffffffffffffffffffffffff19166001600160a01b038716908117909155905160ff85169284917f1d3dc09176e587732ef26b4edb7961028f2e33cce7ad22d62f07e6a5e26d8e649190a492915050565b6000918252602082815260408084206001600160a01b0393909316845291905290205460ff1690565b6108377f0245b6cbab6b03e029f6c88bff9595f9f5c30170f52598c3459ee71476ad59c1336107e4565b6108535760405162461bcd60e51b815260040161057c906116e2565b6106306006838361128e565b7f0245b6cbab6b03e029f6c88bff9595f9f5c30170f52598c3459ee71476ad59c181565b60015461010090046001600160a01b031681565b60015460ff1681565b600081565b6108cf7f0245b6cbab6b03e029f6c88bff9595f9f5c30170f52598c3459ee71476ad59c1336107e4565b6108eb5760405162461bcd60e51b815260040161057c906116e2565b60006001600160a01b03841661095f57826001600160a01b0316826040516109129061150e565b60006040518083038185875af1925050503d806000811461094f576040519150601f19603f3d011682016040523d82523d6000602084013e610954565b606091505b5050809150506109e2565b60405163a9059cbb60e01b81526001600160a01b0385169063a9059cbb9061098d90869086906004016115d8565b602060405180830381600087803b1580156109a757600080fd5b505af11580156109bb573d6000803e3d6000fd5b505050506040513d601f19601f820116820180604052508101906109df91906113ea565b90505b806109ff5760405162461bcd60e51b815260040161057c906118b3565b7f78e6250172d8e0a57d8d41f480f13581571a2d27bb2a93f5f7bd2511f5c22a6c848484604051610a32939291906115b4565b60405180910390a150505050565b6000818152600460205260409020546060908067ffffffffffffffff811115610a7957634e487b7160e01b600052604160045260246000fd5b604051908082528060200260200182016040528015610aa2578160200160208202803683370190505b50915060005b81811015610b445760008185604051602001610ac5929190611592565b60408051601f1981840301815291815281516020928301206000818152600290935291205485519192506001600160a01b031690859084908110610b1957634e487b7160e01b600052603260045260246000fd5b6001600160a01b039092166020928302919091019091015250610b3d60018261198a565b9050610aa8565b5050919050565b6002602052600090815260409020546001600160a01b031681565b610b907f0245b6cbab6b03e029f6c88bff9595f9f5c30170f52598c3459ee71476ad59c1336107e4565b610bac5760405162461bcd60e51b815260040161057c906116e2565b6000828152600260205260409020546001600160a01b0316610be05760405162461bcd60e51b815260040161057c9061179c565b6000828152600260209081526040808320805473ffffffffffffffffffffffffffffffffffffffff19166001600160a01b038616179055600390915290205460ff166007811115610c4157634e487b7160e01b600052602160045260246000fd5b6040516001600160a01b0383169084907f1d3dc09176e587732ef26b4edb7961028f2e33cce7ad22d62f07e6a5e26d8e6490600090a45050565b60068054610c8890611a08565b80601f0160208091040260200160405190810160405280929190818152602001828054610cb490611a08565b8015610d015780601f10610cd657610100808354040283529160200191610d01565b820191906000526020600020905b815481529060010190602001808311610ce457829003601f168201915b505050505081565b610d1282610521565b610d1e81610621610f58565b6106308383611045565b7f1884995e9e21b948f653f9596094b17f12f1b114ed4ca397c21461be57c16fe881565b610d767f1884995e9e21b948f653f9596094b17f12f1b114ed4ca397c21461be57c16fe8336107e4565b610d925760405162461bcd60e51b815260040161057c9061173f565b61012c816fffffffffffffffffffffffffffffffff161115610dc65760405162461bcd60e51b815260040161057c90611856565b600580546fffffffffffffffffffffffffffffffff19166fffffffffffffffffffffffffffffffff83161790556040517f1890faa36c0d3210e563b3b71281f08fdb6016a537f6664317d853bd2af52032906105ec90839061196d565b606060068054610e3290611a08565b80601f0160208091040260200160405190810160405280929190818152602001828054610e5e90611a08565b8015610eab5780601f10610e8057610100808354040283529160200191610eab565b820191906000526020600020905b815481529060010190602001808311610e8e57829003601f168201915b5050505050905090565b610edf7f0245b6cbab6b03e029f6c88bff9595f9f5c30170f52598c3459ee71476ad59c1336107e4565b610efb5760405162461bcd60e51b815260040161057c906116e2565b6001805460ff19168215151790556040517f59617e84cd4a4d47c34c76f190da73d3a6a0236e0770dcba41851db53f336f57906105ec90839061163e565b61271081565b6001600160e01b031981166301ffc9a760e01b14919050565b3390565b610f6682826107e4565b61067757610f7e816001600160a01b031660146110c8565b610f898360206110c8565b604051602001610f9a929190611511565b60408051601f198184030181529082905262461bcd60e51b825261057c9160040161167a565b610fca82826107e4565b610677576000828152602081815260408083206001600160a01b03851684529091529020805460ff19166001179055611001610f58565b6001600160a01b0316816001600160a01b0316837f2f8788117e7eff1d82e926ec794901d17c78024a50270940304540a733656f0d60405160405180910390a45050565b61104f82826107e4565b15610677576000828152602081815260408083206001600160a01b03851684529091529020805460ff19169055611084610f58565b6001600160a01b0316816001600160a01b0316837ff6391f5c32d9c69d2a47ea670b442974b53935d1edc7fd64eb21e047a839171b60405160405180910390a45050565b606060006110d78360026119a2565b6110e290600261198a565b67ffffffffffffffff81111561110857634e487b7160e01b600052604160045260246000fd5b6040519080825280601f01601f191660200182016040528015611132576020820181803683370190505b509050600360fc1b8160008151811061115b57634e487b7160e01b600052603260045260246000fd5b60200101906001600160f81b031916908160001a905350600f60fb1b8160018151811061119857634e487b7160e01b600052603260045260246000fd5b60200101906001600160f81b031916908160001a90535060006111bc8460026119a2565b6111c790600161198a565b90505b6001811115611268577f303132333435363738396162636465660000000000000000000000000000000085600f166010811061121657634e487b7160e01b600052603260045260246000fd5b1a60f81b82828151811061123a57634e487b7160e01b600052603260045260246000fd5b60200101906001600160f81b031916908160001a90535060049490941c93611261816119f1565b90506111ca565b5083156112875760405162461bcd60e51b815260040161057c906116ad565b9392505050565b82805461129a90611a08565b90600052602060002090601f0160209004810192826112bc5760008555611302565b82601f106112d55782800160ff19823516178555611302565b82800160010185558215611302579182015b828111156113025782358255916020019190600101906112e7565b5061130e929150611312565b5090565b5b8082111561130e5760008155600101611313565b80356001600160a01b038116811461051c57600080fd5b60006020828403121561134f578081fd5b61128782611327565b60008060006060848603121561136c578182fd5b61137584611327565b925061138360208501611327565b9150604084013590509250925092565b600080604083850312156113a5578182fd5b6113ae83611327565b9150602083013560ff811681146113c3578182fd5b809150509250929050565b6000602082840312156113df578081fd5b813561128781611a59565b6000602082840312156113fb578081fd5b815161128781611a59565b600060208284031215611417578081fd5b5035919050565b60008060408385031215611430578182fd5b8235915061144060208401611327565b90509250929050565b60006020828403121561145a578081fd5b81356001600160e01b031981168114611287578182fd5b60008060208385031215611483578182fd5b823567ffffffffffffffff8082111561149a578384fd5b818501915085601f8301126114ad578384fd5b8135818111156114bb578485fd5b8660208285010111156114cc578485fd5b60209290920196919550909350505050565b6000602082840312156114ef578081fd5b81356fffffffffffffffffffffffffffffffff81168114611287578182fd5b90565b60007f416363657373436f6e74726f6c3a206163636f756e7420000000000000000000825283516115498160178501602088016119c1565b7f206973206d697373696e6720726f6c652000000000000000000000000000000060179184019182015283516115868160288401602088016119c1565b01602801949350505050565b918252602082015260400190565b6001600160a01b0391909116815260200190565b6001600160a01b039384168152919092166020820152604081019190915260600190565b6001600160a01b03929092168252602082015260400190565b6020808252825182820181905260009190848201906040850190845b818110156116325783516001600160a01b03168352928401929184019160010161160d565b50909695505050505050565b901515815260200190565b90815260200190565b602081016008831061167457634e487b7160e01b600052602160045260246000fd5b91905290565b60006020825282518060208401526116998160408501602087016119c1565b601f01601f19169190910160400192915050565b6020808252818101527f537472696e67733a20686578206c656e67746820696e73756666696369656e74604082015260600190565b60208082526036908201527f50726f746f636f6c3a204f6e6c792070726f746f636f6c2061646d696e73206360408201527f616e2063616c6c20746869732066756e6374696f6e2e00000000000000000000606082015260800190565b60208082526035908201527f50726f746f636f6c3a204f6e6c79204e46544c6162732061646d696e7320636160408201527f6e2063616c6c20746869732066756e6374696f6e2e0000000000000000000000606082015260800190565b60208082526036908201527f50726f746f636f6c436f6e74726f6c3a2061206d6f64756c652077697468207460408201527f68697320494420646f6573206e6f742065786973742e00000000000000000000606082015260800190565b6020808252602e908201527f50726f746f636f6c436f6e74726f6c3a20696e76616c6964206d6f64756c652060408201527f747970652070726f76696465642e000000000000000000000000000000000000606082015260800190565b6020808252602e908201527f50726f746f636f6c436f6e74726f6c3a206665652063616e6e6f74206265206760408201527f726561746572207468616e203325000000000000000000000000000000000000606082015260800190565b60208082526034908201527f50726f746f636f6c20436f6e74726f6c3a206661696c656420746f207472616e60408201527f736665722070726f746f636f6c2066756e64732e000000000000000000000000606082015260800190565b6020808252602f908201527f416363657373436f6e74726f6c3a2063616e206f6e6c792072656e6f756e636560408201527f20726f6c657320666f722073656c660000000000000000000000000000000000606082015260800190565b6fffffffffffffffffffffffffffffffff91909116815260200190565b6000821982111561199d5761199d611a43565b500190565b60008160001904831182151516156119bc576119bc611a43565b500290565b60005b838110156119dc5781810151838201526020016119c4565b838111156119eb576000848401525b50505050565b600081611a0057611a00611a43565b506000190190565b600281046001821680611a1c57607f821691505b60208210811415611a3d57634e487b7160e01b600052602260045260246000fd5b50919050565b634e487b7160e01b600052601160045260246000fd5b8015158114611a6757600080fd5b5056fea164736f6c6343000800000a1884995e9e21b948f653f9596094b17f12f1b114ed4ca397c21461be57c16fe80245b6cbab6b03e029f6c88bff9595f9f5c30170f52598c3459ee71476ad59c1",
  "linkReferences": {},
  "deployedLinkReferences": {}
}