{
  "_format": "hh-sol-artifact-1",
  "contractName": "ProtocolControl",
  "sourceName": "contracts/ProtocolControl.sol",
  "abi": [
    {
      "inputs": [
        {
          "internalType": "address",
          "name": "_registry",
          "type": "address"
        },
        {
          "internalType": "address",
          "name": "_admin",
          "type": "address"
        },
        {
          "internalType": "string",
          "name": "_uri",
          "type": "string"
        }
      ],
      "stateMutability": "nonpayable",
      "type": "constructor"
    },
    {
      "anonymous": false,
      "inputs": [
        {
          "indexed": false,
          "internalType": "address",
          "name": "_newForwarder",
          "type": "address"
        }
      ],
      "name": "ForwarderUpdated",
      "type": "event"
    },
    {
      "anonymous": false,
      "inputs": [
        {
          "indexed": true,
          "internalType": "bytes32",
          "name": "moduleId",
          "type": "bytes32"
        },
        {
          "indexed": true,
          "internalType": "address",
          "name": "module",
          "type": "address"
        }
      ],
      "name": "ModuleUpdated",
      "type": "event"
    },
    {
      "anonymous": false,
      "inputs": [
        {
          "indexed": true,
          "internalType": "bytes32",
          "name": "role",
          "type": "bytes32"
        },
        {
          "indexed": true,
          "internalType": "bytes32",
          "name": "previousAdminRole",
          "type": "bytes32"
        },
        {
          "indexed": true,
          "internalType": "bytes32",
          "name": "newAdminRole",
          "type": "bytes32"
        }
      ],
      "name": "RoleAdminChanged",
      "type": "event"
    },
    {
      "anonymous": false,
      "inputs": [
        {
          "indexed": true,
          "internalType": "bytes32",
          "name": "role",
          "type": "bytes32"
        },
        {
          "indexed": true,
          "internalType": "address",
          "name": "account",
          "type": "address"
        },
        {
          "indexed": true,
          "internalType": "address",
          "name": "sender",
          "type": "address"
        }
      ],
      "name": "RoleGranted",
      "type": "event"
    },
    {
      "anonymous": false,
      "inputs": [
        {
          "indexed": true,
          "internalType": "bytes32",
          "name": "role",
          "type": "bytes32"
        },
        {
          "indexed": true,
          "internalType": "address",
          "name": "account",
          "type": "address"
        },
        {
          "indexed": true,
          "internalType": "address",
          "name": "sender",
          "type": "address"
        }
      ],
      "name": "RoleRevoked",
      "type": "event"
    },
    {
      "anonymous": false,
      "inputs": [
        {
          "indexed": false,
          "internalType": "bool",
          "name": "isPaused",
          "type": "bool"
        }
      ],
      "name": "SystemPaused",
      "type": "event"
    },
    {
      "anonymous": false,
      "inputs": [
        {
          "indexed": false,
          "internalType": "address",
          "name": "_newTreasury",
          "type": "address"
        }
      ],
      "name": "TreasuryUpdated",
      "type": "event"
    },
    {
      "inputs": [],
      "name": "DEFAULT_ADMIN_ROLE",
      "outputs": [
        {
          "internalType": "bytes32",
          "name": "",
          "type": "bytes32"
        }
      ],
      "stateMutability": "view",
      "type": "function"
    },
    {
      "inputs": [],
      "name": "MAX_BPS",
      "outputs": [
        {
          "internalType": "uint128",
          "name": "",
          "type": "uint128"
        }
      ],
      "stateMutability": "view",
      "type": "function"
    },
    {
      "inputs": [
        {
          "internalType": "address",
          "name": "_newModuleAddress",
          "type": "address"
        },
        {
          "internalType": "uint256",
          "name": "_moduleType",
          "type": "uint256"
        }
      ],
      "name": "addModule",
      "outputs": [
        {
          "internalType": "bytes32",
          "name": "moduleId",
          "type": "bytes32"
        }
      ],
      "stateMutability": "nonpayable",
      "type": "function"
    },
    {
      "inputs": [],
      "name": "contractURI",
      "outputs": [
        {
          "internalType": "string",
          "name": "",
          "type": "string"
        }
      ],
      "stateMutability": "view",
      "type": "function"
    },
    {
      "inputs": [
        {
          "internalType": "uint256",
          "name": "_moduleType",
          "type": "uint256"
        }
      ],
      "name": "getAllModulesOfType",
      "outputs": [
        {
          "internalType": "address[]",
          "name": "allModules",
          "type": "address[]"
        }
      ],
      "stateMutability": "view",
      "type": "function"
    },
    {
      "inputs": [],
      "name": "getForwarder",
      "outputs": [
        {
          "internalType": "address",
          "name": "",
          "type": "address"
        }
      ],
      "stateMutability": "view",
      "type": "function"
    },
    {
      "inputs": [
        {
          "internalType": "bytes32",
          "name": "role",
          "type": "bytes32"
        }
      ],
      "name": "getRoleAdmin",
      "outputs": [
        {
          "internalType": "bytes32",
          "name": "",
          "type": "bytes32"
        }
      ],
      "stateMutability": "view",
      "type": "function"
    },
    {
      "inputs": [
        {
          "internalType": "bytes32",
          "name": "role",
          "type": "bytes32"
        },
        {
          "internalType": "uint256",
          "name": "index",
          "type": "uint256"
        }
      ],
      "name": "getRoleMember",
      "outputs": [
        {
          "internalType": "address",
          "name": "",
          "type": "address"
        }
      ],
      "stateMutability": "view",
      "type": "function"
    },
    {
      "inputs": [
        {
          "internalType": "bytes32",
          "name": "role",
          "type": "bytes32"
        }
      ],
      "name": "getRoleMemberCount",
      "outputs": [
        {
          "internalType": "uint256",
          "name": "",
          "type": "uint256"
        }
      ],
      "stateMutability": "view",
      "type": "function"
    },
    {
      "inputs": [
        {
          "internalType": "address",
          "name": "moduleAddress",
          "type": "address"
        }
      ],
      "name": "getRoyaltyTreasury",
      "outputs": [
        {
          "internalType": "address",
          "name": "",
          "type": "address"
        }
      ],
      "stateMutability": "view",
      "type": "function"
    },
    {
      "inputs": [
        {
          "internalType": "bytes32",
          "name": "role",
          "type": "bytes32"
        },
        {
          "internalType": "address",
          "name": "account",
          "type": "address"
        }
      ],
      "name": "grantRole",
      "outputs": [],
      "stateMutability": "nonpayable",
      "type": "function"
    },
    {
      "inputs": [
        {
          "internalType": "bytes32",
          "name": "role",
          "type": "bytes32"
        },
        {
          "internalType": "address",
          "name": "account",
          "type": "address"
        }
      ],
      "name": "hasRole",
      "outputs": [
        {
          "internalType": "bool",
          "name": "",
          "type": "bool"
        }
      ],
      "stateMutability": "view",
      "type": "function"
    },
    {
      "inputs": [
        {
          "internalType": "address",
          "name": "",
          "type": "address"
        }
      ],
      "name": "moduleRoyalty",
      "outputs": [
        {
          "internalType": "address",
          "name": "",
          "type": "address"
        }
      ],
      "stateMutability": "view",
      "type": "function"
    },
    {
      "inputs": [
        {
          "internalType": "bytes32",
          "name": "",
          "type": "bytes32"
        }
      ],
      "name": "modules",
      "outputs": [
        {
          "internalType": "address",
          "name": "",
          "type": "address"
        }
      ],
      "stateMutability": "view",
      "type": "function"
    },
    {
      "inputs": [
        {
          "internalType": "uint256",
          "name": "",
          "type": "uint256"
        }
      ],
      "name": "numOfModuleType",
      "outputs": [
        {
          "internalType": "uint256",
          "name": "",
          "type": "uint256"
        }
      ],
      "stateMutability": "view",
      "type": "function"
    },
    {
      "inputs": [
        {
          "internalType": "bool",
          "name": "_toPause",
          "type": "bool"
        }
      ],
      "name": "pauseProtocol",
      "outputs": [],
      "stateMutability": "nonpayable",
      "type": "function"
    },
    {
      "inputs": [],
      "name": "registry",
      "outputs": [
        {
          "internalType": "address",
          "name": "",
          "type": "address"
        }
      ],
      "stateMutability": "view",
      "type": "function"
    },
    {
      "inputs": [
        {
          "internalType": "bytes32",
          "name": "role",
          "type": "bytes32"
        },
        {
          "internalType": "address",
          "name": "account",
          "type": "address"
        }
      ],
      "name": "renounceRole",
      "outputs": [],
      "stateMutability": "nonpayable",
      "type": "function"
    },
    {
      "inputs": [
        {
          "internalType": "bytes32",
          "name": "role",
          "type": "bytes32"
        },
        {
          "internalType": "address",
          "name": "account",
          "type": "address"
        }
      ],
      "name": "revokeRole",
      "outputs": [],
      "stateMutability": "nonpayable",
      "type": "function"
    },
    {
      "inputs": [],
      "name": "royaltyTreasury",
      "outputs": [
        {
          "internalType": "address",
          "name": "",
          "type": "address"
        }
      ],
      "stateMutability": "view",
      "type": "function"
    },
    {
      "inputs": [
        {
          "internalType": "string",
          "name": "_URI",
          "type": "string"
        }
      ],
      "name": "setContractURI",
      "outputs": [],
      "stateMutability": "nonpayable",
      "type": "function"
    },
    {
      "inputs": [
        {
          "internalType": "address",
          "name": "forwarder",
          "type": "address"
        }
      ],
      "name": "setForwarder",
      "outputs": [],
      "stateMutability": "nonpayable",
      "type": "function"
    },
    {
      "inputs": [
        {
          "internalType": "address",
          "name": "moduleAddress",
          "type": "address"
        },
        {
          "internalType": "address payable",
          "name": "_treasury",
          "type": "address"
        }
      ],
      "name": "setModuleRoyaltyTreasury",
      "outputs": [],
      "stateMutability": "nonpayable",
      "type": "function"
    },
    {
      "inputs": [
        {
          "internalType": "address payable",
          "name": "_treasury",
          "type": "address"
        }
      ],
      "name": "setRoyaltyTreasury",
      "outputs": [],
      "stateMutability": "nonpayable",
      "type": "function"
    },
    {
      "inputs": [
        {
          "internalType": "bytes4",
          "name": "interfaceId",
          "type": "bytes4"
        }
      ],
      "name": "supportsInterface",
      "outputs": [
        {
          "internalType": "bool",
          "name": "",
          "type": "bool"
        }
      ],
      "stateMutability": "view",
      "type": "function"
    },
    {
      "inputs": [],
      "name": "systemPaused",
      "outputs": [
        {
          "internalType": "bool",
          "name": "",
          "type": "bool"
        }
      ],
      "stateMutability": "view",
      "type": "function"
    },
    {
      "inputs": [
        {
          "internalType": "bytes32",
          "name": "_moduleId",
          "type": "bytes32"
        },
        {
          "internalType": "address",
          "name": "_newModuleAddress",
          "type": "address"
        }
      ],
      "name": "updateModule",
      "outputs": [],
      "stateMutability": "nonpayable",
      "type": "function"
    }
  ],
  "bytecode": "0x60806040523480156200001157600080fd5b5060405162001ebc38038062001ebc833981016040819052620000349162000381565b805162000049906008906020840190620002a1565b50600580546001600160a01b0319166001600160a01b038516908117909155604080516361d027b360e01b815290516361d027b391600480820192602092909190829003018186803b1580156200009f57600080fd5b505afa158015620000b4573d6000803e3d6000fd5b505050506040513d601f19601f82011682018060405250810190620000da919062000364565b600680546001600160a01b0319166001600160a01b03929092169190911790556200010760008362000110565b505050620004cb565b6200012782826200015360201b62000b5e1760201c565b60008281526001602090815260409091206200014e91839062000b6c62000163821b17901c565b505050565b6200015f828262000183565b5050565b60006200017a836001600160a01b0384166200020d565b90505b92915050565b6200018f82826200025c565b6200015f576000828152602081815260408083206001600160a01b03851684529091529020805460ff19166001179055620001c962000285565b6001600160a01b0316816001600160a01b0316837f2f8788117e7eff1d82e926ec794901d17c78024a50270940304540a733656f0d60405160405180910390a45050565b60006200021b838362000289565b62000253575081546001818101845560008481526020808220909301849055845484825282860190935260409020919091556200017d565b5060006200017d565b6000918252602082815260408084206001600160a01b0393909316845291905290205460ff1690565b3390565b60009081526001919091016020526040902054151590565b828054620002af9062000478565b90600052602060002090601f016020900481019282620002d357600085556200031e565b82601f10620002ee57805160ff19168380011785556200031e565b828001600101855582156200031e579182015b828111156200031e57825182559160200191906001019062000301565b506200032c92915062000330565b5090565b5b808211156200032c576000815560010162000331565b80516001600160a01b03811681146200035f57600080fd5b919050565b60006020828403121562000376578081fd5b6200017a8262000347565b60008060006060848603121562000396578182fd5b620003a18462000347565b92506020620003b281860162000347565b60408601519093506001600160401b0380821115620003cf578384fd5b818701915087601f830112620003e3578384fd5b815181811115620003f857620003f8620004b5565b604051601f8201601f19168101850183811182821017156200041e576200041e620004b5565b60405281815283820185018a101562000435578586fd5b8592505b8183101562000458578383018501518184018601529184019162000439565b818311156200046957858583830101525b80955050505050509250925092565b6002810460018216806200048d57607f821691505b60208210811415620004af57634e487b7160e01b600052602260045260246000fd5b50919050565b634e487b7160e01b600052604160045260246000fd5b6119e180620004db6000396000f3fe608060405234801561001057600080fd5b50600436106101b95760003560e01c80639d2f83f0116100f9578063ca15c87311610097578063ef2933ec11610071578063ef2933ec1461037d578063f2aab4b314610390578063fd0c626b146103a3578063fd967f47146103b6576101b9565b8063ca15c87314610342578063d547741f14610355578063e8a3d48514610368576101b9565b8063aca84175116100d3578063aca84175146102e9578063b0b6cc1a14610309578063b9998a241461031c578063c097b1fb1461032f576101b9565b80639d2f83f0146102d1578063a0042526146102d9578063a217fddf146102e1576101b9565b80633fff7bf8116101665780639010d07c116101405780639010d07c1461028557806391d1485414610298578063938e3d7b146102ab57806396362d32146102be576101b9565b80633fff7bf8146102575780634d8188851461026a5780637b1039991461027d576101b9565b80632f2ff15d116101975780632f2ff15d1461021c57806336568abe146102315780633b98a7df14610244576101b9565b806301ffc9a7146101be57806305e9ca9b146101e7578063248a9ca3146101fc575b600080fd5b6101d16101cc366004611532565b6103cb565b6040516101de91906116cf565b60405180910390f35b6101ef6103f8565b6040516101de919061166e565b61020f61020a3660046114d5565b610407565b6040516101de91906116da565b61022f61022a3660046114ed565b61041c565b005b61022f61023f3660046114ed565b610443565b61022f61025236600461141a565b610465565b61020f6102653660046114d5565b6104dc565b61022f610278366004611452565b6104ee565b6101ef610568565b6101ef610293366004611511565b610577565b6101d16102a63660046114ed565b610598565b61022f6102b936600461155a565b6105c1565b61020f6102cc36600461148a565b6105f4565b6101d16106da565b6101ef6106e3565b61020f610794565b6102fc6102f73660046114d5565b610799565b6040516101de9190611682565b6101ef6103173660046114d5565b6108a4565b61022f61032a36600461141a565b6108bf565b61022f61033d3660046114ed565b61093c565b61020f6103503660046114d5565b6109f0565b61022f6103633660046114ed565b610a07565b610370610a11565b6040516101de91906116e3565b61022f61038b3660046114b5565b610aa3565b6101ef61039e36600461141a565b610b08565b6101ef6103b136600461141a565b610b3d565b6103be610b58565b6040516101de9190611899565b60006001600160e01b03198216635a05180f60e01b14806103f057506103f082610b81565b90505b919050565b6006546001600160a01b031681565b60009081526020819052604090206001015490565b6104268282610ba6565b600082815260016020526040902061043e9082610b6c565b505050565b61044d8282610bca565b600082815260016020526040902061043e9082610c0c565b610470600033610598565b6104955760405162461bcd60e51b815260040161048c9061174b565b60405180910390fd5b61049e81610c21565b6104ba5760405162461bcd60e51b815260040161048c906117a8565b600680546001600160a01b0319166001600160a01b0392909216919091179055565b60036020526000908152604090205481565b6104f9600033610598565b6105155760405162461bcd60e51b815260040161048c9061174b565b61051e81610c21565b61053a5760405162461bcd60e51b815260040161048c906117a8565b6001600160a01b03918216600090815260046020526040902080546001600160a01b03191691909216179055565b6005546001600160a01b031681565b600082815260016020526040812061058f9083610e48565b90505b92915050565b6000918252602082815260408084206001600160a01b0393909316845291905290205460ff1690565b6105cc600033610598565b6105e85760405162461bcd60e51b815260040161048c9061174b565b61043e60088383611381565b60006106008133610598565b61061c5760405162461bcd60e51b815260040161048c9061174b565b60008281526003602090815260409182902054915161063e9291859101611660565b604051602081830303815290604052805190602001209050600160036000848152602001908152602001600020600082825461067a91906118b6565b909155505060008181526002602052604080822080546001600160a01b0319166001600160a01b0387169081179091559051909183917ff0d0fe9ecd941ad0096a6b95e0998ddcd76ba6a240a106fef284fc2d4f0caa419190a392915050565b60095460ff1681565b6007546000906001600160a01b031661078357600560009054906101000a90046001600160a01b03166001600160a01b031663f645d4f96040518163ffffffff1660e01b815260040160206040518083038186803b15801561074457600080fd5b505afa158015610758573d6000803e3d6000fd5b505050506040513d601f19601f8201168201806040525081019061077c9190611436565b9050610791565b506007546001600160a01b03165b90565b600081565b6000818152600360205260409020546060908067ffffffffffffffff8111156107d257634e487b7160e01b600052604160045260246000fd5b6040519080825280602002602001820160405280156107fb578160200160208202803683370190505b50915060005b8181101561089d576000818560405160200161081e929190611660565b60408051601f1981840301815291815281516020928301206000818152600290935291205485519192506001600160a01b03169085908490811061087257634e487b7160e01b600052603260045260246000fd5b6001600160a01b0390921660209283029190910190910152506108966001826118b6565b9050610801565b5050919050565b6002602052600090815260409020546001600160a01b031681565b6108ca600033610598565b6108e65760405162461bcd60e51b815260040161048c9061174b565b600780546001600160a01b0319166001600160a01b0383161790556040517f9d90a82ec1d038d4e13317a0eb136f9c65b7ed42156fc204ec4b7c4731e739509061093190839061166e565b60405180910390a150565b610947600033610598565b6109635760405162461bcd60e51b815260040161048c9061174b565b6000828152600260205260409020546001600160a01b03166109975760405162461bcd60e51b815260040161048c906117df565b60008281526002602052604080822080546001600160a01b0319166001600160a01b0385169081179091559051909184917ff0d0fe9ecd941ad0096a6b95e0998ddcd76ba6a240a106fef284fc2d4f0caa419190a35050565b60008181526001602052604081206103f090610e54565b61044d8282610e5f565b606060088054610a209061196b565b80601f0160208091040260200160405190810160405280929190818152602001828054610a4c9061196b565b8015610a995780601f10610a6e57610100808354040283529160200191610a99565b820191906000526020600020905b815481529060010190602001808311610a7c57829003601f168201915b5050505050905090565b610aae600033610598565b610aca5760405162461bcd60e51b815260040161048c9061174b565b6009805460ff19168215151790556040517f59617e84cd4a4d47c34c76f190da73d3a6a0236e0770dcba41851db53f336f57906109319083906116cf565b6001600160a01b03808216600090815260046020526040812054909116806103f05750506006546001600160a01b03166103f3565b6004602052600090815260409020546001600160a01b031681565b61271081565b610b688282610e7e565b5050565b600061058f836001600160a01b038416610f03565b60006001600160e01b03198216637965db0b60e01b14806103f057506103f082610f4d565b610baf82610407565b610bc081610bbb610f66565b610f6a565b61043e8383610e7e565b610bd2610f66565b6001600160a01b0316816001600160a01b031614610c025760405162461bcd60e51b815260040161048c9061183c565b610b688282610fce565b600061058f836001600160a01b038416611051565b600554604080516361d027b360e01b8152905160009284926001600160a01b0391821692859285169163ce7c2ac29185916361d027b3916004808301926020929190829003018186803b158015610c7757600080fd5b505afa158015610c8b573d6000803e3d6000fd5b505050506040513d601f19601f82011682018060405250810190610caf9190611436565b6040518263ffffffff1660e01b8152600401610ccb919061166e565b60206040518083038186803b158015610ce357600080fd5b505afa158015610cf7573d6000803e3d6000fd5b505050506040513d601f19601f82011682018060405250810190610d1b91906115c7565b90506000836001600160a01b0316633a98ef396040518163ffffffff1660e01b815260040160206040518083038186803b158015610d5857600080fd5b505afa158015610d6c573d6000803e3d6000fd5b505050506040513d601f19601f82011682018060405250810190610d9091906115c7565b9050600081610da1612710856118ee565b610dab91906118ce565b604051630e78de6f60e31b8152909150600a9081906001600160a01b038716906373c6f37890610ddf90309060040161166e565b60206040518083038186803b158015610df757600080fd5b505afa158015610e0b573d6000803e3d6000fd5b505050506040513d601f19601f82011682018060405250810190610e2f91906115c7565b610e39919061190d565b90911015979650505050505050565b600061058f838361116e565b60006103f0826111a6565b610e6882610407565b610e7481610bbb610f66565b61043e8383610fce565b610e888282610598565b610b68576000828152602081815260408083206001600160a01b03851684529091529020805460ff19166001179055610ebf610f66565b6001600160a01b0316816001600160a01b0316837f2f8788117e7eff1d82e926ec794901d17c78024a50270940304540a733656f0d60405160405180910390a45050565b6000610f0f83836111aa565b610f4557508154600181810184556000848152602080822090930184905584548482528286019093526040902091909155610592565b506000610592565b6001600160e01b031981166301ffc9a760e01b14919050565b3390565b610f748282610598565b610b6857610f8c816001600160a01b031660146111c2565b610f978360206111c2565b604051602001610fa89291906115df565b60408051601f198184030181529082905262461bcd60e51b825261048c916004016116e3565b610fd88282610598565b15610b68576000828152602081815260408083206001600160a01b03851684529091529020805460ff1916905561100d610f66565b6001600160a01b0316816001600160a01b0316837ff6391f5c32d9c69d2a47ea670b442974b53935d1edc7fd64eb21e047a839171b60405160405180910390a45050565b6000818152600183016020526040812054801561116457600061107560018361190d565b85549091506000906110899060019061190d565b905081811461110a5760008660000182815481106110b757634e487b7160e01b600052603260045260246000fd5b90600052602060002001549050808760000184815481106110e857634e487b7160e01b600052603260045260246000fd5b6000918252602080832090910192909255918252600188019052604090208390555b855486908061112957634e487b7160e01b600052603160045260246000fd5b600190038181906000526020600020016000905590558560010160008681526020019081526020016000206000905560019350505050610592565b6000915050610592565b600082600001828154811061119357634e487b7160e01b600052603260045260246000fd5b9060005260206000200154905092915050565b5490565b60009081526001919091016020526040902054151590565b606060006111d18360026118ee565b6111dc9060026118b6565b67ffffffffffffffff81111561120257634e487b7160e01b600052604160045260246000fd5b6040519080825280601f01601f19166020018201604052801561122c576020820181803683370190505b509050600360fc1b8160008151811061125557634e487b7160e01b600052603260045260246000fd5b60200101906001600160f81b031916908160001a905350600f60fb1b8160018151811061129257634e487b7160e01b600052603260045260246000fd5b60200101906001600160f81b031916908160001a90535060006112b68460026118ee565b6112c19060016118b6565b90505b6001811115611362577f303132333435363738396162636465660000000000000000000000000000000085600f166010811061131057634e487b7160e01b600052603260045260246000fd5b1a60f81b82828151811061133457634e487b7160e01b600052603260045260246000fd5b60200101906001600160f81b031916908160001a90535060049490941c9361135b81611954565b90506112c4565b50831561058f5760405162461bcd60e51b815260040161048c90611716565b82805461138d9061196b565b90600052602060002090601f0160209004810192826113af57600085556113f5565b82601f106113c85782800160ff198235161785556113f5565b828001600101855582156113f5579182015b828111156113f55782358255916020019190600101906113da565b50611401929150611405565b5090565b5b808211156114015760008155600101611406565b60006020828403121561142b578081fd5b813561058f816119bc565b600060208284031215611447578081fd5b815161058f816119bc565b60008060408385031215611464578081fd5b823561146f816119bc565b9150602083013561147f816119bc565b809150509250929050565b6000806040838503121561149c578182fd5b82356114a7816119bc565b946020939093013593505050565b6000602082840312156114c6578081fd5b8135801515811461058f578182fd5b6000602082840312156114e6578081fd5b5035919050565b600080604083850312156114ff578182fd5b82359150602083013561147f816119bc565b60008060408385031215611523578182fd5b50508035926020909101359150565b600060208284031215611543578081fd5b81356001600160e01b03198116811461058f578182fd5b6000806020838503121561156c578182fd5b823567ffffffffffffffff80821115611583578384fd5b818501915085601f830112611596578384fd5b8135818111156115a4578485fd5b8660208285010111156115b5578485fd5b60209290920196919550909350505050565b6000602082840312156115d8578081fd5b5051919050565b60007f416363657373436f6e74726f6c3a206163636f756e742000000000000000000082528351611617816017850160208801611924565b7f206973206d697373696e6720726f6c65200000000000000000000000000000006017918401918201528351611654816028840160208801611924565b01602801949350505050565b918252602082015260400190565b6001600160a01b0391909116815260200190565b6020808252825182820181905260009190848201906040850190845b818110156116c35783516001600160a01b03168352928401929184019160010161169e565b50909695505050505050565b901515815260200190565b90815260200190565b6000602082528251806020840152611702816040850160208701611924565b601f01601f19169190910160400192915050565b6020808252818101527f537472696e67733a20686578206c656e67746820696e73756666696369656e74604082015260600190565b60208082526036908201527f50726f746f636f6c3a204f6e6c792070726f746f636f6c2061646d696e73206360408201527f616e2063616c6c20746869732066756e6374696f6e2e00000000000000000000606082015260800190565b6020808252600e908201527f66656520697320746f6f206c6f77000000000000000000000000000000000000604082015260600190565b60208082526036908201527f50726f746f636f6c436f6e74726f6c3a2061206d6f64756c652077697468207460408201527f68697320494420646f6573206e6f742065786973742e00000000000000000000606082015260800190565b6020808252602f908201527f416363657373436f6e74726f6c3a2063616e206f6e6c792072656e6f756e636560408201527f20726f6c657320666f722073656c660000000000000000000000000000000000606082015260800190565b6fffffffffffffffffffffffffffffffff91909116815260200190565b600082198211156118c9576118c96119a6565b500190565b6000826118e957634e487b7160e01b81526012600452602481fd5b500490565b6000816000190483118215151615611908576119086119a6565b500290565b60008282101561191f5761191f6119a6565b500390565b60005b8381101561193f578181015183820152602001611927565b8381111561194e576000848401525b50505050565b600081611963576119636119a6565b506000190190565b60028104600182168061197f57607f821691505b602082108114156119a057634e487b7160e01b600052602260045260246000fd5b50919050565b634e487b7160e01b600052601160045260246000fd5b6001600160a01b03811681146119d157600080fd5b5056fea164736f6c6343000800000a",
  "linkReferences": {},
  "deployedLinkReferences": {}
}