{
  "_format": "hh-sol-artifact-1",
  "contractName": "ERC20PresetMinterPauser",
  "sourceName": "contracts/openzeppelin-presets/ERC20PresetMinterPauser.sol",
  "abi": [
    {
      "inputs": [
        {
          "internalType": "string",
          "name": "name",
          "type": "string"
        },
        {
          "internalType": "string",
          "name": "symbol",
          "type": "string"
        }
      ],
      "stateMutability": "nonpayable",
      "type": "constructor"
    },
    {
      "anonymous": false,
      "inputs": [
        {
          "indexed": true,
          "internalType": "address",
          "name": "owner",
          "type": "address"
        },
        {
          "indexed": true,
          "internalType": "address",
          "name": "spender",
          "type": "address"
        },
        {
          "indexed": false,
          "internalType": "uint256",
          "name": "value",
          "type": "uint256"
        }
      ],
      "name": "Approval",
      "type": "event"
    },
    {
      "anonymous": false,
      "inputs": [
        {
          "indexed": false,
          "internalType": "address",
          "name": "account",
          "type": "address"
        }
      ],
      "name": "Paused",
      "type": "event"
    },
    {
      "anonymous": false,
      "inputs": [
        {
          "indexed": true,
          "internalType": "bytes32",
          "name": "role",
          "type": "bytes32"
        },
        {
          "indexed": true,
          "internalType": "bytes32",
          "name": "previousAdminRole",
          "type": "bytes32"
        },
        {
          "indexed": true,
          "internalType": "bytes32",
          "name": "newAdminRole",
          "type": "bytes32"
        }
      ],
      "name": "RoleAdminChanged",
      "type": "event"
    },
    {
      "anonymous": false,
      "inputs": [
        {
          "indexed": true,
          "internalType": "bytes32",
          "name": "role",
          "type": "bytes32"
        },
        {
          "indexed": true,
          "internalType": "address",
          "name": "account",
          "type": "address"
        },
        {
          "indexed": true,
          "internalType": "address",
          "name": "sender",
          "type": "address"
        }
      ],
      "name": "RoleGranted",
      "type": "event"
    },
    {
      "anonymous": false,
      "inputs": [
        {
          "indexed": true,
          "internalType": "bytes32",
          "name": "role",
          "type": "bytes32"
        },
        {
          "indexed": true,
          "internalType": "address",
          "name": "account",
          "type": "address"
        },
        {
          "indexed": true,
          "internalType": "address",
          "name": "sender",
          "type": "address"
        }
      ],
      "name": "RoleRevoked",
      "type": "event"
    },
    {
      "anonymous": false,
      "inputs": [
        {
          "indexed": true,
          "internalType": "address",
          "name": "from",
          "type": "address"
        },
        {
          "indexed": true,
          "internalType": "address",
          "name": "to",
          "type": "address"
        },
        {
          "indexed": false,
          "internalType": "uint256",
          "name": "value",
          "type": "uint256"
        }
      ],
      "name": "Transfer",
      "type": "event"
    },
    {
      "anonymous": false,
      "inputs": [
        {
          "indexed": false,
          "internalType": "address",
          "name": "account",
          "type": "address"
        }
      ],
      "name": "Unpaused",
      "type": "event"
    },
    {
      "inputs": [],
      "name": "DEFAULT_ADMIN_ROLE",
      "outputs": [
        {
          "internalType": "bytes32",
          "name": "",
          "type": "bytes32"
        }
      ],
      "stateMutability": "view",
      "type": "function"
    },
    {
      "inputs": [],
      "name": "DOMAIN_SEPARATOR",
      "outputs": [
        {
          "internalType": "bytes32",
          "name": "",
          "type": "bytes32"
        }
      ],
      "stateMutability": "view",
      "type": "function"
    },
    {
      "inputs": [],
      "name": "MINTER_ROLE",
      "outputs": [
        {
          "internalType": "bytes32",
          "name": "",
          "type": "bytes32"
        }
      ],
      "stateMutability": "view",
      "type": "function"
    },
    {
      "inputs": [],
      "name": "PAUSER_ROLE",
      "outputs": [
        {
          "internalType": "bytes32",
          "name": "",
          "type": "bytes32"
        }
      ],
      "stateMutability": "view",
      "type": "function"
    },
    {
      "inputs": [
        {
          "internalType": "address",
          "name": "owner",
          "type": "address"
        },
        {
          "internalType": "address",
          "name": "spender",
          "type": "address"
        }
      ],
      "name": "allowance",
      "outputs": [
        {
          "internalType": "uint256",
          "name": "",
          "type": "uint256"
        }
      ],
      "stateMutability": "view",
      "type": "function"
    },
    {
      "inputs": [
        {
          "internalType": "address",
          "name": "spender",
          "type": "address"
        },
        {
          "internalType": "uint256",
          "name": "amount",
          "type": "uint256"
        }
      ],
      "name": "approve",
      "outputs": [
        {
          "internalType": "bool",
          "name": "",
          "type": "bool"
        }
      ],
      "stateMutability": "nonpayable",
      "type": "function"
    },
    {
      "inputs": [
        {
          "internalType": "address",
          "name": "account",
          "type": "address"
        }
      ],
      "name": "balanceOf",
      "outputs": [
        {
          "internalType": "uint256",
          "name": "",
          "type": "uint256"
        }
      ],
      "stateMutability": "view",
      "type": "function"
    },
    {
      "inputs": [
        {
          "internalType": "uint256",
          "name": "amount",
          "type": "uint256"
        }
      ],
      "name": "burn",
      "outputs": [],
      "stateMutability": "nonpayable",
      "type": "function"
    },
    {
      "inputs": [
        {
          "internalType": "address",
          "name": "account",
          "type": "address"
        },
        {
          "internalType": "uint256",
          "name": "amount",
          "type": "uint256"
        }
      ],
      "name": "burnFrom",
      "outputs": [],
      "stateMutability": "nonpayable",
      "type": "function"
    },
    {
      "inputs": [],
      "name": "decimals",
      "outputs": [
        {
          "internalType": "uint8",
          "name": "",
          "type": "uint8"
        }
      ],
      "stateMutability": "view",
      "type": "function"
    },
    {
      "inputs": [
        {
          "internalType": "address",
          "name": "spender",
          "type": "address"
        },
        {
          "internalType": "uint256",
          "name": "subtractedValue",
          "type": "uint256"
        }
      ],
      "name": "decreaseAllowance",
      "outputs": [
        {
          "internalType": "bool",
          "name": "",
          "type": "bool"
        }
      ],
      "stateMutability": "nonpayable",
      "type": "function"
    },
    {
      "inputs": [
        {
          "internalType": "bytes32",
          "name": "role",
          "type": "bytes32"
        }
      ],
      "name": "getRoleAdmin",
      "outputs": [
        {
          "internalType": "bytes32",
          "name": "",
          "type": "bytes32"
        }
      ],
      "stateMutability": "view",
      "type": "function"
    },
    {
      "inputs": [
        {
          "internalType": "bytes32",
          "name": "role",
          "type": "bytes32"
        },
        {
          "internalType": "uint256",
          "name": "index",
          "type": "uint256"
        }
      ],
      "name": "getRoleMember",
      "outputs": [
        {
          "internalType": "address",
          "name": "",
          "type": "address"
        }
      ],
      "stateMutability": "view",
      "type": "function"
    },
    {
      "inputs": [
        {
          "internalType": "bytes32",
          "name": "role",
          "type": "bytes32"
        }
      ],
      "name": "getRoleMemberCount",
      "outputs": [
        {
          "internalType": "uint256",
          "name": "",
          "type": "uint256"
        }
      ],
      "stateMutability": "view",
      "type": "function"
    },
    {
      "inputs": [
        {
          "internalType": "bytes32",
          "name": "role",
          "type": "bytes32"
        },
        {
          "internalType": "address",
          "name": "account",
          "type": "address"
        }
      ],
      "name": "grantRole",
      "outputs": [],
      "stateMutability": "nonpayable",
      "type": "function"
    },
    {
      "inputs": [
        {
          "internalType": "bytes32",
          "name": "role",
          "type": "bytes32"
        },
        {
          "internalType": "address",
          "name": "account",
          "type": "address"
        }
      ],
      "name": "hasRole",
      "outputs": [
        {
          "internalType": "bool",
          "name": "",
          "type": "bool"
        }
      ],
      "stateMutability": "view",
      "type": "function"
    },
    {
      "inputs": [
        {
          "internalType": "address",
          "name": "spender",
          "type": "address"
        },
        {
          "internalType": "uint256",
          "name": "addedValue",
          "type": "uint256"
        }
      ],
      "name": "increaseAllowance",
      "outputs": [
        {
          "internalType": "bool",
          "name": "",
          "type": "bool"
        }
      ],
      "stateMutability": "nonpayable",
      "type": "function"
    },
    {
      "inputs": [
        {
          "internalType": "address",
          "name": "to",
          "type": "address"
        },
        {
          "internalType": "uint256",
          "name": "amount",
          "type": "uint256"
        }
      ],
      "name": "mint",
      "outputs": [],
      "stateMutability": "nonpayable",
      "type": "function"
    },
    {
      "inputs": [],
      "name": "name",
      "outputs": [
        {
          "internalType": "string",
          "name": "",
          "type": "string"
        }
      ],
      "stateMutability": "view",
      "type": "function"
    },
    {
      "inputs": [
        {
          "internalType": "address",
          "name": "owner",
          "type": "address"
        }
      ],
      "name": "nonces",
      "outputs": [
        {
          "internalType": "uint256",
          "name": "",
          "type": "uint256"
        }
      ],
      "stateMutability": "view",
      "type": "function"
    },
    {
      "inputs": [],
      "name": "pause",
      "outputs": [],
      "stateMutability": "nonpayable",
      "type": "function"
    },
    {
      "inputs": [],
      "name": "paused",
      "outputs": [
        {
          "internalType": "bool",
          "name": "",
          "type": "bool"
        }
      ],
      "stateMutability": "view",
      "type": "function"
    },
    {
      "inputs": [
        {
          "internalType": "address",
          "name": "owner",
          "type": "address"
        },
        {
          "internalType": "address",
          "name": "spender",
          "type": "address"
        },
        {
          "internalType": "uint256",
          "name": "value",
          "type": "uint256"
        },
        {
          "internalType": "uint256",
          "name": "deadline",
          "type": "uint256"
        },
        {
          "internalType": "uint8",
          "name": "v",
          "type": "uint8"
        },
        {
          "internalType": "bytes32",
          "name": "r",
          "type": "bytes32"
        },
        {
          "internalType": "bytes32",
          "name": "s",
          "type": "bytes32"
        }
      ],
      "name": "permit",
      "outputs": [],
      "stateMutability": "nonpayable",
      "type": "function"
    },
    {
      "inputs": [
        {
          "internalType": "bytes32",
          "name": "role",
          "type": "bytes32"
        },
        {
          "internalType": "address",
          "name": "account",
          "type": "address"
        }
      ],
      "name": "renounceRole",
      "outputs": [],
      "stateMutability": "nonpayable",
      "type": "function"
    },
    {
      "inputs": [
        {
          "internalType": "bytes32",
          "name": "role",
          "type": "bytes32"
        },
        {
          "internalType": "address",
          "name": "account",
          "type": "address"
        }
      ],
      "name": "revokeRole",
      "outputs": [],
      "stateMutability": "nonpayable",
      "type": "function"
    },
    {
      "inputs": [
        {
          "internalType": "bytes4",
          "name": "interfaceId",
          "type": "bytes4"
        }
      ],
      "name": "supportsInterface",
      "outputs": [
        {
          "internalType": "bool",
          "name": "",
          "type": "bool"
        }
      ],
      "stateMutability": "view",
      "type": "function"
    },
    {
      "inputs": [],
      "name": "symbol",
      "outputs": [
        {
          "internalType": "string",
          "name": "",
          "type": "string"
        }
      ],
      "stateMutability": "view",
      "type": "function"
    },
    {
      "inputs": [],
      "name": "totalSupply",
      "outputs": [
        {
          "internalType": "uint256",
          "name": "",
          "type": "uint256"
        }
      ],
      "stateMutability": "view",
      "type": "function"
    },
    {
      "inputs": [
        {
          "internalType": "address",
          "name": "recipient",
          "type": "address"
        },
        {
          "internalType": "uint256",
          "name": "amount",
          "type": "uint256"
        }
      ],
      "name": "transfer",
      "outputs": [
        {
          "internalType": "bool",
          "name": "",
          "type": "bool"
        }
      ],
      "stateMutability": "nonpayable",
      "type": "function"
    },
    {
      "inputs": [
        {
          "internalType": "address",
          "name": "sender",
          "type": "address"
        },
        {
          "internalType": "address",
          "name": "recipient",
          "type": "address"
        },
        {
          "internalType": "uint256",
          "name": "amount",
          "type": "uint256"
        }
      ],
      "name": "transferFrom",
      "outputs": [
        {
          "internalType": "bool",
          "name": "",
          "type": "bool"
        }
      ],
      "stateMutability": "nonpayable",
      "type": "function"
    },
    {
      "inputs": [],
      "name": "unpause",
      "outputs": [],
      "stateMutability": "nonpayable",
      "type": "function"
    }
  ],
  "bytecode": "0x6101406040527f6e71edae12b1b97f4d1f60370fef10105fa2faae0126114a169c64845d6126c9610120523480156200003757600080fd5b5060405162002641380380620026418339810160408190526200005a9162000482565b8180604051806040016040528060018152602001603160f81b81525084848160059080519060200190620000909291906200030f565b508051620000a69060069060208401906200030f565b50506007805460ff1916905550815160209283012081519183019190912060c082815260e08290524660a0818152604080517f8b73c3c69bb8fe3d512ecc4cf759cc79239f7b179b0ffacaa9a75d522b39400f81890181905281830197909752606081019590955260808086019390935230858301528051808603909201825293909201909252805193019290922090915261010052506200014a600033620001aa565b620001767f9f2df0fed2c77648de5860a4cc508cd0818c85b8b8a1ab4ceeef8d981c8956a633620001aa565b620001a27f65d7a28e3265b37a6474929f336521b332c1681b933f6cb9f3376673440d862a33620001aa565b505062000529565b620001c18282620001ed60201b62000be01760201c565b6000828152600160209081526040909120620001e891839062000bea620001fd821b17901c565b505050565b620001f982826200021d565b5050565b600062000214836001600160a01b038416620002bd565b90505b92915050565b6000828152602081815260408083206001600160a01b038516845290915290205460ff16620001f9576000828152602081815260408083206001600160a01b03851684529091529020805460ff19166001179055620002793390565b6001600160a01b0316816001600160a01b0316837f2f8788117e7eff1d82e926ec794901d17c78024a50270940304540a733656f0d60405160405180910390a45050565b6000818152600183016020526040812054620003065750815460018181018455600084815260208082209093018490558454848252828601909352604090209190915562000217565b50600062000217565b8280546200031d90620004ec565b90600052602060002090601f0160209004810192826200034157600085556200038c565b82601f106200035c57805160ff19168380011785556200038c565b828001600101855582156200038c579182015b828111156200038c5782518255916020019190600101906200036f565b506200039a9291506200039e565b5090565b5b808211156200039a57600081556001016200039f565b634e487b7160e01b600052604160045260246000fd5b600082601f830112620003dd57600080fd5b81516001600160401b0380821115620003fa57620003fa620003b5565b604051601f8301601f19908116603f01168101908282118183101715620004255762000425620003b5565b816040528381526020925086838588010111156200044257600080fd5b600091505b8382101562000466578582018301518183018401529082019062000447565b83821115620004785760008385830101525b9695505050505050565b600080604083850312156200049657600080fd5b82516001600160401b0380821115620004ae57600080fd5b620004bc86838701620003cb565b93506020850151915080821115620004d357600080fd5b50620004e285828601620003cb565b9150509250929050565b600181811c908216806200050157607f821691505b602082108114156200052357634e487b7160e01b600052602260045260246000fd5b50919050565b60805160a05160c05160e05161010051610120516120c8620005796000396000610ac601526000610faf01526000610ffe01526000610fd901526000610f5d01526000610f8601526120c86000f3fe608060405234801561001057600080fd5b50600436106101e55760003560e01c806370a082311161010f578063a457c2d7116100a2578063d539139311610071578063d539139314610422578063d547741f14610449578063dd62ed3e1461045c578063e63ab1e91461049557600080fd5b8063a457c2d7146103d6578063a9059cbb146103e9578063ca15c873146103fc578063d505accf1461040f57600080fd5b80639010d07c116100de5780639010d07c1461036457806391d148541461038f57806395d89b41146103c6578063a217fddf146103ce57600080fd5b806370a082311461030d57806379cc6790146103365780637ecebe00146103495780638456cb591461035c57600080fd5b8063313ce567116101875780633f4ba83a116101565780633f4ba83a146102d457806340c10f19146102dc57806342966c68146102ef5780635c975abb1461030257600080fd5b8063313ce567146102975780633644e515146102a657806336568abe146102ae57806339509351146102c157600080fd5b806318160ddd116101c357806318160ddd1461023a57806323b872dd1461024c578063248a9ca31461025f5780632f2ff15d1461028257600080fd5b806301ffc9a7146101ea57806306fdde0314610212578063095ea7b314610227575b600080fd5b6101fd6101f8366004611d08565b6104bc565b60405190151581526020015b60405180910390f35b61021a6104e7565b6040516102099190611d5e565b6101fd610235366004611dad565b610579565b6004545b604051908152602001610209565b6101fd61025a366004611dd7565b61058f565b61023e61026d366004611e13565b60009081526020819052604090206001015490565b610295610290366004611e2c565b610653565b005b60405160128152602001610209565b61023e61067a565b6102956102bc366004611e2c565b610689565b6101fd6102cf366004611dad565b6106ab565b6102956106e7565b6102956102ea366004611dad565b61078d565b6102956102fd366004611e13565b610837565b60075460ff166101fd565b61023e61031b366004611e58565b6001600160a01b031660009081526002602052604090205490565b610295610344366004611dad565b610844565b61023e610357366004611e58565b6108c5565b6102956108e3565b610377610372366004611e73565b610987565b6040516001600160a01b039091168152602001610209565b6101fd61039d366004611e2c565b6000918252602082815260408084206001600160a01b0393909316845291905290205460ff1690565b61021a6109a6565b61023e600081565b6101fd6103e4366004611dad565b6109b5565b6101fd6103f7366004611dad565b610a4e565b61023e61040a366004611e13565b610a5b565b61029561041d366004611e95565b610a72565b61023e7f9f2df0fed2c77648de5860a4cc508cd0818c85b8b8a1ab4ceeef8d981c8956a681565b610295610457366004611e2c565b610bd6565b61023e61046a366004611f08565b6001600160a01b03918216600090815260036020908152604080832093909416825291909152205490565b61023e7f65d7a28e3265b37a6474929f336521b332c1681b933f6cb9f3376673440d862a81565b60006001600160e01b03198216635a05180f60e01b14806104e157506104e182610bff565b92915050565b6060600580546104f690611f32565b80601f016020809104026020016040519081016040528092919081815260200182805461052290611f32565b801561056f5780601f106105445761010080835404028352916020019161056f565b820191906000526020600020905b81548152906001019060200180831161055257829003601f168201915b5050505050905090565b6000610586338484610c34565b50600192915050565b600061059c848484610d58565b6001600160a01b03841660009081526003602090815260408083203384529091529020548281101561063b5760405162461bcd60e51b815260206004820152602860248201527f45524332303a207472616e7366657220616d6f756e742065786365656473206160448201527f6c6c6f77616e636500000000000000000000000000000000000000000000000060648201526084015b60405180910390fd5b6106488533858403610c34565b506001949350505050565b61065d8282610f33565b60008281526001602052604090206106759082610bea565b505050565b6000610684610f59565b905090565b610693828261104c565b600082815260016020526040902061067590826110d4565b3360008181526003602090815260408083206001600160a01b038716845290915281205490916105869185906106e2908690611f7d565b610c34565b6107117f65d7a28e3265b37a6474929f336521b332c1681b933f6cb9f3376673440d862a3361039d565b6107835760405162461bcd60e51b815260206004820152603960248201527f45524332305072657365744d696e7465725061757365723a206d75737420686160448201527f76652070617573657220726f6c6520746f20756e7061757365000000000000006064820152608401610632565b61078b6110e9565b565b6107b77f9f2df0fed2c77648de5860a4cc508cd0818c85b8b8a1ab4ceeef8d981c8956a63361039d565b6108295760405162461bcd60e51b815260206004820152603660248201527f45524332305072657365744d696e7465725061757365723a206d75737420686160448201527f7665206d696e74657220726f6c6520746f206d696e74000000000000000000006064820152608401610632565b6108338282611185565b5050565b6108413382611270565b50565b6000610850833361046a565b9050818110156108ae5760405162461bcd60e51b8152602060048201526024808201527f45524332303a206275726e20616d6f756e74206578636565647320616c6c6f77604482015263616e636560e01b6064820152608401610632565b6108bb8333848403610c34565b6106758383611270565b6001600160a01b0381166000908152600860205260408120546104e1565b61090d7f65d7a28e3265b37a6474929f336521b332c1681b933f6cb9f3376673440d862a3361039d565b61097f5760405162461bcd60e51b815260206004820152603760248201527f45524332305072657365744d696e7465725061757365723a206d75737420686160448201527f76652070617573657220726f6c6520746f2070617573650000000000000000006064820152608401610632565b61078b6113ca565b600082815260016020526040812061099f9083611452565b9392505050565b6060600680546104f690611f32565b3360009081526003602090815260408083206001600160a01b038616845290915281205482811015610a375760405162461bcd60e51b815260206004820152602560248201527f45524332303a2064656372656173656420616c6c6f77616e63652062656c6f77604482015264207a65726f60d81b6064820152608401610632565b610a443385858403610c34565b5060019392505050565b6000610586338484610d58565b60008181526001602052604081206104e19061145e565b83421115610ac25760405162461bcd60e51b815260206004820152601d60248201527f45524332305065726d69743a206578706972656420646561646c696e650000006044820152606401610632565b60007f0000000000000000000000000000000000000000000000000000000000000000888888610af18c611468565b6040805160208101969096526001600160a01b0394851690860152929091166060840152608083015260a082015260c0810186905260e0016040516020818303038152906040528051906020012090506000610b4c82611490565b90506000610b5c828787876114de565b9050896001600160a01b0316816001600160a01b031614610bbf5760405162461bcd60e51b815260206004820152601e60248201527f45524332305065726d69743a20696e76616c6964207369676e617475726500006044820152606401610632565b610bca8a8a8a610c34565b50505050505050505050565b6106938282611506565b610833828261152c565b600061099f836001600160a01b0384166115ca565b60006001600160e01b03198216637965db0b60e01b14806104e157506301ffc9a760e01b6001600160e01b03198316146104e1565b6001600160a01b038316610c965760405162461bcd60e51b8152602060048201526024808201527f45524332303a20617070726f76652066726f6d20746865207a65726f206164646044820152637265737360e01b6064820152608401610632565b6001600160a01b038216610cf75760405162461bcd60e51b815260206004820152602260248201527f45524332303a20617070726f766520746f20746865207a65726f206164647265604482015261737360f01b6064820152608401610632565b6001600160a01b0383811660008181526003602090815260408083209487168084529482529182902085905590518481527f8c5be1e5ebec7d5bd14f71427d1e84f3dd0314c0f7b2291e5b200ac8c7c3b925910160405180910390a3505050565b6001600160a01b038316610dbc5760405162461bcd60e51b815260206004820152602560248201527f45524332303a207472616e736665722066726f6d20746865207a65726f206164604482015264647265737360d81b6064820152608401610632565b6001600160a01b038216610e1e5760405162461bcd60e51b815260206004820152602360248201527f45524332303a207472616e7366657220746f20746865207a65726f206164647260448201526265737360e81b6064820152608401610632565b610e29838383611619565b6001600160a01b03831660009081526002602052604090205481811015610ea15760405162461bcd60e51b815260206004820152602660248201527f45524332303a207472616e7366657220616d6f756e7420657863656564732062604482015265616c616e636560d01b6064820152608401610632565b6001600160a01b03808516600090815260026020526040808220858503905591851681529081208054849290610ed8908490611f7d565b92505081905550826001600160a01b0316846001600160a01b03167fddf252ad1be2c89b69c2b068fc378daa952ba7f163c4a11628f55a4df523b3ef84604051610f2491815260200190565b60405180910390a35b50505050565b600082815260208190526040902060010154610f4f8133611624565b610675838361152c565b60007f0000000000000000000000000000000000000000000000000000000000000000461415610fa857507f000000000000000000000000000000000000000000000000000000000000000090565b50604080517f00000000000000000000000000000000000000000000000000000000000000006020808301919091527f0000000000000000000000000000000000000000000000000000000000000000828401527f000000000000000000000000000000000000000000000000000000000000000060608301524660808301523060a0808401919091528351808403909101815260c0909201909252805191012090565b6001600160a01b03811633146110ca5760405162461bcd60e51b815260206004820152602f60248201527f416363657373436f6e74726f6c3a2063616e206f6e6c792072656e6f756e636560448201527f20726f6c657320666f722073656c6600000000000000000000000000000000006064820152608401610632565b61083382826116a2565b600061099f836001600160a01b038416611721565b60075460ff1661113b5760405162461bcd60e51b815260206004820152601460248201527f5061757361626c653a206e6f74207061757365640000000000000000000000006044820152606401610632565b6007805460ff191690557f5db9ee0a495bf2e6ff9c91a7834c1ba4fdd244a5e8aa4e537bd38aeae4b073aa335b6040516001600160a01b03909116815260200160405180910390a1565b6001600160a01b0382166111db5760405162461bcd60e51b815260206004820152601f60248201527f45524332303a206d696e7420746f20746865207a65726f2061646472657373006044820152606401610632565b6111e760008383611619565b80600460008282546111f99190611f7d565b90915550506001600160a01b03821660009081526002602052604081208054839290611226908490611f7d565b90915550506040518181526001600160a01b038316906000907fddf252ad1be2c89b69c2b068fc378daa952ba7f163c4a11628f55a4df523b3ef9060200160405180910390a35050565b6001600160a01b0382166112d05760405162461bcd60e51b815260206004820152602160248201527f45524332303a206275726e2066726f6d20746865207a65726f206164647265736044820152607360f81b6064820152608401610632565b6112dc82600083611619565b6001600160a01b038216600090815260026020526040902054818110156113505760405162461bcd60e51b815260206004820152602260248201527f45524332303a206275726e20616d6f756e7420657863656564732062616c616e604482015261636560f01b6064820152608401610632565b6001600160a01b038316600090815260026020526040812083830390556004805484929061137f908490611f95565b90915550506040518281526000906001600160a01b038516907fddf252ad1be2c89b69c2b068fc378daa952ba7f163c4a11628f55a4df523b3ef9060200160405180910390a3505050565b60075460ff161561141d5760405162461bcd60e51b815260206004820152601060248201527f5061757361626c653a20706175736564000000000000000000000000000000006044820152606401610632565b6007805460ff191660011790557f62e78cea01bee320cd4e420270b5ea74000d11b0c9f74754ebdbfc544b05a2586111683390565b600061099f8383611814565b60006104e1825490565b6001600160a01b03811660009081526008602052604090208054600181018255905b50919050565b60006104e161149d610f59565b8360405161190160f01b6020820152602281018390526042810182905260009060620160405160208183030381529060405280519060200120905092915050565b60008060006114ef8787878761183e565b915091506114fc8161192b565b5095945050505050565b6000828152602081905260409020600101546115228133611624565b61067583836116a2565b6000828152602081815260408083206001600160a01b038516845290915290205460ff16610833576000828152602081815260408083206001600160a01b03851684529091529020805460ff191660011790556115863390565b6001600160a01b0316816001600160a01b0316837f2f8788117e7eff1d82e926ec794901d17c78024a50270940304540a733656f0d60405160405180910390a45050565b6000818152600183016020526040812054611611575081546001818101845560008481526020808220909301849055845484825282860190935260409020919091556104e1565b5060006104e1565b610675838383611ae6565b6000828152602081815260408083206001600160a01b038516845290915290205460ff1661083357611660816001600160a01b03166014611b5f565b61166b836020611b5f565b60405160200161167c929190611fac565b60408051601f198184030181529082905262461bcd60e51b825261063291600401611d5e565b6000828152602081815260408083206001600160a01b038516845290915290205460ff1615610833576000828152602081815260408083206001600160a01b0385168085529252808320805460ff1916905551339285917ff6391f5c32d9c69d2a47ea670b442974b53935d1edc7fd64eb21e047a839171b9190a45050565b6000818152600183016020526040812054801561180a576000611745600183611f95565b855490915060009061175990600190611f95565b90508181146117be5760008660000182815481106117795761177961202d565b906000526020600020015490508087600001848154811061179c5761179c61202d565b6000918252602080832090910192909255918252600188019052604090208390555b85548690806117cf576117cf612043565b6001900381819060005260206000200160009055905585600101600086815260200190815260200160002060009055600193505050506104e1565b60009150506104e1565b600082600001828154811061182b5761182b61202d565b9060005260206000200154905092915050565b6000807f7fffffffffffffffffffffffffffffff5d576e7357a4501ddfe92f46681b20a08311156118755750600090506003611922565b8460ff16601b1415801561188d57508460ff16601c14155b1561189e5750600090506004611922565b6040805160008082526020820180845289905260ff881692820192909252606081018690526080810185905260019060a0016020604051602081039080840390855afa1580156118f2573d6000803e3d6000fd5b5050604051601f1901519150506001600160a01b03811661191b57600060019250925050611922565b9150600090505b94509492505050565b600081600481111561193f5761193f612059565b14156119485750565b600181600481111561195c5761195c612059565b14156119aa5760405162461bcd60e51b815260206004820152601860248201527f45434453413a20696e76616c6964207369676e617475726500000000000000006044820152606401610632565b60028160048111156119be576119be612059565b1415611a0c5760405162461bcd60e51b815260206004820152601f60248201527f45434453413a20696e76616c6964207369676e6174757265206c656e677468006044820152606401610632565b6003816004811115611a2057611a20612059565b1415611a795760405162461bcd60e51b815260206004820152602260248201527f45434453413a20696e76616c6964207369676e6174757265202773272076616c604482015261756560f01b6064820152608401610632565b6004816004811115611a8d57611a8d612059565b14156108415760405162461bcd60e51b815260206004820152602260248201527f45434453413a20696e76616c6964207369676e6174757265202776272076616c604482015261756560f01b6064820152608401610632565b60075460ff16156106755760405162461bcd60e51b815260206004820152602a60248201527f45524332305061757361626c653a20746f6b656e207472616e7366657220776860448201527f696c6520706175736564000000000000000000000000000000000000000000006064820152608401610632565b60606000611b6e83600261206f565b611b79906002611f7d565b67ffffffffffffffff811115611b9157611b9161208e565b6040519080825280601f01601f191660200182016040528015611bbb576020820181803683370190505b509050600360fc1b81600081518110611bd657611bd661202d565b60200101906001600160f81b031916908160001a905350600f60fb1b81600181518110611c0557611c0561202d565b60200101906001600160f81b031916908160001a9053506000611c2984600261206f565b611c34906001611f7d565b90505b6001811115611cb9577f303132333435363738396162636465660000000000000000000000000000000085600f1660108110611c7557611c7561202d565b1a60f81b828281518110611c8b57611c8b61202d565b60200101906001600160f81b031916908160001a90535060049490941c93611cb2816120a4565b9050611c37565b50831561099f5760405162461bcd60e51b815260206004820181905260248201527f537472696e67733a20686578206c656e67746820696e73756666696369656e746044820152606401610632565b600060208284031215611d1a57600080fd5b81356001600160e01b03198116811461099f57600080fd5b60005b83811015611d4d578181015183820152602001611d35565b83811115610f2d5750506000910152565b6020815260008251806020840152611d7d816040850160208701611d32565b601f01601f19169190910160400192915050565b80356001600160a01b0381168114611da857600080fd5b919050565b60008060408385031215611dc057600080fd5b611dc983611d91565b946020939093013593505050565b600080600060608486031215611dec57600080fd5b611df584611d91565b9250611e0360208501611d91565b9150604084013590509250925092565b600060208284031215611e2557600080fd5b5035919050565b60008060408385031215611e3f57600080fd5b82359150611e4f60208401611d91565b90509250929050565b600060208284031215611e6a57600080fd5b61099f82611d91565b60008060408385031215611e8657600080fd5b50508035926020909101359150565b600080600080600080600060e0888a031215611eb057600080fd5b611eb988611d91565b9650611ec760208901611d91565b95506040880135945060608801359350608088013560ff81168114611eeb57600080fd5b9699959850939692959460a0840135945060c09093013592915050565b60008060408385031215611f1b57600080fd5b611f2483611d91565b9150611e4f60208401611d91565b600181811c90821680611f4657607f821691505b6020821081141561148a57634e487b7160e01b600052602260045260246000fd5b634e487b7160e01b600052601160045260246000fd5b60008219821115611f9057611f90611f67565b500190565b600082821015611fa757611fa7611f67565b500390565b7f416363657373436f6e74726f6c3a206163636f756e7420000000000000000000815260008351611fe4816017850160208801611d32565b7f206973206d697373696e6720726f6c65200000000000000000000000000000006017918401918201528351612021816028840160208801611d32565b01602801949350505050565b634e487b7160e01b600052603260045260246000fd5b634e487b7160e01b600052603160045260246000fd5b634e487b7160e01b600052602160045260246000fd5b600081600019048311821515161561208957612089611f67565b500290565b634e487b7160e01b600052604160045260246000fd5b6000816120b3576120b3611f67565b50600019019056fea164736f6c6343000809000a",
  "linkReferences": {},
  "deployedLinkReferences": {}
}