{
  "_format": "hh-sol-artifact-1",
  "contractName": "LazyNFT",
  "sourceName": "contracts/LazyNFT.sol",
  "abi": [
    {
      "inputs": [
        {
          "internalType": "address",
          "name": "_controlCenter",
          "type": "address"
        },
        {
          "internalType": "string",
          "name": "_name",
          "type": "string"
        },
        {
          "internalType": "string",
          "name": "_symbol",
          "type": "string"
        },
        {
          "internalType": "address",
          "name": "_trustedForwarder",
          "type": "address"
        },
        {
          "internalType": "string",
          "name": "_contractURI",
          "type": "string"
        },
        {
          "internalType": "string",
          "name": "_baseTokenURI",
          "type": "string"
        },
        {
          "internalType": "uint256",
          "name": "maxSupply",
          "type": "uint256"
        }
      ],
      "stateMutability": "nonpayable",
      "type": "constructor"
    },
    {
      "anonymous": false,
      "inputs": [
        {
          "indexed": true,
          "internalType": "address",
          "name": "owner",
          "type": "address"
        },
        {
          "indexed": true,
          "internalType": "address",
          "name": "approved",
          "type": "address"
        },
        {
          "indexed": true,
          "internalType": "uint256",
          "name": "tokenId",
          "type": "uint256"
        }
      ],
      "name": "Approval",
      "type": "event"
    },
    {
      "anonymous": false,
      "inputs": [
        {
          "indexed": true,
          "internalType": "address",
          "name": "owner",
          "type": "address"
        },
        {
          "indexed": true,
          "internalType": "address",
          "name": "operator",
          "type": "address"
        },
        {
          "indexed": false,
          "internalType": "bool",
          "name": "approved",
          "type": "bool"
        }
      ],
      "name": "ApprovalForAll",
      "type": "event"
    },
    {
      "anonymous": false,
      "inputs": [
        {
          "indexed": false,
          "internalType": "string",
          "name": "uri",
          "type": "string"
        }
      ],
      "name": "BaseTokenURIUpdated",
      "type": "event"
    },
    {
      "anonymous": false,
      "inputs": [
        {
          "indexed": true,
          "internalType": "address",
          "name": "to",
          "type": "address"
        },
        {
          "indexed": false,
          "internalType": "uint256",
          "name": "startTokenId",
          "type": "uint256"
        },
        {
          "indexed": false,
          "internalType": "uint256",
          "name": "quantity",
          "type": "uint256"
        },
        {
          "indexed": false,
          "internalType": "uint256",
          "name": "mintConditionIndex",
          "type": "uint256"
        }
      ],
      "name": "Claimed",
      "type": "event"
    },
    {
      "anonymous": false,
      "inputs": [
        {
          "indexed": true,
          "internalType": "address",
          "name": "to",
          "type": "address"
        },
        {
          "indexed": false,
          "internalType": "uint256",
          "name": "amount",
          "type": "uint256"
        }
      ],
      "name": "FundsWithdrawn",
      "type": "event"
    },
    {
      "anonymous": false,
      "inputs": [
        {
          "indexed": false,
          "internalType": "address",
          "name": "account",
          "type": "address"
        }
      ],
      "name": "Paused",
      "type": "event"
    },
    {
      "anonymous": false,
      "inputs": [
        {
          "components": [
            {
              "internalType": "uint256",
              "name": "startTimestamp",
              "type": "uint256"
            },
            {
              "internalType": "uint256",
              "name": "maxMintSupply",
              "type": "uint256"
            },
            {
              "internalType": "uint256",
              "name": "currentMintSupply",
              "type": "uint256"
            },
            {
              "internalType": "uint256",
              "name": "quantityLimitPerTransaction",
              "type": "uint256"
            },
            {
              "internalType": "uint256",
              "name": "waitTimestampLimitPerTransaction",
              "type": "uint256"
            },
            {
              "internalType": "uint256",
              "name": "pricePerToken",
              "type": "uint256"
            },
            {
              "internalType": "address",
              "name": "currency",
              "type": "address"
            },
            {
              "internalType": "bytes32",
              "name": "merkleRoot",
              "type": "bytes32"
            }
          ],
          "indexed": false,
          "internalType": "struct LazyNFT.PublicMintCondition[]",
          "name": "mintConditions",
          "type": "tuple[]"
        }
      ],
      "name": "PublicMintConditionUpdated",
      "type": "event"
    },
    {
      "anonymous": false,
      "inputs": [
        {
          "indexed": false,
          "internalType": "bool",
          "name": "transferable",
          "type": "bool"
        }
      ],
      "name": "RestrictedTransferUpdated",
      "type": "event"
    },
    {
      "anonymous": false,
      "inputs": [
        {
          "indexed": true,
          "internalType": "bytes32",
          "name": "role",
          "type": "bytes32"
        },
        {
          "indexed": true,
          "internalType": "bytes32",
          "name": "previousAdminRole",
          "type": "bytes32"
        },
        {
          "indexed": true,
          "internalType": "bytes32",
          "name": "newAdminRole",
          "type": "bytes32"
        }
      ],
      "name": "RoleAdminChanged",
      "type": "event"
    },
    {
      "anonymous": false,
      "inputs": [
        {
          "indexed": true,
          "internalType": "bytes32",
          "name": "role",
          "type": "bytes32"
        },
        {
          "indexed": true,
          "internalType": "address",
          "name": "account",
          "type": "address"
        },
        {
          "indexed": true,
          "internalType": "address",
          "name": "sender",
          "type": "address"
        }
      ],
      "name": "RoleGranted",
      "type": "event"
    },
    {
      "anonymous": false,
      "inputs": [
        {
          "indexed": true,
          "internalType": "bytes32",
          "name": "role",
          "type": "bytes32"
        },
        {
          "indexed": true,
          "internalType": "address",
          "name": "account",
          "type": "address"
        },
        {
          "indexed": true,
          "internalType": "address",
          "name": "sender",
          "type": "address"
        }
      ],
      "name": "RoleRevoked",
      "type": "event"
    },
    {
      "anonymous": false,
      "inputs": [
        {
          "indexed": false,
          "internalType": "uint256",
          "name": "royaltyBps",
          "type": "uint256"
        }
      ],
      "name": "RoyaltyUpdated",
      "type": "event"
    },
    {
      "anonymous": false,
      "inputs": [
        {
          "indexed": false,
          "internalType": "uint256",
          "name": "supply",
          "type": "uint256"
        }
      ],
      "name": "TotalSupplyUpdated",
      "type": "event"
    },
    {
      "anonymous": false,
      "inputs": [
        {
          "indexed": true,
          "internalType": "address",
          "name": "from",
          "type": "address"
        },
        {
          "indexed": true,
          "internalType": "address",
          "name": "to",
          "type": "address"
        },
        {
          "indexed": true,
          "internalType": "uint256",
          "name": "tokenId",
          "type": "uint256"
        }
      ],
      "name": "Transfer",
      "type": "event"
    },
    {
      "anonymous": false,
      "inputs": [
        {
          "indexed": false,
          "internalType": "address",
          "name": "account",
          "type": "address"
        }
      ],
      "name": "Unpaused",
      "type": "event"
    },
    {
      "inputs": [],
      "name": "DEFAULT_ADMIN_ROLE",
      "outputs": [
        {
          "internalType": "bytes32",
          "name": "",
          "type": "bytes32"
        }
      ],
      "stateMutability": "view",
      "type": "function"
    },
    {
      "inputs": [],
      "name": "MINTER_ROLE",
      "outputs": [
        {
          "internalType": "bytes32",
          "name": "",
          "type": "bytes32"
        }
      ],
      "stateMutability": "view",
      "type": "function"
    },
    {
      "inputs": [],
      "name": "PAUSER_ROLE",
      "outputs": [
        {
          "internalType": "bytes32",
          "name": "",
          "type": "bytes32"
        }
      ],
      "stateMutability": "view",
      "type": "function"
    },
    {
      "inputs": [],
      "name": "TRANSFER_ROLE",
      "outputs": [
        {
          "internalType": "bytes32",
          "name": "",
          "type": "bytes32"
        }
      ],
      "stateMutability": "view",
      "type": "function"
    },
    {
      "inputs": [
        {
          "internalType": "address",
          "name": "to",
          "type": "address"
        },
        {
          "internalType": "uint256",
          "name": "tokenId",
          "type": "uint256"
        }
      ],
      "name": "approve",
      "outputs": [],
      "stateMutability": "nonpayable",
      "type": "function"
    },
    {
      "inputs": [
        {
          "internalType": "address",
          "name": "owner",
          "type": "address"
        }
      ],
      "name": "balanceOf",
      "outputs": [
        {
          "internalType": "uint256",
          "name": "",
          "type": "uint256"
        }
      ],
      "stateMutability": "view",
      "type": "function"
    },
    {
      "inputs": [
        {
          "internalType": "uint256",
          "name": "tokenId",
          "type": "uint256"
        }
      ],
      "name": "burn",
      "outputs": [],
      "stateMutability": "nonpayable",
      "type": "function"
    },
    {
      "inputs": [
        {
          "internalType": "uint256",
          "name": "quantity",
          "type": "uint256"
        },
        {
          "internalType": "bytes32[]",
          "name": "proofs",
          "type": "bytes32[]"
        }
      ],
      "name": "claim",
      "outputs": [],
      "stateMutability": "payable",
      "type": "function"
    },
    {
      "inputs": [],
      "name": "contractURI",
      "outputs": [
        {
          "internalType": "string",
          "name": "",
          "type": "string"
        }
      ],
      "stateMutability": "view",
      "type": "function"
    },
    {
      "inputs": [
        {
          "internalType": "uint256",
          "name": "tokenId",
          "type": "uint256"
        }
      ],
      "name": "getApproved",
      "outputs": [
        {
          "internalType": "address",
          "name": "",
          "type": "address"
        }
      ],
      "stateMutability": "view",
      "type": "function"
    },
    {
      "inputs": [],
      "name": "getLastStartedMintConditionIndex",
      "outputs": [
        {
          "internalType": "uint256",
          "name": "",
          "type": "uint256"
        }
      ],
      "stateMutability": "view",
      "type": "function"
    },
    {
      "inputs": [
        {
          "internalType": "bytes32",
          "name": "role",
          "type": "bytes32"
        }
      ],
      "name": "getRoleAdmin",
      "outputs": [
        {
          "internalType": "bytes32",
          "name": "",
          "type": "bytes32"
        }
      ],
      "stateMutability": "view",
      "type": "function"
    },
    {
      "inputs": [
        {
          "internalType": "bytes32",
          "name": "role",
          "type": "bytes32"
        },
        {
          "internalType": "uint256",
          "name": "index",
          "type": "uint256"
        }
      ],
      "name": "getRoleMember",
      "outputs": [
        {
          "internalType": "address",
          "name": "",
          "type": "address"
        }
      ],
      "stateMutability": "view",
      "type": "function"
    },
    {
      "inputs": [
        {
          "internalType": "bytes32",
          "name": "role",
          "type": "bytes32"
        }
      ],
      "name": "getRoleMemberCount",
      "outputs": [
        {
          "internalType": "uint256",
          "name": "",
          "type": "uint256"
        }
      ],
      "stateMutability": "view",
      "type": "function"
    },
    {
      "inputs": [
        {
          "internalType": "bytes32",
          "name": "role",
          "type": "bytes32"
        },
        {
          "internalType": "address",
          "name": "account",
          "type": "address"
        }
      ],
      "name": "grantRole",
      "outputs": [],
      "stateMutability": "nonpayable",
      "type": "function"
    },
    {
      "inputs": [
        {
          "internalType": "bytes32",
          "name": "role",
          "type": "bytes32"
        },
        {
          "internalType": "address",
          "name": "account",
          "type": "address"
        }
      ],
      "name": "hasRole",
      "outputs": [
        {
          "internalType": "bool",
          "name": "",
          "type": "bool"
        }
      ],
      "stateMutability": "view",
      "type": "function"
    },
    {
      "inputs": [
        {
          "internalType": "address",
          "name": "owner",
          "type": "address"
        },
        {
          "internalType": "address",
          "name": "operator",
          "type": "address"
        }
      ],
      "name": "isApprovedForAll",
      "outputs": [
        {
          "internalType": "bool",
          "name": "",
          "type": "bool"
        }
      ],
      "stateMutability": "view",
      "type": "function"
    },
    {
      "inputs": [
        {
          "internalType": "address",
          "name": "forwarder",
          "type": "address"
        }
      ],
      "name": "isTrustedForwarder",
      "outputs": [
        {
          "internalType": "bool",
          "name": "",
          "type": "bool"
        }
      ],
      "stateMutability": "view",
      "type": "function"
    },
    {
      "inputs": [
        {
          "internalType": "string",
          "name": "_uri",
          "type": "string"
        }
      ],
      "name": "lazyMint",
      "outputs": [],
      "stateMutability": "nonpayable",
      "type": "function"
    },
    {
      "inputs": [
        {
          "internalType": "uint256",
          "name": "amount",
          "type": "uint256"
        }
      ],
      "name": "lazyMintAmount",
      "outputs": [],
      "stateMutability": "nonpayable",
      "type": "function"
    },
    {
      "inputs": [
        {
          "internalType": "string[]",
          "name": "_uris",
          "type": "string[]"
        }
      ],
      "name": "lazyMintBatch",
      "outputs": [],
      "stateMutability": "nonpayable",
      "type": "function"
    },
    {
      "inputs": [],
      "name": "maxTotalSupply",
      "outputs": [
        {
          "internalType": "uint256",
          "name": "",
          "type": "uint256"
        }
      ],
      "stateMutability": "view",
      "type": "function"
    },
    {
      "inputs": [
        {
          "internalType": "address",
          "name": "",
          "type": "address"
        }
      ],
      "name": "mint",
      "outputs": [],
      "stateMutability": "pure",
      "type": "function"
    },
    {
      "inputs": [
        {
          "internalType": "uint256",
          "name": "",
          "type": "uint256"
        }
      ],
      "name": "mintConditions",
      "outputs": [
        {
          "internalType": "uint256",
          "name": "startTimestamp",
          "type": "uint256"
        },
        {
          "internalType": "uint256",
          "name": "maxMintSupply",
          "type": "uint256"
        },
        {
          "internalType": "uint256",
          "name": "currentMintSupply",
          "type": "uint256"
        },
        {
          "internalType": "uint256",
          "name": "quantityLimitPerTransaction",
          "type": "uint256"
        },
        {
          "internalType": "uint256",
          "name": "waitTimestampLimitPerTransaction",
          "type": "uint256"
        },
        {
          "internalType": "uint256",
          "name": "pricePerToken",
          "type": "uint256"
        },
        {
          "internalType": "address",
          "name": "currency",
          "type": "address"
        },
        {
          "internalType": "bytes32",
          "name": "merkleRoot",
          "type": "bytes32"
        }
      ],
      "stateMutability": "view",
      "type": "function"
    },
    {
      "inputs": [
        {
          "internalType": "bytes[]",
          "name": "data",
          "type": "bytes[]"
        }
      ],
      "name": "multicall",
      "outputs": [
        {
          "internalType": "bytes[]",
          "name": "results",
          "type": "bytes[]"
        }
      ],
      "stateMutability": "nonpayable",
      "type": "function"
    },
    {
      "inputs": [],
      "name": "name",
      "outputs": [
        {
          "internalType": "string",
          "name": "",
          "type": "string"
        }
      ],
      "stateMutability": "view",
      "type": "function"
    },
    {
      "inputs": [],
      "name": "nextMintTokenId",
      "outputs": [
        {
          "internalType": "uint256",
          "name": "",
          "type": "uint256"
        }
      ],
      "stateMutability": "view",
      "type": "function"
    },
    {
      "inputs": [],
      "name": "nextTokenId",
      "outputs": [
        {
          "internalType": "uint256",
          "name": "",
          "type": "uint256"
        }
      ],
      "stateMutability": "view",
      "type": "function"
    },
    {
      "inputs": [
        {
          "internalType": "uint256",
          "name": "tokenId",
          "type": "uint256"
        }
      ],
      "name": "ownerOf",
      "outputs": [
        {
          "internalType": "address",
          "name": "",
          "type": "address"
        }
      ],
      "stateMutability": "view",
      "type": "function"
    },
    {
      "inputs": [],
      "name": "pause",
      "outputs": [],
      "stateMutability": "nonpayable",
      "type": "function"
    },
    {
      "inputs": [],
      "name": "paused",
      "outputs": [
        {
          "internalType": "bool",
          "name": "",
          "type": "bool"
        }
      ],
      "stateMutability": "view",
      "type": "function"
    },
    {
      "inputs": [
        {
          "internalType": "bytes32",
          "name": "role",
          "type": "bytes32"
        },
        {
          "internalType": "address",
          "name": "account",
          "type": "address"
        }
      ],
      "name": "renounceRole",
      "outputs": [],
      "stateMutability": "nonpayable",
      "type": "function"
    },
    {
      "inputs": [
        {
          "internalType": "bytes32",
          "name": "role",
          "type": "bytes32"
        },
        {
          "internalType": "address",
          "name": "account",
          "type": "address"
        }
      ],
      "name": "revokeRole",
      "outputs": [],
      "stateMutability": "nonpayable",
      "type": "function"
    },
    {
      "inputs": [],
      "name": "royaltyBps",
      "outputs": [
        {
          "internalType": "uint256",
          "name": "",
          "type": "uint256"
        }
      ],
      "stateMutability": "view",
      "type": "function"
    },
    {
      "inputs": [
        {
          "internalType": "uint256",
          "name": "",
          "type": "uint256"
        },
        {
          "internalType": "uint256",
          "name": "salePrice",
          "type": "uint256"
        }
      ],
      "name": "royaltyInfo",
      "outputs": [
        {
          "internalType": "address",
          "name": "receiver",
          "type": "address"
        },
        {
          "internalType": "uint256",
          "name": "royaltyAmount",
          "type": "uint256"
        }
      ],
      "stateMutability": "view",
      "type": "function"
    },
    {
      "inputs": [
        {
          "internalType": "address",
          "name": "from",
          "type": "address"
        },
        {
          "internalType": "address",
          "name": "to",
          "type": "address"
        },
        {
          "internalType": "uint256",
          "name": "tokenId",
          "type": "uint256"
        }
      ],
      "name": "safeTransferFrom",
      "outputs": [],
      "stateMutability": "nonpayable",
      "type": "function"
    },
    {
      "inputs": [
        {
          "internalType": "address",
          "name": "from",
          "type": "address"
        },
        {
          "internalType": "address",
          "name": "to",
          "type": "address"
        },
        {
          "internalType": "uint256",
          "name": "tokenId",
          "type": "uint256"
        },
        {
          "internalType": "bytes",
          "name": "_data",
          "type": "bytes"
        }
      ],
      "name": "safeTransferFrom",
      "outputs": [],
      "stateMutability": "nonpayable",
      "type": "function"
    },
    {
      "inputs": [
        {
          "internalType": "address",
          "name": "operator",
          "type": "address"
        },
        {
          "internalType": "bool",
          "name": "approved",
          "type": "bool"
        }
      ],
      "name": "setApprovalForAll",
      "outputs": [],
      "stateMutability": "nonpayable",
      "type": "function"
    },
    {
      "inputs": [
        {
          "internalType": "string",
          "name": "uri",
          "type": "string"
        }
      ],
      "name": "setBaseTokenURI",
      "outputs": [],
      "stateMutability": "nonpayable",
      "type": "function"
    },
    {
      "inputs": [
        {
          "internalType": "string",
          "name": "_URI",
          "type": "string"
        }
      ],
      "name": "setContractURI",
      "outputs": [],
      "stateMutability": "nonpayable",
      "type": "function"
    },
    {
      "inputs": [
        {
          "internalType": "uint256",
          "name": "maxSupply",
          "type": "uint256"
        }
      ],
      "name": "setMaxTotalSupply",
      "outputs": [],
      "stateMutability": "nonpayable",
      "type": "function"
    },
    {
      "inputs": [
        {
          "components": [
            {
              "internalType": "uint256",
              "name": "startTimestamp",
              "type": "uint256"
            },
            {
              "internalType": "uint256",
              "name": "maxMintSupply",
              "type": "uint256"
            },
            {
              "internalType": "uint256",
              "name": "currentMintSupply",
              "type": "uint256"
            },
            {
              "internalType": "uint256",
              "name": "quantityLimitPerTransaction",
              "type": "uint256"
            },
            {
              "internalType": "uint256",
              "name": "waitTimestampLimitPerTransaction",
              "type": "uint256"
            },
            {
              "internalType": "uint256",
              "name": "pricePerToken",
              "type": "uint256"
            },
            {
              "internalType": "address",
              "name": "currency",
              "type": "address"
            },
            {
              "internalType": "bytes32",
              "name": "merkleRoot",
              "type": "bytes32"
            }
          ],
          "internalType": "struct LazyNFT.PublicMintCondition[]",
          "name": "conditions",
          "type": "tuple[]"
        }
      ],
      "name": "setPublicMintConditions",
      "outputs": [],
      "stateMutability": "nonpayable",
      "type": "function"
    },
    {
      "inputs": [
        {
          "internalType": "bool",
          "name": "_restrictedTransfer",
          "type": "bool"
        }
      ],
      "name": "setRestrictedTransfer",
      "outputs": [],
      "stateMutability": "nonpayable",
      "type": "function"
    },
    {
      "inputs": [
        {
          "internalType": "uint256",
          "name": "_royaltyBps",
          "type": "uint256"
        }
      ],
      "name": "setRoyaltyBps",
      "outputs": [],
      "stateMutability": "nonpayable",
      "type": "function"
    },
    {
      "inputs": [
        {
          "internalType": "bytes4",
          "name": "interfaceId",
          "type": "bytes4"
        }
      ],
      "name": "supportsInterface",
      "outputs": [
        {
          "internalType": "bool",
          "name": "",
          "type": "bool"
        }
      ],
      "stateMutability": "view",
      "type": "function"
    },
    {
      "inputs": [],
      "name": "symbol",
      "outputs": [
        {
          "internalType": "string",
          "name": "",
          "type": "string"
        }
      ],
      "stateMutability": "view",
      "type": "function"
    },
    {
      "inputs": [
        {
          "internalType": "uint256",
          "name": "index",
          "type": "uint256"
        }
      ],
      "name": "tokenByIndex",
      "outputs": [
        {
          "internalType": "uint256",
          "name": "",
          "type": "uint256"
        }
      ],
      "stateMutability": "view",
      "type": "function"
    },
    {
      "inputs": [
        {
          "internalType": "address",
          "name": "owner",
          "type": "address"
        },
        {
          "internalType": "uint256",
          "name": "index",
          "type": "uint256"
        }
      ],
      "name": "tokenOfOwnerByIndex",
      "outputs": [
        {
          "internalType": "uint256",
          "name": "",
          "type": "uint256"
        }
      ],
      "stateMutability": "view",
      "type": "function"
    },
    {
      "inputs": [
        {
          "internalType": "uint256",
          "name": "tokenId",
          "type": "uint256"
        }
      ],
      "name": "tokenURI",
      "outputs": [
        {
          "internalType": "string",
          "name": "",
          "type": "string"
        }
      ],
      "stateMutability": "view",
      "type": "function"
    },
    {
      "inputs": [],
      "name": "totalSupply",
      "outputs": [
        {
          "internalType": "uint256",
          "name": "",
          "type": "uint256"
        }
      ],
      "stateMutability": "view",
      "type": "function"
    },
    {
      "inputs": [
        {
          "internalType": "address",
          "name": "from",
          "type": "address"
        },
        {
          "internalType": "address",
          "name": "to",
          "type": "address"
        },
        {
          "internalType": "uint256",
          "name": "tokenId",
          "type": "uint256"
        }
      ],
      "name": "transferFrom",
      "outputs": [],
      "stateMutability": "nonpayable",
      "type": "function"
    },
    {
      "inputs": [],
      "name": "transfersRestricted",
      "outputs": [
        {
          "internalType": "bool",
          "name": "",
          "type": "bool"
        }
      ],
      "stateMutability": "view",
      "type": "function"
    },
    {
      "inputs": [],
      "name": "unpause",
      "outputs": [],
      "stateMutability": "nonpayable",
      "type": "function"
    },
    {
      "inputs": [
        {
          "internalType": "uint256",
          "name": "",
          "type": "uint256"
        }
      ],
      "name": "uri",
      "outputs": [
        {
          "internalType": "string",
          "name": "",
          "type": "string"
        }
      ],
      "stateMutability": "view",
      "type": "function"
    },
    {
      "inputs": [],
      "name": "withdrawFunds",
      "outputs": [],
      "stateMutability": "nonpayable",
      "type": "function"
    }
  ],
  "bytecode": "0x60806040523480156200001157600080fd5b5060405162005996380380620059968339810160408190526200003491620004f1565b83868684828281600290805190602001906200005292919062000388565b5080516200006890600390602084019062000388565b5050600c805460ff191690555080516200008a90600e90602084019062000388565b50620000a160006200009b62000183565b620001a0565b620000d07f9f2df0fed2c77648de5860a4cc508cd0818c85b8b8a1ab4ceeef8d981c8956a66200009b62000183565b620000ff7f65d7a28e3265b37a6474929f336521b332c1681b933f6cb9f3376673440d862a6200009b62000183565b5050600f80546001600160a01b0319166001600160a01b0393841617905550600160105560118054610100600160a81b031916610100928a16929092029190911790556012819055620001767f8502233096d909befbda0999bb8ea2f3a6be3c138b9fbf003752a4c8bce86f6c6200009b62000183565b5050505050505062000628565b60006200019a620001e360201b620026031760201c565b90505b90565b620001b782826200022360201b620026311760201c565b6000828152600160209081526040909120620001de9183906200263f62000233821b17901c565b505050565b6000620001f03362000253565b1562000206575060131936013560601c6200019d565b6200021b6200026a60201b620026541760201c565b90506200019d565b6200022f82826200026e565b5050565b60006200024a836001600160a01b038416620002f8565b90505b92915050565b600f546001600160a01b038281169116145b919050565b3390565b6200027a828262000347565b6200022f576000828152602081815260408083206001600160a01b03851684529091529020805460ff19166001179055620002b462000183565b6001600160a01b0316816001600160a01b0316837f2f8788117e7eff1d82e926ec794901d17c78024a50270940304540a733656f0d60405160405180910390a45050565b600062000306838362000370565b6200033e575081546001818101845560008481526020808220909301849055845484825282860190935260409020919091556200024d565b5060006200024d565b6000918252602082815260408084206001600160a01b0393909316845291905290205460ff1690565b60009081526001919091016020526040902054151590565b8280546200039690620005d5565b90600052602060002090601f016020900481019282620003ba576000855562000405565b82601f10620003d557805160ff191683800117855562000405565b8280016001018555821562000405579182015b8281111562000405578251825591602001919060010190620003e8565b506200041392915062000417565b5090565b5b8082111562000413576000815560010162000418565b80516001600160a01b03811681146200026557600080fd5b600082601f83011262000457578081fd5b81516001600160401b038082111562000474576200047462000612565b6040516020601f8401601f19168201810183811183821017156200049c576200049c62000612565b6040528382528584018101871015620004b3578485fd5b8492505b83831015620004d65785830181015182840182015291820191620004b7565b83831115620004e757848185840101525b5095945050505050565b600080600080600080600060e0888a0312156200050c578283fd5b62000517886200042e565b60208901519097506001600160401b038082111562000534578485fd5b620005428b838c0162000446565b975060408a015191508082111562000558578485fd5b620005668b838c0162000446565b96506200057660608b016200042e565b955060808a01519150808211156200058c578485fd5b6200059a8b838c0162000446565b945060a08a0151915080821115620005b0578384fd5b50620005bf8a828b0162000446565b92505060c0880151905092959891949750929550565b600281046001821680620005ea57607f821691505b602082108114156200060c57634e487b7160e01b600052602260045260246000fd5b50919050565b634e487b7160e01b600052604160045260246000fd5b61535e80620006386000396000f3fe6080604052600436106103605760003560e01c80635c975abb116101c6578063a22cb465116100f7578063d539139311610095578063e88fbd411161006f578063e88fbd4114610962578063e8a3d48514610977578063e985e9c51461098c578063fd598550146109ac57610360565b8063d539139314610918578063d547741f1461092d578063e63ab1e91461094d57610360565b8063b88d4fde116100d1578063b88d4fde146108a3578063c63adb2b146108c3578063c87b56dd146108d8578063ca15c873146108f857610360565b8063a22cb46514610836578063ac9650d814610856578063b7cdd0bc1461088357610360565b80638456cb591161016457806391d148541161013e57806391d14854146107cc578063938e3d7b146107ec57806395d89b411461080c578063a217fddf1461082157610360565b80638456cb59146107775780638ba448c21461078c5780639010d07c146107ac57610360565b80636a627842116101a05780636a6278421461070d57806370a082311461072d57806375794a3c1461074d5780638423df791461076257610360565b80635c975abb146106c35780635da53d58146106d85780636352211e146106ed57610360565b80632a55205a116102a05780633f3e4c111161023e57806342966c681161021857806342966c68146106435780634ce40a32146106635780634f6ccce714610683578063572b6c05146106a357610360565b80633f3e4c11146105ee5780633f4ba83a1461060e57806342842e0e1461062357610360565b80632f52ebb71161027a5780632f52ebb71461057b5780632f745c591461058e57806330176e13146105ae57806336568abe146105ce57610360565b80632a55205a146105185780632ab4d052146105465780632f2ff15d1461055b57610360565b806318160ddd1161030d57806323b872dd116102e757806323b872dd146104a357806324600fc3146104c3578063248a9ca3146104d857806326fa33ec146104f857610360565b806318160ddd1461044c5780631f72d8311461046e578063206b60f91461048e57610360565b8063095ea7b31161033e578063095ea7b3146103ea5780630a5d64011461040c5780630e89341c1461042c57610360565b806301ffc9a71461036557806306fdde031461039b578063081812fc146103bd575b600080fd5b34801561037157600080fd5b50610385610380366004613f36565b6109e0565b60405161039291906142fa565b60405180910390f35b3480156103a757600080fd5b506103b0610a0e565b6040516103929190614354565b3480156103c957600080fd5b506103dd6103d8366004613ec1565b610aa1565b6040516103929190614173565b3480156103f657600080fd5b5061040a610405366004613dad565b610aed565b005b34801561041857600080fd5b5061040a610427366004613e18565b610b85565b34801561043857600080fd5b506103b0610447366004613ec1565b610ef8565b34801561045857600080fd5b50610461610f92565b6040516103929190614305565b34801561047a57600080fd5b5061040a610489366004613ec1565b610f98565b34801561049a57600080fd5b506104616110b7565b3480156104af57600080fd5b5061040a6104be366004613c70565b6110db565b3480156104cf57600080fd5b5061040a611113565b3480156104e457600080fd5b506104616104f3366004613ec1565b61137c565b34801561050457600080fd5b5061040a610513366004613f6e565b611391565b34801561052457600080fd5b50610538610533366004613f15565b611466565b6040516103929291906141dd565b34801561055257600080fd5b506104616115aa565b34801561056757600080fd5b5061040a610576366004613ef1565b6115b0565b61040a610589366004613ff9565b6115d2565b34801561059a57600080fd5b506104616105a9366004613dad565b6119e9565b3480156105ba57600080fd5b5061040a6105c9366004613f6e565b611a3e565b3480156105da57600080fd5b5061040a6105e9366004613ef1565b611ab1565b3480156105fa57600080fd5b5061040a610609366004613ec1565b611ad3565b34801561061a57600080fd5b5061040a611b31565b34801561062f57600080fd5b5061040a61063e366004613c70565b611b83565b34801561064f57600080fd5b5061040a61065e366004613ec1565b611b9e565b34801561066f57600080fd5b5061040a61067e366004613dd8565b611bd1565b34801561068f57600080fd5b5061046161069e366004613ec1565b611cee565b3480156106af57600080fd5b506103856106be366004613c00565b611d49565b3480156106cf57600080fd5b50610385611d5d565b3480156106e457600080fd5b50610461611d66565b3480156106f957600080fd5b506103dd610708366004613ec1565b611def565b34801561071957600080fd5b5061040a610728366004613c00565b611e24565b34801561073957600080fd5b50610461610748366004613c00565b611e3c565b34801561075957600080fd5b50610461611e80565b34801561076e57600080fd5b50610385611e86565b34801561078357600080fd5b5061040a611e8f565b34801561079857600080fd5b5061040a6107a7366004613e89565b611edf565b3480156107b857600080fd5b506103dd6107c7366004613f15565b611f46565b3480156107d857600080fd5b506103856107e7366004613ef1565b611f65565b3480156107f857600080fd5b5061040a610807366004613f6e565b611f8e565b34801561081857600080fd5b506103b06120b4565b34801561082d57600080fd5b506104616120c3565b34801561084257600080fd5b5061040a610851366004613d80565b6120c8565b34801561086257600080fd5b50610876610871366004613dd8565b612196565b60405161039291906141f6565b34801561088f57600080fd5b5061040a61089e366004613ec1565b6122b5565b3480156108af57600080fd5b5061040a6108be366004613cb0565b61236b565b3480156108cf57600080fd5b506104616123aa565b3480156108e457600080fd5b506103b06108f3366004613ec1565b6123b0565b34801561090457600080fd5b50610461610913366004613ec1565b6124f5565b34801561092457600080fd5b5061046161250c565b34801561093957600080fd5b5061040a610948366004613ef1565b612530565b34801561095957600080fd5b5061046161253a565b34801561096e57600080fd5b5061046161255e565b34801561098357600080fd5b506103b0612564565b34801561099857600080fd5b506103856109a7366004613c38565b612573565b3480156109b857600080fd5b506109cc6109c7366004613ec1565b6125a1565b604051610392989796959493929190615110565b60006109eb82612658565b80610a0657506001600160e01b0319821663152a902d60e11b145b90505b919050565b606060028054610a1d90615245565b80601f0160208091040260200160405190810160405280929190818152602001828054610a4990615245565b8015610a965780601f10610a6b57610100808354040283529160200191610a96565b820191906000526020600020905b815481529060010190602001808311610a7957829003601f168201915b505050505090505b90565b6000610aac82612663565b610ad15760405162461bcd60e51b8152600401610ac890614bc0565b60405180910390fd5b506000908152600660205260409020546001600160a01b031690565b6000610af882611def565b9050806001600160a01b0316836001600160a01b03161415610b2c5760405162461bcd60e51b8152600401610ac890614d91565b806001600160a01b0316610b3e612680565b6001600160a01b03161480610b5a5750610b5a816109a7612680565b610b765760405162461bcd60e51b8152600401610ac890614932565b610b80838361268f565b505050565b610b9260006107e7612680565b610bae5760405162461bcd60e51b8152600401610ac890614832565b80610bcb5760405162461bcd60e51b8152600401610ac8906147fb565b610bd760156000613aad565b6000805b82811015610eba576000848483818110610c0557634e487b7160e01b600052603260045260246000fd5b61010002919091013591505080610c195750425b8215610c3e57808310610c3e5760405162461bcd60e51b8152600401610ac8906145c6565b6000858584818110610c6057634e487b7160e01b600052603260045260246000fd5b905061010002016020013511610c885760405162461bcd60e51b8152600401610ac890614869565b6000858584818110610caa57634e487b7160e01b600052603260045260246000fd5b905061010002016060013511610cd25760405162461bcd60e51b8152600401610ac89061458f565b6015604051806101000160405280838152602001878786818110610d0657634e487b7160e01b600052603260045260246000fd5b9050610100020160200135815260200160008152602001878786818110610d3d57634e487b7160e01b600052603260045260246000fd5b90506101000201606001358152602001878786818110610d6d57634e487b7160e01b600052603260045260246000fd5b90506101000201608001358152602001878786818110610d9d57634e487b7160e01b600052603260045260246000fd5b9050610100020160a001358152602001878786818110610dcd57634e487b7160e01b600052603260045260246000fd5b9050610100020160c0016020810190610de69190613c00565b6001600160a01b03168152602001878786818110610e1457634e487b7160e01b600052603260045260246000fd5b610100029190910160e0908101359092525082546001808201855560009485526020948590208451600890930201918255938301519381019390935560408201516002840155606082015160038401556080820151600484015560a0820151600584015560c08201516006840180546001600160a01b0319166001600160a01b039092169190911790550151600790910155915080610eb281615280565b915050610bdb565b507f795ebb3cd534c0d92268a24227e2bbdaaeea1845941e89f38d14abffec6934036015604051610eeb9190614256565b60405180910390a1505050565b60196020526000908152604090208054610f1190615245565b80601f0160208091040260200160405190810160405280929190818152602001828054610f3d90615245565b8015610f8a5780601f10610f5f57610100808354040283529160200191610f8a565b820191906000526020600020905b815481529060010190602001808311610f6d57829003601f168201915b505050505081565b600a5490565b610fa560006107e7612680565b610fc15760405162461bcd60e51b8152600401610ac890614832565b601160019054906101000a90046001600160a01b03166001600160a01b031663fd967f476040518163ffffffff1660e01b815260040160206040518083038186803b15801561100f57600080fd5b505afa158015611023573d6000803e3d6000fd5b505050506040513d601f19601f820116820180604052508101906110479190613fc9565b6fffffffffffffffffffffffffffffffff1681106110775760405162461bcd60e51b8152600401610ac890614dd2565b601a8190556040517f244ea8d7627f5a08f4299862bd5a45752842c183aee5b0fb0d1e4887bfa605b3906110ac908390614305565b60405180910390a150565b7f8502233096d909befbda0999bb8ea2f3a6be3c138b9fbf003752a4c8bce86f6c81565b6110ec6110e6612680565b826126fd565b6111085760405162461bcd60e51b8152600401610ac890614e75565b610b80838383612782565b6011546040805163a217fddf60e01b815290516101009092046001600160a01b0316916391d1485491839163a217fddf91600480820192602092909190829003018186803b15801561116457600080fd5b505afa158015611178573d6000803e3d6000fd5b505050506040513d601f19601f8201168201806040525081019061119c9190613ed9565b6111a4612680565b6040518363ffffffff1660e01b81526004016111c192919061430e565b60206040518083038186803b1580156111d957600080fd5b505afa1580156111ed573d6000803e3d6000fd5b505050506040513d601f19601f820116820180604052508101906112119190613ea5565b61122d5760405162461bcd60e51b8152600401610ac890614cfd565b60115460405163f2aab4b360e01b815260009161010090046001600160a01b03169063f2aab4b390611263903090600401614173565b60206040518083038186803b15801561127b57600080fd5b505afa15801561128f573d6000803e3d6000fd5b505050506040513d601f19601f820116820180604052508101906112b39190613c1c565b905060004790506000826001600160a01b0316826040516112d390610a9e565b60006040518083038185875af1925050503d8060008114611310576040519150601f19603f3d011682016040523d82523d6000602084013e611315565b606091505b50509050806113365760405162461bcd60e51b8152600401610ac890614430565b826001600160a01b03167feaff4b37086828766ad3268786972c0cd24259d4c87a80f9d3963a3c3d999b0d8360405161136f9190614305565b60405180910390a2505050565b60009081526020819052604090206001015490565b611399611d5d565b156113b65760405162461bcd60e51b8152600401610ac8906148fb565b6113e27f9f2df0fed2c77648de5860a4cc508cd0818c85b8b8a1ab4ceeef8d981c8956a66107e7612680565b6113fe5760405162461bcd60e51b8152600401610ac890614b7e565b60125460135461140f906001615194565b111561142d5760405162461bcd60e51b8152600401610ac89061489e565b6013546000908152601960205260409020611449908383613ace565b5060016013600082825461145d9190615194565b90915550505050565b60115460405163f2aab4b360e01b815260009182916101009091046001600160a01b03169063f2aab4b39061149f903090600401614173565b60206040518083038186803b1580156114b757600080fd5b505afa1580156114cb573d6000803e3d6000fd5b505050506040513d601f19601f820116820180604052508101906114ef9190613c1c565b9150601160019054906101000a90046001600160a01b03166001600160a01b031663fd967f476040518163ffffffff1660e01b815260040160206040518083038186803b15801561153f57600080fd5b505afa158015611553573d6000803e3d6000fd5b505050506040513d601f19601f820116820180604052508101906115779190613fc9565b6fffffffffffffffffffffffffffffffff16601a548461159791906151c0565b6115a191906151ac565b90509250929050565b60125481565b6115ba82826128af565b6000828152600160205260409020610b80908261263f565b600260105414156115f55760405162461bcd60e51b8152600401610ac890614fab565b6002601055611602611d5d565b1561161f5760405162461bcd60e51b8152600401610ac8906148fb565b6000611629611d66565b905060006015828154811061164e57634e487b7160e01b600052603260045260246000fd5b600091825260209182902060408051610100810182526008909302909101805483526001810154938301939093526002830154908201526003820154606082015260048201546080820152600582015460a082015260068201546001600160a01b031660c082015260079091015460e08201529050846116e05760405162461bcd60e51b8152600401610ac8906149c4565b601254856014546116f19190615194565b111561170f5760405162461bcd60e51b8152600401610ac890614ed2565b601354856014546117209190615194565b111561173e5760405162461bcd60e51b8152600401610ac89061498f565b80606001518511156117625760405162461bcd60e51b8152600401610ac890614367565b80602001518582604001516117779190615194565b11156117955760405162461bcd60e51b8152600401610ac8906149fb565b6000601660006117a3612680565b6001600160a01b031681526020808201929092526040908101600090812086825290925290205490508015806117d95750804210155b6117f55760405162461bcd60e51b8152600401610ac8906147b5565b60e082015115611890576000611809612680565b604051602001611819919061407c565b60405160208183030381529060405280519060200120905061187286868080602002602001604051908101604052809392919081815260200183836020028082843760009201919091525050505060e0850151836128d3565b61188e5760405162461bcd60e51b8152600401610ac890614732565b505b60a0820151156118b7576118b78260c001518360a00151886118b291906151c0565b61298e565b85601584815481106118d957634e487b7160e01b600052603260045260246000fd5b906000526020600020906008020160020160008282546118f99190615194565b9091555050608082015161190d9042615194565b60166000611919612680565b6001600160a01b0316815260208082019290925260409081016000908120878252909252812091909155601454905b8781101561198e5761196361195b612680565b601454612ae8565b6001601460008282546119769190615194565b9091555081905061198681615280565b915050611948565b50611997612680565b6001600160a01b03167f9cdcf2f7714cca3508c7f0110b04a90a80a3a8dd0e35de99689db74d28c5383e8289876040516119d3939291906150fa565b60405180910390a2505060016010555050505050565b60006119f483611e3c565b8210611a125760405162461bcd60e51b8152600401610ac8906144d5565b506001600160a01b03821660009081526008602090815260408083208484529091529020545b92915050565b611a4b60006107e7612680565b611a675760405162461bcd60e51b8152600401610ac890614832565b611a7360188383613ace565b507fe6e4cd5c2dc7d2c20519b41832cd550fd3ea1186bf299d108179bf71fb8e00e58282604051611aa5929190614325565b60405180910390a15050565b611abb8282612b02565b6000828152600160205260409020610b809082612b44565b611ae060006107e7612680565b611afc5760405162461bcd60e51b8152600401610ac890614832565b60128190556040517ff8cbdbee6d402ad22cddbc250098e39cd0d24f0fad122f64794577167c605df9906110ac908390614305565b611b5d7f65d7a28e3265b37a6474929f336521b332c1681b933f6cb9f3376673440d862a6107e7612680565b611b795760405162461bcd60e51b8152600401610ac89061503f565b611b81612b59565b565b610b808383836040518060200160405280600081525061236b565b611ba96110e6612680565b611bc55760405162461bcd60e51b8152600401610ac890614fe2565b611bce81612bc7565b50565b611bd9611d5d565b15611bf65760405162461bcd60e51b8152600401610ac8906148fb565b611c227f9f2df0fed2c77648de5860a4cc508cd0818c85b8b8a1ab4ceeef8d981c8956a66107e7612680565b611c3e5760405162461bcd60e51b8152600401610ac890614b7e565b601254601354611c4f908390615194565b1115611c6d5760405162461bcd60e51b8152600401610ac89061489e565b60135460005b82811015611ce657838382818110611c9b57634e487b7160e01b600052603260045260246000fd5b9050602002810190611cad919061514f565b6000848152601960205260409020611cc6929091613ace565b50611cd2600183615194565b915080611cde81615280565b915050611c73565b506013555050565b6000611cf8610f92565b8210611d165760405162461bcd60e51b8152600401610ac890614f17565b600a8281548110611d3757634e487b7160e01b600052603260045260246000fd5b90600052602060002001549050919050565b600f546001600160a01b0390811691161490565b600c5460ff1690565b601554600090611d885760405162461bcd60e51b8152600401610ac890614d5a565b601554600090611d9a906001906151df565b90505b60158181548110611dbe57634e487b7160e01b600052603260045260246000fd5b9060005260206000209060080201600001544210611ddd579050610a9e565b80611de78161522e565b915050611d9d565b6000818152600460205260408120546001600160a01b031680610a065760405162461bcd60e51b8152600401610ac890614a8f565b60405162461bcd60e51b8152600401610ac890614f74565b60006001600160a01b038216611e645760405162461bcd60e51b8152600401610ac890614a32565b506001600160a01b031660009081526005602052604090205490565b60135481565b60115460ff1681565b611ebb7f65d7a28e3265b37a6474929f336521b332c1681b933f6cb9f3376673440d862a6107e7612680565b611ed75760405162461bcd60e51b8152600401610ac89061465a565b611b81612c6e565b611eec60006107e7612680565b611f085760405162461bcd60e51b8152600401610ac890614832565b6011805460ff19168215151790556040517ffb4ba02cee22486df888d7ffb97c6100ec3193781e025cb9a4bc6fc358d626cc906110ac9083906142fa565b6000828152600160205260408120611f5e9083612cc9565b9392505050565b6000918252602082815260408084206001600160a01b0393909316845291905290205460ff1690565b6011546040805163a217fddf60e01b815290516101009092046001600160a01b0316916391d1485491839163a217fddf91600480820192602092909190829003018186803b158015611fdf57600080fd5b505afa158015611ff3573d6000803e3d6000fd5b505050506040513d601f19601f820116820180604052508101906120179190613ed9565b61201f612680565b6040518363ffffffff1660e01b815260040161203c92919061430e565b60206040518083038186803b15801561205457600080fd5b505afa158015612068573d6000803e3d6000fd5b505050506040513d601f19601f8201168201806040525081019061208c9190613ea5565b6120a85760405162461bcd60e51b8152600401610ac890614cfd565b610b8060178383613ace565b606060038054610a1d90615245565b600081565b6120d0612680565b6001600160a01b0316826001600160a01b031614156121015760405162461bcd60e51b8152600401610ac8906146fb565b806007600061210e612680565b6001600160a01b03908116825260208083019390935260409182016000908120918716808252919093529120805460ff191692151592909217909155612152612680565b6001600160a01b03167f17307eab39ab6107e8899845ad3d59bd9653f200f220920489ca2b5937696c318360405161218a91906142fa565b60405180910390a35050565b60608167ffffffffffffffff8111156121bf57634e487b7160e01b600052604160045260246000fd5b6040519080825280602002602001820160405280156121f257816020015b60608152602001906001900390816121dd5790505b50905060005b828110156122ae576122703085858481811061222457634e487b7160e01b600052603260045260246000fd5b9050602002810190612236919061514f565b8080601f016020809104026020016040519081016040528093929190818152602001838380828437600092019190915250612cd592505050565b82828151811061229057634e487b7160e01b600052603260045260246000fd5b602002602001018190525080806122a690615280565b9150506121f8565b5092915050565b6122bd611d5d565b156122da5760405162461bcd60e51b8152600401610ac8906148fb565b6123067f9f2df0fed2c77648de5860a4cc508cd0818c85b8b8a1ab4ceeef8d981c8956a66107e7612680565b6123225760405162461bcd60e51b8152600401610ac890614b7e565b601254816013546123339190615194565b11156123515760405162461bcd60e51b8152600401610ac89061489e565b80601360008282546123639190615194565b909155505050565b61237c612376612680565b836126fd565b6123985760405162461bcd60e51b8152600401610ac890614e75565b6123a484848484612cfa565b50505050565b601a5481565b60606123bb82612663565b6123d75760405162461bcd60e51b8152600401610ac890614c69565b60006123e1612d2d565b6000848152601960205260408120805492935090916123ff90615245565b905011156124a6576000838152601960205260409020805461242090615245565b80601f016020809104026020016040519081016040528092919081815260200182805461244c90615245565b80156124995780601f1061246e57610100808354040283529160200191612499565b820191906000526020600020905b81548152906001019060200180831161247c57829003601f168201915b5050505050915050610a09565b8051156124df57806124b784612d3c565b6040516020016124c89291906140c3565b604051602081830303815290604052915050610a09565b5050604080516020810190915260008152919050565b6000818152600160205260408120610a0690612e57565b7f9f2df0fed2c77648de5860a4cc508cd0818c85b8b8a1ab4ceeef8d981c8956a681565b611abb8282612e62565b7f65d7a28e3265b37a6474929f336521b332c1681b933f6cb9f3376673440d862a81565b60145481565b606060178054610a1d90615245565b6001600160a01b03918216600090815260076020908152604080832093909416825291909152205460ff1690565b601581815481106125b157600080fd5b600091825260209091206008909102018054600182015460028301546003840154600485015460058601546006870154600790970154959750939592949193909290916001600160a01b039091169088565b600061260e33611d49565b15612622575060131936013560601c610a9e565b61262a612654565b9050610a9e565b61263b8282612e81565b5050565b6000611f5e836001600160a01b038416612f06565b3390565b6000610a0682612f50565b6000908152600460205260409020546001600160a01b0316151590565b600061268a612603565b905090565b600081815260066020526040902080546001600160a01b0319166001600160a01b03841690811790915581906126c482611def565b6001600160a01b03167f8c5be1e5ebec7d5bd14f71427d1e84f3dd0314c0f7b2291e5b200ac8c7c3b92560405160405180910390a45050565b600061270882612663565b6127245760405162461bcd60e51b8152600401610ac890614769565b600061272f83611def565b9050806001600160a01b0316846001600160a01b0316148061276a5750836001600160a01b031661275f84610aa1565b6001600160a01b0316145b8061277a575061277a8185612573565b949350505050565b826001600160a01b031661279582611def565b6001600160a01b0316146127bb5760405162461bcd60e51b8152600401610ac890614c0c565b6001600160a01b0382166127e15760405162461bcd60e51b8152600401610ac8906146b7565b6127ec838383612f75565b6127f760008261268f565b6001600160a01b03831660009081526005602052604081208054600192906128209084906151df565b90915550506001600160a01b038216600090815260056020526040812080546001929061284e908490615194565b909155505060008181526004602052604080822080546001600160a01b0319166001600160a01b0386811691821790925591518493918716917fddf252ad1be2c89b69c2b068fc378daa952ba7f163c4a11628f55a4df523b3ef91a4505050565b6128b88261137c565b6128c9816128c4612680565b613029565b610b808383612e81565b600081815b855181101561298357600086828151811061290357634e487b7160e01b600052603260045260246000fd5b60200260200101519050808311612944578281604051602001612927929190614099565b604051602081830303815290604052805190602001209250612970565b8083604051602001612957929190614099565b6040516020818303038152906040528051906020012092505b508061297b81615280565b9150506128d8565b509092149392505050565b6001600160a01b0382166129c0578034146129bb5760405162461bcd60e51b8152600401610ac89061449e565b61263b565b816001600160a01b03166323b872dd6129d7612680565b60115460405163f2aab4b360e01b81526101009091046001600160a01b03169063f2aab4b390612a0b903090600401614173565b60206040518083038186803b158015612a2357600080fd5b505afa158015612a37573d6000803e3d6000fd5b505050506040513d601f19601f82011682018060405250810190612a5b9190613c1c565b846040518463ffffffff1660e01b8152600401612a7a93929190614187565b602060405180830381600087803b158015612a9457600080fd5b505af1158015612aa8573d6000803e3d6000fd5b505050506040513d601f19601f82011682018060405250810190612acc9190613ea5565b61263b5760405162461bcd60e51b8152600401610ac890614cc6565b61263b82826040518060200160405280600081525061308d565b612b0a612680565b6001600160a01b0316816001600160a01b031614612b3a5760405162461bcd60e51b8152600401610ac89061509d565b61263b82826130c0565b6000611f5e836001600160a01b038416613143565b612b61611d5d565b612b7d5760405162461bcd60e51b8152600401610ac890614467565b600c805460ff191690557f5db9ee0a495bf2e6ff9c91a7834c1ba4fdd244a5e8aa4e537bd38aeae4b073aa612bb0612680565b604051612bbd9190614173565b60405180910390a1565b6000612bd282611def565b9050612be081600084612f75565b612beb60008361268f565b6001600160a01b0381166000908152600560205260408120805460019290612c149084906151df565b909155505060008281526004602052604080822080546001600160a01b0319169055518391906001600160a01b038416907fddf252ad1be2c89b69c2b068fc378daa952ba7f163c4a11628f55a4df523b3ef908390a45050565b612c76611d5d565b15612c935760405162461bcd60e51b8152600401610ac8906148fb565b600c805460ff191660011790557f62e78cea01bee320cd4e420270b5ea74000d11b0c9f74754ebdbfc544b05a258612bb0612680565b6000611f5e8383613260565b6060611f5e838360405180606001604052806027815260200161532b60279139613298565b612d05848484612782565b612d1184848484613334565b6123a45760405162461bcd60e51b8152600401610ac890614532565b606060188054610a1d90615245565b606081612d6157506040805180820190915260018152600360fc1b6020820152610a09565b8160005b8115612d8b5780612d7581615280565b9150612d849050600a836151ac565b9150612d65565b60008167ffffffffffffffff811115612db457634e487b7160e01b600052604160045260246000fd5b6040519080825280601f01601f191660200182016040528015612dde576020820181803683370190505b5090505b841561277a57612df36001836151df565b9150612e00600a8661529b565b612e0b906030615194565b60f81b818381518110612e2e57634e487b7160e01b600052603260045260246000fd5b60200101906001600160f81b031916908160001a905350612e50600a866151ac565b9450612de2565b6000610a068261344f565b612e6b8261137c565b612e77816128c4612680565b610b8083836130c0565b612e8b8282611f65565b61263b576000828152602081815260408083206001600160a01b03851684529091529020805460ff19166001179055612ec2612680565b6001600160a01b0316816001600160a01b0316837f2f8788117e7eff1d82e926ec794901d17c78024a50270940304540a733656f0d60405160405180910390a45050565b6000612f128383613453565b612f4857508154600181810184556000848152602080822090930184905584548482528286019093526040902091909155611a38565b506000611a38565b60006001600160e01b0319821663780e9d6360e01b1480610a065750610a068261346b565b612f808383836134ab565b60115460ff168015612f9a57506001600160a01b03831615155b8015612fae57506001600160a01b03821615155b15610b8057612fdd7f8502233096d909befbda0999bb8ea2f3a6be3c138b9fbf003752a4c8bce86f6c84611f65565b8061300d575061300d7f8502233096d909befbda0999bb8ea2f3a6be3c138b9fbf003752a4c8bce86f6c83611f65565b610b805760405162461bcd60e51b8152600401610ac890614aec565b6130338282611f65565b61263b5761304b816001600160a01b031660146134b6565b6130568360206134b6565b6040516020016130679291906140f2565b60408051601f198184030181529082905262461bcd60e51b8252610ac891600401614354565b6130978383613675565b6130a46000848484613334565b610b805760405162461bcd60e51b8152600401610ac890614532565b6130ca8282611f65565b1561263b576000828152602081815260408083206001600160a01b03851684529091529020805460ff191690556130ff612680565b6001600160a01b0316816001600160a01b0316837ff6391f5c32d9c69d2a47ea670b442974b53935d1edc7fd64eb21e047a839171b60405160405180910390a45050565b600081815260018301602052604081205480156132565760006131676001836151df565b855490915060009061317b906001906151df565b90508181146131fc5760008660000182815481106131a957634e487b7160e01b600052603260045260246000fd5b90600052602060002001549050808760000184815481106131da57634e487b7160e01b600052603260045260246000fd5b6000918252602080832090910192909255918252600188019052604090208390555b855486908061321b57634e487b7160e01b600052603160045260246000fd5b600190038181906000526020600020016000905590558560010160008681526020019081526020016000206000905560019350505050611a38565b6000915050611a38565b600082600001828154811061328557634e487b7160e01b600052603260045260246000fd5b9060005260206000200154905092915050565b60606132a384613754565b6132bf5760405162461bcd60e51b8152600401610ac890614e2f565b600080856001600160a01b0316856040516132da91906140a7565b600060405180830381855af49150503d8060008114613315576040519150601f19603f3d011682016040523d82523d6000602084013e61331a565b606091505b509150915061332a82828661375a565b9695505050505050565b6000613348846001600160a01b0316613754565b1561344457836001600160a01b031663150b7a02613364612680565b8786866040518563ffffffff1660e01b815260040161338694939291906141ab565b602060405180830381600087803b1580156133a057600080fd5b505af19250505080156133d0575060408051601f3d908101601f191682019092526133cd91810190613f52565b60015b61342a573d8080156133fe576040519150601f19603f3d011682016040523d82523d6000602084013e613403565b606091505b5080516134225760405162461bcd60e51b8152600401610ac890614532565b805181602001fd5b6001600160e01b031916630a85bd0160e11b14905061277a565b506001949350505050565b5490565b60009081526001919091016020526040902054151590565b60006001600160e01b031982166380ac58cd60e01b148061349c57506001600160e01b03198216635b5e139f60e01b145b80610a065750610a0682613793565b610b808383836137b8565b606060006134c58360026151c0565b6134d0906002615194565b67ffffffffffffffff8111156134f657634e487b7160e01b600052604160045260246000fd5b6040519080825280601f01601f191660200182016040528015613520576020820181803683370190505b509050600360fc1b8160008151811061354957634e487b7160e01b600052603260045260246000fd5b60200101906001600160f81b031916908160001a905350600f60fb1b8160018151811061358657634e487b7160e01b600052603260045260246000fd5b60200101906001600160f81b031916908160001a90535060006135aa8460026151c0565b6135b5906001615194565b90505b6001811115613656577f303132333435363738396162636465660000000000000000000000000000000085600f166010811061360457634e487b7160e01b600052603260045260246000fd5b1a60f81b82828151811061362857634e487b7160e01b600052603260045260246000fd5b60200101906001600160f81b031916908160001a90535060049490941c9361364f8161522e565b90506135b8565b508315611f5e5760405162461bcd60e51b8152600401610ac89061439e565b6001600160a01b03821661369b5760405162461bcd60e51b8152600401610ac890614b49565b6136a481612663565b156136c15760405162461bcd60e51b8152600401610ac890614623565b6136cd60008383612f75565b6001600160a01b03821660009081526005602052604081208054600192906136f6908490615194565b909155505060008181526004602052604080822080546001600160a01b0319166001600160a01b03861690811790915590518392907fddf252ad1be2c89b69c2b068fc378daa952ba7f163c4a11628f55a4df523b3ef908290a45050565b3b151590565b60608315613769575081611f5e565b8251156137795782518084602001fd5b8160405162461bcd60e51b8152600401610ac89190614354565b60006001600160e01b03198216635a05180f60e01b1480610a065750610a06826137e8565b6137c383838361380d565b6137cb611d5d565b15610b805760405162461bcd60e51b8152600401610ac8906143d3565b60006001600160e01b03198216637965db0b60e01b1480610a065750610a0682613896565b613818838383610b80565b6001600160a01b0383166138345761382f816138af565b613857565b816001600160a01b0316836001600160a01b0316146138575761385783826138f3565b6001600160a01b0382166138735761386e81613990565b610b80565b826001600160a01b0316826001600160a01b031614610b8057610b808282613a69565b6001600160e01b031981166301ffc9a760e01b14919050565b600a80546000838152600b60205260408120829055600182018355919091527fc65a7bb8d6351c1cf70c95a316cc6a92839c986682d98bc35f958f4883f9d2a80155565b6000600161390084611e3c565b61390a91906151df565b60008381526009602052604090205490915080821461395d576001600160a01b03841660009081526008602090815260408083208584528252808320548484528184208190558352600990915290208190555b5060009182526009602090815260408084208490556001600160a01b039094168352600881528383209183525290812055565b600a546000906139a2906001906151df565b6000838152600b6020526040812054600a80549394509092849081106139d857634e487b7160e01b600052603260045260246000fd5b9060005260206000200154905080600a8381548110613a0757634e487b7160e01b600052603260045260246000fd5b6000918252602080832090910192909255828152600b9091526040808220849055858252812055600a805480613a4d57634e487b7160e01b600052603160045260246000fd5b6001900381819060005260206000200160009055905550505050565b6000613a7483611e3c565b6001600160a01b039093166000908152600860209081526040808320868452825280832085905593825260099052919091209190915550565b5080546000825560080290600052602060002090810190611bce9190613b52565b828054613ada90615245565b90600052602060002090601f016020900481019282613afc5760008555613b42565b82601f10613b155782800160ff19823516178555613b42565b82800160010185558215613b42579182015b82811115613b42578235825591602001919060010190613b27565b50613b4e929150613ba2565b5090565b5b80821115613b4e57600080825560018201819055600282018190556003820181905560048201819055600582018190556006820180546001600160a01b03191690556007820155600801613b53565b5b80821115613b4e5760008155600101613ba3565b60008083601f840112613bc8578081fd5b50813567ffffffffffffffff811115613bdf578182fd5b6020830191508360208083028501011115613bf957600080fd5b9250929050565b600060208284031215613c11578081fd5b8135611f5e816152f1565b600060208284031215613c2d578081fd5b8151611f5e816152f1565b60008060408385031215613c4a578081fd5b8235613c55816152f1565b91506020830135613c65816152f1565b809150509250929050565b600080600060608486031215613c84578081fd5b8335613c8f816152f1565b92506020840135613c9f816152f1565b929592945050506040919091013590565b60008060008060808587031215613cc5578081fd5b8435613cd0816152f1565b9350602085810135613ce1816152f1565b935060408601359250606086013567ffffffffffffffff80821115613d04578384fd5b818801915088601f830112613d17578384fd5b813581811115613d2957613d296152db565b604051601f8201601f1916810185018381118282101715613d4c57613d4c6152db565b60405281815283820185018b1015613d62578586fd5b81858501868301379081019093019390935250939692955090935050565b60008060408385031215613d92578182fd5b8235613d9d816152f1565b91506020830135613c6581615306565b60008060408385031215613dbf578182fd5b8235613dca816152f1565b946020939093013593505050565b60008060208385031215613dea578182fd5b823567ffffffffffffffff811115613e00578283fd5b613e0c85828601613bb7565b90969095509350505050565b60008060208385031215613e2a578182fd5b823567ffffffffffffffff80821115613e41578384fd5b818501915085601f830112613e54578384fd5b813581811115613e62578485fd5b86602061010083028501011115613e77578485fd5b60209290920196919550909350505050565b600060208284031215613e9a578081fd5b8135611f5e81615306565b600060208284031215613eb6578081fd5b8151611f5e81615306565b600060208284031215613ed2578081fd5b5035919050565b600060208284031215613eea578081fd5b5051919050565b60008060408385031215613f03578182fd5b823591506020830135613c65816152f1565b60008060408385031215613f27578182fd5b50508035926020909101359150565b600060208284031215613f47578081fd5b8135611f5e81615314565b600060208284031215613f63578081fd5b8151611f5e81615314565b60008060208385031215613f80578182fd5b823567ffffffffffffffff80821115613f97578384fd5b818501915085601f830112613faa578384fd5b813581811115613fb8578485fd5b866020828501011115613e77578485fd5b600060208284031215613fda578081fd5b81516fffffffffffffffffffffffffffffffff81168114611f5e578182fd5b60008060006040848603121561400d578081fd5b83359250602084013567ffffffffffffffff81111561402a578182fd5b61403686828701613bb7565b9497909650939450505050565b6001600160a01b03169052565b60008151808452614068816020860160208601615202565b601f01601f19169290920160200192915050565b60609190911b6bffffffffffffffffffffffff1916815260140190565b918252602082015260400190565b600082516140b9818460208701615202565b9190910192915050565b600083516140d5818460208801615202565b8351908301906140e9818360208801615202565b01949350505050565b60007f416363657373436f6e74726f6c3a206163636f756e74200000000000000000008252835161412a816017850160208801615202565b7f206973206d697373696e6720726f6c65200000000000000000000000000000006017918401918201528351614167816028840160208801615202565b01602801949350505050565b6001600160a01b0391909116815260200190565b6001600160a01b039384168152919092166020820152604081019190915260600190565b60006001600160a01b0380871683528086166020840152508360408301526080606083015261332a6080830184614050565b6001600160a01b03929092168252602082015260400190565b6000602080830181845280855180835260408601915060408482028701019250838701855b8281101561424957603f19888603018452614237858351614050565b9450928501929085019060010161421b565b5092979650505050505050565b60006020808301818452808554808352604092508286019150868552838520855b828110156142ed57815484526001820154868501526002820154858501526003820154606085015260048201546080850152600582015460a08501526142c060068301546151f6565b6142cd60c0860182614043565b50600782015460e085015261010090930192600890910190600101614277565b5091979650505050505050565b901515815260200190565b90815260200190565b9182526001600160a01b0316602082015260400190565b60006020825282602083015282846040840137818301604090810191909152601f909201601f19160101919050565b600060208252611f5e6020830184614050565b6020808252601b908201527f4e46543a20657863656564696e6720737570706c79206c696d69740000000000604082015260600190565b6020808252818101527f537472696e67733a20686578206c656e67746820696e73756666696369656e74604082015260600190565b6020808252602b908201527f4552433732315061757361626c653a20746f6b656e207472616e73666572207760408201527f68696c6520706175736564000000000000000000000000000000000000000000606082015260800190565b6020808252601d908201527f4e46543a206661696c656420746f2077697468647261772066756e6473000000604082015260600190565b60208082526014908201527f5061757361626c653a206e6f7420706175736564000000000000000000000000604082015260600190565b60208082526015908201527f4e46543a206e6f7420656e6f7567682076616c75650000000000000000000000604082015260600190565b6020808252602b908201527f455243373231456e756d657261626c653a206f776e657220696e646578206f7560408201527f74206f6620626f756e6473000000000000000000000000000000000000000000606082015260800190565b60208082526032908201527f4552433732313a207472616e7366657220746f206e6f6e20455243373231526560408201527f63656976657220696d706c656d656e7465720000000000000000000000000000606082015260800190565b6020808252601f908201527f4e46543a207175616e74697479206c696d69742063616e6e6f74206265203000604082015260600190565b6020808252602e908201527f4e46543a20737461727454696d657374616d70206d75737420626520696e206160408201527f7363656e64696e67206f72646572000000000000000000000000000000000000606082015260800190565b6020808252601c908201527f4552433732313a20746f6b656e20616c7265616479206d696e74656400000000604082015260600190565b6020808252603e908201527f4552433732315072657365744d696e7465725061757365724175746f49643a2060408201527f6d75737420686176652070617573657220726f6c6520746f2070617573650000606082015260800190565b60208082526024908201527f4552433732313a207472616e7366657220746f20746865207a65726f206164646040820152637265737360e01b606082015260800190565b60208082526019908201527f4552433732313a20617070726f766520746f2063616c6c657200000000000000604082015260600190565b6020808252601a908201527f4e46543a20696e76616c6964206d65726b6c652070726f6f6673000000000000604082015260600190565b6020808252602c908201527f4552433732313a206f70657261746f7220717565727920666f72206e6f6e657860408201526b34b9ba32b73a103a37b5b2b760a11b606082015260800190565b60208082526026908201527f4e46543a2063616e6e6f74206d696e74207965742064756520746f2074696d65604082015265081b1a5b5a5d60d21b606082015260800190565b6020808252601f908201527f4e46543a206e656564732061206c697374206f6620636f6e646974696f6e7300604082015260600190565b60208082526016908201527f6f6e6c79206d6f64756c652061646d696e20726f6c6500000000000000000000604082015260600190565b6020808252818101527f4e46543a206d6178206d696e7420737570706c792063616e6e6f742062652030604082015260600190565b60208082526029908201527f4e46543a2063616e6e6f74206d696e74206d6f7265207468616e206d6178546f60408201527f74616c537570706c790000000000000000000000000000000000000000000000606082015260800190565b60208082526010908201527f5061757361626c653a2070617573656400000000000000000000000000000000604082015260600190565b60208082526038908201527f4552433732313a20617070726f76652063616c6c6572206973206e6f74206f7760408201527f6e6572206e6f7220617070726f76656420666f7220616c6c0000000000000000606082015260800190565b6020808252818101527f4e46543a2063616e6e6f7420636c61696d20756e6d696e74656420746f6b656e604082015260600190565b60208082526019908201527f4e46543a207175616e746974792063616e6e6f74206265203000000000000000604082015260600190565b6020808252601e908201527f4e46543a20657863656564696e67206d6178206d696e7420737570706c790000604082015260600190565b6020808252602a908201527f4552433732313a2062616c616e636520717565727920666f7220746865207a6560408201527f726f206164647265737300000000000000000000000000000000000000000000606082015260800190565b60208082526029908201527f4552433732313a206f776e657220717565727920666f72206e6f6e657869737460408201527f656e7420746f6b656e0000000000000000000000000000000000000000000000606082015260800190565b60208082526036908201527f4e46543a205472616e736665727320617265207265737472696374656420746f60408201527f205452414e534645525f524f4c4520686f6c6465727300000000000000000000606082015260800190565b6020808252818101527f4552433732313a206d696e7420746f20746865207a65726f2061646472657373604082015260600190565b60208082526022908201527f4e46543a206d7573742068617665206d696e74657220726f6c6520746f206d696040820152611b9d60f21b606082015260800190565b6020808252602c908201527f4552433732313a20617070726f76656420717565727920666f72206e6f6e657860408201526b34b9ba32b73a103a37b5b2b760a11b606082015260800190565b60208082526029908201527f4552433732313a207472616e73666572206f6620746f6b656e2074686174206960408201527f73206e6f74206f776e0000000000000000000000000000000000000000000000606082015260800190565b6020808252602f908201527f4552433732314d657461646174613a2055524920717565727920666f72206e6f60408201527f6e6578697374656e7420746f6b656e0000000000000000000000000000000000606082015260800190565b6020808252601f908201527f4e46543a206661696c656420746f207472616e73666572207061796d656e7400604082015260600190565b60208082526032908201527f4e46543a206f6e6c7920612070726f746f636f6c2061646d696e2063616e206360408201527f616c6c20746869732066756e6374696f6e2e0000000000000000000000000000606082015260800190565b6020808252601d908201527f4e46543a206e6f207075626c6963206d696e7420636f6e646974696f6e000000604082015260600190565b60208082526021908201527f4552433732313a20617070726f76616c20746f2063757272656e74206f776e656040820152603960f91b606082015260800190565b6020808252602a908201527f4e46543a204270732070726f7669646564206d757374206265206c657373207460408201527f68616e2031302c30303000000000000000000000000000000000000000000000606082015260800190565b60208082526026908201527f416464726573733a2064656c65676174652063616c6c20746f206e6f6e2d636f6040820152651b9d1c9858dd60d21b606082015260800190565b60208082526031908201527f4552433732313a207472616e736665722063616c6c6572206973206e6f74206f60408201527f776e6572206e6f7220617070726f766564000000000000000000000000000000606082015260800190565b60208082526025908201527f4e46543a20657863656564696e6720746f74616c206d617820737570706c79206040820152641b1a5b5a5d60da1b606082015260800190565b6020808252602c908201527f455243373231456e756d657261626c653a20676c6f62616c20696e646578206f60408201527f7574206f6620626f756e64730000000000000000000000000000000000000000606082015260800190565b60208082526012908201527f4e46543a20636c61696d20696e73746561640000000000000000000000000000604082015260600190565b6020808252601f908201527f5265656e7472616e637947756172643a207265656e7472616e742063616c6c00604082015260600190565b60208082526030908201527f4552433732314275726e61626c653a2063616c6c6572206973206e6f74206f7760408201527f6e6572206e6f7220617070726f76656400000000000000000000000000000000606082015260800190565b602080825260409082018190527f4552433732315072657365744d696e7465725061757365724175746f49643a20908201527f6d75737420686176652070617573657220726f6c6520746f20756e7061757365606082015260800190565b6020808252602f908201527f416363657373436f6e74726f6c3a2063616e206f6e6c792072656e6f756e636560408201527f20726f6c657320666f722073656c660000000000000000000000000000000000606082015260800190565b9283526020830191909152604082015260600190565b978852602088019690965260408701949094526060860192909252608085015260a08401526001600160a01b031660c083015260e08201526101000190565b6000808335601e19843603018112615165578283fd5b83018035915067ffffffffffffffff82111561517f578283fd5b602001915036819003821315613bf957600080fd5b600082198211156151a7576151a76152af565b500190565b6000826151bb576151bb6152c5565b500490565b60008160001904831182151516156151da576151da6152af565b500290565b6000828210156151f1576151f16152af565b500390565b6001600160a01b031690565b60005b8381101561521d578181015183820152602001615205565b838111156123a45750506000910152565b60008161523d5761523d6152af565b506000190190565b60028104600182168061525957607f821691505b6020821081141561527a57634e487b7160e01b600052602260045260246000fd5b50919050565b6000600019821415615294576152946152af565b5060010190565b6000826152aa576152aa6152c5565b500690565b634e487b7160e01b600052601160045260246000fd5b634e487b7160e01b600052601260045260246000fd5b634e487b7160e01b600052604160045260246000fd5b6001600160a01b0381168114611bce57600080fd5b8015158114611bce57600080fd5b6001600160e01b031981168114611bce57600080fdfe416464726573733a206c6f772d6c6576656c2064656c65676174652063616c6c206661696c6564a164736f6c6343000800000a",
  "linkReferences": {},
  "deployedLinkReferences": {}
}