{
  "_format": "hh-sol-artifact-1",
  "contractName": "LazyNFT",
  "sourceName": "contracts/LazyNFT.sol",
  "abi": [
    {
      "inputs": [
        {
          "internalType": "address payable",
          "name": "_controlCenter",
          "type": "address"
        },
        {
          "internalType": "string",
          "name": "_name",
          "type": "string"
        },
        {
          "internalType": "string",
          "name": "_symbol",
          "type": "string"
        },
        {
          "internalType": "address",
          "name": "_trustedForwarder",
          "type": "address"
        },
        {
          "internalType": "string",
          "name": "_contractUri",
          "type": "string"
        },
        {
          "internalType": "string",
          "name": "_baseTokenUri",
          "type": "string"
        },
        {
          "internalType": "uint256",
          "name": "_maxSupply",
          "type": "uint256"
        },
        {
          "internalType": "uint256",
          "name": "_royaltyBps",
          "type": "uint256"
        }
      ],
      "stateMutability": "nonpayable",
      "type": "constructor"
    },
    {
      "anonymous": false,
      "inputs": [
        {
          "indexed": true,
          "internalType": "address",
          "name": "owner",
          "type": "address"
        },
        {
          "indexed": true,
          "internalType": "address",
          "name": "approved",
          "type": "address"
        },
        {
          "indexed": true,
          "internalType": "uint256",
          "name": "tokenId",
          "type": "uint256"
        }
      ],
      "name": "Approval",
      "type": "event"
    },
    {
      "anonymous": false,
      "inputs": [
        {
          "indexed": true,
          "internalType": "address",
          "name": "owner",
          "type": "address"
        },
        {
          "indexed": true,
          "internalType": "address",
          "name": "operator",
          "type": "address"
        },
        {
          "indexed": false,
          "internalType": "bool",
          "name": "approved",
          "type": "bool"
        }
      ],
      "name": "ApprovalForAll",
      "type": "event"
    },
    {
      "anonymous": false,
      "inputs": [
        {
          "indexed": false,
          "internalType": "string",
          "name": "uri",
          "type": "string"
        }
      ],
      "name": "BaseTokenURIUpdated",
      "type": "event"
    },
    {
      "anonymous": false,
      "inputs": [
        {
          "indexed": true,
          "internalType": "address",
          "name": "to",
          "type": "address"
        },
        {
          "indexed": false,
          "internalType": "uint256",
          "name": "startTokenId",
          "type": "uint256"
        },
        {
          "indexed": false,
          "internalType": "uint256",
          "name": "quantity",
          "type": "uint256"
        },
        {
          "indexed": false,
          "internalType": "uint256",
          "name": "mintConditionIndex",
          "type": "uint256"
        }
      ],
      "name": "Claimed",
      "type": "event"
    },
    {
      "anonymous": false,
      "inputs": [
        {
          "indexed": true,
          "internalType": "address",
          "name": "to",
          "type": "address"
        },
        {
          "indexed": false,
          "internalType": "uint256",
          "name": "amount",
          "type": "uint256"
        }
      ],
      "name": "FundsWithdrawn",
      "type": "event"
    },
    {
      "anonymous": false,
      "inputs": [
        {
          "indexed": false,
          "internalType": "address",
          "name": "account",
          "type": "address"
        }
      ],
      "name": "Paused",
      "type": "event"
    },
    {
      "anonymous": false,
      "inputs": [
        {
          "components": [
            {
              "internalType": "uint256",
              "name": "startTimestamp",
              "type": "uint256"
            },
            {
              "internalType": "uint256",
              "name": "maxMintSupply",
              "type": "uint256"
            },
            {
              "internalType": "uint256",
              "name": "currentMintSupply",
              "type": "uint256"
            },
            {
              "internalType": "uint256",
              "name": "quantityLimitPerTransaction",
              "type": "uint256"
            },
            {
              "internalType": "uint256",
              "name": "waitTimeSecondsLimitPerTransaction",
              "type": "uint256"
            },
            {
              "internalType": "bytes32",
              "name": "merkleRoot",
              "type": "bytes32"
            },
            {
              "internalType": "uint256",
              "name": "pricePerToken",
              "type": "uint256"
            },
            {
              "internalType": "address",
              "name": "currency",
              "type": "address"
            }
          ],
          "indexed": false,
          "internalType": "struct LazyNFT.PublicMintCondition[]",
          "name": "mintConditions",
          "type": "tuple[]"
        }
      ],
      "name": "PublicMintConditionUpdated",
      "type": "event"
    },
    {
      "anonymous": false,
      "inputs": [
        {
          "indexed": false,
          "internalType": "bool",
          "name": "transferable",
          "type": "bool"
        }
      ],
      "name": "RestrictedTransferUpdated",
      "type": "event"
    },
    {
      "anonymous": false,
      "inputs": [
        {
          "indexed": true,
          "internalType": "bytes32",
          "name": "role",
          "type": "bytes32"
        },
        {
          "indexed": true,
          "internalType": "bytes32",
          "name": "previousAdminRole",
          "type": "bytes32"
        },
        {
          "indexed": true,
          "internalType": "bytes32",
          "name": "newAdminRole",
          "type": "bytes32"
        }
      ],
      "name": "RoleAdminChanged",
      "type": "event"
    },
    {
      "anonymous": false,
      "inputs": [
        {
          "indexed": true,
          "internalType": "bytes32",
          "name": "role",
          "type": "bytes32"
        },
        {
          "indexed": true,
          "internalType": "address",
          "name": "account",
          "type": "address"
        },
        {
          "indexed": true,
          "internalType": "address",
          "name": "sender",
          "type": "address"
        }
      ],
      "name": "RoleGranted",
      "type": "event"
    },
    {
      "anonymous": false,
      "inputs": [
        {
          "indexed": true,
          "internalType": "bytes32",
          "name": "role",
          "type": "bytes32"
        },
        {
          "indexed": true,
          "internalType": "address",
          "name": "account",
          "type": "address"
        },
        {
          "indexed": true,
          "internalType": "address",
          "name": "sender",
          "type": "address"
        }
      ],
      "name": "RoleRevoked",
      "type": "event"
    },
    {
      "anonymous": false,
      "inputs": [
        {
          "indexed": false,
          "internalType": "uint256",
          "name": "royaltyBps",
          "type": "uint256"
        }
      ],
      "name": "RoyaltyUpdated",
      "type": "event"
    },
    {
      "anonymous": false,
      "inputs": [
        {
          "indexed": false,
          "internalType": "uint256",
          "name": "supply",
          "type": "uint256"
        }
      ],
      "name": "TotalSupplyUpdated",
      "type": "event"
    },
    {
      "anonymous": false,
      "inputs": [
        {
          "indexed": true,
          "internalType": "address",
          "name": "from",
          "type": "address"
        },
        {
          "indexed": true,
          "internalType": "address",
          "name": "to",
          "type": "address"
        },
        {
          "indexed": true,
          "internalType": "uint256",
          "name": "tokenId",
          "type": "uint256"
        }
      ],
      "name": "Transfer",
      "type": "event"
    },
    {
      "anonymous": false,
      "inputs": [
        {
          "indexed": false,
          "internalType": "address",
          "name": "account",
          "type": "address"
        }
      ],
      "name": "Unpaused",
      "type": "event"
    },
    {
      "inputs": [],
      "name": "DEFAULT_ADMIN_ROLE",
      "outputs": [
        {
          "internalType": "bytes32",
          "name": "",
          "type": "bytes32"
        }
      ],
      "stateMutability": "view",
      "type": "function"
    },
    {
      "inputs": [],
      "name": "MINTER_ROLE",
      "outputs": [
        {
          "internalType": "bytes32",
          "name": "",
          "type": "bytes32"
        }
      ],
      "stateMutability": "view",
      "type": "function"
    },
    {
      "inputs": [],
      "name": "PAUSER_ROLE",
      "outputs": [
        {
          "internalType": "bytes32",
          "name": "",
          "type": "bytes32"
        }
      ],
      "stateMutability": "view",
      "type": "function"
    },
    {
      "inputs": [],
      "name": "TRANSFER_ROLE",
      "outputs": [
        {
          "internalType": "bytes32",
          "name": "",
          "type": "bytes32"
        }
      ],
      "stateMutability": "view",
      "type": "function"
    },
    {
      "inputs": [
        {
          "internalType": "address",
          "name": "to",
          "type": "address"
        },
        {
          "internalType": "uint256",
          "name": "tokenId",
          "type": "uint256"
        }
      ],
      "name": "approve",
      "outputs": [],
      "stateMutability": "nonpayable",
      "type": "function"
    },
    {
      "inputs": [
        {
          "internalType": "address",
          "name": "owner",
          "type": "address"
        }
      ],
      "name": "balanceOf",
      "outputs": [
        {
          "internalType": "uint256",
          "name": "",
          "type": "uint256"
        }
      ],
      "stateMutability": "view",
      "type": "function"
    },
    {
      "inputs": [
        {
          "internalType": "uint256",
          "name": "tokenId",
          "type": "uint256"
        }
      ],
      "name": "burn",
      "outputs": [],
      "stateMutability": "nonpayable",
      "type": "function"
    },
    {
      "inputs": [
        {
          "internalType": "uint256",
          "name": "quantity",
          "type": "uint256"
        },
        {
          "internalType": "bytes32[]",
          "name": "proofs",
          "type": "bytes32[]"
        }
      ],
      "name": "claim",
      "outputs": [],
      "stateMutability": "payable",
      "type": "function"
    },
    {
      "inputs": [],
      "name": "contractURI",
      "outputs": [
        {
          "internalType": "string",
          "name": "",
          "type": "string"
        }
      ],
      "stateMutability": "view",
      "type": "function"
    },
    {
      "inputs": [
        {
          "internalType": "uint256",
          "name": "tokenId",
          "type": "uint256"
        }
      ],
      "name": "getApproved",
      "outputs": [
        {
          "internalType": "address",
          "name": "",
          "type": "address"
        }
      ],
      "stateMutability": "view",
      "type": "function"
    },
    {
      "inputs": [],
      "name": "getLastStartedMintConditionIndex",
      "outputs": [
        {
          "internalType": "uint256",
          "name": "",
          "type": "uint256"
        }
      ],
      "stateMutability": "view",
      "type": "function"
    },
    {
      "inputs": [],
      "name": "getMintConditionCount",
      "outputs": [
        {
          "internalType": "uint256",
          "name": "",
          "type": "uint256"
        }
      ],
      "stateMutability": "view",
      "type": "function"
    },
    {
      "inputs": [
        {
          "internalType": "bytes32",
          "name": "role",
          "type": "bytes32"
        }
      ],
      "name": "getRoleAdmin",
      "outputs": [
        {
          "internalType": "bytes32",
          "name": "",
          "type": "bytes32"
        }
      ],
      "stateMutability": "view",
      "type": "function"
    },
    {
      "inputs": [
        {
          "internalType": "bytes32",
          "name": "role",
          "type": "bytes32"
        },
        {
          "internalType": "uint256",
          "name": "index",
          "type": "uint256"
        }
      ],
      "name": "getRoleMember",
      "outputs": [
        {
          "internalType": "address",
          "name": "",
          "type": "address"
        }
      ],
      "stateMutability": "view",
      "type": "function"
    },
    {
      "inputs": [
        {
          "internalType": "bytes32",
          "name": "role",
          "type": "bytes32"
        }
      ],
      "name": "getRoleMemberCount",
      "outputs": [
        {
          "internalType": "uint256",
          "name": "",
          "type": "uint256"
        }
      ],
      "stateMutability": "view",
      "type": "function"
    },
    {
      "inputs": [
        {
          "internalType": "bytes32",
          "name": "role",
          "type": "bytes32"
        },
        {
          "internalType": "address",
          "name": "account",
          "type": "address"
        }
      ],
      "name": "grantRole",
      "outputs": [],
      "stateMutability": "nonpayable",
      "type": "function"
    },
    {
      "inputs": [
        {
          "internalType": "bytes32",
          "name": "role",
          "type": "bytes32"
        },
        {
          "internalType": "address",
          "name": "account",
          "type": "address"
        }
      ],
      "name": "hasRole",
      "outputs": [
        {
          "internalType": "bool",
          "name": "",
          "type": "bool"
        }
      ],
      "stateMutability": "view",
      "type": "function"
    },
    {
      "inputs": [
        {
          "internalType": "address",
          "name": "owner",
          "type": "address"
        },
        {
          "internalType": "address",
          "name": "operator",
          "type": "address"
        }
      ],
      "name": "isApprovedForAll",
      "outputs": [
        {
          "internalType": "bool",
          "name": "",
          "type": "bool"
        }
      ],
      "stateMutability": "view",
      "type": "function"
    },
    {
      "inputs": [
        {
          "internalType": "address",
          "name": "forwarder",
          "type": "address"
        }
      ],
      "name": "isTrustedForwarder",
      "outputs": [
        {
          "internalType": "bool",
          "name": "",
          "type": "bool"
        }
      ],
      "stateMutability": "view",
      "type": "function"
    },
    {
      "inputs": [
        {
          "internalType": "uint256",
          "name": "amount",
          "type": "uint256"
        }
      ],
      "name": "lazyMintAmount",
      "outputs": [],
      "stateMutability": "nonpayable",
      "type": "function"
    },
    {
      "inputs": [
        {
          "internalType": "string[]",
          "name": "_uris",
          "type": "string[]"
        }
      ],
      "name": "lazyMintBatch",
      "outputs": [],
      "stateMutability": "nonpayable",
      "type": "function"
    },
    {
      "inputs": [],
      "name": "maxTotalSupply",
      "outputs": [
        {
          "internalType": "uint256",
          "name": "",
          "type": "uint256"
        }
      ],
      "stateMutability": "view",
      "type": "function"
    },
    {
      "inputs": [
        {
          "internalType": "uint256",
          "name": "",
          "type": "uint256"
        }
      ],
      "name": "mintConditions",
      "outputs": [
        {
          "internalType": "uint256",
          "name": "startTimestamp",
          "type": "uint256"
        },
        {
          "internalType": "uint256",
          "name": "maxMintSupply",
          "type": "uint256"
        },
        {
          "internalType": "uint256",
          "name": "currentMintSupply",
          "type": "uint256"
        },
        {
          "internalType": "uint256",
          "name": "quantityLimitPerTransaction",
          "type": "uint256"
        },
        {
          "internalType": "uint256",
          "name": "waitTimeSecondsLimitPerTransaction",
          "type": "uint256"
        },
        {
          "internalType": "bytes32",
          "name": "merkleRoot",
          "type": "bytes32"
        },
        {
          "internalType": "uint256",
          "name": "pricePerToken",
          "type": "uint256"
        },
        {
          "internalType": "address",
          "name": "currency",
          "type": "address"
        }
      ],
      "stateMutability": "view",
      "type": "function"
    },
    {
      "inputs": [
        {
          "internalType": "bytes[]",
          "name": "data",
          "type": "bytes[]"
        }
      ],
      "name": "multicall",
      "outputs": [
        {
          "internalType": "bytes[]",
          "name": "results",
          "type": "bytes[]"
        }
      ],
      "stateMutability": "nonpayable",
      "type": "function"
    },
    {
      "inputs": [],
      "name": "name",
      "outputs": [
        {
          "internalType": "string",
          "name": "",
          "type": "string"
        }
      ],
      "stateMutability": "view",
      "type": "function"
    },
    {
      "inputs": [
        {
          "internalType": "address",
          "name": "",
          "type": "address"
        },
        {
          "internalType": "uint256",
          "name": "",
          "type": "uint256"
        }
      ],
      "name": "nextMintTimestampByCondition",
      "outputs": [
        {
          "internalType": "uint256",
          "name": "",
          "type": "uint256"
        }
      ],
      "stateMutability": "view",
      "type": "function"
    },
    {
      "inputs": [],
      "name": "nextMintTokenId",
      "outputs": [
        {
          "internalType": "uint256",
          "name": "",
          "type": "uint256"
        }
      ],
      "stateMutability": "view",
      "type": "function"
    },
    {
      "inputs": [],
      "name": "nextTokenId",
      "outputs": [
        {
          "internalType": "uint256",
          "name": "",
          "type": "uint256"
        }
      ],
      "stateMutability": "view",
      "type": "function"
    },
    {
      "inputs": [
        {
          "internalType": "uint256",
          "name": "tokenId",
          "type": "uint256"
        }
      ],
      "name": "ownerOf",
      "outputs": [
        {
          "internalType": "address",
          "name": "",
          "type": "address"
        }
      ],
      "stateMutability": "view",
      "type": "function"
    },
    {
      "inputs": [],
      "name": "pause",
      "outputs": [],
      "stateMutability": "nonpayable",
      "type": "function"
    },
    {
      "inputs": [],
      "name": "paused",
      "outputs": [
        {
          "internalType": "bool",
          "name": "",
          "type": "bool"
        }
      ],
      "stateMutability": "view",
      "type": "function"
    },
    {
      "inputs": [
        {
          "internalType": "bytes32",
          "name": "role",
          "type": "bytes32"
        },
        {
          "internalType": "address",
          "name": "account",
          "type": "address"
        }
      ],
      "name": "renounceRole",
      "outputs": [],
      "stateMutability": "nonpayable",
      "type": "function"
    },
    {
      "inputs": [
        {
          "internalType": "bytes32",
          "name": "role",
          "type": "bytes32"
        },
        {
          "internalType": "address",
          "name": "account",
          "type": "address"
        }
      ],
      "name": "revokeRole",
      "outputs": [],
      "stateMutability": "nonpayable",
      "type": "function"
    },
    {
      "inputs": [],
      "name": "royaltyBps",
      "outputs": [
        {
          "internalType": "uint256",
          "name": "",
          "type": "uint256"
        }
      ],
      "stateMutability": "view",
      "type": "function"
    },
    {
      "inputs": [
        {
          "internalType": "uint256",
          "name": "",
          "type": "uint256"
        },
        {
          "internalType": "uint256",
          "name": "salePrice",
          "type": "uint256"
        }
      ],
      "name": "royaltyInfo",
      "outputs": [
        {
          "internalType": "address",
          "name": "receiver",
          "type": "address"
        },
        {
          "internalType": "uint256",
          "name": "royaltyAmount",
          "type": "uint256"
        }
      ],
      "stateMutability": "view",
      "type": "function"
    },
    {
      "inputs": [
        {
          "internalType": "address",
          "name": "from",
          "type": "address"
        },
        {
          "internalType": "address",
          "name": "to",
          "type": "address"
        },
        {
          "internalType": "uint256",
          "name": "tokenId",
          "type": "uint256"
        }
      ],
      "name": "safeTransferFrom",
      "outputs": [],
      "stateMutability": "nonpayable",
      "type": "function"
    },
    {
      "inputs": [
        {
          "internalType": "address",
          "name": "from",
          "type": "address"
        },
        {
          "internalType": "address",
          "name": "to",
          "type": "address"
        },
        {
          "internalType": "uint256",
          "name": "tokenId",
          "type": "uint256"
        },
        {
          "internalType": "bytes",
          "name": "_data",
          "type": "bytes"
        }
      ],
      "name": "safeTransferFrom",
      "outputs": [],
      "stateMutability": "nonpayable",
      "type": "function"
    },
    {
      "inputs": [
        {
          "internalType": "address",
          "name": "operator",
          "type": "address"
        },
        {
          "internalType": "bool",
          "name": "approved",
          "type": "bool"
        }
      ],
      "name": "setApprovalForAll",
      "outputs": [],
      "stateMutability": "nonpayable",
      "type": "function"
    },
    {
      "inputs": [
        {
          "internalType": "string",
          "name": "_uri",
          "type": "string"
        }
      ],
      "name": "setBaseTokenURI",
      "outputs": [],
      "stateMutability": "nonpayable",
      "type": "function"
    },
    {
      "inputs": [
        {
          "internalType": "string",
          "name": "_URI",
          "type": "string"
        }
      ],
      "name": "setContractURI",
      "outputs": [],
      "stateMutability": "nonpayable",
      "type": "function"
    },
    {
      "inputs": [
        {
          "internalType": "uint256",
          "name": "maxSupply",
          "type": "uint256"
        }
      ],
      "name": "setMaxTotalSupply",
      "outputs": [],
      "stateMutability": "nonpayable",
      "type": "function"
    },
    {
      "inputs": [
        {
          "components": [
            {
              "internalType": "uint256",
              "name": "startTimestamp",
              "type": "uint256"
            },
            {
              "internalType": "uint256",
              "name": "maxMintSupply",
              "type": "uint256"
            },
            {
              "internalType": "uint256",
              "name": "currentMintSupply",
              "type": "uint256"
            },
            {
              "internalType": "uint256",
              "name": "quantityLimitPerTransaction",
              "type": "uint256"
            },
            {
              "internalType": "uint256",
              "name": "waitTimeSecondsLimitPerTransaction",
              "type": "uint256"
            },
            {
              "internalType": "bytes32",
              "name": "merkleRoot",
              "type": "bytes32"
            },
            {
              "internalType": "uint256",
              "name": "pricePerToken",
              "type": "uint256"
            },
            {
              "internalType": "address",
              "name": "currency",
              "type": "address"
            }
          ],
          "internalType": "struct LazyNFT.PublicMintCondition[]",
          "name": "conditions",
          "type": "tuple[]"
        }
      ],
      "name": "setPublicMintConditions",
      "outputs": [],
      "stateMutability": "nonpayable",
      "type": "function"
    },
    {
      "inputs": [
        {
          "internalType": "bool",
          "name": "_restrictedTransfer",
          "type": "bool"
        }
      ],
      "name": "setRestrictedTransfer",
      "outputs": [],
      "stateMutability": "nonpayable",
      "type": "function"
    },
    {
      "inputs": [
        {
          "internalType": "uint256",
          "name": "_royaltyBps",
          "type": "uint256"
        }
      ],
      "name": "setRoyaltyBps",
      "outputs": [],
      "stateMutability": "nonpayable",
      "type": "function"
    },
    {
      "inputs": [
        {
          "internalType": "bytes4",
          "name": "interfaceId",
          "type": "bytes4"
        }
      ],
      "name": "supportsInterface",
      "outputs": [
        {
          "internalType": "bool",
          "name": "",
          "type": "bool"
        }
      ],
      "stateMutability": "view",
      "type": "function"
    },
    {
      "inputs": [],
      "name": "symbol",
      "outputs": [
        {
          "internalType": "string",
          "name": "",
          "type": "string"
        }
      ],
      "stateMutability": "view",
      "type": "function"
    },
    {
      "inputs": [
        {
          "internalType": "uint256",
          "name": "index",
          "type": "uint256"
        }
      ],
      "name": "tokenByIndex",
      "outputs": [
        {
          "internalType": "uint256",
          "name": "",
          "type": "uint256"
        }
      ],
      "stateMutability": "view",
      "type": "function"
    },
    {
      "inputs": [
        {
          "internalType": "address",
          "name": "owner",
          "type": "address"
        },
        {
          "internalType": "uint256",
          "name": "index",
          "type": "uint256"
        }
      ],
      "name": "tokenOfOwnerByIndex",
      "outputs": [
        {
          "internalType": "uint256",
          "name": "",
          "type": "uint256"
        }
      ],
      "stateMutability": "view",
      "type": "function"
    },
    {
      "inputs": [
        {
          "internalType": "uint256",
          "name": "tokenId",
          "type": "uint256"
        }
      ],
      "name": "tokenURI",
      "outputs": [
        {
          "internalType": "string",
          "name": "",
          "type": "string"
        }
      ],
      "stateMutability": "view",
      "type": "function"
    },
    {
      "inputs": [],
      "name": "totalSupply",
      "outputs": [
        {
          "internalType": "uint256",
          "name": "",
          "type": "uint256"
        }
      ],
      "stateMutability": "view",
      "type": "function"
    },
    {
      "inputs": [
        {
          "internalType": "address",
          "name": "from",
          "type": "address"
        },
        {
          "internalType": "address",
          "name": "to",
          "type": "address"
        },
        {
          "internalType": "uint256",
          "name": "tokenId",
          "type": "uint256"
        }
      ],
      "name": "transferFrom",
      "outputs": [],
      "stateMutability": "nonpayable",
      "type": "function"
    },
    {
      "inputs": [],
      "name": "transfersRestricted",
      "outputs": [
        {
          "internalType": "bool",
          "name": "",
          "type": "bool"
        }
      ],
      "stateMutability": "view",
      "type": "function"
    },
    {
      "inputs": [],
      "name": "unpause",
      "outputs": [],
      "stateMutability": "nonpayable",
      "type": "function"
    }
  ],
  "bytecode": "0x60806040523480156200001157600080fd5b50604051620054123803806200541283398101604081905262000034916200060d565b84878781600290805190602001906200004f9291906200047d565b508051620000659060039060208401906200047d565b5050600c80546001600160a81b0319166101006001600160a01b039485168102919091179091556001600d5560158054610100600160a81b031916938c1690910292909217909155508351620000c39060169060208701906200047d565b508251620000d99060179060208601906200047d565b50600e829055620000f56000620000ef6200019b565b620001b7565b620001247f9f2df0fed2c77648de5860a4cc508cd0818c85b8b8a1ab4ceeef8d981c8956a6620000ef6200019b565b620001537f65d7a28e3265b37a6474929f336521b332c1681b933f6cb9f3376673440d862a620000ef6200019b565b620001827f8502233096d909befbda0999bb8ea2f3a6be3c138b9fbf003752a4c8bce86f6c620000ef6200019b565b6200018d81620001fa565b50505050505050506200073c565b6000620001b26200031660201b620029251760201c565b905090565b620001ce82826200035560201b620029571760201c565b6000828152600160209081526040909120620001f59183906200296562000365821b17901c565b505050565b6200023360006200020a6200019b565b6000918252602082815260408084206001600160a01b0393909316845291905290205460ff1690565b620002795760405162461bcd60e51b815260206004820152601160248201527037b7363c9036b7b23ab6329030b236b4b760791b60448201526064015b60405180910390fd5b612710811115620002db5760405162461bcd60e51b815260206004820152602560248201527f6270732070726f7669646564206d757374206265206c657373207468616e20316044820152640302c3030360dc1b606482015260840162000270565b60148190556040518181527f244ea8d7627f5a08f4299862bd5a45752842c183aee5b0fb0d1e4887bfa605b39060200160405180910390a150565b600c546000906001600160a01b036101009091041633141562000340575060131936013560601c90565b620001b26200038560201b6200297a1760201c565b62000361828262000389565b5050565b60006200037c836001600160a01b0384166200042b565b90505b92915050565b3390565b6000828152602081815260408083206001600160a01b038516845290915290205460ff1662000361576000828152602081815260408083206001600160a01b03851684529091529020805460ff19166001179055620003e76200019b565b6001600160a01b0316816001600160a01b0316837f2f8788117e7eff1d82e926ec794901d17c78024a50270940304540a733656f0d60405160405180910390a45050565b600081815260018301602052604081205462000474575081546001818101845560008481526020808220909301849055845484825282860190935260409020919091556200037f565b5060006200037f565b8280546200048b90620006ff565b90600052602060002090601f016020900481019282620004af5760008555620004fa565b82601f10620004ca57805160ff1916838001178555620004fa565b82800160010185558215620004fa579182015b82811115620004fa578251825591602001919060010190620004dd565b50620005089291506200050c565b5090565b5b808211156200050857600081556001016200050d565b80516001600160a01b03811681146200053b57600080fd5b919050565b634e487b7160e01b600052604160045260246000fd5b600082601f8301126200056857600080fd5b81516001600160401b038082111562000585576200058562000540565b604051601f8301601f19908116603f01168101908282118183101715620005b057620005b062000540565b81604052838152602092508683858801011115620005cd57600080fd5b600091505b83821015620005f15785820183015181830184015290820190620005d2565b83821115620006035760008385830101525b9695505050505050565b600080600080600080600080610100898b0312156200062b57600080fd5b620006368962000523565b60208a01519098506001600160401b03808211156200065457600080fd5b620006628c838d0162000556565b985060408b01519150808211156200067957600080fd5b620006878c838d0162000556565b97506200069760608c0162000523565b965060808b0151915080821115620006ae57600080fd5b620006bc8c838d0162000556565b955060a08b0151915080821115620006d357600080fd5b50620006e28b828c0162000556565b60c08b015160e0909b0151999c989b509699959894979350505050565b600181811c908216806200071457607f821691505b602082108114156200073657634e487b7160e01b600052602260045260246000fd5b50919050565b614cc6806200074c6000396000f3fe60806040526004361061034a5760003560e01c80635c975abb116101bb578063a22cb465116100f7578063d539139311610095578063e88fbd411161006f578063e88fbd41146109ec578063e8a3d48514610a02578063e985e9c514610a17578063fd59855014610a6057600080fd5b8063d539139314610964578063d547741f14610998578063e63ab1e9146109b857600080fd5b8063b88d4fde116100d1578063b88d4fde146108ee578063c63adb2b1461090e578063c87b56dd14610924578063ca15c8731461094457600080fd5b8063a22cb46514610881578063ac9650d8146108a1578063b7cdd0bc146108ce57600080fd5b80638456cb591161016457806391d148541161013e57806391d14854146107f3578063938e3d7b1461083757806395d89b4114610857578063a217fddf1461086c57600080fd5b80638456cb591461079e5780638ba448c2146107b35780639010d07c146107d357600080fd5b806370a082311161019557806370a082311461074e57806375794a3c1461076e5780638423df791461078457600080fd5b80635c975abb146107015780635da53d58146107195780636352211e1461072e57600080fd5b80632f2ff15d1161028a5780633f4ba83a1161023357806342966c681161020d57806342966c681461066d5780634ce40a321461068d5780634f6ccce7146106ad578063572b6c05146106cd57600080fd5b80633f4ba83a14610618578063428131081461062d57806342842e0e1461064d57600080fd5b806330176e131161026457806330176e13146105b857806336568abe146105d85780633f3e4c11146105f857600080fd5b80632f2ff15d146105655780632f52ebb7146105855780632f745c591461059857600080fd5b80631edab081116102f757806323b872dd116102d157806323b872dd146104c0578063248a9ca3146104e05780632a55205a146105105780632ab4d0521461054f57600080fd5b80631edab081146104345780631f72d8311461046c578063206b60f91461048c57600080fd5b8063095ea7b311610328578063095ea7b3146103de57806318160ddd146104005780631df952db1461041f57600080fd5b806301ffc9a71461034f57806306fdde0314610384578063081812fc146103a6575b600080fd5b34801561035b57600080fd5b5061036f61036a3660046143b5565b610ac4565b60405190151581526020015b60405180910390f35b34801561039057600080fd5b50610399610af0565b60405161037b919061442a565b3480156103b257600080fd5b506103c66103c136600461443d565b610b82565b6040516001600160a01b03909116815260200161037b565b3480156103ea57600080fd5b506103fe6103f936600461446b565b610c1c565b005b34801561040c57600080fd5b50600a545b60405190815260200161037b565b34801561042b57600080fd5b50601154610411565b34801561044057600080fd5b5061041161044f36600461446b565b601260209081526000928352604080842090915290825290205481565b34801561047857600080fd5b506103fe61048736600461443d565b610d44565b34801561049857600080fd5b506104117f8502233096d909befbda0999bb8ea2f3a6be3c138b9fbf003752a4c8bce86f6c81565b3480156104cc57600080fd5b506103fe6104db366004614497565b610e2d565b3480156104ec57600080fd5b506104116104fb36600461443d565b60009081526020819052604090206001015490565b34801561051c57600080fd5b5061053061052b3660046144d8565b610eaf565b604080516001600160a01b03909316835260208301919091520161037b565b34801561055b57600080fd5b50610411600e5481565b34801561057157600080fd5b506103fe6105803660046144fa565b610f59565b6103fe610593366004614576565b610f7b565b3480156105a457600080fd5b506104116105b336600461446b565b611552565b3480156105c457600080fd5b506103fe6105d33660046145c2565b6115fa565b3480156105e457600080fd5b506103fe6105f33660046144fa565b611691565b34801561060457600080fd5b506103fe61061336600461443d565b6116b3565b34801561062457600080fd5b506103fe611735565b34801561063957600080fd5b506103fe610648366004614634565b6117b7565b34801561065957600080fd5b506103fe610668366004614497565b611c0b565b34801561067957600080fd5b506103fe61068836600461443d565b611c26565b34801561069957600080fd5b506103fe6106a8366004614697565b611caf565b3480156106b957600080fd5b506104116106c836600461443d565b611e4b565b3480156106d957600080fd5b5061036f6106e83660046146d9565b600c5461010090046001600160a01b0390811691161490565b34801561070d57600080fd5b50600c5460ff1661036f565b34801561072557600080fd5b50610411611eef565b34801561073a57600080fd5b506103c661074936600461443d565b611fec565b34801561075a57600080fd5b506104116107693660046146d9565b612077565b34801561077a57600080fd5b50610411600f5481565b34801561079057600080fd5b5060155461036f9060ff1681565b3480156107aa57600080fd5b506103fe612111565b3480156107bf57600080fd5b506103fe6107ce366004614704565b612191565b3480156107df57600080fd5b506103c66107ee3660046144d8565b61221f565b3480156107ff57600080fd5b5061036f61080e3660046144fa565b6000918252602082815260408084206001600160a01b0393909316845291905290205460ff1690565b34801561084357600080fd5b506103fe6108523660046145c2565b61223e565b34801561086357600080fd5b506103996123a4565b34801561087857600080fd5b50610411600081565b34801561088d57600080fd5b506103fe61089c366004614721565b6123b3565b3480156108ad57600080fd5b506108c16108bc366004614697565b6124b5565b60405161037b919061474f565b3480156108da57600080fd5b506103fe6108e936600461443d565b6125aa565b3480156108fa57600080fd5b506103fe6109093660046147c7565b6126ed565b34801561091a57600080fd5b5061041160145481565b34801561093057600080fd5b5061039961093f36600461443d565b612776565b34801561095057600080fd5b5061041161095f36600461443d565b612896565b34801561097057600080fd5b506104117f9f2df0fed2c77648de5860a4cc508cd0818c85b8b8a1ab4ceeef8d981c8956a681565b3480156109a457600080fd5b506103fe6109b33660046144fa565b6128ad565b3480156109c457600080fd5b506104117f65d7a28e3265b37a6474929f336521b332c1681b933f6cb9f3376673440d862a81565b3480156109f857600080fd5b5061041160105481565b348015610a0e57600080fd5b506103996128b7565b348015610a2357600080fd5b5061036f610a323660046148a7565b6001600160a01b03918216600090815260076020908152604080832093909416825291909152205460ff1690565b348015610a6c57600080fd5b50610a80610a7b36600461443d565b6128c6565b604080519889526020890197909752958701949094526060860192909252608085015260a084015260c08301526001600160a01b031660e08201526101000161037b565b6000610acf8261297e565b80610aea57506001600160e01b0319821663152a902d60e11b145b92915050565b606060028054610aff906148d5565b80601f0160208091040260200160405190810160405280929190818152602001828054610b2b906148d5565b8015610b785780601f10610b4d57610100808354040283529160200191610b78565b820191906000526020600020905b815481529060010190602001808311610b5b57829003601f168201915b5050505050905090565b6000818152600460205260408120546001600160a01b0316610c005760405162461bcd60e51b815260206004820152602c60248201527f4552433732313a20617070726f76656420717565727920666f72206e6f6e657860448201526b34b9ba32b73a103a37b5b2b760a11b60648201526084015b60405180910390fd5b506000908152600660205260409020546001600160a01b031690565b6000610c2782611fec565b9050806001600160a01b0316836001600160a01b03161415610c955760405162461bcd60e51b815260206004820152602160248201527f4552433732313a20617070726f76616c20746f2063757272656e74206f776e656044820152603960f91b6064820152608401610bf7565b806001600160a01b0316610ca76129a3565b6001600160a01b03161480610cc35750610cc381610a326129a3565b610d355760405162461bcd60e51b815260206004820152603860248201527f4552433732313a20617070726f76652063616c6c6572206973206e6f74206f7760448201527f6e6572206e6f7220617070726f76656420666f7220616c6c00000000000000006064820152608401610bf7565b610d3f83836129ad565b505050565b610d51600061080e6129a3565b610d915760405162461bcd60e51b815260206004820152601160248201527037b7363c9036b7b23ab6329030b236b4b760791b6044820152606401610bf7565b612710811115610df15760405162461bcd60e51b815260206004820152602560248201527f6270732070726f7669646564206d757374206265206c657373207468616e20316044820152640302c3030360dc1b6064820152608401610bf7565b60148190556040518181527f244ea8d7627f5a08f4299862bd5a45752842c183aee5b0fb0d1e4887bfa605b3906020015b60405180910390a150565b610e3e610e386129a3565b82612a1b565b610ea45760405162461bcd60e51b815260206004820152603160248201527f4552433732313a207472616e736665722063616c6c6572206973206e6f74206f6044820152701ddb995c881b9bdc88185c1c1c9bdd9959607a1b6064820152608401610bf7565b610d3f838383612b12565b60155460405163f2aab4b360e01b815230600482015260009182916101009091046001600160a01b03169063f2aab4b39060240160206040518083038186803b158015610efb57600080fd5b505afa158015610f0f573d6000803e3d6000fd5b505050506040513d601f19601f82011682018060405250810190610f339190614910565b915061271060145484610f469190614943565b610f509190614978565b90509250929050565b610f638282612cd1565b6000828152600160205260409020610d3f9082612965565b6002600d541415610fce5760405162461bcd60e51b815260206004820152601f60248201527f5265656e7472616e637947756172643a207265656e7472616e742063616c6c006044820152606401610bf7565b6002600d55600c5460ff16156110195760405162461bcd60e51b815260206004820152601060248201526f14185d5cd8589b194e881c185d5cd95960821b6044820152606401610bf7565b6000611023611eef565b905060006011828154811061103a5761103a61498c565b600091825260209182902060408051610100810182526008909302909101805483526001810154938301939093526002830154908201526003820154606082015260048201546080820152600582015460a0820152600682015460c08201526007909101546001600160a01b031660e08201529050846110fc5760405162461bcd60e51b815260206004820152600d60248201527f6e656564207175616e74697479000000000000000000000000000000000000006044820152606401610bf7565b600e548560105461110d91906149a2565b111561115b5760405162461bcd60e51b815260206004820152601760248201527f657863656564206d617820737570706c79206c696d69740000000000000000006044820152606401610bf7565b600f548560105461116c91906149a2565b11156111ba5760405162461bcd60e51b815260206004820152601b60248201527f63616e6e6f7420636c61696d20756e6d696e74656420746f6b656e00000000006044820152606401610bf7565b806060015185111561120e5760405162461bcd60e51b815260206004820152600f60248201527f657863656564207478206c696d697400000000000000000000000000000000006044820152606401610bf7565b806020015185826040015161122391906149a2565b11156112715760405162461bcd60e51b815260206004820152601660248201527f657863656564206d6178206d696e7420737570706c79000000000000000000006044820152606401610bf7565b60006013548361128191906149a2565b90506000601260006112916129a3565b6001600160a01b031681526020808201929092526040908101600090812085825290925290205490508015806112c75750804210155b6113135760405162461bcd60e51b815260206004820152600f60248201527f63616e6e6f74206d696e742079657400000000000000000000000000000000006044820152606401610bf7565b60a0830151156113f65760006113276129a3565b60405160200161134f919060609190911b6bffffffffffffffffffffffff1916815260140190565b6040516020818303038152906040528051906020012090506113a887878080602002602001604051908101604052809392919081815260200183836020028082843760009201919091525050505060a086015183612cfe565b6113f45760405162461bcd60e51b815260206004820152600e60248201527f696e76616c69642070726f6f66730000000000000000000000000000000000006044820152606401610bf7565b505b866011858154811061140a5761140a61498c565b9060005260206000209060080201600201600082825461142a91906149a2565b909155505060808301514281019081101561144457506000195b80601260006114516129a3565b6001600160a01b031681526020808201929092526040908101600090812087825290925290205560c08401511561149f5761149f8460e001518560c001518a61149a9190614943565b612dad565b60105460005b898110156114eb576114c06114b86129a3565b601054612f82565b6001601060008282546114d391906149a2565b909155508190506114e3816149ba565b9150506114a5565b506114f46129a3565b60408051838152602081018c90529081018890526001600160a01b0391909116907f9cdcf2f7714cca3508c7f0110b04a90a80a3a8dd0e35de99689db74d28c5383e9060600160405180910390a250506001600d5550505050505050565b600061155d83612077565b82106115d15760405162461bcd60e51b815260206004820152602b60248201527f455243373231456e756d657261626c653a206f776e657220696e646578206f7560448201527f74206f6620626f756e64730000000000000000000000000000000000000000006064820152608401610bf7565b506001600160a01b03919091166000908152600860209081526040808320938352929052205490565b611607600061080e6129a3565b6116475760405162461bcd60e51b815260206004820152601160248201527037b7363c9036b7b23ab6329030b236b4b760791b6044820152606401610bf7565b61165360178383614295565b507fe6e4cd5c2dc7d2c20519b41832cd550fd3ea1186bf299d108179bf71fb8e00e582826040516116859291906149d5565b60405180910390a15050565b61169b8282612f9c565b6000828152600160205260409020610d3f9082613034565b6116c0600061080e6129a3565b6117005760405162461bcd60e51b815260206004820152601160248201527037b7363c9036b7b23ab6329030b236b4b760791b6044820152606401610bf7565b600e8190556040518181527ff8cbdbee6d402ad22cddbc250098e39cd0d24f0fad122f64794577167c605df990602001610e22565b6117617f65d7a28e3265b37a6474929f336521b332c1681b933f6cb9f3376673440d862a61080e6129a3565b6117ad5760405162461bcd60e51b815260206004820181905260248201527f6d75737420686176652070617573657220726f6c6520746f20756e70617573656044820152606401610bf7565b6117b5613049565b565b6117c4600061080e6129a3565b6118045760405162461bcd60e51b815260206004820152601160248201527037b7363c9036b7b23ab6329030b236b4b760791b6044820152606401610bf7565b806118515760405162461bcd60e51b815260206004820152601a60248201527f6e656564732061206c697374206f6620636f6e646974696f6e730000000000006044820152606401610bf7565b60115415611880576011546013805460009061186e9084906149a2565b90915550611880905060116000614319565b6000805b82811015611bcd578115611923578383828181106118a4576118a461498c565b905061010002016000013582106119235760405162461bcd60e51b815260206004820152602960248201527f737461727454696d657374616d70206d75737420626520696e20617363656e6460448201527f696e67206f7264657200000000000000000000000000000000000000000000006064820152608401610bf7565b60008484838181106119375761193761498c565b90506101000201602001351161198f5760405162461bcd60e51b815260206004820152601b60248201527f6d6178206d696e7420737570706c792063616e6e6f74206265203000000000006044820152606401610bf7565b60008484838181106119a3576119a361498c565b9050610100020160600135116119fb5760405162461bcd60e51b815260206004820152601a60248201527f7175616e74697479206c696d69742063616e6e6f7420626520300000000000006044820152606401610bf7565b6011604051806101000160405280868685818110611a1b57611a1b61498c565b611a2f9261010090910201359050426149a2565b8152602001868685818110611a4657611a4661498c565b9050610100020160200135815260200160008152602001868685818110611a6f57611a6f61498c565b90506101000201606001358152602001868685818110611a9157611a9161498c565b90506101000201608001358152602001868685818110611ab357611ab361498c565b9050610100020160a001358152602001868685818110611ad557611ad561498c565b9050610100020160c001358152602001868685818110611af757611af761498c565b9050610100020160e0016020810190611b1091906146d9565b6001600160a01b0390811690915282546001808201855560009485526020948590208451600890930201918255938301519381019390935560408201516002840155606082015160038401556080820151600484015560a0820151600584015560c0820151600684015560e090910151600790920180546001600160a01b03191692909116919091179055838382818110611bad57611bad61498c565b905061010002016000013591508080611bc5906149ba565b915050611884565b507f0d81786d9719fff6cc2cf3c64025550dbba243da255d6c5fa0879e8ad6af83cc6011604051611bfe9190614a04565b60405180910390a1505050565b610d3f838383604051806020016040528060008152506126ed565b611c31610e386129a3565b611ca35760405162461bcd60e51b815260206004820152603060248201527f4552433732314275726e61626c653a2063616c6c6572206973206e6f74206f7760448201527f6e6572206e6f7220617070726f766564000000000000000000000000000000006064820152608401610bf7565b611cac816130eb565b50565b600c5460ff1615611cf55760405162461bcd60e51b815260206004820152601060248201526f14185d5cd8589b194e881c185d5cd95960821b6044820152606401610bf7565b611d217f9f2df0fed2c77648de5860a4cc508cd0818c85b8b8a1ab4ceeef8d981c8956a661080e6129a3565b611d6d5760405162461bcd60e51b815260206004820152601d60248201527f6d7573742068617665206d696e74657220726f6c6520746f206d696e740000006044820152606401610bf7565b600e54600f54611d7e9083906149a2565b1115611dd85760405162461bcd60e51b8152602060048201526024808201527f63616e6e6f74206d696e74206d6f7265207468616e206d6178546f74616c537560448201526370706c7960e01b6064820152608401610bf7565b600f5460005b82811015611e4357838382818110611df857611df861498c565b9050602002810190611e0a9190614aa2565b6000848152601860205260409020611e23929091614295565b50611e2f6001836149a2565b915080611e3b816149ba565b915050611dde565b50600f555050565b6000611e56600a5490565b8210611eca5760405162461bcd60e51b815260206004820152602c60248201527f455243373231456e756d657261626c653a20676c6f62616c20696e646578206f60448201527f7574206f6620626f756e647300000000000000000000000000000000000000006064820152608401610bf7565b600a8281548110611edd57611edd61498c565b90600052602060002001549050919050565b601154600090611f415760405162461bcd60e51b815260206004820152601860248201527f6e6f207075626c6963206d696e7420636f6e646974696f6e00000000000000006044820152606401610bf7565b6011545b8015611fa3576011611f58600183614ae9565b81548110611f6857611f6861498c565b9060005260206000209060080201600001544210611f9157611f8b600182614ae9565b91505090565b80611f9b81614b00565b915050611f45565b5060405162461bcd60e51b815260206004820152601860248201527f6e6f20616374697665206d696e7420636f6e646974696f6e00000000000000006044820152606401610bf7565b6000818152600460205260408120546001600160a01b031680610aea5760405162461bcd60e51b815260206004820152602960248201527f4552433732313a206f776e657220717565727920666f72206e6f6e657869737460448201527f656e7420746f6b656e00000000000000000000000000000000000000000000006064820152608401610bf7565b60006001600160a01b0382166120f55760405162461bcd60e51b815260206004820152602a60248201527f4552433732313a2062616c616e636520717565727920666f7220746865207a6560448201527f726f2061646472657373000000000000000000000000000000000000000000006064820152608401610bf7565b506001600160a01b031660009081526005602052604090205490565b61213d7f65d7a28e3265b37a6474929f336521b332c1681b933f6cb9f3376673440d862a61080e6129a3565b6121895760405162461bcd60e51b815260206004820152601e60248201527f6d75737420686176652070617573657220726f6c6520746f20706175736500006044820152606401610bf7565b6117b5613192565b61219e600061080e6129a3565b6121de5760405162461bcd60e51b815260206004820152601160248201527037b7363c9036b7b23ab6329030b236b4b760791b6044820152606401610bf7565b6015805460ff19168215159081179091556040519081527ffb4ba02cee22486df888d7ffb97c6100ec3193781e025cb9a4bc6fc358d626cc90602001610e22565b6000828152600160205260408120612237908361320e565b9392505050565b6015546040805163a217fddf60e01b815290516101009092046001600160a01b0316916391d1485491839163a217fddf91600480820192602092909190829003018186803b15801561228f57600080fd5b505afa1580156122a3573d6000803e3d6000fd5b505050506040513d601f19601f820116820180604052508101906122c79190614b17565b6122cf6129a3565b6040516001600160e01b031960e085901b16815260048101929092526001600160a01b0316602482015260440160206040518083038186803b15801561231457600080fd5b505afa158015612328573d6000803e3d6000fd5b505050506040513d601f19601f8201168201806040525081019061234c9190614b30565b6123985760405162461bcd60e51b815260206004820152601260248201527f6e6f742070726f746f636f6c2061646d696e00000000000000000000000000006044820152606401610bf7565b610d3f60168383614295565b606060038054610aff906148d5565b6123bb6129a3565b6001600160a01b0316826001600160a01b0316141561241c5760405162461bcd60e51b815260206004820152601960248201527f4552433732313a20617070726f766520746f2063616c6c6572000000000000006044820152606401610bf7565b80600760006124296129a3565b6001600160a01b03908116825260208083019390935260409182016000908120918716808252919093529120805460ff19169215159290921790915561246d6129a3565b6001600160a01b03167f17307eab39ab6107e8899845ad3d59bd9653f200f220920489ca2b5937696c31836040516124a9911515815260200190565b60405180910390a35050565b60608167ffffffffffffffff8111156124d0576124d06147b1565b60405190808252806020026020018201604052801561250357816020015b60608152602001906001900390816124ee5790505b50905060005b828110156125a357612573308585848181106125275761252761498c565b90506020028101906125399190614aa2565b8080601f01602080910402602001604051908101604052809392919081815260200183838082843760009201919091525061321a92505050565b8282815181106125855761258561498c565b6020026020010181905250808061259b906149ba565b915050612509565b5092915050565b600c5460ff16156125f05760405162461bcd60e51b815260206004820152601060248201526f14185d5cd8589b194e881c185d5cd95960821b6044820152606401610bf7565b61261c7f9f2df0fed2c77648de5860a4cc508cd0818c85b8b8a1ab4ceeef8d981c8956a661080e6129a3565b6126685760405162461bcd60e51b815260206004820152601d60248201527f6d7573742068617665206d696e74657220726f6c6520746f206d696e740000006044820152606401610bf7565b600e5481600f5461267991906149a2565b11156126d35760405162461bcd60e51b8152602060048201526024808201527f63616e6e6f74206d696e74206d6f7265207468616e206d6178546f74616c537560448201526370706c7960e01b6064820152608401610bf7565b80600f60008282546126e591906149a2565b909155505050565b6126fe6126f86129a3565b83612a1b565b6127645760405162461bcd60e51b815260206004820152603160248201527f4552433732313a207472616e736665722063616c6c6572206973206e6f74206f6044820152701ddb995c881b9bdc88185c1c1c9bdd9959607a1b6064820152608401610bf7565b6127708484848461323f565b50505050565b606060006127826132bd565b6000848152601860205260408120805492935090916127a0906148d5565b9050111561284757600083815260186020526040902080546127c1906148d5565b80601f01602080910402602001604051908101604052809291908181526020018280546127ed906148d5565b801561283a5780601f1061280f5761010080835404028352916020019161283a565b820191906000526020600020905b81548152906001019060200180831161281d57829003601f168201915b5050505050915050919050565b8051156128805780612858846132cc565b604051602001612869929190614b4d565b604051602081830303815290604052915050919050565b5050604080516020810190915260008152919050565b6000818152600160205260408120610aea906133ca565b61169b82826133d4565b606060168054610aff906148d5565b601181815481106128d657600080fd5b600091825260209091206008909102018054600182015460028301546003840154600485015460058601546006870154600790970154959750939592949193909290916001600160a01b031688565b600c5460009061010090046001600160a01b031633141561294d575060131936013560601c90565b503390565b905090565b61296182826133fc565b5050565b6000612237836001600160a01b03841661349b565b3390565b60006001600160e01b0319821663780e9d6360e01b1480610aea5750610aea826134ea565b6000612952612925565b600081815260066020526040902080546001600160a01b0319166001600160a01b03841690811790915581906129e282611fec565b6001600160a01b03167f8c5be1e5ebec7d5bd14f71427d1e84f3dd0314c0f7b2291e5b200ac8c7c3b92560405160405180910390a45050565b6000818152600460205260408120546001600160a01b0316612a945760405162461bcd60e51b815260206004820152602c60248201527f4552433732313a206f70657261746f7220717565727920666f72206e6f6e657860448201526b34b9ba32b73a103a37b5b2b760a11b6064820152608401610bf7565b6000612a9f83611fec565b9050806001600160a01b0316846001600160a01b03161480612ada5750836001600160a01b0316612acf84610b82565b6001600160a01b0316145b80612b0a57506001600160a01b0380821660009081526007602090815260408083209388168352929052205460ff165b949350505050565b826001600160a01b0316612b2582611fec565b6001600160a01b031614612ba15760405162461bcd60e51b815260206004820152602960248201527f4552433732313a207472616e73666572206f6620746f6b656e2074686174206960448201527f73206e6f74206f776e00000000000000000000000000000000000000000000006064820152608401610bf7565b6001600160a01b038216612c035760405162461bcd60e51b8152602060048201526024808201527f4552433732313a207472616e7366657220746f20746865207a65726f206164646044820152637265737360e01b6064820152608401610bf7565b612c0e83838361352a565b612c196000826129ad565b6001600160a01b0383166000908152600560205260408120805460019290612c42908490614ae9565b90915550506001600160a01b0382166000908152600560205260408120805460019290612c709084906149a2565b909155505060008181526004602052604080822080546001600160a01b0319166001600160a01b0386811691821790925591518493918716917fddf252ad1be2c89b69c2b068fc378daa952ba7f163c4a11628f55a4df523b3ef91a4505050565b600082815260208190526040902060010154612cf481612cef6129a3565b61363d565b610d3f83836133fc565b600081815b8551811015612da2576000868281518110612d2057612d2061498c565b60200260200101519050808311612d62576040805160208101859052908101829052606001604051602081830303815290604052805190602001209250612d8f565b60408051602081018390529081018490526060016040516020818303038152906040528051906020012092505b5080612d9a816149ba565b915050612d03565b509092149392505050565b60155460405163f2aab4b360e01b815230600482015260009161010090046001600160a01b03169063f2aab4b39060240160206040518083038186803b158015612df657600080fd5b505afa158015612e0a573d6000803e3d6000fd5b505050506040513d601f19601f82011682018060405250810190612e2e9190614910565b90506001600160a01b038316612e9757813414612e8d5760405162461bcd60e51b815260206004820152600f60248201527f76616c756520213d20616d6f756e7400000000000000000000000000000000006044820152606401610bf7565b610d3f81346136bb565b826001600160a01b03166323b872dd612eae6129a3565b6040516001600160e01b031960e084901b1681526001600160a01b039182166004820152908416602482015260448101859052606401602060405180830381600087803b158015612efe57600080fd5b505af1158015612f12573d6000803e3d6000fd5b505050506040513d601f19601f82011682018060405250810190612f369190614b30565b610d3f5760405162461bcd60e51b815260206004820152601a60248201527f6661696c656420746f207472616e73666572207061796d656e740000000000006044820152606401610bf7565b6129618282604051806020016040528060008152506137d4565b612fa46129a3565b6001600160a01b0316816001600160a01b03161461302a5760405162461bcd60e51b815260206004820152602f60248201527f416363657373436f6e74726f6c3a2063616e206f6e6c792072656e6f756e636560448201527f20726f6c657320666f722073656c6600000000000000000000000000000000006064820152608401610bf7565b6129618282613852565b6000612237836001600160a01b0384166138ef565b600c5460ff1661309b5760405162461bcd60e51b815260206004820152601460248201527f5061757361626c653a206e6f74207061757365640000000000000000000000006044820152606401610bf7565b600c805460ff191690557f5db9ee0a495bf2e6ff9c91a7834c1ba4fdd244a5e8aa4e537bd38aeae4b073aa6130ce6129a3565b6040516001600160a01b03909116815260200160405180910390a1565b60006130f682611fec565b90506131048160008461352a565b61310f6000836129ad565b6001600160a01b0381166000908152600560205260408120805460019290613138908490614ae9565b909155505060008281526004602052604080822080546001600160a01b0319169055518391906001600160a01b038416907fddf252ad1be2c89b69c2b068fc378daa952ba7f163c4a11628f55a4df523b3ef908390a45050565b600c5460ff16156131d85760405162461bcd60e51b815260206004820152601060248201526f14185d5cd8589b194e881c185d5cd95960821b6044820152606401610bf7565b600c805460ff191660011790557f62e78cea01bee320cd4e420270b5ea74000d11b0c9f74754ebdbfc544b05a2586130ce6129a3565b600061223783836139e2565b60606122378383604051806060016040528060278152602001614c9360279139613a0c565b61324a848484612b12565b61325684848484613ae0565b6127705760405162461bcd60e51b815260206004820152603260248201527f4552433732313a207472616e7366657220746f206e6f6e20455243373231526560448201527131b2b4bb32b91034b6b83632b6b2b73a32b960711b6064820152608401610bf7565b606060178054610aff906148d5565b6060816132f05750506040805180820190915260018152600360fc1b602082015290565b8160005b811561331a5780613304816149ba565b91506133139050600a83614978565b91506132f4565b60008167ffffffffffffffff811115613335576133356147b1565b6040519080825280601f01601f19166020018201604052801561335f576020820181803683370190505b5090505b8415612b0a57613374600183614ae9565b9150613381600a86614b7c565b61338c9060306149a2565b60f81b8183815181106133a1576133a161498c565b60200101906001600160f81b031916908160001a9053506133c3600a86614978565b9450613363565b6000610aea825490565b6000828152602081905260409020600101546133f281612cef6129a3565b610d3f8383613852565b6000828152602081815260408083206001600160a01b038516845290915290205460ff16612961576000828152602081815260408083206001600160a01b03851684529091529020805460ff191660011790556134576129a3565b6001600160a01b0316816001600160a01b0316837f2f8788117e7eff1d82e926ec794901d17c78024a50270940304540a733656f0d60405160405180910390a45050565b60008181526001830160205260408120546134e257508154600181810184556000848152602080822090930184905584548482528286019093526040902091909155610aea565b506000610aea565b60006001600160e01b031982166380ac58cd60e01b148061351b57506001600160e01b03198216635b5e139f60e01b145b80610aea5750610aea82613c3f565b613535838383613c64565b60155460ff16801561354f57506001600160a01b03831615155b801561356357506001600160a01b03821615155b15610d3f576001600160a01b03831660009081527f7c7a990f752005aea38438cc35abc5417bd322e6c964ec21d52573494225142c602052604090205460ff16806135e557506001600160a01b03821660009081527f7c7a990f752005aea38438cc35abc5417bd322e6c964ec21d52573494225142c602052604090205460ff165b610d3f5760405162461bcd60e51b815260206004820152602360248201527f7265737472696374656420746f205452414e534645525f524f4c4520686f6c6460448201526265727360e81b6064820152608401610bf7565b6000828152602081815260408083206001600160a01b038516845290915290205460ff1661296157613679816001600160a01b03166014613ce8565b613684836020613ce8565b604051602001613695929190614b90565b60408051601f198184030181529082905262461bcd60e51b8252610bf79160040161442a565b8047101561370b5760405162461bcd60e51b815260206004820152601d60248201527f416464726573733a20696e73756666696369656e742062616c616e63650000006044820152606401610bf7565b6000826001600160a01b03168260405160006040518083038185875af1925050503d8060008114613758576040519150601f19603f3d011682016040523d82523d6000602084013e61375d565b606091505b5050905080610d3f5760405162461bcd60e51b815260206004820152603a60248201527f416464726573733a20756e61626c6520746f2073656e642076616c75652c207260448201527f6563697069656e74206d617920686176652072657665727465640000000000006064820152608401610bf7565b6137de8383613e91565b6137eb6000848484613ae0565b610d3f5760405162461bcd60e51b815260206004820152603260248201527f4552433732313a207472616e7366657220746f206e6f6e20455243373231526560448201527131b2b4bb32b91034b6b83632b6b2b73a32b960711b6064820152608401610bf7565b6000828152602081815260408083206001600160a01b038516845290915290205460ff1615612961576000828152602081815260408083206001600160a01b03851684529091529020805460ff191690556138ab6129a3565b6001600160a01b0316816001600160a01b0316837ff6391f5c32d9c69d2a47ea670b442974b53935d1edc7fd64eb21e047a839171b60405160405180910390a45050565b600081815260018301602052604081205480156139d8576000613913600183614ae9565b855490915060009061392790600190614ae9565b905081811461398c5760008660000182815481106139475761394761498c565b906000526020600020015490508087600001848154811061396a5761396a61498c565b6000918252602080832090910192909255918252600188019052604090208390555b855486908061399d5761399d614c11565b600190038181906000526020600020016000905590558560010160008681526020019081526020016000206000905560019350505050610aea565b6000915050610aea565b60008260000182815481106139f9576139f961498c565b9060005260206000200154905092915050565b6060833b613a6b5760405162461bcd60e51b815260206004820152602660248201527f416464726573733a2064656c65676174652063616c6c20746f206e6f6e2d636f6044820152651b9d1c9858dd60d21b6064820152608401610bf7565b600080856001600160a01b031685604051613a869190614c27565b600060405180830381855af49150503d8060008114613ac1576040519150601f19603f3d011682016040523d82523d6000602084013e613ac6565b606091505b5091509150613ad6828286613fdf565b9695505050505050565b60006001600160a01b0384163b15613c3457836001600160a01b031663150b7a02613b096129a3565b8786866040518563ffffffff1660e01b8152600401613b2b9493929190614c43565b602060405180830381600087803b158015613b4557600080fd5b505af1925050508015613b75575060408051601f3d908101601f19168201909252613b7291810190614c75565b60015b613c1a573d808015613ba3576040519150601f19603f3d011682016040523d82523d6000602084013e613ba8565b606091505b508051613c125760405162461bcd60e51b815260206004820152603260248201527f4552433732313a207472616e7366657220746f206e6f6e20455243373231526560448201527131b2b4bb32b91034b6b83632b6b2b73a32b960711b6064820152608401610bf7565b805181602001fd5b6001600160e01b031916630a85bd0160e11b149050612b0a565b506001949350505050565b60006001600160e01b03198216635a05180f60e01b1480610aea5750610aea82614018565b613c6f83838361404d565b600c5460ff1615610d3f5760405162461bcd60e51b815260206004820152602b60248201527f4552433732315061757361626c653a20746f6b656e207472616e73666572207760448201527f68696c65207061757365640000000000000000000000000000000000000000006064820152608401610bf7565b60606000613cf7836002614943565b613d029060026149a2565b67ffffffffffffffff811115613d1a57613d1a6147b1565b6040519080825280601f01601f191660200182016040528015613d44576020820181803683370190505b509050600360fc1b81600081518110613d5f57613d5f61498c565b60200101906001600160f81b031916908160001a905350600f60fb1b81600181518110613d8e57613d8e61498c565b60200101906001600160f81b031916908160001a9053506000613db2846002614943565b613dbd9060016149a2565b90505b6001811115613e42577f303132333435363738396162636465660000000000000000000000000000000085600f1660108110613dfe57613dfe61498c565b1a60f81b828281518110613e1457613e1461498c565b60200101906001600160f81b031916908160001a90535060049490941c93613e3b81614b00565b9050613dc0565b5083156122375760405162461bcd60e51b815260206004820181905260248201527f537472696e67733a20686578206c656e67746820696e73756666696369656e746044820152606401610bf7565b6001600160a01b038216613ee75760405162461bcd60e51b815260206004820181905260248201527f4552433732313a206d696e7420746f20746865207a65726f20616464726573736044820152606401610bf7565b6000818152600460205260409020546001600160a01b031615613f4c5760405162461bcd60e51b815260206004820152601c60248201527f4552433732313a20746f6b656e20616c7265616479206d696e746564000000006044820152606401610bf7565b613f586000838361352a565b6001600160a01b0382166000908152600560205260408120805460019290613f819084906149a2565b909155505060008181526004602052604080822080546001600160a01b0319166001600160a01b03861690811790915590518392907fddf252ad1be2c89b69c2b068fc378daa952ba7f163c4a11628f55a4df523b3ef908290a45050565b60608315613fee575081612237565b825115613ffe5782518084602001fd5b8160405162461bcd60e51b8152600401610bf7919061442a565b60006001600160e01b03198216637965db0b60e01b1480610aea57506301ffc9a760e01b6001600160e01b0319831614610aea565b6001600160a01b0383166140a8576140a381600a80546000838152600b60205260408120829055600182018355919091527fc65a7bb8d6351c1cf70c95a316cc6a92839c986682d98bc35f958f4883f9d2a80155565b6140cb565b816001600160a01b0316836001600160a01b0316146140cb576140cb8382614105565b6001600160a01b0382166140e257610d3f816141a2565b826001600160a01b0316826001600160a01b031614610d3f57610d3f8282614251565b6000600161411284612077565b61411c9190614ae9565b60008381526009602052604090205490915080821461416f576001600160a01b03841660009081526008602090815260408083208584528252808320548484528184208190558352600990915290208190555b5060009182526009602090815260408084208490556001600160a01b039094168352600881528383209183525290812055565b600a546000906141b490600190614ae9565b6000838152600b6020526040812054600a80549394509092849081106141dc576141dc61498c565b9060005260206000200154905080600a83815481106141fd576141fd61498c565b6000918252602080832090910192909255828152600b9091526040808220849055858252812055600a80548061423557614235614c11565b6001900381819060005260206000200160009055905550505050565b600061425c83612077565b6001600160a01b039093166000908152600860209081526040808320868452825280832085905593825260099052919091209190915550565b8280546142a1906148d5565b90600052602060002090601f0160209004810192826142c35760008555614309565b82601f106142dc5782800160ff19823516178555614309565b82800160010185558215614309579182015b828111156143095782358255916020019190600101906142ee565b5061431592915061433a565b5090565b5080546000825560080290600052602060002090810190611cac919061434f565b5b80821115614315576000815560010161433b565b5b80821115614315576000808255600182018190556002820181905560038201819055600482018190556005820181905560068201556007810180546001600160a01b0319169055600801614350565b6001600160e01b031981168114611cac57600080fd5b6000602082840312156143c757600080fd5b81356122378161439f565b60005b838110156143ed5781810151838201526020016143d5565b838111156127705750506000910152565b600081518084526144168160208601602086016143d2565b601f01601f19169290920160200192915050565b60208152600061223760208301846143fe565b60006020828403121561444f57600080fd5b5035919050565b6001600160a01b0381168114611cac57600080fd5b6000806040838503121561447e57600080fd5b823561448981614456565b946020939093013593505050565b6000806000606084860312156144ac57600080fd5b83356144b781614456565b925060208401356144c781614456565b929592945050506040919091013590565b600080604083850312156144eb57600080fd5b50508035926020909101359150565b6000806040838503121561450d57600080fd5b82359150602083013561451f81614456565b809150509250929050565b60008083601f84011261453c57600080fd5b50813567ffffffffffffffff81111561455457600080fd5b6020830191508360208260051b850101111561456f57600080fd5b9250929050565b60008060006040848603121561458b57600080fd5b83359250602084013567ffffffffffffffff8111156145a957600080fd5b6145b58682870161452a565b9497909650939450505050565b600080602083850312156145d557600080fd5b823567ffffffffffffffff808211156145ed57600080fd5b818501915085601f83011261460157600080fd5b81358181111561461057600080fd5b86602082850101111561462257600080fd5b60209290920196919550909350505050565b6000806020838503121561464757600080fd5b823567ffffffffffffffff8082111561465f57600080fd5b818501915085601f83011261467357600080fd5b81358181111561468257600080fd5b8660208260081b850101111561462257600080fd5b600080602083850312156146aa57600080fd5b823567ffffffffffffffff8111156146c157600080fd5b6146cd8582860161452a565b90969095509350505050565b6000602082840312156146eb57600080fd5b813561223781614456565b8015158114611cac57600080fd5b60006020828403121561471657600080fd5b8135612237816146f6565b6000806040838503121561473457600080fd5b823561473f81614456565b9150602083013561451f816146f6565b6000602080830181845280855180835260408601915060408160051b870101925083870160005b828110156147a457603f198886030184526147928583516143fe565b94509285019290850190600101614776565b5092979650505050505050565b634e487b7160e01b600052604160045260246000fd5b600080600080608085870312156147dd57600080fd5b84356147e881614456565b935060208501356147f881614456565b925060408501359150606085013567ffffffffffffffff8082111561481c57600080fd5b818701915087601f83011261483057600080fd5b813581811115614842576148426147b1565b604051601f8201601f19908116603f0116810190838211818310171561486a5761486a6147b1565b816040528281528a602084870101111561488357600080fd5b82602086016020830137600060208483010152809550505050505092959194509250565b600080604083850312156148ba57600080fd5b82356148c581614456565b9150602083013561451f81614456565b600181811c908216806148e957607f821691505b6020821081141561490a57634e487b7160e01b600052602260045260246000fd5b50919050565b60006020828403121561492257600080fd5b815161223781614456565b634e487b7160e01b600052601160045260246000fd5b600081600019048311821515161561495d5761495d61492d565b500290565b634e487b7160e01b600052601260045260246000fd5b60008261498757614987614962565b500490565b634e487b7160e01b600052603260045260246000fd5b600082198211156149b5576149b561492d565b500190565b60006000198214156149ce576149ce61492d565b5060010190565b60208152816020820152818360408301376000818301604090810191909152601f909201601f19160101919050565b60006020808301818452808554808352604092508286019150866000528360002060005b82811015614a955781548452600180830154878601526002830154868601526003830154606086015260048301546080860152600583015460a0860152600683015460c086015260078301546001600160a01b031660e08601526101009094019360089092019101614a28565b5091979650505050505050565b6000808335601e19843603018112614ab957600080fd5b83018035915067ffffffffffffffff821115614ad457600080fd5b60200191503681900382131561456f57600080fd5b600082821015614afb57614afb61492d565b500390565b600081614b0f57614b0f61492d565b506000190190565b600060208284031215614b2957600080fd5b5051919050565b600060208284031215614b4257600080fd5b8151612237816146f6565b60008351614b5f8184602088016143d2565b835190830190614b738183602088016143d2565b01949350505050565b600082614b8b57614b8b614962565b500690565b7f416363657373436f6e74726f6c3a206163636f756e7420000000000000000000815260008351614bc88160178501602088016143d2565b7f206973206d697373696e6720726f6c65200000000000000000000000000000006017918401918201528351614c058160288401602088016143d2565b01602801949350505050565b634e487b7160e01b600052603160045260246000fd5b60008251614c398184602087016143d2565b9190910192915050565b60006001600160a01b03808716835280861660208401525083604083015260806060830152613ad660808301846143fe565b600060208284031215614c8757600080fd5b81516122378161439f56fe416464726573733a206c6f772d6c6576656c2064656c65676174652063616c6c206661696c6564a164736f6c6343000809000a",
  "linkReferences": {},
  "deployedLinkReferences": {}
}