{
  "_format": "hh-sol-artifact-1",
  "contractName": "LazyNFT",
  "sourceName": "contracts/LazyNFT.sol",
  "abi": [
    {
      "inputs": [
        {
          "internalType": "address payable",
          "name": "_controlCenter",
          "type": "address"
        },
        {
          "internalType": "string",
          "name": "_name",
          "type": "string"
        },
        {
          "internalType": "string",
          "name": "_symbol",
          "type": "string"
        },
        {
          "internalType": "address",
          "name": "_trustedForwarder",
          "type": "address"
        },
        {
          "internalType": "string",
          "name": "_contractUri",
          "type": "string"
        },
        {
          "internalType": "string",
          "name": "_baseTokenUri",
          "type": "string"
        },
        {
          "internalType": "uint256",
          "name": "maxSupply",
          "type": "uint256"
        }
      ],
      "stateMutability": "nonpayable",
      "type": "constructor"
    },
    {
      "anonymous": false,
      "inputs": [
        {
          "indexed": true,
          "internalType": "address",
          "name": "owner",
          "type": "address"
        },
        {
          "indexed": true,
          "internalType": "address",
          "name": "approved",
          "type": "address"
        },
        {
          "indexed": true,
          "internalType": "uint256",
          "name": "tokenId",
          "type": "uint256"
        }
      ],
      "name": "Approval",
      "type": "event"
    },
    {
      "anonymous": false,
      "inputs": [
        {
          "indexed": true,
          "internalType": "address",
          "name": "owner",
          "type": "address"
        },
        {
          "indexed": true,
          "internalType": "address",
          "name": "operator",
          "type": "address"
        },
        {
          "indexed": false,
          "internalType": "bool",
          "name": "approved",
          "type": "bool"
        }
      ],
      "name": "ApprovalForAll",
      "type": "event"
    },
    {
      "anonymous": false,
      "inputs": [
        {
          "indexed": false,
          "internalType": "string",
          "name": "uri",
          "type": "string"
        }
      ],
      "name": "BaseTokenURIUpdated",
      "type": "event"
    },
    {
      "anonymous": false,
      "inputs": [
        {
          "indexed": true,
          "internalType": "address",
          "name": "to",
          "type": "address"
        },
        {
          "indexed": false,
          "internalType": "uint256",
          "name": "startTokenId",
          "type": "uint256"
        },
        {
          "indexed": false,
          "internalType": "uint256",
          "name": "quantity",
          "type": "uint256"
        },
        {
          "indexed": false,
          "internalType": "uint256",
          "name": "mintConditionIndex",
          "type": "uint256"
        }
      ],
      "name": "Claimed",
      "type": "event"
    },
    {
      "anonymous": false,
      "inputs": [
        {
          "indexed": true,
          "internalType": "address",
          "name": "to",
          "type": "address"
        },
        {
          "indexed": false,
          "internalType": "uint256",
          "name": "amount",
          "type": "uint256"
        }
      ],
      "name": "FundsWithdrawn",
      "type": "event"
    },
    {
      "anonymous": false,
      "inputs": [
        {
          "indexed": false,
          "internalType": "address",
          "name": "account",
          "type": "address"
        }
      ],
      "name": "Paused",
      "type": "event"
    },
    {
      "anonymous": false,
      "inputs": [
        {
          "components": [
            {
              "internalType": "uint256",
              "name": "startTimestamp",
              "type": "uint256"
            },
            {
              "internalType": "uint256",
              "name": "maxMintSupply",
              "type": "uint256"
            },
            {
              "internalType": "uint256",
              "name": "currentMintSupply",
              "type": "uint256"
            },
            {
              "internalType": "uint256",
              "name": "quantityLimitPerTransaction",
              "type": "uint256"
            },
            {
              "internalType": "uint256",
              "name": "waitTimeSecondsLimitPerTransaction",
              "type": "uint256"
            },
            {
              "internalType": "uint256",
              "name": "pricePerToken",
              "type": "uint256"
            },
            {
              "internalType": "address",
              "name": "currency",
              "type": "address"
            },
            {
              "internalType": "bytes32",
              "name": "merkleRoot",
              "type": "bytes32"
            }
          ],
          "indexed": false,
          "internalType": "struct LazyNFT.PublicMintCondition[]",
          "name": "mintConditions",
          "type": "tuple[]"
        }
      ],
      "name": "PublicMintConditionUpdated",
      "type": "event"
    },
    {
      "anonymous": false,
      "inputs": [
        {
          "indexed": false,
          "internalType": "bool",
          "name": "transferable",
          "type": "bool"
        }
      ],
      "name": "RestrictedTransferUpdated",
      "type": "event"
    },
    {
      "anonymous": false,
      "inputs": [
        {
          "indexed": true,
          "internalType": "bytes32",
          "name": "role",
          "type": "bytes32"
        },
        {
          "indexed": true,
          "internalType": "bytes32",
          "name": "previousAdminRole",
          "type": "bytes32"
        },
        {
          "indexed": true,
          "internalType": "bytes32",
          "name": "newAdminRole",
          "type": "bytes32"
        }
      ],
      "name": "RoleAdminChanged",
      "type": "event"
    },
    {
      "anonymous": false,
      "inputs": [
        {
          "indexed": true,
          "internalType": "bytes32",
          "name": "role",
          "type": "bytes32"
        },
        {
          "indexed": true,
          "internalType": "address",
          "name": "account",
          "type": "address"
        },
        {
          "indexed": true,
          "internalType": "address",
          "name": "sender",
          "type": "address"
        }
      ],
      "name": "RoleGranted",
      "type": "event"
    },
    {
      "anonymous": false,
      "inputs": [
        {
          "indexed": true,
          "internalType": "bytes32",
          "name": "role",
          "type": "bytes32"
        },
        {
          "indexed": true,
          "internalType": "address",
          "name": "account",
          "type": "address"
        },
        {
          "indexed": true,
          "internalType": "address",
          "name": "sender",
          "type": "address"
        }
      ],
      "name": "RoleRevoked",
      "type": "event"
    },
    {
      "anonymous": false,
      "inputs": [
        {
          "indexed": false,
          "internalType": "uint256",
          "name": "royaltyBps",
          "type": "uint256"
        }
      ],
      "name": "RoyaltyUpdated",
      "type": "event"
    },
    {
      "anonymous": false,
      "inputs": [
        {
          "indexed": false,
          "internalType": "uint256",
          "name": "supply",
          "type": "uint256"
        }
      ],
      "name": "TotalSupplyUpdated",
      "type": "event"
    },
    {
      "anonymous": false,
      "inputs": [
        {
          "indexed": true,
          "internalType": "address",
          "name": "from",
          "type": "address"
        },
        {
          "indexed": true,
          "internalType": "address",
          "name": "to",
          "type": "address"
        },
        {
          "indexed": true,
          "internalType": "uint256",
          "name": "tokenId",
          "type": "uint256"
        }
      ],
      "name": "Transfer",
      "type": "event"
    },
    {
      "anonymous": false,
      "inputs": [
        {
          "indexed": false,
          "internalType": "address",
          "name": "account",
          "type": "address"
        }
      ],
      "name": "Unpaused",
      "type": "event"
    },
    {
      "inputs": [],
      "name": "DEFAULT_ADMIN_ROLE",
      "outputs": [
        {
          "internalType": "bytes32",
          "name": "",
          "type": "bytes32"
        }
      ],
      "stateMutability": "view",
      "type": "function"
    },
    {
      "inputs": [],
      "name": "MINTER_ROLE",
      "outputs": [
        {
          "internalType": "bytes32",
          "name": "",
          "type": "bytes32"
        }
      ],
      "stateMutability": "view",
      "type": "function"
    },
    {
      "inputs": [],
      "name": "PAUSER_ROLE",
      "outputs": [
        {
          "internalType": "bytes32",
          "name": "",
          "type": "bytes32"
        }
      ],
      "stateMutability": "view",
      "type": "function"
    },
    {
      "inputs": [],
      "name": "TRANSFER_ROLE",
      "outputs": [
        {
          "internalType": "bytes32",
          "name": "",
          "type": "bytes32"
        }
      ],
      "stateMutability": "view",
      "type": "function"
    },
    {
      "inputs": [
        {
          "internalType": "address",
          "name": "to",
          "type": "address"
        },
        {
          "internalType": "uint256",
          "name": "tokenId",
          "type": "uint256"
        }
      ],
      "name": "approve",
      "outputs": [],
      "stateMutability": "nonpayable",
      "type": "function"
    },
    {
      "inputs": [
        {
          "internalType": "address",
          "name": "owner",
          "type": "address"
        }
      ],
      "name": "balanceOf",
      "outputs": [
        {
          "internalType": "uint256",
          "name": "",
          "type": "uint256"
        }
      ],
      "stateMutability": "view",
      "type": "function"
    },
    {
      "inputs": [
        {
          "internalType": "uint256",
          "name": "tokenId",
          "type": "uint256"
        }
      ],
      "name": "burn",
      "outputs": [],
      "stateMutability": "nonpayable",
      "type": "function"
    },
    {
      "inputs": [
        {
          "internalType": "uint256",
          "name": "quantity",
          "type": "uint256"
        },
        {
          "internalType": "bytes32[]",
          "name": "proofs",
          "type": "bytes32[]"
        }
      ],
      "name": "claim",
      "outputs": [],
      "stateMutability": "payable",
      "type": "function"
    },
    {
      "inputs": [],
      "name": "contractURI",
      "outputs": [
        {
          "internalType": "string",
          "name": "",
          "type": "string"
        }
      ],
      "stateMutability": "view",
      "type": "function"
    },
    {
      "inputs": [
        {
          "internalType": "uint256",
          "name": "tokenId",
          "type": "uint256"
        }
      ],
      "name": "getApproved",
      "outputs": [
        {
          "internalType": "address",
          "name": "",
          "type": "address"
        }
      ],
      "stateMutability": "view",
      "type": "function"
    },
    {
      "inputs": [],
      "name": "getLastStartedMintConditionIndex",
      "outputs": [
        {
          "internalType": "uint256",
          "name": "",
          "type": "uint256"
        }
      ],
      "stateMutability": "view",
      "type": "function"
    },
    {
      "inputs": [
        {
          "internalType": "bytes32",
          "name": "role",
          "type": "bytes32"
        }
      ],
      "name": "getRoleAdmin",
      "outputs": [
        {
          "internalType": "bytes32",
          "name": "",
          "type": "bytes32"
        }
      ],
      "stateMutability": "view",
      "type": "function"
    },
    {
      "inputs": [
        {
          "internalType": "bytes32",
          "name": "role",
          "type": "bytes32"
        },
        {
          "internalType": "uint256",
          "name": "index",
          "type": "uint256"
        }
      ],
      "name": "getRoleMember",
      "outputs": [
        {
          "internalType": "address",
          "name": "",
          "type": "address"
        }
      ],
      "stateMutability": "view",
      "type": "function"
    },
    {
      "inputs": [
        {
          "internalType": "bytes32",
          "name": "role",
          "type": "bytes32"
        }
      ],
      "name": "getRoleMemberCount",
      "outputs": [
        {
          "internalType": "uint256",
          "name": "",
          "type": "uint256"
        }
      ],
      "stateMutability": "view",
      "type": "function"
    },
    {
      "inputs": [
        {
          "internalType": "bytes32",
          "name": "role",
          "type": "bytes32"
        },
        {
          "internalType": "address",
          "name": "account",
          "type": "address"
        }
      ],
      "name": "grantRole",
      "outputs": [],
      "stateMutability": "nonpayable",
      "type": "function"
    },
    {
      "inputs": [
        {
          "internalType": "bytes32",
          "name": "role",
          "type": "bytes32"
        },
        {
          "internalType": "address",
          "name": "account",
          "type": "address"
        }
      ],
      "name": "hasRole",
      "outputs": [
        {
          "internalType": "bool",
          "name": "",
          "type": "bool"
        }
      ],
      "stateMutability": "view",
      "type": "function"
    },
    {
      "inputs": [
        {
          "internalType": "address",
          "name": "owner",
          "type": "address"
        },
        {
          "internalType": "address",
          "name": "operator",
          "type": "address"
        }
      ],
      "name": "isApprovedForAll",
      "outputs": [
        {
          "internalType": "bool",
          "name": "",
          "type": "bool"
        }
      ],
      "stateMutability": "view",
      "type": "function"
    },
    {
      "inputs": [
        {
          "internalType": "address",
          "name": "forwarder",
          "type": "address"
        }
      ],
      "name": "isTrustedForwarder",
      "outputs": [
        {
          "internalType": "bool",
          "name": "",
          "type": "bool"
        }
      ],
      "stateMutability": "view",
      "type": "function"
    },
    {
      "inputs": [
        {
          "internalType": "uint256",
          "name": "amount",
          "type": "uint256"
        }
      ],
      "name": "lazyMintAmount",
      "outputs": [],
      "stateMutability": "nonpayable",
      "type": "function"
    },
    {
      "inputs": [
        {
          "internalType": "string[]",
          "name": "_uris",
          "type": "string[]"
        }
      ],
      "name": "lazyMintBatch",
      "outputs": [],
      "stateMutability": "nonpayable",
      "type": "function"
    },
    {
      "inputs": [],
      "name": "maxTotalSupply",
      "outputs": [
        {
          "internalType": "uint256",
          "name": "",
          "type": "uint256"
        }
      ],
      "stateMutability": "view",
      "type": "function"
    },
    {
      "inputs": [
        {
          "internalType": "uint256",
          "name": "",
          "type": "uint256"
        }
      ],
      "name": "mintConditions",
      "outputs": [
        {
          "internalType": "uint256",
          "name": "startTimestamp",
          "type": "uint256"
        },
        {
          "internalType": "uint256",
          "name": "maxMintSupply",
          "type": "uint256"
        },
        {
          "internalType": "uint256",
          "name": "currentMintSupply",
          "type": "uint256"
        },
        {
          "internalType": "uint256",
          "name": "quantityLimitPerTransaction",
          "type": "uint256"
        },
        {
          "internalType": "uint256",
          "name": "waitTimeSecondsLimitPerTransaction",
          "type": "uint256"
        },
        {
          "internalType": "uint256",
          "name": "pricePerToken",
          "type": "uint256"
        },
        {
          "internalType": "address",
          "name": "currency",
          "type": "address"
        },
        {
          "internalType": "bytes32",
          "name": "merkleRoot",
          "type": "bytes32"
        }
      ],
      "stateMutability": "view",
      "type": "function"
    },
    {
      "inputs": [
        {
          "internalType": "bytes[]",
          "name": "data",
          "type": "bytes[]"
        }
      ],
      "name": "multicall",
      "outputs": [
        {
          "internalType": "bytes[]",
          "name": "results",
          "type": "bytes[]"
        }
      ],
      "stateMutability": "nonpayable",
      "type": "function"
    },
    {
      "inputs": [],
      "name": "name",
      "outputs": [
        {
          "internalType": "string",
          "name": "",
          "type": "string"
        }
      ],
      "stateMutability": "view",
      "type": "function"
    },
    {
      "inputs": [
        {
          "internalType": "address",
          "name": "",
          "type": "address"
        },
        {
          "internalType": "uint256",
          "name": "",
          "type": "uint256"
        }
      ],
      "name": "nextMintTimestampByCondition",
      "outputs": [
        {
          "internalType": "uint256",
          "name": "",
          "type": "uint256"
        }
      ],
      "stateMutability": "view",
      "type": "function"
    },
    {
      "inputs": [],
      "name": "nextMintTokenId",
      "outputs": [
        {
          "internalType": "uint256",
          "name": "",
          "type": "uint256"
        }
      ],
      "stateMutability": "view",
      "type": "function"
    },
    {
      "inputs": [],
      "name": "nextTokenId",
      "outputs": [
        {
          "internalType": "uint256",
          "name": "",
          "type": "uint256"
        }
      ],
      "stateMutability": "view",
      "type": "function"
    },
    {
      "inputs": [
        {
          "internalType": "uint256",
          "name": "tokenId",
          "type": "uint256"
        }
      ],
      "name": "ownerOf",
      "outputs": [
        {
          "internalType": "address",
          "name": "",
          "type": "address"
        }
      ],
      "stateMutability": "view",
      "type": "function"
    },
    {
      "inputs": [],
      "name": "pause",
      "outputs": [],
      "stateMutability": "nonpayable",
      "type": "function"
    },
    {
      "inputs": [],
      "name": "paused",
      "outputs": [
        {
          "internalType": "bool",
          "name": "",
          "type": "bool"
        }
      ],
      "stateMutability": "view",
      "type": "function"
    },
    {
      "inputs": [
        {
          "internalType": "bytes32",
          "name": "role",
          "type": "bytes32"
        },
        {
          "internalType": "address",
          "name": "account",
          "type": "address"
        }
      ],
      "name": "renounceRole",
      "outputs": [],
      "stateMutability": "nonpayable",
      "type": "function"
    },
    {
      "inputs": [
        {
          "internalType": "bytes32",
          "name": "role",
          "type": "bytes32"
        },
        {
          "internalType": "address",
          "name": "account",
          "type": "address"
        }
      ],
      "name": "revokeRole",
      "outputs": [],
      "stateMutability": "nonpayable",
      "type": "function"
    },
    {
      "inputs": [],
      "name": "royaltyBps",
      "outputs": [
        {
          "internalType": "uint256",
          "name": "",
          "type": "uint256"
        }
      ],
      "stateMutability": "view",
      "type": "function"
    },
    {
      "inputs": [
        {
          "internalType": "uint256",
          "name": "",
          "type": "uint256"
        },
        {
          "internalType": "uint256",
          "name": "salePrice",
          "type": "uint256"
        }
      ],
      "name": "royaltyInfo",
      "outputs": [
        {
          "internalType": "address",
          "name": "receiver",
          "type": "address"
        },
        {
          "internalType": "uint256",
          "name": "royaltyAmount",
          "type": "uint256"
        }
      ],
      "stateMutability": "view",
      "type": "function"
    },
    {
      "inputs": [
        {
          "internalType": "address",
          "name": "from",
          "type": "address"
        },
        {
          "internalType": "address",
          "name": "to",
          "type": "address"
        },
        {
          "internalType": "uint256",
          "name": "tokenId",
          "type": "uint256"
        }
      ],
      "name": "safeTransferFrom",
      "outputs": [],
      "stateMutability": "nonpayable",
      "type": "function"
    },
    {
      "inputs": [
        {
          "internalType": "address",
          "name": "from",
          "type": "address"
        },
        {
          "internalType": "address",
          "name": "to",
          "type": "address"
        },
        {
          "internalType": "uint256",
          "name": "tokenId",
          "type": "uint256"
        },
        {
          "internalType": "bytes",
          "name": "_data",
          "type": "bytes"
        }
      ],
      "name": "safeTransferFrom",
      "outputs": [],
      "stateMutability": "nonpayable",
      "type": "function"
    },
    {
      "inputs": [
        {
          "internalType": "address",
          "name": "operator",
          "type": "address"
        },
        {
          "internalType": "bool",
          "name": "approved",
          "type": "bool"
        }
      ],
      "name": "setApprovalForAll",
      "outputs": [],
      "stateMutability": "nonpayable",
      "type": "function"
    },
    {
      "inputs": [
        {
          "internalType": "string",
          "name": "_uri",
          "type": "string"
        }
      ],
      "name": "setBaseTokenURI",
      "outputs": [],
      "stateMutability": "nonpayable",
      "type": "function"
    },
    {
      "inputs": [
        {
          "internalType": "string",
          "name": "_URI",
          "type": "string"
        }
      ],
      "name": "setContractURI",
      "outputs": [],
      "stateMutability": "nonpayable",
      "type": "function"
    },
    {
      "inputs": [
        {
          "internalType": "uint256",
          "name": "maxSupply",
          "type": "uint256"
        }
      ],
      "name": "setMaxTotalSupply",
      "outputs": [],
      "stateMutability": "nonpayable",
      "type": "function"
    },
    {
      "inputs": [
        {
          "components": [
            {
              "internalType": "uint256",
              "name": "startTimestamp",
              "type": "uint256"
            },
            {
              "internalType": "uint256",
              "name": "maxMintSupply",
              "type": "uint256"
            },
            {
              "internalType": "uint256",
              "name": "currentMintSupply",
              "type": "uint256"
            },
            {
              "internalType": "uint256",
              "name": "quantityLimitPerTransaction",
              "type": "uint256"
            },
            {
              "internalType": "uint256",
              "name": "waitTimeSecondsLimitPerTransaction",
              "type": "uint256"
            },
            {
              "internalType": "uint256",
              "name": "pricePerToken",
              "type": "uint256"
            },
            {
              "internalType": "address",
              "name": "currency",
              "type": "address"
            },
            {
              "internalType": "bytes32",
              "name": "merkleRoot",
              "type": "bytes32"
            }
          ],
          "internalType": "struct LazyNFT.PublicMintCondition[]",
          "name": "conditions",
          "type": "tuple[]"
        }
      ],
      "name": "setPublicMintConditions",
      "outputs": [],
      "stateMutability": "nonpayable",
      "type": "function"
    },
    {
      "inputs": [
        {
          "internalType": "bool",
          "name": "_restrictedTransfer",
          "type": "bool"
        }
      ],
      "name": "setRestrictedTransfer",
      "outputs": [],
      "stateMutability": "nonpayable",
      "type": "function"
    },
    {
      "inputs": [
        {
          "internalType": "uint256",
          "name": "_royaltyBps",
          "type": "uint256"
        }
      ],
      "name": "setRoyaltyBps",
      "outputs": [],
      "stateMutability": "nonpayable",
      "type": "function"
    },
    {
      "inputs": [
        {
          "internalType": "bytes4",
          "name": "interfaceId",
          "type": "bytes4"
        }
      ],
      "name": "supportsInterface",
      "outputs": [
        {
          "internalType": "bool",
          "name": "",
          "type": "bool"
        }
      ],
      "stateMutability": "view",
      "type": "function"
    },
    {
      "inputs": [],
      "name": "symbol",
      "outputs": [
        {
          "internalType": "string",
          "name": "",
          "type": "string"
        }
      ],
      "stateMutability": "view",
      "type": "function"
    },
    {
      "inputs": [
        {
          "internalType": "uint256",
          "name": "index",
          "type": "uint256"
        }
      ],
      "name": "tokenByIndex",
      "outputs": [
        {
          "internalType": "uint256",
          "name": "",
          "type": "uint256"
        }
      ],
      "stateMutability": "view",
      "type": "function"
    },
    {
      "inputs": [
        {
          "internalType": "address",
          "name": "owner",
          "type": "address"
        },
        {
          "internalType": "uint256",
          "name": "index",
          "type": "uint256"
        }
      ],
      "name": "tokenOfOwnerByIndex",
      "outputs": [
        {
          "internalType": "uint256",
          "name": "",
          "type": "uint256"
        }
      ],
      "stateMutability": "view",
      "type": "function"
    },
    {
      "inputs": [
        {
          "internalType": "uint256",
          "name": "tokenId",
          "type": "uint256"
        }
      ],
      "name": "tokenURI",
      "outputs": [
        {
          "internalType": "string",
          "name": "",
          "type": "string"
        }
      ],
      "stateMutability": "view",
      "type": "function"
    },
    {
      "inputs": [],
      "name": "totalSupply",
      "outputs": [
        {
          "internalType": "uint256",
          "name": "",
          "type": "uint256"
        }
      ],
      "stateMutability": "view",
      "type": "function"
    },
    {
      "inputs": [
        {
          "internalType": "address",
          "name": "from",
          "type": "address"
        },
        {
          "internalType": "address",
          "name": "to",
          "type": "address"
        },
        {
          "internalType": "uint256",
          "name": "tokenId",
          "type": "uint256"
        }
      ],
      "name": "transferFrom",
      "outputs": [],
      "stateMutability": "nonpayable",
      "type": "function"
    },
    {
      "inputs": [],
      "name": "transfersRestricted",
      "outputs": [
        {
          "internalType": "bool",
          "name": "",
          "type": "bool"
        }
      ],
      "stateMutability": "view",
      "type": "function"
    },
    {
      "inputs": [],
      "name": "unpause",
      "outputs": [],
      "stateMutability": "nonpayable",
      "type": "function"
    },
    {
      "inputs": [],
      "name": "withdrawFunds",
      "outputs": [],
      "stateMutability": "nonpayable",
      "type": "function"
    }
  ],
  "bytecode": "0x60806040523480156200001157600080fd5b506040516200559b3803806200559b8339810160408190526200003491620004e5565b83868681600290805190602001906200004f92919062000355565b5080516200006590600390602084019062000355565b5050600c80546001600160a81b0319166101006001600160a01b039485168102919091179091556001600d55600e8054610100600160a81b031916938b1690910292909217909155508251620000c390601490602086019062000355565b508151620000d990601590602085019062000355565b50600f819055620000f56000620000ef6200018f565b620001ab565b620001247f9f2df0fed2c77648de5860a4cc508cd0818c85b8b8a1ab4ceeef8d981c8956a6620000ef6200018f565b620001537f65d7a28e3265b37a6474929f336521b332c1681b933f6cb9f3376673440d862a620000ef6200018f565b620001827f8502233096d909befbda0999bb8ea2f3a6be3c138b9fbf003752a4c8bce86f6c620000ef6200018f565b505050505050506200060b565b6000620001a6620001ee60201b62002cd51760201c565b905090565b620001c282826200022d60201b62002d071760201c565b6000828152600160209081526040909120620001e991839062002d156200023d821b17901c565b505050565b600c546000906001600160a01b036101009091041633141562000218575060131936013560601c90565b620001a66200025d60201b62002d2a1760201c565b62000239828262000261565b5050565b600062000254836001600160a01b03841662000303565b90505b92915050565b3390565b6000828152602081815260408083206001600160a01b038516845290915290205460ff1662000239576000828152602081815260408083206001600160a01b03851684529091529020805460ff19166001179055620002bf6200018f565b6001600160a01b0316816001600160a01b0316837f2f8788117e7eff1d82e926ec794901d17c78024a50270940304540a733656f0d60405160405180910390a45050565b60008181526001830160205260408120546200034c5750815460018181018455600084815260208082209093018490558454848252828601909352604090209190915562000257565b50600062000257565b8280546200036390620005ce565b90600052602060002090601f016020900481019282620003875760008555620003d2565b82601f10620003a257805160ff1916838001178555620003d2565b82800160010185558215620003d2579182015b82811115620003d2578251825591602001919060010190620003b5565b50620003e0929150620003e4565b5090565b5b80821115620003e05760008155600101620003e5565b80516001600160a01b03811681146200041357600080fd5b919050565b634e487b7160e01b600052604160045260246000fd5b600082601f8301126200044057600080fd5b81516001600160401b03808211156200045d576200045d62000418565b604051601f8301601f19908116603f0116810190828211818310171562000488576200048862000418565b81604052838152602092508683858801011115620004a557600080fd5b600091505b83821015620004c95785820183015181830184015290820190620004aa565b83821115620004db5760008385830101525b9695505050505050565b600080600080600080600060e0888a0312156200050157600080fd5b6200050c88620003fb565b60208901519097506001600160401b03808211156200052a57600080fd5b620005388b838c016200042e565b975060408a01519150808211156200054f57600080fd5b6200055d8b838c016200042e565b96506200056d60608b01620003fb565b955060808a01519150808211156200058457600080fd5b620005928b838c016200042e565b945060a08a0151915080821115620005a957600080fd5b50620005b88a828b016200042e565b92505060c0880151905092959891949750929550565b600181811c90821680620005e357607f821691505b602082108114156200060557634e487b7160e01b600052602260045260246000fd5b50919050565b614f80806200061b6000396000f3fe60806040526004361061034a5760003560e01c80635c975abb116101bb578063a22cb465116100f7578063d539139311610095578063e88fbd411161006f578063e88fbd41146109ec578063e8a3d48514610a02578063e985e9c514610a17578063fd59855014610a6057600080fd5b8063d539139314610964578063d547741f14610998578063e63ab1e9146109b857600080fd5b8063b88d4fde116100d1578063b88d4fde146108ee578063c63adb2b1461090e578063c87b56dd14610924578063ca15c8731461094457600080fd5b8063a22cb46514610881578063ac9650d8146108a1578063b7cdd0bc146108ce57600080fd5b80638456cb591161016457806391d148541161013e57806391d14854146107f3578063938e3d7b1461083757806395d89b4114610857578063a217fddf1461086c57600080fd5b80638456cb591461079e5780638ba448c2146107b35780639010d07c146107d357600080fd5b806370a082311161019557806370a082311461074e57806375794a3c1461076e5780638423df791461078457600080fd5b80635c975abb146107015780635da53d58146107195780636352211e1461072e57600080fd5b80632ab4d0521161028a5780633f3e4c111161023357806342966c681161020d57806342966c681461066d5780634ce40a321461068d5780634f6ccce7146106ad578063572b6c05146106cd57600080fd5b80633f3e4c11146106185780633f4ba83a1461063857806342842e0e1461064d57600080fd5b80632f745c59116102645780632f745c59146105b857806330176e13146105d857806336568abe146105f857600080fd5b80632ab4d0521461056f5780632f2ff15d146105855780632f52ebb7146105a557600080fd5b80631edab081116102f757806323b872dd116102d157806323b872dd146104cb57806324600fc3146104eb578063248a9ca3146105005780632a55205a1461053057600080fd5b80631edab0811461043f5780631f72d83114610477578063206b60f91461049757600080fd5b8063095ea7b311610328578063095ea7b3146103de5780630a5d64011461040057806318160ddd1461042057600080fd5b806301ffc9a71461034f57806306fdde0314610384578063081812fc146103a6575b600080fd5b34801561035b57600080fd5b5061036f61036a36600461463d565b610ac4565b60405190151581526020015b60405180910390f35b34801561039057600080fd5b50610399610af0565b60405161037b91906146b2565b3480156103b257600080fd5b506103c66103c13660046146c5565b610b82565b6040516001600160a01b03909116815260200161037b565b3480156103ea57600080fd5b506103fe6103f93660046146f3565b610c1c565b005b34801561040c57600080fd5b506103fe61041b36600461471f565b610d44565b34801561042c57600080fd5b50600a545b60405190815260200161037b565b34801561044b57600080fd5b5061043161045a3660046146f3565b601360209081526000928352604080842090915290825290205481565b34801561048357600080fd5b506103fe6104923660046146c5565b61117a565b3480156104a357600080fd5b506104317f8502233096d909befbda0999bb8ea2f3a6be3c138b9fbf003752a4c8bce86f6c81565b3480156104d757600080fd5b506103fe6104e6366004614794565b6112f7565b3480156104f757600080fd5b506103fe611379565b34801561050c57600080fd5b5061043161051b3660046146c5565b60009081526020819052604090206001015490565b34801561053c57600080fd5b5061055061054b3660046147d5565b611637565b604080516001600160a01b03909316835260208301919091520161037b565b34801561057b57600080fd5b50610431600f5481565b34801561059157600080fd5b506103fe6105a03660046147f7565b611776565b6103fe6105b3366004614873565b611798565b3480156105c457600080fd5b506104316105d33660046146f3565b611d5e565b3480156105e457600080fd5b506103fe6105f33660046148bf565b611e06565b34801561060457600080fd5b506103fe6106133660046147f7565b611e9d565b34801561062457600080fd5b506103fe6106333660046146c5565b611ebf565b34801561064457600080fd5b506103fe611f41565b34801561065957600080fd5b506103fe610668366004614794565b611fc3565b34801561067957600080fd5b506103fe6106883660046146c5565b611fde565b34801561069957600080fd5b506103fe6106a836600461491f565b612067565b3480156106b957600080fd5b506104316106c83660046146c5565b612203565b3480156106d957600080fd5b5061036f6106e8366004614961565b600c5461010090046001600160a01b0390811691161490565b34801561070d57600080fd5b50600c5460ff1661036f565b34801561072557600080fd5b506104316122a7565b34801561073a57600080fd5b506103c66107493660046146c5565b6123a4565b34801561075a57600080fd5b50610431610769366004614961565b61242f565b34801561077a57600080fd5b5061043160105481565b34801561079057600080fd5b50600e5461036f9060ff1681565b3480156107aa57600080fd5b506103fe6124c9565b3480156107bf57600080fd5b506103fe6107ce36600461498c565b612549565b3480156107df57600080fd5b506103c66107ee3660046147d5565b6125d7565b3480156107ff57600080fd5b5061036f61080e3660046147f7565b6000918252602082815260408084206001600160a01b0393909316845291905290205460ff1690565b34801561084357600080fd5b506103fe6108523660046148bf565b6125f6565b34801561086357600080fd5b50610399612751565b34801561087857600080fd5b50610431600081565b34801561088d57600080fd5b506103fe61089c3660046149a9565b612760565b3480156108ad57600080fd5b506108c16108bc36600461491f565b612862565b60405161037b91906149d7565b3480156108da57600080fd5b506103fe6108e93660046146c5565b612957565b3480156108fa57600080fd5b506103fe610909366004614a4f565b612a9a565b34801561091a57600080fd5b5061043160175481565b34801561093057600080fd5b5061039961093f3660046146c5565b612b23565b34801561095057600080fd5b5061043161095f3660046146c5565b612c43565b34801561097057600080fd5b506104317f9f2df0fed2c77648de5860a4cc508cd0818c85b8b8a1ab4ceeef8d981c8956a681565b3480156109a457600080fd5b506103fe6109b33660046147f7565b612c5a565b3480156109c457600080fd5b506104317f65d7a28e3265b37a6474929f336521b332c1681b933f6cb9f3376673440d862a81565b3480156109f857600080fd5b5061043160115481565b348015610a0e57600080fd5b50610399612c64565b348015610a2357600080fd5b5061036f610a32366004614b2f565b6001600160a01b03918216600090815260076020908152604080832093909416825291909152205460ff1690565b348015610a6c57600080fd5b50610a80610a7b3660046146c5565b612c73565b604080519889526020890197909752958701949094526060860192909252608085015260a08401526001600160a01b031660c083015260e08201526101000161037b565b6000610acf82612d2e565b80610aea57506001600160e01b0319821663152a902d60e11b145b92915050565b606060028054610aff90614b5d565b80601f0160208091040260200160405190810160405280929190818152602001828054610b2b90614b5d565b8015610b785780601f10610b4d57610100808354040283529160200191610b78565b820191906000526020600020905b815481529060010190602001808311610b5b57829003601f168201915b5050505050905090565b6000818152600460205260408120546001600160a01b0316610c005760405162461bcd60e51b815260206004820152602c60248201527f4552433732313a20617070726f76656420717565727920666f72206e6f6e657860448201526b34b9ba32b73a103a37b5b2b760a11b60648201526084015b60405180910390fd5b506000908152600660205260409020546001600160a01b031690565b6000610c27826123a4565b9050806001600160a01b0316836001600160a01b03161415610c955760405162461bcd60e51b815260206004820152602160248201527f4552433732313a20617070726f76616c20746f2063757272656e74206f776e656044820152603960f91b6064820152608401610bf7565b806001600160a01b0316610ca7612d53565b6001600160a01b03161480610cc35750610cc381610a32612d53565b610d355760405162461bcd60e51b815260206004820152603860248201527f4552433732313a20617070726f76652063616c6c6572206973206e6f74206f7760448201527f6e6572206e6f7220617070726f76656420666f7220616c6c00000000000000006064820152608401610bf7565b610d3f8383612d5d565b505050565b610d51600061080e612d53565b610d915760405162461bcd60e51b815260206004820152601160248201527037b7363c9036b7b23ab6329030b236b4b760791b6044820152606401610bf7565b80610dde5760405162461bcd60e51b815260206004820152601a60248201527f6e656564732061206c697374206f6620636f6e646974696f6e730000000000006044820152606401610bf7565b610dea6012600061451d565b6000805b8281101561113c578115610e8d57838382818110610e0e57610e0e614b98565b90506101000201600001358210610e8d5760405162461bcd60e51b815260206004820152602960248201527f737461727454696d657374616d70206d75737420626520696e20617363656e6460448201527f696e67206f7264657200000000000000000000000000000000000000000000006064820152608401610bf7565b6000848483818110610ea157610ea1614b98565b905061010002016020013511610ef95760405162461bcd60e51b815260206004820152601b60248201527f6d6178206d696e7420737570706c792063616e6e6f74206265203000000000006044820152606401610bf7565b6000848483818110610f0d57610f0d614b98565b905061010002016060013511610f655760405162461bcd60e51b815260206004820152601a60248201527f7175616e74697479206c696d69742063616e6e6f7420626520300000000000006044820152606401610bf7565b6012604051806101000160405280868685818110610f8557610f85614b98565b610f99926101009091020135905042614bc4565b8152602001868685818110610fb057610fb0614b98565b9050610100020160200135815260200160008152602001868685818110610fd957610fd9614b98565b90506101000201606001358152602001868685818110610ffb57610ffb614b98565b9050610100020160800135815260200186868581811061101d5761101d614b98565b9050610100020160a00135815260200186868581811061103f5761103f614b98565b9050610100020160c00160208101906110589190614961565b6001600160a01b0316815260200186868581811061107857611078614b98565b610100029190910160e0908101359092525082546001808201855560009485526020948590208451600890930201918255938301519381019390935560408201516002840155606082015160038401556080820151600484015560a0820151600584015560c08201516006840180546001600160a01b0319166001600160a01b03909216919091179055015160079091015583838281811061111c5761111c614b98565b90506101000201600001359150808061113490614bdc565b915050610dee565b507f795ebb3cd534c0d92268a24227e2bbdaaeea1845941e89f38d14abffec693403601260405161116d9190614bf7565b60405180910390a1505050565b611187600061080e612d53565b6111c75760405162461bcd60e51b815260206004820152601160248201527037b7363c9036b7b23ab6329030b236b4b760791b6044820152606401610bf7565b600e60019054906101000a90046001600160a01b03166001600160a01b031663fd967f476040518163ffffffff1660e01b815260040160206040518083038186803b15801561121557600080fd5b505afa158015611229573d6000803e3d6000fd5b505050506040513d601f19601f8201168201806040525081019061124d9190614c95565b6fffffffffffffffffffffffffffffffff1681106112bb5760405162461bcd60e51b815260206004820152602560248201527f6270732070726f7669646564206d757374206265206c657373207468616e20316044820152640302c3030360dc1b6064820152608401610bf7565b60178190556040518181527f244ea8d7627f5a08f4299862bd5a45752842c183aee5b0fb0d1e4887bfa605b3906020015b60405180910390a150565b611308611302612d53565b82612dcb565b61136e5760405162461bcd60e51b815260206004820152603160248201527f4552433732313a207472616e736665722063616c6c6572206973206e6f74206f6044820152701ddb995c881b9bdc88185c1c1c9bdd9959607a1b6064820152608401610bf7565b610d3f838383612ec2565b600e546040805163a217fddf60e01b815290516101009092046001600160a01b0316916391d1485491839163a217fddf91600480820192602092909190829003018186803b1580156113ca57600080fd5b505afa1580156113de573d6000803e3d6000fd5b505050506040513d601f19601f820116820180604052508101906114029190614cc7565b61140a612d53565b6040516001600160e01b031960e085901b16815260048101929092526001600160a01b0316602482015260440160206040518083038186803b15801561144f57600080fd5b505afa158015611463573d6000803e3d6000fd5b505050506040513d601f19601f820116820180604052508101906114879190614ce0565b6114c85760405162461bcd60e51b81526020600482015260126024820152713737ba10383937ba37b1b7b61030b236b4b760711b6044820152606401610bf7565b600e5460405163f2aab4b360e01b815230600482015260009161010090046001600160a01b03169063f2aab4b39060240160206040518083038186803b15801561151157600080fd5b505afa158015611525573d6000803e3d6000fd5b505050506040513d601f19601f820116820180604052508101906115499190614cfd565b60405190915047906000906001600160a01b0384169083908381818185875af1925050503d8060008114611599576040519150601f19603f3d011682016040523d82523d6000602084013e61159e565b606091505b50509050806115ef5760405162461bcd60e51b815260206004820152601860248201527f6661696c656420746f207472616e736665722066756e647300000000000000006044820152606401610bf7565b826001600160a01b03167feaff4b37086828766ad3268786972c0cd24259d4c87a80f9d3963a3c3d999b0d8360405161162a91815260200190565b60405180910390a2505050565b600e5460405163f2aab4b360e01b815230600482015260009182916101009091046001600160a01b03169063f2aab4b39060240160206040518083038186803b15801561168357600080fd5b505afa158015611697573d6000803e3d6000fd5b505050506040513d601f19601f820116820180604052508101906116bb9190614cfd565b9150600e60019054906101000a90046001600160a01b03166001600160a01b031663fd967f476040518163ffffffff1660e01b815260040160206040518083038186803b15801561170b57600080fd5b505afa15801561171f573d6000803e3d6000fd5b505050506040513d601f19601f820116820180604052508101906117439190614c95565b6fffffffffffffffffffffffffffffffff16601754846117639190614d1a565b61176d9190614d4f565b90509250929050565b6117808282613081565b6000828152600160205260409020610d3f9082612d15565b6002600d5414156117eb5760405162461bcd60e51b815260206004820152601f60248201527f5265656e7472616e637947756172643a207265656e7472616e742063616c6c006044820152606401610bf7565b6002600d55600c5460ff16156118365760405162461bcd60e51b815260206004820152601060248201526f14185d5cd8589b194e881c185d5cd95960821b6044820152606401610bf7565b60006118406122a7565b905060006012828154811061185757611857614b98565b600091825260209182902060408051610100810182526008909302909101805483526001810154938301939093526002830154908201526003820154606082015260048201546080820152600582015460a082015260068201546001600160a01b031660c082015260079091015460e08201529050846119195760405162461bcd60e51b815260206004820152601460248201527f7175616e746974792063616e6e6f7420626520300000000000000000000000006044820152606401610bf7565b600f548560115461192a9190614bc4565b11156119785760405162461bcd60e51b815260206004820181905260248201527f657863656564696e6720746f74616c206d617820737570706c79206c696d69746044820152606401610bf7565b601054856011546119899190614bc4565b11156119d75760405162461bcd60e51b815260206004820152601b60248201527f63616e6e6f7420636c61696d20756e6d696e74656420746f6b656e00000000006044820152606401610bf7565b8060600151851115611a2b5760405162461bcd60e51b815260206004820152601260248201527f657863656564696e67207478206c696d697400000000000000000000000000006044820152606401610bf7565b8060200151858260400151611a409190614bc4565b1115611a8e5760405162461bcd60e51b815260206004820152601960248201527f657863656564696e67206d6178206d696e7420737570706c79000000000000006044820152606401610bf7565b600060136000611a9c612d53565b6001600160a01b03168152602080820192909252604090810160009081208682529092529020549050801580611ad25750804210155b611b1e5760405162461bcd60e51b815260206004820152600f60248201527f63616e6e6f74206d696e742079657400000000000000000000000000000000006044820152606401610bf7565b60e082015115611c01576000611b32612d53565b604051602001611b5a919060609190911b6bffffffffffffffffffffffff1916815260140190565b604051602081830303815290604052805190602001209050611bb386868080602002602001604051908101604052809392919081815260200183836020028082843760009201919091525050505060e0850151836130ae565b611bff5760405162461bcd60e51b815260206004820152600e60248201527f696e76616c69642070726f6f66730000000000000000000000000000000000006044820152606401610bf7565b505b60a082015115611c2857611c288260c001518360a0015188611c239190614d1a565b61315d565b8560128481548110611c3c57611c3c614b98565b90600052602060002090600802016002016000828254611c5c9190614bc4565b9091555050608082015142810190811015611c7657506000195b8060136000611c83612d53565b6001600160a01b0316815260208082019290925260409081016000908120888252909252812091909155601154905b88811015611cf857611ccd611cc5612d53565b601154613323565b600160116000828254611ce09190614bc4565b90915550819050611cf081614bdc565b915050611cb2565b50611d01612d53565b60408051838152602081018b90529081018790526001600160a01b0391909116907f9cdcf2f7714cca3508c7f0110b04a90a80a3a8dd0e35de99689db74d28c5383e9060600160405180910390a250506001600d55505050505050565b6000611d698361242f565b8210611ddd5760405162461bcd60e51b815260206004820152602b60248201527f455243373231456e756d657261626c653a206f776e657220696e646578206f7560448201527f74206f6620626f756e64730000000000000000000000000000000000000000006064820152608401610bf7565b506001600160a01b03919091166000908152600860209081526040808320938352929052205490565b611e13600061080e612d53565b611e535760405162461bcd60e51b815260206004820152601160248201527037b7363c9036b7b23ab6329030b236b4b760791b6044820152606401610bf7565b611e5f6015838361453e565b507fe6e4cd5c2dc7d2c20519b41832cd550fd3ea1186bf299d108179bf71fb8e00e58282604051611e91929190614d63565b60405180910390a15050565b611ea7828261333d565b6000828152600160205260409020610d3f90826133d5565b611ecc600061080e612d53565b611f0c5760405162461bcd60e51b815260206004820152601160248201527037b7363c9036b7b23ab6329030b236b4b760791b6044820152606401610bf7565b600f8190556040518181527ff8cbdbee6d402ad22cddbc250098e39cd0d24f0fad122f64794577167c605df9906020016112ec565b611f6d7f65d7a28e3265b37a6474929f336521b332c1681b933f6cb9f3376673440d862a61080e612d53565b611fb95760405162461bcd60e51b815260206004820181905260248201527f6d75737420686176652070617573657220726f6c6520746f20756e70617573656044820152606401610bf7565b611fc16133ea565b565b610d3f83838360405180602001604052806000815250612a9a565b611fe9611302612d53565b61205b5760405162461bcd60e51b815260206004820152603060248201527f4552433732314275726e61626c653a2063616c6c6572206973206e6f74206f7760448201527f6e6572206e6f7220617070726f766564000000000000000000000000000000006064820152608401610bf7565b6120648161348c565b50565b600c5460ff16156120ad5760405162461bcd60e51b815260206004820152601060248201526f14185d5cd8589b194e881c185d5cd95960821b6044820152606401610bf7565b6120d97f9f2df0fed2c77648de5860a4cc508cd0818c85b8b8a1ab4ceeef8d981c8956a661080e612d53565b6121255760405162461bcd60e51b815260206004820152601d60248201527f6d7573742068617665206d696e74657220726f6c6520746f206d696e740000006044820152606401610bf7565b600f54601054612136908390614bc4565b11156121905760405162461bcd60e51b8152602060048201526024808201527f63616e6e6f74206d696e74206d6f7265207468616e206d6178546f74616c537560448201526370706c7960e01b6064820152608401610bf7565b60105460005b828110156121fb578383828181106121b0576121b0614b98565b90506020028101906121c29190614d92565b60008481526016602052604090206121db92909161453e565b506121e7600183614bc4565b9150806121f381614bdc565b915050612196565b506010555050565b600061220e600a5490565b82106122825760405162461bcd60e51b815260206004820152602c60248201527f455243373231456e756d657261626c653a20676c6f62616c20696e646578206f60448201527f7574206f6620626f756e647300000000000000000000000000000000000000006064820152608401610bf7565b600a828154811061229557612295614b98565b90600052602060002001549050919050565b6012546000906122f95760405162461bcd60e51b815260206004820152601860248201527f6e6f207075626c6963206d696e7420636f6e646974696f6e00000000000000006044820152606401610bf7565b6012545b801561235b576012612310600183614dd9565b8154811061232057612320614b98565b906000526020600020906008020160000154421061234957612343600182614dd9565b91505090565b8061235381614df0565b9150506122fd565b5060405162461bcd60e51b815260206004820152601860248201527f6e6f20616374697665206d696e7420636f6e646974696f6e00000000000000006044820152606401610bf7565b6000818152600460205260408120546001600160a01b031680610aea5760405162461bcd60e51b815260206004820152602960248201527f4552433732313a206f776e657220717565727920666f72206e6f6e657869737460448201527f656e7420746f6b656e00000000000000000000000000000000000000000000006064820152608401610bf7565b60006001600160a01b0382166124ad5760405162461bcd60e51b815260206004820152602a60248201527f4552433732313a2062616c616e636520717565727920666f7220746865207a6560448201527f726f2061646472657373000000000000000000000000000000000000000000006064820152608401610bf7565b506001600160a01b031660009081526005602052604090205490565b6124f57f65d7a28e3265b37a6474929f336521b332c1681b933f6cb9f3376673440d862a61080e612d53565b6125415760405162461bcd60e51b815260206004820152601e60248201527f6d75737420686176652070617573657220726f6c6520746f20706175736500006044820152606401610bf7565b611fc1613533565b612556600061080e612d53565b6125965760405162461bcd60e51b815260206004820152601160248201527037b7363c9036b7b23ab6329030b236b4b760791b6044820152606401610bf7565b600e805460ff19168215159081179091556040519081527ffb4ba02cee22486df888d7ffb97c6100ec3193781e025cb9a4bc6fc358d626cc906020016112ec565b60008281526001602052604081206125ef90836135af565b9392505050565b600e546040805163a217fddf60e01b815290516101009092046001600160a01b0316916391d1485491839163a217fddf91600480820192602092909190829003018186803b15801561264757600080fd5b505afa15801561265b573d6000803e3d6000fd5b505050506040513d601f19601f8201168201806040525081019061267f9190614cc7565b612687612d53565b6040516001600160e01b031960e085901b16815260048101929092526001600160a01b0316602482015260440160206040518083038186803b1580156126cc57600080fd5b505afa1580156126e0573d6000803e3d6000fd5b505050506040513d601f19601f820116820180604052508101906127049190614ce0565b6127455760405162461bcd60e51b81526020600482015260126024820152713737ba10383937ba37b1b7b61030b236b4b760711b6044820152606401610bf7565b610d3f6014838361453e565b606060038054610aff90614b5d565b612768612d53565b6001600160a01b0316826001600160a01b031614156127c95760405162461bcd60e51b815260206004820152601960248201527f4552433732313a20617070726f766520746f2063616c6c6572000000000000006044820152606401610bf7565b80600760006127d6612d53565b6001600160a01b03908116825260208083019390935260409182016000908120918716808252919093529120805460ff19169215159290921790915561281a612d53565b6001600160a01b03167f17307eab39ab6107e8899845ad3d59bd9653f200f220920489ca2b5937696c3183604051612856911515815260200190565b60405180910390a35050565b60608167ffffffffffffffff81111561287d5761287d614a39565b6040519080825280602002602001820160405280156128b057816020015b606081526020019060019003908161289b5790505b50905060005b8281101561295057612920308585848181106128d4576128d4614b98565b90506020028101906128e69190614d92565b8080601f0160208091040260200160405190810160405280939291908181526020018383808284376000920191909152506135bb92505050565b82828151811061293257612932614b98565b6020026020010181905250808061294890614bdc565b9150506128b6565b5092915050565b600c5460ff161561299d5760405162461bcd60e51b815260206004820152601060248201526f14185d5cd8589b194e881c185d5cd95960821b6044820152606401610bf7565b6129c97f9f2df0fed2c77648de5860a4cc508cd0818c85b8b8a1ab4ceeef8d981c8956a661080e612d53565b612a155760405162461bcd60e51b815260206004820152601d60248201527f6d7573742068617665206d696e74657220726f6c6520746f206d696e740000006044820152606401610bf7565b600f5481601054612a269190614bc4565b1115612a805760405162461bcd60e51b8152602060048201526024808201527f63616e6e6f74206d696e74206d6f7265207468616e206d6178546f74616c537560448201526370706c7960e01b6064820152608401610bf7565b8060106000828254612a929190614bc4565b909155505050565b612aab612aa5612d53565b83612dcb565b612b115760405162461bcd60e51b815260206004820152603160248201527f4552433732313a207472616e736665722063616c6c6572206973206e6f74206f6044820152701ddb995c881b9bdc88185c1c1c9bdd9959607a1b6064820152608401610bf7565b612b1d848484846135e0565b50505050565b60606000612b2f61365e565b600084815260166020526040812080549293509091612b4d90614b5d565b90501115612bf45760008381526016602052604090208054612b6e90614b5d565b80601f0160208091040260200160405190810160405280929190818152602001828054612b9a90614b5d565b8015612be75780601f10612bbc57610100808354040283529160200191612be7565b820191906000526020600020905b815481529060010190602001808311612bca57829003601f168201915b5050505050915050919050565b805115612c2d5780612c058461366d565b604051602001612c16929190614e07565b604051602081830303815290604052915050919050565b5050604080516020810190915260008152919050565b6000818152600160205260408120610aea9061376b565b611ea78282613775565b606060148054610aff90614b5d565b60128181548110612c8357600080fd5b600091825260209091206008909102018054600182015460028301546003840154600485015460058601546006870154600790970154959750939592949193909290916001600160a01b039091169088565b600c5460009061010090046001600160a01b0316331415612cfd575060131936013560601c90565b503390565b905090565b612d11828261379d565b5050565b60006125ef836001600160a01b03841661383c565b3390565b60006001600160e01b0319821663780e9d6360e01b1480610aea5750610aea8261388b565b6000612d02612cd5565b600081815260066020526040902080546001600160a01b0319166001600160a01b0384169081179091558190612d92826123a4565b6001600160a01b03167f8c5be1e5ebec7d5bd14f71427d1e84f3dd0314c0f7b2291e5b200ac8c7c3b92560405160405180910390a45050565b6000818152600460205260408120546001600160a01b0316612e445760405162461bcd60e51b815260206004820152602c60248201527f4552433732313a206f70657261746f7220717565727920666f72206e6f6e657860448201526b34b9ba32b73a103a37b5b2b760a11b6064820152608401610bf7565b6000612e4f836123a4565b9050806001600160a01b0316846001600160a01b03161480612e8a5750836001600160a01b0316612e7f84610b82565b6001600160a01b0316145b80612eba57506001600160a01b0380821660009081526007602090815260408083209388168352929052205460ff165b949350505050565b826001600160a01b0316612ed5826123a4565b6001600160a01b031614612f515760405162461bcd60e51b815260206004820152602960248201527f4552433732313a207472616e73666572206f6620746f6b656e2074686174206960448201527f73206e6f74206f776e00000000000000000000000000000000000000000000006064820152608401610bf7565b6001600160a01b038216612fb35760405162461bcd60e51b8152602060048201526024808201527f4552433732313a207472616e7366657220746f20746865207a65726f206164646044820152637265737360e01b6064820152608401610bf7565b612fbe8383836138cb565b612fc9600082612d5d565b6001600160a01b0383166000908152600560205260408120805460019290612ff2908490614dd9565b90915550506001600160a01b0382166000908152600560205260408120805460019290613020908490614bc4565b909155505060008181526004602052604080822080546001600160a01b0319166001600160a01b0386811691821790925591518493918716917fddf252ad1be2c89b69c2b068fc378daa952ba7f163c4a11628f55a4df523b3ef91a4505050565b6000828152602081905260409020600101546130a48161309f612d53565b6139de565b610d3f838361379d565b600081815b85518110156131525760008682815181106130d0576130d0614b98565b6020026020010151905080831161311257604080516020810185905290810182905260600160405160208183030381529060405280519060200120925061313f565b60408051602081018390529081018490526060016040516020818303038152906040528051906020012092505b508061314a81614bdc565b9150506130b3565b509092149392505050565b6001600160a01b0382166131ba57803414612d115760405162461bcd60e51b815260206004820152600f60248201527f76616c756520213d20616d6f756e7400000000000000000000000000000000006044820152606401610bf7565b816001600160a01b03166323b872dd6131d1612d53565b600e5460405163f2aab4b360e01b81523060048201526101009091046001600160a01b03169063f2aab4b39060240160206040518083038186803b15801561321857600080fd5b505afa15801561322c573d6000803e3d6000fd5b505050506040513d601f19601f820116820180604052508101906132509190614cfd565b6040516001600160e01b031960e085901b1681526001600160a01b0392831660048201529116602482015260448101849052606401602060405180830381600087803b15801561329f57600080fd5b505af11580156132b3573d6000803e3d6000fd5b505050506040513d601f19601f820116820180604052508101906132d79190614ce0565b612d115760405162461bcd60e51b815260206004820152601a60248201527f6661696c656420746f207472616e73666572207061796d656e740000000000006044820152606401610bf7565b612d11828260405180602001604052806000815250613a5c565b613345612d53565b6001600160a01b0316816001600160a01b0316146133cb5760405162461bcd60e51b815260206004820152602f60248201527f416363657373436f6e74726f6c3a2063616e206f6e6c792072656e6f756e636560448201527f20726f6c657320666f722073656c6600000000000000000000000000000000006064820152608401610bf7565b612d118282613ada565b60006125ef836001600160a01b038416613b77565b600c5460ff1661343c5760405162461bcd60e51b815260206004820152601460248201527f5061757361626c653a206e6f74207061757365640000000000000000000000006044820152606401610bf7565b600c805460ff191690557f5db9ee0a495bf2e6ff9c91a7834c1ba4fdd244a5e8aa4e537bd38aeae4b073aa61346f612d53565b6040516001600160a01b03909116815260200160405180910390a1565b6000613497826123a4565b90506134a5816000846138cb565b6134b0600083612d5d565b6001600160a01b03811660009081526005602052604081208054600192906134d9908490614dd9565b909155505060008281526004602052604080822080546001600160a01b0319169055518391906001600160a01b038416907fddf252ad1be2c89b69c2b068fc378daa952ba7f163c4a11628f55a4df523b3ef908390a45050565b600c5460ff16156135795760405162461bcd60e51b815260206004820152601060248201526f14185d5cd8589b194e881c185d5cd95960821b6044820152606401610bf7565b600c805460ff191660011790557f62e78cea01bee320cd4e420270b5ea74000d11b0c9f74754ebdbfc544b05a25861346f612d53565b60006125ef8383613c6a565b60606125ef8383604051806060016040528060278152602001614f4d60279139613c94565b6135eb848484612ec2565b6135f784848484613d68565b612b1d5760405162461bcd60e51b815260206004820152603260248201527f4552433732313a207472616e7366657220746f206e6f6e20455243373231526560448201527131b2b4bb32b91034b6b83632b6b2b73a32b960711b6064820152608401610bf7565b606060158054610aff90614b5d565b6060816136915750506040805180820190915260018152600360fc1b602082015290565b8160005b81156136bb57806136a581614bdc565b91506136b49050600a83614d4f565b9150613695565b60008167ffffffffffffffff8111156136d6576136d6614a39565b6040519080825280601f01601f191660200182016040528015613700576020820181803683370190505b5090505b8415612eba57613715600183614dd9565b9150613722600a86614e36565b61372d906030614bc4565b60f81b81838151811061374257613742614b98565b60200101906001600160f81b031916908160001a905350613764600a86614d4f565b9450613704565b6000610aea825490565b6000828152602081905260409020600101546137938161309f612d53565b610d3f8383613ada565b6000828152602081815260408083206001600160a01b038516845290915290205460ff16612d11576000828152602081815260408083206001600160a01b03851684529091529020805460ff191660011790556137f8612d53565b6001600160a01b0316816001600160a01b0316837f2f8788117e7eff1d82e926ec794901d17c78024a50270940304540a733656f0d60405160405180910390a45050565b600081815260018301602052604081205461388357508154600181810184556000848152602080822090930184905584548482528286019093526040902091909155610aea565b506000610aea565b60006001600160e01b031982166380ac58cd60e01b14806138bc57506001600160e01b03198216635b5e139f60e01b145b80610aea5750610aea82613ec7565b6138d6838383613eec565b600e5460ff1680156138f057506001600160a01b03831615155b801561390457506001600160a01b03821615155b15610d3f576001600160a01b03831660009081527f7c7a990f752005aea38438cc35abc5417bd322e6c964ec21d52573494225142c602052604090205460ff168061398657506001600160a01b03821660009081527f7c7a990f752005aea38438cc35abc5417bd322e6c964ec21d52573494225142c602052604090205460ff165b610d3f5760405162461bcd60e51b815260206004820152602360248201527f7265737472696374656420746f205452414e534645525f524f4c4520686f6c6460448201526265727360e81b6064820152608401610bf7565b6000828152602081815260408083206001600160a01b038516845290915290205460ff16612d1157613a1a816001600160a01b03166014613f70565b613a25836020613f70565b604051602001613a36929190614e4a565b60408051601f198184030181529082905262461bcd60e51b8252610bf7916004016146b2565b613a668383614119565b613a736000848484613d68565b610d3f5760405162461bcd60e51b815260206004820152603260248201527f4552433732313a207472616e7366657220746f206e6f6e20455243373231526560448201527131b2b4bb32b91034b6b83632b6b2b73a32b960711b6064820152608401610bf7565b6000828152602081815260408083206001600160a01b038516845290915290205460ff1615612d11576000828152602081815260408083206001600160a01b03851684529091529020805460ff19169055613b33612d53565b6001600160a01b0316816001600160a01b0316837ff6391f5c32d9c69d2a47ea670b442974b53935d1edc7fd64eb21e047a839171b60405160405180910390a45050565b60008181526001830160205260408120548015613c60576000613b9b600183614dd9565b8554909150600090613baf90600190614dd9565b9050818114613c14576000866000018281548110613bcf57613bcf614b98565b9060005260206000200154905080876000018481548110613bf257613bf2614b98565b6000918252602080832090910192909255918252600188019052604090208390555b8554869080613c2557613c25614ecb565b600190038181906000526020600020016000905590558560010160008681526020019081526020016000206000905560019350505050610aea565b6000915050610aea565b6000826000018281548110613c8157613c81614b98565b9060005260206000200154905092915050565b6060833b613cf35760405162461bcd60e51b815260206004820152602660248201527f416464726573733a2064656c65676174652063616c6c20746f206e6f6e2d636f6044820152651b9d1c9858dd60d21b6064820152608401610bf7565b600080856001600160a01b031685604051613d0e9190614ee1565b600060405180830381855af49150503d8060008114613d49576040519150601f19603f3d011682016040523d82523d6000602084013e613d4e565b606091505b5091509150613d5e828286614267565b9695505050505050565b60006001600160a01b0384163b15613ebc57836001600160a01b031663150b7a02613d91612d53565b8786866040518563ffffffff1660e01b8152600401613db39493929190614efd565b602060405180830381600087803b158015613dcd57600080fd5b505af1925050508015613dfd575060408051601f3d908101601f19168201909252613dfa91810190614f2f565b60015b613ea2573d808015613e2b576040519150601f19603f3d011682016040523d82523d6000602084013e613e30565b606091505b508051613e9a5760405162461bcd60e51b815260206004820152603260248201527f4552433732313a207472616e7366657220746f206e6f6e20455243373231526560448201527131b2b4bb32b91034b6b83632b6b2b73a32b960711b6064820152608401610bf7565b805181602001fd5b6001600160e01b031916630a85bd0160e11b149050612eba565b506001949350505050565b60006001600160e01b03198216635a05180f60e01b1480610aea5750610aea826142a0565b613ef78383836142d5565b600c5460ff1615610d3f5760405162461bcd60e51b815260206004820152602b60248201527f4552433732315061757361626c653a20746f6b656e207472616e73666572207760448201527f68696c65207061757365640000000000000000000000000000000000000000006064820152608401610bf7565b60606000613f7f836002614d1a565b613f8a906002614bc4565b67ffffffffffffffff811115613fa257613fa2614a39565b6040519080825280601f01601f191660200182016040528015613fcc576020820181803683370190505b509050600360fc1b81600081518110613fe757613fe7614b98565b60200101906001600160f81b031916908160001a905350600f60fb1b8160018151811061401657614016614b98565b60200101906001600160f81b031916908160001a905350600061403a846002614d1a565b614045906001614bc4565b90505b60018111156140ca577f303132333435363738396162636465660000000000000000000000000000000085600f166010811061408657614086614b98565b1a60f81b82828151811061409c5761409c614b98565b60200101906001600160f81b031916908160001a90535060049490941c936140c381614df0565b9050614048565b5083156125ef5760405162461bcd60e51b815260206004820181905260248201527f537472696e67733a20686578206c656e67746820696e73756666696369656e746044820152606401610bf7565b6001600160a01b03821661416f5760405162461bcd60e51b815260206004820181905260248201527f4552433732313a206d696e7420746f20746865207a65726f20616464726573736044820152606401610bf7565b6000818152600460205260409020546001600160a01b0316156141d45760405162461bcd60e51b815260206004820152601c60248201527f4552433732313a20746f6b656e20616c7265616479206d696e746564000000006044820152606401610bf7565b6141e0600083836138cb565b6001600160a01b0382166000908152600560205260408120805460019290614209908490614bc4565b909155505060008181526004602052604080822080546001600160a01b0319166001600160a01b03861690811790915590518392907fddf252ad1be2c89b69c2b068fc378daa952ba7f163c4a11628f55a4df523b3ef908290a45050565b606083156142765750816125ef565b8251156142865782518084602001fd5b8160405162461bcd60e51b8152600401610bf791906146b2565b60006001600160e01b03198216637965db0b60e01b1480610aea57506301ffc9a760e01b6001600160e01b0319831614610aea565b6001600160a01b0383166143305761432b81600a80546000838152600b60205260408120829055600182018355919091527fc65a7bb8d6351c1cf70c95a316cc6a92839c986682d98bc35f958f4883f9d2a80155565b614353565b816001600160a01b0316836001600160a01b03161461435357614353838261438d565b6001600160a01b03821661436a57610d3f8161442a565b826001600160a01b0316826001600160a01b031614610d3f57610d3f82826144d9565b6000600161439a8461242f565b6143a49190614dd9565b6000838152600960205260409020549091508082146143f7576001600160a01b03841660009081526008602090815260408083208584528252808320548484528184208190558352600990915290208190555b5060009182526009602090815260408084208490556001600160a01b039094168352600881528383209183525290812055565b600a5460009061443c90600190614dd9565b6000838152600b6020526040812054600a805493945090928490811061446457614464614b98565b9060005260206000200154905080600a838154811061448557614485614b98565b6000918252602080832090910192909255828152600b9091526040808220849055858252812055600a8054806144bd576144bd614ecb565b6001900381819060005260206000200160009055905550505050565b60006144e48361242f565b6001600160a01b039093166000908152600860209081526040808320868452825280832085905593825260099052919091209190915550565b508054600082556008029060005260206000209081019061206491906145c2565b82805461454a90614b5d565b90600052602060002090601f01602090048101928261456c57600085556145b2565b82601f106145855782800160ff198235161785556145b2565b828001600101855582156145b2579182015b828111156145b2578235825591602001919060010190614597565b506145be929150614612565b5090565b5b808211156145be57600080825560018201819055600282018190556003820181905560048201819055600582018190556006820180546001600160a01b031916905560078201556008016145c3565b5b808211156145be5760008155600101614613565b6001600160e01b03198116811461206457600080fd5b60006020828403121561464f57600080fd5b81356125ef81614627565b60005b8381101561467557818101518382015260200161465d565b83811115612b1d5750506000910152565b6000815180845261469e81602086016020860161465a565b601f01601f19169290920160200192915050565b6020815260006125ef6020830184614686565b6000602082840312156146d757600080fd5b5035919050565b6001600160a01b038116811461206457600080fd5b6000806040838503121561470657600080fd5b8235614711816146de565b946020939093013593505050565b6000806020838503121561473257600080fd5b823567ffffffffffffffff8082111561474a57600080fd5b818501915085601f83011261475e57600080fd5b81358181111561476d57600080fd5b8660208260081b850101111561478257600080fd5b60209290920196919550909350505050565b6000806000606084860312156147a957600080fd5b83356147b4816146de565b925060208401356147c4816146de565b929592945050506040919091013590565b600080604083850312156147e857600080fd5b50508035926020909101359150565b6000806040838503121561480a57600080fd5b82359150602083013561481c816146de565b809150509250929050565b60008083601f84011261483957600080fd5b50813567ffffffffffffffff81111561485157600080fd5b6020830191508360208260051b850101111561486c57600080fd5b9250929050565b60008060006040848603121561488857600080fd5b83359250602084013567ffffffffffffffff8111156148a657600080fd5b6148b286828701614827565b9497909650939450505050565b600080602083850312156148d257600080fd5b823567ffffffffffffffff808211156148ea57600080fd5b818501915085601f8301126148fe57600080fd5b81358181111561490d57600080fd5b86602082850101111561478257600080fd5b6000806020838503121561493257600080fd5b823567ffffffffffffffff81111561494957600080fd5b61495585828601614827565b90969095509350505050565b60006020828403121561497357600080fd5b81356125ef816146de565b801515811461206457600080fd5b60006020828403121561499e57600080fd5b81356125ef8161497e565b600080604083850312156149bc57600080fd5b82356149c7816146de565b9150602083013561481c8161497e565b6000602080830181845280855180835260408601915060408160051b870101925083870160005b82811015614a2c57603f19888603018452614a1a858351614686565b945092850192908501906001016149fe565b5092979650505050505050565b634e487b7160e01b600052604160045260246000fd5b60008060008060808587031215614a6557600080fd5b8435614a70816146de565b93506020850135614a80816146de565b925060408501359150606085013567ffffffffffffffff80821115614aa457600080fd5b818701915087601f830112614ab857600080fd5b813581811115614aca57614aca614a39565b604051601f8201601f19908116603f01168101908382118183101715614af257614af2614a39565b816040528281528a6020848701011115614b0b57600080fd5b82602086016020830137600060208483010152809550505050505092959194509250565b60008060408385031215614b4257600080fd5b8235614b4d816146de565b9150602083013561481c816146de565b600181811c90821680614b7157607f821691505b60208210811415614b9257634e487b7160e01b600052602260045260246000fd5b50919050565b634e487b7160e01b600052603260045260246000fd5b634e487b7160e01b600052601160045260246000fd5b60008219821115614bd757614bd7614bae565b500190565b6000600019821415614bf057614bf0614bae565b5060010190565b60006020808301818452808554808352604092508286019150866000528360002060005b82811015614c885781548452600180830154878601526002830154868601526003830154606086015260048301546080860152600583015460a086015260068301546001600160a01b031660c0860152600783015460e08601526101009094019360089092019101614c1b565b5091979650505050505050565b600060208284031215614ca757600080fd5b81516fffffffffffffffffffffffffffffffff811681146125ef57600080fd5b600060208284031215614cd957600080fd5b5051919050565b600060208284031215614cf257600080fd5b81516125ef8161497e565b600060208284031215614d0f57600080fd5b81516125ef816146de565b6000816000190483118215151615614d3457614d34614bae565b500290565b634e487b7160e01b600052601260045260246000fd5b600082614d5e57614d5e614d39565b500490565b60208152816020820152818360408301376000818301604090810191909152601f909201601f19160101919050565b6000808335601e19843603018112614da957600080fd5b83018035915067ffffffffffffffff821115614dc457600080fd5b60200191503681900382131561486c57600080fd5b600082821015614deb57614deb614bae565b500390565b600081614dff57614dff614bae565b506000190190565b60008351614e1981846020880161465a565b835190830190614e2d81836020880161465a565b01949350505050565b600082614e4557614e45614d39565b500690565b7f416363657373436f6e74726f6c3a206163636f756e7420000000000000000000815260008351614e8281601785016020880161465a565b7f206973206d697373696e6720726f6c65200000000000000000000000000000006017918401918201528351614ebf81602884016020880161465a565b01602801949350505050565b634e487b7160e01b600052603160045260246000fd5b60008251614ef381846020870161465a565b9190910192915050565b60006001600160a01b03808716835280861660208401525083604083015260806060830152613d5e6080830184614686565b600060208284031215614f4157600080fd5b81516125ef8161462756fe416464726573733a206c6f772d6c6576656c2064656c65676174652063616c6c206661696c6564a164736f6c6343000809000a",
  "linkReferences": {},
  "deployedLinkReferences": {}
}