{
  "_format": "hh-sol-artifact-1",
  "contractName": "LazyNFT",
  "sourceName": "contracts/LazyNFT.sol",
  "abi": [
    {
      "inputs": [
        {
          "internalType": "address payable",
          "name": "_controlCenter",
          "type": "address"
        },
        {
          "internalType": "string",
          "name": "_name",
          "type": "string"
        },
        {
          "internalType": "string",
          "name": "_symbol",
          "type": "string"
        },
        {
          "internalType": "address",
          "name": "_trustedForwarder",
          "type": "address"
        },
        {
          "internalType": "string",
          "name": "_contractUri",
          "type": "string"
        },
        {
          "internalType": "string",
          "name": "_baseTokenUri",
          "type": "string"
        },
        {
          "internalType": "uint256",
          "name": "maxSupply",
          "type": "uint256"
        }
      ],
      "stateMutability": "nonpayable",
      "type": "constructor"
    },
    {
      "anonymous": false,
      "inputs": [
        {
          "indexed": true,
          "internalType": "address",
          "name": "owner",
          "type": "address"
        },
        {
          "indexed": true,
          "internalType": "address",
          "name": "approved",
          "type": "address"
        },
        {
          "indexed": true,
          "internalType": "uint256",
          "name": "tokenId",
          "type": "uint256"
        }
      ],
      "name": "Approval",
      "type": "event"
    },
    {
      "anonymous": false,
      "inputs": [
        {
          "indexed": true,
          "internalType": "address",
          "name": "owner",
          "type": "address"
        },
        {
          "indexed": true,
          "internalType": "address",
          "name": "operator",
          "type": "address"
        },
        {
          "indexed": false,
          "internalType": "bool",
          "name": "approved",
          "type": "bool"
        }
      ],
      "name": "ApprovalForAll",
      "type": "event"
    },
    {
      "anonymous": false,
      "inputs": [
        {
          "indexed": false,
          "internalType": "string",
          "name": "uri",
          "type": "string"
        }
      ],
      "name": "BaseTokenURIUpdated",
      "type": "event"
    },
    {
      "anonymous": false,
      "inputs": [
        {
          "indexed": true,
          "internalType": "address",
          "name": "to",
          "type": "address"
        },
        {
          "indexed": false,
          "internalType": "uint256",
          "name": "startTokenId",
          "type": "uint256"
        },
        {
          "indexed": false,
          "internalType": "uint256",
          "name": "quantity",
          "type": "uint256"
        },
        {
          "indexed": false,
          "internalType": "uint256",
          "name": "mintConditionIndex",
          "type": "uint256"
        }
      ],
      "name": "Claimed",
      "type": "event"
    },
    {
      "anonymous": false,
      "inputs": [
        {
          "indexed": true,
          "internalType": "address",
          "name": "to",
          "type": "address"
        },
        {
          "indexed": false,
          "internalType": "uint256",
          "name": "amount",
          "type": "uint256"
        }
      ],
      "name": "FundsWithdrawn",
      "type": "event"
    },
    {
      "anonymous": false,
      "inputs": [
        {
          "indexed": false,
          "internalType": "address",
          "name": "account",
          "type": "address"
        }
      ],
      "name": "Paused",
      "type": "event"
    },
    {
      "anonymous": false,
      "inputs": [
        {
          "components": [
            {
              "internalType": "uint256",
              "name": "startTimestamp",
              "type": "uint256"
            },
            {
              "internalType": "uint256",
              "name": "maxMintSupply",
              "type": "uint256"
            },
            {
              "internalType": "uint256",
              "name": "currentMintSupply",
              "type": "uint256"
            },
            {
              "internalType": "uint256",
              "name": "quantityLimitPerTransaction",
              "type": "uint256"
            },
            {
              "internalType": "uint256",
              "name": "waitTimeSecondsLimitPerTransaction",
              "type": "uint256"
            },
            {
              "internalType": "uint256",
              "name": "pricePerToken",
              "type": "uint256"
            },
            {
              "internalType": "address",
              "name": "currency",
              "type": "address"
            },
            {
              "internalType": "bytes32",
              "name": "merkleRoot",
              "type": "bytes32"
            }
          ],
          "indexed": false,
          "internalType": "struct LazyNFT.PublicMintCondition[]",
          "name": "mintConditions",
          "type": "tuple[]"
        }
      ],
      "name": "PublicMintConditionUpdated",
      "type": "event"
    },
    {
      "anonymous": false,
      "inputs": [
        {
          "indexed": false,
          "internalType": "bool",
          "name": "transferable",
          "type": "bool"
        }
      ],
      "name": "RestrictedTransferUpdated",
      "type": "event"
    },
    {
      "anonymous": false,
      "inputs": [
        {
          "indexed": true,
          "internalType": "bytes32",
          "name": "role",
          "type": "bytes32"
        },
        {
          "indexed": true,
          "internalType": "bytes32",
          "name": "previousAdminRole",
          "type": "bytes32"
        },
        {
          "indexed": true,
          "internalType": "bytes32",
          "name": "newAdminRole",
          "type": "bytes32"
        }
      ],
      "name": "RoleAdminChanged",
      "type": "event"
    },
    {
      "anonymous": false,
      "inputs": [
        {
          "indexed": true,
          "internalType": "bytes32",
          "name": "role",
          "type": "bytes32"
        },
        {
          "indexed": true,
          "internalType": "address",
          "name": "account",
          "type": "address"
        },
        {
          "indexed": true,
          "internalType": "address",
          "name": "sender",
          "type": "address"
        }
      ],
      "name": "RoleGranted",
      "type": "event"
    },
    {
      "anonymous": false,
      "inputs": [
        {
          "indexed": true,
          "internalType": "bytes32",
          "name": "role",
          "type": "bytes32"
        },
        {
          "indexed": true,
          "internalType": "address",
          "name": "account",
          "type": "address"
        },
        {
          "indexed": true,
          "internalType": "address",
          "name": "sender",
          "type": "address"
        }
      ],
      "name": "RoleRevoked",
      "type": "event"
    },
    {
      "anonymous": false,
      "inputs": [
        {
          "indexed": false,
          "internalType": "uint256",
          "name": "royaltyBps",
          "type": "uint256"
        }
      ],
      "name": "RoyaltyUpdated",
      "type": "event"
    },
    {
      "anonymous": false,
      "inputs": [
        {
          "indexed": false,
          "internalType": "uint256",
          "name": "supply",
          "type": "uint256"
        }
      ],
      "name": "TotalSupplyUpdated",
      "type": "event"
    },
    {
      "anonymous": false,
      "inputs": [
        {
          "indexed": true,
          "internalType": "address",
          "name": "from",
          "type": "address"
        },
        {
          "indexed": true,
          "internalType": "address",
          "name": "to",
          "type": "address"
        },
        {
          "indexed": true,
          "internalType": "uint256",
          "name": "tokenId",
          "type": "uint256"
        }
      ],
      "name": "Transfer",
      "type": "event"
    },
    {
      "anonymous": false,
      "inputs": [
        {
          "indexed": false,
          "internalType": "address",
          "name": "account",
          "type": "address"
        }
      ],
      "name": "Unpaused",
      "type": "event"
    },
    {
      "inputs": [],
      "name": "DEFAULT_ADMIN_ROLE",
      "outputs": [
        {
          "internalType": "bytes32",
          "name": "",
          "type": "bytes32"
        }
      ],
      "stateMutability": "view",
      "type": "function"
    },
    {
      "inputs": [],
      "name": "MINTER_ROLE",
      "outputs": [
        {
          "internalType": "bytes32",
          "name": "",
          "type": "bytes32"
        }
      ],
      "stateMutability": "view",
      "type": "function"
    },
    {
      "inputs": [],
      "name": "PAUSER_ROLE",
      "outputs": [
        {
          "internalType": "bytes32",
          "name": "",
          "type": "bytes32"
        }
      ],
      "stateMutability": "view",
      "type": "function"
    },
    {
      "inputs": [],
      "name": "TRANSFER_ROLE",
      "outputs": [
        {
          "internalType": "bytes32",
          "name": "",
          "type": "bytes32"
        }
      ],
      "stateMutability": "view",
      "type": "function"
    },
    {
      "inputs": [
        {
          "internalType": "address",
          "name": "to",
          "type": "address"
        },
        {
          "internalType": "uint256",
          "name": "tokenId",
          "type": "uint256"
        }
      ],
      "name": "approve",
      "outputs": [],
      "stateMutability": "nonpayable",
      "type": "function"
    },
    {
      "inputs": [
        {
          "internalType": "address",
          "name": "owner",
          "type": "address"
        }
      ],
      "name": "balanceOf",
      "outputs": [
        {
          "internalType": "uint256",
          "name": "",
          "type": "uint256"
        }
      ],
      "stateMutability": "view",
      "type": "function"
    },
    {
      "inputs": [
        {
          "internalType": "uint256",
          "name": "tokenId",
          "type": "uint256"
        }
      ],
      "name": "burn",
      "outputs": [],
      "stateMutability": "nonpayable",
      "type": "function"
    },
    {
      "inputs": [
        {
          "internalType": "uint256",
          "name": "quantity",
          "type": "uint256"
        },
        {
          "internalType": "bytes32[]",
          "name": "proofs",
          "type": "bytes32[]"
        }
      ],
      "name": "claim",
      "outputs": [],
      "stateMutability": "payable",
      "type": "function"
    },
    {
      "inputs": [],
      "name": "contractURI",
      "outputs": [
        {
          "internalType": "string",
          "name": "",
          "type": "string"
        }
      ],
      "stateMutability": "view",
      "type": "function"
    },
    {
      "inputs": [
        {
          "internalType": "uint256",
          "name": "tokenId",
          "type": "uint256"
        }
      ],
      "name": "getApproved",
      "outputs": [
        {
          "internalType": "address",
          "name": "",
          "type": "address"
        }
      ],
      "stateMutability": "view",
      "type": "function"
    },
    {
      "inputs": [],
      "name": "getLastStartedMintConditionIndex",
      "outputs": [
        {
          "internalType": "uint256",
          "name": "",
          "type": "uint256"
        }
      ],
      "stateMutability": "view",
      "type": "function"
    },
    {
      "inputs": [
        {
          "internalType": "bytes32",
          "name": "role",
          "type": "bytes32"
        }
      ],
      "name": "getRoleAdmin",
      "outputs": [
        {
          "internalType": "bytes32",
          "name": "",
          "type": "bytes32"
        }
      ],
      "stateMutability": "view",
      "type": "function"
    },
    {
      "inputs": [
        {
          "internalType": "bytes32",
          "name": "role",
          "type": "bytes32"
        },
        {
          "internalType": "uint256",
          "name": "index",
          "type": "uint256"
        }
      ],
      "name": "getRoleMember",
      "outputs": [
        {
          "internalType": "address",
          "name": "",
          "type": "address"
        }
      ],
      "stateMutability": "view",
      "type": "function"
    },
    {
      "inputs": [
        {
          "internalType": "bytes32",
          "name": "role",
          "type": "bytes32"
        }
      ],
      "name": "getRoleMemberCount",
      "outputs": [
        {
          "internalType": "uint256",
          "name": "",
          "type": "uint256"
        }
      ],
      "stateMutability": "view",
      "type": "function"
    },
    {
      "inputs": [
        {
          "internalType": "bytes32",
          "name": "role",
          "type": "bytes32"
        },
        {
          "internalType": "address",
          "name": "account",
          "type": "address"
        }
      ],
      "name": "grantRole",
      "outputs": [],
      "stateMutability": "nonpayable",
      "type": "function"
    },
    {
      "inputs": [
        {
          "internalType": "bytes32",
          "name": "role",
          "type": "bytes32"
        },
        {
          "internalType": "address",
          "name": "account",
          "type": "address"
        }
      ],
      "name": "hasRole",
      "outputs": [
        {
          "internalType": "bool",
          "name": "",
          "type": "bool"
        }
      ],
      "stateMutability": "view",
      "type": "function"
    },
    {
      "inputs": [
        {
          "internalType": "address",
          "name": "owner",
          "type": "address"
        },
        {
          "internalType": "address",
          "name": "operator",
          "type": "address"
        }
      ],
      "name": "isApprovedForAll",
      "outputs": [
        {
          "internalType": "bool",
          "name": "",
          "type": "bool"
        }
      ],
      "stateMutability": "view",
      "type": "function"
    },
    {
      "inputs": [
        {
          "internalType": "address",
          "name": "forwarder",
          "type": "address"
        }
      ],
      "name": "isTrustedForwarder",
      "outputs": [
        {
          "internalType": "bool",
          "name": "",
          "type": "bool"
        }
      ],
      "stateMutability": "view",
      "type": "function"
    },
    {
      "inputs": [
        {
          "internalType": "string",
          "name": "_uri",
          "type": "string"
        }
      ],
      "name": "lazyMint",
      "outputs": [],
      "stateMutability": "nonpayable",
      "type": "function"
    },
    {
      "inputs": [
        {
          "internalType": "uint256",
          "name": "amount",
          "type": "uint256"
        }
      ],
      "name": "lazyMintAmount",
      "outputs": [],
      "stateMutability": "nonpayable",
      "type": "function"
    },
    {
      "inputs": [
        {
          "internalType": "string[]",
          "name": "_uris",
          "type": "string[]"
        }
      ],
      "name": "lazyMintBatch",
      "outputs": [],
      "stateMutability": "nonpayable",
      "type": "function"
    },
    {
      "inputs": [],
      "name": "maxTotalSupply",
      "outputs": [
        {
          "internalType": "uint256",
          "name": "",
          "type": "uint256"
        }
      ],
      "stateMutability": "view",
      "type": "function"
    },
    {
      "inputs": [
        {
          "internalType": "address",
          "name": "",
          "type": "address"
        }
      ],
      "name": "mint",
      "outputs": [],
      "stateMutability": "pure",
      "type": "function"
    },
    {
      "inputs": [
        {
          "internalType": "uint256",
          "name": "",
          "type": "uint256"
        }
      ],
      "name": "mintConditions",
      "outputs": [
        {
          "internalType": "uint256",
          "name": "startTimestamp",
          "type": "uint256"
        },
        {
          "internalType": "uint256",
          "name": "maxMintSupply",
          "type": "uint256"
        },
        {
          "internalType": "uint256",
          "name": "currentMintSupply",
          "type": "uint256"
        },
        {
          "internalType": "uint256",
          "name": "quantityLimitPerTransaction",
          "type": "uint256"
        },
        {
          "internalType": "uint256",
          "name": "waitTimeSecondsLimitPerTransaction",
          "type": "uint256"
        },
        {
          "internalType": "uint256",
          "name": "pricePerToken",
          "type": "uint256"
        },
        {
          "internalType": "address",
          "name": "currency",
          "type": "address"
        },
        {
          "internalType": "bytes32",
          "name": "merkleRoot",
          "type": "bytes32"
        }
      ],
      "stateMutability": "view",
      "type": "function"
    },
    {
      "inputs": [
        {
          "internalType": "bytes[]",
          "name": "data",
          "type": "bytes[]"
        }
      ],
      "name": "multicall",
      "outputs": [
        {
          "internalType": "bytes[]",
          "name": "results",
          "type": "bytes[]"
        }
      ],
      "stateMutability": "nonpayable",
      "type": "function"
    },
    {
      "inputs": [],
      "name": "name",
      "outputs": [
        {
          "internalType": "string",
          "name": "",
          "type": "string"
        }
      ],
      "stateMutability": "view",
      "type": "function"
    },
    {
      "inputs": [
        {
          "internalType": "address",
          "name": "",
          "type": "address"
        },
        {
          "internalType": "uint256",
          "name": "",
          "type": "uint256"
        }
      ],
      "name": "nextMintTimestampByCondition",
      "outputs": [
        {
          "internalType": "uint256",
          "name": "",
          "type": "uint256"
        }
      ],
      "stateMutability": "view",
      "type": "function"
    },
    {
      "inputs": [],
      "name": "nextMintTokenId",
      "outputs": [
        {
          "internalType": "uint256",
          "name": "",
          "type": "uint256"
        }
      ],
      "stateMutability": "view",
      "type": "function"
    },
    {
      "inputs": [],
      "name": "nextTokenId",
      "outputs": [
        {
          "internalType": "uint256",
          "name": "",
          "type": "uint256"
        }
      ],
      "stateMutability": "view",
      "type": "function"
    },
    {
      "inputs": [
        {
          "internalType": "uint256",
          "name": "tokenId",
          "type": "uint256"
        }
      ],
      "name": "ownerOf",
      "outputs": [
        {
          "internalType": "address",
          "name": "",
          "type": "address"
        }
      ],
      "stateMutability": "view",
      "type": "function"
    },
    {
      "inputs": [],
      "name": "pause",
      "outputs": [],
      "stateMutability": "nonpayable",
      "type": "function"
    },
    {
      "inputs": [],
      "name": "paused",
      "outputs": [
        {
          "internalType": "bool",
          "name": "",
          "type": "bool"
        }
      ],
      "stateMutability": "view",
      "type": "function"
    },
    {
      "inputs": [
        {
          "internalType": "bytes32",
          "name": "role",
          "type": "bytes32"
        },
        {
          "internalType": "address",
          "name": "account",
          "type": "address"
        }
      ],
      "name": "renounceRole",
      "outputs": [],
      "stateMutability": "nonpayable",
      "type": "function"
    },
    {
      "inputs": [
        {
          "internalType": "bytes32",
          "name": "role",
          "type": "bytes32"
        },
        {
          "internalType": "address",
          "name": "account",
          "type": "address"
        }
      ],
      "name": "revokeRole",
      "outputs": [],
      "stateMutability": "nonpayable",
      "type": "function"
    },
    {
      "inputs": [],
      "name": "royaltyBps",
      "outputs": [
        {
          "internalType": "uint256",
          "name": "",
          "type": "uint256"
        }
      ],
      "stateMutability": "view",
      "type": "function"
    },
    {
      "inputs": [
        {
          "internalType": "uint256",
          "name": "",
          "type": "uint256"
        },
        {
          "internalType": "uint256",
          "name": "salePrice",
          "type": "uint256"
        }
      ],
      "name": "royaltyInfo",
      "outputs": [
        {
          "internalType": "address",
          "name": "receiver",
          "type": "address"
        },
        {
          "internalType": "uint256",
          "name": "royaltyAmount",
          "type": "uint256"
        }
      ],
      "stateMutability": "view",
      "type": "function"
    },
    {
      "inputs": [
        {
          "internalType": "address",
          "name": "from",
          "type": "address"
        },
        {
          "internalType": "address",
          "name": "to",
          "type": "address"
        },
        {
          "internalType": "uint256",
          "name": "tokenId",
          "type": "uint256"
        }
      ],
      "name": "safeTransferFrom",
      "outputs": [],
      "stateMutability": "nonpayable",
      "type": "function"
    },
    {
      "inputs": [
        {
          "internalType": "address",
          "name": "from",
          "type": "address"
        },
        {
          "internalType": "address",
          "name": "to",
          "type": "address"
        },
        {
          "internalType": "uint256",
          "name": "tokenId",
          "type": "uint256"
        },
        {
          "internalType": "bytes",
          "name": "_data",
          "type": "bytes"
        }
      ],
      "name": "safeTransferFrom",
      "outputs": [],
      "stateMutability": "nonpayable",
      "type": "function"
    },
    {
      "inputs": [
        {
          "internalType": "address",
          "name": "operator",
          "type": "address"
        },
        {
          "internalType": "bool",
          "name": "approved",
          "type": "bool"
        }
      ],
      "name": "setApprovalForAll",
      "outputs": [],
      "stateMutability": "nonpayable",
      "type": "function"
    },
    {
      "inputs": [
        {
          "internalType": "string",
          "name": "_uri",
          "type": "string"
        }
      ],
      "name": "setBaseTokenURI",
      "outputs": [],
      "stateMutability": "nonpayable",
      "type": "function"
    },
    {
      "inputs": [
        {
          "internalType": "string",
          "name": "_URI",
          "type": "string"
        }
      ],
      "name": "setContractURI",
      "outputs": [],
      "stateMutability": "nonpayable",
      "type": "function"
    },
    {
      "inputs": [
        {
          "internalType": "uint256",
          "name": "maxSupply",
          "type": "uint256"
        }
      ],
      "name": "setMaxTotalSupply",
      "outputs": [],
      "stateMutability": "nonpayable",
      "type": "function"
    },
    {
      "inputs": [
        {
          "components": [
            {
              "internalType": "uint256",
              "name": "startTimestamp",
              "type": "uint256"
            },
            {
              "internalType": "uint256",
              "name": "maxMintSupply",
              "type": "uint256"
            },
            {
              "internalType": "uint256",
              "name": "currentMintSupply",
              "type": "uint256"
            },
            {
              "internalType": "uint256",
              "name": "quantityLimitPerTransaction",
              "type": "uint256"
            },
            {
              "internalType": "uint256",
              "name": "waitTimeSecondsLimitPerTransaction",
              "type": "uint256"
            },
            {
              "internalType": "uint256",
              "name": "pricePerToken",
              "type": "uint256"
            },
            {
              "internalType": "address",
              "name": "currency",
              "type": "address"
            },
            {
              "internalType": "bytes32",
              "name": "merkleRoot",
              "type": "bytes32"
            }
          ],
          "internalType": "struct LazyNFT.PublicMintCondition[]",
          "name": "conditions",
          "type": "tuple[]"
        }
      ],
      "name": "setPublicMintConditions",
      "outputs": [],
      "stateMutability": "nonpayable",
      "type": "function"
    },
    {
      "inputs": [
        {
          "internalType": "bool",
          "name": "_restrictedTransfer",
          "type": "bool"
        }
      ],
      "name": "setRestrictedTransfer",
      "outputs": [],
      "stateMutability": "nonpayable",
      "type": "function"
    },
    {
      "inputs": [
        {
          "internalType": "uint256",
          "name": "_royaltyBps",
          "type": "uint256"
        }
      ],
      "name": "setRoyaltyBps",
      "outputs": [],
      "stateMutability": "nonpayable",
      "type": "function"
    },
    {
      "inputs": [
        {
          "internalType": "bytes4",
          "name": "interfaceId",
          "type": "bytes4"
        }
      ],
      "name": "supportsInterface",
      "outputs": [
        {
          "internalType": "bool",
          "name": "",
          "type": "bool"
        }
      ],
      "stateMutability": "view",
      "type": "function"
    },
    {
      "inputs": [],
      "name": "symbol",
      "outputs": [
        {
          "internalType": "string",
          "name": "",
          "type": "string"
        }
      ],
      "stateMutability": "view",
      "type": "function"
    },
    {
      "inputs": [
        {
          "internalType": "uint256",
          "name": "index",
          "type": "uint256"
        }
      ],
      "name": "tokenByIndex",
      "outputs": [
        {
          "internalType": "uint256",
          "name": "",
          "type": "uint256"
        }
      ],
      "stateMutability": "view",
      "type": "function"
    },
    {
      "inputs": [
        {
          "internalType": "address",
          "name": "owner",
          "type": "address"
        },
        {
          "internalType": "uint256",
          "name": "index",
          "type": "uint256"
        }
      ],
      "name": "tokenOfOwnerByIndex",
      "outputs": [
        {
          "internalType": "uint256",
          "name": "",
          "type": "uint256"
        }
      ],
      "stateMutability": "view",
      "type": "function"
    },
    {
      "inputs": [
        {
          "internalType": "uint256",
          "name": "tokenId",
          "type": "uint256"
        }
      ],
      "name": "tokenURI",
      "outputs": [
        {
          "internalType": "string",
          "name": "",
          "type": "string"
        }
      ],
      "stateMutability": "view",
      "type": "function"
    },
    {
      "inputs": [],
      "name": "totalSupply",
      "outputs": [
        {
          "internalType": "uint256",
          "name": "",
          "type": "uint256"
        }
      ],
      "stateMutability": "view",
      "type": "function"
    },
    {
      "inputs": [
        {
          "internalType": "address",
          "name": "from",
          "type": "address"
        },
        {
          "internalType": "address",
          "name": "to",
          "type": "address"
        },
        {
          "internalType": "uint256",
          "name": "tokenId",
          "type": "uint256"
        }
      ],
      "name": "transferFrom",
      "outputs": [],
      "stateMutability": "nonpayable",
      "type": "function"
    },
    {
      "inputs": [],
      "name": "transfersRestricted",
      "outputs": [
        {
          "internalType": "bool",
          "name": "",
          "type": "bool"
        }
      ],
      "stateMutability": "view",
      "type": "function"
    },
    {
      "inputs": [],
      "name": "unpause",
      "outputs": [],
      "stateMutability": "nonpayable",
      "type": "function"
    },
    {
      "inputs": [],
      "name": "withdrawFunds",
      "outputs": [],
      "stateMutability": "nonpayable",
      "type": "function"
    }
  ],
  "bytecode": "0x60806040523480156200001157600080fd5b5060405162005884380380620058848339810160408190526200003491620004e9565b83868684828281600290805190602001906200005292919062000359565b5080516200006890600390602084019062000359565b5050600c805460ff191690555080516200008a90600e90602084019062000359565b50620000a160006200009b62000199565b620001b5565b620000d07f9f2df0fed2c77648de5860a4cc508cd0818c85b8b8a1ab4ceeef8d981c8956a66200009b62000199565b620000ff7f65d7a28e3265b37a6474929f336521b332c1681b933f6cb9f3376673440d862a6200009b62000199565b5050600f80546001600160a01b0319166001600160a01b0393841617905550600160105560118054610100600160a81b031916610100928a169290920291909117905582516200015790601790602086019062000359565b5060128190556200018c7f8502233096d909befbda0999bb8ea2f3a6be3c138b9fbf003752a4c8bce86f6c6200009b62000199565b505050505050506200060f565b6000620001b0620001f860201b62002f8f1760201c565b905090565b620001cc82826200023160201b62002fbc1760201c565b6000828152600160209081526040909120620001f391839062002fca62000241821b17901c565b505050565b600f546000906001600160a01b03163314156200021c575060131936013560601c90565b620001b06200026160201b62002fdf1760201c565b6200023d828262000265565b5050565b600062000258836001600160a01b03841662000307565b90505b92915050565b3390565b6000828152602081815260408083206001600160a01b038516845290915290205460ff166200023d576000828152602081815260408083206001600160a01b03851684529091529020805460ff19166001179055620002c362000199565b6001600160a01b0316816001600160a01b0316837f2f8788117e7eff1d82e926ec794901d17c78024a50270940304540a733656f0d60405160405180910390a45050565b600081815260018301602052604081205462000350575081546001818101845560008481526020808220909301849055845484825282860190935260409020919091556200025b565b5060006200025b565b8280546200036790620005d2565b90600052602060002090601f0160209004810192826200038b5760008555620003d6565b82601f10620003a657805160ff1916838001178555620003d6565b82800160010185558215620003d6579182015b82811115620003d6578251825591602001919060010190620003b9565b50620003e4929150620003e8565b5090565b5b80821115620003e45760008155600101620003e9565b80516001600160a01b03811681146200041757600080fd5b919050565b634e487b7160e01b600052604160045260246000fd5b600082601f8301126200044457600080fd5b81516001600160401b03808211156200046157620004616200041c565b604051601f8301601f19908116603f011681019082821181831017156200048c576200048c6200041c565b81604052838152602092508683858801011115620004a957600080fd5b600091505b83821015620004cd5785820183015181830184015290820190620004ae565b83821115620004df5760008385830101525b9695505050505050565b600080600080600080600060e0888a0312156200050557600080fd5b6200051088620003ff565b60208901519097506001600160401b03808211156200052e57600080fd5b6200053c8b838c0162000432565b975060408a01519150808211156200055357600080fd5b620005618b838c0162000432565b96506200057160608b01620003ff565b955060808a01519150808211156200058857600080fd5b620005968b838c0162000432565b945060a08a0151915080821115620005ad57600080fd5b50620005bc8a828b0162000432565b92505060c0880151905092959891949750929550565b600181811c90821680620005e757607f821691505b602082108114156200060957634e487b7160e01b600052602260045260246000fd5b50919050565b615265806200061f6000396000f3fe6080604052600436106103605760003560e01c80635c975abb116101c6578063a22cb465116100f7578063d539139311610095578063e88fbd411161006f578063e88fbd4114610a3d578063e8a3d48514610a53578063e985e9c514610a68578063fd59855014610ab157600080fd5b8063d5391393146109b5578063d547741f146109e9578063e63ab1e914610a0957600080fd5b8063b88d4fde116100d1578063b88d4fde1461093f578063c63adb2b1461095f578063c87b56dd14610975578063ca15c8731461099557600080fd5b8063a22cb465146108d2578063ac9650d8146108f2578063b7cdd0bc1461091f57600080fd5b80638456cb591161016457806391d148541161013e57806391d1485414610844578063938e3d7b1461088857806395d89b41146108a8578063a217fddf146108bd57600080fd5b80638456cb59146107ef5780638ba448c2146108045780639010d07c1461082457600080fd5b80636a627842116101a05780636a6278421461077f57806370a082311461079f57806375794a3c146107bf5780638423df79146107d557600080fd5b80635c975abb146107325780635da53d581461074a5780636352211e1461075f57600080fd5b80632a55205a116102a05780633f3e4c111161023e57806342966c681161021857806342966c68146106a35780634ce40a32146106c35780634f6ccce7146106e3578063572b6c051461070357600080fd5b80633f3e4c111461064e5780633f4ba83a1461066e57806342842e0e1461068357600080fd5b80632f52ebb71161027a5780632f52ebb7146105db5780632f745c59146105ee57806330176e131461060e57806336568abe1461062e57600080fd5b80632a55205a146105665780632ab4d052146105a55780632f2ff15d146105bb57600080fd5b80631edab0811161030d57806323b872dd116102e757806323b872dd146104e157806324600fc314610501578063248a9ca31461051657806326fa33ec1461054657600080fd5b80631edab081146104555780631f72d8311461048d578063206b60f9146104ad57600080fd5b8063095ea7b31161033e578063095ea7b3146103f45780630a5d64011461041657806318160ddd1461043657600080fd5b806301ffc9a71461036557806306fdde031461039a578063081812fc146103bc575b600080fd5b34801561037157600080fd5b50610385610380366004614922565b610b15565b60405190151581526020015b60405180910390f35b3480156103a657600080fd5b506103af610b41565b6040516103919190614997565b3480156103c857600080fd5b506103dc6103d73660046149aa565b610bd3565b6040516001600160a01b039091168152602001610391565b34801561040057600080fd5b5061041461040f3660046149d8565b610c6d565b005b34801561042257600080fd5b50610414610431366004614a04565b610d95565b34801561044257600080fd5b50600a545b604051908152602001610391565b34801561046157600080fd5b506104476104703660046149d8565b601660209081526000928352604080842090915290825290205481565b34801561049957600080fd5b506104146104a83660046149aa565b6111d0565b3480156104b957600080fd5b506104477f8502233096d909befbda0999bb8ea2f3a6be3c138b9fbf003752a4c8bce86f6c81565b3480156104ed57600080fd5b506104146104fc366004614a79565b61136a565b34801561050d57600080fd5b506104146113ec565b34801561052257600080fd5b506104476105313660046149aa565b60009081526020819052604090206001015490565b34801561055257600080fd5b50610414610561366004614aba565b6116d0565b34801561057257600080fd5b50610586610581366004614b1a565b611843565b604080516001600160a01b039093168352602083019190915201610391565b3480156105b157600080fd5b5061044760125481565b3480156105c757600080fd5b506104146105d6366004614b3c565b611982565b6104146105e9366004614bb8565b6119a4565b3480156105fa57600080fd5b506104476106093660046149d8565b611f7f565b34801561061a57600080fd5b50610414610629366004614aba565b612027565b34801561063a57600080fd5b50610414610649366004614b3c565b6120c3565b34801561065a57600080fd5b506104146106693660046149aa565b6120e5565b34801561067a57600080fd5b5061041461216c565b34801561068f57600080fd5b5061041461069e366004614a79565b612216565b3480156106af57600080fd5b506104146106be3660046149aa565b612231565b3480156106cf57600080fd5b506104146106de366004614c04565b6122ba565b3480156106ef57600080fd5b506104476106fe3660046149aa565b612467565b34801561070f57600080fd5b5061038561071e366004614c46565b600f546001600160a01b0391821691161490565b34801561073e57600080fd5b50600c5460ff16610385565b34801561075657600080fd5b5061044761250b565b34801561076b57600080fd5b506103dc61077a3660046149aa565b6125b4565b34801561078b57600080fd5b5061041461079a366004614c46565b61263f565b3480156107ab57600080fd5b506104476107ba366004614c46565b612687565b3480156107cb57600080fd5b5061044760135481565b3480156107e157600080fd5b506011546103859060ff1681565b3480156107fb57600080fd5b50610414612721565b34801561081057600080fd5b5061041461081f366004614c71565b6127c7565b34801561083057600080fd5b506103dc61083f366004614b1a565b61285a565b34801561085057600080fd5b5061038561085f366004614b3c565b6000918252602082815260408084206001600160a01b0393909316845291905290205460ff1690565b34801561089457600080fd5b506104146108a3366004614aba565b612879565b3480156108b457600080fd5b506103af6129fa565b3480156108c957600080fd5b50610447600081565b3480156108de57600080fd5b506104146108ed366004614c8e565b612a09565b3480156108fe57600080fd5b5061091261090d366004614c04565b612b0b565b6040516103919190614cbc565b34801561092b57600080fd5b5061041461093a3660046149aa565b612c00565b34801561094b57600080fd5b5061041461095a366004614d34565b612d54565b34801561096b57600080fd5b50610447601a5481565b34801561098157600080fd5b506103af6109903660046149aa565b612ddd565b3480156109a157600080fd5b506104476109b03660046149aa565b612efd565b3480156109c157600080fd5b506104477f9f2df0fed2c77648de5860a4cc508cd0818c85b8b8a1ab4ceeef8d981c8956a681565b3480156109f557600080fd5b50610414610a04366004614b3c565b612f14565b348015610a1557600080fd5b506104477f65d7a28e3265b37a6474929f336521b332c1681b933f6cb9f3376673440d862a81565b348015610a4957600080fd5b5061044760145481565b348015610a5f57600080fd5b506103af612f1e565b348015610a7457600080fd5b50610385610a83366004614e14565b6001600160a01b03918216600090815260076020908152604080832093909416825291909152205460ff1690565b348015610abd57600080fd5b50610ad1610acc3660046149aa565b612f2d565b604080519889526020890197909752958701949094526060860192909252608085015260a08401526001600160a01b031660c083015260e082015261010001610391565b6000610b2082612fe3565b80610b3b57506001600160e01b0319821663152a902d60e11b145b92915050565b606060028054610b5090614e42565b80601f0160208091040260200160405190810160405280929190818152602001828054610b7c90614e42565b8015610bc95780601f10610b9e57610100808354040283529160200191610bc9565b820191906000526020600020905b815481529060010190602001808311610bac57829003601f168201915b5050505050905090565b6000818152600460205260408120546001600160a01b0316610c515760405162461bcd60e51b815260206004820152602c60248201527f4552433732313a20617070726f76656420717565727920666f72206e6f6e657860448201526b34b9ba32b73a103a37b5b2b760a11b60648201526084015b60405180910390fd5b506000908152600660205260409020546001600160a01b031690565b6000610c78826125b4565b9050806001600160a01b0316836001600160a01b03161415610ce65760405162461bcd60e51b815260206004820152602160248201527f4552433732313a20617070726f76616c20746f2063757272656e74206f776e656044820152603960f91b6064820152608401610c48565b806001600160a01b0316610cf8612fee565b6001600160a01b03161480610d145750610d1481610a83612fee565b610d865760405162461bcd60e51b815260206004820152603860248201527f4552433732313a20617070726f76652063616c6c6572206973206e6f74206f7760448201527f6e6572206e6f7220617070726f76656420666f7220616c6c00000000000000006064820152608401610c48565b610d908383612ff8565b505050565b610da2600061085f612fee565b610de75760405162461bcd60e51b81526020600482015260166024820152756f6e6c79206d6f64756c652061646d696e20726f6c6560501b6044820152606401610c48565b80610e345760405162461bcd60e51b815260206004820152601f60248201527f4e46543a206e656564732061206c697374206f6620636f6e646974696f6e73006044820152606401610c48565b610e4060156000614802565b6000805b82811015611192578115610ee357838382818110610e6457610e64614e7d565b90506101000201600001358210610ee35760405162461bcd60e51b815260206004820152602e60248201527f4e46543a20737461727454696d657374616d70206d75737420626520696e206160448201527f7363656e64696e67206f726465720000000000000000000000000000000000006064820152608401610c48565b6000848483818110610ef757610ef7614e7d565b905061010002016020013511610f4f5760405162461bcd60e51b815260206004820181905260248201527f4e46543a206d6178206d696e7420737570706c792063616e6e6f7420626520306044820152606401610c48565b6000848483818110610f6357610f63614e7d565b905061010002016060013511610fbb5760405162461bcd60e51b815260206004820152601f60248201527f4e46543a207175616e74697479206c696d69742063616e6e6f742062652030006044820152606401610c48565b6015604051806101000160405280868685818110610fdb57610fdb614e7d565b610fef926101009091020135905042614ea9565b815260200186868581811061100657611006614e7d565b905061010002016020013581526020016000815260200186868581811061102f5761102f614e7d565b9050610100020160600135815260200186868581811061105157611051614e7d565b9050610100020160800135815260200186868581811061107357611073614e7d565b9050610100020160a00135815260200186868581811061109557611095614e7d565b9050610100020160c00160208101906110ae9190614c46565b6001600160a01b031681526020018686858181106110ce576110ce614e7d565b610100029190910160e0908101359092525082546001808201855560009485526020948590208451600890930201918255938301519381019390935560408201516002840155606082015160038401556080820151600484015560a0820151600584015560c08201516006840180546001600160a01b0319166001600160a01b03909216919091179055015160079091015583838281811061117257611172614e7d565b90506101000201600001359150808061118a90614ec1565b915050610e44565b507f795ebb3cd534c0d92268a24227e2bbdaaeea1845941e89f38d14abffec69340360156040516111c39190614edc565b60405180910390a1505050565b6111dd600061085f612fee565b6112225760405162461bcd60e51b81526020600482015260166024820152756f6e6c79206d6f64756c652061646d696e20726f6c6560501b6044820152606401610c48565b601160019054906101000a90046001600160a01b03166001600160a01b031663fd967f476040518163ffffffff1660e01b815260040160206040518083038186803b15801561127057600080fd5b505afa158015611284573d6000803e3d6000fd5b505050506040513d601f19601f820116820180604052508101906112a89190614f7a565b6fffffffffffffffffffffffffffffffff16811061132e5760405162461bcd60e51b815260206004820152602a60248201527f4e46543a204270732070726f7669646564206d757374206265206c657373207460448201527f68616e2031302c303030000000000000000000000000000000000000000000006064820152608401610c48565b601a8190556040518181527f244ea8d7627f5a08f4299862bd5a45752842c183aee5b0fb0d1e4887bfa605b3906020015b60405180910390a150565b61137b611375612fee565b82613066565b6113e15760405162461bcd60e51b815260206004820152603160248201527f4552433732313a207472616e736665722063616c6c6572206973206e6f74206f6044820152701ddb995c881b9bdc88185c1c1c9bdd9959607a1b6064820152608401610c48565b610d9083838361315d565b6011546040805163a217fddf60e01b815290516101009092046001600160a01b0316916391d1485491839163a217fddf91600480820192602092909190829003018186803b15801561143d57600080fd5b505afa158015611451573d6000803e3d6000fd5b505050506040513d601f19601f820116820180604052508101906114759190614fac565b61147d612fee565b6040516001600160e01b031960e085901b16815260048101929092526001600160a01b0316602482015260440160206040518083038186803b1580156114c257600080fd5b505afa1580156114d6573d6000803e3d6000fd5b505050506040513d601f19601f820116820180604052508101906114fa9190614fc5565b6115615760405162461bcd60e51b815260206004820152603260248201527f4e46543a206f6e6c7920612070726f746f636f6c2061646d696e2063616e206360448201527130b636103a3434b990333ab731ba34b7b71760711b6064820152608401610c48565b60115460405163f2aab4b360e01b815230600482015260009161010090046001600160a01b03169063f2aab4b39060240160206040518083038186803b1580156115aa57600080fd5b505afa1580156115be573d6000803e3d6000fd5b505050506040513d601f19601f820116820180604052508101906115e29190614fe2565b60405190915047906000906001600160a01b0384169083908381818185875af1925050503d8060008114611632576040519150601f19603f3d011682016040523d82523d6000602084013e611637565b606091505b50509050806116885760405162461bcd60e51b815260206004820152601d60248201527f4e46543a206661696c656420746f2077697468647261772066756e64730000006044820152606401610c48565b826001600160a01b03167feaff4b37086828766ad3268786972c0cd24259d4c87a80f9d3963a3c3d999b0d836040516116c391815260200190565b60405180910390a2505050565b600c5460ff16156117165760405162461bcd60e51b815260206004820152601060248201526f14185d5cd8589b194e881c185d5cd95960821b6044820152606401610c48565b6117427f9f2df0fed2c77648de5860a4cc508cd0818c85b8b8a1ab4ceeef8d981c8956a661085f612fee565b6117995760405162461bcd60e51b815260206004820152602260248201527f4e46543a206d7573742068617665206d696e74657220726f6c6520746f206d696044820152611b9d60f21b6064820152608401610c48565b6012546013546117aa906001614ea9565b111561180a5760405162461bcd60e51b815260206004820152602960248201527f4e46543a2063616e6e6f74206d696e74206d6f7265207468616e206d6178546f60448201526874616c537570706c7960b81b6064820152608401610c48565b6013546000908152601960205260409020611826908383614823565b5060016013600082825461183a9190614ea9565b90915550505050565b60115460405163f2aab4b360e01b815230600482015260009182916101009091046001600160a01b03169063f2aab4b39060240160206040518083038186803b15801561188f57600080fd5b505afa1580156118a3573d6000803e3d6000fd5b505050506040513d601f19601f820116820180604052508101906118c79190614fe2565b9150601160019054906101000a90046001600160a01b03166001600160a01b031663fd967f476040518163ffffffff1660e01b815260040160206040518083038186803b15801561191757600080fd5b505afa15801561192b573d6000803e3d6000fd5b505050506040513d601f19601f8201168201806040525081019061194f9190614f7a565b6fffffffffffffffffffffffffffffffff16601a548461196f9190614fff565b6119799190615034565b90509250929050565b61198c828261331c565b6000828152600160205260409020610d909082612fca565b600260105414156119f75760405162461bcd60e51b815260206004820152601f60248201527f5265656e7472616e637947756172643a207265656e7472616e742063616c6c006044820152606401610c48565b6002601055600c5460ff1615611a425760405162461bcd60e51b815260206004820152601060248201526f14185d5cd8589b194e881c185d5cd95960821b6044820152606401610c48565b6000611a4c61250b565b9050600060158281548110611a6357611a63614e7d565b600091825260209182902060408051610100810182526008909302909101805483526001810154938301939093526002830154908201526003820154606082015260048201546080820152600582015460a082015260068201546001600160a01b031660c082015260079091015460e0820152905084611b255760405162461bcd60e51b815260206004820152601960248201527f4e46543a207175616e746974792063616e6e6f742062652030000000000000006044820152606401610c48565b60125485601454611b369190614ea9565b1115611b925760405162461bcd60e51b815260206004820152602560248201527f4e46543a20657863656564696e6720746f74616c206d617820737570706c79206044820152641b1a5b5a5d60da1b6064820152608401610c48565b60135485601454611ba39190614ea9565b1115611bf15760405162461bcd60e51b815260206004820181905260248201527f4e46543a2063616e6e6f7420636c61696d20756e6d696e74656420746f6b656e6044820152606401610c48565b8060600151851115611c455760405162461bcd60e51b815260206004820152601b60248201527f4e46543a20657863656564696e6720737570706c79206c696d697400000000006044820152606401610c48565b8060200151858260400151611c5a9190614ea9565b1115611ca85760405162461bcd60e51b815260206004820152601e60248201527f4e46543a20657863656564696e67206d6178206d696e7420737570706c7900006044820152606401610c48565b600060166000611cb6612fee565b6001600160a01b03168152602080820192909252604090810160009081208682529092529020549050801580611cec5750804210155b611d475760405162461bcd60e51b815260206004820152602660248201527f4e46543a2063616e6e6f74206d696e74207965742064756520746f2074696d65604482015265081b1a5b5a5d60d21b6064820152608401610c48565b60e082015115611e2a576000611d5b612fee565b604051602001611d83919060609190911b6bffffffffffffffffffffffff1916815260140190565b604051602081830303815290604052805190602001209050611ddc86868080602002602001604051908101604052809392919081815260200183836020028082843760009201919091525050505060e085015183613349565b611e285760405162461bcd60e51b815260206004820152601a60248201527f4e46543a20696e76616c6964206d65726b6c652070726f6f66730000000000006044820152606401610c48565b505b60a082015115611e5157611e518260c001518360a0015188611e4c9190614fff565b6133f8565b8560158481548110611e6557611e65614e7d565b90600052602060002090600802016002016000828254611e859190614ea9565b90915550506080820151611e999042614ea9565b60166000611ea5612fee565b6001600160a01b0316815260208082019290925260409081016000908120878252909252812091909155601454905b87811015611f1a57611eef611ee7612fee565b6014546135be565b600160146000828254611f029190614ea9565b90915550819050611f1281614ec1565b915050611ed4565b50611f23612fee565b60408051838152602081018a90529081018690526001600160a01b0391909116907f9cdcf2f7714cca3508c7f0110b04a90a80a3a8dd0e35de99689db74d28c5383e9060600160405180910390a2505060016010555050505050565b6000611f8a83612687565b8210611ffe5760405162461bcd60e51b815260206004820152602b60248201527f455243373231456e756d657261626c653a206f776e657220696e646578206f7560448201527f74206f6620626f756e64730000000000000000000000000000000000000000006064820152608401610c48565b506001600160a01b03919091166000908152600860209081526040808320938352929052205490565b612034600061085f612fee565b6120795760405162461bcd60e51b81526020600482015260166024820152756f6e6c79206d6f64756c652061646d696e20726f6c6560501b6044820152606401610c48565b61208560188383614823565b507fe6e4cd5c2dc7d2c20519b41832cd550fd3ea1186bf299d108179bf71fb8e00e582826040516120b7929190615048565b60405180910390a15050565b6120cd82826135d8565b6000828152600160205260409020610d909082613670565b6120f2600061085f612fee565b6121375760405162461bcd60e51b81526020600482015260166024820152756f6e6c79206d6f64756c652061646d696e20726f6c6560501b6044820152606401610c48565b60128190556040518181527ff8cbdbee6d402ad22cddbc250098e39cd0d24f0fad122f64794577167c605df99060200161135f565b6121987f65d7a28e3265b37a6474929f336521b332c1681b933f6cb9f3376673440d862a61085f612fee565b61220c576040805162461bcd60e51b81526020600482015260248101919091527f4552433732315072657365744d696e7465725061757365724175746f49643a2060448201527f6d75737420686176652070617573657220726f6c6520746f20756e70617573656064820152608401610c48565b612214613685565b565b610d9083838360405180602001604052806000815250612d54565b61223c611375612fee565b6122ae5760405162461bcd60e51b815260206004820152603060248201527f4552433732314275726e61626c653a2063616c6c6572206973206e6f74206f7760448201527f6e6572206e6f7220617070726f766564000000000000000000000000000000006064820152608401610c48565b6122b781613727565b50565b600c5460ff16156123005760405162461bcd60e51b815260206004820152601060248201526f14185d5cd8589b194e881c185d5cd95960821b6044820152606401610c48565b61232c7f9f2df0fed2c77648de5860a4cc508cd0818c85b8b8a1ab4ceeef8d981c8956a661085f612fee565b6123835760405162461bcd60e51b815260206004820152602260248201527f4e46543a206d7573742068617665206d696e74657220726f6c6520746f206d696044820152611b9d60f21b6064820152608401610c48565b601254601354612394908390614ea9565b11156123f45760405162461bcd60e51b815260206004820152602960248201527f4e46543a2063616e6e6f74206d696e74206d6f7265207468616e206d6178546f60448201526874616c537570706c7960b81b6064820152608401610c48565b60135460005b8281101561245f5783838281811061241457612414614e7d565b90506020028101906124269190615077565b600084815260196020526040902061243f929091614823565b5061244b600183614ea9565b91508061245781614ec1565b9150506123fa565b506013555050565b6000612472600a5490565b82106124e65760405162461bcd60e51b815260206004820152602c60248201527f455243373231456e756d657261626c653a20676c6f62616c20696e646578206f60448201527f7574206f6620626f756e647300000000000000000000000000000000000000006064820152608401610c48565b600a82815481106124f9576124f9614e7d565b90600052602060002001549050919050565b60155460009061255d5760405162461bcd60e51b815260206004820152601d60248201527f4e46543a206e6f207075626c6963206d696e7420636f6e646974696f6e0000006044820152606401610c48565b60155460009061256f906001906150be565b90505b6015818154811061258557612585614e7d565b90600052602060002090600802016000015442106125a257919050565b806125ac816150d5565b915050612572565b6000818152600460205260408120546001600160a01b031680610b3b5760405162461bcd60e51b815260206004820152602960248201527f4552433732313a206f776e657220717565727920666f72206e6f6e657869737460448201527f656e7420746f6b656e00000000000000000000000000000000000000000000006064820152608401610c48565b60405162461bcd60e51b815260206004820152600a60248201527f4e46543a20636c61696d000000000000000000000000000000000000000000006044820152606401610c48565b60006001600160a01b0382166127055760405162461bcd60e51b815260206004820152602a60248201527f4552433732313a2062616c616e636520717565727920666f7220746865207a6560448201527f726f2061646472657373000000000000000000000000000000000000000000006064820152608401610c48565b506001600160a01b031660009081526005602052604090205490565b61274d7f65d7a28e3265b37a6474929f336521b332c1681b933f6cb9f3376673440d862a61085f612fee565b6127bf5760405162461bcd60e51b815260206004820152603e60248201527f4552433732315072657365744d696e7465725061757365724175746f49643a2060448201527f6d75737420686176652070617573657220726f6c6520746f20706175736500006064820152608401610c48565b6122146137ce565b6127d4600061085f612fee565b6128195760405162461bcd60e51b81526020600482015260166024820152756f6e6c79206d6f64756c652061646d696e20726f6c6560501b6044820152606401610c48565b6011805460ff19168215159081179091556040519081527ffb4ba02cee22486df888d7ffb97c6100ec3193781e025cb9a4bc6fc358d626cc9060200161135f565b6000828152600160205260408120612872908361384a565b9392505050565b6011546040805163a217fddf60e01b815290516101009092046001600160a01b0316916391d1485491839163a217fddf91600480820192602092909190829003018186803b1580156128ca57600080fd5b505afa1580156128de573d6000803e3d6000fd5b505050506040513d601f19601f820116820180604052508101906129029190614fac565b61290a612fee565b6040516001600160e01b031960e085901b16815260048101929092526001600160a01b0316602482015260440160206040518083038186803b15801561294f57600080fd5b505afa158015612963573d6000803e3d6000fd5b505050506040513d601f19601f820116820180604052508101906129879190614fc5565b6129ee5760405162461bcd60e51b815260206004820152603260248201527f4e46543a206f6e6c7920612070726f746f636f6c2061646d696e2063616e206360448201527130b636103a3434b990333ab731ba34b7b71760711b6064820152608401610c48565b610d9060178383614823565b606060038054610b5090614e42565b612a11612fee565b6001600160a01b0316826001600160a01b03161415612a725760405162461bcd60e51b815260206004820152601960248201527f4552433732313a20617070726f766520746f2063616c6c6572000000000000006044820152606401610c48565b8060076000612a7f612fee565b6001600160a01b03908116825260208083019390935260409182016000908120918716808252919093529120805460ff191692151592909217909155612ac3612fee565b6001600160a01b03167f17307eab39ab6107e8899845ad3d59bd9653f200f220920489ca2b5937696c3183604051612aff911515815260200190565b60405180910390a35050565b60608167ffffffffffffffff811115612b2657612b26614d1e565b604051908082528060200260200182016040528015612b5957816020015b6060815260200190600190039081612b445790505b50905060005b82811015612bf957612bc930858584818110612b7d57612b7d614e7d565b9050602002810190612b8f9190615077565b8080601f01602080910402602001604051908101604052809392919081815260200183838082843760009201919091525061385692505050565b828281518110612bdb57612bdb614e7d565b60200260200101819052508080612bf190614ec1565b915050612b5f565b5092915050565b600c5460ff1615612c465760405162461bcd60e51b815260206004820152601060248201526f14185d5cd8589b194e881c185d5cd95960821b6044820152606401610c48565b612c727f9f2df0fed2c77648de5860a4cc508cd0818c85b8b8a1ab4ceeef8d981c8956a661085f612fee565b612cc95760405162461bcd60e51b815260206004820152602260248201527f4e46543a206d7573742068617665206d696e74657220726f6c6520746f206d696044820152611b9d60f21b6064820152608401610c48565b60125481601354612cda9190614ea9565b1115612d3a5760405162461bcd60e51b815260206004820152602960248201527f4e46543a2063616e6e6f74206d696e74206d6f7265207468616e206d6178546f60448201526874616c537570706c7960b81b6064820152608401610c48565b8060136000828254612d4c9190614ea9565b909155505050565b612d65612d5f612fee565b83613066565b612dcb5760405162461bcd60e51b815260206004820152603160248201527f4552433732313a207472616e736665722063616c6c6572206973206e6f74206f6044820152701ddb995c881b9bdc88185c1c1c9bdd9959607a1b6064820152608401610c48565b612dd78484848461387b565b50505050565b60606000612de96138f9565b600084815260196020526040812080549293509091612e0790614e42565b90501115612eae5760008381526019602052604090208054612e2890614e42565b80601f0160208091040260200160405190810160405280929190818152602001828054612e5490614e42565b8015612ea15780601f10612e7657610100808354040283529160200191612ea1565b820191906000526020600020905b815481529060010190602001808311612e8457829003601f168201915b5050505050915050919050565b805115612ee75780612ebf84613908565b604051602001612ed09291906150ec565b604051602081830303815290604052915050919050565b5050604080516020810190915260008152919050565b6000818152600160205260408120610b3b90613a06565b6120cd8282613a10565b606060178054610b5090614e42565b60158181548110612f3d57600080fd5b600091825260209091206008909102018054600182015460028301546003840154600485015460058601546006870154600790970154959750939592949193909290916001600160a01b039091169088565b600f546000906001600160a01b0316331415612fb2575060131936013560601c90565b503390565b905090565b612fc68282613a38565b5050565b6000612872836001600160a01b038416613ad7565b3390565b6000610b3b82613b26565b6000612fb7612f8f565b600081815260066020526040902080546001600160a01b0319166001600160a01b038416908117909155819061302d826125b4565b6001600160a01b03167f8c5be1e5ebec7d5bd14f71427d1e84f3dd0314c0f7b2291e5b200ac8c7c3b92560405160405180910390a45050565b6000818152600460205260408120546001600160a01b03166130df5760405162461bcd60e51b815260206004820152602c60248201527f4552433732313a206f70657261746f7220717565727920666f72206e6f6e657860448201526b34b9ba32b73a103a37b5b2b760a11b6064820152608401610c48565b60006130ea836125b4565b9050806001600160a01b0316846001600160a01b031614806131255750836001600160a01b031661311a84610bd3565b6001600160a01b0316145b8061315557506001600160a01b0380821660009081526007602090815260408083209388168352929052205460ff165b949350505050565b826001600160a01b0316613170826125b4565b6001600160a01b0316146131ec5760405162461bcd60e51b815260206004820152602960248201527f4552433732313a207472616e73666572206f6620746f6b656e2074686174206960448201527f73206e6f74206f776e00000000000000000000000000000000000000000000006064820152608401610c48565b6001600160a01b03821661324e5760405162461bcd60e51b8152602060048201526024808201527f4552433732313a207472616e7366657220746f20746865207a65726f206164646044820152637265737360e01b6064820152608401610c48565b613259838383613b4b565b613264600082612ff8565b6001600160a01b038316600090815260056020526040812080546001929061328d9084906150be565b90915550506001600160a01b03821660009081526005602052604081208054600192906132bb908490614ea9565b909155505060008181526004602052604080822080546001600160a01b0319166001600160a01b0386811691821790925591518493918716917fddf252ad1be2c89b69c2b068fc378daa952ba7f163c4a11628f55a4df523b3ef91a4505050565b60008281526020819052604090206001015461333f8161333a612fee565b613c78565b610d908383613a38565b600081815b85518110156133ed57600086828151811061336b5761336b614e7d565b602002602001015190508083116133ad5760408051602081018590529081018290526060016040516020818303038152906040528051906020012092506133da565b60408051602081018390529081018490526060016040516020818303038152906040528051906020012092505b50806133e581614ec1565b91505061334e565b509092149392505050565b6001600160a01b03821661345557803414612fc65760405162461bcd60e51b815260206004820152601560248201527f4e46543a206e6f7420656e6f7567682076616c756500000000000000000000006044820152606401610c48565b816001600160a01b03166323b872dd61346c612fee565b60115460405163f2aab4b360e01b81523060048201526101009091046001600160a01b03169063f2aab4b39060240160206040518083038186803b1580156134b357600080fd5b505afa1580156134c7573d6000803e3d6000fd5b505050506040513d601f19601f820116820180604052508101906134eb9190614fe2565b6040516001600160e01b031960e085901b1681526001600160a01b0392831660048201529116602482015260448101849052606401602060405180830381600087803b15801561353a57600080fd5b505af115801561354e573d6000803e3d6000fd5b505050506040513d601f19601f820116820180604052508101906135729190614fc5565b612fc65760405162461bcd60e51b815260206004820152601f60248201527f4e46543a206661696c656420746f207472616e73666572207061796d656e74006044820152606401610c48565b612fc6828260405180602001604052806000815250613cf6565b6135e0612fee565b6001600160a01b0316816001600160a01b0316146136665760405162461bcd60e51b815260206004820152602f60248201527f416363657373436f6e74726f6c3a2063616e206f6e6c792072656e6f756e636560448201527f20726f6c657320666f722073656c6600000000000000000000000000000000006064820152608401610c48565b612fc68282613d74565b6000612872836001600160a01b038416613e11565b600c5460ff166136d75760405162461bcd60e51b815260206004820152601460248201527f5061757361626c653a206e6f74207061757365640000000000000000000000006044820152606401610c48565b600c805460ff191690557f5db9ee0a495bf2e6ff9c91a7834c1ba4fdd244a5e8aa4e537bd38aeae4b073aa61370a612fee565b6040516001600160a01b03909116815260200160405180910390a1565b6000613732826125b4565b905061374081600084613b4b565b61374b600083612ff8565b6001600160a01b03811660009081526005602052604081208054600192906137749084906150be565b909155505060008281526004602052604080822080546001600160a01b0319169055518391906001600160a01b038416907fddf252ad1be2c89b69c2b068fc378daa952ba7f163c4a11628f55a4df523b3ef908390a45050565b600c5460ff16156138145760405162461bcd60e51b815260206004820152601060248201526f14185d5cd8589b194e881c185d5cd95960821b6044820152606401610c48565b600c805460ff191660011790557f62e78cea01bee320cd4e420270b5ea74000d11b0c9f74754ebdbfc544b05a25861370a612fee565b60006128728383613f04565b6060612872838360405180606001604052806027815260200161523260279139613f2e565b61388684848461315d565b61389284848484614002565b612dd75760405162461bcd60e51b815260206004820152603260248201527f4552433732313a207472616e7366657220746f206e6f6e20455243373231526560448201527131b2b4bb32b91034b6b83632b6b2b73a32b960711b6064820152608401610c48565b606060188054610b5090614e42565b60608161392c5750506040805180820190915260018152600360fc1b602082015290565b8160005b8115613956578061394081614ec1565b915061394f9050600a83615034565b9150613930565b60008167ffffffffffffffff81111561397157613971614d1e565b6040519080825280601f01601f19166020018201604052801561399b576020820181803683370190505b5090505b8415613155576139b06001836150be565b91506139bd600a8661511b565b6139c8906030614ea9565b60f81b8183815181106139dd576139dd614e7d565b60200101906001600160f81b031916908160001a9053506139ff600a86615034565b945061399f565b6000610b3b825490565b600082815260208190526040902060010154613a2e8161333a612fee565b610d908383613d74565b6000828152602081815260408083206001600160a01b038516845290915290205460ff16612fc6576000828152602081815260408083206001600160a01b03851684529091529020805460ff19166001179055613a93612fee565b6001600160a01b0316816001600160a01b0316837f2f8788117e7eff1d82e926ec794901d17c78024a50270940304540a733656f0d60405160405180910390a45050565b6000818152600183016020526040812054613b1e57508154600181810184556000848152602080822090930184905584548482528286019093526040902091909155610b3b565b506000610b3b565b60006001600160e01b0319821663780e9d6360e01b1480610b3b5750610b3b82614161565b613b568383836141a1565b60115460ff168015613b7057506001600160a01b03831615155b8015613b8457506001600160a01b03821615155b15610d90576001600160a01b03831660009081527f7c7a990f752005aea38438cc35abc5417bd322e6c964ec21d52573494225142c602052604090205460ff1680613c0657506001600160a01b03821660009081527f7c7a990f752005aea38438cc35abc5417bd322e6c964ec21d52573494225142c602052604090205460ff165b610d905760405162461bcd60e51b815260206004820152603660248201527f4e46543a205472616e736665727320617265207265737472696374656420746f60448201527f205452414e534645525f524f4c4520686f6c64657273000000000000000000006064820152608401610c48565b6000828152602081815260408083206001600160a01b038516845290915290205460ff16612fc657613cb4816001600160a01b031660146141ac565b613cbf8360206141ac565b604051602001613cd092919061512f565b60408051601f198184030181529082905262461bcd60e51b8252610c4891600401614997565b613d008383614355565b613d0d6000848484614002565b610d905760405162461bcd60e51b815260206004820152603260248201527f4552433732313a207472616e7366657220746f206e6f6e20455243373231526560448201527131b2b4bb32b91034b6b83632b6b2b73a32b960711b6064820152608401610c48565b6000828152602081815260408083206001600160a01b038516845290915290205460ff1615612fc6576000828152602081815260408083206001600160a01b03851684529091529020805460ff19169055613dcd612fee565b6001600160a01b0316816001600160a01b0316837ff6391f5c32d9c69d2a47ea670b442974b53935d1edc7fd64eb21e047a839171b60405160405180910390a45050565b60008181526001830160205260408120548015613efa576000613e356001836150be565b8554909150600090613e49906001906150be565b9050818114613eae576000866000018281548110613e6957613e69614e7d565b9060005260206000200154905080876000018481548110613e8c57613e8c614e7d565b6000918252602080832090910192909255918252600188019052604090208390555b8554869080613ebf57613ebf6151b0565b600190038181906000526020600020016000905590558560010160008681526020019081526020016000206000905560019350505050610b3b565b6000915050610b3b565b6000826000018281548110613f1b57613f1b614e7d565b9060005260206000200154905092915050565b6060833b613f8d5760405162461bcd60e51b815260206004820152602660248201527f416464726573733a2064656c65676174652063616c6c20746f206e6f6e2d636f6044820152651b9d1c9858dd60d21b6064820152608401610c48565b600080856001600160a01b031685604051613fa891906151c6565b600060405180830381855af49150503d8060008114613fe3576040519150601f19603f3d011682016040523d82523d6000602084013e613fe8565b606091505b5091509150613ff88282866144a3565b9695505050505050565b60006001600160a01b0384163b1561415657836001600160a01b031663150b7a0261402b612fee565b8786866040518563ffffffff1660e01b815260040161404d94939291906151e2565b602060405180830381600087803b15801561406757600080fd5b505af1925050508015614097575060408051601f3d908101601f1916820190925261409491810190615214565b60015b61413c573d8080156140c5576040519150601f19603f3d011682016040523d82523d6000602084013e6140ca565b606091505b5080516141345760405162461bcd60e51b815260206004820152603260248201527f4552433732313a207472616e7366657220746f206e6f6e20455243373231526560448201527131b2b4bb32b91034b6b83632b6b2b73a32b960711b6064820152608401610c48565b805181602001fd5b6001600160e01b031916630a85bd0160e11b149050613155565b506001949350505050565b60006001600160e01b031982166380ac58cd60e01b148061419257506001600160e01b03198216635b5e139f60e01b145b80610b3b5750610b3b826144dc565b610d90838383614501565b606060006141bb836002614fff565b6141c6906002614ea9565b67ffffffffffffffff8111156141de576141de614d1e565b6040519080825280601f01601f191660200182016040528015614208576020820181803683370190505b509050600360fc1b8160008151811061422357614223614e7d565b60200101906001600160f81b031916908160001a905350600f60fb1b8160018151811061425257614252614e7d565b60200101906001600160f81b031916908160001a9053506000614276846002614fff565b614281906001614ea9565b90505b6001811115614306577f303132333435363738396162636465660000000000000000000000000000000085600f16601081106142c2576142c2614e7d565b1a60f81b8282815181106142d8576142d8614e7d565b60200101906001600160f81b031916908160001a90535060049490941c936142ff816150d5565b9050614284565b5083156128725760405162461bcd60e51b815260206004820181905260248201527f537472696e67733a20686578206c656e67746820696e73756666696369656e746044820152606401610c48565b6001600160a01b0382166143ab5760405162461bcd60e51b815260206004820181905260248201527f4552433732313a206d696e7420746f20746865207a65726f20616464726573736044820152606401610c48565b6000818152600460205260409020546001600160a01b0316156144105760405162461bcd60e51b815260206004820152601c60248201527f4552433732313a20746f6b656e20616c7265616479206d696e746564000000006044820152606401610c48565b61441c60008383613b4b565b6001600160a01b0382166000908152600560205260408120805460019290614445908490614ea9565b909155505060008181526004602052604080822080546001600160a01b0319166001600160a01b03861690811790915590518392907fddf252ad1be2c89b69c2b068fc378daa952ba7f163c4a11628f55a4df523b3ef908290a45050565b606083156144b2575081612872565b8251156144c25782518084602001fd5b8160405162461bcd60e51b8152600401610c489190614997565b60006001600160e01b03198216635a05180f60e01b1480610b3b5750610b3b82614585565b61450c8383836145ba565b600c5460ff1615610d905760405162461bcd60e51b815260206004820152602b60248201527f4552433732315061757361626c653a20746f6b656e207472616e73666572207760448201527f68696c65207061757365640000000000000000000000000000000000000000006064820152608401610c48565b60006001600160e01b03198216637965db0b60e01b1480610b3b57506301ffc9a760e01b6001600160e01b0319831614610b3b565b6001600160a01b0383166146155761461081600a80546000838152600b60205260408120829055600182018355919091527fc65a7bb8d6351c1cf70c95a316cc6a92839c986682d98bc35f958f4883f9d2a80155565b614638565b816001600160a01b0316836001600160a01b031614614638576146388382614672565b6001600160a01b03821661464f57610d908161470f565b826001600160a01b0316826001600160a01b031614610d9057610d9082826147be565b6000600161467f84612687565b61468991906150be565b6000838152600960205260409020549091508082146146dc576001600160a01b03841660009081526008602090815260408083208584528252808320548484528184208190558352600990915290208190555b5060009182526009602090815260408084208490556001600160a01b039094168352600881528383209183525290812055565b600a54600090614721906001906150be565b6000838152600b6020526040812054600a805493945090928490811061474957614749614e7d565b9060005260206000200154905080600a838154811061476a5761476a614e7d565b6000918252602080832090910192909255828152600b9091526040808220849055858252812055600a8054806147a2576147a26151b0565b6001900381819060005260206000200160009055905550505050565b60006147c983612687565b6001600160a01b039093166000908152600860209081526040808320868452825280832085905593825260099052919091209190915550565b50805460008255600802906000526020600020908101906122b791906148a7565b82805461482f90614e42565b90600052602060002090601f0160209004810192826148515760008555614897565b82601f1061486a5782800160ff19823516178555614897565b82800160010185558215614897579182015b8281111561489757823582559160200191906001019061487c565b506148a39291506148f7565b5090565b5b808211156148a357600080825560018201819055600282018190556003820181905560048201819055600582018190556006820180546001600160a01b031916905560078201556008016148a8565b5b808211156148a357600081556001016148f8565b6001600160e01b0319811681146122b757600080fd5b60006020828403121561493457600080fd5b81356128728161490c565b60005b8381101561495a578181015183820152602001614942565b83811115612dd75750506000910152565b6000815180845261498381602086016020860161493f565b601f01601f19169290920160200192915050565b602081526000612872602083018461496b565b6000602082840312156149bc57600080fd5b5035919050565b6001600160a01b03811681146122b757600080fd5b600080604083850312156149eb57600080fd5b82356149f6816149c3565b946020939093013593505050565b60008060208385031215614a1757600080fd5b823567ffffffffffffffff80821115614a2f57600080fd5b818501915085601f830112614a4357600080fd5b813581811115614a5257600080fd5b8660208260081b8501011115614a6757600080fd5b60209290920196919550909350505050565b600080600060608486031215614a8e57600080fd5b8335614a99816149c3565b92506020840135614aa9816149c3565b929592945050506040919091013590565b60008060208385031215614acd57600080fd5b823567ffffffffffffffff80821115614ae557600080fd5b818501915085601f830112614af957600080fd5b813581811115614b0857600080fd5b866020828501011115614a6757600080fd5b60008060408385031215614b2d57600080fd5b50508035926020909101359150565b60008060408385031215614b4f57600080fd5b823591506020830135614b61816149c3565b809150509250929050565b60008083601f840112614b7e57600080fd5b50813567ffffffffffffffff811115614b9657600080fd5b6020830191508360208260051b8501011115614bb157600080fd5b9250929050565b600080600060408486031215614bcd57600080fd5b83359250602084013567ffffffffffffffff811115614beb57600080fd5b614bf786828701614b6c565b9497909650939450505050565b60008060208385031215614c1757600080fd5b823567ffffffffffffffff811115614c2e57600080fd5b614c3a85828601614b6c565b90969095509350505050565b600060208284031215614c5857600080fd5b8135612872816149c3565b80151581146122b757600080fd5b600060208284031215614c8357600080fd5b813561287281614c63565b60008060408385031215614ca157600080fd5b8235614cac816149c3565b91506020830135614b6181614c63565b6000602080830181845280855180835260408601915060408160051b870101925083870160005b82811015614d1157603f19888603018452614cff85835161496b565b94509285019290850190600101614ce3565b5092979650505050505050565b634e487b7160e01b600052604160045260246000fd5b60008060008060808587031215614d4a57600080fd5b8435614d55816149c3565b93506020850135614d65816149c3565b925060408501359150606085013567ffffffffffffffff80821115614d8957600080fd5b818701915087601f830112614d9d57600080fd5b813581811115614daf57614daf614d1e565b604051601f8201601f19908116603f01168101908382118183101715614dd757614dd7614d1e565b816040528281528a6020848701011115614df057600080fd5b82602086016020830137600060208483010152809550505050505092959194509250565b60008060408385031215614e2757600080fd5b8235614e32816149c3565b91506020830135614b61816149c3565b600181811c90821680614e5657607f821691505b60208210811415614e7757634e487b7160e01b600052602260045260246000fd5b50919050565b634e487b7160e01b600052603260045260246000fd5b634e487b7160e01b600052601160045260246000fd5b60008219821115614ebc57614ebc614e93565b500190565b6000600019821415614ed557614ed5614e93565b5060010190565b60006020808301818452808554808352604092508286019150866000528360002060005b82811015614f6d5781548452600180830154878601526002830154868601526003830154606086015260048301546080860152600583015460a086015260068301546001600160a01b031660c0860152600783015460e08601526101009094019360089092019101614f00565b5091979650505050505050565b600060208284031215614f8c57600080fd5b81516fffffffffffffffffffffffffffffffff8116811461287257600080fd5b600060208284031215614fbe57600080fd5b5051919050565b600060208284031215614fd757600080fd5b815161287281614c63565b600060208284031215614ff457600080fd5b8151612872816149c3565b600081600019048311821515161561501957615019614e93565b500290565b634e487b7160e01b600052601260045260246000fd5b6000826150435761504361501e565b500490565b60208152816020820152818360408301376000818301604090810191909152601f909201601f19160101919050565b6000808335601e1984360301811261508e57600080fd5b83018035915067ffffffffffffffff8211156150a957600080fd5b602001915036819003821315614bb157600080fd5b6000828210156150d0576150d0614e93565b500390565b6000816150e4576150e4614e93565b506000190190565b600083516150fe81846020880161493f565b83519083019061511281836020880161493f565b01949350505050565b60008261512a5761512a61501e565b500690565b7f416363657373436f6e74726f6c3a206163636f756e742000000000000000000081526000835161516781601785016020880161493f565b7f206973206d697373696e6720726f6c652000000000000000000000000000000060179184019182015283516151a481602884016020880161493f565b01602801949350505050565b634e487b7160e01b600052603160045260246000fd5b600082516151d881846020870161493f565b9190910192915050565b60006001600160a01b03808716835280861660208401525083604083015260806060830152613ff8608083018461496b565b60006020828403121561522657600080fd5b81516128728161490c56fe416464726573733a206c6f772d6c6576656c2064656c65676174652063616c6c206661696c6564a164736f6c6343000809000a",
  "linkReferences": {},
  "deployedLinkReferences": {}
}