{
  "_format": "hh-sol-artifact-1",
  "contractName": "LazyNFT",
  "sourceName": "contracts/LazyNFT.sol",
  "abi": [
    {
      "inputs": [
        {
          "internalType": "address payable",
          "name": "_controlCenter",
          "type": "address"
        },
        {
          "internalType": "string",
          "name": "_name",
          "type": "string"
        },
        {
          "internalType": "string",
          "name": "_symbol",
          "type": "string"
        },
        {
          "internalType": "address",
          "name": "_trustedForwarder",
          "type": "address"
        },
        {
          "internalType": "string",
          "name": "_contractUri",
          "type": "string"
        },
        {
          "internalType": "string",
          "name": "_baseTokenUri",
          "type": "string"
        },
        {
          "internalType": "uint256",
          "name": "_maxSupply",
          "type": "uint256"
        },
        {
          "internalType": "uint256",
          "name": "_royaltyBps",
          "type": "uint256"
        },
        {
          "internalType": "address",
          "name": "_saleRecipient",
          "type": "address"
        }
      ],
      "stateMutability": "nonpayable",
      "type": "constructor"
    },
    {
      "anonymous": false,
      "inputs": [
        {
          "indexed": true,
          "internalType": "address",
          "name": "owner",
          "type": "address"
        },
        {
          "indexed": true,
          "internalType": "address",
          "name": "approved",
          "type": "address"
        },
        {
          "indexed": true,
          "internalType": "uint256",
          "name": "tokenId",
          "type": "uint256"
        }
      ],
      "name": "Approval",
      "type": "event"
    },
    {
      "anonymous": false,
      "inputs": [
        {
          "indexed": true,
          "internalType": "address",
          "name": "owner",
          "type": "address"
        },
        {
          "indexed": true,
          "internalType": "address",
          "name": "operator",
          "type": "address"
        },
        {
          "indexed": false,
          "internalType": "bool",
          "name": "approved",
          "type": "bool"
        }
      ],
      "name": "ApprovalForAll",
      "type": "event"
    },
    {
      "anonymous": false,
      "inputs": [
        {
          "indexed": false,
          "internalType": "string",
          "name": "uri",
          "type": "string"
        }
      ],
      "name": "BaseTokenURIUpdated",
      "type": "event"
    },
    {
      "anonymous": false,
      "inputs": [
        {
          "indexed": true,
          "internalType": "address",
          "name": "to",
          "type": "address"
        },
        {
          "indexed": false,
          "internalType": "uint256",
          "name": "startTokenId",
          "type": "uint256"
        },
        {
          "indexed": false,
          "internalType": "uint256",
          "name": "quantity",
          "type": "uint256"
        },
        {
          "indexed": false,
          "internalType": "uint256",
          "name": "mintConditionIndex",
          "type": "uint256"
        }
      ],
      "name": "Claimed",
      "type": "event"
    },
    {
      "anonymous": false,
      "inputs": [
        {
          "indexed": true,
          "internalType": "address",
          "name": "to",
          "type": "address"
        },
        {
          "indexed": false,
          "internalType": "uint256",
          "name": "amount",
          "type": "uint256"
        }
      ],
      "name": "FundsWithdrawn",
      "type": "event"
    },
    {
      "anonymous": false,
      "inputs": [
        {
          "indexed": false,
          "internalType": "address",
          "name": "account",
          "type": "address"
        }
      ],
      "name": "Paused",
      "type": "event"
    },
    {
      "anonymous": false,
      "inputs": [
        {
          "components": [
            {
              "internalType": "uint256",
              "name": "startTimestamp",
              "type": "uint256"
            },
            {
              "internalType": "uint256",
              "name": "maxMintSupply",
              "type": "uint256"
            },
            {
              "internalType": "uint256",
              "name": "currentMintSupply",
              "type": "uint256"
            },
            {
              "internalType": "uint256",
              "name": "quantityLimitPerTransaction",
              "type": "uint256"
            },
            {
              "internalType": "uint256",
              "name": "waitTimeSecondsLimitPerTransaction",
              "type": "uint256"
            },
            {
              "internalType": "bytes32",
              "name": "merkleRoot",
              "type": "bytes32"
            },
            {
              "internalType": "uint256",
              "name": "pricePerToken",
              "type": "uint256"
            },
            {
              "internalType": "address",
              "name": "currency",
              "type": "address"
            }
          ],
          "indexed": false,
          "internalType": "struct LazyNFT.PublicMintCondition[]",
          "name": "mintConditions",
          "type": "tuple[]"
        }
      ],
      "name": "PublicMintConditionUpdated",
      "type": "event"
    },
    {
      "anonymous": false,
      "inputs": [
        {
          "indexed": false,
          "internalType": "bool",
          "name": "transferable",
          "type": "bool"
        }
      ],
      "name": "RestrictedTransferUpdated",
      "type": "event"
    },
    {
      "anonymous": false,
      "inputs": [
        {
          "indexed": true,
          "internalType": "bytes32",
          "name": "role",
          "type": "bytes32"
        },
        {
          "indexed": true,
          "internalType": "bytes32",
          "name": "previousAdminRole",
          "type": "bytes32"
        },
        {
          "indexed": true,
          "internalType": "bytes32",
          "name": "newAdminRole",
          "type": "bytes32"
        }
      ],
      "name": "RoleAdminChanged",
      "type": "event"
    },
    {
      "anonymous": false,
      "inputs": [
        {
          "indexed": true,
          "internalType": "bytes32",
          "name": "role",
          "type": "bytes32"
        },
        {
          "indexed": true,
          "internalType": "address",
          "name": "account",
          "type": "address"
        },
        {
          "indexed": true,
          "internalType": "address",
          "name": "sender",
          "type": "address"
        }
      ],
      "name": "RoleGranted",
      "type": "event"
    },
    {
      "anonymous": false,
      "inputs": [
        {
          "indexed": true,
          "internalType": "bytes32",
          "name": "role",
          "type": "bytes32"
        },
        {
          "indexed": true,
          "internalType": "address",
          "name": "account",
          "type": "address"
        },
        {
          "indexed": true,
          "internalType": "address",
          "name": "sender",
          "type": "address"
        }
      ],
      "name": "RoleRevoked",
      "type": "event"
    },
    {
      "anonymous": false,
      "inputs": [
        {
          "indexed": false,
          "internalType": "uint256",
          "name": "royaltyBps",
          "type": "uint256"
        }
      ],
      "name": "RoyaltyUpdated",
      "type": "event"
    },
    {
      "anonymous": false,
      "inputs": [
        {
          "indexed": false,
          "internalType": "uint256",
          "name": "supply",
          "type": "uint256"
        }
      ],
      "name": "TotalSupplyUpdated",
      "type": "event"
    },
    {
      "anonymous": false,
      "inputs": [
        {
          "indexed": true,
          "internalType": "address",
          "name": "from",
          "type": "address"
        },
        {
          "indexed": true,
          "internalType": "address",
          "name": "to",
          "type": "address"
        },
        {
          "indexed": true,
          "internalType": "uint256",
          "name": "tokenId",
          "type": "uint256"
        }
      ],
      "name": "Transfer",
      "type": "event"
    },
    {
      "anonymous": false,
      "inputs": [
        {
          "indexed": false,
          "internalType": "address",
          "name": "account",
          "type": "address"
        }
      ],
      "name": "Unpaused",
      "type": "event"
    },
    {
      "inputs": [],
      "name": "DEFAULT_ADMIN_ROLE",
      "outputs": [
        {
          "internalType": "bytes32",
          "name": "",
          "type": "bytes32"
        }
      ],
      "stateMutability": "view",
      "type": "function"
    },
    {
      "inputs": [],
      "name": "MINTER_ROLE",
      "outputs": [
        {
          "internalType": "bytes32",
          "name": "",
          "type": "bytes32"
        }
      ],
      "stateMutability": "view",
      "type": "function"
    },
    {
      "inputs": [],
      "name": "PAUSER_ROLE",
      "outputs": [
        {
          "internalType": "bytes32",
          "name": "",
          "type": "bytes32"
        }
      ],
      "stateMutability": "view",
      "type": "function"
    },
    {
      "inputs": [],
      "name": "TRANSFER_ROLE",
      "outputs": [
        {
          "internalType": "bytes32",
          "name": "",
          "type": "bytes32"
        }
      ],
      "stateMutability": "view",
      "type": "function"
    },
    {
      "inputs": [
        {
          "internalType": "address",
          "name": "to",
          "type": "address"
        },
        {
          "internalType": "uint256",
          "name": "tokenId",
          "type": "uint256"
        }
      ],
      "name": "approve",
      "outputs": [],
      "stateMutability": "nonpayable",
      "type": "function"
    },
    {
      "inputs": [
        {
          "internalType": "address",
          "name": "owner",
          "type": "address"
        }
      ],
      "name": "balanceOf",
      "outputs": [
        {
          "internalType": "uint256",
          "name": "",
          "type": "uint256"
        }
      ],
      "stateMutability": "view",
      "type": "function"
    },
    {
      "inputs": [
        {
          "internalType": "uint256",
          "name": "tokenId",
          "type": "uint256"
        }
      ],
      "name": "burn",
      "outputs": [],
      "stateMutability": "nonpayable",
      "type": "function"
    },
    {
      "inputs": [
        {
          "internalType": "uint256",
          "name": "quantity",
          "type": "uint256"
        },
        {
          "internalType": "bytes32[]",
          "name": "proofs",
          "type": "bytes32[]"
        }
      ],
      "name": "claim",
      "outputs": [],
      "stateMutability": "payable",
      "type": "function"
    },
    {
      "inputs": [],
      "name": "contractURI",
      "outputs": [
        {
          "internalType": "string",
          "name": "",
          "type": "string"
        }
      ],
      "stateMutability": "view",
      "type": "function"
    },
    {
      "inputs": [
        {
          "internalType": "uint256",
          "name": "tokenId",
          "type": "uint256"
        }
      ],
      "name": "getApproved",
      "outputs": [
        {
          "internalType": "address",
          "name": "",
          "type": "address"
        }
      ],
      "stateMutability": "view",
      "type": "function"
    },
    {
      "inputs": [],
      "name": "getLastStartedMintConditionIndex",
      "outputs": [
        {
          "internalType": "uint256",
          "name": "",
          "type": "uint256"
        }
      ],
      "stateMutability": "view",
      "type": "function"
    },
    {
      "inputs": [],
      "name": "getMintConditionCount",
      "outputs": [
        {
          "internalType": "uint256",
          "name": "",
          "type": "uint256"
        }
      ],
      "stateMutability": "view",
      "type": "function"
    },
    {
      "inputs": [
        {
          "internalType": "bytes32",
          "name": "role",
          "type": "bytes32"
        }
      ],
      "name": "getRoleAdmin",
      "outputs": [
        {
          "internalType": "bytes32",
          "name": "",
          "type": "bytes32"
        }
      ],
      "stateMutability": "view",
      "type": "function"
    },
    {
      "inputs": [
        {
          "internalType": "bytes32",
          "name": "role",
          "type": "bytes32"
        },
        {
          "internalType": "uint256",
          "name": "index",
          "type": "uint256"
        }
      ],
      "name": "getRoleMember",
      "outputs": [
        {
          "internalType": "address",
          "name": "",
          "type": "address"
        }
      ],
      "stateMutability": "view",
      "type": "function"
    },
    {
      "inputs": [
        {
          "internalType": "bytes32",
          "name": "role",
          "type": "bytes32"
        }
      ],
      "name": "getRoleMemberCount",
      "outputs": [
        {
          "internalType": "uint256",
          "name": "",
          "type": "uint256"
        }
      ],
      "stateMutability": "view",
      "type": "function"
    },
    {
      "inputs": [
        {
          "internalType": "bytes32",
          "name": "role",
          "type": "bytes32"
        },
        {
          "internalType": "address",
          "name": "account",
          "type": "address"
        }
      ],
      "name": "grantRole",
      "outputs": [],
      "stateMutability": "nonpayable",
      "type": "function"
    },
    {
      "inputs": [
        {
          "internalType": "bytes32",
          "name": "role",
          "type": "bytes32"
        },
        {
          "internalType": "address",
          "name": "account",
          "type": "address"
        }
      ],
      "name": "hasRole",
      "outputs": [
        {
          "internalType": "bool",
          "name": "",
          "type": "bool"
        }
      ],
      "stateMutability": "view",
      "type": "function"
    },
    {
      "inputs": [
        {
          "internalType": "address",
          "name": "owner",
          "type": "address"
        },
        {
          "internalType": "address",
          "name": "operator",
          "type": "address"
        }
      ],
      "name": "isApprovedForAll",
      "outputs": [
        {
          "internalType": "bool",
          "name": "",
          "type": "bool"
        }
      ],
      "stateMutability": "view",
      "type": "function"
    },
    {
      "inputs": [
        {
          "internalType": "address",
          "name": "forwarder",
          "type": "address"
        }
      ],
      "name": "isTrustedForwarder",
      "outputs": [
        {
          "internalType": "bool",
          "name": "",
          "type": "bool"
        }
      ],
      "stateMutability": "view",
      "type": "function"
    },
    {
      "inputs": [
        {
          "internalType": "uint256",
          "name": "amount",
          "type": "uint256"
        }
      ],
      "name": "lazyMintAmount",
      "outputs": [],
      "stateMutability": "nonpayable",
      "type": "function"
    },
    {
      "inputs": [
        {
          "internalType": "string[]",
          "name": "_uris",
          "type": "string[]"
        }
      ],
      "name": "lazyMintBatch",
      "outputs": [],
      "stateMutability": "nonpayable",
      "type": "function"
    },
    {
      "inputs": [],
      "name": "maxTotalSupply",
      "outputs": [
        {
          "internalType": "uint256",
          "name": "",
          "type": "uint256"
        }
      ],
      "stateMutability": "view",
      "type": "function"
    },
    {
      "inputs": [
        {
          "internalType": "uint256",
          "name": "",
          "type": "uint256"
        }
      ],
      "name": "mintConditions",
      "outputs": [
        {
          "internalType": "uint256",
          "name": "startTimestamp",
          "type": "uint256"
        },
        {
          "internalType": "uint256",
          "name": "maxMintSupply",
          "type": "uint256"
        },
        {
          "internalType": "uint256",
          "name": "currentMintSupply",
          "type": "uint256"
        },
        {
          "internalType": "uint256",
          "name": "quantityLimitPerTransaction",
          "type": "uint256"
        },
        {
          "internalType": "uint256",
          "name": "waitTimeSecondsLimitPerTransaction",
          "type": "uint256"
        },
        {
          "internalType": "bytes32",
          "name": "merkleRoot",
          "type": "bytes32"
        },
        {
          "internalType": "uint256",
          "name": "pricePerToken",
          "type": "uint256"
        },
        {
          "internalType": "address",
          "name": "currency",
          "type": "address"
        }
      ],
      "stateMutability": "view",
      "type": "function"
    },
    {
      "inputs": [
        {
          "internalType": "bytes[]",
          "name": "data",
          "type": "bytes[]"
        }
      ],
      "name": "multicall",
      "outputs": [
        {
          "internalType": "bytes[]",
          "name": "results",
          "type": "bytes[]"
        }
      ],
      "stateMutability": "nonpayable",
      "type": "function"
    },
    {
      "inputs": [],
      "name": "name",
      "outputs": [
        {
          "internalType": "string",
          "name": "",
          "type": "string"
        }
      ],
      "stateMutability": "view",
      "type": "function"
    },
    {
      "inputs": [
        {
          "internalType": "address",
          "name": "",
          "type": "address"
        },
        {
          "internalType": "uint256",
          "name": "",
          "type": "uint256"
        }
      ],
      "name": "nextMintTimestampByCondition",
      "outputs": [
        {
          "internalType": "uint256",
          "name": "",
          "type": "uint256"
        }
      ],
      "stateMutability": "view",
      "type": "function"
    },
    {
      "inputs": [],
      "name": "nextMintTokenId",
      "outputs": [
        {
          "internalType": "uint256",
          "name": "",
          "type": "uint256"
        }
      ],
      "stateMutability": "view",
      "type": "function"
    },
    {
      "inputs": [],
      "name": "nextTokenId",
      "outputs": [
        {
          "internalType": "uint256",
          "name": "",
          "type": "uint256"
        }
      ],
      "stateMutability": "view",
      "type": "function"
    },
    {
      "inputs": [
        {
          "internalType": "uint256",
          "name": "tokenId",
          "type": "uint256"
        }
      ],
      "name": "ownerOf",
      "outputs": [
        {
          "internalType": "address",
          "name": "",
          "type": "address"
        }
      ],
      "stateMutability": "view",
      "type": "function"
    },
    {
      "inputs": [],
      "name": "pause",
      "outputs": [],
      "stateMutability": "nonpayable",
      "type": "function"
    },
    {
      "inputs": [],
      "name": "paused",
      "outputs": [
        {
          "internalType": "bool",
          "name": "",
          "type": "bool"
        }
      ],
      "stateMutability": "view",
      "type": "function"
    },
    {
      "inputs": [
        {
          "internalType": "bytes32",
          "name": "role",
          "type": "bytes32"
        },
        {
          "internalType": "address",
          "name": "account",
          "type": "address"
        }
      ],
      "name": "renounceRole",
      "outputs": [],
      "stateMutability": "nonpayable",
      "type": "function"
    },
    {
      "inputs": [
        {
          "internalType": "bytes32",
          "name": "role",
          "type": "bytes32"
        },
        {
          "internalType": "address",
          "name": "account",
          "type": "address"
        }
      ],
      "name": "revokeRole",
      "outputs": [],
      "stateMutability": "nonpayable",
      "type": "function"
    },
    {
      "inputs": [],
      "name": "royaltyBps",
      "outputs": [
        {
          "internalType": "uint256",
          "name": "",
          "type": "uint256"
        }
      ],
      "stateMutability": "view",
      "type": "function"
    },
    {
      "inputs": [
        {
          "internalType": "uint256",
          "name": "",
          "type": "uint256"
        },
        {
          "internalType": "uint256",
          "name": "salePrice",
          "type": "uint256"
        }
      ],
      "name": "royaltyInfo",
      "outputs": [
        {
          "internalType": "address",
          "name": "receiver",
          "type": "address"
        },
        {
          "internalType": "uint256",
          "name": "royaltyAmount",
          "type": "uint256"
        }
      ],
      "stateMutability": "view",
      "type": "function"
    },
    {
      "inputs": [
        {
          "internalType": "address",
          "name": "from",
          "type": "address"
        },
        {
          "internalType": "address",
          "name": "to",
          "type": "address"
        },
        {
          "internalType": "uint256",
          "name": "tokenId",
          "type": "uint256"
        }
      ],
      "name": "safeTransferFrom",
      "outputs": [],
      "stateMutability": "nonpayable",
      "type": "function"
    },
    {
      "inputs": [
        {
          "internalType": "address",
          "name": "from",
          "type": "address"
        },
        {
          "internalType": "address",
          "name": "to",
          "type": "address"
        },
        {
          "internalType": "uint256",
          "name": "tokenId",
          "type": "uint256"
        },
        {
          "internalType": "bytes",
          "name": "_data",
          "type": "bytes"
        }
      ],
      "name": "safeTransferFrom",
      "outputs": [],
      "stateMutability": "nonpayable",
      "type": "function"
    },
    {
      "inputs": [],
      "name": "saleRecipient",
      "outputs": [
        {
          "internalType": "address",
          "name": "",
          "type": "address"
        }
      ],
      "stateMutability": "view",
      "type": "function"
    },
    {
      "inputs": [
        {
          "internalType": "address",
          "name": "operator",
          "type": "address"
        },
        {
          "internalType": "bool",
          "name": "approved",
          "type": "bool"
        }
      ],
      "name": "setApprovalForAll",
      "outputs": [],
      "stateMutability": "nonpayable",
      "type": "function"
    },
    {
      "inputs": [
        {
          "internalType": "string",
          "name": "_uri",
          "type": "string"
        }
      ],
      "name": "setBaseTokenURI",
      "outputs": [],
      "stateMutability": "nonpayable",
      "type": "function"
    },
    {
      "inputs": [
        {
          "internalType": "string",
          "name": "_URI",
          "type": "string"
        }
      ],
      "name": "setContractURI",
      "outputs": [],
      "stateMutability": "nonpayable",
      "type": "function"
    },
    {
      "inputs": [
        {
          "internalType": "uint256",
          "name": "maxSupply",
          "type": "uint256"
        }
      ],
      "name": "setMaxTotalSupply",
      "outputs": [],
      "stateMutability": "nonpayable",
      "type": "function"
    },
    {
      "inputs": [
        {
          "components": [
            {
              "internalType": "uint256",
              "name": "startTimestamp",
              "type": "uint256"
            },
            {
              "internalType": "uint256",
              "name": "maxMintSupply",
              "type": "uint256"
            },
            {
              "internalType": "uint256",
              "name": "currentMintSupply",
              "type": "uint256"
            },
            {
              "internalType": "uint256",
              "name": "quantityLimitPerTransaction",
              "type": "uint256"
            },
            {
              "internalType": "uint256",
              "name": "waitTimeSecondsLimitPerTransaction",
              "type": "uint256"
            },
            {
              "internalType": "bytes32",
              "name": "merkleRoot",
              "type": "bytes32"
            },
            {
              "internalType": "uint256",
              "name": "pricePerToken",
              "type": "uint256"
            },
            {
              "internalType": "address",
              "name": "currency",
              "type": "address"
            }
          ],
          "internalType": "struct LazyNFT.PublicMintCondition[]",
          "name": "conditions",
          "type": "tuple[]"
        }
      ],
      "name": "setPublicMintConditions",
      "outputs": [],
      "stateMutability": "nonpayable",
      "type": "function"
    },
    {
      "inputs": [
        {
          "internalType": "bool",
          "name": "_restrictedTransfer",
          "type": "bool"
        }
      ],
      "name": "setRestrictedTransfer",
      "outputs": [],
      "stateMutability": "nonpayable",
      "type": "function"
    },
    {
      "inputs": [
        {
          "internalType": "uint256",
          "name": "_royaltyBps",
          "type": "uint256"
        }
      ],
      "name": "setRoyaltyBps",
      "outputs": [],
      "stateMutability": "nonpayable",
      "type": "function"
    },
    {
      "inputs": [
        {
          "internalType": "address",
          "name": "_saleRecipient",
          "type": "address"
        }
      ],
      "name": "setSaleRecipient",
      "outputs": [],
      "stateMutability": "nonpayable",
      "type": "function"
    },
    {
      "inputs": [
        {
          "internalType": "bytes4",
          "name": "interfaceId",
          "type": "bytes4"
        }
      ],
      "name": "supportsInterface",
      "outputs": [
        {
          "internalType": "bool",
          "name": "",
          "type": "bool"
        }
      ],
      "stateMutability": "view",
      "type": "function"
    },
    {
      "inputs": [],
      "name": "symbol",
      "outputs": [
        {
          "internalType": "string",
          "name": "",
          "type": "string"
        }
      ],
      "stateMutability": "view",
      "type": "function"
    },
    {
      "inputs": [
        {
          "internalType": "uint256",
          "name": "index",
          "type": "uint256"
        }
      ],
      "name": "tokenByIndex",
      "outputs": [
        {
          "internalType": "uint256",
          "name": "",
          "type": "uint256"
        }
      ],
      "stateMutability": "view",
      "type": "function"
    },
    {
      "inputs": [
        {
          "internalType": "address",
          "name": "owner",
          "type": "address"
        },
        {
          "internalType": "uint256",
          "name": "index",
          "type": "uint256"
        }
      ],
      "name": "tokenOfOwnerByIndex",
      "outputs": [
        {
          "internalType": "uint256",
          "name": "",
          "type": "uint256"
        }
      ],
      "stateMutability": "view",
      "type": "function"
    },
    {
      "inputs": [
        {
          "internalType": "uint256",
          "name": "tokenId",
          "type": "uint256"
        }
      ],
      "name": "tokenURI",
      "outputs": [
        {
          "internalType": "string",
          "name": "",
          "type": "string"
        }
      ],
      "stateMutability": "view",
      "type": "function"
    },
    {
      "inputs": [],
      "name": "totalSupply",
      "outputs": [
        {
          "internalType": "uint256",
          "name": "",
          "type": "uint256"
        }
      ],
      "stateMutability": "view",
      "type": "function"
    },
    {
      "inputs": [
        {
          "internalType": "address",
          "name": "from",
          "type": "address"
        },
        {
          "internalType": "address",
          "name": "to",
          "type": "address"
        },
        {
          "internalType": "uint256",
          "name": "tokenId",
          "type": "uint256"
        }
      ],
      "name": "transferFrom",
      "outputs": [],
      "stateMutability": "nonpayable",
      "type": "function"
    },
    {
      "inputs": [],
      "name": "transfersRestricted",
      "outputs": [
        {
          "internalType": "bool",
          "name": "",
          "type": "bool"
        }
      ],
      "stateMutability": "view",
      "type": "function"
    },
    {
      "inputs": [],
      "name": "unpause",
      "outputs": [],
      "stateMutability": "nonpayable",
      "type": "function"
    }
  ],
  "bytecode": "0x60806040523480156200001157600080fd5b506040516200548b3803806200548b833981016040819052620000349162000629565b85888881600290805190602001906200004f92919062000499565b5080516200006590600390602084019062000499565b5050600c80546001600160a81b0319166101006001600160a01b039485168102919091179091556001600d5560158054610100600160a81b031916938d1690910292909217909155508451620000c390601790602088019062000499565b508351620000d990601890602087019062000499565b50600e839055601680546001600160a01b0319166001600160a01b0383161790556200011060006200010a620001b7565b620001d3565b6200013f7f9f2df0fed2c77648de5860a4cc508cd0818c85b8b8a1ab4ceeef8d981c8956a66200010a620001b7565b6200016e7f65d7a28e3265b37a6474929f336521b332c1681b933f6cb9f3376673440d862a6200010a620001b7565b6200019d7f8502233096d909befbda0999bb8ea2f3a6be3c138b9fbf003752a4c8bce86f6c6200010a620001b7565b620001a88262000216565b5050505050505050506200076c565b6000620001ce6200033260201b620029ea1760201c565b905090565b620001ea82826200037160201b62002a1c1760201c565b60008281526001602090815260409091206200021191839062002a2a62000381821b17901c565b505050565b6200024f600062000226620001b7565b6000918252602082815260408084206001600160a01b0393909316845291905290205460ff1690565b620002955760405162461bcd60e51b815260206004820152601160248201527037b7363c9036b7b23ab6329030b236b4b760791b60448201526064015b60405180910390fd5b612710811115620002f75760405162461bcd60e51b815260206004820152602560248201527f6270732070726f7669646564206d757374206265206c657373207468616e20316044820152640302c3030360dc1b60648201526084016200028c565b60148190556040518181527f244ea8d7627f5a08f4299862bd5a45752842c183aee5b0fb0d1e4887bfa605b39060200160405180910390a150565b600c546000906001600160a01b03610100909104163314156200035c575060131936013560601c90565b620001ce620003a160201b62002a3f1760201c565b6200037d8282620003a5565b5050565b600062000398836001600160a01b03841662000447565b90505b92915050565b3390565b6000828152602081815260408083206001600160a01b038516845290915290205460ff166200037d576000828152602081815260408083206001600160a01b03851684529091529020805460ff1916600117905562000403620001b7565b6001600160a01b0316816001600160a01b0316837f2f8788117e7eff1d82e926ec794901d17c78024a50270940304540a733656f0d60405160405180910390a45050565b600081815260018301602052604081205462000490575081546001818101845560008481526020808220909301849055845484825282860190935260409020919091556200039b565b5060006200039b565b828054620004a7906200072f565b90600052602060002090601f016020900481019282620004cb576000855562000516565b82601f10620004e657805160ff191683800117855562000516565b8280016001018555821562000516579182015b8281111562000516578251825591602001919060010190620004f9565b506200052492915062000528565b5090565b5b8082111562000524576000815560010162000529565b80516001600160a01b03811681146200055757600080fd5b919050565b634e487b7160e01b600052604160045260246000fd5b600082601f8301126200058457600080fd5b81516001600160401b0380821115620005a157620005a16200055c565b604051601f8301601f19908116603f01168101908282118183101715620005cc57620005cc6200055c565b81604052838152602092508683858801011115620005e957600080fd5b600091505b838210156200060d5785820183015181830184015290820190620005ee565b838211156200061f5760008385830101525b9695505050505050565b60008060008060008060008060006101208a8c0312156200064957600080fd5b620006548a6200053f565b60208b01519099506001600160401b03808211156200067257600080fd5b620006808d838e0162000572565b995060408c01519150808211156200069757600080fd5b620006a58d838e0162000572565b9850620006b560608d016200053f565b975060808c0151915080821115620006cc57600080fd5b620006da8d838e0162000572565b965060a08c0151915080821115620006f157600080fd5b50620007008c828d0162000572565b94505060c08a0151925060e08a01519150620007206101008b016200053f565b90509295985092959850929598565b600181811c908216806200074457607f821691505b602082108114156200076657634e487b7160e01b600052602260045260246000fd5b50919050565b614d0f806200077c6000396000f3fe6080604052600436106103605760003560e01c80635b019b76116101c6578063a22cb465116100f7578063d539139311610095578063e88fbd411161006f578063e88fbd4114610a42578063e8a3d48514610a58578063e985e9c514610a6d578063fd59855014610ab657600080fd5b8063d5391393146109ba578063d547741f146109ee578063e63ab1e914610a0e57600080fd5b8063b88d4fde116100d1578063b88d4fde14610944578063c63adb2b14610964578063c87b56dd1461097a578063ca15c8731461099a57600080fd5b8063a22cb465146108d7578063ac9650d8146108f7578063b7cdd0bc1461092457600080fd5b80638456cb591161016457806391d148541161013e57806391d1485414610849578063938e3d7b1461088d57806395d89b41146108ad578063a217fddf146108c257600080fd5b80638456cb59146107f45780638ba448c2146108095780639010d07c1461082957600080fd5b80636352211e116101a05780636352211e1461078457806370a08231146107a457806375794a3c146107c45780638423df79146107da57600080fd5b80635b019b76146107375780635c975abb146107575780635da53d581461076f57600080fd5b80632ab4d052116102a05780633f4ba83a1161023e57806342966c681161021857806342966c68146106a35780634ce40a32146106c35780634f6ccce7146106e3578063572b6c051461070357600080fd5b80633f4ba83a1461064e578063428131081461066357806342842e0e1461068357600080fd5b80632f745c591161027a5780632f745c59146105ce57806330176e13146105ee57806336568abe1461060e5780633f3e4c111461062e57600080fd5b80632ab4d052146105855780632f2ff15d1461059b5780632f52ebb7146105bb57600080fd5b80631df952db1161030d578063206b60f9116102e7578063206b60f9146104c257806323b872dd146104f6578063248a9ca3146105165780632a55205a1461054657600080fd5b80631df952db146104555780631edab0811461046a5780631f72d831146104a257600080fd5b8063095ea7b31161033e578063095ea7b3146103f457806318160ddd146104165780631c908d981461043557600080fd5b806301ffc9a71461036557806306fdde031461039a578063081812fc146103bc575b600080fd5b34801561037157600080fd5b506103856103803660046143fe565b610b1a565b60405190151581526020015b60405180910390f35b3480156103a657600080fd5b506103af610b46565b6040516103919190614473565b3480156103c857600080fd5b506103dc6103d7366004614486565b610bd8565b6040516001600160a01b039091168152602001610391565b34801561040057600080fd5b5061041461040f3660046144b4565b610c72565b005b34801561042257600080fd5b50600a545b604051908152602001610391565b34801561044157600080fd5b506104146104503660046144e0565b610d9a565b34801561046157600080fd5b50601154610427565b34801561047657600080fd5b506104276104853660046144b4565b601260209081526000928352604080842090915290825290205481565b3480156104ae57600080fd5b506104146104bd366004614486565b610e09565b3480156104ce57600080fd5b506104277f8502233096d909befbda0999bb8ea2f3a6be3c138b9fbf003752a4c8bce86f6c81565b34801561050257600080fd5b506104146105113660046144fd565b610ef2565b34801561052257600080fd5b50610427610531366004614486565b60009081526020819052604090206001015490565b34801561055257600080fd5b5061056661056136600461453e565b610f74565b604080516001600160a01b039093168352602083019190915201610391565b34801561059157600080fd5b50610427600e5481565b3480156105a757600080fd5b506104146105b6366004614560565b61101e565b6104146105c93660046145dc565b611040565b3480156105da57600080fd5b506104276105e93660046144b4565b611617565b3480156105fa57600080fd5b50610414610609366004614628565b6116bf565b34801561061a57600080fd5b50610414610629366004614560565b611756565b34801561063a57600080fd5b50610414610649366004614486565b611778565b34801561065a57600080fd5b506104146117fa565b34801561066f57600080fd5b5061041461067e36600461469a565b61187c565b34801561068f57600080fd5b5061041461069e3660046144fd565b611cd0565b3480156106af57600080fd5b506104146106be366004614486565b611ceb565b3480156106cf57600080fd5b506104146106de3660046146fd565b611d74565b3480156106ef57600080fd5b506104276106fe366004614486565b611f10565b34801561070f57600080fd5b5061038561071e3660046144e0565b600c5461010090046001600160a01b0390811691161490565b34801561074357600080fd5b506016546103dc906001600160a01b031681565b34801561076357600080fd5b50600c5460ff16610385565b34801561077b57600080fd5b50610427611fb4565b34801561079057600080fd5b506103dc61079f366004614486565b6120b1565b3480156107b057600080fd5b506104276107bf3660046144e0565b61213c565b3480156107d057600080fd5b50610427600f5481565b3480156107e657600080fd5b506015546103859060ff1681565b34801561080057600080fd5b506104146121d6565b34801561081557600080fd5b5061041461082436600461474d565b612256565b34801561083557600080fd5b506103dc61084436600461453e565b6122e4565b34801561085557600080fd5b50610385610864366004614560565b6000918252602082815260408084206001600160a01b0393909316845291905290205460ff1690565b34801561089957600080fd5b506104146108a8366004614628565b612303565b3480156108b957600080fd5b506103af612469565b3480156108ce57600080fd5b50610427600081565b3480156108e357600080fd5b506104146108f236600461476a565b612478565b34801561090357600080fd5b506109176109123660046146fd565b61257a565b6040516103919190614798565b34801561093057600080fd5b5061041461093f366004614486565b61266f565b34801561095057600080fd5b5061041461095f366004614810565b6127b2565b34801561097057600080fd5b5061042760145481565b34801561098657600080fd5b506103af610995366004614486565b61283b565b3480156109a657600080fd5b506104276109b5366004614486565b61295b565b3480156109c657600080fd5b506104277f9f2df0fed2c77648de5860a4cc508cd0818c85b8b8a1ab4ceeef8d981c8956a681565b3480156109fa57600080fd5b50610414610a09366004614560565b612972565b348015610a1a57600080fd5b506104277f65d7a28e3265b37a6474929f336521b332c1681b933f6cb9f3376673440d862a81565b348015610a4e57600080fd5b5061042760105481565b348015610a6457600080fd5b506103af61297c565b348015610a7957600080fd5b50610385610a883660046148f0565b6001600160a01b03918216600090815260076020908152604080832093909416825291909152205460ff1690565b348015610ac257600080fd5b50610ad6610ad1366004614486565b61298b565b604080519889526020890197909752958701949094526060860192909252608085015260a084015260c08301526001600160a01b031660e082015261010001610391565b6000610b2582612a43565b80610b4057506001600160e01b0319821663152a902d60e11b145b92915050565b606060028054610b559061491e565b80601f0160208091040260200160405190810160405280929190818152602001828054610b819061491e565b8015610bce5780601f10610ba357610100808354040283529160200191610bce565b820191906000526020600020905b815481529060010190602001808311610bb157829003601f168201915b5050505050905090565b6000818152600460205260408120546001600160a01b0316610c565760405162461bcd60e51b815260206004820152602c60248201527f4552433732313a20617070726f76656420717565727920666f72206e6f6e657860448201526b34b9ba32b73a103a37b5b2b760a11b60648201526084015b60405180910390fd5b506000908152600660205260409020546001600160a01b031690565b6000610c7d826120b1565b9050806001600160a01b0316836001600160a01b03161415610ceb5760405162461bcd60e51b815260206004820152602160248201527f4552433732313a20617070726f76616c20746f2063757272656e74206f776e656044820152603960f91b6064820152608401610c4d565b806001600160a01b0316610cfd612a68565b6001600160a01b03161480610d195750610d1981610a88612a68565b610d8b5760405162461bcd60e51b815260206004820152603860248201527f4552433732313a20617070726f76652063616c6c6572206973206e6f74206f7760448201527f6e6572206e6f7220617070726f76656420666f7220616c6c00000000000000006064820152608401610c4d565b610d958383612a72565b505050565b610da76000610864612a68565b610de75760405162461bcd60e51b815260206004820152601160248201527037b7363c9036b7b23ab6329030b236b4b760791b6044820152606401610c4d565b601680546001600160a01b0319166001600160a01b0392909216919091179055565b610e166000610864612a68565b610e565760405162461bcd60e51b815260206004820152601160248201527037b7363c9036b7b23ab6329030b236b4b760791b6044820152606401610c4d565b612710811115610eb65760405162461bcd60e51b815260206004820152602560248201527f6270732070726f7669646564206d757374206265206c657373207468616e20316044820152640302c3030360dc1b6064820152608401610c4d565b60148190556040518181527f244ea8d7627f5a08f4299862bd5a45752842c183aee5b0fb0d1e4887bfa605b3906020015b60405180910390a150565b610f03610efd612a68565b82612ae0565b610f695760405162461bcd60e51b815260206004820152603160248201527f4552433732313a207472616e736665722063616c6c6572206973206e6f74206f6044820152701ddb995c881b9bdc88185c1c1c9bdd9959607a1b6064820152608401610c4d565b610d95838383612bd7565b60155460405163f2aab4b360e01b815230600482015260009182916101009091046001600160a01b03169063f2aab4b39060240160206040518083038186803b158015610fc057600080fd5b505afa158015610fd4573d6000803e3d6000fd5b505050506040513d601f19601f82011682018060405250810190610ff89190614959565b91506127106014548461100b919061498c565b61101591906149c1565b90509250929050565b6110288282612d96565b6000828152600160205260409020610d959082612a2a565b6002600d5414156110935760405162461bcd60e51b815260206004820152601f60248201527f5265656e7472616e637947756172643a207265656e7472616e742063616c6c006044820152606401610c4d565b6002600d55600c5460ff16156110de5760405162461bcd60e51b815260206004820152601060248201526f14185d5cd8589b194e881c185d5cd95960821b6044820152606401610c4d565b60006110e8611fb4565b90506000601182815481106110ff576110ff6149d5565b600091825260209182902060408051610100810182526008909302909101805483526001810154938301939093526002830154908201526003820154606082015260048201546080820152600582015460a0820152600682015460c08201526007909101546001600160a01b031660e08201529050846111c15760405162461bcd60e51b815260206004820152600d60248201527f6e656564207175616e74697479000000000000000000000000000000000000006044820152606401610c4d565b600e54856010546111d291906149eb565b11156112205760405162461bcd60e51b815260206004820152601760248201527f657863656564206d617820737570706c79206c696d69740000000000000000006044820152606401610c4d565b600f548560105461123191906149eb565b111561127f5760405162461bcd60e51b815260206004820152601b60248201527f63616e6e6f7420636c61696d20756e6d696e74656420746f6b656e00000000006044820152606401610c4d565b80606001518511156112d35760405162461bcd60e51b815260206004820152600f60248201527f657863656564207478206c696d697400000000000000000000000000000000006044820152606401610c4d565b80602001518582604001516112e891906149eb565b11156113365760405162461bcd60e51b815260206004820152601660248201527f657863656564206d6178206d696e7420737570706c79000000000000000000006044820152606401610c4d565b60006013548361134691906149eb565b9050600060126000611356612a68565b6001600160a01b0316815260208082019290925260409081016000908120858252909252902054905080158061138c5750804210155b6113d85760405162461bcd60e51b815260206004820152600f60248201527f63616e6e6f74206d696e742079657400000000000000000000000000000000006044820152606401610c4d565b60a0830151156114bb5760006113ec612a68565b604051602001611414919060609190911b6bffffffffffffffffffffffff1916815260140190565b60405160208183030381529060405280519060200120905061146d87878080602002602001604051908101604052809392919081815260200183836020028082843760009201919091525050505060a086015183612dc3565b6114b95760405162461bcd60e51b815260206004820152600e60248201527f696e76616c69642070726f6f66730000000000000000000000000000000000006044820152606401610c4d565b505b86601185815481106114cf576114cf6149d5565b906000526020600020906008020160020160008282546114ef91906149eb565b909155505060808301514281019081101561150957506000195b8060126000611516612a68565b6001600160a01b031681526020808201929092526040908101600090812087825290925290205560c084015115611564576115648460e001518560c001518a61155f919061498c565b612e72565b60105460005b898110156115b05761158561157d612a68565b601054612fcb565b60016010600082825461159891906149eb565b909155508190506115a881614a03565b91505061156a565b506115b9612a68565b60408051838152602081018c90529081018890526001600160a01b0391909116907f9cdcf2f7714cca3508c7f0110b04a90a80a3a8dd0e35de99689db74d28c5383e9060600160405180910390a250506001600d5550505050505050565b60006116228361213c565b82106116965760405162461bcd60e51b815260206004820152602b60248201527f455243373231456e756d657261626c653a206f776e657220696e646578206f7560448201527f74206f6620626f756e64730000000000000000000000000000000000000000006064820152608401610c4d565b506001600160a01b03919091166000908152600860209081526040808320938352929052205490565b6116cc6000610864612a68565b61170c5760405162461bcd60e51b815260206004820152601160248201527037b7363c9036b7b23ab6329030b236b4b760791b6044820152606401610c4d565b611718601883836142de565b507fe6e4cd5c2dc7d2c20519b41832cd550fd3ea1186bf299d108179bf71fb8e00e5828260405161174a929190614a1e565b60405180910390a15050565b6117608282612fe5565b6000828152600160205260409020610d95908261307d565b6117856000610864612a68565b6117c55760405162461bcd60e51b815260206004820152601160248201527037b7363c9036b7b23ab6329030b236b4b760791b6044820152606401610c4d565b600e8190556040518181527ff8cbdbee6d402ad22cddbc250098e39cd0d24f0fad122f64794577167c605df990602001610ee7565b6118267f65d7a28e3265b37a6474929f336521b332c1681b933f6cb9f3376673440d862a610864612a68565b6118725760405162461bcd60e51b815260206004820181905260248201527f6d75737420686176652070617573657220726f6c6520746f20756e70617573656044820152606401610c4d565b61187a613092565b565b6118896000610864612a68565b6118c95760405162461bcd60e51b815260206004820152601160248201527037b7363c9036b7b23ab6329030b236b4b760791b6044820152606401610c4d565b806119165760405162461bcd60e51b815260206004820152601a60248201527f6e656564732061206c697374206f6620636f6e646974696f6e730000000000006044820152606401610c4d565b6011541561194557601154601380546000906119339084906149eb565b90915550611945905060116000614362565b6000805b82811015611c925781156119e857838382818110611969576119696149d5565b905061010002016000013582106119e85760405162461bcd60e51b815260206004820152602960248201527f737461727454696d657374616d70206d75737420626520696e20617363656e6460448201527f696e67206f7264657200000000000000000000000000000000000000000000006064820152608401610c4d565b60008484838181106119fc576119fc6149d5565b905061010002016020013511611a545760405162461bcd60e51b815260206004820152601b60248201527f6d6178206d696e7420737570706c792063616e6e6f74206265203000000000006044820152606401610c4d565b6000848483818110611a6857611a686149d5565b905061010002016060013511611ac05760405162461bcd60e51b815260206004820152601a60248201527f7175616e74697479206c696d69742063616e6e6f7420626520300000000000006044820152606401610c4d565b6011604051806101000160405280868685818110611ae057611ae06149d5565b611af49261010090910201359050426149eb565b8152602001868685818110611b0b57611b0b6149d5565b9050610100020160200135815260200160008152602001868685818110611b3457611b346149d5565b90506101000201606001358152602001868685818110611b5657611b566149d5565b90506101000201608001358152602001868685818110611b7857611b786149d5565b9050610100020160a001358152602001868685818110611b9a57611b9a6149d5565b9050610100020160c001358152602001868685818110611bbc57611bbc6149d5565b9050610100020160e0016020810190611bd591906144e0565b6001600160a01b0390811690915282546001808201855560009485526020948590208451600890930201918255938301519381019390935560408201516002840155606082015160038401556080820151600484015560a0820151600584015560c0820151600684015560e090910151600790920180546001600160a01b03191692909116919091179055838382818110611c7257611c726149d5565b905061010002016000013591508080611c8a90614a03565b915050611949565b507f0d81786d9719fff6cc2cf3c64025550dbba243da255d6c5fa0879e8ad6af83cc6011604051611cc39190614a4d565b60405180910390a1505050565b610d95838383604051806020016040528060008152506127b2565b611cf6610efd612a68565b611d685760405162461bcd60e51b815260206004820152603060248201527f4552433732314275726e61626c653a2063616c6c6572206973206e6f74206f7760448201527f6e6572206e6f7220617070726f766564000000000000000000000000000000006064820152608401610c4d565b611d7181613134565b50565b600c5460ff1615611dba5760405162461bcd60e51b815260206004820152601060248201526f14185d5cd8589b194e881c185d5cd95960821b6044820152606401610c4d565b611de67f9f2df0fed2c77648de5860a4cc508cd0818c85b8b8a1ab4ceeef8d981c8956a6610864612a68565b611e325760405162461bcd60e51b815260206004820152601d60248201527f6d7573742068617665206d696e74657220726f6c6520746f206d696e740000006044820152606401610c4d565b600e54600f54611e439083906149eb565b1115611e9d5760405162461bcd60e51b8152602060048201526024808201527f63616e6e6f74206d696e74206d6f7265207468616e206d6178546f74616c537560448201526370706c7960e01b6064820152608401610c4d565b600f5460005b82811015611f0857838382818110611ebd57611ebd6149d5565b9050602002810190611ecf9190614aeb565b6000848152601960205260409020611ee89290916142de565b50611ef46001836149eb565b915080611f0081614a03565b915050611ea3565b50600f555050565b6000611f1b600a5490565b8210611f8f5760405162461bcd60e51b815260206004820152602c60248201527f455243373231456e756d657261626c653a20676c6f62616c20696e646578206f60448201527f7574206f6620626f756e647300000000000000000000000000000000000000006064820152608401610c4d565b600a8281548110611fa257611fa26149d5565b90600052602060002001549050919050565b6011546000906120065760405162461bcd60e51b815260206004820152601860248201527f6e6f207075626c6963206d696e7420636f6e646974696f6e00000000000000006044820152606401610c4d565b6011545b801561206857601161201d600183614b32565b8154811061202d5761202d6149d5565b906000526020600020906008020160000154421061205657612050600182614b32565b91505090565b8061206081614b49565b91505061200a565b5060405162461bcd60e51b815260206004820152601860248201527f6e6f20616374697665206d696e7420636f6e646974696f6e00000000000000006044820152606401610c4d565b6000818152600460205260408120546001600160a01b031680610b405760405162461bcd60e51b815260206004820152602960248201527f4552433732313a206f776e657220717565727920666f72206e6f6e657869737460448201527f656e7420746f6b656e00000000000000000000000000000000000000000000006064820152608401610c4d565b60006001600160a01b0382166121ba5760405162461bcd60e51b815260206004820152602a60248201527f4552433732313a2062616c616e636520717565727920666f7220746865207a6560448201527f726f2061646472657373000000000000000000000000000000000000000000006064820152608401610c4d565b506001600160a01b031660009081526005602052604090205490565b6122027f65d7a28e3265b37a6474929f336521b332c1681b933f6cb9f3376673440d862a610864612a68565b61224e5760405162461bcd60e51b815260206004820152601e60248201527f6d75737420686176652070617573657220726f6c6520746f20706175736500006044820152606401610c4d565b61187a6131db565b6122636000610864612a68565b6122a35760405162461bcd60e51b815260206004820152601160248201527037b7363c9036b7b23ab6329030b236b4b760791b6044820152606401610c4d565b6015805460ff19168215159081179091556040519081527ffb4ba02cee22486df888d7ffb97c6100ec3193781e025cb9a4bc6fc358d626cc90602001610ee7565b60008281526001602052604081206122fc9083613257565b9392505050565b6015546040805163a217fddf60e01b815290516101009092046001600160a01b0316916391d1485491839163a217fddf91600480820192602092909190829003018186803b15801561235457600080fd5b505afa158015612368573d6000803e3d6000fd5b505050506040513d601f19601f8201168201806040525081019061238c9190614b60565b612394612a68565b6040516001600160e01b031960e085901b16815260048101929092526001600160a01b0316602482015260440160206040518083038186803b1580156123d957600080fd5b505afa1580156123ed573d6000803e3d6000fd5b505050506040513d601f19601f820116820180604052508101906124119190614b79565b61245d5760405162461bcd60e51b815260206004820152601260248201527f6e6f742070726f746f636f6c2061646d696e00000000000000000000000000006044820152606401610c4d565b610d95601783836142de565b606060038054610b559061491e565b612480612a68565b6001600160a01b0316826001600160a01b031614156124e15760405162461bcd60e51b815260206004820152601960248201527f4552433732313a20617070726f766520746f2063616c6c6572000000000000006044820152606401610c4d565b80600760006124ee612a68565b6001600160a01b03908116825260208083019390935260409182016000908120918716808252919093529120805460ff191692151592909217909155612532612a68565b6001600160a01b03167f17307eab39ab6107e8899845ad3d59bd9653f200f220920489ca2b5937696c318360405161256e911515815260200190565b60405180910390a35050565b60608167ffffffffffffffff811115612595576125956147fa565b6040519080825280602002602001820160405280156125c857816020015b60608152602001906001900390816125b35790505b50905060005b8281101561266857612638308585848181106125ec576125ec6149d5565b90506020028101906125fe9190614aeb565b8080601f01602080910402602001604051908101604052809392919081815260200183838082843760009201919091525061326392505050565b82828151811061264a5761264a6149d5565b6020026020010181905250808061266090614a03565b9150506125ce565b5092915050565b600c5460ff16156126b55760405162461bcd60e51b815260206004820152601060248201526f14185d5cd8589b194e881c185d5cd95960821b6044820152606401610c4d565b6126e17f9f2df0fed2c77648de5860a4cc508cd0818c85b8b8a1ab4ceeef8d981c8956a6610864612a68565b61272d5760405162461bcd60e51b815260206004820152601d60248201527f6d7573742068617665206d696e74657220726f6c6520746f206d696e740000006044820152606401610c4d565b600e5481600f5461273e91906149eb565b11156127985760405162461bcd60e51b8152602060048201526024808201527f63616e6e6f74206d696e74206d6f7265207468616e206d6178546f74616c537560448201526370706c7960e01b6064820152608401610c4d565b80600f60008282546127aa91906149eb565b909155505050565b6127c36127bd612a68565b83612ae0565b6128295760405162461bcd60e51b815260206004820152603160248201527f4552433732313a207472616e736665722063616c6c6572206973206e6f74206f6044820152701ddb995c881b9bdc88185c1c1c9bdd9959607a1b6064820152608401610c4d565b61283584848484613288565b50505050565b60606000612847613306565b6000848152601960205260408120805492935090916128659061491e565b9050111561290c57600083815260196020526040902080546128869061491e565b80601f01602080910402602001604051908101604052809291908181526020018280546128b29061491e565b80156128ff5780601f106128d4576101008083540402835291602001916128ff565b820191906000526020600020905b8154815290600101906020018083116128e257829003601f168201915b5050505050915050919050565b805115612945578061291d84613315565b60405160200161292e929190614b96565b604051602081830303815290604052915050919050565b5050604080516020810190915260008152919050565b6000818152600160205260408120610b4090613413565b611760828261341d565b606060178054610b559061491e565b6011818154811061299b57600080fd5b600091825260209091206008909102018054600182015460028301546003840154600485015460058601546006870154600790970154959750939592949193909290916001600160a01b031688565b600c5460009061010090046001600160a01b0316331415612a12575060131936013560601c90565b503390565b905090565b612a268282613445565b5050565b60006122fc836001600160a01b0384166134e4565b3390565b60006001600160e01b0319821663780e9d6360e01b1480610b405750610b4082613533565b6000612a176129ea565b600081815260066020526040902080546001600160a01b0319166001600160a01b0384169081179091558190612aa7826120b1565b6001600160a01b03167f8c5be1e5ebec7d5bd14f71427d1e84f3dd0314c0f7b2291e5b200ac8c7c3b92560405160405180910390a45050565b6000818152600460205260408120546001600160a01b0316612b595760405162461bcd60e51b815260206004820152602c60248201527f4552433732313a206f70657261746f7220717565727920666f72206e6f6e657860448201526b34b9ba32b73a103a37b5b2b760a11b6064820152608401610c4d565b6000612b64836120b1565b9050806001600160a01b0316846001600160a01b03161480612b9f5750836001600160a01b0316612b9484610bd8565b6001600160a01b0316145b80612bcf57506001600160a01b0380821660009081526007602090815260408083209388168352929052205460ff165b949350505050565b826001600160a01b0316612bea826120b1565b6001600160a01b031614612c665760405162461bcd60e51b815260206004820152602960248201527f4552433732313a207472616e73666572206f6620746f6b656e2074686174206960448201527f73206e6f74206f776e00000000000000000000000000000000000000000000006064820152608401610c4d565b6001600160a01b038216612cc85760405162461bcd60e51b8152602060048201526024808201527f4552433732313a207472616e7366657220746f20746865207a65726f206164646044820152637265737360e01b6064820152608401610c4d565b612cd3838383613573565b612cde600082612a72565b6001600160a01b0383166000908152600560205260408120805460019290612d07908490614b32565b90915550506001600160a01b0382166000908152600560205260408120805460019290612d359084906149eb565b909155505060008181526004602052604080822080546001600160a01b0319166001600160a01b0386811691821790925591518493918716917fddf252ad1be2c89b69c2b068fc378daa952ba7f163c4a11628f55a4df523b3ef91a4505050565b600082815260208190526040902060010154612db981612db4612a68565b613686565b610d958383613445565b600081815b8551811015612e67576000868281518110612de557612de56149d5565b60200260200101519050808311612e27576040805160208101859052908101829052606001604051602081830303815290604052805190602001209250612e54565b60408051602081018390529081018490526060016040516020818303038152906040528051906020012092505b5080612e5f81614a03565b915050612dc8565b509092149392505050565b6016546001600160a01b03908116908316612ee057813414612ed65760405162461bcd60e51b815260206004820152600f60248201527f76616c756520213d20616d6f756e7400000000000000000000000000000000006044820152606401610c4d565b610d958134613704565b826001600160a01b03166323b872dd612ef7612a68565b6040516001600160e01b031960e084901b1681526001600160a01b039182166004820152908416602482015260448101859052606401602060405180830381600087803b158015612f4757600080fd5b505af1158015612f5b573d6000803e3d6000fd5b505050506040513d601f19601f82011682018060405250810190612f7f9190614b79565b610d955760405162461bcd60e51b815260206004820152601a60248201527f6661696c656420746f207472616e73666572207061796d656e740000000000006044820152606401610c4d565b612a2682826040518060200160405280600081525061381d565b612fed612a68565b6001600160a01b0316816001600160a01b0316146130735760405162461bcd60e51b815260206004820152602f60248201527f416363657373436f6e74726f6c3a2063616e206f6e6c792072656e6f756e636560448201527f20726f6c657320666f722073656c6600000000000000000000000000000000006064820152608401610c4d565b612a26828261389b565b60006122fc836001600160a01b038416613938565b600c5460ff166130e45760405162461bcd60e51b815260206004820152601460248201527f5061757361626c653a206e6f74207061757365640000000000000000000000006044820152606401610c4d565b600c805460ff191690557f5db9ee0a495bf2e6ff9c91a7834c1ba4fdd244a5e8aa4e537bd38aeae4b073aa613117612a68565b6040516001600160a01b03909116815260200160405180910390a1565b600061313f826120b1565b905061314d81600084613573565b613158600083612a72565b6001600160a01b0381166000908152600560205260408120805460019290613181908490614b32565b909155505060008281526004602052604080822080546001600160a01b0319169055518391906001600160a01b038416907fddf252ad1be2c89b69c2b068fc378daa952ba7f163c4a11628f55a4df523b3ef908390a45050565b600c5460ff16156132215760405162461bcd60e51b815260206004820152601060248201526f14185d5cd8589b194e881c185d5cd95960821b6044820152606401610c4d565b600c805460ff191660011790557f62e78cea01bee320cd4e420270b5ea74000d11b0c9f74754ebdbfc544b05a258613117612a68565b60006122fc8383613a2b565b60606122fc8383604051806060016040528060278152602001614cdc60279139613a55565b613293848484612bd7565b61329f84848484613b29565b6128355760405162461bcd60e51b815260206004820152603260248201527f4552433732313a207472616e7366657220746f206e6f6e20455243373231526560448201527131b2b4bb32b91034b6b83632b6b2b73a32b960711b6064820152608401610c4d565b606060188054610b559061491e565b6060816133395750506040805180820190915260018152600360fc1b602082015290565b8160005b8115613363578061334d81614a03565b915061335c9050600a836149c1565b915061333d565b60008167ffffffffffffffff81111561337e5761337e6147fa565b6040519080825280601f01601f1916602001820160405280156133a8576020820181803683370190505b5090505b8415612bcf576133bd600183614b32565b91506133ca600a86614bc5565b6133d59060306149eb565b60f81b8183815181106133ea576133ea6149d5565b60200101906001600160f81b031916908160001a90535061340c600a866149c1565b94506133ac565b6000610b40825490565b60008281526020819052604090206001015461343b81612db4612a68565b610d95838361389b565b6000828152602081815260408083206001600160a01b038516845290915290205460ff16612a26576000828152602081815260408083206001600160a01b03851684529091529020805460ff191660011790556134a0612a68565b6001600160a01b0316816001600160a01b0316837f2f8788117e7eff1d82e926ec794901d17c78024a50270940304540a733656f0d60405160405180910390a45050565b600081815260018301602052604081205461352b57508154600181810184556000848152602080822090930184905584548482528286019093526040902091909155610b40565b506000610b40565b60006001600160e01b031982166380ac58cd60e01b148061356457506001600160e01b03198216635b5e139f60e01b145b80610b405750610b4082613c88565b61357e838383613cad565b60155460ff16801561359857506001600160a01b03831615155b80156135ac57506001600160a01b03821615155b15610d95576001600160a01b03831660009081527f7c7a990f752005aea38438cc35abc5417bd322e6c964ec21d52573494225142c602052604090205460ff168061362e57506001600160a01b03821660009081527f7c7a990f752005aea38438cc35abc5417bd322e6c964ec21d52573494225142c602052604090205460ff165b610d955760405162461bcd60e51b815260206004820152602360248201527f7265737472696374656420746f205452414e534645525f524f4c4520686f6c6460448201526265727360e81b6064820152608401610c4d565b6000828152602081815260408083206001600160a01b038516845290915290205460ff16612a26576136c2816001600160a01b03166014613d31565b6136cd836020613d31565b6040516020016136de929190614bd9565b60408051601f198184030181529082905262461bcd60e51b8252610c4d91600401614473565b804710156137545760405162461bcd60e51b815260206004820152601d60248201527f416464726573733a20696e73756666696369656e742062616c616e63650000006044820152606401610c4d565b6000826001600160a01b03168260405160006040518083038185875af1925050503d80600081146137a1576040519150601f19603f3d011682016040523d82523d6000602084013e6137a6565b606091505b5050905080610d955760405162461bcd60e51b815260206004820152603a60248201527f416464726573733a20756e61626c6520746f2073656e642076616c75652c207260448201527f6563697069656e74206d617920686176652072657665727465640000000000006064820152608401610c4d565b6138278383613eda565b6138346000848484613b29565b610d955760405162461bcd60e51b815260206004820152603260248201527f4552433732313a207472616e7366657220746f206e6f6e20455243373231526560448201527131b2b4bb32b91034b6b83632b6b2b73a32b960711b6064820152608401610c4d565b6000828152602081815260408083206001600160a01b038516845290915290205460ff1615612a26576000828152602081815260408083206001600160a01b03851684529091529020805460ff191690556138f4612a68565b6001600160a01b0316816001600160a01b0316837ff6391f5c32d9c69d2a47ea670b442974b53935d1edc7fd64eb21e047a839171b60405160405180910390a45050565b60008181526001830160205260408120548015613a2157600061395c600183614b32565b855490915060009061397090600190614b32565b90508181146139d5576000866000018281548110613990576139906149d5565b90600052602060002001549050808760000184815481106139b3576139b36149d5565b6000918252602080832090910192909255918252600188019052604090208390555b85548690806139e6576139e6614c5a565b600190038181906000526020600020016000905590558560010160008681526020019081526020016000206000905560019350505050610b40565b6000915050610b40565b6000826000018281548110613a4257613a426149d5565b9060005260206000200154905092915050565b6060833b613ab45760405162461bcd60e51b815260206004820152602660248201527f416464726573733a2064656c65676174652063616c6c20746f206e6f6e2d636f6044820152651b9d1c9858dd60d21b6064820152608401610c4d565b600080856001600160a01b031685604051613acf9190614c70565b600060405180830381855af49150503d8060008114613b0a576040519150601f19603f3d011682016040523d82523d6000602084013e613b0f565b606091505b5091509150613b1f828286614028565b9695505050505050565b60006001600160a01b0384163b15613c7d57836001600160a01b031663150b7a02613b52612a68565b8786866040518563ffffffff1660e01b8152600401613b749493929190614c8c565b602060405180830381600087803b158015613b8e57600080fd5b505af1925050508015613bbe575060408051601f3d908101601f19168201909252613bbb91810190614cbe565b60015b613c63573d808015613bec576040519150601f19603f3d011682016040523d82523d6000602084013e613bf1565b606091505b508051613c5b5760405162461bcd60e51b815260206004820152603260248201527f4552433732313a207472616e7366657220746f206e6f6e20455243373231526560448201527131b2b4bb32b91034b6b83632b6b2b73a32b960711b6064820152608401610c4d565b805181602001fd5b6001600160e01b031916630a85bd0160e11b149050612bcf565b506001949350505050565b60006001600160e01b03198216635a05180f60e01b1480610b405750610b4082614061565b613cb8838383614096565b600c5460ff1615610d955760405162461bcd60e51b815260206004820152602b60248201527f4552433732315061757361626c653a20746f6b656e207472616e73666572207760448201527f68696c65207061757365640000000000000000000000000000000000000000006064820152608401610c4d565b60606000613d4083600261498c565b613d4b9060026149eb565b67ffffffffffffffff811115613d6357613d636147fa565b6040519080825280601f01601f191660200182016040528015613d8d576020820181803683370190505b509050600360fc1b81600081518110613da857613da86149d5565b60200101906001600160f81b031916908160001a905350600f60fb1b81600181518110613dd757613dd76149d5565b60200101906001600160f81b031916908160001a9053506000613dfb84600261498c565b613e069060016149eb565b90505b6001811115613e8b577f303132333435363738396162636465660000000000000000000000000000000085600f1660108110613e4757613e476149d5565b1a60f81b828281518110613e5d57613e5d6149d5565b60200101906001600160f81b031916908160001a90535060049490941c93613e8481614b49565b9050613e09565b5083156122fc5760405162461bcd60e51b815260206004820181905260248201527f537472696e67733a20686578206c656e67746820696e73756666696369656e746044820152606401610c4d565b6001600160a01b038216613f305760405162461bcd60e51b815260206004820181905260248201527f4552433732313a206d696e7420746f20746865207a65726f20616464726573736044820152606401610c4d565b6000818152600460205260409020546001600160a01b031615613f955760405162461bcd60e51b815260206004820152601c60248201527f4552433732313a20746f6b656e20616c7265616479206d696e746564000000006044820152606401610c4d565b613fa160008383613573565b6001600160a01b0382166000908152600560205260408120805460019290613fca9084906149eb565b909155505060008181526004602052604080822080546001600160a01b0319166001600160a01b03861690811790915590518392907fddf252ad1be2c89b69c2b068fc378daa952ba7f163c4a11628f55a4df523b3ef908290a45050565b606083156140375750816122fc565b8251156140475782518084602001fd5b8160405162461bcd60e51b8152600401610c4d9190614473565b60006001600160e01b03198216637965db0b60e01b1480610b4057506301ffc9a760e01b6001600160e01b0319831614610b40565b6001600160a01b0383166140f1576140ec81600a80546000838152600b60205260408120829055600182018355919091527fc65a7bb8d6351c1cf70c95a316cc6a92839c986682d98bc35f958f4883f9d2a80155565b614114565b816001600160a01b0316836001600160a01b03161461411457614114838261414e565b6001600160a01b03821661412b57610d95816141eb565b826001600160a01b0316826001600160a01b031614610d9557610d95828261429a565b6000600161415b8461213c565b6141659190614b32565b6000838152600960205260409020549091508082146141b8576001600160a01b03841660009081526008602090815260408083208584528252808320548484528184208190558352600990915290208190555b5060009182526009602090815260408084208490556001600160a01b039094168352600881528383209183525290812055565b600a546000906141fd90600190614b32565b6000838152600b6020526040812054600a8054939450909284908110614225576142256149d5565b9060005260206000200154905080600a8381548110614246576142466149d5565b6000918252602080832090910192909255828152600b9091526040808220849055858252812055600a80548061427e5761427e614c5a565b6001900381819060005260206000200160009055905550505050565b60006142a58361213c565b6001600160a01b039093166000908152600860209081526040808320868452825280832085905593825260099052919091209190915550565b8280546142ea9061491e565b90600052602060002090601f01602090048101928261430c5760008555614352565b82601f106143255782800160ff19823516178555614352565b82800160010185558215614352579182015b82811115614352578235825591602001919060010190614337565b5061435e929150614383565b5090565b5080546000825560080290600052602060002090810190611d719190614398565b5b8082111561435e5760008155600101614384565b5b8082111561435e576000808255600182018190556002820181905560038201819055600482018190556005820181905560068201556007810180546001600160a01b0319169055600801614399565b6001600160e01b031981168114611d7157600080fd5b60006020828403121561441057600080fd5b81356122fc816143e8565b60005b8381101561443657818101518382015260200161441e565b838111156128355750506000910152565b6000815180845261445f81602086016020860161441b565b601f01601f19169290920160200192915050565b6020815260006122fc6020830184614447565b60006020828403121561449857600080fd5b5035919050565b6001600160a01b0381168114611d7157600080fd5b600080604083850312156144c757600080fd5b82356144d28161449f565b946020939093013593505050565b6000602082840312156144f257600080fd5b81356122fc8161449f565b60008060006060848603121561451257600080fd5b833561451d8161449f565b9250602084013561452d8161449f565b929592945050506040919091013590565b6000806040838503121561455157600080fd5b50508035926020909101359150565b6000806040838503121561457357600080fd5b8235915060208301356145858161449f565b809150509250929050565b60008083601f8401126145a257600080fd5b50813567ffffffffffffffff8111156145ba57600080fd5b6020830191508360208260051b85010111156145d557600080fd5b9250929050565b6000806000604084860312156145f157600080fd5b83359250602084013567ffffffffffffffff81111561460f57600080fd5b61461b86828701614590565b9497909650939450505050565b6000806020838503121561463b57600080fd5b823567ffffffffffffffff8082111561465357600080fd5b818501915085601f83011261466757600080fd5b81358181111561467657600080fd5b86602082850101111561468857600080fd5b60209290920196919550909350505050565b600080602083850312156146ad57600080fd5b823567ffffffffffffffff808211156146c557600080fd5b818501915085601f8301126146d957600080fd5b8135818111156146e857600080fd5b8660208260081b850101111561468857600080fd5b6000806020838503121561471057600080fd5b823567ffffffffffffffff81111561472757600080fd5b61473385828601614590565b90969095509350505050565b8015158114611d7157600080fd5b60006020828403121561475f57600080fd5b81356122fc8161473f565b6000806040838503121561477d57600080fd5b82356147888161449f565b915060208301356145858161473f565b6000602080830181845280855180835260408601915060408160051b870101925083870160005b828110156147ed57603f198886030184526147db858351614447565b945092850192908501906001016147bf565b5092979650505050505050565b634e487b7160e01b600052604160045260246000fd5b6000806000806080858703121561482657600080fd5b84356148318161449f565b935060208501356148418161449f565b925060408501359150606085013567ffffffffffffffff8082111561486557600080fd5b818701915087601f83011261487957600080fd5b81358181111561488b5761488b6147fa565b604051601f8201601f19908116603f011681019083821181831017156148b3576148b36147fa565b816040528281528a60208487010111156148cc57600080fd5b82602086016020830137600060208483010152809550505050505092959194509250565b6000806040838503121561490357600080fd5b823561490e8161449f565b915060208301356145858161449f565b600181811c9082168061493257607f821691505b6020821081141561495357634e487b7160e01b600052602260045260246000fd5b50919050565b60006020828403121561496b57600080fd5b81516122fc8161449f565b634e487b7160e01b600052601160045260246000fd5b60008160001904831182151516156149a6576149a6614976565b500290565b634e487b7160e01b600052601260045260246000fd5b6000826149d0576149d06149ab565b500490565b634e487b7160e01b600052603260045260246000fd5b600082198211156149fe576149fe614976565b500190565b6000600019821415614a1757614a17614976565b5060010190565b60208152816020820152818360408301376000818301604090810191909152601f909201601f19160101919050565b60006020808301818452808554808352604092508286019150866000528360002060005b82811015614ade5781548452600180830154878601526002830154868601526003830154606086015260048301546080860152600583015460a0860152600683015460c086015260078301546001600160a01b031660e08601526101009094019360089092019101614a71565b5091979650505050505050565b6000808335601e19843603018112614b0257600080fd5b83018035915067ffffffffffffffff821115614b1d57600080fd5b6020019150368190038213156145d557600080fd5b600082821015614b4457614b44614976565b500390565b600081614b5857614b58614976565b506000190190565b600060208284031215614b7257600080fd5b5051919050565b600060208284031215614b8b57600080fd5b81516122fc8161473f565b60008351614ba881846020880161441b565b835190830190614bbc81836020880161441b565b01949350505050565b600082614bd457614bd46149ab565b500690565b7f416363657373436f6e74726f6c3a206163636f756e7420000000000000000000815260008351614c1181601785016020880161441b565b7f206973206d697373696e6720726f6c65200000000000000000000000000000006017918401918201528351614c4e81602884016020880161441b565b01602801949350505050565b634e487b7160e01b600052603160045260246000fd5b60008251614c8281846020870161441b565b9190910192915050565b60006001600160a01b03808716835280861660208401525083604083015260806060830152613b1f6080830184614447565b600060208284031215614cd057600080fd5b81516122fc816143e856fe416464726573733a206c6f772d6c6576656c2064656c65676174652063616c6c206661696c6564a164736f6c6343000809000a",
  "linkReferences": {},
  "deployedLinkReferences": {}
}