{
  "_format": "hh-sol-artifact-1",
  "contractName": "LazyNFT",
  "sourceName": "contracts/LazyNFT.sol",
  "abi": [
    {
      "inputs": [
        {
          "internalType": "address payable",
          "name": "_controlCenter",
          "type": "address"
        },
        {
          "internalType": "string",
          "name": "_name",
          "type": "string"
        },
        {
          "internalType": "string",
          "name": "_symbol",
          "type": "string"
        },
        {
          "internalType": "address",
          "name": "_trustedForwarder",
          "type": "address"
        },
        {
          "internalType": "string",
          "name": "_contractUri",
          "type": "string"
        },
        {
          "internalType": "string",
          "name": "_baseTokenUri",
          "type": "string"
        },
        {
          "internalType": "uint256",
          "name": "maxSupply",
          "type": "uint256"
        }
      ],
      "stateMutability": "nonpayable",
      "type": "constructor"
    },
    {
      "anonymous": false,
      "inputs": [
        {
          "indexed": true,
          "internalType": "address",
          "name": "owner",
          "type": "address"
        },
        {
          "indexed": true,
          "internalType": "address",
          "name": "approved",
          "type": "address"
        },
        {
          "indexed": true,
          "internalType": "uint256",
          "name": "tokenId",
          "type": "uint256"
        }
      ],
      "name": "Approval",
      "type": "event"
    },
    {
      "anonymous": false,
      "inputs": [
        {
          "indexed": true,
          "internalType": "address",
          "name": "owner",
          "type": "address"
        },
        {
          "indexed": true,
          "internalType": "address",
          "name": "operator",
          "type": "address"
        },
        {
          "indexed": false,
          "internalType": "bool",
          "name": "approved",
          "type": "bool"
        }
      ],
      "name": "ApprovalForAll",
      "type": "event"
    },
    {
      "anonymous": false,
      "inputs": [
        {
          "indexed": false,
          "internalType": "string",
          "name": "uri",
          "type": "string"
        }
      ],
      "name": "BaseTokenURIUpdated",
      "type": "event"
    },
    {
      "anonymous": false,
      "inputs": [
        {
          "indexed": true,
          "internalType": "address",
          "name": "to",
          "type": "address"
        },
        {
          "indexed": false,
          "internalType": "uint256",
          "name": "startTokenId",
          "type": "uint256"
        },
        {
          "indexed": false,
          "internalType": "uint256",
          "name": "quantity",
          "type": "uint256"
        },
        {
          "indexed": false,
          "internalType": "uint256",
          "name": "mintConditionIndex",
          "type": "uint256"
        }
      ],
      "name": "Claimed",
      "type": "event"
    },
    {
      "anonymous": false,
      "inputs": [
        {
          "indexed": true,
          "internalType": "address",
          "name": "to",
          "type": "address"
        },
        {
          "indexed": false,
          "internalType": "uint256",
          "name": "amount",
          "type": "uint256"
        }
      ],
      "name": "FundsWithdrawn",
      "type": "event"
    },
    {
      "anonymous": false,
      "inputs": [
        {
          "indexed": false,
          "internalType": "address",
          "name": "account",
          "type": "address"
        }
      ],
      "name": "Paused",
      "type": "event"
    },
    {
      "anonymous": false,
      "inputs": [
        {
          "components": [
            {
              "internalType": "uint256",
              "name": "startTimestamp",
              "type": "uint256"
            },
            {
              "internalType": "uint256",
              "name": "maxMintSupply",
              "type": "uint256"
            },
            {
              "internalType": "uint256",
              "name": "currentMintSupply",
              "type": "uint256"
            },
            {
              "internalType": "uint256",
              "name": "quantityLimitPerTransaction",
              "type": "uint256"
            },
            {
              "internalType": "uint256",
              "name": "waitTimeSecondsLimitPerTransaction",
              "type": "uint256"
            },
            {
              "internalType": "uint256",
              "name": "pricePerToken",
              "type": "uint256"
            },
            {
              "internalType": "address",
              "name": "currency",
              "type": "address"
            },
            {
              "internalType": "bytes32",
              "name": "merkleRoot",
              "type": "bytes32"
            }
          ],
          "indexed": false,
          "internalType": "struct LazyNFT.PublicMintCondition[]",
          "name": "mintConditions",
          "type": "tuple[]"
        }
      ],
      "name": "PublicMintConditionUpdated",
      "type": "event"
    },
    {
      "anonymous": false,
      "inputs": [
        {
          "indexed": false,
          "internalType": "bool",
          "name": "transferable",
          "type": "bool"
        }
      ],
      "name": "RestrictedTransferUpdated",
      "type": "event"
    },
    {
      "anonymous": false,
      "inputs": [
        {
          "indexed": true,
          "internalType": "bytes32",
          "name": "role",
          "type": "bytes32"
        },
        {
          "indexed": true,
          "internalType": "bytes32",
          "name": "previousAdminRole",
          "type": "bytes32"
        },
        {
          "indexed": true,
          "internalType": "bytes32",
          "name": "newAdminRole",
          "type": "bytes32"
        }
      ],
      "name": "RoleAdminChanged",
      "type": "event"
    },
    {
      "anonymous": false,
      "inputs": [
        {
          "indexed": true,
          "internalType": "bytes32",
          "name": "role",
          "type": "bytes32"
        },
        {
          "indexed": true,
          "internalType": "address",
          "name": "account",
          "type": "address"
        },
        {
          "indexed": true,
          "internalType": "address",
          "name": "sender",
          "type": "address"
        }
      ],
      "name": "RoleGranted",
      "type": "event"
    },
    {
      "anonymous": false,
      "inputs": [
        {
          "indexed": true,
          "internalType": "bytes32",
          "name": "role",
          "type": "bytes32"
        },
        {
          "indexed": true,
          "internalType": "address",
          "name": "account",
          "type": "address"
        },
        {
          "indexed": true,
          "internalType": "address",
          "name": "sender",
          "type": "address"
        }
      ],
      "name": "RoleRevoked",
      "type": "event"
    },
    {
      "anonymous": false,
      "inputs": [
        {
          "indexed": false,
          "internalType": "uint256",
          "name": "royaltyBps",
          "type": "uint256"
        }
      ],
      "name": "RoyaltyUpdated",
      "type": "event"
    },
    {
      "anonymous": false,
      "inputs": [
        {
          "indexed": false,
          "internalType": "uint256",
          "name": "supply",
          "type": "uint256"
        }
      ],
      "name": "TotalSupplyUpdated",
      "type": "event"
    },
    {
      "anonymous": false,
      "inputs": [
        {
          "indexed": true,
          "internalType": "address",
          "name": "from",
          "type": "address"
        },
        {
          "indexed": true,
          "internalType": "address",
          "name": "to",
          "type": "address"
        },
        {
          "indexed": true,
          "internalType": "uint256",
          "name": "tokenId",
          "type": "uint256"
        }
      ],
      "name": "Transfer",
      "type": "event"
    },
    {
      "anonymous": false,
      "inputs": [
        {
          "indexed": false,
          "internalType": "address",
          "name": "account",
          "type": "address"
        }
      ],
      "name": "Unpaused",
      "type": "event"
    },
    {
      "inputs": [],
      "name": "DEFAULT_ADMIN_ROLE",
      "outputs": [
        {
          "internalType": "bytes32",
          "name": "",
          "type": "bytes32"
        }
      ],
      "stateMutability": "view",
      "type": "function"
    },
    {
      "inputs": [],
      "name": "MINTER_ROLE",
      "outputs": [
        {
          "internalType": "bytes32",
          "name": "",
          "type": "bytes32"
        }
      ],
      "stateMutability": "view",
      "type": "function"
    },
    {
      "inputs": [],
      "name": "PAUSER_ROLE",
      "outputs": [
        {
          "internalType": "bytes32",
          "name": "",
          "type": "bytes32"
        }
      ],
      "stateMutability": "view",
      "type": "function"
    },
    {
      "inputs": [],
      "name": "TRANSFER_ROLE",
      "outputs": [
        {
          "internalType": "bytes32",
          "name": "",
          "type": "bytes32"
        }
      ],
      "stateMutability": "view",
      "type": "function"
    },
    {
      "inputs": [
        {
          "internalType": "address",
          "name": "to",
          "type": "address"
        },
        {
          "internalType": "uint256",
          "name": "tokenId",
          "type": "uint256"
        }
      ],
      "name": "approve",
      "outputs": [],
      "stateMutability": "nonpayable",
      "type": "function"
    },
    {
      "inputs": [
        {
          "internalType": "address",
          "name": "owner",
          "type": "address"
        }
      ],
      "name": "balanceOf",
      "outputs": [
        {
          "internalType": "uint256",
          "name": "",
          "type": "uint256"
        }
      ],
      "stateMutability": "view",
      "type": "function"
    },
    {
      "inputs": [
        {
          "internalType": "uint256",
          "name": "tokenId",
          "type": "uint256"
        }
      ],
      "name": "burn",
      "outputs": [],
      "stateMutability": "nonpayable",
      "type": "function"
    },
    {
      "inputs": [
        {
          "internalType": "uint256",
          "name": "quantity",
          "type": "uint256"
        },
        {
          "internalType": "bytes32[]",
          "name": "proofs",
          "type": "bytes32[]"
        }
      ],
      "name": "claim",
      "outputs": [],
      "stateMutability": "payable",
      "type": "function"
    },
    {
      "inputs": [],
      "name": "contractURI",
      "outputs": [
        {
          "internalType": "string",
          "name": "",
          "type": "string"
        }
      ],
      "stateMutability": "view",
      "type": "function"
    },
    {
      "inputs": [
        {
          "internalType": "uint256",
          "name": "tokenId",
          "type": "uint256"
        }
      ],
      "name": "getApproved",
      "outputs": [
        {
          "internalType": "address",
          "name": "",
          "type": "address"
        }
      ],
      "stateMutability": "view",
      "type": "function"
    },
    {
      "inputs": [],
      "name": "getLastStartedMintConditionIndex",
      "outputs": [
        {
          "internalType": "uint256",
          "name": "",
          "type": "uint256"
        }
      ],
      "stateMutability": "view",
      "type": "function"
    },
    {
      "inputs": [
        {
          "internalType": "bytes32",
          "name": "role",
          "type": "bytes32"
        }
      ],
      "name": "getRoleAdmin",
      "outputs": [
        {
          "internalType": "bytes32",
          "name": "",
          "type": "bytes32"
        }
      ],
      "stateMutability": "view",
      "type": "function"
    },
    {
      "inputs": [
        {
          "internalType": "bytes32",
          "name": "role",
          "type": "bytes32"
        },
        {
          "internalType": "uint256",
          "name": "index",
          "type": "uint256"
        }
      ],
      "name": "getRoleMember",
      "outputs": [
        {
          "internalType": "address",
          "name": "",
          "type": "address"
        }
      ],
      "stateMutability": "view",
      "type": "function"
    },
    {
      "inputs": [
        {
          "internalType": "bytes32",
          "name": "role",
          "type": "bytes32"
        }
      ],
      "name": "getRoleMemberCount",
      "outputs": [
        {
          "internalType": "uint256",
          "name": "",
          "type": "uint256"
        }
      ],
      "stateMutability": "view",
      "type": "function"
    },
    {
      "inputs": [
        {
          "internalType": "bytes32",
          "name": "role",
          "type": "bytes32"
        },
        {
          "internalType": "address",
          "name": "account",
          "type": "address"
        }
      ],
      "name": "grantRole",
      "outputs": [],
      "stateMutability": "nonpayable",
      "type": "function"
    },
    {
      "inputs": [
        {
          "internalType": "bytes32",
          "name": "role",
          "type": "bytes32"
        },
        {
          "internalType": "address",
          "name": "account",
          "type": "address"
        }
      ],
      "name": "hasRole",
      "outputs": [
        {
          "internalType": "bool",
          "name": "",
          "type": "bool"
        }
      ],
      "stateMutability": "view",
      "type": "function"
    },
    {
      "inputs": [
        {
          "internalType": "address",
          "name": "owner",
          "type": "address"
        },
        {
          "internalType": "address",
          "name": "operator",
          "type": "address"
        }
      ],
      "name": "isApprovedForAll",
      "outputs": [
        {
          "internalType": "bool",
          "name": "",
          "type": "bool"
        }
      ],
      "stateMutability": "view",
      "type": "function"
    },
    {
      "inputs": [
        {
          "internalType": "address",
          "name": "forwarder",
          "type": "address"
        }
      ],
      "name": "isTrustedForwarder",
      "outputs": [
        {
          "internalType": "bool",
          "name": "",
          "type": "bool"
        }
      ],
      "stateMutability": "view",
      "type": "function"
    },
    {
      "inputs": [
        {
          "internalType": "string",
          "name": "_uri",
          "type": "string"
        }
      ],
      "name": "lazyMint",
      "outputs": [],
      "stateMutability": "nonpayable",
      "type": "function"
    },
    {
      "inputs": [
        {
          "internalType": "uint256",
          "name": "amount",
          "type": "uint256"
        }
      ],
      "name": "lazyMintAmount",
      "outputs": [],
      "stateMutability": "nonpayable",
      "type": "function"
    },
    {
      "inputs": [
        {
          "internalType": "string[]",
          "name": "_uris",
          "type": "string[]"
        }
      ],
      "name": "lazyMintBatch",
      "outputs": [],
      "stateMutability": "nonpayable",
      "type": "function"
    },
    {
      "inputs": [],
      "name": "maxTotalSupply",
      "outputs": [
        {
          "internalType": "uint256",
          "name": "",
          "type": "uint256"
        }
      ],
      "stateMutability": "view",
      "type": "function"
    },
    {
      "inputs": [
        {
          "internalType": "address",
          "name": "",
          "type": "address"
        }
      ],
      "name": "mint",
      "outputs": [],
      "stateMutability": "pure",
      "type": "function"
    },
    {
      "inputs": [
        {
          "internalType": "uint256",
          "name": "",
          "type": "uint256"
        }
      ],
      "name": "mintConditions",
      "outputs": [
        {
          "internalType": "uint256",
          "name": "startTimestamp",
          "type": "uint256"
        },
        {
          "internalType": "uint256",
          "name": "maxMintSupply",
          "type": "uint256"
        },
        {
          "internalType": "uint256",
          "name": "currentMintSupply",
          "type": "uint256"
        },
        {
          "internalType": "uint256",
          "name": "quantityLimitPerTransaction",
          "type": "uint256"
        },
        {
          "internalType": "uint256",
          "name": "waitTimeSecondsLimitPerTransaction",
          "type": "uint256"
        },
        {
          "internalType": "uint256",
          "name": "pricePerToken",
          "type": "uint256"
        },
        {
          "internalType": "address",
          "name": "currency",
          "type": "address"
        },
        {
          "internalType": "bytes32",
          "name": "merkleRoot",
          "type": "bytes32"
        }
      ],
      "stateMutability": "view",
      "type": "function"
    },
    {
      "inputs": [
        {
          "internalType": "bytes[]",
          "name": "data",
          "type": "bytes[]"
        }
      ],
      "name": "multicall",
      "outputs": [
        {
          "internalType": "bytes[]",
          "name": "results",
          "type": "bytes[]"
        }
      ],
      "stateMutability": "nonpayable",
      "type": "function"
    },
    {
      "inputs": [],
      "name": "name",
      "outputs": [
        {
          "internalType": "string",
          "name": "",
          "type": "string"
        }
      ],
      "stateMutability": "view",
      "type": "function"
    },
    {
      "inputs": [
        {
          "internalType": "address",
          "name": "",
          "type": "address"
        },
        {
          "internalType": "uint256",
          "name": "",
          "type": "uint256"
        }
      ],
      "name": "nextMintTimestampByCondition",
      "outputs": [
        {
          "internalType": "uint256",
          "name": "",
          "type": "uint256"
        }
      ],
      "stateMutability": "view",
      "type": "function"
    },
    {
      "inputs": [],
      "name": "nextMintTokenId",
      "outputs": [
        {
          "internalType": "uint256",
          "name": "",
          "type": "uint256"
        }
      ],
      "stateMutability": "view",
      "type": "function"
    },
    {
      "inputs": [],
      "name": "nextTokenId",
      "outputs": [
        {
          "internalType": "uint256",
          "name": "",
          "type": "uint256"
        }
      ],
      "stateMutability": "view",
      "type": "function"
    },
    {
      "inputs": [
        {
          "internalType": "uint256",
          "name": "tokenId",
          "type": "uint256"
        }
      ],
      "name": "ownerOf",
      "outputs": [
        {
          "internalType": "address",
          "name": "",
          "type": "address"
        }
      ],
      "stateMutability": "view",
      "type": "function"
    },
    {
      "inputs": [],
      "name": "pause",
      "outputs": [],
      "stateMutability": "nonpayable",
      "type": "function"
    },
    {
      "inputs": [],
      "name": "paused",
      "outputs": [
        {
          "internalType": "bool",
          "name": "",
          "type": "bool"
        }
      ],
      "stateMutability": "view",
      "type": "function"
    },
    {
      "inputs": [
        {
          "internalType": "bytes32",
          "name": "role",
          "type": "bytes32"
        },
        {
          "internalType": "address",
          "name": "account",
          "type": "address"
        }
      ],
      "name": "renounceRole",
      "outputs": [],
      "stateMutability": "nonpayable",
      "type": "function"
    },
    {
      "inputs": [
        {
          "internalType": "bytes32",
          "name": "role",
          "type": "bytes32"
        },
        {
          "internalType": "address",
          "name": "account",
          "type": "address"
        }
      ],
      "name": "revokeRole",
      "outputs": [],
      "stateMutability": "nonpayable",
      "type": "function"
    },
    {
      "inputs": [],
      "name": "royaltyBps",
      "outputs": [
        {
          "internalType": "uint256",
          "name": "",
          "type": "uint256"
        }
      ],
      "stateMutability": "view",
      "type": "function"
    },
    {
      "inputs": [
        {
          "internalType": "uint256",
          "name": "",
          "type": "uint256"
        },
        {
          "internalType": "uint256",
          "name": "salePrice",
          "type": "uint256"
        }
      ],
      "name": "royaltyInfo",
      "outputs": [
        {
          "internalType": "address",
          "name": "receiver",
          "type": "address"
        },
        {
          "internalType": "uint256",
          "name": "royaltyAmount",
          "type": "uint256"
        }
      ],
      "stateMutability": "view",
      "type": "function"
    },
    {
      "inputs": [
        {
          "internalType": "address",
          "name": "from",
          "type": "address"
        },
        {
          "internalType": "address",
          "name": "to",
          "type": "address"
        },
        {
          "internalType": "uint256",
          "name": "tokenId",
          "type": "uint256"
        }
      ],
      "name": "safeTransferFrom",
      "outputs": [],
      "stateMutability": "nonpayable",
      "type": "function"
    },
    {
      "inputs": [
        {
          "internalType": "address",
          "name": "from",
          "type": "address"
        },
        {
          "internalType": "address",
          "name": "to",
          "type": "address"
        },
        {
          "internalType": "uint256",
          "name": "tokenId",
          "type": "uint256"
        },
        {
          "internalType": "bytes",
          "name": "_data",
          "type": "bytes"
        }
      ],
      "name": "safeTransferFrom",
      "outputs": [],
      "stateMutability": "nonpayable",
      "type": "function"
    },
    {
      "inputs": [
        {
          "internalType": "address",
          "name": "operator",
          "type": "address"
        },
        {
          "internalType": "bool",
          "name": "approved",
          "type": "bool"
        }
      ],
      "name": "setApprovalForAll",
      "outputs": [],
      "stateMutability": "nonpayable",
      "type": "function"
    },
    {
      "inputs": [
        {
          "internalType": "string",
          "name": "_uri",
          "type": "string"
        }
      ],
      "name": "setBaseTokenURI",
      "outputs": [],
      "stateMutability": "nonpayable",
      "type": "function"
    },
    {
      "inputs": [
        {
          "internalType": "string",
          "name": "_URI",
          "type": "string"
        }
      ],
      "name": "setContractURI",
      "outputs": [],
      "stateMutability": "nonpayable",
      "type": "function"
    },
    {
      "inputs": [
        {
          "internalType": "uint256",
          "name": "maxSupply",
          "type": "uint256"
        }
      ],
      "name": "setMaxTotalSupply",
      "outputs": [],
      "stateMutability": "nonpayable",
      "type": "function"
    },
    {
      "inputs": [
        {
          "components": [
            {
              "internalType": "uint256",
              "name": "startTimestamp",
              "type": "uint256"
            },
            {
              "internalType": "uint256",
              "name": "maxMintSupply",
              "type": "uint256"
            },
            {
              "internalType": "uint256",
              "name": "currentMintSupply",
              "type": "uint256"
            },
            {
              "internalType": "uint256",
              "name": "quantityLimitPerTransaction",
              "type": "uint256"
            },
            {
              "internalType": "uint256",
              "name": "waitTimeSecondsLimitPerTransaction",
              "type": "uint256"
            },
            {
              "internalType": "uint256",
              "name": "pricePerToken",
              "type": "uint256"
            },
            {
              "internalType": "address",
              "name": "currency",
              "type": "address"
            },
            {
              "internalType": "bytes32",
              "name": "merkleRoot",
              "type": "bytes32"
            }
          ],
          "internalType": "struct LazyNFT.PublicMintCondition[]",
          "name": "conditions",
          "type": "tuple[]"
        }
      ],
      "name": "setPublicMintConditions",
      "outputs": [],
      "stateMutability": "nonpayable",
      "type": "function"
    },
    {
      "inputs": [
        {
          "internalType": "bool",
          "name": "_restrictedTransfer",
          "type": "bool"
        }
      ],
      "name": "setRestrictedTransfer",
      "outputs": [],
      "stateMutability": "nonpayable",
      "type": "function"
    },
    {
      "inputs": [
        {
          "internalType": "uint256",
          "name": "_royaltyBps",
          "type": "uint256"
        }
      ],
      "name": "setRoyaltyBps",
      "outputs": [],
      "stateMutability": "nonpayable",
      "type": "function"
    },
    {
      "inputs": [
        {
          "internalType": "bytes4",
          "name": "interfaceId",
          "type": "bytes4"
        }
      ],
      "name": "supportsInterface",
      "outputs": [
        {
          "internalType": "bool",
          "name": "",
          "type": "bool"
        }
      ],
      "stateMutability": "view",
      "type": "function"
    },
    {
      "inputs": [],
      "name": "symbol",
      "outputs": [
        {
          "internalType": "string",
          "name": "",
          "type": "string"
        }
      ],
      "stateMutability": "view",
      "type": "function"
    },
    {
      "inputs": [
        {
          "internalType": "uint256",
          "name": "index",
          "type": "uint256"
        }
      ],
      "name": "tokenByIndex",
      "outputs": [
        {
          "internalType": "uint256",
          "name": "",
          "type": "uint256"
        }
      ],
      "stateMutability": "view",
      "type": "function"
    },
    {
      "inputs": [
        {
          "internalType": "address",
          "name": "owner",
          "type": "address"
        },
        {
          "internalType": "uint256",
          "name": "index",
          "type": "uint256"
        }
      ],
      "name": "tokenOfOwnerByIndex",
      "outputs": [
        {
          "internalType": "uint256",
          "name": "",
          "type": "uint256"
        }
      ],
      "stateMutability": "view",
      "type": "function"
    },
    {
      "inputs": [
        {
          "internalType": "uint256",
          "name": "tokenId",
          "type": "uint256"
        }
      ],
      "name": "tokenURI",
      "outputs": [
        {
          "internalType": "string",
          "name": "",
          "type": "string"
        }
      ],
      "stateMutability": "view",
      "type": "function"
    },
    {
      "inputs": [],
      "name": "totalSupply",
      "outputs": [
        {
          "internalType": "uint256",
          "name": "",
          "type": "uint256"
        }
      ],
      "stateMutability": "view",
      "type": "function"
    },
    {
      "inputs": [
        {
          "internalType": "address",
          "name": "from",
          "type": "address"
        },
        {
          "internalType": "address",
          "name": "to",
          "type": "address"
        },
        {
          "internalType": "uint256",
          "name": "tokenId",
          "type": "uint256"
        }
      ],
      "name": "transferFrom",
      "outputs": [],
      "stateMutability": "nonpayable",
      "type": "function"
    },
    {
      "inputs": [],
      "name": "transfersRestricted",
      "outputs": [
        {
          "internalType": "bool",
          "name": "",
          "type": "bool"
        }
      ],
      "stateMutability": "view",
      "type": "function"
    },
    {
      "inputs": [],
      "name": "unpause",
      "outputs": [],
      "stateMutability": "nonpayable",
      "type": "function"
    },
    {
      "inputs": [],
      "name": "withdrawFunds",
      "outputs": [],
      "stateMutability": "nonpayable",
      "type": "function"
    }
  ],
  "bytecode": "0x60806040523480156200001157600080fd5b506040516200590038038062005900833981016040819052620000349162000507565b8386868482828160029080519060200190620000529291906200039e565b508051620000689060039060208401906200039e565b5050600c805460ff191690555080516200008a90600e9060208401906200039e565b50620000a160006200009b62000199565b620001b6565b620000d07f9f2df0fed2c77648de5860a4cc508cd0818c85b8b8a1ab4ceeef8d981c8956a66200009b62000199565b620000ff7f65d7a28e3265b37a6474929f336521b332c1681b933f6cb9f3376673440d862a6200009b62000199565b5050600f80546001600160a01b0319166001600160a01b0393841617905550600160105560118054610100600160a81b031916610100928a16929092029190911790558251620001579060179060208601906200039e565b5060128190556200018c7f8502233096d909befbda0999bb8ea2f3a6be3c138b9fbf003752a4c8bce86f6c6200009b62000199565b505050505050506200063e565b6000620001b0620001f960201b620025b41760201c565b90505b90565b620001cd82826200023960201b620025e21760201c565b6000828152600160209081526040909120620001f4918390620025f062000249821b17901c565b505050565b6000620002063362000269565b156200021c575060131936013560601c620001b3565b620002316200028060201b620026051760201c565b9050620001b3565b62000245828262000284565b5050565b600062000260836001600160a01b0384166200030e565b90505b92915050565b600f546001600160a01b038281169116145b919050565b3390565b6200029082826200035d565b62000245576000828152602081815260408083206001600160a01b03851684529091529020805460ff19166001179055620002ca62000199565b6001600160a01b0316816001600160a01b0316837f2f8788117e7eff1d82e926ec794901d17c78024a50270940304540a733656f0d60405160405180910390a45050565b60006200031c838362000386565b620003545750815460018181018455600084815260208082209093018490558454848252828601909352604090209190915562000263565b50600062000263565b6000918252602082815260408084206001600160a01b0393909316845291905290205460ff1690565b60009081526001919091016020526040902054151590565b828054620003ac90620005eb565b90600052602060002090601f016020900481019282620003d057600085556200041b565b82601f10620003eb57805160ff19168380011785556200041b565b828001600101855582156200041b579182015b828111156200041b578251825591602001919060010190620003fe565b50620004299291506200042d565b5090565b5b808211156200042957600081556001016200042e565b80516001600160a01b03811681146200027b57600080fd5b600082601f8301126200046d578081fd5b81516001600160401b03808211156200048a576200048a62000628565b6040516020601f8401601f1916820181018381118382101715620004b257620004b262000628565b6040528382528584018101871015620004c9578485fd5b8492505b83831015620004ec5785830181015182840182015291820191620004cd565b83831115620004fd57848185840101525b5095945050505050565b600080600080600080600060e0888a03121562000522578283fd5b6200052d8862000444565b60208901519097506001600160401b03808211156200054a578485fd5b620005588b838c016200045c565b975060408a01519150808211156200056e578485fd5b6200057c8b838c016200045c565b96506200058c60608b0162000444565b955060808a0151915080821115620005a2578485fd5b620005b08b838c016200045c565b945060a08a0151915080821115620005c6578384fd5b50620005d58a828b016200045c565b92505060c0880151905092959891949750929550565b6002810460018216806200060057607f821691505b602082108114156200062257634e487b7160e01b600052602260045260246000fd5b50919050565b634e487b7160e01b600052604160045260246000fd5b6152b2806200064e6000396000f3fe6080604052600436106103605760003560e01c80635c975abb116101c6578063a22cb465116100f7578063d539139311610095578063e88fbd411161006f578063e88fbd4114610962578063e8a3d48514610977578063e985e9c51461098c578063fd598550146109ac57610360565b8063d539139314610918578063d547741f1461092d578063e63ab1e91461094d57610360565b8063b88d4fde116100d1578063b88d4fde146108a3578063c63adb2b146108c3578063c87b56dd146108d8578063ca15c873146108f857610360565b8063a22cb46514610836578063ac9650d814610856578063b7cdd0bc1461088357610360565b80638456cb591161016457806391d148541161013e57806391d14854146107cc578063938e3d7b146107ec57806395d89b411461080c578063a217fddf1461082157610360565b80638456cb59146107775780638ba448c21461078c5780639010d07c146107ac57610360565b80636a627842116101a05780636a6278421461070d57806370a082311461072d57806375794a3c1461074d5780638423df791461076257610360565b80635c975abb146106c35780635da53d58146106d85780636352211e146106ed57610360565b80632a55205a116102a05780633f3e4c111161023e57806342966c681161021857806342966c68146106435780634ce40a32146106635780634f6ccce714610683578063572b6c05146106a357610360565b80633f3e4c11146105ee5780633f4ba83a1461060e57806342842e0e1461062357610360565b80632f52ebb71161027a5780632f52ebb71461057b5780632f745c591461058e57806330176e13146105ae57806336568abe146105ce57610360565b80632a55205a146105185780632ab4d052146105465780632f2ff15d1461055b57610360565b80631edab0811161030d57806323b872dd116102e757806323b872dd146104a357806324600fc3146104c3578063248a9ca3146104d857806326fa33ec146104f857610360565b80631edab0811461044e5780631f72d8311461046e578063206b60f91461048e57610360565b8063095ea7b31161033e578063095ea7b3146103ea5780630a5d64011461040c57806318160ddd1461042c57610360565b806301ffc9a71461036557806306fdde031461039b578063081812fc146103bd575b600080fd5b34801561037157600080fd5b50610385610380366004613ee7565b6109e0565b60405161039291906142ab565b60405180910390f35b3480156103a757600080fd5b506103b0610a0e565b6040516103929190614305565b3480156103c957600080fd5b506103dd6103d8366004613e72565b610aa1565b6040516103929190614124565b3480156103f657600080fd5b5061040a610405366004613d5e565b610aed565b005b34801561041857600080fd5b5061040a610427366004613dc9565b610b85565b34801561043857600080fd5b50610441610f4b565b60405161039291906142b6565b34801561045a57600080fd5b50610441610469366004613d5e565b610f51565b34801561047a57600080fd5b5061040a610489366004613e72565b610f6e565b34801561049a57600080fd5b5061044161108d565b3480156104af57600080fd5b5061040a6104be366004613c21565b6110b1565b3480156104cf57600080fd5b5061040a6110e9565b3480156104e457600080fd5b506104416104f3366004613e72565b611352565b34801561050457600080fd5b5061040a610513366004613f1f565b611367565b34801561052457600080fd5b50610538610533366004613ec6565b61143c565b60405161039292919061418e565b34801561055257600080fd5b50610441611580565b34801561056757600080fd5b5061040a610576366004613ea2565b611586565b61040a610589366004613faa565b6115a8565b34801561059a57600080fd5b506104416105a9366004613d5e565b6119bf565b3480156105ba57600080fd5b5061040a6105c9366004613f1f565b611a14565b3480156105da57600080fd5b5061040a6105e9366004613ea2565b611a87565b3480156105fa57600080fd5b5061040a610609366004613e72565b611aa9565b34801561061a57600080fd5b5061040a611b07565b34801561062f57600080fd5b5061040a61063e366004613c21565b611b59565b34801561064f57600080fd5b5061040a61065e366004613e72565b611b74565b34801561066f57600080fd5b5061040a61067e366004613d89565b611ba7565b34801561068f57600080fd5b5061044161069e366004613e72565b611cc4565b3480156106af57600080fd5b506103856106be366004613bb1565b611d1f565b3480156106cf57600080fd5b50610385611d33565b3480156106e457600080fd5b50610441611d3c565b3480156106f957600080fd5b506103dd610708366004613e72565b611dc5565b34801561071957600080fd5b5061040a610728366004613bb1565b611dfa565b34801561073957600080fd5b50610441610748366004613bb1565b611e12565b34801561075957600080fd5b50610441611e56565b34801561076e57600080fd5b50610385611e5c565b34801561078357600080fd5b5061040a611e65565b34801561079857600080fd5b5061040a6107a7366004613e3a565b611eb5565b3480156107b857600080fd5b506103dd6107c7366004613ec6565b611f1c565b3480156107d857600080fd5b506103856107e7366004613ea2565b611f3b565b3480156107f857600080fd5b5061040a610807366004613f1f565b611f64565b34801561081857600080fd5b506103b061208a565b34801561082d57600080fd5b50610441612099565b34801561084257600080fd5b5061040a610851366004613d31565b61209e565b34801561086257600080fd5b50610876610871366004613d89565b61216c565b60405161039291906141a7565b34801561088f57600080fd5b5061040a61089e366004613e72565b61228b565b3480156108af57600080fd5b5061040a6108be366004613c61565b612341565b3480156108cf57600080fd5b50610441612380565b3480156108e457600080fd5b506103b06108f3366004613e72565b612386565b34801561090457600080fd5b50610441610913366004613e72565b6124a6565b34801561092457600080fd5b506104416124bd565b34801561093957600080fd5b5061040a610948366004613ea2565b6124e1565b34801561095957600080fd5b506104416124eb565b34801561096e57600080fd5b5061044161250f565b34801561098357600080fd5b506103b0612515565b34801561099857600080fd5b506103856109a7366004613be9565b612524565b3480156109b857600080fd5b506109cc6109c7366004613e72565b612552565b604051610392989796959493929190615064565b60006109eb82612609565b80610a0657506001600160e01b0319821663152a902d60e11b145b90505b919050565b606060028054610a1d90615199565b80601f0160208091040260200160405190810160405280929190818152602001828054610a4990615199565b8015610a965780601f10610a6b57610100808354040283529160200191610a96565b820191906000526020600020905b815481529060010190602001808311610a7957829003601f168201915b505050505090505b90565b6000610aac82612614565b610ad15760405162461bcd60e51b8152600401610ac890614ba8565b60405180910390fd5b506000908152600660205260409020546001600160a01b031690565b6000610af882611dc5565b9050806001600160a01b0316836001600160a01b03161415610b2c5760405162461bcd60e51b8152600401610ac890614d1c565b806001600160a01b0316610b3e612631565b6001600160a01b03161480610b5a5750610b5a816109a7612631565b610b765760405162461bcd60e51b8152600401610ac89061491a565b610b808383612640565b505050565b610b9260006107e7612631565b610bae5760405162461bcd60e51b8152600401610ac89061481a565b80610bcb5760405162461bcd60e51b8152600401610ac8906147e3565b610bd760156000613a5e565b6000805b82811015610f0d578115610c3257838382818110610c0957634e487b7160e01b600052603260045260246000fd5b90506101000201600001358210610c325760405162461bcd60e51b8152600401610ac890614577565b6000848483818110610c5457634e487b7160e01b600052603260045260246000fd5b905061010002016020013511610c7c5760405162461bcd60e51b8152600401610ac890614851565b6000848483818110610c9e57634e487b7160e01b600052603260045260246000fd5b905061010002016060013511610cc65760405162461bcd60e51b8152600401610ac890614540565b6015604051806101000160405280868685818110610cf457634e487b7160e01b600052603260045260246000fd5b610d089261010090910201359050426150e8565b8152602001868685818110610d2d57634e487b7160e01b600052603260045260246000fd5b9050610100020160200135815260200160008152602001868685818110610d6457634e487b7160e01b600052603260045260246000fd5b90506101000201606001358152602001868685818110610d9457634e487b7160e01b600052603260045260246000fd5b90506101000201608001358152602001868685818110610dc457634e487b7160e01b600052603260045260246000fd5b9050610100020160a001358152602001868685818110610df457634e487b7160e01b600052603260045260246000fd5b9050610100020160c0016020810190610e0d9190613bb1565b6001600160a01b03168152602001868685818110610e3b57634e487b7160e01b600052603260045260246000fd5b610100029190910160e0908101359092525082546001808201855560009485526020948590208451600890930201918255938301519381019390935560408201516002840155606082015160038401556080820151600484015560a0820151600584015560c08201516006840180546001600160a01b0319166001600160a01b039092169190911790550151600790910155838382818110610eed57634e487b7160e01b600052603260045260246000fd5b905061010002016000013591508080610f05906151d4565b915050610bdb565b507f795ebb3cd534c0d92268a24227e2bbdaaeea1845941e89f38d14abffec6934036015604051610f3e9190614207565b60405180910390a1505050565b600a5490565b601660209081526000928352604080842090915290825290205481565b610f7b60006107e7612631565b610f975760405162461bcd60e51b8152600401610ac89061481a565b601160019054906101000a90046001600160a01b03166001600160a01b031663fd967f476040518163ffffffff1660e01b815260040160206040518083038186803b158015610fe557600080fd5b505afa158015610ff9573d6000803e3d6000fd5b505050506040513d601f19601f8201168201806040525081019061101d9190613f7a565b6fffffffffffffffffffffffffffffffff16811061104d5760405162461bcd60e51b8152600401610ac890614d5d565b601a8190556040517f244ea8d7627f5a08f4299862bd5a45752842c183aee5b0fb0d1e4887bfa605b3906110829083906142b6565b60405180910390a150565b7f8502233096d909befbda0999bb8ea2f3a6be3c138b9fbf003752a4c8bce86f6c81565b6110c26110bc612631565b826126ae565b6110de5760405162461bcd60e51b8152600401610ac890614e00565b610b80838383612733565b6011546040805163a217fddf60e01b815290516101009092046001600160a01b0316916391d1485491839163a217fddf91600480820192602092909190829003018186803b15801561113a57600080fd5b505afa15801561114e573d6000803e3d6000fd5b505050506040513d601f19601f820116820180604052508101906111729190613e8a565b61117a612631565b6040518363ffffffff1660e01b81526004016111979291906142bf565b60206040518083038186803b1580156111af57600080fd5b505afa1580156111c3573d6000803e3d6000fd5b505050506040513d601f19601f820116820180604052508101906111e79190613e56565b6112035760405162461bcd60e51b8152600401610ac890614c88565b60115460405163f2aab4b360e01b815260009161010090046001600160a01b03169063f2aab4b390611239903090600401614124565b60206040518083038186803b15801561125157600080fd5b505afa158015611265573d6000803e3d6000fd5b505050506040513d601f19601f820116820180604052508101906112899190613bcd565b905060004790506000826001600160a01b0316826040516112a990610a9e565b60006040518083038185875af1925050503d80600081146112e6576040519150601f19603f3d011682016040523d82523d6000602084013e6112eb565b606091505b505090508061130c5760405162461bcd60e51b8152600401610ac8906143e1565b826001600160a01b03167feaff4b37086828766ad3268786972c0cd24259d4c87a80f9d3963a3c3d999b0d8360405161134591906142b6565b60405180910390a2505050565b60009081526020819052604090206001015490565b61136f611d33565b1561138c5760405162461bcd60e51b8152600401610ac8906148e3565b6113b87f9f2df0fed2c77648de5860a4cc508cd0818c85b8b8a1ab4ceeef8d981c8956a66107e7612631565b6113d45760405162461bcd60e51b8152600401610ac890614b66565b6012546013546113e59060016150e8565b11156114035760405162461bcd60e51b8152600401610ac890614886565b601354600090815260196020526040902061141f908383613a7f565b5060016013600082825461143391906150e8565b90915550505050565b60115460405163f2aab4b360e01b815260009182916101009091046001600160a01b03169063f2aab4b390611475903090600401614124565b60206040518083038186803b15801561148d57600080fd5b505afa1580156114a1573d6000803e3d6000fd5b505050506040513d601f19601f820116820180604052508101906114c59190613bcd565b9150601160019054906101000a90046001600160a01b03166001600160a01b031663fd967f476040518163ffffffff1660e01b815260040160206040518083038186803b15801561151557600080fd5b505afa158015611529573d6000803e3d6000fd5b505050506040513d601f19601f8201168201806040525081019061154d9190613f7a565b6fffffffffffffffffffffffffffffffff16601a548461156d9190615114565b6115779190615100565b90509250929050565b60125481565b6115908282612860565b6000828152600160205260409020610b8090826125f0565b600260105414156115cb5760405162461bcd60e51b8152600401610ac890614eff565b60026010556115d8611d33565b156115f55760405162461bcd60e51b8152600401610ac8906148e3565b60006115ff611d3c565b905060006015828154811061162457634e487b7160e01b600052603260045260246000fd5b600091825260209182902060408051610100810182526008909302909101805483526001810154938301939093526002830154908201526003820154606082015260048201546080820152600582015460a082015260068201546001600160a01b031660c082015260079091015460e08201529050846116b65760405162461bcd60e51b8152600401610ac8906149ac565b601254856014546116c791906150e8565b11156116e55760405162461bcd60e51b8152600401610ac890614e5d565b601354856014546116f691906150e8565b11156117145760405162461bcd60e51b8152600401610ac890614977565b80606001518511156117385760405162461bcd60e51b8152600401610ac890614318565b806020015185826040015161174d91906150e8565b111561176b5760405162461bcd60e51b8152600401610ac8906149e3565b600060166000611779612631565b6001600160a01b031681526020808201929092526040908101600090812086825290925290205490508015806117af5750804210155b6117cb5760405162461bcd60e51b8152600401610ac89061479d565b60e0820151156118665760006117df612631565b6040516020016117ef919061402d565b60405160208183030381529060405280519060200120905061184886868080602002602001604051908101604052809392919081815260200183836020028082843760009201919091525050505060e085015183612884565b6118645760405162461bcd60e51b8152600401610ac89061471a565b505b60a08201511561188d5761188d8260c001518360a00151886118889190615114565b61293f565b85601584815481106118af57634e487b7160e01b600052603260045260246000fd5b906000526020600020906008020160020160008282546118cf91906150e8565b909155505060808201516118e390426150e8565b601660006118ef612631565b6001600160a01b0316815260208082019290925260409081016000908120878252909252812091909155601454905b8781101561196457611939611931612631565b601454612a99565b60016014600082825461194c91906150e8565b9091555081905061195c816151d4565b91505061191e565b5061196d612631565b6001600160a01b03167f9cdcf2f7714cca3508c7f0110b04a90a80a3a8dd0e35de99689db74d28c5383e8289876040516119a99392919061504e565b60405180910390a2505060016010555050505050565b60006119ca83611e12565b82106119e85760405162461bcd60e51b8152600401610ac890614486565b506001600160a01b03821660009081526008602090815260408083208484529091529020545b92915050565b611a2160006107e7612631565b611a3d5760405162461bcd60e51b8152600401610ac89061481a565b611a4960188383613a7f565b507fe6e4cd5c2dc7d2c20519b41832cd550fd3ea1186bf299d108179bf71fb8e00e58282604051611a7b9291906142d6565b60405180910390a15050565b611a918282612ab3565b6000828152600160205260409020610b809082612af5565b611ab660006107e7612631565b611ad25760405162461bcd60e51b8152600401610ac89061481a565b60128190556040517ff8cbdbee6d402ad22cddbc250098e39cd0d24f0fad122f64794577167c605df9906110829083906142b6565b611b337f65d7a28e3265b37a6474929f336521b332c1681b933f6cb9f3376673440d862a6107e7612631565b611b4f5760405162461bcd60e51b8152600401610ac890614f93565b611b57612b0a565b565b610b8083838360405180602001604052806000815250612341565b611b7f6110bc612631565b611b9b5760405162461bcd60e51b8152600401610ac890614f36565b611ba481612b78565b50565b611baf611d33565b15611bcc5760405162461bcd60e51b8152600401610ac8906148e3565b611bf87f9f2df0fed2c77648de5860a4cc508cd0818c85b8b8a1ab4ceeef8d981c8956a66107e7612631565b611c145760405162461bcd60e51b8152600401610ac890614b66565b601254601354611c259083906150e8565b1115611c435760405162461bcd60e51b8152600401610ac890614886565b60135460005b82811015611cbc57838382818110611c7157634e487b7160e01b600052603260045260246000fd5b9050602002810190611c8391906150a3565b6000848152601960205260409020611c9c929091613a7f565b50611ca86001836150e8565b915080611cb4816151d4565b915050611c49565b506013555050565b6000611cce610f4b565b8210611cec5760405162461bcd60e51b8152600401610ac890614ea2565b600a8281548110611d0d57634e487b7160e01b600052603260045260246000fd5b90600052602060002001549050919050565b600f546001600160a01b0390811691161490565b600c5460ff1690565b601554600090611d5e5760405162461bcd60e51b8152600401610ac890614ce5565b601554600090611d7090600190615133565b90505b60158181548110611d9457634e487b7160e01b600052603260045260246000fd5b9060005260206000209060080201600001544210611db3579050610a9e565b80611dbd81615182565b915050611d73565b6000818152600460205260408120546001600160a01b031680610a065760405162461bcd60e51b8152600401610ac890614a77565b60405162461bcd60e51b8152600401610ac89061460b565b60006001600160a01b038216611e3a5760405162461bcd60e51b8152600401610ac890614a1a565b506001600160a01b031660009081526005602052604090205490565b60135481565b60115460ff1681565b611e917f65d7a28e3265b37a6474929f336521b332c1681b933f6cb9f3376673440d862a6107e7612631565b611ead5760405162461bcd60e51b8152600401610ac890614642565b611b57612c1f565b611ec260006107e7612631565b611ede5760405162461bcd60e51b8152600401610ac89061481a565b6011805460ff19168215151790556040517ffb4ba02cee22486df888d7ffb97c6100ec3193781e025cb9a4bc6fc358d626cc906110829083906142ab565b6000828152600160205260408120611f349083612c7a565b9392505050565b6000918252602082815260408084206001600160a01b0393909316845291905290205460ff1690565b6011546040805163a217fddf60e01b815290516101009092046001600160a01b0316916391d1485491839163a217fddf91600480820192602092909190829003018186803b158015611fb557600080fd5b505afa158015611fc9573d6000803e3d6000fd5b505050506040513d601f19601f82011682018060405250810190611fed9190613e8a565b611ff5612631565b6040518363ffffffff1660e01b81526004016120129291906142bf565b60206040518083038186803b15801561202a57600080fd5b505afa15801561203e573d6000803e3d6000fd5b505050506040513d601f19601f820116820180604052508101906120629190613e56565b61207e5760405162461bcd60e51b8152600401610ac890614c88565b610b8060178383613a7f565b606060038054610a1d90615199565b600081565b6120a6612631565b6001600160a01b0316826001600160a01b031614156120d75760405162461bcd60e51b8152600401610ac8906146e3565b80600760006120e4612631565b6001600160a01b03908116825260208083019390935260409182016000908120918716808252919093529120805460ff191692151592909217909155612128612631565b6001600160a01b03167f17307eab39ab6107e8899845ad3d59bd9653f200f220920489ca2b5937696c318360405161216091906142ab565b60405180910390a35050565b60608167ffffffffffffffff81111561219557634e487b7160e01b600052604160045260246000fd5b6040519080825280602002602001820160405280156121c857816020015b60608152602001906001900390816121b35790505b50905060005b8281101561228457612246308585848181106121fa57634e487b7160e01b600052603260045260246000fd5b905060200281019061220c91906150a3565b8080601f016020809104026020016040519081016040528093929190818152602001838380828437600092019190915250612c8692505050565b82828151811061226657634e487b7160e01b600052603260045260246000fd5b6020026020010181905250808061227c906151d4565b9150506121ce565b5092915050565b612293611d33565b156122b05760405162461bcd60e51b8152600401610ac8906148e3565b6122dc7f9f2df0fed2c77648de5860a4cc508cd0818c85b8b8a1ab4ceeef8d981c8956a66107e7612631565b6122f85760405162461bcd60e51b8152600401610ac890614b66565b6012548160135461230991906150e8565b11156123275760405162461bcd60e51b8152600401610ac890614886565b806013600082825461233991906150e8565b909155505050565b61235261234c612631565b836126ae565b61236e5760405162461bcd60e51b8152600401610ac890614e00565b61237a84848484612cab565b50505050565b601a5481565b60606000612392612cde565b6000848152601960205260408120805492935090916123b090615199565b9050111561245757600083815260196020526040902080546123d190615199565b80601f01602080910402602001604051908101604052809291908181526020018280546123fd90615199565b801561244a5780601f1061241f5761010080835404028352916020019161244a565b820191906000526020600020905b81548152906001019060200180831161242d57829003601f168201915b5050505050915050610a09565b805115612490578061246884612ced565b604051602001612479929190614074565b604051602081830303815290604052915050610a09565b5050604080516020810190915260008152919050565b6000818152600160205260408120610a0690612e08565b7f9f2df0fed2c77648de5860a4cc508cd0818c85b8b8a1ab4ceeef8d981c8956a681565b611a918282612e13565b7f65d7a28e3265b37a6474929f336521b332c1681b933f6cb9f3376673440d862a81565b60145481565b606060178054610a1d90615199565b6001600160a01b03918216600090815260076020908152604080832093909416825291909152205460ff1690565b6015818154811061256257600080fd5b600091825260209091206008909102018054600182015460028301546003840154600485015460058601546006870154600790970154959750939592949193909290916001600160a01b039091169088565b60006125bf33611d1f565b156125d3575060131936013560601c610a9e565b6125db612605565b9050610a9e565b6125ec8282612e32565b5050565b6000611f34836001600160a01b038416612eb7565b3390565b6000610a0682612f01565b6000908152600460205260409020546001600160a01b0316151590565b600061263b6125b4565b905090565b600081815260066020526040902080546001600160a01b0319166001600160a01b038416908117909155819061267582611dc5565b6001600160a01b03167f8c5be1e5ebec7d5bd14f71427d1e84f3dd0314c0f7b2291e5b200ac8c7c3b92560405160405180910390a45050565b60006126b982612614565b6126d55760405162461bcd60e51b8152600401610ac890614751565b60006126e083611dc5565b9050806001600160a01b0316846001600160a01b0316148061271b5750836001600160a01b031661271084610aa1565b6001600160a01b0316145b8061272b575061272b8185612524565b949350505050565b826001600160a01b031661274682611dc5565b6001600160a01b03161461276c5760405162461bcd60e51b8152600401610ac890614bf4565b6001600160a01b0382166127925760405162461bcd60e51b8152600401610ac89061469f565b61279d838383612f26565b6127a8600082612640565b6001600160a01b03831660009081526005602052604081208054600192906127d1908490615133565b90915550506001600160a01b03821660009081526005602052604081208054600192906127ff9084906150e8565b909155505060008181526004602052604080822080546001600160a01b0319166001600160a01b0386811691821790925591518493918716917fddf252ad1be2c89b69c2b068fc378daa952ba7f163c4a11628f55a4df523b3ef91a4505050565b61286982611352565b61287a81612875612631565b612fda565b610b808383612e32565b600081815b85518110156129345760008682815181106128b457634e487b7160e01b600052603260045260246000fd5b602002602001015190508083116128f55782816040516020016128d892919061404a565b604051602081830303815290604052805190602001209250612921565b808360405160200161290892919061404a565b6040516020818303038152906040528051906020012092505b508061292c816151d4565b915050612889565b509092149392505050565b6001600160a01b0382166129715780341461296c5760405162461bcd60e51b8152600401610ac89061444f565b6125ec565b816001600160a01b03166323b872dd612988612631565b60115460405163f2aab4b360e01b81526101009091046001600160a01b03169063f2aab4b3906129bc903090600401614124565b60206040518083038186803b1580156129d457600080fd5b505afa1580156129e8573d6000803e3d6000fd5b505050506040513d601f19601f82011682018060405250810190612a0c9190613bcd565b846040518463ffffffff1660e01b8152600401612a2b93929190614138565b602060405180830381600087803b158015612a4557600080fd5b505af1158015612a59573d6000803e3d6000fd5b505050506040513d601f19601f82011682018060405250810190612a7d9190613e56565b6125ec5760405162461bcd60e51b8152600401610ac890614c51565b6125ec82826040518060200160405280600081525061303e565b612abb612631565b6001600160a01b0316816001600160a01b031614612aeb5760405162461bcd60e51b8152600401610ac890614ff1565b6125ec8282613071565b6000611f34836001600160a01b0384166130f4565b612b12611d33565b612b2e5760405162461bcd60e51b8152600401610ac890614418565b600c805460ff191690557f5db9ee0a495bf2e6ff9c91a7834c1ba4fdd244a5e8aa4e537bd38aeae4b073aa612b61612631565b604051612b6e9190614124565b60405180910390a1565b6000612b8382611dc5565b9050612b9181600084612f26565b612b9c600083612640565b6001600160a01b0381166000908152600560205260408120805460019290612bc5908490615133565b909155505060008281526004602052604080822080546001600160a01b0319169055518391906001600160a01b038416907fddf252ad1be2c89b69c2b068fc378daa952ba7f163c4a11628f55a4df523b3ef908390a45050565b612c27611d33565b15612c445760405162461bcd60e51b8152600401610ac8906148e3565b600c805460ff191660011790557f62e78cea01bee320cd4e420270b5ea74000d11b0c9f74754ebdbfc544b05a258612b61612631565b6000611f348383613211565b6060611f34838360405180606001604052806027815260200161527f60279139613249565b612cb6848484612733565b612cc2848484846132e5565b61237a5760405162461bcd60e51b8152600401610ac8906144e3565b606060188054610a1d90615199565b606081612d1257506040805180820190915260018152600360fc1b6020820152610a09565b8160005b8115612d3c5780612d26816151d4565b9150612d359050600a83615100565b9150612d16565b60008167ffffffffffffffff811115612d6557634e487b7160e01b600052604160045260246000fd5b6040519080825280601f01601f191660200182016040528015612d8f576020820181803683370190505b5090505b841561272b57612da4600183615133565b9150612db1600a866151ef565b612dbc9060306150e8565b60f81b818381518110612ddf57634e487b7160e01b600052603260045260246000fd5b60200101906001600160f81b031916908160001a905350612e01600a86615100565b9450612d93565b6000610a0682613400565b612e1c82611352565b612e2881612875612631565b610b808383613071565b612e3c8282611f3b565b6125ec576000828152602081815260408083206001600160a01b03851684529091529020805460ff19166001179055612e73612631565b6001600160a01b0316816001600160a01b0316837f2f8788117e7eff1d82e926ec794901d17c78024a50270940304540a733656f0d60405160405180910390a45050565b6000612ec38383613404565b612ef957508154600181810184556000848152602080822090930184905584548482528286019093526040902091909155611a0e565b506000611a0e565b60006001600160e01b0319821663780e9d6360e01b1480610a065750610a068261341c565b612f3183838361345c565b60115460ff168015612f4b57506001600160a01b03831615155b8015612f5f57506001600160a01b03821615155b15610b8057612f8e7f8502233096d909befbda0999bb8ea2f3a6be3c138b9fbf003752a4c8bce86f6c84611f3b565b80612fbe5750612fbe7f8502233096d909befbda0999bb8ea2f3a6be3c138b9fbf003752a4c8bce86f6c83611f3b565b610b805760405162461bcd60e51b8152600401610ac890614ad4565b612fe48282611f3b565b6125ec57612ffc816001600160a01b03166014613467565b613007836020613467565b6040516020016130189291906140a3565b60408051601f198184030181529082905262461bcd60e51b8252610ac891600401614305565b6130488383613626565b61305560008484846132e5565b610b805760405162461bcd60e51b8152600401610ac8906144e3565b61307b8282611f3b565b156125ec576000828152602081815260408083206001600160a01b03851684529091529020805460ff191690556130b0612631565b6001600160a01b0316816001600160a01b0316837ff6391f5c32d9c69d2a47ea670b442974b53935d1edc7fd64eb21e047a839171b60405160405180910390a45050565b60008181526001830160205260408120548015613207576000613118600183615133565b855490915060009061312c90600190615133565b90508181146131ad57600086600001828154811061315a57634e487b7160e01b600052603260045260246000fd5b906000526020600020015490508087600001848154811061318b57634e487b7160e01b600052603260045260246000fd5b6000918252602080832090910192909255918252600188019052604090208390555b85548690806131cc57634e487b7160e01b600052603160045260246000fd5b600190038181906000526020600020016000905590558560010160008681526020019081526020016000206000905560019350505050611a0e565b6000915050611a0e565b600082600001828154811061323657634e487b7160e01b600052603260045260246000fd5b9060005260206000200154905092915050565b606061325484613705565b6132705760405162461bcd60e51b8152600401610ac890614dba565b600080856001600160a01b03168560405161328b9190614058565b600060405180830381855af49150503d80600081146132c6576040519150601f19603f3d011682016040523d82523d6000602084013e6132cb565b606091505b50915091506132db82828661370b565b9695505050505050565b60006132f9846001600160a01b0316613705565b156133f557836001600160a01b031663150b7a02613315612631565b8786866040518563ffffffff1660e01b8152600401613337949392919061415c565b602060405180830381600087803b15801561335157600080fd5b505af1925050508015613381575060408051601f3d908101601f1916820190925261337e91810190613f03565b60015b6133db573d8080156133af576040519150601f19603f3d011682016040523d82523d6000602084013e6133b4565b606091505b5080516133d35760405162461bcd60e51b8152600401610ac8906144e3565b805181602001fd5b6001600160e01b031916630a85bd0160e11b14905061272b565b506001949350505050565b5490565b60009081526001919091016020526040902054151590565b60006001600160e01b031982166380ac58cd60e01b148061344d57506001600160e01b03198216635b5e139f60e01b145b80610a065750610a0682613744565b610b80838383613769565b60606000613476836002615114565b6134819060026150e8565b67ffffffffffffffff8111156134a757634e487b7160e01b600052604160045260246000fd5b6040519080825280601f01601f1916602001820160405280156134d1576020820181803683370190505b509050600360fc1b816000815181106134fa57634e487b7160e01b600052603260045260246000fd5b60200101906001600160f81b031916908160001a905350600f60fb1b8160018151811061353757634e487b7160e01b600052603260045260246000fd5b60200101906001600160f81b031916908160001a905350600061355b846002615114565b6135669060016150e8565b90505b6001811115613607577f303132333435363738396162636465660000000000000000000000000000000085600f16601081106135b557634e487b7160e01b600052603260045260246000fd5b1a60f81b8282815181106135d957634e487b7160e01b600052603260045260246000fd5b60200101906001600160f81b031916908160001a90535060049490941c9361360081615182565b9050613569565b508315611f345760405162461bcd60e51b8152600401610ac89061434f565b6001600160a01b03821661364c5760405162461bcd60e51b8152600401610ac890614b31565b61365581612614565b156136725760405162461bcd60e51b8152600401610ac8906145d4565b61367e60008383612f26565b6001600160a01b03821660009081526005602052604081208054600192906136a79084906150e8565b909155505060008181526004602052604080822080546001600160a01b0319166001600160a01b03861690811790915590518392907fddf252ad1be2c89b69c2b068fc378daa952ba7f163c4a11628f55a4df523b3ef908290a45050565b3b151590565b6060831561371a575081611f34565b82511561372a5782518084602001fd5b8160405162461bcd60e51b8152600401610ac89190614305565b60006001600160e01b03198216635a05180f60e01b1480610a065750610a0682613799565b6137748383836137be565b61377c611d33565b15610b805760405162461bcd60e51b8152600401610ac890614384565b60006001600160e01b03198216637965db0b60e01b1480610a065750610a0682613847565b6137c9838383610b80565b6001600160a01b0383166137e5576137e081613860565b613808565b816001600160a01b0316836001600160a01b0316146138085761380883826138a4565b6001600160a01b0382166138245761381f81613941565b610b80565b826001600160a01b0316826001600160a01b031614610b8057610b808282613a1a565b6001600160e01b031981166301ffc9a760e01b14919050565b600a80546000838152600b60205260408120829055600182018355919091527fc65a7bb8d6351c1cf70c95a316cc6a92839c986682d98bc35f958f4883f9d2a80155565b600060016138b184611e12565b6138bb9190615133565b60008381526009602052604090205490915080821461390e576001600160a01b03841660009081526008602090815260408083208584528252808320548484528184208190558352600990915290208190555b5060009182526009602090815260408084208490556001600160a01b039094168352600881528383209183525290812055565b600a5460009061395390600190615133565b6000838152600b6020526040812054600a805493945090928490811061398957634e487b7160e01b600052603260045260246000fd5b9060005260206000200154905080600a83815481106139b857634e487b7160e01b600052603260045260246000fd5b6000918252602080832090910192909255828152600b9091526040808220849055858252812055600a8054806139fe57634e487b7160e01b600052603160045260246000fd5b6001900381819060005260206000200160009055905550505050565b6000613a2583611e12565b6001600160a01b039093166000908152600860209081526040808320868452825280832085905593825260099052919091209190915550565b5080546000825560080290600052602060002090810190611ba49190613b03565b828054613a8b90615199565b90600052602060002090601f016020900481019282613aad5760008555613af3565b82601f10613ac65782800160ff19823516178555613af3565b82800160010185558215613af3579182015b82811115613af3578235825591602001919060010190613ad8565b50613aff929150613b53565b5090565b5b80821115613aff57600080825560018201819055600282018190556003820181905560048201819055600582018190556006820180546001600160a01b03191690556007820155600801613b04565b5b80821115613aff5760008155600101613b54565b60008083601f840112613b79578081fd5b50813567ffffffffffffffff811115613b90578182fd5b6020830191508360208083028501011115613baa57600080fd5b9250929050565b600060208284031215613bc2578081fd5b8135611f3481615245565b600060208284031215613bde578081fd5b8151611f3481615245565b60008060408385031215613bfb578081fd5b8235613c0681615245565b91506020830135613c1681615245565b809150509250929050565b600080600060608486031215613c35578081fd5b8335613c4081615245565b92506020840135613c5081615245565b929592945050506040919091013590565b60008060008060808587031215613c76578081fd5b8435613c8181615245565b9350602085810135613c9281615245565b935060408601359250606086013567ffffffffffffffff80821115613cb5578384fd5b818801915088601f830112613cc8578384fd5b813581811115613cda57613cda61522f565b604051601f8201601f1916810185018381118282101715613cfd57613cfd61522f565b60405281815283820185018b1015613d13578586fd5b81858501868301379081019093019390935250939692955090935050565b60008060408385031215613d43578182fd5b8235613d4e81615245565b91506020830135613c168161525a565b60008060408385031215613d70578182fd5b8235613d7b81615245565b946020939093013593505050565b60008060208385031215613d9b578182fd5b823567ffffffffffffffff811115613db1578283fd5b613dbd85828601613b68565b90969095509350505050565b60008060208385031215613ddb578182fd5b823567ffffffffffffffff80821115613df2578384fd5b818501915085601f830112613e05578384fd5b813581811115613e13578485fd5b86602061010083028501011115613e28578485fd5b60209290920196919550909350505050565b600060208284031215613e4b578081fd5b8135611f348161525a565b600060208284031215613e67578081fd5b8151611f348161525a565b600060208284031215613e83578081fd5b5035919050565b600060208284031215613e9b578081fd5b5051919050565b60008060408385031215613eb4578182fd5b823591506020830135613c1681615245565b60008060408385031215613ed8578182fd5b50508035926020909101359150565b600060208284031215613ef8578081fd5b8135611f3481615268565b600060208284031215613f14578081fd5b8151611f3481615268565b60008060208385031215613f31578182fd5b823567ffffffffffffffff80821115613f48578384fd5b818501915085601f830112613f5b578384fd5b813581811115613f69578485fd5b866020828501011115613e28578485fd5b600060208284031215613f8b578081fd5b81516fffffffffffffffffffffffffffffffff81168114611f34578182fd5b600080600060408486031215613fbe578081fd5b83359250602084013567ffffffffffffffff811115613fdb578182fd5b613fe786828701613b68565b9497909650939450505050565b6001600160a01b03169052565b60008151808452614019816020860160208601615156565b601f01601f19169290920160200192915050565b60609190911b6bffffffffffffffffffffffff1916815260140190565b918252602082015260400190565b6000825161406a818460208701615156565b9190910192915050565b60008351614086818460208801615156565b83519083019061409a818360208801615156565b01949350505050565b60007f416363657373436f6e74726f6c3a206163636f756e7420000000000000000000825283516140db816017850160208801615156565b7f206973206d697373696e6720726f6c65200000000000000000000000000000006017918401918201528351614118816028840160208801615156565b01602801949350505050565b6001600160a01b0391909116815260200190565b6001600160a01b039384168152919092166020820152604081019190915260600190565b60006001600160a01b038087168352808616602084015250836040830152608060608301526132db6080830184614001565b6001600160a01b03929092168252602082015260400190565b6000602080830181845280855180835260408601915060408482028701019250838701855b828110156141fa57603f198886030184526141e8858351614001565b945092850192908501906001016141cc565b5092979650505050505050565b60006020808301818452808554808352604092508286019150868552838520855b8281101561429e57815484526001820154868501526002820154858501526003820154606085015260048201546080850152600582015460a0850152614271600683015461514a565b61427e60c0860182613ff4565b50600782015460e085015261010090930192600890910190600101614228565b5091979650505050505050565b901515815260200190565b90815260200190565b9182526001600160a01b0316602082015260400190565b60006020825282602083015282846040840137818301604090810191909152601f909201601f19160101919050565b600060208252611f346020830184614001565b6020808252601b908201527f4e46543a20657863656564696e6720737570706c79206c696d69740000000000604082015260600190565b6020808252818101527f537472696e67733a20686578206c656e67746820696e73756666696369656e74604082015260600190565b6020808252602b908201527f4552433732315061757361626c653a20746f6b656e207472616e73666572207760408201527f68696c6520706175736564000000000000000000000000000000000000000000606082015260800190565b6020808252601d908201527f4e46543a206661696c656420746f2077697468647261772066756e6473000000604082015260600190565b60208082526014908201527f5061757361626c653a206e6f7420706175736564000000000000000000000000604082015260600190565b60208082526015908201527f4e46543a206e6f7420656e6f7567682076616c75650000000000000000000000604082015260600190565b6020808252602b908201527f455243373231456e756d657261626c653a206f776e657220696e646578206f7560408201527f74206f6620626f756e6473000000000000000000000000000000000000000000606082015260800190565b60208082526032908201527f4552433732313a207472616e7366657220746f206e6f6e20455243373231526560408201527f63656976657220696d706c656d656e7465720000000000000000000000000000606082015260800190565b6020808252601f908201527f4e46543a207175616e74697479206c696d69742063616e6e6f74206265203000604082015260600190565b6020808252602e908201527f4e46543a20737461727454696d657374616d70206d75737420626520696e206160408201527f7363656e64696e67206f72646572000000000000000000000000000000000000606082015260800190565b6020808252601c908201527f4552433732313a20746f6b656e20616c7265616479206d696e74656400000000604082015260600190565b6020808252600a908201527f4e46543a20636c61696d00000000000000000000000000000000000000000000604082015260600190565b6020808252603e908201527f4552433732315072657365744d696e7465725061757365724175746f49643a2060408201527f6d75737420686176652070617573657220726f6c6520746f2070617573650000606082015260800190565b60208082526024908201527f4552433732313a207472616e7366657220746f20746865207a65726f206164646040820152637265737360e01b606082015260800190565b60208082526019908201527f4552433732313a20617070726f766520746f2063616c6c657200000000000000604082015260600190565b6020808252601a908201527f4e46543a20696e76616c6964206d65726b6c652070726f6f6673000000000000604082015260600190565b6020808252602c908201527f4552433732313a206f70657261746f7220717565727920666f72206e6f6e657860408201526b34b9ba32b73a103a37b5b2b760a11b606082015260800190565b60208082526026908201527f4e46543a2063616e6e6f74206d696e74207965742064756520746f2074696d65604082015265081b1a5b5a5d60d21b606082015260800190565b6020808252601f908201527f4e46543a206e656564732061206c697374206f6620636f6e646974696f6e7300604082015260600190565b60208082526016908201527f6f6e6c79206d6f64756c652061646d696e20726f6c6500000000000000000000604082015260600190565b6020808252818101527f4e46543a206d6178206d696e7420737570706c792063616e6e6f742062652030604082015260600190565b60208082526029908201527f4e46543a2063616e6e6f74206d696e74206d6f7265207468616e206d6178546f60408201527f74616c537570706c790000000000000000000000000000000000000000000000606082015260800190565b60208082526010908201527f5061757361626c653a2070617573656400000000000000000000000000000000604082015260600190565b60208082526038908201527f4552433732313a20617070726f76652063616c6c6572206973206e6f74206f7760408201527f6e6572206e6f7220617070726f76656420666f7220616c6c0000000000000000606082015260800190565b6020808252818101527f4e46543a2063616e6e6f7420636c61696d20756e6d696e74656420746f6b656e604082015260600190565b60208082526019908201527f4e46543a207175616e746974792063616e6e6f74206265203000000000000000604082015260600190565b6020808252601e908201527f4e46543a20657863656564696e67206d6178206d696e7420737570706c790000604082015260600190565b6020808252602a908201527f4552433732313a2062616c616e636520717565727920666f7220746865207a6560408201527f726f206164647265737300000000000000000000000000000000000000000000606082015260800190565b60208082526029908201527f4552433732313a206f776e657220717565727920666f72206e6f6e657869737460408201527f656e7420746f6b656e0000000000000000000000000000000000000000000000606082015260800190565b60208082526036908201527f4e46543a205472616e736665727320617265207265737472696374656420746f60408201527f205452414e534645525f524f4c4520686f6c6465727300000000000000000000606082015260800190565b6020808252818101527f4552433732313a206d696e7420746f20746865207a65726f2061646472657373604082015260600190565b60208082526022908201527f4e46543a206d7573742068617665206d696e74657220726f6c6520746f206d696040820152611b9d60f21b606082015260800190565b6020808252602c908201527f4552433732313a20617070726f76656420717565727920666f72206e6f6e657860408201526b34b9ba32b73a103a37b5b2b760a11b606082015260800190565b60208082526029908201527f4552433732313a207472616e73666572206f6620746f6b656e2074686174206960408201527f73206e6f74206f776e0000000000000000000000000000000000000000000000606082015260800190565b6020808252601f908201527f4e46543a206661696c656420746f207472616e73666572207061796d656e7400604082015260600190565b60208082526032908201527f4e46543a206f6e6c7920612070726f746f636f6c2061646d696e2063616e206360408201527f616c6c20746869732066756e6374696f6e2e0000000000000000000000000000606082015260800190565b6020808252601d908201527f4e46543a206e6f207075626c6963206d696e7420636f6e646974696f6e000000604082015260600190565b60208082526021908201527f4552433732313a20617070726f76616c20746f2063757272656e74206f776e656040820152603960f91b606082015260800190565b6020808252602a908201527f4e46543a204270732070726f7669646564206d757374206265206c657373207460408201527f68616e2031302c30303000000000000000000000000000000000000000000000606082015260800190565b60208082526026908201527f416464726573733a2064656c65676174652063616c6c20746f206e6f6e2d636f6040820152651b9d1c9858dd60d21b606082015260800190565b60208082526031908201527f4552433732313a207472616e736665722063616c6c6572206973206e6f74206f60408201527f776e6572206e6f7220617070726f766564000000000000000000000000000000606082015260800190565b60208082526025908201527f4e46543a20657863656564696e6720746f74616c206d617820737570706c79206040820152641b1a5b5a5d60da1b606082015260800190565b6020808252602c908201527f455243373231456e756d657261626c653a20676c6f62616c20696e646578206f60408201527f7574206f6620626f756e64730000000000000000000000000000000000000000606082015260800190565b6020808252601f908201527f5265656e7472616e637947756172643a207265656e7472616e742063616c6c00604082015260600190565b60208082526030908201527f4552433732314275726e61626c653a2063616c6c6572206973206e6f74206f7760408201527f6e6572206e6f7220617070726f76656400000000000000000000000000000000606082015260800190565b602080825260409082018190527f4552433732315072657365744d696e7465725061757365724175746f49643a20908201527f6d75737420686176652070617573657220726f6c6520746f20756e7061757365606082015260800190565b6020808252602f908201527f416363657373436f6e74726f6c3a2063616e206f6e6c792072656e6f756e636560408201527f20726f6c657320666f722073656c660000000000000000000000000000000000606082015260800190565b9283526020830191909152604082015260600190565b978852602088019690965260408701949094526060860192909252608085015260a08401526001600160a01b031660c083015260e08201526101000190565b6000808335601e198436030181126150b9578283fd5b83018035915067ffffffffffffffff8211156150d3578283fd5b602001915036819003821315613baa57600080fd5b600082198211156150fb576150fb615203565b500190565b60008261510f5761510f615219565b500490565b600081600019048311821515161561512e5761512e615203565b500290565b60008282101561514557615145615203565b500390565b6001600160a01b031690565b60005b83811015615171578181015183820152602001615159565b8381111561237a5750506000910152565b60008161519157615191615203565b506000190190565b6002810460018216806151ad57607f821691505b602082108114156151ce57634e487b7160e01b600052602260045260246000fd5b50919050565b60006000198214156151e8576151e8615203565b5060010190565b6000826151fe576151fe615219565b500690565b634e487b7160e01b600052601160045260246000fd5b634e487b7160e01b600052601260045260246000fd5b634e487b7160e01b600052604160045260246000fd5b6001600160a01b0381168114611ba457600080fd5b8015158114611ba457600080fd5b6001600160e01b031981168114611ba457600080fdfe416464726573733a206c6f772d6c6576656c2064656c65676174652063616c6c206661696c6564a164736f6c6343000800000a",
  "linkReferences": {},
  "deployedLinkReferences": {}
}