{
  "_format": "hh-sol-artifact-1",
  "contractName": "LazyNFT",
  "sourceName": "contracts/LazyNFT.sol",
  "abi": [
    {
      "inputs": [
        {
          "internalType": "address",
          "name": "_controlCenter",
          "type": "address"
        },
        {
          "internalType": "string",
          "name": "_name",
          "type": "string"
        },
        {
          "internalType": "string",
          "name": "_symbol",
          "type": "string"
        },
        {
          "internalType": "address",
          "name": "_trustedForwarder",
          "type": "address"
        },
        {
          "internalType": "string",
          "name": "_contractURI",
          "type": "string"
        },
        {
          "internalType": "string",
          "name": "_baseTokenURI",
          "type": "string"
        },
        {
          "internalType": "uint256",
          "name": "maxSupply",
          "type": "uint256"
        }
      ],
      "stateMutability": "nonpayable",
      "type": "constructor"
    },
    {
      "anonymous": false,
      "inputs": [
        {
          "indexed": true,
          "internalType": "address",
          "name": "owner",
          "type": "address"
        },
        {
          "indexed": true,
          "internalType": "address",
          "name": "approved",
          "type": "address"
        },
        {
          "indexed": true,
          "internalType": "uint256",
          "name": "tokenId",
          "type": "uint256"
        }
      ],
      "name": "Approval",
      "type": "event"
    },
    {
      "anonymous": false,
      "inputs": [
        {
          "indexed": true,
          "internalType": "address",
          "name": "owner",
          "type": "address"
        },
        {
          "indexed": true,
          "internalType": "address",
          "name": "operator",
          "type": "address"
        },
        {
          "indexed": false,
          "internalType": "bool",
          "name": "approved",
          "type": "bool"
        }
      ],
      "name": "ApprovalForAll",
      "type": "event"
    },
    {
      "anonymous": false,
      "inputs": [
        {
          "indexed": false,
          "internalType": "string",
          "name": "uri",
          "type": "string"
        }
      ],
      "name": "BaseTokenURIUpdated",
      "type": "event"
    },
    {
      "anonymous": false,
      "inputs": [
        {
          "indexed": true,
          "internalType": "address",
          "name": "to",
          "type": "address"
        },
        {
          "indexed": false,
          "internalType": "uint256",
          "name": "startTokenId",
          "type": "uint256"
        },
        {
          "indexed": false,
          "internalType": "uint256",
          "name": "quantity",
          "type": "uint256"
        },
        {
          "indexed": false,
          "internalType": "uint256",
          "name": "mintConditionIndex",
          "type": "uint256"
        }
      ],
      "name": "Claimed",
      "type": "event"
    },
    {
      "anonymous": false,
      "inputs": [
        {
          "indexed": true,
          "internalType": "address",
          "name": "to",
          "type": "address"
        },
        {
          "indexed": false,
          "internalType": "uint256",
          "name": "amount",
          "type": "uint256"
        }
      ],
      "name": "FundsWithdrawn",
      "type": "event"
    },
    {
      "anonymous": false,
      "inputs": [
        {
          "indexed": false,
          "internalType": "address",
          "name": "account",
          "type": "address"
        }
      ],
      "name": "Paused",
      "type": "event"
    },
    {
      "anonymous": false,
      "inputs": [
        {
          "components": [
            {
              "internalType": "uint256",
              "name": "startTimestamp",
              "type": "uint256"
            },
            {
              "internalType": "uint256",
              "name": "maxMintSupply",
              "type": "uint256"
            },
            {
              "internalType": "uint256",
              "name": "currentMintSupply",
              "type": "uint256"
            },
            {
              "internalType": "uint256",
              "name": "quantityLimitPerTransaction",
              "type": "uint256"
            },
            {
              "internalType": "uint256",
              "name": "waitTimestampLimitPerTransaction",
              "type": "uint256"
            },
            {
              "internalType": "uint256",
              "name": "pricePerToken",
              "type": "uint256"
            },
            {
              "internalType": "address",
              "name": "currency",
              "type": "address"
            },
            {
              "internalType": "bytes32",
              "name": "merkleRoot",
              "type": "bytes32"
            }
          ],
          "indexed": false,
          "internalType": "struct LazyNFT.PublicMintCondition[]",
          "name": "mintConditions",
          "type": "tuple[]"
        }
      ],
      "name": "PublicMintConditionUpdated",
      "type": "event"
    },
    {
      "anonymous": false,
      "inputs": [
        {
          "indexed": false,
          "internalType": "bool",
          "name": "transferable",
          "type": "bool"
        }
      ],
      "name": "RestrictedTransferUpdated",
      "type": "event"
    },
    {
      "anonymous": false,
      "inputs": [
        {
          "indexed": true,
          "internalType": "bytes32",
          "name": "role",
          "type": "bytes32"
        },
        {
          "indexed": true,
          "internalType": "bytes32",
          "name": "previousAdminRole",
          "type": "bytes32"
        },
        {
          "indexed": true,
          "internalType": "bytes32",
          "name": "newAdminRole",
          "type": "bytes32"
        }
      ],
      "name": "RoleAdminChanged",
      "type": "event"
    },
    {
      "anonymous": false,
      "inputs": [
        {
          "indexed": true,
          "internalType": "bytes32",
          "name": "role",
          "type": "bytes32"
        },
        {
          "indexed": true,
          "internalType": "address",
          "name": "account",
          "type": "address"
        },
        {
          "indexed": true,
          "internalType": "address",
          "name": "sender",
          "type": "address"
        }
      ],
      "name": "RoleGranted",
      "type": "event"
    },
    {
      "anonymous": false,
      "inputs": [
        {
          "indexed": true,
          "internalType": "bytes32",
          "name": "role",
          "type": "bytes32"
        },
        {
          "indexed": true,
          "internalType": "address",
          "name": "account",
          "type": "address"
        },
        {
          "indexed": true,
          "internalType": "address",
          "name": "sender",
          "type": "address"
        }
      ],
      "name": "RoleRevoked",
      "type": "event"
    },
    {
      "anonymous": false,
      "inputs": [
        {
          "indexed": false,
          "internalType": "uint256",
          "name": "royaltyBps",
          "type": "uint256"
        }
      ],
      "name": "RoyaltyUpdated",
      "type": "event"
    },
    {
      "anonymous": false,
      "inputs": [
        {
          "indexed": false,
          "internalType": "uint256",
          "name": "supply",
          "type": "uint256"
        }
      ],
      "name": "TotalSupplyUpdated",
      "type": "event"
    },
    {
      "anonymous": false,
      "inputs": [
        {
          "indexed": true,
          "internalType": "address",
          "name": "from",
          "type": "address"
        },
        {
          "indexed": true,
          "internalType": "address",
          "name": "to",
          "type": "address"
        },
        {
          "indexed": true,
          "internalType": "uint256",
          "name": "tokenId",
          "type": "uint256"
        }
      ],
      "name": "Transfer",
      "type": "event"
    },
    {
      "anonymous": false,
      "inputs": [
        {
          "indexed": false,
          "internalType": "address",
          "name": "account",
          "type": "address"
        }
      ],
      "name": "Unpaused",
      "type": "event"
    },
    {
      "inputs": [],
      "name": "DEFAULT_ADMIN_ROLE",
      "outputs": [
        {
          "internalType": "bytes32",
          "name": "",
          "type": "bytes32"
        }
      ],
      "stateMutability": "view",
      "type": "function"
    },
    {
      "inputs": [],
      "name": "MINTER_ROLE",
      "outputs": [
        {
          "internalType": "bytes32",
          "name": "",
          "type": "bytes32"
        }
      ],
      "stateMutability": "view",
      "type": "function"
    },
    {
      "inputs": [],
      "name": "PAUSER_ROLE",
      "outputs": [
        {
          "internalType": "bytes32",
          "name": "",
          "type": "bytes32"
        }
      ],
      "stateMutability": "view",
      "type": "function"
    },
    {
      "inputs": [],
      "name": "TRANSFER_ROLE",
      "outputs": [
        {
          "internalType": "bytes32",
          "name": "",
          "type": "bytes32"
        }
      ],
      "stateMutability": "view",
      "type": "function"
    },
    {
      "inputs": [
        {
          "internalType": "address",
          "name": "to",
          "type": "address"
        },
        {
          "internalType": "uint256",
          "name": "tokenId",
          "type": "uint256"
        }
      ],
      "name": "approve",
      "outputs": [],
      "stateMutability": "nonpayable",
      "type": "function"
    },
    {
      "inputs": [
        {
          "internalType": "address",
          "name": "owner",
          "type": "address"
        }
      ],
      "name": "balanceOf",
      "outputs": [
        {
          "internalType": "uint256",
          "name": "",
          "type": "uint256"
        }
      ],
      "stateMutability": "view",
      "type": "function"
    },
    {
      "inputs": [
        {
          "internalType": "uint256",
          "name": "tokenId",
          "type": "uint256"
        }
      ],
      "name": "burn",
      "outputs": [],
      "stateMutability": "nonpayable",
      "type": "function"
    },
    {
      "inputs": [
        {
          "internalType": "uint256",
          "name": "quantity",
          "type": "uint256"
        },
        {
          "internalType": "bytes32[]",
          "name": "proofs",
          "type": "bytes32[]"
        }
      ],
      "name": "claim",
      "outputs": [],
      "stateMutability": "payable",
      "type": "function"
    },
    {
      "inputs": [],
      "name": "contractURI",
      "outputs": [
        {
          "internalType": "string",
          "name": "",
          "type": "string"
        }
      ],
      "stateMutability": "view",
      "type": "function"
    },
    {
      "inputs": [
        {
          "internalType": "uint256",
          "name": "tokenId",
          "type": "uint256"
        }
      ],
      "name": "getApproved",
      "outputs": [
        {
          "internalType": "address",
          "name": "",
          "type": "address"
        }
      ],
      "stateMutability": "view",
      "type": "function"
    },
    {
      "inputs": [],
      "name": "getLastStartedMintConditionIndex",
      "outputs": [
        {
          "internalType": "uint256",
          "name": "",
          "type": "uint256"
        }
      ],
      "stateMutability": "view",
      "type": "function"
    },
    {
      "inputs": [
        {
          "internalType": "bytes32",
          "name": "role",
          "type": "bytes32"
        }
      ],
      "name": "getRoleAdmin",
      "outputs": [
        {
          "internalType": "bytes32",
          "name": "",
          "type": "bytes32"
        }
      ],
      "stateMutability": "view",
      "type": "function"
    },
    {
      "inputs": [
        {
          "internalType": "bytes32",
          "name": "role",
          "type": "bytes32"
        },
        {
          "internalType": "uint256",
          "name": "index",
          "type": "uint256"
        }
      ],
      "name": "getRoleMember",
      "outputs": [
        {
          "internalType": "address",
          "name": "",
          "type": "address"
        }
      ],
      "stateMutability": "view",
      "type": "function"
    },
    {
      "inputs": [
        {
          "internalType": "bytes32",
          "name": "role",
          "type": "bytes32"
        }
      ],
      "name": "getRoleMemberCount",
      "outputs": [
        {
          "internalType": "uint256",
          "name": "",
          "type": "uint256"
        }
      ],
      "stateMutability": "view",
      "type": "function"
    },
    {
      "inputs": [
        {
          "internalType": "bytes32",
          "name": "role",
          "type": "bytes32"
        },
        {
          "internalType": "address",
          "name": "account",
          "type": "address"
        }
      ],
      "name": "grantRole",
      "outputs": [],
      "stateMutability": "nonpayable",
      "type": "function"
    },
    {
      "inputs": [
        {
          "internalType": "bytes32",
          "name": "role",
          "type": "bytes32"
        },
        {
          "internalType": "address",
          "name": "account",
          "type": "address"
        }
      ],
      "name": "hasRole",
      "outputs": [
        {
          "internalType": "bool",
          "name": "",
          "type": "bool"
        }
      ],
      "stateMutability": "view",
      "type": "function"
    },
    {
      "inputs": [
        {
          "internalType": "address",
          "name": "owner",
          "type": "address"
        },
        {
          "internalType": "address",
          "name": "operator",
          "type": "address"
        }
      ],
      "name": "isApprovedForAll",
      "outputs": [
        {
          "internalType": "bool",
          "name": "",
          "type": "bool"
        }
      ],
      "stateMutability": "view",
      "type": "function"
    },
    {
      "inputs": [
        {
          "internalType": "address",
          "name": "forwarder",
          "type": "address"
        }
      ],
      "name": "isTrustedForwarder",
      "outputs": [
        {
          "internalType": "bool",
          "name": "",
          "type": "bool"
        }
      ],
      "stateMutability": "view",
      "type": "function"
    },
    {
      "inputs": [
        {
          "internalType": "string",
          "name": "_uri",
          "type": "string"
        }
      ],
      "name": "lazyMint",
      "outputs": [],
      "stateMutability": "nonpayable",
      "type": "function"
    },
    {
      "inputs": [
        {
          "internalType": "uint256",
          "name": "amount",
          "type": "uint256"
        }
      ],
      "name": "lazyMintAmount",
      "outputs": [],
      "stateMutability": "nonpayable",
      "type": "function"
    },
    {
      "inputs": [
        {
          "internalType": "string[]",
          "name": "_uris",
          "type": "string[]"
        }
      ],
      "name": "lazyMintBatch",
      "outputs": [],
      "stateMutability": "nonpayable",
      "type": "function"
    },
    {
      "inputs": [],
      "name": "maxTotalSupply",
      "outputs": [
        {
          "internalType": "uint256",
          "name": "",
          "type": "uint256"
        }
      ],
      "stateMutability": "view",
      "type": "function"
    },
    {
      "inputs": [
        {
          "internalType": "address",
          "name": "",
          "type": "address"
        }
      ],
      "name": "mint",
      "outputs": [],
      "stateMutability": "pure",
      "type": "function"
    },
    {
      "inputs": [
        {
          "internalType": "uint256",
          "name": "",
          "type": "uint256"
        }
      ],
      "name": "mintConditions",
      "outputs": [
        {
          "internalType": "uint256",
          "name": "startTimestamp",
          "type": "uint256"
        },
        {
          "internalType": "uint256",
          "name": "maxMintSupply",
          "type": "uint256"
        },
        {
          "internalType": "uint256",
          "name": "currentMintSupply",
          "type": "uint256"
        },
        {
          "internalType": "uint256",
          "name": "quantityLimitPerTransaction",
          "type": "uint256"
        },
        {
          "internalType": "uint256",
          "name": "waitTimestampLimitPerTransaction",
          "type": "uint256"
        },
        {
          "internalType": "uint256",
          "name": "pricePerToken",
          "type": "uint256"
        },
        {
          "internalType": "address",
          "name": "currency",
          "type": "address"
        },
        {
          "internalType": "bytes32",
          "name": "merkleRoot",
          "type": "bytes32"
        }
      ],
      "stateMutability": "view",
      "type": "function"
    },
    {
      "inputs": [
        {
          "internalType": "bytes[]",
          "name": "data",
          "type": "bytes[]"
        }
      ],
      "name": "multicall",
      "outputs": [
        {
          "internalType": "bytes[]",
          "name": "results",
          "type": "bytes[]"
        }
      ],
      "stateMutability": "nonpayable",
      "type": "function"
    },
    {
      "inputs": [],
      "name": "name",
      "outputs": [
        {
          "internalType": "string",
          "name": "",
          "type": "string"
        }
      ],
      "stateMutability": "view",
      "type": "function"
    },
    {
      "inputs": [],
      "name": "nextMintTokenId",
      "outputs": [
        {
          "internalType": "uint256",
          "name": "",
          "type": "uint256"
        }
      ],
      "stateMutability": "view",
      "type": "function"
    },
    {
      "inputs": [],
      "name": "nextTokenId",
      "outputs": [
        {
          "internalType": "uint256",
          "name": "",
          "type": "uint256"
        }
      ],
      "stateMutability": "view",
      "type": "function"
    },
    {
      "inputs": [
        {
          "internalType": "uint256",
          "name": "tokenId",
          "type": "uint256"
        }
      ],
      "name": "ownerOf",
      "outputs": [
        {
          "internalType": "address",
          "name": "",
          "type": "address"
        }
      ],
      "stateMutability": "view",
      "type": "function"
    },
    {
      "inputs": [],
      "name": "pause",
      "outputs": [],
      "stateMutability": "nonpayable",
      "type": "function"
    },
    {
      "inputs": [],
      "name": "paused",
      "outputs": [
        {
          "internalType": "bool",
          "name": "",
          "type": "bool"
        }
      ],
      "stateMutability": "view",
      "type": "function"
    },
    {
      "inputs": [
        {
          "internalType": "bytes32",
          "name": "role",
          "type": "bytes32"
        },
        {
          "internalType": "address",
          "name": "account",
          "type": "address"
        }
      ],
      "name": "renounceRole",
      "outputs": [],
      "stateMutability": "nonpayable",
      "type": "function"
    },
    {
      "inputs": [
        {
          "internalType": "bytes32",
          "name": "role",
          "type": "bytes32"
        },
        {
          "internalType": "address",
          "name": "account",
          "type": "address"
        }
      ],
      "name": "revokeRole",
      "outputs": [],
      "stateMutability": "nonpayable",
      "type": "function"
    },
    {
      "inputs": [],
      "name": "royaltyBps",
      "outputs": [
        {
          "internalType": "uint256",
          "name": "",
          "type": "uint256"
        }
      ],
      "stateMutability": "view",
      "type": "function"
    },
    {
      "inputs": [
        {
          "internalType": "uint256",
          "name": "",
          "type": "uint256"
        },
        {
          "internalType": "uint256",
          "name": "salePrice",
          "type": "uint256"
        }
      ],
      "name": "royaltyInfo",
      "outputs": [
        {
          "internalType": "address",
          "name": "receiver",
          "type": "address"
        },
        {
          "internalType": "uint256",
          "name": "royaltyAmount",
          "type": "uint256"
        }
      ],
      "stateMutability": "view",
      "type": "function"
    },
    {
      "inputs": [
        {
          "internalType": "address",
          "name": "from",
          "type": "address"
        },
        {
          "internalType": "address",
          "name": "to",
          "type": "address"
        },
        {
          "internalType": "uint256",
          "name": "tokenId",
          "type": "uint256"
        }
      ],
      "name": "safeTransferFrom",
      "outputs": [],
      "stateMutability": "nonpayable",
      "type": "function"
    },
    {
      "inputs": [
        {
          "internalType": "address",
          "name": "from",
          "type": "address"
        },
        {
          "internalType": "address",
          "name": "to",
          "type": "address"
        },
        {
          "internalType": "uint256",
          "name": "tokenId",
          "type": "uint256"
        },
        {
          "internalType": "bytes",
          "name": "_data",
          "type": "bytes"
        }
      ],
      "name": "safeTransferFrom",
      "outputs": [],
      "stateMutability": "nonpayable",
      "type": "function"
    },
    {
      "inputs": [
        {
          "internalType": "address",
          "name": "operator",
          "type": "address"
        },
        {
          "internalType": "bool",
          "name": "approved",
          "type": "bool"
        }
      ],
      "name": "setApprovalForAll",
      "outputs": [],
      "stateMutability": "nonpayable",
      "type": "function"
    },
    {
      "inputs": [
        {
          "internalType": "string",
          "name": "uri",
          "type": "string"
        }
      ],
      "name": "setBaseTokenURI",
      "outputs": [],
      "stateMutability": "nonpayable",
      "type": "function"
    },
    {
      "inputs": [
        {
          "internalType": "string",
          "name": "_URI",
          "type": "string"
        }
      ],
      "name": "setContractURI",
      "outputs": [],
      "stateMutability": "nonpayable",
      "type": "function"
    },
    {
      "inputs": [
        {
          "internalType": "uint256",
          "name": "maxSupply",
          "type": "uint256"
        }
      ],
      "name": "setMaxTotalSupply",
      "outputs": [],
      "stateMutability": "nonpayable",
      "type": "function"
    },
    {
      "inputs": [
        {
          "components": [
            {
              "internalType": "uint256",
              "name": "startTimestamp",
              "type": "uint256"
            },
            {
              "internalType": "uint256",
              "name": "maxMintSupply",
              "type": "uint256"
            },
            {
              "internalType": "uint256",
              "name": "currentMintSupply",
              "type": "uint256"
            },
            {
              "internalType": "uint256",
              "name": "quantityLimitPerTransaction",
              "type": "uint256"
            },
            {
              "internalType": "uint256",
              "name": "waitTimestampLimitPerTransaction",
              "type": "uint256"
            },
            {
              "internalType": "uint256",
              "name": "pricePerToken",
              "type": "uint256"
            },
            {
              "internalType": "address",
              "name": "currency",
              "type": "address"
            },
            {
              "internalType": "bytes32",
              "name": "merkleRoot",
              "type": "bytes32"
            }
          ],
          "internalType": "struct LazyNFT.PublicMintCondition[]",
          "name": "conditions",
          "type": "tuple[]"
        }
      ],
      "name": "setPublicMintConditions",
      "outputs": [],
      "stateMutability": "nonpayable",
      "type": "function"
    },
    {
      "inputs": [
        {
          "internalType": "bool",
          "name": "_restrictedTransfer",
          "type": "bool"
        }
      ],
      "name": "setRestrictedTransfer",
      "outputs": [],
      "stateMutability": "nonpayable",
      "type": "function"
    },
    {
      "inputs": [
        {
          "internalType": "uint256",
          "name": "_royaltyBps",
          "type": "uint256"
        }
      ],
      "name": "setRoyaltyBps",
      "outputs": [],
      "stateMutability": "nonpayable",
      "type": "function"
    },
    {
      "inputs": [
        {
          "internalType": "bytes4",
          "name": "interfaceId",
          "type": "bytes4"
        }
      ],
      "name": "supportsInterface",
      "outputs": [
        {
          "internalType": "bool",
          "name": "",
          "type": "bool"
        }
      ],
      "stateMutability": "view",
      "type": "function"
    },
    {
      "inputs": [],
      "name": "symbol",
      "outputs": [
        {
          "internalType": "string",
          "name": "",
          "type": "string"
        }
      ],
      "stateMutability": "view",
      "type": "function"
    },
    {
      "inputs": [
        {
          "internalType": "uint256",
          "name": "index",
          "type": "uint256"
        }
      ],
      "name": "tokenByIndex",
      "outputs": [
        {
          "internalType": "uint256",
          "name": "",
          "type": "uint256"
        }
      ],
      "stateMutability": "view",
      "type": "function"
    },
    {
      "inputs": [
        {
          "internalType": "address",
          "name": "owner",
          "type": "address"
        },
        {
          "internalType": "uint256",
          "name": "index",
          "type": "uint256"
        }
      ],
      "name": "tokenOfOwnerByIndex",
      "outputs": [
        {
          "internalType": "uint256",
          "name": "",
          "type": "uint256"
        }
      ],
      "stateMutability": "view",
      "type": "function"
    },
    {
      "inputs": [
        {
          "internalType": "uint256",
          "name": "tokenId",
          "type": "uint256"
        }
      ],
      "name": "tokenURI",
      "outputs": [
        {
          "internalType": "string",
          "name": "",
          "type": "string"
        }
      ],
      "stateMutability": "view",
      "type": "function"
    },
    {
      "inputs": [],
      "name": "totalSupply",
      "outputs": [
        {
          "internalType": "uint256",
          "name": "",
          "type": "uint256"
        }
      ],
      "stateMutability": "view",
      "type": "function"
    },
    {
      "inputs": [
        {
          "internalType": "address",
          "name": "from",
          "type": "address"
        },
        {
          "internalType": "address",
          "name": "to",
          "type": "address"
        },
        {
          "internalType": "uint256",
          "name": "tokenId",
          "type": "uint256"
        }
      ],
      "name": "transferFrom",
      "outputs": [],
      "stateMutability": "nonpayable",
      "type": "function"
    },
    {
      "inputs": [],
      "name": "transfersRestricted",
      "outputs": [
        {
          "internalType": "bool",
          "name": "",
          "type": "bool"
        }
      ],
      "stateMutability": "view",
      "type": "function"
    },
    {
      "inputs": [],
      "name": "unpause",
      "outputs": [],
      "stateMutability": "nonpayable",
      "type": "function"
    },
    {
      "inputs": [
        {
          "internalType": "uint256",
          "name": "",
          "type": "uint256"
        }
      ],
      "name": "uri",
      "outputs": [
        {
          "internalType": "string",
          "name": "",
          "type": "string"
        }
      ],
      "stateMutability": "view",
      "type": "function"
    },
    {
      "inputs": [],
      "name": "withdrawFunds",
      "outputs": [],
      "stateMutability": "nonpayable",
      "type": "function"
    }
  ],
  "bytecode": "0x60806040523480156200001157600080fd5b5060405162005927380380620059278339810160408190526200003491620004f1565b83868684828281600290805190602001906200005292919062000388565b5080516200006890600390602084019062000388565b5050600c805460ff191690555080516200008a90600e90602084019062000388565b50620000a160006200009b62000183565b620001a0565b620000d07f9f2df0fed2c77648de5860a4cc508cd0818c85b8b8a1ab4ceeef8d981c8956a66200009b62000183565b620000ff7f65d7a28e3265b37a6474929f336521b332c1681b933f6cb9f3376673440d862a6200009b62000183565b5050600f80546001600160a01b0319166001600160a01b0393841617905550600160105560118054610100600160a81b031916610100928a16929092029190911790556012819055620001767f8502233096d909befbda0999bb8ea2f3a6be3c138b9fbf003752a4c8bce86f6c6200009b62000183565b5050505050505062000628565b60006200019a620001e360201b620025941760201c565b90505b90565b620001b782826200022360201b620025c21760201c565b6000828152600160209081526040909120620001de918390620025d062000233821b17901c565b505050565b6000620001f03362000253565b1562000206575060131936013560601c6200019d565b6200021b6200026a60201b620025e51760201c565b90506200019d565b6200022f82826200026e565b5050565b60006200024a836001600160a01b038416620002f8565b90505b92915050565b600f546001600160a01b038281169116145b919050565b3390565b6200027a828262000347565b6200022f576000828152602081815260408083206001600160a01b03851684529091529020805460ff19166001179055620002b462000183565b6001600160a01b0316816001600160a01b0316837f2f8788117e7eff1d82e926ec794901d17c78024a50270940304540a733656f0d60405160405180910390a45050565b600062000306838362000370565b6200033e575081546001818101845560008481526020808220909301849055845484825282860190935260409020919091556200024d565b5060006200024d565b6000918252602082815260408084206001600160a01b0393909316845291905290205460ff1690565b60009081526001919091016020526040902054151590565b8280546200039690620005d5565b90600052602060002090601f016020900481019282620003ba576000855562000405565b82601f10620003d557805160ff191683800117855562000405565b8280016001018555821562000405579182015b8281111562000405578251825591602001919060010190620003e8565b506200041392915062000417565b5090565b5b8082111562000413576000815560010162000418565b80516001600160a01b03811681146200026557600080fd5b600082601f83011262000457578081fd5b81516001600160401b038082111562000474576200047462000612565b6040516020601f8401601f19168201810183811183821017156200049c576200049c62000612565b6040528382528584018101871015620004b3578485fd5b8492505b83831015620004d65785830181015182840182015291820191620004b7565b83831115620004e757848185840101525b5095945050505050565b600080600080600080600060e0888a0312156200050c578283fd5b62000517886200042e565b60208901519097506001600160401b038082111562000534578485fd5b620005428b838c0162000446565b975060408a015191508082111562000558578485fd5b620005668b838c0162000446565b96506200057660608b016200042e565b955060808a01519150808211156200058c578485fd5b6200059a8b838c0162000446565b945060a08a0151915080821115620005b0578384fd5b50620005bf8a828b0162000446565b92505060c0880151905092959891949750929550565b600281046001821680620005ea57607f821691505b602082108114156200060c57634e487b7160e01b600052602260045260246000fd5b50919050565b634e487b7160e01b600052604160045260246000fd5b6152ef80620006386000396000f3fe6080604052600436106103605760003560e01c80635c975abb116101c6578063a22cb465116100f7578063d539139311610095578063e88fbd411161006f578063e88fbd4114610962578063e8a3d48514610977578063e985e9c51461098c578063fd598550146109ac57610360565b8063d539139314610918578063d547741f1461092d578063e63ab1e91461094d57610360565b8063b88d4fde116100d1578063b88d4fde146108a3578063c63adb2b146108c3578063c87b56dd146108d8578063ca15c873146108f857610360565b8063a22cb46514610836578063ac9650d814610856578063b7cdd0bc1461088357610360565b80638456cb591161016457806391d148541161013e57806391d14854146107cc578063938e3d7b146107ec57806395d89b411461080c578063a217fddf1461082157610360565b80638456cb59146107775780638ba448c21461078c5780639010d07c146107ac57610360565b80636a627842116101a05780636a6278421461070d57806370a082311461072d57806375794a3c1461074d5780638423df791461076257610360565b80635c975abb146106c35780635da53d58146106d85780636352211e146106ed57610360565b80632a55205a116102a05780633f3e4c111161023e57806342966c681161021857806342966c68146106435780634ce40a32146106635780634f6ccce714610683578063572b6c05146106a357610360565b80633f3e4c11146105ee5780633f4ba83a1461060e57806342842e0e1461062357610360565b80632f52ebb71161027a5780632f52ebb71461057b5780632f745c591461058e57806330176e13146105ae57806336568abe146105ce57610360565b80632a55205a146105185780632ab4d052146105465780632f2ff15d1461055b57610360565b806318160ddd1161030d57806323b872dd116102e757806323b872dd146104a357806324600fc3146104c3578063248a9ca3146104d857806326fa33ec146104f857610360565b806318160ddd1461044c5780631f72d8311461046e578063206b60f91461048e57610360565b8063095ea7b31161033e578063095ea7b3146103ea5780630a5d64011461040c5780630e89341c1461042c57610360565b806301ffc9a71461036557806306fdde031461039b578063081812fc146103bd575b600080fd5b34801561037157600080fd5b50610385610380366004613ec7565b6109e0565b604051610392919061428b565b60405180910390f35b3480156103a757600080fd5b506103b0610a0e565b60405161039291906142e5565b3480156103c957600080fd5b506103dd6103d8366004613e52565b610aa1565b6040516103929190614104565b3480156103f657600080fd5b5061040a610405366004613d3e565b610aed565b005b34801561041857600080fd5b5061040a610427366004613da9565b610b85565b34801561043857600080fd5b506103b0610447366004613e52565b610ef8565b34801561045857600080fd5b50610461610f92565b6040516103929190614296565b34801561047a57600080fd5b5061040a610489366004613e52565b610f98565b34801561049a57600080fd5b506104616110b7565b3480156104af57600080fd5b5061040a6104be366004613c01565b6110db565b3480156104cf57600080fd5b5061040a611113565b3480156104e457600080fd5b506104616104f3366004613e52565b61137c565b34801561050457600080fd5b5061040a610513366004613eff565b611391565b34801561052457600080fd5b50610538610533366004613ea6565b611441565b60405161039292919061416e565b34801561055257600080fd5b50610461611585565b34801561056757600080fd5b5061040a610576366004613e82565b61158b565b61040a610589366004613f8a565b6115ad565b34801561059a57600080fd5b506104616105a9366004613d3e565b6119c4565b3480156105ba57600080fd5b5061040a6105c9366004613eff565b611a19565b3480156105da57600080fd5b5061040a6105e9366004613e82565b611a8c565b3480156105fa57600080fd5b5061040a610609366004613e52565b611aae565b34801561061a57600080fd5b5061040a611b0c565b34801561062f57600080fd5b5061040a61063e366004613c01565b611b5e565b34801561064f57600080fd5b5061040a61065e366004613e52565b611b79565b34801561066f57600080fd5b5061040a61067e366004613d69565b611bac565b34801561068f57600080fd5b5061046161069e366004613e52565b611ca4565b3480156106af57600080fd5b506103856106be366004613b91565b611cff565b3480156106cf57600080fd5b50610385611d13565b3480156106e457600080fd5b50610461611d1c565b3480156106f957600080fd5b506103dd610708366004613e52565b611da5565b34801561071957600080fd5b5061040a610728366004613b91565b611dda565b34801561073957600080fd5b50610461610748366004613b91565b611df2565b34801561075957600080fd5b50610461611e36565b34801561076e57600080fd5b50610385611e3c565b34801561078357600080fd5b5061040a611e45565b34801561079857600080fd5b5061040a6107a7366004613e1a565b611e95565b3480156107b857600080fd5b506103dd6107c7366004613ea6565b611efc565b3480156107d857600080fd5b506103856107e7366004613e82565b611f1b565b3480156107f857600080fd5b5061040a610807366004613eff565b611f44565b34801561081857600080fd5b506103b061206a565b34801561082d57600080fd5b50610461612079565b34801561084257600080fd5b5061040a610851366004613d11565b61207e565b34801561086257600080fd5b50610876610871366004613d69565b61214c565b6040516103929190614187565b34801561088f57600080fd5b5061040a61089e366004613e52565b61226b565b3480156108af57600080fd5b5061040a6108be366004613c41565b6122fc565b3480156108cf57600080fd5b5061046161233b565b3480156108e457600080fd5b506103b06108f3366004613e52565b612341565b34801561090457600080fd5b50610461610913366004613e52565b612486565b34801561092457600080fd5b5061046161249d565b34801561093957600080fd5b5061040a610948366004613e82565b6124c1565b34801561095957600080fd5b506104616124cb565b34801561096e57600080fd5b506104616124ef565b34801561098357600080fd5b506103b06124f5565b34801561099857600080fd5b506103856109a7366004613bc9565b612504565b3480156109b857600080fd5b506109cc6109c7366004613e52565b612532565b6040516103929897969594939291906150a1565b60006109eb826125e9565b80610a0657506001600160e01b0319821663152a902d60e11b145b90505b919050565b606060028054610a1d906151d6565b80601f0160208091040260200160405190810160405280929190818152602001828054610a49906151d6565b8015610a965780601f10610a6b57610100808354040283529160200191610a96565b820191906000526020600020905b815481529060010190602001808311610a7957829003601f168201915b505050505090505b90565b6000610aac826125f4565b610ad15760405162461bcd60e51b8152600401610ac890614b51565b60405180910390fd5b506000908152600660205260409020546001600160a01b031690565b6000610af882611da5565b9050806001600160a01b0316836001600160a01b03161415610b2c5760405162461bcd60e51b8152600401610ac890614d22565b806001600160a01b0316610b3e612611565b6001600160a01b03161480610b5a5750610b5a816109a7612611565b610b765760405162461bcd60e51b8152600401610ac8906148c3565b610b808383612620565b505050565b610b9260006107e7612611565b610bae5760405162461bcd60e51b8152600401610ac8906147c3565b80610bcb5760405162461bcd60e51b8152600401610ac89061478c565b610bd760156000613a3e565b6000805b82811015610eba576000848483818110610c0557634e487b7160e01b600052603260045260246000fd5b61010002919091013591505080610c195750425b8215610c3e57808310610c3e5760405162461bcd60e51b8152600401610ac890614557565b6000858584818110610c6057634e487b7160e01b600052603260045260246000fd5b905061010002016020013511610c885760405162461bcd60e51b8152600401610ac8906147fa565b6000858584818110610caa57634e487b7160e01b600052603260045260246000fd5b905061010002016060013511610cd25760405162461bcd60e51b8152600401610ac890614520565b6015604051806101000160405280838152602001878786818110610d0657634e487b7160e01b600052603260045260246000fd5b9050610100020160200135815260200160008152602001878786818110610d3d57634e487b7160e01b600052603260045260246000fd5b90506101000201606001358152602001878786818110610d6d57634e487b7160e01b600052603260045260246000fd5b90506101000201608001358152602001878786818110610d9d57634e487b7160e01b600052603260045260246000fd5b9050610100020160a001358152602001878786818110610dcd57634e487b7160e01b600052603260045260246000fd5b9050610100020160c0016020810190610de69190613b91565b6001600160a01b03168152602001878786818110610e1457634e487b7160e01b600052603260045260246000fd5b610100029190910160e0908101359092525082546001808201855560009485526020948590208451600890930201918255938301519381019390935560408201516002840155606082015160038401556080820151600484015560a0820151600584015560c08201516006840180546001600160a01b0319166001600160a01b039092169190911790550151600790910155915080610eb281615211565b915050610bdb565b507f795ebb3cd534c0d92268a24227e2bbdaaeea1845941e89f38d14abffec6934036015604051610eeb91906141e7565b60405180910390a1505050565b60196020526000908152604090208054610f11906151d6565b80601f0160208091040260200160405190810160405280929190818152602001828054610f3d906151d6565b8015610f8a5780601f10610f5f57610100808354040283529160200191610f8a565b820191906000526020600020905b815481529060010190602001808311610f6d57829003601f168201915b505050505081565b600a5490565b610fa560006107e7612611565b610fc15760405162461bcd60e51b8152600401610ac8906147c3565b601160019054906101000a90046001600160a01b03166001600160a01b031663fd967f476040518163ffffffff1660e01b815260040160206040518083038186803b15801561100f57600080fd5b505afa158015611023573d6000803e3d6000fd5b505050506040513d601f19601f820116820180604052508101906110479190613f5a565b6fffffffffffffffffffffffffffffffff1681106110775760405162461bcd60e51b8152600401610ac890614d63565b601a8190556040517f244ea8d7627f5a08f4299862bd5a45752842c183aee5b0fb0d1e4887bfa605b3906110ac908390614296565b60405180910390a150565b7f8502233096d909befbda0999bb8ea2f3a6be3c138b9fbf003752a4c8bce86f6c81565b6110ec6110e6612611565b8261268e565b6111085760405162461bcd60e51b8152600401610ac890614e06565b610b80838383612713565b6011546040805163a217fddf60e01b815290516101009092046001600160a01b0316916391d1485491839163a217fddf91600480820192602092909190829003018186803b15801561116457600080fd5b505afa158015611178573d6000803e3d6000fd5b505050506040513d601f19601f8201168201806040525081019061119c9190613e6a565b6111a4612611565b6040518363ffffffff1660e01b81526004016111c192919061429f565b60206040518083038186803b1580156111d957600080fd5b505afa1580156111ed573d6000803e3d6000fd5b505050506040513d601f19601f820116820180604052508101906112119190613e36565b61122d5760405162461bcd60e51b8152600401610ac890614c8e565b60115460405163f2aab4b360e01b815260009161010090046001600160a01b03169063f2aab4b390611263903090600401614104565b60206040518083038186803b15801561127b57600080fd5b505afa15801561128f573d6000803e3d6000fd5b505050506040513d601f19601f820116820180604052508101906112b39190613bad565b905060004790506000826001600160a01b0316826040516112d390610a9e565b60006040518083038185875af1925050503d8060008114611310576040519150601f19603f3d011682016040523d82523d6000602084013e611315565b606091505b50509050806113365760405162461bcd60e51b8152600401610ac8906143c1565b826001600160a01b03167feaff4b37086828766ad3268786972c0cd24259d4c87a80f9d3963a3c3d999b0d8360405161136f9190614296565b60405180910390a2505050565b60009081526020819052604090206001015490565b6113bd7f9f2df0fed2c77648de5860a4cc508cd0818c85b8b8a1ab4ceeef8d981c8956a66107e7612611565b6113d95760405162461bcd60e51b8152600401610ac890614b0f565b6012546013546113ea906001615125565b11156114085760405162461bcd60e51b8152600401610ac89061482f565b6013546000908152601960205260409020611424908383613a5f565b506001601360008282546114389190615125565b90915550505050565b60115460405163f2aab4b360e01b815260009182916101009091046001600160a01b03169063f2aab4b39061147a903090600401614104565b60206040518083038186803b15801561149257600080fd5b505afa1580156114a6573d6000803e3d6000fd5b505050506040513d601f19601f820116820180604052508101906114ca9190613bad565b9150601160019054906101000a90046001600160a01b03166001600160a01b031663fd967f476040518163ffffffff1660e01b815260040160206040518083038186803b15801561151a57600080fd5b505afa15801561152e573d6000803e3d6000fd5b505050506040513d601f19601f820116820180604052508101906115529190613f5a565b6fffffffffffffffffffffffffffffffff16601a54846115729190615151565b61157c919061513d565b90509250929050565b60125481565b6115958282612840565b6000828152600160205260409020610b8090826125d0565b600260105414156115d05760405162461bcd60e51b8152600401610ac890614f3c565b60026010556115dd611d13565b156115fa5760405162461bcd60e51b8152600401610ac89061488c565b6000611604611d1c565b905060006015828154811061162957634e487b7160e01b600052603260045260246000fd5b600091825260209182902060408051610100810182526008909302909101805483526001810154938301939093526002830154908201526003820154606082015260048201546080820152600582015460a082015260068201546001600160a01b031660c082015260079091015460e08201529050846116bb5760405162461bcd60e51b8152600401610ac890614955565b601254856014546116cc9190615125565b11156116ea5760405162461bcd60e51b8152600401610ac890614e63565b601354856014546116fb9190615125565b11156117195760405162461bcd60e51b8152600401610ac890614920565b806060015185111561173d5760405162461bcd60e51b8152600401610ac8906142f8565b80602001518582604001516117529190615125565b11156117705760405162461bcd60e51b8152600401610ac89061498c565b60006016600061177e612611565b6001600160a01b031681526020808201929092526040908101600090812086825290925290205490508015806117b45750804210155b6117d05760405162461bcd60e51b8152600401610ac890614746565b60e08201511561186b5760006117e4612611565b6040516020016117f4919061400d565b60405160208183030381529060405280519060200120905061184d86868080602002602001604051908101604052809392919081815260200183836020028082843760009201919091525050505060e085015183612864565b6118695760405162461bcd60e51b8152600401610ac8906146c3565b505b60a082015115611892576118928260c001518360a001518861188d9190615151565b61291f565b85601584815481106118b457634e487b7160e01b600052603260045260246000fd5b906000526020600020906008020160020160008282546118d49190615125565b909155505060808201516118e89042615125565b601660006118f4612611565b6001600160a01b0316815260208082019290925260409081016000908120878252909252812091909155601454905b878110156119695761193e611936612611565b601454612a79565b6001601460008282546119519190615125565b9091555081905061196181615211565b915050611923565b50611972612611565b6001600160a01b03167f9cdcf2f7714cca3508c7f0110b04a90a80a3a8dd0e35de99689db74d28c5383e8289876040516119ae9392919061508b565b60405180910390a2505060016010555050505050565b60006119cf83611df2565b82106119ed5760405162461bcd60e51b8152600401610ac890614466565b506001600160a01b03821660009081526008602090815260408083208484529091529020545b92915050565b611a2660006107e7612611565b611a425760405162461bcd60e51b8152600401610ac8906147c3565b611a4e60188383613a5f565b507fe6e4cd5c2dc7d2c20519b41832cd550fd3ea1186bf299d108179bf71fb8e00e58282604051611a809291906142b6565b60405180910390a15050565b611a968282612a93565b6000828152600160205260409020610b809082612ad5565b611abb60006107e7612611565b611ad75760405162461bcd60e51b8152600401610ac8906147c3565b60128190556040517ff8cbdbee6d402ad22cddbc250098e39cd0d24f0fad122f64794577167c605df9906110ac908390614296565b611b387f65d7a28e3265b37a6474929f336521b332c1681b933f6cb9f3376673440d862a6107e7612611565b611b545760405162461bcd60e51b8152600401610ac890614fd0565b611b5c612aea565b565b610b80838383604051806020016040528060008152506122fc565b611b846110e6612611565b611ba05760405162461bcd60e51b8152600401610ac890614f73565b611ba981612b58565b50565b611bd87f9f2df0fed2c77648de5860a4cc508cd0818c85b8b8a1ab4ceeef8d981c8956a66107e7612611565b611bf45760405162461bcd60e51b8152600401610ac890614b0f565b601254601354611c05908390615125565b1115611c235760405162461bcd60e51b8152600401610ac89061482f565b60135460005b82811015611c9c57838382818110611c5157634e487b7160e01b600052603260045260246000fd5b9050602002810190611c6391906150e0565b6000848152601960205260409020611c7c929091613a5f565b50611c88600183615125565b915080611c9481615211565b915050611c29565b506013555050565b6000611cae610f92565b8210611ccc5760405162461bcd60e51b8152600401610ac890614ea8565b600a8281548110611ced57634e487b7160e01b600052603260045260246000fd5b90600052602060002001549050919050565b600f546001600160a01b0390811691161490565b600c5460ff1690565b601554600090611d3e5760405162461bcd60e51b8152600401610ac890614ceb565b601554600090611d5090600190615170565b90505b60158181548110611d7457634e487b7160e01b600052603260045260246000fd5b9060005260206000209060080201600001544210611d93579050610a9e565b80611d9d816151bf565b915050611d53565b6000818152600460205260408120546001600160a01b031680610a065760405162461bcd60e51b8152600401610ac890614a20565b60405162461bcd60e51b8152600401610ac890614f05565b60006001600160a01b038216611e1a5760405162461bcd60e51b8152600401610ac8906149c3565b506001600160a01b031660009081526005602052604090205490565b60135481565b60115460ff1681565b611e717f65d7a28e3265b37a6474929f336521b332c1681b933f6cb9f3376673440d862a6107e7612611565b611e8d5760405162461bcd60e51b8152600401610ac8906145eb565b611b5c612bff565b611ea260006107e7612611565b611ebe5760405162461bcd60e51b8152600401610ac8906147c3565b6011805460ff19168215151790556040517ffb4ba02cee22486df888d7ffb97c6100ec3193781e025cb9a4bc6fc358d626cc906110ac90839061428b565b6000828152600160205260408120611f149083612c5a565b9392505050565b6000918252602082815260408084206001600160a01b0393909316845291905290205460ff1690565b6011546040805163a217fddf60e01b815290516101009092046001600160a01b0316916391d1485491839163a217fddf91600480820192602092909190829003018186803b158015611f9557600080fd5b505afa158015611fa9573d6000803e3d6000fd5b505050506040513d601f19601f82011682018060405250810190611fcd9190613e6a565b611fd5612611565b6040518363ffffffff1660e01b8152600401611ff292919061429f565b60206040518083038186803b15801561200a57600080fd5b505afa15801561201e573d6000803e3d6000fd5b505050506040513d601f19601f820116820180604052508101906120429190613e36565b61205e5760405162461bcd60e51b8152600401610ac890614c8e565b610b8060178383613a5f565b606060038054610a1d906151d6565b600081565b612086612611565b6001600160a01b0316826001600160a01b031614156120b75760405162461bcd60e51b8152600401610ac89061468c565b80600760006120c4612611565b6001600160a01b03908116825260208083019390935260409182016000908120918716808252919093529120805460ff191692151592909217909155612108612611565b6001600160a01b03167f17307eab39ab6107e8899845ad3d59bd9653f200f220920489ca2b5937696c3183604051612140919061428b565b60405180910390a35050565b60608167ffffffffffffffff81111561217557634e487b7160e01b600052604160045260246000fd5b6040519080825280602002602001820160405280156121a857816020015b60608152602001906001900390816121935790505b50905060005b8281101561226457612226308585848181106121da57634e487b7160e01b600052603260045260246000fd5b90506020028101906121ec91906150e0565b8080601f016020809104026020016040519081016040528093929190818152602001838380828437600092019190915250612c6692505050565b82828151811061224657634e487b7160e01b600052603260045260246000fd5b6020026020010181905250808061225c90615211565b9150506121ae565b5092915050565b6122977f9f2df0fed2c77648de5860a4cc508cd0818c85b8b8a1ab4ceeef8d981c8956a66107e7612611565b6122b35760405162461bcd60e51b8152600401610ac890614b0f565b601254816013546122c49190615125565b11156122e25760405162461bcd60e51b8152600401610ac89061482f565b80601360008282546122f49190615125565b909155505050565b61230d612307612611565b8361268e565b6123295760405162461bcd60e51b8152600401610ac890614e06565b61233584848484612c8b565b50505050565b601a5481565b606061234c826125f4565b6123685760405162461bcd60e51b8152600401610ac890614bfa565b6000612372612cbe565b600084815260196020526040812080549293509091612390906151d6565b9050111561243757600083815260196020526040902080546123b1906151d6565b80601f01602080910402602001604051908101604052809291908181526020018280546123dd906151d6565b801561242a5780601f106123ff5761010080835404028352916020019161242a565b820191906000526020600020905b81548152906001019060200180831161240d57829003601f168201915b5050505050915050610a09565b805115612470578061244884612ccd565b604051602001612459929190614054565b604051602081830303815290604052915050610a09565b5050604080516020810190915260008152919050565b6000818152600160205260408120610a0690612de8565b7f9f2df0fed2c77648de5860a4cc508cd0818c85b8b8a1ab4ceeef8d981c8956a681565b611a968282612df3565b7f65d7a28e3265b37a6474929f336521b332c1681b933f6cb9f3376673440d862a81565b60145481565b606060178054610a1d906151d6565b6001600160a01b03918216600090815260076020908152604080832093909416825291909152205460ff1690565b6015818154811061254257600080fd5b600091825260209091206008909102018054600182015460028301546003840154600485015460058601546006870154600790970154959750939592949193909290916001600160a01b039091169088565b600061259f33611cff565b156125b3575060131936013560601c610a9e565b6125bb6125e5565b9050610a9e565b6125cc8282612e12565b5050565b6000611f14836001600160a01b038416612e97565b3390565b6000610a0682612ee1565b6000908152600460205260409020546001600160a01b0316151590565b600061261b612594565b905090565b600081815260066020526040902080546001600160a01b0319166001600160a01b038416908117909155819061265582611da5565b6001600160a01b03167f8c5be1e5ebec7d5bd14f71427d1e84f3dd0314c0f7b2291e5b200ac8c7c3b92560405160405180910390a45050565b6000612699826125f4565b6126b55760405162461bcd60e51b8152600401610ac8906146fa565b60006126c083611da5565b9050806001600160a01b0316846001600160a01b031614806126fb5750836001600160a01b03166126f084610aa1565b6001600160a01b0316145b8061270b575061270b8185612504565b949350505050565b826001600160a01b031661272682611da5565b6001600160a01b03161461274c5760405162461bcd60e51b8152600401610ac890614b9d565b6001600160a01b0382166127725760405162461bcd60e51b8152600401610ac890614648565b61277d838383612f06565b612788600082612620565b6001600160a01b03831660009081526005602052604081208054600192906127b1908490615170565b90915550506001600160a01b03821660009081526005602052604081208054600192906127df908490615125565b909155505060008181526004602052604080822080546001600160a01b0319166001600160a01b0386811691821790925591518493918716917fddf252ad1be2c89b69c2b068fc378daa952ba7f163c4a11628f55a4df523b3ef91a4505050565b6128498261137c565b61285a81612855612611565b612fba565b610b808383612e12565b600081815b855181101561291457600086828151811061289457634e487b7160e01b600052603260045260246000fd5b602002602001015190508083116128d55782816040516020016128b892919061402a565b604051602081830303815290604052805190602001209250612901565b80836040516020016128e892919061402a565b6040516020818303038152906040528051906020012092505b508061290c81615211565b915050612869565b509092149392505050565b6001600160a01b0382166129515780341461294c5760405162461bcd60e51b8152600401610ac89061442f565b6125cc565b816001600160a01b03166323b872dd612968612611565b60115460405163f2aab4b360e01b81526101009091046001600160a01b03169063f2aab4b39061299c903090600401614104565b60206040518083038186803b1580156129b457600080fd5b505afa1580156129c8573d6000803e3d6000fd5b505050506040513d601f19601f820116820180604052508101906129ec9190613bad565b846040518463ffffffff1660e01b8152600401612a0b93929190614118565b602060405180830381600087803b158015612a2557600080fd5b505af1158015612a39573d6000803e3d6000fd5b505050506040513d601f19601f82011682018060405250810190612a5d9190613e36565b6125cc5760405162461bcd60e51b8152600401610ac890614c57565b6125cc82826040518060200160405280600081525061301e565b612a9b612611565b6001600160a01b0316816001600160a01b031614612acb5760405162461bcd60e51b8152600401610ac89061502e565b6125cc8282613051565b6000611f14836001600160a01b0384166130d4565b612af2611d13565b612b0e5760405162461bcd60e51b8152600401610ac8906143f8565b600c805460ff191690557f5db9ee0a495bf2e6ff9c91a7834c1ba4fdd244a5e8aa4e537bd38aeae4b073aa612b41612611565b604051612b4e9190614104565b60405180910390a1565b6000612b6382611da5565b9050612b7181600084612f06565b612b7c600083612620565b6001600160a01b0381166000908152600560205260408120805460019290612ba5908490615170565b909155505060008281526004602052604080822080546001600160a01b0319169055518391906001600160a01b038416907fddf252ad1be2c89b69c2b068fc378daa952ba7f163c4a11628f55a4df523b3ef908390a45050565b612c07611d13565b15612c245760405162461bcd60e51b8152600401610ac89061488c565b600c805460ff191660011790557f62e78cea01bee320cd4e420270b5ea74000d11b0c9f74754ebdbfc544b05a258612b41612611565b6000611f1483836131f1565b6060611f1483836040518060600160405280602781526020016152bc60279139613229565b612c96848484612713565b612ca2848484846132c5565b6123355760405162461bcd60e51b8152600401610ac8906144c3565b606060188054610a1d906151d6565b606081612cf257506040805180820190915260018152600360fc1b6020820152610a09565b8160005b8115612d1c5780612d0681615211565b9150612d159050600a8361513d565b9150612cf6565b60008167ffffffffffffffff811115612d4557634e487b7160e01b600052604160045260246000fd5b6040519080825280601f01601f191660200182016040528015612d6f576020820181803683370190505b5090505b841561270b57612d84600183615170565b9150612d91600a8661522c565b612d9c906030615125565b60f81b818381518110612dbf57634e487b7160e01b600052603260045260246000fd5b60200101906001600160f81b031916908160001a905350612de1600a8661513d565b9450612d73565b6000610a06826133e0565b612dfc8261137c565b612e0881612855612611565b610b808383613051565b612e1c8282611f1b565b6125cc576000828152602081815260408083206001600160a01b03851684529091529020805460ff19166001179055612e53612611565b6001600160a01b0316816001600160a01b0316837f2f8788117e7eff1d82e926ec794901d17c78024a50270940304540a733656f0d60405160405180910390a45050565b6000612ea383836133e4565b612ed957508154600181810184556000848152602080822090930184905584548482528286019093526040902091909155611a13565b506000611a13565b60006001600160e01b0319821663780e9d6360e01b1480610a065750610a06826133fc565b612f1183838361343c565b60115460ff168015612f2b57506001600160a01b03831615155b8015612f3f57506001600160a01b03821615155b15610b8057612f6e7f8502233096d909befbda0999bb8ea2f3a6be3c138b9fbf003752a4c8bce86f6c84611f1b565b80612f9e5750612f9e7f8502233096d909befbda0999bb8ea2f3a6be3c138b9fbf003752a4c8bce86f6c83611f1b565b610b805760405162461bcd60e51b8152600401610ac890614a7d565b612fc48282611f1b565b6125cc57612fdc816001600160a01b03166014613447565b612fe7836020613447565b604051602001612ff8929190614083565b60408051601f198184030181529082905262461bcd60e51b8252610ac8916004016142e5565b6130288383613606565b61303560008484846132c5565b610b805760405162461bcd60e51b8152600401610ac8906144c3565b61305b8282611f1b565b156125cc576000828152602081815260408083206001600160a01b03851684529091529020805460ff19169055613090612611565b6001600160a01b0316816001600160a01b0316837ff6391f5c32d9c69d2a47ea670b442974b53935d1edc7fd64eb21e047a839171b60405160405180910390a45050565b600081815260018301602052604081205480156131e75760006130f8600183615170565b855490915060009061310c90600190615170565b905081811461318d57600086600001828154811061313a57634e487b7160e01b600052603260045260246000fd5b906000526020600020015490508087600001848154811061316b57634e487b7160e01b600052603260045260246000fd5b6000918252602080832090910192909255918252600188019052604090208390555b85548690806131ac57634e487b7160e01b600052603160045260246000fd5b600190038181906000526020600020016000905590558560010160008681526020019081526020016000206000905560019350505050611a13565b6000915050611a13565b600082600001828154811061321657634e487b7160e01b600052603260045260246000fd5b9060005260206000200154905092915050565b6060613234846136e5565b6132505760405162461bcd60e51b8152600401610ac890614dc0565b600080856001600160a01b03168560405161326b9190614038565b600060405180830381855af49150503d80600081146132a6576040519150601f19603f3d011682016040523d82523d6000602084013e6132ab565b606091505b50915091506132bb8282866136eb565b9695505050505050565b60006132d9846001600160a01b03166136e5565b156133d557836001600160a01b031663150b7a026132f5612611565b8786866040518563ffffffff1660e01b8152600401613317949392919061413c565b602060405180830381600087803b15801561333157600080fd5b505af1925050508015613361575060408051601f3d908101601f1916820190925261335e91810190613ee3565b60015b6133bb573d80801561338f576040519150601f19603f3d011682016040523d82523d6000602084013e613394565b606091505b5080516133b35760405162461bcd60e51b8152600401610ac8906144c3565b805181602001fd5b6001600160e01b031916630a85bd0160e11b14905061270b565b506001949350505050565b5490565b60009081526001919091016020526040902054151590565b60006001600160e01b031982166380ac58cd60e01b148061342d57506001600160e01b03198216635b5e139f60e01b145b80610a065750610a0682613724565b610b80838383613749565b60606000613456836002615151565b613461906002615125565b67ffffffffffffffff81111561348757634e487b7160e01b600052604160045260246000fd5b6040519080825280601f01601f1916602001820160405280156134b1576020820181803683370190505b509050600360fc1b816000815181106134da57634e487b7160e01b600052603260045260246000fd5b60200101906001600160f81b031916908160001a905350600f60fb1b8160018151811061351757634e487b7160e01b600052603260045260246000fd5b60200101906001600160f81b031916908160001a905350600061353b846002615151565b613546906001615125565b90505b60018111156135e7577f303132333435363738396162636465660000000000000000000000000000000085600f166010811061359557634e487b7160e01b600052603260045260246000fd5b1a60f81b8282815181106135b957634e487b7160e01b600052603260045260246000fd5b60200101906001600160f81b031916908160001a90535060049490941c936135e0816151bf565b9050613549565b508315611f145760405162461bcd60e51b8152600401610ac89061432f565b6001600160a01b03821661362c5760405162461bcd60e51b8152600401610ac890614ada565b613635816125f4565b156136525760405162461bcd60e51b8152600401610ac8906145b4565b61365e60008383612f06565b6001600160a01b0382166000908152600560205260408120805460019290613687908490615125565b909155505060008181526004602052604080822080546001600160a01b0319166001600160a01b03861690811790915590518392907fddf252ad1be2c89b69c2b068fc378daa952ba7f163c4a11628f55a4df523b3ef908290a45050565b3b151590565b606083156136fa575081611f14565b82511561370a5782518084602001fd5b8160405162461bcd60e51b8152600401610ac891906142e5565b60006001600160e01b03198216635a05180f60e01b1480610a065750610a0682613779565b61375483838361379e565b61375c611d13565b15610b805760405162461bcd60e51b8152600401610ac890614364565b60006001600160e01b03198216637965db0b60e01b1480610a065750610a0682613827565b6137a9838383610b80565b6001600160a01b0383166137c5576137c081613840565b6137e8565b816001600160a01b0316836001600160a01b0316146137e8576137e88382613884565b6001600160a01b038216613804576137ff81613921565b610b80565b826001600160a01b0316826001600160a01b031614610b8057610b8082826139fa565b6001600160e01b031981166301ffc9a760e01b14919050565b600a80546000838152600b60205260408120829055600182018355919091527fc65a7bb8d6351c1cf70c95a316cc6a92839c986682d98bc35f958f4883f9d2a80155565b6000600161389184611df2565b61389b9190615170565b6000838152600960205260409020549091508082146138ee576001600160a01b03841660009081526008602090815260408083208584528252808320548484528184208190558352600990915290208190555b5060009182526009602090815260408084208490556001600160a01b039094168352600881528383209183525290812055565b600a5460009061393390600190615170565b6000838152600b6020526040812054600a805493945090928490811061396957634e487b7160e01b600052603260045260246000fd5b9060005260206000200154905080600a838154811061399857634e487b7160e01b600052603260045260246000fd5b6000918252602080832090910192909255828152600b9091526040808220849055858252812055600a8054806139de57634e487b7160e01b600052603160045260246000fd5b6001900381819060005260206000200160009055905550505050565b6000613a0583611df2565b6001600160a01b039093166000908152600860209081526040808320868452825280832085905593825260099052919091209190915550565b5080546000825560080290600052602060002090810190611ba99190613ae3565b828054613a6b906151d6565b90600052602060002090601f016020900481019282613a8d5760008555613ad3565b82601f10613aa65782800160ff19823516178555613ad3565b82800160010185558215613ad3579182015b82811115613ad3578235825591602001919060010190613ab8565b50613adf929150613b33565b5090565b5b80821115613adf57600080825560018201819055600282018190556003820181905560048201819055600582018190556006820180546001600160a01b03191690556007820155600801613ae4565b5b80821115613adf5760008155600101613b34565b60008083601f840112613b59578081fd5b50813567ffffffffffffffff811115613b70578182fd5b6020830191508360208083028501011115613b8a57600080fd5b9250929050565b600060208284031215613ba2578081fd5b8135611f1481615282565b600060208284031215613bbe578081fd5b8151611f1481615282565b60008060408385031215613bdb578081fd5b8235613be681615282565b91506020830135613bf681615282565b809150509250929050565b600080600060608486031215613c15578081fd5b8335613c2081615282565b92506020840135613c3081615282565b929592945050506040919091013590565b60008060008060808587031215613c56578081fd5b8435613c6181615282565b9350602085810135613c7281615282565b935060408601359250606086013567ffffffffffffffff80821115613c95578384fd5b818801915088601f830112613ca8578384fd5b813581811115613cba57613cba61526c565b604051601f8201601f1916810185018381118282101715613cdd57613cdd61526c565b60405281815283820185018b1015613cf3578586fd5b81858501868301379081019093019390935250939692955090935050565b60008060408385031215613d23578182fd5b8235613d2e81615282565b91506020830135613bf681615297565b60008060408385031215613d50578182fd5b8235613d5b81615282565b946020939093013593505050565b60008060208385031215613d7b578182fd5b823567ffffffffffffffff811115613d91578283fd5b613d9d85828601613b48565b90969095509350505050565b60008060208385031215613dbb578182fd5b823567ffffffffffffffff80821115613dd2578384fd5b818501915085601f830112613de5578384fd5b813581811115613df3578485fd5b86602061010083028501011115613e08578485fd5b60209290920196919550909350505050565b600060208284031215613e2b578081fd5b8135611f1481615297565b600060208284031215613e47578081fd5b8151611f1481615297565b600060208284031215613e63578081fd5b5035919050565b600060208284031215613e7b578081fd5b5051919050565b60008060408385031215613e94578182fd5b823591506020830135613bf681615282565b60008060408385031215613eb8578182fd5b50508035926020909101359150565b600060208284031215613ed8578081fd5b8135611f14816152a5565b600060208284031215613ef4578081fd5b8151611f14816152a5565b60008060208385031215613f11578182fd5b823567ffffffffffffffff80821115613f28578384fd5b818501915085601f830112613f3b578384fd5b813581811115613f49578485fd5b866020828501011115613e08578485fd5b600060208284031215613f6b578081fd5b81516fffffffffffffffffffffffffffffffff81168114611f14578182fd5b600080600060408486031215613f9e578081fd5b83359250602084013567ffffffffffffffff811115613fbb578182fd5b613fc786828701613b48565b9497909650939450505050565b6001600160a01b03169052565b60008151808452613ff9816020860160208601615193565b601f01601f19169290920160200192915050565b60609190911b6bffffffffffffffffffffffff1916815260140190565b918252602082015260400190565b6000825161404a818460208701615193565b9190910192915050565b60008351614066818460208801615193565b83519083019061407a818360208801615193565b01949350505050565b60007f416363657373436f6e74726f6c3a206163636f756e7420000000000000000000825283516140bb816017850160208801615193565b7f206973206d697373696e6720726f6c652000000000000000000000000000000060179184019182015283516140f8816028840160208801615193565b01602801949350505050565b6001600160a01b0391909116815260200190565b6001600160a01b039384168152919092166020820152604081019190915260600190565b60006001600160a01b038087168352808616602084015250836040830152608060608301526132bb6080830184613fe1565b6001600160a01b03929092168252602082015260400190565b6000602080830181845280855180835260408601915060408482028701019250838701855b828110156141da57603f198886030184526141c8858351613fe1565b945092850192908501906001016141ac565b5092979650505050505050565b60006020808301818452808554808352604092508286019150868552838520855b8281101561427e57815484526001820154868501526002820154858501526003820154606085015260048201546080850152600582015460a08501526142516006830154615187565b61425e60c0860182613fd4565b50600782015460e085015261010090930192600890910190600101614208565b5091979650505050505050565b901515815260200190565b90815260200190565b9182526001600160a01b0316602082015260400190565b60006020825282602083015282846040840137818301604090810191909152601f909201601f19160101919050565b600060208252611f146020830184613fe1565b6020808252601b908201527f4e46543a20657863656564696e6720737570706c79206c696d69740000000000604082015260600190565b6020808252818101527f537472696e67733a20686578206c656e67746820696e73756666696369656e74604082015260600190565b6020808252602b908201527f4552433732315061757361626c653a20746f6b656e207472616e73666572207760408201527f68696c6520706175736564000000000000000000000000000000000000000000606082015260800190565b6020808252601d908201527f4e46543a206661696c656420746f2077697468647261772066756e6473000000604082015260600190565b60208082526014908201527f5061757361626c653a206e6f7420706175736564000000000000000000000000604082015260600190565b60208082526015908201527f4e46543a206e6f7420656e6f7567682076616c75650000000000000000000000604082015260600190565b6020808252602b908201527f455243373231456e756d657261626c653a206f776e657220696e646578206f7560408201527f74206f6620626f756e6473000000000000000000000000000000000000000000606082015260800190565b60208082526032908201527f4552433732313a207472616e7366657220746f206e6f6e20455243373231526560408201527f63656976657220696d706c656d656e7465720000000000000000000000000000606082015260800190565b6020808252601f908201527f4e46543a207175616e74697479206c696d69742063616e6e6f74206265203000604082015260600190565b6020808252602e908201527f4e46543a20737461727454696d657374616d70206d75737420626520696e206160408201527f7363656e64696e67206f72646572000000000000000000000000000000000000606082015260800190565b6020808252601c908201527f4552433732313a20746f6b656e20616c7265616479206d696e74656400000000604082015260600190565b6020808252603e908201527f4552433732315072657365744d696e7465725061757365724175746f49643a2060408201527f6d75737420686176652070617573657220726f6c6520746f2070617573650000606082015260800190565b60208082526024908201527f4552433732313a207472616e7366657220746f20746865207a65726f206164646040820152637265737360e01b606082015260800190565b60208082526019908201527f4552433732313a20617070726f766520746f2063616c6c657200000000000000604082015260600190565b6020808252601a908201527f4e46543a20696e76616c6964206d65726b6c652070726f6f6673000000000000604082015260600190565b6020808252602c908201527f4552433732313a206f70657261746f7220717565727920666f72206e6f6e657860408201526b34b9ba32b73a103a37b5b2b760a11b606082015260800190565b60208082526026908201527f4e46543a2063616e6e6f74206d696e74207965742064756520746f2074696d65604082015265081b1a5b5a5d60d21b606082015260800190565b6020808252601f908201527f4e46543a206e656564732061206c697374206f6620636f6e646974696f6e7300604082015260600190565b60208082526016908201527f6f6e6c79206d6f64756c652061646d696e20726f6c6500000000000000000000604082015260600190565b6020808252818101527f4e46543a206d6178206d696e7420737570706c792063616e6e6f742062652030604082015260600190565b60208082526029908201527f4e46543a2063616e6e6f74206d696e74206d6f7265207468616e206d6178546f60408201527f74616c537570706c790000000000000000000000000000000000000000000000606082015260800190565b60208082526010908201527f5061757361626c653a2070617573656400000000000000000000000000000000604082015260600190565b60208082526038908201527f4552433732313a20617070726f76652063616c6c6572206973206e6f74206f7760408201527f6e6572206e6f7220617070726f76656420666f7220616c6c0000000000000000606082015260800190565b6020808252818101527f4e46543a2063616e6e6f7420636c61696d20756e6d696e74656420746f6b656e604082015260600190565b60208082526019908201527f4e46543a207175616e746974792063616e6e6f74206265203000000000000000604082015260600190565b6020808252601e908201527f4e46543a20657863656564696e67206d6178206d696e7420737570706c790000604082015260600190565b6020808252602a908201527f4552433732313a2062616c616e636520717565727920666f7220746865207a6560408201527f726f206164647265737300000000000000000000000000000000000000000000606082015260800190565b60208082526029908201527f4552433732313a206f776e657220717565727920666f72206e6f6e657869737460408201527f656e7420746f6b656e0000000000000000000000000000000000000000000000606082015260800190565b60208082526036908201527f4e46543a205472616e736665727320617265207265737472696374656420746f60408201527f205452414e534645525f524f4c4520686f6c6465727300000000000000000000606082015260800190565b6020808252818101527f4552433732313a206d696e7420746f20746865207a65726f2061646472657373604082015260600190565b60208082526022908201527f4e46543a206d7573742068617665206d696e74657220726f6c6520746f206d696040820152611b9d60f21b606082015260800190565b6020808252602c908201527f4552433732313a20617070726f76656420717565727920666f72206e6f6e657860408201526b34b9ba32b73a103a37b5b2b760a11b606082015260800190565b60208082526029908201527f4552433732313a207472616e73666572206f6620746f6b656e2074686174206960408201527f73206e6f74206f776e0000000000000000000000000000000000000000000000606082015260800190565b6020808252602f908201527f4552433732314d657461646174613a2055524920717565727920666f72206e6f60408201527f6e6578697374656e7420746f6b656e0000000000000000000000000000000000606082015260800190565b6020808252601f908201527f4e46543a206661696c656420746f207472616e73666572207061796d656e7400604082015260600190565b60208082526032908201527f4e46543a206f6e6c7920612070726f746f636f6c2061646d696e2063616e206360408201527f616c6c20746869732066756e6374696f6e2e0000000000000000000000000000606082015260800190565b6020808252601d908201527f4e46543a206e6f207075626c6963206d696e7420636f6e646974696f6e000000604082015260600190565b60208082526021908201527f4552433732313a20617070726f76616c20746f2063757272656e74206f776e656040820152603960f91b606082015260800190565b6020808252602a908201527f4e46543a204270732070726f7669646564206d757374206265206c657373207460408201527f68616e2031302c30303000000000000000000000000000000000000000000000606082015260800190565b60208082526026908201527f416464726573733a2064656c65676174652063616c6c20746f206e6f6e2d636f6040820152651b9d1c9858dd60d21b606082015260800190565b60208082526031908201527f4552433732313a207472616e736665722063616c6c6572206973206e6f74206f60408201527f776e6572206e6f7220617070726f766564000000000000000000000000000000606082015260800190565b60208082526025908201527f4e46543a20657863656564696e6720746f74616c206d617820737570706c79206040820152641b1a5b5a5d60da1b606082015260800190565b6020808252602c908201527f455243373231456e756d657261626c653a20676c6f62616c20696e646578206f60408201527f7574206f6620626f756e64730000000000000000000000000000000000000000606082015260800190565b60208082526012908201527f4e46543a20636c61696d20696e73746561640000000000000000000000000000604082015260600190565b6020808252601f908201527f5265656e7472616e637947756172643a207265656e7472616e742063616c6c00604082015260600190565b60208082526030908201527f4552433732314275726e61626c653a2063616c6c6572206973206e6f74206f7760408201527f6e6572206e6f7220617070726f76656400000000000000000000000000000000606082015260800190565b602080825260409082018190527f4552433732315072657365744d696e7465725061757365724175746f49643a20908201527f6d75737420686176652070617573657220726f6c6520746f20756e7061757365606082015260800190565b6020808252602f908201527f416363657373436f6e74726f6c3a2063616e206f6e6c792072656e6f756e636560408201527f20726f6c657320666f722073656c660000000000000000000000000000000000606082015260800190565b9283526020830191909152604082015260600190565b978852602088019690965260408701949094526060860192909252608085015260a08401526001600160a01b031660c083015260e08201526101000190565b6000808335601e198436030181126150f6578283fd5b83018035915067ffffffffffffffff821115615110578283fd5b602001915036819003821315613b8a57600080fd5b6000821982111561513857615138615240565b500190565b60008261514c5761514c615256565b500490565b600081600019048311821515161561516b5761516b615240565b500290565b60008282101561518257615182615240565b500390565b6001600160a01b031690565b60005b838110156151ae578181015183820152602001615196565b838111156123355750506000910152565b6000816151ce576151ce615240565b506000190190565b6002810460018216806151ea57607f821691505b6020821081141561520b57634e487b7160e01b600052602260045260246000fd5b50919050565b600060001982141561522557615225615240565b5060010190565b60008261523b5761523b615256565b500690565b634e487b7160e01b600052601160045260246000fd5b634e487b7160e01b600052601260045260246000fd5b634e487b7160e01b600052604160045260246000fd5b6001600160a01b0381168114611ba957600080fd5b8015158114611ba957600080fd5b6001600160e01b031981168114611ba957600080fdfe416464726573733a206c6f772d6c6576656c2064656c65676174652063616c6c206661696c6564a164736f6c6343000800000a",
  "linkReferences": {},
  "deployedLinkReferences": {}
}