{
  "_format": "hh-sol-artifact-1",
  "contractName": "LazyNFT",
  "sourceName": "contracts/LazyNFT.sol",
  "abi": [
    {
      "inputs": [
        {
          "internalType": "address payable",
          "name": "_controlCenter",
          "type": "address"
        },
        {
          "internalType": "string",
          "name": "_name",
          "type": "string"
        },
        {
          "internalType": "string",
          "name": "_symbol",
          "type": "string"
        },
        {
          "internalType": "address",
          "name": "_trustedForwarder",
          "type": "address"
        },
        {
          "internalType": "string",
          "name": "_contractUri",
          "type": "string"
        },
        {
          "internalType": "string",
          "name": "_baseTokenUri",
          "type": "string"
        },
        {
          "internalType": "uint256",
          "name": "_maxSupply",
          "type": "uint256"
        },
        {
          "internalType": "uint256",
          "name": "_royaltyBps",
          "type": "uint256"
        },
        {
          "internalType": "uint256",
          "name": "_feeBps",
          "type": "uint256"
        },
        {
          "internalType": "address",
          "name": "_saleRecipient",
          "type": "address"
        }
      ],
      "stateMutability": "nonpayable",
      "type": "constructor"
    },
    {
      "anonymous": false,
      "inputs": [
        {
          "indexed": true,
          "internalType": "address",
          "name": "owner",
          "type": "address"
        },
        {
          "indexed": true,
          "internalType": "address",
          "name": "approved",
          "type": "address"
        },
        {
          "indexed": true,
          "internalType": "uint256",
          "name": "tokenId",
          "type": "uint256"
        }
      ],
      "name": "Approval",
      "type": "event"
    },
    {
      "anonymous": false,
      "inputs": [
        {
          "indexed": true,
          "internalType": "address",
          "name": "owner",
          "type": "address"
        },
        {
          "indexed": true,
          "internalType": "address",
          "name": "operator",
          "type": "address"
        },
        {
          "indexed": false,
          "internalType": "bool",
          "name": "approved",
          "type": "bool"
        }
      ],
      "name": "ApprovalForAll",
      "type": "event"
    },
    {
      "anonymous": false,
      "inputs": [
        {
          "indexed": false,
          "internalType": "string",
          "name": "uri",
          "type": "string"
        }
      ],
      "name": "BaseTokenURIUpdated",
      "type": "event"
    },
    {
      "anonymous": false,
      "inputs": [
        {
          "indexed": true,
          "internalType": "address",
          "name": "to",
          "type": "address"
        },
        {
          "indexed": false,
          "internalType": "uint256",
          "name": "startTokenId",
          "type": "uint256"
        },
        {
          "indexed": false,
          "internalType": "uint256",
          "name": "quantity",
          "type": "uint256"
        },
        {
          "indexed": false,
          "internalType": "uint256",
          "name": "mintConditionIndex",
          "type": "uint256"
        }
      ],
      "name": "Claimed",
      "type": "event"
    },
    {
      "anonymous": false,
      "inputs": [
        {
          "indexed": false,
          "internalType": "uint256",
          "name": "feeBps",
          "type": "uint256"
        }
      ],
      "name": "FeeUpdated",
      "type": "event"
    },
    {
      "anonymous": false,
      "inputs": [
        {
          "indexed": true,
          "internalType": "address",
          "name": "to",
          "type": "address"
        },
        {
          "indexed": false,
          "internalType": "uint256",
          "name": "amount",
          "type": "uint256"
        }
      ],
      "name": "FundsWithdrawn",
      "type": "event"
    },
    {
      "anonymous": false,
      "inputs": [
        {
          "indexed": false,
          "internalType": "address",
          "name": "account",
          "type": "address"
        }
      ],
      "name": "Paused",
      "type": "event"
    },
    {
      "anonymous": false,
      "inputs": [
        {
          "components": [
            {
              "internalType": "uint256",
              "name": "startTimestamp",
              "type": "uint256"
            },
            {
              "internalType": "uint256",
              "name": "maxMintSupply",
              "type": "uint256"
            },
            {
              "internalType": "uint256",
              "name": "currentMintSupply",
              "type": "uint256"
            },
            {
              "internalType": "uint256",
              "name": "quantityLimitPerTransaction",
              "type": "uint256"
            },
            {
              "internalType": "uint256",
              "name": "waitTimeSecondsLimitPerTransaction",
              "type": "uint256"
            },
            {
              "internalType": "bytes32",
              "name": "merkleRoot",
              "type": "bytes32"
            },
            {
              "internalType": "uint256",
              "name": "pricePerToken",
              "type": "uint256"
            },
            {
              "internalType": "address",
              "name": "currency",
              "type": "address"
            }
          ],
          "indexed": false,
          "internalType": "struct LazyNFT.PublicMintCondition[]",
          "name": "mintConditions",
          "type": "tuple[]"
        }
      ],
      "name": "PublicMintConditionUpdated",
      "type": "event"
    },
    {
      "anonymous": false,
      "inputs": [
        {
          "indexed": false,
          "internalType": "bool",
          "name": "transferable",
          "type": "bool"
        }
      ],
      "name": "RestrictedTransferUpdated",
      "type": "event"
    },
    {
      "anonymous": false,
      "inputs": [
        {
          "indexed": true,
          "internalType": "bytes32",
          "name": "role",
          "type": "bytes32"
        },
        {
          "indexed": true,
          "internalType": "bytes32",
          "name": "previousAdminRole",
          "type": "bytes32"
        },
        {
          "indexed": true,
          "internalType": "bytes32",
          "name": "newAdminRole",
          "type": "bytes32"
        }
      ],
      "name": "RoleAdminChanged",
      "type": "event"
    },
    {
      "anonymous": false,
      "inputs": [
        {
          "indexed": true,
          "internalType": "bytes32",
          "name": "role",
          "type": "bytes32"
        },
        {
          "indexed": true,
          "internalType": "address",
          "name": "account",
          "type": "address"
        },
        {
          "indexed": true,
          "internalType": "address",
          "name": "sender",
          "type": "address"
        }
      ],
      "name": "RoleGranted",
      "type": "event"
    },
    {
      "anonymous": false,
      "inputs": [
        {
          "indexed": true,
          "internalType": "bytes32",
          "name": "role",
          "type": "bytes32"
        },
        {
          "indexed": true,
          "internalType": "address",
          "name": "account",
          "type": "address"
        },
        {
          "indexed": true,
          "internalType": "address",
          "name": "sender",
          "type": "address"
        }
      ],
      "name": "RoleRevoked",
      "type": "event"
    },
    {
      "anonymous": false,
      "inputs": [
        {
          "indexed": false,
          "internalType": "uint256",
          "name": "royaltyBps",
          "type": "uint256"
        }
      ],
      "name": "RoyaltyUpdated",
      "type": "event"
    },
    {
      "anonymous": false,
      "inputs": [
        {
          "indexed": false,
          "internalType": "uint256",
          "name": "supply",
          "type": "uint256"
        }
      ],
      "name": "TotalSupplyUpdated",
      "type": "event"
    },
    {
      "anonymous": false,
      "inputs": [
        {
          "indexed": true,
          "internalType": "address",
          "name": "from",
          "type": "address"
        },
        {
          "indexed": true,
          "internalType": "address",
          "name": "to",
          "type": "address"
        },
        {
          "indexed": true,
          "internalType": "uint256",
          "name": "tokenId",
          "type": "uint256"
        }
      ],
      "name": "Transfer",
      "type": "event"
    },
    {
      "anonymous": false,
      "inputs": [
        {
          "indexed": false,
          "internalType": "address",
          "name": "account",
          "type": "address"
        }
      ],
      "name": "Unpaused",
      "type": "event"
    },
    {
      "inputs": [],
      "name": "DEFAULT_ADMIN_ROLE",
      "outputs": [
        {
          "internalType": "bytes32",
          "name": "",
          "type": "bytes32"
        }
      ],
      "stateMutability": "view",
      "type": "function"
    },
    {
      "inputs": [],
      "name": "MINTER_ROLE",
      "outputs": [
        {
          "internalType": "bytes32",
          "name": "",
          "type": "bytes32"
        }
      ],
      "stateMutability": "view",
      "type": "function"
    },
    {
      "inputs": [],
      "name": "TRANSFER_ROLE",
      "outputs": [
        {
          "internalType": "bytes32",
          "name": "",
          "type": "bytes32"
        }
      ],
      "stateMutability": "view",
      "type": "function"
    },
    {
      "inputs": [
        {
          "internalType": "address",
          "name": "to",
          "type": "address"
        },
        {
          "internalType": "uint256",
          "name": "tokenId",
          "type": "uint256"
        }
      ],
      "name": "approve",
      "outputs": [],
      "stateMutability": "nonpayable",
      "type": "function"
    },
    {
      "inputs": [
        {
          "internalType": "address",
          "name": "owner",
          "type": "address"
        }
      ],
      "name": "balanceOf",
      "outputs": [
        {
          "internalType": "uint256",
          "name": "",
          "type": "uint256"
        }
      ],
      "stateMutability": "view",
      "type": "function"
    },
    {
      "inputs": [
        {
          "internalType": "uint256",
          "name": "tokenId",
          "type": "uint256"
        }
      ],
      "name": "burn",
      "outputs": [],
      "stateMutability": "nonpayable",
      "type": "function"
    },
    {
      "inputs": [
        {
          "internalType": "uint256",
          "name": "quantity",
          "type": "uint256"
        },
        {
          "internalType": "bytes32[]",
          "name": "proofs",
          "type": "bytes32[]"
        }
      ],
      "name": "claim",
      "outputs": [],
      "stateMutability": "payable",
      "type": "function"
    },
    {
      "inputs": [],
      "name": "contractURI",
      "outputs": [
        {
          "internalType": "string",
          "name": "",
          "type": "string"
        }
      ],
      "stateMutability": "view",
      "type": "function"
    },
    {
      "inputs": [],
      "name": "feeBps",
      "outputs": [
        {
          "internalType": "uint256",
          "name": "",
          "type": "uint256"
        }
      ],
      "stateMutability": "view",
      "type": "function"
    },
    {
      "inputs": [
        {
          "internalType": "uint256",
          "name": "tokenId",
          "type": "uint256"
        }
      ],
      "name": "getApproved",
      "outputs": [
        {
          "internalType": "address",
          "name": "",
          "type": "address"
        }
      ],
      "stateMutability": "view",
      "type": "function"
    },
    {
      "inputs": [],
      "name": "getLastStartedMintConditionIndex",
      "outputs": [
        {
          "internalType": "uint256",
          "name": "",
          "type": "uint256"
        }
      ],
      "stateMutability": "view",
      "type": "function"
    },
    {
      "inputs": [],
      "name": "getMintConditionCount",
      "outputs": [
        {
          "internalType": "uint256",
          "name": "",
          "type": "uint256"
        }
      ],
      "stateMutability": "view",
      "type": "function"
    },
    {
      "inputs": [
        {
          "internalType": "bytes32",
          "name": "role",
          "type": "bytes32"
        }
      ],
      "name": "getRoleAdmin",
      "outputs": [
        {
          "internalType": "bytes32",
          "name": "",
          "type": "bytes32"
        }
      ],
      "stateMutability": "view",
      "type": "function"
    },
    {
      "inputs": [
        {
          "internalType": "bytes32",
          "name": "role",
          "type": "bytes32"
        },
        {
          "internalType": "uint256",
          "name": "index",
          "type": "uint256"
        }
      ],
      "name": "getRoleMember",
      "outputs": [
        {
          "internalType": "address",
          "name": "",
          "type": "address"
        }
      ],
      "stateMutability": "view",
      "type": "function"
    },
    {
      "inputs": [
        {
          "internalType": "bytes32",
          "name": "role",
          "type": "bytes32"
        }
      ],
      "name": "getRoleMemberCount",
      "outputs": [
        {
          "internalType": "uint256",
          "name": "",
          "type": "uint256"
        }
      ],
      "stateMutability": "view",
      "type": "function"
    },
    {
      "inputs": [
        {
          "internalType": "bytes32",
          "name": "role",
          "type": "bytes32"
        },
        {
          "internalType": "address",
          "name": "account",
          "type": "address"
        }
      ],
      "name": "grantRole",
      "outputs": [],
      "stateMutability": "nonpayable",
      "type": "function"
    },
    {
      "inputs": [
        {
          "internalType": "bytes32",
          "name": "role",
          "type": "bytes32"
        },
        {
          "internalType": "address",
          "name": "account",
          "type": "address"
        }
      ],
      "name": "hasRole",
      "outputs": [
        {
          "internalType": "bool",
          "name": "",
          "type": "bool"
        }
      ],
      "stateMutability": "view",
      "type": "function"
    },
    {
      "inputs": [
        {
          "internalType": "address",
          "name": "owner",
          "type": "address"
        },
        {
          "internalType": "address",
          "name": "operator",
          "type": "address"
        }
      ],
      "name": "isApprovedForAll",
      "outputs": [
        {
          "internalType": "bool",
          "name": "",
          "type": "bool"
        }
      ],
      "stateMutability": "view",
      "type": "function"
    },
    {
      "inputs": [
        {
          "internalType": "address",
          "name": "forwarder",
          "type": "address"
        }
      ],
      "name": "isTrustedForwarder",
      "outputs": [
        {
          "internalType": "bool",
          "name": "",
          "type": "bool"
        }
      ],
      "stateMutability": "view",
      "type": "function"
    },
    {
      "inputs": [
        {
          "internalType": "uint256",
          "name": "amount",
          "type": "uint256"
        }
      ],
      "name": "lazyMintAmount",
      "outputs": [],
      "stateMutability": "nonpayable",
      "type": "function"
    },
    {
      "inputs": [
        {
          "internalType": "string[]",
          "name": "_uris",
          "type": "string[]"
        }
      ],
      "name": "lazyMintBatch",
      "outputs": [],
      "stateMutability": "nonpayable",
      "type": "function"
    },
    {
      "inputs": [],
      "name": "maxTotalSupply",
      "outputs": [
        {
          "internalType": "uint256",
          "name": "",
          "type": "uint256"
        }
      ],
      "stateMutability": "view",
      "type": "function"
    },
    {
      "inputs": [
        {
          "internalType": "uint256",
          "name": "",
          "type": "uint256"
        }
      ],
      "name": "mintConditions",
      "outputs": [
        {
          "internalType": "uint256",
          "name": "startTimestamp",
          "type": "uint256"
        },
        {
          "internalType": "uint256",
          "name": "maxMintSupply",
          "type": "uint256"
        },
        {
          "internalType": "uint256",
          "name": "currentMintSupply",
          "type": "uint256"
        },
        {
          "internalType": "uint256",
          "name": "quantityLimitPerTransaction",
          "type": "uint256"
        },
        {
          "internalType": "uint256",
          "name": "waitTimeSecondsLimitPerTransaction",
          "type": "uint256"
        },
        {
          "internalType": "bytes32",
          "name": "merkleRoot",
          "type": "bytes32"
        },
        {
          "internalType": "uint256",
          "name": "pricePerToken",
          "type": "uint256"
        },
        {
          "internalType": "address",
          "name": "currency",
          "type": "address"
        }
      ],
      "stateMutability": "view",
      "type": "function"
    },
    {
      "inputs": [
        {
          "internalType": "bytes[]",
          "name": "data",
          "type": "bytes[]"
        }
      ],
      "name": "multicall",
      "outputs": [
        {
          "internalType": "bytes[]",
          "name": "results",
          "type": "bytes[]"
        }
      ],
      "stateMutability": "nonpayable",
      "type": "function"
    },
    {
      "inputs": [],
      "name": "name",
      "outputs": [
        {
          "internalType": "string",
          "name": "",
          "type": "string"
        }
      ],
      "stateMutability": "view",
      "type": "function"
    },
    {
      "inputs": [
        {
          "internalType": "address",
          "name": "",
          "type": "address"
        },
        {
          "internalType": "uint256",
          "name": "",
          "type": "uint256"
        }
      ],
      "name": "nextMintTimestampByCondition",
      "outputs": [
        {
          "internalType": "uint256",
          "name": "",
          "type": "uint256"
        }
      ],
      "stateMutability": "view",
      "type": "function"
    },
    {
      "inputs": [],
      "name": "nextMintTokenId",
      "outputs": [
        {
          "internalType": "uint256",
          "name": "",
          "type": "uint256"
        }
      ],
      "stateMutability": "view",
      "type": "function"
    },
    {
      "inputs": [],
      "name": "nextTokenId",
      "outputs": [
        {
          "internalType": "uint256",
          "name": "",
          "type": "uint256"
        }
      ],
      "stateMutability": "view",
      "type": "function"
    },
    {
      "inputs": [
        {
          "internalType": "uint256",
          "name": "tokenId",
          "type": "uint256"
        }
      ],
      "name": "ownerOf",
      "outputs": [
        {
          "internalType": "address",
          "name": "",
          "type": "address"
        }
      ],
      "stateMutability": "view",
      "type": "function"
    },
    {
      "inputs": [],
      "name": "paused",
      "outputs": [
        {
          "internalType": "bool",
          "name": "",
          "type": "bool"
        }
      ],
      "stateMutability": "view",
      "type": "function"
    },
    {
      "inputs": [
        {
          "internalType": "bytes32",
          "name": "role",
          "type": "bytes32"
        },
        {
          "internalType": "address",
          "name": "account",
          "type": "address"
        }
      ],
      "name": "renounceRole",
      "outputs": [],
      "stateMutability": "nonpayable",
      "type": "function"
    },
    {
      "inputs": [
        {
          "internalType": "bytes32",
          "name": "role",
          "type": "bytes32"
        },
        {
          "internalType": "address",
          "name": "account",
          "type": "address"
        }
      ],
      "name": "revokeRole",
      "outputs": [],
      "stateMutability": "nonpayable",
      "type": "function"
    },
    {
      "inputs": [],
      "name": "royaltyBps",
      "outputs": [
        {
          "internalType": "uint256",
          "name": "",
          "type": "uint256"
        }
      ],
      "stateMutability": "view",
      "type": "function"
    },
    {
      "inputs": [
        {
          "internalType": "uint256",
          "name": "",
          "type": "uint256"
        },
        {
          "internalType": "uint256",
          "name": "salePrice",
          "type": "uint256"
        }
      ],
      "name": "royaltyInfo",
      "outputs": [
        {
          "internalType": "address",
          "name": "receiver",
          "type": "address"
        },
        {
          "internalType": "uint256",
          "name": "royaltyAmount",
          "type": "uint256"
        }
      ],
      "stateMutability": "view",
      "type": "function"
    },
    {
      "inputs": [
        {
          "internalType": "address",
          "name": "from",
          "type": "address"
        },
        {
          "internalType": "address",
          "name": "to",
          "type": "address"
        },
        {
          "internalType": "uint256",
          "name": "tokenId",
          "type": "uint256"
        }
      ],
      "name": "safeTransferFrom",
      "outputs": [],
      "stateMutability": "nonpayable",
      "type": "function"
    },
    {
      "inputs": [
        {
          "internalType": "address",
          "name": "from",
          "type": "address"
        },
        {
          "internalType": "address",
          "name": "to",
          "type": "address"
        },
        {
          "internalType": "uint256",
          "name": "tokenId",
          "type": "uint256"
        },
        {
          "internalType": "bytes",
          "name": "_data",
          "type": "bytes"
        }
      ],
      "name": "safeTransferFrom",
      "outputs": [],
      "stateMutability": "nonpayable",
      "type": "function"
    },
    {
      "inputs": [],
      "name": "saleRecipient",
      "outputs": [
        {
          "internalType": "address",
          "name": "",
          "type": "address"
        }
      ],
      "stateMutability": "view",
      "type": "function"
    },
    {
      "inputs": [
        {
          "internalType": "address",
          "name": "operator",
          "type": "address"
        },
        {
          "internalType": "bool",
          "name": "approved",
          "type": "bool"
        }
      ],
      "name": "setApprovalForAll",
      "outputs": [],
      "stateMutability": "nonpayable",
      "type": "function"
    },
    {
      "inputs": [
        {
          "internalType": "string",
          "name": "_uri",
          "type": "string"
        }
      ],
      "name": "setBaseTokenURI",
      "outputs": [],
      "stateMutability": "nonpayable",
      "type": "function"
    },
    {
      "inputs": [
        {
          "internalType": "string",
          "name": "_URI",
          "type": "string"
        }
      ],
      "name": "setContractURI",
      "outputs": [],
      "stateMutability": "nonpayable",
      "type": "function"
    },
    {
      "inputs": [
        {
          "internalType": "uint256",
          "name": "_feeBps",
          "type": "uint256"
        }
      ],
      "name": "setFeeBps",
      "outputs": [],
      "stateMutability": "nonpayable",
      "type": "function"
    },
    {
      "inputs": [
        {
          "internalType": "uint256",
          "name": "maxSupply",
          "type": "uint256"
        }
      ],
      "name": "setMaxTotalSupply",
      "outputs": [],
      "stateMutability": "nonpayable",
      "type": "function"
    },
    {
      "inputs": [
        {
          "components": [
            {
              "internalType": "uint256",
              "name": "startTimestamp",
              "type": "uint256"
            },
            {
              "internalType": "uint256",
              "name": "maxMintSupply",
              "type": "uint256"
            },
            {
              "internalType": "uint256",
              "name": "currentMintSupply",
              "type": "uint256"
            },
            {
              "internalType": "uint256",
              "name": "quantityLimitPerTransaction",
              "type": "uint256"
            },
            {
              "internalType": "uint256",
              "name": "waitTimeSecondsLimitPerTransaction",
              "type": "uint256"
            },
            {
              "internalType": "bytes32",
              "name": "merkleRoot",
              "type": "bytes32"
            },
            {
              "internalType": "uint256",
              "name": "pricePerToken",
              "type": "uint256"
            },
            {
              "internalType": "address",
              "name": "currency",
              "type": "address"
            }
          ],
          "internalType": "struct LazyNFT.PublicMintCondition[]",
          "name": "conditions",
          "type": "tuple[]"
        }
      ],
      "name": "setPublicMintConditions",
      "outputs": [],
      "stateMutability": "nonpayable",
      "type": "function"
    },
    {
      "inputs": [
        {
          "internalType": "bool",
          "name": "_restrictedTransfer",
          "type": "bool"
        }
      ],
      "name": "setRestrictedTransfer",
      "outputs": [],
      "stateMutability": "nonpayable",
      "type": "function"
    },
    {
      "inputs": [
        {
          "internalType": "uint256",
          "name": "_royaltyBps",
          "type": "uint256"
        }
      ],
      "name": "setRoyaltyBps",
      "outputs": [],
      "stateMutability": "nonpayable",
      "type": "function"
    },
    {
      "inputs": [
        {
          "internalType": "address",
          "name": "_saleRecipient",
          "type": "address"
        }
      ],
      "name": "setSaleRecipient",
      "outputs": [],
      "stateMutability": "nonpayable",
      "type": "function"
    },
    {
      "inputs": [
        {
          "internalType": "bytes4",
          "name": "interfaceId",
          "type": "bytes4"
        }
      ],
      "name": "supportsInterface",
      "outputs": [
        {
          "internalType": "bool",
          "name": "",
          "type": "bool"
        }
      ],
      "stateMutability": "view",
      "type": "function"
    },
    {
      "inputs": [],
      "name": "symbol",
      "outputs": [
        {
          "internalType": "string",
          "name": "",
          "type": "string"
        }
      ],
      "stateMutability": "view",
      "type": "function"
    },
    {
      "inputs": [
        {
          "internalType": "uint256",
          "name": "index",
          "type": "uint256"
        }
      ],
      "name": "tokenByIndex",
      "outputs": [
        {
          "internalType": "uint256",
          "name": "",
          "type": "uint256"
        }
      ],
      "stateMutability": "view",
      "type": "function"
    },
    {
      "inputs": [
        {
          "internalType": "address",
          "name": "owner",
          "type": "address"
        },
        {
          "internalType": "uint256",
          "name": "index",
          "type": "uint256"
        }
      ],
      "name": "tokenOfOwnerByIndex",
      "outputs": [
        {
          "internalType": "uint256",
          "name": "",
          "type": "uint256"
        }
      ],
      "stateMutability": "view",
      "type": "function"
    },
    {
      "inputs": [
        {
          "internalType": "uint256",
          "name": "tokenId",
          "type": "uint256"
        }
      ],
      "name": "tokenURI",
      "outputs": [
        {
          "internalType": "string",
          "name": "",
          "type": "string"
        }
      ],
      "stateMutability": "view",
      "type": "function"
    },
    {
      "inputs": [],
      "name": "totalSupply",
      "outputs": [
        {
          "internalType": "uint256",
          "name": "",
          "type": "uint256"
        }
      ],
      "stateMutability": "view",
      "type": "function"
    },
    {
      "inputs": [
        {
          "internalType": "address",
          "name": "from",
          "type": "address"
        },
        {
          "internalType": "address",
          "name": "to",
          "type": "address"
        },
        {
          "internalType": "uint256",
          "name": "tokenId",
          "type": "uint256"
        }
      ],
      "name": "transferFrom",
      "outputs": [],
      "stateMutability": "nonpayable",
      "type": "function"
    },
    {
      "inputs": [],
      "name": "transfersRestricted",
      "outputs": [
        {
          "internalType": "bool",
          "name": "",
          "type": "bool"
        }
      ],
      "stateMutability": "view",
      "type": "function"
    }
  ],
  "bytecode": "0x60806040523480156200001157600080fd5b5060405162005462380380620054628339810160408190526200003491620006b3565b86898981600290805190602001906200004f92919062000523565b5080516200006590600390602084019062000523565b5050600c80546001600160a81b0319166101006001600160a01b039485168102919091179091556001600d5560168054610100600160a81b031916938e1690910292909217909155508551620000c390601890602089019062000523565b508451620000d990601990602088019062000523565b50600e849055601780546001600160a01b0319166001600160a01b0383161790556200011060006200010a62000194565b620001b0565b6200013f7f9f2df0fed2c77648de5860a4cc508cd0818c85b8b8a1ab4ceeef8d981c8956a66200010a62000194565b6200016e7f8502233096d909befbda0999bb8ea2f3a6be3c138b9fbf003752a4c8bce86f6c6200010a62000194565b6200017982620001f3565b6200018483620002f1565b5050505050505050505062000801565b6000620001ab620003bc60201b6200289a1760201c565b905090565b620001c78282620003fb60201b620028cc1760201c565b6000828152600160209081526040909120620001ee918390620028da6200040b821b17901c565b505050565b6200022c60006200020362000194565b6000918252602082815260408084206001600160a01b0393909316845291905290205460ff1690565b620002725760405162461bcd60e51b815260206004820152601160248201527037b7363c9036b7b23ab6329030b236b4b760791b60448201526064015b60405180910390fd5b612710811115620002b55760405162461bcd60e51b815260206004820152600c60248201526b0627073203c3d2031303030360a41b604482015260640162000269565b60158190556040518181527f8c4d35e54a3f2ef1134138fd8ea3daee6a3c89e10d2665996babdf70261e2c76906020015b60405180910390a150565b6200030160006200020362000194565b620003435760405162461bcd60e51b815260206004820152601160248201527037b7363c9036b7b23ab6329030b236b4b760791b604482015260640162000269565b612710811115620003865760405162461bcd60e51b815260206004820152600c60248201526b0627073203c3d2031303030360a41b604482015260640162000269565b60148190556040518181527f244ea8d7627f5a08f4299862bd5a45752842c183aee5b0fb0d1e4887bfa605b390602001620002e6565b600c546000906001600160a01b0361010090910416331415620003e6575060131936013560601c90565b620001ab6200042b60201b620028ef1760201c565b6200040782826200042f565b5050565b600062000422836001600160a01b038416620004d1565b90505b92915050565b3390565b6000828152602081815260408083206001600160a01b038516845290915290205460ff1662000407576000828152602081815260408083206001600160a01b03851684529091529020805460ff191660011790556200048d62000194565b6001600160a01b0316816001600160a01b0316837f2f8788117e7eff1d82e926ec794901d17c78024a50270940304540a733656f0d60405160405180910390a45050565b60008181526001830160205260408120546200051a5750815460018181018455600084815260208082209093018490558454848252828601909352604090209190915562000425565b50600062000425565b8280546200053190620007c4565b90600052602060002090601f016020900481019282620005555760008555620005a0565b82601f106200057057805160ff1916838001178555620005a0565b82800160010185558215620005a0579182015b82811115620005a057825182559160200191906001019062000583565b50620005ae929150620005b2565b5090565b5b80821115620005ae5760008155600101620005b3565b80516001600160a01b0381168114620005e157600080fd5b919050565b634e487b7160e01b600052604160045260246000fd5b600082601f8301126200060e57600080fd5b81516001600160401b03808211156200062b576200062b620005e6565b604051601f8301601f19908116603f01168101908282118183101715620006565762000656620005e6565b816040528381526020925086838588010111156200067357600080fd5b600091505b8382101562000697578582018301518183018401529082019062000678565b83821115620006a95760008385830101525b9695505050505050565b6000806000806000806000806000806101408b8d031215620006d457600080fd5b620006df8b620005c9565b60208c0151909a506001600160401b0380821115620006fd57600080fd5b6200070b8e838f01620005fc565b9a5060408d01519150808211156200072257600080fd5b620007308e838f01620005fc565b99506200074060608e01620005c9565b985060808d01519150808211156200075757600080fd5b620007658e838f01620005fc565b975060a08d01519150808211156200077c57600080fd5b506200078b8d828e01620005fc565b95505060c08b0151935060e08b015192506101008b01519150620007b36101208c01620005c9565b90509295989b9194979a5092959850565b600181811c90821680620007d957607f821691505b60208210811415620007fb57634e487b7160e01b600052602260045260246000fd5b50919050565b614c5180620008116000396000f3fe6080604052600436106103555760003560e01c80635b019b76116101bb578063a217fddf116100f7578063ca15c87311610095578063e88fbd411161006f578063e88fbd4114610a0f578063e8a3d48514610a25578063e985e9c514610a3a578063fd59855014610a8357600080fd5b8063ca15c8731461099b578063d5391393146109bb578063d547741f146109ef57600080fd5b8063b7cdd0bc116100d1578063b7cdd0bc14610925578063b88d4fde14610945578063c63adb2b14610965578063c87b56dd1461097b57600080fd5b8063a217fddf146108c3578063a22cb465146108d8578063ac9650d8146108f857600080fd5b806375794a3c116101645780639010d07c1161013e5780639010d07c1461082a57806391d148541461084a578063938e3d7b1461088e57806395d89b41146108ae57600080fd5b806375794a3c146107da5780638423df79146107f05780638ba448c21461080a57600080fd5b80636352211e116101955780636352211e1461077a57806370a082311461079a57806372c27b62146107ba57600080fd5b80635b019b761461072d5780635c975abb1461074d5780635da53d581461076557600080fd5b80632a55205a116102955780633f3e4c111161023357806342966c681161020d57806342966c68146106995780634ce40a32146106b95780634f6ccce7146106d9578063572b6c05146106f957600080fd5b80633f3e4c1114610639578063428131081461065957806342842e0e1461067957600080fd5b80632f52ebb71161026f5780632f52ebb7146105c65780632f745c59146105d957806330176e13146105f957806336568abe1461061957600080fd5b80632a55205a146105515780632ab4d052146105905780632f2ff15d146105a657600080fd5b80631df952db11610302578063206b60f9116102dc578063206b60f9146104b757806323b872dd146104eb578063248a9ca31461050b57806324a9d8531461053b57600080fd5b80631df952db1461044a5780631edab0811461045f5780631f72d8311461049757600080fd5b8063095ea7b311610333578063095ea7b3146103e957806318160ddd1461040b5780631c908d981461042a57600080fd5b806301ffc9a71461035a57806306fdde031461038f578063081812fc146103b1575b600080fd5b34801561036657600080fd5b5061037a610375366004614340565b610ae7565b60405190151581526020015b60405180910390f35b34801561039b57600080fd5b506103a4610b13565b60405161038691906143b5565b3480156103bd57600080fd5b506103d16103cc3660046143c8565b610ba5565b6040516001600160a01b039091168152602001610386565b3480156103f557600080fd5b506104096104043660046143f6565b610c3f565b005b34801561041757600080fd5b50600a545b604051908152602001610386565b34801561043657600080fd5b50610409610445366004614422565b610d67565b34801561045657600080fd5b5060115461041c565b34801561046b57600080fd5b5061041c61047a3660046143f6565b601260209081526000928352604080842090915290825290205481565b3480156104a357600080fd5b506104096104b23660046143c8565b610dd6565b3480156104c357600080fd5b5061041c7f8502233096d909befbda0999bb8ea2f3a6be3c138b9fbf003752a4c8bce86f6c81565b3480156104f757600080fd5b5061040961050636600461443f565b610ea0565b34801561051757600080fd5b5061041c6105263660046143c8565b60009081526020819052604090206001015490565b34801561054757600080fd5b5061041c60155481565b34801561055d57600080fd5b5061057161056c366004614480565b610f2e565b604080516001600160a01b039093168352602083019190915201610386565b34801561059c57600080fd5b5061041c600e5481565b3480156105b257600080fd5b506104096105c13660046144a2565b610fd8565b6104096105d436600461451e565b610ffa565b3480156105e557600080fd5b5061041c6105f43660046143f6565b6115c2565b34801561060557600080fd5b5061040961061436600461456a565b61166a565b34801561062557600080fd5b506104096106343660046144a2565b611701565b34801561064557600080fd5b506104096106543660046143c8565b611723565b34801561066557600080fd5b506104096106743660046145dc565b6117a5565b34801561068557600080fd5b5061040961069436600461443f565b611bf9565b3480156106a557600080fd5b506104096106b43660046143c8565b611c14565b3480156106c557600080fd5b506104096106d436600461463f565b611c9d565b3480156106e557600080fd5b5061041c6106f43660046143c8565b611dd5565b34801561070557600080fd5b5061037a610714366004614422565b600c5461010090046001600160a01b0390811691161490565b34801561073957600080fd5b506017546103d1906001600160a01b031681565b34801561075957600080fd5b50600c5460ff1661037a565b34801561077157600080fd5b5061041c611e79565b34801561078657600080fd5b506103d16107953660046143c8565b611f76565b3480156107a657600080fd5b5061041c6107b5366004614422565b612001565b3480156107c657600080fd5b506104096107d53660046143c8565b61209b565b3480156107e657600080fd5b5061041c600f5481565b3480156107fc57600080fd5b5060165461037a9060ff1681565b34801561081657600080fd5b5061040961082536600461468f565b61215e565b34801561083657600080fd5b506103d1610845366004614480565b6121ec565b34801561085657600080fd5b5061037a6108653660046144a2565b6000918252602082815260408084206001600160a01b0393909316845291905290205460ff1690565b34801561089a57600080fd5b506104096108a936600461456a565b61220b565b3480156108ba57600080fd5b506103a4612371565b3480156108cf57600080fd5b5061041c600081565b3480156108e457600080fd5b506104096108f33660046146ac565b612380565b34801561090457600080fd5b5061091861091336600461463f565b612482565b60405161038691906146da565b34801561093157600080fd5b506104096109403660046143c8565b612577565b34801561095157600080fd5b50610409610960366004614752565b612656565b34801561097157600080fd5b5061041c60145481565b34801561098757600080fd5b506103a46109963660046143c8565b6126eb565b3480156109a757600080fd5b5061041c6109b63660046143c8565b61280b565b3480156109c757600080fd5b5061041c7f9f2df0fed2c77648de5860a4cc508cd0818c85b8b8a1ab4ceeef8d981c8956a681565b3480156109fb57600080fd5b50610409610a0a3660046144a2565b612822565b348015610a1b57600080fd5b5061041c60105481565b348015610a3157600080fd5b506103a461282c565b348015610a4657600080fd5b5061037a610a55366004614832565b6001600160a01b03918216600090815260076020908152604080832093909416825291909152205460ff1690565b348015610a8f57600080fd5b50610aa3610a9e3660046143c8565b61283b565b604080519889526020890197909752958701949094526060860192909252608085015260a084015260c08301526001600160a01b031660e082015261010001610386565b6000610af2826128f3565b80610b0d57506001600160e01b0319821663152a902d60e11b145b92915050565b606060028054610b2290614860565b80601f0160208091040260200160405190810160405280929190818152602001828054610b4e90614860565b8015610b9b5780601f10610b7057610100808354040283529160200191610b9b565b820191906000526020600020905b815481529060010190602001808311610b7e57829003601f168201915b5050505050905090565b6000818152600460205260408120546001600160a01b0316610c235760405162461bcd60e51b815260206004820152602c60248201527f4552433732313a20617070726f76656420717565727920666f72206e6f6e657860448201526b34b9ba32b73a103a37b5b2b760a11b60648201526084015b60405180910390fd5b506000908152600660205260409020546001600160a01b031690565b6000610c4a82611f76565b9050806001600160a01b0316836001600160a01b03161415610cb85760405162461bcd60e51b815260206004820152602160248201527f4552433732313a20617070726f76616c20746f2063757272656e74206f776e656044820152603960f91b6064820152608401610c1a565b806001600160a01b0316610cca612918565b6001600160a01b03161480610ce65750610ce681610a55612918565b610d585760405162461bcd60e51b815260206004820152603860248201527f4552433732313a20617070726f76652063616c6c6572206973206e6f74206f7760448201527f6e6572206e6f7220617070726f76656420666f7220616c6c00000000000000006064820152608401610c1a565b610d628383612922565b505050565b610d746000610865612918565b610db45760405162461bcd60e51b815260206004820152601160248201527037b7363c9036b7b23ab6329030b236b4b760791b6044820152606401610c1a565b601780546001600160a01b0319166001600160a01b0392909216919091179055565b610de36000610865612918565b610e235760405162461bcd60e51b815260206004820152601160248201527037b7363c9036b7b23ab6329030b236b4b760791b6044820152606401610c1a565b612710811115610e645760405162461bcd60e51b815260206004820152600c60248201526b0627073203c3d2031303030360a41b6044820152606401610c1a565b60148190556040518181527f244ea8d7627f5a08f4299862bd5a45752842c183aee5b0fb0d1e4887bfa605b3906020015b60405180910390a150565b610eb1610eab612918565b82612990565b610f235760405162461bcd60e51b815260206004820152603160248201527f4552433732313a207472616e736665722063616c6c6572206973206e6f74206f60448201527f776e6572206e6f7220617070726f7665640000000000000000000000000000006064820152608401610c1a565b610d62838383612a87565b60165460405163f2aab4b360e01b815230600482015260009182916101009091046001600160a01b03169063f2aab4b39060240160206040518083038186803b158015610f7a57600080fd5b505afa158015610f8e573d6000803e3d6000fd5b505050506040513d601f19601f82011682018060405250810190610fb2919061489b565b915061271060145484610fc591906148ce565b610fcf9190614903565b90509250929050565b610fe28282612c46565b6000828152600160205260409020610d6290826128da565b6002600d54141561104d5760405162461bcd60e51b815260206004820152601f60248201527f5265656e7472616e637947756172643a207265656e7472616e742063616c6c006044820152606401610c1a565b6002600d55600061105c611e79565b905060006011828154811061107357611073614917565b600091825260209182902060408051610100810182526008909302909101805483526001810154938301939093526002830154908201526003820154606082015260048201546080820152600582015460a0820152600682015460c08201526007909101546001600160a01b031660e08201529050846111355760405162461bcd60e51b815260206004820152600d60248201527f6e656564207175616e74697479000000000000000000000000000000000000006044820152606401610c1a565b600e5485601054611146919061492d565b11156111945760405162461bcd60e51b815260206004820152601760248201527f657863656564206d617820737570706c79206c696d69740000000000000000006044820152606401610c1a565b600f54856010546111a5919061492d565b11156111f35760405162461bcd60e51b815260206004820152601b60248201527f63616e6e6f7420636c61696d20756e6d696e74656420746f6b656e00000000006044820152606401610c1a565b80606001518511156112475760405162461bcd60e51b815260206004820152600f60248201527f657863656564207478206c696d697400000000000000000000000000000000006044820152606401610c1a565b806020015185826040015161125c919061492d565b11156112aa5760405162461bcd60e51b815260206004820152601660248201527f657863656564206d6178206d696e7420737570706c79000000000000000000006044820152606401610c1a565b6000601354836112ba919061492d565b90506000601260006112ca612918565b6001600160a01b031681526020808201929092526040908101600090812085825290925290205490508015806113005750804210155b61134c5760405162461bcd60e51b815260206004820152600f60248201527f63616e6e6f74206d696e742079657400000000000000000000000000000000006044820152606401610c1a565b60a08301511561142f576000611360612918565b604051602001611388919060609190911b6bffffffffffffffffffffffff1916815260140190565b6040516020818303038152906040528051906020012090506113e187878080602002602001604051908101604052809392919081815260200183836020028082843760009201919091525050505060a086015183612c73565b61142d5760405162461bcd60e51b815260206004820152600e60248201527f696e76616c69642070726f6f66730000000000000000000000000000000000006044820152606401610c1a565b505b866011858154811061144357611443614917565b90600052602060002090600802016002016000828254611463919061492d565b909155505060808301514281019081101561147d57506000195b806012600061148a612918565b6001600160a01b031681526020808201929092526040908101600090812087825290925290205560c08401511561150f5760008460c00151896114cd91906148ce565b90506000612710601554836114e291906148ce565b6114ec9190614903565b905060006114fa8284614945565b905061150b8760e001518284612d22565b5050505b60105460005b8981101561155b57611530611528612918565b601054613014565b600160106000828254611543919061492d565b909155508190506115538161495c565b915050611515565b50611564612918565b60408051838152602081018c90529081018890526001600160a01b0391909116907f9cdcf2f7714cca3508c7f0110b04a90a80a3a8dd0e35de99689db74d28c5383e9060600160405180910390a250506001600d5550505050505050565b60006115cd83612001565b82106116415760405162461bcd60e51b815260206004820152602b60248201527f455243373231456e756d657261626c653a206f776e657220696e646578206f7560448201527f74206f6620626f756e64730000000000000000000000000000000000000000006064820152608401610c1a565b506001600160a01b03919091166000908152600860209081526040808320938352929052205490565b6116776000610865612918565b6116b75760405162461bcd60e51b815260206004820152601160248201527037b7363c9036b7b23ab6329030b236b4b760791b6044820152606401610c1a565b6116c360198383614220565b507fe6e4cd5c2dc7d2c20519b41832cd550fd3ea1186bf299d108179bf71fb8e00e582826040516116f5929190614977565b60405180910390a15050565b61170b828261302e565b6000828152600160205260409020610d6290826130c6565b6117306000610865612918565b6117705760405162461bcd60e51b815260206004820152601160248201527037b7363c9036b7b23ab6329030b236b4b760791b6044820152606401610c1a565b600e8190556040518181527ff8cbdbee6d402ad22cddbc250098e39cd0d24f0fad122f64794577167c605df990602001610e95565b6117b26000610865612918565b6117f25760405162461bcd60e51b815260206004820152601160248201527037b7363c9036b7b23ab6329030b236b4b760791b6044820152606401610c1a565b8061183f5760405162461bcd60e51b815260206004820152601a60248201527f6e656564732061206c697374206f6620636f6e646974696f6e730000000000006044820152606401610c1a565b6011541561186e576011546013805460009061185c90849061492d565b9091555061186e9050601160006142a4565b6000805b82811015611bbb5781156119115783838281811061189257611892614917565b905061010002016000013582106119115760405162461bcd60e51b815260206004820152602960248201527f737461727454696d657374616d70206d75737420626520696e20617363656e6460448201527f696e67206f7264657200000000000000000000000000000000000000000000006064820152608401610c1a565b600084848381811061192557611925614917565b90506101000201602001351161197d5760405162461bcd60e51b815260206004820152601b60248201527f6d6178206d696e7420737570706c792063616e6e6f74206265203000000000006044820152606401610c1a565b600084848381811061199157611991614917565b9050610100020160600135116119e95760405162461bcd60e51b815260206004820152601a60248201527f7175616e74697479206c696d69742063616e6e6f7420626520300000000000006044820152606401610c1a565b6011604051806101000160405280868685818110611a0957611a09614917565b611a1d92610100909102013590504261492d565b8152602001868685818110611a3457611a34614917565b9050610100020160200135815260200160008152602001868685818110611a5d57611a5d614917565b90506101000201606001358152602001868685818110611a7f57611a7f614917565b90506101000201608001358152602001868685818110611aa157611aa1614917565b9050610100020160a001358152602001868685818110611ac357611ac3614917565b9050610100020160c001358152602001868685818110611ae557611ae5614917565b9050610100020160e0016020810190611afe9190614422565b6001600160a01b0390811690915282546001808201855560009485526020948590208451600890930201918255938301519381019390935560408201516002840155606082015160038401556080820151600484015560a0820151600584015560c0820151600684015560e090910151600790920180546001600160a01b03191692909116919091179055838382818110611b9b57611b9b614917565b905061010002016000013591508080611bb39061495c565b915050611872565b507f0d81786d9719fff6cc2cf3c64025550dbba243da255d6c5fa0879e8ad6af83cc6011604051611bec91906149a6565b60405180910390a1505050565b610d6283838360405180602001604052806000815250612656565b611c1f610eab612918565b611c915760405162461bcd60e51b815260206004820152603060248201527f4552433732314275726e61626c653a2063616c6c6572206973206e6f74206f7760448201527f6e6572206e6f7220617070726f766564000000000000000000000000000000006064820152608401610c1a565b611c9a816130db565b50565b611cc97f9f2df0fed2c77648de5860a4cc508cd0818c85b8b8a1ab4ceeef8d981c8956a6610865612918565b611d035760405162461bcd60e51b815260206004820152600b60248201526a37b7363c9036b4b73a32b960a91b6044820152606401610c1a565b600e54600f54611d1490839061492d565b1115611d625760405162461bcd60e51b815260206004820152601560248201527f657863656564206d6178546f74616c537570706c7900000000000000000000006044820152606401610c1a565b600f5460005b82811015611dcd57838382818110611d8257611d82614917565b9050602002810190611d949190614a44565b6000848152601a60205260409020611dad929091614220565b50611db960018361492d565b915080611dc58161495c565b915050611d68565b50600f555050565b6000611de0600a5490565b8210611e545760405162461bcd60e51b815260206004820152602c60248201527f455243373231456e756d657261626c653a20676c6f62616c20696e646578206f60448201527f7574206f6620626f756e647300000000000000000000000000000000000000006064820152608401610c1a565b600a8281548110611e6757611e67614917565b90600052602060002001549050919050565b601154600090611ecb5760405162461bcd60e51b815260206004820152601860248201527f6e6f207075626c6963206d696e7420636f6e646974696f6e00000000000000006044820152606401610c1a565b6011545b8015611f2d576011611ee2600183614945565b81548110611ef257611ef2614917565b9060005260206000209060080201600001544210611f1b57611f15600182614945565b91505090565b80611f2581614a8b565b915050611ecf565b5060405162461bcd60e51b815260206004820152601860248201527f6e6f20616374697665206d696e7420636f6e646974696f6e00000000000000006044820152606401610c1a565b6000818152600460205260408120546001600160a01b031680610b0d5760405162461bcd60e51b815260206004820152602960248201527f4552433732313a206f776e657220717565727920666f72206e6f6e657869737460448201527f656e7420746f6b656e00000000000000000000000000000000000000000000006064820152608401610c1a565b60006001600160a01b03821661207f5760405162461bcd60e51b815260206004820152602a60248201527f4552433732313a2062616c616e636520717565727920666f7220746865207a6560448201527f726f2061646472657373000000000000000000000000000000000000000000006064820152608401610c1a565b506001600160a01b031660009081526005602052604090205490565b6120a86000610865612918565b6120e85760405162461bcd60e51b815260206004820152601160248201527037b7363c9036b7b23ab6329030b236b4b760791b6044820152606401610c1a565b6127108111156121295760405162461bcd60e51b815260206004820152600c60248201526b0627073203c3d2031303030360a41b6044820152606401610c1a565b60158190556040518181527f8c4d35e54a3f2ef1134138fd8ea3daee6a3c89e10d2665996babdf70261e2c7690602001610e95565b61216b6000610865612918565b6121ab5760405162461bcd60e51b815260206004820152601160248201527037b7363c9036b7b23ab6329030b236b4b760791b6044820152606401610c1a565b6016805460ff19168215159081179091556040519081527ffb4ba02cee22486df888d7ffb97c6100ec3193781e025cb9a4bc6fc358d626cc90602001610e95565b60008281526001602052604081206122049083613182565b9392505050565b6016546040805163a217fddf60e01b815290516101009092046001600160a01b0316916391d1485491839163a217fddf91600480820192602092909190829003018186803b15801561225c57600080fd5b505afa158015612270573d6000803e3d6000fd5b505050506040513d601f19601f820116820180604052508101906122949190614aa2565b61229c612918565b6040516001600160e01b031960e085901b16815260048101929092526001600160a01b0316602482015260440160206040518083038186803b1580156122e157600080fd5b505afa1580156122f5573d6000803e3d6000fd5b505050506040513d601f19601f820116820180604052508101906123199190614abb565b6123655760405162461bcd60e51b815260206004820152601260248201527f6e6f742070726f746f636f6c2061646d696e00000000000000000000000000006044820152606401610c1a565b610d6260188383614220565b606060038054610b2290614860565b612388612918565b6001600160a01b0316826001600160a01b031614156123e95760405162461bcd60e51b815260206004820152601960248201527f4552433732313a20617070726f766520746f2063616c6c6572000000000000006044820152606401610c1a565b80600760006123f6612918565b6001600160a01b03908116825260208083019390935260409182016000908120918716808252919093529120805460ff19169215159290921790915561243a612918565b6001600160a01b03167f17307eab39ab6107e8899845ad3d59bd9653f200f220920489ca2b5937696c3183604051612476911515815260200190565b60405180910390a35050565b60608167ffffffffffffffff81111561249d5761249d61473c565b6040519080825280602002602001820160405280156124d057816020015b60608152602001906001900390816124bb5790505b50905060005b8281101561257057612540308585848181106124f4576124f4614917565b90506020028101906125069190614a44565b8080601f01602080910402602001604051908101604052809392919081815260200183838082843760009201919091525061318e92505050565b82828151811061255257612552614917565b602002602001018190525080806125689061495c565b9150506124d6565b5092915050565b6125a37f9f2df0fed2c77648de5860a4cc508cd0818c85b8b8a1ab4ceeef8d981c8956a6610865612918565b6125dd5760405162461bcd60e51b815260206004820152600b60248201526a37b7363c9036b4b73a32b960a91b6044820152606401610c1a565b600e5481600f546125ee919061492d565b111561263c5760405162461bcd60e51b815260206004820152601560248201527f657863656564206d6178546f74616c537570706c7900000000000000000000006044820152606401610c1a565b80600f600082825461264e919061492d565b909155505050565b612667612661612918565b83612990565b6126d95760405162461bcd60e51b815260206004820152603160248201527f4552433732313a207472616e736665722063616c6c6572206973206e6f74206f60448201527f776e6572206e6f7220617070726f7665640000000000000000000000000000006064820152608401610c1a565b6126e5848484846131b3565b50505050565b606060006126f7613231565b6000848152601a602052604081208054929350909161271590614860565b905011156127bc576000838152601a60205260409020805461273690614860565b80601f016020809104026020016040519081016040528092919081815260200182805461276290614860565b80156127af5780601f10612784576101008083540402835291602001916127af565b820191906000526020600020905b81548152906001019060200180831161279257829003601f168201915b5050505050915050919050565b8051156127f557806127cd84613240565b6040516020016127de929190614ad8565b604051602081830303815290604052915050919050565b5050604080516020810190915260008152919050565b6000818152600160205260408120610b0d9061333e565b61170b8282613348565b606060188054610b2290614860565b6011818154811061284b57600080fd5b600091825260209091206008909102018054600182015460028301546003840154600485015460058601546006870154600790970154959750939592949193909290916001600160a01b031688565b600c5460009061010090046001600160a01b03163314156128c2575060131936013560601c90565b503390565b905090565b6128d68282613370565b5050565b6000612204836001600160a01b03841661340f565b3390565b60006001600160e01b0319821663780e9d6360e01b1480610b0d5750610b0d8261345e565b60006128c761289a565b600081815260066020526040902080546001600160a01b0319166001600160a01b038416908117909155819061295782611f76565b6001600160a01b03167f8c5be1e5ebec7d5bd14f71427d1e84f3dd0314c0f7b2291e5b200ac8c7c3b92560405160405180910390a45050565b6000818152600460205260408120546001600160a01b0316612a095760405162461bcd60e51b815260206004820152602c60248201527f4552433732313a206f70657261746f7220717565727920666f72206e6f6e657860448201526b34b9ba32b73a103a37b5b2b760a11b6064820152608401610c1a565b6000612a1483611f76565b9050806001600160a01b0316846001600160a01b03161480612a4f5750836001600160a01b0316612a4484610ba5565b6001600160a01b0316145b80612a7f57506001600160a01b0380821660009081526007602090815260408083209388168352929052205460ff165b949350505050565b826001600160a01b0316612a9a82611f76565b6001600160a01b031614612b165760405162461bcd60e51b815260206004820152602960248201527f4552433732313a207472616e73666572206f6620746f6b656e2074686174206960448201527f73206e6f74206f776e00000000000000000000000000000000000000000000006064820152608401610c1a565b6001600160a01b038216612b785760405162461bcd60e51b8152602060048201526024808201527f4552433732313a207472616e7366657220746f20746865207a65726f206164646044820152637265737360e01b6064820152608401610c1a565b612b8383838361349e565b612b8e600082612922565b6001600160a01b0383166000908152600560205260408120805460019290612bb7908490614945565b90915550506001600160a01b0382166000908152600560205260408120805460019290612be590849061492d565b909155505060008181526004602052604080822080546001600160a01b0319166001600160a01b0386811691821790925591518493918716917fddf252ad1be2c89b69c2b068fc378daa952ba7f163c4a11628f55a4df523b3ef91a4505050565b600082815260208190526040902060010154612c6981612c64612918565b6135b1565b610d628383613370565b600081815b8551811015612d17576000868281518110612c9557612c95614917565b60200260200101519050808311612cd7576040805160208101859052908101829052606001604051602081830303815290604052805190602001209250612d04565b60408051602081018390529081018490526060016040516020818303038152906040528051906020012092505b5080612d0f8161495c565b915050612c78565b509092149392505050565b60175460165460405163f2aab4b360e01b81523060048201526001600160a01b03928316926000926101009004169063f2aab4b39060240160206040518083038186803b158015612d7257600080fd5b505afa158015612d86573d6000803e3d6000fd5b505050506040513d601f19601f82011682018060405250810190612daa919061489b565b90506001600160a01b038516612e3157612dc4838561492d565b3414612e125760405162461bcd60e51b815260206004820152600f60248201527f76616c756520213d20616d6f756e7400000000000000000000000000000000006044820152606401610c1a565b612e1c828561362f565b8215612e2c57612e2c818461362f565b61300d565b846001600160a01b03166323b872dd612e48612918565b6040516001600160e01b031960e084901b1681526001600160a01b039182166004820152908516602482015260448101879052606401602060405180830381600087803b158015612e9857600080fd5b505af1158015612eac573d6000803e3d6000fd5b505050506040513d601f19601f82011682018060405250810190612ed09190614abb565b612f1c5760405162461bcd60e51b815260206004820152601a60248201527f6661696c656420746f207472616e73666572207061796d656e740000000000006044820152606401610c1a565b821561300d57846001600160a01b03166323b872dd612f39612918565b6040516001600160e01b031960e084901b1681526001600160a01b039182166004820152908416602482015260448101869052606401602060405180830381600087803b158015612f8957600080fd5b505af1158015612f9d573d6000803e3d6000fd5b505050506040513d601f19601f82011682018060405250810190612fc19190614abb565b61300d5760405162461bcd60e51b815260206004820152601660248201527f6661696c656420746f207472616e7366657220666565000000000000000000006044820152606401610c1a565b5050505050565b6128d6828260405180602001604052806000815250613748565b613036612918565b6001600160a01b0316816001600160a01b0316146130bc5760405162461bcd60e51b815260206004820152602f60248201527f416363657373436f6e74726f6c3a2063616e206f6e6c792072656e6f756e636560448201527f20726f6c657320666f722073656c6600000000000000000000000000000000006064820152608401610c1a565b6128d682826137c6565b6000612204836001600160a01b038416613863565b60006130e682611f76565b90506130f48160008461349e565b6130ff600083612922565b6001600160a01b0381166000908152600560205260408120805460019290613128908490614945565b909155505060008281526004602052604080822080546001600160a01b0319169055518391906001600160a01b038416907fddf252ad1be2c89b69c2b068fc378daa952ba7f163c4a11628f55a4df523b3ef908390a45050565b60006122048383613956565b60606122048383604051806060016040528060278152602001614c1e60279139613980565b6131be848484612a87565b6131ca84848484613a6b565b6126e55760405162461bcd60e51b815260206004820152603260248201527f4552433732313a207472616e7366657220746f206e6f6e20455243373231526560448201527131b2b4bb32b91034b6b83632b6b2b73a32b960711b6064820152608401610c1a565b606060198054610b2290614860565b6060816132645750506040805180820190915260018152600360fc1b602082015290565b8160005b811561328e57806132788161495c565b91506132879050600a83614903565b9150613268565b60008167ffffffffffffffff8111156132a9576132a961473c565b6040519080825280601f01601f1916602001820160405280156132d3576020820181803683370190505b5090505b8415612a7f576132e8600183614945565b91506132f5600a86614b07565b61330090603061492d565b60f81b81838151811061331557613315614917565b60200101906001600160f81b031916908160001a905350613337600a86614903565b94506132d7565b6000610b0d825490565b60008281526020819052604090206001015461336681612c64612918565b610d6283836137c6565b6000828152602081815260408083206001600160a01b038516845290915290205460ff166128d6576000828152602081815260408083206001600160a01b03851684529091529020805460ff191660011790556133cb612918565b6001600160a01b0316816001600160a01b0316837f2f8788117e7eff1d82e926ec794901d17c78024a50270940304540a733656f0d60405160405180910390a45050565b600081815260018301602052604081205461345657508154600181810184556000848152602080822090930184905584548482528286019093526040902091909155610b0d565b506000610b0d565b60006001600160e01b031982166380ac58cd60e01b148061348f57506001600160e01b03198216635b5e139f60e01b145b80610b0d5750610b0d82613bca565b6134a9838383613bef565b60165460ff1680156134c357506001600160a01b03831615155b80156134d757506001600160a01b03821615155b15610d62576001600160a01b03831660009081527f7c7a990f752005aea38438cc35abc5417bd322e6c964ec21d52573494225142c602052604090205460ff168061355957506001600160a01b03821660009081527f7c7a990f752005aea38438cc35abc5417bd322e6c964ec21d52573494225142c602052604090205460ff165b610d625760405162461bcd60e51b815260206004820152602360248201527f7265737472696374656420746f205452414e534645525f524f4c4520686f6c6460448201526265727360e81b6064820152608401610c1a565b6000828152602081815260408083206001600160a01b038516845290915290205460ff166128d6576135ed816001600160a01b03166014613c73565b6135f8836020613c73565b604051602001613609929190614b1b565b60408051601f198184030181529082905262461bcd60e51b8252610c1a916004016143b5565b8047101561367f5760405162461bcd60e51b815260206004820152601d60248201527f416464726573733a20696e73756666696369656e742062616c616e63650000006044820152606401610c1a565b6000826001600160a01b03168260405160006040518083038185875af1925050503d80600081146136cc576040519150601f19603f3d011682016040523d82523d6000602084013e6136d1565b606091505b5050905080610d625760405162461bcd60e51b815260206004820152603a60248201527f416464726573733a20756e61626c6520746f2073656e642076616c75652c207260448201527f6563697069656e74206d617920686176652072657665727465640000000000006064820152608401610c1a565b6137528383613e1c565b61375f6000848484613a6b565b610d625760405162461bcd60e51b815260206004820152603260248201527f4552433732313a207472616e7366657220746f206e6f6e20455243373231526560448201527131b2b4bb32b91034b6b83632b6b2b73a32b960711b6064820152608401610c1a565b6000828152602081815260408083206001600160a01b038516845290915290205460ff16156128d6576000828152602081815260408083206001600160a01b03851684529091529020805460ff1916905561381f612918565b6001600160a01b0316816001600160a01b0316837ff6391f5c32d9c69d2a47ea670b442974b53935d1edc7fd64eb21e047a839171b60405160405180910390a45050565b6000818152600183016020526040812054801561394c576000613887600183614945565b855490915060009061389b90600190614945565b90508181146139005760008660000182815481106138bb576138bb614917565b90600052602060002001549050808760000184815481106138de576138de614917565b6000918252602080832090910192909255918252600188019052604090208390555b855486908061391157613911614b9c565b600190038181906000526020600020016000905590558560010160008681526020019081526020016000206000905560019350505050610b0d565b6000915050610b0d565b600082600001828154811061396d5761396d614917565b9060005260206000200154905092915050565b6060833b6139f65760405162461bcd60e51b815260206004820152602660248201527f416464726573733a2064656c65676174652063616c6c20746f206e6f6e2d636f60448201527f6e747261637400000000000000000000000000000000000000000000000000006064820152608401610c1a565b600080856001600160a01b031685604051613a119190614bb2565b600060405180830381855af49150503d8060008114613a4c576040519150601f19603f3d011682016040523d82523d6000602084013e613a51565b606091505b5091509150613a61828286613f6a565b9695505050505050565b60006001600160a01b0384163b15613bbf57836001600160a01b031663150b7a02613a94612918565b8786866040518563ffffffff1660e01b8152600401613ab69493929190614bce565b602060405180830381600087803b158015613ad057600080fd5b505af1925050508015613b00575060408051601f3d908101601f19168201909252613afd91810190614c00565b60015b613ba5573d808015613b2e576040519150601f19603f3d011682016040523d82523d6000602084013e613b33565b606091505b508051613b9d5760405162461bcd60e51b815260206004820152603260248201527f4552433732313a207472616e7366657220746f206e6f6e20455243373231526560448201527131b2b4bb32b91034b6b83632b6b2b73a32b960711b6064820152608401610c1a565b805181602001fd5b6001600160e01b031916630a85bd0160e11b149050612a7f565b506001949350505050565b60006001600160e01b03198216635a05180f60e01b1480610b0d5750610b0d82613fa3565b613bfa838383613fd8565b600c5460ff1615610d625760405162461bcd60e51b815260206004820152602b60248201527f4552433732315061757361626c653a20746f6b656e207472616e73666572207760448201527f68696c65207061757365640000000000000000000000000000000000000000006064820152608401610c1a565b60606000613c828360026148ce565b613c8d90600261492d565b67ffffffffffffffff811115613ca557613ca561473c565b6040519080825280601f01601f191660200182016040528015613ccf576020820181803683370190505b509050600360fc1b81600081518110613cea57613cea614917565b60200101906001600160f81b031916908160001a905350600f60fb1b81600181518110613d1957613d19614917565b60200101906001600160f81b031916908160001a9053506000613d3d8460026148ce565b613d4890600161492d565b90505b6001811115613dcd577f303132333435363738396162636465660000000000000000000000000000000085600f1660108110613d8957613d89614917565b1a60f81b828281518110613d9f57613d9f614917565b60200101906001600160f81b031916908160001a90535060049490941c93613dc681614a8b565b9050613d4b565b5083156122045760405162461bcd60e51b815260206004820181905260248201527f537472696e67733a20686578206c656e67746820696e73756666696369656e746044820152606401610c1a565b6001600160a01b038216613e725760405162461bcd60e51b815260206004820181905260248201527f4552433732313a206d696e7420746f20746865207a65726f20616464726573736044820152606401610c1a565b6000818152600460205260409020546001600160a01b031615613ed75760405162461bcd60e51b815260206004820152601c60248201527f4552433732313a20746f6b656e20616c7265616479206d696e746564000000006044820152606401610c1a565b613ee36000838361349e565b6001600160a01b0382166000908152600560205260408120805460019290613f0c90849061492d565b909155505060008181526004602052604080822080546001600160a01b0319166001600160a01b03861690811790915590518392907fddf252ad1be2c89b69c2b068fc378daa952ba7f163c4a11628f55a4df523b3ef908290a45050565b60608315613f79575081612204565b825115613f895782518084602001fd5b8160405162461bcd60e51b8152600401610c1a91906143b5565b60006001600160e01b03198216637965db0b60e01b1480610b0d57506301ffc9a760e01b6001600160e01b0319831614610b0d565b6001600160a01b0383166140335761402e81600a80546000838152600b60205260408120829055600182018355919091527fc65a7bb8d6351c1cf70c95a316cc6a92839c986682d98bc35f958f4883f9d2a80155565b614056565b816001600160a01b0316836001600160a01b031614614056576140568382614090565b6001600160a01b03821661406d57610d628161412d565b826001600160a01b0316826001600160a01b031614610d6257610d6282826141dc565b6000600161409d84612001565b6140a79190614945565b6000838152600960205260409020549091508082146140fa576001600160a01b03841660009081526008602090815260408083208584528252808320548484528184208190558352600990915290208190555b5060009182526009602090815260408084208490556001600160a01b039094168352600881528383209183525290812055565b600a5460009061413f90600190614945565b6000838152600b6020526040812054600a805493945090928490811061416757614167614917565b9060005260206000200154905080600a838154811061418857614188614917565b6000918252602080832090910192909255828152600b9091526040808220849055858252812055600a8054806141c0576141c0614b9c565b6001900381819060005260206000200160009055905550505050565b60006141e783612001565b6001600160a01b039093166000908152600860209081526040808320868452825280832085905593825260099052919091209190915550565b82805461422c90614860565b90600052602060002090601f01602090048101928261424e5760008555614294565b82601f106142675782800160ff19823516178555614294565b82800160010185558215614294579182015b82811115614294578235825591602001919060010190614279565b506142a09291506142c5565b5090565b5080546000825560080290600052602060002090810190611c9a91906142da565b5b808211156142a057600081556001016142c6565b5b808211156142a0576000808255600182018190556002820181905560038201819055600482018190556005820181905560068201556007810180546001600160a01b03191690556008016142db565b6001600160e01b031981168114611c9a57600080fd5b60006020828403121561435257600080fd5b81356122048161432a565b60005b83811015614378578181015183820152602001614360565b838111156126e55750506000910152565b600081518084526143a181602086016020860161435d565b601f01601f19169290920160200192915050565b6020815260006122046020830184614389565b6000602082840312156143da57600080fd5b5035919050565b6001600160a01b0381168114611c9a57600080fd5b6000806040838503121561440957600080fd5b8235614414816143e1565b946020939093013593505050565b60006020828403121561443457600080fd5b8135612204816143e1565b60008060006060848603121561445457600080fd5b833561445f816143e1565b9250602084013561446f816143e1565b929592945050506040919091013590565b6000806040838503121561449357600080fd5b50508035926020909101359150565b600080604083850312156144b557600080fd5b8235915060208301356144c7816143e1565b809150509250929050565b60008083601f8401126144e457600080fd5b50813567ffffffffffffffff8111156144fc57600080fd5b6020830191508360208260051b850101111561451757600080fd5b9250929050565b60008060006040848603121561453357600080fd5b83359250602084013567ffffffffffffffff81111561455157600080fd5b61455d868287016144d2565b9497909650939450505050565b6000806020838503121561457d57600080fd5b823567ffffffffffffffff8082111561459557600080fd5b818501915085601f8301126145a957600080fd5b8135818111156145b857600080fd5b8660208285010111156145ca57600080fd5b60209290920196919550909350505050565b600080602083850312156145ef57600080fd5b823567ffffffffffffffff8082111561460757600080fd5b818501915085601f83011261461b57600080fd5b81358181111561462a57600080fd5b8660208260081b85010111156145ca57600080fd5b6000806020838503121561465257600080fd5b823567ffffffffffffffff81111561466957600080fd5b614675858286016144d2565b90969095509350505050565b8015158114611c9a57600080fd5b6000602082840312156146a157600080fd5b813561220481614681565b600080604083850312156146bf57600080fd5b82356146ca816143e1565b915060208301356144c781614681565b6000602080830181845280855180835260408601915060408160051b870101925083870160005b8281101561472f57603f1988860301845261471d858351614389565b94509285019290850190600101614701565b5092979650505050505050565b634e487b7160e01b600052604160045260246000fd5b6000806000806080858703121561476857600080fd5b8435614773816143e1565b93506020850135614783816143e1565b925060408501359150606085013567ffffffffffffffff808211156147a757600080fd5b818701915087601f8301126147bb57600080fd5b8135818111156147cd576147cd61473c565b604051601f8201601f19908116603f011681019083821181831017156147f5576147f561473c565b816040528281528a602084870101111561480e57600080fd5b82602086016020830137600060208483010152809550505050505092959194509250565b6000806040838503121561484557600080fd5b8235614850816143e1565b915060208301356144c7816143e1565b600181811c9082168061487457607f821691505b6020821081141561489557634e487b7160e01b600052602260045260246000fd5b50919050565b6000602082840312156148ad57600080fd5b8151612204816143e1565b634e487b7160e01b600052601160045260246000fd5b60008160001904831182151516156148e8576148e86148b8565b500290565b634e487b7160e01b600052601260045260246000fd5b600082614912576149126148ed565b500490565b634e487b7160e01b600052603260045260246000fd5b60008219821115614940576149406148b8565b500190565b600082821015614957576149576148b8565b500390565b6000600019821415614970576149706148b8565b5060010190565b60208152816020820152818360408301376000818301604090810191909152601f909201601f19160101919050565b60006020808301818452808554808352604092508286019150866000528360002060005b82811015614a375781548452600180830154878601526002830154868601526003830154606086015260048301546080860152600583015460a0860152600683015460c086015260078301546001600160a01b031660e086015261010090940193600890920191016149ca565b5091979650505050505050565b6000808335601e19843603018112614a5b57600080fd5b83018035915067ffffffffffffffff821115614a7657600080fd5b60200191503681900382131561451757600080fd5b600081614a9a57614a9a6148b8565b506000190190565b600060208284031215614ab457600080fd5b5051919050565b600060208284031215614acd57600080fd5b815161220481614681565b60008351614aea81846020880161435d565b835190830190614afe81836020880161435d565b01949350505050565b600082614b1657614b166148ed565b500690565b7f416363657373436f6e74726f6c3a206163636f756e7420000000000000000000815260008351614b5381601785016020880161435d565b7f206973206d697373696e6720726f6c65200000000000000000000000000000006017918401918201528351614b9081602884016020880161435d565b01602801949350505050565b634e487b7160e01b600052603160045260246000fd5b60008251614bc481846020870161435d565b9190910192915050565b60006001600160a01b03808716835280861660208401525083604083015260806060830152613a616080830184614389565b600060208284031215614c1257600080fd5b81516122048161432a56fe416464726573733a206c6f772d6c6576656c2064656c65676174652063616c6c206661696c6564a164736f6c6343000809000a",
  "linkReferences": {},
  "deployedLinkReferences": {}
}