{
  "_format": "hh-sol-artifact-1",
  "contractName": "LazyNFT",
  "sourceName": "contracts/LazyNFT.sol",
  "abi": [
    {
      "inputs": [
        {
          "internalType": "address payable",
          "name": "_controlCenter",
          "type": "address"
        },
        {
          "internalType": "string",
          "name": "_name",
          "type": "string"
        },
        {
          "internalType": "string",
          "name": "_symbol",
          "type": "string"
        },
        {
          "internalType": "address",
          "name": "_trustedForwarder",
          "type": "address"
        },
        {
          "internalType": "string",
          "name": "_contractUri",
          "type": "string"
        },
        {
          "internalType": "string",
          "name": "_baseTokenUri",
          "type": "string"
        },
        {
          "internalType": "uint256",
          "name": "_maxSupply",
          "type": "uint256"
        },
        {
          "internalType": "uint256",
          "name": "_royaltyBps",
          "type": "uint256"
        },
        {
          "internalType": "uint256",
          "name": "_feeBps",
          "type": "uint256"
        },
        {
          "internalType": "address",
          "name": "_saleRecipient",
          "type": "address"
        }
      ],
      "stateMutability": "nonpayable",
      "type": "constructor"
    },
    {
      "anonymous": false,
      "inputs": [
        {
          "indexed": true,
          "internalType": "address",
          "name": "owner",
          "type": "address"
        },
        {
          "indexed": true,
          "internalType": "address",
          "name": "approved",
          "type": "address"
        },
        {
          "indexed": true,
          "internalType": "uint256",
          "name": "tokenId",
          "type": "uint256"
        }
      ],
      "name": "Approval",
      "type": "event"
    },
    {
      "anonymous": false,
      "inputs": [
        {
          "indexed": true,
          "internalType": "address",
          "name": "owner",
          "type": "address"
        },
        {
          "indexed": true,
          "internalType": "address",
          "name": "operator",
          "type": "address"
        },
        {
          "indexed": false,
          "internalType": "bool",
          "name": "approved",
          "type": "bool"
        }
      ],
      "name": "ApprovalForAll",
      "type": "event"
    },
    {
      "anonymous": false,
      "inputs": [
        {
          "indexed": false,
          "internalType": "string",
          "name": "uri",
          "type": "string"
        }
      ],
      "name": "BaseTokenURIUpdated",
      "type": "event"
    },
    {
      "anonymous": false,
      "inputs": [
        {
          "indexed": true,
          "internalType": "address",
          "name": "to",
          "type": "address"
        },
        {
          "indexed": false,
          "internalType": "uint256",
          "name": "startTokenId",
          "type": "uint256"
        },
        {
          "indexed": false,
          "internalType": "uint256",
          "name": "quantity",
          "type": "uint256"
        },
        {
          "indexed": false,
          "internalType": "uint256",
          "name": "mintConditionIndex",
          "type": "uint256"
        }
      ],
      "name": "Claimed",
      "type": "event"
    },
    {
      "anonymous": false,
      "inputs": [
        {
          "indexed": false,
          "internalType": "uint256",
          "name": "feeBps",
          "type": "uint256"
        }
      ],
      "name": "FeeUpdated",
      "type": "event"
    },
    {
      "anonymous": false,
      "inputs": [
        {
          "indexed": true,
          "internalType": "address",
          "name": "to",
          "type": "address"
        },
        {
          "indexed": false,
          "internalType": "uint256",
          "name": "amount",
          "type": "uint256"
        }
      ],
      "name": "FundsWithdrawn",
      "type": "event"
    },
    {
      "anonymous": false,
      "inputs": [
        {
          "indexed": false,
          "internalType": "address",
          "name": "account",
          "type": "address"
        }
      ],
      "name": "Paused",
      "type": "event"
    },
    {
      "anonymous": false,
      "inputs": [
        {
          "components": [
            {
              "internalType": "uint256",
              "name": "startTimestamp",
              "type": "uint256"
            },
            {
              "internalType": "uint256",
              "name": "maxMintSupply",
              "type": "uint256"
            },
            {
              "internalType": "uint256",
              "name": "currentMintSupply",
              "type": "uint256"
            },
            {
              "internalType": "uint256",
              "name": "quantityLimitPerTransaction",
              "type": "uint256"
            },
            {
              "internalType": "uint256",
              "name": "waitTimeSecondsLimitPerTransaction",
              "type": "uint256"
            },
            {
              "internalType": "bytes32",
              "name": "merkleRoot",
              "type": "bytes32"
            },
            {
              "internalType": "uint256",
              "name": "pricePerToken",
              "type": "uint256"
            },
            {
              "internalType": "address",
              "name": "currency",
              "type": "address"
            }
          ],
          "indexed": false,
          "internalType": "struct LazyNFT.PublicMintCondition[]",
          "name": "mintConditions",
          "type": "tuple[]"
        }
      ],
      "name": "PublicMintConditionUpdated",
      "type": "event"
    },
    {
      "anonymous": false,
      "inputs": [
        {
          "indexed": false,
          "internalType": "bool",
          "name": "transferable",
          "type": "bool"
        }
      ],
      "name": "RestrictedTransferUpdated",
      "type": "event"
    },
    {
      "anonymous": false,
      "inputs": [
        {
          "indexed": true,
          "internalType": "bytes32",
          "name": "role",
          "type": "bytes32"
        },
        {
          "indexed": true,
          "internalType": "bytes32",
          "name": "previousAdminRole",
          "type": "bytes32"
        },
        {
          "indexed": true,
          "internalType": "bytes32",
          "name": "newAdminRole",
          "type": "bytes32"
        }
      ],
      "name": "RoleAdminChanged",
      "type": "event"
    },
    {
      "anonymous": false,
      "inputs": [
        {
          "indexed": true,
          "internalType": "bytes32",
          "name": "role",
          "type": "bytes32"
        },
        {
          "indexed": true,
          "internalType": "address",
          "name": "account",
          "type": "address"
        },
        {
          "indexed": true,
          "internalType": "address",
          "name": "sender",
          "type": "address"
        }
      ],
      "name": "RoleGranted",
      "type": "event"
    },
    {
      "anonymous": false,
      "inputs": [
        {
          "indexed": true,
          "internalType": "bytes32",
          "name": "role",
          "type": "bytes32"
        },
        {
          "indexed": true,
          "internalType": "address",
          "name": "account",
          "type": "address"
        },
        {
          "indexed": true,
          "internalType": "address",
          "name": "sender",
          "type": "address"
        }
      ],
      "name": "RoleRevoked",
      "type": "event"
    },
    {
      "anonymous": false,
      "inputs": [
        {
          "indexed": false,
          "internalType": "uint256",
          "name": "royaltyBps",
          "type": "uint256"
        }
      ],
      "name": "RoyaltyUpdated",
      "type": "event"
    },
    {
      "anonymous": false,
      "inputs": [
        {
          "indexed": false,
          "internalType": "uint256",
          "name": "supply",
          "type": "uint256"
        }
      ],
      "name": "TotalSupplyUpdated",
      "type": "event"
    },
    {
      "anonymous": false,
      "inputs": [
        {
          "indexed": true,
          "internalType": "address",
          "name": "from",
          "type": "address"
        },
        {
          "indexed": true,
          "internalType": "address",
          "name": "to",
          "type": "address"
        },
        {
          "indexed": true,
          "internalType": "uint256",
          "name": "tokenId",
          "type": "uint256"
        }
      ],
      "name": "Transfer",
      "type": "event"
    },
    {
      "anonymous": false,
      "inputs": [
        {
          "indexed": false,
          "internalType": "address",
          "name": "account",
          "type": "address"
        }
      ],
      "name": "Unpaused",
      "type": "event"
    },
    {
      "inputs": [],
      "name": "DEFAULT_ADMIN_ROLE",
      "outputs": [
        {
          "internalType": "bytes32",
          "name": "",
          "type": "bytes32"
        }
      ],
      "stateMutability": "view",
      "type": "function"
    },
    {
      "inputs": [],
      "name": "MINTER_ROLE",
      "outputs": [
        {
          "internalType": "bytes32",
          "name": "",
          "type": "bytes32"
        }
      ],
      "stateMutability": "view",
      "type": "function"
    },
    {
      "inputs": [],
      "name": "TRANSFER_ROLE",
      "outputs": [
        {
          "internalType": "bytes32",
          "name": "",
          "type": "bytes32"
        }
      ],
      "stateMutability": "view",
      "type": "function"
    },
    {
      "inputs": [
        {
          "internalType": "address",
          "name": "to",
          "type": "address"
        },
        {
          "internalType": "uint256",
          "name": "tokenId",
          "type": "uint256"
        }
      ],
      "name": "approve",
      "outputs": [],
      "stateMutability": "nonpayable",
      "type": "function"
    },
    {
      "inputs": [
        {
          "internalType": "address",
          "name": "owner",
          "type": "address"
        }
      ],
      "name": "balanceOf",
      "outputs": [
        {
          "internalType": "uint256",
          "name": "",
          "type": "uint256"
        }
      ],
      "stateMutability": "view",
      "type": "function"
    },
    {
      "inputs": [
        {
          "internalType": "uint256",
          "name": "tokenId",
          "type": "uint256"
        }
      ],
      "name": "burn",
      "outputs": [],
      "stateMutability": "nonpayable",
      "type": "function"
    },
    {
      "inputs": [
        {
          "internalType": "uint256",
          "name": "quantity",
          "type": "uint256"
        },
        {
          "internalType": "bytes32[]",
          "name": "proofs",
          "type": "bytes32[]"
        }
      ],
      "name": "claim",
      "outputs": [],
      "stateMutability": "payable",
      "type": "function"
    },
    {
      "inputs": [],
      "name": "contractURI",
      "outputs": [
        {
          "internalType": "string",
          "name": "",
          "type": "string"
        }
      ],
      "stateMutability": "view",
      "type": "function"
    },
    {
      "inputs": [],
      "name": "feeBps",
      "outputs": [
        {
          "internalType": "uint256",
          "name": "",
          "type": "uint256"
        }
      ],
      "stateMutability": "view",
      "type": "function"
    },
    {
      "inputs": [
        {
          "internalType": "uint256",
          "name": "tokenId",
          "type": "uint256"
        }
      ],
      "name": "getApproved",
      "outputs": [
        {
          "internalType": "address",
          "name": "",
          "type": "address"
        }
      ],
      "stateMutability": "view",
      "type": "function"
    },
    {
      "inputs": [],
      "name": "getLastStartedMintConditionIndex",
      "outputs": [
        {
          "internalType": "uint256",
          "name": "",
          "type": "uint256"
        }
      ],
      "stateMutability": "view",
      "type": "function"
    },
    {
      "inputs": [],
      "name": "getMintConditionCount",
      "outputs": [
        {
          "internalType": "uint256",
          "name": "",
          "type": "uint256"
        }
      ],
      "stateMutability": "view",
      "type": "function"
    },
    {
      "inputs": [
        {
          "internalType": "bytes32",
          "name": "role",
          "type": "bytes32"
        }
      ],
      "name": "getRoleAdmin",
      "outputs": [
        {
          "internalType": "bytes32",
          "name": "",
          "type": "bytes32"
        }
      ],
      "stateMutability": "view",
      "type": "function"
    },
    {
      "inputs": [
        {
          "internalType": "bytes32",
          "name": "role",
          "type": "bytes32"
        },
        {
          "internalType": "uint256",
          "name": "index",
          "type": "uint256"
        }
      ],
      "name": "getRoleMember",
      "outputs": [
        {
          "internalType": "address",
          "name": "",
          "type": "address"
        }
      ],
      "stateMutability": "view",
      "type": "function"
    },
    {
      "inputs": [
        {
          "internalType": "bytes32",
          "name": "role",
          "type": "bytes32"
        }
      ],
      "name": "getRoleMemberCount",
      "outputs": [
        {
          "internalType": "uint256",
          "name": "",
          "type": "uint256"
        }
      ],
      "stateMutability": "view",
      "type": "function"
    },
    {
      "inputs": [
        {
          "internalType": "bytes32",
          "name": "role",
          "type": "bytes32"
        },
        {
          "internalType": "address",
          "name": "account",
          "type": "address"
        }
      ],
      "name": "grantRole",
      "outputs": [],
      "stateMutability": "nonpayable",
      "type": "function"
    },
    {
      "inputs": [
        {
          "internalType": "bytes32",
          "name": "role",
          "type": "bytes32"
        },
        {
          "internalType": "address",
          "name": "account",
          "type": "address"
        }
      ],
      "name": "hasRole",
      "outputs": [
        {
          "internalType": "bool",
          "name": "",
          "type": "bool"
        }
      ],
      "stateMutability": "view",
      "type": "function"
    },
    {
      "inputs": [
        {
          "internalType": "address",
          "name": "owner",
          "type": "address"
        },
        {
          "internalType": "address",
          "name": "operator",
          "type": "address"
        }
      ],
      "name": "isApprovedForAll",
      "outputs": [
        {
          "internalType": "bool",
          "name": "",
          "type": "bool"
        }
      ],
      "stateMutability": "view",
      "type": "function"
    },
    {
      "inputs": [
        {
          "internalType": "address",
          "name": "forwarder",
          "type": "address"
        }
      ],
      "name": "isTrustedForwarder",
      "outputs": [
        {
          "internalType": "bool",
          "name": "",
          "type": "bool"
        }
      ],
      "stateMutability": "view",
      "type": "function"
    },
    {
      "inputs": [
        {
          "internalType": "uint256",
          "name": "amount",
          "type": "uint256"
        }
      ],
      "name": "lazyMintAmount",
      "outputs": [],
      "stateMutability": "nonpayable",
      "type": "function"
    },
    {
      "inputs": [
        {
          "internalType": "string[]",
          "name": "_uris",
          "type": "string[]"
        }
      ],
      "name": "lazyMintBatch",
      "outputs": [],
      "stateMutability": "nonpayable",
      "type": "function"
    },
    {
      "inputs": [],
      "name": "maxTotalSupply",
      "outputs": [
        {
          "internalType": "uint256",
          "name": "",
          "type": "uint256"
        }
      ],
      "stateMutability": "view",
      "type": "function"
    },
    {
      "inputs": [
        {
          "internalType": "uint256",
          "name": "",
          "type": "uint256"
        }
      ],
      "name": "mintConditions",
      "outputs": [
        {
          "internalType": "uint256",
          "name": "startTimestamp",
          "type": "uint256"
        },
        {
          "internalType": "uint256",
          "name": "maxMintSupply",
          "type": "uint256"
        },
        {
          "internalType": "uint256",
          "name": "currentMintSupply",
          "type": "uint256"
        },
        {
          "internalType": "uint256",
          "name": "quantityLimitPerTransaction",
          "type": "uint256"
        },
        {
          "internalType": "uint256",
          "name": "waitTimeSecondsLimitPerTransaction",
          "type": "uint256"
        },
        {
          "internalType": "bytes32",
          "name": "merkleRoot",
          "type": "bytes32"
        },
        {
          "internalType": "uint256",
          "name": "pricePerToken",
          "type": "uint256"
        },
        {
          "internalType": "address",
          "name": "currency",
          "type": "address"
        }
      ],
      "stateMutability": "view",
      "type": "function"
    },
    {
      "inputs": [
        {
          "internalType": "bytes[]",
          "name": "data",
          "type": "bytes[]"
        }
      ],
      "name": "multicall",
      "outputs": [
        {
          "internalType": "bytes[]",
          "name": "results",
          "type": "bytes[]"
        }
      ],
      "stateMutability": "nonpayable",
      "type": "function"
    },
    {
      "inputs": [],
      "name": "name",
      "outputs": [
        {
          "internalType": "string",
          "name": "",
          "type": "string"
        }
      ],
      "stateMutability": "view",
      "type": "function"
    },
    {
      "inputs": [
        {
          "internalType": "address",
          "name": "",
          "type": "address"
        },
        {
          "internalType": "uint256",
          "name": "",
          "type": "uint256"
        }
      ],
      "name": "nextMintTimestampByCondition",
      "outputs": [
        {
          "internalType": "uint256",
          "name": "",
          "type": "uint256"
        }
      ],
      "stateMutability": "view",
      "type": "function"
    },
    {
      "inputs": [],
      "name": "nextMintTokenId",
      "outputs": [
        {
          "internalType": "uint256",
          "name": "",
          "type": "uint256"
        }
      ],
      "stateMutability": "view",
      "type": "function"
    },
    {
      "inputs": [],
      "name": "nextTokenId",
      "outputs": [
        {
          "internalType": "uint256",
          "name": "",
          "type": "uint256"
        }
      ],
      "stateMutability": "view",
      "type": "function"
    },
    {
      "inputs": [
        {
          "internalType": "uint256",
          "name": "tokenId",
          "type": "uint256"
        }
      ],
      "name": "ownerOf",
      "outputs": [
        {
          "internalType": "address",
          "name": "",
          "type": "address"
        }
      ],
      "stateMutability": "view",
      "type": "function"
    },
    {
      "inputs": [],
      "name": "paused",
      "outputs": [
        {
          "internalType": "bool",
          "name": "",
          "type": "bool"
        }
      ],
      "stateMutability": "view",
      "type": "function"
    },
    {
      "inputs": [
        {
          "internalType": "bytes32",
          "name": "role",
          "type": "bytes32"
        },
        {
          "internalType": "address",
          "name": "account",
          "type": "address"
        }
      ],
      "name": "renounceRole",
      "outputs": [],
      "stateMutability": "nonpayable",
      "type": "function"
    },
    {
      "inputs": [
        {
          "internalType": "bytes32",
          "name": "role",
          "type": "bytes32"
        },
        {
          "internalType": "address",
          "name": "account",
          "type": "address"
        }
      ],
      "name": "revokeRole",
      "outputs": [],
      "stateMutability": "nonpayable",
      "type": "function"
    },
    {
      "inputs": [],
      "name": "royaltyBps",
      "outputs": [
        {
          "internalType": "uint256",
          "name": "",
          "type": "uint256"
        }
      ],
      "stateMutability": "view",
      "type": "function"
    },
    {
      "inputs": [
        {
          "internalType": "uint256",
          "name": "",
          "type": "uint256"
        },
        {
          "internalType": "uint256",
          "name": "salePrice",
          "type": "uint256"
        }
      ],
      "name": "royaltyInfo",
      "outputs": [
        {
          "internalType": "address",
          "name": "receiver",
          "type": "address"
        },
        {
          "internalType": "uint256",
          "name": "royaltyAmount",
          "type": "uint256"
        }
      ],
      "stateMutability": "view",
      "type": "function"
    },
    {
      "inputs": [
        {
          "internalType": "address",
          "name": "from",
          "type": "address"
        },
        {
          "internalType": "address",
          "name": "to",
          "type": "address"
        },
        {
          "internalType": "uint256",
          "name": "tokenId",
          "type": "uint256"
        }
      ],
      "name": "safeTransferFrom",
      "outputs": [],
      "stateMutability": "nonpayable",
      "type": "function"
    },
    {
      "inputs": [
        {
          "internalType": "address",
          "name": "from",
          "type": "address"
        },
        {
          "internalType": "address",
          "name": "to",
          "type": "address"
        },
        {
          "internalType": "uint256",
          "name": "tokenId",
          "type": "uint256"
        },
        {
          "internalType": "bytes",
          "name": "_data",
          "type": "bytes"
        }
      ],
      "name": "safeTransferFrom",
      "outputs": [],
      "stateMutability": "nonpayable",
      "type": "function"
    },
    {
      "inputs": [],
      "name": "saleRecipient",
      "outputs": [
        {
          "internalType": "address",
          "name": "",
          "type": "address"
        }
      ],
      "stateMutability": "view",
      "type": "function"
    },
    {
      "inputs": [
        {
          "internalType": "address",
          "name": "operator",
          "type": "address"
        },
        {
          "internalType": "bool",
          "name": "approved",
          "type": "bool"
        }
      ],
      "name": "setApprovalForAll",
      "outputs": [],
      "stateMutability": "nonpayable",
      "type": "function"
    },
    {
      "inputs": [
        {
          "internalType": "string",
          "name": "_uri",
          "type": "string"
        }
      ],
      "name": "setBaseTokenURI",
      "outputs": [],
      "stateMutability": "nonpayable",
      "type": "function"
    },
    {
      "inputs": [
        {
          "internalType": "string",
          "name": "_URI",
          "type": "string"
        }
      ],
      "name": "setContractURI",
      "outputs": [],
      "stateMutability": "nonpayable",
      "type": "function"
    },
    {
      "inputs": [
        {
          "internalType": "uint256",
          "name": "_feeBps",
          "type": "uint256"
        }
      ],
      "name": "setFeeBps",
      "outputs": [],
      "stateMutability": "nonpayable",
      "type": "function"
    },
    {
      "inputs": [
        {
          "internalType": "uint256",
          "name": "maxSupply",
          "type": "uint256"
        }
      ],
      "name": "setMaxTotalSupply",
      "outputs": [],
      "stateMutability": "nonpayable",
      "type": "function"
    },
    {
      "inputs": [
        {
          "components": [
            {
              "internalType": "uint256",
              "name": "startTimestamp",
              "type": "uint256"
            },
            {
              "internalType": "uint256",
              "name": "maxMintSupply",
              "type": "uint256"
            },
            {
              "internalType": "uint256",
              "name": "currentMintSupply",
              "type": "uint256"
            },
            {
              "internalType": "uint256",
              "name": "quantityLimitPerTransaction",
              "type": "uint256"
            },
            {
              "internalType": "uint256",
              "name": "waitTimeSecondsLimitPerTransaction",
              "type": "uint256"
            },
            {
              "internalType": "bytes32",
              "name": "merkleRoot",
              "type": "bytes32"
            },
            {
              "internalType": "uint256",
              "name": "pricePerToken",
              "type": "uint256"
            },
            {
              "internalType": "address",
              "name": "currency",
              "type": "address"
            }
          ],
          "internalType": "struct LazyNFT.PublicMintCondition[]",
          "name": "conditions",
          "type": "tuple[]"
        }
      ],
      "name": "setPublicMintConditions",
      "outputs": [],
      "stateMutability": "nonpayable",
      "type": "function"
    },
    {
      "inputs": [
        {
          "internalType": "bool",
          "name": "_restrictedTransfer",
          "type": "bool"
        }
      ],
      "name": "setRestrictedTransfer",
      "outputs": [],
      "stateMutability": "nonpayable",
      "type": "function"
    },
    {
      "inputs": [
        {
          "internalType": "uint256",
          "name": "_royaltyBps",
          "type": "uint256"
        }
      ],
      "name": "setRoyaltyBps",
      "outputs": [],
      "stateMutability": "nonpayable",
      "type": "function"
    },
    {
      "inputs": [
        {
          "internalType": "address",
          "name": "_saleRecipient",
          "type": "address"
        }
      ],
      "name": "setSaleRecipient",
      "outputs": [],
      "stateMutability": "nonpayable",
      "type": "function"
    },
    {
      "inputs": [
        {
          "internalType": "bytes4",
          "name": "interfaceId",
          "type": "bytes4"
        }
      ],
      "name": "supportsInterface",
      "outputs": [
        {
          "internalType": "bool",
          "name": "",
          "type": "bool"
        }
      ],
      "stateMutability": "view",
      "type": "function"
    },
    {
      "inputs": [],
      "name": "symbol",
      "outputs": [
        {
          "internalType": "string",
          "name": "",
          "type": "string"
        }
      ],
      "stateMutability": "view",
      "type": "function"
    },
    {
      "inputs": [
        {
          "internalType": "uint256",
          "name": "index",
          "type": "uint256"
        }
      ],
      "name": "tokenByIndex",
      "outputs": [
        {
          "internalType": "uint256",
          "name": "",
          "type": "uint256"
        }
      ],
      "stateMutability": "view",
      "type": "function"
    },
    {
      "inputs": [
        {
          "internalType": "address",
          "name": "owner",
          "type": "address"
        },
        {
          "internalType": "uint256",
          "name": "index",
          "type": "uint256"
        }
      ],
      "name": "tokenOfOwnerByIndex",
      "outputs": [
        {
          "internalType": "uint256",
          "name": "",
          "type": "uint256"
        }
      ],
      "stateMutability": "view",
      "type": "function"
    },
    {
      "inputs": [
        {
          "internalType": "uint256",
          "name": "tokenId",
          "type": "uint256"
        }
      ],
      "name": "tokenURI",
      "outputs": [
        {
          "internalType": "string",
          "name": "",
          "type": "string"
        }
      ],
      "stateMutability": "view",
      "type": "function"
    },
    {
      "inputs": [],
      "name": "totalSupply",
      "outputs": [
        {
          "internalType": "uint256",
          "name": "",
          "type": "uint256"
        }
      ],
      "stateMutability": "view",
      "type": "function"
    },
    {
      "inputs": [
        {
          "internalType": "address",
          "name": "from",
          "type": "address"
        },
        {
          "internalType": "address",
          "name": "to",
          "type": "address"
        },
        {
          "internalType": "uint256",
          "name": "tokenId",
          "type": "uint256"
        }
      ],
      "name": "transferFrom",
      "outputs": [],
      "stateMutability": "nonpayable",
      "type": "function"
    },
    {
      "inputs": [],
      "name": "transfersRestricted",
      "outputs": [
        {
          "internalType": "bool",
          "name": "",
          "type": "bool"
        }
      ],
      "stateMutability": "view",
      "type": "function"
    }
  ],
  "bytecode": "0x60806040523480156200001157600080fd5b50604051620053e6380380620053e68339810160408190526200003491620006b3565b86898981600290805190602001906200004f92919062000523565b5080516200006590600390602084019062000523565b5050600c80546001600160a81b0319166101006001600160a01b039485168102919091179091556001600d5560168054610100600160a81b031916938e1690910292909217909155508551620000c390601890602089019062000523565b508451620000d990601990602088019062000523565b50600e849055601780546001600160a01b0319166001600160a01b0383161790556200011060006200010a62000194565b620001b0565b6200013f7f9f2df0fed2c77648de5860a4cc508cd0818c85b8b8a1ab4ceeef8d981c8956a66200010a62000194565b6200016e7f8502233096d909befbda0999bb8ea2f3a6be3c138b9fbf003752a4c8bce86f6c6200010a62000194565b6200017982620001f3565b6200018483620002f1565b5050505050505050505062000801565b6000620001ab620003bc60201b620028351760201c565b905090565b620001c78282620003fb60201b620028671760201c565b6000828152600160209081526040909120620001ee918390620028756200040b821b17901c565b505050565b6200022c60006200020362000194565b6000918252602082815260408084206001600160a01b0393909316845291905290205460ff1690565b620002725760405162461bcd60e51b815260206004820152601160248201527037b7363c9036b7b23ab6329030b236b4b760791b60448201526064015b60405180910390fd5b612710811115620002b55760405162461bcd60e51b815260206004820152600c60248201526b0627073203c3d2031303030360a41b604482015260640162000269565b60158190556040518181527f8c4d35e54a3f2ef1134138fd8ea3daee6a3c89e10d2665996babdf70261e2c76906020015b60405180910390a150565b6200030160006200020362000194565b620003435760405162461bcd60e51b815260206004820152601160248201527037b7363c9036b7b23ab6329030b236b4b760791b604482015260640162000269565b612710811115620003865760405162461bcd60e51b815260206004820152600c60248201526b0627073203c3d2031303030360a41b604482015260640162000269565b60148190556040518181527f244ea8d7627f5a08f4299862bd5a45752842c183aee5b0fb0d1e4887bfa605b390602001620002e6565b600c546000906001600160a01b0361010090910416331415620003e6575060131936013560601c90565b620001ab6200042b60201b6200288a1760201c565b6200040782826200042f565b5050565b600062000422836001600160a01b038416620004d1565b90505b92915050565b3390565b6000828152602081815260408083206001600160a01b038516845290915290205460ff1662000407576000828152602081815260408083206001600160a01b03851684529091529020805460ff191660011790556200048d62000194565b6001600160a01b0316816001600160a01b0316837f2f8788117e7eff1d82e926ec794901d17c78024a50270940304540a733656f0d60405160405180910390a45050565b60008181526001830160205260408120546200051a5750815460018181018455600084815260208082209093018490558454848252828601909352604090209190915562000425565b50600062000425565b8280546200053190620007c4565b90600052602060002090601f016020900481019282620005555760008555620005a0565b82601f106200057057805160ff1916838001178555620005a0565b82800160010185558215620005a0579182015b82811115620005a057825182559160200191906001019062000583565b50620005ae929150620005b2565b5090565b5b80821115620005ae5760008155600101620005b3565b80516001600160a01b0381168114620005e157600080fd5b919050565b634e487b7160e01b600052604160045260246000fd5b600082601f8301126200060e57600080fd5b81516001600160401b03808211156200062b576200062b620005e6565b604051601f8301601f19908116603f01168101908282118183101715620006565762000656620005e6565b816040528381526020925086838588010111156200067357600080fd5b600091505b8382101562000697578582018301518183018401529082019062000678565b83821115620006a95760008385830101525b9695505050505050565b6000806000806000806000806000806101408b8d031215620006d457600080fd5b620006df8b620005c9565b60208c0151909a506001600160401b0380821115620006fd57600080fd5b6200070b8e838f01620005fc565b9a5060408d01519150808211156200072257600080fd5b620007308e838f01620005fc565b99506200074060608e01620005c9565b985060808d01519150808211156200075757600080fd5b620007658e838f01620005fc565b975060a08d01519150808211156200077c57600080fd5b506200078b8d828e01620005fc565b95505060c08b0151935060e08b015192506101008b01519150620007b36101208c01620005c9565b90509295989b9194979a5092959850565b600181811c90821680620007d957607f821691505b60208210811415620007fb57634e487b7160e01b600052602260045260246000fd5b50919050565b614bd580620008116000396000f3fe6080604052600436106103555760003560e01c80635b019b76116101bb578063a217fddf116100f7578063ca15c87311610095578063e88fbd411161006f578063e88fbd4114610a0f578063e8a3d48514610a25578063e985e9c514610a3a578063fd59855014610a8357600080fd5b8063ca15c8731461099b578063d5391393146109bb578063d547741f146109ef57600080fd5b8063b7cdd0bc116100d1578063b7cdd0bc14610925578063b88d4fde14610945578063c63adb2b14610965578063c87b56dd1461097b57600080fd5b8063a217fddf146108c3578063a22cb465146108d8578063ac9650d8146108f857600080fd5b806375794a3c116101645780639010d07c1161013e5780639010d07c1461082a57806391d148541461084a578063938e3d7b1461088e57806395d89b41146108ae57600080fd5b806375794a3c146107da5780638423df79146107f05780638ba448c21461080a57600080fd5b80636352211e116101955780636352211e1461077a57806370a082311461079a57806372c27b62146107ba57600080fd5b80635b019b761461072d5780635c975abb1461074d5780635da53d581461076557600080fd5b80632a55205a116102955780633f3e4c111161023357806342966c681161020d57806342966c68146106995780634ce40a32146106b95780634f6ccce7146106d9578063572b6c05146106f957600080fd5b80633f3e4c1114610639578063428131081461065957806342842e0e1461067957600080fd5b80632f52ebb71161026f5780632f52ebb7146105c65780632f745c59146105d957806330176e13146105f957806336568abe1461061957600080fd5b80632a55205a146105515780632ab4d052146105905780632f2ff15d146105a657600080fd5b80631df952db11610302578063206b60f9116102dc578063206b60f9146104b757806323b872dd146104eb578063248a9ca31461050b57806324a9d8531461053b57600080fd5b80631df952db1461044a5780631edab0811461045f5780631f72d8311461049757600080fd5b8063095ea7b311610333578063095ea7b3146103e957806318160ddd1461040b5780631c908d981461042a57600080fd5b806301ffc9a71461035a57806306fdde031461038f578063081812fc146103b1575b600080fd5b34801561036657600080fd5b5061037a6103753660046142c4565b610ae7565b60405190151581526020015b60405180910390f35b34801561039b57600080fd5b506103a4610b13565b6040516103869190614339565b3480156103bd57600080fd5b506103d16103cc36600461434c565b610ba5565b6040516001600160a01b039091168152602001610386565b3480156103f557600080fd5b5061040961040436600461437a565b610c3f565b005b34801561041757600080fd5b50600a545b604051908152602001610386565b34801561043657600080fd5b506104096104453660046143a6565b610d67565b34801561045657600080fd5b5060115461041c565b34801561046b57600080fd5b5061041c61047a36600461437a565b601260209081526000928352604080842090915290825290205481565b3480156104a357600080fd5b506104096104b236600461434c565b610dd6565b3480156104c357600080fd5b5061041c7f8502233096d909befbda0999bb8ea2f3a6be3c138b9fbf003752a4c8bce86f6c81565b3480156104f757600080fd5b506104096105063660046143c3565b610ea0565b34801561051757600080fd5b5061041c61052636600461434c565b60009081526020819052604090206001015490565b34801561054757600080fd5b5061041c60155481565b34801561055d57600080fd5b5061057161056c366004614404565b610f22565b604080516001600160a01b039093168352602083019190915201610386565b34801561059c57600080fd5b5061041c600e5481565b3480156105b257600080fd5b506104096105c1366004614426565b610fcc565b6104096105d43660046144a2565b610fee565b3480156105e557600080fd5b5061041c6105f436600461437a565b6115b6565b34801561060557600080fd5b506104096106143660046144ee565b61165e565b34801561062557600080fd5b50610409610634366004614426565b6116f5565b34801561064557600080fd5b5061040961065436600461434c565b611717565b34801561066557600080fd5b50610409610674366004614560565b611799565b34801561068557600080fd5b506104096106943660046143c3565b611ba0565b3480156106a557600080fd5b506104096106b436600461434c565b611bbb565b3480156106c557600080fd5b506104096106d43660046145c3565b611c44565b3480156106e557600080fd5b5061041c6106f436600461434c565b611d7c565b34801561070557600080fd5b5061037a6107143660046143a6565b600c5461010090046001600160a01b0390811691161490565b34801561073957600080fd5b506017546103d1906001600160a01b031681565b34801561075957600080fd5b50600c5460ff1661037a565b34801561077157600080fd5b5061041c611e20565b34801561078657600080fd5b506103d161079536600461434c565b611f1d565b3480156107a657600080fd5b5061041c6107b53660046143a6565b611fa8565b3480156107c657600080fd5b506104096107d536600461434c565b612042565b3480156107e657600080fd5b5061041c600f5481565b3480156107fc57600080fd5b5060165461037a9060ff1681565b34801561081657600080fd5b50610409610825366004614613565b612105565b34801561083657600080fd5b506103d1610845366004614404565b612193565b34801561085657600080fd5b5061037a610865366004614426565b6000918252602082815260408084206001600160a01b0393909316845291905290205460ff1690565b34801561089a57600080fd5b506104096108a93660046144ee565b6121b2565b3480156108ba57600080fd5b506103a4612318565b3480156108cf57600080fd5b5061041c600081565b3480156108e457600080fd5b506104096108f3366004614630565b612327565b34801561090457600080fd5b506109186109133660046145c3565b612429565b604051610386919061465e565b34801561093157600080fd5b5061040961094036600461434c565b61251e565b34801561095157600080fd5b506104096109603660046146d6565b6125fd565b34801561097157600080fd5b5061041c60145481565b34801561098757600080fd5b506103a461099636600461434c565b612686565b3480156109a757600080fd5b5061041c6109b636600461434c565b6127a6565b3480156109c757600080fd5b5061041c7f9f2df0fed2c77648de5860a4cc508cd0818c85b8b8a1ab4ceeef8d981c8956a681565b3480156109fb57600080fd5b50610409610a0a366004614426565b6127bd565b348015610a1b57600080fd5b5061041c60105481565b348015610a3157600080fd5b506103a46127c7565b348015610a4657600080fd5b5061037a610a553660046147b6565b6001600160a01b03918216600090815260076020908152604080832093909416825291909152205460ff1690565b348015610a8f57600080fd5b50610aa3610a9e36600461434c565b6127d6565b604080519889526020890197909752958701949094526060860192909252608085015260a084015260c08301526001600160a01b031660e082015261010001610386565b6000610af28261288e565b80610b0d57506001600160e01b0319821663152a902d60e11b145b92915050565b606060028054610b22906147e4565b80601f0160208091040260200160405190810160405280929190818152602001828054610b4e906147e4565b8015610b9b5780601f10610b7057610100808354040283529160200191610b9b565b820191906000526020600020905b815481529060010190602001808311610b7e57829003601f168201915b5050505050905090565b6000818152600460205260408120546001600160a01b0316610c235760405162461bcd60e51b815260206004820152602c60248201527f4552433732313a20617070726f76656420717565727920666f72206e6f6e657860448201526b34b9ba32b73a103a37b5b2b760a11b60648201526084015b60405180910390fd5b506000908152600660205260409020546001600160a01b031690565b6000610c4a82611f1d565b9050806001600160a01b0316836001600160a01b03161415610cb85760405162461bcd60e51b815260206004820152602160248201527f4552433732313a20617070726f76616c20746f2063757272656e74206f776e656044820152603960f91b6064820152608401610c1a565b806001600160a01b0316610cca6128b3565b6001600160a01b03161480610ce65750610ce681610a556128b3565b610d585760405162461bcd60e51b815260206004820152603860248201527f4552433732313a20617070726f76652063616c6c6572206973206e6f74206f7760448201527f6e6572206e6f7220617070726f76656420666f7220616c6c00000000000000006064820152608401610c1a565b610d6283836128bd565b505050565b610d7460006108656128b3565b610db45760405162461bcd60e51b815260206004820152601160248201527037b7363c9036b7b23ab6329030b236b4b760791b6044820152606401610c1a565b601780546001600160a01b0319166001600160a01b0392909216919091179055565b610de360006108656128b3565b610e235760405162461bcd60e51b815260206004820152601160248201527037b7363c9036b7b23ab6329030b236b4b760791b6044820152606401610c1a565b612710811115610e645760405162461bcd60e51b815260206004820152600c60248201526b0627073203c3d2031303030360a41b6044820152606401610c1a565b60148190556040518181527f244ea8d7627f5a08f4299862bd5a45752842c183aee5b0fb0d1e4887bfa605b3906020015b60405180910390a150565b610eb1610eab6128b3565b8261292b565b610f175760405162461bcd60e51b815260206004820152603160248201527f4552433732313a207472616e736665722063616c6c6572206973206e6f74206f6044820152701ddb995c881b9bdc88185c1c1c9bdd9959607a1b6064820152608401610c1a565b610d62838383612a22565b60165460405163f2aab4b360e01b815230600482015260009182916101009091046001600160a01b03169063f2aab4b39060240160206040518083038186803b158015610f6e57600080fd5b505afa158015610f82573d6000803e3d6000fd5b505050506040513d601f19601f82011682018060405250810190610fa6919061481f565b915061271060145484610fb99190614852565b610fc39190614887565b90509250929050565b610fd68282612be1565b6000828152600160205260409020610d629082612875565b6002600d5414156110415760405162461bcd60e51b815260206004820152601f60248201527f5265656e7472616e637947756172643a207265656e7472616e742063616c6c006044820152606401610c1a565b6002600d556000611050611e20565b90506000601182815481106110675761106761489b565b600091825260209182902060408051610100810182526008909302909101805483526001810154938301939093526002830154908201526003820154606082015260048201546080820152600582015460a0820152600682015460c08201526007909101546001600160a01b031660e08201529050846111295760405162461bcd60e51b815260206004820152600d60248201527f6e656564207175616e74697479000000000000000000000000000000000000006044820152606401610c1a565b600e548560105461113a91906148b1565b11156111885760405162461bcd60e51b815260206004820152601760248201527f657863656564206d617820737570706c79206c696d69740000000000000000006044820152606401610c1a565b600f548560105461119991906148b1565b11156111e75760405162461bcd60e51b815260206004820152601b60248201527f63616e6e6f7420636c61696d20756e6d696e74656420746f6b656e00000000006044820152606401610c1a565b806060015185111561123b5760405162461bcd60e51b815260206004820152600f60248201527f657863656564207478206c696d697400000000000000000000000000000000006044820152606401610c1a565b806020015185826040015161125091906148b1565b111561129e5760405162461bcd60e51b815260206004820152601660248201527f657863656564206d6178206d696e7420737570706c79000000000000000000006044820152606401610c1a565b6000601354836112ae91906148b1565b90506000601260006112be6128b3565b6001600160a01b031681526020808201929092526040908101600090812085825290925290205490508015806112f45750804210155b6113405760405162461bcd60e51b815260206004820152600f60248201527f63616e6e6f74206d696e742079657400000000000000000000000000000000006044820152606401610c1a565b60a0830151156114235760006113546128b3565b60405160200161137c919060609190911b6bffffffffffffffffffffffff1916815260140190565b6040516020818303038152906040528051906020012090506113d587878080602002602001604051908101604052809392919081815260200183836020028082843760009201919091525050505060a086015183612c0e565b6114215760405162461bcd60e51b815260206004820152600e60248201527f696e76616c69642070726f6f66730000000000000000000000000000000000006044820152606401610c1a565b505b86601185815481106114375761143761489b565b9060005260206000209060080201600201600082825461145791906148b1565b909155505060808301514281019081101561147157506000195b806012600061147e6128b3565b6001600160a01b031681526020808201929092526040908101600090812087825290925290205560c0840151156115035760008460c00151896114c19190614852565b90506000612710601554836114d69190614852565b6114e09190614887565b905060006114ee82846148c9565b90506114ff8760e001518284612cbd565b5050505b60105460005b8981101561154f5761152461151c6128b3565b601054612faf565b60016010600082825461153791906148b1565b90915550819050611547816148e0565b915050611509565b506115586128b3565b60408051838152602081018c90529081018890526001600160a01b0391909116907f9cdcf2f7714cca3508c7f0110b04a90a80a3a8dd0e35de99689db74d28c5383e9060600160405180910390a250506001600d5550505050505050565b60006115c183611fa8565b82106116355760405162461bcd60e51b815260206004820152602b60248201527f455243373231456e756d657261626c653a206f776e657220696e646578206f7560448201527f74206f6620626f756e64730000000000000000000000000000000000000000006064820152608401610c1a565b506001600160a01b03919091166000908152600860209081526040808320938352929052205490565b61166b60006108656128b3565b6116ab5760405162461bcd60e51b815260206004820152601160248201527037b7363c9036b7b23ab6329030b236b4b760791b6044820152606401610c1a565b6116b7601983836141a4565b507fe6e4cd5c2dc7d2c20519b41832cd550fd3ea1186bf299d108179bf71fb8e00e582826040516116e99291906148fb565b60405180910390a15050565b6116ff8282612fc9565b6000828152600160205260409020610d629082613061565b61172460006108656128b3565b6117645760405162461bcd60e51b815260206004820152601160248201527037b7363c9036b7b23ab6329030b236b4b760791b6044820152606401610c1a565b600e8190556040518181527ff8cbdbee6d402ad22cddbc250098e39cd0d24f0fad122f64794577167c605df990602001610e95565b6117a660006108656128b3565b6117e65760405162461bcd60e51b815260206004820152601160248201527037b7363c9036b7b23ab6329030b236b4b760791b6044820152606401610c1a565b6011541561181557601154601380546000906118039084906148b1565b90915550611815905060116000614228565b6000805b82811015611b625781156118b8578383828181106118395761183961489b565b905061010002016000013582106118b85760405162461bcd60e51b815260206004820152602960248201527f737461727454696d657374616d70206d75737420626520696e20617363656e6460448201527f696e67206f7264657200000000000000000000000000000000000000000000006064820152608401610c1a565b60008484838181106118cc576118cc61489b565b9050610100020160200135116119245760405162461bcd60e51b815260206004820152601b60248201527f6d6178206d696e7420737570706c792063616e6e6f74206265203000000000006044820152606401610c1a565b60008484838181106119385761193861489b565b9050610100020160600135116119905760405162461bcd60e51b815260206004820152601a60248201527f7175616e74697479206c696d69742063616e6e6f7420626520300000000000006044820152606401610c1a565b60116040518061010001604052808686858181106119b0576119b061489b565b6119c49261010090910201359050426148b1565b81526020018686858181106119db576119db61489b565b9050610100020160200135815260200160008152602001868685818110611a0457611a0461489b565b90506101000201606001358152602001868685818110611a2657611a2661489b565b90506101000201608001358152602001868685818110611a4857611a4861489b565b9050610100020160a001358152602001868685818110611a6a57611a6a61489b565b9050610100020160c001358152602001868685818110611a8c57611a8c61489b565b9050610100020160e0016020810190611aa591906143a6565b6001600160a01b0390811690915282546001808201855560009485526020948590208451600890930201918255938301519381019390935560408201516002840155606082015160038401556080820151600484015560a0820151600584015560c0820151600684015560e090910151600790920180546001600160a01b03191692909116919091179055838382818110611b4257611b4261489b565b905061010002016000013591508080611b5a906148e0565b915050611819565b507f0d81786d9719fff6cc2cf3c64025550dbba243da255d6c5fa0879e8ad6af83cc6011604051611b93919061492a565b60405180910390a1505050565b610d62838383604051806020016040528060008152506125fd565b611bc6610eab6128b3565b611c385760405162461bcd60e51b815260206004820152603060248201527f4552433732314275726e61626c653a2063616c6c6572206973206e6f74206f7760448201527f6e6572206e6f7220617070726f766564000000000000000000000000000000006064820152608401610c1a565b611c4181613076565b50565b611c707f9f2df0fed2c77648de5860a4cc508cd0818c85b8b8a1ab4ceeef8d981c8956a66108656128b3565b611caa5760405162461bcd60e51b815260206004820152600b60248201526a37b7363c9036b4b73a32b960a91b6044820152606401610c1a565b600e54600f54611cbb9083906148b1565b1115611d095760405162461bcd60e51b815260206004820152601560248201527f657863656564206d6178546f74616c537570706c7900000000000000000000006044820152606401610c1a565b600f5460005b82811015611d7457838382818110611d2957611d2961489b565b9050602002810190611d3b91906149c8565b6000848152601a60205260409020611d549290916141a4565b50611d606001836148b1565b915080611d6c816148e0565b915050611d0f565b50600f555050565b6000611d87600a5490565b8210611dfb5760405162461bcd60e51b815260206004820152602c60248201527f455243373231456e756d657261626c653a20676c6f62616c20696e646578206f60448201527f7574206f6620626f756e647300000000000000000000000000000000000000006064820152608401610c1a565b600a8281548110611e0e57611e0e61489b565b90600052602060002001549050919050565b601154600090611e725760405162461bcd60e51b815260206004820152601860248201527f6e6f207075626c6963206d696e7420636f6e646974696f6e00000000000000006044820152606401610c1a565b6011545b8015611ed4576011611e896001836148c9565b81548110611e9957611e9961489b565b9060005260206000209060080201600001544210611ec257611ebc6001826148c9565b91505090565b80611ecc81614a0f565b915050611e76565b5060405162461bcd60e51b815260206004820152601860248201527f6e6f20616374697665206d696e7420636f6e646974696f6e00000000000000006044820152606401610c1a565b6000818152600460205260408120546001600160a01b031680610b0d5760405162461bcd60e51b815260206004820152602960248201527f4552433732313a206f776e657220717565727920666f72206e6f6e657869737460448201527f656e7420746f6b656e00000000000000000000000000000000000000000000006064820152608401610c1a565b60006001600160a01b0382166120265760405162461bcd60e51b815260206004820152602a60248201527f4552433732313a2062616c616e636520717565727920666f7220746865207a6560448201527f726f2061646472657373000000000000000000000000000000000000000000006064820152608401610c1a565b506001600160a01b031660009081526005602052604090205490565b61204f60006108656128b3565b61208f5760405162461bcd60e51b815260206004820152601160248201527037b7363c9036b7b23ab6329030b236b4b760791b6044820152606401610c1a565b6127108111156120d05760405162461bcd60e51b815260206004820152600c60248201526b0627073203c3d2031303030360a41b6044820152606401610c1a565b60158190556040518181527f8c4d35e54a3f2ef1134138fd8ea3daee6a3c89e10d2665996babdf70261e2c7690602001610e95565b61211260006108656128b3565b6121525760405162461bcd60e51b815260206004820152601160248201527037b7363c9036b7b23ab6329030b236b4b760791b6044820152606401610c1a565b6016805460ff19168215159081179091556040519081527ffb4ba02cee22486df888d7ffb97c6100ec3193781e025cb9a4bc6fc358d626cc90602001610e95565b60008281526001602052604081206121ab908361311d565b9392505050565b6016546040805163a217fddf60e01b815290516101009092046001600160a01b0316916391d1485491839163a217fddf91600480820192602092909190829003018186803b15801561220357600080fd5b505afa158015612217573d6000803e3d6000fd5b505050506040513d601f19601f8201168201806040525081019061223b9190614a26565b6122436128b3565b6040516001600160e01b031960e085901b16815260048101929092526001600160a01b0316602482015260440160206040518083038186803b15801561228857600080fd5b505afa15801561229c573d6000803e3d6000fd5b505050506040513d601f19601f820116820180604052508101906122c09190614a3f565b61230c5760405162461bcd60e51b815260206004820152601260248201527f6e6f742070726f746f636f6c2061646d696e00000000000000000000000000006044820152606401610c1a565b610d62601883836141a4565b606060038054610b22906147e4565b61232f6128b3565b6001600160a01b0316826001600160a01b031614156123905760405162461bcd60e51b815260206004820152601960248201527f4552433732313a20617070726f766520746f2063616c6c6572000000000000006044820152606401610c1a565b806007600061239d6128b3565b6001600160a01b03908116825260208083019390935260409182016000908120918716808252919093529120805460ff1916921515929092179091556123e16128b3565b6001600160a01b03167f17307eab39ab6107e8899845ad3d59bd9653f200f220920489ca2b5937696c318360405161241d911515815260200190565b60405180910390a35050565b60608167ffffffffffffffff811115612444576124446146c0565b60405190808252806020026020018201604052801561247757816020015b60608152602001906001900390816124625790505b50905060005b82811015612517576124e73085858481811061249b5761249b61489b565b90506020028101906124ad91906149c8565b8080601f01602080910402602001604051908101604052809392919081815260200183838082843760009201919091525061312992505050565b8282815181106124f9576124f961489b565b6020026020010181905250808061250f906148e0565b91505061247d565b5092915050565b61254a7f9f2df0fed2c77648de5860a4cc508cd0818c85b8b8a1ab4ceeef8d981c8956a66108656128b3565b6125845760405162461bcd60e51b815260206004820152600b60248201526a37b7363c9036b4b73a32b960a91b6044820152606401610c1a565b600e5481600f5461259591906148b1565b11156125e35760405162461bcd60e51b815260206004820152601560248201527f657863656564206d6178546f74616c537570706c7900000000000000000000006044820152606401610c1a565b80600f60008282546125f591906148b1565b909155505050565b61260e6126086128b3565b8361292b565b6126745760405162461bcd60e51b815260206004820152603160248201527f4552433732313a207472616e736665722063616c6c6572206973206e6f74206f6044820152701ddb995c881b9bdc88185c1c1c9bdd9959607a1b6064820152608401610c1a565b6126808484848461314e565b50505050565b606060006126926131cc565b6000848152601a60205260408120805492935090916126b0906147e4565b90501115612757576000838152601a6020526040902080546126d1906147e4565b80601f01602080910402602001604051908101604052809291908181526020018280546126fd906147e4565b801561274a5780601f1061271f5761010080835404028352916020019161274a565b820191906000526020600020905b81548152906001019060200180831161272d57829003601f168201915b5050505050915050919050565b8051156127905780612768846131db565b604051602001612779929190614a5c565b604051602081830303815290604052915050919050565b5050604080516020810190915260008152919050565b6000818152600160205260408120610b0d906132d9565b6116ff82826132e3565b606060188054610b22906147e4565b601181815481106127e657600080fd5b600091825260209091206008909102018054600182015460028301546003840154600485015460058601546006870154600790970154959750939592949193909290916001600160a01b031688565b600c5460009061010090046001600160a01b031633141561285d575060131936013560601c90565b503390565b905090565b612871828261330b565b5050565b60006121ab836001600160a01b0384166133aa565b3390565b60006001600160e01b0319821663780e9d6360e01b1480610b0d5750610b0d826133f9565b6000612862612835565b600081815260066020526040902080546001600160a01b0319166001600160a01b03841690811790915581906128f282611f1d565b6001600160a01b03167f8c5be1e5ebec7d5bd14f71427d1e84f3dd0314c0f7b2291e5b200ac8c7c3b92560405160405180910390a45050565b6000818152600460205260408120546001600160a01b03166129a45760405162461bcd60e51b815260206004820152602c60248201527f4552433732313a206f70657261746f7220717565727920666f72206e6f6e657860448201526b34b9ba32b73a103a37b5b2b760a11b6064820152608401610c1a565b60006129af83611f1d565b9050806001600160a01b0316846001600160a01b031614806129ea5750836001600160a01b03166129df84610ba5565b6001600160a01b0316145b80612a1a57506001600160a01b0380821660009081526007602090815260408083209388168352929052205460ff165b949350505050565b826001600160a01b0316612a3582611f1d565b6001600160a01b031614612ab15760405162461bcd60e51b815260206004820152602960248201527f4552433732313a207472616e73666572206f6620746f6b656e2074686174206960448201527f73206e6f74206f776e00000000000000000000000000000000000000000000006064820152608401610c1a565b6001600160a01b038216612b135760405162461bcd60e51b8152602060048201526024808201527f4552433732313a207472616e7366657220746f20746865207a65726f206164646044820152637265737360e01b6064820152608401610c1a565b612b1e838383613439565b612b296000826128bd565b6001600160a01b0383166000908152600560205260408120805460019290612b529084906148c9565b90915550506001600160a01b0382166000908152600560205260408120805460019290612b809084906148b1565b909155505060008181526004602052604080822080546001600160a01b0319166001600160a01b0386811691821790925591518493918716917fddf252ad1be2c89b69c2b068fc378daa952ba7f163c4a11628f55a4df523b3ef91a4505050565b600082815260208190526040902060010154612c0481612bff6128b3565b61354c565b610d62838361330b565b600081815b8551811015612cb2576000868281518110612c3057612c3061489b565b60200260200101519050808311612c72576040805160208101859052908101829052606001604051602081830303815290604052805190602001209250612c9f565b60408051602081018390529081018490526060016040516020818303038152906040528051906020012092505b5080612caa816148e0565b915050612c13565b509092149392505050565b60175460165460405163f2aab4b360e01b81523060048201526001600160a01b03928316926000926101009004169063f2aab4b39060240160206040518083038186803b158015612d0d57600080fd5b505afa158015612d21573d6000803e3d6000fd5b505050506040513d601f19601f82011682018060405250810190612d45919061481f565b90506001600160a01b038516612dcc57612d5f83856148b1565b3414612dad5760405162461bcd60e51b815260206004820152600f60248201527f76616c756520213d20616d6f756e7400000000000000000000000000000000006044820152606401610c1a565b612db782856135ca565b8215612dc757612dc781846135ca565b612fa8565b846001600160a01b03166323b872dd612de36128b3565b6040516001600160e01b031960e084901b1681526001600160a01b039182166004820152908516602482015260448101879052606401602060405180830381600087803b158015612e3357600080fd5b505af1158015612e47573d6000803e3d6000fd5b505050506040513d601f19601f82011682018060405250810190612e6b9190614a3f565b612eb75760405162461bcd60e51b815260206004820152601a60248201527f6661696c656420746f207472616e73666572207061796d656e740000000000006044820152606401610c1a565b8215612fa857846001600160a01b03166323b872dd612ed46128b3565b6040516001600160e01b031960e084901b1681526001600160a01b039182166004820152908416602482015260448101869052606401602060405180830381600087803b158015612f2457600080fd5b505af1158015612f38573d6000803e3d6000fd5b505050506040513d601f19601f82011682018060405250810190612f5c9190614a3f565b612fa85760405162461bcd60e51b815260206004820152601660248201527f6661696c656420746f207472616e7366657220666565000000000000000000006044820152606401610c1a565b5050505050565b6128718282604051806020016040528060008152506136e3565b612fd16128b3565b6001600160a01b0316816001600160a01b0316146130575760405162461bcd60e51b815260206004820152602f60248201527f416363657373436f6e74726f6c3a2063616e206f6e6c792072656e6f756e636560448201527f20726f6c657320666f722073656c6600000000000000000000000000000000006064820152608401610c1a565b6128718282613761565b60006121ab836001600160a01b0384166137fe565b600061308182611f1d565b905061308f81600084613439565b61309a6000836128bd565b6001600160a01b03811660009081526005602052604081208054600192906130c39084906148c9565b909155505060008281526004602052604080822080546001600160a01b0319169055518391906001600160a01b038416907fddf252ad1be2c89b69c2b068fc378daa952ba7f163c4a11628f55a4df523b3ef908390a45050565b60006121ab83836138f1565b60606121ab8383604051806060016040528060278152602001614ba26027913961391b565b613159848484612a22565b613165848484846139ef565b6126805760405162461bcd60e51b815260206004820152603260248201527f4552433732313a207472616e7366657220746f206e6f6e20455243373231526560448201527131b2b4bb32b91034b6b83632b6b2b73a32b960711b6064820152608401610c1a565b606060198054610b22906147e4565b6060816131ff5750506040805180820190915260018152600360fc1b602082015290565b8160005b81156132295780613213816148e0565b91506132229050600a83614887565b9150613203565b60008167ffffffffffffffff811115613244576132446146c0565b6040519080825280601f01601f19166020018201604052801561326e576020820181803683370190505b5090505b8415612a1a576132836001836148c9565b9150613290600a86614a8b565b61329b9060306148b1565b60f81b8183815181106132b0576132b061489b565b60200101906001600160f81b031916908160001a9053506132d2600a86614887565b9450613272565b6000610b0d825490565b60008281526020819052604090206001015461330181612bff6128b3565b610d628383613761565b6000828152602081815260408083206001600160a01b038516845290915290205460ff16612871576000828152602081815260408083206001600160a01b03851684529091529020805460ff191660011790556133666128b3565b6001600160a01b0316816001600160a01b0316837f2f8788117e7eff1d82e926ec794901d17c78024a50270940304540a733656f0d60405160405180910390a45050565b60008181526001830160205260408120546133f157508154600181810184556000848152602080822090930184905584548482528286019093526040902091909155610b0d565b506000610b0d565b60006001600160e01b031982166380ac58cd60e01b148061342a57506001600160e01b03198216635b5e139f60e01b145b80610b0d5750610b0d82613b4e565b613444838383613b73565b60165460ff16801561345e57506001600160a01b03831615155b801561347257506001600160a01b03821615155b15610d62576001600160a01b03831660009081527f7c7a990f752005aea38438cc35abc5417bd322e6c964ec21d52573494225142c602052604090205460ff16806134f457506001600160a01b03821660009081527f7c7a990f752005aea38438cc35abc5417bd322e6c964ec21d52573494225142c602052604090205460ff165b610d625760405162461bcd60e51b815260206004820152602360248201527f7265737472696374656420746f205452414e534645525f524f4c4520686f6c6460448201526265727360e81b6064820152608401610c1a565b6000828152602081815260408083206001600160a01b038516845290915290205460ff1661287157613588816001600160a01b03166014613bf7565b613593836020613bf7565b6040516020016135a4929190614a9f565b60408051601f198184030181529082905262461bcd60e51b8252610c1a91600401614339565b8047101561361a5760405162461bcd60e51b815260206004820152601d60248201527f416464726573733a20696e73756666696369656e742062616c616e63650000006044820152606401610c1a565b6000826001600160a01b03168260405160006040518083038185875af1925050503d8060008114613667576040519150601f19603f3d011682016040523d82523d6000602084013e61366c565b606091505b5050905080610d625760405162461bcd60e51b815260206004820152603a60248201527f416464726573733a20756e61626c6520746f2073656e642076616c75652c207260448201527f6563697069656e74206d617920686176652072657665727465640000000000006064820152608401610c1a565b6136ed8383613da0565b6136fa60008484846139ef565b610d625760405162461bcd60e51b815260206004820152603260248201527f4552433732313a207472616e7366657220746f206e6f6e20455243373231526560448201527131b2b4bb32b91034b6b83632b6b2b73a32b960711b6064820152608401610c1a565b6000828152602081815260408083206001600160a01b038516845290915290205460ff1615612871576000828152602081815260408083206001600160a01b03851684529091529020805460ff191690556137ba6128b3565b6001600160a01b0316816001600160a01b0316837ff6391f5c32d9c69d2a47ea670b442974b53935d1edc7fd64eb21e047a839171b60405160405180910390a45050565b600081815260018301602052604081205480156138e75760006138226001836148c9565b8554909150600090613836906001906148c9565b905081811461389b5760008660000182815481106138565761385661489b565b90600052602060002001549050808760000184815481106138795761387961489b565b6000918252602080832090910192909255918252600188019052604090208390555b85548690806138ac576138ac614b20565b600190038181906000526020600020016000905590558560010160008681526020019081526020016000206000905560019350505050610b0d565b6000915050610b0d565b60008260000182815481106139085761390861489b565b9060005260206000200154905092915050565b6060833b61397a5760405162461bcd60e51b815260206004820152602660248201527f416464726573733a2064656c65676174652063616c6c20746f206e6f6e2d636f6044820152651b9d1c9858dd60d21b6064820152608401610c1a565b600080856001600160a01b0316856040516139959190614b36565b600060405180830381855af49150503d80600081146139d0576040519150601f19603f3d011682016040523d82523d6000602084013e6139d5565b606091505b50915091506139e5828286613eee565b9695505050505050565b60006001600160a01b0384163b15613b4357836001600160a01b031663150b7a02613a186128b3565b8786866040518563ffffffff1660e01b8152600401613a3a9493929190614b52565b602060405180830381600087803b158015613a5457600080fd5b505af1925050508015613a84575060408051601f3d908101601f19168201909252613a8191810190614b84565b60015b613b29573d808015613ab2576040519150601f19603f3d011682016040523d82523d6000602084013e613ab7565b606091505b508051613b215760405162461bcd60e51b815260206004820152603260248201527f4552433732313a207472616e7366657220746f206e6f6e20455243373231526560448201527131b2b4bb32b91034b6b83632b6b2b73a32b960711b6064820152608401610c1a565b805181602001fd5b6001600160e01b031916630a85bd0160e11b149050612a1a565b506001949350505050565b60006001600160e01b03198216635a05180f60e01b1480610b0d5750610b0d82613f27565b613b7e838383613f5c565b600c5460ff1615610d625760405162461bcd60e51b815260206004820152602b60248201527f4552433732315061757361626c653a20746f6b656e207472616e73666572207760448201527f68696c65207061757365640000000000000000000000000000000000000000006064820152608401610c1a565b60606000613c06836002614852565b613c119060026148b1565b67ffffffffffffffff811115613c2957613c296146c0565b6040519080825280601f01601f191660200182016040528015613c53576020820181803683370190505b509050600360fc1b81600081518110613c6e57613c6e61489b565b60200101906001600160f81b031916908160001a905350600f60fb1b81600181518110613c9d57613c9d61489b565b60200101906001600160f81b031916908160001a9053506000613cc1846002614852565b613ccc9060016148b1565b90505b6001811115613d51577f303132333435363738396162636465660000000000000000000000000000000085600f1660108110613d0d57613d0d61489b565b1a60f81b828281518110613d2357613d2361489b565b60200101906001600160f81b031916908160001a90535060049490941c93613d4a81614a0f565b9050613ccf565b5083156121ab5760405162461bcd60e51b815260206004820181905260248201527f537472696e67733a20686578206c656e67746820696e73756666696369656e746044820152606401610c1a565b6001600160a01b038216613df65760405162461bcd60e51b815260206004820181905260248201527f4552433732313a206d696e7420746f20746865207a65726f20616464726573736044820152606401610c1a565b6000818152600460205260409020546001600160a01b031615613e5b5760405162461bcd60e51b815260206004820152601c60248201527f4552433732313a20746f6b656e20616c7265616479206d696e746564000000006044820152606401610c1a565b613e6760008383613439565b6001600160a01b0382166000908152600560205260408120805460019290613e909084906148b1565b909155505060008181526004602052604080822080546001600160a01b0319166001600160a01b03861690811790915590518392907fddf252ad1be2c89b69c2b068fc378daa952ba7f163c4a11628f55a4df523b3ef908290a45050565b60608315613efd5750816121ab565b825115613f0d5782518084602001fd5b8160405162461bcd60e51b8152600401610c1a9190614339565b60006001600160e01b03198216637965db0b60e01b1480610b0d57506301ffc9a760e01b6001600160e01b0319831614610b0d565b6001600160a01b038316613fb757613fb281600a80546000838152600b60205260408120829055600182018355919091527fc65a7bb8d6351c1cf70c95a316cc6a92839c986682d98bc35f958f4883f9d2a80155565b613fda565b816001600160a01b0316836001600160a01b031614613fda57613fda8382614014565b6001600160a01b038216613ff157610d62816140b1565b826001600160a01b0316826001600160a01b031614610d6257610d628282614160565b6000600161402184611fa8565b61402b91906148c9565b60008381526009602052604090205490915080821461407e576001600160a01b03841660009081526008602090815260408083208584528252808320548484528184208190558352600990915290208190555b5060009182526009602090815260408084208490556001600160a01b039094168352600881528383209183525290812055565b600a546000906140c3906001906148c9565b6000838152600b6020526040812054600a80549394509092849081106140eb576140eb61489b565b9060005260206000200154905080600a838154811061410c5761410c61489b565b6000918252602080832090910192909255828152600b9091526040808220849055858252812055600a80548061414457614144614b20565b6001900381819060005260206000200160009055905550505050565b600061416b83611fa8565b6001600160a01b039093166000908152600860209081526040808320868452825280832085905593825260099052919091209190915550565b8280546141b0906147e4565b90600052602060002090601f0160209004810192826141d25760008555614218565b82601f106141eb5782800160ff19823516178555614218565b82800160010185558215614218579182015b828111156142185782358255916020019190600101906141fd565b50614224929150614249565b5090565b5080546000825560080290600052602060002090810190611c41919061425e565b5b80821115614224576000815560010161424a565b5b80821115614224576000808255600182018190556002820181905560038201819055600482018190556005820181905560068201556007810180546001600160a01b031916905560080161425f565b6001600160e01b031981168114611c4157600080fd5b6000602082840312156142d657600080fd5b81356121ab816142ae565b60005b838110156142fc5781810151838201526020016142e4565b838111156126805750506000910152565b600081518084526143258160208601602086016142e1565b601f01601f19169290920160200192915050565b6020815260006121ab602083018461430d565b60006020828403121561435e57600080fd5b5035919050565b6001600160a01b0381168114611c4157600080fd5b6000806040838503121561438d57600080fd5b823561439881614365565b946020939093013593505050565b6000602082840312156143b857600080fd5b81356121ab81614365565b6000806000606084860312156143d857600080fd5b83356143e381614365565b925060208401356143f381614365565b929592945050506040919091013590565b6000806040838503121561441757600080fd5b50508035926020909101359150565b6000806040838503121561443957600080fd5b82359150602083013561444b81614365565b809150509250929050565b60008083601f84011261446857600080fd5b50813567ffffffffffffffff81111561448057600080fd5b6020830191508360208260051b850101111561449b57600080fd5b9250929050565b6000806000604084860312156144b757600080fd5b83359250602084013567ffffffffffffffff8111156144d557600080fd5b6144e186828701614456565b9497909650939450505050565b6000806020838503121561450157600080fd5b823567ffffffffffffffff8082111561451957600080fd5b818501915085601f83011261452d57600080fd5b81358181111561453c57600080fd5b86602082850101111561454e57600080fd5b60209290920196919550909350505050565b6000806020838503121561457357600080fd5b823567ffffffffffffffff8082111561458b57600080fd5b818501915085601f83011261459f57600080fd5b8135818111156145ae57600080fd5b8660208260081b850101111561454e57600080fd5b600080602083850312156145d657600080fd5b823567ffffffffffffffff8111156145ed57600080fd5b6145f985828601614456565b90969095509350505050565b8015158114611c4157600080fd5b60006020828403121561462557600080fd5b81356121ab81614605565b6000806040838503121561464357600080fd5b823561464e81614365565b9150602083013561444b81614605565b6000602080830181845280855180835260408601915060408160051b870101925083870160005b828110156146b357603f198886030184526146a185835161430d565b94509285019290850190600101614685565b5092979650505050505050565b634e487b7160e01b600052604160045260246000fd5b600080600080608085870312156146ec57600080fd5b84356146f781614365565b9350602085013561470781614365565b925060408501359150606085013567ffffffffffffffff8082111561472b57600080fd5b818701915087601f83011261473f57600080fd5b813581811115614751576147516146c0565b604051601f8201601f19908116603f01168101908382118183101715614779576147796146c0565b816040528281528a602084870101111561479257600080fd5b82602086016020830137600060208483010152809550505050505092959194509250565b600080604083850312156147c957600080fd5b82356147d481614365565b9150602083013561444b81614365565b600181811c908216806147f857607f821691505b6020821081141561481957634e487b7160e01b600052602260045260246000fd5b50919050565b60006020828403121561483157600080fd5b81516121ab81614365565b634e487b7160e01b600052601160045260246000fd5b600081600019048311821515161561486c5761486c61483c565b500290565b634e487b7160e01b600052601260045260246000fd5b60008261489657614896614871565b500490565b634e487b7160e01b600052603260045260246000fd5b600082198211156148c4576148c461483c565b500190565b6000828210156148db576148db61483c565b500390565b60006000198214156148f4576148f461483c565b5060010190565b60208152816020820152818360408301376000818301604090810191909152601f909201601f19160101919050565b60006020808301818452808554808352604092508286019150866000528360002060005b828110156149bb5781548452600180830154878601526002830154868601526003830154606086015260048301546080860152600583015460a0860152600683015460c086015260078301546001600160a01b031660e0860152610100909401936008909201910161494e565b5091979650505050505050565b6000808335601e198436030181126149df57600080fd5b83018035915067ffffffffffffffff8211156149fa57600080fd5b60200191503681900382131561449b57600080fd5b600081614a1e57614a1e61483c565b506000190190565b600060208284031215614a3857600080fd5b5051919050565b600060208284031215614a5157600080fd5b81516121ab81614605565b60008351614a6e8184602088016142e1565b835190830190614a828183602088016142e1565b01949350505050565b600082614a9a57614a9a614871565b500690565b7f416363657373436f6e74726f6c3a206163636f756e7420000000000000000000815260008351614ad78160178501602088016142e1565b7f206973206d697373696e6720726f6c65200000000000000000000000000000006017918401918201528351614b148160288401602088016142e1565b01602801949350505050565b634e487b7160e01b600052603160045260246000fd5b60008251614b488184602087016142e1565b9190910192915050565b60006001600160a01b038087168352808616602084015250836040830152608060608301526139e5608083018461430d565b600060208284031215614b9657600080fd5b81516121ab816142ae56fe416464726573733a206c6f772d6c6576656c2064656c65676174652063616c6c206661696c6564a164736f6c6343000809000a",
  "linkReferences": {},
  "deployedLinkReferences": {}
}