{
  "_format": "hh-sol-artifact-1",
  "contractName": "LazyNFT",
  "sourceName": "contracts/LazyNFT.sol",
  "abi": [
    {
      "inputs": [
        {
          "internalType": "address payable",
          "name": "_controlCenter",
          "type": "address"
        },
        {
          "internalType": "string",
          "name": "_name",
          "type": "string"
        },
        {
          "internalType": "string",
          "name": "_symbol",
          "type": "string"
        },
        {
          "internalType": "address",
          "name": "_trustedForwarder",
          "type": "address"
        },
        {
          "internalType": "string",
          "name": "_contractUri",
          "type": "string"
        },
        {
          "internalType": "string",
          "name": "_baseTokenUri",
          "type": "string"
        },
        {
          "internalType": "uint256",
          "name": "maxSupply",
          "type": "uint256"
        }
      ],
      "stateMutability": "nonpayable",
      "type": "constructor"
    },
    {
      "anonymous": false,
      "inputs": [
        {
          "indexed": true,
          "internalType": "address",
          "name": "owner",
          "type": "address"
        },
        {
          "indexed": true,
          "internalType": "address",
          "name": "approved",
          "type": "address"
        },
        {
          "indexed": true,
          "internalType": "uint256",
          "name": "tokenId",
          "type": "uint256"
        }
      ],
      "name": "Approval",
      "type": "event"
    },
    {
      "anonymous": false,
      "inputs": [
        {
          "indexed": true,
          "internalType": "address",
          "name": "owner",
          "type": "address"
        },
        {
          "indexed": true,
          "internalType": "address",
          "name": "operator",
          "type": "address"
        },
        {
          "indexed": false,
          "internalType": "bool",
          "name": "approved",
          "type": "bool"
        }
      ],
      "name": "ApprovalForAll",
      "type": "event"
    },
    {
      "anonymous": false,
      "inputs": [
        {
          "indexed": false,
          "internalType": "string",
          "name": "uri",
          "type": "string"
        }
      ],
      "name": "BaseTokenURIUpdated",
      "type": "event"
    },
    {
      "anonymous": false,
      "inputs": [
        {
          "indexed": true,
          "internalType": "address",
          "name": "to",
          "type": "address"
        },
        {
          "indexed": false,
          "internalType": "uint256",
          "name": "startTokenId",
          "type": "uint256"
        },
        {
          "indexed": false,
          "internalType": "uint256",
          "name": "quantity",
          "type": "uint256"
        },
        {
          "indexed": false,
          "internalType": "uint256",
          "name": "mintConditionIndex",
          "type": "uint256"
        }
      ],
      "name": "Claimed",
      "type": "event"
    },
    {
      "anonymous": false,
      "inputs": [
        {
          "indexed": true,
          "internalType": "address",
          "name": "to",
          "type": "address"
        },
        {
          "indexed": false,
          "internalType": "uint256",
          "name": "amount",
          "type": "uint256"
        }
      ],
      "name": "FundsWithdrawn",
      "type": "event"
    },
    {
      "anonymous": false,
      "inputs": [
        {
          "indexed": false,
          "internalType": "address",
          "name": "account",
          "type": "address"
        }
      ],
      "name": "Paused",
      "type": "event"
    },
    {
      "anonymous": false,
      "inputs": [
        {
          "components": [
            {
              "internalType": "uint256",
              "name": "startTimestamp",
              "type": "uint256"
            },
            {
              "internalType": "uint256",
              "name": "maxMintSupply",
              "type": "uint256"
            },
            {
              "internalType": "uint256",
              "name": "currentMintSupply",
              "type": "uint256"
            },
            {
              "internalType": "uint256",
              "name": "quantityLimitPerTransaction",
              "type": "uint256"
            },
            {
              "internalType": "uint256",
              "name": "waitTimeSecondsLimitPerTransaction",
              "type": "uint256"
            },
            {
              "internalType": "uint256",
              "name": "pricePerToken",
              "type": "uint256"
            },
            {
              "internalType": "address",
              "name": "currency",
              "type": "address"
            },
            {
              "internalType": "bytes32",
              "name": "merkleRoot",
              "type": "bytes32"
            }
          ],
          "indexed": false,
          "internalType": "struct LazyNFT.PublicMintCondition[]",
          "name": "mintConditions",
          "type": "tuple[]"
        }
      ],
      "name": "PublicMintConditionUpdated",
      "type": "event"
    },
    {
      "anonymous": false,
      "inputs": [
        {
          "indexed": false,
          "internalType": "bool",
          "name": "transferable",
          "type": "bool"
        }
      ],
      "name": "RestrictedTransferUpdated",
      "type": "event"
    },
    {
      "anonymous": false,
      "inputs": [
        {
          "indexed": true,
          "internalType": "bytes32",
          "name": "role",
          "type": "bytes32"
        },
        {
          "indexed": true,
          "internalType": "bytes32",
          "name": "previousAdminRole",
          "type": "bytes32"
        },
        {
          "indexed": true,
          "internalType": "bytes32",
          "name": "newAdminRole",
          "type": "bytes32"
        }
      ],
      "name": "RoleAdminChanged",
      "type": "event"
    },
    {
      "anonymous": false,
      "inputs": [
        {
          "indexed": true,
          "internalType": "bytes32",
          "name": "role",
          "type": "bytes32"
        },
        {
          "indexed": true,
          "internalType": "address",
          "name": "account",
          "type": "address"
        },
        {
          "indexed": true,
          "internalType": "address",
          "name": "sender",
          "type": "address"
        }
      ],
      "name": "RoleGranted",
      "type": "event"
    },
    {
      "anonymous": false,
      "inputs": [
        {
          "indexed": true,
          "internalType": "bytes32",
          "name": "role",
          "type": "bytes32"
        },
        {
          "indexed": true,
          "internalType": "address",
          "name": "account",
          "type": "address"
        },
        {
          "indexed": true,
          "internalType": "address",
          "name": "sender",
          "type": "address"
        }
      ],
      "name": "RoleRevoked",
      "type": "event"
    },
    {
      "anonymous": false,
      "inputs": [
        {
          "indexed": false,
          "internalType": "uint256",
          "name": "royaltyBps",
          "type": "uint256"
        }
      ],
      "name": "RoyaltyUpdated",
      "type": "event"
    },
    {
      "anonymous": false,
      "inputs": [
        {
          "indexed": false,
          "internalType": "uint256",
          "name": "supply",
          "type": "uint256"
        }
      ],
      "name": "TotalSupplyUpdated",
      "type": "event"
    },
    {
      "anonymous": false,
      "inputs": [
        {
          "indexed": true,
          "internalType": "address",
          "name": "from",
          "type": "address"
        },
        {
          "indexed": true,
          "internalType": "address",
          "name": "to",
          "type": "address"
        },
        {
          "indexed": true,
          "internalType": "uint256",
          "name": "tokenId",
          "type": "uint256"
        }
      ],
      "name": "Transfer",
      "type": "event"
    },
    {
      "anonymous": false,
      "inputs": [
        {
          "indexed": false,
          "internalType": "address",
          "name": "account",
          "type": "address"
        }
      ],
      "name": "Unpaused",
      "type": "event"
    },
    {
      "inputs": [],
      "name": "DEFAULT_ADMIN_ROLE",
      "outputs": [
        {
          "internalType": "bytes32",
          "name": "",
          "type": "bytes32"
        }
      ],
      "stateMutability": "view",
      "type": "function"
    },
    {
      "inputs": [],
      "name": "MINTER_ROLE",
      "outputs": [
        {
          "internalType": "bytes32",
          "name": "",
          "type": "bytes32"
        }
      ],
      "stateMutability": "view",
      "type": "function"
    },
    {
      "inputs": [],
      "name": "PAUSER_ROLE",
      "outputs": [
        {
          "internalType": "bytes32",
          "name": "",
          "type": "bytes32"
        }
      ],
      "stateMutability": "view",
      "type": "function"
    },
    {
      "inputs": [],
      "name": "TRANSFER_ROLE",
      "outputs": [
        {
          "internalType": "bytes32",
          "name": "",
          "type": "bytes32"
        }
      ],
      "stateMutability": "view",
      "type": "function"
    },
    {
      "inputs": [
        {
          "internalType": "address",
          "name": "to",
          "type": "address"
        },
        {
          "internalType": "uint256",
          "name": "tokenId",
          "type": "uint256"
        }
      ],
      "name": "approve",
      "outputs": [],
      "stateMutability": "nonpayable",
      "type": "function"
    },
    {
      "inputs": [
        {
          "internalType": "address",
          "name": "owner",
          "type": "address"
        }
      ],
      "name": "balanceOf",
      "outputs": [
        {
          "internalType": "uint256",
          "name": "",
          "type": "uint256"
        }
      ],
      "stateMutability": "view",
      "type": "function"
    },
    {
      "inputs": [
        {
          "internalType": "uint256",
          "name": "tokenId",
          "type": "uint256"
        }
      ],
      "name": "burn",
      "outputs": [],
      "stateMutability": "nonpayable",
      "type": "function"
    },
    {
      "inputs": [
        {
          "internalType": "uint256",
          "name": "quantity",
          "type": "uint256"
        },
        {
          "internalType": "bytes32[]",
          "name": "proofs",
          "type": "bytes32[]"
        }
      ],
      "name": "claim",
      "outputs": [],
      "stateMutability": "payable",
      "type": "function"
    },
    {
      "inputs": [],
      "name": "contractURI",
      "outputs": [
        {
          "internalType": "string",
          "name": "",
          "type": "string"
        }
      ],
      "stateMutability": "view",
      "type": "function"
    },
    {
      "inputs": [
        {
          "internalType": "uint256",
          "name": "tokenId",
          "type": "uint256"
        }
      ],
      "name": "getApproved",
      "outputs": [
        {
          "internalType": "address",
          "name": "",
          "type": "address"
        }
      ],
      "stateMutability": "view",
      "type": "function"
    },
    {
      "inputs": [],
      "name": "getLastStartedMintConditionIndex",
      "outputs": [
        {
          "internalType": "uint256",
          "name": "",
          "type": "uint256"
        }
      ],
      "stateMutability": "view",
      "type": "function"
    },
    {
      "inputs": [
        {
          "internalType": "bytes32",
          "name": "role",
          "type": "bytes32"
        }
      ],
      "name": "getRoleAdmin",
      "outputs": [
        {
          "internalType": "bytes32",
          "name": "",
          "type": "bytes32"
        }
      ],
      "stateMutability": "view",
      "type": "function"
    },
    {
      "inputs": [
        {
          "internalType": "bytes32",
          "name": "role",
          "type": "bytes32"
        },
        {
          "internalType": "uint256",
          "name": "index",
          "type": "uint256"
        }
      ],
      "name": "getRoleMember",
      "outputs": [
        {
          "internalType": "address",
          "name": "",
          "type": "address"
        }
      ],
      "stateMutability": "view",
      "type": "function"
    },
    {
      "inputs": [
        {
          "internalType": "bytes32",
          "name": "role",
          "type": "bytes32"
        }
      ],
      "name": "getRoleMemberCount",
      "outputs": [
        {
          "internalType": "uint256",
          "name": "",
          "type": "uint256"
        }
      ],
      "stateMutability": "view",
      "type": "function"
    },
    {
      "inputs": [
        {
          "internalType": "bytes32",
          "name": "role",
          "type": "bytes32"
        },
        {
          "internalType": "address",
          "name": "account",
          "type": "address"
        }
      ],
      "name": "grantRole",
      "outputs": [],
      "stateMutability": "nonpayable",
      "type": "function"
    },
    {
      "inputs": [
        {
          "internalType": "bytes32",
          "name": "role",
          "type": "bytes32"
        },
        {
          "internalType": "address",
          "name": "account",
          "type": "address"
        }
      ],
      "name": "hasRole",
      "outputs": [
        {
          "internalType": "bool",
          "name": "",
          "type": "bool"
        }
      ],
      "stateMutability": "view",
      "type": "function"
    },
    {
      "inputs": [
        {
          "internalType": "address",
          "name": "owner",
          "type": "address"
        },
        {
          "internalType": "address",
          "name": "operator",
          "type": "address"
        }
      ],
      "name": "isApprovedForAll",
      "outputs": [
        {
          "internalType": "bool",
          "name": "",
          "type": "bool"
        }
      ],
      "stateMutability": "view",
      "type": "function"
    },
    {
      "inputs": [
        {
          "internalType": "address",
          "name": "forwarder",
          "type": "address"
        }
      ],
      "name": "isTrustedForwarder",
      "outputs": [
        {
          "internalType": "bool",
          "name": "",
          "type": "bool"
        }
      ],
      "stateMutability": "view",
      "type": "function"
    },
    {
      "inputs": [
        {
          "internalType": "uint256",
          "name": "amount",
          "type": "uint256"
        }
      ],
      "name": "lazyMintAmount",
      "outputs": [],
      "stateMutability": "nonpayable",
      "type": "function"
    },
    {
      "inputs": [
        {
          "internalType": "string[]",
          "name": "_uris",
          "type": "string[]"
        }
      ],
      "name": "lazyMintBatch",
      "outputs": [],
      "stateMutability": "nonpayable",
      "type": "function"
    },
    {
      "inputs": [],
      "name": "maxTotalSupply",
      "outputs": [
        {
          "internalType": "uint256",
          "name": "",
          "type": "uint256"
        }
      ],
      "stateMutability": "view",
      "type": "function"
    },
    {
      "inputs": [
        {
          "internalType": "uint256",
          "name": "",
          "type": "uint256"
        }
      ],
      "name": "mintConditions",
      "outputs": [
        {
          "internalType": "uint256",
          "name": "startTimestamp",
          "type": "uint256"
        },
        {
          "internalType": "uint256",
          "name": "maxMintSupply",
          "type": "uint256"
        },
        {
          "internalType": "uint256",
          "name": "currentMintSupply",
          "type": "uint256"
        },
        {
          "internalType": "uint256",
          "name": "quantityLimitPerTransaction",
          "type": "uint256"
        },
        {
          "internalType": "uint256",
          "name": "waitTimeSecondsLimitPerTransaction",
          "type": "uint256"
        },
        {
          "internalType": "uint256",
          "name": "pricePerToken",
          "type": "uint256"
        },
        {
          "internalType": "address",
          "name": "currency",
          "type": "address"
        },
        {
          "internalType": "bytes32",
          "name": "merkleRoot",
          "type": "bytes32"
        }
      ],
      "stateMutability": "view",
      "type": "function"
    },
    {
      "inputs": [
        {
          "internalType": "bytes[]",
          "name": "data",
          "type": "bytes[]"
        }
      ],
      "name": "multicall",
      "outputs": [
        {
          "internalType": "bytes[]",
          "name": "results",
          "type": "bytes[]"
        }
      ],
      "stateMutability": "nonpayable",
      "type": "function"
    },
    {
      "inputs": [],
      "name": "name",
      "outputs": [
        {
          "internalType": "string",
          "name": "",
          "type": "string"
        }
      ],
      "stateMutability": "view",
      "type": "function"
    },
    {
      "inputs": [
        {
          "internalType": "address",
          "name": "",
          "type": "address"
        },
        {
          "internalType": "uint256",
          "name": "",
          "type": "uint256"
        }
      ],
      "name": "nextMintTimestampByCondition",
      "outputs": [
        {
          "internalType": "uint256",
          "name": "",
          "type": "uint256"
        }
      ],
      "stateMutability": "view",
      "type": "function"
    },
    {
      "inputs": [],
      "name": "nextMintTokenId",
      "outputs": [
        {
          "internalType": "uint256",
          "name": "",
          "type": "uint256"
        }
      ],
      "stateMutability": "view",
      "type": "function"
    },
    {
      "inputs": [],
      "name": "nextTokenId",
      "outputs": [
        {
          "internalType": "uint256",
          "name": "",
          "type": "uint256"
        }
      ],
      "stateMutability": "view",
      "type": "function"
    },
    {
      "inputs": [
        {
          "internalType": "uint256",
          "name": "tokenId",
          "type": "uint256"
        }
      ],
      "name": "ownerOf",
      "outputs": [
        {
          "internalType": "address",
          "name": "",
          "type": "address"
        }
      ],
      "stateMutability": "view",
      "type": "function"
    },
    {
      "inputs": [],
      "name": "pause",
      "outputs": [],
      "stateMutability": "nonpayable",
      "type": "function"
    },
    {
      "inputs": [],
      "name": "paused",
      "outputs": [
        {
          "internalType": "bool",
          "name": "",
          "type": "bool"
        }
      ],
      "stateMutability": "view",
      "type": "function"
    },
    {
      "inputs": [
        {
          "internalType": "bytes32",
          "name": "role",
          "type": "bytes32"
        },
        {
          "internalType": "address",
          "name": "account",
          "type": "address"
        }
      ],
      "name": "renounceRole",
      "outputs": [],
      "stateMutability": "nonpayable",
      "type": "function"
    },
    {
      "inputs": [
        {
          "internalType": "bytes32",
          "name": "role",
          "type": "bytes32"
        },
        {
          "internalType": "address",
          "name": "account",
          "type": "address"
        }
      ],
      "name": "revokeRole",
      "outputs": [],
      "stateMutability": "nonpayable",
      "type": "function"
    },
    {
      "inputs": [],
      "name": "royaltyBps",
      "outputs": [
        {
          "internalType": "uint256",
          "name": "",
          "type": "uint256"
        }
      ],
      "stateMutability": "view",
      "type": "function"
    },
    {
      "inputs": [
        {
          "internalType": "uint256",
          "name": "",
          "type": "uint256"
        },
        {
          "internalType": "uint256",
          "name": "salePrice",
          "type": "uint256"
        }
      ],
      "name": "royaltyInfo",
      "outputs": [
        {
          "internalType": "address",
          "name": "receiver",
          "type": "address"
        },
        {
          "internalType": "uint256",
          "name": "royaltyAmount",
          "type": "uint256"
        }
      ],
      "stateMutability": "view",
      "type": "function"
    },
    {
      "inputs": [
        {
          "internalType": "address",
          "name": "from",
          "type": "address"
        },
        {
          "internalType": "address",
          "name": "to",
          "type": "address"
        },
        {
          "internalType": "uint256",
          "name": "tokenId",
          "type": "uint256"
        }
      ],
      "name": "safeTransferFrom",
      "outputs": [],
      "stateMutability": "nonpayable",
      "type": "function"
    },
    {
      "inputs": [
        {
          "internalType": "address",
          "name": "from",
          "type": "address"
        },
        {
          "internalType": "address",
          "name": "to",
          "type": "address"
        },
        {
          "internalType": "uint256",
          "name": "tokenId",
          "type": "uint256"
        },
        {
          "internalType": "bytes",
          "name": "_data",
          "type": "bytes"
        }
      ],
      "name": "safeTransferFrom",
      "outputs": [],
      "stateMutability": "nonpayable",
      "type": "function"
    },
    {
      "inputs": [
        {
          "internalType": "address",
          "name": "operator",
          "type": "address"
        },
        {
          "internalType": "bool",
          "name": "approved",
          "type": "bool"
        }
      ],
      "name": "setApprovalForAll",
      "outputs": [],
      "stateMutability": "nonpayable",
      "type": "function"
    },
    {
      "inputs": [
        {
          "internalType": "string",
          "name": "_uri",
          "type": "string"
        }
      ],
      "name": "setBaseTokenURI",
      "outputs": [],
      "stateMutability": "nonpayable",
      "type": "function"
    },
    {
      "inputs": [
        {
          "internalType": "string",
          "name": "_URI",
          "type": "string"
        }
      ],
      "name": "setContractURI",
      "outputs": [],
      "stateMutability": "nonpayable",
      "type": "function"
    },
    {
      "inputs": [
        {
          "internalType": "uint256",
          "name": "maxSupply",
          "type": "uint256"
        }
      ],
      "name": "setMaxTotalSupply",
      "outputs": [],
      "stateMutability": "nonpayable",
      "type": "function"
    },
    {
      "inputs": [
        {
          "components": [
            {
              "internalType": "uint256",
              "name": "startTimestamp",
              "type": "uint256"
            },
            {
              "internalType": "uint256",
              "name": "maxMintSupply",
              "type": "uint256"
            },
            {
              "internalType": "uint256",
              "name": "currentMintSupply",
              "type": "uint256"
            },
            {
              "internalType": "uint256",
              "name": "quantityLimitPerTransaction",
              "type": "uint256"
            },
            {
              "internalType": "uint256",
              "name": "waitTimeSecondsLimitPerTransaction",
              "type": "uint256"
            },
            {
              "internalType": "uint256",
              "name": "pricePerToken",
              "type": "uint256"
            },
            {
              "internalType": "address",
              "name": "currency",
              "type": "address"
            },
            {
              "internalType": "bytes32",
              "name": "merkleRoot",
              "type": "bytes32"
            }
          ],
          "internalType": "struct LazyNFT.PublicMintCondition[]",
          "name": "conditions",
          "type": "tuple[]"
        }
      ],
      "name": "setPublicMintConditions",
      "outputs": [],
      "stateMutability": "nonpayable",
      "type": "function"
    },
    {
      "inputs": [
        {
          "internalType": "bool",
          "name": "_restrictedTransfer",
          "type": "bool"
        }
      ],
      "name": "setRestrictedTransfer",
      "outputs": [],
      "stateMutability": "nonpayable",
      "type": "function"
    },
    {
      "inputs": [
        {
          "internalType": "uint256",
          "name": "_royaltyBps",
          "type": "uint256"
        }
      ],
      "name": "setRoyaltyBps",
      "outputs": [],
      "stateMutability": "nonpayable",
      "type": "function"
    },
    {
      "inputs": [
        {
          "internalType": "bytes4",
          "name": "interfaceId",
          "type": "bytes4"
        }
      ],
      "name": "supportsInterface",
      "outputs": [
        {
          "internalType": "bool",
          "name": "",
          "type": "bool"
        }
      ],
      "stateMutability": "view",
      "type": "function"
    },
    {
      "inputs": [],
      "name": "symbol",
      "outputs": [
        {
          "internalType": "string",
          "name": "",
          "type": "string"
        }
      ],
      "stateMutability": "view",
      "type": "function"
    },
    {
      "inputs": [
        {
          "internalType": "uint256",
          "name": "index",
          "type": "uint256"
        }
      ],
      "name": "tokenByIndex",
      "outputs": [
        {
          "internalType": "uint256",
          "name": "",
          "type": "uint256"
        }
      ],
      "stateMutability": "view",
      "type": "function"
    },
    {
      "inputs": [
        {
          "internalType": "address",
          "name": "owner",
          "type": "address"
        },
        {
          "internalType": "uint256",
          "name": "index",
          "type": "uint256"
        }
      ],
      "name": "tokenOfOwnerByIndex",
      "outputs": [
        {
          "internalType": "uint256",
          "name": "",
          "type": "uint256"
        }
      ],
      "stateMutability": "view",
      "type": "function"
    },
    {
      "inputs": [
        {
          "internalType": "uint256",
          "name": "tokenId",
          "type": "uint256"
        }
      ],
      "name": "tokenURI",
      "outputs": [
        {
          "internalType": "string",
          "name": "",
          "type": "string"
        }
      ],
      "stateMutability": "view",
      "type": "function"
    },
    {
      "inputs": [],
      "name": "totalSupply",
      "outputs": [
        {
          "internalType": "uint256",
          "name": "",
          "type": "uint256"
        }
      ],
      "stateMutability": "view",
      "type": "function"
    },
    {
      "inputs": [
        {
          "internalType": "address",
          "name": "from",
          "type": "address"
        },
        {
          "internalType": "address",
          "name": "to",
          "type": "address"
        },
        {
          "internalType": "uint256",
          "name": "tokenId",
          "type": "uint256"
        }
      ],
      "name": "transferFrom",
      "outputs": [],
      "stateMutability": "nonpayable",
      "type": "function"
    },
    {
      "inputs": [],
      "name": "transfersRestricted",
      "outputs": [
        {
          "internalType": "bool",
          "name": "",
          "type": "bool"
        }
      ],
      "stateMutability": "view",
      "type": "function"
    },
    {
      "inputs": [],
      "name": "unpause",
      "outputs": [],
      "stateMutability": "nonpayable",
      "type": "function"
    },
    {
      "inputs": [],
      "name": "withdrawFunds",
      "outputs": [],
      "stateMutability": "nonpayable",
      "type": "function"
    }
  ],
  "bytecode": "0x60806040523480156200001157600080fd5b5060405162005683380380620056838339810160408190526200003491620004e5565b83868681600290805190602001906200004f92919062000355565b5080516200006590600390602084019062000355565b5050600c80546001600160a81b0319166101006001600160a01b039485168102919091179091556001600d55600e8054610100600160a81b031916938b1690910292909217909155508251620000c390601490602086019062000355565b508151620000d990601590602085019062000355565b50600f819055620000f56000620000ef6200018f565b620001ab565b620001247f9f2df0fed2c77648de5860a4cc508cd0818c85b8b8a1ab4ceeef8d981c8956a6620000ef6200018f565b620001537f65d7a28e3265b37a6474929f336521b332c1681b933f6cb9f3376673440d862a620000ef6200018f565b620001827f8502233096d909befbda0999bb8ea2f3a6be3c138b9fbf003752a4c8bce86f6c620000ef6200018f565b505050505050506200060b565b6000620001a6620001ee60201b62002da31760201c565b905090565b620001c282826200022d60201b62002dd51760201c565b6000828152600160209081526040909120620001e991839062002de36200023d821b17901c565b505050565b600c546000906001600160a01b036101009091041633141562000218575060131936013560601c90565b620001a66200025d60201b62002df81760201c565b62000239828262000261565b5050565b600062000254836001600160a01b03841662000303565b90505b92915050565b3390565b6000828152602081815260408083206001600160a01b038516845290915290205460ff1662000239576000828152602081815260408083206001600160a01b03851684529091529020805460ff19166001179055620002bf6200018f565b6001600160a01b0316816001600160a01b0316837f2f8788117e7eff1d82e926ec794901d17c78024a50270940304540a733656f0d60405160405180910390a45050565b60008181526001830160205260408120546200034c5750815460018181018455600084815260208082209093018490558454848252828601909352604090209190915562000257565b50600062000257565b8280546200036390620005ce565b90600052602060002090601f016020900481019282620003875760008555620003d2565b82601f10620003a257805160ff1916838001178555620003d2565b82800160010185558215620003d2579182015b82811115620003d2578251825591602001919060010190620003b5565b50620003e0929150620003e4565b5090565b5b80821115620003e05760008155600101620003e5565b80516001600160a01b03811681146200041357600080fd5b919050565b634e487b7160e01b600052604160045260246000fd5b600082601f8301126200044057600080fd5b81516001600160401b03808211156200045d576200045d62000418565b604051601f8301601f19908116603f0116810190828211818310171562000488576200048862000418565b81604052838152602092508683858801011115620004a557600080fd5b600091505b83821015620004c95785820183015181830184015290820190620004aa565b83821115620004db5760008385830101525b9695505050505050565b600080600080600080600060e0888a0312156200050157600080fd5b6200050c88620003fb565b60208901519097506001600160401b03808211156200052a57600080fd5b620005388b838c016200042e565b975060408a01519150808211156200054f57600080fd5b6200055d8b838c016200042e565b96506200056d60608b01620003fb565b955060808a01519150808211156200058457600080fd5b620005928b838c016200042e565b945060a08a0151915080821115620005a957600080fd5b50620005b88a828b016200042e565b92505060c0880151905092959891949750929550565b600181811c90821680620005e357607f821691505b602082108114156200060557634e487b7160e01b600052602260045260246000fd5b50919050565b615068806200061b6000396000f3fe60806040526004361061034a5760003560e01c80635c975abb116101bb578063a22cb465116100f7578063d539139311610095578063e88fbd411161006f578063e88fbd41146109ec578063e8a3d48514610a02578063e985e9c514610a17578063fd59855014610a6057600080fd5b8063d539139314610964578063d547741f14610998578063e63ab1e9146109b857600080fd5b8063b88d4fde116100d1578063b88d4fde146108ee578063c63adb2b1461090e578063c87b56dd14610924578063ca15c8731461094457600080fd5b8063a22cb46514610881578063ac9650d8146108a1578063b7cdd0bc146108ce57600080fd5b80638456cb591161016457806391d148541161013e57806391d14854146107f3578063938e3d7b1461083757806395d89b4114610857578063a217fddf1461086c57600080fd5b80638456cb591461079e5780638ba448c2146107b35780639010d07c146107d357600080fd5b806370a082311161019557806370a082311461074e57806375794a3c1461076e5780638423df791461078457600080fd5b80635c975abb146107015780635da53d58146107195780636352211e1461072e57600080fd5b80632ab4d0521161028a5780633f3e4c111161023357806342966c681161020d57806342966c681461066d5780634ce40a321461068d5780634f6ccce7146106ad578063572b6c05146106cd57600080fd5b80633f3e4c11146106185780633f4ba83a1461063857806342842e0e1461064d57600080fd5b80632f745c59116102645780632f745c59146105b857806330176e13146105d857806336568abe146105f857600080fd5b80632ab4d0521461056f5780632f2ff15d146105855780632f52ebb7146105a557600080fd5b80631edab081116102f757806323b872dd116102d157806323b872dd146104cb57806324600fc3146104eb578063248a9ca3146105005780632a55205a1461053057600080fd5b80631edab0811461043f5780631f72d83114610477578063206b60f91461049757600080fd5b8063095ea7b311610328578063095ea7b3146103de5780630a5d64011461040057806318160ddd1461042057600080fd5b806301ffc9a71461034f57806306fdde0314610384578063081812fc146103a6575b600080fd5b34801561035b57600080fd5b5061036f61036a366004614725565b610ac4565b60405190151581526020015b60405180910390f35b34801561039057600080fd5b50610399610af0565b60405161037b919061479a565b3480156103b257600080fd5b506103c66103c13660046147ad565b610b82565b6040516001600160a01b03909116815260200161037b565b3480156103ea57600080fd5b506103fe6103f93660046147db565b610c1c565b005b34801561040c57600080fd5b506103fe61041b366004614807565b610d44565b34801561042c57600080fd5b50600a545b60405190815260200161037b565b34801561044b57600080fd5b5061043161045a3660046147db565b601360209081526000928352604080842090915290825290205481565b34801561048357600080fd5b506103fe6104923660046147ad565b61117f565b3480156104a357600080fd5b506104317f8502233096d909befbda0999bb8ea2f3a6be3c138b9fbf003752a4c8bce86f6c81565b3480156104d757600080fd5b506103fe6104e636600461487c565b611319565b3480156104f757600080fd5b506103fe61139b565b34801561050c57600080fd5b5061043161051b3660046147ad565b60009081526020819052604090206001015490565b34801561053c57600080fd5b5061055061054b3660046148bd565b61167f565b604080516001600160a01b03909316835260208301919091520161037b565b34801561057b57600080fd5b50610431600f5481565b34801561059157600080fd5b506103fe6105a03660046148df565b6117be565b6103fe6105b336600461495b565b6117e0565b3480156105c457600080fd5b506104316105d33660046147db565b611dbb565b3480156105e457600080fd5b506103fe6105f33660046149a7565b611e63565b34801561060457600080fd5b506103fe6106133660046148df565b611eff565b34801561062457600080fd5b506103fe6106333660046147ad565b611f21565b34801561064457600080fd5b506103fe611fa8565b34801561065957600080fd5b506103fe61066836600461487c565b612038565b34801561067957600080fd5b506103fe6106883660046147ad565b612053565b34801561069957600080fd5b506103fe6106a8366004614a07565b6120dc565b3480156106b957600080fd5b506104316106c83660046147ad565b612289565b3480156106d957600080fd5b5061036f6106e8366004614a49565b600c5461010090046001600160a01b0390811691161490565b34801561070d57600080fd5b50600c5460ff1661036f565b34801561072557600080fd5b5061043161232d565b34801561073a57600080fd5b506103c66107493660046147ad565b61242a565b34801561075a57600080fd5b50610431610769366004614a49565b6124b5565b34801561077a57600080fd5b5061043160105481565b34801561079057600080fd5b50600e5461036f9060ff1681565b3480156107aa57600080fd5b506103fe61254f565b3480156107bf57600080fd5b506103fe6107ce366004614a74565b6125db565b3480156107df57600080fd5b506103c66107ee3660046148bd565b61266e565b3480156107ff57600080fd5b5061036f61080e3660046148df565b6000918252602082815260408084206001600160a01b0393909316845291905290205460ff1690565b34801561084357600080fd5b506103fe6108523660046149a7565b61268d565b34801561086357600080fd5b5061039961280e565b34801561087857600080fd5b50610431600081565b34801561088d57600080fd5b506103fe61089c366004614a91565b61281d565b3480156108ad57600080fd5b506108c16108bc366004614a07565b61291f565b60405161037b9190614abf565b3480156108da57600080fd5b506103fe6108e93660046147ad565b612a14565b3480156108fa57600080fd5b506103fe610909366004614b37565b612b68565b34801561091a57600080fd5b5061043160175481565b34801561093057600080fd5b5061039961093f3660046147ad565b612bf1565b34801561095057600080fd5b5061043161095f3660046147ad565b612d11565b34801561097057600080fd5b506104317f9f2df0fed2c77648de5860a4cc508cd0818c85b8b8a1ab4ceeef8d981c8956a681565b3480156109a457600080fd5b506103fe6109b33660046148df565b612d28565b3480156109c457600080fd5b506104317f65d7a28e3265b37a6474929f336521b332c1681b933f6cb9f3376673440d862a81565b3480156109f857600080fd5b5061043160115481565b348015610a0e57600080fd5b50610399612d32565b348015610a2357600080fd5b5061036f610a32366004614c17565b6001600160a01b03918216600090815260076020908152604080832093909416825291909152205460ff1690565b348015610a6c57600080fd5b50610a80610a7b3660046147ad565b612d41565b604080519889526020890197909752958701949094526060860192909252608085015260a08401526001600160a01b031660c083015260e08201526101000161037b565b6000610acf82612dfc565b80610aea57506001600160e01b0319821663152a902d60e11b145b92915050565b606060028054610aff90614c45565b80601f0160208091040260200160405190810160405280929190818152602001828054610b2b90614c45565b8015610b785780601f10610b4d57610100808354040283529160200191610b78565b820191906000526020600020905b815481529060010190602001808311610b5b57829003601f168201915b5050505050905090565b6000818152600460205260408120546001600160a01b0316610c005760405162461bcd60e51b815260206004820152602c60248201527f4552433732313a20617070726f76656420717565727920666f72206e6f6e657860448201526b34b9ba32b73a103a37b5b2b760a11b60648201526084015b60405180910390fd5b506000908152600660205260409020546001600160a01b031690565b6000610c278261242a565b9050806001600160a01b0316836001600160a01b03161415610c955760405162461bcd60e51b815260206004820152602160248201527f4552433732313a20617070726f76616c20746f2063757272656e74206f776e656044820152603960f91b6064820152608401610bf7565b806001600160a01b0316610ca7612e21565b6001600160a01b03161480610cc35750610cc381610a32612e21565b610d355760405162461bcd60e51b815260206004820152603860248201527f4552433732313a20617070726f76652063616c6c6572206973206e6f74206f7760448201527f6e6572206e6f7220617070726f76656420666f7220616c6c00000000000000006064820152608401610bf7565b610d3f8383612e2b565b505050565b610d51600061080e612e21565b610d965760405162461bcd60e51b81526020600482015260166024820152756f6e6c79206d6f64756c652061646d696e20726f6c6560501b6044820152606401610bf7565b80610de35760405162461bcd60e51b815260206004820152601f60248201527f4e46543a206e656564732061206c697374206f6620636f6e646974696f6e73006044820152606401610bf7565b610def60126000614605565b6000805b82811015611141578115610e9257838382818110610e1357610e13614c80565b90506101000201600001358210610e925760405162461bcd60e51b815260206004820152602e60248201527f4e46543a20737461727454696d657374616d70206d75737420626520696e206160448201527f7363656e64696e67206f726465720000000000000000000000000000000000006064820152608401610bf7565b6000848483818110610ea657610ea6614c80565b905061010002016020013511610efe5760405162461bcd60e51b815260206004820181905260248201527f4e46543a206d6178206d696e7420737570706c792063616e6e6f7420626520306044820152606401610bf7565b6000848483818110610f1257610f12614c80565b905061010002016060013511610f6a5760405162461bcd60e51b815260206004820152601f60248201527f4e46543a207175616e74697479206c696d69742063616e6e6f742062652030006044820152606401610bf7565b6012604051806101000160405280868685818110610f8a57610f8a614c80565b610f9e926101009091020135905042614cac565b8152602001868685818110610fb557610fb5614c80565b9050610100020160200135815260200160008152602001868685818110610fde57610fde614c80565b9050610100020160600135815260200186868581811061100057611000614c80565b9050610100020160800135815260200186868581811061102257611022614c80565b9050610100020160a00135815260200186868581811061104457611044614c80565b9050610100020160c001602081019061105d9190614a49565b6001600160a01b0316815260200186868581811061107d5761107d614c80565b610100029190910160e0908101359092525082546001808201855560009485526020948590208451600890930201918255938301519381019390935560408201516002840155606082015160038401556080820151600484015560a0820151600584015560c08201516006840180546001600160a01b0319166001600160a01b03909216919091179055015160079091015583838281811061112157611121614c80565b90506101000201600001359150808061113990614cc4565b915050610df3565b507f795ebb3cd534c0d92268a24227e2bbdaaeea1845941e89f38d14abffec69340360126040516111729190614cdf565b60405180910390a1505050565b61118c600061080e612e21565b6111d15760405162461bcd60e51b81526020600482015260166024820152756f6e6c79206d6f64756c652061646d696e20726f6c6560501b6044820152606401610bf7565b600e60019054906101000a90046001600160a01b03166001600160a01b031663fd967f476040518163ffffffff1660e01b815260040160206040518083038186803b15801561121f57600080fd5b505afa158015611233573d6000803e3d6000fd5b505050506040513d601f19601f820116820180604052508101906112579190614d7d565b6fffffffffffffffffffffffffffffffff1681106112dd5760405162461bcd60e51b815260206004820152602a60248201527f4e46543a204270732070726f7669646564206d757374206265206c657373207460448201527f68616e2031302c303030000000000000000000000000000000000000000000006064820152608401610bf7565b60178190556040518181527f244ea8d7627f5a08f4299862bd5a45752842c183aee5b0fb0d1e4887bfa605b3906020015b60405180910390a150565b61132a611324612e21565b82612e99565b6113905760405162461bcd60e51b815260206004820152603160248201527f4552433732313a207472616e736665722063616c6c6572206973206e6f74206f6044820152701ddb995c881b9bdc88185c1c1c9bdd9959607a1b6064820152608401610bf7565b610d3f838383612f90565b600e546040805163a217fddf60e01b815290516101009092046001600160a01b0316916391d1485491839163a217fddf91600480820192602092909190829003018186803b1580156113ec57600080fd5b505afa158015611400573d6000803e3d6000fd5b505050506040513d601f19601f820116820180604052508101906114249190614daf565b61142c612e21565b6040516001600160e01b031960e085901b16815260048101929092526001600160a01b0316602482015260440160206040518083038186803b15801561147157600080fd5b505afa158015611485573d6000803e3d6000fd5b505050506040513d601f19601f820116820180604052508101906114a99190614dc8565b6115105760405162461bcd60e51b815260206004820152603260248201527f4e46543a206f6e6c7920612070726f746f636f6c2061646d696e2063616e206360448201527130b636103a3434b990333ab731ba34b7b71760711b6064820152608401610bf7565b600e5460405163f2aab4b360e01b815230600482015260009161010090046001600160a01b03169063f2aab4b39060240160206040518083038186803b15801561155957600080fd5b505afa15801561156d573d6000803e3d6000fd5b505050506040513d601f19601f820116820180604052508101906115919190614de5565b60405190915047906000906001600160a01b0384169083908381818185875af1925050503d80600081146115e1576040519150601f19603f3d011682016040523d82523d6000602084013e6115e6565b606091505b50509050806116375760405162461bcd60e51b815260206004820152601d60248201527f4e46543a206661696c656420746f2077697468647261772066756e64730000006044820152606401610bf7565b826001600160a01b03167feaff4b37086828766ad3268786972c0cd24259d4c87a80f9d3963a3c3d999b0d8360405161167291815260200190565b60405180910390a2505050565b600e5460405163f2aab4b360e01b815230600482015260009182916101009091046001600160a01b03169063f2aab4b39060240160206040518083038186803b1580156116cb57600080fd5b505afa1580156116df573d6000803e3d6000fd5b505050506040513d601f19601f820116820180604052508101906117039190614de5565b9150600e60019054906101000a90046001600160a01b03166001600160a01b031663fd967f476040518163ffffffff1660e01b815260040160206040518083038186803b15801561175357600080fd5b505afa158015611767573d6000803e3d6000fd5b505050506040513d601f19601f8201168201806040525081019061178b9190614d7d565b6fffffffffffffffffffffffffffffffff16601754846117ab9190614e02565b6117b59190614e37565b90509250929050565b6117c8828261314f565b6000828152600160205260409020610d3f9082612de3565b6002600d5414156118335760405162461bcd60e51b815260206004820152601f60248201527f5265656e7472616e637947756172643a207265656e7472616e742063616c6c006044820152606401610bf7565b6002600d55600c5460ff161561187e5760405162461bcd60e51b815260206004820152601060248201526f14185d5cd8589b194e881c185d5cd95960821b6044820152606401610bf7565b600061188861232d565b905060006012828154811061189f5761189f614c80565b600091825260209182902060408051610100810182526008909302909101805483526001810154938301939093526002830154908201526003820154606082015260048201546080820152600582015460a082015260068201546001600160a01b031660c082015260079091015460e08201529050846119615760405162461bcd60e51b815260206004820152601960248201527f4e46543a207175616e746974792063616e6e6f742062652030000000000000006044820152606401610bf7565b600f54856011546119729190614cac565b11156119ce5760405162461bcd60e51b815260206004820152602560248201527f4e46543a20657863656564696e6720746f74616c206d617820737570706c79206044820152641b1a5b5a5d60da1b6064820152608401610bf7565b601054856011546119df9190614cac565b1115611a2d5760405162461bcd60e51b815260206004820181905260248201527f4e46543a2063616e6e6f7420636c61696d20756e6d696e74656420746f6b656e6044820152606401610bf7565b8060600151851115611a815760405162461bcd60e51b815260206004820152601b60248201527f4e46543a20657863656564696e6720737570706c79206c696d697400000000006044820152606401610bf7565b8060200151858260400151611a969190614cac565b1115611ae45760405162461bcd60e51b815260206004820152601e60248201527f4e46543a20657863656564696e67206d6178206d696e7420737570706c7900006044820152606401610bf7565b600060136000611af2612e21565b6001600160a01b03168152602080820192909252604090810160009081208682529092529020549050801580611b285750804210155b611b835760405162461bcd60e51b815260206004820152602660248201527f4e46543a2063616e6e6f74206d696e74207965742064756520746f2074696d65604482015265081b1a5b5a5d60d21b6064820152608401610bf7565b60e082015115611c66576000611b97612e21565b604051602001611bbf919060609190911b6bffffffffffffffffffffffff1916815260140190565b604051602081830303815290604052805190602001209050611c1886868080602002602001604051908101604052809392919081815260200183836020028082843760009201919091525050505060e08501518361317c565b611c645760405162461bcd60e51b815260206004820152601a60248201527f4e46543a20696e76616c6964206d65726b6c652070726f6f66730000000000006044820152606401610bf7565b505b60a082015115611c8d57611c8d8260c001518360a0015188611c889190614e02565b61322b565b8560128481548110611ca157611ca1614c80565b90600052602060002090600802016002016000828254611cc19190614cac565b90915550506080820151611cd59042614cac565b60136000611ce1612e21565b6001600160a01b0316815260208082019290925260409081016000908120878252909252812091909155601154905b87811015611d5657611d2b611d23612e21565b6011546133f1565b600160116000828254611d3e9190614cac565b90915550819050611d4e81614cc4565b915050611d10565b50611d5f612e21565b60408051838152602081018a90529081018690526001600160a01b0391909116907f9cdcf2f7714cca3508c7f0110b04a90a80a3a8dd0e35de99689db74d28c5383e9060600160405180910390a250506001600d555050505050565b6000611dc6836124b5565b8210611e3a5760405162461bcd60e51b815260206004820152602b60248201527f455243373231456e756d657261626c653a206f776e657220696e646578206f7560448201527f74206f6620626f756e64730000000000000000000000000000000000000000006064820152608401610bf7565b506001600160a01b03919091166000908152600860209081526040808320938352929052205490565b611e70600061080e612e21565b611eb55760405162461bcd60e51b81526020600482015260166024820152756f6e6c79206d6f64756c652061646d696e20726f6c6560501b6044820152606401610bf7565b611ec160158383614626565b507fe6e4cd5c2dc7d2c20519b41832cd550fd3ea1186bf299d108179bf71fb8e00e58282604051611ef3929190614e4b565b60405180910390a15050565b611f09828261340b565b6000828152600160205260409020610d3f90826134a3565b611f2e600061080e612e21565b611f735760405162461bcd60e51b81526020600482015260166024820152756f6e6c79206d6f64756c652061646d696e20726f6c6560501b6044820152606401610bf7565b600f8190556040518181527ff8cbdbee6d402ad22cddbc250098e39cd0d24f0fad122f64794577167c605df99060200161130e565b611fd47f65d7a28e3265b37a6474929f336521b332c1681b933f6cb9f3376673440d862a61080e612e21565b61202e5760405162461bcd60e51b815260206004820152602560248201527f4e46543a206d75737420686176652070617573657220726f6c6520746f20756e604482015264706175736560d81b6064820152608401610bf7565b6120366134b8565b565b610d3f83838360405180602001604052806000815250612b68565b61205e611324612e21565b6120d05760405162461bcd60e51b815260206004820152603060248201527f4552433732314275726e61626c653a2063616c6c6572206973206e6f74206f7760448201527f6e6572206e6f7220617070726f766564000000000000000000000000000000006064820152608401610bf7565b6120d98161355a565b50565b600c5460ff16156121225760405162461bcd60e51b815260206004820152601060248201526f14185d5cd8589b194e881c185d5cd95960821b6044820152606401610bf7565b61214e7f9f2df0fed2c77648de5860a4cc508cd0818c85b8b8a1ab4ceeef8d981c8956a661080e612e21565b6121a55760405162461bcd60e51b815260206004820152602260248201527f4e46543a206d7573742068617665206d696e74657220726f6c6520746f206d696044820152611b9d60f21b6064820152608401610bf7565b600f546010546121b6908390614cac565b11156122165760405162461bcd60e51b815260206004820152602960248201527f4e46543a2063616e6e6f74206d696e74206d6f7265207468616e206d6178546f60448201526874616c537570706c7960b81b6064820152608401610bf7565b60105460005b828110156122815783838281811061223657612236614c80565b90506020028101906122489190614e7a565b6000848152601660205260409020612261929091614626565b5061226d600183614cac565b91508061227981614cc4565b91505061221c565b506010555050565b6000612294600a5490565b82106123085760405162461bcd60e51b815260206004820152602c60248201527f455243373231456e756d657261626c653a20676c6f62616c20696e646578206f60448201527f7574206f6620626f756e647300000000000000000000000000000000000000006064820152608401610bf7565b600a828154811061231b5761231b614c80565b90600052602060002001549050919050565b60125460009061237f5760405162461bcd60e51b815260206004820152601d60248201527f4e46543a206e6f207075626c6963206d696e7420636f6e646974696f6e0000006044820152606401610bf7565b6012545b80156123e1576012612396600183614ec1565b815481106123a6576123a6614c80565b90600052602060002090600802016000015442106123cf576123c9600182614ec1565b91505090565b806123d981614ed8565b915050612383565b5060405162461bcd60e51b815260206004820152601d60248201527f4e46543a206e6f20616374697665206d696e7420636f6e646974696f6e0000006044820152606401610bf7565b6000818152600460205260408120546001600160a01b031680610aea5760405162461bcd60e51b815260206004820152602960248201527f4552433732313a206f776e657220717565727920666f72206e6f6e657869737460448201527f656e7420746f6b656e00000000000000000000000000000000000000000000006064820152608401610bf7565b60006001600160a01b0382166125335760405162461bcd60e51b815260206004820152602a60248201527f4552433732313a2062616c616e636520717565727920666f7220746865207a6560448201527f726f2061646472657373000000000000000000000000000000000000000000006064820152608401610bf7565b506001600160a01b031660009081526005602052604090205490565b61257b7f65d7a28e3265b37a6474929f336521b332c1681b933f6cb9f3376673440d862a61080e612e21565b6125d35760405162461bcd60e51b815260206004820152602360248201527f4e46543a206d75737420686176652070617573657220726f6c6520746f20706160448201526275736560e81b6064820152608401610bf7565b612036613601565b6125e8600061080e612e21565b61262d5760405162461bcd60e51b81526020600482015260166024820152756f6e6c79206d6f64756c652061646d696e20726f6c6560501b6044820152606401610bf7565b600e805460ff19168215159081179091556040519081527ffb4ba02cee22486df888d7ffb97c6100ec3193781e025cb9a4bc6fc358d626cc9060200161130e565b6000828152600160205260408120612686908361367d565b9392505050565b600e546040805163a217fddf60e01b815290516101009092046001600160a01b0316916391d1485491839163a217fddf91600480820192602092909190829003018186803b1580156126de57600080fd5b505afa1580156126f2573d6000803e3d6000fd5b505050506040513d601f19601f820116820180604052508101906127169190614daf565b61271e612e21565b6040516001600160e01b031960e085901b16815260048101929092526001600160a01b0316602482015260440160206040518083038186803b15801561276357600080fd5b505afa158015612777573d6000803e3d6000fd5b505050506040513d601f19601f8201168201806040525081019061279b9190614dc8565b6128025760405162461bcd60e51b815260206004820152603260248201527f4e46543a206f6e6c7920612070726f746f636f6c2061646d696e2063616e206360448201527130b636103a3434b990333ab731ba34b7b71760711b6064820152608401610bf7565b610d3f60148383614626565b606060038054610aff90614c45565b612825612e21565b6001600160a01b0316826001600160a01b031614156128865760405162461bcd60e51b815260206004820152601960248201527f4552433732313a20617070726f766520746f2063616c6c6572000000000000006044820152606401610bf7565b8060076000612893612e21565b6001600160a01b03908116825260208083019390935260409182016000908120918716808252919093529120805460ff1916921515929092179091556128d7612e21565b6001600160a01b03167f17307eab39ab6107e8899845ad3d59bd9653f200f220920489ca2b5937696c3183604051612913911515815260200190565b60405180910390a35050565b60608167ffffffffffffffff81111561293a5761293a614b21565b60405190808252806020026020018201604052801561296d57816020015b60608152602001906001900390816129585790505b50905060005b82811015612a0d576129dd3085858481811061299157612991614c80565b90506020028101906129a39190614e7a565b8080601f01602080910402602001604051908101604052809392919081815260200183838082843760009201919091525061368992505050565b8282815181106129ef576129ef614c80565b60200260200101819052508080612a0590614cc4565b915050612973565b5092915050565b600c5460ff1615612a5a5760405162461bcd60e51b815260206004820152601060248201526f14185d5cd8589b194e881c185d5cd95960821b6044820152606401610bf7565b612a867f9f2df0fed2c77648de5860a4cc508cd0818c85b8b8a1ab4ceeef8d981c8956a661080e612e21565b612add5760405162461bcd60e51b815260206004820152602260248201527f4e46543a206d7573742068617665206d696e74657220726f6c6520746f206d696044820152611b9d60f21b6064820152608401610bf7565b600f5481601054612aee9190614cac565b1115612b4e5760405162461bcd60e51b815260206004820152602960248201527f4e46543a2063616e6e6f74206d696e74206d6f7265207468616e206d6178546f60448201526874616c537570706c7960b81b6064820152608401610bf7565b8060106000828254612b609190614cac565b909155505050565b612b79612b73612e21565b83612e99565b612bdf5760405162461bcd60e51b815260206004820152603160248201527f4552433732313a207472616e736665722063616c6c6572206973206e6f74206f6044820152701ddb995c881b9bdc88185c1c1c9bdd9959607a1b6064820152608401610bf7565b612beb848484846136ae565b50505050565b60606000612bfd61372c565b600084815260166020526040812080549293509091612c1b90614c45565b90501115612cc25760008381526016602052604090208054612c3c90614c45565b80601f0160208091040260200160405190810160405280929190818152602001828054612c6890614c45565b8015612cb55780601f10612c8a57610100808354040283529160200191612cb5565b820191906000526020600020905b815481529060010190602001808311612c9857829003601f168201915b5050505050915050919050565b805115612cfb5780612cd38461373b565b604051602001612ce4929190614eef565b604051602081830303815290604052915050919050565b5050604080516020810190915260008152919050565b6000818152600160205260408120610aea90613839565b611f098282613843565b606060148054610aff90614c45565b60128181548110612d5157600080fd5b600091825260209091206008909102018054600182015460028301546003840154600485015460058601546006870154600790970154959750939592949193909290916001600160a01b039091169088565b600c5460009061010090046001600160a01b0316331415612dcb575060131936013560601c90565b503390565b905090565b612ddf828261386b565b5050565b6000612686836001600160a01b03841661390a565b3390565b60006001600160e01b0319821663780e9d6360e01b1480610aea5750610aea82613959565b6000612dd0612da3565b600081815260066020526040902080546001600160a01b0319166001600160a01b0384169081179091558190612e608261242a565b6001600160a01b03167f8c5be1e5ebec7d5bd14f71427d1e84f3dd0314c0f7b2291e5b200ac8c7c3b92560405160405180910390a45050565b6000818152600460205260408120546001600160a01b0316612f125760405162461bcd60e51b815260206004820152602c60248201527f4552433732313a206f70657261746f7220717565727920666f72206e6f6e657860448201526b34b9ba32b73a103a37b5b2b760a11b6064820152608401610bf7565b6000612f1d8361242a565b9050806001600160a01b0316846001600160a01b03161480612f585750836001600160a01b0316612f4d84610b82565b6001600160a01b0316145b80612f8857506001600160a01b0380821660009081526007602090815260408083209388168352929052205460ff165b949350505050565b826001600160a01b0316612fa38261242a565b6001600160a01b03161461301f5760405162461bcd60e51b815260206004820152602960248201527f4552433732313a207472616e73666572206f6620746f6b656e2074686174206960448201527f73206e6f74206f776e00000000000000000000000000000000000000000000006064820152608401610bf7565b6001600160a01b0382166130815760405162461bcd60e51b8152602060048201526024808201527f4552433732313a207472616e7366657220746f20746865207a65726f206164646044820152637265737360e01b6064820152608401610bf7565b61308c838383613999565b613097600082612e2b565b6001600160a01b03831660009081526005602052604081208054600192906130c0908490614ec1565b90915550506001600160a01b03821660009081526005602052604081208054600192906130ee908490614cac565b909155505060008181526004602052604080822080546001600160a01b0319166001600160a01b0386811691821790925591518493918716917fddf252ad1be2c89b69c2b068fc378daa952ba7f163c4a11628f55a4df523b3ef91a4505050565b6000828152602081905260409020600101546131728161316d612e21565b613ac6565b610d3f838361386b565b600081815b855181101561322057600086828151811061319e5761319e614c80565b602002602001015190508083116131e057604080516020810185905290810182905260600160405160208183030381529060405280519060200120925061320d565b60408051602081018390529081018490526060016040516020818303038152906040528051906020012092505b508061321881614cc4565b915050613181565b509092149392505050565b6001600160a01b03821661328857803414612ddf5760405162461bcd60e51b815260206004820152601560248201527f4e46543a206e6f7420656e6f7567682076616c756500000000000000000000006044820152606401610bf7565b816001600160a01b03166323b872dd61329f612e21565b600e5460405163f2aab4b360e01b81523060048201526101009091046001600160a01b03169063f2aab4b39060240160206040518083038186803b1580156132e657600080fd5b505afa1580156132fa573d6000803e3d6000fd5b505050506040513d601f19601f8201168201806040525081019061331e9190614de5565b6040516001600160e01b031960e085901b1681526001600160a01b0392831660048201529116602482015260448101849052606401602060405180830381600087803b15801561336d57600080fd5b505af1158015613381573d6000803e3d6000fd5b505050506040513d601f19601f820116820180604052508101906133a59190614dc8565b612ddf5760405162461bcd60e51b815260206004820152601f60248201527f4e46543a206661696c656420746f207472616e73666572207061796d656e74006044820152606401610bf7565b612ddf828260405180602001604052806000815250613b44565b613413612e21565b6001600160a01b0316816001600160a01b0316146134995760405162461bcd60e51b815260206004820152602f60248201527f416363657373436f6e74726f6c3a2063616e206f6e6c792072656e6f756e636560448201527f20726f6c657320666f722073656c6600000000000000000000000000000000006064820152608401610bf7565b612ddf8282613bc2565b6000612686836001600160a01b038416613c5f565b600c5460ff1661350a5760405162461bcd60e51b815260206004820152601460248201527f5061757361626c653a206e6f74207061757365640000000000000000000000006044820152606401610bf7565b600c805460ff191690557f5db9ee0a495bf2e6ff9c91a7834c1ba4fdd244a5e8aa4e537bd38aeae4b073aa61353d612e21565b6040516001600160a01b03909116815260200160405180910390a1565b60006135658261242a565b905061357381600084613999565b61357e600083612e2b565b6001600160a01b03811660009081526005602052604081208054600192906135a7908490614ec1565b909155505060008281526004602052604080822080546001600160a01b0319169055518391906001600160a01b038416907fddf252ad1be2c89b69c2b068fc378daa952ba7f163c4a11628f55a4df523b3ef908390a45050565b600c5460ff16156136475760405162461bcd60e51b815260206004820152601060248201526f14185d5cd8589b194e881c185d5cd95960821b6044820152606401610bf7565b600c805460ff191660011790557f62e78cea01bee320cd4e420270b5ea74000d11b0c9f74754ebdbfc544b05a25861353d612e21565b60006126868383613d52565b6060612686838360405180606001604052806027815260200161503560279139613d7c565b6136b9848484612f90565b6136c584848484613e50565b612beb5760405162461bcd60e51b815260206004820152603260248201527f4552433732313a207472616e7366657220746f206e6f6e20455243373231526560448201527131b2b4bb32b91034b6b83632b6b2b73a32b960711b6064820152608401610bf7565b606060158054610aff90614c45565b60608161375f5750506040805180820190915260018152600360fc1b602082015290565b8160005b8115613789578061377381614cc4565b91506137829050600a83614e37565b9150613763565b60008167ffffffffffffffff8111156137a4576137a4614b21565b6040519080825280601f01601f1916602001820160405280156137ce576020820181803683370190505b5090505b8415612f88576137e3600183614ec1565b91506137f0600a86614f1e565b6137fb906030614cac565b60f81b81838151811061381057613810614c80565b60200101906001600160f81b031916908160001a905350613832600a86614e37565b94506137d2565b6000610aea825490565b6000828152602081905260409020600101546138618161316d612e21565b610d3f8383613bc2565b6000828152602081815260408083206001600160a01b038516845290915290205460ff16612ddf576000828152602081815260408083206001600160a01b03851684529091529020805460ff191660011790556138c6612e21565b6001600160a01b0316816001600160a01b0316837f2f8788117e7eff1d82e926ec794901d17c78024a50270940304540a733656f0d60405160405180910390a45050565b600081815260018301602052604081205461395157508154600181810184556000848152602080822090930184905584548482528286019093526040902091909155610aea565b506000610aea565b60006001600160e01b031982166380ac58cd60e01b148061398a57506001600160e01b03198216635b5e139f60e01b145b80610aea5750610aea82613faf565b6139a4838383613fd4565b600e5460ff1680156139be57506001600160a01b03831615155b80156139d257506001600160a01b03821615155b15610d3f576001600160a01b03831660009081527f7c7a990f752005aea38438cc35abc5417bd322e6c964ec21d52573494225142c602052604090205460ff1680613a5457506001600160a01b03821660009081527f7c7a990f752005aea38438cc35abc5417bd322e6c964ec21d52573494225142c602052604090205460ff165b610d3f5760405162461bcd60e51b815260206004820152603660248201527f4e46543a205472616e736665727320617265207265737472696374656420746f60448201527f205452414e534645525f524f4c4520686f6c64657273000000000000000000006064820152608401610bf7565b6000828152602081815260408083206001600160a01b038516845290915290205460ff16612ddf57613b02816001600160a01b03166014614058565b613b0d836020614058565b604051602001613b1e929190614f32565b60408051601f198184030181529082905262461bcd60e51b8252610bf79160040161479a565b613b4e8383614201565b613b5b6000848484613e50565b610d3f5760405162461bcd60e51b815260206004820152603260248201527f4552433732313a207472616e7366657220746f206e6f6e20455243373231526560448201527131b2b4bb32b91034b6b83632b6b2b73a32b960711b6064820152608401610bf7565b6000828152602081815260408083206001600160a01b038516845290915290205460ff1615612ddf576000828152602081815260408083206001600160a01b03851684529091529020805460ff19169055613c1b612e21565b6001600160a01b0316816001600160a01b0316837ff6391f5c32d9c69d2a47ea670b442974b53935d1edc7fd64eb21e047a839171b60405160405180910390a45050565b60008181526001830160205260408120548015613d48576000613c83600183614ec1565b8554909150600090613c9790600190614ec1565b9050818114613cfc576000866000018281548110613cb757613cb7614c80565b9060005260206000200154905080876000018481548110613cda57613cda614c80565b6000918252602080832090910192909255918252600188019052604090208390555b8554869080613d0d57613d0d614fb3565b600190038181906000526020600020016000905590558560010160008681526020019081526020016000206000905560019350505050610aea565b6000915050610aea565b6000826000018281548110613d6957613d69614c80565b9060005260206000200154905092915050565b6060833b613ddb5760405162461bcd60e51b815260206004820152602660248201527f416464726573733a2064656c65676174652063616c6c20746f206e6f6e2d636f6044820152651b9d1c9858dd60d21b6064820152608401610bf7565b600080856001600160a01b031685604051613df69190614fc9565b600060405180830381855af49150503d8060008114613e31576040519150601f19603f3d011682016040523d82523d6000602084013e613e36565b606091505b5091509150613e4682828661434f565b9695505050505050565b60006001600160a01b0384163b15613fa457836001600160a01b031663150b7a02613e79612e21565b8786866040518563ffffffff1660e01b8152600401613e9b9493929190614fe5565b602060405180830381600087803b158015613eb557600080fd5b505af1925050508015613ee5575060408051601f3d908101601f19168201909252613ee291810190615017565b60015b613f8a573d808015613f13576040519150601f19603f3d011682016040523d82523d6000602084013e613f18565b606091505b508051613f825760405162461bcd60e51b815260206004820152603260248201527f4552433732313a207472616e7366657220746f206e6f6e20455243373231526560448201527131b2b4bb32b91034b6b83632b6b2b73a32b960711b6064820152608401610bf7565b805181602001fd5b6001600160e01b031916630a85bd0160e11b149050612f88565b506001949350505050565b60006001600160e01b03198216635a05180f60e01b1480610aea5750610aea82614388565b613fdf8383836143bd565b600c5460ff1615610d3f5760405162461bcd60e51b815260206004820152602b60248201527f4552433732315061757361626c653a20746f6b656e207472616e73666572207760448201527f68696c65207061757365640000000000000000000000000000000000000000006064820152608401610bf7565b60606000614067836002614e02565b614072906002614cac565b67ffffffffffffffff81111561408a5761408a614b21565b6040519080825280601f01601f1916602001820160405280156140b4576020820181803683370190505b509050600360fc1b816000815181106140cf576140cf614c80565b60200101906001600160f81b031916908160001a905350600f60fb1b816001815181106140fe576140fe614c80565b60200101906001600160f81b031916908160001a9053506000614122846002614e02565b61412d906001614cac565b90505b60018111156141b2577f303132333435363738396162636465660000000000000000000000000000000085600f166010811061416e5761416e614c80565b1a60f81b82828151811061418457614184614c80565b60200101906001600160f81b031916908160001a90535060049490941c936141ab81614ed8565b9050614130565b5083156126865760405162461bcd60e51b815260206004820181905260248201527f537472696e67733a20686578206c656e67746820696e73756666696369656e746044820152606401610bf7565b6001600160a01b0382166142575760405162461bcd60e51b815260206004820181905260248201527f4552433732313a206d696e7420746f20746865207a65726f20616464726573736044820152606401610bf7565b6000818152600460205260409020546001600160a01b0316156142bc5760405162461bcd60e51b815260206004820152601c60248201527f4552433732313a20746f6b656e20616c7265616479206d696e746564000000006044820152606401610bf7565b6142c860008383613999565b6001600160a01b03821660009081526005602052604081208054600192906142f1908490614cac565b909155505060008181526004602052604080822080546001600160a01b0319166001600160a01b03861690811790915590518392907fddf252ad1be2c89b69c2b068fc378daa952ba7f163c4a11628f55a4df523b3ef908290a45050565b6060831561435e575081612686565b82511561436e5782518084602001fd5b8160405162461bcd60e51b8152600401610bf7919061479a565b60006001600160e01b03198216637965db0b60e01b1480610aea57506301ffc9a760e01b6001600160e01b0319831614610aea565b6001600160a01b0383166144185761441381600a80546000838152600b60205260408120829055600182018355919091527fc65a7bb8d6351c1cf70c95a316cc6a92839c986682d98bc35f958f4883f9d2a80155565b61443b565b816001600160a01b0316836001600160a01b03161461443b5761443b8382614475565b6001600160a01b03821661445257610d3f81614512565b826001600160a01b0316826001600160a01b031614610d3f57610d3f82826145c1565b60006001614482846124b5565b61448c9190614ec1565b6000838152600960205260409020549091508082146144df576001600160a01b03841660009081526008602090815260408083208584528252808320548484528184208190558352600990915290208190555b5060009182526009602090815260408084208490556001600160a01b039094168352600881528383209183525290812055565b600a5460009061452490600190614ec1565b6000838152600b6020526040812054600a805493945090928490811061454c5761454c614c80565b9060005260206000200154905080600a838154811061456d5761456d614c80565b6000918252602080832090910192909255828152600b9091526040808220849055858252812055600a8054806145a5576145a5614fb3565b6001900381819060005260206000200160009055905550505050565b60006145cc836124b5565b6001600160a01b039093166000908152600860209081526040808320868452825280832085905593825260099052919091209190915550565b50805460008255600802906000526020600020908101906120d991906146aa565b82805461463290614c45565b90600052602060002090601f016020900481019282614654576000855561469a565b82601f1061466d5782800160ff1982351617855561469a565b8280016001018555821561469a579182015b8281111561469a57823582559160200191906001019061467f565b506146a69291506146fa565b5090565b5b808211156146a657600080825560018201819055600282018190556003820181905560048201819055600582018190556006820180546001600160a01b031916905560078201556008016146ab565b5b808211156146a657600081556001016146fb565b6001600160e01b0319811681146120d957600080fd5b60006020828403121561473757600080fd5b81356126868161470f565b60005b8381101561475d578181015183820152602001614745565b83811115612beb5750506000910152565b60008151808452614786816020860160208601614742565b601f01601f19169290920160200192915050565b602081526000612686602083018461476e565b6000602082840312156147bf57600080fd5b5035919050565b6001600160a01b03811681146120d957600080fd5b600080604083850312156147ee57600080fd5b82356147f9816147c6565b946020939093013593505050565b6000806020838503121561481a57600080fd5b823567ffffffffffffffff8082111561483257600080fd5b818501915085601f83011261484657600080fd5b81358181111561485557600080fd5b8660208260081b850101111561486a57600080fd5b60209290920196919550909350505050565b60008060006060848603121561489157600080fd5b833561489c816147c6565b925060208401356148ac816147c6565b929592945050506040919091013590565b600080604083850312156148d057600080fd5b50508035926020909101359150565b600080604083850312156148f257600080fd5b823591506020830135614904816147c6565b809150509250929050565b60008083601f84011261492157600080fd5b50813567ffffffffffffffff81111561493957600080fd5b6020830191508360208260051b850101111561495457600080fd5b9250929050565b60008060006040848603121561497057600080fd5b83359250602084013567ffffffffffffffff81111561498e57600080fd5b61499a8682870161490f565b9497909650939450505050565b600080602083850312156149ba57600080fd5b823567ffffffffffffffff808211156149d257600080fd5b818501915085601f8301126149e657600080fd5b8135818111156149f557600080fd5b86602082850101111561486a57600080fd5b60008060208385031215614a1a57600080fd5b823567ffffffffffffffff811115614a3157600080fd5b614a3d8582860161490f565b90969095509350505050565b600060208284031215614a5b57600080fd5b8135612686816147c6565b80151581146120d957600080fd5b600060208284031215614a8657600080fd5b813561268681614a66565b60008060408385031215614aa457600080fd5b8235614aaf816147c6565b9150602083013561490481614a66565b6000602080830181845280855180835260408601915060408160051b870101925083870160005b82811015614b1457603f19888603018452614b0285835161476e565b94509285019290850190600101614ae6565b5092979650505050505050565b634e487b7160e01b600052604160045260246000fd5b60008060008060808587031215614b4d57600080fd5b8435614b58816147c6565b93506020850135614b68816147c6565b925060408501359150606085013567ffffffffffffffff80821115614b8c57600080fd5b818701915087601f830112614ba057600080fd5b813581811115614bb257614bb2614b21565b604051601f8201601f19908116603f01168101908382118183101715614bda57614bda614b21565b816040528281528a6020848701011115614bf357600080fd5b82602086016020830137600060208483010152809550505050505092959194509250565b60008060408385031215614c2a57600080fd5b8235614c35816147c6565b91506020830135614904816147c6565b600181811c90821680614c5957607f821691505b60208210811415614c7a57634e487b7160e01b600052602260045260246000fd5b50919050565b634e487b7160e01b600052603260045260246000fd5b634e487b7160e01b600052601160045260246000fd5b60008219821115614cbf57614cbf614c96565b500190565b6000600019821415614cd857614cd8614c96565b5060010190565b60006020808301818452808554808352604092508286019150866000528360002060005b82811015614d705781548452600180830154878601526002830154868601526003830154606086015260048301546080860152600583015460a086015260068301546001600160a01b031660c0860152600783015460e08601526101009094019360089092019101614d03565b5091979650505050505050565b600060208284031215614d8f57600080fd5b81516fffffffffffffffffffffffffffffffff8116811461268657600080fd5b600060208284031215614dc157600080fd5b5051919050565b600060208284031215614dda57600080fd5b815161268681614a66565b600060208284031215614df757600080fd5b8151612686816147c6565b6000816000190483118215151615614e1c57614e1c614c96565b500290565b634e487b7160e01b600052601260045260246000fd5b600082614e4657614e46614e21565b500490565b60208152816020820152818360408301376000818301604090810191909152601f909201601f19160101919050565b6000808335601e19843603018112614e9157600080fd5b83018035915067ffffffffffffffff821115614eac57600080fd5b60200191503681900382131561495457600080fd5b600082821015614ed357614ed3614c96565b500390565b600081614ee757614ee7614c96565b506000190190565b60008351614f01818460208801614742565b835190830190614f15818360208801614742565b01949350505050565b600082614f2d57614f2d614e21565b500690565b7f416363657373436f6e74726f6c3a206163636f756e7420000000000000000000815260008351614f6a816017850160208801614742565b7f206973206d697373696e6720726f6c65200000000000000000000000000000006017918401918201528351614fa7816028840160208801614742565b01602801949350505050565b634e487b7160e01b600052603160045260246000fd5b60008251614fdb818460208701614742565b9190910192915050565b60006001600160a01b03808716835280861660208401525083604083015260806060830152613e46608083018461476e565b60006020828403121561502957600080fd5b81516126868161470f56fe416464726573733a206c6f772d6c6576656c2064656c65676174652063616c6c206661696c6564a164736f6c6343000809000a",
  "linkReferences": {},
  "deployedLinkReferences": {}
}