{
  "_format": "hh-sol-artifact-1",
  "contractName": "PaymentSplitter",
  "sourceName": "contracts/openzeppelin-presets/finance/PaymentSplitter.sol",
  "abi": [
    {
      "inputs": [],
      "stateMutability": "payable",
      "type": "constructor"
    },
    {
      "anonymous": false,
      "inputs": [
        {
          "indexed": true,
          "internalType": "contract IERC20",
          "name": "token",
          "type": "address"
        },
        {
          "indexed": false,
          "internalType": "address",
          "name": "to",
          "type": "address"
        },
        {
          "indexed": false,
          "internalType": "uint256",
          "name": "amount",
          "type": "uint256"
        }
      ],
      "name": "ERC20PaymentReleased",
      "type": "event"
    },
    {
      "anonymous": false,
      "inputs": [
        {
          "indexed": false,
          "internalType": "address",
          "name": "account",
          "type": "address"
        },
        {
          "indexed": false,
          "internalType": "uint256",
          "name": "shares",
          "type": "uint256"
        }
      ],
      "name": "PayeeAdded",
      "type": "event"
    },
    {
      "anonymous": false,
      "inputs": [
        {
          "indexed": false,
          "internalType": "address",
          "name": "from",
          "type": "address"
        },
        {
          "indexed": false,
          "internalType": "uint256",
          "name": "amount",
          "type": "uint256"
        }
      ],
      "name": "PaymentReceived",
      "type": "event"
    },
    {
      "anonymous": false,
      "inputs": [
        {
          "indexed": false,
          "internalType": "address",
          "name": "to",
          "type": "address"
        },
        {
          "indexed": false,
          "internalType": "uint256",
          "name": "amount",
          "type": "uint256"
        }
      ],
      "name": "PaymentReleased",
      "type": "event"
    },
    {
      "inputs": [
        {
          "internalType": "uint256",
          "name": "index",
          "type": "uint256"
        }
      ],
      "name": "payee",
      "outputs": [
        {
          "internalType": "address",
          "name": "",
          "type": "address"
        }
      ],
      "stateMutability": "view",
      "type": "function"
    },
    {
      "inputs": [
        {
          "internalType": "address payable",
          "name": "account",
          "type": "address"
        }
      ],
      "name": "release",
      "outputs": [],
      "stateMutability": "nonpayable",
      "type": "function"
    },
    {
      "inputs": [
        {
          "internalType": "contract IERC20",
          "name": "token",
          "type": "address"
        },
        {
          "internalType": "address",
          "name": "account",
          "type": "address"
        }
      ],
      "name": "release",
      "outputs": [],
      "stateMutability": "nonpayable",
      "type": "function"
    },
    {
      "inputs": [
        {
          "internalType": "contract IERC20",
          "name": "token",
          "type": "address"
        },
        {
          "internalType": "address",
          "name": "account",
          "type": "address"
        }
      ],
      "name": "released",
      "outputs": [
        {
          "internalType": "uint256",
          "name": "",
          "type": "uint256"
        }
      ],
      "stateMutability": "view",
      "type": "function"
    },
    {
      "inputs": [
        {
          "internalType": "address",
          "name": "account",
          "type": "address"
        }
      ],
      "name": "released",
      "outputs": [
        {
          "internalType": "uint256",
          "name": "",
          "type": "uint256"
        }
      ],
      "stateMutability": "view",
      "type": "function"
    },
    {
      "inputs": [
        {
          "internalType": "address",
          "name": "account",
          "type": "address"
        }
      ],
      "name": "shares",
      "outputs": [
        {
          "internalType": "uint256",
          "name": "",
          "type": "uint256"
        }
      ],
      "stateMutability": "view",
      "type": "function"
    },
    {
      "inputs": [
        {
          "internalType": "contract IERC20",
          "name": "token",
          "type": "address"
        }
      ],
      "name": "totalReleased",
      "outputs": [
        {
          "internalType": "uint256",
          "name": "",
          "type": "uint256"
        }
      ],
      "stateMutability": "view",
      "type": "function"
    },
    {
      "inputs": [],
      "name": "totalReleased",
      "outputs": [
        {
          "internalType": "uint256",
          "name": "",
          "type": "uint256"
        }
      ],
      "stateMutability": "view",
      "type": "function"
    },
    {
      "inputs": [],
      "name": "totalShares",
      "outputs": [
        {
          "internalType": "uint256",
          "name": "",
          "type": "uint256"
        }
      ],
      "stateMutability": "view",
      "type": "function"
    },
    {
      "stateMutability": "payable",
      "type": "receive"
    }
  ],
  "bytecode": "0x6080604052610c61806100136000396000f3fe60806040526004361061009a5760003560e01c80638b83209b11610069578063ce7c2ac21161004e578063ce7c2ac214610202578063d79779b214610238578063e33b7de31461026e57600080fd5b80638b83209b146101945780639852595c146101cc57600080fd5b806319165587146100e85780633a98ef391461010a578063406072a91461012e57806348b750441461017457600080fd5b366100e3577f6ef95f06320e7a25a04a175ca677b7052bdd97131872c2192525a629f51be77033604080516001600160a01b0390921682523460208301520160405180910390a1005b600080fd5b3480156100f457600080fd5b50610108610103366004610a8f565b610283565b005b34801561011657600080fd5b506000545b6040519081526020015b60405180910390f35b34801561013a57600080fd5b5061011b610149366004610aac565b6001600160a01b03918216600090815260066020908152604080832093909416825291909152205490565b34801561018057600080fd5b5061010861018f366004610aac565b610439565b3480156101a057600080fd5b506101b46101af366004610ae5565b6106a4565b6040516001600160a01b039091168152602001610125565b3480156101d857600080fd5b5061011b6101e7366004610a8f565b6001600160a01b031660009081526003602052604090205490565b34801561020e57600080fd5b5061011b61021d366004610a8f565b6001600160a01b031660009081526002602052604090205490565b34801561024457600080fd5b5061011b610253366004610a8f565b6001600160a01b031660009081526005602052604090205490565b34801561027a57600080fd5b5060015461011b565b6001600160a01b0381166000908152600260205260409020546102fc5760405162461bcd60e51b815260206004820152602660248201527f5061796d656e7453706c69747465723a206163636f756e7420686173206e6f2060448201526573686172657360d01b60648201526084015b60405180910390fd5b600061030760015490565b6103119047610b14565b9050600061033e8383610339866001600160a01b031660009081526003602052604090205490565b6106d4565b9050806103a15760405162461bcd60e51b815260206004820152602b60248201527f5061796d656e7453706c69747465723a206163636f756e74206973206e6f742060448201526a191d59481c185e5b595b9d60aa1b60648201526084016102f3565b6001600160a01b038316600090815260036020526040812080548392906103c9908490610b14565b9250508190555080600160008282546103e29190610b14565b909155506103f290508382610719565b604080516001600160a01b0385168152602081018390527fdf20fd1e76bc69d672e4814fafb2c449bba3a5369d8359adf9e05e6fde87b056910160405180910390a1505050565b6001600160a01b0381166000908152600260205260409020546104ad5760405162461bcd60e51b815260206004820152602660248201527f5061796d656e7453706c69747465723a206163636f756e7420686173206e6f2060448201526573686172657360d01b60648201526084016102f3565b6001600160a01b0382166000908152600560205260408120546040516370a0823160e01b81523060048201526001600160a01b038516906370a082319060240160206040518083038186803b15801561050557600080fd5b505afa158015610519573d6000803e3d6000fd5b505050506040513d601f19601f8201168201806040525081019061053d9190610b2c565b6105479190610b14565b90506000610580838361033987876001600160a01b03918216600090815260066020908152604080832093909416825291909152205490565b9050806105e35760405162461bcd60e51b815260206004820152602b60248201527f5061796d656e7453706c69747465723a206163636f756e74206973206e6f742060448201526a191d59481c185e5b595b9d60aa1b60648201526084016102f3565b6001600160a01b0380851660009081526006602090815260408083209387168352929052908120805483929061061a908490610b14565b90915550506001600160a01b03841660009081526005602052604081208054839290610647908490610b14565b909155506106589050848483610837565b604080516001600160a01b038581168252602082018490528616917f3be5b7a71e84ed12875d241991c70855ac5817d847039e17a9d895c1ceb0f18a910160405180910390a250505050565b6000600482815481106106b9576106b9610b45565b6000918252602090912001546001600160a01b031692915050565b600080546001600160a01b0385168252600260205260408220548391906106fb9086610b5b565b6107059190610b7a565b61070f9190610b9c565b90505b9392505050565b804710156107695760405162461bcd60e51b815260206004820152601d60248201527f416464726573733a20696e73756666696369656e742062616c616e636500000060448201526064016102f3565b6000826001600160a01b03168260405160006040518083038185875af1925050503d80600081146107b6576040519150601f19603f3d011682016040523d82523d6000602084013e6107bb565b606091505b50509050806108325760405162461bcd60e51b815260206004820152603a60248201527f416464726573733a20756e61626c6520746f2073656e642076616c75652c207260448201527f6563697069656e74206d6179206861766520726576657274656400000000000060648201526084016102f3565b505050565b604080516001600160a01b03848116602483015260448083018590528351808403909101815260649092018352602080830180517bffffffffffffffffffffffffffffffffffffffffffffffffffffffff1663a9059cbb60e01b17905283518085019094528084527f5361666545524332303a206c6f772d6c6576656c2063616c6c206661696c656490840152610832928692916000916108dc91851690849061096c565b80519091501561083257808060200190518101906108fa9190610bb3565b6108325760405162461bcd60e51b815260206004820152602a60248201527f5361666545524332303a204552433230206f7065726174696f6e20646964206e60448201527f6f7420737563636565640000000000000000000000000000000000000000000060648201526084016102f3565b606061070f848460008585843b6109c55760405162461bcd60e51b815260206004820152601d60248201527f416464726573733a2063616c6c20746f206e6f6e2d636f6e747261637400000060448201526064016102f3565b600080866001600160a01b031685876040516109e19190610c05565b60006040518083038185875af1925050503d8060008114610a1e576040519150601f19603f3d011682016040523d82523d6000602084013e610a23565b606091505b5091509150610a33828286610a3e565b979650505050505050565b60608315610a4d575081610712565b825115610a5d5782518084602001fd5b8160405162461bcd60e51b81526004016102f39190610c21565b6001600160a01b0381168114610a8c57600080fd5b50565b600060208284031215610aa157600080fd5b813561071281610a77565b60008060408385031215610abf57600080fd5b8235610aca81610a77565b91506020830135610ada81610a77565b809150509250929050565b600060208284031215610af757600080fd5b5035919050565b634e487b7160e01b600052601160045260246000fd5b60008219821115610b2757610b27610afe565b500190565b600060208284031215610b3e57600080fd5b5051919050565b634e487b7160e01b600052603260045260246000fd5b6000816000190483118215151615610b7557610b75610afe565b500290565b600082610b9757634e487b7160e01b600052601260045260246000fd5b500490565b600082821015610bae57610bae610afe565b500390565b600060208284031215610bc557600080fd5b8151801515811461071257600080fd5b60005b83811015610bf0578181015183820152602001610bd8565b83811115610bff576000848401525b50505050565b60008251610c17818460208701610bd5565b9190910192915050565b6020815260008251806020840152610c40816040850160208701610bd5565b601f01601f1916919091016040019291505056fea164736f6c6343000809000a",
  "linkReferences": {},
  "deployedLinkReferences": {}
}