{
  "_format": "hh-sol-artifact-1",
  "contractName": "NFTCollection",
  "sourceName": "contracts/NFTCollection.sol",
  "abi": [
    {
      "inputs": [
        {
          "internalType": "address payable",
          "name": "_controlCenter",
          "type": "address"
        },
        {
          "internalType": "address",
          "name": "_trustedForwarder",
          "type": "address"
        },
        {
          "internalType": "string",
          "name": "_uri",
          "type": "string"
        }
      ],
      "stateMutability": "nonpayable",
      "type": "constructor"
    },
    {
      "anonymous": false,
      "inputs": [
        {
          "indexed": true,
          "internalType": "address",
          "name": "account",
          "type": "address"
        },
        {
          "indexed": true,
          "internalType": "address",
          "name": "operator",
          "type": "address"
        },
        {
          "indexed": false,
          "internalType": "bool",
          "name": "approved",
          "type": "bool"
        }
      ],
      "name": "ApprovalForAll",
      "type": "event"
    },
    {
      "anonymous": false,
      "inputs": [
        {
          "indexed": true,
          "internalType": "address",
          "name": "redeemer",
          "type": "address"
        },
        {
          "indexed": true,
          "internalType": "uint256",
          "name": "tokenId",
          "type": "uint256"
        },
        {
          "indexed": true,
          "internalType": "address",
          "name": "sourceOfUnderlying",
          "type": "address"
        },
        {
          "indexed": false,
          "internalType": "uint256",
          "name": "tokenAmountReceived",
          "type": "uint256"
        },
        {
          "indexed": false,
          "internalType": "uint256",
          "name": "sharesRedeemed",
          "type": "uint256"
        }
      ],
      "name": "ERC20Redeemed",
      "type": "event"
    },
    {
      "anonymous": false,
      "inputs": [
        {
          "indexed": true,
          "internalType": "address",
          "name": "creator",
          "type": "address"
        },
        {
          "indexed": true,
          "internalType": "address",
          "name": "sourceOfUnderlying",
          "type": "address"
        },
        {
          "indexed": false,
          "internalType": "uint256",
          "name": "totalAmountOfUnderlying",
          "type": "uint256"
        },
        {
          "indexed": false,
          "internalType": "uint256",
          "name": "shares",
          "type": "uint256"
        },
        {
          "indexed": false,
          "internalType": "uint256",
          "name": "tokenId",
          "type": "uint256"
        },
        {
          "indexed": false,
          "internalType": "string",
          "name": "tokenURI",
          "type": "string"
        }
      ],
      "name": "ERC20WrappedToken",
      "type": "event"
    },
    {
      "anonymous": false,
      "inputs": [
        {
          "indexed": true,
          "internalType": "address",
          "name": "redeemer",
          "type": "address"
        },
        {
          "indexed": true,
          "internalType": "address",
          "name": "sourceOfUnderlying",
          "type": "address"
        },
        {
          "indexed": false,
          "internalType": "uint256",
          "name": "tokenIdOfUnderlying",
          "type": "uint256"
        },
        {
          "indexed": false,
          "internalType": "uint256",
          "name": "tokenId",
          "type": "uint256"
        }
      ],
      "name": "ERC721Redeemed",
      "type": "event"
    },
    {
      "anonymous": false,
      "inputs": [
        {
          "indexed": true,
          "internalType": "address",
          "name": "creator",
          "type": "address"
        },
        {
          "indexed": true,
          "internalType": "address",
          "name": "sourceOfUnderlying",
          "type": "address"
        },
        {
          "indexed": false,
          "internalType": "uint256",
          "name": "tokenIdOfUnderlying",
          "type": "uint256"
        },
        {
          "indexed": false,
          "internalType": "uint256",
          "name": "tokenId",
          "type": "uint256"
        },
        {
          "indexed": false,
          "internalType": "string",
          "name": "tokenURI",
          "type": "string"
        }
      ],
      "name": "ERC721WrappedToken",
      "type": "event"
    },
    {
      "anonymous": false,
      "inputs": [
        {
          "indexed": true,
          "internalType": "address",
          "name": "creator",
          "type": "address"
        },
        {
          "indexed": false,
          "internalType": "uint256[]",
          "name": "tokenIds",
          "type": "uint256[]"
        },
        {
          "indexed": false,
          "internalType": "string[]",
          "name": "tokenURIs",
          "type": "string[]"
        },
        {
          "indexed": false,
          "internalType": "uint256[]",
          "name": "tokenSupplies",
          "type": "uint256[]"
        }
      ],
      "name": "NativeTokens",
      "type": "event"
    },
    {
      "anonymous": false,
      "inputs": [
        {
          "indexed": false,
          "internalType": "address",
          "name": "account",
          "type": "address"
        }
      ],
      "name": "Paused",
      "type": "event"
    },
    {
      "anonymous": false,
      "inputs": [
        {
          "indexed": true,
          "internalType": "bytes32",
          "name": "role",
          "type": "bytes32"
        },
        {
          "indexed": true,
          "internalType": "bytes32",
          "name": "previousAdminRole",
          "type": "bytes32"
        },
        {
          "indexed": true,
          "internalType": "bytes32",
          "name": "newAdminRole",
          "type": "bytes32"
        }
      ],
      "name": "RoleAdminChanged",
      "type": "event"
    },
    {
      "anonymous": false,
      "inputs": [
        {
          "indexed": true,
          "internalType": "bytes32",
          "name": "role",
          "type": "bytes32"
        },
        {
          "indexed": true,
          "internalType": "address",
          "name": "account",
          "type": "address"
        },
        {
          "indexed": true,
          "internalType": "address",
          "name": "sender",
          "type": "address"
        }
      ],
      "name": "RoleGranted",
      "type": "event"
    },
    {
      "anonymous": false,
      "inputs": [
        {
          "indexed": true,
          "internalType": "bytes32",
          "name": "role",
          "type": "bytes32"
        },
        {
          "indexed": true,
          "internalType": "address",
          "name": "account",
          "type": "address"
        },
        {
          "indexed": true,
          "internalType": "address",
          "name": "sender",
          "type": "address"
        }
      ],
      "name": "RoleRevoked",
      "type": "event"
    },
    {
      "anonymous": false,
      "inputs": [
        {
          "indexed": false,
          "internalType": "uint256",
          "name": "royaltyBps",
          "type": "uint256"
        }
      ],
      "name": "RoyaltyUpdated",
      "type": "event"
    },
    {
      "anonymous": false,
      "inputs": [
        {
          "indexed": true,
          "internalType": "address",
          "name": "operator",
          "type": "address"
        },
        {
          "indexed": true,
          "internalType": "address",
          "name": "from",
          "type": "address"
        },
        {
          "indexed": true,
          "internalType": "address",
          "name": "to",
          "type": "address"
        },
        {
          "indexed": false,
          "internalType": "uint256[]",
          "name": "ids",
          "type": "uint256[]"
        },
        {
          "indexed": false,
          "internalType": "uint256[]",
          "name": "values",
          "type": "uint256[]"
        }
      ],
      "name": "TransferBatch",
      "type": "event"
    },
    {
      "anonymous": false,
      "inputs": [
        {
          "indexed": true,
          "internalType": "address",
          "name": "operator",
          "type": "address"
        },
        {
          "indexed": true,
          "internalType": "address",
          "name": "from",
          "type": "address"
        },
        {
          "indexed": true,
          "internalType": "address",
          "name": "to",
          "type": "address"
        },
        {
          "indexed": false,
          "internalType": "uint256",
          "name": "id",
          "type": "uint256"
        },
        {
          "indexed": false,
          "internalType": "uint256",
          "name": "value",
          "type": "uint256"
        }
      ],
      "name": "TransferSingle",
      "type": "event"
    },
    {
      "anonymous": false,
      "inputs": [
        {
          "indexed": false,
          "internalType": "string",
          "name": "value",
          "type": "string"
        },
        {
          "indexed": true,
          "internalType": "uint256",
          "name": "id",
          "type": "uint256"
        }
      ],
      "name": "URI",
      "type": "event"
    },
    {
      "anonymous": false,
      "inputs": [
        {
          "indexed": false,
          "internalType": "address",
          "name": "account",
          "type": "address"
        }
      ],
      "name": "Unpaused",
      "type": "event"
    },
    {
      "inputs": [],
      "name": "DEFAULT_ADMIN_ROLE",
      "outputs": [
        {
          "internalType": "bytes32",
          "name": "",
          "type": "bytes32"
        }
      ],
      "stateMutability": "view",
      "type": "function"
    },
    {
      "inputs": [],
      "name": "MINTER_ROLE",
      "outputs": [
        {
          "internalType": "bytes32",
          "name": "",
          "type": "bytes32"
        }
      ],
      "stateMutability": "view",
      "type": "function"
    },
    {
      "inputs": [],
      "name": "PAUSER_ROLE",
      "outputs": [
        {
          "internalType": "bytes32",
          "name": "",
          "type": "bytes32"
        }
      ],
      "stateMutability": "view",
      "type": "function"
    },
    {
      "inputs": [],
      "name": "TRANSFER_ROLE",
      "outputs": [
        {
          "internalType": "bytes32",
          "name": "",
          "type": "bytes32"
        }
      ],
      "stateMutability": "view",
      "type": "function"
    },
    {
      "inputs": [],
      "name": "_contractURI",
      "outputs": [
        {
          "internalType": "string",
          "name": "",
          "type": "string"
        }
      ],
      "stateMutability": "view",
      "type": "function"
    },
    {
      "inputs": [
        {
          "internalType": "address",
          "name": "account",
          "type": "address"
        },
        {
          "internalType": "uint256",
          "name": "id",
          "type": "uint256"
        }
      ],
      "name": "balanceOf",
      "outputs": [
        {
          "internalType": "uint256",
          "name": "",
          "type": "uint256"
        }
      ],
      "stateMutability": "view",
      "type": "function"
    },
    {
      "inputs": [
        {
          "internalType": "address[]",
          "name": "accounts",
          "type": "address[]"
        },
        {
          "internalType": "uint256[]",
          "name": "ids",
          "type": "uint256[]"
        }
      ],
      "name": "balanceOfBatch",
      "outputs": [
        {
          "internalType": "uint256[]",
          "name": "",
          "type": "uint256[]"
        }
      ],
      "stateMutability": "view",
      "type": "function"
    },
    {
      "inputs": [
        {
          "internalType": "address",
          "name": "account",
          "type": "address"
        },
        {
          "internalType": "uint256",
          "name": "id",
          "type": "uint256"
        },
        {
          "internalType": "uint256",
          "name": "value",
          "type": "uint256"
        }
      ],
      "name": "burn",
      "outputs": [],
      "stateMutability": "nonpayable",
      "type": "function"
    },
    {
      "inputs": [
        {
          "internalType": "address",
          "name": "account",
          "type": "address"
        },
        {
          "internalType": "uint256[]",
          "name": "ids",
          "type": "uint256[]"
        },
        {
          "internalType": "uint256[]",
          "name": "values",
          "type": "uint256[]"
        }
      ],
      "name": "burnBatch",
      "outputs": [],
      "stateMutability": "nonpayable",
      "type": "function"
    },
    {
      "inputs": [],
      "name": "contractURI",
      "outputs": [
        {
          "internalType": "string",
          "name": "",
          "type": "string"
        }
      ],
      "stateMutability": "view",
      "type": "function"
    },
    {
      "inputs": [
        {
          "internalType": "address",
          "name": "to",
          "type": "address"
        },
        {
          "internalType": "string[]",
          "name": "_nftURIs",
          "type": "string[]"
        },
        {
          "internalType": "uint256[]",
          "name": "_nftSupplies",
          "type": "uint256[]"
        },
        {
          "internalType": "bytes",
          "name": "data",
          "type": "bytes"
        }
      ],
      "name": "createNativeTokens",
      "outputs": [
        {
          "internalType": "uint256[]",
          "name": "nftIds",
          "type": "uint256[]"
        }
      ],
      "stateMutability": "nonpayable",
      "type": "function"
    },
    {
      "inputs": [
        {
          "internalType": "uint256",
          "name": "_nftId",
          "type": "uint256"
        }
      ],
      "name": "creator",
      "outputs": [
        {
          "internalType": "address",
          "name": "",
          "type": "address"
        }
      ],
      "stateMutability": "view",
      "type": "function"
    },
    {
      "inputs": [
        {
          "internalType": "uint256",
          "name": "",
          "type": "uint256"
        }
      ],
      "name": "erc20WrappedTokens",
      "outputs": [
        {
          "internalType": "address",
          "name": "source",
          "type": "address"
        },
        {
          "internalType": "uint256",
          "name": "shares",
          "type": "uint256"
        },
        {
          "internalType": "uint256",
          "name": "underlyingTokenAmount",
          "type": "uint256"
        }
      ],
      "stateMutability": "view",
      "type": "function"
    },
    {
      "inputs": [
        {
          "internalType": "uint256",
          "name": "",
          "type": "uint256"
        }
      ],
      "name": "erc721WrappedTokens",
      "outputs": [
        {
          "internalType": "address",
          "name": "source",
          "type": "address"
        },
        {
          "internalType": "uint256",
          "name": "tokenId",
          "type": "uint256"
        }
      ],
      "stateMutability": "view",
      "type": "function"
    },
    {
      "inputs": [
        {
          "internalType": "bytes32",
          "name": "role",
          "type": "bytes32"
        }
      ],
      "name": "getRoleAdmin",
      "outputs": [
        {
          "internalType": "bytes32",
          "name": "",
          "type": "bytes32"
        }
      ],
      "stateMutability": "view",
      "type": "function"
    },
    {
      "inputs": [
        {
          "internalType": "bytes32",
          "name": "role",
          "type": "bytes32"
        },
        {
          "internalType": "uint256",
          "name": "index",
          "type": "uint256"
        }
      ],
      "name": "getRoleMember",
      "outputs": [
        {
          "internalType": "address",
          "name": "",
          "type": "address"
        }
      ],
      "stateMutability": "view",
      "type": "function"
    },
    {
      "inputs": [
        {
          "internalType": "bytes32",
          "name": "role",
          "type": "bytes32"
        }
      ],
      "name": "getRoleMemberCount",
      "outputs": [
        {
          "internalType": "uint256",
          "name": "",
          "type": "uint256"
        }
      ],
      "stateMutability": "view",
      "type": "function"
    },
    {
      "inputs": [
        {
          "internalType": "bytes32",
          "name": "role",
          "type": "bytes32"
        },
        {
          "internalType": "address",
          "name": "account",
          "type": "address"
        }
      ],
      "name": "grantRole",
      "outputs": [],
      "stateMutability": "nonpayable",
      "type": "function"
    },
    {
      "inputs": [
        {
          "internalType": "bytes32",
          "name": "role",
          "type": "bytes32"
        },
        {
          "internalType": "address",
          "name": "account",
          "type": "address"
        }
      ],
      "name": "hasRole",
      "outputs": [
        {
          "internalType": "bool",
          "name": "",
          "type": "bool"
        }
      ],
      "stateMutability": "view",
      "type": "function"
    },
    {
      "inputs": [
        {
          "internalType": "address",
          "name": "account",
          "type": "address"
        },
        {
          "internalType": "address",
          "name": "operator",
          "type": "address"
        }
      ],
      "name": "isApprovedForAll",
      "outputs": [
        {
          "internalType": "bool",
          "name": "",
          "type": "bool"
        }
      ],
      "stateMutability": "view",
      "type": "function"
    },
    {
      "inputs": [
        {
          "internalType": "address",
          "name": "forwarder",
          "type": "address"
        }
      ],
      "name": "isTrustedForwarder",
      "outputs": [
        {
          "internalType": "bool",
          "name": "",
          "type": "bool"
        }
      ],
      "stateMutability": "view",
      "type": "function"
    },
    {
      "inputs": [
        {
          "internalType": "address",
          "name": "to",
          "type": "address"
        },
        {
          "internalType": "uint256",
          "name": "id",
          "type": "uint256"
        },
        {
          "internalType": "uint256",
          "name": "amount",
          "type": "uint256"
        },
        {
          "internalType": "bytes",
          "name": "data",
          "type": "bytes"
        }
      ],
      "name": "mint",
      "outputs": [],
      "stateMutability": "nonpayable",
      "type": "function"
    },
    {
      "inputs": [
        {
          "internalType": "address",
          "name": "to",
          "type": "address"
        },
        {
          "internalType": "uint256[]",
          "name": "ids",
          "type": "uint256[]"
        },
        {
          "internalType": "uint256[]",
          "name": "amounts",
          "type": "uint256[]"
        },
        {
          "internalType": "bytes",
          "name": "data",
          "type": "bytes"
        }
      ],
      "name": "mintBatch",
      "outputs": [],
      "stateMutability": "nonpayable",
      "type": "function"
    },
    {
      "inputs": [],
      "name": "nextTokenId",
      "outputs": [
        {
          "internalType": "uint256",
          "name": "",
          "type": "uint256"
        }
      ],
      "stateMutability": "view",
      "type": "function"
    },
    {
      "inputs": [
        {
          "internalType": "address",
          "name": "",
          "type": "address"
        },
        {
          "internalType": "address",
          "name": "",
          "type": "address"
        },
        {
          "internalType": "uint256[]",
          "name": "",
          "type": "uint256[]"
        },
        {
          "internalType": "uint256[]",
          "name": "",
          "type": "uint256[]"
        },
        {
          "internalType": "bytes",
          "name": "",
          "type": "bytes"
        }
      ],
      "name": "onERC1155BatchReceived",
      "outputs": [
        {
          "internalType": "bytes4",
          "name": "",
          "type": "bytes4"
        }
      ],
      "stateMutability": "nonpayable",
      "type": "function"
    },
    {
      "inputs": [
        {
          "internalType": "address",
          "name": "",
          "type": "address"
        },
        {
          "internalType": "address",
          "name": "",
          "type": "address"
        },
        {
          "internalType": "uint256",
          "name": "",
          "type": "uint256"
        },
        {
          "internalType": "uint256",
          "name": "",
          "type": "uint256"
        },
        {
          "internalType": "bytes",
          "name": "",
          "type": "bytes"
        }
      ],
      "name": "onERC1155Received",
      "outputs": [
        {
          "internalType": "bytes4",
          "name": "",
          "type": "bytes4"
        }
      ],
      "stateMutability": "nonpayable",
      "type": "function"
    },
    {
      "inputs": [
        {
          "internalType": "address",
          "name": "",
          "type": "address"
        },
        {
          "internalType": "address",
          "name": "",
          "type": "address"
        },
        {
          "internalType": "uint256",
          "name": "",
          "type": "uint256"
        },
        {
          "internalType": "bytes",
          "name": "",
          "type": "bytes"
        }
      ],
      "name": "onERC721Received",
      "outputs": [
        {
          "internalType": "bytes4",
          "name": "",
          "type": "bytes4"
        }
      ],
      "stateMutability": "nonpayable",
      "type": "function"
    },
    {
      "inputs": [],
      "name": "pause",
      "outputs": [],
      "stateMutability": "nonpayable",
      "type": "function"
    },
    {
      "inputs": [],
      "name": "paused",
      "outputs": [
        {
          "internalType": "bool",
          "name": "",
          "type": "bool"
        }
      ],
      "stateMutability": "view",
      "type": "function"
    },
    {
      "inputs": [
        {
          "internalType": "uint256",
          "name": "_nftId",
          "type": "uint256"
        },
        {
          "internalType": "uint256",
          "name": "_amount",
          "type": "uint256"
        }
      ],
      "name": "redeemERC20",
      "outputs": [],
      "stateMutability": "nonpayable",
      "type": "function"
    },
    {
      "inputs": [
        {
          "internalType": "uint256",
          "name": "_nftId",
          "type": "uint256"
        }
      ],
      "name": "redeemERC721",
      "outputs": [],
      "stateMutability": "nonpayable",
      "type": "function"
    },
    {
      "inputs": [
        {
          "internalType": "bytes32",
          "name": "role",
          "type": "bytes32"
        },
        {
          "internalType": "address",
          "name": "account",
          "type": "address"
        }
      ],
      "name": "renounceRole",
      "outputs": [],
      "stateMutability": "nonpayable",
      "type": "function"
    },
    {
      "inputs": [
        {
          "internalType": "bytes32",
          "name": "role",
          "type": "bytes32"
        },
        {
          "internalType": "address",
          "name": "account",
          "type": "address"
        }
      ],
      "name": "revokeRole",
      "outputs": [],
      "stateMutability": "nonpayable",
      "type": "function"
    },
    {
      "inputs": [],
      "name": "royaltyBps",
      "outputs": [
        {
          "internalType": "uint256",
          "name": "",
          "type": "uint256"
        }
      ],
      "stateMutability": "view",
      "type": "function"
    },
    {
      "inputs": [
        {
          "internalType": "uint256",
          "name": "",
          "type": "uint256"
        },
        {
          "internalType": "uint256",
          "name": "salePrice",
          "type": "uint256"
        }
      ],
      "name": "royaltyInfo",
      "outputs": [
        {
          "internalType": "address",
          "name": "receiver",
          "type": "address"
        },
        {
          "internalType": "uint256",
          "name": "royaltyAmount",
          "type": "uint256"
        }
      ],
      "stateMutability": "view",
      "type": "function"
    },
    {
      "inputs": [
        {
          "internalType": "address",
          "name": "from",
          "type": "address"
        },
        {
          "internalType": "address",
          "name": "to",
          "type": "address"
        },
        {
          "internalType": "uint256[]",
          "name": "ids",
          "type": "uint256[]"
        },
        {
          "internalType": "uint256[]",
          "name": "amounts",
          "type": "uint256[]"
        },
        {
          "internalType": "bytes",
          "name": "data",
          "type": "bytes"
        }
      ],
      "name": "safeBatchTransferFrom",
      "outputs": [],
      "stateMutability": "nonpayable",
      "type": "function"
    },
    {
      "inputs": [
        {
          "internalType": "address",
          "name": "from",
          "type": "address"
        },
        {
          "internalType": "address",
          "name": "to",
          "type": "address"
        },
        {
          "internalType": "uint256",
          "name": "id",
          "type": "uint256"
        },
        {
          "internalType": "uint256",
          "name": "amount",
          "type": "uint256"
        },
        {
          "internalType": "bytes",
          "name": "data",
          "type": "bytes"
        }
      ],
      "name": "safeTransferFrom",
      "outputs": [],
      "stateMutability": "nonpayable",
      "type": "function"
    },
    {
      "inputs": [
        {
          "internalType": "address",
          "name": "operator",
          "type": "address"
        },
        {
          "internalType": "bool",
          "name": "approved",
          "type": "bool"
        }
      ],
      "name": "setApprovalForAll",
      "outputs": [],
      "stateMutability": "nonpayable",
      "type": "function"
    },
    {
      "inputs": [
        {
          "internalType": "string",
          "name": "_URI",
          "type": "string"
        }
      ],
      "name": "setContractURI",
      "outputs": [],
      "stateMutability": "nonpayable",
      "type": "function"
    },
    {
      "inputs": [
        {
          "internalType": "bool",
          "name": "_restrictedTransfer",
          "type": "bool"
        }
      ],
      "name": "setRestrictedTransfer",
      "outputs": [],
      "stateMutability": "nonpayable",
      "type": "function"
    },
    {
      "inputs": [
        {
          "internalType": "uint256",
          "name": "_royaltyBps",
          "type": "uint256"
        }
      ],
      "name": "setRoyaltyBps",
      "outputs": [],
      "stateMutability": "nonpayable",
      "type": "function"
    },
    {
      "inputs": [
        {
          "internalType": "bytes4",
          "name": "interfaceId",
          "type": "bytes4"
        }
      ],
      "name": "supportsInterface",
      "outputs": [
        {
          "internalType": "bool",
          "name": "",
          "type": "bool"
        }
      ],
      "stateMutability": "view",
      "type": "function"
    },
    {
      "inputs": [
        {
          "internalType": "uint256",
          "name": "",
          "type": "uint256"
        }
      ],
      "name": "tokenState",
      "outputs": [
        {
          "internalType": "address",
          "name": "creator",
          "type": "address"
        },
        {
          "internalType": "string",
          "name": "uri",
          "type": "string"
        },
        {
          "internalType": "enum NFTCollection.UnderlyingType",
          "name": "underlyingType",
          "type": "uint8"
        }
      ],
      "stateMutability": "view",
      "type": "function"
    },
    {
      "inputs": [
        {
          "internalType": "uint256",
          "name": "_nftId",
          "type": "uint256"
        }
      ],
      "name": "tokenURI",
      "outputs": [
        {
          "internalType": "string",
          "name": "",
          "type": "string"
        }
      ],
      "stateMutability": "view",
      "type": "function"
    },
    {
      "inputs": [
        {
          "internalType": "uint256",
          "name": "id",
          "type": "uint256"
        }
      ],
      "name": "totalSupply",
      "outputs": [
        {
          "internalType": "uint256",
          "name": "",
          "type": "uint256"
        }
      ],
      "stateMutability": "view",
      "type": "function"
    },
    {
      "inputs": [],
      "name": "transfersRestricted",
      "outputs": [
        {
          "internalType": "bool",
          "name": "",
          "type": "bool"
        }
      ],
      "stateMutability": "view",
      "type": "function"
    },
    {
      "inputs": [],
      "name": "unpause",
      "outputs": [],
      "stateMutability": "nonpayable",
      "type": "function"
    },
    {
      "inputs": [
        {
          "internalType": "uint256",
          "name": "_nftId",
          "type": "uint256"
        }
      ],
      "name": "uri",
      "outputs": [
        {
          "internalType": "string",
          "name": "",
          "type": "string"
        }
      ],
      "stateMutability": "view",
      "type": "function"
    },
    {
      "inputs": [
        {
          "internalType": "address",
          "name": "_tokenContract",
          "type": "address"
        },
        {
          "internalType": "uint256",
          "name": "_tokenAmount",
          "type": "uint256"
        },
        {
          "internalType": "uint256",
          "name": "_numOfNftsToMint",
          "type": "uint256"
        },
        {
          "internalType": "string",
          "name": "_nftURI",
          "type": "string"
        }
      ],
      "name": "wrapERC20",
      "outputs": [],
      "stateMutability": "nonpayable",
      "type": "function"
    },
    {
      "inputs": [
        {
          "internalType": "address",
          "name": "_nftContract",
          "type": "address"
        },
        {
          "internalType": "uint256",
          "name": "_tokenId",
          "type": "uint256"
        },
        {
          "internalType": "string",
          "name": "_nftURI",
          "type": "string"
        }
      ],
      "name": "wrapERC721",
      "outputs": [],
      "stateMutability": "nonpayable",
      "type": "function"
    }
  ],
  "bytecode": "0x60806040523480156200001157600080fd5b5060405162005ed038038062005ed08339810160408190526200003491620003fc565b81818062000042816200013f565b506005805460ff191690556200006360006200005d62000158565b62000175565b620000927f9f2df0fed2c77648de5860a4cc508cd0818c85b8b8a1ab4ceeef8d981c8956a66200005d62000158565b620000c17f65d7a28e3265b37a6474929f336521b332c1681b933f6cb9f3376673440d862a6200005d62000158565b50600780546001600160a01b03199081166001600160a01b03938416179091556008805490911691851691909117905580516200010690600b90602084019062000356565b50620001367f8502233096d909befbda0999bb8ea2f3a6be3c138b9fbf003752a4c8bce86f6c6200005d62000158565b50505062000565565b80516200015490600490602084019062000356565b5050565b60006200016f620001b860201b620026db1760201c565b90505b90565b6200018c8282620001f860201b620027091760201c565b6000828152600160209081526040909120620001b39183906200271762000204821b17901c565b505050565b6000620001c53362000224565b15620001db575060131936013560601c62000172565b620001f06200023860201b6200272c1760201c565b905062000172565b6200015482826200023c565b60006200021b836001600160a01b038416620002c6565b90505b92915050565b6007546001600160a01b0390811691161490565b3390565b62000248828262000315565b62000154576000828152602081815260408083206001600160a01b03851684529091529020805460ff191660011790556200028262000158565b6001600160a01b0316816001600160a01b0316837f2f8788117e7eff1d82e926ec794901d17c78024a50270940304540a733656f0d60405160405180910390a45050565b6000620002d483836200033e565b6200030c575081546001818101845560008481526020808220909301849055845484825282860190935260409020919091556200021e565b5060006200021e565b6000918252602082815260408084206001600160a01b0393909316845291905290205460ff1690565b60009081526001919091016020526040902054151590565b8280546200036490620004f9565b90600052602060002090601f016020900481019282620003885760008555620003d3565b82601f10620003a357805160ff1916838001178555620003d3565b82800160010185558215620003d3579182015b82811115620003d3578251825591602001919060010190620003b6565b50620003e1929150620003e5565b5090565b5b80821115620003e15760008155600101620003e6565b60008060006060848603121562000411578283fd5b83516200041e816200054c565b8093505060208085015162000433816200054c565b60408601519093506001600160401b038082111562000450578384fd5b818701915087601f83011262000464578384fd5b81518181111562000479576200047962000536565b604051601f8201601f19168101850183811182821017156200049f576200049f62000536565b60405281815283820185018a1015620004b6578586fd5b8592505b81831015620004d95783830185015181840186015291840191620004ba565b81831115620004ea57858583830101525b80955050505050509250925092565b6002810460018216806200050e57607f821691505b602082108114156200053057634e487b7160e01b600052602260045260246000fd5b50919050565b634e487b7160e01b600052604160045260246000fd5b6001600160a01b03811681146200056257600080fd5b50565b61595b80620005756000396000f3fe608060405234801561001057600080fd5b50600436106103355760003560e01c80638456cb59116101b2578063c63adb2b116100f9578063e63ab1e9116100a2578063f23a6e611161007c578063f23a6e6114610692578063f242432a146106a5578063f5298aca146106b8578063fafdcc88146106cb57610335565b8063e63ab1e91461066f578063e8a3d48514610677578063e985e9c51461067f57610335565b8063d5391393116100d3578063d539139314610641578063d547741f14610649578063db884b0c1461065c57610335565b8063c63adb2b14610626578063c87b56dd14610398578063ca15c8731461062e57610335565b80639745cc3d1161015b578063bc197c8111610135578063bc197c81146105f8578063bd85b0391461060b578063c0e727401461061e57610335565b80639745cc3d146105bb578063a217fddf146105dd578063a22cb465146105e557610335565b806391d148541161018c57806391d1485414610582578063938e3d7b1461059557806393b778d4146105a857610335565b80638456cb59146105545780638ba448c21461055c5780639010d07c1461056f57610335565b806336568abe116102815780635c975abb1161022a578063731133e911610204578063731133e91461051e57806375794a3c146105315780637a61080b146105395780638423df791461054c57610335565b80635c975abb146104e15780635cd9913d146104e95780636b20c4541461050b57610335565b80634e1273f41161025b5780634e1273f41461048e578063510b5158146104ae578063572b6c05146104ce57610335565b806336568abe14610460578063367a182b146104735780633f4ba83a1461048657610335565b80631f7fdffa116102e35780632a55205a116102bd5780632a55205a146104195780632eb2c2d61461043a5780632f2ff15d1461044d57610335565b80631f7fdffa146103eb578063206b60f9146103fe578063248a9ca31461040657610335565b80630e89341c116103145780630e89341c14610398578063150b7a02146103b85780631f72d831146103d857610335565b8062fdd58e1461033a57806301ffc9a714610363578063090a328214610383575b600080fd5b61034d610348366004614240565b6106de565b60405161035a91906149a5565b60405180910390f35b610376610371366004614517565b61073a565b60405161035a919061499a565b61039661039136600461426b565b610765565b005b6103ab6103a63660046144a2565b610c46565b60405161035a91906149da565b6103cb6103c6366004613fa3565b610ceb565b60405161035a91906149c5565b6103966103e63660046144a2565b610cfb565b6103966103f9366004614188565b610f07565b61034d611036565b61034d6104143660046144a2565b61105a565b61042c6104273660046144f6565b61106f565b60405161035a929190614860565b610396610448366004613ef9565b6111af565b61039661045b3660046144d2565b61120d565b61039661046e3660046144d2565b611234565b61042c6104813660046144a2565b611256565b61039661127b565b6104a161049c3660046143aa565b6112cd565b60405161035a919061489a565b6104c16104bc3660046144a2565b6113ed565b60405161035a919061471d565b6103766104dc366004613e89565b611408565b61037661141c565b6104fc6104f73660046144a2565b611426565b60405161035a93929190614879565b610396610519366004614115565b611451565b61039661052c3660046142f9565b6114a6565b61034d61152b565b6103966105473660046144f6565b611531565b6103766116af565b6103966116b8565b61039661056a36600461446a565b611708565b6104c161057d3660046144f6565b611831565b6103766105903660046144d2565b611850565b6103966105a336600461454f565b611879565b6103966105b63660046144a2565b61199b565b6105ce6105c93660046144a2565b611ab9565b60405161035a93929190614810565b61034d611b71565b6103966105f3366004614213565b611b76565b6103cb610606366004613ef9565b611c38565b61034d6106193660046144a2565b611c49565b6103ab611c5b565b61034d611ce9565b61034d61063c3660046144a2565b611cef565b61034d611d06565b6103966106573660046144d2565b611d2a565b61039661066a366004614342565b611d34565b61034d6121b8565b6103ab6121dc565b61037661068d366004613ec1565b61226e565b6103cb6106a036600461400d565b61229c565b6103966106b336600461400d565b6122ad565b6103966106c63660046142c5565b612304565b6104a16106d9366004614074565b612359565b60006001600160a01b03831661070f5760405162461bcd60e51b815260040161070690614bcd565b60405180910390fd5b5060008181526002602090815260408083206001600160a01b03861684529091529020545b92915050565b600061074582612730565b8061073457506001600160e01b0319821663152a902d60e11b1492915050565b600860009054906101000a90046001600160a01b03166001600160a01b0316639d2f83f06040518163ffffffff1660e01b815260040160206040518083038186803b1580156107b357600080fd5b505afa1580156107c7573d6000803e3d6000fd5b505050506040513d601f19601f820116820180604052508101906107eb9190614486565b156108085760405162461bcd60e51b8152600401610706906151bd565b6108347f9f2df0fed2c77648de5860a4cc508cd0818c85b8b8a1ab4ceeef8d981c8956a661059061273b565b6108505760405162461bcd60e51b815260040161070690615055565b61085861273b565b6001600160a01b0316846001600160a01b0316636352211e856040518263ffffffff1660e01b815260040161088d91906149a5565b60206040518083038186803b1580156108a557600080fd5b505afa1580156108b9573d6000803e3d6000fd5b505050506040513d601f19601f820116820180604052508101906108dd9190613ea5565b6001600160a01b0316146109035760405162461bcd60e51b81526004016107069061548e565b60405163020604bf60e21b815230906001600160a01b0386169063081812fc906109319087906004016149a5565b60206040518083038186803b15801561094957600080fd5b505afa15801561095d573d6000803e3d6000fd5b505050506040513d601f19601f820116820180604052508101906109819190613ea5565b6001600160a01b03161480610a165750836001600160a01b031663e985e9c56109a861273b565b306040518363ffffffff1660e01b81526004016109c6929190614731565b60206040518083038186803b1580156109de57600080fd5b505afa1580156109f2573d6000803e3d6000fd5b505050506040513d601f19601f82011682018060405250810190610a169190614486565b610a325760405162461bcd60e51b815260040161070690614d28565b6000610a3c61273b565b600980549192506001906000610a528385615734565b9091555050604051632142170760e11b81526001600160a01b038716906342842e0e90610a8790859030908a906004016147a9565b600060405180830381600087803b158015610aa157600080fd5b505af1158015610ab5573d6000803e3d6000fd5b50505050610ad5828260016040518060200160405280600081525061274a565b6040518060600160405280836001600160a01b0316815260200185858080601f01602080910402602001604051908101604052809392919081815260200183838082843760009201829052509385525050600260209384015250838152600d825260409020825181546001600160a01b0319166001600160a01b039091161781558282015180519192610b7092600185019290910190613c1c565b5060408201518160020160006101000a81548160ff02191690836002811115610ba957634e487b7160e01b600052602160045260246000fd5b0217905550506040805180820182526001600160a01b0389811680835260208084018b81526000888152600e90925290859020935184546001600160a01b031916908416178455516001909301929092559151909250908416907f797091bed1dcc535a592c3da1115fdb7467204ef9fb70943f0fc855ebe0a30f590610c3690899086908a908a90615651565b60405180910390a3505050505050565b6000818152600d60205260409020600101805460609190610c66906157e5565b80601f0160208091040260200160405190810160405280929190818152602001828054610c92906157e5565b8015610cdf5780601f10610cb457610100808354040283529160200191610cdf565b820191906000526020600020905b815481529060010190602001808311610cc257829003601f168201915b50505050509050919050565b630a85bd0160e11b949350505050565b6008546040805163a217fddf60e01b815290516001600160a01b03909216916391d1485491839163a217fddf91600480820192602092909190829003018186803b158015610d4857600080fd5b505afa158015610d5c573d6000803e3d6000fd5b505050506040513d601f19601f82011682018060405250810190610d8091906144ba565b610d8861273b565b6040518363ffffffff1660e01b8152600401610da59291906149ae565b60206040518083038186803b158015610dbd57600080fd5b505afa158015610dd1573d6000803e3d6000fd5b505050506040513d601f19601f82011682018060405250810190610df59190614486565b610e115760405162461bcd60e51b81526004016107069061531a565b600860009054906101000a90046001600160a01b03166001600160a01b031663fd967f476040518163ffffffff1660e01b815260040160206040518083038186803b158015610e5f57600080fd5b505afa158015610e73573d6000803e3d6000fd5b505050506040513d601f19601f82011682018060405250810190610e97919061458f565b6fffffffffffffffffffffffffffffffff168110610ec75760405162461bcd60e51b815260040161070690614adc565b600a8190556040517f244ea8d7627f5a08f4299862bd5a45752842c183aee5b0fb0d1e4887bfa605b390610efc9083906149a5565b60405180910390a150565b60018060005b8551811015610fe757600954868281518110610f3957634e487b7160e01b600052603260045260246000fd5b602002602001015110158015610f4c5750825b15610f5657600092505b6000600d6000888481518110610f7c57634e487b7160e01b600052603260045260246000fd5b6020026020010151815260200190815260200160002060020160009054906101000a900460ff166002811115610fc257634e487b7160e01b600052602160045260246000fd5b14158015610fcd5750815b15610fd757600091505b610fe081615820565b9050610f0d565b50816110055760405162461bcd60e51b815260040161070690614b70565b806110225760405162461bcd60e51b815260040161070690614c2a565b61102e8686868661277f565b505050505050565b7f8502233096d909befbda0999bb8ea2f3a6be3c138b9fbf003752a4c8bce86f6c81565b60009081526020819052604090206001015490565b60085460405163f2aab4b360e01b815260009182916001600160a01b039091169063f2aab4b3906110a490309060040161471d565b60206040518083038186803b1580156110bc57600080fd5b505afa1580156110d0573d6000803e3d6000fd5b505050506040513d601f19601f820116820180604052508101906110f49190613ea5565b9150600860009054906101000a90046001600160a01b03166001600160a01b031663fd967f476040518163ffffffff1660e01b815260040160206040518083038186803b15801561114457600080fd5b505afa158015611158573d6000803e3d6000fd5b505050506040513d601f19601f8201168201806040525081019061117c919061458f565b6fffffffffffffffffffffffffffffffff16600a548461119c919061576c565b6111a6919061574c565b90509250929050565b6111b761273b565b6001600160a01b0316856001600160a01b031614806111dd57506111dd8561068d61273b565b6111f95760405162461bcd60e51b815260040161070690614ff8565b61120685858585856127d3565b5050505050565b611217828261299f565b600082815260016020526040902061122f9082612717565b505050565b61123e82826129c3565b600082815260016020526040902061122f9082612a05565b600e60205260009081526040902080546001909101546001600160a01b039091169082565b6112a77f65d7a28e3265b37a6474929f336521b332c1681b933f6cb9f3376673440d862a61059061273b565b6112c35760405162461bcd60e51b815260040161070690615260565b6112cb612a1a565b565b606081518351146112f05760405162461bcd60e51b8152600401610706906153d4565b6000835167ffffffffffffffff81111561131a57634e487b7160e01b600052604160045260246000fd5b604051908082528060200260200182016040528015611343578160200160208202803683370190505b50905060005b84518110156113e5576113aa85828151811061137557634e487b7160e01b600052603260045260246000fd5b602002602001015185838151811061139d57634e487b7160e01b600052603260045260246000fd5b60200260200101516106de565b8282815181106113ca57634e487b7160e01b600052603260045260246000fd5b60209081029190910101526113de81615820565b9050611349565b509392505050565b6000908152600d60205260409020546001600160a01b031690565b6007546001600160a01b0390811691161490565b60055460ff165b90565b600f602052600090815260409020805460018201546002909201546001600160a01b03909116919083565b61145961273b565b6001600160a01b0316836001600160a01b0316148061147f575061147f8361068d61273b565b61149b5760405162461bcd60e51b815260040161070690614e3f565b61122f838383612a88565b60095483106114c75760405162461bcd60e51b815260040161070690614b70565b6000838152600d6020526040812060029081015460ff16908111156114fc57634e487b7160e01b600052602160045260246000fd5b146115195760405162461bcd60e51b815260040161070690614c2a565b61152584848484612b26565b50505050565b60095481565b600061153b61273b565b90508161154882856106de565b10156115665760405162461bcd60e51b815260040161070690615431565b611571818484612b7a565b6000838152600f60205260408120600181015460029091015461159590859061576c565b61159f919061574c565b6000858152600f60205260409081902054905163a9059cbb60e01b81529192506001600160a01b03169063a9059cbb906115df9085908590600401614860565b602060405180830381600087803b1580156115f957600080fd5b505af115801561160d573d6000803e3d6000fd5b505050506040513d601f19601f820116820180604052508101906116319190614486565b61164d5760405162461bcd60e51b815260040161070690614c87565b6000848152600f6020526040908190205490516001600160a01b03918216918691908516907fb80333a30b48beb3745280a5e4bb1b8e53f79569e454ec99ba13678dfbe728eb906116a19086908990615643565b60405180910390a450505050565b600c5460ff1681565b6116e47f65d7a28e3265b37a6474929f336521b332c1681b933f6cb9f3376673440d862a61059061273b565b6117005760405162461bcd60e51b8152600401610706906152bd565b6112cb612bad565b6008546040805163a217fddf60e01b815290516001600160a01b03909216916391d1485491839163a217fddf91600480820192602092909190829003018186803b15801561175557600080fd5b505afa158015611769573d6000803e3d6000fd5b505050506040513d601f19601f8201168201806040525081019061178d91906144ba565b61179561273b565b6040518363ffffffff1660e01b81526004016117b29291906149ae565b60206040518083038186803b1580156117ca57600080fd5b505afa1580156117de573d6000803e3d6000fd5b505050506040513d601f19601f820116820180604052508101906118029190614486565b61181e5760405162461bcd60e51b81526004016107069061531a565b600c805460ff1916911515919091179055565b60008281526001602052604081206118499083612c08565b9392505050565b6000918252602082815260408084206001600160a01b0393909316845291905290205460ff1690565b6008546040805163a217fddf60e01b815290516001600160a01b03909216916391d1485491839163a217fddf91600480820192602092909190829003018186803b1580156118c657600080fd5b505afa1580156118da573d6000803e3d6000fd5b505050506040513d601f19601f820116820180604052508101906118fe91906144ba565b61190661273b565b6040518363ffffffff1660e01b81526004016119239291906149ae565b60206040518083038186803b15801561193b57600080fd5b505afa15801561194f573d6000803e3d6000fd5b505050506040513d601f19601f820116820180604052508101906119739190614486565b61198f5760405162461bcd60e51b81526004016107069061531a565b61122f600b8383613ca0565b60006119a561273b565b905060006119b382846106de565b116119d05760405162461bcd60e51b815260040161070690615431565b6119dc81836001612b7a565b6000828152600e60205260409081902080546001909101549151632142170760e11b81526001600160a01b03909116916342842e0e91611a239130918691906004016147a9565b600060405180830381600087803b158015611a3d57600080fd5b505af1158015611a51573d6000803e3d6000fd5b5050506000838152600e602052604090819020805460019091015491516001600160a01b039182169350908416917fea7b88a04220a2292e142652e8e1a59cc00e7d27d8ad6b11da6cf5870e6ba86691611aad91908790615643565b60405180910390a35050565b600d60205260009081526040902080546001820180546001600160a01b039092169291611ae5906157e5565b80601f0160208091040260200160405190810160405280929190818152602001828054611b11906157e5565b8015611b5e5780601f10611b3357610100808354040283529160200191611b5e565b820191906000526020600020905b815481529060010190602001808311611b4157829003601f168201915b5050506002909301549192505060ff1683565b600081565b816001600160a01b0316611b8861273b565b6001600160a01b03161415611baf5760405162461bcd60e51b815260040161070690615377565b8060036000611bbc61273b565b6001600160a01b03908116825260208083019390935260409182016000908120918716808252919093529120805460ff191692151592909217909155611c0061273b565b6001600160a01b03167f17307eab39ab6107e8899845ad3d59bd9653f200f220920489ca2b5937696c3183604051611aad919061499a565b63bc197c8160e01b95945050505050565b60009081526006602052604090205490565b600b8054611c68906157e5565b80601f0160208091040260200160405190810160405280929190818152602001828054611c94906157e5565b8015611ce15780601f10611cb657610100808354040283529160200191611ce1565b820191906000526020600020905b815481529060010190602001808311611cc457829003601f168201915b505050505081565b600a5481565b600081815260016020526040812061073490612c14565b7f9f2df0fed2c77648de5860a4cc508cd0818c85b8b8a1ab4ceeef8d981c8956a681565b61123e8282612c1f565b600860009054906101000a90046001600160a01b03166001600160a01b0316639d2f83f06040518163ffffffff1660e01b815260040160206040518083038186803b158015611d8257600080fd5b505afa158015611d96573d6000803e3d6000fd5b505050506040513d601f19601f82011682018060405250810190611dba9190614486565b15611dd75760405162461bcd60e51b8152600401610706906151bd565b611e037f9f2df0fed2c77648de5860a4cc508cd0818c85b8b8a1ab4ceeef8d981c8956a661059061273b565b611e1f5760405162461bcd60e51b815260040161070690615055565b6000611e2961273b565b905084866001600160a01b03166370a08231836040518263ffffffff1660e01b8152600401611e58919061471d565b60206040518083038186803b158015611e7057600080fd5b505afa158015611e84573d6000803e3d6000fd5b505050506040513d601f19601f82011682018060405250810190611ea891906144ba565b1015611ec65760405162461bcd60e51b815260040161070690615203565b604051636eb1769f60e11b815285906001600160a01b0388169063dd62ed3e90611ef69085903090600401614731565b60206040518083038186803b158015611f0e57600080fd5b505afa158015611f22573d6000803e3d6000fd5b505050506040513d601f19601f82011682018060405250810190611f4691906144ba565b1015611f645760405162461bcd60e51b815260040161070690614de2565b6040516323b872dd60e01b81526001600160a01b038716906323b872dd90611f9490849030908a906004016147a9565b602060405180830381600087803b158015611fae57600080fd5b505af1158015611fc2573d6000803e3d6000fd5b505050506040513d601f19601f82011682018060405250810190611fe69190614486565b6120025760405162461bcd60e51b815260040161070690614c87565b600980549060019060006120168385615734565b925050819055506120388282876040518060200160405280600081525061274a565b6040518060600160405280836001600160a01b0316815260200185858080601f0160208091040260200160405190810160405280939291908181526020018383808284376000920182905250938552505060016020938401819052858352600d84526040909220845181546001600160a01b0319166001600160a01b0390911617815584840151805191946120d294860193500190613c1c565b5060408201518160020160006101000a81548160ff0219169083600281111561210b57634e487b7160e01b600052602160045260246000fd5b021790555050604080516060810182526001600160a01b038a811680835260208084018b81528486018d81526000898152600f90935291869020945185546001600160a01b031916908516178555516001850155516002909301929092559151909250908416907f53af9a53d4a11cb382035aa13d6d8e24575569953176d87464ba37e7013a6aa4906121a7908a908a9087908b908b9061567b565b60405180910390a350505050505050565b7f65d7a28e3265b37a6474929f336521b332c1681b933f6cb9f3376673440d862a81565b6060600b80546121eb906157e5565b80601f0160208091040260200160405190810160405280929190818152602001828054612217906157e5565b80156122645780601f1061223957610100808354040283529160200191612264565b820191906000526020600020905b81548152906001019060200180831161224757829003601f168201915b5050505050905090565b6001600160a01b03918216600090815260036020908152604080832093909416825291909152205460ff1690565b63f23a6e6160e01b95945050505050565b6122b561273b565b6001600160a01b0316856001600160a01b031614806122db57506122db8561068d61273b565b6122f75760405162461bcd60e51b815260040161070690614e3f565b6112068585858585612c3e565b61230c61273b565b6001600160a01b0316836001600160a01b0316148061233257506123328361068d61273b565b61234e5760405162461bcd60e51b815260040161070690614e3f565b61122f838383612b7a565b600854604080516309d2f83f60e41b815290516060926001600160a01b031691639d2f83f0916004808301926020929190829003018186803b15801561239e57600080fd5b505afa1580156123b2573d6000803e3d6000fd5b505050506040513d601f19601f820116820180604052508101906123d69190614486565b156123f35760405162461bcd60e51b8152600401610706906151bd565b61241f7f9f2df0fed2c77648de5860a4cc508cd0818c85b8b8a1ab4ceeef8d981c8956a661059061273b565b61243b5760405162461bcd60e51b815260040161070690615055565b84831461245a5760405162461bcd60e51b815260040161070690614f1f565b846124775760405162461bcd60e51b8152600401610706906154eb565b600061248161273b565b90508567ffffffffffffffff8111156124aa57634e487b7160e01b600052604160045260246000fd5b6040519080825280602002602001820160405280156124d3578160200160208202803683370190505b5060095490925060005b8781101561263e578184828151811061250657634e487b7160e01b600052603260045260246000fd5b6020026020010181815250506040518060600160405280846001600160a01b031681526020018a8a8481811061254c57634e487b7160e01b600052603260045260246000fd5b905060200281019061255e91906156a1565b8080601f01602080910402602001604051908101604052809392919081815260200183838082843760009201829052509385525050506020918201819052848152600d825260409020825181546001600160a01b0319166001600160a01b0390911617815582820151805191926125dd92600185019290910190613c1c565b5060408201518160020160006101000a81548160ff0219169083600281111561261657634e487b7160e01b600052602160045260246000fd5b021790555061262a91506001905083615734565b91508061263681615820565b9150506124dd565b508060098190555061268689848888808060200260200160405190810160405280939291908181526020018383602002808284376000920191909152508a9250612d85915050565b816001600160a01b03167fbea5a4b7cf9a3f7d8bf7c987614db5dcfdcd917a2cd5788a210c0ebdccfc5da4848a8a8a8a6040516126c79594939291906148ad565b60405180910390a250509695505050505050565b60006126e633611408565b156126fa575060131936013560601c611423565b61270261272c565b9050611423565b6127138282612e24565b5050565b6000611849836001600160a01b038416612ea9565b3390565b600061073482612ef3565b60006127456126db565b905090565b61275684848484612f18565b60008381526006602052604081208054849290612774908490615734565b909155505050505050565b6127ab7f9f2df0fed2c77648de5860a4cc508cd0818c85b8b8a1ab4ceeef8d981c8956a661059061273b565b6127c75760405162461bcd60e51b815260040161070690615103565b61152584848484612d85565b81518351146127f45760405162461bcd60e51b815260040161070690615548565b6001600160a01b03841661281a5760405162461bcd60e51b815260040161070690614fb3565b600061282461273b565b9050612834818787878787612ffa565b60005b845181101561293957600085828151811061286257634e487b7160e01b600052603260045260246000fd5b60200260200101519050600085838151811061288e57634e487b7160e01b600052603260045260246000fd5b60209081029190910181015160008481526002835260408082206001600160a01b038e1683529093529190912054909150818110156128df5760405162461bcd60e51b815260040161070690615160565b60008381526002602090815260408083206001600160a01b038e8116855292528083208585039055908b1682528120805484929061291e908490615734565b925050819055505050508061293290615820565b9050612837565b50846001600160a01b0316866001600160a01b0316826001600160a01b03167f4a39dc06d4c0dbc64b70af90fd698a233a518aa5d07e595d983b8c0526c8f7fb878760405161298992919061496c565b60405180910390a461102e8187878787876130b1565b6129a88261105a565b6129b9816129b461273b565b6131bf565b61122f8383612e24565b6129cb61273b565b6001600160a01b0316816001600160a01b0316146129fb5760405162461bcd60e51b8152600401610706906155e6565b6127138282613223565b6000611849836001600160a01b0384166132a6565b612a2261141c565b612a3e5760405162461bcd60e51b815260040161070690614b39565b6005805460ff191690557f5db9ee0a495bf2e6ff9c91a7834c1ba4fdd244a5e8aa4e537bd38aeae4b073aa612a7161273b565b604051612a7e919061471d565b60405180910390a1565b612a938383836133c3565b60005b825181101561152557818181518110612abf57634e487b7160e01b600052603260045260246000fd5b602002602001015160066000858481518110612aeb57634e487b7160e01b600052603260045260246000fd5b602002602001015181526020019081526020016000206000828254612b10919061578b565b90915550612b1f905081615820565b9050612a96565b612b527f9f2df0fed2c77648de5860a4cc508cd0818c85b8b8a1ab4ceeef8d981c8956a661059061273b565b612b6e5760405162461bcd60e51b815260040161070690615103565b6115258484848461274a565b612b85838383613569565b60008281526006602052604081208054839290612ba390849061578b565b9091555050505050565b612bb561141c565b15612bd25760405162461bcd60e51b815260040161070690614f7c565b6005805460ff191660011790557f62e78cea01bee320cd4e420270b5ea74000d11b0c9f74754ebdbfc544b05a258612a7161273b565b6000611849838361367c565b6000610734826136b4565b612c288261105a565b612c34816129b461273b565b61122f8383613223565b6001600160a01b038416612c645760405162461bcd60e51b815260040161070690614fb3565b6000612c6e61273b565b9050612c8e818787612c7f886136b8565b612c88886136b8565b87612ffa565b60008481526002602090815260408083206001600160a01b038a16845290915290205483811015612cd15760405162461bcd60e51b815260040161070690615160565b60008581526002602090815260408083206001600160a01b038b8116855292528083208785039055908816825281208054869290612d10908490615734565b92505081905550856001600160a01b0316876001600160a01b0316836001600160a01b03167fc3d58168c5ae7397731d063d5bbf3d657854427343f4c083240f7aacaa2d0f628888604051612d66929190615643565b60405180910390a4612d7c828888888888613711565b50505050505050565b612d91848484846137e2565b60005b835181101561120657828181518110612dbd57634e487b7160e01b600052603260045260246000fd5b602002602001015160066000868481518110612de957634e487b7160e01b600052603260045260246000fd5b602002602001015181526020019081526020016000206000828254612e0e9190615734565b90915550612e1d905081615820565b9050612d94565b612e2e8282611850565b612713576000828152602081815260408083206001600160a01b03851684529091529020805460ff19166001179055612e6561273b565b6001600160a01b0316816001600160a01b0316837f2f8788117e7eff1d82e926ec794901d17c78024a50270940304540a733656f0d60405160405180910390a45050565b6000612eb58383613964565b612eeb57508154600181810184556000848152602080822090930184905584548482528286019093526040902091909155610734565b506000610734565b60006001600160e01b03198216630271189760e51b148061073457506107348261397c565b6001600160a01b038416612f3e5760405162461bcd60e51b8152600401610706906155a5565b6000612f4861273b565b9050612f5a81600087612c7f886136b8565b60008481526002602090815260408083206001600160a01b038916845290915281208054859290612f8c908490615734565b92505081905550846001600160a01b031660006001600160a01b0316826001600160a01b03167fc3d58168c5ae7397731d063d5bbf3d657854427343f4c083240f7aacaa2d0f628787604051612fe3929190615643565b60405180910390a461120681600087878787613711565b6130088686868686866139bc565b600c5460ff16801561302257506001600160a01b03851615155b801561303657506001600160a01b03841615155b1561102e576130657f8502233096d909befbda0999bb8ea2f3a6be3c138b9fbf003752a4c8bce86f6c86611850565b8061309557506130957f8502233096d909befbda0999bb8ea2f3a6be3c138b9fbf003752a4c8bce86f6c85611850565b61102e5760405162461bcd60e51b815260040161070690614e9c565b6130c3846001600160a01b03166139ca565b1561102e5760405163bc197c8160e01b81526001600160a01b0385169063bc197c81906130fc908990899088908890889060040161474b565b602060405180830381600087803b15801561311657600080fd5b505af1925050508015613146575060408051601f3d908101601f1916820190925261314391810190614533565b60015b61318f5761315261586d565b8061315d5750613177565b8060405162461bcd60e51b815260040161070691906149da565b60405162461bcd60e51b8152600401610706906149ed565b6001600160e01b0319811663bc197c8160e01b14612d7c5760405162461bcd60e51b815260040161070690614a7f565b6131c98282611850565b612713576131e1816001600160a01b031660146139d0565b6131ec8360206139d0565b6040516020016131fd92919061469c565b60408051601f198184030181529082905262461bcd60e51b8252610706916004016149da565b61322d8282611850565b15612713576000828152602081815260408083206001600160a01b03851684529091529020805460ff1916905561326261273b565b6001600160a01b0316816001600160a01b0316837ff6391f5c32d9c69d2a47ea670b442974b53935d1edc7fd64eb21e047a839171b60405160405180910390a45050565b600081815260018301602052604081205480156133b95760006132ca60018361578b565b85549091506000906132de9060019061578b565b905081811461335f57600086600001828154811061330c57634e487b7160e01b600052603260045260246000fd5b906000526020600020015490508087600001848154811061333d57634e487b7160e01b600052603260045260246000fd5b6000918252602080832090910192909255918252600188019052604090208390555b855486908061337e57634e487b7160e01b600052603160045260246000fd5b600190038181906000526020600020016000905590558560010160008681526020019081526020016000206000905560019350505050610734565b6000915050610734565b6001600160a01b0383166133e95760405162461bcd60e51b8152600401610706906150c0565b805182511461340a5760405162461bcd60e51b815260040161070690615548565b600061341461273b565b905061343481856000868660405180602001604052806000815250612ffa565b60005b835181101561351857600084828151811061346257634e487b7160e01b600052603260045260246000fd5b60200260200101519050600084838151811061348e57634e487b7160e01b600052603260045260246000fd5b60209081029190910181015160008481526002835260408082206001600160a01b038c1683529093529190912054909150818110156134df5760405162461bcd60e51b815260040161070690614ce4565b60009283526002602090815260408085206001600160a01b038b168652909152909220910390558061351081615820565b915050613437565b5060006001600160a01b0316846001600160a01b0316826001600160a01b03167f4a39dc06d4c0dbc64b70af90fd698a233a518aa5d07e595d983b8c0526c8f7fb86866040516116a192919061496c565b6001600160a01b03831661358f5760405162461bcd60e51b8152600401610706906150c0565b600061359961273b565b90506135c9818560006135ab876136b8565b6135b4876136b8565b60405180602001604052806000815250612ffa565b60008381526002602090815260408083206001600160a01b03881684529091529020548281101561360c5760405162461bcd60e51b815260040161070690614ce4565b60008481526002602090815260408083206001600160a01b03808a16808652919093528184208786039055905190918516907fc3d58168c5ae7397731d063d5bbf3d657854427343f4c083240f7aacaa2d0f629061366d9089908990615643565b60405180910390a45050505050565b60008260000182815481106136a157634e487b7160e01b600052603260045260246000fd5b9060005260206000200154905092915050565b5490565b6040805160018082528183019092526060916000919060208083019080368337019050509050828160008151811061370057634e487b7160e01b600052603260045260246000fd5b602090810291909101015292915050565b613723846001600160a01b03166139ca565b1561102e5760405163f23a6e6160e01b81526001600160a01b0385169063f23a6e619061375c90899089908890889088906004016147cd565b602060405180830381600087803b15801561377657600080fd5b505af19250505080156137a6575060408051601f3d908101601f191682019092526137a391810190614533565b60015b6137b25761315261586d565b6001600160e01b0319811663f23a6e6160e01b14612d7c5760405162461bcd60e51b815260040161070690614a7f565b6001600160a01b0384166138085760405162461bcd60e51b8152600401610706906155a5565b81518351146138295760405162461bcd60e51b815260040161070690615548565b600061383361273b565b905061384481600087878787612ffa565b60005b84518110156138fc5783818151811061387057634e487b7160e01b600052603260045260246000fd5b60200260200101516002600087848151811061389c57634e487b7160e01b600052603260045260246000fd5b602002602001015181526020019081526020016000206000886001600160a01b03166001600160a01b0316815260200190815260200160002060008282546138e49190615734565b909155508190506138f481615820565b915050613847565b50846001600160a01b031660006001600160a01b0316826001600160a01b03167f4a39dc06d4c0dbc64b70af90fd698a233a518aa5d07e595d983b8c0526c8f7fb878760405161394d92919061496c565b60405180910390a4611206816000878787876130b1565b60009081526001919091016020526040902054151590565b60006001600160e01b03198216636cdb3d1360e11b14806139ad57506001600160e01b031982166303a24d0760e21b145b80610734575061073482613b8f565b61102e868686868686613bb4565b3b151590565b606060006139df83600261576c565b6139ea906002615734565b67ffffffffffffffff811115613a1057634e487b7160e01b600052604160045260246000fd5b6040519080825280601f01601f191660200182016040528015613a3a576020820181803683370190505b509050600360fc1b81600081518110613a6357634e487b7160e01b600052603260045260246000fd5b60200101906001600160f81b031916908160001a905350600f60fb1b81600181518110613aa057634e487b7160e01b600052603260045260246000fd5b60200101906001600160f81b031916908160001a9053506000613ac484600261576c565b613acf906001615734565b90505b6001811115613b70577f303132333435363738396162636465660000000000000000000000000000000085600f1660108110613b1e57634e487b7160e01b600052603260045260246000fd5b1a60f81b828281518110613b4257634e487b7160e01b600052603260045260246000fd5b60200101906001600160f81b031916908160001a90535060049490941c93613b69816157ce565b9050613ad2565b5083156118495760405162461bcd60e51b815260040161070690614a4a565b60006001600160e01b03198216635a05180f60e01b1480610734575061073482613be7565b613bc286868686868661102e565b613bca61141c565b1561102e5760405162461bcd60e51b815260040161070690614d85565b60006001600160e01b03198216637965db0b60e01b148061073457506301ffc9a760e01b6001600160e01b0319831614610734565b828054613c28906157e5565b90600052602060002090601f016020900481019282613c4a5760008555613c90565b82601f10613c6357805160ff1916838001178555613c90565b82800160010185558215613c90579182015b82811115613c90578251825591602001919060010190613c75565b50613c9c929150613d14565b5090565b828054613cac906157e5565b90600052602060002090601f016020900481019282613cce5760008555613c90565b82601f10613ce75782800160ff19823516178555613c90565b82800160010185558215613c90579182015b82811115613c90578235825591602001919060010190613cf9565b5b80821115613c9c5760008155600101613d15565b60008083601f840112613d3a578182fd5b50813567ffffffffffffffff811115613d51578182fd5b6020830191508360208083028501011115613d6b57600080fd5b9250929050565b600082601f830112613d82578081fd5b81356020613d97613d9283615710565b6156e6565b8281528181019085830183850287018401881015613db3578586fd5b855b85811015613dd157813584529284019290840190600101613db5565b5090979650505050505050565b600082601f830112613dee578081fd5b813567ffffffffffffffff811115613e0857613e08615851565b613e1b601f8201601f19166020016156e6565b818152846020838601011115613e2f578283fd5b816020850160208301379081016020019190915292915050565b60008083601f840112613e5a578182fd5b50813567ffffffffffffffff811115613e71578182fd5b602083019150836020828501011115613d6b57600080fd5b600060208284031215613e9a578081fd5b813561184981615912565b600060208284031215613eb6578081fd5b815161184981615912565b60008060408385031215613ed3578081fd5b8235613ede81615912565b91506020830135613eee81615912565b809150509250929050565b600080600080600060a08688031215613f10578081fd5b8535613f1b81615912565b94506020860135613f2b81615912565b9350604086013567ffffffffffffffff80821115613f47578283fd5b613f5389838a01613d72565b94506060880135915080821115613f68578283fd5b613f7489838a01613d72565b93506080880135915080821115613f89578283fd5b50613f9688828901613dde565b9150509295509295909350565b60008060008060808587031215613fb8578384fd5b8435613fc381615912565b93506020850135613fd381615912565b925060408501359150606085013567ffffffffffffffff811115613ff5578182fd5b61400187828801613dde565b91505092959194509250565b600080600080600060a08688031215614024578283fd5b853561402f81615912565b9450602086013561403f81615912565b93506040860135925060608601359150608086013567ffffffffffffffff811115614068578182fd5b613f9688828901613dde565b6000806000806000806080878903121561408c578384fd5b863561409781615912565b9550602087013567ffffffffffffffff808211156140b3578586fd5b6140bf8a838b01613d29565b909750955060408901359150808211156140d7578283fd5b6140e38a838b01613d29565b909550935060608901359150808211156140fb578283fd5b5061410889828a01613dde565b9150509295509295509295565b600080600060608486031215614129578081fd5b833561413481615912565b9250602084013567ffffffffffffffff80821115614150578283fd5b61415c87838801613d72565b93506040860135915080821115614171578283fd5b5061417e86828701613d72565b9150509250925092565b6000806000806080858703121561419d578182fd5b84356141a881615912565b9350602085013567ffffffffffffffff808211156141c4578384fd5b6141d088838901613d72565b945060408701359150808211156141e5578384fd5b6141f188838901613d72565b93506060870135915080821115614206578283fd5b5061400187828801613dde565b60008060408385031215614225578182fd5b823561423081615912565b91506020830135613eee8161592a565b60008060408385031215614252578182fd5b823561425d81615912565b946020939093013593505050565b60008060008060608587031215614280578182fd5b843561428b81615912565b935060208501359250604085013567ffffffffffffffff8111156142ad578283fd5b6142b987828801613e49565b95989497509550505050565b6000806000606084860312156142d9578081fd5b83356142e481615912565b95602085013595506040909401359392505050565b6000806000806080858703121561430e578182fd5b843561431981615912565b93506020850135925060408501359150606085013567ffffffffffffffff811115613ff5578182fd5b600080600080600060808688031215614359578283fd5b853561436481615912565b94506020860135935060408601359250606086013567ffffffffffffffff81111561438d578182fd5b61439988828901613e49565b969995985093965092949392505050565b600080604083850312156143bc578182fd5b823567ffffffffffffffff808211156143d3578384fd5b818501915085601f8301126143e6578384fd5b813560206143f6613d9283615710565b82815281810190858301838502870184018b1015614412578889fd5b8896505b8487101561443d57803561442981615912565b835260019690960195918301918301614416565b5096505086013592505080821115614453578283fd5b5061446085828601613d72565b9150509250929050565b60006020828403121561447b578081fd5b81356118498161592a565b600060208284031215614497578081fd5b81516118498161592a565b6000602082840312156144b3578081fd5b5035919050565b6000602082840312156144cb578081fd5b5051919050565b600080604083850312156144e4578182fd5b823591506020830135613eee81615912565b60008060408385031215614508578182fd5b50508035926020909101359150565b600060208284031215614528578081fd5b813561184981615938565b600060208284031215614544578081fd5b815161184981615938565b60008060208385031215614561578182fd5b823567ffffffffffffffff811115614577578283fd5b61458385828601613e49565b90969095509350505050565b6000602082840312156145a0578081fd5b81516fffffffffffffffffffffffffffffffff81168114611849578182fd5b60008284527f07ffffffffffffffffffffffffffffffffffffffffffffffffffffffffffffff8311156145f0578081fd5b6020830280836020870137939093016020019283525090919050565b6000815180845260208085019450808401835b8381101561463b5781518752958201959082019060010161461f565b509495945050505050565b6000815180845261465e8160208601602086016157a2565b601f01601f19169290920160200192915050565b60008284528282602086013780602084860101526020601f19601f85011685010190509392505050565b60007f416363657373436f6e74726f6c3a206163636f756e7420000000000000000000825283516146d48160178501602088016157a2565b7f206973206d697373696e6720726f6c652000000000000000000000000000000060179184019182015283516147118160288401602088016157a2565b01602801949350505050565b6001600160a01b0391909116815260200190565b6001600160a01b0392831681529116602082015260400190565b60006001600160a01b03808816835280871660208401525060a0604083015261477760a083018661460c565b8281036060840152614789818661460c565b9050828103608084015261479d8185614646565b98975050505050505050565b6001600160a01b039384168152919092166020820152604081019190915260600190565b60006001600160a01b03808816835280871660208401525084604083015283606083015260a0608083015261480560a0830184614646565b979650505050505050565b60006001600160a01b0385168252606060208301526148326060830185614646565b90506003831061485257634e487b7160e01b600052602160045260246000fd5b826040830152949350505050565b6001600160a01b03929092168252602082015260400190565b6001600160a01b039390931683526020830191909152604082015260600190565b600060208252611849602083018461460c565b6000606082526148c0606083018861460c565b6020838203818501528187835281830190508182890284010189855b8a81101561494857858303601f190184528135368d9003601e19018112614901578788fd5b8c01803567ffffffffffffffff811115614919578889fd5b8036038e1315614927578889fd5b6149348582898501614672565b9587019594505050908401906001016148dc565b5050858103604087015261495d81888a6145bf565b9b9a5050505050505050505050565b60006040825261497f604083018561460c565b8281036020840152614991818561460c565b95945050505050565b901515815260200190565b90815260200190565b9182526001600160a01b0316602082015260400190565b6001600160e01b031991909116815260200190565b6000602082526118496020830184614646565b60208082526034908201527f455243313135353a207472616e7366657220746f206e6f6e204552433131353560408201527f526563656976657220696d706c656d656e746572000000000000000000000000606082015260800190565b6020808252818101527f537472696e67733a20686578206c656e67746820696e73756666696369656e74604082015260600190565b60208082526028908201527f455243313135353a204552433131353552656365697665722072656a6563746560408201527f6420746f6b656e73000000000000000000000000000000000000000000000000606082015260800190565b6020808252603e908201527f4e4654436f6c6c656374696f6e3a20496e76616c6964206270732070726f766960408201527f6465643b206d757374206265206c657373207468616e2031302c3030302e0000606082015260800190565b60208082526014908201527f5061757361626c653a206e6f7420706175736564000000000000000000000000604082015260600190565b60208082526039908201527f4e4654436f6c6c656374696f6e3a2063616e6e6f742063616c6c20746869732060408201527f666e20666f72206372656174696e67206e6577204e4654732e00000000000000606082015260800190565b6020808252602b908201527f455243313135353a2062616c616e636520717565727920666f7220746865207a60408201527f65726f2061646472657373000000000000000000000000000000000000000000606082015260800190565b6020808252603a908201527f4e4654436f6c6c656374696f6e3a2063616e6e6f7420667265656c79206d696e60408201527f74206d6f7265206f66204552433230206f72204552433732312e000000000000606082015260800190565b6020808252602f908201527f4e4654436f6c6c656374696f6e3a204661696c656420746f207472616e73666560408201527f7220455243323020746f6b656e732e0000000000000000000000000000000000606082015260800190565b60208082526024908201527f455243313135353a206275726e20616d6f756e7420657863656564732062616c604082015263616e636560e01b606082015260800190565b6020808252603d908201527f4e4654436f6c6c656374696f6e3a204d75737420617070726f7665207468652060408201527f636f6e747261637420746f207472616e7366657220746865204e46542e000000606082015260800190565b6020808252602c908201527f455243313135355061757361626c653a20746f6b656e207472616e736665722060408201527f7768696c65207061757365640000000000000000000000000000000000000000606082015260800190565b6020808252603d908201527f4e4654436f6c6c656374696f6e3a204d75737420617070726f7665207468697360408201527f20636f6e747261637420746f207472616e7366657220746f6b656e732e000000606082015260800190565b60208082526029908201527f455243313135353a2063616c6c6572206973206e6f74206f776e6572206e6f7260408201527f20617070726f7665640000000000000000000000000000000000000000000000606082015260800190565b60208082526048908201527f4e4654436f6c6c656374696f6e3a205472616e7366657273206172652072657360408201527f7472696374656420746f206f722066726f6d205452414e534645525f524f4c4560608201527f20686f6c64657273000000000000000000000000000000000000000000000000608082015260a00190565b6020808252603a908201527f4e4654436f6c6c656374696f6e3a204d7573742073706563696679206571756160408201527f6c206e756d626572206f6620636f6e6669672076616c7565732e000000000000606082015260800190565b60208082526010908201527f5061757361626c653a2070617573656400000000000000000000000000000000604082015260600190565b60208082526025908201527f455243313135353a207472616e7366657220746f20746865207a65726f206164604082015264647265737360d81b606082015260800190565b60208082526032908201527f455243313135353a207472616e736665722063616c6c6572206973206e6f742060408201527f6f776e6572206e6f7220617070726f7665640000000000000000000000000000606082015260800190565b60208082526045908201527f4e4654436f6c6c656374696f6e3a204f6e6c79206163636f756e74732077697460408201527f68204d494e5445525f524f4c452063616e2063616c6c20746869732066756e636060820152643a34b7b71760d91b608082015260a00190565b60208082526023908201527f455243313135353a206275726e2066726f6d20746865207a65726f206164647260408201526265737360e81b606082015260800190565b60208082526038908201527f455243313135355072657365744d696e7465725061757365723a206d7573742060408201527f68617665206d696e74657220726f6c6520746f206d696e740000000000000000606082015260800190565b6020808252602a908201527f455243313135353a20696e73756666696369656e742062616c616e636520666f60408201527f72207472616e7366657200000000000000000000000000000000000000000000606082015260800190565b60208082526026908201527f4e4654436f6c6c656374696f6e3a205468652070726f746f636f6c206973207060408201526530bab9b2b21760d11b606082015260800190565b6020808252603b908201527f4e4654436f6c6c656374696f6e3a204d757374206f776e2074686520616d6f7560408201527f6e74206f6620746f6b656e73206265696e6720777261707065642e0000000000606082015260800190565b6020808252603b908201527f455243313135355072657365744d696e7465725061757365723a206d7573742060408201527f686176652070617573657220726f6c6520746f20756e70617573650000000000606082015260800190565b60208082526039908201527f455243313135355072657365744d696e7465725061757365723a206d7573742060408201527f686176652070617573657220726f6c6520746f20706175736500000000000000606082015260800190565b6020808252603c908201527f4e4654436f6c6c656374696f6e3a206f6e6c7920612070726f746f636f6c206160408201527f646d696e2063616e2063616c6c20746869732066756e6374696f6e2e00000000606082015260800190565b60208082526029908201527f455243313135353a2073657474696e6720617070726f76616c2073746174757360408201527f20666f722073656c660000000000000000000000000000000000000000000000606082015260800190565b60208082526029908201527f455243313135353a206163636f756e747320616e6420696473206c656e67746860408201527f206d69736d617463680000000000000000000000000000000000000000000000606082015260800190565b60208082526033908201527f4e4654436f6c6c656374696f6e3a2043616e6e6f742072656465656d20616e2060408201527f4e465420796f7520646f206e6f74206f776e2e00000000000000000000000000606082015260800190565b60208082526035908201527f4e4654436f6c6c656374696f6e3a204f6e6c7920746865206f776e6572206f6660408201527f20746865204e46542063616e20777261702069742e0000000000000000000000606082015260800190565b6020808252602c908201527f4e4654436f6c6c656374696f6e3a204d75737420637265617465206174206c6560408201527f617374206f6e65204e46542e0000000000000000000000000000000000000000606082015260800190565b60208082526028908201527f455243313135353a2069647320616e6420616d6f756e7473206c656e6774682060408201527f6d69736d61746368000000000000000000000000000000000000000000000000606082015260800190565b60208082526021908201527f455243313135353a206d696e7420746f20746865207a65726f206164647265736040820152607360f81b606082015260800190565b6020808252602f908201527f416363657373436f6e74726f6c3a2063616e206f6e6c792072656e6f756e636560408201527f20726f6c657320666f722073656c660000000000000000000000000000000000606082015260800190565b918252602082015260400190565b600085825284602083015260606040830152615671606083018486614672565b9695505050505050565b600086825285602083015284604083015260806060830152614805608083018486614672565b6000808335601e198436030181126156b7578283fd5b83018035915067ffffffffffffffff8211156156d1578283fd5b602001915036819003821315613d6b57600080fd5b60405181810167ffffffffffffffff8111828210171561570857615708615851565b604052919050565b600067ffffffffffffffff82111561572a5761572a615851565b5060209081020190565b600082198211156157475761574761583b565b500190565b60008261576757634e487b7160e01b81526012600452602481fd5b500490565b60008160001904831182151516156157865761578661583b565b500290565b60008282101561579d5761579d61583b565b500390565b60005b838110156157bd5781810151838201526020016157a5565b838111156115255750506000910152565b6000816157dd576157dd61583b565b506000190190565b6002810460018216806157f957607f821691505b6020821081141561581a57634e487b7160e01b600052602260045260246000fd5b50919050565b60006000198214156158345761583461583b565b5060010190565b634e487b7160e01b600052601160045260246000fd5b634e487b7160e01b600052604160045260246000fd5b60e01c90565b600060443d101561587d57611423565b600481823e6308c379a06158918251615867565b1461589b57611423565b6040513d600319016004823e80513d67ffffffffffffffff81602484011181841117156158cb5750505050611423565b828401925082519150808211156158e55750505050611423565b503d830160208284010111156158fd57505050611423565b601f01601f1916810160200160405291505090565b6001600160a01b038116811461592757600080fd5b50565b801515811461592757600080fd5b6001600160e01b03198116811461592757600080fdfea164736f6c6343000800000a",
  "linkReferences": {},
  "deployedLinkReferences": {}
}