{
  "_format": "hh-sol-artifact-1",
  "contractName": "NFTCollection",
  "sourceName": "contracts/NFTCollection.sol",
  "abi": [
    {
      "inputs": [
        {
          "internalType": "address payable",
          "name": "_controlCenter",
          "type": "address"
        },
        {
          "internalType": "address",
          "name": "_trustedForwarder",
          "type": "address"
        },
        {
          "internalType": "string",
          "name": "_uri",
          "type": "string"
        }
      ],
      "stateMutability": "nonpayable",
      "type": "constructor"
    },
    {
      "anonymous": false,
      "inputs": [
        {
          "indexed": true,
          "internalType": "address",
          "name": "account",
          "type": "address"
        },
        {
          "indexed": true,
          "internalType": "address",
          "name": "operator",
          "type": "address"
        },
        {
          "indexed": false,
          "internalType": "bool",
          "name": "approved",
          "type": "bool"
        }
      ],
      "name": "ApprovalForAll",
      "type": "event"
    },
    {
      "anonymous": false,
      "inputs": [
        {
          "indexed": true,
          "internalType": "address",
          "name": "redeemer",
          "type": "address"
        },
        {
          "indexed": true,
          "internalType": "address",
          "name": "tokenContract",
          "type": "address"
        },
        {
          "indexed": false,
          "internalType": "uint256",
          "name": "tokenAmountReceived",
          "type": "uint256"
        },
        {
          "indexed": false,
          "internalType": "uint256",
          "name": "nftAmountRedeemed",
          "type": "uint256"
        }
      ],
      "name": "ERC20Redeemed",
      "type": "event"
    },
    {
      "anonymous": false,
      "inputs": [
        {
          "indexed": true,
          "internalType": "address",
          "name": "creator",
          "type": "address"
        },
        {
          "indexed": true,
          "internalType": "address",
          "name": "tokenContract",
          "type": "address"
        },
        {
          "indexed": false,
          "internalType": "uint256",
          "name": "tokenAmount",
          "type": "uint256"
        },
        {
          "indexed": false,
          "internalType": "uint256",
          "name": "nftsMinted",
          "type": "uint256"
        },
        {
          "indexed": false,
          "internalType": "string",
          "name": "nftURI",
          "type": "string"
        }
      ],
      "name": "ERC20WrappedNfts",
      "type": "event"
    },
    {
      "anonymous": false,
      "inputs": [
        {
          "indexed": true,
          "internalType": "address",
          "name": "redeemer",
          "type": "address"
        },
        {
          "indexed": true,
          "internalType": "address",
          "name": "nftContract",
          "type": "address"
        },
        {
          "indexed": false,
          "internalType": "uint256",
          "name": "nftTokenId",
          "type": "uint256"
        },
        {
          "indexed": false,
          "internalType": "uint256",
          "name": "nativeNftTokenId",
          "type": "uint256"
        }
      ],
      "name": "ERC721Redeemed",
      "type": "event"
    },
    {
      "anonymous": false,
      "inputs": [
        {
          "indexed": true,
          "internalType": "address",
          "name": "creator",
          "type": "address"
        },
        {
          "indexed": true,
          "internalType": "address",
          "name": "nftContract",
          "type": "address"
        },
        {
          "indexed": false,
          "internalType": "uint256",
          "name": "nftTokenId",
          "type": "uint256"
        },
        {
          "indexed": false,
          "internalType": "uint256",
          "name": "nativeNftTokenId",
          "type": "uint256"
        },
        {
          "indexed": false,
          "internalType": "string",
          "name": "nativeNftURI",
          "type": "string"
        }
      ],
      "name": "ERC721WrappedNft",
      "type": "event"
    },
    {
      "anonymous": false,
      "inputs": [
        {
          "indexed": true,
          "internalType": "address",
          "name": "creator",
          "type": "address"
        },
        {
          "indexed": false,
          "internalType": "uint256[]",
          "name": "nftIds",
          "type": "uint256[]"
        },
        {
          "indexed": false,
          "internalType": "string[]",
          "name": "nftURIs",
          "type": "string[]"
        },
        {
          "indexed": false,
          "internalType": "uint256[]",
          "name": "nftSupplies",
          "type": "uint256[]"
        }
      ],
      "name": "NativeNfts",
      "type": "event"
    },
    {
      "anonymous": false,
      "inputs": [
        {
          "indexed": false,
          "internalType": "uint256",
          "name": "tokenId",
          "type": "uint256"
        },
        {
          "indexed": false,
          "internalType": "uint256",
          "name": "newMaxLevel",
          "type": "uint256"
        },
        {
          "indexed": false,
          "internalType": "string",
          "name": "levelURI",
          "type": "string"
        }
      ],
      "name": "NftLevelUpdated",
      "type": "event"
    },
    {
      "anonymous": false,
      "inputs": [
        {
          "indexed": false,
          "internalType": "uint256",
          "name": "royaltyBps",
          "type": "uint256"
        }
      ],
      "name": "NftRoyaltyUpdated",
      "type": "event"
    },
    {
      "anonymous": false,
      "inputs": [
        {
          "indexed": false,
          "internalType": "address",
          "name": "account",
          "type": "address"
        }
      ],
      "name": "Paused",
      "type": "event"
    },
    {
      "anonymous": false,
      "inputs": [
        {
          "indexed": true,
          "internalType": "bytes32",
          "name": "role",
          "type": "bytes32"
        },
        {
          "indexed": true,
          "internalType": "bytes32",
          "name": "previousAdminRole",
          "type": "bytes32"
        },
        {
          "indexed": true,
          "internalType": "bytes32",
          "name": "newAdminRole",
          "type": "bytes32"
        }
      ],
      "name": "RoleAdminChanged",
      "type": "event"
    },
    {
      "anonymous": false,
      "inputs": [
        {
          "indexed": true,
          "internalType": "bytes32",
          "name": "role",
          "type": "bytes32"
        },
        {
          "indexed": true,
          "internalType": "address",
          "name": "account",
          "type": "address"
        },
        {
          "indexed": true,
          "internalType": "address",
          "name": "sender",
          "type": "address"
        }
      ],
      "name": "RoleGranted",
      "type": "event"
    },
    {
      "anonymous": false,
      "inputs": [
        {
          "indexed": true,
          "internalType": "bytes32",
          "name": "role",
          "type": "bytes32"
        },
        {
          "indexed": true,
          "internalType": "address",
          "name": "account",
          "type": "address"
        },
        {
          "indexed": true,
          "internalType": "address",
          "name": "sender",
          "type": "address"
        }
      ],
      "name": "RoleRevoked",
      "type": "event"
    },
    {
      "anonymous": false,
      "inputs": [
        {
          "indexed": true,
          "internalType": "address",
          "name": "operator",
          "type": "address"
        },
        {
          "indexed": true,
          "internalType": "address",
          "name": "from",
          "type": "address"
        },
        {
          "indexed": true,
          "internalType": "address",
          "name": "to",
          "type": "address"
        },
        {
          "indexed": false,
          "internalType": "uint256[]",
          "name": "ids",
          "type": "uint256[]"
        },
        {
          "indexed": false,
          "internalType": "uint256[]",
          "name": "values",
          "type": "uint256[]"
        }
      ],
      "name": "TransferBatch",
      "type": "event"
    },
    {
      "anonymous": false,
      "inputs": [
        {
          "indexed": true,
          "internalType": "address",
          "name": "operator",
          "type": "address"
        },
        {
          "indexed": true,
          "internalType": "address",
          "name": "from",
          "type": "address"
        },
        {
          "indexed": true,
          "internalType": "address",
          "name": "to",
          "type": "address"
        },
        {
          "indexed": false,
          "internalType": "uint256",
          "name": "id",
          "type": "uint256"
        },
        {
          "indexed": false,
          "internalType": "uint256",
          "name": "value",
          "type": "uint256"
        }
      ],
      "name": "TransferSingle",
      "type": "event"
    },
    {
      "anonymous": false,
      "inputs": [
        {
          "indexed": false,
          "internalType": "string",
          "name": "value",
          "type": "string"
        },
        {
          "indexed": true,
          "internalType": "uint256",
          "name": "id",
          "type": "uint256"
        }
      ],
      "name": "URI",
      "type": "event"
    },
    {
      "anonymous": false,
      "inputs": [
        {
          "indexed": false,
          "internalType": "address",
          "name": "account",
          "type": "address"
        }
      ],
      "name": "Unpaused",
      "type": "event"
    },
    {
      "inputs": [],
      "name": "DEFAULT_ADMIN_ROLE",
      "outputs": [
        {
          "internalType": "bytes32",
          "name": "",
          "type": "bytes32"
        }
      ],
      "stateMutability": "view",
      "type": "function"
    },
    {
      "inputs": [],
      "name": "MINTER_ROLE",
      "outputs": [
        {
          "internalType": "bytes32",
          "name": "",
          "type": "bytes32"
        }
      ],
      "stateMutability": "view",
      "type": "function"
    },
    {
      "inputs": [],
      "name": "PAUSER_ROLE",
      "outputs": [
        {
          "internalType": "bytes32",
          "name": "",
          "type": "bytes32"
        }
      ],
      "stateMutability": "view",
      "type": "function"
    },
    {
      "inputs": [],
      "name": "_contractURI",
      "outputs": [
        {
          "internalType": "string",
          "name": "",
          "type": "string"
        }
      ],
      "stateMutability": "view",
      "type": "function"
    },
    {
      "inputs": [
        {
          "internalType": "uint256",
          "name": "",
          "type": "uint256"
        },
        {
          "internalType": "address",
          "name": "",
          "type": "address"
        },
        {
          "internalType": "uint256",
          "name": "",
          "type": "uint256"
        }
      ],
      "name": "balanceByLevel",
      "outputs": [
        {
          "internalType": "uint256",
          "name": "",
          "type": "uint256"
        }
      ],
      "stateMutability": "view",
      "type": "function"
    },
    {
      "inputs": [
        {
          "internalType": "address",
          "name": "account",
          "type": "address"
        },
        {
          "internalType": "uint256",
          "name": "id",
          "type": "uint256"
        }
      ],
      "name": "balanceOf",
      "outputs": [
        {
          "internalType": "uint256",
          "name": "",
          "type": "uint256"
        }
      ],
      "stateMutability": "view",
      "type": "function"
    },
    {
      "inputs": [
        {
          "internalType": "address[]",
          "name": "accounts",
          "type": "address[]"
        },
        {
          "internalType": "uint256[]",
          "name": "ids",
          "type": "uint256[]"
        }
      ],
      "name": "balanceOfBatch",
      "outputs": [
        {
          "internalType": "uint256[]",
          "name": "",
          "type": "uint256[]"
        }
      ],
      "stateMutability": "view",
      "type": "function"
    },
    {
      "inputs": [
        {
          "internalType": "address",
          "name": "account",
          "type": "address"
        },
        {
          "internalType": "uint256",
          "name": "id",
          "type": "uint256"
        },
        {
          "internalType": "uint256",
          "name": "value",
          "type": "uint256"
        }
      ],
      "name": "burn",
      "outputs": [],
      "stateMutability": "nonpayable",
      "type": "function"
    },
    {
      "inputs": [
        {
          "internalType": "address",
          "name": "account",
          "type": "address"
        },
        {
          "internalType": "uint256[]",
          "name": "ids",
          "type": "uint256[]"
        },
        {
          "internalType": "uint256[]",
          "name": "values",
          "type": "uint256[]"
        }
      ],
      "name": "burnBatch",
      "outputs": [],
      "stateMutability": "nonpayable",
      "type": "function"
    },
    {
      "inputs": [],
      "name": "contractURI",
      "outputs": [
        {
          "internalType": "string",
          "name": "",
          "type": "string"
        }
      ],
      "stateMutability": "view",
      "type": "function"
    },
    {
      "inputs": [
        {
          "internalType": "string[]",
          "name": "_nftURIs",
          "type": "string[]"
        },
        {
          "internalType": "uint256[]",
          "name": "_nftSupplies",
          "type": "uint256[]"
        }
      ],
      "name": "createNativeNfts",
      "outputs": [
        {
          "internalType": "uint256[]",
          "name": "nftIds",
          "type": "uint256[]"
        }
      ],
      "stateMutability": "nonpayable",
      "type": "function"
    },
    {
      "inputs": [
        {
          "internalType": "address",
          "name": "_pack",
          "type": "address"
        },
        {
          "internalType": "string[]",
          "name": "_nftURIs",
          "type": "string[]"
        },
        {
          "internalType": "uint256[]",
          "name": "_nftSupplies",
          "type": "uint256[]"
        },
        {
          "internalType": "string",
          "name": "_packURI",
          "type": "string"
        },
        {
          "internalType": "uint256",
          "name": "_secondsUntilOpenStart",
          "type": "uint256"
        },
        {
          "internalType": "uint256",
          "name": "_secondsUntilOpenEnd",
          "type": "uint256"
        },
        {
          "internalType": "uint256",
          "name": "_nftsPerOpen",
          "type": "uint256"
        }
      ],
      "name": "createPackAtomic",
      "outputs": [],
      "stateMutability": "nonpayable",
      "type": "function"
    },
    {
      "inputs": [
        {
          "internalType": "uint256",
          "name": "_nftId",
          "type": "uint256"
        }
      ],
      "name": "creator",
      "outputs": [
        {
          "internalType": "address",
          "name": "",
          "type": "address"
        }
      ],
      "stateMutability": "view",
      "type": "function"
    },
    {
      "inputs": [
        {
          "internalType": "uint256",
          "name": "",
          "type": "uint256"
        }
      ],
      "name": "erc20WrappedNfts",
      "outputs": [
        {
          "internalType": "address",
          "name": "tokenContract",
          "type": "address"
        },
        {
          "internalType": "uint256",
          "name": "shares",
          "type": "uint256"
        },
        {
          "internalType": "uint256",
          "name": "underlyingTokenAmount",
          "type": "uint256"
        }
      ],
      "stateMutability": "view",
      "type": "function"
    },
    {
      "inputs": [
        {
          "internalType": "uint256",
          "name": "",
          "type": "uint256"
        }
      ],
      "name": "erc721WrappedNfts",
      "outputs": [
        {
          "internalType": "address",
          "name": "nftContract",
          "type": "address"
        },
        {
          "internalType": "uint256",
          "name": "nftTokenId",
          "type": "uint256"
        }
      ],
      "stateMutability": "view",
      "type": "function"
    },
    {
      "inputs": [
        {
          "internalType": "bytes32",
          "name": "role",
          "type": "bytes32"
        }
      ],
      "name": "getRoleAdmin",
      "outputs": [
        {
          "internalType": "bytes32",
          "name": "",
          "type": "bytes32"
        }
      ],
      "stateMutability": "view",
      "type": "function"
    },
    {
      "inputs": [
        {
          "internalType": "bytes32",
          "name": "role",
          "type": "bytes32"
        },
        {
          "internalType": "uint256",
          "name": "index",
          "type": "uint256"
        }
      ],
      "name": "getRoleMember",
      "outputs": [
        {
          "internalType": "address",
          "name": "",
          "type": "address"
        }
      ],
      "stateMutability": "view",
      "type": "function"
    },
    {
      "inputs": [
        {
          "internalType": "bytes32",
          "name": "role",
          "type": "bytes32"
        }
      ],
      "name": "getRoleMemberCount",
      "outputs": [
        {
          "internalType": "uint256",
          "name": "",
          "type": "uint256"
        }
      ],
      "stateMutability": "view",
      "type": "function"
    },
    {
      "inputs": [
        {
          "internalType": "bytes32",
          "name": "role",
          "type": "bytes32"
        },
        {
          "internalType": "address",
          "name": "account",
          "type": "address"
        }
      ],
      "name": "grantRole",
      "outputs": [],
      "stateMutability": "nonpayable",
      "type": "function"
    },
    {
      "inputs": [
        {
          "internalType": "bytes32",
          "name": "role",
          "type": "bytes32"
        },
        {
          "internalType": "address",
          "name": "account",
          "type": "address"
        }
      ],
      "name": "hasRole",
      "outputs": [
        {
          "internalType": "bool",
          "name": "",
          "type": "bool"
        }
      ],
      "stateMutability": "view",
      "type": "function"
    },
    {
      "inputs": [
        {
          "internalType": "address",
          "name": "account",
          "type": "address"
        },
        {
          "internalType": "address",
          "name": "operator",
          "type": "address"
        }
      ],
      "name": "isApprovedForAll",
      "outputs": [
        {
          "internalType": "bool",
          "name": "",
          "type": "bool"
        }
      ],
      "stateMutability": "view",
      "type": "function"
    },
    {
      "inputs": [
        {
          "internalType": "address",
          "name": "forwarder",
          "type": "address"
        }
      ],
      "name": "isTrustedForwarder",
      "outputs": [
        {
          "internalType": "bool",
          "name": "",
          "type": "bool"
        }
      ],
      "stateMutability": "view",
      "type": "function"
    },
    {
      "inputs": [
        {
          "internalType": "uint256",
          "name": "_tokenId",
          "type": "uint256"
        },
        {
          "internalType": "uint256",
          "name": "_amount",
          "type": "uint256"
        },
        {
          "internalType": "uint256",
          "name": "_fromLevel",
          "type": "uint256"
        },
        {
          "internalType": "uint256",
          "name": "_toLevel",
          "type": "uint256"
        }
      ],
      "name": "levelUpNFTs",
      "outputs": [],
      "stateMutability": "nonpayable",
      "type": "function"
    },
    {
      "inputs": [
        {
          "internalType": "uint256",
          "name": "",
          "type": "uint256"
        }
      ],
      "name": "maxLevelOfNft",
      "outputs": [
        {
          "internalType": "uint256",
          "name": "",
          "type": "uint256"
        }
      ],
      "stateMutability": "view",
      "type": "function"
    },
    {
      "inputs": [
        {
          "internalType": "address",
          "name": "to",
          "type": "address"
        },
        {
          "internalType": "uint256",
          "name": "id",
          "type": "uint256"
        },
        {
          "internalType": "uint256",
          "name": "amount",
          "type": "uint256"
        },
        {
          "internalType": "bytes",
          "name": "data",
          "type": "bytes"
        }
      ],
      "name": "mint",
      "outputs": [],
      "stateMutability": "nonpayable",
      "type": "function"
    },
    {
      "inputs": [
        {
          "internalType": "address",
          "name": "to",
          "type": "address"
        },
        {
          "internalType": "uint256[]",
          "name": "ids",
          "type": "uint256[]"
        },
        {
          "internalType": "uint256[]",
          "name": "amounts",
          "type": "uint256[]"
        },
        {
          "internalType": "bytes",
          "name": "data",
          "type": "bytes"
        }
      ],
      "name": "mintBatch",
      "outputs": [],
      "stateMutability": "nonpayable",
      "type": "function"
    },
    {
      "inputs": [],
      "name": "nextTokenId",
      "outputs": [
        {
          "internalType": "uint256",
          "name": "",
          "type": "uint256"
        }
      ],
      "stateMutability": "view",
      "type": "function"
    },
    {
      "inputs": [
        {
          "internalType": "uint256",
          "name": "",
          "type": "uint256"
        }
      ],
      "name": "nftInfo",
      "outputs": [
        {
          "internalType": "address",
          "name": "creator",
          "type": "address"
        },
        {
          "internalType": "string",
          "name": "uri",
          "type": "string"
        },
        {
          "internalType": "uint256",
          "name": "supply",
          "type": "uint256"
        },
        {
          "internalType": "enum NFTCollection.UnderlyingType",
          "name": "underlyingType",
          "type": "uint8"
        }
      ],
      "stateMutability": "view",
      "type": "function"
    },
    {
      "inputs": [],
      "name": "nftRoyaltyBps",
      "outputs": [
        {
          "internalType": "uint256",
          "name": "",
          "type": "uint256"
        }
      ],
      "stateMutability": "view",
      "type": "function"
    },
    {
      "inputs": [],
      "name": "pause",
      "outputs": [],
      "stateMutability": "nonpayable",
      "type": "function"
    },
    {
      "inputs": [],
      "name": "paused",
      "outputs": [
        {
          "internalType": "bool",
          "name": "",
          "type": "bool"
        }
      ],
      "stateMutability": "view",
      "type": "function"
    },
    {
      "inputs": [
        {
          "internalType": "uint256",
          "name": "_nftId",
          "type": "uint256"
        },
        {
          "internalType": "uint256",
          "name": "_amount",
          "type": "uint256"
        }
      ],
      "name": "redeemERC20",
      "outputs": [],
      "stateMutability": "nonpayable",
      "type": "function"
    },
    {
      "inputs": [
        {
          "internalType": "uint256",
          "name": "_nftId",
          "type": "uint256"
        }
      ],
      "name": "redeemERC721",
      "outputs": [],
      "stateMutability": "nonpayable",
      "type": "function"
    },
    {
      "inputs": [
        {
          "internalType": "bytes32",
          "name": "role",
          "type": "bytes32"
        },
        {
          "internalType": "address",
          "name": "account",
          "type": "address"
        }
      ],
      "name": "renounceRole",
      "outputs": [],
      "stateMutability": "nonpayable",
      "type": "function"
    },
    {
      "inputs": [
        {
          "internalType": "bytes32",
          "name": "role",
          "type": "bytes32"
        },
        {
          "internalType": "address",
          "name": "account",
          "type": "address"
        }
      ],
      "name": "revokeRole",
      "outputs": [],
      "stateMutability": "nonpayable",
      "type": "function"
    },
    {
      "inputs": [
        {
          "internalType": "uint256",
          "name": "tokenId",
          "type": "uint256"
        },
        {
          "internalType": "uint256",
          "name": "salePrice",
          "type": "uint256"
        }
      ],
      "name": "royaltyInfo",
      "outputs": [
        {
          "internalType": "address",
          "name": "receiver",
          "type": "address"
        },
        {
          "internalType": "uint256",
          "name": "royaltyAmount",
          "type": "uint256"
        }
      ],
      "stateMutability": "view",
      "type": "function"
    },
    {
      "inputs": [
        {
          "internalType": "address",
          "name": "from",
          "type": "address"
        },
        {
          "internalType": "address",
          "name": "to",
          "type": "address"
        },
        {
          "internalType": "uint256[]",
          "name": "ids",
          "type": "uint256[]"
        },
        {
          "internalType": "uint256[]",
          "name": "amounts",
          "type": "uint256[]"
        },
        {
          "internalType": "bytes",
          "name": "data",
          "type": "bytes"
        }
      ],
      "name": "safeBatchTransferFrom",
      "outputs": [],
      "stateMutability": "nonpayable",
      "type": "function"
    },
    {
      "inputs": [
        {
          "internalType": "address",
          "name": "from",
          "type": "address"
        },
        {
          "internalType": "address",
          "name": "to",
          "type": "address"
        },
        {
          "internalType": "uint256",
          "name": "id",
          "type": "uint256"
        },
        {
          "internalType": "uint256",
          "name": "amount",
          "type": "uint256"
        },
        {
          "internalType": "bytes",
          "name": "data",
          "type": "bytes"
        }
      ],
      "name": "safeTransferFrom",
      "outputs": [],
      "stateMutability": "nonpayable",
      "type": "function"
    },
    {
      "inputs": [
        {
          "internalType": "address",
          "name": "operator",
          "type": "address"
        },
        {
          "internalType": "bool",
          "name": "approved",
          "type": "bool"
        }
      ],
      "name": "setApprovalForAll",
      "outputs": [],
      "stateMutability": "nonpayable",
      "type": "function"
    },
    {
      "inputs": [
        {
          "internalType": "string",
          "name": "_URI",
          "type": "string"
        }
      ],
      "name": "setContractURI",
      "outputs": [],
      "stateMutability": "nonpayable",
      "type": "function"
    },
    {
      "inputs": [
        {
          "internalType": "uint256",
          "name": "_royaltyBps",
          "type": "uint256"
        }
      ],
      "name": "setNftRoyaltyBps",
      "outputs": [],
      "stateMutability": "nonpayable",
      "type": "function"
    },
    {
      "inputs": [
        {
          "internalType": "bytes4",
          "name": "interfaceId",
          "type": "bytes4"
        }
      ],
      "name": "supportsInterface",
      "outputs": [
        {
          "internalType": "bool",
          "name": "",
          "type": "bool"
        }
      ],
      "stateMutability": "view",
      "type": "function"
    },
    {
      "inputs": [
        {
          "internalType": "uint256",
          "name": "_nftId",
          "type": "uint256"
        }
      ],
      "name": "tokenURI",
      "outputs": [
        {
          "internalType": "string",
          "name": "",
          "type": "string"
        }
      ],
      "stateMutability": "view",
      "type": "function"
    },
    {
      "inputs": [
        {
          "internalType": "uint256",
          "name": "",
          "type": "uint256"
        },
        {
          "internalType": "uint256",
          "name": "",
          "type": "uint256"
        }
      ],
      "name": "totalSupplyOfLevel",
      "outputs": [
        {
          "internalType": "uint256",
          "name": "",
          "type": "uint256"
        }
      ],
      "stateMutability": "view",
      "type": "function"
    },
    {
      "inputs": [],
      "name": "unpause",
      "outputs": [],
      "stateMutability": "nonpayable",
      "type": "function"
    },
    {
      "inputs": [
        {
          "internalType": "uint256",
          "name": "_tokenId",
          "type": "uint256"
        },
        {
          "internalType": "string",
          "name": "_levelURI",
          "type": "string"
        }
      ],
      "name": "updateMaxLevelOfNft",
      "outputs": [],
      "stateMutability": "nonpayable",
      "type": "function"
    },
    {
      "inputs": [
        {
          "internalType": "uint256",
          "name": "_nftId",
          "type": "uint256"
        }
      ],
      "name": "uri",
      "outputs": [
        {
          "internalType": "string",
          "name": "",
          "type": "string"
        }
      ],
      "stateMutability": "view",
      "type": "function"
    },
    {
      "inputs": [
        {
          "internalType": "uint256",
          "name": "",
          "type": "uint256"
        },
        {
          "internalType": "uint256",
          "name": "",
          "type": "uint256"
        }
      ],
      "name": "uriByLevel",
      "outputs": [
        {
          "internalType": "string",
          "name": "",
          "type": "string"
        }
      ],
      "stateMutability": "view",
      "type": "function"
    },
    {
      "inputs": [
        {
          "internalType": "address",
          "name": "_tokenContract",
          "type": "address"
        },
        {
          "internalType": "uint256",
          "name": "_tokenAmount",
          "type": "uint256"
        },
        {
          "internalType": "uint256",
          "name": "_numOfNftsToMint",
          "type": "uint256"
        },
        {
          "internalType": "string",
          "name": "_nftURI",
          "type": "string"
        }
      ],
      "name": "wrapERC20",
      "outputs": [],
      "stateMutability": "nonpayable",
      "type": "function"
    },
    {
      "inputs": [
        {
          "internalType": "address",
          "name": "_nftContract",
          "type": "address"
        },
        {
          "internalType": "uint256",
          "name": "_tokenId",
          "type": "uint256"
        },
        {
          "internalType": "string",
          "name": "_nftURI",
          "type": "string"
        }
      ],
      "name": "wrapERC721",
      "outputs": [],
      "stateMutability": "nonpayable",
      "type": "function"
    }
  ],
  "bytecode": "0x60806040523480156200001157600080fd5b5060405162006352380380620063528339810160408190526200003491620003db565b818180620000428162000119565b506005805460ff191690556200006360006200005d62000132565b6200014f565b620000927f9f2df0fed2c77648de5860a4cc508cd0818c85b8b8a1ab4ceeef8d981c8956a66200005d62000132565b620000c17f65d7a28e3265b37a6474929f336521b332c1681b933f6cb9f3376673440d862a6200005d62000132565b5060058054610100600160a81b0319166101006001600160a01b0393841602179055600680546001600160a01b03191691851691909117905580516200010f90600990602084019062000335565b5050505062000544565b80516200012e90600490602084019062000335565b5050565b6000620001496200019260201b62002a581760201c565b90505b90565b620001668282620001d260201b62002a861760201c565b60008281526001602090815260409091206200018d91839062002a94620001de821b17901c565b505050565b60006200019f33620001fe565b15620001b5575060131936013560601c6200014c565b620001ca6200021760201b62002aa91760201c565b90506200014c565b6200012e82826200021b565b6000620001f5836001600160a01b038416620002a5565b90505b92915050565b60055461010090046001600160a01b0390811691161490565b3390565b620002278282620002f4565b6200012e576000828152602081815260408083206001600160a01b03851684529091529020805460ff191660011790556200026162000132565b6001600160a01b0316816001600160a01b0316837f2f8788117e7eff1d82e926ec794901d17c78024a50270940304540a733656f0d60405160405180910390a45050565b6000620002b383836200031d565b620002eb57508154600181810184556000848152602080822090930184905584548482528286019093526040902091909155620001f8565b506000620001f8565b6000918252602082815260408084206001600160a01b0393909316845291905290205460ff1690565b60009081526001919091016020526040902054151590565b8280546200034390620004d8565b90600052602060002090601f016020900481019282620003675760008555620003b2565b82601f106200038257805160ff1916838001178555620003b2565b82800160010185558215620003b2579182015b82811115620003b257825182559160200191906001019062000395565b50620003c0929150620003c4565b5090565b5b80821115620003c05760008155600101620003c5565b600080600060608486031215620003f0578283fd5b8351620003fd816200052b565b8093505060208085015162000412816200052b565b60408601519093506001600160401b03808211156200042f578384fd5b818701915087601f83011262000443578384fd5b81518181111562000458576200045862000515565b604051601f8201601f19168101850183811182821017156200047e576200047e62000515565b60405281815283820185018a101562000495578586fd5b8592505b81831015620004b8578383018501518184018601529184019162000499565b81831115620004c957858583830101525b80955050505050509250925092565b600281046001821680620004ed57607f821691505b602082108114156200050f57634e487b7160e01b600052602260045260246000fd5b50919050565b634e487b7160e01b600052604160045260246000fd5b6001600160a01b03811681146200054157600080fd5b50565b615dfe80620005546000396000f3fe608060405234801561001057600080fd5b50600436106103355760003560e01c8063731133e9116101b2578063ad66550d116100f9578063db884b0c116100a2578063e8a3d4851161007c578063e8a3d485146106a7578063e985e9c5146106af578063f242432a146106c2578063f5298aca146106d557610335565b8063db884b0c14610679578063ddfa3e221461068c578063e63ab1e91461069f57610335565b8063ca15c873116100d3578063ca15c8731461064b578063d53913931461065e578063d547741f1461066657610335565b8063ad66550d14610630578063c0e7274014610643578063c87b56dd1461039857610335565b806391d148541161015b578063a217fddf11610135578063a217fddf14610602578063a22cb4651461060a578063ace378351461061d57610335565b806391d14854146105c9578063938e3d7b146105dc57806393b778d4146105ef57610335565b80637a61080b1161018c5780637a61080b1461059b5780638456cb59146105ae5780639010d07c146105b657610335565b8063731133e91461056d57806375794a3c14610580578063788f1f5e1461058857610335565b80632f9c131a116102815780634e1273f41161022a5780635c975abb116102045780635c975abb1461052c578063632fec19146105345780636b1fb1b4146105475780636b20c4541461055a57610335565b80634e1273f4146104e6578063510b5158146104f9578063572b6c051461051957610335565b80633f4ba83a1161025b5780633f4ba83a146104b657806341466a95146104be57806345d62dbc146104de57610335565b80632f9c131a1461047d57806331552e9e1461049057806336568abe146104a357610335565b80631f7fdffa116102e35780632a55205a116102bd5780632a55205a146104365780632eb2c2d6146104575780632f2ff15d1461046a57610335565b80631f7fdffa146103ed5780631f8bc79014610400578063248a9ca31461042357610335565b80630e89341c116103145780630e89341c1461039857806314a56a03146103b85780631ceb2dc2146103cb57610335565b8062fdd58e1461033a57806301ffc9a714610363578063090a328214610383575b600080fd5b61034d6103483660046144d9565b6106e8565b60405161035a9190614e06565b60405180910390f35b61037661037136600461488d565b610744565b60405161035a9190614dfb565b610396610391366004614504565b61074f565b005b6103ab6103a6366004614818565b610c31565b60405161035a9190614e57565b61034d6103c6366004614818565b610cd6565b6103de6103d9366004614818565b610ce8565b60405161035a93929190614ca8565b6103966103fb366004614415565b610d13565b61041361040e366004614818565b610d6d565b60405161035a9493929190614c38565b61034d610431366004614818565b610e2c565b61044961044436600461486c565b610e41565b60405161035a929190614c8f565b6103966104653660046141ce565b610f02565b610396610478366004614848565b610f60565b61039661048b366004614818565b610f87565b61039661049e3660046149b6565b611193565b6103966104b1366004614848565b6112f6565b610396611318565b6104d16104cc36600461470f565b61136a565b60405161035a9190614cfb565b61034d61187c565b6104d16104f436600461464f565b611882565b61050c610507366004614818565b6119a2565b60405161035a9190614b45565b61037661052736600461415e565b6119bd565b6103766119d6565b61034d610542366004614935565b6119e0565b61034d61055536600461486c565b611a03565b6103966105683660046143a2565b611a20565b61039661057b366004614592565b611a75565b61034d611ac9565b6103966105963660046142df565b611acf565b6103966105a936600461486c565b611c04565b610396611d8f565b61050c6105c436600461486c565b611ddf565b6103766105d7366004614848565b611dfe565b6103966105ea3660046148c5565b611e27565b6103966105fd366004614818565b611f49565b61034d612096565b6103966106183660046144ac565b61209b565b61039661062b36600461496c565b612169565b6103ab61063e36600461486c565b61232b565b6103ab6123d0565b61034d610659366004614818565b6123dd565b61034d6123f4565b610396610674366004614848565b612418565b6103966106873660046145e7565b612422565b61044961069a366004614818565b6128a3565b61034d6128c8565b6103ab6128ec565b6103766106bd366004614196565b61297e565b6103966106d0366004614278565b6129ac565b6103966106e336600461455e565b612a03565b60006001600160a01b0383166107195760405162461bcd60e51b815260040161071090614f90565b60405180910390fd5b5060008181526002602090815260408083206001600160a01b03861684529091529020545b92915050565b600061073e82612aad565b600660009054906101000a90046001600160a01b03166001600160a01b0316639d2f83f06040518163ffffffff1660e01b815260040160206040518083038186803b15801561079d57600080fd5b505afa1580156107b1573d6000803e3d6000fd5b505050506040513d601f19601f820116820180604052508101906107d591906147fc565b156107f25760405162461bcd60e51b815260040161071090615385565b6107fa612aed565b6001600160a01b0316846001600160a01b0316636352211e856040518263ffffffff1660e01b815260040161082f9190614e06565b60206040518083038186803b15801561084757600080fd5b505afa15801561085b573d6000803e3d6000fd5b505050506040513d601f19601f8201168201806040525081019061087f919061417a565b6001600160a01b0316146108a55760405162461bcd60e51b815260040161071090615a52565b60405163020604bf60e21b815230906001600160a01b0386169063081812fc906108d3908790600401614e06565b60206040518083038186803b1580156108eb57600080fd5b505afa1580156108ff573d6000803e3d6000fd5b505050506040513d601f19601f82011682018060405250810190610923919061417a565b6001600160a01b031614806109b85750836001600160a01b031663e985e9c561094a612aed565b306040518363ffffffff1660e01b8152600401610968929190614b59565b60206040518083038186803b15801561098057600080fd5b505afa158015610994573d6000803e3d6000fd5b505050506040513d601f19601f820116820180604052508101906109b891906147fc565b6109d45760405162461bcd60e51b81526004016107109061517d565b836001600160a01b03166342842e0e6109eb612aed565b30866040518463ffffffff1660e01b8152600401610a0b93929190614bd1565b600060405180830381600087803b158015610a2557600080fd5b505af1158015610a39573d6000803e3d6000fd5b50506040805160208101909152600081529150610a839050610a59612aed565b600754600184604051602001610a6f9190614cc9565b604051602081830303815290604052611a75565b6040518060800160405280610a96612aed565b6001600160a01b0316815260200184848080601f016020809104026020016040519081016040528093929190818152602001838380828437600092018290525093855250506001602080850182905260026040958601526007548452600a815293909220845181546001600160a01b0319166001600160a01b039091161781558484015180519194610b2d94860193500190613ef1565b506040820151816002015560608201518160030160006101000a81548160ff02191690836002811115610b7057634e487b7160e01b600052602160045260246000fd5b0217905550506040805180820182526001600160a01b0388811680835260208084018a81526007546000908152600f909252949020925183546001600160a01b031916921691909117825591516001909101559050610bcd612aed565b6001600160a01b03167fdae1779be741094a20f8287fd2c7a4d2d745eeae29c438867017066ae27a1bc4866007548787604051610c0d9493929190615b1a565b60405180910390a360078054906000610c2583615cc3565b91905055505050505050565b6000818152600a60205260409020600101805460609190610c5190615c88565b80601f0160208091040260200160405190810160405280929190818152602001828054610c7d90615c88565b8015610cca5780601f10610c9f57610100808354040283529160200191610cca565b820191906000526020600020905b815481529060010190602001808311610cad57829003601f168201915b50505050509050919050565b600b6020526000908152604090205481565b6010602052600090815260409020805460018201546002909201546001600160a01b03909116919083565b610d3f7f9f2df0fed2c77648de5860a4cc508cd0818c85b8b8a1ab4ceeef8d981c8956a66105d7612aed565b610d5b5760405162461bcd60e51b8152600401610710906153ff565b610d6784848484612afc565b50505050565b600a60205260009081526040902080546001820180546001600160a01b039092169291610d9990615c88565b80601f0160208091040260200160405190810160405280929190818152602001828054610dc590615c88565b8015610e125780601f10610de757610100808354040283529160200191610e12565b820191906000526020600020905b815481529060010190602001808311610df557829003601f168201915b50505050600283015460039093015491929160ff16905084565b60009081526020819052604090206001015490565b6000828152600a6020908152604080832054600654825163fd967f4760e01b815292516001600160a01b039283169594919092169263fd967f479260048083019392829003018186803b158015610e9757600080fd5b505afa158015610eab573d6000803e3d6000fd5b505050506040513d601f19601f82011682018060405250810190610ecf9190614905565b6fffffffffffffffffffffffffffffffff1660085484610eef9190615c0f565b610ef99190615bef565b90509250929050565b610f0a612aed565b6001600160a01b0316856001600160a01b03161480610f305750610f30856106bd612aed565b610f4c5760405162461bcd60e51b815260040161071090615328565b610f598585858585612c7e565b5050505050565b610f6a8282612e52565b6000828152600160205260409020610f829082612a94565b505050565b60065460408051634a32c6bf60e11b815290516001600160a01b03909216916391d148549183916394658d7e91600480820192602092909190829003018186803b158015610fd457600080fd5b505afa158015610fe8573d6000803e3d6000fd5b505050506040513d601f19601f8201168201806040525081019061100c9190614830565b611014612aed565b6040518363ffffffff1660e01b8152600401611031929190614e0f565b60206040518083038186803b15801561104957600080fd5b505afa15801561105d573d6000803e3d6000fd5b505050506040513d601f19601f8201168201806040525081019061108191906147fc565b61109d5760405162461bcd60e51b815260040161071090615573565b600660009054906101000a90046001600160a01b03166001600160a01b031663fd967f476040518163ffffffff1660e01b815260040160206040518083038186803b1580156110eb57600080fd5b505afa1580156110ff573d6000803e3d6000fd5b505050506040513d601f19601f820116820180604052508101906111239190614905565b6fffffffffffffffffffffffffffffffff1681106111535760405162461bcd60e51b81526004016107109061562d565b60088190556040517ffe0145b1017176fc94d0dfab7c8631a2f2c4b287fc395f4b3e8bfec35e150dac90611188908390614e06565b60405180910390a150565b6000848152600b602052604090205480831080156111b15750808211155b6111cd5760405162461bcd60e51b815260040161071090615022565b6000858152600c6020526040812085916111e5612aed565b6001600160a01b03166001600160a01b0316815260200190815260200160002060008581526020019081526020016000205410156112355760405162461bcd60e51b8152600401610710906155d0565b6000858152600c60205260408120859161124d612aed565b6001600160a01b03166001600160a01b031681526020019081526020016000206000858152602001908152602001600020600082825461128d9190615c2e565b90915550506000858152600c6020526040812085916112aa612aed565b6001600160a01b03166001600160a01b03168152602001908152602001600020600084815260200190815260200160002060008282546112ea9190615bd7565b90915550505050505050565b6113008282612e76565b6000828152600160205260409020610f829082612eb8565b6113447f65d7a28e3265b37a6474929f336521b332c1681b933f6cb9f3376673440d862a6105d7612aed565b6113605760405162461bcd60e51b815260040161071090615729565b611368612ecd565b565b600654604080516309d2f83f60e41b815290516060926001600160a01b031691639d2f83f0916004808301926020929190829003018186803b1580156113af57600080fd5b505afa1580156113c3573d6000803e3d6000fd5b505050506040513d601f19601f820116820180604052508101906113e791906147fc565b156114045760405162461bcd60e51b815260040161071090615385565b8382146114235760405162461bcd60e51b815260040161071090615786565b836114405760405162461bcd60e51b81526004016107109061568a565b8367ffffffffffffffff81111561146757634e487b7160e01b600052604160045260246000fd5b604051908082528060200260200182016040528015611490578160200160208202803683370190505b506007549091506000806114a2612aed565b905060008767ffffffffffffffff8111156114cd57634e487b7160e01b600052604160045260246000fd5b6040519080825280602002602001820160405280156114f6578160200160208202803683370190505b50905060005b888110156117b6578486828151811061152557634e487b7160e01b600052603260045260246000fd5b6020026020010181815250506040518060800160405280846001600160a01b031681526020018b8b8481811061156b57634e487b7160e01b600052603260045260246000fd5b905060200281019061157d9190615b44565b8080601f0160208091040260200160405190810160405280939291908181526020018383808284376000920191909152505050908252506020018989848181106115d757634e487b7160e01b600052603260045260246000fd5b6020908102929092013583525001600090526000868152600a60209081526040909120825181546001600160a01b0319166001600160a01b03909116178155828201518051919261163092600185019290910190613ef1565b506040820151816002015560608201518160030160006101000a81548160ff0219169083600281111561167357634e487b7160e01b600052602160045260246000fd5b021790555090505087878281811061169b57634e487b7160e01b600052603260045260246000fd5b6000888152600e602090815260408083208a8452825290912091029290920135909155508787828181106116df57634e487b7160e01b600052603260045260246000fd5b6000888152600c602090815260408083206001600160a01b038a16845282528083208a84528252909120910292909201359091555089898281811061173457634e487b7160e01b600052603260045260246000fd5b90506020028101906117469190615b44565b6000878152600d60209081526040808320898452909152902061176a929091613f75565b508382828151811061178c57634e487b7160e01b600052603260045260246000fd5b60209081029190910101526117a2600186615bd7565b9450806117ae81615cc3565b9150506114fc565b5060078490556118206117c7612aed565b868989808060200260200160405190810160405280939291908181526020018383602002808284376000920191909152505060405161180c9250879150602001614cfb565b604051602081830303815290604052610d13565b611828612aed565b6001600160a01b03167f9ead818be0b43d79a78daaabe6c787d254ac1279ac99d9ff62b6b227804f7b33868b8b8b8b604051611868959493929190614d0e565b60405180910390a250505050949350505050565b60085481565b606081518351146118a55760405162461bcd60e51b8152600401610710906158fa565b6000835167ffffffffffffffff8111156118cf57634e487b7160e01b600052604160045260246000fd5b6040519080825280602002602001820160405280156118f8578160200160208202803683370190505b50905060005b845181101561199a5761195f85828151811061192a57634e487b7160e01b600052603260045260246000fd5b602002602001015185838151811061195257634e487b7160e01b600052603260045260246000fd5b60200260200101516106e8565b82828151811061197f57634e487b7160e01b600052603260045260246000fd5b602090810291909101015261199381615cc3565b90506118fe565b509392505050565b6000908152600a60205260409020546001600160a01b031690565b60055461010090046001600160a01b0390811691161490565b60055460ff165b90565b600c60209081526000938452604080852082529284528284209052825290205481565b600e60209081526000928352604080842090915290825290205481565b611a28612aed565b6001600160a01b0316836001600160a01b03161480611a4e5750611a4e836106bd612aed565b611a6a5760405162461bcd60e51b815260040161071090615120565b610f82838383612f3b565b611aa17f9f2df0fed2c77648de5860a4cc508cd0818c85b8b8a1ab4ceeef8d981c8956a66105d7612aed565b611abd5760405162461bcd60e51b8152600401610710906153ff565b610d67848484846130ef565b60075481565b600660009054906101000a90046001600160a01b03166001600160a01b0316639d2f83f06040518163ffffffff1660e01b815260040160206040518083038186803b158015611b1d57600080fd5b505afa158015611b31573d6000803e3d6000fd5b505050506040513d601f19601f82011682018060405250810190611b5591906147fc565b15611b725760405162461bcd60e51b815260040161071090615385565b6000611b808a8a8a8a61136a565b905060008686868686604051602001611b9d959493929190614e26565b6040516020818303038152906040529050611bf6611bb9612aed565b8d848c8c80806020026020016040519081016040528093929190818152602001838360200280828437600092019190915250889250610f02915050565b505050505050505050505050565b80611c16611c10612aed565b846106e8565b1015611c345760405162461bcd60e51b815260040161071090615516565b611c46611c3f612aed565b83836131e0565b60008281526010602052604081206001810154600290910154611c6a908490615c0f565b611c749190615bef565b6000848152601060205260409020549091506001600160a01b031663a9059cbb611c9c612aed565b836040518363ffffffff1660e01b8152600401611cba929190614c8f565b602060405180830381600087803b158015611cd457600080fd5b505af1158015611ce8573d6000803e3d6000fd5b505050506040513d601f19601f82011682018060405250810190611d0c91906147fc565b611d285760405162461bcd60e51b815260040161071090615237565b6000838152601060205260409020546001600160a01b0316611d48612aed565b6001600160a01b03167fb7ca9e3aa58248cbaa6a5f83ca826cc57bf8ecd128fd88da420e294353c652f98385604051611d82929190615b0c565b60405180910390a3505050565b611dbb7f65d7a28e3265b37a6474929f336521b332c1681b933f6cb9f3376673440d862a6105d7612aed565b611dd75760405162461bcd60e51b815260040161071090615840565b6113686132f3565b6000828152600160205260408120611df7908361334e565b9392505050565b6000918252602082815260408084206001600160a01b0393909316845291905290205460ff1690565b60065460408051634a32c6bf60e11b815290516001600160a01b03909216916391d148549183916394658d7e91600480820192602092909190829003018186803b158015611e7457600080fd5b505afa158015611e88573d6000803e3d6000fd5b505050506040513d601f19601f82011682018060405250810190611eac9190614830565b611eb4612aed565b6040518363ffffffff1660e01b8152600401611ed1929190614e0f565b60206040518083038186803b158015611ee957600080fd5b505afa158015611efd573d6000803e3d6000fd5b505050506040513d601f19601f82011682018060405250810190611f2191906147fc565b611f3d5760405162461bcd60e51b815260040161071090615573565b610f8260098383613f75565b6000611f5c611f56612aed565b836106e8565b11611f795760405162461bcd60e51b815260040161071090615516565b611f8c611f84612aed565b8260016131e0565b6000818152600f60205260409020546001600160a01b03166342842e0e30611fb2612aed565b6000858152600f6020526040908190206001015490516001600160e01b031960e086901b168152611fe893929190600401614bd1565b600060405180830381600087803b15801561200257600080fd5b505af1158015612016573d6000803e3d6000fd5b5050506000828152600f60205260409020546001600160a01b0316905061203b612aed565b6001600160a01b03167fea7b88a04220a2292e142652e8e1a59cc00e7d27d8ad6b11da6cf5870e6ba866600f6000858152602001908152602001600020600101548460405161208b929190615b0c565b60405180910390a350565b600081565b816001600160a01b03166120ad612aed565b6001600160a01b031614156120d45760405162461bcd60e51b81526004016107109061589d565b80600360006120e1612aed565b6001600160a01b03908116825260208083019390935260409182016000908120918716808252919093529120805460ff191692151592909217909155612125612aed565b6001600160a01b03167f17307eab39ab6107e8899845ad3d59bd9653f200f220920489ca2b5937696c318360405161215d9190614dfb565b60405180910390a35050565b60065460408051634a32c6bf60e11b815290516001600160a01b03909216916391d148549183916394658d7e91600480820192602092909190829003018186803b1580156121b657600080fd5b505afa1580156121ca573d6000803e3d6000fd5b505050506040513d601f19601f820116820180604052508101906121ee9190614830565b6121f6612aed565b6040518363ffffffff1660e01b8152600401612213929190614e0f565b60206040518083038186803b15801561222b57600080fd5b505afa15801561223f573d6000803e3d6000fd5b505050506040513d601f19601f8201168201806040525081019061226391906147fc565b61227f5760405162461bcd60e51b815260040161071090615573565b60075483106122a05760405162461bcd60e51b8152600401610710906151da565b6000838152600b60205260408120805482906122bb90615cc3565b91829055506000858152600d6020908152604080832084845290915290209091506122e7908484613f75565b507fed77f386b7993c6c091ca6b681969e6e7e2480b01e159a1982e19206c3eb75318482858560405161231d9493929190615b1a565b60405180910390a150505050565b600d6020908152600092835260408084209091529082529020805461234f90615c88565b80601f016020809104026020016040519081016040528092919081815260200182805461237b90615c88565b80156123c85780601f1061239d576101008083540402835291602001916123c8565b820191906000526020600020905b8154815290600101906020018083116123ab57829003601f168201915b505050505081565b6009805461234f90615c88565b600081815260016020526040812061073e9061335a565b7f9f2df0fed2c77648de5860a4cc508cd0818c85b8b8a1ab4ceeef8d981c8956a681565b6113008282613365565b600660009054906101000a90046001600160a01b03166001600160a01b0316639d2f83f06040518163ffffffff1660e01b815260040160206040518083038186803b15801561247057600080fd5b505afa158015612484573d6000803e3d6000fd5b505050506040513d601f19601f820116820180604052508101906124a891906147fc565b156124c55760405162461bcd60e51b815260040161071090615385565b83856001600160a01b03166370a082316124dd612aed565b6040518263ffffffff1660e01b81526004016124f99190614b45565b60206040518083038186803b15801561251157600080fd5b505afa158015612525573d6000803e3d6000fd5b505050506040513d601f19601f820116820180604052508101906125499190614830565b10156125675760405162461bcd60e51b815260040161071090615957565b83856001600160a01b031663dd62ed3e61257f612aed565b306040518363ffffffff1660e01b815260040161259d929190614b59565b60206040518083038186803b1580156125b557600080fd5b505afa1580156125c9573d6000803e3d6000fd5b505050506040513d601f19601f820116820180604052508101906125ed9190614830565b101561260b5760405162461bcd60e51b8152600401610710906154b9565b846001600160a01b03166323b872dd612622612aed565b30876040518463ffffffff1660e01b815260040161264293929190614bd1565b602060405180830381600087803b15801561265c57600080fd5b505af1158015612670573d6000803e3d6000fd5b505050506040513d601f19601f8201168201806040525081019061269491906147fc565b6126b05760405162461bcd60e51b815260040161071090614fed565b6040805160208101909152600081526126df6126ca612aed565b6007548684604051602001610a6f9190614cc9565b60405180608001604052806126f2612aed565b6001600160a01b0316815260200184848080601f01602080910402602001604051908101604052809392919081815260200183838082843760009201919091525050509082525060208101869052604001600190526007546000908152600a60209081526040909120825181546001600160a01b0319166001600160a01b03909116178155828201518051919261279192600185019290910190613ef1565b506040820151816002015560608201518160030160006101000a81548160ff021916908360028111156127d457634e487b7160e01b600052602160045260246000fd5b021790555050604080516060810182526001600160a01b0389811680835260208084018a81528486018c81526007546000908152601090935295909120935184546001600160a01b03191693169290921783559051600183015591516002909101559050612840612aed565b6001600160a01b03167fd8bffec4446d425694f73630f7822315baa62da5311e89f0d83335ef6a3917ba8787878760405161287e9493929190615b1a565b60405180910390a36007805490600061289683615cc3565b9190505550505050505050565b600f60205260009081526040902080546001909101546001600160a01b039091169082565b7f65d7a28e3265b37a6474929f336521b332c1681b933f6cb9f3376673440d862a81565b6060600980546128fb90615c88565b80601f016020809104026020016040519081016040528092919081815260200182805461292790615c88565b80156129745780601f1061294957610100808354040283529160200191612974565b820191906000526020600020905b81548152906001019060200180831161295757829003601f168201915b5050505050905090565b6001600160a01b03918216600090815260036020908152604080832093909416825291909152205460ff1690565b6129b4612aed565b6001600160a01b0316856001600160a01b031614806129da57506129da856106bd612aed565b6129f65760405162461bcd60e51b815260040161071090615120565b610f598585858585613384565b612a0b612aed565b6001600160a01b0316836001600160a01b03161480612a315750612a31836106bd612aed565b612a4d5760405162461bcd60e51b815260040161071090615120565b610f828383836131e0565b6000612a63336119bd565b15612a77575060131936013560601c6119dd565b612a7f612aa9565b90506119dd565b612a9082826134bc565b5050565b6000611df7836001600160a01b038416613541565b3390565b60006001600160e01b03198216636cdb3d1360e11b1480612ade57506001600160e01b031982166303a24d0760e21b145b8061073e575061073e8261358b565b6000612af7612a58565b905090565b6001600160a01b038416612b225760405162461bcd60e51b815260040161071090615a11565b8151835114612b435760405162461bcd60e51b8152600401610710906159b4565b6000612b4d612aed565b9050612b5e816000878787876135b0565b60005b8451811015612c1657838181518110612b8a57634e487b7160e01b600052603260045260246000fd5b602002602001015160026000878481518110612bb657634e487b7160e01b600052603260045260246000fd5b602002602001015181526020019081526020016000206000886001600160a01b03166001600160a01b031681526020019081526020016000206000828254612bfe9190615bd7565b90915550819050612c0e81615cc3565b915050612b61565b50846001600160a01b031660006001600160a01b0316826001600160a01b03167f4a39dc06d4c0dbc64b70af90fd698a233a518aa5d07e595d983b8c0526c8f7fb8787604051612c67929190614dcd565b60405180910390a4610f598160008787878761381d565b8151835114612c9f5760405162461bcd60e51b8152600401610710906159b4565b6001600160a01b038416612cc55760405162461bcd60e51b8152600401610710906152cb565b6000612ccf612aed565b9050612cdf8187878787876135b0565b60005b8451811015612de4576000858281518110612d0d57634e487b7160e01b600052603260045260246000fd5b602002602001015190506000858381518110612d3957634e487b7160e01b600052603260045260246000fd5b60209081029190910181015160008481526002835260408082206001600160a01b038e168352909352919091205490915081811015612d8a5760405162461bcd60e51b81526004016107109061545c565b60008381526002602090815260408083206001600160a01b038e8116855292528083208585039055908b16825281208054849290612dc9908490615bd7565b9250508190555050505080612ddd90615cc3565b9050612ce2565b50846001600160a01b0316866001600160a01b0316826001600160a01b03167f4a39dc06d4c0dbc64b70af90fd698a233a518aa5d07e595d983b8c0526c8f7fb8787604051612e34929190614dcd565b60405180910390a4612e4a81878787878761381d565b505050505050565b612e5b82610e2c565b612e6c81612e67612aed565b61392b565b610f8283836134bc565b612e7e612aed565b6001600160a01b0316816001600160a01b031614612eae5760405162461bcd60e51b815260040161071090615aaf565b612a90828261398f565b6000611df7836001600160a01b038416613a12565b612ed56119d6565b612ef15760405162461bcd60e51b815260040161071090614f59565b6005805460ff191690557f5db9ee0a495bf2e6ff9c91a7834c1ba4fdd244a5e8aa4e537bd38aeae4b073aa612f24612aed565b604051612f319190614b45565b60405180910390a1565b6001600160a01b038316612f615760405162461bcd60e51b8152600401610710906153bc565b8051825114612f825760405162461bcd60e51b8152600401610710906159b4565b6000612f8c612aed565b9050612fac818560008686604051806020016040528060008152506135b0565b60005b8351811015613090576000848281518110612fda57634e487b7160e01b600052603260045260246000fd5b60200260200101519050600084838151811061300657634e487b7160e01b600052603260045260246000fd5b60209081029190910181015160008481526002835260408082206001600160a01b038c1683529093529190912054909150818110156130575760405162461bcd60e51b81526004016107109061507f565b60009283526002602090815260408085206001600160a01b038b168652909152909220910390558061308881615cc3565b915050612faf565b5060006001600160a01b0316846001600160a01b0316826001600160a01b03167f4a39dc06d4c0dbc64b70af90fd698a233a518aa5d07e595d983b8c0526c8f7fb86866040516130e1929190614dcd565b60405180910390a450505050565b6001600160a01b0384166131155760405162461bcd60e51b815260040161071090615a11565b600061311f612aed565b90506131408160008761313188613b2f565b61313a88613b2f565b876135b0565b60008481526002602090815260408083206001600160a01b038916845290915281208054859290613172908490615bd7565b92505081905550846001600160a01b031660006001600160a01b0316826001600160a01b03167fc3d58168c5ae7397731d063d5bbf3d657854427343f4c083240f7aacaa2d0f6287876040516131c9929190615b0c565b60405180910390a4610f5981600087878787613b88565b6001600160a01b0383166132065760405162461bcd60e51b8152600401610710906153bc565b6000613210612aed565b90506132408185600061322287613b2f565b61322b87613b2f565b604051806020016040528060008152506135b0565b60008381526002602090815260408083206001600160a01b0388168452909152902054828110156132835760405162461bcd60e51b81526004016107109061507f565b60008481526002602090815260408083206001600160a01b03808a16808652919093528184208786039055905190918516907fc3d58168c5ae7397731d063d5bbf3d657854427343f4c083240f7aacaa2d0f62906132e49089908990615b0c565b60405180910390a45050505050565b6132fb6119d6565b156133185760405162461bcd60e51b815260040161071090615294565b6005805460ff191660011790557f62e78cea01bee320cd4e420270b5ea74000d11b0c9f74754ebdbfc544b05a258612f24612aed565b6000611df78383613c59565b600061073e82613c91565b61336e82610e2c565b61337a81612e67612aed565b610f82838361398f565b6001600160a01b0384166133aa5760405162461bcd60e51b8152600401610710906152cb565b60006133b4612aed565b90506133c581878761313188613b2f565b60008481526002602090815260408083206001600160a01b038a168452909152902054838110156134085760405162461bcd60e51b81526004016107109061545c565b60008581526002602090815260408083206001600160a01b038b8116855292528083208785039055908816825281208054869290613447908490615bd7565b92505081905550856001600160a01b0316876001600160a01b0316836001600160a01b03167fc3d58168c5ae7397731d063d5bbf3d657854427343f4c083240f7aacaa2d0f62888860405161349d929190615b0c565b60405180910390a46134b3828888888888613b88565b50505050505050565b6134c68282611dfe565b612a90576000828152602081815260408083206001600160a01b03851684529091529020805460ff191660011790556134fd612aed565b6001600160a01b0316816001600160a01b0316837f2f8788117e7eff1d82e926ec794901d17c78024a50270940304540a733656f0d60405160405180910390a45050565b600061354d8383613c95565b6135835750815460018181018455600084815260208082209093018490558454848252828601909352604090209190915561073e565b50600061073e565b60006001600160e01b03198216635a05180f60e01b148061073e575061073e82613cad565b6135be868686868686613cd2565b6001600160a01b0384166136665760005b8351811015613664578281815181106135f857634e487b7160e01b600052603260045260246000fd5b6020026020010151600a600086848151811061362457634e487b7160e01b600052603260045260246000fd5b60200260200101518152602001908152602001600020600201600082825461364c9190615c2e565b9091555081905061365c81615cc3565b9150506135cf565b505b60008180602001905181019061367c919061476c565b9050835181511461369f5760405162461bcd60e51b8152600401610710906156cc565b60005b84518110156138135760008282815181106136cd57634e487b7160e01b600052603260045260246000fd5b6020026020010151905060008683815181106136f957634e487b7160e01b600052603260045260246000fd5b60200260200101519050600086848151811061372557634e487b7160e01b600052603260045260246000fd5b6020908102919091018101516000848152600c835260408082206001600160a01b038f1683528452808220878352909352919091205490915081111561377d5760405162461bcd60e51b8152600401610710906157e3565b6000828152600c602090815260408083206001600160a01b038e1684528252808320868452909152812080548392906137b7908490615c2e565b90915550506000828152600c602090815260408083206001600160a01b038d1684528252808320868452909152812080548392906137f6908490615bd7565b92505081905550505050808061380b90615cc3565b9150506136a2565b5050505050505050565b61382f846001600160a01b0316613ce0565b15612e4a5760405163bc197c8160e01b81526001600160a01b0385169063bc197c81906138689089908990889088908890600401614b73565b602060405180830381600087803b15801561388257600080fd5b505af19250505080156138b2575060408051601f3d908101601f191682019092526138af918101906148a9565b60015b6138fb576138be615d10565b806138c957506138e3565b8060405162461bcd60e51b81526004016107109190614e57565b60405162461bcd60e51b815260040161071090614e6a565b6001600160e01b0319811663bc197c8160e01b146134b35760405162461bcd60e51b815260040161071090614efc565b6139358282611dfe565b612a905761394d816001600160a01b03166014613ce6565b613958836020613ce6565b604051602001613969929190614ac4565b60408051601f198184030181529082905262461bcd60e51b825261071091600401614e57565b6139998282611dfe565b15612a90576000828152602081815260408083206001600160a01b03851684529091529020805460ff191690556139ce612aed565b6001600160a01b0316816001600160a01b0316837ff6391f5c32d9c69d2a47ea670b442974b53935d1edc7fd64eb21e047a839171b60405160405180910390a45050565b60008181526001830160205260408120548015613b25576000613a36600183615c2e565b8554909150600090613a4a90600190615c2e565b9050818114613acb576000866000018281548110613a7857634e487b7160e01b600052603260045260246000fd5b9060005260206000200154905080876000018481548110613aa957634e487b7160e01b600052603260045260246000fd5b6000918252602080832090910192909255918252600188019052604090208390555b8554869080613aea57634e487b7160e01b600052603160045260246000fd5b60019003818190600052602060002001600090559055856001016000868152602001908152602001600020600090556001935050505061073e565b600091505061073e565b60408051600180825281830190925260609160009190602080830190803683370190505090508281600081518110613b7757634e487b7160e01b600052603260045260246000fd5b602090810291909101015292915050565b613b9a846001600160a01b0316613ce0565b15612e4a5760405163f23a6e6160e01b81526001600160a01b0385169063f23a6e6190613bd39089908990889088908890600401614bf5565b602060405180830381600087803b158015613bed57600080fd5b505af1925050508015613c1d575060408051601f3d908101601f19168201909252613c1a918101906148a9565b60015b613c29576138be615d10565b6001600160e01b0319811663f23a6e6160e01b146134b35760405162461bcd60e51b815260040161071090614efc565b6000826000018281548110613c7e57634e487b7160e01b600052603260045260246000fd5b9060005260206000200154905092915050565b5490565b60009081526001919091016020526040902054151590565b60006001600160e01b03198216637965db0b60e01b148061073e575061073e82613ea5565b612e4a868686868686613ebe565b3b151590565b60606000613cf5836002615c0f565b613d00906002615bd7565b67ffffffffffffffff811115613d2657634e487b7160e01b600052604160045260246000fd5b6040519080825280601f01601f191660200182016040528015613d50576020820181803683370190505b509050600360fc1b81600081518110613d7957634e487b7160e01b600052603260045260246000fd5b60200101906001600160f81b031916908160001a905350600f60fb1b81600181518110613db657634e487b7160e01b600052603260045260246000fd5b60200101906001600160f81b031916908160001a9053506000613dda846002615c0f565b613de5906001615bd7565b90505b6001811115613e86577f303132333435363738396162636465660000000000000000000000000000000085600f1660108110613e3457634e487b7160e01b600052603260045260246000fd5b1a60f81b828281518110613e5857634e487b7160e01b600052603260045260246000fd5b60200101906001600160f81b031916908160001a90535060049490941c93613e7f81615c71565b9050613de8565b508315611df75760405162461bcd60e51b815260040161071090614ec7565b6001600160e01b031981166301ffc9a760e01b14919050565b613ecc868686868686612e4a565b613ed46119d6565b15612e4a5760405162461bcd60e51b8152600401610710906150c3565b828054613efd90615c88565b90600052602060002090601f016020900481019282613f1f5760008555613f65565b82601f10613f3857805160ff1916838001178555613f65565b82800160010185558215613f65579182015b82811115613f65578251825591602001919060010190613f4a565b50613f71929150613fe9565b5090565b828054613f8190615c88565b90600052602060002090601f016020900481019282613fa35760008555613f65565b82601f10613fbc5782800160ff19823516178555613f65565b82800160010185558215613f65579182015b82811115613f65578235825591602001919060010190613fce565b5b80821115613f715760008155600101613fea565b60008083601f84011261400f578182fd5b50813567ffffffffffffffff811115614026578182fd5b602083019150836020808302850101111561404057600080fd5b9250929050565b600082601f830112614057578081fd5b8135602061406c61406783615bb3565b615b89565b8281528181019085830183850287018401881015614088578586fd5b855b858110156140a65781358452928401929084019060010161408a565b5090979650505050505050565b600082601f8301126140c3578081fd5b813567ffffffffffffffff8111156140dd576140dd615cf4565b6140f0601f8201601f1916602001615b89565b818152846020838601011115614104578283fd5b816020850160208301379081016020019190915292915050565b60008083601f84011261412f578182fd5b50813567ffffffffffffffff811115614146578182fd5b60208301915083602082850101111561404057600080fd5b60006020828403121561416f578081fd5b8135611df781615db5565b60006020828403121561418b578081fd5b8151611df781615db5565b600080604083850312156141a8578081fd5b82356141b381615db5565b915060208301356141c381615db5565b809150509250929050565b600080600080600060a086880312156141e5578081fd5b85356141f081615db5565b9450602086013561420081615db5565b9350604086013567ffffffffffffffff8082111561421c578283fd5b61422889838a01614047565b9450606088013591508082111561423d578283fd5b61424989838a01614047565b9350608088013591508082111561425e578283fd5b5061426b888289016140b3565b9150509295509295909350565b600080600080600060a0868803121561428f578283fd5b853561429a81615db5565b945060208601356142aa81615db5565b93506040860135925060608601359150608086013567ffffffffffffffff8111156142d3578182fd5b61426b888289016140b3565b60008060008060008060008060008060e08b8d0312156142fd578788fd5b8a3561430881615db5565b995060208b013567ffffffffffffffff8082111561432457898afd5b6143308e838f01613ffe565b909b50995060408d0135915080821115614348578687fd5b6143548e838f01613ffe565b909950975060608d013591508082111561436c578687fd5b506143798d828e0161411e565b9b9e9a9d50989b979a9699969760808101359760a0820135975060c09091013595509350505050565b6000806000606084860312156143b6578081fd5b83356143c181615db5565b9250602084013567ffffffffffffffff808211156143dd578283fd5b6143e987838801614047565b935060408601359150808211156143fe578283fd5b5061440b86828701614047565b9150509250925092565b6000806000806080858703121561442a578182fd5b843561443581615db5565b9350602085013567ffffffffffffffff80821115614451578384fd5b61445d88838901614047565b94506040870135915080821115614472578384fd5b61447e88838901614047565b93506060870135915080821115614493578283fd5b506144a0878288016140b3565b91505092959194509250565b600080604083850312156144be578182fd5b82356144c981615db5565b915060208301356141c381615dcd565b600080604083850312156144eb578182fd5b82356144f681615db5565b946020939093013593505050565b60008060008060608587031215614519578182fd5b843561452481615db5565b935060208501359250604085013567ffffffffffffffff811115614546578283fd5b6145528782880161411e565b95989497509550505050565b600080600060608486031215614572578081fd5b833561457d81615db5565b95602085013595506040909401359392505050565b600080600080608085870312156145a7578182fd5b84356145b281615db5565b93506020850135925060408501359150606085013567ffffffffffffffff8111156145db578182fd5b6144a0878288016140b3565b6000806000806000608086880312156145fe578283fd5b853561460981615db5565b94506020860135935060408601359250606086013567ffffffffffffffff811115614632578182fd5b61463e8882890161411e565b969995985093965092949392505050565b60008060408385031215614661578182fd5b823567ffffffffffffffff80821115614678578384fd5b818501915085601f83011261468b578384fd5b8135602061469b61406783615bb3565b82815281810190858301838502870184018b10156146b7578889fd5b8896505b848710156146e25780356146ce81615db5565b8352600196909601959183019183016146bb565b50965050860135925050808211156146f8578283fd5b5061470585828601614047565b9150509250929050565b60008060008060408587031215614724578182fd5b843567ffffffffffffffff8082111561473b578384fd5b61474788838901613ffe565b9096509450602087013591508082111561475f578384fd5b5061455287828801613ffe565b6000602080838503121561477e578182fd5b825167ffffffffffffffff811115614794578283fd5b8301601f810185136147a4578283fd5b80516147b261406782615bb3565b81815283810190838501858402850186018910156147ce578687fd5b8694505b838510156147f05780518352600194909401939185019185016147d2565b50979650505050505050565b60006020828403121561480d578081fd5b8151611df781615dcd565b600060208284031215614829578081fd5b5035919050565b600060208284031215614841578081fd5b5051919050565b6000806040838503121561485a578182fd5b8235915060208301356141c381615db5565b6000806040838503121561487e578182fd5b50508035926020909101359150565b60006020828403121561489e578081fd5b8135611df781615ddb565b6000602082840312156148ba578081fd5b8151611df781615ddb565b600080602083850312156148d7578182fd5b823567ffffffffffffffff8111156148ed578283fd5b6148f98582860161411e565b90969095509350505050565b600060208284031215614916578081fd5b81516fffffffffffffffffffffffffffffffff81168114611df7578182fd5b600080600060608486031215614949578081fd5b83359250602084013561495b81615db5565b929592945050506040919091013590565b600080600060408486031215614980578081fd5b83359250602084013567ffffffffffffffff81111561499d578182fd5b6149a98682870161411e565b9497909650939450505050565b600080600080608085870312156149cb578182fd5b5050823594602084013594506040840135936060013592509050565b60008284527f07ffffffffffffffffffffffffffffffffffffffffffffffffffffffffffffff831115614a18578081fd5b6020830280836020870137939093016020019283525090919050565b6000815180845260208085019450808401835b83811015614a6357815187529582019590820190600101614a47565b509495945050505050565b60008151808452614a86816020860160208601615c45565b601f01601f19169290920160200192915050565b60008284528282602086013780602084860101526020601f19601f85011685010190509392505050565b60007f416363657373436f6e74726f6c3a206163636f756e742000000000000000000082528351614afc816017850160208801615c45565b7f206973206d697373696e6720726f6c65200000000000000000000000000000006017918401918201528351614b39816028840160208801615c45565b01602801949350505050565b6001600160a01b0391909116815260200190565b6001600160a01b0392831681529116602082015260400190565b60006001600160a01b03808816835280871660208401525060a06040830152614b9f60a0830186614a34565b8281036060840152614bb18186614a34565b90508281036080840152614bc58185614a6e565b98975050505050505050565b6001600160a01b039384168152919092166020820152604081019190915260600190565b60006001600160a01b03808816835280871660208401525084604083015283606083015260a06080830152614c2d60a0830184614a6e565b979650505050505050565b60006001600160a01b038616825260806020830152614c5a6080830186614a6e565b905083604083015260038310614c8057634e487b7160e01b600052602160045260246000fd5b82606083015295945050505050565b6001600160a01b03929092168252602082015260400190565b6001600160a01b039390931683526020830191909152604082015260600190565b602081810190828460005b6001811015614cf157815183529183019190830190600101614cd4565b5050505092915050565b600060208252611df76020830184614a34565b600060608252614d216060830188614a34565b6020838203818501528187835281830190508182890284010189855b8a811015614da957858303601f190184528135368d9003601e19018112614d62578788fd5b8c01803567ffffffffffffffff811115614d7a578889fd5b8036038e1315614d88578889fd5b614d958582898501614a9a565b958701959450505090840190600101614d3d565b50508581036040870152614dbe81888a6149e7565b9b9a5050505050505050505050565b600060408252614de06040830185614a34565b8281036020840152614df28185614a34565b95945050505050565b901515815260200190565b90815260200190565b9182526001600160a01b0316602082015260400190565b600060808252614e3a608083018789614a9a565b602083019590955250604081019290925260609091015292915050565b600060208252611df76020830184614a6e565b60208082526034908201527f455243313135353a207472616e7366657220746f206e6f6e204552433131353560408201527f526563656976657220696d706c656d656e746572000000000000000000000000606082015260800190565b6020808252818101527f537472696e67733a20686578206c656e67746820696e73756666696369656e74604082015260600190565b60208082526028908201527f455243313135353a204552433131353552656365697665722072656a6563746560408201527f6420746f6b656e73000000000000000000000000000000000000000000000000606082015260800190565b60208082526014908201527f5061757361626c653a206e6f7420706175736564000000000000000000000000604082015260600190565b6020808252602b908201527f455243313135353a2062616c616e636520717565727920666f7220746865207a60408201527f65726f2061646472657373000000000000000000000000000000000000000000606082015260800190565b6020808252818101527f4661696c656420746f207472616e7366657220455243323020746f6b656e732e604082015260600190565b60208082526027908201527f4e4654436f6c6c656374696f6e3a20696e76616c6964206c6576656c7320707260408201527f6f76696465642e00000000000000000000000000000000000000000000000000606082015260800190565b60208082526024908201527f455243313135353a206275726e20616d6f756e7420657863656564732062616c604082015263616e636560e01b606082015260800190565b6020808252602c908201527f455243313135355061757361626c653a20746f6b656e207472616e736665722060408201527f7768696c65207061757365640000000000000000000000000000000000000000606082015260800190565b60208082526029908201527f455243313135353a2063616c6c6572206973206e6f74206f776e6572206e6f7260408201527f20617070726f7665640000000000000000000000000000000000000000000000606082015260800190565b60208082526033908201527f4e46543a204d75737420617070726f76652074686520636f6e7472616374207460408201527f6f207472616e7366657220746865204e46542e00000000000000000000000000606082015260800190565b6020808252603d908201527f4e4654436f6c6c656374696f6e3a2063616e6e6f74207570646174652074686560408201527f206c6576656c206f662061206e6f6e206578697374656e74204e46542e000000606082015260800190565b60208082526025908201527f4e46543a204661696c656420746f207472616e7366657220455243323020746f60408201527f6b656e732e000000000000000000000000000000000000000000000000000000606082015260800190565b60208082526010908201527f5061757361626c653a2070617573656400000000000000000000000000000000604082015260600190565b60208082526025908201527f455243313135353a207472616e7366657220746f20746865207a65726f20616460408201527f6472657373000000000000000000000000000000000000000000000000000000606082015260800190565b60208082526032908201527f455243313135353a207472616e736665722063616c6c6572206973206e6f742060408201527f6f776e6572206e6f7220617070726f7665640000000000000000000000000000606082015260800190565b6020808252601c908201527f4e46543a205468652070726f746f636f6c206973207061757365642e00000000604082015260600190565b60208082526023908201527f455243313135353a206275726e2066726f6d20746865207a65726f206164647260408201526265737360e81b606082015260800190565b60208082526038908201527f455243313135355072657365744d696e7465725061757365723a206d7573742060408201527f68617665206d696e74657220726f6c6520746f206d696e740000000000000000606082015260800190565b6020808252602a908201527f455243313135353a20696e73756666696369656e742062616c616e636520666f60408201527f72207472616e7366657200000000000000000000000000000000000000000000606082015260800190565b60208082526039908201527f4e46543a204d75737420617070726f7665207468697320636f6e74726163742060408201527f746f207472616e7366657220455243323020746f6b656e732e00000000000000606082015260800190565b60208082526029908201527f4e46543a2043616e6e6f742072656465656d20616e204e465420796f7520646f60408201527f206e6f74206f776e2e0000000000000000000000000000000000000000000000606082015260800190565b60208082526032908201527f4e46543a206f6e6c7920612070726f746f636f6c2061646d696e2063616e206360408201527f616c6c20746869732066756e6374696f6e2e0000000000000000000000000000606082015260800190565b60208082526038908201527f4e4654436f6c6c656374696f6e3a206e6f7420656e6f756768204e465473206f60408201527f662070726f7669646564206c6576656c2c206f776e65642e0000000000000000606082015260800190565b6020808252602a908201527f4e46543a204270732070726f7669646564206d757374206265206c657373207460408201527f68616e2031302c30303000000000000000000000000000000000000000000000606082015260800190565b60208082526022908201527f4e46543a204d75737420637265617465206174206c65617374206f6e65204e466040820152612a1760f11b606082015260800190565b60208082526032908201527f4e4654436f6c6c656374696f6e3a204d7573742073706563696679206c65766560408201527f6c7320666f7220616c6c20746f6b656e732e0000000000000000000000000000606082015260800190565b6020808252603b908201527f455243313135355072657365744d696e7465725061757365723a206d7573742060408201527f686176652070617573657220726f6c6520746f20756e70617573650000000000606082015260800190565b60208082526030908201527f4e46543a204d757374207370656369667920657175616c206e756d626572206f60408201527f6620636f6e6669672076616c7565732e00000000000000000000000000000000606082015260800190565b6020808252603c908201527f4e4654436f6c6c656374696f6e3a204e6f7420656e6f756768204e465473206f60408201527f6620746865206c6576656c2070726f76696465642c206f776e65642e00000000606082015260800190565b60208082526039908201527f455243313135355072657365744d696e7465725061757365723a206d7573742060408201527f686176652070617573657220726f6c6520746f20706175736500000000000000606082015260800190565b60208082526029908201527f455243313135353a2073657474696e6720617070726f76616c2073746174757360408201527f20666f722073656c660000000000000000000000000000000000000000000000606082015260800190565b60208082526029908201527f455243313135353a206163636f756e747320616e6420696473206c656e67746860408201527f206d69736d617463680000000000000000000000000000000000000000000000606082015260800190565b6020808252603a908201527f4e46543a204d757374206f776e2074686520616d6f756e74206f6620746f6b6560408201527f6e73207468617420617265206265696e6720777261707065642e000000000000606082015260800190565b60208082526028908201527f455243313135353a2069647320616e6420616d6f756e7473206c656e6774682060408201527f6d69736d61746368000000000000000000000000000000000000000000000000606082015260800190565b60208082526021908201527f455243313135353a206d696e7420746f20746865207a65726f206164647265736040820152607360f81b606082015260800190565b6020808252602b908201527f4e46543a204f6e6c7920746865206f776e6572206f6620746865204e4654206360408201527f616e20777261702069742e000000000000000000000000000000000000000000606082015260800190565b6020808252602f908201527f416363657373436f6e74726f6c3a2063616e206f6e6c792072656e6f756e636560408201527f20726f6c657320666f722073656c660000000000000000000000000000000000606082015260800190565b918252602082015260400190565b600085825284602083015260606040830152615b3a606083018486614a9a565b9695505050505050565b6000808335601e19843603018112615b5a578283fd5b83018035915067ffffffffffffffff821115615b74578283fd5b60200191503681900382131561404057600080fd5b60405181810167ffffffffffffffff81118282101715615bab57615bab615cf4565b604052919050565b600067ffffffffffffffff821115615bcd57615bcd615cf4565b5060209081020190565b60008219821115615bea57615bea615cde565b500190565b600082615c0a57634e487b7160e01b81526012600452602481fd5b500490565b6000816000190483118215151615615c2957615c29615cde565b500290565b600082821015615c4057615c40615cde565b500390565b60005b83811015615c60578181015183820152602001615c48565b83811115610d675750506000910152565b600081615c8057615c80615cde565b506000190190565b600281046001821680615c9c57607f821691505b60208210811415615cbd57634e487b7160e01b600052602260045260246000fd5b50919050565b6000600019821415615cd757615cd7615cde565b5060010190565b634e487b7160e01b600052601160045260246000fd5b634e487b7160e01b600052604160045260246000fd5b60e01c90565b600060443d1015615d20576119dd565b600481823e6308c379a0615d348251615d0a565b14615d3e576119dd565b6040513d600319016004823e80513d67ffffffffffffffff8160248401118184111715615d6e57505050506119dd565b82840192508251915080821115615d8857505050506119dd565b503d83016020828401011115615da0575050506119dd565b601f01601f1916810160200160405291505090565b6001600160a01b0381168114615dca57600080fd5b50565b8015158114615dca57600080fd5b6001600160e01b031981168114615dca57600080fdfea164736f6c6343000800000a",
  "linkReferences": {},
  "deployedLinkReferences": {}
}