{
  "_format": "hh-sol-artifact-1",
  "contractName": "NFTCollection",
  "sourceName": "contracts/NFTCollection.sol",
  "abi": [
    {
      "inputs": [
        {
          "internalType": "address payable",
          "name": "_controlCenter",
          "type": "address"
        },
        {
          "internalType": "address",
          "name": "_trustedForwarder",
          "type": "address"
        },
        {
          "internalType": "string",
          "name": "_uri",
          "type": "string"
        }
      ],
      "stateMutability": "nonpayable",
      "type": "constructor"
    },
    {
      "anonymous": false,
      "inputs": [
        {
          "indexed": true,
          "internalType": "address",
          "name": "account",
          "type": "address"
        },
        {
          "indexed": true,
          "internalType": "address",
          "name": "operator",
          "type": "address"
        },
        {
          "indexed": false,
          "internalType": "bool",
          "name": "approved",
          "type": "bool"
        }
      ],
      "name": "ApprovalForAll",
      "type": "event"
    },
    {
      "anonymous": false,
      "inputs": [
        {
          "indexed": true,
          "internalType": "address",
          "name": "redeemer",
          "type": "address"
        },
        {
          "indexed": true,
          "internalType": "address",
          "name": "tokenContract",
          "type": "address"
        },
        {
          "indexed": false,
          "internalType": "uint256",
          "name": "tokenAmountReceived",
          "type": "uint256"
        },
        {
          "indexed": false,
          "internalType": "uint256",
          "name": "nftAmountRedeemed",
          "type": "uint256"
        }
      ],
      "name": "ERC20Redeemed",
      "type": "event"
    },
    {
      "anonymous": false,
      "inputs": [
        {
          "indexed": true,
          "internalType": "address",
          "name": "creator",
          "type": "address"
        },
        {
          "indexed": true,
          "internalType": "address",
          "name": "tokenContract",
          "type": "address"
        },
        {
          "indexed": false,
          "internalType": "uint256",
          "name": "tokenAmount",
          "type": "uint256"
        },
        {
          "indexed": false,
          "internalType": "uint256",
          "name": "nftsMinted",
          "type": "uint256"
        },
        {
          "indexed": false,
          "internalType": "string",
          "name": "nftURI",
          "type": "string"
        }
      ],
      "name": "ERC20WrappedNfts",
      "type": "event"
    },
    {
      "anonymous": false,
      "inputs": [
        {
          "indexed": true,
          "internalType": "address",
          "name": "redeemer",
          "type": "address"
        },
        {
          "indexed": true,
          "internalType": "address",
          "name": "nftContract",
          "type": "address"
        },
        {
          "indexed": false,
          "internalType": "uint256",
          "name": "nftTokenId",
          "type": "uint256"
        },
        {
          "indexed": false,
          "internalType": "uint256",
          "name": "nativeNftTokenId",
          "type": "uint256"
        }
      ],
      "name": "ERC721Redeemed",
      "type": "event"
    },
    {
      "anonymous": false,
      "inputs": [
        {
          "indexed": true,
          "internalType": "address",
          "name": "creator",
          "type": "address"
        },
        {
          "indexed": true,
          "internalType": "address",
          "name": "nftContract",
          "type": "address"
        },
        {
          "indexed": false,
          "internalType": "uint256",
          "name": "nftTokenId",
          "type": "uint256"
        },
        {
          "indexed": false,
          "internalType": "uint256",
          "name": "nativeNftTokenId",
          "type": "uint256"
        },
        {
          "indexed": false,
          "internalType": "string",
          "name": "nativeNftURI",
          "type": "string"
        }
      ],
      "name": "ERC721WrappedNft",
      "type": "event"
    },
    {
      "anonymous": false,
      "inputs": [
        {
          "indexed": true,
          "internalType": "address",
          "name": "creator",
          "type": "address"
        },
        {
          "indexed": false,
          "internalType": "uint256[]",
          "name": "nftIds",
          "type": "uint256[]"
        },
        {
          "indexed": false,
          "internalType": "string[]",
          "name": "nftURIs",
          "type": "string[]"
        },
        {
          "indexed": false,
          "internalType": "uint256[]",
          "name": "nftSupplies",
          "type": "uint256[]"
        }
      ],
      "name": "NativeNfts",
      "type": "event"
    },
    {
      "anonymous": false,
      "inputs": [
        {
          "indexed": false,
          "internalType": "address",
          "name": "account",
          "type": "address"
        }
      ],
      "name": "Paused",
      "type": "event"
    },
    {
      "anonymous": false,
      "inputs": [
        {
          "indexed": true,
          "internalType": "bytes32",
          "name": "role",
          "type": "bytes32"
        },
        {
          "indexed": true,
          "internalType": "bytes32",
          "name": "previousAdminRole",
          "type": "bytes32"
        },
        {
          "indexed": true,
          "internalType": "bytes32",
          "name": "newAdminRole",
          "type": "bytes32"
        }
      ],
      "name": "RoleAdminChanged",
      "type": "event"
    },
    {
      "anonymous": false,
      "inputs": [
        {
          "indexed": true,
          "internalType": "bytes32",
          "name": "role",
          "type": "bytes32"
        },
        {
          "indexed": true,
          "internalType": "address",
          "name": "account",
          "type": "address"
        },
        {
          "indexed": true,
          "internalType": "address",
          "name": "sender",
          "type": "address"
        }
      ],
      "name": "RoleGranted",
      "type": "event"
    },
    {
      "anonymous": false,
      "inputs": [
        {
          "indexed": true,
          "internalType": "bytes32",
          "name": "role",
          "type": "bytes32"
        },
        {
          "indexed": true,
          "internalType": "address",
          "name": "account",
          "type": "address"
        },
        {
          "indexed": true,
          "internalType": "address",
          "name": "sender",
          "type": "address"
        }
      ],
      "name": "RoleRevoked",
      "type": "event"
    },
    {
      "anonymous": false,
      "inputs": [
        {
          "indexed": false,
          "internalType": "uint256",
          "name": "royaltyBps",
          "type": "uint256"
        }
      ],
      "name": "RoyaltyUpdated",
      "type": "event"
    },
    {
      "anonymous": false,
      "inputs": [
        {
          "indexed": true,
          "internalType": "address",
          "name": "operator",
          "type": "address"
        },
        {
          "indexed": true,
          "internalType": "address",
          "name": "from",
          "type": "address"
        },
        {
          "indexed": true,
          "internalType": "address",
          "name": "to",
          "type": "address"
        },
        {
          "indexed": false,
          "internalType": "uint256[]",
          "name": "ids",
          "type": "uint256[]"
        },
        {
          "indexed": false,
          "internalType": "uint256[]",
          "name": "values",
          "type": "uint256[]"
        }
      ],
      "name": "TransferBatch",
      "type": "event"
    },
    {
      "anonymous": false,
      "inputs": [
        {
          "indexed": true,
          "internalType": "address",
          "name": "operator",
          "type": "address"
        },
        {
          "indexed": true,
          "internalType": "address",
          "name": "from",
          "type": "address"
        },
        {
          "indexed": true,
          "internalType": "address",
          "name": "to",
          "type": "address"
        },
        {
          "indexed": false,
          "internalType": "uint256",
          "name": "id",
          "type": "uint256"
        },
        {
          "indexed": false,
          "internalType": "uint256",
          "name": "value",
          "type": "uint256"
        }
      ],
      "name": "TransferSingle",
      "type": "event"
    },
    {
      "anonymous": false,
      "inputs": [
        {
          "indexed": false,
          "internalType": "string",
          "name": "value",
          "type": "string"
        },
        {
          "indexed": true,
          "internalType": "uint256",
          "name": "id",
          "type": "uint256"
        }
      ],
      "name": "URI",
      "type": "event"
    },
    {
      "anonymous": false,
      "inputs": [
        {
          "indexed": false,
          "internalType": "address",
          "name": "account",
          "type": "address"
        }
      ],
      "name": "Unpaused",
      "type": "event"
    },
    {
      "inputs": [],
      "name": "DEFAULT_ADMIN_ROLE",
      "outputs": [
        {
          "internalType": "bytes32",
          "name": "",
          "type": "bytes32"
        }
      ],
      "stateMutability": "view",
      "type": "function"
    },
    {
      "inputs": [],
      "name": "MINTER_ROLE",
      "outputs": [
        {
          "internalType": "bytes32",
          "name": "",
          "type": "bytes32"
        }
      ],
      "stateMutability": "view",
      "type": "function"
    },
    {
      "inputs": [],
      "name": "PAUSER_ROLE",
      "outputs": [
        {
          "internalType": "bytes32",
          "name": "",
          "type": "bytes32"
        }
      ],
      "stateMutability": "view",
      "type": "function"
    },
    {
      "inputs": [],
      "name": "_contractURI",
      "outputs": [
        {
          "internalType": "string",
          "name": "",
          "type": "string"
        }
      ],
      "stateMutability": "view",
      "type": "function"
    },
    {
      "inputs": [
        {
          "internalType": "address",
          "name": "account",
          "type": "address"
        },
        {
          "internalType": "uint256",
          "name": "id",
          "type": "uint256"
        }
      ],
      "name": "balanceOf",
      "outputs": [
        {
          "internalType": "uint256",
          "name": "",
          "type": "uint256"
        }
      ],
      "stateMutability": "view",
      "type": "function"
    },
    {
      "inputs": [
        {
          "internalType": "address[]",
          "name": "accounts",
          "type": "address[]"
        },
        {
          "internalType": "uint256[]",
          "name": "ids",
          "type": "uint256[]"
        }
      ],
      "name": "balanceOfBatch",
      "outputs": [
        {
          "internalType": "uint256[]",
          "name": "",
          "type": "uint256[]"
        }
      ],
      "stateMutability": "view",
      "type": "function"
    },
    {
      "inputs": [
        {
          "internalType": "address",
          "name": "account",
          "type": "address"
        },
        {
          "internalType": "uint256",
          "name": "id",
          "type": "uint256"
        },
        {
          "internalType": "uint256",
          "name": "value",
          "type": "uint256"
        }
      ],
      "name": "burn",
      "outputs": [],
      "stateMutability": "nonpayable",
      "type": "function"
    },
    {
      "inputs": [
        {
          "internalType": "address",
          "name": "account",
          "type": "address"
        },
        {
          "internalType": "uint256[]",
          "name": "ids",
          "type": "uint256[]"
        },
        {
          "internalType": "uint256[]",
          "name": "values",
          "type": "uint256[]"
        }
      ],
      "name": "burnBatch",
      "outputs": [],
      "stateMutability": "nonpayable",
      "type": "function"
    },
    {
      "inputs": [],
      "name": "contractURI",
      "outputs": [
        {
          "internalType": "string",
          "name": "",
          "type": "string"
        }
      ],
      "stateMutability": "view",
      "type": "function"
    },
    {
      "inputs": [
        {
          "internalType": "string[]",
          "name": "_nftURIs",
          "type": "string[]"
        },
        {
          "internalType": "uint256[]",
          "name": "_nftSupplies",
          "type": "uint256[]"
        }
      ],
      "name": "createNativeNfts",
      "outputs": [
        {
          "internalType": "uint256[]",
          "name": "nftIds",
          "type": "uint256[]"
        }
      ],
      "stateMutability": "nonpayable",
      "type": "function"
    },
    {
      "inputs": [
        {
          "internalType": "address",
          "name": "_pack",
          "type": "address"
        },
        {
          "internalType": "string[]",
          "name": "_nftURIs",
          "type": "string[]"
        },
        {
          "internalType": "uint256[]",
          "name": "_nftSupplies",
          "type": "uint256[]"
        },
        {
          "internalType": "string",
          "name": "_packURI",
          "type": "string"
        },
        {
          "internalType": "uint256",
          "name": "_secondsUntilOpenStart",
          "type": "uint256"
        },
        {
          "internalType": "uint256",
          "name": "_secondsUntilOpenEnd",
          "type": "uint256"
        },
        {
          "internalType": "uint256",
          "name": "_nftsPerOpen",
          "type": "uint256"
        }
      ],
      "name": "createPackAtomic",
      "outputs": [],
      "stateMutability": "nonpayable",
      "type": "function"
    },
    {
      "inputs": [
        {
          "internalType": "uint256",
          "name": "_nftId",
          "type": "uint256"
        }
      ],
      "name": "creator",
      "outputs": [
        {
          "internalType": "address",
          "name": "",
          "type": "address"
        }
      ],
      "stateMutability": "view",
      "type": "function"
    },
    {
      "inputs": [
        {
          "internalType": "uint256",
          "name": "",
          "type": "uint256"
        }
      ],
      "name": "erc20WrappedNfts",
      "outputs": [
        {
          "internalType": "address",
          "name": "tokenContract",
          "type": "address"
        },
        {
          "internalType": "uint256",
          "name": "shares",
          "type": "uint256"
        },
        {
          "internalType": "uint256",
          "name": "underlyingTokenAmount",
          "type": "uint256"
        }
      ],
      "stateMutability": "view",
      "type": "function"
    },
    {
      "inputs": [
        {
          "internalType": "uint256",
          "name": "",
          "type": "uint256"
        }
      ],
      "name": "erc721WrappedNfts",
      "outputs": [
        {
          "internalType": "address",
          "name": "nftContract",
          "type": "address"
        },
        {
          "internalType": "uint256",
          "name": "nftTokenId",
          "type": "uint256"
        }
      ],
      "stateMutability": "view",
      "type": "function"
    },
    {
      "inputs": [
        {
          "internalType": "bytes32",
          "name": "role",
          "type": "bytes32"
        }
      ],
      "name": "getRoleAdmin",
      "outputs": [
        {
          "internalType": "bytes32",
          "name": "",
          "type": "bytes32"
        }
      ],
      "stateMutability": "view",
      "type": "function"
    },
    {
      "inputs": [
        {
          "internalType": "bytes32",
          "name": "role",
          "type": "bytes32"
        },
        {
          "internalType": "uint256",
          "name": "index",
          "type": "uint256"
        }
      ],
      "name": "getRoleMember",
      "outputs": [
        {
          "internalType": "address",
          "name": "",
          "type": "address"
        }
      ],
      "stateMutability": "view",
      "type": "function"
    },
    {
      "inputs": [
        {
          "internalType": "bytes32",
          "name": "role",
          "type": "bytes32"
        }
      ],
      "name": "getRoleMemberCount",
      "outputs": [
        {
          "internalType": "uint256",
          "name": "",
          "type": "uint256"
        }
      ],
      "stateMutability": "view",
      "type": "function"
    },
    {
      "inputs": [
        {
          "internalType": "bytes32",
          "name": "role",
          "type": "bytes32"
        },
        {
          "internalType": "address",
          "name": "account",
          "type": "address"
        }
      ],
      "name": "grantRole",
      "outputs": [],
      "stateMutability": "nonpayable",
      "type": "function"
    },
    {
      "inputs": [
        {
          "internalType": "bytes32",
          "name": "role",
          "type": "bytes32"
        },
        {
          "internalType": "address",
          "name": "account",
          "type": "address"
        }
      ],
      "name": "hasRole",
      "outputs": [
        {
          "internalType": "bool",
          "name": "",
          "type": "bool"
        }
      ],
      "stateMutability": "view",
      "type": "function"
    },
    {
      "inputs": [
        {
          "internalType": "address",
          "name": "account",
          "type": "address"
        },
        {
          "internalType": "address",
          "name": "operator",
          "type": "address"
        }
      ],
      "name": "isApprovedForAll",
      "outputs": [
        {
          "internalType": "bool",
          "name": "",
          "type": "bool"
        }
      ],
      "stateMutability": "view",
      "type": "function"
    },
    {
      "inputs": [
        {
          "internalType": "address",
          "name": "forwarder",
          "type": "address"
        }
      ],
      "name": "isTrustedForwarder",
      "outputs": [
        {
          "internalType": "bool",
          "name": "",
          "type": "bool"
        }
      ],
      "stateMutability": "view",
      "type": "function"
    },
    {
      "inputs": [
        {
          "internalType": "address",
          "name": "to",
          "type": "address"
        },
        {
          "internalType": "uint256",
          "name": "id",
          "type": "uint256"
        },
        {
          "internalType": "uint256",
          "name": "amount",
          "type": "uint256"
        },
        {
          "internalType": "bytes",
          "name": "data",
          "type": "bytes"
        }
      ],
      "name": "mint",
      "outputs": [],
      "stateMutability": "nonpayable",
      "type": "function"
    },
    {
      "inputs": [
        {
          "internalType": "address",
          "name": "to",
          "type": "address"
        },
        {
          "internalType": "uint256[]",
          "name": "ids",
          "type": "uint256[]"
        },
        {
          "internalType": "uint256[]",
          "name": "amounts",
          "type": "uint256[]"
        },
        {
          "internalType": "bytes",
          "name": "data",
          "type": "bytes"
        }
      ],
      "name": "mintBatch",
      "outputs": [],
      "stateMutability": "nonpayable",
      "type": "function"
    },
    {
      "inputs": [],
      "name": "nextTokenId",
      "outputs": [
        {
          "internalType": "uint256",
          "name": "",
          "type": "uint256"
        }
      ],
      "stateMutability": "view",
      "type": "function"
    },
    {
      "inputs": [
        {
          "internalType": "uint256",
          "name": "",
          "type": "uint256"
        }
      ],
      "name": "nftInfo",
      "outputs": [
        {
          "internalType": "address",
          "name": "creator",
          "type": "address"
        },
        {
          "internalType": "string",
          "name": "uri",
          "type": "string"
        },
        {
          "internalType": "uint256",
          "name": "supply",
          "type": "uint256"
        },
        {
          "internalType": "enum NFTCollection.UnderlyingType",
          "name": "underlyingType",
          "type": "uint8"
        }
      ],
      "stateMutability": "view",
      "type": "function"
    },
    {
      "inputs": [],
      "name": "pause",
      "outputs": [],
      "stateMutability": "nonpayable",
      "type": "function"
    },
    {
      "inputs": [],
      "name": "paused",
      "outputs": [
        {
          "internalType": "bool",
          "name": "",
          "type": "bool"
        }
      ],
      "stateMutability": "view",
      "type": "function"
    },
    {
      "inputs": [
        {
          "internalType": "uint256",
          "name": "_nftId",
          "type": "uint256"
        },
        {
          "internalType": "uint256",
          "name": "_amount",
          "type": "uint256"
        }
      ],
      "name": "redeemERC20",
      "outputs": [],
      "stateMutability": "nonpayable",
      "type": "function"
    },
    {
      "inputs": [
        {
          "internalType": "uint256",
          "name": "_nftId",
          "type": "uint256"
        }
      ],
      "name": "redeemERC721",
      "outputs": [],
      "stateMutability": "nonpayable",
      "type": "function"
    },
    {
      "inputs": [
        {
          "internalType": "bytes32",
          "name": "role",
          "type": "bytes32"
        },
        {
          "internalType": "address",
          "name": "account",
          "type": "address"
        }
      ],
      "name": "renounceRole",
      "outputs": [],
      "stateMutability": "nonpayable",
      "type": "function"
    },
    {
      "inputs": [
        {
          "internalType": "bytes32",
          "name": "role",
          "type": "bytes32"
        },
        {
          "internalType": "address",
          "name": "account",
          "type": "address"
        }
      ],
      "name": "revokeRole",
      "outputs": [],
      "stateMutability": "nonpayable",
      "type": "function"
    },
    {
      "inputs": [],
      "name": "royaltyBps",
      "outputs": [
        {
          "internalType": "uint256",
          "name": "",
          "type": "uint256"
        }
      ],
      "stateMutability": "view",
      "type": "function"
    },
    {
      "inputs": [
        {
          "internalType": "uint256",
          "name": "tokenId",
          "type": "uint256"
        },
        {
          "internalType": "uint256",
          "name": "salePrice",
          "type": "uint256"
        }
      ],
      "name": "royaltyInfo",
      "outputs": [
        {
          "internalType": "address",
          "name": "receiver",
          "type": "address"
        },
        {
          "internalType": "uint256",
          "name": "royaltyAmount",
          "type": "uint256"
        }
      ],
      "stateMutability": "view",
      "type": "function"
    },
    {
      "inputs": [
        {
          "internalType": "address",
          "name": "from",
          "type": "address"
        },
        {
          "internalType": "address",
          "name": "to",
          "type": "address"
        },
        {
          "internalType": "uint256[]",
          "name": "ids",
          "type": "uint256[]"
        },
        {
          "internalType": "uint256[]",
          "name": "amounts",
          "type": "uint256[]"
        },
        {
          "internalType": "bytes",
          "name": "data",
          "type": "bytes"
        }
      ],
      "name": "safeBatchTransferFrom",
      "outputs": [],
      "stateMutability": "nonpayable",
      "type": "function"
    },
    {
      "inputs": [
        {
          "internalType": "address",
          "name": "from",
          "type": "address"
        },
        {
          "internalType": "address",
          "name": "to",
          "type": "address"
        },
        {
          "internalType": "uint256",
          "name": "id",
          "type": "uint256"
        },
        {
          "internalType": "uint256",
          "name": "amount",
          "type": "uint256"
        },
        {
          "internalType": "bytes",
          "name": "data",
          "type": "bytes"
        }
      ],
      "name": "safeTransferFrom",
      "outputs": [],
      "stateMutability": "nonpayable",
      "type": "function"
    },
    {
      "inputs": [
        {
          "internalType": "address",
          "name": "operator",
          "type": "address"
        },
        {
          "internalType": "bool",
          "name": "approved",
          "type": "bool"
        }
      ],
      "name": "setApprovalForAll",
      "outputs": [],
      "stateMutability": "nonpayable",
      "type": "function"
    },
    {
      "inputs": [
        {
          "internalType": "string",
          "name": "_URI",
          "type": "string"
        }
      ],
      "name": "setContractURI",
      "outputs": [],
      "stateMutability": "nonpayable",
      "type": "function"
    },
    {
      "inputs": [
        {
          "internalType": "uint256",
          "name": "_royaltyBps",
          "type": "uint256"
        }
      ],
      "name": "setRoyaltyBps",
      "outputs": [],
      "stateMutability": "nonpayable",
      "type": "function"
    },
    {
      "inputs": [
        {
          "internalType": "bytes4",
          "name": "interfaceId",
          "type": "bytes4"
        }
      ],
      "name": "supportsInterface",
      "outputs": [
        {
          "internalType": "bool",
          "name": "",
          "type": "bool"
        }
      ],
      "stateMutability": "view",
      "type": "function"
    },
    {
      "inputs": [
        {
          "internalType": "uint256",
          "name": "_nftId",
          "type": "uint256"
        }
      ],
      "name": "tokenURI",
      "outputs": [
        {
          "internalType": "string",
          "name": "",
          "type": "string"
        }
      ],
      "stateMutability": "view",
      "type": "function"
    },
    {
      "inputs": [],
      "name": "unpause",
      "outputs": [],
      "stateMutability": "nonpayable",
      "type": "function"
    },
    {
      "inputs": [
        {
          "internalType": "uint256",
          "name": "_nftId",
          "type": "uint256"
        }
      ],
      "name": "uri",
      "outputs": [
        {
          "internalType": "string",
          "name": "",
          "type": "string"
        }
      ],
      "stateMutability": "view",
      "type": "function"
    },
    {
      "inputs": [
        {
          "internalType": "address",
          "name": "_tokenContract",
          "type": "address"
        },
        {
          "internalType": "uint256",
          "name": "_tokenAmount",
          "type": "uint256"
        },
        {
          "internalType": "uint256",
          "name": "_numOfNftsToMint",
          "type": "uint256"
        },
        {
          "internalType": "string",
          "name": "_nftURI",
          "type": "string"
        }
      ],
      "name": "wrapERC20",
      "outputs": [],
      "stateMutability": "nonpayable",
      "type": "function"
    },
    {
      "inputs": [
        {
          "internalType": "address",
          "name": "_nftContract",
          "type": "address"
        },
        {
          "internalType": "uint256",
          "name": "_tokenId",
          "type": "uint256"
        },
        {
          "internalType": "string",
          "name": "_nftURI",
          "type": "string"
        }
      ],
      "name": "wrapERC721",
      "outputs": [],
      "stateMutability": "nonpayable",
      "type": "function"
    }
  ],
  "bytecode": "0x60806040523480156200001157600080fd5b506040516200587a3803806200587a8339810160408190526200003491620003db565b818180620000428162000119565b506005805460ff191690556200006360006200005d62000132565b6200014f565b620000927f9f2df0fed2c77648de5860a4cc508cd0818c85b8b8a1ab4ceeef8d981c8956a66200005d62000132565b620000c17f65d7a28e3265b37a6474929f336521b332c1681b933f6cb9f3376673440d862a6200005d62000132565b5060058054610100600160a81b0319166101006001600160a01b0393841602179055600680546001600160a01b03191691851691909117905580516200010f90600990602084019062000335565b5050505062000544565b80516200012e90600490602084019062000335565b5050565b6000620001496200019260201b620024731760201c565b90505b90565b620001668282620001d260201b620024a11760201c565b60008281526001602090815260409091206200018d918390620024af620001de821b17901c565b505050565b60006200019f33620001fe565b15620001b5575060131936013560601c6200014c565b620001ca6200021760201b620024c41760201c565b90506200014c565b6200012e82826200021b565b6000620001f5836001600160a01b038416620002a5565b90505b92915050565b60055461010090046001600160a01b0390811691161490565b3390565b620002278282620002f4565b6200012e576000828152602081815260408083206001600160a01b03851684529091529020805460ff191660011790556200026162000132565b6001600160a01b0316816001600160a01b0316837f2f8788117e7eff1d82e926ec794901d17c78024a50270940304540a733656f0d60405160405180910390a45050565b6000620002b383836200031d565b620002eb57508154600181810184556000848152602080822090930184905584548482528286019093526040902091909155620001f8565b506000620001f8565b6000918252602082815260408084206001600160a01b0393909316845291905290205460ff1690565b60009081526001919091016020526040902054151590565b8280546200034390620004d8565b90600052602060002090601f016020900481019282620003675760008555620003b2565b82601f106200038257805160ff1916838001178555620003b2565b82800160010185558215620003b2579182015b82811115620003b257825182559160200191906001019062000395565b50620003c0929150620003c4565b5090565b5b80821115620003c05760008155600101620003c5565b600080600060608486031215620003f0578283fd5b8351620003fd816200052b565b8093505060208085015162000412816200052b565b60408601519093506001600160401b03808211156200042f578384fd5b818701915087601f83011262000443578384fd5b81518181111562000458576200045862000515565b604051601f8201601f19168101850183811182821017156200047e576200047e62000515565b60405281815283820185018a101562000495578586fd5b8592505b81831015620004b8578383018501518184018601529184019162000499565b81831115620004c957858583830101525b80955050505050509250925092565b600281046001821680620004ed57607f821691505b602082108114156200050f57634e487b7160e01b600052602260045260246000fd5b50919050565b634e487b7160e01b600052604160045260246000fd5b6001600160a01b03811681146200054157600080fd5b50565b61532680620005546000396000f3fe608060405234801561001057600080fd5b50600436106102f35760003560e01c8063788f1f5e11610191578063c87b56dd116100e3578063ddfa3e2211610097578063e985e9c511610071578063e985e9c5146105fb578063f242432a1461060e578063f5298aca14610621576102f3565b8063ddfa3e22146105d8578063e63ab1e9146105eb578063e8a3d485146105f3576102f3565b8063d5391393116100c8578063d5391393146105aa578063d547741f146105b2578063db884b0c146105c5576102f3565b8063c87b56dd14610356578063ca15c87314610597576102f3565b8063938e3d7b11610145578063a22cb4651161011f578063a22cb46514610574578063c0e7274014610587578063c63adb2b1461058f576102f3565b8063938e3d7b1461054657806393b778d414610559578063a217fddf1461056c576102f3565b80638456cb59116101765780638456cb59146105185780639010d07c1461052057806391d1485414610533576102f3565b8063788f1f5e146104f25780637a61080b14610505576102f3565b80632f2ff15d1161024a578063510b5158116101fe5780636b20c454116101d85780636b20c454146104c4578063731133e9146104d757806375794a3c146104ea576102f3565b8063510b515814610489578063572b6c05146104a95780635c975abb146104bc576102f3565b80633f4ba83a1161022f5780633f4ba83a1461044e57806341466a95146104565780634e1273f414610476576102f3565b80632f2ff15d1461042857806336568abe1461043b576102f3565b80631f72d831116102ac578063248a9ca311610286578063248a9ca3146103e15780632a55205a146103f45780632eb2c2d614610415576102f3565b80631f72d831146103985780631f7fdffa146103ab5780631f8bc790146103be576102f3565b8063090a3282116102dd578063090a3282146103415780630e89341c146103565780631ceb2dc214610376576102f3565b8062fdd58e146102f857806301ffc9a714610321575b600080fd5b61030b610306366004613d46565b610634565b60405161031891906144ff565b60405180910390f35b61033461032f36600461406a565b610690565b60405161031891906144f4565b61035461034f366004613d71565b6106bb565b005b610369610364366004613ff5565b610b7b565b6040516103189190614550565b610389610384366004613ff5565b610c20565b604051610318939291906143d3565b6103546103a6366004613ff5565b610c4b565b6103546103b9366004613c82565b610e57565b6103d16103cc366004613ff5565b610eb1565b6040516103189493929190614363565b61030b6103ef366004613ff5565b610f70565b610407610402366004614049565b610f85565b6040516103189291906143ba565b610354610423366004613a3b565b611046565b610354610436366004614025565b6110a4565b610354610449366004614025565b6110cb565b6103546110ed565b610469610464366004613f7c565b61113f565b60405161031891906143f4565b610469610484366004613ebc565b6114c9565b61049c610497366004613ff5565b6115e9565b6040516103189190614270565b6103346104b73660046139cb565b611604565b61033461161d565b6103546104d2366004613c0f565b611627565b6103546104e5366004613dff565b61167c565b61030b6116d0565b610354610500366004613b4c565b6116d6565b610354610513366004614049565b61180b565b610354611996565b61049c61052e366004614049565b6119e6565b610334610541366004614025565b611a05565b6103546105543660046140a2565b611a2e565b610354610567366004613ff5565b611b50565b61030b611c9d565b610354610582366004613d19565b611ca2565b610369611d70565b61030b611dfe565b61030b6105a5366004613ff5565b611e04565b61030b611e1b565b6103546105c0366004614025565b611e3f565b6103546105d3366004613e54565b611e49565b6104076105e6366004613ff5565b6122be565b61030b6122e3565b610369612307565b610334610609366004613a03565b612399565b61035461061c366004613ae5565b6123c7565b61035461062f366004613dcb565b61241e565b60006001600160a01b0383166106655760405162461bcd60e51b815260040161065c90614689565b60405180910390fd5b5060008181526002602090815260408083206001600160a01b03861684529091529020545b92915050565b600061069b826124c8565b8061068a57506001600160e01b0319821663152a902d60e11b1492915050565b600660009054906101000a90046001600160a01b03166001600160a01b0316639d2f83f06040518163ffffffff1660e01b815260040160206040518083038186803b15801561070957600080fd5b505afa15801561071d573d6000803e3d6000fd5b505050506040513d601f19601f820116820180604052508101906107419190613fd9565b1561075e5760405162461bcd60e51b815260040161065c906149c4565b6107666124d3565b6001600160a01b0316846001600160a01b0316636352211e856040518263ffffffff1660e01b815260040161079b91906144ff565b60206040518083038186803b1580156107b357600080fd5b505afa1580156107c7573d6000803e3d6000fd5b505050506040513d601f19601f820116820180604052508101906107eb91906139e7565b6001600160a01b0316146108115760405162461bcd60e51b815260040161065c90614f7a565b60405163020604bf60e21b815230906001600160a01b0386169063081812fc9061083f9087906004016144ff565b60206040518083038186803b15801561085757600080fd5b505afa15801561086b573d6000803e3d6000fd5b505050506040513d601f19601f8201168201806040525081019061088f91906139e7565b6001600160a01b031614806109245750836001600160a01b031663e985e9c56108b66124d3565b306040518363ffffffff1660e01b81526004016108d4929190614284565b60206040518083038186803b1580156108ec57600080fd5b505afa158015610900573d6000803e3d6000fd5b505050506040513d601f19601f820116820180604052508101906109249190613fd9565b6109405760405162461bcd60e51b815260040161065c90614819565b836001600160a01b03166342842e0e6109576124d3565b30866040518463ffffffff1660e01b8152600401610977939291906142fc565b600060405180830381600087803b15801561099157600080fd5b505af11580156109a5573d6000803e3d6000fd5b505050506109ce6109b46124d3565b60075460016040518060200160405280600081525061167c565b60405180608001604052806109e16124d3565b6001600160a01b0316815260200183838080601f016020809104026020016040519081016040528093929190818152602001838380828437600092018290525093855250506001602080850182905260026040958601526007548452600a815293909220845181546001600160a01b0319166001600160a01b039091161781558484015180519194610a789486019350019061375e565b506040820151816002015560608201518160030160006101000a81548160ff02191690836002811115610abb57634e487b7160e01b600052602160045260246000fd5b0217905550506040805180820182526001600160a01b0387811680835260208084018981526007546000908152600b909252949020925183546001600160a01b031916921691909117825591516001909101559050610b186124d3565b6001600160a01b03167fdae1779be741094a20f8287fd2c7a4d2d745eeae29c438867017066ae27a1bc4856007548686604051610b589493929190615042565b60405180910390a360078054906000610b70836151eb565b919050555050505050565b6000818152600a60205260409020600101805460609190610b9b906151b0565b80601f0160208091040260200160405190810160405280929190818152602001828054610bc7906151b0565b8015610c145780601f10610be957610100808354040283529160200191610c14565b820191906000526020600020905b815481529060010190602001808311610bf757829003601f168201915b50505050509050919050565b600c602052600090815260409020805460018201546002909201546001600160a01b03909116919083565b60065460408051634a32c6bf60e11b815290516001600160a01b03909216916391d148549183916394658d7e91600480820192602092909190829003018186803b158015610c9857600080fd5b505afa158015610cac573d6000803e3d6000fd5b505050506040513d601f19601f82011682018060405250810190610cd0919061400d565b610cd86124d3565b6040518363ffffffff1660e01b8152600401610cf5929190614508565b60206040518083038186803b158015610d0d57600080fd5b505afa158015610d21573d6000803e3d6000fd5b505050506040513d601f19601f82011682018060405250810190610d459190613fd9565b610d615760405162461bcd60e51b815260040161065c90614bb2565b600660009054906101000a90046001600160a01b03166001600160a01b031663fd967f476040518163ffffffff1660e01b815260040160206040518083038186803b158015610daf57600080fd5b505afa158015610dc3573d6000803e3d6000fd5b505050506040513d601f19601f82011682018060405250810190610de791906140e2565b6fffffffffffffffffffffffffffffffff168110610e175760405162461bcd60e51b815260040161065c90614c0f565b60088190556040517f244ea8d7627f5a08f4299862bd5a45752842c183aee5b0fb0d1e4887bfa605b390610e4c9083906144ff565b60405180910390a150565b610e837f9f2df0fed2c77648de5860a4cc508cd0818c85b8b8a1ab4ceeef8d981c8956a66105416124d3565b610e9f5760405162461bcd60e51b815260040161065c90614a3e565b610eab848484846124e2565b50505050565b600a60205260009081526040902080546001820180546001600160a01b039092169291610edd906151b0565b80601f0160208091040260200160405190810160405280929190818152602001828054610f09906151b0565b8015610f565780601f10610f2b57610100808354040283529160200191610f56565b820191906000526020600020905b815481529060010190602001808311610f3957829003601f168201915b50505050600283015460039093015491929160ff16905084565b60009081526020819052604090206001015490565b6000828152600a6020908152604080832054600654825163fd967f4760e01b815292516001600160a01b039283169594919092169263fd967f479260048083019392829003018186803b158015610fdb57600080fd5b505afa158015610fef573d6000803e3d6000fd5b505050506040513d601f19601f8201168201806040525081019061101391906140e2565b6fffffffffffffffffffffffffffffffff16600854846110339190615137565b61103d9190615117565b90509250929050565b61104e6124d3565b6001600160a01b0316856001600160a01b031614806110745750611074856106096124d3565b6110905760405162461bcd60e51b815260040161065c90614967565b61109d8585858585612664565b5050505050565b6110ae8282612838565b60008281526001602052604090206110c690826124af565b505050565b6110d5828261285c565b60008281526001602052604090206110c6908261289e565b6111197f65d7a28e3265b37a6474929f336521b332c1681b933f6cb9f3376673440d862a6105416124d3565b6111355760405162461bcd60e51b815260040161065c90614cae565b61113d6128b3565b565b600654604080516309d2f83f60e41b815290516060926001600160a01b031691639d2f83f0916004808301926020929190829003018186803b15801561118457600080fd5b505afa158015611198573d6000803e3d6000fd5b505050506040513d601f19601f820116820180604052508101906111bc9190613fd9565b156111d95760405162461bcd60e51b815260040161065c906149c4565b8382146111f85760405162461bcd60e51b815260040161065c90614d0b565b836112155760405162461bcd60e51b815260040161065c90614c6c565b8367ffffffffffffffff81111561123c57634e487b7160e01b600052604160045260246000fd5b604051908082528060200260200182016040528015611265578160200160208202803683370190505b50905060005b8481101561141d5760075482828151811061129657634e487b7160e01b600052603260045260246000fd5b60200260200101818152505060405180608001604052806112b56124d3565b6001600160a01b031681526020018787848181106112e357634e487b7160e01b600052603260045260246000fd5b90506020028101906112f5919061506c565b8080601f01602080910402602001604051908101604052809392919081815260200183838082843760009201919091525050509082525060200185858481811061134f57634e487b7160e01b600052603260045260246000fd5b6020908102929092013583525001600090526007546000908152600a60209081526040909120825181546001600160a01b0319166001600160a01b0390911617815582820151805191926113ab9260018501929091019061375e565b506040820151816002015560608201518160030160006101000a81548160ff021916908360028111156113ee57634e487b7160e01b600052602160045260246000fd5b0217905550506007805491506000611405836151eb565b91905055508080611415906151eb565b91505061126b565b506114716114296124d3565b82858580806020026020016040519081016040528093929190818152602001838360200280828437600092018290525060408051602081019091529081529250610e57915050565b6114796124d3565b6001600160a01b03167f9ead818be0b43d79a78daaabe6c787d254ac1279ac99d9ff62b6b227804f7b3382878787876040516114b9959493929190614407565b60405180910390a2949350505050565b606081518351146114ec5760405162461bcd60e51b815260040161065c90614e22565b6000835167ffffffffffffffff81111561151657634e487b7160e01b600052604160045260246000fd5b60405190808252806020026020018201604052801561153f578160200160208202803683370190505b50905060005b84518110156115e1576115a685828151811061157157634e487b7160e01b600052603260045260246000fd5b602002602001015185838151811061159957634e487b7160e01b600052603260045260246000fd5b6020026020010151610634565b8282815181106115c657634e487b7160e01b600052603260045260246000fd5b60209081029190910101526115da816151eb565b9050611545565b509392505050565b6000908152600a60205260409020546001600160a01b031690565b60055461010090046001600160a01b0390811691161490565b60055460ff165b90565b61162f6124d3565b6001600160a01b0316836001600160a01b031614806116555750611655836106096124d3565b6116715760405162461bcd60e51b815260040161065c906147bc565b6110c6838383612921565b6116a87f9f2df0fed2c77648de5860a4cc508cd0818c85b8b8a1ab4ceeef8d981c8956a66105416124d3565b6116c45760405162461bcd60e51b815260040161065c90614a3e565b610eab84848484612ad5565b60075481565b600660009054906101000a90046001600160a01b03166001600160a01b0316639d2f83f06040518163ffffffff1660e01b815260040160206040518083038186803b15801561172457600080fd5b505afa158015611738573d6000803e3d6000fd5b505050506040513d601f19601f8201168201806040525081019061175c9190613fd9565b156117795760405162461bcd60e51b815260040161065c906149c4565b60006117878a8a8a8a61113f565b9050600086868686866040516020016117a495949392919061451f565b60405160208183030381529060405290506117fd6117c06124d3565b8d848c8c80806020026020016040519081016040528093929190818152602001838360200280828437600092019190915250889250611046915050565b505050505050505050505050565b8061181d6118176124d3565b84610634565b101561183b5760405162461bcd60e51b815260040161065c90614b55565b61184d6118466124d3565b8383612bc6565b6000828152600c602052604081206001810154600290910154611871908490615137565b61187b9190615117565b6000848152600c60205260409020549091506001600160a01b031663a9059cbb6118a36124d3565b836040518363ffffffff1660e01b81526004016118c19291906143ba565b602060405180830381600087803b1580156118db57600080fd5b505af11580156118ef573d6000803e3d6000fd5b505050506040513d601f19601f820116820180604052508101906119139190613fd9565b61192f5760405162461bcd60e51b815260040161065c90614876565b6000838152600c60205260409020546001600160a01b031661194f6124d3565b6001600160a01b03167fb7ca9e3aa58248cbaa6a5f83ca826cc57bf8ecd128fd88da420e294353c652f98385604051611989929190615034565b60405180910390a3505050565b6119c27f65d7a28e3265b37a6474929f336521b332c1681b933f6cb9f3376673440d862a6105416124d3565b6119de5760405162461bcd60e51b815260040161065c90614d68565b61113d612cd9565b60008281526001602052604081206119fe9083612d34565b9392505050565b6000918252602082815260408084206001600160a01b0393909316845291905290205460ff1690565b60065460408051634a32c6bf60e11b815290516001600160a01b03909216916391d148549183916394658d7e91600480820192602092909190829003018186803b158015611a7b57600080fd5b505afa158015611a8f573d6000803e3d6000fd5b505050506040513d601f19601f82011682018060405250810190611ab3919061400d565b611abb6124d3565b6040518363ffffffff1660e01b8152600401611ad8929190614508565b60206040518083038186803b158015611af057600080fd5b505afa158015611b04573d6000803e3d6000fd5b505050506040513d601f19601f82011682018060405250810190611b289190613fd9565b611b445760405162461bcd60e51b815260040161065c90614bb2565b6110c6600983836137e2565b6000611b63611b5d6124d3565b83610634565b11611b805760405162461bcd60e51b815260040161065c90614b55565b611b93611b8b6124d3565b826001612bc6565b6000818152600b60205260409020546001600160a01b03166342842e0e30611bb96124d3565b6000858152600b6020526040908190206001015490516001600160e01b031960e086901b168152611bef939291906004016142fc565b600060405180830381600087803b158015611c0957600080fd5b505af1158015611c1d573d6000803e3d6000fd5b5050506000828152600b60205260409020546001600160a01b03169050611c426124d3565b6001600160a01b03167fea7b88a04220a2292e142652e8e1a59cc00e7d27d8ad6b11da6cf5870e6ba866600b60008581526020019081526020016000206001015484604051611c92929190615034565b60405180910390a350565b600081565b816001600160a01b0316611cb46124d3565b6001600160a01b03161415611cdb5760405162461bcd60e51b815260040161065c90614dc5565b8060036000611ce86124d3565b6001600160a01b03908116825260208083019390935260409182016000908120918716808252919093529120805460ff191692151592909217909155611d2c6124d3565b6001600160a01b03167f17307eab39ab6107e8899845ad3d59bd9653f200f220920489ca2b5937696c3183604051611d6491906144f4565b60405180910390a35050565b60098054611d7d906151b0565b80601f0160208091040260200160405190810160405280929190818152602001828054611da9906151b0565b8015611df65780601f10611dcb57610100808354040283529160200191611df6565b820191906000526020600020905b815481529060010190602001808311611dd957829003601f168201915b505050505081565b60085481565b600081815260016020526040812061068a90612d40565b7f9f2df0fed2c77648de5860a4cc508cd0818c85b8b8a1ab4ceeef8d981c8956a681565b6110d58282612d4b565b600660009054906101000a90046001600160a01b03166001600160a01b0316639d2f83f06040518163ffffffff1660e01b815260040160206040518083038186803b158015611e9757600080fd5b505afa158015611eab573d6000803e3d6000fd5b505050506040513d601f19601f82011682018060405250810190611ecf9190613fd9565b15611eec5760405162461bcd60e51b815260040161065c906149c4565b83856001600160a01b03166370a08231611f046124d3565b6040518263ffffffff1660e01b8152600401611f209190614270565b60206040518083038186803b158015611f3857600080fd5b505afa158015611f4c573d6000803e3d6000fd5b505050506040513d601f19601f82011682018060405250810190611f70919061400d565b1015611f8e5760405162461bcd60e51b815260040161065c90614e7f565b83856001600160a01b031663dd62ed3e611fa66124d3565b306040518363ffffffff1660e01b8152600401611fc4929190614284565b60206040518083038186803b158015611fdc57600080fd5b505afa158015611ff0573d6000803e3d6000fd5b505050506040513d601f19601f82011682018060405250810190612014919061400d565b10156120325760405162461bcd60e51b815260040161065c90614af8565b846001600160a01b03166323b872dd6120496124d3565b30876040518463ffffffff1660e01b8152600401612069939291906142fc565b602060405180830381600087803b15801561208357600080fd5b505af1158015612097573d6000803e3d6000fd5b505050506040513d601f19601f820116820180604052508101906120bb9190613fd9565b6120d75760405162461bcd60e51b815260040161065c906146e6565b6120fb6120e26124d3565b600754856040518060200160405280600081525061167c565b604051806080016040528061210e6124d3565b6001600160a01b0316815260200183838080601f01602080910402602001604051908101604052809392919081815260200183838082843760009201919091525050509082525060208101859052604001600190526007546000908152600a60209081526040909120825181546001600160a01b0319166001600160a01b0390911617815582820151805191926121ad9260018501929091019061375e565b506040820151816002015560608201518160030160006101000a81548160ff021916908360028111156121f057634e487b7160e01b600052602160045260246000fd5b021790555050604080516060810182526001600160a01b0388811680835260208084018981528486018b81526007546000908152600c90935295909120935184546001600160a01b0319169316929092178355905160018301559151600290910155905061225c6124d3565b6001600160a01b03167fd8bffec4446d425694f73630f7822315baa62da5311e89f0d83335ef6a3917ba8686868660405161229a9493929190615042565b60405180910390a3600780549060006122b2836151eb565b91905055505050505050565b600b60205260009081526040902080546001909101546001600160a01b039091169082565b7f65d7a28e3265b37a6474929f336521b332c1681b933f6cb9f3376673440d862a81565b606060098054612316906151b0565b80601f0160208091040260200160405190810160405280929190818152602001828054612342906151b0565b801561238f5780601f106123645761010080835404028352916020019161238f565b820191906000526020600020905b81548152906001019060200180831161237257829003601f168201915b5050505050905090565b6001600160a01b03918216600090815260036020908152604080832093909416825291909152205460ff1690565b6123cf6124d3565b6001600160a01b0316856001600160a01b031614806123f557506123f5856106096124d3565b6124115760405162461bcd60e51b815260040161065c906147bc565b61109d8585858585612d6a565b6124266124d3565b6001600160a01b0316836001600160a01b0316148061244c575061244c836106096124d3565b6124685760405162461bcd60e51b815260040161065c906147bc565b6110c6838383612bc6565b600061247e33611604565b15612492575060131936013560601c611624565b61249a6124c4565b9050611624565b6124ab8282612ea2565b5050565b60006119fe836001600160a01b038416612f27565b3390565b600061068a82612f71565b60006124dd612473565b905090565b6001600160a01b0384166125085760405162461bcd60e51b815260040161065c90614f39565b81518351146125295760405162461bcd60e51b815260040161065c90614edc565b60006125336124d3565b905061254481600087878787612fb1565b60005b84518110156125fc5783818151811061257057634e487b7160e01b600052603260045260246000fd5b60200260200101516002600087848151811061259c57634e487b7160e01b600052603260045260246000fd5b602002602001015181526020019081526020016000206000886001600160a01b03166001600160a01b0316815260200190815260200160002060008282546125e491906150ff565b909155508190506125f4816151eb565b915050612547565b50846001600160a01b031660006001600160a01b0316826001600160a01b03167f4a39dc06d4c0dbc64b70af90fd698a233a518aa5d07e595d983b8c0526c8f7fb878760405161264d9291906144c6565b60405180910390a461109d81600087878787613065565b81518351146126855760405162461bcd60e51b815260040161065c90614edc565b6001600160a01b0384166126ab5760405162461bcd60e51b815260040161065c9061490a565b60006126b56124d3565b90506126c5818787878787612fb1565b60005b84518110156127ca5760008582815181106126f357634e487b7160e01b600052603260045260246000fd5b60200260200101519050600085838151811061271f57634e487b7160e01b600052603260045260246000fd5b60209081029190910181015160008481526002835260408082206001600160a01b038e1683529093529190912054909150818110156127705760405162461bcd60e51b815260040161065c90614a9b565b60008381526002602090815260408083206001600160a01b038e8116855292528083208585039055908b168252812080548492906127af9084906150ff565b92505081905550505050806127c3906151eb565b90506126c8565b50846001600160a01b0316866001600160a01b0316826001600160a01b03167f4a39dc06d4c0dbc64b70af90fd698a233a518aa5d07e595d983b8c0526c8f7fb878760405161281a9291906144c6565b60405180910390a4612830818787878787613065565b505050505050565b61284182610f70565b6128528161284d6124d3565b613173565b6110c68383612ea2565b6128646124d3565b6001600160a01b0316816001600160a01b0316146128945760405162461bcd60e51b815260040161065c90614fd7565b6124ab82826131d7565b60006119fe836001600160a01b03841661325a565b6128bb61161d565b6128d75760405162461bcd60e51b815260040161065c90614652565b6005805460ff191690557f5db9ee0a495bf2e6ff9c91a7834c1ba4fdd244a5e8aa4e537bd38aeae4b073aa61290a6124d3565b6040516129179190614270565b60405180910390a1565b6001600160a01b0383166129475760405162461bcd60e51b815260040161065c906149fb565b80518251146129685760405162461bcd60e51b815260040161065c90614edc565b60006129726124d3565b905061299281856000868660405180602001604052806000815250612fb1565b60005b8351811015612a765760008482815181106129c057634e487b7160e01b600052603260045260246000fd5b6020026020010151905060008483815181106129ec57634e487b7160e01b600052603260045260246000fd5b60209081029190910181015160008481526002835260408082206001600160a01b038c168352909352919091205490915081811015612a3d5760405162461bcd60e51b815260040161065c9061471b565b60009283526002602090815260408085206001600160a01b038b1686529091529092209103905580612a6e816151eb565b915050612995565b5060006001600160a01b0316846001600160a01b0316826001600160a01b03167f4a39dc06d4c0dbc64b70af90fd698a233a518aa5d07e595d983b8c0526c8f7fb8686604051612ac79291906144c6565b60405180910390a450505050565b6001600160a01b038416612afb5760405162461bcd60e51b815260040161065c90614f39565b6000612b056124d3565b9050612b2681600087612b1788613377565b612b2088613377565b87612fb1565b60008481526002602090815260408083206001600160a01b038916845290915281208054859290612b589084906150ff565b92505081905550846001600160a01b031660006001600160a01b0316826001600160a01b03167fc3d58168c5ae7397731d063d5bbf3d657854427343f4c083240f7aacaa2d0f628787604051612baf929190615034565b60405180910390a461109d816000878787876133d0565b6001600160a01b038316612bec5760405162461bcd60e51b815260040161065c906149fb565b6000612bf66124d3565b9050612c2681856000612c0887613377565b612c1187613377565b60405180602001604052806000815250612fb1565b60008381526002602090815260408083206001600160a01b038816845290915290205482811015612c695760405162461bcd60e51b815260040161065c9061471b565b60008481526002602090815260408083206001600160a01b03808a16808652919093528184208786039055905190918516907fc3d58168c5ae7397731d063d5bbf3d657854427343f4c083240f7aacaa2d0f6290612cca9089908990615034565b60405180910390a45050505050565b612ce161161d565b15612cfe5760405162461bcd60e51b815260040161065c906148d3565b6005805460ff191660011790557f62e78cea01bee320cd4e420270b5ea74000d11b0c9f74754ebdbfc544b05a25861290a6124d3565b60006119fe83836134a1565b600061068a826134d9565b612d5482610f70565b612d608161284d6124d3565b6110c683836131d7565b6001600160a01b038416612d905760405162461bcd60e51b815260040161065c9061490a565b6000612d9a6124d3565b9050612dab818787612b1788613377565b60008481526002602090815260408083206001600160a01b038a16845290915290205483811015612dee5760405162461bcd60e51b815260040161065c90614a9b565b60008581526002602090815260408083206001600160a01b038b8116855292528083208785039055908816825281208054869290612e2d9084906150ff565b92505081905550856001600160a01b0316876001600160a01b0316836001600160a01b03167fc3d58168c5ae7397731d063d5bbf3d657854427343f4c083240f7aacaa2d0f628888604051612e83929190615034565b60405180910390a4612e998288888888886133d0565b50505050505050565b612eac8282611a05565b6124ab576000828152602081815260408083206001600160a01b03851684529091529020805460ff19166001179055612ee36124d3565b6001600160a01b0316816001600160a01b0316837f2f8788117e7eff1d82e926ec794901d17c78024a50270940304540a733656f0d60405160405180910390a45050565b6000612f3383836134dd565b612f695750815460018181018455600084815260208082209093018490558454848252828601909352604090209190915561068a565b50600061068a565b60006001600160e01b03198216636cdb3d1360e11b1480612fa257506001600160e01b031982166303a24d0760e21b145b8061068a575061068a826134f5565b612fbf86868686868661351a565b6001600160a01b0384166128305760005b8351811015612e9957828181518110612ff957634e487b7160e01b600052603260045260246000fd5b6020026020010151600a600086848151811061302557634e487b7160e01b600052603260045260246000fd5b60200260200101518152602001908152602001600020600201600082825461304d9190615156565b9091555081905061305d816151eb565b915050612fd0565b613077846001600160a01b0316613528565b156128305760405163bc197c8160e01b81526001600160a01b0385169063bc197c81906130b0908990899088908890889060040161429e565b602060405180830381600087803b1580156130ca57600080fd5b505af19250505080156130fa575060408051601f3d908101601f191682019092526130f791810190614086565b60015b61314357613106615238565b80613111575061312b565b8060405162461bcd60e51b815260040161065c9190614550565b60405162461bcd60e51b815260040161065c90614563565b6001600160e01b0319811663bc197c8160e01b14612e995760405162461bcd60e51b815260040161065c906145f5565b61317d8282611a05565b6124ab57613195816001600160a01b0316601461352e565b6131a083602061352e565b6040516020016131b19291906141ef565b60408051601f198184030181529082905262461bcd60e51b825261065c91600401614550565b6131e18282611a05565b156124ab576000828152602081815260408083206001600160a01b03851684529091529020805460ff191690556132166124d3565b6001600160a01b0316816001600160a01b0316837ff6391f5c32d9c69d2a47ea670b442974b53935d1edc7fd64eb21e047a839171b60405160405180910390a45050565b6000818152600183016020526040812054801561336d57600061327e600183615156565b855490915060009061329290600190615156565b90508181146133135760008660000182815481106132c057634e487b7160e01b600052603260045260246000fd5b90600052602060002001549050808760000184815481106132f157634e487b7160e01b600052603260045260246000fd5b6000918252602080832090910192909255918252600188019052604090208390555b855486908061333257634e487b7160e01b600052603160045260246000fd5b60019003818190600052602060002001600090559055856001016000868152602001908152602001600020600090556001935050505061068a565b600091505061068a565b604080516001808252818301909252606091600091906020808301908036833701905050905082816000815181106133bf57634e487b7160e01b600052603260045260246000fd5b602090810291909101015292915050565b6133e2846001600160a01b0316613528565b156128305760405163f23a6e6160e01b81526001600160a01b0385169063f23a6e619061341b9089908990889088908890600401614320565b602060405180830381600087803b15801561343557600080fd5b505af1925050508015613465575060408051601f3d908101601f1916820190925261346291810190614086565b60015b61347157613106615238565b6001600160e01b0319811663f23a6e6160e01b14612e995760405162461bcd60e51b815260040161065c906145f5565b60008260000182815481106134c657634e487b7160e01b600052603260045260246000fd5b9060005260206000200154905092915050565b5490565b60009081526001919091016020526040902054151590565b60006001600160e01b03198216635a05180f60e01b148061068a575061068a826136ed565b612830868686868686613712565b3b151590565b6060600061353d836002615137565b6135489060026150ff565b67ffffffffffffffff81111561356e57634e487b7160e01b600052604160045260246000fd5b6040519080825280601f01601f191660200182016040528015613598576020820181803683370190505b509050600360fc1b816000815181106135c157634e487b7160e01b600052603260045260246000fd5b60200101906001600160f81b031916908160001a905350600f60fb1b816001815181106135fe57634e487b7160e01b600052603260045260246000fd5b60200101906001600160f81b031916908160001a9053506000613622846002615137565b61362d9060016150ff565b90505b60018111156136ce577f303132333435363738396162636465660000000000000000000000000000000085600f166010811061367c57634e487b7160e01b600052603260045260246000fd5b1a60f81b8282815181106136a057634e487b7160e01b600052603260045260246000fd5b60200101906001600160f81b031916908160001a90535060049490941c936136c781615199565b9050613630565b5083156119fe5760405162461bcd60e51b815260040161065c906145c0565b60006001600160e01b03198216637965db0b60e01b148061068a575061068a82613745565b613720868686868686612830565b61372861161d565b156128305760405162461bcd60e51b815260040161065c9061475f565b6001600160e01b031981166301ffc9a760e01b14919050565b82805461376a906151b0565b90600052602060002090601f01602090048101928261378c57600085556137d2565b82601f106137a557805160ff19168380011785556137d2565b828001600101855582156137d2579182015b828111156137d25782518255916020019190600101906137b7565b506137de929150613856565b5090565b8280546137ee906151b0565b90600052602060002090601f01602090048101928261381057600085556137d2565b82601f106138295782800160ff198235161785556137d2565b828001600101855582156137d2579182015b828111156137d257823582559160200191906001019061383b565b5b808211156137de5760008155600101613857565b60008083601f84011261387c578182fd5b50813567ffffffffffffffff811115613893578182fd5b60208301915083602080830285010111156138ad57600080fd5b9250929050565b600082601f8301126138c4578081fd5b813560206138d96138d4836150db565b6150b1565b82815281810190858301838502870184018810156138f5578586fd5b855b85811015613913578135845292840192908401906001016138f7565b5090979650505050505050565b600082601f830112613930578081fd5b813567ffffffffffffffff81111561394a5761394a61521c565b61395d601f8201601f19166020016150b1565b818152846020838601011115613971578283fd5b816020850160208301379081016020019190915292915050565b60008083601f84011261399c578182fd5b50813567ffffffffffffffff8111156139b3578182fd5b6020830191508360208285010111156138ad57600080fd5b6000602082840312156139dc578081fd5b81356119fe816152dd565b6000602082840312156139f8578081fd5b81516119fe816152dd565b60008060408385031215613a15578081fd5b8235613a20816152dd565b91506020830135613a30816152dd565b809150509250929050565b600080600080600060a08688031215613a52578081fd5b8535613a5d816152dd565b94506020860135613a6d816152dd565b9350604086013567ffffffffffffffff80821115613a89578283fd5b613a9589838a016138b4565b94506060880135915080821115613aaa578283fd5b613ab689838a016138b4565b93506080880135915080821115613acb578283fd5b50613ad888828901613920565b9150509295509295909350565b600080600080600060a08688031215613afc578081fd5b8535613b07816152dd565b94506020860135613b17816152dd565b93506040860135925060608601359150608086013567ffffffffffffffff811115613b40578182fd5b613ad888828901613920565b60008060008060008060008060008060e08b8d031215613b6a578788fd5b8a35613b75816152dd565b995060208b013567ffffffffffffffff80821115613b9157898afd5b613b9d8e838f0161386b565b909b50995060408d0135915080821115613bb5578687fd5b613bc18e838f0161386b565b909950975060608d0135915080821115613bd9578687fd5b50613be68d828e0161398b565b9b9e9a9d50989b979a9699969760808101359760a0820135975060c09091013595509350505050565b600080600060608486031215613c23578081fd5b8335613c2e816152dd565b9250602084013567ffffffffffffffff80821115613c4a578283fd5b613c56878388016138b4565b93506040860135915080821115613c6b578283fd5b50613c78868287016138b4565b9150509250925092565b60008060008060808587031215613c97578182fd5b8435613ca2816152dd565b9350602085013567ffffffffffffffff80821115613cbe578384fd5b613cca888389016138b4565b94506040870135915080821115613cdf578384fd5b613ceb888389016138b4565b93506060870135915080821115613d00578283fd5b50613d0d87828801613920565b91505092959194509250565b60008060408385031215613d2b578182fd5b8235613d36816152dd565b91506020830135613a30816152f5565b60008060408385031215613d58578182fd5b8235613d63816152dd565b946020939093013593505050565b60008060008060608587031215613d86578182fd5b8435613d91816152dd565b935060208501359250604085013567ffffffffffffffff811115613db3578283fd5b613dbf8782880161398b565b95989497509550505050565b600080600060608486031215613ddf578081fd5b8335613dea816152dd565b95602085013595506040909401359392505050565b60008060008060808587031215613e14578182fd5b8435613e1f816152dd565b93506020850135925060408501359150606085013567ffffffffffffffff811115613e48578182fd5b613d0d87828801613920565b600080600080600060808688031215613e6b578283fd5b8535613e76816152dd565b94506020860135935060408601359250606086013567ffffffffffffffff811115613e9f578182fd5b613eab8882890161398b565b969995985093965092949392505050565b60008060408385031215613ece578182fd5b823567ffffffffffffffff80821115613ee5578384fd5b818501915085601f830112613ef8578384fd5b81356020613f086138d4836150db565b82815281810190858301838502870184018b1015613f24578889fd5b8896505b84871015613f4f578035613f3b816152dd565b835260019690960195918301918301613f28565b5096505086013592505080821115613f65578283fd5b50613f72858286016138b4565b9150509250929050565b60008060008060408587031215613f91578182fd5b843567ffffffffffffffff80821115613fa8578384fd5b613fb48883890161386b565b90965094506020870135915080821115613fcc578384fd5b50613dbf8782880161386b565b600060208284031215613fea578081fd5b81516119fe816152f5565b600060208284031215614006578081fd5b5035919050565b60006020828403121561401e578081fd5b5051919050565b60008060408385031215614037578182fd5b823591506020830135613a30816152dd565b6000806040838503121561405b578182fd5b50508035926020909101359150565b60006020828403121561407b578081fd5b81356119fe81615303565b600060208284031215614097578081fd5b81516119fe81615303565b600080602083850312156140b4578182fd5b823567ffffffffffffffff8111156140ca578283fd5b6140d68582860161398b565b90969095509350505050565b6000602082840312156140f3578081fd5b81516fffffffffffffffffffffffffffffffff811681146119fe578182fd5b60008284527f07ffffffffffffffffffffffffffffffffffffffffffffffffffffffffffffff831115614143578081fd5b6020830280836020870137939093016020019283525090919050565b6000815180845260208085019450808401835b8381101561418e57815187529582019590820190600101614172565b509495945050505050565b600081518084526141b181602086016020860161516d565b601f01601f19169290920160200192915050565b60008284528282602086013780602084860101526020601f19601f85011685010190509392505050565b60007f416363657373436f6e74726f6c3a206163636f756e74200000000000000000008252835161422781601785016020880161516d565b7f206973206d697373696e6720726f6c6520000000000000000000000000000000601791840191820152835161426481602884016020880161516d565b01602801949350505050565b6001600160a01b0391909116815260200190565b6001600160a01b0392831681529116602082015260400190565b60006001600160a01b03808816835280871660208401525060a060408301526142ca60a083018661415f565b82810360608401526142dc818661415f565b905082810360808401526142f08185614199565b98975050505050505050565b6001600160a01b039384168152919092166020820152604081019190915260600190565b60006001600160a01b03808816835280871660208401525084604083015283606083015260a0608083015261435860a0830184614199565b979650505050505050565b60006001600160a01b0386168252608060208301526143856080830186614199565b9050836040830152600383106143ab57634e487b7160e01b600052602160045260246000fd5b82606083015295945050505050565b6001600160a01b03929092168252602082015260400190565b6001600160a01b039390931683526020830191909152604082015260600190565b6000602082526119fe602083018461415f565b60006060825261441a606083018861415f565b6020838203818501528187835281830190508182890284010189855b8a8110156144a257858303601f190184528135368d9003601e1901811261445b578788fd5b8c01803567ffffffffffffffff811115614473578889fd5b8036038e1315614481578889fd5b61448e85828985016141c5565b958701959450505090840190600101614436565b505085810360408701526144b781888a614112565b9b9a5050505050505050505050565b6000604082526144d9604083018561415f565b82810360208401526144eb818561415f565b95945050505050565b901515815260200190565b90815260200190565b9182526001600160a01b0316602082015260400190565b6000608082526145336080830187896141c5565b602083019590955250604081019290925260609091015292915050565b6000602082526119fe6020830184614199565b60208082526034908201527f455243313135353a207472616e7366657220746f206e6f6e204552433131353560408201527f526563656976657220696d706c656d656e746572000000000000000000000000606082015260800190565b6020808252818101527f537472696e67733a20686578206c656e67746820696e73756666696369656e74604082015260600190565b60208082526028908201527f455243313135353a204552433131353552656365697665722072656a6563746560408201527f6420746f6b656e73000000000000000000000000000000000000000000000000606082015260800190565b60208082526014908201527f5061757361626c653a206e6f7420706175736564000000000000000000000000604082015260600190565b6020808252602b908201527f455243313135353a2062616c616e636520717565727920666f7220746865207a60408201527f65726f2061646472657373000000000000000000000000000000000000000000606082015260800190565b6020808252818101527f4661696c656420746f207472616e7366657220455243323020746f6b656e732e604082015260600190565b60208082526024908201527f455243313135353a206275726e20616d6f756e7420657863656564732062616c604082015263616e636560e01b606082015260800190565b6020808252602c908201527f455243313135355061757361626c653a20746f6b656e207472616e736665722060408201527f7768696c65207061757365640000000000000000000000000000000000000000606082015260800190565b60208082526029908201527f455243313135353a2063616c6c6572206973206e6f74206f776e6572206e6f7260408201527f20617070726f7665640000000000000000000000000000000000000000000000606082015260800190565b60208082526033908201527f4e46543a204d75737420617070726f76652074686520636f6e7472616374207460408201527f6f207472616e7366657220746865204e46542e00000000000000000000000000606082015260800190565b60208082526025908201527f4e46543a204661696c656420746f207472616e7366657220455243323020746f60408201527f6b656e732e000000000000000000000000000000000000000000000000000000606082015260800190565b60208082526010908201527f5061757361626c653a2070617573656400000000000000000000000000000000604082015260600190565b60208082526025908201527f455243313135353a207472616e7366657220746f20746865207a65726f20616460408201527f6472657373000000000000000000000000000000000000000000000000000000606082015260800190565b60208082526032908201527f455243313135353a207472616e736665722063616c6c6572206973206e6f742060408201527f6f776e6572206e6f7220617070726f7665640000000000000000000000000000606082015260800190565b6020808252601c908201527f4e46543a205468652070726f746f636f6c206973207061757365642e00000000604082015260600190565b60208082526023908201527f455243313135353a206275726e2066726f6d20746865207a65726f206164647260408201526265737360e81b606082015260800190565b60208082526038908201527f455243313135355072657365744d696e7465725061757365723a206d7573742060408201527f68617665206d696e74657220726f6c6520746f206d696e740000000000000000606082015260800190565b6020808252602a908201527f455243313135353a20696e73756666696369656e742062616c616e636520666f60408201527f72207472616e7366657200000000000000000000000000000000000000000000606082015260800190565b60208082526039908201527f4e46543a204d75737420617070726f7665207468697320636f6e74726163742060408201527f746f207472616e7366657220455243323020746f6b656e732e00000000000000606082015260800190565b60208082526029908201527f4e46543a2043616e6e6f742072656465656d20616e204e465420796f7520646f60408201527f206e6f74206f776e2e0000000000000000000000000000000000000000000000606082015260800190565b60208082526032908201527f4e46543a206f6e6c7920612070726f746f636f6c2061646d696e2063616e206360408201527f616c6c20746869732066756e6374696f6e2e0000000000000000000000000000606082015260800190565b6020808252602a908201527f4e46543a204270732070726f7669646564206d757374206265206c657373207460408201527f68616e2031302c30303000000000000000000000000000000000000000000000606082015260800190565b60208082526022908201527f4e46543a204d75737420637265617465206174206c65617374206f6e65204e466040820152612a1760f11b606082015260800190565b6020808252603b908201527f455243313135355072657365744d696e7465725061757365723a206d7573742060408201527f686176652070617573657220726f6c6520746f20756e70617573650000000000606082015260800190565b60208082526030908201527f4e46543a204d757374207370656369667920657175616c206e756d626572206f60408201527f6620636f6e6669672076616c7565732e00000000000000000000000000000000606082015260800190565b60208082526039908201527f455243313135355072657365744d696e7465725061757365723a206d7573742060408201527f686176652070617573657220726f6c6520746f20706175736500000000000000606082015260800190565b60208082526029908201527f455243313135353a2073657474696e6720617070726f76616c2073746174757360408201527f20666f722073656c660000000000000000000000000000000000000000000000606082015260800190565b60208082526029908201527f455243313135353a206163636f756e747320616e6420696473206c656e67746860408201527f206d69736d617463680000000000000000000000000000000000000000000000606082015260800190565b6020808252603a908201527f4e46543a204d757374206f776e2074686520616d6f756e74206f6620746f6b6560408201527f6e73207468617420617265206265696e6720777261707065642e000000000000606082015260800190565b60208082526028908201527f455243313135353a2069647320616e6420616d6f756e7473206c656e6774682060408201527f6d69736d61746368000000000000000000000000000000000000000000000000606082015260800190565b60208082526021908201527f455243313135353a206d696e7420746f20746865207a65726f206164647265736040820152607360f81b606082015260800190565b6020808252602b908201527f4e46543a204f6e6c7920746865206f776e6572206f6620746865204e4654206360408201527f616e20777261702069742e000000000000000000000000000000000000000000606082015260800190565b6020808252602f908201527f416363657373436f6e74726f6c3a2063616e206f6e6c792072656e6f756e636560408201527f20726f6c657320666f722073656c660000000000000000000000000000000000606082015260800190565b918252602082015260400190565b6000858252846020830152606060408301526150626060830184866141c5565b9695505050505050565b6000808335601e19843603018112615082578283fd5b83018035915067ffffffffffffffff82111561509c578283fd5b6020019150368190038213156138ad57600080fd5b60405181810167ffffffffffffffff811182821017156150d3576150d361521c565b604052919050565b600067ffffffffffffffff8211156150f5576150f561521c565b5060209081020190565b6000821982111561511257615112615206565b500190565b60008261513257634e487b7160e01b81526012600452602481fd5b500490565b600081600019048311821515161561515157615151615206565b500290565b60008282101561516857615168615206565b500390565b60005b83811015615188578181015183820152602001615170565b83811115610eab5750506000910152565b6000816151a8576151a8615206565b506000190190565b6002810460018216806151c457607f821691505b602082108114156151e557634e487b7160e01b600052602260045260246000fd5b50919050565b60006000198214156151ff576151ff615206565b5060010190565b634e487b7160e01b600052601160045260246000fd5b634e487b7160e01b600052604160045260246000fd5b60e01c90565b600060443d101561524857611624565b600481823e6308c379a061525c8251615232565b1461526657611624565b6040513d600319016004823e80513d67ffffffffffffffff81602484011181841117156152965750505050611624565b828401925082519150808211156152b05750505050611624565b503d830160208284010111156152c857505050611624565b601f01601f1916810160200160405291505090565b6001600160a01b03811681146152f257600080fd5b50565b80151581146152f257600080fd5b6001600160e01b0319811681146152f257600080fdfea164736f6c6343000800000a",
  "linkReferences": {},
  "deployedLinkReferences": {}
}