{
  "_format": "hh-sol-artifact-1",
  "contractName": "NFTCollection",
  "sourceName": "contracts/NFTCollection.sol",
  "abi": [
    {
      "inputs": [
        {
          "internalType": "address payable",
          "name": "_controlCenter",
          "type": "address"
        },
        {
          "internalType": "address",
          "name": "_trustedForwarder",
          "type": "address"
        },
        {
          "internalType": "string",
          "name": "_uri",
          "type": "string"
        }
      ],
      "stateMutability": "nonpayable",
      "type": "constructor"
    },
    {
      "anonymous": false,
      "inputs": [
        {
          "indexed": true,
          "internalType": "address",
          "name": "account",
          "type": "address"
        },
        {
          "indexed": true,
          "internalType": "address",
          "name": "operator",
          "type": "address"
        },
        {
          "indexed": false,
          "internalType": "bool",
          "name": "approved",
          "type": "bool"
        }
      ],
      "name": "ApprovalForAll",
      "type": "event"
    },
    {
      "anonymous": false,
      "inputs": [
        {
          "indexed": true,
          "internalType": "address",
          "name": "redeemer",
          "type": "address"
        },
        {
          "indexed": true,
          "internalType": "address",
          "name": "tokenContract",
          "type": "address"
        },
        {
          "indexed": false,
          "internalType": "uint256",
          "name": "tokenAmountReceived",
          "type": "uint256"
        },
        {
          "indexed": false,
          "internalType": "uint256",
          "name": "nftAmountRedeemed",
          "type": "uint256"
        }
      ],
      "name": "ERC20Redeemed",
      "type": "event"
    },
    {
      "anonymous": false,
      "inputs": [
        {
          "indexed": true,
          "internalType": "address",
          "name": "creator",
          "type": "address"
        },
        {
          "indexed": true,
          "internalType": "address",
          "name": "tokenContract",
          "type": "address"
        },
        {
          "indexed": false,
          "internalType": "uint256",
          "name": "tokenAmount",
          "type": "uint256"
        },
        {
          "indexed": false,
          "internalType": "uint256",
          "name": "nftsMinted",
          "type": "uint256"
        },
        {
          "indexed": false,
          "internalType": "string",
          "name": "nftURI",
          "type": "string"
        }
      ],
      "name": "ERC20WrappedNfts",
      "type": "event"
    },
    {
      "anonymous": false,
      "inputs": [
        {
          "indexed": true,
          "internalType": "address",
          "name": "redeemer",
          "type": "address"
        },
        {
          "indexed": true,
          "internalType": "address",
          "name": "nftContract",
          "type": "address"
        },
        {
          "indexed": false,
          "internalType": "uint256",
          "name": "nftTokenId",
          "type": "uint256"
        },
        {
          "indexed": false,
          "internalType": "uint256",
          "name": "nativeNftTokenId",
          "type": "uint256"
        }
      ],
      "name": "ERC721Redeemed",
      "type": "event"
    },
    {
      "anonymous": false,
      "inputs": [
        {
          "indexed": true,
          "internalType": "address",
          "name": "creator",
          "type": "address"
        },
        {
          "indexed": true,
          "internalType": "address",
          "name": "nftContract",
          "type": "address"
        },
        {
          "indexed": false,
          "internalType": "uint256",
          "name": "nftTokenId",
          "type": "uint256"
        },
        {
          "indexed": false,
          "internalType": "uint256",
          "name": "nativeNftTokenId",
          "type": "uint256"
        },
        {
          "indexed": false,
          "internalType": "string",
          "name": "nativeNftURI",
          "type": "string"
        }
      ],
      "name": "ERC721WrappedNft",
      "type": "event"
    },
    {
      "anonymous": false,
      "inputs": [
        {
          "indexed": true,
          "internalType": "address",
          "name": "creator",
          "type": "address"
        },
        {
          "indexed": false,
          "internalType": "uint256[]",
          "name": "nftIds",
          "type": "uint256[]"
        },
        {
          "indexed": false,
          "internalType": "string[]",
          "name": "nftURIs",
          "type": "string[]"
        },
        {
          "indexed": false,
          "internalType": "uint256[]",
          "name": "nftSupplies",
          "type": "uint256[]"
        }
      ],
      "name": "NativeNfts",
      "type": "event"
    },
    {
      "anonymous": false,
      "inputs": [
        {
          "indexed": false,
          "internalType": "address",
          "name": "account",
          "type": "address"
        }
      ],
      "name": "Paused",
      "type": "event"
    },
    {
      "anonymous": false,
      "inputs": [
        {
          "indexed": true,
          "internalType": "bytes32",
          "name": "role",
          "type": "bytes32"
        },
        {
          "indexed": true,
          "internalType": "bytes32",
          "name": "previousAdminRole",
          "type": "bytes32"
        },
        {
          "indexed": true,
          "internalType": "bytes32",
          "name": "newAdminRole",
          "type": "bytes32"
        }
      ],
      "name": "RoleAdminChanged",
      "type": "event"
    },
    {
      "anonymous": false,
      "inputs": [
        {
          "indexed": true,
          "internalType": "bytes32",
          "name": "role",
          "type": "bytes32"
        },
        {
          "indexed": true,
          "internalType": "address",
          "name": "account",
          "type": "address"
        },
        {
          "indexed": true,
          "internalType": "address",
          "name": "sender",
          "type": "address"
        }
      ],
      "name": "RoleGranted",
      "type": "event"
    },
    {
      "anonymous": false,
      "inputs": [
        {
          "indexed": true,
          "internalType": "bytes32",
          "name": "role",
          "type": "bytes32"
        },
        {
          "indexed": true,
          "internalType": "address",
          "name": "account",
          "type": "address"
        },
        {
          "indexed": true,
          "internalType": "address",
          "name": "sender",
          "type": "address"
        }
      ],
      "name": "RoleRevoked",
      "type": "event"
    },
    {
      "anonymous": false,
      "inputs": [
        {
          "indexed": false,
          "internalType": "uint256",
          "name": "royaltyBps",
          "type": "uint256"
        }
      ],
      "name": "RoyaltyUpdated",
      "type": "event"
    },
    {
      "anonymous": false,
      "inputs": [
        {
          "indexed": true,
          "internalType": "address",
          "name": "operator",
          "type": "address"
        },
        {
          "indexed": true,
          "internalType": "address",
          "name": "from",
          "type": "address"
        },
        {
          "indexed": true,
          "internalType": "address",
          "name": "to",
          "type": "address"
        },
        {
          "indexed": false,
          "internalType": "uint256[]",
          "name": "ids",
          "type": "uint256[]"
        },
        {
          "indexed": false,
          "internalType": "uint256[]",
          "name": "values",
          "type": "uint256[]"
        }
      ],
      "name": "TransferBatch",
      "type": "event"
    },
    {
      "anonymous": false,
      "inputs": [
        {
          "indexed": true,
          "internalType": "address",
          "name": "operator",
          "type": "address"
        },
        {
          "indexed": true,
          "internalType": "address",
          "name": "from",
          "type": "address"
        },
        {
          "indexed": true,
          "internalType": "address",
          "name": "to",
          "type": "address"
        },
        {
          "indexed": false,
          "internalType": "uint256",
          "name": "id",
          "type": "uint256"
        },
        {
          "indexed": false,
          "internalType": "uint256",
          "name": "value",
          "type": "uint256"
        }
      ],
      "name": "TransferSingle",
      "type": "event"
    },
    {
      "anonymous": false,
      "inputs": [
        {
          "indexed": false,
          "internalType": "string",
          "name": "value",
          "type": "string"
        },
        {
          "indexed": true,
          "internalType": "uint256",
          "name": "id",
          "type": "uint256"
        }
      ],
      "name": "URI",
      "type": "event"
    },
    {
      "anonymous": false,
      "inputs": [
        {
          "indexed": false,
          "internalType": "address",
          "name": "account",
          "type": "address"
        }
      ],
      "name": "Unpaused",
      "type": "event"
    },
    {
      "inputs": [],
      "name": "DEFAULT_ADMIN_ROLE",
      "outputs": [
        {
          "internalType": "bytes32",
          "name": "",
          "type": "bytes32"
        }
      ],
      "stateMutability": "view",
      "type": "function"
    },
    {
      "inputs": [],
      "name": "MINTER_ROLE",
      "outputs": [
        {
          "internalType": "bytes32",
          "name": "",
          "type": "bytes32"
        }
      ],
      "stateMutability": "view",
      "type": "function"
    },
    {
      "inputs": [],
      "name": "PAUSER_ROLE",
      "outputs": [
        {
          "internalType": "bytes32",
          "name": "",
          "type": "bytes32"
        }
      ],
      "stateMutability": "view",
      "type": "function"
    },
    {
      "inputs": [],
      "name": "_contractURI",
      "outputs": [
        {
          "internalType": "string",
          "name": "",
          "type": "string"
        }
      ],
      "stateMutability": "view",
      "type": "function"
    },
    {
      "inputs": [
        {
          "internalType": "address",
          "name": "account",
          "type": "address"
        },
        {
          "internalType": "uint256",
          "name": "id",
          "type": "uint256"
        }
      ],
      "name": "balanceOf",
      "outputs": [
        {
          "internalType": "uint256",
          "name": "",
          "type": "uint256"
        }
      ],
      "stateMutability": "view",
      "type": "function"
    },
    {
      "inputs": [
        {
          "internalType": "address[]",
          "name": "accounts",
          "type": "address[]"
        },
        {
          "internalType": "uint256[]",
          "name": "ids",
          "type": "uint256[]"
        }
      ],
      "name": "balanceOfBatch",
      "outputs": [
        {
          "internalType": "uint256[]",
          "name": "",
          "type": "uint256[]"
        }
      ],
      "stateMutability": "view",
      "type": "function"
    },
    {
      "inputs": [
        {
          "internalType": "address",
          "name": "account",
          "type": "address"
        },
        {
          "internalType": "uint256",
          "name": "id",
          "type": "uint256"
        },
        {
          "internalType": "uint256",
          "name": "value",
          "type": "uint256"
        }
      ],
      "name": "burn",
      "outputs": [],
      "stateMutability": "nonpayable",
      "type": "function"
    },
    {
      "inputs": [
        {
          "internalType": "address",
          "name": "account",
          "type": "address"
        },
        {
          "internalType": "uint256[]",
          "name": "ids",
          "type": "uint256[]"
        },
        {
          "internalType": "uint256[]",
          "name": "values",
          "type": "uint256[]"
        }
      ],
      "name": "burnBatch",
      "outputs": [],
      "stateMutability": "nonpayable",
      "type": "function"
    },
    {
      "inputs": [],
      "name": "contractURI",
      "outputs": [
        {
          "internalType": "string",
          "name": "",
          "type": "string"
        }
      ],
      "stateMutability": "view",
      "type": "function"
    },
    {
      "inputs": [
        {
          "internalType": "string[]",
          "name": "_nftURIs",
          "type": "string[]"
        },
        {
          "internalType": "uint256[]",
          "name": "_nftSupplies",
          "type": "uint256[]"
        }
      ],
      "name": "createNativeNfts",
      "outputs": [
        {
          "internalType": "uint256[]",
          "name": "nftIds",
          "type": "uint256[]"
        }
      ],
      "stateMutability": "nonpayable",
      "type": "function"
    },
    {
      "inputs": [
        {
          "internalType": "address",
          "name": "_pack",
          "type": "address"
        },
        {
          "internalType": "string[]",
          "name": "_nftURIs",
          "type": "string[]"
        },
        {
          "internalType": "uint256[]",
          "name": "_nftSupplies",
          "type": "uint256[]"
        },
        {
          "internalType": "string",
          "name": "_packURI",
          "type": "string"
        },
        {
          "internalType": "uint256",
          "name": "_secondsUntilOpenStart",
          "type": "uint256"
        },
        {
          "internalType": "uint256",
          "name": "_secondsUntilOpenEnd",
          "type": "uint256"
        },
        {
          "internalType": "uint256",
          "name": "_nftsPerOpen",
          "type": "uint256"
        }
      ],
      "name": "createPackAtomic",
      "outputs": [],
      "stateMutability": "nonpayable",
      "type": "function"
    },
    {
      "inputs": [
        {
          "internalType": "uint256",
          "name": "_nftId",
          "type": "uint256"
        }
      ],
      "name": "creator",
      "outputs": [
        {
          "internalType": "address",
          "name": "",
          "type": "address"
        }
      ],
      "stateMutability": "view",
      "type": "function"
    },
    {
      "inputs": [
        {
          "internalType": "uint256",
          "name": "",
          "type": "uint256"
        }
      ],
      "name": "erc20WrappedNfts",
      "outputs": [
        {
          "internalType": "address",
          "name": "tokenContract",
          "type": "address"
        },
        {
          "internalType": "uint256",
          "name": "shares",
          "type": "uint256"
        },
        {
          "internalType": "uint256",
          "name": "underlyingTokenAmount",
          "type": "uint256"
        }
      ],
      "stateMutability": "view",
      "type": "function"
    },
    {
      "inputs": [
        {
          "internalType": "uint256",
          "name": "",
          "type": "uint256"
        }
      ],
      "name": "erc721WrappedNfts",
      "outputs": [
        {
          "internalType": "address",
          "name": "nftContract",
          "type": "address"
        },
        {
          "internalType": "uint256",
          "name": "nftTokenId",
          "type": "uint256"
        }
      ],
      "stateMutability": "view",
      "type": "function"
    },
    {
      "inputs": [
        {
          "internalType": "bytes32",
          "name": "role",
          "type": "bytes32"
        }
      ],
      "name": "getRoleAdmin",
      "outputs": [
        {
          "internalType": "bytes32",
          "name": "",
          "type": "bytes32"
        }
      ],
      "stateMutability": "view",
      "type": "function"
    },
    {
      "inputs": [
        {
          "internalType": "bytes32",
          "name": "role",
          "type": "bytes32"
        },
        {
          "internalType": "uint256",
          "name": "index",
          "type": "uint256"
        }
      ],
      "name": "getRoleMember",
      "outputs": [
        {
          "internalType": "address",
          "name": "",
          "type": "address"
        }
      ],
      "stateMutability": "view",
      "type": "function"
    },
    {
      "inputs": [
        {
          "internalType": "bytes32",
          "name": "role",
          "type": "bytes32"
        }
      ],
      "name": "getRoleMemberCount",
      "outputs": [
        {
          "internalType": "uint256",
          "name": "",
          "type": "uint256"
        }
      ],
      "stateMutability": "view",
      "type": "function"
    },
    {
      "inputs": [
        {
          "internalType": "bytes32",
          "name": "role",
          "type": "bytes32"
        },
        {
          "internalType": "address",
          "name": "account",
          "type": "address"
        }
      ],
      "name": "grantRole",
      "outputs": [],
      "stateMutability": "nonpayable",
      "type": "function"
    },
    {
      "inputs": [
        {
          "internalType": "bytes32",
          "name": "role",
          "type": "bytes32"
        },
        {
          "internalType": "address",
          "name": "account",
          "type": "address"
        }
      ],
      "name": "hasRole",
      "outputs": [
        {
          "internalType": "bool",
          "name": "",
          "type": "bool"
        }
      ],
      "stateMutability": "view",
      "type": "function"
    },
    {
      "inputs": [
        {
          "internalType": "address",
          "name": "account",
          "type": "address"
        },
        {
          "internalType": "address",
          "name": "operator",
          "type": "address"
        }
      ],
      "name": "isApprovedForAll",
      "outputs": [
        {
          "internalType": "bool",
          "name": "",
          "type": "bool"
        }
      ],
      "stateMutability": "view",
      "type": "function"
    },
    {
      "inputs": [
        {
          "internalType": "address",
          "name": "forwarder",
          "type": "address"
        }
      ],
      "name": "isTrustedForwarder",
      "outputs": [
        {
          "internalType": "bool",
          "name": "",
          "type": "bool"
        }
      ],
      "stateMutability": "view",
      "type": "function"
    },
    {
      "inputs": [
        {
          "internalType": "address",
          "name": "to",
          "type": "address"
        },
        {
          "internalType": "uint256",
          "name": "id",
          "type": "uint256"
        },
        {
          "internalType": "uint256",
          "name": "amount",
          "type": "uint256"
        },
        {
          "internalType": "bytes",
          "name": "data",
          "type": "bytes"
        }
      ],
      "name": "mint",
      "outputs": [],
      "stateMutability": "nonpayable",
      "type": "function"
    },
    {
      "inputs": [
        {
          "internalType": "address",
          "name": "to",
          "type": "address"
        },
        {
          "internalType": "uint256[]",
          "name": "ids",
          "type": "uint256[]"
        },
        {
          "internalType": "uint256[]",
          "name": "amounts",
          "type": "uint256[]"
        },
        {
          "internalType": "bytes",
          "name": "data",
          "type": "bytes"
        }
      ],
      "name": "mintBatch",
      "outputs": [],
      "stateMutability": "nonpayable",
      "type": "function"
    },
    {
      "inputs": [],
      "name": "nextTokenId",
      "outputs": [
        {
          "internalType": "uint256",
          "name": "",
          "type": "uint256"
        }
      ],
      "stateMutability": "view",
      "type": "function"
    },
    {
      "inputs": [
        {
          "internalType": "uint256",
          "name": "",
          "type": "uint256"
        }
      ],
      "name": "nftInfo",
      "outputs": [
        {
          "internalType": "address",
          "name": "creator",
          "type": "address"
        },
        {
          "internalType": "string",
          "name": "uri",
          "type": "string"
        },
        {
          "internalType": "uint256",
          "name": "supply",
          "type": "uint256"
        },
        {
          "internalType": "enum NFTCollection.UnderlyingType",
          "name": "underlyingType",
          "type": "uint8"
        }
      ],
      "stateMutability": "view",
      "type": "function"
    },
    {
      "inputs": [],
      "name": "pause",
      "outputs": [],
      "stateMutability": "nonpayable",
      "type": "function"
    },
    {
      "inputs": [],
      "name": "paused",
      "outputs": [
        {
          "internalType": "bool",
          "name": "",
          "type": "bool"
        }
      ],
      "stateMutability": "view",
      "type": "function"
    },
    {
      "inputs": [
        {
          "internalType": "uint256",
          "name": "_nftId",
          "type": "uint256"
        },
        {
          "internalType": "uint256",
          "name": "_amount",
          "type": "uint256"
        }
      ],
      "name": "redeemERC20",
      "outputs": [],
      "stateMutability": "nonpayable",
      "type": "function"
    },
    {
      "inputs": [
        {
          "internalType": "uint256",
          "name": "_nftId",
          "type": "uint256"
        }
      ],
      "name": "redeemERC721",
      "outputs": [],
      "stateMutability": "nonpayable",
      "type": "function"
    },
    {
      "inputs": [
        {
          "internalType": "bytes32",
          "name": "role",
          "type": "bytes32"
        },
        {
          "internalType": "address",
          "name": "account",
          "type": "address"
        }
      ],
      "name": "renounceRole",
      "outputs": [],
      "stateMutability": "nonpayable",
      "type": "function"
    },
    {
      "inputs": [
        {
          "internalType": "bytes32",
          "name": "role",
          "type": "bytes32"
        },
        {
          "internalType": "address",
          "name": "account",
          "type": "address"
        }
      ],
      "name": "revokeRole",
      "outputs": [],
      "stateMutability": "nonpayable",
      "type": "function"
    },
    {
      "inputs": [],
      "name": "royaltyBps",
      "outputs": [
        {
          "internalType": "uint256",
          "name": "",
          "type": "uint256"
        }
      ],
      "stateMutability": "view",
      "type": "function"
    },
    {
      "inputs": [
        {
          "internalType": "uint256",
          "name": "tokenId",
          "type": "uint256"
        },
        {
          "internalType": "uint256",
          "name": "salePrice",
          "type": "uint256"
        }
      ],
      "name": "royaltyInfo",
      "outputs": [
        {
          "internalType": "address",
          "name": "receiver",
          "type": "address"
        },
        {
          "internalType": "uint256",
          "name": "royaltyAmount",
          "type": "uint256"
        }
      ],
      "stateMutability": "view",
      "type": "function"
    },
    {
      "inputs": [
        {
          "internalType": "address",
          "name": "from",
          "type": "address"
        },
        {
          "internalType": "address",
          "name": "to",
          "type": "address"
        },
        {
          "internalType": "uint256[]",
          "name": "ids",
          "type": "uint256[]"
        },
        {
          "internalType": "uint256[]",
          "name": "amounts",
          "type": "uint256[]"
        },
        {
          "internalType": "bytes",
          "name": "data",
          "type": "bytes"
        }
      ],
      "name": "safeBatchTransferFrom",
      "outputs": [],
      "stateMutability": "nonpayable",
      "type": "function"
    },
    {
      "inputs": [
        {
          "internalType": "address",
          "name": "from",
          "type": "address"
        },
        {
          "internalType": "address",
          "name": "to",
          "type": "address"
        },
        {
          "internalType": "uint256",
          "name": "id",
          "type": "uint256"
        },
        {
          "internalType": "uint256",
          "name": "amount",
          "type": "uint256"
        },
        {
          "internalType": "bytes",
          "name": "data",
          "type": "bytes"
        }
      ],
      "name": "safeTransferFrom",
      "outputs": [],
      "stateMutability": "nonpayable",
      "type": "function"
    },
    {
      "inputs": [
        {
          "internalType": "address",
          "name": "operator",
          "type": "address"
        },
        {
          "internalType": "bool",
          "name": "approved",
          "type": "bool"
        }
      ],
      "name": "setApprovalForAll",
      "outputs": [],
      "stateMutability": "nonpayable",
      "type": "function"
    },
    {
      "inputs": [
        {
          "internalType": "string",
          "name": "_URI",
          "type": "string"
        }
      ],
      "name": "setContractURI",
      "outputs": [],
      "stateMutability": "nonpayable",
      "type": "function"
    },
    {
      "inputs": [
        {
          "internalType": "uint256",
          "name": "_royaltyBps",
          "type": "uint256"
        }
      ],
      "name": "setRoyaltyBps",
      "outputs": [],
      "stateMutability": "nonpayable",
      "type": "function"
    },
    {
      "inputs": [
        {
          "internalType": "bytes4",
          "name": "interfaceId",
          "type": "bytes4"
        }
      ],
      "name": "supportsInterface",
      "outputs": [
        {
          "internalType": "bool",
          "name": "",
          "type": "bool"
        }
      ],
      "stateMutability": "view",
      "type": "function"
    },
    {
      "inputs": [
        {
          "internalType": "uint256",
          "name": "_nftId",
          "type": "uint256"
        }
      ],
      "name": "tokenURI",
      "outputs": [
        {
          "internalType": "string",
          "name": "",
          "type": "string"
        }
      ],
      "stateMutability": "view",
      "type": "function"
    },
    {
      "inputs": [],
      "name": "unpause",
      "outputs": [],
      "stateMutability": "nonpayable",
      "type": "function"
    },
    {
      "inputs": [
        {
          "internalType": "uint256",
          "name": "_nftId",
          "type": "uint256"
        }
      ],
      "name": "uri",
      "outputs": [
        {
          "internalType": "string",
          "name": "",
          "type": "string"
        }
      ],
      "stateMutability": "view",
      "type": "function"
    },
    {
      "inputs": [
        {
          "internalType": "address",
          "name": "_tokenContract",
          "type": "address"
        },
        {
          "internalType": "uint256",
          "name": "_tokenAmount",
          "type": "uint256"
        },
        {
          "internalType": "uint256",
          "name": "_numOfNftsToMint",
          "type": "uint256"
        },
        {
          "internalType": "string",
          "name": "_nftURI",
          "type": "string"
        }
      ],
      "name": "wrapERC20",
      "outputs": [],
      "stateMutability": "nonpayable",
      "type": "function"
    },
    {
      "inputs": [
        {
          "internalType": "address",
          "name": "_nftContract",
          "type": "address"
        },
        {
          "internalType": "uint256",
          "name": "_tokenId",
          "type": "uint256"
        },
        {
          "internalType": "string",
          "name": "_nftURI",
          "type": "string"
        }
      ],
      "name": "wrapERC721",
      "outputs": [],
      "stateMutability": "nonpayable",
      "type": "function"
    }
  ],
  "bytecode": "0x60806040523480156200001157600080fd5b5060405162005963380380620059638339810160408190526200003491620003db565b818180620000428162000119565b506005805460ff191690556200006360006200005d62000132565b6200014f565b620000927f9f2df0fed2c77648de5860a4cc508cd0818c85b8b8a1ab4ceeef8d981c8956a66200005d62000132565b620000c17f65d7a28e3265b37a6474929f336521b332c1681b933f6cb9f3376673440d862a6200005d62000132565b5060058054610100600160a81b0319166101006001600160a01b0393841602179055600680546001600160a01b03191691851691909117905580516200010f90600990602084019062000335565b5050505062000544565b80516200012e90600490602084019062000335565b5050565b6000620001496200019260201b620025031760201c565b90505b90565b620001668282620001d260201b620025311760201c565b60008281526001602090815260409091206200018d9183906200253f620001de821b17901c565b505050565b60006200019f33620001fe565b15620001b5575060131936013560601c6200014c565b620001ca6200021760201b620025541760201c565b90506200014c565b6200012e82826200021b565b6000620001f5836001600160a01b038416620002a5565b90505b92915050565b60055461010090046001600160a01b0390811691161490565b3390565b620002278282620002f4565b6200012e576000828152602081815260408083206001600160a01b03851684529091529020805460ff191660011790556200026162000132565b6001600160a01b0316816001600160a01b0316837f2f8788117e7eff1d82e926ec794901d17c78024a50270940304540a733656f0d60405160405180910390a45050565b6000620002b383836200031d565b620002eb57508154600181810184556000848152602080822090930184905584548482528286019093526040902091909155620001f8565b506000620001f8565b6000918252602082815260408084206001600160a01b0393909316845291905290205460ff1690565b60009081526001919091016020526040902054151590565b8280546200034390620004d8565b90600052602060002090601f016020900481019282620003675760008555620003b2565b82601f106200038257805160ff1916838001178555620003b2565b82800160010185558215620003b2579182015b82811115620003b257825182559160200191906001019062000395565b50620003c0929150620003c4565b5090565b5b80821115620003c05760008155600101620003c5565b600080600060608486031215620003f0578283fd5b8351620003fd816200052b565b8093505060208085015162000412816200052b565b60408601519093506001600160401b03808211156200042f578384fd5b818701915087601f83011262000443578384fd5b81518181111562000458576200045862000515565b604051601f8201601f19168101850183811182821017156200047e576200047e62000515565b60405281815283820185018a101562000495578586fd5b8592505b81831015620004b8578383018501518184018601529184019162000499565b81831115620004c957858583830101525b80955050505050509250925092565b600281046001821680620004ed57607f821691505b602082108114156200050f57634e487b7160e01b600052602260045260246000fd5b50919050565b634e487b7160e01b600052604160045260246000fd5b6001600160a01b03811681146200054157600080fd5b50565b61540f80620005546000396000f3fe608060405234801561001057600080fd5b50600436106102f35760003560e01c8063788f1f5e11610191578063c87b56dd116100e3578063ddfa3e2211610097578063e985e9c511610071578063e985e9c5146105fb578063f242432a1461060e578063f5298aca14610621576102f3565b8063ddfa3e22146105d8578063e63ab1e9146105eb578063e8a3d485146105f3576102f3565b8063d5391393116100c8578063d5391393146105aa578063d547741f146105b2578063db884b0c146105c5576102f3565b8063c87b56dd14610356578063ca15c87314610597576102f3565b8063938e3d7b11610145578063a22cb4651161011f578063a22cb46514610574578063c0e7274014610587578063c63adb2b1461058f576102f3565b8063938e3d7b1461054657806393b778d414610559578063a217fddf1461056c576102f3565b80638456cb59116101765780638456cb59146105185780639010d07c1461052057806391d1485414610533576102f3565b8063788f1f5e146104f25780637a61080b14610505576102f3565b80632f2ff15d1161024a578063510b5158116101fe5780636b20c454116101d85780636b20c454146104c4578063731133e9146104d757806375794a3c146104ea576102f3565b8063510b515814610489578063572b6c05146104a95780635c975abb146104bc576102f3565b80633f4ba83a1161022f5780633f4ba83a1461044e57806341466a95146104565780634e1273f414610476576102f3565b80632f2ff15d1461042857806336568abe1461043b576102f3565b80631f72d831116102ac578063248a9ca311610286578063248a9ca3146103e15780632a55205a146103f45780632eb2c2d614610415576102f3565b80631f72d831146103985780631f7fdffa146103ab5780631f8bc790146103be576102f3565b8063090a3282116102dd578063090a3282146103415780630e89341c146103565780631ceb2dc214610376576102f3565b8062fdd58e146102f857806301ffc9a714610321575b600080fd5b61030b610306366004613dd6565b610634565b604051610318919061458f565b60405180910390f35b61033461032f3660046140fa565b610690565b6040516103189190614584565b61035461034f366004613e01565b6106bb565b005b610369610364366004614085565b610b7b565b60405161031891906145e0565b610389610384366004614085565b610c20565b60405161031893929190614463565b6103546103a6366004614085565b610c4b565b6103546103b9366004613d12565b610ee7565b6103d16103cc366004614085565b610f41565b60405161031894939291906143f3565b61030b6103ef366004614085565b611000565b6104076104023660046140d9565b611015565b60405161031892919061444a565b610354610423366004613acb565b6110d6565b6103546104363660046140b5565b611134565b6103546104493660046140b5565b61115b565b61035461117d565b61046961046436600461400c565b6111cf565b6040516103189190614484565b610469610484366004613f4c565b611559565b61049c610497366004614085565b611679565b6040516103189190614300565b6103346104b7366004613a5b565b611694565b6103346116ad565b6103546104d2366004613c9f565b6116b7565b6103546104e5366004613e8f565b61170c565b61030b611760565b610354610500366004613bdc565b611766565b6103546105133660046140d9565b61189b565b610354611a26565b61049c61052e3660046140d9565b611a76565b6103346105413660046140b5565b611a95565b610354610554366004614132565b611abe565b610354610567366004614085565b611be0565b61030b611d2d565b610354610582366004613da9565b611d32565b610369611e00565b61030b611e8e565b61030b6105a5366004614085565b611e94565b61030b611eab565b6103546105c03660046140b5565b611ecf565b6103546105d3366004613ee4565b611ed9565b6104076105e6366004614085565b61234e565b61030b612373565b610369612397565b610334610609366004613a93565b612429565b61035461061c366004613b75565b612457565b61035461062f366004613e5b565b6124ae565b60006001600160a01b0383166106655760405162461bcd60e51b815260040161065c90614719565b60405180910390fd5b5060008181526002602090815260408083206001600160a01b03861684529091529020545b92915050565b600061069b82612558565b8061068a57506001600160e01b0319821663152a902d60e11b1492915050565b600660009054906101000a90046001600160a01b03166001600160a01b0316639d2f83f06040518163ffffffff1660e01b815260040160206040518083038186803b15801561070957600080fd5b505afa15801561071d573d6000803e3d6000fd5b505050506040513d601f19601f820116820180604052508101906107419190614069565b1561075e5760405162461bcd60e51b815260040161065c90614c3f565b610766612563565b6001600160a01b0316846001600160a01b0316636352211e856040518263ffffffff1660e01b815260040161079b919061458f565b60206040518083038186803b1580156107b357600080fd5b505afa1580156107c7573d6000803e3d6000fd5b505050506040513d601f19601f820116820180604052508101906107eb9190613a77565b6001600160a01b0316146108115760405162461bcd60e51b815260040161065c90614f34565b60405163020604bf60e21b815230906001600160a01b0386169063081812fc9061083f90879060040161458f565b60206040518083038186803b15801561085757600080fd5b505afa15801561086b573d6000803e3d6000fd5b505050506040513d601f19601f8201168201806040525081019061088f9190613a77565b6001600160a01b031614806109245750836001600160a01b031663e985e9c56108b6612563565b306040518363ffffffff1660e01b81526004016108d4929190614314565b60206040518083038186803b1580156108ec57600080fd5b505afa158015610900573d6000803e3d6000fd5b505050506040513d601f19601f820116820180604052508101906109249190614069565b6109405760405162461bcd60e51b815260040161065c90614817565b836001600160a01b03166342842e0e610957612563565b30866040518463ffffffff1660e01b81526004016109779392919061438c565b600060405180830381600087803b15801561099157600080fd5b505af11580156109a5573d6000803e3d6000fd5b505050506109ce6109b4612563565b60075460016040518060200160405280600081525061170c565b60405180608001604052806109e1612563565b6001600160a01b0316815260200183838080601f016020809104026020016040519081016040528093929190818152602001838380828437600092018290525093855250506001602080850182905260026040958601526007548452600a815293909220845181546001600160a01b0319166001600160a01b039091161781558484015180519194610a78948601935001906137ee565b506040820151816002015560608201518160030160006101000a81548160ff02191690836002811115610abb57634e487b7160e01b600052602160045260246000fd5b0217905550506040805180820182526001600160a01b0387811680835260208084018981526007546000908152600b909252949020925183546001600160a01b031916921691909117825591516001909101559050610b18612563565b6001600160a01b03167fdae1779be741094a20f8287fd2c7a4d2d745eeae29c438867017066ae27a1bc4856007548686604051610b5894939291906150f7565b60405180910390a360078054906000610b70836152d4565b919050555050505050565b6000818152600a60205260409020600101805460609190610b9b90615299565b80601f0160208091040260200160405190810160405280929190818152602001828054610bc790615299565b8015610c145780601f10610be957610100808354040283529160200191610c14565b820191906000526020600020905b815481529060010190602001808311610bf757829003601f168201915b50505050509050919050565b600c602052600090815260409020805460018201546002909201546001600160a01b03909116919083565b60065460408051634a32c6bf60e11b815290516001600160a01b03909216916391d148549183916394658d7e91600480820192602092909190829003018186803b158015610c9857600080fd5b505afa158015610cac573d6000803e3d6000fd5b505050506040513d601f19601f82011682018060405250810190610cd0919061409d565b610cd8612563565b6040518363ffffffff1660e01b8152600401610cf5929190614598565b60206040518083038186803b158015610d0d57600080fd5b505afa158015610d21573d6000803e3d6000fd5b505050506040513d601f19601f82011682018060405250810190610d459190614069565b610d615760405162461bcd60e51b815260040161065c90614dc0565b600660009054906101000a90046001600160a01b03166001600160a01b0316635cd423156040518163ffffffff1660e01b815260040160206040518083038186803b158015610daf57600080fd5b505afa158015610dc3573d6000803e3d6000fd5b505050506040513d601f19601f82011682018060405250810190610de79190614172565b600660009054906101000a90046001600160a01b03166001600160a01b031663fd967f476040518163ffffffff1660e01b815260040160206040518083038186803b158015610e3557600080fd5b505afa158015610e49573d6000803e3d6000fd5b505050506040513d601f19601f82011682018060405250810190610e6d9190614172565b610e7791906151b4565b6fffffffffffffffffffffffffffffffff168110610ea75760405162461bcd60e51b815260040161065c90614be2565b60088190556040517f244ea8d7627f5a08f4299862bd5a45752842c183aee5b0fb0d1e4887bfa605b390610edc90839061458f565b60405180910390a150565b610f137f9f2df0fed2c77648de5860a4cc508cd0818c85b8b8a1ab4ceeef8d981c8956a6610541612563565b610f2f5760405162461bcd60e51b815260040161065c90614b28565b610f3b84848484612572565b50505050565b600a60205260009081526040902080546001820180546001600160a01b039092169291610f6d90615299565b80601f0160208091040260200160405190810160405280929190818152602001828054610f9990615299565b8015610fe65780601f10610fbb57610100808354040283529160200191610fe6565b820191906000526020600020905b815481529060010190602001808311610fc957829003601f168201915b50505050600283015460039093015491929160ff16905084565b60009081526020819052604090206001015490565b6000828152600a6020908152604080832054600654825163fd967f4760e01b815292516001600160a01b039283169594919092169263fd967f479260048083019392829003018186803b15801561106b57600080fd5b505afa15801561107f573d6000803e3d6000fd5b505050506040513d601f19601f820116820180604052508101906110a39190614172565b6fffffffffffffffffffffffffffffffff16600854846110c39190615220565b6110cd9190615200565b90509250929050565b6110de612563565b6001600160a01b0316856001600160a01b03161480611104575061110485610609612563565b6111205760405162461bcd60e51b815260040161065c90614a88565b61112d85858585856126f4565b5050505050565b61113e82826128c8565b6000828152600160205260409020611156908261253f565b505050565b61116582826128ec565b6000828152600160205260409020611156908261292e565b6111a97f65d7a28e3265b37a6474929f336521b332c1681b933f6cb9f3376673440d862a610541612563565b6111c55760405162461bcd60e51b815260040161065c90614d06565b6111cd612943565b565b600654604080516309d2f83f60e41b815290516060926001600160a01b031691639d2f83f0916004808301926020929190829003018186803b15801561121457600080fd5b505afa158015611228573d6000803e3d6000fd5b505050506040513d601f19601f8201168201806040525081019061124c9190614069565b156112695760405162461bcd60e51b815260040161065c90614c3f565b8382146112885760405162461bcd60e51b815260040161065c9061492e565b836112a55760405162461bcd60e51b815260040161065c90614f91565b8367ffffffffffffffff8111156112cc57634e487b7160e01b600052604160045260246000fd5b6040519080825280602002602001820160405280156112f5578160200160208202803683370190505b50905060005b848110156114ad5760075482828151811061132657634e487b7160e01b600052603260045260246000fd5b6020026020010181815250506040518060800160405280611345612563565b6001600160a01b0316815260200187878481811061137357634e487b7160e01b600052603260045260246000fd5b90506020028101906113859190615121565b8080601f0160208091040260200160405190810160405280939291908181526020018383808284376000920191909152505050908252506020018585848181106113df57634e487b7160e01b600052603260045260246000fd5b6020908102929092013583525001600090526007546000908152600a60209081526040909120825181546001600160a01b0319166001600160a01b03909116178155828201518051919261143b926001850192909101906137ee565b506040820151816002015560608201518160030160006101000a81548160ff0219169083600281111561147e57634e487b7160e01b600052602160045260246000fd5b0217905550506007805491506000611495836152d4565b919050555080806114a5906152d4565b9150506112fb565b506115016114b9612563565b82858580806020026020016040519081016040528093929190818152602001838360200280828437600092018290525060408051602081019091529081529250610ee7915050565b611509612563565b6001600160a01b03167f9ead818be0b43d79a78daaabe6c787d254ac1279ac99d9ff62b6b227804f7b338287878787604051611549959493929190614497565b60405180910390a2949350505050565b6060815183511461157c5760405162461bcd60e51b815260040161065c90614e7a565b6000835167ffffffffffffffff8111156115a657634e487b7160e01b600052604160045260246000fd5b6040519080825280602002602001820160405280156115cf578160200160208202803683370190505b50905060005b84518110156116715761163685828151811061160157634e487b7160e01b600052603260045260246000fd5b602002602001015185838151811061162957634e487b7160e01b600052603260045260246000fd5b6020026020010151610634565b82828151811061165657634e487b7160e01b600052603260045260246000fd5b602090810291909101015261166a816152d4565b90506115d5565b509392505050565b6000908152600a60205260409020546001600160a01b031690565b60055461010090046001600160a01b0390811691161490565b60055460ff165b90565b6116bf612563565b6001600160a01b0316836001600160a01b031614806116e557506116e583610609612563565b6117015760405162461bcd60e51b815260040161065c906148d1565b6111568383836129b1565b6117387f9f2df0fed2c77648de5860a4cc508cd0818c85b8b8a1ab4ceeef8d981c8956a6610541612563565b6117545760405162461bcd60e51b815260040161065c90614b28565b610f3b84848484612b65565b60075481565b600660009054906101000a90046001600160a01b03166001600160a01b0316639d2f83f06040518163ffffffff1660e01b815260040160206040518083038186803b1580156117b457600080fd5b505afa1580156117c8573d6000803e3d6000fd5b505050506040513d601f19601f820116820180604052508101906117ec9190614069565b156118095760405162461bcd60e51b815260040161065c90614c3f565b60006118178a8a8a8a6111cf565b9050600086868686866040516020016118349594939291906145af565b604051602081830303815290604052905061188d611850612563565b8d848c8c808060200260200160405190810160405280939291908181526020018383602002808284376000920191909152508892506110d6915050565b505050505050505050505050565b806118ad6118a7612563565b84610634565b10156118cb5760405162461bcd60e51b815260040161065c90614ed7565b6118dd6118d6612563565b8383612c56565b6000828152600c602052604081206001810154600290910154611901908490615220565b61190b9190615200565b6000848152600c60205260409020549091506001600160a01b031663a9059cbb611933612563565b836040518363ffffffff1660e01b815260040161195192919061444a565b602060405180830381600087803b15801561196b57600080fd5b505af115801561197f573d6000803e3d6000fd5b505050506040513d601f19601f820116820180604052508101906119a39190614069565b6119bf5760405162461bcd60e51b815260040161065c90614776565b6000838152600c60205260409020546001600160a01b03166119df612563565b6001600160a01b03167fb7ca9e3aa58248cbaa6a5f83ca826cc57bf8ecd128fd88da420e294353c652f98385604051611a199291906150e9565b60405180910390a3505050565b611a527f65d7a28e3265b37a6474929f336521b332c1681b933f6cb9f3376673440d862a610541612563565b611a6e5760405162461bcd60e51b815260040161065c90614d63565b6111cd612d69565b6000828152600160205260408120611a8e9083612dc4565b9392505050565b6000918252602082815260408084206001600160a01b0393909316845291905290205460ff1690565b60065460408051634a32c6bf60e11b815290516001600160a01b03909216916391d148549183916394658d7e91600480820192602092909190829003018186803b158015611b0b57600080fd5b505afa158015611b1f573d6000803e3d6000fd5b505050506040513d601f19601f82011682018060405250810190611b43919061409d565b611b4b612563565b6040518363ffffffff1660e01b8152600401611b68929190614598565b60206040518083038186803b158015611b8057600080fd5b505afa158015611b94573d6000803e3d6000fd5b505050506040513d601f19601f82011682018060405250810190611bb89190614069565b611bd45760405162461bcd60e51b815260040161065c90614dc0565b61115660098383613872565b6000611bf3611bed612563565b83610634565b11611c105760405162461bcd60e51b815260040161065c90614ed7565b611c23611c1b612563565b826001612c56565b6000818152600b60205260409020546001600160a01b03166342842e0e30611c49612563565b6000858152600b6020526040908190206001015490516001600160e01b031960e086901b168152611c7f9392919060040161438c565b600060405180830381600087803b158015611c9957600080fd5b505af1158015611cad573d6000803e3d6000fd5b5050506000828152600b60205260409020546001600160a01b03169050611cd2612563565b6001600160a01b03167fea7b88a04220a2292e142652e8e1a59cc00e7d27d8ad6b11da6cf5870e6ba866600b60008581526020019081526020016000206001015484604051611d229291906150e9565b60405180910390a350565b600081565b816001600160a01b0316611d44612563565b6001600160a01b03161415611d6b5760405162461bcd60e51b815260040161065c90614e1d565b8060036000611d78612563565b6001600160a01b03908116825260208083019390935260409182016000908120918716808252919093529120805460ff191692151592909217909155611dbc612563565b6001600160a01b03167f17307eab39ab6107e8899845ad3d59bd9653f200f220920489ca2b5937696c3183604051611df49190614584565b60405180910390a35050565b60098054611e0d90615299565b80601f0160208091040260200160405190810160405280929190818152602001828054611e3990615299565b8015611e865780601f10611e5b57610100808354040283529160200191611e86565b820191906000526020600020905b815481529060010190602001808311611e6957829003601f168201915b505050505081565b60085481565b600081815260016020526040812061068a90612dd0565b7f9f2df0fed2c77648de5860a4cc508cd0818c85b8b8a1ab4ceeef8d981c8956a681565b6111658282612ddb565b600660009054906101000a90046001600160a01b03166001600160a01b0316639d2f83f06040518163ffffffff1660e01b815260040160206040518083038186803b158015611f2757600080fd5b505afa158015611f3b573d6000803e3d6000fd5b505050506040513d601f19601f82011682018060405250810190611f5f9190614069565b15611f7c5760405162461bcd60e51b815260040161065c90614c3f565b83856001600160a01b03166370a08231611f94612563565b6040518263ffffffff1660e01b8152600401611fb09190614300565b60206040518083038186803b158015611fc857600080fd5b505afa158015611fdc573d6000803e3d6000fd5b505050506040513d601f19601f82011682018060405250810190612000919061409d565b101561201e5760405162461bcd60e51b815260040161065c90614c9c565b83856001600160a01b031663dd62ed3e612036612563565b306040518363ffffffff1660e01b8152600401612054929190614314565b60206040518083038186803b15801561206c57600080fd5b505afa158015612080573d6000803e3d6000fd5b505050506040513d601f19601f820116820180604052508101906120a4919061409d565b10156120c25760405162461bcd60e51b815260040161065c906149c2565b846001600160a01b03166323b872dd6120d9612563565b30876040518463ffffffff1660e01b81526004016120f99392919061438c565b602060405180830381600087803b15801561211357600080fd5b505af1158015612127573d6000803e3d6000fd5b505050506040513d601f19601f8201168201806040525081019061214b9190614069565b6121675760405162461bcd60e51b815260040161065c90614776565b61218b612172612563565b600754856040518060200160405280600081525061170c565b604051806080016040528061219e612563565b6001600160a01b0316815260200183838080601f01602080910402602001604051908101604052809392919081815260200183838082843760009201919091525050509082525060208101859052604001600190526007546000908152600a60209081526040909120825181546001600160a01b0319166001600160a01b03909116178155828201518051919261223d926001850192909101906137ee565b506040820151816002015560608201518160030160006101000a81548160ff0219169083600281111561228057634e487b7160e01b600052602160045260246000fd5b021790555050604080516060810182526001600160a01b0388811680835260208084018981528486018b81526007546000908152600c90935295909120935184546001600160a01b031916931692909217835590516001830155915160029091015590506122ec612563565b6001600160a01b03167fd8bffec4446d425694f73630f7822315baa62da5311e89f0d83335ef6a3917ba8686868660405161232a94939291906150f7565b60405180910390a360078054906000612342836152d4565b91905055505050505050565b600b60205260009081526040902080546001909101546001600160a01b039091169082565b7f65d7a28e3265b37a6474929f336521b332c1681b933f6cb9f3376673440d862a81565b6060600980546123a690615299565b80601f01602080910402602001604051908101604052809291908181526020018280546123d290615299565b801561241f5780601f106123f45761010080835404028352916020019161241f565b820191906000526020600020905b81548152906001019060200180831161240257829003601f168201915b5050505050905090565b6001600160a01b03918216600090815260036020908152604080832093909416825291909152205460ff1690565b61245f612563565b6001600160a01b0316856001600160a01b03161480612485575061248585610609612563565b6124a15760405162461bcd60e51b815260040161065c906148d1565b61112d8585858585612dfa565b6124b6612563565b6001600160a01b0316836001600160a01b031614806124dc57506124dc83610609612563565b6124f85760405162461bcd60e51b815260040161065c906148d1565b611156838383612c56565b600061250e33611694565b15612522575060131936013560601c6116b4565b61252a612554565b90506116b4565b61253b8282612f32565b5050565b6000611a8e836001600160a01b038416612fb7565b3390565b600061068a82613001565b600061256d612503565b905090565b6001600160a01b0384166125985760405162461bcd60e51b815260040161065c9061504b565b81518351146125b95760405162461bcd60e51b815260040161065c90614fee565b60006125c3612563565b90506125d481600087878787613041565b60005b845181101561268c5783818151811061260057634e487b7160e01b600052603260045260246000fd5b60200260200101516002600087848151811061262c57634e487b7160e01b600052603260045260246000fd5b602002602001015181526020019081526020016000206000886001600160a01b03166001600160a01b03168152602001908152602001600020600082825461267491906151e8565b90915550819050612684816152d4565b9150506125d7565b50846001600160a01b031660006001600160a01b0316826001600160a01b03167f4a39dc06d4c0dbc64b70af90fd698a233a518aa5d07e595d983b8c0526c8f7fb87876040516126dd929190614556565b60405180910390a461112d816000878787876130f5565b81518351146127155760405162461bcd60e51b815260040161065c90614fee565b6001600160a01b03841661273b5760405162461bcd60e51b815260040161065c90614a2b565b6000612745612563565b9050612755818787878787613041565b60005b845181101561285a57600085828151811061278357634e487b7160e01b600052603260045260246000fd5b6020026020010151905060008583815181106127af57634e487b7160e01b600052603260045260246000fd5b60209081029190910181015160008481526002835260408082206001600160a01b038e1683529093529190912054909150818110156128005760405162461bcd60e51b815260040161065c90614b85565b60008381526002602090815260408083206001600160a01b038e8116855292528083208585039055908b1682528120805484929061283f9084906151e8565b9250508190555050505080612853906152d4565b9050612758565b50846001600160a01b0316866001600160a01b0316826001600160a01b03167f4a39dc06d4c0dbc64b70af90fd698a233a518aa5d07e595d983b8c0526c8f7fb87876040516128aa929190614556565b60405180910390a46128c08187878787876130f5565b505050505050565b6128d182611000565b6128e2816128dd612563565b613203565b6111568383612f32565b6128f4612563565b6001600160a01b0316816001600160a01b0316146129245760405162461bcd60e51b815260040161065c9061508c565b61253b8282613267565b6000611a8e836001600160a01b0384166132ea565b61294b6116ad565b6129675760405162461bcd60e51b815260040161065c906146e2565b6005805460ff191690557f5db9ee0a495bf2e6ff9c91a7834c1ba4fdd244a5e8aa4e537bd38aeae4b073aa61299a612563565b6040516129a79190614300565b60405180910390a1565b6001600160a01b0383166129d75760405162461bcd60e51b815260040161065c90614ae5565b80518251146129f85760405162461bcd60e51b815260040161065c90614fee565b6000612a02612563565b9050612a2281856000868660405180602001604052806000815250613041565b60005b8351811015612b06576000848281518110612a5057634e487b7160e01b600052603260045260246000fd5b602002602001015190506000848381518110612a7c57634e487b7160e01b600052603260045260246000fd5b60209081029190910181015160008481526002835260408082206001600160a01b038c168352909352919091205490915081811015612acd5760405162461bcd60e51b815260040161065c906147d3565b60009283526002602090815260408085206001600160a01b038b1686529091529092209103905580612afe816152d4565b915050612a25565b5060006001600160a01b0316846001600160a01b0316826001600160a01b03167f4a39dc06d4c0dbc64b70af90fd698a233a518aa5d07e595d983b8c0526c8f7fb8686604051612b57929190614556565b60405180910390a450505050565b6001600160a01b038416612b8b5760405162461bcd60e51b815260040161065c9061504b565b6000612b95612563565b9050612bb681600087612ba788613407565b612bb088613407565b87613041565b60008481526002602090815260408083206001600160a01b038916845290915281208054859290612be89084906151e8565b92505081905550846001600160a01b031660006001600160a01b0316826001600160a01b03167fc3d58168c5ae7397731d063d5bbf3d657854427343f4c083240f7aacaa2d0f628787604051612c3f9291906150e9565b60405180910390a461112d81600087878787613460565b6001600160a01b038316612c7c5760405162461bcd60e51b815260040161065c90614ae5565b6000612c86612563565b9050612cb681856000612c9887613407565b612ca187613407565b60405180602001604052806000815250613041565b60008381526002602090815260408083206001600160a01b038816845290915290205482811015612cf95760405162461bcd60e51b815260040161065c906147d3565b60008481526002602090815260408083206001600160a01b03808a16808652919093528184208786039055905190918516907fc3d58168c5ae7397731d063d5bbf3d657854427343f4c083240f7aacaa2d0f6290612d5a90899089906150e9565b60405180910390a45050505050565b612d716116ad565b15612d8e5760405162461bcd60e51b815260040161065c9061498b565b6005805460ff191660011790557f62e78cea01bee320cd4e420270b5ea74000d11b0c9f74754ebdbfc544b05a25861299a612563565b6000611a8e8383613531565b600061068a82613569565b612de482611000565b612df0816128dd612563565b6111568383613267565b6001600160a01b038416612e205760405162461bcd60e51b815260040161065c90614a2b565b6000612e2a612563565b9050612e3b818787612ba788613407565b60008481526002602090815260408083206001600160a01b038a16845290915290205483811015612e7e5760405162461bcd60e51b815260040161065c90614b85565b60008581526002602090815260408083206001600160a01b038b8116855292528083208785039055908816825281208054869290612ebd9084906151e8565b92505081905550856001600160a01b0316876001600160a01b0316836001600160a01b03167fc3d58168c5ae7397731d063d5bbf3d657854427343f4c083240f7aacaa2d0f628888604051612f139291906150e9565b60405180910390a4612f29828888888888613460565b50505050505050565b612f3c8282611a95565b61253b576000828152602081815260408083206001600160a01b03851684529091529020805460ff19166001179055612f73612563565b6001600160a01b0316816001600160a01b0316837f2f8788117e7eff1d82e926ec794901d17c78024a50270940304540a733656f0d60405160405180910390a45050565b6000612fc3838361356d565b612ff95750815460018181018455600084815260208082209093018490558454848252828601909352604090209190915561068a565b50600061068a565b60006001600160e01b03198216636cdb3d1360e11b148061303257506001600160e01b031982166303a24d0760e21b145b8061068a575061068a82613585565b61304f8686868686866135aa565b6001600160a01b0384166128c05760005b8351811015612f295782818151811061308957634e487b7160e01b600052603260045260246000fd5b6020026020010151600a60008684815181106130b557634e487b7160e01b600052603260045260246000fd5b6020026020010151815260200190815260200160002060020160008282546130dd919061523f565b909155508190506130ed816152d4565b915050613060565b613107846001600160a01b03166135b8565b156128c05760405163bc197c8160e01b81526001600160a01b0385169063bc197c8190613140908990899088908890889060040161432e565b602060405180830381600087803b15801561315a57600080fd5b505af192505050801561318a575060408051601f3d908101601f1916820190925261318791810190614116565b60015b6131d357613196615321565b806131a157506131bb565b8060405162461bcd60e51b815260040161065c91906145e0565b60405162461bcd60e51b815260040161065c906145f3565b6001600160e01b0319811663bc197c8160e01b14612f295760405162461bcd60e51b815260040161065c90614685565b61320d8282611a95565b61253b57613225816001600160a01b031660146135be565b6132308360206135be565b60405160200161324192919061427f565b60408051601f198184030181529082905262461bcd60e51b825261065c916004016145e0565b6132718282611a95565b1561253b576000828152602081815260408083206001600160a01b03851684529091529020805460ff191690556132a6612563565b6001600160a01b0316816001600160a01b0316837ff6391f5c32d9c69d2a47ea670b442974b53935d1edc7fd64eb21e047a839171b60405160405180910390a45050565b600081815260018301602052604081205480156133fd57600061330e60018361523f565b85549091506000906133229060019061523f565b90508181146133a357600086600001828154811061335057634e487b7160e01b600052603260045260246000fd5b906000526020600020015490508087600001848154811061338157634e487b7160e01b600052603260045260246000fd5b6000918252602080832090910192909255918252600188019052604090208390555b85548690806133c257634e487b7160e01b600052603160045260246000fd5b60019003818190600052602060002001600090559055856001016000868152602001908152602001600020600090556001935050505061068a565b600091505061068a565b6040805160018082528183019092526060916000919060208083019080368337019050509050828160008151811061344f57634e487b7160e01b600052603260045260246000fd5b602090810291909101015292915050565b613472846001600160a01b03166135b8565b156128c05760405163f23a6e6160e01b81526001600160a01b0385169063f23a6e61906134ab90899089908890889088906004016143b0565b602060405180830381600087803b1580156134c557600080fd5b505af19250505080156134f5575060408051601f3d908101601f191682019092526134f291810190614116565b60015b61350157613196615321565b6001600160e01b0319811663f23a6e6160e01b14612f295760405162461bcd60e51b815260040161065c90614685565b600082600001828154811061355657634e487b7160e01b600052603260045260246000fd5b9060005260206000200154905092915050565b5490565b60009081526001919091016020526040902054151590565b60006001600160e01b03198216635a05180f60e01b148061068a575061068a8261377d565b6128c08686868686866137a2565b3b151590565b606060006135cd836002615220565b6135d89060026151e8565b67ffffffffffffffff8111156135fe57634e487b7160e01b600052604160045260246000fd5b6040519080825280601f01601f191660200182016040528015613628576020820181803683370190505b509050600360fc1b8160008151811061365157634e487b7160e01b600052603260045260246000fd5b60200101906001600160f81b031916908160001a905350600f60fb1b8160018151811061368e57634e487b7160e01b600052603260045260246000fd5b60200101906001600160f81b031916908160001a90535060006136b2846002615220565b6136bd9060016151e8565b90505b600181111561375e577f303132333435363738396162636465660000000000000000000000000000000085600f166010811061370c57634e487b7160e01b600052603260045260246000fd5b1a60f81b82828151811061373057634e487b7160e01b600052603260045260246000fd5b60200101906001600160f81b031916908160001a90535060049490941c9361375781615282565b90506136c0565b508315611a8e5760405162461bcd60e51b815260040161065c90614650565b60006001600160e01b03198216637965db0b60e01b148061068a575061068a826137d5565b6137b08686868686866128c0565b6137b86116ad565b156128c05760405162461bcd60e51b815260040161065c90614874565b6001600160e01b031981166301ffc9a760e01b14919050565b8280546137fa90615299565b90600052602060002090601f01602090048101928261381c5760008555613862565b82601f1061383557805160ff1916838001178555613862565b82800160010185558215613862579182015b82811115613862578251825591602001919060010190613847565b5061386e9291506138e6565b5090565b82805461387e90615299565b90600052602060002090601f0160209004810192826138a05760008555613862565b82601f106138b95782800160ff19823516178555613862565b82800160010185558215613862579182015b828111156138625782358255916020019190600101906138cb565b5b8082111561386e57600081556001016138e7565b60008083601f84011261390c578182fd5b50813567ffffffffffffffff811115613923578182fd5b602083019150836020808302850101111561393d57600080fd5b9250929050565b600082601f830112613954578081fd5b8135602061396961396483615190565b615166565b8281528181019085830183850287018401881015613985578586fd5b855b858110156139a357813584529284019290840190600101613987565b5090979650505050505050565b600082601f8301126139c0578081fd5b813567ffffffffffffffff8111156139da576139da615305565b6139ed601f8201601f1916602001615166565b818152846020838601011115613a01578283fd5b816020850160208301379081016020019190915292915050565b60008083601f840112613a2c578182fd5b50813567ffffffffffffffff811115613a43578182fd5b60208301915083602082850101111561393d57600080fd5b600060208284031215613a6c578081fd5b8135611a8e816153c6565b600060208284031215613a88578081fd5b8151611a8e816153c6565b60008060408385031215613aa5578081fd5b8235613ab0816153c6565b91506020830135613ac0816153c6565b809150509250929050565b600080600080600060a08688031215613ae2578081fd5b8535613aed816153c6565b94506020860135613afd816153c6565b9350604086013567ffffffffffffffff80821115613b19578283fd5b613b2589838a01613944565b94506060880135915080821115613b3a578283fd5b613b4689838a01613944565b93506080880135915080821115613b5b578283fd5b50613b68888289016139b0565b9150509295509295909350565b600080600080600060a08688031215613b8c578081fd5b8535613b97816153c6565b94506020860135613ba7816153c6565b93506040860135925060608601359150608086013567ffffffffffffffff811115613bd0578182fd5b613b68888289016139b0565b60008060008060008060008060008060e08b8d031215613bfa578788fd5b8a35613c05816153c6565b995060208b013567ffffffffffffffff80821115613c2157898afd5b613c2d8e838f016138fb565b909b50995060408d0135915080821115613c45578687fd5b613c518e838f016138fb565b909950975060608d0135915080821115613c69578687fd5b50613c768d828e01613a1b565b9b9e9a9d50989b979a9699969760808101359760a0820135975060c09091013595509350505050565b600080600060608486031215613cb3578081fd5b8335613cbe816153c6565b9250602084013567ffffffffffffffff80821115613cda578283fd5b613ce687838801613944565b93506040860135915080821115613cfb578283fd5b50613d0886828701613944565b9150509250925092565b60008060008060808587031215613d27578182fd5b8435613d32816153c6565b9350602085013567ffffffffffffffff80821115613d4e578384fd5b613d5a88838901613944565b94506040870135915080821115613d6f578384fd5b613d7b88838901613944565b93506060870135915080821115613d90578283fd5b50613d9d878288016139b0565b91505092959194509250565b60008060408385031215613dbb578182fd5b8235613dc6816153c6565b91506020830135613ac0816153de565b60008060408385031215613de8578182fd5b8235613df3816153c6565b946020939093013593505050565b60008060008060608587031215613e16578182fd5b8435613e21816153c6565b935060208501359250604085013567ffffffffffffffff811115613e43578283fd5b613e4f87828801613a1b565b95989497509550505050565b600080600060608486031215613e6f578081fd5b8335613e7a816153c6565b95602085013595506040909401359392505050565b60008060008060808587031215613ea4578182fd5b8435613eaf816153c6565b93506020850135925060408501359150606085013567ffffffffffffffff811115613ed8578182fd5b613d9d878288016139b0565b600080600080600060808688031215613efb578283fd5b8535613f06816153c6565b94506020860135935060408601359250606086013567ffffffffffffffff811115613f2f578182fd5b613f3b88828901613a1b565b969995985093965092949392505050565b60008060408385031215613f5e578182fd5b823567ffffffffffffffff80821115613f75578384fd5b818501915085601f830112613f88578384fd5b81356020613f9861396483615190565b82815281810190858301838502870184018b1015613fb4578889fd5b8896505b84871015613fdf578035613fcb816153c6565b835260019690960195918301918301613fb8565b5096505086013592505080821115613ff5578283fd5b5061400285828601613944565b9150509250929050565b60008060008060408587031215614021578182fd5b843567ffffffffffffffff80821115614038578384fd5b614044888389016138fb565b9096509450602087013591508082111561405c578384fd5b50613e4f878288016138fb565b60006020828403121561407a578081fd5b8151611a8e816153de565b600060208284031215614096578081fd5b5035919050565b6000602082840312156140ae578081fd5b5051919050565b600080604083850312156140c7578182fd5b823591506020830135613ac0816153c6565b600080604083850312156140eb578182fd5b50508035926020909101359150565b60006020828403121561410b578081fd5b8135611a8e816153ec565b600060208284031215614127578081fd5b8151611a8e816153ec565b60008060208385031215614144578182fd5b823567ffffffffffffffff81111561415a578283fd5b61416685828601613a1b565b90969095509350505050565b600060208284031215614183578081fd5b81516fffffffffffffffffffffffffffffffff81168114611a8e578182fd5b60008284527f07ffffffffffffffffffffffffffffffffffffffffffffffffffffffffffffff8311156141d3578081fd5b6020830280836020870137939093016020019283525090919050565b6000815180845260208085019450808401835b8381101561421e57815187529582019590820190600101614202565b509495945050505050565b60008151808452614241816020860160208601615256565b601f01601f19169290920160200192915050565b60008284528282602086013780602084860101526020601f19601f85011685010190509392505050565b60007f416363657373436f6e74726f6c3a206163636f756e7420000000000000000000825283516142b7816017850160208801615256565b7f206973206d697373696e6720726f6c652000000000000000000000000000000060179184019182015283516142f4816028840160208801615256565b01602801949350505050565b6001600160a01b0391909116815260200190565b6001600160a01b0392831681529116602082015260400190565b60006001600160a01b03808816835280871660208401525060a0604083015261435a60a08301866141ef565b828103606084015261436c81866141ef565b905082810360808401526143808185614229565b98975050505050505050565b6001600160a01b039384168152919092166020820152604081019190915260600190565b60006001600160a01b03808816835280871660208401525084604083015283606083015260a060808301526143e860a0830184614229565b979650505050505050565b60006001600160a01b0386168252608060208301526144156080830186614229565b90508360408301526003831061443b57634e487b7160e01b600052602160045260246000fd5b82606083015295945050505050565b6001600160a01b03929092168252602082015260400190565b6001600160a01b039390931683526020830191909152604082015260600190565b600060208252611a8e60208301846141ef565b6000606082526144aa60608301886141ef565b6020838203818501528187835281830190508182890284010189855b8a81101561453257858303601f190184528135368d9003601e190181126144eb578788fd5b8c01803567ffffffffffffffff811115614503578889fd5b8036038e1315614511578889fd5b61451e8582898501614255565b9587019594505050908401906001016144c6565b5050858103604087015261454781888a6141a2565b9b9a5050505050505050505050565b60006040825261456960408301856141ef565b828103602084015261457b81856141ef565b95945050505050565b901515815260200190565b90815260200190565b9182526001600160a01b0316602082015260400190565b6000608082526145c3608083018789614255565b602083019590955250604081019290925260609091015292915050565b600060208252611a8e6020830184614229565b60208082526034908201527f455243313135353a207472616e7366657220746f206e6f6e204552433131353560408201527f526563656976657220696d706c656d656e746572000000000000000000000000606082015260800190565b6020808252818101527f537472696e67733a20686578206c656e67746820696e73756666696369656e74604082015260600190565b60208082526028908201527f455243313135353a204552433131353552656365697665722072656a6563746560408201527f6420746f6b656e73000000000000000000000000000000000000000000000000606082015260800190565b60208082526014908201527f5061757361626c653a206e6f7420706175736564000000000000000000000000604082015260600190565b6020808252602b908201527f455243313135353a2062616c616e636520717565727920666f7220746865207a60408201527f65726f2061646472657373000000000000000000000000000000000000000000606082015260800190565b6020808252602f908201527f4e4654436f6c6c656374696f6e3a204661696c656420746f207472616e73666560408201527f7220455243323020746f6b656e732e0000000000000000000000000000000000606082015260800190565b60208082526024908201527f455243313135353a206275726e20616d6f756e7420657863656564732062616c604082015263616e636560e01b606082015260800190565b6020808252603d908201527f4e4654436f6c6c656374696f6e3a204d75737420617070726f7665207468652060408201527f636f6e747261637420746f207472616e7366657220746865204e46542e000000606082015260800190565b6020808252602c908201527f455243313135355061757361626c653a20746f6b656e207472616e736665722060408201527f7768696c65207061757365640000000000000000000000000000000000000000606082015260800190565b60208082526029908201527f455243313135353a2063616c6c6572206973206e6f74206f776e6572206e6f7260408201527f20617070726f7665640000000000000000000000000000000000000000000000606082015260800190565b6020808252603a908201527f4e4654436f6c6c656374696f6e3a204d7573742073706563696679206571756160408201527f6c206e756d626572206f6620636f6e6669672076616c7565732e000000000000606082015260800190565b60208082526010908201527f5061757361626c653a2070617573656400000000000000000000000000000000604082015260600190565b60208082526043908201527f4e4654436f6c6c656374696f6e3a204d75737420617070726f7665207468697360408201527f20636f6e747261637420746f207472616e7366657220455243323020746f6b6560608201526237399760e91b608082015260a00190565b60208082526025908201527f455243313135353a207472616e7366657220746f20746865207a65726f20616460408201527f6472657373000000000000000000000000000000000000000000000000000000606082015260800190565b60208082526032908201527f455243313135353a207472616e736665722063616c6c6572206973206e6f742060408201527f6f776e6572206e6f7220617070726f7665640000000000000000000000000000606082015260800190565b60208082526023908201527f455243313135353a206275726e2066726f6d20746865207a65726f206164647260408201526265737360e81b606082015260800190565b60208082526038908201527f455243313135355072657365744d696e7465725061757365723a206d7573742060408201527f68617665206d696e74657220726f6c6520746f206d696e740000000000000000606082015260800190565b6020808252602a908201527f455243313135353a20696e73756666696369656e742062616c616e636520666f60408201527f72207472616e7366657200000000000000000000000000000000000000000000606082015260800190565b60208082526033908201527f4e4654436f6c6c656374696f6e3a204270732070726f7669646564206d75737460408201527f206265206c657373207468616e20392c30303000000000000000000000000000606082015260800190565b60208082526026908201527f4e4654436f6c6c656374696f6e3a205468652070726f746f636f6c206973207060408201527f61757365642e0000000000000000000000000000000000000000000000000000606082015260800190565b60208082526044908201527f4e4654436f6c6c656374696f6e3a204d757374206f776e2074686520616d6f7560408201527f6e74206f6620746f6b656e73207468617420617265206265696e6720777261706060820152633832b21760e11b608082015260a00190565b6020808252603b908201527f455243313135355072657365744d696e7465725061757365723a206d7573742060408201527f686176652070617573657220726f6c6520746f20756e70617573650000000000606082015260800190565b60208082526039908201527f455243313135355072657365744d696e7465725061757365723a206d7573742060408201527f686176652070617573657220726f6c6520746f20706175736500000000000000606082015260800190565b6020808252603c908201527f4e4654436f6c6c656374696f6e3a206f6e6c7920612070726f746f636f6c206160408201527f646d696e2063616e2063616c6c20746869732066756e6374696f6e2e00000000606082015260800190565b60208082526029908201527f455243313135353a2073657474696e6720617070726f76616c2073746174757360408201527f20666f722073656c660000000000000000000000000000000000000000000000606082015260800190565b60208082526029908201527f455243313135353a206163636f756e747320616e6420696473206c656e67746860408201527f206d69736d617463680000000000000000000000000000000000000000000000606082015260800190565b60208082526033908201527f4e4654436f6c6c656374696f6e3a2043616e6e6f742072656465656d20616e2060408201527f4e465420796f7520646f206e6f74206f776e2e00000000000000000000000000606082015260800190565b60208082526035908201527f4e4654436f6c6c656374696f6e3a204f6e6c7920746865206f776e6572206f6660408201527f20746865204e46542063616e20777261702069742e0000000000000000000000606082015260800190565b6020808252602c908201527f4e4654436f6c6c656374696f6e3a204d75737420637265617465206174206c6560408201527f617374206f6e65204e46542e0000000000000000000000000000000000000000606082015260800190565b60208082526028908201527f455243313135353a2069647320616e6420616d6f756e7473206c656e6774682060408201527f6d69736d61746368000000000000000000000000000000000000000000000000606082015260800190565b60208082526021908201527f455243313135353a206d696e7420746f20746865207a65726f206164647265736040820152607360f81b606082015260800190565b6020808252602f908201527f416363657373436f6e74726f6c3a2063616e206f6e6c792072656e6f756e636560408201527f20726f6c657320666f722073656c660000000000000000000000000000000000606082015260800190565b918252602082015260400190565b600085825284602083015260606040830152615117606083018486614255565b9695505050505050565b6000808335601e19843603018112615137578283fd5b83018035915067ffffffffffffffff821115615151578283fd5b60200191503681900382131561393d57600080fd5b60405181810167ffffffffffffffff8111828210171561518857615188615305565b604052919050565b600067ffffffffffffffff8211156151aa576151aa615305565b5060209081020190565b60006fffffffffffffffffffffffffffffffff8083168185168083038211156151df576151df6152ef565b01949350505050565b600082198211156151fb576151fb6152ef565b500190565b60008261521b57634e487b7160e01b81526012600452602481fd5b500490565b600081600019048311821515161561523a5761523a6152ef565b500290565b600082821015615251576152516152ef565b500390565b60005b83811015615271578181015183820152602001615259565b83811115610f3b5750506000910152565b600081615291576152916152ef565b506000190190565b6002810460018216806152ad57607f821691505b602082108114156152ce57634e487b7160e01b600052602260045260246000fd5b50919050565b60006000198214156152e8576152e86152ef565b5060010190565b634e487b7160e01b600052601160045260246000fd5b634e487b7160e01b600052604160045260246000fd5b60e01c90565b600060443d1015615331576116b4565b600481823e6308c379a0615345825161531b565b1461534f576116b4565b6040513d600319016004823e80513d67ffffffffffffffff816024840111818411171561537f57505050506116b4565b8284019250825191508082111561539957505050506116b4565b503d830160208284010111156153b1575050506116b4565b601f01601f1916810160200160405291505090565b6001600160a01b03811681146153db57600080fd5b50565b80151581146153db57600080fd5b6001600160e01b0319811681146153db57600080fdfea164736f6c6343000800000a",
  "linkReferences": {},
  "deployedLinkReferences": {}
}