{
  "_format": "hh-sol-artifact-1",
  "contractName": "NFTCollection",
  "sourceName": "contracts/NFTCollection.sol",
  "abi": [
    {
      "inputs": [
        {
          "internalType": "address",
          "name": "_controlCenter",
          "type": "address"
        },
        {
          "internalType": "address",
          "name": "_trustedForwarder",
          "type": "address"
        },
        {
          "internalType": "string",
          "name": "_uri",
          "type": "string"
        }
      ],
      "stateMutability": "nonpayable",
      "type": "constructor"
    },
    {
      "anonymous": false,
      "inputs": [
        {
          "indexed": true,
          "internalType": "address",
          "name": "account",
          "type": "address"
        },
        {
          "indexed": true,
          "internalType": "address",
          "name": "operator",
          "type": "address"
        },
        {
          "indexed": false,
          "internalType": "bool",
          "name": "approved",
          "type": "bool"
        }
      ],
      "name": "ApprovalForAll",
      "type": "event"
    },
    {
      "anonymous": false,
      "inputs": [
        {
          "indexed": true,
          "internalType": "address",
          "name": "redeemer",
          "type": "address"
        },
        {
          "indexed": true,
          "internalType": "uint256",
          "name": "tokenId",
          "type": "uint256"
        },
        {
          "indexed": true,
          "internalType": "address",
          "name": "sourceOfUnderlying",
          "type": "address"
        },
        {
          "indexed": false,
          "internalType": "uint256",
          "name": "tokenAmountReceived",
          "type": "uint256"
        },
        {
          "indexed": false,
          "internalType": "uint256",
          "name": "sharesRedeemed",
          "type": "uint256"
        }
      ],
      "name": "ERC20Redeemed",
      "type": "event"
    },
    {
      "anonymous": false,
      "inputs": [
        {
          "indexed": true,
          "internalType": "address",
          "name": "creator",
          "type": "address"
        },
        {
          "indexed": true,
          "internalType": "address",
          "name": "sourceOfUnderlying",
          "type": "address"
        },
        {
          "indexed": false,
          "internalType": "uint256",
          "name": "totalAmountOfUnderlying",
          "type": "uint256"
        },
        {
          "indexed": false,
          "internalType": "uint256",
          "name": "shares",
          "type": "uint256"
        },
        {
          "indexed": false,
          "internalType": "uint256",
          "name": "tokenId",
          "type": "uint256"
        },
        {
          "indexed": false,
          "internalType": "string",
          "name": "tokenURI",
          "type": "string"
        }
      ],
      "name": "ERC20WrappedToken",
      "type": "event"
    },
    {
      "anonymous": false,
      "inputs": [
        {
          "indexed": true,
          "internalType": "address",
          "name": "redeemer",
          "type": "address"
        },
        {
          "indexed": true,
          "internalType": "address",
          "name": "sourceOfUnderlying",
          "type": "address"
        },
        {
          "indexed": false,
          "internalType": "uint256",
          "name": "tokenIdOfUnderlying",
          "type": "uint256"
        },
        {
          "indexed": false,
          "internalType": "uint256",
          "name": "tokenId",
          "type": "uint256"
        }
      ],
      "name": "ERC721Redeemed",
      "type": "event"
    },
    {
      "anonymous": false,
      "inputs": [
        {
          "indexed": true,
          "internalType": "address",
          "name": "creator",
          "type": "address"
        },
        {
          "indexed": true,
          "internalType": "address",
          "name": "sourceOfUnderlying",
          "type": "address"
        },
        {
          "indexed": false,
          "internalType": "uint256",
          "name": "tokenIdOfUnderlying",
          "type": "uint256"
        },
        {
          "indexed": false,
          "internalType": "uint256",
          "name": "tokenId",
          "type": "uint256"
        },
        {
          "indexed": false,
          "internalType": "string",
          "name": "tokenURI",
          "type": "string"
        }
      ],
      "name": "ERC721WrappedToken",
      "type": "event"
    },
    {
      "anonymous": false,
      "inputs": [
        {
          "indexed": true,
          "internalType": "address",
          "name": "creator",
          "type": "address"
        },
        {
          "indexed": false,
          "internalType": "uint256[]",
          "name": "tokenIds",
          "type": "uint256[]"
        },
        {
          "indexed": false,
          "internalType": "string[]",
          "name": "tokenURIs",
          "type": "string[]"
        },
        {
          "indexed": false,
          "internalType": "uint256[]",
          "name": "tokenSupplies",
          "type": "uint256[]"
        }
      ],
      "name": "NativeTokens",
      "type": "event"
    },
    {
      "anonymous": false,
      "inputs": [
        {
          "indexed": false,
          "internalType": "address",
          "name": "account",
          "type": "address"
        }
      ],
      "name": "Paused",
      "type": "event"
    },
    {
      "anonymous": false,
      "inputs": [
        {
          "indexed": false,
          "internalType": "bool",
          "name": "transferable",
          "type": "bool"
        }
      ],
      "name": "RestrictedTransferUpdated",
      "type": "event"
    },
    {
      "anonymous": false,
      "inputs": [
        {
          "indexed": true,
          "internalType": "bytes32",
          "name": "role",
          "type": "bytes32"
        },
        {
          "indexed": true,
          "internalType": "bytes32",
          "name": "previousAdminRole",
          "type": "bytes32"
        },
        {
          "indexed": true,
          "internalType": "bytes32",
          "name": "newAdminRole",
          "type": "bytes32"
        }
      ],
      "name": "RoleAdminChanged",
      "type": "event"
    },
    {
      "anonymous": false,
      "inputs": [
        {
          "indexed": true,
          "internalType": "bytes32",
          "name": "role",
          "type": "bytes32"
        },
        {
          "indexed": true,
          "internalType": "address",
          "name": "account",
          "type": "address"
        },
        {
          "indexed": true,
          "internalType": "address",
          "name": "sender",
          "type": "address"
        }
      ],
      "name": "RoleGranted",
      "type": "event"
    },
    {
      "anonymous": false,
      "inputs": [
        {
          "indexed": true,
          "internalType": "bytes32",
          "name": "role",
          "type": "bytes32"
        },
        {
          "indexed": true,
          "internalType": "address",
          "name": "account",
          "type": "address"
        },
        {
          "indexed": true,
          "internalType": "address",
          "name": "sender",
          "type": "address"
        }
      ],
      "name": "RoleRevoked",
      "type": "event"
    },
    {
      "anonymous": false,
      "inputs": [
        {
          "indexed": false,
          "internalType": "uint256",
          "name": "royaltyBps",
          "type": "uint256"
        }
      ],
      "name": "RoyaltyUpdated",
      "type": "event"
    },
    {
      "anonymous": false,
      "inputs": [
        {
          "indexed": true,
          "internalType": "address",
          "name": "operator",
          "type": "address"
        },
        {
          "indexed": true,
          "internalType": "address",
          "name": "from",
          "type": "address"
        },
        {
          "indexed": true,
          "internalType": "address",
          "name": "to",
          "type": "address"
        },
        {
          "indexed": false,
          "internalType": "uint256[]",
          "name": "ids",
          "type": "uint256[]"
        },
        {
          "indexed": false,
          "internalType": "uint256[]",
          "name": "values",
          "type": "uint256[]"
        }
      ],
      "name": "TransferBatch",
      "type": "event"
    },
    {
      "anonymous": false,
      "inputs": [
        {
          "indexed": true,
          "internalType": "address",
          "name": "operator",
          "type": "address"
        },
        {
          "indexed": true,
          "internalType": "address",
          "name": "from",
          "type": "address"
        },
        {
          "indexed": true,
          "internalType": "address",
          "name": "to",
          "type": "address"
        },
        {
          "indexed": false,
          "internalType": "uint256",
          "name": "id",
          "type": "uint256"
        },
        {
          "indexed": false,
          "internalType": "uint256",
          "name": "value",
          "type": "uint256"
        }
      ],
      "name": "TransferSingle",
      "type": "event"
    },
    {
      "anonymous": false,
      "inputs": [
        {
          "indexed": false,
          "internalType": "string",
          "name": "value",
          "type": "string"
        },
        {
          "indexed": true,
          "internalType": "uint256",
          "name": "id",
          "type": "uint256"
        }
      ],
      "name": "URI",
      "type": "event"
    },
    {
      "anonymous": false,
      "inputs": [
        {
          "indexed": false,
          "internalType": "address",
          "name": "account",
          "type": "address"
        }
      ],
      "name": "Unpaused",
      "type": "event"
    },
    {
      "inputs": [],
      "name": "DEFAULT_ADMIN_ROLE",
      "outputs": [
        {
          "internalType": "bytes32",
          "name": "",
          "type": "bytes32"
        }
      ],
      "stateMutability": "view",
      "type": "function"
    },
    {
      "inputs": [],
      "name": "MINTER_ROLE",
      "outputs": [
        {
          "internalType": "bytes32",
          "name": "",
          "type": "bytes32"
        }
      ],
      "stateMutability": "view",
      "type": "function"
    },
    {
      "inputs": [],
      "name": "PAUSER_ROLE",
      "outputs": [
        {
          "internalType": "bytes32",
          "name": "",
          "type": "bytes32"
        }
      ],
      "stateMutability": "view",
      "type": "function"
    },
    {
      "inputs": [],
      "name": "TRANSFER_ROLE",
      "outputs": [
        {
          "internalType": "bytes32",
          "name": "",
          "type": "bytes32"
        }
      ],
      "stateMutability": "view",
      "type": "function"
    },
    {
      "inputs": [],
      "name": "_contractURI",
      "outputs": [
        {
          "internalType": "string",
          "name": "",
          "type": "string"
        }
      ],
      "stateMutability": "view",
      "type": "function"
    },
    {
      "inputs": [
        {
          "internalType": "address",
          "name": "account",
          "type": "address"
        },
        {
          "internalType": "uint256",
          "name": "id",
          "type": "uint256"
        }
      ],
      "name": "balanceOf",
      "outputs": [
        {
          "internalType": "uint256",
          "name": "",
          "type": "uint256"
        }
      ],
      "stateMutability": "view",
      "type": "function"
    },
    {
      "inputs": [
        {
          "internalType": "address[]",
          "name": "accounts",
          "type": "address[]"
        },
        {
          "internalType": "uint256[]",
          "name": "ids",
          "type": "uint256[]"
        }
      ],
      "name": "balanceOfBatch",
      "outputs": [
        {
          "internalType": "uint256[]",
          "name": "",
          "type": "uint256[]"
        }
      ],
      "stateMutability": "view",
      "type": "function"
    },
    {
      "inputs": [
        {
          "internalType": "address",
          "name": "account",
          "type": "address"
        },
        {
          "internalType": "uint256",
          "name": "id",
          "type": "uint256"
        },
        {
          "internalType": "uint256",
          "name": "value",
          "type": "uint256"
        }
      ],
      "name": "burn",
      "outputs": [],
      "stateMutability": "nonpayable",
      "type": "function"
    },
    {
      "inputs": [
        {
          "internalType": "address",
          "name": "account",
          "type": "address"
        },
        {
          "internalType": "uint256[]",
          "name": "ids",
          "type": "uint256[]"
        },
        {
          "internalType": "uint256[]",
          "name": "values",
          "type": "uint256[]"
        }
      ],
      "name": "burnBatch",
      "outputs": [],
      "stateMutability": "nonpayable",
      "type": "function"
    },
    {
      "inputs": [],
      "name": "contractURI",
      "outputs": [
        {
          "internalType": "string",
          "name": "",
          "type": "string"
        }
      ],
      "stateMutability": "view",
      "type": "function"
    },
    {
      "inputs": [
        {
          "internalType": "address",
          "name": "to",
          "type": "address"
        },
        {
          "internalType": "string[]",
          "name": "_nftURIs",
          "type": "string[]"
        },
        {
          "internalType": "uint256[]",
          "name": "_nftSupplies",
          "type": "uint256[]"
        },
        {
          "internalType": "bytes",
          "name": "data",
          "type": "bytes"
        }
      ],
      "name": "createNativeTokens",
      "outputs": [
        {
          "internalType": "uint256[]",
          "name": "nftIds",
          "type": "uint256[]"
        }
      ],
      "stateMutability": "nonpayable",
      "type": "function"
    },
    {
      "inputs": [
        {
          "internalType": "uint256",
          "name": "_nftId",
          "type": "uint256"
        }
      ],
      "name": "creator",
      "outputs": [
        {
          "internalType": "address",
          "name": "",
          "type": "address"
        }
      ],
      "stateMutability": "view",
      "type": "function"
    },
    {
      "inputs": [
        {
          "internalType": "uint256",
          "name": "",
          "type": "uint256"
        }
      ],
      "name": "erc20WrappedTokens",
      "outputs": [
        {
          "internalType": "address",
          "name": "source",
          "type": "address"
        },
        {
          "internalType": "uint256",
          "name": "shares",
          "type": "uint256"
        },
        {
          "internalType": "uint256",
          "name": "underlyingTokenAmount",
          "type": "uint256"
        }
      ],
      "stateMutability": "view",
      "type": "function"
    },
    {
      "inputs": [
        {
          "internalType": "uint256",
          "name": "",
          "type": "uint256"
        }
      ],
      "name": "erc721WrappedTokens",
      "outputs": [
        {
          "internalType": "address",
          "name": "source",
          "type": "address"
        },
        {
          "internalType": "uint256",
          "name": "tokenId",
          "type": "uint256"
        }
      ],
      "stateMutability": "view",
      "type": "function"
    },
    {
      "inputs": [
        {
          "internalType": "bytes32",
          "name": "role",
          "type": "bytes32"
        }
      ],
      "name": "getRoleAdmin",
      "outputs": [
        {
          "internalType": "bytes32",
          "name": "",
          "type": "bytes32"
        }
      ],
      "stateMutability": "view",
      "type": "function"
    },
    {
      "inputs": [
        {
          "internalType": "bytes32",
          "name": "role",
          "type": "bytes32"
        },
        {
          "internalType": "uint256",
          "name": "index",
          "type": "uint256"
        }
      ],
      "name": "getRoleMember",
      "outputs": [
        {
          "internalType": "address",
          "name": "",
          "type": "address"
        }
      ],
      "stateMutability": "view",
      "type": "function"
    },
    {
      "inputs": [
        {
          "internalType": "bytes32",
          "name": "role",
          "type": "bytes32"
        }
      ],
      "name": "getRoleMemberCount",
      "outputs": [
        {
          "internalType": "uint256",
          "name": "",
          "type": "uint256"
        }
      ],
      "stateMutability": "view",
      "type": "function"
    },
    {
      "inputs": [
        {
          "internalType": "bytes32",
          "name": "role",
          "type": "bytes32"
        },
        {
          "internalType": "address",
          "name": "account",
          "type": "address"
        }
      ],
      "name": "grantRole",
      "outputs": [],
      "stateMutability": "nonpayable",
      "type": "function"
    },
    {
      "inputs": [
        {
          "internalType": "bytes32",
          "name": "role",
          "type": "bytes32"
        },
        {
          "internalType": "address",
          "name": "account",
          "type": "address"
        }
      ],
      "name": "hasRole",
      "outputs": [
        {
          "internalType": "bool",
          "name": "",
          "type": "bool"
        }
      ],
      "stateMutability": "view",
      "type": "function"
    },
    {
      "inputs": [
        {
          "internalType": "address",
          "name": "account",
          "type": "address"
        },
        {
          "internalType": "address",
          "name": "operator",
          "type": "address"
        }
      ],
      "name": "isApprovedForAll",
      "outputs": [
        {
          "internalType": "bool",
          "name": "",
          "type": "bool"
        }
      ],
      "stateMutability": "view",
      "type": "function"
    },
    {
      "inputs": [
        {
          "internalType": "address",
          "name": "forwarder",
          "type": "address"
        }
      ],
      "name": "isTrustedForwarder",
      "outputs": [
        {
          "internalType": "bool",
          "name": "",
          "type": "bool"
        }
      ],
      "stateMutability": "view",
      "type": "function"
    },
    {
      "inputs": [
        {
          "internalType": "address",
          "name": "to",
          "type": "address"
        },
        {
          "internalType": "uint256",
          "name": "id",
          "type": "uint256"
        },
        {
          "internalType": "uint256",
          "name": "amount",
          "type": "uint256"
        },
        {
          "internalType": "bytes",
          "name": "data",
          "type": "bytes"
        }
      ],
      "name": "mint",
      "outputs": [],
      "stateMutability": "nonpayable",
      "type": "function"
    },
    {
      "inputs": [
        {
          "internalType": "address",
          "name": "to",
          "type": "address"
        },
        {
          "internalType": "uint256[]",
          "name": "ids",
          "type": "uint256[]"
        },
        {
          "internalType": "uint256[]",
          "name": "amounts",
          "type": "uint256[]"
        },
        {
          "internalType": "bytes",
          "name": "data",
          "type": "bytes"
        }
      ],
      "name": "mintBatch",
      "outputs": [],
      "stateMutability": "nonpayable",
      "type": "function"
    },
    {
      "inputs": [
        {
          "internalType": "bytes[]",
          "name": "data",
          "type": "bytes[]"
        }
      ],
      "name": "multicall",
      "outputs": [
        {
          "internalType": "bytes[]",
          "name": "results",
          "type": "bytes[]"
        }
      ],
      "stateMutability": "nonpayable",
      "type": "function"
    },
    {
      "inputs": [],
      "name": "nextTokenId",
      "outputs": [
        {
          "internalType": "uint256",
          "name": "",
          "type": "uint256"
        }
      ],
      "stateMutability": "view",
      "type": "function"
    },
    {
      "inputs": [
        {
          "internalType": "address",
          "name": "",
          "type": "address"
        },
        {
          "internalType": "address",
          "name": "",
          "type": "address"
        },
        {
          "internalType": "uint256[]",
          "name": "",
          "type": "uint256[]"
        },
        {
          "internalType": "uint256[]",
          "name": "",
          "type": "uint256[]"
        },
        {
          "internalType": "bytes",
          "name": "",
          "type": "bytes"
        }
      ],
      "name": "onERC1155BatchReceived",
      "outputs": [
        {
          "internalType": "bytes4",
          "name": "",
          "type": "bytes4"
        }
      ],
      "stateMutability": "nonpayable",
      "type": "function"
    },
    {
      "inputs": [
        {
          "internalType": "address",
          "name": "",
          "type": "address"
        },
        {
          "internalType": "address",
          "name": "",
          "type": "address"
        },
        {
          "internalType": "uint256",
          "name": "",
          "type": "uint256"
        },
        {
          "internalType": "uint256",
          "name": "",
          "type": "uint256"
        },
        {
          "internalType": "bytes",
          "name": "",
          "type": "bytes"
        }
      ],
      "name": "onERC1155Received",
      "outputs": [
        {
          "internalType": "bytes4",
          "name": "",
          "type": "bytes4"
        }
      ],
      "stateMutability": "nonpayable",
      "type": "function"
    },
    {
      "inputs": [
        {
          "internalType": "address",
          "name": "",
          "type": "address"
        },
        {
          "internalType": "address",
          "name": "",
          "type": "address"
        },
        {
          "internalType": "uint256",
          "name": "",
          "type": "uint256"
        },
        {
          "internalType": "bytes",
          "name": "",
          "type": "bytes"
        }
      ],
      "name": "onERC721Received",
      "outputs": [
        {
          "internalType": "bytes4",
          "name": "",
          "type": "bytes4"
        }
      ],
      "stateMutability": "nonpayable",
      "type": "function"
    },
    {
      "inputs": [],
      "name": "pause",
      "outputs": [],
      "stateMutability": "nonpayable",
      "type": "function"
    },
    {
      "inputs": [],
      "name": "paused",
      "outputs": [
        {
          "internalType": "bool",
          "name": "",
          "type": "bool"
        }
      ],
      "stateMutability": "view",
      "type": "function"
    },
    {
      "inputs": [
        {
          "internalType": "uint256",
          "name": "_nftId",
          "type": "uint256"
        },
        {
          "internalType": "uint256",
          "name": "_amount",
          "type": "uint256"
        }
      ],
      "name": "redeemERC20",
      "outputs": [],
      "stateMutability": "nonpayable",
      "type": "function"
    },
    {
      "inputs": [
        {
          "internalType": "uint256",
          "name": "_nftId",
          "type": "uint256"
        }
      ],
      "name": "redeemERC721",
      "outputs": [],
      "stateMutability": "nonpayable",
      "type": "function"
    },
    {
      "inputs": [
        {
          "internalType": "bytes32",
          "name": "role",
          "type": "bytes32"
        },
        {
          "internalType": "address",
          "name": "account",
          "type": "address"
        }
      ],
      "name": "renounceRole",
      "outputs": [],
      "stateMutability": "nonpayable",
      "type": "function"
    },
    {
      "inputs": [
        {
          "internalType": "bytes32",
          "name": "role",
          "type": "bytes32"
        },
        {
          "internalType": "address",
          "name": "account",
          "type": "address"
        }
      ],
      "name": "revokeRole",
      "outputs": [],
      "stateMutability": "nonpayable",
      "type": "function"
    },
    {
      "inputs": [],
      "name": "royaltyBps",
      "outputs": [
        {
          "internalType": "uint256",
          "name": "",
          "type": "uint256"
        }
      ],
      "stateMutability": "view",
      "type": "function"
    },
    {
      "inputs": [
        {
          "internalType": "uint256",
          "name": "",
          "type": "uint256"
        },
        {
          "internalType": "uint256",
          "name": "salePrice",
          "type": "uint256"
        }
      ],
      "name": "royaltyInfo",
      "outputs": [
        {
          "internalType": "address",
          "name": "receiver",
          "type": "address"
        },
        {
          "internalType": "uint256",
          "name": "royaltyAmount",
          "type": "uint256"
        }
      ],
      "stateMutability": "view",
      "type": "function"
    },
    {
      "inputs": [
        {
          "internalType": "address",
          "name": "from",
          "type": "address"
        },
        {
          "internalType": "address",
          "name": "to",
          "type": "address"
        },
        {
          "internalType": "uint256[]",
          "name": "ids",
          "type": "uint256[]"
        },
        {
          "internalType": "uint256[]",
          "name": "amounts",
          "type": "uint256[]"
        },
        {
          "internalType": "bytes",
          "name": "data",
          "type": "bytes"
        }
      ],
      "name": "safeBatchTransferFrom",
      "outputs": [],
      "stateMutability": "nonpayable",
      "type": "function"
    },
    {
      "inputs": [
        {
          "internalType": "address",
          "name": "from",
          "type": "address"
        },
        {
          "internalType": "address",
          "name": "to",
          "type": "address"
        },
        {
          "internalType": "uint256",
          "name": "id",
          "type": "uint256"
        },
        {
          "internalType": "uint256",
          "name": "amount",
          "type": "uint256"
        },
        {
          "internalType": "bytes",
          "name": "data",
          "type": "bytes"
        }
      ],
      "name": "safeTransferFrom",
      "outputs": [],
      "stateMutability": "nonpayable",
      "type": "function"
    },
    {
      "inputs": [
        {
          "internalType": "address",
          "name": "operator",
          "type": "address"
        },
        {
          "internalType": "bool",
          "name": "approved",
          "type": "bool"
        }
      ],
      "name": "setApprovalForAll",
      "outputs": [],
      "stateMutability": "nonpayable",
      "type": "function"
    },
    {
      "inputs": [
        {
          "internalType": "string",
          "name": "_URI",
          "type": "string"
        }
      ],
      "name": "setContractURI",
      "outputs": [],
      "stateMutability": "nonpayable",
      "type": "function"
    },
    {
      "inputs": [
        {
          "internalType": "bool",
          "name": "_restrictedTransfer",
          "type": "bool"
        }
      ],
      "name": "setRestrictedTransfer",
      "outputs": [],
      "stateMutability": "nonpayable",
      "type": "function"
    },
    {
      "inputs": [
        {
          "internalType": "uint256",
          "name": "_royaltyBps",
          "type": "uint256"
        }
      ],
      "name": "setRoyaltyBps",
      "outputs": [],
      "stateMutability": "nonpayable",
      "type": "function"
    },
    {
      "inputs": [
        {
          "internalType": "bytes4",
          "name": "interfaceId",
          "type": "bytes4"
        }
      ],
      "name": "supportsInterface",
      "outputs": [
        {
          "internalType": "bool",
          "name": "",
          "type": "bool"
        }
      ],
      "stateMutability": "view",
      "type": "function"
    },
    {
      "inputs": [
        {
          "internalType": "uint256",
          "name": "",
          "type": "uint256"
        }
      ],
      "name": "tokenState",
      "outputs": [
        {
          "internalType": "address",
          "name": "creator",
          "type": "address"
        },
        {
          "internalType": "string",
          "name": "uri",
          "type": "string"
        },
        {
          "internalType": "enum NFTCollection.UnderlyingType",
          "name": "underlyingType",
          "type": "uint8"
        }
      ],
      "stateMutability": "view",
      "type": "function"
    },
    {
      "inputs": [
        {
          "internalType": "uint256",
          "name": "_nftId",
          "type": "uint256"
        }
      ],
      "name": "tokenURI",
      "outputs": [
        {
          "internalType": "string",
          "name": "",
          "type": "string"
        }
      ],
      "stateMutability": "view",
      "type": "function"
    },
    {
      "inputs": [
        {
          "internalType": "uint256",
          "name": "id",
          "type": "uint256"
        }
      ],
      "name": "totalSupply",
      "outputs": [
        {
          "internalType": "uint256",
          "name": "",
          "type": "uint256"
        }
      ],
      "stateMutability": "view",
      "type": "function"
    },
    {
      "inputs": [],
      "name": "transfersRestricted",
      "outputs": [
        {
          "internalType": "bool",
          "name": "",
          "type": "bool"
        }
      ],
      "stateMutability": "view",
      "type": "function"
    },
    {
      "inputs": [],
      "name": "unpause",
      "outputs": [],
      "stateMutability": "nonpayable",
      "type": "function"
    },
    {
      "inputs": [
        {
          "internalType": "uint256",
          "name": "_nftId",
          "type": "uint256"
        }
      ],
      "name": "uri",
      "outputs": [
        {
          "internalType": "string",
          "name": "",
          "type": "string"
        }
      ],
      "stateMutability": "view",
      "type": "function"
    },
    {
      "inputs": [
        {
          "internalType": "address",
          "name": "_tokenContract",
          "type": "address"
        },
        {
          "internalType": "uint256",
          "name": "_tokenAmount",
          "type": "uint256"
        },
        {
          "internalType": "uint256",
          "name": "_numOfNftsToMint",
          "type": "uint256"
        },
        {
          "internalType": "string",
          "name": "_nftURI",
          "type": "string"
        }
      ],
      "name": "wrapERC20",
      "outputs": [],
      "stateMutability": "nonpayable",
      "type": "function"
    },
    {
      "inputs": [
        {
          "internalType": "address",
          "name": "_nftContract",
          "type": "address"
        },
        {
          "internalType": "uint256",
          "name": "_tokenId",
          "type": "uint256"
        },
        {
          "internalType": "string",
          "name": "_nftURI",
          "type": "string"
        }
      ],
      "name": "wrapERC721",
      "outputs": [],
      "stateMutability": "nonpayable",
      "type": "function"
    }
  ],
  "bytecode": "0x60806040523480156200001157600080fd5b5060405162005ef638038062005ef6833981016040819052620000349162000417565b81818062000042816200013f565b506005805460ff191690556200006360006200005d62000158565b62000175565b620000927f9f2df0fed2c77648de5860a4cc508cd0818c85b8b8a1ab4ceeef8d981c8956a66200005d62000158565b620000c17f65d7a28e3265b37a6474929f336521b332c1681b933f6cb9f3376673440d862a6200005d62000158565b50600780546001600160a01b03199081166001600160a01b03938416179091556008805490911691851691909117905580516200010690600b90602084019062000359565b50620001367f8502233096d909befbda0999bb8ea2f3a6be3c138b9fbf003752a4c8bce86f6c6200005d62000158565b50505062000561565b80516200015490600490602084019062000359565b5050565b60006200016f620001b860201b620025071760201c565b90505b90565b6200018c8282620001f860201b620025351760201c565b6000828152600160209081526040909120620001b39183906200254362000204821b17901c565b505050565b6000620001c53362000224565b15620001db575060131936013560601c62000172565b620001f06200023b60201b620025581760201c565b905062000172565b6200015482826200023f565b60006200021b836001600160a01b038416620002c9565b90505b92915050565b6007546001600160a01b038281169116145b919050565b3390565b6200024b828262000318565b62000154576000828152602081815260408083206001600160a01b03851684529091529020805460ff191660011790556200028562000158565b6001600160a01b0316816001600160a01b0316837f2f8788117e7eff1d82e926ec794901d17c78024a50270940304540a733656f0d60405160405180910390a45050565b6000620002d7838362000341565b6200030f575081546001818101845560008481526020808220909301849055845484825282860190935260409020919091556200021e565b5060006200021e565b6000918252602082815260408084206001600160a01b0393909316845291905290205460ff1690565b60009081526001919091016020526040902054151590565b82805462000367906200050e565b90600052602060002090601f0160209004810192826200038b5760008555620003d6565b82601f10620003a657805160ff1916838001178555620003d6565b82800160010185558215620003d6579182015b82811115620003d6578251825591602001919060010190620003b9565b50620003e4929150620003e8565b5090565b5b80821115620003e45760008155600101620003e9565b80516001600160a01b03811681146200023657600080fd5b6000806000606084860312156200042c578283fd5b6200043784620003ff565b9250602062000448818601620003ff565b60408601519093506001600160401b038082111562000465578384fd5b818701915087601f83011262000479578384fd5b8151818111156200048e576200048e6200054b565b604051601f8201601f1916810185018381118282101715620004b457620004b46200054b565b60405281815283820185018a1015620004cb578586fd5b8592505b81831015620004ee5783830185015181840186015291840191620004cf565b81831115620004ff57858583830101525b80955050505050509250925092565b6002810460018216806200052357607f821691505b602082108114156200054557634e487b7160e01b600052602260045260246000fd5b50919050565b634e487b7160e01b600052604160045260246000fd5b61598580620005716000396000f3fe608060405234801561001057600080fd5b50600436106103405760003560e01c80638456cb59116101bd578063c63adb2b116100f9578063e63ab1e9116100a2578063f23a6e611161007c578063f23a6e61146106bd578063f242432a146106d0578063f5298aca146106e3578063fafdcc88146106f657610340565b8063e63ab1e91461069a578063e8a3d485146106a2578063e985e9c5146106aa57610340565b8063d5391393116100d3578063d53913931461066c578063d547741f14610674578063db884b0c1461068757610340565b8063c63adb2b14610651578063c87b56dd146103a3578063ca15c8731461065957610340565b80639745cc3d11610166578063ac9650d811610140578063ac9650d814610603578063bc197c8114610623578063bd85b03914610636578063c0e727401461064957610340565b80639745cc3d146105c6578063a217fddf146105e8578063a22cb465146105f057610340565b806391d148541161019757806391d148541461058d578063938e3d7b146105a057806393b778d4146105b357610340565b80638456cb591461055f5780638ba448c2146105675780639010d07c1461057a57610340565b806336568abe1161028c5780635c975abb11610235578063731133e91161020f578063731133e91461052957806375794a3c1461053c5780637a61080b146105445780638423df791461055757610340565b80635c975abb146104ec5780635cd9913d146104f45780636b20c4541461051657610340565b80634e1273f4116102665780634e1273f414610499578063510b5158146104b9578063572b6c05146104d957610340565b806336568abe1461046b578063367a182b1461047e5780633f4ba83a1461049157610340565b80631f7fdffa116102ee5780632a55205a116102c85780632a55205a146104245780632eb2c2d6146104455780632f2ff15d1461045857610340565b80631f7fdffa146103f6578063206b60f914610409578063248a9ca31461041157610340565b80630e89341c1161031f5780630e89341c146103a3578063150b7a02146103c35780631f72d831146103e357610340565b8062fdd58e1461034557806301ffc9a71461036e578063090a32821461038e575b600080fd5b610358610353366004614166565b610709565b604051610365919061497b565b60405180910390f35b61038161037c36600461447d565b610765565b6040516103659190614970565b6103a161039c366004614191565b610790565b005b6103b66103b1366004614408565b610bf3565b60405161036591906149b0565b6103d66103d1366004613ec9565b610c98565b604051610365919061499b565b6103a16103f1366004614408565b610ca8565b6103a16104043660046140ae565b610dc7565b610358610ef6565b61035861041f366004614408565b610f1a565b61043761043236600461445c565b610f2f565b6040516103659291906147d6565b6103a1610453366004613e1f565b61106f565b6103a1610466366004614438565b6110cd565b6103a1610479366004614438565b6110f4565b61043761048c366004614408565b611116565b6103a161113b565b6104ac6104a73660046142d0565b61118d565b6040516103659190614870565b6104cc6104c7366004614408565b6112ad565b6040516103659190614693565b6103816104e7366004613daf565b6112c8565b6103816112dc565b610507610502366004614408565b6112e6565b604051610365939291906147ef565b6103a161052436600461403b565b611311565b6103a161053736600461421f565b611366565b6103586113eb565b6103a161055236600461445c565b6113f1565b61038161156f565b6103a1611578565b6103a16105753660046143d0565b6115c8565b6104cc61058836600461445c565b61162f565b61038161059b366004614438565b61164e565b6103a16105ae3660046144b5565b611677565b6103a16105c1366004614408565b611799565b6105d96105d4366004614408565b6118b7565b60405161036593929190614786565b61035861196f565b6103a16105fe366004614139565b611974565b610616610611366004614390565b611a36565b6040516103659190614810565b6103d6610631366004613e1f565b611b55565b610358610644366004614408565b611b66565b6103b6611b78565b610358611c06565b610358610667366004614408565b611c0c565b610358611c23565b6103a1610682366004614438565b611c47565b6103a1610695366004614268565b611c51565b610358612057565b6103b661207b565b6103816106b8366004613de7565b61210d565b6103d66106cb366004613f33565b61213b565b6103a16106de366004613f33565b61214c565b6103a16106f13660046141eb565b6121a3565b6104ac610704366004613f9a565b6121f8565b60006001600160a01b03831661073a5760405162461bcd60e51b815260040161073190614ba3565b60405180910390fd5b5060008181526002602090815260408083206001600160a01b03861684529091529020545b92915050565b60006107708261255c565b8061075f57506001600160e01b0319821663152a902d60e11b1492915050565b6107986112dc565b156107b55760405162461bcd60e51b815260040161073190614f89565b6107e17f9f2df0fed2c77648de5860a4cc508cd0818c85b8b8a1ab4ceeef8d981c8956a661059b612567565b6107fd5760405162461bcd60e51b815260040161073190615062565b610805612567565b6001600160a01b0316846001600160a01b0316636352211e856040518263ffffffff1660e01b815260040161083a919061497b565b60206040518083038186803b15801561085257600080fd5b505afa158015610866573d6000803e3d6000fd5b505050506040513d601f19601f8201168201806040525081019061088a9190613dcb565b6001600160a01b0316146108b05760405162461bcd60e51b81526004016107319061549b565b60405163020604bf60e21b815230906001600160a01b0386169063081812fc906108de90879060040161497b565b60206040518083038186803b1580156108f657600080fd5b505afa15801561090a573d6000803e3d6000fd5b505050506040513d601f19601f8201168201806040525081019061092e9190613dcb565b6001600160a01b031614806109c35750836001600160a01b031663e985e9c5610955612567565b306040518363ffffffff1660e01b81526004016109739291906146a7565b60206040518083038186803b15801561098b57600080fd5b505afa15801561099f573d6000803e3d6000fd5b505050506040513d601f19601f820116820180604052508101906109c391906143ec565b6109df5760405162461bcd60e51b815260040161073190614cfe565b60006109e9612567565b6009805491925060019060006109ff8385615737565b9091555050604051632142170760e11b81526001600160a01b038716906342842e0e90610a3490859030908a9060040161471f565b600060405180830381600087803b158015610a4e57600080fd5b505af1158015610a62573d6000803e3d6000fd5b50505050610a828282600160405180602001604052806000815250612576565b6040518060600160405280836001600160a01b0316815260200185858080601f01602080910402602001604051908101604052809392919081815260200183838082843760009201829052509385525050600260209384015250838152600d825260409020825181546001600160a01b0319166001600160a01b039091161781558282015180519192610b1d92600185019290910190613b42565b5060408201518160020160006101000a81548160ff02191690836002811115610b5657634e487b7160e01b600052602160045260246000fd5b0217905550506040805180820182526001600160a01b0389811680835260208084018b81526000888152600e90925290859020935184546001600160a01b031916908416178455516001909301929092559151909250908416907f797091bed1dcc535a592c3da1115fdb7467204ef9fb70943f0fc855ebe0a30f590610be390899086908a908a9061565e565b60405180910390a3505050505050565b6000818152600d60205260409020600101805460609190610c13906157e8565b80601f0160208091040260200160405190810160405280929190818152602001828054610c3f906157e8565b8015610c8c5780601f10610c6157610100808354040283529160200191610c8c565b820191906000526020600020905b815481529060010190602001808311610c6f57829003601f168201915b50505050509050919050565b630a85bd0160e11b949350505050565b610cb5600061059b612567565b610cd15760405162461bcd60e51b815260040161073190614ef5565b600860009054906101000a90046001600160a01b03166001600160a01b031663fd967f476040518163ffffffff1660e01b815260040160206040518083038186803b158015610d1f57600080fd5b505afa158015610d33573d6000803e3d6000fd5b505050506040513d601f19601f82011682018060405250810190610d5791906144e9565b6fffffffffffffffffffffffffffffffff168110610d875760405162461bcd60e51b815260040161073190614ab2565b600a8190556040517f244ea8d7627f5a08f4299862bd5a45752842c183aee5b0fb0d1e4887bfa605b390610dbc90839061497b565b60405180910390a150565b60018060005b8551811015610ea757600954868281518110610df957634e487b7160e01b600052603260045260246000fd5b602002602001015110158015610e0c5750825b15610e1657600092505b6000600d6000888481518110610e3c57634e487b7160e01b600052603260045260246000fd5b6020026020010151815260200190815260200160002060020160009054906101000a900460ff166002811115610e8257634e487b7160e01b600052602160045260246000fd5b14158015610e8d5750815b15610e9757600091505b610ea081615823565b9050610dcd565b5081610ec55760405162461bcd60e51b815260040161073190614b46565b80610ee25760405162461bcd60e51b815260040161073190614c00565b610eee868686866125ab565b505050505050565b7f8502233096d909befbda0999bb8ea2f3a6be3c138b9fbf003752a4c8bce86f6c81565b60009081526020819052604090206001015490565b60085460405163f2aab4b360e01b815260009182916001600160a01b039091169063f2aab4b390610f64903090600401614693565b60206040518083038186803b158015610f7c57600080fd5b505afa158015610f90573d6000803e3d6000fd5b505050506040513d601f19601f82011682018060405250810190610fb49190613dcb565b9150600860009054906101000a90046001600160a01b03166001600160a01b031663fd967f476040518163ffffffff1660e01b815260040160206040518083038186803b15801561100457600080fd5b505afa158015611018573d6000803e3d6000fd5b505050506040513d601f19601f8201168201806040525081019061103c91906144e9565b6fffffffffffffffffffffffffffffffff16600a548461105c919061576f565b611066919061574f565b90509250929050565b611077612567565b6001600160a01b0316856001600160a01b0316148061109d575061109d856106b8612567565b6110b95760405162461bcd60e51b815260040161073190615005565b6110c685858585856125ff565b5050505050565b6110d782826127cb565b60008281526001602052604090206110ef9082612543565b505050565b6110fe82826127ef565b60008281526001602052604090206110ef9082612831565b600e60205260009081526040902080546001909101546001600160a01b039091169082565b6111677f65d7a28e3265b37a6474929f336521b332c1681b933f6cb9f3376673440d862a61059b612567565b6111835760405162461bcd60e51b81526004016107319061526d565b61118b612846565b565b606081518351146111b05760405162461bcd60e51b8152600401610731906153e1565b6000835167ffffffffffffffff8111156111da57634e487b7160e01b600052604160045260246000fd5b604051908082528060200260200182016040528015611203578160200160208202803683370190505b50905060005b84518110156112a55761126a85828151811061123557634e487b7160e01b600052603260045260246000fd5b602002602001015185838151811061125d57634e487b7160e01b600052603260045260246000fd5b6020026020010151610709565b82828151811061128a57634e487b7160e01b600052603260045260246000fd5b602090810291909101015261129e81615823565b9050611209565b509392505050565b6000908152600d60205260409020546001600160a01b031690565b6007546001600160a01b0390811691161490565b60055460ff165b90565b600f602052600090815260409020805460018201546002909201546001600160a01b03909116919083565b611319612567565b6001600160a01b0316836001600160a01b0316148061133f575061133f836106b8612567565b61135b5760405162461bcd60e51b815260040161073190614e15565b6110ef8383836128b4565b60095483106113875760405162461bcd60e51b815260040161073190614b46565b6000838152600d6020526040812060029081015460ff16908111156113bc57634e487b7160e01b600052602160045260246000fd5b146113d95760405162461bcd60e51b815260040161073190614c00565b6113e584848484612952565b50505050565b60095481565b60006113fb612567565b9050816114088285610709565b10156114265760405162461bcd60e51b81526004016107319061543e565b6114318184846129a6565b6000838152600f60205260408120600181015460029091015461145590859061576f565b61145f919061574f565b6000858152600f60205260409081902054905163a9059cbb60e01b81529192506001600160a01b03169063a9059cbb9061149f90859085906004016147d6565b602060405180830381600087803b1580156114b957600080fd5b505af11580156114cd573d6000803e3d6000fd5b505050506040513d601f19601f820116820180604052508101906114f191906143ec565b61150d5760405162461bcd60e51b815260040161073190614c5d565b6000848152600f6020526040908190205490516001600160a01b03918216918691908516907fb80333a30b48beb3745280a5e4bb1b8e53f79569e454ec99ba13678dfbe728eb906115619086908990615650565b60405180910390a450505050565b600c5460ff1681565b6115a47f65d7a28e3265b37a6474929f336521b332c1681b933f6cb9f3376673440d862a61059b612567565b6115c05760405162461bcd60e51b8152600401610731906152ca565b61118b6129d9565b6115d5600061059b612567565b6115f15760405162461bcd60e51b815260040161073190614ef5565b600c805460ff19168215151790556040517ffb4ba02cee22486df888d7ffb97c6100ec3193781e025cb9a4bc6fc358d626cc90610dbc908390614970565b60008281526001602052604081206116479083612a34565b9392505050565b6000918252602082815260408084206001600160a01b0393909316845291905290205460ff1690565b6008546040805163a217fddf60e01b815290516001600160a01b03909216916391d1485491839163a217fddf91600480820192602092909190829003018186803b1580156116c457600080fd5b505afa1580156116d8573d6000803e3d6000fd5b505050506040513d601f19601f820116820180604052508101906116fc9190614420565b611704612567565b6040518363ffffffff1660e01b8152600401611721929190614984565b60206040518083038186803b15801561173957600080fd5b505afa15801561174d573d6000803e3d6000fd5b505050506040513d601f19601f8201168201806040525081019061177191906143ec565b61178d5760405162461bcd60e51b815260040161073190615327565b6110ef600b8383613bc6565b60006117a3612567565b905060006117b18284610709565b116117ce5760405162461bcd60e51b81526004016107319061543e565b6117da818360016129a6565b6000828152600e60205260409081902080546001909101549151632142170760e11b81526001600160a01b03909116916342842e0e9161182191309186919060040161471f565b600060405180830381600087803b15801561183b57600080fd5b505af115801561184f573d6000803e3d6000fd5b5050506000838152600e602052604090819020805460019091015491516001600160a01b039182169350908416917fea7b88a04220a2292e142652e8e1a59cc00e7d27d8ad6b11da6cf5870e6ba866916118ab91908790615650565b60405180910390a35050565b600d60205260009081526040902080546001820180546001600160a01b0390921692916118e3906157e8565b80601f016020809104026020016040519081016040528092919081815260200182805461190f906157e8565b801561195c5780601f106119315761010080835404028352916020019161195c565b820191906000526020600020905b81548152906001019060200180831161193f57829003601f168201915b5050506002909301549192505060ff1683565b600081565b816001600160a01b0316611986612567565b6001600160a01b031614156119ad5760405162461bcd60e51b815260040161073190615384565b80600360006119ba612567565b6001600160a01b03908116825260208083019390935260409182016000908120918716808252919093529120805460ff1916921515929092179091556119fe612567565b6001600160a01b03167f17307eab39ab6107e8899845ad3d59bd9653f200f220920489ca2b5937696c31836040516118ab9190614970565b60608167ffffffffffffffff811115611a5f57634e487b7160e01b600052604160045260246000fd5b604051908082528060200260200182016040528015611a9257816020015b6060815260200190600190039081611a7d5790505b50905060005b82811015611b4e57611b1030858584818110611ac457634e487b7160e01b600052603260045260246000fd5b9050602002810190611ad691906156a4565b8080601f016020809104026020016040519081016040528093929190818152602001838380828437600092019190915250612a4092505050565b828281518110611b3057634e487b7160e01b600052603260045260246000fd5b60200260200101819052508080611b4690615823565b915050611a98565b5092915050565b63bc197c8160e01b95945050505050565b60009081526006602052604090205490565b600b8054611b85906157e8565b80601f0160208091040260200160405190810160405280929190818152602001828054611bb1906157e8565b8015611bfe5780601f10611bd357610100808354040283529160200191611bfe565b820191906000526020600020905b815481529060010190602001808311611be157829003601f168201915b505050505081565b600a5481565b600081815260016020526040812061075f90612a65565b7f9f2df0fed2c77648de5860a4cc508cd0818c85b8b8a1ab4ceeef8d981c8956a681565b6110fe8282612a70565b611c596112dc565b15611c765760405162461bcd60e51b815260040161073190614f89565b611ca27f9f2df0fed2c77648de5860a4cc508cd0818c85b8b8a1ab4ceeef8d981c8956a661059b612567565b611cbe5760405162461bcd60e51b815260040161073190615062565b6000611cc8612567565b905084866001600160a01b03166370a08231836040518263ffffffff1660e01b8152600401611cf79190614693565b60206040518083038186803b158015611d0f57600080fd5b505afa158015611d23573d6000803e3d6000fd5b505050506040513d601f19601f82011682018060405250810190611d479190614420565b1015611d655760405162461bcd60e51b815260040161073190615210565b604051636eb1769f60e11b815285906001600160a01b0388169063dd62ed3e90611d9590859030906004016146a7565b60206040518083038186803b158015611dad57600080fd5b505afa158015611dc1573d6000803e3d6000fd5b505050506040513d601f19601f82011682018060405250810190611de59190614420565b1015611e035760405162461bcd60e51b815260040161073190614db8565b6040516323b872dd60e01b81526001600160a01b038716906323b872dd90611e3390849030908a9060040161471f565b602060405180830381600087803b158015611e4d57600080fd5b505af1158015611e61573d6000803e3d6000fd5b505050506040513d601f19601f82011682018060405250810190611e8591906143ec565b611ea15760405162461bcd60e51b815260040161073190614c5d565b60098054906001906000611eb58385615737565b92505081905550611ed782828760405180602001604052806000815250612576565b6040518060600160405280836001600160a01b0316815260200185858080601f0160208091040260200160405190810160405280939291908181526020018383808284376000920182905250938552505060016020938401819052858352600d84526040909220845181546001600160a01b0319166001600160a01b039091161781558484015180519194611f7194860193500190613b42565b5060408201518160020160006101000a81548160ff02191690836002811115611faa57634e487b7160e01b600052602160045260246000fd5b021790555050604080516060810182526001600160a01b038a811680835260208084018b81528486018d81526000898152600f90935291869020945185546001600160a01b031916908516178555516001850155516002909301929092559151909250908416907f53af9a53d4a11cb382035aa13d6d8e24575569953176d87464ba37e7013a6aa490612046908a908a9087908b908b9061567e565b60405180910390a350505050505050565b7f65d7a28e3265b37a6474929f336521b332c1681b933f6cb9f3376673440d862a81565b6060600b805461208a906157e8565b80601f01602080910402602001604051908101604052809291908181526020018280546120b6906157e8565b80156121035780601f106120d857610100808354040283529160200191612103565b820191906000526020600020905b8154815290600101906020018083116120e657829003601f168201915b5050505050905090565b6001600160a01b03918216600090815260036020908152604080832093909416825291909152205460ff1690565b63f23a6e6160e01b95945050505050565b612154612567565b6001600160a01b0316856001600160a01b0316148061217a575061217a856106b8612567565b6121965760405162461bcd60e51b815260040161073190614e15565b6110c68585858585612a8f565b6121ab612567565b6001600160a01b0316836001600160a01b031614806121d157506121d1836106b8612567565b6121ed5760405162461bcd60e51b815260040161073190614e15565b6110ef8383836129a6565b60606122026112dc565b1561221f5760405162461bcd60e51b815260040161073190614f89565b61224b7f9f2df0fed2c77648de5860a4cc508cd0818c85b8b8a1ab4ceeef8d981c8956a661059b612567565b6122675760405162461bcd60e51b815260040161073190615062565b8483146122865760405162461bcd60e51b815260040161073190614f2c565b846122a35760405162461bcd60e51b8152600401610731906154f8565b60006122ad612567565b90508567ffffffffffffffff8111156122d657634e487b7160e01b600052604160045260246000fd5b6040519080825280602002602001820160405280156122ff578160200160208202803683370190505b5060095490925060005b8781101561246a578184828151811061233257634e487b7160e01b600052603260045260246000fd5b6020026020010181815250506040518060600160405280846001600160a01b031681526020018a8a8481811061237857634e487b7160e01b600052603260045260246000fd5b905060200281019061238a91906156a4565b8080601f01602080910402602001604051908101604052809392919081815260200183838082843760009201829052509385525050506020918201819052848152600d825260409020825181546001600160a01b0319166001600160a01b03909116178155828201518051919261240992600185019290910190613b42565b5060408201518160020160006101000a81548160ff0219169083600281111561244257634e487b7160e01b600052602160045260246000fd5b021790555061245691506001905083615737565b91508061246281615823565b915050612309565b50806009819055506124b289848888808060200260200160405190810160405280939291908181526020018383602002808284376000920191909152508a9250612bd6915050565b816001600160a01b03167fbea5a4b7cf9a3f7d8bf7c987614db5dcfdcd917a2cd5788a210c0ebdccfc5da4848a8a8a8a6040516124f3959493929190614883565b60405180910390a250509695505050505050565b6000612512336112c8565b15612526575060131936013560601c6112e3565b61252e612558565b90506112e3565b61253f8282612c75565b5050565b6000611647836001600160a01b038416612cfa565b3390565b600061075f82612d44565b6000612571612507565b905090565b61258284848484612d69565b600083815260066020526040812080548492906125a0908490615737565b909155505050505050565b6125d77f9f2df0fed2c77648de5860a4cc508cd0818c85b8b8a1ab4ceeef8d981c8956a661059b612567565b6125f35760405162461bcd60e51b815260040161073190615110565b6113e584848484612bd6565b81518351146126205760405162461bcd60e51b815260040161073190615555565b6001600160a01b0384166126465760405162461bcd60e51b815260040161073190614fc0565b6000612650612567565b9050612660818787878787612e4b565b60005b845181101561276557600085828151811061268e57634e487b7160e01b600052603260045260246000fd5b6020026020010151905060008583815181106126ba57634e487b7160e01b600052603260045260246000fd5b60209081029190910181015160008481526002835260408082206001600160a01b038e16835290935291909120549091508181101561270b5760405162461bcd60e51b81526004016107319061516d565b60008381526002602090815260408083206001600160a01b038e8116855292528083208585039055908b1682528120805484929061274a908490615737565b925050819055505050508061275e90615823565b9050612663565b50846001600160a01b0316866001600160a01b0316826001600160a01b03167f4a39dc06d4c0dbc64b70af90fd698a233a518aa5d07e595d983b8c0526c8f7fb87876040516127b5929190614942565b60405180910390a4610eee818787878787612f02565b6127d482610f1a565b6127e5816127e0612567565b613010565b6110ef8383612c75565b6127f7612567565b6001600160a01b0316816001600160a01b0316146128275760405162461bcd60e51b8152600401610731906155f3565b61253f8282613074565b6000611647836001600160a01b0384166130f7565b61284e6112dc565b61286a5760405162461bcd60e51b815260040161073190614b0f565b6005805460ff191690557f5db9ee0a495bf2e6ff9c91a7834c1ba4fdd244a5e8aa4e537bd38aeae4b073aa61289d612567565b6040516128aa9190614693565b60405180910390a1565b6128bf838383613214565b60005b82518110156113e5578181815181106128eb57634e487b7160e01b600052603260045260246000fd5b60200260200101516006600085848151811061291757634e487b7160e01b600052603260045260246000fd5b60200260200101518152602001908152602001600020600082825461293c919061578e565b9091555061294b905081615823565b90506128c2565b61297e7f9f2df0fed2c77648de5860a4cc508cd0818c85b8b8a1ab4ceeef8d981c8956a661059b612567565b61299a5760405162461bcd60e51b815260040161073190615110565b6113e584848484612576565b6129b18383836133ba565b600082815260066020526040812080548392906129cf90849061578e565b9091555050505050565b6129e16112dc565b156129fe5760405162461bcd60e51b815260040161073190614f89565b6005805460ff191660011790557f62e78cea01bee320cd4e420270b5ea74000d11b0c9f74754ebdbfc544b05a25861289d612567565b600061164783836134cd565b6060611647838360405180606001604052806027815260200161595260279139613505565b600061075f826135a1565b612a7982610f1a565b612a85816127e0612567565b6110ef8383613074565b6001600160a01b038416612ab55760405162461bcd60e51b815260040161073190614fc0565b6000612abf612567565b9050612adf818787612ad0886135a5565b612ad9886135a5565b87612e4b565b60008481526002602090815260408083206001600160a01b038a16845290915290205483811015612b225760405162461bcd60e51b81526004016107319061516d565b60008581526002602090815260408083206001600160a01b038b8116855292528083208785039055908816825281208054869290612b61908490615737565b92505081905550856001600160a01b0316876001600160a01b0316836001600160a01b03167fc3d58168c5ae7397731d063d5bbf3d657854427343f4c083240f7aacaa2d0f628888604051612bb7929190615650565b60405180910390a4612bcd8288888888886135fe565b50505050505050565b612be2848484846136cf565b60005b83518110156110c657828181518110612c0e57634e487b7160e01b600052603260045260246000fd5b602002602001015160066000868481518110612c3a57634e487b7160e01b600052603260045260246000fd5b602002602001015181526020019081526020016000206000828254612c5f9190615737565b90915550612c6e905081615823565b9050612be5565b612c7f828261164e565b61253f576000828152602081815260408083206001600160a01b03851684529091529020805460ff19166001179055612cb6612567565b6001600160a01b0316816001600160a01b0316837f2f8788117e7eff1d82e926ec794901d17c78024a50270940304540a733656f0d60405160405180910390a45050565b6000612d068383613851565b612d3c5750815460018181018455600084815260208082209093018490558454848252828601909352604090209190915561075f565b50600061075f565b60006001600160e01b03198216630271189760e51b148061075f575061075f82613869565b6001600160a01b038416612d8f5760405162461bcd60e51b8152600401610731906155b2565b6000612d99612567565b9050612dab81600087612ad0886135a5565b60008481526002602090815260408083206001600160a01b038916845290915281208054859290612ddd908490615737565b92505081905550846001600160a01b031660006001600160a01b0316826001600160a01b03167fc3d58168c5ae7397731d063d5bbf3d657854427343f4c083240f7aacaa2d0f628787604051612e34929190615650565b60405180910390a46110c6816000878787876135fe565b612e598686868686866138a9565b600c5460ff168015612e7357506001600160a01b03851615155b8015612e8757506001600160a01b03841615155b15610eee57612eb67f8502233096d909befbda0999bb8ea2f3a6be3c138b9fbf003752a4c8bce86f6c8661164e565b80612ee65750612ee67f8502233096d909befbda0999bb8ea2f3a6be3c138b9fbf003752a4c8bce86f6c8561164e565b610eee5760405162461bcd60e51b815260040161073190614e72565b612f14846001600160a01b03166138b7565b15610eee5760405163bc197c8160e01b81526001600160a01b0385169063bc197c8190612f4d90899089908890889088906004016146c1565b602060405180830381600087803b158015612f6757600080fd5b505af1925050508015612f97575060408051601f3d908101601f19168201909252612f9491810190614499565b60015b612fe057612fa3615870565b80612fae5750612fc8565b8060405162461bcd60e51b815260040161073191906149b0565b60405162461bcd60e51b8152600401610731906149c3565b6001600160e01b0319811663bc197c8160e01b14612bcd5760405162461bcd60e51b815260040161073190614a55565b61301a828261164e565b61253f57613032816001600160a01b031660146138bd565b61303d8360206138bd565b60405160200161304e929190614612565b60408051601f198184030181529082905262461bcd60e51b8252610731916004016149b0565b61307e828261164e565b1561253f576000828152602081815260408083206001600160a01b03851684529091529020805460ff191690556130b3612567565b6001600160a01b0316816001600160a01b0316837ff6391f5c32d9c69d2a47ea670b442974b53935d1edc7fd64eb21e047a839171b60405160405180910390a45050565b6000818152600183016020526040812054801561320a57600061311b60018361578e565b855490915060009061312f9060019061578e565b90508181146131b057600086600001828154811061315d57634e487b7160e01b600052603260045260246000fd5b906000526020600020015490508087600001848154811061318e57634e487b7160e01b600052603260045260246000fd5b6000918252602080832090910192909255918252600188019052604090208390555b85548690806131cf57634e487b7160e01b600052603160045260246000fd5b60019003818190600052602060002001600090559055856001016000868152602001908152602001600020600090556001935050505061075f565b600091505061075f565b6001600160a01b03831661323a5760405162461bcd60e51b8152600401610731906150cd565b805182511461325b5760405162461bcd60e51b815260040161073190615555565b6000613265612567565b905061328581856000868660405180602001604052806000815250612e4b565b60005b83518110156133695760008482815181106132b357634e487b7160e01b600052603260045260246000fd5b6020026020010151905060008483815181106132df57634e487b7160e01b600052603260045260246000fd5b60209081029190910181015160008481526002835260408082206001600160a01b038c1683529093529190912054909150818110156133305760405162461bcd60e51b815260040161073190614cba565b60009283526002602090815260408085206001600160a01b038b168652909152909220910390558061336181615823565b915050613288565b5060006001600160a01b0316846001600160a01b0316826001600160a01b03167f4a39dc06d4c0dbc64b70af90fd698a233a518aa5d07e595d983b8c0526c8f7fb8686604051611561929190614942565b6001600160a01b0383166133e05760405162461bcd60e51b8152600401610731906150cd565b60006133ea612567565b905061341a818560006133fc876135a5565b613405876135a5565b60405180602001604052806000815250612e4b565b60008381526002602090815260408083206001600160a01b03881684529091529020548281101561345d5760405162461bcd60e51b815260040161073190614cba565b60008481526002602090815260408083206001600160a01b03808a16808652919093528184208786039055905190918516907fc3d58168c5ae7397731d063d5bbf3d657854427343f4c083240f7aacaa2d0f62906134be9089908990615650565b60405180910390a45050505050565b60008260000182815481106134f257634e487b7160e01b600052603260045260246000fd5b9060005260206000200154905092915050565b6060613510846138b7565b61352c5760405162461bcd60e51b8152600401610731906151ca565b600080856001600160a01b03168560405161354791906145f6565b600060405180830381855af49150503d8060008114613582576040519150601f19603f3d011682016040523d82523d6000602084013e613587565b606091505b5091509150613597828286613a7c565b9695505050505050565b5490565b604080516001808252818301909252606091600091906020808301908036833701905050905082816000815181106135ed57634e487b7160e01b600052603260045260246000fd5b602090810291909101015292915050565b613610846001600160a01b03166138b7565b15610eee5760405163f23a6e6160e01b81526001600160a01b0385169063f23a6e61906136499089908990889088908890600401614743565b602060405180830381600087803b15801561366357600080fd5b505af1925050508015613693575060408051601f3d908101601f1916820190925261369091810190614499565b60015b61369f57612fa3615870565b6001600160e01b0319811663f23a6e6160e01b14612bcd5760405162461bcd60e51b815260040161073190614a55565b6001600160a01b0384166136f55760405162461bcd60e51b8152600401610731906155b2565b81518351146137165760405162461bcd60e51b815260040161073190615555565b6000613720612567565b905061373181600087878787612e4b565b60005b84518110156137e95783818151811061375d57634e487b7160e01b600052603260045260246000fd5b60200260200101516002600087848151811061378957634e487b7160e01b600052603260045260246000fd5b602002602001015181526020019081526020016000206000886001600160a01b03166001600160a01b0316815260200190815260200160002060008282546137d19190615737565b909155508190506137e181615823565b915050613734565b50846001600160a01b031660006001600160a01b0316826001600160a01b03167f4a39dc06d4c0dbc64b70af90fd698a233a518aa5d07e595d983b8c0526c8f7fb878760405161383a929190614942565b60405180910390a46110c681600087878787612f02565b60009081526001919091016020526040902054151590565b60006001600160e01b03198216636cdb3d1360e11b148061389a57506001600160e01b031982166303a24d0760e21b145b8061075f575061075f82613ab5565b610eee868686868686613ada565b3b151590565b606060006138cc83600261576f565b6138d7906002615737565b67ffffffffffffffff8111156138fd57634e487b7160e01b600052604160045260246000fd5b6040519080825280601f01601f191660200182016040528015613927576020820181803683370190505b509050600360fc1b8160008151811061395057634e487b7160e01b600052603260045260246000fd5b60200101906001600160f81b031916908160001a905350600f60fb1b8160018151811061398d57634e487b7160e01b600052603260045260246000fd5b60200101906001600160f81b031916908160001a90535060006139b184600261576f565b6139bc906001615737565b90505b6001811115613a5d577f303132333435363738396162636465660000000000000000000000000000000085600f1660108110613a0b57634e487b7160e01b600052603260045260246000fd5b1a60f81b828281518110613a2f57634e487b7160e01b600052603260045260246000fd5b60200101906001600160f81b031916908160001a90535060049490941c93613a56816157d1565b90506139bf565b5083156116475760405162461bcd60e51b815260040161073190614a20565b60608315613a8b575081611647565b825115613a9b5782518084602001fd5b8160405162461bcd60e51b815260040161073191906149b0565b60006001600160e01b03198216635a05180f60e01b148061075f575061075f82613b0d565b613ae8868686868686610eee565b613af06112dc565b15610eee5760405162461bcd60e51b815260040161073190614d5b565b60006001600160e01b03198216637965db0b60e01b148061075f57506301ffc9a760e01b6001600160e01b031983161461075f565b828054613b4e906157e8565b90600052602060002090601f016020900481019282613b705760008555613bb6565b82601f10613b8957805160ff1916838001178555613bb6565b82800160010185558215613bb6579182015b82811115613bb6578251825591602001919060010190613b9b565b50613bc2929150613c3a565b5090565b828054613bd2906157e8565b90600052602060002090601f016020900481019282613bf45760008555613bb6565b82601f10613c0d5782800160ff19823516178555613bb6565b82800160010185558215613bb6579182015b82811115613bb6578235825591602001919060010190613c1f565b5b80821115613bc25760008155600101613c3b565b60008083601f840112613c60578182fd5b50813567ffffffffffffffff811115613c77578182fd5b6020830191508360208083028501011115613c9157600080fd5b9250929050565b600082601f830112613ca8578081fd5b81356020613cbd613cb883615713565b6156e9565b8281528181019085830183850287018401881015613cd9578586fd5b855b85811015613cf757813584529284019290840190600101613cdb565b5090979650505050505050565b600082601f830112613d14578081fd5b813567ffffffffffffffff811115613d2e57613d2e615854565b613d41601f8201601f19166020016156e9565b818152846020838601011115613d55578283fd5b816020850160208301379081016020019190915292915050565b60008083601f840112613d80578182fd5b50813567ffffffffffffffff811115613d97578182fd5b602083019150836020828501011115613c9157600080fd5b600060208284031215613dc0578081fd5b813561164781615915565b600060208284031215613ddc578081fd5b815161164781615915565b60008060408385031215613df9578081fd5b8235613e0481615915565b91506020830135613e1481615915565b809150509250929050565b600080600080600060a08688031215613e36578081fd5b8535613e4181615915565b94506020860135613e5181615915565b9350604086013567ffffffffffffffff80821115613e6d578283fd5b613e7989838a01613c98565b94506060880135915080821115613e8e578283fd5b613e9a89838a01613c98565b93506080880135915080821115613eaf578283fd5b50613ebc88828901613d04565b9150509295509295909350565b60008060008060808587031215613ede578384fd5b8435613ee981615915565b93506020850135613ef981615915565b925060408501359150606085013567ffffffffffffffff811115613f1b578182fd5b613f2787828801613d04565b91505092959194509250565b600080600080600060a08688031215613f4a578283fd5b8535613f5581615915565b94506020860135613f6581615915565b93506040860135925060608601359150608086013567ffffffffffffffff811115613f8e578182fd5b613ebc88828901613d04565b60008060008060008060808789031215613fb2578384fd5b8635613fbd81615915565b9550602087013567ffffffffffffffff80821115613fd9578586fd5b613fe58a838b01613c4f565b90975095506040890135915080821115613ffd578283fd5b6140098a838b01613c4f565b90955093506060890135915080821115614021578283fd5b5061402e89828a01613d04565b9150509295509295509295565b60008060006060848603121561404f578081fd5b833561405a81615915565b9250602084013567ffffffffffffffff80821115614076578283fd5b61408287838801613c98565b93506040860135915080821115614097578283fd5b506140a486828701613c98565b9150509250925092565b600080600080608085870312156140c3578182fd5b84356140ce81615915565b9350602085013567ffffffffffffffff808211156140ea578384fd5b6140f688838901613c98565b9450604087013591508082111561410b578384fd5b61411788838901613c98565b9350606087013591508082111561412c578283fd5b50613f2787828801613d04565b6000806040838503121561414b578182fd5b823561415681615915565b91506020830135613e148161592d565b60008060408385031215614178578182fd5b823561418381615915565b946020939093013593505050565b600080600080606085870312156141a6578182fd5b84356141b181615915565b935060208501359250604085013567ffffffffffffffff8111156141d3578283fd5b6141df87828801613d6f565b95989497509550505050565b6000806000606084860312156141ff578081fd5b833561420a81615915565b95602085013595506040909401359392505050565b60008060008060808587031215614234578182fd5b843561423f81615915565b93506020850135925060408501359150606085013567ffffffffffffffff811115613f1b578182fd5b60008060008060006080868803121561427f578283fd5b853561428a81615915565b94506020860135935060408601359250606086013567ffffffffffffffff8111156142b3578182fd5b6142bf88828901613d6f565b969995985093965092949392505050565b600080604083850312156142e2578182fd5b823567ffffffffffffffff808211156142f9578384fd5b818501915085601f83011261430c578384fd5b8135602061431c613cb883615713565b82815281810190858301838502870184018b1015614338578889fd5b8896505b8487101561436357803561434f81615915565b83526001969096019591830191830161433c565b5096505086013592505080821115614379578283fd5b5061438685828601613c98565b9150509250929050565b600080602083850312156143a2578182fd5b823567ffffffffffffffff8111156143b8578283fd5b6143c485828601613c4f565b90969095509350505050565b6000602082840312156143e1578081fd5b81356116478161592d565b6000602082840312156143fd578081fd5b81516116478161592d565b600060208284031215614419578081fd5b5035919050565b600060208284031215614431578081fd5b5051919050565b6000806040838503121561444a578182fd5b823591506020830135613e1481615915565b6000806040838503121561446e578182fd5b50508035926020909101359150565b60006020828403121561448e578081fd5b81356116478161593b565b6000602082840312156144aa578081fd5b81516116478161593b565b600080602083850312156144c7578182fd5b823567ffffffffffffffff8111156144dd578283fd5b6143c485828601613d6f565b6000602082840312156144fa578081fd5b81516fffffffffffffffffffffffffffffffff81168114611647578182fd5b60008284527f07ffffffffffffffffffffffffffffffffffffffffffffffffffffffffffffff83111561454a578081fd5b6020830280836020870137939093016020019283525090919050565b6000815180845260208085019450808401835b8381101561459557815187529582019590820190600101614579565b509495945050505050565b600081518084526145b88160208601602086016157a5565b601f01601f19169290920160200192915050565b60008284528282602086013780602084860101526020601f19601f85011685010190509392505050565b600082516146088184602087016157a5565b9190910192915050565b60007f416363657373436f6e74726f6c3a206163636f756e74200000000000000000008252835161464a8160178501602088016157a5565b7f206973206d697373696e6720726f6c652000000000000000000000000000000060179184019182015283516146878160288401602088016157a5565b01602801949350505050565b6001600160a01b0391909116815260200190565b6001600160a01b0392831681529116602082015260400190565b60006001600160a01b03808816835280871660208401525060a060408301526146ed60a0830186614566565b82810360608401526146ff8186614566565b9050828103608084015261471381856145a0565b98975050505050505050565b6001600160a01b039384168152919092166020820152604081019190915260600190565b60006001600160a01b03808816835280871660208401525084604083015283606083015260a0608083015261477b60a08301846145a0565b979650505050505050565b60006001600160a01b0385168252606060208301526147a860608301856145a0565b9050600383106147c857634e487b7160e01b600052602160045260246000fd5b826040830152949350505050565b6001600160a01b03929092168252602082015260400190565b6001600160a01b039390931683526020830191909152604082015260600190565b6000602080830181845280855180835260408601915060408482028701019250838701855b8281101561486357603f198886030184526148518583516145a0565b94509285019290850190600101614835565b5092979650505050505050565b6000602082526116476020830184614566565b6000606082526148966060830188614566565b6020838203818501528187835281830190508182890284010189855b8a81101561491e57858303601f190184528135368d9003601e190181126148d7578788fd5b8c01803567ffffffffffffffff8111156148ef578889fd5b8036038e13156148fd578889fd5b61490a85828985016145cc565b9587019594505050908401906001016148b2565b5050858103604087015261493381888a614519565b9b9a5050505050505050505050565b6000604082526149556040830185614566565b82810360208401526149678185614566565b95945050505050565b901515815260200190565b90815260200190565b9182526001600160a01b0316602082015260400190565b6001600160e01b031991909116815260200190565b60006020825261164760208301846145a0565b60208082526034908201527f455243313135353a207472616e7366657220746f206e6f6e204552433131353560408201527f526563656976657220696d706c656d656e746572000000000000000000000000606082015260800190565b6020808252818101527f537472696e67733a20686578206c656e67746820696e73756666696369656e74604082015260600190565b60208082526028908201527f455243313135353a204552433131353552656365697665722072656a6563746560408201527f6420746f6b656e73000000000000000000000000000000000000000000000000606082015260800190565b6020808252603e908201527f4e4654436f6c6c656374696f6e3a20496e76616c6964206270732070726f766960408201527f6465643b206d757374206265206c657373207468616e2031302c3030302e0000606082015260800190565b60208082526014908201527f5061757361626c653a206e6f7420706175736564000000000000000000000000604082015260600190565b60208082526039908201527f4e4654436f6c6c656374696f6e3a2063616e6e6f742063616c6c20746869732060408201527f666e20666f72206372656174696e67206e6577204e4654732e00000000000000606082015260800190565b6020808252602b908201527f455243313135353a2062616c616e636520717565727920666f7220746865207a60408201527f65726f2061646472657373000000000000000000000000000000000000000000606082015260800190565b6020808252603a908201527f4e4654436f6c6c656374696f6e3a2063616e6e6f7420667265656c79206d696e60408201527f74206d6f7265206f66204552433230206f72204552433732312e000000000000606082015260800190565b6020808252602f908201527f4e4654436f6c6c656374696f6e3a204661696c656420746f207472616e73666560408201527f7220455243323020746f6b656e732e0000000000000000000000000000000000606082015260800190565b60208082526024908201527f455243313135353a206275726e20616d6f756e7420657863656564732062616c604082015263616e636560e01b606082015260800190565b6020808252603d908201527f4e4654436f6c6c656374696f6e3a204d75737420617070726f7665207468652060408201527f636f6e747261637420746f207472616e7366657220746865204e46542e000000606082015260800190565b6020808252602c908201527f455243313135355061757361626c653a20746f6b656e207472616e736665722060408201527f7768696c65207061757365640000000000000000000000000000000000000000606082015260800190565b6020808252603d908201527f4e4654436f6c6c656374696f6e3a204d75737420617070726f7665207468697360408201527f20636f6e747261637420746f207472616e7366657220746f6b656e732e000000606082015260800190565b60208082526029908201527f455243313135353a2063616c6c6572206973206e6f74206f776e6572206e6f7260408201527f20617070726f7665640000000000000000000000000000000000000000000000606082015260800190565b60208082526048908201527f4e4654436f6c6c656374696f6e3a205472616e7366657273206172652072657360408201527f7472696374656420746f206f722066726f6d205452414e534645525f524f4c4560608201527f20686f6c64657273000000000000000000000000000000000000000000000000608082015260a00190565b60208082526016908201527f6f6e6c79206d6f64756c652061646d696e20726f6c6500000000000000000000604082015260600190565b6020808252603a908201527f4e4654436f6c6c656374696f6e3a204d7573742073706563696679206571756160408201527f6c206e756d626572206f6620636f6e6669672076616c7565732e000000000000606082015260800190565b60208082526010908201527f5061757361626c653a2070617573656400000000000000000000000000000000604082015260600190565b60208082526025908201527f455243313135353a207472616e7366657220746f20746865207a65726f206164604082015264647265737360d81b606082015260800190565b60208082526032908201527f455243313135353a207472616e736665722063616c6c6572206973206e6f742060408201527f6f776e6572206e6f7220617070726f7665640000000000000000000000000000606082015260800190565b60208082526045908201527f4e4654436f6c6c656374696f6e3a204f6e6c79206163636f756e74732077697460408201527f68204d494e5445525f524f4c452063616e2063616c6c20746869732066756e636060820152643a34b7b71760d91b608082015260a00190565b60208082526023908201527f455243313135353a206275726e2066726f6d20746865207a65726f206164647260408201526265737360e81b606082015260800190565b60208082526038908201527f455243313135355072657365744d696e7465725061757365723a206d7573742060408201527f68617665206d696e74657220726f6c6520746f206d696e740000000000000000606082015260800190565b6020808252602a908201527f455243313135353a20696e73756666696369656e742062616c616e636520666f60408201527f72207472616e7366657200000000000000000000000000000000000000000000606082015260800190565b60208082526026908201527f416464726573733a2064656c65676174652063616c6c20746f206e6f6e2d636f6040820152651b9d1c9858dd60d21b606082015260800190565b6020808252603b908201527f4e4654436f6c6c656374696f6e3a204d757374206f776e2074686520616d6f7560408201527f6e74206f6620746f6b656e73206265696e6720777261707065642e0000000000606082015260800190565b6020808252603b908201527f455243313135355072657365744d696e7465725061757365723a206d7573742060408201527f686176652070617573657220726f6c6520746f20756e70617573650000000000606082015260800190565b60208082526039908201527f455243313135355072657365744d696e7465725061757365723a206d7573742060408201527f686176652070617573657220726f6c6520746f20706175736500000000000000606082015260800190565b6020808252603c908201527f4e4654436f6c6c656374696f6e3a206f6e6c7920612070726f746f636f6c206160408201527f646d696e2063616e2063616c6c20746869732066756e6374696f6e2e00000000606082015260800190565b60208082526029908201527f455243313135353a2073657474696e6720617070726f76616c2073746174757360408201527f20666f722073656c660000000000000000000000000000000000000000000000606082015260800190565b60208082526029908201527f455243313135353a206163636f756e747320616e6420696473206c656e67746860408201527f206d69736d617463680000000000000000000000000000000000000000000000606082015260800190565b60208082526033908201527f4e4654436f6c6c656374696f6e3a2043616e6e6f742072656465656d20616e2060408201527f4e465420796f7520646f206e6f74206f776e2e00000000000000000000000000606082015260800190565b60208082526035908201527f4e4654436f6c6c656374696f6e3a204f6e6c7920746865206f776e6572206f6660408201527f20746865204e46542063616e20777261702069742e0000000000000000000000606082015260800190565b6020808252602c908201527f4e4654436f6c6c656374696f6e3a204d75737420637265617465206174206c6560408201527f617374206f6e65204e46542e0000000000000000000000000000000000000000606082015260800190565b60208082526028908201527f455243313135353a2069647320616e6420616d6f756e7473206c656e6774682060408201527f6d69736d61746368000000000000000000000000000000000000000000000000606082015260800190565b60208082526021908201527f455243313135353a206d696e7420746f20746865207a65726f206164647265736040820152607360f81b606082015260800190565b6020808252602f908201527f416363657373436f6e74726f6c3a2063616e206f6e6c792072656e6f756e636560408201527f20726f6c657320666f722073656c660000000000000000000000000000000000606082015260800190565b918252602082015260400190565b6000858252846020830152606060408301526135976060830184866145cc565b60008682528560208301528460408301526080606083015261477b6080830184866145cc565b6000808335601e198436030181126156ba578283fd5b83018035915067ffffffffffffffff8211156156d4578283fd5b602001915036819003821315613c9157600080fd5b60405181810167ffffffffffffffff8111828210171561570b5761570b615854565b604052919050565b600067ffffffffffffffff82111561572d5761572d615854565b5060209081020190565b6000821982111561574a5761574a61583e565b500190565b60008261576a57634e487b7160e01b81526012600452602481fd5b500490565b60008160001904831182151516156157895761578961583e565b500290565b6000828210156157a0576157a061583e565b500390565b60005b838110156157c05781810151838201526020016157a8565b838111156113e55750506000910152565b6000816157e0576157e061583e565b506000190190565b6002810460018216806157fc57607f821691505b6020821081141561581d57634e487b7160e01b600052602260045260246000fd5b50919050565b60006000198214156158375761583761583e565b5060010190565b634e487b7160e01b600052601160045260246000fd5b634e487b7160e01b600052604160045260246000fd5b60e01c90565b600060443d1015615880576112e3565b600481823e6308c379a0615894825161586a565b1461589e576112e3565b6040513d600319016004823e80513d67ffffffffffffffff81602484011181841117156158ce57505050506112e3565b828401925082519150808211156158e857505050506112e3565b503d83016020828401011115615900575050506112e3565b601f01601f1916810160200160405291505090565b6001600160a01b038116811461592a57600080fd5b50565b801515811461592a57600080fd5b6001600160e01b03198116811461592a57600080fdfe416464726573733a206c6f772d6c6576656c2064656c65676174652063616c6c206661696c6564a164736f6c6343000800000a",
  "linkReferences": {},
  "deployedLinkReferences": {}
}