{
  "_format": "hh-sol-artifact-1",
  "contractName": "NFTCollection",
  "sourceName": "contracts/NFTCollection.sol",
  "abi": [
    {
      "inputs": [
        {
          "internalType": "address payable",
          "name": "_controlCenter",
          "type": "address"
        },
        {
          "internalType": "address",
          "name": "_trustedForwarder",
          "type": "address"
        },
        {
          "internalType": "string",
          "name": "_uri",
          "type": "string"
        }
      ],
      "stateMutability": "nonpayable",
      "type": "constructor"
    },
    {
      "anonymous": false,
      "inputs": [
        {
          "indexed": true,
          "internalType": "address",
          "name": "account",
          "type": "address"
        },
        {
          "indexed": true,
          "internalType": "address",
          "name": "operator",
          "type": "address"
        },
        {
          "indexed": false,
          "internalType": "bool",
          "name": "approved",
          "type": "bool"
        }
      ],
      "name": "ApprovalForAll",
      "type": "event"
    },
    {
      "anonymous": false,
      "inputs": [
        {
          "indexed": true,
          "internalType": "address",
          "name": "redeemer",
          "type": "address"
        },
        {
          "indexed": true,
          "internalType": "address",
          "name": "tokenContract",
          "type": "address"
        },
        {
          "indexed": false,
          "internalType": "uint256",
          "name": "tokenAmountReceived",
          "type": "uint256"
        },
        {
          "indexed": false,
          "internalType": "uint256",
          "name": "nftAmountRedeemed",
          "type": "uint256"
        }
      ],
      "name": "ERC20Redeemed",
      "type": "event"
    },
    {
      "anonymous": false,
      "inputs": [
        {
          "indexed": true,
          "internalType": "address",
          "name": "creator",
          "type": "address"
        },
        {
          "indexed": true,
          "internalType": "address",
          "name": "tokenContract",
          "type": "address"
        },
        {
          "indexed": false,
          "internalType": "uint256",
          "name": "tokenAmount",
          "type": "uint256"
        },
        {
          "indexed": false,
          "internalType": "uint256",
          "name": "nftsMinted",
          "type": "uint256"
        },
        {
          "indexed": false,
          "internalType": "string",
          "name": "nftURI",
          "type": "string"
        }
      ],
      "name": "ERC20WrappedNfts",
      "type": "event"
    },
    {
      "anonymous": false,
      "inputs": [
        {
          "indexed": true,
          "internalType": "address",
          "name": "redeemer",
          "type": "address"
        },
        {
          "indexed": true,
          "internalType": "address",
          "name": "nftContract",
          "type": "address"
        },
        {
          "indexed": false,
          "internalType": "uint256",
          "name": "nftTokenId",
          "type": "uint256"
        },
        {
          "indexed": false,
          "internalType": "uint256",
          "name": "nativeNftTokenId",
          "type": "uint256"
        }
      ],
      "name": "ERC721Redeemed",
      "type": "event"
    },
    {
      "anonymous": false,
      "inputs": [
        {
          "indexed": true,
          "internalType": "address",
          "name": "creator",
          "type": "address"
        },
        {
          "indexed": true,
          "internalType": "address",
          "name": "nftContract",
          "type": "address"
        },
        {
          "indexed": false,
          "internalType": "uint256",
          "name": "nftTokenId",
          "type": "uint256"
        },
        {
          "indexed": false,
          "internalType": "uint256",
          "name": "nativeNftTokenId",
          "type": "uint256"
        },
        {
          "indexed": false,
          "internalType": "string",
          "name": "nativeNftURI",
          "type": "string"
        }
      ],
      "name": "ERC721WrappedNft",
      "type": "event"
    },
    {
      "anonymous": false,
      "inputs": [
        {
          "indexed": true,
          "internalType": "address",
          "name": "creator",
          "type": "address"
        },
        {
          "indexed": false,
          "internalType": "uint256[]",
          "name": "nftIds",
          "type": "uint256[]"
        },
        {
          "indexed": false,
          "internalType": "string[]",
          "name": "nftURIs",
          "type": "string[]"
        },
        {
          "indexed": false,
          "internalType": "uint256[]",
          "name": "nftSupplies",
          "type": "uint256[]"
        }
      ],
      "name": "NativeNfts",
      "type": "event"
    },
    {
      "anonymous": false,
      "inputs": [
        {
          "indexed": false,
          "internalType": "address",
          "name": "account",
          "type": "address"
        }
      ],
      "name": "Paused",
      "type": "event"
    },
    {
      "anonymous": false,
      "inputs": [
        {
          "indexed": true,
          "internalType": "bytes32",
          "name": "role",
          "type": "bytes32"
        },
        {
          "indexed": true,
          "internalType": "bytes32",
          "name": "previousAdminRole",
          "type": "bytes32"
        },
        {
          "indexed": true,
          "internalType": "bytes32",
          "name": "newAdminRole",
          "type": "bytes32"
        }
      ],
      "name": "RoleAdminChanged",
      "type": "event"
    },
    {
      "anonymous": false,
      "inputs": [
        {
          "indexed": true,
          "internalType": "bytes32",
          "name": "role",
          "type": "bytes32"
        },
        {
          "indexed": true,
          "internalType": "address",
          "name": "account",
          "type": "address"
        },
        {
          "indexed": true,
          "internalType": "address",
          "name": "sender",
          "type": "address"
        }
      ],
      "name": "RoleGranted",
      "type": "event"
    },
    {
      "anonymous": false,
      "inputs": [
        {
          "indexed": true,
          "internalType": "bytes32",
          "name": "role",
          "type": "bytes32"
        },
        {
          "indexed": true,
          "internalType": "address",
          "name": "account",
          "type": "address"
        },
        {
          "indexed": true,
          "internalType": "address",
          "name": "sender",
          "type": "address"
        }
      ],
      "name": "RoleRevoked",
      "type": "event"
    },
    {
      "anonymous": false,
      "inputs": [
        {
          "indexed": false,
          "internalType": "uint256",
          "name": "royaltyBps",
          "type": "uint256"
        }
      ],
      "name": "RoyaltyUpdated",
      "type": "event"
    },
    {
      "anonymous": false,
      "inputs": [
        {
          "indexed": true,
          "internalType": "address",
          "name": "operator",
          "type": "address"
        },
        {
          "indexed": true,
          "internalType": "address",
          "name": "from",
          "type": "address"
        },
        {
          "indexed": true,
          "internalType": "address",
          "name": "to",
          "type": "address"
        },
        {
          "indexed": false,
          "internalType": "uint256[]",
          "name": "ids",
          "type": "uint256[]"
        },
        {
          "indexed": false,
          "internalType": "uint256[]",
          "name": "values",
          "type": "uint256[]"
        }
      ],
      "name": "TransferBatch",
      "type": "event"
    },
    {
      "anonymous": false,
      "inputs": [
        {
          "indexed": true,
          "internalType": "address",
          "name": "operator",
          "type": "address"
        },
        {
          "indexed": true,
          "internalType": "address",
          "name": "from",
          "type": "address"
        },
        {
          "indexed": true,
          "internalType": "address",
          "name": "to",
          "type": "address"
        },
        {
          "indexed": false,
          "internalType": "uint256",
          "name": "id",
          "type": "uint256"
        },
        {
          "indexed": false,
          "internalType": "uint256",
          "name": "value",
          "type": "uint256"
        }
      ],
      "name": "TransferSingle",
      "type": "event"
    },
    {
      "anonymous": false,
      "inputs": [
        {
          "indexed": false,
          "internalType": "string",
          "name": "value",
          "type": "string"
        },
        {
          "indexed": true,
          "internalType": "uint256",
          "name": "id",
          "type": "uint256"
        }
      ],
      "name": "URI",
      "type": "event"
    },
    {
      "anonymous": false,
      "inputs": [
        {
          "indexed": false,
          "internalType": "address",
          "name": "account",
          "type": "address"
        }
      ],
      "name": "Unpaused",
      "type": "event"
    },
    {
      "inputs": [],
      "name": "DEFAULT_ADMIN_ROLE",
      "outputs": [
        {
          "internalType": "bytes32",
          "name": "",
          "type": "bytes32"
        }
      ],
      "stateMutability": "view",
      "type": "function"
    },
    {
      "inputs": [],
      "name": "MINTER_ROLE",
      "outputs": [
        {
          "internalType": "bytes32",
          "name": "",
          "type": "bytes32"
        }
      ],
      "stateMutability": "view",
      "type": "function"
    },
    {
      "inputs": [],
      "name": "PAUSER_ROLE",
      "outputs": [
        {
          "internalType": "bytes32",
          "name": "",
          "type": "bytes32"
        }
      ],
      "stateMutability": "view",
      "type": "function"
    },
    {
      "inputs": [],
      "name": "TRANSFER_ROLE",
      "outputs": [
        {
          "internalType": "bytes32",
          "name": "",
          "type": "bytes32"
        }
      ],
      "stateMutability": "view",
      "type": "function"
    },
    {
      "inputs": [],
      "name": "_contractURI",
      "outputs": [
        {
          "internalType": "string",
          "name": "",
          "type": "string"
        }
      ],
      "stateMutability": "view",
      "type": "function"
    },
    {
      "inputs": [
        {
          "internalType": "address",
          "name": "account",
          "type": "address"
        },
        {
          "internalType": "uint256",
          "name": "id",
          "type": "uint256"
        }
      ],
      "name": "balanceOf",
      "outputs": [
        {
          "internalType": "uint256",
          "name": "",
          "type": "uint256"
        }
      ],
      "stateMutability": "view",
      "type": "function"
    },
    {
      "inputs": [
        {
          "internalType": "address[]",
          "name": "accounts",
          "type": "address[]"
        },
        {
          "internalType": "uint256[]",
          "name": "ids",
          "type": "uint256[]"
        }
      ],
      "name": "balanceOfBatch",
      "outputs": [
        {
          "internalType": "uint256[]",
          "name": "",
          "type": "uint256[]"
        }
      ],
      "stateMutability": "view",
      "type": "function"
    },
    {
      "inputs": [
        {
          "internalType": "address",
          "name": "account",
          "type": "address"
        },
        {
          "internalType": "uint256",
          "name": "id",
          "type": "uint256"
        },
        {
          "internalType": "uint256",
          "name": "value",
          "type": "uint256"
        }
      ],
      "name": "burn",
      "outputs": [],
      "stateMutability": "nonpayable",
      "type": "function"
    },
    {
      "inputs": [
        {
          "internalType": "address",
          "name": "account",
          "type": "address"
        },
        {
          "internalType": "uint256[]",
          "name": "ids",
          "type": "uint256[]"
        },
        {
          "internalType": "uint256[]",
          "name": "values",
          "type": "uint256[]"
        }
      ],
      "name": "burnBatch",
      "outputs": [],
      "stateMutability": "nonpayable",
      "type": "function"
    },
    {
      "inputs": [],
      "name": "contractURI",
      "outputs": [
        {
          "internalType": "string",
          "name": "",
          "type": "string"
        }
      ],
      "stateMutability": "view",
      "type": "function"
    },
    {
      "inputs": [
        {
          "internalType": "string[]",
          "name": "_nftURIs",
          "type": "string[]"
        },
        {
          "internalType": "uint256[]",
          "name": "_nftSupplies",
          "type": "uint256[]"
        }
      ],
      "name": "createNativeNfts",
      "outputs": [
        {
          "internalType": "uint256[]",
          "name": "nftIds",
          "type": "uint256[]"
        }
      ],
      "stateMutability": "nonpayable",
      "type": "function"
    },
    {
      "inputs": [
        {
          "internalType": "address",
          "name": "_pack",
          "type": "address"
        },
        {
          "internalType": "string[]",
          "name": "_nftURIs",
          "type": "string[]"
        },
        {
          "internalType": "uint256[]",
          "name": "_nftSupplies",
          "type": "uint256[]"
        },
        {
          "internalType": "string",
          "name": "_packURI",
          "type": "string"
        },
        {
          "internalType": "uint256",
          "name": "_secondsUntilOpenStart",
          "type": "uint256"
        },
        {
          "internalType": "uint256",
          "name": "_secondsUntilOpenEnd",
          "type": "uint256"
        },
        {
          "internalType": "uint256",
          "name": "_nftsPerOpen",
          "type": "uint256"
        }
      ],
      "name": "createPackAtomic",
      "outputs": [],
      "stateMutability": "nonpayable",
      "type": "function"
    },
    {
      "inputs": [
        {
          "internalType": "uint256",
          "name": "_nftId",
          "type": "uint256"
        }
      ],
      "name": "creator",
      "outputs": [
        {
          "internalType": "address",
          "name": "",
          "type": "address"
        }
      ],
      "stateMutability": "view",
      "type": "function"
    },
    {
      "inputs": [
        {
          "internalType": "uint256",
          "name": "",
          "type": "uint256"
        }
      ],
      "name": "erc20WrappedNfts",
      "outputs": [
        {
          "internalType": "address",
          "name": "tokenContract",
          "type": "address"
        },
        {
          "internalType": "uint256",
          "name": "shares",
          "type": "uint256"
        },
        {
          "internalType": "uint256",
          "name": "underlyingTokenAmount",
          "type": "uint256"
        }
      ],
      "stateMutability": "view",
      "type": "function"
    },
    {
      "inputs": [
        {
          "internalType": "uint256",
          "name": "",
          "type": "uint256"
        }
      ],
      "name": "erc721WrappedNfts",
      "outputs": [
        {
          "internalType": "address",
          "name": "nftContract",
          "type": "address"
        },
        {
          "internalType": "uint256",
          "name": "nftTokenId",
          "type": "uint256"
        }
      ],
      "stateMutability": "view",
      "type": "function"
    },
    {
      "inputs": [
        {
          "internalType": "bytes32",
          "name": "role",
          "type": "bytes32"
        }
      ],
      "name": "getRoleAdmin",
      "outputs": [
        {
          "internalType": "bytes32",
          "name": "",
          "type": "bytes32"
        }
      ],
      "stateMutability": "view",
      "type": "function"
    },
    {
      "inputs": [
        {
          "internalType": "bytes32",
          "name": "role",
          "type": "bytes32"
        },
        {
          "internalType": "uint256",
          "name": "index",
          "type": "uint256"
        }
      ],
      "name": "getRoleMember",
      "outputs": [
        {
          "internalType": "address",
          "name": "",
          "type": "address"
        }
      ],
      "stateMutability": "view",
      "type": "function"
    },
    {
      "inputs": [
        {
          "internalType": "bytes32",
          "name": "role",
          "type": "bytes32"
        }
      ],
      "name": "getRoleMemberCount",
      "outputs": [
        {
          "internalType": "uint256",
          "name": "",
          "type": "uint256"
        }
      ],
      "stateMutability": "view",
      "type": "function"
    },
    {
      "inputs": [
        {
          "internalType": "bytes32",
          "name": "role",
          "type": "bytes32"
        },
        {
          "internalType": "address",
          "name": "account",
          "type": "address"
        }
      ],
      "name": "grantRole",
      "outputs": [],
      "stateMutability": "nonpayable",
      "type": "function"
    },
    {
      "inputs": [
        {
          "internalType": "bytes32",
          "name": "role",
          "type": "bytes32"
        },
        {
          "internalType": "address",
          "name": "account",
          "type": "address"
        }
      ],
      "name": "hasRole",
      "outputs": [
        {
          "internalType": "bool",
          "name": "",
          "type": "bool"
        }
      ],
      "stateMutability": "view",
      "type": "function"
    },
    {
      "inputs": [
        {
          "internalType": "address",
          "name": "account",
          "type": "address"
        },
        {
          "internalType": "address",
          "name": "operator",
          "type": "address"
        }
      ],
      "name": "isApprovedForAll",
      "outputs": [
        {
          "internalType": "bool",
          "name": "",
          "type": "bool"
        }
      ],
      "stateMutability": "view",
      "type": "function"
    },
    {
      "inputs": [],
      "name": "isRestrictedTransfer",
      "outputs": [
        {
          "internalType": "bool",
          "name": "",
          "type": "bool"
        }
      ],
      "stateMutability": "view",
      "type": "function"
    },
    {
      "inputs": [
        {
          "internalType": "address",
          "name": "forwarder",
          "type": "address"
        }
      ],
      "name": "isTrustedForwarder",
      "outputs": [
        {
          "internalType": "bool",
          "name": "",
          "type": "bool"
        }
      ],
      "stateMutability": "view",
      "type": "function"
    },
    {
      "inputs": [
        {
          "internalType": "address",
          "name": "to",
          "type": "address"
        },
        {
          "internalType": "uint256",
          "name": "id",
          "type": "uint256"
        },
        {
          "internalType": "uint256",
          "name": "amount",
          "type": "uint256"
        },
        {
          "internalType": "bytes",
          "name": "data",
          "type": "bytes"
        }
      ],
      "name": "mint",
      "outputs": [],
      "stateMutability": "nonpayable",
      "type": "function"
    },
    {
      "inputs": [
        {
          "internalType": "address",
          "name": "to",
          "type": "address"
        },
        {
          "internalType": "uint256[]",
          "name": "ids",
          "type": "uint256[]"
        },
        {
          "internalType": "uint256[]",
          "name": "amounts",
          "type": "uint256[]"
        },
        {
          "internalType": "bytes",
          "name": "data",
          "type": "bytes"
        }
      ],
      "name": "mintBatch",
      "outputs": [],
      "stateMutability": "nonpayable",
      "type": "function"
    },
    {
      "inputs": [],
      "name": "nextTokenId",
      "outputs": [
        {
          "internalType": "uint256",
          "name": "",
          "type": "uint256"
        }
      ],
      "stateMutability": "view",
      "type": "function"
    },
    {
      "inputs": [
        {
          "internalType": "uint256",
          "name": "",
          "type": "uint256"
        }
      ],
      "name": "nftInfo",
      "outputs": [
        {
          "internalType": "address",
          "name": "creator",
          "type": "address"
        },
        {
          "internalType": "string",
          "name": "uri",
          "type": "string"
        },
        {
          "internalType": "uint256",
          "name": "supply",
          "type": "uint256"
        },
        {
          "internalType": "enum NFTCollection.UnderlyingType",
          "name": "underlyingType",
          "type": "uint8"
        }
      ],
      "stateMutability": "view",
      "type": "function"
    },
    {
      "inputs": [],
      "name": "pause",
      "outputs": [],
      "stateMutability": "nonpayable",
      "type": "function"
    },
    {
      "inputs": [],
      "name": "paused",
      "outputs": [
        {
          "internalType": "bool",
          "name": "",
          "type": "bool"
        }
      ],
      "stateMutability": "view",
      "type": "function"
    },
    {
      "inputs": [
        {
          "internalType": "uint256",
          "name": "_nftId",
          "type": "uint256"
        },
        {
          "internalType": "uint256",
          "name": "_amount",
          "type": "uint256"
        }
      ],
      "name": "redeemERC20",
      "outputs": [],
      "stateMutability": "nonpayable",
      "type": "function"
    },
    {
      "inputs": [
        {
          "internalType": "uint256",
          "name": "_nftId",
          "type": "uint256"
        }
      ],
      "name": "redeemERC721",
      "outputs": [],
      "stateMutability": "nonpayable",
      "type": "function"
    },
    {
      "inputs": [
        {
          "internalType": "bytes32",
          "name": "role",
          "type": "bytes32"
        },
        {
          "internalType": "address",
          "name": "account",
          "type": "address"
        }
      ],
      "name": "renounceRole",
      "outputs": [],
      "stateMutability": "nonpayable",
      "type": "function"
    },
    {
      "inputs": [
        {
          "internalType": "bytes32",
          "name": "role",
          "type": "bytes32"
        },
        {
          "internalType": "address",
          "name": "account",
          "type": "address"
        }
      ],
      "name": "revokeRole",
      "outputs": [],
      "stateMutability": "nonpayable",
      "type": "function"
    },
    {
      "inputs": [],
      "name": "royaltyBps",
      "outputs": [
        {
          "internalType": "uint256",
          "name": "",
          "type": "uint256"
        }
      ],
      "stateMutability": "view",
      "type": "function"
    },
    {
      "inputs": [
        {
          "internalType": "uint256",
          "name": "tokenId",
          "type": "uint256"
        },
        {
          "internalType": "uint256",
          "name": "salePrice",
          "type": "uint256"
        }
      ],
      "name": "royaltyInfo",
      "outputs": [
        {
          "internalType": "address",
          "name": "receiver",
          "type": "address"
        },
        {
          "internalType": "uint256",
          "name": "royaltyAmount",
          "type": "uint256"
        }
      ],
      "stateMutability": "view",
      "type": "function"
    },
    {
      "inputs": [
        {
          "internalType": "address",
          "name": "from",
          "type": "address"
        },
        {
          "internalType": "address",
          "name": "to",
          "type": "address"
        },
        {
          "internalType": "uint256[]",
          "name": "ids",
          "type": "uint256[]"
        },
        {
          "internalType": "uint256[]",
          "name": "amounts",
          "type": "uint256[]"
        },
        {
          "internalType": "bytes",
          "name": "data",
          "type": "bytes"
        }
      ],
      "name": "safeBatchTransferFrom",
      "outputs": [],
      "stateMutability": "nonpayable",
      "type": "function"
    },
    {
      "inputs": [
        {
          "internalType": "address",
          "name": "from",
          "type": "address"
        },
        {
          "internalType": "address",
          "name": "to",
          "type": "address"
        },
        {
          "internalType": "uint256",
          "name": "id",
          "type": "uint256"
        },
        {
          "internalType": "uint256",
          "name": "amount",
          "type": "uint256"
        },
        {
          "internalType": "bytes",
          "name": "data",
          "type": "bytes"
        }
      ],
      "name": "safeTransferFrom",
      "outputs": [],
      "stateMutability": "nonpayable",
      "type": "function"
    },
    {
      "inputs": [
        {
          "internalType": "address",
          "name": "operator",
          "type": "address"
        },
        {
          "internalType": "bool",
          "name": "approved",
          "type": "bool"
        }
      ],
      "name": "setApprovalForAll",
      "outputs": [],
      "stateMutability": "nonpayable",
      "type": "function"
    },
    {
      "inputs": [
        {
          "internalType": "string",
          "name": "_URI",
          "type": "string"
        }
      ],
      "name": "setContractURI",
      "outputs": [],
      "stateMutability": "nonpayable",
      "type": "function"
    },
    {
      "inputs": [
        {
          "internalType": "bool",
          "name": "_restrictedTransfer",
          "type": "bool"
        }
      ],
      "name": "setRestrictedTransfer",
      "outputs": [],
      "stateMutability": "nonpayable",
      "type": "function"
    },
    {
      "inputs": [
        {
          "internalType": "uint256",
          "name": "_royaltyBps",
          "type": "uint256"
        }
      ],
      "name": "setRoyaltyBps",
      "outputs": [],
      "stateMutability": "nonpayable",
      "type": "function"
    },
    {
      "inputs": [
        {
          "internalType": "bytes4",
          "name": "interfaceId",
          "type": "bytes4"
        }
      ],
      "name": "supportsInterface",
      "outputs": [
        {
          "internalType": "bool",
          "name": "",
          "type": "bool"
        }
      ],
      "stateMutability": "view",
      "type": "function"
    },
    {
      "inputs": [
        {
          "internalType": "uint256",
          "name": "_nftId",
          "type": "uint256"
        }
      ],
      "name": "tokenURI",
      "outputs": [
        {
          "internalType": "string",
          "name": "",
          "type": "string"
        }
      ],
      "stateMutability": "view",
      "type": "function"
    },
    {
      "inputs": [],
      "name": "unpause",
      "outputs": [],
      "stateMutability": "nonpayable",
      "type": "function"
    },
    {
      "inputs": [
        {
          "internalType": "uint256",
          "name": "_nftId",
          "type": "uint256"
        }
      ],
      "name": "uri",
      "outputs": [
        {
          "internalType": "string",
          "name": "",
          "type": "string"
        }
      ],
      "stateMutability": "view",
      "type": "function"
    },
    {
      "inputs": [
        {
          "internalType": "address",
          "name": "_tokenContract",
          "type": "address"
        },
        {
          "internalType": "uint256",
          "name": "_tokenAmount",
          "type": "uint256"
        },
        {
          "internalType": "uint256",
          "name": "_numOfNftsToMint",
          "type": "uint256"
        },
        {
          "internalType": "string",
          "name": "_nftURI",
          "type": "string"
        }
      ],
      "name": "wrapERC20",
      "outputs": [],
      "stateMutability": "nonpayable",
      "type": "function"
    },
    {
      "inputs": [
        {
          "internalType": "address",
          "name": "_nftContract",
          "type": "address"
        },
        {
          "internalType": "uint256",
          "name": "_tokenId",
          "type": "uint256"
        },
        {
          "internalType": "string",
          "name": "_nftURI",
          "type": "string"
        }
      ],
      "name": "wrapERC721",
      "outputs": [],
      "stateMutability": "nonpayable",
      "type": "function"
    }
  ],
  "bytecode": "0x60806040523480156200001157600080fd5b5060405162005c5b38038062005c5b83398101604081905262000034916200040a565b818180620000428162000148565b506005805460ff191690556200006360006200005d62000161565b6200017e565b620000927f9f2df0fed2c77648de5860a4cc508cd0818c85b8b8a1ab4ceeef8d981c8956a66200005d62000161565b620000c17f65d7a28e3265b37a6474929f336521b332c1681b933f6cb9f3376673440d862a6200005d62000161565b5060058054610100600160a81b0319166101006001600160a01b0393841602179055600680546001600160a01b03191691851691909117905580516200010f90600990602084019062000364565b506200013f7f8502233096d909befbda0999bb8ea2f3a6be3c138b9fbf003752a4c8bce86f6c6200005d62000161565b50505062000573565b80516200015d90600490602084019062000364565b5050565b600062000178620001c160201b620026ca1760201c565b90505b90565b6200019582826200020160201b620026f81760201c565b6000828152600160209081526040909120620001bc918390620027066200020d821b17901c565b505050565b6000620001ce336200022d565b15620001e4575060131936013560601c6200017b565b620001f96200024660201b6200271b1760201c565b90506200017b565b6200015d82826200024a565b600062000224836001600160a01b038416620002d4565b90505b92915050565b60055461010090046001600160a01b0390811691161490565b3390565b62000256828262000323565b6200015d576000828152602081815260408083206001600160a01b03851684529091529020805460ff191660011790556200029062000161565b6001600160a01b0316816001600160a01b0316837f2f8788117e7eff1d82e926ec794901d17c78024a50270940304540a733656f0d60405160405180910390a45050565b6000620002e283836200034c565b6200031a5750815460018181018455600084815260208082209093018490558454848252828601909352604090209190915562000227565b50600062000227565b6000918252602082815260408084206001600160a01b0393909316845291905290205460ff1690565b60009081526001919091016020526040902054151590565b828054620003729062000507565b90600052602060002090601f016020900481019282620003965760008555620003e1565b82601f10620003b157805160ff1916838001178555620003e1565b82800160010185558215620003e1579182015b82811115620003e1578251825591602001919060010190620003c4565b50620003ef929150620003f3565b5090565b5b80821115620003ef5760008155600101620003f4565b6000806000606084860312156200041f578283fd5b83516200042c816200055a565b8093505060208085015162000441816200055a565b60408601519093506001600160401b03808211156200045e578384fd5b818701915087601f83011262000472578384fd5b81518181111562000487576200048762000544565b604051601f8201601f1916810185018381118282101715620004ad57620004ad62000544565b60405281815283820185018a1015620004c4578586fd5b8592505b81831015620004e75783830185015181840186015291840191620004c8565b81831115620004f857858583830101525b80955050505050509250925092565b6002810460018216806200051c57607f821691505b602082108114156200053e57634e487b7160e01b600052602260045260246000fd5b50919050565b634e487b7160e01b600052604160045260246000fd5b6001600160a01b03811681146200057057600080fd5b50565b6156d880620005836000396000f3fe608060405234801561001057600080fd5b50600436106103145760003560e01c8063788f1f5e116101a7578063c63adb2b116100ee578063ddfa3e2211610097578063e985e9c511610071578063e985e9c51461063f578063f242432a14610652578063f5298aca1461066557610314565b8063ddfa3e221461061c578063e63ab1e91461062f578063e8a3d4851461063757610314565b8063d5391393116100c8578063d5391393146105ee578063d547741f146105f6578063db884b0c1461060957610314565b8063c63adb2b146105d3578063c87b56dd14610377578063ca15c873146105db57610314565b806391d1485411610150578063a217fddf1161012a578063a217fddf146105b0578063a22cb465146105b8578063c0e72740146105cb57610314565b806391d1485414610577578063938e3d7b1461058a57806393b778d41461059d57610314565b80638456cb59116101815780638456cb59146105495780638ba448c2146105515780639010d07c1461056457610314565b8063788f1f5e1461051b5780637a61080b1461052e57806383661b291461054157610314565b80632eb2c2d61161026b578063510b5158116102145780636b20c454116101ee5780636b20c454146104ed578063731133e91461050057806375794a3c1461051357610314565b8063510b5158146104b2578063572b6c05146104d25780635c975abb146104e557610314565b80633f4ba83a116102455780633f4ba83a1461047757806341466a951461047f5780634e1273f41461049f57610314565b80632eb2c2d61461043e5780632f2ff15d1461045157806336568abe1461046457610314565b80631f72d831116102cd578063206b60f9116102a7578063206b60f914610402578063248a9ca31461040a5780632a55205a1461041d57610314565b80631f72d831146103b95780631f7fdffa146103cc5780631f8bc790146103df57610314565b8063090a3282116102fe578063090a3282146103625780630e89341c146103775780631ceb2dc21461039757610314565b8062fdd58e1461031957806301ffc9a714610342575b600080fd5b61032c610327366004614025565b610678565b60405161033991906147fa565b60405180910390f35b610355610350366004614365565b6106d4565b60405161033991906147ef565b610375610370366004614050565b6106ff565b005b61038a6103853660046142f0565b610bbf565b604051610339919061484b565b6103aa6103a53660046142f0565b610c64565b604051610339939291906146ce565b6103756103c73660046142f0565b610c8f565b6103756103da366004613f61565b610f2b565b6103f26103ed3660046142f0565b610f85565b604051610339949392919061465e565b61032c611044565b61032c6104183660046142f0565b611068565b61043061042b366004614344565b61107d565b6040516103399291906146b5565b61037561044c366004613d1a565b61113e565b61037561045f366004614320565b61119c565b610375610472366004614320565b6111c3565b6103756111e5565b61049261048d36600461425b565b611237565b60405161033991906146ef565b6104926104ad36600461419b565b6115c1565b6104c56104c03660046142f0565b6116e1565b604051610339919061456b565b6103556104e0366004613caa565b6116fc565b610355611715565b6103756104fb366004613eee565b61171f565b61037561050e3660046140de565b611774565b61032c6117c8565b610375610529366004613e2b565b6117ce565b61037561053c366004614344565b611903565b610355611a8e565b610375611a9e565b61037561055f3660046142b8565b611aee565b6104c5610572366004614344565b611c3d565b610355610585366004614320565b611c5c565b61037561059836600461439d565b611c85565b6103756105ab3660046142f0565b611da7565b61032c611ef4565b6103756105c6366004613ff8565b611ef9565b61038a611fc7565b61032c612055565b61032c6105e93660046142f0565b61205b565b61032c612072565b610375610604366004614320565b612096565b610375610617366004614133565b6120a0565b61043061062a3660046142f0565b612515565b61032c61253a565b61038a61255e565b61035561064d366004613ce2565b6125f0565b610375610660366004613dc4565b61261e565b6103756106733660046140aa565b612675565b60006001600160a01b0383166106a95760405162461bcd60e51b81526004016106a090614984565b60405180910390fd5b5060008181526002602090815260408083206001600160a01b03861684529091529020545b92915050565b60006106df8261271f565b806106ce57506001600160e01b0319821663152a902d60e11b1492915050565b600660009054906101000a90046001600160a01b03166001600160a01b0316639d2f83f06040518163ffffffff1660e01b815260040160206040518083038186803b15801561074d57600080fd5b505afa158015610761573d6000803e3d6000fd5b505050506040513d601f19601f8201168201806040525081019061078591906142d4565b156107a25760405162461bcd60e51b81526004016106a090614f08565b6107aa61272a565b6001600160a01b0316846001600160a01b0316636352211e856040518263ffffffff1660e01b81526004016107df91906147fa565b60206040518083038186803b1580156107f757600080fd5b505afa15801561080b573d6000803e3d6000fd5b505050506040513d601f19601f8201168201806040525081019061082f9190613cc6565b6001600160a01b0316146108555760405162461bcd60e51b81526004016106a0906151fd565b60405163020604bf60e21b815230906001600160a01b0386169063081812fc906108839087906004016147fa565b60206040518083038186803b15801561089b57600080fd5b505afa1580156108af573d6000803e3d6000fd5b505050506040513d601f19601f820116820180604052508101906108d39190613cc6565b6001600160a01b031614806109685750836001600160a01b031663e985e9c56108fa61272a565b306040518363ffffffff1660e01b815260040161091892919061457f565b60206040518083038186803b15801561093057600080fd5b505afa158015610944573d6000803e3d6000fd5b505050506040513d601f19601f8201168201806040525081019061096891906142d4565b6109845760405162461bcd60e51b81526004016106a090614a82565b836001600160a01b03166342842e0e61099b61272a565b30866040518463ffffffff1660e01b81526004016109bb939291906145f7565b600060405180830381600087803b1580156109d557600080fd5b505af11580156109e9573d6000803e3d6000fd5b50505050610a126109f861272a565b600754600160405180602001604052806000815250611774565b6040518060800160405280610a2561272a565b6001600160a01b0316815260200183838080601f016020809104026020016040519081016040528093929190818152602001838380828437600092018290525093855250506001602080850182905260026040958601526007548452600a815293909220845181546001600160a01b0319166001600160a01b039091161781558484015180519194610abc94860193500190613a3d565b506040820151816002015560608201518160030160006101000a81548160ff02191690836002811115610aff57634e487b7160e01b600052602160045260246000fd5b0217905550506040805180820182526001600160a01b0387811680835260208084018981526007546000908152600b909252949020925183546001600160a01b031916921691909117825591516001909101559050610b5c61272a565b6001600160a01b03167fdae1779be741094a20f8287fd2c7a4d2d745eeae29c438867017066ae27a1bc4856007548686604051610b9c94939291906153c0565b60405180910390a360078054906000610bb48361559d565b919050555050505050565b6000818152600a60205260409020600101805460609190610bdf90615562565b80601f0160208091040260200160405190810160405280929190818152602001828054610c0b90615562565b8015610c585780601f10610c2d57610100808354040283529160200191610c58565b820191906000526020600020905b815481529060010190602001808311610c3b57829003601f168201915b50505050509050919050565b600c602052600090815260409020805460018201546002909201546001600160a01b03909116919083565b60065460408051634a32c6bf60e11b815290516001600160a01b03909216916391d148549183916394658d7e91600480820192602092909190829003018186803b158015610cdc57600080fd5b505afa158015610cf0573d6000803e3d6000fd5b505050506040513d601f19601f82011682018060405250810190610d149190614308565b610d1c61272a565b6040518363ffffffff1660e01b8152600401610d39929190614803565b60206040518083038186803b158015610d5157600080fd5b505afa158015610d65573d6000803e3d6000fd5b505050506040513d601f19601f82011682018060405250810190610d8991906142d4565b610da55760405162461bcd60e51b81526004016106a090615089565b600660009054906101000a90046001600160a01b03166001600160a01b0316635cd423156040518163ffffffff1660e01b815260040160206040518083038186803b158015610df357600080fd5b505afa158015610e07573d6000803e3d6000fd5b505050506040513d601f19601f82011682018060405250810190610e2b91906143dd565b600660009054906101000a90046001600160a01b03166001600160a01b031663fd967f476040518163ffffffff1660e01b815260040160206040518083038186803b158015610e7957600080fd5b505afa158015610e8d573d6000803e3d6000fd5b505050506040513d601f19601f82011682018060405250810190610eb191906143dd565b610ebb919061547d565b6fffffffffffffffffffffffffffffffff168110610eeb5760405162461bcd60e51b81526004016106a090614eab565b60088190556040517f244ea8d7627f5a08f4299862bd5a45752842c183aee5b0fb0d1e4887bfa605b390610f209083906147fa565b60405180910390a150565b610f577f9f2df0fed2c77648de5860a4cc508cd0818c85b8b8a1ab4ceeef8d981c8956a661058561272a565b610f735760405162461bcd60e51b81526004016106a090614df1565b610f7f84848484612739565b50505050565b600a60205260009081526040902080546001820180546001600160a01b039092169291610fb190615562565b80601f0160208091040260200160405190810160405280929190818152602001828054610fdd90615562565b801561102a5780601f10610fff5761010080835404028352916020019161102a565b820191906000526020600020905b81548152906001019060200180831161100d57829003601f168201915b50505050600283015460039093015491929160ff16905084565b7f8502233096d909befbda0999bb8ea2f3a6be3c138b9fbf003752a4c8bce86f6c81565b60009081526020819052604090206001015490565b6000828152600a6020908152604080832054600654825163fd967f4760e01b815292516001600160a01b039283169594919092169263fd967f479260048083019392829003018186803b1580156110d357600080fd5b505afa1580156110e7573d6000803e3d6000fd5b505050506040513d601f19601f8201168201806040525081019061110b91906143dd565b6fffffffffffffffffffffffffffffffff166008548461112b91906154e9565b61113591906154c9565b90509250929050565b61114661272a565b6001600160a01b0316856001600160a01b0316148061116c575061116c8561064d61272a565b6111885760405162461bcd60e51b81526004016106a090614d51565b61119585858585856128bb565b5050505050565b6111a68282612a8f565b60008281526001602052604090206111be9082612706565b505050565b6111cd8282612ab3565b60008281526001602052604090206111be9082612af5565b6112117f65d7a28e3265b37a6474929f336521b332c1681b933f6cb9f3376673440d862a61058561272a565b61122d5760405162461bcd60e51b81526004016106a090614fcf565b611235612b0a565b565b600654604080516309d2f83f60e41b815290516060926001600160a01b031691639d2f83f0916004808301926020929190829003018186803b15801561127c57600080fd5b505afa158015611290573d6000803e3d6000fd5b505050506040513d601f19601f820116820180604052508101906112b491906142d4565b156112d15760405162461bcd60e51b81526004016106a090614f08565b8382146112f05760405162461bcd60e51b81526004016106a090614bf7565b8361130d5760405162461bcd60e51b81526004016106a09061525a565b8367ffffffffffffffff81111561133457634e487b7160e01b600052604160045260246000fd5b60405190808252806020026020018201604052801561135d578160200160208202803683370190505b50905060005b848110156115155760075482828151811061138e57634e487b7160e01b600052603260045260246000fd5b60200260200101818152505060405180608001604052806113ad61272a565b6001600160a01b031681526020018787848181106113db57634e487b7160e01b600052603260045260246000fd5b90506020028101906113ed91906153ea565b8080601f01602080910402602001604051908101604052809392919081815260200183838082843760009201919091525050509082525060200185858481811061144757634e487b7160e01b600052603260045260246000fd5b6020908102929092013583525001600090526007546000908152600a60209081526040909120825181546001600160a01b0319166001600160a01b0390911617815582820151805191926114a392600185019290910190613a3d565b506040820151816002015560608201518160030160006101000a81548160ff021916908360028111156114e657634e487b7160e01b600052602160045260246000fd5b02179055505060078054915060006114fd8361559d565b9190505550808061150d9061559d565b915050611363565b5061156961152161272a565b82858580806020026020016040519081016040528093929190818152602001838360200280828437600092018290525060408051602081019091529081529250610f2b915050565b61157161272a565b6001600160a01b03167f9ead818be0b43d79a78daaabe6c787d254ac1279ac99d9ff62b6b227804f7b3382878787876040516115b1959493929190614702565b60405180910390a2949350505050565b606081518351146115e45760405162461bcd60e51b81526004016106a090615143565b6000835167ffffffffffffffff81111561160e57634e487b7160e01b600052604160045260246000fd5b604051908082528060200260200182016040528015611637578160200160208202803683370190505b50905060005b84518110156116d95761169e85828151811061166957634e487b7160e01b600052603260045260246000fd5b602002602001015185838151811061169157634e487b7160e01b600052603260045260246000fd5b6020026020010151610678565b8282815181106116be57634e487b7160e01b600052603260045260246000fd5b60209081029190910101526116d28161559d565b905061163d565b509392505050565b6000908152600a60205260409020546001600160a01b031690565b60055461010090046001600160a01b0390811691161490565b60055460ff165b90565b61172761272a565b6001600160a01b0316836001600160a01b0316148061174d575061174d8361064d61272a565b6117695760405162461bcd60e51b81526004016106a090614b3c565b6111be838383612b78565b6117a07f9f2df0fed2c77648de5860a4cc508cd0818c85b8b8a1ab4ceeef8d981c8956a661058561272a565b6117bc5760405162461bcd60e51b81526004016106a090614df1565b610f7f84848484612d2c565b60075481565b600660009054906101000a90046001600160a01b03166001600160a01b0316639d2f83f06040518163ffffffff1660e01b815260040160206040518083038186803b15801561181c57600080fd5b505afa158015611830573d6000803e3d6000fd5b505050506040513d601f19601f8201168201806040525081019061185491906142d4565b156118715760405162461bcd60e51b81526004016106a090614f08565b600061187f8a8a8a8a611237565b90506000868686868660405160200161189c95949392919061481a565b60405160208183030381529060405290506118f56118b861272a565b8d848c8c8080602002602001604051908101604052809392919081815260200183836020028082843760009201919091525088925061113e915050565b505050505050505050505050565b8061191561190f61272a565b84610678565b10156119335760405162461bcd60e51b81526004016106a0906151a0565b61194561193e61272a565b8383612e1d565b6000828152600c6020526040812060018101546002909101546119699084906154e9565b61197391906154c9565b6000848152600c60205260409020549091506001600160a01b031663a9059cbb61199b61272a565b836040518363ffffffff1660e01b81526004016119b99291906146b5565b602060405180830381600087803b1580156119d357600080fd5b505af11580156119e7573d6000803e3d6000fd5b505050506040513d601f19601f82011682018060405250810190611a0b91906142d4565b611a275760405162461bcd60e51b81526004016106a0906149e1565b6000838152600c60205260409020546001600160a01b0316611a4761272a565b6001600160a01b03167fb7ca9e3aa58248cbaa6a5f83ca826cc57bf8ecd128fd88da420e294353c652f98385604051611a819291906153b2565b60405180910390a3505050565b600554600160a81b900460ff1681565b611aca7f65d7a28e3265b37a6474929f336521b332c1681b933f6cb9f3376673440d862a61058561272a565b611ae65760405162461bcd60e51b81526004016106a09061502c565b611235612f30565b60065460408051634a32c6bf60e11b815290516001600160a01b03909216916391d148549183916394658d7e91600480820192602092909190829003018186803b158015611b3b57600080fd5b505afa158015611b4f573d6000803e3d6000fd5b505050506040513d601f19601f82011682018060405250810190611b739190614308565b611b7b61272a565b6040518363ffffffff1660e01b8152600401611b98929190614803565b60206040518083038186803b158015611bb057600080fd5b505afa158015611bc4573d6000803e3d6000fd5b505050506040513d601f19601f82011682018060405250810190611be891906142d4565b611c045760405162461bcd60e51b81526004016106a090615089565b60058054911515600160a81b027fffffffffffffffffffff00ffffffffffffffffffffffffffffffffffffffffff909216919091179055565b6000828152600160205260408120611c559083612f8b565b9392505050565b6000918252602082815260408084206001600160a01b0393909316845291905290205460ff1690565b60065460408051634a32c6bf60e11b815290516001600160a01b03909216916391d148549183916394658d7e91600480820192602092909190829003018186803b158015611cd257600080fd5b505afa158015611ce6573d6000803e3d6000fd5b505050506040513d601f19601f82011682018060405250810190611d0a9190614308565b611d1261272a565b6040518363ffffffff1660e01b8152600401611d2f929190614803565b60206040518083038186803b158015611d4757600080fd5b505afa158015611d5b573d6000803e3d6000fd5b505050506040513d601f19601f82011682018060405250810190611d7f91906142d4565b611d9b5760405162461bcd60e51b81526004016106a090615089565b6111be60098383613ac1565b6000611dba611db461272a565b83610678565b11611dd75760405162461bcd60e51b81526004016106a0906151a0565b611dea611de261272a565b826001612e1d565b6000818152600b60205260409020546001600160a01b03166342842e0e30611e1061272a565b6000858152600b6020526040908190206001015490516001600160e01b031960e086901b168152611e46939291906004016145f7565b600060405180830381600087803b158015611e6057600080fd5b505af1158015611e74573d6000803e3d6000fd5b5050506000828152600b60205260409020546001600160a01b03169050611e9961272a565b6001600160a01b03167fea7b88a04220a2292e142652e8e1a59cc00e7d27d8ad6b11da6cf5870e6ba866600b60008581526020019081526020016000206001015484604051611ee99291906153b2565b60405180910390a350565b600081565b816001600160a01b0316611f0b61272a565b6001600160a01b03161415611f325760405162461bcd60e51b81526004016106a0906150e6565b8060036000611f3f61272a565b6001600160a01b03908116825260208083019390935260409182016000908120918716808252919093529120805460ff191692151592909217909155611f8361272a565b6001600160a01b03167f17307eab39ab6107e8899845ad3d59bd9653f200f220920489ca2b5937696c3183604051611fbb91906147ef565b60405180910390a35050565b60098054611fd490615562565b80601f016020809104026020016040519081016040528092919081815260200182805461200090615562565b801561204d5780601f106120225761010080835404028352916020019161204d565b820191906000526020600020905b81548152906001019060200180831161203057829003601f168201915b505050505081565b60085481565b60008181526001602052604081206106ce90612f97565b7f9f2df0fed2c77648de5860a4cc508cd0818c85b8b8a1ab4ceeef8d981c8956a681565b6111cd8282612fa2565b600660009054906101000a90046001600160a01b03166001600160a01b0316639d2f83f06040518163ffffffff1660e01b815260040160206040518083038186803b1580156120ee57600080fd5b505afa158015612102573d6000803e3d6000fd5b505050506040513d601f19601f8201168201806040525081019061212691906142d4565b156121435760405162461bcd60e51b81526004016106a090614f08565b83856001600160a01b03166370a0823161215b61272a565b6040518263ffffffff1660e01b8152600401612177919061456b565b60206040518083038186803b15801561218f57600080fd5b505afa1580156121a3573d6000803e3d6000fd5b505050506040513d601f19601f820116820180604052508101906121c79190614308565b10156121e55760405162461bcd60e51b81526004016106a090614f65565b83856001600160a01b031663dd62ed3e6121fd61272a565b306040518363ffffffff1660e01b815260040161221b92919061457f565b60206040518083038186803b15801561223357600080fd5b505afa158015612247573d6000803e3d6000fd5b505050506040513d601f19601f8201168201806040525081019061226b9190614308565b10156122895760405162461bcd60e51b81526004016106a090614c8b565b846001600160a01b03166323b872dd6122a061272a565b30876040518463ffffffff1660e01b81526004016122c0939291906145f7565b602060405180830381600087803b1580156122da57600080fd5b505af11580156122ee573d6000803e3d6000fd5b505050506040513d601f19601f8201168201806040525081019061231291906142d4565b61232e5760405162461bcd60e51b81526004016106a0906149e1565b61235261233961272a565b6007548560405180602001604052806000815250611774565b604051806080016040528061236561272a565b6001600160a01b0316815260200183838080601f01602080910402602001604051908101604052809392919081815260200183838082843760009201919091525050509082525060208101859052604001600190526007546000908152600a60209081526040909120825181546001600160a01b0319166001600160a01b03909116178155828201518051919261240492600185019290910190613a3d565b506040820151816002015560608201518160030160006101000a81548160ff0219169083600281111561244757634e487b7160e01b600052602160045260246000fd5b021790555050604080516060810182526001600160a01b0388811680835260208084018981528486018b81526007546000908152600c90935295909120935184546001600160a01b031916931692909217835590516001830155915160029091015590506124b361272a565b6001600160a01b03167fd8bffec4446d425694f73630f7822315baa62da5311e89f0d83335ef6a3917ba868686866040516124f194939291906153c0565b60405180910390a3600780549060006125098361559d565b91905055505050505050565b600b60205260009081526040902080546001909101546001600160a01b039091169082565b7f65d7a28e3265b37a6474929f336521b332c1681b933f6cb9f3376673440d862a81565b60606009805461256d90615562565b80601f016020809104026020016040519081016040528092919081815260200182805461259990615562565b80156125e65780601f106125bb576101008083540402835291602001916125e6565b820191906000526020600020905b8154815290600101906020018083116125c957829003601f168201915b5050505050905090565b6001600160a01b03918216600090815260036020908152604080832093909416825291909152205460ff1690565b61262661272a565b6001600160a01b0316856001600160a01b0316148061264c575061264c8561064d61272a565b6126685760405162461bcd60e51b81526004016106a090614b3c565b6111958585858585612fc1565b61267d61272a565b6001600160a01b0316836001600160a01b031614806126a357506126a38361064d61272a565b6126bf5760405162461bcd60e51b81526004016106a090614b3c565b6111be838383612e1d565b60006126d5336116fc565b156126e9575060131936013560601c61171c565b6126f161271b565b905061171c565b61270282826130f9565b5050565b6000611c55836001600160a01b03841661317e565b3390565b60006106ce826131c8565b60006127346126ca565b905090565b6001600160a01b03841661275f5760405162461bcd60e51b81526004016106a090615314565b81518351146127805760405162461bcd60e51b81526004016106a0906152b7565b600061278a61272a565b905061279b81600087878787613208565b60005b8451811015612853578381815181106127c757634e487b7160e01b600052603260045260246000fd5b6020026020010151600260008784815181106127f357634e487b7160e01b600052603260045260246000fd5b602002602001015181526020019081526020016000206000886001600160a01b03166001600160a01b03168152602001908152602001600020600082825461283b91906154b1565b9091555081905061284b8161559d565b91505061279e565b50846001600160a01b031660006001600160a01b0316826001600160a01b03167f4a39dc06d4c0dbc64b70af90fd698a233a518aa5d07e595d983b8c0526c8f7fb87876040516128a49291906147c1565b60405180910390a461119581600087878787613344565b81518351146128dc5760405162461bcd60e51b81526004016106a0906152b7565b6001600160a01b0384166129025760405162461bcd60e51b81526004016106a090614cf4565b600061290c61272a565b905061291c818787878787613208565b60005b8451811015612a2157600085828151811061294a57634e487b7160e01b600052603260045260246000fd5b60200260200101519050600085838151811061297657634e487b7160e01b600052603260045260246000fd5b60209081029190910181015160008481526002835260408082206001600160a01b038e1683529093529190912054909150818110156129c75760405162461bcd60e51b81526004016106a090614e4e565b60008381526002602090815260408083206001600160a01b038e8116855292528083208585039055908b16825281208054849290612a069084906154b1565b9250508190555050505080612a1a9061559d565b905061291f565b50846001600160a01b0316866001600160a01b0316826001600160a01b03167f4a39dc06d4c0dbc64b70af90fd698a233a518aa5d07e595d983b8c0526c8f7fb8787604051612a719291906147c1565b60405180910390a4612a87818787878787613344565b505050505050565b612a9882611068565b612aa981612aa461272a565b613452565b6111be83836130f9565b612abb61272a565b6001600160a01b0316816001600160a01b031614612aeb5760405162461bcd60e51b81526004016106a090615355565b61270282826134b6565b6000611c55836001600160a01b038416613539565b612b12611715565b612b2e5760405162461bcd60e51b81526004016106a09061494d565b6005805460ff191690557f5db9ee0a495bf2e6ff9c91a7834c1ba4fdd244a5e8aa4e537bd38aeae4b073aa612b6161272a565b604051612b6e919061456b565b60405180910390a1565b6001600160a01b038316612b9e5760405162461bcd60e51b81526004016106a090614dae565b8051825114612bbf5760405162461bcd60e51b81526004016106a0906152b7565b6000612bc961272a565b9050612be981856000868660405180602001604052806000815250613208565b60005b8351811015612ccd576000848281518110612c1757634e487b7160e01b600052603260045260246000fd5b602002602001015190506000848381518110612c4357634e487b7160e01b600052603260045260246000fd5b60209081029190910181015160008481526002835260408082206001600160a01b038c168352909352919091205490915081811015612c945760405162461bcd60e51b81526004016106a090614a3e565b60009283526002602090815260408085206001600160a01b038b1686529091529092209103905580612cc58161559d565b915050612bec565b5060006001600160a01b0316846001600160a01b0316826001600160a01b03167f4a39dc06d4c0dbc64b70af90fd698a233a518aa5d07e595d983b8c0526c8f7fb8686604051612d1e9291906147c1565b60405180910390a450505050565b6001600160a01b038416612d525760405162461bcd60e51b81526004016106a090615314565b6000612d5c61272a565b9050612d7d81600087612d6e88613656565b612d7788613656565b87613208565b60008481526002602090815260408083206001600160a01b038916845290915281208054859290612daf9084906154b1565b92505081905550846001600160a01b031660006001600160a01b0316826001600160a01b03167fc3d58168c5ae7397731d063d5bbf3d657854427343f4c083240f7aacaa2d0f628787604051612e069291906153b2565b60405180910390a4611195816000878787876136af565b6001600160a01b038316612e435760405162461bcd60e51b81526004016106a090614dae565b6000612e4d61272a565b9050612e7d81856000612e5f87613656565b612e6887613656565b60405180602001604052806000815250613208565b60008381526002602090815260408083206001600160a01b038816845290915290205482811015612ec05760405162461bcd60e51b81526004016106a090614a3e565b60008481526002602090815260408083206001600160a01b03808a16808652919093528184208786039055905190918516907fc3d58168c5ae7397731d063d5bbf3d657854427343f4c083240f7aacaa2d0f6290612f2190899089906153b2565b60405180910390a45050505050565b612f38611715565b15612f555760405162461bcd60e51b81526004016106a090614c54565b6005805460ff191660011790557f62e78cea01bee320cd4e420270b5ea74000d11b0c9f74754ebdbfc544b05a258612b6161272a565b6000611c558383613780565b60006106ce826137b8565b612fab82611068565b612fb781612aa461272a565b6111be83836134b6565b6001600160a01b038416612fe75760405162461bcd60e51b81526004016106a090614cf4565b6000612ff161272a565b9050613002818787612d6e88613656565b60008481526002602090815260408083206001600160a01b038a168452909152902054838110156130455760405162461bcd60e51b81526004016106a090614e4e565b60008581526002602090815260408083206001600160a01b038b81168552925280832087850390559088168252812080548692906130849084906154b1565b92505081905550856001600160a01b0316876001600160a01b0316836001600160a01b03167fc3d58168c5ae7397731d063d5bbf3d657854427343f4c083240f7aacaa2d0f6288886040516130da9291906153b2565b60405180910390a46130f08288888888886136af565b50505050505050565b6131038282611c5c565b612702576000828152602081815260408083206001600160a01b03851684529091529020805460ff1916600117905561313a61272a565b6001600160a01b0316816001600160a01b0316837f2f8788117e7eff1d82e926ec794901d17c78024a50270940304540a733656f0d60405160405180910390a45050565b600061318a83836137bc565b6131c0575081546001818101845560008481526020808220909301849055845484825282860190935260409020919091556106ce565b5060006106ce565b60006001600160e01b03198216636cdb3d1360e11b14806131f957506001600160e01b031982166303a24d0760e21b145b806106ce57506106ce826137d4565b6132168686868686866137f9565b600554600160a81b900460ff161561329e576132527f8502233096d909befbda0999bb8ea2f3a6be3c138b9fbf003752a4c8bce86f6c86611c5c565b8061328257506132827f8502233096d909befbda0999bb8ea2f3a6be3c138b9fbf003752a4c8bce86f6c85611c5c565b61329e5760405162461bcd60e51b81526004016106a090614b99565b6001600160a01b038416612a875760005b83518110156130f0578281815181106132d857634e487b7160e01b600052603260045260246000fd5b6020026020010151600a600086848151811061330457634e487b7160e01b600052603260045260246000fd5b60200260200101518152602001908152602001600020600201600082825461332c9190615508565b9091555081905061333c8161559d565b9150506132af565b613356846001600160a01b0316613807565b15612a875760405163bc197c8160e01b81526001600160a01b0385169063bc197c819061338f9089908990889088908890600401614599565b602060405180830381600087803b1580156133a957600080fd5b505af19250505080156133d9575060408051601f3d908101601f191682019092526133d691810190614381565b60015b613422576133e56155ea565b806133f0575061340a565b8060405162461bcd60e51b81526004016106a0919061484b565b60405162461bcd60e51b81526004016106a09061485e565b6001600160e01b0319811663bc197c8160e01b146130f05760405162461bcd60e51b81526004016106a0906148f0565b61345c8282611c5c565b61270257613474816001600160a01b0316601461380d565b61347f83602061380d565b6040516020016134909291906144ea565b60408051601f198184030181529082905262461bcd60e51b82526106a09160040161484b565b6134c08282611c5c565b15612702576000828152602081815260408083206001600160a01b03851684529091529020805460ff191690556134f561272a565b6001600160a01b0316816001600160a01b0316837ff6391f5c32d9c69d2a47ea670b442974b53935d1edc7fd64eb21e047a839171b60405160405180910390a45050565b6000818152600183016020526040812054801561364c57600061355d600183615508565b855490915060009061357190600190615508565b90508181146135f257600086600001828154811061359f57634e487b7160e01b600052603260045260246000fd5b90600052602060002001549050808760000184815481106135d057634e487b7160e01b600052603260045260246000fd5b6000918252602080832090910192909255918252600188019052604090208390555b855486908061361157634e487b7160e01b600052603160045260246000fd5b6001900381819060005260206000200160009055905585600101600086815260200190815260200160002060009055600193505050506106ce565b60009150506106ce565b6040805160018082528183019092526060916000919060208083019080368337019050509050828160008151811061369e57634e487b7160e01b600052603260045260246000fd5b602090810291909101015292915050565b6136c1846001600160a01b0316613807565b15612a875760405163f23a6e6160e01b81526001600160a01b0385169063f23a6e61906136fa908990899088908890889060040161461b565b602060405180830381600087803b15801561371457600080fd5b505af1925050508015613744575060408051601f3d908101601f1916820190925261374191810190614381565b60015b613750576133e56155ea565b6001600160e01b0319811663f23a6e6160e01b146130f05760405162461bcd60e51b81526004016106a0906148f0565b60008260000182815481106137a557634e487b7160e01b600052603260045260246000fd5b9060005260206000200154905092915050565b5490565b60009081526001919091016020526040902054151590565b60006001600160e01b03198216635a05180f60e01b14806106ce57506106ce826139cc565b612a878686868686866139f1565b3b151590565b6060600061381c8360026154e9565b6138279060026154b1565b67ffffffffffffffff81111561384d57634e487b7160e01b600052604160045260246000fd5b6040519080825280601f01601f191660200182016040528015613877576020820181803683370190505b509050600360fc1b816000815181106138a057634e487b7160e01b600052603260045260246000fd5b60200101906001600160f81b031916908160001a905350600f60fb1b816001815181106138dd57634e487b7160e01b600052603260045260246000fd5b60200101906001600160f81b031916908160001a90535060006139018460026154e9565b61390c9060016154b1565b90505b60018111156139ad577f303132333435363738396162636465660000000000000000000000000000000085600f166010811061395b57634e487b7160e01b600052603260045260246000fd5b1a60f81b82828151811061397f57634e487b7160e01b600052603260045260246000fd5b60200101906001600160f81b031916908160001a90535060049490941c936139a68161554b565b905061390f565b508315611c555760405162461bcd60e51b81526004016106a0906148bb565b60006001600160e01b03198216637965db0b60e01b14806106ce57506106ce82613a24565b6139ff868686868686612a87565b613a07611715565b15612a875760405162461bcd60e51b81526004016106a090614adf565b6001600160e01b031981166301ffc9a760e01b14919050565b828054613a4990615562565b90600052602060002090601f016020900481019282613a6b5760008555613ab1565b82601f10613a8457805160ff1916838001178555613ab1565b82800160010185558215613ab1579182015b82811115613ab1578251825591602001919060010190613a96565b50613abd929150613b35565b5090565b828054613acd90615562565b90600052602060002090601f016020900481019282613aef5760008555613ab1565b82601f10613b085782800160ff19823516178555613ab1565b82800160010185558215613ab1579182015b82811115613ab1578235825591602001919060010190613b1a565b5b80821115613abd5760008155600101613b36565b60008083601f840112613b5b578182fd5b50813567ffffffffffffffff811115613b72578182fd5b6020830191508360208083028501011115613b8c57600080fd5b9250929050565b600082601f830112613ba3578081fd5b81356020613bb8613bb383615459565b61542f565b8281528181019085830183850287018401881015613bd4578586fd5b855b85811015613bf257813584529284019290840190600101613bd6565b5090979650505050505050565b600082601f830112613c0f578081fd5b813567ffffffffffffffff811115613c2957613c296155ce565b613c3c601f8201601f191660200161542f565b818152846020838601011115613c50578283fd5b816020850160208301379081016020019190915292915050565b60008083601f840112613c7b578182fd5b50813567ffffffffffffffff811115613c92578182fd5b602083019150836020828501011115613b8c57600080fd5b600060208284031215613cbb578081fd5b8135611c558161568f565b600060208284031215613cd7578081fd5b8151611c558161568f565b60008060408385031215613cf4578081fd5b8235613cff8161568f565b91506020830135613d0f8161568f565b809150509250929050565b600080600080600060a08688031215613d31578081fd5b8535613d3c8161568f565b94506020860135613d4c8161568f565b9350604086013567ffffffffffffffff80821115613d68578283fd5b613d7489838a01613b93565b94506060880135915080821115613d89578283fd5b613d9589838a01613b93565b93506080880135915080821115613daa578283fd5b50613db788828901613bff565b9150509295509295909350565b600080600080600060a08688031215613ddb578081fd5b8535613de68161568f565b94506020860135613df68161568f565b93506040860135925060608601359150608086013567ffffffffffffffff811115613e1f578182fd5b613db788828901613bff565b60008060008060008060008060008060e08b8d031215613e49578788fd5b8a35613e548161568f565b995060208b013567ffffffffffffffff80821115613e7057898afd5b613e7c8e838f01613b4a565b909b50995060408d0135915080821115613e94578687fd5b613ea08e838f01613b4a565b909950975060608d0135915080821115613eb8578687fd5b50613ec58d828e01613c6a565b9b9e9a9d50989b979a9699969760808101359760a0820135975060c09091013595509350505050565b600080600060608486031215613f02578081fd5b8335613f0d8161568f565b9250602084013567ffffffffffffffff80821115613f29578283fd5b613f3587838801613b93565b93506040860135915080821115613f4a578283fd5b50613f5786828701613b93565b9150509250925092565b60008060008060808587031215613f76578182fd5b8435613f818161568f565b9350602085013567ffffffffffffffff80821115613f9d578384fd5b613fa988838901613b93565b94506040870135915080821115613fbe578384fd5b613fca88838901613b93565b93506060870135915080821115613fdf578283fd5b50613fec87828801613bff565b91505092959194509250565b6000806040838503121561400a578182fd5b82356140158161568f565b91506020830135613d0f816156a7565b60008060408385031215614037578182fd5b82356140428161568f565b946020939093013593505050565b60008060008060608587031215614065578182fd5b84356140708161568f565b935060208501359250604085013567ffffffffffffffff811115614092578283fd5b61409e87828801613c6a565b95989497509550505050565b6000806000606084860312156140be578081fd5b83356140c98161568f565b95602085013595506040909401359392505050565b600080600080608085870312156140f3578182fd5b84356140fe8161568f565b93506020850135925060408501359150606085013567ffffffffffffffff811115614127578182fd5b613fec87828801613bff565b60008060008060006080868803121561414a578283fd5b85356141558161568f565b94506020860135935060408601359250606086013567ffffffffffffffff81111561417e578182fd5b61418a88828901613c6a565b969995985093965092949392505050565b600080604083850312156141ad578182fd5b823567ffffffffffffffff808211156141c4578384fd5b818501915085601f8301126141d7578384fd5b813560206141e7613bb383615459565b82815281810190858301838502870184018b1015614203578889fd5b8896505b8487101561422e57803561421a8161568f565b835260019690960195918301918301614207565b5096505086013592505080821115614244578283fd5b5061425185828601613b93565b9150509250929050565b60008060008060408587031215614270578182fd5b843567ffffffffffffffff80821115614287578384fd5b61429388838901613b4a565b909650945060208701359150808211156142ab578384fd5b5061409e87828801613b4a565b6000602082840312156142c9578081fd5b8135611c55816156a7565b6000602082840312156142e5578081fd5b8151611c55816156a7565b600060208284031215614301578081fd5b5035919050565b600060208284031215614319578081fd5b5051919050565b60008060408385031215614332578182fd5b823591506020830135613d0f8161568f565b60008060408385031215614356578182fd5b50508035926020909101359150565b600060208284031215614376578081fd5b8135611c55816156b5565b600060208284031215614392578081fd5b8151611c55816156b5565b600080602083850312156143af578182fd5b823567ffffffffffffffff8111156143c5578283fd5b6143d185828601613c6a565b90969095509350505050565b6000602082840312156143ee578081fd5b81516fffffffffffffffffffffffffffffffff81168114611c55578182fd5b60008284527f07ffffffffffffffffffffffffffffffffffffffffffffffffffffffffffffff83111561443e578081fd5b6020830280836020870137939093016020019283525090919050565b6000815180845260208085019450808401835b838110156144895781518752958201959082019060010161446d565b509495945050505050565b600081518084526144ac81602086016020860161551f565b601f01601f19169290920160200192915050565b60008284528282602086013780602084860101526020601f19601f85011685010190509392505050565b60007f416363657373436f6e74726f6c3a206163636f756e74200000000000000000008252835161452281601785016020880161551f565b7f206973206d697373696e6720726f6c6520000000000000000000000000000000601791840191820152835161455f81602884016020880161551f565b01602801949350505050565b6001600160a01b0391909116815260200190565b6001600160a01b0392831681529116602082015260400190565b60006001600160a01b03808816835280871660208401525060a060408301526145c560a083018661445a565b82810360608401526145d7818661445a565b905082810360808401526145eb8185614494565b98975050505050505050565b6001600160a01b039384168152919092166020820152604081019190915260600190565b60006001600160a01b03808816835280871660208401525084604083015283606083015260a0608083015261465360a0830184614494565b979650505050505050565b60006001600160a01b0386168252608060208301526146806080830186614494565b9050836040830152600383106146a657634e487b7160e01b600052602160045260246000fd5b82606083015295945050505050565b6001600160a01b03929092168252602082015260400190565b6001600160a01b039390931683526020830191909152604082015260600190565b600060208252611c55602083018461445a565b600060608252614715606083018861445a565b6020838203818501528187835281830190508182890284010189855b8a81101561479d57858303601f190184528135368d9003601e19018112614756578788fd5b8c01803567ffffffffffffffff81111561476e578889fd5b8036038e131561477c578889fd5b61478985828985016144c0565b958701959450505090840190600101614731565b505085810360408701526147b281888a61440d565b9b9a5050505050505050505050565b6000604082526147d4604083018561445a565b82810360208401526147e6818561445a565b95945050505050565b901515815260200190565b90815260200190565b9182526001600160a01b0316602082015260400190565b60006080825261482e6080830187896144c0565b602083019590955250604081019290925260609091015292915050565b600060208252611c556020830184614494565b60208082526034908201527f455243313135353a207472616e7366657220746f206e6f6e204552433131353560408201527f526563656976657220696d706c656d656e746572000000000000000000000000606082015260800190565b6020808252818101527f537472696e67733a20686578206c656e67746820696e73756666696369656e74604082015260600190565b60208082526028908201527f455243313135353a204552433131353552656365697665722072656a6563746560408201527f6420746f6b656e73000000000000000000000000000000000000000000000000606082015260800190565b60208082526014908201527f5061757361626c653a206e6f7420706175736564000000000000000000000000604082015260600190565b6020808252602b908201527f455243313135353a2062616c616e636520717565727920666f7220746865207a60408201527f65726f2061646472657373000000000000000000000000000000000000000000606082015260800190565b6020808252602f908201527f4e4654436f6c6c656374696f6e3a204661696c656420746f207472616e73666560408201527f7220455243323020746f6b656e732e0000000000000000000000000000000000606082015260800190565b60208082526024908201527f455243313135353a206275726e20616d6f756e7420657863656564732062616c604082015263616e636560e01b606082015260800190565b6020808252603d908201527f4e4654436f6c6c656374696f6e3a204d75737420617070726f7665207468652060408201527f636f6e747261637420746f207472616e7366657220746865204e46542e000000606082015260800190565b6020808252602c908201527f455243313135355061757361626c653a20746f6b656e207472616e736665722060408201527f7768696c65207061757365640000000000000000000000000000000000000000606082015260800190565b60208082526029908201527f455243313135353a2063616c6c6572206973206e6f74206f776e6572206e6f7260408201527f20617070726f7665640000000000000000000000000000000000000000000000606082015260800190565b602080825260409082018190527f4e4654436f6c6c656374696f6e3a205472616e73666572732061726520726573908201527f7472696374656420746f205452414e534645525f524f4c4520686f6c64657273606082015260800190565b6020808252603a908201527f4e4654436f6c6c656374696f6e3a204d7573742073706563696679206571756160408201527f6c206e756d626572206f6620636f6e6669672076616c7565732e000000000000606082015260800190565b60208082526010908201527f5061757361626c653a2070617573656400000000000000000000000000000000604082015260600190565b60208082526043908201527f4e4654436f6c6c656374696f6e3a204d75737420617070726f7665207468697360408201527f20636f6e747261637420746f207472616e7366657220455243323020746f6b6560608201526237399760e91b608082015260a00190565b60208082526025908201527f455243313135353a207472616e7366657220746f20746865207a65726f20616460408201527f6472657373000000000000000000000000000000000000000000000000000000606082015260800190565b60208082526032908201527f455243313135353a207472616e736665722063616c6c6572206973206e6f742060408201527f6f776e6572206e6f7220617070726f7665640000000000000000000000000000606082015260800190565b60208082526023908201527f455243313135353a206275726e2066726f6d20746865207a65726f206164647260408201526265737360e81b606082015260800190565b60208082526038908201527f455243313135355072657365744d696e7465725061757365723a206d7573742060408201527f68617665206d696e74657220726f6c6520746f206d696e740000000000000000606082015260800190565b6020808252602a908201527f455243313135353a20696e73756666696369656e742062616c616e636520666f60408201527f72207472616e7366657200000000000000000000000000000000000000000000606082015260800190565b60208082526033908201527f4e4654436f6c6c656374696f6e3a204270732070726f7669646564206d75737460408201527f206265206c657373207468616e20392c30303000000000000000000000000000606082015260800190565b60208082526026908201527f4e4654436f6c6c656374696f6e3a205468652070726f746f636f6c206973207060408201527f61757365642e0000000000000000000000000000000000000000000000000000606082015260800190565b60208082526044908201527f4e4654436f6c6c656374696f6e3a204d757374206f776e2074686520616d6f7560408201527f6e74206f6620746f6b656e73207468617420617265206265696e6720777261706060820152633832b21760e11b608082015260a00190565b6020808252603b908201527f455243313135355072657365744d696e7465725061757365723a206d7573742060408201527f686176652070617573657220726f6c6520746f20756e70617573650000000000606082015260800190565b60208082526039908201527f455243313135355072657365744d696e7465725061757365723a206d7573742060408201527f686176652070617573657220726f6c6520746f20706175736500000000000000606082015260800190565b6020808252603c908201527f4e4654436f6c6c656374696f6e3a206f6e6c7920612070726f746f636f6c206160408201527f646d696e2063616e2063616c6c20746869732066756e6374696f6e2e00000000606082015260800190565b60208082526029908201527f455243313135353a2073657474696e6720617070726f76616c2073746174757360408201527f20666f722073656c660000000000000000000000000000000000000000000000606082015260800190565b60208082526029908201527f455243313135353a206163636f756e747320616e6420696473206c656e67746860408201527f206d69736d617463680000000000000000000000000000000000000000000000606082015260800190565b60208082526033908201527f4e4654436f6c6c656374696f6e3a2043616e6e6f742072656465656d20616e2060408201527f4e465420796f7520646f206e6f74206f776e2e00000000000000000000000000606082015260800190565b60208082526035908201527f4e4654436f6c6c656374696f6e3a204f6e6c7920746865206f776e6572206f6660408201527f20746865204e46542063616e20777261702069742e0000000000000000000000606082015260800190565b6020808252602c908201527f4e4654436f6c6c656374696f6e3a204d75737420637265617465206174206c6560408201527f617374206f6e65204e46542e0000000000000000000000000000000000000000606082015260800190565b60208082526028908201527f455243313135353a2069647320616e6420616d6f756e7473206c656e6774682060408201527f6d69736d61746368000000000000000000000000000000000000000000000000606082015260800190565b60208082526021908201527f455243313135353a206d696e7420746f20746865207a65726f206164647265736040820152607360f81b606082015260800190565b6020808252602f908201527f416363657373436f6e74726f6c3a2063616e206f6e6c792072656e6f756e636560408201527f20726f6c657320666f722073656c660000000000000000000000000000000000606082015260800190565b918252602082015260400190565b6000858252846020830152606060408301526153e06060830184866144c0565b9695505050505050565b6000808335601e19843603018112615400578283fd5b83018035915067ffffffffffffffff82111561541a578283fd5b602001915036819003821315613b8c57600080fd5b60405181810167ffffffffffffffff81118282101715615451576154516155ce565b604052919050565b600067ffffffffffffffff821115615473576154736155ce565b5060209081020190565b60006fffffffffffffffffffffffffffffffff8083168185168083038211156154a8576154a86155b8565b01949350505050565b600082198211156154c4576154c46155b8565b500190565b6000826154e457634e487b7160e01b81526012600452602481fd5b500490565b6000816000190483118215151615615503576155036155b8565b500290565b60008282101561551a5761551a6155b8565b500390565b60005b8381101561553a578181015183820152602001615522565b83811115610f7f5750506000910152565b60008161555a5761555a6155b8565b506000190190565b60028104600182168061557657607f821691505b6020821081141561559757634e487b7160e01b600052602260045260246000fd5b50919050565b60006000198214156155b1576155b16155b8565b5060010190565b634e487b7160e01b600052601160045260246000fd5b634e487b7160e01b600052604160045260246000fd5b60e01c90565b600060443d10156155fa5761171c565b600481823e6308c379a061560e82516155e4565b146156185761171c565b6040513d600319016004823e80513d67ffffffffffffffff8160248401118184111715615648575050505061171c565b82840192508251915080821115615662575050505061171c565b503d8301602082840101111561567a5750505061171c565b601f01601f1916810160200160405291505090565b6001600160a01b03811681146156a457600080fd5b50565b80151581146156a457600080fd5b6001600160e01b0319811681146156a457600080fdfea164736f6c6343000800000a",
  "linkReferences": {},
  "deployedLinkReferences": {}
}