{
  "_format": "hh-sol-artifact-1",
  "contractName": "NFTCollection",
  "sourceName": "contracts/NFTCollection.sol",
  "abi": [
    {
      "inputs": [
        {
          "internalType": "address payable",
          "name": "_controlCenter",
          "type": "address"
        },
        {
          "internalType": "address",
          "name": "_trustedForwarder",
          "type": "address"
        },
        {
          "internalType": "string",
          "name": "_uri",
          "type": "string"
        },
        {
          "internalType": "uint256",
          "name": "_royaltyBps",
          "type": "uint256"
        }
      ],
      "stateMutability": "nonpayable",
      "type": "constructor"
    },
    {
      "anonymous": false,
      "inputs": [
        {
          "indexed": true,
          "internalType": "address",
          "name": "account",
          "type": "address"
        },
        {
          "indexed": true,
          "internalType": "address",
          "name": "operator",
          "type": "address"
        },
        {
          "indexed": false,
          "internalType": "bool",
          "name": "approved",
          "type": "bool"
        }
      ],
      "name": "ApprovalForAll",
      "type": "event"
    },
    {
      "anonymous": false,
      "inputs": [
        {
          "indexed": true,
          "internalType": "address",
          "name": "redeemer",
          "type": "address"
        },
        {
          "indexed": true,
          "internalType": "uint256",
          "name": "tokenId",
          "type": "uint256"
        },
        {
          "indexed": true,
          "internalType": "address",
          "name": "sourceOfUnderlying",
          "type": "address"
        },
        {
          "indexed": false,
          "internalType": "uint256",
          "name": "tokenAmountReceived",
          "type": "uint256"
        },
        {
          "indexed": false,
          "internalType": "uint256",
          "name": "sharesRedeemed",
          "type": "uint256"
        }
      ],
      "name": "ERC20Redeemed",
      "type": "event"
    },
    {
      "anonymous": false,
      "inputs": [
        {
          "indexed": true,
          "internalType": "address",
          "name": "creator",
          "type": "address"
        },
        {
          "indexed": true,
          "internalType": "address",
          "name": "sourceOfUnderlying",
          "type": "address"
        },
        {
          "indexed": false,
          "internalType": "uint256",
          "name": "totalAmountOfUnderlying",
          "type": "uint256"
        },
        {
          "indexed": false,
          "internalType": "uint256",
          "name": "shares",
          "type": "uint256"
        },
        {
          "indexed": false,
          "internalType": "uint256",
          "name": "tokenId",
          "type": "uint256"
        },
        {
          "indexed": false,
          "internalType": "string",
          "name": "tokenURI",
          "type": "string"
        }
      ],
      "name": "ERC20WrappedToken",
      "type": "event"
    },
    {
      "anonymous": false,
      "inputs": [
        {
          "indexed": true,
          "internalType": "address",
          "name": "redeemer",
          "type": "address"
        },
        {
          "indexed": true,
          "internalType": "address",
          "name": "sourceOfUnderlying",
          "type": "address"
        },
        {
          "indexed": false,
          "internalType": "uint256",
          "name": "tokenIdOfUnderlying",
          "type": "uint256"
        },
        {
          "indexed": false,
          "internalType": "uint256",
          "name": "tokenId",
          "type": "uint256"
        }
      ],
      "name": "ERC721Redeemed",
      "type": "event"
    },
    {
      "anonymous": false,
      "inputs": [
        {
          "indexed": true,
          "internalType": "address",
          "name": "creator",
          "type": "address"
        },
        {
          "indexed": true,
          "internalType": "address",
          "name": "sourceOfUnderlying",
          "type": "address"
        },
        {
          "indexed": false,
          "internalType": "uint256",
          "name": "tokenIdOfUnderlying",
          "type": "uint256"
        },
        {
          "indexed": false,
          "internalType": "uint256",
          "name": "tokenId",
          "type": "uint256"
        },
        {
          "indexed": false,
          "internalType": "string",
          "name": "tokenURI",
          "type": "string"
        }
      ],
      "name": "ERC721WrappedToken",
      "type": "event"
    },
    {
      "anonymous": false,
      "inputs": [
        {
          "indexed": true,
          "internalType": "address",
          "name": "creator",
          "type": "address"
        },
        {
          "indexed": false,
          "internalType": "uint256[]",
          "name": "tokenIds",
          "type": "uint256[]"
        },
        {
          "indexed": false,
          "internalType": "string[]",
          "name": "tokenURIs",
          "type": "string[]"
        },
        {
          "indexed": false,
          "internalType": "uint256[]",
          "name": "tokenSupplies",
          "type": "uint256[]"
        }
      ],
      "name": "NativeTokens",
      "type": "event"
    },
    {
      "anonymous": false,
      "inputs": [
        {
          "indexed": false,
          "internalType": "address",
          "name": "account",
          "type": "address"
        }
      ],
      "name": "Paused",
      "type": "event"
    },
    {
      "anonymous": false,
      "inputs": [
        {
          "indexed": false,
          "internalType": "bool",
          "name": "transferable",
          "type": "bool"
        }
      ],
      "name": "RestrictedTransferUpdated",
      "type": "event"
    },
    {
      "anonymous": false,
      "inputs": [
        {
          "indexed": true,
          "internalType": "bytes32",
          "name": "role",
          "type": "bytes32"
        },
        {
          "indexed": true,
          "internalType": "bytes32",
          "name": "previousAdminRole",
          "type": "bytes32"
        },
        {
          "indexed": true,
          "internalType": "bytes32",
          "name": "newAdminRole",
          "type": "bytes32"
        }
      ],
      "name": "RoleAdminChanged",
      "type": "event"
    },
    {
      "anonymous": false,
      "inputs": [
        {
          "indexed": true,
          "internalType": "bytes32",
          "name": "role",
          "type": "bytes32"
        },
        {
          "indexed": true,
          "internalType": "address",
          "name": "account",
          "type": "address"
        },
        {
          "indexed": true,
          "internalType": "address",
          "name": "sender",
          "type": "address"
        }
      ],
      "name": "RoleGranted",
      "type": "event"
    },
    {
      "anonymous": false,
      "inputs": [
        {
          "indexed": true,
          "internalType": "bytes32",
          "name": "role",
          "type": "bytes32"
        },
        {
          "indexed": true,
          "internalType": "address",
          "name": "account",
          "type": "address"
        },
        {
          "indexed": true,
          "internalType": "address",
          "name": "sender",
          "type": "address"
        }
      ],
      "name": "RoleRevoked",
      "type": "event"
    },
    {
      "anonymous": false,
      "inputs": [
        {
          "indexed": false,
          "internalType": "uint256",
          "name": "royaltyBps",
          "type": "uint256"
        }
      ],
      "name": "RoyaltyUpdated",
      "type": "event"
    },
    {
      "anonymous": false,
      "inputs": [
        {
          "indexed": true,
          "internalType": "address",
          "name": "operator",
          "type": "address"
        },
        {
          "indexed": true,
          "internalType": "address",
          "name": "from",
          "type": "address"
        },
        {
          "indexed": true,
          "internalType": "address",
          "name": "to",
          "type": "address"
        },
        {
          "indexed": false,
          "internalType": "uint256[]",
          "name": "ids",
          "type": "uint256[]"
        },
        {
          "indexed": false,
          "internalType": "uint256[]",
          "name": "values",
          "type": "uint256[]"
        }
      ],
      "name": "TransferBatch",
      "type": "event"
    },
    {
      "anonymous": false,
      "inputs": [
        {
          "indexed": true,
          "internalType": "address",
          "name": "operator",
          "type": "address"
        },
        {
          "indexed": true,
          "internalType": "address",
          "name": "from",
          "type": "address"
        },
        {
          "indexed": true,
          "internalType": "address",
          "name": "to",
          "type": "address"
        },
        {
          "indexed": false,
          "internalType": "uint256",
          "name": "id",
          "type": "uint256"
        },
        {
          "indexed": false,
          "internalType": "uint256",
          "name": "value",
          "type": "uint256"
        }
      ],
      "name": "TransferSingle",
      "type": "event"
    },
    {
      "anonymous": false,
      "inputs": [
        {
          "indexed": false,
          "internalType": "string",
          "name": "value",
          "type": "string"
        },
        {
          "indexed": true,
          "internalType": "uint256",
          "name": "id",
          "type": "uint256"
        }
      ],
      "name": "URI",
      "type": "event"
    },
    {
      "anonymous": false,
      "inputs": [
        {
          "indexed": false,
          "internalType": "address",
          "name": "account",
          "type": "address"
        }
      ],
      "name": "Unpaused",
      "type": "event"
    },
    {
      "inputs": [],
      "name": "DEFAULT_ADMIN_ROLE",
      "outputs": [
        {
          "internalType": "bytes32",
          "name": "",
          "type": "bytes32"
        }
      ],
      "stateMutability": "view",
      "type": "function"
    },
    {
      "inputs": [],
      "name": "MINTER_ROLE",
      "outputs": [
        {
          "internalType": "bytes32",
          "name": "",
          "type": "bytes32"
        }
      ],
      "stateMutability": "view",
      "type": "function"
    },
    {
      "inputs": [],
      "name": "PAUSER_ROLE",
      "outputs": [
        {
          "internalType": "bytes32",
          "name": "",
          "type": "bytes32"
        }
      ],
      "stateMutability": "view",
      "type": "function"
    },
    {
      "inputs": [],
      "name": "TRANSFER_ROLE",
      "outputs": [
        {
          "internalType": "bytes32",
          "name": "",
          "type": "bytes32"
        }
      ],
      "stateMutability": "view",
      "type": "function"
    },
    {
      "inputs": [],
      "name": "_contractURI",
      "outputs": [
        {
          "internalType": "string",
          "name": "",
          "type": "string"
        }
      ],
      "stateMutability": "view",
      "type": "function"
    },
    {
      "inputs": [
        {
          "internalType": "address",
          "name": "account",
          "type": "address"
        },
        {
          "internalType": "uint256",
          "name": "id",
          "type": "uint256"
        }
      ],
      "name": "balanceOf",
      "outputs": [
        {
          "internalType": "uint256",
          "name": "",
          "type": "uint256"
        }
      ],
      "stateMutability": "view",
      "type": "function"
    },
    {
      "inputs": [
        {
          "internalType": "address[]",
          "name": "accounts",
          "type": "address[]"
        },
        {
          "internalType": "uint256[]",
          "name": "ids",
          "type": "uint256[]"
        }
      ],
      "name": "balanceOfBatch",
      "outputs": [
        {
          "internalType": "uint256[]",
          "name": "",
          "type": "uint256[]"
        }
      ],
      "stateMutability": "view",
      "type": "function"
    },
    {
      "inputs": [
        {
          "internalType": "address",
          "name": "account",
          "type": "address"
        },
        {
          "internalType": "uint256",
          "name": "id",
          "type": "uint256"
        },
        {
          "internalType": "uint256",
          "name": "value",
          "type": "uint256"
        }
      ],
      "name": "burn",
      "outputs": [],
      "stateMutability": "nonpayable",
      "type": "function"
    },
    {
      "inputs": [
        {
          "internalType": "address",
          "name": "account",
          "type": "address"
        },
        {
          "internalType": "uint256[]",
          "name": "ids",
          "type": "uint256[]"
        },
        {
          "internalType": "uint256[]",
          "name": "values",
          "type": "uint256[]"
        }
      ],
      "name": "burnBatch",
      "outputs": [],
      "stateMutability": "nonpayable",
      "type": "function"
    },
    {
      "inputs": [],
      "name": "contractURI",
      "outputs": [
        {
          "internalType": "string",
          "name": "",
          "type": "string"
        }
      ],
      "stateMutability": "view",
      "type": "function"
    },
    {
      "inputs": [
        {
          "internalType": "address",
          "name": "to",
          "type": "address"
        },
        {
          "internalType": "string[]",
          "name": "_nftURIs",
          "type": "string[]"
        },
        {
          "internalType": "uint256[]",
          "name": "_nftSupplies",
          "type": "uint256[]"
        },
        {
          "internalType": "bytes",
          "name": "data",
          "type": "bytes"
        }
      ],
      "name": "createNativeTokens",
      "outputs": [
        {
          "internalType": "uint256[]",
          "name": "nftIds",
          "type": "uint256[]"
        }
      ],
      "stateMutability": "nonpayable",
      "type": "function"
    },
    {
      "inputs": [
        {
          "internalType": "uint256",
          "name": "_nftId",
          "type": "uint256"
        }
      ],
      "name": "creator",
      "outputs": [
        {
          "internalType": "address",
          "name": "",
          "type": "address"
        }
      ],
      "stateMutability": "view",
      "type": "function"
    },
    {
      "inputs": [
        {
          "internalType": "uint256",
          "name": "",
          "type": "uint256"
        }
      ],
      "name": "erc20WrappedTokens",
      "outputs": [
        {
          "internalType": "address",
          "name": "source",
          "type": "address"
        },
        {
          "internalType": "uint256",
          "name": "shares",
          "type": "uint256"
        },
        {
          "internalType": "uint256",
          "name": "underlyingTokenAmount",
          "type": "uint256"
        }
      ],
      "stateMutability": "view",
      "type": "function"
    },
    {
      "inputs": [
        {
          "internalType": "uint256",
          "name": "",
          "type": "uint256"
        }
      ],
      "name": "erc721WrappedTokens",
      "outputs": [
        {
          "internalType": "address",
          "name": "source",
          "type": "address"
        },
        {
          "internalType": "uint256",
          "name": "tokenId",
          "type": "uint256"
        }
      ],
      "stateMutability": "view",
      "type": "function"
    },
    {
      "inputs": [
        {
          "internalType": "bytes32",
          "name": "role",
          "type": "bytes32"
        }
      ],
      "name": "getRoleAdmin",
      "outputs": [
        {
          "internalType": "bytes32",
          "name": "",
          "type": "bytes32"
        }
      ],
      "stateMutability": "view",
      "type": "function"
    },
    {
      "inputs": [
        {
          "internalType": "bytes32",
          "name": "role",
          "type": "bytes32"
        },
        {
          "internalType": "uint256",
          "name": "index",
          "type": "uint256"
        }
      ],
      "name": "getRoleMember",
      "outputs": [
        {
          "internalType": "address",
          "name": "",
          "type": "address"
        }
      ],
      "stateMutability": "view",
      "type": "function"
    },
    {
      "inputs": [
        {
          "internalType": "bytes32",
          "name": "role",
          "type": "bytes32"
        }
      ],
      "name": "getRoleMemberCount",
      "outputs": [
        {
          "internalType": "uint256",
          "name": "",
          "type": "uint256"
        }
      ],
      "stateMutability": "view",
      "type": "function"
    },
    {
      "inputs": [
        {
          "internalType": "bytes32",
          "name": "role",
          "type": "bytes32"
        },
        {
          "internalType": "address",
          "name": "account",
          "type": "address"
        }
      ],
      "name": "grantRole",
      "outputs": [],
      "stateMutability": "nonpayable",
      "type": "function"
    },
    {
      "inputs": [
        {
          "internalType": "bytes32",
          "name": "role",
          "type": "bytes32"
        },
        {
          "internalType": "address",
          "name": "account",
          "type": "address"
        }
      ],
      "name": "hasRole",
      "outputs": [
        {
          "internalType": "bool",
          "name": "",
          "type": "bool"
        }
      ],
      "stateMutability": "view",
      "type": "function"
    },
    {
      "inputs": [
        {
          "internalType": "address",
          "name": "account",
          "type": "address"
        },
        {
          "internalType": "address",
          "name": "operator",
          "type": "address"
        }
      ],
      "name": "isApprovedForAll",
      "outputs": [
        {
          "internalType": "bool",
          "name": "",
          "type": "bool"
        }
      ],
      "stateMutability": "view",
      "type": "function"
    },
    {
      "inputs": [
        {
          "internalType": "address",
          "name": "forwarder",
          "type": "address"
        }
      ],
      "name": "isTrustedForwarder",
      "outputs": [
        {
          "internalType": "bool",
          "name": "",
          "type": "bool"
        }
      ],
      "stateMutability": "view",
      "type": "function"
    },
    {
      "inputs": [
        {
          "internalType": "address",
          "name": "to",
          "type": "address"
        },
        {
          "internalType": "uint256",
          "name": "id",
          "type": "uint256"
        },
        {
          "internalType": "uint256",
          "name": "amount",
          "type": "uint256"
        },
        {
          "internalType": "bytes",
          "name": "data",
          "type": "bytes"
        }
      ],
      "name": "mint",
      "outputs": [],
      "stateMutability": "nonpayable",
      "type": "function"
    },
    {
      "inputs": [
        {
          "internalType": "address",
          "name": "to",
          "type": "address"
        },
        {
          "internalType": "uint256[]",
          "name": "ids",
          "type": "uint256[]"
        },
        {
          "internalType": "uint256[]",
          "name": "amounts",
          "type": "uint256[]"
        },
        {
          "internalType": "bytes",
          "name": "data",
          "type": "bytes"
        }
      ],
      "name": "mintBatch",
      "outputs": [],
      "stateMutability": "nonpayable",
      "type": "function"
    },
    {
      "inputs": [
        {
          "internalType": "bytes[]",
          "name": "data",
          "type": "bytes[]"
        }
      ],
      "name": "multicall",
      "outputs": [
        {
          "internalType": "bytes[]",
          "name": "results",
          "type": "bytes[]"
        }
      ],
      "stateMutability": "nonpayable",
      "type": "function"
    },
    {
      "inputs": [],
      "name": "nextTokenId",
      "outputs": [
        {
          "internalType": "uint256",
          "name": "",
          "type": "uint256"
        }
      ],
      "stateMutability": "view",
      "type": "function"
    },
    {
      "inputs": [
        {
          "internalType": "address",
          "name": "",
          "type": "address"
        },
        {
          "internalType": "address",
          "name": "",
          "type": "address"
        },
        {
          "internalType": "uint256[]",
          "name": "",
          "type": "uint256[]"
        },
        {
          "internalType": "uint256[]",
          "name": "",
          "type": "uint256[]"
        },
        {
          "internalType": "bytes",
          "name": "",
          "type": "bytes"
        }
      ],
      "name": "onERC1155BatchReceived",
      "outputs": [
        {
          "internalType": "bytes4",
          "name": "",
          "type": "bytes4"
        }
      ],
      "stateMutability": "nonpayable",
      "type": "function"
    },
    {
      "inputs": [
        {
          "internalType": "address",
          "name": "",
          "type": "address"
        },
        {
          "internalType": "address",
          "name": "",
          "type": "address"
        },
        {
          "internalType": "uint256",
          "name": "",
          "type": "uint256"
        },
        {
          "internalType": "uint256",
          "name": "",
          "type": "uint256"
        },
        {
          "internalType": "bytes",
          "name": "",
          "type": "bytes"
        }
      ],
      "name": "onERC1155Received",
      "outputs": [
        {
          "internalType": "bytes4",
          "name": "",
          "type": "bytes4"
        }
      ],
      "stateMutability": "nonpayable",
      "type": "function"
    },
    {
      "inputs": [
        {
          "internalType": "address",
          "name": "",
          "type": "address"
        },
        {
          "internalType": "address",
          "name": "",
          "type": "address"
        },
        {
          "internalType": "uint256",
          "name": "",
          "type": "uint256"
        },
        {
          "internalType": "bytes",
          "name": "",
          "type": "bytes"
        }
      ],
      "name": "onERC721Received",
      "outputs": [
        {
          "internalType": "bytes4",
          "name": "",
          "type": "bytes4"
        }
      ],
      "stateMutability": "nonpayable",
      "type": "function"
    },
    {
      "inputs": [],
      "name": "pause",
      "outputs": [],
      "stateMutability": "nonpayable",
      "type": "function"
    },
    {
      "inputs": [],
      "name": "paused",
      "outputs": [
        {
          "internalType": "bool",
          "name": "",
          "type": "bool"
        }
      ],
      "stateMutability": "view",
      "type": "function"
    },
    {
      "inputs": [
        {
          "internalType": "uint256",
          "name": "_nftId",
          "type": "uint256"
        },
        {
          "internalType": "uint256",
          "name": "_amount",
          "type": "uint256"
        }
      ],
      "name": "redeemERC20",
      "outputs": [],
      "stateMutability": "nonpayable",
      "type": "function"
    },
    {
      "inputs": [
        {
          "internalType": "uint256",
          "name": "_nftId",
          "type": "uint256"
        }
      ],
      "name": "redeemERC721",
      "outputs": [],
      "stateMutability": "nonpayable",
      "type": "function"
    },
    {
      "inputs": [
        {
          "internalType": "bytes32",
          "name": "role",
          "type": "bytes32"
        },
        {
          "internalType": "address",
          "name": "account",
          "type": "address"
        }
      ],
      "name": "renounceRole",
      "outputs": [],
      "stateMutability": "nonpayable",
      "type": "function"
    },
    {
      "inputs": [
        {
          "internalType": "bytes32",
          "name": "role",
          "type": "bytes32"
        },
        {
          "internalType": "address",
          "name": "account",
          "type": "address"
        }
      ],
      "name": "revokeRole",
      "outputs": [],
      "stateMutability": "nonpayable",
      "type": "function"
    },
    {
      "inputs": [],
      "name": "royaltyBps",
      "outputs": [
        {
          "internalType": "uint256",
          "name": "",
          "type": "uint256"
        }
      ],
      "stateMutability": "view",
      "type": "function"
    },
    {
      "inputs": [
        {
          "internalType": "uint256",
          "name": "",
          "type": "uint256"
        },
        {
          "internalType": "uint256",
          "name": "salePrice",
          "type": "uint256"
        }
      ],
      "name": "royaltyInfo",
      "outputs": [
        {
          "internalType": "address",
          "name": "receiver",
          "type": "address"
        },
        {
          "internalType": "uint256",
          "name": "royaltyAmount",
          "type": "uint256"
        }
      ],
      "stateMutability": "view",
      "type": "function"
    },
    {
      "inputs": [
        {
          "internalType": "address",
          "name": "from",
          "type": "address"
        },
        {
          "internalType": "address",
          "name": "to",
          "type": "address"
        },
        {
          "internalType": "uint256[]",
          "name": "ids",
          "type": "uint256[]"
        },
        {
          "internalType": "uint256[]",
          "name": "amounts",
          "type": "uint256[]"
        },
        {
          "internalType": "bytes",
          "name": "data",
          "type": "bytes"
        }
      ],
      "name": "safeBatchTransferFrom",
      "outputs": [],
      "stateMutability": "nonpayable",
      "type": "function"
    },
    {
      "inputs": [
        {
          "internalType": "address",
          "name": "from",
          "type": "address"
        },
        {
          "internalType": "address",
          "name": "to",
          "type": "address"
        },
        {
          "internalType": "uint256",
          "name": "id",
          "type": "uint256"
        },
        {
          "internalType": "uint256",
          "name": "amount",
          "type": "uint256"
        },
        {
          "internalType": "bytes",
          "name": "data",
          "type": "bytes"
        }
      ],
      "name": "safeTransferFrom",
      "outputs": [],
      "stateMutability": "nonpayable",
      "type": "function"
    },
    {
      "inputs": [
        {
          "internalType": "address",
          "name": "operator",
          "type": "address"
        },
        {
          "internalType": "bool",
          "name": "approved",
          "type": "bool"
        }
      ],
      "name": "setApprovalForAll",
      "outputs": [],
      "stateMutability": "nonpayable",
      "type": "function"
    },
    {
      "inputs": [
        {
          "internalType": "string",
          "name": "_URI",
          "type": "string"
        }
      ],
      "name": "setContractURI",
      "outputs": [],
      "stateMutability": "nonpayable",
      "type": "function"
    },
    {
      "inputs": [
        {
          "internalType": "bool",
          "name": "_restrictedTransfer",
          "type": "bool"
        }
      ],
      "name": "setRestrictedTransfer",
      "outputs": [],
      "stateMutability": "nonpayable",
      "type": "function"
    },
    {
      "inputs": [
        {
          "internalType": "uint256",
          "name": "_royaltyBps",
          "type": "uint256"
        }
      ],
      "name": "setRoyaltyBps",
      "outputs": [],
      "stateMutability": "nonpayable",
      "type": "function"
    },
    {
      "inputs": [
        {
          "internalType": "bytes4",
          "name": "interfaceId",
          "type": "bytes4"
        }
      ],
      "name": "supportsInterface",
      "outputs": [
        {
          "internalType": "bool",
          "name": "",
          "type": "bool"
        }
      ],
      "stateMutability": "view",
      "type": "function"
    },
    {
      "inputs": [
        {
          "internalType": "uint256",
          "name": "",
          "type": "uint256"
        }
      ],
      "name": "tokenState",
      "outputs": [
        {
          "internalType": "address",
          "name": "creator",
          "type": "address"
        },
        {
          "internalType": "string",
          "name": "uri",
          "type": "string"
        },
        {
          "internalType": "enum NFTCollection.UnderlyingType",
          "name": "underlyingType",
          "type": "uint8"
        }
      ],
      "stateMutability": "view",
      "type": "function"
    },
    {
      "inputs": [
        {
          "internalType": "uint256",
          "name": "_nftId",
          "type": "uint256"
        }
      ],
      "name": "tokenURI",
      "outputs": [
        {
          "internalType": "string",
          "name": "",
          "type": "string"
        }
      ],
      "stateMutability": "view",
      "type": "function"
    },
    {
      "inputs": [
        {
          "internalType": "uint256",
          "name": "id",
          "type": "uint256"
        }
      ],
      "name": "totalSupply",
      "outputs": [
        {
          "internalType": "uint256",
          "name": "",
          "type": "uint256"
        }
      ],
      "stateMutability": "view",
      "type": "function"
    },
    {
      "inputs": [],
      "name": "transfersRestricted",
      "outputs": [
        {
          "internalType": "bool",
          "name": "",
          "type": "bool"
        }
      ],
      "stateMutability": "view",
      "type": "function"
    },
    {
      "inputs": [],
      "name": "unpause",
      "outputs": [],
      "stateMutability": "nonpayable",
      "type": "function"
    },
    {
      "inputs": [
        {
          "internalType": "uint256",
          "name": "_nftId",
          "type": "uint256"
        }
      ],
      "name": "uri",
      "outputs": [
        {
          "internalType": "string",
          "name": "",
          "type": "string"
        }
      ],
      "stateMutability": "view",
      "type": "function"
    },
    {
      "inputs": [
        {
          "internalType": "address",
          "name": "_tokenContract",
          "type": "address"
        },
        {
          "internalType": "uint256",
          "name": "_tokenAmount",
          "type": "uint256"
        },
        {
          "internalType": "uint256",
          "name": "_numOfNftsToMint",
          "type": "uint256"
        },
        {
          "internalType": "string",
          "name": "_nftURI",
          "type": "string"
        }
      ],
      "name": "wrapERC20",
      "outputs": [],
      "stateMutability": "nonpayable",
      "type": "function"
    },
    {
      "inputs": [
        {
          "internalType": "address",
          "name": "_nftContract",
          "type": "address"
        },
        {
          "internalType": "uint256",
          "name": "_tokenId",
          "type": "uint256"
        },
        {
          "internalType": "string",
          "name": "_nftURI",
          "type": "string"
        }
      ],
      "name": "wrapERC721",
      "outputs": [],
      "stateMutability": "nonpayable",
      "type": "function"
    }
  ],
  "bytecode": "0x60806040523480156200001157600080fd5b506040516200616a3803806200616a833981016040819052620000349162000595565b82828062000042816200014b565b506005805460ff191690556200006360006200005d62000164565b62000180565b620000927f9f2df0fed2c77648de5860a4cc508cd0818c85b8b8a1ab4ceeef8d981c8956a66200005d62000164565b620000c17f65d7a28e3265b37a6474929f336521b332c1681b933f6cb9f3376673440d862a6200005d62000164565b50600780546001600160a01b03199081166001600160a01b03938416179091556008805490911691861691909117905581516200010690600b906020850190620004ef565b50620001367f8502233096d909befbda0999bb8ea2f3a6be3c138b9fbf003752a4c8bce86f6c6200005d62000164565b6200014181620001c3565b505050506200073b565b805162000160906004906020840190620004ef565b5050565b60006200017b6200039260201b62002c521760201c565b905090565b620001978282620003cb60201b62002c821760201c565b6000828152600160209081526040909120620001be91839062002c90620003d7821b17901c565b505050565b620001fc6000620001d362000164565b6000918252602082815260408084206001600160a01b0393909316845291905290205460ff1690565b6200024e5760405162461bcd60e51b815260206004820152601660248201527f6f6e6c79206d6f64756c652061646d696e20726f6c650000000000000000000060448201526064015b60405180910390fd5b600860009054906101000a90046001600160a01b03166001600160a01b031663fd967f476040518163ffffffff1660e01b815260040160206040518083038186803b1580156200029d57600080fd5b505afa158015620002b2573d6000803e3d6000fd5b505050506040513d601f19601f82011682018060405250810190620002d891906200069f565b6001600160801b03168110620003575760405162461bcd60e51b815260206004820152603e60248201527f4e4654436f6c6c656374696f6e3a20496e76616c6964206270732070726f766960448201527f6465643b206d757374206265206c657373207468616e2031302c3030302e0000606482015260840162000245565b600a8190556040518181527f244ea8d7627f5a08f4299862bd5a45752842c183aee5b0fb0d1e4887bfa605b39060200160405180910390a150565b6007546000906001600160a01b0316331415620003b6575060131936013560601c90565b6200017b620003f760201b62002ca51760201c565b620001608282620003fb565b6000620003ee836001600160a01b0384166200049d565b90505b92915050565b3390565b6000828152602081815260408083206001600160a01b038516845290915290205460ff1662000160576000828152602081815260408083206001600160a01b03851684529091529020805460ff191660011790556200045962000164565b6001600160a01b0316816001600160a01b0316837f2f8788117e7eff1d82e926ec794901d17c78024a50270940304540a733656f0d60405160405180910390a45050565b6000818152600183016020526040812054620004e657508154600181810184556000848152602080822090930184905584548482528286019093526040902091909155620003f1565b506000620003f1565b828054620004fd90620006cf565b90600052602060002090601f0160209004810192826200052157600085556200056c565b82601f106200053c57805160ff19168380011785556200056c565b828001600101855582156200056c579182015b828111156200056c5782518255916020019190600101906200054f565b506200057a9291506200057e565b5090565b5b808211156200057a57600081556001016200057f565b60008060008060808587031215620005ab578384fd5b8451620005b88162000722565b80945050602080860151620005cd8162000722565b60408701519094506001600160401b0380821115620005ea578485fd5b818801915088601f830112620005fe578485fd5b8151818111156200061357620006136200070c565b604051601f8201601f19908116603f011681019083821181831017156200063e576200063e6200070c565b816040528281528b8684870101111562000656578788fd5b8793505b828410156200067957848401860151818501870152928501926200065a565b828411156200068a57878684830101525b60609a909a0151989b979a5050505050505050565b600060208284031215620006b1578081fd5b81516001600160801b0381168114620006c8578182fd5b9392505050565b600181811c90821680620006e457607f821691505b602082108114156200070657634e487b7160e01b600052602260045260246000fd5b50919050565b634e487b7160e01b600052604160045260246000fd5b6001600160a01b03811681146200073857600080fd5b50565b615a1f806200074b6000396000f3fe608060405234801561001057600080fd5b50600436106103405760003560e01c80638456cb59116101bd578063c63adb2b116100f9578063e63ab1e9116100a2578063f23a6e611161007c578063f23a6e611461083c578063f242432a1461085b578063f5298aca1461086e578063fafdcc881461088157600080fd5b8063e63ab1e9146107d1578063e8a3d485146107f8578063e985e9c51461080057600080fd5b8063d5391393116100d3578063d539139314610796578063d547741f146107ab578063db884b0c146107be57600080fd5b8063c63adb2b1461077a578063c87b56dd146103a3578063ca15c8731461078357600080fd5b80639745cc3d11610166578063ac9650d811610140578063ac9650d814610713578063bc197c8114610733578063bd85b03914610752578063c0e727401461077257600080fd5b80639745cc3d146106d6578063a217fddf146106f8578063a22cb4651461070057600080fd5b806391d148541161019757806391d1485414610679578063938e3d7b146106b057806393b778d4146106c357600080fd5b80638456cb591461064b5780638ba448c2146106535780639010d07c1461066657600080fd5b806336568abe1161028c5780635c975abb11610235578063731133e91161020f578063731133e91461060f57806375794a3c146106225780637a61080b1461062b5780638423df791461063e57600080fd5b80635c975abb146105935780635cd9913d1461059e5780636b20c454146105fc57600080fd5b80634e1273f4116102665780634e1273f414610510578063510b515814610530578063572b6c051461057157600080fd5b806336568abe146104c2578063367a182b146104d55780633f4ba83a1461050857600080fd5b80631f7fdffa116102ee5780632a55205a116102c85780632a55205a1461046a5780632eb2c2d61461049c5780632f2ff15d146104af57600080fd5b80631f7fdffa1461040d578063206b60f914610420578063248a9ca31461044757600080fd5b80630e89341c1161031f5780630e89341c146103a3578063150b7a02146103c35780631f72d831146103fa57600080fd5b8062fdd58e1461034557806301ffc9a71461036b578063090a32821461038e575b600080fd5b610358610353366004614e66565b610894565b6040519081526020015b60405180910390f35b61037e61037936600461518a565b610930565b6040519015158152602001610362565b6103a161039c366004614e91565b61095b565b005b6103b66103b1366004615115565b610e81565b60405161036291906155d0565b6103e16103d1366004614bc9565b630a85bd0160e11b949350505050565b6040516001600160e01b03199091168152602001610362565b6103a1610408366004615115565b610f26565b6103a161041b366004614dae565b6110b7565b6103587f8502233096d909befbda0999bb8ea2f3a6be3c138b9fbf003752a4c8bce86f6c81565b610358610455366004615115565b60009081526020819052604090206001015490565b61047d610478366004615169565b611292565b604080516001600160a01b039093168352602083019190915201610362565b6103a16104aa366004614b1f565b6113c4565b6103a16104bd366004615145565b611478565b6103a16104d0366004615145565b61149f565b61047d6104e3366004615115565b600e60205260009081526040902080546001909101546001600160a01b039091169082565b6103a16114c1565b61052361051e366004614fd0565b611569565b60405161036291906154cf565b61055961053e366004615115565b6000908152600d60205260409020546001600160a01b031690565b6040516001600160a01b039091168152602001610362565b61037e61057f366004614aaf565b6007546001600160a01b0391821691161490565b60055460ff1661037e565b6105d76105ac366004615115565b600f602052600090815260409020805460018201546002909201546001600160a01b03909116919083565b604080516001600160a01b039094168452602084019290925290820152606001610362565b6103a161060a366004614d3b565b6116cb565b6103a161061d366004614f1f565b611720565b61035860095481565b6103a1610639366004615169565b611851565b600c5461037e9060ff1681565b6103a1611a66565b6103a16106613660046150dd565b611b0c565b610559610674366004615169565b611b9f565b61037e610687366004615145565b6000918252602082815260408084206001600160a01b0393909316845291905290205460ff1690565b6103a16106be3660046151c2565b611bbe565b6103a16106d1366004615115565b611d46565b6106e96106e4366004615115565b611eb7565b6040516103629392919061541e565b610358600081565b6103a161070e366004614e39565b611f6f565b61072661072136600461509d565b612077565b604051610362919061546e565b6103e1610741366004614b1f565b63bc197c8160e01b95945050505050565b610358610760366004615115565b60009081526006602052604090205490565b6103b6612196565b610358600a5481565b610358610791366004615115565b612224565b6103586000805160206159f383398151915281565b6103a16107b9366004615145565b61223b565b6103a16107cc366004614f68565b612245565b6103587f65d7a28e3265b37a6474929f336521b332c1681b933f6cb9f3376673440d862a81565b6103b6612755565b61037e61080e366004614ae7565b6001600160a01b03918216600090815260036020908152604080832093909416825291909152205460ff1690565b6103e161084a366004614c33565b63f23a6e6160e01b95945050505050565b6103a1610869366004614c33565b6127e7565b6103a161087c366004614eeb565b61283e565b61052361088f366004614c9a565b612893565b60006001600160a01b0383166109055760405162461bcd60e51b815260206004820152602b60248201527f455243313135353a2062616c616e636520717565727920666f7220746865207a60448201526a65726f206164647265737360a81b60648201526084015b60405180910390fd5b5060008181526002602090815260408083206001600160a01b03861684529091529020545b92915050565b600061093b82612ca9565b8061092a57506001600160e01b0319821663152a902d60e11b1492915050565b60055460ff16156109a15760405162461bcd60e51b815260206004820152601060248201526f14185d5cd8589b194e881c185d5cd95960821b60448201526064016108fc565b6109bb6000805160206159f3833981519152610687612cb4565b6109d75760405162461bcd60e51b81526004016108fc9061562c565b6109df612cb4565b6040516331a9108f60e11b8152600481018590526001600160a01b0391821691861690636352211e9060240160206040518083038186803b158015610a2357600080fd5b505afa158015610a37573d6000803e3d6000fd5b505050506040513d601f19601f82011682018060405250810190610a5b9190614acb565b6001600160a01b031614610ad75760405162461bcd60e51b815260206004820152603560248201527f4e4654436f6c6c656374696f6e3a204f6e6c7920746865206f776e6572206f6660448201527f20746865204e46542063616e20777261702069742e000000000000000000000060648201526084016108fc565b60405163020604bf60e21b81526004810184905230906001600160a01b0386169063081812fc9060240160206040518083038186803b158015610b1957600080fd5b505afa158015610b2d573d6000803e3d6000fd5b505050506040513d601f19601f82011682018060405250810190610b519190614acb565b6001600160a01b03161480610bf55750836001600160a01b031663e985e9c5610b78612cb4565b6040516001600160e01b031960e084901b1681526001600160a01b03909116600482015230602482015260440160206040518083038186803b158015610bbd57600080fd5b505afa158015610bd1573d6000803e3d6000fd5b505050506040513d601f19601f82011682018060405250810190610bf591906150f9565b610c675760405162461bcd60e51b815260206004820152603d60248201527f4e4654436f6c6c656374696f6e3a204d75737420617070726f7665207468652060448201527f636f6e747261637420746f207472616e7366657220746865204e46542e00000060648201526084016108fc565b6000610c71612cb4565b600980549192506001906000610c87838561578e565b9091555050604051632142170760e11b81526001600160a01b038381166004830152306024830152604482018790528716906342842e0e90606401600060405180830381600087803b158015610cdc57600080fd5b505af1158015610cf0573d6000803e3d6000fd5b50505050610d108282600160405180602001604052806000815250612cbe565b6040518060600160405280836001600160a01b0316815260200185858080601f01602080910402602001604051908101604052809392919081815260200183838082843760009201829052509385525050600260209384015250838152600d825260409020825181546001600160a01b0319166001600160a01b039091161781558282015180519192610dab92600185019290910190614835565b5060408201518160020160006101000a81548160ff02191690836002811115610de457634e487b7160e01b600052602160045260246000fd5b0217905550506040805180820182526001600160a01b0389811680835260208084018b81526000888152600e90925290859020935184546001600160a01b031916908416178455516001909301929092559151909250908416907f797091bed1dcc535a592c3da1115fdb7467204ef9fb70943f0fc855ebe0a30f590610e7190899086908a908a906156df565b60405180910390a3505050505050565b6000818152600d60205260409020600101805460609190610ea19061583f565b80601f0160208091040260200160405190810160405280929190818152602001828054610ecd9061583f565b8015610f1a5780601f10610eef57610100808354040283529160200191610f1a565b820191906000526020600020905b815481529060010190602001808311610efd57829003601f168201915b50505050509050919050565b610f336000610687612cb4565b610f785760405162461bcd60e51b81526020600482015260166024820152756f6e6c79206d6f64756c652061646d696e20726f6c6560501b60448201526064016108fc565b600860009054906101000a90046001600160a01b03166001600160a01b031663fd967f476040518163ffffffff1660e01b815260040160206040518083038186803b158015610fc657600080fd5b505afa158015610fda573d6000803e3d6000fd5b505050506040513d601f19601f82011682018060405250810190610ffe91906151f6565b6001600160801b0316811061107b5760405162461bcd60e51b815260206004820152603e60248201527f4e4654436f6c6c656374696f6e3a20496e76616c6964206270732070726f766960448201527f6465643b206d757374206265206c657373207468616e2031302c3030302e000060648201526084016108fc565b600a8190556040518181527f244ea8d7627f5a08f4299862bd5a45752842c183aee5b0fb0d1e4887bfa605b3906020015b60405180910390a150565b60018060005b8551811015611197576009548682815181106110e957634e487b7160e01b600052603260045260246000fd5b6020026020010151101580156110fc5750825b1561110657600092505b6000600d600088848151811061112c57634e487b7160e01b600052603260045260246000fd5b6020026020010151815260200190815260200160002060020160009054906101000a900460ff16600281111561117257634e487b7160e01b600052602160045260246000fd5b1415801561117d5750815b1561118757600091505b611190816158a7565b90506110bd565b508161120b5760405162461bcd60e51b815260206004820152603960248201527f4e4654436f6c6c656374696f6e3a2063616e6e6f742063616c6c20746869732060448201527f666e20666f72206372656174696e67206e6577204e4654732e0000000000000060648201526084016108fc565b8061127e5760405162461bcd60e51b815260206004820152603a60248201527f4e4654436f6c6c656374696f6e3a2063616e6e6f7420667265656c79206d696e60448201527f74206d6f7265206f66204552433230206f72204552433732312e00000000000060648201526084016108fc565b61128a86868686612cf3565b505050505050565b60085460405163f2aab4b360e01b815230600482015260009182916001600160a01b039091169063f2aab4b39060240160206040518083038186803b1580156112da57600080fd5b505afa1580156112ee573d6000803e3d6000fd5b505050506040513d601f19601f820116820180604052508101906113129190614acb565b9150600860009054906101000a90046001600160a01b03166001600160a01b031663fd967f476040518163ffffffff1660e01b815260040160206040518083038186803b15801561136257600080fd5b505afa158015611376573d6000803e3d6000fd5b505050506040513d601f19601f8201168201806040525081019061139a91906151f6565b6001600160801b0316600a54846113b191906157c6565b6113bb91906157a6565b90509250929050565b6113cc612cb4565b6001600160a01b0316856001600160a01b031614806113f257506113f28561080e612cb4565b6114645760405162461bcd60e51b815260206004820152603260248201527f455243313135353a207472616e736665722063616c6c6572206973206e6f742060448201527f6f776e6572206e6f7220617070726f766564000000000000000000000000000060648201526084016108fc565b6114718585858585612d8b565b5050505050565b6114828282612fd8565b600082815260016020526040902061149a9082612c90565b505050565b6114a98282613005565b600082815260016020526040902061149a908261308f565b6114ed7f65d7a28e3265b37a6474929f336521b332c1681b933f6cb9f3376673440d862a610687612cb4565b61155f5760405162461bcd60e51b815260206004820152603b60248201527f455243313135355072657365744d696e7465725061757365723a206d7573742060448201527f686176652070617573657220726f6c6520746f20756e7061757365000000000060648201526084016108fc565b6115676130a4565b565b606081518351146115ce5760405162461bcd60e51b815260206004820152602960248201527f455243313135353a206163636f756e747320616e6420696473206c656e677468604482015268040dad2e6dac2e8c6d60bb1b60648201526084016108fc565b6000835167ffffffffffffffff8111156115f857634e487b7160e01b600052604160045260246000fd5b604051908082528060200260200182016040528015611621578160200160208202803683370190505b50905060005b84518110156116c35761168885828151811061165357634e487b7160e01b600052603260045260246000fd5b602002602001015185838151811061167b57634e487b7160e01b600052603260045260246000fd5b6020026020010151610894565b8282815181106116a857634e487b7160e01b600052603260045260246000fd5b60209081029190910101526116bc816158a7565b9050611627565b509392505050565b6116d3612cb4565b6001600160a01b0316836001600160a01b031614806116f957506116f98361080e612cb4565b6117155760405162461bcd60e51b81526004016108fc906155e3565b61149a838383613146565b60095483106117975760405162461bcd60e51b815260206004820152603960248201527f4e4654436f6c6c656374696f6e3a2063616e6e6f742063616c6c20746869732060448201527f666e20666f72206372656174696e67206e6577204e4654732e0000000000000060648201526084016108fc565b6000838152600d6020526040812060029081015460ff16908111156117cc57634e487b7160e01b600052602160045260246000fd5b1461183f5760405162461bcd60e51b815260206004820152603a60248201527f4e4654436f6c6c656374696f6e3a2063616e6e6f7420667265656c79206d696e60448201527f74206d6f7265206f66204552433230206f72204552433732312e00000000000060648201526084016108fc565b61184b848484846131e4565b50505050565b600061185b612cb4565b9050816118688285610894565b10156118d25760405162461bcd60e51b815260206004820152603360248201527f4e4654436f6c6c656374696f6e3a2043616e6e6f742072656465656d20616e2060448201527227232a103cb7ba903237903737ba1037bbb71760691b60648201526084016108fc565b6118dd81848461327c565b6000838152600f6020526040812060018101546002909101546119019085906157c6565b61190b91906157a6565b6000858152600f60205260409081902054905163a9059cbb60e01b81526001600160a01b0385811660048301526024820184905292935091169063a9059cbb90604401602060405180830381600087803b15801561196857600080fd5b505af115801561197c573d6000803e3d6000fd5b505050506040513d601f19601f820116820180604052508101906119a091906150f9565b611a045760405162461bcd60e51b815260206004820152602f60248201527f4e4654436f6c6c656374696f6e3a204661696c656420746f207472616e73666560448201526e391022a9219918103a37b5b2b7399760891b60648201526084016108fc565b6000848152600f60209081526040918290205482518481529182018690526001600160a01b03908116928792918616917fb80333a30b48beb3745280a5e4bb1b8e53f79569e454ec99ba13678dfbe728eb91015b60405180910390a450505050565b611a927f65d7a28e3265b37a6474929f336521b332c1681b933f6cb9f3376673440d862a610687612cb4565b611b045760405162461bcd60e51b815260206004820152603960248201527f455243313135355072657365744d696e7465725061757365723a206d7573742060448201527f686176652070617573657220726f6c6520746f2070617573650000000000000060648201526084016108fc565b6115676132af565b611b196000610687612cb4565b611b5e5760405162461bcd60e51b81526020600482015260166024820152756f6e6c79206d6f64756c652061646d696e20726f6c6560501b60448201526064016108fc565b600c805460ff19168215159081179091556040519081527ffb4ba02cee22486df888d7ffb97c6100ec3193781e025cb9a4bc6fc358d626cc906020016110ac565b6000828152600160205260408120611bb7908361332b565b9392505050565b6008546040805163a217fddf60e01b815290516001600160a01b03909216916391d1485491839163a217fddf91600480820192602092909190829003018186803b158015611c0b57600080fd5b505afa158015611c1f573d6000803e3d6000fd5b505050506040513d601f19601f82011682018060405250810190611c43919061512d565b611c4b612cb4565b6040516001600160e01b031960e085901b16815260048101929092526001600160a01b0316602482015260440160206040518083038186803b158015611c9057600080fd5b505afa158015611ca4573d6000803e3d6000fd5b505050506040513d601f19601f82011682018060405250810190611cc891906150f9565b611d3a5760405162461bcd60e51b815260206004820152603c60248201527f4e4654436f6c6c656374696f6e3a206f6e6c7920612070726f746f636f6c206160448201527f646d696e2063616e2063616c6c20746869732066756e6374696f6e2e0000000060648201526084016108fc565b61149a600b83836148b9565b6000611d50612cb4565b90506000611d5e8284610894565b11611dc75760405162461bcd60e51b815260206004820152603360248201527f4e4654436f6c6c656374696f6e3a2043616e6e6f742072656465656d20616e2060448201527227232a103cb7ba903237903737ba1037bbb71760691b60648201526084016108fc565b611dd38183600161327c565b6000828152600e60205260409081902080546001909101549151632142170760e11b81523060048201526001600160a01b03848116602483015260448201939093529116906342842e0e90606401600060405180830381600087803b158015611e3b57600080fd5b505af1158015611e4f573d6000803e3d6000fd5b5050506000838152600e6020908152604091829020805460019091015483519081529182018690526001600160a01b0390811693508416917fea7b88a04220a2292e142652e8e1a59cc00e7d27d8ad6b11da6cf5870e6ba86691015b60405180910390a35050565b600d60205260009081526040902080546001820180546001600160a01b039092169291611ee39061583f565b80601f0160208091040260200160405190810160405280929190818152602001828054611f0f9061583f565b8015611f5c5780601f10611f3157610100808354040283529160200191611f5c565b820191906000526020600020905b815481529060010190602001808311611f3f57829003601f168201915b5050506002909301549192505060ff1683565b816001600160a01b0316611f81612cb4565b6001600160a01b03161415611fea5760405162461bcd60e51b815260206004820152602960248201527f455243313135353a2073657474696e6720617070726f76616c20737461747573604482015268103337b91039b2b63360b91b60648201526084016108fc565b8060036000611ff7612cb4565b6001600160a01b03908116825260208083019390935260409182016000908120918716808252919093529120805460ff19169215159290921790915561203b612cb4565b6001600160a01b03167f17307eab39ab6107e8899845ad3d59bd9653f200f220920489ca2b5937696c3183604051611eab911515815260200190565b60608167ffffffffffffffff8111156120a057634e487b7160e01b600052604160045260246000fd5b6040519080825280602002602001820160405280156120d357816020015b60608152602001906001900390816120be5790505b50905060005b8281101561218f576121513085858481811061210557634e487b7160e01b600052603260045260246000fd5b90506020028101906121179190615725565b8080601f01602080910402602001604051908101604052809392919081815260200183838082843760009201919091525061333792505050565b82828151811061217157634e487b7160e01b600052603260045260246000fd5b60200260200101819052508080612187906158a7565b9150506120d9565b5092915050565b600b80546121a39061583f565b80601f01602080910402602001604051908101604052809291908181526020018280546121cf9061583f565b801561221c5780601f106121f15761010080835404028352916020019161221c565b820191906000526020600020905b8154815290600101906020018083116121ff57829003601f168201915b505050505081565b600081815260016020526040812061092a9061335c565b6114a98282613366565b60055460ff161561228b5760405162461bcd60e51b815260206004820152601060248201526f14185d5cd8589b194e881c185d5cd95960821b60448201526064016108fc565b6122a56000805160206159f3833981519152610687612cb4565b6122c15760405162461bcd60e51b81526004016108fc9061562c565b60006122cb612cb4565b6040516370a0823160e01b81526001600160a01b03808316600483015291925086918816906370a082319060240160206040518083038186803b15801561231157600080fd5b505afa158015612325573d6000803e3d6000fd5b505050506040513d601f19601f82011682018060405250810190612349919061512d565b10156123bd5760405162461bcd60e51b815260206004820152603b60248201527f4e4654436f6c6c656374696f6e3a204d757374206f776e2074686520616d6f7560448201527f6e74206f6620746f6b656e73206265696e6720777261707065642e000000000060648201526084016108fc565b604051636eb1769f60e11b81526001600160a01b03828116600483015230602483015286919088169063dd62ed3e9060440160206040518083038186803b15801561240757600080fd5b505afa15801561241b573d6000803e3d6000fd5b505050506040513d601f19601f8201168201806040525081019061243f919061512d565b10156124b35760405162461bcd60e51b815260206004820152603d60248201527f4e4654436f6c6c656374696f6e3a204d75737420617070726f7665207468697360448201527f20636f6e747261637420746f207472616e7366657220746f6b656e732e00000060648201526084016108fc565b6040516323b872dd60e01b81526001600160a01b038281166004830152306024830152604482018790528716906323b872dd90606401602060405180830381600087803b15801561250357600080fd5b505af1158015612517573d6000803e3d6000fd5b505050506040513d601f19601f8201168201806040525081019061253b91906150f9565b61259f5760405162461bcd60e51b815260206004820152602f60248201527f4e4654436f6c6c656374696f6e3a204661696c656420746f207472616e73666560448201526e391022a9219918103a37b5b2b7399760891b60648201526084016108fc565b600980549060019060006125b3838561578e565b925050819055506125d582828760405180602001604052806000815250612cbe565b6040518060600160405280836001600160a01b0316815260200185858080601f0160208091040260200160405190810160405280939291908181526020018383808284376000920182905250938552505060016020938401819052858352600d84526040909220845181546001600160a01b0319166001600160a01b03909116178155848401518051919461266f94860193500190614835565b5060408201518160020160006101000a81548160ff021916908360028111156126a857634e487b7160e01b600052602160045260246000fd5b021790555050604080516060810182526001600160a01b038a811680835260208084018b81528486018d81526000898152600f90935291869020945185546001600160a01b031916908516178555516001850155516002909301929092559151909250908416907f53af9a53d4a11cb382035aa13d6d8e24575569953176d87464ba37e7013a6aa490612744908a908a9087908b908b906156ff565b60405180910390a350505050505050565b6060600b80546127649061583f565b80601f01602080910402602001604051908101604052809291908181526020018280546127909061583f565b80156127dd5780601f106127b2576101008083540402835291602001916127dd565b820191906000526020600020905b8154815290600101906020018083116127c057829003601f168201915b5050505050905090565b6127ef612cb4565b6001600160a01b0316856001600160a01b0316148061281557506128158561080e612cb4565b6128315760405162461bcd60e51b81526004016108fc906155e3565b611471858585858561338e565b612846612cb4565b6001600160a01b0316836001600160a01b0316148061286c575061286c8361080e612cb4565b6128885760405162461bcd60e51b81526004016108fc906155e3565b61149a83838361327c565b60606128a160055460ff1690565b156128e15760405162461bcd60e51b815260206004820152601060248201526f14185d5cd8589b194e881c185d5cd95960821b60448201526064016108fc565b6128fb6000805160206159f3833981519152610687612cb4565b6129175760405162461bcd60e51b81526004016108fc9061562c565b84831461298c5760405162461bcd60e51b815260206004820152603a60248201527f4e4654436f6c6c656374696f6e3a204d7573742073706563696679206571756160448201527f6c206e756d626572206f6620636f6e6669672076616c7565732e00000000000060648201526084016108fc565b846129ee5760405162461bcd60e51b815260206004820152602c60248201527f4e4654436f6c6c656374696f6e3a204d75737420637265617465206174206c6560448201526b30b9ba1037b7329027232a1760a11b60648201526084016108fc565b60006129f8612cb4565b90508567ffffffffffffffff811115612a2157634e487b7160e01b600052604160045260246000fd5b604051908082528060200260200182016040528015612a4a578160200160208202803683370190505b5060095490925060005b87811015612bb55781848281518110612a7d57634e487b7160e01b600052603260045260246000fd5b6020026020010181815250506040518060600160405280846001600160a01b031681526020018a8a84818110612ac357634e487b7160e01b600052603260045260246000fd5b9050602002810190612ad59190615725565b8080601f01602080910402602001604051908101604052809392919081815260200183838082843760009201829052509385525050506020918201819052848152600d825260409020825181546001600160a01b0319166001600160a01b039091161781558282015180519192612b5492600185019290910190614835565b5060408201518160020160006101000a81548160ff02191690836002811115612b8d57634e487b7160e01b600052602160045260246000fd5b0217905550612ba19150600190508361578e565b915080612bad816158a7565b915050612a54565b5080600981905550612bfd89848888808060200260200160405190810160405280939291908181526020018383602002808284376000920191909152508a925061354a915050565b816001600160a01b03167fbea5a4b7cf9a3f7d8bf7c987614db5dcfdcd917a2cd5788a210c0ebdccfc5da4848a8a8a8a604051612c3e9594939291906154e2565b60405180910390a250509695505050505050565b6007546000906001600160a01b0316331415612c75575060131936013560601c90565b503390565b905090565b90565b612c8c82826135e9565b5050565b6000611bb7836001600160a01b038416613688565b3390565b600061092a826136d7565b6000612c7a612c52565b612cca848484846136fc565b60008381526006602052604081208054849290612ce890849061578e565b909155505050505050565b612d0d6000805160206159f3833981519152610687612cb4565b612d7f5760405162461bcd60e51b815260206004820152603860248201527f455243313135355072657365744d696e7465725061757365723a206d7573742060448201527f68617665206d696e74657220726f6c6520746f206d696e74000000000000000060648201526084016108fc565b61184b8484848461354a565b8151835114612dac5760405162461bcd60e51b81526004016108fc90615697565b6001600160a01b038416612e105760405162461bcd60e51b815260206004820152602560248201527f455243313135353a207472616e7366657220746f20746865207a65726f206164604482015264647265737360d81b60648201526084016108fc565b6000612e1a612cb4565b9050612e2a81878787878761380a565b60005b8451811015612f72576000858281518110612e5857634e487b7160e01b600052603260045260246000fd5b602002602001015190506000858381518110612e8457634e487b7160e01b600052603260045260246000fd5b60209081029190910181015160008481526002835260408082206001600160a01b038e168352909352919091205490915081811015612f185760405162461bcd60e51b815260206004820152602a60248201527f455243313135353a20696e73756666696369656e742062616c616e636520666f60448201526939103a3930b739b332b960b11b60648201526084016108fc565b60008381526002602090815260408083206001600160a01b038e8116855292528083208585039055908b16825281208054849290612f5790849061578e565b9250508190555050505080612f6b906158a7565b9050612e2d565b50846001600160a01b0316866001600160a01b0316826001600160a01b03167f4a39dc06d4c0dbc64b70af90fd698a233a518aa5d07e595d983b8c0526c8f7fb8787604051612fc29291906155a2565b60405180910390a461128a81878787878761394b565b600082815260208190526040902060010154612ffb81612ff6612cb4565b613b00565b61149a83836135e9565b61300d612cb4565b6001600160a01b0316816001600160a01b0316146130855760405162461bcd60e51b815260206004820152602f60248201527f416363657373436f6e74726f6c3a2063616e206f6e6c792072656e6f756e636560448201526e103937b632b9903337b91039b2b63360891b60648201526084016108fc565b612c8c8282613b7e565b6000611bb7836001600160a01b038416613c1b565b60055460ff166130f65760405162461bcd60e51b815260206004820152601460248201527f5061757361626c653a206e6f742070617573656400000000000000000000000060448201526064016108fc565b6005805460ff191690557f5db9ee0a495bf2e6ff9c91a7834c1ba4fdd244a5e8aa4e537bd38aeae4b073aa613129612cb4565b6040516001600160a01b03909116815260200160405180910390a1565b613151838383613d38565b60005b825181101561184b5781818151811061317d57634e487b7160e01b600052603260045260246000fd5b6020026020010151600660008584815181106131a957634e487b7160e01b600052603260045260246000fd5b6020026020010151815260200190815260200160002060008282546131ce91906157e5565b909155506131dd9050816158a7565b9050613154565b6131fe6000805160206159f3833981519152610687612cb4565b6132705760405162461bcd60e51b815260206004820152603860248201527f455243313135355072657365744d696e7465725061757365723a206d7573742060448201527f68617665206d696e74657220726f6c6520746f206d696e74000000000000000060648201526084016108fc565b61184b84848484612cbe565b613287838383613f56565b600082815260066020526040812080548392906132a59084906157e5565b9091555050505050565b60055460ff16156132f55760405162461bcd60e51b815260206004820152601060248201526f14185d5cd8589b194e881c185d5cd95960821b60448201526064016108fc565b6005805460ff191660011790557f62e78cea01bee320cd4e420270b5ea74000d11b0c9f74754ebdbfc544b05a258613129612cb4565b6000611bb783836140de565b6060611bb783836040518060600160405280602781526020016159cc60279139614116565b600061092a825490565b60008281526020819052604090206001015461338481612ff6612cb4565b61149a8383613b7e565b6001600160a01b0384166133f25760405162461bcd60e51b815260206004820152602560248201527f455243313135353a207472616e7366657220746f20746865207a65726f206164604482015264647265737360d81b60648201526084016108fc565b60006133fc612cb4565b905061341c81878761340d886141ea565b613416886141ea565b8761380a565b60008481526002602090815260408083206001600160a01b038a168452909152902054838110156134a25760405162461bcd60e51b815260206004820152602a60248201527f455243313135353a20696e73756666696369656e742062616c616e636520666f60448201526939103a3930b739b332b960b11b60648201526084016108fc565b60008581526002602090815260408083206001600160a01b038b81168552925280832087850390559088168252812080548692906134e190849061578e565b909155505060408051868152602081018690526001600160a01b03808916928a821692918616917fc3d58168c5ae7397731d063d5bbf3d657854427343f4c083240f7aacaa2d0f62910160405180910390a4613541828888888888614243565b50505050505050565b6135568484848461434e565b60005b83518110156114715782818151811061358257634e487b7160e01b600052603260045260246000fd5b6020026020010151600660008684815181106135ae57634e487b7160e01b600052603260045260246000fd5b6020026020010151815260200190815260200160002060008282546135d3919061578e565b909155506135e29050816158a7565b9050613559565b6000828152602081815260408083206001600160a01b038516845290915290205460ff16612c8c576000828152602081815260408083206001600160a01b03851684529091529020805460ff19166001179055613644612cb4565b6001600160a01b0316816001600160a01b0316837f2f8788117e7eff1d82e926ec794901d17c78024a50270940304540a733656f0d60405160405180910390a45050565b60008181526001830160205260408120546136cf5750815460018181018455600084815260208082209093018490558454848252828601909352604090209190915561092a565b50600061092a565b60006001600160e01b03198216630271189760e51b148061092a575061092a8261450a565b6001600160a01b03841661375c5760405162461bcd60e51b815260206004820152602160248201527f455243313135353a206d696e7420746f20746865207a65726f206164647265736044820152607360f81b60648201526084016108fc565b6000613766612cb4565b90506137788160008761340d886141ea565b60008481526002602090815260408083206001600160a01b0389168452909152812080548592906137aa90849061578e565b909155505060408051858152602081018590526001600160a01b0380881692600092918516917fc3d58168c5ae7397731d063d5bbf3d657854427343f4c083240f7aacaa2d0f62910160405180910390a461147181600087878787614243565b61381886868686868661454a565b600c5460ff16801561383257506001600160a01b03851615155b801561384657506001600160a01b03841615155b1561128a576001600160a01b03851660009081527f7c7a990f752005aea38438cc35abc5417bd322e6c964ec21d52573494225142c602052604090205460ff16806138c857506001600160a01b03841660009081527f7c7a990f752005aea38438cc35abc5417bd322e6c964ec21d52573494225142c602052604090205460ff165b61128a5760405162461bcd60e51b815260206004820152604860248201527f4e4654436f6c6c656374696f6e3a205472616e7366657273206172652072657360448201527f7472696374656420746f206f722066726f6d205452414e534645525f524f4c4560648201526720686f6c6465727360c01b608482015260a4016108fc565b6001600160a01b0384163b1561128a5760405163bc197c8160e01b81526001600160a01b0385169063bc197c819061398f908990899088908890889060040161537d565b602060405180830381600087803b1580156139a957600080fd5b505af19250505080156139d9575060408051601f3d908101601f191682019092526139d6918101906151a6565b60015b613a8f576139e56158ee565b806308c379a01415613a1f57506139fa615905565b80613a055750613a21565b8060405162461bcd60e51b81526004016108fc91906155d0565b505b60405162461bcd60e51b815260206004820152603460248201527f455243313135353a207472616e7366657220746f206e6f6e204552433131353560448201527f526563656976657220696d706c656d656e74657200000000000000000000000060648201526084016108fc565b6001600160e01b0319811663bc197c8160e01b146135415760405162461bcd60e51b815260206004820152602860248201527f455243313135353a204552433131353552656365697665722072656a656374656044820152676420746f6b656e7360c01b60648201526084016108fc565b6000828152602081815260408083206001600160a01b038516845290915290205460ff16612c8c57613b3c816001600160a01b03166014614558565b613b47836020614558565b604051602001613b589291906152fc565b60408051601f198184030181529082905262461bcd60e51b82526108fc916004016155d0565b6000828152602081815260408083206001600160a01b038516845290915290205460ff1615612c8c576000828152602081815260408083206001600160a01b03851684529091529020805460ff19169055613bd7612cb4565b6001600160a01b0316816001600160a01b0316837ff6391f5c32d9c69d2a47ea670b442974b53935d1edc7fd64eb21e047a839171b60405160405180910390a45050565b60008181526001830160205260408120548015613d2e576000613c3f6001836157e5565b8554909150600090613c53906001906157e5565b9050818114613cd4576000866000018281548110613c8157634e487b7160e01b600052603260045260246000fd5b9060005260206000200154905080876000018481548110613cb257634e487b7160e01b600052603260045260246000fd5b6000918252602080832090910192909255918252600188019052604090208390555b8554869080613cf357634e487b7160e01b600052603160045260246000fd5b60019003818190600052602060002001600090559055856001016000868152602001908152602001600020600090556001935050505061092a565b600091505061092a565b6001600160a01b038316613d9a5760405162461bcd60e51b815260206004820152602360248201527f455243313135353a206275726e2066726f6d20746865207a65726f206164647260448201526265737360e81b60648201526084016108fc565b8051825114613dbb5760405162461bcd60e51b81526004016108fc90615697565b6000613dc5612cb4565b9050613de58185600086866040518060200160405280600081525061380a565b60005b8351811015613f05576000848281518110613e1357634e487b7160e01b600052603260045260246000fd5b602002602001015190506000848381518110613e3f57634e487b7160e01b600052603260045260246000fd5b60209081029190910181015160008481526002835260408082206001600160a01b038c168352909352919091205490915081811015613ecc5760405162461bcd60e51b8152602060048201526024808201527f455243313135353a206275726e20616d6f756e7420657863656564732062616c604482015263616e636560e01b60648201526084016108fc565b60009283526002602090815260408085206001600160a01b038b1686529091529092209103905580613efd816158a7565b915050613de8565b5060006001600160a01b0316846001600160a01b0316826001600160a01b03167f4a39dc06d4c0dbc64b70af90fd698a233a518aa5d07e595d983b8c0526c8f7fb8686604051611a589291906155a2565b6001600160a01b038316613fb85760405162461bcd60e51b815260206004820152602360248201527f455243313135353a206275726e2066726f6d20746865207a65726f206164647260448201526265737360e81b60648201526084016108fc565b6000613fc2612cb4565b9050613ff281856000613fd4876141ea565b613fdd876141ea565b6040518060200160405280600081525061380a565b60008381526002602090815260408083206001600160a01b0388168452909152902054828110156140715760405162461bcd60e51b8152602060048201526024808201527f455243313135353a206275726e20616d6f756e7420657863656564732062616c604482015263616e636560e01b60648201526084016108fc565b60008481526002602090815260408083206001600160a01b03898116808652918452828520888703905582518981529384018890529092908616917fc3d58168c5ae7397731d063d5bbf3d657854427343f4c083240f7aacaa2d0f62910160405180910390a45050505050565b600082600001828154811061410357634e487b7160e01b600052603260045260246000fd5b9060005260206000200154905092915050565b6060833b6141755760405162461bcd60e51b815260206004820152602660248201527f416464726573733a2064656c65676174652063616c6c20746f206e6f6e2d636f6044820152651b9d1c9858dd60d21b60648201526084016108fc565b600080856001600160a01b03168560405161419091906152e0565b600060405180830381855af49150503d80600081146141cb576040519150601f19603f3d011682016040523d82523d6000602084013e6141d0565b606091505b50915091506141e082828661473a565b9695505050505050565b6040805160018082528183019092526060916000919060208083019080368337019050509050828160008151811061423257634e487b7160e01b600052603260045260246000fd5b602090810291909101015292915050565b6001600160a01b0384163b1561128a5760405163f23a6e6160e01b81526001600160a01b0385169063f23a6e619061428790899089908890889088906004016153db565b602060405180830381600087803b1580156142a157600080fd5b505af19250505080156142d1575060408051601f3d908101601f191682019092526142ce918101906151a6565b60015b6142dd576139e56158ee565b6001600160e01b0319811663f23a6e6160e01b146135415760405162461bcd60e51b815260206004820152602860248201527f455243313135353a204552433131353552656365697665722072656a656374656044820152676420746f6b656e7360c01b60648201526084016108fc565b6001600160a01b0384166143ae5760405162461bcd60e51b815260206004820152602160248201527f455243313135353a206d696e7420746f20746865207a65726f206164647265736044820152607360f81b60648201526084016108fc565b81518351146143cf5760405162461bcd60e51b81526004016108fc90615697565b60006143d9612cb4565b90506143ea8160008787878761380a565b60005b84518110156144a25783818151811061441657634e487b7160e01b600052603260045260246000fd5b60200260200101516002600087848151811061444257634e487b7160e01b600052603260045260246000fd5b602002602001015181526020019081526020016000206000886001600160a01b03166001600160a01b03168152602001908152602001600020600082825461448a919061578e565b9091555081905061449a816158a7565b9150506143ed565b50846001600160a01b031660006001600160a01b0316826001600160a01b03167f4a39dc06d4c0dbc64b70af90fd698a233a518aa5d07e595d983b8c0526c8f7fb87876040516144f39291906155a2565b60405180910390a46114718160008787878761394b565b60006001600160e01b03198216636cdb3d1360e11b148061453b57506001600160e01b031982166303a24d0760e21b145b8061092a575061092a82614773565b61128a868686868686614798565b606060006145678360026157c6565b61457290600261578e565b67ffffffffffffffff81111561459857634e487b7160e01b600052604160045260246000fd5b6040519080825280601f01601f1916602001820160405280156145c2576020820181803683370190505b509050600360fc1b816000815181106145eb57634e487b7160e01b600052603260045260246000fd5b60200101906001600160f81b031916908160001a905350600f60fb1b8160018151811061462857634e487b7160e01b600052603260045260246000fd5b60200101906001600160f81b031916908160001a905350600061464c8460026157c6565b61465790600161578e565b90505b60018111156146eb576f181899199a1a9b1b9c1cb0b131b232b360811b85600f166010811061469957634e487b7160e01b600052603260045260246000fd5b1a60f81b8282815181106146bd57634e487b7160e01b600052603260045260246000fd5b60200101906001600160f81b031916908160001a90535060049490941c936146e481615828565b905061465a565b508315611bb75760405162461bcd60e51b815260206004820181905260248201527f537472696e67733a20686578206c656e67746820696e73756666696369656e7460448201526064016108fc565b60608315614749575081611bb7565b8251156147595782518084602001fd5b8160405162461bcd60e51b81526004016108fc91906155d0565b60006001600160e01b03198216635a05180f60e01b148061092a575061092a82614800565b60055460ff161561128a5760405162461bcd60e51b815260206004820152602c60248201527f455243313135355061757361626c653a20746f6b656e207472616e736665722060448201526b1dda1a5b19481c185d5cd95960a21b60648201526084016108fc565b60006001600160e01b03198216637965db0b60e01b148061092a57506301ffc9a760e01b6001600160e01b031983161461092a565b8280546148419061583f565b90600052602060002090601f01602090048101928261486357600085556148a9565b82601f1061487c57805160ff19168380011785556148a9565b828001600101855582156148a9579182015b828111156148a957825182559160200191906001019061488e565b506148b592915061492d565b5090565b8280546148c59061583f565b90600052602060002090601f0160209004810192826148e757600085556148a9565b82601f106149005782800160ff198235161785556148a9565b828001600101855582156148a9579182015b828111156148a9578235825591602001919060010190614912565b5b808211156148b5576000815560010161492e565b60008083601f840112614953578182fd5b50813567ffffffffffffffff81111561496a578182fd5b6020830191508360208260051b850101111561498557600080fd5b9250929050565b600082601f83011261499c578081fd5b813560206149a98261576a565b6040516149b6828261587a565b8381528281019150858301600585901b870184018810156149d5578586fd5b855b858110156149f3578135845292840192908401906001016149d7565b5090979650505050505050565b600082601f830112614a10578081fd5b813567ffffffffffffffff811115614a2a57614a2a6158d8565b604051614a41601f8301601f19166020018261587a565b818152846020838601011115614a55578283fd5b816020850160208301379081016020019190915292915050565b60008083601f840112614a80578182fd5b50813567ffffffffffffffff811115614a97578182fd5b60208301915083602082850101111561498557600080fd5b600060208284031215614ac0578081fd5b8135611bb78161598f565b600060208284031215614adc578081fd5b8151611bb78161598f565b60008060408385031215614af9578081fd5b8235614b048161598f565b91506020830135614b148161598f565b809150509250929050565b600080600080600060a08688031215614b36578081fd5b8535614b418161598f565b94506020860135614b518161598f565b9350604086013567ffffffffffffffff80821115614b6d578283fd5b614b7989838a0161498c565b94506060880135915080821115614b8e578283fd5b614b9a89838a0161498c565b93506080880135915080821115614baf578283fd5b50614bbc88828901614a00565b9150509295509295909350565b60008060008060808587031215614bde578384fd5b8435614be98161598f565b93506020850135614bf98161598f565b925060408501359150606085013567ffffffffffffffff811115614c1b578182fd5b614c2787828801614a00565b91505092959194509250565b600080600080600060a08688031215614c4a578283fd5b8535614c558161598f565b94506020860135614c658161598f565b93506040860135925060608601359150608086013567ffffffffffffffff811115614c8e578182fd5b614bbc88828901614a00565b60008060008060008060808789031215614cb2578384fd5b8635614cbd8161598f565b9550602087013567ffffffffffffffff80821115614cd9578586fd5b614ce58a838b01614942565b90975095506040890135915080821115614cfd578283fd5b614d098a838b01614942565b90955093506060890135915080821115614d21578283fd5b50614d2e89828a01614a00565b9150509295509295509295565b600080600060608486031215614d4f578081fd5b8335614d5a8161598f565b9250602084013567ffffffffffffffff80821115614d76578283fd5b614d828783880161498c565b93506040860135915080821115614d97578283fd5b50614da48682870161498c565b9150509250925092565b60008060008060808587031215614dc3578182fd5b8435614dce8161598f565b9350602085013567ffffffffffffffff80821115614dea578384fd5b614df68883890161498c565b94506040870135915080821115614e0b578384fd5b614e178883890161498c565b93506060870135915080821115614e2c578283fd5b50614c2787828801614a00565b60008060408385031215614e4b578182fd5b8235614e568161598f565b91506020830135614b14816159a7565b60008060408385031215614e78578182fd5b8235614e838161598f565b946020939093013593505050565b60008060008060608587031215614ea6578182fd5b8435614eb18161598f565b935060208501359250604085013567ffffffffffffffff811115614ed3578283fd5b614edf87828801614a6f565b95989497509550505050565b600080600060608486031215614eff578081fd5b8335614f0a8161598f565b95602085013595506040909401359392505050565b60008060008060808587031215614f34578182fd5b8435614f3f8161598f565b93506020850135925060408501359150606085013567ffffffffffffffff811115614c1b578182fd5b600080600080600060808688031215614f7f578283fd5b8535614f8a8161598f565b94506020860135935060408601359250606086013567ffffffffffffffff811115614fb3578182fd5b614fbf88828901614a6f565b969995985093965092949392505050565b60008060408385031215614fe2578182fd5b823567ffffffffffffffff80821115614ff9578384fd5b818501915085601f83011261500c578384fd5b813560206150198261576a565b604051615026828261587a565b8381528281019150858301600585901b870184018b1015615045578889fd5b8896505b8487101561507057803561505c8161598f565b835260019690960195918301918301615049565b5096505086013592505080821115615086578283fd5b506150938582860161498c565b9150509250929050565b600080602083850312156150af578182fd5b823567ffffffffffffffff8111156150c5578283fd5b6150d185828601614942565b90969095509350505050565b6000602082840312156150ee578081fd5b8135611bb7816159a7565b60006020828403121561510a578081fd5b8151611bb7816159a7565b600060208284031215615126578081fd5b5035919050565b60006020828403121561513e578081fd5b5051919050565b60008060408385031215615157578182fd5b823591506020830135614b148161598f565b6000806040838503121561517b578182fd5b50508035926020909101359150565b60006020828403121561519b578081fd5b8135611bb7816159b5565b6000602082840312156151b7578081fd5b8151611bb7816159b5565b600080602083850312156151d4578182fd5b823567ffffffffffffffff8111156151ea578283fd5b6150d185828601614a6f565b600060208284031215615207578081fd5b81516001600160801b0381168114611bb7578182fd5b81835260006001600160fb1b03831115615235578081fd5b8260051b80836020870137939093016020019283525090919050565b6000815180845260208085019450808401835b8381101561528057815187529582019590820190600101615264565b509495945050505050565b600081518084526152a38160208601602086016157fc565b601f01601f19169290920160200192915050565b81835281816020850137506000828201602090810191909152601f909101601f19169091010190565b600082516152f28184602087016157fc565b9190910192915050565b7f416363657373436f6e74726f6c3a206163636f756e74200000000000000000008152600083516153348160178501602088016157fc565b7f206973206d697373696e6720726f6c652000000000000000000000000000000060179184019182015283516153718160288401602088016157fc565b01602801949350505050565b60006001600160a01b03808816835280871660208401525060a060408301526153a960a0830186615251565b82810360608401526153bb8186615251565b905082810360808401526153cf818561528b565b98975050505050505050565b60006001600160a01b03808816835280871660208401525084604083015283606083015260a0608083015261541360a083018461528b565b979650505050505050565b6001600160a01b0384168152606060208201526000615440606083018561528b565b90506003831061546057634e487b7160e01b600052602160045260246000fd5b826040830152949350505050565b6000602080830181845280855180835260408601915060408160051b8701019250838701855b828110156154c257603f198886030184526154b085835161528b565b94509285019290850190600101615494565b5092979650505050505050565b602081526000611bb76020830184615251565b6060815260006154f56060830188615251565b602083820381850152818783528183019050818860051b84010189855b8a81101561557e57858303601f190184528135368d9003601e19018112615537578788fd5b8c01803567ffffffffffffffff81111561554f578889fd5b8036038e131561555d578889fd5b61556a85828985016152b7565b958701959450505090840190600101615512565b5050858103604087015261559381888a61521d565b9b9a5050505050505050505050565b6040815260006155b56040830185615251565b82810360208401526155c78185615251565b95945050505050565b602081526000611bb7602083018461528b565b60208082526029908201527f455243313135353a2063616c6c6572206973206e6f74206f776e6572206e6f7260408201526808185c1c1c9bdd995960ba1b606082015260800190565b60208082526045908201527f4e4654436f6c6c656374696f6e3a204f6e6c79206163636f756e74732077697460408201527f68204d494e5445525f524f4c452063616e2063616c6c20746869732066756e636060820152643a34b7b71760d91b608082015260a00190565b60208082526028908201527f455243313135353a2069647320616e6420616d6f756e7473206c656e677468206040820152670dad2e6dac2e8c6d60c31b606082015260800190565b8481528360208201526060604082015260006141e06060830184866152b7565b8581528460208201528360408201526080606082015260006154136080830184866152b7565b6000808335601e1984360301811261573b578283fd5b83018035915067ffffffffffffffff821115615755578283fd5b60200191503681900382131561498557600080fd5b600067ffffffffffffffff821115615784576157846158d8565b5060051b60200190565b600082198211156157a1576157a16158c2565b500190565b6000826157c157634e487b7160e01b81526012600452602481fd5b500490565b60008160001904831182151516156157e0576157e06158c2565b500290565b6000828210156157f7576157f76158c2565b500390565b60005b838110156158175781810151838201526020016157ff565b8381111561184b5750506000910152565b600081615837576158376158c2565b506000190190565b600181811c9082168061585357607f821691505b6020821081141561587457634e487b7160e01b600052602260045260246000fd5b50919050565b601f8201601f1916810167ffffffffffffffff811182821017156158a0576158a06158d8565b6040525050565b60006000198214156158bb576158bb6158c2565b5060010190565b634e487b7160e01b600052601160045260246000fd5b634e487b7160e01b600052604160045260246000fd5b600060033d1115612c7f57600481823e5160e01c90565b600060443d10156159135790565b6040516003193d81016004833e81513d67ffffffffffffffff816024840111818411171561594357505050505090565b828501915081518181111561595b5750505050505090565b843d87010160208285010111156159755750505050505090565b6159846020828601018761587a565b509095945050505050565b6001600160a01b03811681146159a457600080fd5b50565b80151581146159a457600080fd5b6001600160e01b0319811681146159a457600080fdfe416464726573733a206c6f772d6c6576656c2064656c65676174652063616c6c206661696c65649f2df0fed2c77648de5860a4cc508cd0818c85b8b8a1ab4ceeef8d981c8956a6a164736f6c6343000804000a",
  "linkReferences": {},
  "deployedLinkReferences": {}
}