{
  "_format": "hh-sol-artifact-1",
  "contractName": "NFTCollection",
  "sourceName": "contracts/NFTCollection.sol",
  "abi": [
    {
      "inputs": [
        {
          "internalType": "address payable",
          "name": "_controlCenter",
          "type": "address"
        },
        {
          "internalType": "address",
          "name": "_trustedForwarder",
          "type": "address"
        },
        {
          "internalType": "string",
          "name": "_uri",
          "type": "string"
        }
      ],
      "stateMutability": "nonpayable",
      "type": "constructor"
    },
    {
      "anonymous": false,
      "inputs": [
        {
          "indexed": true,
          "internalType": "address",
          "name": "account",
          "type": "address"
        },
        {
          "indexed": true,
          "internalType": "address",
          "name": "operator",
          "type": "address"
        },
        {
          "indexed": false,
          "internalType": "bool",
          "name": "approved",
          "type": "bool"
        }
      ],
      "name": "ApprovalForAll",
      "type": "event"
    },
    {
      "anonymous": false,
      "inputs": [
        {
          "indexed": true,
          "internalType": "address",
          "name": "redeemer",
          "type": "address"
        },
        {
          "indexed": true,
          "internalType": "address",
          "name": "tokenContract",
          "type": "address"
        },
        {
          "indexed": false,
          "internalType": "uint256",
          "name": "tokenAmountReceived",
          "type": "uint256"
        },
        {
          "indexed": false,
          "internalType": "uint256",
          "name": "nftAmountRedeemed",
          "type": "uint256"
        }
      ],
      "name": "ERC20Redeemed",
      "type": "event"
    },
    {
      "anonymous": false,
      "inputs": [
        {
          "indexed": true,
          "internalType": "address",
          "name": "creator",
          "type": "address"
        },
        {
          "indexed": true,
          "internalType": "address",
          "name": "tokenContract",
          "type": "address"
        },
        {
          "indexed": false,
          "internalType": "uint256",
          "name": "tokenAmount",
          "type": "uint256"
        },
        {
          "indexed": false,
          "internalType": "uint256",
          "name": "nftsMinted",
          "type": "uint256"
        },
        {
          "indexed": false,
          "internalType": "string",
          "name": "nftURI",
          "type": "string"
        }
      ],
      "name": "ERC20WrappedNfts",
      "type": "event"
    },
    {
      "anonymous": false,
      "inputs": [
        {
          "indexed": true,
          "internalType": "address",
          "name": "redeemer",
          "type": "address"
        },
        {
          "indexed": true,
          "internalType": "address",
          "name": "nftContract",
          "type": "address"
        },
        {
          "indexed": false,
          "internalType": "uint256",
          "name": "nftTokenId",
          "type": "uint256"
        },
        {
          "indexed": false,
          "internalType": "uint256",
          "name": "nativeNftTokenId",
          "type": "uint256"
        }
      ],
      "name": "ERC721Redeemed",
      "type": "event"
    },
    {
      "anonymous": false,
      "inputs": [
        {
          "indexed": true,
          "internalType": "address",
          "name": "creator",
          "type": "address"
        },
        {
          "indexed": true,
          "internalType": "address",
          "name": "nftContract",
          "type": "address"
        },
        {
          "indexed": false,
          "internalType": "uint256",
          "name": "nftTokenId",
          "type": "uint256"
        },
        {
          "indexed": false,
          "internalType": "uint256",
          "name": "nativeNftTokenId",
          "type": "uint256"
        },
        {
          "indexed": false,
          "internalType": "string",
          "name": "nativeNftURI",
          "type": "string"
        }
      ],
      "name": "ERC721WrappedNft",
      "type": "event"
    },
    {
      "anonymous": false,
      "inputs": [
        {
          "indexed": true,
          "internalType": "address",
          "name": "creator",
          "type": "address"
        },
        {
          "indexed": false,
          "internalType": "uint256[]",
          "name": "nftIds",
          "type": "uint256[]"
        },
        {
          "indexed": false,
          "internalType": "string[]",
          "name": "nftURIs",
          "type": "string[]"
        },
        {
          "indexed": false,
          "internalType": "uint256[]",
          "name": "nftSupplies",
          "type": "uint256[]"
        }
      ],
      "name": "NativeNfts",
      "type": "event"
    },
    {
      "anonymous": false,
      "inputs": [
        {
          "indexed": false,
          "internalType": "address",
          "name": "account",
          "type": "address"
        }
      ],
      "name": "Paused",
      "type": "event"
    },
    {
      "anonymous": false,
      "inputs": [
        {
          "indexed": true,
          "internalType": "bytes32",
          "name": "role",
          "type": "bytes32"
        },
        {
          "indexed": true,
          "internalType": "bytes32",
          "name": "previousAdminRole",
          "type": "bytes32"
        },
        {
          "indexed": true,
          "internalType": "bytes32",
          "name": "newAdminRole",
          "type": "bytes32"
        }
      ],
      "name": "RoleAdminChanged",
      "type": "event"
    },
    {
      "anonymous": false,
      "inputs": [
        {
          "indexed": true,
          "internalType": "bytes32",
          "name": "role",
          "type": "bytes32"
        },
        {
          "indexed": true,
          "internalType": "address",
          "name": "account",
          "type": "address"
        },
        {
          "indexed": true,
          "internalType": "address",
          "name": "sender",
          "type": "address"
        }
      ],
      "name": "RoleGranted",
      "type": "event"
    },
    {
      "anonymous": false,
      "inputs": [
        {
          "indexed": true,
          "internalType": "bytes32",
          "name": "role",
          "type": "bytes32"
        },
        {
          "indexed": true,
          "internalType": "address",
          "name": "account",
          "type": "address"
        },
        {
          "indexed": true,
          "internalType": "address",
          "name": "sender",
          "type": "address"
        }
      ],
      "name": "RoleRevoked",
      "type": "event"
    },
    {
      "anonymous": false,
      "inputs": [
        {
          "indexed": false,
          "internalType": "uint256",
          "name": "royaltyBps",
          "type": "uint256"
        }
      ],
      "name": "RoyaltyUpdated",
      "type": "event"
    },
    {
      "anonymous": false,
      "inputs": [
        {
          "indexed": true,
          "internalType": "address",
          "name": "operator",
          "type": "address"
        },
        {
          "indexed": true,
          "internalType": "address",
          "name": "from",
          "type": "address"
        },
        {
          "indexed": true,
          "internalType": "address",
          "name": "to",
          "type": "address"
        },
        {
          "indexed": false,
          "internalType": "uint256[]",
          "name": "ids",
          "type": "uint256[]"
        },
        {
          "indexed": false,
          "internalType": "uint256[]",
          "name": "values",
          "type": "uint256[]"
        }
      ],
      "name": "TransferBatch",
      "type": "event"
    },
    {
      "anonymous": false,
      "inputs": [
        {
          "indexed": true,
          "internalType": "address",
          "name": "operator",
          "type": "address"
        },
        {
          "indexed": true,
          "internalType": "address",
          "name": "from",
          "type": "address"
        },
        {
          "indexed": true,
          "internalType": "address",
          "name": "to",
          "type": "address"
        },
        {
          "indexed": false,
          "internalType": "uint256",
          "name": "id",
          "type": "uint256"
        },
        {
          "indexed": false,
          "internalType": "uint256",
          "name": "value",
          "type": "uint256"
        }
      ],
      "name": "TransferSingle",
      "type": "event"
    },
    {
      "anonymous": false,
      "inputs": [
        {
          "indexed": false,
          "internalType": "string",
          "name": "value",
          "type": "string"
        },
        {
          "indexed": true,
          "internalType": "uint256",
          "name": "id",
          "type": "uint256"
        }
      ],
      "name": "URI",
      "type": "event"
    },
    {
      "anonymous": false,
      "inputs": [
        {
          "indexed": false,
          "internalType": "address",
          "name": "account",
          "type": "address"
        }
      ],
      "name": "Unpaused",
      "type": "event"
    },
    {
      "inputs": [],
      "name": "DEFAULT_ADMIN_ROLE",
      "outputs": [
        {
          "internalType": "bytes32",
          "name": "",
          "type": "bytes32"
        }
      ],
      "stateMutability": "view",
      "type": "function"
    },
    {
      "inputs": [],
      "name": "MINTER_ROLE",
      "outputs": [
        {
          "internalType": "bytes32",
          "name": "",
          "type": "bytes32"
        }
      ],
      "stateMutability": "view",
      "type": "function"
    },
    {
      "inputs": [],
      "name": "PAUSER_ROLE",
      "outputs": [
        {
          "internalType": "bytes32",
          "name": "",
          "type": "bytes32"
        }
      ],
      "stateMutability": "view",
      "type": "function"
    },
    {
      "inputs": [],
      "name": "TRANSFER_ROLE",
      "outputs": [
        {
          "internalType": "bytes32",
          "name": "",
          "type": "bytes32"
        }
      ],
      "stateMutability": "view",
      "type": "function"
    },
    {
      "inputs": [],
      "name": "_contractURI",
      "outputs": [
        {
          "internalType": "string",
          "name": "",
          "type": "string"
        }
      ],
      "stateMutability": "view",
      "type": "function"
    },
    {
      "inputs": [
        {
          "internalType": "address",
          "name": "account",
          "type": "address"
        },
        {
          "internalType": "uint256",
          "name": "id",
          "type": "uint256"
        }
      ],
      "name": "balanceOf",
      "outputs": [
        {
          "internalType": "uint256",
          "name": "",
          "type": "uint256"
        }
      ],
      "stateMutability": "view",
      "type": "function"
    },
    {
      "inputs": [
        {
          "internalType": "address[]",
          "name": "accounts",
          "type": "address[]"
        },
        {
          "internalType": "uint256[]",
          "name": "ids",
          "type": "uint256[]"
        }
      ],
      "name": "balanceOfBatch",
      "outputs": [
        {
          "internalType": "uint256[]",
          "name": "",
          "type": "uint256[]"
        }
      ],
      "stateMutability": "view",
      "type": "function"
    },
    {
      "inputs": [
        {
          "internalType": "address",
          "name": "account",
          "type": "address"
        },
        {
          "internalType": "uint256",
          "name": "id",
          "type": "uint256"
        },
        {
          "internalType": "uint256",
          "name": "value",
          "type": "uint256"
        }
      ],
      "name": "burn",
      "outputs": [],
      "stateMutability": "nonpayable",
      "type": "function"
    },
    {
      "inputs": [
        {
          "internalType": "address",
          "name": "account",
          "type": "address"
        },
        {
          "internalType": "uint256[]",
          "name": "ids",
          "type": "uint256[]"
        },
        {
          "internalType": "uint256[]",
          "name": "values",
          "type": "uint256[]"
        }
      ],
      "name": "burnBatch",
      "outputs": [],
      "stateMutability": "nonpayable",
      "type": "function"
    },
    {
      "inputs": [],
      "name": "contractURI",
      "outputs": [
        {
          "internalType": "string",
          "name": "",
          "type": "string"
        }
      ],
      "stateMutability": "view",
      "type": "function"
    },
    {
      "inputs": [
        {
          "internalType": "string[]",
          "name": "_nftURIs",
          "type": "string[]"
        },
        {
          "internalType": "uint256[]",
          "name": "_nftSupplies",
          "type": "uint256[]"
        }
      ],
      "name": "createNativeNfts",
      "outputs": [
        {
          "internalType": "uint256[]",
          "name": "nftIds",
          "type": "uint256[]"
        }
      ],
      "stateMutability": "nonpayable",
      "type": "function"
    },
    {
      "inputs": [
        {
          "internalType": "address",
          "name": "_pack",
          "type": "address"
        },
        {
          "internalType": "string[]",
          "name": "_nftURIs",
          "type": "string[]"
        },
        {
          "internalType": "uint256[]",
          "name": "_nftSupplies",
          "type": "uint256[]"
        },
        {
          "internalType": "string",
          "name": "_packURI",
          "type": "string"
        },
        {
          "internalType": "uint256",
          "name": "_secondsUntilOpenStart",
          "type": "uint256"
        },
        {
          "internalType": "uint256",
          "name": "_secondsUntilOpenEnd",
          "type": "uint256"
        },
        {
          "internalType": "uint256",
          "name": "_nftsPerOpen",
          "type": "uint256"
        }
      ],
      "name": "createPackAtomic",
      "outputs": [],
      "stateMutability": "nonpayable",
      "type": "function"
    },
    {
      "inputs": [
        {
          "internalType": "uint256",
          "name": "_nftId",
          "type": "uint256"
        }
      ],
      "name": "creator",
      "outputs": [
        {
          "internalType": "address",
          "name": "",
          "type": "address"
        }
      ],
      "stateMutability": "view",
      "type": "function"
    },
    {
      "inputs": [
        {
          "internalType": "uint256",
          "name": "",
          "type": "uint256"
        }
      ],
      "name": "erc20WrappedNfts",
      "outputs": [
        {
          "internalType": "address",
          "name": "tokenContract",
          "type": "address"
        },
        {
          "internalType": "uint256",
          "name": "shares",
          "type": "uint256"
        },
        {
          "internalType": "uint256",
          "name": "underlyingTokenAmount",
          "type": "uint256"
        }
      ],
      "stateMutability": "view",
      "type": "function"
    },
    {
      "inputs": [
        {
          "internalType": "uint256",
          "name": "",
          "type": "uint256"
        }
      ],
      "name": "erc721WrappedNfts",
      "outputs": [
        {
          "internalType": "address",
          "name": "nftContract",
          "type": "address"
        },
        {
          "internalType": "uint256",
          "name": "nftTokenId",
          "type": "uint256"
        }
      ],
      "stateMutability": "view",
      "type": "function"
    },
    {
      "inputs": [
        {
          "internalType": "bytes32",
          "name": "role",
          "type": "bytes32"
        }
      ],
      "name": "getRoleAdmin",
      "outputs": [
        {
          "internalType": "bytes32",
          "name": "",
          "type": "bytes32"
        }
      ],
      "stateMutability": "view",
      "type": "function"
    },
    {
      "inputs": [
        {
          "internalType": "bytes32",
          "name": "role",
          "type": "bytes32"
        },
        {
          "internalType": "uint256",
          "name": "index",
          "type": "uint256"
        }
      ],
      "name": "getRoleMember",
      "outputs": [
        {
          "internalType": "address",
          "name": "",
          "type": "address"
        }
      ],
      "stateMutability": "view",
      "type": "function"
    },
    {
      "inputs": [
        {
          "internalType": "bytes32",
          "name": "role",
          "type": "bytes32"
        }
      ],
      "name": "getRoleMemberCount",
      "outputs": [
        {
          "internalType": "uint256",
          "name": "",
          "type": "uint256"
        }
      ],
      "stateMutability": "view",
      "type": "function"
    },
    {
      "inputs": [
        {
          "internalType": "bytes32",
          "name": "role",
          "type": "bytes32"
        },
        {
          "internalType": "address",
          "name": "account",
          "type": "address"
        }
      ],
      "name": "grantRole",
      "outputs": [],
      "stateMutability": "nonpayable",
      "type": "function"
    },
    {
      "inputs": [
        {
          "internalType": "bytes32",
          "name": "role",
          "type": "bytes32"
        },
        {
          "internalType": "address",
          "name": "account",
          "type": "address"
        }
      ],
      "name": "hasRole",
      "outputs": [
        {
          "internalType": "bool",
          "name": "",
          "type": "bool"
        }
      ],
      "stateMutability": "view",
      "type": "function"
    },
    {
      "inputs": [
        {
          "internalType": "address",
          "name": "account",
          "type": "address"
        },
        {
          "internalType": "address",
          "name": "operator",
          "type": "address"
        }
      ],
      "name": "isApprovedForAll",
      "outputs": [
        {
          "internalType": "bool",
          "name": "",
          "type": "bool"
        }
      ],
      "stateMutability": "view",
      "type": "function"
    },
    {
      "inputs": [],
      "name": "isRestrictedTransfer",
      "outputs": [
        {
          "internalType": "bool",
          "name": "",
          "type": "bool"
        }
      ],
      "stateMutability": "view",
      "type": "function"
    },
    {
      "inputs": [
        {
          "internalType": "address",
          "name": "forwarder",
          "type": "address"
        }
      ],
      "name": "isTrustedForwarder",
      "outputs": [
        {
          "internalType": "bool",
          "name": "",
          "type": "bool"
        }
      ],
      "stateMutability": "view",
      "type": "function"
    },
    {
      "inputs": [
        {
          "internalType": "address",
          "name": "to",
          "type": "address"
        },
        {
          "internalType": "uint256",
          "name": "id",
          "type": "uint256"
        },
        {
          "internalType": "uint256",
          "name": "amount",
          "type": "uint256"
        },
        {
          "internalType": "bytes",
          "name": "data",
          "type": "bytes"
        }
      ],
      "name": "mint",
      "outputs": [],
      "stateMutability": "nonpayable",
      "type": "function"
    },
    {
      "inputs": [
        {
          "internalType": "address",
          "name": "to",
          "type": "address"
        },
        {
          "internalType": "uint256[]",
          "name": "ids",
          "type": "uint256[]"
        },
        {
          "internalType": "uint256[]",
          "name": "amounts",
          "type": "uint256[]"
        },
        {
          "internalType": "bytes",
          "name": "data",
          "type": "bytes"
        }
      ],
      "name": "mintBatch",
      "outputs": [],
      "stateMutability": "nonpayable",
      "type": "function"
    },
    {
      "inputs": [],
      "name": "nextTokenId",
      "outputs": [
        {
          "internalType": "uint256",
          "name": "",
          "type": "uint256"
        }
      ],
      "stateMutability": "view",
      "type": "function"
    },
    {
      "inputs": [
        {
          "internalType": "uint256",
          "name": "",
          "type": "uint256"
        }
      ],
      "name": "nftInfo",
      "outputs": [
        {
          "internalType": "address",
          "name": "creator",
          "type": "address"
        },
        {
          "internalType": "string",
          "name": "uri",
          "type": "string"
        },
        {
          "internalType": "enum NFTCollection.UnderlyingType",
          "name": "underlyingType",
          "type": "uint8"
        }
      ],
      "stateMutability": "view",
      "type": "function"
    },
    {
      "inputs": [
        {
          "internalType": "address",
          "name": "",
          "type": "address"
        },
        {
          "internalType": "address",
          "name": "",
          "type": "address"
        },
        {
          "internalType": "uint256[]",
          "name": "",
          "type": "uint256[]"
        },
        {
          "internalType": "uint256[]",
          "name": "",
          "type": "uint256[]"
        },
        {
          "internalType": "bytes",
          "name": "",
          "type": "bytes"
        }
      ],
      "name": "onERC1155BatchReceived",
      "outputs": [
        {
          "internalType": "bytes4",
          "name": "",
          "type": "bytes4"
        }
      ],
      "stateMutability": "nonpayable",
      "type": "function"
    },
    {
      "inputs": [
        {
          "internalType": "address",
          "name": "",
          "type": "address"
        },
        {
          "internalType": "address",
          "name": "",
          "type": "address"
        },
        {
          "internalType": "uint256",
          "name": "",
          "type": "uint256"
        },
        {
          "internalType": "uint256",
          "name": "",
          "type": "uint256"
        },
        {
          "internalType": "bytes",
          "name": "",
          "type": "bytes"
        }
      ],
      "name": "onERC1155Received",
      "outputs": [
        {
          "internalType": "bytes4",
          "name": "",
          "type": "bytes4"
        }
      ],
      "stateMutability": "nonpayable",
      "type": "function"
    },
    {
      "inputs": [
        {
          "internalType": "address",
          "name": "",
          "type": "address"
        },
        {
          "internalType": "address",
          "name": "",
          "type": "address"
        },
        {
          "internalType": "uint256",
          "name": "",
          "type": "uint256"
        },
        {
          "internalType": "bytes",
          "name": "",
          "type": "bytes"
        }
      ],
      "name": "onERC721Received",
      "outputs": [
        {
          "internalType": "bytes4",
          "name": "",
          "type": "bytes4"
        }
      ],
      "stateMutability": "nonpayable",
      "type": "function"
    },
    {
      "inputs": [],
      "name": "pause",
      "outputs": [],
      "stateMutability": "nonpayable",
      "type": "function"
    },
    {
      "inputs": [],
      "name": "paused",
      "outputs": [
        {
          "internalType": "bool",
          "name": "",
          "type": "bool"
        }
      ],
      "stateMutability": "view",
      "type": "function"
    },
    {
      "inputs": [
        {
          "internalType": "uint256",
          "name": "_nftId",
          "type": "uint256"
        },
        {
          "internalType": "uint256",
          "name": "_amount",
          "type": "uint256"
        }
      ],
      "name": "redeemERC20",
      "outputs": [],
      "stateMutability": "nonpayable",
      "type": "function"
    },
    {
      "inputs": [
        {
          "internalType": "uint256",
          "name": "_nftId",
          "type": "uint256"
        }
      ],
      "name": "redeemERC721",
      "outputs": [],
      "stateMutability": "nonpayable",
      "type": "function"
    },
    {
      "inputs": [
        {
          "internalType": "bytes32",
          "name": "role",
          "type": "bytes32"
        },
        {
          "internalType": "address",
          "name": "account",
          "type": "address"
        }
      ],
      "name": "renounceRole",
      "outputs": [],
      "stateMutability": "nonpayable",
      "type": "function"
    },
    {
      "inputs": [
        {
          "internalType": "bytes32",
          "name": "role",
          "type": "bytes32"
        },
        {
          "internalType": "address",
          "name": "account",
          "type": "address"
        }
      ],
      "name": "revokeRole",
      "outputs": [],
      "stateMutability": "nonpayable",
      "type": "function"
    },
    {
      "inputs": [],
      "name": "royaltyBps",
      "outputs": [
        {
          "internalType": "uint256",
          "name": "",
          "type": "uint256"
        }
      ],
      "stateMutability": "view",
      "type": "function"
    },
    {
      "inputs": [
        {
          "internalType": "uint256",
          "name": "",
          "type": "uint256"
        },
        {
          "internalType": "uint256",
          "name": "salePrice",
          "type": "uint256"
        }
      ],
      "name": "royaltyInfo",
      "outputs": [
        {
          "internalType": "address",
          "name": "receiver",
          "type": "address"
        },
        {
          "internalType": "uint256",
          "name": "royaltyAmount",
          "type": "uint256"
        }
      ],
      "stateMutability": "view",
      "type": "function"
    },
    {
      "inputs": [
        {
          "internalType": "address",
          "name": "from",
          "type": "address"
        },
        {
          "internalType": "address",
          "name": "to",
          "type": "address"
        },
        {
          "internalType": "uint256[]",
          "name": "ids",
          "type": "uint256[]"
        },
        {
          "internalType": "uint256[]",
          "name": "amounts",
          "type": "uint256[]"
        },
        {
          "internalType": "bytes",
          "name": "data",
          "type": "bytes"
        }
      ],
      "name": "safeBatchTransferFrom",
      "outputs": [],
      "stateMutability": "nonpayable",
      "type": "function"
    },
    {
      "inputs": [
        {
          "internalType": "address",
          "name": "from",
          "type": "address"
        },
        {
          "internalType": "address",
          "name": "to",
          "type": "address"
        },
        {
          "internalType": "uint256",
          "name": "id",
          "type": "uint256"
        },
        {
          "internalType": "uint256",
          "name": "amount",
          "type": "uint256"
        },
        {
          "internalType": "bytes",
          "name": "data",
          "type": "bytes"
        }
      ],
      "name": "safeTransferFrom",
      "outputs": [],
      "stateMutability": "nonpayable",
      "type": "function"
    },
    {
      "inputs": [
        {
          "internalType": "address",
          "name": "operator",
          "type": "address"
        },
        {
          "internalType": "bool",
          "name": "approved",
          "type": "bool"
        }
      ],
      "name": "setApprovalForAll",
      "outputs": [],
      "stateMutability": "nonpayable",
      "type": "function"
    },
    {
      "inputs": [
        {
          "internalType": "string",
          "name": "_URI",
          "type": "string"
        }
      ],
      "name": "setContractURI",
      "outputs": [],
      "stateMutability": "nonpayable",
      "type": "function"
    },
    {
      "inputs": [
        {
          "internalType": "bool",
          "name": "_restrictedTransfer",
          "type": "bool"
        }
      ],
      "name": "setRestrictedTransfer",
      "outputs": [],
      "stateMutability": "nonpayable",
      "type": "function"
    },
    {
      "inputs": [
        {
          "internalType": "uint256",
          "name": "_royaltyBps",
          "type": "uint256"
        }
      ],
      "name": "setRoyaltyBps",
      "outputs": [],
      "stateMutability": "nonpayable",
      "type": "function"
    },
    {
      "inputs": [
        {
          "internalType": "bytes4",
          "name": "interfaceId",
          "type": "bytes4"
        }
      ],
      "name": "supportsInterface",
      "outputs": [
        {
          "internalType": "bool",
          "name": "",
          "type": "bool"
        }
      ],
      "stateMutability": "view",
      "type": "function"
    },
    {
      "inputs": [
        {
          "internalType": "uint256",
          "name": "_nftId",
          "type": "uint256"
        }
      ],
      "name": "tokenURI",
      "outputs": [
        {
          "internalType": "string",
          "name": "",
          "type": "string"
        }
      ],
      "stateMutability": "view",
      "type": "function"
    },
    {
      "inputs": [
        {
          "internalType": "uint256",
          "name": "id",
          "type": "uint256"
        }
      ],
      "name": "totalSupply",
      "outputs": [
        {
          "internalType": "uint256",
          "name": "",
          "type": "uint256"
        }
      ],
      "stateMutability": "view",
      "type": "function"
    },
    {
      "inputs": [],
      "name": "unpause",
      "outputs": [],
      "stateMutability": "nonpayable",
      "type": "function"
    },
    {
      "inputs": [
        {
          "internalType": "uint256",
          "name": "_nftId",
          "type": "uint256"
        }
      ],
      "name": "uri",
      "outputs": [
        {
          "internalType": "string",
          "name": "",
          "type": "string"
        }
      ],
      "stateMutability": "view",
      "type": "function"
    },
    {
      "inputs": [
        {
          "internalType": "address",
          "name": "_tokenContract",
          "type": "address"
        },
        {
          "internalType": "uint256",
          "name": "_tokenAmount",
          "type": "uint256"
        },
        {
          "internalType": "uint256",
          "name": "_numOfNftsToMint",
          "type": "uint256"
        },
        {
          "internalType": "string",
          "name": "_nftURI",
          "type": "string"
        }
      ],
      "name": "wrapERC20",
      "outputs": [],
      "stateMutability": "nonpayable",
      "type": "function"
    },
    {
      "inputs": [
        {
          "internalType": "address",
          "name": "_nftContract",
          "type": "address"
        },
        {
          "internalType": "uint256",
          "name": "_tokenId",
          "type": "uint256"
        },
        {
          "internalType": "string",
          "name": "_nftURI",
          "type": "string"
        }
      ],
      "name": "wrapERC721",
      "outputs": [],
      "stateMutability": "nonpayable",
      "type": "function"
    }
  ],
  "bytecode": "0x60806040523480156200001157600080fd5b50604051620062a2380380620062a28339810160408190526200003491620003fc565b81818062000042816200013f565b506005805460ff191690556200006360006200005d62000158565b62000175565b620000927f9f2df0fed2c77648de5860a4cc508cd0818c85b8b8a1ab4ceeef8d981c8956a66200005d62000158565b620000c17f65d7a28e3265b37a6474929f336521b332c1681b933f6cb9f3376673440d862a6200005d62000158565b50600780546001600160a01b03199081166001600160a01b03938416179091556008805490911691851691909117905580516200010690600b90602084019062000356565b50620001367f8502233096d909befbda0999bb8ea2f3a6be3c138b9fbf003752a4c8bce86f6c6200005d62000158565b50505062000565565b80516200015490600490602084019062000356565b5050565b60006200016f620001b860201b620029c71760201c565b90505b90565b6200018c8282620001f860201b620029f51760201c565b6000828152600160209081526040909120620001b391839062002a0362000204821b17901c565b505050565b6000620001c53362000224565b15620001db575060131936013560601c62000172565b620001f06200023860201b62002a181760201c565b905062000172565b6200015482826200023c565b60006200021b836001600160a01b038416620002c6565b90505b92915050565b6007546001600160a01b0390811691161490565b3390565b62000248828262000315565b62000154576000828152602081815260408083206001600160a01b03851684529091529020805460ff191660011790556200028262000158565b6001600160a01b0316816001600160a01b0316837f2f8788117e7eff1d82e926ec794901d17c78024a50270940304540a733656f0d60405160405180910390a45050565b6000620002d483836200033e565b6200030c575081546001818101845560008481526020808220909301849055845484825282860190935260409020919091556200021e565b5060006200021e565b6000918252602082815260408084206001600160a01b0393909316845291905290205460ff1690565b60009081526001919091016020526040902054151590565b8280546200036490620004f9565b90600052602060002090601f016020900481019282620003885760008555620003d3565b82601f10620003a357805160ff1916838001178555620003d3565b82800160010185558215620003d3579182015b82811115620003d3578251825591602001919060010190620003b6565b50620003e1929150620003e5565b5090565b5b80821115620003e15760008155600101620003e6565b60008060006060848603121562000411578283fd5b83516200041e816200054c565b8093505060208085015162000433816200054c565b60408601519093506001600160401b038082111562000450578384fd5b818701915087601f83011262000464578384fd5b81518181111562000479576200047962000536565b604051601f8201601f19168101850183811182821017156200049f576200049f62000536565b60405281815283820185018a1015620004b6578586fd5b8592505b81831015620004d95783830185015181840186015291840191620004ba565b81831115620004ea57858583830101525b80955050505050509250925092565b6002810460018216806200050e57607f821691505b602082108114156200053057634e487b7160e01b600052602260045260246000fd5b50919050565b634e487b7160e01b600052604160045260246000fd5b6001600160a01b03811681146200056257600080fd5b50565b615d2d80620005756000396000f3fe608060405234801561001057600080fd5b50600436106103405760003560e01c80637a61080b116101bd578063c63adb2b116100f9578063ddfa3e22116100a2578063e985e9c51161007c578063e985e9c5146106b0578063f23a6e61146106c3578063f242432a146106d6578063f5298aca146106e957610340565b8063ddfa3e221461068d578063e63ab1e9146106a0578063e8a3d485146106a857610340565b8063d5391393116100d3578063d53913931461065f578063d547741f14610667578063db884b0c1461067a57610340565b8063c63adb2b14610644578063c87b56dd146103a3578063ca15c8731461064c57610340565b8063938e3d7b11610166578063a22cb46511610140578063a22cb46514610603578063bc197c8114610616578063bd85b03914610629578063c0e727401461063c57610340565b8063938e3d7b146105d557806393b778d4146105e8578063a217fddf146105fb57610340565b80638ba448c2116101975780638ba448c21461059c5780639010d07c146105af57806391d14854146105c257610340565b80637a61080b1461057957806383661b291461058c5780638456cb591461059457610340565b80632eb2c2d61161028c578063510b5158116102355780636b20c4541161020f5780636b20c45414610538578063731133e91461054b57806375794a3c1461055e578063788f1f5e1461056657610340565b8063510b5158146104fd578063572b6c051461051d5780635c975abb1461053057610340565b80633f4ba83a116102665780633f4ba83a146104c257806341466a95146104ca5780634e1273f4146104ea57610340565b80632eb2c2d6146104895780632f2ff15d1461049c57806336568abe146104af57610340565b80631f72d831116102ee578063206b60f9116102c8578063206b60f91461044d578063248a9ca3146104555780632a55205a1461046857610340565b80631f72d831146104055780631f7fdffa146104185780631f8bc7901461042b57610340565b80630e89341c1161031f5780630e89341c146103a3578063150b7a02146103c35780631ceb2dc2146103e357610340565b8062fdd58e1461034557806301ffc9a71461036e578063090a32821461038e575b600080fd5b61035861035336600461453b565b6106fc565b6040516103659190614cfd565b60405180910390f35b61038161037c36600461486f565b610758565b6040516103659190614cf2565b6103a161039c366004614566565b610783565b005b6103b66103b13660046147fa565b610c7b565b6040516103659190614d63565b6103d66103d136600461427c565b610d20565b6040516103659190614d1d565b6103f66103f13660046147fa565b610d30565b60405161036593929190614bd1565b6103a16104133660046147fa565b610d5b565b6103a1610426366004614483565b610ff7565b61043e6104393660046147fa565b611126565b60405161036593929190614b68565b6103586111de565b6103586104633660046147fa565b611202565b61047b61047636600461484e565b611217565b604051610365929190614bb8565b6103a16104973660046141d2565b61135b565b6103a16104aa36600461482a565b6113b9565b6103a16104bd36600461482a565b6113e0565b6103a1611402565b6104dd6104d8366004614765565b611454565b6040516103659190614bf2565b6104dd6104f83660046146a5565b6117e7565b61051061050b3660046147fa565b611907565b6040516103659190614a75565b61038161052b366004614162565b611922565b610381611936565b6103a1610546366004614410565b611940565b6103a16105593660046145f4565b611995565b610358611a1a565b6103a161057436600461434d565b611a20565b6103a161058736600461484e565b611b9d565b610381611d28565b6103a1611d38565b6103a16105aa3660046147c2565b611d88565b6105106105bd36600461484e565b611ed7565b6103816105d036600461482a565b611ef6565b6103a16105e33660046148a7565b611f1f565b6103a16105f63660046147fa565b612041565b61035861218e565b6103a161061136600461450e565b612193565b6103d66106243660046141d2565b612261565b6103586106373660046147fa565b612272565b6103b6612284565b610358612312565b61035861065a3660046147fa565b612318565b61035861232f565b6103a161067536600461482a565b612353565b6103a161068836600461463d565b61235d565b61047b61069b3660046147fa565b612801565b610358612826565b6103b661284a565b6103816106be36600461419a565b6128dc565b6103d66106d13660046142e6565b61290a565b6103a16106e43660046142e6565b61291b565b6103a16106f73660046145c0565b612972565b60006001600160a01b03831661072d5760405162461bcd60e51b815260040161072490614ef9565b60405180910390fd5b5060008181526002602090815260408083206001600160a01b03861684529091529020545b92915050565b600061076382612a1c565b8061075257506001600160e01b0319821663152a902d60e11b1492915050565b600860009054906101000a90046001600160a01b03166001600160a01b0316639d2f83f06040518163ffffffff1660e01b815260040160206040518083038186803b1580156107d157600080fd5b505afa1580156107e5573d6000803e3d6000fd5b505050506040513d601f19601f8201168201806040525081019061080991906147de565b156108265760405162461bcd60e51b81526004016107249061555d565b6108527f9f2df0fed2c77648de5860a4cc508cd0818c85b8b8a1ab4ceeef8d981c8956a66105d0612a27565b61086e5760405162461bcd60e51b815260040161072490615380565b610876612a27565b6001600160a01b0316846001600160a01b0316636352211e856040518263ffffffff1660e01b81526004016108ab9190614cfd565b60206040518083038186803b1580156108c357600080fd5b505afa1580156108d7573d6000803e3d6000fd5b505050506040513d601f19601f820116820180604052508101906108fb919061417e565b6001600160a01b0316146109215760405162461bcd60e51b815260040161072490615852565b60405163020604bf60e21b815230906001600160a01b0386169063081812fc9061094f908790600401614cfd565b60206040518083038186803b15801561096757600080fd5b505afa15801561097b573d6000803e3d6000fd5b505050506040513d601f19601f8201168201806040525081019061099f919061417e565b6001600160a01b03161480610a345750836001600160a01b031663e985e9c56109c6612a27565b306040518363ffffffff1660e01b81526004016109e4929190614a89565b60206040518083038186803b1580156109fc57600080fd5b505afa158015610a10573d6000803e3d6000fd5b505050506040513d601f19601f82011682018060405250810190610a3491906147de565b610a505760405162461bcd60e51b815260040161072490615054565b836001600160a01b03166342842e0e610a67612a27565b30866040518463ffffffff1660e01b8152600401610a8793929190614b01565b600060405180830381600087803b158015610aa157600080fd5b505af1158015610ab5573d6000803e3d6000fd5b50505050610ade610ac4612a27565b600954600160405180602001604052806000815250612a36565b6040518060600160405280610af1612a27565b6001600160a01b0316815260200183838080601f016020809104026020016040519081016040528093929190818152602001838380828437600092018290525093855250506002602093840152506009548152600c825260409020825181546001600160a01b0319166001600160a01b039091161781558282015180519192610b8292600185019290910190613ef5565b5060408201518160020160006101000a81548160ff02191690836002811115610bbb57634e487b7160e01b600052602160045260246000fd5b0217905550506040805180820182526001600160a01b0387811680835260208084018981526009546000908152600d909252949020925183546001600160a01b031916921691909117825591516001909101559050610c18612a27565b6001600160a01b03167fdae1779be741094a20f8287fd2c7a4d2d745eeae29c438867017066ae27a1bc4856009548686604051610c589493929190615a15565b60405180910390a360098054906000610c7083615bf2565b919050555050505050565b6000818152600c60205260409020600101805460609190610c9b90615bb7565b80601f0160208091040260200160405190810160405280929190818152602001828054610cc790615bb7565b8015610d145780601f10610ce957610100808354040283529160200191610d14565b820191906000526020600020905b815481529060010190602001808311610cf757829003601f168201915b50505050509050919050565b630a85bd0160e11b949350505050565b600e602052600090815260409020805460018201546002909201546001600160a01b03909116919083565b60085460408051634a32c6bf60e11b815290516001600160a01b03909216916391d148549183916394658d7e91600480820192602092909190829003018186803b158015610da857600080fd5b505afa158015610dbc573d6000803e3d6000fd5b505050506040513d601f19601f82011682018060405250810190610de09190614812565b610de8612a27565b6040518363ffffffff1660e01b8152600401610e05929190614d06565b60206040518083038186803b158015610e1d57600080fd5b505afa158015610e31573d6000803e3d6000fd5b505050506040513d601f19601f82011682018060405250810190610e5591906147de565b610e715760405162461bcd60e51b8152600401610724906156de565b600860009054906101000a90046001600160a01b03166001600160a01b0316635cd423156040518163ffffffff1660e01b815260040160206040518083038186803b158015610ebf57600080fd5b505afa158015610ed3573d6000803e3d6000fd5b505050506040513d601f19601f82011682018060405250810190610ef791906148e7565b600860009054906101000a90046001600160a01b03166001600160a01b031663fd967f476040518163ffffffff1660e01b815260040160206040518083038186803b158015610f4557600080fd5b505afa158015610f59573d6000803e3d6000fd5b505050506040513d601f19601f82011682018060405250810190610f7d91906148e7565b610f879190615ad2565b6fffffffffffffffffffffffffffffffff168110610fb75760405162461bcd60e51b815260040161072490615500565b600a8190556040517f244ea8d7627f5a08f4299862bd5a45752842c183aee5b0fb0d1e4887bfa605b390610fec908390614cfd565b60405180910390a150565b60018060005b85518110156110d75760095486828151811061102957634e487b7160e01b600052603260045260246000fd5b60200260200101511015801561103c5750825b1561104657600092505b6000600c600088848151811061106c57634e487b7160e01b600052603260045260246000fd5b6020026020010151815260200190815260200160002060020160009054906101000a900460ff1660028111156110b257634e487b7160e01b600052602160045260246000fd5b141580156110bd5750815b156110c757600091505b6110d081615bf2565b9050610ffd565b50816110f55760405162461bcd60e51b815260040161072490614e9c565b806111125760405162461bcd60e51b815260040161072490614f56565b61111e86868686612a6b565b505050505050565b600c60205260009081526040902080546001820180546001600160a01b03909216929161115290615bb7565b80601f016020809104026020016040519081016040528092919081815260200182805461117e90615bb7565b80156111cb5780601f106111a0576101008083540402835291602001916111cb565b820191906000526020600020905b8154815290600101906020018083116111ae57829003601f168201915b5050506002909301549192505060ff1683565b7f8502233096d909befbda0999bb8ea2f3a6be3c138b9fbf003752a4c8bce86f6c81565b60009081526020819052604090206001015490565b600080600860009054906101000a90046001600160a01b03166001600160a01b0316630f603ed36040518163ffffffff1660e01b815260040160206040518083038186803b15801561126857600080fd5b505afa15801561127c573d6000803e3d6000fd5b505050506040513d601f19601f820116820180604052508101906112a0919061417e565b9150600860009054906101000a90046001600160a01b03166001600160a01b031663fd967f476040518163ffffffff1660e01b815260040160206040518083038186803b1580156112f057600080fd5b505afa158015611304573d6000803e3d6000fd5b505050506040513d601f19601f8201168201806040525081019061132891906148e7565b6fffffffffffffffffffffffffffffffff16600a54846113489190615b3e565b6113529190615b1e565b90509250929050565b611363612a27565b6001600160a01b0316856001600160a01b031614806113895750611389856106be612a27565b6113a55760405162461bcd60e51b815260040161072490615323565b6113b28585858585612abf565b5050505050565b6113c38282612c8b565b60008281526001602052604090206113db9082612a03565b505050565b6113ea8282612caf565b60008281526001602052604090206113db9082612cf1565b61142e7f65d7a28e3265b37a6474929f336521b332c1681b933f6cb9f3376673440d862a6105d0612a27565b61144a5760405162461bcd60e51b815260040161072490615624565b611452612d06565b565b600854604080516309d2f83f60e41b815290516060926001600160a01b031691639d2f83f0916004808301926020929190829003018186803b15801561149957600080fd5b505afa1580156114ad573d6000803e3d6000fd5b505050506040513d601f19601f820116820180604052508101906114d191906147de565b156114ee5760405162461bcd60e51b81526004016107249061555d565b61151a7f9f2df0fed2c77648de5860a4cc508cd0818c85b8b8a1ab4ceeef8d981c8956a66105d0612a27565b6115365760405162461bcd60e51b815260040161072490615380565b8382146115555760405162461bcd60e51b8152600401610724906151c9565b836115725760405162461bcd60e51b8152600401610724906158af565b8367ffffffffffffffff81111561159957634e487b7160e01b600052604160045260246000fd5b6040519080825280602002602001820160405280156115c2578160200160208202803683370190505b50905060005b8481101561173b576009548282815181106115f357634e487b7160e01b600052603260045260246000fd5b6020026020010181815250506040518060600160405280611612612a27565b6001600160a01b0316815260200187878481811061164057634e487b7160e01b600052603260045260246000fd5b90506020028101906116529190615a3f565b8080601f016020809104026020016040519081016040528093929190818152602001838380828437600092018290525093855250505060209182018190526009548152600c825260409020825181546001600160a01b0319166001600160a01b0390911617815582820151805191926116d392600185019290910190613ef5565b5060408201518160020160006101000a81548160ff0219169083600281111561170c57634e487b7160e01b600052602160045260246000fd5b021790555050600980549150600061172383615bf2565b9190505550808061173390615bf2565b9150506115c8565b5061178f611747612a27565b82858580806020026020016040519081016040528093929190818152602001838360200280828437600092018290525060408051602081019091529081529250612d74915050565b611797612a27565b6001600160a01b03167f9ead818be0b43d79a78daaabe6c787d254ac1279ac99d9ff62b6b227804f7b3382878787876040516117d7959493929190614c05565b60405180910390a2949350505050565b6060815183511461180a5760405162461bcd60e51b815260040161072490615798565b6000835167ffffffffffffffff81111561183457634e487b7160e01b600052604160045260246000fd5b60405190808252806020026020018201604052801561185d578160200160208202803683370190505b50905060005b84518110156118ff576118c485828151811061188f57634e487b7160e01b600052603260045260246000fd5b60200260200101518583815181106118b757634e487b7160e01b600052603260045260246000fd5b60200260200101516106fc565b8282815181106118e457634e487b7160e01b600052603260045260246000fd5b60209081029190910101526118f881615bf2565b9050611863565b509392505050565b6000908152600c60205260409020546001600160a01b031690565b6007546001600160a01b0390811691161490565b60055460ff165b90565b611948612a27565b6001600160a01b0316836001600160a01b0316148061196e575061196e836106be612a27565b61198a5760405162461bcd60e51b81526004016107249061510e565b6113db838383612e13565b60095483106119b65760405162461bcd60e51b815260040161072490614e9c565b6000838152600c6020526040812060029081015460ff16908111156119eb57634e487b7160e01b600052602160045260246000fd5b14611a085760405162461bcd60e51b815260040161072490614f56565b611a1484848484612eb1565b50505050565b60095481565b600860009054906101000a90046001600160a01b03166001600160a01b0316639d2f83f06040518163ffffffff1660e01b815260040160206040518083038186803b158015611a6e57600080fd5b505afa158015611a82573d6000803e3d6000fd5b505050506040513d601f19601f82011682018060405250810190611aa691906147de565b15611ac35760405162461bcd60e51b81526004016107249061555d565b611aef7f9f2df0fed2c77648de5860a4cc508cd0818c85b8b8a1ab4ceeef8d981c8956a66105d0612a27565b611b0b5760405162461bcd60e51b815260040161072490615380565b6000611b198a8a8a8a611454565b905060008686868686604051602001611b36959493929190614d32565b6040516020818303038152906040529050611b8f611b52612a27565b8d848c8c8080602002602001604051908101604052809392919081815260200183836020028082843760009201919091525088925061135b915050565b505050505050505050505050565b80611baf611ba9612a27565b846106fc565b1015611bcd5760405162461bcd60e51b8152600401610724906157f5565b611bdf611bd8612a27565b8383612f05565b6000828152600e602052604081206001810154600290910154611c03908490615b3e565b611c0d9190615b1e565b6000848152600e60205260409020549091506001600160a01b031663a9059cbb611c35612a27565b836040518363ffffffff1660e01b8152600401611c53929190614bb8565b602060405180830381600087803b158015611c6d57600080fd5b505af1158015611c81573d6000803e3d6000fd5b505050506040513d601f19601f82011682018060405250810190611ca591906147de565b611cc15760405162461bcd60e51b815260040161072490614fb3565b6000838152600e60205260409020546001600160a01b0316611ce1612a27565b6001600160a01b03167fb7ca9e3aa58248cbaa6a5f83ca826cc57bf8ecd128fd88da420e294353c652f98385604051611d1b929190615a07565b60405180910390a3505050565b600754600160a01b900460ff1681565b611d647f65d7a28e3265b37a6474929f336521b332c1681b933f6cb9f3376673440d862a6105d0612a27565b611d805760405162461bcd60e51b815260040161072490615681565b611452612f38565b60085460408051634a32c6bf60e11b815290516001600160a01b03909216916391d148549183916394658d7e91600480820192602092909190829003018186803b158015611dd557600080fd5b505afa158015611de9573d6000803e3d6000fd5b505050506040513d601f19601f82011682018060405250810190611e0d9190614812565b611e15612a27565b6040518363ffffffff1660e01b8152600401611e32929190614d06565b60206040518083038186803b158015611e4a57600080fd5b505afa158015611e5e573d6000803e3d6000fd5b505050506040513d601f19601f82011682018060405250810190611e8291906147de565b611e9e5760405162461bcd60e51b8152600401610724906156de565b60078054911515600160a01b027fffffffffffffffffffffff00ffffffffffffffffffffffffffffffffffffffff909216919091179055565b6000828152600160205260408120611eef9083612f93565b9392505050565b6000918252602082815260408084206001600160a01b0393909316845291905290205460ff1690565b60085460408051634a32c6bf60e11b815290516001600160a01b03909216916391d148549183916394658d7e91600480820192602092909190829003018186803b158015611f6c57600080fd5b505afa158015611f80573d6000803e3d6000fd5b505050506040513d601f19601f82011682018060405250810190611fa49190614812565b611fac612a27565b6040518363ffffffff1660e01b8152600401611fc9929190614d06565b60206040518083038186803b158015611fe157600080fd5b505afa158015611ff5573d6000803e3d6000fd5b505050506040513d601f19601f8201168201806040525081019061201991906147de565b6120355760405162461bcd60e51b8152600401610724906156de565b6113db600b8383613f79565b600061205461204e612a27565b836106fc565b116120715760405162461bcd60e51b8152600401610724906157f5565b61208461207c612a27565b826001612f05565b6000818152600d60205260409020546001600160a01b03166342842e0e306120aa612a27565b6000858152600d6020526040908190206001015490516001600160e01b031960e086901b1681526120e093929190600401614b01565b600060405180830381600087803b1580156120fa57600080fd5b505af115801561210e573d6000803e3d6000fd5b5050506000828152600d60205260409020546001600160a01b03169050612133612a27565b6001600160a01b03167fea7b88a04220a2292e142652e8e1a59cc00e7d27d8ad6b11da6cf5870e6ba866600d60008581526020019081526020016000206001015484604051612183929190615a07565b60405180910390a350565b600081565b816001600160a01b03166121a5612a27565b6001600160a01b031614156121cc5760405162461bcd60e51b81526004016107249061573b565b80600360006121d9612a27565b6001600160a01b03908116825260208083019390935260409182016000908120918716808252919093529120805460ff19169215159290921790915561221d612a27565b6001600160a01b03167f17307eab39ab6107e8899845ad3d59bd9653f200f220920489ca2b5937696c31836040516122559190614cf2565b60405180910390a35050565b63bc197c8160e01b95945050505050565b60009081526006602052604090205490565b600b805461229190615bb7565b80601f01602080910402602001604051908101604052809291908181526020018280546122bd90615bb7565b801561230a5780601f106122df5761010080835404028352916020019161230a565b820191906000526020600020905b8154815290600101906020018083116122ed57829003601f168201915b505050505081565b600a5481565b600081815260016020526040812061075290612f9f565b7f9f2df0fed2c77648de5860a4cc508cd0818c85b8b8a1ab4ceeef8d981c8956a681565b6113ea8282612faa565b600860009054906101000a90046001600160a01b03166001600160a01b0316639d2f83f06040518163ffffffff1660e01b815260040160206040518083038186803b1580156123ab57600080fd5b505afa1580156123bf573d6000803e3d6000fd5b505050506040513d601f19601f820116820180604052508101906123e391906147de565b156124005760405162461bcd60e51b81526004016107249061555d565b61242c7f9f2df0fed2c77648de5860a4cc508cd0818c85b8b8a1ab4ceeef8d981c8956a66105d0612a27565b6124485760405162461bcd60e51b815260040161072490615380565b83856001600160a01b03166370a08231612460612a27565b6040518263ffffffff1660e01b815260040161247c9190614a75565b60206040518083038186803b15801561249457600080fd5b505afa1580156124a8573d6000803e3d6000fd5b505050506040513d601f19601f820116820180604052508101906124cc9190614812565b10156124ea5760405162461bcd60e51b8152600401610724906155ba565b83856001600160a01b031663dd62ed3e612502612a27565b306040518363ffffffff1660e01b8152600401612520929190614a89565b60206040518083038186803b15801561253857600080fd5b505afa15801561254c573d6000803e3d6000fd5b505050506040513d601f19601f820116820180604052508101906125709190614812565b101561258e5760405162461bcd60e51b81526004016107249061525d565b846001600160a01b03166323b872dd6125a5612a27565b30876040518463ffffffff1660e01b81526004016125c593929190614b01565b602060405180830381600087803b1580156125df57600080fd5b505af11580156125f3573d6000803e3d6000fd5b505050506040513d601f19601f8201168201806040525081019061261791906147de565b6126335760405162461bcd60e51b815260040161072490614fb3565b61265761263e612a27565b6009548560405180602001604052806000815250612a36565b604051806060016040528061266a612a27565b6001600160a01b0316815260200183838080601f01602080910402602001604051908101604052809392919081815260200183838082843760009201829052509385525050600160209384018190526009548352600c84526040909220845181546001600160a01b0319166001600160a01b0390911617815584840151805191946126fa94860193500190613ef5565b5060408201518160020160006101000a81548160ff0219169083600281111561273357634e487b7160e01b600052602160045260246000fd5b021790555050604080516060810182526001600160a01b0388811680835260208084018981528486018b81526009546000908152600e90935295909120935184546001600160a01b0319169316929092178355905160018301559151600290910155905061279f612a27565b6001600160a01b03167fd8bffec4446d425694f73630f7822315baa62da5311e89f0d83335ef6a3917ba868686866040516127dd9493929190615a15565b60405180910390a3600980549060006127f583615bf2565b91905055505050505050565b600d60205260009081526040902080546001909101546001600160a01b039091169082565b7f65d7a28e3265b37a6474929f336521b332c1681b933f6cb9f3376673440d862a81565b6060600b805461285990615bb7565b80601f016020809104026020016040519081016040528092919081815260200182805461288590615bb7565b80156128d25780601f106128a7576101008083540402835291602001916128d2565b820191906000526020600020905b8154815290600101906020018083116128b557829003601f168201915b5050505050905090565b6001600160a01b03918216600090815260036020908152604080832093909416825291909152205460ff1690565b63f23a6e6160e01b95945050505050565b612923612a27565b6001600160a01b0316856001600160a01b031614806129495750612949856106be612a27565b6129655760405162461bcd60e51b81526004016107249061510e565b6113b28585858585612fc9565b61297a612a27565b6001600160a01b0316836001600160a01b031614806129a057506129a0836106be612a27565b6129bc5760405162461bcd60e51b81526004016107249061510e565b6113db838383612f05565b60006129d233611922565b156129e6575060131936013560601c61193d565b6129ee612a18565b905061193d565b6129ff8282613110565b5050565b6000611eef836001600160a01b038416613195565b3390565b6000610752826131df565b6000612a316129c7565b905090565b612a4284848484613204565b60008381526006602052604081208054849290612a60908490615b06565b909155505050505050565b612a977f9f2df0fed2c77648de5860a4cc508cd0818c85b8b8a1ab4ceeef8d981c8956a66105d0612a27565b612ab35760405162461bcd60e51b815260040161072490615446565b611a1484848484612d74565b8151835114612ae05760405162461bcd60e51b81526004016107249061590c565b6001600160a01b038416612b065760405162461bcd60e51b8152600401610724906152c6565b6000612b10612a27565b9050612b208187878787876132e6565b60005b8451811015612c25576000858281518110612b4e57634e487b7160e01b600052603260045260246000fd5b602002602001015190506000858381518110612b7a57634e487b7160e01b600052603260045260246000fd5b60209081029190910181015160008481526002835260408082206001600160a01b038e168352909352919091205490915081811015612bcb5760405162461bcd60e51b8152600401610724906154a3565b60008381526002602090815260408083206001600160a01b038e8116855292528083208585039055908b16825281208054849290612c0a908490615b06565b9250508190555050505080612c1e90615bf2565b9050612b23565b50846001600160a01b0316866001600160a01b0316826001600160a01b03167f4a39dc06d4c0dbc64b70af90fd698a233a518aa5d07e595d983b8c0526c8f7fb8787604051612c75929190614cc4565b60405180910390a461111e81878787878761337c565b612c9482611202565b612ca581612ca0612a27565b61348a565b6113db8383613110565b612cb7612a27565b6001600160a01b0316816001600160a01b031614612ce75760405162461bcd60e51b8152600401610724906159aa565b6129ff82826134ee565b6000611eef836001600160a01b038416613571565b612d0e611936565b612d2a5760405162461bcd60e51b815260040161072490614e65565b6005805460ff191690557f5db9ee0a495bf2e6ff9c91a7834c1ba4fdd244a5e8aa4e537bd38aeae4b073aa612d5d612a27565b604051612d6a9190614a75565b60405180910390a1565b612d808484848461368e565b60005b83518110156113b257828181518110612dac57634e487b7160e01b600052603260045260246000fd5b602002602001015160066000868481518110612dd857634e487b7160e01b600052603260045260246000fd5b602002602001015181526020019081526020016000206000828254612dfd9190615b06565b90915550612e0c905081615bf2565b9050612d83565b612e1e838383613810565b60005b8251811015611a1457818181518110612e4a57634e487b7160e01b600052603260045260246000fd5b602002602001015160066000858481518110612e7657634e487b7160e01b600052603260045260246000fd5b602002602001015181526020019081526020016000206000828254612e9b9190615b5d565b90915550612eaa905081615bf2565b9050612e21565b612edd7f9f2df0fed2c77648de5860a4cc508cd0818c85b8b8a1ab4ceeef8d981c8956a66105d0612a27565b612ef95760405162461bcd60e51b815260040161072490615446565b611a1484848484612a36565b612f108383836139c4565b60008281526006602052604081208054839290612f2e908490615b5d565b9091555050505050565b612f40611936565b15612f5d5760405162461bcd60e51b815260040161072490615226565b6005805460ff191660011790557f62e78cea01bee320cd4e420270b5ea74000d11b0c9f74754ebdbfc544b05a258612d5d612a27565b6000611eef8383613ad7565b600061075282613b0f565b612fb382611202565b612fbf81612ca0612a27565b6113db83836134ee565b6001600160a01b038416612fef5760405162461bcd60e51b8152600401610724906152c6565b6000612ff9612a27565b905061301981878761300a88613b13565b61301388613b13565b876132e6565b60008481526002602090815260408083206001600160a01b038a1684529091529020548381101561305c5760405162461bcd60e51b8152600401610724906154a3565b60008581526002602090815260408083206001600160a01b038b811685529252808320878503905590881682528120805486929061309b908490615b06565b92505081905550856001600160a01b0316876001600160a01b0316836001600160a01b03167fc3d58168c5ae7397731d063d5bbf3d657854427343f4c083240f7aacaa2d0f6288886040516130f1929190615a07565b60405180910390a4613107828888888888613b6c565b50505050505050565b61311a8282611ef6565b6129ff576000828152602081815260408083206001600160a01b03851684529091529020805460ff19166001179055613151612a27565b6001600160a01b0316816001600160a01b0316837f2f8788117e7eff1d82e926ec794901d17c78024a50270940304540a733656f0d60405160405180910390a45050565b60006131a18383613c3d565b6131d757508154600181810184556000848152602080822090930184905584548482528286019093526040902091909155610752565b506000610752565b60006001600160e01b03198216630271189760e51b1480610752575061075282613c55565b6001600160a01b03841661322a5760405162461bcd60e51b815260040161072490615969565b6000613234612a27565b90506132468160008761300a88613b13565b60008481526002602090815260408083206001600160a01b038916845290915281208054859290613278908490615b06565b92505081905550846001600160a01b031660006001600160a01b0316826001600160a01b03167fc3d58168c5ae7397731d063d5bbf3d657854427343f4c083240f7aacaa2d0f6287876040516132cf929190615a07565b60405180910390a46113b281600087878787613b6c565b6132f4868686868686613c95565b600754600160a01b900460ff161561111e576133307f8502233096d909befbda0999bb8ea2f3a6be3c138b9fbf003752a4c8bce86f6c86611ef6565b8061336057506133607f8502233096d909befbda0999bb8ea2f3a6be3c138b9fbf003752a4c8bce86f6c85611ef6565b61111e5760405162461bcd60e51b81526004016107249061516b565b61338e846001600160a01b0316613ca3565b1561111e5760405163bc197c8160e01b81526001600160a01b0385169063bc197c81906133c79089908990889088908890600401614aa3565b602060405180830381600087803b1580156133e157600080fd5b505af1925050508015613411575060408051601f3d908101601f1916820190925261340e9181019061488b565b60015b61345a5761341d615c3f565b806134285750613442565b8060405162461bcd60e51b81526004016107249190614d63565b60405162461bcd60e51b815260040161072490614d76565b6001600160e01b0319811663bc197c8160e01b146131075760405162461bcd60e51b815260040161072490614e08565b6134948282611ef6565b6129ff576134ac816001600160a01b03166014613ca9565b6134b7836020613ca9565b6040516020016134c89291906149f4565b60408051601f198184030181529082905262461bcd60e51b825261072491600401614d63565b6134f88282611ef6565b156129ff576000828152602081815260408083206001600160a01b03851684529091529020805460ff1916905561352d612a27565b6001600160a01b0316816001600160a01b0316837ff6391f5c32d9c69d2a47ea670b442974b53935d1edc7fd64eb21e047a839171b60405160405180910390a45050565b60008181526001830160205260408120548015613684576000613595600183615b5d565b85549091506000906135a990600190615b5d565b905081811461362a5760008660000182815481106135d757634e487b7160e01b600052603260045260246000fd5b906000526020600020015490508087600001848154811061360857634e487b7160e01b600052603260045260246000fd5b6000918252602080832090910192909255918252600188019052604090208390555b855486908061364957634e487b7160e01b600052603160045260246000fd5b600190038181906000526020600020016000905590558560010160008681526020019081526020016000206000905560019350505050610752565b6000915050610752565b6001600160a01b0384166136b45760405162461bcd60e51b815260040161072490615969565b81518351146136d55760405162461bcd60e51b81526004016107249061590c565b60006136df612a27565b90506136f0816000878787876132e6565b60005b84518110156137a85783818151811061371c57634e487b7160e01b600052603260045260246000fd5b60200260200101516002600087848151811061374857634e487b7160e01b600052603260045260246000fd5b602002602001015181526020019081526020016000206000886001600160a01b03166001600160a01b0316815260200190815260200160002060008282546137909190615b06565b909155508190506137a081615bf2565b9150506136f3565b50846001600160a01b031660006001600160a01b0316826001600160a01b03167f4a39dc06d4c0dbc64b70af90fd698a233a518aa5d07e595d983b8c0526c8f7fb87876040516137f9929190614cc4565b60405180910390a46113b28160008787878761337c565b6001600160a01b0383166138365760405162461bcd60e51b815260040161072490615403565b80518251146138575760405162461bcd60e51b81526004016107249061590c565b6000613861612a27565b9050613881818560008686604051806020016040528060008152506132e6565b60005b83518110156139655760008482815181106138af57634e487b7160e01b600052603260045260246000fd5b6020026020010151905060008483815181106138db57634e487b7160e01b600052603260045260246000fd5b60209081029190910181015160008481526002835260408082206001600160a01b038c16835290935291909120549091508181101561392c5760405162461bcd60e51b815260040161072490615010565b60009283526002602090815260408085206001600160a01b038b168652909152909220910390558061395d81615bf2565b915050613884565b5060006001600160a01b0316846001600160a01b0316826001600160a01b03167f4a39dc06d4c0dbc64b70af90fd698a233a518aa5d07e595d983b8c0526c8f7fb86866040516139b6929190614cc4565b60405180910390a450505050565b6001600160a01b0383166139ea5760405162461bcd60e51b815260040161072490615403565b60006139f4612a27565b9050613a2481856000613a0687613b13565b613a0f87613b13565b604051806020016040528060008152506132e6565b60008381526002602090815260408083206001600160a01b038816845290915290205482811015613a675760405162461bcd60e51b815260040161072490615010565b60008481526002602090815260408083206001600160a01b03808a16808652919093528184208786039055905190918516907fc3d58168c5ae7397731d063d5bbf3d657854427343f4c083240f7aacaa2d0f6290613ac89089908990615a07565b60405180910390a45050505050565b6000826000018281548110613afc57634e487b7160e01b600052603260045260246000fd5b9060005260206000200154905092915050565b5490565b60408051600180825281830190925260609160009190602080830190803683370190505090508281600081518110613b5b57634e487b7160e01b600052603260045260246000fd5b602090810291909101015292915050565b613b7e846001600160a01b0316613ca3565b1561111e5760405163f23a6e6160e01b81526001600160a01b0385169063f23a6e6190613bb79089908990889088908890600401614b25565b602060405180830381600087803b158015613bd157600080fd5b505af1925050508015613c01575060408051601f3d908101601f19168201909252613bfe9181019061488b565b60015b613c0d5761341d615c3f565b6001600160e01b0319811663f23a6e6160e01b146131075760405162461bcd60e51b815260040161072490614e08565b60009081526001919091016020526040902054151590565b60006001600160e01b03198216636cdb3d1360e11b1480613c8657506001600160e01b031982166303a24d0760e21b145b80610752575061075282613e68565b61111e868686868686613e8d565b3b151590565b60606000613cb8836002615b3e565b613cc3906002615b06565b67ffffffffffffffff811115613ce957634e487b7160e01b600052604160045260246000fd5b6040519080825280601f01601f191660200182016040528015613d13576020820181803683370190505b509050600360fc1b81600081518110613d3c57634e487b7160e01b600052603260045260246000fd5b60200101906001600160f81b031916908160001a905350600f60fb1b81600181518110613d7957634e487b7160e01b600052603260045260246000fd5b60200101906001600160f81b031916908160001a9053506000613d9d846002615b3e565b613da8906001615b06565b90505b6001811115613e49577f303132333435363738396162636465660000000000000000000000000000000085600f1660108110613df757634e487b7160e01b600052603260045260246000fd5b1a60f81b828281518110613e1b57634e487b7160e01b600052603260045260246000fd5b60200101906001600160f81b031916908160001a90535060049490941c93613e4281615ba0565b9050613dab565b508315611eef5760405162461bcd60e51b815260040161072490614dd3565b60006001600160e01b03198216635a05180f60e01b1480610752575061075282613ec0565b613e9b86868686868661111e565b613ea3611936565b1561111e5760405162461bcd60e51b8152600401610724906150b1565b60006001600160e01b03198216637965db0b60e01b148061075257506301ffc9a760e01b6001600160e01b0319831614610752565b828054613f0190615bb7565b90600052602060002090601f016020900481019282613f235760008555613f69565b82601f10613f3c57805160ff1916838001178555613f69565b82800160010185558215613f69579182015b82811115613f69578251825591602001919060010190613f4e565b50613f75929150613fed565b5090565b828054613f8590615bb7565b90600052602060002090601f016020900481019282613fa75760008555613f69565b82601f10613fc05782800160ff19823516178555613f69565b82800160010185558215613f69579182015b82811115613f69578235825591602001919060010190613fd2565b5b80821115613f755760008155600101613fee565b60008083601f840112614013578182fd5b50813567ffffffffffffffff81111561402a578182fd5b602083019150836020808302850101111561404457600080fd5b9250929050565b600082601f83011261405b578081fd5b8135602061407061406b83615aae565b615a84565b828152818101908583018385028701840188101561408c578586fd5b855b858110156140aa5781358452928401929084019060010161408e565b5090979650505050505050565b600082601f8301126140c7578081fd5b813567ffffffffffffffff8111156140e1576140e1615c23565b6140f4601f8201601f1916602001615a84565b818152846020838601011115614108578283fd5b816020850160208301379081016020019190915292915050565b60008083601f840112614133578182fd5b50813567ffffffffffffffff81111561414a578182fd5b60208301915083602082850101111561404457600080fd5b600060208284031215614173578081fd5b8135611eef81615ce4565b60006020828403121561418f578081fd5b8151611eef81615ce4565b600080604083850312156141ac578081fd5b82356141b781615ce4565b915060208301356141c781615ce4565b809150509250929050565b600080600080600060a086880312156141e9578081fd5b85356141f481615ce4565b9450602086013561420481615ce4565b9350604086013567ffffffffffffffff80821115614220578283fd5b61422c89838a0161404b565b94506060880135915080821115614241578283fd5b61424d89838a0161404b565b93506080880135915080821115614262578283fd5b5061426f888289016140b7565b9150509295509295909350565b60008060008060808587031215614291578384fd5b843561429c81615ce4565b935060208501356142ac81615ce4565b925060408501359150606085013567ffffffffffffffff8111156142ce578182fd5b6142da878288016140b7565b91505092959194509250565b600080600080600060a086880312156142fd578283fd5b853561430881615ce4565b9450602086013561431881615ce4565b93506040860135925060608601359150608086013567ffffffffffffffff811115614341578182fd5b61426f888289016140b7565b60008060008060008060008060008060e08b8d03121561436b578788fd5b8a3561437681615ce4565b995060208b013567ffffffffffffffff8082111561439257898afd5b61439e8e838f01614002565b909b50995060408d01359150808211156143b6578687fd5b6143c28e838f01614002565b909950975060608d01359150808211156143da578687fd5b506143e78d828e01614122565b9b9e9a9d50989b979a9699969760808101359760a0820135975060c09091013595509350505050565b600080600060608486031215614424578081fd5b833561442f81615ce4565b9250602084013567ffffffffffffffff8082111561444b578283fd5b6144578783880161404b565b9350604086013591508082111561446c578283fd5b506144798682870161404b565b9150509250925092565b60008060008060808587031215614498578182fd5b84356144a381615ce4565b9350602085013567ffffffffffffffff808211156144bf578384fd5b6144cb8883890161404b565b945060408701359150808211156144e0578384fd5b6144ec8883890161404b565b93506060870135915080821115614501578283fd5b506142da878288016140b7565b60008060408385031215614520578182fd5b823561452b81615ce4565b915060208301356141c781615cfc565b6000806040838503121561454d578182fd5b823561455881615ce4565b946020939093013593505050565b6000806000806060858703121561457b578182fd5b843561458681615ce4565b935060208501359250604085013567ffffffffffffffff8111156145a8578283fd5b6145b487828801614122565b95989497509550505050565b6000806000606084860312156145d4578081fd5b83356145df81615ce4565b95602085013595506040909401359392505050565b60008060008060808587031215614609578182fd5b843561461481615ce4565b93506020850135925060408501359150606085013567ffffffffffffffff8111156142ce578182fd5b600080600080600060808688031215614654578283fd5b853561465f81615ce4565b94506020860135935060408601359250606086013567ffffffffffffffff811115614688578182fd5b61469488828901614122565b969995985093965092949392505050565b600080604083850312156146b7578182fd5b823567ffffffffffffffff808211156146ce578384fd5b818501915085601f8301126146e1578384fd5b813560206146f161406b83615aae565b82815281810190858301838502870184018b101561470d578889fd5b8896505b8487101561473857803561472481615ce4565b835260019690960195918301918301614711565b509650508601359250508082111561474e578283fd5b5061475b8582860161404b565b9150509250929050565b6000806000806040858703121561477a578182fd5b843567ffffffffffffffff80821115614791578384fd5b61479d88838901614002565b909650945060208701359150808211156147b5578384fd5b506145b487828801614002565b6000602082840312156147d3578081fd5b8135611eef81615cfc565b6000602082840312156147ef578081fd5b8151611eef81615cfc565b60006020828403121561480b578081fd5b5035919050565b600060208284031215614823578081fd5b5051919050565b6000806040838503121561483c578182fd5b8235915060208301356141c781615ce4565b60008060408385031215614860578182fd5b50508035926020909101359150565b600060208284031215614880578081fd5b8135611eef81615d0a565b60006020828403121561489c578081fd5b8151611eef81615d0a565b600080602083850312156148b9578182fd5b823567ffffffffffffffff8111156148cf578283fd5b6148db85828601614122565b90969095509350505050565b6000602082840312156148f8578081fd5b81516fffffffffffffffffffffffffffffffff81168114611eef578182fd5b60008284527f07ffffffffffffffffffffffffffffffffffffffffffffffffffffffffffffff831115614948578081fd5b6020830280836020870137939093016020019283525090919050565b6000815180845260208085019450808401835b8381101561499357815187529582019590820190600101614977565b509495945050505050565b600081518084526149b6816020860160208601615b74565b601f01601f19169290920160200192915050565b60008284528282602086013780602084860101526020601f19601f85011685010190509392505050565b60007f416363657373436f6e74726f6c3a206163636f756e742000000000000000000082528351614a2c816017850160208801615b74565b7f206973206d697373696e6720726f6c65200000000000000000000000000000006017918401918201528351614a69816028840160208801615b74565b01602801949350505050565b6001600160a01b0391909116815260200190565b6001600160a01b0392831681529116602082015260400190565b60006001600160a01b03808816835280871660208401525060a06040830152614acf60a0830186614964565b8281036060840152614ae18186614964565b90508281036080840152614af5818561499e565b98975050505050505050565b6001600160a01b039384168152919092166020820152604081019190915260600190565b60006001600160a01b03808816835280871660208401525084604083015283606083015260a06080830152614b5d60a083018461499e565b979650505050505050565b60006001600160a01b038516825260606020830152614b8a606083018561499e565b905060038310614baa57634e487b7160e01b600052602160045260246000fd5b826040830152949350505050565b6001600160a01b03929092168252602082015260400190565b6001600160a01b039390931683526020830191909152604082015260600190565b600060208252611eef6020830184614964565b600060608252614c186060830188614964565b6020838203818501528187835281830190508182890284010189855b8a811015614ca057858303601f190184528135368d9003601e19018112614c59578788fd5b8c01803567ffffffffffffffff811115614c71578889fd5b8036038e1315614c7f578889fd5b614c8c85828985016149ca565b958701959450505090840190600101614c34565b50508581036040870152614cb581888a614917565b9b9a5050505050505050505050565b600060408252614cd76040830185614964565b8281036020840152614ce98185614964565b95945050505050565b901515815260200190565b90815260200190565b9182526001600160a01b0316602082015260400190565b6001600160e01b031991909116815260200190565b600060808252614d466080830187896149ca565b602083019590955250604081019290925260609091015292915050565b600060208252611eef602083018461499e565b60208082526034908201527f455243313135353a207472616e7366657220746f206e6f6e204552433131353560408201527f526563656976657220696d706c656d656e746572000000000000000000000000606082015260800190565b6020808252818101527f537472696e67733a20686578206c656e67746820696e73756666696369656e74604082015260600190565b60208082526028908201527f455243313135353a204552433131353552656365697665722072656a6563746560408201527f6420746f6b656e73000000000000000000000000000000000000000000000000606082015260800190565b60208082526014908201527f5061757361626c653a206e6f7420706175736564000000000000000000000000604082015260600190565b60208082526039908201527f4e4654436f6c6c656374696f6e3a2063616e6e6f742063616c6c20746869732060408201527f666e20666f72206372656174696e67206e6577204e4654732e00000000000000606082015260800190565b6020808252602b908201527f455243313135353a2062616c616e636520717565727920666f7220746865207a60408201527f65726f2061646472657373000000000000000000000000000000000000000000606082015260800190565b6020808252603a908201527f4e4654436f6c6c656374696f6e3a2063616e6e6f7420667265656c79206d696e60408201527f74206d6f7265206f66204552433230206f72204552433732312e000000000000606082015260800190565b6020808252602f908201527f4e4654436f6c6c656374696f6e3a204661696c656420746f207472616e73666560408201527f7220455243323020746f6b656e732e0000000000000000000000000000000000606082015260800190565b60208082526024908201527f455243313135353a206275726e20616d6f756e7420657863656564732062616c604082015263616e636560e01b606082015260800190565b6020808252603d908201527f4e4654436f6c6c656374696f6e3a204d75737420617070726f7665207468652060408201527f636f6e747261637420746f207472616e7366657220746865204e46542e000000606082015260800190565b6020808252602c908201527f455243313135355061757361626c653a20746f6b656e207472616e736665722060408201527f7768696c65207061757365640000000000000000000000000000000000000000606082015260800190565b60208082526029908201527f455243313135353a2063616c6c6572206973206e6f74206f776e6572206e6f7260408201527f20617070726f7665640000000000000000000000000000000000000000000000606082015260800190565b602080825260409082018190527f4e4654436f6c6c656374696f6e3a205472616e73666572732061726520726573908201527f7472696374656420746f205452414e534645525f524f4c4520686f6c64657273606082015260800190565b6020808252603a908201527f4e4654436f6c6c656374696f6e3a204d7573742073706563696679206571756160408201527f6c206e756d626572206f6620636f6e6669672076616c7565732e000000000000606082015260800190565b60208082526010908201527f5061757361626c653a2070617573656400000000000000000000000000000000604082015260600190565b60208082526043908201527f4e4654436f6c6c656374696f6e3a204d75737420617070726f7665207468697360408201527f20636f6e747261637420746f207472616e7366657220455243323020746f6b6560608201526237399760e91b608082015260a00190565b60208082526025908201527f455243313135353a207472616e7366657220746f20746865207a65726f20616460408201527f6472657373000000000000000000000000000000000000000000000000000000606082015260800190565b60208082526032908201527f455243313135353a207472616e736665722063616c6c6572206973206e6f742060408201527f6f776e6572206e6f7220617070726f7665640000000000000000000000000000606082015260800190565b60208082526045908201527f4e4654436f6c6c656374696f6e3a204f6e6c79206163636f756e74732077697460408201527f68204d494e5445525f524f4c452063616e2063616c6c20746869732066756e6360608201527f74696f6e2e000000000000000000000000000000000000000000000000000000608082015260a00190565b60208082526023908201527f455243313135353a206275726e2066726f6d20746865207a65726f206164647260408201526265737360e81b606082015260800190565b60208082526038908201527f455243313135355072657365744d696e7465725061757365723a206d7573742060408201527f68617665206d696e74657220726f6c6520746f206d696e740000000000000000606082015260800190565b6020808252602a908201527f455243313135353a20696e73756666696369656e742062616c616e636520666f60408201527f72207472616e7366657200000000000000000000000000000000000000000000606082015260800190565b60208082526033908201527f4e4654436f6c6c656374696f6e3a204270732070726f7669646564206d75737460408201527f206265206c657373207468616e20392c30303000000000000000000000000000606082015260800190565b60208082526026908201527f4e4654436f6c6c656374696f6e3a205468652070726f746f636f6c206973207060408201527f61757365642e0000000000000000000000000000000000000000000000000000606082015260800190565b60208082526044908201527f4e4654436f6c6c656374696f6e3a204d757374206f776e2074686520616d6f7560408201527f6e74206f6620746f6b656e73207468617420617265206265696e6720777261706060820152633832b21760e11b608082015260a00190565b6020808252603b908201527f455243313135355072657365744d696e7465725061757365723a206d7573742060408201527f686176652070617573657220726f6c6520746f20756e70617573650000000000606082015260800190565b60208082526039908201527f455243313135355072657365744d696e7465725061757365723a206d7573742060408201527f686176652070617573657220726f6c6520746f20706175736500000000000000606082015260800190565b6020808252603c908201527f4e4654436f6c6c656374696f6e3a206f6e6c7920612070726f746f636f6c206160408201527f646d696e2063616e2063616c6c20746869732066756e6374696f6e2e00000000606082015260800190565b60208082526029908201527f455243313135353a2073657474696e6720617070726f76616c2073746174757360408201527f20666f722073656c660000000000000000000000000000000000000000000000606082015260800190565b60208082526029908201527f455243313135353a206163636f756e747320616e6420696473206c656e67746860408201527f206d69736d617463680000000000000000000000000000000000000000000000606082015260800190565b60208082526033908201527f4e4654436f6c6c656374696f6e3a2043616e6e6f742072656465656d20616e2060408201527f4e465420796f7520646f206e6f74206f776e2e00000000000000000000000000606082015260800190565b60208082526035908201527f4e4654436f6c6c656374696f6e3a204f6e6c7920746865206f776e6572206f6660408201527f20746865204e46542063616e20777261702069742e0000000000000000000000606082015260800190565b6020808252602c908201527f4e4654436f6c6c656374696f6e3a204d75737420637265617465206174206c6560408201527f617374206f6e65204e46542e0000000000000000000000000000000000000000606082015260800190565b60208082526028908201527f455243313135353a2069647320616e6420616d6f756e7473206c656e6774682060408201527f6d69736d61746368000000000000000000000000000000000000000000000000606082015260800190565b60208082526021908201527f455243313135353a206d696e7420746f20746865207a65726f206164647265736040820152607360f81b606082015260800190565b6020808252602f908201527f416363657373436f6e74726f6c3a2063616e206f6e6c792072656e6f756e636560408201527f20726f6c657320666f722073656c660000000000000000000000000000000000606082015260800190565b918252602082015260400190565b600085825284602083015260606040830152615a356060830184866149ca565b9695505050505050565b6000808335601e19843603018112615a55578283fd5b83018035915067ffffffffffffffff821115615a6f578283fd5b60200191503681900382131561404457600080fd5b60405181810167ffffffffffffffff81118282101715615aa657615aa6615c23565b604052919050565b600067ffffffffffffffff821115615ac857615ac8615c23565b5060209081020190565b60006fffffffffffffffffffffffffffffffff808316818516808303821115615afd57615afd615c0d565b01949350505050565b60008219821115615b1957615b19615c0d565b500190565b600082615b3957634e487b7160e01b81526012600452602481fd5b500490565b6000816000190483118215151615615b5857615b58615c0d565b500290565b600082821015615b6f57615b6f615c0d565b500390565b60005b83811015615b8f578181015183820152602001615b77565b83811115611a145750506000910152565b600081615baf57615baf615c0d565b506000190190565b600281046001821680615bcb57607f821691505b60208210811415615bec57634e487b7160e01b600052602260045260246000fd5b50919050565b6000600019821415615c0657615c06615c0d565b5060010190565b634e487b7160e01b600052601160045260246000fd5b634e487b7160e01b600052604160045260246000fd5b60e01c90565b600060443d1015615c4f5761193d565b600481823e6308c379a0615c638251615c39565b14615c6d5761193d565b6040513d600319016004823e80513d67ffffffffffffffff8160248401118184111715615c9d575050505061193d565b82840192508251915080821115615cb7575050505061193d565b503d83016020828401011115615ccf5750505061193d565b601f01601f1916810160200160405291505090565b6001600160a01b0381168114615cf957600080fd5b50565b8015158114615cf957600080fd5b6001600160e01b031981168114615cf957600080fdfea164736f6c6343000800000a",
  "linkReferences": {},
  "deployedLinkReferences": {}
}