{
  "_format": "hh-sol-artifact-1",
  "contractName": "NFTCollection",
  "sourceName": "contracts/NFTCollection.sol",
  "abi": [
    {
      "inputs": [
        {
          "internalType": "address payable",
          "name": "_controlCenter",
          "type": "address"
        },
        {
          "internalType": "address",
          "name": "_trustedForwarder",
          "type": "address"
        },
        {
          "internalType": "string",
          "name": "_uri",
          "type": "string"
        }
      ],
      "stateMutability": "nonpayable",
      "type": "constructor"
    },
    {
      "anonymous": false,
      "inputs": [
        {
          "indexed": true,
          "internalType": "address",
          "name": "account",
          "type": "address"
        },
        {
          "indexed": true,
          "internalType": "address",
          "name": "operator",
          "type": "address"
        },
        {
          "indexed": false,
          "internalType": "bool",
          "name": "approved",
          "type": "bool"
        }
      ],
      "name": "ApprovalForAll",
      "type": "event"
    },
    {
      "anonymous": false,
      "inputs": [
        {
          "indexed": true,
          "internalType": "address",
          "name": "redeemer",
          "type": "address"
        },
        {
          "indexed": true,
          "internalType": "uint256",
          "name": "tokenId",
          "type": "uint256"
        },
        {
          "indexed": true,
          "internalType": "address",
          "name": "sourceOfUnderlying",
          "type": "address"
        },
        {
          "indexed": false,
          "internalType": "uint256",
          "name": "tokenAmountReceived",
          "type": "uint256"
        },
        {
          "indexed": false,
          "internalType": "uint256",
          "name": "sharesRedeemed",
          "type": "uint256"
        }
      ],
      "name": "ERC20Redeemed",
      "type": "event"
    },
    {
      "anonymous": false,
      "inputs": [
        {
          "indexed": true,
          "internalType": "address",
          "name": "creator",
          "type": "address"
        },
        {
          "indexed": true,
          "internalType": "address",
          "name": "sourceOfUnderlying",
          "type": "address"
        },
        {
          "indexed": false,
          "internalType": "uint256",
          "name": "totalAmountOfUnderlying",
          "type": "uint256"
        },
        {
          "indexed": false,
          "internalType": "uint256",
          "name": "shares",
          "type": "uint256"
        },
        {
          "indexed": false,
          "internalType": "uint256",
          "name": "tokenId",
          "type": "uint256"
        },
        {
          "indexed": false,
          "internalType": "string",
          "name": "tokenURI",
          "type": "string"
        }
      ],
      "name": "ERC20WrappedToken",
      "type": "event"
    },
    {
      "anonymous": false,
      "inputs": [
        {
          "indexed": true,
          "internalType": "address",
          "name": "redeemer",
          "type": "address"
        },
        {
          "indexed": true,
          "internalType": "address",
          "name": "sourceOfUnderlying",
          "type": "address"
        },
        {
          "indexed": false,
          "internalType": "uint256",
          "name": "tokenIdOfUnderlying",
          "type": "uint256"
        },
        {
          "indexed": false,
          "internalType": "uint256",
          "name": "tokenId",
          "type": "uint256"
        }
      ],
      "name": "ERC721Redeemed",
      "type": "event"
    },
    {
      "anonymous": false,
      "inputs": [
        {
          "indexed": true,
          "internalType": "address",
          "name": "creator",
          "type": "address"
        },
        {
          "indexed": true,
          "internalType": "address",
          "name": "sourceOfUnderlying",
          "type": "address"
        },
        {
          "indexed": false,
          "internalType": "uint256",
          "name": "tokenIdOfUnderlying",
          "type": "uint256"
        },
        {
          "indexed": false,
          "internalType": "uint256",
          "name": "tokenId",
          "type": "uint256"
        },
        {
          "indexed": false,
          "internalType": "string",
          "name": "tokenURI",
          "type": "string"
        }
      ],
      "name": "ERC721WrappedToken",
      "type": "event"
    },
    {
      "anonymous": false,
      "inputs": [
        {
          "indexed": true,
          "internalType": "address",
          "name": "creator",
          "type": "address"
        },
        {
          "indexed": false,
          "internalType": "uint256[]",
          "name": "tokenIds",
          "type": "uint256[]"
        },
        {
          "indexed": false,
          "internalType": "string[]",
          "name": "tokenURIs",
          "type": "string[]"
        },
        {
          "indexed": false,
          "internalType": "uint256[]",
          "name": "tokenSupplies",
          "type": "uint256[]"
        }
      ],
      "name": "NativeTokens",
      "type": "event"
    },
    {
      "anonymous": false,
      "inputs": [
        {
          "indexed": false,
          "internalType": "address",
          "name": "account",
          "type": "address"
        }
      ],
      "name": "Paused",
      "type": "event"
    },
    {
      "anonymous": false,
      "inputs": [
        {
          "indexed": true,
          "internalType": "bytes32",
          "name": "role",
          "type": "bytes32"
        },
        {
          "indexed": true,
          "internalType": "bytes32",
          "name": "previousAdminRole",
          "type": "bytes32"
        },
        {
          "indexed": true,
          "internalType": "bytes32",
          "name": "newAdminRole",
          "type": "bytes32"
        }
      ],
      "name": "RoleAdminChanged",
      "type": "event"
    },
    {
      "anonymous": false,
      "inputs": [
        {
          "indexed": true,
          "internalType": "bytes32",
          "name": "role",
          "type": "bytes32"
        },
        {
          "indexed": true,
          "internalType": "address",
          "name": "account",
          "type": "address"
        },
        {
          "indexed": true,
          "internalType": "address",
          "name": "sender",
          "type": "address"
        }
      ],
      "name": "RoleGranted",
      "type": "event"
    },
    {
      "anonymous": false,
      "inputs": [
        {
          "indexed": true,
          "internalType": "bytes32",
          "name": "role",
          "type": "bytes32"
        },
        {
          "indexed": true,
          "internalType": "address",
          "name": "account",
          "type": "address"
        },
        {
          "indexed": true,
          "internalType": "address",
          "name": "sender",
          "type": "address"
        }
      ],
      "name": "RoleRevoked",
      "type": "event"
    },
    {
      "anonymous": false,
      "inputs": [
        {
          "indexed": false,
          "internalType": "uint256",
          "name": "royaltyBps",
          "type": "uint256"
        }
      ],
      "name": "RoyaltyUpdated",
      "type": "event"
    },
    {
      "anonymous": false,
      "inputs": [
        {
          "indexed": true,
          "internalType": "address",
          "name": "operator",
          "type": "address"
        },
        {
          "indexed": true,
          "internalType": "address",
          "name": "from",
          "type": "address"
        },
        {
          "indexed": true,
          "internalType": "address",
          "name": "to",
          "type": "address"
        },
        {
          "indexed": false,
          "internalType": "uint256[]",
          "name": "ids",
          "type": "uint256[]"
        },
        {
          "indexed": false,
          "internalType": "uint256[]",
          "name": "values",
          "type": "uint256[]"
        }
      ],
      "name": "TransferBatch",
      "type": "event"
    },
    {
      "anonymous": false,
      "inputs": [
        {
          "indexed": true,
          "internalType": "address",
          "name": "operator",
          "type": "address"
        },
        {
          "indexed": true,
          "internalType": "address",
          "name": "from",
          "type": "address"
        },
        {
          "indexed": true,
          "internalType": "address",
          "name": "to",
          "type": "address"
        },
        {
          "indexed": false,
          "internalType": "uint256",
          "name": "id",
          "type": "uint256"
        },
        {
          "indexed": false,
          "internalType": "uint256",
          "name": "value",
          "type": "uint256"
        }
      ],
      "name": "TransferSingle",
      "type": "event"
    },
    {
      "anonymous": false,
      "inputs": [
        {
          "indexed": false,
          "internalType": "string",
          "name": "value",
          "type": "string"
        },
        {
          "indexed": true,
          "internalType": "uint256",
          "name": "id",
          "type": "uint256"
        }
      ],
      "name": "URI",
      "type": "event"
    },
    {
      "anonymous": false,
      "inputs": [
        {
          "indexed": false,
          "internalType": "address",
          "name": "account",
          "type": "address"
        }
      ],
      "name": "Unpaused",
      "type": "event"
    },
    {
      "inputs": [],
      "name": "DEFAULT_ADMIN_ROLE",
      "outputs": [
        {
          "internalType": "bytes32",
          "name": "",
          "type": "bytes32"
        }
      ],
      "stateMutability": "view",
      "type": "function"
    },
    {
      "inputs": [],
      "name": "MINTER_ROLE",
      "outputs": [
        {
          "internalType": "bytes32",
          "name": "",
          "type": "bytes32"
        }
      ],
      "stateMutability": "view",
      "type": "function"
    },
    {
      "inputs": [],
      "name": "PAUSER_ROLE",
      "outputs": [
        {
          "internalType": "bytes32",
          "name": "",
          "type": "bytes32"
        }
      ],
      "stateMutability": "view",
      "type": "function"
    },
    {
      "inputs": [],
      "name": "TRANSFER_ROLE",
      "outputs": [
        {
          "internalType": "bytes32",
          "name": "",
          "type": "bytes32"
        }
      ],
      "stateMutability": "view",
      "type": "function"
    },
    {
      "inputs": [],
      "name": "_contractURI",
      "outputs": [
        {
          "internalType": "string",
          "name": "",
          "type": "string"
        }
      ],
      "stateMutability": "view",
      "type": "function"
    },
    {
      "inputs": [
        {
          "internalType": "address",
          "name": "account",
          "type": "address"
        },
        {
          "internalType": "uint256",
          "name": "id",
          "type": "uint256"
        }
      ],
      "name": "balanceOf",
      "outputs": [
        {
          "internalType": "uint256",
          "name": "",
          "type": "uint256"
        }
      ],
      "stateMutability": "view",
      "type": "function"
    },
    {
      "inputs": [
        {
          "internalType": "address[]",
          "name": "accounts",
          "type": "address[]"
        },
        {
          "internalType": "uint256[]",
          "name": "ids",
          "type": "uint256[]"
        }
      ],
      "name": "balanceOfBatch",
      "outputs": [
        {
          "internalType": "uint256[]",
          "name": "",
          "type": "uint256[]"
        }
      ],
      "stateMutability": "view",
      "type": "function"
    },
    {
      "inputs": [
        {
          "internalType": "address",
          "name": "account",
          "type": "address"
        },
        {
          "internalType": "uint256",
          "name": "id",
          "type": "uint256"
        },
        {
          "internalType": "uint256",
          "name": "value",
          "type": "uint256"
        }
      ],
      "name": "burn",
      "outputs": [],
      "stateMutability": "nonpayable",
      "type": "function"
    },
    {
      "inputs": [
        {
          "internalType": "address",
          "name": "account",
          "type": "address"
        },
        {
          "internalType": "uint256[]",
          "name": "ids",
          "type": "uint256[]"
        },
        {
          "internalType": "uint256[]",
          "name": "values",
          "type": "uint256[]"
        }
      ],
      "name": "burnBatch",
      "outputs": [],
      "stateMutability": "nonpayable",
      "type": "function"
    },
    {
      "inputs": [],
      "name": "contractURI",
      "outputs": [
        {
          "internalType": "string",
          "name": "",
          "type": "string"
        }
      ],
      "stateMutability": "view",
      "type": "function"
    },
    {
      "inputs": [
        {
          "internalType": "string[]",
          "name": "_nftURIs",
          "type": "string[]"
        },
        {
          "internalType": "uint256[]",
          "name": "_nftSupplies",
          "type": "uint256[]"
        }
      ],
      "name": "createNativeTokens",
      "outputs": [
        {
          "internalType": "uint256[]",
          "name": "nftIds",
          "type": "uint256[]"
        }
      ],
      "stateMutability": "nonpayable",
      "type": "function"
    },
    {
      "inputs": [
        {
          "internalType": "address",
          "name": "_pack",
          "type": "address"
        },
        {
          "internalType": "string[]",
          "name": "_nftURIs",
          "type": "string[]"
        },
        {
          "internalType": "uint256[]",
          "name": "_nftSupplies",
          "type": "uint256[]"
        },
        {
          "internalType": "string",
          "name": "_packURI",
          "type": "string"
        },
        {
          "internalType": "uint256",
          "name": "_secondsUntilOpenStart",
          "type": "uint256"
        },
        {
          "internalType": "uint256",
          "name": "_secondsUntilOpenEnd",
          "type": "uint256"
        },
        {
          "internalType": "uint256",
          "name": "_nftsPerOpen",
          "type": "uint256"
        }
      ],
      "name": "createPackAtomic",
      "outputs": [],
      "stateMutability": "nonpayable",
      "type": "function"
    },
    {
      "inputs": [
        {
          "internalType": "uint256",
          "name": "_nftId",
          "type": "uint256"
        }
      ],
      "name": "creator",
      "outputs": [
        {
          "internalType": "address",
          "name": "",
          "type": "address"
        }
      ],
      "stateMutability": "view",
      "type": "function"
    },
    {
      "inputs": [
        {
          "internalType": "uint256",
          "name": "",
          "type": "uint256"
        }
      ],
      "name": "erc20WrappedTokens",
      "outputs": [
        {
          "internalType": "address",
          "name": "source",
          "type": "address"
        },
        {
          "internalType": "uint256",
          "name": "shares",
          "type": "uint256"
        },
        {
          "internalType": "uint256",
          "name": "underlyingTokenAmount",
          "type": "uint256"
        }
      ],
      "stateMutability": "view",
      "type": "function"
    },
    {
      "inputs": [
        {
          "internalType": "uint256",
          "name": "",
          "type": "uint256"
        }
      ],
      "name": "erc721WrappedTokens",
      "outputs": [
        {
          "internalType": "address",
          "name": "source",
          "type": "address"
        },
        {
          "internalType": "uint256",
          "name": "tokenId",
          "type": "uint256"
        }
      ],
      "stateMutability": "view",
      "type": "function"
    },
    {
      "inputs": [
        {
          "internalType": "bytes32",
          "name": "role",
          "type": "bytes32"
        }
      ],
      "name": "getRoleAdmin",
      "outputs": [
        {
          "internalType": "bytes32",
          "name": "",
          "type": "bytes32"
        }
      ],
      "stateMutability": "view",
      "type": "function"
    },
    {
      "inputs": [
        {
          "internalType": "bytes32",
          "name": "role",
          "type": "bytes32"
        },
        {
          "internalType": "uint256",
          "name": "index",
          "type": "uint256"
        }
      ],
      "name": "getRoleMember",
      "outputs": [
        {
          "internalType": "address",
          "name": "",
          "type": "address"
        }
      ],
      "stateMutability": "view",
      "type": "function"
    },
    {
      "inputs": [
        {
          "internalType": "bytes32",
          "name": "role",
          "type": "bytes32"
        }
      ],
      "name": "getRoleMemberCount",
      "outputs": [
        {
          "internalType": "uint256",
          "name": "",
          "type": "uint256"
        }
      ],
      "stateMutability": "view",
      "type": "function"
    },
    {
      "inputs": [
        {
          "internalType": "bytes32",
          "name": "role",
          "type": "bytes32"
        },
        {
          "internalType": "address",
          "name": "account",
          "type": "address"
        }
      ],
      "name": "grantRole",
      "outputs": [],
      "stateMutability": "nonpayable",
      "type": "function"
    },
    {
      "inputs": [
        {
          "internalType": "bytes32",
          "name": "role",
          "type": "bytes32"
        },
        {
          "internalType": "address",
          "name": "account",
          "type": "address"
        }
      ],
      "name": "hasRole",
      "outputs": [
        {
          "internalType": "bool",
          "name": "",
          "type": "bool"
        }
      ],
      "stateMutability": "view",
      "type": "function"
    },
    {
      "inputs": [
        {
          "internalType": "address",
          "name": "account",
          "type": "address"
        },
        {
          "internalType": "address",
          "name": "operator",
          "type": "address"
        }
      ],
      "name": "isApprovedForAll",
      "outputs": [
        {
          "internalType": "bool",
          "name": "",
          "type": "bool"
        }
      ],
      "stateMutability": "view",
      "type": "function"
    },
    {
      "inputs": [
        {
          "internalType": "address",
          "name": "forwarder",
          "type": "address"
        }
      ],
      "name": "isTrustedForwarder",
      "outputs": [
        {
          "internalType": "bool",
          "name": "",
          "type": "bool"
        }
      ],
      "stateMutability": "view",
      "type": "function"
    },
    {
      "inputs": [
        {
          "internalType": "address",
          "name": "to",
          "type": "address"
        },
        {
          "internalType": "uint256",
          "name": "id",
          "type": "uint256"
        },
        {
          "internalType": "uint256",
          "name": "amount",
          "type": "uint256"
        },
        {
          "internalType": "bytes",
          "name": "data",
          "type": "bytes"
        }
      ],
      "name": "mint",
      "outputs": [],
      "stateMutability": "nonpayable",
      "type": "function"
    },
    {
      "inputs": [
        {
          "internalType": "address",
          "name": "to",
          "type": "address"
        },
        {
          "internalType": "uint256[]",
          "name": "ids",
          "type": "uint256[]"
        },
        {
          "internalType": "uint256[]",
          "name": "amounts",
          "type": "uint256[]"
        },
        {
          "internalType": "bytes",
          "name": "data",
          "type": "bytes"
        }
      ],
      "name": "mintBatch",
      "outputs": [],
      "stateMutability": "nonpayable",
      "type": "function"
    },
    {
      "inputs": [],
      "name": "nextTokenId",
      "outputs": [
        {
          "internalType": "uint256",
          "name": "",
          "type": "uint256"
        }
      ],
      "stateMutability": "view",
      "type": "function"
    },
    {
      "inputs": [
        {
          "internalType": "address",
          "name": "",
          "type": "address"
        },
        {
          "internalType": "address",
          "name": "",
          "type": "address"
        },
        {
          "internalType": "uint256[]",
          "name": "",
          "type": "uint256[]"
        },
        {
          "internalType": "uint256[]",
          "name": "",
          "type": "uint256[]"
        },
        {
          "internalType": "bytes",
          "name": "",
          "type": "bytes"
        }
      ],
      "name": "onERC1155BatchReceived",
      "outputs": [
        {
          "internalType": "bytes4",
          "name": "",
          "type": "bytes4"
        }
      ],
      "stateMutability": "nonpayable",
      "type": "function"
    },
    {
      "inputs": [
        {
          "internalType": "address",
          "name": "",
          "type": "address"
        },
        {
          "internalType": "address",
          "name": "",
          "type": "address"
        },
        {
          "internalType": "uint256",
          "name": "",
          "type": "uint256"
        },
        {
          "internalType": "uint256",
          "name": "",
          "type": "uint256"
        },
        {
          "internalType": "bytes",
          "name": "",
          "type": "bytes"
        }
      ],
      "name": "onERC1155Received",
      "outputs": [
        {
          "internalType": "bytes4",
          "name": "",
          "type": "bytes4"
        }
      ],
      "stateMutability": "nonpayable",
      "type": "function"
    },
    {
      "inputs": [
        {
          "internalType": "address",
          "name": "",
          "type": "address"
        },
        {
          "internalType": "address",
          "name": "",
          "type": "address"
        },
        {
          "internalType": "uint256",
          "name": "",
          "type": "uint256"
        },
        {
          "internalType": "bytes",
          "name": "",
          "type": "bytes"
        }
      ],
      "name": "onERC721Received",
      "outputs": [
        {
          "internalType": "bytes4",
          "name": "",
          "type": "bytes4"
        }
      ],
      "stateMutability": "nonpayable",
      "type": "function"
    },
    {
      "inputs": [],
      "name": "pause",
      "outputs": [],
      "stateMutability": "nonpayable",
      "type": "function"
    },
    {
      "inputs": [],
      "name": "paused",
      "outputs": [
        {
          "internalType": "bool",
          "name": "",
          "type": "bool"
        }
      ],
      "stateMutability": "view",
      "type": "function"
    },
    {
      "inputs": [
        {
          "internalType": "uint256",
          "name": "_nftId",
          "type": "uint256"
        },
        {
          "internalType": "uint256",
          "name": "_amount",
          "type": "uint256"
        }
      ],
      "name": "redeemERC20",
      "outputs": [],
      "stateMutability": "nonpayable",
      "type": "function"
    },
    {
      "inputs": [
        {
          "internalType": "uint256",
          "name": "_nftId",
          "type": "uint256"
        }
      ],
      "name": "redeemERC721",
      "outputs": [],
      "stateMutability": "nonpayable",
      "type": "function"
    },
    {
      "inputs": [
        {
          "internalType": "bytes32",
          "name": "role",
          "type": "bytes32"
        },
        {
          "internalType": "address",
          "name": "account",
          "type": "address"
        }
      ],
      "name": "renounceRole",
      "outputs": [],
      "stateMutability": "nonpayable",
      "type": "function"
    },
    {
      "inputs": [
        {
          "internalType": "bytes32",
          "name": "role",
          "type": "bytes32"
        },
        {
          "internalType": "address",
          "name": "account",
          "type": "address"
        }
      ],
      "name": "revokeRole",
      "outputs": [],
      "stateMutability": "nonpayable",
      "type": "function"
    },
    {
      "inputs": [],
      "name": "royaltyBps",
      "outputs": [
        {
          "internalType": "uint256",
          "name": "",
          "type": "uint256"
        }
      ],
      "stateMutability": "view",
      "type": "function"
    },
    {
      "inputs": [
        {
          "internalType": "uint256",
          "name": "",
          "type": "uint256"
        },
        {
          "internalType": "uint256",
          "name": "salePrice",
          "type": "uint256"
        }
      ],
      "name": "royaltyInfo",
      "outputs": [
        {
          "internalType": "address",
          "name": "receiver",
          "type": "address"
        },
        {
          "internalType": "uint256",
          "name": "royaltyAmount",
          "type": "uint256"
        }
      ],
      "stateMutability": "view",
      "type": "function"
    },
    {
      "inputs": [
        {
          "internalType": "address",
          "name": "from",
          "type": "address"
        },
        {
          "internalType": "address",
          "name": "to",
          "type": "address"
        },
        {
          "internalType": "uint256[]",
          "name": "ids",
          "type": "uint256[]"
        },
        {
          "internalType": "uint256[]",
          "name": "amounts",
          "type": "uint256[]"
        },
        {
          "internalType": "bytes",
          "name": "data",
          "type": "bytes"
        }
      ],
      "name": "safeBatchTransferFrom",
      "outputs": [],
      "stateMutability": "nonpayable",
      "type": "function"
    },
    {
      "inputs": [
        {
          "internalType": "address",
          "name": "from",
          "type": "address"
        },
        {
          "internalType": "address",
          "name": "to",
          "type": "address"
        },
        {
          "internalType": "uint256",
          "name": "id",
          "type": "uint256"
        },
        {
          "internalType": "uint256",
          "name": "amount",
          "type": "uint256"
        },
        {
          "internalType": "bytes",
          "name": "data",
          "type": "bytes"
        }
      ],
      "name": "safeTransferFrom",
      "outputs": [],
      "stateMutability": "nonpayable",
      "type": "function"
    },
    {
      "inputs": [
        {
          "internalType": "address",
          "name": "operator",
          "type": "address"
        },
        {
          "internalType": "bool",
          "name": "approved",
          "type": "bool"
        }
      ],
      "name": "setApprovalForAll",
      "outputs": [],
      "stateMutability": "nonpayable",
      "type": "function"
    },
    {
      "inputs": [
        {
          "internalType": "string",
          "name": "_URI",
          "type": "string"
        }
      ],
      "name": "setContractURI",
      "outputs": [],
      "stateMutability": "nonpayable",
      "type": "function"
    },
    {
      "inputs": [
        {
          "internalType": "bool",
          "name": "_restrictedTransfer",
          "type": "bool"
        }
      ],
      "name": "setRestrictedTransfer",
      "outputs": [],
      "stateMutability": "nonpayable",
      "type": "function"
    },
    {
      "inputs": [
        {
          "internalType": "uint256",
          "name": "_royaltyBps",
          "type": "uint256"
        }
      ],
      "name": "setRoyaltyBps",
      "outputs": [],
      "stateMutability": "nonpayable",
      "type": "function"
    },
    {
      "inputs": [
        {
          "internalType": "bytes4",
          "name": "interfaceId",
          "type": "bytes4"
        }
      ],
      "name": "supportsInterface",
      "outputs": [
        {
          "internalType": "bool",
          "name": "",
          "type": "bool"
        }
      ],
      "stateMutability": "view",
      "type": "function"
    },
    {
      "inputs": [
        {
          "internalType": "uint256",
          "name": "",
          "type": "uint256"
        }
      ],
      "name": "tokenState",
      "outputs": [
        {
          "internalType": "address",
          "name": "creator",
          "type": "address"
        },
        {
          "internalType": "string",
          "name": "uri",
          "type": "string"
        },
        {
          "internalType": "enum NFTCollection.UnderlyingType",
          "name": "underlyingType",
          "type": "uint8"
        }
      ],
      "stateMutability": "view",
      "type": "function"
    },
    {
      "inputs": [
        {
          "internalType": "uint256",
          "name": "_nftId",
          "type": "uint256"
        }
      ],
      "name": "tokenURI",
      "outputs": [
        {
          "internalType": "string",
          "name": "",
          "type": "string"
        }
      ],
      "stateMutability": "view",
      "type": "function"
    },
    {
      "inputs": [
        {
          "internalType": "uint256",
          "name": "id",
          "type": "uint256"
        }
      ],
      "name": "totalSupply",
      "outputs": [
        {
          "internalType": "uint256",
          "name": "",
          "type": "uint256"
        }
      ],
      "stateMutability": "view",
      "type": "function"
    },
    {
      "inputs": [],
      "name": "transfersRestricted",
      "outputs": [
        {
          "internalType": "bool",
          "name": "",
          "type": "bool"
        }
      ],
      "stateMutability": "view",
      "type": "function"
    },
    {
      "inputs": [],
      "name": "unpause",
      "outputs": [],
      "stateMutability": "nonpayable",
      "type": "function"
    },
    {
      "inputs": [
        {
          "internalType": "uint256",
          "name": "_nftId",
          "type": "uint256"
        }
      ],
      "name": "uri",
      "outputs": [
        {
          "internalType": "string",
          "name": "",
          "type": "string"
        }
      ],
      "stateMutability": "view",
      "type": "function"
    },
    {
      "inputs": [
        {
          "internalType": "address",
          "name": "_tokenContract",
          "type": "address"
        },
        {
          "internalType": "uint256",
          "name": "_tokenAmount",
          "type": "uint256"
        },
        {
          "internalType": "uint256",
          "name": "_numOfNftsToMint",
          "type": "uint256"
        },
        {
          "internalType": "string",
          "name": "_nftURI",
          "type": "string"
        }
      ],
      "name": "wrapERC20",
      "outputs": [],
      "stateMutability": "nonpayable",
      "type": "function"
    },
    {
      "inputs": [
        {
          "internalType": "address",
          "name": "_nftContract",
          "type": "address"
        },
        {
          "internalType": "uint256",
          "name": "_tokenId",
          "type": "uint256"
        },
        {
          "internalType": "string",
          "name": "_nftURI",
          "type": "string"
        }
      ],
      "name": "wrapERC721",
      "outputs": [],
      "stateMutability": "nonpayable",
      "type": "function"
    }
  ],
  "bytecode": "0x60806040523480156200001157600080fd5b506040516200620c3803806200620c8339810160408190526200003491620003fc565b81818062000042816200013f565b506005805460ff191690556200006360006200005d62000158565b62000175565b620000927f9f2df0fed2c77648de5860a4cc508cd0818c85b8b8a1ab4ceeef8d981c8956a66200005d62000158565b620000c17f65d7a28e3265b37a6474929f336521b332c1681b933f6cb9f3376673440d862a6200005d62000158565b50600780546001600160a01b03199081166001600160a01b03938416179091556008805490911691851691909117905580516200010690600b90602084019062000356565b50620001367f8502233096d909befbda0999bb8ea2f3a6be3c138b9fbf003752a4c8bce86f6c6200005d62000158565b50505062000565565b80516200015490600490602084019062000356565b5050565b60006200016f620001b860201b620029141760201c565b90505b90565b6200018c8282620001f860201b620029421760201c565b6000828152600160209081526040909120620001b39183906200295062000204821b17901c565b505050565b6000620001c53362000224565b15620001db575060131936013560601c62000172565b620001f06200023860201b620029651760201c565b905062000172565b6200015482826200023c565b60006200021b836001600160a01b038416620002c6565b90505b92915050565b6007546001600160a01b0390811691161490565b3390565b62000248828262000315565b62000154576000828152602081815260408083206001600160a01b03851684529091529020805460ff191660011790556200028262000158565b6001600160a01b0316816001600160a01b0316837f2f8788117e7eff1d82e926ec794901d17c78024a50270940304540a733656f0d60405160405180910390a45050565b6000620002d483836200033e565b6200030c575081546001818101845560008481526020808220909301849055845484825282860190935260409020919091556200021e565b5060006200021e565b6000918252602082815260408084206001600160a01b0393909316845291905290205460ff1690565b60009081526001919091016020526040902054151590565b8280546200036490620004f9565b90600052602060002090601f016020900481019282620003885760008555620003d3565b82601f10620003a357805160ff1916838001178555620003d3565b82800160010185558215620003d3579182015b82811115620003d3578251825591602001919060010190620003b6565b50620003e1929150620003e5565b5090565b5b80821115620003e15760008155600101620003e6565b60008060006060848603121562000411578283fd5b83516200041e816200054c565b8093505060208085015162000433816200054c565b60408601519093506001600160401b038082111562000450578384fd5b818701915087601f83011262000464578384fd5b81518181111562000479576200047962000536565b604051601f8201601f19168101850183811182821017156200049f576200049f62000536565b60405281815283820185018a1015620004b6578586fd5b8592505b81831015620004d95783830185015181840186015291840191620004ba565b81831115620004ea57858583830101525b80955050505050509250925092565b6002810460018216806200050e57607f821691505b602082108114156200053057634e487b7160e01b600052602260045260246000fd5b50919050565b634e487b7160e01b600052604160045260246000fd5b6001600160a01b03811681146200056257600080fd5b50565b615c9780620005756000396000f3fe608060405234801561001057600080fd5b50600436106103405760003560e01c80637a61080b116101bd578063c0e72740116100f9578063db884b0c116100a2578063e985e9c51161007c578063e985e9c5146106b0578063f23a6e61146106c3578063f242432a146106d6578063f5298aca146106e957610340565b8063db884b0c1461068d578063e63ab1e9146106a0578063e8a3d485146106a857610340565b8063ca15c873116100d3578063ca15c8731461065f578063d539139314610672578063d547741f1461067a57610340565b8063c0e727401461064f578063c63adb2b14610657578063c87b56dd146103a357610340565b8063938e3d7b11610166578063a217fddf11610140578063a217fddf1461060e578063a22cb46514610616578063bc197c8114610629578063bd85b0391461063c57610340565b8063938e3d7b146105c657806393b778d4146105d95780639745cc3d146105ec57610340565b80638ba448c2116101975780638ba448c21461058d5780639010d07c146105a057806391d14854146105b357610340565b80637a61080b1461056a5780638423df791461057d5780638456cb591461058557610340565b806336568abe1161028c578063572b6c05116102355780636b20c4541161020f5780636b20c45414610529578063731133e91461053c57806375794a3c1461054f578063788f1f5e1461055757610340565b8063572b6c05146104ec5780635c975abb146104ff5780635cd9913d1461050757610340565b806349a13fdf1161026657806349a13fdf146104995780634e1273f4146104b9578063510b5158146104cc57610340565b806336568abe1461046b578063367a182b1461047e5780633f4ba83a1461049157610340565b80631f7fdffa116102ee5780632a55205a116102c85780632a55205a146104245780632eb2c2d6146104455780632f2ff15d1461045857610340565b80631f7fdffa146103f6578063206b60f914610409578063248a9ca31461041157610340565b80630e89341c1161031f5780630e89341c146103a3578063150b7a02146103c35780631f72d831146103e357610340565b8062fdd58e1461034557806301ffc9a71461036e578063090a32821461038e575b600080fd5b610358610353366004614473565b6106fc565b6040516103659190614c35565b60405180910390f35b61038161037c3660046147a7565b610758565b6040516103659190614c2a565b6103a161039c36600461449e565b610783565b005b6103b66103b1366004614732565b610c64565b6040516103659190614c9b565b6103d66103d13660046141b4565b610d09565b6040516103659190614c55565b6103a16103f1366004614732565b610d19565b6103a16104043660046143bb565b610fb5565b6103586110e4565b61035861041f366004614732565b611108565b610437610432366004614786565b61111d565b604051610365929190614af0565b6103a161045336600461410a565b611261565b6103a1610466366004614762565b6112bf565b6103a1610479366004614762565b6112e6565b61043761048c366004614732565b611308565b6103a161132d565b6104ac6104a736600461469d565b61137f565b6040516103659190614b2a565b6104ac6104c73660046145dd565b61170b565b6104df6104da366004614732565b61182b565b60405161036591906149ad565b6103816104fa36600461409a565b611846565b61038161185a565b61051a610515366004614732565b611864565b60405161036593929190614b09565b6103a1610537366004614348565b61188f565b6103a161054a36600461452c565b6118e4565b610358611969565b6103a1610565366004614285565b61196f565b6103a1610578366004614786565b611aec565b610381611c6a565b6103a1611c73565b6103a161059b3660046146fa565b611cc3565b6104df6105ae366004614786565b611dec565b6103816105c1366004614762565b611e0b565b6103a16105d43660046147df565b611e34565b6103a16105e7366004614732565b611f56565b6105ff6105fa366004614732565b612074565b60405161036593929190614aa0565b61035861212c565b6103a1610624366004614446565b612131565b6103d661063736600461410a565b6121f3565b61035861064a366004614732565b612204565b6103b6612216565b6103586122a4565b61035861066d366004614732565b6122aa565b6103586122c1565b6103a1610688366004614762565b6122e5565b6103a161069b366004614575565b6122ef565b610358612773565b6103b6612797565b6103816106be3660046140d2565b612829565b6103d66106d136600461421e565b612857565b6103a16106e436600461421e565b612868565b6103a16106f73660046144f8565b6128bf565b60006001600160a01b03831661072d5760405162461bcd60e51b815260040161072490614e8e565b60405180910390fd5b5060008181526002602090815260408083206001600160a01b03861684529091529020545b92915050565b600061076382612969565b8061075257506001600160e01b0319821663152a902d60e11b1492915050565b600860009054906101000a90046001600160a01b03166001600160a01b0316639d2f83f06040518163ffffffff1660e01b815260040160206040518083038186803b1580156107d157600080fd5b505afa1580156107e5573d6000803e3d6000fd5b505050506040513d601f19601f820116820180604052508101906108099190614716565b156108265760405162461bcd60e51b8152600401610724906154ae565b6108527f9f2df0fed2c77648de5860a4cc508cd0818c85b8b8a1ab4ceeef8d981c8956a66105c1612974565b61086e5760405162461bcd60e51b81526004016107249061532e565b610876612974565b6001600160a01b0316846001600160a01b0316636352211e856040518263ffffffff1660e01b81526004016108ab9190614c35565b60206040518083038186803b1580156108c357600080fd5b505afa1580156108d7573d6000803e3d6000fd5b505050506040513d601f19601f820116820180604052508101906108fb91906140b6565b6001600160a01b0316146109215760405162461bcd60e51b815260040161072490615796565b60405163020604bf60e21b815230906001600160a01b0386169063081812fc9061094f908790600401614c35565b60206040518083038186803b15801561096757600080fd5b505afa15801561097b573d6000803e3d6000fd5b505050506040513d601f19601f8201168201806040525081019061099f91906140b6565b6001600160a01b03161480610a345750836001600160a01b031663e985e9c56109c6612974565b306040518363ffffffff1660e01b81526004016109e49291906149c1565b60206040518083038186803b1580156109fc57600080fd5b505afa158015610a10573d6000803e3d6000fd5b505050506040513d601f19601f82011682018060405250810190610a349190614716565b610a505760405162461bcd60e51b815260040161072490614fe9565b6000610a5a612974565b600980549192506001906000610a708385615a70565b9091555050604051632142170760e11b81526001600160a01b038716906342842e0e90610aa590859030908a90600401614a39565b600060405180830381600087803b158015610abf57600080fd5b505af1158015610ad3573d6000803e3d6000fd5b50505050610af38282600160405180602001604052806000815250612983565b6040518060600160405280836001600160a01b0316815260200185858080601f01602080910402602001604051908101604052809392919081815260200183838082843760009201829052509385525050600260209384015250838152600d825260409020825181546001600160a01b0319166001600160a01b039091161781558282015180519192610b8e92600185019290910190613e2d565b5060408201518160020160006101000a81548160ff02191690836002811115610bc757634e487b7160e01b600052602160045260246000fd5b0217905550506040805180820182526001600160a01b0389811680835260208084018b81526000888152600e90925290859020935184546001600160a01b031916908416178455516001909301929092559151909250908416907f797091bed1dcc535a592c3da1115fdb7467204ef9fb70943f0fc855ebe0a30f590610c5490899086908a908a90615959565b60405180910390a3505050505050565b6000818152600d60205260409020600101805460609190610c8490615b21565b80601f0160208091040260200160405190810160405280929190818152602001828054610cb090615b21565b8015610cfd5780601f10610cd257610100808354040283529160200191610cfd565b820191906000526020600020905b815481529060010190602001808311610ce057829003601f168201915b50505050509050919050565b630a85bd0160e11b949350505050565b60085460408051634a32c6bf60e11b815290516001600160a01b03909216916391d148549183916394658d7e91600480820192602092909190829003018186803b158015610d6657600080fd5b505afa158015610d7a573d6000803e3d6000fd5b505050506040513d601f19601f82011682018060405250810190610d9e919061474a565b610da6612974565b6040518363ffffffff1660e01b8152600401610dc3929190614c3e565b60206040518083038186803b158015610ddb57600080fd5b505afa158015610def573d6000803e3d6000fd5b505050506040513d601f19601f82011682018060405250810190610e139190614716565b610e2f5760405162461bcd60e51b815260040161072490615622565b600860009054906101000a90046001600160a01b03166001600160a01b0316635cd423156040518163ffffffff1660e01b815260040160206040518083038186803b158015610e7d57600080fd5b505afa158015610e91573d6000803e3d6000fd5b505050506040513d601f19601f82011682018060405250810190610eb5919061481f565b600860009054906101000a90046001600160a01b03166001600160a01b031663fd967f476040518163ffffffff1660e01b815260040160206040518083038186803b158015610f0357600080fd5b505afa158015610f17573d6000803e3d6000fd5b505050506040513d601f19601f82011682018060405250810190610f3b919061481f565b610f459190615a3c565b6fffffffffffffffffffffffffffffffff168110610f755760405162461bcd60e51b815260040161072490614dd4565b600a8190556040517f244ea8d7627f5a08f4299862bd5a45752842c183aee5b0fb0d1e4887bfa605b390610faa908390614c35565b60405180910390a150565b60018060005b855181101561109557600954868281518110610fe757634e487b7160e01b600052603260045260246000fd5b602002602001015110158015610ffa5750825b1561100457600092505b6000600d600088848151811061102a57634e487b7160e01b600052603260045260246000fd5b6020026020010151815260200190815260200160002060020160009054906101000a900460ff16600281111561107057634e487b7160e01b600052602160045260246000fd5b1415801561107b5750815b1561108557600091505b61108e81615b5c565b9050610fbb565b50816110b35760405162461bcd60e51b815260040161072490614e31565b806110d05760405162461bcd60e51b815260040161072490614eeb565b6110dc868686866129b8565b505050505050565b7f8502233096d909befbda0999bb8ea2f3a6be3c138b9fbf003752a4c8bce86f6c81565b60009081526020819052604090206001015490565b600080600860009054906101000a90046001600160a01b03166001600160a01b0316630f603ed36040518163ffffffff1660e01b815260040160206040518083038186803b15801561116e57600080fd5b505afa158015611182573d6000803e3d6000fd5b505050506040513d601f19601f820116820180604052508101906111a691906140b6565b9150600860009054906101000a90046001600160a01b03166001600160a01b031663fd967f476040518163ffffffff1660e01b815260040160206040518083038186803b1580156111f657600080fd5b505afa15801561120a573d6000803e3d6000fd5b505050506040513d601f19601f8201168201806040525081019061122e919061481f565b6fffffffffffffffffffffffffffffffff16600a548461124e9190615aa8565b6112589190615a88565b90509250929050565b611269612974565b6001600160a01b0316856001600160a01b0316148061128f575061128f856106be612974565b6112ab5760405162461bcd60e51b8152600401610724906152d1565b6112b88585858585612a0c565b5050505050565b6112c98282612bd8565b60008281526001602052604090206112e19082612950565b505050565b6112f08282612bfc565b60008281526001602052604090206112e19082612c3e565b600e60205260009081526040902080546001909101546001600160a01b039091169082565b6113597f65d7a28e3265b37a6474929f336521b332c1681b933f6cb9f3376673440d862a6105c1612974565b6113755760405162461bcd60e51b815260040161072490615568565b61137d612c53565b565b600854604080516309d2f83f60e41b815290516060926001600160a01b031691639d2f83f0916004808301926020929190829003018186803b1580156113c457600080fd5b505afa1580156113d8573d6000803e3d6000fd5b505050506040513d601f19601f820116820180604052508101906113fc9190614716565b156114195760405162461bcd60e51b8152600401610724906154ae565b6114457f9f2df0fed2c77648de5860a4cc508cd0818c85b8b8a1ab4ceeef8d981c8956a66105c1612974565b6114615760405162461bcd60e51b81526004016107249061532e565b8382146114805760405162461bcd60e51b8152600401610724906151e0565b8361149d5760405162461bcd60e51b8152600401610724906157f3565b60006114a7612974565b90508467ffffffffffffffff8111156114d057634e487b7160e01b600052604160045260246000fd5b6040519080825280602002602001820160405280156114f9578160200160208202803683370190505b5060095490925060005b86811015611664578184828151811061152c57634e487b7160e01b600052603260045260246000fd5b6020026020010181815250506040518060600160405280846001600160a01b0316815260200189898481811061157257634e487b7160e01b600052603260045260246000fd5b905060200281019061158491906159a9565b8080601f01602080910402602001604051908101604052809392919081815260200183838082843760009201829052509385525050506020918201819052848152600d825260409020825181546001600160a01b0319166001600160a01b03909116178155828201518051919261160392600185019290910190613e2d565b5060408201518160020160006101000a81548160ff0219169083600281111561163c57634e487b7160e01b600052602160045260246000fd5b021790555061165091506001905083615a70565b91508061165c81615b5c565b915050611503565b50806009819055506116b88284878780806020026020016040519081016040528093929190818152602001838360200280828437600092018290525060408051602081019091529081529250612cc1915050565b816001600160a01b03167fbea5a4b7cf9a3f7d8bf7c987614db5dcfdcd917a2cd5788a210c0ebdccfc5da484898989896040516116f9959493929190614b3d565b60405180910390a25050949350505050565b6060815183511461172e5760405162461bcd60e51b8152600401610724906156dc565b6000835167ffffffffffffffff81111561175857634e487b7160e01b600052604160045260246000fd5b604051908082528060200260200182016040528015611781578160200160208202803683370190505b50905060005b8451811015611823576117e88582815181106117b357634e487b7160e01b600052603260045260246000fd5b60200260200101518583815181106117db57634e487b7160e01b600052603260045260246000fd5b60200260200101516106fc565b82828151811061180857634e487b7160e01b600052603260045260246000fd5b602090810291909101015261181c81615b5c565b9050611787565b509392505050565b6000908152600d60205260409020546001600160a01b031690565b6007546001600160a01b0390811691161490565b60055460ff165b90565b600f602052600090815260409020805460018201546002909201546001600160a01b03909116919083565b611897612974565b6001600160a01b0316836001600160a01b031614806118bd57506118bd836106be612974565b6118d95760405162461bcd60e51b815260040161072490615100565b6112e1838383612d60565b60095483106119055760405162461bcd60e51b815260040161072490614e31565b6000838152600d6020526040812060029081015460ff169081111561193a57634e487b7160e01b600052602160045260246000fd5b146119575760405162461bcd60e51b815260040161072490614eeb565b61196384848484612dfe565b50505050565b60095481565b600860009054906101000a90046001600160a01b03166001600160a01b0316639d2f83f06040518163ffffffff1660e01b815260040160206040518083038186803b1580156119bd57600080fd5b505afa1580156119d1573d6000803e3d6000fd5b505050506040513d601f19601f820116820180604052508101906119f59190614716565b15611a125760405162461bcd60e51b8152600401610724906154ae565b611a3e7f9f2df0fed2c77648de5860a4cc508cd0818c85b8b8a1ab4ceeef8d981c8956a66105c1612974565b611a5a5760405162461bcd60e51b81526004016107249061532e565b6000611a688a8a8a8a61137f565b905060008686868686604051602001611a85959493929190614c6a565b6040516020818303038152906040529050611ade611aa1612974565b8d848c8c80806020026020016040519081016040528093929190818152602001838360200280828437600092019190915250889250611261915050565b505050505050505050505050565b6000611af6612974565b905081611b0382856106fc565b1015611b215760405162461bcd60e51b815260040161072490615739565b611b2c818484612e52565b6000838152600f602052604081206001810154600290910154611b50908590615aa8565b611b5a9190615a88565b6000858152600f60205260409081902054905163a9059cbb60e01b81529192506001600160a01b03169063a9059cbb90611b9a9085908590600401614af0565b602060405180830381600087803b158015611bb457600080fd5b505af1158015611bc8573d6000803e3d6000fd5b505050506040513d601f19601f82011682018060405250810190611bec9190614716565b611c085760405162461bcd60e51b815260040161072490614f48565b6000848152600f6020526040908190205490516001600160a01b03918216918691908516907fb80333a30b48beb3745280a5e4bb1b8e53f79569e454ec99ba13678dfbe728eb90611c5c908690899061594b565b60405180910390a450505050565b600c5460ff1681565b611c9f7f65d7a28e3265b37a6474929f336521b332c1681b933f6cb9f3376673440d862a6105c1612974565b611cbb5760405162461bcd60e51b8152600401610724906155c5565b61137d612e85565b60085460408051634a32c6bf60e11b815290516001600160a01b03909216916391d148549183916394658d7e91600480820192602092909190829003018186803b158015611d1057600080fd5b505afa158015611d24573d6000803e3d6000fd5b505050506040513d601f19601f82011682018060405250810190611d48919061474a565b611d50612974565b6040518363ffffffff1660e01b8152600401611d6d929190614c3e565b60206040518083038186803b158015611d8557600080fd5b505afa158015611d99573d6000803e3d6000fd5b505050506040513d601f19601f82011682018060405250810190611dbd9190614716565b611dd95760405162461bcd60e51b815260040161072490615622565b600c805460ff1916911515919091179055565b6000828152600160205260408120611e049083612ee0565b9392505050565b6000918252602082815260408084206001600160a01b0393909316845291905290205460ff1690565b60085460408051634a32c6bf60e11b815290516001600160a01b03909216916391d148549183916394658d7e91600480820192602092909190829003018186803b158015611e8157600080fd5b505afa158015611e95573d6000803e3d6000fd5b505050506040513d601f19601f82011682018060405250810190611eb9919061474a565b611ec1612974565b6040518363ffffffff1660e01b8152600401611ede929190614c3e565b60206040518083038186803b158015611ef657600080fd5b505afa158015611f0a573d6000803e3d6000fd5b505050506040513d601f19601f82011682018060405250810190611f2e9190614716565b611f4a5760405162461bcd60e51b815260040161072490615622565b6112e1600b8383613eb1565b6000611f60612974565b90506000611f6e82846106fc565b11611f8b5760405162461bcd60e51b815260040161072490615739565b611f9781836001612e52565b6000828152600e60205260409081902080546001909101549151632142170760e11b81526001600160a01b03909116916342842e0e91611fde913091869190600401614a39565b600060405180830381600087803b158015611ff857600080fd5b505af115801561200c573d6000803e3d6000fd5b5050506000838152600e602052604090819020805460019091015491516001600160a01b039182169350908416917fea7b88a04220a2292e142652e8e1a59cc00e7d27d8ad6b11da6cf5870e6ba866916120689190879061594b565b60405180910390a35050565b600d60205260009081526040902080546001820180546001600160a01b0390921692916120a090615b21565b80601f01602080910402602001604051908101604052809291908181526020018280546120cc90615b21565b80156121195780601f106120ee57610100808354040283529160200191612119565b820191906000526020600020905b8154815290600101906020018083116120fc57829003601f168201915b5050506002909301549192505060ff1683565b600081565b816001600160a01b0316612143612974565b6001600160a01b0316141561216a5760405162461bcd60e51b81526004016107249061567f565b8060036000612177612974565b6001600160a01b03908116825260208083019390935260409182016000908120918716808252919093529120805460ff1916921515929092179091556121bb612974565b6001600160a01b03167f17307eab39ab6107e8899845ad3d59bd9653f200f220920489ca2b5937696c31836040516120689190614c2a565b63bc197c8160e01b95945050505050565b60009081526006602052604090205490565b600b805461222390615b21565b80601f016020809104026020016040519081016040528092919081815260200182805461224f90615b21565b801561229c5780601f106122715761010080835404028352916020019161229c565b820191906000526020600020905b81548152906001019060200180831161227f57829003601f168201915b505050505081565b600a5481565b600081815260016020526040812061075290612eec565b7f9f2df0fed2c77648de5860a4cc508cd0818c85b8b8a1ab4ceeef8d981c8956a681565b6112f08282612ef7565b600860009054906101000a90046001600160a01b03166001600160a01b0316639d2f83f06040518163ffffffff1660e01b815260040160206040518083038186803b15801561233d57600080fd5b505afa158015612351573d6000803e3d6000fd5b505050506040513d601f19601f820116820180604052508101906123759190614716565b156123925760405162461bcd60e51b8152600401610724906154ae565b6123be7f9f2df0fed2c77648de5860a4cc508cd0818c85b8b8a1ab4ceeef8d981c8956a66105c1612974565b6123da5760405162461bcd60e51b81526004016107249061532e565b60006123e4612974565b905084866001600160a01b03166370a08231836040518263ffffffff1660e01b815260040161241391906149ad565b60206040518083038186803b15801561242b57600080fd5b505afa15801561243f573d6000803e3d6000fd5b505050506040513d601f19601f82011682018060405250810190612463919061474a565b10156124815760405162461bcd60e51b81526004016107249061550b565b604051636eb1769f60e11b815285906001600160a01b0388169063dd62ed3e906124b190859030906004016149c1565b60206040518083038186803b1580156124c957600080fd5b505afa1580156124dd573d6000803e3d6000fd5b505050506040513d601f19601f82011682018060405250810190612501919061474a565b101561251f5760405162461bcd60e51b8152600401610724906150a3565b6040516323b872dd60e01b81526001600160a01b038716906323b872dd9061254f90849030908a90600401614a39565b602060405180830381600087803b15801561256957600080fd5b505af115801561257d573d6000803e3d6000fd5b505050506040513d601f19601f820116820180604052508101906125a19190614716565b6125bd5760405162461bcd60e51b815260040161072490614f48565b600980549060019060006125d18385615a70565b925050819055506125f382828760405180602001604052806000815250612983565b6040518060600160405280836001600160a01b0316815260200185858080601f0160208091040260200160405190810160405280939291908181526020018383808284376000920182905250938552505060016020938401819052858352600d84526040909220845181546001600160a01b0319166001600160a01b03909116178155848401518051919461268d94860193500190613e2d565b5060408201518160020160006101000a81548160ff021916908360028111156126c657634e487b7160e01b600052602160045260246000fd5b021790555050604080516060810182526001600160a01b038a811680835260208084018b81528486018d81526000898152600f90935291869020945185546001600160a01b031916908516178555516001850155516002909301929092559151909250908416907f53af9a53d4a11cb382035aa13d6d8e24575569953176d87464ba37e7013a6aa490612762908a908a9087908b908b90615983565b60405180910390a350505050505050565b7f65d7a28e3265b37a6474929f336521b332c1681b933f6cb9f3376673440d862a81565b6060600b80546127a690615b21565b80601f01602080910402602001604051908101604052809291908181526020018280546127d290615b21565b801561281f5780601f106127f45761010080835404028352916020019161281f565b820191906000526020600020905b81548152906001019060200180831161280257829003601f168201915b5050505050905090565b6001600160a01b03918216600090815260036020908152604080832093909416825291909152205460ff1690565b63f23a6e6160e01b95945050505050565b612870612974565b6001600160a01b0316856001600160a01b031614806128965750612896856106be612974565b6128b25760405162461bcd60e51b815260040161072490615100565b6112b88585858585612f16565b6128c7612974565b6001600160a01b0316836001600160a01b031614806128ed57506128ed836106be612974565b6129095760405162461bcd60e51b815260040161072490615100565b6112e1838383612e52565b600061291f33611846565b15612933575060131936013560601c611861565b61293b612965565b9050611861565b61294c828261305d565b5050565b6000611e04836001600160a01b0384166130e2565b3390565b60006107528261312c565b600061297e612914565b905090565b61298f84848484613151565b600083815260066020526040812080548492906129ad908490615a70565b909155505050505050565b6129e47f9f2df0fed2c77648de5860a4cc508cd0818c85b8b8a1ab4ceeef8d981c8956a66105c1612974565b612a005760405162461bcd60e51b8152600401610724906153f4565b61196384848484612cc1565b8151835114612a2d5760405162461bcd60e51b815260040161072490615850565b6001600160a01b038416612a535760405162461bcd60e51b815260040161072490615274565b6000612a5d612974565b9050612a6d818787878787613233565b60005b8451811015612b72576000858281518110612a9b57634e487b7160e01b600052603260045260246000fd5b602002602001015190506000858381518110612ac757634e487b7160e01b600052603260045260246000fd5b60209081029190910181015160008481526002835260408082206001600160a01b038e168352909352919091205490915081811015612b185760405162461bcd60e51b815260040161072490615451565b60008381526002602090815260408083206001600160a01b038e8116855292528083208585039055908b16825281208054849290612b57908490615a70565b9250508190555050505080612b6b90615b5c565b9050612a70565b50846001600160a01b0316866001600160a01b0316826001600160a01b03167f4a39dc06d4c0dbc64b70af90fd698a233a518aa5d07e595d983b8c0526c8f7fb8787604051612bc2929190614bfc565b60405180910390a46110dc8187878787876132c2565b612be182611108565b612bf281612bed612974565b6133d0565b6112e1838361305d565b612c04612974565b6001600160a01b0316816001600160a01b031614612c345760405162461bcd60e51b8152600401610724906158ee565b61294c8282613434565b6000611e04836001600160a01b0384166134b7565b612c5b61185a565b612c775760405162461bcd60e51b815260040161072490614d9d565b6005805460ff191690557f5db9ee0a495bf2e6ff9c91a7834c1ba4fdd244a5e8aa4e537bd38aeae4b073aa612caa612974565b604051612cb791906149ad565b60405180910390a1565b612ccd848484846135d4565b60005b83518110156112b857828181518110612cf957634e487b7160e01b600052603260045260246000fd5b602002602001015160066000868481518110612d2557634e487b7160e01b600052603260045260246000fd5b602002602001015181526020019081526020016000206000828254612d4a9190615a70565b90915550612d59905081615b5c565b9050612cd0565b612d6b838383613756565b60005b825181101561196357818181518110612d9757634e487b7160e01b600052603260045260246000fd5b602002602001015160066000858481518110612dc357634e487b7160e01b600052603260045260246000fd5b602002602001015181526020019081526020016000206000828254612de89190615ac7565b90915550612df7905081615b5c565b9050612d6e565b612e2a7f9f2df0fed2c77648de5860a4cc508cd0818c85b8b8a1ab4ceeef8d981c8956a66105c1612974565b612e465760405162461bcd60e51b8152600401610724906153f4565b61196384848484612983565b612e5d8383836138fc565b60008281526006602052604081208054839290612e7b908490615ac7565b9091555050505050565b612e8d61185a565b15612eaa5760405162461bcd60e51b81526004016107249061523d565b6005805460ff191660011790557f62e78cea01bee320cd4e420270b5ea74000d11b0c9f74754ebdbfc544b05a258612caa612974565b6000611e048383613a0f565b600061075282613a47565b612f0082611108565b612f0c81612bed612974565b6112e18383613434565b6001600160a01b038416612f3c5760405162461bcd60e51b815260040161072490615274565b6000612f46612974565b9050612f66818787612f5788613a4b565b612f6088613a4b565b87613233565b60008481526002602090815260408083206001600160a01b038a16845290915290205483811015612fa95760405162461bcd60e51b815260040161072490615451565b60008581526002602090815260408083206001600160a01b038b8116855292528083208785039055908816825281208054869290612fe8908490615a70565b92505081905550856001600160a01b0316876001600160a01b0316836001600160a01b03167fc3d58168c5ae7397731d063d5bbf3d657854427343f4c083240f7aacaa2d0f62888860405161303e92919061594b565b60405180910390a4613054828888888888613aa4565b50505050505050565b6130678282611e0b565b61294c576000828152602081815260408083206001600160a01b03851684529091529020805460ff1916600117905561309e612974565b6001600160a01b0316816001600160a01b0316837f2f8788117e7eff1d82e926ec794901d17c78024a50270940304540a733656f0d60405160405180910390a45050565b60006130ee8383613b75565b61312457508154600181810184556000848152602080822090930184905584548482528286019093526040902091909155610752565b506000610752565b60006001600160e01b03198216630271189760e51b1480610752575061075282613b8d565b6001600160a01b0384166131775760405162461bcd60e51b8152600401610724906158ad565b6000613181612974565b905061319381600087612f5788613a4b565b60008481526002602090815260408083206001600160a01b0389168452909152812080548592906131c5908490615a70565b92505081905550846001600160a01b031660006001600160a01b0316826001600160a01b03167fc3d58168c5ae7397731d063d5bbf3d657854427343f4c083240f7aacaa2d0f62878760405161321c92919061594b565b60405180910390a46112b881600087878787613aa4565b613241868686868686613bcd565b600c5460ff16156110dc576132767f8502233096d909befbda0999bb8ea2f3a6be3c138b9fbf003752a4c8bce86f6c86611e0b565b806132a657506132a67f8502233096d909befbda0999bb8ea2f3a6be3c138b9fbf003752a4c8bce86f6c85611e0b565b6110dc5760405162461bcd60e51b81526004016107249061515d565b6132d4846001600160a01b0316613bdb565b156110dc5760405163bc197c8160e01b81526001600160a01b0385169063bc197c819061330d90899089908890889088906004016149db565b602060405180830381600087803b15801561332757600080fd5b505af1925050508015613357575060408051601f3d908101601f19168201909252613354918101906147c3565b60015b6133a057613363615ba9565b8061336e5750613388565b8060405162461bcd60e51b81526004016107249190614c9b565b60405162461bcd60e51b815260040161072490614cae565b6001600160e01b0319811663bc197c8160e01b146130545760405162461bcd60e51b815260040161072490614d40565b6133da8282611e0b565b61294c576133f2816001600160a01b03166014613be1565b6133fd836020613be1565b60405160200161340e92919061492c565b60408051601f198184030181529082905262461bcd60e51b825261072491600401614c9b565b61343e8282611e0b565b1561294c576000828152602081815260408083206001600160a01b03851684529091529020805460ff19169055613473612974565b6001600160a01b0316816001600160a01b0316837ff6391f5c32d9c69d2a47ea670b442974b53935d1edc7fd64eb21e047a839171b60405160405180910390a45050565b600081815260018301602052604081205480156135ca5760006134db600183615ac7565b85549091506000906134ef90600190615ac7565b905081811461357057600086600001828154811061351d57634e487b7160e01b600052603260045260246000fd5b906000526020600020015490508087600001848154811061354e57634e487b7160e01b600052603260045260246000fd5b6000918252602080832090910192909255918252600188019052604090208390555b855486908061358f57634e487b7160e01b600052603160045260246000fd5b600190038181906000526020600020016000905590558560010160008681526020019081526020016000206000905560019350505050610752565b6000915050610752565b6001600160a01b0384166135fa5760405162461bcd60e51b8152600401610724906158ad565b815183511461361b5760405162461bcd60e51b815260040161072490615850565b6000613625612974565b905061363681600087878787613233565b60005b84518110156136ee5783818151811061366257634e487b7160e01b600052603260045260246000fd5b60200260200101516002600087848151811061368e57634e487b7160e01b600052603260045260246000fd5b602002602001015181526020019081526020016000206000886001600160a01b03166001600160a01b0316815260200190815260200160002060008282546136d69190615a70565b909155508190506136e681615b5c565b915050613639565b50846001600160a01b031660006001600160a01b0316826001600160a01b03167f4a39dc06d4c0dbc64b70af90fd698a233a518aa5d07e595d983b8c0526c8f7fb878760405161373f929190614bfc565b60405180910390a46112b8816000878787876132c2565b6001600160a01b03831661377c5760405162461bcd60e51b8152600401610724906153b1565b805182511461379d5760405162461bcd60e51b815260040161072490615850565b60006137a7612974565b90506137c781856000868660405180602001604052806000815250613233565b60005b83518110156138ab5760008482815181106137f557634e487b7160e01b600052603260045260246000fd5b60200260200101519050600084838151811061382157634e487b7160e01b600052603260045260246000fd5b60209081029190910181015160008481526002835260408082206001600160a01b038c1683529093529190912054909150818110156138725760405162461bcd60e51b815260040161072490614fa5565b60009283526002602090815260408085206001600160a01b038b16865290915290922091039055806138a381615b5c565b9150506137ca565b5060006001600160a01b0316846001600160a01b0316826001600160a01b03167f4a39dc06d4c0dbc64b70af90fd698a233a518aa5d07e595d983b8c0526c8f7fb8686604051611c5c929190614bfc565b6001600160a01b0383166139225760405162461bcd60e51b8152600401610724906153b1565b600061392c612974565b905061395c8185600061393e87613a4b565b61394787613a4b565b60405180602001604052806000815250613233565b60008381526002602090815260408083206001600160a01b03881684529091529020548281101561399f5760405162461bcd60e51b815260040161072490614fa5565b60008481526002602090815260408083206001600160a01b03808a16808652919093528184208786039055905190918516907fc3d58168c5ae7397731d063d5bbf3d657854427343f4c083240f7aacaa2d0f6290613a00908990899061594b565b60405180910390a45050505050565b6000826000018281548110613a3457634e487b7160e01b600052603260045260246000fd5b9060005260206000200154905092915050565b5490565b60408051600180825281830190925260609160009190602080830190803683370190505090508281600081518110613a9357634e487b7160e01b600052603260045260246000fd5b602090810291909101015292915050565b613ab6846001600160a01b0316613bdb565b156110dc5760405163f23a6e6160e01b81526001600160a01b0385169063f23a6e6190613aef9089908990889088908890600401614a5d565b602060405180830381600087803b158015613b0957600080fd5b505af1925050508015613b39575060408051601f3d908101601f19168201909252613b36918101906147c3565b60015b613b4557613363615ba9565b6001600160e01b0319811663f23a6e6160e01b146130545760405162461bcd60e51b815260040161072490614d40565b60009081526001919091016020526040902054151590565b60006001600160e01b03198216636cdb3d1360e11b1480613bbe57506001600160e01b031982166303a24d0760e21b145b80610752575061075282613da0565b6110dc868686868686613dc5565b3b151590565b60606000613bf0836002615aa8565b613bfb906002615a70565b67ffffffffffffffff811115613c2157634e487b7160e01b600052604160045260246000fd5b6040519080825280601f01601f191660200182016040528015613c4b576020820181803683370190505b509050600360fc1b81600081518110613c7457634e487b7160e01b600052603260045260246000fd5b60200101906001600160f81b031916908160001a905350600f60fb1b81600181518110613cb157634e487b7160e01b600052603260045260246000fd5b60200101906001600160f81b031916908160001a9053506000613cd5846002615aa8565b613ce0906001615a70565b90505b6001811115613d81577f303132333435363738396162636465660000000000000000000000000000000085600f1660108110613d2f57634e487b7160e01b600052603260045260246000fd5b1a60f81b828281518110613d5357634e487b7160e01b600052603260045260246000fd5b60200101906001600160f81b031916908160001a90535060049490941c93613d7a81615b0a565b9050613ce3565b508315611e045760405162461bcd60e51b815260040161072490614d0b565b60006001600160e01b03198216635a05180f60e01b1480610752575061075282613df8565b613dd38686868686866110dc565b613ddb61185a565b156110dc5760405162461bcd60e51b815260040161072490615046565b60006001600160e01b03198216637965db0b60e01b148061075257506301ffc9a760e01b6001600160e01b0319831614610752565b828054613e3990615b21565b90600052602060002090601f016020900481019282613e5b5760008555613ea1565b82601f10613e7457805160ff1916838001178555613ea1565b82800160010185558215613ea1579182015b82811115613ea1578251825591602001919060010190613e86565b50613ead929150613f25565b5090565b828054613ebd90615b21565b90600052602060002090601f016020900481019282613edf5760008555613ea1565b82601f10613ef85782800160ff19823516178555613ea1565b82800160010185558215613ea1579182015b82811115613ea1578235825591602001919060010190613f0a565b5b80821115613ead5760008155600101613f26565b60008083601f840112613f4b578182fd5b50813567ffffffffffffffff811115613f62578182fd5b6020830191508360208083028501011115613f7c57600080fd5b9250929050565b600082601f830112613f93578081fd5b81356020613fa8613fa383615a18565b6159ee565b8281528181019085830183850287018401881015613fc4578586fd5b855b85811015613fe257813584529284019290840190600101613fc6565b5090979650505050505050565b600082601f830112613fff578081fd5b813567ffffffffffffffff81111561401957614019615b8d565b61402c601f8201601f19166020016159ee565b818152846020838601011115614040578283fd5b816020850160208301379081016020019190915292915050565b60008083601f84011261406b578182fd5b50813567ffffffffffffffff811115614082578182fd5b602083019150836020828501011115613f7c57600080fd5b6000602082840312156140ab578081fd5b8135611e0481615c4e565b6000602082840312156140c7578081fd5b8151611e0481615c4e565b600080604083850312156140e4578081fd5b82356140ef81615c4e565b915060208301356140ff81615c4e565b809150509250929050565b600080600080600060a08688031215614121578081fd5b853561412c81615c4e565b9450602086013561413c81615c4e565b9350604086013567ffffffffffffffff80821115614158578283fd5b61416489838a01613f83565b94506060880135915080821115614179578283fd5b61418589838a01613f83565b9350608088013591508082111561419a578283fd5b506141a788828901613fef565b9150509295509295909350565b600080600080608085870312156141c9578384fd5b84356141d481615c4e565b935060208501356141e481615c4e565b925060408501359150606085013567ffffffffffffffff811115614206578182fd5b61421287828801613fef565b91505092959194509250565b600080600080600060a08688031215614235578283fd5b853561424081615c4e565b9450602086013561425081615c4e565b93506040860135925060608601359150608086013567ffffffffffffffff811115614279578182fd5b6141a788828901613fef565b60008060008060008060008060008060e08b8d0312156142a3578788fd5b8a356142ae81615c4e565b995060208b013567ffffffffffffffff808211156142ca57898afd5b6142d68e838f01613f3a565b909b50995060408d01359150808211156142ee578687fd5b6142fa8e838f01613f3a565b909950975060608d0135915080821115614312578687fd5b5061431f8d828e0161405a565b9b9e9a9d50989b979a9699969760808101359760a0820135975060c09091013595509350505050565b60008060006060848603121561435c578081fd5b833561436781615c4e565b9250602084013567ffffffffffffffff80821115614383578283fd5b61438f87838801613f83565b935060408601359150808211156143a4578283fd5b506143b186828701613f83565b9150509250925092565b600080600080608085870312156143d0578182fd5b84356143db81615c4e565b9350602085013567ffffffffffffffff808211156143f7578384fd5b61440388838901613f83565b94506040870135915080821115614418578384fd5b61442488838901613f83565b93506060870135915080821115614439578283fd5b5061421287828801613fef565b60008060408385031215614458578182fd5b823561446381615c4e565b915060208301356140ff81615c66565b60008060408385031215614485578182fd5b823561449081615c4e565b946020939093013593505050565b600080600080606085870312156144b3578182fd5b84356144be81615c4e565b935060208501359250604085013567ffffffffffffffff8111156144e0578283fd5b6144ec8782880161405a565b95989497509550505050565b60008060006060848603121561450c578081fd5b833561451781615c4e565b95602085013595506040909401359392505050565b60008060008060808587031215614541578182fd5b843561454c81615c4e565b93506020850135925060408501359150606085013567ffffffffffffffff811115614206578182fd5b60008060008060006080868803121561458c578283fd5b853561459781615c4e565b94506020860135935060408601359250606086013567ffffffffffffffff8111156145c0578182fd5b6145cc8882890161405a565b969995985093965092949392505050565b600080604083850312156145ef578182fd5b823567ffffffffffffffff80821115614606578384fd5b818501915085601f830112614619578384fd5b81356020614629613fa383615a18565b82815281810190858301838502870184018b1015614645578889fd5b8896505b8487101561467057803561465c81615c4e565b835260019690960195918301918301614649565b5096505086013592505080821115614686578283fd5b5061469385828601613f83565b9150509250929050565b600080600080604085870312156146b2578182fd5b843567ffffffffffffffff808211156146c9578384fd5b6146d588838901613f3a565b909650945060208701359150808211156146ed578384fd5b506144ec87828801613f3a565b60006020828403121561470b578081fd5b8135611e0481615c66565b600060208284031215614727578081fd5b8151611e0481615c66565b600060208284031215614743578081fd5b5035919050565b60006020828403121561475b578081fd5b5051919050565b60008060408385031215614774578182fd5b8235915060208301356140ff81615c4e565b60008060408385031215614798578182fd5b50508035926020909101359150565b6000602082840312156147b8578081fd5b8135611e0481615c74565b6000602082840312156147d4578081fd5b8151611e0481615c74565b600080602083850312156147f1578182fd5b823567ffffffffffffffff811115614807578283fd5b6148138582860161405a565b90969095509350505050565b600060208284031215614830578081fd5b81516fffffffffffffffffffffffffffffffff81168114611e04578182fd5b60008284527f07ffffffffffffffffffffffffffffffffffffffffffffffffffffffffffffff831115614880578081fd5b6020830280836020870137939093016020019283525090919050565b6000815180845260208085019450808401835b838110156148cb578151875295820195908201906001016148af565b509495945050505050565b600081518084526148ee816020860160208601615ade565b601f01601f19169290920160200192915050565b60008284528282602086013780602084860101526020601f19601f85011685010190509392505050565b60007f416363657373436f6e74726f6c3a206163636f756e742000000000000000000082528351614964816017850160208801615ade565b7f206973206d697373696e6720726f6c652000000000000000000000000000000060179184019182015283516149a1816028840160208801615ade565b01602801949350505050565b6001600160a01b0391909116815260200190565b6001600160a01b0392831681529116602082015260400190565b60006001600160a01b03808816835280871660208401525060a06040830152614a0760a083018661489c565b8281036060840152614a19818661489c565b90508281036080840152614a2d81856148d6565b98975050505050505050565b6001600160a01b039384168152919092166020820152604081019190915260600190565b60006001600160a01b03808816835280871660208401525084604083015283606083015260a06080830152614a9560a08301846148d6565b979650505050505050565b60006001600160a01b038516825260606020830152614ac260608301856148d6565b905060038310614ae257634e487b7160e01b600052602160045260246000fd5b826040830152949350505050565b6001600160a01b03929092168252602082015260400190565b6001600160a01b039390931683526020830191909152604082015260600190565b600060208252611e04602083018461489c565b600060608252614b50606083018861489c565b6020838203818501528187835281830190508182890284010189855b8a811015614bd857858303601f190184528135368d9003601e19018112614b91578788fd5b8c01803567ffffffffffffffff811115614ba9578889fd5b8036038e1315614bb7578889fd5b614bc48582898501614902565b958701959450505090840190600101614b6c565b50508581036040870152614bed81888a61484f565b9b9a5050505050505050505050565b600060408252614c0f604083018561489c565b8281036020840152614c21818561489c565b95945050505050565b901515815260200190565b90815260200190565b9182526001600160a01b0316602082015260400190565b6001600160e01b031991909116815260200190565b600060808252614c7e608083018789614902565b602083019590955250604081019290925260609091015292915050565b600060208252611e0460208301846148d6565b60208082526034908201527f455243313135353a207472616e7366657220746f206e6f6e204552433131353560408201527f526563656976657220696d706c656d656e746572000000000000000000000000606082015260800190565b6020808252818101527f537472696e67733a20686578206c656e67746820696e73756666696369656e74604082015260600190565b60208082526028908201527f455243313135353a204552433131353552656365697665722072656a6563746560408201527f6420746f6b656e73000000000000000000000000000000000000000000000000606082015260800190565b60208082526014908201527f5061757361626c653a206e6f7420706175736564000000000000000000000000604082015260600190565b6020808252603d908201527f4e4654436f6c6c656374696f6e3a20496e76616c6964206270732070726f766960408201527f6465643b206d757374206265206c657373207468616e20392c3030302e000000606082015260800190565b60208082526039908201527f4e4654436f6c6c656374696f6e3a2063616e6e6f742063616c6c20746869732060408201527f666e20666f72206372656174696e67206e6577204e4654732e00000000000000606082015260800190565b6020808252602b908201527f455243313135353a2062616c616e636520717565727920666f7220746865207a60408201527f65726f2061646472657373000000000000000000000000000000000000000000606082015260800190565b6020808252603a908201527f4e4654436f6c6c656374696f6e3a2063616e6e6f7420667265656c79206d696e60408201527f74206d6f7265206f66204552433230206f72204552433732312e000000000000606082015260800190565b6020808252602f908201527f4e4654436f6c6c656374696f6e3a204661696c656420746f207472616e73666560408201527f7220455243323020746f6b656e732e0000000000000000000000000000000000606082015260800190565b60208082526024908201527f455243313135353a206275726e20616d6f756e7420657863656564732062616c604082015263616e636560e01b606082015260800190565b6020808252603d908201527f4e4654436f6c6c656374696f6e3a204d75737420617070726f7665207468652060408201527f636f6e747261637420746f207472616e7366657220746865204e46542e000000606082015260800190565b6020808252602c908201527f455243313135355061757361626c653a20746f6b656e207472616e736665722060408201527f7768696c65207061757365640000000000000000000000000000000000000000606082015260800190565b6020808252603d908201527f4e4654436f6c6c656374696f6e3a204d75737420617070726f7665207468697360408201527f20636f6e747261637420746f207472616e7366657220746f6b656e732e000000606082015260800190565b60208082526029908201527f455243313135353a2063616c6c6572206973206e6f74206f776e6572206e6f7260408201527f20617070726f7665640000000000000000000000000000000000000000000000606082015260800190565b60208082526048908201527f4e4654436f6c6c656374696f6e3a205472616e7366657273206172652072657360408201527f7472696374656420746f206f722066726f6d205452414e534645525f524f4c4560608201527f20686f6c64657273000000000000000000000000000000000000000000000000608082015260a00190565b6020808252603a908201527f4e4654436f6c6c656374696f6e3a204d7573742073706563696679206571756160408201527f6c206e756d626572206f6620636f6e6669672076616c7565732e000000000000606082015260800190565b60208082526010908201527f5061757361626c653a2070617573656400000000000000000000000000000000604082015260600190565b60208082526025908201527f455243313135353a207472616e7366657220746f20746865207a65726f20616460408201527f6472657373000000000000000000000000000000000000000000000000000000606082015260800190565b60208082526032908201527f455243313135353a207472616e736665722063616c6c6572206973206e6f742060408201527f6f776e6572206e6f7220617070726f7665640000000000000000000000000000606082015260800190565b60208082526045908201527f4e4654436f6c6c656374696f6e3a204f6e6c79206163636f756e74732077697460408201527f68204d494e5445525f524f4c452063616e2063616c6c20746869732066756e6360608201527f74696f6e2e000000000000000000000000000000000000000000000000000000608082015260a00190565b60208082526023908201527f455243313135353a206275726e2066726f6d20746865207a65726f206164647260408201526265737360e81b606082015260800190565b60208082526038908201527f455243313135355072657365744d696e7465725061757365723a206d7573742060408201527f68617665206d696e74657220726f6c6520746f206d696e740000000000000000606082015260800190565b6020808252602a908201527f455243313135353a20696e73756666696369656e742062616c616e636520666f60408201527f72207472616e7366657200000000000000000000000000000000000000000000606082015260800190565b60208082526026908201527f4e4654436f6c6c656374696f6e3a205468652070726f746f636f6c206973207060408201527f61757365642e0000000000000000000000000000000000000000000000000000606082015260800190565b6020808252603b908201527f4e4654436f6c6c656374696f6e3a204d757374206f776e2074686520616d6f7560408201527f6e74206f6620746f6b656e73206265696e6720777261707065642e0000000000606082015260800190565b6020808252603b908201527f455243313135355072657365744d696e7465725061757365723a206d7573742060408201527f686176652070617573657220726f6c6520746f20756e70617573650000000000606082015260800190565b60208082526039908201527f455243313135355072657365744d696e7465725061757365723a206d7573742060408201527f686176652070617573657220726f6c6520746f20706175736500000000000000606082015260800190565b6020808252603c908201527f4e4654436f6c6c656374696f6e3a206f6e6c7920612070726f746f636f6c206160408201527f646d696e2063616e2063616c6c20746869732066756e6374696f6e2e00000000606082015260800190565b60208082526029908201527f455243313135353a2073657474696e6720617070726f76616c2073746174757360408201527f20666f722073656c660000000000000000000000000000000000000000000000606082015260800190565b60208082526029908201527f455243313135353a206163636f756e747320616e6420696473206c656e67746860408201527f206d69736d617463680000000000000000000000000000000000000000000000606082015260800190565b60208082526033908201527f4e4654436f6c6c656374696f6e3a2043616e6e6f742072656465656d20616e2060408201527f4e465420796f7520646f206e6f74206f776e2e00000000000000000000000000606082015260800190565b60208082526035908201527f4e4654436f6c6c656374696f6e3a204f6e6c7920746865206f776e6572206f6660408201527f20746865204e46542063616e20777261702069742e0000000000000000000000606082015260800190565b6020808252602c908201527f4e4654436f6c6c656374696f6e3a204d75737420637265617465206174206c6560408201527f617374206f6e65204e46542e0000000000000000000000000000000000000000606082015260800190565b60208082526028908201527f455243313135353a2069647320616e6420616d6f756e7473206c656e6774682060408201527f6d69736d61746368000000000000000000000000000000000000000000000000606082015260800190565b60208082526021908201527f455243313135353a206d696e7420746f20746865207a65726f206164647265736040820152607360f81b606082015260800190565b6020808252602f908201527f416363657373436f6e74726f6c3a2063616e206f6e6c792072656e6f756e636560408201527f20726f6c657320666f722073656c660000000000000000000000000000000000606082015260800190565b918252602082015260400190565b600085825284602083015260606040830152615979606083018486614902565b9695505050505050565b600086825285602083015284604083015260806060830152614a95608083018486614902565b6000808335601e198436030181126159bf578283fd5b83018035915067ffffffffffffffff8211156159d9578283fd5b602001915036819003821315613f7c57600080fd5b60405181810167ffffffffffffffff81118282101715615a1057615a10615b8d565b604052919050565b600067ffffffffffffffff821115615a3257615a32615b8d565b5060209081020190565b60006fffffffffffffffffffffffffffffffff808316818516808303821115615a6757615a67615b77565b01949350505050565b60008219821115615a8357615a83615b77565b500190565b600082615aa357634e487b7160e01b81526012600452602481fd5b500490565b6000816000190483118215151615615ac257615ac2615b77565b500290565b600082821015615ad957615ad9615b77565b500390565b60005b83811015615af9578181015183820152602001615ae1565b838111156119635750506000910152565b600081615b1957615b19615b77565b506000190190565b600281046001821680615b3557607f821691505b60208210811415615b5657634e487b7160e01b600052602260045260246000fd5b50919050565b6000600019821415615b7057615b70615b77565b5060010190565b634e487b7160e01b600052601160045260246000fd5b634e487b7160e01b600052604160045260246000fd5b60e01c90565b600060443d1015615bb957611861565b600481823e6308c379a0615bcd8251615ba3565b14615bd757611861565b6040513d600319016004823e80513d67ffffffffffffffff8160248401118184111715615c075750505050611861565b82840192508251915080821115615c215750505050611861565b503d83016020828401011115615c3957505050611861565b601f01601f1916810160200160405291505090565b6001600160a01b0381168114615c6357600080fd5b50565b8015158114615c6357600080fd5b6001600160e01b031981168114615c6357600080fdfea164736f6c6343000800000a",
  "linkReferences": {},
  "deployedLinkReferences": {}
}