{
  "_format": "hh-sol-artifact-1",
  "contractName": "NFTCollection",
  "sourceName": "contracts/NFTCollection.sol",
  "abi": [
    {
      "inputs": [
        {
          "internalType": "address payable",
          "name": "_controlCenter",
          "type": "address"
        },
        {
          "internalType": "address",
          "name": "_trustedForwarder",
          "type": "address"
        },
        {
          "internalType": "string",
          "name": "_uri",
          "type": "string"
        }
      ],
      "stateMutability": "nonpayable",
      "type": "constructor"
    },
    {
      "anonymous": false,
      "inputs": [
        {
          "indexed": true,
          "internalType": "address",
          "name": "account",
          "type": "address"
        },
        {
          "indexed": true,
          "internalType": "address",
          "name": "operator",
          "type": "address"
        },
        {
          "indexed": false,
          "internalType": "bool",
          "name": "approved",
          "type": "bool"
        }
      ],
      "name": "ApprovalForAll",
      "type": "event"
    },
    {
      "anonymous": false,
      "inputs": [
        {
          "indexed": true,
          "internalType": "address",
          "name": "redeemer",
          "type": "address"
        },
        {
          "indexed": true,
          "internalType": "uint256",
          "name": "tokenId",
          "type": "uint256"
        },
        {
          "indexed": true,
          "internalType": "address",
          "name": "sourceOfUnderlying",
          "type": "address"
        },
        {
          "indexed": false,
          "internalType": "uint256",
          "name": "tokenAmountReceived",
          "type": "uint256"
        },
        {
          "indexed": false,
          "internalType": "uint256",
          "name": "sharesRedeemed",
          "type": "uint256"
        }
      ],
      "name": "ERC20Redeemed",
      "type": "event"
    },
    {
      "anonymous": false,
      "inputs": [
        {
          "indexed": true,
          "internalType": "address",
          "name": "creator",
          "type": "address"
        },
        {
          "indexed": true,
          "internalType": "address",
          "name": "sourceOfUnderlying",
          "type": "address"
        },
        {
          "indexed": false,
          "internalType": "uint256",
          "name": "totalAmountOfUnderlying",
          "type": "uint256"
        },
        {
          "indexed": false,
          "internalType": "uint256",
          "name": "shares",
          "type": "uint256"
        },
        {
          "indexed": false,
          "internalType": "uint256",
          "name": "tokenId",
          "type": "uint256"
        },
        {
          "indexed": false,
          "internalType": "string",
          "name": "tokenURI",
          "type": "string"
        }
      ],
      "name": "ERC20WrappedToken",
      "type": "event"
    },
    {
      "anonymous": false,
      "inputs": [
        {
          "indexed": true,
          "internalType": "address",
          "name": "redeemer",
          "type": "address"
        },
        {
          "indexed": true,
          "internalType": "address",
          "name": "sourceOfUnderlying",
          "type": "address"
        },
        {
          "indexed": false,
          "internalType": "uint256",
          "name": "tokenIdOfUnderlying",
          "type": "uint256"
        },
        {
          "indexed": false,
          "internalType": "uint256",
          "name": "tokenId",
          "type": "uint256"
        }
      ],
      "name": "ERC721Redeemed",
      "type": "event"
    },
    {
      "anonymous": false,
      "inputs": [
        {
          "indexed": true,
          "internalType": "address",
          "name": "creator",
          "type": "address"
        },
        {
          "indexed": true,
          "internalType": "address",
          "name": "sourceOfUnderlying",
          "type": "address"
        },
        {
          "indexed": false,
          "internalType": "uint256",
          "name": "tokenIdOfUnderlying",
          "type": "uint256"
        },
        {
          "indexed": false,
          "internalType": "uint256",
          "name": "tokenId",
          "type": "uint256"
        },
        {
          "indexed": false,
          "internalType": "string",
          "name": "tokenURI",
          "type": "string"
        }
      ],
      "name": "ERC721WrappedToken",
      "type": "event"
    },
    {
      "anonymous": false,
      "inputs": [
        {
          "indexed": true,
          "internalType": "address",
          "name": "creator",
          "type": "address"
        },
        {
          "indexed": false,
          "internalType": "uint256[]",
          "name": "tokenIds",
          "type": "uint256[]"
        },
        {
          "indexed": false,
          "internalType": "string[]",
          "name": "tokenURIs",
          "type": "string[]"
        },
        {
          "indexed": false,
          "internalType": "uint256[]",
          "name": "tokenSupplies",
          "type": "uint256[]"
        }
      ],
      "name": "NativeTokens",
      "type": "event"
    },
    {
      "anonymous": false,
      "inputs": [
        {
          "indexed": false,
          "internalType": "address",
          "name": "account",
          "type": "address"
        }
      ],
      "name": "Paused",
      "type": "event"
    },
    {
      "anonymous": false,
      "inputs": [
        {
          "indexed": true,
          "internalType": "bytes32",
          "name": "role",
          "type": "bytes32"
        },
        {
          "indexed": true,
          "internalType": "bytes32",
          "name": "previousAdminRole",
          "type": "bytes32"
        },
        {
          "indexed": true,
          "internalType": "bytes32",
          "name": "newAdminRole",
          "type": "bytes32"
        }
      ],
      "name": "RoleAdminChanged",
      "type": "event"
    },
    {
      "anonymous": false,
      "inputs": [
        {
          "indexed": true,
          "internalType": "bytes32",
          "name": "role",
          "type": "bytes32"
        },
        {
          "indexed": true,
          "internalType": "address",
          "name": "account",
          "type": "address"
        },
        {
          "indexed": true,
          "internalType": "address",
          "name": "sender",
          "type": "address"
        }
      ],
      "name": "RoleGranted",
      "type": "event"
    },
    {
      "anonymous": false,
      "inputs": [
        {
          "indexed": true,
          "internalType": "bytes32",
          "name": "role",
          "type": "bytes32"
        },
        {
          "indexed": true,
          "internalType": "address",
          "name": "account",
          "type": "address"
        },
        {
          "indexed": true,
          "internalType": "address",
          "name": "sender",
          "type": "address"
        }
      ],
      "name": "RoleRevoked",
      "type": "event"
    },
    {
      "anonymous": false,
      "inputs": [
        {
          "indexed": false,
          "internalType": "uint256",
          "name": "royaltyBps",
          "type": "uint256"
        }
      ],
      "name": "RoyaltyUpdated",
      "type": "event"
    },
    {
      "anonymous": false,
      "inputs": [
        {
          "indexed": true,
          "internalType": "address",
          "name": "operator",
          "type": "address"
        },
        {
          "indexed": true,
          "internalType": "address",
          "name": "from",
          "type": "address"
        },
        {
          "indexed": true,
          "internalType": "address",
          "name": "to",
          "type": "address"
        },
        {
          "indexed": false,
          "internalType": "uint256[]",
          "name": "ids",
          "type": "uint256[]"
        },
        {
          "indexed": false,
          "internalType": "uint256[]",
          "name": "values",
          "type": "uint256[]"
        }
      ],
      "name": "TransferBatch",
      "type": "event"
    },
    {
      "anonymous": false,
      "inputs": [
        {
          "indexed": true,
          "internalType": "address",
          "name": "operator",
          "type": "address"
        },
        {
          "indexed": true,
          "internalType": "address",
          "name": "from",
          "type": "address"
        },
        {
          "indexed": true,
          "internalType": "address",
          "name": "to",
          "type": "address"
        },
        {
          "indexed": false,
          "internalType": "uint256",
          "name": "id",
          "type": "uint256"
        },
        {
          "indexed": false,
          "internalType": "uint256",
          "name": "value",
          "type": "uint256"
        }
      ],
      "name": "TransferSingle",
      "type": "event"
    },
    {
      "anonymous": false,
      "inputs": [
        {
          "indexed": false,
          "internalType": "string",
          "name": "value",
          "type": "string"
        },
        {
          "indexed": true,
          "internalType": "uint256",
          "name": "id",
          "type": "uint256"
        }
      ],
      "name": "URI",
      "type": "event"
    },
    {
      "anonymous": false,
      "inputs": [
        {
          "indexed": false,
          "internalType": "address",
          "name": "account",
          "type": "address"
        }
      ],
      "name": "Unpaused",
      "type": "event"
    },
    {
      "inputs": [],
      "name": "DEFAULT_ADMIN_ROLE",
      "outputs": [
        {
          "internalType": "bytes32",
          "name": "",
          "type": "bytes32"
        }
      ],
      "stateMutability": "view",
      "type": "function"
    },
    {
      "inputs": [],
      "name": "MINTER_ROLE",
      "outputs": [
        {
          "internalType": "bytes32",
          "name": "",
          "type": "bytes32"
        }
      ],
      "stateMutability": "view",
      "type": "function"
    },
    {
      "inputs": [],
      "name": "PAUSER_ROLE",
      "outputs": [
        {
          "internalType": "bytes32",
          "name": "",
          "type": "bytes32"
        }
      ],
      "stateMutability": "view",
      "type": "function"
    },
    {
      "inputs": [],
      "name": "TRANSFER_ROLE",
      "outputs": [
        {
          "internalType": "bytes32",
          "name": "",
          "type": "bytes32"
        }
      ],
      "stateMutability": "view",
      "type": "function"
    },
    {
      "inputs": [],
      "name": "_contractURI",
      "outputs": [
        {
          "internalType": "string",
          "name": "",
          "type": "string"
        }
      ],
      "stateMutability": "view",
      "type": "function"
    },
    {
      "inputs": [
        {
          "internalType": "address",
          "name": "account",
          "type": "address"
        },
        {
          "internalType": "uint256",
          "name": "id",
          "type": "uint256"
        }
      ],
      "name": "balanceOf",
      "outputs": [
        {
          "internalType": "uint256",
          "name": "",
          "type": "uint256"
        }
      ],
      "stateMutability": "view",
      "type": "function"
    },
    {
      "inputs": [
        {
          "internalType": "address[]",
          "name": "accounts",
          "type": "address[]"
        },
        {
          "internalType": "uint256[]",
          "name": "ids",
          "type": "uint256[]"
        }
      ],
      "name": "balanceOfBatch",
      "outputs": [
        {
          "internalType": "uint256[]",
          "name": "",
          "type": "uint256[]"
        }
      ],
      "stateMutability": "view",
      "type": "function"
    },
    {
      "inputs": [
        {
          "internalType": "address",
          "name": "account",
          "type": "address"
        },
        {
          "internalType": "uint256",
          "name": "id",
          "type": "uint256"
        },
        {
          "internalType": "uint256",
          "name": "value",
          "type": "uint256"
        }
      ],
      "name": "burn",
      "outputs": [],
      "stateMutability": "nonpayable",
      "type": "function"
    },
    {
      "inputs": [
        {
          "internalType": "address",
          "name": "account",
          "type": "address"
        },
        {
          "internalType": "uint256[]",
          "name": "ids",
          "type": "uint256[]"
        },
        {
          "internalType": "uint256[]",
          "name": "values",
          "type": "uint256[]"
        }
      ],
      "name": "burnBatch",
      "outputs": [],
      "stateMutability": "nonpayable",
      "type": "function"
    },
    {
      "inputs": [],
      "name": "contractURI",
      "outputs": [
        {
          "internalType": "string",
          "name": "",
          "type": "string"
        }
      ],
      "stateMutability": "view",
      "type": "function"
    },
    {
      "inputs": [
        {
          "internalType": "string[]",
          "name": "_nftURIs",
          "type": "string[]"
        },
        {
          "internalType": "uint256[]",
          "name": "_nftSupplies",
          "type": "uint256[]"
        }
      ],
      "name": "createNativeTokens",
      "outputs": [
        {
          "internalType": "uint256[]",
          "name": "nftIds",
          "type": "uint256[]"
        }
      ],
      "stateMutability": "nonpayable",
      "type": "function"
    },
    {
      "inputs": [
        {
          "internalType": "address",
          "name": "_pack",
          "type": "address"
        },
        {
          "internalType": "string[]",
          "name": "_nftURIs",
          "type": "string[]"
        },
        {
          "internalType": "uint256[]",
          "name": "_nftSupplies",
          "type": "uint256[]"
        },
        {
          "internalType": "string",
          "name": "_packURI",
          "type": "string"
        },
        {
          "internalType": "uint256",
          "name": "_secondsUntilOpenStart",
          "type": "uint256"
        },
        {
          "internalType": "uint256",
          "name": "_secondsUntilOpenEnd",
          "type": "uint256"
        },
        {
          "internalType": "uint256",
          "name": "_nftsPerOpen",
          "type": "uint256"
        }
      ],
      "name": "createPackAtomic",
      "outputs": [],
      "stateMutability": "nonpayable",
      "type": "function"
    },
    {
      "inputs": [
        {
          "internalType": "uint256",
          "name": "_nftId",
          "type": "uint256"
        }
      ],
      "name": "creator",
      "outputs": [
        {
          "internalType": "address",
          "name": "",
          "type": "address"
        }
      ],
      "stateMutability": "view",
      "type": "function"
    },
    {
      "inputs": [
        {
          "internalType": "uint256",
          "name": "",
          "type": "uint256"
        }
      ],
      "name": "erc20WrappedTokens",
      "outputs": [
        {
          "internalType": "address",
          "name": "source",
          "type": "address"
        },
        {
          "internalType": "uint256",
          "name": "shares",
          "type": "uint256"
        },
        {
          "internalType": "uint256",
          "name": "underlyingTokenAmount",
          "type": "uint256"
        }
      ],
      "stateMutability": "view",
      "type": "function"
    },
    {
      "inputs": [
        {
          "internalType": "uint256",
          "name": "",
          "type": "uint256"
        }
      ],
      "name": "erc721WrappedTokens",
      "outputs": [
        {
          "internalType": "address",
          "name": "source",
          "type": "address"
        },
        {
          "internalType": "uint256",
          "name": "tokenId",
          "type": "uint256"
        }
      ],
      "stateMutability": "view",
      "type": "function"
    },
    {
      "inputs": [
        {
          "internalType": "bytes32",
          "name": "role",
          "type": "bytes32"
        }
      ],
      "name": "getRoleAdmin",
      "outputs": [
        {
          "internalType": "bytes32",
          "name": "",
          "type": "bytes32"
        }
      ],
      "stateMutability": "view",
      "type": "function"
    },
    {
      "inputs": [
        {
          "internalType": "bytes32",
          "name": "role",
          "type": "bytes32"
        },
        {
          "internalType": "uint256",
          "name": "index",
          "type": "uint256"
        }
      ],
      "name": "getRoleMember",
      "outputs": [
        {
          "internalType": "address",
          "name": "",
          "type": "address"
        }
      ],
      "stateMutability": "view",
      "type": "function"
    },
    {
      "inputs": [
        {
          "internalType": "bytes32",
          "name": "role",
          "type": "bytes32"
        }
      ],
      "name": "getRoleMemberCount",
      "outputs": [
        {
          "internalType": "uint256",
          "name": "",
          "type": "uint256"
        }
      ],
      "stateMutability": "view",
      "type": "function"
    },
    {
      "inputs": [
        {
          "internalType": "bytes32",
          "name": "role",
          "type": "bytes32"
        },
        {
          "internalType": "address",
          "name": "account",
          "type": "address"
        }
      ],
      "name": "grantRole",
      "outputs": [],
      "stateMutability": "nonpayable",
      "type": "function"
    },
    {
      "inputs": [
        {
          "internalType": "bytes32",
          "name": "role",
          "type": "bytes32"
        },
        {
          "internalType": "address",
          "name": "account",
          "type": "address"
        }
      ],
      "name": "hasRole",
      "outputs": [
        {
          "internalType": "bool",
          "name": "",
          "type": "bool"
        }
      ],
      "stateMutability": "view",
      "type": "function"
    },
    {
      "inputs": [
        {
          "internalType": "address",
          "name": "account",
          "type": "address"
        },
        {
          "internalType": "address",
          "name": "operator",
          "type": "address"
        }
      ],
      "name": "isApprovedForAll",
      "outputs": [
        {
          "internalType": "bool",
          "name": "",
          "type": "bool"
        }
      ],
      "stateMutability": "view",
      "type": "function"
    },
    {
      "inputs": [
        {
          "internalType": "address",
          "name": "forwarder",
          "type": "address"
        }
      ],
      "name": "isTrustedForwarder",
      "outputs": [
        {
          "internalType": "bool",
          "name": "",
          "type": "bool"
        }
      ],
      "stateMutability": "view",
      "type": "function"
    },
    {
      "inputs": [
        {
          "internalType": "address",
          "name": "to",
          "type": "address"
        },
        {
          "internalType": "uint256",
          "name": "id",
          "type": "uint256"
        },
        {
          "internalType": "uint256",
          "name": "amount",
          "type": "uint256"
        },
        {
          "internalType": "bytes",
          "name": "data",
          "type": "bytes"
        }
      ],
      "name": "mint",
      "outputs": [],
      "stateMutability": "nonpayable",
      "type": "function"
    },
    {
      "inputs": [
        {
          "internalType": "address",
          "name": "to",
          "type": "address"
        },
        {
          "internalType": "uint256[]",
          "name": "ids",
          "type": "uint256[]"
        },
        {
          "internalType": "uint256[]",
          "name": "amounts",
          "type": "uint256[]"
        },
        {
          "internalType": "bytes",
          "name": "data",
          "type": "bytes"
        }
      ],
      "name": "mintBatch",
      "outputs": [],
      "stateMutability": "nonpayable",
      "type": "function"
    },
    {
      "inputs": [],
      "name": "nextTokenId",
      "outputs": [
        {
          "internalType": "uint256",
          "name": "",
          "type": "uint256"
        }
      ],
      "stateMutability": "view",
      "type": "function"
    },
    {
      "inputs": [
        {
          "internalType": "address",
          "name": "",
          "type": "address"
        },
        {
          "internalType": "address",
          "name": "",
          "type": "address"
        },
        {
          "internalType": "uint256[]",
          "name": "",
          "type": "uint256[]"
        },
        {
          "internalType": "uint256[]",
          "name": "",
          "type": "uint256[]"
        },
        {
          "internalType": "bytes",
          "name": "",
          "type": "bytes"
        }
      ],
      "name": "onERC1155BatchReceived",
      "outputs": [
        {
          "internalType": "bytes4",
          "name": "",
          "type": "bytes4"
        }
      ],
      "stateMutability": "nonpayable",
      "type": "function"
    },
    {
      "inputs": [
        {
          "internalType": "address",
          "name": "",
          "type": "address"
        },
        {
          "internalType": "address",
          "name": "",
          "type": "address"
        },
        {
          "internalType": "uint256",
          "name": "",
          "type": "uint256"
        },
        {
          "internalType": "uint256",
          "name": "",
          "type": "uint256"
        },
        {
          "internalType": "bytes",
          "name": "",
          "type": "bytes"
        }
      ],
      "name": "onERC1155Received",
      "outputs": [
        {
          "internalType": "bytes4",
          "name": "",
          "type": "bytes4"
        }
      ],
      "stateMutability": "nonpayable",
      "type": "function"
    },
    {
      "inputs": [
        {
          "internalType": "address",
          "name": "",
          "type": "address"
        },
        {
          "internalType": "address",
          "name": "",
          "type": "address"
        },
        {
          "internalType": "uint256",
          "name": "",
          "type": "uint256"
        },
        {
          "internalType": "bytes",
          "name": "",
          "type": "bytes"
        }
      ],
      "name": "onERC721Received",
      "outputs": [
        {
          "internalType": "bytes4",
          "name": "",
          "type": "bytes4"
        }
      ],
      "stateMutability": "nonpayable",
      "type": "function"
    },
    {
      "inputs": [],
      "name": "pause",
      "outputs": [],
      "stateMutability": "nonpayable",
      "type": "function"
    },
    {
      "inputs": [],
      "name": "paused",
      "outputs": [
        {
          "internalType": "bool",
          "name": "",
          "type": "bool"
        }
      ],
      "stateMutability": "view",
      "type": "function"
    },
    {
      "inputs": [
        {
          "internalType": "uint256",
          "name": "_nftId",
          "type": "uint256"
        },
        {
          "internalType": "uint256",
          "name": "_amount",
          "type": "uint256"
        }
      ],
      "name": "redeemERC20",
      "outputs": [],
      "stateMutability": "nonpayable",
      "type": "function"
    },
    {
      "inputs": [
        {
          "internalType": "uint256",
          "name": "_nftId",
          "type": "uint256"
        }
      ],
      "name": "redeemERC721",
      "outputs": [],
      "stateMutability": "nonpayable",
      "type": "function"
    },
    {
      "inputs": [
        {
          "internalType": "bytes32",
          "name": "role",
          "type": "bytes32"
        },
        {
          "internalType": "address",
          "name": "account",
          "type": "address"
        }
      ],
      "name": "renounceRole",
      "outputs": [],
      "stateMutability": "nonpayable",
      "type": "function"
    },
    {
      "inputs": [
        {
          "internalType": "bytes32",
          "name": "role",
          "type": "bytes32"
        },
        {
          "internalType": "address",
          "name": "account",
          "type": "address"
        }
      ],
      "name": "revokeRole",
      "outputs": [],
      "stateMutability": "nonpayable",
      "type": "function"
    },
    {
      "inputs": [],
      "name": "royaltyBps",
      "outputs": [
        {
          "internalType": "uint256",
          "name": "",
          "type": "uint256"
        }
      ],
      "stateMutability": "view",
      "type": "function"
    },
    {
      "inputs": [
        {
          "internalType": "uint256",
          "name": "",
          "type": "uint256"
        },
        {
          "internalType": "uint256",
          "name": "salePrice",
          "type": "uint256"
        }
      ],
      "name": "royaltyInfo",
      "outputs": [
        {
          "internalType": "address",
          "name": "receiver",
          "type": "address"
        },
        {
          "internalType": "uint256",
          "name": "royaltyAmount",
          "type": "uint256"
        }
      ],
      "stateMutability": "view",
      "type": "function"
    },
    {
      "inputs": [
        {
          "internalType": "address",
          "name": "from",
          "type": "address"
        },
        {
          "internalType": "address",
          "name": "to",
          "type": "address"
        },
        {
          "internalType": "uint256[]",
          "name": "ids",
          "type": "uint256[]"
        },
        {
          "internalType": "uint256[]",
          "name": "amounts",
          "type": "uint256[]"
        },
        {
          "internalType": "bytes",
          "name": "data",
          "type": "bytes"
        }
      ],
      "name": "safeBatchTransferFrom",
      "outputs": [],
      "stateMutability": "nonpayable",
      "type": "function"
    },
    {
      "inputs": [
        {
          "internalType": "address",
          "name": "from",
          "type": "address"
        },
        {
          "internalType": "address",
          "name": "to",
          "type": "address"
        },
        {
          "internalType": "uint256",
          "name": "id",
          "type": "uint256"
        },
        {
          "internalType": "uint256",
          "name": "amount",
          "type": "uint256"
        },
        {
          "internalType": "bytes",
          "name": "data",
          "type": "bytes"
        }
      ],
      "name": "safeTransferFrom",
      "outputs": [],
      "stateMutability": "nonpayable",
      "type": "function"
    },
    {
      "inputs": [
        {
          "internalType": "address",
          "name": "operator",
          "type": "address"
        },
        {
          "internalType": "bool",
          "name": "approved",
          "type": "bool"
        }
      ],
      "name": "setApprovalForAll",
      "outputs": [],
      "stateMutability": "nonpayable",
      "type": "function"
    },
    {
      "inputs": [
        {
          "internalType": "string",
          "name": "_URI",
          "type": "string"
        }
      ],
      "name": "setContractURI",
      "outputs": [],
      "stateMutability": "nonpayable",
      "type": "function"
    },
    {
      "inputs": [
        {
          "internalType": "bool",
          "name": "_restrictedTransfer",
          "type": "bool"
        }
      ],
      "name": "setRestrictedTransfer",
      "outputs": [],
      "stateMutability": "nonpayable",
      "type": "function"
    },
    {
      "inputs": [
        {
          "internalType": "uint256",
          "name": "_royaltyBps",
          "type": "uint256"
        }
      ],
      "name": "setRoyaltyBps",
      "outputs": [],
      "stateMutability": "nonpayable",
      "type": "function"
    },
    {
      "inputs": [
        {
          "internalType": "bytes4",
          "name": "interfaceId",
          "type": "bytes4"
        }
      ],
      "name": "supportsInterface",
      "outputs": [
        {
          "internalType": "bool",
          "name": "",
          "type": "bool"
        }
      ],
      "stateMutability": "view",
      "type": "function"
    },
    {
      "inputs": [
        {
          "internalType": "uint256",
          "name": "",
          "type": "uint256"
        }
      ],
      "name": "tokenState",
      "outputs": [
        {
          "internalType": "address",
          "name": "creator",
          "type": "address"
        },
        {
          "internalType": "string",
          "name": "uri",
          "type": "string"
        },
        {
          "internalType": "enum NFTCollection.UnderlyingType",
          "name": "underlyingType",
          "type": "uint8"
        }
      ],
      "stateMutability": "view",
      "type": "function"
    },
    {
      "inputs": [
        {
          "internalType": "uint256",
          "name": "_nftId",
          "type": "uint256"
        }
      ],
      "name": "tokenURI",
      "outputs": [
        {
          "internalType": "string",
          "name": "",
          "type": "string"
        }
      ],
      "stateMutability": "view",
      "type": "function"
    },
    {
      "inputs": [
        {
          "internalType": "uint256",
          "name": "id",
          "type": "uint256"
        }
      ],
      "name": "totalSupply",
      "outputs": [
        {
          "internalType": "uint256",
          "name": "",
          "type": "uint256"
        }
      ],
      "stateMutability": "view",
      "type": "function"
    },
    {
      "inputs": [],
      "name": "transfersRestricted",
      "outputs": [
        {
          "internalType": "bool",
          "name": "",
          "type": "bool"
        }
      ],
      "stateMutability": "view",
      "type": "function"
    },
    {
      "inputs": [],
      "name": "unpause",
      "outputs": [],
      "stateMutability": "nonpayable",
      "type": "function"
    },
    {
      "inputs": [
        {
          "internalType": "uint256",
          "name": "_nftId",
          "type": "uint256"
        }
      ],
      "name": "uri",
      "outputs": [
        {
          "internalType": "string",
          "name": "",
          "type": "string"
        }
      ],
      "stateMutability": "view",
      "type": "function"
    },
    {
      "inputs": [
        {
          "internalType": "address",
          "name": "_tokenContract",
          "type": "address"
        },
        {
          "internalType": "uint256",
          "name": "_tokenAmount",
          "type": "uint256"
        },
        {
          "internalType": "uint256",
          "name": "_numOfNftsToMint",
          "type": "uint256"
        },
        {
          "internalType": "string",
          "name": "_nftURI",
          "type": "string"
        }
      ],
      "name": "wrapERC20",
      "outputs": [],
      "stateMutability": "nonpayable",
      "type": "function"
    },
    {
      "inputs": [
        {
          "internalType": "address",
          "name": "_nftContract",
          "type": "address"
        },
        {
          "internalType": "uint256",
          "name": "_tokenId",
          "type": "uint256"
        },
        {
          "internalType": "string",
          "name": "_nftURI",
          "type": "string"
        }
      ],
      "name": "wrapERC721",
      "outputs": [],
      "stateMutability": "nonpayable",
      "type": "function"
    }
  ],
  "bytecode": "0x60806040523480156200001157600080fd5b5060405162006125380380620061258339810160408190526200003491620003fc565b81818062000042816200013f565b506005805460ff191690556200006360006200005d62000158565b62000175565b620000927f9f2df0fed2c77648de5860a4cc508cd0818c85b8b8a1ab4ceeef8d981c8956a66200005d62000158565b620000c17f65d7a28e3265b37a6474929f336521b332c1681b933f6cb9f3376673440d862a6200005d62000158565b50600780546001600160a01b03199081166001600160a01b03938416179091556008805490911691851691909117905580516200010690600b90602084019062000356565b50620001367f8502233096d909befbda0999bb8ea2f3a6be3c138b9fbf003752a4c8bce86f6c6200005d62000158565b50505062000565565b80516200015490600490602084019062000356565b5050565b60006200016f620001b860201b620028801760201c565b90505b90565b6200018c8282620001f860201b620028ae1760201c565b6000828152600160209081526040909120620001b3918390620028bc62000204821b17901c565b505050565b6000620001c53362000224565b15620001db575060131936013560601c62000172565b620001f06200023860201b620028d11760201c565b905062000172565b6200015482826200023c565b60006200021b836001600160a01b038416620002c6565b90505b92915050565b6007546001600160a01b0390811691161490565b3390565b62000248828262000315565b62000154576000828152602081815260408083206001600160a01b03851684529091529020805460ff191660011790556200028262000158565b6001600160a01b0316816001600160a01b0316837f2f8788117e7eff1d82e926ec794901d17c78024a50270940304540a733656f0d60405160405180910390a45050565b6000620002d483836200033e565b6200030c575081546001818101845560008481526020808220909301849055845484825282860190935260409020919091556200021e565b5060006200021e565b6000918252602082815260408084206001600160a01b0393909316845291905290205460ff1690565b60009081526001919091016020526040902054151590565b8280546200036490620004f9565b90600052602060002090601f016020900481019282620003885760008555620003d3565b82601f10620003a357805160ff1916838001178555620003d3565b82800160010185558215620003d3579182015b82811115620003d3578251825591602001919060010190620003b6565b50620003e1929150620003e5565b5090565b5b80821115620003e15760008155600101620003e6565b60008060006060848603121562000411578283fd5b83516200041e816200054c565b8093505060208085015162000433816200054c565b60408601519093506001600160401b038082111562000450578384fd5b818701915087601f83011262000464578384fd5b81518181111562000479576200047962000536565b604051601f8201601f19168101850183811182821017156200049f576200049f62000536565b60405281815283820185018a1015620004b6578586fd5b8592505b81831015620004d95783830185015181840186015291840191620004ba565b81831115620004ea57858583830101525b80955050505050509250925092565b6002810460018216806200050e57607f821691505b602082108114156200053057634e487b7160e01b600052602260045260246000fd5b50919050565b634e487b7160e01b600052604160045260246000fd5b6001600160a01b03811681146200056257600080fd5b50565b615bb080620005756000396000f3fe608060405234801561001057600080fd5b50600436106103405760003560e01c80637a61080b116101bd578063c0e72740116100f9578063db884b0c116100a2578063e985e9c51161007c578063e985e9c5146106b0578063f23a6e61146106c3578063f242432a146106d6578063f5298aca146106e957610340565b8063db884b0c1461068d578063e63ab1e9146106a0578063e8a3d485146106a857610340565b8063ca15c873116100d3578063ca15c8731461065f578063d539139314610672578063d547741f1461067a57610340565b8063c0e727401461064f578063c63adb2b14610657578063c87b56dd146103a357610340565b8063938e3d7b11610166578063a217fddf11610140578063a217fddf1461060e578063a22cb46514610616578063bc197c8114610629578063bd85b0391461063c57610340565b8063938e3d7b146105c657806393b778d4146105d95780639745cc3d146105ec57610340565b80638ba448c2116101975780638ba448c21461058d5780639010d07c146105a057806391d14854146105b357610340565b80637a61080b1461056a5780638423df791461057d5780638456cb591461058557610340565b806336568abe1161028c578063572b6c05116102355780636b20c4541161020f5780636b20c45414610529578063731133e91461053c57806375794a3c1461054f578063788f1f5e1461055757610340565b8063572b6c05146104ec5780635c975abb146104ff5780635cd9913d1461050757610340565b806349a13fdf1161026657806349a13fdf146104995780634e1273f4146104b9578063510b5158146104cc57610340565b806336568abe1461046b578063367a182b1461047e5780633f4ba83a1461049157610340565b80631f7fdffa116102ee5780632a55205a116102c85780632a55205a146104245780632eb2c2d6146104455780632f2ff15d1461045857610340565b80631f7fdffa146103f6578063206b60f914610409578063248a9ca31461041157610340565b80630e89341c1161031f5780630e89341c146103a3578063150b7a02146103c35780631f72d831146103e357610340565b8062fdd58e1461034557806301ffc9a71461036e578063090a32821461038e575b600080fd5b610358610353366004614407565b6106fc565b6040516103659190614bc9565b60405180910390f35b61038161037c36600461473b565b610758565b6040516103659190614bbe565b6103a161039c366004614432565b610783565b005b6103b66103b13660046146c6565b610c64565b6040516103659190614c2f565b6103d66103d1366004614148565b610d09565b6040516103659190614be9565b6103a16103f13660046146c6565b610d19565b6103a161040436600461434f565b610f25565b610358611054565b61035861041f3660046146c6565b611078565b61043761043236600461471a565b61108d565b604051610365929190614a84565b6103a161045336600461409e565b6111cd565b6103a16104663660046146f6565b61122b565b6103a16104793660046146f6565b611252565b61043761048c3660046146c6565b611274565b6103a1611299565b6104ac6104a7366004614631565b6112eb565b6040516103659190614abe565b6104ac6104c7366004614571565b611677565b6104df6104da3660046146c6565b611797565b6040516103659190614941565b6103816104fa36600461402e565b6117b2565b6103816117c6565b61051a6105153660046146c6565b6117d0565b60405161036593929190614a9d565b6103a16105373660046142dc565b6117fb565b6103a161054a3660046144c0565b611850565b6103586118d5565b6103a1610565366004614219565b6118db565b6103a161057836600461471a565b611a58565b610381611bd6565b6103a1611bdf565b6103a161059b36600461468e565b611c2f565b6104df6105ae36600461471a565b611d58565b6103816105c13660046146f6565b611d77565b6103a16105d4366004614773565b611da0565b6103a16105e73660046146c6565b611ec2565b6105ff6105fa3660046146c6565b611fe0565b60405161036593929190614a34565b610358612098565b6103a16106243660046143da565b61209d565b6103d661063736600461409e565b61215f565b61035861064a3660046146c6565b612170565b6103b6612182565b610358612210565b61035861066d3660046146c6565b612216565b61035861222d565b6103a16106883660046146f6565b612251565b6103a161069b366004614509565b61225b565b6103586126df565b6103b6612703565b6103816106be366004614066565b612795565b6103d66106d13660046141b2565b6127c3565b6103a16106e43660046141b2565b6127d4565b6103a16106f736600461448c565b61282b565b60006001600160a01b03831661072d5760405162461bcd60e51b815260040161072490614e22565b60405180910390fd5b5060008181526002602090815260408083206001600160a01b03861684529091529020545b92915050565b6000610763826128d5565b8061075257506001600160e01b0319821663152a902d60e11b1492915050565b600860009054906101000a90046001600160a01b03166001600160a01b0316639d2f83f06040518163ffffffff1660e01b815260040160206040518083038186803b1580156107d157600080fd5b505afa1580156107e5573d6000803e3d6000fd5b505050506040513d601f19601f8201168201806040525081019061080991906146aa565b156108265760405162461bcd60e51b815260040161072490615412565b6108527f9f2df0fed2c77648de5860a4cc508cd0818c85b8b8a1ab4ceeef8d981c8956a66105c16128e0565b61086e5760405162461bcd60e51b8152600401610724906152aa565b6108766128e0565b6001600160a01b0316846001600160a01b0316636352211e856040518263ffffffff1660e01b81526004016108ab9190614bc9565b60206040518083038186803b1580156108c357600080fd5b505afa1580156108d7573d6000803e3d6000fd5b505050506040513d601f19601f820116820180604052508101906108fb919061404a565b6001600160a01b0316146109215760405162461bcd60e51b8152600401610724906156e3565b60405163020604bf60e21b815230906001600160a01b0386169063081812fc9061094f908790600401614bc9565b60206040518083038186803b15801561096757600080fd5b505afa15801561097b573d6000803e3d6000fd5b505050506040513d601f19601f8201168201806040525081019061099f919061404a565b6001600160a01b03161480610a345750836001600160a01b031663e985e9c56109c66128e0565b306040518363ffffffff1660e01b81526004016109e4929190614955565b60206040518083038186803b1580156109fc57600080fd5b505afa158015610a10573d6000803e3d6000fd5b505050506040513d601f19601f82011682018060405250810190610a3491906146aa565b610a505760405162461bcd60e51b815260040161072490614f7d565b6000610a5a6128e0565b600980549192506001906000610a708385615989565b9091555050604051632142170760e11b81526001600160a01b038716906342842e0e90610aa590859030908a906004016149cd565b600060405180830381600087803b158015610abf57600080fd5b505af1158015610ad3573d6000803e3d6000fd5b50505050610af382826001604051806020016040528060008152506128ef565b6040518060600160405280836001600160a01b0316815260200185858080601f01602080910402602001604051908101604052809392919081815260200183838082843760009201829052509385525050600260209384015250838152600d825260409020825181546001600160a01b0319166001600160a01b039091161781558282015180519192610b8e92600185019290910190613dc1565b5060408201518160020160006101000a81548160ff02191690836002811115610bc757634e487b7160e01b600052602160045260246000fd5b0217905550506040805180820182526001600160a01b0389811680835260208084018b81526000888152600e90925290859020935184546001600160a01b031916908416178455516001909301929092559151909250908416907f797091bed1dcc535a592c3da1115fdb7467204ef9fb70943f0fc855ebe0a30f590610c5490899086908a908a906158a6565b60405180910390a3505050505050565b6000818152600d60205260409020600101805460609190610c8490615a3a565b80601f0160208091040260200160405190810160405280929190818152602001828054610cb090615a3a565b8015610cfd5780601f10610cd257610100808354040283529160200191610cfd565b820191906000526020600020905b815481529060010190602001808311610ce057829003601f168201915b50505050509050919050565b630a85bd0160e11b949350505050565b6008546040805163a217fddf60e01b815290516001600160a01b03909216916391d1485491839163a217fddf91600480820192602092909190829003018186803b158015610d6657600080fd5b505afa158015610d7a573d6000803e3d6000fd5b505050506040513d601f19601f82011682018060405250810190610d9e91906146de565b610da66128e0565b6040518363ffffffff1660e01b8152600401610dc3929190614bd2565b60206040518083038186803b158015610ddb57600080fd5b505afa158015610def573d6000803e3d6000fd5b505050506040513d601f19601f82011682018060405250810190610e1391906146aa565b610e2f5760405162461bcd60e51b81526004016107249061556f565b600860009054906101000a90046001600160a01b03166001600160a01b031663fd967f476040518163ffffffff1660e01b815260040160206040518083038186803b158015610e7d57600080fd5b505afa158015610e91573d6000803e3d6000fd5b505050506040513d601f19601f82011682018060405250810190610eb591906147b3565b6fffffffffffffffffffffffffffffffff168110610ee55760405162461bcd60e51b815260040161072490614d31565b600a8190556040517f244ea8d7627f5a08f4299862bd5a45752842c183aee5b0fb0d1e4887bfa605b390610f1a908390614bc9565b60405180910390a150565b60018060005b855181101561100557600954868281518110610f5757634e487b7160e01b600052603260045260246000fd5b602002602001015110158015610f6a5750825b15610f7457600092505b6000600d6000888481518110610f9a57634e487b7160e01b600052603260045260246000fd5b6020026020010151815260200190815260200160002060020160009054906101000a900460ff166002811115610fe057634e487b7160e01b600052602160045260246000fd5b14158015610feb5750815b15610ff557600091505b610ffe81615a75565b9050610f2b565b50816110235760405162461bcd60e51b815260040161072490614dc5565b806110405760405162461bcd60e51b815260040161072490614e7f565b61104c86868686612924565b505050505050565b7f8502233096d909befbda0999bb8ea2f3a6be3c138b9fbf003752a4c8bce86f6c81565b60009081526020819052604090206001015490565b60085460405163f2aab4b360e01b815260009182916001600160a01b039091169063f2aab4b3906110c2903090600401614941565b60206040518083038186803b1580156110da57600080fd5b505afa1580156110ee573d6000803e3d6000fd5b505050506040513d601f19601f82011682018060405250810190611112919061404a565b9150600860009054906101000a90046001600160a01b03166001600160a01b031663fd967f476040518163ffffffff1660e01b815260040160206040518083038186803b15801561116257600080fd5b505afa158015611176573d6000803e3d6000fd5b505050506040513d601f19601f8201168201806040525081019061119a91906147b3565b6fffffffffffffffffffffffffffffffff16600a54846111ba91906159c1565b6111c491906159a1565b90509250929050565b6111d56128e0565b6001600160a01b0316856001600160a01b031614806111fb57506111fb856106be6128e0565b6112175760405162461bcd60e51b81526004016107249061524d565b6112248585858585612978565b5050505050565b6112358282612b44565b600082815260016020526040902061124d90826128bc565b505050565b61125c8282612b68565b600082815260016020526040902061124d9082612baa565b600e60205260009081526040902080546001909101546001600160a01b039091169082565b6112c57f65d7a28e3265b37a6474929f336521b332c1681b933f6cb9f3376673440d862a6105c16128e0565b6112e15760405162461bcd60e51b8152600401610724906154b5565b6112e9612bbf565b565b600854604080516309d2f83f60e41b815290516060926001600160a01b031691639d2f83f0916004808301926020929190829003018186803b15801561133057600080fd5b505afa158015611344573d6000803e3d6000fd5b505050506040513d601f19601f8201168201806040525081019061136891906146aa565b156113855760405162461bcd60e51b815260040161072490615412565b6113b17f9f2df0fed2c77648de5860a4cc508cd0818c85b8b8a1ab4ceeef8d981c8956a66105c16128e0565b6113cd5760405162461bcd60e51b8152600401610724906152aa565b8382146113ec5760405162461bcd60e51b815260040161072490615174565b836114095760405162461bcd60e51b815260040161072490615740565b60006114136128e0565b90508467ffffffffffffffff81111561143c57634e487b7160e01b600052604160045260246000fd5b604051908082528060200260200182016040528015611465578160200160208202803683370190505b5060095490925060005b868110156115d0578184828151811061149857634e487b7160e01b600052603260045260246000fd5b6020026020010181815250506040518060600160405280846001600160a01b031681526020018989848181106114de57634e487b7160e01b600052603260045260246000fd5b90506020028101906114f091906158f6565b8080601f01602080910402602001604051908101604052809392919081815260200183838082843760009201829052509385525050506020918201819052848152600d825260409020825181546001600160a01b0319166001600160a01b03909116178155828201518051919261156f92600185019290910190613dc1565b5060408201518160020160006101000a81548160ff021916908360028111156115a857634e487b7160e01b600052602160045260246000fd5b02179055506115bc91506001905083615989565b9150806115c881615a75565b91505061146f565b50806009819055506116248284878780806020026020016040519081016040528093929190818152602001838360200280828437600092018290525060408051602081019091529081529250612c2d915050565b816001600160a01b03167fbea5a4b7cf9a3f7d8bf7c987614db5dcfdcd917a2cd5788a210c0ebdccfc5da48489898989604051611665959493929190614ad1565b60405180910390a25050949350505050565b6060815183511461169a5760405162461bcd60e51b815260040161072490615629565b6000835167ffffffffffffffff8111156116c457634e487b7160e01b600052604160045260246000fd5b6040519080825280602002602001820160405280156116ed578160200160208202803683370190505b50905060005b845181101561178f5761175485828151811061171f57634e487b7160e01b600052603260045260246000fd5b602002602001015185838151811061174757634e487b7160e01b600052603260045260246000fd5b60200260200101516106fc565b82828151811061177457634e487b7160e01b600052603260045260246000fd5b602090810291909101015261178881615a75565b90506116f3565b509392505050565b6000908152600d60205260409020546001600160a01b031690565b6007546001600160a01b0390811691161490565b60055460ff165b90565b600f602052600090815260409020805460018201546002909201546001600160a01b03909116919083565b6118036128e0565b6001600160a01b0316836001600160a01b031614806118295750611829836106be6128e0565b6118455760405162461bcd60e51b815260040161072490615094565b61124d838383612ccc565b60095483106118715760405162461bcd60e51b815260040161072490614dc5565b6000838152600d6020526040812060029081015460ff16908111156118a657634e487b7160e01b600052602160045260246000fd5b146118c35760405162461bcd60e51b815260040161072490614e7f565b6118cf84848484612d6a565b50505050565b60095481565b600860009054906101000a90046001600160a01b03166001600160a01b0316639d2f83f06040518163ffffffff1660e01b815260040160206040518083038186803b15801561192957600080fd5b505afa15801561193d573d6000803e3d6000fd5b505050506040513d601f19601f8201168201806040525081019061196191906146aa565b1561197e5760405162461bcd60e51b815260040161072490615412565b6119aa7f9f2df0fed2c77648de5860a4cc508cd0818c85b8b8a1ab4ceeef8d981c8956a66105c16128e0565b6119c65760405162461bcd60e51b8152600401610724906152aa565b60006119d48a8a8a8a6112eb565b9050600086868686866040516020016119f1959493929190614bfe565b6040516020818303038152906040529050611a4a611a0d6128e0565b8d848c8c808060200260200160405190810160405280939291908181526020018383602002808284376000920191909152508892506111cd915050565b505050505050505050505050565b6000611a626128e0565b905081611a6f82856106fc565b1015611a8d5760405162461bcd60e51b815260040161072490615686565b611a98818484612dbe565b6000838152600f602052604081206001810154600290910154611abc9085906159c1565b611ac691906159a1565b6000858152600f60205260409081902054905163a9059cbb60e01b81529192506001600160a01b03169063a9059cbb90611b069085908590600401614a84565b602060405180830381600087803b158015611b2057600080fd5b505af1158015611b34573d6000803e3d6000fd5b505050506040513d601f19601f82011682018060405250810190611b5891906146aa565b611b745760405162461bcd60e51b815260040161072490614edc565b6000848152600f6020526040908190205490516001600160a01b03918216918691908516907fb80333a30b48beb3745280a5e4bb1b8e53f79569e454ec99ba13678dfbe728eb90611bc89086908990615898565b60405180910390a450505050565b600c5460ff1681565b611c0b7f65d7a28e3265b37a6474929f336521b332c1681b933f6cb9f3376673440d862a6105c16128e0565b611c275760405162461bcd60e51b815260040161072490615512565b6112e9612df1565b6008546040805163a217fddf60e01b815290516001600160a01b03909216916391d1485491839163a217fddf91600480820192602092909190829003018186803b158015611c7c57600080fd5b505afa158015611c90573d6000803e3d6000fd5b505050506040513d601f19601f82011682018060405250810190611cb491906146de565b611cbc6128e0565b6040518363ffffffff1660e01b8152600401611cd9929190614bd2565b60206040518083038186803b158015611cf157600080fd5b505afa158015611d05573d6000803e3d6000fd5b505050506040513d601f19601f82011682018060405250810190611d2991906146aa565b611d455760405162461bcd60e51b81526004016107249061556f565b600c805460ff1916911515919091179055565b6000828152600160205260408120611d709083612e4c565b9392505050565b6000918252602082815260408084206001600160a01b0393909316845291905290205460ff1690565b6008546040805163a217fddf60e01b815290516001600160a01b03909216916391d1485491839163a217fddf91600480820192602092909190829003018186803b158015611ded57600080fd5b505afa158015611e01573d6000803e3d6000fd5b505050506040513d601f19601f82011682018060405250810190611e2591906146de565b611e2d6128e0565b6040518363ffffffff1660e01b8152600401611e4a929190614bd2565b60206040518083038186803b158015611e6257600080fd5b505afa158015611e76573d6000803e3d6000fd5b505050506040513d601f19601f82011682018060405250810190611e9a91906146aa565b611eb65760405162461bcd60e51b81526004016107249061556f565b61124d600b8383613e45565b6000611ecc6128e0565b90506000611eda82846106fc565b11611ef75760405162461bcd60e51b815260040161072490615686565b611f0381836001612dbe565b6000828152600e60205260409081902080546001909101549151632142170760e11b81526001600160a01b03909116916342842e0e91611f4a9130918691906004016149cd565b600060405180830381600087803b158015611f6457600080fd5b505af1158015611f78573d6000803e3d6000fd5b5050506000838152600e602052604090819020805460019091015491516001600160a01b039182169350908416917fea7b88a04220a2292e142652e8e1a59cc00e7d27d8ad6b11da6cf5870e6ba86691611fd491908790615898565b60405180910390a35050565b600d60205260009081526040902080546001820180546001600160a01b03909216929161200c90615a3a565b80601f016020809104026020016040519081016040528092919081815260200182805461203890615a3a565b80156120855780601f1061205a57610100808354040283529160200191612085565b820191906000526020600020905b81548152906001019060200180831161206857829003601f168201915b5050506002909301549192505060ff1683565b600081565b816001600160a01b03166120af6128e0565b6001600160a01b031614156120d65760405162461bcd60e51b8152600401610724906155cc565b80600360006120e36128e0565b6001600160a01b03908116825260208083019390935260409182016000908120918716808252919093529120805460ff1916921515929092179091556121276128e0565b6001600160a01b03167f17307eab39ab6107e8899845ad3d59bd9653f200f220920489ca2b5937696c3183604051611fd49190614bbe565b63bc197c8160e01b95945050505050565b60009081526006602052604090205490565b600b805461218f90615a3a565b80601f01602080910402602001604051908101604052809291908181526020018280546121bb90615a3a565b80156122085780601f106121dd57610100808354040283529160200191612208565b820191906000526020600020905b8154815290600101906020018083116121eb57829003601f168201915b505050505081565b600a5481565b600081815260016020526040812061075290612e58565b7f9f2df0fed2c77648de5860a4cc508cd0818c85b8b8a1ab4ceeef8d981c8956a681565b61125c8282612e63565b600860009054906101000a90046001600160a01b03166001600160a01b0316639d2f83f06040518163ffffffff1660e01b815260040160206040518083038186803b1580156122a957600080fd5b505afa1580156122bd573d6000803e3d6000fd5b505050506040513d601f19601f820116820180604052508101906122e191906146aa565b156122fe5760405162461bcd60e51b815260040161072490615412565b61232a7f9f2df0fed2c77648de5860a4cc508cd0818c85b8b8a1ab4ceeef8d981c8956a66105c16128e0565b6123465760405162461bcd60e51b8152600401610724906152aa565b60006123506128e0565b905084866001600160a01b03166370a08231836040518263ffffffff1660e01b815260040161237f9190614941565b60206040518083038186803b15801561239757600080fd5b505afa1580156123ab573d6000803e3d6000fd5b505050506040513d601f19601f820116820180604052508101906123cf91906146de565b10156123ed5760405162461bcd60e51b815260040161072490615458565b604051636eb1769f60e11b815285906001600160a01b0388169063dd62ed3e9061241d9085903090600401614955565b60206040518083038186803b15801561243557600080fd5b505afa158015612449573d6000803e3d6000fd5b505050506040513d601f19601f8201168201806040525081019061246d91906146de565b101561248b5760405162461bcd60e51b815260040161072490615037565b6040516323b872dd60e01b81526001600160a01b038716906323b872dd906124bb90849030908a906004016149cd565b602060405180830381600087803b1580156124d557600080fd5b505af11580156124e9573d6000803e3d6000fd5b505050506040513d601f19601f8201168201806040525081019061250d91906146aa565b6125295760405162461bcd60e51b815260040161072490614edc565b6009805490600190600061253d8385615989565b9250508190555061255f828287604051806020016040528060008152506128ef565b6040518060600160405280836001600160a01b0316815260200185858080601f0160208091040260200160405190810160405280939291908181526020018383808284376000920182905250938552505060016020938401819052858352600d84526040909220845181546001600160a01b0319166001600160a01b0390911617815584840151805191946125f994860193500190613dc1565b5060408201518160020160006101000a81548160ff0219169083600281111561263257634e487b7160e01b600052602160045260246000fd5b021790555050604080516060810182526001600160a01b038a811680835260208084018b81528486018d81526000898152600f90935291869020945185546001600160a01b031916908516178555516001850155516002909301929092559151909250908416907f53af9a53d4a11cb382035aa13d6d8e24575569953176d87464ba37e7013a6aa4906126ce908a908a9087908b908b906158d0565b60405180910390a350505050505050565b7f65d7a28e3265b37a6474929f336521b332c1681b933f6cb9f3376673440d862a81565b6060600b805461271290615a3a565b80601f016020809104026020016040519081016040528092919081815260200182805461273e90615a3a565b801561278b5780601f106127605761010080835404028352916020019161278b565b820191906000526020600020905b81548152906001019060200180831161276e57829003601f168201915b5050505050905090565b6001600160a01b03918216600090815260036020908152604080832093909416825291909152205460ff1690565b63f23a6e6160e01b95945050505050565b6127dc6128e0565b6001600160a01b0316856001600160a01b031614806128025750612802856106be6128e0565b61281e5760405162461bcd60e51b815260040161072490615094565b6112248585858585612e82565b6128336128e0565b6001600160a01b0316836001600160a01b031614806128595750612859836106be6128e0565b6128755760405162461bcd60e51b815260040161072490615094565b61124d838383612dbe565b600061288b336117b2565b1561289f575060131936013560601c6117cd565b6128a76128d1565b90506117cd565b6128b88282612fc9565b5050565b6000611d70836001600160a01b03841661304e565b3390565b600061075282613098565b60006128ea612880565b905090565b6128fb848484846130bd565b60008381526006602052604081208054849290612919908490615989565b909155505050505050565b6129507f9f2df0fed2c77648de5860a4cc508cd0818c85b8b8a1ab4ceeef8d981c8956a66105c16128e0565b61296c5760405162461bcd60e51b815260040161072490615358565b6118cf84848484612c2d565b81518351146129995760405162461bcd60e51b81526004016107249061579d565b6001600160a01b0384166129bf5760405162461bcd60e51b815260040161072490615208565b60006129c96128e0565b90506129d981878787878761319f565b60005b8451811015612ade576000858281518110612a0757634e487b7160e01b600052603260045260246000fd5b602002602001015190506000858381518110612a3357634e487b7160e01b600052603260045260246000fd5b60209081029190910181015160008481526002835260408082206001600160a01b038e168352909352919091205490915081811015612a845760405162461bcd60e51b8152600401610724906153b5565b60008381526002602090815260408083206001600160a01b038e8116855292528083208585039055908b16825281208054849290612ac3908490615989565b9250508190555050505080612ad790615a75565b90506129dc565b50846001600160a01b0316866001600160a01b0316826001600160a01b03167f4a39dc06d4c0dbc64b70af90fd698a233a518aa5d07e595d983b8c0526c8f7fb8787604051612b2e929190614b90565b60405180910390a461104c818787878787613256565b612b4d82611078565b612b5e81612b596128e0565b613364565b61124d8383612fc9565b612b706128e0565b6001600160a01b0316816001600160a01b031614612ba05760405162461bcd60e51b81526004016107249061583b565b6128b882826133c8565b6000611d70836001600160a01b03841661344b565b612bc76117c6565b612be35760405162461bcd60e51b815260040161072490614d8e565b6005805460ff191690557f5db9ee0a495bf2e6ff9c91a7834c1ba4fdd244a5e8aa4e537bd38aeae4b073aa612c166128e0565b604051612c239190614941565b60405180910390a1565b612c3984848484613568565b60005b835181101561122457828181518110612c6557634e487b7160e01b600052603260045260246000fd5b602002602001015160066000868481518110612c9157634e487b7160e01b600052603260045260246000fd5b602002602001015181526020019081526020016000206000828254612cb69190615989565b90915550612cc5905081615a75565b9050612c3c565b612cd78383836136ea565b60005b82518110156118cf57818181518110612d0357634e487b7160e01b600052603260045260246000fd5b602002602001015160066000858481518110612d2f57634e487b7160e01b600052603260045260246000fd5b602002602001015181526020019081526020016000206000828254612d5491906159e0565b90915550612d63905081615a75565b9050612cda565b612d967f9f2df0fed2c77648de5860a4cc508cd0818c85b8b8a1ab4ceeef8d981c8956a66105c16128e0565b612db25760405162461bcd60e51b815260040161072490615358565b6118cf848484846128ef565b612dc9838383613890565b60008281526006602052604081208054839290612de79084906159e0565b9091555050505050565b612df96117c6565b15612e165760405162461bcd60e51b8152600401610724906151d1565b6005805460ff191660011790557f62e78cea01bee320cd4e420270b5ea74000d11b0c9f74754ebdbfc544b05a258612c166128e0565b6000611d7083836139a3565b6000610752826139db565b612e6c82611078565b612e7881612b596128e0565b61124d83836133c8565b6001600160a01b038416612ea85760405162461bcd60e51b815260040161072490615208565b6000612eb26128e0565b9050612ed2818787612ec3886139df565b612ecc886139df565b8761319f565b60008481526002602090815260408083206001600160a01b038a16845290915290205483811015612f155760405162461bcd60e51b8152600401610724906153b5565b60008581526002602090815260408083206001600160a01b038b8116855292528083208785039055908816825281208054869290612f54908490615989565b92505081905550856001600160a01b0316876001600160a01b0316836001600160a01b03167fc3d58168c5ae7397731d063d5bbf3d657854427343f4c083240f7aacaa2d0f628888604051612faa929190615898565b60405180910390a4612fc0828888888888613a38565b50505050505050565b612fd38282611d77565b6128b8576000828152602081815260408083206001600160a01b03851684529091529020805460ff1916600117905561300a6128e0565b6001600160a01b0316816001600160a01b0316837f2f8788117e7eff1d82e926ec794901d17c78024a50270940304540a733656f0d60405160405180910390a45050565b600061305a8383613b09565b61309057508154600181810184556000848152602080822090930184905584548482528286019093526040902091909155610752565b506000610752565b60006001600160e01b03198216630271189760e51b1480610752575061075282613b21565b6001600160a01b0384166130e35760405162461bcd60e51b8152600401610724906157fa565b60006130ed6128e0565b90506130ff81600087612ec3886139df565b60008481526002602090815260408083206001600160a01b038916845290915281208054859290613131908490615989565b92505081905550846001600160a01b031660006001600160a01b0316826001600160a01b03167fc3d58168c5ae7397731d063d5bbf3d657854427343f4c083240f7aacaa2d0f628787604051613188929190615898565b60405180910390a461122481600087878787613a38565b6131ad868686868686613b61565b600c5460ff1680156131c757506001600160a01b03851615155b80156131db57506001600160a01b03841615155b1561104c5761320a7f8502233096d909befbda0999bb8ea2f3a6be3c138b9fbf003752a4c8bce86f6c86611d77565b8061323a575061323a7f8502233096d909befbda0999bb8ea2f3a6be3c138b9fbf003752a4c8bce86f6c85611d77565b61104c5760405162461bcd60e51b8152600401610724906150f1565b613268846001600160a01b0316613b6f565b1561104c5760405163bc197c8160e01b81526001600160a01b0385169063bc197c81906132a1908990899088908890889060040161496f565b602060405180830381600087803b1580156132bb57600080fd5b505af19250505080156132eb575060408051601f3d908101601f191682019092526132e891810190614757565b60015b613334576132f7615ac2565b80613302575061331c565b8060405162461bcd60e51b81526004016107249190614c2f565b60405162461bcd60e51b815260040161072490614c42565b6001600160e01b0319811663bc197c8160e01b14612fc05760405162461bcd60e51b815260040161072490614cd4565b61336e8282611d77565b6128b857613386816001600160a01b03166014613b75565b613391836020613b75565b6040516020016133a29291906148c0565b60408051601f198184030181529082905262461bcd60e51b825261072491600401614c2f565b6133d28282611d77565b156128b8576000828152602081815260408083206001600160a01b03851684529091529020805460ff191690556134076128e0565b6001600160a01b0316816001600160a01b0316837ff6391f5c32d9c69d2a47ea670b442974b53935d1edc7fd64eb21e047a839171b60405160405180910390a45050565b6000818152600183016020526040812054801561355e57600061346f6001836159e0565b8554909150600090613483906001906159e0565b90508181146135045760008660000182815481106134b157634e487b7160e01b600052603260045260246000fd5b90600052602060002001549050808760000184815481106134e257634e487b7160e01b600052603260045260246000fd5b6000918252602080832090910192909255918252600188019052604090208390555b855486908061352357634e487b7160e01b600052603160045260246000fd5b600190038181906000526020600020016000905590558560010160008681526020019081526020016000206000905560019350505050610752565b6000915050610752565b6001600160a01b03841661358e5760405162461bcd60e51b8152600401610724906157fa565b81518351146135af5760405162461bcd60e51b81526004016107249061579d565b60006135b96128e0565b90506135ca8160008787878761319f565b60005b8451811015613682578381815181106135f657634e487b7160e01b600052603260045260246000fd5b60200260200101516002600087848151811061362257634e487b7160e01b600052603260045260246000fd5b602002602001015181526020019081526020016000206000886001600160a01b03166001600160a01b03168152602001908152602001600020600082825461366a9190615989565b9091555081905061367a81615a75565b9150506135cd565b50846001600160a01b031660006001600160a01b0316826001600160a01b03167f4a39dc06d4c0dbc64b70af90fd698a233a518aa5d07e595d983b8c0526c8f7fb87876040516136d3929190614b90565b60405180910390a461122481600087878787613256565b6001600160a01b0383166137105760405162461bcd60e51b815260040161072490615315565b80518251146137315760405162461bcd60e51b81526004016107249061579d565b600061373b6128e0565b905061375b8185600086866040518060200160405280600081525061319f565b60005b835181101561383f57600084828151811061378957634e487b7160e01b600052603260045260246000fd5b6020026020010151905060008483815181106137b557634e487b7160e01b600052603260045260246000fd5b60209081029190910181015160008481526002835260408082206001600160a01b038c1683529093529190912054909150818110156138065760405162461bcd60e51b815260040161072490614f39565b60009283526002602090815260408085206001600160a01b038b168652909152909220910390558061383781615a75565b91505061375e565b5060006001600160a01b0316846001600160a01b0316826001600160a01b03167f4a39dc06d4c0dbc64b70af90fd698a233a518aa5d07e595d983b8c0526c8f7fb8686604051611bc8929190614b90565b6001600160a01b0383166138b65760405162461bcd60e51b815260040161072490615315565b60006138c06128e0565b90506138f0818560006138d2876139df565b6138db876139df565b6040518060200160405280600081525061319f565b60008381526002602090815260408083206001600160a01b0388168452909152902054828110156139335760405162461bcd60e51b815260040161072490614f39565b60008481526002602090815260408083206001600160a01b03808a16808652919093528184208786039055905190918516907fc3d58168c5ae7397731d063d5bbf3d657854427343f4c083240f7aacaa2d0f62906139949089908990615898565b60405180910390a45050505050565b60008260000182815481106139c857634e487b7160e01b600052603260045260246000fd5b9060005260206000200154905092915050565b5490565b60408051600180825281830190925260609160009190602080830190803683370190505090508281600081518110613a2757634e487b7160e01b600052603260045260246000fd5b602090810291909101015292915050565b613a4a846001600160a01b0316613b6f565b1561104c5760405163f23a6e6160e01b81526001600160a01b0385169063f23a6e6190613a8390899089908890889088906004016149f1565b602060405180830381600087803b158015613a9d57600080fd5b505af1925050508015613acd575060408051601f3d908101601f19168201909252613aca91810190614757565b60015b613ad9576132f7615ac2565b6001600160e01b0319811663f23a6e6160e01b14612fc05760405162461bcd60e51b815260040161072490614cd4565b60009081526001919091016020526040902054151590565b60006001600160e01b03198216636cdb3d1360e11b1480613b5257506001600160e01b031982166303a24d0760e21b145b80610752575061075282613d34565b61104c868686868686613d59565b3b151590565b60606000613b848360026159c1565b613b8f906002615989565b67ffffffffffffffff811115613bb557634e487b7160e01b600052604160045260246000fd5b6040519080825280601f01601f191660200182016040528015613bdf576020820181803683370190505b509050600360fc1b81600081518110613c0857634e487b7160e01b600052603260045260246000fd5b60200101906001600160f81b031916908160001a905350600f60fb1b81600181518110613c4557634e487b7160e01b600052603260045260246000fd5b60200101906001600160f81b031916908160001a9053506000613c698460026159c1565b613c74906001615989565b90505b6001811115613d15577f303132333435363738396162636465660000000000000000000000000000000085600f1660108110613cc357634e487b7160e01b600052603260045260246000fd5b1a60f81b828281518110613ce757634e487b7160e01b600052603260045260246000fd5b60200101906001600160f81b031916908160001a90535060049490941c93613d0e81615a23565b9050613c77565b508315611d705760405162461bcd60e51b815260040161072490614c9f565b60006001600160e01b03198216635a05180f60e01b1480610752575061075282613d8c565b613d6786868686868661104c565b613d6f6117c6565b1561104c5760405162461bcd60e51b815260040161072490614fda565b60006001600160e01b03198216637965db0b60e01b148061075257506301ffc9a760e01b6001600160e01b0319831614610752565b828054613dcd90615a3a565b90600052602060002090601f016020900481019282613def5760008555613e35565b82601f10613e0857805160ff1916838001178555613e35565b82800160010185558215613e35579182015b82811115613e35578251825591602001919060010190613e1a565b50613e41929150613eb9565b5090565b828054613e5190615a3a565b90600052602060002090601f016020900481019282613e735760008555613e35565b82601f10613e8c5782800160ff19823516178555613e35565b82800160010185558215613e35579182015b82811115613e35578235825591602001919060010190613e9e565b5b80821115613e415760008155600101613eba565b60008083601f840112613edf578182fd5b50813567ffffffffffffffff811115613ef6578182fd5b6020830191508360208083028501011115613f1057600080fd5b9250929050565b600082601f830112613f27578081fd5b81356020613f3c613f3783615965565b61593b565b8281528181019085830183850287018401881015613f58578586fd5b855b85811015613f7657813584529284019290840190600101613f5a565b5090979650505050505050565b600082601f830112613f93578081fd5b813567ffffffffffffffff811115613fad57613fad615aa6565b613fc0601f8201601f191660200161593b565b818152846020838601011115613fd4578283fd5b816020850160208301379081016020019190915292915050565b60008083601f840112613fff578182fd5b50813567ffffffffffffffff811115614016578182fd5b602083019150836020828501011115613f1057600080fd5b60006020828403121561403f578081fd5b8135611d7081615b67565b60006020828403121561405b578081fd5b8151611d7081615b67565b60008060408385031215614078578081fd5b823561408381615b67565b9150602083013561409381615b67565b809150509250929050565b600080600080600060a086880312156140b5578081fd5b85356140c081615b67565b945060208601356140d081615b67565b9350604086013567ffffffffffffffff808211156140ec578283fd5b6140f889838a01613f17565b9450606088013591508082111561410d578283fd5b61411989838a01613f17565b9350608088013591508082111561412e578283fd5b5061413b88828901613f83565b9150509295509295909350565b6000806000806080858703121561415d578384fd5b843561416881615b67565b9350602085013561417881615b67565b925060408501359150606085013567ffffffffffffffff81111561419a578182fd5b6141a687828801613f83565b91505092959194509250565b600080600080600060a086880312156141c9578283fd5b85356141d481615b67565b945060208601356141e481615b67565b93506040860135925060608601359150608086013567ffffffffffffffff81111561420d578182fd5b61413b88828901613f83565b60008060008060008060008060008060e08b8d031215614237578788fd5b8a3561424281615b67565b995060208b013567ffffffffffffffff8082111561425e57898afd5b61426a8e838f01613ece565b909b50995060408d0135915080821115614282578687fd5b61428e8e838f01613ece565b909950975060608d01359150808211156142a6578687fd5b506142b38d828e01613fee565b9b9e9a9d50989b979a9699969760808101359760a0820135975060c09091013595509350505050565b6000806000606084860312156142f0578081fd5b83356142fb81615b67565b9250602084013567ffffffffffffffff80821115614317578283fd5b61432387838801613f17565b93506040860135915080821115614338578283fd5b5061434586828701613f17565b9150509250925092565b60008060008060808587031215614364578182fd5b843561436f81615b67565b9350602085013567ffffffffffffffff8082111561438b578384fd5b61439788838901613f17565b945060408701359150808211156143ac578384fd5b6143b888838901613f17565b935060608701359150808211156143cd578283fd5b506141a687828801613f83565b600080604083850312156143ec578182fd5b82356143f781615b67565b9150602083013561409381615b7f565b60008060408385031215614419578182fd5b823561442481615b67565b946020939093013593505050565b60008060008060608587031215614447578182fd5b843561445281615b67565b935060208501359250604085013567ffffffffffffffff811115614474578283fd5b61448087828801613fee565b95989497509550505050565b6000806000606084860312156144a0578081fd5b83356144ab81615b67565b95602085013595506040909401359392505050565b600080600080608085870312156144d5578182fd5b84356144e081615b67565b93506020850135925060408501359150606085013567ffffffffffffffff81111561419a578182fd5b600080600080600060808688031215614520578283fd5b853561452b81615b67565b94506020860135935060408601359250606086013567ffffffffffffffff811115614554578182fd5b61456088828901613fee565b969995985093965092949392505050565b60008060408385031215614583578182fd5b823567ffffffffffffffff8082111561459a578384fd5b818501915085601f8301126145ad578384fd5b813560206145bd613f3783615965565b82815281810190858301838502870184018b10156145d9578889fd5b8896505b848710156146045780356145f081615b67565b8352600196909601959183019183016145dd565b509650508601359250508082111561461a578283fd5b5061462785828601613f17565b9150509250929050565b60008060008060408587031215614646578182fd5b843567ffffffffffffffff8082111561465d578384fd5b61466988838901613ece565b90965094506020870135915080821115614681578384fd5b5061448087828801613ece565b60006020828403121561469f578081fd5b8135611d7081615b7f565b6000602082840312156146bb578081fd5b8151611d7081615b7f565b6000602082840312156146d7578081fd5b5035919050565b6000602082840312156146ef578081fd5b5051919050565b60008060408385031215614708578182fd5b82359150602083013561409381615b67565b6000806040838503121561472c578182fd5b50508035926020909101359150565b60006020828403121561474c578081fd5b8135611d7081615b8d565b600060208284031215614768578081fd5b8151611d7081615b8d565b60008060208385031215614785578182fd5b823567ffffffffffffffff81111561479b578283fd5b6147a785828601613fee565b90969095509350505050565b6000602082840312156147c4578081fd5b81516fffffffffffffffffffffffffffffffff81168114611d70578182fd5b60008284527f07ffffffffffffffffffffffffffffffffffffffffffffffffffffffffffffff831115614814578081fd5b6020830280836020870137939093016020019283525090919050565b6000815180845260208085019450808401835b8381101561485f57815187529582019590820190600101614843565b509495945050505050565b600081518084526148828160208601602086016159f7565b601f01601f19169290920160200192915050565b60008284528282602086013780602084860101526020601f19601f85011685010190509392505050565b60007f416363657373436f6e74726f6c3a206163636f756e7420000000000000000000825283516148f88160178501602088016159f7565b7f206973206d697373696e6720726f6c652000000000000000000000000000000060179184019182015283516149358160288401602088016159f7565b01602801949350505050565b6001600160a01b0391909116815260200190565b6001600160a01b0392831681529116602082015260400190565b60006001600160a01b03808816835280871660208401525060a0604083015261499b60a0830186614830565b82810360608401526149ad8186614830565b905082810360808401526149c1818561486a565b98975050505050505050565b6001600160a01b039384168152919092166020820152604081019190915260600190565b60006001600160a01b03808816835280871660208401525084604083015283606083015260a06080830152614a2960a083018461486a565b979650505050505050565b60006001600160a01b038516825260606020830152614a56606083018561486a565b905060038310614a7657634e487b7160e01b600052602160045260246000fd5b826040830152949350505050565b6001600160a01b03929092168252602082015260400190565b6001600160a01b039390931683526020830191909152604082015260600190565b600060208252611d706020830184614830565b600060608252614ae46060830188614830565b6020838203818501528187835281830190508182890284010189855b8a811015614b6c57858303601f190184528135368d9003601e19018112614b25578788fd5b8c01803567ffffffffffffffff811115614b3d578889fd5b8036038e1315614b4b578889fd5b614b588582898501614896565b958701959450505090840190600101614b00565b50508581036040870152614b8181888a6147e3565b9b9a5050505050505050505050565b600060408252614ba36040830185614830565b8281036020840152614bb58185614830565b95945050505050565b901515815260200190565b90815260200190565b9182526001600160a01b0316602082015260400190565b6001600160e01b031991909116815260200190565b600060808252614c12608083018789614896565b602083019590955250604081019290925260609091015292915050565b600060208252611d70602083018461486a565b60208082526034908201527f455243313135353a207472616e7366657220746f206e6f6e204552433131353560408201527f526563656976657220696d706c656d656e746572000000000000000000000000606082015260800190565b6020808252818101527f537472696e67733a20686578206c656e67746820696e73756666696369656e74604082015260600190565b60208082526028908201527f455243313135353a204552433131353552656365697665722072656a6563746560408201527f6420746f6b656e73000000000000000000000000000000000000000000000000606082015260800190565b6020808252603e908201527f4e4654436f6c6c656374696f6e3a20496e76616c6964206270732070726f766960408201527f6465643b206d757374206265206c657373207468616e2031302c3030302e0000606082015260800190565b60208082526014908201527f5061757361626c653a206e6f7420706175736564000000000000000000000000604082015260600190565b60208082526039908201527f4e4654436f6c6c656374696f6e3a2063616e6e6f742063616c6c20746869732060408201527f666e20666f72206372656174696e67206e6577204e4654732e00000000000000606082015260800190565b6020808252602b908201527f455243313135353a2062616c616e636520717565727920666f7220746865207a60408201527f65726f2061646472657373000000000000000000000000000000000000000000606082015260800190565b6020808252603a908201527f4e4654436f6c6c656374696f6e3a2063616e6e6f7420667265656c79206d696e60408201527f74206d6f7265206f66204552433230206f72204552433732312e000000000000606082015260800190565b6020808252602f908201527f4e4654436f6c6c656374696f6e3a204661696c656420746f207472616e73666560408201527f7220455243323020746f6b656e732e0000000000000000000000000000000000606082015260800190565b60208082526024908201527f455243313135353a206275726e20616d6f756e7420657863656564732062616c604082015263616e636560e01b606082015260800190565b6020808252603d908201527f4e4654436f6c6c656374696f6e3a204d75737420617070726f7665207468652060408201527f636f6e747261637420746f207472616e7366657220746865204e46542e000000606082015260800190565b6020808252602c908201527f455243313135355061757361626c653a20746f6b656e207472616e736665722060408201527f7768696c65207061757365640000000000000000000000000000000000000000606082015260800190565b6020808252603d908201527f4e4654436f6c6c656374696f6e3a204d75737420617070726f7665207468697360408201527f20636f6e747261637420746f207472616e7366657220746f6b656e732e000000606082015260800190565b60208082526029908201527f455243313135353a2063616c6c6572206973206e6f74206f776e6572206e6f7260408201527f20617070726f7665640000000000000000000000000000000000000000000000606082015260800190565b60208082526048908201527f4e4654436f6c6c656374696f6e3a205472616e7366657273206172652072657360408201527f7472696374656420746f206f722066726f6d205452414e534645525f524f4c4560608201527f20686f6c64657273000000000000000000000000000000000000000000000000608082015260a00190565b6020808252603a908201527f4e4654436f6c6c656374696f6e3a204d7573742073706563696679206571756160408201527f6c206e756d626572206f6620636f6e6669672076616c7565732e000000000000606082015260800190565b60208082526010908201527f5061757361626c653a2070617573656400000000000000000000000000000000604082015260600190565b60208082526025908201527f455243313135353a207472616e7366657220746f20746865207a65726f206164604082015264647265737360d81b606082015260800190565b60208082526032908201527f455243313135353a207472616e736665722063616c6c6572206973206e6f742060408201527f6f776e6572206e6f7220617070726f7665640000000000000000000000000000606082015260800190565b60208082526045908201527f4e4654436f6c6c656374696f6e3a204f6e6c79206163636f756e74732077697460408201527f68204d494e5445525f524f4c452063616e2063616c6c20746869732066756e636060820152643a34b7b71760d91b608082015260a00190565b60208082526023908201527f455243313135353a206275726e2066726f6d20746865207a65726f206164647260408201526265737360e81b606082015260800190565b60208082526038908201527f455243313135355072657365744d696e7465725061757365723a206d7573742060408201527f68617665206d696e74657220726f6c6520746f206d696e740000000000000000606082015260800190565b6020808252602a908201527f455243313135353a20696e73756666696369656e742062616c616e636520666f60408201527f72207472616e7366657200000000000000000000000000000000000000000000606082015260800190565b60208082526026908201527f4e4654436f6c6c656374696f6e3a205468652070726f746f636f6c206973207060408201526530bab9b2b21760d11b606082015260800190565b6020808252603b908201527f4e4654436f6c6c656374696f6e3a204d757374206f776e2074686520616d6f7560408201527f6e74206f6620746f6b656e73206265696e6720777261707065642e0000000000606082015260800190565b6020808252603b908201527f455243313135355072657365744d696e7465725061757365723a206d7573742060408201527f686176652070617573657220726f6c6520746f20756e70617573650000000000606082015260800190565b60208082526039908201527f455243313135355072657365744d696e7465725061757365723a206d7573742060408201527f686176652070617573657220726f6c6520746f20706175736500000000000000606082015260800190565b6020808252603c908201527f4e4654436f6c6c656374696f6e3a206f6e6c7920612070726f746f636f6c206160408201527f646d696e2063616e2063616c6c20746869732066756e6374696f6e2e00000000606082015260800190565b60208082526029908201527f455243313135353a2073657474696e6720617070726f76616c2073746174757360408201527f20666f722073656c660000000000000000000000000000000000000000000000606082015260800190565b60208082526029908201527f455243313135353a206163636f756e747320616e6420696473206c656e67746860408201527f206d69736d617463680000000000000000000000000000000000000000000000606082015260800190565b60208082526033908201527f4e4654436f6c6c656374696f6e3a2043616e6e6f742072656465656d20616e2060408201527f4e465420796f7520646f206e6f74206f776e2e00000000000000000000000000606082015260800190565b60208082526035908201527f4e4654436f6c6c656374696f6e3a204f6e6c7920746865206f776e6572206f6660408201527f20746865204e46542063616e20777261702069742e0000000000000000000000606082015260800190565b6020808252602c908201527f4e4654436f6c6c656374696f6e3a204d75737420637265617465206174206c6560408201527f617374206f6e65204e46542e0000000000000000000000000000000000000000606082015260800190565b60208082526028908201527f455243313135353a2069647320616e6420616d6f756e7473206c656e6774682060408201527f6d69736d61746368000000000000000000000000000000000000000000000000606082015260800190565b60208082526021908201527f455243313135353a206d696e7420746f20746865207a65726f206164647265736040820152607360f81b606082015260800190565b6020808252602f908201527f416363657373436f6e74726f6c3a2063616e206f6e6c792072656e6f756e636560408201527f20726f6c657320666f722073656c660000000000000000000000000000000000606082015260800190565b918252602082015260400190565b6000858252846020830152606060408301526158c6606083018486614896565b9695505050505050565b600086825285602083015284604083015260806060830152614a29608083018486614896565b6000808335601e1984360301811261590c578283fd5b83018035915067ffffffffffffffff821115615926578283fd5b602001915036819003821315613f1057600080fd5b60405181810167ffffffffffffffff8111828210171561595d5761595d615aa6565b604052919050565b600067ffffffffffffffff82111561597f5761597f615aa6565b5060209081020190565b6000821982111561599c5761599c615a90565b500190565b6000826159bc57634e487b7160e01b81526012600452602481fd5b500490565b60008160001904831182151516156159db576159db615a90565b500290565b6000828210156159f2576159f2615a90565b500390565b60005b83811015615a125781810151838201526020016159fa565b838111156118cf5750506000910152565b600081615a3257615a32615a90565b506000190190565b600281046001821680615a4e57607f821691505b60208210811415615a6f57634e487b7160e01b600052602260045260246000fd5b50919050565b6000600019821415615a8957615a89615a90565b5060010190565b634e487b7160e01b600052601160045260246000fd5b634e487b7160e01b600052604160045260246000fd5b60e01c90565b600060443d1015615ad2576117cd565b600481823e6308c379a0615ae68251615abc565b14615af0576117cd565b6040513d600319016004823e80513d67ffffffffffffffff8160248401118184111715615b2057505050506117cd565b82840192508251915080821115615b3a57505050506117cd565b503d83016020828401011115615b52575050506117cd565b601f01601f1916810160200160405291505090565b6001600160a01b0381168114615b7c57600080fd5b50565b8015158114615b7c57600080fd5b6001600160e01b031981168114615b7c57600080fdfea164736f6c6343000800000a",
  "linkReferences": {},
  "deployedLinkReferences": {}
}