{
  "_format": "hh-sol-artifact-1",
  "contractName": "ERC1155PresetMinterPauserSupplyHolder",
  "sourceName": "contracts/openzeppelin-presets/ERC1155PresetMinterPauserSupplyHolder.sol",
  "abi": [
    {
      "inputs": [
        {
          "internalType": "string",
          "name": "uri",
          "type": "string"
        }
      ],
      "stateMutability": "nonpayable",
      "type": "constructor"
    },
    {
      "anonymous": false,
      "inputs": [
        {
          "indexed": true,
          "internalType": "address",
          "name": "account",
          "type": "address"
        },
        {
          "indexed": true,
          "internalType": "address",
          "name": "operator",
          "type": "address"
        },
        {
          "indexed": false,
          "internalType": "bool",
          "name": "approved",
          "type": "bool"
        }
      ],
      "name": "ApprovalForAll",
      "type": "event"
    },
    {
      "anonymous": false,
      "inputs": [
        {
          "indexed": false,
          "internalType": "address",
          "name": "account",
          "type": "address"
        }
      ],
      "name": "Paused",
      "type": "event"
    },
    {
      "anonymous": false,
      "inputs": [
        {
          "indexed": true,
          "internalType": "bytes32",
          "name": "role",
          "type": "bytes32"
        },
        {
          "indexed": true,
          "internalType": "bytes32",
          "name": "previousAdminRole",
          "type": "bytes32"
        },
        {
          "indexed": true,
          "internalType": "bytes32",
          "name": "newAdminRole",
          "type": "bytes32"
        }
      ],
      "name": "RoleAdminChanged",
      "type": "event"
    },
    {
      "anonymous": false,
      "inputs": [
        {
          "indexed": true,
          "internalType": "bytes32",
          "name": "role",
          "type": "bytes32"
        },
        {
          "indexed": true,
          "internalType": "address",
          "name": "account",
          "type": "address"
        },
        {
          "indexed": true,
          "internalType": "address",
          "name": "sender",
          "type": "address"
        }
      ],
      "name": "RoleGranted",
      "type": "event"
    },
    {
      "anonymous": false,
      "inputs": [
        {
          "indexed": true,
          "internalType": "bytes32",
          "name": "role",
          "type": "bytes32"
        },
        {
          "indexed": true,
          "internalType": "address",
          "name": "account",
          "type": "address"
        },
        {
          "indexed": true,
          "internalType": "address",
          "name": "sender",
          "type": "address"
        }
      ],
      "name": "RoleRevoked",
      "type": "event"
    },
    {
      "anonymous": false,
      "inputs": [
        {
          "indexed": true,
          "internalType": "address",
          "name": "operator",
          "type": "address"
        },
        {
          "indexed": true,
          "internalType": "address",
          "name": "from",
          "type": "address"
        },
        {
          "indexed": true,
          "internalType": "address",
          "name": "to",
          "type": "address"
        },
        {
          "indexed": false,
          "internalType": "uint256[]",
          "name": "ids",
          "type": "uint256[]"
        },
        {
          "indexed": false,
          "internalType": "uint256[]",
          "name": "values",
          "type": "uint256[]"
        }
      ],
      "name": "TransferBatch",
      "type": "event"
    },
    {
      "anonymous": false,
      "inputs": [
        {
          "indexed": true,
          "internalType": "address",
          "name": "operator",
          "type": "address"
        },
        {
          "indexed": true,
          "internalType": "address",
          "name": "from",
          "type": "address"
        },
        {
          "indexed": true,
          "internalType": "address",
          "name": "to",
          "type": "address"
        },
        {
          "indexed": false,
          "internalType": "uint256",
          "name": "id",
          "type": "uint256"
        },
        {
          "indexed": false,
          "internalType": "uint256",
          "name": "value",
          "type": "uint256"
        }
      ],
      "name": "TransferSingle",
      "type": "event"
    },
    {
      "anonymous": false,
      "inputs": [
        {
          "indexed": false,
          "internalType": "string",
          "name": "value",
          "type": "string"
        },
        {
          "indexed": true,
          "internalType": "uint256",
          "name": "id",
          "type": "uint256"
        }
      ],
      "name": "URI",
      "type": "event"
    },
    {
      "anonymous": false,
      "inputs": [
        {
          "indexed": false,
          "internalType": "address",
          "name": "account",
          "type": "address"
        }
      ],
      "name": "Unpaused",
      "type": "event"
    },
    {
      "inputs": [],
      "name": "DEFAULT_ADMIN_ROLE",
      "outputs": [
        {
          "internalType": "bytes32",
          "name": "",
          "type": "bytes32"
        }
      ],
      "stateMutability": "view",
      "type": "function"
    },
    {
      "inputs": [],
      "name": "MINTER_ROLE",
      "outputs": [
        {
          "internalType": "bytes32",
          "name": "",
          "type": "bytes32"
        }
      ],
      "stateMutability": "view",
      "type": "function"
    },
    {
      "inputs": [],
      "name": "PAUSER_ROLE",
      "outputs": [
        {
          "internalType": "bytes32",
          "name": "",
          "type": "bytes32"
        }
      ],
      "stateMutability": "view",
      "type": "function"
    },
    {
      "inputs": [
        {
          "internalType": "address",
          "name": "account",
          "type": "address"
        },
        {
          "internalType": "uint256",
          "name": "id",
          "type": "uint256"
        }
      ],
      "name": "balanceOf",
      "outputs": [
        {
          "internalType": "uint256",
          "name": "",
          "type": "uint256"
        }
      ],
      "stateMutability": "view",
      "type": "function"
    },
    {
      "inputs": [
        {
          "internalType": "address[]",
          "name": "accounts",
          "type": "address[]"
        },
        {
          "internalType": "uint256[]",
          "name": "ids",
          "type": "uint256[]"
        }
      ],
      "name": "balanceOfBatch",
      "outputs": [
        {
          "internalType": "uint256[]",
          "name": "",
          "type": "uint256[]"
        }
      ],
      "stateMutability": "view",
      "type": "function"
    },
    {
      "inputs": [
        {
          "internalType": "address",
          "name": "account",
          "type": "address"
        },
        {
          "internalType": "uint256",
          "name": "id",
          "type": "uint256"
        },
        {
          "internalType": "uint256",
          "name": "value",
          "type": "uint256"
        }
      ],
      "name": "burn",
      "outputs": [],
      "stateMutability": "nonpayable",
      "type": "function"
    },
    {
      "inputs": [
        {
          "internalType": "address",
          "name": "account",
          "type": "address"
        },
        {
          "internalType": "uint256[]",
          "name": "ids",
          "type": "uint256[]"
        },
        {
          "internalType": "uint256[]",
          "name": "values",
          "type": "uint256[]"
        }
      ],
      "name": "burnBatch",
      "outputs": [],
      "stateMutability": "nonpayable",
      "type": "function"
    },
    {
      "inputs": [
        {
          "internalType": "bytes32",
          "name": "role",
          "type": "bytes32"
        }
      ],
      "name": "getRoleAdmin",
      "outputs": [
        {
          "internalType": "bytes32",
          "name": "",
          "type": "bytes32"
        }
      ],
      "stateMutability": "view",
      "type": "function"
    },
    {
      "inputs": [
        {
          "internalType": "bytes32",
          "name": "role",
          "type": "bytes32"
        },
        {
          "internalType": "uint256",
          "name": "index",
          "type": "uint256"
        }
      ],
      "name": "getRoleMember",
      "outputs": [
        {
          "internalType": "address",
          "name": "",
          "type": "address"
        }
      ],
      "stateMutability": "view",
      "type": "function"
    },
    {
      "inputs": [
        {
          "internalType": "bytes32",
          "name": "role",
          "type": "bytes32"
        }
      ],
      "name": "getRoleMemberCount",
      "outputs": [
        {
          "internalType": "uint256",
          "name": "",
          "type": "uint256"
        }
      ],
      "stateMutability": "view",
      "type": "function"
    },
    {
      "inputs": [
        {
          "internalType": "bytes32",
          "name": "role",
          "type": "bytes32"
        },
        {
          "internalType": "address",
          "name": "account",
          "type": "address"
        }
      ],
      "name": "grantRole",
      "outputs": [],
      "stateMutability": "nonpayable",
      "type": "function"
    },
    {
      "inputs": [
        {
          "internalType": "bytes32",
          "name": "role",
          "type": "bytes32"
        },
        {
          "internalType": "address",
          "name": "account",
          "type": "address"
        }
      ],
      "name": "hasRole",
      "outputs": [
        {
          "internalType": "bool",
          "name": "",
          "type": "bool"
        }
      ],
      "stateMutability": "view",
      "type": "function"
    },
    {
      "inputs": [
        {
          "internalType": "address",
          "name": "account",
          "type": "address"
        },
        {
          "internalType": "address",
          "name": "operator",
          "type": "address"
        }
      ],
      "name": "isApprovedForAll",
      "outputs": [
        {
          "internalType": "bool",
          "name": "",
          "type": "bool"
        }
      ],
      "stateMutability": "view",
      "type": "function"
    },
    {
      "inputs": [
        {
          "internalType": "address",
          "name": "to",
          "type": "address"
        },
        {
          "internalType": "uint256",
          "name": "id",
          "type": "uint256"
        },
        {
          "internalType": "uint256",
          "name": "amount",
          "type": "uint256"
        },
        {
          "internalType": "bytes",
          "name": "data",
          "type": "bytes"
        }
      ],
      "name": "mint",
      "outputs": [],
      "stateMutability": "nonpayable",
      "type": "function"
    },
    {
      "inputs": [
        {
          "internalType": "address",
          "name": "to",
          "type": "address"
        },
        {
          "internalType": "uint256[]",
          "name": "ids",
          "type": "uint256[]"
        },
        {
          "internalType": "uint256[]",
          "name": "amounts",
          "type": "uint256[]"
        },
        {
          "internalType": "bytes",
          "name": "data",
          "type": "bytes"
        }
      ],
      "name": "mintBatch",
      "outputs": [],
      "stateMutability": "nonpayable",
      "type": "function"
    },
    {
      "inputs": [
        {
          "internalType": "address",
          "name": "",
          "type": "address"
        },
        {
          "internalType": "address",
          "name": "",
          "type": "address"
        },
        {
          "internalType": "uint256[]",
          "name": "",
          "type": "uint256[]"
        },
        {
          "internalType": "uint256[]",
          "name": "",
          "type": "uint256[]"
        },
        {
          "internalType": "bytes",
          "name": "",
          "type": "bytes"
        }
      ],
      "name": "onERC1155BatchReceived",
      "outputs": [
        {
          "internalType": "bytes4",
          "name": "",
          "type": "bytes4"
        }
      ],
      "stateMutability": "nonpayable",
      "type": "function"
    },
    {
      "inputs": [
        {
          "internalType": "address",
          "name": "",
          "type": "address"
        },
        {
          "internalType": "address",
          "name": "",
          "type": "address"
        },
        {
          "internalType": "uint256",
          "name": "",
          "type": "uint256"
        },
        {
          "internalType": "uint256",
          "name": "",
          "type": "uint256"
        },
        {
          "internalType": "bytes",
          "name": "",
          "type": "bytes"
        }
      ],
      "name": "onERC1155Received",
      "outputs": [
        {
          "internalType": "bytes4",
          "name": "",
          "type": "bytes4"
        }
      ],
      "stateMutability": "nonpayable",
      "type": "function"
    },
    {
      "inputs": [
        {
          "internalType": "address",
          "name": "",
          "type": "address"
        },
        {
          "internalType": "address",
          "name": "",
          "type": "address"
        },
        {
          "internalType": "uint256",
          "name": "",
          "type": "uint256"
        },
        {
          "internalType": "bytes",
          "name": "",
          "type": "bytes"
        }
      ],
      "name": "onERC721Received",
      "outputs": [
        {
          "internalType": "bytes4",
          "name": "",
          "type": "bytes4"
        }
      ],
      "stateMutability": "nonpayable",
      "type": "function"
    },
    {
      "inputs": [],
      "name": "pause",
      "outputs": [],
      "stateMutability": "nonpayable",
      "type": "function"
    },
    {
      "inputs": [],
      "name": "paused",
      "outputs": [
        {
          "internalType": "bool",
          "name": "",
          "type": "bool"
        }
      ],
      "stateMutability": "view",
      "type": "function"
    },
    {
      "inputs": [
        {
          "internalType": "bytes32",
          "name": "role",
          "type": "bytes32"
        },
        {
          "internalType": "address",
          "name": "account",
          "type": "address"
        }
      ],
      "name": "renounceRole",
      "outputs": [],
      "stateMutability": "nonpayable",
      "type": "function"
    },
    {
      "inputs": [
        {
          "internalType": "bytes32",
          "name": "role",
          "type": "bytes32"
        },
        {
          "internalType": "address",
          "name": "account",
          "type": "address"
        }
      ],
      "name": "revokeRole",
      "outputs": [],
      "stateMutability": "nonpayable",
      "type": "function"
    },
    {
      "inputs": [
        {
          "internalType": "address",
          "name": "from",
          "type": "address"
        },
        {
          "internalType": "address",
          "name": "to",
          "type": "address"
        },
        {
          "internalType": "uint256[]",
          "name": "ids",
          "type": "uint256[]"
        },
        {
          "internalType": "uint256[]",
          "name": "amounts",
          "type": "uint256[]"
        },
        {
          "internalType": "bytes",
          "name": "data",
          "type": "bytes"
        }
      ],
      "name": "safeBatchTransferFrom",
      "outputs": [],
      "stateMutability": "nonpayable",
      "type": "function"
    },
    {
      "inputs": [
        {
          "internalType": "address",
          "name": "from",
          "type": "address"
        },
        {
          "internalType": "address",
          "name": "to",
          "type": "address"
        },
        {
          "internalType": "uint256",
          "name": "id",
          "type": "uint256"
        },
        {
          "internalType": "uint256",
          "name": "amount",
          "type": "uint256"
        },
        {
          "internalType": "bytes",
          "name": "data",
          "type": "bytes"
        }
      ],
      "name": "safeTransferFrom",
      "outputs": [],
      "stateMutability": "nonpayable",
      "type": "function"
    },
    {
      "inputs": [
        {
          "internalType": "address",
          "name": "operator",
          "type": "address"
        },
        {
          "internalType": "bool",
          "name": "approved",
          "type": "bool"
        }
      ],
      "name": "setApprovalForAll",
      "outputs": [],
      "stateMutability": "nonpayable",
      "type": "function"
    },
    {
      "inputs": [
        {
          "internalType": "bytes4",
          "name": "interfaceId",
          "type": "bytes4"
        }
      ],
      "name": "supportsInterface",
      "outputs": [
        {
          "internalType": "bool",
          "name": "",
          "type": "bool"
        }
      ],
      "stateMutability": "view",
      "type": "function"
    },
    {
      "inputs": [
        {
          "internalType": "uint256",
          "name": "id",
          "type": "uint256"
        }
      ],
      "name": "totalSupply",
      "outputs": [
        {
          "internalType": "uint256",
          "name": "",
          "type": "uint256"
        }
      ],
      "stateMutability": "view",
      "type": "function"
    },
    {
      "inputs": [],
      "name": "unpause",
      "outputs": [],
      "stateMutability": "nonpayable",
      "type": "function"
    },
    {
      "inputs": [
        {
          "internalType": "uint256",
          "name": "",
          "type": "uint256"
        }
      ],
      "name": "uri",
      "outputs": [
        {
          "internalType": "string",
          "name": "",
          "type": "string"
        }
      ],
      "stateMutability": "view",
      "type": "function"
    }
  ],
  "bytecode": "0x60806040523480156200001157600080fd5b5060405162003417380380620034178339810160408190526200003491620002d7565b806200004081620000b7565b506005805460ff1916905562000058600033620000d0565b620000847f9f2df0fed2c77648de5860a4cc508cd0818c85b8b8a1ab4ceeef8d981c8956a633620000d0565b620000b07f65d7a28e3265b37a6474929f336521b332c1681b933f6cb9f3376673440d862a33620000d0565b5062000400565b8051620000cc90600490602084019062000231565b5050565b620000e782826200011360201b62000e001760201c565b60008281526001602090815260409091206200010e91839062000e0e6200011f821b17901c565b505050565b620000cc82826200013f565b600062000136836001600160a01b038416620001df565b90505b92915050565b6000828152602081815260408083206001600160a01b038516845290915290205460ff16620000cc576000828152602081815260408083206001600160a01b03851684529091529020805460ff191660011790556200019b3390565b6001600160a01b0316816001600160a01b0316837f2f8788117e7eff1d82e926ec794901d17c78024a50270940304540a733656f0d60405160405180910390a45050565b6000818152600183016020526040812054620002285750815460018181018455600084815260208082209093018490558454848252828601909352604090209190915562000139565b50600062000139565b8280546200023f90620003ad565b90600052602060002090601f016020900481019282620002635760008555620002ae565b82601f106200027e57805160ff1916838001178555620002ae565b82800160010185558215620002ae579182015b82811115620002ae57825182559160200191906001019062000291565b50620002bc929150620002c0565b5090565b5b80821115620002bc5760008155600101620002c1565b60006020808385031215620002ea578182fd5b82516001600160401b038082111562000301578384fd5b818501915085601f83011262000315578384fd5b8151818111156200032a576200032a620003ea565b604051601f8201601f19908116603f01168101908382118183101715620003555762000355620003ea565b8160405282815288868487010111156200036d578687fd5b8693505b8284101562000390578484018601518185018701529285019262000371565b82841115620003a157868684830101525b98975050505050505050565b600181811c90821680620003c257607f821691505b60208210811415620003e457634e487b7160e01b600052602260045260246000fd5b50919050565b634e487b7160e01b600052604160045260246000fd5b61300780620004106000396000f3fe608060405234801561001057600080fd5b50600436106101ce5760003560e01c80638456cb5911610104578063ca15c873116100a2578063e985e9c511610071578063e985e9c514610475578063f23a6e61146104b1578063f242432a146104d0578063f5298aca146104e357600080fd5b8063ca15c87314610401578063d539139314610414578063d547741f1461043b578063e63ab1e91461044e57600080fd5b8063a217fddf116100de578063a217fddf146103a7578063a22cb465146103af578063bc197c81146103c2578063bd85b039146103e157600080fd5b80638456cb591461033d5780639010d07c1461034557806391d148541461037057600080fd5b80632f2ff15d116101715780634e1273f41161014b5780634e1273f4146102ec5780635c975abb1461030c5780636b20c45414610317578063731133e91461032a57600080fd5b80632f2ff15d146102be57806336568abe146102d15780633f4ba83a146102e457600080fd5b8063150b7a02116101ad578063150b7a021461023c5780631f7fdffa14610273578063248a9ca3146102885780632eb2c2d6146102ab57600080fd5b8062fdd58e146101d357806301ffc9a7146101f95780630e89341c1461021c575b600080fd5b6101e66101e13660046129ff565b6104f6565b6040519081526020015b60405180910390f35b61020c610207366004612bc7565b6105a4565b60405190151581526020016101f0565b61022f61022a366004612b6c565b6105af565b6040516101f09190612dc8565b61025a61024a366004612802565b630a85bd0160e11b949350505050565b6040516001600160e01b031990911681526020016101f0565b61028661028136600461293c565b610643565b005b6101e6610296366004612b6c565b60009081526020819052604090206001015490565b6102866102b936600461275c565b6106f1565b6102866102cc366004612b84565b610793565b6102866102df366004612b84565b6107ba565b6102866107dc565b6102ff6102fa366004612aa1565b610882565b6040516101f09190612d87565b60055460ff1661020c565b6102866103253660046128cb565b6109f8565b610286610338366004612a5a565b610a7d565b610286610b25565b610358610353366004612ba6565b610bc9565b6040516001600160a01b0390911681526020016101f0565b61020c61037e366004612b84565b6000918252602082815260408084206001600160a01b0393909316845291905290205460ff1690565b6101e6600081565b6102866103bd3660046129c5565b610be8565b61025a6103d036600461275c565b63bc197c8160e01b95945050505050565b6101e66103ef366004612b6c565b60009081526006602052604090205490565b6101e661040f366004612b6c565b610cd3565b6101e67f9f2df0fed2c77648de5860a4cc508cd0818c85b8b8a1ab4ceeef8d981c8956a681565b610286610449366004612b84565b610cea565b6101e67f65d7a28e3265b37a6474929f336521b332c1681b933f6cb9f3376673440d862a81565b61020c61048336600461272a565b6001600160a01b03918216600090815260036020908152604080832093909416825291909152205460ff1690565b61025a6104bf366004612868565b63f23a6e6160e01b95945050505050565b6102866104de366004612868565b610cf4565b6102866104f1366004612a28565b610d7b565b60006001600160a01b0383166105795760405162461bcd60e51b815260206004820152602b60248201527f455243313135353a2062616c616e636520717565727920666f7220746865207a60448201527f65726f206164647265737300000000000000000000000000000000000000000060648201526084015b60405180910390fd5b5060008181526002602090815260408083206001600160a01b03861684529091529020545b92915050565b600061059e82610e23565b6060600480546105be90612e90565b80601f01602080910402602001604051908101604052809291908181526020018280546105ea90612e90565b80156106375780601f1061060c57610100808354040283529160200191610637565b820191906000526020600020905b81548152906001019060200180831161061a57829003601f168201915b50505050509050919050565b61066d7f9f2df0fed2c77648de5860a4cc508cd0818c85b8b8a1ab4ceeef8d981c8956a63361037e565b6106df5760405162461bcd60e51b815260206004820152603860248201527f455243313135355072657365744d696e7465725061757365723a206d7573742060448201527f68617665206d696e74657220726f6c6520746f206d696e7400000000000000006064820152608401610570565b6106eb84848484610e48565b50505050565b6001600160a01b03851633148061070d575061070d8533610483565b61077f5760405162461bcd60e51b815260206004820152603260248201527f455243313135353a207472616e736665722063616c6c6572206973206e6f742060448201527f6f776e6572206e6f7220617070726f76656400000000000000000000000000006064820152608401610570565b61078c858585858561103a565b5050505050565b61079d82826112c5565b60008281526001602052604090206107b59082610e0e565b505050565b6107c482826112eb565b60008281526001602052604090206107b59082611373565b6108067f65d7a28e3265b37a6474929f336521b332c1681b933f6cb9f3376673440d862a3361037e565b6108785760405162461bcd60e51b815260206004820152603b60248201527f455243313135355072657365744d696e7465725061757365723a206d7573742060448201527f686176652070617573657220726f6c6520746f20756e706175736500000000006064820152608401610570565b610880611388565b565b606081518351146108fb5760405162461bcd60e51b815260206004820152602960248201527f455243313135353a206163636f756e747320616e6420696473206c656e67746860448201527f206d69736d6174636800000000000000000000000000000000000000000000006064820152608401610570565b6000835167ffffffffffffffff81111561092557634e487b7160e01b600052604160045260246000fd5b60405190808252806020026020018201604052801561094e578160200160208202803683370190505b50905060005b84518110156109f0576109b585828151811061098057634e487b7160e01b600052603260045260246000fd5b60200260200101518583815181106109a857634e487b7160e01b600052603260045260246000fd5b60200260200101516104f6565b8282815181106109d557634e487b7160e01b600052603260045260246000fd5b60209081029190910101526109e981612ef8565b9050610954565b509392505050565b6001600160a01b038316331480610a145750610a148333610483565b610a725760405162461bcd60e51b815260206004820152602960248201527f455243313135353a2063616c6c6572206973206e6f74206f776e6572206e6f7260448201526808185c1c1c9bdd995960ba1b6064820152608401610570565b6107b5838383611424565b610aa77f9f2df0fed2c77648de5860a4cc508cd0818c85b8b8a1ab4ceeef8d981c8956a63361037e565b610b195760405162461bcd60e51b815260206004820152603860248201527f455243313135355072657365744d696e7465725061757365723a206d7573742060448201527f68617665206d696e74657220726f6c6520746f206d696e7400000000000000006064820152608401610570565b6106eb8484848461168a565b610b4f7f65d7a28e3265b37a6474929f336521b332c1681b933f6cb9f3376673440d862a3361037e565b610bc15760405162461bcd60e51b815260206004820152603960248201527f455243313135355072657365744d696e7465725061757365723a206d7573742060448201527f686176652070617573657220726f6c6520746f207061757365000000000000006064820152608401610570565b61088061179c565b6000828152600160205260408120610be19083611824565b9392505050565b336001600160a01b0383161415610c675760405162461bcd60e51b815260206004820152602960248201527f455243313135353a2073657474696e6720617070726f76616c2073746174757360448201527f20666f722073656c6600000000000000000000000000000000000000000000006064820152608401610570565b3360008181526003602090815260408083206001600160a01b03871680855290835292819020805460ff191686151590811790915590519081529192917f17307eab39ab6107e8899845ad3d59bd9653f200f220920489ca2b5937696c31910160405180910390a35050565b600081815260016020526040812061059e90611830565b6107c4828261183a565b6001600160a01b038516331480610d105750610d108533610483565b610d6e5760405162461bcd60e51b815260206004820152602960248201527f455243313135353a2063616c6c6572206973206e6f74206f776e6572206e6f7260448201526808185c1c1c9bdd995960ba1b6064820152608401610570565b61078c8585858585611860565b6001600160a01b038316331480610d975750610d978333610483565b610df55760405162461bcd60e51b815260206004820152602960248201527f455243313135353a2063616c6c6572206973206e6f74206f776e6572206e6f7260448201526808185c1c1c9bdd995960ba1b6064820152608401610570565b6107b5838383611a02565b610e0a8282611b7f565b5050565b6000610be1836001600160a01b038416611c1d565b60006001600160e01b03198216630271189760e51b148061059e575061059e82611c6c565b6001600160a01b038416610ea85760405162461bcd60e51b815260206004820152602160248201527f455243313135353a206d696e7420746f20746865207a65726f206164647265736044820152607360f81b6064820152608401610570565b8151835114610f0a5760405162461bcd60e51b815260206004820152602860248201527f455243313135353a2069647320616e6420616d6f756e7473206c656e677468206044820152670dad2e6dac2e8c6d60c31b6064820152608401610570565b33610f1a81600087878787611cac565b60005b8451811015610fd257838181518110610f4657634e487b7160e01b600052603260045260246000fd5b602002602001015160026000878481518110610f7257634e487b7160e01b600052603260045260246000fd5b602002602001015181526020019081526020016000206000886001600160a01b03166001600160a01b031681526020019081526020016000206000828254610fba9190612dff565b90915550819050610fca81612ef8565b915050610f1d565b50846001600160a01b031660006001600160a01b0316826001600160a01b03167f4a39dc06d4c0dbc64b70af90fd698a233a518aa5d07e595d983b8c0526c8f7fb8787604051611023929190612d9a565b60405180910390a461078c81600087878787611dfe565b815183511461109c5760405162461bcd60e51b815260206004820152602860248201527f455243313135353a2069647320616e6420616d6f756e7473206c656e677468206044820152670dad2e6dac2e8c6d60c31b6064820152608401610570565b6001600160a01b0384166111005760405162461bcd60e51b815260206004820152602560248201527f455243313135353a207472616e7366657220746f20746865207a65726f206164604482015264647265737360d81b6064820152608401610570565b3361110f818787878787611cac565b60005b845181101561125757600085828151811061113d57634e487b7160e01b600052603260045260246000fd5b60200260200101519050600085838151811061116957634e487b7160e01b600052603260045260246000fd5b60209081029190910181015160008481526002835260408082206001600160a01b038e1683529093529190912054909150818110156111fd5760405162461bcd60e51b815260206004820152602a60248201527f455243313135353a20696e73756666696369656e742062616c616e636520666f60448201526939103a3930b739b332b960b11b6064820152608401610570565b60008381526002602090815260408083206001600160a01b038e8116855292528083208585039055908b1682528120805484929061123c908490612dff565b925050819055505050508061125090612ef8565b9050611112565b50846001600160a01b0316866001600160a01b0316826001600160a01b03167f4a39dc06d4c0dbc64b70af90fd698a233a518aa5d07e595d983b8c0526c8f7fb87876040516112a7929190612d9a565b60405180910390a46112bd818787878787611dfe565b505050505050565b6000828152602081905260409020600101546112e18133611fb3565b6107b58383611b7f565b6001600160a01b03811633146113695760405162461bcd60e51b815260206004820152602f60248201527f416363657373436f6e74726f6c3a2063616e206f6e6c792072656e6f756e636560448201527f20726f6c657320666f722073656c6600000000000000000000000000000000006064820152608401610570565b610e0a8282612031565b6000610be1836001600160a01b0384166120b0565b60055460ff166113da5760405162461bcd60e51b815260206004820152601460248201527f5061757361626c653a206e6f74207061757365640000000000000000000000006044820152606401610570565b6005805460ff191690557f5db9ee0a495bf2e6ff9c91a7834c1ba4fdd244a5e8aa4e537bd38aeae4b073aa335b6040516001600160a01b03909116815260200160405180910390a1565b6001600160a01b0383166114865760405162461bcd60e51b815260206004820152602360248201527f455243313135353a206275726e2066726f6d20746865207a65726f206164647260448201526265737360e81b6064820152608401610570565b80518251146114e85760405162461bcd60e51b815260206004820152602860248201527f455243313135353a2069647320616e6420616d6f756e7473206c656e677468206044820152670dad2e6dac2e8c6d60c31b6064820152608401610570565b600033905061150b81856000868660405180602001604052806000815250611cac565b60005b835181101561162b57600084828151811061153957634e487b7160e01b600052603260045260246000fd5b60200260200101519050600084838151811061156557634e487b7160e01b600052603260045260246000fd5b60209081029190910181015160008481526002835260408082206001600160a01b038c1683529093529190912054909150818110156115f25760405162461bcd60e51b8152602060048201526024808201527f455243313135353a206275726e20616d6f756e7420657863656564732062616c604482015263616e636560e01b6064820152608401610570565b60009283526002602090815260408085206001600160a01b038b168652909152909220910390558061162381612ef8565b91505061150e565b5060006001600160a01b0316846001600160a01b0316826001600160a01b03167f4a39dc06d4c0dbc64b70af90fd698a233a518aa5d07e595d983b8c0526c8f7fb868660405161167c929190612d9a565b60405180910390a450505050565b6001600160a01b0384166116ea5760405162461bcd60e51b815260206004820152602160248201527f455243313135353a206d696e7420746f20746865207a65726f206164647265736044820152607360f81b6064820152608401610570565b3361170a816000876116fb886121cd565b611704886121cd565b87611cac565b60008481526002602090815260408083206001600160a01b03891684529091528120805485929061173c908490612dff565b909155505060408051858152602081018590526001600160a01b0380881692600092918516917fc3d58168c5ae7397731d063d5bbf3d657854427343f4c083240f7aacaa2d0f62910160405180910390a461078c81600087878787612226565b60055460ff16156117ef5760405162461bcd60e51b815260206004820152601060248201527f5061757361626c653a20706175736564000000000000000000000000000000006044820152606401610570565b6005805460ff191660011790557f62e78cea01bee320cd4e420270b5ea74000d11b0c9f74754ebdbfc544b05a2586114073390565b6000610be18383612331565b600061059e825490565b6000828152602081905260409020600101546118568133611fb3565b6107b58383612031565b6001600160a01b0384166118c45760405162461bcd60e51b815260206004820152602560248201527f455243313135353a207472616e7366657220746f20746865207a65726f206164604482015264647265737360d81b6064820152608401610570565b336118d48187876116fb886121cd565b60008481526002602090815260408083206001600160a01b038a1684529091529020548381101561195a5760405162461bcd60e51b815260206004820152602a60248201527f455243313135353a20696e73756666696369656e742062616c616e636520666f60448201526939103a3930b739b332b960b11b6064820152608401610570565b60008581526002602090815260408083206001600160a01b038b8116855292528083208785039055908816825281208054869290611999908490612dff565b909155505060408051868152602081018690526001600160a01b03808916928a821692918616917fc3d58168c5ae7397731d063d5bbf3d657854427343f4c083240f7aacaa2d0f62910160405180910390a46119f9828888888888612226565b50505050505050565b6001600160a01b038316611a645760405162461bcd60e51b815260206004820152602360248201527f455243313135353a206275726e2066726f6d20746865207a65726f206164647260448201526265737360e81b6064820152608401610570565b33611a9381856000611a75876121cd565b611a7e876121cd565b60405180602001604052806000815250611cac565b60008381526002602090815260408083206001600160a01b038816845290915290205482811015611b125760405162461bcd60e51b8152602060048201526024808201527f455243313135353a206275726e20616d6f756e7420657863656564732062616c604482015263616e636560e01b6064820152608401610570565b60008481526002602090815260408083206001600160a01b03898116808652918452828520888703905582518981529384018890529092908616917fc3d58168c5ae7397731d063d5bbf3d657854427343f4c083240f7aacaa2d0f62910160405180910390a45050505050565b6000828152602081815260408083206001600160a01b038516845290915290205460ff16610e0a576000828152602081815260408083206001600160a01b03851684529091529020805460ff19166001179055611bd93390565b6001600160a01b0316816001600160a01b0316837f2f8788117e7eff1d82e926ec794901d17c78024a50270940304540a733656f0d60405160405180910390a45050565b6000818152600183016020526040812054611c645750815460018181018455600084815260208082209093018490558454848252828601909352604090209190915561059e565b50600061059e565b60006001600160e01b03198216636cdb3d1360e11b1480611c9d57506001600160e01b031982166303a24d0760e21b145b8061059e575061059e82612369565b611cba86868686868661238e565b6001600160a01b038516611d5d5760005b8351811015611d5b57828181518110611cf457634e487b7160e01b600052603260045260246000fd5b602002602001015160066000868481518110611d2057634e487b7160e01b600052603260045260246000fd5b602002602001015181526020019081526020016000206000828254611d459190612dff565b90915550611d54905081612ef8565b9050611ccb565b505b6001600160a01b0384166112bd5760005b83518110156119f957828181518110611d9757634e487b7160e01b600052603260045260246000fd5b602002602001015160066000868481518110611dc357634e487b7160e01b600052603260045260246000fd5b602002602001015181526020019081526020016000206000828254611de89190612e36565b90915550611df7905081612ef8565b9050611d6e565b6001600160a01b0384163b156112bd5760405163bc197c8160e01b81526001600160a01b0385169063bc197c8190611e429089908990889088908890600401612ce6565b602060405180830381600087803b158015611e5c57600080fd5b505af1925050508015611e8c575060408051601f3d908101601f19168201909252611e8991810190612be3565b60015b611f4257611e98612f3f565b806308c379a01415611ed25750611ead612f57565b80611eb85750611ed4565b8060405162461bcd60e51b81526004016105709190612dc8565b505b60405162461bcd60e51b815260206004820152603460248201527f455243313135353a207472616e7366657220746f206e6f6e204552433131353560448201527f526563656976657220696d706c656d656e7465720000000000000000000000006064820152608401610570565b6001600160e01b0319811663bc197c8160e01b146119f95760405162461bcd60e51b815260206004820152602860248201527f455243313135353a204552433131353552656365697665722072656a656374656044820152676420746f6b656e7360c01b6064820152608401610570565b6000828152602081815260408083206001600160a01b038516845290915290205460ff16610e0a57611fef816001600160a01b03166014612407565b611ffa836020612407565b60405160200161200b929190612c65565b60408051601f198184030181529082905262461bcd60e51b825261057091600401612dc8565b6000828152602081815260408083206001600160a01b038516845290915290205460ff1615610e0a576000828152602081815260408083206001600160a01b0385168085529252808320805460ff1916905551339285917ff6391f5c32d9c69d2a47ea670b442974b53935d1edc7fd64eb21e047a839171b9190a45050565b600081815260018301602052604081205480156121c35760006120d4600183612e36565b85549091506000906120e890600190612e36565b905081811461216957600086600001828154811061211657634e487b7160e01b600052603260045260246000fd5b906000526020600020015490508087600001848154811061214757634e487b7160e01b600052603260045260246000fd5b6000918252602080832090910192909255918252600188019052604090208390555b855486908061218857634e487b7160e01b600052603160045260246000fd5b60019003818190600052602060002001600090559055856001016000868152602001908152602001600020600090556001935050505061059e565b600091505061059e565b6040805160018082528183019092526060916000919060208083019080368337019050509050828160008151811061221557634e487b7160e01b600052603260045260246000fd5b602090810291909101015292915050565b6001600160a01b0384163b156112bd5760405163f23a6e6160e01b81526001600160a01b0385169063f23a6e619061226a9089908990889088908890600401612d44565b602060405180830381600087803b15801561228457600080fd5b505af19250505080156122b4575060408051601f3d908101601f191682019092526122b191810190612be3565b60015b6122c057611e98612f3f565b6001600160e01b0319811663f23a6e6160e01b146119f95760405162461bcd60e51b815260206004820152602860248201527f455243313135353a204552433131353552656365697665722072656a656374656044820152676420746f6b656e7360c01b6064820152608401610570565b600082600001828154811061235657634e487b7160e01b600052603260045260246000fd5b9060005260206000200154905092915050565b60006001600160e01b03198216635a05180f60e01b148061059e575061059e826125f6565b60055460ff16156112bd5760405162461bcd60e51b815260206004820152602c60248201527f455243313135355061757361626c653a20746f6b656e207472616e736665722060448201527f7768696c652070617573656400000000000000000000000000000000000000006064820152608401610570565b60606000612416836002612e17565b612421906002612dff565b67ffffffffffffffff81111561244757634e487b7160e01b600052604160045260246000fd5b6040519080825280601f01601f191660200182016040528015612471576020820181803683370190505b509050600360fc1b8160008151811061249a57634e487b7160e01b600052603260045260246000fd5b60200101906001600160f81b031916908160001a905350600f60fb1b816001815181106124d757634e487b7160e01b600052603260045260246000fd5b60200101906001600160f81b031916908160001a90535060006124fb846002612e17565b612506906001612dff565b90505b60018111156125a7577f303132333435363738396162636465660000000000000000000000000000000085600f166010811061255557634e487b7160e01b600052603260045260246000fd5b1a60f81b82828151811061257957634e487b7160e01b600052603260045260246000fd5b60200101906001600160f81b031916908160001a90535060049490941c936125a081612e79565b9050612509565b508315610be15760405162461bcd60e51b815260206004820181905260248201527f537472696e67733a20686578206c656e67746820696e73756666696369656e746044820152606401610570565b60006001600160e01b03198216637965db0b60e01b148061059e57506301ffc9a760e01b6001600160e01b031983161461059e565b80356001600160a01b038116811461264257600080fd5b919050565b600082601f830112612657578081fd5b8135602061266482612ddb565b6040516126718282612ecb565b8381528281019150858301600585901b87018401881015612690578586fd5b855b858110156126ae57813584529284019290840190600101612692565b5090979650505050505050565b600082601f8301126126cb578081fd5b813567ffffffffffffffff8111156126e5576126e5612f29565b6040516126fc601f8301601f191660200182612ecb565b818152846020838601011115612710578283fd5b816020850160208301379081016020019190915292915050565b6000806040838503121561273c578182fd5b6127458361262b565b91506127536020840161262b565b90509250929050565b600080600080600060a08688031215612773578081fd5b61277c8661262b565b945061278a6020870161262b565b9350604086013567ffffffffffffffff808211156127a6578283fd5b6127b289838a01612647565b945060608801359150808211156127c7578283fd5b6127d389838a01612647565b935060808801359150808211156127e8578283fd5b506127f5888289016126bb565b9150509295509295909350565b60008060008060808587031215612817578384fd5b6128208561262b565b935061282e6020860161262b565b925060408501359150606085013567ffffffffffffffff811115612850578182fd5b61285c878288016126bb565b91505092959194509250565b600080600080600060a0868803121561287f578081fd5b6128888661262b565b94506128966020870161262b565b93506040860135925060608601359150608086013567ffffffffffffffff8111156128bf578182fd5b6127f5888289016126bb565b6000806000606084860312156128df578283fd5b6128e88461262b565b9250602084013567ffffffffffffffff80821115612904578384fd5b61291087838801612647565b93506040860135915080821115612925578283fd5b5061293286828701612647565b9150509250925092565b60008060008060808587031215612951578384fd5b61295a8561262b565b9350602085013567ffffffffffffffff80821115612976578485fd5b61298288838901612647565b94506040870135915080821115612997578384fd5b6129a388838901612647565b935060608701359150808211156129b8578283fd5b5061285c878288016126bb565b600080604083850312156129d7578182fd5b6129e08361262b565b9150602083013580151581146129f4578182fd5b809150509250929050565b60008060408385031215612a11578182fd5b612a1a8361262b565b946020939093013593505050565b600080600060608486031215612a3c578081fd5b612a458461262b565b95602085013595506040909401359392505050565b60008060008060808587031215612a6f578182fd5b612a788561262b565b93506020850135925060408501359150606085013567ffffffffffffffff811115612850578182fd5b60008060408385031215612ab3578182fd5b823567ffffffffffffffff80821115612aca578384fd5b818501915085601f830112612add578384fd5b81356020612aea82612ddb565b604051612af78282612ecb565b8381528281019150858301600585901b870184018b1015612b16578889fd5b8896505b84871015612b3f57612b2b8161262b565b835260019690960195918301918301612b1a565b5096505086013592505080821115612b55578283fd5b50612b6285828601612647565b9150509250929050565b600060208284031215612b7d578081fd5b5035919050565b60008060408385031215612b96578182fd5b823591506127536020840161262b565b60008060408385031215612bb8578182fd5b50508035926020909101359150565b600060208284031215612bd8578081fd5b8135610be181612fe1565b600060208284031215612bf4578081fd5b8151610be181612fe1565b6000815180845260208085019450808401835b83811015612c2e57815187529582019590820190600101612c12565b509495945050505050565b60008151808452612c51816020860160208601612e4d565b601f01601f19169290920160200192915050565b7f416363657373436f6e74726f6c3a206163636f756e7420000000000000000000815260008351612c9d816017850160208801612e4d565b7f206973206d697373696e6720726f6c65200000000000000000000000000000006017918401918201528351612cda816028840160208801612e4d565b01602801949350505050565b60006001600160a01b03808816835280871660208401525060a06040830152612d1260a0830186612bff565b8281036060840152612d248186612bff565b90508281036080840152612d388185612c39565b98975050505050505050565b60006001600160a01b03808816835280871660208401525084604083015283606083015260a06080830152612d7c60a0830184612c39565b979650505050505050565b602081526000610be16020830184612bff565b604081526000612dad6040830185612bff565b8281036020840152612dbf8185612bff565b95945050505050565b602081526000610be16020830184612c39565b600067ffffffffffffffff821115612df557612df5612f29565b5060051b60200190565b60008219821115612e1257612e12612f13565b500190565b6000816000190483118215151615612e3157612e31612f13565b500290565b600082821015612e4857612e48612f13565b500390565b60005b83811015612e68578181015183820152602001612e50565b838111156106eb5750506000910152565b600081612e8857612e88612f13565b506000190190565b600181811c90821680612ea457607f821691505b60208210811415612ec557634e487b7160e01b600052602260045260246000fd5b50919050565b601f8201601f1916810167ffffffffffffffff81118282101715612ef157612ef1612f29565b6040525050565b6000600019821415612f0c57612f0c612f13565b5060010190565b634e487b7160e01b600052601160045260246000fd5b634e487b7160e01b600052604160045260246000fd5b600060033d1115612f5457600481823e5160e01c5b90565b600060443d1015612f655790565b6040516003193d81016004833e81513d67ffffffffffffffff8160248401118184111715612f9557505050505090565b8285019150815181811115612fad5750505050505090565b843d8701016020828501011115612fc75750505050505090565b612fd660208286010187612ecb565b509095945050505050565b6001600160e01b031981168114612ff757600080fd5b5056fea164736f6c6343000804000a",
  "linkReferences": {},
  "deployedLinkReferences": {}
}