{
  "_format": "hh-sol-artifact-1",
  "contractName": "Pack",
  "sourceName": "contracts/Pack.sol",
  "abi": [
    {
      "inputs": [
        {
          "internalType": "address payable",
          "name": "_controlCenter",
          "type": "address"
        },
        {
          "internalType": "string",
          "name": "_uri",
          "type": "string"
        },
        {
          "internalType": "address",
          "name": "_vrfCoordinator",
          "type": "address"
        },
        {
          "internalType": "address",
          "name": "_linkToken",
          "type": "address"
        },
        {
          "internalType": "bytes32",
          "name": "_keyHash",
          "type": "bytes32"
        },
        {
          "internalType": "uint256",
          "name": "_fees",
          "type": "uint256"
        },
        {
          "internalType": "address",
          "name": "_trustedForwarder",
          "type": "address"
        }
      ],
      "stateMutability": "nonpayable",
      "type": "constructor"
    },
    {
      "anonymous": false,
      "inputs": [
        {
          "indexed": true,
          "internalType": "address",
          "name": "account",
          "type": "address"
        },
        {
          "indexed": true,
          "internalType": "address",
          "name": "operator",
          "type": "address"
        },
        {
          "indexed": false,
          "internalType": "bool",
          "name": "approved",
          "type": "bool"
        }
      ],
      "name": "ApprovalForAll",
      "type": "event"
    },
    {
      "anonymous": false,
      "inputs": [
        {
          "indexed": true,
          "internalType": "uint256",
          "name": "packId",
          "type": "uint256"
        },
        {
          "indexed": true,
          "internalType": "address",
          "name": "rewardContract",
          "type": "address"
        },
        {
          "indexed": true,
          "internalType": "address",
          "name": "creator",
          "type": "address"
        },
        {
          "indexed": false,
          "internalType": "uint256",
          "name": "packTotalSupply",
          "type": "uint256"
        },
        {
          "components": [
            {
              "internalType": "string",
              "name": "uri",
              "type": "string"
            },
            {
              "internalType": "address",
              "name": "creator",
              "type": "address"
            },
            {
              "internalType": "uint256",
              "name": "openStart",
              "type": "uint256"
            }
          ],
          "indexed": false,
          "internalType": "struct Pack.PackState",
          "name": "packState",
          "type": "tuple"
        },
        {
          "components": [
            {
              "internalType": "address",
              "name": "source",
              "type": "address"
            },
            {
              "internalType": "uint256[]",
              "name": "tokenIds",
              "type": "uint256[]"
            },
            {
              "internalType": "uint256[]",
              "name": "amountsPacked",
              "type": "uint256[]"
            },
            {
              "internalType": "uint256",
              "name": "rewardsPerOpen",
              "type": "uint256"
            }
          ],
          "indexed": false,
          "internalType": "struct Pack.Rewards",
          "name": "rewards",
          "type": "tuple"
        }
      ],
      "name": "PackCreated",
      "type": "event"
    },
    {
      "anonymous": false,
      "inputs": [
        {
          "indexed": true,
          "internalType": "uint256",
          "name": "packId",
          "type": "uint256"
        },
        {
          "indexed": true,
          "internalType": "address",
          "name": "opener",
          "type": "address"
        },
        {
          "indexed": false,
          "internalType": "bytes32",
          "name": "requestId",
          "type": "bytes32"
        },
        {
          "indexed": true,
          "internalType": "address",
          "name": "rewardContract",
          "type": "address"
        },
        {
          "indexed": false,
          "internalType": "uint256[]",
          "name": "rewardIds",
          "type": "uint256[]"
        }
      ],
      "name": "PackOpenFulfilled",
      "type": "event"
    },
    {
      "anonymous": false,
      "inputs": [
        {
          "indexed": true,
          "internalType": "uint256",
          "name": "packId",
          "type": "uint256"
        },
        {
          "indexed": true,
          "internalType": "address",
          "name": "opener",
          "type": "address"
        },
        {
          "indexed": false,
          "internalType": "bytes32",
          "name": "requestId",
          "type": "bytes32"
        }
      ],
      "name": "PackOpenRequest",
      "type": "event"
    },
    {
      "anonymous": false,
      "inputs": [
        {
          "indexed": false,
          "internalType": "address",
          "name": "account",
          "type": "address"
        }
      ],
      "name": "Paused",
      "type": "event"
    },
    {
      "anonymous": false,
      "inputs": [
        {
          "indexed": false,
          "internalType": "bool",
          "name": "transferable",
          "type": "bool"
        }
      ],
      "name": "RestrictedTransferUpdated",
      "type": "event"
    },
    {
      "anonymous": false,
      "inputs": [
        {
          "indexed": true,
          "internalType": "bytes32",
          "name": "role",
          "type": "bytes32"
        },
        {
          "indexed": true,
          "internalType": "bytes32",
          "name": "previousAdminRole",
          "type": "bytes32"
        },
        {
          "indexed": true,
          "internalType": "bytes32",
          "name": "newAdminRole",
          "type": "bytes32"
        }
      ],
      "name": "RoleAdminChanged",
      "type": "event"
    },
    {
      "anonymous": false,
      "inputs": [
        {
          "indexed": true,
          "internalType": "bytes32",
          "name": "role",
          "type": "bytes32"
        },
        {
          "indexed": true,
          "internalType": "address",
          "name": "account",
          "type": "address"
        },
        {
          "indexed": true,
          "internalType": "address",
          "name": "sender",
          "type": "address"
        }
      ],
      "name": "RoleGranted",
      "type": "event"
    },
    {
      "anonymous": false,
      "inputs": [
        {
          "indexed": true,
          "internalType": "bytes32",
          "name": "role",
          "type": "bytes32"
        },
        {
          "indexed": true,
          "internalType": "address",
          "name": "account",
          "type": "address"
        },
        {
          "indexed": true,
          "internalType": "address",
          "name": "sender",
          "type": "address"
        }
      ],
      "name": "RoleRevoked",
      "type": "event"
    },
    {
      "anonymous": false,
      "inputs": [
        {
          "indexed": false,
          "internalType": "uint256",
          "name": "royaltyBps",
          "type": "uint256"
        }
      ],
      "name": "RoyaltyUpdated",
      "type": "event"
    },
    {
      "anonymous": false,
      "inputs": [
        {
          "indexed": true,
          "internalType": "address",
          "name": "operator",
          "type": "address"
        },
        {
          "indexed": true,
          "internalType": "address",
          "name": "from",
          "type": "address"
        },
        {
          "indexed": true,
          "internalType": "address",
          "name": "to",
          "type": "address"
        },
        {
          "indexed": false,
          "internalType": "uint256[]",
          "name": "ids",
          "type": "uint256[]"
        },
        {
          "indexed": false,
          "internalType": "uint256[]",
          "name": "values",
          "type": "uint256[]"
        }
      ],
      "name": "TransferBatch",
      "type": "event"
    },
    {
      "anonymous": false,
      "inputs": [
        {
          "indexed": true,
          "internalType": "address",
          "name": "operator",
          "type": "address"
        },
        {
          "indexed": true,
          "internalType": "address",
          "name": "from",
          "type": "address"
        },
        {
          "indexed": true,
          "internalType": "address",
          "name": "to",
          "type": "address"
        },
        {
          "indexed": false,
          "internalType": "uint256",
          "name": "id",
          "type": "uint256"
        },
        {
          "indexed": false,
          "internalType": "uint256",
          "name": "value",
          "type": "uint256"
        }
      ],
      "name": "TransferSingle",
      "type": "event"
    },
    {
      "anonymous": false,
      "inputs": [
        {
          "indexed": false,
          "internalType": "string",
          "name": "value",
          "type": "string"
        },
        {
          "indexed": true,
          "internalType": "uint256",
          "name": "id",
          "type": "uint256"
        }
      ],
      "name": "URI",
      "type": "event"
    },
    {
      "anonymous": false,
      "inputs": [
        {
          "indexed": false,
          "internalType": "address",
          "name": "account",
          "type": "address"
        }
      ],
      "name": "Unpaused",
      "type": "event"
    },
    {
      "inputs": [],
      "name": "DEFAULT_ADMIN_ROLE",
      "outputs": [
        {
          "internalType": "bytes32",
          "name": "",
          "type": "bytes32"
        }
      ],
      "stateMutability": "view",
      "type": "function"
    },
    {
      "inputs": [],
      "name": "MINTER_ROLE",
      "outputs": [
        {
          "internalType": "bytes32",
          "name": "",
          "type": "bytes32"
        }
      ],
      "stateMutability": "view",
      "type": "function"
    },
    {
      "inputs": [],
      "name": "PAUSER_ROLE",
      "outputs": [
        {
          "internalType": "bytes32",
          "name": "",
          "type": "bytes32"
        }
      ],
      "stateMutability": "view",
      "type": "function"
    },
    {
      "inputs": [],
      "name": "TRANSFER_ROLE",
      "outputs": [
        {
          "internalType": "bytes32",
          "name": "",
          "type": "bytes32"
        }
      ],
      "stateMutability": "view",
      "type": "function"
    },
    {
      "inputs": [],
      "name": "_contractURI",
      "outputs": [
        {
          "internalType": "string",
          "name": "",
          "type": "string"
        }
      ],
      "stateMutability": "view",
      "type": "function"
    },
    {
      "inputs": [
        {
          "internalType": "address",
          "name": "account",
          "type": "address"
        },
        {
          "internalType": "uint256",
          "name": "id",
          "type": "uint256"
        }
      ],
      "name": "balanceOf",
      "outputs": [
        {
          "internalType": "uint256",
          "name": "",
          "type": "uint256"
        }
      ],
      "stateMutability": "view",
      "type": "function"
    },
    {
      "inputs": [
        {
          "internalType": "address[]",
          "name": "accounts",
          "type": "address[]"
        },
        {
          "internalType": "uint256[]",
          "name": "ids",
          "type": "uint256[]"
        }
      ],
      "name": "balanceOfBatch",
      "outputs": [
        {
          "internalType": "uint256[]",
          "name": "",
          "type": "uint256[]"
        }
      ],
      "stateMutability": "view",
      "type": "function"
    },
    {
      "inputs": [
        {
          "internalType": "address",
          "name": "account",
          "type": "address"
        },
        {
          "internalType": "uint256",
          "name": "id",
          "type": "uint256"
        },
        {
          "internalType": "uint256",
          "name": "value",
          "type": "uint256"
        }
      ],
      "name": "burn",
      "outputs": [],
      "stateMutability": "nonpayable",
      "type": "function"
    },
    {
      "inputs": [
        {
          "internalType": "address",
          "name": "account",
          "type": "address"
        },
        {
          "internalType": "uint256[]",
          "name": "ids",
          "type": "uint256[]"
        },
        {
          "internalType": "uint256[]",
          "name": "values",
          "type": "uint256[]"
        }
      ],
      "name": "burnBatch",
      "outputs": [],
      "stateMutability": "nonpayable",
      "type": "function"
    },
    {
      "inputs": [],
      "name": "contractURI",
      "outputs": [
        {
          "internalType": "string",
          "name": "",
          "type": "string"
        }
      ],
      "stateMutability": "view",
      "type": "function"
    },
    {
      "inputs": [
        {
          "internalType": "uint256",
          "name": "_packId",
          "type": "uint256"
        }
      ],
      "name": "creator",
      "outputs": [
        {
          "internalType": "address",
          "name": "",
          "type": "address"
        }
      ],
      "stateMutability": "view",
      "type": "function"
    },
    {
      "inputs": [
        {
          "internalType": "uint256",
          "name": "",
          "type": "uint256"
        },
        {
          "internalType": "address",
          "name": "",
          "type": "address"
        }
      ],
      "name": "currentRequestId",
      "outputs": [
        {
          "internalType": "bytes32",
          "name": "",
          "type": "bytes32"
        }
      ],
      "stateMutability": "view",
      "type": "function"
    },
    {
      "inputs": [
        {
          "internalType": "uint256",
          "name": "_packId",
          "type": "uint256"
        }
      ],
      "name": "getPack",
      "outputs": [
        {
          "components": [
            {
              "internalType": "string",
              "name": "uri",
              "type": "string"
            },
            {
              "internalType": "address",
              "name": "creator",
              "type": "address"
            },
            {
              "internalType": "uint256",
              "name": "openStart",
              "type": "uint256"
            }
          ],
          "internalType": "struct Pack.PackState",
          "name": "pack",
          "type": "tuple"
        }
      ],
      "stateMutability": "view",
      "type": "function"
    },
    {
      "inputs": [
        {
          "internalType": "uint256",
          "name": "_packId",
          "type": "uint256"
        }
      ],
      "name": "getPackWithRewards",
      "outputs": [
        {
          "components": [
            {
              "internalType": "string",
              "name": "uri",
              "type": "string"
            },
            {
              "internalType": "address",
              "name": "creator",
              "type": "address"
            },
            {
              "internalType": "uint256",
              "name": "openStart",
              "type": "uint256"
            }
          ],
          "internalType": "struct Pack.PackState",
          "name": "pack",
          "type": "tuple"
        },
        {
          "internalType": "uint256",
          "name": "packTotalSupply",
          "type": "uint256"
        },
        {
          "internalType": "address",
          "name": "source",
          "type": "address"
        },
        {
          "internalType": "uint256[]",
          "name": "tokenIds",
          "type": "uint256[]"
        },
        {
          "internalType": "uint256[]",
          "name": "amountsPacked",
          "type": "uint256[]"
        }
      ],
      "stateMutability": "view",
      "type": "function"
    },
    {
      "inputs": [
        {
          "internalType": "bytes32",
          "name": "role",
          "type": "bytes32"
        }
      ],
      "name": "getRoleAdmin",
      "outputs": [
        {
          "internalType": "bytes32",
          "name": "",
          "type": "bytes32"
        }
      ],
      "stateMutability": "view",
      "type": "function"
    },
    {
      "inputs": [
        {
          "internalType": "bytes32",
          "name": "role",
          "type": "bytes32"
        },
        {
          "internalType": "uint256",
          "name": "index",
          "type": "uint256"
        }
      ],
      "name": "getRoleMember",
      "outputs": [
        {
          "internalType": "address",
          "name": "",
          "type": "address"
        }
      ],
      "stateMutability": "view",
      "type": "function"
    },
    {
      "inputs": [
        {
          "internalType": "bytes32",
          "name": "role",
          "type": "bytes32"
        }
      ],
      "name": "getRoleMemberCount",
      "outputs": [
        {
          "internalType": "uint256",
          "name": "",
          "type": "uint256"
        }
      ],
      "stateMutability": "view",
      "type": "function"
    },
    {
      "inputs": [
        {
          "internalType": "bytes32",
          "name": "role",
          "type": "bytes32"
        },
        {
          "internalType": "address",
          "name": "account",
          "type": "address"
        }
      ],
      "name": "grantRole",
      "outputs": [],
      "stateMutability": "nonpayable",
      "type": "function"
    },
    {
      "inputs": [
        {
          "internalType": "bytes32",
          "name": "role",
          "type": "bytes32"
        },
        {
          "internalType": "address",
          "name": "account",
          "type": "address"
        }
      ],
      "name": "hasRole",
      "outputs": [
        {
          "internalType": "bool",
          "name": "",
          "type": "bool"
        }
      ],
      "stateMutability": "view",
      "type": "function"
    },
    {
      "inputs": [
        {
          "internalType": "address",
          "name": "account",
          "type": "address"
        },
        {
          "internalType": "address",
          "name": "operator",
          "type": "address"
        }
      ],
      "name": "isApprovedForAll",
      "outputs": [
        {
          "internalType": "bool",
          "name": "",
          "type": "bool"
        }
      ],
      "stateMutability": "view",
      "type": "function"
    },
    {
      "inputs": [
        {
          "internalType": "address",
          "name": "forwarder",
          "type": "address"
        }
      ],
      "name": "isTrustedForwarder",
      "outputs": [
        {
          "internalType": "bool",
          "name": "",
          "type": "bool"
        }
      ],
      "stateMutability": "view",
      "type": "function"
    },
    {
      "inputs": [
        {
          "internalType": "address",
          "name": "",
          "type": "address"
        },
        {
          "internalType": "uint256",
          "name": "",
          "type": "uint256"
        },
        {
          "internalType": "uint256",
          "name": "",
          "type": "uint256"
        },
        {
          "internalType": "bytes",
          "name": "",
          "type": "bytes"
        }
      ],
      "name": "mint",
      "outputs": [],
      "stateMutability": "nonpayable",
      "type": "function"
    },
    {
      "inputs": [
        {
          "internalType": "address",
          "name": "",
          "type": "address"
        },
        {
          "internalType": "uint256[]",
          "name": "",
          "type": "uint256[]"
        },
        {
          "internalType": "uint256[]",
          "name": "",
          "type": "uint256[]"
        },
        {
          "internalType": "bytes",
          "name": "",
          "type": "bytes"
        }
      ],
      "name": "mintBatch",
      "outputs": [],
      "stateMutability": "nonpayable",
      "type": "function"
    },
    {
      "inputs": [
        {
          "internalType": "bytes[]",
          "name": "data",
          "type": "bytes[]"
        }
      ],
      "name": "multicall",
      "outputs": [
        {
          "internalType": "bytes[]",
          "name": "results",
          "type": "bytes[]"
        }
      ],
      "stateMutability": "nonpayable",
      "type": "function"
    },
    {
      "inputs": [],
      "name": "nextTokenId",
      "outputs": [
        {
          "internalType": "uint256",
          "name": "",
          "type": "uint256"
        }
      ],
      "stateMutability": "view",
      "type": "function"
    },
    {
      "inputs": [
        {
          "internalType": "address",
          "name": "_operator",
          "type": "address"
        },
        {
          "internalType": "address",
          "name": "",
          "type": "address"
        },
        {
          "internalType": "uint256[]",
          "name": "_ids",
          "type": "uint256[]"
        },
        {
          "internalType": "uint256[]",
          "name": "_values",
          "type": "uint256[]"
        },
        {
          "internalType": "bytes",
          "name": "_data",
          "type": "bytes"
        }
      ],
      "name": "onERC1155BatchReceived",
      "outputs": [
        {
          "internalType": "bytes4",
          "name": "",
          "type": "bytes4"
        }
      ],
      "stateMutability": "nonpayable",
      "type": "function"
    },
    {
      "inputs": [
        {
          "internalType": "address",
          "name": "",
          "type": "address"
        },
        {
          "internalType": "address",
          "name": "",
          "type": "address"
        },
        {
          "internalType": "uint256",
          "name": "",
          "type": "uint256"
        },
        {
          "internalType": "uint256",
          "name": "",
          "type": "uint256"
        },
        {
          "internalType": "bytes",
          "name": "",
          "type": "bytes"
        }
      ],
      "name": "onERC1155Received",
      "outputs": [
        {
          "internalType": "bytes4",
          "name": "",
          "type": "bytes4"
        }
      ],
      "stateMutability": "nonpayable",
      "type": "function"
    },
    {
      "inputs": [
        {
          "internalType": "address",
          "name": "",
          "type": "address"
        },
        {
          "internalType": "address",
          "name": "",
          "type": "address"
        },
        {
          "internalType": "uint256",
          "name": "",
          "type": "uint256"
        },
        {
          "internalType": "bytes",
          "name": "",
          "type": "bytes"
        }
      ],
      "name": "onERC721Received",
      "outputs": [
        {
          "internalType": "bytes4",
          "name": "",
          "type": "bytes4"
        }
      ],
      "stateMutability": "nonpayable",
      "type": "function"
    },
    {
      "inputs": [
        {
          "internalType": "uint256",
          "name": "_packId",
          "type": "uint256"
        }
      ],
      "name": "openPack",
      "outputs": [],
      "stateMutability": "nonpayable",
      "type": "function"
    },
    {
      "inputs": [
        {
          "internalType": "uint256",
          "name": "",
          "type": "uint256"
        }
      ],
      "name": "packs",
      "outputs": [
        {
          "internalType": "string",
          "name": "uri",
          "type": "string"
        },
        {
          "internalType": "address",
          "name": "creator",
          "type": "address"
        },
        {
          "internalType": "uint256",
          "name": "openStart",
          "type": "uint256"
        }
      ],
      "stateMutability": "view",
      "type": "function"
    },
    {
      "inputs": [],
      "name": "pause",
      "outputs": [],
      "stateMutability": "nonpayable",
      "type": "function"
    },
    {
      "inputs": [],
      "name": "paused",
      "outputs": [
        {
          "internalType": "bool",
          "name": "",
          "type": "bool"
        }
      ],
      "stateMutability": "view",
      "type": "function"
    },
    {
      "inputs": [
        {
          "internalType": "bytes32",
          "name": "",
          "type": "bytes32"
        }
      ],
      "name": "randomnessRequests",
      "outputs": [
        {
          "internalType": "uint256",
          "name": "packId",
          "type": "uint256"
        },
        {
          "internalType": "address",
          "name": "opener",
          "type": "address"
        }
      ],
      "stateMutability": "view",
      "type": "function"
    },
    {
      "inputs": [
        {
          "internalType": "bytes32",
          "name": "requestId",
          "type": "bytes32"
        },
        {
          "internalType": "uint256",
          "name": "randomness",
          "type": "uint256"
        }
      ],
      "name": "rawFulfillRandomness",
      "outputs": [],
      "stateMutability": "nonpayable",
      "type": "function"
    },
    {
      "inputs": [
        {
          "internalType": "bytes32",
          "name": "role",
          "type": "bytes32"
        },
        {
          "internalType": "address",
          "name": "account",
          "type": "address"
        }
      ],
      "name": "renounceRole",
      "outputs": [],
      "stateMutability": "nonpayable",
      "type": "function"
    },
    {
      "inputs": [
        {
          "internalType": "bytes32",
          "name": "role",
          "type": "bytes32"
        },
        {
          "internalType": "address",
          "name": "account",
          "type": "address"
        }
      ],
      "name": "revokeRole",
      "outputs": [],
      "stateMutability": "nonpayable",
      "type": "function"
    },
    {
      "inputs": [
        {
          "internalType": "uint256",
          "name": "",
          "type": "uint256"
        }
      ],
      "name": "rewards",
      "outputs": [
        {
          "internalType": "address",
          "name": "source",
          "type": "address"
        },
        {
          "internalType": "uint256",
          "name": "rewardsPerOpen",
          "type": "uint256"
        }
      ],
      "stateMutability": "view",
      "type": "function"
    },
    {
      "inputs": [],
      "name": "royaltyBps",
      "outputs": [
        {
          "internalType": "uint256",
          "name": "",
          "type": "uint256"
        }
      ],
      "stateMutability": "view",
      "type": "function"
    },
    {
      "inputs": [
        {
          "internalType": "uint256",
          "name": "",
          "type": "uint256"
        },
        {
          "internalType": "uint256",
          "name": "salePrice",
          "type": "uint256"
        }
      ],
      "name": "royaltyInfo",
      "outputs": [
        {
          "internalType": "address",
          "name": "receiver",
          "type": "address"
        },
        {
          "internalType": "uint256",
          "name": "royaltyAmount",
          "type": "uint256"
        }
      ],
      "stateMutability": "view",
      "type": "function"
    },
    {
      "inputs": [
        {
          "internalType": "address",
          "name": "from",
          "type": "address"
        },
        {
          "internalType": "address",
          "name": "to",
          "type": "address"
        },
        {
          "internalType": "uint256[]",
          "name": "ids",
          "type": "uint256[]"
        },
        {
          "internalType": "uint256[]",
          "name": "amounts",
          "type": "uint256[]"
        },
        {
          "internalType": "bytes",
          "name": "data",
          "type": "bytes"
        }
      ],
      "name": "safeBatchTransferFrom",
      "outputs": [],
      "stateMutability": "nonpayable",
      "type": "function"
    },
    {
      "inputs": [
        {
          "internalType": "address",
          "name": "from",
          "type": "address"
        },
        {
          "internalType": "address",
          "name": "to",
          "type": "address"
        },
        {
          "internalType": "uint256",
          "name": "id",
          "type": "uint256"
        },
        {
          "internalType": "uint256",
          "name": "amount",
          "type": "uint256"
        },
        {
          "internalType": "bytes",
          "name": "data",
          "type": "bytes"
        }
      ],
      "name": "safeTransferFrom",
      "outputs": [],
      "stateMutability": "nonpayable",
      "type": "function"
    },
    {
      "inputs": [
        {
          "internalType": "address",
          "name": "operator",
          "type": "address"
        },
        {
          "internalType": "bool",
          "name": "approved",
          "type": "bool"
        }
      ],
      "name": "setApprovalForAll",
      "outputs": [],
      "stateMutability": "nonpayable",
      "type": "function"
    },
    {
      "inputs": [
        {
          "internalType": "uint256",
          "name": "_newFees",
          "type": "uint256"
        }
      ],
      "name": "setChainlinkFees",
      "outputs": [],
      "stateMutability": "nonpayable",
      "type": "function"
    },
    {
      "inputs": [
        {
          "internalType": "string",
          "name": "_uri",
          "type": "string"
        }
      ],
      "name": "setContractURI",
      "outputs": [],
      "stateMutability": "nonpayable",
      "type": "function"
    },
    {
      "inputs": [
        {
          "internalType": "bool",
          "name": "_restrictedTransfer",
          "type": "bool"
        }
      ],
      "name": "setRestrictedTransfer",
      "outputs": [],
      "stateMutability": "nonpayable",
      "type": "function"
    },
    {
      "inputs": [
        {
          "internalType": "uint256",
          "name": "_royaltyBps",
          "type": "uint256"
        }
      ],
      "name": "setRoyaltyBps",
      "outputs": [],
      "stateMutability": "nonpayable",
      "type": "function"
    },
    {
      "inputs": [
        {
          "internalType": "bytes4",
          "name": "interfaceId",
          "type": "bytes4"
        }
      ],
      "name": "supportsInterface",
      "outputs": [
        {
          "internalType": "bool",
          "name": "",
          "type": "bool"
        }
      ],
      "stateMutability": "view",
      "type": "function"
    },
    {
      "inputs": [
        {
          "internalType": "uint256",
          "name": "_id",
          "type": "uint256"
        }
      ],
      "name": "tokenURI",
      "outputs": [
        {
          "internalType": "string",
          "name": "",
          "type": "string"
        }
      ],
      "stateMutability": "view",
      "type": "function"
    },
    {
      "inputs": [
        {
          "internalType": "uint256",
          "name": "id",
          "type": "uint256"
        }
      ],
      "name": "totalSupply",
      "outputs": [
        {
          "internalType": "uint256",
          "name": "",
          "type": "uint256"
        }
      ],
      "stateMutability": "view",
      "type": "function"
    },
    {
      "inputs": [
        {
          "internalType": "address",
          "name": "_to",
          "type": "address"
        },
        {
          "internalType": "uint256",
          "name": "_amount",
          "type": "uint256"
        }
      ],
      "name": "transferLink",
      "outputs": [],
      "stateMutability": "nonpayable",
      "type": "function"
    },
    {
      "inputs": [],
      "name": "transfersRestricted",
      "outputs": [
        {
          "internalType": "bool",
          "name": "",
          "type": "bool"
        }
      ],
      "stateMutability": "view",
      "type": "function"
    },
    {
      "inputs": [],
      "name": "unpause",
      "outputs": [],
      "stateMutability": "nonpayable",
      "type": "function"
    },
    {
      "inputs": [
        {
          "internalType": "uint256",
          "name": "_id",
          "type": "uint256"
        }
      ],
      "name": "uri",
      "outputs": [
        {
          "internalType": "string",
          "name": "",
          "type": "string"
        }
      ],
      "stateMutability": "view",
      "type": "function"
    },
    {
      "inputs": [],
      "name": "vrfFees",
      "outputs": [
        {
          "internalType": "uint256",
          "name": "",
          "type": "uint256"
        }
      ],
      "stateMutability": "view",
      "type": "function"
    },
    {
      "inputs": [],
      "name": "vrfKeyHash",
      "outputs": [
        {
          "internalType": "bytes32",
          "name": "",
          "type": "bytes32"
        }
      ],
      "stateMutability": "view",
      "type": "function"
    }
  ],
  "bytecode": "0x60c06040523480156200001157600080fd5b506040516200605e3803806200605e833981016040819052620000349162000436565b8085858880620000448162000169565b506005805460ff191690556200006560006200005f62000182565b6200019f565b620000947f9f2df0fed2c77648de5860a4cc508cd0818c85b8b8a1ab4ceeef8d981c8956a66200005f62000182565b620000c37f65d7a28e3265b37a6474929f336521b332c1681b933f6cb9f3376673440d862a6200005f62000182565b506001600160601b0319606092831b811660a052911b16608052600880546001600160a01b039283166001600160a01b03199182161790915560098054928a1692909116919091179055600f839055600e82905585516200012c90600c90602089019062000383565b506200015c7f8502233096d909befbda0999bb8ea2f3a6be3c138b9fbf003752a4c8bce86f6c6200005f62000182565b50505050505050620005d5565b80516200017e90600490602084019062000383565b5050565b600062000199620001e260201b62001fa21760201c565b90505b90565b620001b682826200022260201b62001fd01760201c565b6000828152600160209081526040909120620001dd91839062001fda6200022e821b17901c565b505050565b6000620001ef336200024e565b1562000205575060131936013560601c6200019c565b6200021a6200026560201b62001fef1760201c565b90506200019c565b6200017e828262000269565b600062000245836001600160a01b038416620002f3565b90505b92915050565b6008546001600160a01b038281169116145b919050565b3390565b62000275828262000342565b6200017e576000828152602081815260408083206001600160a01b03851684529091529020805460ff19166001179055620002af62000182565b6001600160a01b0316816001600160a01b0316837f2f8788117e7eff1d82e926ec794901d17c78024a50270940304540a733656f0d60405160405180910390a45050565b60006200030183836200036b565b620003395750815460018181018455600084815260208082209093018490558454848252828601909352604090209190915562000248565b50600062000248565b6000918252602082815260408084206001600160a01b0393909316845291905290205460ff1690565b60009081526001919091016020526040902054151590565b828054620003919062000569565b90600052602060002090601f016020900481019282620003b5576000855562000400565b82601f10620003d057805160ff191683800117855562000400565b8280016001018555821562000400579182015b8281111562000400578251825591602001919060010190620003e3565b506200040e92915062000412565b5090565b5b808211156200040e576000815560010162000413565b80516200026081620005bc565b600080600080600080600060e0888a03121562000451578283fd5b87516200045e81620005bc565b602089810151919850906001600160401b03808211156200047d578586fd5b818b0191508b601f83011262000491578586fd5b815181811115620004a657620004a6620005a6565b604051601f8201601f1916810185018381118282101715620004cc57620004cc620005a6565b60405281815283820185018e1015620004e3578788fd5b8792505b81831015620005065783830185015181840186015291840191620004e7565b818311156200051757878583830101525b809a5050505050506200052d6040890162000429565b94506200053d6060890162000429565b93506080880151925060a088015191506200055b60c0890162000429565b905092959891949750929550565b6002810460018216806200057e57607f821691505b60208210811415620005a057634e487b7160e01b600052602260045260246000fd5b50919050565b634e487b7160e01b600052604160045260246000fd5b6001600160a01b0381168114620005d257600080fd5b50565b60805160601c60a05160601c615a486200061660003960008181611693015261233001526000818161108601528181611efa01526123010152615a486000f3fe608060405234801561001057600080fd5b506004361061036c5760003560e01c80638456cb59116101d3578063c0e7274011610104578063e8a3d485116100a2578063f242432a1161007c578063f242432a14610737578063f301af421461074a578063f5298aca1461075d578063f99b1d68146107705761036c565b8063e8a3d48514610709578063e985e9c514610711578063f23a6e61146107245761036c565b8063ca15c873116100de578063ca15c873146106d3578063d5391393146106e6578063d547741f146106ee578063e63ab1e9146107015761036c565b8063c0e72740146106c3578063c63adb2b146106cb578063c87b56dd146103c25761036c565b8063a217fddf11610171578063b277ca451161014b578063b277ca4514610668578063b84c13921461067b578063bc197c811461069d578063bd85b039146106b05761036c565b8063a217fddf1461062d578063a22cb46514610635578063ac9650d8146106485761036c565b80639010d07c116101ad5780639010d07c146105e157806391d14854146105f4578063938e3d7b1461060757806394985ddd1461061a5761036c565b80638456cb59146105a6578063895ec54c146105ae5780638ba448c2146105ce5761036c565b80632f2ff15d116102ad578063572b6c051161024b5780636b20c454116102255780636b20c45414610575578063731133e91461058857806375794a3c146105965780638423df791461059e5761036c565b8063572b6c05146105395780635c975abb1461054c5780635e619b78146105545761036c565b80634e1273f4116102875780634e1273f4146104d357806350a88c7e146104f3578063510b5158146105065780635318c48f146105265761036c565b80632f2ff15d146104a557806336568abe146104b85780633f4ba83a146104cb5761036c565b8063150b7a021161031a578063206b60f9116102f4578063206b60f914610456578063248a9ca31461045e5780632a55205a146104715780632eb2c2d6146104925761036c565b8063150b7a021461040e5780631f72d8311461042e5780631f7fdffa146104435761036c565b80630e89341c1161034b5780630e89341c146103c257806310983e57146103e257806310e34e67146103ea5761036c565b8062fdd58e1461037157806301ffc9a71461039a578063041d443e146103ba575b600080fd5b61038461037f3660046142af565b610783565b60405161039191906149c5565b60405180910390f35b6103ad6103a8366004614533565b6107df565b60405161039191906149ba565b61038461080a565b6103d56103d03660046144be565b610810565b6040516103919190614a37565b6103846108b2565b6103fd6103f83660046144be565b6108b8565b604051610391959493929190615658565b61042161041c3660046140b3565b610a82565b6040516103919190614a22565b61044161043c3660046144be565b610a92565b005b6104416104513660046141f7565b610bb1565b610384610bc9565b61038461046c3660046144be565b610bed565b61048461047f366004614512565b610c02565b6040516103919291906148d8565b6104416104a0366004614009565b610d42565b6104416104b33660046144ee565b610da0565b6104416104c63660046144ee565b610dc7565b610441610de9565b6104e66104e1366004614357565b610e3b565b6040516103919190614982565b6104416105013660046144be565b610f5b565b6105196105143660046144be565b6112b2565b60405161039191906147cb565b6103846105343660046144ee565b6112d0565b6103ad610547366004613f99565b6112ed565b6103ad611301565b6105676105623660046144be565b61130b565b6040516103919291906149ce565b610441610583366004614184565b61132d565b61044161045136600461430e565b610384611382565b6103ad611388565b610441611391565b6105c16105bc3660046144be565b6113e1565b6040516103919190615645565b6104416105dc366004614486565b6114b7565b6105196105ef366004614512565b61151e565b6103ad6106023660046144ee565b61153d565b61044161061536600461456b565b611566565b610441610628366004614512565b611688565b6103846116de565b610441610643366004614282565b6116e3565b61065b610656366004614417565b6117b1565b6040516103919190614922565b6104416106763660046144be565b6118d0565b61068e6106893660046144be565b6119eb565b60405161039193929190614a4a565b6104216106ab366004614009565b611a9f565b6103846106be3660046144be565b611b10565b6103d5611b22565b610384611bb0565b6103846106e13660046144be565b611bb6565b610384611bcd565b6104416106fc3660046144ee565b611bf1565b610384611bfb565b6103d5611c1f565b6103ad61071f366004613fd1565b611cb1565b61042161073236600461411d565b611cdf565b61044161074536600461411d565b611cf9565b6104846107583660046144be565b611d50565b61044161076b3660046142da565b611d75565b61044161077e3660046142af565b611dca565b60006001600160a01b0383166107b45760405162461bcd60e51b81526004016107ab90614c58565b60405180910390fd5b5060008181526002602090815260408083206001600160a01b03861684529091529020545b92915050565b60006107ea82611ff3565b806107d957506001600160e01b0319821663152a902d60e11b1492915050565b600f5481565b600081815260106020526040902080546060919061082d90615887565b80601f016020809104026020016040519081016040528092919081815260200182805461085990615887565b80156108a65780601f1061087b576101008083540402835291602001916108a6565b820191906000526020600020905b81548152906001019060200180831161088957829003601f168201915b50505050509050919050565b600e5481565b6108c0613d70565b600080606080601060008781526020019081526020016000206040518060600160405290816000820180546108f490615887565b80601f016020809104026020016040519081016040528092919081815260200182805461092090615887565b801561096d5780601f106109425761010080835404028352916020019161096d565b820191906000526020600020905b81548152906001019060200180831161095057829003601f168201915b505050918352505060018201546001600160a01b03166020820152600290910154604090910152945061099f86611b10565b6000878152601160209081526040918290208054600190910180548451818502810185019095528085529498506001600160a01b039091169650919290830182828015610a0b57602002820191906000526020600020905b8154815260200190600101908083116109f7575b5050505050915060116000878152602001908152602001600020600201805480602002602001604051908101604052809291908181526020018280548015610a7257602002820191906000526020600020905b815481526020019060010190808311610a5e575b5050505050905091939590929450565b630a85bd0160e11b949350505050565b610a9f6000610602611ffe565b610abb5760405162461bcd60e51b81526004016107ab90614f01565b600960009054906101000a90046001600160a01b03166001600160a01b031663fd967f476040518163ffffffff1660e01b815260040160206040518083038186803b158015610b0957600080fd5b505afa158015610b1d573d6000803e3d6000fd5b505050506040513d601f19601f82011682018060405250810190610b41919061464c565b6fffffffffffffffffffffffffffffffff168110610b715760405162461bcd60e51b81526004016107ab90614dea565b600b8190556040517f244ea8d7627f5a08f4299862bd5a45752842c183aee5b0fb0d1e4887bfa605b390610ba69083906149c5565b60405180910390a150565b60405162461bcd60e51b81526004016107ab906151c8565b7f8502233096d909befbda0999bb8ea2f3a6be3c138b9fbf003752a4c8bce86f6c81565b60009081526020819052604090206001015490565b60095460405163f2aab4b360e01b815260009182916001600160a01b039091169063f2aab4b390610c379030906004016147cb565b60206040518083038186803b158015610c4f57600080fd5b505afa158015610c63573d6000803e3d6000fd5b505050506040513d601f19601f82011682018060405250810190610c879190613fb5565b9150600960009054906101000a90046001600160a01b03166001600160a01b031663fd967f476040518163ffffffff1660e01b815260040160206040518083038186803b158015610cd757600080fd5b505afa158015610ceb573d6000803e3d6000fd5b505050506040513d601f19601f82011682018060405250810190610d0f919061464c565b6fffffffffffffffffffffffffffffffff16600b5484610d2f919061580e565b610d3991906157fa565b90509250929050565b610d4a611ffe565b6001600160a01b0316856001600160a01b03161480610d705750610d708561071f611ffe565b610d8c5760405162461bcd60e51b81526004016107ab90615011565b610d99858585858561200d565b5050505050565b610daa82826121e1565b6000828152600160205260409020610dc29082611fda565b505050565b610dd18282612205565b6000828152600160205260409020610dc29082612247565b610e157f65d7a28e3265b37a6474929f336521b332c1681b933f6cb9f3376673440d862a610602611ffe565b610e315760405162461bcd60e51b81526004016107ab9061531c565b610e3961225c565b565b60608151835114610e5e5760405162461bcd60e51b81526004016107ab90615490565b6000835167ffffffffffffffff811115610e8857634e487b7160e01b600052604160045260246000fd5b604051908082528060200260200182016040528015610eb1578160200160208202803683370190505b50905060005b8451811015610f5357610f18858281518110610ee357634e487b7160e01b600052603260045260246000fd5b6020026020010151858381518110610f0b57634e487b7160e01b600052603260045260246000fd5b6020026020010151610783565b828281518110610f3857634e487b7160e01b600052603260045260246000fd5b6020908102919091010152610f4c816158bc565b9050610eb7565b509392505050565b610f63611301565b15610f805760405162461bcd60e51b81526004016107ab90614f95565b600081815260106020526040808220815160608101909252805482908290610fa790615887565b80601f0160208091040260200160405190810160405280929190818152602001828054610fd390615887565b80156110205780601f10610ff557610100808354040283529160200191611020565b820191906000526020600020905b81548152906001019060200180831161100357829003601f168201915b505050918352505060018201546001600160a01b0316602082015260029091015460409182015281015190915042101561106c5760405162461bcd60e51b81526004016107ab90614bc4565b600e546040516370a0823160e01b81526001600160a01b037f000000000000000000000000000000000000000000000000000000000000000016906370a08231906110bb9030906004016147cb565b60206040518083038186803b1580156110d357600080fd5b505afa1580156110e7573d6000803e3d6000fd5b505050506040513d601f19601f8201168201806040525081019061110b91906144d6565b10156111295760405162461bcd60e51b81526004016107ab90614e47565b600061113c611136611ffe565b84610783565b116111595760405162461bcd60e51b81526004016107ab906153d6565b600082815260136020526040812090611170611ffe565b6001600160a01b03168152602081019190915260400160002054156111a75760405162461bcd60e51b81526004016107ab90614f38565b6111ba6111b2611ffe565b8360016122ca565b60006111ca600f54600e546122fd565b905060405180604001604052808481526020016111e5611ffe565b6001600160a01b03908116909152600083815260126020908152604080832085518155948201516001909501805473ffffffffffffffffffffffffffffffffffffffff191695909416949094179092558581526013909152908120829161124a611ffe565b6001600160a01b0316815260208101919091526040016000205561126c611ffe565b6001600160a01b0316837fb5c27afec62496e403fae78e07136ae7c58425e8128c7b680ea24dee8c8d9401836040516112a591906149c5565b60405180910390a3505050565b6000908152601060205260409020600101546001600160a01b031690565b601360209081526000928352604080842090915290825290205481565b6008546001600160a01b0390811691161490565b60055460ff165b90565b601260205260009081526040902080546001909101546001600160a01b031682565b611335611ffe565b6001600160a01b0316836001600160a01b0316148061135b575061135b8361071f611ffe565b6113775760405162461bcd60e51b81526004016107ab90614d56565b610dc2838383612440565b600a5481565b600d5460ff1681565b6113bd7f65d7a28e3265b37a6474929f336521b332c1681b933f6cb9f3376673440d862a610602611ffe565b6113d95760405162461bcd60e51b81526004016107ab90615379565b610e396124e4565b6113e9613d70565b6000828152601060205260409081902081516060810190925280548290829061141190615887565b80601f016020809104026020016040519081016040528092919081815260200182805461143d90615887565b801561148a5780601f1061145f5761010080835404028352916020019161148a565b820191906000526020600020905b81548152906001019060200180831161146d57829003601f168201915b505050918352505060018201546001600160a01b0316602082015260029091015460409091015292915050565b6114c46000610602611ffe565b6114e05760405162461bcd60e51b81526004016107ab90614f01565b600d805460ff19168215151790556040517ffb4ba02cee22486df888d7ffb97c6100ec3193781e025cb9a4bc6fc358d626cc90610ba69083906149ba565b6000828152600160205260408120611536908361253f565b9392505050565b6000918252602082815260408084206001600160a01b0393909316845291905290205460ff1690565b6009546040805163a217fddf60e01b815290516001600160a01b03909216916391d1485491839163a217fddf91600480820192602092909190829003018186803b1580156115b357600080fd5b505afa1580156115c7573d6000803e3d6000fd5b505050506040513d601f19601f820116820180604052508101906115eb91906144d6565b6115f3611ffe565b6040518363ffffffff1660e01b81526004016116109291906149ce565b60206040518083038186803b15801561162857600080fd5b505afa15801561163c573d6000803e3d6000fd5b505050506040513d601f19601f8201168201806040525081019061166091906144a2565b61167c5760405162461bcd60e51b81526004016107ab90614b67565b610dc2600c8383613d9a565b336001600160a01b037f000000000000000000000000000000000000000000000000000000000000000016146116d05760405162461bcd60e51b81526004016107ab9061520b565b6116da828261254b565b5050565b600081565b816001600160a01b03166116f5611ffe565b6001600160a01b0316141561171c5760405162461bcd60e51b81526004016107ab90615433565b8060036000611729611ffe565b6001600160a01b03908116825260208083019390935260409182016000908120918716808252919093529120805460ff19169215159290921790915561176d611ffe565b6001600160a01b03167f17307eab39ab6107e8899845ad3d59bd9653f200f220920489ca2b5937696c31836040516117a591906149ba565b60405180910390a35050565b60608167ffffffffffffffff8111156117da57634e487b7160e01b600052604160045260246000fd5b60405190808252806020026020018201604052801561180d57816020015b60608152602001906001900390816117f85790505b50905060005b828110156118c95761188b3085858481811061183f57634e487b7160e01b600052603260045260246000fd5b90506020028101906118519190615720565b8080601f01602080910402602001604051908101604052809392919081815260200183838082843760009201919091525061274492505050565b8282815181106118ab57634e487b7160e01b600052603260045260246000fd5b602002602001018190525080806118c1906158bc565b915050611813565b5092915050565b6009546040805163a217fddf60e01b815290516001600160a01b03909216916391d1485491839163a217fddf91600480820192602092909190829003018186803b15801561191d57600080fd5b505afa158015611931573d6000803e3d6000fd5b505050506040513d601f19601f8201168201806040525081019061195591906144d6565b61195d611ffe565b6040518363ffffffff1660e01b815260040161197a9291906149ce565b60206040518083038186803b15801561199257600080fd5b505afa1580156119a6573d6000803e3d6000fd5b505050506040513d601f19601f820116820180604052508101906119ca91906144a2565b6119e65760405162461bcd60e51b81526004016107ab90614b67565b600e55565b601060205260009081526040902080548190611a0690615887565b80601f0160208091040260200160405190810160405280929190818152602001828054611a3290615887565b8015611a7f5780601f10611a5457610100808354040283529160200191611a7f565b820191906000526020600020905b815481529060010190602001808311611a6257829003601f168201915b50505050600183015460029093015491926001600160a01b031691905083565b6000611aa9611301565b15611ac65760405162461bcd60e51b81526004016107ab90614f95565b600080600084806020019051810190611adf91906145c6565b925092509250611afb8984611af2611ffe565b8a8a8787612769565b5063bc197c8160e01b98975050505050505050565b60009081526006602052604090205490565b600c8054611b2f90615887565b80601f0160208091040260200160405190810160405280929190818152602001828054611b5b90615887565b8015611ba85780601f10611b7d57610100808354040283529160200191611ba8565b820191906000526020600020905b815481529060010190602001808311611b8b57829003601f168201915b505050505081565b600b5481565b60008181526001602052604081206107d990612a7e565b7f9f2df0fed2c77648de5860a4cc508cd0818c85b8b8a1ab4ceeef8d981c8956a681565b610dd18282612a89565b7f65d7a28e3265b37a6474929f336521b332c1681b933f6cb9f3376673440d862a81565b6060600c8054611c2e90615887565b80601f0160208091040260200160405190810160405280929190818152602001828054611c5a90615887565b8015611ca75780601f10611c7c57610100808354040283529160200191611ca7565b820191906000526020600020905b815481529060010190602001808311611c8a57829003601f168201915b5050505050905090565b6001600160a01b03918216600090815260036020908152604080832093909416825291909152205460ff1690565b600060405162461bcd60e51b81526004016107ab90615242565b611d01611ffe565b6001600160a01b0316856001600160a01b03161480611d275750611d278561071f611ffe565b611d435760405162461bcd60e51b81526004016107ab90614d56565b610d998585858585612aa8565b601160205260009081526040902080546003909101546001600160a01b039091169082565b611d7d611ffe565b6001600160a01b0316836001600160a01b03161480611da35750611da38361071f611ffe565b611dbf5760405162461bcd60e51b81526004016107ab90614d56565b610dc28383836122ca565b6009546040805163a217fddf60e01b815290516001600160a01b03909216916391d1485491839163a217fddf91600480820192602092909190829003018186803b158015611e1757600080fd5b505afa158015611e2b573d6000803e3d6000fd5b505050506040513d601f19601f82011682018060405250810190611e4f91906144d6565b611e57611ffe565b6040518363ffffffff1660e01b8152600401611e749291906149ce565b60206040518083038186803b158015611e8c57600080fd5b505afa158015611ea0573d6000803e3d6000fd5b505050506040513d601f19601f82011682018060405250810190611ec491906144a2565b611ee05760405162461bcd60e51b81526004016107ab90614b67565b60405163a9059cbb60e01b81526000906001600160a01b037f0000000000000000000000000000000000000000000000000000000000000000169063a9059cbb90611f3190869086906004016148d8565b602060405180830381600087803b158015611f4b57600080fd5b505af1158015611f5f573d6000803e3d6000fd5b505050506040513d601f19601f82011682018060405250810190611f8391906144a2565b905080610dc25760405162461bcd60e51b81526004016107ab90614db3565b6000611fad336112ed565b15611fc1575060131936013560601c611308565b611fc9611fef565b9050611308565b6116da8282612bef565b6000611536836001600160a01b038416612c74565b3390565b60006107d982612cbe565b6000612008611fa2565b905090565b815183511461202e5760405162461bcd60e51b81526004016107ab906154ed565b6001600160a01b0384166120545760405162461bcd60e51b81526004016107ab90614fcc565b600061205e611ffe565b905061206e818787878787612ce3565b60005b845181101561217357600085828151811061209c57634e487b7160e01b600052603260045260246000fd5b6020026020010151905060008583815181106120c857634e487b7160e01b600052603260045260246000fd5b60209081029190910181015160008481526002835260408082206001600160a01b038e1683529093529190912054909150818110156121195760405162461bcd60e51b81526004016107ab9061510e565b60008381526002602090815260408083206001600160a01b038e8116855292528083208585039055908b168252812080548492906121589084906157e2565b925050819055505050508061216c906158bc565b9050612071565b50846001600160a01b0316866001600160a01b0316826001600160a01b03167f4a39dc06d4c0dbc64b70af90fd698a233a518aa5d07e595d983b8c0526c8f7fb87876040516121c3929190614995565b60405180910390a46121d9818787878787612d9a565b505050505050565b6121ea82610bed565b6121fb816121f6611ffe565b612ea8565b610dc28383612bef565b61220d611ffe565b6001600160a01b0316816001600160a01b03161461223d5760405162461bcd60e51b81526004016107ab906155e8565b6116da8282612f0c565b6000611536836001600160a01b038416612f8f565b612264611301565b6122805760405162461bcd60e51b81526004016107ab90614c21565b6005805460ff191690557f5db9ee0a495bf2e6ff9c91a7834c1ba4fdd244a5e8aa4e537bd38aeae4b073aa6122b3611ffe565b6040516122c091906147cb565b60405180910390a1565b6122d58383836130ac565b600082815260066020526040812080548392906122f390849061582d565b9091555050505050565b60007f00000000000000000000000000000000000000000000000000000000000000006001600160a01b0316634000aea07f000000000000000000000000000000000000000000000000000000000000000084866000604051602001612364929190614720565b6040516020818303038152906040526040518463ffffffff1660e01b8152600401612391939291906148f1565b602060405180830381600087803b1580156123ab57600080fd5b505af11580156123bf573d6000803e3d6000fd5b505050506040513d601f19601f820116820180604052508101906123e391906144a2565b50600083815260076020526040812054612402908590839030906131bf565b60008581526007602052604090205490915061241f9060016157e2565b60008581526007602052604090205561243884826131f9565b949350505050565b61244b83838361322c565b60005b82518110156124de5781818151811061247757634e487b7160e01b600052603260045260246000fd5b6020026020010151600660008584815181106124a357634e487b7160e01b600052603260045260246000fd5b6020026020010151815260200190815260200160002060008282546124c8919061582d565b909155506124d79050816158bc565b905061244e565b50505050565b6124ec611301565b156125095760405162461bcd60e51b81526004016107ab90614f95565b6005805460ff191660011790557f62e78cea01bee320cd4e420270b5ea74000d11b0c9f74754ebdbfc544b05a2586122b3611ffe565b600061153683836133e0565b60008281526012602090815260408083208151808301835281548082526001928301546001600160a01b039081168387018190528288526013875285882081895287528588208890558288526011875285882086516080810188528154909316835294850180548751818a0281018a0190985280885294989397919693959294929385830193909283018282801561260257602002820191906000526020600020905b8154815260200190600101908083116125ee575b505050505081526020016002820180548060200260200160405190810160405280929190818152602001828054801561265a57602002820191906000526020600020905b815481526020019060010190808311612646575b50505050508152602001600382015481525050905060008061267d858885613418565b8451604051631759616b60e11b81529294509092506001600160a01b031690632eb2c2d6906126b690309088908790879060040161483d565b600060405180830381600087803b1580156126d057600080fd5b505af11580156126e4573d6000803e3d6000fd5b5050505082600001516001600160a01b0316846001600160a01b0316867f9cae8e743935573869e2fe7223782448d71211235c93076166106782de1c234f8b866040516127329291906149e5565b60405180910390a45050505050505050565b60606115368383604051806060016040528060278152602001615a1560279139613726565b612771611301565b1561278e5760405162461bcd60e51b81526004016107ab90614f95565b6040516301ffc9a760e01b81526001600160a01b038616906301ffc9a7906127c190636cdb3d1360e11b90600401614a22565b60206040518083038186803b1580156127d957600080fd5b505afa1580156127ed573d6000803e3d6000fd5b505050506040513d601f19601f8201168201806040525081019061281191906144a2565b61282d5760405162461bcd60e51b81526004016107ab9061558b565b6128577f9f2df0fed2c77648de5860a4cc508cd0818c85b8b8a1ab4ceeef8d981c8956a68861153d565b6128735760405162461bcd60e51b81526004016107ab90615279565b60008451116128945760405162461bcd60e51b81526004016107ab9061506e565b600061289f846137c2565b90506128ab82826158d7565b156128c85760405162461bcd60e51b81526004016107ab90614ea4565b60006128d261381c565b905060006128e084846157fa565b9050600060405180606001604052808b81526020018c6001600160a01b03168152602001874261291091906157e2565b9052604080516080810182526001600160a01b038c16815260208082018c90528183018b9052606082018990526000878152601082529290922083518051949550919385939192612965928492910190613e1e565b50602082810151600180840180546001600160a01b0393841673ffffffffffffffffffffffffffffffffffffffff1991821617909155604095860151600290950194909455600089815260118452949094208551815492169190931617825583810151805185946129db93908501920190613e92565b50604082015180516129f7916002840191602090910190613e92565b5060608201518160030155905050612a208c85856040518060200160405280600081525061383a565b8b6001600160a01b03168a6001600160a01b0316857fd12628277f61a6acc1f051914551d13cdd8d117e3a5ce322869300fda84be712868686604051612a68939291906156a6565b60405180910390a4505050505050505050505050565b60006107d98261386f565b612a9282610bed565b612a9e816121f6611ffe565b610dc28383612f0c565b6001600160a01b038416612ace5760405162461bcd60e51b81526004016107ab90614fcc565b6000612ad8611ffe565b9050612af8818787612ae988613873565b612af288613873565b87612ce3565b60008481526002602090815260408083206001600160a01b038a16845290915290205483811015612b3b5760405162461bcd60e51b81526004016107ab9061510e565b60008581526002602090815260408083206001600160a01b038b8116855292528083208785039055908816825281208054869290612b7a9084906157e2565b92505081905550856001600160a01b0316876001600160a01b0316836001600160a01b03167fc3d58168c5ae7397731d063d5bbf3d657854427343f4c083240f7aacaa2d0f628888604051612bd0929190614720565b60405180910390a4612be68288888888886138cc565b50505050505050565b612bf9828261153d565b6116da576000828152602081815260408083206001600160a01b03851684529091529020805460ff19166001179055612c30611ffe565b6001600160a01b0316816001600160a01b0316837f2f8788117e7eff1d82e926ec794901d17c78024a50270940304540a733656f0d60405160405180910390a45050565b6000612c80838361399d565b612cb6575081546001818101845560008481526020808220909301849055845484825282860190935260409020919091556107d9565b5060006107d9565b60006001600160e01b03198216630271189760e51b14806107d957506107d9826139b5565b612cf18686868686866139f5565b600d5460ff168015612d0b57506001600160a01b03851615155b8015612d1f57506001600160a01b03841615155b156121d957612d4e7f8502233096d909befbda0999bb8ea2f3a6be3c138b9fbf003752a4c8bce86f6c8661153d565b80612d7e5750612d7e7f8502233096d909befbda0999bb8ea2f3a6be3c138b9fbf003752a4c8bce86f6c8561153d565b6121d95760405162461bcd60e51b81526004016107ab9061516b565b612dac846001600160a01b0316613a03565b156121d95760405163bc197c8160e01b81526001600160a01b0385169063bc197c8190612de590899089908890889088906004016147df565b602060405180830381600087803b158015612dff57600080fd5b505af1925050508015612e2f575060408051601f3d908101601f19168201909252612e2c9181019061454f565b60015b612e7857612e3b615933565b80612e465750612e60565b8060405162461bcd60e51b81526004016107ab9190614a37565b60405162461bcd60e51b81526004016107ab90614a78565b6001600160e01b0319811663bc197c8160e01b14612be65760405162461bcd60e51b81526004016107ab90614b0a565b612eb2828261153d565b6116da57612eca816001600160a01b03166014613a09565b612ed5836020613a09565b604051602001612ee692919061474a565b60408051601f198184030181529082905262461bcd60e51b82526107ab91600401614a37565b612f16828261153d565b156116da576000828152602081815260408083206001600160a01b03851684529091529020805460ff19169055612f4b611ffe565b6001600160a01b0316816001600160a01b0316837ff6391f5c32d9c69d2a47ea670b442974b53935d1edc7fd64eb21e047a839171b60405160405180910390a45050565b600081815260018301602052604081205480156130a2576000612fb360018361582d565b8554909150600090612fc79060019061582d565b9050818114613048576000866000018281548110612ff557634e487b7160e01b600052603260045260246000fd5b906000526020600020015490508087600001848154811061302657634e487b7160e01b600052603260045260246000fd5b6000918252602080832090910192909255918252600188019052604090208390555b855486908061306757634e487b7160e01b600052603160045260246000fd5b6001900381819060005260206000200160009055905585600101600086815260200190815260200160002060009055600193505050506107d9565b60009150506107d9565b6001600160a01b0383166130d25760405162461bcd60e51b81526004016107ab906150cb565b60006130dc611ffe565b905061310c818560006130ee87613873565b6130f787613873565b60405180602001604052806000815250612ce3565b60008381526002602090815260408083206001600160a01b03881684529091529020548281101561314f5760405162461bcd60e51b81526004016107ab90614cb5565b60008481526002602090815260408083206001600160a01b03808a16808652919093528184208786039055905190918516907fc3d58168c5ae7397731d063d5bbf3d657854427343f4c083240f7aacaa2d0f62906131b09089908990614720565b60405180910390a45050505050565b6000848484846040516020016131d894939291906149fe565b60408051601f19818403018152919052805160209091012095945050505050565b6000828260405160200161320e929190614720565b60405160208183030381529060405280519060200120905092915050565b6001600160a01b0383166132525760405162461bcd60e51b81526004016107ab906150cb565b80518251146132735760405162461bcd60e51b81526004016107ab906154ed565b600061327d611ffe565b905061329d81856000868660405180602001604052806000815250612ce3565b60005b83518110156133815760008482815181106132cb57634e487b7160e01b600052603260045260246000fd5b6020026020010151905060008483815181106132f757634e487b7160e01b600052603260045260246000fd5b60209081029190910181015160008481526002835260408082206001600160a01b038c1683529093529190912054909150818110156133485760405162461bcd60e51b81526004016107ab90614cb5565b60009283526002602090815260408085206001600160a01b038b1686529091529092209103905580613379816158bc565b9150506132a0565b5060006001600160a01b0316846001600160a01b0316826001600160a01b03167f4a39dc06d4c0dbc64b70af90fd698a233a518aa5d07e595d983b8c0526c8f7fb86866040516133d2929190614995565b60405180910390a450505050565b600082600001828154811061340557634e487b7160e01b600052603260045260246000fd5b9060005260206000200154905092915050565b606080600061342a84604001516137c2565b9050600080856060015167ffffffffffffffff81111561345a57634e487b7160e01b600052604160045260246000fd5b604051908082528060200260200182016040528015613483578160200160208202803683370190505b509450856060015167ffffffffffffffff8111156134b157634e487b7160e01b600052604160045260246000fd5b6040519080825280602002602001820160405280156134da578160200160208202803683370190505b50935060005b866060015181101561369d57838882604051602001613500929190614720565b6040516020818303038152906040528051906020012060001c61352391906158d7565b915060005b87602001515181101561368a57838860400151828151811061355a57634e487b7160e01b600052603260045260246000fd5b602002602001015161356c91906157e2565b83101561363f578760200151818151811061359757634e487b7160e01b600052603260045260246000fd5b60200260200101518783815181106135bf57634e487b7160e01b600052603260045260246000fd5b60200260200101818152505060018683815181106135ed57634e487b7160e01b600052603260045260246000fd5b60200260200101818152505060018860400151828151811061361f57634e487b7160e01b600052603260045260246000fd5b60200260200101818151613633919061582d565b9052506000935061368a565b8760400151818151811061366357634e487b7160e01b600052603260045260246000fd5b60200260200101518461367691906157e2565b93506136836001826157e2565b9050613528565b506136966001826157e2565b90506134e0565b5060008881526011602090815260409091208751815473ffffffffffffffffffffffffffffffffffffffff19166001600160a01b0390911617815587820151805189936136f1926001850192910190613e92565b506040820151805161370d916002840191602090910190613e92565b5060608201518160030155905050505050935093915050565b606061373184613a03565b61374d5760405162461bcd60e51b81526004016107ab906152d6565b600080856001600160a01b031685604051613768919061472e565b600060405180830381855af49150503d80600081146137a3576040519150601f19603f3d011682016040523d82523d6000602084013e6137a8565b606091505b50915091506137b8828286613bc8565b9695505050505050565b6000805b8251811015613816578281815181106137ef57634e487b7160e01b600052603260045260246000fd5b60200260200101518261380291906157e2565b915061380f6001826157e2565b90506137c6565b50919050565b600a805490600190600061383083856157e2565b9250508190555090565b61384684848484613c01565b600083815260066020526040812080548492906138649084906157e2565b909155505050505050565b5490565b604080516001808252818301909252606091600091906020808301908036833701905050905082816000815181106138bb57634e487b7160e01b600052603260045260246000fd5b602090810291909101015292915050565b6138de846001600160a01b0316613a03565b156121d95760405163f23a6e6160e01b81526001600160a01b0385169063f23a6e61906139179089908990889088908890600401614895565b602060405180830381600087803b15801561393157600080fd5b505af1925050508015613961575060408051601f3d908101601f1916820190925261395e9181019061454f565b60015b61396d57612e3b615933565b6001600160e01b0319811663f23a6e6160e01b14612be65760405162461bcd60e51b81526004016107ab90614b0a565b60009081526001919091016020526040902054151590565b60006001600160e01b03198216636cdb3d1360e11b14806139e657506001600160e01b031982166303a24d0760e21b145b806107d957506107d982613ce3565b6121d9868686868686613d08565b3b151590565b60606000613a1883600261580e565b613a239060026157e2565b67ffffffffffffffff811115613a4957634e487b7160e01b600052604160045260246000fd5b6040519080825280601f01601f191660200182016040528015613a73576020820181803683370190505b509050600360fc1b81600081518110613a9c57634e487b7160e01b600052603260045260246000fd5b60200101906001600160f81b031916908160001a905350600f60fb1b81600181518110613ad957634e487b7160e01b600052603260045260246000fd5b60200101906001600160f81b031916908160001a9053506000613afd84600261580e565b613b089060016157e2565b90505b6001811115613ba9577f303132333435363738396162636465660000000000000000000000000000000085600f1660108110613b5757634e487b7160e01b600052603260045260246000fd5b1a60f81b828281518110613b7b57634e487b7160e01b600052603260045260246000fd5b60200101906001600160f81b031916908160001a90535060049490941c93613ba281615870565b9050613b0b565b5083156115365760405162461bcd60e51b81526004016107ab90614ad5565b60608315613bd7575081611536565b825115613be75782518084602001fd5b8160405162461bcd60e51b81526004016107ab9190614a37565b6001600160a01b038416613c275760405162461bcd60e51b81526004016107ab9061554a565b6000613c31611ffe565b9050613c4381600087612ae988613873565b60008481526002602090815260408083206001600160a01b038916845290915281208054859290613c759084906157e2565b92505081905550846001600160a01b031660006001600160a01b0316826001600160a01b03167fc3d58168c5ae7397731d063d5bbf3d657854427343f4c083240f7aacaa2d0f628787604051613ccc929190614720565b60405180910390a4610d99816000878787876138cc565b60006001600160e01b03198216635a05180f60e01b14806107d957506107d982613d3b565b613d168686868686866121d9565b613d1e611301565b156121d95760405162461bcd60e51b81526004016107ab90614cf9565b60006001600160e01b03198216637965db0b60e01b14806107d957506301ffc9a760e01b6001600160e01b03198316146107d9565b60405180606001604052806060815260200160006001600160a01b03168152602001600081525090565b828054613da690615887565b90600052602060002090601f016020900481019282613dc85760008555613e0e565b82601f10613de15782800160ff19823516178555613e0e565b82800160010185558215613e0e579182015b82811115613e0e578235825591602001919060010190613df3565b50613e1a929150613ecc565b5090565b828054613e2a90615887565b90600052602060002090601f016020900481019282613e4c5760008555613e0e565b82601f10613e6557805160ff1916838001178555613e0e565b82800160010185558215613e0e579182015b82811115613e0e578251825591602001919060010190613e77565b828054828255906000526020600020908101928215613e0e5791602002820182811115613e0e578251825591602001919060010190613e77565b5b80821115613e1a5760008155600101613ecd565b600082601f830112613ef1578081fd5b81356020613f06613f0183615796565b61576c565b8281528181019085830183850287018401881015613f22578586fd5b855b85811015613f4057813584529284019290840190600101613f24565b5090979650505050505050565b600082601f830112613f5d578081fd5b8135613f6b613f01826157ba565b818152846020838601011115613f7f578283fd5b816020850160208301379081016020019190915292915050565b600060208284031215613faa578081fd5b8135611536816159d8565b600060208284031215613fc6578081fd5b8151611536816159d8565b60008060408385031215613fe3578081fd5b8235613fee816159d8565b91506020830135613ffe816159d8565b809150509250929050565b600080600080600060a08688031215614020578081fd5b853561402b816159d8565b9450602086013561403b816159d8565b9350604086013567ffffffffffffffff80821115614057578283fd5b61406389838a01613ee1565b94506060880135915080821115614078578283fd5b61408489838a01613ee1565b93506080880135915080821115614099578283fd5b506140a688828901613f4d565b9150509295509295909350565b600080600080608085870312156140c8578384fd5b84356140d3816159d8565b935060208501356140e3816159d8565b925060408501359150606085013567ffffffffffffffff811115614105578182fd5b61411187828801613f4d565b91505092959194509250565b600080600080600060a08688031215614134578283fd5b853561413f816159d8565b9450602086013561414f816159d8565b93506040860135925060608601359150608086013567ffffffffffffffff811115614178578182fd5b6140a688828901613f4d565b600080600060608486031215614198578081fd5b83356141a3816159d8565b9250602084013567ffffffffffffffff808211156141bf578283fd5b6141cb87838801613ee1565b935060408601359150808211156141e0578283fd5b506141ed86828701613ee1565b9150509250925092565b6000806000806080858703121561420c578182fd5b8435614217816159d8565b9350602085013567ffffffffffffffff80821115614233578384fd5b61423f88838901613ee1565b94506040870135915080821115614254578384fd5b61426088838901613ee1565b93506060870135915080821115614275578283fd5b5061411187828801613f4d565b60008060408385031215614294578182fd5b823561429f816159d8565b91506020830135613ffe816159f0565b600080604083850312156142c1578182fd5b82356142cc816159d8565b946020939093013593505050565b6000806000606084860312156142ee578081fd5b83356142f9816159d8565b95602085013595506040909401359392505050565b60008060008060808587031215614323578182fd5b843561432e816159d8565b93506020850135925060408501359150606085013567ffffffffffffffff811115614105578182fd5b60008060408385031215614369578182fd5b823567ffffffffffffffff80821115614380578384fd5b818501915085601f830112614393578384fd5b813560206143a3613f0183615796565b82815281810190858301838502870184018b10156143bf578889fd5b8896505b848710156143ea5780356143d6816159d8565b8352600196909601959183019183016143c3565b5096505086013592505080821115614400578283fd5b5061440d85828601613ee1565b9150509250929050565b60008060208385031215614429578182fd5b823567ffffffffffffffff80821115614440578384fd5b818501915085601f830112614453578384fd5b813581811115614461578485fd5b8660208083028501011115614474578485fd5b60209290920196919550909350505050565b600060208284031215614497578081fd5b8135611536816159f0565b6000602082840312156144b3578081fd5b8151611536816159f0565b6000602082840312156144cf578081fd5b5035919050565b6000602082840312156144e7578081fd5b5051919050565b60008060408385031215614500578182fd5b823591506020830135613ffe816159d8565b60008060408385031215614524578182fd5b50508035926020909101359150565b600060208284031215614544578081fd5b8135611536816159fe565b600060208284031215614560578081fd5b8151611536816159fe565b6000806020838503121561457d578182fd5b823567ffffffffffffffff80821115614594578384fd5b818501915085601f8301126145a7578384fd5b8135818111156145b5578485fd5b866020828501011115614474578485fd5b6000806000606084860312156145da578081fd5b835167ffffffffffffffff8111156145f0578182fd5b8401601f81018613614600578182fd5b805161460e613f01826157ba565b818152876020838501011115614622578384fd5b614633826020830160208601615844565b6020870151604090970151909896975095945050505050565b60006020828403121561465d578081fd5b81516fffffffffffffffffffffffffffffffff81168114611536578182fd5b6000815180845260208085019450808401835b838110156146ab5781518752958201959082019060010161468f565b509495945050505050565b600081518084526146ce816020860160208601615844565b601f01601f19169290920160200192915050565b60008151606084526146f760608501826146b6565b90506001600160a01b036020840151166020850152604083015160408501528091505092915050565b918252602082015260400190565b60008251614740818460208701615844565b9190910192915050565b60007f416363657373436f6e74726f6c3a206163636f756e742000000000000000000082528351614782816017850160208801615844565b7f206973206d697373696e6720726f6c652000000000000000000000000000000060179184019182015283516147bf816028840160208801615844565b01602801949350505050565b6001600160a01b0391909116815260200190565b60006001600160a01b03808816835280871660208401525060a0604083015261480b60a083018661467c565b828103606084015261481d818661467c565b9050828103608084015261483181856146b6565b98975050505050505050565b60006001600160a01b03808716835280861660208401525060a0604083015261486960a083018561467c565b828103606084015261487b818561467c565b838103608090940193909352508152602001949350505050565b60006001600160a01b03808816835280871660208401525084604083015283606083015260a060808301526148cd60a08301846146b6565b979650505050505050565b6001600160a01b03929092168252602082015260400190565b60006001600160a01b03851682528360208301526060604083015261491960608301846146b6565b95945050505050565b6000602080830181845280855180835260408601915060408482028701019250838701855b8281101561497557603f198886030184526149638583516146b6565b94509285019290850190600101614947565b5092979650505050505050565b600060208252611536602083018461467c565b6000604082526149a8604083018561467c565b8281036020840152614919818561467c565b901515815260200190565b90815260200190565b9182526001600160a01b0316602082015260400190565b600083825260406020830152612438604083018461467c565b93845260208401929092526001600160a01b03166040830152606082015260800190565b6001600160e01b031991909116815260200190565b60006020825261153660208301846146b6565b600060608252614a5d60608301866146b6565b6001600160a01b039490941660208301525060400152919050565b60208082526034908201527f455243313135353a207472616e7366657220746f206e6f6e204552433131353560408201527f526563656976657220696d706c656d656e746572000000000000000000000000606082015260800190565b6020808252818101527f537472696e67733a20686578206c656e67746820696e73756666696369656e74604082015260600190565b60208082526028908201527f455243313135353a204552433131353552656365697665722072656a6563746560408201527f6420746f6b656e73000000000000000000000000000000000000000000000000606082015260800190565b60208082526033908201527f5061636b3a206f6e6c7920612070726f746f636f6c2061646d696e2063616e2060408201527f63616c6c20746869732066756e6374696f6e2e00000000000000000000000000606082015260800190565b60208082526039908201527f5061636b3a207468652077696e646f7720746f206f70656e207061636b73206860408201527f6173206e6f742073746172746564206f7220636c6f7365642e00000000000000606082015260800190565b60208082526014908201527f5061757361626c653a206e6f7420706175736564000000000000000000000000604082015260600190565b6020808252602b908201527f455243313135353a2062616c616e636520717565727920666f7220746865207a60408201527f65726f2061646472657373000000000000000000000000000000000000000000606082015260800190565b60208082526024908201527f455243313135353a206275726e20616d6f756e7420657863656564732062616c604082015263616e636560e01b606082015260800190565b6020808252602c908201527f455243313135355061757361626c653a20746f6b656e207472616e736665722060408201527f7768696c65207061757365640000000000000000000000000000000000000000606082015260800190565b60208082526029908201527f455243313135353a2063616c6c6572206973206e6f74206f776e6572206e6f7260408201527f20617070726f7665640000000000000000000000000000000000000000000000606082015260800190565b6020808252601e908201527f5061636b3a204661696c656420746f207472616e73666572204c494e4b2e0000604082015260600190565b6020808252602b908201527f5061636b3a204270732070726f7669646564206d757374206265206c6573732060408201527f7468616e2031302c303030000000000000000000000000000000000000000000606082015260800190565b60208082526034908201527f5061636b3a204e6f7420656e6f756768204c494e4b20746f2066756c66696c6c60408201527f2072616e646f6d6e65737320726571756573742e000000000000000000000000606082015260800190565b60208082526029908201527f5061636b3a20696e76616c6964206e756d626572206f6620726577617264732060408201527f706572206f70656e2e0000000000000000000000000000000000000000000000606082015260800190565b60208082526016908201527f6f6e6c79206d6f64756c652061646d696e20726f6c6500000000000000000000604082015260600190565b60208082526032908201527f5061636b3a206d757374207761697420666f72207468652070656e64696e672060408201527f7061636b20746f206265206f70656e65642e0000000000000000000000000000606082015260800190565b60208082526010908201527f5061757361626c653a2070617573656400000000000000000000000000000000604082015260600190565b60208082526025908201527f455243313135353a207472616e7366657220746f20746865207a65726f206164604082015264647265737360d81b606082015260800190565b60208082526032908201527f455243313135353a207472616e736665722063616c6c6572206973206e6f742060408201527f6f776e6572206e6f7220617070726f7665640000000000000000000000000000606082015260800190565b60208082526032908201527f5061636b3a204d757374206372656174652061207061636b207769746820617460408201527f206c65617374206f6e65207265776172642e0000000000000000000000000000606082015260800190565b60208082526023908201527f455243313135353a206275726e2066726f6d20746865207a65726f206164647260408201526265737360e81b606082015260800190565b6020808252602a908201527f455243313135353a20696e73756666696369656e742062616c616e636520666f60408201527f72207472616e7366657200000000000000000000000000000000000000000000606082015260800190565b60208082526037908201527f5061636b3a205472616e7366657273206172652072657374726963746564207460408201527f6f205452414e534645525f524f4c4520686f6c64657273000000000000000000606082015260800190565b60208082526023908201527f5061636b3a2063616e6e6f7420667265656c79206d696e74206d6f7265207061604082015262636b7360e81b606082015260800190565b6020808252601f908201527f4f6e6c7920565246436f6f7264696e61746f722063616e2066756c66696c6c00604082015260600190565b6020808252601e908201527f5061636b3a204d75737420757365206261746368207472616e736665722e0000604082015260600190565b6020808252603c908201527f5061636b3a204f6e6c79206163636f756e74732077697468204d494e5445525f60408201527f524f4c452063616e2063616c6c20746869732066756e6374696f6e2e00000000606082015260800190565b60208082526026908201527f416464726573733a2064656c65676174652063616c6c20746f206e6f6e2d636f6040820152651b9d1c9858dd60d21b606082015260800190565b6020808252603b908201527f455243313135355072657365744d696e7465725061757365723a206d7573742060408201527f686176652070617573657220726f6c6520746f20756e70617573650000000000606082015260800190565b60208082526039908201527f455243313135355072657365744d696e7465725061757365723a206d7573742060408201527f686176652070617573657220726f6c6520746f20706175736500000000000000606082015260800190565b6020808252602f908201527f5061636b3a2073656e646572206f776e73206e6f207061636b73206f6620746860408201527f6520676976656e207061636b49642e0000000000000000000000000000000000606082015260800190565b60208082526029908201527f455243313135353a2073657474696e6720617070726f76616c2073746174757360408201527f20666f722073656c660000000000000000000000000000000000000000000000606082015260800190565b60208082526029908201527f455243313135353a206163636f756e747320616e6420696473206c656e67746860408201527f206d69736d617463680000000000000000000000000000000000000000000000606082015260800190565b60208082526028908201527f455243313135353a2069647320616e6420616d6f756e7473206c656e6774682060408201527f6d69736d61746368000000000000000000000000000000000000000000000000606082015260800190565b60208082526021908201527f455243313135353a206d696e7420746f20746865207a65726f206164647265736040820152607360f81b606082015260800190565b60208082526032908201527f5061636b3a2072657761726420636f6e747261637420646f6573206e6f74206960408201527f6d706c656d656e742045524320313135352e0000000000000000000000000000606082015260800190565b6020808252602f908201527f416363657373436f6e74726f6c3a2063616e206f6e6c792072656e6f756e636560408201527f20726f6c657320666f722073656c660000000000000000000000000000000000606082015260800190565b60006020825261153660208301846146e2565b600060a0825261566b60a08301886146e2565b8660208401526001600160a01b03861660408401528281036060840152615692818661467c565b90508281036080840152614831818561467c565b6000848252606060208301526156bf60608301856146e2565b82810360408401526001600160a01b0384511681526020840151608060208301526156ed608083018261467c565b905060408501518282036040840152615706828261467c565b915050606085015160608301528092505050949350505050565b6000808335601e19843603018112615736578283fd5b83018035915067ffffffffffffffff821115615750578283fd5b60200191503681900382131561576557600080fd5b9250929050565b60405181810167ffffffffffffffff8111828210171561578e5761578e615917565b604052919050565b600067ffffffffffffffff8211156157b0576157b0615917565b5060209081020190565b600067ffffffffffffffff8211156157d4576157d4615917565b50601f01601f191660200190565b600082198211156157f5576157f56158eb565b500190565b60008261580957615809615901565b500490565b6000816000190483118215151615615828576158286158eb565b500290565b60008282101561583f5761583f6158eb565b500390565b60005b8381101561585f578181015183820152602001615847565b838111156124de5750506000910152565b60008161587f5761587f6158eb565b506000190190565b60028104600182168061589b57607f821691505b6020821081141561381657634e487b7160e01b600052602260045260246000fd5b60006000198214156158d0576158d06158eb565b5060010190565b6000826158e6576158e6615901565b500690565b634e487b7160e01b600052601160045260246000fd5b634e487b7160e01b600052601260045260246000fd5b634e487b7160e01b600052604160045260246000fd5b60e01c90565b600060443d101561594357611308565b600481823e6308c379a0615957825161592d565b1461596157611308565b6040513d600319016004823e80513d67ffffffffffffffff81602484011181841117156159915750505050611308565b828401925082519150808211156159ab5750505050611308565b503d830160208284010111156159c357505050611308565b601f01601f1916810160200160405291505090565b6001600160a01b03811681146159ed57600080fd5b50565b80151581146159ed57600080fd5b6001600160e01b0319811681146159ed57600080fdfe416464726573733a206c6f772d6c6576656c2064656c65676174652063616c6c206661696c6564a164736f6c6343000800000a",
  "linkReferences": {},
  "deployedLinkReferences": {}
}