{
  "_format": "hh-sol-artifact-1",
  "contractName": "Pack",
  "sourceName": "contracts/Pack.sol",
  "abi": [
    {
      "inputs": [
        {
          "internalType": "address",
          "name": "_controlCenter",
          "type": "address"
        },
        {
          "internalType": "string",
          "name": "_uri",
          "type": "string"
        },
        {
          "internalType": "address",
          "name": "_vrfCoordinator",
          "type": "address"
        },
        {
          "internalType": "address",
          "name": "_linkToken",
          "type": "address"
        },
        {
          "internalType": "bytes32",
          "name": "_keyHash",
          "type": "bytes32"
        },
        {
          "internalType": "uint256",
          "name": "_fees",
          "type": "uint256"
        },
        {
          "internalType": "address",
          "name": "_trustedForwarder",
          "type": "address"
        }
      ],
      "stateMutability": "nonpayable",
      "type": "constructor"
    },
    {
      "anonymous": false,
      "inputs": [
        {
          "indexed": true,
          "internalType": "address",
          "name": "account",
          "type": "address"
        },
        {
          "indexed": true,
          "internalType": "address",
          "name": "operator",
          "type": "address"
        },
        {
          "indexed": false,
          "internalType": "bool",
          "name": "approved",
          "type": "bool"
        }
      ],
      "name": "ApprovalForAll",
      "type": "event"
    },
    {
      "anonymous": false,
      "inputs": [
        {
          "indexed": true,
          "internalType": "uint256",
          "name": "packId",
          "type": "uint256"
        },
        {
          "indexed": true,
          "internalType": "address",
          "name": "rewardContract",
          "type": "address"
        },
        {
          "indexed": true,
          "internalType": "address",
          "name": "creator",
          "type": "address"
        },
        {
          "components": [
            {
              "internalType": "string",
              "name": "uri",
              "type": "string"
            },
            {
              "internalType": "address",
              "name": "creator",
              "type": "address"
            },
            {
              "internalType": "uint256",
              "name": "currentSupply",
              "type": "uint256"
            },
            {
              "internalType": "uint256",
              "name": "openStart",
              "type": "uint256"
            },
            {
              "internalType": "uint256",
              "name": "openEnd",
              "type": "uint256"
            }
          ],
          "indexed": false,
          "internalType": "struct Pack.PackState",
          "name": "packState",
          "type": "tuple"
        },
        {
          "components": [
            {
              "internalType": "address",
              "name": "source",
              "type": "address"
            },
            {
              "internalType": "uint256[]",
              "name": "tokenIds",
              "type": "uint256[]"
            },
            {
              "internalType": "uint256[]",
              "name": "amountsPacked",
              "type": "uint256[]"
            },
            {
              "internalType": "uint256",
              "name": "rewardsPerOpen",
              "type": "uint256"
            }
          ],
          "indexed": false,
          "internalType": "struct Pack.Rewards",
          "name": "rewards",
          "type": "tuple"
        }
      ],
      "name": "PackCreated",
      "type": "event"
    },
    {
      "anonymous": false,
      "inputs": [
        {
          "indexed": true,
          "internalType": "uint256",
          "name": "packId",
          "type": "uint256"
        },
        {
          "indexed": true,
          "internalType": "address",
          "name": "opener",
          "type": "address"
        },
        {
          "indexed": false,
          "internalType": "bytes32",
          "name": "requestId",
          "type": "bytes32"
        },
        {
          "indexed": true,
          "internalType": "address",
          "name": "rewardContract",
          "type": "address"
        },
        {
          "indexed": false,
          "internalType": "uint256[]",
          "name": "rewardIds",
          "type": "uint256[]"
        }
      ],
      "name": "PackOpenFulfilled",
      "type": "event"
    },
    {
      "anonymous": false,
      "inputs": [
        {
          "indexed": true,
          "internalType": "uint256",
          "name": "packId",
          "type": "uint256"
        },
        {
          "indexed": true,
          "internalType": "address",
          "name": "opener",
          "type": "address"
        },
        {
          "indexed": false,
          "internalType": "bytes32",
          "name": "requestId",
          "type": "bytes32"
        }
      ],
      "name": "PackOpenRequest",
      "type": "event"
    },
    {
      "anonymous": false,
      "inputs": [
        {
          "indexed": false,
          "internalType": "uint256",
          "name": "royaltyBps",
          "type": "uint256"
        }
      ],
      "name": "PackRoyaltyUpdated",
      "type": "event"
    },
    {
      "anonymous": false,
      "inputs": [
        {
          "indexed": true,
          "internalType": "address",
          "name": "operator",
          "type": "address"
        },
        {
          "indexed": true,
          "internalType": "address",
          "name": "from",
          "type": "address"
        },
        {
          "indexed": true,
          "internalType": "address",
          "name": "to",
          "type": "address"
        },
        {
          "indexed": false,
          "internalType": "uint256[]",
          "name": "ids",
          "type": "uint256[]"
        },
        {
          "indexed": false,
          "internalType": "uint256[]",
          "name": "values",
          "type": "uint256[]"
        }
      ],
      "name": "TransferBatch",
      "type": "event"
    },
    {
      "anonymous": false,
      "inputs": [
        {
          "indexed": true,
          "internalType": "address",
          "name": "operator",
          "type": "address"
        },
        {
          "indexed": true,
          "internalType": "address",
          "name": "from",
          "type": "address"
        },
        {
          "indexed": true,
          "internalType": "address",
          "name": "to",
          "type": "address"
        },
        {
          "indexed": false,
          "internalType": "uint256",
          "name": "id",
          "type": "uint256"
        },
        {
          "indexed": false,
          "internalType": "uint256",
          "name": "value",
          "type": "uint256"
        }
      ],
      "name": "TransferSingle",
      "type": "event"
    },
    {
      "anonymous": false,
      "inputs": [
        {
          "indexed": false,
          "internalType": "string",
          "name": "value",
          "type": "string"
        },
        {
          "indexed": true,
          "internalType": "uint256",
          "name": "id",
          "type": "uint256"
        }
      ],
      "name": "URI",
      "type": "event"
    },
    {
      "inputs": [],
      "name": "_contractURI",
      "outputs": [
        {
          "internalType": "string",
          "name": "",
          "type": "string"
        }
      ],
      "stateMutability": "view",
      "type": "function"
    },
    {
      "inputs": [
        {
          "internalType": "address",
          "name": "account",
          "type": "address"
        },
        {
          "internalType": "uint256",
          "name": "id",
          "type": "uint256"
        }
      ],
      "name": "balanceOf",
      "outputs": [
        {
          "internalType": "uint256",
          "name": "",
          "type": "uint256"
        }
      ],
      "stateMutability": "view",
      "type": "function"
    },
    {
      "inputs": [
        {
          "internalType": "address[]",
          "name": "accounts",
          "type": "address[]"
        },
        {
          "internalType": "uint256[]",
          "name": "ids",
          "type": "uint256[]"
        }
      ],
      "name": "balanceOfBatch",
      "outputs": [
        {
          "internalType": "uint256[]",
          "name": "",
          "type": "uint256[]"
        }
      ],
      "stateMutability": "view",
      "type": "function"
    },
    {
      "inputs": [],
      "name": "contractURI",
      "outputs": [
        {
          "internalType": "string",
          "name": "",
          "type": "string"
        }
      ],
      "stateMutability": "view",
      "type": "function"
    },
    {
      "inputs": [
        {
          "internalType": "uint256",
          "name": "_packId",
          "type": "uint256"
        }
      ],
      "name": "creator",
      "outputs": [
        {
          "internalType": "address",
          "name": "",
          "type": "address"
        }
      ],
      "stateMutability": "view",
      "type": "function"
    },
    {
      "inputs": [
        {
          "internalType": "uint256",
          "name": "",
          "type": "uint256"
        },
        {
          "internalType": "address",
          "name": "",
          "type": "address"
        }
      ],
      "name": "currentRequestId",
      "outputs": [
        {
          "internalType": "bytes32",
          "name": "",
          "type": "bytes32"
        }
      ],
      "stateMutability": "view",
      "type": "function"
    },
    {
      "inputs": [
        {
          "internalType": "uint256",
          "name": "_packId",
          "type": "uint256"
        }
      ],
      "name": "getPack",
      "outputs": [
        {
          "components": [
            {
              "internalType": "string",
              "name": "uri",
              "type": "string"
            },
            {
              "internalType": "address",
              "name": "creator",
              "type": "address"
            },
            {
              "internalType": "uint256",
              "name": "currentSupply",
              "type": "uint256"
            },
            {
              "internalType": "uint256",
              "name": "openStart",
              "type": "uint256"
            },
            {
              "internalType": "uint256",
              "name": "openEnd",
              "type": "uint256"
            }
          ],
          "internalType": "struct Pack.PackState",
          "name": "pack",
          "type": "tuple"
        }
      ],
      "stateMutability": "view",
      "type": "function"
    },
    {
      "inputs": [
        {
          "internalType": "uint256",
          "name": "_packId",
          "type": "uint256"
        }
      ],
      "name": "getPackWithRewards",
      "outputs": [
        {
          "components": [
            {
              "internalType": "string",
              "name": "uri",
              "type": "string"
            },
            {
              "internalType": "address",
              "name": "creator",
              "type": "address"
            },
            {
              "internalType": "uint256",
              "name": "currentSupply",
              "type": "uint256"
            },
            {
              "internalType": "uint256",
              "name": "openStart",
              "type": "uint256"
            },
            {
              "internalType": "uint256",
              "name": "openEnd",
              "type": "uint256"
            }
          ],
          "internalType": "struct Pack.PackState",
          "name": "pack",
          "type": "tuple"
        },
        {
          "internalType": "address",
          "name": "source",
          "type": "address"
        },
        {
          "internalType": "uint256[]",
          "name": "tokenIds",
          "type": "uint256[]"
        },
        {
          "internalType": "uint256[]",
          "name": "amountsPacked",
          "type": "uint256[]"
        }
      ],
      "stateMutability": "view",
      "type": "function"
    },
    {
      "inputs": [
        {
          "internalType": "address",
          "name": "account",
          "type": "address"
        },
        {
          "internalType": "address",
          "name": "operator",
          "type": "address"
        }
      ],
      "name": "isApprovedForAll",
      "outputs": [
        {
          "internalType": "bool",
          "name": "",
          "type": "bool"
        }
      ],
      "stateMutability": "view",
      "type": "function"
    },
    {
      "inputs": [
        {
          "internalType": "address",
          "name": "forwarder",
          "type": "address"
        }
      ],
      "name": "isTrustedForwarder",
      "outputs": [
        {
          "internalType": "bool",
          "name": "",
          "type": "bool"
        }
      ],
      "stateMutability": "view",
      "type": "function"
    },
    {
      "inputs": [],
      "name": "nextTokenId",
      "outputs": [
        {
          "internalType": "uint256",
          "name": "",
          "type": "uint256"
        }
      ],
      "stateMutability": "view",
      "type": "function"
    },
    {
      "inputs": [
        {
          "internalType": "address",
          "name": "",
          "type": "address"
        },
        {
          "internalType": "address",
          "name": "_from",
          "type": "address"
        },
        {
          "internalType": "uint256[]",
          "name": "_ids",
          "type": "uint256[]"
        },
        {
          "internalType": "uint256[]",
          "name": "_values",
          "type": "uint256[]"
        },
        {
          "internalType": "bytes",
          "name": "_data",
          "type": "bytes"
        }
      ],
      "name": "onERC1155BatchReceived",
      "outputs": [
        {
          "internalType": "bytes4",
          "name": "",
          "type": "bytes4"
        }
      ],
      "stateMutability": "nonpayable",
      "type": "function"
    },
    {
      "inputs": [
        {
          "internalType": "address",
          "name": "",
          "type": "address"
        },
        {
          "internalType": "address",
          "name": "",
          "type": "address"
        },
        {
          "internalType": "uint256",
          "name": "",
          "type": "uint256"
        },
        {
          "internalType": "uint256",
          "name": "",
          "type": "uint256"
        },
        {
          "internalType": "bytes",
          "name": "",
          "type": "bytes"
        }
      ],
      "name": "onERC1155Received",
      "outputs": [
        {
          "internalType": "bytes4",
          "name": "",
          "type": "bytes4"
        }
      ],
      "stateMutability": "nonpayable",
      "type": "function"
    },
    {
      "inputs": [
        {
          "internalType": "uint256",
          "name": "_packId",
          "type": "uint256"
        }
      ],
      "name": "openPack",
      "outputs": [],
      "stateMutability": "nonpayable",
      "type": "function"
    },
    {
      "inputs": [],
      "name": "packRoyaltyBps",
      "outputs": [
        {
          "internalType": "uint256",
          "name": "",
          "type": "uint256"
        }
      ],
      "stateMutability": "view",
      "type": "function"
    },
    {
      "inputs": [
        {
          "internalType": "uint256",
          "name": "",
          "type": "uint256"
        }
      ],
      "name": "packs",
      "outputs": [
        {
          "internalType": "string",
          "name": "uri",
          "type": "string"
        },
        {
          "internalType": "address",
          "name": "creator",
          "type": "address"
        },
        {
          "internalType": "uint256",
          "name": "currentSupply",
          "type": "uint256"
        },
        {
          "internalType": "uint256",
          "name": "openStart",
          "type": "uint256"
        },
        {
          "internalType": "uint256",
          "name": "openEnd",
          "type": "uint256"
        }
      ],
      "stateMutability": "view",
      "type": "function"
    },
    {
      "inputs": [
        {
          "internalType": "bytes32",
          "name": "",
          "type": "bytes32"
        }
      ],
      "name": "randomnessRequests",
      "outputs": [
        {
          "internalType": "uint256",
          "name": "packId",
          "type": "uint256"
        },
        {
          "internalType": "address",
          "name": "opener",
          "type": "address"
        }
      ],
      "stateMutability": "view",
      "type": "function"
    },
    {
      "inputs": [
        {
          "internalType": "bytes32",
          "name": "requestId",
          "type": "bytes32"
        },
        {
          "internalType": "uint256",
          "name": "randomness",
          "type": "uint256"
        }
      ],
      "name": "rawFulfillRandomness",
      "outputs": [],
      "stateMutability": "nonpayable",
      "type": "function"
    },
    {
      "inputs": [
        {
          "internalType": "uint256",
          "name": "",
          "type": "uint256"
        }
      ],
      "name": "rewards",
      "outputs": [
        {
          "internalType": "address",
          "name": "source",
          "type": "address"
        },
        {
          "internalType": "uint256",
          "name": "rewardsPerOpen",
          "type": "uint256"
        }
      ],
      "stateMutability": "view",
      "type": "function"
    },
    {
      "inputs": [
        {
          "internalType": "uint256",
          "name": "tokenId",
          "type": "uint256"
        },
        {
          "internalType": "uint256",
          "name": "salePrice",
          "type": "uint256"
        }
      ],
      "name": "royaltyInfo",
      "outputs": [
        {
          "internalType": "address",
          "name": "receiver",
          "type": "address"
        },
        {
          "internalType": "uint256",
          "name": "royaltyAmount",
          "type": "uint256"
        }
      ],
      "stateMutability": "view",
      "type": "function"
    },
    {
      "inputs": [
        {
          "internalType": "address",
          "name": "from",
          "type": "address"
        },
        {
          "internalType": "address",
          "name": "to",
          "type": "address"
        },
        {
          "internalType": "uint256[]",
          "name": "ids",
          "type": "uint256[]"
        },
        {
          "internalType": "uint256[]",
          "name": "amounts",
          "type": "uint256[]"
        },
        {
          "internalType": "bytes",
          "name": "data",
          "type": "bytes"
        }
      ],
      "name": "safeBatchTransferFrom",
      "outputs": [],
      "stateMutability": "nonpayable",
      "type": "function"
    },
    {
      "inputs": [
        {
          "internalType": "address",
          "name": "from",
          "type": "address"
        },
        {
          "internalType": "address",
          "name": "to",
          "type": "address"
        },
        {
          "internalType": "uint256",
          "name": "id",
          "type": "uint256"
        },
        {
          "internalType": "uint256",
          "name": "amount",
          "type": "uint256"
        },
        {
          "internalType": "bytes",
          "name": "data",
          "type": "bytes"
        }
      ],
      "name": "safeTransferFrom",
      "outputs": [],
      "stateMutability": "nonpayable",
      "type": "function"
    },
    {
      "inputs": [
        {
          "internalType": "address",
          "name": "operator",
          "type": "address"
        },
        {
          "internalType": "bool",
          "name": "approved",
          "type": "bool"
        }
      ],
      "name": "setApprovalForAll",
      "outputs": [],
      "stateMutability": "nonpayable",
      "type": "function"
    },
    {
      "inputs": [
        {
          "internalType": "uint256",
          "name": "_newFees",
          "type": "uint256"
        }
      ],
      "name": "setChainlinkFees",
      "outputs": [],
      "stateMutability": "nonpayable",
      "type": "function"
    },
    {
      "inputs": [
        {
          "internalType": "string",
          "name": "_URI",
          "type": "string"
        }
      ],
      "name": "setContractURI",
      "outputs": [],
      "stateMutability": "nonpayable",
      "type": "function"
    },
    {
      "inputs": [
        {
          "internalType": "uint256",
          "name": "_royaltyBps",
          "type": "uint256"
        }
      ],
      "name": "setPackRoyaltyBps",
      "outputs": [],
      "stateMutability": "nonpayable",
      "type": "function"
    },
    {
      "inputs": [
        {
          "internalType": "bytes4",
          "name": "interfaceId",
          "type": "bytes4"
        }
      ],
      "name": "supportsInterface",
      "outputs": [
        {
          "internalType": "bool",
          "name": "",
          "type": "bool"
        }
      ],
      "stateMutability": "view",
      "type": "function"
    },
    {
      "inputs": [
        {
          "internalType": "uint256",
          "name": "_id",
          "type": "uint256"
        }
      ],
      "name": "tokenURI",
      "outputs": [
        {
          "internalType": "string",
          "name": "",
          "type": "string"
        }
      ],
      "stateMutability": "view",
      "type": "function"
    },
    {
      "inputs": [
        {
          "internalType": "address",
          "name": "_to",
          "type": "address"
        },
        {
          "internalType": "uint256",
          "name": "_amount",
          "type": "uint256"
        }
      ],
      "name": "transferLink",
      "outputs": [],
      "stateMutability": "nonpayable",
      "type": "function"
    },
    {
      "inputs": [
        {
          "internalType": "uint256",
          "name": "_id",
          "type": "uint256"
        }
      ],
      "name": "uri",
      "outputs": [
        {
          "internalType": "string",
          "name": "",
          "type": "string"
        }
      ],
      "stateMutability": "view",
      "type": "function"
    },
    {
      "inputs": [],
      "name": "vrfFees",
      "outputs": [
        {
          "internalType": "uint256",
          "name": "",
          "type": "uint256"
        }
      ],
      "stateMutability": "view",
      "type": "function"
    },
    {
      "inputs": [],
      "name": "vrfKeyHash",
      "outputs": [
        {
          "internalType": "bytes32",
          "name": "",
          "type": "bytes32"
        }
      ],
      "stateMutability": "view",
      "type": "function"
    }
  ],
  "bytecode": "0x60c06040523480156200001157600080fd5b506040516200452838038062004528833981016040819052620000349162000196565b808585886200004381620000ba565b506001600160601b0319606092831b811660a052911b16608052600480546001600160a01b039283166001600160a01b03199182161790915560058054928a1692909116919091179055600883905560078290558551620000ac90600a906020890190620000d3565b50505050505050506200031a565b8051620000cf906002906020840190620000d3565b5050565b828054620000e190620002c7565b90600052602060002090601f01602090048101928262000105576000855562000150565b82601f106200012057805160ff191683800117855562000150565b8280016001018555821562000150579182015b828111156200015057825182559160200191906001019062000133565b506200015e92915062000162565b5090565b5b808211156200015e576000815560010162000163565b80516001600160a01b03811681146200019157600080fd5b919050565b600080600080600080600060e0888a031215620001b1578283fd5b620001bc8862000179565b602089810151919850906001600160401b0380821115620001db578586fd5b818b0191508b601f830112620001ef578586fd5b81518181111562000204576200020462000304565b604051601f8201601f19168101850183811182821017156200022a576200022a62000304565b60405281815283820185018e101562000241578788fd5b8792505b8183101562000264578383018501518184018601529184019162000245565b818311156200027557878583830101525b809a5050505050506200028b6040890162000179565b94506200029b6060890162000179565b93506080880151925060a08801519150620002b960c0890162000179565b905092959891949750929550565b600281046001821680620002dc57607f821691505b60208210811415620002fe57634e487b7160e01b600052602260045260246000fd5b50919050565b634e487b7160e01b600052604160045260246000fd5b60805160601c60a05160601c6141cd6200035b6000396000818161129d0152611ccf015260008181610dde015281816118ec0152611ca001526141cd6000f3fe608060405234801561001057600080fd5b50600436106101ef5760003560e01c806375794a3c1161010f578063c0e72740116100a2578063f23a6e6111610071578063f23a6e6114610456578063f242432a14610469578063f301af421461047c578063f99b1d681461048f576101ef565b8063c0e7274014610433578063c87b56dd14610245578063e8a3d4851461043b578063e985e9c514610443576101ef565b8063a22cb465116100de578063a22cb465146103c9578063b277ca45146103dc578063b84c1392146103ef578063bc197c8114610413576101ef565b806375794a3c1461037b578063895ec54c14610383578063938e3d7b146103a357806394985ddd146103b6576101ef565b80632a55205a11610187578063510b515811610156578063510b5158146103145780635318c48f14610334578063572b6c05146103475780635e619b781461035a576101ef565b80632a55205a146102ad5780632eb2c2d6146102ce5780634e1273f4146102e157806350a88c7e14610301576101ef565b806310983e57116101c357806310983e571461026557806310e34e671461026d5780631d64b18e14610290578063238566ab14610298576101ef565b8062fdd58e146101f457806301ffc9a71461021d578063041d443e1461023d5780630e89341c14610245575b600080fd5b61020761020236600461303f565b6104a2565b6040516102149190613593565b60405180910390f35b61023061022b366004613197565b6104f9565b6040516102149190613588565b61020761053f565b610258610253366004613146565b610545565b6040516102149190613613565b6102076105e7565b61028061027b366004613146565b6105ed565b6040516102149493929190613e70565b6102076107b9565b6102ab6102a6366004613146565b6107bf565b005b6102c06102bb366004613176565b6109cb565b604051610214929190613506565b6102ab6102dc366004612f01565b610a8f565b6102f46102ef36600461306a565b610aed565b6040516102149190613550565b6102ab61030f366004613146565b610c0d565b610327610322366004613146565b61100a565b60405161021491906133f9565b61020761034236600461330f565b611028565b610230610355366004612ea6565b611045565b61036d610368366004613146565b611059565b60405161021492919061359c565b61020761107b565b610396610391366004613146565b611081565b6040516102149190613e5d565b6102ab6103b13660046131cf565b61116b565b6102ab6103c4366004613176565b611292565b6102ab6103d7366004613012565b6112e8565b6102ab6103ea366004613146565b6113b6565b6104026103fd366004613146565b6114d1565b604051610214959493929190613626565b610426610421366004612f01565b611592565b60405161021491906135f0565b6102586115e0565b61025861166e565b610230610451366004612ec9565b611701565b610426610464366004612fab565b61172f565b6102ab610477366004612fab565b611740565b6102c061048a366004613146565b611797565b6102ab61049d36600461303f565b6117bc565b60006001600160a01b0383166104d35760405162461bcd60e51b81526004016104ca906137da565b60405180910390fd5b506000908152602081815260408083206001600160a01b03949094168352929052205490565b60006001600160e01b03198216636cdb3d1360e11b148061052a57506001600160e01b031982166303a24d0760e21b145b80610539575061053982611994565b92915050565b60085481565b6000818152600b6020526040902080546060919061056290614033565b80601f016020809104026020016040519081016040528092919081815260200182805461058e90614033565b80156105db5780601f106105b0576101008083540402835291602001916105db565b820191906000526020600020905b8154815290600101906020018083116105be57829003601f168201915b50505050509050919050565b60075481565b6105f5612c6f565b6000606080600b60008681526020019081526020016000206040518060a001604052908160008201805461062890614033565b80601f016020809104026020016040519081016040528092919081815260200182805461065490614033565b80156106a15780601f10610676576101008083540402835291602001916106a1565b820191906000526020600020905b81548152906001019060200180831161068457829003601f168201915b50505091835250506001828101546001600160a01b0390811660208085019190915260028501546040808601919091526003860154606086015260049095015460809094019390935260008a8152600c84528490208054920180548551818602810186019096528086529599509116965091929083018282801561074457602002820191906000526020600020905b815481526020019060010190808311610730575b50505050509150600c60008681526020019081526020016000206002018054806020026020016040519081016040528092919081815260200182805480156107ab57602002820191906000526020600020905b815481526020019060010190808311610797575b505050505090509193509193565b60095481565b60055460408051634a32c6bf60e11b815290516001600160a01b03909216916391d148549183916394658d7e91600480820192602092909190829003018186803b15801561080c57600080fd5b505afa158015610820573d6000803e3d6000fd5b505050506040513d601f19601f82011682018060405250810190610844919061315e565b61084c6119ad565b6040518363ffffffff1660e01b815260040161086992919061359c565b60206040518083038186803b15801561088157600080fd5b505afa158015610895573d6000803e3d6000fd5b505050506040513d601f19601f820116820180604052508101906108b9919061312a565b6108d55760405162461bcd60e51b81526004016104ca90613720565b600560009054906101000a90046001600160a01b03166001600160a01b031663fd967f476040518163ffffffff1660e01b815260040160206040518083038186803b15801561092357600080fd5b505afa158015610937573d6000803e3d6000fd5b505050506040513d601f19601f8201168201806040525081019061095b91906132df565b6fffffffffffffffffffffffffffffffff16811061098b5760405162461bcd60e51b81526004016104ca9061390f565b60098190556040517f18df997df447ad234684c1707c641c0bda90e308ab6a764f6d9ba74ac407b95c906109c0908390613593565b60405180910390a150565b6000828152600b6020908152604080832060010154600554825163fd967f4760e01b815292516001600160a01b039283169594919092169263fd967f479260048083019392829003018186803b158015610a2457600080fd5b505afa158015610a38573d6000803e3d6000fd5b505050506040513d601f19601f82011682018060405250810190610a5c91906132df565b6fffffffffffffffffffffffffffffffff1660095484610a7c9190613fcd565b610a869190613fb9565b90509250929050565b610a976119ad565b6001600160a01b0316856001600160a01b03161480610abd5750610abd856104516119ad565b610ad95760405162461bcd60e51b81526004016104ca90613b17565b610ae685858585856119bc565b5050505050565b60608151835114610b105760405162461bcd60e51b81526004016104ca90613d05565b6000835167ffffffffffffffff811115610b3a57634e487b7160e01b600052604160045260246000fd5b604051908082528060200260200182016040528015610b63578160200160208202803683370190505b50905060005b8451811015610c0557610bca858281518110610b9557634e487b7160e01b600052603260045260246000fd5b6020026020010151858381518110610bbd57634e487b7160e01b600052603260045260246000fd5b60200260200101516104a2565b828281518110610bea57634e487b7160e01b600052603260045260246000fd5b6020908102919091010152610bfe81614068565b9050610b69565b509392505050565b600560009054906101000a90046001600160a01b03166001600160a01b0316639d2f83f06040518163ffffffff1660e01b815260040160206040518083038186803b158015610c5b57600080fd5b505afa158015610c6f573d6000803e3d6000fd5b505050506040513d601f19601f82011682018060405250810190610c93919061312a565b15610cb05760405162461bcd60e51b81526004016104ca90613a26565b6000818152600b6020526040808220815160a08101909252805482908290610cd790614033565b80601f0160208091040260200160405190810160405280929190818152602001828054610d0390614033565b8015610d505780601f10610d2557610100808354040283529160200191610d50565b820191906000526020600020905b815481529060010190602001808311610d3357829003601f168201915b505050918352505060018201546001600160a01b031660208201526002820154604082015260038201546060808301919091526004909201546080909101528101519091504210801590610da8575080608001514211155b610dc45760405162461bcd60e51b81526004016104ca9061377d565b6007546040516370a0823160e01b81526001600160a01b037f000000000000000000000000000000000000000000000000000000000000000016906370a0823190610e139030906004016133f9565b60206040518083038186803b158015610e2b57600080fd5b505afa158015610e3f573d6000803e3d6000fd5b505050506040513d601f19601f82011682018060405250810190610e63919061315e565b1015610e815760405162461bcd60e51b81526004016104ca9061396c565b6000610e94610e8e6119ad565b846104a2565b11610eb15760405162461bcd60e51b81526004016104ca90613c4b565b6000828152600e6020526040812090610ec86119ad565b6001600160a01b0316815260208101919091526040016000205415610eff5760405162461bcd60e51b81526004016104ca90613a5d565b610f12610f0a6119ad565b836001611b8d565b6000610f22600854600754611c9c565b90506040518060400160405280848152602001610f3d6119ad565b6001600160a01b039081169091526000838152600d6020908152604080832085518155948201516001909501805473ffffffffffffffffffffffffffffffffffffffff19169590941694909417909255858152600e9091529081208291610fa26119ad565b6001600160a01b03168152602081019190915260400160002055610fc46119ad565b6001600160a01b0316837fb5c27afec62496e403fae78e07136ae7c58425e8128c7b680ea24dee8c8d940183604051610ffd9190613593565b60405180910390a3505050565b6000908152600b60205260409020600101546001600160a01b031690565b600e60209081526000928352604080842090915290825290205481565b6004546001600160a01b0390811691161490565b600d60205260009081526040902080546001909101546001600160a01b031682565b60065481565b611089612c6f565b6000828152600b602052604090819020815160a081019092528054829082906110b190614033565b80601f01602080910402602001604051908101604052809291908181526020018280546110dd90614033565b801561112a5780601f106110ff5761010080835404028352916020019161112a565b820191906000526020600020905b81548152906001019060200180831161110d57829003601f168201915b505050918352505060018201546001600160a01b03166020820152600282015460408201526003820154606082015260049091015460809091015292915050565b60055460408051634a32c6bf60e11b815290516001600160a01b03909216916391d148549183916394658d7e91600480820192602092909190829003018186803b1580156111b857600080fd5b505afa1580156111cc573d6000803e3d6000fd5b505050506040513d601f19601f820116820180604052508101906111f0919061315e565b6111f86119ad565b6040518363ffffffff1660e01b815260040161121592919061359c565b60206040518083038186803b15801561122d57600080fd5b505afa158015611241573d6000803e3d6000fd5b505050506040513d601f19601f82011682018060405250810190611265919061312a565b6112815760405162461bcd60e51b81526004016104ca90613720565b61128d600a8383612ca7565b505050565b336001600160a01b037f000000000000000000000000000000000000000000000000000000000000000016146112da5760405162461bcd60e51b81526004016104ca90613c14565b6112e48282611ddf565b5050565b816001600160a01b03166112fa6119ad565b6001600160a01b031614156113215760405162461bcd60e51b81526004016104ca90613ca8565b806001600061132e6119ad565b6001600160a01b03908116825260208083019390935260409182016000908120918716808252919093529120805460ff1916921515929092179091556113726119ad565b6001600160a01b03167f17307eab39ab6107e8899845ad3d59bd9653f200f220920489ca2b5937696c31836040516113aa9190613588565b60405180910390a35050565b60055460408051634a32c6bf60e11b815290516001600160a01b03909216916391d148549183916394658d7e91600480820192602092909190829003018186803b15801561140357600080fd5b505afa158015611417573d6000803e3d6000fd5b505050506040513d601f19601f8201168201806040525081019061143b919061315e565b6114436119ad565b6040518363ffffffff1660e01b815260040161146092919061359c565b60206040518083038186803b15801561147857600080fd5b505afa15801561148c573d6000803e3d6000fd5b505050506040513d601f19601f820116820180604052508101906114b0919061312a565b6114cc5760405162461bcd60e51b81526004016104ca90613720565b600755565b600b602052600090815260409020805481906114ec90614033565b80601f016020809104026020016040519081016040528092919081815260200182805461151890614033565b80156115655780601f1061153a57610100808354040283529160200191611565565b820191906000526020600020905b81548152906001019060200180831161154857829003601f168201915b5050505060018301546002840154600385015460049095015493946001600160a01b039092169390925085565b600080600080600080868060200190518101906115af919061323c565b945094509450945094506115c98a86868c8c888888611fd8565b5063bc197c8160e01b9a9950505050505050505050565b600a80546115ed90614033565b80601f016020809104026020016040519081016040528092919081815260200182805461161990614033565b80156116665780601f1061163b57610100808354040283529160200191611666565b820191906000526020600020905b81548152906001019060200180831161164957829003601f168201915b505050505081565b6060600a805461167d90614033565b80601f01602080910402602001604051908101604052809291908181526020018280546116a990614033565b80156116f65780601f106116cb576101008083540402835291602001916116f6565b820191906000526020600020905b8154815290600101906020018083116116d957829003601f168201915b505050505090505b90565b6001600160a01b03918216600090815260016020908152604080832093909416825291909152205460ff1690565b63f23a6e6160e01b95945050505050565b6117486119ad565b6001600160a01b0316856001600160a01b0316148061176e575061176e856104516119ad565b61178a5760405162461bcd60e51b81526004016104ca9061387b565b610ae68585858585612339565b600c60205260009081526040902080546003909101546001600160a01b039091169082565b60055460408051634a32c6bf60e11b815290516001600160a01b03909216916391d148549183916394658d7e91600480820192602092909190829003018186803b15801561180957600080fd5b505afa15801561181d573d6000803e3d6000fd5b505050506040513d601f19601f82011682018060405250810190611841919061315e565b6118496119ad565b6040518363ffffffff1660e01b815260040161186692919061359c565b60206040518083038186803b15801561187e57600080fd5b505afa158015611892573d6000803e3d6000fd5b505050506040513d601f19601f820116820180604052508101906118b6919061312a565b6118d25760405162461bcd60e51b81526004016104ca90613720565b60405163a9059cbb60e01b81526000906001600160a01b037f0000000000000000000000000000000000000000000000000000000000000000169063a9059cbb906119239086908690600401613506565b602060405180830381600087803b15801561193d57600080fd5b505af1158015611951573d6000803e3d6000fd5b505050506040513d601f19601f82011682018060405250810190611975919061312a565b90508061128d5760405162461bcd60e51b81526004016104ca906138d8565b6001600160e01b031981166301ffc9a760e01b14919050565b60006119b761247c565b905090565b81518351146119dd5760405162461bcd60e51b81526004016104ca90613d62565b6001600160a01b038416611a035760405162461bcd60e51b81526004016104ca90613aba565b6000611a0d6119ad565b9050611a1d8187878787876124aa565b60005b8451811015611b1f576000858281518110611a4b57634e487b7160e01b600052603260045260246000fd5b602002602001015190506000858381518110611a7757634e487b7160e01b600052603260045260246000fd5b602090810291909101810151600084815280835260408082206001600160a01b038e168352909352919091205490915081811015611ac75760405162461bcd60e51b81526004016104ca90613bb7565b6000838152602081815260408083206001600160a01b038e8116855292528083208585039055908b16825281208054849290611b04908490613fa1565b9250508190555050505080611b1890614068565b9050611a20565b50846001600160a01b0316866001600160a01b0316826001600160a01b03167f4a39dc06d4c0dbc64b70af90fd698a233a518aa5d07e595d983b8c0526c8f7fb8787604051611b6f929190613563565b60405180910390a4611b8581878787878761255e565b505050505050565b6001600160a01b038316611bb35760405162461bcd60e51b81526004016104ca90613b74565b6000611bbd6119ad565b9050611bed81856000611bcf8761266c565b611bd88761266c565b604051806020016040528060008152506124aa565b6000838152602081815260408083206001600160a01b038816845290915290205482811015611c2e5760405162461bcd60e51b81526004016104ca90613837565b6000848152602081815260408083206001600160a01b03808a16808652919093528184208786039055905190918516907fc3d58168c5ae7397731d063d5bbf3d657854427343f4c083240f7aacaa2d0f6290611c8d90899089906133eb565b60405180910390a45050505050565b60007f00000000000000000000000000000000000000000000000000000000000000006001600160a01b0316634000aea07f000000000000000000000000000000000000000000000000000000000000000084866000604051602001611d039291906133eb565b6040516020818303038152906040526040518463ffffffff1660e01b8152600401611d309392919061351f565b602060405180830381600087803b158015611d4a57600080fd5b505af1158015611d5e573d6000803e3d6000fd5b505050506040513d601f19601f82011682018060405250810190611d82919061312a565b50600083815260036020526040812054611da1908590839030906126c5565b600085815260036020526040902054909150611dbe906001613fa1565b600085815260036020526040902055611dd784826126ff565b949350505050565b6000828152600d602090815260408083208151808301835281548082526001928301546001600160a01b03908116838701819052828852600e87528588208189528752858820889055828852600c875285882086516080810188528154909316835294850180548751818a0281018a01909852808852949893979196939592949293858301939092830182828015611e9657602002820191906000526020600020905b815481526020019060010190808311611e82575b5050505050815260200160028201805480602002602001604051908101604052809291908181526020018280548015611eee57602002820191906000526020600020905b815481526020019060010190808311611eda575b505050505081526020016003820154815250509050600080611f11858885612732565b8451604051631759616b60e11b81529294509092506001600160a01b031690632eb2c2d690611f4a90309088908790879060040161346b565b600060405180830381600087803b158015611f6457600080fd5b505af1158015611f78573d6000803e3d6000fd5b5050505082600001516001600160a01b0316846001600160a01b0316867f9cae8e743935573869e2fe7223782448d71211235c93076166106782de1c234f8b86604051611fc69291906135b3565b60405180910390a45050505050505050565b600560009054906101000a90046001600160a01b03166001600160a01b0316639d2f83f06040518163ffffffff1660e01b815260040160206040518083038186803b15801561202657600080fd5b505afa15801561203a573d6000803e3d6000fd5b505050506040513d601f19601f8201168201806040525081019061205e919061312a565b1561207b5760405162461bcd60e51b81526004016104ca90613a26565b6040516301ffc9a760e01b81526001600160a01b038716906301ffc9a7906120ab9063d9b67a2690600401613605565b60206040518083038186803b1580156120c357600080fd5b505afa1580156120d7573d6000803e3d6000fd5b505050506040513d601f19601f820116820180604052508101906120fb919061312a565b6121175760405162461bcd60e51b81526004016104ca90613e00565b600061212285612a40565b905061212e8282614083565b1561214b5760405162461bcd60e51b81526004016104ca906139c9565b6000612155612a9a565b905060006121638484613fb9565b905060006040518060a001604052808c81526020018d6001600160a01b0316815260200183815260200188426121999190613fa1565b815260200187156121b3576121ae8842613fa1565b6121b7565b6000195b9052604080516080810182526001600160a01b038d16815260208082018d90528183018c9052606082018990526000878152600b8252929092208351805194955091938593919261220c928492910190612d2b565b50602082810151600180840180546001600160a01b0393841673ffffffffffffffffffffffffffffffffffffffff19918216179091556040808701516002870155606087015160038701556080909601516004909501949094556000898152600c84529490942085518154921691909316178255838101518051859461229793908501920190612d9f565b50604082015180516122b3916002840191602090910190612d9f565b50606082015181600301559050506122dc8d858560405180602001604052806000815250612ab8565b8c6001600160a01b03168b6001600160a01b0316857f9330e9dfd1e803e5d709edb2ad6657b74cb0fb1f182bd63fdbbcb01a463e8ad08585604051612322929190613eb8565b60405180910390a450505050505050505050505050565b6001600160a01b03841661235f5760405162461bcd60e51b81526004016104ca90613aba565b60006123696119ad565b905061238981878761237a8861266c565b6123838861266c565b876124aa565b6000848152602081815260408083206001600160a01b038a168452909152902054838110156123ca5760405162461bcd60e51b81526004016104ca90613bb7565b6000858152602081815260408083206001600160a01b038b8116855292528083208785039055908816825281208054869290612407908490613fa1565b92505081905550856001600160a01b0316876001600160a01b0316836001600160a01b03167fc3d58168c5ae7397731d063d5bbf3d657854427343f4c083240f7aacaa2d0f62888860405161245d9291906133eb565b60405180910390a4612473828888888888612b94565b50505050505050565b600061248733611045565b1561249b575060131936013560601c6116fe565b6124a3612c65565b90506116fe565b6124b8868686868686611b85565b6001600160a01b038416611b855760005b8351811015612473578281815181106124f257634e487b7160e01b600052603260045260246000fd5b6020026020010151600b600086848151811061251e57634e487b7160e01b600052603260045260246000fd5b6020026020010151815260200190815260200160002060020160008282546125469190613fec565b909155506125579050600182613fa1565b90506124c9565b612570846001600160a01b0316612c69565b15611b855760405163bc197c8160e01b81526001600160a01b0385169063bc197c81906125a9908990899088908890889060040161340d565b602060405180830381600087803b1580156125c357600080fd5b505af19250505080156125f3575060408051601f3d908101601f191682019092526125f0918101906131b3565b60015b61263c576125ff6140df565b8061260a5750612624565b8060405162461bcd60e51b81526004016104ca9190613613565b60405162461bcd60e51b81526004016104ca90613666565b6001600160e01b0319811663bc197c8160e01b146124735760405162461bcd60e51b81526004016104ca906136c3565b604080516001808252818301909252606091600091906020808301908036833701905050905082816000815181106126b457634e487b7160e01b600052603260045260246000fd5b602090810291909101015292915050565b6000848484846040516020016126de94939291906135cc565b60408051601f19818403018152919052805160209091012095945050505050565b600082826040516020016127149291906133eb565b60405160208183030381529060405280519060200120905092915050565b60608060006127448460400151612a40565b9050600080856060015167ffffffffffffffff81111561277457634e487b7160e01b600052604160045260246000fd5b60405190808252806020026020018201604052801561279d578160200160208202803683370190505b509450856060015167ffffffffffffffff8111156127cb57634e487b7160e01b600052604160045260246000fd5b6040519080825280602002602001820160405280156127f4578160200160208202803683370190505b50935060005b86606001518110156129b75783888260405160200161281a9291906133eb565b6040516020818303038152906040528051906020012060001c61283d9190614083565b915060005b8760200151518110156129a457838860400151828151811061287457634e487b7160e01b600052603260045260246000fd5b60200260200101516128869190613fa1565b83101561295957876020015181815181106128b157634e487b7160e01b600052603260045260246000fd5b60200260200101518783815181106128d957634e487b7160e01b600052603260045260246000fd5b602002602001018181525050600186838151811061290757634e487b7160e01b600052603260045260246000fd5b60200260200101818152505060018860400151828151811061293957634e487b7160e01b600052603260045260246000fd5b6020026020010181815161294d9190613fec565b905250600093506129a4565b8760400151818151811061297d57634e487b7160e01b600052603260045260246000fd5b6020026020010151846129909190613fa1565b935061299d600182613fa1565b9050612842565b506129b0600182613fa1565b90506127fa565b506000888152600c602090815260409091208751815473ffffffffffffffffffffffffffffffffffffffff19166001600160a01b039091161781558782015180518993612a0b926001850192910190612d9f565b5060408201518051612a27916002840191602090910190612d9f565b5060608201518160030155905050505050935093915050565b6000805b8251811015612a9457828181518110612a6d57634e487b7160e01b600052603260045260246000fd5b602002602001015182612a809190613fa1565b9150612a8d600182613fa1565b9050612a44565b50919050565b60068054906001906000612aae8385613fa1565b9250508190555090565b6001600160a01b038416612ade5760405162461bcd60e51b81526004016104ca90613dbf565b6000612ae86119ad565b9050612afa8160008761237a8861266c565b6000848152602081815260408083206001600160a01b038916845290915281208054859290612b2a908490613fa1565b92505081905550846001600160a01b031660006001600160a01b0316826001600160a01b03167fc3d58168c5ae7397731d063d5bbf3d657854427343f4c083240f7aacaa2d0f628787604051612b819291906133eb565b60405180910390a4610ae6816000878787875b612ba6846001600160a01b0316612c69565b15611b855760405163f23a6e6160e01b81526001600160a01b0385169063f23a6e6190612bdf90899089908890889088906004016134c3565b602060405180830381600087803b158015612bf957600080fd5b505af1925050508015612c29575060408051601f3d908101601f19168201909252612c26918101906131b3565b60015b612c35576125ff6140df565b6001600160e01b0319811663f23a6e6160e01b146124735760405162461bcd60e51b81526004016104ca906136c3565b3390565b3b151590565b6040518060a001604052806060815260200160006001600160a01b031681526020016000815260200160008152602001600081525090565b828054612cb390614033565b90600052602060002090601f016020900481019282612cd55760008555612d1b565b82601f10612cee5782800160ff19823516178555612d1b565b82800160010185558215612d1b579182015b82811115612d1b578235825591602001919060010190612d00565b50612d27929150612dd9565b5090565b828054612d3790614033565b90600052602060002090601f016020900481019282612d595760008555612d1b565b82601f10612d7257805160ff1916838001178555612d1b565b82800160010185558215612d1b579182015b82811115612d1b578251825591602001919060010190612d84565b828054828255906000526020600020908101928215612d1b5791602002820182811115612d1b578251825591602001919060010190612d84565b5b80821115612d275760008155600101612dda565b600082601f830112612dfe578081fd5b81356020612e13612e0e83613f55565b613f2b565b8281528181019085830183850287018401881015612e2f578586fd5b855b85811015612e4d57813584529284019290840190600101612e31565b5090979650505050505050565b600082601f830112612e6a578081fd5b8135612e78612e0e82613f79565b818152846020838601011115612e8c578283fd5b816020850160208301379081016020019190915292915050565b600060208284031215612eb7578081fd5b8135612ec281614184565b9392505050565b60008060408385031215612edb578081fd5b8235612ee681614184565b91506020830135612ef681614184565b809150509250929050565b600080600080600060a08688031215612f18578081fd5b8535612f2381614184565b94506020860135612f3381614184565b9350604086013567ffffffffffffffff80821115612f4f578283fd5b612f5b89838a01612dee565b94506060880135915080821115612f70578283fd5b612f7c89838a01612dee565b93506080880135915080821115612f91578283fd5b50612f9e88828901612e5a565b9150509295509295909350565b600080600080600060a08688031215612fc2578081fd5b8535612fcd81614184565b94506020860135612fdd81614184565b93506040860135925060608601359150608086013567ffffffffffffffff811115613006578182fd5b612f9e88828901612e5a565b60008060408385031215613024578081fd5b823561302f81614184565b91506020830135612ef68161419c565b60008060408385031215613051578182fd5b823561305c81614184565b946020939093013593505050565b6000806040838503121561307c578182fd5b823567ffffffffffffffff80821115613093578384fd5b818501915085601f8301126130a6578384fd5b813560206130b6612e0e83613f55565b82815281810190858301838502870184018b10156130d2578889fd5b8896505b848710156130fd5780356130e981614184565b8352600196909601959183019183016130d6565b5096505086013592505080821115613113578283fd5b5061312085828601612dee565b9150509250929050565b60006020828403121561313b578081fd5b8151612ec28161419c565b600060208284031215613157578081fd5b5035919050565b60006020828403121561316f578081fd5b5051919050565b60008060408385031215613188578182fd5b50508035926020909101359150565b6000602082840312156131a8578081fd5b8135612ec2816141aa565b6000602082840312156131c4578081fd5b8151612ec2816141aa565b600080602083850312156131e1578182fd5b823567ffffffffffffffff808211156131f8578384fd5b818501915085601f83011261320b578384fd5b813581811115613219578485fd5b86602082850101111561322a578485fd5b60209290920196919550909350505050565b600080600080600060a08688031215613253578283fd5b855167ffffffffffffffff811115613269578384fd5b8601601f81018813613279578384fd5b8051613287612e0e82613f79565b81815289602083850101111561329b578586fd5b6132ac826020830160208601614003565b80975050505060208601516132c081614184565b6040870151606088015160809098015196999198509695945092505050565b6000602082840312156132f0578081fd5b81516fffffffffffffffffffffffffffffffff81168114612ec2578182fd5b60008060408385031215613321578182fd5b823591506020830135612ef681614184565b6000815180845260208085019450808401835b8381101561336257815187529582019590820190600101613346565b509495945050505050565b60008151808452613385816020860160208601614003565b601f01601f19169290920160200192915050565b6000815160a084526133ae60a085018261336d565b90506001600160a01b0360208401511660208501526040830151604085015260608301516060850152608083015160808501528091505092915050565b918252602082015260400190565b6001600160a01b0391909116815260200190565b60006001600160a01b03808816835280871660208401525060a0604083015261343960a0830186613333565b828103606084015261344b8186613333565b9050828103608084015261345f818561336d565b98975050505050505050565b60006001600160a01b03808716835280861660208401525060a0604083015261349760a0830185613333565b82810360608401526134a98185613333565b838103608090940193909352508152602001949350505050565b60006001600160a01b03808816835280871660208401525084604083015283606083015260a060808301526134fb60a083018461336d565b979650505050505050565b6001600160a01b03929092168252602082015260400190565b60006001600160a01b038516825283602083015260606040830152613547606083018461336d565b95945050505050565b600060208252612ec26020830184613333565b6000604082526135766040830185613333565b82810360208401526135478185613333565b901515815260200190565b90815260200190565b9182526001600160a01b0316602082015260400190565b600083825260406020830152611dd76040830184613333565b93845260208401929092526001600160a01b03166040830152606082015260800190565b6001600160e01b031991909116815260200190565b60e09190911b815260200190565b600060208252612ec2602083018461336d565b600060a0825261363960a083018861336d565b90506001600160a01b03861660208301528460408301528360608301528260808301529695505050505050565b60208082526034908201527f455243313135353a207472616e7366657220746f206e6f6e204552433131353560408201527f526563656976657220696d706c656d656e746572000000000000000000000000606082015260800190565b60208082526028908201527f455243313135353a204552433131353552656365697665722072656a6563746560408201527f6420746f6b656e73000000000000000000000000000000000000000000000000606082015260800190565b60208082526033908201527f5061636b3a206f6e6c7920612070726f746f636f6c2061646d696e2063616e2060408201527f63616c6c20746869732066756e6374696f6e2e00000000000000000000000000606082015260800190565b60208082526039908201527f5061636b3a207468652077696e646f7720746f206f70656e207061636b73206860408201527f6173206e6f742073746172746564206f7220636c6f7365642e00000000000000606082015260800190565b6020808252602b908201527f455243313135353a2062616c616e636520717565727920666f7220746865207a60408201527f65726f2061646472657373000000000000000000000000000000000000000000606082015260800190565b60208082526024908201527f455243313135353a206275726e20616d6f756e7420657863656564732062616c604082015263616e636560e01b606082015260800190565b60208082526029908201527f455243313135353a2063616c6c6572206973206e6f74206f776e6572206e6f7260408201527f20617070726f7665640000000000000000000000000000000000000000000000606082015260800190565b6020808252601e908201527f5061636b3a204661696c656420746f207472616e73666572204c494e4b2e0000604082015260600190565b6020808252602b908201527f5061636b3a204270732070726f7669646564206d757374206265206c6573732060408201527f7468616e2031302c303030000000000000000000000000000000000000000000606082015260800190565b60208082526034908201527f5061636b3a204e6f7420656e6f756768204c494e4b20746f2066756c66696c6c60408201527f2072616e646f6d6e65737320726571756573742e000000000000000000000000606082015260800190565b60208082526029908201527f5061636b3a20696e76616c6964206e756d626572206f6620726577617264732060408201527f706572206f70656e2e0000000000000000000000000000000000000000000000606082015260800190565b6020808252601d908201527f5061636b3a205468652070726f746f636f6c206973207061757365642e000000604082015260600190565b60208082526032908201527f5061636b3a206d757374207761697420666f72207468652070656e64696e672060408201527f7061636b20746f206265206f70656e65642e0000000000000000000000000000606082015260800190565b60208082526025908201527f455243313135353a207472616e7366657220746f20746865207a65726f20616460408201527f6472657373000000000000000000000000000000000000000000000000000000606082015260800190565b60208082526032908201527f455243313135353a207472616e736665722063616c6c6572206973206e6f742060408201527f6f776e6572206e6f7220617070726f7665640000000000000000000000000000606082015260800190565b60208082526023908201527f455243313135353a206275726e2066726f6d20746865207a65726f206164647260408201526265737360e81b606082015260800190565b6020808252602a908201527f455243313135353a20696e73756666696369656e742062616c616e636520666f60408201527f72207472616e7366657200000000000000000000000000000000000000000000606082015260800190565b6020808252601f908201527f4f6e6c7920565246436f6f7264696e61746f722063616e2066756c66696c6c00604082015260600190565b6020808252602f908201527f5061636b3a2073656e646572206f776e73206e6f207061636b73206f6620746860408201527f6520676976656e207061636b49642e0000000000000000000000000000000000606082015260800190565b60208082526029908201527f455243313135353a2073657474696e6720617070726f76616c2073746174757360408201527f20666f722073656c660000000000000000000000000000000000000000000000606082015260800190565b60208082526029908201527f455243313135353a206163636f756e747320616e6420696473206c656e67746860408201527f206d69736d617463680000000000000000000000000000000000000000000000606082015260800190565b60208082526028908201527f455243313135353a2069647320616e6420616d6f756e7473206c656e6774682060408201527f6d69736d61746368000000000000000000000000000000000000000000000000606082015260800190565b60208082526021908201527f455243313135353a206d696e7420746f20746865207a65726f206164647265736040820152607360f81b606082015260800190565b60208082526032908201527f5061636b3a2072657761726420636f6e747261637420646f6573206e6f74206960408201527f6d706c656d656e742045524320313135352e0000000000000000000000000000606082015260800190565b600060208252612ec26020830184613399565b600060808252613e836080830187613399565b6001600160a01b03861660208401528281036040840152613ea48186613333565b905082810360608401526134fb8185613333565b600060408252613ecb6040830185613399565b82810360208401526001600160a01b038451168152602084015160806020830152613ef96080830182613333565b905060408501518282036040840152613f128282613333565b9150506060850151606083015280925050509392505050565b60405181810167ffffffffffffffff81118282101715613f4d57613f4d6140c3565b604052919050565b600067ffffffffffffffff821115613f6f57613f6f6140c3565b5060209081020190565b600067ffffffffffffffff821115613f9357613f936140c3565b50601f01601f191660200190565b60008219821115613fb457613fb4614097565b500190565b600082613fc857613fc86140ad565b500490565b6000816000190483118215151615613fe757613fe7614097565b500290565b600082821015613ffe57613ffe614097565b500390565b60005b8381101561401e578181015183820152602001614006565b8381111561402d576000848401525b50505050565b60028104600182168061404757607f821691505b60208210811415612a9457634e487b7160e01b600052602260045260246000fd5b600060001982141561407c5761407c614097565b5060010190565b600082614092576140926140ad565b500690565b634e487b7160e01b600052601160045260246000fd5b634e487b7160e01b600052601260045260246000fd5b634e487b7160e01b600052604160045260246000fd5b60e01c90565b600060443d10156140ef576116fe565b600481823e6308c379a061410382516140d9565b1461410d576116fe565b6040513d600319016004823e80513d67ffffffffffffffff816024840111818411171561413d57505050506116fe565b8284019250825191508082111561415757505050506116fe565b503d8301602082840101111561416f575050506116fe565b601f01601f1916810160200160405291505090565b6001600160a01b038116811461419957600080fd5b50565b801515811461419957600080fd5b6001600160e01b03198116811461419957600080fdfea164736f6c6343000800000a",
  "linkReferences": {},
  "deployedLinkReferences": {}
}