{
  "_format": "hh-sol-artifact-1",
  "contractName": "Pack",
  "sourceName": "contracts/Pack.sol",
  "abi": [
    {
      "inputs": [
        {
          "internalType": "address",
          "name": "_controlCenter",
          "type": "address"
        },
        {
          "internalType": "string",
          "name": "_uri",
          "type": "string"
        },
        {
          "internalType": "address",
          "name": "_vrfCoordinator",
          "type": "address"
        },
        {
          "internalType": "address",
          "name": "_linkToken",
          "type": "address"
        },
        {
          "internalType": "bytes32",
          "name": "_keyHash",
          "type": "bytes32"
        },
        {
          "internalType": "uint256",
          "name": "_fees",
          "type": "uint256"
        },
        {
          "internalType": "address",
          "name": "_trustedForwarder",
          "type": "address"
        }
      ],
      "stateMutability": "nonpayable",
      "type": "constructor"
    },
    {
      "anonymous": false,
      "inputs": [
        {
          "indexed": true,
          "internalType": "address",
          "name": "account",
          "type": "address"
        },
        {
          "indexed": true,
          "internalType": "address",
          "name": "operator",
          "type": "address"
        },
        {
          "indexed": false,
          "internalType": "bool",
          "name": "approved",
          "type": "bool"
        }
      ],
      "name": "ApprovalForAll",
      "type": "event"
    },
    {
      "anonymous": false,
      "inputs": [
        {
          "indexed": true,
          "internalType": "uint256",
          "name": "packId",
          "type": "uint256"
        },
        {
          "indexed": true,
          "internalType": "address",
          "name": "rewardContract",
          "type": "address"
        },
        {
          "indexed": true,
          "internalType": "address",
          "name": "creator",
          "type": "address"
        },
        {
          "components": [
            {
              "internalType": "string",
              "name": "uri",
              "type": "string"
            },
            {
              "internalType": "address",
              "name": "creator",
              "type": "address"
            },
            {
              "internalType": "uint256",
              "name": "currentSupply",
              "type": "uint256"
            },
            {
              "internalType": "uint256",
              "name": "openStart",
              "type": "uint256"
            },
            {
              "internalType": "uint256",
              "name": "openEnd",
              "type": "uint256"
            }
          ],
          "indexed": false,
          "internalType": "struct Pack.PackState",
          "name": "packState",
          "type": "tuple"
        },
        {
          "components": [
            {
              "internalType": "address",
              "name": "source",
              "type": "address"
            },
            {
              "internalType": "uint256[]",
              "name": "tokenIds",
              "type": "uint256[]"
            },
            {
              "internalType": "uint256[]",
              "name": "amountsPacked",
              "type": "uint256[]"
            },
            {
              "internalType": "uint256",
              "name": "rewardsPerOpen",
              "type": "uint256"
            }
          ],
          "indexed": false,
          "internalType": "struct Pack.Rewards",
          "name": "rewards",
          "type": "tuple"
        }
      ],
      "name": "PackCreated",
      "type": "event"
    },
    {
      "anonymous": false,
      "inputs": [
        {
          "indexed": true,
          "internalType": "uint256",
          "name": "packId",
          "type": "uint256"
        },
        {
          "indexed": true,
          "internalType": "address",
          "name": "opener",
          "type": "address"
        },
        {
          "indexed": false,
          "internalType": "bytes32",
          "name": "requestId",
          "type": "bytes32"
        },
        {
          "indexed": true,
          "internalType": "address",
          "name": "rewardContract",
          "type": "address"
        },
        {
          "indexed": false,
          "internalType": "uint256[]",
          "name": "rewardIds",
          "type": "uint256[]"
        }
      ],
      "name": "PackOpenFulfilled",
      "type": "event"
    },
    {
      "anonymous": false,
      "inputs": [
        {
          "indexed": true,
          "internalType": "uint256",
          "name": "packId",
          "type": "uint256"
        },
        {
          "indexed": true,
          "internalType": "address",
          "name": "opener",
          "type": "address"
        },
        {
          "indexed": false,
          "internalType": "bytes32",
          "name": "requestId",
          "type": "bytes32"
        }
      ],
      "name": "PackOpenRequest",
      "type": "event"
    },
    {
      "anonymous": false,
      "inputs": [
        {
          "indexed": false,
          "internalType": "uint256",
          "name": "royaltyBps",
          "type": "uint256"
        }
      ],
      "name": "PackRoyaltyUpdated",
      "type": "event"
    },
    {
      "anonymous": false,
      "inputs": [
        {
          "indexed": false,
          "internalType": "address",
          "name": "account",
          "type": "address"
        }
      ],
      "name": "Paused",
      "type": "event"
    },
    {
      "anonymous": false,
      "inputs": [
        {
          "indexed": true,
          "internalType": "bytes32",
          "name": "role",
          "type": "bytes32"
        },
        {
          "indexed": true,
          "internalType": "bytes32",
          "name": "previousAdminRole",
          "type": "bytes32"
        },
        {
          "indexed": true,
          "internalType": "bytes32",
          "name": "newAdminRole",
          "type": "bytes32"
        }
      ],
      "name": "RoleAdminChanged",
      "type": "event"
    },
    {
      "anonymous": false,
      "inputs": [
        {
          "indexed": true,
          "internalType": "bytes32",
          "name": "role",
          "type": "bytes32"
        },
        {
          "indexed": true,
          "internalType": "address",
          "name": "account",
          "type": "address"
        },
        {
          "indexed": true,
          "internalType": "address",
          "name": "sender",
          "type": "address"
        }
      ],
      "name": "RoleGranted",
      "type": "event"
    },
    {
      "anonymous": false,
      "inputs": [
        {
          "indexed": true,
          "internalType": "bytes32",
          "name": "role",
          "type": "bytes32"
        },
        {
          "indexed": true,
          "internalType": "address",
          "name": "account",
          "type": "address"
        },
        {
          "indexed": true,
          "internalType": "address",
          "name": "sender",
          "type": "address"
        }
      ],
      "name": "RoleRevoked",
      "type": "event"
    },
    {
      "anonymous": false,
      "inputs": [
        {
          "indexed": true,
          "internalType": "address",
          "name": "operator",
          "type": "address"
        },
        {
          "indexed": true,
          "internalType": "address",
          "name": "from",
          "type": "address"
        },
        {
          "indexed": true,
          "internalType": "address",
          "name": "to",
          "type": "address"
        },
        {
          "indexed": false,
          "internalType": "uint256[]",
          "name": "ids",
          "type": "uint256[]"
        },
        {
          "indexed": false,
          "internalType": "uint256[]",
          "name": "values",
          "type": "uint256[]"
        }
      ],
      "name": "TransferBatch",
      "type": "event"
    },
    {
      "anonymous": false,
      "inputs": [
        {
          "indexed": true,
          "internalType": "address",
          "name": "operator",
          "type": "address"
        },
        {
          "indexed": true,
          "internalType": "address",
          "name": "from",
          "type": "address"
        },
        {
          "indexed": true,
          "internalType": "address",
          "name": "to",
          "type": "address"
        },
        {
          "indexed": false,
          "internalType": "uint256",
          "name": "id",
          "type": "uint256"
        },
        {
          "indexed": false,
          "internalType": "uint256",
          "name": "value",
          "type": "uint256"
        }
      ],
      "name": "TransferSingle",
      "type": "event"
    },
    {
      "anonymous": false,
      "inputs": [
        {
          "indexed": false,
          "internalType": "string",
          "name": "value",
          "type": "string"
        },
        {
          "indexed": true,
          "internalType": "uint256",
          "name": "id",
          "type": "uint256"
        }
      ],
      "name": "URI",
      "type": "event"
    },
    {
      "anonymous": false,
      "inputs": [
        {
          "indexed": false,
          "internalType": "address",
          "name": "account",
          "type": "address"
        }
      ],
      "name": "Unpaused",
      "type": "event"
    },
    {
      "inputs": [],
      "name": "DEFAULT_ADMIN_ROLE",
      "outputs": [
        {
          "internalType": "bytes32",
          "name": "",
          "type": "bytes32"
        }
      ],
      "stateMutability": "view",
      "type": "function"
    },
    {
      "inputs": [],
      "name": "MINTER_ROLE",
      "outputs": [
        {
          "internalType": "bytes32",
          "name": "",
          "type": "bytes32"
        }
      ],
      "stateMutability": "view",
      "type": "function"
    },
    {
      "inputs": [],
      "name": "PAUSER_ROLE",
      "outputs": [
        {
          "internalType": "bytes32",
          "name": "",
          "type": "bytes32"
        }
      ],
      "stateMutability": "view",
      "type": "function"
    },
    {
      "inputs": [],
      "name": "_contractURI",
      "outputs": [
        {
          "internalType": "string",
          "name": "",
          "type": "string"
        }
      ],
      "stateMutability": "view",
      "type": "function"
    },
    {
      "inputs": [
        {
          "internalType": "address",
          "name": "account",
          "type": "address"
        },
        {
          "internalType": "uint256",
          "name": "id",
          "type": "uint256"
        }
      ],
      "name": "balanceOf",
      "outputs": [
        {
          "internalType": "uint256",
          "name": "",
          "type": "uint256"
        }
      ],
      "stateMutability": "view",
      "type": "function"
    },
    {
      "inputs": [
        {
          "internalType": "address[]",
          "name": "accounts",
          "type": "address[]"
        },
        {
          "internalType": "uint256[]",
          "name": "ids",
          "type": "uint256[]"
        }
      ],
      "name": "balanceOfBatch",
      "outputs": [
        {
          "internalType": "uint256[]",
          "name": "",
          "type": "uint256[]"
        }
      ],
      "stateMutability": "view",
      "type": "function"
    },
    {
      "inputs": [
        {
          "internalType": "address",
          "name": "account",
          "type": "address"
        },
        {
          "internalType": "uint256",
          "name": "id",
          "type": "uint256"
        },
        {
          "internalType": "uint256",
          "name": "value",
          "type": "uint256"
        }
      ],
      "name": "burn",
      "outputs": [],
      "stateMutability": "nonpayable",
      "type": "function"
    },
    {
      "inputs": [
        {
          "internalType": "address",
          "name": "account",
          "type": "address"
        },
        {
          "internalType": "uint256[]",
          "name": "ids",
          "type": "uint256[]"
        },
        {
          "internalType": "uint256[]",
          "name": "values",
          "type": "uint256[]"
        }
      ],
      "name": "burnBatch",
      "outputs": [],
      "stateMutability": "nonpayable",
      "type": "function"
    },
    {
      "inputs": [],
      "name": "contractURI",
      "outputs": [
        {
          "internalType": "string",
          "name": "",
          "type": "string"
        }
      ],
      "stateMutability": "view",
      "type": "function"
    },
    {
      "inputs": [
        {
          "internalType": "uint256",
          "name": "_packId",
          "type": "uint256"
        }
      ],
      "name": "creator",
      "outputs": [
        {
          "internalType": "address",
          "name": "",
          "type": "address"
        }
      ],
      "stateMutability": "view",
      "type": "function"
    },
    {
      "inputs": [
        {
          "internalType": "uint256",
          "name": "",
          "type": "uint256"
        },
        {
          "internalType": "address",
          "name": "",
          "type": "address"
        }
      ],
      "name": "currentRequestId",
      "outputs": [
        {
          "internalType": "bytes32",
          "name": "",
          "type": "bytes32"
        }
      ],
      "stateMutability": "view",
      "type": "function"
    },
    {
      "inputs": [
        {
          "internalType": "uint256",
          "name": "_packId",
          "type": "uint256"
        }
      ],
      "name": "getPack",
      "outputs": [
        {
          "components": [
            {
              "internalType": "string",
              "name": "uri",
              "type": "string"
            },
            {
              "internalType": "address",
              "name": "creator",
              "type": "address"
            },
            {
              "internalType": "uint256",
              "name": "currentSupply",
              "type": "uint256"
            },
            {
              "internalType": "uint256",
              "name": "openStart",
              "type": "uint256"
            },
            {
              "internalType": "uint256",
              "name": "openEnd",
              "type": "uint256"
            }
          ],
          "internalType": "struct Pack.PackState",
          "name": "pack",
          "type": "tuple"
        }
      ],
      "stateMutability": "view",
      "type": "function"
    },
    {
      "inputs": [
        {
          "internalType": "uint256",
          "name": "_packId",
          "type": "uint256"
        }
      ],
      "name": "getPackWithRewards",
      "outputs": [
        {
          "components": [
            {
              "internalType": "string",
              "name": "uri",
              "type": "string"
            },
            {
              "internalType": "address",
              "name": "creator",
              "type": "address"
            },
            {
              "internalType": "uint256",
              "name": "currentSupply",
              "type": "uint256"
            },
            {
              "internalType": "uint256",
              "name": "openStart",
              "type": "uint256"
            },
            {
              "internalType": "uint256",
              "name": "openEnd",
              "type": "uint256"
            }
          ],
          "internalType": "struct Pack.PackState",
          "name": "pack",
          "type": "tuple"
        },
        {
          "internalType": "address",
          "name": "source",
          "type": "address"
        },
        {
          "internalType": "uint256[]",
          "name": "tokenIds",
          "type": "uint256[]"
        },
        {
          "internalType": "uint256[]",
          "name": "amountsPacked",
          "type": "uint256[]"
        }
      ],
      "stateMutability": "view",
      "type": "function"
    },
    {
      "inputs": [
        {
          "internalType": "bytes32",
          "name": "role",
          "type": "bytes32"
        }
      ],
      "name": "getRoleAdmin",
      "outputs": [
        {
          "internalType": "bytes32",
          "name": "",
          "type": "bytes32"
        }
      ],
      "stateMutability": "view",
      "type": "function"
    },
    {
      "inputs": [
        {
          "internalType": "bytes32",
          "name": "role",
          "type": "bytes32"
        },
        {
          "internalType": "uint256",
          "name": "index",
          "type": "uint256"
        }
      ],
      "name": "getRoleMember",
      "outputs": [
        {
          "internalType": "address",
          "name": "",
          "type": "address"
        }
      ],
      "stateMutability": "view",
      "type": "function"
    },
    {
      "inputs": [
        {
          "internalType": "bytes32",
          "name": "role",
          "type": "bytes32"
        }
      ],
      "name": "getRoleMemberCount",
      "outputs": [
        {
          "internalType": "uint256",
          "name": "",
          "type": "uint256"
        }
      ],
      "stateMutability": "view",
      "type": "function"
    },
    {
      "inputs": [
        {
          "internalType": "bytes32",
          "name": "role",
          "type": "bytes32"
        },
        {
          "internalType": "address",
          "name": "account",
          "type": "address"
        }
      ],
      "name": "grantRole",
      "outputs": [],
      "stateMutability": "nonpayable",
      "type": "function"
    },
    {
      "inputs": [
        {
          "internalType": "bytes32",
          "name": "role",
          "type": "bytes32"
        },
        {
          "internalType": "address",
          "name": "account",
          "type": "address"
        }
      ],
      "name": "hasRole",
      "outputs": [
        {
          "internalType": "bool",
          "name": "",
          "type": "bool"
        }
      ],
      "stateMutability": "view",
      "type": "function"
    },
    {
      "inputs": [
        {
          "internalType": "address",
          "name": "account",
          "type": "address"
        },
        {
          "internalType": "address",
          "name": "operator",
          "type": "address"
        }
      ],
      "name": "isApprovedForAll",
      "outputs": [
        {
          "internalType": "bool",
          "name": "",
          "type": "bool"
        }
      ],
      "stateMutability": "view",
      "type": "function"
    },
    {
      "inputs": [
        {
          "internalType": "address",
          "name": "forwarder",
          "type": "address"
        }
      ],
      "name": "isTrustedForwarder",
      "outputs": [
        {
          "internalType": "bool",
          "name": "",
          "type": "bool"
        }
      ],
      "stateMutability": "view",
      "type": "function"
    },
    {
      "inputs": [
        {
          "internalType": "address",
          "name": "to",
          "type": "address"
        },
        {
          "internalType": "uint256",
          "name": "id",
          "type": "uint256"
        },
        {
          "internalType": "uint256",
          "name": "amount",
          "type": "uint256"
        },
        {
          "internalType": "bytes",
          "name": "data",
          "type": "bytes"
        }
      ],
      "name": "mint",
      "outputs": [],
      "stateMutability": "nonpayable",
      "type": "function"
    },
    {
      "inputs": [
        {
          "internalType": "address",
          "name": "to",
          "type": "address"
        },
        {
          "internalType": "uint256[]",
          "name": "ids",
          "type": "uint256[]"
        },
        {
          "internalType": "uint256[]",
          "name": "amounts",
          "type": "uint256[]"
        },
        {
          "internalType": "bytes",
          "name": "data",
          "type": "bytes"
        }
      ],
      "name": "mintBatch",
      "outputs": [],
      "stateMutability": "nonpayable",
      "type": "function"
    },
    {
      "inputs": [],
      "name": "nextTokenId",
      "outputs": [
        {
          "internalType": "uint256",
          "name": "",
          "type": "uint256"
        }
      ],
      "stateMutability": "view",
      "type": "function"
    },
    {
      "inputs": [
        {
          "internalType": "address",
          "name": "",
          "type": "address"
        },
        {
          "internalType": "address",
          "name": "_from",
          "type": "address"
        },
        {
          "internalType": "uint256[]",
          "name": "_ids",
          "type": "uint256[]"
        },
        {
          "internalType": "uint256[]",
          "name": "_values",
          "type": "uint256[]"
        },
        {
          "internalType": "bytes",
          "name": "_data",
          "type": "bytes"
        }
      ],
      "name": "onERC1155BatchReceived",
      "outputs": [
        {
          "internalType": "bytes4",
          "name": "",
          "type": "bytes4"
        }
      ],
      "stateMutability": "nonpayable",
      "type": "function"
    },
    {
      "inputs": [
        {
          "internalType": "address",
          "name": "",
          "type": "address"
        },
        {
          "internalType": "address",
          "name": "",
          "type": "address"
        },
        {
          "internalType": "uint256",
          "name": "",
          "type": "uint256"
        },
        {
          "internalType": "uint256",
          "name": "",
          "type": "uint256"
        },
        {
          "internalType": "bytes",
          "name": "",
          "type": "bytes"
        }
      ],
      "name": "onERC1155Received",
      "outputs": [
        {
          "internalType": "bytes4",
          "name": "",
          "type": "bytes4"
        }
      ],
      "stateMutability": "nonpayable",
      "type": "function"
    },
    {
      "inputs": [
        {
          "internalType": "uint256",
          "name": "_packId",
          "type": "uint256"
        }
      ],
      "name": "openPack",
      "outputs": [],
      "stateMutability": "nonpayable",
      "type": "function"
    },
    {
      "inputs": [],
      "name": "packRoyaltyBps",
      "outputs": [
        {
          "internalType": "uint256",
          "name": "",
          "type": "uint256"
        }
      ],
      "stateMutability": "view",
      "type": "function"
    },
    {
      "inputs": [
        {
          "internalType": "uint256",
          "name": "",
          "type": "uint256"
        }
      ],
      "name": "packs",
      "outputs": [
        {
          "internalType": "string",
          "name": "uri",
          "type": "string"
        },
        {
          "internalType": "address",
          "name": "creator",
          "type": "address"
        },
        {
          "internalType": "uint256",
          "name": "currentSupply",
          "type": "uint256"
        },
        {
          "internalType": "uint256",
          "name": "openStart",
          "type": "uint256"
        },
        {
          "internalType": "uint256",
          "name": "openEnd",
          "type": "uint256"
        }
      ],
      "stateMutability": "view",
      "type": "function"
    },
    {
      "inputs": [],
      "name": "pause",
      "outputs": [],
      "stateMutability": "nonpayable",
      "type": "function"
    },
    {
      "inputs": [],
      "name": "paused",
      "outputs": [
        {
          "internalType": "bool",
          "name": "",
          "type": "bool"
        }
      ],
      "stateMutability": "view",
      "type": "function"
    },
    {
      "inputs": [
        {
          "internalType": "bytes32",
          "name": "",
          "type": "bytes32"
        }
      ],
      "name": "randomnessRequests",
      "outputs": [
        {
          "internalType": "uint256",
          "name": "packId",
          "type": "uint256"
        },
        {
          "internalType": "address",
          "name": "opener",
          "type": "address"
        }
      ],
      "stateMutability": "view",
      "type": "function"
    },
    {
      "inputs": [
        {
          "internalType": "bytes32",
          "name": "requestId",
          "type": "bytes32"
        },
        {
          "internalType": "uint256",
          "name": "randomness",
          "type": "uint256"
        }
      ],
      "name": "rawFulfillRandomness",
      "outputs": [],
      "stateMutability": "nonpayable",
      "type": "function"
    },
    {
      "inputs": [
        {
          "internalType": "bytes32",
          "name": "role",
          "type": "bytes32"
        },
        {
          "internalType": "address",
          "name": "account",
          "type": "address"
        }
      ],
      "name": "renounceRole",
      "outputs": [],
      "stateMutability": "nonpayable",
      "type": "function"
    },
    {
      "inputs": [
        {
          "internalType": "bytes32",
          "name": "role",
          "type": "bytes32"
        },
        {
          "internalType": "address",
          "name": "account",
          "type": "address"
        }
      ],
      "name": "revokeRole",
      "outputs": [],
      "stateMutability": "nonpayable",
      "type": "function"
    },
    {
      "inputs": [
        {
          "internalType": "uint256",
          "name": "",
          "type": "uint256"
        }
      ],
      "name": "rewards",
      "outputs": [
        {
          "internalType": "address",
          "name": "source",
          "type": "address"
        },
        {
          "internalType": "uint256",
          "name": "rewardsPerOpen",
          "type": "uint256"
        }
      ],
      "stateMutability": "view",
      "type": "function"
    },
    {
      "inputs": [
        {
          "internalType": "uint256",
          "name": "tokenId",
          "type": "uint256"
        },
        {
          "internalType": "uint256",
          "name": "salePrice",
          "type": "uint256"
        }
      ],
      "name": "royaltyInfo",
      "outputs": [
        {
          "internalType": "address",
          "name": "receiver",
          "type": "address"
        },
        {
          "internalType": "uint256",
          "name": "royaltyAmount",
          "type": "uint256"
        }
      ],
      "stateMutability": "view",
      "type": "function"
    },
    {
      "inputs": [
        {
          "internalType": "address",
          "name": "from",
          "type": "address"
        },
        {
          "internalType": "address",
          "name": "to",
          "type": "address"
        },
        {
          "internalType": "uint256[]",
          "name": "ids",
          "type": "uint256[]"
        },
        {
          "internalType": "uint256[]",
          "name": "amounts",
          "type": "uint256[]"
        },
        {
          "internalType": "bytes",
          "name": "data",
          "type": "bytes"
        }
      ],
      "name": "safeBatchTransferFrom",
      "outputs": [],
      "stateMutability": "nonpayable",
      "type": "function"
    },
    {
      "inputs": [
        {
          "internalType": "address",
          "name": "from",
          "type": "address"
        },
        {
          "internalType": "address",
          "name": "to",
          "type": "address"
        },
        {
          "internalType": "uint256",
          "name": "id",
          "type": "uint256"
        },
        {
          "internalType": "uint256",
          "name": "amount",
          "type": "uint256"
        },
        {
          "internalType": "bytes",
          "name": "data",
          "type": "bytes"
        }
      ],
      "name": "safeTransferFrom",
      "outputs": [],
      "stateMutability": "nonpayable",
      "type": "function"
    },
    {
      "inputs": [
        {
          "internalType": "address",
          "name": "operator",
          "type": "address"
        },
        {
          "internalType": "bool",
          "name": "approved",
          "type": "bool"
        }
      ],
      "name": "setApprovalForAll",
      "outputs": [],
      "stateMutability": "nonpayable",
      "type": "function"
    },
    {
      "inputs": [
        {
          "internalType": "uint256",
          "name": "_newFees",
          "type": "uint256"
        }
      ],
      "name": "setChainlinkFees",
      "outputs": [],
      "stateMutability": "nonpayable",
      "type": "function"
    },
    {
      "inputs": [
        {
          "internalType": "string",
          "name": "_URI",
          "type": "string"
        }
      ],
      "name": "setContractURI",
      "outputs": [],
      "stateMutability": "nonpayable",
      "type": "function"
    },
    {
      "inputs": [
        {
          "internalType": "uint256",
          "name": "_royaltyBps",
          "type": "uint256"
        }
      ],
      "name": "setPackRoyaltyBps",
      "outputs": [],
      "stateMutability": "nonpayable",
      "type": "function"
    },
    {
      "inputs": [
        {
          "internalType": "bytes4",
          "name": "interfaceId",
          "type": "bytes4"
        }
      ],
      "name": "supportsInterface",
      "outputs": [
        {
          "internalType": "bool",
          "name": "",
          "type": "bool"
        }
      ],
      "stateMutability": "view",
      "type": "function"
    },
    {
      "inputs": [
        {
          "internalType": "uint256",
          "name": "_id",
          "type": "uint256"
        }
      ],
      "name": "tokenURI",
      "outputs": [
        {
          "internalType": "string",
          "name": "",
          "type": "string"
        }
      ],
      "stateMutability": "view",
      "type": "function"
    },
    {
      "inputs": [
        {
          "internalType": "address",
          "name": "_to",
          "type": "address"
        },
        {
          "internalType": "uint256",
          "name": "_amount",
          "type": "uint256"
        }
      ],
      "name": "transferLink",
      "outputs": [],
      "stateMutability": "nonpayable",
      "type": "function"
    },
    {
      "inputs": [],
      "name": "unpause",
      "outputs": [],
      "stateMutability": "nonpayable",
      "type": "function"
    },
    {
      "inputs": [
        {
          "internalType": "uint256",
          "name": "_id",
          "type": "uint256"
        }
      ],
      "name": "uri",
      "outputs": [
        {
          "internalType": "string",
          "name": "",
          "type": "string"
        }
      ],
      "stateMutability": "view",
      "type": "function"
    },
    {
      "inputs": [],
      "name": "vrfFees",
      "outputs": [
        {
          "internalType": "uint256",
          "name": "",
          "type": "uint256"
        }
      ],
      "stateMutability": "view",
      "type": "function"
    },
    {
      "inputs": [],
      "name": "vrfKeyHash",
      "outputs": [
        {
          "internalType": "bytes32",
          "name": "",
          "type": "bytes32"
        }
      ],
      "stateMutability": "view",
      "type": "function"
    }
  ],
  "bytecode": "0x60c06040523480156200001157600080fd5b5060405162005c5e38038062005c5e833981016040819052620000349162000412565b808585888062000044816200013a565b506005805460ff191690556200006560006200005f62000153565b62000170565b620000947f9f2df0fed2c77648de5860a4cc508cd0818c85b8b8a1ab4ceeef8d981c8956a66200005f62000153565b620000c37f65d7a28e3265b37a6474929f336521b332c1681b933f6cb9f3376673440d862a6200005f62000153565b506001600160601b0319606092831b811660a052911b16608052600780546001600160a01b039283166001600160a01b03199182161790915560088054928a1692909116919091179055600b839055600a82905585516200012c90600d90602089019062000354565b505050505050505062000596565b80516200014f90600490602084019062000354565b5050565b60006200016a620001b360201b62001eb71760201c565b90505b90565b620001878282620001f360201b62001ee51760201c565b6000828152600160209081526040909120620001ae91839062001eef620001ff821b17901c565b505050565b6000620001c0336200021f565b15620001d6575060131936013560601c6200016d565b620001eb6200023660201b62001f041760201c565b90506200016d565b6200014f82826200023a565b600062000216836001600160a01b038416620002c4565b90505b92915050565b6007546001600160a01b038281169116145b919050565b3390565b62000246828262000313565b6200014f576000828152602081815260408083206001600160a01b03851684529091529020805460ff191660011790556200028062000153565b6001600160a01b0316816001600160a01b0316837f2f8788117e7eff1d82e926ec794901d17c78024a50270940304540a733656f0d60405160405180910390a45050565b6000620002d283836200033c565b6200030a5750815460018181018455600084815260208082209093018490558454848252828601909352604090209190915562000219565b50600062000219565b6000918252602082815260408084206001600160a01b0393909316845291905290205460ff1690565b60009081526001919091016020526040902054151590565b828054620003629062000543565b90600052602060002090601f016020900481019282620003865760008555620003d1565b82601f10620003a157805160ff1916838001178555620003d1565b82800160010185558215620003d1579182015b82811115620003d1578251825591602001919060010190620003b4565b50620003df929150620003e3565b5090565b5b80821115620003df5760008155600101620003e4565b80516001600160a01b03811681146200023157600080fd5b600080600080600080600060e0888a0312156200042d578283fd5b6200043888620003fa565b602089810151919850906001600160401b038082111562000457578586fd5b818b0191508b601f8301126200046b578586fd5b81518181111562000480576200048062000580565b604051601f8201601f1916810185018381118282101715620004a657620004a662000580565b60405281815283820185018e1015620004bd578788fd5b8792505b81831015620004e05783830185015181840186015291840191620004c1565b81831115620004f157878583830101525b809a5050505050506200050760408901620003fa565b94506200051760608901620003fa565b93506080880151925060a088015191506200053560c08901620003fa565b905092959891949750929550565b6002810460018216806200055857607f821691505b602082108114156200057a57634e487b7160e01b600052602260045260246000fd5b50919050565b634e487b7160e01b600052604160045260246000fd5b60805160601c60a05160601c615687620005d7600039600081816116fb01526124dc0152600081816110f601528181611e0f01526124ad01526156876000f3fe608060405234801561001057600080fd5b506004361061032a5760003560e01c806375794a3c116101b2578063c0e72740116100f9578063e8a3d485116100a2578063f242432a1161007c578063f242432a14610692578063f301af42146106a5578063f5298aca146106b8578063f99b1d68146106cb5761032a565b8063e8a3d48514610664578063e985e9c51461066c578063f23a6e611461067f5761032a565b8063d5391393116100d3578063d539139314610641578063d547741f14610649578063e63ab1e91461065c5761032a565b8063c0e7274014610626578063c87b56dd14610380578063ca15c8731461062e5761032a565b806394985ddd1161015b578063b277ca4511610135578063b277ca45146105cf578063b84c1392146105e2578063bc197c81146106065761032a565b806394985ddd146105a1578063a217fddf146105b4578063a22cb465146105bc5761032a565b80639010d07c1161018c5780639010d07c1461056857806391d148541461057b578063938e3d7b1461058e5761032a565b806375794a3c146105385780638456cb5914610540578063895ec54c146105485761032a565b80632f2ff15d116102765780635318c48f1161021f5780635e619b78116101f95780635e619b78146104f15780636b20c45414610512578063731133e9146105255761032a565b80635318c48f146104c3578063572b6c05146104d65780635c975abb146104e95761032a565b80634e1273f4116102505780634e1273f41461047057806350a88c7e14610490578063510b5158146104a35761032a565b80632f2ff15d1461044257806336568abe146104555780633f4ba83a146104685761032a565b80631d64b18e116102d8578063248a9ca3116102b2578063248a9ca3146103fb5780632a55205a1461040e5780632eb2c2d61461042f5761032a565b80631d64b18e146103cb5780631f7fdffa146103d3578063238566ab146103e85761032a565b80630e89341c116103095780630e89341c1461038057806310983e57146103a057806310e34e67146103a85761032a565b8062fdd58e1461032f57806301ffc9a714610358578063041d443e14610378575b600080fd5b61034261033d36600461413f565b6106de565b60405161034f919061477e565b60405180910390f35b61036b61036636600461433a565b61073a565b60405161034f9190614773565b61034261074d565b61039361038e3660046142c7565b610753565b60405161034f91906147fe565b6103426107f5565b6103bb6103b63660046142c7565b6107fb565b60405161034f949392919061532c565b6103426109c7565b6103e66103e1366004614074565b6109cd565b005b6103e66103f63660046142c7565b610a27565b6103426104093660046142c7565b610c33565b61042161041c366004614319565b610c48565b60405161034f9291906146f1565b6103e661043d366004613efa565b610d0c565b6103e66104503660046142f7565b610d6a565b6103e66104633660046142f7565b610d91565b6103e6610db3565b61048361047e3660046141ed565b610e05565b60405161034f919061473b565b6103e661049e3660046142c7565b610f25565b6104b66104b13660046142c7565b611322565b60405161034f91906145e4565b6103426104d13660046142f7565b611340565b61036b6104e4366004613eb7565b61135d565b61036b611371565b6105046104ff3660046142c7565b61137b565b60405161034f929190614787565b6103e6610520366004614003565b61139d565b6103e661053336600461419a565b6113f2565b610342611446565b6103e661144c565b61055b6105563660046142c7565b61149c565b60405161034f9190615319565b6104b6610576366004614319565b611586565b61036b6105893660046142f7565b6115a5565b6103e661059c366004614372565b6115ce565b6103e66105af366004614319565b6116f0565b610342611746565b6103e66105ca366004614109565b61174b565b6103e66105dd3660046142c7565b611819565b6105f56105f03660046142c7565b611934565b60405161034f959493929190614811565b610619610614366004613efa565b6119f5565b60405161034f91906147db565b610393611a46565b61034261063c3660046142c7565b611ad4565b610342611aeb565b6103e66106573660046142f7565b611b0f565b610342611b19565b610393611b3d565b61036b61067a366004613ed1565b611bcf565b61061961068d366004613fa0565b611bfd565b6103e66106a0366004613fa0565b611c0e565b6104216106b33660046142c7565b611c65565b6103e66106c6366004614168565b611c8a565b6103e66106d936600461413f565b611cdf565b60006001600160a01b03831661070f5760405162461bcd60e51b815260040161070690614a31565b60405180910390fd5b5060008181526002602090815260408083206001600160a01b03861684529091529020545b92915050565b600061074582611f08565b90505b919050565b600b5481565b6000818152600e6020526040902080546060919061077090615502565b80601f016020809104026020016040519081016040528092919081815260200182805461079c90615502565b80156107e95780601f106107be576101008083540402835291602001916107e9565b820191906000526020600020905b8154815290600101906020018083116107cc57829003601f168201915b50505050509050919050565b600a5481565b610803613c69565b6000606080600e60008681526020019081526020016000206040518060a001604052908160008201805461083690615502565b80601f016020809104026020016040519081016040528092919081815260200182805461086290615502565b80156108af5780601f10610884576101008083540402835291602001916108af565b820191906000526020600020905b81548152906001019060200180831161089257829003601f168201915b50505091835250506001828101546001600160a01b0390811660208085019190915260028501546040808601919091526003860154606086015260049095015460809094019390935260008a8152600f84528490208054920180548551818602810186019096528086529599509116965091929083018282801561095257602002820191906000526020600020905b81548152602001906001019080831161093e575b50505050509150600f60008681526020019081526020016000206002018054806020026020016040519081016040528092919081815260200182805480156109b957602002820191906000526020600020905b8154815260200190600101908083116109a5575b505050505090509193509193565b600c5481565b6109f97f9f2df0fed2c77648de5860a4cc508cd0818c85b8b8a1ab4ceeef8d981c8956a6610589611f48565b610a155760405162461bcd60e51b815260040161070690614eff565b610a2184848484611f57565b50505050565b60085460408051634a32c6bf60e11b815290516001600160a01b03909216916391d148549183916394658d7e91600480820192602092909190829003018186803b158015610a7457600080fd5b505afa158015610a88573d6000803e3d6000fd5b505050506040513d601f19601f82011682018060405250810190610aac91906142df565b610ab4611f48565b6040518363ffffffff1660e01b8152600401610ad1929190614787565b60206040518083038186803b158015610ae957600080fd5b505afa158015610afd573d6000803e3d6000fd5b505050506040513d601f19601f82011682018060405250810190610b2191906142ab565b610b3d5760405162461bcd60e51b815260040161070690614940565b600860009054906101000a90046001600160a01b03166001600160a01b031663fd967f476040518163ffffffff1660e01b815260040160206040518083038186803b158015610b8b57600080fd5b505afa158015610b9f573d6000803e3d6000fd5b505050506040513d601f19601f82011682018060405250810190610bc3919061446d565b6fffffffffffffffffffffffffffffffff168110610bf35760405162461bcd60e51b815260040161070690614c20565b600c8190556040517f18df997df447ad234684c1707c641c0bda90e308ab6a764f6d9ba74ac407b95c90610c2890839061477e565b60405180910390a150565b60009081526020819052604090206001015490565b6000828152600e6020908152604080832060010154600854825163fd967f4760e01b815292516001600160a01b039283169594919092169263fd967f479260048083019392829003018186803b158015610ca157600080fd5b505afa158015610cb5573d6000803e3d6000fd5b505050506040513d601f19601f82011682018060405250810190610cd9919061446d565b6fffffffffffffffffffffffffffffffff16600c5484610cf99190615489565b610d039190615475565b90509250929050565b610d14611f48565b6001600160a01b0316856001600160a01b03161480610d3a5750610d3a8561067a611f48565b610d565760405162461bcd60e51b815260040161070690614e5f565b610d6385858585856120d9565b5050505050565b610d7482826122ad565b6000828152600160205260409020610d8c9082611eef565b505050565b610d9b82826122d1565b6000828152600160205260409020610d8c9082612313565b610ddf7f65d7a28e3265b37a6474929f336521b332c1681b933f6cb9f3376673440d862a610589611f48565b610dfb5760405162461bcd60e51b815260040161070690614ff0565b610e03612328565b565b60608151835114610e285760405162461bcd60e51b815260040161070690615164565b6000835167ffffffffffffffff811115610e5257634e487b7160e01b600052604160045260246000fd5b604051908082528060200260200182016040528015610e7b578160200160208202803683370190505b50905060005b8451811015610f1d57610ee2858281518110610ead57634e487b7160e01b600052603260045260246000fd5b6020026020010151858381518110610ed557634e487b7160e01b600052603260045260246000fd5b60200260200101516106de565b828281518110610f0257634e487b7160e01b600052603260045260246000fd5b6020908102919091010152610f1681615537565b9050610e81565b509392505050565b600860009054906101000a90046001600160a01b03166001600160a01b0316639d2f83f06040518163ffffffff1660e01b815260040160206040518083038186803b158015610f7357600080fd5b505afa158015610f87573d6000803e3d6000fd5b505050506040513d601f19601f82011682018060405250810190610fab91906142ab565b15610fc85760405162461bcd60e51b815260040161070690614d37565b6000818152600e6020526040808220815160a08101909252805482908290610fef90615502565b80601f016020809104026020016040519081016040528092919081815260200182805461101b90615502565b80156110685780601f1061103d57610100808354040283529160200191611068565b820191906000526020600020905b81548152906001019060200180831161104b57829003601f168201915b505050918352505060018201546001600160a01b0316602082015260028201546040820152600382015460608083019190915260049092015460809091015281015190915042108015906110c0575080608001514211155b6110dc5760405162461bcd60e51b81526004016107069061499d565b600a546040516370a0823160e01b81526001600160a01b037f000000000000000000000000000000000000000000000000000000000000000016906370a082319061112b9030906004016145e4565b60206040518083038186803b15801561114357600080fd5b505afa158015611157573d6000803e3d6000fd5b505050506040513d601f19601f8201168201806040525081019061117b91906142df565b10156111995760405162461bcd60e51b815260040161070690614c7d565b60006111ac6111a6611f48565b846106de565b116111c95760405162461bcd60e51b8152600401610706906150aa565b6000828152601160205260408120906111e0611f48565b6001600160a01b03168152602081019190915260400160002054156112175760405162461bcd60e51b815260040161070690614d6e565b61122a611222611f48565b836001612396565b600061123a600b54600a546124a9565b90506040518060400160405280848152602001611255611f48565b6001600160a01b03908116909152600083815260106020908152604080832085518155948201516001909501805473ffffffffffffffffffffffffffffffffffffffff19169590941694909417909255858152601190915290812082916112ba611f48565b6001600160a01b031681526020810191909152604001600020556112dc611f48565b6001600160a01b0316837fb5c27afec62496e403fae78e07136ae7c58425e8128c7b680ea24dee8c8d940183604051611315919061477e565b60405180910390a3505050565b6000908152600e60205260409020600101546001600160a01b031690565b601160209081526000928352604080842090915290825290205481565b6007546001600160a01b0390811691161490565b60055460ff165b90565b601060205260009081526040902080546001909101546001600160a01b031682565b6113a5611f48565b6001600160a01b0316836001600160a01b031614806113cb57506113cb8361067a611f48565b6113e75760405162461bcd60e51b815260040161070690614b8c565b610d8c8383836125ec565b61141e7f9f2df0fed2c77648de5860a4cc508cd0818c85b8b8a1ab4ceeef8d981c8956a6610589611f48565b61143a5760405162461bcd60e51b815260040161070690614eff565b610a21848484846127a0565b60095481565b6114787f65d7a28e3265b37a6474929f336521b332c1681b933f6cb9f3376673440d862a610589611f48565b6114945760405162461bcd60e51b81526004016107069061504d565b610e03612891565b6114a4613c69565b6000828152600e602052604090819020815160a081019092528054829082906114cc90615502565b80601f01602080910402602001604051908101604052809291908181526020018280546114f890615502565b80156115455780601f1061151a57610100808354040283529160200191611545565b820191906000526020600020905b81548152906001019060200180831161152857829003601f168201915b505050918352505060018201546001600160a01b03166020820152600282015460408201526003820154606082015260049091015460809091015292915050565b600082815260016020526040812061159e90836128ec565b9392505050565b6000918252602082815260408084206001600160a01b0393909316845291905290205460ff1690565b60085460408051634a32c6bf60e11b815290516001600160a01b03909216916391d148549183916394658d7e91600480820192602092909190829003018186803b15801561161b57600080fd5b505afa15801561162f573d6000803e3d6000fd5b505050506040513d601f19601f8201168201806040525081019061165391906142df565b61165b611f48565b6040518363ffffffff1660e01b8152600401611678929190614787565b60206040518083038186803b15801561169057600080fd5b505afa1580156116a4573d6000803e3d6000fd5b505050506040513d601f19601f820116820180604052508101906116c891906142ab565b6116e45760405162461bcd60e51b815260040161070690614940565b610d8c600d8383613ca1565b336001600160a01b037f000000000000000000000000000000000000000000000000000000000000000016146117385760405162461bcd60e51b815260040161070690614fb9565b61174282826128f8565b5050565b600081565b816001600160a01b031661175d611f48565b6001600160a01b031614156117845760405162461bcd60e51b815260040161070690615107565b8060036000611791611f48565b6001600160a01b03908116825260208083019390935260409182016000908120918716808252919093529120805460ff1916921515929092179091556117d5611f48565b6001600160a01b03167f17307eab39ab6107e8899845ad3d59bd9653f200f220920489ca2b5937696c318360405161180d9190614773565b60405180910390a35050565b60085460408051634a32c6bf60e11b815290516001600160a01b03909216916391d148549183916394658d7e91600480820192602092909190829003018186803b15801561186657600080fd5b505afa15801561187a573d6000803e3d6000fd5b505050506040513d601f19601f8201168201806040525081019061189e91906142df565b6118a6611f48565b6040518363ffffffff1660e01b81526004016118c3929190614787565b60206040518083038186803b1580156118db57600080fd5b505afa1580156118ef573d6000803e3d6000fd5b505050506040513d601f19601f8201168201806040525081019061191391906142ab565b61192f5760405162461bcd60e51b815260040161070690614940565b600a55565b600e6020526000908152604090208054819061194f90615502565b80601f016020809104026020016040519081016040528092919081815260200182805461197b90615502565b80156119c85780601f1061199d576101008083540402835291602001916119c8565b820191906000526020600020905b8154815290600101906020018083116119ab57829003601f168201915b5050505060018301546002840154600385015460049095015493946001600160a01b039092169390925085565b600080600080600085806020019051810190611a1191906143df565b9350935093509350611a308985611a26611f48565b8b8b888888612af1565b5063bc197c8160e01b9998505050505050505050565b600d8054611a5390615502565b80601f0160208091040260200160405190810160405280929190818152602001828054611a7f90615502565b8015611acc5780601f10611aa157610100808354040283529160200191611acc565b820191906000526020600020905b815481529060010190602001808311611aaf57829003601f168201915b505050505081565b600081815260016020526040812061074590612e98565b7f9f2df0fed2c77648de5860a4cc508cd0818c85b8b8a1ab4ceeef8d981c8956a681565b610d9b8282612ea3565b7f65d7a28e3265b37a6474929f336521b332c1681b933f6cb9f3376673440d862a81565b6060600d8054611b4c90615502565b80601f0160208091040260200160405190810160405280929190818152602001828054611b7890615502565b8015611bc55780601f10611b9a57610100808354040283529160200191611bc5565b820191906000526020600020905b815481529060010190602001808311611ba857829003601f168201915b5050505050905090565b6001600160a01b03918216600090815260036020908152604080832093909416825291909152205460ff1690565b63f23a6e6160e01b95945050505050565b611c16611f48565b6001600160a01b0316856001600160a01b03161480611c3c5750611c3c8561067a611f48565b611c585760405162461bcd60e51b815260040161070690614b8c565b610d638585858585612ec2565b600f60205260009081526040902080546003909101546001600160a01b039091169082565b611c92611f48565b6001600160a01b0316836001600160a01b03161480611cb85750611cb88361067a611f48565b611cd45760405162461bcd60e51b815260040161070690614b8c565b610d8c838383612396565b60085460408051634a32c6bf60e11b815290516001600160a01b03909216916391d148549183916394658d7e91600480820192602092909190829003018186803b158015611d2c57600080fd5b505afa158015611d40573d6000803e3d6000fd5b505050506040513d601f19601f82011682018060405250810190611d6491906142df565b611d6c611f48565b6040518363ffffffff1660e01b8152600401611d89929190614787565b60206040518083038186803b158015611da157600080fd5b505afa158015611db5573d6000803e3d6000fd5b505050506040513d601f19601f82011682018060405250810190611dd991906142ab565b611df55760405162461bcd60e51b815260040161070690614940565b60405163a9059cbb60e01b81526000906001600160a01b037f0000000000000000000000000000000000000000000000000000000000000000169063a9059cbb90611e4690869086906004016146f1565b602060405180830381600087803b158015611e6057600080fd5b505af1158015611e74573d6000803e3d6000fd5b505050506040513d601f19601f82011682018060405250810190611e9891906142ab565b905080610d8c5760405162461bcd60e51b815260040161070690614be9565b6000611ec23361135d565b15611ed6575060131936013560601c611378565b611ede611f04565b9050611378565b6117428282612ffa565b600061159e836001600160a01b03841661307f565b3390565b60006001600160e01b03198216636cdb3d1360e11b1480611f3957506001600160e01b031982166303a24d0760e21b145b806107455750610745826130c9565b6000611f52611eb7565b905090565b6001600160a01b038416611f7d5760405162461bcd60e51b81526004016107069061521e565b8151835114611f9e5760405162461bcd60e51b8152600401610706906151c1565b6000611fa8611f48565b9050611fb9816000878787876130ee565b60005b845181101561207157838181518110611fe557634e487b7160e01b600052603260045260246000fd5b60200260200101516002600087848151811061201157634e487b7160e01b600052603260045260246000fd5b602002602001015181526020019081526020016000206000886001600160a01b03166001600160a01b031681526020019081526020016000206000828254612059919061545d565b9091555081905061206981615537565b915050611fbc565b50846001600160a01b031660006001600160a01b0316826001600160a01b03167f4a39dc06d4c0dbc64b70af90fd698a233a518aa5d07e595d983b8c0526c8f7fb87876040516120c292919061474e565b60405180910390a4610d63816000878787876131a2565b81518351146120fa5760405162461bcd60e51b8152600401610706906151c1565b6001600160a01b0384166121205760405162461bcd60e51b815260040161070690614e02565b600061212a611f48565b905061213a8187878787876130ee565b60005b845181101561223f57600085828151811061216857634e487b7160e01b600052603260045260246000fd5b60200260200101519050600085838151811061219457634e487b7160e01b600052603260045260246000fd5b60209081029190910181015160008481526002835260408082206001600160a01b038e1683529093529190912054909150818110156121e55760405162461bcd60e51b815260040161070690614f5c565b60008381526002602090815260408083206001600160a01b038e8116855292528083208585039055908b1682528120805484929061222490849061545d565b925050819055505050508061223890615537565b905061213d565b50846001600160a01b0316866001600160a01b0316826001600160a01b03167f4a39dc06d4c0dbc64b70af90fd698a233a518aa5d07e595d983b8c0526c8f7fb878760405161228f92919061474e565b60405180910390a46122a58187878787876131a2565b505050505050565b6122b682610c33565b6122c7816122c2611f48565b6132b0565b610d8c8383612ffa565b6122d9611f48565b6001600160a01b0316816001600160a01b0316146123095760405162461bcd60e51b8152600401610706906152bc565b6117428282613314565b600061159e836001600160a01b038416613397565b612330611371565b61234c5760405162461bcd60e51b8152600401610706906149fa565b6005805460ff191690557f5db9ee0a495bf2e6ff9c91a7834c1ba4fdd244a5e8aa4e537bd38aeae4b073aa61237f611f48565b60405161238c91906145e4565b60405180910390a1565b6001600160a01b0383166123bc5760405162461bcd60e51b815260040161070690614ebc565b60006123c6611f48565b90506123f6818560006123d8876134b4565b6123e1876134b4565b604051806020016040528060008152506130ee565b60008381526002602090815260408083206001600160a01b0388168452909152902054828110156124395760405162461bcd60e51b815260040161070690614a8e565b60008481526002602090815260408083206001600160a01b03808a16808652919093528184208786039055905190918516907fc3d58168c5ae7397731d063d5bbf3d657854427343f4c083240f7aacaa2d0f629061249a9089908990614555565b60405180910390a45050505050565b60007f00000000000000000000000000000000000000000000000000000000000000006001600160a01b0316634000aea07f000000000000000000000000000000000000000000000000000000000000000084866000604051602001612510929190614555565b6040516020818303038152906040526040518463ffffffff1660e01b815260040161253d9392919061470a565b602060405180830381600087803b15801561255757600080fd5b505af115801561256b573d6000803e3d6000fd5b505050506040513d601f19601f8201168201806040525081019061258f91906142ab565b506000838152600660205260408120546125ae9085908390309061350d565b6000858152600660205260409020549091506125cb90600161545d565b6000858152600660205260409020556125e48482613547565b949350505050565b6001600160a01b0383166126125760405162461bcd60e51b815260040161070690614ebc565b80518251146126335760405162461bcd60e51b8152600401610706906151c1565b600061263d611f48565b905061265d818560008686604051806020016040528060008152506130ee565b60005b835181101561274157600084828151811061268b57634e487b7160e01b600052603260045260246000fd5b6020026020010151905060008483815181106126b757634e487b7160e01b600052603260045260246000fd5b60209081029190910181015160008481526002835260408082206001600160a01b038c1683529093529190912054909150818110156127085760405162461bcd60e51b815260040161070690614a8e565b60009283526002602090815260408085206001600160a01b038b168652909152909220910390558061273981615537565b915050612660565b5060006001600160a01b0316846001600160a01b0316826001600160a01b03167f4a39dc06d4c0dbc64b70af90fd698a233a518aa5d07e595d983b8c0526c8f7fb868660405161279292919061474e565b60405180910390a450505050565b6001600160a01b0384166127c65760405162461bcd60e51b81526004016107069061521e565b60006127d0611f48565b90506127f1816000876127e2886134b4565b6127eb886134b4565b876130ee565b60008481526002602090815260408083206001600160a01b03891684529091528120805485929061282390849061545d565b92505081905550846001600160a01b031660006001600160a01b0316826001600160a01b03167fc3d58168c5ae7397731d063d5bbf3d657854427343f4c083240f7aacaa2d0f62878760405161287a929190614555565b60405180910390a4610d638160008787878761357a565b612899611371565b156128b65760405162461bcd60e51b815260040161070690614dcb565b6005805460ff191660011790557f62e78cea01bee320cd4e420270b5ea74000d11b0c9f74754ebdbfc544b05a25861237f611f48565b600061159e838361364b565b60008281526010602090815260408083208151808301835281548082526001928301546001600160a01b03908116838701819052828852601187528588208189528752858820889055828852600f875285882086516080810188528154909316835294850180548751818a0281018a019098528088529498939791969395929492938583019390928301828280156129af57602002820191906000526020600020905b81548152602001906001019080831161299b575b5050505050815260200160028201805480602002602001604051908101604052809291908181526020018280548015612a0757602002820191906000526020600020905b8154815260200190600101908083116129f3575b505050505081526020016003820154815250509050600080612a2a858885613683565b8451604051631759616b60e11b81529294509092506001600160a01b031690632eb2c2d690612a63903090889087908790600401614656565b600060405180830381600087803b158015612a7d57600080fd5b505af1158015612a91573d6000803e3d6000fd5b5050505082600001516001600160a01b0316846001600160a01b0316867f9cae8e743935573869e2fe7223782448d71211235c93076166106782de1c234f8b86604051612adf92919061479e565b60405180910390a45050505050505050565b600860009054906101000a90046001600160a01b03166001600160a01b0316639d2f83f06040518163ffffffff1660e01b815260040160206040518083038186803b158015612b3f57600080fd5b505afa158015612b53573d6000803e3d6000fd5b505050506040513d601f19601f82011682018060405250810190612b7791906142ab565b15612b945760405162461bcd60e51b815260040161070690614d37565b612bbe7f9f2df0fed2c77648de5860a4cc508cd0818c85b8b8a1ab4ceeef8d981c8956a6896115a5565b612bda5760405162461bcd60e51b815260040161070690614ad2565b6040516301ffc9a760e01b81526001600160a01b038716906301ffc9a790612c0a9063d9b67a26906004016147f0565b60206040518083038186803b158015612c2257600080fd5b505afa158015612c36573d6000803e3d6000fd5b505050506040513d601f19601f82011682018060405250810190612c5a91906142ab565b612c765760405162461bcd60e51b81526004016107069061525f565b6000612c8185613991565b9050612c8d8282615552565b15612caa5760405162461bcd60e51b815260040161070690614cda565b6000612cb46139eb565b90506000612cc28484615475565b905060006040518060a001604052808c81526020018d6001600160a01b031681526020018381526020018842612cf8919061545d565b81526020018715612d1257612d0d884261545d565b612d16565b6000195b9052604080516080810182526001600160a01b038d16815260208082018d90528183018c9052606082018990526000878152600e82529290922083518051949550919385939192612d6b928492910190613d25565b50602082810151600180840180546001600160a01b0393841673ffffffffffffffffffffffffffffffffffffffff19918216179091556040808701516002870155606087015160038701556080909601516004909501949094556000898152600f845294909420855181549216919093161782558381015180518594612df693908501920190613d99565b5060408201518051612e12916002840191602090910190613d99565b5060608201518160030155905050612e3b8d8585604051806020016040528060008152506127a0565b8c6001600160a01b03168b6001600160a01b0316857f9330e9dfd1e803e5d709edb2ad6657b74cb0fb1f182bd63fdbbcb01a463e8ad08585604051612e81929190615374565b60405180910390a450505050505050505050505050565b600061074582613a09565b612eac82610c33565b612eb8816122c2611f48565b610d8c8383613314565b6001600160a01b038416612ee85760405162461bcd60e51b815260040161070690614e02565b6000612ef2611f48565b9050612f038187876127e2886134b4565b60008481526002602090815260408083206001600160a01b038a16845290915290205483811015612f465760405162461bcd60e51b815260040161070690614f5c565b60008581526002602090815260408083206001600160a01b038b8116855292528083208785039055908816825281208054869290612f8590849061545d565b92505081905550856001600160a01b0316876001600160a01b0316836001600160a01b03167fc3d58168c5ae7397731d063d5bbf3d657854427343f4c083240f7aacaa2d0f628888604051612fdb929190614555565b60405180910390a4612ff182888888888861357a565b50505050505050565b61300482826115a5565b611742576000828152602081815260408083206001600160a01b03851684529091529020805460ff1916600117905561303b611f48565b6001600160a01b0316816001600160a01b0316837f2f8788117e7eff1d82e926ec794901d17c78024a50270940304540a733656f0d60405160405180910390a45050565b600061308b8383613a0d565b6130c157508154600181810184556000848152602080822090930184905584548482528286019093526040902091909155610734565b506000610734565b60006001600160e01b03198216635a05180f60e01b1480610745575061074582613a25565b6130fc868686868686613a4a565b6001600160a01b0384166122a55760005b8351811015612ff15782818151811061313657634e487b7160e01b600052603260045260246000fd5b6020026020010151600e600086848151811061316257634e487b7160e01b600052603260045260246000fd5b60200260200101518152602001908152602001600020600201600082825461318a91906154a8565b9091555061319b905060018261545d565b905061310d565b6131b4846001600160a01b0316613a58565b156122a55760405163bc197c8160e01b81526001600160a01b0385169063bc197c81906131ed90899089908890889088906004016145f8565b602060405180830381600087803b15801561320757600080fd5b505af1925050508015613237575060408051601f3d908101601f1916820190925261323491810190614356565b60015b613280576132436155ae565b8061324e5750613268565b8060405162461bcd60e51b815260040161070691906147fe565b60405162461bcd60e51b815260040161070690614851565b6001600160e01b0319811663bc197c8160e01b14612ff15760405162461bcd60e51b8152600401610706906148e3565b6132ba82826115a5565b611742576132d2816001600160a01b03166014613a5e565b6132dd836020613a5e565b6040516020016132ee929190614563565b60408051601f198184030181529082905262461bcd60e51b8252610706916004016147fe565b61331e82826115a5565b15611742576000828152602081815260408083206001600160a01b03851684529091529020805460ff19169055613353611f48565b6001600160a01b0316816001600160a01b0316837ff6391f5c32d9c69d2a47ea670b442974b53935d1edc7fd64eb21e047a839171b60405160405180910390a45050565b600081815260018301602052604081205480156134aa5760006133bb6001836154a8565b85549091506000906133cf906001906154a8565b90508181146134505760008660000182815481106133fd57634e487b7160e01b600052603260045260246000fd5b906000526020600020015490508087600001848154811061342e57634e487b7160e01b600052603260045260246000fd5b6000918252602080832090910192909255918252600188019052604090208390555b855486908061346f57634e487b7160e01b600052603160045260246000fd5b600190038181906000526020600020016000905590558560010160008681526020019081526020016000206000905560019350505050610734565b6000915050610734565b604080516001808252818301909252606091600091906020808301908036833701905050905082816000815181106134fc57634e487b7160e01b600052603260045260246000fd5b602090810291909101015292915050565b60008484848460405160200161352694939291906147b7565b60408051601f19818403018152919052805160209091012095945050505050565b6000828260405160200161355c929190614555565b60405160208183030381529060405280519060200120905092915050565b61358c846001600160a01b0316613a58565b156122a55760405163f23a6e6160e01b81526001600160a01b0385169063f23a6e61906135c590899089908890889088906004016146ae565b602060405180830381600087803b1580156135df57600080fd5b505af192505050801561360f575060408051601f3d908101601f1916820190925261360c91810190614356565b60015b61361b576132436155ae565b6001600160e01b0319811663f23a6e6160e01b14612ff15760405162461bcd60e51b8152600401610706906148e3565b600082600001828154811061367057634e487b7160e01b600052603260045260246000fd5b9060005260206000200154905092915050565b60608060006136958460400151613991565b9050600080856060015167ffffffffffffffff8111156136c557634e487b7160e01b600052604160045260246000fd5b6040519080825280602002602001820160405280156136ee578160200160208202803683370190505b509450856060015167ffffffffffffffff81111561371c57634e487b7160e01b600052604160045260246000fd5b604051908082528060200260200182016040528015613745578160200160208202803683370190505b50935060005b86606001518110156139085783888260405160200161376b929190614555565b6040516020818303038152906040528051906020012060001c61378e9190615552565b915060005b8760200151518110156138f55783886040015182815181106137c557634e487b7160e01b600052603260045260246000fd5b60200260200101516137d7919061545d565b8310156138aa578760200151818151811061380257634e487b7160e01b600052603260045260246000fd5b602002602001015187838151811061382a57634e487b7160e01b600052603260045260246000fd5b602002602001018181525050600186838151811061385857634e487b7160e01b600052603260045260246000fd5b60200260200101818152505060018860400151828151811061388a57634e487b7160e01b600052603260045260246000fd5b6020026020010181815161389e91906154a8565b905250600093506138f5565b876040015181815181106138ce57634e487b7160e01b600052603260045260246000fd5b6020026020010151846138e1919061545d565b93506138ee60018261545d565b9050613793565b5061390160018261545d565b905061374b565b506000888152600f602090815260409091208751815473ffffffffffffffffffffffffffffffffffffffff19166001600160a01b03909116178155878201518051899361395c926001850192910190613d99565b5060408201518051613978916002840191602090910190613d99565b5060608201518160030155905050505050935093915050565b6000805b82518110156139e5578281815181106139be57634e487b7160e01b600052603260045260246000fd5b6020026020010151826139d1919061545d565b91506139de60018261545d565b9050613995565b50919050565b600980549060019060006139ff838561545d565b9250508190555090565b5490565b60009081526001919091016020526040902054151590565b60006001600160e01b03198216637965db0b60e01b1480610745575061074582613c1d565b6122a5868686868686613c36565b3b151590565b60606000613a6d836002615489565b613a7890600261545d565b67ffffffffffffffff811115613a9e57634e487b7160e01b600052604160045260246000fd5b6040519080825280601f01601f191660200182016040528015613ac8576020820181803683370190505b509050600360fc1b81600081518110613af157634e487b7160e01b600052603260045260246000fd5b60200101906001600160f81b031916908160001a905350600f60fb1b81600181518110613b2e57634e487b7160e01b600052603260045260246000fd5b60200101906001600160f81b031916908160001a9053506000613b52846002615489565b613b5d90600161545d565b90505b6001811115613bfe577f303132333435363738396162636465660000000000000000000000000000000085600f1660108110613bac57634e487b7160e01b600052603260045260246000fd5b1a60f81b828281518110613bd057634e487b7160e01b600052603260045260246000fd5b60200101906001600160f81b031916908160001a90535060049490941c93613bf7816154eb565b9050613b60565b50831561159e5760405162461bcd60e51b8152600401610706906148ae565b6001600160e01b031981166301ffc9a760e01b14919050565b613c448686868686866122a5565b613c4c611371565b156122a55760405162461bcd60e51b815260040161070690614b2f565b6040518060a001604052806060815260200160006001600160a01b031681526020016000815260200160008152602001600081525090565b828054613cad90615502565b90600052602060002090601f016020900481019282613ccf5760008555613d15565b82601f10613ce85782800160ff19823516178555613d15565b82800160010185558215613d15579182015b82811115613d15578235825591602001919060010190613cfa565b50613d21929150613dd3565b5090565b828054613d3190615502565b90600052602060002090601f016020900481019282613d535760008555613d15565b82601f10613d6c57805160ff1916838001178555613d15565b82800160010185558215613d15579182015b82811115613d15578251825591602001919060010190613d7e565b828054828255906000526020600020908101928215613d155791602002820182811115613d15578251825591602001919060010190613d7e565b5b80821115613d215760008155600101613dd4565b80356001600160a01b038116811461074857600080fd5b600082601f830112613e0f578081fd5b81356020613e24613e1f83615411565b6153e7565b8281528181019085830183850287018401881015613e40578586fd5b855b85811015613e5e57813584529284019290840190600101613e42565b5090979650505050505050565b600082601f830112613e7b578081fd5b8135613e89613e1f82615435565b818152846020838601011115613e9d578283fd5b816020850160208301379081016020019190915292915050565b600060208284031215613ec8578081fd5b61159e82613de8565b60008060408385031215613ee3578081fd5b613eec83613de8565b9150610d0360208401613de8565b600080600080600060a08688031215613f11578081fd5b613f1a86613de8565b9450613f2860208701613de8565b9350604086013567ffffffffffffffff80821115613f44578283fd5b613f5089838a01613dff565b94506060880135915080821115613f65578283fd5b613f7189838a01613dff565b93506080880135915080821115613f86578283fd5b50613f9388828901613e6b565b9150509295509295909350565b600080600080600060a08688031215613fb7578081fd5b613fc086613de8565b9450613fce60208701613de8565b93506040860135925060608601359150608086013567ffffffffffffffff811115613ff7578182fd5b613f9388828901613e6b565b600080600060608486031215614017578283fd5b61402084613de8565b9250602084013567ffffffffffffffff8082111561403c578384fd5b61404887838801613dff565b9350604086013591508082111561405d578283fd5b5061406a86828701613dff565b9150509250925092565b60008060008060808587031215614089578182fd5b61409285613de8565b9350602085013567ffffffffffffffff808211156140ae578384fd5b6140ba88838901613dff565b945060408701359150808211156140cf578384fd5b6140db88838901613dff565b935060608701359150808211156140f0578283fd5b506140fd87828801613e6b565b91505092959194509250565b6000806040838503121561411b578182fd5b61412483613de8565b9150602083013561413481615653565b809150509250929050565b60008060408385031215614151578182fd5b61415a83613de8565b946020939093013593505050565b60008060006060848603121561417c578081fd5b61418584613de8565b95602085013595506040909401359392505050565b600080600080608085870312156141af578182fd5b6141b885613de8565b93506020850135925060408501359150606085013567ffffffffffffffff8111156141e1578182fd5b6140fd87828801613e6b565b600080604083850312156141ff578182fd5b823567ffffffffffffffff80821115614216578384fd5b818501915085601f830112614229578384fd5b81356020614239613e1f83615411565b82815281810190858301838502870184018b1015614255578889fd5b8896505b8487101561427e5761426a81613de8565b835260019690960195918301918301614259565b5096505086013592505080821115614294578283fd5b506142a185828601613dff565b9150509250929050565b6000602082840312156142bc578081fd5b815161159e81615653565b6000602082840312156142d8578081fd5b5035919050565b6000602082840312156142f0578081fd5b5051919050565b60008060408385031215614309578182fd5b82359150610d0360208401613de8565b6000806040838503121561432b578182fd5b50508035926020909101359150565b60006020828403121561434b578081fd5b813561159e81615664565b600060208284031215614367578081fd5b815161159e81615664565b60008060208385031215614384578182fd5b823567ffffffffffffffff8082111561439b578384fd5b818501915085601f8301126143ae578384fd5b8135818111156143bc578485fd5b8660208285010111156143cd578485fd5b60209290920196919550909350505050565b600080600080608085870312156143f4578182fd5b845167ffffffffffffffff81111561440a578283fd5b8501601f8101871361441a578283fd5b8051614428613e1f82615435565b81815288602083850101111561443c578485fd5b61444d8260208301602086016154bf565b60208801516040890151606090990151919a909950909650945050505050565b60006020828403121561447e578081fd5b81516fffffffffffffffffffffffffffffffff8116811461159e578182fd5b6000815180845260208085019450808401835b838110156144cc578151875295820195908201906001016144b0565b509495945050505050565b600081518084526144ef8160208601602086016154bf565b601f01601f19169290920160200192915050565b6000815160a0845261451860a08501826144d7565b90506001600160a01b0360208401511660208501526040830151604085015260608301516060850152608083015160808501528091505092915050565b918252602082015260400190565b60007f416363657373436f6e74726f6c3a206163636f756e74200000000000000000008252835161459b8160178501602088016154bf565b7f206973206d697373696e6720726f6c652000000000000000000000000000000060179184019182015283516145d88160288401602088016154bf565b01602801949350505050565b6001600160a01b0391909116815260200190565b60006001600160a01b03808816835280871660208401525060a0604083015261462460a083018661449d565b8281036060840152614636818661449d565b9050828103608084015261464a81856144d7565b98975050505050505050565b60006001600160a01b03808716835280861660208401525060a0604083015261468260a083018561449d565b8281036060840152614694818561449d565b838103608090940193909352508152602001949350505050565b60006001600160a01b03808816835280871660208401525084604083015283606083015260a060808301526146e660a08301846144d7565b979650505050505050565b6001600160a01b03929092168252602082015260400190565b60006001600160a01b03851682528360208301526060604083015261473260608301846144d7565b95945050505050565b60006020825261159e602083018461449d565b600060408252614761604083018561449d565b8281036020840152614732818561449d565b901515815260200190565b90815260200190565b9182526001600160a01b0316602082015260400190565b6000838252604060208301526125e4604083018461449d565b93845260208401929092526001600160a01b03166040830152606082015260800190565b6001600160e01b031991909116815260200190565b60e09190911b815260200190565b60006020825261159e60208301846144d7565b600060a0825261482460a08301886144d7565b90506001600160a01b03861660208301528460408301528360608301528260808301529695505050505050565b60208082526034908201527f455243313135353a207472616e7366657220746f206e6f6e204552433131353560408201527f526563656976657220696d706c656d656e746572000000000000000000000000606082015260800190565b6020808252818101527f537472696e67733a20686578206c656e67746820696e73756666696369656e74604082015260600190565b60208082526028908201527f455243313135353a204552433131353552656365697665722072656a6563746560408201527f6420746f6b656e73000000000000000000000000000000000000000000000000606082015260800190565b60208082526033908201527f5061636b3a206f6e6c7920612070726f746f636f6c2061646d696e2063616e2060408201527f63616c6c20746869732066756e6374696f6e2e00000000000000000000000000606082015260800190565b60208082526039908201527f5061636b3a207468652077696e646f7720746f206f70656e207061636b73206860408201527f6173206e6f742073746172746564206f7220636c6f7365642e00000000000000606082015260800190565b60208082526014908201527f5061757361626c653a206e6f7420706175736564000000000000000000000000604082015260600190565b6020808252602b908201527f455243313135353a2062616c616e636520717565727920666f7220746865207a60408201527f65726f2061646472657373000000000000000000000000000000000000000000606082015260800190565b60208082526024908201527f455243313135353a206275726e20616d6f756e7420657863656564732062616c604082015263616e636560e01b606082015260800190565b60208082526036908201527f5061636b3a206f6e6c792063726561746f72732077697468204d494e5445525f60408201527f524f4c452063616e20637265617465207061636b732e00000000000000000000606082015260800190565b6020808252602c908201527f455243313135355061757361626c653a20746f6b656e207472616e736665722060408201527f7768696c65207061757365640000000000000000000000000000000000000000606082015260800190565b60208082526029908201527f455243313135353a2063616c6c6572206973206e6f74206f776e6572206e6f7260408201527f20617070726f7665640000000000000000000000000000000000000000000000606082015260800190565b6020808252601e908201527f5061636b3a204661696c656420746f207472616e73666572204c494e4b2e0000604082015260600190565b6020808252602b908201527f5061636b3a204270732070726f7669646564206d757374206265206c6573732060408201527f7468616e2031302c303030000000000000000000000000000000000000000000606082015260800190565b60208082526034908201527f5061636b3a204e6f7420656e6f756768204c494e4b20746f2066756c66696c6c60408201527f2072616e646f6d6e65737320726571756573742e000000000000000000000000606082015260800190565b60208082526029908201527f5061636b3a20696e76616c6964206e756d626572206f6620726577617264732060408201527f706572206f70656e2e0000000000000000000000000000000000000000000000606082015260800190565b6020808252601d908201527f5061636b3a205468652070726f746f636f6c206973207061757365642e000000604082015260600190565b60208082526032908201527f5061636b3a206d757374207761697420666f72207468652070656e64696e672060408201527f7061636b20746f206265206f70656e65642e0000000000000000000000000000606082015260800190565b60208082526010908201527f5061757361626c653a2070617573656400000000000000000000000000000000604082015260600190565b60208082526025908201527f455243313135353a207472616e7366657220746f20746865207a65726f20616460408201527f6472657373000000000000000000000000000000000000000000000000000000606082015260800190565b60208082526032908201527f455243313135353a207472616e736665722063616c6c6572206973206e6f742060408201527f6f776e6572206e6f7220617070726f7665640000000000000000000000000000606082015260800190565b60208082526023908201527f455243313135353a206275726e2066726f6d20746865207a65726f206164647260408201526265737360e81b606082015260800190565b60208082526038908201527f455243313135355072657365744d696e7465725061757365723a206d7573742060408201527f68617665206d696e74657220726f6c6520746f206d696e740000000000000000606082015260800190565b6020808252602a908201527f455243313135353a20696e73756666696369656e742062616c616e636520666f60408201527f72207472616e7366657200000000000000000000000000000000000000000000606082015260800190565b6020808252601f908201527f4f6e6c7920565246436f6f7264696e61746f722063616e2066756c66696c6c00604082015260600190565b6020808252603b908201527f455243313135355072657365744d696e7465725061757365723a206d7573742060408201527f686176652070617573657220726f6c6520746f20756e70617573650000000000606082015260800190565b60208082526039908201527f455243313135355072657365744d696e7465725061757365723a206d7573742060408201527f686176652070617573657220726f6c6520746f20706175736500000000000000606082015260800190565b6020808252602f908201527f5061636b3a2073656e646572206f776e73206e6f207061636b73206f6620746860408201527f6520676976656e207061636b49642e0000000000000000000000000000000000606082015260800190565b60208082526029908201527f455243313135353a2073657474696e6720617070726f76616c2073746174757360408201527f20666f722073656c660000000000000000000000000000000000000000000000606082015260800190565b60208082526029908201527f455243313135353a206163636f756e747320616e6420696473206c656e67746860408201527f206d69736d617463680000000000000000000000000000000000000000000000606082015260800190565b60208082526028908201527f455243313135353a2069647320616e6420616d6f756e7473206c656e6774682060408201527f6d69736d61746368000000000000000000000000000000000000000000000000606082015260800190565b60208082526021908201527f455243313135353a206d696e7420746f20746865207a65726f206164647265736040820152607360f81b606082015260800190565b60208082526032908201527f5061636b3a2072657761726420636f6e747261637420646f6573206e6f74206960408201527f6d706c656d656e742045524320313135352e0000000000000000000000000000606082015260800190565b6020808252602f908201527f416363657373436f6e74726f6c3a2063616e206f6e6c792072656e6f756e636560408201527f20726f6c657320666f722073656c660000000000000000000000000000000000606082015260800190565b60006020825261159e6020830184614503565b60006080825261533f6080830187614503565b6001600160a01b03861660208401528281036040840152615360818661449d565b905082810360608401526146e6818561449d565b6000604082526153876040830185614503565b82810360208401526001600160a01b0384511681526020840151608060208301526153b5608083018261449d565b9050604085015182820360408401526153ce828261449d565b9150506060850151606083015280925050509392505050565b60405181810167ffffffffffffffff8111828210171561540957615409615592565b604052919050565b600067ffffffffffffffff82111561542b5761542b615592565b5060209081020190565b600067ffffffffffffffff82111561544f5761544f615592565b50601f01601f191660200190565b6000821982111561547057615470615566565b500190565b6000826154845761548461557c565b500490565b60008160001904831182151516156154a3576154a3615566565b500290565b6000828210156154ba576154ba615566565b500390565b60005b838110156154da5781810151838201526020016154c2565b83811115610a215750506000910152565b6000816154fa576154fa615566565b506000190190565b60028104600182168061551657607f821691505b602082108114156139e557634e487b7160e01b600052602260045260246000fd5b600060001982141561554b5761554b615566565b5060010190565b6000826155615761556161557c565b500690565b634e487b7160e01b600052601160045260246000fd5b634e487b7160e01b600052601260045260246000fd5b634e487b7160e01b600052604160045260246000fd5b60e01c90565b600060443d10156155be57611378565b600481823e6308c379a06155d282516155a8565b146155dc57611378565b6040513d600319016004823e80513d67ffffffffffffffff816024840111818411171561560c5750505050611378565b828401925082519150808211156156265750505050611378565b503d8301602082840101111561563e57505050611378565b601f01601f1916810160200160405291505090565b801515811461566157600080fd5b50565b6001600160e01b03198116811461566157600080fdfea164736f6c6343000800000a",
  "linkReferences": {},
  "deployedLinkReferences": {}
}