{
  "_format": "hh-sol-artifact-1",
  "contractName": "Pack",
  "sourceName": "contracts/Pack.sol",
  "abi": [
    {
      "inputs": [
        {
          "internalType": "address",
          "name": "_controlCenter",
          "type": "address"
        },
        {
          "internalType": "string",
          "name": "_uri",
          "type": "string"
        },
        {
          "internalType": "address",
          "name": "_vrfCoordinator",
          "type": "address"
        },
        {
          "internalType": "address",
          "name": "_linkToken",
          "type": "address"
        },
        {
          "internalType": "bytes32",
          "name": "_keyHash",
          "type": "bytes32"
        },
        {
          "internalType": "uint256",
          "name": "_fees",
          "type": "uint256"
        },
        {
          "internalType": "address",
          "name": "_trustedForwarder",
          "type": "address"
        }
      ],
      "stateMutability": "nonpayable",
      "type": "constructor"
    },
    {
      "anonymous": false,
      "inputs": [
        {
          "indexed": true,
          "internalType": "address",
          "name": "account",
          "type": "address"
        },
        {
          "indexed": true,
          "internalType": "address",
          "name": "operator",
          "type": "address"
        },
        {
          "indexed": false,
          "internalType": "bool",
          "name": "approved",
          "type": "bool"
        }
      ],
      "name": "ApprovalForAll",
      "type": "event"
    },
    {
      "anonymous": false,
      "inputs": [
        {
          "indexed": true,
          "internalType": "address",
          "name": "previousOwner",
          "type": "address"
        },
        {
          "indexed": true,
          "internalType": "address",
          "name": "newOwner",
          "type": "address"
        }
      ],
      "name": "OwnershipTransferred",
      "type": "event"
    },
    {
      "anonymous": false,
      "inputs": [
        {
          "indexed": true,
          "internalType": "uint256",
          "name": "packId",
          "type": "uint256"
        },
        {
          "indexed": true,
          "internalType": "address",
          "name": "rewardContract",
          "type": "address"
        },
        {
          "indexed": true,
          "internalType": "address",
          "name": "creator",
          "type": "address"
        },
        {
          "components": [
            {
              "internalType": "string",
              "name": "uri",
              "type": "string"
            },
            {
              "internalType": "address",
              "name": "creator",
              "type": "address"
            },
            {
              "internalType": "uint256",
              "name": "currentSupply",
              "type": "uint256"
            },
            {
              "internalType": "uint256",
              "name": "openStart",
              "type": "uint256"
            },
            {
              "internalType": "uint256",
              "name": "openEnd",
              "type": "uint256"
            }
          ],
          "indexed": false,
          "internalType": "struct Pack.PackState",
          "name": "packState",
          "type": "tuple"
        },
        {
          "components": [
            {
              "internalType": "address",
              "name": "source",
              "type": "address"
            },
            {
              "internalType": "uint256[]",
              "name": "tokenIds",
              "type": "uint256[]"
            },
            {
              "internalType": "uint256[]",
              "name": "amountsPacked",
              "type": "uint256[]"
            },
            {
              "internalType": "uint256",
              "name": "rewardsPerOpen",
              "type": "uint256"
            }
          ],
          "indexed": false,
          "internalType": "struct Pack.Rewards",
          "name": "rewards",
          "type": "tuple"
        }
      ],
      "name": "PackCreated",
      "type": "event"
    },
    {
      "anonymous": false,
      "inputs": [
        {
          "indexed": true,
          "internalType": "uint256",
          "name": "packId",
          "type": "uint256"
        },
        {
          "indexed": true,
          "internalType": "address",
          "name": "opener",
          "type": "address"
        },
        {
          "indexed": false,
          "internalType": "bytes32",
          "name": "requestId",
          "type": "bytes32"
        },
        {
          "indexed": true,
          "internalType": "address",
          "name": "rewardContract",
          "type": "address"
        },
        {
          "indexed": false,
          "internalType": "uint256[]",
          "name": "rewardIds",
          "type": "uint256[]"
        }
      ],
      "name": "PackOpenFulfilled",
      "type": "event"
    },
    {
      "anonymous": false,
      "inputs": [
        {
          "indexed": true,
          "internalType": "uint256",
          "name": "packId",
          "type": "uint256"
        },
        {
          "indexed": true,
          "internalType": "address",
          "name": "opener",
          "type": "address"
        },
        {
          "indexed": false,
          "internalType": "bytes32",
          "name": "requestId",
          "type": "bytes32"
        }
      ],
      "name": "PackOpenRequest",
      "type": "event"
    },
    {
      "anonymous": false,
      "inputs": [
        {
          "indexed": false,
          "internalType": "uint256",
          "name": "royaltyBps",
          "type": "uint256"
        }
      ],
      "name": "PackRoyaltyUpdated",
      "type": "event"
    },
    {
      "anonymous": false,
      "inputs": [
        {
          "indexed": true,
          "internalType": "address",
          "name": "operator",
          "type": "address"
        },
        {
          "indexed": true,
          "internalType": "address",
          "name": "from",
          "type": "address"
        },
        {
          "indexed": true,
          "internalType": "address",
          "name": "to",
          "type": "address"
        },
        {
          "indexed": false,
          "internalType": "uint256[]",
          "name": "ids",
          "type": "uint256[]"
        },
        {
          "indexed": false,
          "internalType": "uint256[]",
          "name": "values",
          "type": "uint256[]"
        }
      ],
      "name": "TransferBatch",
      "type": "event"
    },
    {
      "anonymous": false,
      "inputs": [
        {
          "indexed": true,
          "internalType": "address",
          "name": "operator",
          "type": "address"
        },
        {
          "indexed": true,
          "internalType": "address",
          "name": "from",
          "type": "address"
        },
        {
          "indexed": true,
          "internalType": "address",
          "name": "to",
          "type": "address"
        },
        {
          "indexed": false,
          "internalType": "uint256",
          "name": "id",
          "type": "uint256"
        },
        {
          "indexed": false,
          "internalType": "uint256",
          "name": "value",
          "type": "uint256"
        }
      ],
      "name": "TransferSingle",
      "type": "event"
    },
    {
      "anonymous": false,
      "inputs": [
        {
          "indexed": false,
          "internalType": "string",
          "name": "value",
          "type": "string"
        },
        {
          "indexed": true,
          "internalType": "uint256",
          "name": "id",
          "type": "uint256"
        }
      ],
      "name": "URI",
      "type": "event"
    },
    {
      "inputs": [
        {
          "internalType": "address",
          "name": "account",
          "type": "address"
        },
        {
          "internalType": "uint256",
          "name": "id",
          "type": "uint256"
        }
      ],
      "name": "balanceOf",
      "outputs": [
        {
          "internalType": "uint256",
          "name": "",
          "type": "uint256"
        }
      ],
      "stateMutability": "view",
      "type": "function"
    },
    {
      "inputs": [
        {
          "internalType": "address[]",
          "name": "accounts",
          "type": "address[]"
        },
        {
          "internalType": "uint256[]",
          "name": "ids",
          "type": "uint256[]"
        }
      ],
      "name": "balanceOfBatch",
      "outputs": [
        {
          "internalType": "uint256[]",
          "name": "",
          "type": "uint256[]"
        }
      ],
      "stateMutability": "view",
      "type": "function"
    },
    {
      "inputs": [
        {
          "internalType": "uint256",
          "name": "_packId",
          "type": "uint256"
        }
      ],
      "name": "creator",
      "outputs": [
        {
          "internalType": "address",
          "name": "",
          "type": "address"
        }
      ],
      "stateMutability": "view",
      "type": "function"
    },
    {
      "inputs": [
        {
          "internalType": "uint256",
          "name": "",
          "type": "uint256"
        },
        {
          "internalType": "address",
          "name": "",
          "type": "address"
        }
      ],
      "name": "currentRequestId",
      "outputs": [
        {
          "internalType": "bytes32",
          "name": "",
          "type": "bytes32"
        }
      ],
      "stateMutability": "view",
      "type": "function"
    },
    {
      "inputs": [
        {
          "internalType": "uint256",
          "name": "_packId",
          "type": "uint256"
        }
      ],
      "name": "getPack",
      "outputs": [
        {
          "components": [
            {
              "internalType": "string",
              "name": "uri",
              "type": "string"
            },
            {
              "internalType": "address",
              "name": "creator",
              "type": "address"
            },
            {
              "internalType": "uint256",
              "name": "currentSupply",
              "type": "uint256"
            },
            {
              "internalType": "uint256",
              "name": "openStart",
              "type": "uint256"
            },
            {
              "internalType": "uint256",
              "name": "openEnd",
              "type": "uint256"
            }
          ],
          "internalType": "struct Pack.PackState",
          "name": "pack",
          "type": "tuple"
        }
      ],
      "stateMutability": "view",
      "type": "function"
    },
    {
      "inputs": [
        {
          "internalType": "uint256",
          "name": "_packId",
          "type": "uint256"
        }
      ],
      "name": "getPackWithRewards",
      "outputs": [
        {
          "components": [
            {
              "internalType": "string",
              "name": "uri",
              "type": "string"
            },
            {
              "internalType": "address",
              "name": "creator",
              "type": "address"
            },
            {
              "internalType": "uint256",
              "name": "currentSupply",
              "type": "uint256"
            },
            {
              "internalType": "uint256",
              "name": "openStart",
              "type": "uint256"
            },
            {
              "internalType": "uint256",
              "name": "openEnd",
              "type": "uint256"
            }
          ],
          "internalType": "struct Pack.PackState",
          "name": "pack",
          "type": "tuple"
        },
        {
          "internalType": "address",
          "name": "source",
          "type": "address"
        },
        {
          "internalType": "uint256[]",
          "name": "tokenIds",
          "type": "uint256[]"
        },
        {
          "internalType": "uint256[]",
          "name": "amountsPacked",
          "type": "uint256[]"
        }
      ],
      "stateMutability": "view",
      "type": "function"
    },
    {
      "inputs": [
        {
          "internalType": "uint256",
          "name": "_packId",
          "type": "uint256"
        }
      ],
      "name": "getRewardsInPack",
      "outputs": [
        {
          "internalType": "address",
          "name": "source",
          "type": "address"
        },
        {
          "internalType": "uint256[]",
          "name": "tokenIds",
          "type": "uint256[]"
        },
        {
          "internalType": "uint256[]",
          "name": "amountsPacked",
          "type": "uint256[]"
        }
      ],
      "stateMutability": "view",
      "type": "function"
    },
    {
      "inputs": [
        {
          "internalType": "address",
          "name": "account",
          "type": "address"
        },
        {
          "internalType": "address",
          "name": "operator",
          "type": "address"
        }
      ],
      "name": "isApprovedForAll",
      "outputs": [
        {
          "internalType": "bool",
          "name": "",
          "type": "bool"
        }
      ],
      "stateMutability": "view",
      "type": "function"
    },
    {
      "inputs": [
        {
          "internalType": "address",
          "name": "forwarder",
          "type": "address"
        }
      ],
      "name": "isTrustedForwarder",
      "outputs": [
        {
          "internalType": "bool",
          "name": "",
          "type": "bool"
        }
      ],
      "stateMutability": "view",
      "type": "function"
    },
    {
      "inputs": [],
      "name": "nextTokenId",
      "outputs": [
        {
          "internalType": "uint256",
          "name": "",
          "type": "uint256"
        }
      ],
      "stateMutability": "view",
      "type": "function"
    },
    {
      "inputs": [
        {
          "internalType": "address",
          "name": "",
          "type": "address"
        },
        {
          "internalType": "address",
          "name": "_from",
          "type": "address"
        },
        {
          "internalType": "uint256[]",
          "name": "_ids",
          "type": "uint256[]"
        },
        {
          "internalType": "uint256[]",
          "name": "_values",
          "type": "uint256[]"
        },
        {
          "internalType": "bytes",
          "name": "_data",
          "type": "bytes"
        }
      ],
      "name": "onERC1155BatchReceived",
      "outputs": [
        {
          "internalType": "bytes4",
          "name": "",
          "type": "bytes4"
        }
      ],
      "stateMutability": "nonpayable",
      "type": "function"
    },
    {
      "inputs": [
        {
          "internalType": "address",
          "name": "",
          "type": "address"
        },
        {
          "internalType": "address",
          "name": "",
          "type": "address"
        },
        {
          "internalType": "uint256",
          "name": "",
          "type": "uint256"
        },
        {
          "internalType": "uint256",
          "name": "",
          "type": "uint256"
        },
        {
          "internalType": "bytes",
          "name": "",
          "type": "bytes"
        }
      ],
      "name": "onERC1155Received",
      "outputs": [
        {
          "internalType": "bytes4",
          "name": "",
          "type": "bytes4"
        }
      ],
      "stateMutability": "nonpayable",
      "type": "function"
    },
    {
      "inputs": [
        {
          "internalType": "uint256",
          "name": "_packId",
          "type": "uint256"
        }
      ],
      "name": "openPack",
      "outputs": [],
      "stateMutability": "nonpayable",
      "type": "function"
    },
    {
      "inputs": [],
      "name": "owner",
      "outputs": [
        {
          "internalType": "address",
          "name": "",
          "type": "address"
        }
      ],
      "stateMutability": "view",
      "type": "function"
    },
    {
      "inputs": [],
      "name": "packRoyaltyBps",
      "outputs": [
        {
          "internalType": "uint256",
          "name": "",
          "type": "uint256"
        }
      ],
      "stateMutability": "view",
      "type": "function"
    },
    {
      "inputs": [
        {
          "internalType": "uint256",
          "name": "",
          "type": "uint256"
        }
      ],
      "name": "packs",
      "outputs": [
        {
          "internalType": "string",
          "name": "uri",
          "type": "string"
        },
        {
          "internalType": "address",
          "name": "creator",
          "type": "address"
        },
        {
          "internalType": "uint256",
          "name": "currentSupply",
          "type": "uint256"
        },
        {
          "internalType": "uint256",
          "name": "openStart",
          "type": "uint256"
        },
        {
          "internalType": "uint256",
          "name": "openEnd",
          "type": "uint256"
        }
      ],
      "stateMutability": "view",
      "type": "function"
    },
    {
      "inputs": [
        {
          "internalType": "bytes32",
          "name": "",
          "type": "bytes32"
        }
      ],
      "name": "randomnessRequests",
      "outputs": [
        {
          "internalType": "uint256",
          "name": "packId",
          "type": "uint256"
        },
        {
          "internalType": "address",
          "name": "opener",
          "type": "address"
        }
      ],
      "stateMutability": "view",
      "type": "function"
    },
    {
      "inputs": [
        {
          "internalType": "bytes32",
          "name": "requestId",
          "type": "bytes32"
        },
        {
          "internalType": "uint256",
          "name": "randomness",
          "type": "uint256"
        }
      ],
      "name": "rawFulfillRandomness",
      "outputs": [],
      "stateMutability": "nonpayable",
      "type": "function"
    },
    {
      "inputs": [],
      "name": "renounceOwnership",
      "outputs": [],
      "stateMutability": "nonpayable",
      "type": "function"
    },
    {
      "inputs": [
        {
          "internalType": "uint256",
          "name": "",
          "type": "uint256"
        }
      ],
      "name": "rewards",
      "outputs": [
        {
          "internalType": "address",
          "name": "source",
          "type": "address"
        },
        {
          "internalType": "uint256",
          "name": "rewardsPerOpen",
          "type": "uint256"
        }
      ],
      "stateMutability": "view",
      "type": "function"
    },
    {
      "inputs": [
        {
          "internalType": "uint256",
          "name": "tokenId",
          "type": "uint256"
        },
        {
          "internalType": "uint256",
          "name": "salePrice",
          "type": "uint256"
        }
      ],
      "name": "royaltyInfo",
      "outputs": [
        {
          "internalType": "address",
          "name": "receiver",
          "type": "address"
        },
        {
          "internalType": "uint256",
          "name": "royaltyAmount",
          "type": "uint256"
        }
      ],
      "stateMutability": "view",
      "type": "function"
    },
    {
      "inputs": [
        {
          "internalType": "address",
          "name": "from",
          "type": "address"
        },
        {
          "internalType": "address",
          "name": "to",
          "type": "address"
        },
        {
          "internalType": "uint256[]",
          "name": "ids",
          "type": "uint256[]"
        },
        {
          "internalType": "uint256[]",
          "name": "amounts",
          "type": "uint256[]"
        },
        {
          "internalType": "bytes",
          "name": "data",
          "type": "bytes"
        }
      ],
      "name": "safeBatchTransferFrom",
      "outputs": [],
      "stateMutability": "nonpayable",
      "type": "function"
    },
    {
      "inputs": [
        {
          "internalType": "address",
          "name": "from",
          "type": "address"
        },
        {
          "internalType": "address",
          "name": "to",
          "type": "address"
        },
        {
          "internalType": "uint256",
          "name": "id",
          "type": "uint256"
        },
        {
          "internalType": "uint256",
          "name": "amount",
          "type": "uint256"
        },
        {
          "internalType": "bytes",
          "name": "data",
          "type": "bytes"
        }
      ],
      "name": "safeTransferFrom",
      "outputs": [],
      "stateMutability": "nonpayable",
      "type": "function"
    },
    {
      "inputs": [
        {
          "internalType": "address",
          "name": "operator",
          "type": "address"
        },
        {
          "internalType": "bool",
          "name": "approved",
          "type": "bool"
        }
      ],
      "name": "setApprovalForAll",
      "outputs": [],
      "stateMutability": "nonpayable",
      "type": "function"
    },
    {
      "inputs": [
        {
          "internalType": "uint256",
          "name": "_newFees",
          "type": "uint256"
        }
      ],
      "name": "setChainlinkFees",
      "outputs": [],
      "stateMutability": "nonpayable",
      "type": "function"
    },
    {
      "inputs": [
        {
          "internalType": "uint256",
          "name": "_royaltyBps",
          "type": "uint256"
        }
      ],
      "name": "setPackRoyaltyBps",
      "outputs": [],
      "stateMutability": "nonpayable",
      "type": "function"
    },
    {
      "inputs": [
        {
          "internalType": "bytes4",
          "name": "interfaceId",
          "type": "bytes4"
        }
      ],
      "name": "supportsInterface",
      "outputs": [
        {
          "internalType": "bool",
          "name": "",
          "type": "bool"
        }
      ],
      "stateMutability": "view",
      "type": "function"
    },
    {
      "inputs": [
        {
          "internalType": "uint256",
          "name": "_id",
          "type": "uint256"
        }
      ],
      "name": "tokenURI",
      "outputs": [
        {
          "internalType": "string",
          "name": "",
          "type": "string"
        }
      ],
      "stateMutability": "view",
      "type": "function"
    },
    {
      "inputs": [
        {
          "internalType": "address",
          "name": "_to",
          "type": "address"
        },
        {
          "internalType": "uint256",
          "name": "_amount",
          "type": "uint256"
        }
      ],
      "name": "transferLink",
      "outputs": [],
      "stateMutability": "nonpayable",
      "type": "function"
    },
    {
      "inputs": [
        {
          "internalType": "address",
          "name": "newOwner",
          "type": "address"
        }
      ],
      "name": "transferOwnership",
      "outputs": [],
      "stateMutability": "nonpayable",
      "type": "function"
    },
    {
      "inputs": [
        {
          "internalType": "uint256",
          "name": "_id",
          "type": "uint256"
        }
      ],
      "name": "uri",
      "outputs": [
        {
          "internalType": "string",
          "name": "",
          "type": "string"
        }
      ],
      "stateMutability": "view",
      "type": "function"
    },
    {
      "inputs": [],
      "name": "vrfFees",
      "outputs": [
        {
          "internalType": "uint256",
          "name": "",
          "type": "uint256"
        }
      ],
      "stateMutability": "view",
      "type": "function"
    },
    {
      "inputs": [],
      "name": "vrfKeyHash",
      "outputs": [
        {
          "internalType": "bytes32",
          "name": "",
          "type": "bytes32"
        }
      ],
      "stateMutability": "view",
      "type": "function"
    }
  ],
  "bytecode": "0x60c06040523480156200001157600080fd5b506040516200453a3803806200453a833981016040819052620000349162000256565b808585886200004381620000b5565b506001600160601b0319606092831b811660a052911b16608052620000716200006b620000ce565b620000eb565b600580546001600160a01b039283166001600160a01b031991821617909155600680549990921698169790971790965560099190915560085550620003da92505050565b8051620000ca90600290602084019062000198565b5050565b6000620000e56200013d60201b620018f61760201c565b90505b90565b600480546001600160a01b038381166001600160a01b0319831681179093556040519116919082907f8be0079c531659141344cd1fd0a4f28419497f9722a3daafe3b4186f6b6457e090600090a35050565b60006200014a336200017d565b1562000160575060131936013560601c620000e8565b620001756200019460201b620019241760201c565b9050620000e8565b6005546001600160a01b038281169116145b919050565b3390565b828054620001a69062000387565b90600052602060002090601f016020900481019282620001ca576000855562000215565b82601f10620001e557805160ff191683800117855562000215565b8280016001018555821562000215579182015b8281111562000215578251825591602001919060010190620001f8565b506200022392915062000227565b5090565b5b8082111562000223576000815560010162000228565b80516001600160a01b03811681146200018f57600080fd5b600080600080600080600060e0888a03121562000271578283fd5b6200027c886200023e565b602089810151919850906001600160401b03808211156200029b578586fd5b818b0191508b601f830112620002af578586fd5b815181811115620002c457620002c4620003c4565b604051601f8201601f1916810185018381118282101715620002ea57620002ea620003c4565b60405281815283820185018e101562000301578788fd5b8792505b8183101562000324578383018501518184018601529184019162000305565b818311156200033557878583830101525b809a5050505050506200034b604089016200023e565b94506200035b606089016200023e565b93506080880151925060a088015191506200037960c089016200023e565b905092959891949750929550565b6002810460018216806200039c57607f821691505b60208210811415620003be57634e487b7160e01b600052602260045260246000fd5b50919050565b634e487b7160e01b600052604160045260246000fd5b60805160601c60a05160601c61411f6200041b600039600081816111d50152611c63015260008181610def015281816118480152611c34015261411f6000f3fe608060405234801561001057600080fd5b506004361061020a5760003560e01c8063715018a61161012a578063bc197c81116100bd578063f242432a1161008c578063f301af4211610071578063f301af4214610497578063f68251be146104aa578063f99b1d68146104cc5761020a565b8063f242432a14610471578063f2fde38b146104845761020a565b8063bc197c811461042b578063c87b56dd14610260578063e985e9c51461044b578063f23a6e611461045e5761020a565b806394985ddd116100f957806394985ddd146103ce578063a22cb465146103e1578063b277ca45146103f4578063b84c1392146104075761020a565b8063715018a61461039657806375794a3c1461039e578063895ec54c146103a65780638da5cb5b146103c65761020a565b80632a55205a116101a2578063510b515811610171578063510b51581461032f5780635318c48f1461034f578063572b6c05146103625780635e619b78146103755761020a565b80632a55205a146102c85780632eb2c2d6146102e95780634e1273f4146102fc57806350a88c7e1461031c5761020a565b806310983e57116101de57806310983e571461028057806310e34e67146102885780631d64b18e146102ab578063238566ab146102b35761020a565b8062fdd58e1461020f57806301ffc9a714610238578063041d443e146102585780630e89341c14610260575b600080fd5b61022261021d366004612f65565b6104df565b60405161022f919061345a565b60405180910390f35b61024b6102463660046130bd565b610536565b60405161022f919061344f565b61022261057c565b61027361026e36600461306c565b610582565b60405161022f91906134da565b610222610624565b61029b61029636600461306c565b61062a565b60405161022f9493929190613dc9565b6102226107f6565b6102c66102c136600461306c565b6107fc565b005b6102db6102d636600461309c565b6109ef565b60405161022f9291906133cd565b6102c66102f7366004612e27565b610aa0565b61030f61030a366004612f90565b610afe565b60405161022f9190613417565b6102c661032a36600461306c565b610c1e565b61034261033d36600461306c565b61100e565b60405161022f9190613282565b61022261035d366004613198565b61102c565b61024b610370366004612dcc565b611049565b61038861038336600461306c565b61105d565b60405161022f929190613463565b6102c661107f565b6102226110ca565b6103b96103b436600461306c565b6110d0565b60405161022f9190613db6565b6103426111ba565b6102c66103dc36600461309c565b6111ca565b6102c66103ef366004612f38565b611220565b6102c661040236600461306c565b6112ee565b61041a61041536600461306c565b611402565b60405161022f9594939291906134ed565b61043e610439366004612e27565b6114c3565b60405161022f91906134b7565b61024b610459366004612def565b611511565b61043e61046c366004612ed1565b61153f565b6102c661047f366004612ed1565b611550565b6102c6610492366004612dcc565b6115a7565b6102db6104a536600461306c565b611618565b6104bd6104b836600461306c565b61163d565b60405161022f9392919061338f565b6102c66104da366004612f65565b611720565b60006001600160a01b0383166105105760405162461bcd60e51b8152600401610507906136a1565b60405180910390fd5b506000908152602081815260408083206001600160a01b03949094168352929052205490565b60006001600160e01b03198216636cdb3d1360e11b148061056757506001600160e01b031982166303a24d0760e21b145b80610576575061057682611928565b92915050565b60095481565b6000818152600b6020526040902080546060919061059f90613f88565b80601f01602080910402602001604051908101604052809291908181526020018280546105cb90613f88565b80156106185780601f106105ed57610100808354040283529160200191610618565b820191906000526020600020905b8154815290600101906020018083116105fb57829003601f168201915b50505050509050919050565b60085481565b610632612c09565b6000606080600b60008681526020019081526020016000206040518060a001604052908160008201805461066590613f88565b80601f016020809104026020016040519081016040528092919081815260200182805461069190613f88565b80156106de5780601f106106b3576101008083540402835291602001916106de565b820191906000526020600020905b8154815290600101906020018083116106c157829003601f168201915b50505091835250506001828101546001600160a01b0390811660208085019190915260028501546040808601919091526003860154606086015260049095015460809094019390935260008a8152600c84528490208054920180548551818602810186019096528086529599509116965091929083018282801561078157602002820191906000526020600020905b81548152602001906001019080831161076d575b50505050509150600c60008681526020019081526020016000206002018054806020026020016040519081016040528092919081815260200182805480156107e857602002820191906000526020600020905b8154815260200190600101908083116107d4575b505050505090509193509193565b600a5481565b60065460408051634a32c6bf60e11b8152905133926001600160a01b0316916391d148549183916394658d7e916004808301926020929190829003018186803b15801561084857600080fd5b505afa15801561085c573d6000803e3d6000fd5b505050506040513d601f19601f820116820180604052508101906108809190613084565b836040518363ffffffff1660e01b815260040161089e929190613463565b60206040518083038186803b1580156108b657600080fd5b505afa1580156108ca573d6000803e3d6000fd5b505050506040513d601f19601f820116820180604052508101906108ee9190613050565b61090a5760405162461bcd60e51b8152600401610507906135e7565b600660009054906101000a90046001600160a01b03166001600160a01b031663fd967f476040518163ffffffff1660e01b815260040160206040518083038186803b15801561095857600080fd5b505afa15801561096c573d6000803e3d6000fd5b505050506040513d601f19601f820116820180604052508101906109909190613084565b82106109ae5760405162461bcd60e51b815260040161050790613833565b600a8290556040517f18df997df447ad234684c1707c641c0bda90e308ab6a764f6d9ba74ac407b95c906109e390849061345a565b60405180910390a15050565b6000828152600b6020908152604080832060010154600654825163fd967f4760e01b815292516001600160a01b039283169594919092169263fd967f479260048083019392829003018186803b158015610a4857600080fd5b505afa158015610a5c573d6000803e3d6000fd5b505050506040513d601f19601f82011682018060405250810190610a809190613084565b600a54610a8d9085613f26565b610a979190613f12565b90509250929050565b610aa8611941565b6001600160a01b0316856001600160a01b03161480610ace5750610ace85610459611941565b610aea5760405162461bcd60e51b815260040161050790613a3b565b610af78585858585611950565b5050505050565b60608151835114610b215760405162461bcd60e51b815260040161050790613c5e565b6000835167ffffffffffffffff811115610b4b57634e487b7160e01b600052604160045260246000fd5b604051908082528060200260200182016040528015610b74578160200160208202803683370190505b50905060005b8451811015610c1657610bdb858281518110610ba657634e487b7160e01b600052603260045260246000fd5b6020026020010151858381518110610bce57634e487b7160e01b600052603260045260246000fd5b60200260200101516104df565b828281518110610bfb57634e487b7160e01b600052603260045260246000fd5b6020908102919091010152610c0f81613fbd565b9050610b7a565b509392505050565b600660009054906101000a90046001600160a01b03166001600160a01b0316639d2f83f06040518163ffffffff1660e01b815260040160206040518083038186803b158015610c6c57600080fd5b505afa158015610c80573d6000803e3d6000fd5b505050506040513d601f19601f82011682018060405250810190610ca49190613050565b15610cc15760405162461bcd60e51b81526004016105079061394a565b6000818152600b6020526040808220815160a08101909252805482908290610ce890613f88565b80601f0160208091040260200160405190810160405280929190818152602001828054610d1490613f88565b8015610d615780601f10610d3657610100808354040283529160200191610d61565b820191906000526020600020905b815481529060010190602001808311610d4457829003601f168201915b505050918352505060018201546001600160a01b031660208201526002820154604082015260038201546060808301919091526004909201546080909101528101519091504210801590610db9575080608001514211155b610dd55760405162461bcd60e51b815260040161050790613644565b6008546040516370a0823160e01b81526001600160a01b037f000000000000000000000000000000000000000000000000000000000000000016906370a0823190610e24903090600401613282565b60206040518083038186803b158015610e3c57600080fd5b505afa158015610e50573d6000803e3d6000fd5b505050506040513d601f19601f82011682018060405250810190610e749190613084565b1015610e925760405162461bcd60e51b815260040161050790613890565b6000610ea5610e9f611941565b846104df565b11610ec25760405162461bcd60e51b815260040161050790613ba4565b6000828152600e6020526040812090610ed9611941565b6001600160a01b0316815260208101919091526040016000205415610f105760405162461bcd60e51b815260040161050790613981565b610f23610f1b611941565b836001611b21565b6000610f33600954600854611c30565b90506040518060400160405280848152602001610f4e611941565b6001600160a01b039081169091526000838152600d602090815260408083208551815594820151600190950180546001600160a01b0319169590941694909417909255858152600e9091529081208291610fa6611941565b6001600160a01b03168152602081019190915260400160002055610fc8611941565b6001600160a01b0316837fb5c27afec62496e403fae78e07136ae7c58425e8128c7b680ea24dee8c8d940183604051611001919061345a565b60405180910390a3505050565b6000908152600b60205260409020600101546001600160a01b031690565b600e60209081526000928352604080842090915290825290205481565b6005546001600160a01b0390811691161490565b600d60205260009081526040902080546001909101546001600160a01b031682565b611087611941565b6001600160a01b03166110986111ba565b6001600160a01b0316146110be5760405162461bcd60e51b815260040161050790613b38565b6110c86000611d73565b565b60075481565b6110d8612c09565b6000828152600b602052604090819020815160a0810190925280548290829061110090613f88565b80601f016020809104026020016040519081016040528092919081815260200182805461112c90613f88565b80156111795780601f1061114e57610100808354040283529160200191611179565b820191906000526020600020905b81548152906001019060200180831161115c57829003601f168201915b505050918352505060018201546001600160a01b03166020820152600282015460408201526003820154606082015260049091015460809091015292915050565b6004546001600160a01b03165b90565b336001600160a01b037f000000000000000000000000000000000000000000000000000000000000000016146112125760405162461bcd60e51b815260040161050790613b6d565b61121c8282611dc5565b5050565b816001600160a01b0316611232611941565b6001600160a01b031614156112595760405162461bcd60e51b815260040161050790613c01565b8060016000611266611941565b6001600160a01b03908116825260208083019390935260409182016000908120918716808252919093529120805460ff1916921515929092179091556112aa611941565b6001600160a01b03167f17307eab39ab6107e8899845ad3d59bd9653f200f220920489ca2b5937696c31836040516112e2919061344f565b60405180910390a35050565b60065460408051634a32c6bf60e11b8152905133926001600160a01b0316916391d148549183916394658d7e916004808301926020929190829003018186803b15801561133a57600080fd5b505afa15801561134e573d6000803e3d6000fd5b505050506040513d601f19601f820116820180604052508101906113729190613084565b836040518363ffffffff1660e01b8152600401611390929190613463565b60206040518083038186803b1580156113a857600080fd5b505afa1580156113bc573d6000803e3d6000fd5b505050506040513d601f19601f820116820180604052508101906113e09190613050565b6113fc5760405162461bcd60e51b8152600401610507906135e7565b50600855565b600b6020526000908152604090208054819061141d90613f88565b80601f016020809104026020016040519081016040528092919081815260200182805461144990613f88565b80156114965780601f1061146b57610100808354040283529160200191611496565b820191906000526020600020905b81548152906001019060200180831161147957829003601f168201915b5050505060018301546002840154600385015460049095015493946001600160a01b039092169390925085565b600080600080600080868060200190518101906114e091906130f5565b945094509450945094506114fa8a86868c8c888888611fbe565b5063bc197c8160e01b9a9950505050505050505050565b6001600160a01b03918216600090815260016020908152604080832093909416825291909152205460ff1690565b63f23a6e6160e01b95945050505050565b611558611941565b6001600160a01b0316856001600160a01b0316148061157e575061157e85610459611941565b61159a5760405162461bcd60e51b81526004016105079061379f565b610af78585858585612312565b6115af611941565b6001600160a01b03166115c06111ba565b6001600160a01b0316146115e65760405162461bcd60e51b815260040161050790613b38565b6001600160a01b03811661160c5760405162461bcd60e51b8152600401610507906136fe565b61161581611d73565b50565b600c60205260009081526040902080546003909101546001600160a01b039091169082565b6000818152600c60209081526040918290208054600190910180548451818502810185019095528085526001600160a01b03909216936060938493919291908301828280156116ab57602002820191906000526020600020905b815481526020019060010190808311611697575b50505050509150600c600085815260200190815260200160002060020180548060200260200160405190810160405280929190818152602001828054801561171257602002820191906000526020600020905b8154815260200190600101908083116116fe575b505050505090509193909250565b60065460408051634a32c6bf60e11b8152905133926001600160a01b0316916391d148549183916394658d7e916004808301926020929190829003018186803b15801561176c57600080fd5b505afa158015611780573d6000803e3d6000fd5b505050506040513d601f19601f820116820180604052508101906117a49190613084565b836040518363ffffffff1660e01b81526004016117c2929190613463565b60206040518083038186803b1580156117da57600080fd5b505afa1580156117ee573d6000803e3d6000fd5b505050506040513d601f19601f820116820180604052508101906118129190613050565b61182e5760405162461bcd60e51b8152600401610507906135e7565b60405163a9059cbb60e01b81526000906001600160a01b037f0000000000000000000000000000000000000000000000000000000000000000169063a9059cbb9061187f90879087906004016133cd565b602060405180830381600087803b15801561189957600080fd5b505af11580156118ad573d6000803e3d6000fd5b505050506040513d601f19601f820116820180604052508101906118d19190613050565b9050806118f05760405162461bcd60e51b8152600401610507906137fc565b50505050565b600061190133611049565b15611915575060131936013560601c6111c7565b61191d611924565b90506111c7565b3390565b6001600160e01b031981166301ffc9a760e01b14919050565b600061194b6118f6565b905090565b81518351146119715760405162461bcd60e51b815260040161050790613cbb565b6001600160a01b0384166119975760405162461bcd60e51b8152600401610507906139de565b60006119a1611941565b90506119b1818787878787612455565b60005b8451811015611ab35760008582815181106119df57634e487b7160e01b600052603260045260246000fd5b602002602001015190506000858381518110611a0b57634e487b7160e01b600052603260045260246000fd5b602090810291909101810151600084815280835260408082206001600160a01b038e168352909352919091205490915081811015611a5b5760405162461bcd60e51b815260040161050790613adb565b6000838152602081815260408083206001600160a01b038e8116855292528083208585039055908b16825281208054849290611a98908490613efa565b9250508190555050505080611aac90613fbd565b90506119b4565b50846001600160a01b0316866001600160a01b0316826001600160a01b03167f4a39dc06d4c0dbc64b70af90fd698a233a518aa5d07e595d983b8c0526c8f7fb8787604051611b0392919061342a565b60405180910390a4611b19818787878787612509565b505050505050565b6001600160a01b038316611b475760405162461bcd60e51b815260040161050790613a98565b6000611b51611941565b9050611b8181856000611b6387612617565b611b6c87612617565b60405180602001604052806000815250612455565b6000838152602081815260408083206001600160a01b038816845290915290205482811015611bc25760405162461bcd60e51b81526004016105079061375b565b6000848152602081815260408083206001600160a01b03808a16808652919093528184208786039055905190918516907fc3d58168c5ae7397731d063d5bbf3d657854427343f4c083240f7aacaa2d0f6290611c219089908990613274565b60405180910390a45050505050565b60007f00000000000000000000000000000000000000000000000000000000000000006001600160a01b0316634000aea07f000000000000000000000000000000000000000000000000000000000000000084866000604051602001611c97929190613274565b6040516020818303038152906040526040518463ffffffff1660e01b8152600401611cc4939291906133e6565b602060405180830381600087803b158015611cde57600080fd5b505af1158015611cf2573d6000803e3d6000fd5b505050506040513d601f19601f82011682018060405250810190611d169190613050565b50600083815260036020526040812054611d3590859083903090612670565b600085815260036020526040902054909150611d52906001613efa565b600085815260036020526040902055611d6b84826126aa565b949350505050565b600480546001600160a01b038381166001600160a01b0319831681179093556040519116919082907f8be0079c531659141344cd1fd0a4f28419497f9722a3daafe3b4186f6b6457e090600090a35050565b6000828152600d602090815260408083208151808301835281548082526001928301546001600160a01b03908116838701819052828852600e87528588208189528752858820889055828852600c875285882086516080810188528154909316835294850180548751818a0281018a01909852808852949893979196939592949293858301939092830182828015611e7c57602002820191906000526020600020905b815481526020019060010190808311611e68575b5050505050815260200160028201805480602002602001604051908101604052809291908181526020018280548015611ed457602002820191906000526020600020905b815481526020019060010190808311611ec0575b505050505081526020016003820154815250509050600080611ef78588856126dd565b8451604051631759616b60e11b81529294509092506001600160a01b031690632eb2c2d690611f309030908890879087906004016132f4565b600060405180830381600087803b158015611f4a57600080fd5b505af1158015611f5e573d6000803e3d6000fd5b5050505082600001516001600160a01b0316846001600160a01b0316867f9cae8e743935573869e2fe7223782448d71211235c93076166106782de1c234f8b86604051611fac92919061347a565b60405180910390a45050505050505050565b600660009054906101000a90046001600160a01b03166001600160a01b0316639d2f83f06040518163ffffffff1660e01b815260040160206040518083038186803b15801561200c57600080fd5b505afa158015612020573d6000803e3d6000fd5b505050506040513d601f19601f820116820180604052508101906120449190613050565b156120615760405162461bcd60e51b81526004016105079061394a565b6040516301ffc9a760e01b81526001600160a01b038716906301ffc9a7906120919063d9b67a26906004016134cc565b60206040518083038186803b1580156120a957600080fd5b505afa1580156120bd573d6000803e3d6000fd5b505050506040513d601f19601f820116820180604052508101906120e19190613050565b6120fd5760405162461bcd60e51b815260040161050790613d59565b6000612108856129de565b90506121148282613fd8565b156121315760405162461bcd60e51b8152600401610507906138ed565b600061213b612a38565b905060006121498484613f12565b905060006040518060a001604052808c81526020018d6001600160a01b03168152602001838152602001884261217f9190613efa565b81526020018715612199576121948842613efa565b61219d565b6000195b9052604080516080810182526001600160a01b038d16815260208082018d90528183018c9052606082018990526000878152600b825292909220835180519495509193859391926121f2928492910190612c41565b50602082810151600180840180546001600160a01b039384166001600160a01b0319918216179091556040808701516002870155606087015160038701556080909601516004909501949094556000898152600c84529490942085518154921691909316178255838101518051859461227093908501920190612cc5565b506040820151805161228c916002840191602090910190612cc5565b50606082015181600301559050506122b58d858560405180602001604052806000815250612a56565b8c6001600160a01b03168b6001600160a01b0316857f9330e9dfd1e803e5d709edb2ad6657b74cb0fb1f182bd63fdbbcb01a463e8ad085856040516122fb929190613e11565b60405180910390a450505050505050505050505050565b6001600160a01b0384166123385760405162461bcd60e51b8152600401610507906139de565b6000612342611941565b905061236281878761235388612617565b61235c88612617565b87612455565b6000848152602081815260408083206001600160a01b038a168452909152902054838110156123a35760405162461bcd60e51b815260040161050790613adb565b6000858152602081815260408083206001600160a01b038b81168552925280832087850390559088168252812080548692906123e0908490613efa565b92505081905550856001600160a01b0316876001600160a01b0316836001600160a01b03167fc3d58168c5ae7397731d063d5bbf3d657854427343f4c083240f7aacaa2d0f628888604051612436929190613274565b60405180910390a461244c828888888888612b32565b50505050505050565b612463868686868686611b19565b6001600160a01b038416611b195760005b835181101561244c5782818151811061249d57634e487b7160e01b600052603260045260246000fd5b6020026020010151600b60008684815181106124c957634e487b7160e01b600052603260045260246000fd5b6020026020010151815260200190815260200160002060020160008282546124f19190613f45565b909155506125029050600182613efa565b9050612474565b61251b846001600160a01b0316612c03565b15611b195760405163bc197c8160e01b81526001600160a01b0385169063bc197c81906125549089908990889088908890600401613296565b602060405180830381600087803b15801561256e57600080fd5b505af192505050801561259e575060408051601f3d908101601f1916820190925261259b918101906130d9565b60015b6125e7576125aa614034565b806125b557506125cf565b8060405162461bcd60e51b815260040161050791906134da565b60405162461bcd60e51b81526004016105079061352d565b6001600160e01b0319811663bc197c8160e01b1461244c5760405162461bcd60e51b81526004016105079061358a565b6040805160018082528183019092526060916000919060208083019080368337019050509050828160008151811061265f57634e487b7160e01b600052603260045260246000fd5b602090810291909101015292915050565b6000848484846040516020016126899493929190613493565b60408051601f19818403018152919052805160209091012095945050505050565b600082826040516020016126bf929190613274565b60405160208183030381529060405280519060200120905092915050565b60608060006126ef84604001516129de565b9050600080856060015167ffffffffffffffff81111561271f57634e487b7160e01b600052604160045260246000fd5b604051908082528060200260200182016040528015612748578160200160208202803683370190505b509450856060015167ffffffffffffffff81111561277657634e487b7160e01b600052604160045260246000fd5b60405190808252806020026020018201604052801561279f578160200160208202803683370190505b50935060005b8660600151811015612962578388826040516020016127c5929190613274565b6040516020818303038152906040528051906020012060001c6127e89190613fd8565b915060005b87602001515181101561294f57838860400151828151811061281f57634e487b7160e01b600052603260045260246000fd5b60200260200101516128319190613efa565b831015612904578760200151818151811061285c57634e487b7160e01b600052603260045260246000fd5b602002602001015187838151811061288457634e487b7160e01b600052603260045260246000fd5b60200260200101818152505060018683815181106128b257634e487b7160e01b600052603260045260246000fd5b6020026020010181815250506001886040015182815181106128e457634e487b7160e01b600052603260045260246000fd5b602002602001018181516128f89190613f45565b9052506000935061294f565b8760400151818151811061292857634e487b7160e01b600052603260045260246000fd5b60200260200101518461293b9190613efa565b9350612948600182613efa565b90506127ed565b5061295b600182613efa565b90506127a5565b506000888152600c60209081526040909120875181546001600160a01b0319166001600160a01b0390911617815587820151805189936129a9926001850192910190612cc5565b50604082015180516129c5916002840191602090910190612cc5565b5060608201518160030155905050505050935093915050565b6000805b8251811015612a3257828181518110612a0b57634e487b7160e01b600052603260045260246000fd5b602002602001015182612a1e9190613efa565b9150612a2b600182613efa565b90506129e2565b50919050565b60078054906001906000612a4c8385613efa565b9250508190555090565b6001600160a01b038416612a7c5760405162461bcd60e51b815260040161050790613d18565b6000612a86611941565b9050612a988160008761235388612617565b6000848152602081815260408083206001600160a01b038916845290915281208054859290612ac8908490613efa565b92505081905550846001600160a01b031660006001600160a01b0316826001600160a01b03167fc3d58168c5ae7397731d063d5bbf3d657854427343f4c083240f7aacaa2d0f628787604051612b1f929190613274565b60405180910390a4610af7816000878787875b612b44846001600160a01b0316612c03565b15611b195760405163f23a6e6160e01b81526001600160a01b0385169063f23a6e6190612b7d908990899088908890889060040161334c565b602060405180830381600087803b158015612b9757600080fd5b505af1925050508015612bc7575060408051601f3d908101601f19168201909252612bc4918101906130d9565b60015b612bd3576125aa614034565b6001600160e01b0319811663f23a6e6160e01b1461244c5760405162461bcd60e51b81526004016105079061358a565b3b151590565b6040518060a001604052806060815260200160006001600160a01b031681526020016000815260200160008152602001600081525090565b828054612c4d90613f88565b90600052602060002090601f016020900481019282612c6f5760008555612cb5565b82601f10612c8857805160ff1916838001178555612cb5565b82800160010185558215612cb5579182015b82811115612cb5578251825591602001919060010190612c9a565b50612cc1929150612cff565b5090565b828054828255906000526020600020908101928215612cb55791602002820182811115612cb5578251825591602001919060010190612c9a565b5b80821115612cc15760008155600101612d00565b600082601f830112612d24578081fd5b81356020612d39612d3483613eae565b613e84565b8281528181019085830183850287018401881015612d55578586fd5b855b85811015612d7357813584529284019290840190600101612d57565b5090979650505050505050565b600082601f830112612d90578081fd5b8135612d9e612d3482613ed2565b818152846020838601011115612db2578283fd5b816020850160208301379081016020019190915292915050565b600060208284031215612ddd578081fd5b8135612de8816140d9565b9392505050565b60008060408385031215612e01578081fd5b8235612e0c816140d9565b91506020830135612e1c816140d9565b809150509250929050565b600080600080600060a08688031215612e3e578081fd5b8535612e49816140d9565b94506020860135612e59816140d9565b9350604086013567ffffffffffffffff80821115612e75578283fd5b612e8189838a01612d14565b94506060880135915080821115612e96578283fd5b612ea289838a01612d14565b93506080880135915080821115612eb7578283fd5b50612ec488828901612d80565b9150509295509295909350565b600080600080600060a08688031215612ee8578081fd5b8535612ef3816140d9565b94506020860135612f03816140d9565b93506040860135925060608601359150608086013567ffffffffffffffff811115612f2c578182fd5b612ec488828901612d80565b60008060408385031215612f4a578182fd5b8235612f55816140d9565b91506020830135612e1c816140ee565b60008060408385031215612f77578081fd5b8235612f82816140d9565b946020939093013593505050565b60008060408385031215612fa2578182fd5b823567ffffffffffffffff80821115612fb9578384fd5b818501915085601f830112612fcc578384fd5b81356020612fdc612d3483613eae565b82815281810190858301838502870184018b1015612ff8578889fd5b8896505b8487101561302357803561300f816140d9565b835260019690960195918301918301612ffc565b5096505086013592505080821115613039578283fd5b5061304685828601612d14565b9150509250929050565b600060208284031215613061578081fd5b8151612de8816140ee565b60006020828403121561307d578081fd5b5035919050565b600060208284031215613095578081fd5b5051919050565b600080604083850312156130ae578182fd5b50508035926020909101359150565b6000602082840312156130ce578081fd5b8135612de8816140fc565b6000602082840312156130ea578081fd5b8151612de8816140fc565b600080600080600060a0868803121561310c578283fd5b855167ffffffffffffffff811115613122578384fd5b8601601f81018813613132578384fd5b8051613140612d3482613ed2565b818152896020838501011115613154578586fd5b613165826020830160208601613f5c565b8097505050506020860151613179816140d9565b6040870151606088015160809098015196999198509695945092505050565b600080604083850312156131aa578182fd5b823591506020830135612e1c816140d9565b6000815180845260208085019450808401835b838110156131eb578151875295820195908201906001016131cf565b509495945050505050565b6000815180845261320e816020860160208601613f5c565b601f01601f19169290920160200192915050565b6000815160a0845261323760a08501826131f6565b90506001600160a01b0360208401511660208501526040830151604085015260608301516060850152608083015160808501528091505092915050565b918252602082015260400190565b6001600160a01b0391909116815260200190565b60006001600160a01b03808816835280871660208401525060a060408301526132c260a08301866131bc565b82810360608401526132d481866131bc565b905082810360808401526132e881856131f6565b98975050505050505050565b60006001600160a01b03808716835280861660208401525060a0604083015261332060a08301856131bc565b828103606084015261333281856131bc565b838103608090940193909352508152602001949350505050565b60006001600160a01b03808816835280871660208401525084604083015283606083015260a0608083015261338460a08301846131f6565b979650505050505050565b60006001600160a01b0385168252606060208301526133b160608301856131bc565b82810360408401526133c381856131bc565b9695505050505050565b6001600160a01b03929092168252602082015260400190565b60006001600160a01b03851682528360208301526060604083015261340e60608301846131f6565b95945050505050565b600060208252612de860208301846131bc565b60006040825261343d60408301856131bc565b828103602084015261340e81856131bc565b901515815260200190565b90815260200190565b9182526001600160a01b0316602082015260400190565b600083825260406020830152611d6b60408301846131bc565b93845260208401929092526001600160a01b03166040830152606082015260800190565b6001600160e01b031991909116815260200190565b60e09190911b815260200190565b600060208252612de860208301846131f6565b600060a0825261350060a08301886131f6565b90506001600160a01b03861660208301528460408301528360608301528260808301529695505050505050565b60208082526034908201527f455243313135353a207472616e7366657220746f206e6f6e204552433131353560408201527f526563656976657220696d706c656d656e746572000000000000000000000000606082015260800190565b60208082526028908201527f455243313135353a204552433131353552656365697665722072656a6563746560408201527f6420746f6b656e73000000000000000000000000000000000000000000000000606082015260800190565b60208082526033908201527f5061636b3a206f6e6c7920612070726f746f636f6c2061646d696e2063616e2060408201527f63616c6c20746869732066756e6374696f6e2e00000000000000000000000000606082015260800190565b60208082526039908201527f5061636b3a207468652077696e646f7720746f206f70656e207061636b73206860408201527f6173206e6f742073746172746564206f7220636c6f7365642e00000000000000606082015260800190565b6020808252602b908201527f455243313135353a2062616c616e636520717565727920666f7220746865207a60408201527f65726f2061646472657373000000000000000000000000000000000000000000606082015260800190565b60208082526026908201527f4f776e61626c653a206e6577206f776e657220697320746865207a65726f206160408201527f6464726573730000000000000000000000000000000000000000000000000000606082015260800190565b60208082526024908201527f455243313135353a206275726e20616d6f756e7420657863656564732062616c604082015263616e636560e01b606082015260800190565b60208082526029908201527f455243313135353a2063616c6c6572206973206e6f74206f776e6572206e6f7260408201527f20617070726f7665640000000000000000000000000000000000000000000000606082015260800190565b6020808252601e908201527f5061636b3a204661696c656420746f207472616e73666572204c494e4b2e0000604082015260600190565b6020808252602b908201527f5061636b3a204270732070726f7669646564206d757374206265206c6573732060408201527f7468616e2031302c303030000000000000000000000000000000000000000000606082015260800190565b60208082526034908201527f5061636b3a204e6f7420656e6f756768204c494e4b20746f2066756c66696c6c60408201527f2072616e646f6d6e65737320726571756573742e000000000000000000000000606082015260800190565b60208082526029908201527f5061636b3a20696e76616c6964206e756d626572206f6620726577617264732060408201527f706572206f70656e2e0000000000000000000000000000000000000000000000606082015260800190565b6020808252601d908201527f5061636b3a205468652070726f746f636f6c206973207061757365642e000000604082015260600190565b60208082526032908201527f5061636b3a206d757374207761697420666f72207468652070656e64696e672060408201527f7061636b20746f206265206f70656e65642e0000000000000000000000000000606082015260800190565b60208082526025908201527f455243313135353a207472616e7366657220746f20746865207a65726f20616460408201527f6472657373000000000000000000000000000000000000000000000000000000606082015260800190565b60208082526032908201527f455243313135353a207472616e736665722063616c6c6572206973206e6f742060408201527f6f776e6572206e6f7220617070726f7665640000000000000000000000000000606082015260800190565b60208082526023908201527f455243313135353a206275726e2066726f6d20746865207a65726f206164647260408201526265737360e81b606082015260800190565b6020808252602a908201527f455243313135353a20696e73756666696369656e742062616c616e636520666f60408201527f72207472616e7366657200000000000000000000000000000000000000000000606082015260800190565b6020808252818101527f4f776e61626c653a2063616c6c6572206973206e6f7420746865206f776e6572604082015260600190565b6020808252601f908201527f4f6e6c7920565246436f6f7264696e61746f722063616e2066756c66696c6c00604082015260600190565b6020808252602f908201527f5061636b3a2073656e646572206f776e73206e6f207061636b73206f6620746860408201527f6520676976656e207061636b49642e0000000000000000000000000000000000606082015260800190565b60208082526029908201527f455243313135353a2073657474696e6720617070726f76616c2073746174757360408201527f20666f722073656c660000000000000000000000000000000000000000000000606082015260800190565b60208082526029908201527f455243313135353a206163636f756e747320616e6420696473206c656e67746860408201527f206d69736d617463680000000000000000000000000000000000000000000000606082015260800190565b60208082526028908201527f455243313135353a2069647320616e6420616d6f756e7473206c656e6774682060408201527f6d69736d61746368000000000000000000000000000000000000000000000000606082015260800190565b60208082526021908201527f455243313135353a206d696e7420746f20746865207a65726f206164647265736040820152607360f81b606082015260800190565b60208082526032908201527f5061636b3a2072657761726420636f6e747261637420646f6573206e6f74206960408201527f6d706c656d656e742045524320313135352e0000000000000000000000000000606082015260800190565b600060208252612de86020830184613222565b600060808252613ddc6080830187613222565b6001600160a01b03861660208401528281036040840152613dfd81866131bc565b9050828103606084015261338481856131bc565b600060408252613e246040830185613222565b82810360208401526001600160a01b038451168152602084015160806020830152613e5260808301826131bc565b905060408501518282036040840152613e6b82826131bc565b9150506060850151606083015280925050509392505050565b60405181810167ffffffffffffffff81118282101715613ea657613ea6614018565b604052919050565b600067ffffffffffffffff821115613ec857613ec8614018565b5060209081020190565b600067ffffffffffffffff821115613eec57613eec614018565b50601f01601f191660200190565b60008219821115613f0d57613f0d613fec565b500190565b600082613f2157613f21614002565b500490565b6000816000190483118215151615613f4057613f40613fec565b500290565b600082821015613f5757613f57613fec565b500390565b60005b83811015613f77578181015183820152602001613f5f565b838111156118f05750506000910152565b600281046001821680613f9c57607f821691505b60208210811415612a3257634e487b7160e01b600052602260045260246000fd5b6000600019821415613fd157613fd1613fec565b5060010190565b600082613fe757613fe7614002565b500690565b634e487b7160e01b600052601160045260246000fd5b634e487b7160e01b600052601260045260246000fd5b634e487b7160e01b600052604160045260246000fd5b60e01c90565b600060443d1015614044576111c7565b600481823e6308c379a0614058825161402e565b14614062576111c7565b6040513d600319016004823e80513d67ffffffffffffffff816024840111818411171561409257505050506111c7565b828401925082519150808211156140ac57505050506111c7565b503d830160208284010111156140c4575050506111c7565b601f01601f1916810160200160405291505090565b6001600160a01b038116811461161557600080fd5b801515811461161557600080fd5b6001600160e01b03198116811461161557600080fdfea164736f6c6343000800000a",
  "linkReferences": {},
  "deployedLinkReferences": {}
}