{
  "_format": "hh-sol-artifact-1",
  "contractName": "Pack",
  "sourceName": "contracts/Pack.sol",
  "abi": [
    {
      "inputs": [
        {
          "internalType": "address payable",
          "name": "_controlCenter",
          "type": "address"
        },
        {
          "internalType": "string",
          "name": "_uri",
          "type": "string"
        },
        {
          "internalType": "address",
          "name": "_vrfCoordinator",
          "type": "address"
        },
        {
          "internalType": "address",
          "name": "_linkToken",
          "type": "address"
        },
        {
          "internalType": "bytes32",
          "name": "_keyHash",
          "type": "bytes32"
        },
        {
          "internalType": "uint256",
          "name": "_fees",
          "type": "uint256"
        },
        {
          "internalType": "address",
          "name": "_trustedForwarder",
          "type": "address"
        }
      ],
      "stateMutability": "nonpayable",
      "type": "constructor"
    },
    {
      "anonymous": false,
      "inputs": [
        {
          "indexed": true,
          "internalType": "address",
          "name": "account",
          "type": "address"
        },
        {
          "indexed": true,
          "internalType": "address",
          "name": "operator",
          "type": "address"
        },
        {
          "indexed": false,
          "internalType": "bool",
          "name": "approved",
          "type": "bool"
        }
      ],
      "name": "ApprovalForAll",
      "type": "event"
    },
    {
      "anonymous": false,
      "inputs": [
        {
          "indexed": true,
          "internalType": "uint256",
          "name": "packId",
          "type": "uint256"
        },
        {
          "indexed": true,
          "internalType": "address",
          "name": "rewardContract",
          "type": "address"
        },
        {
          "indexed": true,
          "internalType": "address",
          "name": "creator",
          "type": "address"
        },
        {
          "components": [
            {
              "internalType": "string",
              "name": "uri",
              "type": "string"
            },
            {
              "internalType": "address",
              "name": "creator",
              "type": "address"
            },
            {
              "internalType": "uint256",
              "name": "currentSupply",
              "type": "uint256"
            },
            {
              "internalType": "uint256",
              "name": "openStart",
              "type": "uint256"
            },
            {
              "internalType": "uint256",
              "name": "openEnd",
              "type": "uint256"
            }
          ],
          "indexed": false,
          "internalType": "struct Pack.PackState",
          "name": "packState",
          "type": "tuple"
        },
        {
          "components": [
            {
              "internalType": "address",
              "name": "source",
              "type": "address"
            },
            {
              "internalType": "uint256[]",
              "name": "tokenIds",
              "type": "uint256[]"
            },
            {
              "internalType": "uint256[]",
              "name": "amountsPacked",
              "type": "uint256[]"
            },
            {
              "internalType": "uint256",
              "name": "rewardsPerOpen",
              "type": "uint256"
            }
          ],
          "indexed": false,
          "internalType": "struct Pack.Rewards",
          "name": "rewards",
          "type": "tuple"
        }
      ],
      "name": "PackCreated",
      "type": "event"
    },
    {
      "anonymous": false,
      "inputs": [
        {
          "indexed": true,
          "internalType": "uint256",
          "name": "packId",
          "type": "uint256"
        },
        {
          "indexed": true,
          "internalType": "address",
          "name": "opener",
          "type": "address"
        },
        {
          "indexed": false,
          "internalType": "bytes32",
          "name": "requestId",
          "type": "bytes32"
        },
        {
          "indexed": true,
          "internalType": "address",
          "name": "rewardContract",
          "type": "address"
        },
        {
          "indexed": false,
          "internalType": "uint256[]",
          "name": "rewardIds",
          "type": "uint256[]"
        }
      ],
      "name": "PackOpenFulfilled",
      "type": "event"
    },
    {
      "anonymous": false,
      "inputs": [
        {
          "indexed": true,
          "internalType": "uint256",
          "name": "packId",
          "type": "uint256"
        },
        {
          "indexed": true,
          "internalType": "address",
          "name": "opener",
          "type": "address"
        },
        {
          "indexed": false,
          "internalType": "bytes32",
          "name": "requestId",
          "type": "bytes32"
        }
      ],
      "name": "PackOpenRequest",
      "type": "event"
    },
    {
      "anonymous": false,
      "inputs": [
        {
          "indexed": false,
          "internalType": "address",
          "name": "account",
          "type": "address"
        }
      ],
      "name": "Paused",
      "type": "event"
    },
    {
      "anonymous": false,
      "inputs": [
        {
          "indexed": true,
          "internalType": "bytes32",
          "name": "role",
          "type": "bytes32"
        },
        {
          "indexed": true,
          "internalType": "bytes32",
          "name": "previousAdminRole",
          "type": "bytes32"
        },
        {
          "indexed": true,
          "internalType": "bytes32",
          "name": "newAdminRole",
          "type": "bytes32"
        }
      ],
      "name": "RoleAdminChanged",
      "type": "event"
    },
    {
      "anonymous": false,
      "inputs": [
        {
          "indexed": true,
          "internalType": "bytes32",
          "name": "role",
          "type": "bytes32"
        },
        {
          "indexed": true,
          "internalType": "address",
          "name": "account",
          "type": "address"
        },
        {
          "indexed": true,
          "internalType": "address",
          "name": "sender",
          "type": "address"
        }
      ],
      "name": "RoleGranted",
      "type": "event"
    },
    {
      "anonymous": false,
      "inputs": [
        {
          "indexed": true,
          "internalType": "bytes32",
          "name": "role",
          "type": "bytes32"
        },
        {
          "indexed": true,
          "internalType": "address",
          "name": "account",
          "type": "address"
        },
        {
          "indexed": true,
          "internalType": "address",
          "name": "sender",
          "type": "address"
        }
      ],
      "name": "RoleRevoked",
      "type": "event"
    },
    {
      "anonymous": false,
      "inputs": [
        {
          "indexed": false,
          "internalType": "uint256",
          "name": "royaltyBps",
          "type": "uint256"
        }
      ],
      "name": "RoyaltyUpdated",
      "type": "event"
    },
    {
      "anonymous": false,
      "inputs": [
        {
          "indexed": true,
          "internalType": "address",
          "name": "operator",
          "type": "address"
        },
        {
          "indexed": true,
          "internalType": "address",
          "name": "from",
          "type": "address"
        },
        {
          "indexed": true,
          "internalType": "address",
          "name": "to",
          "type": "address"
        },
        {
          "indexed": false,
          "internalType": "uint256[]",
          "name": "ids",
          "type": "uint256[]"
        },
        {
          "indexed": false,
          "internalType": "uint256[]",
          "name": "values",
          "type": "uint256[]"
        }
      ],
      "name": "TransferBatch",
      "type": "event"
    },
    {
      "anonymous": false,
      "inputs": [
        {
          "indexed": true,
          "internalType": "address",
          "name": "operator",
          "type": "address"
        },
        {
          "indexed": true,
          "internalType": "address",
          "name": "from",
          "type": "address"
        },
        {
          "indexed": true,
          "internalType": "address",
          "name": "to",
          "type": "address"
        },
        {
          "indexed": false,
          "internalType": "uint256",
          "name": "id",
          "type": "uint256"
        },
        {
          "indexed": false,
          "internalType": "uint256",
          "name": "value",
          "type": "uint256"
        }
      ],
      "name": "TransferSingle",
      "type": "event"
    },
    {
      "anonymous": false,
      "inputs": [
        {
          "indexed": false,
          "internalType": "string",
          "name": "value",
          "type": "string"
        },
        {
          "indexed": true,
          "internalType": "uint256",
          "name": "id",
          "type": "uint256"
        }
      ],
      "name": "URI",
      "type": "event"
    },
    {
      "anonymous": false,
      "inputs": [
        {
          "indexed": false,
          "internalType": "address",
          "name": "account",
          "type": "address"
        }
      ],
      "name": "Unpaused",
      "type": "event"
    },
    {
      "inputs": [],
      "name": "DEFAULT_ADMIN_ROLE",
      "outputs": [
        {
          "internalType": "bytes32",
          "name": "",
          "type": "bytes32"
        }
      ],
      "stateMutability": "view",
      "type": "function"
    },
    {
      "inputs": [],
      "name": "MINTER_ROLE",
      "outputs": [
        {
          "internalType": "bytes32",
          "name": "",
          "type": "bytes32"
        }
      ],
      "stateMutability": "view",
      "type": "function"
    },
    {
      "inputs": [],
      "name": "PAUSER_ROLE",
      "outputs": [
        {
          "internalType": "bytes32",
          "name": "",
          "type": "bytes32"
        }
      ],
      "stateMutability": "view",
      "type": "function"
    },
    {
      "inputs": [],
      "name": "_contractURI",
      "outputs": [
        {
          "internalType": "string",
          "name": "",
          "type": "string"
        }
      ],
      "stateMutability": "view",
      "type": "function"
    },
    {
      "inputs": [
        {
          "internalType": "address",
          "name": "account",
          "type": "address"
        },
        {
          "internalType": "uint256",
          "name": "id",
          "type": "uint256"
        }
      ],
      "name": "balanceOf",
      "outputs": [
        {
          "internalType": "uint256",
          "name": "",
          "type": "uint256"
        }
      ],
      "stateMutability": "view",
      "type": "function"
    },
    {
      "inputs": [
        {
          "internalType": "address[]",
          "name": "accounts",
          "type": "address[]"
        },
        {
          "internalType": "uint256[]",
          "name": "ids",
          "type": "uint256[]"
        }
      ],
      "name": "balanceOfBatch",
      "outputs": [
        {
          "internalType": "uint256[]",
          "name": "",
          "type": "uint256[]"
        }
      ],
      "stateMutability": "view",
      "type": "function"
    },
    {
      "inputs": [
        {
          "internalType": "address",
          "name": "account",
          "type": "address"
        },
        {
          "internalType": "uint256",
          "name": "id",
          "type": "uint256"
        },
        {
          "internalType": "uint256",
          "name": "value",
          "type": "uint256"
        }
      ],
      "name": "burn",
      "outputs": [],
      "stateMutability": "nonpayable",
      "type": "function"
    },
    {
      "inputs": [
        {
          "internalType": "address",
          "name": "account",
          "type": "address"
        },
        {
          "internalType": "uint256[]",
          "name": "ids",
          "type": "uint256[]"
        },
        {
          "internalType": "uint256[]",
          "name": "values",
          "type": "uint256[]"
        }
      ],
      "name": "burnBatch",
      "outputs": [],
      "stateMutability": "nonpayable",
      "type": "function"
    },
    {
      "inputs": [],
      "name": "contractURI",
      "outputs": [
        {
          "internalType": "string",
          "name": "",
          "type": "string"
        }
      ],
      "stateMutability": "view",
      "type": "function"
    },
    {
      "inputs": [
        {
          "internalType": "uint256",
          "name": "_packId",
          "type": "uint256"
        }
      ],
      "name": "creator",
      "outputs": [
        {
          "internalType": "address",
          "name": "",
          "type": "address"
        }
      ],
      "stateMutability": "view",
      "type": "function"
    },
    {
      "inputs": [
        {
          "internalType": "uint256",
          "name": "",
          "type": "uint256"
        },
        {
          "internalType": "address",
          "name": "",
          "type": "address"
        }
      ],
      "name": "currentRequestId",
      "outputs": [
        {
          "internalType": "bytes32",
          "name": "",
          "type": "bytes32"
        }
      ],
      "stateMutability": "view",
      "type": "function"
    },
    {
      "inputs": [
        {
          "internalType": "uint256",
          "name": "_packId",
          "type": "uint256"
        }
      ],
      "name": "getPack",
      "outputs": [
        {
          "components": [
            {
              "internalType": "string",
              "name": "uri",
              "type": "string"
            },
            {
              "internalType": "address",
              "name": "creator",
              "type": "address"
            },
            {
              "internalType": "uint256",
              "name": "currentSupply",
              "type": "uint256"
            },
            {
              "internalType": "uint256",
              "name": "openStart",
              "type": "uint256"
            },
            {
              "internalType": "uint256",
              "name": "openEnd",
              "type": "uint256"
            }
          ],
          "internalType": "struct Pack.PackState",
          "name": "pack",
          "type": "tuple"
        }
      ],
      "stateMutability": "view",
      "type": "function"
    },
    {
      "inputs": [
        {
          "internalType": "uint256",
          "name": "_packId",
          "type": "uint256"
        }
      ],
      "name": "getPackWithRewards",
      "outputs": [
        {
          "components": [
            {
              "internalType": "string",
              "name": "uri",
              "type": "string"
            },
            {
              "internalType": "address",
              "name": "creator",
              "type": "address"
            },
            {
              "internalType": "uint256",
              "name": "currentSupply",
              "type": "uint256"
            },
            {
              "internalType": "uint256",
              "name": "openStart",
              "type": "uint256"
            },
            {
              "internalType": "uint256",
              "name": "openEnd",
              "type": "uint256"
            }
          ],
          "internalType": "struct Pack.PackState",
          "name": "pack",
          "type": "tuple"
        },
        {
          "internalType": "address",
          "name": "source",
          "type": "address"
        },
        {
          "internalType": "uint256[]",
          "name": "tokenIds",
          "type": "uint256[]"
        },
        {
          "internalType": "uint256[]",
          "name": "amountsPacked",
          "type": "uint256[]"
        }
      ],
      "stateMutability": "view",
      "type": "function"
    },
    {
      "inputs": [
        {
          "internalType": "bytes32",
          "name": "role",
          "type": "bytes32"
        }
      ],
      "name": "getRoleAdmin",
      "outputs": [
        {
          "internalType": "bytes32",
          "name": "",
          "type": "bytes32"
        }
      ],
      "stateMutability": "view",
      "type": "function"
    },
    {
      "inputs": [
        {
          "internalType": "bytes32",
          "name": "role",
          "type": "bytes32"
        },
        {
          "internalType": "uint256",
          "name": "index",
          "type": "uint256"
        }
      ],
      "name": "getRoleMember",
      "outputs": [
        {
          "internalType": "address",
          "name": "",
          "type": "address"
        }
      ],
      "stateMutability": "view",
      "type": "function"
    },
    {
      "inputs": [
        {
          "internalType": "bytes32",
          "name": "role",
          "type": "bytes32"
        }
      ],
      "name": "getRoleMemberCount",
      "outputs": [
        {
          "internalType": "uint256",
          "name": "",
          "type": "uint256"
        }
      ],
      "stateMutability": "view",
      "type": "function"
    },
    {
      "inputs": [
        {
          "internalType": "bytes32",
          "name": "role",
          "type": "bytes32"
        },
        {
          "internalType": "address",
          "name": "account",
          "type": "address"
        }
      ],
      "name": "grantRole",
      "outputs": [],
      "stateMutability": "nonpayable",
      "type": "function"
    },
    {
      "inputs": [
        {
          "internalType": "bytes32",
          "name": "role",
          "type": "bytes32"
        },
        {
          "internalType": "address",
          "name": "account",
          "type": "address"
        }
      ],
      "name": "hasRole",
      "outputs": [
        {
          "internalType": "bool",
          "name": "",
          "type": "bool"
        }
      ],
      "stateMutability": "view",
      "type": "function"
    },
    {
      "inputs": [
        {
          "internalType": "address",
          "name": "account",
          "type": "address"
        },
        {
          "internalType": "address",
          "name": "operator",
          "type": "address"
        }
      ],
      "name": "isApprovedForAll",
      "outputs": [
        {
          "internalType": "bool",
          "name": "",
          "type": "bool"
        }
      ],
      "stateMutability": "view",
      "type": "function"
    },
    {
      "inputs": [
        {
          "internalType": "address",
          "name": "forwarder",
          "type": "address"
        }
      ],
      "name": "isTrustedForwarder",
      "outputs": [
        {
          "internalType": "bool",
          "name": "",
          "type": "bool"
        }
      ],
      "stateMutability": "view",
      "type": "function"
    },
    {
      "inputs": [
        {
          "internalType": "address",
          "name": "to",
          "type": "address"
        },
        {
          "internalType": "uint256",
          "name": "id",
          "type": "uint256"
        },
        {
          "internalType": "uint256",
          "name": "amount",
          "type": "uint256"
        },
        {
          "internalType": "bytes",
          "name": "data",
          "type": "bytes"
        }
      ],
      "name": "mint",
      "outputs": [],
      "stateMutability": "nonpayable",
      "type": "function"
    },
    {
      "inputs": [
        {
          "internalType": "address",
          "name": "to",
          "type": "address"
        },
        {
          "internalType": "uint256[]",
          "name": "ids",
          "type": "uint256[]"
        },
        {
          "internalType": "uint256[]",
          "name": "amounts",
          "type": "uint256[]"
        },
        {
          "internalType": "bytes",
          "name": "data",
          "type": "bytes"
        }
      ],
      "name": "mintBatch",
      "outputs": [],
      "stateMutability": "nonpayable",
      "type": "function"
    },
    {
      "inputs": [],
      "name": "nextTokenId",
      "outputs": [
        {
          "internalType": "uint256",
          "name": "",
          "type": "uint256"
        }
      ],
      "stateMutability": "view",
      "type": "function"
    },
    {
      "inputs": [
        {
          "internalType": "address",
          "name": "",
          "type": "address"
        },
        {
          "internalType": "address",
          "name": "_from",
          "type": "address"
        },
        {
          "internalType": "uint256[]",
          "name": "_ids",
          "type": "uint256[]"
        },
        {
          "internalType": "uint256[]",
          "name": "_values",
          "type": "uint256[]"
        },
        {
          "internalType": "bytes",
          "name": "_data",
          "type": "bytes"
        }
      ],
      "name": "onERC1155BatchReceived",
      "outputs": [
        {
          "internalType": "bytes4",
          "name": "",
          "type": "bytes4"
        }
      ],
      "stateMutability": "nonpayable",
      "type": "function"
    },
    {
      "inputs": [
        {
          "internalType": "address",
          "name": "",
          "type": "address"
        },
        {
          "internalType": "address",
          "name": "",
          "type": "address"
        },
        {
          "internalType": "uint256",
          "name": "",
          "type": "uint256"
        },
        {
          "internalType": "uint256",
          "name": "",
          "type": "uint256"
        },
        {
          "internalType": "bytes",
          "name": "",
          "type": "bytes"
        }
      ],
      "name": "onERC1155Received",
      "outputs": [
        {
          "internalType": "bytes4",
          "name": "",
          "type": "bytes4"
        }
      ],
      "stateMutability": "nonpayable",
      "type": "function"
    },
    {
      "inputs": [
        {
          "internalType": "uint256",
          "name": "_packId",
          "type": "uint256"
        }
      ],
      "name": "openPack",
      "outputs": [],
      "stateMutability": "nonpayable",
      "type": "function"
    },
    {
      "inputs": [
        {
          "internalType": "uint256",
          "name": "",
          "type": "uint256"
        }
      ],
      "name": "packs",
      "outputs": [
        {
          "internalType": "string",
          "name": "uri",
          "type": "string"
        },
        {
          "internalType": "address",
          "name": "creator",
          "type": "address"
        },
        {
          "internalType": "uint256",
          "name": "currentSupply",
          "type": "uint256"
        },
        {
          "internalType": "uint256",
          "name": "openStart",
          "type": "uint256"
        },
        {
          "internalType": "uint256",
          "name": "openEnd",
          "type": "uint256"
        }
      ],
      "stateMutability": "view",
      "type": "function"
    },
    {
      "inputs": [],
      "name": "pause",
      "outputs": [],
      "stateMutability": "nonpayable",
      "type": "function"
    },
    {
      "inputs": [],
      "name": "paused",
      "outputs": [
        {
          "internalType": "bool",
          "name": "",
          "type": "bool"
        }
      ],
      "stateMutability": "view",
      "type": "function"
    },
    {
      "inputs": [
        {
          "internalType": "bytes32",
          "name": "",
          "type": "bytes32"
        }
      ],
      "name": "randomnessRequests",
      "outputs": [
        {
          "internalType": "uint256",
          "name": "packId",
          "type": "uint256"
        },
        {
          "internalType": "address",
          "name": "opener",
          "type": "address"
        }
      ],
      "stateMutability": "view",
      "type": "function"
    },
    {
      "inputs": [
        {
          "internalType": "bytes32",
          "name": "requestId",
          "type": "bytes32"
        },
        {
          "internalType": "uint256",
          "name": "randomness",
          "type": "uint256"
        }
      ],
      "name": "rawFulfillRandomness",
      "outputs": [],
      "stateMutability": "nonpayable",
      "type": "function"
    },
    {
      "inputs": [
        {
          "internalType": "bytes32",
          "name": "role",
          "type": "bytes32"
        },
        {
          "internalType": "address",
          "name": "account",
          "type": "address"
        }
      ],
      "name": "renounceRole",
      "outputs": [],
      "stateMutability": "nonpayable",
      "type": "function"
    },
    {
      "inputs": [
        {
          "internalType": "bytes32",
          "name": "role",
          "type": "bytes32"
        },
        {
          "internalType": "address",
          "name": "account",
          "type": "address"
        }
      ],
      "name": "revokeRole",
      "outputs": [],
      "stateMutability": "nonpayable",
      "type": "function"
    },
    {
      "inputs": [
        {
          "internalType": "uint256",
          "name": "",
          "type": "uint256"
        }
      ],
      "name": "rewards",
      "outputs": [
        {
          "internalType": "address",
          "name": "source",
          "type": "address"
        },
        {
          "internalType": "uint256",
          "name": "rewardsPerOpen",
          "type": "uint256"
        }
      ],
      "stateMutability": "view",
      "type": "function"
    },
    {
      "inputs": [],
      "name": "royaltyBps",
      "outputs": [
        {
          "internalType": "uint256",
          "name": "",
          "type": "uint256"
        }
      ],
      "stateMutability": "view",
      "type": "function"
    },
    {
      "inputs": [
        {
          "internalType": "uint256",
          "name": "tokenId",
          "type": "uint256"
        },
        {
          "internalType": "uint256",
          "name": "salePrice",
          "type": "uint256"
        }
      ],
      "name": "royaltyInfo",
      "outputs": [
        {
          "internalType": "address",
          "name": "receiver",
          "type": "address"
        },
        {
          "internalType": "uint256",
          "name": "royaltyAmount",
          "type": "uint256"
        }
      ],
      "stateMutability": "view",
      "type": "function"
    },
    {
      "inputs": [
        {
          "internalType": "address",
          "name": "from",
          "type": "address"
        },
        {
          "internalType": "address",
          "name": "to",
          "type": "address"
        },
        {
          "internalType": "uint256[]",
          "name": "ids",
          "type": "uint256[]"
        },
        {
          "internalType": "uint256[]",
          "name": "amounts",
          "type": "uint256[]"
        },
        {
          "internalType": "bytes",
          "name": "data",
          "type": "bytes"
        }
      ],
      "name": "safeBatchTransferFrom",
      "outputs": [],
      "stateMutability": "nonpayable",
      "type": "function"
    },
    {
      "inputs": [
        {
          "internalType": "address",
          "name": "from",
          "type": "address"
        },
        {
          "internalType": "address",
          "name": "to",
          "type": "address"
        },
        {
          "internalType": "uint256",
          "name": "id",
          "type": "uint256"
        },
        {
          "internalType": "uint256",
          "name": "amount",
          "type": "uint256"
        },
        {
          "internalType": "bytes",
          "name": "data",
          "type": "bytes"
        }
      ],
      "name": "safeTransferFrom",
      "outputs": [],
      "stateMutability": "nonpayable",
      "type": "function"
    },
    {
      "inputs": [
        {
          "internalType": "address",
          "name": "operator",
          "type": "address"
        },
        {
          "internalType": "bool",
          "name": "approved",
          "type": "bool"
        }
      ],
      "name": "setApprovalForAll",
      "outputs": [],
      "stateMutability": "nonpayable",
      "type": "function"
    },
    {
      "inputs": [
        {
          "internalType": "uint256",
          "name": "_newFees",
          "type": "uint256"
        }
      ],
      "name": "setChainlinkFees",
      "outputs": [],
      "stateMutability": "nonpayable",
      "type": "function"
    },
    {
      "inputs": [
        {
          "internalType": "string",
          "name": "_URI",
          "type": "string"
        }
      ],
      "name": "setContractURI",
      "outputs": [],
      "stateMutability": "nonpayable",
      "type": "function"
    },
    {
      "inputs": [
        {
          "internalType": "uint256",
          "name": "_royaltyBps",
          "type": "uint256"
        }
      ],
      "name": "setRoyaltyBps",
      "outputs": [],
      "stateMutability": "nonpayable",
      "type": "function"
    },
    {
      "inputs": [
        {
          "internalType": "bytes4",
          "name": "interfaceId",
          "type": "bytes4"
        }
      ],
      "name": "supportsInterface",
      "outputs": [
        {
          "internalType": "bool",
          "name": "",
          "type": "bool"
        }
      ],
      "stateMutability": "view",
      "type": "function"
    },
    {
      "inputs": [
        {
          "internalType": "uint256",
          "name": "_id",
          "type": "uint256"
        }
      ],
      "name": "tokenURI",
      "outputs": [
        {
          "internalType": "string",
          "name": "",
          "type": "string"
        }
      ],
      "stateMutability": "view",
      "type": "function"
    },
    {
      "inputs": [
        {
          "internalType": "address",
          "name": "_to",
          "type": "address"
        },
        {
          "internalType": "uint256",
          "name": "_amount",
          "type": "uint256"
        }
      ],
      "name": "transferLink",
      "outputs": [],
      "stateMutability": "nonpayable",
      "type": "function"
    },
    {
      "inputs": [],
      "name": "unpause",
      "outputs": [],
      "stateMutability": "nonpayable",
      "type": "function"
    },
    {
      "inputs": [
        {
          "internalType": "uint256",
          "name": "_id",
          "type": "uint256"
        }
      ],
      "name": "uri",
      "outputs": [
        {
          "internalType": "string",
          "name": "",
          "type": "string"
        }
      ],
      "stateMutability": "view",
      "type": "function"
    },
    {
      "inputs": [],
      "name": "vrfFees",
      "outputs": [
        {
          "internalType": "uint256",
          "name": "",
          "type": "uint256"
        }
      ],
      "stateMutability": "view",
      "type": "function"
    },
    {
      "inputs": [],
      "name": "vrfKeyHash",
      "outputs": [
        {
          "internalType": "bytes32",
          "name": "",
          "type": "bytes32"
        }
      ],
      "stateMutability": "view",
      "type": "function"
    }
  ],
  "bytecode": "0x60c06040523480156200001157600080fd5b5060405162005d1b38038062005d1b833981016040819052620000349162000407565b808585888062000044816200013a565b506005805460ff191690556200006560006200005f62000153565b62000170565b620000947f9f2df0fed2c77648de5860a4cc508cd0818c85b8b8a1ab4ceeef8d981c8956a66200005f62000153565b620000c37f65d7a28e3265b37a6474929f336521b332c1681b933f6cb9f3376673440d862a6200005f62000153565b506001600160601b0319606092831b811660a052911b16608052600780546001600160a01b039283166001600160a01b03199182161790915560088054928a1692909116919091179055600b839055600a82905585516200012c90600d90602089019062000354565b5050505050505050620005a6565b80516200014f90600490602084019062000354565b5050565b60006200016a620001b360201b62001f641760201c565b90505b90565b620001878282620001f360201b62001f921760201c565b6000828152600160209081526040909120620001ae91839062001f9c620001ff821b17901c565b505050565b6000620001c0336200021f565b15620001d6575060131936013560601c6200016d565b620001eb6200023660201b62001fb11760201c565b90506200016d565b6200014f82826200023a565b600062000216836001600160a01b038416620002c4565b90505b92915050565b6007546001600160a01b038281169116145b919050565b3390565b62000246828262000313565b6200014f576000828152602081815260408083206001600160a01b03851684529091529020805460ff191660011790556200028062000153565b6001600160a01b0316816001600160a01b0316837f2f8788117e7eff1d82e926ec794901d17c78024a50270940304540a733656f0d60405160405180910390a45050565b6000620002d283836200033c565b6200030a5750815460018181018455600084815260208082209093018490558454848252828601909352604090209190915562000219565b50600062000219565b6000918252602082815260408084206001600160a01b0393909316845291905290205460ff1690565b60009081526001919091016020526040902054151590565b82805462000362906200053a565b90600052602060002090601f016020900481019282620003865760008555620003d1565b82601f10620003a157805160ff1916838001178555620003d1565b82800160010185558215620003d1579182015b82811115620003d1578251825591602001919060010190620003b4565b50620003df929150620003e3565b5090565b5b80821115620003df5760008155600101620003e4565b805162000231816200058d565b600080600080600080600060e0888a03121562000422578283fd5b87516200042f816200058d565b602089810151919850906001600160401b03808211156200044e578586fd5b818b0191508b601f83011262000462578586fd5b81518181111562000477576200047762000577565b604051601f8201601f19168101850183811182821017156200049d576200049d62000577565b60405281815283820185018e1015620004b4578788fd5b8792505b81831015620004d75783830185015181840186015291840191620004b8565b81831115620004e857878583830101525b809a505050505050620004fe60408901620003fa565b94506200050e60608901620003fa565b93506080880151925060a088015191506200052c60c08901620003fa565b905092959891949750929550565b6002810460018216806200054f57607f821691505b602082108114156200057157634e487b7160e01b600052602260045260246000fd5b50919050565b634e487b7160e01b600052604160045260246000fd5b6001600160a01b0381168114620005a357600080fd5b50565b60805160601c60a05160601c615734620005e760003960008181611710015261255401526000818161110b01528181611ebc015261252501526157346000f3fe608060405234801561001057600080fd5b506004361061032a5760003560e01c80638456cb59116101b2578063c63adb2b116100f9578063e8a3d485116100a2578063f242432a1161007c578063f242432a14610692578063f301af42146106a5578063f5298aca146106b8578063f99b1d68146106cb5761032a565b8063e8a3d48514610664578063e985e9c51461066c578063f23a6e611461067f5761032a565b8063d5391393116100d3578063d539139314610641578063d547741f14610649578063e63ab1e91461065c5761032a565b8063c63adb2b14610626578063c87b56dd14610380578063ca15c8731461062e5761032a565b8063a217fddf1161015b578063b84c139211610135578063b84c1392146105da578063bc197c81146105fe578063c0e727401461061e5761032a565b8063a217fddf146105ac578063a22cb465146105b4578063b277ca45146105c75761032a565b806391d148541161018c57806391d1485414610573578063938e3d7b1461058657806394985ddd146105995761032a565b80638456cb5914610538578063895ec54c146105405780639010d07c146105605761032a565b806336568abe11610276578063572b6c051161021f5780636b20c454116101f95780636b20c4541461050a578063731133e91461051d57806375794a3c146105305761032a565b8063572b6c05146104ce5780635c975abb146104e15780635e619b78146104e95761032a565b806350a88c7e1161025057806350a88c7e14610488578063510b51581461049b5780635318c48f146104bb5761032a565b806336568abe1461044d5780633f4ba83a146104605780634e1273f4146104685761032a565b80631f72d831116102d85780632a55205a116102b25780632a55205a146104065780632eb2c2d6146104275780632f2ff15d1461043a5761032a565b80631f72d831146103cb5780631f7fdffa146103e0578063248a9ca3146103f35761032a565b80630e89341c116103095780630e89341c1461038057806310983e57146103a057806310e34e67146103a85761032a565b8062fdd58e1461032f57806301ffc9a714610358578063041d443e14610378575b600080fd5b61034261033d3660046141fa565b6106de565b60405161034f9190614839565b60405180910390f35b61036b6103663660046143f5565b61073a565b60405161034f919061482e565b610342610768565b61039361038e366004614382565b61076e565b60405161034f91906148ab565b610342610810565b6103bb6103b6366004614382565b610816565b60405161034f94939291906153d9565b6103de6103d9366004614382565b6109e2565b005b6103de6103ee36600461412f565b610bee565b610342610401366004614382565b610c48565b6104196104143660046143d4565b610c5d565b60405161034f9291906147ac565b6103de610435366004613fb5565b610d21565b6103de6104483660046143b2565b610d7f565b6103de61045b3660046143b2565b610da6565b6103de610dc8565b61047b6104763660046142a8565b610e1a565b60405161034f91906147f6565b6103de610496366004614382565b610f3a565b6104ae6104a9366004614382565b611337565b60405161034f919061469f565b6103426104c93660046143b2565b611355565b61036b6104dc366004613f72565b611372565b61036b611386565b6104fc6104f7366004614382565b611390565b60405161034f929190614842565b6103de6105183660046140be565b6113b2565b6103de61052b366004614255565b611407565b61034261145b565b6103de611461565b61055361054e366004614382565b6114b1565b60405161034f91906153c6565b6104ae61056e3660046143d4565b61159b565b61036b6105813660046143b2565b6115ba565b6103de61059436600461442d565b6115e3565b6103de6105a73660046143d4565b611705565b61034261175b565b6103de6105c23660046141c4565b611760565b6103de6105d5366004614382565b61182e565b6105ed6105e8366004614382565b611949565b60405161034f9594939291906148be565b61061161060c366004613fb5565b611a0a565b60405161034f9190614896565b610393611af3565b610342611b81565b61034261063c366004614382565b611b87565b610342611b9e565b6103de6106573660046143b2565b611bc2565b610342611bcc565b610393611bf0565b61036b61067a366004613f8c565b611c82565b61061161068d36600461405b565b611cb0565b6103de6106a036600461405b565b611cbb565b6104196106b3366004614382565b611d12565b6103de6106c6366004614223565b611d37565b6103de6106d93660046141fa565b611d8c565b60006001600160a01b03831661070f5760405162461bcd60e51b815260040161070690614ade565b60405180910390fd5b5060008181526002602090815260408083206001600160a01b03861684529091529020545b92915050565b600061074582611fb5565b8061076057506001600160e01b0319821663152a902d60e11b145b90505b919050565b600b5481565b6000818152600e6020526040902080546060919061078b906155af565b80601f01602080910402602001604051908101604052809291908181526020018280546107b7906155af565b80156108045780601f106107d957610100808354040283529160200191610804565b820191906000526020600020905b8154815290600101906020018083116107e757829003601f168201915b50505050509050919050565b600a5481565b61081e613d24565b6000606080600e60008681526020019081526020016000206040518060a0016040529081600082018054610851906155af565b80601f016020809104026020016040519081016040528092919081815260200182805461087d906155af565b80156108ca5780601f1061089f576101008083540402835291602001916108ca565b820191906000526020600020905b8154815290600101906020018083116108ad57829003601f168201915b50505091835250506001828101546001600160a01b0390811660208085019190915260028501546040808601919091526003860154606086015260049095015460809094019390935260008a8152600f84528490208054920180548551818602810186019096528086529599509116965091929083018282801561096d57602002820191906000526020600020905b815481526020019060010190808311610959575b50505050509150600f60008681526020019081526020016000206002018054806020026020016040519081016040528092919081815260200182805480156109d457602002820191906000526020600020905b8154815260200190600101908083116109c0575b505050505090509193509193565b60085460408051634a32c6bf60e11b815290516001600160a01b03909216916391d148549183916394658d7e91600480820192602092909190829003018186803b158015610a2f57600080fd5b505afa158015610a43573d6000803e3d6000fd5b505050506040513d601f19601f82011682018060405250810190610a67919061439a565b610a6f611fc0565b6040518363ffffffff1660e01b8152600401610a8c929190614842565b60206040518083038186803b158015610aa457600080fd5b505afa158015610ab8573d6000803e3d6000fd5b505050506040513d601f19601f82011682018060405250810190610adc9190614366565b610af85760405162461bcd60e51b8152600401610706906149ed565b600860009054906101000a90046001600160a01b03166001600160a01b031663fd967f476040518163ffffffff1660e01b815260040160206040518083038186803b158015610b4657600080fd5b505afa158015610b5a573d6000803e3d6000fd5b505050506040513d601f19601f82011682018060405250810190610b7e9190614528565b6fffffffffffffffffffffffffffffffff168110610bae5760405162461bcd60e51b815260040161070690614ccd565b600c8190556040517f244ea8d7627f5a08f4299862bd5a45752842c183aee5b0fb0d1e4887bfa605b390610be3908390614839565b60405180910390a150565b610c1a7f9f2df0fed2c77648de5860a4cc508cd0818c85b8b8a1ab4ceeef8d981c8956a6610581611fc0565b610c365760405162461bcd60e51b815260040161070690614fac565b610c4284848484611fcf565b50505050565b60009081526020819052604090206001015490565b6000828152600e6020908152604080832060010154600854825163fd967f4760e01b815292516001600160a01b039283169594919092169263fd967f479260048083019392829003018186803b158015610cb657600080fd5b505afa158015610cca573d6000803e3d6000fd5b505050506040513d601f19601f82011682018060405250810190610cee9190614528565b6fffffffffffffffffffffffffffffffff16600c5484610d0e9190615536565b610d189190615522565b90509250929050565b610d29611fc0565b6001600160a01b0316856001600160a01b03161480610d4f5750610d4f8561067a611fc0565b610d6b5760405162461bcd60e51b815260040161070690614f0c565b610d788585858585612151565b5050505050565b610d898282612325565b6000828152600160205260409020610da19082611f9c565b505050565b610db08282612349565b6000828152600160205260409020610da1908261238b565b610df47f65d7a28e3265b37a6474929f336521b332c1681b933f6cb9f3376673440d862a610581611fc0565b610e105760405162461bcd60e51b81526004016107069061509d565b610e186123a0565b565b60608151835114610e3d5760405162461bcd60e51b815260040161070690615211565b6000835167ffffffffffffffff811115610e6757634e487b7160e01b600052604160045260246000fd5b604051908082528060200260200182016040528015610e90578160200160208202803683370190505b50905060005b8451811015610f3257610ef7858281518110610ec257634e487b7160e01b600052603260045260246000fd5b6020026020010151858381518110610eea57634e487b7160e01b600052603260045260246000fd5b60200260200101516106de565b828281518110610f1757634e487b7160e01b600052603260045260246000fd5b6020908102919091010152610f2b816155e4565b9050610e96565b509392505050565b600860009054906101000a90046001600160a01b03166001600160a01b0316639d2f83f06040518163ffffffff1660e01b815260040160206040518083038186803b158015610f8857600080fd5b505afa158015610f9c573d6000803e3d6000fd5b505050506040513d601f19601f82011682018060405250810190610fc09190614366565b15610fdd5760405162461bcd60e51b815260040161070690614de4565b6000818152600e6020526040808220815160a08101909252805482908290611004906155af565b80601f0160208091040260200160405190810160405280929190818152602001828054611030906155af565b801561107d5780601f106110525761010080835404028352916020019161107d565b820191906000526020600020905b81548152906001019060200180831161106057829003601f168201915b505050918352505060018201546001600160a01b0316602082015260028201546040820152600382015460608083019190915260049092015460809091015281015190915042108015906110d5575080608001514211155b6110f15760405162461bcd60e51b815260040161070690614a4a565b600a546040516370a0823160e01b81526001600160a01b037f000000000000000000000000000000000000000000000000000000000000000016906370a082319061114090309060040161469f565b60206040518083038186803b15801561115857600080fd5b505afa15801561116c573d6000803e3d6000fd5b505050506040513d601f19601f82011682018060405250810190611190919061439a565b10156111ae5760405162461bcd60e51b815260040161070690614d2a565b60006111c16111bb611fc0565b846106de565b116111de5760405162461bcd60e51b815260040161070690615157565b6000828152601160205260408120906111f5611fc0565b6001600160a01b031681526020810191909152604001600020541561122c5760405162461bcd60e51b815260040161070690614e1b565b61123f611237611fc0565b83600161240e565b600061124f600b54600a54612521565b9050604051806040016040528084815260200161126a611fc0565b6001600160a01b03908116909152600083815260106020908152604080832085518155948201516001909501805473ffffffffffffffffffffffffffffffffffffffff19169590941694909417909255858152601190915290812082916112cf611fc0565b6001600160a01b031681526020810191909152604001600020556112f1611fc0565b6001600160a01b0316837fb5c27afec62496e403fae78e07136ae7c58425e8128c7b680ea24dee8c8d94018360405161132a9190614839565b60405180910390a3505050565b6000908152600e60205260409020600101546001600160a01b031690565b601160209081526000928352604080842090915290825290205481565b6007546001600160a01b0390811691161490565b60055460ff165b90565b601060205260009081526040902080546001909101546001600160a01b031682565b6113ba611fc0565b6001600160a01b0316836001600160a01b031614806113e057506113e08361067a611fc0565b6113fc5760405162461bcd60e51b815260040161070690614c39565b610da1838383612664565b6114337f9f2df0fed2c77648de5860a4cc508cd0818c85b8b8a1ab4ceeef8d981c8956a6610581611fc0565b61144f5760405162461bcd60e51b815260040161070690614fac565b610c4284848484612818565b60095481565b61148d7f65d7a28e3265b37a6474929f336521b332c1681b933f6cb9f3376673440d862a610581611fc0565b6114a95760405162461bcd60e51b8152600401610706906150fa565b610e18612909565b6114b9613d24565b6000828152600e602052604090819020815160a081019092528054829082906114e1906155af565b80601f016020809104026020016040519081016040528092919081815260200182805461150d906155af565b801561155a5780601f1061152f5761010080835404028352916020019161155a565b820191906000526020600020905b81548152906001019060200180831161153d57829003601f168201915b505050918352505060018201546001600160a01b03166020820152600282015460408201526003820154606082015260049091015460809091015292915050565b60008281526001602052604081206115b39083612964565b9392505050565b6000918252602082815260408084206001600160a01b0393909316845291905290205460ff1690565b60085460408051634a32c6bf60e11b815290516001600160a01b03909216916391d148549183916394658d7e91600480820192602092909190829003018186803b15801561163057600080fd5b505afa158015611644573d6000803e3d6000fd5b505050506040513d601f19601f82011682018060405250810190611668919061439a565b611670611fc0565b6040518363ffffffff1660e01b815260040161168d929190614842565b60206040518083038186803b1580156116a557600080fd5b505afa1580156116b9573d6000803e3d6000fd5b505050506040513d601f19601f820116820180604052508101906116dd9190614366565b6116f95760405162461bcd60e51b8152600401610706906149ed565b610da1600d8383613d5c565b336001600160a01b037f0000000000000000000000000000000000000000000000000000000000000000161461174d5760405162461bcd60e51b815260040161070690615066565b6117578282612970565b5050565b600081565b816001600160a01b0316611772611fc0565b6001600160a01b031614156117995760405162461bcd60e51b8152600401610706906151b4565b80600360006117a6611fc0565b6001600160a01b03908116825260208083019390935260409182016000908120918716808252919093529120805460ff1916921515929092179091556117ea611fc0565b6001600160a01b03167f17307eab39ab6107e8899845ad3d59bd9653f200f220920489ca2b5937696c3183604051611822919061482e565b60405180910390a35050565b60085460408051634a32c6bf60e11b815290516001600160a01b03909216916391d148549183916394658d7e91600480820192602092909190829003018186803b15801561187b57600080fd5b505afa15801561188f573d6000803e3d6000fd5b505050506040513d601f19601f820116820180604052508101906118b3919061439a565b6118bb611fc0565b6040518363ffffffff1660e01b81526004016118d8929190614842565b60206040518083038186803b1580156118f057600080fd5b505afa158015611904573d6000803e3d6000fd5b505050506040513d601f19601f820116820180604052508101906119289190614366565b6119445760405162461bcd60e51b8152600401610706906149ed565b600a55565b600e60205260009081526040902080548190611964906155af565b80601f0160208091040260200160405190810160405280929190818152602001828054611990906155af565b80156119dd5780601f106119b2576101008083540402835291602001916119dd565b820191906000526020600020905b8154815290600101906020018083116119c057829003601f168201915b5050505060018301546002840154600385015460049095015493946001600160a01b039092169390925085565b600854604080516309d2f83f60e41b815290516000926001600160a01b031691639d2f83f0916004808301926020929190829003018186803b158015611a4f57600080fd5b505afa158015611a63573d6000803e3d6000fd5b505050506040513d601f19601f82011682018060405250810190611a879190614366565b15611aa45760405162461bcd60e51b815260040161070690614de4565b60008060008085806020019051810190611abe919061449a565b9350935093509350611add8985611ad3611fc0565b8b8b888888612b69565b5063bc197c8160e01b9998505050505050505050565b600d8054611b00906155af565b80601f0160208091040260200160405190810160405280929190818152602001828054611b2c906155af565b8015611b795780601f10611b4e57610100808354040283529160200191611b79565b820191906000526020600020905b815481529060010190602001808311611b5c57829003601f168201915b505050505081565b600c5481565b600081815260016020526040812061076090612f13565b7f9f2df0fed2c77648de5860a4cc508cd0818c85b8b8a1ab4ceeef8d981c8956a681565b610db08282612f1e565b7f65d7a28e3265b37a6474929f336521b332c1681b933f6cb9f3376673440d862a81565b6060600d8054611bff906155af565b80601f0160208091040260200160405190810160405280929190818152602001828054611c2b906155af565b8015611c785780601f10611c4d57610100808354040283529160200191611c78565b820191906000526020600020905b815481529060010190602001808311611c5b57829003601f168201915b5050505050905090565b6001600160a01b03918216600090815260036020908152604080832093909416825291909152205460ff1690565b600095945050505050565b611cc3611fc0565b6001600160a01b0316856001600160a01b03161480611ce95750611ce98561067a611fc0565b611d055760405162461bcd60e51b815260040161070690614c39565b610d788585858585612f3d565b600f60205260009081526040902080546003909101546001600160a01b039091169082565b611d3f611fc0565b6001600160a01b0316836001600160a01b03161480611d655750611d658361067a611fc0565b611d815760405162461bcd60e51b815260040161070690614c39565b610da183838361240e565b60085460408051634a32c6bf60e11b815290516001600160a01b03909216916391d148549183916394658d7e91600480820192602092909190829003018186803b158015611dd957600080fd5b505afa158015611ded573d6000803e3d6000fd5b505050506040513d601f19601f82011682018060405250810190611e11919061439a565b611e19611fc0565b6040518363ffffffff1660e01b8152600401611e36929190614842565b60206040518083038186803b158015611e4e57600080fd5b505afa158015611e62573d6000803e3d6000fd5b505050506040513d601f19601f82011682018060405250810190611e869190614366565b611ea25760405162461bcd60e51b8152600401610706906149ed565b60405163a9059cbb60e01b81526000906001600160a01b037f0000000000000000000000000000000000000000000000000000000000000000169063a9059cbb90611ef390869086906004016147ac565b602060405180830381600087803b158015611f0d57600080fd5b505af1158015611f21573d6000803e3d6000fd5b505050506040513d601f19601f82011682018060405250810190611f459190614366565b905080610da15760405162461bcd60e51b815260040161070690614c96565b6000611f6f33611372565b15611f83575060131936013560601c61138d565b611f8b611fb1565b905061138d565b6117578282613075565b60006115b3836001600160a01b0384166130fa565b3390565b600061076082613144565b6000611fca611f64565b905090565b6001600160a01b038416611ff55760405162461bcd60e51b8152600401610706906152cb565b81518351146120165760405162461bcd60e51b81526004016107069061526e565b6000612020611fc0565b905061203181600087878787613184565b60005b84518110156120e95783818151811061205d57634e487b7160e01b600052603260045260246000fd5b60200260200101516002600087848151811061208957634e487b7160e01b600052603260045260246000fd5b602002602001015181526020019081526020016000206000886001600160a01b03166001600160a01b0316815260200190815260200160002060008282546120d1919061550a565b909155508190506120e1816155e4565b915050612034565b50846001600160a01b031660006001600160a01b0316826001600160a01b03167f4a39dc06d4c0dbc64b70af90fd698a233a518aa5d07e595d983b8c0526c8f7fb878760405161213a929190614809565b60405180910390a4610d7881600087878787613238565b81518351146121725760405162461bcd60e51b81526004016107069061526e565b6001600160a01b0384166121985760405162461bcd60e51b815260040161070690614eaf565b60006121a2611fc0565b90506121b2818787878787613184565b60005b84518110156122b75760008582815181106121e057634e487b7160e01b600052603260045260246000fd5b60200260200101519050600085838151811061220c57634e487b7160e01b600052603260045260246000fd5b60209081029190910181015160008481526002835260408082206001600160a01b038e16835290935291909120549091508181101561225d5760405162461bcd60e51b815260040161070690615009565b60008381526002602090815260408083206001600160a01b038e8116855292528083208585039055908b1682528120805484929061229c90849061550a565b92505081905550505050806122b0906155e4565b90506121b5565b50846001600160a01b0316866001600160a01b0316826001600160a01b03167f4a39dc06d4c0dbc64b70af90fd698a233a518aa5d07e595d983b8c0526c8f7fb8787604051612307929190614809565b60405180910390a461231d818787878787613238565b505050505050565b61232e82610c48565b61233f8161233a611fc0565b613346565b610da18383613075565b612351611fc0565b6001600160a01b0316816001600160a01b0316146123815760405162461bcd60e51b815260040161070690615369565b61175782826133aa565b60006115b3836001600160a01b03841661342d565b6123a8611386565b6123c45760405162461bcd60e51b815260040161070690614aa7565b6005805460ff191690557f5db9ee0a495bf2e6ff9c91a7834c1ba4fdd244a5e8aa4e537bd38aeae4b073aa6123f7611fc0565b604051612404919061469f565b60405180910390a1565b6001600160a01b0383166124345760405162461bcd60e51b815260040161070690614f69565b600061243e611fc0565b905061246e818560006124508761354a565b6124598761354a565b60405180602001604052806000815250613184565b60008381526002602090815260408083206001600160a01b0388168452909152902054828110156124b15760405162461bcd60e51b815260040161070690614b3b565b60008481526002602090815260408083206001600160a01b03808a16808652919093528184208786039055905190918516907fc3d58168c5ae7397731d063d5bbf3d657854427343f4c083240f7aacaa2d0f62906125129089908990614610565b60405180910390a45050505050565b60007f00000000000000000000000000000000000000000000000000000000000000006001600160a01b0316634000aea07f000000000000000000000000000000000000000000000000000000000000000084866000604051602001612588929190614610565b6040516020818303038152906040526040518463ffffffff1660e01b81526004016125b5939291906147c5565b602060405180830381600087803b1580156125cf57600080fd5b505af11580156125e3573d6000803e3d6000fd5b505050506040513d601f19601f820116820180604052508101906126079190614366565b50600083815260066020526040812054612626908590839030906135a3565b60008581526006602052604090205490915061264390600161550a565b60008581526006602052604090205561265c84826135dd565b949350505050565b6001600160a01b03831661268a5760405162461bcd60e51b815260040161070690614f69565b80518251146126ab5760405162461bcd60e51b81526004016107069061526e565b60006126b5611fc0565b90506126d581856000868660405180602001604052806000815250613184565b60005b83518110156127b957600084828151811061270357634e487b7160e01b600052603260045260246000fd5b60200260200101519050600084838151811061272f57634e487b7160e01b600052603260045260246000fd5b60209081029190910181015160008481526002835260408082206001600160a01b038c1683529093529190912054909150818110156127805760405162461bcd60e51b815260040161070690614b3b565b60009283526002602090815260408085206001600160a01b038b16865290915290922091039055806127b1816155e4565b9150506126d8565b5060006001600160a01b0316846001600160a01b0316826001600160a01b03167f4a39dc06d4c0dbc64b70af90fd698a233a518aa5d07e595d983b8c0526c8f7fb868660405161280a929190614809565b60405180910390a450505050565b6001600160a01b03841661283e5760405162461bcd60e51b8152600401610706906152cb565b6000612848611fc0565b90506128698160008761285a8861354a565b6128638861354a565b87613184565b60008481526002602090815260408083206001600160a01b03891684529091528120805485929061289b90849061550a565b92505081905550846001600160a01b031660006001600160a01b0316826001600160a01b03167fc3d58168c5ae7397731d063d5bbf3d657854427343f4c083240f7aacaa2d0f6287876040516128f2929190614610565b60405180910390a4610d7881600087878787613610565b612911611386565b1561292e5760405162461bcd60e51b815260040161070690614e78565b6005805460ff191660011790557f62e78cea01bee320cd4e420270b5ea74000d11b0c9f74754ebdbfc544b05a2586123f7611fc0565b60006115b383836136e1565b60008281526010602090815260408083208151808301835281548082526001928301546001600160a01b03908116838701819052828852601187528588208189528752858820889055828852600f875285882086516080810188528154909316835294850180548751818a0281018a01909852808852949893979196939592949293858301939092830182828015612a2757602002820191906000526020600020905b815481526020019060010190808311612a13575b5050505050815260200160028201805480602002602001604051908101604052809291908181526020018280548015612a7f57602002820191906000526020600020905b815481526020019060010190808311612a6b575b505050505081526020016003820154815250509050600080612aa2858885613719565b8451604051631759616b60e11b81529294509092506001600160a01b031690632eb2c2d690612adb903090889087908790600401614711565b600060405180830381600087803b158015612af557600080fd5b505af1158015612b09573d6000803e3d6000fd5b5050505082600001516001600160a01b0316846001600160a01b0316867f9cae8e743935573869e2fe7223782448d71211235c93076166106782de1c234f8b86604051612b57929190614859565b60405180910390a45050505050505050565b600860009054906101000a90046001600160a01b03166001600160a01b0316639d2f83f06040518163ffffffff1660e01b815260040160206040518083038186803b158015612bb757600080fd5b505afa158015612bcb573d6000803e3d6000fd5b505050506040513d601f19601f82011682018060405250810190612bef9190614366565b15612c0c5760405162461bcd60e51b815260040161070690614de4565b612c367f9f2df0fed2c77648de5860a4cc508cd0818c85b8b8a1ab4ceeef8d981c8956a6896115ba565b612c525760405162461bcd60e51b815260040161070690614b7f565b6040516301ffc9a760e01b81526001600160a01b038716906301ffc9a790612c8590636cdb3d1360e11b90600401614896565b60206040518083038186803b158015612c9d57600080fd5b505afa158015612cb1573d6000803e3d6000fd5b505050506040513d601f19601f82011682018060405250810190612cd59190614366565b612cf15760405162461bcd60e51b81526004016107069061530c565b6000612cfc85613a27565b9050612d0882826155ff565b15612d255760405162461bcd60e51b815260040161070690614d87565b6000612d2f613a81565b90506000612d3d8484615522565b905060006040518060a001604052808c81526020018d6001600160a01b031681526020018381526020018842612d73919061550a565b81526020018715612d8d57612d88884261550a565b612d91565b6000195b9052604080516080810182526001600160a01b038d16815260208082018d90528183018c9052606082018990526000878152600e82529290922083518051949550919385939192612de6928492910190613de0565b50602082810151600180840180546001600160a01b0393841673ffffffffffffffffffffffffffffffffffffffff19918216179091556040808701516002870155606087015160038701556080909601516004909501949094556000898152600f845294909420855181549216919093161782558381015180518594612e7193908501920190613e54565b5060408201518051612e8d916002840191602090910190613e54565b5060608201518160030155905050612eb68d858560405180602001604052806000815250612818565b8c6001600160a01b03168b6001600160a01b0316857f9330e9dfd1e803e5d709edb2ad6657b74cb0fb1f182bd63fdbbcb01a463e8ad08585604051612efc929190615421565b60405180910390a450505050505050505050505050565b600061076082613a9f565b612f2782610c48565b612f338161233a611fc0565b610da183836133aa565b6001600160a01b038416612f635760405162461bcd60e51b815260040161070690614eaf565b6000612f6d611fc0565b9050612f7e81878761285a8861354a565b60008481526002602090815260408083206001600160a01b038a16845290915290205483811015612fc15760405162461bcd60e51b815260040161070690615009565b60008581526002602090815260408083206001600160a01b038b811685529252808320878503905590881682528120805486929061300090849061550a565b92505081905550856001600160a01b0316876001600160a01b0316836001600160a01b03167fc3d58168c5ae7397731d063d5bbf3d657854427343f4c083240f7aacaa2d0f628888604051613056929190614610565b60405180910390a461306c828888888888613610565b50505050505050565b61307f82826115ba565b611757576000828152602081815260408083206001600160a01b03851684529091529020805460ff191660011790556130b6611fc0565b6001600160a01b0316816001600160a01b0316837f2f8788117e7eff1d82e926ec794901d17c78024a50270940304540a733656f0d60405160405180910390a45050565b60006131068383613aa3565b61313c57508154600181810184556000848152602080822090930184905584548482528286019093526040902091909155610734565b506000610734565b60006001600160e01b03198216636cdb3d1360e11b148061317557506001600160e01b031982166303a24d0760e21b145b80610760575061076082613abb565b613192868686868686613ae0565b6001600160a01b03841661231d5760005b835181101561306c578281815181106131cc57634e487b7160e01b600052603260045260246000fd5b6020026020010151600e60008684815181106131f857634e487b7160e01b600052603260045260246000fd5b6020026020010151815260200190815260200160002060020160008282546132209190615555565b90915550613231905060018261550a565b90506131a3565b61324a846001600160a01b0316613aee565b1561231d5760405163bc197c8160e01b81526001600160a01b0385169063bc197c819061328390899089908890889088906004016146b3565b602060405180830381600087803b15801561329d57600080fd5b505af19250505080156132cd575060408051601f3d908101601f191682019092526132ca91810190614411565b60015b613316576132d961565b565b806132e457506132fe565b8060405162461bcd60e51b815260040161070691906148ab565b60405162461bcd60e51b8152600401610706906148fe565b6001600160e01b0319811663bc197c8160e01b1461306c5760405162461bcd60e51b815260040161070690614990565b61335082826115ba565b61175757613368816001600160a01b03166014613af4565b613373836020613af4565b60405160200161338492919061461e565b60408051601f198184030181529082905262461bcd60e51b8252610706916004016148ab565b6133b482826115ba565b15611757576000828152602081815260408083206001600160a01b03851684529091529020805460ff191690556133e9611fc0565b6001600160a01b0316816001600160a01b0316837ff6391f5c32d9c69d2a47ea670b442974b53935d1edc7fd64eb21e047a839171b60405160405180910390a45050565b60008181526001830160205260408120548015613540576000613451600183615555565b855490915060009061346590600190615555565b90508181146134e657600086600001828154811061349357634e487b7160e01b600052603260045260246000fd5b90600052602060002001549050808760000184815481106134c457634e487b7160e01b600052603260045260246000fd5b6000918252602080832090910192909255918252600188019052604090208390555b855486908061350557634e487b7160e01b600052603160045260246000fd5b600190038181906000526020600020016000905590558560010160008681526020019081526020016000206000905560019350505050610734565b6000915050610734565b6040805160018082528183019092526060916000919060208083019080368337019050509050828160008151811061359257634e487b7160e01b600052603260045260246000fd5b602090810291909101015292915050565b6000848484846040516020016135bc9493929190614872565b60408051601f19818403018152919052805160209091012095945050505050565b600082826040516020016135f2929190614610565b60405160208183030381529060405280519060200120905092915050565b613622846001600160a01b0316613aee565b1561231d5760405163f23a6e6160e01b81526001600160a01b0385169063f23a6e619061365b9089908990889088908890600401614769565b602060405180830381600087803b15801561367557600080fd5b505af19250505080156136a5575060408051601f3d908101601f191682019092526136a291810190614411565b60015b6136b1576132d961565b565b6001600160e01b0319811663f23a6e6160e01b1461306c5760405162461bcd60e51b815260040161070690614990565b600082600001828154811061370657634e487b7160e01b600052603260045260246000fd5b9060005260206000200154905092915050565b606080600061372b8460400151613a27565b9050600080856060015167ffffffffffffffff81111561375b57634e487b7160e01b600052604160045260246000fd5b604051908082528060200260200182016040528015613784578160200160208202803683370190505b509450856060015167ffffffffffffffff8111156137b257634e487b7160e01b600052604160045260246000fd5b6040519080825280602002602001820160405280156137db578160200160208202803683370190505b50935060005b866060015181101561399e57838882604051602001613801929190614610565b6040516020818303038152906040528051906020012060001c61382491906155ff565b915060005b87602001515181101561398b57838860400151828151811061385b57634e487b7160e01b600052603260045260246000fd5b602002602001015161386d919061550a565b831015613940578760200151818151811061389857634e487b7160e01b600052603260045260246000fd5b60200260200101518783815181106138c057634e487b7160e01b600052603260045260246000fd5b60200260200101818152505060018683815181106138ee57634e487b7160e01b600052603260045260246000fd5b60200260200101818152505060018860400151828151811061392057634e487b7160e01b600052603260045260246000fd5b602002602001018181516139349190615555565b9052506000935061398b565b8760400151818151811061396457634e487b7160e01b600052603260045260246000fd5b602002602001015184613977919061550a565b935061398460018261550a565b9050613829565b5061399760018261550a565b90506137e1565b506000888152600f602090815260409091208751815473ffffffffffffffffffffffffffffffffffffffff19166001600160a01b0390911617815587820151805189936139f2926001850192910190613e54565b5060408201518051613a0e916002840191602090910190613e54565b5060608201518160030155905050505050935093915050565b6000805b8251811015613a7b57828181518110613a5457634e487b7160e01b600052603260045260246000fd5b602002602001015182613a67919061550a565b9150613a7460018261550a565b9050613a2b565b50919050565b60098054906001906000613a95838561550a565b9250508190555090565b5490565b60009081526001919091016020526040902054151590565b60006001600160e01b03198216635a05180f60e01b1480610760575061076082613cb3565b61231d868686868686613cd8565b3b151590565b60606000613b03836002615536565b613b0e90600261550a565b67ffffffffffffffff811115613b3457634e487b7160e01b600052604160045260246000fd5b6040519080825280601f01601f191660200182016040528015613b5e576020820181803683370190505b509050600360fc1b81600081518110613b8757634e487b7160e01b600052603260045260246000fd5b60200101906001600160f81b031916908160001a905350600f60fb1b81600181518110613bc457634e487b7160e01b600052603260045260246000fd5b60200101906001600160f81b031916908160001a9053506000613be8846002615536565b613bf390600161550a565b90505b6001811115613c94577f303132333435363738396162636465660000000000000000000000000000000085600f1660108110613c4257634e487b7160e01b600052603260045260246000fd5b1a60f81b828281518110613c6657634e487b7160e01b600052603260045260246000fd5b60200101906001600160f81b031916908160001a90535060049490941c93613c8d81615598565b9050613bf6565b5083156115b35760405162461bcd60e51b81526004016107069061495b565b60006001600160e01b03198216637965db0b60e01b1480610760575061076082613d0b565b613ce686868686868661231d565b613cee611386565b1561231d5760405162461bcd60e51b815260040161070690614bdc565b6001600160e01b031981166301ffc9a760e01b14919050565b6040518060a001604052806060815260200160006001600160a01b031681526020016000815260200160008152602001600081525090565b828054613d68906155af565b90600052602060002090601f016020900481019282613d8a5760008555613dd0565b82601f10613da35782800160ff19823516178555613dd0565b82800160010185558215613dd0579182015b82811115613dd0578235825591602001919060010190613db5565b50613ddc929150613e8e565b5090565b828054613dec906155af565b90600052602060002090601f016020900481019282613e0e5760008555613dd0565b82601f10613e2757805160ff1916838001178555613dd0565b82800160010185558215613dd0579182015b82811115613dd0578251825591602001919060010190613e39565b828054828255906000526020600020908101928215613dd05791602002820182811115613dd0578251825591602001919060010190613e39565b5b80821115613ddc5760008155600101613e8f565b80356001600160a01b038116811461076357600080fd5b600082601f830112613eca578081fd5b81356020613edf613eda836154be565b615494565b8281528181019085830183850287018401881015613efb578586fd5b855b85811015613f1957813584529284019290840190600101613efd565b5090979650505050505050565b600082601f830112613f36578081fd5b8135613f44613eda826154e2565b818152846020838601011115613f58578283fd5b816020850160208301379081016020019190915292915050565b600060208284031215613f83578081fd5b6115b382613ea3565b60008060408385031215613f9e578081fd5b613fa783613ea3565b9150610d1860208401613ea3565b600080600080600060a08688031215613fcc578081fd5b613fd586613ea3565b9450613fe360208701613ea3565b9350604086013567ffffffffffffffff80821115613fff578283fd5b61400b89838a01613eba565b94506060880135915080821115614020578283fd5b61402c89838a01613eba565b93506080880135915080821115614041578283fd5b5061404e88828901613f26565b9150509295509295909350565b600080600080600060a08688031215614072578081fd5b61407b86613ea3565b945061408960208701613ea3565b93506040860135925060608601359150608086013567ffffffffffffffff8111156140b2578182fd5b61404e88828901613f26565b6000806000606084860312156140d2578283fd5b6140db84613ea3565b9250602084013567ffffffffffffffff808211156140f7578384fd5b61410387838801613eba565b93506040860135915080821115614118578283fd5b5061412586828701613eba565b9150509250925092565b60008060008060808587031215614144578182fd5b61414d85613ea3565b9350602085013567ffffffffffffffff80821115614169578384fd5b61417588838901613eba565b9450604087013591508082111561418a578384fd5b61419688838901613eba565b935060608701359150808211156141ab578283fd5b506141b887828801613f26565b91505092959194509250565b600080604083850312156141d6578182fd5b6141df83613ea3565b915060208301356141ef81615700565b809150509250929050565b6000806040838503121561420c578182fd5b61421583613ea3565b946020939093013593505050565b600080600060608486031215614237578081fd5b61424084613ea3565b95602085013595506040909401359392505050565b6000806000806080858703121561426a578182fd5b61427385613ea3565b93506020850135925060408501359150606085013567ffffffffffffffff81111561429c578182fd5b6141b887828801613f26565b600080604083850312156142ba578182fd5b823567ffffffffffffffff808211156142d1578384fd5b818501915085601f8301126142e4578384fd5b813560206142f4613eda836154be565b82815281810190858301838502870184018b1015614310578889fd5b8896505b848710156143395761432581613ea3565b835260019690960195918301918301614314565b509650508601359250508082111561434f578283fd5b5061435c85828601613eba565b9150509250929050565b600060208284031215614377578081fd5b81516115b381615700565b600060208284031215614393578081fd5b5035919050565b6000602082840312156143ab578081fd5b5051919050565b600080604083850312156143c4578182fd5b82359150610d1860208401613ea3565b600080604083850312156143e6578182fd5b50508035926020909101359150565b600060208284031215614406578081fd5b81356115b381615711565b600060208284031215614422578081fd5b81516115b381615711565b6000806020838503121561443f578182fd5b823567ffffffffffffffff80821115614456578384fd5b818501915085601f830112614469578384fd5b813581811115614477578485fd5b866020828501011115614488578485fd5b60209290920196919550909350505050565b600080600080608085870312156144af578182fd5b845167ffffffffffffffff8111156144c5578283fd5b8501601f810187136144d5578283fd5b80516144e3613eda826154e2565b8181528860208385010111156144f7578485fd5b61450882602083016020860161556c565b60208801516040890151606090990151919a909950909650945050505050565b600060208284031215614539578081fd5b81516fffffffffffffffffffffffffffffffff811681146115b3578182fd5b6000815180845260208085019450808401835b838110156145875781518752958201959082019060010161456b565b509495945050505050565b600081518084526145aa81602086016020860161556c565b601f01601f19169290920160200192915050565b6000815160a084526145d360a0850182614592565b90506001600160a01b0360208401511660208501526040830151604085015260608301516060850152608083015160808501528091505092915050565b918252602082015260400190565b60007f416363657373436f6e74726f6c3a206163636f756e74200000000000000000008252835161465681601785016020880161556c565b7f206973206d697373696e6720726f6c6520000000000000000000000000000000601791840191820152835161469381602884016020880161556c565b01602801949350505050565b6001600160a01b0391909116815260200190565b60006001600160a01b03808816835280871660208401525060a060408301526146df60a0830186614558565b82810360608401526146f18186614558565b905082810360808401526147058185614592565b98975050505050505050565b60006001600160a01b03808716835280861660208401525060a0604083015261473d60a0830185614558565b828103606084015261474f8185614558565b838103608090940193909352508152602001949350505050565b60006001600160a01b03808816835280871660208401525084604083015283606083015260a060808301526147a160a0830184614592565b979650505050505050565b6001600160a01b03929092168252602082015260400190565b60006001600160a01b0385168252836020830152606060408301526147ed6060830184614592565b95945050505050565b6000602082526115b36020830184614558565b60006040825261481c6040830185614558565b82810360208401526147ed8185614558565b901515815260200190565b90815260200190565b9182526001600160a01b0316602082015260400190565b60008382526040602083015261265c6040830184614558565b93845260208401929092526001600160a01b03166040830152606082015260800190565b6001600160e01b031991909116815260200190565b6000602082526115b36020830184614592565b600060a082526148d160a0830188614592565b90506001600160a01b03861660208301528460408301528360608301528260808301529695505050505050565b60208082526034908201527f455243313135353a207472616e7366657220746f206e6f6e204552433131353560408201527f526563656976657220696d706c656d656e746572000000000000000000000000606082015260800190565b6020808252818101527f537472696e67733a20686578206c656e67746820696e73756666696369656e74604082015260600190565b60208082526028908201527f455243313135353a204552433131353552656365697665722072656a6563746560408201527f6420746f6b656e73000000000000000000000000000000000000000000000000606082015260800190565b60208082526033908201527f5061636b3a206f6e6c7920612070726f746f636f6c2061646d696e2063616e2060408201527f63616c6c20746869732066756e6374696f6e2e00000000000000000000000000606082015260800190565b60208082526039908201527f5061636b3a207468652077696e646f7720746f206f70656e207061636b73206860408201527f6173206e6f742073746172746564206f7220636c6f7365642e00000000000000606082015260800190565b60208082526014908201527f5061757361626c653a206e6f7420706175736564000000000000000000000000604082015260600190565b6020808252602b908201527f455243313135353a2062616c616e636520717565727920666f7220746865207a60408201527f65726f2061646472657373000000000000000000000000000000000000000000606082015260800190565b60208082526024908201527f455243313135353a206275726e20616d6f756e7420657863656564732062616c604082015263616e636560e01b606082015260800190565b60208082526036908201527f5061636b3a206f6e6c792063726561746f72732077697468204d494e5445525f60408201527f524f4c452063616e20637265617465207061636b732e00000000000000000000606082015260800190565b6020808252602c908201527f455243313135355061757361626c653a20746f6b656e207472616e736665722060408201527f7768696c65207061757365640000000000000000000000000000000000000000606082015260800190565b60208082526029908201527f455243313135353a2063616c6c6572206973206e6f74206f776e6572206e6f7260408201527f20617070726f7665640000000000000000000000000000000000000000000000606082015260800190565b6020808252601e908201527f5061636b3a204661696c656420746f207472616e73666572204c494e4b2e0000604082015260600190565b6020808252602b908201527f5061636b3a204270732070726f7669646564206d757374206265206c6573732060408201527f7468616e2031302c303030000000000000000000000000000000000000000000606082015260800190565b60208082526034908201527f5061636b3a204e6f7420656e6f756768204c494e4b20746f2066756c66696c6c60408201527f2072616e646f6d6e65737320726571756573742e000000000000000000000000606082015260800190565b60208082526029908201527f5061636b3a20696e76616c6964206e756d626572206f6620726577617264732060408201527f706572206f70656e2e0000000000000000000000000000000000000000000000606082015260800190565b6020808252601d908201527f5061636b3a205468652070726f746f636f6c206973207061757365642e000000604082015260600190565b60208082526032908201527f5061636b3a206d757374207761697420666f72207468652070656e64696e672060408201527f7061636b20746f206265206f70656e65642e0000000000000000000000000000606082015260800190565b60208082526010908201527f5061757361626c653a2070617573656400000000000000000000000000000000604082015260600190565b60208082526025908201527f455243313135353a207472616e7366657220746f20746865207a65726f20616460408201527f6472657373000000000000000000000000000000000000000000000000000000606082015260800190565b60208082526032908201527f455243313135353a207472616e736665722063616c6c6572206973206e6f742060408201527f6f776e6572206e6f7220617070726f7665640000000000000000000000000000606082015260800190565b60208082526023908201527f455243313135353a206275726e2066726f6d20746865207a65726f206164647260408201526265737360e81b606082015260800190565b60208082526038908201527f455243313135355072657365744d696e7465725061757365723a206d7573742060408201527f68617665206d696e74657220726f6c6520746f206d696e740000000000000000606082015260800190565b6020808252602a908201527f455243313135353a20696e73756666696369656e742062616c616e636520666f60408201527f72207472616e7366657200000000000000000000000000000000000000000000606082015260800190565b6020808252601f908201527f4f6e6c7920565246436f6f7264696e61746f722063616e2066756c66696c6c00604082015260600190565b6020808252603b908201527f455243313135355072657365744d696e7465725061757365723a206d7573742060408201527f686176652070617573657220726f6c6520746f20756e70617573650000000000606082015260800190565b60208082526039908201527f455243313135355072657365744d696e7465725061757365723a206d7573742060408201527f686176652070617573657220726f6c6520746f20706175736500000000000000606082015260800190565b6020808252602f908201527f5061636b3a2073656e646572206f776e73206e6f207061636b73206f6620746860408201527f6520676976656e207061636b49642e0000000000000000000000000000000000606082015260800190565b60208082526029908201527f455243313135353a2073657474696e6720617070726f76616c2073746174757360408201527f20666f722073656c660000000000000000000000000000000000000000000000606082015260800190565b60208082526029908201527f455243313135353a206163636f756e747320616e6420696473206c656e67746860408201527f206d69736d617463680000000000000000000000000000000000000000000000606082015260800190565b60208082526028908201527f455243313135353a2069647320616e6420616d6f756e7473206c656e6774682060408201527f6d69736d61746368000000000000000000000000000000000000000000000000606082015260800190565b60208082526021908201527f455243313135353a206d696e7420746f20746865207a65726f206164647265736040820152607360f81b606082015260800190565b60208082526032908201527f5061636b3a2072657761726420636f6e747261637420646f6573206e6f74206960408201527f6d706c656d656e742045524320313135352e0000000000000000000000000000606082015260800190565b6020808252602f908201527f416363657373436f6e74726f6c3a2063616e206f6e6c792072656e6f756e636560408201527f20726f6c657320666f722073656c660000000000000000000000000000000000606082015260800190565b6000602082526115b360208301846145be565b6000608082526153ec60808301876145be565b6001600160a01b0386166020840152828103604084015261540d8186614558565b905082810360608401526147a18185614558565b60006040825261543460408301856145be565b82810360208401526001600160a01b0384511681526020840151608060208301526154626080830182614558565b90506040850151828203604084015261547b8282614558565b9150506060850151606083015280925050509392505050565b60405181810167ffffffffffffffff811182821017156154b6576154b661563f565b604052919050565b600067ffffffffffffffff8211156154d8576154d861563f565b5060209081020190565b600067ffffffffffffffff8211156154fc576154fc61563f565b50601f01601f191660200190565b6000821982111561551d5761551d615613565b500190565b60008261553157615531615629565b500490565b600081600019048311821515161561555057615550615613565b500290565b60008282101561556757615567615613565b500390565b60005b8381101561558757818101518382015260200161556f565b83811115610c425750506000910152565b6000816155a7576155a7615613565b506000190190565b6002810460018216806155c357607f821691505b60208210811415613a7b57634e487b7160e01b600052602260045260246000fd5b60006000198214156155f8576155f8615613565b5060010190565b60008261560e5761560e615629565b500690565b634e487b7160e01b600052601160045260246000fd5b634e487b7160e01b600052601260045260246000fd5b634e487b7160e01b600052604160045260246000fd5b60e01c90565b600060443d101561566b5761138d565b600481823e6308c379a061567f8251615655565b146156895761138d565b6040513d600319016004823e80513d67ffffffffffffffff81602484011181841117156156b9575050505061138d565b828401925082519150808211156156d3575050505061138d565b503d830160208284010111156156eb5750505061138d565b601f01601f1916810160200160405291505090565b801515811461570e57600080fd5b50565b6001600160e01b03198116811461570e57600080fdfea164736f6c6343000800000a",
  "linkReferences": {},
  "deployedLinkReferences": {}
}