{
  "_format": "hh-sol-artifact-1",
  "contractName": "Pack",
  "sourceName": "contracts/Pack.sol",
  "abi": [
    {
      "inputs": [
        {
          "internalType": "address payable",
          "name": "_controlCenter",
          "type": "address"
        },
        {
          "internalType": "string",
          "name": "_uri",
          "type": "string"
        },
        {
          "internalType": "address",
          "name": "_vrfCoordinator",
          "type": "address"
        },
        {
          "internalType": "address",
          "name": "_linkToken",
          "type": "address"
        },
        {
          "internalType": "bytes32",
          "name": "_keyHash",
          "type": "bytes32"
        },
        {
          "internalType": "uint256",
          "name": "_fees",
          "type": "uint256"
        },
        {
          "internalType": "address",
          "name": "_trustedForwarder",
          "type": "address"
        },
        {
          "internalType": "uint256",
          "name": "_royaltyBps",
          "type": "uint256"
        }
      ],
      "stateMutability": "nonpayable",
      "type": "constructor"
    },
    {
      "anonymous": false,
      "inputs": [
        {
          "indexed": true,
          "internalType": "address",
          "name": "account",
          "type": "address"
        },
        {
          "indexed": true,
          "internalType": "address",
          "name": "operator",
          "type": "address"
        },
        {
          "indexed": false,
          "internalType": "bool",
          "name": "approved",
          "type": "bool"
        }
      ],
      "name": "ApprovalForAll",
      "type": "event"
    },
    {
      "anonymous": false,
      "inputs": [
        {
          "indexed": true,
          "internalType": "uint256",
          "name": "packId",
          "type": "uint256"
        },
        {
          "indexed": true,
          "internalType": "address",
          "name": "rewardContract",
          "type": "address"
        },
        {
          "indexed": true,
          "internalType": "address",
          "name": "creator",
          "type": "address"
        },
        {
          "indexed": false,
          "internalType": "uint256",
          "name": "packTotalSupply",
          "type": "uint256"
        },
        {
          "components": [
            {
              "internalType": "string",
              "name": "uri",
              "type": "string"
            },
            {
              "internalType": "address",
              "name": "creator",
              "type": "address"
            },
            {
              "internalType": "uint256",
              "name": "openStart",
              "type": "uint256"
            }
          ],
          "indexed": false,
          "internalType": "struct Pack.PackState",
          "name": "packState",
          "type": "tuple"
        },
        {
          "components": [
            {
              "internalType": "address",
              "name": "source",
              "type": "address"
            },
            {
              "internalType": "uint256[]",
              "name": "tokenIds",
              "type": "uint256[]"
            },
            {
              "internalType": "uint256[]",
              "name": "amountsPacked",
              "type": "uint256[]"
            },
            {
              "internalType": "uint256",
              "name": "rewardsPerOpen",
              "type": "uint256"
            }
          ],
          "indexed": false,
          "internalType": "struct Pack.Rewards",
          "name": "rewards",
          "type": "tuple"
        }
      ],
      "name": "PackCreated",
      "type": "event"
    },
    {
      "anonymous": false,
      "inputs": [
        {
          "indexed": true,
          "internalType": "uint256",
          "name": "packId",
          "type": "uint256"
        },
        {
          "indexed": true,
          "internalType": "address",
          "name": "opener",
          "type": "address"
        },
        {
          "indexed": false,
          "internalType": "bytes32",
          "name": "requestId",
          "type": "bytes32"
        },
        {
          "indexed": true,
          "internalType": "address",
          "name": "rewardContract",
          "type": "address"
        },
        {
          "indexed": false,
          "internalType": "uint256[]",
          "name": "rewardIds",
          "type": "uint256[]"
        }
      ],
      "name": "PackOpenFulfilled",
      "type": "event"
    },
    {
      "anonymous": false,
      "inputs": [
        {
          "indexed": true,
          "internalType": "uint256",
          "name": "packId",
          "type": "uint256"
        },
        {
          "indexed": true,
          "internalType": "address",
          "name": "opener",
          "type": "address"
        },
        {
          "indexed": false,
          "internalType": "bytes32",
          "name": "requestId",
          "type": "bytes32"
        }
      ],
      "name": "PackOpenRequest",
      "type": "event"
    },
    {
      "anonymous": false,
      "inputs": [
        {
          "indexed": false,
          "internalType": "address",
          "name": "account",
          "type": "address"
        }
      ],
      "name": "Paused",
      "type": "event"
    },
    {
      "anonymous": false,
      "inputs": [
        {
          "indexed": false,
          "internalType": "bool",
          "name": "transferable",
          "type": "bool"
        }
      ],
      "name": "RestrictedTransferUpdated",
      "type": "event"
    },
    {
      "anonymous": false,
      "inputs": [
        {
          "indexed": true,
          "internalType": "bytes32",
          "name": "role",
          "type": "bytes32"
        },
        {
          "indexed": true,
          "internalType": "bytes32",
          "name": "previousAdminRole",
          "type": "bytes32"
        },
        {
          "indexed": true,
          "internalType": "bytes32",
          "name": "newAdminRole",
          "type": "bytes32"
        }
      ],
      "name": "RoleAdminChanged",
      "type": "event"
    },
    {
      "anonymous": false,
      "inputs": [
        {
          "indexed": true,
          "internalType": "bytes32",
          "name": "role",
          "type": "bytes32"
        },
        {
          "indexed": true,
          "internalType": "address",
          "name": "account",
          "type": "address"
        },
        {
          "indexed": true,
          "internalType": "address",
          "name": "sender",
          "type": "address"
        }
      ],
      "name": "RoleGranted",
      "type": "event"
    },
    {
      "anonymous": false,
      "inputs": [
        {
          "indexed": true,
          "internalType": "bytes32",
          "name": "role",
          "type": "bytes32"
        },
        {
          "indexed": true,
          "internalType": "address",
          "name": "account",
          "type": "address"
        },
        {
          "indexed": true,
          "internalType": "address",
          "name": "sender",
          "type": "address"
        }
      ],
      "name": "RoleRevoked",
      "type": "event"
    },
    {
      "anonymous": false,
      "inputs": [
        {
          "indexed": false,
          "internalType": "uint256",
          "name": "royaltyBps",
          "type": "uint256"
        }
      ],
      "name": "RoyaltyUpdated",
      "type": "event"
    },
    {
      "anonymous": false,
      "inputs": [
        {
          "indexed": true,
          "internalType": "address",
          "name": "operator",
          "type": "address"
        },
        {
          "indexed": true,
          "internalType": "address",
          "name": "from",
          "type": "address"
        },
        {
          "indexed": true,
          "internalType": "address",
          "name": "to",
          "type": "address"
        },
        {
          "indexed": false,
          "internalType": "uint256[]",
          "name": "ids",
          "type": "uint256[]"
        },
        {
          "indexed": false,
          "internalType": "uint256[]",
          "name": "values",
          "type": "uint256[]"
        }
      ],
      "name": "TransferBatch",
      "type": "event"
    },
    {
      "anonymous": false,
      "inputs": [
        {
          "indexed": true,
          "internalType": "address",
          "name": "operator",
          "type": "address"
        },
        {
          "indexed": true,
          "internalType": "address",
          "name": "from",
          "type": "address"
        },
        {
          "indexed": true,
          "internalType": "address",
          "name": "to",
          "type": "address"
        },
        {
          "indexed": false,
          "internalType": "uint256",
          "name": "id",
          "type": "uint256"
        },
        {
          "indexed": false,
          "internalType": "uint256",
          "name": "value",
          "type": "uint256"
        }
      ],
      "name": "TransferSingle",
      "type": "event"
    },
    {
      "anonymous": false,
      "inputs": [
        {
          "indexed": false,
          "internalType": "string",
          "name": "value",
          "type": "string"
        },
        {
          "indexed": true,
          "internalType": "uint256",
          "name": "id",
          "type": "uint256"
        }
      ],
      "name": "URI",
      "type": "event"
    },
    {
      "anonymous": false,
      "inputs": [
        {
          "indexed": false,
          "internalType": "address",
          "name": "account",
          "type": "address"
        }
      ],
      "name": "Unpaused",
      "type": "event"
    },
    {
      "inputs": [],
      "name": "DEFAULT_ADMIN_ROLE",
      "outputs": [
        {
          "internalType": "bytes32",
          "name": "",
          "type": "bytes32"
        }
      ],
      "stateMutability": "view",
      "type": "function"
    },
    {
      "inputs": [],
      "name": "MINTER_ROLE",
      "outputs": [
        {
          "internalType": "bytes32",
          "name": "",
          "type": "bytes32"
        }
      ],
      "stateMutability": "view",
      "type": "function"
    },
    {
      "inputs": [],
      "name": "PAUSER_ROLE",
      "outputs": [
        {
          "internalType": "bytes32",
          "name": "",
          "type": "bytes32"
        }
      ],
      "stateMutability": "view",
      "type": "function"
    },
    {
      "inputs": [],
      "name": "TRANSFER_ROLE",
      "outputs": [
        {
          "internalType": "bytes32",
          "name": "",
          "type": "bytes32"
        }
      ],
      "stateMutability": "view",
      "type": "function"
    },
    {
      "inputs": [],
      "name": "_contractURI",
      "outputs": [
        {
          "internalType": "string",
          "name": "",
          "type": "string"
        }
      ],
      "stateMutability": "view",
      "type": "function"
    },
    {
      "inputs": [
        {
          "internalType": "address",
          "name": "account",
          "type": "address"
        },
        {
          "internalType": "uint256",
          "name": "id",
          "type": "uint256"
        }
      ],
      "name": "balanceOf",
      "outputs": [
        {
          "internalType": "uint256",
          "name": "",
          "type": "uint256"
        }
      ],
      "stateMutability": "view",
      "type": "function"
    },
    {
      "inputs": [
        {
          "internalType": "address[]",
          "name": "accounts",
          "type": "address[]"
        },
        {
          "internalType": "uint256[]",
          "name": "ids",
          "type": "uint256[]"
        }
      ],
      "name": "balanceOfBatch",
      "outputs": [
        {
          "internalType": "uint256[]",
          "name": "",
          "type": "uint256[]"
        }
      ],
      "stateMutability": "view",
      "type": "function"
    },
    {
      "inputs": [
        {
          "internalType": "address",
          "name": "account",
          "type": "address"
        },
        {
          "internalType": "uint256",
          "name": "id",
          "type": "uint256"
        },
        {
          "internalType": "uint256",
          "name": "value",
          "type": "uint256"
        }
      ],
      "name": "burn",
      "outputs": [],
      "stateMutability": "nonpayable",
      "type": "function"
    },
    {
      "inputs": [
        {
          "internalType": "address",
          "name": "account",
          "type": "address"
        },
        {
          "internalType": "uint256[]",
          "name": "ids",
          "type": "uint256[]"
        },
        {
          "internalType": "uint256[]",
          "name": "values",
          "type": "uint256[]"
        }
      ],
      "name": "burnBatch",
      "outputs": [],
      "stateMutability": "nonpayable",
      "type": "function"
    },
    {
      "inputs": [],
      "name": "contractURI",
      "outputs": [
        {
          "internalType": "string",
          "name": "",
          "type": "string"
        }
      ],
      "stateMutability": "view",
      "type": "function"
    },
    {
      "inputs": [
        {
          "internalType": "uint256",
          "name": "_packId",
          "type": "uint256"
        }
      ],
      "name": "creator",
      "outputs": [
        {
          "internalType": "address",
          "name": "",
          "type": "address"
        }
      ],
      "stateMutability": "view",
      "type": "function"
    },
    {
      "inputs": [
        {
          "internalType": "uint256",
          "name": "",
          "type": "uint256"
        },
        {
          "internalType": "address",
          "name": "",
          "type": "address"
        }
      ],
      "name": "currentRequestId",
      "outputs": [
        {
          "internalType": "bytes32",
          "name": "",
          "type": "bytes32"
        }
      ],
      "stateMutability": "view",
      "type": "function"
    },
    {
      "inputs": [
        {
          "internalType": "uint256",
          "name": "_packId",
          "type": "uint256"
        }
      ],
      "name": "getPack",
      "outputs": [
        {
          "components": [
            {
              "internalType": "string",
              "name": "uri",
              "type": "string"
            },
            {
              "internalType": "address",
              "name": "creator",
              "type": "address"
            },
            {
              "internalType": "uint256",
              "name": "openStart",
              "type": "uint256"
            }
          ],
          "internalType": "struct Pack.PackState",
          "name": "pack",
          "type": "tuple"
        }
      ],
      "stateMutability": "view",
      "type": "function"
    },
    {
      "inputs": [
        {
          "internalType": "uint256",
          "name": "_packId",
          "type": "uint256"
        }
      ],
      "name": "getPackWithRewards",
      "outputs": [
        {
          "components": [
            {
              "internalType": "string",
              "name": "uri",
              "type": "string"
            },
            {
              "internalType": "address",
              "name": "creator",
              "type": "address"
            },
            {
              "internalType": "uint256",
              "name": "openStart",
              "type": "uint256"
            }
          ],
          "internalType": "struct Pack.PackState",
          "name": "pack",
          "type": "tuple"
        },
        {
          "internalType": "uint256",
          "name": "packTotalSupply",
          "type": "uint256"
        },
        {
          "internalType": "address",
          "name": "source",
          "type": "address"
        },
        {
          "internalType": "uint256[]",
          "name": "tokenIds",
          "type": "uint256[]"
        },
        {
          "internalType": "uint256[]",
          "name": "amountsPacked",
          "type": "uint256[]"
        }
      ],
      "stateMutability": "view",
      "type": "function"
    },
    {
      "inputs": [
        {
          "internalType": "bytes32",
          "name": "role",
          "type": "bytes32"
        }
      ],
      "name": "getRoleAdmin",
      "outputs": [
        {
          "internalType": "bytes32",
          "name": "",
          "type": "bytes32"
        }
      ],
      "stateMutability": "view",
      "type": "function"
    },
    {
      "inputs": [
        {
          "internalType": "bytes32",
          "name": "role",
          "type": "bytes32"
        },
        {
          "internalType": "uint256",
          "name": "index",
          "type": "uint256"
        }
      ],
      "name": "getRoleMember",
      "outputs": [
        {
          "internalType": "address",
          "name": "",
          "type": "address"
        }
      ],
      "stateMutability": "view",
      "type": "function"
    },
    {
      "inputs": [
        {
          "internalType": "bytes32",
          "name": "role",
          "type": "bytes32"
        }
      ],
      "name": "getRoleMemberCount",
      "outputs": [
        {
          "internalType": "uint256",
          "name": "",
          "type": "uint256"
        }
      ],
      "stateMutability": "view",
      "type": "function"
    },
    {
      "inputs": [
        {
          "internalType": "bytes32",
          "name": "role",
          "type": "bytes32"
        },
        {
          "internalType": "address",
          "name": "account",
          "type": "address"
        }
      ],
      "name": "grantRole",
      "outputs": [],
      "stateMutability": "nonpayable",
      "type": "function"
    },
    {
      "inputs": [
        {
          "internalType": "bytes32",
          "name": "role",
          "type": "bytes32"
        },
        {
          "internalType": "address",
          "name": "account",
          "type": "address"
        }
      ],
      "name": "hasRole",
      "outputs": [
        {
          "internalType": "bool",
          "name": "",
          "type": "bool"
        }
      ],
      "stateMutability": "view",
      "type": "function"
    },
    {
      "inputs": [
        {
          "internalType": "address",
          "name": "account",
          "type": "address"
        },
        {
          "internalType": "address",
          "name": "operator",
          "type": "address"
        }
      ],
      "name": "isApprovedForAll",
      "outputs": [
        {
          "internalType": "bool",
          "name": "",
          "type": "bool"
        }
      ],
      "stateMutability": "view",
      "type": "function"
    },
    {
      "inputs": [
        {
          "internalType": "address",
          "name": "forwarder",
          "type": "address"
        }
      ],
      "name": "isTrustedForwarder",
      "outputs": [
        {
          "internalType": "bool",
          "name": "",
          "type": "bool"
        }
      ],
      "stateMutability": "view",
      "type": "function"
    },
    {
      "inputs": [
        {
          "internalType": "address",
          "name": "",
          "type": "address"
        },
        {
          "internalType": "uint256",
          "name": "",
          "type": "uint256"
        },
        {
          "internalType": "uint256",
          "name": "",
          "type": "uint256"
        },
        {
          "internalType": "bytes",
          "name": "",
          "type": "bytes"
        }
      ],
      "name": "mint",
      "outputs": [],
      "stateMutability": "nonpayable",
      "type": "function"
    },
    {
      "inputs": [
        {
          "internalType": "address",
          "name": "",
          "type": "address"
        },
        {
          "internalType": "uint256[]",
          "name": "",
          "type": "uint256[]"
        },
        {
          "internalType": "uint256[]",
          "name": "",
          "type": "uint256[]"
        },
        {
          "internalType": "bytes",
          "name": "",
          "type": "bytes"
        }
      ],
      "name": "mintBatch",
      "outputs": [],
      "stateMutability": "nonpayable",
      "type": "function"
    },
    {
      "inputs": [
        {
          "internalType": "bytes[]",
          "name": "data",
          "type": "bytes[]"
        }
      ],
      "name": "multicall",
      "outputs": [
        {
          "internalType": "bytes[]",
          "name": "results",
          "type": "bytes[]"
        }
      ],
      "stateMutability": "nonpayable",
      "type": "function"
    },
    {
      "inputs": [],
      "name": "nextTokenId",
      "outputs": [
        {
          "internalType": "uint256",
          "name": "",
          "type": "uint256"
        }
      ],
      "stateMutability": "view",
      "type": "function"
    },
    {
      "inputs": [
        {
          "internalType": "address",
          "name": "_operator",
          "type": "address"
        },
        {
          "internalType": "address",
          "name": "",
          "type": "address"
        },
        {
          "internalType": "uint256[]",
          "name": "_ids",
          "type": "uint256[]"
        },
        {
          "internalType": "uint256[]",
          "name": "_values",
          "type": "uint256[]"
        },
        {
          "internalType": "bytes",
          "name": "_data",
          "type": "bytes"
        }
      ],
      "name": "onERC1155BatchReceived",
      "outputs": [
        {
          "internalType": "bytes4",
          "name": "",
          "type": "bytes4"
        }
      ],
      "stateMutability": "nonpayable",
      "type": "function"
    },
    {
      "inputs": [
        {
          "internalType": "address",
          "name": "",
          "type": "address"
        },
        {
          "internalType": "address",
          "name": "",
          "type": "address"
        },
        {
          "internalType": "uint256",
          "name": "",
          "type": "uint256"
        },
        {
          "internalType": "uint256",
          "name": "",
          "type": "uint256"
        },
        {
          "internalType": "bytes",
          "name": "",
          "type": "bytes"
        }
      ],
      "name": "onERC1155Received",
      "outputs": [
        {
          "internalType": "bytes4",
          "name": "",
          "type": "bytes4"
        }
      ],
      "stateMutability": "nonpayable",
      "type": "function"
    },
    {
      "inputs": [
        {
          "internalType": "address",
          "name": "",
          "type": "address"
        },
        {
          "internalType": "address",
          "name": "",
          "type": "address"
        },
        {
          "internalType": "uint256",
          "name": "",
          "type": "uint256"
        },
        {
          "internalType": "bytes",
          "name": "",
          "type": "bytes"
        }
      ],
      "name": "onERC721Received",
      "outputs": [
        {
          "internalType": "bytes4",
          "name": "",
          "type": "bytes4"
        }
      ],
      "stateMutability": "nonpayable",
      "type": "function"
    },
    {
      "inputs": [
        {
          "internalType": "uint256",
          "name": "_packId",
          "type": "uint256"
        }
      ],
      "name": "openPack",
      "outputs": [],
      "stateMutability": "nonpayable",
      "type": "function"
    },
    {
      "inputs": [
        {
          "internalType": "uint256",
          "name": "",
          "type": "uint256"
        }
      ],
      "name": "packs",
      "outputs": [
        {
          "internalType": "string",
          "name": "uri",
          "type": "string"
        },
        {
          "internalType": "address",
          "name": "creator",
          "type": "address"
        },
        {
          "internalType": "uint256",
          "name": "openStart",
          "type": "uint256"
        }
      ],
      "stateMutability": "view",
      "type": "function"
    },
    {
      "inputs": [],
      "name": "pause",
      "outputs": [],
      "stateMutability": "nonpayable",
      "type": "function"
    },
    {
      "inputs": [],
      "name": "paused",
      "outputs": [
        {
          "internalType": "bool",
          "name": "",
          "type": "bool"
        }
      ],
      "stateMutability": "view",
      "type": "function"
    },
    {
      "inputs": [
        {
          "internalType": "bytes32",
          "name": "",
          "type": "bytes32"
        }
      ],
      "name": "randomnessRequests",
      "outputs": [
        {
          "internalType": "uint256",
          "name": "packId",
          "type": "uint256"
        },
        {
          "internalType": "address",
          "name": "opener",
          "type": "address"
        }
      ],
      "stateMutability": "view",
      "type": "function"
    },
    {
      "inputs": [
        {
          "internalType": "bytes32",
          "name": "requestId",
          "type": "bytes32"
        },
        {
          "internalType": "uint256",
          "name": "randomness",
          "type": "uint256"
        }
      ],
      "name": "rawFulfillRandomness",
      "outputs": [],
      "stateMutability": "nonpayable",
      "type": "function"
    },
    {
      "inputs": [
        {
          "internalType": "bytes32",
          "name": "role",
          "type": "bytes32"
        },
        {
          "internalType": "address",
          "name": "account",
          "type": "address"
        }
      ],
      "name": "renounceRole",
      "outputs": [],
      "stateMutability": "nonpayable",
      "type": "function"
    },
    {
      "inputs": [
        {
          "internalType": "bytes32",
          "name": "role",
          "type": "bytes32"
        },
        {
          "internalType": "address",
          "name": "account",
          "type": "address"
        }
      ],
      "name": "revokeRole",
      "outputs": [],
      "stateMutability": "nonpayable",
      "type": "function"
    },
    {
      "inputs": [
        {
          "internalType": "uint256",
          "name": "",
          "type": "uint256"
        }
      ],
      "name": "rewards",
      "outputs": [
        {
          "internalType": "address",
          "name": "source",
          "type": "address"
        },
        {
          "internalType": "uint256",
          "name": "rewardsPerOpen",
          "type": "uint256"
        }
      ],
      "stateMutability": "view",
      "type": "function"
    },
    {
      "inputs": [],
      "name": "royaltyBps",
      "outputs": [
        {
          "internalType": "uint256",
          "name": "",
          "type": "uint256"
        }
      ],
      "stateMutability": "view",
      "type": "function"
    },
    {
      "inputs": [
        {
          "internalType": "uint256",
          "name": "",
          "type": "uint256"
        },
        {
          "internalType": "uint256",
          "name": "salePrice",
          "type": "uint256"
        }
      ],
      "name": "royaltyInfo",
      "outputs": [
        {
          "internalType": "address",
          "name": "receiver",
          "type": "address"
        },
        {
          "internalType": "uint256",
          "name": "royaltyAmount",
          "type": "uint256"
        }
      ],
      "stateMutability": "view",
      "type": "function"
    },
    {
      "inputs": [
        {
          "internalType": "address",
          "name": "from",
          "type": "address"
        },
        {
          "internalType": "address",
          "name": "to",
          "type": "address"
        },
        {
          "internalType": "uint256[]",
          "name": "ids",
          "type": "uint256[]"
        },
        {
          "internalType": "uint256[]",
          "name": "amounts",
          "type": "uint256[]"
        },
        {
          "internalType": "bytes",
          "name": "data",
          "type": "bytes"
        }
      ],
      "name": "safeBatchTransferFrom",
      "outputs": [],
      "stateMutability": "nonpayable",
      "type": "function"
    },
    {
      "inputs": [
        {
          "internalType": "address",
          "name": "from",
          "type": "address"
        },
        {
          "internalType": "address",
          "name": "to",
          "type": "address"
        },
        {
          "internalType": "uint256",
          "name": "id",
          "type": "uint256"
        },
        {
          "internalType": "uint256",
          "name": "amount",
          "type": "uint256"
        },
        {
          "internalType": "bytes",
          "name": "data",
          "type": "bytes"
        }
      ],
      "name": "safeTransferFrom",
      "outputs": [],
      "stateMutability": "nonpayable",
      "type": "function"
    },
    {
      "inputs": [
        {
          "internalType": "address",
          "name": "operator",
          "type": "address"
        },
        {
          "internalType": "bool",
          "name": "approved",
          "type": "bool"
        }
      ],
      "name": "setApprovalForAll",
      "outputs": [],
      "stateMutability": "nonpayable",
      "type": "function"
    },
    {
      "inputs": [
        {
          "internalType": "uint256",
          "name": "_newFees",
          "type": "uint256"
        }
      ],
      "name": "setChainlinkFees",
      "outputs": [],
      "stateMutability": "nonpayable",
      "type": "function"
    },
    {
      "inputs": [
        {
          "internalType": "string",
          "name": "_uri",
          "type": "string"
        }
      ],
      "name": "setContractURI",
      "outputs": [],
      "stateMutability": "nonpayable",
      "type": "function"
    },
    {
      "inputs": [
        {
          "internalType": "bool",
          "name": "_restrictedTransfer",
          "type": "bool"
        }
      ],
      "name": "setRestrictedTransfer",
      "outputs": [],
      "stateMutability": "nonpayable",
      "type": "function"
    },
    {
      "inputs": [
        {
          "internalType": "uint256",
          "name": "_royaltyBps",
          "type": "uint256"
        }
      ],
      "name": "setRoyaltyBps",
      "outputs": [],
      "stateMutability": "nonpayable",
      "type": "function"
    },
    {
      "inputs": [
        {
          "internalType": "bytes4",
          "name": "interfaceId",
          "type": "bytes4"
        }
      ],
      "name": "supportsInterface",
      "outputs": [
        {
          "internalType": "bool",
          "name": "",
          "type": "bool"
        }
      ],
      "stateMutability": "view",
      "type": "function"
    },
    {
      "inputs": [
        {
          "internalType": "uint256",
          "name": "_id",
          "type": "uint256"
        }
      ],
      "name": "tokenURI",
      "outputs": [
        {
          "internalType": "string",
          "name": "",
          "type": "string"
        }
      ],
      "stateMutability": "view",
      "type": "function"
    },
    {
      "inputs": [
        {
          "internalType": "uint256",
          "name": "id",
          "type": "uint256"
        }
      ],
      "name": "totalSupply",
      "outputs": [
        {
          "internalType": "uint256",
          "name": "",
          "type": "uint256"
        }
      ],
      "stateMutability": "view",
      "type": "function"
    },
    {
      "inputs": [
        {
          "internalType": "address",
          "name": "_to",
          "type": "address"
        },
        {
          "internalType": "uint256",
          "name": "_amount",
          "type": "uint256"
        }
      ],
      "name": "transferLink",
      "outputs": [],
      "stateMutability": "nonpayable",
      "type": "function"
    },
    {
      "inputs": [],
      "name": "transfersRestricted",
      "outputs": [
        {
          "internalType": "bool",
          "name": "",
          "type": "bool"
        }
      ],
      "stateMutability": "view",
      "type": "function"
    },
    {
      "inputs": [],
      "name": "unpause",
      "outputs": [],
      "stateMutability": "nonpayable",
      "type": "function"
    },
    {
      "inputs": [
        {
          "internalType": "uint256",
          "name": "_id",
          "type": "uint256"
        }
      ],
      "name": "uri",
      "outputs": [
        {
          "internalType": "string",
          "name": "",
          "type": "string"
        }
      ],
      "stateMutability": "view",
      "type": "function"
    },
    {
      "inputs": [],
      "name": "vrfFees",
      "outputs": [
        {
          "internalType": "uint256",
          "name": "",
          "type": "uint256"
        }
      ],
      "stateMutability": "view",
      "type": "function"
    },
    {
      "inputs": [],
      "name": "vrfKeyHash",
      "outputs": [
        {
          "internalType": "bytes32",
          "name": "",
          "type": "bytes32"
        }
      ],
      "stateMutability": "view",
      "type": "function"
    }
  ],
  "bytecode": "0x60c06040523480156200001157600080fd5b50604051620060743803806200607483398101604081905262000034916200054d565b8186868980620000448162000163565b506005805460ff191690556200006560006200005f6200017c565b62000198565b620000947f9f2df0fed2c77648de5860a4cc508cd0818c85b8b8a1ab4ceeef8d981c8956a66200005f6200017c565b620000c37f65d7a28e3265b37a6474929f336521b332c1681b933f6cb9f3376673440d862a6200005f6200017c565b506001600160a01b0391821660a0528116608052600880549282166001600160a01b031993841617905560098054918b1691909216179055600f849055600e83905586516200011a90600c9060208a019062000466565b506200014a7f8502233096d909befbda0999bb8ea2f3a6be3c138b9fbf003752a4c8bce86f6c6200005f6200017c565b6200015581620001db565b5050505050505050620006d4565b80516200017890600490602084019062000466565b5050565b6000620001936200030960201b6200253d1760201c565b905090565b620001af82826200034260201b6200256d1760201c565b6000828152600160209081526040909120620001d6918390620025776200034e821b17901c565b505050565b620002146000620001eb6200017c565b6000918252602082815260408084206001600160a01b0393909316845291905290205460ff1690565b620002665760405162461bcd60e51b815260206004820152601660248201527f6f6e6c79206d6f64756c652061646d696e20726f6c650000000000000000000060448201526064015b60405180910390fd5b612710811115620002ce5760405162461bcd60e51b815260206004820152602b60248201527f5061636b3a204270732070726f7669646564206d757374206265206c6573732060448201526a07468616e2031302c3030360ac1b60648201526084016200025d565b600b8190556040518181527f244ea8d7627f5a08f4299862bd5a45752842c183aee5b0fb0d1e4887bfa605b39060200160405180910390a150565b6008546000906001600160a01b03163314156200032d575060131936013560601c90565b620001936200036e60201b6200258c1760201c565b62000178828262000372565b600062000365836001600160a01b03841662000414565b90505b92915050565b3390565b6000828152602081815260408083206001600160a01b038516845290915290205460ff1662000178576000828152602081815260408083206001600160a01b03851684529091529020805460ff19166001179055620003d06200017c565b6001600160a01b0316816001600160a01b0316837f2f8788117e7eff1d82e926ec794901d17c78024a50270940304540a733656f0d60405160405180910390a45050565b60008181526001830160205260408120546200045d5750815460018181018455600084815260208082209093018490558454848252828601909352604090209190915562000368565b50600062000368565b828054620004749062000697565b90600052602060002090601f016020900481019282620004985760008555620004e3565b82601f10620004b357805160ff1916838001178555620004e3565b82800160010185558215620004e3579182015b82811115620004e3578251825591602001919060010190620004c6565b50620004f1929150620004f5565b5090565b5b80821115620004f15760008155600101620004f6565b6001600160a01b03811681146200052257600080fd5b50565b634e487b7160e01b600052604160045260246000fd5b805162000548816200050c565b919050565b600080600080600080600080610100898b0312156200056b57600080fd5b885162000578816200050c565b60208a810151919950906001600160401b03808211156200059857600080fd5b818c0191508c601f830112620005ad57600080fd5b815181811115620005c257620005c262000525565b604051601f8201601f19908116603f01168101908382118183101715620005ed57620005ed62000525565b816040528281528f868487010111156200060657600080fd5b600093505b828410156200062a57848401860151818501870152928501926200060b565b828411156200063c5760008684830101525b809c505050505050506200065360408a016200053b565b95506200066360608a016200053b565b94506080890151935060a089015192506200068160c08a016200053b565b915060e089015190509295985092959890939650565b600181811c90821680620006ac57607f821691505b60208210811415620006ce57634e487b7160e01b600052602260045260246000fd5b50919050565b60805160a0516159656200070f60003960008181611abe0152612b56015260008181611317015281816124700152612b2701526159656000f3fe608060405234801561001057600080fd5b506004361061036c5760003560e01c80638456cb59116101d3578063c0e7274011610104578063e8a3d485116100a2578063f242432a1161007c578063f242432a146108a9578063f301af42146108bc578063f5298aca146108ef578063f99b1d681461090257600080fd5b8063e8a3d48514610852578063e985e9c51461085a578063f23a6e611461089657600080fd5b8063ca15c873116100de578063ca15c873146107de578063d5391393146107f1578063d547741f14610818578063e63ab1e91461082b57600080fd5b8063c0e72740146107cd578063c63adb2b146107d5578063c87b56dd146103c357600080fd5b8063a217fddf11610171578063b277ca451161014b578063b277ca4514610765578063b84c139214610778578063bc197c811461079a578063bd85b039146107ad57600080fd5b8063a217fddf1461072a578063a22cb46514610732578063ac9650d81461074557600080fd5b80639010d07c116101ad5780639010d07c146106ba57806391d14854146106cd578063938e3d7b1461070457806394985ddd1461071757600080fd5b80638456cb591461067f578063895ec54c146106875780638ba448c2146106a757600080fd5b80632f2ff15d116102ad578063572b6c051161024b5780636b20c454116102255780636b20c45414610648578063731133e91461065b57806375794a3c146106695780638423df791461067257600080fd5b8063572b6c05146105ce5780635c975abb146105f05780635e619b78146105fb57600080fd5b80634e1273f4116102875780634e1273f41461052c57806350a88c7e1461054c578063510b51581461055f5780635318c48f146105a357600080fd5b80632f2ff15d146104fe57806336568abe146105115780633f4ba83a1461052457600080fd5b8063150b7a021161031a578063206b60f9116102f4578063206b60f91461046f578063248a9ca3146104965780632a55205a146104b95780632eb2c2d6146104eb57600080fd5b8063150b7a02146104105780631f72d831146104475780631f7fdffa1461045c57600080fd5b80630e89341c1161034b5780630e89341c146103c357806310983e57146103e357806310e34e67146103ec57600080fd5b8062fdd58e1461037157806301ffc9a714610397578063041d443e146103ba575b600080fd5b61038461037f366004614a22565b610915565b6040519081526020015b60405180910390f35b6103aa6103a5366004614a64565b6109c3565b604051901515815260200161038e565b610384600f5481565b6103d66103d1366004614a81565b6109ee565b60405161038e9190614af6565b610384600e5481565b6103ff6103fa366004614a81565b610a90565b60405161038e959493929190614b82565b61042e61041e366004614ca3565b630a85bd0160e11b949350505050565b6040516001600160e01b0319909116815260200161038e565b61045a610455366004614a81565b610c8c565b005b61045a61046a366004614da4565b610d99565b6103847f8502233096d909befbda0999bb8ea2f3a6be3c138b9fbf003752a4c8bce86f6c81565b6103846104a4366004614a81565b60009081526020819052604090206001015490565b6104cc6104c7366004614e33565b610ded565b604080516001600160a01b03909316835260208301919091520161038e565b61045a6104f9366004614e55565b610e94565b61045a61050c366004614f03565b610f48565b61045a61051f366004614f03565b610f6f565b61045a610f91565b61053f61053a366004614f33565b611039565b60405161038e9190615000565b61045a61055a366004614a81565b611177565b61058b61056d366004614a81565b6000908152601060205260409020600101546001600160a01b031690565b6040516001600160a01b03909116815260200161038e565b6103846105b1366004614f03565b601360209081526000928352604080842090915290825290205481565b6103aa6105dc366004615013565b6008546001600160a01b0391821691161490565b60055460ff166103aa565b61062b610609366004614a81565b601260205260009081526040902080546001909101546001600160a01b031682565b604080519283526001600160a01b0390911660208301520161038e565b61045a610656366004615030565b611644565b61045a61046a3660046150a6565b610384600a5481565b600d546103aa9060ff1681565b61045a6116db565b61069a610695366004614a81565b611781565b60405161038e91906150f1565b61045a6106b5366004615112565b61187c565b61058b6106c8366004614e33565b611916565b6103aa6106db366004614f03565b6000918252602082815260408084206001600160a01b0393909316845291905290205460ff1690565b61045a61071236600461512f565b611935565b61045a610725366004614e33565b611ab3565b610384600081565b61045a6107403660046151a1565b611b39565b6107586107533660046151cf565b611c61565b60405161038e9190615232565b61045a610773366004614a81565b611d56565b61078b610786366004614a81565b611ecd565b60405161038e93929190615294565b61042e6107a8366004614e55565b611f81565b6103846107bb366004614a81565b60009081526006602052604090205490565b6103d6612019565b610384600b5481565b6103846107ec366004614a81565b6120a7565b6103847f9f2df0fed2c77648de5860a4cc508cd0818c85b8b8a1ab4ceeef8d981c8956a681565b61045a610826366004614f03565b6120be565b6103847f65d7a28e3265b37a6474929f336521b332c1681b933f6cb9f3376673440d862a81565b6103d66120c8565b6103aa6108683660046152c2565b6001600160a01b03918216600090815260036020908152604080832093909416825291909152205460ff1690565b61042e6108a43660046152f0565b61215a565b61045a6108b73660046152f0565b6121a5565b6104cc6108ca366004614a81565b601160205260009081526040902080546003909101546001600160a01b039091169082565b61045a6108fd366004615359565b61223e565b61045a610910366004614a22565b6122d5565b60006001600160a01b0383166109985760405162461bcd60e51b815260206004820152602b60248201527f455243313135353a2062616c616e636520717565727920666f7220746865207a60448201527f65726f206164647265737300000000000000000000000000000000000000000060648201526084015b60405180910390fd5b5060008181526002602090815260408083206001600160a01b03861684529091529020545b92915050565b60006109ce82612590565b806109bd57506001600160e01b0319821663152a902d60e11b1492915050565b6000818152601060205260409020805460609190610a0b9061538e565b80601f0160208091040260200160405190810160405280929190818152602001828054610a379061538e565b8015610a845780601f10610a5957610100808354040283529160200191610a84565b820191906000526020600020905b815481529060010190602001808311610a6757829003601f168201915b50505050509050919050565b610abd60405180606001604052806060815260200160006001600160a01b03168152602001600081525090565b60008060608060106000878152602001908152602001600020604051806060016040529081600082018054610af19061538e565b80601f0160208091040260200160405190810160405280929190818152602001828054610b1d9061538e565b8015610b6a5780601f10610b3f57610100808354040283529160200191610b6a565b820191906000526020600020905b815481529060010190602001808311610b4d57829003601f168201915b505050918352505060018201546001600160a01b031660208201526002909101546040909101529450610ba98660009081526006602052604090205490565b6000878152601160209081526040918290208054600190910180548451818502810185019095528085529498506001600160a01b039091169650919290830182828015610c1557602002820191906000526020600020905b815481526020019060010190808311610c01575b5050505050915060116000878152602001908152602001600020600201805480602002602001604051908101604052809291908181526020018280548015610c7c57602002820191906000526020600020905b815481526020019060010190808311610c68575b5050505050905091939590929450565b610c9960006106db61259b565b610ce55760405162461bcd60e51b815260206004820152601660248201527f6f6e6c79206d6f64756c652061646d696e20726f6c6500000000000000000000604482015260640161098f565b612710811115610d5d5760405162461bcd60e51b815260206004820152602b60248201527f5061636b3a204270732070726f7669646564206d757374206265206c6573732060448201527f7468616e2031302c303030000000000000000000000000000000000000000000606482015260840161098f565b600b8190556040518181527f244ea8d7627f5a08f4299862bd5a45752842c183aee5b0fb0d1e4887bfa605b3906020015b60405180910390a150565b60405162461bcd60e51b815260206004820152602360248201527f5061636b3a2063616e6e6f7420667265656c79206d696e74206d6f7265207061604482015262636b7360e81b606482015260840161098f565b60095460405163f2aab4b360e01b815230600482015260009182916001600160a01b039091169063f2aab4b39060240160206040518083038186803b158015610e3557600080fd5b505afa158015610e49573d6000803e3d6000fd5b505050506040513d601f19601f82011682018060405250810190610e6d91906153c3565b600b5490925061271090610e8190856153f6565b610e8b919061542b565b90509250929050565b610e9c61259b565b6001600160a01b0316856001600160a01b03161480610ec25750610ec28561086861259b565b610f345760405162461bcd60e51b815260206004820152603260248201527f455243313135353a207472616e736665722063616c6c6572206973206e6f742060448201527f6f776e6572206e6f7220617070726f7665640000000000000000000000000000606482015260840161098f565b610f4185858585856125a5565b5050505050565b610f52828261281f565b6000828152600160205260409020610f6a9082612577565b505050565b610f79828261284c565b6000828152600160205260409020610f6a90826128e4565b610fbd7f65d7a28e3265b37a6474929f336521b332c1681b933f6cb9f3376673440d862a6106db61259b565b61102f5760405162461bcd60e51b815260206004820152603b60248201527f455243313135355072657365744d696e7465725061757365723a206d7573742060448201527f686176652070617573657220726f6c6520746f20756e70617573650000000000606482015260840161098f565b6110376128f9565b565b606081518351146110b25760405162461bcd60e51b815260206004820152602960248201527f455243313135353a206163636f756e747320616e6420696473206c656e67746860448201527f206d69736d617463680000000000000000000000000000000000000000000000606482015260840161098f565b6000835167ffffffffffffffff8111156110ce576110ce614bdc565b6040519080825280602002602001820160405280156110f7578160200160208202803683370190505b50905060005b845181101561116f5761114285828151811061111b5761111b61543f565b60200260200101518583815181106111355761113561543f565b6020026020010151610915565b8282815181106111545761115461543f565b602090810291909101015261116881615455565b90506110fd565b509392505050565b60055460ff16156111bd5760405162461bcd60e51b815260206004820152601060248201526f14185d5cd8589b194e881c185d5cd95960821b604482015260640161098f565b6000818152601060205260408082208151606081019092528054829082906111e49061538e565b80601f01602080910402602001604051908101604052809291908181526020018280546112109061538e565b801561125d5780601f106112325761010080835404028352916020019161125d565b820191906000526020600020905b81548152906001019060200180831161124057829003601f168201915b505050918352505060018201546001600160a01b031660208201526002909101546040918201528101519091504210156112ff5760405162461bcd60e51b815260206004820152603960248201527f5061636b3a207468652077696e646f7720746f206f70656e207061636b73206860448201527f6173206e6f742073746172746564206f7220636c6f7365642e00000000000000606482015260840161098f565b600e546040516370a0823160e01b81523060048201527f00000000000000000000000000000000000000000000000000000000000000006001600160a01b0316906370a082319060240160206040518083038186803b15801561136157600080fd5b505afa158015611375573d6000803e3d6000fd5b505050506040513d601f19601f820116820180604052508101906113999190615470565b101561140d5760405162461bcd60e51b815260206004820152603460248201527f5061636b3a204e6f7420656e6f756768204c494e4b20746f2066756c66696c6c60448201527f2072616e646f6d6e65737320726571756573742e000000000000000000000000606482015260840161098f565b600061142061141a61259b565b84610915565b116114935760405162461bcd60e51b815260206004820152602f60248201527f5061636b3a2073656e646572206f776e73206e6f207061636b73206f6620746860448201527f6520676976656e207061636b49642e0000000000000000000000000000000000606482015260840161098f565b6000828152601360205260408120906114aa61259b565b6001600160a01b03168152602081019190915260400160002054156115375760405162461bcd60e51b815260206004820152603260248201527f5061636b3a206d757374207761697420666f72207468652070656e64696e672060448201527f7061636b20746f206265206f70656e65642e0000000000000000000000000000606482015260840161098f565b61154a61154261259b565b83600161299b565b600061155a600f54600e54612b23565b9050604051806040016040528084815260200161157561259b565b6001600160a01b03908116909152600083815260126020908152604080832085518155948201516001909501805473ffffffffffffffffffffffffffffffffffffffff19169590941694909417909255858152601390915290812082916115da61259b565b6001600160a01b031681526020810191909152604001600020556115fc61259b565b6001600160a01b0316837fb5c27afec62496e403fae78e07136ae7c58425e8128c7b680ea24dee8c8d94018360405161163791815260200190565b60405180910390a3505050565b61164c61259b565b6001600160a01b0316836001600160a01b0316148061167257506116728361086861259b565b6116d05760405162461bcd60e51b815260206004820152602960248201527f455243313135353a2063616c6c6572206973206e6f74206f776e6572206e6f7260448201526808185c1c1c9bdd995960ba1b606482015260840161098f565b610f6a838383612cb6565b6117077f65d7a28e3265b37a6474929f336521b332c1681b933f6cb9f3376673440d862a6106db61259b565b6117795760405162461bcd60e51b815260206004820152603960248201527f455243313135355072657365744d696e7465725061757365723a206d7573742060448201527f686176652070617573657220726f6c6520746f20706175736500000000000000606482015260840161098f565b611037612f07565b6117ae60405180606001604052806060815260200160006001600160a01b03168152602001600081525090565b600082815260106020526040908190208151606081019092528054829082906117d69061538e565b80601f01602080910402602001604051908101604052809291908181526020018280546118029061538e565b801561184f5780601f106118245761010080835404028352916020019161184f565b820191906000526020600020905b81548152906001019060200180831161183257829003601f168201915b505050918352505060018201546001600160a01b0316602082015260029091015460409091015292915050565b61188960006106db61259b565b6118d55760405162461bcd60e51b815260206004820152601660248201527f6f6e6c79206d6f64756c652061646d696e20726f6c6500000000000000000000604482015260640161098f565b600d805460ff19168215159081179091556040519081527ffb4ba02cee22486df888d7ffb97c6100ec3193781e025cb9a4bc6fc358d626cc90602001610d8e565b600082815260016020526040812061192e9083612f83565b9392505050565b6009546040805163a217fddf60e01b815290516001600160a01b03909216916391d1485491839163a217fddf91600480820192602092909190829003018186803b15801561198257600080fd5b505afa158015611996573d6000803e3d6000fd5b505050506040513d601f19601f820116820180604052508101906119ba9190615470565b6119c261259b565b6040516001600160e01b031960e085901b16815260048101929092526001600160a01b0316602482015260440160206040518083038186803b158015611a0757600080fd5b505afa158015611a1b573d6000803e3d6000fd5b505050506040513d601f19601f82011682018060405250810190611a3f9190615489565b611aa75760405162461bcd60e51b815260206004820152603360248201527f5061636b3a206f6e6c7920612070726f746f636f6c2061646d696e2063616e2060448201527231b0b636103a3434b990333ab731ba34b7b71760691b606482015260840161098f565b610f6a600c83836148c3565b336001600160a01b037f00000000000000000000000000000000000000000000000000000000000000001614611b2b5760405162461bcd60e51b815260206004820152601f60248201527f4f6e6c7920565246436f6f7264696e61746f722063616e2066756c66696c6c00604482015260640161098f565b611b358282612f8f565b5050565b816001600160a01b0316611b4b61259b565b6001600160a01b03161415611bc85760405162461bcd60e51b815260206004820152602960248201527f455243313135353a2073657474696e6720617070726f76616c2073746174757360448201527f20666f722073656c660000000000000000000000000000000000000000000000606482015260840161098f565b8060036000611bd561259b565b6001600160a01b03908116825260208083019390935260409182016000908120918716808252919093529120805460ff191692151592909217909155611c1961259b565b6001600160a01b03167f17307eab39ab6107e8899845ad3d59bd9653f200f220920489ca2b5937696c3183604051611c55911515815260200190565b60405180910390a35050565b60608167ffffffffffffffff811115611c7c57611c7c614bdc565b604051908082528060200260200182016040528015611caf57816020015b6060815260200190600190039081611c9a5790505b50905060005b82811015611d4f57611d1f30858584818110611cd357611cd361543f565b9050602002810190611ce591906154a6565b8080601f01602080910402602001604051908101604052809392919081815260200183838082843760009201919091525061318892505050565b828281518110611d3157611d3161543f565b60200260200101819052508080611d4790615455565b915050611cb5565b5092915050565b6009546040805163a217fddf60e01b815290516001600160a01b03909216916391d1485491839163a217fddf91600480820192602092909190829003018186803b158015611da357600080fd5b505afa158015611db7573d6000803e3d6000fd5b505050506040513d601f19601f82011682018060405250810190611ddb9190615470565b611de361259b565b6040516001600160e01b031960e085901b16815260048101929092526001600160a01b0316602482015260440160206040518083038186803b158015611e2857600080fd5b505afa158015611e3c573d6000803e3d6000fd5b505050506040513d601f19601f82011682018060405250810190611e609190615489565b611ec85760405162461bcd60e51b815260206004820152603360248201527f5061636b3a206f6e6c7920612070726f746f636f6c2061646d696e2063616e2060448201527231b0b636103a3434b990333ab731ba34b7b71760691b606482015260840161098f565b600e55565b601060205260009081526040902080548190611ee89061538e565b80601f0160208091040260200160405190810160405280929190818152602001828054611f149061538e565b8015611f615780601f10611f3657610100808354040283529160200191611f61565b820191906000526020600020905b815481529060010190602001808311611f4457829003601f168201915b50505050600183015460029093015491926001600160a01b031691905083565b6000611f8f60055460ff1690565b15611fcf5760405162461bcd60e51b815260206004820152601060248201526f14185d5cd8589b194e881c185d5cd95960821b604482015260640161098f565b600080600084806020019051810190611fe891906154f4565b9250925092506120048984611ffb61259b565b8a8a87876131ad565b5063bc197c8160e01b98975050505050505050565b600c80546120269061538e565b80601f01602080910402602001604051908101604052809291908181526020018280546120529061538e565b801561209f5780601f106120745761010080835404028352916020019161209f565b820191906000526020600020905b81548152906001019060200180831161208257829003601f168201915b505050505081565b60008181526001602052604081206109bd90613647565b610f798282613651565b6060600c80546120d79061538e565b80601f01602080910402602001604051908101604052809291908181526020018280546121039061538e565b80156121505780601f1061212557610100808354040283529160200191612150565b820191906000526020600020905b81548152906001019060200180831161213357829003601f168201915b5050505050905090565b60405162461bcd60e51b815260206004820152601e60248201527f5061636b3a204d75737420757365206261746368207472616e736665722e0000604482015260009060640161098f565b6121ad61259b565b6001600160a01b0316856001600160a01b031614806121d357506121d38561086861259b565b6122315760405162461bcd60e51b815260206004820152602960248201527f455243313135353a2063616c6c6572206973206e6f74206f776e6572206e6f7260448201526808185c1c1c9bdd995960ba1b606482015260840161098f565b610f418585858585613679565b61224661259b565b6001600160a01b0316836001600160a01b0316148061226c575061226c8361086861259b565b6122ca5760405162461bcd60e51b815260206004820152602960248201527f455243313135353a2063616c6c6572206973206e6f74206f776e6572206e6f7260448201526808185c1c1c9bdd995960ba1b606482015260840161098f565b610f6a83838361299b565b6009546040805163a217fddf60e01b815290516001600160a01b03909216916391d1485491839163a217fddf91600480820192602092909190829003018186803b15801561232257600080fd5b505afa158015612336573d6000803e3d6000fd5b505050506040513d601f19601f8201168201806040525081019061235a9190615470565b61236261259b565b6040516001600160e01b031960e085901b16815260048101929092526001600160a01b0316602482015260440160206040518083038186803b1580156123a757600080fd5b505afa1580156123bb573d6000803e3d6000fd5b505050506040513d601f19601f820116820180604052508101906123df9190615489565b6124475760405162461bcd60e51b815260206004820152603360248201527f5061636b3a206f6e6c7920612070726f746f636f6c2061646d696e2063616e2060448201527231b0b636103a3434b990333ab731ba34b7b71760691b606482015260840161098f565b60405163a9059cbb60e01b81526001600160a01b038381166004830152602482018390526000917f00000000000000000000000000000000000000000000000000000000000000009091169063a9059cbb90604401602060405180830381600087803b1580156124b657600080fd5b505af11580156124ca573d6000803e3d6000fd5b505050506040513d601f19601f820116820180604052508101906124ee9190615489565b905080610f6a5760405162461bcd60e51b815260206004820152601e60248201527f5061636b3a204661696c656420746f207472616e73666572204c494e4b2e0000604482015260640161098f565b6008546000906001600160a01b0316331415612560575060131936013560601c90565b503390565b905090565b90565b611b358282613835565b600061192e836001600160a01b0384166138d4565b3390565b60006109bd82613923565b600061256561253d565b81518351146126075760405162461bcd60e51b815260206004820152602860248201527f455243313135353a2069647320616e6420616d6f756e7473206c656e677468206044820152670dad2e6dac2e8c6d60c31b606482015260840161098f565b6001600160a01b03841661266b5760405162461bcd60e51b815260206004820152602560248201527f455243313135353a207472616e7366657220746f20746865207a65726f206164604482015264647265737360d81b606482015260840161098f565b600061267561259b565b9050612685818787878787613948565b60005b84518110156127b15760008582815181106126a5576126a561543f565b6020026020010151905060008583815181106126c3576126c361543f565b60209081029190910181015160008481526002835260408082206001600160a01b038e1683529093529190912054909150818110156127575760405162461bcd60e51b815260206004820152602a60248201527f455243313135353a20696e73756666696369656e742062616c616e636520666f60448201526939103a3930b739b332b960b11b606482015260840161098f565b60008381526002602090815260408083206001600160a01b038e8116855292528083208585039055908b16825281208054849290612796908490615589565b92505081905550505050806127aa90615455565b9050612688565b50846001600160a01b0316866001600160a01b0316826001600160a01b03167f4a39dc06d4c0dbc64b70af90fd698a233a518aa5d07e595d983b8c0526c8f7fb87876040516128019291906155a1565b60405180910390a4612817818787878787613a78565b505050505050565b6000828152602081905260409020600101546128428161283d61259b565b613c2d565b610f6a8383613835565b61285461259b565b6001600160a01b0316816001600160a01b0316146128da5760405162461bcd60e51b815260206004820152602f60248201527f416363657373436f6e74726f6c3a2063616e206f6e6c792072656e6f756e636560448201527f20726f6c657320666f722073656c660000000000000000000000000000000000606482015260840161098f565b611b358282613cab565b600061192e836001600160a01b038416613d48565b60055460ff1661294b5760405162461bcd60e51b815260206004820152601460248201527f5061757361626c653a206e6f7420706175736564000000000000000000000000604482015260640161098f565b6005805460ff191690557f5db9ee0a495bf2e6ff9c91a7834c1ba4fdd244a5e8aa4e537bd38aeae4b073aa61297e61259b565b6040516001600160a01b03909116815260200160405180910390a1565b6001600160a01b0383166129fd5760405162461bcd60e51b815260206004820152602360248201527f455243313135353a206275726e2066726f6d20746865207a65726f206164647260448201526265737360e81b606482015260840161098f565b6000612a0761259b565b9050612a3781856000612a1987613e3b565b612a2287613e3b565b60405180602001604052806000815250613948565b60008381526002602090815260408083206001600160a01b038816845290915290205482811015612ab65760405162461bcd60e51b8152602060048201526024808201527f455243313135353a206275726e20616d6f756e7420657863656564732062616c604482015263616e636560e01b606482015260840161098f565b60008481526002602090815260408083206001600160a01b03898116808652918452828520888703905582518981529384018890529092908616917fc3d58168c5ae7397731d063d5bbf3d657854427343f4c083240f7aacaa2d0f62910160405180910390a45050505050565b60007f00000000000000000000000000000000000000000000000000000000000000006001600160a01b0316634000aea07f000000000000000000000000000000000000000000000000000000000000000084866000604051602001612b93929190918252602082015260400190565b6040516020818303038152906040526040518463ffffffff1660e01b8152600401612bc0939291906155cf565b602060405180830381600087803b158015612bda57600080fd5b505af1158015612bee573d6000803e3d6000fd5b505050506040513d601f19601f82011682018060405250810190612c129190615489565b50600083815260076020818152604080842054815180840189905280830186905230606082015260808082018390528351808303909101815260a090910190925281519183019190912093879052919052612c6e906001615589565b600085815260076020526040902055612cae8482604080516020808201949094528082019290925280518083038201815260609092019052805191012090565b949350505050565b6001600160a01b038316612d185760405162461bcd60e51b815260206004820152602360248201527f455243313135353a206275726e2066726f6d20746865207a65726f206164647260448201526265737360e81b606482015260840161098f565b8051825114612d7a5760405162461bcd60e51b815260206004820152602860248201527f455243313135353a2069647320616e6420616d6f756e7473206c656e677468206044820152670dad2e6dac2e8c6d60c31b606482015260840161098f565b6000612d8461259b565b9050612da481856000868660405180602001604052806000815250613948565b60005b8351811015612ea8576000848281518110612dc457612dc461543f565b602002602001015190506000848381518110612de257612de261543f565b60209081029190910181015160008481526002835260408082206001600160a01b038c168352909352919091205490915081811015612e6f5760405162461bcd60e51b8152602060048201526024808201527f455243313135353a206275726e20616d6f756e7420657863656564732062616c604482015263616e636560e01b606482015260840161098f565b60009283526002602090815260408085206001600160a01b038b1686529091529092209103905580612ea081615455565b915050612da7565b5060006001600160a01b0316846001600160a01b0316826001600160a01b03167f4a39dc06d4c0dbc64b70af90fd698a233a518aa5d07e595d983b8c0526c8f7fb8686604051612ef99291906155a1565b60405180910390a450505050565b60055460ff1615612f4d5760405162461bcd60e51b815260206004820152601060248201526f14185d5cd8589b194e881c185d5cd95960821b604482015260640161098f565b6005805460ff191660011790557f62e78cea01bee320cd4e420270b5ea74000d11b0c9f74754ebdbfc544b05a25861297e61259b565b600061192e8383613e86565b60008281526012602090815260408083208151808301835281548082526001928301546001600160a01b039081168387018190528288526013875285882081895287528588208890558288526011875285882086516080810188528154909316835294850180548751818a0281018a0190985280885294989397919693959294929385830193909283018282801561304657602002820191906000526020600020905b815481526020019060010190808311613032575b505050505081526020016002820180548060200260200160405190810160405280929190818152602001828054801561309e57602002820191906000526020600020905b81548152602001906001019080831161308a575b5050505050815260200160038201548152505090506000806130c1858885613eb0565b8451604051631759616b60e11b81529294509092506001600160a01b031690632eb2c2d6906130fa9030908890879087906004016155f7565b600060405180830381600087803b15801561311457600080fd5b505af1158015613128573d6000803e3d6000fd5b5050505082600001516001600160a01b0316846001600160a01b0316867f9cae8e743935573869e2fe7223782448d71211235c93076166106782de1c234f8b86604051613176929190615652565b60405180910390a45050505050505050565b606061192e83836040518060600160405280602781526020016159326027913961414a565b60055460ff16156131f35760405162461bcd60e51b815260206004820152601060248201526f14185d5cd8589b194e881c185d5cd95960821b604482015260640161098f565b6040516301ffc9a760e01b8152636cdb3d1360e11b60048201526001600160a01b038616906301ffc9a79060240160206040518083038186803b15801561323957600080fd5b505afa15801561324d573d6000803e3d6000fd5b505050506040513d601f19601f820116820180604052508101906132719190615489565b6132e35760405162461bcd60e51b815260206004820152603260248201527f5061636b3a2072657761726420636f6e747261637420646f6573206e6f74206960448201527f6d706c656d656e742045524320313135352e0000000000000000000000000000606482015260840161098f565b6001600160a01b03871660009081527f0781d7cac9c378efa22a7481e4d4d29704a680ddf504b3bc50b517700ee11e6c602052604090205460ff166133905760405162461bcd60e51b815260206004820152603c60248201527f5061636b3a204f6e6c79206163636f756e74732077697468204d494e5445525f60448201527f524f4c452063616e2063616c6c20746869732066756e6374696f6e2e00000000606482015260840161098f565b60008451116134075760405162461bcd60e51b815260206004820152603260248201527f5061636b3a204d757374206372656174652061207061636b207769746820617460448201527f206c65617374206f6e65207265776172642e0000000000000000000000000000606482015260840161098f565b600061341284614235565b905061341e828261566b565b156134915760405162461bcd60e51b815260206004820152602960248201527f5061636b3a20696e76616c6964206e756d626572206f6620726577617264732060448201527f706572206f70656e2e0000000000000000000000000000000000000000000000606482015260840161098f565b600061349b614281565b905060006134a9848461542b565b9050600060405180606001604052808b81526020018c6001600160a01b0316815260200187426134d99190615589565b9052604080516080810182526001600160a01b038c16815260208082018c90528183018b905260608201899052600087815260108252929092208351805194955091938593919261352e928492910190614947565b50602082810151600180840180546001600160a01b0393841673ffffffffffffffffffffffffffffffffffffffff1991821617909155604095860151600290950194909455600089815260118452949094208551815492169190931617825583810151805185946135a4939085019201906149bb565b50604082015180516135c09160028401916020909101906149bb565b50606082015181600301559050506135e98c85856040518060200160405280600081525061429f565b8b6001600160a01b03168a6001600160a01b0316857fd12628277f61a6acc1f051914551d13cdd8d117e3a5ce322869300fda84be7128686866040516136319392919061567f565b60405180910390a4505050505050505050505050565b60006109bd825490565b60008281526020819052604090206001015461366f8161283d61259b565b610f6a8383613cab565b6001600160a01b0384166136dd5760405162461bcd60e51b815260206004820152602560248201527f455243313135353a207472616e7366657220746f20746865207a65726f206164604482015264647265737360d81b606482015260840161098f565b60006136e761259b565b90506137078187876136f888613e3b565b61370188613e3b565b87613948565b60008481526002602090815260408083206001600160a01b038a1684529091529020548381101561378d5760405162461bcd60e51b815260206004820152602a60248201527f455243313135353a20696e73756666696369656e742062616c616e636520666f60448201526939103a3930b739b332b960b11b606482015260840161098f565b60008581526002602090815260408083206001600160a01b038b81168552925280832087850390559088168252812080548692906137cc908490615589565b909155505060408051868152602081018690526001600160a01b03808916928a821692918616917fc3d58168c5ae7397731d063d5bbf3d657854427343f4c083240f7aacaa2d0f62910160405180910390a461382c8288888888886143a9565b50505050505050565b6000828152602081815260408083206001600160a01b038516845290915290205460ff16611b35576000828152602081815260408083206001600160a01b03851684529091529020805460ff1916600117905561389061259b565b6001600160a01b0316816001600160a01b0316837f2f8788117e7eff1d82e926ec794901d17c78024a50270940304540a733656f0d60405160405180910390a45050565b600081815260018301602052604081205461391b575081546001818101845560008481526020808220909301849055845484825282860190935260409020919091556109bd565b5060006109bd565b60006001600160e01b03198216630271189760e51b14806109bd57506109bd826144b4565b6139568686868686866144f4565b600d5460ff16801561397057506001600160a01b03851615155b801561398457506001600160a01b03841615155b15612817576001600160a01b03851660009081527f7c7a990f752005aea38438cc35abc5417bd322e6c964ec21d52573494225142c602052604090205460ff1680613a0657506001600160a01b03841660009081527f7c7a990f752005aea38438cc35abc5417bd322e6c964ec21d52573494225142c602052604090205460ff165b6128175760405162461bcd60e51b815260206004820152603760248201527f5061636b3a205472616e7366657273206172652072657374726963746564207460448201527f6f205452414e534645525f524f4c4520686f6c64657273000000000000000000606482015260840161098f565b6001600160a01b0384163b156128175760405163bc197c8160e01b81526001600160a01b0385169063bc197c8190613abc90899089908890889088906004016156f9565b602060405180830381600087803b158015613ad657600080fd5b505af1925050508015613b06575060408051601f3d908101601f19168201909252613b039181019061574b565b60015b613bbc57613b12615768565b806308c379a01415613b4c5750613b27615783565b80613b325750613b4e565b8060405162461bcd60e51b815260040161098f9190614af6565b505b60405162461bcd60e51b815260206004820152603460248201527f455243313135353a207472616e7366657220746f206e6f6e204552433131353560448201527f526563656976657220696d706c656d656e746572000000000000000000000000606482015260840161098f565b6001600160e01b0319811663bc197c8160e01b1461382c5760405162461bcd60e51b815260206004820152602860248201527f455243313135353a204552433131353552656365697665722072656a656374656044820152676420746f6b656e7360c01b606482015260840161098f565b6000828152602081815260408083206001600160a01b038516845290915290205460ff16611b3557613c69816001600160a01b0316601461460e565b613c7483602061460e565b604051602001613c8592919061580d565b60408051601f198184030181529082905262461bcd60e51b825261098f91600401614af6565b6000828152602081815260408083206001600160a01b038516845290915290205460ff1615611b35576000828152602081815260408083206001600160a01b03851684529091529020805460ff19169055613d0461259b565b6001600160a01b0316816001600160a01b0316837ff6391f5c32d9c69d2a47ea670b442974b53935d1edc7fd64eb21e047a839171b60405160405180910390a45050565b60008181526001830160205260408120548015613e31576000613d6c60018361588e565b8554909150600090613d809060019061588e565b9050818114613de5576000866000018281548110613da057613da061543f565b9060005260206000200154905080876000018481548110613dc357613dc361543f565b6000918252602080832090910192909255918252600188019052604090208390555b8554869080613df657613df66158a5565b6001900381819060005260206000200160009055905585600101600086815260200190815260200160002060009055600193505050506109bd565b60009150506109bd565b60408051600180825281830190925260609160009190602080830190803683370190505090508281600081518110613e7557613e7561543f565b602090810291909101015292915050565b6000826000018281548110613e9d57613e9d61543f565b9060005260206000200154905092915050565b6060806000613ec28460400151614235565b9050600080856060015167ffffffffffffffff811115613ee457613ee4614bdc565b604051908082528060200260200182016040528015613f0d578160200160208202803683370190505b509450856060015167ffffffffffffffff811115613f2d57613f2d614bdc565b604051908082528060200260200182016040528015613f56578160200160208202803683370190505b50935060005b86606001518110156140c1576040805160208082018b905281830184905282518083038401815260609092019092528051910120613f9b90859061566b565b915060005b8760200151518110156140ae578388604001518281518110613fc457613fc461543f565b6020026020010151613fd69190615589565b8310156140715787602001518181518110613ff357613ff361543f565b602002602001015187838151811061400d5761400d61543f565b602002602001018181525050600186838151811061402d5761402d61543f565b6020026020010181815250506001886040015182815181106140515761405161543f565b60200260200101818151614065919061588e565b905250600093506140ae565b876040015181815181106140875761408761543f565b60200260200101518461409a9190615589565b93506140a7600182615589565b9050613fa0565b506140ba600182615589565b9050613f5c565b5060008881526011602090815260409091208751815473ffffffffffffffffffffffffffffffffffffffff19166001600160a01b0390911617815587820151805189936141159260018501929101906149bb565b50604082015180516141319160028401916020909101906149bb565b5060608201518160030155905050505050935093915050565b6060833b6141c05760405162461bcd60e51b815260206004820152602660248201527f416464726573733a2064656c65676174652063616c6c20746f206e6f6e2d636f60448201527f6e74726163740000000000000000000000000000000000000000000000000000606482015260840161098f565b600080856001600160a01b0316856040516141db91906158bb565b600060405180830381855af49150503d8060008114614216576040519150601f19603f3d011682016040523d82523d6000602084013e61421b565b606091505b509150915061422b8282866147b7565b9695505050505050565b6000805b825181101561427b578281815181106142545761425461543f565b6020026020010151826142679190615589565b9150614274600182615589565b9050614239565b50919050565b600a80549060019060006142958385615589565b9250508190555090565b6001600160a01b0384166142ff5760405162461bcd60e51b815260206004820152602160248201527f455243313135353a206d696e7420746f20746865207a65726f206164647265736044820152607360f81b606482015260840161098f565b600061430961259b565b905061431b816000876136f888613e3b565b60008481526002602090815260408083206001600160a01b03891684529091528120805485929061434d908490615589565b909155505060408051858152602081018590526001600160a01b0380881692600092918516917fc3d58168c5ae7397731d063d5bbf3d657854427343f4c083240f7aacaa2d0f62910160405180910390a4610f41816000878787875b6001600160a01b0384163b156128175760405163f23a6e6160e01b81526001600160a01b0385169063f23a6e61906143ed90899089908890889088906004016158d7565b602060405180830381600087803b15801561440757600080fd5b505af1925050508015614437575060408051601f3d908101601f191682019092526144349181019061574b565b60015b61444357613b12615768565b6001600160e01b0319811663f23a6e6160e01b1461382c5760405162461bcd60e51b815260206004820152602860248201527f455243313135353a204552433131353552656365697665722072656a656374656044820152676420746f6b656e7360c01b606482015260840161098f565b60006001600160e01b03198216636cdb3d1360e11b14806144e557506001600160e01b031982166303a24d0760e21b145b806109bd57506109bd826147f0565b614502868686868686614815565b6001600160a01b0385166145895760005b83518110156145875782818151811061452e5761452e61543f565b60200260200101516006600086848151811061454c5761454c61543f565b6020026020010151815260200190815260200160002060008282546145719190615589565b90915550614580905081615455565b9050614513565b505b6001600160a01b0384166128175760005b835181101561382c578281815181106145b5576145b561543f565b6020026020010151600660008684815181106145d3576145d361543f565b6020026020010151815260200190815260200160002060008282546145f8919061588e565b90915550614607905081615455565b905061459a565b6060600061461d8360026153f6565b614628906002615589565b67ffffffffffffffff81111561464057614640614bdc565b6040519080825280601f01601f19166020018201604052801561466a576020820181803683370190505b509050600360fc1b816000815181106146855761468561543f565b60200101906001600160f81b031916908160001a905350600f60fb1b816001815181106146b4576146b461543f565b60200101906001600160f81b031916908160001a90535060006146d88460026153f6565b6146e3906001615589565b90505b6001811115614768577f303132333435363738396162636465660000000000000000000000000000000085600f16601081106147245761472461543f565b1a60f81b82828151811061473a5761473a61543f565b60200101906001600160f81b031916908160001a90535060049490941c936147618161591a565b90506146e6565b50831561192e5760405162461bcd60e51b815260206004820181905260248201527f537472696e67733a20686578206c656e67746820696e73756666696369656e74604482015260640161098f565b606083156147c657508161192e565b8251156147d65782518084602001fd5b8160405162461bcd60e51b815260040161098f9190614af6565b60006001600160e01b03198216635a05180f60e01b14806109bd57506109bd8261488e565b60055460ff16156128175760405162461bcd60e51b815260206004820152602c60248201527f455243313135355061757361626c653a20746f6b656e207472616e736665722060448201527f7768696c65207061757365640000000000000000000000000000000000000000606482015260840161098f565b60006001600160e01b03198216637965db0b60e01b14806109bd57506301ffc9a760e01b6001600160e01b03198316146109bd565b8280546148cf9061538e565b90600052602060002090601f0160209004810192826148f15760008555614937565b82601f1061490a5782800160ff19823516178555614937565b82800160010185558215614937579182015b8281111561493757823582559160200191906001019061491c565b506149439291506149f5565b5090565b8280546149539061538e565b90600052602060002090601f0160209004810192826149755760008555614937565b82601f1061498e57805160ff1916838001178555614937565b82800160010185558215614937579182015b828111156149375782518255916020019190600101906149a0565b82805482825590600052602060002090810192821561493757916020028201828111156149375782518255916020019190600101906149a0565b5b8082111561494357600081556001016149f6565b6001600160a01b0381168114614a1f57600080fd5b50565b60008060408385031215614a3557600080fd5b8235614a4081614a0a565b946020939093013593505050565b6001600160e01b031981168114614a1f57600080fd5b600060208284031215614a7657600080fd5b813561192e81614a4e565b600060208284031215614a9357600080fd5b5035919050565b60005b83811015614ab5578181015183820152602001614a9d565b83811115614ac4576000848401525b50505050565b60008151808452614ae2816020860160208601614a9a565b601f01601f19169290920160200192915050565b60208152600061192e6020830184614aca565b6000815160608452614b1e6060850182614aca565b90506001600160a01b036020840151166020850152604083015160408501528091505092915050565b600081518084526020808501945080840160005b83811015614b7757815187529582019590820190600101614b5b565b509495945050505050565b60a081526000614b9560a0830188614b09565b8660208401526001600160a01b03861660408401528281036060840152614bbc8186614b47565b90508281036080840152614bd08185614b47565b98975050505050505050565b634e487b7160e01b600052604160045260246000fd5b601f8201601f1916810167ffffffffffffffff81118282101715614c1857614c18614bdc565b6040525050565b600067ffffffffffffffff821115614c3957614c39614bdc565b50601f01601f191660200190565b600082601f830112614c5857600080fd5b8135614c6381614c1f565b604051614c708282614bf2565b828152856020848701011115614c8557600080fd5b82602086016020830137600092810160200192909252509392505050565b60008060008060808587031215614cb957600080fd5b8435614cc481614a0a565b93506020850135614cd481614a0a565b925060408501359150606085013567ffffffffffffffff811115614cf757600080fd5b614d0387828801614c47565b91505092959194509250565b600067ffffffffffffffff821115614d2957614d29614bdc565b5060051b60200190565b600082601f830112614d4457600080fd5b81356020614d5182614d0f565b604051614d5e8282614bf2565b83815260059390931b8501820192828101915086841115614d7e57600080fd5b8286015b84811015614d995780358352918301918301614d82565b509695505050505050565b60008060008060808587031215614dba57600080fd5b8435614dc581614a0a565b9350602085013567ffffffffffffffff80821115614de257600080fd5b614dee88838901614d33565b94506040870135915080821115614e0457600080fd5b614e1088838901614d33565b93506060870135915080821115614e2657600080fd5b50614d0387828801614c47565b60008060408385031215614e4657600080fd5b50508035926020909101359150565b600080600080600060a08688031215614e6d57600080fd5b8535614e7881614a0a565b94506020860135614e8881614a0a565b9350604086013567ffffffffffffffff80821115614ea557600080fd5b614eb189838a01614d33565b94506060880135915080821115614ec757600080fd5b614ed389838a01614d33565b93506080880135915080821115614ee957600080fd5b50614ef688828901614c47565b9150509295509295909350565b60008060408385031215614f1657600080fd5b823591506020830135614f2881614a0a565b809150509250929050565b60008060408385031215614f4657600080fd5b823567ffffffffffffffff80821115614f5e57600080fd5b818501915085601f830112614f7257600080fd5b81356020614f7f82614d0f565b604051614f8c8282614bf2565b83815260059390931b8501820192828101915089841115614fac57600080fd5b948201945b83861015614fd3578535614fc481614a0a565b82529482019490820190614fb1565b96505086013592505080821115614fe957600080fd5b50614ff685828601614d33565b9150509250929050565b60208152600061192e6020830184614b47565b60006020828403121561502557600080fd5b813561192e81614a0a565b60008060006060848603121561504557600080fd5b833561505081614a0a565b9250602084013567ffffffffffffffff8082111561506d57600080fd5b61507987838801614d33565b9350604086013591508082111561508f57600080fd5b5061509c86828701614d33565b9150509250925092565b600080600080608085870312156150bc57600080fd5b84356150c781614a0a565b93506020850135925060408501359150606085013567ffffffffffffffff811115614cf757600080fd5b60208152600061192e6020830184614b09565b8015158114614a1f57600080fd5b60006020828403121561512457600080fd5b813561192e81615104565b6000806020838503121561514257600080fd5b823567ffffffffffffffff8082111561515a57600080fd5b818501915085601f83011261516e57600080fd5b81358181111561517d57600080fd5b86602082850101111561518f57600080fd5b60209290920196919550909350505050565b600080604083850312156151b457600080fd5b82356151bf81614a0a565b91506020830135614f2881615104565b600080602083850312156151e257600080fd5b823567ffffffffffffffff808211156151fa57600080fd5b818501915085601f83011261520e57600080fd5b81358181111561521d57600080fd5b8660208260051b850101111561518f57600080fd5b6000602080830181845280855180835260408601915060408160051b870101925083870160005b8281101561528757603f19888603018452615275858351614aca565b94509285019290850190600101615259565b5092979650505050505050565b6060815260006152a76060830186614aca565b6001600160a01b039490941660208301525060400152919050565b600080604083850312156152d557600080fd5b82356152e081614a0a565b91506020830135614f2881614a0a565b600080600080600060a0868803121561530857600080fd5b853561531381614a0a565b9450602086013561532381614a0a565b93506040860135925060608601359150608086013567ffffffffffffffff81111561534d57600080fd5b614ef688828901614c47565b60008060006060848603121561536e57600080fd5b833561537981614a0a565b95602085013595506040909401359392505050565b600181811c908216806153a257607f821691505b6020821081141561427b57634e487b7160e01b600052602260045260246000fd5b6000602082840312156153d557600080fd5b815161192e81614a0a565b634e487b7160e01b600052601160045260246000fd5b6000816000190483118215151615615410576154106153e0565b500290565b634e487b7160e01b600052601260045260246000fd5b60008261543a5761543a615415565b500490565b634e487b7160e01b600052603260045260246000fd5b6000600019821415615469576154696153e0565b5060010190565b60006020828403121561548257600080fd5b5051919050565b60006020828403121561549b57600080fd5b815161192e81615104565b6000808335601e198436030181126154bd57600080fd5b83018035915067ffffffffffffffff8211156154d857600080fd5b6020019150368190038213156154ed57600080fd5b9250929050565b60008060006060848603121561550957600080fd5b835167ffffffffffffffff81111561552057600080fd5b8401601f8101861361553157600080fd5b805161553c81614c1f565b6040516155498282614bf2565b82815288602084860101111561555e57600080fd5b61556f836020830160208701614a9a565b602088015160409098015190999798509695505050505050565b6000821982111561559c5761559c6153e0565b500190565b6040815260006155b46040830185614b47565b82810360208401526155c68185614b47565b95945050505050565b6001600160a01b03841681528260208201526060604082015260006155c66060830184614aca565b60006001600160a01b03808716835280861660208401525060a0604083015261562360a0830185614b47565b82810360608401526156358185614b47565b838103608090940193909352505060008152602001949350505050565b828152604060208201526000612cae6040830184614b47565b60008261567a5761567a615415565b500690565b8381526060602082015260006156986060830185614b09565b82810360408401526001600160a01b0384511681526020840151608060208301526156c66080830182614b47565b9050604085015182820360408401526156df8282614b47565b915050606085015160608301528092505050949350505050565b60006001600160a01b03808816835280871660208401525060a0604083015261572560a0830186614b47565b82810360608401526157378186614b47565b90508281036080840152614bd08185614aca565b60006020828403121561575d57600080fd5b815161192e81614a4e565b600060033d111561256a5760046000803e5060005160e01c90565b600060443d10156157915790565b6040516003193d81016004833e81513d67ffffffffffffffff81602484011181841117156157c157505050505090565b82850191508151818111156157d95750505050505090565b843d87010160208285010111156157f35750505050505090565b61580260208286010187614bf2565b509095945050505050565b7f416363657373436f6e74726f6c3a206163636f756e7420000000000000000000815260008351615845816017850160208801614a9a565b7f206973206d697373696e6720726f6c65200000000000000000000000000000006017918401918201528351615882816028840160208801614a9a565b01602801949350505050565b6000828210156158a0576158a06153e0565b500390565b634e487b7160e01b600052603160045260246000fd5b600082516158cd818460208701614a9a565b9190910192915050565b60006001600160a01b03808816835280871660208401525084604083015283606083015260a0608083015261590f60a0830184614aca565b979650505050505050565b600081615929576159296153e0565b50600019019056fe416464726573733a206c6f772d6c6576656c2064656c65676174652063616c6c206661696c6564a164736f6c6343000809000a",
  "linkReferences": {},
  "deployedLinkReferences": {}
}