{
  "_format": "hh-sol-artifact-1",
  "contractName": "Pack",
  "sourceName": "contracts/Pack.sol",
  "abi": [
    {
      "inputs": [
        {
          "internalType": "address payable",
          "name": "_controlCenter",
          "type": "address"
        },
        {
          "internalType": "string",
          "name": "_uri",
          "type": "string"
        },
        {
          "internalType": "address",
          "name": "_vrfCoordinator",
          "type": "address"
        },
        {
          "internalType": "address",
          "name": "_linkToken",
          "type": "address"
        },
        {
          "internalType": "bytes32",
          "name": "_keyHash",
          "type": "bytes32"
        },
        {
          "internalType": "uint256",
          "name": "_fees",
          "type": "uint256"
        },
        {
          "internalType": "address",
          "name": "_trustedForwarder",
          "type": "address"
        }
      ],
      "stateMutability": "nonpayable",
      "type": "constructor"
    },
    {
      "anonymous": false,
      "inputs": [
        {
          "indexed": true,
          "internalType": "address",
          "name": "account",
          "type": "address"
        },
        {
          "indexed": true,
          "internalType": "address",
          "name": "operator",
          "type": "address"
        },
        {
          "indexed": false,
          "internalType": "bool",
          "name": "approved",
          "type": "bool"
        }
      ],
      "name": "ApprovalForAll",
      "type": "event"
    },
    {
      "anonymous": false,
      "inputs": [
        {
          "indexed": true,
          "internalType": "uint256",
          "name": "packId",
          "type": "uint256"
        },
        {
          "indexed": true,
          "internalType": "address",
          "name": "rewardContract",
          "type": "address"
        },
        {
          "indexed": true,
          "internalType": "address",
          "name": "creator",
          "type": "address"
        },
        {
          "components": [
            {
              "internalType": "string",
              "name": "uri",
              "type": "string"
            },
            {
              "internalType": "address",
              "name": "creator",
              "type": "address"
            },
            {
              "internalType": "uint256",
              "name": "currentSupply",
              "type": "uint256"
            },
            {
              "internalType": "uint256",
              "name": "openStart",
              "type": "uint256"
            },
            {
              "internalType": "uint256",
              "name": "openEnd",
              "type": "uint256"
            }
          ],
          "indexed": false,
          "internalType": "struct Pack.PackState",
          "name": "packState",
          "type": "tuple"
        },
        {
          "components": [
            {
              "internalType": "address",
              "name": "source",
              "type": "address"
            },
            {
              "internalType": "uint256[]",
              "name": "tokenIds",
              "type": "uint256[]"
            },
            {
              "internalType": "uint256[]",
              "name": "amountsPacked",
              "type": "uint256[]"
            },
            {
              "internalType": "uint256",
              "name": "rewardsPerOpen",
              "type": "uint256"
            }
          ],
          "indexed": false,
          "internalType": "struct Pack.Rewards",
          "name": "rewards",
          "type": "tuple"
        }
      ],
      "name": "PackCreated",
      "type": "event"
    },
    {
      "anonymous": false,
      "inputs": [
        {
          "indexed": true,
          "internalType": "uint256",
          "name": "packId",
          "type": "uint256"
        },
        {
          "indexed": true,
          "internalType": "address",
          "name": "opener",
          "type": "address"
        },
        {
          "indexed": false,
          "internalType": "bytes32",
          "name": "requestId",
          "type": "bytes32"
        },
        {
          "indexed": true,
          "internalType": "address",
          "name": "rewardContract",
          "type": "address"
        },
        {
          "indexed": false,
          "internalType": "uint256[]",
          "name": "rewardIds",
          "type": "uint256[]"
        }
      ],
      "name": "PackOpenFulfilled",
      "type": "event"
    },
    {
      "anonymous": false,
      "inputs": [
        {
          "indexed": true,
          "internalType": "uint256",
          "name": "packId",
          "type": "uint256"
        },
        {
          "indexed": true,
          "internalType": "address",
          "name": "opener",
          "type": "address"
        },
        {
          "indexed": false,
          "internalType": "bytes32",
          "name": "requestId",
          "type": "bytes32"
        }
      ],
      "name": "PackOpenRequest",
      "type": "event"
    },
    {
      "anonymous": false,
      "inputs": [
        {
          "indexed": false,
          "internalType": "uint256",
          "name": "royaltyBps",
          "type": "uint256"
        }
      ],
      "name": "PackRoyaltyUpdated",
      "type": "event"
    },
    {
      "anonymous": false,
      "inputs": [
        {
          "indexed": false,
          "internalType": "address",
          "name": "account",
          "type": "address"
        }
      ],
      "name": "Paused",
      "type": "event"
    },
    {
      "anonymous": false,
      "inputs": [
        {
          "indexed": true,
          "internalType": "bytes32",
          "name": "role",
          "type": "bytes32"
        },
        {
          "indexed": true,
          "internalType": "bytes32",
          "name": "previousAdminRole",
          "type": "bytes32"
        },
        {
          "indexed": true,
          "internalType": "bytes32",
          "name": "newAdminRole",
          "type": "bytes32"
        }
      ],
      "name": "RoleAdminChanged",
      "type": "event"
    },
    {
      "anonymous": false,
      "inputs": [
        {
          "indexed": true,
          "internalType": "bytes32",
          "name": "role",
          "type": "bytes32"
        },
        {
          "indexed": true,
          "internalType": "address",
          "name": "account",
          "type": "address"
        },
        {
          "indexed": true,
          "internalType": "address",
          "name": "sender",
          "type": "address"
        }
      ],
      "name": "RoleGranted",
      "type": "event"
    },
    {
      "anonymous": false,
      "inputs": [
        {
          "indexed": true,
          "internalType": "bytes32",
          "name": "role",
          "type": "bytes32"
        },
        {
          "indexed": true,
          "internalType": "address",
          "name": "account",
          "type": "address"
        },
        {
          "indexed": true,
          "internalType": "address",
          "name": "sender",
          "type": "address"
        }
      ],
      "name": "RoleRevoked",
      "type": "event"
    },
    {
      "anonymous": false,
      "inputs": [
        {
          "indexed": true,
          "internalType": "address",
          "name": "operator",
          "type": "address"
        },
        {
          "indexed": true,
          "internalType": "address",
          "name": "from",
          "type": "address"
        },
        {
          "indexed": true,
          "internalType": "address",
          "name": "to",
          "type": "address"
        },
        {
          "indexed": false,
          "internalType": "uint256[]",
          "name": "ids",
          "type": "uint256[]"
        },
        {
          "indexed": false,
          "internalType": "uint256[]",
          "name": "values",
          "type": "uint256[]"
        }
      ],
      "name": "TransferBatch",
      "type": "event"
    },
    {
      "anonymous": false,
      "inputs": [
        {
          "indexed": true,
          "internalType": "address",
          "name": "operator",
          "type": "address"
        },
        {
          "indexed": true,
          "internalType": "address",
          "name": "from",
          "type": "address"
        },
        {
          "indexed": true,
          "internalType": "address",
          "name": "to",
          "type": "address"
        },
        {
          "indexed": false,
          "internalType": "uint256",
          "name": "id",
          "type": "uint256"
        },
        {
          "indexed": false,
          "internalType": "uint256",
          "name": "value",
          "type": "uint256"
        }
      ],
      "name": "TransferSingle",
      "type": "event"
    },
    {
      "anonymous": false,
      "inputs": [
        {
          "indexed": false,
          "internalType": "string",
          "name": "value",
          "type": "string"
        },
        {
          "indexed": true,
          "internalType": "uint256",
          "name": "id",
          "type": "uint256"
        }
      ],
      "name": "URI",
      "type": "event"
    },
    {
      "anonymous": false,
      "inputs": [
        {
          "indexed": false,
          "internalType": "address",
          "name": "account",
          "type": "address"
        }
      ],
      "name": "Unpaused",
      "type": "event"
    },
    {
      "inputs": [],
      "name": "DEFAULT_ADMIN_ROLE",
      "outputs": [
        {
          "internalType": "bytes32",
          "name": "",
          "type": "bytes32"
        }
      ],
      "stateMutability": "view",
      "type": "function"
    },
    {
      "inputs": [],
      "name": "MINTER_ROLE",
      "outputs": [
        {
          "internalType": "bytes32",
          "name": "",
          "type": "bytes32"
        }
      ],
      "stateMutability": "view",
      "type": "function"
    },
    {
      "inputs": [],
      "name": "PAUSER_ROLE",
      "outputs": [
        {
          "internalType": "bytes32",
          "name": "",
          "type": "bytes32"
        }
      ],
      "stateMutability": "view",
      "type": "function"
    },
    {
      "inputs": [],
      "name": "_contractURI",
      "outputs": [
        {
          "internalType": "string",
          "name": "",
          "type": "string"
        }
      ],
      "stateMutability": "view",
      "type": "function"
    },
    {
      "inputs": [
        {
          "internalType": "address",
          "name": "account",
          "type": "address"
        },
        {
          "internalType": "uint256",
          "name": "id",
          "type": "uint256"
        }
      ],
      "name": "balanceOf",
      "outputs": [
        {
          "internalType": "uint256",
          "name": "",
          "type": "uint256"
        }
      ],
      "stateMutability": "view",
      "type": "function"
    },
    {
      "inputs": [
        {
          "internalType": "address[]",
          "name": "accounts",
          "type": "address[]"
        },
        {
          "internalType": "uint256[]",
          "name": "ids",
          "type": "uint256[]"
        }
      ],
      "name": "balanceOfBatch",
      "outputs": [
        {
          "internalType": "uint256[]",
          "name": "",
          "type": "uint256[]"
        }
      ],
      "stateMutability": "view",
      "type": "function"
    },
    {
      "inputs": [
        {
          "internalType": "address",
          "name": "account",
          "type": "address"
        },
        {
          "internalType": "uint256",
          "name": "id",
          "type": "uint256"
        },
        {
          "internalType": "uint256",
          "name": "value",
          "type": "uint256"
        }
      ],
      "name": "burn",
      "outputs": [],
      "stateMutability": "nonpayable",
      "type": "function"
    },
    {
      "inputs": [
        {
          "internalType": "address",
          "name": "account",
          "type": "address"
        },
        {
          "internalType": "uint256[]",
          "name": "ids",
          "type": "uint256[]"
        },
        {
          "internalType": "uint256[]",
          "name": "values",
          "type": "uint256[]"
        }
      ],
      "name": "burnBatch",
      "outputs": [],
      "stateMutability": "nonpayable",
      "type": "function"
    },
    {
      "inputs": [],
      "name": "contractURI",
      "outputs": [
        {
          "internalType": "string",
          "name": "",
          "type": "string"
        }
      ],
      "stateMutability": "view",
      "type": "function"
    },
    {
      "inputs": [
        {
          "internalType": "uint256",
          "name": "_packId",
          "type": "uint256"
        }
      ],
      "name": "creator",
      "outputs": [
        {
          "internalType": "address",
          "name": "",
          "type": "address"
        }
      ],
      "stateMutability": "view",
      "type": "function"
    },
    {
      "inputs": [
        {
          "internalType": "uint256",
          "name": "",
          "type": "uint256"
        },
        {
          "internalType": "address",
          "name": "",
          "type": "address"
        }
      ],
      "name": "currentRequestId",
      "outputs": [
        {
          "internalType": "bytes32",
          "name": "",
          "type": "bytes32"
        }
      ],
      "stateMutability": "view",
      "type": "function"
    },
    {
      "inputs": [
        {
          "internalType": "uint256",
          "name": "_packId",
          "type": "uint256"
        }
      ],
      "name": "getPack",
      "outputs": [
        {
          "components": [
            {
              "internalType": "string",
              "name": "uri",
              "type": "string"
            },
            {
              "internalType": "address",
              "name": "creator",
              "type": "address"
            },
            {
              "internalType": "uint256",
              "name": "currentSupply",
              "type": "uint256"
            },
            {
              "internalType": "uint256",
              "name": "openStart",
              "type": "uint256"
            },
            {
              "internalType": "uint256",
              "name": "openEnd",
              "type": "uint256"
            }
          ],
          "internalType": "struct Pack.PackState",
          "name": "pack",
          "type": "tuple"
        }
      ],
      "stateMutability": "view",
      "type": "function"
    },
    {
      "inputs": [
        {
          "internalType": "uint256",
          "name": "_packId",
          "type": "uint256"
        }
      ],
      "name": "getPackWithRewards",
      "outputs": [
        {
          "components": [
            {
              "internalType": "string",
              "name": "uri",
              "type": "string"
            },
            {
              "internalType": "address",
              "name": "creator",
              "type": "address"
            },
            {
              "internalType": "uint256",
              "name": "currentSupply",
              "type": "uint256"
            },
            {
              "internalType": "uint256",
              "name": "openStart",
              "type": "uint256"
            },
            {
              "internalType": "uint256",
              "name": "openEnd",
              "type": "uint256"
            }
          ],
          "internalType": "struct Pack.PackState",
          "name": "pack",
          "type": "tuple"
        },
        {
          "internalType": "address",
          "name": "source",
          "type": "address"
        },
        {
          "internalType": "uint256[]",
          "name": "tokenIds",
          "type": "uint256[]"
        },
        {
          "internalType": "uint256[]",
          "name": "amountsPacked",
          "type": "uint256[]"
        }
      ],
      "stateMutability": "view",
      "type": "function"
    },
    {
      "inputs": [
        {
          "internalType": "bytes32",
          "name": "role",
          "type": "bytes32"
        }
      ],
      "name": "getRoleAdmin",
      "outputs": [
        {
          "internalType": "bytes32",
          "name": "",
          "type": "bytes32"
        }
      ],
      "stateMutability": "view",
      "type": "function"
    },
    {
      "inputs": [
        {
          "internalType": "bytes32",
          "name": "role",
          "type": "bytes32"
        },
        {
          "internalType": "uint256",
          "name": "index",
          "type": "uint256"
        }
      ],
      "name": "getRoleMember",
      "outputs": [
        {
          "internalType": "address",
          "name": "",
          "type": "address"
        }
      ],
      "stateMutability": "view",
      "type": "function"
    },
    {
      "inputs": [
        {
          "internalType": "bytes32",
          "name": "role",
          "type": "bytes32"
        }
      ],
      "name": "getRoleMemberCount",
      "outputs": [
        {
          "internalType": "uint256",
          "name": "",
          "type": "uint256"
        }
      ],
      "stateMutability": "view",
      "type": "function"
    },
    {
      "inputs": [
        {
          "internalType": "bytes32",
          "name": "role",
          "type": "bytes32"
        },
        {
          "internalType": "address",
          "name": "account",
          "type": "address"
        }
      ],
      "name": "grantRole",
      "outputs": [],
      "stateMutability": "nonpayable",
      "type": "function"
    },
    {
      "inputs": [
        {
          "internalType": "bytes32",
          "name": "role",
          "type": "bytes32"
        },
        {
          "internalType": "address",
          "name": "account",
          "type": "address"
        }
      ],
      "name": "hasRole",
      "outputs": [
        {
          "internalType": "bool",
          "name": "",
          "type": "bool"
        }
      ],
      "stateMutability": "view",
      "type": "function"
    },
    {
      "inputs": [
        {
          "internalType": "address",
          "name": "account",
          "type": "address"
        },
        {
          "internalType": "address",
          "name": "operator",
          "type": "address"
        }
      ],
      "name": "isApprovedForAll",
      "outputs": [
        {
          "internalType": "bool",
          "name": "",
          "type": "bool"
        }
      ],
      "stateMutability": "view",
      "type": "function"
    },
    {
      "inputs": [
        {
          "internalType": "address",
          "name": "forwarder",
          "type": "address"
        }
      ],
      "name": "isTrustedForwarder",
      "outputs": [
        {
          "internalType": "bool",
          "name": "",
          "type": "bool"
        }
      ],
      "stateMutability": "view",
      "type": "function"
    },
    {
      "inputs": [
        {
          "internalType": "address",
          "name": "to",
          "type": "address"
        },
        {
          "internalType": "uint256",
          "name": "id",
          "type": "uint256"
        },
        {
          "internalType": "uint256",
          "name": "amount",
          "type": "uint256"
        },
        {
          "internalType": "bytes",
          "name": "data",
          "type": "bytes"
        }
      ],
      "name": "mint",
      "outputs": [],
      "stateMutability": "nonpayable",
      "type": "function"
    },
    {
      "inputs": [
        {
          "internalType": "address",
          "name": "to",
          "type": "address"
        },
        {
          "internalType": "uint256[]",
          "name": "ids",
          "type": "uint256[]"
        },
        {
          "internalType": "uint256[]",
          "name": "amounts",
          "type": "uint256[]"
        },
        {
          "internalType": "bytes",
          "name": "data",
          "type": "bytes"
        }
      ],
      "name": "mintBatch",
      "outputs": [],
      "stateMutability": "nonpayable",
      "type": "function"
    },
    {
      "inputs": [],
      "name": "nextTokenId",
      "outputs": [
        {
          "internalType": "uint256",
          "name": "",
          "type": "uint256"
        }
      ],
      "stateMutability": "view",
      "type": "function"
    },
    {
      "inputs": [
        {
          "internalType": "address",
          "name": "",
          "type": "address"
        },
        {
          "internalType": "address",
          "name": "_from",
          "type": "address"
        },
        {
          "internalType": "uint256[]",
          "name": "_ids",
          "type": "uint256[]"
        },
        {
          "internalType": "uint256[]",
          "name": "_values",
          "type": "uint256[]"
        },
        {
          "internalType": "bytes",
          "name": "_data",
          "type": "bytes"
        }
      ],
      "name": "onERC1155BatchReceived",
      "outputs": [
        {
          "internalType": "bytes4",
          "name": "",
          "type": "bytes4"
        }
      ],
      "stateMutability": "nonpayable",
      "type": "function"
    },
    {
      "inputs": [
        {
          "internalType": "address",
          "name": "",
          "type": "address"
        },
        {
          "internalType": "address",
          "name": "",
          "type": "address"
        },
        {
          "internalType": "uint256",
          "name": "",
          "type": "uint256"
        },
        {
          "internalType": "uint256",
          "name": "",
          "type": "uint256"
        },
        {
          "internalType": "bytes",
          "name": "",
          "type": "bytes"
        }
      ],
      "name": "onERC1155Received",
      "outputs": [
        {
          "internalType": "bytes4",
          "name": "",
          "type": "bytes4"
        }
      ],
      "stateMutability": "nonpayable",
      "type": "function"
    },
    {
      "inputs": [
        {
          "internalType": "uint256",
          "name": "_packId",
          "type": "uint256"
        }
      ],
      "name": "openPack",
      "outputs": [],
      "stateMutability": "nonpayable",
      "type": "function"
    },
    {
      "inputs": [],
      "name": "packRoyaltyBps",
      "outputs": [
        {
          "internalType": "uint256",
          "name": "",
          "type": "uint256"
        }
      ],
      "stateMutability": "view",
      "type": "function"
    },
    {
      "inputs": [
        {
          "internalType": "uint256",
          "name": "",
          "type": "uint256"
        }
      ],
      "name": "packs",
      "outputs": [
        {
          "internalType": "string",
          "name": "uri",
          "type": "string"
        },
        {
          "internalType": "address",
          "name": "creator",
          "type": "address"
        },
        {
          "internalType": "uint256",
          "name": "currentSupply",
          "type": "uint256"
        },
        {
          "internalType": "uint256",
          "name": "openStart",
          "type": "uint256"
        },
        {
          "internalType": "uint256",
          "name": "openEnd",
          "type": "uint256"
        }
      ],
      "stateMutability": "view",
      "type": "function"
    },
    {
      "inputs": [],
      "name": "pause",
      "outputs": [],
      "stateMutability": "nonpayable",
      "type": "function"
    },
    {
      "inputs": [],
      "name": "paused",
      "outputs": [
        {
          "internalType": "bool",
          "name": "",
          "type": "bool"
        }
      ],
      "stateMutability": "view",
      "type": "function"
    },
    {
      "inputs": [
        {
          "internalType": "bytes32",
          "name": "",
          "type": "bytes32"
        }
      ],
      "name": "randomnessRequests",
      "outputs": [
        {
          "internalType": "uint256",
          "name": "packId",
          "type": "uint256"
        },
        {
          "internalType": "address",
          "name": "opener",
          "type": "address"
        }
      ],
      "stateMutability": "view",
      "type": "function"
    },
    {
      "inputs": [
        {
          "internalType": "bytes32",
          "name": "requestId",
          "type": "bytes32"
        },
        {
          "internalType": "uint256",
          "name": "randomness",
          "type": "uint256"
        }
      ],
      "name": "rawFulfillRandomness",
      "outputs": [],
      "stateMutability": "nonpayable",
      "type": "function"
    },
    {
      "inputs": [
        {
          "internalType": "bytes32",
          "name": "role",
          "type": "bytes32"
        },
        {
          "internalType": "address",
          "name": "account",
          "type": "address"
        }
      ],
      "name": "renounceRole",
      "outputs": [],
      "stateMutability": "nonpayable",
      "type": "function"
    },
    {
      "inputs": [
        {
          "internalType": "bytes32",
          "name": "role",
          "type": "bytes32"
        },
        {
          "internalType": "address",
          "name": "account",
          "type": "address"
        }
      ],
      "name": "revokeRole",
      "outputs": [],
      "stateMutability": "nonpayable",
      "type": "function"
    },
    {
      "inputs": [
        {
          "internalType": "uint256",
          "name": "",
          "type": "uint256"
        }
      ],
      "name": "rewards",
      "outputs": [
        {
          "internalType": "address",
          "name": "source",
          "type": "address"
        },
        {
          "internalType": "uint256",
          "name": "rewardsPerOpen",
          "type": "uint256"
        }
      ],
      "stateMutability": "view",
      "type": "function"
    },
    {
      "inputs": [
        {
          "internalType": "uint256",
          "name": "tokenId",
          "type": "uint256"
        },
        {
          "internalType": "uint256",
          "name": "salePrice",
          "type": "uint256"
        }
      ],
      "name": "royaltyInfo",
      "outputs": [
        {
          "internalType": "address",
          "name": "receiver",
          "type": "address"
        },
        {
          "internalType": "uint256",
          "name": "royaltyAmount",
          "type": "uint256"
        }
      ],
      "stateMutability": "view",
      "type": "function"
    },
    {
      "inputs": [
        {
          "internalType": "address",
          "name": "from",
          "type": "address"
        },
        {
          "internalType": "address",
          "name": "to",
          "type": "address"
        },
        {
          "internalType": "uint256[]",
          "name": "ids",
          "type": "uint256[]"
        },
        {
          "internalType": "uint256[]",
          "name": "amounts",
          "type": "uint256[]"
        },
        {
          "internalType": "bytes",
          "name": "data",
          "type": "bytes"
        }
      ],
      "name": "safeBatchTransferFrom",
      "outputs": [],
      "stateMutability": "nonpayable",
      "type": "function"
    },
    {
      "inputs": [
        {
          "internalType": "address",
          "name": "from",
          "type": "address"
        },
        {
          "internalType": "address",
          "name": "to",
          "type": "address"
        },
        {
          "internalType": "uint256",
          "name": "id",
          "type": "uint256"
        },
        {
          "internalType": "uint256",
          "name": "amount",
          "type": "uint256"
        },
        {
          "internalType": "bytes",
          "name": "data",
          "type": "bytes"
        }
      ],
      "name": "safeTransferFrom",
      "outputs": [],
      "stateMutability": "nonpayable",
      "type": "function"
    },
    {
      "inputs": [
        {
          "internalType": "address",
          "name": "operator",
          "type": "address"
        },
        {
          "internalType": "bool",
          "name": "approved",
          "type": "bool"
        }
      ],
      "name": "setApprovalForAll",
      "outputs": [],
      "stateMutability": "nonpayable",
      "type": "function"
    },
    {
      "inputs": [
        {
          "internalType": "uint256",
          "name": "_newFees",
          "type": "uint256"
        }
      ],
      "name": "setChainlinkFees",
      "outputs": [],
      "stateMutability": "nonpayable",
      "type": "function"
    },
    {
      "inputs": [
        {
          "internalType": "string",
          "name": "_URI",
          "type": "string"
        }
      ],
      "name": "setContractURI",
      "outputs": [],
      "stateMutability": "nonpayable",
      "type": "function"
    },
    {
      "inputs": [
        {
          "internalType": "uint256",
          "name": "_royaltyBps",
          "type": "uint256"
        }
      ],
      "name": "setPackRoyaltyBps",
      "outputs": [],
      "stateMutability": "nonpayable",
      "type": "function"
    },
    {
      "inputs": [
        {
          "internalType": "bytes4",
          "name": "interfaceId",
          "type": "bytes4"
        }
      ],
      "name": "supportsInterface",
      "outputs": [
        {
          "internalType": "bool",
          "name": "",
          "type": "bool"
        }
      ],
      "stateMutability": "view",
      "type": "function"
    },
    {
      "inputs": [
        {
          "internalType": "uint256",
          "name": "_id",
          "type": "uint256"
        }
      ],
      "name": "tokenURI",
      "outputs": [
        {
          "internalType": "string",
          "name": "",
          "type": "string"
        }
      ],
      "stateMutability": "view",
      "type": "function"
    },
    {
      "inputs": [
        {
          "internalType": "address",
          "name": "_to",
          "type": "address"
        },
        {
          "internalType": "uint256",
          "name": "_amount",
          "type": "uint256"
        }
      ],
      "name": "transferLink",
      "outputs": [],
      "stateMutability": "nonpayable",
      "type": "function"
    },
    {
      "inputs": [],
      "name": "unpause",
      "outputs": [],
      "stateMutability": "nonpayable",
      "type": "function"
    },
    {
      "inputs": [
        {
          "internalType": "uint256",
          "name": "_id",
          "type": "uint256"
        }
      ],
      "name": "uri",
      "outputs": [
        {
          "internalType": "string",
          "name": "",
          "type": "string"
        }
      ],
      "stateMutability": "view",
      "type": "function"
    },
    {
      "inputs": [],
      "name": "vrfFees",
      "outputs": [
        {
          "internalType": "uint256",
          "name": "",
          "type": "uint256"
        }
      ],
      "stateMutability": "view",
      "type": "function"
    },
    {
      "inputs": [],
      "name": "vrfKeyHash",
      "outputs": [
        {
          "internalType": "bytes32",
          "name": "",
          "type": "bytes32"
        }
      ],
      "stateMutability": "view",
      "type": "function"
    }
  ],
  "bytecode": "0x60c06040523480156200001157600080fd5b5060405162005cfb38038062005cfb833981016040819052620000349162000407565b808585888062000044816200013a565b506005805460ff191690556200006560006200005f62000153565b62000170565b620000947f9f2df0fed2c77648de5860a4cc508cd0818c85b8b8a1ab4ceeef8d981c8956a66200005f62000153565b620000c37f65d7a28e3265b37a6474929f336521b332c1681b933f6cb9f3376673440d862a6200005f62000153565b506001600160601b0319606092831b811660a052911b16608052600780546001600160a01b039283166001600160a01b03199182161790915560088054928a1692909116919091179055600b839055600a82905585516200012c90600d90602089019062000354565b5050505050505050620005a6565b80516200014f90600490602084019062000354565b5050565b60006200016a620001b360201b62001f4f1760201c565b90505b90565b620001878282620001f360201b62001f7d1760201c565b6000828152600160209081526040909120620001ae91839062001f87620001ff821b17901c565b505050565b6000620001c0336200021f565b15620001d6575060131936013560601c6200016d565b620001eb6200023660201b62001f9c1760201c565b90506200016d565b6200014f82826200023a565b600062000216836001600160a01b038416620002c4565b90505b92915050565b6007546001600160a01b038281169116145b919050565b3390565b62000246828262000313565b6200014f576000828152602081815260408083206001600160a01b03851684529091529020805460ff191660011790556200028062000153565b6001600160a01b0316816001600160a01b0316837f2f8788117e7eff1d82e926ec794901d17c78024a50270940304540a733656f0d60405160405180910390a45050565b6000620002d283836200033c565b6200030a5750815460018181018455600084815260208082209093018490558454848252828601909352604090209190915562000219565b50600062000219565b6000918252602082815260408084206001600160a01b0393909316845291905290205460ff1690565b60009081526001919091016020526040902054151590565b82805462000362906200053a565b90600052602060002090601f016020900481019282620003865760008555620003d1565b82601f10620003a157805160ff1916838001178555620003d1565b82800160010185558215620003d1579182015b82811115620003d1578251825591602001919060010190620003b4565b50620003df929150620003e3565b5090565b5b80821115620003df5760008155600101620003e4565b805162000231816200058d565b600080600080600080600060e0888a03121562000422578283fd5b87516200042f816200058d565b602089810151919850906001600160401b03808211156200044e578586fd5b818b0191508b601f83011262000462578586fd5b81518181111562000477576200047762000577565b604051601f8201601f19168101850183811182821017156200049d576200049d62000577565b60405281815283820185018e1015620004b4578788fd5b8792505b81831015620004d75783830185015181840186015291840191620004b8565b81831115620004e857878583830101525b809a505050505050620004fe60408901620003fa565b94506200050e60608901620003fa565b93506080880151925060a088015191506200052c60c08901620003fa565b905092959891949750929550565b6002810460018216806200054f57607f821691505b602082108114156200057157634e487b7160e01b600052602260045260246000fd5b50919050565b634e487b7160e01b600052604160045260246000fd5b6001600160a01b0381168114620005a357600080fd5b50565b60805160601c60a05160601c615714620005e7600039600081816116fb01526125740152600081816110f601528181611ea7015261254501526157146000f3fe608060405234801561001057600080fd5b506004361061032a5760003560e01c806375794a3c116101b2578063c0e72740116100f9578063e8a3d485116100a2578063f242432a1161007c578063f242432a14610692578063f301af42146106a5578063f5298aca146106b8578063f99b1d68146106cb5761032a565b8063e8a3d48514610664578063e985e9c51461066c578063f23a6e611461067f5761032a565b8063d5391393116100d3578063d539139314610641578063d547741f14610649578063e63ab1e91461065c5761032a565b8063c0e7274014610626578063c87b56dd14610380578063ca15c8731461062e5761032a565b806394985ddd1161015b578063b277ca4511610135578063b277ca45146105cf578063b84c1392146105e2578063bc197c81146106065761032a565b806394985ddd146105a1578063a217fddf146105b4578063a22cb465146105bc5761032a565b80639010d07c1161018c5780639010d07c1461056857806391d148541461057b578063938e3d7b1461058e5761032a565b806375794a3c146105385780638456cb5914610540578063895ec54c146105485761032a565b80632f2ff15d116102765780635318c48f1161021f5780635e619b78116101f95780635e619b78146104f15780636b20c45414610512578063731133e9146105255761032a565b80635318c48f146104c3578063572b6c05146104d65780635c975abb146104e95761032a565b80634e1273f4116102505780634e1273f41461047057806350a88c7e14610490578063510b5158146104a35761032a565b80632f2ff15d1461044257806336568abe146104555780633f4ba83a146104685761032a565b80631d64b18e116102d8578063248a9ca3116102b2578063248a9ca3146103fb5780632a55205a1461040e5780632eb2c2d61461042f5761032a565b80631d64b18e146103cb5780631f7fdffa146103d3578063238566ab146103e85761032a565b80630e89341c116103095780630e89341c1461038057806310983e57146103a057806310e34e67146103a85761032a565b8062fdd58e1461032f57806301ffc9a714610358578063041d443e14610378575b600080fd5b61034261033d3660046141da565b6106de565b60405161034f9190614819565b60405180910390f35b61036b6103663660046143d5565b61073a565b60405161034f919061480e565b61034261074d565b61039361038e366004614362565b610753565b60405161034f919061488b565b6103426107f5565b6103bb6103b6366004614362565b6107fb565b60405161034f94939291906153b9565b6103426109c7565b6103e66103e136600461410f565b6109cd565b005b6103e66103f6366004614362565b610a27565b610342610409366004614362565b610c33565b61042161041c3660046143b4565b610c48565b60405161034f92919061478c565b6103e661043d366004613f95565b610d0c565b6103e6610450366004614392565b610d6a565b6103e6610463366004614392565b610d91565b6103e6610db3565b61048361047e366004614288565b610e05565b60405161034f91906147d6565b6103e661049e366004614362565b610f25565b6104b66104b1366004614362565b611322565b60405161034f919061467f565b6103426104d1366004614392565b611340565b61036b6104e4366004613f52565b61135d565b61036b611371565b6105046104ff366004614362565b61137b565b60405161034f929190614822565b6103e661052036600461409e565b61139d565b6103e6610533366004614235565b6113f2565b610342611446565b6103e661144c565b61055b610556366004614362565b61149c565b60405161034f91906153a6565b6104b66105763660046143b4565b611586565b61036b610589366004614392565b6115a5565b6103e661059c36600461440d565b6115ce565b6103e66105af3660046143b4565b6116f0565b610342611746565b6103e66105ca3660046141a4565b61174b565b6103e66105dd366004614362565b611819565b6105f56105f0366004614362565b611934565b60405161034f95949392919061489e565b610619610614366004613f95565b6119f5565b60405161034f9190614876565b610393611ade565b61034261063c366004614362565b611b6c565b610342611b83565b6103e6610657366004614392565b611ba7565b610342611bb1565b610393611bd5565b61036b61067a366004613f6c565b611c67565b61061961068d36600461403b565b611c95565b6103e66106a036600461403b565b611ca6565b6104216106b3366004614362565b611cfd565b6103e66106c6366004614203565b611d22565b6103e66106d93660046141da565b611d77565b60006001600160a01b03831661070f5760405162461bcd60e51b815260040161070690614abe565b60405180910390fd5b5060008181526002602090815260408083206001600160a01b03861684529091529020545b92915050565b600061074582611fa0565b90505b919050565b600b5481565b6000818152600e602052604090208054606091906107709061558f565b80601f016020809104026020016040519081016040528092919081815260200182805461079c9061558f565b80156107e95780601f106107be576101008083540402835291602001916107e9565b820191906000526020600020905b8154815290600101906020018083116107cc57829003601f168201915b50505050509050919050565b600a5481565b610803613d04565b6000606080600e60008681526020019081526020016000206040518060a00160405290816000820180546108369061558f565b80601f01602080910402602001604051908101604052809291908181526020018280546108629061558f565b80156108af5780601f10610884576101008083540402835291602001916108af565b820191906000526020600020905b81548152906001019060200180831161089257829003601f168201915b50505091835250506001828101546001600160a01b0390811660208085019190915260028501546040808601919091526003860154606086015260049095015460809094019390935260008a8152600f84528490208054920180548551818602810186019096528086529599509116965091929083018282801561095257602002820191906000526020600020905b81548152602001906001019080831161093e575b50505050509150600f60008681526020019081526020016000206002018054806020026020016040519081016040528092919081815260200182805480156109b957602002820191906000526020600020905b8154815260200190600101908083116109a5575b505050505090509193509193565b600c5481565b6109f97f9f2df0fed2c77648de5860a4cc508cd0818c85b8b8a1ab4ceeef8d981c8956a6610589611fe0565b610a155760405162461bcd60e51b815260040161070690614f8c565b610a2184848484611fef565b50505050565b60085460408051634a32c6bf60e11b815290516001600160a01b03909216916391d148549183916394658d7e91600480820192602092909190829003018186803b158015610a7457600080fd5b505afa158015610a88573d6000803e3d6000fd5b505050506040513d601f19601f82011682018060405250810190610aac919061437a565b610ab4611fe0565b6040518363ffffffff1660e01b8152600401610ad1929190614822565b60206040518083038186803b158015610ae957600080fd5b505afa158015610afd573d6000803e3d6000fd5b505050506040513d601f19601f82011682018060405250810190610b219190614346565b610b3d5760405162461bcd60e51b8152600401610706906149cd565b600860009054906101000a90046001600160a01b03166001600160a01b031663fd967f476040518163ffffffff1660e01b815260040160206040518083038186803b158015610b8b57600080fd5b505afa158015610b9f573d6000803e3d6000fd5b505050506040513d601f19601f82011682018060405250810190610bc39190614508565b6fffffffffffffffffffffffffffffffff168110610bf35760405162461bcd60e51b815260040161070690614cad565b600c8190556040517f18df997df447ad234684c1707c641c0bda90e308ab6a764f6d9ba74ac407b95c90610c28908390614819565b60405180910390a150565b60009081526020819052604090206001015490565b6000828152600e6020908152604080832060010154600854825163fd967f4760e01b815292516001600160a01b039283169594919092169263fd967f479260048083019392829003018186803b158015610ca157600080fd5b505afa158015610cb5573d6000803e3d6000fd5b505050506040513d601f19601f82011682018060405250810190610cd99190614508565b6fffffffffffffffffffffffffffffffff16600c5484610cf99190615516565b610d039190615502565b90509250929050565b610d14611fe0565b6001600160a01b0316856001600160a01b03161480610d3a5750610d3a8561067a611fe0565b610d565760405162461bcd60e51b815260040161070690614eec565b610d638585858585612171565b5050505050565b610d748282612345565b6000828152600160205260409020610d8c9082611f87565b505050565b610d9b8282612369565b6000828152600160205260409020610d8c90826123ab565b610ddf7f65d7a28e3265b37a6474929f336521b332c1681b933f6cb9f3376673440d862a610589611fe0565b610dfb5760405162461bcd60e51b81526004016107069061507d565b610e036123c0565b565b60608151835114610e285760405162461bcd60e51b8152600401610706906151f1565b6000835167ffffffffffffffff811115610e5257634e487b7160e01b600052604160045260246000fd5b604051908082528060200260200182016040528015610e7b578160200160208202803683370190505b50905060005b8451811015610f1d57610ee2858281518110610ead57634e487b7160e01b600052603260045260246000fd5b6020026020010151858381518110610ed557634e487b7160e01b600052603260045260246000fd5b60200260200101516106de565b828281518110610f0257634e487b7160e01b600052603260045260246000fd5b6020908102919091010152610f16816155c4565b9050610e81565b509392505050565b600860009054906101000a90046001600160a01b03166001600160a01b0316639d2f83f06040518163ffffffff1660e01b815260040160206040518083038186803b158015610f7357600080fd5b505afa158015610f87573d6000803e3d6000fd5b505050506040513d601f19601f82011682018060405250810190610fab9190614346565b15610fc85760405162461bcd60e51b815260040161070690614dc4565b6000818152600e6020526040808220815160a08101909252805482908290610fef9061558f565b80601f016020809104026020016040519081016040528092919081815260200182805461101b9061558f565b80156110685780601f1061103d57610100808354040283529160200191611068565b820191906000526020600020905b81548152906001019060200180831161104b57829003601f168201915b505050918352505060018201546001600160a01b0316602082015260028201546040820152600382015460608083019190915260049092015460809091015281015190915042108015906110c0575080608001514211155b6110dc5760405162461bcd60e51b815260040161070690614a2a565b600a546040516370a0823160e01b81526001600160a01b037f000000000000000000000000000000000000000000000000000000000000000016906370a082319061112b90309060040161467f565b60206040518083038186803b15801561114357600080fd5b505afa158015611157573d6000803e3d6000fd5b505050506040513d601f19601f8201168201806040525081019061117b919061437a565b10156111995760405162461bcd60e51b815260040161070690614d0a565b60006111ac6111a6611fe0565b846106de565b116111c95760405162461bcd60e51b815260040161070690615137565b6000828152601160205260408120906111e0611fe0565b6001600160a01b03168152602081019190915260400160002054156112175760405162461bcd60e51b815260040161070690614dfb565b61122a611222611fe0565b83600161242e565b600061123a600b54600a54612541565b90506040518060400160405280848152602001611255611fe0565b6001600160a01b03908116909152600083815260106020908152604080832085518155948201516001909501805473ffffffffffffffffffffffffffffffffffffffff19169590941694909417909255858152601190915290812082916112ba611fe0565b6001600160a01b031681526020810191909152604001600020556112dc611fe0565b6001600160a01b0316837fb5c27afec62496e403fae78e07136ae7c58425e8128c7b680ea24dee8c8d9401836040516113159190614819565b60405180910390a3505050565b6000908152600e60205260409020600101546001600160a01b031690565b601160209081526000928352604080842090915290825290205481565b6007546001600160a01b0390811691161490565b60055460ff165b90565b601060205260009081526040902080546001909101546001600160a01b031682565b6113a5611fe0565b6001600160a01b0316836001600160a01b031614806113cb57506113cb8361067a611fe0565b6113e75760405162461bcd60e51b815260040161070690614c19565b610d8c838383612684565b61141e7f9f2df0fed2c77648de5860a4cc508cd0818c85b8b8a1ab4ceeef8d981c8956a6610589611fe0565b61143a5760405162461bcd60e51b815260040161070690614f8c565b610a2184848484612838565b60095481565b6114787f65d7a28e3265b37a6474929f336521b332c1681b933f6cb9f3376673440d862a610589611fe0565b6114945760405162461bcd60e51b8152600401610706906150da565b610e03612929565b6114a4613d04565b6000828152600e602052604090819020815160a081019092528054829082906114cc9061558f565b80601f01602080910402602001604051908101604052809291908181526020018280546114f89061558f565b80156115455780601f1061151a57610100808354040283529160200191611545565b820191906000526020600020905b81548152906001019060200180831161152857829003601f168201915b505050918352505060018201546001600160a01b03166020820152600282015460408201526003820154606082015260049091015460809091015292915050565b600082815260016020526040812061159e9083612984565b9392505050565b6000918252602082815260408084206001600160a01b0393909316845291905290205460ff1690565b60085460408051634a32c6bf60e11b815290516001600160a01b03909216916391d148549183916394658d7e91600480820192602092909190829003018186803b15801561161b57600080fd5b505afa15801561162f573d6000803e3d6000fd5b505050506040513d601f19601f82011682018060405250810190611653919061437a565b61165b611fe0565b6040518363ffffffff1660e01b8152600401611678929190614822565b60206040518083038186803b15801561169057600080fd5b505afa1580156116a4573d6000803e3d6000fd5b505050506040513d601f19601f820116820180604052508101906116c89190614346565b6116e45760405162461bcd60e51b8152600401610706906149cd565b610d8c600d8383613d3c565b336001600160a01b037f000000000000000000000000000000000000000000000000000000000000000016146117385760405162461bcd60e51b815260040161070690615046565b6117428282612990565b5050565b600081565b816001600160a01b031661175d611fe0565b6001600160a01b031614156117845760405162461bcd60e51b815260040161070690615194565b8060036000611791611fe0565b6001600160a01b03908116825260208083019390935260409182016000908120918716808252919093529120805460ff1916921515929092179091556117d5611fe0565b6001600160a01b03167f17307eab39ab6107e8899845ad3d59bd9653f200f220920489ca2b5937696c318360405161180d919061480e565b60405180910390a35050565b60085460408051634a32c6bf60e11b815290516001600160a01b03909216916391d148549183916394658d7e91600480820192602092909190829003018186803b15801561186657600080fd5b505afa15801561187a573d6000803e3d6000fd5b505050506040513d601f19601f8201168201806040525081019061189e919061437a565b6118a6611fe0565b6040518363ffffffff1660e01b81526004016118c3929190614822565b60206040518083038186803b1580156118db57600080fd5b505afa1580156118ef573d6000803e3d6000fd5b505050506040513d601f19601f820116820180604052508101906119139190614346565b61192f5760405162461bcd60e51b8152600401610706906149cd565b600a55565b600e6020526000908152604090208054819061194f9061558f565b80601f016020809104026020016040519081016040528092919081815260200182805461197b9061558f565b80156119c85780601f1061199d576101008083540402835291602001916119c8565b820191906000526020600020905b8154815290600101906020018083116119ab57829003601f168201915b5050505060018301546002840154600385015460049095015493946001600160a01b039092169390925085565b600854604080516309d2f83f60e41b815290516000926001600160a01b031691639d2f83f0916004808301926020929190829003018186803b158015611a3a57600080fd5b505afa158015611a4e573d6000803e3d6000fd5b505050506040513d601f19601f82011682018060405250810190611a729190614346565b15611a8f5760405162461bcd60e51b815260040161070690614dc4565b60008060008085806020019051810190611aa9919061447a565b9350935093509350611ac88985611abe611fe0565b8b8b888888612b89565b5063bc197c8160e01b9998505050505050505050565b600d8054611aeb9061558f565b80601f0160208091040260200160405190810160405280929190818152602001828054611b179061558f565b8015611b645780601f10611b3957610100808354040283529160200191611b64565b820191906000526020600020905b815481529060010190602001808311611b4757829003601f168201915b505050505081565b600081815260016020526040812061074590612f33565b7f9f2df0fed2c77648de5860a4cc508cd0818c85b8b8a1ab4ceeef8d981c8956a681565b610d9b8282612f3e565b7f65d7a28e3265b37a6474929f336521b332c1681b933f6cb9f3376673440d862a81565b6060600d8054611be49061558f565b80601f0160208091040260200160405190810160405280929190818152602001828054611c109061558f565b8015611c5d5780601f10611c3257610100808354040283529160200191611c5d565b820191906000526020600020905b815481529060010190602001808311611c4057829003601f168201915b5050505050905090565b6001600160a01b03918216600090815260036020908152604080832093909416825291909152205460ff1690565b63f23a6e6160e01b95945050505050565b611cae611fe0565b6001600160a01b0316856001600160a01b03161480611cd45750611cd48561067a611fe0565b611cf05760405162461bcd60e51b815260040161070690614c19565b610d638585858585612f5d565b600f60205260009081526040902080546003909101546001600160a01b039091169082565b611d2a611fe0565b6001600160a01b0316836001600160a01b03161480611d505750611d508361067a611fe0565b611d6c5760405162461bcd60e51b815260040161070690614c19565b610d8c83838361242e565b60085460408051634a32c6bf60e11b815290516001600160a01b03909216916391d148549183916394658d7e91600480820192602092909190829003018186803b158015611dc457600080fd5b505afa158015611dd8573d6000803e3d6000fd5b505050506040513d601f19601f82011682018060405250810190611dfc919061437a565b611e04611fe0565b6040518363ffffffff1660e01b8152600401611e21929190614822565b60206040518083038186803b158015611e3957600080fd5b505afa158015611e4d573d6000803e3d6000fd5b505050506040513d601f19601f82011682018060405250810190611e719190614346565b611e8d5760405162461bcd60e51b8152600401610706906149cd565b60405163a9059cbb60e01b81526000906001600160a01b037f0000000000000000000000000000000000000000000000000000000000000000169063a9059cbb90611ede908690869060040161478c565b602060405180830381600087803b158015611ef857600080fd5b505af1158015611f0c573d6000803e3d6000fd5b505050506040513d601f19601f82011682018060405250810190611f309190614346565b905080610d8c5760405162461bcd60e51b815260040161070690614c76565b6000611f5a3361135d565b15611f6e575060131936013560601c611378565b611f76611f9c565b9050611378565b6117428282613095565b600061159e836001600160a01b03841661311a565b3390565b60006001600160e01b03198216636cdb3d1360e11b1480611fd157506001600160e01b031982166303a24d0760e21b145b80610745575061074582613164565b6000611fea611f4f565b905090565b6001600160a01b0384166120155760405162461bcd60e51b8152600401610706906152ab565b81518351146120365760405162461bcd60e51b81526004016107069061524e565b6000612040611fe0565b905061205181600087878787613189565b60005b84518110156121095783818151811061207d57634e487b7160e01b600052603260045260246000fd5b6020026020010151600260008784815181106120a957634e487b7160e01b600052603260045260246000fd5b602002602001015181526020019081526020016000206000886001600160a01b03166001600160a01b0316815260200190815260200160002060008282546120f191906154ea565b90915550819050612101816155c4565b915050612054565b50846001600160a01b031660006001600160a01b0316826001600160a01b03167f4a39dc06d4c0dbc64b70af90fd698a233a518aa5d07e595d983b8c0526c8f7fb878760405161215a9291906147e9565b60405180910390a4610d638160008787878761323d565b81518351146121925760405162461bcd60e51b81526004016107069061524e565b6001600160a01b0384166121b85760405162461bcd60e51b815260040161070690614e8f565b60006121c2611fe0565b90506121d2818787878787613189565b60005b84518110156122d757600085828151811061220057634e487b7160e01b600052603260045260246000fd5b60200260200101519050600085838151811061222c57634e487b7160e01b600052603260045260246000fd5b60209081029190910181015160008481526002835260408082206001600160a01b038e16835290935291909120549091508181101561227d5760405162461bcd60e51b815260040161070690614fe9565b60008381526002602090815260408083206001600160a01b038e8116855292528083208585039055908b168252812080548492906122bc9084906154ea565b92505081905550505050806122d0906155c4565b90506121d5565b50846001600160a01b0316866001600160a01b0316826001600160a01b03167f4a39dc06d4c0dbc64b70af90fd698a233a518aa5d07e595d983b8c0526c8f7fb87876040516123279291906147e9565b60405180910390a461233d81878787878761323d565b505050505050565b61234e82610c33565b61235f8161235a611fe0565b61334b565b610d8c8383613095565b612371611fe0565b6001600160a01b0316816001600160a01b0316146123a15760405162461bcd60e51b815260040161070690615349565b61174282826133af565b600061159e836001600160a01b038416613432565b6123c8611371565b6123e45760405162461bcd60e51b815260040161070690614a87565b6005805460ff191690557f5db9ee0a495bf2e6ff9c91a7834c1ba4fdd244a5e8aa4e537bd38aeae4b073aa612417611fe0565b604051612424919061467f565b60405180910390a1565b6001600160a01b0383166124545760405162461bcd60e51b815260040161070690614f49565b600061245e611fe0565b905061248e818560006124708761354f565b6124798761354f565b60405180602001604052806000815250613189565b60008381526002602090815260408083206001600160a01b0388168452909152902054828110156124d15760405162461bcd60e51b815260040161070690614b1b565b60008481526002602090815260408083206001600160a01b03808a16808652919093528184208786039055905190918516907fc3d58168c5ae7397731d063d5bbf3d657854427343f4c083240f7aacaa2d0f629061253290899089906145f0565b60405180910390a45050505050565b60007f00000000000000000000000000000000000000000000000000000000000000006001600160a01b0316634000aea07f0000000000000000000000000000000000000000000000000000000000000000848660006040516020016125a89291906145f0565b6040516020818303038152906040526040518463ffffffff1660e01b81526004016125d5939291906147a5565b602060405180830381600087803b1580156125ef57600080fd5b505af1158015612603573d6000803e3d6000fd5b505050506040513d601f19601f820116820180604052508101906126279190614346565b50600083815260066020526040812054612646908590839030906135a8565b6000858152600660205260409020549091506126639060016154ea565b60008581526006602052604090205561267c84826135e2565b949350505050565b6001600160a01b0383166126aa5760405162461bcd60e51b815260040161070690614f49565b80518251146126cb5760405162461bcd60e51b81526004016107069061524e565b60006126d5611fe0565b90506126f581856000868660405180602001604052806000815250613189565b60005b83518110156127d957600084828151811061272357634e487b7160e01b600052603260045260246000fd5b60200260200101519050600084838151811061274f57634e487b7160e01b600052603260045260246000fd5b60209081029190910181015160008481526002835260408082206001600160a01b038c1683529093529190912054909150818110156127a05760405162461bcd60e51b815260040161070690614b1b565b60009283526002602090815260408085206001600160a01b038b16865290915290922091039055806127d1816155c4565b9150506126f8565b5060006001600160a01b0316846001600160a01b0316826001600160a01b03167f4a39dc06d4c0dbc64b70af90fd698a233a518aa5d07e595d983b8c0526c8f7fb868660405161282a9291906147e9565b60405180910390a450505050565b6001600160a01b03841661285e5760405162461bcd60e51b8152600401610706906152ab565b6000612868611fe0565b90506128898160008761287a8861354f565b6128838861354f565b87613189565b60008481526002602090815260408083206001600160a01b0389168452909152812080548592906128bb9084906154ea565b92505081905550846001600160a01b031660006001600160a01b0316826001600160a01b03167fc3d58168c5ae7397731d063d5bbf3d657854427343f4c083240f7aacaa2d0f6287876040516129129291906145f0565b60405180910390a4610d6381600087878787613615565b612931611371565b1561294e5760405162461bcd60e51b815260040161070690614e58565b6005805460ff191660011790557f62e78cea01bee320cd4e420270b5ea74000d11b0c9f74754ebdbfc544b05a258612417611fe0565b600061159e83836136e6565b60008281526010602090815260408083208151808301835281548082526001928301546001600160a01b03908116838701819052828852601187528588208189528752858820889055828852600f875285882086516080810188528154909316835294850180548751818a0281018a01909852808852949893979196939592949293858301939092830182828015612a4757602002820191906000526020600020905b815481526020019060010190808311612a33575b5050505050815260200160028201805480602002602001604051908101604052809291908181526020018280548015612a9f57602002820191906000526020600020905b815481526020019060010190808311612a8b575b505050505081526020016003820154815250509050600080612ac285888561371e565b8451604051631759616b60e11b81529294509092506001600160a01b031690632eb2c2d690612afb9030908890879087906004016146f1565b600060405180830381600087803b158015612b1557600080fd5b505af1158015612b29573d6000803e3d6000fd5b5050505082600001516001600160a01b0316846001600160a01b0316867f9cae8e743935573869e2fe7223782448d71211235c93076166106782de1c234f8b86604051612b77929190614839565b60405180910390a45050505050505050565b600860009054906101000a90046001600160a01b03166001600160a01b0316639d2f83f06040518163ffffffff1660e01b815260040160206040518083038186803b158015612bd757600080fd5b505afa158015612beb573d6000803e3d6000fd5b505050506040513d601f19601f82011682018060405250810190612c0f9190614346565b15612c2c5760405162461bcd60e51b815260040161070690614dc4565b612c567f9f2df0fed2c77648de5860a4cc508cd0818c85b8b8a1ab4ceeef8d981c8956a6896115a5565b612c725760405162461bcd60e51b815260040161070690614b5f565b6040516301ffc9a760e01b81526001600160a01b038716906301ffc9a790612ca590636cdb3d1360e11b90600401614876565b60206040518083038186803b158015612cbd57600080fd5b505afa158015612cd1573d6000803e3d6000fd5b505050506040513d601f19601f82011682018060405250810190612cf59190614346565b612d115760405162461bcd60e51b8152600401610706906152ec565b6000612d1c85613a2c565b9050612d2882826155df565b15612d455760405162461bcd60e51b815260040161070690614d67565b6000612d4f613a86565b90506000612d5d8484615502565b905060006040518060a001604052808c81526020018d6001600160a01b031681526020018381526020018842612d9391906154ea565b81526020018715612dad57612da888426154ea565b612db1565b6000195b9052604080516080810182526001600160a01b038d16815260208082018d90528183018c9052606082018990526000878152600e82529290922083518051949550919385939192612e06928492910190613dc0565b50602082810151600180840180546001600160a01b0393841673ffffffffffffffffffffffffffffffffffffffff19918216179091556040808701516002870155606087015160038701556080909601516004909501949094556000898152600f845294909420855181549216919093161782558381015180518594612e9193908501920190613e34565b5060408201518051612ead916002840191602090910190613e34565b5060608201518160030155905050612ed68d858560405180602001604052806000815250612838565b8c6001600160a01b03168b6001600160a01b0316857f9330e9dfd1e803e5d709edb2ad6657b74cb0fb1f182bd63fdbbcb01a463e8ad08585604051612f1c929190615401565b60405180910390a450505050505050505050505050565b600061074582613aa4565b612f4782610c33565b612f538161235a611fe0565b610d8c83836133af565b6001600160a01b038416612f835760405162461bcd60e51b815260040161070690614e8f565b6000612f8d611fe0565b9050612f9e81878761287a8861354f565b60008481526002602090815260408083206001600160a01b038a16845290915290205483811015612fe15760405162461bcd60e51b815260040161070690614fe9565b60008581526002602090815260408083206001600160a01b038b81168552925280832087850390559088168252812080548692906130209084906154ea565b92505081905550856001600160a01b0316876001600160a01b0316836001600160a01b03167fc3d58168c5ae7397731d063d5bbf3d657854427343f4c083240f7aacaa2d0f6288886040516130769291906145f0565b60405180910390a461308c828888888888613615565b50505050505050565b61309f82826115a5565b611742576000828152602081815260408083206001600160a01b03851684529091529020805460ff191660011790556130d6611fe0565b6001600160a01b0316816001600160a01b0316837f2f8788117e7eff1d82e926ec794901d17c78024a50270940304540a733656f0d60405160405180910390a45050565b60006131268383613aa8565b61315c57508154600181810184556000848152602080822090930184905584548482528286019093526040902091909155610734565b506000610734565b60006001600160e01b03198216635a05180f60e01b1480610745575061074582613ac0565b613197868686868686613ae5565b6001600160a01b03841661233d5760005b835181101561308c578281815181106131d157634e487b7160e01b600052603260045260246000fd5b6020026020010151600e60008684815181106131fd57634e487b7160e01b600052603260045260246000fd5b6020026020010151815260200190815260200160002060020160008282546132259190615535565b9091555061323690506001826154ea565b90506131a8565b61324f846001600160a01b0316613af3565b1561233d5760405163bc197c8160e01b81526001600160a01b0385169063bc197c81906132889089908990889088908890600401614693565b602060405180830381600087803b1580156132a257600080fd5b505af19250505080156132d2575060408051601f3d908101601f191682019092526132cf918101906143f1565b60015b61331b576132de61563b565b806132e95750613303565b8060405162461bcd60e51b8152600401610706919061488b565b60405162461bcd60e51b8152600401610706906148de565b6001600160e01b0319811663bc197c8160e01b1461308c5760405162461bcd60e51b815260040161070690614970565b61335582826115a5565b6117425761336d816001600160a01b03166014613af9565b613378836020613af9565b6040516020016133899291906145fe565b60408051601f198184030181529082905262461bcd60e51b82526107069160040161488b565b6133b982826115a5565b15611742576000828152602081815260408083206001600160a01b03851684529091529020805460ff191690556133ee611fe0565b6001600160a01b0316816001600160a01b0316837ff6391f5c32d9c69d2a47ea670b442974b53935d1edc7fd64eb21e047a839171b60405160405180910390a45050565b60008181526001830160205260408120548015613545576000613456600183615535565b855490915060009061346a90600190615535565b90508181146134eb57600086600001828154811061349857634e487b7160e01b600052603260045260246000fd5b90600052602060002001549050808760000184815481106134c957634e487b7160e01b600052603260045260246000fd5b6000918252602080832090910192909255918252600188019052604090208390555b855486908061350a57634e487b7160e01b600052603160045260246000fd5b600190038181906000526020600020016000905590558560010160008681526020019081526020016000206000905560019350505050610734565b6000915050610734565b6040805160018082528183019092526060916000919060208083019080368337019050509050828160008151811061359757634e487b7160e01b600052603260045260246000fd5b602090810291909101015292915050565b6000848484846040516020016135c19493929190614852565b60408051601f19818403018152919052805160209091012095945050505050565b600082826040516020016135f79291906145f0565b60405160208183030381529060405280519060200120905092915050565b613627846001600160a01b0316613af3565b1561233d5760405163f23a6e6160e01b81526001600160a01b0385169063f23a6e61906136609089908990889088908890600401614749565b602060405180830381600087803b15801561367a57600080fd5b505af19250505080156136aa575060408051601f3d908101601f191682019092526136a7918101906143f1565b60015b6136b6576132de61563b565b6001600160e01b0319811663f23a6e6160e01b1461308c5760405162461bcd60e51b815260040161070690614970565b600082600001828154811061370b57634e487b7160e01b600052603260045260246000fd5b9060005260206000200154905092915050565b60608060006137308460400151613a2c565b9050600080856060015167ffffffffffffffff81111561376057634e487b7160e01b600052604160045260246000fd5b604051908082528060200260200182016040528015613789578160200160208202803683370190505b509450856060015167ffffffffffffffff8111156137b757634e487b7160e01b600052604160045260246000fd5b6040519080825280602002602001820160405280156137e0578160200160208202803683370190505b50935060005b86606001518110156139a3578388826040516020016138069291906145f0565b6040516020818303038152906040528051906020012060001c61382991906155df565b915060005b87602001515181101561399057838860400151828151811061386057634e487b7160e01b600052603260045260246000fd5b602002602001015161387291906154ea565b831015613945578760200151818151811061389d57634e487b7160e01b600052603260045260246000fd5b60200260200101518783815181106138c557634e487b7160e01b600052603260045260246000fd5b60200260200101818152505060018683815181106138f357634e487b7160e01b600052603260045260246000fd5b60200260200101818152505060018860400151828151811061392557634e487b7160e01b600052603260045260246000fd5b602002602001018181516139399190615535565b90525060009350613990565b8760400151818151811061396957634e487b7160e01b600052603260045260246000fd5b60200260200101518461397c91906154ea565b93506139896001826154ea565b905061382e565b5061399c6001826154ea565b90506137e6565b506000888152600f602090815260409091208751815473ffffffffffffffffffffffffffffffffffffffff19166001600160a01b0390911617815587820151805189936139f7926001850192910190613e34565b5060408201518051613a13916002840191602090910190613e34565b5060608201518160030155905050505050935093915050565b6000805b8251811015613a8057828181518110613a5957634e487b7160e01b600052603260045260246000fd5b602002602001015182613a6c91906154ea565b9150613a796001826154ea565b9050613a30565b50919050565b60098054906001906000613a9a83856154ea565b9250508190555090565b5490565b60009081526001919091016020526040902054151590565b60006001600160e01b03198216637965db0b60e01b1480610745575061074582613cb8565b61233d868686868686613cd1565b3b151590565b60606000613b08836002615516565b613b139060026154ea565b67ffffffffffffffff811115613b3957634e487b7160e01b600052604160045260246000fd5b6040519080825280601f01601f191660200182016040528015613b63576020820181803683370190505b509050600360fc1b81600081518110613b8c57634e487b7160e01b600052603260045260246000fd5b60200101906001600160f81b031916908160001a905350600f60fb1b81600181518110613bc957634e487b7160e01b600052603260045260246000fd5b60200101906001600160f81b031916908160001a9053506000613bed846002615516565b613bf89060016154ea565b90505b6001811115613c99577f303132333435363738396162636465660000000000000000000000000000000085600f1660108110613c4757634e487b7160e01b600052603260045260246000fd5b1a60f81b828281518110613c6b57634e487b7160e01b600052603260045260246000fd5b60200101906001600160f81b031916908160001a90535060049490941c93613c9281615578565b9050613bfb565b50831561159e5760405162461bcd60e51b81526004016107069061493b565b6001600160e01b031981166301ffc9a760e01b14919050565b613cdf86868686868661233d565b613ce7611371565b1561233d5760405162461bcd60e51b815260040161070690614bbc565b6040518060a001604052806060815260200160006001600160a01b031681526020016000815260200160008152602001600081525090565b828054613d489061558f565b90600052602060002090601f016020900481019282613d6a5760008555613db0565b82601f10613d835782800160ff19823516178555613db0565b82800160010185558215613db0579182015b82811115613db0578235825591602001919060010190613d95565b50613dbc929150613e6e565b5090565b828054613dcc9061558f565b90600052602060002090601f016020900481019282613dee5760008555613db0565b82601f10613e0757805160ff1916838001178555613db0565b82800160010185558215613db0579182015b82811115613db0578251825591602001919060010190613e19565b828054828255906000526020600020908101928215613db05791602002820182811115613db0578251825591602001919060010190613e19565b5b80821115613dbc5760008155600101613e6f565b80356001600160a01b038116811461074857600080fd5b600082601f830112613eaa578081fd5b81356020613ebf613eba8361549e565b615474565b8281528181019085830183850287018401881015613edb578586fd5b855b85811015613ef957813584529284019290840190600101613edd565b5090979650505050505050565b600082601f830112613f16578081fd5b8135613f24613eba826154c2565b818152846020838601011115613f38578283fd5b816020850160208301379081016020019190915292915050565b600060208284031215613f63578081fd5b61159e82613e83565b60008060408385031215613f7e578081fd5b613f8783613e83565b9150610d0360208401613e83565b600080600080600060a08688031215613fac578081fd5b613fb586613e83565b9450613fc360208701613e83565b9350604086013567ffffffffffffffff80821115613fdf578283fd5b613feb89838a01613e9a565b94506060880135915080821115614000578283fd5b61400c89838a01613e9a565b93506080880135915080821115614021578283fd5b5061402e88828901613f06565b9150509295509295909350565b600080600080600060a08688031215614052578081fd5b61405b86613e83565b945061406960208701613e83565b93506040860135925060608601359150608086013567ffffffffffffffff811115614092578182fd5b61402e88828901613f06565b6000806000606084860312156140b2578283fd5b6140bb84613e83565b9250602084013567ffffffffffffffff808211156140d7578384fd5b6140e387838801613e9a565b935060408601359150808211156140f8578283fd5b5061410586828701613e9a565b9150509250925092565b60008060008060808587031215614124578182fd5b61412d85613e83565b9350602085013567ffffffffffffffff80821115614149578384fd5b61415588838901613e9a565b9450604087013591508082111561416a578384fd5b61417688838901613e9a565b9350606087013591508082111561418b578283fd5b5061419887828801613f06565b91505092959194509250565b600080604083850312156141b6578182fd5b6141bf83613e83565b915060208301356141cf816156e0565b809150509250929050565b600080604083850312156141ec578182fd5b6141f583613e83565b946020939093013593505050565b600080600060608486031215614217578081fd5b61422084613e83565b95602085013595506040909401359392505050565b6000806000806080858703121561424a578182fd5b61425385613e83565b93506020850135925060408501359150606085013567ffffffffffffffff81111561427c578182fd5b61419887828801613f06565b6000806040838503121561429a578182fd5b823567ffffffffffffffff808211156142b1578384fd5b818501915085601f8301126142c4578384fd5b813560206142d4613eba8361549e565b82815281810190858301838502870184018b10156142f0578889fd5b8896505b848710156143195761430581613e83565b8352600196909601959183019183016142f4565b509650508601359250508082111561432f578283fd5b5061433c85828601613e9a565b9150509250929050565b600060208284031215614357578081fd5b815161159e816156e0565b600060208284031215614373578081fd5b5035919050565b60006020828403121561438b578081fd5b5051919050565b600080604083850312156143a4578182fd5b82359150610d0360208401613e83565b600080604083850312156143c6578182fd5b50508035926020909101359150565b6000602082840312156143e6578081fd5b813561159e816156f1565b600060208284031215614402578081fd5b815161159e816156f1565b6000806020838503121561441f578182fd5b823567ffffffffffffffff80821115614436578384fd5b818501915085601f830112614449578384fd5b813581811115614457578485fd5b866020828501011115614468578485fd5b60209290920196919550909350505050565b6000806000806080858703121561448f578182fd5b845167ffffffffffffffff8111156144a5578283fd5b8501601f810187136144b5578283fd5b80516144c3613eba826154c2565b8181528860208385010111156144d7578485fd5b6144e882602083016020860161554c565b60208801516040890151606090990151919a909950909650945050505050565b600060208284031215614519578081fd5b81516fffffffffffffffffffffffffffffffff8116811461159e578182fd5b6000815180845260208085019450808401835b838110156145675781518752958201959082019060010161454b565b509495945050505050565b6000815180845261458a81602086016020860161554c565b601f01601f19169290920160200192915050565b6000815160a084526145b360a0850182614572565b90506001600160a01b0360208401511660208501526040830151604085015260608301516060850152608083015160808501528091505092915050565b918252602082015260400190565b60007f416363657373436f6e74726f6c3a206163636f756e74200000000000000000008252835161463681601785016020880161554c565b7f206973206d697373696e6720726f6c6520000000000000000000000000000000601791840191820152835161467381602884016020880161554c565b01602801949350505050565b6001600160a01b0391909116815260200190565b60006001600160a01b03808816835280871660208401525060a060408301526146bf60a0830186614538565b82810360608401526146d18186614538565b905082810360808401526146e58185614572565b98975050505050505050565b60006001600160a01b03808716835280861660208401525060a0604083015261471d60a0830185614538565b828103606084015261472f8185614538565b838103608090940193909352508152602001949350505050565b60006001600160a01b03808816835280871660208401525084604083015283606083015260a0608083015261478160a0830184614572565b979650505050505050565b6001600160a01b03929092168252602082015260400190565b60006001600160a01b0385168252836020830152606060408301526147cd6060830184614572565b95945050505050565b60006020825261159e6020830184614538565b6000604082526147fc6040830185614538565b82810360208401526147cd8185614538565b901515815260200190565b90815260200190565b9182526001600160a01b0316602082015260400190565b60008382526040602083015261267c6040830184614538565b93845260208401929092526001600160a01b03166040830152606082015260800190565b6001600160e01b031991909116815260200190565b60006020825261159e6020830184614572565b600060a082526148b160a0830188614572565b90506001600160a01b03861660208301528460408301528360608301528260808301529695505050505050565b60208082526034908201527f455243313135353a207472616e7366657220746f206e6f6e204552433131353560408201527f526563656976657220696d706c656d656e746572000000000000000000000000606082015260800190565b6020808252818101527f537472696e67733a20686578206c656e67746820696e73756666696369656e74604082015260600190565b60208082526028908201527f455243313135353a204552433131353552656365697665722072656a6563746560408201527f6420746f6b656e73000000000000000000000000000000000000000000000000606082015260800190565b60208082526033908201527f5061636b3a206f6e6c7920612070726f746f636f6c2061646d696e2063616e2060408201527f63616c6c20746869732066756e6374696f6e2e00000000000000000000000000606082015260800190565b60208082526039908201527f5061636b3a207468652077696e646f7720746f206f70656e207061636b73206860408201527f6173206e6f742073746172746564206f7220636c6f7365642e00000000000000606082015260800190565b60208082526014908201527f5061757361626c653a206e6f7420706175736564000000000000000000000000604082015260600190565b6020808252602b908201527f455243313135353a2062616c616e636520717565727920666f7220746865207a60408201527f65726f2061646472657373000000000000000000000000000000000000000000606082015260800190565b60208082526024908201527f455243313135353a206275726e20616d6f756e7420657863656564732062616c604082015263616e636560e01b606082015260800190565b60208082526036908201527f5061636b3a206f6e6c792063726561746f72732077697468204d494e5445525f60408201527f524f4c452063616e20637265617465207061636b732e00000000000000000000606082015260800190565b6020808252602c908201527f455243313135355061757361626c653a20746f6b656e207472616e736665722060408201527f7768696c65207061757365640000000000000000000000000000000000000000606082015260800190565b60208082526029908201527f455243313135353a2063616c6c6572206973206e6f74206f776e6572206e6f7260408201527f20617070726f7665640000000000000000000000000000000000000000000000606082015260800190565b6020808252601e908201527f5061636b3a204661696c656420746f207472616e73666572204c494e4b2e0000604082015260600190565b6020808252602b908201527f5061636b3a204270732070726f7669646564206d757374206265206c6573732060408201527f7468616e2031302c303030000000000000000000000000000000000000000000606082015260800190565b60208082526034908201527f5061636b3a204e6f7420656e6f756768204c494e4b20746f2066756c66696c6c60408201527f2072616e646f6d6e65737320726571756573742e000000000000000000000000606082015260800190565b60208082526029908201527f5061636b3a20696e76616c6964206e756d626572206f6620726577617264732060408201527f706572206f70656e2e0000000000000000000000000000000000000000000000606082015260800190565b6020808252601d908201527f5061636b3a205468652070726f746f636f6c206973207061757365642e000000604082015260600190565b60208082526032908201527f5061636b3a206d757374207761697420666f72207468652070656e64696e672060408201527f7061636b20746f206265206f70656e65642e0000000000000000000000000000606082015260800190565b60208082526010908201527f5061757361626c653a2070617573656400000000000000000000000000000000604082015260600190565b60208082526025908201527f455243313135353a207472616e7366657220746f20746865207a65726f20616460408201527f6472657373000000000000000000000000000000000000000000000000000000606082015260800190565b60208082526032908201527f455243313135353a207472616e736665722063616c6c6572206973206e6f742060408201527f6f776e6572206e6f7220617070726f7665640000000000000000000000000000606082015260800190565b60208082526023908201527f455243313135353a206275726e2066726f6d20746865207a65726f206164647260408201526265737360e81b606082015260800190565b60208082526038908201527f455243313135355072657365744d696e7465725061757365723a206d7573742060408201527f68617665206d696e74657220726f6c6520746f206d696e740000000000000000606082015260800190565b6020808252602a908201527f455243313135353a20696e73756666696369656e742062616c616e636520666f60408201527f72207472616e7366657200000000000000000000000000000000000000000000606082015260800190565b6020808252601f908201527f4f6e6c7920565246436f6f7264696e61746f722063616e2066756c66696c6c00604082015260600190565b6020808252603b908201527f455243313135355072657365744d696e7465725061757365723a206d7573742060408201527f686176652070617573657220726f6c6520746f20756e70617573650000000000606082015260800190565b60208082526039908201527f455243313135355072657365744d696e7465725061757365723a206d7573742060408201527f686176652070617573657220726f6c6520746f20706175736500000000000000606082015260800190565b6020808252602f908201527f5061636b3a2073656e646572206f776e73206e6f207061636b73206f6620746860408201527f6520676976656e207061636b49642e0000000000000000000000000000000000606082015260800190565b60208082526029908201527f455243313135353a2073657474696e6720617070726f76616c2073746174757360408201527f20666f722073656c660000000000000000000000000000000000000000000000606082015260800190565b60208082526029908201527f455243313135353a206163636f756e747320616e6420696473206c656e67746860408201527f206d69736d617463680000000000000000000000000000000000000000000000606082015260800190565b60208082526028908201527f455243313135353a2069647320616e6420616d6f756e7473206c656e6774682060408201527f6d69736d61746368000000000000000000000000000000000000000000000000606082015260800190565b60208082526021908201527f455243313135353a206d696e7420746f20746865207a65726f206164647265736040820152607360f81b606082015260800190565b60208082526032908201527f5061636b3a2072657761726420636f6e747261637420646f6573206e6f74206960408201527f6d706c656d656e742045524320313135352e0000000000000000000000000000606082015260800190565b6020808252602f908201527f416363657373436f6e74726f6c3a2063616e206f6e6c792072656e6f756e636560408201527f20726f6c657320666f722073656c660000000000000000000000000000000000606082015260800190565b60006020825261159e602083018461459e565b6000608082526153cc608083018761459e565b6001600160a01b038616602084015282810360408401526153ed8186614538565b905082810360608401526147818185614538565b600060408252615414604083018561459e565b82810360208401526001600160a01b0384511681526020840151608060208301526154426080830182614538565b90506040850151828203604084015261545b8282614538565b9150506060850151606083015280925050509392505050565b60405181810167ffffffffffffffff811182821017156154965761549661561f565b604052919050565b600067ffffffffffffffff8211156154b8576154b861561f565b5060209081020190565b600067ffffffffffffffff8211156154dc576154dc61561f565b50601f01601f191660200190565b600082198211156154fd576154fd6155f3565b500190565b60008261551157615511615609565b500490565b6000816000190483118215151615615530576155306155f3565b500290565b600082821015615547576155476155f3565b500390565b60005b8381101561556757818101518382015260200161554f565b83811115610a215750506000910152565b600081615587576155876155f3565b506000190190565b6002810460018216806155a357607f821691505b60208210811415613a8057634e487b7160e01b600052602260045260246000fd5b60006000198214156155d8576155d86155f3565b5060010190565b6000826155ee576155ee615609565b500690565b634e487b7160e01b600052601160045260246000fd5b634e487b7160e01b600052601260045260246000fd5b634e487b7160e01b600052604160045260246000fd5b60e01c90565b600060443d101561564b57611378565b600481823e6308c379a061565f8251615635565b1461566957611378565b6040513d600319016004823e80513d67ffffffffffffffff81602484011181841117156156995750505050611378565b828401925082519150808211156156b35750505050611378565b503d830160208284010111156156cb57505050611378565b601f01601f1916810160200160405291505090565b80151581146156ee57600080fd5b50565b6001600160e01b0319811681146156ee57600080fdfea164736f6c6343000800000a",
  "linkReferences": {},
  "deployedLinkReferences": {}
}