{
  "_format": "hh-sol-artifact-1",
  "contractName": "Pack",
  "sourceName": "contracts/Pack.sol",
  "abi": [
    {
      "inputs": [
        {
          "internalType": "address payable",
          "name": "_controlCenter",
          "type": "address"
        },
        {
          "internalType": "string",
          "name": "_uri",
          "type": "string"
        },
        {
          "internalType": "address",
          "name": "_vrfCoordinator",
          "type": "address"
        },
        {
          "internalType": "address",
          "name": "_linkToken",
          "type": "address"
        },
        {
          "internalType": "bytes32",
          "name": "_keyHash",
          "type": "bytes32"
        },
        {
          "internalType": "uint256",
          "name": "_fees",
          "type": "uint256"
        },
        {
          "internalType": "address",
          "name": "_trustedForwarder",
          "type": "address"
        }
      ],
      "stateMutability": "nonpayable",
      "type": "constructor"
    },
    {
      "anonymous": false,
      "inputs": [
        {
          "indexed": true,
          "internalType": "address",
          "name": "account",
          "type": "address"
        },
        {
          "indexed": true,
          "internalType": "address",
          "name": "operator",
          "type": "address"
        },
        {
          "indexed": false,
          "internalType": "bool",
          "name": "approved",
          "type": "bool"
        }
      ],
      "name": "ApprovalForAll",
      "type": "event"
    },
    {
      "anonymous": false,
      "inputs": [
        {
          "indexed": true,
          "internalType": "uint256",
          "name": "packId",
          "type": "uint256"
        },
        {
          "indexed": true,
          "internalType": "address",
          "name": "rewardContract",
          "type": "address"
        },
        {
          "indexed": true,
          "internalType": "address",
          "name": "creator",
          "type": "address"
        },
        {
          "indexed": false,
          "internalType": "uint256",
          "name": "packTotalSupply",
          "type": "uint256"
        },
        {
          "components": [
            {
              "internalType": "string",
              "name": "uri",
              "type": "string"
            },
            {
              "internalType": "address",
              "name": "creator",
              "type": "address"
            },
            {
              "internalType": "uint256",
              "name": "openStart",
              "type": "uint256"
            },
            {
              "internalType": "uint256",
              "name": "openEnd",
              "type": "uint256"
            }
          ],
          "indexed": false,
          "internalType": "struct Pack.PackState",
          "name": "packState",
          "type": "tuple"
        },
        {
          "components": [
            {
              "internalType": "address",
              "name": "source",
              "type": "address"
            },
            {
              "internalType": "uint256[]",
              "name": "tokenIds",
              "type": "uint256[]"
            },
            {
              "internalType": "uint256[]",
              "name": "amountsPacked",
              "type": "uint256[]"
            },
            {
              "internalType": "uint256",
              "name": "rewardsPerOpen",
              "type": "uint256"
            }
          ],
          "indexed": false,
          "internalType": "struct Pack.Rewards",
          "name": "rewards",
          "type": "tuple"
        }
      ],
      "name": "PackCreated",
      "type": "event"
    },
    {
      "anonymous": false,
      "inputs": [
        {
          "indexed": true,
          "internalType": "uint256",
          "name": "packId",
          "type": "uint256"
        },
        {
          "indexed": true,
          "internalType": "address",
          "name": "opener",
          "type": "address"
        },
        {
          "indexed": false,
          "internalType": "bytes32",
          "name": "requestId",
          "type": "bytes32"
        },
        {
          "indexed": true,
          "internalType": "address",
          "name": "rewardContract",
          "type": "address"
        },
        {
          "indexed": false,
          "internalType": "uint256[]",
          "name": "rewardIds",
          "type": "uint256[]"
        }
      ],
      "name": "PackOpenFulfilled",
      "type": "event"
    },
    {
      "anonymous": false,
      "inputs": [
        {
          "indexed": true,
          "internalType": "uint256",
          "name": "packId",
          "type": "uint256"
        },
        {
          "indexed": true,
          "internalType": "address",
          "name": "opener",
          "type": "address"
        },
        {
          "indexed": false,
          "internalType": "bytes32",
          "name": "requestId",
          "type": "bytes32"
        }
      ],
      "name": "PackOpenRequest",
      "type": "event"
    },
    {
      "anonymous": false,
      "inputs": [
        {
          "indexed": false,
          "internalType": "address",
          "name": "account",
          "type": "address"
        }
      ],
      "name": "Paused",
      "type": "event"
    },
    {
      "anonymous": false,
      "inputs": [
        {
          "indexed": true,
          "internalType": "bytes32",
          "name": "role",
          "type": "bytes32"
        },
        {
          "indexed": true,
          "internalType": "bytes32",
          "name": "previousAdminRole",
          "type": "bytes32"
        },
        {
          "indexed": true,
          "internalType": "bytes32",
          "name": "newAdminRole",
          "type": "bytes32"
        }
      ],
      "name": "RoleAdminChanged",
      "type": "event"
    },
    {
      "anonymous": false,
      "inputs": [
        {
          "indexed": true,
          "internalType": "bytes32",
          "name": "role",
          "type": "bytes32"
        },
        {
          "indexed": true,
          "internalType": "address",
          "name": "account",
          "type": "address"
        },
        {
          "indexed": true,
          "internalType": "address",
          "name": "sender",
          "type": "address"
        }
      ],
      "name": "RoleGranted",
      "type": "event"
    },
    {
      "anonymous": false,
      "inputs": [
        {
          "indexed": true,
          "internalType": "bytes32",
          "name": "role",
          "type": "bytes32"
        },
        {
          "indexed": true,
          "internalType": "address",
          "name": "account",
          "type": "address"
        },
        {
          "indexed": true,
          "internalType": "address",
          "name": "sender",
          "type": "address"
        }
      ],
      "name": "RoleRevoked",
      "type": "event"
    },
    {
      "anonymous": false,
      "inputs": [
        {
          "indexed": false,
          "internalType": "uint256",
          "name": "royaltyBps",
          "type": "uint256"
        }
      ],
      "name": "RoyaltyUpdated",
      "type": "event"
    },
    {
      "anonymous": false,
      "inputs": [
        {
          "indexed": true,
          "internalType": "address",
          "name": "operator",
          "type": "address"
        },
        {
          "indexed": true,
          "internalType": "address",
          "name": "from",
          "type": "address"
        },
        {
          "indexed": true,
          "internalType": "address",
          "name": "to",
          "type": "address"
        },
        {
          "indexed": false,
          "internalType": "uint256[]",
          "name": "ids",
          "type": "uint256[]"
        },
        {
          "indexed": false,
          "internalType": "uint256[]",
          "name": "values",
          "type": "uint256[]"
        }
      ],
      "name": "TransferBatch",
      "type": "event"
    },
    {
      "anonymous": false,
      "inputs": [
        {
          "indexed": true,
          "internalType": "address",
          "name": "operator",
          "type": "address"
        },
        {
          "indexed": true,
          "internalType": "address",
          "name": "from",
          "type": "address"
        },
        {
          "indexed": true,
          "internalType": "address",
          "name": "to",
          "type": "address"
        },
        {
          "indexed": false,
          "internalType": "uint256",
          "name": "id",
          "type": "uint256"
        },
        {
          "indexed": false,
          "internalType": "uint256",
          "name": "value",
          "type": "uint256"
        }
      ],
      "name": "TransferSingle",
      "type": "event"
    },
    {
      "anonymous": false,
      "inputs": [
        {
          "indexed": false,
          "internalType": "string",
          "name": "value",
          "type": "string"
        },
        {
          "indexed": true,
          "internalType": "uint256",
          "name": "id",
          "type": "uint256"
        }
      ],
      "name": "URI",
      "type": "event"
    },
    {
      "anonymous": false,
      "inputs": [
        {
          "indexed": false,
          "internalType": "address",
          "name": "account",
          "type": "address"
        }
      ],
      "name": "Unpaused",
      "type": "event"
    },
    {
      "inputs": [],
      "name": "DEFAULT_ADMIN_ROLE",
      "outputs": [
        {
          "internalType": "bytes32",
          "name": "",
          "type": "bytes32"
        }
      ],
      "stateMutability": "view",
      "type": "function"
    },
    {
      "inputs": [],
      "name": "MINTER_ROLE",
      "outputs": [
        {
          "internalType": "bytes32",
          "name": "",
          "type": "bytes32"
        }
      ],
      "stateMutability": "view",
      "type": "function"
    },
    {
      "inputs": [],
      "name": "PAUSER_ROLE",
      "outputs": [
        {
          "internalType": "bytes32",
          "name": "",
          "type": "bytes32"
        }
      ],
      "stateMutability": "view",
      "type": "function"
    },
    {
      "inputs": [],
      "name": "TRANSFER_ROLE",
      "outputs": [
        {
          "internalType": "bytes32",
          "name": "",
          "type": "bytes32"
        }
      ],
      "stateMutability": "view",
      "type": "function"
    },
    {
      "inputs": [],
      "name": "_contractURI",
      "outputs": [
        {
          "internalType": "string",
          "name": "",
          "type": "string"
        }
      ],
      "stateMutability": "view",
      "type": "function"
    },
    {
      "inputs": [
        {
          "internalType": "address",
          "name": "account",
          "type": "address"
        },
        {
          "internalType": "uint256",
          "name": "id",
          "type": "uint256"
        }
      ],
      "name": "balanceOf",
      "outputs": [
        {
          "internalType": "uint256",
          "name": "",
          "type": "uint256"
        }
      ],
      "stateMutability": "view",
      "type": "function"
    },
    {
      "inputs": [
        {
          "internalType": "address[]",
          "name": "accounts",
          "type": "address[]"
        },
        {
          "internalType": "uint256[]",
          "name": "ids",
          "type": "uint256[]"
        }
      ],
      "name": "balanceOfBatch",
      "outputs": [
        {
          "internalType": "uint256[]",
          "name": "",
          "type": "uint256[]"
        }
      ],
      "stateMutability": "view",
      "type": "function"
    },
    {
      "inputs": [
        {
          "internalType": "address",
          "name": "account",
          "type": "address"
        },
        {
          "internalType": "uint256",
          "name": "id",
          "type": "uint256"
        },
        {
          "internalType": "uint256",
          "name": "value",
          "type": "uint256"
        }
      ],
      "name": "burn",
      "outputs": [],
      "stateMutability": "nonpayable",
      "type": "function"
    },
    {
      "inputs": [
        {
          "internalType": "address",
          "name": "account",
          "type": "address"
        },
        {
          "internalType": "uint256[]",
          "name": "ids",
          "type": "uint256[]"
        },
        {
          "internalType": "uint256[]",
          "name": "values",
          "type": "uint256[]"
        }
      ],
      "name": "burnBatch",
      "outputs": [],
      "stateMutability": "nonpayable",
      "type": "function"
    },
    {
      "inputs": [],
      "name": "contractURI",
      "outputs": [
        {
          "internalType": "string",
          "name": "",
          "type": "string"
        }
      ],
      "stateMutability": "view",
      "type": "function"
    },
    {
      "inputs": [
        {
          "internalType": "uint256",
          "name": "_packId",
          "type": "uint256"
        }
      ],
      "name": "creator",
      "outputs": [
        {
          "internalType": "address",
          "name": "",
          "type": "address"
        }
      ],
      "stateMutability": "view",
      "type": "function"
    },
    {
      "inputs": [
        {
          "internalType": "uint256",
          "name": "",
          "type": "uint256"
        },
        {
          "internalType": "address",
          "name": "",
          "type": "address"
        }
      ],
      "name": "currentRequestId",
      "outputs": [
        {
          "internalType": "bytes32",
          "name": "",
          "type": "bytes32"
        }
      ],
      "stateMutability": "view",
      "type": "function"
    },
    {
      "inputs": [
        {
          "internalType": "uint256",
          "name": "_packId",
          "type": "uint256"
        }
      ],
      "name": "getPack",
      "outputs": [
        {
          "components": [
            {
              "internalType": "string",
              "name": "uri",
              "type": "string"
            },
            {
              "internalType": "address",
              "name": "creator",
              "type": "address"
            },
            {
              "internalType": "uint256",
              "name": "openStart",
              "type": "uint256"
            },
            {
              "internalType": "uint256",
              "name": "openEnd",
              "type": "uint256"
            }
          ],
          "internalType": "struct Pack.PackState",
          "name": "pack",
          "type": "tuple"
        }
      ],
      "stateMutability": "view",
      "type": "function"
    },
    {
      "inputs": [
        {
          "internalType": "uint256",
          "name": "_packId",
          "type": "uint256"
        }
      ],
      "name": "getPackWithRewards",
      "outputs": [
        {
          "components": [
            {
              "internalType": "string",
              "name": "uri",
              "type": "string"
            },
            {
              "internalType": "address",
              "name": "creator",
              "type": "address"
            },
            {
              "internalType": "uint256",
              "name": "openStart",
              "type": "uint256"
            },
            {
              "internalType": "uint256",
              "name": "openEnd",
              "type": "uint256"
            }
          ],
          "internalType": "struct Pack.PackState",
          "name": "pack",
          "type": "tuple"
        },
        {
          "internalType": "address",
          "name": "source",
          "type": "address"
        },
        {
          "internalType": "uint256[]",
          "name": "tokenIds",
          "type": "uint256[]"
        },
        {
          "internalType": "uint256[]",
          "name": "amountsPacked",
          "type": "uint256[]"
        }
      ],
      "stateMutability": "view",
      "type": "function"
    },
    {
      "inputs": [
        {
          "internalType": "bytes32",
          "name": "role",
          "type": "bytes32"
        }
      ],
      "name": "getRoleAdmin",
      "outputs": [
        {
          "internalType": "bytes32",
          "name": "",
          "type": "bytes32"
        }
      ],
      "stateMutability": "view",
      "type": "function"
    },
    {
      "inputs": [
        {
          "internalType": "bytes32",
          "name": "role",
          "type": "bytes32"
        },
        {
          "internalType": "uint256",
          "name": "index",
          "type": "uint256"
        }
      ],
      "name": "getRoleMember",
      "outputs": [
        {
          "internalType": "address",
          "name": "",
          "type": "address"
        }
      ],
      "stateMutability": "view",
      "type": "function"
    },
    {
      "inputs": [
        {
          "internalType": "bytes32",
          "name": "role",
          "type": "bytes32"
        }
      ],
      "name": "getRoleMemberCount",
      "outputs": [
        {
          "internalType": "uint256",
          "name": "",
          "type": "uint256"
        }
      ],
      "stateMutability": "view",
      "type": "function"
    },
    {
      "inputs": [
        {
          "internalType": "bytes32",
          "name": "role",
          "type": "bytes32"
        },
        {
          "internalType": "address",
          "name": "account",
          "type": "address"
        }
      ],
      "name": "grantRole",
      "outputs": [],
      "stateMutability": "nonpayable",
      "type": "function"
    },
    {
      "inputs": [
        {
          "internalType": "bytes32",
          "name": "role",
          "type": "bytes32"
        },
        {
          "internalType": "address",
          "name": "account",
          "type": "address"
        }
      ],
      "name": "hasRole",
      "outputs": [
        {
          "internalType": "bool",
          "name": "",
          "type": "bool"
        }
      ],
      "stateMutability": "view",
      "type": "function"
    },
    {
      "inputs": [
        {
          "internalType": "address",
          "name": "account",
          "type": "address"
        },
        {
          "internalType": "address",
          "name": "operator",
          "type": "address"
        }
      ],
      "name": "isApprovedForAll",
      "outputs": [
        {
          "internalType": "bool",
          "name": "",
          "type": "bool"
        }
      ],
      "stateMutability": "view",
      "type": "function"
    },
    {
      "inputs": [
        {
          "internalType": "address",
          "name": "forwarder",
          "type": "address"
        }
      ],
      "name": "isTrustedForwarder",
      "outputs": [
        {
          "internalType": "bool",
          "name": "",
          "type": "bool"
        }
      ],
      "stateMutability": "view",
      "type": "function"
    },
    {
      "inputs": [
        {
          "internalType": "address",
          "name": "",
          "type": "address"
        },
        {
          "internalType": "uint256",
          "name": "",
          "type": "uint256"
        },
        {
          "internalType": "uint256",
          "name": "",
          "type": "uint256"
        },
        {
          "internalType": "bytes",
          "name": "",
          "type": "bytes"
        }
      ],
      "name": "mint",
      "outputs": [],
      "stateMutability": "nonpayable",
      "type": "function"
    },
    {
      "inputs": [
        {
          "internalType": "address",
          "name": "",
          "type": "address"
        },
        {
          "internalType": "uint256[]",
          "name": "",
          "type": "uint256[]"
        },
        {
          "internalType": "uint256[]",
          "name": "",
          "type": "uint256[]"
        },
        {
          "internalType": "bytes",
          "name": "",
          "type": "bytes"
        }
      ],
      "name": "mintBatch",
      "outputs": [],
      "stateMutability": "nonpayable",
      "type": "function"
    },
    {
      "inputs": [],
      "name": "nextTokenId",
      "outputs": [
        {
          "internalType": "uint256",
          "name": "",
          "type": "uint256"
        }
      ],
      "stateMutability": "view",
      "type": "function"
    },
    {
      "inputs": [
        {
          "internalType": "address",
          "name": "",
          "type": "address"
        },
        {
          "internalType": "address",
          "name": "_from",
          "type": "address"
        },
        {
          "internalType": "uint256[]",
          "name": "_ids",
          "type": "uint256[]"
        },
        {
          "internalType": "uint256[]",
          "name": "_values",
          "type": "uint256[]"
        },
        {
          "internalType": "bytes",
          "name": "_data",
          "type": "bytes"
        }
      ],
      "name": "onERC1155BatchReceived",
      "outputs": [
        {
          "internalType": "bytes4",
          "name": "",
          "type": "bytes4"
        }
      ],
      "stateMutability": "nonpayable",
      "type": "function"
    },
    {
      "inputs": [
        {
          "internalType": "address",
          "name": "",
          "type": "address"
        },
        {
          "internalType": "address",
          "name": "",
          "type": "address"
        },
        {
          "internalType": "uint256",
          "name": "",
          "type": "uint256"
        },
        {
          "internalType": "uint256",
          "name": "",
          "type": "uint256"
        },
        {
          "internalType": "bytes",
          "name": "",
          "type": "bytes"
        }
      ],
      "name": "onERC1155Received",
      "outputs": [
        {
          "internalType": "bytes4",
          "name": "",
          "type": "bytes4"
        }
      ],
      "stateMutability": "nonpayable",
      "type": "function"
    },
    {
      "inputs": [
        {
          "internalType": "address",
          "name": "",
          "type": "address"
        },
        {
          "internalType": "address",
          "name": "",
          "type": "address"
        },
        {
          "internalType": "uint256",
          "name": "",
          "type": "uint256"
        },
        {
          "internalType": "bytes",
          "name": "",
          "type": "bytes"
        }
      ],
      "name": "onERC721Received",
      "outputs": [
        {
          "internalType": "bytes4",
          "name": "",
          "type": "bytes4"
        }
      ],
      "stateMutability": "nonpayable",
      "type": "function"
    },
    {
      "inputs": [
        {
          "internalType": "uint256",
          "name": "_packId",
          "type": "uint256"
        }
      ],
      "name": "openPack",
      "outputs": [],
      "stateMutability": "nonpayable",
      "type": "function"
    },
    {
      "inputs": [
        {
          "internalType": "uint256",
          "name": "",
          "type": "uint256"
        }
      ],
      "name": "packs",
      "outputs": [
        {
          "internalType": "string",
          "name": "uri",
          "type": "string"
        },
        {
          "internalType": "address",
          "name": "creator",
          "type": "address"
        },
        {
          "internalType": "uint256",
          "name": "openStart",
          "type": "uint256"
        },
        {
          "internalType": "uint256",
          "name": "openEnd",
          "type": "uint256"
        }
      ],
      "stateMutability": "view",
      "type": "function"
    },
    {
      "inputs": [],
      "name": "pause",
      "outputs": [],
      "stateMutability": "nonpayable",
      "type": "function"
    },
    {
      "inputs": [],
      "name": "paused",
      "outputs": [
        {
          "internalType": "bool",
          "name": "",
          "type": "bool"
        }
      ],
      "stateMutability": "view",
      "type": "function"
    },
    {
      "inputs": [
        {
          "internalType": "bytes32",
          "name": "",
          "type": "bytes32"
        }
      ],
      "name": "randomnessRequests",
      "outputs": [
        {
          "internalType": "uint256",
          "name": "packId",
          "type": "uint256"
        },
        {
          "internalType": "address",
          "name": "opener",
          "type": "address"
        }
      ],
      "stateMutability": "view",
      "type": "function"
    },
    {
      "inputs": [
        {
          "internalType": "bytes32",
          "name": "requestId",
          "type": "bytes32"
        },
        {
          "internalType": "uint256",
          "name": "randomness",
          "type": "uint256"
        }
      ],
      "name": "rawFulfillRandomness",
      "outputs": [],
      "stateMutability": "nonpayable",
      "type": "function"
    },
    {
      "inputs": [
        {
          "internalType": "bytes32",
          "name": "role",
          "type": "bytes32"
        },
        {
          "internalType": "address",
          "name": "account",
          "type": "address"
        }
      ],
      "name": "renounceRole",
      "outputs": [],
      "stateMutability": "nonpayable",
      "type": "function"
    },
    {
      "inputs": [
        {
          "internalType": "bytes32",
          "name": "role",
          "type": "bytes32"
        },
        {
          "internalType": "address",
          "name": "account",
          "type": "address"
        }
      ],
      "name": "revokeRole",
      "outputs": [],
      "stateMutability": "nonpayable",
      "type": "function"
    },
    {
      "inputs": [
        {
          "internalType": "uint256",
          "name": "",
          "type": "uint256"
        }
      ],
      "name": "rewards",
      "outputs": [
        {
          "internalType": "address",
          "name": "source",
          "type": "address"
        },
        {
          "internalType": "uint256",
          "name": "rewardsPerOpen",
          "type": "uint256"
        }
      ],
      "stateMutability": "view",
      "type": "function"
    },
    {
      "inputs": [],
      "name": "royaltyBps",
      "outputs": [
        {
          "internalType": "uint256",
          "name": "",
          "type": "uint256"
        }
      ],
      "stateMutability": "view",
      "type": "function"
    },
    {
      "inputs": [
        {
          "internalType": "uint256",
          "name": "",
          "type": "uint256"
        },
        {
          "internalType": "uint256",
          "name": "salePrice",
          "type": "uint256"
        }
      ],
      "name": "royaltyInfo",
      "outputs": [
        {
          "internalType": "address",
          "name": "receiver",
          "type": "address"
        },
        {
          "internalType": "uint256",
          "name": "royaltyAmount",
          "type": "uint256"
        }
      ],
      "stateMutability": "view",
      "type": "function"
    },
    {
      "inputs": [
        {
          "internalType": "address",
          "name": "from",
          "type": "address"
        },
        {
          "internalType": "address",
          "name": "to",
          "type": "address"
        },
        {
          "internalType": "uint256[]",
          "name": "ids",
          "type": "uint256[]"
        },
        {
          "internalType": "uint256[]",
          "name": "amounts",
          "type": "uint256[]"
        },
        {
          "internalType": "bytes",
          "name": "data",
          "type": "bytes"
        }
      ],
      "name": "safeBatchTransferFrom",
      "outputs": [],
      "stateMutability": "nonpayable",
      "type": "function"
    },
    {
      "inputs": [
        {
          "internalType": "address",
          "name": "from",
          "type": "address"
        },
        {
          "internalType": "address",
          "name": "to",
          "type": "address"
        },
        {
          "internalType": "uint256",
          "name": "id",
          "type": "uint256"
        },
        {
          "internalType": "uint256",
          "name": "amount",
          "type": "uint256"
        },
        {
          "internalType": "bytes",
          "name": "data",
          "type": "bytes"
        }
      ],
      "name": "safeTransferFrom",
      "outputs": [],
      "stateMutability": "nonpayable",
      "type": "function"
    },
    {
      "inputs": [
        {
          "internalType": "address",
          "name": "operator",
          "type": "address"
        },
        {
          "internalType": "bool",
          "name": "approved",
          "type": "bool"
        }
      ],
      "name": "setApprovalForAll",
      "outputs": [],
      "stateMutability": "nonpayable",
      "type": "function"
    },
    {
      "inputs": [
        {
          "internalType": "uint256",
          "name": "_newFees",
          "type": "uint256"
        }
      ],
      "name": "setChainlinkFees",
      "outputs": [],
      "stateMutability": "nonpayable",
      "type": "function"
    },
    {
      "inputs": [
        {
          "internalType": "string",
          "name": "_URI",
          "type": "string"
        }
      ],
      "name": "setContractURI",
      "outputs": [],
      "stateMutability": "nonpayable",
      "type": "function"
    },
    {
      "inputs": [
        {
          "internalType": "bool",
          "name": "_restrictedTransfer",
          "type": "bool"
        }
      ],
      "name": "setRestrictedTransfer",
      "outputs": [],
      "stateMutability": "nonpayable",
      "type": "function"
    },
    {
      "inputs": [
        {
          "internalType": "uint256",
          "name": "_royaltyBps",
          "type": "uint256"
        }
      ],
      "name": "setRoyaltyBps",
      "outputs": [],
      "stateMutability": "nonpayable",
      "type": "function"
    },
    {
      "inputs": [
        {
          "internalType": "bytes4",
          "name": "interfaceId",
          "type": "bytes4"
        }
      ],
      "name": "supportsInterface",
      "outputs": [
        {
          "internalType": "bool",
          "name": "",
          "type": "bool"
        }
      ],
      "stateMutability": "view",
      "type": "function"
    },
    {
      "inputs": [
        {
          "internalType": "uint256",
          "name": "_id",
          "type": "uint256"
        }
      ],
      "name": "tokenURI",
      "outputs": [
        {
          "internalType": "string",
          "name": "",
          "type": "string"
        }
      ],
      "stateMutability": "view",
      "type": "function"
    },
    {
      "inputs": [
        {
          "internalType": "uint256",
          "name": "id",
          "type": "uint256"
        }
      ],
      "name": "totalSupply",
      "outputs": [
        {
          "internalType": "uint256",
          "name": "",
          "type": "uint256"
        }
      ],
      "stateMutability": "view",
      "type": "function"
    },
    {
      "inputs": [
        {
          "internalType": "address",
          "name": "_to",
          "type": "address"
        },
        {
          "internalType": "uint256",
          "name": "_amount",
          "type": "uint256"
        }
      ],
      "name": "transferLink",
      "outputs": [],
      "stateMutability": "nonpayable",
      "type": "function"
    },
    {
      "inputs": [],
      "name": "transfersRestricted",
      "outputs": [
        {
          "internalType": "bool",
          "name": "",
          "type": "bool"
        }
      ],
      "stateMutability": "view",
      "type": "function"
    },
    {
      "inputs": [],
      "name": "unpause",
      "outputs": [],
      "stateMutability": "nonpayable",
      "type": "function"
    },
    {
      "inputs": [
        {
          "internalType": "uint256",
          "name": "_id",
          "type": "uint256"
        }
      ],
      "name": "uri",
      "outputs": [
        {
          "internalType": "string",
          "name": "",
          "type": "string"
        }
      ],
      "stateMutability": "view",
      "type": "function"
    },
    {
      "inputs": [],
      "name": "vrfFees",
      "outputs": [
        {
          "internalType": "uint256",
          "name": "",
          "type": "uint256"
        }
      ],
      "stateMutability": "view",
      "type": "function"
    },
    {
      "inputs": [],
      "name": "vrfKeyHash",
      "outputs": [
        {
          "internalType": "bytes32",
          "name": "",
          "type": "bytes32"
        }
      ],
      "stateMutability": "view",
      "type": "function"
    }
  ],
  "bytecode": "0x60c06040523480156200001157600080fd5b5060405162005fef38038062005fef833981016040819052620000349162000436565b8085858880620000448162000169565b506005805460ff191690556200006560006200005f62000182565b6200019f565b620000947f9f2df0fed2c77648de5860a4cc508cd0818c85b8b8a1ab4ceeef8d981c8956a66200005f62000182565b620000c37f65d7a28e3265b37a6474929f336521b332c1681b933f6cb9f3376673440d862a6200005f62000182565b506001600160601b0319606092831b811660a052911b16608052600880546001600160a01b039283166001600160a01b03199182161790915560098054928a1692909116919091179055600f839055600e82905585516200012c90600c90602089019062000383565b506200015c7f8502233096d909befbda0999bb8ea2f3a6be3c138b9fbf003752a4c8bce86f6c6200005f62000182565b50505050505050620005d5565b80516200017e90600490602084019062000383565b5050565b600062000199620001e260201b620021ac1760201c565b90505b90565b620001b682826200022260201b620021da1760201c565b6000828152600160209081526040909120620001dd918390620021e46200022e821b17901c565b505050565b6000620001ef336200024e565b1562000205575060131936013560601c6200019c565b6200021a6200026560201b620021f91760201c565b90506200019c565b6200017e828262000269565b600062000245836001600160a01b038416620002f3565b90505b92915050565b6008546001600160a01b038281169116145b919050565b3390565b62000275828262000342565b6200017e576000828152602081815260408083206001600160a01b03851684529091529020805460ff19166001179055620002af62000182565b6001600160a01b0316816001600160a01b0316837f2f8788117e7eff1d82e926ec794901d17c78024a50270940304540a733656f0d60405160405180910390a45050565b60006200030183836200036b565b620003395750815460018181018455600084815260208082209093018490558454848252828601909352604090209190915562000248565b50600062000248565b6000918252602082815260408084206001600160a01b0393909316845291905290205460ff1690565b60009081526001919091016020526040902054151590565b828054620003919062000569565b90600052602060002090601f016020900481019282620003b5576000855562000400565b82601f10620003d057805160ff191683800117855562000400565b8280016001018555821562000400579182015b8281111562000400578251825591602001919060010190620003e3565b506200040e92915062000412565b5090565b5b808211156200040e576000815560010162000413565b80516200026081620005bc565b600080600080600080600060e0888a03121562000451578283fd5b87516200045e81620005bc565b602089810151919850906001600160401b03808211156200047d578586fd5b818b0191508b601f83011262000491578586fd5b815181811115620004a657620004a6620005a6565b604051601f8201601f1916810185018381118282101715620004cc57620004cc620005a6565b60405281815283820185018e1015620004e3578788fd5b8792505b81831015620005065783830185015181840186015291840191620004e7565b818311156200051757878583830101525b809a5050505050506200052d6040890162000429565b94506200053d6060890162000429565b93506080880151925060a088015191506200055b60c0890162000429565b905092959891949750929550565b6002810460018216806200057e57607f821691505b60208210811415620005a057634e487b7160e01b600052602260045260246000fd5b50919050565b634e487b7160e01b600052604160045260246000fd5b6001600160a01b0381168114620005d257600080fd5b50565b60805160601c60a05160601c6159d9620006166000396000818161193c015261253a01526000818161127001528181612104015261250b01526159d96000f3fe608060405234801561001057600080fd5b50600436106103615760003560e01c80638456cb59116101c8578063c0e7274011610104578063e8a3d485116100a2578063f242432a1161007c578063f242432a1461070c578063f301af421461071f578063f5298aca14610732578063f99b1d681461074557610361565b8063e8a3d485146106de578063e985e9c5146106e6578063f23a6e61146106f957610361565b8063ca15c873116100de578063ca15c873146106a8578063d5391393146106bb578063d547741f146106c3578063e63ab1e9146106d657610361565b8063c0e7274014610698578063c63adb2b146106a0578063c87b56dd146103b757610361565b806394985ddd11610171578063b277ca451161014b578063b277ca451461063c578063b84c13921461064f578063bc197c8114610672578063bd85b0391461068557610361565b806394985ddd1461060e578063a217fddf14610621578063a22cb4651461062957610361565b80639010d07c116101a25780639010d07c146105d557806391d14854146105e8578063938e3d7b146105fb57610361565b80638456cb591461059a578063895ec54c146105a25780638ba448c2146105c257610361565b80632f2ff15d116102a2578063572b6c05116102405780636b20c4541161021a5780636b20c45414610569578063731133e91461057c57806375794a3c1461058a5780638423df791461059257610361565b8063572b6c051461052d5780635c975abb146105405780635e619b781461054857610361565b80634e1273f41161027c5780634e1273f4146104c757806350a88c7e146104e7578063510b5158146104fa5780635318c48f1461051a57610361565b80632f2ff15d1461049957806336568abe146104ac5780633f4ba83a146104bf57610361565b8063150b7a021161030f578063206b60f9116102e9578063206b60f91461044a578063248a9ca3146104525780632a55205a146104655780632eb2c2d61461048657610361565b8063150b7a02146104025780631f72d831146104225780631f7fdffa1461043757610361565b80630e89341c116103405780630e89341c146103b757806310983e57146103d757806310e34e67146103df57610361565b8062fdd58e1461036657806301ffc9a71461038f578063041d443e146103af575b600080fd5b61037961037436600461442c565b610758565b6040516103869190614a7b565b60405180910390f35b6103a261039d366004614641565b6107b4565b6040516103869190614a70565b6103796107df565b6103ca6103c53660046145cc565b6107e5565b6040516103869190614aed565b610379610887565b6103f26103ed3660046145cc565b61088d565b6040516103869493929190615631565b610415610410366004614230565b610a4f565b6040516103869190614ad8565b6104356104303660046145cc565b610a5f565b005b610435610445366004614374565b610cfb565b610379610d13565b6103796104603660046145cc565b610d37565b610478610473366004614620565b610d4c565b6040516103869291906149ee565b610435610494366004614186565b610e90565b6104356104a73660046145fc565b610eee565b6104356104ba3660046145fc565b610f15565b610435610f37565b6104da6104d53660046144d4565b610f89565b6040516103869190614a38565b6104356104f53660046145cc565b6110a9565b61050d6105083660046145cc565b61148f565b60405161038691906148e1565b6103796105283660046145fc565b6114ad565b6103a261053b366004614116565b6114ca565b6103a26114de565b61055b6105563660046145cc565b6114e8565b604051610386929190614a84565b610435610577366004614301565b61150a565b61043561044536600461448b565b61037961155f565b6103a2611565565b61043561156e565b6105b56105b03660046145cc565b6115be565b604051610386919061561e565b6104356105d0366004614594565b61169e565b61050d6105e3366004614620565b6117c7565b6103a26105f63660046145fc565b6117e6565b610435610609366004614679565b61180f565b61043561061c366004614620565b611931565b610379611987565b6104356106373660046143ff565b61198c565b61043561064a3660046145cc565b611a5a565b61066261065d3660046145cc565b611b75565b6040516103869493929190614b00565b610415610680366004614186565b611c31565b6103796106933660046145cc565b611d1a565b6103ca611d2c565b610379611dba565b6103796106b63660046145cc565b611dc0565b610379611dd7565b6104356106d13660046145fc565b611dfb565b610379611e05565b6103ca611e29565b6103a26106f436600461414e565b611ebb565b61041561070736600461429a565b611ee9565b61043561071a36600461429a565b611f03565b61047861072d3660046145cc565b611f5a565b610435610740366004614457565b611f7f565b61043561075336600461442c565b611fd4565b60006001600160a01b0383166107895760405162461bcd60e51b815260040161078090614d03565b60405180910390fd5b5060008181526002602090815260408083206001600160a01b03861684529091529020545b92915050565b60006107bf826121fd565b806107ae57506001600160e01b0319821663152a902d60e11b1492915050565b600f5481565b60008181526010602052604090208054606091906108029061583f565b80601f016020809104026020016040519081016040528092919081815260200182805461082e9061583f565b801561087b5780601f106108505761010080835404028352916020019161087b565b820191906000526020600020905b81548152906001019060200180831161085e57829003601f168201915b50505050509050919050565b600e5481565b610895613ee6565b6000606080601060008681526020019081526020016000206040518060800160405290816000820180546108c89061583f565b80601f01602080910402602001604051908101604052809291908181526020018280546108f49061583f565b80156109415780601f1061091657610100808354040283529160200191610941565b820191906000526020600020905b81548152906001019060200180831161092457829003601f168201915b50505091835250506001828101546001600160a01b03908116602080850191909152600285015460408086019190915260039095015460609094019390935260008a815260118452849020805492018054855181860281018601909652808652959950911696509192908301828280156109da57602002820191906000526020600020905b8154815260200190600101908083116109c6575b5050505050915060116000868152602001908152602001600020600201805480602002602001604051908101604052809291908181526020018280548015610a4157602002820191906000526020600020905b815481526020019060010190808311610a2d575b505050505090509193509193565b630a85bd0160e11b949350505050565b60095460408051634a32c6bf60e11b815290516001600160a01b03909216916391d148549183916394658d7e91600480820192602092909190829003018186803b158015610aac57600080fd5b505afa158015610ac0573d6000803e3d6000fd5b505050506040513d601f19601f82011682018060405250810190610ae491906145e4565b610aec612208565b6040518363ffffffff1660e01b8152600401610b09929190614a84565b60206040518083038186803b158015610b2157600080fd5b505afa158015610b35573d6000803e3d6000fd5b505050506040513d601f19601f82011682018060405250810190610b5991906145b0565b610b755760405162461bcd60e51b815260040161078090614c12565b600960009054906101000a90046001600160a01b03166001600160a01b0316635cd423156040518163ffffffff1660e01b815260040160206040518083038186803b158015610bc357600080fd5b505afa158015610bd7573d6000803e3d6000fd5b505050506040513d601f19601f82011682018060405250810190610bfb9190614774565b600960009054906101000a90046001600160a01b03166001600160a01b031663fd967f476040518163ffffffff1660e01b815260040160206040518083038186803b158015610c4957600080fd5b505afa158015610c5d573d6000803e3d6000fd5b505050506040513d601f19601f82011682018060405250810190610c819190614774565b610c8b91906157b4565b6fffffffffffffffffffffffffffffffff168110610cbb5760405162461bcd60e51b81526004016107809061551b565b600b8190556040517f244ea8d7627f5a08f4299862bd5a45752842c183aee5b0fb0d1e4887bfa605b390610cf0908390614a7b565b60405180910390a150565b60405162461bcd60e51b8152600401610780906151db565b7f8502233096d909befbda0999bb8ea2f3a6be3c138b9fbf003752a4c8bce86f6c81565b60009081526020819052604090206001015490565b600080600960009054906101000a90046001600160a01b03166001600160a01b0316630f603ed36040518163ffffffff1660e01b815260040160206040518083038186803b158015610d9d57600080fd5b505afa158015610db1573d6000803e3d6000fd5b505050506040513d601f19601f82011682018060405250810190610dd59190614132565b9150600960009054906101000a90046001600160a01b03166001600160a01b031663fd967f476040518163ffffffff1660e01b815260040160206040518083038186803b158015610e2557600080fd5b505afa158015610e39573d6000803e3d6000fd5b505050506040513d601f19601f82011682018060405250810190610e5d9190614774565b6fffffffffffffffffffffffffffffffff16600b5484610e7d9190615795565b610e879190615781565b90509250929050565b610e98612208565b6001600160a01b0316856001600160a01b03161480610ebe5750610ebe856106f4612208565b610eda5760405162461bcd60e51b815260040161078090615037565b610ee78585858585612217565b5050505050565b610ef882826123eb565b6000828152600160205260409020610f1090826121e4565b505050565b610f1f828261240f565b6000828152600160205260409020610f109082612451565b610f637f65d7a28e3265b37a6474929f336521b332c1681b933f6cb9f3376673440d862a6105f6612208565b610f7f5760405162461bcd60e51b8152600401610780906152e9565b610f87612466565b565b60608151835114610fac5760405162461bcd60e51b815260040161078090615449565b6000835167ffffffffffffffff811115610fd657634e487b7160e01b600052604160045260246000fd5b604051908082528060200260200182016040528015610fff578160200160208202803683370190505b50905060005b84518110156110a15761106685828151811061103157634e487b7160e01b600052603260045260246000fd5b602002602001015185838151811061105957634e487b7160e01b600052603260045260246000fd5b6020026020010151610758565b82828151811061108657634e487b7160e01b600052603260045260246000fd5b602090810291909101015261109a81615874565b9050611005565b509392505050565b600960009054906101000a90046001600160a01b03166001600160a01b0316639d2f83f06040518163ffffffff1660e01b815260040160206040518083038186803b1580156110f757600080fd5b505afa15801561110b573d6000803e3d6000fd5b505050506040513d601f19601f8201168201806040525081019061112f91906145b0565b1561114c5760405162461bcd60e51b815260040161078090614f27565b6000818152601060205260408082208151608081019092528054829082906111739061583f565b80601f016020809104026020016040519081016040528092919081815260200182805461119f9061583f565b80156111ec5780601f106111c1576101008083540402835291602001916111ec565b820191906000526020600020905b8154815290600101906020018083116111cf57829003601f168201915b505050918352505060018201546001600160a01b031660208201526002820154604080830191909152600390920154606090910152810151909150421080159061123a575080606001514211155b6112565760405162461bcd60e51b815260040161078090614c6f565b600e546040516370a0823160e01b81526001600160a01b037f000000000000000000000000000000000000000000000000000000000000000016906370a08231906112a59030906004016148e1565b60206040518083038186803b1580156112bd57600080fd5b505afa1580156112d1573d6000803e3d6000fd5b505050506040513d601f19601f820116820180604052508101906112f591906145e4565b10156113135760405162461bcd60e51b815260040161078090614e81565b6000611326611320612208565b84610758565b116113435760405162461bcd60e51b8152600401610780906153a3565b60008281526013602052604081209061135a612208565b6001600160a01b03168152602081019190915260400160002054156113915760405162461bcd60e51b815260040161078090614f5e565b6113a461139c612208565b8360016124d4565b60006113b4600f54600e54612507565b905060405180604001604052808481526020016113cf612208565b6001600160a01b0390811690915260008381526012602090815260408083208551815594820151600190950180546001600160a01b031916959094169490941790925585815260139091529081208291611427612208565b6001600160a01b03168152602081019190915260400160002055611449612208565b6001600160a01b0316837fb5c27afec62496e403fae78e07136ae7c58425e8128c7b680ea24dee8c8d9401836040516114829190614a7b565b60405180910390a3505050565b6000908152601060205260409020600101546001600160a01b031690565b601360209081526000928352604080842090915290825290205481565b6008546001600160a01b0390811691161490565b60055460ff165b90565b601260205260009081526040902080546001909101546001600160a01b031682565b611512612208565b6001600160a01b0316836001600160a01b031614806115385750611538836106f4612208565b6115545760405162461bcd60e51b815260040161078090614e01565b610f1083838361264a565b600a5481565b600d5460ff1681565b61159a7f65d7a28e3265b37a6474929f336521b332c1681b933f6cb9f3376673440d862a6105f6612208565b6115b65760405162461bcd60e51b815260040161078090615346565b610f876126ee565b6115c6613ee6565b600082815260106020526040908190208151608081019092528054829082906115ee9061583f565b80601f016020809104026020016040519081016040528092919081815260200182805461161a9061583f565b80156116675780601f1061163c57610100808354040283529160200191611667565b820191906000526020600020905b81548152906001019060200180831161164a57829003601f168201915b505050918352505060018201546001600160a01b031660208201526002820154604082015260039091015460609091015292915050565b60095460408051634a32c6bf60e11b815290516001600160a01b03909216916391d148549183916394658d7e91600480820192602092909190829003018186803b1580156116eb57600080fd5b505afa1580156116ff573d6000803e3d6000fd5b505050506040513d601f19601f8201168201806040525081019061172391906145e4565b61172b612208565b6040518363ffffffff1660e01b8152600401611748929190614a84565b60206040518083038186803b15801561176057600080fd5b505afa158015611774573d6000803e3d6000fd5b505050506040513d601f19601f8201168201806040525081019061179891906145b0565b6117b45760405162461bcd60e51b815260040161078090614c12565b600d805460ff1916911515919091179055565b60008281526001602052604081206117df9083612749565b9392505050565b6000918252602082815260408084206001600160a01b0393909316845291905290205460ff1690565b60095460408051634a32c6bf60e11b815290516001600160a01b03909216916391d148549183916394658d7e91600480820192602092909190829003018186803b15801561185c57600080fd5b505afa158015611870573d6000803e3d6000fd5b505050506040513d601f19601f8201168201806040525081019061189491906145e4565b61189c612208565b6040518363ffffffff1660e01b81526004016118b9929190614a84565b60206040518083038186803b1580156118d157600080fd5b505afa1580156118e5573d6000803e3d6000fd5b505050506040513d601f19601f8201168201806040525081019061190991906145b0565b6119255760405162461bcd60e51b815260040161078090614c12565b610f10600c8383613f17565b336001600160a01b037f000000000000000000000000000000000000000000000000000000000000000016146119795760405162461bcd60e51b81526004016107809061521e565b6119838282612755565b5050565b600081565b816001600160a01b031661199e612208565b6001600160a01b031614156119c55760405162461bcd60e51b815260040161078090615400565b80600360006119d2612208565b6001600160a01b03908116825260208083019390935260409182016000908120918716808252919093529120805460ff191692151592909217909155611a16612208565b6001600160a01b03167f17307eab39ab6107e8899845ad3d59bd9653f200f220920489ca2b5937696c3183604051611a4e9190614a70565b60405180910390a35050565b60095460408051634a32c6bf60e11b815290516001600160a01b03909216916391d148549183916394658d7e91600480820192602092909190829003018186803b158015611aa757600080fd5b505afa158015611abb573d6000803e3d6000fd5b505050506040513d601f19601f82011682018060405250810190611adf91906145e4565b611ae7612208565b6040518363ffffffff1660e01b8152600401611b04929190614a84565b60206040518083038186803b158015611b1c57600080fd5b505afa158015611b30573d6000803e3d6000fd5b505050506040513d601f19601f82011682018060405250810190611b5491906145b0565b611b705760405162461bcd60e51b815260040161078090614c12565b600e55565b601060205260009081526040902080548190611b909061583f565b80601f0160208091040260200160405190810160405280929190818152602001828054611bbc9061583f565b8015611c095780601f10611bde57610100808354040283529160200191611c09565b820191906000526020600020905b815481529060010190602001808311611bec57829003601f168201915b505050506001830154600284015460039094015492936001600160a01b039091169290915084565b600954604080516309d2f83f60e41b815290516000926001600160a01b031691639d2f83f0916004808301926020929190829003018186803b158015611c7657600080fd5b505afa158015611c8a573d6000803e3d6000fd5b505050506040513d601f19601f82011682018060405250810190611cae91906145b0565b15611ccb5760405162461bcd60e51b815260040161078090614f27565b60008060008085806020019051810190611ce591906146e6565b9350935093509350611d048985611cfa612208565b8b8b88888861294e565b5063bc197c8160e01b9998505050505050505050565b60009081526006602052604090205490565b600c8054611d399061583f565b80601f0160208091040260200160405190810160405280929190818152602001828054611d659061583f565b8015611db25780601f10611d8757610100808354040283529160200191611db2565b820191906000526020600020905b815481529060010190602001808311611d9557829003601f168201915b505050505081565b600b5481565b60008181526001602052604081206107ae90612cfe565b7f9f2df0fed2c77648de5860a4cc508cd0818c85b8b8a1ab4ceeef8d981c8956a681565b610f1f8282612d09565b7f65d7a28e3265b37a6474929f336521b332c1681b933f6cb9f3376673440d862a81565b6060600c8054611e389061583f565b80601f0160208091040260200160405190810160405280929190818152602001828054611e649061583f565b8015611eb15780601f10611e8657610100808354040283529160200191611eb1565b820191906000526020600020905b815481529060010190602001808311611e9457829003601f168201915b5050505050905090565b6001600160a01b03918216600090815260036020908152604080832093909416825291909152205460ff1690565b600060405162461bcd60e51b815260040161078090615255565b611f0b612208565b6001600160a01b0316856001600160a01b03161480611f315750611f31856106f4612208565b611f4d5760405162461bcd60e51b815260040161078090614e01565b610ee78585858585612d28565b601160205260009081526040902080546003909101546001600160a01b039091169082565b611f87612208565b6001600160a01b0316836001600160a01b03161480611fad5750611fad836106f4612208565b611fc95760405162461bcd60e51b815260040161078090614e01565b610f108383836124d4565b60095460408051634a32c6bf60e11b815290516001600160a01b03909216916391d148549183916394658d7e91600480820192602092909190829003018186803b15801561202157600080fd5b505afa158015612035573d6000803e3d6000fd5b505050506040513d601f19601f8201168201806040525081019061205991906145e4565b612061612208565b6040518363ffffffff1660e01b815260040161207e929190614a84565b60206040518083038186803b15801561209657600080fd5b505afa1580156120aa573d6000803e3d6000fd5b505050506040513d601f19601f820116820180604052508101906120ce91906145b0565b6120ea5760405162461bcd60e51b815260040161078090614c12565b60405163a9059cbb60e01b81526000906001600160a01b037f0000000000000000000000000000000000000000000000000000000000000000169063a9059cbb9061213b90869086906004016149ee565b602060405180830381600087803b15801561215557600080fd5b505af1158015612169573d6000803e3d6000fd5b505050506040513d601f19601f8201168201806040525081019061218d91906145b0565b905080610f105760405162461bcd60e51b815260040161078090614e4a565b60006121b7336114ca565b156121cb575060131936013560601c6114e5565b6121d36121f9565b90506114e5565b6119838282612e6f565b60006117df836001600160a01b038416612ef4565b3390565b60006107ae82612f3e565b60006122126121ac565b905090565b81518351146122385760405162461bcd60e51b815260040161078090615492565b6001600160a01b03841661225e5760405162461bcd60e51b815260040161078090614ff2565b6000612268612208565b9050612278818787878787612f63565b60005b845181101561237d5760008582815181106122a657634e487b7160e01b600052603260045260246000fd5b6020026020010151905060008583815181106122d257634e487b7160e01b600052603260045260246000fd5b60209081029190910181015160008481526002835260408082206001600160a01b038e1683529093529190912054909150818110156123235760405162461bcd60e51b815260040161078090615134565b60008381526002602090815260408083206001600160a01b038e8116855292528083208585039055908b16825281208054849290612362908490615769565b925050819055505050508061237690615874565b905061227b565b50846001600160a01b0316866001600160a01b0316826001600160a01b03167f4a39dc06d4c0dbc64b70af90fd698a233a518aa5d07e595d983b8c0526c8f7fb87876040516123cd929190614a4b565b60405180910390a46123e3818787878787612ff2565b505050505050565b6123f482610d37565b61240581612400612208565b613100565b610f108383612e6f565b612417612208565b6001600160a01b0316816001600160a01b0316146124475760405162461bcd60e51b8152600401610780906155c1565b6119838282613164565b60006117df836001600160a01b0384166131e7565b61246e6114de565b61248a5760405162461bcd60e51b815260040161078090614ccc565b6005805460ff191690557f5db9ee0a495bf2e6ff9c91a7834c1ba4fdd244a5e8aa4e537bd38aeae4b073aa6124bd612208565b6040516124ca91906148e1565b60405180910390a1565b6124df838383613304565b600082815260066020526040812080548392906124fd9084906157e5565b9091555050505050565b60007f00000000000000000000000000000000000000000000000000000000000000006001600160a01b0316634000aea07f00000000000000000000000000000000000000000000000000000000000000008486600060405160200161256e929190614852565b6040516020818303038152906040526040518463ffffffff1660e01b815260040161259b93929190614a07565b602060405180830381600087803b1580156125b557600080fd5b505af11580156125c9573d6000803e3d6000fd5b505050506040513d601f19601f820116820180604052508101906125ed91906145b0565b5060008381526007602052604081205461260c90859083903090613417565b600085815260076020526040902054909150612629906001615769565b6000858152600760205260409020556126428482613451565b949350505050565b612655838383613484565b60005b82518110156126e85781818151811061268157634e487b7160e01b600052603260045260246000fd5b6020026020010151600660008584815181106126ad57634e487b7160e01b600052603260045260246000fd5b6020026020010151815260200190815260200160002060008282546126d291906157e5565b909155506126e1905081615874565b9050612658565b50505050565b6126f66114de565b156127135760405162461bcd60e51b815260040161078090614fbb565b6005805460ff191660011790557f62e78cea01bee320cd4e420270b5ea74000d11b0c9f74754ebdbfc544b05a2586124bd612208565b60006117df8383613638565b60008281526012602090815260408083208151808301835281548082526001928301546001600160a01b039081168387018190528288526013875285882081895287528588208890558288526011875285882086516080810188528154909316835294850180548751818a0281018a0190985280885294989397919693959294929385830193909283018282801561280c57602002820191906000526020600020905b8154815260200190600101908083116127f8575b505050505081526020016002820180548060200260200160405190810160405280929190818152602001828054801561286457602002820191906000526020600020905b815481526020019060010190808311612850575b505050505081526020016003820154815250509050600080612887858885613670565b8451604051631759616b60e11b81529294509092506001600160a01b031690632eb2c2d6906128c0903090889087908790600401614953565b600060405180830381600087803b1580156128da57600080fd5b505af11580156128ee573d6000803e3d6000fd5b5050505082600001516001600160a01b0316846001600160a01b0316867f9cae8e743935573869e2fe7223782448d71211235c93076166106782de1c234f8b8660405161293c929190614a9b565b60405180910390a45050505050505050565b600960009054906101000a90046001600160a01b03166001600160a01b0316639d2f83f06040518163ffffffff1660e01b815260040160206040518083038186803b15801561299c57600080fd5b505afa1580156129b0573d6000803e3d6000fd5b505050506040513d601f19601f820116820180604052508101906129d491906145b0565b156129f15760405162461bcd60e51b815260040161078090614f27565b6040516301ffc9a760e01b81526001600160a01b038716906301ffc9a790612a2490636cdb3d1360e11b90600401614ad8565b60206040518083038186803b158015612a3c57600080fd5b505afa158015612a50573d6000803e3d6000fd5b505050506040513d601f19601f82011682018060405250810190612a7491906145b0565b612a905760405162461bcd60e51b815260040161078090615564565b612aba7f9f2df0fed2c77648de5860a4cc508cd0818c85b8b8a1ab4ceeef8d981c8956a6896117e6565b612ad65760405162461bcd60e51b81526004016107809061528c565b6000855111612af75760405162461bcd60e51b815260040161078090615094565b6000612b0285613971565b9050612b0e828261588f565b15612b2b5760405162461bcd60e51b815260040161078090614ede565b6000612b356139cb565b90506000612b438484615781565b9050600060405180608001604052808c81526020018d6001600160a01b031681526020018842612b739190615769565b81526020018715612b8d57612b888842615769565b612b91565b6000195b9052604080516080810182526001600160a01b038d16815260208082018d90528183018c9052606082018990526000878152601082529290922083518051949550919385939192612be6928492910190613f9b565b50602082810151600180840180546001600160a01b039384166001600160a01b031991821617909155604080870151600287015560609096015160039095019490945560008981526011845294909420855181549216919093161782558381015180518594612c5a9390850192019061400f565b5060408201518051612c7691600284019160209091019061400f565b5060608201518160030155905050612c9f8d8585604051806020016040528060008152506139e9565b8c6001600160a01b03168b6001600160a01b0316857f34dba77fba97c1ebac7ab2266e26cbb3bcc74c34476e3d701d23149b24f99063868686604051612ce793929190615679565b60405180910390a450505050505050505050505050565b60006107ae82613a1e565b612d1282610d37565b612d1e81612400612208565b610f108383613164565b6001600160a01b038416612d4e5760405162461bcd60e51b815260040161078090614ff2565b6000612d58612208565b9050612d78818787612d6988613a22565b612d7288613a22565b87612f63565b60008481526002602090815260408083206001600160a01b038a16845290915290205483811015612dbb5760405162461bcd60e51b815260040161078090615134565b60008581526002602090815260408083206001600160a01b038b8116855292528083208785039055908816825281208054869290612dfa908490615769565b92505081905550856001600160a01b0316876001600160a01b0316836001600160a01b03167fc3d58168c5ae7397731d063d5bbf3d657854427343f4c083240f7aacaa2d0f628888604051612e50929190614852565b60405180910390a4612e66828888888888613a7b565b50505050505050565b612e7982826117e6565b611983576000828152602081815260408083206001600160a01b03851684529091529020805460ff19166001179055612eb0612208565b6001600160a01b0316816001600160a01b0316837f2f8788117e7eff1d82e926ec794901d17c78024a50270940304540a733656f0d60405160405180910390a45050565b6000612f008383613b4c565b612f36575081546001818101845560008481526020808220909301849055845484825282860190935260409020919091556107ae565b5060006107ae565b60006001600160e01b03198216630271189760e51b14806107ae57506107ae82613b64565b612f71868686868686613ba4565b600d5460ff16156123e357612fa67f8502233096d909befbda0999bb8ea2f3a6be3c138b9fbf003752a4c8bce86f6c866117e6565b80612fd65750612fd67f8502233096d909befbda0999bb8ea2f3a6be3c138b9fbf003752a4c8bce86f6c856117e6565b6123e35760405162461bcd60e51b81526004016107809061517e565b613004846001600160a01b0316613bb2565b156123e35760405163bc197c8160e01b81526001600160a01b0385169063bc197c819061303d90899089908890889088906004016148f5565b602060405180830381600087803b15801561305757600080fd5b505af1925050508015613087575060408051601f3d908101601f191682019092526130849181019061465d565b60015b6130d0576130936158eb565b8061309e57506130b8565b8060405162461bcd60e51b81526004016107809190614aed565b60405162461bcd60e51b815260040161078090614b38565b6001600160e01b0319811663bc197c8160e01b14612e665760405162461bcd60e51b815260040161078090614bca565b61310a82826117e6565b61198357613122816001600160a01b03166014613bb8565b61312d836020613bb8565b60405160200161313e929190614860565b60408051601f198184030181529082905262461bcd60e51b825261078091600401614aed565b61316e82826117e6565b15611983576000828152602081815260408083206001600160a01b03851684529091529020805460ff191690556131a3612208565b6001600160a01b0316816001600160a01b0316837ff6391f5c32d9c69d2a47ea670b442974b53935d1edc7fd64eb21e047a839171b60405160405180910390a45050565b600081815260018301602052604081205480156132fa57600061320b6001836157e5565b855490915060009061321f906001906157e5565b90508181146132a057600086600001828154811061324d57634e487b7160e01b600052603260045260246000fd5b906000526020600020015490508087600001848154811061327e57634e487b7160e01b600052603260045260246000fd5b6000918252602080832090910192909255918252600188019052604090208390555b85548690806132bf57634e487b7160e01b600052603160045260246000fd5b6001900381819060005260206000200160009055905585600101600086815260200190815260200160002060009055600193505050506107ae565b60009150506107ae565b6001600160a01b03831661332a5760405162461bcd60e51b8152600401610780906150f1565b6000613334612208565b90506133648185600061334687613a22565b61334f87613a22565b60405180602001604052806000815250612f63565b60008381526002602090815260408083206001600160a01b0388168452909152902054828110156133a75760405162461bcd60e51b815260040161078090614d60565b60008481526002602090815260408083206001600160a01b03808a16808652919093528184208786039055905190918516907fc3d58168c5ae7397731d063d5bbf3d657854427343f4c083240f7aacaa2d0f62906134089089908990614852565b60405180910390a45050505050565b6000848484846040516020016134309493929190614ab4565b60408051601f19818403018152919052805160209091012095945050505050565b60008282604051602001613466929190614852565b60405160208183030381529060405280519060200120905092915050565b6001600160a01b0383166134aa5760405162461bcd60e51b8152600401610780906150f1565b80518251146134cb5760405162461bcd60e51b815260040161078090615492565b60006134d5612208565b90506134f581856000868660405180602001604052806000815250612f63565b60005b83518110156135d957600084828151811061352357634e487b7160e01b600052603260045260246000fd5b60200260200101519050600084838151811061354f57634e487b7160e01b600052603260045260246000fd5b60209081029190910181015160008481526002835260408082206001600160a01b038c1683529093529190912054909150818110156135a05760405162461bcd60e51b815260040161078090614d60565b60009283526002602090815260408085206001600160a01b038b16865290915290922091039055806135d181615874565b9150506134f8565b5060006001600160a01b0316846001600160a01b0316826001600160a01b03167f4a39dc06d4c0dbc64b70af90fd698a233a518aa5d07e595d983b8c0526c8f7fb868660405161362a929190614a4b565b60405180910390a450505050565b600082600001828154811061365d57634e487b7160e01b600052603260045260246000fd5b9060005260206000200154905092915050565b60608060006136828460400151613971565b9050600080856060015167ffffffffffffffff8111156136b257634e487b7160e01b600052604160045260246000fd5b6040519080825280602002602001820160405280156136db578160200160208202803683370190505b509450856060015167ffffffffffffffff81111561370957634e487b7160e01b600052604160045260246000fd5b604051908082528060200260200182016040528015613732578160200160208202803683370190505b50935060005b86606001518110156138f557838882604051602001613758929190614852565b6040516020818303038152906040528051906020012060001c61377b919061588f565b915060005b8760200151518110156138e25783886040015182815181106137b257634e487b7160e01b600052603260045260246000fd5b60200260200101516137c49190615769565b83101561389757876020015181815181106137ef57634e487b7160e01b600052603260045260246000fd5b602002602001015187838151811061381757634e487b7160e01b600052603260045260246000fd5b602002602001018181525050600186838151811061384557634e487b7160e01b600052603260045260246000fd5b60200260200101818152505060018860400151828151811061387757634e487b7160e01b600052603260045260246000fd5b6020026020010181815161388b91906157e5565b905250600093506138e2565b876040015181815181106138bb57634e487b7160e01b600052603260045260246000fd5b6020026020010151846138ce9190615769565b93506138db600182615769565b9050613780565b506138ee600182615769565b9050613738565b506000888152601160209081526040909120875181546001600160a01b0319166001600160a01b03909116178155878201518051899361393c92600185019291019061400f565b506040820151805161395891600284019160209091019061400f565b5060608201518160030155905050505050935093915050565b6000805b82518110156139c55782818151811061399e57634e487b7160e01b600052603260045260246000fd5b6020026020010151826139b19190615769565b91506139be600182615769565b9050613975565b50919050565b600a80549060019060006139df8385615769565b9250508190555090565b6139f584848484613d77565b60008381526006602052604081208054849290613a13908490615769565b909155505050505050565b5490565b60408051600180825281830190925260609160009190602080830190803683370190505090508281600081518110613a6a57634e487b7160e01b600052603260045260246000fd5b602090810291909101015292915050565b613a8d846001600160a01b0316613bb2565b156123e35760405163f23a6e6160e01b81526001600160a01b0385169063f23a6e6190613ac690899089908890889088906004016149ab565b602060405180830381600087803b158015613ae057600080fd5b505af1925050508015613b10575060408051601f3d908101601f19168201909252613b0d9181019061465d565b60015b613b1c576130936158eb565b6001600160e01b0319811663f23a6e6160e01b14612e665760405162461bcd60e51b815260040161078090614bca565b60009081526001919091016020526040902054151590565b60006001600160e01b03198216636cdb3d1360e11b1480613b9557506001600160e01b031982166303a24d0760e21b145b806107ae57506107ae82613e59565b6123e3868686868686613e7e565b3b151590565b60606000613bc7836002615795565b613bd2906002615769565b67ffffffffffffffff811115613bf857634e487b7160e01b600052604160045260246000fd5b6040519080825280601f01601f191660200182016040528015613c22576020820181803683370190505b509050600360fc1b81600081518110613c4b57634e487b7160e01b600052603260045260246000fd5b60200101906001600160f81b031916908160001a905350600f60fb1b81600181518110613c8857634e487b7160e01b600052603260045260246000fd5b60200101906001600160f81b031916908160001a9053506000613cac846002615795565b613cb7906001615769565b90505b6001811115613d58577f303132333435363738396162636465660000000000000000000000000000000085600f1660108110613d0657634e487b7160e01b600052603260045260246000fd5b1a60f81b828281518110613d2a57634e487b7160e01b600052603260045260246000fd5b60200101906001600160f81b031916908160001a90535060049490941c93613d5181615828565b9050613cba565b5083156117df5760405162461bcd60e51b815260040161078090614b95565b6001600160a01b038416613d9d5760405162461bcd60e51b8152600401610780906154da565b6000613da7612208565b9050613db981600087612d6988613a22565b60008481526002602090815260408083206001600160a01b038916845290915281208054859290613deb908490615769565b92505081905550846001600160a01b031660006001600160a01b0316826001600160a01b03167fc3d58168c5ae7397731d063d5bbf3d657854427343f4c083240f7aacaa2d0f628787604051613e42929190614852565b60405180910390a4610ee781600087878787613a7b565b60006001600160e01b03198216635a05180f60e01b14806107ae57506107ae82613eb1565b613e8c8686868686866123e3565b613e946114de565b156123e35760405162461bcd60e51b815260040161078090614da4565b60006001600160e01b03198216637965db0b60e01b14806107ae57506301ffc9a760e01b6001600160e01b03198316146107ae565b60405180608001604052806060815260200160006001600160a01b0316815260200160008152602001600081525090565b828054613f239061583f565b90600052602060002090601f016020900481019282613f455760008555613f8b565b82601f10613f5e5782800160ff19823516178555613f8b565b82800160010185558215613f8b579182015b82811115613f8b578235825591602001919060010190613f70565b50613f97929150614049565b5090565b828054613fa79061583f565b90600052602060002090601f016020900481019282613fc95760008555613f8b565b82601f10613fe257805160ff1916838001178555613f8b565b82800160010185558215613f8b579182015b82811115613f8b578251825591602001919060010190613ff4565b828054828255906000526020600020908101928215613f8b5791602002820182811115613f8b578251825591602001919060010190613ff4565b5b80821115613f97576000815560010161404a565b600082601f83011261406e578081fd5b8135602061408361407e8361571d565b6156f3565b828152818101908583018385028701840188101561409f578586fd5b855b858110156140bd578135845292840192908401906001016140a1565b5090979650505050505050565b600082601f8301126140da578081fd5b81356140e861407e82615741565b8181528460208386010111156140fc578283fd5b816020850160208301379081016020019190915292915050565b600060208284031215614127578081fd5b81356117df81615990565b600060208284031215614143578081fd5b81516117df81615990565b60008060408385031215614160578081fd5b823561416b81615990565b9150602083013561417b81615990565b809150509250929050565b600080600080600060a0868803121561419d578081fd5b85356141a881615990565b945060208601356141b881615990565b9350604086013567ffffffffffffffff808211156141d4578283fd5b6141e089838a0161405e565b945060608801359150808211156141f5578283fd5b61420189838a0161405e565b93506080880135915080821115614216578283fd5b50614223888289016140ca565b9150509295509295909350565b60008060008060808587031215614245578384fd5b843561425081615990565b9350602085013561426081615990565b925060408501359150606085013567ffffffffffffffff811115614282578182fd5b61428e878288016140ca565b91505092959194509250565b600080600080600060a086880312156142b1578283fd5b85356142bc81615990565b945060208601356142cc81615990565b93506040860135925060608601359150608086013567ffffffffffffffff8111156142f5578182fd5b614223888289016140ca565b600080600060608486031215614315578081fd5b833561432081615990565b9250602084013567ffffffffffffffff8082111561433c578283fd5b6143488783880161405e565b9350604086013591508082111561435d578283fd5b5061436a8682870161405e565b9150509250925092565b60008060008060808587031215614389578182fd5b843561439481615990565b9350602085013567ffffffffffffffff808211156143b0578384fd5b6143bc8883890161405e565b945060408701359150808211156143d1578384fd5b6143dd8883890161405e565b935060608701359150808211156143f2578283fd5b5061428e878288016140ca565b60008060408385031215614411578182fd5b823561441c81615990565b9150602083013561417b816159a8565b6000806040838503121561443e578182fd5b823561444981615990565b946020939093013593505050565b60008060006060848603121561446b578081fd5b833561447681615990565b95602085013595506040909401359392505050565b600080600080608085870312156144a0578182fd5b84356144ab81615990565b93506020850135925060408501359150606085013567ffffffffffffffff811115614282578182fd5b600080604083850312156144e6578182fd5b823567ffffffffffffffff808211156144fd578384fd5b818501915085601f830112614510578384fd5b8135602061452061407e8361571d565b82815281810190858301838502870184018b101561453c578889fd5b8896505b8487101561456757803561455381615990565b835260019690960195918301918301614540565b509650508601359250508082111561457d578283fd5b5061458a8582860161405e565b9150509250929050565b6000602082840312156145a5578081fd5b81356117df816159a8565b6000602082840312156145c1578081fd5b81516117df816159a8565b6000602082840312156145dd578081fd5b5035919050565b6000602082840312156145f5578081fd5b5051919050565b6000806040838503121561460e578182fd5b82359150602083013561417b81615990565b60008060408385031215614632578182fd5b50508035926020909101359150565b600060208284031215614652578081fd5b81356117df816159b6565b60006020828403121561466e578081fd5b81516117df816159b6565b6000806020838503121561468b578182fd5b823567ffffffffffffffff808211156146a2578384fd5b818501915085601f8301126146b5578384fd5b8135818111156146c3578485fd5b8660208285010111156146d4578485fd5b60209290920196919550909350505050565b600080600080608085870312156146fb578182fd5b845167ffffffffffffffff811115614711578283fd5b8501601f81018713614721578283fd5b805161472f61407e82615741565b818152886020838501011115614743578485fd5b6147548260208301602086016157fc565b60208801516040890151606090990151919a909950909650945050505050565b600060208284031215614785578081fd5b81516fffffffffffffffffffffffffffffffff811681146117df578182fd5b6000815180845260208085019450808401835b838110156147d3578151875295820195908201906001016147b7565b509495945050505050565b600081518084526147f68160208601602086016157fc565b601f01601f19169290920160200192915050565b600081516080845261481f60808501826147de565b90506001600160a01b03602084015116602085015260408301516040850152606083015160608501528091505092915050565b918252602082015260400190565b60007f416363657373436f6e74726f6c3a206163636f756e7420000000000000000000825283516148988160178501602088016157fc565b7f206973206d697373696e6720726f6c652000000000000000000000000000000060179184019182015283516148d58160288401602088016157fc565b01602801949350505050565b6001600160a01b0391909116815260200190565b60006001600160a01b03808816835280871660208401525060a0604083015261492160a08301866147a4565b828103606084015261493381866147a4565b9050828103608084015261494781856147de565b98975050505050505050565b60006001600160a01b03808716835280861660208401525060a0604083015261497f60a08301856147a4565b828103606084015261499181856147a4565b838103608090940193909352508152602001949350505050565b60006001600160a01b03808816835280871660208401525084604083015283606083015260a060808301526149e360a08301846147de565b979650505050505050565b6001600160a01b03929092168252602082015260400190565b60006001600160a01b038516825283602083015260606040830152614a2f60608301846147de565b95945050505050565b6000602082526117df60208301846147a4565b600060408252614a5e60408301856147a4565b8281036020840152614a2f81856147a4565b901515815260200190565b90815260200190565b9182526001600160a01b0316602082015260400190565b60008382526040602083015261264260408301846147a4565b93845260208401929092526001600160a01b03166040830152606082015260800190565b6001600160e01b031991909116815260200190565b6000602082526117df60208301846147de565b600060808252614b1360808301876147de565b6001600160a01b03959095166020830152506040810192909252606090910152919050565b60208082526034908201527f455243313135353a207472616e7366657220746f206e6f6e204552433131353560408201527f526563656976657220696d706c656d656e746572000000000000000000000000606082015260800190565b6020808252818101527f537472696e67733a20686578206c656e67746820696e73756666696369656e74604082015260600190565b60208082526028908201527f455243313135353a204552433131353552656365697665722072656a656374656040820152676420746f6b656e7360c01b606082015260800190565b60208082526033908201527f5061636b3a206f6e6c7920612070726f746f636f6c2061646d696e2063616e2060408201527f63616c6c20746869732066756e6374696f6e2e00000000000000000000000000606082015260800190565b60208082526039908201527f5061636b3a207468652077696e646f7720746f206f70656e207061636b73206860408201527f6173206e6f742073746172746564206f7220636c6f7365642e00000000000000606082015260800190565b60208082526014908201527f5061757361626c653a206e6f7420706175736564000000000000000000000000604082015260600190565b6020808252602b908201527f455243313135353a2062616c616e636520717565727920666f7220746865207a60408201527f65726f2061646472657373000000000000000000000000000000000000000000606082015260800190565b60208082526024908201527f455243313135353a206275726e20616d6f756e7420657863656564732062616c604082015263616e636560e01b606082015260800190565b6020808252602c908201527f455243313135355061757361626c653a20746f6b656e207472616e736665722060408201527f7768696c65207061757365640000000000000000000000000000000000000000606082015260800190565b60208082526029908201527f455243313135353a2063616c6c6572206973206e6f74206f776e6572206e6f7260408201526808185c1c1c9bdd995960ba1b606082015260800190565b6020808252601e908201527f5061636b3a204661696c656420746f207472616e73666572204c494e4b2e0000604082015260600190565b60208082526034908201527f5061636b3a204e6f7420656e6f756768204c494e4b20746f2066756c66696c6c60408201527f2072616e646f6d6e65737320726571756573742e000000000000000000000000606082015260800190565b60208082526029908201527f5061636b3a20696e76616c6964206e756d626572206f662072657761726473206040820152683832b91037b832b71760b91b606082015260800190565b6020808252601d908201527f5061636b3a205468652070726f746f636f6c206973207061757365642e000000604082015260600190565b60208082526032908201527f5061636b3a206d757374207761697420666f72207468652070656e64696e672060408201527f7061636b20746f206265206f70656e65642e0000000000000000000000000000606082015260800190565b60208082526010908201527f5061757361626c653a2070617573656400000000000000000000000000000000604082015260600190565b60208082526025908201527f455243313135353a207472616e7366657220746f20746865207a65726f206164604082015264647265737360d81b606082015260800190565b60208082526032908201527f455243313135353a207472616e736665722063616c6c6572206973206e6f742060408201527f6f776e6572206e6f7220617070726f7665640000000000000000000000000000606082015260800190565b60208082526032908201527f5061636b3a204d757374206372656174652061207061636b207769746820617460408201527f206c65617374206f6e65207265776172642e0000000000000000000000000000606082015260800190565b60208082526023908201527f455243313135353a206275726e2066726f6d20746865207a65726f206164647260408201526265737360e81b606082015260800190565b6020808252602a908201527f455243313135353a20696e73756666696369656e742062616c616e636520666f60408201526939103a3930b739b332b960b11b606082015260800190565b60208082526037908201527f5061636b3a205472616e7366657273206172652072657374726963746564207460408201527f6f205452414e534645525f524f4c4520686f6c64657273000000000000000000606082015260800190565b60208082526023908201527f5061636b3a2063616e6e6f7420667265656c79206d696e74206d6f7265207061604082015262636b7360e81b606082015260800190565b6020808252601f908201527f4f6e6c7920565246436f6f7264696e61746f722063616e2066756c66696c6c00604082015260600190565b6020808252601e908201527f5061636b3a204d75737420757365206261746368207472616e736665722e0000604082015260600190565b6020808252603c908201527f5061636b3a204f6e6c79206163636f756e74732077697468204d494e5445525f60408201527f524f4c452063616e2063616c6c20746869732066756e6374696f6e2e00000000606082015260800190565b6020808252603b908201527f455243313135355072657365744d696e7465725061757365723a206d7573742060408201527f686176652070617573657220726f6c6520746f20756e70617573650000000000606082015260800190565b60208082526039908201527f455243313135355072657365744d696e7465725061757365723a206d7573742060408201527f686176652070617573657220726f6c6520746f20706175736500000000000000606082015260800190565b6020808252602f908201527f5061636b3a2073656e646572206f776e73206e6f207061636b73206f6620746860408201527f6520676976656e207061636b49642e0000000000000000000000000000000000606082015260800190565b60208082526029908201527f455243313135353a2073657474696e6720617070726f76616c20737461747573604082015268103337b91039b2b63360b91b606082015260800190565b60208082526029908201527f455243313135353a206163636f756e747320616e6420696473206c656e677468604082015268040dad2e6dac2e8c6d60bb1b606082015260800190565b60208082526028908201527f455243313135353a2069647320616e6420616d6f756e7473206c656e677468206040820152670dad2e6dac2e8c6d60c31b606082015260800190565b60208082526021908201527f455243313135353a206d696e7420746f20746865207a65726f206164647265736040820152607360f81b606082015260800190565b60208082526029908201527f4e46543a204270732070726f7669646564206d757374206265206c6573732074604082015268068616e20392c3030360bc1b606082015260800190565b60208082526032908201527f5061636b3a2072657761726420636f6e747261637420646f6573206e6f74206960408201527f6d706c656d656e742045524320313135352e0000000000000000000000000000606082015260800190565b6020808252602f908201527f416363657373436f6e74726f6c3a2063616e206f6e6c792072656e6f756e636560408201527f20726f6c657320666f722073656c660000000000000000000000000000000000606082015260800190565b6000602082526117df602083018461480a565b600060808252615644608083018761480a565b6001600160a01b0386166020840152828103604084015261566581866147a4565b905082810360608401526149e381856147a4565b600084825260606020830152615692606083018561480a565b82810360408401526001600160a01b0384511681526020840151608060208301526156c060808301826147a4565b9050604085015182820360408401526156d982826147a4565b915050606085015160608301528092505050949350505050565b60405181810167ffffffffffffffff81118282101715615715576157156158cf565b604052919050565b600067ffffffffffffffff821115615737576157376158cf565b5060209081020190565b600067ffffffffffffffff82111561575b5761575b6158cf565b50601f01601f191660200190565b6000821982111561577c5761577c6158a3565b500190565b600082615790576157906158b9565b500490565b60008160001904831182151516156157af576157af6158a3565b500290565b60006fffffffffffffffffffffffffffffffff838116908316818110156157dd576157dd6158a3565b039392505050565b6000828210156157f7576157f76158a3565b500390565b60005b838110156158175781810151838201526020016157ff565b838111156126e85750506000910152565b600081615837576158376158a3565b506000190190565b60028104600182168061585357607f821691505b602082108114156139c557634e487b7160e01b600052602260045260246000fd5b6000600019821415615888576158886158a3565b5060010190565b60008261589e5761589e6158b9565b500690565b634e487b7160e01b600052601160045260246000fd5b634e487b7160e01b600052601260045260246000fd5b634e487b7160e01b600052604160045260246000fd5b60e01c90565b600060443d10156158fb576114e5565b600481823e6308c379a061590f82516158e5565b14615919576114e5565b6040513d600319016004823e80513d67ffffffffffffffff816024840111818411171561594957505050506114e5565b8284019250825191508082111561596357505050506114e5565b503d8301602082840101111561597b575050506114e5565b601f01601f1916810160200160405291505090565b6001600160a01b03811681146159a557600080fd5b50565b80151581146159a557600080fd5b6001600160e01b0319811681146159a557600080fdfea164736f6c6343000800000a",
  "linkReferences": {},
  "deployedLinkReferences": {}
}