{
  "_format": "hh-sol-artifact-1",
  "contractName": "Pack",
  "sourceName": "contracts/Pack.sol",
  "abi": [
    {
      "inputs": [
        {
          "internalType": "address payable",
          "name": "_controlCenter",
          "type": "address"
        },
        {
          "internalType": "string",
          "name": "_uri",
          "type": "string"
        },
        {
          "internalType": "address",
          "name": "_vrfCoordinator",
          "type": "address"
        },
        {
          "internalType": "address",
          "name": "_linkToken",
          "type": "address"
        },
        {
          "internalType": "bytes32",
          "name": "_keyHash",
          "type": "bytes32"
        },
        {
          "internalType": "uint256",
          "name": "_fees",
          "type": "uint256"
        },
        {
          "internalType": "address",
          "name": "_trustedForwarder",
          "type": "address"
        }
      ],
      "stateMutability": "nonpayable",
      "type": "constructor"
    },
    {
      "anonymous": false,
      "inputs": [
        {
          "indexed": true,
          "internalType": "address",
          "name": "account",
          "type": "address"
        },
        {
          "indexed": true,
          "internalType": "address",
          "name": "operator",
          "type": "address"
        },
        {
          "indexed": false,
          "internalType": "bool",
          "name": "approved",
          "type": "bool"
        }
      ],
      "name": "ApprovalForAll",
      "type": "event"
    },
    {
      "anonymous": false,
      "inputs": [
        {
          "indexed": true,
          "internalType": "uint256",
          "name": "packId",
          "type": "uint256"
        },
        {
          "indexed": true,
          "internalType": "address",
          "name": "rewardContract",
          "type": "address"
        },
        {
          "indexed": true,
          "internalType": "address",
          "name": "creator",
          "type": "address"
        },
        {
          "components": [
            {
              "internalType": "string",
              "name": "uri",
              "type": "string"
            },
            {
              "internalType": "address",
              "name": "creator",
              "type": "address"
            },
            {
              "internalType": "uint256",
              "name": "openStart",
              "type": "uint256"
            },
            {
              "internalType": "uint256",
              "name": "openEnd",
              "type": "uint256"
            }
          ],
          "indexed": false,
          "internalType": "struct Pack.PackState",
          "name": "packState",
          "type": "tuple"
        },
        {
          "components": [
            {
              "internalType": "address",
              "name": "source",
              "type": "address"
            },
            {
              "internalType": "uint256[]",
              "name": "tokenIds",
              "type": "uint256[]"
            },
            {
              "internalType": "uint256[]",
              "name": "amountsPacked",
              "type": "uint256[]"
            },
            {
              "internalType": "uint256",
              "name": "rewardsPerOpen",
              "type": "uint256"
            }
          ],
          "indexed": false,
          "internalType": "struct Pack.Rewards",
          "name": "rewards",
          "type": "tuple"
        }
      ],
      "name": "PackCreated",
      "type": "event"
    },
    {
      "anonymous": false,
      "inputs": [
        {
          "indexed": true,
          "internalType": "uint256",
          "name": "packId",
          "type": "uint256"
        },
        {
          "indexed": true,
          "internalType": "address",
          "name": "opener",
          "type": "address"
        },
        {
          "indexed": false,
          "internalType": "bytes32",
          "name": "requestId",
          "type": "bytes32"
        },
        {
          "indexed": true,
          "internalType": "address",
          "name": "rewardContract",
          "type": "address"
        },
        {
          "indexed": false,
          "internalType": "uint256[]",
          "name": "rewardIds",
          "type": "uint256[]"
        }
      ],
      "name": "PackOpenFulfilled",
      "type": "event"
    },
    {
      "anonymous": false,
      "inputs": [
        {
          "indexed": true,
          "internalType": "uint256",
          "name": "packId",
          "type": "uint256"
        },
        {
          "indexed": true,
          "internalType": "address",
          "name": "opener",
          "type": "address"
        },
        {
          "indexed": false,
          "internalType": "bytes32",
          "name": "requestId",
          "type": "bytes32"
        }
      ],
      "name": "PackOpenRequest",
      "type": "event"
    },
    {
      "anonymous": false,
      "inputs": [
        {
          "indexed": false,
          "internalType": "address",
          "name": "account",
          "type": "address"
        }
      ],
      "name": "Paused",
      "type": "event"
    },
    {
      "anonymous": false,
      "inputs": [
        {
          "indexed": true,
          "internalType": "bytes32",
          "name": "role",
          "type": "bytes32"
        },
        {
          "indexed": true,
          "internalType": "bytes32",
          "name": "previousAdminRole",
          "type": "bytes32"
        },
        {
          "indexed": true,
          "internalType": "bytes32",
          "name": "newAdminRole",
          "type": "bytes32"
        }
      ],
      "name": "RoleAdminChanged",
      "type": "event"
    },
    {
      "anonymous": false,
      "inputs": [
        {
          "indexed": true,
          "internalType": "bytes32",
          "name": "role",
          "type": "bytes32"
        },
        {
          "indexed": true,
          "internalType": "address",
          "name": "account",
          "type": "address"
        },
        {
          "indexed": true,
          "internalType": "address",
          "name": "sender",
          "type": "address"
        }
      ],
      "name": "RoleGranted",
      "type": "event"
    },
    {
      "anonymous": false,
      "inputs": [
        {
          "indexed": true,
          "internalType": "bytes32",
          "name": "role",
          "type": "bytes32"
        },
        {
          "indexed": true,
          "internalType": "address",
          "name": "account",
          "type": "address"
        },
        {
          "indexed": true,
          "internalType": "address",
          "name": "sender",
          "type": "address"
        }
      ],
      "name": "RoleRevoked",
      "type": "event"
    },
    {
      "anonymous": false,
      "inputs": [
        {
          "indexed": false,
          "internalType": "uint256",
          "name": "royaltyBps",
          "type": "uint256"
        }
      ],
      "name": "RoyaltyUpdated",
      "type": "event"
    },
    {
      "anonymous": false,
      "inputs": [
        {
          "indexed": true,
          "internalType": "address",
          "name": "operator",
          "type": "address"
        },
        {
          "indexed": true,
          "internalType": "address",
          "name": "from",
          "type": "address"
        },
        {
          "indexed": true,
          "internalType": "address",
          "name": "to",
          "type": "address"
        },
        {
          "indexed": false,
          "internalType": "uint256[]",
          "name": "ids",
          "type": "uint256[]"
        },
        {
          "indexed": false,
          "internalType": "uint256[]",
          "name": "values",
          "type": "uint256[]"
        }
      ],
      "name": "TransferBatch",
      "type": "event"
    },
    {
      "anonymous": false,
      "inputs": [
        {
          "indexed": true,
          "internalType": "address",
          "name": "operator",
          "type": "address"
        },
        {
          "indexed": true,
          "internalType": "address",
          "name": "from",
          "type": "address"
        },
        {
          "indexed": true,
          "internalType": "address",
          "name": "to",
          "type": "address"
        },
        {
          "indexed": false,
          "internalType": "uint256",
          "name": "id",
          "type": "uint256"
        },
        {
          "indexed": false,
          "internalType": "uint256",
          "name": "value",
          "type": "uint256"
        }
      ],
      "name": "TransferSingle",
      "type": "event"
    },
    {
      "anonymous": false,
      "inputs": [
        {
          "indexed": false,
          "internalType": "string",
          "name": "value",
          "type": "string"
        },
        {
          "indexed": true,
          "internalType": "uint256",
          "name": "id",
          "type": "uint256"
        }
      ],
      "name": "URI",
      "type": "event"
    },
    {
      "anonymous": false,
      "inputs": [
        {
          "indexed": false,
          "internalType": "address",
          "name": "account",
          "type": "address"
        }
      ],
      "name": "Unpaused",
      "type": "event"
    },
    {
      "inputs": [],
      "name": "DEFAULT_ADMIN_ROLE",
      "outputs": [
        {
          "internalType": "bytes32",
          "name": "",
          "type": "bytes32"
        }
      ],
      "stateMutability": "view",
      "type": "function"
    },
    {
      "inputs": [],
      "name": "MINTER_ROLE",
      "outputs": [
        {
          "internalType": "bytes32",
          "name": "",
          "type": "bytes32"
        }
      ],
      "stateMutability": "view",
      "type": "function"
    },
    {
      "inputs": [],
      "name": "PAUSER_ROLE",
      "outputs": [
        {
          "internalType": "bytes32",
          "name": "",
          "type": "bytes32"
        }
      ],
      "stateMutability": "view",
      "type": "function"
    },
    {
      "inputs": [],
      "name": "TRANSFER_ROLE",
      "outputs": [
        {
          "internalType": "bytes32",
          "name": "",
          "type": "bytes32"
        }
      ],
      "stateMutability": "view",
      "type": "function"
    },
    {
      "inputs": [],
      "name": "_contractURI",
      "outputs": [
        {
          "internalType": "string",
          "name": "",
          "type": "string"
        }
      ],
      "stateMutability": "view",
      "type": "function"
    },
    {
      "inputs": [
        {
          "internalType": "address",
          "name": "account",
          "type": "address"
        },
        {
          "internalType": "uint256",
          "name": "id",
          "type": "uint256"
        }
      ],
      "name": "balanceOf",
      "outputs": [
        {
          "internalType": "uint256",
          "name": "",
          "type": "uint256"
        }
      ],
      "stateMutability": "view",
      "type": "function"
    },
    {
      "inputs": [
        {
          "internalType": "address[]",
          "name": "accounts",
          "type": "address[]"
        },
        {
          "internalType": "uint256[]",
          "name": "ids",
          "type": "uint256[]"
        }
      ],
      "name": "balanceOfBatch",
      "outputs": [
        {
          "internalType": "uint256[]",
          "name": "",
          "type": "uint256[]"
        }
      ],
      "stateMutability": "view",
      "type": "function"
    },
    {
      "inputs": [
        {
          "internalType": "address",
          "name": "account",
          "type": "address"
        },
        {
          "internalType": "uint256",
          "name": "id",
          "type": "uint256"
        },
        {
          "internalType": "uint256",
          "name": "value",
          "type": "uint256"
        }
      ],
      "name": "burn",
      "outputs": [],
      "stateMutability": "nonpayable",
      "type": "function"
    },
    {
      "inputs": [
        {
          "internalType": "address",
          "name": "account",
          "type": "address"
        },
        {
          "internalType": "uint256[]",
          "name": "ids",
          "type": "uint256[]"
        },
        {
          "internalType": "uint256[]",
          "name": "values",
          "type": "uint256[]"
        }
      ],
      "name": "burnBatch",
      "outputs": [],
      "stateMutability": "nonpayable",
      "type": "function"
    },
    {
      "inputs": [],
      "name": "contractURI",
      "outputs": [
        {
          "internalType": "string",
          "name": "",
          "type": "string"
        }
      ],
      "stateMutability": "view",
      "type": "function"
    },
    {
      "inputs": [
        {
          "internalType": "uint256",
          "name": "_packId",
          "type": "uint256"
        }
      ],
      "name": "creator",
      "outputs": [
        {
          "internalType": "address",
          "name": "",
          "type": "address"
        }
      ],
      "stateMutability": "view",
      "type": "function"
    },
    {
      "inputs": [
        {
          "internalType": "uint256",
          "name": "",
          "type": "uint256"
        },
        {
          "internalType": "address",
          "name": "",
          "type": "address"
        }
      ],
      "name": "currentRequestId",
      "outputs": [
        {
          "internalType": "bytes32",
          "name": "",
          "type": "bytes32"
        }
      ],
      "stateMutability": "view",
      "type": "function"
    },
    {
      "inputs": [
        {
          "internalType": "uint256",
          "name": "_packId",
          "type": "uint256"
        }
      ],
      "name": "getPack",
      "outputs": [
        {
          "components": [
            {
              "internalType": "string",
              "name": "uri",
              "type": "string"
            },
            {
              "internalType": "address",
              "name": "creator",
              "type": "address"
            },
            {
              "internalType": "uint256",
              "name": "openStart",
              "type": "uint256"
            },
            {
              "internalType": "uint256",
              "name": "openEnd",
              "type": "uint256"
            }
          ],
          "internalType": "struct Pack.PackState",
          "name": "pack",
          "type": "tuple"
        }
      ],
      "stateMutability": "view",
      "type": "function"
    },
    {
      "inputs": [
        {
          "internalType": "uint256",
          "name": "_packId",
          "type": "uint256"
        }
      ],
      "name": "getPackWithRewards",
      "outputs": [
        {
          "components": [
            {
              "internalType": "string",
              "name": "uri",
              "type": "string"
            },
            {
              "internalType": "address",
              "name": "creator",
              "type": "address"
            },
            {
              "internalType": "uint256",
              "name": "openStart",
              "type": "uint256"
            },
            {
              "internalType": "uint256",
              "name": "openEnd",
              "type": "uint256"
            }
          ],
          "internalType": "struct Pack.PackState",
          "name": "pack",
          "type": "tuple"
        },
        {
          "internalType": "address",
          "name": "source",
          "type": "address"
        },
        {
          "internalType": "uint256[]",
          "name": "tokenIds",
          "type": "uint256[]"
        },
        {
          "internalType": "uint256[]",
          "name": "amountsPacked",
          "type": "uint256[]"
        }
      ],
      "stateMutability": "view",
      "type": "function"
    },
    {
      "inputs": [
        {
          "internalType": "bytes32",
          "name": "role",
          "type": "bytes32"
        }
      ],
      "name": "getRoleAdmin",
      "outputs": [
        {
          "internalType": "bytes32",
          "name": "",
          "type": "bytes32"
        }
      ],
      "stateMutability": "view",
      "type": "function"
    },
    {
      "inputs": [
        {
          "internalType": "bytes32",
          "name": "role",
          "type": "bytes32"
        },
        {
          "internalType": "uint256",
          "name": "index",
          "type": "uint256"
        }
      ],
      "name": "getRoleMember",
      "outputs": [
        {
          "internalType": "address",
          "name": "",
          "type": "address"
        }
      ],
      "stateMutability": "view",
      "type": "function"
    },
    {
      "inputs": [
        {
          "internalType": "bytes32",
          "name": "role",
          "type": "bytes32"
        }
      ],
      "name": "getRoleMemberCount",
      "outputs": [
        {
          "internalType": "uint256",
          "name": "",
          "type": "uint256"
        }
      ],
      "stateMutability": "view",
      "type": "function"
    },
    {
      "inputs": [
        {
          "internalType": "bytes32",
          "name": "role",
          "type": "bytes32"
        },
        {
          "internalType": "address",
          "name": "account",
          "type": "address"
        }
      ],
      "name": "grantRole",
      "outputs": [],
      "stateMutability": "nonpayable",
      "type": "function"
    },
    {
      "inputs": [
        {
          "internalType": "bytes32",
          "name": "role",
          "type": "bytes32"
        },
        {
          "internalType": "address",
          "name": "account",
          "type": "address"
        }
      ],
      "name": "hasRole",
      "outputs": [
        {
          "internalType": "bool",
          "name": "",
          "type": "bool"
        }
      ],
      "stateMutability": "view",
      "type": "function"
    },
    {
      "inputs": [
        {
          "internalType": "address",
          "name": "account",
          "type": "address"
        },
        {
          "internalType": "address",
          "name": "operator",
          "type": "address"
        }
      ],
      "name": "isApprovedForAll",
      "outputs": [
        {
          "internalType": "bool",
          "name": "",
          "type": "bool"
        }
      ],
      "stateMutability": "view",
      "type": "function"
    },
    {
      "inputs": [],
      "name": "isRestrictedTransfer",
      "outputs": [
        {
          "internalType": "bool",
          "name": "",
          "type": "bool"
        }
      ],
      "stateMutability": "view",
      "type": "function"
    },
    {
      "inputs": [
        {
          "internalType": "address",
          "name": "forwarder",
          "type": "address"
        }
      ],
      "name": "isTrustedForwarder",
      "outputs": [
        {
          "internalType": "bool",
          "name": "",
          "type": "bool"
        }
      ],
      "stateMutability": "view",
      "type": "function"
    },
    {
      "inputs": [
        {
          "internalType": "address",
          "name": "",
          "type": "address"
        },
        {
          "internalType": "uint256",
          "name": "",
          "type": "uint256"
        },
        {
          "internalType": "uint256",
          "name": "",
          "type": "uint256"
        },
        {
          "internalType": "bytes",
          "name": "",
          "type": "bytes"
        }
      ],
      "name": "mint",
      "outputs": [],
      "stateMutability": "nonpayable",
      "type": "function"
    },
    {
      "inputs": [
        {
          "internalType": "address",
          "name": "",
          "type": "address"
        },
        {
          "internalType": "uint256[]",
          "name": "",
          "type": "uint256[]"
        },
        {
          "internalType": "uint256[]",
          "name": "",
          "type": "uint256[]"
        },
        {
          "internalType": "bytes",
          "name": "",
          "type": "bytes"
        }
      ],
      "name": "mintBatch",
      "outputs": [],
      "stateMutability": "nonpayable",
      "type": "function"
    },
    {
      "inputs": [],
      "name": "nextTokenId",
      "outputs": [
        {
          "internalType": "uint256",
          "name": "",
          "type": "uint256"
        }
      ],
      "stateMutability": "view",
      "type": "function"
    },
    {
      "inputs": [
        {
          "internalType": "address",
          "name": "",
          "type": "address"
        },
        {
          "internalType": "address",
          "name": "_from",
          "type": "address"
        },
        {
          "internalType": "uint256[]",
          "name": "_ids",
          "type": "uint256[]"
        },
        {
          "internalType": "uint256[]",
          "name": "_values",
          "type": "uint256[]"
        },
        {
          "internalType": "bytes",
          "name": "_data",
          "type": "bytes"
        }
      ],
      "name": "onERC1155BatchReceived",
      "outputs": [
        {
          "internalType": "bytes4",
          "name": "",
          "type": "bytes4"
        }
      ],
      "stateMutability": "nonpayable",
      "type": "function"
    },
    {
      "inputs": [
        {
          "internalType": "address",
          "name": "",
          "type": "address"
        },
        {
          "internalType": "address",
          "name": "",
          "type": "address"
        },
        {
          "internalType": "uint256",
          "name": "",
          "type": "uint256"
        },
        {
          "internalType": "uint256",
          "name": "",
          "type": "uint256"
        },
        {
          "internalType": "bytes",
          "name": "",
          "type": "bytes"
        }
      ],
      "name": "onERC1155Received",
      "outputs": [
        {
          "internalType": "bytes4",
          "name": "",
          "type": "bytes4"
        }
      ],
      "stateMutability": "nonpayable",
      "type": "function"
    },
    {
      "inputs": [
        {
          "internalType": "address",
          "name": "",
          "type": "address"
        },
        {
          "internalType": "address",
          "name": "",
          "type": "address"
        },
        {
          "internalType": "uint256",
          "name": "",
          "type": "uint256"
        },
        {
          "internalType": "bytes",
          "name": "",
          "type": "bytes"
        }
      ],
      "name": "onERC721Received",
      "outputs": [
        {
          "internalType": "bytes4",
          "name": "",
          "type": "bytes4"
        }
      ],
      "stateMutability": "nonpayable",
      "type": "function"
    },
    {
      "inputs": [
        {
          "internalType": "uint256",
          "name": "_packId",
          "type": "uint256"
        }
      ],
      "name": "openPack",
      "outputs": [],
      "stateMutability": "nonpayable",
      "type": "function"
    },
    {
      "inputs": [
        {
          "internalType": "uint256",
          "name": "",
          "type": "uint256"
        }
      ],
      "name": "packs",
      "outputs": [
        {
          "internalType": "string",
          "name": "uri",
          "type": "string"
        },
        {
          "internalType": "address",
          "name": "creator",
          "type": "address"
        },
        {
          "internalType": "uint256",
          "name": "openStart",
          "type": "uint256"
        },
        {
          "internalType": "uint256",
          "name": "openEnd",
          "type": "uint256"
        }
      ],
      "stateMutability": "view",
      "type": "function"
    },
    {
      "inputs": [],
      "name": "pause",
      "outputs": [],
      "stateMutability": "nonpayable",
      "type": "function"
    },
    {
      "inputs": [],
      "name": "paused",
      "outputs": [
        {
          "internalType": "bool",
          "name": "",
          "type": "bool"
        }
      ],
      "stateMutability": "view",
      "type": "function"
    },
    {
      "inputs": [
        {
          "internalType": "bytes32",
          "name": "",
          "type": "bytes32"
        }
      ],
      "name": "randomnessRequests",
      "outputs": [
        {
          "internalType": "uint256",
          "name": "packId",
          "type": "uint256"
        },
        {
          "internalType": "address",
          "name": "opener",
          "type": "address"
        }
      ],
      "stateMutability": "view",
      "type": "function"
    },
    {
      "inputs": [
        {
          "internalType": "bytes32",
          "name": "requestId",
          "type": "bytes32"
        },
        {
          "internalType": "uint256",
          "name": "randomness",
          "type": "uint256"
        }
      ],
      "name": "rawFulfillRandomness",
      "outputs": [],
      "stateMutability": "nonpayable",
      "type": "function"
    },
    {
      "inputs": [
        {
          "internalType": "bytes32",
          "name": "role",
          "type": "bytes32"
        },
        {
          "internalType": "address",
          "name": "account",
          "type": "address"
        }
      ],
      "name": "renounceRole",
      "outputs": [],
      "stateMutability": "nonpayable",
      "type": "function"
    },
    {
      "inputs": [
        {
          "internalType": "bytes32",
          "name": "role",
          "type": "bytes32"
        },
        {
          "internalType": "address",
          "name": "account",
          "type": "address"
        }
      ],
      "name": "revokeRole",
      "outputs": [],
      "stateMutability": "nonpayable",
      "type": "function"
    },
    {
      "inputs": [
        {
          "internalType": "uint256",
          "name": "",
          "type": "uint256"
        }
      ],
      "name": "rewards",
      "outputs": [
        {
          "internalType": "address",
          "name": "source",
          "type": "address"
        },
        {
          "internalType": "uint256",
          "name": "rewardsPerOpen",
          "type": "uint256"
        }
      ],
      "stateMutability": "view",
      "type": "function"
    },
    {
      "inputs": [],
      "name": "royaltyBps",
      "outputs": [
        {
          "internalType": "uint256",
          "name": "",
          "type": "uint256"
        }
      ],
      "stateMutability": "view",
      "type": "function"
    },
    {
      "inputs": [
        {
          "internalType": "uint256",
          "name": "",
          "type": "uint256"
        },
        {
          "internalType": "uint256",
          "name": "salePrice",
          "type": "uint256"
        }
      ],
      "name": "royaltyInfo",
      "outputs": [
        {
          "internalType": "address",
          "name": "receiver",
          "type": "address"
        },
        {
          "internalType": "uint256",
          "name": "royaltyAmount",
          "type": "uint256"
        }
      ],
      "stateMutability": "view",
      "type": "function"
    },
    {
      "inputs": [
        {
          "internalType": "address",
          "name": "from",
          "type": "address"
        },
        {
          "internalType": "address",
          "name": "to",
          "type": "address"
        },
        {
          "internalType": "uint256[]",
          "name": "ids",
          "type": "uint256[]"
        },
        {
          "internalType": "uint256[]",
          "name": "amounts",
          "type": "uint256[]"
        },
        {
          "internalType": "bytes",
          "name": "data",
          "type": "bytes"
        }
      ],
      "name": "safeBatchTransferFrom",
      "outputs": [],
      "stateMutability": "nonpayable",
      "type": "function"
    },
    {
      "inputs": [
        {
          "internalType": "address",
          "name": "from",
          "type": "address"
        },
        {
          "internalType": "address",
          "name": "to",
          "type": "address"
        },
        {
          "internalType": "uint256",
          "name": "id",
          "type": "uint256"
        },
        {
          "internalType": "uint256",
          "name": "amount",
          "type": "uint256"
        },
        {
          "internalType": "bytes",
          "name": "data",
          "type": "bytes"
        }
      ],
      "name": "safeTransferFrom",
      "outputs": [],
      "stateMutability": "nonpayable",
      "type": "function"
    },
    {
      "inputs": [
        {
          "internalType": "address",
          "name": "operator",
          "type": "address"
        },
        {
          "internalType": "bool",
          "name": "approved",
          "type": "bool"
        }
      ],
      "name": "setApprovalForAll",
      "outputs": [],
      "stateMutability": "nonpayable",
      "type": "function"
    },
    {
      "inputs": [
        {
          "internalType": "uint256",
          "name": "_newFees",
          "type": "uint256"
        }
      ],
      "name": "setChainlinkFees",
      "outputs": [],
      "stateMutability": "nonpayable",
      "type": "function"
    },
    {
      "inputs": [
        {
          "internalType": "string",
          "name": "_URI",
          "type": "string"
        }
      ],
      "name": "setContractURI",
      "outputs": [],
      "stateMutability": "nonpayable",
      "type": "function"
    },
    {
      "inputs": [
        {
          "internalType": "bool",
          "name": "_restrictedTransfer",
          "type": "bool"
        }
      ],
      "name": "setRestrictedTransfer",
      "outputs": [],
      "stateMutability": "nonpayable",
      "type": "function"
    },
    {
      "inputs": [
        {
          "internalType": "uint256",
          "name": "_royaltyBps",
          "type": "uint256"
        }
      ],
      "name": "setRoyaltyBps",
      "outputs": [],
      "stateMutability": "nonpayable",
      "type": "function"
    },
    {
      "inputs": [
        {
          "internalType": "bytes4",
          "name": "interfaceId",
          "type": "bytes4"
        }
      ],
      "name": "supportsInterface",
      "outputs": [
        {
          "internalType": "bool",
          "name": "",
          "type": "bool"
        }
      ],
      "stateMutability": "pure",
      "type": "function"
    },
    {
      "inputs": [
        {
          "internalType": "uint256",
          "name": "_id",
          "type": "uint256"
        }
      ],
      "name": "tokenURI",
      "outputs": [
        {
          "internalType": "string",
          "name": "",
          "type": "string"
        }
      ],
      "stateMutability": "view",
      "type": "function"
    },
    {
      "inputs": [
        {
          "internalType": "uint256",
          "name": "id",
          "type": "uint256"
        }
      ],
      "name": "totalSupply",
      "outputs": [
        {
          "internalType": "uint256",
          "name": "",
          "type": "uint256"
        }
      ],
      "stateMutability": "view",
      "type": "function"
    },
    {
      "inputs": [
        {
          "internalType": "address",
          "name": "_to",
          "type": "address"
        },
        {
          "internalType": "uint256",
          "name": "_amount",
          "type": "uint256"
        }
      ],
      "name": "transferLink",
      "outputs": [],
      "stateMutability": "nonpayable",
      "type": "function"
    },
    {
      "inputs": [],
      "name": "unpause",
      "outputs": [],
      "stateMutability": "nonpayable",
      "type": "function"
    },
    {
      "inputs": [
        {
          "internalType": "uint256",
          "name": "_id",
          "type": "uint256"
        }
      ],
      "name": "uri",
      "outputs": [
        {
          "internalType": "string",
          "name": "",
          "type": "string"
        }
      ],
      "stateMutability": "view",
      "type": "function"
    },
    {
      "inputs": [],
      "name": "vrfFees",
      "outputs": [
        {
          "internalType": "uint256",
          "name": "",
          "type": "uint256"
        }
      ],
      "stateMutability": "view",
      "type": "function"
    },
    {
      "inputs": [],
      "name": "vrfKeyHash",
      "outputs": [
        {
          "internalType": "bytes32",
          "name": "",
          "type": "bytes32"
        }
      ],
      "stateMutability": "view",
      "type": "function"
    }
  ],
  "bytecode": "0x60c06040523480156200001157600080fd5b5060405162005fd838038062005fd8833981016040819052620000349162000436565b8085858880620000448162000169565b506005805460ff191690556200006560006200005f62000182565b6200019f565b620000947f9f2df0fed2c77648de5860a4cc508cd0818c85b8b8a1ab4ceeef8d981c8956a66200005f62000182565b620000c37f65d7a28e3265b37a6474929f336521b332c1681b933f6cb9f3376673440d862a6200005f62000182565b506001600160601b0319606092831b811660a052911b16608052600880546001600160a01b039283166001600160a01b03199182161790915560098054928a1692909116919091179055600c839055600b82905585516200012c90600e90602089019062000383565b506200015c7f8502233096d909befbda0999bb8ea2f3a6be3c138b9fbf003752a4c8bce86f6c6200005f62000182565b50505050505050620005d5565b80516200017e90600490602084019062000383565b5050565b600062000199620001e260201b6200220c1760201c565b90505b90565b620001b682826200022260201b6200223a1760201c565b6000828152600160209081526040909120620001dd918390620022446200022e821b17901c565b505050565b6000620001ef336200024e565b1562000205575060131936013560601c6200019c565b6200021a6200026560201b620022591760201c565b90506200019c565b6200017e828262000269565b600062000245836001600160a01b038416620002f3565b90505b92915050565b6008546001600160a01b038281169116145b919050565b3390565b62000275828262000342565b6200017e576000828152602081815260408083206001600160a01b03851684529091529020805460ff19166001179055620002af62000182565b6001600160a01b0316816001600160a01b0316837f2f8788117e7eff1d82e926ec794901d17c78024a50270940304540a733656f0d60405160405180910390a45050565b60006200030183836200036b565b620003395750815460018181018455600084815260208082209093018490558454848252828601909352604090209190915562000248565b50600062000248565b6000918252602082815260408084206001600160a01b0393909316845291905290205460ff1690565b60009081526001919091016020526040902054151590565b828054620003919062000569565b90600052602060002090601f016020900481019282620003b5576000855562000400565b82601f10620003d057805160ff191683800117855562000400565b8280016001018555821562000400579182015b8281111562000400578251825591602001919060010190620003e3565b506200040e92915062000412565b5090565b5b808211156200040e576000815560010162000413565b80516200026081620005bc565b600080600080600080600060e0888a03121562000451578283fd5b87516200045e81620005bc565b602089810151919850906001600160401b03808211156200047d578586fd5b818b0191508b601f83011262000491578586fd5b815181811115620004a657620004a6620005a6565b604051601f8201601f1916810185018381118282101715620004cc57620004cc620005a6565b60405281815283820185018e1015620004e3578788fd5b8792505b81831015620005065783830185015181840186015291840191620004e7565b818311156200051757878583830101525b809a5050505050506200052d6040890162000429565b94506200053d6060890162000429565b93506080880151925060a088015191506200055b60c0890162000429565b905092959891949750929550565b6002810460018216806200057e57607f821691505b60208210811415620005a057634e487b7160e01b600052602260045260246000fd5b50919050565b634e487b7160e01b600052604160045260246000fd5b6001600160a01b0381168114620005d257600080fd5b50565b60805160601c60a05160601c6159c2620006166000396000818161199c015261258f01526000818161129601528181612164015261256001526159c26000f3fe608060405234801561001057600080fd5b50600436106103615760003560e01c80638456cb59116101c8578063c0e7274011610104578063e8a3d485116100a2578063f242432a1161007c578063f242432a1461070c578063f301af421461071f578063f5298aca14610732578063f99b1d681461074557610361565b8063e8a3d485146106de578063e985e9c5146106e6578063f23a6e61146106f957610361565b8063ca15c873116100de578063ca15c873146106a8578063d5391393146106bb578063d547741f146106c3578063e63ab1e9146106d657610361565b8063c0e7274014610698578063c63adb2b146106a0578063c87b56dd146103b757610361565b806394985ddd11610171578063b277ca451161014b578063b277ca451461063c578063b84c13921461064f578063bc197c8114610672578063bd85b0391461068557610361565b806394985ddd1461060e578063a217fddf14610621578063a22cb4651461062957610361565b80639010d07c116101a25780639010d07c146105d557806391d14854146105e8578063938e3d7b146105fb57610361565b80638456cb591461059a578063895ec54c146105a25780638ba448c2146105c257610361565b80632f2ff15d116102a2578063572b6c05116102405780636b20c4541161021a5780636b20c45414610569578063731133e91461057c57806375794a3c1461058a57806383661b291461059257610361565b8063572b6c051461052d5780635c975abb146105405780635e619b781461054857610361565b80634e1273f41161027c5780634e1273f4146104c757806350a88c7e146104e7578063510b5158146104fa5780635318c48f1461051a57610361565b80632f2ff15d1461049957806336568abe146104ac5780633f4ba83a146104bf57610361565b8063150b7a021161030f578063206b60f9116102e9578063206b60f91461044a578063248a9ca3146104525780632a55205a146104655780632eb2c2d61461048657610361565b8063150b7a02146104025780631f72d831146104225780631f7fdffa1461043757610361565b80630e89341c116103405780630e89341c146103b757806310983e57146103d757806310e34e67146103df57610361565b8062fdd58e1461036657806301ffc9a71461038f578063041d443e146103af575b600080fd5b6103796103743660046143c0565b610758565b6040516103869190614a0f565b60405180910390f35b6103a261039d3660046145d5565b6107b4565b6040516103869190614a04565b610379610805565b6103ca6103c5366004614560565b61080b565b6040516103869190614a81565b6103796108ad565b6103f26103ed366004614560565b6108b3565b6040516103869493929190615621565b6104156104103660046141c4565b610a75565b6040516103869190614a6c565b610435610430366004614560565b610a85565b005b610435610445366004614308565b610d21565b610379610d39565b610379610460366004614560565b610d5d565b6104786104733660046145b4565b610d72565b604051610386929190614982565b61043561049436600461411a565b610eb6565b6104356104a7366004614590565b610f14565b6104356104ba366004614590565b610f3b565b610435610f5d565b6104da6104d5366004614468565b610faf565b60405161038691906149cc565b6104356104f5366004614560565b6110cf565b61050d610508366004614560565b6114c2565b6040516103869190614875565b610379610528366004614590565b6114e0565b6103a261053b3660046140aa565b6114fd565b6103a2611511565b61055b610556366004614560565b61151b565b604051610386929190614a18565b610435610577366004614295565b61153d565b61043561044536600461441f565b610379611592565b6103a2611598565b6104356115a8565b6105b56105b0366004614560565b6115f8565b604051610386919061560e565b6104356105d0366004614528565b6116d8565b61050d6105e33660046145b4565b611827565b6103a26105f6366004614590565b611846565b61043561060936600461460d565b61186f565b61043561061c3660046145b4565b611991565b6103796119e7565b610435610637366004614393565b6119ec565b61043561064a366004614560565b611aba565b61066261065d366004614560565b611bd5565b6040516103869493929190614a94565b61041561068036600461411a565b611c91565b610379610693366004614560565b611d7a565b6103ca611d8c565b610379611e1a565b6103796106b6366004614560565b611e20565b610379611e37565b6104356106d1366004614590565b611e5b565b610379611e65565b6103ca611e89565b6103a26106f43660046140e2565b611f1b565b61041561070736600461422e565b611f49565b61043561071a36600461422e565b611f63565b61047861072d366004614560565b611fba565b6104356107403660046143eb565b611fdf565b6104356107533660046143c0565b612034565b60006001600160a01b0383166107895760405162461bcd60e51b815260040161078090614cac565b60405180910390fd5b5060008181526002602090815260408083206001600160a01b03861684529091529020545b92915050565b60006001600160e01b03198216630271189760e51b14806107e557506001600160e01b03198216636cdb3d1360e11b145b806107ae57506001600160e01b0319821663152a902d60e11b1492915050565b600c5481565b6000818152600f6020526040902080546060919061082890615828565b80601f016020809104026020016040519081016040528092919081815260200182805461085490615828565b80156108a15780601f10610876576101008083540402835291602001916108a1565b820191906000526020600020905b81548152906001019060200180831161088457829003601f168201915b50505050509050919050565b600b5481565b6108bb613e7a565b6000606080600f60008681526020019081526020016000206040518060800160405290816000820180546108ee90615828565b80601f016020809104026020016040519081016040528092919081815260200182805461091a90615828565b80156109675780601f1061093c57610100808354040283529160200191610967565b820191906000526020600020905b81548152906001019060200180831161094a57829003601f168201915b50505091835250506001828101546001600160a01b03908116602080850191909152600285015460408086019190915260039095015460609094019390935260008a81526010845284902080549201805485518186028101860190965280865295995091169650919290830182828015610a0057602002820191906000526020600020905b8154815260200190600101908083116109ec575b5050505050915060106000868152602001908152602001600020600201805480602002602001604051908101604052809291908181526020018280548015610a6757602002820191906000526020600020905b815481526020019060010190808311610a53575b505050505090509193509193565b630a85bd0160e11b949350505050565b60095460408051634a32c6bf60e11b815290516001600160a01b03909216916391d148549183916394658d7e91600480820192602092909190829003018186803b158015610ad257600080fd5b505afa158015610ae6573d6000803e3d6000fd5b505050506040513d601f19601f82011682018060405250810190610b0a9190614578565b610b1261225d565b6040518363ffffffff1660e01b8152600401610b2f929190614a18565b60206040518083038186803b158015610b4757600080fd5b505afa158015610b5b573d6000803e3d6000fd5b505050506040513d601f19601f82011682018060405250810190610b7f9190614544565b610b9b5760405162461bcd60e51b815260040161078090614bbb565b600960009054906101000a90046001600160a01b03166001600160a01b0316635cd423156040518163ffffffff1660e01b815260040160206040518083038186803b158015610be957600080fd5b505afa158015610bfd573d6000803e3d6000fd5b505050506040513d601f19601f82011682018060405250810190610c219190614708565b600960009054906101000a90046001600160a01b03166001600160a01b031663fd967f476040518163ffffffff1660e01b815260040160206040518083038186803b158015610c6f57600080fd5b505afa158015610c83573d6000803e3d6000fd5b505050506040513d601f19601f82011682018060405250810190610ca79190614708565b610cb1919061579d565b6fffffffffffffffffffffffffffffffff168110610ce15760405162461bcd60e51b8152600401610780906154f7565b600d8190556040517f244ea8d7627f5a08f4299862bd5a45752842c183aee5b0fb0d1e4887bfa605b390610d16908390614a0f565b60405180910390a150565b60405162461bcd60e51b81526004016107809061517a565b7f8502233096d909befbda0999bb8ea2f3a6be3c138b9fbf003752a4c8bce86f6c81565b60009081526020819052604090206001015490565b600080600960009054906101000a90046001600160a01b03166001600160a01b0316630f603ed36040518163ffffffff1660e01b815260040160206040518083038186803b158015610dc357600080fd5b505afa158015610dd7573d6000803e3d6000fd5b505050506040513d601f19601f82011682018060405250810190610dfb91906140c6565b9150600960009054906101000a90046001600160a01b03166001600160a01b031663fd967f476040518163ffffffff1660e01b815260040160206040518083038186803b158015610e4b57600080fd5b505afa158015610e5f573d6000803e3d6000fd5b505050506040513d601f19601f82011682018060405250810190610e839190614708565b6fffffffffffffffffffffffffffffffff16600d5484610ea3919061577e565b610ead919061576a565b90509250929050565b610ebe61225d565b6001600160a01b0316856001600160a01b03161480610ee45750610ee4856106f461225d565b610f005760405162461bcd60e51b815260040161078090615020565b610f0d858585858561226c565b5050505050565b610f1e8282612440565b6000828152600160205260409020610f369082612244565b505050565b610f458282612464565b6000828152600160205260409020610f3690826124a6565b610f897f65d7a28e3265b37a6474929f336521b332c1681b933f6cb9f3376673440d862a6105f661225d565b610fa55760405162461bcd60e51b815260040161078090615288565b610fad6124bb565b565b60608151835114610fd25760405162461bcd60e51b8152600401610780906153fc565b6000835167ffffffffffffffff811115610ffc57634e487b7160e01b600052604160045260246000fd5b604051908082528060200260200182016040528015611025578160200160208202803683370190505b50905060005b84518110156110c75761108c85828151811061105757634e487b7160e01b600052603260045260246000fd5b602002602001015185838151811061107f57634e487b7160e01b600052603260045260246000fd5b6020026020010151610758565b8282815181106110ac57634e487b7160e01b600052603260045260246000fd5b60209081029190910101526110c08161585d565b905061102b565b509392505050565b600960009054906101000a90046001600160a01b03166001600160a01b0316639d2f83f06040518163ffffffff1660e01b815260040160206040518083038186803b15801561111d57600080fd5b505afa158015611131573d6000803e3d6000fd5b505050506040513d601f19601f820116820180604052508101906111559190614544565b156111725760405162461bcd60e51b815260040161078090614ef8565b6000818152600f602052604080822081516080810190925280548290829061119990615828565b80601f01602080910402602001604051908101604052809291908181526020018280546111c590615828565b80156112125780601f106111e757610100808354040283529160200191611212565b820191906000526020600020905b8154815290600101906020018083116111f557829003601f168201915b505050918352505060018201546001600160a01b0316602082015260028201546040808301919091526003909201546060909101528101519091504210801590611260575080606001514211155b61127c5760405162461bcd60e51b815260040161078090614c18565b600b546040516370a0823160e01b81526001600160a01b037f000000000000000000000000000000000000000000000000000000000000000016906370a08231906112cb903090600401614875565b60206040518083038186803b1580156112e357600080fd5b505afa1580156112f7573d6000803e3d6000fd5b505050506040513d601f19601f8201168201806040525081019061131b9190614578565b10156113395760405162461bcd60e51b815260040161078090614e3e565b600061134c61134661225d565b84610758565b116113695760405162461bcd60e51b815260040161078090615342565b60008281526012602052604081209061138061225d565b6001600160a01b03168152602081019190915260400160002054156113b75760405162461bcd60e51b815260040161078090614f2f565b6113ca6113c261225d565b836001612529565b60006113da600c54600b5461255c565b905060405180604001604052808481526020016113f561225d565b6001600160a01b03908116909152600083815260116020908152604080832085518155948201516001909501805473ffffffffffffffffffffffffffffffffffffffff191695909416949094179092558581526012909152908120829161145a61225d565b6001600160a01b0316815260208101919091526040016000205561147c61225d565b6001600160a01b0316837fb5c27afec62496e403fae78e07136ae7c58425e8128c7b680ea24dee8c8d9401836040516114b59190614a0f565b60405180910390a3505050565b6000908152600f60205260409020600101546001600160a01b031690565b601260209081526000928352604080842090915290825290205481565b6008546001600160a01b0390811691161490565b60055460ff165b90565b601160205260009081526040902080546001909101546001600160a01b031682565b61154561225d565b6001600160a01b0316836001600160a01b0316148061156b575061156b836106f461225d565b6115875760405162461bcd60e51b815260040161078090614daa565b610f3683838361269f565b600a5481565b600854600160a01b900460ff1681565b6115d47f65d7a28e3265b37a6474929f336521b332c1681b933f6cb9f3376673440d862a6105f661225d565b6115f05760405162461bcd60e51b8152600401610780906152e5565b610fad612743565b611600613e7a565b6000828152600f60205260409081902081516080810190925280548290829061162890615828565b80601f016020809104026020016040519081016040528092919081815260200182805461165490615828565b80156116a15780601f10611676576101008083540402835291602001916116a1565b820191906000526020600020905b81548152906001019060200180831161168457829003601f168201915b505050918352505060018201546001600160a01b031660208201526002820154604082015260039091015460609091015292915050565b60095460408051634a32c6bf60e11b815290516001600160a01b03909216916391d148549183916394658d7e91600480820192602092909190829003018186803b15801561172557600080fd5b505afa158015611739573d6000803e3d6000fd5b505050506040513d601f19601f8201168201806040525081019061175d9190614578565b61176561225d565b6040518363ffffffff1660e01b8152600401611782929190614a18565b60206040518083038186803b15801561179a57600080fd5b505afa1580156117ae573d6000803e3d6000fd5b505050506040513d601f19601f820116820180604052508101906117d29190614544565b6117ee5760405162461bcd60e51b815260040161078090614bbb565b60088054911515600160a01b027fffffffffffffffffffffff00ffffffffffffffffffffffffffffffffffffffff909216919091179055565b600082815260016020526040812061183f908361279e565b9392505050565b6000918252602082815260408084206001600160a01b0393909316845291905290205460ff1690565b60095460408051634a32c6bf60e11b815290516001600160a01b03909216916391d148549183916394658d7e91600480820192602092909190829003018186803b1580156118bc57600080fd5b505afa1580156118d0573d6000803e3d6000fd5b505050506040513d601f19601f820116820180604052508101906118f49190614578565b6118fc61225d565b6040518363ffffffff1660e01b8152600401611919929190614a18565b60206040518083038186803b15801561193157600080fd5b505afa158015611945573d6000803e3d6000fd5b505050506040513d601f19601f820116820180604052508101906119699190614544565b6119855760405162461bcd60e51b815260040161078090614bbb565b610f36600e8383613eab565b336001600160a01b037f000000000000000000000000000000000000000000000000000000000000000016146119d95760405162461bcd60e51b8152600401610780906151bd565b6119e382826127aa565b5050565b600081565b816001600160a01b03166119fe61225d565b6001600160a01b03161415611a255760405162461bcd60e51b81526004016107809061539f565b8060036000611a3261225d565b6001600160a01b03908116825260208083019390935260409182016000908120918716808252919093529120805460ff191692151592909217909155611a7661225d565b6001600160a01b03167f17307eab39ab6107e8899845ad3d59bd9653f200f220920489ca2b5937696c3183604051611aae9190614a04565b60405180910390a35050565b60095460408051634a32c6bf60e11b815290516001600160a01b03909216916391d148549183916394658d7e91600480820192602092909190829003018186803b158015611b0757600080fd5b505afa158015611b1b573d6000803e3d6000fd5b505050506040513d601f19601f82011682018060405250810190611b3f9190614578565b611b4761225d565b6040518363ffffffff1660e01b8152600401611b64929190614a18565b60206040518083038186803b158015611b7c57600080fd5b505afa158015611b90573d6000803e3d6000fd5b505050506040513d601f19601f82011682018060405250810190611bb49190614544565b611bd05760405162461bcd60e51b815260040161078090614bbb565b600b55565b600f60205260009081526040902080548190611bf090615828565b80601f0160208091040260200160405190810160405280929190818152602001828054611c1c90615828565b8015611c695780601f10611c3e57610100808354040283529160200191611c69565b820191906000526020600020905b815481529060010190602001808311611c4c57829003601f168201915b505050506001830154600284015460039094015492936001600160a01b039091169290915084565b600954604080516309d2f83f60e41b815290516000926001600160a01b031691639d2f83f0916004808301926020929190829003018186803b158015611cd657600080fd5b505afa158015611cea573d6000803e3d6000fd5b505050506040513d601f19601f82011682018060405250810190611d0e9190614544565b15611d2b5760405162461bcd60e51b815260040161078090614ef8565b60008060008085806020019051810190611d45919061467a565b9350935093509350611d648985611d5a61225d565b8b8b8888886129a3565b5063bc197c8160e01b9998505050505050505050565b60009081526006602052604090205490565b600e8054611d9990615828565b80601f0160208091040260200160405190810160405280929190818152602001828054611dc590615828565b8015611e125780601f10611de757610100808354040283529160200191611e12565b820191906000526020600020905b815481529060010190602001808311611df557829003601f168201915b505050505081565b600d5481565b60008181526001602052604081206107ae90612d3d565b7f9f2df0fed2c77648de5860a4cc508cd0818c85b8b8a1ab4ceeef8d981c8956a681565b610f458282612d48565b7f65d7a28e3265b37a6474929f336521b332c1681b933f6cb9f3376673440d862a81565b6060600e8054611e9890615828565b80601f0160208091040260200160405190810160405280929190818152602001828054611ec490615828565b8015611f115780601f10611ee657610100808354040283529160200191611f11565b820191906000526020600020905b815481529060010190602001808311611ef457829003601f168201915b5050505050905090565b6001600160a01b03918216600090815260036020908152604080832093909416825291909152205460ff1690565b600060405162461bcd60e51b8152600401610780906151f4565b611f6b61225d565b6001600160a01b0316856001600160a01b03161480611f915750611f91856106f461225d565b611fad5760405162461bcd60e51b815260040161078090614daa565b610f0d8585858585612d67565b601060205260009081526040902080546003909101546001600160a01b039091169082565b611fe761225d565b6001600160a01b0316836001600160a01b0316148061200d575061200d836106f461225d565b6120295760405162461bcd60e51b815260040161078090614daa565b610f36838383612529565b60095460408051634a32c6bf60e11b815290516001600160a01b03909216916391d148549183916394658d7e91600480820192602092909190829003018186803b15801561208157600080fd5b505afa158015612095573d6000803e3d6000fd5b505050506040513d601f19601f820116820180604052508101906120b99190614578565b6120c161225d565b6040518363ffffffff1660e01b81526004016120de929190614a18565b60206040518083038186803b1580156120f657600080fd5b505afa15801561210a573d6000803e3d6000fd5b505050506040513d601f19601f8201168201806040525081019061212e9190614544565b61214a5760405162461bcd60e51b815260040161078090614bbb565b60405163a9059cbb60e01b81526000906001600160a01b037f0000000000000000000000000000000000000000000000000000000000000000169063a9059cbb9061219b9086908690600401614982565b602060405180830381600087803b1580156121b557600080fd5b505af11580156121c9573d6000803e3d6000fd5b505050506040513d601f19601f820116820180604052508101906121ed9190614544565b905080610f365760405162461bcd60e51b815260040161078090614e07565b6000612217336114fd565b1561222b575060131936013560601c611518565b612233612259565b9050611518565b6119e38282612eae565b600061183f836001600160a01b038416612f33565b3390565b600061226761220c565b905090565b815183511461228d5760405162461bcd60e51b815260040161078090615459565b6001600160a01b0384166122b35760405162461bcd60e51b815260040161078090614fc3565b60006122bd61225d565b90506122cd818787878787612f7d565b60005b84518110156123d25760008582815181106122fb57634e487b7160e01b600052603260045260246000fd5b60200260200101519050600085838151811061232757634e487b7160e01b600052603260045260246000fd5b60209081029190910181015160008481526002835260408082206001600160a01b038e1683529093529190912054909150818110156123785760405162461bcd60e51b8152600401610780906150c0565b60008381526002602090815260408083206001600160a01b038e8116855292528083208585039055908b168252812080548492906123b7908490615752565b92505081905550505050806123cb9061585d565b90506122d0565b50846001600160a01b0316866001600160a01b0316826001600160a01b03167f4a39dc06d4c0dbc64b70af90fd698a233a518aa5d07e595d983b8c0526c8f7fb87876040516124229291906149df565b60405180910390a4612438818787878787613013565b505050505050565b61244982610d5d565b61245a8161245561225d565b613121565b610f368383612eae565b61246c61225d565b6001600160a01b0316816001600160a01b03161461249c5760405162461bcd60e51b8152600401610780906155b1565b6119e38282613185565b600061183f836001600160a01b038416613208565b6124c3611511565b6124df5760405162461bcd60e51b815260040161078090614c75565b6005805460ff191690557f5db9ee0a495bf2e6ff9c91a7834c1ba4fdd244a5e8aa4e537bd38aeae4b073aa61251261225d565b60405161251f9190614875565b60405180910390a1565b612534838383613325565b600082815260066020526040812080548392906125529084906157ce565b9091555050505050565b60007f00000000000000000000000000000000000000000000000000000000000000006001600160a01b0316634000aea07f0000000000000000000000000000000000000000000000000000000000000000848660006040516020016125c39291906147e6565b6040516020818303038152906040526040518463ffffffff1660e01b81526004016125f09392919061499b565b602060405180830381600087803b15801561260a57600080fd5b505af115801561261e573d6000803e3d6000fd5b505050506040513d601f19601f820116820180604052508101906126429190614544565b5060008381526007602052604081205461266190859083903090613438565b60008581526007602052604090205490915061267e906001615752565b6000858152600760205260409020556126978482613472565b949350505050565b6126aa8383836134a5565b60005b825181101561273d578181815181106126d657634e487b7160e01b600052603260045260246000fd5b60200260200101516006600085848151811061270257634e487b7160e01b600052603260045260246000fd5b60200260200101518152602001908152602001600020600082825461272791906157ce565b9091555061273690508161585d565b90506126ad565b50505050565b61274b611511565b156127685760405162461bcd60e51b815260040161078090614f8c565b6005805460ff191660011790557f62e78cea01bee320cd4e420270b5ea74000d11b0c9f74754ebdbfc544b05a25861251261225d565b600061183f8383613659565b60008281526011602090815260408083208151808301835281548082526001928301546001600160a01b039081168387018190528288526012875285882081895287528588208890558288526010875285882086516080810188528154909316835294850180548751818a0281018a0190985280885294989397919693959294929385830193909283018282801561286157602002820191906000526020600020905b81548152602001906001019080831161284d575b50505050508152602001600282018054806020026020016040519081016040528092919081815260200182805480156128b957602002820191906000526020600020905b8154815260200190600101908083116128a5575b5050505050815260200160038201548152505090506000806128dc858885613691565b8451604051631759616b60e11b81529294509092506001600160a01b031690632eb2c2d6906129159030908890879087906004016148e7565b600060405180830381600087803b15801561292f57600080fd5b505af1158015612943573d6000803e3d6000fd5b5050505082600001516001600160a01b0316846001600160a01b0316867f9cae8e743935573869e2fe7223782448d71211235c93076166106782de1c234f8b86604051612991929190614a2f565b60405180910390a45050505050505050565b600960009054906101000a90046001600160a01b03166001600160a01b0316639d2f83f06040518163ffffffff1660e01b815260040160206040518083038186803b1580156129f157600080fd5b505afa158015612a05573d6000803e3d6000fd5b505050506040513d601f19601f82011682018060405250810190612a299190614544565b15612a465760405162461bcd60e51b815260040161078090614ef8565b6040516301ffc9a760e01b81526001600160a01b038716906301ffc9a790612a7990636cdb3d1360e11b90600401614a6c565b60206040518083038186803b158015612a9157600080fd5b505afa158015612aa5573d6000803e3d6000fd5b505050506040513d601f19601f82011682018060405250810190612ac99190614544565b612ae55760405162461bcd60e51b815260040161078090615554565b612b0f7f9f2df0fed2c77648de5860a4cc508cd0818c85b8b8a1ab4ceeef8d981c8956a689611846565b612b2b5760405162461bcd60e51b81526004016107809061522b565b6000612b368561399f565b9050612b428282615878565b15612b5f5760405162461bcd60e51b815260040161078090614e9b565b6000612b696139f9565b90506000612b77848461576a565b9050600060405180608001604052808c81526020018d6001600160a01b031681526020018842612ba79190615752565b81526020018715612bc157612bbc8842615752565b612bc5565b6000195b9052604080516080810182526001600160a01b038d16815260208082018d90528183018c9052606082018990526000878152600f82529290922083518051949550919385939192612c1a928492910190613f2f565b50602082810151600180840180546001600160a01b0393841673ffffffffffffffffffffffffffffffffffffffff1991821617909155604080870151600287015560609096015160039095019490945560008981526010845294909420855181549216919093161782558381015180518594612c9b93908501920190613fa3565b5060408201518051612cb7916002840191602090910190613fa3565b5060608201518160030155905050612ce08d858560405180602001604052806000815250613a17565b8c6001600160a01b03168b6001600160a01b0316857f11f98f1ec0428c3d63f9744a90b9894575c2235c8ef13c38f589ba2768cfd8fc8585604051612d26929190615669565b60405180910390a450505050505050505050505050565b60006107ae82613a4c565b612d5182610d5d565b612d5d8161245561225d565b610f368383613185565b6001600160a01b038416612d8d5760405162461bcd60e51b815260040161078090614fc3565b6000612d9761225d565b9050612db7818787612da888613a50565b612db188613a50565b87612f7d565b60008481526002602090815260408083206001600160a01b038a16845290915290205483811015612dfa5760405162461bcd60e51b8152600401610780906150c0565b60008581526002602090815260408083206001600160a01b038b8116855292528083208785039055908816825281208054869290612e39908490615752565b92505081905550856001600160a01b0316876001600160a01b0316836001600160a01b03167fc3d58168c5ae7397731d063d5bbf3d657854427343f4c083240f7aacaa2d0f628888604051612e8f9291906147e6565b60405180910390a4612ea5828888888888613aa9565b50505050505050565b612eb88282611846565b6119e3576000828152602081815260408083206001600160a01b03851684529091529020805460ff19166001179055612eef61225d565b6001600160a01b0316816001600160a01b0316837f2f8788117e7eff1d82e926ec794901d17c78024a50270940304540a733656f0d60405160405180910390a45050565b6000612f3f8383613b7a565b612f75575081546001818101845560008481526020808220909301849055845484825282860190935260409020919091556107ae565b5060006107ae565b612f8b868686868686613b92565b600854600160a01b900460ff161561243857612fc77f8502233096d909befbda0999bb8ea2f3a6be3c138b9fbf003752a4c8bce86f6c86611846565b80612ff75750612ff77f8502233096d909befbda0999bb8ea2f3a6be3c138b9fbf003752a4c8bce86f6c85611846565b6124385760405162461bcd60e51b81526004016107809061511d565b613025846001600160a01b0316613ba0565b156124385760405163bc197c8160e01b81526001600160a01b0385169063bc197c819061305e9089908990889088908890600401614889565b602060405180830381600087803b15801561307857600080fd5b505af19250505080156130a8575060408051601f3d908101601f191682019092526130a5918101906145f1565b60015b6130f1576130b46158d4565b806130bf57506130d9565b8060405162461bcd60e51b81526004016107809190614a81565b60405162461bcd60e51b815260040161078090614acc565b6001600160e01b0319811663bc197c8160e01b14612ea55760405162461bcd60e51b815260040161078090614b5e565b61312b8282611846565b6119e357613143816001600160a01b03166014613ba6565b61314e836020613ba6565b60405160200161315f9291906147f4565b60408051601f198184030181529082905262461bcd60e51b825261078091600401614a81565b61318f8282611846565b156119e3576000828152602081815260408083206001600160a01b03851684529091529020805460ff191690556131c461225d565b6001600160a01b0316816001600160a01b0316837ff6391f5c32d9c69d2a47ea670b442974b53935d1edc7fd64eb21e047a839171b60405160405180910390a45050565b6000818152600183016020526040812054801561331b57600061322c6001836157ce565b8554909150600090613240906001906157ce565b90508181146132c157600086600001828154811061326e57634e487b7160e01b600052603260045260246000fd5b906000526020600020015490508087600001848154811061329f57634e487b7160e01b600052603260045260246000fd5b6000918252602080832090910192909255918252600188019052604090208390555b85548690806132e057634e487b7160e01b600052603160045260246000fd5b6001900381819060005260206000200160009055905585600101600086815260200190815260200160002060009055600193505050506107ae565b60009150506107ae565b6001600160a01b03831661334b5760405162461bcd60e51b81526004016107809061507d565b600061335561225d565b90506133858185600061336787613a50565b61337087613a50565b60405180602001604052806000815250612f7d565b60008381526002602090815260408083206001600160a01b0388168452909152902054828110156133c85760405162461bcd60e51b815260040161078090614d09565b60008481526002602090815260408083206001600160a01b03808a16808652919093528184208786039055905190918516907fc3d58168c5ae7397731d063d5bbf3d657854427343f4c083240f7aacaa2d0f629061342990899089906147e6565b60405180910390a45050505050565b6000848484846040516020016134519493929190614a48565b60408051601f19818403018152919052805160209091012095945050505050565b600082826040516020016134879291906147e6565b60405160208183030381529060405280519060200120905092915050565b6001600160a01b0383166134cb5760405162461bcd60e51b81526004016107809061507d565b80518251146134ec5760405162461bcd60e51b815260040161078090615459565b60006134f661225d565b905061351681856000868660405180602001604052806000815250612f7d565b60005b83518110156135fa57600084828151811061354457634e487b7160e01b600052603260045260246000fd5b60200260200101519050600084838151811061357057634e487b7160e01b600052603260045260246000fd5b60209081029190910181015160008481526002835260408082206001600160a01b038c1683529093529190912054909150818110156135c15760405162461bcd60e51b815260040161078090614d09565b60009283526002602090815260408085206001600160a01b038b16865290915290922091039055806135f28161585d565b915050613519565b5060006001600160a01b0316846001600160a01b0316826001600160a01b03167f4a39dc06d4c0dbc64b70af90fd698a233a518aa5d07e595d983b8c0526c8f7fb868660405161364b9291906149df565b60405180910390a450505050565b600082600001828154811061367e57634e487b7160e01b600052603260045260246000fd5b9060005260206000200154905092915050565b60608060006136a3846040015161399f565b9050600080856060015167ffffffffffffffff8111156136d357634e487b7160e01b600052604160045260246000fd5b6040519080825280602002602001820160405280156136fc578160200160208202803683370190505b509450856060015167ffffffffffffffff81111561372a57634e487b7160e01b600052604160045260246000fd5b604051908082528060200260200182016040528015613753578160200160208202803683370190505b50935060005b8660600151811015613916578388826040516020016137799291906147e6565b6040516020818303038152906040528051906020012060001c61379c9190615878565b915060005b8760200151518110156139035783886040015182815181106137d357634e487b7160e01b600052603260045260246000fd5b60200260200101516137e59190615752565b8310156138b8578760200151818151811061381057634e487b7160e01b600052603260045260246000fd5b602002602001015187838151811061383857634e487b7160e01b600052603260045260246000fd5b602002602001018181525050600186838151811061386657634e487b7160e01b600052603260045260246000fd5b60200260200101818152505060018860400151828151811061389857634e487b7160e01b600052603260045260246000fd5b602002602001018181516138ac91906157ce565b90525060009350613903565b876040015181815181106138dc57634e487b7160e01b600052603260045260246000fd5b6020026020010151846138ef9190615752565b93506138fc600182615752565b90506137a1565b5061390f600182615752565b9050613759565b5060008881526010602090815260409091208751815473ffffffffffffffffffffffffffffffffffffffff19166001600160a01b03909116178155878201518051899361396a926001850192910190613fa3565b5060408201518051613986916002840191602090910190613fa3565b5060608201518160030155905050505050935093915050565b6000805b82518110156139f3578281815181106139cc57634e487b7160e01b600052603260045260246000fd5b6020026020010151826139df9190615752565b91506139ec600182615752565b90506139a3565b50919050565b600a8054906001906000613a0d8385615752565b9250508190555090565b613a2384848484613d65565b60008381526006602052604081208054849290613a41908490615752565b909155505050505050565b5490565b60408051600180825281830190925260609160009190602080830190803683370190505090508281600081518110613a9857634e487b7160e01b600052603260045260246000fd5b602090810291909101015292915050565b613abb846001600160a01b0316613ba0565b156124385760405163f23a6e6160e01b81526001600160a01b0385169063f23a6e6190613af4908990899088908890889060040161493f565b602060405180830381600087803b158015613b0e57600080fd5b505af1925050508015613b3e575060408051601f3d908101601f19168201909252613b3b918101906145f1565b60015b613b4a576130b46158d4565b6001600160e01b0319811663f23a6e6160e01b14612ea55760405162461bcd60e51b815260040161078090614b5e565b60009081526001919091016020526040902054151590565b612438868686868686613e47565b3b151590565b60606000613bb583600261577e565b613bc0906002615752565b67ffffffffffffffff811115613be657634e487b7160e01b600052604160045260246000fd5b6040519080825280601f01601f191660200182016040528015613c10576020820181803683370190505b509050600360fc1b81600081518110613c3957634e487b7160e01b600052603260045260246000fd5b60200101906001600160f81b031916908160001a905350600f60fb1b81600181518110613c7657634e487b7160e01b600052603260045260246000fd5b60200101906001600160f81b031916908160001a9053506000613c9a84600261577e565b613ca5906001615752565b90505b6001811115613d46577f303132333435363738396162636465660000000000000000000000000000000085600f1660108110613cf457634e487b7160e01b600052603260045260246000fd5b1a60f81b828281518110613d1857634e487b7160e01b600052603260045260246000fd5b60200101906001600160f81b031916908160001a90535060049490941c93613d3f81615811565b9050613ca8565b50831561183f5760405162461bcd60e51b815260040161078090614b29565b6001600160a01b038416613d8b5760405162461bcd60e51b8152600401610780906154b6565b6000613d9561225d565b9050613da781600087612da888613a50565b60008481526002602090815260408083206001600160a01b038916845290915281208054859290613dd9908490615752565b92505081905550846001600160a01b031660006001600160a01b0316826001600160a01b03167fc3d58168c5ae7397731d063d5bbf3d657854427343f4c083240f7aacaa2d0f628787604051613e309291906147e6565b60405180910390a4610f0d81600087878787613aa9565b613e55868686868686612438565b613e5d611511565b156124385760405162461bcd60e51b815260040161078090614d4d565b60405180608001604052806060815260200160006001600160a01b0316815260200160008152602001600081525090565b828054613eb790615828565b90600052602060002090601f016020900481019282613ed95760008555613f1f565b82601f10613ef25782800160ff19823516178555613f1f565b82800160010185558215613f1f579182015b82811115613f1f578235825591602001919060010190613f04565b50613f2b929150613fdd565b5090565b828054613f3b90615828565b90600052602060002090601f016020900481019282613f5d5760008555613f1f565b82601f10613f7657805160ff1916838001178555613f1f565b82800160010185558215613f1f579182015b82811115613f1f578251825591602001919060010190613f88565b828054828255906000526020600020908101928215613f1f5791602002820182811115613f1f578251825591602001919060010190613f88565b5b80821115613f2b5760008155600101613fde565b600082601f830112614002578081fd5b8135602061401761401283615706565b6156dc565b8281528181019085830183850287018401881015614033578586fd5b855b8581101561405157813584529284019290840190600101614035565b5090979650505050505050565b600082601f83011261406e578081fd5b813561407c6140128261572a565b818152846020838601011115614090578283fd5b816020850160208301379081016020019190915292915050565b6000602082840312156140bb578081fd5b813561183f81615979565b6000602082840312156140d7578081fd5b815161183f81615979565b600080604083850312156140f4578081fd5b82356140ff81615979565b9150602083013561410f81615979565b809150509250929050565b600080600080600060a08688031215614131578081fd5b853561413c81615979565b9450602086013561414c81615979565b9350604086013567ffffffffffffffff80821115614168578283fd5b61417489838a01613ff2565b94506060880135915080821115614189578283fd5b61419589838a01613ff2565b935060808801359150808211156141aa578283fd5b506141b78882890161405e565b9150509295509295909350565b600080600080608085870312156141d9578384fd5b84356141e481615979565b935060208501356141f481615979565b925060408501359150606085013567ffffffffffffffff811115614216578182fd5b6142228782880161405e565b91505092959194509250565b600080600080600060a08688031215614245578283fd5b853561425081615979565b9450602086013561426081615979565b93506040860135925060608601359150608086013567ffffffffffffffff811115614289578182fd5b6141b78882890161405e565b6000806000606084860312156142a9578081fd5b83356142b481615979565b9250602084013567ffffffffffffffff808211156142d0578283fd5b6142dc87838801613ff2565b935060408601359150808211156142f1578283fd5b506142fe86828701613ff2565b9150509250925092565b6000806000806080858703121561431d578182fd5b843561432881615979565b9350602085013567ffffffffffffffff80821115614344578384fd5b61435088838901613ff2565b94506040870135915080821115614365578384fd5b61437188838901613ff2565b93506060870135915080821115614386578283fd5b506142228782880161405e565b600080604083850312156143a5578182fd5b82356143b081615979565b9150602083013561410f81615991565b600080604083850312156143d2578182fd5b82356143dd81615979565b946020939093013593505050565b6000806000606084860312156143ff578081fd5b833561440a81615979565b95602085013595506040909401359392505050565b60008060008060808587031215614434578182fd5b843561443f81615979565b93506020850135925060408501359150606085013567ffffffffffffffff811115614216578182fd5b6000806040838503121561447a578182fd5b823567ffffffffffffffff80821115614491578384fd5b818501915085601f8301126144a4578384fd5b813560206144b461401283615706565b82815281810190858301838502870184018b10156144d0578889fd5b8896505b848710156144fb5780356144e781615979565b8352600196909601959183019183016144d4565b5096505086013592505080821115614511578283fd5b5061451e85828601613ff2565b9150509250929050565b600060208284031215614539578081fd5b813561183f81615991565b600060208284031215614555578081fd5b815161183f81615991565b600060208284031215614571578081fd5b5035919050565b600060208284031215614589578081fd5b5051919050565b600080604083850312156145a2578182fd5b82359150602083013561410f81615979565b600080604083850312156145c6578182fd5b50508035926020909101359150565b6000602082840312156145e6578081fd5b813561183f8161599f565b600060208284031215614602578081fd5b815161183f8161599f565b6000806020838503121561461f578182fd5b823567ffffffffffffffff80821115614636578384fd5b818501915085601f830112614649578384fd5b813581811115614657578485fd5b866020828501011115614668578485fd5b60209290920196919550909350505050565b6000806000806080858703121561468f578182fd5b845167ffffffffffffffff8111156146a5578283fd5b8501601f810187136146b5578283fd5b80516146c36140128261572a565b8181528860208385010111156146d7578485fd5b6146e88260208301602086016157e5565b60208801516040890151606090990151919a909950909650945050505050565b600060208284031215614719578081fd5b81516fffffffffffffffffffffffffffffffff8116811461183f578182fd5b6000815180845260208085019450808401835b838110156147675781518752958201959082019060010161474b565b509495945050505050565b6000815180845261478a8160208601602086016157e5565b601f01601f19169290920160200192915050565b60008151608084526147b36080850182614772565b90506001600160a01b03602084015116602085015260408301516040850152606083015160608501528091505092915050565b918252602082015260400190565b60007f416363657373436f6e74726f6c3a206163636f756e74200000000000000000008252835161482c8160178501602088016157e5565b7f206973206d697373696e6720726f6c652000000000000000000000000000000060179184019182015283516148698160288401602088016157e5565b01602801949350505050565b6001600160a01b0391909116815260200190565b60006001600160a01b03808816835280871660208401525060a060408301526148b560a0830186614738565b82810360608401526148c78186614738565b905082810360808401526148db8185614772565b98975050505050505050565b60006001600160a01b03808716835280861660208401525060a0604083015261491360a0830185614738565b82810360608401526149258185614738565b838103608090940193909352508152602001949350505050565b60006001600160a01b03808816835280871660208401525084604083015283606083015260a0608083015261497760a0830184614772565b979650505050505050565b6001600160a01b03929092168252602082015260400190565b60006001600160a01b0385168252836020830152606060408301526149c36060830184614772565b95945050505050565b60006020825261183f6020830184614738565b6000604082526149f26040830185614738565b82810360208401526149c38185614738565b901515815260200190565b90815260200190565b9182526001600160a01b0316602082015260400190565b6000838252604060208301526126976040830184614738565b93845260208401929092526001600160a01b03166040830152606082015260800190565b6001600160e01b031991909116815260200190565b60006020825261183f6020830184614772565b600060808252614aa76080830187614772565b6001600160a01b03959095166020830152506040810192909252606090910152919050565b60208082526034908201527f455243313135353a207472616e7366657220746f206e6f6e204552433131353560408201527f526563656976657220696d706c656d656e746572000000000000000000000000606082015260800190565b6020808252818101527f537472696e67733a20686578206c656e67746820696e73756666696369656e74604082015260600190565b60208082526028908201527f455243313135353a204552433131353552656365697665722072656a6563746560408201527f6420746f6b656e73000000000000000000000000000000000000000000000000606082015260800190565b60208082526033908201527f5061636b3a206f6e6c7920612070726f746f636f6c2061646d696e2063616e2060408201527f63616c6c20746869732066756e6374696f6e2e00000000000000000000000000606082015260800190565b60208082526039908201527f5061636b3a207468652077696e646f7720746f206f70656e207061636b73206860408201527f6173206e6f742073746172746564206f7220636c6f7365642e00000000000000606082015260800190565b60208082526014908201527f5061757361626c653a206e6f7420706175736564000000000000000000000000604082015260600190565b6020808252602b908201527f455243313135353a2062616c616e636520717565727920666f7220746865207a60408201527f65726f2061646472657373000000000000000000000000000000000000000000606082015260800190565b60208082526024908201527f455243313135353a206275726e20616d6f756e7420657863656564732062616c604082015263616e636560e01b606082015260800190565b6020808252602c908201527f455243313135355061757361626c653a20746f6b656e207472616e736665722060408201527f7768696c65207061757365640000000000000000000000000000000000000000606082015260800190565b60208082526029908201527f455243313135353a2063616c6c6572206973206e6f74206f776e6572206e6f7260408201527f20617070726f7665640000000000000000000000000000000000000000000000606082015260800190565b6020808252601e908201527f5061636b3a204661696c656420746f207472616e73666572204c494e4b2e0000604082015260600190565b60208082526034908201527f5061636b3a204e6f7420656e6f756768204c494e4b20746f2066756c66696c6c60408201527f2072616e646f6d6e65737320726571756573742e000000000000000000000000606082015260800190565b60208082526029908201527f5061636b3a20696e76616c6964206e756d626572206f6620726577617264732060408201527f706572206f70656e2e0000000000000000000000000000000000000000000000606082015260800190565b6020808252601d908201527f5061636b3a205468652070726f746f636f6c206973207061757365642e000000604082015260600190565b60208082526032908201527f5061636b3a206d757374207761697420666f72207468652070656e64696e672060408201527f7061636b20746f206265206f70656e65642e0000000000000000000000000000606082015260800190565b60208082526010908201527f5061757361626c653a2070617573656400000000000000000000000000000000604082015260600190565b60208082526025908201527f455243313135353a207472616e7366657220746f20746865207a65726f20616460408201527f6472657373000000000000000000000000000000000000000000000000000000606082015260800190565b60208082526032908201527f455243313135353a207472616e736665722063616c6c6572206973206e6f742060408201527f6f776e6572206e6f7220617070726f7665640000000000000000000000000000606082015260800190565b60208082526023908201527f455243313135353a206275726e2066726f6d20746865207a65726f206164647260408201526265737360e81b606082015260800190565b6020808252602a908201527f455243313135353a20696e73756666696369656e742062616c616e636520666f60408201527f72207472616e7366657200000000000000000000000000000000000000000000606082015260800190565b60208082526037908201527f5061636b3a205472616e7366657273206172652072657374726963746564207460408201527f6f205452414e534645525f524f4c4520686f6c64657273000000000000000000606082015260800190565b60208082526023908201527f5061636b3a2063616e6e6f7420667265656c79206d696e74206d6f7265207061604082015262636b7360e81b606082015260800190565b6020808252601f908201527f4f6e6c7920565246436f6f7264696e61746f722063616e2066756c66696c6c00604082015260600190565b6020808252601e908201527f5061636b3a204d75737420757365206261746368207472616e736665722e0000604082015260600190565b6020808252603c908201527f5061636b3a204f6e6c79206163636f756e74732077697468204d494e5445525f60408201527f524f4c452063616e2063616c6c20746869732066756e6374696f6e2e00000000606082015260800190565b6020808252603b908201527f455243313135355072657365744d696e7465725061757365723a206d7573742060408201527f686176652070617573657220726f6c6520746f20756e70617573650000000000606082015260800190565b60208082526039908201527f455243313135355072657365744d696e7465725061757365723a206d7573742060408201527f686176652070617573657220726f6c6520746f20706175736500000000000000606082015260800190565b6020808252602f908201527f5061636b3a2073656e646572206f776e73206e6f207061636b73206f6620746860408201527f6520676976656e207061636b49642e0000000000000000000000000000000000606082015260800190565b60208082526029908201527f455243313135353a2073657474696e6720617070726f76616c2073746174757360408201527f20666f722073656c660000000000000000000000000000000000000000000000606082015260800190565b60208082526029908201527f455243313135353a206163636f756e747320616e6420696473206c656e67746860408201527f206d69736d617463680000000000000000000000000000000000000000000000606082015260800190565b60208082526028908201527f455243313135353a2069647320616e6420616d6f756e7473206c656e6774682060408201527f6d69736d61746368000000000000000000000000000000000000000000000000606082015260800190565b60208082526021908201527f455243313135353a206d696e7420746f20746865207a65726f206164647265736040820152607360f81b606082015260800190565b60208082526029908201527f4e46543a204270732070726f7669646564206d757374206265206c657373207460408201527f68616e20392c3030300000000000000000000000000000000000000000000000606082015260800190565b60208082526032908201527f5061636b3a2072657761726420636f6e747261637420646f6573206e6f74206960408201527f6d706c656d656e742045524320313135352e0000000000000000000000000000606082015260800190565b6020808252602f908201527f416363657373436f6e74726f6c3a2063616e206f6e6c792072656e6f756e636560408201527f20726f6c657320666f722073656c660000000000000000000000000000000000606082015260800190565b60006020825261183f602083018461479e565b600060808252615634608083018761479e565b6001600160a01b038616602084015282810360408401526156558186614738565b905082810360608401526149778185614738565b60006040825261567c604083018561479e565b82810360208401526001600160a01b0384511681526020840151608060208301526156aa6080830182614738565b9050604085015182820360408401526156c38282614738565b9150506060850151606083015280925050509392505050565b60405181810167ffffffffffffffff811182821017156156fe576156fe6158b8565b604052919050565b600067ffffffffffffffff821115615720576157206158b8565b5060209081020190565b600067ffffffffffffffff821115615744576157446158b8565b50601f01601f191660200190565b600082198211156157655761576561588c565b500190565b600082615779576157796158a2565b500490565b60008160001904831182151516156157985761579861588c565b500290565b60006fffffffffffffffffffffffffffffffff838116908316818110156157c6576157c661588c565b039392505050565b6000828210156157e0576157e061588c565b500390565b60005b838110156158005781810151838201526020016157e8565b8381111561273d5750506000910152565b6000816158205761582061588c565b506000190190565b60028104600182168061583c57607f821691505b602082108114156139f357634e487b7160e01b600052602260045260246000fd5b60006000198214156158715761587161588c565b5060010190565b600082615887576158876158a2565b500690565b634e487b7160e01b600052601160045260246000fd5b634e487b7160e01b600052601260045260246000fd5b634e487b7160e01b600052604160045260246000fd5b60e01c90565b600060443d10156158e457611518565b600481823e6308c379a06158f882516158ce565b1461590257611518565b6040513d600319016004823e80513d67ffffffffffffffff81602484011181841117156159325750505050611518565b8284019250825191508082111561594c5750505050611518565b503d8301602082840101111561596457505050611518565b601f01601f1916810160200160405291505090565b6001600160a01b038116811461598e57600080fd5b50565b801515811461598e57600080fd5b6001600160e01b03198116811461598e57600080fdfea164736f6c6343000800000a",
  "linkReferences": {},
  "deployedLinkReferences": {}
}