{
  "_format": "hh-sol-artifact-1",
  "contractName": "Pack",
  "sourceName": "contracts/Pack.sol",
  "abi": [
    {
      "inputs": [
        {
          "internalType": "address payable",
          "name": "_controlCenter",
          "type": "address"
        },
        {
          "internalType": "string",
          "name": "_uri",
          "type": "string"
        },
        {
          "internalType": "address",
          "name": "_vrfCoordinator",
          "type": "address"
        },
        {
          "internalType": "address",
          "name": "_linkToken",
          "type": "address"
        },
        {
          "internalType": "bytes32",
          "name": "_keyHash",
          "type": "bytes32"
        },
        {
          "internalType": "uint256",
          "name": "_fees",
          "type": "uint256"
        },
        {
          "internalType": "address",
          "name": "_trustedForwarder",
          "type": "address"
        }
      ],
      "stateMutability": "nonpayable",
      "type": "constructor"
    },
    {
      "anonymous": false,
      "inputs": [
        {
          "indexed": true,
          "internalType": "address",
          "name": "account",
          "type": "address"
        },
        {
          "indexed": true,
          "internalType": "address",
          "name": "operator",
          "type": "address"
        },
        {
          "indexed": false,
          "internalType": "bool",
          "name": "approved",
          "type": "bool"
        }
      ],
      "name": "ApprovalForAll",
      "type": "event"
    },
    {
      "anonymous": false,
      "inputs": [
        {
          "indexed": true,
          "internalType": "uint256",
          "name": "packId",
          "type": "uint256"
        },
        {
          "indexed": true,
          "internalType": "address",
          "name": "rewardContract",
          "type": "address"
        },
        {
          "indexed": true,
          "internalType": "address",
          "name": "creator",
          "type": "address"
        },
        {
          "components": [
            {
              "internalType": "string",
              "name": "uri",
              "type": "string"
            },
            {
              "internalType": "address",
              "name": "creator",
              "type": "address"
            },
            {
              "internalType": "uint256",
              "name": "currentSupply",
              "type": "uint256"
            },
            {
              "internalType": "uint256",
              "name": "openStart",
              "type": "uint256"
            },
            {
              "internalType": "uint256",
              "name": "openEnd",
              "type": "uint256"
            }
          ],
          "indexed": false,
          "internalType": "struct Pack.PackState",
          "name": "packState",
          "type": "tuple"
        },
        {
          "components": [
            {
              "internalType": "address",
              "name": "source",
              "type": "address"
            },
            {
              "internalType": "uint256[]",
              "name": "tokenIds",
              "type": "uint256[]"
            },
            {
              "internalType": "uint256[]",
              "name": "amountsPacked",
              "type": "uint256[]"
            },
            {
              "internalType": "uint256",
              "name": "rewardsPerOpen",
              "type": "uint256"
            }
          ],
          "indexed": false,
          "internalType": "struct Pack.Rewards",
          "name": "rewards",
          "type": "tuple"
        }
      ],
      "name": "PackCreated",
      "type": "event"
    },
    {
      "anonymous": false,
      "inputs": [
        {
          "indexed": true,
          "internalType": "uint256",
          "name": "packId",
          "type": "uint256"
        },
        {
          "indexed": true,
          "internalType": "address",
          "name": "opener",
          "type": "address"
        },
        {
          "indexed": false,
          "internalType": "bytes32",
          "name": "requestId",
          "type": "bytes32"
        },
        {
          "indexed": true,
          "internalType": "address",
          "name": "rewardContract",
          "type": "address"
        },
        {
          "indexed": false,
          "internalType": "uint256[]",
          "name": "rewardIds",
          "type": "uint256[]"
        }
      ],
      "name": "PackOpenFulfilled",
      "type": "event"
    },
    {
      "anonymous": false,
      "inputs": [
        {
          "indexed": true,
          "internalType": "uint256",
          "name": "packId",
          "type": "uint256"
        },
        {
          "indexed": true,
          "internalType": "address",
          "name": "opener",
          "type": "address"
        },
        {
          "indexed": false,
          "internalType": "bytes32",
          "name": "requestId",
          "type": "bytes32"
        }
      ],
      "name": "PackOpenRequest",
      "type": "event"
    },
    {
      "anonymous": false,
      "inputs": [
        {
          "indexed": false,
          "internalType": "address",
          "name": "account",
          "type": "address"
        }
      ],
      "name": "Paused",
      "type": "event"
    },
    {
      "anonymous": false,
      "inputs": [
        {
          "indexed": true,
          "internalType": "bytes32",
          "name": "role",
          "type": "bytes32"
        },
        {
          "indexed": true,
          "internalType": "bytes32",
          "name": "previousAdminRole",
          "type": "bytes32"
        },
        {
          "indexed": true,
          "internalType": "bytes32",
          "name": "newAdminRole",
          "type": "bytes32"
        }
      ],
      "name": "RoleAdminChanged",
      "type": "event"
    },
    {
      "anonymous": false,
      "inputs": [
        {
          "indexed": true,
          "internalType": "bytes32",
          "name": "role",
          "type": "bytes32"
        },
        {
          "indexed": true,
          "internalType": "address",
          "name": "account",
          "type": "address"
        },
        {
          "indexed": true,
          "internalType": "address",
          "name": "sender",
          "type": "address"
        }
      ],
      "name": "RoleGranted",
      "type": "event"
    },
    {
      "anonymous": false,
      "inputs": [
        {
          "indexed": true,
          "internalType": "bytes32",
          "name": "role",
          "type": "bytes32"
        },
        {
          "indexed": true,
          "internalType": "address",
          "name": "account",
          "type": "address"
        },
        {
          "indexed": true,
          "internalType": "address",
          "name": "sender",
          "type": "address"
        }
      ],
      "name": "RoleRevoked",
      "type": "event"
    },
    {
      "anonymous": false,
      "inputs": [
        {
          "indexed": false,
          "internalType": "uint256",
          "name": "royaltyBps",
          "type": "uint256"
        }
      ],
      "name": "RoyaltyUpdated",
      "type": "event"
    },
    {
      "anonymous": false,
      "inputs": [
        {
          "indexed": true,
          "internalType": "address",
          "name": "operator",
          "type": "address"
        },
        {
          "indexed": true,
          "internalType": "address",
          "name": "from",
          "type": "address"
        },
        {
          "indexed": true,
          "internalType": "address",
          "name": "to",
          "type": "address"
        },
        {
          "indexed": false,
          "internalType": "uint256[]",
          "name": "ids",
          "type": "uint256[]"
        },
        {
          "indexed": false,
          "internalType": "uint256[]",
          "name": "values",
          "type": "uint256[]"
        }
      ],
      "name": "TransferBatch",
      "type": "event"
    },
    {
      "anonymous": false,
      "inputs": [
        {
          "indexed": true,
          "internalType": "address",
          "name": "operator",
          "type": "address"
        },
        {
          "indexed": true,
          "internalType": "address",
          "name": "from",
          "type": "address"
        },
        {
          "indexed": true,
          "internalType": "address",
          "name": "to",
          "type": "address"
        },
        {
          "indexed": false,
          "internalType": "uint256",
          "name": "id",
          "type": "uint256"
        },
        {
          "indexed": false,
          "internalType": "uint256",
          "name": "value",
          "type": "uint256"
        }
      ],
      "name": "TransferSingle",
      "type": "event"
    },
    {
      "anonymous": false,
      "inputs": [
        {
          "indexed": false,
          "internalType": "string",
          "name": "value",
          "type": "string"
        },
        {
          "indexed": true,
          "internalType": "uint256",
          "name": "id",
          "type": "uint256"
        }
      ],
      "name": "URI",
      "type": "event"
    },
    {
      "anonymous": false,
      "inputs": [
        {
          "indexed": false,
          "internalType": "address",
          "name": "account",
          "type": "address"
        }
      ],
      "name": "Unpaused",
      "type": "event"
    },
    {
      "inputs": [],
      "name": "DEFAULT_ADMIN_ROLE",
      "outputs": [
        {
          "internalType": "bytes32",
          "name": "",
          "type": "bytes32"
        }
      ],
      "stateMutability": "view",
      "type": "function"
    },
    {
      "inputs": [],
      "name": "MINTER_ROLE",
      "outputs": [
        {
          "internalType": "bytes32",
          "name": "",
          "type": "bytes32"
        }
      ],
      "stateMutability": "view",
      "type": "function"
    },
    {
      "inputs": [],
      "name": "PAUSER_ROLE",
      "outputs": [
        {
          "internalType": "bytes32",
          "name": "",
          "type": "bytes32"
        }
      ],
      "stateMutability": "view",
      "type": "function"
    },
    {
      "inputs": [],
      "name": "_contractURI",
      "outputs": [
        {
          "internalType": "string",
          "name": "",
          "type": "string"
        }
      ],
      "stateMutability": "view",
      "type": "function"
    },
    {
      "inputs": [
        {
          "internalType": "address",
          "name": "account",
          "type": "address"
        },
        {
          "internalType": "uint256",
          "name": "id",
          "type": "uint256"
        }
      ],
      "name": "balanceOf",
      "outputs": [
        {
          "internalType": "uint256",
          "name": "",
          "type": "uint256"
        }
      ],
      "stateMutability": "view",
      "type": "function"
    },
    {
      "inputs": [
        {
          "internalType": "address[]",
          "name": "accounts",
          "type": "address[]"
        },
        {
          "internalType": "uint256[]",
          "name": "ids",
          "type": "uint256[]"
        }
      ],
      "name": "balanceOfBatch",
      "outputs": [
        {
          "internalType": "uint256[]",
          "name": "",
          "type": "uint256[]"
        }
      ],
      "stateMutability": "view",
      "type": "function"
    },
    {
      "inputs": [
        {
          "internalType": "address",
          "name": "account",
          "type": "address"
        },
        {
          "internalType": "uint256",
          "name": "id",
          "type": "uint256"
        },
        {
          "internalType": "uint256",
          "name": "value",
          "type": "uint256"
        }
      ],
      "name": "burn",
      "outputs": [],
      "stateMutability": "nonpayable",
      "type": "function"
    },
    {
      "inputs": [
        {
          "internalType": "address",
          "name": "account",
          "type": "address"
        },
        {
          "internalType": "uint256[]",
          "name": "ids",
          "type": "uint256[]"
        },
        {
          "internalType": "uint256[]",
          "name": "values",
          "type": "uint256[]"
        }
      ],
      "name": "burnBatch",
      "outputs": [],
      "stateMutability": "nonpayable",
      "type": "function"
    },
    {
      "inputs": [],
      "name": "contractURI",
      "outputs": [
        {
          "internalType": "string",
          "name": "",
          "type": "string"
        }
      ],
      "stateMutability": "view",
      "type": "function"
    },
    {
      "inputs": [
        {
          "internalType": "uint256",
          "name": "_packId",
          "type": "uint256"
        }
      ],
      "name": "creator",
      "outputs": [
        {
          "internalType": "address",
          "name": "",
          "type": "address"
        }
      ],
      "stateMutability": "view",
      "type": "function"
    },
    {
      "inputs": [
        {
          "internalType": "uint256",
          "name": "",
          "type": "uint256"
        },
        {
          "internalType": "address",
          "name": "",
          "type": "address"
        }
      ],
      "name": "currentRequestId",
      "outputs": [
        {
          "internalType": "bytes32",
          "name": "",
          "type": "bytes32"
        }
      ],
      "stateMutability": "view",
      "type": "function"
    },
    {
      "inputs": [
        {
          "internalType": "uint256",
          "name": "_packId",
          "type": "uint256"
        }
      ],
      "name": "getPack",
      "outputs": [
        {
          "components": [
            {
              "internalType": "string",
              "name": "uri",
              "type": "string"
            },
            {
              "internalType": "address",
              "name": "creator",
              "type": "address"
            },
            {
              "internalType": "uint256",
              "name": "currentSupply",
              "type": "uint256"
            },
            {
              "internalType": "uint256",
              "name": "openStart",
              "type": "uint256"
            },
            {
              "internalType": "uint256",
              "name": "openEnd",
              "type": "uint256"
            }
          ],
          "internalType": "struct Pack.PackState",
          "name": "pack",
          "type": "tuple"
        }
      ],
      "stateMutability": "view",
      "type": "function"
    },
    {
      "inputs": [
        {
          "internalType": "uint256",
          "name": "_packId",
          "type": "uint256"
        }
      ],
      "name": "getPackWithRewards",
      "outputs": [
        {
          "components": [
            {
              "internalType": "string",
              "name": "uri",
              "type": "string"
            },
            {
              "internalType": "address",
              "name": "creator",
              "type": "address"
            },
            {
              "internalType": "uint256",
              "name": "currentSupply",
              "type": "uint256"
            },
            {
              "internalType": "uint256",
              "name": "openStart",
              "type": "uint256"
            },
            {
              "internalType": "uint256",
              "name": "openEnd",
              "type": "uint256"
            }
          ],
          "internalType": "struct Pack.PackState",
          "name": "pack",
          "type": "tuple"
        },
        {
          "internalType": "address",
          "name": "source",
          "type": "address"
        },
        {
          "internalType": "uint256[]",
          "name": "tokenIds",
          "type": "uint256[]"
        },
        {
          "internalType": "uint256[]",
          "name": "amountsPacked",
          "type": "uint256[]"
        }
      ],
      "stateMutability": "view",
      "type": "function"
    },
    {
      "inputs": [
        {
          "internalType": "bytes32",
          "name": "role",
          "type": "bytes32"
        }
      ],
      "name": "getRoleAdmin",
      "outputs": [
        {
          "internalType": "bytes32",
          "name": "",
          "type": "bytes32"
        }
      ],
      "stateMutability": "view",
      "type": "function"
    },
    {
      "inputs": [
        {
          "internalType": "bytes32",
          "name": "role",
          "type": "bytes32"
        },
        {
          "internalType": "uint256",
          "name": "index",
          "type": "uint256"
        }
      ],
      "name": "getRoleMember",
      "outputs": [
        {
          "internalType": "address",
          "name": "",
          "type": "address"
        }
      ],
      "stateMutability": "view",
      "type": "function"
    },
    {
      "inputs": [
        {
          "internalType": "bytes32",
          "name": "role",
          "type": "bytes32"
        }
      ],
      "name": "getRoleMemberCount",
      "outputs": [
        {
          "internalType": "uint256",
          "name": "",
          "type": "uint256"
        }
      ],
      "stateMutability": "view",
      "type": "function"
    },
    {
      "inputs": [
        {
          "internalType": "bytes32",
          "name": "role",
          "type": "bytes32"
        },
        {
          "internalType": "address",
          "name": "account",
          "type": "address"
        }
      ],
      "name": "grantRole",
      "outputs": [],
      "stateMutability": "nonpayable",
      "type": "function"
    },
    {
      "inputs": [
        {
          "internalType": "bytes32",
          "name": "role",
          "type": "bytes32"
        },
        {
          "internalType": "address",
          "name": "account",
          "type": "address"
        }
      ],
      "name": "hasRole",
      "outputs": [
        {
          "internalType": "bool",
          "name": "",
          "type": "bool"
        }
      ],
      "stateMutability": "view",
      "type": "function"
    },
    {
      "inputs": [
        {
          "internalType": "address",
          "name": "account",
          "type": "address"
        },
        {
          "internalType": "address",
          "name": "operator",
          "type": "address"
        }
      ],
      "name": "isApprovedForAll",
      "outputs": [
        {
          "internalType": "bool",
          "name": "",
          "type": "bool"
        }
      ],
      "stateMutability": "view",
      "type": "function"
    },
    {
      "inputs": [
        {
          "internalType": "address",
          "name": "forwarder",
          "type": "address"
        }
      ],
      "name": "isTrustedForwarder",
      "outputs": [
        {
          "internalType": "bool",
          "name": "",
          "type": "bool"
        }
      ],
      "stateMutability": "view",
      "type": "function"
    },
    {
      "inputs": [
        {
          "internalType": "address",
          "name": "to",
          "type": "address"
        },
        {
          "internalType": "uint256",
          "name": "id",
          "type": "uint256"
        },
        {
          "internalType": "uint256",
          "name": "amount",
          "type": "uint256"
        },
        {
          "internalType": "bytes",
          "name": "data",
          "type": "bytes"
        }
      ],
      "name": "mint",
      "outputs": [],
      "stateMutability": "nonpayable",
      "type": "function"
    },
    {
      "inputs": [
        {
          "internalType": "address",
          "name": "to",
          "type": "address"
        },
        {
          "internalType": "uint256[]",
          "name": "ids",
          "type": "uint256[]"
        },
        {
          "internalType": "uint256[]",
          "name": "amounts",
          "type": "uint256[]"
        },
        {
          "internalType": "bytes",
          "name": "data",
          "type": "bytes"
        }
      ],
      "name": "mintBatch",
      "outputs": [],
      "stateMutability": "nonpayable",
      "type": "function"
    },
    {
      "inputs": [],
      "name": "nextTokenId",
      "outputs": [
        {
          "internalType": "uint256",
          "name": "",
          "type": "uint256"
        }
      ],
      "stateMutability": "view",
      "type": "function"
    },
    {
      "inputs": [
        {
          "internalType": "address",
          "name": "",
          "type": "address"
        },
        {
          "internalType": "address",
          "name": "_from",
          "type": "address"
        },
        {
          "internalType": "uint256[]",
          "name": "_ids",
          "type": "uint256[]"
        },
        {
          "internalType": "uint256[]",
          "name": "_values",
          "type": "uint256[]"
        },
        {
          "internalType": "bytes",
          "name": "_data",
          "type": "bytes"
        }
      ],
      "name": "onERC1155BatchReceived",
      "outputs": [
        {
          "internalType": "bytes4",
          "name": "",
          "type": "bytes4"
        }
      ],
      "stateMutability": "nonpayable",
      "type": "function"
    },
    {
      "inputs": [
        {
          "internalType": "address",
          "name": "",
          "type": "address"
        },
        {
          "internalType": "address",
          "name": "",
          "type": "address"
        },
        {
          "internalType": "uint256",
          "name": "",
          "type": "uint256"
        },
        {
          "internalType": "uint256",
          "name": "",
          "type": "uint256"
        },
        {
          "internalType": "bytes",
          "name": "",
          "type": "bytes"
        }
      ],
      "name": "onERC1155Received",
      "outputs": [
        {
          "internalType": "bytes4",
          "name": "",
          "type": "bytes4"
        }
      ],
      "stateMutability": "nonpayable",
      "type": "function"
    },
    {
      "inputs": [
        {
          "internalType": "uint256",
          "name": "_packId",
          "type": "uint256"
        }
      ],
      "name": "openPack",
      "outputs": [],
      "stateMutability": "nonpayable",
      "type": "function"
    },
    {
      "inputs": [
        {
          "internalType": "uint256",
          "name": "",
          "type": "uint256"
        }
      ],
      "name": "packs",
      "outputs": [
        {
          "internalType": "string",
          "name": "uri",
          "type": "string"
        },
        {
          "internalType": "address",
          "name": "creator",
          "type": "address"
        },
        {
          "internalType": "uint256",
          "name": "currentSupply",
          "type": "uint256"
        },
        {
          "internalType": "uint256",
          "name": "openStart",
          "type": "uint256"
        },
        {
          "internalType": "uint256",
          "name": "openEnd",
          "type": "uint256"
        }
      ],
      "stateMutability": "view",
      "type": "function"
    },
    {
      "inputs": [],
      "name": "pause",
      "outputs": [],
      "stateMutability": "nonpayable",
      "type": "function"
    },
    {
      "inputs": [],
      "name": "paused",
      "outputs": [
        {
          "internalType": "bool",
          "name": "",
          "type": "bool"
        }
      ],
      "stateMutability": "view",
      "type": "function"
    },
    {
      "inputs": [
        {
          "internalType": "bytes32",
          "name": "",
          "type": "bytes32"
        }
      ],
      "name": "randomnessRequests",
      "outputs": [
        {
          "internalType": "uint256",
          "name": "packId",
          "type": "uint256"
        },
        {
          "internalType": "address",
          "name": "opener",
          "type": "address"
        }
      ],
      "stateMutability": "view",
      "type": "function"
    },
    {
      "inputs": [
        {
          "internalType": "bytes32",
          "name": "requestId",
          "type": "bytes32"
        },
        {
          "internalType": "uint256",
          "name": "randomness",
          "type": "uint256"
        }
      ],
      "name": "rawFulfillRandomness",
      "outputs": [],
      "stateMutability": "nonpayable",
      "type": "function"
    },
    {
      "inputs": [
        {
          "internalType": "bytes32",
          "name": "role",
          "type": "bytes32"
        },
        {
          "internalType": "address",
          "name": "account",
          "type": "address"
        }
      ],
      "name": "renounceRole",
      "outputs": [],
      "stateMutability": "nonpayable",
      "type": "function"
    },
    {
      "inputs": [
        {
          "internalType": "bytes32",
          "name": "role",
          "type": "bytes32"
        },
        {
          "internalType": "address",
          "name": "account",
          "type": "address"
        }
      ],
      "name": "revokeRole",
      "outputs": [],
      "stateMutability": "nonpayable",
      "type": "function"
    },
    {
      "inputs": [
        {
          "internalType": "uint256",
          "name": "",
          "type": "uint256"
        }
      ],
      "name": "rewards",
      "outputs": [
        {
          "internalType": "address",
          "name": "source",
          "type": "address"
        },
        {
          "internalType": "uint256",
          "name": "rewardsPerOpen",
          "type": "uint256"
        }
      ],
      "stateMutability": "view",
      "type": "function"
    },
    {
      "inputs": [],
      "name": "royaltyBps",
      "outputs": [
        {
          "internalType": "uint256",
          "name": "",
          "type": "uint256"
        }
      ],
      "stateMutability": "view",
      "type": "function"
    },
    {
      "inputs": [
        {
          "internalType": "uint256",
          "name": "tokenId",
          "type": "uint256"
        },
        {
          "internalType": "uint256",
          "name": "salePrice",
          "type": "uint256"
        }
      ],
      "name": "royaltyInfo",
      "outputs": [
        {
          "internalType": "address",
          "name": "receiver",
          "type": "address"
        },
        {
          "internalType": "uint256",
          "name": "royaltyAmount",
          "type": "uint256"
        }
      ],
      "stateMutability": "view",
      "type": "function"
    },
    {
      "inputs": [
        {
          "internalType": "address",
          "name": "from",
          "type": "address"
        },
        {
          "internalType": "address",
          "name": "to",
          "type": "address"
        },
        {
          "internalType": "uint256[]",
          "name": "ids",
          "type": "uint256[]"
        },
        {
          "internalType": "uint256[]",
          "name": "amounts",
          "type": "uint256[]"
        },
        {
          "internalType": "bytes",
          "name": "data",
          "type": "bytes"
        }
      ],
      "name": "safeBatchTransferFrom",
      "outputs": [],
      "stateMutability": "nonpayable",
      "type": "function"
    },
    {
      "inputs": [
        {
          "internalType": "address",
          "name": "from",
          "type": "address"
        },
        {
          "internalType": "address",
          "name": "to",
          "type": "address"
        },
        {
          "internalType": "uint256",
          "name": "id",
          "type": "uint256"
        },
        {
          "internalType": "uint256",
          "name": "amount",
          "type": "uint256"
        },
        {
          "internalType": "bytes",
          "name": "data",
          "type": "bytes"
        }
      ],
      "name": "safeTransferFrom",
      "outputs": [],
      "stateMutability": "nonpayable",
      "type": "function"
    },
    {
      "inputs": [
        {
          "internalType": "address",
          "name": "operator",
          "type": "address"
        },
        {
          "internalType": "bool",
          "name": "approved",
          "type": "bool"
        }
      ],
      "name": "setApprovalForAll",
      "outputs": [],
      "stateMutability": "nonpayable",
      "type": "function"
    },
    {
      "inputs": [
        {
          "internalType": "uint256",
          "name": "_newFees",
          "type": "uint256"
        }
      ],
      "name": "setChainlinkFees",
      "outputs": [],
      "stateMutability": "nonpayable",
      "type": "function"
    },
    {
      "inputs": [
        {
          "internalType": "string",
          "name": "_URI",
          "type": "string"
        }
      ],
      "name": "setContractURI",
      "outputs": [],
      "stateMutability": "nonpayable",
      "type": "function"
    },
    {
      "inputs": [
        {
          "internalType": "uint256",
          "name": "_royaltyBps",
          "type": "uint256"
        }
      ],
      "name": "setRoyaltyBps",
      "outputs": [],
      "stateMutability": "nonpayable",
      "type": "function"
    },
    {
      "inputs": [
        {
          "internalType": "bytes4",
          "name": "interfaceId",
          "type": "bytes4"
        }
      ],
      "name": "supportsInterface",
      "outputs": [
        {
          "internalType": "bool",
          "name": "",
          "type": "bool"
        }
      ],
      "stateMutability": "view",
      "type": "function"
    },
    {
      "inputs": [
        {
          "internalType": "uint256",
          "name": "_id",
          "type": "uint256"
        }
      ],
      "name": "tokenURI",
      "outputs": [
        {
          "internalType": "string",
          "name": "",
          "type": "string"
        }
      ],
      "stateMutability": "view",
      "type": "function"
    },
    {
      "inputs": [
        {
          "internalType": "address",
          "name": "_to",
          "type": "address"
        },
        {
          "internalType": "uint256",
          "name": "_amount",
          "type": "uint256"
        }
      ],
      "name": "transferLink",
      "outputs": [],
      "stateMutability": "nonpayable",
      "type": "function"
    },
    {
      "inputs": [],
      "name": "unpause",
      "outputs": [],
      "stateMutability": "nonpayable",
      "type": "function"
    },
    {
      "inputs": [
        {
          "internalType": "uint256",
          "name": "_id",
          "type": "uint256"
        }
      ],
      "name": "uri",
      "outputs": [
        {
          "internalType": "string",
          "name": "",
          "type": "string"
        }
      ],
      "stateMutability": "view",
      "type": "function"
    },
    {
      "inputs": [],
      "name": "vrfFees",
      "outputs": [
        {
          "internalType": "uint256",
          "name": "",
          "type": "uint256"
        }
      ],
      "stateMutability": "view",
      "type": "function"
    },
    {
      "inputs": [],
      "name": "vrfKeyHash",
      "outputs": [
        {
          "internalType": "bytes32",
          "name": "",
          "type": "bytes32"
        }
      ],
      "stateMutability": "view",
      "type": "function"
    }
  ],
  "bytecode": "0x60c06040523480156200001157600080fd5b5060405162005e3238038062005e32833981016040819052620000349162000407565b808585888062000044816200013a565b506005805460ff191690556200006560006200005f62000153565b62000170565b620000947f9f2df0fed2c77648de5860a4cc508cd0818c85b8b8a1ab4ceeef8d981c8956a66200005f62000153565b620000c37f65d7a28e3265b37a6474929f336521b332c1681b933f6cb9f3376673440d862a6200005f62000153565b506001600160601b0319606092831b811660a052911b16608052600780546001600160a01b039283166001600160a01b03199182161790915560088054928a1692909116919091179055600b839055600a82905585516200012c90600d90602089019062000354565b5050505050505050620005a6565b80516200014f90600490602084019062000354565b5050565b60006200016a620001b360201b620020031760201c565b90505b90565b620001878282620001f360201b620020311760201c565b6000828152600160209081526040909120620001ae9183906200203b620001ff821b17901c565b505050565b6000620001c0336200021f565b15620001d6575060131936013560601c6200016d565b620001eb6200023660201b620020501760201c565b90506200016d565b6200014f82826200023a565b600062000216836001600160a01b038416620002c4565b90505b92915050565b6007546001600160a01b038281169116145b919050565b3390565b62000246828262000313565b6200014f576000828152602081815260408083206001600160a01b03851684529091529020805460ff191660011790556200028062000153565b6001600160a01b0316816001600160a01b0316837f2f8788117e7eff1d82e926ec794901d17c78024a50270940304540a733656f0d60405160405180910390a45050565b6000620002d283836200033c565b6200030a5750815460018181018455600084815260208082209093018490558454848252828601909352604090209190915562000219565b50600062000219565b6000918252602082815260408084206001600160a01b0393909316845291905290205460ff1690565b60009081526001919091016020526040902054151590565b82805462000362906200053a565b90600052602060002090601f016020900481019282620003865760008555620003d1565b82601f10620003a157805160ff1916838001178555620003d1565b82800160010185558215620003d1579182015b82811115620003d1578251825591602001919060010190620003b4565b50620003df929150620003e3565b5090565b5b80821115620003df5760008155600101620003e4565b805162000231816200058d565b600080600080600080600060e0888a03121562000422578283fd5b87516200042f816200058d565b602089810151919850906001600160401b03808211156200044e578586fd5b818b0191508b601f83011262000462578586fd5b81518181111562000477576200047762000577565b604051601f8201601f19168101850183811182821017156200049d576200049d62000577565b60405281815283820185018e1015620004b4578788fd5b8792505b81831015620004d75783830185015181840186015291840191620004b8565b81831115620004e857878583830101525b809a505050505050620004fe60408901620003fa565b94506200050e60608901620003fa565b93506080880151925060a088015191506200052c60c08901620003fa565b905092959891949750929550565b6002810460018216806200054f57607f821691505b602082108114156200057157634e487b7160e01b600052602260045260246000fd5b50919050565b634e487b7160e01b600052604160045260246000fd5b6001600160a01b0381168114620005a357600080fd5b50565b60805160601c60a05160601c61584b620005e7600039600081816117a001526125f301526000818161119b01528181611f5b01526125c4015261584b6000f3fe608060405234801561001057600080fd5b506004361061032a5760003560e01c80638456cb59116101b2578063c63adb2b116100f9578063e8a3d485116100a2578063f242432a1161007c578063f242432a14610692578063f301af42146106a5578063f5298aca146106b8578063f99b1d68146106cb5761032a565b8063e8a3d48514610664578063e985e9c51461066c578063f23a6e611461067f5761032a565b8063d5391393116100d3578063d539139314610641578063d547741f14610649578063e63ab1e91461065c5761032a565b8063c63adb2b14610626578063c87b56dd14610380578063ca15c8731461062e5761032a565b8063a217fddf1161015b578063b84c139211610135578063b84c1392146105da578063bc197c81146105fe578063c0e727401461061e5761032a565b8063a217fddf146105ac578063a22cb465146105b4578063b277ca45146105c75761032a565b806391d148541161018c57806391d1485414610573578063938e3d7b1461058657806394985ddd146105995761032a565b80638456cb5914610538578063895ec54c146105405780639010d07c146105605761032a565b806336568abe11610276578063572b6c051161021f5780636b20c454116101f95780636b20c4541461050a578063731133e91461051d57806375794a3c146105305761032a565b8063572b6c05146104ce5780635c975abb146104e15780635e619b78146104e95761032a565b806350a88c7e1161025057806350a88c7e14610488578063510b51581461049b5780635318c48f146104bb5761032a565b806336568abe1461044d5780633f4ba83a146104605780634e1273f4146104685761032a565b80631f72d831116102d85780632a55205a116102b25780632a55205a146104065780632eb2c2d6146104275780632f2ff15d1461043a5761032a565b80631f72d831146103cb5780631f7fdffa146103e0578063248a9ca3146103f35761032a565b80630e89341c116103095780630e89341c1461038057806310983e57146103a057806310e34e67146103a85761032a565b8062fdd58e1461032f57806301ffc9a714610358578063041d443e14610378575b600080fd5b61034261033d366004614299565b6106de565b60405161034f91906148d8565b60405180910390f35b61036b610366366004614494565b61073a565b60405161034f91906148cd565b610342610768565b61039361038e366004614421565b61076e565b60405161034f919061494a565b610342610810565b6103bb6103b6366004614421565b610816565b60405161034f94939291906154bc565b6103de6103d9366004614421565b6109e2565b005b6103de6103ee3660046141ce565b610c7e565b610342610401366004614421565b610cd8565b610419610414366004614473565b610ced565b60405161034f92919061484b565b6103de610435366004614054565b610db1565b6103de610448366004614451565b610e0f565b6103de61045b366004614451565b610e36565b6103de610e58565b61047b610476366004614347565b610eaa565b60405161034f9190614895565b6103de610496366004614421565b610fca565b6104ae6104a9366004614421565b6113c7565b60405161034f919061473e565b6103426104c9366004614451565b6113e5565b61036b6104dc366004614011565b611402565b61036b611416565b6104fc6104f7366004614421565b611420565b60405161034f9291906148e1565b6103de61051836600461415d565b611442565b6103de61052b3660046142f4565b611497565b6103426114eb565b6103de6114f1565b61055361054e366004614421565b611541565b60405161034f91906154a9565b6104ae61056e366004614473565b61162b565b61036b610581366004614451565b61164a565b6103de6105943660046144cc565b611673565b6103de6105a7366004614473565b611795565b6103426117eb565b6103de6105c2366004614263565b6117f0565b6103de6105d5366004614421565b6118be565b6105ed6105e8366004614421565b6119d9565b60405161034f95949392919061495d565b61061161060c366004614054565b611a9a565b60405161034f9190614935565b610393611b83565b610342611c11565b61034261063c366004614421565b611c17565b610342611c2e565b6103de610657366004614451565b611c52565b610342611c5c565b610393611c80565b61036b61067a36600461402b565b611d12565b61061161068d3660046140fa565b611d40565b6103de6106a03660046140fa565b611d5a565b6104196106b3366004614421565b611db1565b6103de6106c63660046142c2565b611dd6565b6103de6106d9366004614299565b611e2b565b60006001600160a01b03831661070f5760405162461bcd60e51b815260040161070690614bda565b60405180910390fd5b5060008181526002602090815260408083206001600160a01b03861684529091529020545b92915050565b600061074582612054565b8061076057506001600160e01b0319821663152a902d60e11b145b90505b919050565b600b5481565b6000818152600e6020526040902080546060919061078b906156c6565b80601f01602080910402602001604051908101604052809291908181526020018280546107b7906156c6565b80156108045780601f106107d957610100808354040283529160200191610804565b820191906000526020600020905b8154815290600101906020018083116107e757829003601f168201915b50505050509050919050565b600a5481565b61081e613dc3565b6000606080600e60008681526020019081526020016000206040518060a0016040529081600082018054610851906156c6565b80601f016020809104026020016040519081016040528092919081815260200182805461087d906156c6565b80156108ca5780601f1061089f576101008083540402835291602001916108ca565b820191906000526020600020905b8154815290600101906020018083116108ad57829003601f168201915b50505091835250506001828101546001600160a01b0390811660208085019190915260028501546040808601919091526003860154606086015260049095015460809094019390935260008a8152600f84528490208054920180548551818602810186019096528086529599509116965091929083018282801561096d57602002820191906000526020600020905b815481526020019060010190808311610959575b50505050509150600f60008681526020019081526020016000206002018054806020026020016040519081016040528092919081815260200182805480156109d457602002820191906000526020600020905b8154815260200190600101908083116109c0575b505050505090509193509193565b60085460408051634a32c6bf60e11b815290516001600160a01b03909216916391d148549183916394658d7e91600480820192602092909190829003018186803b158015610a2f57600080fd5b505afa158015610a43573d6000803e3d6000fd5b505050506040513d601f19601f82011682018060405250810190610a679190614439565b610a6f61205f565b6040518363ffffffff1660e01b8152600401610a8c9291906148e1565b60206040518083038186803b158015610aa457600080fd5b505afa158015610ab8573d6000803e3d6000fd5b505050506040513d601f19601f82011682018060405250810190610adc9190614405565b610af85760405162461bcd60e51b815260040161070690614a8c565b600860009054906101000a90046001600160a01b03166001600160a01b0316635cd423156040518163ffffffff1660e01b815260040160206040518083038186803b158015610b4657600080fd5b505afa158015610b5a573d6000803e3d6000fd5b505050506040513d601f19601f82011682018060405250810190610b7e91906145c7565b600860009054906101000a90046001600160a01b03166001600160a01b031663fd967f476040518163ffffffff1660e01b815260040160206040518083038186803b158015610bcc57600080fd5b505afa158015610be0573d6000803e3d6000fd5b505050506040513d601f19601f82011682018060405250810190610c0491906145c7565b610c0e91906155ed565b6fffffffffffffffffffffffffffffffff168110610c3e5760405162461bcd60e51b815260040161070690614b7d565b600c8190556040517f244ea8d7627f5a08f4299862bd5a45752842c183aee5b0fb0d1e4887bfa605b390610c739083906148d8565b60405180910390a150565b610caa7f9f2df0fed2c77648de5860a4cc508cd0818c85b8b8a1ab4ceeef8d981c8956a661058161205f565b610cc65760405162461bcd60e51b81526004016107069061504b565b610cd28484848461206e565b50505050565b60009081526020819052604090206001015490565b6000828152600e6020908152604080832060010154600854825163fd967f4760e01b815292516001600160a01b039283169594919092169263fd967f479260048083019392829003018186803b158015610d4657600080fd5b505afa158015610d5a573d6000803e3d6000fd5b505050506040513d601f19601f82011682018060405250810190610d7e91906145c7565b6fffffffffffffffffffffffffffffffff16600c5484610d9e919061564d565b610da89190615639565b90509250929050565b610db961205f565b6001600160a01b0316856001600160a01b03161480610ddf5750610ddf8561067a61205f565b610dfb5760405162461bcd60e51b815260040161070690614fab565b610e0885858585856121f0565b5050505050565b610e1982826123c4565b6000828152600160205260409020610e31908261203b565b505050565b610e4082826123e8565b6000828152600160205260409020610e31908261242a565b610e847f65d7a28e3265b37a6474929f336521b332c1681b933f6cb9f3376673440d862a61058161205f565b610ea05760405162461bcd60e51b815260040161070690615180565b610ea861243f565b565b60608151835114610ecd5760405162461bcd60e51b8152600401610706906152f4565b6000835167ffffffffffffffff811115610ef757634e487b7160e01b600052604160045260246000fd5b604051908082528060200260200182016040528015610f20578160200160208202803683370190505b50905060005b8451811015610fc257610f87858281518110610f5257634e487b7160e01b600052603260045260246000fd5b6020026020010151858381518110610f7a57634e487b7160e01b600052603260045260246000fd5b60200260200101516106de565b828281518110610fa757634e487b7160e01b600052603260045260246000fd5b6020908102919091010152610fbb816156fb565b9050610f26565b509392505050565b600860009054906101000a90046001600160a01b03166001600160a01b0316639d2f83f06040518163ffffffff1660e01b815260040160206040518083038186803b15801561101857600080fd5b505afa15801561102c573d6000803e3d6000fd5b505050506040513d601f19601f820116820180604052508101906110509190614405565b1561106d5760405162461bcd60e51b815260040161070690614e83565b6000818152600e6020526040808220815160a08101909252805482908290611094906156c6565b80601f01602080910402602001604051908101604052809291908181526020018280546110c0906156c6565b801561110d5780601f106110e25761010080835404028352916020019161110d565b820191906000526020600020905b8154815290600101906020018083116110f057829003601f168201915b505050918352505060018201546001600160a01b031660208201526002820154604082015260038201546060808301919091526004909201546080909101528101519091504210801590611165575080608001514211155b6111815760405162461bcd60e51b815260040161070690614ae9565b600a546040516370a0823160e01b81526001600160a01b037f000000000000000000000000000000000000000000000000000000000000000016906370a08231906111d090309060040161473e565b60206040518083038186803b1580156111e857600080fd5b505afa1580156111fc573d6000803e3d6000fd5b505050506040513d601f19601f820116820180604052508101906112209190614439565b101561123e5760405162461bcd60e51b815260040161070690614dc9565b600061125161124b61205f565b846106de565b1161126e5760405162461bcd60e51b81526004016107069061523a565b60008281526011602052604081209061128561205f565b6001600160a01b03168152602081019190915260400160002054156112bc5760405162461bcd60e51b815260040161070690614eba565b6112cf6112c761205f565b8360016124ad565b60006112df600b54600a546125c0565b905060405180604001604052808481526020016112fa61205f565b6001600160a01b03908116909152600083815260106020908152604080832085518155948201516001909501805473ffffffffffffffffffffffffffffffffffffffff191695909416949094179092558581526011909152908120829161135f61205f565b6001600160a01b0316815260208101919091526040016000205561138161205f565b6001600160a01b0316837fb5c27afec62496e403fae78e07136ae7c58425e8128c7b680ea24dee8c8d9401836040516113ba91906148d8565b60405180910390a3505050565b6000908152600e60205260409020600101546001600160a01b031690565b601160209081526000928352604080842090915290825290205481565b6007546001600160a01b0390811691161490565b60055460ff165b90565b601060205260009081526040902080546001909101546001600160a01b031682565b61144a61205f565b6001600160a01b0316836001600160a01b0316148061147057506114708361067a61205f565b61148c5760405162461bcd60e51b815260040161070690614d35565b610e31838383612703565b6114c37f9f2df0fed2c77648de5860a4cc508cd0818c85b8b8a1ab4ceeef8d981c8956a661058161205f565b6114df5760405162461bcd60e51b81526004016107069061504b565b610cd2848484846128b7565b60095481565b61151d7f65d7a28e3265b37a6474929f336521b332c1681b933f6cb9f3376673440d862a61058161205f565b6115395760405162461bcd60e51b8152600401610706906151dd565b610ea86129a8565b611549613dc3565b6000828152600e602052604090819020815160a08101909252805482908290611571906156c6565b80601f016020809104026020016040519081016040528092919081815260200182805461159d906156c6565b80156115ea5780601f106115bf576101008083540402835291602001916115ea565b820191906000526020600020905b8154815290600101906020018083116115cd57829003601f168201915b505050918352505060018201546001600160a01b03166020820152600282015460408201526003820154606082015260049091015460809091015292915050565b60008281526001602052604081206116439083612a03565b9392505050565b6000918252602082815260408084206001600160a01b0393909316845291905290205460ff1690565b60085460408051634a32c6bf60e11b815290516001600160a01b03909216916391d148549183916394658d7e91600480820192602092909190829003018186803b1580156116c057600080fd5b505afa1580156116d4573d6000803e3d6000fd5b505050506040513d601f19601f820116820180604052508101906116f89190614439565b61170061205f565b6040518363ffffffff1660e01b815260040161171d9291906148e1565b60206040518083038186803b15801561173557600080fd5b505afa158015611749573d6000803e3d6000fd5b505050506040513d601f19601f8201168201806040525081019061176d9190614405565b6117895760405162461bcd60e51b815260040161070690614a8c565b610e31600d8383613dfb565b336001600160a01b037f000000000000000000000000000000000000000000000000000000000000000016146117dd5760405162461bcd60e51b815260040161070690615149565b6117e78282612a0f565b5050565b600081565b816001600160a01b031661180261205f565b6001600160a01b031614156118295760405162461bcd60e51b815260040161070690615297565b806003600061183661205f565b6001600160a01b03908116825260208083019390935260409182016000908120918716808252919093529120805460ff19169215159290921790915561187a61205f565b6001600160a01b03167f17307eab39ab6107e8899845ad3d59bd9653f200f220920489ca2b5937696c31836040516118b291906148cd565b60405180910390a35050565b60085460408051634a32c6bf60e11b815290516001600160a01b03909216916391d148549183916394658d7e91600480820192602092909190829003018186803b15801561190b57600080fd5b505afa15801561191f573d6000803e3d6000fd5b505050506040513d601f19601f820116820180604052508101906119439190614439565b61194b61205f565b6040518363ffffffff1660e01b81526004016119689291906148e1565b60206040518083038186803b15801561198057600080fd5b505afa158015611994573d6000803e3d6000fd5b505050506040513d601f19601f820116820180604052508101906119b89190614405565b6119d45760405162461bcd60e51b815260040161070690614a8c565b600a55565b600e602052600090815260409020805481906119f4906156c6565b80601f0160208091040260200160405190810160405280929190818152602001828054611a20906156c6565b8015611a6d5780601f10611a4257610100808354040283529160200191611a6d565b820191906000526020600020905b815481529060010190602001808311611a5057829003601f168201915b5050505060018301546002840154600385015460049095015493946001600160a01b039092169390925085565b600854604080516309d2f83f60e41b815290516000926001600160a01b031691639d2f83f0916004808301926020929190829003018186803b158015611adf57600080fd5b505afa158015611af3573d6000803e3d6000fd5b505050506040513d601f19601f82011682018060405250810190611b179190614405565b15611b345760405162461bcd60e51b815260040161070690614e83565b60008060008085806020019051810190611b4e9190614539565b9350935093509350611b6d8985611b6361205f565b8b8b888888612c08565b5063bc197c8160e01b9998505050505050505050565b600d8054611b90906156c6565b80601f0160208091040260200160405190810160405280929190818152602001828054611bbc906156c6565b8015611c095780601f10611bde57610100808354040283529160200191611c09565b820191906000526020600020905b815481529060010190602001808311611bec57829003601f168201915b505050505081565b600c5481565b600081815260016020526040812061076090612fb2565b7f9f2df0fed2c77648de5860a4cc508cd0818c85b8b8a1ab4ceeef8d981c8956a681565b610e408282612fbd565b7f65d7a28e3265b37a6474929f336521b332c1681b933f6cb9f3376673440d862a81565b6060600d8054611c8f906156c6565b80601f0160208091040260200160405190810160405280929190818152602001828054611cbb906156c6565b8015611d085780601f10611cdd57610100808354040283529160200191611d08565b820191906000526020600020905b815481529060010190602001808311611ceb57829003601f168201915b5050505050905090565b6001600160a01b03918216600090815260036020908152604080832093909416825291909152205460ff1690565b600060405162461bcd60e51b8152600401610706906150a8565b611d6261205f565b6001600160a01b0316856001600160a01b03161480611d885750611d888561067a61205f565b611da45760405162461bcd60e51b815260040161070690614d35565b610e088585858585612fdc565b600f60205260009081526040902080546003909101546001600160a01b039091169082565b611dde61205f565b6001600160a01b0316836001600160a01b03161480611e045750611e048361067a61205f565b611e205760405162461bcd60e51b815260040161070690614d35565b610e318383836124ad565b60085460408051634a32c6bf60e11b815290516001600160a01b03909216916391d148549183916394658d7e91600480820192602092909190829003018186803b158015611e7857600080fd5b505afa158015611e8c573d6000803e3d6000fd5b505050506040513d601f19601f82011682018060405250810190611eb09190614439565b611eb861205f565b6040518363ffffffff1660e01b8152600401611ed59291906148e1565b60206040518083038186803b158015611eed57600080fd5b505afa158015611f01573d6000803e3d6000fd5b505050506040513d601f19601f82011682018060405250810190611f259190614405565b611f415760405162461bcd60e51b815260040161070690614a8c565b60405163a9059cbb60e01b81526000906001600160a01b037f0000000000000000000000000000000000000000000000000000000000000000169063a9059cbb90611f92908690869060040161484b565b602060405180830381600087803b158015611fac57600080fd5b505af1158015611fc0573d6000803e3d6000fd5b505050506040513d601f19601f82011682018060405250810190611fe49190614405565b905080610e315760405162461bcd60e51b815260040161070690614d92565b600061200e33611402565b15612022575060131936013560601c61141d565b61202a612050565b905061141d565b6117e78282613114565b6000611643836001600160a01b038416613199565b3390565b6000610760826131e3565b6000612069612003565b905090565b6001600160a01b0384166120945760405162461bcd60e51b8152600401610706906153ae565b81518351146120b55760405162461bcd60e51b815260040161070690615351565b60006120bf61205f565b90506120d081600087878787613223565b60005b8451811015612188578381815181106120fc57634e487b7160e01b600052603260045260246000fd5b60200260200101516002600087848151811061212857634e487b7160e01b600052603260045260246000fd5b602002602001015181526020019081526020016000206000886001600160a01b03166001600160a01b0316815260200190815260200160002060008282546121709190615621565b90915550819050612180816156fb565b9150506120d3565b50846001600160a01b031660006001600160a01b0316826001600160a01b03167f4a39dc06d4c0dbc64b70af90fd698a233a518aa5d07e595d983b8c0526c8f7fb87876040516121d99291906148a8565b60405180910390a4610e08816000878787876132d7565b81518351146122115760405162461bcd60e51b815260040161070690615351565b6001600160a01b0384166122375760405162461bcd60e51b815260040161070690614f4e565b600061224161205f565b9050612251818787878787613223565b60005b845181101561235657600085828151811061227f57634e487b7160e01b600052603260045260246000fd5b6020026020010151905060008583815181106122ab57634e487b7160e01b600052603260045260246000fd5b60209081029190910181015160008481526002835260408082206001600160a01b038e1683529093529190912054909150818110156122fc5760405162461bcd60e51b8152600401610706906150ec565b60008381526002602090815260408083206001600160a01b038e8116855292528083208585039055908b1682528120805484929061233b908490615621565b925050819055505050508061234f906156fb565b9050612254565b50846001600160a01b0316866001600160a01b0316826001600160a01b03167f4a39dc06d4c0dbc64b70af90fd698a233a518aa5d07e595d983b8c0526c8f7fb87876040516123a69291906148a8565b60405180910390a46123bc8187878787876132d7565b505050505050565b6123cd82610cd8565b6123de816123d961205f565b6133e5565b610e318383613114565b6123f061205f565b6001600160a01b0316816001600160a01b0316146124205760405162461bcd60e51b81526004016107069061544c565b6117e78282613449565b6000611643836001600160a01b0384166134cc565b612447611416565b6124635760405162461bcd60e51b815260040161070690614b46565b6005805460ff191690557f5db9ee0a495bf2e6ff9c91a7834c1ba4fdd244a5e8aa4e537bd38aeae4b073aa61249661205f565b6040516124a3919061473e565b60405180910390a1565b6001600160a01b0383166124d35760405162461bcd60e51b815260040161070690615008565b60006124dd61205f565b905061250d818560006124ef876135e9565b6124f8876135e9565b60405180602001604052806000815250613223565b60008381526002602090815260408083206001600160a01b0388168452909152902054828110156125505760405162461bcd60e51b815260040161070690614c37565b60008481526002602090815260408083206001600160a01b03808a16808652919093528184208786039055905190918516907fc3d58168c5ae7397731d063d5bbf3d657854427343f4c083240f7aacaa2d0f62906125b190899089906146af565b60405180910390a45050505050565b60007f00000000000000000000000000000000000000000000000000000000000000006001600160a01b0316634000aea07f0000000000000000000000000000000000000000000000000000000000000000848660006040516020016126279291906146af565b6040516020818303038152906040526040518463ffffffff1660e01b815260040161265493929190614864565b602060405180830381600087803b15801561266e57600080fd5b505af1158015612682573d6000803e3d6000fd5b505050506040513d601f19601f820116820180604052508101906126a69190614405565b506000838152600660205260408120546126c590859083903090613642565b6000858152600660205260409020549091506126e2906001615621565b6000858152600660205260409020556126fb848261367c565b949350505050565b6001600160a01b0383166127295760405162461bcd60e51b815260040161070690615008565b805182511461274a5760405162461bcd60e51b815260040161070690615351565b600061275461205f565b905061277481856000868660405180602001604052806000815250613223565b60005b83518110156128585760008482815181106127a257634e487b7160e01b600052603260045260246000fd5b6020026020010151905060008483815181106127ce57634e487b7160e01b600052603260045260246000fd5b60209081029190910181015160008481526002835260408082206001600160a01b038c16835290935291909120549091508181101561281f5760405162461bcd60e51b815260040161070690614c37565b60009283526002602090815260408085206001600160a01b038b1686529091529092209103905580612850816156fb565b915050612777565b5060006001600160a01b0316846001600160a01b0316826001600160a01b03167f4a39dc06d4c0dbc64b70af90fd698a233a518aa5d07e595d983b8c0526c8f7fb86866040516128a99291906148a8565b60405180910390a450505050565b6001600160a01b0384166128dd5760405162461bcd60e51b8152600401610706906153ae565b60006128e761205f565b9050612908816000876128f9886135e9565b612902886135e9565b87613223565b60008481526002602090815260408083206001600160a01b03891684529091528120805485929061293a908490615621565b92505081905550846001600160a01b031660006001600160a01b0316826001600160a01b03167fc3d58168c5ae7397731d063d5bbf3d657854427343f4c083240f7aacaa2d0f6287876040516129919291906146af565b60405180910390a4610e08816000878787876136af565b6129b0611416565b156129cd5760405162461bcd60e51b815260040161070690614f17565b6005805460ff191660011790557f62e78cea01bee320cd4e420270b5ea74000d11b0c9f74754ebdbfc544b05a25861249661205f565b60006116438383613780565b60008281526010602090815260408083208151808301835281548082526001928301546001600160a01b03908116838701819052828852601187528588208189528752858820889055828852600f875285882086516080810188528154909316835294850180548751818a0281018a01909852808852949893979196939592949293858301939092830182828015612ac657602002820191906000526020600020905b815481526020019060010190808311612ab2575b5050505050815260200160028201805480602002602001604051908101604052809291908181526020018280548015612b1e57602002820191906000526020600020905b815481526020019060010190808311612b0a575b505050505081526020016003820154815250509050600080612b418588856137b8565b8451604051631759616b60e11b81529294509092506001600160a01b031690632eb2c2d690612b7a9030908890879087906004016147b0565b600060405180830381600087803b158015612b9457600080fd5b505af1158015612ba8573d6000803e3d6000fd5b5050505082600001516001600160a01b0316846001600160a01b0316867f9cae8e743935573869e2fe7223782448d71211235c93076166106782de1c234f8b86604051612bf69291906148f8565b60405180910390a45050505050505050565b600860009054906101000a90046001600160a01b03166001600160a01b0316639d2f83f06040518163ffffffff1660e01b815260040160206040518083038186803b158015612c5657600080fd5b505afa158015612c6a573d6000803e3d6000fd5b505050506040513d601f19601f82011682018060405250810190612c8e9190614405565b15612cab5760405162461bcd60e51b815260040161070690614e83565b612cd57f9f2df0fed2c77648de5860a4cc508cd0818c85b8b8a1ab4ceeef8d981c8956a68961164a565b612cf15760405162461bcd60e51b815260040161070690614c7b565b6040516301ffc9a760e01b81526001600160a01b038716906301ffc9a790612d2490636cdb3d1360e11b90600401614935565b60206040518083038186803b158015612d3c57600080fd5b505afa158015612d50573d6000803e3d6000fd5b505050506040513d601f19601f82011682018060405250810190612d749190614405565b612d905760405162461bcd60e51b8152600401610706906153ef565b6000612d9b85613ac6565b9050612da78282615716565b15612dc45760405162461bcd60e51b815260040161070690614e26565b6000612dce613b20565b90506000612ddc8484615639565b905060006040518060a001604052808c81526020018d6001600160a01b031681526020018381526020018842612e129190615621565b81526020018715612e2c57612e278842615621565b612e30565b6000195b9052604080516080810182526001600160a01b038d16815260208082018d90528183018c9052606082018990526000878152600e82529290922083518051949550919385939192612e85928492910190613e7f565b50602082810151600180840180546001600160a01b0393841673ffffffffffffffffffffffffffffffffffffffff19918216179091556040808701516002870155606087015160038701556080909601516004909501949094556000898152600f845294909420855181549216919093161782558381015180518594612f1093908501920190613ef3565b5060408201518051612f2c916002840191602090910190613ef3565b5060608201518160030155905050612f558d8585604051806020016040528060008152506128b7565b8c6001600160a01b03168b6001600160a01b0316857f9330e9dfd1e803e5d709edb2ad6657b74cb0fb1f182bd63fdbbcb01a463e8ad08585604051612f9b929190615504565b60405180910390a450505050505050505050505050565b600061076082613b3e565b612fc682610cd8565b612fd2816123d961205f565b610e318383613449565b6001600160a01b0384166130025760405162461bcd60e51b815260040161070690614f4e565b600061300c61205f565b905061301d8187876128f9886135e9565b60008481526002602090815260408083206001600160a01b038a168452909152902054838110156130605760405162461bcd60e51b8152600401610706906150ec565b60008581526002602090815260408083206001600160a01b038b811685529252808320878503905590881682528120805486929061309f908490615621565b92505081905550856001600160a01b0316876001600160a01b0316836001600160a01b03167fc3d58168c5ae7397731d063d5bbf3d657854427343f4c083240f7aacaa2d0f6288886040516130f59291906146af565b60405180910390a461310b8288888888886136af565b50505050505050565b61311e828261164a565b6117e7576000828152602081815260408083206001600160a01b03851684529091529020805460ff1916600117905561315561205f565b6001600160a01b0316816001600160a01b0316837f2f8788117e7eff1d82e926ec794901d17c78024a50270940304540a733656f0d60405160405180910390a45050565b60006131a58383613b42565b6131db57508154600181810184556000848152602080822090930184905584548482528286019093526040902091909155610734565b506000610734565b60006001600160e01b03198216636cdb3d1360e11b148061321457506001600160e01b031982166303a24d0760e21b145b80610760575061076082613b5a565b613231868686868686613b7f565b6001600160a01b0384166123bc5760005b835181101561310b5782818151811061326b57634e487b7160e01b600052603260045260246000fd5b6020026020010151600e600086848151811061329757634e487b7160e01b600052603260045260246000fd5b6020026020010151815260200190815260200160002060020160008282546132bf919061566c565b909155506132d09050600182615621565b9050613242565b6132e9846001600160a01b0316613b8d565b156123bc5760405163bc197c8160e01b81526001600160a01b0385169063bc197c81906133229089908990889088908890600401614752565b602060405180830381600087803b15801561333c57600080fd5b505af192505050801561336c575060408051601f3d908101601f19168201909252613369918101906144b0565b60015b6133b557613378615772565b80613383575061339d565b8060405162461bcd60e51b8152600401610706919061494a565b60405162461bcd60e51b81526004016107069061499d565b6001600160e01b0319811663bc197c8160e01b1461310b5760405162461bcd60e51b815260040161070690614a2f565b6133ef828261164a565b6117e757613407816001600160a01b03166014613b93565b613412836020613b93565b6040516020016134239291906146bd565b60408051601f198184030181529082905262461bcd60e51b82526107069160040161494a565b613453828261164a565b156117e7576000828152602081815260408083206001600160a01b03851684529091529020805460ff1916905561348861205f565b6001600160a01b0316816001600160a01b0316837ff6391f5c32d9c69d2a47ea670b442974b53935d1edc7fd64eb21e047a839171b60405160405180910390a45050565b600081815260018301602052604081205480156135df5760006134f060018361566c565b85549091506000906135049060019061566c565b905081811461358557600086600001828154811061353257634e487b7160e01b600052603260045260246000fd5b906000526020600020015490508087600001848154811061356357634e487b7160e01b600052603260045260246000fd5b6000918252602080832090910192909255918252600188019052604090208390555b85548690806135a457634e487b7160e01b600052603160045260246000fd5b600190038181906000526020600020016000905590558560010160008681526020019081526020016000206000905560019350505050610734565b6000915050610734565b6040805160018082528183019092526060916000919060208083019080368337019050509050828160008151811061363157634e487b7160e01b600052603260045260246000fd5b602090810291909101015292915050565b60008484848460405160200161365b9493929190614911565b60408051601f19818403018152919052805160209091012095945050505050565b600082826040516020016136919291906146af565b60405160208183030381529060405280519060200120905092915050565b6136c1846001600160a01b0316613b8d565b156123bc5760405163f23a6e6160e01b81526001600160a01b0385169063f23a6e61906136fa9089908990889088908890600401614808565b602060405180830381600087803b15801561371457600080fd5b505af1925050508015613744575060408051601f3d908101601f19168201909252613741918101906144b0565b60015b61375057613378615772565b6001600160e01b0319811663f23a6e6160e01b1461310b5760405162461bcd60e51b815260040161070690614a2f565b60008260000182815481106137a557634e487b7160e01b600052603260045260246000fd5b9060005260206000200154905092915050565b60608060006137ca8460400151613ac6565b9050600080856060015167ffffffffffffffff8111156137fa57634e487b7160e01b600052604160045260246000fd5b604051908082528060200260200182016040528015613823578160200160208202803683370190505b509450856060015167ffffffffffffffff81111561385157634e487b7160e01b600052604160045260246000fd5b60405190808252806020026020018201604052801561387a578160200160208202803683370190505b50935060005b8660600151811015613a3d578388826040516020016138a09291906146af565b6040516020818303038152906040528051906020012060001c6138c39190615716565b915060005b876020015151811015613a2a5783886040015182815181106138fa57634e487b7160e01b600052603260045260246000fd5b602002602001015161390c9190615621565b8310156139df578760200151818151811061393757634e487b7160e01b600052603260045260246000fd5b602002602001015187838151811061395f57634e487b7160e01b600052603260045260246000fd5b602002602001018181525050600186838151811061398d57634e487b7160e01b600052603260045260246000fd5b6020026020010181815250506001886040015182815181106139bf57634e487b7160e01b600052603260045260246000fd5b602002602001018181516139d3919061566c565b90525060009350613a2a565b87604001518181518110613a0357634e487b7160e01b600052603260045260246000fd5b602002602001015184613a169190615621565b9350613a23600182615621565b90506138c8565b50613a36600182615621565b9050613880565b506000888152600f602090815260409091208751815473ffffffffffffffffffffffffffffffffffffffff19166001600160a01b039091161781558782015180518993613a91926001850192910190613ef3565b5060408201518051613aad916002840191602090910190613ef3565b5060608201518160030155905050505050935093915050565b6000805b8251811015613b1a57828181518110613af357634e487b7160e01b600052603260045260246000fd5b602002602001015182613b069190615621565b9150613b13600182615621565b9050613aca565b50919050565b60098054906001906000613b348385615621565b9250508190555090565b5490565b60009081526001919091016020526040902054151590565b60006001600160e01b03198216635a05180f60e01b1480610760575061076082613d52565b6123bc868686868686613d77565b3b151590565b60606000613ba283600261564d565b613bad906002615621565b67ffffffffffffffff811115613bd357634e487b7160e01b600052604160045260246000fd5b6040519080825280601f01601f191660200182016040528015613bfd576020820181803683370190505b509050600360fc1b81600081518110613c2657634e487b7160e01b600052603260045260246000fd5b60200101906001600160f81b031916908160001a905350600f60fb1b81600181518110613c6357634e487b7160e01b600052603260045260246000fd5b60200101906001600160f81b031916908160001a9053506000613c8784600261564d565b613c92906001615621565b90505b6001811115613d33577f303132333435363738396162636465660000000000000000000000000000000085600f1660108110613ce157634e487b7160e01b600052603260045260246000fd5b1a60f81b828281518110613d0557634e487b7160e01b600052603260045260246000fd5b60200101906001600160f81b031916908160001a90535060049490941c93613d2c816156af565b9050613c95565b5083156116435760405162461bcd60e51b8152600401610706906149fa565b60006001600160e01b03198216637965db0b60e01b1480610760575061076082613daa565b613d858686868686866123bc565b613d8d611416565b156123bc5760405162461bcd60e51b815260040161070690614cd8565b6001600160e01b031981166301ffc9a760e01b14919050565b6040518060a001604052806060815260200160006001600160a01b031681526020016000815260200160008152602001600081525090565b828054613e07906156c6565b90600052602060002090601f016020900481019282613e295760008555613e6f565b82601f10613e425782800160ff19823516178555613e6f565b82800160010185558215613e6f579182015b82811115613e6f578235825591602001919060010190613e54565b50613e7b929150613f2d565b5090565b828054613e8b906156c6565b90600052602060002090601f016020900481019282613ead5760008555613e6f565b82601f10613ec657805160ff1916838001178555613e6f565b82800160010185558215613e6f579182015b82811115613e6f578251825591602001919060010190613ed8565b828054828255906000526020600020908101928215613e6f5791602002820182811115613e6f578251825591602001919060010190613ed8565b5b80821115613e7b5760008155600101613f2e565b80356001600160a01b038116811461076357600080fd5b600082601f830112613f69578081fd5b81356020613f7e613f79836155a1565b615577565b8281528181019085830183850287018401881015613f9a578586fd5b855b85811015613fb857813584529284019290840190600101613f9c565b5090979650505050505050565b600082601f830112613fd5578081fd5b8135613fe3613f79826155c5565b818152846020838601011115613ff7578283fd5b816020850160208301379081016020019190915292915050565b600060208284031215614022578081fd5b61164382613f42565b6000806040838503121561403d578081fd5b61404683613f42565b9150610da860208401613f42565b600080600080600060a0868803121561406b578081fd5b61407486613f42565b945061408260208701613f42565b9350604086013567ffffffffffffffff8082111561409e578283fd5b6140aa89838a01613f59565b945060608801359150808211156140bf578283fd5b6140cb89838a01613f59565b935060808801359150808211156140e0578283fd5b506140ed88828901613fc5565b9150509295509295909350565b600080600080600060a08688031215614111578081fd5b61411a86613f42565b945061412860208701613f42565b93506040860135925060608601359150608086013567ffffffffffffffff811115614151578182fd5b6140ed88828901613fc5565b600080600060608486031215614171578283fd5b61417a84613f42565b9250602084013567ffffffffffffffff80821115614196578384fd5b6141a287838801613f59565b935060408601359150808211156141b7578283fd5b506141c486828701613f59565b9150509250925092565b600080600080608085870312156141e3578182fd5b6141ec85613f42565b9350602085013567ffffffffffffffff80821115614208578384fd5b61421488838901613f59565b94506040870135915080821115614229578384fd5b61423588838901613f59565b9350606087013591508082111561424a578283fd5b5061425787828801613fc5565b91505092959194509250565b60008060408385031215614275578182fd5b61427e83613f42565b9150602083013561428e81615817565b809150509250929050565b600080604083850312156142ab578182fd5b6142b483613f42565b946020939093013593505050565b6000806000606084860312156142d6578081fd5b6142df84613f42565b95602085013595506040909401359392505050565b60008060008060808587031215614309578182fd5b61431285613f42565b93506020850135925060408501359150606085013567ffffffffffffffff81111561433b578182fd5b61425787828801613fc5565b60008060408385031215614359578182fd5b823567ffffffffffffffff80821115614370578384fd5b818501915085601f830112614383578384fd5b81356020614393613f79836155a1565b82815281810190858301838502870184018b10156143af578889fd5b8896505b848710156143d8576143c481613f42565b8352600196909601959183019183016143b3565b50965050860135925050808211156143ee578283fd5b506143fb85828601613f59565b9150509250929050565b600060208284031215614416578081fd5b815161164381615817565b600060208284031215614432578081fd5b5035919050565b60006020828403121561444a578081fd5b5051919050565b60008060408385031215614463578182fd5b82359150610da860208401613f42565b60008060408385031215614485578182fd5b50508035926020909101359150565b6000602082840312156144a5578081fd5b813561164381615828565b6000602082840312156144c1578081fd5b815161164381615828565b600080602083850312156144de578182fd5b823567ffffffffffffffff808211156144f5578384fd5b818501915085601f830112614508578384fd5b813581811115614516578485fd5b866020828501011115614527578485fd5b60209290920196919550909350505050565b6000806000806080858703121561454e578182fd5b845167ffffffffffffffff811115614564578283fd5b8501601f81018713614574578283fd5b8051614582613f79826155c5565b818152886020838501011115614596578485fd5b6145a7826020830160208601615683565b60208801516040890151606090990151919a909950909650945050505050565b6000602082840312156145d8578081fd5b81516fffffffffffffffffffffffffffffffff81168114611643578182fd5b6000815180845260208085019450808401835b838110156146265781518752958201959082019060010161460a565b509495945050505050565b60008151808452614649816020860160208601615683565b601f01601f19169290920160200192915050565b6000815160a0845261467260a0850182614631565b90506001600160a01b0360208401511660208501526040830151604085015260608301516060850152608083015160808501528091505092915050565b918252602082015260400190565b60007f416363657373436f6e74726f6c3a206163636f756e7420000000000000000000825283516146f5816017850160208801615683565b7f206973206d697373696e6720726f6c65200000000000000000000000000000006017918401918201528351614732816028840160208801615683565b01602801949350505050565b6001600160a01b0391909116815260200190565b60006001600160a01b03808816835280871660208401525060a0604083015261477e60a08301866145f7565b828103606084015261479081866145f7565b905082810360808401526147a48185614631565b98975050505050505050565b60006001600160a01b03808716835280861660208401525060a060408301526147dc60a08301856145f7565b82810360608401526147ee81856145f7565b838103608090940193909352508152602001949350505050565b60006001600160a01b03808816835280871660208401525084604083015283606083015260a0608083015261484060a0830184614631565b979650505050505050565b6001600160a01b03929092168252602082015260400190565b60006001600160a01b03851682528360208301526060604083015261488c6060830184614631565b95945050505050565b60006020825261164360208301846145f7565b6000604082526148bb60408301856145f7565b828103602084015261488c81856145f7565b901515815260200190565b90815260200190565b9182526001600160a01b0316602082015260400190565b6000838252604060208301526126fb60408301846145f7565b93845260208401929092526001600160a01b03166040830152606082015260800190565b6001600160e01b031991909116815260200190565b6000602082526116436020830184614631565b600060a0825261497060a0830188614631565b90506001600160a01b03861660208301528460408301528360608301528260808301529695505050505050565b60208082526034908201527f455243313135353a207472616e7366657220746f206e6f6e204552433131353560408201527f526563656976657220696d706c656d656e746572000000000000000000000000606082015260800190565b6020808252818101527f537472696e67733a20686578206c656e67746820696e73756666696369656e74604082015260600190565b60208082526028908201527f455243313135353a204552433131353552656365697665722072656a6563746560408201527f6420746f6b656e73000000000000000000000000000000000000000000000000606082015260800190565b60208082526033908201527f5061636b3a206f6e6c7920612070726f746f636f6c2061646d696e2063616e2060408201527f63616c6c20746869732066756e6374696f6e2e00000000000000000000000000606082015260800190565b60208082526039908201527f5061636b3a207468652077696e646f7720746f206f70656e207061636b73206860408201527f6173206e6f742073746172746564206f7220636c6f7365642e00000000000000606082015260800190565b60208082526014908201527f5061757361626c653a206e6f7420706175736564000000000000000000000000604082015260600190565b6020808252602a908201527f5061636b3a204270732070726f7669646564206d757374206265206c6573732060408201527f7468616e20392c30303000000000000000000000000000000000000000000000606082015260800190565b6020808252602b908201527f455243313135353a2062616c616e636520717565727920666f7220746865207a60408201527f65726f2061646472657373000000000000000000000000000000000000000000606082015260800190565b60208082526024908201527f455243313135353a206275726e20616d6f756e7420657863656564732062616c604082015263616e636560e01b606082015260800190565b60208082526036908201527f5061636b3a206f6e6c792063726561746f72732077697468204d494e5445525f60408201527f524f4c452063616e20637265617465207061636b732e00000000000000000000606082015260800190565b6020808252602c908201527f455243313135355061757361626c653a20746f6b656e207472616e736665722060408201527f7768696c65207061757365640000000000000000000000000000000000000000606082015260800190565b60208082526029908201527f455243313135353a2063616c6c6572206973206e6f74206f776e6572206e6f7260408201527f20617070726f7665640000000000000000000000000000000000000000000000606082015260800190565b6020808252601e908201527f5061636b3a204661696c656420746f207472616e73666572204c494e4b2e0000604082015260600190565b60208082526034908201527f5061636b3a204e6f7420656e6f756768204c494e4b20746f2066756c66696c6c60408201527f2072616e646f6d6e65737320726571756573742e000000000000000000000000606082015260800190565b60208082526029908201527f5061636b3a20696e76616c6964206e756d626572206f6620726577617264732060408201527f706572206f70656e2e0000000000000000000000000000000000000000000000606082015260800190565b6020808252601d908201527f5061636b3a205468652070726f746f636f6c206973207061757365642e000000604082015260600190565b60208082526032908201527f5061636b3a206d757374207761697420666f72207468652070656e64696e672060408201527f7061636b20746f206265206f70656e65642e0000000000000000000000000000606082015260800190565b60208082526010908201527f5061757361626c653a2070617573656400000000000000000000000000000000604082015260600190565b60208082526025908201527f455243313135353a207472616e7366657220746f20746865207a65726f20616460408201527f6472657373000000000000000000000000000000000000000000000000000000606082015260800190565b60208082526032908201527f455243313135353a207472616e736665722063616c6c6572206973206e6f742060408201527f6f776e6572206e6f7220617070726f7665640000000000000000000000000000606082015260800190565b60208082526023908201527f455243313135353a206275726e2066726f6d20746865207a65726f206164647260408201526265737360e81b606082015260800190565b60208082526038908201527f455243313135355072657365744d696e7465725061757365723a206d7573742060408201527f68617665206d696e74657220726f6c6520746f206d696e740000000000000000606082015260800190565b60208082526024908201527f5061636b3a204f6e6c79206261746368207472616e73666572732061636365706040820152633a32b21760e11b606082015260800190565b6020808252602a908201527f455243313135353a20696e73756666696369656e742062616c616e636520666f60408201527f72207472616e7366657200000000000000000000000000000000000000000000606082015260800190565b6020808252601f908201527f4f6e6c7920565246436f6f7264696e61746f722063616e2066756c66696c6c00604082015260600190565b6020808252603b908201527f455243313135355072657365744d696e7465725061757365723a206d7573742060408201527f686176652070617573657220726f6c6520746f20756e70617573650000000000606082015260800190565b60208082526039908201527f455243313135355072657365744d696e7465725061757365723a206d7573742060408201527f686176652070617573657220726f6c6520746f20706175736500000000000000606082015260800190565b6020808252602f908201527f5061636b3a2073656e646572206f776e73206e6f207061636b73206f6620746860408201527f6520676976656e207061636b49642e0000000000000000000000000000000000606082015260800190565b60208082526029908201527f455243313135353a2073657474696e6720617070726f76616c2073746174757360408201527f20666f722073656c660000000000000000000000000000000000000000000000606082015260800190565b60208082526029908201527f455243313135353a206163636f756e747320616e6420696473206c656e67746860408201527f206d69736d617463680000000000000000000000000000000000000000000000606082015260800190565b60208082526028908201527f455243313135353a2069647320616e6420616d6f756e7473206c656e6774682060408201527f6d69736d61746368000000000000000000000000000000000000000000000000606082015260800190565b60208082526021908201527f455243313135353a206d696e7420746f20746865207a65726f206164647265736040820152607360f81b606082015260800190565b60208082526032908201527f5061636b3a2072657761726420636f6e747261637420646f6573206e6f74206960408201527f6d706c656d656e742045524320313135352e0000000000000000000000000000606082015260800190565b6020808252602f908201527f416363657373436f6e74726f6c3a2063616e206f6e6c792072656e6f756e636560408201527f20726f6c657320666f722073656c660000000000000000000000000000000000606082015260800190565b600060208252611643602083018461465d565b6000608082526154cf608083018761465d565b6001600160a01b038616602084015282810360408401526154f081866145f7565b9050828103606084015261484081856145f7565b600060408252615517604083018561465d565b82810360208401526001600160a01b03845116815260208401516080602083015261554560808301826145f7565b90506040850151828203604084015261555e82826145f7565b9150506060850151606083015280925050509392505050565b60405181810167ffffffffffffffff8111828210171561559957615599615756565b604052919050565b600067ffffffffffffffff8211156155bb576155bb615756565b5060209081020190565b600067ffffffffffffffff8211156155df576155df615756565b50601f01601f191660200190565b60006fffffffffffffffffffffffffffffffff8083168185168083038211156156185761561861572a565b01949350505050565b600082198211156156345761563461572a565b500190565b60008261564857615648615740565b500490565b60008160001904831182151516156156675761566761572a565b500290565b60008282101561567e5761567e61572a565b500390565b60005b8381101561569e578181015183820152602001615686565b83811115610cd25750506000910152565b6000816156be576156be61572a565b506000190190565b6002810460018216806156da57607f821691505b60208210811415613b1a57634e487b7160e01b600052602260045260246000fd5b600060001982141561570f5761570f61572a565b5060010190565b60008261572557615725615740565b500690565b634e487b7160e01b600052601160045260246000fd5b634e487b7160e01b600052601260045260246000fd5b634e487b7160e01b600052604160045260246000fd5b60e01c90565b600060443d10156157825761141d565b600481823e6308c379a0615796825161576c565b146157a05761141d565b6040513d600319016004823e80513d67ffffffffffffffff81602484011181841117156157d0575050505061141d565b828401925082519150808211156157ea575050505061141d565b503d830160208284010111156158025750505061141d565b601f01601f1916810160200160405291505090565b801515811461582557600080fd5b50565b6001600160e01b03198116811461582557600080fdfea164736f6c6343000800000a",
  "linkReferences": {},
  "deployedLinkReferences": {}
}