{
  "_format": "hh-sol-artifact-1",
  "contractName": "Pack",
  "sourceName": "contracts/Pack.sol",
  "abi": [
    {
      "inputs": [
        {
          "internalType": "address payable",
          "name": "_controlCenter",
          "type": "address"
        },
        {
          "internalType": "string",
          "name": "_uri",
          "type": "string"
        },
        {
          "internalType": "address",
          "name": "_vrfCoordinator",
          "type": "address"
        },
        {
          "internalType": "address",
          "name": "_linkToken",
          "type": "address"
        },
        {
          "internalType": "bytes32",
          "name": "_keyHash",
          "type": "bytes32"
        },
        {
          "internalType": "uint256",
          "name": "_fees",
          "type": "uint256"
        },
        {
          "internalType": "address",
          "name": "_trustedForwarder",
          "type": "address"
        }
      ],
      "stateMutability": "nonpayable",
      "type": "constructor"
    },
    {
      "anonymous": false,
      "inputs": [
        {
          "indexed": true,
          "internalType": "address",
          "name": "account",
          "type": "address"
        },
        {
          "indexed": true,
          "internalType": "address",
          "name": "operator",
          "type": "address"
        },
        {
          "indexed": false,
          "internalType": "bool",
          "name": "approved",
          "type": "bool"
        }
      ],
      "name": "ApprovalForAll",
      "type": "event"
    },
    {
      "anonymous": false,
      "inputs": [
        {
          "indexed": true,
          "internalType": "uint256",
          "name": "packId",
          "type": "uint256"
        },
        {
          "indexed": true,
          "internalType": "address",
          "name": "rewardContract",
          "type": "address"
        },
        {
          "indexed": true,
          "internalType": "address",
          "name": "creator",
          "type": "address"
        },
        {
          "components": [
            {
              "internalType": "string",
              "name": "uri",
              "type": "string"
            },
            {
              "internalType": "address",
              "name": "creator",
              "type": "address"
            },
            {
              "internalType": "uint256",
              "name": "openStart",
              "type": "uint256"
            },
            {
              "internalType": "uint256",
              "name": "openEnd",
              "type": "uint256"
            }
          ],
          "indexed": false,
          "internalType": "struct Pack.PackState",
          "name": "packState",
          "type": "tuple"
        },
        {
          "components": [
            {
              "internalType": "address",
              "name": "source",
              "type": "address"
            },
            {
              "internalType": "uint256[]",
              "name": "tokenIds",
              "type": "uint256[]"
            },
            {
              "internalType": "uint256[]",
              "name": "amountsPacked",
              "type": "uint256[]"
            },
            {
              "internalType": "uint256",
              "name": "rewardsPerOpen",
              "type": "uint256"
            }
          ],
          "indexed": false,
          "internalType": "struct Pack.Rewards",
          "name": "rewards",
          "type": "tuple"
        }
      ],
      "name": "PackCreated",
      "type": "event"
    },
    {
      "anonymous": false,
      "inputs": [
        {
          "indexed": true,
          "internalType": "uint256",
          "name": "packId",
          "type": "uint256"
        },
        {
          "indexed": true,
          "internalType": "address",
          "name": "opener",
          "type": "address"
        },
        {
          "indexed": false,
          "internalType": "bytes32",
          "name": "requestId",
          "type": "bytes32"
        },
        {
          "indexed": true,
          "internalType": "address",
          "name": "rewardContract",
          "type": "address"
        },
        {
          "indexed": false,
          "internalType": "uint256[]",
          "name": "rewardIds",
          "type": "uint256[]"
        }
      ],
      "name": "PackOpenFulfilled",
      "type": "event"
    },
    {
      "anonymous": false,
      "inputs": [
        {
          "indexed": true,
          "internalType": "uint256",
          "name": "packId",
          "type": "uint256"
        },
        {
          "indexed": true,
          "internalType": "address",
          "name": "opener",
          "type": "address"
        },
        {
          "indexed": false,
          "internalType": "bytes32",
          "name": "requestId",
          "type": "bytes32"
        }
      ],
      "name": "PackOpenRequest",
      "type": "event"
    },
    {
      "anonymous": false,
      "inputs": [
        {
          "indexed": false,
          "internalType": "address",
          "name": "account",
          "type": "address"
        }
      ],
      "name": "Paused",
      "type": "event"
    },
    {
      "anonymous": false,
      "inputs": [
        {
          "indexed": true,
          "internalType": "bytes32",
          "name": "role",
          "type": "bytes32"
        },
        {
          "indexed": true,
          "internalType": "bytes32",
          "name": "previousAdminRole",
          "type": "bytes32"
        },
        {
          "indexed": true,
          "internalType": "bytes32",
          "name": "newAdminRole",
          "type": "bytes32"
        }
      ],
      "name": "RoleAdminChanged",
      "type": "event"
    },
    {
      "anonymous": false,
      "inputs": [
        {
          "indexed": true,
          "internalType": "bytes32",
          "name": "role",
          "type": "bytes32"
        },
        {
          "indexed": true,
          "internalType": "address",
          "name": "account",
          "type": "address"
        },
        {
          "indexed": true,
          "internalType": "address",
          "name": "sender",
          "type": "address"
        }
      ],
      "name": "RoleGranted",
      "type": "event"
    },
    {
      "anonymous": false,
      "inputs": [
        {
          "indexed": true,
          "internalType": "bytes32",
          "name": "role",
          "type": "bytes32"
        },
        {
          "indexed": true,
          "internalType": "address",
          "name": "account",
          "type": "address"
        },
        {
          "indexed": true,
          "internalType": "address",
          "name": "sender",
          "type": "address"
        }
      ],
      "name": "RoleRevoked",
      "type": "event"
    },
    {
      "anonymous": false,
      "inputs": [
        {
          "indexed": false,
          "internalType": "uint256",
          "name": "royaltyBps",
          "type": "uint256"
        }
      ],
      "name": "RoyaltyUpdated",
      "type": "event"
    },
    {
      "anonymous": false,
      "inputs": [
        {
          "indexed": true,
          "internalType": "address",
          "name": "operator",
          "type": "address"
        },
        {
          "indexed": true,
          "internalType": "address",
          "name": "from",
          "type": "address"
        },
        {
          "indexed": true,
          "internalType": "address",
          "name": "to",
          "type": "address"
        },
        {
          "indexed": false,
          "internalType": "uint256[]",
          "name": "ids",
          "type": "uint256[]"
        },
        {
          "indexed": false,
          "internalType": "uint256[]",
          "name": "values",
          "type": "uint256[]"
        }
      ],
      "name": "TransferBatch",
      "type": "event"
    },
    {
      "anonymous": false,
      "inputs": [
        {
          "indexed": true,
          "internalType": "address",
          "name": "operator",
          "type": "address"
        },
        {
          "indexed": true,
          "internalType": "address",
          "name": "from",
          "type": "address"
        },
        {
          "indexed": true,
          "internalType": "address",
          "name": "to",
          "type": "address"
        },
        {
          "indexed": false,
          "internalType": "uint256",
          "name": "id",
          "type": "uint256"
        },
        {
          "indexed": false,
          "internalType": "uint256",
          "name": "value",
          "type": "uint256"
        }
      ],
      "name": "TransferSingle",
      "type": "event"
    },
    {
      "anonymous": false,
      "inputs": [
        {
          "indexed": false,
          "internalType": "string",
          "name": "value",
          "type": "string"
        },
        {
          "indexed": true,
          "internalType": "uint256",
          "name": "id",
          "type": "uint256"
        }
      ],
      "name": "URI",
      "type": "event"
    },
    {
      "anonymous": false,
      "inputs": [
        {
          "indexed": false,
          "internalType": "address",
          "name": "account",
          "type": "address"
        }
      ],
      "name": "Unpaused",
      "type": "event"
    },
    {
      "inputs": [],
      "name": "DEFAULT_ADMIN_ROLE",
      "outputs": [
        {
          "internalType": "bytes32",
          "name": "",
          "type": "bytes32"
        }
      ],
      "stateMutability": "view",
      "type": "function"
    },
    {
      "inputs": [],
      "name": "MINTER_ROLE",
      "outputs": [
        {
          "internalType": "bytes32",
          "name": "",
          "type": "bytes32"
        }
      ],
      "stateMutability": "view",
      "type": "function"
    },
    {
      "inputs": [],
      "name": "PAUSER_ROLE",
      "outputs": [
        {
          "internalType": "bytes32",
          "name": "",
          "type": "bytes32"
        }
      ],
      "stateMutability": "view",
      "type": "function"
    },
    {
      "inputs": [],
      "name": "TRANSFER_ROLE",
      "outputs": [
        {
          "internalType": "bytes32",
          "name": "",
          "type": "bytes32"
        }
      ],
      "stateMutability": "view",
      "type": "function"
    },
    {
      "inputs": [],
      "name": "_contractURI",
      "outputs": [
        {
          "internalType": "string",
          "name": "",
          "type": "string"
        }
      ],
      "stateMutability": "view",
      "type": "function"
    },
    {
      "inputs": [
        {
          "internalType": "address",
          "name": "account",
          "type": "address"
        },
        {
          "internalType": "uint256",
          "name": "id",
          "type": "uint256"
        }
      ],
      "name": "balanceOf",
      "outputs": [
        {
          "internalType": "uint256",
          "name": "",
          "type": "uint256"
        }
      ],
      "stateMutability": "view",
      "type": "function"
    },
    {
      "inputs": [
        {
          "internalType": "address[]",
          "name": "accounts",
          "type": "address[]"
        },
        {
          "internalType": "uint256[]",
          "name": "ids",
          "type": "uint256[]"
        }
      ],
      "name": "balanceOfBatch",
      "outputs": [
        {
          "internalType": "uint256[]",
          "name": "",
          "type": "uint256[]"
        }
      ],
      "stateMutability": "view",
      "type": "function"
    },
    {
      "inputs": [
        {
          "internalType": "address",
          "name": "account",
          "type": "address"
        },
        {
          "internalType": "uint256",
          "name": "id",
          "type": "uint256"
        },
        {
          "internalType": "uint256",
          "name": "value",
          "type": "uint256"
        }
      ],
      "name": "burn",
      "outputs": [],
      "stateMutability": "nonpayable",
      "type": "function"
    },
    {
      "inputs": [
        {
          "internalType": "address",
          "name": "account",
          "type": "address"
        },
        {
          "internalType": "uint256[]",
          "name": "ids",
          "type": "uint256[]"
        },
        {
          "internalType": "uint256[]",
          "name": "values",
          "type": "uint256[]"
        }
      ],
      "name": "burnBatch",
      "outputs": [],
      "stateMutability": "nonpayable",
      "type": "function"
    },
    {
      "inputs": [],
      "name": "contractURI",
      "outputs": [
        {
          "internalType": "string",
          "name": "",
          "type": "string"
        }
      ],
      "stateMutability": "view",
      "type": "function"
    },
    {
      "inputs": [
        {
          "internalType": "uint256",
          "name": "_packId",
          "type": "uint256"
        }
      ],
      "name": "creator",
      "outputs": [
        {
          "internalType": "address",
          "name": "",
          "type": "address"
        }
      ],
      "stateMutability": "view",
      "type": "function"
    },
    {
      "inputs": [
        {
          "internalType": "uint256",
          "name": "",
          "type": "uint256"
        },
        {
          "internalType": "address",
          "name": "",
          "type": "address"
        }
      ],
      "name": "currentRequestId",
      "outputs": [
        {
          "internalType": "bytes32",
          "name": "",
          "type": "bytes32"
        }
      ],
      "stateMutability": "view",
      "type": "function"
    },
    {
      "inputs": [
        {
          "internalType": "uint256",
          "name": "_packId",
          "type": "uint256"
        }
      ],
      "name": "getPack",
      "outputs": [
        {
          "components": [
            {
              "internalType": "string",
              "name": "uri",
              "type": "string"
            },
            {
              "internalType": "address",
              "name": "creator",
              "type": "address"
            },
            {
              "internalType": "uint256",
              "name": "openStart",
              "type": "uint256"
            },
            {
              "internalType": "uint256",
              "name": "openEnd",
              "type": "uint256"
            }
          ],
          "internalType": "struct Pack.PackState",
          "name": "pack",
          "type": "tuple"
        }
      ],
      "stateMutability": "view",
      "type": "function"
    },
    {
      "inputs": [
        {
          "internalType": "uint256",
          "name": "_packId",
          "type": "uint256"
        }
      ],
      "name": "getPackWithRewards",
      "outputs": [
        {
          "components": [
            {
              "internalType": "string",
              "name": "uri",
              "type": "string"
            },
            {
              "internalType": "address",
              "name": "creator",
              "type": "address"
            },
            {
              "internalType": "uint256",
              "name": "openStart",
              "type": "uint256"
            },
            {
              "internalType": "uint256",
              "name": "openEnd",
              "type": "uint256"
            }
          ],
          "internalType": "struct Pack.PackState",
          "name": "pack",
          "type": "tuple"
        },
        {
          "internalType": "address",
          "name": "source",
          "type": "address"
        },
        {
          "internalType": "uint256[]",
          "name": "tokenIds",
          "type": "uint256[]"
        },
        {
          "internalType": "uint256[]",
          "name": "amountsPacked",
          "type": "uint256[]"
        }
      ],
      "stateMutability": "view",
      "type": "function"
    },
    {
      "inputs": [
        {
          "internalType": "bytes32",
          "name": "role",
          "type": "bytes32"
        }
      ],
      "name": "getRoleAdmin",
      "outputs": [
        {
          "internalType": "bytes32",
          "name": "",
          "type": "bytes32"
        }
      ],
      "stateMutability": "view",
      "type": "function"
    },
    {
      "inputs": [
        {
          "internalType": "bytes32",
          "name": "role",
          "type": "bytes32"
        },
        {
          "internalType": "uint256",
          "name": "index",
          "type": "uint256"
        }
      ],
      "name": "getRoleMember",
      "outputs": [
        {
          "internalType": "address",
          "name": "",
          "type": "address"
        }
      ],
      "stateMutability": "view",
      "type": "function"
    },
    {
      "inputs": [
        {
          "internalType": "bytes32",
          "name": "role",
          "type": "bytes32"
        }
      ],
      "name": "getRoleMemberCount",
      "outputs": [
        {
          "internalType": "uint256",
          "name": "",
          "type": "uint256"
        }
      ],
      "stateMutability": "view",
      "type": "function"
    },
    {
      "inputs": [
        {
          "internalType": "bytes32",
          "name": "role",
          "type": "bytes32"
        },
        {
          "internalType": "address",
          "name": "account",
          "type": "address"
        }
      ],
      "name": "grantRole",
      "outputs": [],
      "stateMutability": "nonpayable",
      "type": "function"
    },
    {
      "inputs": [
        {
          "internalType": "bytes32",
          "name": "role",
          "type": "bytes32"
        },
        {
          "internalType": "address",
          "name": "account",
          "type": "address"
        }
      ],
      "name": "hasRole",
      "outputs": [
        {
          "internalType": "bool",
          "name": "",
          "type": "bool"
        }
      ],
      "stateMutability": "view",
      "type": "function"
    },
    {
      "inputs": [
        {
          "internalType": "address",
          "name": "account",
          "type": "address"
        },
        {
          "internalType": "address",
          "name": "operator",
          "type": "address"
        }
      ],
      "name": "isApprovedForAll",
      "outputs": [
        {
          "internalType": "bool",
          "name": "",
          "type": "bool"
        }
      ],
      "stateMutability": "view",
      "type": "function"
    },
    {
      "inputs": [
        {
          "internalType": "address",
          "name": "forwarder",
          "type": "address"
        }
      ],
      "name": "isTrustedForwarder",
      "outputs": [
        {
          "internalType": "bool",
          "name": "",
          "type": "bool"
        }
      ],
      "stateMutability": "view",
      "type": "function"
    },
    {
      "inputs": [
        {
          "internalType": "address",
          "name": "",
          "type": "address"
        },
        {
          "internalType": "uint256",
          "name": "",
          "type": "uint256"
        },
        {
          "internalType": "uint256",
          "name": "",
          "type": "uint256"
        },
        {
          "internalType": "bytes",
          "name": "",
          "type": "bytes"
        }
      ],
      "name": "mint",
      "outputs": [],
      "stateMutability": "nonpayable",
      "type": "function"
    },
    {
      "inputs": [
        {
          "internalType": "address",
          "name": "",
          "type": "address"
        },
        {
          "internalType": "uint256[]",
          "name": "",
          "type": "uint256[]"
        },
        {
          "internalType": "uint256[]",
          "name": "",
          "type": "uint256[]"
        },
        {
          "internalType": "bytes",
          "name": "",
          "type": "bytes"
        }
      ],
      "name": "mintBatch",
      "outputs": [],
      "stateMutability": "nonpayable",
      "type": "function"
    },
    {
      "inputs": [],
      "name": "nextTokenId",
      "outputs": [
        {
          "internalType": "uint256",
          "name": "",
          "type": "uint256"
        }
      ],
      "stateMutability": "view",
      "type": "function"
    },
    {
      "inputs": [
        {
          "internalType": "address",
          "name": "",
          "type": "address"
        },
        {
          "internalType": "address",
          "name": "_from",
          "type": "address"
        },
        {
          "internalType": "uint256[]",
          "name": "_ids",
          "type": "uint256[]"
        },
        {
          "internalType": "uint256[]",
          "name": "_values",
          "type": "uint256[]"
        },
        {
          "internalType": "bytes",
          "name": "_data",
          "type": "bytes"
        }
      ],
      "name": "onERC1155BatchReceived",
      "outputs": [
        {
          "internalType": "bytes4",
          "name": "",
          "type": "bytes4"
        }
      ],
      "stateMutability": "nonpayable",
      "type": "function"
    },
    {
      "inputs": [
        {
          "internalType": "address",
          "name": "",
          "type": "address"
        },
        {
          "internalType": "address",
          "name": "",
          "type": "address"
        },
        {
          "internalType": "uint256",
          "name": "",
          "type": "uint256"
        },
        {
          "internalType": "uint256",
          "name": "",
          "type": "uint256"
        },
        {
          "internalType": "bytes",
          "name": "",
          "type": "bytes"
        }
      ],
      "name": "onERC1155Received",
      "outputs": [
        {
          "internalType": "bytes4",
          "name": "",
          "type": "bytes4"
        }
      ],
      "stateMutability": "nonpayable",
      "type": "function"
    },
    {
      "inputs": [
        {
          "internalType": "address",
          "name": "",
          "type": "address"
        },
        {
          "internalType": "address",
          "name": "",
          "type": "address"
        },
        {
          "internalType": "uint256",
          "name": "",
          "type": "uint256"
        },
        {
          "internalType": "bytes",
          "name": "",
          "type": "bytes"
        }
      ],
      "name": "onERC721Received",
      "outputs": [
        {
          "internalType": "bytes4",
          "name": "",
          "type": "bytes4"
        }
      ],
      "stateMutability": "nonpayable",
      "type": "function"
    },
    {
      "inputs": [
        {
          "internalType": "uint256",
          "name": "_packId",
          "type": "uint256"
        }
      ],
      "name": "openPack",
      "outputs": [],
      "stateMutability": "nonpayable",
      "type": "function"
    },
    {
      "inputs": [
        {
          "internalType": "uint256",
          "name": "",
          "type": "uint256"
        }
      ],
      "name": "packs",
      "outputs": [
        {
          "internalType": "string",
          "name": "uri",
          "type": "string"
        },
        {
          "internalType": "address",
          "name": "creator",
          "type": "address"
        },
        {
          "internalType": "uint256",
          "name": "openStart",
          "type": "uint256"
        },
        {
          "internalType": "uint256",
          "name": "openEnd",
          "type": "uint256"
        }
      ],
      "stateMutability": "view",
      "type": "function"
    },
    {
      "inputs": [],
      "name": "pause",
      "outputs": [],
      "stateMutability": "nonpayable",
      "type": "function"
    },
    {
      "inputs": [],
      "name": "paused",
      "outputs": [
        {
          "internalType": "bool",
          "name": "",
          "type": "bool"
        }
      ],
      "stateMutability": "view",
      "type": "function"
    },
    {
      "inputs": [
        {
          "internalType": "bytes32",
          "name": "",
          "type": "bytes32"
        }
      ],
      "name": "randomnessRequests",
      "outputs": [
        {
          "internalType": "uint256",
          "name": "packId",
          "type": "uint256"
        },
        {
          "internalType": "address",
          "name": "opener",
          "type": "address"
        }
      ],
      "stateMutability": "view",
      "type": "function"
    },
    {
      "inputs": [
        {
          "internalType": "bytes32",
          "name": "requestId",
          "type": "bytes32"
        },
        {
          "internalType": "uint256",
          "name": "randomness",
          "type": "uint256"
        }
      ],
      "name": "rawFulfillRandomness",
      "outputs": [],
      "stateMutability": "nonpayable",
      "type": "function"
    },
    {
      "inputs": [
        {
          "internalType": "bytes32",
          "name": "role",
          "type": "bytes32"
        },
        {
          "internalType": "address",
          "name": "account",
          "type": "address"
        }
      ],
      "name": "renounceRole",
      "outputs": [],
      "stateMutability": "nonpayable",
      "type": "function"
    },
    {
      "inputs": [
        {
          "internalType": "bytes32",
          "name": "role",
          "type": "bytes32"
        },
        {
          "internalType": "address",
          "name": "account",
          "type": "address"
        }
      ],
      "name": "revokeRole",
      "outputs": [],
      "stateMutability": "nonpayable",
      "type": "function"
    },
    {
      "inputs": [
        {
          "internalType": "uint256",
          "name": "",
          "type": "uint256"
        }
      ],
      "name": "rewards",
      "outputs": [
        {
          "internalType": "address",
          "name": "source",
          "type": "address"
        },
        {
          "internalType": "uint256",
          "name": "rewardsPerOpen",
          "type": "uint256"
        }
      ],
      "stateMutability": "view",
      "type": "function"
    },
    {
      "inputs": [],
      "name": "royaltyBps",
      "outputs": [
        {
          "internalType": "uint256",
          "name": "",
          "type": "uint256"
        }
      ],
      "stateMutability": "view",
      "type": "function"
    },
    {
      "inputs": [
        {
          "internalType": "uint256",
          "name": "",
          "type": "uint256"
        },
        {
          "internalType": "uint256",
          "name": "salePrice",
          "type": "uint256"
        }
      ],
      "name": "royaltyInfo",
      "outputs": [
        {
          "internalType": "address",
          "name": "receiver",
          "type": "address"
        },
        {
          "internalType": "uint256",
          "name": "royaltyAmount",
          "type": "uint256"
        }
      ],
      "stateMutability": "view",
      "type": "function"
    },
    {
      "inputs": [
        {
          "internalType": "address",
          "name": "from",
          "type": "address"
        },
        {
          "internalType": "address",
          "name": "to",
          "type": "address"
        },
        {
          "internalType": "uint256[]",
          "name": "ids",
          "type": "uint256[]"
        },
        {
          "internalType": "uint256[]",
          "name": "amounts",
          "type": "uint256[]"
        },
        {
          "internalType": "bytes",
          "name": "data",
          "type": "bytes"
        }
      ],
      "name": "safeBatchTransferFrom",
      "outputs": [],
      "stateMutability": "nonpayable",
      "type": "function"
    },
    {
      "inputs": [
        {
          "internalType": "address",
          "name": "from",
          "type": "address"
        },
        {
          "internalType": "address",
          "name": "to",
          "type": "address"
        },
        {
          "internalType": "uint256",
          "name": "id",
          "type": "uint256"
        },
        {
          "internalType": "uint256",
          "name": "amount",
          "type": "uint256"
        },
        {
          "internalType": "bytes",
          "name": "data",
          "type": "bytes"
        }
      ],
      "name": "safeTransferFrom",
      "outputs": [],
      "stateMutability": "nonpayable",
      "type": "function"
    },
    {
      "inputs": [
        {
          "internalType": "address",
          "name": "operator",
          "type": "address"
        },
        {
          "internalType": "bool",
          "name": "approved",
          "type": "bool"
        }
      ],
      "name": "setApprovalForAll",
      "outputs": [],
      "stateMutability": "nonpayable",
      "type": "function"
    },
    {
      "inputs": [
        {
          "internalType": "uint256",
          "name": "_newFees",
          "type": "uint256"
        }
      ],
      "name": "setChainlinkFees",
      "outputs": [],
      "stateMutability": "nonpayable",
      "type": "function"
    },
    {
      "inputs": [
        {
          "internalType": "string",
          "name": "_URI",
          "type": "string"
        }
      ],
      "name": "setContractURI",
      "outputs": [],
      "stateMutability": "nonpayable",
      "type": "function"
    },
    {
      "inputs": [
        {
          "internalType": "bool",
          "name": "_restrictedTransfer",
          "type": "bool"
        }
      ],
      "name": "setRestrictedTransfer",
      "outputs": [],
      "stateMutability": "nonpayable",
      "type": "function"
    },
    {
      "inputs": [
        {
          "internalType": "uint256",
          "name": "_royaltyBps",
          "type": "uint256"
        }
      ],
      "name": "setRoyaltyBps",
      "outputs": [],
      "stateMutability": "nonpayable",
      "type": "function"
    },
    {
      "inputs": [
        {
          "internalType": "bytes4",
          "name": "interfaceId",
          "type": "bytes4"
        }
      ],
      "name": "supportsInterface",
      "outputs": [
        {
          "internalType": "bool",
          "name": "",
          "type": "bool"
        }
      ],
      "stateMutability": "view",
      "type": "function"
    },
    {
      "inputs": [
        {
          "internalType": "uint256",
          "name": "_id",
          "type": "uint256"
        }
      ],
      "name": "tokenURI",
      "outputs": [
        {
          "internalType": "string",
          "name": "",
          "type": "string"
        }
      ],
      "stateMutability": "view",
      "type": "function"
    },
    {
      "inputs": [
        {
          "internalType": "uint256",
          "name": "id",
          "type": "uint256"
        }
      ],
      "name": "totalSupply",
      "outputs": [
        {
          "internalType": "uint256",
          "name": "",
          "type": "uint256"
        }
      ],
      "stateMutability": "view",
      "type": "function"
    },
    {
      "inputs": [
        {
          "internalType": "address",
          "name": "_to",
          "type": "address"
        },
        {
          "internalType": "uint256",
          "name": "_amount",
          "type": "uint256"
        }
      ],
      "name": "transferLink",
      "outputs": [],
      "stateMutability": "nonpayable",
      "type": "function"
    },
    {
      "inputs": [],
      "name": "transfersRestricted",
      "outputs": [
        {
          "internalType": "bool",
          "name": "",
          "type": "bool"
        }
      ],
      "stateMutability": "view",
      "type": "function"
    },
    {
      "inputs": [],
      "name": "unpause",
      "outputs": [],
      "stateMutability": "nonpayable",
      "type": "function"
    },
    {
      "inputs": [
        {
          "internalType": "uint256",
          "name": "_id",
          "type": "uint256"
        }
      ],
      "name": "uri",
      "outputs": [
        {
          "internalType": "string",
          "name": "",
          "type": "string"
        }
      ],
      "stateMutability": "view",
      "type": "function"
    },
    {
      "inputs": [],
      "name": "vrfFees",
      "outputs": [
        {
          "internalType": "uint256",
          "name": "",
          "type": "uint256"
        }
      ],
      "stateMutability": "view",
      "type": "function"
    },
    {
      "inputs": [],
      "name": "vrfKeyHash",
      "outputs": [
        {
          "internalType": "bytes32",
          "name": "",
          "type": "bytes32"
        }
      ],
      "stateMutability": "view",
      "type": "function"
    }
  ],
  "bytecode": "0x60c06040523480156200001157600080fd5b506040516200604838038062006048833981016040819052620000349162000436565b8085858880620000448162000169565b506005805460ff191690556200006560006200005f62000182565b6200019f565b620000947f9f2df0fed2c77648de5860a4cc508cd0818c85b8b8a1ab4ceeef8d981c8956a66200005f62000182565b620000c37f65d7a28e3265b37a6474929f336521b332c1681b933f6cb9f3376673440d862a6200005f62000182565b506001600160601b0319606092831b811660a052911b16608052600880546001600160a01b039283166001600160a01b03199182161790915560098054928a1692909116919091179055600f839055600e82905585516200012c90600c90602089019062000383565b506200015c7f8502233096d909befbda0999bb8ea2f3a6be3c138b9fbf003752a4c8bce86f6c6200005f62000182565b50505050505050620005d5565b80516200017e90600490602084019062000383565b5050565b600062000199620001e260201b620021b91760201c565b90505b90565b620001b682826200022260201b620021e71760201c565b6000828152600160209081526040909120620001dd918390620021f16200022e821b17901c565b505050565b6000620001ef336200024e565b1562000205575060131936013560601c6200019c565b6200021a6200026560201b620022061760201c565b90506200019c565b6200017e828262000269565b600062000245836001600160a01b038416620002f3565b90505b92915050565b6008546001600160a01b038281169116145b919050565b3390565b62000275828262000342565b6200017e576000828152602081815260408083206001600160a01b03851684529091529020805460ff19166001179055620002af62000182565b6001600160a01b0316816001600160a01b0316837f2f8788117e7eff1d82e926ec794901d17c78024a50270940304540a733656f0d60405160405180910390a45050565b60006200030183836200036b565b620003395750815460018181018455600084815260208082209093018490558454848252828601909352604090209190915562000248565b50600062000248565b6000918252602082815260408084206001600160a01b0393909316845291905290205460ff1690565b60009081526001919091016020526040902054151590565b828054620003919062000569565b90600052602060002090601f016020900481019282620003b5576000855562000400565b82601f10620003d057805160ff191683800117855562000400565b8280016001018555821562000400579182015b8281111562000400578251825591602001919060010190620003e3565b506200040e92915062000412565b5090565b5b808211156200040e576000815560010162000413565b80516200026081620005bc565b600080600080600080600060e0888a03121562000451578283fd5b87516200045e81620005bc565b602089810151919850906001600160401b03808211156200047d578586fd5b818b0191508b601f83011262000491578586fd5b815181811115620004a657620004a6620005a6565b604051601f8201601f1916810185018381118282101715620004cc57620004cc620005a6565b60405281815283820185018e1015620004e3578788fd5b8792505b81831015620005065783830185015181840186015291840191620004e7565b818311156200051757878583830101525b809a5050505050506200052d6040890162000429565b94506200053d6060890162000429565b93506080880151925060a088015191506200055b60c0890162000429565b905092959891949750929550565b6002810460018216806200057e57607f821691505b60208210811415620005a057634e487b7160e01b600052602260045260246000fd5b50919050565b634e487b7160e01b600052604160045260246000fd5b6001600160a01b0381168114620005d257600080fd5b50565b60805160601c60a05160601c615a32620006166000396000818161194901526125470152600081816112700152818161211101526125180152615a326000f3fe608060405234801561001057600080fd5b50600436106103615760003560e01c80638456cb59116101c8578063c0e7274011610104578063e8a3d485116100a2578063f242432a1161007c578063f242432a1461070c578063f301af421461071f578063f5298aca14610732578063f99b1d681461074557610361565b8063e8a3d485146106de578063e985e9c5146106e6578063f23a6e61146106f957610361565b8063ca15c873116100de578063ca15c873146106a8578063d5391393146106bb578063d547741f146106c3578063e63ab1e9146106d657610361565b8063c0e7274014610698578063c63adb2b146106a0578063c87b56dd146103b757610361565b806394985ddd11610171578063b277ca451161014b578063b277ca451461063c578063b84c13921461064f578063bc197c8114610672578063bd85b0391461068557610361565b806394985ddd1461060e578063a217fddf14610621578063a22cb4651461062957610361565b80639010d07c116101a25780639010d07c146105d557806391d14854146105e8578063938e3d7b146105fb57610361565b80638456cb591461059a578063895ec54c146105a25780638ba448c2146105c257610361565b80632f2ff15d116102a2578063572b6c05116102405780636b20c4541161021a5780636b20c45414610569578063731133e91461057c57806375794a3c1461058a5780638423df791461059257610361565b8063572b6c051461052d5780635c975abb146105405780635e619b781461054857610361565b80634e1273f41161027c5780634e1273f4146104c757806350a88c7e146104e7578063510b5158146104fa5780635318c48f1461051a57610361565b80632f2ff15d1461049957806336568abe146104ac5780633f4ba83a146104bf57610361565b8063150b7a021161030f578063206b60f9116102e9578063206b60f91461044a578063248a9ca3146104525780632a55205a146104655780632eb2c2d61461048657610361565b8063150b7a02146104025780631f72d831146104225780631f7fdffa1461043757610361565b80630e89341c116103405780630e89341c146103b757806310983e57146103d757806310e34e67146103df57610361565b8062fdd58e1461036657806301ffc9a71461038f578063041d443e146103af575b600080fd5b610379610374366004614430565b610758565b6040516103869190614a7f565b60405180910390f35b6103a261039d366004614645565b6107b4565b6040516103869190614a74565b6103796107df565b6103ca6103c53660046145d0565b6107e5565b6040516103869190614af1565b610379610887565b6103f26103ed3660046145d0565b61088d565b6040516103869493929190615691565b610415610410366004614234565b610a4f565b6040516103869190614adc565b6104356104303660046145d0565b610a5f565b005b610435610445366004614378565b610cfb565b610379610d13565b6103796104603660046145d0565b610d37565b610478610473366004614624565b610d4c565b6040516103869291906149f2565b61043561049436600461418a565b610e90565b6104356104a7366004614600565b610eee565b6104356104ba366004614600565b610f15565b610435610f37565b6104da6104d53660046144d8565b610f89565b6040516103869190614a3c565b6104356104f53660046145d0565b6110a9565b61050d6105083660046145d0565b61149c565b60405161038691906148e5565b610379610528366004614600565b6114ba565b6103a261053b36600461411a565b6114d7565b6103a26114eb565b61055b6105563660046145d0565b6114f5565b604051610386929190614a88565b610435610577366004614305565b611517565b61043561044536600461448f565b61037961156c565b6103a2611572565b61043561157b565b6105b56105b03660046145d0565b6115cb565b604051610386919061567e565b6104356105d0366004614598565b6116ab565b61050d6105e3366004614624565b6117d4565b6103a26105f6366004614600565b6117f3565b61043561060936600461467d565b61181c565b61043561061c366004614624565b61193e565b610379611994565b610435610637366004614403565b611999565b61043561064a3660046145d0565b611a67565b61066261065d3660046145d0565b611b82565b6040516103869493929190614b04565b61041561068036600461418a565b611c3e565b6103796106933660046145d0565b611d27565b6103ca611d39565b610379611dc7565b6103796106b63660046145d0565b611dcd565b610379611de4565b6104356106d1366004614600565b611e08565b610379611e12565b6103ca611e36565b6103a26106f4366004614152565b611ec8565b61041561070736600461429e565b611ef6565b61043561071a36600461429e565b611f10565b61047861072d3660046145d0565b611f67565b61043561074036600461445b565b611f8c565b610435610753366004614430565b611fe1565b60006001600160a01b0383166107895760405162461bcd60e51b815260040161078090614d1c565b60405180910390fd5b5060008181526002602090815260408083206001600160a01b03861684529091529020545b92915050565b60006107bf8261220a565b806107ae57506001600160e01b0319821663152a902d60e11b1492915050565b600f5481565b600081815260106020526040902080546060919061080290615898565b80601f016020809104026020016040519081016040528092919081815260200182805461082e90615898565b801561087b5780601f106108505761010080835404028352916020019161087b565b820191906000526020600020905b81548152906001019060200180831161085e57829003601f168201915b50505050509050919050565b600e5481565b610895613eea565b6000606080601060008681526020019081526020016000206040518060800160405290816000820180546108c890615898565b80601f01602080910402602001604051908101604052809291908181526020018280546108f490615898565b80156109415780601f1061091657610100808354040283529160200191610941565b820191906000526020600020905b81548152906001019060200180831161092457829003601f168201915b50505091835250506001828101546001600160a01b03908116602080850191909152600285015460408086019190915260039095015460609094019390935260008a815260118452849020805492018054855181860281018601909652808652959950911696509192908301828280156109da57602002820191906000526020600020905b8154815260200190600101908083116109c6575b5050505050915060116000868152602001908152602001600020600201805480602002602001604051908101604052809291908181526020018280548015610a4157602002820191906000526020600020905b815481526020019060010190808311610a2d575b505050505090509193509193565b630a85bd0160e11b949350505050565b60095460408051634a32c6bf60e11b815290516001600160a01b03909216916391d148549183916394658d7e91600480820192602092909190829003018186803b158015610aac57600080fd5b505afa158015610ac0573d6000803e3d6000fd5b505050506040513d601f19601f82011682018060405250810190610ae491906145e8565b610aec612215565b6040518363ffffffff1660e01b8152600401610b09929190614a88565b60206040518083038186803b158015610b2157600080fd5b505afa158015610b35573d6000803e3d6000fd5b505050506040513d601f19601f82011682018060405250810190610b5991906145b4565b610b755760405162461bcd60e51b815260040161078090614c2b565b600960009054906101000a90046001600160a01b03166001600160a01b0316635cd423156040518163ffffffff1660e01b815260040160206040518083038186803b158015610bc357600080fd5b505afa158015610bd7573d6000803e3d6000fd5b505050506040513d601f19601f82011682018060405250810190610bfb9190614778565b600960009054906101000a90046001600160a01b03166001600160a01b031663fd967f476040518163ffffffff1660e01b815260040160206040518083038186803b158015610c4957600080fd5b505afa158015610c5d573d6000803e3d6000fd5b505050506040513d601f19601f82011682018060405250810190610c819190614778565b610c8b919061580d565b6fffffffffffffffffffffffffffffffff168110610cbb5760405162461bcd60e51b815260040161078090615567565b600b8190556040517f244ea8d7627f5a08f4299862bd5a45752842c183aee5b0fb0d1e4887bfa605b390610cf0908390614a7f565b60405180910390a150565b60405162461bcd60e51b8152600401610780906151ea565b7f8502233096d909befbda0999bb8ea2f3a6be3c138b9fbf003752a4c8bce86f6c81565b60009081526020819052604090206001015490565b600080600960009054906101000a90046001600160a01b03166001600160a01b0316630f603ed36040518163ffffffff1660e01b815260040160206040518083038186803b158015610d9d57600080fd5b505afa158015610db1573d6000803e3d6000fd5b505050506040513d601f19601f82011682018060405250810190610dd59190614136565b9150600960009054906101000a90046001600160a01b03166001600160a01b031663fd967f476040518163ffffffff1660e01b815260040160206040518083038186803b158015610e2557600080fd5b505afa158015610e39573d6000803e3d6000fd5b505050506040513d601f19601f82011682018060405250810190610e5d9190614778565b6fffffffffffffffffffffffffffffffff16600b5484610e7d91906157ee565b610e8791906157da565b90509250929050565b610e98612215565b6001600160a01b0316856001600160a01b03161480610ebe5750610ebe856106f4612215565b610eda5760405162461bcd60e51b815260040161078090615090565b610ee78585858585612224565b5050505050565b610ef882826123f8565b6000828152600160205260409020610f1090826121f1565b505050565b610f1f828261241c565b6000828152600160205260409020610f10908261245e565b610f637f65d7a28e3265b37a6474929f336521b332c1681b933f6cb9f3376673440d862a6105f6612215565b610f7f5760405162461bcd60e51b8152600401610780906152f8565b610f87612473565b565b60608151835114610fac5760405162461bcd60e51b81526004016107809061546c565b6000835167ffffffffffffffff811115610fd657634e487b7160e01b600052604160045260246000fd5b604051908082528060200260200182016040528015610fff578160200160208202803683370190505b50905060005b84518110156110a15761106685828151811061103157634e487b7160e01b600052603260045260246000fd5b602002602001015185838151811061105957634e487b7160e01b600052603260045260246000fd5b6020026020010151610758565b82828151811061108657634e487b7160e01b600052603260045260246000fd5b602090810291909101015261109a816158cd565b9050611005565b509392505050565b600960009054906101000a90046001600160a01b03166001600160a01b0316639d2f83f06040518163ffffffff1660e01b815260040160206040518083038186803b1580156110f757600080fd5b505afa15801561110b573d6000803e3d6000fd5b505050506040513d601f19601f8201168201806040525081019061112f91906145b4565b1561114c5760405162461bcd60e51b815260040161078090614f68565b60008181526010602052604080822081516080810190925280548290829061117390615898565b80601f016020809104026020016040519081016040528092919081815260200182805461119f90615898565b80156111ec5780601f106111c1576101008083540402835291602001916111ec565b820191906000526020600020905b8154815290600101906020018083116111cf57829003601f168201915b505050918352505060018201546001600160a01b031660208201526002820154604080830191909152600390920154606090910152810151909150421080159061123a575080606001514211155b6112565760405162461bcd60e51b815260040161078090614c88565b600e546040516370a0823160e01b81526001600160a01b037f000000000000000000000000000000000000000000000000000000000000000016906370a08231906112a59030906004016148e5565b60206040518083038186803b1580156112bd57600080fd5b505afa1580156112d1573d6000803e3d6000fd5b505050506040513d601f19601f820116820180604052508101906112f591906145e8565b10156113135760405162461bcd60e51b815260040161078090614eae565b6000611326611320612215565b84610758565b116113435760405162461bcd60e51b8152600401610780906153b2565b60008281526013602052604081209061135a612215565b6001600160a01b03168152602081019190915260400160002054156113915760405162461bcd60e51b815260040161078090614f9f565b6113a461139c612215565b8360016124e1565b60006113b4600f54600e54612514565b905060405180604001604052808481526020016113cf612215565b6001600160a01b03908116909152600083815260126020908152604080832085518155948201516001909501805473ffffffffffffffffffffffffffffffffffffffff1916959094169490941790925585815260139091529081208291611434612215565b6001600160a01b03168152602081019190915260400160002055611456612215565b6001600160a01b0316837fb5c27afec62496e403fae78e07136ae7c58425e8128c7b680ea24dee8c8d94018360405161148f9190614a7f565b60405180910390a3505050565b6000908152601060205260409020600101546001600160a01b031690565b601360209081526000928352604080842090915290825290205481565b6008546001600160a01b0390811691161490565b60055460ff165b90565b601260205260009081526040902080546001909101546001600160a01b031682565b61151f612215565b6001600160a01b0316836001600160a01b031614806115455750611545836106f4612215565b6115615760405162461bcd60e51b815260040161078090614e1a565b610f10838383612657565b600a5481565b600d5460ff1681565b6115a77f65d7a28e3265b37a6474929f336521b332c1681b933f6cb9f3376673440d862a6105f6612215565b6115c35760405162461bcd60e51b815260040161078090615355565b610f876126fb565b6115d3613eea565b600082815260106020526040908190208151608081019092528054829082906115fb90615898565b80601f016020809104026020016040519081016040528092919081815260200182805461162790615898565b80156116745780601f1061164957610100808354040283529160200191611674565b820191906000526020600020905b81548152906001019060200180831161165757829003601f168201915b505050918352505060018201546001600160a01b031660208201526002820154604082015260039091015460609091015292915050565b60095460408051634a32c6bf60e11b815290516001600160a01b03909216916391d148549183916394658d7e91600480820192602092909190829003018186803b1580156116f857600080fd5b505afa15801561170c573d6000803e3d6000fd5b505050506040513d601f19601f8201168201806040525081019061173091906145e8565b611738612215565b6040518363ffffffff1660e01b8152600401611755929190614a88565b60206040518083038186803b15801561176d57600080fd5b505afa158015611781573d6000803e3d6000fd5b505050506040513d601f19601f820116820180604052508101906117a591906145b4565b6117c15760405162461bcd60e51b815260040161078090614c2b565b600d805460ff1916911515919091179055565b60008281526001602052604081206117ec9083612756565b9392505050565b6000918252602082815260408084206001600160a01b0393909316845291905290205460ff1690565b60095460408051634a32c6bf60e11b815290516001600160a01b03909216916391d148549183916394658d7e91600480820192602092909190829003018186803b15801561186957600080fd5b505afa15801561187d573d6000803e3d6000fd5b505050506040513d601f19601f820116820180604052508101906118a191906145e8565b6118a9612215565b6040518363ffffffff1660e01b81526004016118c6929190614a88565b60206040518083038186803b1580156118de57600080fd5b505afa1580156118f2573d6000803e3d6000fd5b505050506040513d601f19601f8201168201806040525081019061191691906145b4565b6119325760405162461bcd60e51b815260040161078090614c2b565b610f10600c8383613f1b565b336001600160a01b037f000000000000000000000000000000000000000000000000000000000000000016146119865760405162461bcd60e51b81526004016107809061522d565b6119908282612762565b5050565b600081565b816001600160a01b03166119ab612215565b6001600160a01b031614156119d25760405162461bcd60e51b81526004016107809061540f565b80600360006119df612215565b6001600160a01b03908116825260208083019390935260409182016000908120918716808252919093529120805460ff191692151592909217909155611a23612215565b6001600160a01b03167f17307eab39ab6107e8899845ad3d59bd9653f200f220920489ca2b5937696c3183604051611a5b9190614a74565b60405180910390a35050565b60095460408051634a32c6bf60e11b815290516001600160a01b03909216916391d148549183916394658d7e91600480820192602092909190829003018186803b158015611ab457600080fd5b505afa158015611ac8573d6000803e3d6000fd5b505050506040513d601f19601f82011682018060405250810190611aec91906145e8565b611af4612215565b6040518363ffffffff1660e01b8152600401611b11929190614a88565b60206040518083038186803b158015611b2957600080fd5b505afa158015611b3d573d6000803e3d6000fd5b505050506040513d601f19601f82011682018060405250810190611b6191906145b4565b611b7d5760405162461bcd60e51b815260040161078090614c2b565b600e55565b601060205260009081526040902080548190611b9d90615898565b80601f0160208091040260200160405190810160405280929190818152602001828054611bc990615898565b8015611c165780601f10611beb57610100808354040283529160200191611c16565b820191906000526020600020905b815481529060010190602001808311611bf957829003601f168201915b505050506001830154600284015460039094015492936001600160a01b039091169290915084565b600954604080516309d2f83f60e41b815290516000926001600160a01b031691639d2f83f0916004808301926020929190829003018186803b158015611c8357600080fd5b505afa158015611c97573d6000803e3d6000fd5b505050506040513d601f19601f82011682018060405250810190611cbb91906145b4565b15611cd85760405162461bcd60e51b815260040161078090614f68565b60008060008085806020019051810190611cf291906146ea565b9350935093509350611d118985611d07612215565b8b8b88888861295b565b5063bc197c8160e01b9998505050505050505050565b60009081526006602052604090205490565b600c8054611d4690615898565b80601f0160208091040260200160405190810160405280929190818152602001828054611d7290615898565b8015611dbf5780601f10611d9457610100808354040283529160200191611dbf565b820191906000526020600020905b815481529060010190602001808311611da257829003601f168201915b505050505081565b600b5481565b60008181526001602052604081206107ae90612cf5565b7f9f2df0fed2c77648de5860a4cc508cd0818c85b8b8a1ab4ceeef8d981c8956a681565b610f1f8282612d00565b7f65d7a28e3265b37a6474929f336521b332c1681b933f6cb9f3376673440d862a81565b6060600c8054611e4590615898565b80601f0160208091040260200160405190810160405280929190818152602001828054611e7190615898565b8015611ebe5780601f10611e9357610100808354040283529160200191611ebe565b820191906000526020600020905b815481529060010190602001808311611ea157829003601f168201915b5050505050905090565b6001600160a01b03918216600090815260036020908152604080832093909416825291909152205460ff1690565b600060405162461bcd60e51b815260040161078090615264565b611f18612215565b6001600160a01b0316856001600160a01b03161480611f3e5750611f3e856106f4612215565b611f5a5760405162461bcd60e51b815260040161078090614e1a565b610ee78585858585612d1f565b601160205260009081526040902080546003909101546001600160a01b039091169082565b611f94612215565b6001600160a01b0316836001600160a01b03161480611fba5750611fba836106f4612215565b611fd65760405162461bcd60e51b815260040161078090614e1a565b610f108383836124e1565b60095460408051634a32c6bf60e11b815290516001600160a01b03909216916391d148549183916394658d7e91600480820192602092909190829003018186803b15801561202e57600080fd5b505afa158015612042573d6000803e3d6000fd5b505050506040513d601f19601f8201168201806040525081019061206691906145e8565b61206e612215565b6040518363ffffffff1660e01b815260040161208b929190614a88565b60206040518083038186803b1580156120a357600080fd5b505afa1580156120b7573d6000803e3d6000fd5b505050506040513d601f19601f820116820180604052508101906120db91906145b4565b6120f75760405162461bcd60e51b815260040161078090614c2b565b60405163a9059cbb60e01b81526000906001600160a01b037f0000000000000000000000000000000000000000000000000000000000000000169063a9059cbb9061214890869086906004016149f2565b602060405180830381600087803b15801561216257600080fd5b505af1158015612176573d6000803e3d6000fd5b505050506040513d601f19601f8201168201806040525081019061219a91906145b4565b905080610f105760405162461bcd60e51b815260040161078090614e77565b60006121c4336114d7565b156121d8575060131936013560601c6114f2565b6121e0612206565b90506114f2565b6119908282612e66565b60006117ec836001600160a01b038416612eeb565b3390565b60006107ae82612f35565b600061221f6121b9565b905090565b81518351146122455760405162461bcd60e51b8152600401610780906154c9565b6001600160a01b03841661226b5760405162461bcd60e51b815260040161078090615033565b6000612275612215565b9050612285818787878787612f5a565b60005b845181101561238a5760008582815181106122b357634e487b7160e01b600052603260045260246000fd5b6020026020010151905060008583815181106122df57634e487b7160e01b600052603260045260246000fd5b60209081029190910181015160008481526002835260408082206001600160a01b038e1683529093529190912054909150818110156123305760405162461bcd60e51b815260040161078090615130565b60008381526002602090815260408083206001600160a01b038e8116855292528083208585039055908b1682528120805484929061236f9084906157c2565b9250508190555050505080612383906158cd565b9050612288565b50846001600160a01b0316866001600160a01b0316826001600160a01b03167f4a39dc06d4c0dbc64b70af90fd698a233a518aa5d07e595d983b8c0526c8f7fb87876040516123da929190614a4f565b60405180910390a46123f0818787878787612fe9565b505050505050565b61240182610d37565b6124128161240d612215565b6130f7565b610f108383612e66565b612424612215565b6001600160a01b0316816001600160a01b0316146124545760405162461bcd60e51b815260040161078090615621565b611990828261315b565b60006117ec836001600160a01b0384166131de565b61247b6114eb565b6124975760405162461bcd60e51b815260040161078090614ce5565b6005805460ff191690557f5db9ee0a495bf2e6ff9c91a7834c1ba4fdd244a5e8aa4e537bd38aeae4b073aa6124ca612215565b6040516124d791906148e5565b60405180910390a1565b6124ec8383836132fb565b6000828152600660205260408120805483929061250a90849061583e565b9091555050505050565b60007f00000000000000000000000000000000000000000000000000000000000000006001600160a01b0316634000aea07f00000000000000000000000000000000000000000000000000000000000000008486600060405160200161257b929190614856565b6040516020818303038152906040526040518463ffffffff1660e01b81526004016125a893929190614a0b565b602060405180830381600087803b1580156125c257600080fd5b505af11580156125d6573d6000803e3d6000fd5b505050506040513d601f19601f820116820180604052508101906125fa91906145b4565b506000838152600760205260408120546126199085908390309061340e565b6000858152600760205260409020549091506126369060016157c2565b60008581526007602052604090205561264f8482613448565b949350505050565b61266283838361347b565b60005b82518110156126f55781818151811061268e57634e487b7160e01b600052603260045260246000fd5b6020026020010151600660008584815181106126ba57634e487b7160e01b600052603260045260246000fd5b6020026020010151815260200190815260200160002060008282546126df919061583e565b909155506126ee9050816158cd565b9050612665565b50505050565b6127036114eb565b156127205760405162461bcd60e51b815260040161078090614ffc565b6005805460ff191660011790557f62e78cea01bee320cd4e420270b5ea74000d11b0c9f74754ebdbfc544b05a2586124ca612215565b60006117ec838361362f565b60008281526012602090815260408083208151808301835281548082526001928301546001600160a01b039081168387018190528288526013875285882081895287528588208890558288526011875285882086516080810188528154909316835294850180548751818a0281018a0190985280885294989397919693959294929385830193909283018282801561281957602002820191906000526020600020905b815481526020019060010190808311612805575b505050505081526020016002820180548060200260200160405190810160405280929190818152602001828054801561287157602002820191906000526020600020905b81548152602001906001019080831161285d575b505050505081526020016003820154815250509050600080612894858885613667565b8451604051631759616b60e11b81529294509092506001600160a01b031690632eb2c2d6906128cd903090889087908790600401614957565b600060405180830381600087803b1580156128e757600080fd5b505af11580156128fb573d6000803e3d6000fd5b5050505082600001516001600160a01b0316846001600160a01b0316867f9cae8e743935573869e2fe7223782448d71211235c93076166106782de1c234f8b86604051612949929190614a9f565b60405180910390a45050505050505050565b600960009054906101000a90046001600160a01b03166001600160a01b0316639d2f83f06040518163ffffffff1660e01b815260040160206040518083038186803b1580156129a957600080fd5b505afa1580156129bd573d6000803e3d6000fd5b505050506040513d601f19601f820116820180604052508101906129e191906145b4565b156129fe5760405162461bcd60e51b815260040161078090614f68565b6040516301ffc9a760e01b81526001600160a01b038716906301ffc9a790612a3190636cdb3d1360e11b90600401614adc565b60206040518083038186803b158015612a4957600080fd5b505afa158015612a5d573d6000803e3d6000fd5b505050506040513d601f19601f82011682018060405250810190612a8191906145b4565b612a9d5760405162461bcd60e51b8152600401610780906155c4565b612ac77f9f2df0fed2c77648de5860a4cc508cd0818c85b8b8a1ab4ceeef8d981c8956a6896117f3565b612ae35760405162461bcd60e51b81526004016107809061529b565b6000612aee85613975565b9050612afa82826158e8565b15612b175760405162461bcd60e51b815260040161078090614f0b565b6000612b216139cf565b90506000612b2f84846157da565b9050600060405180608001604052808c81526020018d6001600160a01b031681526020018842612b5f91906157c2565b81526020018715612b7957612b7488426157c2565b612b7d565b6000195b9052604080516080810182526001600160a01b038d16815260208082018d90528183018c9052606082018990526000878152601082529290922083518051949550919385939192612bd2928492910190613f9f565b50602082810151600180840180546001600160a01b0393841673ffffffffffffffffffffffffffffffffffffffff1991821617909155604080870151600287015560609096015160039095019490945560008981526011845294909420855181549216919093161782558381015180518594612c5393908501920190614013565b5060408201518051612c6f916002840191602090910190614013565b5060608201518160030155905050612c988d8585604051806020016040528060008152506139ed565b8c6001600160a01b03168b6001600160a01b0316857f11f98f1ec0428c3d63f9744a90b9894575c2235c8ef13c38f589ba2768cfd8fc8585604051612cde9291906156d9565b60405180910390a450505050505050505050505050565b60006107ae82613a22565b612d0982610d37565b612d158161240d612215565b610f10838361315b565b6001600160a01b038416612d455760405162461bcd60e51b815260040161078090615033565b6000612d4f612215565b9050612d6f818787612d6088613a26565b612d6988613a26565b87612f5a565b60008481526002602090815260408083206001600160a01b038a16845290915290205483811015612db25760405162461bcd60e51b815260040161078090615130565b60008581526002602090815260408083206001600160a01b038b8116855292528083208785039055908816825281208054869290612df19084906157c2565b92505081905550856001600160a01b0316876001600160a01b0316836001600160a01b03167fc3d58168c5ae7397731d063d5bbf3d657854427343f4c083240f7aacaa2d0f628888604051612e47929190614856565b60405180910390a4612e5d828888888888613a7f565b50505050505050565b612e7082826117f3565b611990576000828152602081815260408083206001600160a01b03851684529091529020805460ff19166001179055612ea7612215565b6001600160a01b0316816001600160a01b0316837f2f8788117e7eff1d82e926ec794901d17c78024a50270940304540a733656f0d60405160405180910390a45050565b6000612ef78383613b50565b612f2d575081546001818101845560008481526020808220909301849055845484825282860190935260409020919091556107ae565b5060006107ae565b60006001600160e01b03198216630271189760e51b14806107ae57506107ae82613b68565b612f68868686868686613ba8565b600d5460ff16156123f057612f9d7f8502233096d909befbda0999bb8ea2f3a6be3c138b9fbf003752a4c8bce86f6c866117f3565b80612fcd5750612fcd7f8502233096d909befbda0999bb8ea2f3a6be3c138b9fbf003752a4c8bce86f6c856117f3565b6123f05760405162461bcd60e51b81526004016107809061518d565b612ffb846001600160a01b0316613bb6565b156123f05760405163bc197c8160e01b81526001600160a01b0385169063bc197c819061303490899089908890889088906004016148f9565b602060405180830381600087803b15801561304e57600080fd5b505af192505050801561307e575060408051601f3d908101601f1916820190925261307b91810190614661565b60015b6130c75761308a615944565b8061309557506130af565b8060405162461bcd60e51b81526004016107809190614af1565b60405162461bcd60e51b815260040161078090614b3c565b6001600160e01b0319811663bc197c8160e01b14612e5d5760405162461bcd60e51b815260040161078090614bce565b61310182826117f3565b61199057613119816001600160a01b03166014613bbc565b613124836020613bbc565b604051602001613135929190614864565b60408051601f198184030181529082905262461bcd60e51b825261078091600401614af1565b61316582826117f3565b15611990576000828152602081815260408083206001600160a01b03851684529091529020805460ff1916905561319a612215565b6001600160a01b0316816001600160a01b0316837ff6391f5c32d9c69d2a47ea670b442974b53935d1edc7fd64eb21e047a839171b60405160405180910390a45050565b600081815260018301602052604081205480156132f157600061320260018361583e565b85549091506000906132169060019061583e565b905081811461329757600086600001828154811061324457634e487b7160e01b600052603260045260246000fd5b906000526020600020015490508087600001848154811061327557634e487b7160e01b600052603260045260246000fd5b6000918252602080832090910192909255918252600188019052604090208390555b85548690806132b657634e487b7160e01b600052603160045260246000fd5b6001900381819060005260206000200160009055905585600101600086815260200190815260200160002060009055600193505050506107ae565b60009150506107ae565b6001600160a01b0383166133215760405162461bcd60e51b8152600401610780906150ed565b600061332b612215565b905061335b8185600061333d87613a26565b61334687613a26565b60405180602001604052806000815250612f5a565b60008381526002602090815260408083206001600160a01b03881684529091529020548281101561339e5760405162461bcd60e51b815260040161078090614d79565b60008481526002602090815260408083206001600160a01b03808a16808652919093528184208786039055905190918516907fc3d58168c5ae7397731d063d5bbf3d657854427343f4c083240f7aacaa2d0f62906133ff9089908990614856565b60405180910390a45050505050565b6000848484846040516020016134279493929190614ab8565b60408051601f19818403018152919052805160209091012095945050505050565b6000828260405160200161345d929190614856565b60405160208183030381529060405280519060200120905092915050565b6001600160a01b0383166134a15760405162461bcd60e51b8152600401610780906150ed565b80518251146134c25760405162461bcd60e51b8152600401610780906154c9565b60006134cc612215565b90506134ec81856000868660405180602001604052806000815250612f5a565b60005b83518110156135d057600084828151811061351a57634e487b7160e01b600052603260045260246000fd5b60200260200101519050600084838151811061354657634e487b7160e01b600052603260045260246000fd5b60209081029190910181015160008481526002835260408082206001600160a01b038c1683529093529190912054909150818110156135975760405162461bcd60e51b815260040161078090614d79565b60009283526002602090815260408085206001600160a01b038b16865290915290922091039055806135c8816158cd565b9150506134ef565b5060006001600160a01b0316846001600160a01b0316826001600160a01b03167f4a39dc06d4c0dbc64b70af90fd698a233a518aa5d07e595d983b8c0526c8f7fb8686604051613621929190614a4f565b60405180910390a450505050565b600082600001828154811061365457634e487b7160e01b600052603260045260246000fd5b9060005260206000200154905092915050565b60608060006136798460400151613975565b9050600080856060015167ffffffffffffffff8111156136a957634e487b7160e01b600052604160045260246000fd5b6040519080825280602002602001820160405280156136d2578160200160208202803683370190505b509450856060015167ffffffffffffffff81111561370057634e487b7160e01b600052604160045260246000fd5b604051908082528060200260200182016040528015613729578160200160208202803683370190505b50935060005b86606001518110156138ec5783888260405160200161374f929190614856565b6040516020818303038152906040528051906020012060001c61377291906158e8565b915060005b8760200151518110156138d95783886040015182815181106137a957634e487b7160e01b600052603260045260246000fd5b60200260200101516137bb91906157c2565b83101561388e57876020015181815181106137e657634e487b7160e01b600052603260045260246000fd5b602002602001015187838151811061380e57634e487b7160e01b600052603260045260246000fd5b602002602001018181525050600186838151811061383c57634e487b7160e01b600052603260045260246000fd5b60200260200101818152505060018860400151828151811061386e57634e487b7160e01b600052603260045260246000fd5b60200260200101818151613882919061583e565b905250600093506138d9565b876040015181815181106138b257634e487b7160e01b600052603260045260246000fd5b6020026020010151846138c591906157c2565b93506138d26001826157c2565b9050613777565b506138e56001826157c2565b905061372f565b5060008881526011602090815260409091208751815473ffffffffffffffffffffffffffffffffffffffff19166001600160a01b039091161781558782015180518993613940926001850192910190614013565b506040820151805161395c916002840191602090910190614013565b5060608201518160030155905050505050935093915050565b6000805b82518110156139c9578281815181106139a257634e487b7160e01b600052603260045260246000fd5b6020026020010151826139b591906157c2565b91506139c26001826157c2565b9050613979565b50919050565b600a80549060019060006139e383856157c2565b9250508190555090565b6139f984848484613d7b565b60008381526006602052604081208054849290613a179084906157c2565b909155505050505050565b5490565b60408051600180825281830190925260609160009190602080830190803683370190505090508281600081518110613a6e57634e487b7160e01b600052603260045260246000fd5b602090810291909101015292915050565b613a91846001600160a01b0316613bb6565b156123f05760405163f23a6e6160e01b81526001600160a01b0385169063f23a6e6190613aca90899089908890889088906004016149af565b602060405180830381600087803b158015613ae457600080fd5b505af1925050508015613b14575060408051601f3d908101601f19168201909252613b1191810190614661565b60015b613b205761308a615944565b6001600160e01b0319811663f23a6e6160e01b14612e5d5760405162461bcd60e51b815260040161078090614bce565b60009081526001919091016020526040902054151590565b60006001600160e01b03198216636cdb3d1360e11b1480613b9957506001600160e01b031982166303a24d0760e21b145b806107ae57506107ae82613e5d565b6123f0868686868686613e82565b3b151590565b60606000613bcb8360026157ee565b613bd69060026157c2565b67ffffffffffffffff811115613bfc57634e487b7160e01b600052604160045260246000fd5b6040519080825280601f01601f191660200182016040528015613c26576020820181803683370190505b509050600360fc1b81600081518110613c4f57634e487b7160e01b600052603260045260246000fd5b60200101906001600160f81b031916908160001a905350600f60fb1b81600181518110613c8c57634e487b7160e01b600052603260045260246000fd5b60200101906001600160f81b031916908160001a9053506000613cb08460026157ee565b613cbb9060016157c2565b90505b6001811115613d5c577f303132333435363738396162636465660000000000000000000000000000000085600f1660108110613d0a57634e487b7160e01b600052603260045260246000fd5b1a60f81b828281518110613d2e57634e487b7160e01b600052603260045260246000fd5b60200101906001600160f81b031916908160001a90535060049490941c93613d5581615881565b9050613cbe565b5083156117ec5760405162461bcd60e51b815260040161078090614b99565b6001600160a01b038416613da15760405162461bcd60e51b815260040161078090615526565b6000613dab612215565b9050613dbd81600087612d6088613a26565b60008481526002602090815260408083206001600160a01b038916845290915281208054859290613def9084906157c2565b92505081905550846001600160a01b031660006001600160a01b0316826001600160a01b03167fc3d58168c5ae7397731d063d5bbf3d657854427343f4c083240f7aacaa2d0f628787604051613e46929190614856565b60405180910390a4610ee781600087878787613a7f565b60006001600160e01b03198216635a05180f60e01b14806107ae57506107ae82613eb5565b613e908686868686866123f0565b613e986114eb565b156123f05760405162461bcd60e51b815260040161078090614dbd565b60006001600160e01b03198216637965db0b60e01b14806107ae57506301ffc9a760e01b6001600160e01b03198316146107ae565b60405180608001604052806060815260200160006001600160a01b0316815260200160008152602001600081525090565b828054613f2790615898565b90600052602060002090601f016020900481019282613f495760008555613f8f565b82601f10613f625782800160ff19823516178555613f8f565b82800160010185558215613f8f579182015b82811115613f8f578235825591602001919060010190613f74565b50613f9b92915061404d565b5090565b828054613fab90615898565b90600052602060002090601f016020900481019282613fcd5760008555613f8f565b82601f10613fe657805160ff1916838001178555613f8f565b82800160010185558215613f8f579182015b82811115613f8f578251825591602001919060010190613ff8565b828054828255906000526020600020908101928215613f8f5791602002820182811115613f8f578251825591602001919060010190613ff8565b5b80821115613f9b576000815560010161404e565b600082601f830112614072578081fd5b8135602061408761408283615776565b61574c565b82815281810190858301838502870184018810156140a3578586fd5b855b858110156140c1578135845292840192908401906001016140a5565b5090979650505050505050565b600082601f8301126140de578081fd5b81356140ec6140828261579a565b818152846020838601011115614100578283fd5b816020850160208301379081016020019190915292915050565b60006020828403121561412b578081fd5b81356117ec816159e9565b600060208284031215614147578081fd5b81516117ec816159e9565b60008060408385031215614164578081fd5b823561416f816159e9565b9150602083013561417f816159e9565b809150509250929050565b600080600080600060a086880312156141a1578081fd5b85356141ac816159e9565b945060208601356141bc816159e9565b9350604086013567ffffffffffffffff808211156141d8578283fd5b6141e489838a01614062565b945060608801359150808211156141f9578283fd5b61420589838a01614062565b9350608088013591508082111561421a578283fd5b50614227888289016140ce565b9150509295509295909350565b60008060008060808587031215614249578384fd5b8435614254816159e9565b93506020850135614264816159e9565b925060408501359150606085013567ffffffffffffffff811115614286578182fd5b614292878288016140ce565b91505092959194509250565b600080600080600060a086880312156142b5578283fd5b85356142c0816159e9565b945060208601356142d0816159e9565b93506040860135925060608601359150608086013567ffffffffffffffff8111156142f9578182fd5b614227888289016140ce565b600080600060608486031215614319578081fd5b8335614324816159e9565b9250602084013567ffffffffffffffff80821115614340578283fd5b61434c87838801614062565b93506040860135915080821115614361578283fd5b5061436e86828701614062565b9150509250925092565b6000806000806080858703121561438d578182fd5b8435614398816159e9565b9350602085013567ffffffffffffffff808211156143b4578384fd5b6143c088838901614062565b945060408701359150808211156143d5578384fd5b6143e188838901614062565b935060608701359150808211156143f6578283fd5b50614292878288016140ce565b60008060408385031215614415578182fd5b8235614420816159e9565b9150602083013561417f81615a01565b60008060408385031215614442578182fd5b823561444d816159e9565b946020939093013593505050565b60008060006060848603121561446f578081fd5b833561447a816159e9565b95602085013595506040909401359392505050565b600080600080608085870312156144a4578182fd5b84356144af816159e9565b93506020850135925060408501359150606085013567ffffffffffffffff811115614286578182fd5b600080604083850312156144ea578182fd5b823567ffffffffffffffff80821115614501578384fd5b818501915085601f830112614514578384fd5b8135602061452461408283615776565b82815281810190858301838502870184018b1015614540578889fd5b8896505b8487101561456b578035614557816159e9565b835260019690960195918301918301614544565b5096505086013592505080821115614581578283fd5b5061458e85828601614062565b9150509250929050565b6000602082840312156145a9578081fd5b81356117ec81615a01565b6000602082840312156145c5578081fd5b81516117ec81615a01565b6000602082840312156145e1578081fd5b5035919050565b6000602082840312156145f9578081fd5b5051919050565b60008060408385031215614612578182fd5b82359150602083013561417f816159e9565b60008060408385031215614636578182fd5b50508035926020909101359150565b600060208284031215614656578081fd5b81356117ec81615a0f565b600060208284031215614672578081fd5b81516117ec81615a0f565b6000806020838503121561468f578182fd5b823567ffffffffffffffff808211156146a6578384fd5b818501915085601f8301126146b9578384fd5b8135818111156146c7578485fd5b8660208285010111156146d8578485fd5b60209290920196919550909350505050565b600080600080608085870312156146ff578182fd5b845167ffffffffffffffff811115614715578283fd5b8501601f81018713614725578283fd5b80516147336140828261579a565b818152886020838501011115614747578485fd5b614758826020830160208601615855565b60208801516040890151606090990151919a909950909650945050505050565b600060208284031215614789578081fd5b81516fffffffffffffffffffffffffffffffff811681146117ec578182fd5b6000815180845260208085019450808401835b838110156147d7578151875295820195908201906001016147bb565b509495945050505050565b600081518084526147fa816020860160208601615855565b601f01601f19169290920160200192915050565b600081516080845261482360808501826147e2565b90506001600160a01b03602084015116602085015260408301516040850152606083015160608501528091505092915050565b918252602082015260400190565b60007f416363657373436f6e74726f6c3a206163636f756e74200000000000000000008252835161489c816017850160208801615855565b7f206973206d697373696e6720726f6c652000000000000000000000000000000060179184019182015283516148d9816028840160208801615855565b01602801949350505050565b6001600160a01b0391909116815260200190565b60006001600160a01b03808816835280871660208401525060a0604083015261492560a08301866147a8565b828103606084015261493781866147a8565b9050828103608084015261494b81856147e2565b98975050505050505050565b60006001600160a01b03808716835280861660208401525060a0604083015261498360a08301856147a8565b828103606084015261499581856147a8565b838103608090940193909352508152602001949350505050565b60006001600160a01b03808816835280871660208401525084604083015283606083015260a060808301526149e760a08301846147e2565b979650505050505050565b6001600160a01b03929092168252602082015260400190565b60006001600160a01b038516825283602083015260606040830152614a3360608301846147e2565b95945050505050565b6000602082526117ec60208301846147a8565b600060408252614a6260408301856147a8565b8281036020840152614a3381856147a8565b901515815260200190565b90815260200190565b9182526001600160a01b0316602082015260400190565b60008382526040602083015261264f60408301846147a8565b93845260208401929092526001600160a01b03166040830152606082015260800190565b6001600160e01b031991909116815260200190565b6000602082526117ec60208301846147e2565b600060808252614b1760808301876147e2565b6001600160a01b03959095166020830152506040810192909252606090910152919050565b60208082526034908201527f455243313135353a207472616e7366657220746f206e6f6e204552433131353560408201527f526563656976657220696d706c656d656e746572000000000000000000000000606082015260800190565b6020808252818101527f537472696e67733a20686578206c656e67746820696e73756666696369656e74604082015260600190565b60208082526028908201527f455243313135353a204552433131353552656365697665722072656a6563746560408201527f6420746f6b656e73000000000000000000000000000000000000000000000000606082015260800190565b60208082526033908201527f5061636b3a206f6e6c7920612070726f746f636f6c2061646d696e2063616e2060408201527f63616c6c20746869732066756e6374696f6e2e00000000000000000000000000606082015260800190565b60208082526039908201527f5061636b3a207468652077696e646f7720746f206f70656e207061636b73206860408201527f6173206e6f742073746172746564206f7220636c6f7365642e00000000000000606082015260800190565b60208082526014908201527f5061757361626c653a206e6f7420706175736564000000000000000000000000604082015260600190565b6020808252602b908201527f455243313135353a2062616c616e636520717565727920666f7220746865207a60408201527f65726f2061646472657373000000000000000000000000000000000000000000606082015260800190565b60208082526024908201527f455243313135353a206275726e20616d6f756e7420657863656564732062616c604082015263616e636560e01b606082015260800190565b6020808252602c908201527f455243313135355061757361626c653a20746f6b656e207472616e736665722060408201527f7768696c65207061757365640000000000000000000000000000000000000000606082015260800190565b60208082526029908201527f455243313135353a2063616c6c6572206973206e6f74206f776e6572206e6f7260408201527f20617070726f7665640000000000000000000000000000000000000000000000606082015260800190565b6020808252601e908201527f5061636b3a204661696c656420746f207472616e73666572204c494e4b2e0000604082015260600190565b60208082526034908201527f5061636b3a204e6f7420656e6f756768204c494e4b20746f2066756c66696c6c60408201527f2072616e646f6d6e65737320726571756573742e000000000000000000000000606082015260800190565b60208082526029908201527f5061636b3a20696e76616c6964206e756d626572206f6620726577617264732060408201527f706572206f70656e2e0000000000000000000000000000000000000000000000606082015260800190565b6020808252601d908201527f5061636b3a205468652070726f746f636f6c206973207061757365642e000000604082015260600190565b60208082526032908201527f5061636b3a206d757374207761697420666f72207468652070656e64696e672060408201527f7061636b20746f206265206f70656e65642e0000000000000000000000000000606082015260800190565b60208082526010908201527f5061757361626c653a2070617573656400000000000000000000000000000000604082015260600190565b60208082526025908201527f455243313135353a207472616e7366657220746f20746865207a65726f20616460408201527f6472657373000000000000000000000000000000000000000000000000000000606082015260800190565b60208082526032908201527f455243313135353a207472616e736665722063616c6c6572206973206e6f742060408201527f6f776e6572206e6f7220617070726f7665640000000000000000000000000000606082015260800190565b60208082526023908201527f455243313135353a206275726e2066726f6d20746865207a65726f206164647260408201526265737360e81b606082015260800190565b6020808252602a908201527f455243313135353a20696e73756666696369656e742062616c616e636520666f60408201527f72207472616e7366657200000000000000000000000000000000000000000000606082015260800190565b60208082526037908201527f5061636b3a205472616e7366657273206172652072657374726963746564207460408201527f6f205452414e534645525f524f4c4520686f6c64657273000000000000000000606082015260800190565b60208082526023908201527f5061636b3a2063616e6e6f7420667265656c79206d696e74206d6f7265207061604082015262636b7360e81b606082015260800190565b6020808252601f908201527f4f6e6c7920565246436f6f7264696e61746f722063616e2066756c66696c6c00604082015260600190565b6020808252601e908201527f5061636b3a204d75737420757365206261746368207472616e736665722e0000604082015260600190565b6020808252603c908201527f5061636b3a204f6e6c79206163636f756e74732077697468204d494e5445525f60408201527f524f4c452063616e2063616c6c20746869732066756e6374696f6e2e00000000606082015260800190565b6020808252603b908201527f455243313135355072657365744d696e7465725061757365723a206d7573742060408201527f686176652070617573657220726f6c6520746f20756e70617573650000000000606082015260800190565b60208082526039908201527f455243313135355072657365744d696e7465725061757365723a206d7573742060408201527f686176652070617573657220726f6c6520746f20706175736500000000000000606082015260800190565b6020808252602f908201527f5061636b3a2073656e646572206f776e73206e6f207061636b73206f6620746860408201527f6520676976656e207061636b49642e0000000000000000000000000000000000606082015260800190565b60208082526029908201527f455243313135353a2073657474696e6720617070726f76616c2073746174757360408201527f20666f722073656c660000000000000000000000000000000000000000000000606082015260800190565b60208082526029908201527f455243313135353a206163636f756e747320616e6420696473206c656e67746860408201527f206d69736d617463680000000000000000000000000000000000000000000000606082015260800190565b60208082526028908201527f455243313135353a2069647320616e6420616d6f756e7473206c656e6774682060408201527f6d69736d61746368000000000000000000000000000000000000000000000000606082015260800190565b60208082526021908201527f455243313135353a206d696e7420746f20746865207a65726f206164647265736040820152607360f81b606082015260800190565b60208082526029908201527f4e46543a204270732070726f7669646564206d757374206265206c657373207460408201527f68616e20392c3030300000000000000000000000000000000000000000000000606082015260800190565b60208082526032908201527f5061636b3a2072657761726420636f6e747261637420646f6573206e6f74206960408201527f6d706c656d656e742045524320313135352e0000000000000000000000000000606082015260800190565b6020808252602f908201527f416363657373436f6e74726f6c3a2063616e206f6e6c792072656e6f756e636560408201527f20726f6c657320666f722073656c660000000000000000000000000000000000606082015260800190565b6000602082526117ec602083018461480e565b6000608082526156a4608083018761480e565b6001600160a01b038616602084015282810360408401526156c581866147a8565b905082810360608401526149e781856147a8565b6000604082526156ec604083018561480e565b82810360208401526001600160a01b03845116815260208401516080602083015261571a60808301826147a8565b90506040850151828203604084015261573382826147a8565b9150506060850151606083015280925050509392505050565b60405181810167ffffffffffffffff8111828210171561576e5761576e615928565b604052919050565b600067ffffffffffffffff82111561579057615790615928565b5060209081020190565b600067ffffffffffffffff8211156157b4576157b4615928565b50601f01601f191660200190565b600082198211156157d5576157d56158fc565b500190565b6000826157e9576157e9615912565b500490565b6000816000190483118215151615615808576158086158fc565b500290565b60006fffffffffffffffffffffffffffffffff83811690831681811015615836576158366158fc565b039392505050565b600082821015615850576158506158fc565b500390565b60005b83811015615870578181015183820152602001615858565b838111156126f55750506000910152565b600081615890576158906158fc565b506000190190565b6002810460018216806158ac57607f821691505b602082108114156139c957634e487b7160e01b600052602260045260246000fd5b60006000198214156158e1576158e16158fc565b5060010190565b6000826158f7576158f7615912565b500690565b634e487b7160e01b600052601160045260246000fd5b634e487b7160e01b600052601260045260246000fd5b634e487b7160e01b600052604160045260246000fd5b60e01c90565b600060443d1015615954576114f2565b600481823e6308c379a0615968825161593e565b14615972576114f2565b6040513d600319016004823e80513d67ffffffffffffffff81602484011181841117156159a257505050506114f2565b828401925082519150808211156159bc57505050506114f2565b503d830160208284010111156159d4575050506114f2565b601f01601f1916810160200160405291505090565b6001600160a01b03811681146159fe57600080fd5b50565b80151581146159fe57600080fd5b6001600160e01b0319811681146159fe57600080fdfea164736f6c6343000800000a",
  "linkReferences": {},
  "deployedLinkReferences": {}
}