{
  "_format": "hh-sol-artifact-1",
  "contractName": "Pack",
  "sourceName": "contracts/Pack.sol",
  "abi": [
    {
      "inputs": [
        {
          "internalType": "address",
          "name": "_controlCenter",
          "type": "address"
        },
        {
          "internalType": "string",
          "name": "_uri",
          "type": "string"
        },
        {
          "internalType": "address",
          "name": "_vrfCoordinator",
          "type": "address"
        },
        {
          "internalType": "address",
          "name": "_linkToken",
          "type": "address"
        },
        {
          "internalType": "bytes32",
          "name": "_keyHash",
          "type": "bytes32"
        },
        {
          "internalType": "uint256",
          "name": "_fees",
          "type": "uint256"
        },
        {
          "internalType": "address",
          "name": "_trustedForwarder",
          "type": "address"
        }
      ],
      "stateMutability": "nonpayable",
      "type": "constructor"
    },
    {
      "anonymous": false,
      "inputs": [
        {
          "indexed": true,
          "internalType": "address",
          "name": "account",
          "type": "address"
        },
        {
          "indexed": true,
          "internalType": "address",
          "name": "operator",
          "type": "address"
        },
        {
          "indexed": false,
          "internalType": "bool",
          "name": "approved",
          "type": "bool"
        }
      ],
      "name": "ApprovalForAll",
      "type": "event"
    },
    {
      "anonymous": false,
      "inputs": [
        {
          "indexed": true,
          "internalType": "uint256",
          "name": "packId",
          "type": "uint256"
        },
        {
          "indexed": true,
          "internalType": "address",
          "name": "rewardContract",
          "type": "address"
        },
        {
          "indexed": true,
          "internalType": "address",
          "name": "creator",
          "type": "address"
        },
        {
          "components": [
            {
              "internalType": "string",
              "name": "uri",
              "type": "string"
            },
            {
              "internalType": "address",
              "name": "creator",
              "type": "address"
            },
            {
              "internalType": "uint256",
              "name": "currentSupply",
              "type": "uint256"
            },
            {
              "internalType": "uint256",
              "name": "openStart",
              "type": "uint256"
            },
            {
              "internalType": "uint256",
              "name": "openEnd",
              "type": "uint256"
            }
          ],
          "indexed": false,
          "internalType": "struct Pack.PackState",
          "name": "packState",
          "type": "tuple"
        },
        {
          "components": [
            {
              "internalType": "address",
              "name": "source",
              "type": "address"
            },
            {
              "internalType": "uint256[]",
              "name": "tokenIds",
              "type": "uint256[]"
            },
            {
              "internalType": "uint256[]",
              "name": "amountsPacked",
              "type": "uint256[]"
            },
            {
              "internalType": "uint256",
              "name": "rewardsPerOpen",
              "type": "uint256"
            }
          ],
          "indexed": false,
          "internalType": "struct Pack.Rewards",
          "name": "rewards",
          "type": "tuple"
        }
      ],
      "name": "PackCreated",
      "type": "event"
    },
    {
      "anonymous": false,
      "inputs": [
        {
          "indexed": true,
          "internalType": "uint256",
          "name": "packId",
          "type": "uint256"
        },
        {
          "indexed": true,
          "internalType": "address",
          "name": "opener",
          "type": "address"
        },
        {
          "indexed": false,
          "internalType": "bytes32",
          "name": "requestId",
          "type": "bytes32"
        },
        {
          "indexed": true,
          "internalType": "address",
          "name": "rewardContract",
          "type": "address"
        },
        {
          "indexed": false,
          "internalType": "uint256[]",
          "name": "rewardIds",
          "type": "uint256[]"
        }
      ],
      "name": "PackOpenFulfilled",
      "type": "event"
    },
    {
      "anonymous": false,
      "inputs": [
        {
          "indexed": true,
          "internalType": "uint256",
          "name": "packId",
          "type": "uint256"
        },
        {
          "indexed": true,
          "internalType": "address",
          "name": "opener",
          "type": "address"
        },
        {
          "indexed": false,
          "internalType": "bytes32",
          "name": "requestId",
          "type": "bytes32"
        }
      ],
      "name": "PackOpenRequest",
      "type": "event"
    },
    {
      "anonymous": false,
      "inputs": [
        {
          "indexed": false,
          "internalType": "uint256",
          "name": "royaltyBps",
          "type": "uint256"
        }
      ],
      "name": "PackRoyaltyUpdated",
      "type": "event"
    },
    {
      "anonymous": false,
      "inputs": [
        {
          "indexed": true,
          "internalType": "address",
          "name": "operator",
          "type": "address"
        },
        {
          "indexed": true,
          "internalType": "address",
          "name": "from",
          "type": "address"
        },
        {
          "indexed": true,
          "internalType": "address",
          "name": "to",
          "type": "address"
        },
        {
          "indexed": false,
          "internalType": "uint256[]",
          "name": "ids",
          "type": "uint256[]"
        },
        {
          "indexed": false,
          "internalType": "uint256[]",
          "name": "values",
          "type": "uint256[]"
        }
      ],
      "name": "TransferBatch",
      "type": "event"
    },
    {
      "anonymous": false,
      "inputs": [
        {
          "indexed": true,
          "internalType": "address",
          "name": "operator",
          "type": "address"
        },
        {
          "indexed": true,
          "internalType": "address",
          "name": "from",
          "type": "address"
        },
        {
          "indexed": true,
          "internalType": "address",
          "name": "to",
          "type": "address"
        },
        {
          "indexed": false,
          "internalType": "uint256",
          "name": "id",
          "type": "uint256"
        },
        {
          "indexed": false,
          "internalType": "uint256",
          "name": "value",
          "type": "uint256"
        }
      ],
      "name": "TransferSingle",
      "type": "event"
    },
    {
      "anonymous": false,
      "inputs": [
        {
          "indexed": false,
          "internalType": "string",
          "name": "value",
          "type": "string"
        },
        {
          "indexed": true,
          "internalType": "uint256",
          "name": "id",
          "type": "uint256"
        }
      ],
      "name": "URI",
      "type": "event"
    },
    {
      "inputs": [],
      "name": "_contractURI",
      "outputs": [
        {
          "internalType": "string",
          "name": "",
          "type": "string"
        }
      ],
      "stateMutability": "view",
      "type": "function"
    },
    {
      "inputs": [
        {
          "internalType": "address",
          "name": "account",
          "type": "address"
        },
        {
          "internalType": "uint256",
          "name": "id",
          "type": "uint256"
        }
      ],
      "name": "balanceOf",
      "outputs": [
        {
          "internalType": "uint256",
          "name": "",
          "type": "uint256"
        }
      ],
      "stateMutability": "view",
      "type": "function"
    },
    {
      "inputs": [
        {
          "internalType": "address[]",
          "name": "accounts",
          "type": "address[]"
        },
        {
          "internalType": "uint256[]",
          "name": "ids",
          "type": "uint256[]"
        }
      ],
      "name": "balanceOfBatch",
      "outputs": [
        {
          "internalType": "uint256[]",
          "name": "",
          "type": "uint256[]"
        }
      ],
      "stateMutability": "view",
      "type": "function"
    },
    {
      "inputs": [],
      "name": "contractURI",
      "outputs": [
        {
          "internalType": "string",
          "name": "",
          "type": "string"
        }
      ],
      "stateMutability": "view",
      "type": "function"
    },
    {
      "inputs": [
        {
          "internalType": "uint256",
          "name": "_packId",
          "type": "uint256"
        }
      ],
      "name": "creator",
      "outputs": [
        {
          "internalType": "address",
          "name": "",
          "type": "address"
        }
      ],
      "stateMutability": "view",
      "type": "function"
    },
    {
      "inputs": [
        {
          "internalType": "uint256",
          "name": "",
          "type": "uint256"
        },
        {
          "internalType": "address",
          "name": "",
          "type": "address"
        }
      ],
      "name": "currentRequestId",
      "outputs": [
        {
          "internalType": "bytes32",
          "name": "",
          "type": "bytes32"
        }
      ],
      "stateMutability": "view",
      "type": "function"
    },
    {
      "inputs": [
        {
          "internalType": "uint256",
          "name": "_packId",
          "type": "uint256"
        }
      ],
      "name": "getPack",
      "outputs": [
        {
          "components": [
            {
              "internalType": "string",
              "name": "uri",
              "type": "string"
            },
            {
              "internalType": "address",
              "name": "creator",
              "type": "address"
            },
            {
              "internalType": "uint256",
              "name": "currentSupply",
              "type": "uint256"
            },
            {
              "internalType": "uint256",
              "name": "openStart",
              "type": "uint256"
            },
            {
              "internalType": "uint256",
              "name": "openEnd",
              "type": "uint256"
            }
          ],
          "internalType": "struct Pack.PackState",
          "name": "pack",
          "type": "tuple"
        }
      ],
      "stateMutability": "view",
      "type": "function"
    },
    {
      "inputs": [
        {
          "internalType": "uint256",
          "name": "_packId",
          "type": "uint256"
        }
      ],
      "name": "getPackWithRewards",
      "outputs": [
        {
          "components": [
            {
              "internalType": "string",
              "name": "uri",
              "type": "string"
            },
            {
              "internalType": "address",
              "name": "creator",
              "type": "address"
            },
            {
              "internalType": "uint256",
              "name": "currentSupply",
              "type": "uint256"
            },
            {
              "internalType": "uint256",
              "name": "openStart",
              "type": "uint256"
            },
            {
              "internalType": "uint256",
              "name": "openEnd",
              "type": "uint256"
            }
          ],
          "internalType": "struct Pack.PackState",
          "name": "pack",
          "type": "tuple"
        },
        {
          "internalType": "address",
          "name": "source",
          "type": "address"
        },
        {
          "internalType": "uint256[]",
          "name": "tokenIds",
          "type": "uint256[]"
        },
        {
          "internalType": "uint256[]",
          "name": "amountsPacked",
          "type": "uint256[]"
        }
      ],
      "stateMutability": "view",
      "type": "function"
    },
    {
      "inputs": [
        {
          "internalType": "address",
          "name": "account",
          "type": "address"
        },
        {
          "internalType": "address",
          "name": "operator",
          "type": "address"
        }
      ],
      "name": "isApprovedForAll",
      "outputs": [
        {
          "internalType": "bool",
          "name": "",
          "type": "bool"
        }
      ],
      "stateMutability": "view",
      "type": "function"
    },
    {
      "inputs": [
        {
          "internalType": "address",
          "name": "forwarder",
          "type": "address"
        }
      ],
      "name": "isTrustedForwarder",
      "outputs": [
        {
          "internalType": "bool",
          "name": "",
          "type": "bool"
        }
      ],
      "stateMutability": "view",
      "type": "function"
    },
    {
      "inputs": [],
      "name": "nextTokenId",
      "outputs": [
        {
          "internalType": "uint256",
          "name": "",
          "type": "uint256"
        }
      ],
      "stateMutability": "view",
      "type": "function"
    },
    {
      "inputs": [
        {
          "internalType": "address",
          "name": "",
          "type": "address"
        },
        {
          "internalType": "address",
          "name": "_from",
          "type": "address"
        },
        {
          "internalType": "uint256[]",
          "name": "_ids",
          "type": "uint256[]"
        },
        {
          "internalType": "uint256[]",
          "name": "_values",
          "type": "uint256[]"
        },
        {
          "internalType": "bytes",
          "name": "_data",
          "type": "bytes"
        }
      ],
      "name": "onERC1155BatchReceived",
      "outputs": [
        {
          "internalType": "bytes4",
          "name": "",
          "type": "bytes4"
        }
      ],
      "stateMutability": "nonpayable",
      "type": "function"
    },
    {
      "inputs": [
        {
          "internalType": "address",
          "name": "",
          "type": "address"
        },
        {
          "internalType": "address",
          "name": "",
          "type": "address"
        },
        {
          "internalType": "uint256",
          "name": "",
          "type": "uint256"
        },
        {
          "internalType": "uint256",
          "name": "",
          "type": "uint256"
        },
        {
          "internalType": "bytes",
          "name": "",
          "type": "bytes"
        }
      ],
      "name": "onERC1155Received",
      "outputs": [
        {
          "internalType": "bytes4",
          "name": "",
          "type": "bytes4"
        }
      ],
      "stateMutability": "nonpayable",
      "type": "function"
    },
    {
      "inputs": [
        {
          "internalType": "uint256",
          "name": "_packId",
          "type": "uint256"
        }
      ],
      "name": "openPack",
      "outputs": [],
      "stateMutability": "nonpayable",
      "type": "function"
    },
    {
      "inputs": [],
      "name": "packRoyaltyBps",
      "outputs": [
        {
          "internalType": "uint256",
          "name": "",
          "type": "uint256"
        }
      ],
      "stateMutability": "view",
      "type": "function"
    },
    {
      "inputs": [
        {
          "internalType": "uint256",
          "name": "",
          "type": "uint256"
        }
      ],
      "name": "packs",
      "outputs": [
        {
          "internalType": "string",
          "name": "uri",
          "type": "string"
        },
        {
          "internalType": "address",
          "name": "creator",
          "type": "address"
        },
        {
          "internalType": "uint256",
          "name": "currentSupply",
          "type": "uint256"
        },
        {
          "internalType": "uint256",
          "name": "openStart",
          "type": "uint256"
        },
        {
          "internalType": "uint256",
          "name": "openEnd",
          "type": "uint256"
        }
      ],
      "stateMutability": "view",
      "type": "function"
    },
    {
      "inputs": [
        {
          "internalType": "bytes32",
          "name": "",
          "type": "bytes32"
        }
      ],
      "name": "randomnessRequests",
      "outputs": [
        {
          "internalType": "uint256",
          "name": "packId",
          "type": "uint256"
        },
        {
          "internalType": "address",
          "name": "opener",
          "type": "address"
        }
      ],
      "stateMutability": "view",
      "type": "function"
    },
    {
      "inputs": [
        {
          "internalType": "bytes32",
          "name": "requestId",
          "type": "bytes32"
        },
        {
          "internalType": "uint256",
          "name": "randomness",
          "type": "uint256"
        }
      ],
      "name": "rawFulfillRandomness",
      "outputs": [],
      "stateMutability": "nonpayable",
      "type": "function"
    },
    {
      "inputs": [
        {
          "internalType": "uint256",
          "name": "",
          "type": "uint256"
        }
      ],
      "name": "rewards",
      "outputs": [
        {
          "internalType": "address",
          "name": "source",
          "type": "address"
        },
        {
          "internalType": "uint256",
          "name": "rewardsPerOpen",
          "type": "uint256"
        }
      ],
      "stateMutability": "view",
      "type": "function"
    },
    {
      "inputs": [
        {
          "internalType": "uint256",
          "name": "tokenId",
          "type": "uint256"
        },
        {
          "internalType": "uint256",
          "name": "salePrice",
          "type": "uint256"
        }
      ],
      "name": "royaltyInfo",
      "outputs": [
        {
          "internalType": "address",
          "name": "receiver",
          "type": "address"
        },
        {
          "internalType": "uint256",
          "name": "royaltyAmount",
          "type": "uint256"
        }
      ],
      "stateMutability": "view",
      "type": "function"
    },
    {
      "inputs": [
        {
          "internalType": "address",
          "name": "from",
          "type": "address"
        },
        {
          "internalType": "address",
          "name": "to",
          "type": "address"
        },
        {
          "internalType": "uint256[]",
          "name": "ids",
          "type": "uint256[]"
        },
        {
          "internalType": "uint256[]",
          "name": "amounts",
          "type": "uint256[]"
        },
        {
          "internalType": "bytes",
          "name": "data",
          "type": "bytes"
        }
      ],
      "name": "safeBatchTransferFrom",
      "outputs": [],
      "stateMutability": "nonpayable",
      "type": "function"
    },
    {
      "inputs": [
        {
          "internalType": "address",
          "name": "from",
          "type": "address"
        },
        {
          "internalType": "address",
          "name": "to",
          "type": "address"
        },
        {
          "internalType": "uint256",
          "name": "id",
          "type": "uint256"
        },
        {
          "internalType": "uint256",
          "name": "amount",
          "type": "uint256"
        },
        {
          "internalType": "bytes",
          "name": "data",
          "type": "bytes"
        }
      ],
      "name": "safeTransferFrom",
      "outputs": [],
      "stateMutability": "nonpayable",
      "type": "function"
    },
    {
      "inputs": [
        {
          "internalType": "address",
          "name": "operator",
          "type": "address"
        },
        {
          "internalType": "bool",
          "name": "approved",
          "type": "bool"
        }
      ],
      "name": "setApprovalForAll",
      "outputs": [],
      "stateMutability": "nonpayable",
      "type": "function"
    },
    {
      "inputs": [
        {
          "internalType": "uint256",
          "name": "_newFees",
          "type": "uint256"
        }
      ],
      "name": "setChainlinkFees",
      "outputs": [],
      "stateMutability": "nonpayable",
      "type": "function"
    },
    {
      "inputs": [
        {
          "internalType": "string",
          "name": "_URI",
          "type": "string"
        }
      ],
      "name": "setContractURI",
      "outputs": [],
      "stateMutability": "nonpayable",
      "type": "function"
    },
    {
      "inputs": [
        {
          "internalType": "uint256",
          "name": "_royaltyBps",
          "type": "uint256"
        }
      ],
      "name": "setPackRoyaltyBps",
      "outputs": [],
      "stateMutability": "nonpayable",
      "type": "function"
    },
    {
      "inputs": [
        {
          "internalType": "bytes4",
          "name": "interfaceId",
          "type": "bytes4"
        }
      ],
      "name": "supportsInterface",
      "outputs": [
        {
          "internalType": "bool",
          "name": "",
          "type": "bool"
        }
      ],
      "stateMutability": "view",
      "type": "function"
    },
    {
      "inputs": [
        {
          "internalType": "uint256",
          "name": "_id",
          "type": "uint256"
        }
      ],
      "name": "tokenURI",
      "outputs": [
        {
          "internalType": "string",
          "name": "",
          "type": "string"
        }
      ],
      "stateMutability": "view",
      "type": "function"
    },
    {
      "inputs": [
        {
          "internalType": "address",
          "name": "_to",
          "type": "address"
        },
        {
          "internalType": "uint256",
          "name": "_amount",
          "type": "uint256"
        }
      ],
      "name": "transferLink",
      "outputs": [],
      "stateMutability": "nonpayable",
      "type": "function"
    },
    {
      "inputs": [
        {
          "internalType": "uint256",
          "name": "_id",
          "type": "uint256"
        }
      ],
      "name": "uri",
      "outputs": [
        {
          "internalType": "string",
          "name": "",
          "type": "string"
        }
      ],
      "stateMutability": "view",
      "type": "function"
    },
    {
      "inputs": [],
      "name": "vrfFees",
      "outputs": [
        {
          "internalType": "uint256",
          "name": "",
          "type": "uint256"
        }
      ],
      "stateMutability": "view",
      "type": "function"
    },
    {
      "inputs": [],
      "name": "vrfKeyHash",
      "outputs": [
        {
          "internalType": "bytes32",
          "name": "",
          "type": "bytes32"
        }
      ],
      "stateMutability": "view",
      "type": "function"
    }
  ],
  "bytecode": "0x60c06040523480156200001157600080fd5b50604051620044b2380380620044b2833981016040819052620000349162000196565b808585886200004381620000ba565b506001600160601b0319606092831b811660a052911b16608052600480546001600160a01b039283166001600160a01b03199182161790915560058054928a1692909116919091179055600883905560078290558551620000ac90600a906020890190620000d3565b50505050505050506200031a565b8051620000cf906002906020840190620000d3565b5050565b828054620000e190620002c7565b90600052602060002090601f01602090048101928262000105576000855562000150565b82601f106200012057805160ff191683800117855562000150565b8280016001018555821562000150579182015b828111156200015057825182559160200191906001019062000133565b506200015e92915062000162565b5090565b5b808211156200015e576000815560010162000163565b80516001600160a01b03811681146200019157600080fd5b919050565b600080600080600080600060e0888a031215620001b1578283fd5b620001bc8862000179565b602089810151919850906001600160401b0380821115620001db578586fd5b818b0191508b601f830112620001ef578586fd5b81518181111562000204576200020462000304565b604051601f8201601f19168101850183811182821017156200022a576200022a62000304565b60405281815283820185018e101562000241578788fd5b8792505b8183101562000264578383018501518184018601529184019162000245565b818311156200027557878583830101525b809a5050505050506200028b6040890162000179565b94506200029b6060890162000179565b93506080880151925060a08801519150620002b960c0890162000179565b905092959891949750929550565b600281046001821680620002dc57607f821691505b60208210811415620002fe57634e487b7160e01b600052602260045260246000fd5b50919050565b634e487b7160e01b600052604160045260246000fd5b60805160601c60a05160601c6141576200035b6000396000818161126a0152611c8d015260008181610db2015281816118aa0152611c5e01526141576000f3fe608060405234801561001057600080fd5b50600436106101ef5760003560e01c806375794a3c1161010f578063c0e72740116100a2578063f23a6e6111610071578063f23a6e6114610456578063f242432a14610469578063f301af421461047c578063f99b1d681461048f576101ef565b8063c0e7274014610433578063c87b56dd14610245578063e8a3d4851461043b578063e985e9c514610443576101ef565b8063a22cb465116100de578063a22cb465146103c9578063b277ca45146103dc578063b84c1392146103ef578063bc197c8114610413576101ef565b806375794a3c1461037b578063895ec54c14610383578063938e3d7b146103a357806394985ddd146103b6576101ef565b80632a55205a11610187578063510b515811610156578063510b5158146103145780635318c48f14610334578063572b6c05146103475780635e619b781461035a576101ef565b80632a55205a146102ad5780632eb2c2d6146102ce5780634e1273f4146102e157806350a88c7e14610301576101ef565b806310983e57116101c357806310983e571461026557806310e34e671461026d5780631d64b18e14610290578063238566ab14610298576101ef565b8062fdd58e146101f457806301ffc9a71461021d578063041d443e1461023d5780630e89341c14610245575b600080fd5b610207610202366004612ffd565b6104a2565b6040516102149190613521565b60405180910390f35b61023061022b366004613155565b6104f9565b6040516102149190613516565b61020761053f565b610258610253366004613104565b610545565b60405161021491906135a1565b6102076105e7565b61028061027b366004613104565b6105ed565b6040516102149493929190613dfe565b6102076107b9565b6102ab6102a6366004613104565b6107bf565b005b6102c06102bb366004613134565b6109b2565b604051610214929190613494565b6102ab6102dc366004612ebf565b610a63565b6102f46102ef366004613028565b610ac1565b60405161021491906134de565b6102ab61030f366004613104565b610be1565b610327610322366004613104565b610fde565b6040516102149190613387565b61020761034236600461329d565b610ffc565b610230610355366004612e64565b611019565b61036d610368366004613104565b61102d565b60405161021492919061352a565b61020761104f565b610396610391366004613104565b611055565b6040516102149190613deb565b6102ab6103b136600461318d565b61113f565b6102ab6103c4366004613134565b61125f565b6102ab6103d7366004612fd0565b6112b5565b6102ab6103ea366004613104565b611383565b6104026103fd366004613104565b611497565b6040516102149594939291906135b4565b610426610421366004612ebf565b611558565b604051610214919061357e565b6102586115a6565b610258611634565b610230610451366004612e87565b6116c7565b610426610464366004612f69565b6116f5565b6102ab610477366004612f69565b611706565b6102c061048a366004613104565b61175d565b6102ab61049d366004612ffd565b611782565b60006001600160a01b0383166104d35760405162461bcd60e51b81526004016104ca90613768565b60405180910390fd5b506000908152602081815260408083206001600160a01b03949094168352929052205490565b60006001600160e01b03198216636cdb3d1360e11b148061052a57506001600160e01b031982166303a24d0760e21b145b80610539575061053982611952565b92915050565b60085481565b6000818152600b6020526040902080546060919061056290613fbd565b80601f016020809104026020016040519081016040528092919081815260200182805461058e90613fbd565b80156105db5780601f106105b0576101008083540402835291602001916105db565b820191906000526020600020905b8154815290600101906020018083116105be57829003601f168201915b50505050509050919050565b60075481565b6105f5612c2d565b6000606080600b60008681526020019081526020016000206040518060a001604052908160008201805461062890613fbd565b80601f016020809104026020016040519081016040528092919081815260200182805461065490613fbd565b80156106a15780601f10610676576101008083540402835291602001916106a1565b820191906000526020600020905b81548152906001019060200180831161068457829003601f168201915b50505091835250506001828101546001600160a01b0390811660208085019190915260028501546040808601919091526003860154606086015260049095015460809094019390935260008a8152600c84528490208054920180548551818602810186019096528086529599509116965091929083018282801561074457602002820191906000526020600020905b815481526020019060010190808311610730575b50505050509150600c60008681526020019081526020016000206002018054806020026020016040519081016040528092919081815260200182805480156107ab57602002820191906000526020600020905b815481526020019060010190808311610797575b505050505090509193509193565b60095481565b60055460408051634a32c6bf60e11b8152905133926001600160a01b0316916391d148549183916394658d7e916004808301926020929190829003018186803b15801561080b57600080fd5b505afa15801561081f573d6000803e3d6000fd5b505050506040513d601f19601f82011682018060405250810190610843919061311c565b836040518363ffffffff1660e01b815260040161086192919061352a565b60206040518083038186803b15801561087957600080fd5b505afa15801561088d573d6000803e3d6000fd5b505050506040513d601f19601f820116820180604052508101906108b191906130e8565b6108cd5760405162461bcd60e51b81526004016104ca906136ae565b600560009054906101000a90046001600160a01b03166001600160a01b031663fd967f476040518163ffffffff1660e01b815260040160206040518083038186803b15801561091b57600080fd5b505afa15801561092f573d6000803e3d6000fd5b505050506040513d601f19601f82011682018060405250810190610953919061311c565b82106109715760405162461bcd60e51b81526004016104ca9061389d565b60098290556040517f18df997df447ad234684c1707c641c0bda90e308ab6a764f6d9ba74ac407b95c906109a6908490613521565b60405180910390a15050565b6000828152600b6020908152604080832060010154600554825163fd967f4760e01b815292516001600160a01b039283169594919092169263fd967f479260048083019392829003018186803b158015610a0b57600080fd5b505afa158015610a1f573d6000803e3d6000fd5b505050506040513d601f19601f82011682018060405250810190610a43919061311c565b600954610a509085613f5b565b610a5a9190613f47565b90509250929050565b610a6b61196b565b6001600160a01b0316856001600160a01b03161480610a915750610a918561045161196b565b610aad5760405162461bcd60e51b81526004016104ca90613aa5565b610aba858585858561197a565b5050505050565b60608151835114610ae45760405162461bcd60e51b81526004016104ca90613c93565b6000835167ffffffffffffffff811115610b0e57634e487b7160e01b600052604160045260246000fd5b604051908082528060200260200182016040528015610b37578160200160208202803683370190505b50905060005b8451811015610bd957610b9e858281518110610b6957634e487b7160e01b600052603260045260246000fd5b6020026020010151858381518110610b9157634e487b7160e01b600052603260045260246000fd5b60200260200101516104a2565b828281518110610bbe57634e487b7160e01b600052603260045260246000fd5b6020908102919091010152610bd281613ff2565b9050610b3d565b509392505050565b600560009054906101000a90046001600160a01b03166001600160a01b0316639d2f83f06040518163ffffffff1660e01b815260040160206040518083038186803b158015610c2f57600080fd5b505afa158015610c43573d6000803e3d6000fd5b505050506040513d601f19601f82011682018060405250810190610c6791906130e8565b15610c845760405162461bcd60e51b81526004016104ca906139b4565b6000818152600b6020526040808220815160a08101909252805482908290610cab90613fbd565b80601f0160208091040260200160405190810160405280929190818152602001828054610cd790613fbd565b8015610d245780601f10610cf957610100808354040283529160200191610d24565b820191906000526020600020905b815481529060010190602001808311610d0757829003601f168201915b505050918352505060018201546001600160a01b031660208201526002820154604082015260038201546060808301919091526004909201546080909101528101519091504210801590610d7c575080608001514211155b610d985760405162461bcd60e51b81526004016104ca9061370b565b6007546040516370a0823160e01b81526001600160a01b037f000000000000000000000000000000000000000000000000000000000000000016906370a0823190610de7903090600401613387565b60206040518083038186803b158015610dff57600080fd5b505afa158015610e13573d6000803e3d6000fd5b505050506040513d601f19601f82011682018060405250810190610e37919061311c565b1015610e555760405162461bcd60e51b81526004016104ca906138fa565b6000610e68610e6261196b565b846104a2565b11610e855760405162461bcd60e51b81526004016104ca90613bd9565b6000828152600e6020526040812090610e9c61196b565b6001600160a01b0316815260208101919091526040016000205415610ed35760405162461bcd60e51b81526004016104ca906139eb565b610ee6610ede61196b565b836001611b4b565b6000610ef6600854600754611c5a565b90506040518060400160405280848152602001610f1161196b565b6001600160a01b039081169091526000838152600d6020908152604080832085518155948201516001909501805473ffffffffffffffffffffffffffffffffffffffff19169590941694909417909255858152600e9091529081208291610f7661196b565b6001600160a01b03168152602081019190915260400160002055610f9861196b565b6001600160a01b0316837fb5c27afec62496e403fae78e07136ae7c58425e8128c7b680ea24dee8c8d940183604051610fd19190613521565b60405180910390a3505050565b6000908152600b60205260409020600101546001600160a01b031690565b600e60209081526000928352604080842090915290825290205481565b6004546001600160a01b0390811691161490565b600d60205260009081526040902080546001909101546001600160a01b031682565b60065481565b61105d612c2d565b6000828152600b602052604090819020815160a0810190925280548290829061108590613fbd565b80601f01602080910402602001604051908101604052809291908181526020018280546110b190613fbd565b80156110fe5780601f106110d3576101008083540402835291602001916110fe565b820191906000526020600020905b8154815290600101906020018083116110e157829003601f168201915b505050918352505060018201546001600160a01b03166020820152600282015460408201526003820154606082015260049091015460809091015292915050565b60055460408051634a32c6bf60e11b8152905133926001600160a01b0316916391d148549183916394658d7e916004808301926020929190829003018186803b15801561118b57600080fd5b505afa15801561119f573d6000803e3d6000fd5b505050506040513d601f19601f820116820180604052508101906111c3919061311c565b836040518363ffffffff1660e01b81526004016111e192919061352a565b60206040518083038186803b1580156111f957600080fd5b505afa15801561120d573d6000803e3d6000fd5b505050506040513d601f19601f8201168201806040525081019061123191906130e8565b61124d5760405162461bcd60e51b81526004016104ca906136ae565b611259600a8484612c65565b50505050565b336001600160a01b037f000000000000000000000000000000000000000000000000000000000000000016146112a75760405162461bcd60e51b81526004016104ca90613ba2565b6112b18282611d9d565b5050565b816001600160a01b03166112c761196b565b6001600160a01b031614156112ee5760405162461bcd60e51b81526004016104ca90613c36565b80600160006112fb61196b565b6001600160a01b03908116825260208083019390935260409182016000908120918716808252919093529120805460ff19169215159290921790915561133f61196b565b6001600160a01b03167f17307eab39ab6107e8899845ad3d59bd9653f200f220920489ca2b5937696c31836040516113779190613516565b60405180910390a35050565b60055460408051634a32c6bf60e11b8152905133926001600160a01b0316916391d148549183916394658d7e916004808301926020929190829003018186803b1580156113cf57600080fd5b505afa1580156113e3573d6000803e3d6000fd5b505050506040513d601f19601f82011682018060405250810190611407919061311c565b836040518363ffffffff1660e01b815260040161142592919061352a565b60206040518083038186803b15801561143d57600080fd5b505afa158015611451573d6000803e3d6000fd5b505050506040513d601f19601f8201168201806040525081019061147591906130e8565b6114915760405162461bcd60e51b81526004016104ca906136ae565b50600755565b600b602052600090815260409020805481906114b290613fbd565b80601f01602080910402602001604051908101604052809291908181526020018280546114de90613fbd565b801561152b5780601f106115005761010080835404028352916020019161152b565b820191906000526020600020905b81548152906001019060200180831161150e57829003601f168201915b5050505060018301546002840154600385015460049095015493946001600160a01b039092169390925085565b6000806000806000808680602001905181019061157591906131fa565b9450945094509450945061158f8a86868c8c888888611f96565b5063bc197c8160e01b9a9950505050505050505050565b600a80546115b390613fbd565b80601f01602080910402602001604051908101604052809291908181526020018280546115df90613fbd565b801561162c5780601f106116015761010080835404028352916020019161162c565b820191906000526020600020905b81548152906001019060200180831161160f57829003601f168201915b505050505081565b6060600a805461164390613fbd565b80601f016020809104026020016040519081016040528092919081815260200182805461166f90613fbd565b80156116bc5780601f10611691576101008083540402835291602001916116bc565b820191906000526020600020905b81548152906001019060200180831161169f57829003601f168201915b505050505090505b90565b6001600160a01b03918216600090815260016020908152604080832093909416825291909152205460ff1690565b63f23a6e6160e01b95945050505050565b61170e61196b565b6001600160a01b0316856001600160a01b0316148061173457506117348561045161196b565b6117505760405162461bcd60e51b81526004016104ca90613809565b610aba85858585856122f7565b600c60205260009081526040902080546003909101546001600160a01b039091169082565b60055460408051634a32c6bf60e11b8152905133926001600160a01b0316916391d148549183916394658d7e916004808301926020929190829003018186803b1580156117ce57600080fd5b505afa1580156117e2573d6000803e3d6000fd5b505050506040513d601f19601f82011682018060405250810190611806919061311c565b836040518363ffffffff1660e01b815260040161182492919061352a565b60206040518083038186803b15801561183c57600080fd5b505afa158015611850573d6000803e3d6000fd5b505050506040513d601f19601f8201168201806040525081019061187491906130e8565b6118905760405162461bcd60e51b81526004016104ca906136ae565b60405163a9059cbb60e01b81526000906001600160a01b037f0000000000000000000000000000000000000000000000000000000000000000169063a9059cbb906118e19087908790600401613494565b602060405180830381600087803b1580156118fb57600080fd5b505af115801561190f573d6000803e3d6000fd5b505050506040513d601f19601f8201168201806040525081019061193391906130e8565b9050806112595760405162461bcd60e51b81526004016104ca90613866565b6001600160e01b031981166301ffc9a760e01b14919050565b600061197561243a565b905090565b815183511461199b5760405162461bcd60e51b81526004016104ca90613cf0565b6001600160a01b0384166119c15760405162461bcd60e51b81526004016104ca90613a48565b60006119cb61196b565b90506119db818787878787612468565b60005b8451811015611add576000858281518110611a0957634e487b7160e01b600052603260045260246000fd5b602002602001015190506000858381518110611a3557634e487b7160e01b600052603260045260246000fd5b602090810291909101810151600084815280835260408082206001600160a01b038e168352909352919091205490915081811015611a855760405162461bcd60e51b81526004016104ca90613b45565b6000838152602081815260408083206001600160a01b038e8116855292528083208585039055908b16825281208054849290611ac2908490613f2f565b9250508190555050505080611ad690613ff2565b90506119de565b50846001600160a01b0316866001600160a01b0316826001600160a01b03167f4a39dc06d4c0dbc64b70af90fd698a233a518aa5d07e595d983b8c0526c8f7fb8787604051611b2d9291906134f1565b60405180910390a4611b4381878787878761251c565b505050505050565b6001600160a01b038316611b715760405162461bcd60e51b81526004016104ca90613b02565b6000611b7b61196b565b9050611bab81856000611b8d8761262a565b611b968761262a565b60405180602001604052806000815250612468565b6000838152602081815260408083206001600160a01b038816845290915290205482811015611bec5760405162461bcd60e51b81526004016104ca906137c5565b6000848152602081815260408083206001600160a01b03808a16808652919093528184208786039055905190918516907fc3d58168c5ae7397731d063d5bbf3d657854427343f4c083240f7aacaa2d0f6290611c4b9089908990613379565b60405180910390a45050505050565b60007f00000000000000000000000000000000000000000000000000000000000000006001600160a01b0316634000aea07f000000000000000000000000000000000000000000000000000000000000000084866000604051602001611cc1929190613379565b6040516020818303038152906040526040518463ffffffff1660e01b8152600401611cee939291906134ad565b602060405180830381600087803b158015611d0857600080fd5b505af1158015611d1c573d6000803e3d6000fd5b505050506040513d601f19601f82011682018060405250810190611d4091906130e8565b50600083815260036020526040812054611d5f90859083903090612683565b600085815260036020526040902054909150611d7c906001613f2f565b600085815260036020526040902055611d9584826126bd565b949350505050565b6000828152600d602090815260408083208151808301835281548082526001928301546001600160a01b03908116838701819052828852600e87528588208189528752858820889055828852600c875285882086516080810188528154909316835294850180548751818a0281018a01909852808852949893979196939592949293858301939092830182828015611e5457602002820191906000526020600020905b815481526020019060010190808311611e40575b5050505050815260200160028201805480602002602001604051908101604052809291908181526020018280548015611eac57602002820191906000526020600020905b815481526020019060010190808311611e98575b505050505081526020016003820154815250509050600080611ecf8588856126f0565b8451604051631759616b60e11b81529294509092506001600160a01b031690632eb2c2d690611f089030908890879087906004016133f9565b600060405180830381600087803b158015611f2257600080fd5b505af1158015611f36573d6000803e3d6000fd5b5050505082600001516001600160a01b0316846001600160a01b0316867f9cae8e743935573869e2fe7223782448d71211235c93076166106782de1c234f8b86604051611f84929190613541565b60405180910390a45050505050505050565b600560009054906101000a90046001600160a01b03166001600160a01b0316639d2f83f06040518163ffffffff1660e01b815260040160206040518083038186803b158015611fe457600080fd5b505afa158015611ff8573d6000803e3d6000fd5b505050506040513d601f19601f8201168201806040525081019061201c91906130e8565b156120395760405162461bcd60e51b81526004016104ca906139b4565b6040516301ffc9a760e01b81526001600160a01b038716906301ffc9a7906120699063d9b67a2690600401613593565b60206040518083038186803b15801561208157600080fd5b505afa158015612095573d6000803e3d6000fd5b505050506040513d601f19601f820116820180604052508101906120b991906130e8565b6120d55760405162461bcd60e51b81526004016104ca90613d8e565b60006120e0856129fe565b90506120ec828261400d565b156121095760405162461bcd60e51b81526004016104ca90613957565b6000612113612a58565b905060006121218484613f47565b905060006040518060a001604052808c81526020018d6001600160a01b0316815260200183815260200188426121579190613f2f565b815260200187156121715761216c8842613f2f565b612175565b6000195b9052604080516080810182526001600160a01b038d16815260208082018d90528183018c9052606082018990526000878152600b825292909220835180519495509193859391926121ca928492910190612ce9565b50602082810151600180840180546001600160a01b0393841673ffffffffffffffffffffffffffffffffffffffff19918216179091556040808701516002870155606087015160038701556080909601516004909501949094556000898152600c84529490942085518154921691909316178255838101518051859461225593908501920190612d5d565b5060408201518051612271916002840191602090910190612d5d565b506060820151816003015590505061229a8d858560405180602001604052806000815250612a76565b8c6001600160a01b03168b6001600160a01b0316857f9330e9dfd1e803e5d709edb2ad6657b74cb0fb1f182bd63fdbbcb01a463e8ad085856040516122e0929190613e46565b60405180910390a450505050505050505050505050565b6001600160a01b03841661231d5760405162461bcd60e51b81526004016104ca90613a48565b600061232761196b565b90506123478187876123388861262a565b6123418861262a565b87612468565b6000848152602081815260408083206001600160a01b038a168452909152902054838110156123885760405162461bcd60e51b81526004016104ca90613b45565b6000858152602081815260408083206001600160a01b038b81168552925280832087850390559088168252812080548692906123c5908490613f2f565b92505081905550856001600160a01b0316876001600160a01b0316836001600160a01b03167fc3d58168c5ae7397731d063d5bbf3d657854427343f4c083240f7aacaa2d0f62888860405161241b929190613379565b60405180910390a4612431828888888888612b52565b50505050505050565b600061244533611019565b15612459575060131936013560601c6116c4565b612461612c23565b90506116c4565b612476868686868686611b43565b6001600160a01b038416611b435760005b8351811015612431578281815181106124b057634e487b7160e01b600052603260045260246000fd5b6020026020010151600b60008684815181106124dc57634e487b7160e01b600052603260045260246000fd5b6020026020010151815260200190815260200160002060020160008282546125049190613f7a565b909155506125159050600182613f2f565b9050612487565b61252e846001600160a01b0316612c27565b15611b435760405163bc197c8160e01b81526001600160a01b0385169063bc197c8190612567908990899088908890889060040161339b565b602060405180830381600087803b15801561258157600080fd5b505af19250505080156125b1575060408051601f3d908101601f191682019092526125ae91810190613171565b60015b6125fa576125bd614069565b806125c857506125e2565b8060405162461bcd60e51b81526004016104ca91906135a1565b60405162461bcd60e51b81526004016104ca906135f4565b6001600160e01b0319811663bc197c8160e01b146124315760405162461bcd60e51b81526004016104ca90613651565b6040805160018082528183019092526060916000919060208083019080368337019050509050828160008151811061267257634e487b7160e01b600052603260045260246000fd5b602090810291909101015292915050565b60008484848460405160200161269c949392919061355a565b60408051601f19818403018152919052805160209091012095945050505050565b600082826040516020016126d2929190613379565b60405160208183030381529060405280519060200120905092915050565b606080600061270284604001516129fe565b9050600080856060015167ffffffffffffffff81111561273257634e487b7160e01b600052604160045260246000fd5b60405190808252806020026020018201604052801561275b578160200160208202803683370190505b509450856060015167ffffffffffffffff81111561278957634e487b7160e01b600052604160045260246000fd5b6040519080825280602002602001820160405280156127b2578160200160208202803683370190505b50935060005b8660600151811015612975578388826040516020016127d8929190613379565b6040516020818303038152906040528051906020012060001c6127fb919061400d565b915060005b87602001515181101561296257838860400151828151811061283257634e487b7160e01b600052603260045260246000fd5b60200260200101516128449190613f2f565b831015612917578760200151818151811061286f57634e487b7160e01b600052603260045260246000fd5b602002602001015187838151811061289757634e487b7160e01b600052603260045260246000fd5b60200260200101818152505060018683815181106128c557634e487b7160e01b600052603260045260246000fd5b6020026020010181815250506001886040015182815181106128f757634e487b7160e01b600052603260045260246000fd5b6020026020010181815161290b9190613f7a565b90525060009350612962565b8760400151818151811061293b57634e487b7160e01b600052603260045260246000fd5b60200260200101518461294e9190613f2f565b935061295b600182613f2f565b9050612800565b5061296e600182613f2f565b90506127b8565b506000888152600c602090815260409091208751815473ffffffffffffffffffffffffffffffffffffffff19166001600160a01b0390911617815587820151805189936129c9926001850192910190612d5d565b50604082015180516129e5916002840191602090910190612d5d565b5060608201518160030155905050505050935093915050565b6000805b8251811015612a5257828181518110612a2b57634e487b7160e01b600052603260045260246000fd5b602002602001015182612a3e9190613f2f565b9150612a4b600182613f2f565b9050612a02565b50919050565b60068054906001906000612a6c8385613f2f565b9250508190555090565b6001600160a01b038416612a9c5760405162461bcd60e51b81526004016104ca90613d4d565b6000612aa661196b565b9050612ab8816000876123388861262a565b6000848152602081815260408083206001600160a01b038916845290915281208054859290612ae8908490613f2f565b92505081905550846001600160a01b031660006001600160a01b0316826001600160a01b03167fc3d58168c5ae7397731d063d5bbf3d657854427343f4c083240f7aacaa2d0f628787604051612b3f929190613379565b60405180910390a4610aba816000878787875b612b64846001600160a01b0316612c27565b15611b435760405163f23a6e6160e01b81526001600160a01b0385169063f23a6e6190612b9d9089908990889088908890600401613451565b602060405180830381600087803b158015612bb757600080fd5b505af1925050508015612be7575060408051601f3d908101601f19168201909252612be491810190613171565b60015b612bf3576125bd614069565b6001600160e01b0319811663f23a6e6160e01b146124315760405162461bcd60e51b81526004016104ca90613651565b3390565b3b151590565b6040518060a001604052806060815260200160006001600160a01b031681526020016000815260200160008152602001600081525090565b828054612c7190613fbd565b90600052602060002090601f016020900481019282612c935760008555612cd9565b82601f10612cac5782800160ff19823516178555612cd9565b82800160010185558215612cd9579182015b82811115612cd9578235825591602001919060010190612cbe565b50612ce5929150612d97565b5090565b828054612cf590613fbd565b90600052602060002090601f016020900481019282612d175760008555612cd9565b82601f10612d3057805160ff1916838001178555612cd9565b82800160010185558215612cd9579182015b82811115612cd9578251825591602001919060010190612d42565b828054828255906000526020600020908101928215612cd95791602002820182811115612cd9578251825591602001919060010190612d42565b5b80821115612ce55760008155600101612d98565b600082601f830112612dbc578081fd5b81356020612dd1612dcc83613ee3565b613eb9565b8281528181019085830183850287018401881015612ded578586fd5b855b85811015612e0b57813584529284019290840190600101612def565b5090979650505050505050565b600082601f830112612e28578081fd5b8135612e36612dcc82613f07565b818152846020838601011115612e4a578283fd5b816020850160208301379081016020019190915292915050565b600060208284031215612e75578081fd5b8135612e808161410e565b9392505050565b60008060408385031215612e99578081fd5b8235612ea48161410e565b91506020830135612eb48161410e565b809150509250929050565b600080600080600060a08688031215612ed6578081fd5b8535612ee18161410e565b94506020860135612ef18161410e565b9350604086013567ffffffffffffffff80821115612f0d578283fd5b612f1989838a01612dac565b94506060880135915080821115612f2e578283fd5b612f3a89838a01612dac565b93506080880135915080821115612f4f578283fd5b50612f5c88828901612e18565b9150509295509295909350565b600080600080600060a08688031215612f80578081fd5b8535612f8b8161410e565b94506020860135612f9b8161410e565b93506040860135925060608601359150608086013567ffffffffffffffff811115612fc4578182fd5b612f5c88828901612e18565b60008060408385031215612fe2578182fd5b8235612fed8161410e565b91506020830135612eb481614126565b6000806040838503121561300f578182fd5b823561301a8161410e565b946020939093013593505050565b6000806040838503121561303a578182fd5b823567ffffffffffffffff80821115613051578384fd5b818501915085601f830112613064578384fd5b81356020613074612dcc83613ee3565b82815281810190858301838502870184018b1015613090578889fd5b8896505b848710156130bb5780356130a78161410e565b835260019690960195918301918301613094565b50965050860135925050808211156130d1578283fd5b506130de85828601612dac565b9150509250929050565b6000602082840312156130f9578081fd5b8151612e8081614126565b600060208284031215613115578081fd5b5035919050565b60006020828403121561312d578081fd5b5051919050565b60008060408385031215613146578182fd5b50508035926020909101359150565b600060208284031215613166578081fd5b8135612e8081614134565b600060208284031215613182578081fd5b8151612e8081614134565b6000806020838503121561319f578182fd5b823567ffffffffffffffff808211156131b6578384fd5b818501915085601f8301126131c9578384fd5b8135818111156131d7578485fd5b8660208285010111156131e8578485fd5b60209290920196919550909350505050565b600080600080600060a08688031215613211578283fd5b855167ffffffffffffffff811115613227578384fd5b8601601f81018813613237578384fd5b8051613245612dcc82613f07565b818152896020838501011115613259578586fd5b61326a826020830160208601613f91565b809750505050602086015161327e8161410e565b6040870151606088015160809098015196999198509695945092505050565b600080604083850312156132af578182fd5b823591506020830135612eb48161410e565b6000815180845260208085019450808401835b838110156132f0578151875295820195908201906001016132d4565b509495945050505050565b60008151808452613313816020860160208601613f91565b601f01601f19169290920160200192915050565b6000815160a0845261333c60a08501826132fb565b90506001600160a01b0360208401511660208501526040830151604085015260608301516060850152608083015160808501528091505092915050565b918252602082015260400190565b6001600160a01b0391909116815260200190565b60006001600160a01b03808816835280871660208401525060a060408301526133c760a08301866132c1565b82810360608401526133d981866132c1565b905082810360808401526133ed81856132fb565b98975050505050505050565b60006001600160a01b03808716835280861660208401525060a0604083015261342560a08301856132c1565b828103606084015261343781856132c1565b838103608090940193909352508152602001949350505050565b60006001600160a01b03808816835280871660208401525084604083015283606083015260a0608083015261348960a08301846132fb565b979650505050505050565b6001600160a01b03929092168252602082015260400190565b60006001600160a01b0385168252836020830152606060408301526134d560608301846132fb565b95945050505050565b600060208252612e8060208301846132c1565b60006040825261350460408301856132c1565b82810360208401526134d581856132c1565b901515815260200190565b90815260200190565b9182526001600160a01b0316602082015260400190565b600083825260406020830152611d9560408301846132c1565b93845260208401929092526001600160a01b03166040830152606082015260800190565b6001600160e01b031991909116815260200190565b60e09190911b815260200190565b600060208252612e8060208301846132fb565b600060a082526135c760a08301886132fb565b90506001600160a01b03861660208301528460408301528360608301528260808301529695505050505050565b60208082526034908201527f455243313135353a207472616e7366657220746f206e6f6e204552433131353560408201527f526563656976657220696d706c656d656e746572000000000000000000000000606082015260800190565b60208082526028908201527f455243313135353a204552433131353552656365697665722072656a6563746560408201527f6420746f6b656e73000000000000000000000000000000000000000000000000606082015260800190565b60208082526033908201527f5061636b3a206f6e6c7920612070726f746f636f6c2061646d696e2063616e2060408201527f63616c6c20746869732066756e6374696f6e2e00000000000000000000000000606082015260800190565b60208082526039908201527f5061636b3a207468652077696e646f7720746f206f70656e207061636b73206860408201527f6173206e6f742073746172746564206f7220636c6f7365642e00000000000000606082015260800190565b6020808252602b908201527f455243313135353a2062616c616e636520717565727920666f7220746865207a60408201527f65726f2061646472657373000000000000000000000000000000000000000000606082015260800190565b60208082526024908201527f455243313135353a206275726e20616d6f756e7420657863656564732062616c604082015263616e636560e01b606082015260800190565b60208082526029908201527f455243313135353a2063616c6c6572206973206e6f74206f776e6572206e6f7260408201527f20617070726f7665640000000000000000000000000000000000000000000000606082015260800190565b6020808252601e908201527f5061636b3a204661696c656420746f207472616e73666572204c494e4b2e0000604082015260600190565b6020808252602b908201527f5061636b3a204270732070726f7669646564206d757374206265206c6573732060408201527f7468616e2031302c303030000000000000000000000000000000000000000000606082015260800190565b60208082526034908201527f5061636b3a204e6f7420656e6f756768204c494e4b20746f2066756c66696c6c60408201527f2072616e646f6d6e65737320726571756573742e000000000000000000000000606082015260800190565b60208082526029908201527f5061636b3a20696e76616c6964206e756d626572206f6620726577617264732060408201527f706572206f70656e2e0000000000000000000000000000000000000000000000606082015260800190565b6020808252601d908201527f5061636b3a205468652070726f746f636f6c206973207061757365642e000000604082015260600190565b60208082526032908201527f5061636b3a206d757374207761697420666f72207468652070656e64696e672060408201527f7061636b20746f206265206f70656e65642e0000000000000000000000000000606082015260800190565b60208082526025908201527f455243313135353a207472616e7366657220746f20746865207a65726f20616460408201527f6472657373000000000000000000000000000000000000000000000000000000606082015260800190565b60208082526032908201527f455243313135353a207472616e736665722063616c6c6572206973206e6f742060408201527f6f776e6572206e6f7220617070726f7665640000000000000000000000000000606082015260800190565b60208082526023908201527f455243313135353a206275726e2066726f6d20746865207a65726f206164647260408201526265737360e81b606082015260800190565b6020808252602a908201527f455243313135353a20696e73756666696369656e742062616c616e636520666f60408201527f72207472616e7366657200000000000000000000000000000000000000000000606082015260800190565b6020808252601f908201527f4f6e6c7920565246436f6f7264696e61746f722063616e2066756c66696c6c00604082015260600190565b6020808252602f908201527f5061636b3a2073656e646572206f776e73206e6f207061636b73206f6620746860408201527f6520676976656e207061636b49642e0000000000000000000000000000000000606082015260800190565b60208082526029908201527f455243313135353a2073657474696e6720617070726f76616c2073746174757360408201527f20666f722073656c660000000000000000000000000000000000000000000000606082015260800190565b60208082526029908201527f455243313135353a206163636f756e747320616e6420696473206c656e67746860408201527f206d69736d617463680000000000000000000000000000000000000000000000606082015260800190565b60208082526028908201527f455243313135353a2069647320616e6420616d6f756e7473206c656e6774682060408201527f6d69736d61746368000000000000000000000000000000000000000000000000606082015260800190565b60208082526021908201527f455243313135353a206d696e7420746f20746865207a65726f206164647265736040820152607360f81b606082015260800190565b60208082526032908201527f5061636b3a2072657761726420636f6e747261637420646f6573206e6f74206960408201527f6d706c656d656e742045524320313135352e0000000000000000000000000000606082015260800190565b600060208252612e806020830184613327565b600060808252613e116080830187613327565b6001600160a01b03861660208401528281036040840152613e3281866132c1565b9050828103606084015261348981856132c1565b600060408252613e596040830185613327565b82810360208401526001600160a01b038451168152602084015160806020830152613e8760808301826132c1565b905060408501518282036040840152613ea082826132c1565b9150506060850151606083015280925050509392505050565b60405181810167ffffffffffffffff81118282101715613edb57613edb61404d565b604052919050565b600067ffffffffffffffff821115613efd57613efd61404d565b5060209081020190565b600067ffffffffffffffff821115613f2157613f2161404d565b50601f01601f191660200190565b60008219821115613f4257613f42614021565b500190565b600082613f5657613f56614037565b500490565b6000816000190483118215151615613f7557613f75614021565b500290565b600082821015613f8c57613f8c614021565b500390565b60005b83811015613fac578181015183820152602001613f94565b838111156112595750506000910152565b600281046001821680613fd157607f821691505b60208210811415612a5257634e487b7160e01b600052602260045260246000fd5b600060001982141561400657614006614021565b5060010190565b60008261401c5761401c614037565b500690565b634e487b7160e01b600052601160045260246000fd5b634e487b7160e01b600052601260045260246000fd5b634e487b7160e01b600052604160045260246000fd5b60e01c90565b600060443d1015614079576116c4565b600481823e6308c379a061408d8251614063565b14614097576116c4565b6040513d600319016004823e80513d67ffffffffffffffff81602484011181841117156140c757505050506116c4565b828401925082519150808211156140e157505050506116c4565b503d830160208284010111156140f9575050506116c4565b601f01601f1916810160200160405291505090565b6001600160a01b038116811461412357600080fd5b50565b801515811461412357600080fd5b6001600160e01b03198116811461412357600080fdfea164736f6c6343000800000a",
  "linkReferences": {},
  "deployedLinkReferences": {}
}