{
  "_format": "hh-sol-artifact-1",
  "contractName": "Market",
  "sourceName": "contracts/v2/Market.sol",
  "abi": [
    {
      "inputs": [
        {
          "internalType": "address payable",
          "name": "_controlCenter",
          "type": "address"
        },
        {
          "internalType": "address",
          "name": "_trustedForwarder",
          "type": "address"
        },
        {
          "internalType": "string",
          "name": "_uri",
          "type": "string"
        }
      ],
      "stateMutability": "nonpayable",
      "type": "constructor"
    },
    {
      "anonymous": false,
      "inputs": [
        {
          "indexed": false,
          "internalType": "uint256",
          "name": "timeBuffer",
          "type": "uint256"
        },
        {
          "indexed": false,
          "internalType": "uint256",
          "name": "bidBufferBps",
          "type": "uint256"
        }
      ],
      "name": "AuctionBuffersUpdated",
      "type": "event"
    },
    {
      "anonymous": false,
      "inputs": [
        {
          "indexed": true,
          "internalType": "uint256",
          "name": "listingId",
          "type": "uint256"
        },
        {
          "indexed": true,
          "internalType": "address",
          "name": "auctionCreator",
          "type": "address"
        },
        {
          "components": [
            {
              "internalType": "uint256",
              "name": "listingId",
              "type": "uint256"
            },
            {
              "internalType": "address",
              "name": "tokenOwner",
              "type": "address"
            },
            {
              "internalType": "address",
              "name": "assetContract",
              "type": "address"
            },
            {
              "internalType": "uint256",
              "name": "tokenId",
              "type": "uint256"
            },
            {
              "internalType": "uint256",
              "name": "startTime",
              "type": "uint256"
            },
            {
              "internalType": "uint256",
              "name": "endTime",
              "type": "uint256"
            },
            {
              "internalType": "uint256",
              "name": "quantity",
              "type": "uint256"
            },
            {
              "internalType": "address",
              "name": "currency",
              "type": "address"
            },
            {
              "internalType": "uint256",
              "name": "reservePricePerToken",
              "type": "uint256"
            },
            {
              "internalType": "uint256",
              "name": "buyoutPricePerToken",
              "type": "uint256"
            },
            {
              "internalType": "uint256",
              "name": "tokensPerBuyer",
              "type": "uint256"
            },
            {
              "internalType": "enum IMarket.TokenType",
              "name": "tokenType",
              "type": "uint8"
            },
            {
              "internalType": "enum IMarket.ListingType",
              "name": "listingType",
              "type": "uint8"
            }
          ],
          "indexed": false,
          "internalType": "struct IMarket.Listing",
          "name": "listing",
          "type": "tuple"
        }
      ],
      "name": "AuctionCanceled",
      "type": "event"
    },
    {
      "anonymous": false,
      "inputs": [
        {
          "indexed": true,
          "internalType": "uint256",
          "name": "listingId",
          "type": "uint256"
        },
        {
          "indexed": true,
          "internalType": "address",
          "name": "closer",
          "type": "address"
        },
        {
          "indexed": false,
          "internalType": "address",
          "name": "auctionCreator",
          "type": "address"
        },
        {
          "indexed": false,
          "internalType": "address",
          "name": "winningBidder",
          "type": "address"
        },
        {
          "components": [
            {
              "internalType": "uint256",
              "name": "listingId",
              "type": "uint256"
            },
            {
              "internalType": "address",
              "name": "offeror",
              "type": "address"
            },
            {
              "internalType": "uint256",
              "name": "quantityWanted",
              "type": "uint256"
            },
            {
              "internalType": "uint256",
              "name": "offerAmount",
              "type": "uint256"
            }
          ],
          "indexed": false,
          "internalType": "struct IMarket.Offer",
          "name": "winningBid",
          "type": "tuple"
        },
        {
          "components": [
            {
              "internalType": "uint256",
              "name": "listingId",
              "type": "uint256"
            },
            {
              "internalType": "address",
              "name": "tokenOwner",
              "type": "address"
            },
            {
              "internalType": "address",
              "name": "assetContract",
              "type": "address"
            },
            {
              "internalType": "uint256",
              "name": "tokenId",
              "type": "uint256"
            },
            {
              "internalType": "uint256",
              "name": "startTime",
              "type": "uint256"
            },
            {
              "internalType": "uint256",
              "name": "endTime",
              "type": "uint256"
            },
            {
              "internalType": "uint256",
              "name": "quantity",
              "type": "uint256"
            },
            {
              "internalType": "address",
              "name": "currency",
              "type": "address"
            },
            {
              "internalType": "uint256",
              "name": "reservePricePerToken",
              "type": "uint256"
            },
            {
              "internalType": "uint256",
              "name": "buyoutPricePerToken",
              "type": "uint256"
            },
            {
              "internalType": "uint256",
              "name": "tokensPerBuyer",
              "type": "uint256"
            },
            {
              "internalType": "enum IMarket.TokenType",
              "name": "tokenType",
              "type": "uint8"
            },
            {
              "internalType": "enum IMarket.ListingType",
              "name": "listingType",
              "type": "uint8"
            }
          ],
          "indexed": false,
          "internalType": "struct IMarket.Listing",
          "name": "listing",
          "type": "tuple"
        }
      ],
      "name": "AuctionClosed",
      "type": "event"
    },
    {
      "anonymous": false,
      "inputs": [
        {
          "indexed": true,
          "internalType": "address",
          "name": "listingCreator",
          "type": "address"
        },
        {
          "indexed": true,
          "internalType": "uint256",
          "name": "listingId",
          "type": "uint256"
        },
        {
          "components": [
            {
              "internalType": "uint256",
              "name": "listingId",
              "type": "uint256"
            },
            {
              "internalType": "address",
              "name": "tokenOwner",
              "type": "address"
            },
            {
              "internalType": "address",
              "name": "assetContract",
              "type": "address"
            },
            {
              "internalType": "uint256",
              "name": "tokenId",
              "type": "uint256"
            },
            {
              "internalType": "uint256",
              "name": "startTime",
              "type": "uint256"
            },
            {
              "internalType": "uint256",
              "name": "endTime",
              "type": "uint256"
            },
            {
              "internalType": "uint256",
              "name": "quantity",
              "type": "uint256"
            },
            {
              "internalType": "address",
              "name": "currency",
              "type": "address"
            },
            {
              "internalType": "uint256",
              "name": "reservePricePerToken",
              "type": "uint256"
            },
            {
              "internalType": "uint256",
              "name": "buyoutPricePerToken",
              "type": "uint256"
            },
            {
              "internalType": "uint256",
              "name": "tokensPerBuyer",
              "type": "uint256"
            },
            {
              "internalType": "enum IMarket.TokenType",
              "name": "tokenType",
              "type": "uint8"
            },
            {
              "internalType": "enum IMarket.ListingType",
              "name": "listingType",
              "type": "uint8"
            }
          ],
          "indexed": false,
          "internalType": "struct IMarket.Listing",
          "name": "listing",
          "type": "tuple"
        }
      ],
      "name": "ListingUpdate",
      "type": "event"
    },
    {
      "anonymous": false,
      "inputs": [
        {
          "indexed": false,
          "internalType": "uint128",
          "name": "newFee",
          "type": "uint128"
        }
      ],
      "name": "MarketFeeUpdate",
      "type": "event"
    },
    {
      "anonymous": false,
      "inputs": [
        {
          "indexed": true,
          "internalType": "uint256",
          "name": "listingId",
          "type": "uint256"
        },
        {
          "indexed": true,
          "internalType": "address",
          "name": "bidder",
          "type": "address"
        },
        {
          "components": [
            {
              "internalType": "uint256",
              "name": "listingId",
              "type": "uint256"
            },
            {
              "internalType": "address",
              "name": "offeror",
              "type": "address"
            },
            {
              "internalType": "uint256",
              "name": "quantityWanted",
              "type": "uint256"
            },
            {
              "internalType": "uint256",
              "name": "offerAmount",
              "type": "uint256"
            }
          ],
          "indexed": false,
          "internalType": "struct IMarket.Offer",
          "name": "bid",
          "type": "tuple"
        },
        {
          "components": [
            {
              "internalType": "uint256",
              "name": "listingId",
              "type": "uint256"
            },
            {
              "internalType": "address",
              "name": "tokenOwner",
              "type": "address"
            },
            {
              "internalType": "address",
              "name": "assetContract",
              "type": "address"
            },
            {
              "internalType": "uint256",
              "name": "tokenId",
              "type": "uint256"
            },
            {
              "internalType": "uint256",
              "name": "startTime",
              "type": "uint256"
            },
            {
              "internalType": "uint256",
              "name": "endTime",
              "type": "uint256"
            },
            {
              "internalType": "uint256",
              "name": "quantity",
              "type": "uint256"
            },
            {
              "internalType": "address",
              "name": "currency",
              "type": "address"
            },
            {
              "internalType": "uint256",
              "name": "reservePricePerToken",
              "type": "uint256"
            },
            {
              "internalType": "uint256",
              "name": "buyoutPricePerToken",
              "type": "uint256"
            },
            {
              "internalType": "uint256",
              "name": "tokensPerBuyer",
              "type": "uint256"
            },
            {
              "internalType": "enum IMarket.TokenType",
              "name": "tokenType",
              "type": "uint8"
            },
            {
              "internalType": "enum IMarket.ListingType",
              "name": "listingType",
              "type": "uint8"
            }
          ],
          "indexed": false,
          "internalType": "struct IMarket.Listing",
          "name": "listing",
          "type": "tuple"
        }
      ],
      "name": "NewBid",
      "type": "event"
    },
    {
      "anonymous": false,
      "inputs": [
        {
          "indexed": true,
          "internalType": "address",
          "name": "assetContract",
          "type": "address"
        },
        {
          "indexed": true,
          "internalType": "address",
          "name": "seller",
          "type": "address"
        },
        {
          "indexed": true,
          "internalType": "uint256",
          "name": "listingId",
          "type": "uint256"
        },
        {
          "indexed": false,
          "internalType": "address",
          "name": "buyer",
          "type": "address"
        },
        {
          "indexed": false,
          "internalType": "uint256",
          "name": "quantity",
          "type": "uint256"
        },
        {
          "components": [
            {
              "internalType": "uint256",
              "name": "listingId",
              "type": "uint256"
            },
            {
              "internalType": "address",
              "name": "tokenOwner",
              "type": "address"
            },
            {
              "internalType": "address",
              "name": "assetContract",
              "type": "address"
            },
            {
              "internalType": "uint256",
              "name": "tokenId",
              "type": "uint256"
            },
            {
              "internalType": "uint256",
              "name": "startTime",
              "type": "uint256"
            },
            {
              "internalType": "uint256",
              "name": "endTime",
              "type": "uint256"
            },
            {
              "internalType": "uint256",
              "name": "quantity",
              "type": "uint256"
            },
            {
              "internalType": "address",
              "name": "currency",
              "type": "address"
            },
            {
              "internalType": "uint256",
              "name": "reservePricePerToken",
              "type": "uint256"
            },
            {
              "internalType": "uint256",
              "name": "buyoutPricePerToken",
              "type": "uint256"
            },
            {
              "internalType": "uint256",
              "name": "tokensPerBuyer",
              "type": "uint256"
            },
            {
              "internalType": "enum IMarket.TokenType",
              "name": "tokenType",
              "type": "uint8"
            },
            {
              "internalType": "enum IMarket.ListingType",
              "name": "listingType",
              "type": "uint8"
            }
          ],
          "indexed": false,
          "internalType": "struct IMarket.Listing",
          "name": "listing",
          "type": "tuple"
        }
      ],
      "name": "NewDirectSale",
      "type": "event"
    },
    {
      "anonymous": false,
      "inputs": [
        {
          "indexed": true,
          "internalType": "address",
          "name": "assetContract",
          "type": "address"
        },
        {
          "indexed": true,
          "internalType": "address",
          "name": "seller",
          "type": "address"
        },
        {
          "indexed": true,
          "internalType": "uint256",
          "name": "listingId",
          "type": "uint256"
        },
        {
          "components": [
            {
              "internalType": "uint256",
              "name": "listingId",
              "type": "uint256"
            },
            {
              "internalType": "address",
              "name": "tokenOwner",
              "type": "address"
            },
            {
              "internalType": "address",
              "name": "assetContract",
              "type": "address"
            },
            {
              "internalType": "uint256",
              "name": "tokenId",
              "type": "uint256"
            },
            {
              "internalType": "uint256",
              "name": "startTime",
              "type": "uint256"
            },
            {
              "internalType": "uint256",
              "name": "endTime",
              "type": "uint256"
            },
            {
              "internalType": "uint256",
              "name": "quantity",
              "type": "uint256"
            },
            {
              "internalType": "address",
              "name": "currency",
              "type": "address"
            },
            {
              "internalType": "uint256",
              "name": "reservePricePerToken",
              "type": "uint256"
            },
            {
              "internalType": "uint256",
              "name": "buyoutPricePerToken",
              "type": "uint256"
            },
            {
              "internalType": "uint256",
              "name": "tokensPerBuyer",
              "type": "uint256"
            },
            {
              "internalType": "enum IMarket.TokenType",
              "name": "tokenType",
              "type": "uint8"
            },
            {
              "internalType": "enum IMarket.ListingType",
              "name": "listingType",
              "type": "uint8"
            }
          ],
          "indexed": false,
          "internalType": "struct IMarket.Listing",
          "name": "listing",
          "type": "tuple"
        }
      ],
      "name": "NewListing",
      "type": "event"
    },
    {
      "anonymous": false,
      "inputs": [
        {
          "indexed": true,
          "internalType": "uint256",
          "name": "listingId",
          "type": "uint256"
        },
        {
          "indexed": true,
          "internalType": "address",
          "name": "offeror",
          "type": "address"
        },
        {
          "components": [
            {
              "internalType": "uint256",
              "name": "listingId",
              "type": "uint256"
            },
            {
              "internalType": "address",
              "name": "offeror",
              "type": "address"
            },
            {
              "internalType": "uint256",
              "name": "quantityWanted",
              "type": "uint256"
            },
            {
              "internalType": "uint256",
              "name": "offerAmount",
              "type": "uint256"
            }
          ],
          "indexed": false,
          "internalType": "struct IMarket.Offer",
          "name": "offer",
          "type": "tuple"
        },
        {
          "components": [
            {
              "internalType": "uint256",
              "name": "listingId",
              "type": "uint256"
            },
            {
              "internalType": "address",
              "name": "tokenOwner",
              "type": "address"
            },
            {
              "internalType": "address",
              "name": "assetContract",
              "type": "address"
            },
            {
              "internalType": "uint256",
              "name": "tokenId",
              "type": "uint256"
            },
            {
              "internalType": "uint256",
              "name": "startTime",
              "type": "uint256"
            },
            {
              "internalType": "uint256",
              "name": "endTime",
              "type": "uint256"
            },
            {
              "internalType": "uint256",
              "name": "quantity",
              "type": "uint256"
            },
            {
              "internalType": "address",
              "name": "currency",
              "type": "address"
            },
            {
              "internalType": "uint256",
              "name": "reservePricePerToken",
              "type": "uint256"
            },
            {
              "internalType": "uint256",
              "name": "buyoutPricePerToken",
              "type": "uint256"
            },
            {
              "internalType": "uint256",
              "name": "tokensPerBuyer",
              "type": "uint256"
            },
            {
              "internalType": "enum IMarket.TokenType",
              "name": "tokenType",
              "type": "uint8"
            },
            {
              "internalType": "enum IMarket.ListingType",
              "name": "listingType",
              "type": "uint8"
            }
          ],
          "indexed": false,
          "internalType": "struct IMarket.Listing",
          "name": "listing",
          "type": "tuple"
        }
      ],
      "name": "NewOffer",
      "type": "event"
    },
    {
      "anonymous": false,
      "inputs": [
        {
          "indexed": false,
          "internalType": "bool",
          "name": "restricted",
          "type": "bool"
        }
      ],
      "name": "RestrictedListerRoleUpdated",
      "type": "event"
    },
    {
      "anonymous": false,
      "inputs": [
        {
          "indexed": true,
          "internalType": "bytes32",
          "name": "role",
          "type": "bytes32"
        },
        {
          "indexed": true,
          "internalType": "bytes32",
          "name": "previousAdminRole",
          "type": "bytes32"
        },
        {
          "indexed": true,
          "internalType": "bytes32",
          "name": "newAdminRole",
          "type": "bytes32"
        }
      ],
      "name": "RoleAdminChanged",
      "type": "event"
    },
    {
      "anonymous": false,
      "inputs": [
        {
          "indexed": true,
          "internalType": "bytes32",
          "name": "role",
          "type": "bytes32"
        },
        {
          "indexed": true,
          "internalType": "address",
          "name": "account",
          "type": "address"
        },
        {
          "indexed": true,
          "internalType": "address",
          "name": "sender",
          "type": "address"
        }
      ],
      "name": "RoleGranted",
      "type": "event"
    },
    {
      "anonymous": false,
      "inputs": [
        {
          "indexed": true,
          "internalType": "bytes32",
          "name": "role",
          "type": "bytes32"
        },
        {
          "indexed": true,
          "internalType": "address",
          "name": "account",
          "type": "address"
        },
        {
          "indexed": true,
          "internalType": "address",
          "name": "sender",
          "type": "address"
        }
      ],
      "name": "RoleRevoked",
      "type": "event"
    },
    {
      "inputs": [],
      "name": "DEFAULT_ADMIN_ROLE",
      "outputs": [
        {
          "internalType": "bytes32",
          "name": "",
          "type": "bytes32"
        }
      ],
      "stateMutability": "view",
      "type": "function"
    },
    {
      "inputs": [],
      "name": "LISTER_ROLE",
      "outputs": [
        {
          "internalType": "bytes32",
          "name": "",
          "type": "bytes32"
        }
      ],
      "stateMutability": "view",
      "type": "function"
    },
    {
      "inputs": [],
      "name": "_contractURI",
      "outputs": [
        {
          "internalType": "string",
          "name": "",
          "type": "string"
        }
      ],
      "stateMutability": "view",
      "type": "function"
    },
    {
      "inputs": [
        {
          "internalType": "uint256",
          "name": "_listingId",
          "type": "uint256"
        },
        {
          "internalType": "address",
          "name": "offeror",
          "type": "address"
        }
      ],
      "name": "acceptOffer",
      "outputs": [],
      "stateMutability": "nonpayable",
      "type": "function"
    },
    {
      "inputs": [],
      "name": "bidBufferBps",
      "outputs": [
        {
          "internalType": "uint256",
          "name": "",
          "type": "uint256"
        }
      ],
      "stateMutability": "view",
      "type": "function"
    },
    {
      "inputs": [
        {
          "internalType": "uint256",
          "name": "",
          "type": "uint256"
        },
        {
          "internalType": "address",
          "name": "",
          "type": "address"
        }
      ],
      "name": "boughtFromListing",
      "outputs": [
        {
          "internalType": "uint256",
          "name": "",
          "type": "uint256"
        }
      ],
      "stateMutability": "view",
      "type": "function"
    },
    {
      "inputs": [
        {
          "internalType": "uint256",
          "name": "_listingId",
          "type": "uint256"
        },
        {
          "internalType": "uint256",
          "name": "_quantityToBuy",
          "type": "uint256"
        }
      ],
      "name": "buy",
      "outputs": [],
      "stateMutability": "nonpayable",
      "type": "function"
    },
    {
      "inputs": [
        {
          "internalType": "uint256",
          "name": "_listingId",
          "type": "uint256"
        }
      ],
      "name": "closeAuction",
      "outputs": [],
      "stateMutability": "nonpayable",
      "type": "function"
    },
    {
      "inputs": [],
      "name": "contractURI",
      "outputs": [
        {
          "internalType": "string",
          "name": "",
          "type": "string"
        }
      ],
      "stateMutability": "view",
      "type": "function"
    },
    {
      "inputs": [
        {
          "components": [
            {
              "internalType": "address",
              "name": "assetContract",
              "type": "address"
            },
            {
              "internalType": "uint256",
              "name": "tokenId",
              "type": "uint256"
            },
            {
              "internalType": "uint256",
              "name": "secondsUntilStartTime",
              "type": "uint256"
            },
            {
              "internalType": "uint256",
              "name": "secondsUntilEndTime",
              "type": "uint256"
            },
            {
              "internalType": "uint256",
              "name": "quantityToList",
              "type": "uint256"
            },
            {
              "internalType": "address",
              "name": "currencyToAccept",
              "type": "address"
            },
            {
              "internalType": "uint256",
              "name": "reservePricePerToken",
              "type": "uint256"
            },
            {
              "internalType": "uint256",
              "name": "buyoutPricePerToken",
              "type": "uint256"
            },
            {
              "internalType": "uint256",
              "name": "tokensPerBuyer",
              "type": "uint256"
            },
            {
              "internalType": "enum IMarket.ListingType",
              "name": "listingType",
              "type": "uint8"
            }
          ],
          "internalType": "struct IMarket.ListingParameters",
          "name": "_params",
          "type": "tuple"
        }
      ],
      "name": "createListing",
      "outputs": [],
      "stateMutability": "nonpayable",
      "type": "function"
    },
    {
      "inputs": [
        {
          "internalType": "uint256",
          "name": "_listingId",
          "type": "uint256"
        },
        {
          "internalType": "uint256",
          "name": "_quantityToList",
          "type": "uint256"
        },
        {
          "internalType": "uint256",
          "name": "_reservePricePerToken",
          "type": "uint256"
        },
        {
          "internalType": "uint256",
          "name": "_buyoutPricePerToken",
          "type": "uint256"
        },
        {
          "internalType": "uint256",
          "name": "_tokensPerBuyer",
          "type": "uint256"
        },
        {
          "internalType": "address",
          "name": "_currencyToAccept",
          "type": "address"
        },
        {
          "internalType": "uint256",
          "name": "_secondsUntilStartTime",
          "type": "uint256"
        },
        {
          "internalType": "uint256",
          "name": "_secondsUntilEndTime",
          "type": "uint256"
        }
      ],
      "name": "editListingParametrs",
      "outputs": [],
      "stateMutability": "nonpayable",
      "type": "function"
    },
    {
      "inputs": [
        {
          "internalType": "uint256",
          "name": "_listingId",
          "type": "uint256"
        }
      ],
      "name": "getListing",
      "outputs": [
        {
          "components": [
            {
              "internalType": "uint256",
              "name": "listingId",
              "type": "uint256"
            },
            {
              "internalType": "address",
              "name": "tokenOwner",
              "type": "address"
            },
            {
              "internalType": "address",
              "name": "assetContract",
              "type": "address"
            },
            {
              "internalType": "uint256",
              "name": "tokenId",
              "type": "uint256"
            },
            {
              "internalType": "uint256",
              "name": "startTime",
              "type": "uint256"
            },
            {
              "internalType": "uint256",
              "name": "endTime",
              "type": "uint256"
            },
            {
              "internalType": "uint256",
              "name": "quantity",
              "type": "uint256"
            },
            {
              "internalType": "address",
              "name": "currency",
              "type": "address"
            },
            {
              "internalType": "uint256",
              "name": "reservePricePerToken",
              "type": "uint256"
            },
            {
              "internalType": "uint256",
              "name": "buyoutPricePerToken",
              "type": "uint256"
            },
            {
              "internalType": "uint256",
              "name": "tokensPerBuyer",
              "type": "uint256"
            },
            {
              "internalType": "enum IMarket.TokenType",
              "name": "tokenType",
              "type": "uint8"
            },
            {
              "internalType": "enum IMarket.ListingType",
              "name": "listingType",
              "type": "uint8"
            }
          ],
          "internalType": "struct IMarket.Listing",
          "name": "listing",
          "type": "tuple"
        }
      ],
      "stateMutability": "view",
      "type": "function"
    },
    {
      "inputs": [
        {
          "internalType": "bytes32",
          "name": "role",
          "type": "bytes32"
        }
      ],
      "name": "getRoleAdmin",
      "outputs": [
        {
          "internalType": "bytes32",
          "name": "",
          "type": "bytes32"
        }
      ],
      "stateMutability": "view",
      "type": "function"
    },
    {
      "inputs": [
        {
          "internalType": "bytes32",
          "name": "role",
          "type": "bytes32"
        },
        {
          "internalType": "uint256",
          "name": "index",
          "type": "uint256"
        }
      ],
      "name": "getRoleMember",
      "outputs": [
        {
          "internalType": "address",
          "name": "",
          "type": "address"
        }
      ],
      "stateMutability": "view",
      "type": "function"
    },
    {
      "inputs": [
        {
          "internalType": "bytes32",
          "name": "role",
          "type": "bytes32"
        }
      ],
      "name": "getRoleMemberCount",
      "outputs": [
        {
          "internalType": "uint256",
          "name": "",
          "type": "uint256"
        }
      ],
      "stateMutability": "view",
      "type": "function"
    },
    {
      "inputs": [
        {
          "internalType": "bytes32",
          "name": "role",
          "type": "bytes32"
        },
        {
          "internalType": "address",
          "name": "account",
          "type": "address"
        }
      ],
      "name": "grantRole",
      "outputs": [],
      "stateMutability": "nonpayable",
      "type": "function"
    },
    {
      "inputs": [
        {
          "internalType": "bytes32",
          "name": "role",
          "type": "bytes32"
        },
        {
          "internalType": "address",
          "name": "account",
          "type": "address"
        }
      ],
      "name": "hasRole",
      "outputs": [
        {
          "internalType": "bool",
          "name": "",
          "type": "bool"
        }
      ],
      "stateMutability": "view",
      "type": "function"
    },
    {
      "inputs": [
        {
          "internalType": "address",
          "name": "forwarder",
          "type": "address"
        }
      ],
      "name": "isTrustedForwarder",
      "outputs": [
        {
          "internalType": "bool",
          "name": "",
          "type": "bool"
        }
      ],
      "stateMutability": "view",
      "type": "function"
    },
    {
      "inputs": [
        {
          "internalType": "uint256",
          "name": "",
          "type": "uint256"
        }
      ],
      "name": "listings",
      "outputs": [
        {
          "internalType": "uint256",
          "name": "listingId",
          "type": "uint256"
        },
        {
          "internalType": "address",
          "name": "tokenOwner",
          "type": "address"
        },
        {
          "internalType": "address",
          "name": "assetContract",
          "type": "address"
        },
        {
          "internalType": "uint256",
          "name": "tokenId",
          "type": "uint256"
        },
        {
          "internalType": "uint256",
          "name": "startTime",
          "type": "uint256"
        },
        {
          "internalType": "uint256",
          "name": "endTime",
          "type": "uint256"
        },
        {
          "internalType": "uint256",
          "name": "quantity",
          "type": "uint256"
        },
        {
          "internalType": "address",
          "name": "currency",
          "type": "address"
        },
        {
          "internalType": "uint256",
          "name": "reservePricePerToken",
          "type": "uint256"
        },
        {
          "internalType": "uint256",
          "name": "buyoutPricePerToken",
          "type": "uint256"
        },
        {
          "internalType": "uint256",
          "name": "tokensPerBuyer",
          "type": "uint256"
        },
        {
          "internalType": "enum IMarket.TokenType",
          "name": "tokenType",
          "type": "uint8"
        },
        {
          "internalType": "enum IMarket.ListingType",
          "name": "listingType",
          "type": "uint8"
        }
      ],
      "stateMutability": "view",
      "type": "function"
    },
    {
      "inputs": [],
      "name": "marketFeeBps",
      "outputs": [
        {
          "internalType": "uint128",
          "name": "",
          "type": "uint128"
        }
      ],
      "stateMutability": "view",
      "type": "function"
    },
    {
      "inputs": [
        {
          "internalType": "bytes[]",
          "name": "data",
          "type": "bytes[]"
        }
      ],
      "name": "multicall",
      "outputs": [
        {
          "internalType": "bytes[]",
          "name": "results",
          "type": "bytes[]"
        }
      ],
      "stateMutability": "nonpayable",
      "type": "function"
    },
    {
      "inputs": [
        {
          "internalType": "uint256",
          "name": "_listingId",
          "type": "uint256"
        },
        {
          "internalType": "uint256",
          "name": "_quantityWanted",
          "type": "uint256"
        },
        {
          "internalType": "uint256",
          "name": "_totalOfferAmount",
          "type": "uint256"
        }
      ],
      "name": "offer",
      "outputs": [],
      "stateMutability": "nonpayable",
      "type": "function"
    },
    {
      "inputs": [
        {
          "internalType": "uint256",
          "name": "",
          "type": "uint256"
        },
        {
          "internalType": "address",
          "name": "",
          "type": "address"
        }
      ],
      "name": "offers",
      "outputs": [
        {
          "internalType": "uint256",
          "name": "listingId",
          "type": "uint256"
        },
        {
          "internalType": "address",
          "name": "offeror",
          "type": "address"
        },
        {
          "internalType": "uint256",
          "name": "quantityWanted",
          "type": "uint256"
        },
        {
          "internalType": "uint256",
          "name": "offerAmount",
          "type": "uint256"
        }
      ],
      "stateMutability": "view",
      "type": "function"
    },
    {
      "inputs": [
        {
          "internalType": "address",
          "name": "",
          "type": "address"
        },
        {
          "internalType": "address",
          "name": "",
          "type": "address"
        },
        {
          "internalType": "uint256[]",
          "name": "",
          "type": "uint256[]"
        },
        {
          "internalType": "uint256[]",
          "name": "",
          "type": "uint256[]"
        },
        {
          "internalType": "bytes",
          "name": "",
          "type": "bytes"
        }
      ],
      "name": "onERC1155BatchReceived",
      "outputs": [
        {
          "internalType": "bytes4",
          "name": "",
          "type": "bytes4"
        }
      ],
      "stateMutability": "nonpayable",
      "type": "function"
    },
    {
      "inputs": [
        {
          "internalType": "address",
          "name": "",
          "type": "address"
        },
        {
          "internalType": "address",
          "name": "",
          "type": "address"
        },
        {
          "internalType": "uint256",
          "name": "",
          "type": "uint256"
        },
        {
          "internalType": "uint256",
          "name": "",
          "type": "uint256"
        },
        {
          "internalType": "bytes",
          "name": "",
          "type": "bytes"
        }
      ],
      "name": "onERC1155Received",
      "outputs": [
        {
          "internalType": "bytes4",
          "name": "",
          "type": "bytes4"
        }
      ],
      "stateMutability": "nonpayable",
      "type": "function"
    },
    {
      "inputs": [
        {
          "internalType": "address",
          "name": "",
          "type": "address"
        },
        {
          "internalType": "address",
          "name": "",
          "type": "address"
        },
        {
          "internalType": "uint256",
          "name": "",
          "type": "uint256"
        },
        {
          "internalType": "bytes",
          "name": "",
          "type": "bytes"
        }
      ],
      "name": "onERC721Received",
      "outputs": [
        {
          "internalType": "bytes4",
          "name": "",
          "type": "bytes4"
        }
      ],
      "stateMutability": "pure",
      "type": "function"
    },
    {
      "inputs": [
        {
          "internalType": "bytes32",
          "name": "role",
          "type": "bytes32"
        },
        {
          "internalType": "address",
          "name": "account",
          "type": "address"
        }
      ],
      "name": "renounceRole",
      "outputs": [],
      "stateMutability": "nonpayable",
      "type": "function"
    },
    {
      "inputs": [],
      "name": "restrictedListerRoleOnly",
      "outputs": [
        {
          "internalType": "bool",
          "name": "",
          "type": "bool"
        }
      ],
      "stateMutability": "view",
      "type": "function"
    },
    {
      "inputs": [
        {
          "internalType": "bytes32",
          "name": "role",
          "type": "bytes32"
        },
        {
          "internalType": "address",
          "name": "account",
          "type": "address"
        }
      ],
      "name": "revokeRole",
      "outputs": [],
      "stateMutability": "nonpayable",
      "type": "function"
    },
    {
      "inputs": [
        {
          "internalType": "uint256",
          "name": "_timeBuffer",
          "type": "uint256"
        },
        {
          "internalType": "uint256",
          "name": "_bidBufferBps",
          "type": "uint256"
        }
      ],
      "name": "setAuctionBuffers",
      "outputs": [],
      "stateMutability": "nonpayable",
      "type": "function"
    },
    {
      "inputs": [
        {
          "internalType": "string",
          "name": "_uri",
          "type": "string"
        }
      ],
      "name": "setContractURI",
      "outputs": [],
      "stateMutability": "nonpayable",
      "type": "function"
    },
    {
      "inputs": [
        {
          "internalType": "uint128",
          "name": "feeBps",
          "type": "uint128"
        }
      ],
      "name": "setMarketFeeBps",
      "outputs": [],
      "stateMutability": "nonpayable",
      "type": "function"
    },
    {
      "inputs": [
        {
          "internalType": "bool",
          "name": "restricted",
          "type": "bool"
        }
      ],
      "name": "setRestrictedListerRoleOnly",
      "outputs": [],
      "stateMutability": "nonpayable",
      "type": "function"
    },
    {
      "inputs": [
        {
          "internalType": "bytes4",
          "name": "interfaceId",
          "type": "bytes4"
        }
      ],
      "name": "supportsInterface",
      "outputs": [
        {
          "internalType": "bool",
          "name": "",
          "type": "bool"
        }
      ],
      "stateMutability": "view",
      "type": "function"
    },
    {
      "inputs": [],
      "name": "timeBuffer",
      "outputs": [
        {
          "internalType": "uint256",
          "name": "",
          "type": "uint256"
        }
      ],
      "stateMutability": "view",
      "type": "function"
    },
    {
      "inputs": [],
      "name": "totalListings",
      "outputs": [
        {
          "internalType": "uint256",
          "name": "",
          "type": "uint256"
        }
      ],
      "stateMutability": "view",
      "type": "function"
    },
    {
      "inputs": [
        {
          "internalType": "uint256",
          "name": "",
          "type": "uint256"
        }
      ],
      "name": "winningBid",
      "outputs": [
        {
          "internalType": "uint256",
          "name": "listingId",
          "type": "uint256"
        },
        {
          "internalType": "address",
          "name": "offeror",
          "type": "address"
        },
        {
          "internalType": "uint256",
          "name": "quantityWanted",
          "type": "uint256"
        },
        {
          "internalType": "uint256",
          "name": "offerAmount",
          "type": "uint256"
        }
      ],
      "stateMutability": "view",
      "type": "function"
    }
  ],
  "bytecode": "0x60806040526103846008556101f46009553480156200001d57600080fd5b506040516200601138038062006011833981016040819052620000409162000345565b6001600255600380546001600160a01b0319166001600160a01b0384161790558051620000759060069060208401906200029f565b50600480546001600160a01b0319166001600160a01b038516179055620000a76000620000a1620000df565b620000fb565b620000d67ff94103142c1baabe9ac2b5d1487bf783de9e69cfeea9a72f5c9c94afd7877b8c620000a1620000df565b505050620004b5565b6000620000f66200013e60201b62002e881760201c565b905090565b6200011282826200017760201b62002eb51760201c565b60008281526001602090815260409091206200013991839062002ec362000187821b17901c565b505050565b6003546000906001600160a01b031633141562000162575060131936013560601c90565b620000f6620001a760201b62002ed81760201c565b620001838282620001ab565b5050565b60006200019e836001600160a01b0384166200024d565b90505b92915050565b3390565b6000828152602081815260408083206001600160a01b038516845290915290205460ff1662000183576000828152602081815260408083206001600160a01b03851684529091529020805460ff1916600117905562000209620000df565b6001600160a01b0316816001600160a01b0316837f2f8788117e7eff1d82e926ec794901d17c78024a50270940304540a733656f0d60405160405180910390a45050565b60008181526001830160205260408120546200029657508154600181810184556000848152602080822090930184905584548482528286019093526040902091909155620001a1565b506000620001a1565b828054620002ad9062000449565b90600052602060002090601f016020900481019282620002d157600085556200031c565b82601f10620002ec57805160ff19168380011785556200031c565b828001600101855582156200031c579182015b828111156200031c578251825591602001919060010190620002ff565b506200032a9291506200032e565b5090565b5b808211156200032a57600081556001016200032f565b6000806000606084860312156200035a578283fd5b835162000367816200049c565b809350506020808501516200037c816200049c565b60408601519093506001600160401b038082111562000399578384fd5b818701915087601f830112620003ad578384fd5b815181811115620003c257620003c262000486565b604051601f8201601f19908116603f01168101908382118183101715620003ed57620003ed62000486565b816040528281528a8684870101111562000405578687fd5b8693505b8284101562000428578484018601518185018701529285019262000409565b828411156200043957868684830101525b8096505050505050509250925092565b600181811c908216806200045e57607f821691505b602082108114156200048057634e487b7160e01b600052602260045260246000fd5b50919050565b634e487b7160e01b600052604160045260246000fd5b6001600160a01b0381168114620004b257600080fd5b50565b615b4c80620004c56000396000f3fe608060405234801561001057600080fd5b50600436106102775760003560e01c8063938e3d7b11610160578063d4ac9b8c116100d8578063e8a3d4851161008c578063ebdfbce511610071578063ebdfbce5146106b8578063ec91f2a414610702578063f23a6e611461070b57600080fd5b8063e8a3d4851461069d578063ea0e0241146106a557600080fd5b8063d6febde8116100bd578063d6febde8146105c3578063de74e57b146105d6578063deb26b941461067657600080fd5b8063d4ac9b8c14610549578063d547741f146105b057600080fd5b8063c0e727401161012f578063c78b616c11610114578063c78b616c1461051a578063ca15c87314610523578063d1e42ec01461053657600080fd5b8063c0e72740146104f2578063c24afe4e1461050757600080fd5b8063938e3d7b14610498578063a217fddf146104ab578063ac9650d8146104b3578063bc197c81146104d357600080fd5b806336568abe116101f357806361096ec6116101c25780639010d07c116101a75780639010d07c14610423578063918d407d1461044e57806391d148541461046157600080fd5b806361096ec61461040357806380cd24641461041057600080fd5b806336568abe1461039a5780633f5c3e87146103ad5780634e03f28d146103d8578063572b6c05146103e157600080fd5b806320c7852c1161024a578063248a9ca31161022f578063248a9ca3146103515780632f2ff15d14610374578063354c7ab61461038757600080fd5b806320c7852c14610305578063236ed8f31461033e57600080fd5b806301ffc9a71461027c57806309679b39146102a4578063107a274a146102b9578063150b7a02146102d9575b600080fd5b61028f61028a3660046153b1565b61072a565b60405190151581526020015b60405180910390f35b6102b76102b23660046154b0565b61077c565b005b6102cc6102c7366004615331565b610854565b60405161029b9190615814565b6102ec6102e7366004615184565b6109a1565b6040516001600160e01b0319909116815260200161029b565b610330610313366004615361565b600e60209081526000928352604080842090915290825290205481565b60405190815260200161029b565b6102b761034c366004615331565b6109b3565b61033061035f366004615331565b60009081526020819052604090206001015490565b6102b7610382366004615361565b61119f565b6102b76103953660046152f9565b6111c6565b6102b76103a8366004615361565b61127c565b6007546103c0906001600160801b031681565b6040516001600160801b03909116815260200161029b565b61033060095481565b61028f6103ef3660046150a2565b6003546001600160a01b0391821691161490565b600a5461028f9060ff1681565b6102b761041e3660046154e8565b61129e565b610436610431366004615390565b61164c565b6040516001600160a01b03909116815260200161029b565b6102b761045c366004615361565b61166b565b61028f61046f366004615361565b6000918252602082815260408084206001600160a01b0393909316845291905290205460ff1690565b6102b76104a63660046153d9565b611ae3565b610330600081565b6104c66104c1366004615289565b611c6a565b60405161029b91906157a0565b6102ec6104e13660046150da565b63bc197c8160e01b95945050505050565b6104fa611d89565b60405161029b9190615801565b6102b7610515366004615513565b611e17565b61033060055481565b610330610531366004615331565b61239d565b6102b7610544366004615419565b6123b4565b610588610557366004615331565b600d60205260009081526040902080546001820154600283015460039093015491926001600160a01b039091169184565b604080519485526001600160a01b03909316602085015291830152606082015260800161029b565b6102b76105be366004615361565b612845565b6102b76105d1366004615390565b61284f565b61065d6105e4366004615331565b600b60208190526000918252604090912080546001820154600283015460038401546004850154600586015460068701546007880154600889015460098a0154600a8b01549a909b0154989a6001600160a01b039889169a97891699969895979496939590921693909260ff808216916101009004168d565b60405161029b9d9c9b9a99989796959493929190615860565b6103307ff94103142c1baabe9ac2b5d1487bf783de9e69cfeea9a72f5c9c94afd7877b8c81565b6104fa612c69565b6102b76106b3366004615390565b612cfb565b6105886106c6366004615361565b600c602090815260009283526040808420909152908252902080546001820154600283015460039093015491926001600160a01b039091169184565b61033060085481565b6102ec6107193660046151f5565b63f23a6e6160e01b95945050505050565b60006001600160e01b03198216630271189760e51b148061075b57506001600160e01b03198216630a85bd0160e11b145b8061077657506001600160e01b0319821663152a902d60e11b145b92915050565b610789600061046f612edc565b6107f65760405162461bcd60e51b815260206004820152603360248201527f4d61726b65743a206f6e6c792061206d6f64756c652061646d696e2063616e2060448201527231b0b636103a3434b990333ab731ba34b7b71760691b60648201526084015b60405180910390fd5b600780546fffffffffffffffffffffffffffffffff19166001600160801b0383169081179091556040519081527fd50e64e6eb05cd7ceafe1a28b1a7ad949edb90451106259c7117252d605178ef906020015b60405180910390a150565b61085c614e19565b6000828152600b602081815260409283902083516101a081018552815481526001808301546001600160a01b039081169483019490945260028301548416958201959095526003820154606082015260048201546080820152600582015460a0820152600682015460c0820152600782015490921660e083015260088101546101008301526009810154610120830152600a81015461014083015291820154909261016084019160ff169081111561092457634e487b7160e01b600052602160045260246000fd5b600181111561094357634e487b7160e01b600052602160045260246000fd5b8152602001600b820160019054906101000a900460ff16600181111561097957634e487b7160e01b600052602160045260246000fd5b600181111561099857634e487b7160e01b600052602160045260246000fd5b90525092915050565b630a85bd0160e11b5b95945050505050565b6000818152600b6020818152604080842081516101a081018352815481526001808301546001600160a01b039081169583019590955260028301548516938201939093526003820154606082015260048201546080820152600582015460a0820152600682015460c0820152600782015490931660e084015260088101546101008401526009810154610120840152600a8101546101408401529283015491929161016084019160ff90911690811115610a7d57634e487b7160e01b600052602160045260246000fd5b6001811115610a9c57634e487b7160e01b600052602160045260246000fd5b8152602001600b820160019054906101000a900460ff166001811115610ad257634e487b7160e01b600052602160045260246000fd5b6001811115610af157634e487b7160e01b600052602160045260246000fd5b9052506000838152600d6020908152604080832081516080810183528154815260018201546001600160a01b031693810193909352600281015491830191909152600301546060820152919250610b46612edc565b90504283608001511115610d5c576000848152600b60205260409020600101546001600160a01b03828116911614610bd55760405162461bcd60e51b815260206004820152602c60248201527f4d61726b65743a2063616c6c657220646f6573206e6f7420746865206c69737460448201526b34b7339031b932b0ba37b91760a11b60648201526084016107ed565b600060c08401818152858252600b60208181526040938490208751815590870151600180830180546001600160a01b03199081166001600160a01b0394851617909155958901516002840180548816918416919091179055606089015160038401556080890151600484015560a089015160058401559351600683015560e088015160078301805490961691161790935561010086015160088401556101208601516009840155610140860151600a840155610160860151908301805487949360ff19909116908381811115610cbb57634e487b7160e01b600052602160045260246000fd5b0217905550610180820151600b8201805461ff001916610100836001811115610cf457634e487b7160e01b600052602160045260246000fd5b0217905550905050610d103084602001518560c0015186612ee6565b82602001516001600160a01b0316847f8b8c78dbb114fabd551e84de4546a68891b5f7a217a98e3f2fe7adb18519959b85604051610d4e9190615814565b60405180910390a350505050565b82602001516001600160a01b0316816001600160a01b03161480610d95575081602001516001600160a01b0316816001600160a01b0316145b610e075760405162461bcd60e51b815260206004820152602a60248201527f4d61726b65743a206d75737420626520626964646572206f722061756374696f60448201527f6e2063726561746f722e0000000000000000000000000000000000000000000060648201526084016107ed565b60018361018001516001811115610e2e57634e487b7160e01b600052602160045260246000fd5b14610e865760405162461bcd60e51b815260206004820152602260248201527f4d61726b65743a206c697374696e67206973206e6f7420616e2061756374696f604482015261371760f11b60648201526084016107ed565b428360a0015110610eff5760405162461bcd60e51b815260206004820152603260248201527f4d61726b65743a2063616e206f6e6c7920636c6f73652061756374696f6e206160448201527f667465722069742068617320656e6465642e000000000000000000000000000060648201526084016107ed565b82602001516001600160a01b0316610f15612edc565b6001600160a01b031614156110d05760008360c001518360600151610f3a91906159c4565b600060c08601818152878252600b60208181526040938490208951815590890151600180830180546001600160a01b03199081166001600160a01b0394851617909155958b0151600284018054881691841691909117905560608b0151600384015560808b0151600484015560a08b015160058401559351600683015560e08a015160078301805490961691161790935561010088015160088401556101208801516009840155610140880151600a840155610160880151908301805494955088949192909160ff191690838181111561102457634e487b7160e01b600052602160045260246000fd5b0217905550610180820151600b8201805461ff00191661010083600181111561105d57634e487b7160e01b600052602160045260246000fd5b021790555050600060608501818152878252600d602090815260409283902087518155818801516001820180546001600160a01b0319166001600160a01b0390921691909117905592870151600284015590516003909201919091558501516110ca915030908387613058565b50611157565b81602001516001600160a01b03166110e6612edc565b6001600160a01b0316141561115757604082810180516000808352878152600d602090815293902085518155928501516001840180546001600160a01b0319166001600160a01b0383161790559151600284015560608501516003909301929092556111559030908387612ee6565b505b806001600160a01b0316847f42bdf1b5daec205081fa6758882be4b9c6633d2b16ea489d1c36cddfd46d7cab856020015185602001518688604051610d4e9493929190615716565b6111a9828261358a565b60008281526001602052604090206111c19082612ec3565b505050565b6111d3600061046f612edc565b61123b5760405162461bcd60e51b815260206004820152603360248201527f4d61726b65743a206f6e6c792061206d6f64756c652061646d696e2063616e2060448201527231b0b636103a3434b990333ab731ba34b7b71760691b60648201526084016107ed565b600a805460ff19168215159081179091556040519081527f56668abce4c06e28f52176150c07856e31ee073b9b62df62a5afbf1a22aec24c90602001610849565b61128682826135b7565b60008281526001602052604090206111c1908261364f565b826005548111156112f15760405162461bcd60e51b815260206004820152601f60248201527f4d61726b65743a206c697374696e6720646f6573206e6f742065786973742e0060448201526064016107ed565b6000848152600b6020818152604080842081516101a081018352815481526001808301546001600160a01b039081169583019590955260028301548516938201939093526003820154606082015260048201546080820152600582015460a0820152600682015460c0820152600782015490931660e084015260088101546101008401526009810154610120840152600a8101546101408401529283015491929161016084019160ff909116908111156113bb57634e487b7160e01b600052602160045260246000fd5b60018111156113da57634e487b7160e01b600052602160045260246000fd5b8152602001600b820160019054906101000a900460ff16600181111561141057634e487b7160e01b600052602160045260246000fd5b600181111561142f57634e487b7160e01b600052602160045260246000fd5b90525090506001816101800151600181111561145b57634e487b7160e01b600052602160045260246000fd5b14156114e957428160a001511180156114775750428160800151105b6114e95760405162461bcd60e51b815260206004820152602f60248201527f4d61726b65743a2063616e206f6e6c79206d616b65206269647320696e20617560448201527f6374696f6e206475726174696f6e2e000000000000000000000000000000000060648201526084016107ed565b60006114f3612edc565b905060006001836101800151600181111561151e57634e487b7160e01b600052602160045260246000fd5b146115375761153283610160015187613664565b61154a565b61154a8361016001518460c00151613664565b905061155b828460e00151876136a9565b604080516080810182528881526001600160a01b038481166020808401828152848601878152606086018c815260008f8152600c8552888120868252909452928790208651815591516001830180546001600160a01b03191691909616179094559251600284015551600390920191909155915190919089907f325ebd560da99b6ec57c8698998d68ddf274d0b921541d5b702974d58ca87992906116039085908990615823565b60405180910390a36001846101800151600181111561163257634e487b7160e01b600052602160045260246000fd5b1415611642576116428482613825565b5050505050505050565b60008281526001602052604081206116649083613b3f565b9392505050565b81611674612edc565b6000828152600b60205260409020600101546001600160a01b039081169116146116f55760405162461bcd60e51b815260206004820152602c60248201527f4d61726b65743a2063616c6c657220646f6573206e6f7420746865206c69737460448201526b34b7339031b932b0ba37b91760a11b60648201526084016107ed565b6000838152600c602090815260408083206001600160a01b03808716855290835281842082516080808201855282548252600180840154851683880152600280850154848801526003948501546060808601919091528c8a52600b808a52888b2089516101a081018b5281548152818601548a169b81019b909b52928301548816988a01989098529481015494880194909452600484015491870191909152600583015460a0870152600683015460c0870152600783015490931660e086015260088201546101008601526009820154610120860152600a8201546101408601529281015492949392909161016084019160ff169081111561180757634e487b7160e01b600052602160045260246000fd5b600181111561182657634e487b7160e01b600052602160045260246000fd5b8152602001600b820160019054906101000a900460ff16600181111561185c57634e487b7160e01b600052602160045260246000fd5b600181111561187b57634e487b7160e01b600052602160045260246000fd5b8152505090506118a38160200151826040015183606001518560400151856101600151613b4b565b6119085760405162461bcd60e51b815260206004820152603060248201527f4d61726b65743a206d757374206f776e20616e6420617070726f766520746f2060448201526f3a3930b739b332b9103a37b5b2b7399760811b60648201526084016107ed565b81604001518160c00181815161191e91906159e3565b9052506000858152600b60208181526040928390208451815590840151600180830180546001600160a01b03199081166001600160a01b0394851617909155948601516002840180548716918416919091179055606086015160038401556080860151600484015560a0860151600584015560c0860151600684015560e086015160078401805490961692169190911790935561010084015160088201556101208401516009820155610140840151600a8201556101608401519181018054859492939260ff19909116908381811115611a0857634e487b7160e01b600052602160045260246000fd5b0217905550610180820151600b8201805461ff001916610100836001811115611a4157634e487b7160e01b600052602160045260246000fd5b0217905550905050611a6c84826020015184604001518560600151611a6691906159c4565b84613058565b611a80816020015185846040015184612ee6565b8481602001516001600160a01b031682604001516001600160a01b03167f13f347bec00b07d4fa8ffa656bbcb29bd18e63fd4621925b71f60ff36c6425c987866040015186604051611ad493929190615773565b60405180910390a45050505050565b600480546040805163a217fddf60e01b815290516001600160a01b03909216926391d1485492849263a217fddf9281810192602092909190829003018186803b158015611b2f57600080fd5b505afa158015611b43573d6000803e3d6000fd5b505050506040513d601f19601f82011682018060405250810190611b679190615349565b611b6f612edc565b6040516001600160e01b031960e085901b16815260048101929092526001600160a01b0316602482015260440160206040518083038186803b158015611bb457600080fd5b505afa158015611bc8573d6000803e3d6000fd5b505050506040513d601f19601f82011682018060405250810190611bec9190615315565b611c5e5760405162461bcd60e51b815260206004820152603560248201527f4d61726b65743a206f6e6c7920612070726f746f636f6c2061646d696e20636160448201527f6e2063616c6c20746869732066756e6374696f6e2e000000000000000000000060648201526084016107ed565b6111c160068383614eba565b60608167ffffffffffffffff811115611c9357634e487b7160e01b600052604160045260246000fd5b604051908082528060200260200182016040528015611cc657816020015b6060815260200190600190039081611cb15790505b50905060005b82811015611d8257611d4430858584818110611cf857634e487b7160e01b600052603260045260246000fd5b9050602002810190611d0a91906158ec565b8080601f016020809104026020016040519081016040528093929190818152602001838380828437600092019190915250613e5892505050565b828281518110611d6457634e487b7160e01b600052603260045260246000fd5b60200260200101819052508080611d7a90615a78565b915050611ccc565b5092915050565b60068054611d9690615a3d565b80601f0160208091040260200160405190810160405280929190818152602001828054611dc290615a3d565b8015611e0f5780601f10611de457610100808354040283529160200191611e0f565b820191906000526020600020905b815481529060010190602001808311611df257829003601f168201915b505050505081565b87600554811115611e6a5760405162461bcd60e51b815260206004820152601f60248201527f4d61726b65743a206c697374696e6720646f6573206e6f742065786973742e0060448201526064016107ed565b88611e73612edc565b6000828152600b60205260409020600101546001600160a01b03908116911614611ef45760405162461bcd60e51b815260206004820152602c60248201527f4d61726b65743a2063616c6c657220646f6573206e6f7420746865206c69737460448201526b34b7339031b932b0ba37b91760a11b60648201526084016107ed565b60008a8152600b6020818152604080842081516101a081018352815481526001808301546001600160a01b039081169583019590955260028301548516938201939093526003820154606082015260048201546080820152600582015460a0820152600682015460c0820152600782015490931660e084015260088101546101008401526009810154610120840152600a8101546101408401529283015491929161016084019160ff90911690811115611fbe57634e487b7160e01b600052602160045260246000fd5b6001811115611fdd57634e487b7160e01b600052602160045260246000fd5b8152602001600b820160019054906101000a900460ff16600181111561201357634e487b7160e01b600052602160045260246000fd5b600181111561203257634e487b7160e01b600052602160045260246000fd5b81525050905060006120498261016001518c613664565b6001600160a01b03881660e08401529050851561206f5761206a864261598c565b612075565b81608001515b6080830152841561208f5761208a854261598c565b612095565b8160a001515b60a083015260c08201518b14612130576120c382602001518360400151846060015184866101600151613b4b565b6121285760405162461bcd60e51b815260206004820152603060248201527f4d61726b65743a206d757374206f776e20616e6420617070726f766520746f2060448201526f3a3930b739b332b9103a37b5b2b7399760811b60648201526084016107ed565b60c082018190525b6001826101800151600181111561215757634e487b7160e01b600052602160045260246000fd5b14156121eb57428260800151106121d65760405162461bcd60e51b815260206004820152602860248201527f4d61726b65743a2063616e6e6f7420656469742061756374696f6e206166746560448201527f722073746172742e00000000000000000000000000000000000000000000000060648201526084016107ed565b61010082018a90526101208201899052612221565b6000826101800151600181111561221257634e487b7160e01b600052602160045260246000fd5b14156122215761014082018890525b60008c8152600b60208181526040928390208551815590850151600180830180546001600160a01b03199081166001600160a01b0394851617909155948701516002840180548716918416919091179055606087015160038401556080870151600484015560a0870151600584015560c0870151600684015560e087015160078401805490961692169190911790935561010085015160088201556101208501516009820155610140850151600a8201556101608501519181018054869492939260ff1990911690838181111561230857634e487b7160e01b600052602160045260246000fd5b0217905550610180820151600b8201805461ff00191661010083600181111561234157634e487b7160e01b600052602160045260246000fd5b02179055509050508b82602001516001600160a01b03167f9897b5e6dd37a61b6f078227f64ef9c4d6744428f9ab322e9d3160c1a3960464846040516123879190615814565b60405180910390a3505050505050505050505050565b600081815260016020526040812061077690613e7d565b600a5460ff1615806123ed57506123ed7ff94103142c1baabe9ac2b5d1487bf783de9e69cfeea9a72f5c9c94afd7877b8c61046f612edc565b61245f5760405162461bcd60e51b815260206004820152602d60248201527f4d61726b65743a206f6e6c792061206c69737465722063616e2063616c6c207460448201527f6869732066756e6374696f6e2e0000000000000000000000000000000000000060648201526084016107ed565b6000612469613e87565b90506000612475612edc565b905060006124868460000151613ea5565b905060008085610120015160018111156124b057634e487b7160e01b600052602160045260246000fd5b14156124d6576124cf8386600001518760200151886080015186613b4b565b905061251f565b600185610120015160018111156124fd57634e487b7160e01b600052602160045260246000fd5b141561251f5761251c8386600001518760200151886080015186614031565b90505b808015612530575060008560800151115b6125955760405162461bcd60e51b815260206004820152603060248201527f4d61726b65743a206d757374206f776e20616e6420617070726f766520746f2060448201526f3a3930b739b332b9103a37b5b2b7399760811b60648201526084016107ed565b6000604051806101a00160405280868152602001856001600160a01b0316815260200187600001516001600160a01b03168152602001876020015181526020018760400151426125e5919061598c565b8152602001876060015160001461260a576060880151612605904261598c565b61260e565b6000195b8152602001612621858960800151613664565b81526020018760a001516001600160a01b031681526020018760c0015181526020018760e0015181526020018761010001516000146126655787610100015161266b565b87608001515b815260200184600181111561269057634e487b7160e01b600052602160045260246000fd5b815260200187610120015160018111156126ba57634e487b7160e01b600052602160045260246000fd5b90526000868152600b60208181526040928390208451815590840151600180830180546001600160a01b03199081166001600160a01b0394851617909155948601516002840180548716918416919091179055606086015160038401556080860151600484015560a0860151600584015560c0860151600684015560e086015160078401805490961692169190911790935561010084015160088201556101208401516009820155610140840151600a820155610160840151918101805494955085949193909160ff19169083818111156127a557634e487b7160e01b600052602160045260246000fd5b0217905550610180820151600b8201805461ff0019166101008360018111156127de57634e487b7160e01b600052602160045260246000fd5b0217905550905050846127ef612edc565b6001600160a01b031687600001516001600160a01b03167fbd4ad658f54c65cfbfb4961c722cac4e1bc357eaabbd6ad51273e752a4481916846040516128359190615814565b60405180910390a4505050505050565b611286828261419f565b816005548111156128a25760405162461bcd60e51b815260206004820152601f60248201527f4d61726b65743a206c697374696e6720646f6573206e6f742065786973742e0060448201526064016107ed565b6002805414156128f45760405162461bcd60e51b815260206004820152601f60248201527f5265656e7472616e637947756172643a207265656e7472616e742063616c6c0060448201526064016107ed565b60028080556000848152600b6020818152604080842081516101a081018352815481526001808301546001600160a01b0390811695830195909552968201548416928101929092526003810154606083015260048101546080830152600581015460a0830152600681015460c0830152600781015490921660e082015260088201546101008201526009820154610120820152600a8201546101408201529181015492939192909161016084019160ff16908111156129c357634e487b7160e01b600052602160045260246000fd5b60018111156129e257634e487b7160e01b600052602160045260246000fd5b8152602001600b820160019054906101000a900460ff166001811115612a1857634e487b7160e01b600052602160045260246000fd5b6001811115612a3757634e487b7160e01b600052602160045260246000fd5b90525090506000612a46612edc565b9050612a538282866141c7565b838260c001818151612a6591906159e3565b9052506000858152600b60208181526040928390208551815590850151600180830180546001600160a01b03199081166001600160a01b0394851617909155948701516002840180548716918416919091179055606087015160038401556080870151600484015560a0870151600584015560c0870151600684015560e087015160078401805490961692169190911790935561010085015160088201556101208501516009820155610140850151600a8201556101608501519181018054869492939260ff19909116908381811115612b4f57634e487b7160e01b600052602160045260246000fd5b0217905550610180820151600b8201805461ff001916610100836001811115612b8857634e487b7160e01b600052602160045260246000fd5b021790555050506000858152600e602090815260408083206001600160a01b038516845290915281208054869290612bc190849061598c565b909155505061012082015115612bf157612bf181836020015186856101200151612beb91906159c4565b85613058565b612c018260200151828685612ee6565b816000015182602001516001600160a01b031683604001516001600160a01b03167f13f347bec00b07d4fa8ffa656bbcb29bd18e63fd4621925b71f60ff36c6425c9848887604051612c5593929190615773565b60405180910390a450506001600255505050565b606060068054612c7890615a3d565b80601f0160208091040260200160405190810160405280929190818152602001828054612ca490615a3d565b8015612cf15780601f10612cc657610100808354040283529160200191612cf1565b820191906000526020600020905b815481529060010190602001808311612cd457829003601f168201915b5050505050905090565b612d08600061046f612edc565b612d705760405162461bcd60e51b815260206004820152603360248201527f4d61726b65743a206f6e6c792061206d6f64756c652061646d696e2063616e2060448201527231b0b636103a3434b990333ab731ba34b7b71760691b60648201526084016107ed565b600480546040805163fd967f4760e01b815290516001600160a01b039092169263fd967f47928282019260209290829003018186803b158015612db257600080fd5b505afa158015612dc6573d6000803e3d6000fd5b505050506040513d601f19601f82011682018060405250810190612dea91906154cc565b6001600160801b03168110612e415760405162461bcd60e51b815260206004820152601f60248201527f4d61726b65743a20696e76616c69642062696420627566666572204250532e0060448201526064016107ed565b6008829055600981905560408051838152602081018390527f441ed6470e96704c3f8c9e70c209107078aab3f17311385e886081b91aa75088910160405180910390a15050565b6003546000906001600160a01b0316331415612eab575060131936013560601c90565b503390565b905090565b612ebf82826144cd565b5050565b6000611664836001600160a01b03841661456c565b3390565b6000612eb0612e88565b60008161016001516001811115612f0d57634e487b7160e01b600052602160045260246000fd5b1415612fa25760408082015160608301519151637921219560e11b81526001600160a01b038781166004830152868116602483015260448201939093526064810185905260a06084820152600060a482015291169063f242432a9060c401600060405180830381600087803b158015612f8557600080fd5b505af1158015612f99573d6000803e3d6000fd5b50505050613052565b60018161016001516001811115612fc957634e487b7160e01b600052602160045260246000fd5b141561305257604080820151602083015160608401519251635c46a7ef60e11b81526001600160a01b039182166004820152868216602482015260448101939093526080606484015260006084840152169063b88d4fde9060a401600060405180830381600087803b15801561303e57600080fd5b505af1158015611642573d6000803e3d6000fd5b50505050565b600480546040805163fd967f4760e01b8152905160009384936001600160a01b03169263fd967f479281830192602092829003018186803b15801561309c57600080fd5b505afa1580156130b0573d6000803e3d6000fd5b505050506040513d601f19601f820116820180604052508101906130d491906154cc565b6007546001600160801b03918216916130ee9116866159c4565b6130f891906159a4565b60e08401516004805460405163f2aab4b360e01b815230928101929092529293506001600160a01b03918216926323b872dd928a9291169063f2aab4b39060240160206040518083038186803b15801561315157600080fd5b505afa158015613165573d6000803e3d6000fd5b505050506040513d601f19601f8201168201806040525081019061318991906150be565b6040516001600160e01b031960e085901b1681526001600160a01b0392831660048201529116602482015260448101849052606401602060405180830381600087803b1580156131d857600080fd5b505af11580156131ec573d6000803e3d6000fd5b505050506040513d601f19601f820116820180604052508101906132109190615315565b9150600061321e82866159e3565b60408086015190516301ffc9a760e01b815263152a902d60e11b60048201529192506001600160a01b0316906301ffc9a79060240160206040518083038186803b15801561326b57600080fd5b505afa15801561327f573d6000803e3d6000fd5b505050506040513d601f19601f820116820180604052508101906132a39190615315565b1561347c5760008085604001516001600160a01b0316632a55205a8760600151896040518363ffffffff1660e01b81526004016132ea929190918252602082015260400190565b604080518083038186803b15801561330157600080fd5b505afa158015613315573d6000803e3d6000fd5b505050506040513d601f19601f82011682018060405250810190613339919061525c565b90925090506001600160a01b038216158015906133565750600081115b156134795786613366858361598c565b11156133da5760405162461bcd60e51b815260206004820152602b60248201527f4d61726b65743a20546f74616c206d61726b657420666565732065786365656460448201527f207468652070726963652e00000000000000000000000000000000000000000060648201526084016107ed565b6133e481846159e3565b60e08701516040516323b872dd60e01b81526001600160a01b038c811660048301528581166024830152604482018590529295509116906323b872dd90606401602060405180830381600087803b15801561343e57600080fd5b505af1158015613452573d6000803e3d6000fd5b505050506040513d601f19601f820116820180604052508101906134769190615315565b94505b50505b60e08401516040516323b872dd60e01b81526001600160a01b038981166004830152888116602483015260448201849052909116906323b872dd90606401602060405180830381600087803b1580156134d457600080fd5b505af11580156134e8573d6000803e3d6000fd5b505050506040513d601f19601f8201168201806040525081019061350c9190615315565b9250826135815760405162461bcd60e51b815260206004820152602660248201527f4d61726b65743a206661696c656420746f207061796f7574207374616b65686f60448201527f6c646572732e000000000000000000000000000000000000000000000000000060648201526084016107ed565b50505050505050565b6000828152602081905260409020600101546135ad816135a8612edc565b6145bb565b6111c183836144cd565b6135bf612edc565b6001600160a01b0316816001600160a01b0316146136455760405162461bcd60e51b815260206004820152602f60248201527f416363657373436f6e74726f6c3a2063616e206f6e6c792072656e6f756e636560448201527f20726f6c657320666f722073656c66000000000000000000000000000000000060648201526084016107ed565b612ebf8282614639565b6000611664836001600160a01b0384166146d6565b60008161367357506000610776565b600183600181111561369557634e487b7160e01b600052602160045260246000fd5b146136a05781611664565b50600192915050565b6040516370a0823160e01b81526001600160a01b0384811660048301528291908416906370a082319060240160206040518083038186803b1580156136ed57600080fd5b505afa158015613701573d6000803e3d6000fd5b505050506040513d601f19601f820116820180604052508101906137259190615349565b101580156137b35750604051636eb1769f60e11b81526001600160a01b03848116600483015230602483015282919084169063dd62ed3e9060440160206040518083038186803b15801561377857600080fd5b505afa15801561378c573d6000803e3d6000fd5b505050506040513d601f19601f820116820180604052508101906137b09190615349565b10155b6111c15760405162461bcd60e51b815260206004820152603960248201527f4d61726b65743a206d757374206f776e20616e6420617070726f7665204d617260448201527f6b657420746f207472616e736665722063757272656e63792e0000000000000060648201526084016107ed565b81516000908152600d602090815260409182902082516080810184528154815260018201546001600160a01b031692810192909252600281015492820192909252600390910154606080830182905283015161388191906147f3565b156111c157602081015160609091015160085460a085015184939291906138a99042906159e3565b116138c6576008548560a0018181516138c2919061598c565b9052505b84516000908152600b60208181526040928390208851815590880151600180830180546001600160a01b03199081166001600160a01b0394851617909155948a0151600284018054871691841691909117905560608a0151600384015560808a0151600484015560a08a0151600584015560c08a0151600684015560e08a015160078401805490961692169190911790935561010088015160088201556101208801516009820155610140880151600a8201556101608801519181018054899492939260ff199091169083818111156139af57634e487b7160e01b600052602160045260246000fd5b0217905550610180820151600b8201805461ff0019166101008360018111156139e857634e487b7160e01b600052602160045260246000fd5b02179055505085516000908152600d602090815260409182902086518155868201516001820180546001600160a01b0319166001600160a01b0390921691909117905591860151600283015560608087015160039093019290925560e08801519087015191870151613a5d93509091906148b9565b60e08501516040516323b872dd60e01b81523060048201526001600160a01b03848116602483015260448201849052909116906323b872dd90606401602060405180830381600087803b158015613ab357600080fd5b505af1158015613ac7573d6000803e3d6000fd5b505050506040513d601f19601f82011682018060405250810190613aeb9190615315565b5083602001516001600160a01b031685600001517f4aebf4dd6dc586d8e61e80b74856628c80f4e50926edf340a66ce6b25a760b438588604051613b30929190615823565b60405180910390a35050505050565b60006116648383614ace565b60003081836001811115613b6f57634e487b7160e01b600052602160045260246000fd5b1415613c8757604051627eeac760e11b81526001600160a01b0388811660048301526024820187905285919088169062fdd58e9060440160206040518083038186803b158015613bbe57600080fd5b505afa158015613bd2573d6000803e3d6000fd5b505050506040513d601f19601f82011682018060405250810190613bf69190615349565b10158015613c80575060405163e985e9c560e01b81526001600160a01b038881166004830152828116602483015287169063e985e9c59060440160206040518083038186803b158015613c4857600080fd5b505afa158015613c5c573d6000803e3d6000fd5b505050506040513d601f19601f82011682018060405250810190613c809190615315565b9150613e4e565b6001836001811115613ca957634e487b7160e01b600052602160045260246000fd5b1415613e4e576040516331a9108f60e11b8152600481018690526001600160a01b038089169190881690636352211e9060240160206040518083038186803b158015613cf457600080fd5b505afa158015613d08573d6000803e3d6000fd5b505050506040513d601f19601f82011682018060405250810190613d2c91906150be565b6001600160a01b0316148015613e4b575060405163020604bf60e21b8152600481018690526001600160a01b03808316919088169063081812fc9060240160206040518083038186803b158015613d8257600080fd5b505afa158015613d96573d6000803e3d6000fd5b505050506040513d601f19601f82011682018060405250810190613dba91906150be565b6001600160a01b03161480613e4b575060405163e985e9c560e01b81526001600160a01b038881166004830152828116602483015287169063e985e9c59060440160206040518083038186803b158015613e1357600080fd5b505afa158015613e27573d6000803e3d6000fd5b505050506040513d601f19601f82011682018060405250810190613e4b9190615315565b91505b5095945050505050565b60606116648383604051806060016040528060278152602001615b1960279139614b06565b6000610776825490565b60058054906001906000613e9b838561598c565b9250508190555090565b6040516301ffc9a760e01b8152636cdb3d1360e11b60048201526000906001600160a01b038316906301ffc9a79060240160206040518083038186803b158015613eee57600080fd5b505afa158015613f02573d6000803e3d6000fd5b505050506040513d601f19601f82011682018060405250810190613f269190615315565b15613f3357506000919050565b6040516301ffc9a760e01b81526380ac58cd60e01b60048201526001600160a01b038316906301ffc9a79060240160206040518083038186803b158015613f7957600080fd5b505afa158015613f8d573d6000803e3d6000fd5b505050506040513d601f19601f82011682018060405250810190613fb19190615315565b15613fbe57506001919050565b60405162461bcd60e51b815260206004820152603860248201527f4d61726b65743a20746f6b656e206d75737420696d706c656d656e742065697460448201527f686572204552432031313535206f7220455243203732312e000000000000000060648201526084016107ed565b919050565b6000306140418787878787613b4b565b91508115613e4e57600083600181111561406b57634e487b7160e01b600052602160045260246000fd5b14156140f557604051637921219560e11b81526001600160a01b0388811660048301528281166024830152604482018790526064820186905260a06084830152600060a483015287169063f242432a9060c401600060405180830381600087803b1580156140d857600080fd5b505af11580156140ec573d6000803e3d6000fd5b50505050613e4e565b600183600181111561411757634e487b7160e01b600052602160045260246000fd5b1415613e4e57604051635c46a7ef60e11b81526001600160a01b038881166004830152828116602483015260448201879052608060648301526000608483015287169063b88d4fde9060a401600060405180830381600087803b15801561417d57600080fd5b505af1158015614191573d6000803e3d6000fd5b505050505095945050505050565b6000828152602081905260409020600101546141bd816135a8612edc565b6111c18383614639565b600083610180015160018111156141ee57634e487b7160e01b600052602160045260246000fd5b146142615760405162461bcd60e51b815260206004820152602a60248201527f4d61726b65743a2063616e206f6e6c79206275792066726f6d2064697265637460448201527f206c697374696e67732e0000000000000000000000000000000000000000000060648201526084016107ed565b60008111801561427557508260c001518111155b6142e75760405162461bcd60e51b815260206004820152603160248201527f4d61726b65743a206d7573742062757920616e20617070726f7072696174652060448201527f616d6f756e74206f6620746f6b656e732e00000000000000000000000000000060648201526084016107ed565b8260a0015142111580156142ff575082608001514210155b6143715760405162461bcd60e51b815260206004820152603260248201527f4d61726b65743a207468652073616c652068617320656974686572206e6f742060448201527f73746172746564206f7220636c6f7365642e000000000000000000000000000060648201526084016107ed565b61014083015183516000908152600e602090815260408083206001600160a01b03871684529091529020546143a6908361598c565b111561441a5760405162461bcd60e51b815260206004820152603460248201527f4d61726b65743a2043616e6e6f7420627579206d6f72652066726f6d206c697360448201527f74696e67207468616e207065726d69747465642e00000000000000000000000060648201526084016107ed565b61443c8360200151846040015185606001518660c00151876101600151613b4b565b6144ae5760405162461bcd60e51b815260206004820152602c60248201527f4d61726b65743a2063616e6e6f742062757920746f6b656e732066726f6d207460448201527f686973206c697374696e672e000000000000000000000000000000000000000060648201526084016107ed565b6111c1828460e00151856101200151846144c891906159c4565b6136a9565b6000828152602081815260408083206001600160a01b038516845290915290205460ff16612ebf576000828152602081815260408083206001600160a01b03851684529091529020805460ff19166001179055614528612edc565b6001600160a01b0316816001600160a01b0316837f2f8788117e7eff1d82e926ec794901d17c78024a50270940304540a733656f0d60405160405180910390a45050565b60008181526001830160205260408120546145b357508154600181810184556000848152602080822090930184905584548482528286019093526040902091909155610776565b506000610776565b6000828152602081815260408083206001600160a01b038516845290915290205460ff16612ebf576145f7816001600160a01b03166014614bf1565b614602836020614bf1565b604051602001614613929190615695565b60408051601f198184030181529082905262461bcd60e51b82526107ed91600401615801565b6000828152602081815260408083206001600160a01b038516845290915290205460ff1615612ebf576000828152602081815260408083206001600160a01b03851684529091529020805460ff19169055614692612edc565b6001600160a01b0316816001600160a01b0316837ff6391f5c32d9c69d2a47ea670b442974b53935d1edc7fd64eb21e047a839171b60405160405180910390a45050565b600081815260018301602052604081205480156147e95760006146fa6001836159e3565b855490915060009061470e906001906159e3565b905081811461478f57600086600001828154811061473c57634e487b7160e01b600052603260045260246000fd5b906000526020600020015490508087600001848154811061476d57634e487b7160e01b600052603260045260246000fd5b6000918252602080832090910192909255918252600188019052604090208390555b85548690806147ae57634e487b7160e01b600052603160045260246000fd5b600190038181906000526020600020016000905590558560010160008681526020019081526020016000206000905560019350505050610776565b6000915050610776565b60008282118015611664575060095483600460009054906101000a90046001600160a01b03166001600160a01b031663fd967f476040518163ffffffff1660e01b815260040160206040518083038186803b15801561485157600080fd5b505afa158015614865573d6000803e3d6000fd5b505050506040513d601f19601f8201168201806040525081019061488991906154cc565b6001600160801b031661489c86866159e3565b6148a691906159c4565b6148b091906159a4565b10159392505050565b6040516370a0823160e01b81523060048201819052906000906001600160a01b038616906370a082319060240160206040518083038186803b1580156148fe57600080fd5b505afa158015614912573d6000803e3d6000fd5b505050506040513d601f19601f820116820180604052508101906149369190615349565b6040516323b872dd60e01b81526001600160a01b0386811660048301528481166024830152604482018690529192506000918716906323b872dd90606401602060405180830381600087803b15801561498e57600080fd5b505af11580156149a2573d6000803e3d6000fd5b505050506040513d601f19601f820116820180604052508101906149c69190615315565b6040516370a0823160e01b81526001600160a01b0385811660048301529192506000918816906370a082319060240160206040518083038186803b158015614a0d57600080fd5b505afa158015614a21573d6000803e3d6000fd5b505050506040513d601f19601f82011682018060405250810190614a459190615349565b9050818015614a5c5750614a59858461598c565b81145b6135815760405162461bcd60e51b815260206004820152602760248201527f4d61726b65743a206661696c656420746f207265636569766520696e636f6d6960448201527f6e67206269642e0000000000000000000000000000000000000000000000000060648201526084016107ed565b6000826000018281548110614af357634e487b7160e01b600052603260045260246000fd5b9060005260206000200154905092915050565b6060833b614b7c5760405162461bcd60e51b815260206004820152602660248201527f416464726573733a2064656c65676174652063616c6c20746f206e6f6e2d636f60448201527f6e7472616374000000000000000000000000000000000000000000000000000060648201526084016107ed565b600080856001600160a01b031685604051614b979190615679565b600060405180830381855af49150503d8060008114614bd2576040519150601f19603f3d011682016040523d82523d6000602084013e614bd7565b606091505b5091509150614be7828286614de0565b9695505050505050565b60606000614c008360026159c4565b614c0b90600261598c565b67ffffffffffffffff811115614c3157634e487b7160e01b600052604160045260246000fd5b6040519080825280601f01601f191660200182016040528015614c5b576020820181803683370190505b509050600360fc1b81600081518110614c8457634e487b7160e01b600052603260045260246000fd5b60200101906001600160f81b031916908160001a905350600f60fb1b81600181518110614cc157634e487b7160e01b600052603260045260246000fd5b60200101906001600160f81b031916908160001a9053506000614ce58460026159c4565b614cf090600161598c565b90505b6001811115614d91577f303132333435363738396162636465660000000000000000000000000000000085600f1660108110614d3f57634e487b7160e01b600052603260045260246000fd5b1a60f81b828281518110614d6357634e487b7160e01b600052603260045260246000fd5b60200101906001600160f81b031916908160001a90535060049490941c93614d8a81615a26565b9050614cf3565b5083156116645760405162461bcd60e51b815260206004820181905260248201527f537472696e67733a20686578206c656e67746820696e73756666696369656e7460448201526064016107ed565b60608315614def575081611664565b825115614dff5782518084602001fd5b8160405162461bcd60e51b81526004016107ed9190615801565b604051806101a001604052806000815260200160006001600160a01b0316815260200160006001600160a01b031681526020016000815260200160008152602001600081526020016000815260200160006001600160a01b0316815260200160008152602001600081526020016000815260200160006001811115614eae57634e487b7160e01b600052602160045260246000fd5b81526020016000905290565b828054614ec690615a3d565b90600052602060002090601f016020900481019282614ee85760008555614f2e565b82601f10614f015782800160ff19823516178555614f2e565b82800160010185558215614f2e579182015b82811115614f2e578235825591602001919060010190614f13565b50614f3a929150614f3e565b5090565b5b80821115614f3a5760008155600101614f3f565b803561402c81615ae0565b600082601f830112614f6e578081fd5b8135602067ffffffffffffffff821115614f8a57614f8a615aa9565b8160051b614f9982820161595b565b838152828101908684018388018501891015614fb3578687fd5b8693505b85841015614fd5578035835260019390930192918401918401614fb7565b50979650505050505050565b60008083601f840112614ff2578182fd5b50813567ffffffffffffffff811115615009578182fd5b60208301915083602082850101111561502157600080fd5b9250929050565b600082601f830112615038578081fd5b813567ffffffffffffffff81111561505257615052615aa9565b615065601f8201601f191660200161595b565b818152846020838601011115615079578283fd5b816020850160208301379081016020019190915292915050565b80356002811061402c57600080fd5b6000602082840312156150b3578081fd5b813561166481615ae0565b6000602082840312156150cf578081fd5b815161166481615ae0565b600080600080600060a086880312156150f1578081fd5b85356150fc81615ae0565b9450602086013561510c81615ae0565b9350604086013567ffffffffffffffff80821115615128578283fd5b61513489838a01614f5e565b94506060880135915080821115615149578283fd5b61515589838a01614f5e565b9350608088013591508082111561516a578283fd5b5061517788828901615028565b9150509295509295909350565b60008060008060006080868803121561519b578081fd5b85356151a681615ae0565b945060208601356151b681615ae0565b935060408601359250606086013567ffffffffffffffff8111156151d8578182fd5b6151e488828901614fe1565b969995985093965092949392505050565b600080600080600060a0868803121561520c578283fd5b853561521781615ae0565b9450602086013561522781615ae0565b93506040860135925060608601359150608086013567ffffffffffffffff811115615250578182fd5b61517788828901615028565b6000806040838503121561526e578182fd5b825161527981615ae0565b6020939093015192949293505050565b6000806020838503121561529b578182fd5b823567ffffffffffffffff808211156152b2578384fd5b818501915085601f8301126152c5578384fd5b8135818111156152d3578485fd5b8660208260051b85010111156152e7578485fd5b60209290920196919550909350505050565b60006020828403121561530a578081fd5b813561166481615af5565b600060208284031215615326578081fd5b815161166481615af5565b600060208284031215615342578081fd5b5035919050565b60006020828403121561535a578081fd5b5051919050565b60008060408385031215615373578182fd5b82359150602083013561538581615ae0565b809150509250929050565b600080604083850312156153a2578182fd5b50508035926020909101359150565b6000602082840312156153c2578081fd5b81356001600160e01b031981168114611664578182fd5b600080602083850312156153eb578182fd5b823567ffffffffffffffff811115615401578283fd5b61540d85828601614fe1565b90969095509350505050565b6000610140828403121561542b578081fd5b615433615931565b61543c83614f53565b81526020830135602082015260408301356040820152606083013560608201526080830135608082015261547260a08401614f53565b60a082015260c083013560c082015260e083013560e08201526101008084013581830152506101206154a5818501615093565b908201529392505050565b6000602082840312156154c1578081fd5b813561166481615b03565b6000602082840312156154dd578081fd5b815161166481615b03565b6000806000606084860312156154fc578081fd5b505081359360208301359350604090920135919050565b600080600080600080600080610100898b03121561552f578586fd5b883597506020890135965060408901359550606089013594506080890135935060a089013561555d81615ae0565b979a969950949793969295929450505060c08201359160e0013590565b600081518084526155928160208601602086016159fa565b601f01601f19169290920160200192915050565b6155af81615abf565b9052565b8051825260208101516155d160208401826001600160a01b03169052565b5060408101516155ec60408401826001600160a01b03169052565b50606081015160608301526080810151608083015260a081015160a083015260c081015160c083015260e081015161562f60e08401826001600160a01b03169052565b5061010081810151908301526101208082015190830152610140808201519083015261016080820151615664828501826155a6565b505061018080820151613052828501826155a6565b6000825161568b8184602087016159fa565b9190910192915050565b7f416363657373436f6e74726f6c3a206163636f756e74200000000000000000008152600083516156cd8160178501602088016159fa565b7f206973206d697373696e6720726f6c6520000000000000000000000000000000601791840191820152835161570a8160288401602088016159fa565b01602801949350505050565b6001600160a01b0385811682528416602082015261026081016157666040830185805182526001600160a01b03602082015116602083015260408101516040830152606081015160608301525050565b6109aa60c08301846155b3565b6001600160a01b0384168152602081018390526101e0810161579860408301846155b3565b949350505050565b6000602080830181845280855180835260408601915060408160051b8701019250838701855b828110156157f457603f198886030184526157e285835161557a565b945092850192908501906001016157c6565b5092979650505050505050565b602081526000611664602083018461557a565b6101a0810161077682846155b3565b825181526020808401516001600160a01b0316908201526040808401519082015260608084015190820152610220810161166460808301846155b3565b60006101a0820190508e82526001600160a01b03808f166020840152808e1660408401528c60608401528b60808401528a60a08401528960c084015280891660e0840152508661010083015285610120830152846101408301526158c384615abf565b836101608301526158d383615abf565b826101808301529e9d5050505050505050505050505050565b6000808335601e19843603018112615902578283fd5b83018035915067ffffffffffffffff82111561591c578283fd5b60200191503681900382131561502157600080fd5b604051610140810167ffffffffffffffff8111828210171561595557615955615aa9565b60405290565b604051601f8201601f1916810167ffffffffffffffff8111828210171561598457615984615aa9565b604052919050565b6000821982111561599f5761599f615a93565b500190565b6000826159bf57634e487b7160e01b81526012600452602481fd5b500490565b60008160001904831182151516156159de576159de615a93565b500290565b6000828210156159f5576159f5615a93565b500390565b60005b83811015615a155781810151838201526020016159fd565b838111156130525750506000910152565b600081615a3557615a35615a93565b506000190190565b600181811c90821680615a5157607f821691505b60208210811415615a7257634e487b7160e01b600052602260045260246000fd5b50919050565b6000600019821415615a8c57615a8c615a93565b5060010190565b634e487b7160e01b600052601160045260246000fd5b634e487b7160e01b600052604160045260246000fd5b60028110615add57634e487b7160e01b600052602160045260246000fd5b50565b6001600160a01b0381168114615add57600080fd5b8015158114615add57600080fd5b6001600160801b0381168114615add57600080fdfe416464726573733a206c6f772d6c6576656c2064656c65676174652063616c6c206661696c6564a164736f6c6343000804000a",
  "linkReferences": {},
  "deployedLinkReferences": {}
}