{
  "_format": "hh-sol-artifact-1",
  "contractName": "Market",
  "sourceName": "contracts/v2/Market.sol",
  "abi": [
    {
      "inputs": [
        {
          "internalType": "address payable",
          "name": "_controlCenter",
          "type": "address"
        },
        {
          "internalType": "address",
          "name": "_trustedForwarder",
          "type": "address"
        },
        {
          "internalType": "string",
          "name": "_uri",
          "type": "string"
        }
      ],
      "stateMutability": "nonpayable",
      "type": "constructor"
    },
    {
      "anonymous": false,
      "inputs": [
        {
          "indexed": false,
          "internalType": "uint256",
          "name": "timeBuffer",
          "type": "uint256"
        },
        {
          "indexed": false,
          "internalType": "uint256",
          "name": "bidBufferBps",
          "type": "uint256"
        }
      ],
      "name": "AuctionBuffersUpdated",
      "type": "event"
    },
    {
      "anonymous": false,
      "inputs": [
        {
          "indexed": true,
          "internalType": "uint256",
          "name": "listingId",
          "type": "uint256"
        },
        {
          "indexed": true,
          "internalType": "address",
          "name": "auctionCreator",
          "type": "address"
        },
        {
          "components": [
            {
              "internalType": "uint256",
              "name": "listingId",
              "type": "uint256"
            },
            {
              "internalType": "address",
              "name": "tokenOwner",
              "type": "address"
            },
            {
              "internalType": "address",
              "name": "assetContract",
              "type": "address"
            },
            {
              "internalType": "uint256",
              "name": "tokenId",
              "type": "uint256"
            },
            {
              "internalType": "uint256",
              "name": "startTime",
              "type": "uint256"
            },
            {
              "internalType": "uint256",
              "name": "endTime",
              "type": "uint256"
            },
            {
              "internalType": "uint256",
              "name": "quantity",
              "type": "uint256"
            },
            {
              "internalType": "address",
              "name": "currency",
              "type": "address"
            },
            {
              "internalType": "uint256",
              "name": "reservePricePerToken",
              "type": "uint256"
            },
            {
              "internalType": "uint256",
              "name": "buyoutPricePerToken",
              "type": "uint256"
            },
            {
              "internalType": "uint256",
              "name": "tokensPerBuyer",
              "type": "uint256"
            },
            {
              "internalType": "enum IMarket.TokenType",
              "name": "tokenType",
              "type": "uint8"
            },
            {
              "internalType": "enum IMarket.ListingType",
              "name": "listingType",
              "type": "uint8"
            }
          ],
          "indexed": false,
          "internalType": "struct IMarket.Listing",
          "name": "listing",
          "type": "tuple"
        }
      ],
      "name": "AuctionCanceled",
      "type": "event"
    },
    {
      "anonymous": false,
      "inputs": [
        {
          "indexed": true,
          "internalType": "uint256",
          "name": "listingId",
          "type": "uint256"
        },
        {
          "indexed": true,
          "internalType": "address",
          "name": "closer",
          "type": "address"
        },
        {
          "indexed": false,
          "internalType": "address",
          "name": "auctionCreator",
          "type": "address"
        },
        {
          "indexed": false,
          "internalType": "address",
          "name": "winningBidder",
          "type": "address"
        },
        {
          "components": [
            {
              "internalType": "uint256",
              "name": "listingId",
              "type": "uint256"
            },
            {
              "internalType": "address",
              "name": "offeror",
              "type": "address"
            },
            {
              "internalType": "uint256",
              "name": "quantityWanted",
              "type": "uint256"
            },
            {
              "internalType": "uint256",
              "name": "offerAmount",
              "type": "uint256"
            }
          ],
          "indexed": false,
          "internalType": "struct IMarket.Offer",
          "name": "winningBid",
          "type": "tuple"
        },
        {
          "components": [
            {
              "internalType": "uint256",
              "name": "listingId",
              "type": "uint256"
            },
            {
              "internalType": "address",
              "name": "tokenOwner",
              "type": "address"
            },
            {
              "internalType": "address",
              "name": "assetContract",
              "type": "address"
            },
            {
              "internalType": "uint256",
              "name": "tokenId",
              "type": "uint256"
            },
            {
              "internalType": "uint256",
              "name": "startTime",
              "type": "uint256"
            },
            {
              "internalType": "uint256",
              "name": "endTime",
              "type": "uint256"
            },
            {
              "internalType": "uint256",
              "name": "quantity",
              "type": "uint256"
            },
            {
              "internalType": "address",
              "name": "currency",
              "type": "address"
            },
            {
              "internalType": "uint256",
              "name": "reservePricePerToken",
              "type": "uint256"
            },
            {
              "internalType": "uint256",
              "name": "buyoutPricePerToken",
              "type": "uint256"
            },
            {
              "internalType": "uint256",
              "name": "tokensPerBuyer",
              "type": "uint256"
            },
            {
              "internalType": "enum IMarket.TokenType",
              "name": "tokenType",
              "type": "uint8"
            },
            {
              "internalType": "enum IMarket.ListingType",
              "name": "listingType",
              "type": "uint8"
            }
          ],
          "indexed": false,
          "internalType": "struct IMarket.Listing",
          "name": "listing",
          "type": "tuple"
        }
      ],
      "name": "AuctionClosed",
      "type": "event"
    },
    {
      "anonymous": false,
      "inputs": [
        {
          "indexed": true,
          "internalType": "address",
          "name": "listingCreator",
          "type": "address"
        },
        {
          "indexed": true,
          "internalType": "uint256",
          "name": "listingId",
          "type": "uint256"
        },
        {
          "components": [
            {
              "internalType": "uint256",
              "name": "listingId",
              "type": "uint256"
            },
            {
              "internalType": "address",
              "name": "tokenOwner",
              "type": "address"
            },
            {
              "internalType": "address",
              "name": "assetContract",
              "type": "address"
            },
            {
              "internalType": "uint256",
              "name": "tokenId",
              "type": "uint256"
            },
            {
              "internalType": "uint256",
              "name": "startTime",
              "type": "uint256"
            },
            {
              "internalType": "uint256",
              "name": "endTime",
              "type": "uint256"
            },
            {
              "internalType": "uint256",
              "name": "quantity",
              "type": "uint256"
            },
            {
              "internalType": "address",
              "name": "currency",
              "type": "address"
            },
            {
              "internalType": "uint256",
              "name": "reservePricePerToken",
              "type": "uint256"
            },
            {
              "internalType": "uint256",
              "name": "buyoutPricePerToken",
              "type": "uint256"
            },
            {
              "internalType": "uint256",
              "name": "tokensPerBuyer",
              "type": "uint256"
            },
            {
              "internalType": "enum IMarket.TokenType",
              "name": "tokenType",
              "type": "uint8"
            },
            {
              "internalType": "enum IMarket.ListingType",
              "name": "listingType",
              "type": "uint8"
            }
          ],
          "indexed": false,
          "internalType": "struct IMarket.Listing",
          "name": "listing",
          "type": "tuple"
        }
      ],
      "name": "ListingUpdate",
      "type": "event"
    },
    {
      "anonymous": false,
      "inputs": [
        {
          "indexed": false,
          "internalType": "uint128",
          "name": "newFee",
          "type": "uint128"
        }
      ],
      "name": "MarketFeeUpdate",
      "type": "event"
    },
    {
      "anonymous": false,
      "inputs": [
        {
          "indexed": true,
          "internalType": "uint256",
          "name": "listingId",
          "type": "uint256"
        },
        {
          "indexed": true,
          "internalType": "address",
          "name": "bidder",
          "type": "address"
        },
        {
          "components": [
            {
              "internalType": "uint256",
              "name": "listingId",
              "type": "uint256"
            },
            {
              "internalType": "address",
              "name": "offeror",
              "type": "address"
            },
            {
              "internalType": "uint256",
              "name": "quantityWanted",
              "type": "uint256"
            },
            {
              "internalType": "uint256",
              "name": "offerAmount",
              "type": "uint256"
            }
          ],
          "indexed": false,
          "internalType": "struct IMarket.Offer",
          "name": "bid",
          "type": "tuple"
        },
        {
          "components": [
            {
              "internalType": "uint256",
              "name": "listingId",
              "type": "uint256"
            },
            {
              "internalType": "address",
              "name": "tokenOwner",
              "type": "address"
            },
            {
              "internalType": "address",
              "name": "assetContract",
              "type": "address"
            },
            {
              "internalType": "uint256",
              "name": "tokenId",
              "type": "uint256"
            },
            {
              "internalType": "uint256",
              "name": "startTime",
              "type": "uint256"
            },
            {
              "internalType": "uint256",
              "name": "endTime",
              "type": "uint256"
            },
            {
              "internalType": "uint256",
              "name": "quantity",
              "type": "uint256"
            },
            {
              "internalType": "address",
              "name": "currency",
              "type": "address"
            },
            {
              "internalType": "uint256",
              "name": "reservePricePerToken",
              "type": "uint256"
            },
            {
              "internalType": "uint256",
              "name": "buyoutPricePerToken",
              "type": "uint256"
            },
            {
              "internalType": "uint256",
              "name": "tokensPerBuyer",
              "type": "uint256"
            },
            {
              "internalType": "enum IMarket.TokenType",
              "name": "tokenType",
              "type": "uint8"
            },
            {
              "internalType": "enum IMarket.ListingType",
              "name": "listingType",
              "type": "uint8"
            }
          ],
          "indexed": false,
          "internalType": "struct IMarket.Listing",
          "name": "listing",
          "type": "tuple"
        }
      ],
      "name": "NewBid",
      "type": "event"
    },
    {
      "anonymous": false,
      "inputs": [
        {
          "indexed": true,
          "internalType": "address",
          "name": "assetContract",
          "type": "address"
        },
        {
          "indexed": true,
          "internalType": "address",
          "name": "seller",
          "type": "address"
        },
        {
          "indexed": true,
          "internalType": "uint256",
          "name": "listingId",
          "type": "uint256"
        },
        {
          "indexed": false,
          "internalType": "address",
          "name": "buyer",
          "type": "address"
        },
        {
          "indexed": false,
          "internalType": "uint256",
          "name": "quantity",
          "type": "uint256"
        },
        {
          "components": [
            {
              "internalType": "uint256",
              "name": "listingId",
              "type": "uint256"
            },
            {
              "internalType": "address",
              "name": "tokenOwner",
              "type": "address"
            },
            {
              "internalType": "address",
              "name": "assetContract",
              "type": "address"
            },
            {
              "internalType": "uint256",
              "name": "tokenId",
              "type": "uint256"
            },
            {
              "internalType": "uint256",
              "name": "startTime",
              "type": "uint256"
            },
            {
              "internalType": "uint256",
              "name": "endTime",
              "type": "uint256"
            },
            {
              "internalType": "uint256",
              "name": "quantity",
              "type": "uint256"
            },
            {
              "internalType": "address",
              "name": "currency",
              "type": "address"
            },
            {
              "internalType": "uint256",
              "name": "reservePricePerToken",
              "type": "uint256"
            },
            {
              "internalType": "uint256",
              "name": "buyoutPricePerToken",
              "type": "uint256"
            },
            {
              "internalType": "uint256",
              "name": "tokensPerBuyer",
              "type": "uint256"
            },
            {
              "internalType": "enum IMarket.TokenType",
              "name": "tokenType",
              "type": "uint8"
            },
            {
              "internalType": "enum IMarket.ListingType",
              "name": "listingType",
              "type": "uint8"
            }
          ],
          "indexed": false,
          "internalType": "struct IMarket.Listing",
          "name": "listing",
          "type": "tuple"
        }
      ],
      "name": "NewDirectSale",
      "type": "event"
    },
    {
      "anonymous": false,
      "inputs": [
        {
          "indexed": true,
          "internalType": "address",
          "name": "assetContract",
          "type": "address"
        },
        {
          "indexed": true,
          "internalType": "address",
          "name": "seller",
          "type": "address"
        },
        {
          "indexed": true,
          "internalType": "uint256",
          "name": "listingId",
          "type": "uint256"
        },
        {
          "components": [
            {
              "internalType": "uint256",
              "name": "listingId",
              "type": "uint256"
            },
            {
              "internalType": "address",
              "name": "tokenOwner",
              "type": "address"
            },
            {
              "internalType": "address",
              "name": "assetContract",
              "type": "address"
            },
            {
              "internalType": "uint256",
              "name": "tokenId",
              "type": "uint256"
            },
            {
              "internalType": "uint256",
              "name": "startTime",
              "type": "uint256"
            },
            {
              "internalType": "uint256",
              "name": "endTime",
              "type": "uint256"
            },
            {
              "internalType": "uint256",
              "name": "quantity",
              "type": "uint256"
            },
            {
              "internalType": "address",
              "name": "currency",
              "type": "address"
            },
            {
              "internalType": "uint256",
              "name": "reservePricePerToken",
              "type": "uint256"
            },
            {
              "internalType": "uint256",
              "name": "buyoutPricePerToken",
              "type": "uint256"
            },
            {
              "internalType": "uint256",
              "name": "tokensPerBuyer",
              "type": "uint256"
            },
            {
              "internalType": "enum IMarket.TokenType",
              "name": "tokenType",
              "type": "uint8"
            },
            {
              "internalType": "enum IMarket.ListingType",
              "name": "listingType",
              "type": "uint8"
            }
          ],
          "indexed": false,
          "internalType": "struct IMarket.Listing",
          "name": "listing",
          "type": "tuple"
        }
      ],
      "name": "NewListing",
      "type": "event"
    },
    {
      "anonymous": false,
      "inputs": [
        {
          "indexed": true,
          "internalType": "uint256",
          "name": "listingId",
          "type": "uint256"
        },
        {
          "indexed": true,
          "internalType": "address",
          "name": "offeror",
          "type": "address"
        },
        {
          "components": [
            {
              "internalType": "uint256",
              "name": "listingId",
              "type": "uint256"
            },
            {
              "internalType": "address",
              "name": "offeror",
              "type": "address"
            },
            {
              "internalType": "uint256",
              "name": "quantityWanted",
              "type": "uint256"
            },
            {
              "internalType": "uint256",
              "name": "offerAmount",
              "type": "uint256"
            }
          ],
          "indexed": false,
          "internalType": "struct IMarket.Offer",
          "name": "offer",
          "type": "tuple"
        },
        {
          "components": [
            {
              "internalType": "uint256",
              "name": "listingId",
              "type": "uint256"
            },
            {
              "internalType": "address",
              "name": "tokenOwner",
              "type": "address"
            },
            {
              "internalType": "address",
              "name": "assetContract",
              "type": "address"
            },
            {
              "internalType": "uint256",
              "name": "tokenId",
              "type": "uint256"
            },
            {
              "internalType": "uint256",
              "name": "startTime",
              "type": "uint256"
            },
            {
              "internalType": "uint256",
              "name": "endTime",
              "type": "uint256"
            },
            {
              "internalType": "uint256",
              "name": "quantity",
              "type": "uint256"
            },
            {
              "internalType": "address",
              "name": "currency",
              "type": "address"
            },
            {
              "internalType": "uint256",
              "name": "reservePricePerToken",
              "type": "uint256"
            },
            {
              "internalType": "uint256",
              "name": "buyoutPricePerToken",
              "type": "uint256"
            },
            {
              "internalType": "uint256",
              "name": "tokensPerBuyer",
              "type": "uint256"
            },
            {
              "internalType": "enum IMarket.TokenType",
              "name": "tokenType",
              "type": "uint8"
            },
            {
              "internalType": "enum IMarket.ListingType",
              "name": "listingType",
              "type": "uint8"
            }
          ],
          "indexed": false,
          "internalType": "struct IMarket.Listing",
          "name": "listing",
          "type": "tuple"
        }
      ],
      "name": "NewOffer",
      "type": "event"
    },
    {
      "anonymous": false,
      "inputs": [
        {
          "indexed": false,
          "internalType": "address",
          "name": "account",
          "type": "address"
        }
      ],
      "name": "Paused",
      "type": "event"
    },
    {
      "anonymous": false,
      "inputs": [
        {
          "indexed": false,
          "internalType": "bool",
          "name": "restricted",
          "type": "bool"
        }
      ],
      "name": "RestrictedListerRoleUpdated",
      "type": "event"
    },
    {
      "anonymous": false,
      "inputs": [
        {
          "indexed": true,
          "internalType": "bytes32",
          "name": "role",
          "type": "bytes32"
        },
        {
          "indexed": true,
          "internalType": "bytes32",
          "name": "previousAdminRole",
          "type": "bytes32"
        },
        {
          "indexed": true,
          "internalType": "bytes32",
          "name": "newAdminRole",
          "type": "bytes32"
        }
      ],
      "name": "RoleAdminChanged",
      "type": "event"
    },
    {
      "anonymous": false,
      "inputs": [
        {
          "indexed": true,
          "internalType": "bytes32",
          "name": "role",
          "type": "bytes32"
        },
        {
          "indexed": true,
          "internalType": "address",
          "name": "account",
          "type": "address"
        },
        {
          "indexed": true,
          "internalType": "address",
          "name": "sender",
          "type": "address"
        }
      ],
      "name": "RoleGranted",
      "type": "event"
    },
    {
      "anonymous": false,
      "inputs": [
        {
          "indexed": true,
          "internalType": "bytes32",
          "name": "role",
          "type": "bytes32"
        },
        {
          "indexed": true,
          "internalType": "address",
          "name": "account",
          "type": "address"
        },
        {
          "indexed": true,
          "internalType": "address",
          "name": "sender",
          "type": "address"
        }
      ],
      "name": "RoleRevoked",
      "type": "event"
    },
    {
      "anonymous": false,
      "inputs": [
        {
          "indexed": false,
          "internalType": "address",
          "name": "account",
          "type": "address"
        }
      ],
      "name": "Unpaused",
      "type": "event"
    },
    {
      "inputs": [],
      "name": "DEFAULT_ADMIN_ROLE",
      "outputs": [
        {
          "internalType": "bytes32",
          "name": "",
          "type": "bytes32"
        }
      ],
      "stateMutability": "view",
      "type": "function"
    },
    {
      "inputs": [],
      "name": "LISTER_ROLE",
      "outputs": [
        {
          "internalType": "bytes32",
          "name": "",
          "type": "bytes32"
        }
      ],
      "stateMutability": "view",
      "type": "function"
    },
    {
      "inputs": [],
      "name": "PAUSER_ROLE",
      "outputs": [
        {
          "internalType": "bytes32",
          "name": "",
          "type": "bytes32"
        }
      ],
      "stateMutability": "view",
      "type": "function"
    },
    {
      "inputs": [],
      "name": "_contractURI",
      "outputs": [
        {
          "internalType": "string",
          "name": "",
          "type": "string"
        }
      ],
      "stateMutability": "view",
      "type": "function"
    },
    {
      "inputs": [
        {
          "internalType": "uint256",
          "name": "_listingId",
          "type": "uint256"
        },
        {
          "internalType": "address",
          "name": "offeror",
          "type": "address"
        }
      ],
      "name": "acceptOffer",
      "outputs": [],
      "stateMutability": "nonpayable",
      "type": "function"
    },
    {
      "inputs": [
        {
          "internalType": "uint256",
          "name": "_listingId",
          "type": "uint256"
        },
        {
          "internalType": "uint256",
          "name": "_bidAmount",
          "type": "uint256"
        }
      ],
      "name": "bid",
      "outputs": [],
      "stateMutability": "nonpayable",
      "type": "function"
    },
    {
      "inputs": [],
      "name": "bidBufferBps",
      "outputs": [
        {
          "internalType": "uint256",
          "name": "",
          "type": "uint256"
        }
      ],
      "stateMutability": "view",
      "type": "function"
    },
    {
      "inputs": [
        {
          "internalType": "uint256",
          "name": "",
          "type": "uint256"
        },
        {
          "internalType": "address",
          "name": "",
          "type": "address"
        }
      ],
      "name": "boughtFromListing",
      "outputs": [
        {
          "internalType": "uint256",
          "name": "",
          "type": "uint256"
        }
      ],
      "stateMutability": "view",
      "type": "function"
    },
    {
      "inputs": [
        {
          "internalType": "uint256",
          "name": "_listingId",
          "type": "uint256"
        },
        {
          "internalType": "uint256",
          "name": "_quantityToBuy",
          "type": "uint256"
        }
      ],
      "name": "buy",
      "outputs": [],
      "stateMutability": "nonpayable",
      "type": "function"
    },
    {
      "inputs": [
        {
          "internalType": "uint256",
          "name": "_listingId",
          "type": "uint256"
        }
      ],
      "name": "cancelAuction",
      "outputs": [],
      "stateMutability": "nonpayable",
      "type": "function"
    },
    {
      "inputs": [
        {
          "internalType": "uint256",
          "name": "_listingId",
          "type": "uint256"
        }
      ],
      "name": "closeAuction",
      "outputs": [],
      "stateMutability": "nonpayable",
      "type": "function"
    },
    {
      "inputs": [],
      "name": "contractURI",
      "outputs": [
        {
          "internalType": "string",
          "name": "",
          "type": "string"
        }
      ],
      "stateMutability": "view",
      "type": "function"
    },
    {
      "inputs": [
        {
          "components": [
            {
              "internalType": "address",
              "name": "assetContract",
              "type": "address"
            },
            {
              "internalType": "uint256",
              "name": "tokenId",
              "type": "uint256"
            },
            {
              "internalType": "uint256",
              "name": "secondsUntilStartTime",
              "type": "uint256"
            },
            {
              "internalType": "uint256",
              "name": "secondsUntilEndTime",
              "type": "uint256"
            },
            {
              "internalType": "uint256",
              "name": "quantityToList",
              "type": "uint256"
            },
            {
              "internalType": "address",
              "name": "currencyToAccept",
              "type": "address"
            },
            {
              "internalType": "uint256",
              "name": "reservePricePerToken",
              "type": "uint256"
            },
            {
              "internalType": "uint256",
              "name": "buyoutPricePerToken",
              "type": "uint256"
            },
            {
              "internalType": "uint256",
              "name": "tokensPerBuyer",
              "type": "uint256"
            },
            {
              "internalType": "enum IMarket.ListingType",
              "name": "listingType",
              "type": "uint8"
            }
          ],
          "internalType": "struct IMarket.ListingParameters",
          "name": "_params",
          "type": "tuple"
        }
      ],
      "name": "createListing",
      "outputs": [],
      "stateMutability": "nonpayable",
      "type": "function"
    },
    {
      "inputs": [
        {
          "internalType": "uint256",
          "name": "_listingId",
          "type": "uint256"
        },
        {
          "internalType": "uint256",
          "name": "_quantityToList",
          "type": "uint256"
        },
        {
          "internalType": "uint256",
          "name": "_reservePricePerToken",
          "type": "uint256"
        },
        {
          "internalType": "uint256",
          "name": "_buyoutPricePerToken",
          "type": "uint256"
        },
        {
          "internalType": "uint256",
          "name": "_tokensPerBuyer",
          "type": "uint256"
        },
        {
          "internalType": "address",
          "name": "_currencyToAccept",
          "type": "address"
        },
        {
          "internalType": "uint256",
          "name": "_secondsUntilStartTime",
          "type": "uint256"
        },
        {
          "internalType": "uint256",
          "name": "_secondsUntilEndTime",
          "type": "uint256"
        }
      ],
      "name": "editListingParametrs",
      "outputs": [],
      "stateMutability": "nonpayable",
      "type": "function"
    },
    {
      "inputs": [
        {
          "internalType": "uint256",
          "name": "_listingId",
          "type": "uint256"
        }
      ],
      "name": "getListing",
      "outputs": [
        {
          "components": [
            {
              "internalType": "uint256",
              "name": "listingId",
              "type": "uint256"
            },
            {
              "internalType": "address",
              "name": "tokenOwner",
              "type": "address"
            },
            {
              "internalType": "address",
              "name": "assetContract",
              "type": "address"
            },
            {
              "internalType": "uint256",
              "name": "tokenId",
              "type": "uint256"
            },
            {
              "internalType": "uint256",
              "name": "startTime",
              "type": "uint256"
            },
            {
              "internalType": "uint256",
              "name": "endTime",
              "type": "uint256"
            },
            {
              "internalType": "uint256",
              "name": "quantity",
              "type": "uint256"
            },
            {
              "internalType": "address",
              "name": "currency",
              "type": "address"
            },
            {
              "internalType": "uint256",
              "name": "reservePricePerToken",
              "type": "uint256"
            },
            {
              "internalType": "uint256",
              "name": "buyoutPricePerToken",
              "type": "uint256"
            },
            {
              "internalType": "uint256",
              "name": "tokensPerBuyer",
              "type": "uint256"
            },
            {
              "internalType": "enum IMarket.TokenType",
              "name": "tokenType",
              "type": "uint8"
            },
            {
              "internalType": "enum IMarket.ListingType",
              "name": "listingType",
              "type": "uint8"
            }
          ],
          "internalType": "struct IMarket.Listing",
          "name": "listing",
          "type": "tuple"
        }
      ],
      "stateMutability": "view",
      "type": "function"
    },
    {
      "inputs": [
        {
          "internalType": "bytes32",
          "name": "role",
          "type": "bytes32"
        }
      ],
      "name": "getRoleAdmin",
      "outputs": [
        {
          "internalType": "bytes32",
          "name": "",
          "type": "bytes32"
        }
      ],
      "stateMutability": "view",
      "type": "function"
    },
    {
      "inputs": [
        {
          "internalType": "bytes32",
          "name": "role",
          "type": "bytes32"
        },
        {
          "internalType": "uint256",
          "name": "index",
          "type": "uint256"
        }
      ],
      "name": "getRoleMember",
      "outputs": [
        {
          "internalType": "address",
          "name": "",
          "type": "address"
        }
      ],
      "stateMutability": "view",
      "type": "function"
    },
    {
      "inputs": [
        {
          "internalType": "bytes32",
          "name": "role",
          "type": "bytes32"
        }
      ],
      "name": "getRoleMemberCount",
      "outputs": [
        {
          "internalType": "uint256",
          "name": "",
          "type": "uint256"
        }
      ],
      "stateMutability": "view",
      "type": "function"
    },
    {
      "inputs": [
        {
          "internalType": "bytes32",
          "name": "role",
          "type": "bytes32"
        },
        {
          "internalType": "address",
          "name": "account",
          "type": "address"
        }
      ],
      "name": "grantRole",
      "outputs": [],
      "stateMutability": "nonpayable",
      "type": "function"
    },
    {
      "inputs": [
        {
          "internalType": "bytes32",
          "name": "role",
          "type": "bytes32"
        },
        {
          "internalType": "address",
          "name": "account",
          "type": "address"
        }
      ],
      "name": "hasRole",
      "outputs": [
        {
          "internalType": "bool",
          "name": "",
          "type": "bool"
        }
      ],
      "stateMutability": "view",
      "type": "function"
    },
    {
      "inputs": [
        {
          "internalType": "address",
          "name": "forwarder",
          "type": "address"
        }
      ],
      "name": "isTrustedForwarder",
      "outputs": [
        {
          "internalType": "bool",
          "name": "",
          "type": "bool"
        }
      ],
      "stateMutability": "view",
      "type": "function"
    },
    {
      "inputs": [
        {
          "internalType": "uint256",
          "name": "",
          "type": "uint256"
        }
      ],
      "name": "listings",
      "outputs": [
        {
          "internalType": "uint256",
          "name": "listingId",
          "type": "uint256"
        },
        {
          "internalType": "address",
          "name": "tokenOwner",
          "type": "address"
        },
        {
          "internalType": "address",
          "name": "assetContract",
          "type": "address"
        },
        {
          "internalType": "uint256",
          "name": "tokenId",
          "type": "uint256"
        },
        {
          "internalType": "uint256",
          "name": "startTime",
          "type": "uint256"
        },
        {
          "internalType": "uint256",
          "name": "endTime",
          "type": "uint256"
        },
        {
          "internalType": "uint256",
          "name": "quantity",
          "type": "uint256"
        },
        {
          "internalType": "address",
          "name": "currency",
          "type": "address"
        },
        {
          "internalType": "uint256",
          "name": "reservePricePerToken",
          "type": "uint256"
        },
        {
          "internalType": "uint256",
          "name": "buyoutPricePerToken",
          "type": "uint256"
        },
        {
          "internalType": "uint256",
          "name": "tokensPerBuyer",
          "type": "uint256"
        },
        {
          "internalType": "enum IMarket.TokenType",
          "name": "tokenType",
          "type": "uint8"
        },
        {
          "internalType": "enum IMarket.ListingType",
          "name": "listingType",
          "type": "uint8"
        }
      ],
      "stateMutability": "view",
      "type": "function"
    },
    {
      "inputs": [],
      "name": "marketFeeBps",
      "outputs": [
        {
          "internalType": "uint128",
          "name": "",
          "type": "uint128"
        }
      ],
      "stateMutability": "view",
      "type": "function"
    },
    {
      "inputs": [
        {
          "internalType": "bytes[]",
          "name": "data",
          "type": "bytes[]"
        }
      ],
      "name": "multicall",
      "outputs": [
        {
          "internalType": "bytes[]",
          "name": "results",
          "type": "bytes[]"
        }
      ],
      "stateMutability": "nonpayable",
      "type": "function"
    },
    {
      "inputs": [
        {
          "internalType": "uint256",
          "name": "_listingId",
          "type": "uint256"
        },
        {
          "internalType": "uint256",
          "name": "_quantityWanted",
          "type": "uint256"
        },
        {
          "internalType": "uint256",
          "name": "_totalOfferAmount",
          "type": "uint256"
        }
      ],
      "name": "offer",
      "outputs": [],
      "stateMutability": "nonpayable",
      "type": "function"
    },
    {
      "inputs": [
        {
          "internalType": "uint256",
          "name": "",
          "type": "uint256"
        },
        {
          "internalType": "address",
          "name": "",
          "type": "address"
        }
      ],
      "name": "offers",
      "outputs": [
        {
          "internalType": "uint256",
          "name": "listingId",
          "type": "uint256"
        },
        {
          "internalType": "address",
          "name": "offeror",
          "type": "address"
        },
        {
          "internalType": "uint256",
          "name": "quantityWanted",
          "type": "uint256"
        },
        {
          "internalType": "uint256",
          "name": "offerAmount",
          "type": "uint256"
        }
      ],
      "stateMutability": "view",
      "type": "function"
    },
    {
      "inputs": [
        {
          "internalType": "address",
          "name": "",
          "type": "address"
        },
        {
          "internalType": "address",
          "name": "",
          "type": "address"
        },
        {
          "internalType": "uint256[]",
          "name": "",
          "type": "uint256[]"
        },
        {
          "internalType": "uint256[]",
          "name": "",
          "type": "uint256[]"
        },
        {
          "internalType": "bytes",
          "name": "",
          "type": "bytes"
        }
      ],
      "name": "onERC1155BatchReceived",
      "outputs": [
        {
          "internalType": "bytes4",
          "name": "",
          "type": "bytes4"
        }
      ],
      "stateMutability": "nonpayable",
      "type": "function"
    },
    {
      "inputs": [
        {
          "internalType": "address",
          "name": "",
          "type": "address"
        },
        {
          "internalType": "address",
          "name": "",
          "type": "address"
        },
        {
          "internalType": "uint256",
          "name": "",
          "type": "uint256"
        },
        {
          "internalType": "uint256",
          "name": "",
          "type": "uint256"
        },
        {
          "internalType": "bytes",
          "name": "",
          "type": "bytes"
        }
      ],
      "name": "onERC1155Received",
      "outputs": [
        {
          "internalType": "bytes4",
          "name": "",
          "type": "bytes4"
        }
      ],
      "stateMutability": "nonpayable",
      "type": "function"
    },
    {
      "inputs": [
        {
          "internalType": "address",
          "name": "",
          "type": "address"
        },
        {
          "internalType": "address",
          "name": "",
          "type": "address"
        },
        {
          "internalType": "uint256",
          "name": "",
          "type": "uint256"
        },
        {
          "internalType": "bytes",
          "name": "",
          "type": "bytes"
        }
      ],
      "name": "onERC721Received",
      "outputs": [
        {
          "internalType": "bytes4",
          "name": "",
          "type": "bytes4"
        }
      ],
      "stateMutability": "pure",
      "type": "function"
    },
    {
      "inputs": [],
      "name": "paused",
      "outputs": [
        {
          "internalType": "bool",
          "name": "",
          "type": "bool"
        }
      ],
      "stateMutability": "view",
      "type": "function"
    },
    {
      "inputs": [
        {
          "internalType": "bytes32",
          "name": "role",
          "type": "bytes32"
        },
        {
          "internalType": "address",
          "name": "account",
          "type": "address"
        }
      ],
      "name": "renounceRole",
      "outputs": [],
      "stateMutability": "nonpayable",
      "type": "function"
    },
    {
      "inputs": [],
      "name": "restrictedListerRoleOnly",
      "outputs": [
        {
          "internalType": "bool",
          "name": "",
          "type": "bool"
        }
      ],
      "stateMutability": "view",
      "type": "function"
    },
    {
      "inputs": [
        {
          "internalType": "bytes32",
          "name": "role",
          "type": "bytes32"
        },
        {
          "internalType": "address",
          "name": "account",
          "type": "address"
        }
      ],
      "name": "revokeRole",
      "outputs": [],
      "stateMutability": "nonpayable",
      "type": "function"
    },
    {
      "inputs": [
        {
          "internalType": "uint256",
          "name": "_timeBuffer",
          "type": "uint256"
        },
        {
          "internalType": "uint256",
          "name": "_bidBufferBps",
          "type": "uint256"
        }
      ],
      "name": "setAuctionBuffers",
      "outputs": [],
      "stateMutability": "nonpayable",
      "type": "function"
    },
    {
      "inputs": [
        {
          "internalType": "string",
          "name": "_uri",
          "type": "string"
        }
      ],
      "name": "setContractURI",
      "outputs": [],
      "stateMutability": "nonpayable",
      "type": "function"
    },
    {
      "inputs": [
        {
          "internalType": "uint128",
          "name": "feeBps",
          "type": "uint128"
        }
      ],
      "name": "setMarketFeeBps",
      "outputs": [],
      "stateMutability": "nonpayable",
      "type": "function"
    },
    {
      "inputs": [
        {
          "internalType": "bool",
          "name": "_toPause",
          "type": "bool"
        }
      ],
      "name": "setPaused",
      "outputs": [],
      "stateMutability": "nonpayable",
      "type": "function"
    },
    {
      "inputs": [
        {
          "internalType": "bool",
          "name": "restricted",
          "type": "bool"
        }
      ],
      "name": "setRestrictedListerRoleOnly",
      "outputs": [],
      "stateMutability": "nonpayable",
      "type": "function"
    },
    {
      "inputs": [
        {
          "internalType": "bytes4",
          "name": "interfaceId",
          "type": "bytes4"
        }
      ],
      "name": "supportsInterface",
      "outputs": [
        {
          "internalType": "bool",
          "name": "",
          "type": "bool"
        }
      ],
      "stateMutability": "view",
      "type": "function"
    },
    {
      "inputs": [],
      "name": "timeBuffer",
      "outputs": [
        {
          "internalType": "uint256",
          "name": "",
          "type": "uint256"
        }
      ],
      "stateMutability": "view",
      "type": "function"
    },
    {
      "inputs": [],
      "name": "totalListings",
      "outputs": [
        {
          "internalType": "uint256",
          "name": "",
          "type": "uint256"
        }
      ],
      "stateMutability": "view",
      "type": "function"
    },
    {
      "inputs": [
        {
          "internalType": "uint256",
          "name": "",
          "type": "uint256"
        }
      ],
      "name": "winningBid",
      "outputs": [
        {
          "internalType": "uint256",
          "name": "listingId",
          "type": "uint256"
        },
        {
          "internalType": "address",
          "name": "offeror",
          "type": "address"
        },
        {
          "internalType": "uint256",
          "name": "quantityWanted",
          "type": "uint256"
        },
        {
          "internalType": "uint256",
          "name": "offerAmount",
          "type": "uint256"
        }
      ],
      "stateMutability": "view",
      "type": "function"
    }
  ],
  "bytecode": "0x60806040526103846009556101f4600a553480156200001d57600080fd5b506040516200663c3803806200663c83398101604081905262000040916200037e565b6002805460ff191690556001600355600480546001600160a01b0319166001600160a01b03841617905580516200007f906007906020840190620002d8565b50600580546001600160a01b0319166001600160a01b038516179055620000b16000620000ab62000118565b62000134565b620000e07ff94103142c1baabe9ac2b5d1487bf783de9e69cfeea9a72f5c9c94afd7877b8c620000ab62000118565b6200010f7f65d7a28e3265b37a6474929f336521b332c1681b933f6cb9f3376673440d862a620000ab62000118565b505050620004ee565b60006200012f6200017760201b6200361b1760201c565b905090565b6200014b8282620001b060201b620036481760201c565b60008281526001602090815260409091206200017291839062003656620001c0821b17901c565b505050565b6004546000906001600160a01b03163314156200019b575060131936013560601c90565b6200012f620001e060201b6200366b1760201c565b620001bc8282620001e4565b5050565b6000620001d7836001600160a01b03841662000286565b90505b92915050565b3390565b6000828152602081815260408083206001600160a01b038516845290915290205460ff16620001bc576000828152602081815260408083206001600160a01b03851684529091529020805460ff191660011790556200024262000118565b6001600160a01b0316816001600160a01b0316837f2f8788117e7eff1d82e926ec794901d17c78024a50270940304540a733656f0d60405160405180910390a45050565b6000818152600183016020526040812054620002cf57508154600181810184556000848152602080822090930184905584548482528286019093526040902091909155620001da565b506000620001da565b828054620002e69062000482565b90600052602060002090601f0160209004810192826200030a576000855562000355565b82601f106200032557805160ff191683800117855562000355565b8280016001018555821562000355579182015b828111156200035557825182559160200191906001019062000338565b506200036392915062000367565b5090565b5b8082111562000363576000815560010162000368565b60008060006060848603121562000393578283fd5b8351620003a081620004d5565b80935050602080850151620003b581620004d5565b60408601519093506001600160401b0380821115620003d2578384fd5b818701915087601f830112620003e6578384fd5b815181811115620003fb57620003fb620004bf565b604051601f8201601f19908116603f01168101908382118183101715620004265762000426620004bf565b816040528281528a868487010111156200043e578687fd5b8693505b8284101562000461578484018601518185018701529285019262000442565b828411156200047257868684830101525b8096505050505050509250925092565b600181811c908216806200049757607f821691505b60208210811415620004b957634e487b7160e01b600052602260045260246000fd5b50919050565b634e487b7160e01b600052604160045260246000fd5b6001600160a01b0381168114620004eb57600080fd5b50565b61613e80620004fe6000396000f3fe608060405234801561001057600080fd5b506004361061027e5760003560e01c8063938e3d7b11610156578063d4ac9b8c116100d3578063e63ab1e911610097578063ebdfbce511610071578063ebdfbce51461072a578063ec91f2a414610774578063f23a6e611461077d57600080fd5b8063e63ab1e9146106e8578063e8a3d4851461070f578063ea0e02411461071757600080fd5b8063d4ac9b8c14610594578063d547741f146105fb578063d6febde81461060e578063de74e57b14610621578063deb26b94146106c157600080fd5b8063c0e727401161011a578063c0e727401461053d578063c24afe4e14610552578063c78b616c14610565578063ca15c8731461056e578063d1e42ec01461058157600080fd5b8063938e3d7b146104d057806396b5a755146104e3578063a217fddf146104f6578063ac9650d8146104fe578063bc197c811461051e57600080fd5b806336568abe116101ff5780635c975abb116101c35780639010d07c1161019d5780639010d07c1461045b578063918d407d1461048657806391d148541461049957600080fd5b80635c975abb1461043057806361096ec61461043b57806380cd24641461044857600080fd5b806336568abe146103b45780633f5c3e87146103c75780634e03f28d146103f2578063572b6c05146103fb578063598647f81461041d57600080fd5b806320c7852c1161024657806320c7852c1461031f578063236ed8f314610358578063248a9ca31461036b5780632f2ff15d1461038e578063354c7ab6146103a157600080fd5b806301ffc9a71461028357806309679b39146102ab578063107a274a146102c0578063150b7a02146102e057806316c38b3c1461030c575b600080fd5b6102966102913660046158ad565b61079c565b60405190151581526020015b60405180910390f35b6102be6102b93660046159ac565b6107ee565b005b6102d36102ce36600461582d565b61087e565b6040516102a29190615e09565b6102f36102ee366004615680565b6109d0565b6040516001600160e01b031990911681526020016102a2565b6102be61031a3660046157f5565b6109e2565b61034a61032d36600461585d565b600f60209081526000928352604080842090915290825290205481565b6040519081526020016102a2565b6102be61036636600461582d565b610a73565b61034a61037936600461582d565b60009081526020819052604090206001015490565b6102be61039c36600461585d565b61108b565b6102be6103af3660046157f5565b6110b2565b6102be6103c236600461585d565b61111c565b6008546103da906001600160801b031681565b6040516001600160801b0390911681526020016102a2565b61034a600a5481565b61029661040936600461559e565b6004546001600160a01b0391821691161490565b6102be61042b36600461588c565b61113e565b60025460ff16610296565b600b546102969060ff1681565b6102be6104563660046159e4565b61175e565b61046e61046936600461588c565b611ac3565b6040516001600160a01b0390911681526020016102a2565b6102be61049436600461585d565b611ae2565b6102966104a736600461585d565b6000918252602082815260408084206001600160a01b0393909316845291905290205460ff1690565b6102be6104de3660046158d5565b611f0f565b6102be6104f136600461582d565b612097565b61034a600081565b61051161050c366004615785565b612464565b6040516102a29190615c9c565b6102f361052c3660046155d6565b63bc197c8160e01b95945050505050565b610545612583565b6040516102a29190615cfd565b6102be610560366004615a0f565b612611565b61034a60065481565b61034a61057c36600461582d565b612b36565b6102be61058f366004615915565b612b4d565b6105d36105a236600461582d565b600e60205260009081526040902080546001820154600283015460039093015491926001600160a01b039091169184565b604080519485526001600160a01b0390931660208501529183015260608201526080016102a2565b6102be61060936600461585d565b612fd0565b6102be61061c36600461588c565b612fda565b6106a861062f36600461582d565b600c60205260009081526040902080546001820154600283015460038401546004850154600586015460068701546007880154600889015460098a0154600a8b0154600b909b0154999a6001600160a01b03998a169a988a16999798969795969495909316939192909160ff808216916101009004168d565b6040516102a29d9c9b9a99989796959493929190615e55565b61034a7ff94103142c1baabe9ac2b5d1487bf783de9e69cfeea9a72f5c9c94afd7877b8c81565b61034a7f65d7a28e3265b37a6474929f336521b332c1681b933f6cb9f3376673440d862a81565b61054561343c565b6102be61072536600461588c565b6134ce565b6105d361073836600461585d565b600d602090815260009283526040808420909152908252902080546001820154600283015460039093015491926001600160a01b039091169184565b61034a60095481565b6102f361078b3660046156f1565b63f23a6e6160e01b95945050505050565b60006001600160e01b03198216630271189760e51b14806107cd57506001600160e01b03198216630a85bd0160e11b145b806107e857506001600160e01b0319821663152a902d60e11b145b92915050565b6107fb60006104a761366f565b6108205760405162461bcd60e51b815260040161081790615d10565b60405180910390fd5b600880546fffffffffffffffffffffffffffffffff19166001600160801b0383169081179091556040519081527fd50e64e6eb05cd7ceafe1a28b1a7ad949edb90451106259c7117252d605178ef906020015b60405180910390a150565b610886615315565b6000828152600c602090815260409182902082516101a081018452815481526001808301546001600160a01b039081169483019490945260028301548416948201949094526003820154606082015260048201546080820152600582015460a0820152600682015460c0820152600782015490921660e083015260088101546101008301526009810154610120830152600a810154610140830152600b8101549192909161016084019160ff9091169081111561095357634e487b7160e01b600052602160045260246000fd5b600181111561097257634e487b7160e01b600052602160045260246000fd5b8152602001600b820160019054906101000a900460ff1660018111156109a857634e487b7160e01b600052602160045260246000fd5b60018111156109c757634e487b7160e01b600052602160045260246000fd5b90525092915050565b630a85bd0160e11b5b95945050505050565b610a0e7f65d7a28e3265b37a6474929f336521b332c1681b933f6cb9f3376673440d862a6104a761366f565b610a5a5760405162461bcd60e51b815260206004820152601e60248201527f4d61726b65743a206d75737420686176652070617573657220726f6c652e00006044820152606401610817565b8015610a6b57610a68613679565b50565b610a68613712565b60025460ff1615610ab95760405162461bcd60e51b815260206004820152601060248201526f14185d5cd8589b194e881c185d5cd95960821b6044820152606401610817565b6000818152600c6020908152604080832081516101a081018352815481526001808301546001600160a01b039081169583019590955260028301548516938201939093526003820154606082015260048201546080820152600582015460a0820152600682015460c0820152600782015490931660e084015260088101546101008401526009810154610120840152600a810154610140840152600b810154909161016084019160ff1690811115610b8157634e487b7160e01b600052602160045260246000fd5b6001811115610ba057634e487b7160e01b600052602160045260246000fd5b8152602001600b820160019054906101000a900460ff166001811115610bd657634e487b7160e01b600052602160045260246000fd5b6001811115610bf557634e487b7160e01b600052602160045260246000fd5b9052506000838152600e6020908152604080832081516080810183528154815260018201546001600160a01b031693810193909352600281015491830191909152600301546060820152919250610c4a61366f565b905082602001516001600160a01b0316816001600160a01b03161480610c85575081602001516001600160a01b0316816001600160a01b0316145b610ce45760405162461bcd60e51b815260206004820152602a60248201527f4d61726b65743a206d75737420626520626964646572206f722061756374696f604482015269371031b932b0ba37b91760b11b6064820152608401610817565b60018361018001516001811115610d0b57634e487b7160e01b600052602160045260246000fd5b14610d635760405162461bcd60e51b815260206004820152602260248201527f4d61726b65743a206c697374696e67206973206e6f7420616e2061756374696f604482015261371760f11b6064820152608401610817565b428360a0015110610ddc5760405162461bcd60e51b815260206004820152603260248201527f4d61726b65743a2063616e206f6e6c7920636c6f73652061756374696f6e206160448201527f667465722069742068617320656e6465642e00000000000000000000000000006064820152608401610817565b82602001516001600160a01b0316610df261366f565b6001600160a01b03161415610fae5760008360c001518360600151610e179190615fb9565b600060c08601818152878252600c60209081526040928390208851815590880151600180830180546001600160a01b03199081166001600160a01b0394851617909155948a0151600284018054871691841691909117905560608a0151600384015560808a0151600484015560a08a015160058401559251600683015560e089015160078301805490951691161790925561010087015160088301556101208701516009830155610140870151600a830155610160870151600b8301805494955088949192909160ff1916908381811115610f0257634e487b7160e01b600052602160045260246000fd5b0217905550610180820151600b8201805461ff001916610100836001811115610f3b57634e487b7160e01b600052602160045260246000fd5b021790555050600060608501818152878252600e602090815260409283902087518155818801516001820180546001600160a01b0319166001600160a01b039092169190911790559287015160028401559051600390920191909155850151610fa8915030908387613797565b50611035565b81602001516001600160a01b0316610fc461366f565b6001600160a01b0316141561103557604082810180516000808352878152600e602090815293902085518155928501516001840180546001600160a01b0319166001600160a01b0383161790559151600284015560608501516003909301929092556110339030908387613ca0565b505b806001600160a01b0316847f42bdf1b5daec205081fa6758882be4b9c6633d2b16ea489d1c36cddfd46d7cab85602001518560200151868860405161107d9493929190615c12565b60405180910390a350505050565b6110958282613e17565b60008281526001602052604090206110ad9082613656565b505050565b6110bf60006104a761366f565b6110db5760405162461bcd60e51b815260040161081790615d10565b600b805460ff19168215159081179091556040519081527f56668abce4c06e28f52176150c07856e31ee073b9b62df62a5afbf1a22aec24c90602001610873565b6111268282613e44565b60008281526001602052604090206110ad9082613ece565b60025460ff16156111845760405162461bcd60e51b815260206004820152601060248201526f14185d5cd8589b194e881c185d5cd95960821b6044820152606401610817565b816006548111156111d75760405162461bcd60e51b815260206004820152601f60248201527f4d61726b65743a206c697374696e6720646f6573206e6f742065786973742e006044820152606401610817565b6000838152600c6020908152604080832081516101a081018352815481526001808301546001600160a01b039081169583019590955260028301548516938201939093526003820154606082015260048201546080820152600582015460a0820152600682015460c0820152600782015490931660e084015260088101546101008401526009810154610120840152600a810154610140840152600b810154909161016084019160ff169081111561129f57634e487b7160e01b600052602160045260246000fd5b60018111156112be57634e487b7160e01b600052602160045260246000fd5b8152602001600b820160019054906101000a900460ff1660018111156112f457634e487b7160e01b600052602160045260246000fd5b600181111561131357634e487b7160e01b600052602160045260246000fd5b9052506000858152600e6020908152604080832081516080810183528154815260018201546001600160a01b03169381019390935260028101549183019190915260030154606082015291925061136861366f565b60a08401519091506001846101800151600181111561139757634e487b7160e01b600052602160045260246000fd5b146113fc5760405162461bcd60e51b815260206004820152602f60248201527f4d61726b65743a2063616e206f6e6c79206d616b65206269647320746f20617560448201526e31ba34b7b7103634b9ba34b733b99760891b6064820152608401610817565b428111801561140e5750428460800151105b6114725760405162461bcd60e51b815260206004820152602f60248201527f4d61726b65743a2063616e206f6e6c79206d616b65206269647320696e20617560448201526e31ba34b7b710323ab930ba34b7b71760891b6064820152608401610817565b611481828560e0015188613ee3565b61148f83606001518761405f565b1561175557602080840151606094850151604080516080810182528b81526001600160a01b0387169481019490945260c088015190840152948201889052600954919490916114de4285615fd8565b116114fb576009548660a0018181516114f79190615f81565b9052505b6000898152600c60209081526040918290208851815590880151600180830180546001600160a01b03199081166001600160a01b0394851617909155938a0151600284018054861691841691909117905560608a0151600384015560808a0151600484015560a08a0151600584015560c08a0151600684015560e08a015160078401805490951692169190911790925561010088015160088201556101208801516009820155610140880151600a820155610160880151600b820180548a9460ff199091169083818111156115e057634e487b7160e01b600052602160045260246000fd5b0217905550610180820151600b8201805461ff00191661010083600181111561161957634e487b7160e01b600052602160045260246000fd5b021790555050506000898152600e602090815260409182902087518155908701516001820180546001600160a01b0319166001600160a01b03909216919091179055908601516002820155606086015160039091015560e086015161167f90858a61411a565b60e08601516040516323b872dd60e01b81523060048201526001600160a01b03848116602483015260448201849052909116906323b872dd90606401602060405180830381600087803b1580156116d557600080fd5b505af11580156116e9573d6000803e3d6000fd5b505050506040513d601f19601f8201168201806040525081019061170d9190615811565b50836001600160a01b0316897f4aebf4dd6dc586d8e61e80b74856628c80f4e50926edf340a66ce6b25a760b43878960405161174a929190615e18565b60405180910390a350505b50505050505050565b60025460ff16156117a45760405162461bcd60e51b815260206004820152601060248201526f14185d5cd8589b194e881c185d5cd95960821b6044820152606401610817565b826006548111156117f75760405162461bcd60e51b815260206004820152601f60248201527f4d61726b65743a206c697374696e6720646f6573206e6f742065786973742e006044820152606401610817565b600061180161366f565b6000868152600c6020908152604080832081516101a081018352815481526001808301546001600160a01b039081169583019590955260028301548516938201939093526003820154606082015260048201546080820152600582015460a0820152600682015460c0820152600782015490931660e084015260088101546101008401526009810154610120840152600a810154610140840152600b810154949550929391929161016084019160ff909116908111156118d157634e487b7160e01b600052602160045260246000fd5b60018111156118f057634e487b7160e01b600052602160045260246000fd5b8152602001600b820160019054906101000a900460ff16600181111561192657634e487b7160e01b600052602160045260246000fd5b600181111561194557634e487b7160e01b600052602160045260246000fd5b90525090506000816101800151600181111561197157634e487b7160e01b600052602160045260246000fd5b146119d75760405162461bcd60e51b815260206004820152603060248201527f4d61726b65743a2063616e206f6e6c79206d616b65206f666665727320746f2060448201526f3234b932b1ba103634b9ba34b733b99760811b6064820152608401610817565b6119e6828260e0015186613ee3565b60006040518060800160405280888152602001846001600160a01b03168152602001611a1784610160015189614319565b815260209081018790526000898152600d825260408082206001600160a01b038881168085529185529282902085518155938501516001850180546001600160a01b0319169190941617909255838101516002840155606084015160039093019290925590519192509088907f325ebd560da99b6ec57c8698998d68ddf274d0b921541d5b702974d58ca8799290611ab29085908790615e18565b60405180910390a350505050505050565b6000828152600160205260408120611adb908361435e565b9392505050565b60025460ff1615611b285760405162461bcd60e51b815260206004820152601060248201526f14185d5cd8589b194e881c185d5cd95960821b6044820152606401610817565b81611b3161366f565b6000828152600c60205260409020600101546001600160a01b03908116911614611b6d5760405162461bcd60e51b815260040161081790615dbd565b6000838152600d602090815260408083206001600160a01b03808716855290835281842082516080808201855282548252600180840154851683880152600280850154848801526003948501546060808601919091528c8a52600c8952878a2088516101a081018a52815481528185015489169a81019a909a52918201548716978901979097529384015495870195909552600483015490860152600582015460a0860152600682015460c0860152600782015490921660e085015260088101546101008501526009810154610120850152600a810154610140850152600b81015491949392909161016084019160ff90911690811115611c7e57634e487b7160e01b600052602160045260246000fd5b6001811115611c9d57634e487b7160e01b600052602160045260246000fd5b8152602001600b820160019054906101000a900460ff166001811115611cd357634e487b7160e01b600052602160045260246000fd5b6001811115611cf257634e487b7160e01b600052602160045260246000fd5b815250509050611d1a816020015182604001518360600151856040015185610160015161436a565b611d365760405162461bcd60e51b815260040161081790615d6d565b81604001518160c001818151611d4c9190615fd8565b9052506000858152600c60209081526040918290208351815590830151600180830180546001600160a01b03199081166001600160a01b0394851617909155938501516002840180548616918416919091179055606085015160038401556080850151600484015560a0850151600584015560c0850151600684015560e085015160078401805490951692169190911790925561010083015160088201556101208301516009820155610140830151600a820155610160830151600b82018054859460ff19909116908381811115611e3457634e487b7160e01b600052602160045260246000fd5b0217905550610180820151600b8201805461ff001916610100836001811115611e6d57634e487b7160e01b600052602160045260246000fd5b0217905550905050611e9884826020015184604001518560600151611e929190615fb9565b84613797565b611eac816020015185846040015184613ca0565b8481602001516001600160a01b031682604001516001600160a01b03167f13f347bec00b07d4fa8ffa656bbcb29bd18e63fd4621925b71f60ff36c6425c987866040015186604051611f0093929190615c6f565b60405180910390a45050505050565b6005546040805163a217fddf60e01b815290516001600160a01b03909216916391d1485491839163a217fddf91600480820192602092909190829003018186803b158015611f5c57600080fd5b505afa158015611f70573d6000803e3d6000fd5b505050506040513d601f19601f82011682018060405250810190611f949190615845565b611f9c61366f565b6040516001600160e01b031960e085901b16815260048101929092526001600160a01b0316602482015260440160206040518083038186803b158015611fe157600080fd5b505afa158015611ff5573d6000803e3d6000fd5b505050506040513d601f19601f820116820180604052508101906120199190615811565b61208b5760405162461bcd60e51b815260206004820152603560248201527f4d61726b65743a206f6e6c7920612070726f746f636f6c2061646d696e20636160448201527f6e2063616c6c20746869732066756e6374696f6e2e00000000000000000000006064820152608401610817565b6110ad600783836153b6565b60025460ff16156120dd5760405162461bcd60e51b815260206004820152601060248201526f14185d5cd8589b194e881c185d5cd95960821b6044820152606401610817565b806120e661366f565b6000828152600c60205260409020600101546001600160a01b039081169116146121225760405162461bcd60e51b815260040161081790615dbd565b6000828152600c6020908152604080832081516101a081018352815481526001808301546001600160a01b039081169583019590955260028301548516938201939093526003820154606082015260048201546080820152600582015460a0820152600682015460c0820152600782015490931660e084015260088101546101008401526009810154610120840152600a810154610140840152600b810154909161016084019160ff16908111156121ea57634e487b7160e01b600052602160045260246000fd5b600181111561220957634e487b7160e01b600052602160045260246000fd5b8152602001600b820160019054906101000a900460ff16600181111561223f57634e487b7160e01b600052602160045260246000fd5b600181111561225e57634e487b7160e01b600052602160045260246000fd5b815250509050428160800151116122dd5760405162461bcd60e51b815260206004820152603360248201527f4d61726b65743a2063616e6e6f742063616e63656c2061756374696f6e20616660448201527f7465722069742068617320737461727465642e000000000000000000000000006064820152608401610817565b600060c08201818152848252600c60209081526040928390208451815590840151600180830180546001600160a01b03199081166001600160a01b0394851617909155948601516002840180548716918416919091179055606086015160038401556080860151600484015560a086015160058401559251600683015560e085015160078301805490951691161790925561010083015160088301556101208301516009830155610140830151600a830155610160830151600b8301805485949360ff199091169083818111156123c457634e487b7160e01b600052602160045260246000fd5b0217905550610180820151600b8201805461ff0019166101008360018111156123fd57634e487b7160e01b600052602160045260246000fd5b02179055509050506124193082602001518360c0015184613ca0565b80602001516001600160a01b0316837f8b8c78dbb114fabd551e84de4546a68891b5f7a217a98e3f2fe7adb18519959b836040516124579190615e09565b60405180910390a3505050565b60608167ffffffffffffffff81111561248d57634e487b7160e01b600052604160045260246000fd5b6040519080825280602002602001820160405280156124c057816020015b60608152602001906001900390816124ab5790505b50905060005b8281101561257c5761253e308585848181106124f257634e487b7160e01b600052603260045260246000fd5b90506020028101906125049190615ee1565b8080601f01602080910402602001604051908101604052809392919081815260200183838082843760009201919091525061467792505050565b82828151811061255e57634e487b7160e01b600052603260045260246000fd5b602002602001018190525080806125749061606d565b9150506124c6565b5092915050565b6007805461259090616032565b80601f01602080910402602001604051908101604052809291908181526020018280546125bc90616032565b80156126095780601f106125de57610100808354040283529160200191612609565b820191906000526020600020905b8154815290600101906020018083116125ec57829003601f168201915b505050505081565b60025460ff16156126575760405162461bcd60e51b815260206004820152601060248201526f14185d5cd8589b194e881c185d5cd95960821b6044820152606401610817565b876006548111156126aa5760405162461bcd60e51b815260206004820152601f60248201527f4d61726b65743a206c697374696e6720646f6573206e6f742065786973742e006044820152606401610817565b886126b361366f565b6000828152600c60205260409020600101546001600160a01b039081169116146126ef5760405162461bcd60e51b815260040161081790615dbd565b60008a8152600c6020908152604080832081516101a081018352815481526001808301546001600160a01b039081169583019590955260028301548516938201939093526003820154606082015260048201546080820152600582015460a0820152600682015460c0820152600782015490931660e084015260088101546101008401526009810154610120840152600a810154610140840152600b810154909161016084019160ff16908111156127b757634e487b7160e01b600052602160045260246000fd5b60018111156127d657634e487b7160e01b600052602160045260246000fd5b8152602001600b820160019054906101000a900460ff16600181111561280c57634e487b7160e01b600052602160045260246000fd5b600181111561282b57634e487b7160e01b600052602160045260246000fd5b81525050905060006128428261016001518c614319565b6001600160a01b03881660e084015290508515612868576128638642615f81565b61286e565b81608001515b60808301528415612888576128838542615f81565b61288e565b8160a001515b60a083015260c08201518b146128e0576128bc8260200151836040015184606001518486610160015161436a565b6128d85760405162461bcd60e51b815260040161081790615d6d565b60c082018190525b6001826101800151600181111561290757634e487b7160e01b600052602160045260246000fd5b141561298657428260800151106129715760405162461bcd60e51b815260206004820152602860248201527f4d61726b65743a2063616e6e6f7420656469742061756374696f6e2061667465604482015267391039ba30b93a1760c11b6064820152608401610817565b61010082018a905261012082018990526129bc565b600082610180015160018111156129ad57634e487b7160e01b600052602160045260246000fd5b14156129bc5761014082018890525b60008c8152600c60209081526040918290208451815590840151600180830180546001600160a01b03199081166001600160a01b0394851617909155938601516002840180548616918416919091179055606086015160038401556080860151600484015560a0860151600584015560c0860151600684015560e086015160078401805490951692169190911790925561010084015160088201556101208401516009820155610140840151600a820155610160840151600b82018054869460ff19909116908381811115612aa157634e487b7160e01b600052602160045260246000fd5b0217905550610180820151600b8201805461ff001916610100836001811115612ada57634e487b7160e01b600052602160045260246000fd5b02179055509050508b82602001516001600160a01b03167f9897b5e6dd37a61b6f078227f64ef9c4d6744428f9ab322e9d3160c1a396046484604051612b209190615e09565b60405180910390a3505050505050505050505050565b60008181526001602052604081206107e89061469c565b60025460ff1615612b935760405162461bcd60e51b815260206004820152601060248201526f14185d5cd8589b194e881c185d5cd95960821b6044820152606401610817565b600b5460ff161580612bcc5750612bcc7ff94103142c1baabe9ac2b5d1487bf783de9e69cfeea9a72f5c9c94afd7877b8c6104a761366f565b612c2e5760405162461bcd60e51b815260206004820152602d60248201527f4d61726b65743a206f6e6c792061206c69737465722063616e2063616c6c207460448201526c3434b990333ab731ba34b7b71760991b6064820152608401610817565b6000612c386146a6565b90506000612c4461366f565b90506000612c5584600001516146c4565b90506000808561012001516001811115612c7f57634e487b7160e01b600052602160045260246000fd5b1415612ca557612c9e838660000151876020015188608001518661436a565b9050612cee565b60018561012001516001811115612ccc57634e487b7160e01b600052602160045260246000fd5b1415612cee57612ceb8386600001518760200151886080015186614850565b90505b808015612cff575060008560800151115b612d1b5760405162461bcd60e51b815260040161081790615d6d565b6000604051806101a00160405280868152602001856001600160a01b0316815260200187600001516001600160a01b0316815260200187602001518152602001876040015142612d6b9190615f81565b81526020018760600151600014612d90576060880151612d8b9042615f81565b612d94565b6000195b8152602001612da7858960800151614319565b81526020018760a001516001600160a01b031681526020018760c0015181526020018760e001518152602001876101000151600014612deb57876101000151612df1565b87608001515b8152602001846001811115612e1657634e487b7160e01b600052602160045260246000fd5b81526020018761012001516001811115612e4057634e487b7160e01b600052602160045260246000fd5b90526000868152600c60209081526040918290208351815590830151600180830180546001600160a01b03199081166001600160a01b0394851617909155938501516002840180548616918416919091179055606085015160038401556080850151600484015560a0850151600584015560c0850151600684015560e085015160078401805490951692169190911790925561010083015160088201556101208301516009820155610140830151600a820155610160830151600b82018054949550859492939192909160ff19909116908381811115612f3057634e487b7160e01b600052602160045260246000fd5b0217905550610180820151600b8201805461ff001916610100836001811115612f6957634e487b7160e01b600052602160045260246000fd5b021790555090505084612f7a61366f565b6001600160a01b031687600001516001600160a01b03167fbd4ad658f54c65cfbfb4961c722cac4e1bc357eaabbd6ad51273e752a448191684604051612fc09190615e09565b60405180910390a4505050505050565b61112682826149be565b60025460ff16156130205760405162461bcd60e51b815260206004820152601060248201526f14185d5cd8589b194e881c185d5cd95960821b6044820152606401610817565b816006548111156130735760405162461bcd60e51b815260206004820152601f60248201527f4d61726b65743a206c697374696e6720646f6573206e6f742065786973742e006044820152606401610817565b600260035414156130c65760405162461bcd60e51b815260206004820152601f60248201527f5265656e7472616e637947756172643a207265656e7472616e742063616c6c006044820152606401610817565b600260038181556000858152600c6020908152604080832081516101a081018352815481526001808301546001600160a01b03908116958301959095529682015484169281019290925293840154606082015260048401546080820152600584015460a0820152600684015460c0820152600784015490911660e082015260088301546101008201526009830154610120820152600a830154610140820152600b830154919390929161016084019160ff9091169081111561319857634e487b7160e01b600052602160045260246000fd5b60018111156131b757634e487b7160e01b600052602160045260246000fd5b8152602001600b820160019054906101000a900460ff1660018111156131ed57634e487b7160e01b600052602160045260246000fd5b600181111561320c57634e487b7160e01b600052602160045260246000fd5b9052509050600061321b61366f565b90506132288282866149e6565b838260c00181815161323a9190615fd8565b9052506000858152600c60209081526040918290208451815590840151600180830180546001600160a01b03199081166001600160a01b0394851617909155938601516002840180548616918416919091179055606086015160038401556080860151600484015560a0860151600584015560c0860151600684015560e086015160078401805490951692169190911790925561010084015160088201556101208401516009820155610140840151600a820155610160840151600b82018054869460ff1990911690838181111561332257634e487b7160e01b600052602160045260246000fd5b0217905550610180820151600b8201805461ff00191661010083600181111561335b57634e487b7160e01b600052602160045260246000fd5b021790555050506000858152600f602090815260408083206001600160a01b038516845290915281208054869290613394908490615f81565b9091555050610120820151156133c4576133c4818360200151868561012001516133be9190615fb9565b85613797565b6133d48260200151828685613ca0565b816000015182602001516001600160a01b031683604001516001600160a01b03167f13f347bec00b07d4fa8ffa656bbcb29bd18e63fd4621925b71f60ff36c6425c984888760405161342893929190615c6f565b60405180910390a450506001600355505050565b60606007805461344b90616032565b80601f016020809104026020016040519081016040528092919081815260200182805461347790616032565b80156134c45780601f10613499576101008083540402835291602001916134c4565b820191906000526020600020905b8154815290600101906020018083116134a757829003601f168201915b5050505050905090565b6134db60006104a761366f565b6134f75760405162461bcd60e51b815260040161081790615d10565b600560009054906101000a90046001600160a01b03166001600160a01b031663fd967f476040518163ffffffff1660e01b815260040160206040518083038186803b15801561354557600080fd5b505afa158015613559573d6000803e3d6000fd5b505050506040513d601f19601f8201168201806040525081019061357d91906159c8565b6001600160801b031681106135d45760405162461bcd60e51b815260206004820152601f60248201527f4d61726b65743a20696e76616c69642062696420627566666572204250532e006044820152606401610817565b6009829055600a81905560408051838152602081018390527f441ed6470e96704c3f8c9e70c209107078aab3f17311385e886081b91aa75088910160405180910390a15050565b6004546000906001600160a01b031633141561363e575060131936013560601c90565b503390565b905090565b6136528282614cc8565b5050565b6000611adb836001600160a01b038416614d67565b3390565b600061364361361b565b60025460ff16156136bf5760405162461bcd60e51b815260206004820152601060248201526f14185d5cd8589b194e881c185d5cd95960821b6044820152606401610817565b6002805460ff191660011790557f62e78cea01bee320cd4e420270b5ea74000d11b0c9f74754ebdbfc544b05a2586136f561366f565b6040516001600160a01b03909116815260200160405180910390a1565b60025460ff166137645760405162461bcd60e51b815260206004820152601460248201527f5061757361626c653a206e6f74207061757365640000000000000000000000006044820152606401610817565b6002805460ff191690557f5db9ee0a495bf2e6ff9c91a7834c1ba4fdd244a5e8aa4e537bd38aeae4b073aa6136f561366f565b600080600560009054906101000a90046001600160a01b03166001600160a01b031663fd967f476040518163ffffffff1660e01b815260040160206040518083038186803b1580156137e857600080fd5b505afa1580156137fc573d6000803e3d6000fd5b505050506040513d601f19601f8201168201806040525081019061382091906159c8565b6008546001600160801b039182169161383a911686615fb9565b6138449190615f99565b60e084015160055460405163f2aab4b360e01b81523060048201529293506001600160a01b03918216926323b872dd928a92169063f2aab4b39060240160206040518083038186803b15801561389957600080fd5b505afa1580156138ad573d6000803e3d6000fd5b505050506040513d601f19601f820116820180604052508101906138d191906155ba565b6040516001600160e01b031960e085901b1681526001600160a01b0392831660048201529116602482015260448101849052606401602060405180830381600087803b15801561392057600080fd5b505af1158015613934573d6000803e3d6000fd5b505050506040513d601f19601f820116820180604052508101906139589190615811565b915060006139668286615fd8565b60408086015190516301ffc9a760e01b815263152a902d60e11b60048201529192506001600160a01b0316906301ffc9a79060240160206040518083038186803b1580156139b357600080fd5b505afa1580156139c7573d6000803e3d6000fd5b505050506040513d601f19601f820116820180604052508101906139eb9190615811565b15613bb25760008085604001516001600160a01b0316632a55205a8760600151896040518363ffffffff1660e01b8152600401613a32929190918252602082015260400190565b604080518083038186803b158015613a4957600080fd5b505afa158015613a5d573d6000803e3d6000fd5b505050506040513d601f19601f82011682018060405250810190613a819190615758565b90925090506001600160a01b03821615801590613a9e5750600081115b15613baf5786613aae8583615f81565b1115613b105760405162461bcd60e51b815260206004820152602b60248201527f4d61726b65743a20546f74616c206d61726b657420666565732065786365656460448201526a103a343290383934b1b29760a91b6064820152608401610817565b613b1a8184615fd8565b60e08701516040516323b872dd60e01b81526001600160a01b038c811660048301528581166024830152604482018590529295509116906323b872dd90606401602060405180830381600087803b158015613b7457600080fd5b505af1158015613b88573d6000803e3d6000fd5b505050506040513d601f19601f82011682018060405250810190613bac9190615811565b94505b50505b60e08401516040516323b872dd60e01b81526001600160a01b038981166004830152888116602483015260448201849052909116906323b872dd90606401602060405180830381600087803b158015613c0a57600080fd5b505af1158015613c1e573d6000803e3d6000fd5b505050506040513d601f19601f82011682018060405250810190613c429190615811565b9250826117555760405162461bcd60e51b815260206004820152602660248201527f4d61726b65743a206661696c656420746f207061796f7574207374616b65686f604482015265363232b9399760d11b6064820152608401610817565b60008161016001516001811115613cc757634e487b7160e01b600052602160045260246000fd5b1415613d5c5760408082015160608301519151637921219560e11b81526001600160a01b038781166004830152868116602483015260448201939093526064810185905260a06084820152600060a482015291169063f242432a9060c401600060405180830381600087803b158015613d3f57600080fd5b505af1158015613d53573d6000803e3d6000fd5b50505050613e11565b60018161016001516001811115613d8357634e487b7160e01b600052602160045260246000fd5b1415613e1157604080820151602083015160608401519251635c46a7ef60e11b81526001600160a01b039182166004820152868216602482015260448101939093526080606484015260006084840152169063b88d4fde9060a401600060405180830381600087803b158015613df857600080fd5b505af1158015613e0c573d6000803e3d6000fd5b505050505b50505050565b600082815260208190526040902060010154613e3a81613e3561366f565b614db6565b6110ad8383614cc8565b613e4c61366f565b6001600160a01b0316816001600160a01b031614613ec45760405162461bcd60e51b815260206004820152602f60248201527f416363657373436f6e74726f6c3a2063616e206f6e6c792072656e6f756e636560448201526e103937b632b9903337b91039b2b63360891b6064820152608401610817565b6136528282614e34565b6000611adb836001600160a01b038416614ed1565b6040516370a0823160e01b81526001600160a01b0384811660048301528291908416906370a082319060240160206040518083038186803b158015613f2757600080fd5b505afa158015613f3b573d6000803e3d6000fd5b505050506040513d601f19601f82011682018060405250810190613f5f9190615845565b10158015613fed5750604051636eb1769f60e11b81526001600160a01b03848116600483015230602483015282919084169063dd62ed3e9060440160206040518083038186803b158015613fb257600080fd5b505afa158015613fc6573d6000803e3d6000fd5b505050506040513d601f19601f82011682018060405250810190613fea9190615845565b10155b6110ad5760405162461bcd60e51b815260206004820152603960248201527f4d61726b65743a206d757374206f776e20616e6420617070726f7665204d617260448201527f6b657420746f207472616e736665722063757272656e63792e000000000000006064820152608401610817565b60008282118015611adb5750600a546005546040805163fd967f4760e01b8152905186926001600160a01b03169163fd967f47916004808301926020929190829003018186803b1580156140b257600080fd5b505afa1580156140c6573d6000803e3d6000fd5b505050506040513d601f19601f820116820180604052508101906140ea91906159c8565b6001600160801b03166140fd8686615fd8565b6141079190615fb9565b6141119190615f99565b10159392505050565b6040516370a0823160e01b81523060048201819052906000906001600160a01b038616906370a082319060240160206040518083038186803b15801561415f57600080fd5b505afa158015614173573d6000803e3d6000fd5b505050506040513d601f19601f820116820180604052508101906141979190615845565b6040516323b872dd60e01b81526001600160a01b0386811660048301528481166024830152604482018690529192506000918716906323b872dd90606401602060405180830381600087803b1580156141ef57600080fd5b505af1158015614203573d6000803e3d6000fd5b505050506040513d601f19601f820116820180604052508101906142279190615811565b6040516370a0823160e01b81526001600160a01b0385811660048301529192506000918816906370a082319060240160206040518083038186803b15801561426e57600080fd5b505afa158015614282573d6000803e3d6000fd5b505050506040513d601f19601f820116820180604052508101906142a69190615845565b90508180156142bd57506142ba8584615f81565b81145b6117555760405162461bcd60e51b815260206004820152602760248201527f4d61726b65743a206661696c656420746f207265636569766520696e636f6d696044820152663733903134b21760c91b6064820152608401610817565b600081614328575060006107e8565b600183600181111561434a57634e487b7160e01b600052602160045260246000fd5b146143555781611adb565b50600192915050565b6000611adb8383614fee565b6000308183600181111561438e57634e487b7160e01b600052602160045260246000fd5b14156144a657604051627eeac760e11b81526001600160a01b0388811660048301526024820187905285919088169062fdd58e9060440160206040518083038186803b1580156143dd57600080fd5b505afa1580156143f1573d6000803e3d6000fd5b505050506040513d601f19601f820116820180604052508101906144159190615845565b1015801561449f575060405163e985e9c560e01b81526001600160a01b038881166004830152828116602483015287169063e985e9c59060440160206040518083038186803b15801561446757600080fd5b505afa15801561447b573d6000803e3d6000fd5b505050506040513d601f19601f8201168201806040525081019061449f9190615811565b915061466d565b60018360018111156144c857634e487b7160e01b600052602160045260246000fd5b141561466d576040516331a9108f60e11b8152600481018690526001600160a01b038089169190881690636352211e9060240160206040518083038186803b15801561451357600080fd5b505afa158015614527573d6000803e3d6000fd5b505050506040513d601f19601f8201168201806040525081019061454b91906155ba565b6001600160a01b031614801561466a575060405163020604bf60e21b8152600481018690526001600160a01b03808316919088169063081812fc9060240160206040518083038186803b1580156145a157600080fd5b505afa1580156145b5573d6000803e3d6000fd5b505050506040513d601f19601f820116820180604052508101906145d991906155ba565b6001600160a01b0316148061466a575060405163e985e9c560e01b81526001600160a01b038881166004830152828116602483015287169063e985e9c59060440160206040518083038186803b15801561463257600080fd5b505afa158015614646573d6000803e3d6000fd5b505050506040513d601f19601f8201168201806040525081019061466a9190615811565b91505b5095945050505050565b6060611adb838360405180606001604052806027815260200161610b60279139615026565b60006107e8825490565b600680549060019060006146ba8385615f81565b9250508190555090565b6040516301ffc9a760e01b8152636cdb3d1360e11b60048201526000906001600160a01b038316906301ffc9a79060240160206040518083038186803b15801561470d57600080fd5b505afa158015614721573d6000803e3d6000fd5b505050506040513d601f19601f820116820180604052508101906147459190615811565b1561475257506000919050565b6040516301ffc9a760e01b81526380ac58cd60e01b60048201526001600160a01b038316906301ffc9a79060240160206040518083038186803b15801561479857600080fd5b505afa1580156147ac573d6000803e3d6000fd5b505050506040513d601f19601f820116820180604052508101906147d09190615811565b156147dd57506001919050565b60405162461bcd60e51b815260206004820152603860248201527f4d61726b65743a20746f6b656e206d75737420696d706c656d656e742065697460448201527f686572204552432031313535206f7220455243203732312e00000000000000006064820152608401610817565b919050565b600030614860878787878761436a565b9150811561466d57600083600181111561488a57634e487b7160e01b600052602160045260246000fd5b141561491457604051637921219560e11b81526001600160a01b0388811660048301528281166024830152604482018790526064820186905260a06084830152600060a483015287169063f242432a9060c401600060405180830381600087803b1580156148f757600080fd5b505af115801561490b573d6000803e3d6000fd5b5050505061466d565b600183600181111561493657634e487b7160e01b600052602160045260246000fd5b141561466d57604051635c46a7ef60e11b81526001600160a01b038881166004830152828116602483015260448201879052608060648301526000608483015287169063b88d4fde9060a401600060405180830381600087803b15801561499c57600080fd5b505af11580156149b0573d6000803e3d6000fd5b505050505095945050505050565b6000828152602081905260409020600101546149dc81613e3561366f565b6110ad8383614e34565b60008361018001516001811115614a0d57634e487b7160e01b600052602160045260246000fd5b14614a6d5760405162461bcd60e51b815260206004820152602a60248201527f4d61726b65743a2063616e206f6e6c79206275792066726f6d20646972656374604482015269103634b9ba34b733b99760b11b6064820152608401610817565b600081118015614a8157508260c001518111155b614af35760405162461bcd60e51b815260206004820152603160248201527f4d61726b65743a206d7573742062757920616e20617070726f7072696174652060448201527f616d6f756e74206f6620746f6b656e732e0000000000000000000000000000006064820152608401610817565b8260a001514211158015614b0b575082608001514210155b614b7d5760405162461bcd60e51b815260206004820152603260248201527f4d61726b65743a207468652073616c652068617320656974686572206e6f742060448201527f73746172746564206f7220636c6f7365642e00000000000000000000000000006064820152608401610817565b61014083015183516000908152600f602090815260408083206001600160a01b0387168452909152902054614bb29083615f81565b1115614c265760405162461bcd60e51b815260206004820152603460248201527f4d61726b65743a2043616e6e6f7420627579206d6f72652066726f6d206c697360448201527f74696e67207468616e207065726d69747465642e0000000000000000000000006064820152608401610817565b614c488360200151846040015185606001518660c0015187610160015161436a565b614ca95760405162461bcd60e51b815260206004820152602c60248201527f4d61726b65743a2063616e6e6f742062757920746f6b656e732066726f6d207460448201526b3434b9903634b9ba34b7339760a11b6064820152608401610817565b6110ad828460e0015185610120015184614cc39190615fb9565b613ee3565b6000828152602081815260408083206001600160a01b038516845290915290205460ff16613652576000828152602081815260408083206001600160a01b03851684529091529020805460ff19166001179055614d2361366f565b6001600160a01b0316816001600160a01b0316837f2f8788117e7eff1d82e926ec794901d17c78024a50270940304540a733656f0d60405160405180910390a45050565b6000818152600183016020526040812054614dae575081546001818101845560008481526020808220909301849055845484825282860190935260409020919091556107e8565b5060006107e8565b6000828152602081815260408083206001600160a01b038516845290915290205460ff1661365257614df2816001600160a01b031660146150fa565b614dfd8360206150fa565b604051602001614e0e929190615b91565b60408051601f198184030181529082905262461bcd60e51b825261081791600401615cfd565b6000828152602081815260408083206001600160a01b038516845290915290205460ff1615613652576000828152602081815260408083206001600160a01b03851684529091529020805460ff19169055614e8d61366f565b6001600160a01b0316816001600160a01b0316837ff6391f5c32d9c69d2a47ea670b442974b53935d1edc7fd64eb21e047a839171b60405160405180910390a45050565b60008181526001830160205260408120548015614fe4576000614ef5600183615fd8565b8554909150600090614f0990600190615fd8565b9050818114614f8a576000866000018281548110614f3757634e487b7160e01b600052603260045260246000fd5b9060005260206000200154905080876000018481548110614f6857634e487b7160e01b600052603260045260246000fd5b6000918252602080832090910192909255918252600188019052604090208390555b8554869080614fa957634e487b7160e01b600052603160045260246000fd5b6001900381819060005260206000200160009055905585600101600086815260200190815260200160002060009055600193505050506107e8565b60009150506107e8565b600082600001828154811061501357634e487b7160e01b600052603260045260246000fd5b9060005260206000200154905092915050565b6060833b6150855760405162461bcd60e51b815260206004820152602660248201527f416464726573733a2064656c65676174652063616c6c20746f206e6f6e2d636f6044820152651b9d1c9858dd60d21b6064820152608401610817565b600080856001600160a01b0316856040516150a09190615b75565b600060405180830381855af49150503d80600081146150db576040519150601f19603f3d011682016040523d82523d6000602084013e6150e0565b606091505b50915091506150f08282866152dc565b9695505050505050565b60606000615109836002615fb9565b615114906002615f81565b67ffffffffffffffff81111561513a57634e487b7160e01b600052604160045260246000fd5b6040519080825280601f01601f191660200182016040528015615164576020820181803683370190505b509050600360fc1b8160008151811061518d57634e487b7160e01b600052603260045260246000fd5b60200101906001600160f81b031916908160001a905350600f60fb1b816001815181106151ca57634e487b7160e01b600052603260045260246000fd5b60200101906001600160f81b031916908160001a90535060006151ee846002615fb9565b6151f9906001615f81565b90505b600181111561528d576f181899199a1a9b1b9c1cb0b131b232b360811b85600f166010811061523b57634e487b7160e01b600052603260045260246000fd5b1a60f81b82828151811061525f57634e487b7160e01b600052603260045260246000fd5b60200101906001600160f81b031916908160001a90535060049490941c936152868161601b565b90506151fc565b508315611adb5760405162461bcd60e51b815260206004820181905260248201527f537472696e67733a20686578206c656e67746820696e73756666696369656e746044820152606401610817565b606083156152eb575081611adb565b8251156152fb5782518084602001fd5b8160405162461bcd60e51b81526004016108179190615cfd565b604051806101a001604052806000815260200160006001600160a01b0316815260200160006001600160a01b031681526020016000815260200160008152602001600081526020016000815260200160006001600160a01b03168152602001600081526020016000815260200160008152602001600060018111156153aa57634e487b7160e01b600052602160045260246000fd5b81526020016000905290565b8280546153c290616032565b90600052602060002090601f0160209004810192826153e4576000855561542a565b82601f106153fd5782800160ff1982351617855561542a565b8280016001018555821561542a579182015b8281111561542a57823582559160200191906001019061540f565b5061543692915061543a565b5090565b5b80821115615436576000815560010161543b565b803561484b816160d2565b600082601f83011261546a578081fd5b8135602067ffffffffffffffff8211156154865761548661609e565b8160051b615495828201615f50565b8381528281019086840183880185018910156154af578687fd5b8693505b858410156154d15780358352600193909301929184019184016154b3565b50979650505050505050565b60008083601f8401126154ee578182fd5b50813567ffffffffffffffff811115615505578182fd5b60208301915083602082850101111561551d57600080fd5b9250929050565b600082601f830112615534578081fd5b813567ffffffffffffffff81111561554e5761554e61609e565b615561601f8201601f1916602001615f50565b818152846020838601011115615575578283fd5b816020850160208301379081016020019190915292915050565b80356002811061484b57600080fd5b6000602082840312156155af578081fd5b8135611adb816160d2565b6000602082840312156155cb578081fd5b8151611adb816160d2565b600080600080600060a086880312156155ed578081fd5b85356155f8816160d2565b94506020860135615608816160d2565b9350604086013567ffffffffffffffff80821115615624578283fd5b61563089838a0161545a565b94506060880135915080821115615645578283fd5b61565189838a0161545a565b93506080880135915080821115615666578283fd5b5061567388828901615524565b9150509295509295909350565b600080600080600060808688031215615697578081fd5b85356156a2816160d2565b945060208601356156b2816160d2565b935060408601359250606086013567ffffffffffffffff8111156156d4578182fd5b6156e0888289016154dd565b969995985093965092949392505050565b600080600080600060a08688031215615708578283fd5b8535615713816160d2565b94506020860135615723816160d2565b93506040860135925060608601359150608086013567ffffffffffffffff81111561574c578182fd5b61567388828901615524565b6000806040838503121561576a578182fd5b8251615775816160d2565b6020939093015192949293505050565b60008060208385031215615797578182fd5b823567ffffffffffffffff808211156157ae578384fd5b818501915085601f8301126157c1578384fd5b8135818111156157cf578485fd5b8660208260051b85010111156157e3578485fd5b60209290920196919550909350505050565b600060208284031215615806578081fd5b8135611adb816160e7565b600060208284031215615822578081fd5b8151611adb816160e7565b60006020828403121561583e578081fd5b5035919050565b600060208284031215615856578081fd5b5051919050565b6000806040838503121561586f578182fd5b823591506020830135615881816160d2565b809150509250929050565b6000806040838503121561589e578182fd5b50508035926020909101359150565b6000602082840312156158be578081fd5b81356001600160e01b031981168114611adb578182fd5b600080602083850312156158e7578182fd5b823567ffffffffffffffff8111156158fd578283fd5b615909858286016154dd565b90969095509350505050565b60006101408284031215615927578081fd5b61592f615f26565b6159388361544f565b81526020830135602082015260408301356040820152606083013560608201526080830135608082015261596e60a0840161544f565b60a082015260c083013560c082015260e083013560e08201526101008084013581830152506101206159a181850161558f565b908201529392505050565b6000602082840312156159bd578081fd5b8135611adb816160f5565b6000602082840312156159d9578081fd5b8151611adb816160f5565b6000806000606084860312156159f8578081fd5b505081359360208301359350604090920135919050565b600080600080600080600080610100898b031215615a2b578586fd5b883597506020890135965060408901359550606089013594506080890135935060a0890135615a59816160d2565b979a969950949793969295929450505060c08201359160e0013590565b60008151808452615a8e816020860160208601615fef565b601f01601f19169290920160200192915050565b615aab816160b4565b9052565b805182526020810151615acd60208401826001600160a01b03169052565b506040810151615ae860408401826001600160a01b03169052565b50606081015160608301526080810151608083015260a081015160a083015260c081015160c083015260e0810151615b2b60e08401826001600160a01b03169052565b5061010081810151908301526101208082015190830152610140808201519083015261016080820151615b6082850182615aa2565b505061018080820151613e1182850182615aa2565b60008251615b87818460208701615fef565b9190910192915050565b7f416363657373436f6e74726f6c3a206163636f756e7420000000000000000000815260008351615bc9816017850160208801615fef565b7f206973206d697373696e6720726f6c65200000000000000000000000000000006017918401918201528351615c06816028840160208801615fef565b01602801949350505050565b6001600160a01b038581168252841660208201526102608101615c626040830185805182526001600160a01b03602082015116602083015260408101516040830152606081015160608301525050565b6109d960c0830184615aaf565b6001600160a01b0384168152602081018390526101e08101615c946040830184615aaf565b949350505050565b6000602080830181845280855180835260408601915060408160051b8701019250838701855b82811015615cf057603f19888603018452615cde858351615a76565b94509285019290850190600101615cc2565b5092979650505050505050565b602081526000611adb6020830184615a76565b60208082526033908201527f4d61726b65743a206f6e6c792061206d6f64756c652061646d696e2063616e2060408201527f63616c6c20746869732066756e6374696f6e2e00000000000000000000000000606082015260800190565b60208082526030908201527f4d61726b65743a206d757374206f776e20616e6420617070726f766520746f2060408201526f3a3930b739b332b9103a37b5b2b7399760811b606082015260800190565b6020808252602c908201527f4d61726b65743a2063616c6c657220646f6573206e6f7420746865206c69737460408201526b34b7339031b932b0ba37b91760a11b606082015260800190565b6101a081016107e88284615aaf565b825181526020808401516001600160a01b03169082015260408084015190820152606080840151908201526102208101611adb6080830184615aaf565b60006101a0820190508e82526001600160a01b03808f166020840152808e1660408401528c60608401528b60808401528a60a08401528960c084015280891660e084015250866101008301528561012083015284610140830152615eb8846160b4565b83610160830152615ec8836160b4565b826101808301529e9d5050505050505050505050505050565b6000808335601e19843603018112615ef7578283fd5b83018035915067ffffffffffffffff821115615f11578283fd5b60200191503681900382131561551d57600080fd5b604051610140810167ffffffffffffffff81118282101715615f4a57615f4a61609e565b60405290565b604051601f8201601f1916810167ffffffffffffffff81118282101715615f7957615f7961609e565b604052919050565b60008219821115615f9457615f94616088565b500190565b600082615fb457634e487b7160e01b81526012600452602481fd5b500490565b6000816000190483118215151615615fd357615fd3616088565b500290565b600082821015615fea57615fea616088565b500390565b60005b8381101561600a578181015183820152602001615ff2565b83811115613e115750506000910152565b60008161602a5761602a616088565b506000190190565b600181811c9082168061604657607f821691505b6020821081141561606757634e487b7160e01b600052602260045260246000fd5b50919050565b600060001982141561608157616081616088565b5060010190565b634e487b7160e01b600052601160045260246000fd5b634e487b7160e01b600052604160045260246000fd5b60028110610a6857634e487b7160e01b600052602160045260246000fd5b6001600160a01b0381168114610a6857600080fd5b8015158114610a6857600080fd5b6001600160801b0381168114610a6857600080fdfe416464726573733a206c6f772d6c6576656c2064656c65676174652063616c6c206661696c6564a164736f6c6343000804000a",
  "linkReferences": {},
  "deployedLinkReferences": {}
}