{
  "_format": "hh-sol-artifact-1",
  "contractName": "Market",
  "sourceName": "contracts/v2/Market.sol",
  "abi": [
    {
      "inputs": [
        {
          "internalType": "address payable",
          "name": "_controlCenter",
          "type": "address"
        },
        {
          "internalType": "address",
          "name": "_trustedForwarder",
          "type": "address"
        },
        {
          "internalType": "string",
          "name": "_uri",
          "type": "string"
        }
      ],
      "stateMutability": "nonpayable",
      "type": "constructor"
    },
    {
      "anonymous": false,
      "inputs": [
        {
          "indexed": false,
          "internalType": "uint256",
          "name": "timeBuffer",
          "type": "uint256"
        },
        {
          "indexed": false,
          "internalType": "uint256",
          "name": "bidBufferBps",
          "type": "uint256"
        }
      ],
      "name": "AuctionBuffersUpdated",
      "type": "event"
    },
    {
      "anonymous": false,
      "inputs": [
        {
          "indexed": true,
          "internalType": "uint256",
          "name": "listingId",
          "type": "uint256"
        },
        {
          "indexed": true,
          "internalType": "address",
          "name": "auctionCreator",
          "type": "address"
        },
        {
          "components": [
            {
              "internalType": "uint256",
              "name": "listingId",
              "type": "uint256"
            },
            {
              "internalType": "address",
              "name": "tokenOwner",
              "type": "address"
            },
            {
              "internalType": "address",
              "name": "assetContract",
              "type": "address"
            },
            {
              "internalType": "uint256",
              "name": "tokenId",
              "type": "uint256"
            },
            {
              "internalType": "uint256",
              "name": "startTime",
              "type": "uint256"
            },
            {
              "internalType": "uint256",
              "name": "endTime",
              "type": "uint256"
            },
            {
              "internalType": "uint256",
              "name": "quantity",
              "type": "uint256"
            },
            {
              "internalType": "address",
              "name": "currency",
              "type": "address"
            },
            {
              "internalType": "uint256",
              "name": "reservePricePerToken",
              "type": "uint256"
            },
            {
              "internalType": "uint256",
              "name": "buyoutPricePerToken",
              "type": "uint256"
            },
            {
              "internalType": "uint256",
              "name": "tokensPerBuyer",
              "type": "uint256"
            },
            {
              "internalType": "enum IMarket.TokenType",
              "name": "tokenType",
              "type": "uint8"
            },
            {
              "internalType": "enum IMarket.ListingType",
              "name": "listingType",
              "type": "uint8"
            }
          ],
          "indexed": false,
          "internalType": "struct IMarket.Listing",
          "name": "listing",
          "type": "tuple"
        }
      ],
      "name": "AuctionCanceled",
      "type": "event"
    },
    {
      "anonymous": false,
      "inputs": [
        {
          "indexed": true,
          "internalType": "uint256",
          "name": "listingId",
          "type": "uint256"
        },
        {
          "indexed": true,
          "internalType": "address",
          "name": "closer",
          "type": "address"
        },
        {
          "indexed": false,
          "internalType": "address",
          "name": "auctionCreator",
          "type": "address"
        },
        {
          "indexed": false,
          "internalType": "address",
          "name": "winningBidder",
          "type": "address"
        },
        {
          "components": [
            {
              "internalType": "uint256",
              "name": "listingId",
              "type": "uint256"
            },
            {
              "internalType": "address",
              "name": "offeror",
              "type": "address"
            },
            {
              "internalType": "uint256",
              "name": "quantityWanted",
              "type": "uint256"
            },
            {
              "internalType": "uint256",
              "name": "offerAmount",
              "type": "uint256"
            }
          ],
          "indexed": false,
          "internalType": "struct IMarket.Offer",
          "name": "winningBid",
          "type": "tuple"
        },
        {
          "components": [
            {
              "internalType": "uint256",
              "name": "listingId",
              "type": "uint256"
            },
            {
              "internalType": "address",
              "name": "tokenOwner",
              "type": "address"
            },
            {
              "internalType": "address",
              "name": "assetContract",
              "type": "address"
            },
            {
              "internalType": "uint256",
              "name": "tokenId",
              "type": "uint256"
            },
            {
              "internalType": "uint256",
              "name": "startTime",
              "type": "uint256"
            },
            {
              "internalType": "uint256",
              "name": "endTime",
              "type": "uint256"
            },
            {
              "internalType": "uint256",
              "name": "quantity",
              "type": "uint256"
            },
            {
              "internalType": "address",
              "name": "currency",
              "type": "address"
            },
            {
              "internalType": "uint256",
              "name": "reservePricePerToken",
              "type": "uint256"
            },
            {
              "internalType": "uint256",
              "name": "buyoutPricePerToken",
              "type": "uint256"
            },
            {
              "internalType": "uint256",
              "name": "tokensPerBuyer",
              "type": "uint256"
            },
            {
              "internalType": "enum IMarket.TokenType",
              "name": "tokenType",
              "type": "uint8"
            },
            {
              "internalType": "enum IMarket.ListingType",
              "name": "listingType",
              "type": "uint8"
            }
          ],
          "indexed": false,
          "internalType": "struct IMarket.Listing",
          "name": "listing",
          "type": "tuple"
        }
      ],
      "name": "AuctionClosed",
      "type": "event"
    },
    {
      "anonymous": false,
      "inputs": [
        {
          "indexed": true,
          "internalType": "address",
          "name": "listingCreator",
          "type": "address"
        },
        {
          "indexed": true,
          "internalType": "uint256",
          "name": "listingId",
          "type": "uint256"
        },
        {
          "components": [
            {
              "internalType": "uint256",
              "name": "listingId",
              "type": "uint256"
            },
            {
              "internalType": "address",
              "name": "tokenOwner",
              "type": "address"
            },
            {
              "internalType": "address",
              "name": "assetContract",
              "type": "address"
            },
            {
              "internalType": "uint256",
              "name": "tokenId",
              "type": "uint256"
            },
            {
              "internalType": "uint256",
              "name": "startTime",
              "type": "uint256"
            },
            {
              "internalType": "uint256",
              "name": "endTime",
              "type": "uint256"
            },
            {
              "internalType": "uint256",
              "name": "quantity",
              "type": "uint256"
            },
            {
              "internalType": "address",
              "name": "currency",
              "type": "address"
            },
            {
              "internalType": "uint256",
              "name": "reservePricePerToken",
              "type": "uint256"
            },
            {
              "internalType": "uint256",
              "name": "buyoutPricePerToken",
              "type": "uint256"
            },
            {
              "internalType": "uint256",
              "name": "tokensPerBuyer",
              "type": "uint256"
            },
            {
              "internalType": "enum IMarket.TokenType",
              "name": "tokenType",
              "type": "uint8"
            },
            {
              "internalType": "enum IMarket.ListingType",
              "name": "listingType",
              "type": "uint8"
            }
          ],
          "indexed": false,
          "internalType": "struct IMarket.Listing",
          "name": "listing",
          "type": "tuple"
        }
      ],
      "name": "ListingUpdate",
      "type": "event"
    },
    {
      "anonymous": false,
      "inputs": [
        {
          "indexed": false,
          "internalType": "uint128",
          "name": "newFee",
          "type": "uint128"
        }
      ],
      "name": "MarketFeeUpdate",
      "type": "event"
    },
    {
      "anonymous": false,
      "inputs": [
        {
          "indexed": true,
          "internalType": "uint256",
          "name": "listingId",
          "type": "uint256"
        },
        {
          "indexed": true,
          "internalType": "address",
          "name": "bidder",
          "type": "address"
        },
        {
          "components": [
            {
              "internalType": "uint256",
              "name": "listingId",
              "type": "uint256"
            },
            {
              "internalType": "address",
              "name": "offeror",
              "type": "address"
            },
            {
              "internalType": "uint256",
              "name": "quantityWanted",
              "type": "uint256"
            },
            {
              "internalType": "uint256",
              "name": "offerAmount",
              "type": "uint256"
            }
          ],
          "indexed": false,
          "internalType": "struct IMarket.Offer",
          "name": "bid",
          "type": "tuple"
        },
        {
          "components": [
            {
              "internalType": "uint256",
              "name": "listingId",
              "type": "uint256"
            },
            {
              "internalType": "address",
              "name": "tokenOwner",
              "type": "address"
            },
            {
              "internalType": "address",
              "name": "assetContract",
              "type": "address"
            },
            {
              "internalType": "uint256",
              "name": "tokenId",
              "type": "uint256"
            },
            {
              "internalType": "uint256",
              "name": "startTime",
              "type": "uint256"
            },
            {
              "internalType": "uint256",
              "name": "endTime",
              "type": "uint256"
            },
            {
              "internalType": "uint256",
              "name": "quantity",
              "type": "uint256"
            },
            {
              "internalType": "address",
              "name": "currency",
              "type": "address"
            },
            {
              "internalType": "uint256",
              "name": "reservePricePerToken",
              "type": "uint256"
            },
            {
              "internalType": "uint256",
              "name": "buyoutPricePerToken",
              "type": "uint256"
            },
            {
              "internalType": "uint256",
              "name": "tokensPerBuyer",
              "type": "uint256"
            },
            {
              "internalType": "enum IMarket.TokenType",
              "name": "tokenType",
              "type": "uint8"
            },
            {
              "internalType": "enum IMarket.ListingType",
              "name": "listingType",
              "type": "uint8"
            }
          ],
          "indexed": false,
          "internalType": "struct IMarket.Listing",
          "name": "listing",
          "type": "tuple"
        }
      ],
      "name": "NewBid",
      "type": "event"
    },
    {
      "anonymous": false,
      "inputs": [
        {
          "indexed": true,
          "internalType": "address",
          "name": "assetContract",
          "type": "address"
        },
        {
          "indexed": true,
          "internalType": "address",
          "name": "seller",
          "type": "address"
        },
        {
          "indexed": true,
          "internalType": "uint256",
          "name": "listingId",
          "type": "uint256"
        },
        {
          "indexed": false,
          "internalType": "address",
          "name": "buyer",
          "type": "address"
        },
        {
          "indexed": false,
          "internalType": "uint256",
          "name": "quantity",
          "type": "uint256"
        },
        {
          "components": [
            {
              "internalType": "uint256",
              "name": "listingId",
              "type": "uint256"
            },
            {
              "internalType": "address",
              "name": "tokenOwner",
              "type": "address"
            },
            {
              "internalType": "address",
              "name": "assetContract",
              "type": "address"
            },
            {
              "internalType": "uint256",
              "name": "tokenId",
              "type": "uint256"
            },
            {
              "internalType": "uint256",
              "name": "startTime",
              "type": "uint256"
            },
            {
              "internalType": "uint256",
              "name": "endTime",
              "type": "uint256"
            },
            {
              "internalType": "uint256",
              "name": "quantity",
              "type": "uint256"
            },
            {
              "internalType": "address",
              "name": "currency",
              "type": "address"
            },
            {
              "internalType": "uint256",
              "name": "reservePricePerToken",
              "type": "uint256"
            },
            {
              "internalType": "uint256",
              "name": "buyoutPricePerToken",
              "type": "uint256"
            },
            {
              "internalType": "uint256",
              "name": "tokensPerBuyer",
              "type": "uint256"
            },
            {
              "internalType": "enum IMarket.TokenType",
              "name": "tokenType",
              "type": "uint8"
            },
            {
              "internalType": "enum IMarket.ListingType",
              "name": "listingType",
              "type": "uint8"
            }
          ],
          "indexed": false,
          "internalType": "struct IMarket.Listing",
          "name": "listing",
          "type": "tuple"
        }
      ],
      "name": "NewDirectSale",
      "type": "event"
    },
    {
      "anonymous": false,
      "inputs": [
        {
          "indexed": true,
          "internalType": "address",
          "name": "assetContract",
          "type": "address"
        },
        {
          "indexed": true,
          "internalType": "address",
          "name": "seller",
          "type": "address"
        },
        {
          "indexed": true,
          "internalType": "uint256",
          "name": "listingId",
          "type": "uint256"
        },
        {
          "components": [
            {
              "internalType": "uint256",
              "name": "listingId",
              "type": "uint256"
            },
            {
              "internalType": "address",
              "name": "tokenOwner",
              "type": "address"
            },
            {
              "internalType": "address",
              "name": "assetContract",
              "type": "address"
            },
            {
              "internalType": "uint256",
              "name": "tokenId",
              "type": "uint256"
            },
            {
              "internalType": "uint256",
              "name": "startTime",
              "type": "uint256"
            },
            {
              "internalType": "uint256",
              "name": "endTime",
              "type": "uint256"
            },
            {
              "internalType": "uint256",
              "name": "quantity",
              "type": "uint256"
            },
            {
              "internalType": "address",
              "name": "currency",
              "type": "address"
            },
            {
              "internalType": "uint256",
              "name": "reservePricePerToken",
              "type": "uint256"
            },
            {
              "internalType": "uint256",
              "name": "buyoutPricePerToken",
              "type": "uint256"
            },
            {
              "internalType": "uint256",
              "name": "tokensPerBuyer",
              "type": "uint256"
            },
            {
              "internalType": "enum IMarket.TokenType",
              "name": "tokenType",
              "type": "uint8"
            },
            {
              "internalType": "enum IMarket.ListingType",
              "name": "listingType",
              "type": "uint8"
            }
          ],
          "indexed": false,
          "internalType": "struct IMarket.Listing",
          "name": "listing",
          "type": "tuple"
        }
      ],
      "name": "NewListing",
      "type": "event"
    },
    {
      "anonymous": false,
      "inputs": [
        {
          "indexed": true,
          "internalType": "uint256",
          "name": "listingId",
          "type": "uint256"
        },
        {
          "indexed": true,
          "internalType": "address",
          "name": "offeror",
          "type": "address"
        },
        {
          "components": [
            {
              "internalType": "uint256",
              "name": "listingId",
              "type": "uint256"
            },
            {
              "internalType": "address",
              "name": "offeror",
              "type": "address"
            },
            {
              "internalType": "uint256",
              "name": "quantityWanted",
              "type": "uint256"
            },
            {
              "internalType": "uint256",
              "name": "offerAmount",
              "type": "uint256"
            }
          ],
          "indexed": false,
          "internalType": "struct IMarket.Offer",
          "name": "offer",
          "type": "tuple"
        },
        {
          "components": [
            {
              "internalType": "uint256",
              "name": "listingId",
              "type": "uint256"
            },
            {
              "internalType": "address",
              "name": "tokenOwner",
              "type": "address"
            },
            {
              "internalType": "address",
              "name": "assetContract",
              "type": "address"
            },
            {
              "internalType": "uint256",
              "name": "tokenId",
              "type": "uint256"
            },
            {
              "internalType": "uint256",
              "name": "startTime",
              "type": "uint256"
            },
            {
              "internalType": "uint256",
              "name": "endTime",
              "type": "uint256"
            },
            {
              "internalType": "uint256",
              "name": "quantity",
              "type": "uint256"
            },
            {
              "internalType": "address",
              "name": "currency",
              "type": "address"
            },
            {
              "internalType": "uint256",
              "name": "reservePricePerToken",
              "type": "uint256"
            },
            {
              "internalType": "uint256",
              "name": "buyoutPricePerToken",
              "type": "uint256"
            },
            {
              "internalType": "uint256",
              "name": "tokensPerBuyer",
              "type": "uint256"
            },
            {
              "internalType": "enum IMarket.TokenType",
              "name": "tokenType",
              "type": "uint8"
            },
            {
              "internalType": "enum IMarket.ListingType",
              "name": "listingType",
              "type": "uint8"
            }
          ],
          "indexed": false,
          "internalType": "struct IMarket.Listing",
          "name": "listing",
          "type": "tuple"
        }
      ],
      "name": "NewOffer",
      "type": "event"
    },
    {
      "anonymous": false,
      "inputs": [
        {
          "indexed": false,
          "internalType": "address",
          "name": "account",
          "type": "address"
        }
      ],
      "name": "Paused",
      "type": "event"
    },
    {
      "anonymous": false,
      "inputs": [
        {
          "indexed": false,
          "internalType": "bool",
          "name": "restricted",
          "type": "bool"
        }
      ],
      "name": "RestrictedListerRoleUpdated",
      "type": "event"
    },
    {
      "anonymous": false,
      "inputs": [
        {
          "indexed": true,
          "internalType": "bytes32",
          "name": "role",
          "type": "bytes32"
        },
        {
          "indexed": true,
          "internalType": "bytes32",
          "name": "previousAdminRole",
          "type": "bytes32"
        },
        {
          "indexed": true,
          "internalType": "bytes32",
          "name": "newAdminRole",
          "type": "bytes32"
        }
      ],
      "name": "RoleAdminChanged",
      "type": "event"
    },
    {
      "anonymous": false,
      "inputs": [
        {
          "indexed": true,
          "internalType": "bytes32",
          "name": "role",
          "type": "bytes32"
        },
        {
          "indexed": true,
          "internalType": "address",
          "name": "account",
          "type": "address"
        },
        {
          "indexed": true,
          "internalType": "address",
          "name": "sender",
          "type": "address"
        }
      ],
      "name": "RoleGranted",
      "type": "event"
    },
    {
      "anonymous": false,
      "inputs": [
        {
          "indexed": true,
          "internalType": "bytes32",
          "name": "role",
          "type": "bytes32"
        },
        {
          "indexed": true,
          "internalType": "address",
          "name": "account",
          "type": "address"
        },
        {
          "indexed": true,
          "internalType": "address",
          "name": "sender",
          "type": "address"
        }
      ],
      "name": "RoleRevoked",
      "type": "event"
    },
    {
      "anonymous": false,
      "inputs": [
        {
          "indexed": false,
          "internalType": "address",
          "name": "account",
          "type": "address"
        }
      ],
      "name": "Unpaused",
      "type": "event"
    },
    {
      "inputs": [],
      "name": "DEFAULT_ADMIN_ROLE",
      "outputs": [
        {
          "internalType": "bytes32",
          "name": "",
          "type": "bytes32"
        }
      ],
      "stateMutability": "view",
      "type": "function"
    },
    {
      "inputs": [],
      "name": "LISTER_ROLE",
      "outputs": [
        {
          "internalType": "bytes32",
          "name": "",
          "type": "bytes32"
        }
      ],
      "stateMutability": "view",
      "type": "function"
    },
    {
      "inputs": [],
      "name": "PAUSER_ROLE",
      "outputs": [
        {
          "internalType": "bytes32",
          "name": "",
          "type": "bytes32"
        }
      ],
      "stateMutability": "view",
      "type": "function"
    },
    {
      "inputs": [],
      "name": "_contractURI",
      "outputs": [
        {
          "internalType": "string",
          "name": "",
          "type": "string"
        }
      ],
      "stateMutability": "view",
      "type": "function"
    },
    {
      "inputs": [
        {
          "internalType": "uint256",
          "name": "_listingId",
          "type": "uint256"
        },
        {
          "internalType": "address",
          "name": "offeror",
          "type": "address"
        }
      ],
      "name": "acceptOffer",
      "outputs": [],
      "stateMutability": "nonpayable",
      "type": "function"
    },
    {
      "inputs": [
        {
          "internalType": "uint256",
          "name": "_listingId",
          "type": "uint256"
        },
        {
          "internalType": "uint256",
          "name": "_bidAmount",
          "type": "uint256"
        }
      ],
      "name": "bid",
      "outputs": [],
      "stateMutability": "nonpayable",
      "type": "function"
    },
    {
      "inputs": [],
      "name": "bidBufferBps",
      "outputs": [
        {
          "internalType": "uint256",
          "name": "",
          "type": "uint256"
        }
      ],
      "stateMutability": "view",
      "type": "function"
    },
    {
      "inputs": [
        {
          "internalType": "uint256",
          "name": "",
          "type": "uint256"
        },
        {
          "internalType": "address",
          "name": "",
          "type": "address"
        }
      ],
      "name": "boughtFromListing",
      "outputs": [
        {
          "internalType": "uint256",
          "name": "",
          "type": "uint256"
        }
      ],
      "stateMutability": "view",
      "type": "function"
    },
    {
      "inputs": [
        {
          "internalType": "uint256",
          "name": "_listingId",
          "type": "uint256"
        },
        {
          "internalType": "uint256",
          "name": "_quantityToBuy",
          "type": "uint256"
        }
      ],
      "name": "buy",
      "outputs": [],
      "stateMutability": "nonpayable",
      "type": "function"
    },
    {
      "inputs": [
        {
          "internalType": "uint256",
          "name": "_listingId",
          "type": "uint256"
        }
      ],
      "name": "cancelAuction",
      "outputs": [],
      "stateMutability": "nonpayable",
      "type": "function"
    },
    {
      "inputs": [
        {
          "internalType": "uint256",
          "name": "_listingId",
          "type": "uint256"
        }
      ],
      "name": "closeAuction",
      "outputs": [],
      "stateMutability": "nonpayable",
      "type": "function"
    },
    {
      "inputs": [],
      "name": "contractURI",
      "outputs": [
        {
          "internalType": "string",
          "name": "",
          "type": "string"
        }
      ],
      "stateMutability": "view",
      "type": "function"
    },
    {
      "inputs": [
        {
          "components": [
            {
              "internalType": "address",
              "name": "assetContract",
              "type": "address"
            },
            {
              "internalType": "uint256",
              "name": "tokenId",
              "type": "uint256"
            },
            {
              "internalType": "uint256",
              "name": "secondsUntilStartTime",
              "type": "uint256"
            },
            {
              "internalType": "uint256",
              "name": "secondsUntilEndTime",
              "type": "uint256"
            },
            {
              "internalType": "uint256",
              "name": "quantityToList",
              "type": "uint256"
            },
            {
              "internalType": "address",
              "name": "currencyToAccept",
              "type": "address"
            },
            {
              "internalType": "uint256",
              "name": "reservePricePerToken",
              "type": "uint256"
            },
            {
              "internalType": "uint256",
              "name": "buyoutPricePerToken",
              "type": "uint256"
            },
            {
              "internalType": "uint256",
              "name": "tokensPerBuyer",
              "type": "uint256"
            },
            {
              "internalType": "enum IMarket.ListingType",
              "name": "listingType",
              "type": "uint8"
            }
          ],
          "internalType": "struct IMarket.ListingParameters",
          "name": "_params",
          "type": "tuple"
        }
      ],
      "name": "createListing",
      "outputs": [],
      "stateMutability": "nonpayable",
      "type": "function"
    },
    {
      "inputs": [
        {
          "internalType": "uint256",
          "name": "_listingId",
          "type": "uint256"
        },
        {
          "internalType": "uint256",
          "name": "_quantityToList",
          "type": "uint256"
        },
        {
          "internalType": "uint256",
          "name": "_reservePricePerToken",
          "type": "uint256"
        },
        {
          "internalType": "uint256",
          "name": "_buyoutPricePerToken",
          "type": "uint256"
        },
        {
          "internalType": "uint256",
          "name": "_tokensPerBuyer",
          "type": "uint256"
        },
        {
          "internalType": "address",
          "name": "_currencyToAccept",
          "type": "address"
        },
        {
          "internalType": "uint256",
          "name": "_secondsUntilStartTime",
          "type": "uint256"
        },
        {
          "internalType": "uint256",
          "name": "_secondsUntilEndTime",
          "type": "uint256"
        }
      ],
      "name": "editListingParametrs",
      "outputs": [],
      "stateMutability": "nonpayable",
      "type": "function"
    },
    {
      "inputs": [
        {
          "internalType": "uint256",
          "name": "_listingId",
          "type": "uint256"
        }
      ],
      "name": "getListing",
      "outputs": [
        {
          "components": [
            {
              "internalType": "uint256",
              "name": "listingId",
              "type": "uint256"
            },
            {
              "internalType": "address",
              "name": "tokenOwner",
              "type": "address"
            },
            {
              "internalType": "address",
              "name": "assetContract",
              "type": "address"
            },
            {
              "internalType": "uint256",
              "name": "tokenId",
              "type": "uint256"
            },
            {
              "internalType": "uint256",
              "name": "startTime",
              "type": "uint256"
            },
            {
              "internalType": "uint256",
              "name": "endTime",
              "type": "uint256"
            },
            {
              "internalType": "uint256",
              "name": "quantity",
              "type": "uint256"
            },
            {
              "internalType": "address",
              "name": "currency",
              "type": "address"
            },
            {
              "internalType": "uint256",
              "name": "reservePricePerToken",
              "type": "uint256"
            },
            {
              "internalType": "uint256",
              "name": "buyoutPricePerToken",
              "type": "uint256"
            },
            {
              "internalType": "uint256",
              "name": "tokensPerBuyer",
              "type": "uint256"
            },
            {
              "internalType": "enum IMarket.TokenType",
              "name": "tokenType",
              "type": "uint8"
            },
            {
              "internalType": "enum IMarket.ListingType",
              "name": "listingType",
              "type": "uint8"
            }
          ],
          "internalType": "struct IMarket.Listing",
          "name": "listing",
          "type": "tuple"
        }
      ],
      "stateMutability": "view",
      "type": "function"
    },
    {
      "inputs": [
        {
          "internalType": "bytes32",
          "name": "role",
          "type": "bytes32"
        }
      ],
      "name": "getRoleAdmin",
      "outputs": [
        {
          "internalType": "bytes32",
          "name": "",
          "type": "bytes32"
        }
      ],
      "stateMutability": "view",
      "type": "function"
    },
    {
      "inputs": [
        {
          "internalType": "bytes32",
          "name": "role",
          "type": "bytes32"
        },
        {
          "internalType": "uint256",
          "name": "index",
          "type": "uint256"
        }
      ],
      "name": "getRoleMember",
      "outputs": [
        {
          "internalType": "address",
          "name": "",
          "type": "address"
        }
      ],
      "stateMutability": "view",
      "type": "function"
    },
    {
      "inputs": [
        {
          "internalType": "bytes32",
          "name": "role",
          "type": "bytes32"
        }
      ],
      "name": "getRoleMemberCount",
      "outputs": [
        {
          "internalType": "uint256",
          "name": "",
          "type": "uint256"
        }
      ],
      "stateMutability": "view",
      "type": "function"
    },
    {
      "inputs": [
        {
          "internalType": "bytes32",
          "name": "role",
          "type": "bytes32"
        },
        {
          "internalType": "address",
          "name": "account",
          "type": "address"
        }
      ],
      "name": "grantRole",
      "outputs": [],
      "stateMutability": "nonpayable",
      "type": "function"
    },
    {
      "inputs": [
        {
          "internalType": "bytes32",
          "name": "role",
          "type": "bytes32"
        },
        {
          "internalType": "address",
          "name": "account",
          "type": "address"
        }
      ],
      "name": "hasRole",
      "outputs": [
        {
          "internalType": "bool",
          "name": "",
          "type": "bool"
        }
      ],
      "stateMutability": "view",
      "type": "function"
    },
    {
      "inputs": [
        {
          "internalType": "address",
          "name": "forwarder",
          "type": "address"
        }
      ],
      "name": "isTrustedForwarder",
      "outputs": [
        {
          "internalType": "bool",
          "name": "",
          "type": "bool"
        }
      ],
      "stateMutability": "view",
      "type": "function"
    },
    {
      "inputs": [
        {
          "internalType": "uint256",
          "name": "",
          "type": "uint256"
        }
      ],
      "name": "listings",
      "outputs": [
        {
          "internalType": "uint256",
          "name": "listingId",
          "type": "uint256"
        },
        {
          "internalType": "address",
          "name": "tokenOwner",
          "type": "address"
        },
        {
          "internalType": "address",
          "name": "assetContract",
          "type": "address"
        },
        {
          "internalType": "uint256",
          "name": "tokenId",
          "type": "uint256"
        },
        {
          "internalType": "uint256",
          "name": "startTime",
          "type": "uint256"
        },
        {
          "internalType": "uint256",
          "name": "endTime",
          "type": "uint256"
        },
        {
          "internalType": "uint256",
          "name": "quantity",
          "type": "uint256"
        },
        {
          "internalType": "address",
          "name": "currency",
          "type": "address"
        },
        {
          "internalType": "uint256",
          "name": "reservePricePerToken",
          "type": "uint256"
        },
        {
          "internalType": "uint256",
          "name": "buyoutPricePerToken",
          "type": "uint256"
        },
        {
          "internalType": "uint256",
          "name": "tokensPerBuyer",
          "type": "uint256"
        },
        {
          "internalType": "enum IMarket.TokenType",
          "name": "tokenType",
          "type": "uint8"
        },
        {
          "internalType": "enum IMarket.ListingType",
          "name": "listingType",
          "type": "uint8"
        }
      ],
      "stateMutability": "view",
      "type": "function"
    },
    {
      "inputs": [],
      "name": "marketFeeBps",
      "outputs": [
        {
          "internalType": "uint128",
          "name": "",
          "type": "uint128"
        }
      ],
      "stateMutability": "view",
      "type": "function"
    },
    {
      "inputs": [
        {
          "internalType": "bytes[]",
          "name": "data",
          "type": "bytes[]"
        }
      ],
      "name": "multicall",
      "outputs": [
        {
          "internalType": "bytes[]",
          "name": "results",
          "type": "bytes[]"
        }
      ],
      "stateMutability": "nonpayable",
      "type": "function"
    },
    {
      "inputs": [
        {
          "internalType": "uint256",
          "name": "_listingId",
          "type": "uint256"
        },
        {
          "internalType": "uint256",
          "name": "_quantityWanted",
          "type": "uint256"
        },
        {
          "internalType": "uint256",
          "name": "_totalOfferAmount",
          "type": "uint256"
        }
      ],
      "name": "offer",
      "outputs": [],
      "stateMutability": "nonpayable",
      "type": "function"
    },
    {
      "inputs": [
        {
          "internalType": "uint256",
          "name": "",
          "type": "uint256"
        },
        {
          "internalType": "address",
          "name": "",
          "type": "address"
        }
      ],
      "name": "offers",
      "outputs": [
        {
          "internalType": "uint256",
          "name": "listingId",
          "type": "uint256"
        },
        {
          "internalType": "address",
          "name": "offeror",
          "type": "address"
        },
        {
          "internalType": "uint256",
          "name": "quantityWanted",
          "type": "uint256"
        },
        {
          "internalType": "uint256",
          "name": "offerAmount",
          "type": "uint256"
        }
      ],
      "stateMutability": "view",
      "type": "function"
    },
    {
      "inputs": [
        {
          "internalType": "address",
          "name": "",
          "type": "address"
        },
        {
          "internalType": "address",
          "name": "",
          "type": "address"
        },
        {
          "internalType": "uint256[]",
          "name": "",
          "type": "uint256[]"
        },
        {
          "internalType": "uint256[]",
          "name": "",
          "type": "uint256[]"
        },
        {
          "internalType": "bytes",
          "name": "",
          "type": "bytes"
        }
      ],
      "name": "onERC1155BatchReceived",
      "outputs": [
        {
          "internalType": "bytes4",
          "name": "",
          "type": "bytes4"
        }
      ],
      "stateMutability": "nonpayable",
      "type": "function"
    },
    {
      "inputs": [
        {
          "internalType": "address",
          "name": "",
          "type": "address"
        },
        {
          "internalType": "address",
          "name": "",
          "type": "address"
        },
        {
          "internalType": "uint256",
          "name": "",
          "type": "uint256"
        },
        {
          "internalType": "uint256",
          "name": "",
          "type": "uint256"
        },
        {
          "internalType": "bytes",
          "name": "",
          "type": "bytes"
        }
      ],
      "name": "onERC1155Received",
      "outputs": [
        {
          "internalType": "bytes4",
          "name": "",
          "type": "bytes4"
        }
      ],
      "stateMutability": "nonpayable",
      "type": "function"
    },
    {
      "inputs": [
        {
          "internalType": "address",
          "name": "",
          "type": "address"
        },
        {
          "internalType": "address",
          "name": "",
          "type": "address"
        },
        {
          "internalType": "uint256",
          "name": "",
          "type": "uint256"
        },
        {
          "internalType": "bytes",
          "name": "",
          "type": "bytes"
        }
      ],
      "name": "onERC721Received",
      "outputs": [
        {
          "internalType": "bytes4",
          "name": "",
          "type": "bytes4"
        }
      ],
      "stateMutability": "pure",
      "type": "function"
    },
    {
      "inputs": [],
      "name": "paused",
      "outputs": [
        {
          "internalType": "bool",
          "name": "",
          "type": "bool"
        }
      ],
      "stateMutability": "view",
      "type": "function"
    },
    {
      "inputs": [
        {
          "internalType": "bytes32",
          "name": "role",
          "type": "bytes32"
        },
        {
          "internalType": "address",
          "name": "account",
          "type": "address"
        }
      ],
      "name": "renounceRole",
      "outputs": [],
      "stateMutability": "nonpayable",
      "type": "function"
    },
    {
      "inputs": [],
      "name": "restrictedListerRoleOnly",
      "outputs": [
        {
          "internalType": "bool",
          "name": "",
          "type": "bool"
        }
      ],
      "stateMutability": "view",
      "type": "function"
    },
    {
      "inputs": [
        {
          "internalType": "bytes32",
          "name": "role",
          "type": "bytes32"
        },
        {
          "internalType": "address",
          "name": "account",
          "type": "address"
        }
      ],
      "name": "revokeRole",
      "outputs": [],
      "stateMutability": "nonpayable",
      "type": "function"
    },
    {
      "inputs": [
        {
          "internalType": "uint256",
          "name": "_timeBuffer",
          "type": "uint256"
        },
        {
          "internalType": "uint256",
          "name": "_bidBufferBps",
          "type": "uint256"
        }
      ],
      "name": "setAuctionBuffers",
      "outputs": [],
      "stateMutability": "nonpayable",
      "type": "function"
    },
    {
      "inputs": [
        {
          "internalType": "string",
          "name": "_uri",
          "type": "string"
        }
      ],
      "name": "setContractURI",
      "outputs": [],
      "stateMutability": "nonpayable",
      "type": "function"
    },
    {
      "inputs": [
        {
          "internalType": "uint128",
          "name": "feeBps",
          "type": "uint128"
        }
      ],
      "name": "setMarketFeeBps",
      "outputs": [],
      "stateMutability": "nonpayable",
      "type": "function"
    },
    {
      "inputs": [
        {
          "internalType": "bool",
          "name": "_toPause",
          "type": "bool"
        }
      ],
      "name": "setPaused",
      "outputs": [],
      "stateMutability": "nonpayable",
      "type": "function"
    },
    {
      "inputs": [
        {
          "internalType": "bool",
          "name": "restricted",
          "type": "bool"
        }
      ],
      "name": "setRestrictedListerRoleOnly",
      "outputs": [],
      "stateMutability": "nonpayable",
      "type": "function"
    },
    {
      "inputs": [
        {
          "internalType": "bytes4",
          "name": "interfaceId",
          "type": "bytes4"
        }
      ],
      "name": "supportsInterface",
      "outputs": [
        {
          "internalType": "bool",
          "name": "",
          "type": "bool"
        }
      ],
      "stateMutability": "view",
      "type": "function"
    },
    {
      "inputs": [],
      "name": "timeBuffer",
      "outputs": [
        {
          "internalType": "uint256",
          "name": "",
          "type": "uint256"
        }
      ],
      "stateMutability": "view",
      "type": "function"
    },
    {
      "inputs": [],
      "name": "totalListings",
      "outputs": [
        {
          "internalType": "uint256",
          "name": "",
          "type": "uint256"
        }
      ],
      "stateMutability": "view",
      "type": "function"
    },
    {
      "inputs": [
        {
          "internalType": "uint256",
          "name": "",
          "type": "uint256"
        }
      ],
      "name": "winningBid",
      "outputs": [
        {
          "internalType": "uint256",
          "name": "listingId",
          "type": "uint256"
        },
        {
          "internalType": "address",
          "name": "offeror",
          "type": "address"
        },
        {
          "internalType": "uint256",
          "name": "quantityWanted",
          "type": "uint256"
        },
        {
          "internalType": "uint256",
          "name": "offerAmount",
          "type": "uint256"
        }
      ],
      "stateMutability": "view",
      "type": "function"
    }
  ],
  "bytecode": "0x60806040526103846009556101f4600a553480156200001d57600080fd5b50604051620069233803806200692383398101604081905262000040916200037e565b6002805460ff191690556001600355600480546001600160a01b0319166001600160a01b03841617905580516200007f906007906020840190620002d8565b50600580546001600160a01b0319166001600160a01b038516179055620000b16000620000ab62000118565b62000134565b620000e07ff94103142c1baabe9ac2b5d1487bf783de9e69cfeea9a72f5c9c94afd7877b8c620000ab62000118565b6200010f7f65d7a28e3265b37a6474929f336521b332c1681b933f6cb9f3376673440d862a620000ab62000118565b505050620004ee565b60006200012f6200017760201b620039661760201c565b905090565b6200014b8282620001b060201b620039931760201c565b600082815260016020908152604090912062000172918390620039a1620001c0821b17901c565b505050565b6004546000906001600160a01b03163314156200019b575060131936013560601c90565b6200012f620001e060201b620039b61760201c565b620001bc8282620001e4565b5050565b6000620001d7836001600160a01b03841662000286565b90505b92915050565b3390565b6000828152602081815260408083206001600160a01b038516845290915290205460ff16620001bc576000828152602081815260408083206001600160a01b03851684529091529020805460ff191660011790556200024262000118565b6001600160a01b0316816001600160a01b0316837f2f8788117e7eff1d82e926ec794901d17c78024a50270940304540a733656f0d60405160405180910390a45050565b6000818152600183016020526040812054620002cf57508154600181810184556000848152602080822090930184905584548482528286019093526040902091909155620001da565b506000620001da565b828054620002e69062000482565b90600052602060002090601f0160209004810192826200030a576000855562000355565b82601f106200032557805160ff191683800117855562000355565b8280016001018555821562000355579182015b828111156200035557825182559160200191906001019062000338565b506200036392915062000367565b5090565b5b8082111562000363576000815560010162000368565b60008060006060848603121562000393578283fd5b8351620003a081620004d5565b80935050602080850151620003b581620004d5565b60408601519093506001600160401b0380821115620003d2578384fd5b818701915087601f830112620003e6578384fd5b815181811115620003fb57620003fb620004bf565b604051601f8201601f19908116603f01168101908382118183101715620004265762000426620004bf565b816040528281528a868487010111156200043e578687fd5b8693505b8284101562000461578484018601518185018701529285019262000442565b828411156200047257868684830101525b8096505050505050509250925092565b600181811c908216806200049757607f821691505b60208210811415620004b957634e487b7160e01b600052602260045260246000fd5b50919050565b634e487b7160e01b600052604160045260246000fd5b6001600160a01b0381168114620004eb57600080fd5b50565b61642580620004fe6000396000f3fe608060405234801561001057600080fd5b50600436106102de5760003560e01c8063938e3d7b11610186578063d4ac9b8c116100e3578063e63ab1e911610097578063ebdfbce511610071578063ebdfbce51461078a578063ec91f2a4146107d4578063f23a6e61146107dd57600080fd5b8063e63ab1e914610748578063e8a3d4851461076f578063ea0e02411461077757600080fd5b8063d6febde8116100c8578063d6febde81461066e578063de74e57b14610681578063deb26b941461072157600080fd5b8063d4ac9b8c146105f4578063d547741f1461065b57600080fd5b8063c0e727401161013a578063c78b616c1161011f578063c78b616c146105c5578063ca15c873146105ce578063d1e42ec0146105e157600080fd5b8063c0e727401461059d578063c24afe4e146105b257600080fd5b8063a217fddf1161016b578063a217fddf14610556578063ac9650d81461055e578063bc197c811461057e57600080fd5b8063938e3d7b1461053057806396b5a7551461054357600080fd5b806336568abe1161023f5780635c975abb116101f35780639010d07c116101cd5780639010d07c146104bb578063918d407d146104e657806391d14854146104f957600080fd5b80635c975abb1461049057806361096ec61461049b57806380cd2464146104a857600080fd5b80634e03f28d116102245780634e03f28d14610452578063572b6c051461045b578063598647f81461047d57600080fd5b806336568abe146104145780633f5c3e871461042757600080fd5b806320c7852c11610296578063248a9ca31161027b578063248a9ca3146103cb5780632f2ff15d146103ee578063354c7ab61461040157600080fd5b806320c7852c1461037f578063236ed8f3146103b857600080fd5b8063107a274a116102c7578063107a274a14610320578063150b7a021461034057806316c38b3c1461036c57600080fd5b806301ffc9a7146102e357806309679b391461030b575b600080fd5b6102f66102f1366004615c8d565b6107fc565b60405190151581526020015b60405180910390f35b61031e610319366004615d8c565b61084e565b005b61033361032e366004615c0d565b610926565b60405161030291906160f0565b61035361034e366004615a60565b610a78565b6040516001600160e01b03199091168152602001610302565b61031e61037a366004615bd5565b610a8a565b6103aa61038d366004615c3d565b600f60209081526000928352604080842090915290825290205481565b604051908152602001610302565b61031e6103c6366004615c0d565b610b1b565b6103aa6103d9366004615c0d565b60009081526020819052604090206001015490565b61031e6103fc366004615c3d565b611146565b61031e61040f366004615bd5565b61116d565b61031e610422366004615c3d565b611223565b60085461043a906001600160801b031681565b6040516001600160801b039091168152602001610302565b6103aa600a5481565b6102f661046936600461597e565b6004546001600160a01b0391821691161490565b61031e61048b366004615c6c565b611245565b60025460ff166102f6565b600b546102f69060ff1681565b61031e6104b6366004615dc4565b611881565b6104ce6104c9366004615c6c565b611bf3565b6040516001600160a01b039091168152602001610302565b61031e6104f4366004615c3d565b611c12565b6102f6610507366004615c3d565b6000918252602082815260408084206001600160a01b0393909316845291905290205460ff1690565b61031e61053e366004615cb5565b6120cd565b61031e610551366004615c0d565b612255565b6103aa600081565b61057161056c366004615b65565b612667565b604051610302919061607c565b61035361058c3660046159b6565b63bc197c8160e01b95945050505050565b6105a5612786565b60405161030291906160dd565b61031e6105c0366004615def565b612814565b6103aa60065481565b6103aa6105dc366004615c0d565b612ddc565b61031e6105ef366004615cf5565b612df3565b610633610602366004615c0d565b600e60205260009081526040902080546001820154600283015460039093015491926001600160a01b039091169184565b604080519485526001600160a01b039093166020850152918301526060820152608001610302565b61031e610669366004615c3d565b6132cf565b61031e61067c366004615c6c565b6132d9565b61070861068f366004615c0d565b600c60205260009081526040902080546001820154600283015460038401546004850154600586015460068701546007880154600889015460098a0154600a8b0154600b909b0154999a6001600160a01b03998a169a988a16999798969795969495909316939192909160ff808216916101009004168d565b6040516103029d9c9b9a9998979695949392919061613c565b6103aa7ff94103142c1baabe9ac2b5d1487bf783de9e69cfeea9a72f5c9c94afd7877b8c81565b6103aa7f65d7a28e3265b37a6474929f336521b332c1681b933f6cb9f3376673440d862a81565b6105a561373b565b61031e610785366004615c6c565b6137cd565b610633610798366004615c3d565b600d602090815260009283526040808420909152908252902080546001820154600283015460039093015491926001600160a01b039091169184565b6103aa60095481565b6103536107eb366004615ad1565b63f23a6e6160e01b95945050505050565b60006001600160e01b03198216630271189760e51b148061082d57506001600160e01b03198216630a85bd0160e11b145b8061084857506001600160e01b0319821663152a902d60e11b145b92915050565b61085b60006105076139ba565b6108c85760405162461bcd60e51b815260206004820152603360248201527f4d61726b65743a206f6e6c792061206d6f64756c652061646d696e2063616e2060448201527231b0b636103a3434b990333ab731ba34b7b71760691b60648201526084015b60405180910390fd5b600880546fffffffffffffffffffffffffffffffff19166001600160801b0383169081179091556040519081527fd50e64e6eb05cd7ceafe1a28b1a7ad949edb90451106259c7117252d605178ef906020015b60405180910390a150565b61092e6156f5565b6000828152600c602090815260409182902082516101a081018452815481526001808301546001600160a01b039081169483019490945260028301548416948201949094526003820154606082015260048201546080820152600582015460a0820152600682015460c0820152600782015490921660e083015260088101546101008301526009810154610120830152600a810154610140830152600b8101549192909161016084019160ff909116908111156109fb57634e487b7160e01b600052602160045260246000fd5b6001811115610a1a57634e487b7160e01b600052602160045260246000fd5b8152602001600b820160019054906101000a900460ff166001811115610a5057634e487b7160e01b600052602160045260246000fd5b6001811115610a6f57634e487b7160e01b600052602160045260246000fd5b90525092915050565b630a85bd0160e11b5b95945050505050565b610ab67f65d7a28e3265b37a6474929f336521b332c1681b933f6cb9f3376673440d862a6105076139ba565b610b025760405162461bcd60e51b815260206004820152601e60248201527f4d61726b65743a206d75737420686176652070617573657220726f6c652e000060448201526064016108bf565b8015610b1357610b106139c4565b50565b610b10613a5d565b60025460ff1615610b615760405162461bcd60e51b815260206004820152601060248201526f14185d5cd8589b194e881c185d5cd95960821b60448201526064016108bf565b6000818152600c6020908152604080832081516101a081018352815481526001808301546001600160a01b039081169583019590955260028301548516938201939093526003820154606082015260048201546080820152600582015460a0820152600682015460c0820152600782015490931660e084015260088101546101008401526009810154610120840152600a810154610140840152600b810154909161016084019160ff1690811115610c2957634e487b7160e01b600052602160045260246000fd5b6001811115610c4857634e487b7160e01b600052602160045260246000fd5b8152602001600b820160019054906101000a900460ff166001811115610c7e57634e487b7160e01b600052602160045260246000fd5b6001811115610c9d57634e487b7160e01b600052602160045260246000fd5b9052506000838152600e6020908152604080832081516080810183528154815260018201546001600160a01b031693810193909352600281015491830191909152600301546060820152919250610cf26139ba565b905082602001516001600160a01b0316816001600160a01b03161480610d2d575081602001516001600160a01b0316816001600160a01b0316145b610d9f5760405162461bcd60e51b815260206004820152602a60248201527f4d61726b65743a206d75737420626520626964646572206f722061756374696f60448201527f6e2063726561746f722e0000000000000000000000000000000000000000000060648201526084016108bf565b60018361018001516001811115610dc657634e487b7160e01b600052602160045260246000fd5b14610e1e5760405162461bcd60e51b815260206004820152602260248201527f4d61726b65743a206c697374696e67206973206e6f7420616e2061756374696f604482015261371760f11b60648201526084016108bf565b428360a0015110610e975760405162461bcd60e51b815260206004820152603260248201527f4d61726b65743a2063616e206f6e6c7920636c6f73652061756374696f6e206160448201527f667465722069742068617320656e6465642e000000000000000000000000000060648201526084016108bf565b82602001516001600160a01b0316610ead6139ba565b6001600160a01b031614156110695760008360c001518360600151610ed291906162a0565b600060c08601818152878252600c60209081526040928390208851815590880151600180830180546001600160a01b03199081166001600160a01b0394851617909155948a0151600284018054871691841691909117905560608a0151600384015560808a0151600484015560a08a015160058401559251600683015560e089015160078301805490951691161790925561010087015160088301556101208701516009830155610140870151600a830155610160870151600b8301805494955088949192909160ff1916908381811115610fbd57634e487b7160e01b600052602160045260246000fd5b0217905550610180820151600b8201805461ff001916610100836001811115610ff657634e487b7160e01b600052602160045260246000fd5b021790555050600060608501818152878252600e602090815260409283902087518155818801516001820180546001600160a01b0319166001600160a01b039092169190911790559287015160028401559051600390920191909155850151611063915030908387613ae2565b506110f0565b81602001516001600160a01b031661107f6139ba565b6001600160a01b031614156110f057604082810180516000808352878152600e602090815293902085518155928501516001840180546001600160a01b0319166001600160a01b0383161790559151600284015560608501516003909301929092556110ee9030908387614014565b505b806001600160a01b0316847f42bdf1b5daec205081fa6758882be4b9c6633d2b16ea489d1c36cddfd46d7cab8560200151856020015186886040516111389493929190615ff2565b60405180910390a350505050565b611150828261418b565b600082815260016020526040902061116890826139a1565b505050565b61117a60006105076139ba565b6111e25760405162461bcd60e51b815260206004820152603360248201527f4d61726b65743a206f6e6c792061206d6f64756c652061646d696e2063616e2060448201527231b0b636103a3434b990333ab731ba34b7b71760691b60648201526084016108bf565b600b805460ff19168215159081179091556040519081527f56668abce4c06e28f52176150c07856e31ee073b9b62df62a5afbf1a22aec24c9060200161091b565b61122d82826141b8565b60008281526001602052604090206111689082614250565b60025460ff161561128b5760405162461bcd60e51b815260206004820152601060248201526f14185d5cd8589b194e881c185d5cd95960821b60448201526064016108bf565b816006548111156112de5760405162461bcd60e51b815260206004820152601f60248201527f4d61726b65743a206c697374696e6720646f6573206e6f742065786973742e0060448201526064016108bf565b6000838152600c6020908152604080832081516101a081018352815481526001808301546001600160a01b039081169583019590955260028301548516938201939093526003820154606082015260048201546080820152600582015460a0820152600682015460c0820152600782015490931660e084015260088101546101008401526009810154610120840152600a810154610140840152600b810154909161016084019160ff16908111156113a657634e487b7160e01b600052602160045260246000fd5b60018111156113c557634e487b7160e01b600052602160045260246000fd5b8152602001600b820160019054906101000a900460ff1660018111156113fb57634e487b7160e01b600052602160045260246000fd5b600181111561141a57634e487b7160e01b600052602160045260246000fd5b9052506000858152600e6020908152604080832081516080810183528154815260018201546001600160a01b03169381019390935260028101549183019190915260030154606082015291925061146f6139ba565b60a08401519091506001846101800151600181111561149e57634e487b7160e01b600052602160045260246000fd5b146115115760405162461bcd60e51b815260206004820152602f60248201527f4d61726b65743a2063616e206f6e6c79206d616b65206269647320746f20617560448201527f6374696f6e206c697374696e67732e000000000000000000000000000000000060648201526084016108bf565b42811180156115235750428460800151105b6115955760405162461bcd60e51b815260206004820152602f60248201527f4d61726b65743a2063616e206f6e6c79206d616b65206269647320696e20617560448201527f6374696f6e206475726174696f6e2e000000000000000000000000000000000060648201526084016108bf565b6115a4828560e0015188614265565b6115b28360600151876143e1565b1561187857602080840151606094850151604080516080810182528b81526001600160a01b0387169481019490945260c0880151908401529482018890526009549194909161160142856162bf565b1161161e576009548660a00181815161161a9190616268565b9052505b6000898152600c60209081526040918290208851815590880151600180830180546001600160a01b03199081166001600160a01b0394851617909155938a0151600284018054861691841691909117905560608a0151600384015560808a0151600484015560a08a0151600584015560c08a0151600684015560e08a015160078401805490951692169190911790925561010088015160088201556101208801516009820155610140880151600a820155610160880151600b820180548a9460ff1990911690838181111561170357634e487b7160e01b600052602160045260246000fd5b0217905550610180820151600b8201805461ff00191661010083600181111561173c57634e487b7160e01b600052602160045260246000fd5b021790555050506000898152600e602090815260409182902087518155908701516001820180546001600160a01b0319166001600160a01b03909216919091179055908601516002820155606086015160039091015560e08601516117a290858a61449c565b60e08601516040516323b872dd60e01b81523060048201526001600160a01b03848116602483015260448201849052909116906323b872dd90606401602060405180830381600087803b1580156117f857600080fd5b505af115801561180c573d6000803e3d6000fd5b505050506040513d601f19601f820116820180604052508101906118309190615bf1565b50836001600160a01b0316897f4aebf4dd6dc586d8e61e80b74856628c80f4e50926edf340a66ce6b25a760b43878960405161186d9291906160ff565b60405180910390a350505b50505050505050565b60025460ff16156118c75760405162461bcd60e51b815260206004820152601060248201526f14185d5cd8589b194e881c185d5cd95960821b60448201526064016108bf565b8260065481111561191a5760405162461bcd60e51b815260206004820152601f60248201527f4d61726b65743a206c697374696e6720646f6573206e6f742065786973742e0060448201526064016108bf565b60006119246139ba565b6000868152600c6020908152604080832081516101a081018352815481526001808301546001600160a01b039081169583019590955260028301548516938201939093526003820154606082015260048201546080820152600582015460a0820152600682015460c0820152600782015490931660e084015260088101546101008401526009810154610120840152600a810154610140840152600b810154949550929391929161016084019160ff909116908111156119f457634e487b7160e01b600052602160045260246000fd5b6001811115611a1357634e487b7160e01b600052602160045260246000fd5b8152602001600b820160019054906101000a900460ff166001811115611a4957634e487b7160e01b600052602160045260246000fd5b6001811115611a6857634e487b7160e01b600052602160045260246000fd5b905250905060008161018001516001811115611a9457634e487b7160e01b600052602160045260246000fd5b14611b075760405162461bcd60e51b815260206004820152603060248201527f4d61726b65743a2063616e206f6e6c79206d616b65206f666665727320746f2060448201527f646972656374206c697374696e67732e0000000000000000000000000000000060648201526084016108bf565b611b16828260e0015186614265565b60006040518060800160405280888152602001846001600160a01b03168152602001611b47846101600151896146b1565b815260209081018790526000898152600d825260408082206001600160a01b038881168085529185529282902085518155938501516001850180546001600160a01b0319169190941617909255838101516002840155606084015160039093019290925590519192509088907f325ebd560da99b6ec57c8698998d68ddf274d0b921541d5b702974d58ca8799290611be290859087906160ff565b60405180910390a350505050505050565b6000828152600160205260408120611c0b90836146f6565b9392505050565b60025460ff1615611c585760405162461bcd60e51b815260206004820152601060248201526f14185d5cd8589b194e881c185d5cd95960821b60448201526064016108bf565b81611c616139ba565b6000828152600c60205260409020600101546001600160a01b03908116911614611ce25760405162461bcd60e51b815260206004820152602c60248201527f4d61726b65743a2063616c6c657220646f6573206e6f7420746865206c69737460448201526b34b7339031b932b0ba37b91760a11b60648201526084016108bf565b6000838152600d602090815260408083206001600160a01b03808716855290835281842082516080808201855282548252600180840154851683880152600280850154848801526003948501546060808601919091528c8a52600c8952878a2088516101a081018a52815481528185015489169a81019a909a52918201548716978901979097529384015495870195909552600483015490860152600582015460a0860152600682015460c0860152600782015490921660e085015260088101546101008501526009810154610120850152600a810154610140850152600b81015491949392909161016084019160ff90911690811115611df357634e487b7160e01b600052602160045260246000fd5b6001811115611e1257634e487b7160e01b600052602160045260246000fd5b8152602001600b820160019054906101000a900460ff166001811115611e4857634e487b7160e01b600052602160045260246000fd5b6001811115611e6757634e487b7160e01b600052602160045260246000fd5b815250509050611e8f8160200151826040015183606001518560400151856101600151614702565b611ef45760405162461bcd60e51b815260206004820152603060248201527f4d61726b65743a206d757374206f776e20616e6420617070726f766520746f2060448201526f3a3930b739b332b9103a37b5b2b7399760811b60648201526084016108bf565b81604001518160c001818151611f0a91906162bf565b9052506000858152600c60209081526040918290208351815590830151600180830180546001600160a01b03199081166001600160a01b0394851617909155938501516002840180548616918416919091179055606085015160038401556080850151600484015560a0850151600584015560c0850151600684015560e085015160078401805490951692169190911790925561010083015160088201556101208301516009820155610140830151600a820155610160830151600b82018054859460ff19909116908381811115611ff257634e487b7160e01b600052602160045260246000fd5b0217905550610180820151600b8201805461ff00191661010083600181111561202b57634e487b7160e01b600052602160045260246000fd5b02179055509050506120568482602001518460400151856060015161205091906162a0565b84613ae2565b61206a816020015185846040015184614014565b8481602001516001600160a01b031682604001516001600160a01b03167f13f347bec00b07d4fa8ffa656bbcb29bd18e63fd4621925b71f60ff36c6425c9878660400151866040516120be9392919061604f565b60405180910390a45050505050565b6005546040805163a217fddf60e01b815290516001600160a01b03909216916391d1485491839163a217fddf91600480820192602092909190829003018186803b15801561211a57600080fd5b505afa15801561212e573d6000803e3d6000fd5b505050506040513d601f19601f820116820180604052508101906121529190615c25565b61215a6139ba565b6040516001600160e01b031960e085901b16815260048101929092526001600160a01b0316602482015260440160206040518083038186803b15801561219f57600080fd5b505afa1580156121b3573d6000803e3d6000fd5b505050506040513d601f19601f820116820180604052508101906121d79190615bf1565b6122495760405162461bcd60e51b815260206004820152603560248201527f4d61726b65743a206f6e6c7920612070726f746f636f6c2061646d696e20636160448201527f6e2063616c6c20746869732066756e6374696f6e2e000000000000000000000060648201526084016108bf565b61116860078383615796565b60025460ff161561229b5760405162461bcd60e51b815260206004820152601060248201526f14185d5cd8589b194e881c185d5cd95960821b60448201526064016108bf565b806122a46139ba565b6000828152600c60205260409020600101546001600160a01b039081169116146123255760405162461bcd60e51b815260206004820152602c60248201527f4d61726b65743a2063616c6c657220646f6573206e6f7420746865206c69737460448201526b34b7339031b932b0ba37b91760a11b60648201526084016108bf565b6000828152600c6020908152604080832081516101a081018352815481526001808301546001600160a01b039081169583019590955260028301548516938201939093526003820154606082015260048201546080820152600582015460a0820152600682015460c0820152600782015490931660e084015260088101546101008401526009810154610120840152600a810154610140840152600b810154909161016084019160ff16908111156123ed57634e487b7160e01b600052602160045260246000fd5b600181111561240c57634e487b7160e01b600052602160045260246000fd5b8152602001600b820160019054906101000a900460ff16600181111561244257634e487b7160e01b600052602160045260246000fd5b600181111561246157634e487b7160e01b600052602160045260246000fd5b815250509050428160800151116124e05760405162461bcd60e51b815260206004820152603360248201527f4d61726b65743a2063616e6e6f742063616e63656c2061756374696f6e20616660448201527f7465722069742068617320737461727465642e0000000000000000000000000060648201526084016108bf565b600060c08201818152848252600c60209081526040928390208451815590840151600180830180546001600160a01b03199081166001600160a01b0394851617909155948601516002840180548716918416919091179055606086015160038401556080860151600484015560a086015160058401559251600683015560e085015160078301805490951691161790925561010083015160088301556101208301516009830155610140830151600a830155610160830151600b8301805485949360ff199091169083818111156125c757634e487b7160e01b600052602160045260246000fd5b0217905550610180820151600b8201805461ff00191661010083600181111561260057634e487b7160e01b600052602160045260246000fd5b021790555090505061261c3082602001518360c0015184614014565b80602001516001600160a01b0316837f8b8c78dbb114fabd551e84de4546a68891b5f7a217a98e3f2fe7adb18519959b8360405161265a91906160f0565b60405180910390a3505050565b60608167ffffffffffffffff81111561269057634e487b7160e01b600052604160045260246000fd5b6040519080825280602002602001820160405280156126c357816020015b60608152602001906001900390816126ae5790505b50905060005b8281101561277f57612741308585848181106126f557634e487b7160e01b600052603260045260246000fd5b905060200281019061270791906161c8565b8080601f016020809104026020016040519081016040528093929190818152602001838380828437600092019190915250614a0f92505050565b82828151811061276157634e487b7160e01b600052603260045260246000fd5b6020026020010181905250808061277790616354565b9150506126c9565b5092915050565b6007805461279390616319565b80601f01602080910402602001604051908101604052809291908181526020018280546127bf90616319565b801561280c5780601f106127e15761010080835404028352916020019161280c565b820191906000526020600020905b8154815290600101906020018083116127ef57829003601f168201915b505050505081565b60025460ff161561285a5760405162461bcd60e51b815260206004820152601060248201526f14185d5cd8589b194e881c185d5cd95960821b60448201526064016108bf565b876006548111156128ad5760405162461bcd60e51b815260206004820152601f60248201527f4d61726b65743a206c697374696e6720646f6573206e6f742065786973742e0060448201526064016108bf565b886128b66139ba565b6000828152600c60205260409020600101546001600160a01b039081169116146129375760405162461bcd60e51b815260206004820152602c60248201527f4d61726b65743a2063616c6c657220646f6573206e6f7420746865206c69737460448201526b34b7339031b932b0ba37b91760a11b60648201526084016108bf565b60008a8152600c6020908152604080832081516101a081018352815481526001808301546001600160a01b039081169583019590955260028301548516938201939093526003820154606082015260048201546080820152600582015460a0820152600682015460c0820152600782015490931660e084015260088101546101008401526009810154610120840152600a810154610140840152600b810154909161016084019160ff16908111156129ff57634e487b7160e01b600052602160045260246000fd5b6001811115612a1e57634e487b7160e01b600052602160045260246000fd5b8152602001600b820160019054906101000a900460ff166001811115612a5457634e487b7160e01b600052602160045260246000fd5b6001811115612a7357634e487b7160e01b600052602160045260246000fd5b8152505090506000612a8a8261016001518c6146b1565b6001600160a01b03881660e084015290508515612ab057612aab8642616268565b612ab6565b81608001515b60808301528415612ad057612acb8542616268565b612ad6565b8160a001515b60a083015260c08201518b14612b7157612b0482602001518360400151846060015184866101600151614702565b612b695760405162461bcd60e51b815260206004820152603060248201527f4d61726b65743a206d757374206f776e20616e6420617070726f766520746f2060448201526f3a3930b739b332b9103a37b5b2b7399760811b60648201526084016108bf565b60c082018190525b60018261018001516001811115612b9857634e487b7160e01b600052602160045260246000fd5b1415612c2c5742826080015110612c175760405162461bcd60e51b815260206004820152602860248201527f4d61726b65743a2063616e6e6f7420656469742061756374696f6e206166746560448201527f722073746172742e00000000000000000000000000000000000000000000000060648201526084016108bf565b61010082018a90526101208201899052612c62565b60008261018001516001811115612c5357634e487b7160e01b600052602160045260246000fd5b1415612c625761014082018890525b60008c8152600c60209081526040918290208451815590840151600180830180546001600160a01b03199081166001600160a01b0394851617909155938601516002840180548616918416919091179055606086015160038401556080860151600484015560a0860151600584015560c0860151600684015560e086015160078401805490951692169190911790925561010084015160088201556101208401516009820155610140840151600a820155610160840151600b82018054869460ff19909116908381811115612d4757634e487b7160e01b600052602160045260246000fd5b0217905550610180820151600b8201805461ff001916610100836001811115612d8057634e487b7160e01b600052602160045260246000fd5b02179055509050508b82602001516001600160a01b03167f9897b5e6dd37a61b6f078227f64ef9c4d6744428f9ab322e9d3160c1a396046484604051612dc691906160f0565b60405180910390a3505050505050505050505050565b600081815260016020526040812061084890614a34565b60025460ff1615612e395760405162461bcd60e51b815260206004820152601060248201526f14185d5cd8589b194e881c185d5cd95960821b60448201526064016108bf565b600b5460ff161580612e725750612e727ff94103142c1baabe9ac2b5d1487bf783de9e69cfeea9a72f5c9c94afd7877b8c6105076139ba565b612ee45760405162461bcd60e51b815260206004820152602d60248201527f4d61726b65743a206f6e6c792061206c69737465722063616e2063616c6c207460448201527f6869732066756e6374696f6e2e0000000000000000000000000000000000000060648201526084016108bf565b6000612eee614a3e565b90506000612efa6139ba565b90506000612f0b8460000151614a5c565b90506000808561012001516001811115612f3557634e487b7160e01b600052602160045260246000fd5b1415612f5b57612f548386600001518760200151886080015186614702565b9050612fa4565b60018561012001516001811115612f8257634e487b7160e01b600052602160045260246000fd5b1415612fa457612fa18386600001518760200151886080015186614be8565b90505b808015612fb5575060008560800151115b61301a5760405162461bcd60e51b815260206004820152603060248201527f4d61726b65743a206d757374206f776e20616e6420617070726f766520746f2060448201526f3a3930b739b332b9103a37b5b2b7399760811b60648201526084016108bf565b6000604051806101a00160405280868152602001856001600160a01b0316815260200187600001516001600160a01b031681526020018760200151815260200187604001514261306a9190616268565b8152602001876060015160001461308f57606088015161308a9042616268565b613093565b6000195b81526020016130a68589608001516146b1565b81526020018760a001516001600160a01b031681526020018760c0015181526020018760e0015181526020018761010001516000146130ea578761010001516130f0565b87608001515b815260200184600181111561311557634e487b7160e01b600052602160045260246000fd5b8152602001876101200151600181111561313f57634e487b7160e01b600052602160045260246000fd5b90526000868152600c60209081526040918290208351815590830151600180830180546001600160a01b03199081166001600160a01b0394851617909155938501516002840180548616918416919091179055606085015160038401556080850151600484015560a0850151600584015560c0850151600684015560e085015160078401805490951692169190911790925561010083015160088201556101208301516009820155610140830151600a820155610160830151600b82018054949550859492939192909160ff1990911690838181111561322f57634e487b7160e01b600052602160045260246000fd5b0217905550610180820151600b8201805461ff00191661010083600181111561326857634e487b7160e01b600052602160045260246000fd5b0217905550905050846132796139ba565b6001600160a01b031687600001516001600160a01b03167fbd4ad658f54c65cfbfb4961c722cac4e1bc357eaabbd6ad51273e752a4481916846040516132bf91906160f0565b60405180910390a4505050505050565b61122d8282614d56565b60025460ff161561331f5760405162461bcd60e51b815260206004820152601060248201526f14185d5cd8589b194e881c185d5cd95960821b60448201526064016108bf565b816006548111156133725760405162461bcd60e51b815260206004820152601f60248201527f4d61726b65743a206c697374696e6720646f6573206e6f742065786973742e0060448201526064016108bf565b600260035414156133c55760405162461bcd60e51b815260206004820152601f60248201527f5265656e7472616e637947756172643a207265656e7472616e742063616c6c0060448201526064016108bf565b600260038181556000858152600c6020908152604080832081516101a081018352815481526001808301546001600160a01b03908116958301959095529682015484169281019290925293840154606082015260048401546080820152600584015460a0820152600684015460c0820152600784015490911660e082015260088301546101008201526009830154610120820152600a830154610140820152600b830154919390929161016084019160ff9091169081111561349757634e487b7160e01b600052602160045260246000fd5b60018111156134b657634e487b7160e01b600052602160045260246000fd5b8152602001600b820160019054906101000a900460ff1660018111156134ec57634e487b7160e01b600052602160045260246000fd5b600181111561350b57634e487b7160e01b600052602160045260246000fd5b9052509050600061351a6139ba565b9050613527828286614d7e565b838260c00181815161353991906162bf565b9052506000858152600c60209081526040918290208451815590840151600180830180546001600160a01b03199081166001600160a01b0394851617909155938601516002840180548616918416919091179055606086015160038401556080860151600484015560a0860151600584015560c0860151600684015560e086015160078401805490951692169190911790925561010084015160088201556101208401516009820155610140840151600a820155610160840151600b82018054869460ff1990911690838181111561362157634e487b7160e01b600052602160045260246000fd5b0217905550610180820151600b8201805461ff00191661010083600181111561365a57634e487b7160e01b600052602160045260246000fd5b021790555050506000858152600f602090815260408083206001600160a01b038516845290915281208054869290613693908490616268565b9091555050610120820151156136c3576136c3818360200151868561012001516136bd91906162a0565b85613ae2565b6136d38260200151828685614014565b816000015182602001516001600160a01b031683604001516001600160a01b03167f13f347bec00b07d4fa8ffa656bbcb29bd18e63fd4621925b71f60ff36c6425c98488876040516137279392919061604f565b60405180910390a450506001600355505050565b60606007805461374a90616319565b80601f016020809104026020016040519081016040528092919081815260200182805461377690616319565b80156137c35780601f10613798576101008083540402835291602001916137c3565b820191906000526020600020905b8154815290600101906020018083116137a657829003601f168201915b5050505050905090565b6137da60006105076139ba565b6138425760405162461bcd60e51b815260206004820152603360248201527f4d61726b65743a206f6e6c792061206d6f64756c652061646d696e2063616e2060448201527231b0b636103a3434b990333ab731ba34b7b71760691b60648201526084016108bf565b600560009054906101000a90046001600160a01b03166001600160a01b031663fd967f476040518163ffffffff1660e01b815260040160206040518083038186803b15801561389057600080fd5b505afa1580156138a4573d6000803e3d6000fd5b505050506040513d601f19601f820116820180604052508101906138c89190615da8565b6001600160801b0316811061391f5760405162461bcd60e51b815260206004820152601f60248201527f4d61726b65743a20696e76616c69642062696420627566666572204250532e0060448201526064016108bf565b6009829055600a81905560408051838152602081018390527f441ed6470e96704c3f8c9e70c209107078aab3f17311385e886081b91aa75088910160405180910390a15050565b6004546000906001600160a01b0316331415613989575060131936013560601c90565b503390565b905090565b61399d8282615084565b5050565b6000611c0b836001600160a01b038416615123565b3390565b600061398e613966565b60025460ff1615613a0a5760405162461bcd60e51b815260206004820152601060248201526f14185d5cd8589b194e881c185d5cd95960821b60448201526064016108bf565b6002805460ff191660011790557f62e78cea01bee320cd4e420270b5ea74000d11b0c9f74754ebdbfc544b05a258613a406139ba565b6040516001600160a01b03909116815260200160405180910390a1565b60025460ff16613aaf5760405162461bcd60e51b815260206004820152601460248201527f5061757361626c653a206e6f742070617573656400000000000000000000000060448201526064016108bf565b6002805460ff191690557f5db9ee0a495bf2e6ff9c91a7834c1ba4fdd244a5e8aa4e537bd38aeae4b073aa613a406139ba565b600080600560009054906101000a90046001600160a01b03166001600160a01b031663fd967f476040518163ffffffff1660e01b815260040160206040518083038186803b158015613b3357600080fd5b505afa158015613b47573d6000803e3d6000fd5b505050506040513d601f19601f82011682018060405250810190613b6b9190615da8565b6008546001600160801b0391821691613b859116866162a0565b613b8f9190616280565b60e084015160055460405163f2aab4b360e01b81523060048201529293506001600160a01b03918216926323b872dd928a92169063f2aab4b39060240160206040518083038186803b158015613be457600080fd5b505afa158015613bf8573d6000803e3d6000fd5b505050506040513d601f19601f82011682018060405250810190613c1c919061599a565b6040516001600160e01b031960e085901b1681526001600160a01b0392831660048201529116602482015260448101849052606401602060405180830381600087803b158015613c6b57600080fd5b505af1158015613c7f573d6000803e3d6000fd5b505050506040513d601f19601f82011682018060405250810190613ca39190615bf1565b91506000613cb182866162bf565b60408086015190516301ffc9a760e01b815263152a902d60e11b60048201529192506001600160a01b0316906301ffc9a79060240160206040518083038186803b158015613cfe57600080fd5b505afa158015613d12573d6000803e3d6000fd5b505050506040513d601f19601f82011682018060405250810190613d369190615bf1565b15613f0f5760008085604001516001600160a01b0316632a55205a8760600151896040518363ffffffff1660e01b8152600401613d7d929190918252602082015260400190565b604080518083038186803b158015613d9457600080fd5b505afa158015613da8573d6000803e3d6000fd5b505050506040513d601f19601f82011682018060405250810190613dcc9190615b38565b90925090506001600160a01b03821615801590613de95750600081115b15613f0c5786613df98583616268565b1115613e6d5760405162461bcd60e51b815260206004820152602b60248201527f4d61726b65743a20546f74616c206d61726b657420666565732065786365656460448201527f207468652070726963652e00000000000000000000000000000000000000000060648201526084016108bf565b613e7781846162bf565b60e08701516040516323b872dd60e01b81526001600160a01b038c811660048301528581166024830152604482018590529295509116906323b872dd90606401602060405180830381600087803b158015613ed157600080fd5b505af1158015613ee5573d6000803e3d6000fd5b505050506040513d601f19601f82011682018060405250810190613f099190615bf1565b94505b50505b60e08401516040516323b872dd60e01b81526001600160a01b038981166004830152888116602483015260448201849052909116906323b872dd90606401602060405180830381600087803b158015613f6757600080fd5b505af1158015613f7b573d6000803e3d6000fd5b505050506040513d601f19601f82011682018060405250810190613f9f9190615bf1565b9250826118785760405162461bcd60e51b815260206004820152602660248201527f4d61726b65743a206661696c656420746f207061796f7574207374616b65686f60448201527f6c646572732e000000000000000000000000000000000000000000000000000060648201526084016108bf565b6000816101600151600181111561403b57634e487b7160e01b600052602160045260246000fd5b14156140d05760408082015160608301519151637921219560e11b81526001600160a01b038781166004830152868116602483015260448201939093526064810185905260a06084820152600060a482015291169063f242432a9060c401600060405180830381600087803b1580156140b357600080fd5b505af11580156140c7573d6000803e3d6000fd5b50505050614185565b600181610160015160018111156140f757634e487b7160e01b600052602160045260246000fd5b141561418557604080820151602083015160608401519251635c46a7ef60e11b81526001600160a01b039182166004820152868216602482015260448101939093526080606484015260006084840152169063b88d4fde9060a401600060405180830381600087803b15801561416c57600080fd5b505af1158015614180573d6000803e3d6000fd5b505050505b50505050565b6000828152602081905260409020600101546141ae816141a96139ba565b615172565b6111688383615084565b6141c06139ba565b6001600160a01b0316816001600160a01b0316146142465760405162461bcd60e51b815260206004820152602f60248201527f416363657373436f6e74726f6c3a2063616e206f6e6c792072656e6f756e636560448201527f20726f6c657320666f722073656c66000000000000000000000000000000000060648201526084016108bf565b61399d82826151f0565b6000611c0b836001600160a01b03841661528d565b6040516370a0823160e01b81526001600160a01b0384811660048301528291908416906370a082319060240160206040518083038186803b1580156142a957600080fd5b505afa1580156142bd573d6000803e3d6000fd5b505050506040513d601f19601f820116820180604052508101906142e19190615c25565b1015801561436f5750604051636eb1769f60e11b81526001600160a01b03848116600483015230602483015282919084169063dd62ed3e9060440160206040518083038186803b15801561433457600080fd5b505afa158015614348573d6000803e3d6000fd5b505050506040513d601f19601f8201168201806040525081019061436c9190615c25565b10155b6111685760405162461bcd60e51b815260206004820152603960248201527f4d61726b65743a206d757374206f776e20616e6420617070726f7665204d617260448201527f6b657420746f207472616e736665722063757272656e63792e0000000000000060648201526084016108bf565b60008282118015611c0b5750600a546005546040805163fd967f4760e01b8152905186926001600160a01b03169163fd967f47916004808301926020929190829003018186803b15801561443457600080fd5b505afa158015614448573d6000803e3d6000fd5b505050506040513d601f19601f8201168201806040525081019061446c9190615da8565b6001600160801b031661447f86866162bf565b61448991906162a0565b6144939190616280565b10159392505050565b6040516370a0823160e01b81523060048201819052906000906001600160a01b038616906370a082319060240160206040518083038186803b1580156144e157600080fd5b505afa1580156144f5573d6000803e3d6000fd5b505050506040513d601f19601f820116820180604052508101906145199190615c25565b6040516323b872dd60e01b81526001600160a01b0386811660048301528481166024830152604482018690529192506000918716906323b872dd90606401602060405180830381600087803b15801561457157600080fd5b505af1158015614585573d6000803e3d6000fd5b505050506040513d601f19601f820116820180604052508101906145a99190615bf1565b6040516370a0823160e01b81526001600160a01b0385811660048301529192506000918816906370a082319060240160206040518083038186803b1580156145f057600080fd5b505afa158015614604573d6000803e3d6000fd5b505050506040513d601f19601f820116820180604052508101906146289190615c25565b905081801561463f575061463c8584616268565b81145b6118785760405162461bcd60e51b815260206004820152602760248201527f4d61726b65743a206661696c656420746f207265636569766520696e636f6d6960448201527f6e67206269642e0000000000000000000000000000000000000000000000000060648201526084016108bf565b6000816146c057506000610848565b60018360018111156146e257634e487b7160e01b600052602160045260246000fd5b146146ed5781611c0b565b50600192915050565b6000611c0b83836153aa565b6000308183600181111561472657634e487b7160e01b600052602160045260246000fd5b141561483e57604051627eeac760e11b81526001600160a01b0388811660048301526024820187905285919088169062fdd58e9060440160206040518083038186803b15801561477557600080fd5b505afa158015614789573d6000803e3d6000fd5b505050506040513d601f19601f820116820180604052508101906147ad9190615c25565b10158015614837575060405163e985e9c560e01b81526001600160a01b038881166004830152828116602483015287169063e985e9c59060440160206040518083038186803b1580156147ff57600080fd5b505afa158015614813573d6000803e3d6000fd5b505050506040513d601f19601f820116820180604052508101906148379190615bf1565b9150614a05565b600183600181111561486057634e487b7160e01b600052602160045260246000fd5b1415614a05576040516331a9108f60e11b8152600481018690526001600160a01b038089169190881690636352211e9060240160206040518083038186803b1580156148ab57600080fd5b505afa1580156148bf573d6000803e3d6000fd5b505050506040513d601f19601f820116820180604052508101906148e3919061599a565b6001600160a01b0316148015614a02575060405163020604bf60e21b8152600481018690526001600160a01b03808316919088169063081812fc9060240160206040518083038186803b15801561493957600080fd5b505afa15801561494d573d6000803e3d6000fd5b505050506040513d601f19601f82011682018060405250810190614971919061599a565b6001600160a01b03161480614a02575060405163e985e9c560e01b81526001600160a01b038881166004830152828116602483015287169063e985e9c59060440160206040518083038186803b1580156149ca57600080fd5b505afa1580156149de573d6000803e3d6000fd5b505050506040513d601f19601f82011682018060405250810190614a029190615bf1565b91505b5095945050505050565b6060611c0b83836040518060600160405280602781526020016163f2602791396153e2565b6000610848825490565b60068054906001906000614a528385616268565b9250508190555090565b6040516301ffc9a760e01b8152636cdb3d1360e11b60048201526000906001600160a01b038316906301ffc9a79060240160206040518083038186803b158015614aa557600080fd5b505afa158015614ab9573d6000803e3d6000fd5b505050506040513d601f19601f82011682018060405250810190614add9190615bf1565b15614aea57506000919050565b6040516301ffc9a760e01b81526380ac58cd60e01b60048201526001600160a01b038316906301ffc9a79060240160206040518083038186803b158015614b3057600080fd5b505afa158015614b44573d6000803e3d6000fd5b505050506040513d601f19601f82011682018060405250810190614b689190615bf1565b15614b7557506001919050565b60405162461bcd60e51b815260206004820152603860248201527f4d61726b65743a20746f6b656e206d75737420696d706c656d656e742065697460448201527f686572204552432031313535206f7220455243203732312e000000000000000060648201526084016108bf565b919050565b600030614bf88787878787614702565b91508115614a05576000836001811115614c2257634e487b7160e01b600052602160045260246000fd5b1415614cac57604051637921219560e11b81526001600160a01b0388811660048301528281166024830152604482018790526064820186905260a06084830152600060a483015287169063f242432a9060c401600060405180830381600087803b158015614c8f57600080fd5b505af1158015614ca3573d6000803e3d6000fd5b50505050614a05565b6001836001811115614cce57634e487b7160e01b600052602160045260246000fd5b1415614a0557604051635c46a7ef60e11b81526001600160a01b038881166004830152828116602483015260448201879052608060648301526000608483015287169063b88d4fde9060a401600060405180830381600087803b158015614d3457600080fd5b505af1158015614d48573d6000803e3d6000fd5b505050505095945050505050565b600082815260208190526040902060010154614d74816141a96139ba565b61116883836151f0565b60008361018001516001811115614da557634e487b7160e01b600052602160045260246000fd5b14614e185760405162461bcd60e51b815260206004820152602a60248201527f4d61726b65743a2063616e206f6e6c79206275792066726f6d2064697265637460448201527f206c697374696e67732e0000000000000000000000000000000000000000000060648201526084016108bf565b600081118015614e2c57508260c001518111155b614e9e5760405162461bcd60e51b815260206004820152603160248201527f4d61726b65743a206d7573742062757920616e20617070726f7072696174652060448201527f616d6f756e74206f6620746f6b656e732e00000000000000000000000000000060648201526084016108bf565b8260a001514211158015614eb6575082608001514210155b614f285760405162461bcd60e51b815260206004820152603260248201527f4d61726b65743a207468652073616c652068617320656974686572206e6f742060448201527f73746172746564206f7220636c6f7365642e000000000000000000000000000060648201526084016108bf565b61014083015183516000908152600f602090815260408083206001600160a01b0387168452909152902054614f5d9083616268565b1115614fd15760405162461bcd60e51b815260206004820152603460248201527f4d61726b65743a2043616e6e6f7420627579206d6f72652066726f6d206c697360448201527f74696e67207468616e207065726d69747465642e00000000000000000000000060648201526084016108bf565b614ff38360200151846040015185606001518660c00151876101600151614702565b6150655760405162461bcd60e51b815260206004820152602c60248201527f4d61726b65743a2063616e6e6f742062757920746f6b656e732066726f6d207460448201527f686973206c697374696e672e000000000000000000000000000000000000000060648201526084016108bf565b611168828460e001518561012001518461507f91906162a0565b614265565b6000828152602081815260408083206001600160a01b038516845290915290205460ff1661399d576000828152602081815260408083206001600160a01b03851684529091529020805460ff191660011790556150df6139ba565b6001600160a01b0316816001600160a01b0316837f2f8788117e7eff1d82e926ec794901d17c78024a50270940304540a733656f0d60405160405180910390a45050565b600081815260018301602052604081205461516a57508154600181810184556000848152602080822090930184905584548482528286019093526040902091909155610848565b506000610848565b6000828152602081815260408083206001600160a01b038516845290915290205460ff1661399d576151ae816001600160a01b031660146154cd565b6151b98360206154cd565b6040516020016151ca929190615f71565b60408051601f198184030181529082905262461bcd60e51b82526108bf916004016160dd565b6000828152602081815260408083206001600160a01b038516845290915290205460ff161561399d576000828152602081815260408083206001600160a01b03851684529091529020805460ff191690556152496139ba565b6001600160a01b0316816001600160a01b0316837ff6391f5c32d9c69d2a47ea670b442974b53935d1edc7fd64eb21e047a839171b60405160405180910390a45050565b600081815260018301602052604081205480156153a05760006152b16001836162bf565b85549091506000906152c5906001906162bf565b90508181146153465760008660000182815481106152f357634e487b7160e01b600052603260045260246000fd5b906000526020600020015490508087600001848154811061532457634e487b7160e01b600052603260045260246000fd5b6000918252602080832090910192909255918252600188019052604090208390555b855486908061536557634e487b7160e01b600052603160045260246000fd5b600190038181906000526020600020016000905590558560010160008681526020019081526020016000206000905560019350505050610848565b6000915050610848565b60008260000182815481106153cf57634e487b7160e01b600052603260045260246000fd5b9060005260206000200154905092915050565b6060833b6154585760405162461bcd60e51b815260206004820152602660248201527f416464726573733a2064656c65676174652063616c6c20746f206e6f6e2d636f60448201527f6e7472616374000000000000000000000000000000000000000000000000000060648201526084016108bf565b600080856001600160a01b0316856040516154739190615f55565b600060405180830381855af49150503d80600081146154ae576040519150601f19603f3d011682016040523d82523d6000602084013e6154b3565b606091505b50915091506154c38282866156bc565b9695505050505050565b606060006154dc8360026162a0565b6154e7906002616268565b67ffffffffffffffff81111561550d57634e487b7160e01b600052604160045260246000fd5b6040519080825280601f01601f191660200182016040528015615537576020820181803683370190505b509050600360fc1b8160008151811061556057634e487b7160e01b600052603260045260246000fd5b60200101906001600160f81b031916908160001a905350600f60fb1b8160018151811061559d57634e487b7160e01b600052603260045260246000fd5b60200101906001600160f81b031916908160001a90535060006155c18460026162a0565b6155cc906001616268565b90505b600181111561566d577f303132333435363738396162636465660000000000000000000000000000000085600f166010811061561b57634e487b7160e01b600052603260045260246000fd5b1a60f81b82828151811061563f57634e487b7160e01b600052603260045260246000fd5b60200101906001600160f81b031916908160001a90535060049490941c9361566681616302565b90506155cf565b508315611c0b5760405162461bcd60e51b815260206004820181905260248201527f537472696e67733a20686578206c656e67746820696e73756666696369656e7460448201526064016108bf565b606083156156cb575081611c0b565b8251156156db5782518084602001fd5b8160405162461bcd60e51b81526004016108bf91906160dd565b604051806101a001604052806000815260200160006001600160a01b0316815260200160006001600160a01b031681526020016000815260200160008152602001600081526020016000815260200160006001600160a01b031681526020016000815260200160008152602001600081526020016000600181111561578a57634e487b7160e01b600052602160045260246000fd5b81526020016000905290565b8280546157a290616319565b90600052602060002090601f0160209004810192826157c4576000855561580a565b82601f106157dd5782800160ff1982351617855561580a565b8280016001018555821561580a579182015b8281111561580a5782358255916020019190600101906157ef565b5061581692915061581a565b5090565b5b80821115615816576000815560010161581b565b8035614be3816163b9565b600082601f83011261584a578081fd5b8135602067ffffffffffffffff82111561586657615866616385565b8160051b615875828201616237565b83815282810190868401838801850189101561588f578687fd5b8693505b858410156158b1578035835260019390930192918401918401615893565b50979650505050505050565b60008083601f8401126158ce578182fd5b50813567ffffffffffffffff8111156158e5578182fd5b6020830191508360208285010111156158fd57600080fd5b9250929050565b600082601f830112615914578081fd5b813567ffffffffffffffff81111561592e5761592e616385565b615941601f8201601f1916602001616237565b818152846020838601011115615955578283fd5b816020850160208301379081016020019190915292915050565b803560028110614be357600080fd5b60006020828403121561598f578081fd5b8135611c0b816163b9565b6000602082840312156159ab578081fd5b8151611c0b816163b9565b600080600080600060a086880312156159cd578081fd5b85356159d8816163b9565b945060208601356159e8816163b9565b9350604086013567ffffffffffffffff80821115615a04578283fd5b615a1089838a0161583a565b94506060880135915080821115615a25578283fd5b615a3189838a0161583a565b93506080880135915080821115615a46578283fd5b50615a5388828901615904565b9150509295509295909350565b600080600080600060808688031215615a77578081fd5b8535615a82816163b9565b94506020860135615a92816163b9565b935060408601359250606086013567ffffffffffffffff811115615ab4578182fd5b615ac0888289016158bd565b969995985093965092949392505050565b600080600080600060a08688031215615ae8578283fd5b8535615af3816163b9565b94506020860135615b03816163b9565b93506040860135925060608601359150608086013567ffffffffffffffff811115615b2c578182fd5b615a5388828901615904565b60008060408385031215615b4a578182fd5b8251615b55816163b9565b6020939093015192949293505050565b60008060208385031215615b77578182fd5b823567ffffffffffffffff80821115615b8e578384fd5b818501915085601f830112615ba1578384fd5b813581811115615baf578485fd5b8660208260051b8501011115615bc3578485fd5b60209290920196919550909350505050565b600060208284031215615be6578081fd5b8135611c0b816163ce565b600060208284031215615c02578081fd5b8151611c0b816163ce565b600060208284031215615c1e578081fd5b5035919050565b600060208284031215615c36578081fd5b5051919050565b60008060408385031215615c4f578182fd5b823591506020830135615c61816163b9565b809150509250929050565b60008060408385031215615c7e578182fd5b50508035926020909101359150565b600060208284031215615c9e578081fd5b81356001600160e01b031981168114611c0b578182fd5b60008060208385031215615cc7578182fd5b823567ffffffffffffffff811115615cdd578283fd5b615ce9858286016158bd565b90969095509350505050565b60006101408284031215615d07578081fd5b615d0f61620d565b615d188361582f565b815260208301356020820152604083013560408201526060830135606082015260808301356080820152615d4e60a0840161582f565b60a082015260c083013560c082015260e083013560e0820152610100808401358183015250610120615d8181850161596f565b908201529392505050565b600060208284031215615d9d578081fd5b8135611c0b816163dc565b600060208284031215615db9578081fd5b8151611c0b816163dc565b600080600060608486031215615dd8578081fd5b505081359360208301359350604090920135919050565b600080600080600080600080610100898b031215615e0b578586fd5b883597506020890135965060408901359550606089013594506080890135935060a0890135615e39816163b9565b979a969950949793969295929450505060c08201359160e0013590565b60008151808452615e6e8160208601602086016162d6565b601f01601f19169290920160200192915050565b615e8b8161639b565b9052565b805182526020810151615ead60208401826001600160a01b03169052565b506040810151615ec860408401826001600160a01b03169052565b50606081015160608301526080810151608083015260a081015160a083015260c081015160c083015260e0810151615f0b60e08401826001600160a01b03169052565b5061010081810151908301526101208082015190830152610140808201519083015261016080820151615f4082850182615e82565b50506101808082015161418582850182615e82565b60008251615f678184602087016162d6565b9190910192915050565b7f416363657373436f6e74726f6c3a206163636f756e7420000000000000000000815260008351615fa98160178501602088016162d6565b7f206973206d697373696e6720726f6c65200000000000000000000000000000006017918401918201528351615fe68160288401602088016162d6565b01602801949350505050565b6001600160a01b0385811682528416602082015261026081016160426040830185805182526001600160a01b03602082015116602083015260408101516040830152606081015160608301525050565b610a8160c0830184615e8f565b6001600160a01b0384168152602081018390526101e081016160746040830184615e8f565b949350505050565b6000602080830181845280855180835260408601915060408160051b8701019250838701855b828110156160d057603f198886030184526160be858351615e56565b945092850192908501906001016160a2565b5092979650505050505050565b602081526000611c0b6020830184615e56565b6101a081016108488284615e8f565b825181526020808401516001600160a01b03169082015260408084015190820152606080840151908201526102208101611c0b6080830184615e8f565b60006101a0820190508e82526001600160a01b03808f166020840152808e1660408401528c60608401528b60808401528a60a08401528960c084015280891660e08401525086610100830152856101208301528461014083015261619f8461639b565b836101608301526161af8361639b565b826101808301529e9d5050505050505050505050505050565b6000808335601e198436030181126161de578283fd5b83018035915067ffffffffffffffff8211156161f8578283fd5b6020019150368190038213156158fd57600080fd5b604051610140810167ffffffffffffffff8111828210171561623157616231616385565b60405290565b604051601f8201601f1916810167ffffffffffffffff8111828210171561626057616260616385565b604052919050565b6000821982111561627b5761627b61636f565b500190565b60008261629b57634e487b7160e01b81526012600452602481fd5b500490565b60008160001904831182151516156162ba576162ba61636f565b500290565b6000828210156162d1576162d161636f565b500390565b60005b838110156162f15781810151838201526020016162d9565b838111156141855750506000910152565b6000816163115761631161636f565b506000190190565b600181811c9082168061632d57607f821691505b6020821081141561634e57634e487b7160e01b600052602260045260246000fd5b50919050565b60006000198214156163685761636861636f565b5060010190565b634e487b7160e01b600052601160045260246000fd5b634e487b7160e01b600052604160045260246000fd5b60028110610b1057634e487b7160e01b600052602160045260246000fd5b6001600160a01b0381168114610b1057600080fd5b8015158114610b1057600080fd5b6001600160801b0381168114610b1057600080fdfe416464726573733a206c6f772d6c6576656c2064656c65676174652063616c6c206661696c6564a164736f6c6343000804000a",
  "linkReferences": {},
  "deployedLinkReferences": {}
}