{
  "_format": "hh-sol-artifact-1",
  "contractName": "Market",
  "sourceName": "contracts/v2/Market.sol",
  "abi": [
    {
      "inputs": [
        {
          "internalType": "address payable",
          "name": "_controlCenter",
          "type": "address"
        },
        {
          "internalType": "address",
          "name": "_trustedForwarder",
          "type": "address"
        },
        {
          "internalType": "string",
          "name": "_uri",
          "type": "string"
        }
      ],
      "stateMutability": "nonpayable",
      "type": "constructor"
    },
    {
      "anonymous": false,
      "inputs": [
        {
          "indexed": true,
          "internalType": "uint256",
          "name": "listingId",
          "type": "uint256"
        },
        {
          "indexed": true,
          "internalType": "address",
          "name": "auctionCreator",
          "type": "address"
        },
        {
          "components": [
            {
              "internalType": "uint256",
              "name": "listingId",
              "type": "uint256"
            },
            {
              "internalType": "address",
              "name": "tokenOwner",
              "type": "address"
            },
            {
              "internalType": "address",
              "name": "assetContract",
              "type": "address"
            },
            {
              "internalType": "uint256",
              "name": "tokenId",
              "type": "uint256"
            },
            {
              "internalType": "uint256",
              "name": "startTime",
              "type": "uint256"
            },
            {
              "internalType": "uint256",
              "name": "endTime",
              "type": "uint256"
            },
            {
              "internalType": "uint256",
              "name": "quantity",
              "type": "uint256"
            },
            {
              "internalType": "address",
              "name": "currency",
              "type": "address"
            },
            {
              "internalType": "uint256",
              "name": "reservePricePerToken",
              "type": "uint256"
            },
            {
              "internalType": "uint256",
              "name": "buyoutPricePerToken",
              "type": "uint256"
            },
            {
              "internalType": "uint256",
              "name": "tokensPerBuyer",
              "type": "uint256"
            },
            {
              "internalType": "enum IMarket.TokenType",
              "name": "tokenType",
              "type": "uint8"
            },
            {
              "internalType": "enum IMarket.ListingType",
              "name": "listingType",
              "type": "uint8"
            }
          ],
          "indexed": false,
          "internalType": "struct IMarket.Listing",
          "name": "listing",
          "type": "tuple"
        }
      ],
      "name": "AuctionCanceled",
      "type": "event"
    },
    {
      "anonymous": false,
      "inputs": [
        {
          "indexed": true,
          "internalType": "uint256",
          "name": "listingId",
          "type": "uint256"
        },
        {
          "indexed": true,
          "internalType": "address",
          "name": "closer",
          "type": "address"
        },
        {
          "indexed": false,
          "internalType": "address",
          "name": "auctionCreator",
          "type": "address"
        },
        {
          "indexed": false,
          "internalType": "address",
          "name": "winningBidder",
          "type": "address"
        },
        {
          "components": [
            {
              "internalType": "uint256",
              "name": "listingId",
              "type": "uint256"
            },
            {
              "internalType": "address",
              "name": "offeror",
              "type": "address"
            },
            {
              "internalType": "uint256",
              "name": "quantityWanted",
              "type": "uint256"
            },
            {
              "internalType": "uint256",
              "name": "offerAmount",
              "type": "uint256"
            }
          ],
          "indexed": false,
          "internalType": "struct IMarket.Offer",
          "name": "winningBid",
          "type": "tuple"
        },
        {
          "components": [
            {
              "internalType": "uint256",
              "name": "listingId",
              "type": "uint256"
            },
            {
              "internalType": "address",
              "name": "tokenOwner",
              "type": "address"
            },
            {
              "internalType": "address",
              "name": "assetContract",
              "type": "address"
            },
            {
              "internalType": "uint256",
              "name": "tokenId",
              "type": "uint256"
            },
            {
              "internalType": "uint256",
              "name": "startTime",
              "type": "uint256"
            },
            {
              "internalType": "uint256",
              "name": "endTime",
              "type": "uint256"
            },
            {
              "internalType": "uint256",
              "name": "quantity",
              "type": "uint256"
            },
            {
              "internalType": "address",
              "name": "currency",
              "type": "address"
            },
            {
              "internalType": "uint256",
              "name": "reservePricePerToken",
              "type": "uint256"
            },
            {
              "internalType": "uint256",
              "name": "buyoutPricePerToken",
              "type": "uint256"
            },
            {
              "internalType": "uint256",
              "name": "tokensPerBuyer",
              "type": "uint256"
            },
            {
              "internalType": "enum IMarket.TokenType",
              "name": "tokenType",
              "type": "uint8"
            },
            {
              "internalType": "enum IMarket.ListingType",
              "name": "listingType",
              "type": "uint8"
            }
          ],
          "indexed": false,
          "internalType": "struct IMarket.Listing",
          "name": "listing",
          "type": "tuple"
        }
      ],
      "name": "AuctionClosed",
      "type": "event"
    },
    {
      "anonymous": false,
      "inputs": [
        {
          "indexed": true,
          "internalType": "address",
          "name": "listingCreator",
          "type": "address"
        },
        {
          "indexed": true,
          "internalType": "uint256",
          "name": "listingId",
          "type": "uint256"
        },
        {
          "components": [
            {
              "internalType": "uint256",
              "name": "listingId",
              "type": "uint256"
            },
            {
              "internalType": "address",
              "name": "tokenOwner",
              "type": "address"
            },
            {
              "internalType": "address",
              "name": "assetContract",
              "type": "address"
            },
            {
              "internalType": "uint256",
              "name": "tokenId",
              "type": "uint256"
            },
            {
              "internalType": "uint256",
              "name": "startTime",
              "type": "uint256"
            },
            {
              "internalType": "uint256",
              "name": "endTime",
              "type": "uint256"
            },
            {
              "internalType": "uint256",
              "name": "quantity",
              "type": "uint256"
            },
            {
              "internalType": "address",
              "name": "currency",
              "type": "address"
            },
            {
              "internalType": "uint256",
              "name": "reservePricePerToken",
              "type": "uint256"
            },
            {
              "internalType": "uint256",
              "name": "buyoutPricePerToken",
              "type": "uint256"
            },
            {
              "internalType": "uint256",
              "name": "tokensPerBuyer",
              "type": "uint256"
            },
            {
              "internalType": "enum IMarket.TokenType",
              "name": "tokenType",
              "type": "uint8"
            },
            {
              "internalType": "enum IMarket.ListingType",
              "name": "listingType",
              "type": "uint8"
            }
          ],
          "indexed": false,
          "internalType": "struct IMarket.Listing",
          "name": "listing",
          "type": "tuple"
        }
      ],
      "name": "ListingUpdate",
      "type": "event"
    },
    {
      "anonymous": false,
      "inputs": [
        {
          "indexed": false,
          "internalType": "uint128",
          "name": "newFee",
          "type": "uint128"
        }
      ],
      "name": "MarketFeeUpdate",
      "type": "event"
    },
    {
      "anonymous": false,
      "inputs": [
        {
          "indexed": true,
          "internalType": "uint256",
          "name": "listingId",
          "type": "uint256"
        },
        {
          "indexed": true,
          "internalType": "address",
          "name": "bidder",
          "type": "address"
        },
        {
          "components": [
            {
              "internalType": "uint256",
              "name": "listingId",
              "type": "uint256"
            },
            {
              "internalType": "address",
              "name": "offeror",
              "type": "address"
            },
            {
              "internalType": "uint256",
              "name": "quantityWanted",
              "type": "uint256"
            },
            {
              "internalType": "uint256",
              "name": "offerAmount",
              "type": "uint256"
            }
          ],
          "indexed": false,
          "internalType": "struct IMarket.Offer",
          "name": "bid",
          "type": "tuple"
        },
        {
          "components": [
            {
              "internalType": "uint256",
              "name": "listingId",
              "type": "uint256"
            },
            {
              "internalType": "address",
              "name": "tokenOwner",
              "type": "address"
            },
            {
              "internalType": "address",
              "name": "assetContract",
              "type": "address"
            },
            {
              "internalType": "uint256",
              "name": "tokenId",
              "type": "uint256"
            },
            {
              "internalType": "uint256",
              "name": "startTime",
              "type": "uint256"
            },
            {
              "internalType": "uint256",
              "name": "endTime",
              "type": "uint256"
            },
            {
              "internalType": "uint256",
              "name": "quantity",
              "type": "uint256"
            },
            {
              "internalType": "address",
              "name": "currency",
              "type": "address"
            },
            {
              "internalType": "uint256",
              "name": "reservePricePerToken",
              "type": "uint256"
            },
            {
              "internalType": "uint256",
              "name": "buyoutPricePerToken",
              "type": "uint256"
            },
            {
              "internalType": "uint256",
              "name": "tokensPerBuyer",
              "type": "uint256"
            },
            {
              "internalType": "enum IMarket.TokenType",
              "name": "tokenType",
              "type": "uint8"
            },
            {
              "internalType": "enum IMarket.ListingType",
              "name": "listingType",
              "type": "uint8"
            }
          ],
          "indexed": false,
          "internalType": "struct IMarket.Listing",
          "name": "listing",
          "type": "tuple"
        }
      ],
      "name": "NewBid",
      "type": "event"
    },
    {
      "anonymous": false,
      "inputs": [
        {
          "indexed": true,
          "internalType": "address",
          "name": "assetContract",
          "type": "address"
        },
        {
          "indexed": true,
          "internalType": "address",
          "name": "seller",
          "type": "address"
        },
        {
          "indexed": true,
          "internalType": "uint256",
          "name": "listingId",
          "type": "uint256"
        },
        {
          "indexed": false,
          "internalType": "address",
          "name": "buyer",
          "type": "address"
        },
        {
          "indexed": false,
          "internalType": "uint256",
          "name": "quantity",
          "type": "uint256"
        },
        {
          "components": [
            {
              "internalType": "uint256",
              "name": "listingId",
              "type": "uint256"
            },
            {
              "internalType": "address",
              "name": "tokenOwner",
              "type": "address"
            },
            {
              "internalType": "address",
              "name": "assetContract",
              "type": "address"
            },
            {
              "internalType": "uint256",
              "name": "tokenId",
              "type": "uint256"
            },
            {
              "internalType": "uint256",
              "name": "startTime",
              "type": "uint256"
            },
            {
              "internalType": "uint256",
              "name": "endTime",
              "type": "uint256"
            },
            {
              "internalType": "uint256",
              "name": "quantity",
              "type": "uint256"
            },
            {
              "internalType": "address",
              "name": "currency",
              "type": "address"
            },
            {
              "internalType": "uint256",
              "name": "reservePricePerToken",
              "type": "uint256"
            },
            {
              "internalType": "uint256",
              "name": "buyoutPricePerToken",
              "type": "uint256"
            },
            {
              "internalType": "uint256",
              "name": "tokensPerBuyer",
              "type": "uint256"
            },
            {
              "internalType": "enum IMarket.TokenType",
              "name": "tokenType",
              "type": "uint8"
            },
            {
              "internalType": "enum IMarket.ListingType",
              "name": "listingType",
              "type": "uint8"
            }
          ],
          "indexed": false,
          "internalType": "struct IMarket.Listing",
          "name": "listing",
          "type": "tuple"
        }
      ],
      "name": "NewDirectSale",
      "type": "event"
    },
    {
      "anonymous": false,
      "inputs": [
        {
          "indexed": true,
          "internalType": "address",
          "name": "assetContract",
          "type": "address"
        },
        {
          "indexed": true,
          "internalType": "address",
          "name": "seller",
          "type": "address"
        },
        {
          "indexed": true,
          "internalType": "uint256",
          "name": "listingId",
          "type": "uint256"
        },
        {
          "components": [
            {
              "internalType": "uint256",
              "name": "listingId",
              "type": "uint256"
            },
            {
              "internalType": "address",
              "name": "tokenOwner",
              "type": "address"
            },
            {
              "internalType": "address",
              "name": "assetContract",
              "type": "address"
            },
            {
              "internalType": "uint256",
              "name": "tokenId",
              "type": "uint256"
            },
            {
              "internalType": "uint256",
              "name": "startTime",
              "type": "uint256"
            },
            {
              "internalType": "uint256",
              "name": "endTime",
              "type": "uint256"
            },
            {
              "internalType": "uint256",
              "name": "quantity",
              "type": "uint256"
            },
            {
              "internalType": "address",
              "name": "currency",
              "type": "address"
            },
            {
              "internalType": "uint256",
              "name": "reservePricePerToken",
              "type": "uint256"
            },
            {
              "internalType": "uint256",
              "name": "buyoutPricePerToken",
              "type": "uint256"
            },
            {
              "internalType": "uint256",
              "name": "tokensPerBuyer",
              "type": "uint256"
            },
            {
              "internalType": "enum IMarket.TokenType",
              "name": "tokenType",
              "type": "uint8"
            },
            {
              "internalType": "enum IMarket.ListingType",
              "name": "listingType",
              "type": "uint8"
            }
          ],
          "indexed": false,
          "internalType": "struct IMarket.Listing",
          "name": "listing",
          "type": "tuple"
        }
      ],
      "name": "NewListing",
      "type": "event"
    },
    {
      "anonymous": false,
      "inputs": [
        {
          "indexed": true,
          "internalType": "uint256",
          "name": "listingId",
          "type": "uint256"
        },
        {
          "indexed": true,
          "internalType": "address",
          "name": "offeror",
          "type": "address"
        },
        {
          "components": [
            {
              "internalType": "uint256",
              "name": "listingId",
              "type": "uint256"
            },
            {
              "internalType": "address",
              "name": "offeror",
              "type": "address"
            },
            {
              "internalType": "uint256",
              "name": "quantityWanted",
              "type": "uint256"
            },
            {
              "internalType": "uint256",
              "name": "offerAmount",
              "type": "uint256"
            }
          ],
          "indexed": false,
          "internalType": "struct IMarket.Offer",
          "name": "offer",
          "type": "tuple"
        },
        {
          "components": [
            {
              "internalType": "uint256",
              "name": "listingId",
              "type": "uint256"
            },
            {
              "internalType": "address",
              "name": "tokenOwner",
              "type": "address"
            },
            {
              "internalType": "address",
              "name": "assetContract",
              "type": "address"
            },
            {
              "internalType": "uint256",
              "name": "tokenId",
              "type": "uint256"
            },
            {
              "internalType": "uint256",
              "name": "startTime",
              "type": "uint256"
            },
            {
              "internalType": "uint256",
              "name": "endTime",
              "type": "uint256"
            },
            {
              "internalType": "uint256",
              "name": "quantity",
              "type": "uint256"
            },
            {
              "internalType": "address",
              "name": "currency",
              "type": "address"
            },
            {
              "internalType": "uint256",
              "name": "reservePricePerToken",
              "type": "uint256"
            },
            {
              "internalType": "uint256",
              "name": "buyoutPricePerToken",
              "type": "uint256"
            },
            {
              "internalType": "uint256",
              "name": "tokensPerBuyer",
              "type": "uint256"
            },
            {
              "internalType": "enum IMarket.TokenType",
              "name": "tokenType",
              "type": "uint8"
            },
            {
              "internalType": "enum IMarket.ListingType",
              "name": "listingType",
              "type": "uint8"
            }
          ],
          "indexed": false,
          "internalType": "struct IMarket.Listing",
          "name": "listing",
          "type": "tuple"
        }
      ],
      "name": "NewOffer",
      "type": "event"
    },
    {
      "anonymous": false,
      "inputs": [
        {
          "indexed": false,
          "internalType": "address",
          "name": "account",
          "type": "address"
        }
      ],
      "name": "Paused",
      "type": "event"
    },
    {
      "anonymous": false,
      "inputs": [
        {
          "indexed": false,
          "internalType": "bool",
          "name": "restricted",
          "type": "bool"
        }
      ],
      "name": "RestrictedListerRoleUpdated",
      "type": "event"
    },
    {
      "anonymous": false,
      "inputs": [
        {
          "indexed": true,
          "internalType": "bytes32",
          "name": "role",
          "type": "bytes32"
        },
        {
          "indexed": true,
          "internalType": "bytes32",
          "name": "previousAdminRole",
          "type": "bytes32"
        },
        {
          "indexed": true,
          "internalType": "bytes32",
          "name": "newAdminRole",
          "type": "bytes32"
        }
      ],
      "name": "RoleAdminChanged",
      "type": "event"
    },
    {
      "anonymous": false,
      "inputs": [
        {
          "indexed": true,
          "internalType": "bytes32",
          "name": "role",
          "type": "bytes32"
        },
        {
          "indexed": true,
          "internalType": "address",
          "name": "account",
          "type": "address"
        },
        {
          "indexed": true,
          "internalType": "address",
          "name": "sender",
          "type": "address"
        }
      ],
      "name": "RoleGranted",
      "type": "event"
    },
    {
      "anonymous": false,
      "inputs": [
        {
          "indexed": true,
          "internalType": "bytes32",
          "name": "role",
          "type": "bytes32"
        },
        {
          "indexed": true,
          "internalType": "address",
          "name": "account",
          "type": "address"
        },
        {
          "indexed": true,
          "internalType": "address",
          "name": "sender",
          "type": "address"
        }
      ],
      "name": "RoleRevoked",
      "type": "event"
    },
    {
      "anonymous": false,
      "inputs": [
        {
          "indexed": false,
          "internalType": "address",
          "name": "account",
          "type": "address"
        }
      ],
      "name": "Unpaused",
      "type": "event"
    },
    {
      "inputs": [],
      "name": "DEFAULT_ADMIN_ROLE",
      "outputs": [
        {
          "internalType": "bytes32",
          "name": "",
          "type": "bytes32"
        }
      ],
      "stateMutability": "view",
      "type": "function"
    },
    {
      "inputs": [],
      "name": "LISTER_ROLE",
      "outputs": [
        {
          "internalType": "bytes32",
          "name": "",
          "type": "bytes32"
        }
      ],
      "stateMutability": "view",
      "type": "function"
    },
    {
      "inputs": [],
      "name": "PAUSER_ROLE",
      "outputs": [
        {
          "internalType": "bytes32",
          "name": "",
          "type": "bytes32"
        }
      ],
      "stateMutability": "view",
      "type": "function"
    },
    {
      "inputs": [],
      "name": "_contractURI",
      "outputs": [
        {
          "internalType": "string",
          "name": "",
          "type": "string"
        }
      ],
      "stateMutability": "view",
      "type": "function"
    },
    {
      "inputs": [
        {
          "internalType": "uint256",
          "name": "_listingId",
          "type": "uint256"
        },
        {
          "internalType": "address",
          "name": "offeror",
          "type": "address"
        }
      ],
      "name": "acceptOffer",
      "outputs": [],
      "stateMutability": "nonpayable",
      "type": "function"
    },
    {
      "inputs": [
        {
          "internalType": "uint256",
          "name": "_listingId",
          "type": "uint256"
        },
        {
          "internalType": "uint256",
          "name": "_bidAmount",
          "type": "uint256"
        }
      ],
      "name": "bid",
      "outputs": [],
      "stateMutability": "nonpayable",
      "type": "function"
    },
    {
      "inputs": [],
      "name": "bidBufferBps",
      "outputs": [
        {
          "internalType": "uint256",
          "name": "",
          "type": "uint256"
        }
      ],
      "stateMutability": "view",
      "type": "function"
    },
    {
      "inputs": [
        {
          "internalType": "uint256",
          "name": "",
          "type": "uint256"
        },
        {
          "internalType": "address",
          "name": "",
          "type": "address"
        }
      ],
      "name": "boughtFromListing",
      "outputs": [
        {
          "internalType": "uint256",
          "name": "",
          "type": "uint256"
        }
      ],
      "stateMutability": "view",
      "type": "function"
    },
    {
      "inputs": [
        {
          "internalType": "uint256",
          "name": "_listingId",
          "type": "uint256"
        },
        {
          "internalType": "uint256",
          "name": "_quantityToBuy",
          "type": "uint256"
        }
      ],
      "name": "buy",
      "outputs": [],
      "stateMutability": "nonpayable",
      "type": "function"
    },
    {
      "inputs": [
        {
          "internalType": "uint256",
          "name": "_listingId",
          "type": "uint256"
        }
      ],
      "name": "cancelAuction",
      "outputs": [],
      "stateMutability": "nonpayable",
      "type": "function"
    },
    {
      "inputs": [
        {
          "internalType": "uint256",
          "name": "_listingId",
          "type": "uint256"
        }
      ],
      "name": "closeAuction",
      "outputs": [],
      "stateMutability": "nonpayable",
      "type": "function"
    },
    {
      "inputs": [],
      "name": "contractURI",
      "outputs": [
        {
          "internalType": "string",
          "name": "",
          "type": "string"
        }
      ],
      "stateMutability": "view",
      "type": "function"
    },
    {
      "inputs": [
        {
          "components": [
            {
              "internalType": "address",
              "name": "assetContract",
              "type": "address"
            },
            {
              "internalType": "uint256",
              "name": "tokenId",
              "type": "uint256"
            },
            {
              "internalType": "uint256",
              "name": "secondsUntilStartTime",
              "type": "uint256"
            },
            {
              "internalType": "uint256",
              "name": "secondsUntilEndTime",
              "type": "uint256"
            },
            {
              "internalType": "uint256",
              "name": "quantityToList",
              "type": "uint256"
            },
            {
              "internalType": "address",
              "name": "currencyToAccept",
              "type": "address"
            },
            {
              "internalType": "uint256",
              "name": "reservePricePerToken",
              "type": "uint256"
            },
            {
              "internalType": "uint256",
              "name": "buyoutPricePerToken",
              "type": "uint256"
            },
            {
              "internalType": "uint256",
              "name": "tokensPerBuyer",
              "type": "uint256"
            },
            {
              "internalType": "enum IMarket.ListingType",
              "name": "listingType",
              "type": "uint8"
            }
          ],
          "internalType": "struct IMarket.ListingParameters",
          "name": "_params",
          "type": "tuple"
        }
      ],
      "name": "createListing",
      "outputs": [],
      "stateMutability": "nonpayable",
      "type": "function"
    },
    {
      "inputs": [
        {
          "internalType": "uint256",
          "name": "_listingId",
          "type": "uint256"
        },
        {
          "internalType": "uint256",
          "name": "_quantityToList",
          "type": "uint256"
        },
        {
          "internalType": "uint256",
          "name": "_reservePricePerToken",
          "type": "uint256"
        },
        {
          "internalType": "uint256",
          "name": "_buyoutPricePerToken",
          "type": "uint256"
        },
        {
          "internalType": "uint256",
          "name": "_tokensPerBuyer",
          "type": "uint256"
        },
        {
          "internalType": "address",
          "name": "_currencyToAccept",
          "type": "address"
        },
        {
          "internalType": "uint256",
          "name": "_secondsUntilStartTime",
          "type": "uint256"
        },
        {
          "internalType": "uint256",
          "name": "_secondsUntilEndTime",
          "type": "uint256"
        }
      ],
      "name": "editListingParametrs",
      "outputs": [],
      "stateMutability": "nonpayable",
      "type": "function"
    },
    {
      "inputs": [
        {
          "internalType": "uint256",
          "name": "_listingId",
          "type": "uint256"
        }
      ],
      "name": "getListing",
      "outputs": [
        {
          "components": [
            {
              "internalType": "uint256",
              "name": "listingId",
              "type": "uint256"
            },
            {
              "internalType": "address",
              "name": "tokenOwner",
              "type": "address"
            },
            {
              "internalType": "address",
              "name": "assetContract",
              "type": "address"
            },
            {
              "internalType": "uint256",
              "name": "tokenId",
              "type": "uint256"
            },
            {
              "internalType": "uint256",
              "name": "startTime",
              "type": "uint256"
            },
            {
              "internalType": "uint256",
              "name": "endTime",
              "type": "uint256"
            },
            {
              "internalType": "uint256",
              "name": "quantity",
              "type": "uint256"
            },
            {
              "internalType": "address",
              "name": "currency",
              "type": "address"
            },
            {
              "internalType": "uint256",
              "name": "reservePricePerToken",
              "type": "uint256"
            },
            {
              "internalType": "uint256",
              "name": "buyoutPricePerToken",
              "type": "uint256"
            },
            {
              "internalType": "uint256",
              "name": "tokensPerBuyer",
              "type": "uint256"
            },
            {
              "internalType": "enum IMarket.TokenType",
              "name": "tokenType",
              "type": "uint8"
            },
            {
              "internalType": "enum IMarket.ListingType",
              "name": "listingType",
              "type": "uint8"
            }
          ],
          "internalType": "struct IMarket.Listing",
          "name": "listing",
          "type": "tuple"
        }
      ],
      "stateMutability": "view",
      "type": "function"
    },
    {
      "inputs": [
        {
          "internalType": "bytes32",
          "name": "role",
          "type": "bytes32"
        }
      ],
      "name": "getRoleAdmin",
      "outputs": [
        {
          "internalType": "bytes32",
          "name": "",
          "type": "bytes32"
        }
      ],
      "stateMutability": "view",
      "type": "function"
    },
    {
      "inputs": [
        {
          "internalType": "bytes32",
          "name": "role",
          "type": "bytes32"
        },
        {
          "internalType": "uint256",
          "name": "index",
          "type": "uint256"
        }
      ],
      "name": "getRoleMember",
      "outputs": [
        {
          "internalType": "address",
          "name": "",
          "type": "address"
        }
      ],
      "stateMutability": "view",
      "type": "function"
    },
    {
      "inputs": [
        {
          "internalType": "bytes32",
          "name": "role",
          "type": "bytes32"
        }
      ],
      "name": "getRoleMemberCount",
      "outputs": [
        {
          "internalType": "uint256",
          "name": "",
          "type": "uint256"
        }
      ],
      "stateMutability": "view",
      "type": "function"
    },
    {
      "inputs": [
        {
          "internalType": "bytes32",
          "name": "role",
          "type": "bytes32"
        },
        {
          "internalType": "address",
          "name": "account",
          "type": "address"
        }
      ],
      "name": "grantRole",
      "outputs": [],
      "stateMutability": "nonpayable",
      "type": "function"
    },
    {
      "inputs": [
        {
          "internalType": "bytes32",
          "name": "role",
          "type": "bytes32"
        },
        {
          "internalType": "address",
          "name": "account",
          "type": "address"
        }
      ],
      "name": "hasRole",
      "outputs": [
        {
          "internalType": "bool",
          "name": "",
          "type": "bool"
        }
      ],
      "stateMutability": "view",
      "type": "function"
    },
    {
      "inputs": [
        {
          "internalType": "address",
          "name": "forwarder",
          "type": "address"
        }
      ],
      "name": "isTrustedForwarder",
      "outputs": [
        {
          "internalType": "bool",
          "name": "",
          "type": "bool"
        }
      ],
      "stateMutability": "view",
      "type": "function"
    },
    {
      "inputs": [
        {
          "internalType": "uint256",
          "name": "",
          "type": "uint256"
        }
      ],
      "name": "listings",
      "outputs": [
        {
          "internalType": "uint256",
          "name": "listingId",
          "type": "uint256"
        },
        {
          "internalType": "address",
          "name": "tokenOwner",
          "type": "address"
        },
        {
          "internalType": "address",
          "name": "assetContract",
          "type": "address"
        },
        {
          "internalType": "uint256",
          "name": "tokenId",
          "type": "uint256"
        },
        {
          "internalType": "uint256",
          "name": "startTime",
          "type": "uint256"
        },
        {
          "internalType": "uint256",
          "name": "endTime",
          "type": "uint256"
        },
        {
          "internalType": "uint256",
          "name": "quantity",
          "type": "uint256"
        },
        {
          "internalType": "address",
          "name": "currency",
          "type": "address"
        },
        {
          "internalType": "uint256",
          "name": "reservePricePerToken",
          "type": "uint256"
        },
        {
          "internalType": "uint256",
          "name": "buyoutPricePerToken",
          "type": "uint256"
        },
        {
          "internalType": "uint256",
          "name": "tokensPerBuyer",
          "type": "uint256"
        },
        {
          "internalType": "enum IMarket.TokenType",
          "name": "tokenType",
          "type": "uint8"
        },
        {
          "internalType": "enum IMarket.ListingType",
          "name": "listingType",
          "type": "uint8"
        }
      ],
      "stateMutability": "view",
      "type": "function"
    },
    {
      "inputs": [],
      "name": "marketFeeBps",
      "outputs": [
        {
          "internalType": "uint128",
          "name": "",
          "type": "uint128"
        }
      ],
      "stateMutability": "view",
      "type": "function"
    },
    {
      "inputs": [
        {
          "internalType": "bytes[]",
          "name": "data",
          "type": "bytes[]"
        }
      ],
      "name": "multicall",
      "outputs": [
        {
          "internalType": "bytes[]",
          "name": "results",
          "type": "bytes[]"
        }
      ],
      "stateMutability": "nonpayable",
      "type": "function"
    },
    {
      "inputs": [
        {
          "internalType": "uint256",
          "name": "_listingId",
          "type": "uint256"
        },
        {
          "internalType": "uint256",
          "name": "_quantityWanted",
          "type": "uint256"
        },
        {
          "internalType": "uint256",
          "name": "_totalOfferAmount",
          "type": "uint256"
        }
      ],
      "name": "offer",
      "outputs": [],
      "stateMutability": "nonpayable",
      "type": "function"
    },
    {
      "inputs": [
        {
          "internalType": "uint256",
          "name": "",
          "type": "uint256"
        },
        {
          "internalType": "address",
          "name": "",
          "type": "address"
        }
      ],
      "name": "offers",
      "outputs": [
        {
          "internalType": "uint256",
          "name": "listingId",
          "type": "uint256"
        },
        {
          "internalType": "address",
          "name": "offeror",
          "type": "address"
        },
        {
          "internalType": "uint256",
          "name": "quantityWanted",
          "type": "uint256"
        },
        {
          "internalType": "uint256",
          "name": "offerAmount",
          "type": "uint256"
        }
      ],
      "stateMutability": "view",
      "type": "function"
    },
    {
      "inputs": [
        {
          "internalType": "address",
          "name": "",
          "type": "address"
        },
        {
          "internalType": "address",
          "name": "",
          "type": "address"
        },
        {
          "internalType": "uint256[]",
          "name": "",
          "type": "uint256[]"
        },
        {
          "internalType": "uint256[]",
          "name": "",
          "type": "uint256[]"
        },
        {
          "internalType": "bytes",
          "name": "",
          "type": "bytes"
        }
      ],
      "name": "onERC1155BatchReceived",
      "outputs": [
        {
          "internalType": "bytes4",
          "name": "",
          "type": "bytes4"
        }
      ],
      "stateMutability": "nonpayable",
      "type": "function"
    },
    {
      "inputs": [
        {
          "internalType": "address",
          "name": "",
          "type": "address"
        },
        {
          "internalType": "address",
          "name": "",
          "type": "address"
        },
        {
          "internalType": "uint256",
          "name": "",
          "type": "uint256"
        },
        {
          "internalType": "uint256",
          "name": "",
          "type": "uint256"
        },
        {
          "internalType": "bytes",
          "name": "",
          "type": "bytes"
        }
      ],
      "name": "onERC1155Received",
      "outputs": [
        {
          "internalType": "bytes4",
          "name": "",
          "type": "bytes4"
        }
      ],
      "stateMutability": "nonpayable",
      "type": "function"
    },
    {
      "inputs": [
        {
          "internalType": "address",
          "name": "",
          "type": "address"
        },
        {
          "internalType": "address",
          "name": "",
          "type": "address"
        },
        {
          "internalType": "uint256",
          "name": "",
          "type": "uint256"
        },
        {
          "internalType": "bytes",
          "name": "",
          "type": "bytes"
        }
      ],
      "name": "onERC721Received",
      "outputs": [
        {
          "internalType": "bytes4",
          "name": "",
          "type": "bytes4"
        }
      ],
      "stateMutability": "pure",
      "type": "function"
    },
    {
      "inputs": [],
      "name": "paused",
      "outputs": [
        {
          "internalType": "bool",
          "name": "",
          "type": "bool"
        }
      ],
      "stateMutability": "view",
      "type": "function"
    },
    {
      "inputs": [
        {
          "internalType": "bytes32",
          "name": "role",
          "type": "bytes32"
        },
        {
          "internalType": "address",
          "name": "account",
          "type": "address"
        }
      ],
      "name": "renounceRole",
      "outputs": [],
      "stateMutability": "nonpayable",
      "type": "function"
    },
    {
      "inputs": [],
      "name": "restrictedListerRoleOnly",
      "outputs": [
        {
          "internalType": "bool",
          "name": "",
          "type": "bool"
        }
      ],
      "stateMutability": "view",
      "type": "function"
    },
    {
      "inputs": [
        {
          "internalType": "bytes32",
          "name": "role",
          "type": "bytes32"
        },
        {
          "internalType": "address",
          "name": "account",
          "type": "address"
        }
      ],
      "name": "revokeRole",
      "outputs": [],
      "stateMutability": "nonpayable",
      "type": "function"
    },
    {
      "inputs": [
        {
          "internalType": "string",
          "name": "_uri",
          "type": "string"
        }
      ],
      "name": "setContractURI",
      "outputs": [],
      "stateMutability": "nonpayable",
      "type": "function"
    },
    {
      "inputs": [
        {
          "internalType": "uint128",
          "name": "feeBps",
          "type": "uint128"
        }
      ],
      "name": "setMarketFeeBps",
      "outputs": [],
      "stateMutability": "nonpayable",
      "type": "function"
    },
    {
      "inputs": [
        {
          "internalType": "bool",
          "name": "_toPause",
          "type": "bool"
        }
      ],
      "name": "setPaused",
      "outputs": [],
      "stateMutability": "nonpayable",
      "type": "function"
    },
    {
      "inputs": [
        {
          "internalType": "bool",
          "name": "restricted",
          "type": "bool"
        }
      ],
      "name": "setRestrictedListerRoleOnly",
      "outputs": [],
      "stateMutability": "nonpayable",
      "type": "function"
    },
    {
      "inputs": [
        {
          "internalType": "bytes4",
          "name": "interfaceId",
          "type": "bytes4"
        }
      ],
      "name": "supportsInterface",
      "outputs": [
        {
          "internalType": "bool",
          "name": "",
          "type": "bool"
        }
      ],
      "stateMutability": "view",
      "type": "function"
    },
    {
      "inputs": [],
      "name": "timeBuffer",
      "outputs": [
        {
          "internalType": "uint256",
          "name": "",
          "type": "uint256"
        }
      ],
      "stateMutability": "view",
      "type": "function"
    },
    {
      "inputs": [],
      "name": "totalListings",
      "outputs": [
        {
          "internalType": "uint256",
          "name": "",
          "type": "uint256"
        }
      ],
      "stateMutability": "view",
      "type": "function"
    },
    {
      "inputs": [
        {
          "internalType": "uint256",
          "name": "",
          "type": "uint256"
        }
      ],
      "name": "winningBid",
      "outputs": [
        {
          "internalType": "uint256",
          "name": "listingId",
          "type": "uint256"
        },
        {
          "internalType": "address",
          "name": "offeror",
          "type": "address"
        },
        {
          "internalType": "uint256",
          "name": "quantityWanted",
          "type": "uint256"
        },
        {
          "internalType": "uint256",
          "name": "offerAmount",
          "type": "uint256"
        }
      ],
      "stateMutability": "view",
      "type": "function"
    }
  ],
  "bytecode": "0x60806040526103846009556101f4600a553480156200001d57600080fd5b50604051620064f8380380620064f883398101604081905262000040916200037e565b6002805460ff191690556001600355600480546001600160a01b0319166001600160a01b03841617905580516200007f906007906020840190620002d8565b50600580546001600160a01b0319166001600160a01b038516179055620000b16000620000ab62000118565b62000134565b620000e07ff94103142c1baabe9ac2b5d1487bf783de9e69cfeea9a72f5c9c94afd7877b8c620000ab62000118565b6200010f7f65d7a28e3265b37a6474929f336521b332c1681b933f6cb9f3376673440d862a620000ab62000118565b505050620004ee565b60006200012f6200017760201b620035341760201c565b905090565b6200014b8282620001b060201b620035611760201c565b6000828152600160209081526040909120620001729183906200356f620001c0821b17901c565b505050565b6004546000906001600160a01b03163314156200019b575060131936013560601c90565b6200012f620001e060201b620035841760201c565b620001bc8282620001e4565b5050565b6000620001d7836001600160a01b03841662000286565b90505b92915050565b3390565b6000828152602081815260408083206001600160a01b038516845290915290205460ff16620001bc576000828152602081815260408083206001600160a01b03851684529091529020805460ff191660011790556200024262000118565b6001600160a01b0316816001600160a01b0316837f2f8788117e7eff1d82e926ec794901d17c78024a50270940304540a733656f0d60405160405180910390a45050565b6000818152600183016020526040812054620002cf57508154600181810184556000848152602080822090930184905584548482528286019093526040902091909155620001da565b506000620001da565b828054620002e69062000482565b90600052602060002090601f0160209004810192826200030a576000855562000355565b82601f106200032557805160ff191683800117855562000355565b8280016001018555821562000355579182015b828111156200035557825182559160200191906001019062000338565b506200036392915062000367565b5090565b5b8082111562000363576000815560010162000368565b60008060006060848603121562000393578283fd5b8351620003a081620004d5565b80935050602080850151620003b581620004d5565b60408601519093506001600160401b0380821115620003d2578384fd5b818701915087601f830112620003e6578384fd5b815181811115620003fb57620003fb620004bf565b604051601f8201601f19908116603f01168101908382118183101715620004265762000426620004bf565b816040528281528a868487010111156200043e578687fd5b8693505b8284101562000461578484018601518185018701529285019262000442565b828411156200047257868684830101525b8096505050505050509250925092565b600181811c908216806200049757607f821691505b60208210811415620004b957634e487b7160e01b600052602260045260246000fd5b50919050565b634e487b7160e01b600052604160045260246000fd5b6001600160a01b0381168114620004eb57600080fd5b50565b615ffa80620004fe6000396000f3fe608060405234801561001057600080fd5b50600436106102635760003560e01c806391d1485411610156578063d1e42ec0116100d3578063deb26b9411610097578063ebdfbce511610071578063ebdfbce5146106fc578063ec91f2a414610746578063f23a6e611461074f57600080fd5b8063deb26b94146106a6578063e63ab1e9146106cd578063e8a3d485146106f457600080fd5b8063d1e42ec014610566578063d4ac9b8c14610579578063d547741f146105e0578063d6febde8146105f3578063de74e57b1461060657600080fd5b8063bc197c811161011a578063bc197c8114610503578063c0e7274014610522578063c24afe4e14610537578063c78b616c1461054a578063ca15c8731461055357600080fd5b806391d148541461047e578063938e3d7b146104b557806396b5a755146104c8578063a217fddf146104db578063ac9650d8146104e357600080fd5b806336568abe116101e45780635c975abb116101a85780635c975abb1461041557806361096ec61461042057806380cd24641461042d5780639010d07c14610440578063918d407d1461046b57600080fd5b806336568abe146103995780633f5c3e87146103ac5780634e03f28d146103d7578063572b6c05146103e0578063598647f81461040257600080fd5b806320c7852c1161022b57806320c7852c14610304578063236ed8f31461033d578063248a9ca3146103505780632f2ff15d14610373578063354c7ab61461038657600080fd5b806301ffc9a71461026857806309679b3914610290578063107a274a146102a5578063150b7a02146102c557806316c38b3c146102f1575b600080fd5b61027b6102763660046157c6565b61076e565b60405190151581526020015b60405180910390f35b6102a361029e3660046158c5565b6107c0565b005b6102b86102b3366004615746565b610898565b6040516102879190615cc5565b6102d86102d3366004615599565b6109ea565b6040516001600160e01b03199091168152602001610287565b6102a36102ff36600461570e565b6109fc565b61032f610312366004615776565b600f60209081526000928352604080842090915290825290205481565b604051908152602001610287565b6102a361034b366004615746565b610a8d565b61032f61035e366004615746565b60009081526020819052604090206001015490565b6102a3610381366004615776565b6110a5565b6102a361039436600461570e565b6110cc565b6102a36103a7366004615776565b611182565b6008546103bf906001600160801b031681565b6040516001600160801b039091168152602001610287565b61032f600a5481565b61027b6103ee3660046154b7565b6004546001600160a01b0391821691161490565b6102a36104103660046157a5565b6111a4565b60025460ff1661027b565b600b5461027b9060ff1681565b6102a361043b3660046158fd565b6117c4565b61045361044e3660046157a5565b611b29565b6040516001600160a01b039091168152602001610287565b6102a3610479366004615776565b611b48565b61027b61048c366004615776565b6000918252602082815260408084206001600160a01b0393909316845291905290205460ff1690565b6102a36104c33660046157ee565b611f75565b6102a36104d6366004615746565b6120fd565b61032f600081565b6104f66104f136600461569e565b6124ca565b6040516102879190615bb5565b6102d86105113660046154ef565b63bc197c8160e01b95945050505050565b61052a6125e9565b6040516102879190615c16565b6102a3610545366004615928565b612677565b61032f60065481565b61032f610561366004615746565b612b9c565b6102a361057436600461582e565b612bb3565b6105b8610587366004615746565b600e60205260009081526040902080546001820154600283015460039093015491926001600160a01b039091169184565b604080519485526001600160a01b039093166020850152918301526060820152608001610287565b6102a36105ee366004615776565b613036565b6102a36106013660046157a5565b613040565b61068d610614366004615746565b600c60205260009081526040902080546001820154600283015460038401546004850154600586015460068701546007880154600889015460098a0154600a8b0154600b909b0154999a6001600160a01b03998a169a988a16999798969795969495909316939192909160ff808216916101009004168d565b6040516102879d9c9b9a99989796959493929190615d11565b61032f7ff94103142c1baabe9ac2b5d1487bf783de9e69cfeea9a72f5c9c94afd7877b8c81565b61032f7f65d7a28e3265b37a6474929f336521b332c1681b933f6cb9f3376673440d862a81565b61052a6134a2565b6105b861070a366004615776565b600d602090815260009283526040808420909152908252902080546001820154600283015460039093015491926001600160a01b039091169184565b61032f60095481565b6102d861075d36600461560a565b63f23a6e6160e01b95945050505050565b60006001600160e01b03198216630271189760e51b148061079f57506001600160e01b03198216630a85bd0160e11b145b806107ba57506001600160e01b0319821663152a902d60e11b145b92915050565b6107cd600061048c613588565b61083a5760405162461bcd60e51b815260206004820152603360248201527f4d61726b65743a206f6e6c792061206d6f64756c652061646d696e2063616e2060448201527231b0b636103a3434b990333ab731ba34b7b71760691b60648201526084015b60405180910390fd5b600880546fffffffffffffffffffffffffffffffff19166001600160801b0383169081179091556040519081527fd50e64e6eb05cd7ceafe1a28b1a7ad949edb90451106259c7117252d605178ef906020015b60405180910390a150565b6108a061522e565b6000828152600c602090815260409182902082516101a081018452815481526001808301546001600160a01b039081169483019490945260028301548416948201949094526003820154606082015260048201546080820152600582015460a0820152600682015460c0820152600782015490921660e083015260088101546101008301526009810154610120830152600a810154610140830152600b8101549192909161016084019160ff9091169081111561096d57634e487b7160e01b600052602160045260246000fd5b600181111561098c57634e487b7160e01b600052602160045260246000fd5b8152602001600b820160019054906101000a900460ff1660018111156109c257634e487b7160e01b600052602160045260246000fd5b60018111156109e157634e487b7160e01b600052602160045260246000fd5b90525092915050565b630a85bd0160e11b5b95945050505050565b610a287f65d7a28e3265b37a6474929f336521b332c1681b933f6cb9f3376673440d862a61048c613588565b610a745760405162461bcd60e51b815260206004820152601e60248201527f4d61726b65743a206d75737420686176652070617573657220726f6c652e00006044820152606401610831565b8015610a8557610a82613592565b50565b610a8261362b565b60025460ff1615610ad35760405162461bcd60e51b815260206004820152601060248201526f14185d5cd8589b194e881c185d5cd95960821b6044820152606401610831565b6000818152600c6020908152604080832081516101a081018352815481526001808301546001600160a01b039081169583019590955260028301548516938201939093526003820154606082015260048201546080820152600582015460a0820152600682015460c0820152600782015490931660e084015260088101546101008401526009810154610120840152600a810154610140840152600b810154909161016084019160ff1690811115610b9b57634e487b7160e01b600052602160045260246000fd5b6001811115610bba57634e487b7160e01b600052602160045260246000fd5b8152602001600b820160019054906101000a900460ff166001811115610bf057634e487b7160e01b600052602160045260246000fd5b6001811115610c0f57634e487b7160e01b600052602160045260246000fd5b9052506000838152600e6020908152604080832081516080810183528154815260018201546001600160a01b031693810193909352600281015491830191909152600301546060820152919250610c64613588565b905082602001516001600160a01b0316816001600160a01b03161480610c9f575081602001516001600160a01b0316816001600160a01b0316145b610cfe5760405162461bcd60e51b815260206004820152602a60248201527f4d61726b65743a206d75737420626520626964646572206f722061756374696f604482015269371031b932b0ba37b91760b11b6064820152608401610831565b60018361018001516001811115610d2557634e487b7160e01b600052602160045260246000fd5b14610d7d5760405162461bcd60e51b815260206004820152602260248201527f4d61726b65743a206c697374696e67206973206e6f7420616e2061756374696f604482015261371760f11b6064820152608401610831565b428360a0015110610df65760405162461bcd60e51b815260206004820152603260248201527f4d61726b65743a2063616e206f6e6c7920636c6f73652061756374696f6e206160448201527f667465722069742068617320656e6465642e00000000000000000000000000006064820152608401610831565b82602001516001600160a01b0316610e0c613588565b6001600160a01b03161415610fc85760008360c001518360600151610e319190615e75565b600060c08601818152878252600c60209081526040928390208851815590880151600180830180546001600160a01b03199081166001600160a01b0394851617909155948a0151600284018054871691841691909117905560608a0151600384015560808a0151600484015560a08a015160058401559251600683015560e089015160078301805490951691161790925561010087015160088301556101208701516009830155610140870151600a830155610160870151600b8301805494955088949192909160ff1916908381811115610f1c57634e487b7160e01b600052602160045260246000fd5b0217905550610180820151600b8201805461ff001916610100836001811115610f5557634e487b7160e01b600052602160045260246000fd5b021790555050600060608501818152878252600e602090815260409283902087518155818801516001820180546001600160a01b0319166001600160a01b039092169190911790559287015160028401559051600390920191909155850151610fc29150309083876136b0565b5061104f565b81602001516001600160a01b0316610fde613588565b6001600160a01b0316141561104f57604082810180516000808352878152600e602090815293902085518155928501516001840180546001600160a01b0319166001600160a01b03831617905591516002840155606085015160039093019290925561104d9030908387613bb9565b505b806001600160a01b0316847f42bdf1b5daec205081fa6758882be4b9c6633d2b16ea489d1c36cddfd46d7cab8560200151856020015186886040516110979493929190615b2b565b60405180910390a350505050565b6110af8282613d30565b60008281526001602052604090206110c7908261356f565b505050565b6110d9600061048c613588565b6111415760405162461bcd60e51b815260206004820152603360248201527f4d61726b65743a206f6e6c792061206d6f64756c652061646d696e2063616e2060448201527231b0b636103a3434b990333ab731ba34b7b71760691b6064820152608401610831565b600b805460ff19168215159081179091556040519081527f56668abce4c06e28f52176150c07856e31ee073b9b62df62a5afbf1a22aec24c9060200161088d565b61118c8282613d5d565b60008281526001602052604090206110c79082613de7565b60025460ff16156111ea5760405162461bcd60e51b815260206004820152601060248201526f14185d5cd8589b194e881c185d5cd95960821b6044820152606401610831565b8160065481111561123d5760405162461bcd60e51b815260206004820152601f60248201527f4d61726b65743a206c697374696e6720646f6573206e6f742065786973742e006044820152606401610831565b6000838152600c6020908152604080832081516101a081018352815481526001808301546001600160a01b039081169583019590955260028301548516938201939093526003820154606082015260048201546080820152600582015460a0820152600682015460c0820152600782015490931660e084015260088101546101008401526009810154610120840152600a810154610140840152600b810154909161016084019160ff169081111561130557634e487b7160e01b600052602160045260246000fd5b600181111561132457634e487b7160e01b600052602160045260246000fd5b8152602001600b820160019054906101000a900460ff16600181111561135a57634e487b7160e01b600052602160045260246000fd5b600181111561137957634e487b7160e01b600052602160045260246000fd5b9052506000858152600e6020908152604080832081516080810183528154815260018201546001600160a01b0316938101939093526002810154918301919091526003015460608201529192506113ce613588565b60a0840151909150600184610180015160018111156113fd57634e487b7160e01b600052602160045260246000fd5b146114625760405162461bcd60e51b815260206004820152602f60248201527f4d61726b65743a2063616e206f6e6c79206d616b65206269647320746f20617560448201526e31ba34b7b7103634b9ba34b733b99760891b6064820152608401610831565b42811180156114745750428460800151105b6114d85760405162461bcd60e51b815260206004820152602f60248201527f4d61726b65743a2063616e206f6e6c79206d616b65206269647320696e20617560448201526e31ba34b7b710323ab930ba34b7b71760891b6064820152608401610831565b6114e7828560e0015188613dfc565b6114f5836060015187613f78565b156117bb57602080840151606094850151604080516080810182528b81526001600160a01b0387169481019490945260c088015190840152948201889052600954919490916115444285615e94565b11611561576009548660a00181815161155d9190615e3d565b9052505b6000898152600c60209081526040918290208851815590880151600180830180546001600160a01b03199081166001600160a01b0394851617909155938a0151600284018054861691841691909117905560608a0151600384015560808a0151600484015560a08a0151600584015560c08a0151600684015560e08a015160078401805490951692169190911790925561010088015160088201556101208801516009820155610140880151600a820155610160880151600b820180548a9460ff1990911690838181111561164657634e487b7160e01b600052602160045260246000fd5b0217905550610180820151600b8201805461ff00191661010083600181111561167f57634e487b7160e01b600052602160045260246000fd5b021790555050506000898152600e602090815260409182902087518155908701516001820180546001600160a01b0319166001600160a01b03909216919091179055908601516002820155606086015160039091015560e08601516116e590858a614033565b60e08601516040516323b872dd60e01b81523060048201526001600160a01b03848116602483015260448201849052909116906323b872dd90606401602060405180830381600087803b15801561173b57600080fd5b505af115801561174f573d6000803e3d6000fd5b505050506040513d601f19601f82011682018060405250810190611773919061572a565b50836001600160a01b0316897f4aebf4dd6dc586d8e61e80b74856628c80f4e50926edf340a66ce6b25a760b4387896040516117b0929190615cd4565b60405180910390a350505b50505050505050565b60025460ff161561180a5760405162461bcd60e51b815260206004820152601060248201526f14185d5cd8589b194e881c185d5cd95960821b6044820152606401610831565b8260065481111561185d5760405162461bcd60e51b815260206004820152601f60248201527f4d61726b65743a206c697374696e6720646f6573206e6f742065786973742e006044820152606401610831565b6000611867613588565b6000868152600c6020908152604080832081516101a081018352815481526001808301546001600160a01b039081169583019590955260028301548516938201939093526003820154606082015260048201546080820152600582015460a0820152600682015460c0820152600782015490931660e084015260088101546101008401526009810154610120840152600a810154610140840152600b810154949550929391929161016084019160ff9091169081111561193757634e487b7160e01b600052602160045260246000fd5b600181111561195657634e487b7160e01b600052602160045260246000fd5b8152602001600b820160019054906101000a900460ff16600181111561198c57634e487b7160e01b600052602160045260246000fd5b60018111156119ab57634e487b7160e01b600052602160045260246000fd5b9052509050600081610180015160018111156119d757634e487b7160e01b600052602160045260246000fd5b14611a3d5760405162461bcd60e51b815260206004820152603060248201527f4d61726b65743a2063616e206f6e6c79206d616b65206f666665727320746f2060448201526f3234b932b1ba103634b9ba34b733b99760811b6064820152608401610831565b611a4c828260e0015186613dfc565b60006040518060800160405280888152602001846001600160a01b03168152602001611a7d84610160015189614232565b815260209081018790526000898152600d825260408082206001600160a01b038881168085529185529282902085518155938501516001850180546001600160a01b0319169190941617909255838101516002840155606084015160039093019290925590519192509088907f325ebd560da99b6ec57c8698998d68ddf274d0b921541d5b702974d58ca8799290611b189085908790615cd4565b60405180910390a350505050505050565b6000828152600160205260408120611b419083614277565b9392505050565b60025460ff1615611b8e5760405162461bcd60e51b815260206004820152601060248201526f14185d5cd8589b194e881c185d5cd95960821b6044820152606401610831565b81611b97613588565b6000828152600c60205260409020600101546001600160a01b03908116911614611bd35760405162461bcd60e51b815260040161083190615c79565b6000838152600d602090815260408083206001600160a01b03808716855290835281842082516080808201855282548252600180840154851683880152600280850154848801526003948501546060808601919091528c8a52600c8952878a2088516101a081018a52815481528185015489169a81019a909a52918201548716978901979097529384015495870195909552600483015490860152600582015460a0860152600682015460c0860152600782015490921660e085015260088101546101008501526009810154610120850152600a810154610140850152600b81015491949392909161016084019160ff90911690811115611ce457634e487b7160e01b600052602160045260246000fd5b6001811115611d0357634e487b7160e01b600052602160045260246000fd5b8152602001600b820160019054906101000a900460ff166001811115611d3957634e487b7160e01b600052602160045260246000fd5b6001811115611d5857634e487b7160e01b600052602160045260246000fd5b815250509050611d808160200151826040015183606001518560400151856101600151614283565b611d9c5760405162461bcd60e51b815260040161083190615c29565b81604001518160c001818151611db29190615e94565b9052506000858152600c60209081526040918290208351815590830151600180830180546001600160a01b03199081166001600160a01b0394851617909155938501516002840180548616918416919091179055606085015160038401556080850151600484015560a0850151600584015560c0850151600684015560e085015160078401805490951692169190911790925561010083015160088201556101208301516009820155610140830151600a820155610160830151600b82018054859460ff19909116908381811115611e9a57634e487b7160e01b600052602160045260246000fd5b0217905550610180820151600b8201805461ff001916610100836001811115611ed357634e487b7160e01b600052602160045260246000fd5b0217905550905050611efe84826020015184604001518560600151611ef89190615e75565b846136b0565b611f12816020015185846040015184613bb9565b8481602001516001600160a01b031682604001516001600160a01b03167f13f347bec00b07d4fa8ffa656bbcb29bd18e63fd4621925b71f60ff36c6425c987866040015186604051611f6693929190615b88565b60405180910390a45050505050565b6005546040805163a217fddf60e01b815290516001600160a01b03909216916391d1485491839163a217fddf91600480820192602092909190829003018186803b158015611fc257600080fd5b505afa158015611fd6573d6000803e3d6000fd5b505050506040513d601f19601f82011682018060405250810190611ffa919061575e565b612002613588565b6040516001600160e01b031960e085901b16815260048101929092526001600160a01b0316602482015260440160206040518083038186803b15801561204757600080fd5b505afa15801561205b573d6000803e3d6000fd5b505050506040513d601f19601f8201168201806040525081019061207f919061572a565b6120f15760405162461bcd60e51b815260206004820152603560248201527f4d61726b65743a206f6e6c7920612070726f746f636f6c2061646d696e20636160448201527f6e2063616c6c20746869732066756e6374696f6e2e00000000000000000000006064820152608401610831565b6110c7600783836152cf565b60025460ff16156121435760405162461bcd60e51b815260206004820152601060248201526f14185d5cd8589b194e881c185d5cd95960821b6044820152606401610831565b8061214c613588565b6000828152600c60205260409020600101546001600160a01b039081169116146121885760405162461bcd60e51b815260040161083190615c79565b6000828152600c6020908152604080832081516101a081018352815481526001808301546001600160a01b039081169583019590955260028301548516938201939093526003820154606082015260048201546080820152600582015460a0820152600682015460c0820152600782015490931660e084015260088101546101008401526009810154610120840152600a810154610140840152600b810154909161016084019160ff169081111561225057634e487b7160e01b600052602160045260246000fd5b600181111561226f57634e487b7160e01b600052602160045260246000fd5b8152602001600b820160019054906101000a900460ff1660018111156122a557634e487b7160e01b600052602160045260246000fd5b60018111156122c457634e487b7160e01b600052602160045260246000fd5b815250509050428160800151116123435760405162461bcd60e51b815260206004820152603360248201527f4d61726b65743a2063616e6e6f742063616e63656c2061756374696f6e20616660448201527f7465722069742068617320737461727465642e000000000000000000000000006064820152608401610831565b600060c08201818152848252600c60209081526040928390208451815590840151600180830180546001600160a01b03199081166001600160a01b0394851617909155948601516002840180548716918416919091179055606086015160038401556080860151600484015560a086015160058401559251600683015560e085015160078301805490951691161790925561010083015160088301556101208301516009830155610140830151600a830155610160830151600b8301805485949360ff1990911690838181111561242a57634e487b7160e01b600052602160045260246000fd5b0217905550610180820151600b8201805461ff00191661010083600181111561246357634e487b7160e01b600052602160045260246000fd5b021790555090505061247f3082602001518360c0015184613bb9565b80602001516001600160a01b0316837f8b8c78dbb114fabd551e84de4546a68891b5f7a217a98e3f2fe7adb18519959b836040516124bd9190615cc5565b60405180910390a3505050565b60608167ffffffffffffffff8111156124f357634e487b7160e01b600052604160045260246000fd5b60405190808252806020026020018201604052801561252657816020015b60608152602001906001900390816125115790505b50905060005b828110156125e2576125a43085858481811061255857634e487b7160e01b600052603260045260246000fd5b905060200281019061256a9190615d9d565b8080601f01602080910402602001604051908101604052809392919081815260200183838082843760009201919091525061459092505050565b8282815181106125c457634e487b7160e01b600052603260045260246000fd5b602002602001018190525080806125da90615f29565b91505061252c565b5092915050565b600780546125f690615eee565b80601f016020809104026020016040519081016040528092919081815260200182805461262290615eee565b801561266f5780601f106126445761010080835404028352916020019161266f565b820191906000526020600020905b81548152906001019060200180831161265257829003601f168201915b505050505081565b60025460ff16156126bd5760405162461bcd60e51b815260206004820152601060248201526f14185d5cd8589b194e881c185d5cd95960821b6044820152606401610831565b876006548111156127105760405162461bcd60e51b815260206004820152601f60248201527f4d61726b65743a206c697374696e6720646f6573206e6f742065786973742e006044820152606401610831565b88612719613588565b6000828152600c60205260409020600101546001600160a01b039081169116146127555760405162461bcd60e51b815260040161083190615c79565b60008a8152600c6020908152604080832081516101a081018352815481526001808301546001600160a01b039081169583019590955260028301548516938201939093526003820154606082015260048201546080820152600582015460a0820152600682015460c0820152600782015490931660e084015260088101546101008401526009810154610120840152600a810154610140840152600b810154909161016084019160ff169081111561281d57634e487b7160e01b600052602160045260246000fd5b600181111561283c57634e487b7160e01b600052602160045260246000fd5b8152602001600b820160019054906101000a900460ff16600181111561287257634e487b7160e01b600052602160045260246000fd5b600181111561289157634e487b7160e01b600052602160045260246000fd5b81525050905060006128a88261016001518c614232565b6001600160a01b03881660e0840152905085156128ce576128c98642615e3d565b6128d4565b81608001515b608083015284156128ee576128e98542615e3d565b6128f4565b8160a001515b60a083015260c08201518b146129465761292282602001518360400151846060015184866101600151614283565b61293e5760405162461bcd60e51b815260040161083190615c29565b60c082018190525b6001826101800151600181111561296d57634e487b7160e01b600052602160045260246000fd5b14156129ec57428260800151106129d75760405162461bcd60e51b815260206004820152602860248201527f4d61726b65743a2063616e6e6f7420656469742061756374696f6e2061667465604482015267391039ba30b93a1760c11b6064820152608401610831565b61010082018a90526101208201899052612a22565b60008261018001516001811115612a1357634e487b7160e01b600052602160045260246000fd5b1415612a225761014082018890525b60008c8152600c60209081526040918290208451815590840151600180830180546001600160a01b03199081166001600160a01b0394851617909155938601516002840180548616918416919091179055606086015160038401556080860151600484015560a0860151600584015560c0860151600684015560e086015160078401805490951692169190911790925561010084015160088201556101208401516009820155610140840151600a820155610160840151600b82018054869460ff19909116908381811115612b0757634e487b7160e01b600052602160045260246000fd5b0217905550610180820151600b8201805461ff001916610100836001811115612b4057634e487b7160e01b600052602160045260246000fd5b02179055509050508b82602001516001600160a01b03167f9897b5e6dd37a61b6f078227f64ef9c4d6744428f9ab322e9d3160c1a396046484604051612b869190615cc5565b60405180910390a3505050505050505050505050565b60008181526001602052604081206107ba906145b5565b60025460ff1615612bf95760405162461bcd60e51b815260206004820152601060248201526f14185d5cd8589b194e881c185d5cd95960821b6044820152606401610831565b600b5460ff161580612c325750612c327ff94103142c1baabe9ac2b5d1487bf783de9e69cfeea9a72f5c9c94afd7877b8c61048c613588565b612c945760405162461bcd60e51b815260206004820152602d60248201527f4d61726b65743a206f6e6c792061206c69737465722063616e2063616c6c207460448201526c3434b990333ab731ba34b7b71760991b6064820152608401610831565b6000612c9e6145bf565b90506000612caa613588565b90506000612cbb84600001516145dd565b90506000808561012001516001811115612ce557634e487b7160e01b600052602160045260246000fd5b1415612d0b57612d048386600001518760200151886080015186614283565b9050612d54565b60018561012001516001811115612d3257634e487b7160e01b600052602160045260246000fd5b1415612d5457612d518386600001518760200151886080015186614769565b90505b808015612d65575060008560800151115b612d815760405162461bcd60e51b815260040161083190615c29565b6000604051806101a00160405280868152602001856001600160a01b0316815260200187600001516001600160a01b0316815260200187602001518152602001876040015142612dd19190615e3d565b81526020018760600151600014612df6576060880151612df19042615e3d565b612dfa565b6000195b8152602001612e0d858960800151614232565b81526020018760a001516001600160a01b031681526020018760c0015181526020018760e001518152602001876101000151600014612e5157876101000151612e57565b87608001515b8152602001846001811115612e7c57634e487b7160e01b600052602160045260246000fd5b81526020018761012001516001811115612ea657634e487b7160e01b600052602160045260246000fd5b90526000868152600c60209081526040918290208351815590830151600180830180546001600160a01b03199081166001600160a01b0394851617909155938501516002840180548616918416919091179055606085015160038401556080850151600484015560a0850151600584015560c0850151600684015560e085015160078401805490951692169190911790925561010083015160088201556101208301516009820155610140830151600a820155610160830151600b82018054949550859492939192909160ff19909116908381811115612f9657634e487b7160e01b600052602160045260246000fd5b0217905550610180820151600b8201805461ff001916610100836001811115612fcf57634e487b7160e01b600052602160045260246000fd5b021790555090505084612fe0613588565b6001600160a01b031687600001516001600160a01b03167fbd4ad658f54c65cfbfb4961c722cac4e1bc357eaabbd6ad51273e752a4481916846040516130269190615cc5565b60405180910390a4505050505050565b61118c82826148d7565b60025460ff16156130865760405162461bcd60e51b815260206004820152601060248201526f14185d5cd8589b194e881c185d5cd95960821b6044820152606401610831565b816006548111156130d95760405162461bcd60e51b815260206004820152601f60248201527f4d61726b65743a206c697374696e6720646f6573206e6f742065786973742e006044820152606401610831565b6002600354141561312c5760405162461bcd60e51b815260206004820152601f60248201527f5265656e7472616e637947756172643a207265656e7472616e742063616c6c006044820152606401610831565b600260038181556000858152600c6020908152604080832081516101a081018352815481526001808301546001600160a01b03908116958301959095529682015484169281019290925293840154606082015260048401546080820152600584015460a0820152600684015460c0820152600784015490911660e082015260088301546101008201526009830154610120820152600a830154610140820152600b830154919390929161016084019160ff909116908111156131fe57634e487b7160e01b600052602160045260246000fd5b600181111561321d57634e487b7160e01b600052602160045260246000fd5b8152602001600b820160019054906101000a900460ff16600181111561325357634e487b7160e01b600052602160045260246000fd5b600181111561327257634e487b7160e01b600052602160045260246000fd5b90525090506000613281613588565b905061328e8282866148ff565b838260c0018181516132a09190615e94565b9052506000858152600c60209081526040918290208451815590840151600180830180546001600160a01b03199081166001600160a01b0394851617909155938601516002840180548616918416919091179055606086015160038401556080860151600484015560a0860151600584015560c0860151600684015560e086015160078401805490951692169190911790925561010084015160088201556101208401516009820155610140840151600a820155610160840151600b82018054869460ff1990911690838181111561338857634e487b7160e01b600052602160045260246000fd5b0217905550610180820151600b8201805461ff0019166101008360018111156133c157634e487b7160e01b600052602160045260246000fd5b021790555050506000858152600f602090815260408083206001600160a01b0385168452909152812080548692906133fa908490615e3d565b90915550506101208201511561342a5761342a818360200151868561012001516134249190615e75565b856136b0565b61343a8260200151828685613bb9565b816000015182602001516001600160a01b031683604001516001600160a01b03167f13f347bec00b07d4fa8ffa656bbcb29bd18e63fd4621925b71f60ff36c6425c984888760405161348e93929190615b88565b60405180910390a450506001600355505050565b6060600780546134b190615eee565b80601f01602080910402602001604051908101604052809291908181526020018280546134dd90615eee565b801561352a5780601f106134ff5761010080835404028352916020019161352a565b820191906000526020600020905b81548152906001019060200180831161350d57829003601f168201915b5050505050905090565b6004546000906001600160a01b0316331415613557575060131936013560601c90565b503390565b905090565b61356b8282614be1565b5050565b6000611b41836001600160a01b038416614c80565b3390565b600061355c613534565b60025460ff16156135d85760405162461bcd60e51b815260206004820152601060248201526f14185d5cd8589b194e881c185d5cd95960821b6044820152606401610831565b6002805460ff191660011790557f62e78cea01bee320cd4e420270b5ea74000d11b0c9f74754ebdbfc544b05a25861360e613588565b6040516001600160a01b03909116815260200160405180910390a1565b60025460ff1661367d5760405162461bcd60e51b815260206004820152601460248201527f5061757361626c653a206e6f74207061757365640000000000000000000000006044820152606401610831565b6002805460ff191690557f5db9ee0a495bf2e6ff9c91a7834c1ba4fdd244a5e8aa4e537bd38aeae4b073aa61360e613588565b600080600560009054906101000a90046001600160a01b03166001600160a01b031663fd967f476040518163ffffffff1660e01b815260040160206040518083038186803b15801561370157600080fd5b505afa158015613715573d6000803e3d6000fd5b505050506040513d601f19601f8201168201806040525081019061373991906158e1565b6008546001600160801b0391821691613753911686615e75565b61375d9190615e55565b60e084015160055460405163f2aab4b360e01b81523060048201529293506001600160a01b03918216926323b872dd928a92169063f2aab4b39060240160206040518083038186803b1580156137b257600080fd5b505afa1580156137c6573d6000803e3d6000fd5b505050506040513d601f19601f820116820180604052508101906137ea91906154d3565b6040516001600160e01b031960e085901b1681526001600160a01b0392831660048201529116602482015260448101849052606401602060405180830381600087803b15801561383957600080fd5b505af115801561384d573d6000803e3d6000fd5b505050506040513d601f19601f82011682018060405250810190613871919061572a565b9150600061387f8286615e94565b60408086015190516301ffc9a760e01b815263152a902d60e11b60048201529192506001600160a01b0316906301ffc9a79060240160206040518083038186803b1580156138cc57600080fd5b505afa1580156138e0573d6000803e3d6000fd5b505050506040513d601f19601f82011682018060405250810190613904919061572a565b15613acb5760008085604001516001600160a01b0316632a55205a8760600151896040518363ffffffff1660e01b815260040161394b929190918252602082015260400190565b604080518083038186803b15801561396257600080fd5b505afa158015613976573d6000803e3d6000fd5b505050506040513d601f19601f8201168201806040525081019061399a9190615671565b90925090506001600160a01b038216158015906139b75750600081115b15613ac857866139c78583615e3d565b1115613a295760405162461bcd60e51b815260206004820152602b60248201527f4d61726b65743a20546f74616c206d61726b657420666565732065786365656460448201526a103a343290383934b1b29760a91b6064820152608401610831565b613a338184615e94565b60e08701516040516323b872dd60e01b81526001600160a01b038c811660048301528581166024830152604482018590529295509116906323b872dd90606401602060405180830381600087803b158015613a8d57600080fd5b505af1158015613aa1573d6000803e3d6000fd5b505050506040513d601f19601f82011682018060405250810190613ac5919061572a565b94505b50505b60e08401516040516323b872dd60e01b81526001600160a01b038981166004830152888116602483015260448201849052909116906323b872dd90606401602060405180830381600087803b158015613b2357600080fd5b505af1158015613b37573d6000803e3d6000fd5b505050506040513d601f19601f82011682018060405250810190613b5b919061572a565b9250826117bb5760405162461bcd60e51b815260206004820152602660248201527f4d61726b65743a206661696c656420746f207061796f7574207374616b65686f604482015265363232b9399760d11b6064820152608401610831565b60008161016001516001811115613be057634e487b7160e01b600052602160045260246000fd5b1415613c755760408082015160608301519151637921219560e11b81526001600160a01b038781166004830152868116602483015260448201939093526064810185905260a06084820152600060a482015291169063f242432a9060c401600060405180830381600087803b158015613c5857600080fd5b505af1158015613c6c573d6000803e3d6000fd5b50505050613d2a565b60018161016001516001811115613c9c57634e487b7160e01b600052602160045260246000fd5b1415613d2a57604080820151602083015160608401519251635c46a7ef60e11b81526001600160a01b039182166004820152868216602482015260448101939093526080606484015260006084840152169063b88d4fde9060a401600060405180830381600087803b158015613d1157600080fd5b505af1158015613d25573d6000803e3d6000fd5b505050505b50505050565b600082815260208190526040902060010154613d5381613d4e613588565b614ccf565b6110c78383614be1565b613d65613588565b6001600160a01b0316816001600160a01b031614613ddd5760405162461bcd60e51b815260206004820152602f60248201527f416363657373436f6e74726f6c3a2063616e206f6e6c792072656e6f756e636560448201526e103937b632b9903337b91039b2b63360891b6064820152608401610831565b61356b8282614d4d565b6000611b41836001600160a01b038416614dea565b6040516370a0823160e01b81526001600160a01b0384811660048301528291908416906370a082319060240160206040518083038186803b158015613e4057600080fd5b505afa158015613e54573d6000803e3d6000fd5b505050506040513d601f19601f82011682018060405250810190613e78919061575e565b10158015613f065750604051636eb1769f60e11b81526001600160a01b03848116600483015230602483015282919084169063dd62ed3e9060440160206040518083038186803b158015613ecb57600080fd5b505afa158015613edf573d6000803e3d6000fd5b505050506040513d601f19601f82011682018060405250810190613f03919061575e565b10155b6110c75760405162461bcd60e51b815260206004820152603960248201527f4d61726b65743a206d757374206f776e20616e6420617070726f7665204d617260448201527f6b657420746f207472616e736665722063757272656e63792e000000000000006064820152608401610831565b60008282118015611b415750600a546005546040805163fd967f4760e01b8152905186926001600160a01b03169163fd967f47916004808301926020929190829003018186803b158015613fcb57600080fd5b505afa158015613fdf573d6000803e3d6000fd5b505050506040513d601f19601f8201168201806040525081019061400391906158e1565b6001600160801b03166140168686615e94565b6140209190615e75565b61402a9190615e55565b10159392505050565b6040516370a0823160e01b81523060048201819052906000906001600160a01b038616906370a082319060240160206040518083038186803b15801561407857600080fd5b505afa15801561408c573d6000803e3d6000fd5b505050506040513d601f19601f820116820180604052508101906140b0919061575e565b6040516323b872dd60e01b81526001600160a01b0386811660048301528481166024830152604482018690529192506000918716906323b872dd90606401602060405180830381600087803b15801561410857600080fd5b505af115801561411c573d6000803e3d6000fd5b505050506040513d601f19601f82011682018060405250810190614140919061572a565b6040516370a0823160e01b81526001600160a01b0385811660048301529192506000918816906370a082319060240160206040518083038186803b15801561418757600080fd5b505afa15801561419b573d6000803e3d6000fd5b505050506040513d601f19601f820116820180604052508101906141bf919061575e565b90508180156141d657506141d38584615e3d565b81145b6117bb5760405162461bcd60e51b815260206004820152602760248201527f4d61726b65743a206661696c656420746f207265636569766520696e636f6d696044820152663733903134b21760c91b6064820152608401610831565b600081614241575060006107ba565b600183600181111561426357634e487b7160e01b600052602160045260246000fd5b1461426e5781611b41565b50600192915050565b6000611b418383614f07565b600030818360018111156142a757634e487b7160e01b600052602160045260246000fd5b14156143bf57604051627eeac760e11b81526001600160a01b0388811660048301526024820187905285919088169062fdd58e9060440160206040518083038186803b1580156142f657600080fd5b505afa15801561430a573d6000803e3d6000fd5b505050506040513d601f19601f8201168201806040525081019061432e919061575e565b101580156143b8575060405163e985e9c560e01b81526001600160a01b038881166004830152828116602483015287169063e985e9c59060440160206040518083038186803b15801561438057600080fd5b505afa158015614394573d6000803e3d6000fd5b505050506040513d601f19601f820116820180604052508101906143b8919061572a565b9150614586565b60018360018111156143e157634e487b7160e01b600052602160045260246000fd5b1415614586576040516331a9108f60e11b8152600481018690526001600160a01b038089169190881690636352211e9060240160206040518083038186803b15801561442c57600080fd5b505afa158015614440573d6000803e3d6000fd5b505050506040513d601f19601f8201168201806040525081019061446491906154d3565b6001600160a01b0316148015614583575060405163020604bf60e21b8152600481018690526001600160a01b03808316919088169063081812fc9060240160206040518083038186803b1580156144ba57600080fd5b505afa1580156144ce573d6000803e3d6000fd5b505050506040513d601f19601f820116820180604052508101906144f291906154d3565b6001600160a01b03161480614583575060405163e985e9c560e01b81526001600160a01b038881166004830152828116602483015287169063e985e9c59060440160206040518083038186803b15801561454b57600080fd5b505afa15801561455f573d6000803e3d6000fd5b505050506040513d601f19601f82011682018060405250810190614583919061572a565b91505b5095945050505050565b6060611b418383604051806060016040528060278152602001615fc760279139614f3f565b60006107ba825490565b600680549060019060006145d38385615e3d565b9250508190555090565b6040516301ffc9a760e01b8152636cdb3d1360e11b60048201526000906001600160a01b038316906301ffc9a79060240160206040518083038186803b15801561462657600080fd5b505afa15801561463a573d6000803e3d6000fd5b505050506040513d601f19601f8201168201806040525081019061465e919061572a565b1561466b57506000919050565b6040516301ffc9a760e01b81526380ac58cd60e01b60048201526001600160a01b038316906301ffc9a79060240160206040518083038186803b1580156146b157600080fd5b505afa1580156146c5573d6000803e3d6000fd5b505050506040513d601f19601f820116820180604052508101906146e9919061572a565b156146f657506001919050565b60405162461bcd60e51b815260206004820152603860248201527f4d61726b65743a20746f6b656e206d75737420696d706c656d656e742065697460448201527f686572204552432031313535206f7220455243203732312e00000000000000006064820152608401610831565b919050565b6000306147798787878787614283565b915081156145865760008360018111156147a357634e487b7160e01b600052602160045260246000fd5b141561482d57604051637921219560e11b81526001600160a01b0388811660048301528281166024830152604482018790526064820186905260a06084830152600060a483015287169063f242432a9060c401600060405180830381600087803b15801561481057600080fd5b505af1158015614824573d6000803e3d6000fd5b50505050614586565b600183600181111561484f57634e487b7160e01b600052602160045260246000fd5b141561458657604051635c46a7ef60e11b81526001600160a01b038881166004830152828116602483015260448201879052608060648301526000608483015287169063b88d4fde9060a401600060405180830381600087803b1580156148b557600080fd5b505af11580156148c9573d6000803e3d6000fd5b505050505095945050505050565b6000828152602081905260409020600101546148f581613d4e613588565b6110c78383614d4d565b6000836101800151600181111561492657634e487b7160e01b600052602160045260246000fd5b146149865760405162461bcd60e51b815260206004820152602a60248201527f4d61726b65743a2063616e206f6e6c79206275792066726f6d20646972656374604482015269103634b9ba34b733b99760b11b6064820152608401610831565b60008111801561499a57508260c001518111155b614a0c5760405162461bcd60e51b815260206004820152603160248201527f4d61726b65743a206d7573742062757920616e20617070726f7072696174652060448201527f616d6f756e74206f6620746f6b656e732e0000000000000000000000000000006064820152608401610831565b8260a001514211158015614a24575082608001514210155b614a965760405162461bcd60e51b815260206004820152603260248201527f4d61726b65743a207468652073616c652068617320656974686572206e6f742060448201527f73746172746564206f7220636c6f7365642e00000000000000000000000000006064820152608401610831565b61014083015183516000908152600f602090815260408083206001600160a01b0387168452909152902054614acb9083615e3d565b1115614b3f5760405162461bcd60e51b815260206004820152603460248201527f4d61726b65743a2043616e6e6f7420627579206d6f72652066726f6d206c697360448201527f74696e67207468616e207065726d69747465642e0000000000000000000000006064820152608401610831565b614b618360200151846040015185606001518660c00151876101600151614283565b614bc25760405162461bcd60e51b815260206004820152602c60248201527f4d61726b65743a2063616e6e6f742062757920746f6b656e732066726f6d207460448201526b3434b9903634b9ba34b7339760a11b6064820152608401610831565b6110c7828460e0015185610120015184614bdc9190615e75565b613dfc565b6000828152602081815260408083206001600160a01b038516845290915290205460ff1661356b576000828152602081815260408083206001600160a01b03851684529091529020805460ff19166001179055614c3c613588565b6001600160a01b0316816001600160a01b0316837f2f8788117e7eff1d82e926ec794901d17c78024a50270940304540a733656f0d60405160405180910390a45050565b6000818152600183016020526040812054614cc7575081546001818101845560008481526020808220909301849055845484825282860190935260409020919091556107ba565b5060006107ba565b6000828152602081815260408083206001600160a01b038516845290915290205460ff1661356b57614d0b816001600160a01b03166014615013565b614d16836020615013565b604051602001614d27929190615aaa565b60408051601f198184030181529082905262461bcd60e51b825261083191600401615c16565b6000828152602081815260408083206001600160a01b038516845290915290205460ff161561356b576000828152602081815260408083206001600160a01b03851684529091529020805460ff19169055614da6613588565b6001600160a01b0316816001600160a01b0316837ff6391f5c32d9c69d2a47ea670b442974b53935d1edc7fd64eb21e047a839171b60405160405180910390a45050565b60008181526001830160205260408120548015614efd576000614e0e600183615e94565b8554909150600090614e2290600190615e94565b9050818114614ea3576000866000018281548110614e5057634e487b7160e01b600052603260045260246000fd5b9060005260206000200154905080876000018481548110614e8157634e487b7160e01b600052603260045260246000fd5b6000918252602080832090910192909255918252600188019052604090208390555b8554869080614ec257634e487b7160e01b600052603160045260246000fd5b6001900381819060005260206000200160009055905585600101600086815260200190815260200160002060009055600193505050506107ba565b60009150506107ba565b6000826000018281548110614f2c57634e487b7160e01b600052603260045260246000fd5b9060005260206000200154905092915050565b6060833b614f9e5760405162461bcd60e51b815260206004820152602660248201527f416464726573733a2064656c65676174652063616c6c20746f206e6f6e2d636f6044820152651b9d1c9858dd60d21b6064820152608401610831565b600080856001600160a01b031685604051614fb99190615a8e565b600060405180830381855af49150503d8060008114614ff4576040519150601f19603f3d011682016040523d82523d6000602084013e614ff9565b606091505b50915091506150098282866151f5565b9695505050505050565b60606000615022836002615e75565b61502d906002615e3d565b67ffffffffffffffff81111561505357634e487b7160e01b600052604160045260246000fd5b6040519080825280601f01601f19166020018201604052801561507d576020820181803683370190505b509050600360fc1b816000815181106150a657634e487b7160e01b600052603260045260246000fd5b60200101906001600160f81b031916908160001a905350600f60fb1b816001815181106150e357634e487b7160e01b600052603260045260246000fd5b60200101906001600160f81b031916908160001a9053506000615107846002615e75565b615112906001615e3d565b90505b60018111156151a6576f181899199a1a9b1b9c1cb0b131b232b360811b85600f166010811061515457634e487b7160e01b600052603260045260246000fd5b1a60f81b82828151811061517857634e487b7160e01b600052603260045260246000fd5b60200101906001600160f81b031916908160001a90535060049490941c9361519f81615ed7565b9050615115565b508315611b415760405162461bcd60e51b815260206004820181905260248201527f537472696e67733a20686578206c656e67746820696e73756666696369656e746044820152606401610831565b60608315615204575081611b41565b8251156152145782518084602001fd5b8160405162461bcd60e51b81526004016108319190615c16565b604051806101a001604052806000815260200160006001600160a01b0316815260200160006001600160a01b031681526020016000815260200160008152602001600081526020016000815260200160006001600160a01b03168152602001600081526020016000815260200160008152602001600060018111156152c357634e487b7160e01b600052602160045260246000fd5b81526020016000905290565b8280546152db90615eee565b90600052602060002090601f0160209004810192826152fd5760008555615343565b82601f106153165782800160ff19823516178555615343565b82800160010185558215615343579182015b82811115615343578235825591602001919060010190615328565b5061534f929150615353565b5090565b5b8082111561534f5760008155600101615354565b803561476481615f8e565b600082601f830112615383578081fd5b8135602067ffffffffffffffff82111561539f5761539f615f5a565b8160051b6153ae828201615e0c565b8381528281019086840183880185018910156153c8578687fd5b8693505b858410156153ea5780358352600193909301929184019184016153cc565b50979650505050505050565b60008083601f840112615407578182fd5b50813567ffffffffffffffff81111561541e578182fd5b60208301915083602082850101111561543657600080fd5b9250929050565b600082601f83011261544d578081fd5b813567ffffffffffffffff81111561546757615467615f5a565b61547a601f8201601f1916602001615e0c565b81815284602083860101111561548e578283fd5b816020850160208301379081016020019190915292915050565b80356002811061476457600080fd5b6000602082840312156154c8578081fd5b8135611b4181615f8e565b6000602082840312156154e4578081fd5b8151611b4181615f8e565b600080600080600060a08688031215615506578081fd5b853561551181615f8e565b9450602086013561552181615f8e565b9350604086013567ffffffffffffffff8082111561553d578283fd5b61554989838a01615373565b9450606088013591508082111561555e578283fd5b61556a89838a01615373565b9350608088013591508082111561557f578283fd5b5061558c8882890161543d565b9150509295509295909350565b6000806000806000608086880312156155b0578081fd5b85356155bb81615f8e565b945060208601356155cb81615f8e565b935060408601359250606086013567ffffffffffffffff8111156155ed578182fd5b6155f9888289016153f6565b969995985093965092949392505050565b600080600080600060a08688031215615621578283fd5b853561562c81615f8e565b9450602086013561563c81615f8e565b93506040860135925060608601359150608086013567ffffffffffffffff811115615665578182fd5b61558c8882890161543d565b60008060408385031215615683578182fd5b825161568e81615f8e565b6020939093015192949293505050565b600080602083850312156156b0578182fd5b823567ffffffffffffffff808211156156c7578384fd5b818501915085601f8301126156da578384fd5b8135818111156156e8578485fd5b8660208260051b85010111156156fc578485fd5b60209290920196919550909350505050565b60006020828403121561571f578081fd5b8135611b4181615fa3565b60006020828403121561573b578081fd5b8151611b4181615fa3565b600060208284031215615757578081fd5b5035919050565b60006020828403121561576f578081fd5b5051919050565b60008060408385031215615788578182fd5b82359150602083013561579a81615f8e565b809150509250929050565b600080604083850312156157b7578182fd5b50508035926020909101359150565b6000602082840312156157d7578081fd5b81356001600160e01b031981168114611b41578182fd5b60008060208385031215615800578182fd5b823567ffffffffffffffff811115615816578283fd5b615822858286016153f6565b90969095509350505050565b60006101408284031215615840578081fd5b615848615de2565b61585183615368565b81526020830135602082015260408301356040820152606083013560608201526080830135608082015261588760a08401615368565b60a082015260c083013560c082015260e083013560e08201526101008084013581830152506101206158ba8185016154a8565b908201529392505050565b6000602082840312156158d6578081fd5b8135611b4181615fb1565b6000602082840312156158f2578081fd5b8151611b4181615fb1565b600080600060608486031215615911578081fd5b505081359360208301359350604090920135919050565b600080600080600080600080610100898b031215615944578586fd5b883597506020890135965060408901359550606089013594506080890135935060a089013561597281615f8e565b979a969950949793969295929450505060c08201359160e0013590565b600081518084526159a7816020860160208601615eab565b601f01601f19169290920160200192915050565b6159c481615f70565b9052565b8051825260208101516159e660208401826001600160a01b03169052565b506040810151615a0160408401826001600160a01b03169052565b50606081015160608301526080810151608083015260a081015160a083015260c081015160c083015260e0810151615a4460e08401826001600160a01b03169052565b5061010081810151908301526101208082015190830152610140808201519083015261016080820151615a79828501826159bb565b505061018080820151613d2a828501826159bb565b60008251615aa0818460208701615eab565b9190910192915050565b7f416363657373436f6e74726f6c3a206163636f756e7420000000000000000000815260008351615ae2816017850160208801615eab565b7f206973206d697373696e6720726f6c65200000000000000000000000000000006017918401918201528351615b1f816028840160208801615eab565b01602801949350505050565b6001600160a01b038581168252841660208201526102608101615b7b6040830185805182526001600160a01b03602082015116602083015260408101516040830152606081015160608301525050565b6109f360c08301846159c8565b6001600160a01b0384168152602081018390526101e08101615bad60408301846159c8565b949350505050565b6000602080830181845280855180835260408601915060408160051b8701019250838701855b82811015615c0957603f19888603018452615bf785835161598f565b94509285019290850190600101615bdb565b5092979650505050505050565b602081526000611b41602083018461598f565b60208082526030908201527f4d61726b65743a206d757374206f776e20616e6420617070726f766520746f2060408201526f3a3930b739b332b9103a37b5b2b7399760811b606082015260800190565b6020808252602c908201527f4d61726b65743a2063616c6c657220646f6573206e6f7420746865206c69737460408201526b34b7339031b932b0ba37b91760a11b606082015260800190565b6101a081016107ba82846159c8565b825181526020808401516001600160a01b03169082015260408084015190820152606080840151908201526102208101611b4160808301846159c8565b60006101a0820190508e82526001600160a01b03808f166020840152808e1660408401528c60608401528b60808401528a60a08401528960c084015280891660e084015250866101008301528561012083015284610140830152615d7484615f70565b83610160830152615d8483615f70565b826101808301529e9d5050505050505050505050505050565b6000808335601e19843603018112615db3578283fd5b83018035915067ffffffffffffffff821115615dcd578283fd5b60200191503681900382131561543657600080fd5b604051610140810167ffffffffffffffff81118282101715615e0657615e06615f5a565b60405290565b604051601f8201601f1916810167ffffffffffffffff81118282101715615e3557615e35615f5a565b604052919050565b60008219821115615e5057615e50615f44565b500190565b600082615e7057634e487b7160e01b81526012600452602481fd5b500490565b6000816000190483118215151615615e8f57615e8f615f44565b500290565b600082821015615ea657615ea6615f44565b500390565b60005b83811015615ec6578181015183820152602001615eae565b83811115613d2a5750506000910152565b600081615ee657615ee6615f44565b506000190190565b600181811c90821680615f0257607f821691505b60208210811415615f2357634e487b7160e01b600052602260045260246000fd5b50919050565b6000600019821415615f3d57615f3d615f44565b5060010190565b634e487b7160e01b600052601160045260246000fd5b634e487b7160e01b600052604160045260246000fd5b60028110610a8257634e487b7160e01b600052602160045260246000fd5b6001600160a01b0381168114610a8257600080fd5b8015158114610a8257600080fd5b6001600160801b0381168114610a8257600080fdfe416464726573733a206c6f772d6c6576656c2064656c65676174652063616c6c206661696c6564a164736f6c6343000804000a",
  "linkReferences": {},
  "deployedLinkReferences": {}
}