{
  "_format": "hh-sol-artifact-1",
  "contractName": "Royalty",
  "sourceName": "contracts/Royalty.sol",
  "abi": [
    {
      "inputs": [
        {
          "internalType": "address payable",
          "name": "_controlCenter",
          "type": "address"
        },
        {
          "internalType": "address",
          "name": "_trustedForwarder",
          "type": "address"
        },
        {
          "internalType": "string",
          "name": "_uri",
          "type": "string"
        },
        {
          "internalType": "address[]",
          "name": "payees",
          "type": "address[]"
        },
        {
          "internalType": "uint256[]",
          "name": "shares_",
          "type": "uint256[]"
        }
      ],
      "stateMutability": "nonpayable",
      "type": "constructor"
    },
    {
      "anonymous": false,
      "inputs": [
        {
          "indexed": true,
          "internalType": "contract IERC20",
          "name": "token",
          "type": "address"
        },
        {
          "indexed": false,
          "internalType": "address",
          "name": "to",
          "type": "address"
        },
        {
          "indexed": false,
          "internalType": "uint256",
          "name": "amount",
          "type": "uint256"
        }
      ],
      "name": "ERC20PaymentReleased",
      "type": "event"
    },
    {
      "anonymous": false,
      "inputs": [
        {
          "indexed": false,
          "internalType": "address",
          "name": "account",
          "type": "address"
        },
        {
          "indexed": false,
          "internalType": "uint256",
          "name": "shares",
          "type": "uint256"
        }
      ],
      "name": "PayeeAdded",
      "type": "event"
    },
    {
      "anonymous": false,
      "inputs": [
        {
          "indexed": false,
          "internalType": "address",
          "name": "from",
          "type": "address"
        },
        {
          "indexed": false,
          "internalType": "uint256",
          "name": "amount",
          "type": "uint256"
        }
      ],
      "name": "PaymentReceived",
      "type": "event"
    },
    {
      "anonymous": false,
      "inputs": [
        {
          "indexed": false,
          "internalType": "address",
          "name": "to",
          "type": "address"
        },
        {
          "indexed": false,
          "internalType": "uint256",
          "name": "amount",
          "type": "uint256"
        }
      ],
      "name": "PaymentReleased",
      "type": "event"
    },
    {
      "inputs": [],
      "name": "contractURI",
      "outputs": [
        {
          "internalType": "string",
          "name": "",
          "type": "string"
        }
      ],
      "stateMutability": "view",
      "type": "function"
    },
    {
      "inputs": [
        {
          "internalType": "contract IERC20",
          "name": "token",
          "type": "address"
        }
      ],
      "name": "distribute",
      "outputs": [],
      "stateMutability": "nonpayable",
      "type": "function"
    },
    {
      "inputs": [],
      "name": "distribute",
      "outputs": [],
      "stateMutability": "nonpayable",
      "type": "function"
    },
    {
      "inputs": [
        {
          "internalType": "address",
          "name": "forwarder",
          "type": "address"
        }
      ],
      "name": "isTrustedForwarder",
      "outputs": [
        {
          "internalType": "bool",
          "name": "",
          "type": "bool"
        }
      ],
      "stateMutability": "view",
      "type": "function"
    },
    {
      "inputs": [
        {
          "internalType": "bytes[]",
          "name": "data",
          "type": "bytes[]"
        }
      ],
      "name": "multicall",
      "outputs": [
        {
          "internalType": "bytes[]",
          "name": "results",
          "type": "bytes[]"
        }
      ],
      "stateMutability": "nonpayable",
      "type": "function"
    },
    {
      "inputs": [
        {
          "internalType": "uint256",
          "name": "index",
          "type": "uint256"
        }
      ],
      "name": "payee",
      "outputs": [
        {
          "internalType": "address",
          "name": "",
          "type": "address"
        }
      ],
      "stateMutability": "view",
      "type": "function"
    },
    {
      "inputs": [],
      "name": "payeeCount",
      "outputs": [
        {
          "internalType": "uint256",
          "name": "",
          "type": "uint256"
        }
      ],
      "stateMutability": "view",
      "type": "function"
    },
    {
      "inputs": [
        {
          "internalType": "address payable",
          "name": "account",
          "type": "address"
        }
      ],
      "name": "release",
      "outputs": [],
      "stateMutability": "nonpayable",
      "type": "function"
    },
    {
      "inputs": [
        {
          "internalType": "contract IERC20",
          "name": "token",
          "type": "address"
        },
        {
          "internalType": "address",
          "name": "account",
          "type": "address"
        }
      ],
      "name": "release",
      "outputs": [],
      "stateMutability": "nonpayable",
      "type": "function"
    },
    {
      "inputs": [
        {
          "internalType": "contract IERC20",
          "name": "token",
          "type": "address"
        },
        {
          "internalType": "address",
          "name": "account",
          "type": "address"
        }
      ],
      "name": "released",
      "outputs": [
        {
          "internalType": "uint256",
          "name": "",
          "type": "uint256"
        }
      ],
      "stateMutability": "view",
      "type": "function"
    },
    {
      "inputs": [
        {
          "internalType": "address",
          "name": "account",
          "type": "address"
        }
      ],
      "name": "released",
      "outputs": [
        {
          "internalType": "uint256",
          "name": "",
          "type": "uint256"
        }
      ],
      "stateMutability": "view",
      "type": "function"
    },
    {
      "inputs": [
        {
          "internalType": "string",
          "name": "_URI",
          "type": "string"
        }
      ],
      "name": "setContractURI",
      "outputs": [],
      "stateMutability": "nonpayable",
      "type": "function"
    },
    {
      "inputs": [
        {
          "internalType": "address",
          "name": "account",
          "type": "address"
        }
      ],
      "name": "shares",
      "outputs": [
        {
          "internalType": "uint256",
          "name": "",
          "type": "uint256"
        }
      ],
      "stateMutability": "view",
      "type": "function"
    },
    {
      "inputs": [
        {
          "internalType": "contract IERC20",
          "name": "token",
          "type": "address"
        }
      ],
      "name": "totalReleased",
      "outputs": [
        {
          "internalType": "uint256",
          "name": "",
          "type": "uint256"
        }
      ],
      "stateMutability": "view",
      "type": "function"
    },
    {
      "inputs": [],
      "name": "totalReleased",
      "outputs": [
        {
          "internalType": "uint256",
          "name": "",
          "type": "uint256"
        }
      ],
      "stateMutability": "view",
      "type": "function"
    },
    {
      "inputs": [],
      "name": "totalShares",
      "outputs": [
        {
          "internalType": "uint256",
          "name": "",
          "type": "uint256"
        }
      ],
      "stateMutability": "view",
      "type": "function"
    },
    {
      "stateMutability": "payable",
      "type": "receive"
    }
  ],
  "bytecode": "0x60806040523480156200001157600080fd5b5060405162002035380380620020358339810160408190526200003491620007ba565b600780546001600160a01b0319166001600160a01b0386161790558051825114620000cc5760405162461bcd60e51b815260206004820152603660248201527f526f79616c74793a20756e657175616c206e756d626572206f6620706179656560448201527f7320616e64207368617265732070726f76696465642e0000000000000000000060648201526084015b60405180910390fd5b60008251116200011f5760405162461bcd60e51b815260206004820152601c60248201527f526f79616c74793a206e6f207061796565732070726f76696465642e000000006044820152606401620000c3565b825162000134906009906020860190620005ac565b50600880546001600160a01b0319166001600160a01b03871690811790915560408051637b10399960e01b8152905160009291637b103999916004808301926020929190829003018186803b1580156200018d57600080fd5b505afa158015620001a2573d6000803e3d6000fd5b505050506040513d601f19601f82011682018060405250810190620001c89190620008f4565b604051630e78de6f60e31b81526001600160a01b0388811660048301529192506000918316906373c6f3789060240160206040518083038186803b1580156200021057600080fd5b505afa15801562000225573d6000803e3d6000fd5b505050506040513d601f19601f820116820180604052508101906200024b91906200091b565b905060008060005b86518110156200031f57600086828151811062000274576200027462000935565b60200260200101516127106200028b919062000961565b905062000299818562000983565b93506000612710620002ac878462000961565b620002b891906200099e565b90506000620002c88284620009c1565b9050620002d6818662000983565b9450620003068a8581518110620002f157620002f162000935565b602002602001015182620003c060201b60201c565b50505080806200031690620009db565b91505062000253565b5060006200032e8284620009c1565b9050620003b0856001600160a01b03166361d027b36040518163ffffffff1660e01b815260040160206040518083038186803b1580156200036e57600080fd5b505afa15801562000383573d6000803e3d6000fd5b505050506040513d601f19601f82011682018060405250810190620003a99190620008f4565b82620003c0565b5050505050505050505062000a36565b6001600160a01b0382166200042d5760405162461bcd60e51b815260206004820152602c60248201527f5061796d656e7453706c69747465723a206163636f756e74206973207468652060448201526b7a65726f206164647265737360a01b6064820152608401620000c3565b600081116200047f5760405162461bcd60e51b815260206004820152601d60248201527f5061796d656e7453706c69747465723a207368617265732061726520300000006044820152606401620000c3565b6001600160a01b03821660009081526002602052604090205415620004fb5760405162461bcd60e51b815260206004820152602b60248201527f5061796d656e7453706c69747465723a206163636f756e7420616c726561647960448201526a206861732073686172657360a81b6064820152608401620000c3565b60048054600181019091557f8a35acfbc15ff81a39ae7d344fd709f28e8600b4aa8c65c6b64bfe7fe36bd19b0180546001600160a01b0319166001600160a01b0384169081179091556000908152600260205260408120829055546200056390829062000983565b600055604080516001600160a01b0384168152602081018390527f40c340f65e17194d14ddddb073d3c9f888e3cb52b5aae0c6c7706b4fbc905fac910160405180910390a15050565b828054620005ba90620009f9565b90600052602060002090601f016020900481019282620005de576000855562000629565b82601f10620005f957805160ff191683800117855562000629565b8280016001018555821562000629579182015b82811115620006295782518255916020019190600101906200060c565b50620006379291506200063b565b5090565b5b808211156200063757600081556001016200063c565b6001600160a01b03811681146200066857600080fd5b50565b634e487b7160e01b600052604160045260246000fd5b604051601f8201601f191681016001600160401b0381118282101715620006ac57620006ac6200066b565b604052919050565b60006001600160401b03821115620006d057620006d06200066b565b5060051b60200190565b600082601f830112620006ec57600080fd5b8151602062000705620006ff83620006b4565b62000681565b82815260059290921b840181019181810190868411156200072557600080fd5b8286015b848110156200074d5780516200073f8162000652565b835291830191830162000729565b509695505050505050565b600082601f8301126200076a57600080fd5b815160206200077d620006ff83620006b4565b82815260059290921b840181019181810190868411156200079d57600080fd5b8286015b848110156200074d5780518352918301918301620007a1565b600080600080600060a08688031215620007d357600080fd5b8551620007e08162000652565b80955050602080870151620007f58162000652565b60408801519095506001600160401b03808211156200081357600080fd5b818901915089601f8301126200082857600080fd5b8151818111156200083d576200083d6200066b565b62000851601f8201601f1916850162000681565b8181528b858386010111156200086657600080fd5b60005b828110156200088657848101860151828201870152850162000869565b82811115620008985760008684840101525b5060608b015190975093505080831115620008b257600080fd5b620008c08a848b01620006da565b94506080890151925080831115620008d757600080fd5b5050620008e78882890162000758565b9150509295509295909350565b6000602082840312156200090757600080fd5b8151620009148162000652565b9392505050565b6000602082840312156200092e57600080fd5b5051919050565b634e487b7160e01b600052603260045260246000fd5b634e487b7160e01b600052601160045260246000fd5b60008160001904831182151516156200097e576200097e6200094b565b500290565b600082198211156200099957620009996200094b565b500190565b600082620009bc57634e487b7160e01b600052601260045260246000fd5b500490565b600082821015620009d657620009d66200094b565b500390565b6000600019821415620009f257620009f26200094b565b5060010190565b600181811c9082168062000a0e57607f821691505b6020821081141562000a3057634e487b7160e01b600052602260045260246000fd5b50919050565b6115ef8062000a466000396000f3fe6080604052600436106100f65760003560e01c8063938e3d7b1161008a578063d79779b211610059578063d79779b21461035c578063e33b7de314610392578063e4fc6b6d146103a7578063e8a3d485146103bc57600080fd5b8063938e3d7b146102a35780639852595c146102c3578063ac9650d8146102f9578063ce7c2ac21461032657600080fd5b806348b75044116100c657806348b75044146101ec578063572b6c051461020c57806363453ae11461024b5780638b83209b1461026b57600080fd5b8062dbe1091461014b578063191655871461016f5780633a98ef3914610191578063406072a9146101a657600080fd5b36610146577f6ef95f06320e7a25a04a175ca677b7052bdd97131872c2192525a629f51be7706101246103de565b604080516001600160a01b0390921682523460208301520160405180910390a1005b600080fd5b34801561015757600080fd5b506004545b6040519081526020015b60405180910390f35b34801561017b57600080fd5b5061018f61018a3660046111f9565b6103ed565b005b34801561019d57600080fd5b5060005461015c565b3480156101b257600080fd5b5061015c6101c1366004611216565b6001600160a01b03918216600090815260066020908152604080832093909416825291909152205490565b3480156101f857600080fd5b5061018f610207366004611216565b6105a3565b34801561021857600080fd5b5061023b6102273660046111f9565b6007546001600160a01b0391821691161490565b6040519015158152602001610166565b34801561025757600080fd5b5061018f6102663660046111f9565b61080e565b34801561027757600080fd5b5061028b61028636600461124f565b610862565b6040516001600160a01b039091168152602001610166565b3480156102af57600080fd5b5061018f6102be366004611268565b610892565b3480156102cf57600080fd5b5061015c6102de3660046111f9565b6001600160a01b031660009081526003602052604090205490565b34801561030557600080fd5b506103196103143660046112da565b610a37565b6040516101669190611399565b34801561033257600080fd5b5061015c6103413660046111f9565b6001600160a01b031660009081526002602052604090205490565b34801561036857600080fd5b5061015c6103773660046111f9565b6001600160a01b031660009081526005602052604090205490565b34801561039e57600080fd5b5060015461015c565b3480156103b357600080fd5b5061018f610b2c565b3480156103c857600080fd5b506103d1610b7e565b60405161016691906113fb565b60006103e8610c10565b905090565b6001600160a01b0381166000908152600260205260409020546104665760405162461bcd60e51b815260206004820152602660248201527f5061796d656e7453706c69747465723a206163636f756e7420686173206e6f2060448201526573686172657360d01b60648201526084015b60405180910390fd5b600061047160015490565b61047b9047611424565b905060006104a883836104a3866001600160a01b031660009081526003602052604090205490565b610c38565b90508061050b5760405162461bcd60e51b815260206004820152602b60248201527f5061796d656e7453706c69747465723a206163636f756e74206973206e6f742060448201526a191d59481c185e5b595b9d60aa1b606482015260840161045d565b6001600160a01b03831660009081526003602052604081208054839290610533908490611424565b92505081905550806001600082825461054c9190611424565b9091555061055c90508382610c7d565b604080516001600160a01b0385168152602081018390527fdf20fd1e76bc69d672e4814fafb2c449bba3a5369d8359adf9e05e6fde87b056910160405180910390a1505050565b6001600160a01b0381166000908152600260205260409020546106175760405162461bcd60e51b815260206004820152602660248201527f5061796d656e7453706c69747465723a206163636f756e7420686173206e6f2060448201526573686172657360d01b606482015260840161045d565b6001600160a01b0382166000908152600560205260408120546040516370a0823160e01b81523060048201526001600160a01b038516906370a082319060240160206040518083038186803b15801561066f57600080fd5b505afa158015610683573d6000803e3d6000fd5b505050506040513d601f19601f820116820180604052508101906106a7919061143c565b6106b19190611424565b905060006106ea83836104a387876001600160a01b03918216600090815260066020908152604080832093909416825291909152205490565b90508061074d5760405162461bcd60e51b815260206004820152602b60248201527f5061796d656e7453706c69747465723a206163636f756e74206973206e6f742060448201526a191d59481c185e5b595b9d60aa1b606482015260840161045d565b6001600160a01b03808516600090815260066020908152604080832093871683529290529081208054839290610784908490611424565b90915550506001600160a01b038416600090815260056020526040812080548392906107b1908490611424565b909155506107c29050848483610d96565b604080516001600160a01b038581168252602082018490528616917f3be5b7a71e84ed12875d241991c70855ac5817d847039e17a9d895c1ceb0f18a910160405180910390a250505050565b60005b60045481101561085e5761084c826004838154811061083257610832611455565b6000918252602090912001546001600160a01b03166105a3565b806108568161146b565b915050610811565b5050565b60006004828154811061087757610877611455565b6000918252602090912001546001600160a01b031692915050565b6008546040805163a217fddf60e01b815290516001600160a01b03909216916391d1485491839163a217fddf91600480820192602092909190829003018186803b1580156108df57600080fd5b505afa1580156108f3573d6000803e3d6000fd5b505050506040513d601f19601f82011682018060405250810190610917919061143c565b61091f6103de565b6040517fffffffff0000000000000000000000000000000000000000000000000000000060e085901b16815260048101929092526001600160a01b0316602482015260440160206040518083038186803b15801561097c57600080fd5b505afa158015610990573d6000803e3d6000fd5b505050506040513d601f19601f820116820180604052508101906109b49190611486565b610a265760405162461bcd60e51b815260206004820152603660248201527f526f79616c74793a206f6e6c7920612070726f746f636f6c2061646d696e206360448201527f616e2063616c6c20746869732066756e6374696f6e2e00000000000000000000606482015260840161045d565b610a326009838361114b565b505050565b60608167ffffffffffffffff811115610a5257610a526114a8565b604051908082528060200260200182016040528015610a8557816020015b6060815260200190600190039081610a705790505b50905060005b82811015610b2557610af530858584818110610aa957610aa9611455565b9050602002810190610abb91906114be565b8080601f016020809104026020016040519081016040528093929190818152602001838380828437600092019190915250610dfd92505050565b828281518110610b0757610b07611455565b60200260200101819052508080610b1d9061146b565b915050610a8b565b5092915050565b60005b600454811015610b7b57610b6960048281548110610b4f57610b4f611455565b6000918252602090912001546001600160a01b03166103ed565b80610b738161146b565b915050610b2f565b50565b606060098054610b8d9061150c565b80601f0160208091040260200160405190810160405280929190818152602001828054610bb99061150c565b8015610c065780601f10610bdb57610100808354040283529160200191610c06565b820191906000526020600020905b815481529060010190602001808311610be957829003601f168201915b5050505050905090565b6007546000906001600160a01b0316331415610c33575060131936013560601c90565b503390565b600080546001600160a01b038516825260026020526040822054839190610c5f9086611547565b610c699190611566565b610c739190611588565b90505b9392505050565b80471015610ccd5760405162461bcd60e51b815260206004820152601d60248201527f416464726573733a20696e73756666696369656e742062616c616e6365000000604482015260640161045d565b6000826001600160a01b03168260405160006040518083038185875af1925050503d8060008114610d1a576040519150601f19603f3d011682016040523d82523d6000602084013e610d1f565b606091505b5050905080610a325760405162461bcd60e51b815260206004820152603a60248201527f416464726573733a20756e61626c6520746f2073656e642076616c75652c207260448201527f6563697069656e74206d61792068617665207265766572746564000000000000606482015260840161045d565b604080516001600160a01b038416602482015260448082018490528251808303909101815260649091019091526020810180517bffffffffffffffffffffffffffffffffffffffffffffffffffffffff1663a9059cbb60e01b179052610a32908490610e22565b6060610c7683836040518060600160405280602781526020016115bc60279139610f07565b6000610e77826040518060400160405280602081526020017f5361666545524332303a206c6f772d6c6576656c2063616c6c206661696c6564815250856001600160a01b0316610fdb9092919063ffffffff16565b805190915015610a325780806020019051810190610e959190611486565b610a325760405162461bcd60e51b815260206004820152602a60248201527f5361666545524332303a204552433230206f7065726174696f6e20646964206e60448201527f6f74207375636365656400000000000000000000000000000000000000000000606482015260840161045d565b6060833b610f665760405162461bcd60e51b815260206004820152602660248201527f416464726573733a2064656c65676174652063616c6c20746f206e6f6e2d636f6044820152651b9d1c9858dd60d21b606482015260840161045d565b600080856001600160a01b031685604051610f81919061159f565b600060405180830381855af49150503d8060008114610fbc576040519150601f19603f3d011682016040523d82523d6000602084013e610fc1565b606091505b5091509150610fd1828286610fea565b9695505050505050565b6060610c738484600085611023565b60608315610ff9575081610c76565b8251156110095782518084602001fd5b8160405162461bcd60e51b815260040161045d91906113fb565b6060824710156110845760405162461bcd60e51b815260206004820152602660248201527f416464726573733a20696e73756666696369656e742062616c616e636520666f6044820152651c8818d85b1b60d21b606482015260840161045d565b843b6110d25760405162461bcd60e51b815260206004820152601d60248201527f416464726573733a2063616c6c20746f206e6f6e2d636f6e7472616374000000604482015260640161045d565b600080866001600160a01b031685876040516110ee919061159f565b60006040518083038185875af1925050503d806000811461112b576040519150601f19603f3d011682016040523d82523d6000602084013e611130565b606091505b5091509150611140828286610fea565b979650505050505050565b8280546111579061150c565b90600052602060002090601f01602090048101928261117957600085556111bf565b82601f106111925782800160ff198235161785556111bf565b828001600101855582156111bf579182015b828111156111bf5782358255916020019190600101906111a4565b506111cb9291506111cf565b5090565b5b808211156111cb57600081556001016111d0565b6001600160a01b0381168114610b7b57600080fd5b60006020828403121561120b57600080fd5b8135610c76816111e4565b6000806040838503121561122957600080fd5b8235611234816111e4565b91506020830135611244816111e4565b809150509250929050565b60006020828403121561126157600080fd5b5035919050565b6000806020838503121561127b57600080fd5b823567ffffffffffffffff8082111561129357600080fd5b818501915085601f8301126112a757600080fd5b8135818111156112b657600080fd5b8660208285010111156112c857600080fd5b60209290920196919550909350505050565b600080602083850312156112ed57600080fd5b823567ffffffffffffffff8082111561130557600080fd5b818501915085601f83011261131957600080fd5b81358181111561132857600080fd5b8660208260051b85010111156112c857600080fd5b60005b83811015611358578181015183820152602001611340565b83811115611367576000848401525b50505050565b6000815180845261138581602086016020860161133d565b601f01601f19169290920160200192915050565b6000602080830181845280855180835260408601915060408160051b870101925083870160005b828110156113ee57603f198886030184526113dc85835161136d565b945092850192908501906001016113c0565b5092979650505050505050565b602081526000610c76602083018461136d565b634e487b7160e01b600052601160045260246000fd5b600082198211156114375761143761140e565b500190565b60006020828403121561144e57600080fd5b5051919050565b634e487b7160e01b600052603260045260246000fd5b600060001982141561147f5761147f61140e565b5060010190565b60006020828403121561149857600080fd5b81518015158114610c7657600080fd5b634e487b7160e01b600052604160045260246000fd5b6000808335601e198436030181126114d557600080fd5b83018035915067ffffffffffffffff8211156114f057600080fd5b60200191503681900382131561150557600080fd5b9250929050565b600181811c9082168061152057607f821691505b6020821081141561154157634e487b7160e01b600052602260045260246000fd5b50919050565b60008160001904831182151516156115615761156161140e565b500290565b60008261158357634e487b7160e01b600052601260045260246000fd5b500490565b60008282101561159a5761159a61140e565b500390565b600082516115b181846020870161133d565b919091019291505056fe416464726573733a206c6f772d6c6576656c2064656c65676174652063616c6c206661696c6564a164736f6c6343000809000a",
  "linkReferences": {},
  "deployedLinkReferences": {}
}