{
  "_format": "hh-sol-artifact-1",
  "contractName": "Royalty",
  "sourceName": "contracts/Royalty.sol",
  "abi": [
    {
      "inputs": [
        {
          "internalType": "address payable",
          "name": "_controlCenter",
          "type": "address"
        },
        {
          "internalType": "address",
          "name": "_trustedForwarder",
          "type": "address"
        },
        {
          "internalType": "string",
          "name": "_uri",
          "type": "string"
        },
        {
          "internalType": "address[]",
          "name": "payees",
          "type": "address[]"
        },
        {
          "internalType": "uint256[]",
          "name": "shares_",
          "type": "uint256[]"
        }
      ],
      "stateMutability": "nonpayable",
      "type": "constructor"
    },
    {
      "anonymous": false,
      "inputs": [
        {
          "indexed": true,
          "internalType": "contract IERC20",
          "name": "token",
          "type": "address"
        },
        {
          "indexed": false,
          "internalType": "address",
          "name": "to",
          "type": "address"
        },
        {
          "indexed": false,
          "internalType": "uint256",
          "name": "amount",
          "type": "uint256"
        }
      ],
      "name": "ERC20PaymentReleased",
      "type": "event"
    },
    {
      "anonymous": false,
      "inputs": [
        {
          "indexed": false,
          "internalType": "address",
          "name": "account",
          "type": "address"
        },
        {
          "indexed": false,
          "internalType": "uint256",
          "name": "shares",
          "type": "uint256"
        }
      ],
      "name": "PayeeAdded",
      "type": "event"
    },
    {
      "anonymous": false,
      "inputs": [
        {
          "indexed": false,
          "internalType": "address",
          "name": "from",
          "type": "address"
        },
        {
          "indexed": false,
          "internalType": "uint256",
          "name": "amount",
          "type": "uint256"
        }
      ],
      "name": "PaymentReceived",
      "type": "event"
    },
    {
      "anonymous": false,
      "inputs": [
        {
          "indexed": false,
          "internalType": "address",
          "name": "to",
          "type": "address"
        },
        {
          "indexed": false,
          "internalType": "uint256",
          "name": "amount",
          "type": "uint256"
        }
      ],
      "name": "PaymentReleased",
      "type": "event"
    },
    {
      "inputs": [],
      "name": "contractURI",
      "outputs": [
        {
          "internalType": "string",
          "name": "",
          "type": "string"
        }
      ],
      "stateMutability": "view",
      "type": "function"
    },
    {
      "inputs": [
        {
          "internalType": "contract IERC20",
          "name": "token",
          "type": "address"
        }
      ],
      "name": "distribute",
      "outputs": [],
      "stateMutability": "nonpayable",
      "type": "function"
    },
    {
      "inputs": [],
      "name": "distribute",
      "outputs": [],
      "stateMutability": "nonpayable",
      "type": "function"
    },
    {
      "inputs": [
        {
          "internalType": "address",
          "name": "forwarder",
          "type": "address"
        }
      ],
      "name": "isTrustedForwarder",
      "outputs": [
        {
          "internalType": "bool",
          "name": "",
          "type": "bool"
        }
      ],
      "stateMutability": "view",
      "type": "function"
    },
    {
      "inputs": [
        {
          "internalType": "bytes[]",
          "name": "data",
          "type": "bytes[]"
        }
      ],
      "name": "multicall",
      "outputs": [
        {
          "internalType": "bytes[]",
          "name": "results",
          "type": "bytes[]"
        }
      ],
      "stateMutability": "nonpayable",
      "type": "function"
    },
    {
      "inputs": [
        {
          "internalType": "uint256",
          "name": "index",
          "type": "uint256"
        }
      ],
      "name": "payee",
      "outputs": [
        {
          "internalType": "address",
          "name": "",
          "type": "address"
        }
      ],
      "stateMutability": "view",
      "type": "function"
    },
    {
      "inputs": [],
      "name": "payeeCount",
      "outputs": [
        {
          "internalType": "uint256",
          "name": "",
          "type": "uint256"
        }
      ],
      "stateMutability": "view",
      "type": "function"
    },
    {
      "inputs": [
        {
          "internalType": "address payable",
          "name": "account",
          "type": "address"
        }
      ],
      "name": "release",
      "outputs": [],
      "stateMutability": "nonpayable",
      "type": "function"
    },
    {
      "inputs": [
        {
          "internalType": "contract IERC20",
          "name": "token",
          "type": "address"
        },
        {
          "internalType": "address",
          "name": "account",
          "type": "address"
        }
      ],
      "name": "release",
      "outputs": [],
      "stateMutability": "nonpayable",
      "type": "function"
    },
    {
      "inputs": [
        {
          "internalType": "contract IERC20",
          "name": "token",
          "type": "address"
        },
        {
          "internalType": "address",
          "name": "account",
          "type": "address"
        }
      ],
      "name": "released",
      "outputs": [
        {
          "internalType": "uint256",
          "name": "",
          "type": "uint256"
        }
      ],
      "stateMutability": "view",
      "type": "function"
    },
    {
      "inputs": [
        {
          "internalType": "address",
          "name": "account",
          "type": "address"
        }
      ],
      "name": "released",
      "outputs": [
        {
          "internalType": "uint256",
          "name": "",
          "type": "uint256"
        }
      ],
      "stateMutability": "view",
      "type": "function"
    },
    {
      "inputs": [
        {
          "internalType": "string",
          "name": "_URI",
          "type": "string"
        }
      ],
      "name": "setContractURI",
      "outputs": [],
      "stateMutability": "nonpayable",
      "type": "function"
    },
    {
      "inputs": [
        {
          "internalType": "address",
          "name": "account",
          "type": "address"
        }
      ],
      "name": "shares",
      "outputs": [
        {
          "internalType": "uint256",
          "name": "",
          "type": "uint256"
        }
      ],
      "stateMutability": "view",
      "type": "function"
    },
    {
      "inputs": [
        {
          "internalType": "contract IERC20",
          "name": "token",
          "type": "address"
        }
      ],
      "name": "totalReleased",
      "outputs": [
        {
          "internalType": "uint256",
          "name": "",
          "type": "uint256"
        }
      ],
      "stateMutability": "view",
      "type": "function"
    },
    {
      "inputs": [],
      "name": "totalReleased",
      "outputs": [
        {
          "internalType": "uint256",
          "name": "",
          "type": "uint256"
        }
      ],
      "stateMutability": "view",
      "type": "function"
    },
    {
      "inputs": [],
      "name": "totalShares",
      "outputs": [
        {
          "internalType": "uint256",
          "name": "",
          "type": "uint256"
        }
      ],
      "stateMutability": "view",
      "type": "function"
    },
    {
      "stateMutability": "payable",
      "type": "receive"
    }
  ],
  "bytecode": "0x60806040523480156200001157600080fd5b506040516200207238038062002072833981016040819052620000349162000776565b600780546001600160a01b0319166001600160a01b0386161790558051825114620000cc5760405162461bcd60e51b815260206004820152603660248201527f526f79616c74793a20756e657175616c206e756d626572206f6620706179656560448201527f7320616e64207368617265732070726f76696465642e0000000000000000000060648201526084015b60405180910390fd5b60008251116200011f5760405162461bcd60e51b815260206004820152601c60248201527f526f79616c74793a206e6f207061796565732070726f76696465642e000000006044820152606401620000c3565b825162000134906009906020860190620005c4565b50600880546001600160a01b0319166001600160a01b03871690811790915560408051637b10399960e01b8152905160009291637b103999916004808301926020929190829003018186803b1580156200018d57600080fd5b505afa158015620001a2573d6000803e3d6000fd5b505050506040513d601f19601f82011682018060405250810190620001c8919062000750565b604051630e78de6f60e31b81526001600160a01b0388811660048301529192506000918316906373c6f3789060240160206040518083038186803b1580156200021057600080fd5b505afa15801562000225573d6000803e3d6000fd5b505050506040513d601f19601f820116820180604052508101906200024b9190620008a8565b905060008060005b8651811015620003375760008682815181106200028057634e487b7160e01b600052603260045260246000fd5b602002602001015161271062000297919062000956565b9050620002a581856200091a565b93506000612710620002b8878462000956565b620002c4919062000935565b90506000620002d4828462000978565b9050620002e281866200091a565b94506200031e8a85815181106200030957634e487b7160e01b600052603260045260246000fd5b602002602001015182620003d860201b60201c565b50505080806200032e90620009cf565b91505062000253565b50600062000346828462000978565b9050620003c8856001600160a01b03166361d027b36040518163ffffffff1660e01b815260040160206040518083038186803b1580156200038657600080fd5b505afa1580156200039b573d6000803e3d6000fd5b505050506040513d601f19601f82011682018060405250810190620003c1919062000750565b82620003d8565b5050505050505050505062000a32565b6001600160a01b038216620004455760405162461bcd60e51b815260206004820152602c60248201527f5061796d656e7453706c69747465723a206163636f756e74206973207468652060448201526b7a65726f206164647265737360a01b6064820152608401620000c3565b60008111620004975760405162461bcd60e51b815260206004820152601d60248201527f5061796d656e7453706c69747465723a207368617265732061726520300000006044820152606401620000c3565b6001600160a01b03821660009081526002602052604090205415620005135760405162461bcd60e51b815260206004820152602b60248201527f5061796d656e7453706c69747465723a206163636f756e7420616c726561647960448201526a206861732073686172657360a81b6064820152608401620000c3565b60048054600181019091557f8a35acfbc15ff81a39ae7d344fd709f28e8600b4aa8c65c6b64bfe7fe36bd19b0180546001600160a01b0319166001600160a01b0384169081179091556000908152600260205260408120829055546200057b9082906200091a565b600055604080516001600160a01b0384168152602081018390527f40c340f65e17194d14ddddb073d3c9f888e3cb52b5aae0c6c7706b4fbc905fac910160405180910390a15050565b828054620005d29062000992565b90600052602060002090601f016020900481019282620005f6576000855562000641565b82601f106200061157805160ff191683800117855562000641565b8280016001018555821562000641579182015b828111156200064157825182559160200191906001019062000624565b506200064f92915062000653565b5090565b5b808211156200064f576000815560010162000654565b600082601f8301126200067b578081fd5b81516020620006946200068e83620008f4565b620008c1565b80838252828201915082860187848660051b8901011115620006b4578586fd5b855b85811015620006df578151620006cc8162000a19565b84529284019290840190600101620006b6565b5090979650505050505050565b600082601f830112620006fd578081fd5b81516020620007106200068e83620008f4565b80838252828201915082860187848660051b890101111562000730578586fd5b855b85811015620006df5781518452928401929084019060010162000732565b60006020828403121562000762578081fd5b81516200076f8162000a19565b9392505050565b600080600080600060a086880312156200078e578081fd5b85516200079b8162000a19565b80955050602080870151620007b08162000a19565b60408801519095506001600160401b0380821115620007cd578384fd5b818901915089601f830112620007e1578384fd5b815181811115620007f657620007f662000a03565b6200080a601f8201601f19168501620008c1565b8181528b858386010111156200081e578586fd5b855b828110156200083d57848101860151828201870152850162000820565b828111156200084e57868684840101525b5060608b01519097509350508083111562000867578384fd5b620008758a848b016200066a565b945060808901519250808311156200088b578384fd5b50506200089b88828901620006ec565b9150509295509295909350565b600060208284031215620008ba578081fd5b5051919050565b604051601f8201601f191681016001600160401b0381118282101715620008ec57620008ec62000a03565b604052919050565b60006001600160401b0382111562000910576200091062000a03565b5060051b60200190565b60008219821115620009305762000930620009ed565b500190565b6000826200095157634e487b7160e01b81526012600452602481fd5b500490565b6000816000190483118215151615620009735762000973620009ed565b500290565b6000828210156200098d576200098d620009ed565b500390565b600181811c90821680620009a757607f821691505b60208210811415620009c957634e487b7160e01b600052602260045260246000fd5b50919050565b6000600019821415620009e657620009e6620009ed565b5060010190565b634e487b7160e01b600052601160045260246000fd5b634e487b7160e01b600052604160045260246000fd5b6001600160a01b038116811462000a2f57600080fd5b50565b6116308062000a426000396000f3fe6080604052600436106100f65760003560e01c8063938e3d7b1161008a578063d79779b211610059578063d79779b21461035c578063e33b7de314610392578063e4fc6b6d146103a7578063e8a3d485146103bc57600080fd5b8063938e3d7b146102a35780639852595c146102c3578063ac9650d8146102f9578063ce7c2ac21461032657600080fd5b806348b75044116100c657806348b75044146101ec578063572b6c051461020c57806363453ae11461024b5780638b83209b1461026b57600080fd5b8062dbe1091461014b578063191655871461016f5780633a98ef3914610191578063406072a9146101a657600080fd5b36610146577f6ef95f06320e7a25a04a175ca677b7052bdd97131872c2192525a629f51be7706101246103de565b604080516001600160a01b0390921682523460208301520160405180910390a1005b600080fd5b34801561015757600080fd5b506004545b6040519081526020015b60405180910390f35b34801561017b57600080fd5b5061018f61018a366004611266565b6103ed565b005b34801561019d57600080fd5b5060005461015c565b3480156101b257600080fd5b5061015c6101c136600461132a565b6001600160a01b03918216600090815260066020908152604080832093909416825291909152205490565b3480156101f857600080fd5b5061018f61020736600461132a565b6105a3565b34801561021857600080fd5b5061023b610227366004611266565b6007546001600160a01b0391821691161490565b6040519015158152602001610166565b34801561025757600080fd5b5061018f610266366004611266565b61080e565b34801561027757600080fd5b5061028b6102863660046113bd565b610870565b6040516001600160a01b039091168152602001610166565b3480156102af57600080fd5b5061018f6102be366004611362565b6108ae565b3480156102cf57600080fd5b5061015c6102de366004611266565b6001600160a01b031660009081526003602052604090205490565b34801561030557600080fd5b50610319610314366004611282565b610a53565b604051610166919061141d565b34801561033257600080fd5b5061015c610341366004611266565b6001600160a01b031660009081526002602052604090205490565b34801561036857600080fd5b5061015c610377366004611266565b6001600160a01b031660009081526005602052604090205490565b34801561039e57600080fd5b5060015461015c565b3480156103b357600080fd5b5061018f610b72565b3480156103c857600080fd5b506103d1610bd2565b604051610166919061147e565b60006103e8610c64565b905090565b6001600160a01b0381166000908152600260205260409020546104665760405162461bcd60e51b815260206004820152602660248201527f5061796d656e7453706c69747465723a206163636f756e7420686173206e6f2060448201526573686172657360d01b60648201526084015b60405180910390fd5b600061047160015490565b61047b90476114dd565b905060006104a883836104a3866001600160a01b031660009081526003602052604090205490565b610c8c565b90508061050b5760405162461bcd60e51b815260206004820152602b60248201527f5061796d656e7453706c69747465723a206163636f756e74206973206e6f742060448201526a191d59481c185e5b595b9d60aa1b606482015260840161045d565b6001600160a01b038316600090815260036020526040812080548392906105339084906114dd565b92505081905550806001600082825461054c91906114dd565b9091555061055c90508382610cd1565b604080516001600160a01b0385168152602081018390527fdf20fd1e76bc69d672e4814fafb2c449bba3a5369d8359adf9e05e6fde87b056910160405180910390a1505050565b6001600160a01b0381166000908152600260205260409020546106175760405162461bcd60e51b815260206004820152602660248201527f5061796d656e7453706c69747465723a206163636f756e7420686173206e6f2060448201526573686172657360d01b606482015260840161045d565b6001600160a01b0382166000908152600560205260408120546040516370a0823160e01b81523060048201526001600160a01b038516906370a082319060240160206040518083038186803b15801561066f57600080fd5b505afa158015610683573d6000803e3d6000fd5b505050506040513d601f19601f820116820180604052508101906106a79190611312565b6106b191906114dd565b905060006106ea83836104a387876001600160a01b03918216600090815260066020908152604080832093909416825291909152205490565b90508061074d5760405162461bcd60e51b815260206004820152602b60248201527f5061796d656e7453706c69747465723a206163636f756e74206973206e6f742060448201526a191d59481c185e5b595b9d60aa1b606482015260840161045d565b6001600160a01b038085166000908152600660209081526040808320938716835292905290812080548392906107849084906114dd565b90915550506001600160a01b038416600090815260056020526040812080548392906107b19084906114dd565b909155506107c29050848483610dea565b604080516001600160a01b038581168252602082018490528616917f3be5b7a71e84ed12875d241991c70855ac5817d847039e17a9d895c1ceb0f18a910160405180910390a250505050565b60005b60045481101561086c5761085a826004838154811061084057634e487b7160e01b600052603260045260246000fd5b6000918252602090912001546001600160a01b03166105a3565b80610864816115b6565b915050610811565b5050565b60006004828154811061089357634e487b7160e01b600052603260045260246000fd5b6000918252602090912001546001600160a01b031692915050565b6008546040805163a217fddf60e01b815290516001600160a01b03909216916391d1485491839163a217fddf91600480820192602092909190829003018186803b1580156108fb57600080fd5b505afa15801561090f573d6000803e3d6000fd5b505050506040513d601f19601f820116820180604052508101906109339190611312565b61093b6103de565b6040517fffffffff0000000000000000000000000000000000000000000000000000000060e085901b16815260048101929092526001600160a01b0316602482015260440160206040518083038186803b15801561099857600080fd5b505afa1580156109ac573d6000803e3d6000fd5b505050506040513d601f19601f820116820180604052508101906109d091906112f2565b610a425760405162461bcd60e51b815260206004820152603660248201527f526f79616c74793a206f6e6c7920612070726f746f636f6c2061646d696e206360448201527f616e2063616c6c20746869732066756e6374696f6e2e00000000000000000000606482015260840161045d565b610a4e600983836111cd565b505050565b60608167ffffffffffffffff811115610a7c57634e487b7160e01b600052604160045260246000fd5b604051908082528060200260200182016040528015610aaf57816020015b6060815260200190600190039081610a9a5790505b50905060005b82811015610b6b57610b2d30858584818110610ae157634e487b7160e01b600052603260045260246000fd5b9050602002810190610af39190611491565b8080601f016020809104026020016040519081016040528093929190818152602001838380828437600092019190915250610e5192505050565b828281518110610b4d57634e487b7160e01b600052603260045260246000fd5b60200260200101819052508080610b63906115b6565b915050610ab5565b5092915050565b60005b600454811015610bcf57610bbd60048281548110610ba357634e487b7160e01b600052603260045260246000fd5b6000918252602090912001546001600160a01b03166103ed565b80610bc7816115b6565b915050610b75565b50565b606060098054610be19061157b565b80601f0160208091040260200160405190810160405280929190818152602001828054610c0d9061157b565b8015610c5a5780601f10610c2f57610100808354040283529160200191610c5a565b820191906000526020600020905b815481529060010190602001808311610c3d57829003601f168201915b5050505050905090565b6007546000906001600160a01b0316331415610c87575060131936013560601c90565b503390565b600080546001600160a01b038516825260026020526040822054839190610cb39086611515565b610cbd91906114f5565b610cc79190611534565b90505b9392505050565b80471015610d215760405162461bcd60e51b815260206004820152601d60248201527f416464726573733a20696e73756666696369656e742062616c616e6365000000604482015260640161045d565b6000826001600160a01b03168260405160006040518083038185875af1925050503d8060008114610d6e576040519150601f19603f3d011682016040523d82523d6000602084013e610d73565b606091505b5050905080610a4e5760405162461bcd60e51b815260206004820152603a60248201527f416464726573733a20756e61626c6520746f2073656e642076616c75652c207260448201527f6563697069656e74206d61792068617665207265766572746564000000000000606482015260840161045d565b604080516001600160a01b038416602482015260448082018490528251808303909101815260649091019091526020810180517bffffffffffffffffffffffffffffffffffffffffffffffffffffffff1663a9059cbb60e01b179052610a4e908490610e76565b6060610cca83836040518060600160405280602781526020016115fd60279139610f5b565b6000610ecb826040518060400160405280602081526020017f5361666545524332303a206c6f772d6c6576656c2063616c6c206661696c6564815250856001600160a01b03166110469092919063ffffffff16565b805190915015610a4e5780806020019051810190610ee991906112f2565b610a4e5760405162461bcd60e51b815260206004820152602a60248201527f5361666545524332303a204552433230206f7065726174696f6e20646964206e60448201527f6f74207375636365656400000000000000000000000000000000000000000000606482015260840161045d565b6060833b610fd15760405162461bcd60e51b815260206004820152602660248201527f416464726573733a2064656c65676174652063616c6c20746f206e6f6e2d636f60448201527f6e74726163740000000000000000000000000000000000000000000000000000606482015260840161045d565b600080856001600160a01b031685604051610fec9190611401565b600060405180830381855af49150503d8060008114611027576040519150601f19603f3d011682016040523d82523d6000602084013e61102c565b606091505b509150915061103c828286611055565b9695505050505050565b6060610cc7848460008561108e565b60608315611064575081610cca565b8251156110745782518084602001fd5b8160405162461bcd60e51b815260040161045d919061147e565b6060824710156111065760405162461bcd60e51b815260206004820152602660248201527f416464726573733a20696e73756666696369656e742062616c616e636520666f60448201527f722063616c6c0000000000000000000000000000000000000000000000000000606482015260840161045d565b843b6111545760405162461bcd60e51b815260206004820152601d60248201527f416464726573733a2063616c6c20746f206e6f6e2d636f6e7472616374000000604482015260640161045d565b600080866001600160a01b031685876040516111709190611401565b60006040518083038185875af1925050503d80600081146111ad576040519150601f19603f3d011682016040523d82523d6000602084013e6111b2565b606091505b50915091506111c2828286611055565b979650505050505050565b8280546111d99061157b565b90600052602060002090601f0160209004810192826111fb5760008555611241565b82601f106112145782800160ff19823516178555611241565b82800160010185558215611241579182015b82811115611241578235825591602001919060010190611226565b5061124d929150611251565b5090565b5b8082111561124d5760008155600101611252565b600060208284031215611277578081fd5b8135610cca816115e7565b60008060208385031215611294578081fd5b823567ffffffffffffffff808211156112ab578283fd5b818501915085601f8301126112be578283fd5b8135818111156112cc578384fd5b8660208260051b85010111156112e0578384fd5b60209290920196919550909350505050565b600060208284031215611303578081fd5b81518015158114610cca578182fd5b600060208284031215611323578081fd5b5051919050565b6000806040838503121561133c578182fd5b8235611347816115e7565b91506020830135611357816115e7565b809150509250929050565b60008060208385031215611374578182fd5b823567ffffffffffffffff8082111561138b578384fd5b818501915085601f83011261139e578384fd5b8135818111156113ac578485fd5b8660208285010111156112e0578485fd5b6000602082840312156113ce578081fd5b5035919050565b600081518084526113ed81602086016020860161154b565b601f01601f19169290920160200192915050565b6000825161141381846020870161154b565b9190910192915050565b6000602080830181845280855180835260408601915060408160051b8701019250838701855b8281101561147157603f1988860301845261145f8583516113d5565b94509285019290850190600101611443565b5092979650505050505050565b602081526000610cca60208301846113d5565b6000808335601e198436030181126114a7578283fd5b83018035915067ffffffffffffffff8211156114c1578283fd5b6020019150368190038213156114d657600080fd5b9250929050565b600082198211156114f0576114f06115d1565b500190565b60008261151057634e487b7160e01b81526012600452602481fd5b500490565b600081600019048311821515161561152f5761152f6115d1565b500290565b600082821015611546576115466115d1565b500390565b60005b8381101561156657818101518382015260200161154e565b83811115611575576000848401525b50505050565b600181811c9082168061158f57607f821691505b602082108114156115b057634e487b7160e01b600052602260045260246000fd5b50919050565b60006000198214156115ca576115ca6115d1565b5060010190565b634e487b7160e01b600052601160045260246000fd5b6001600160a01b0381168114610bcf57600080fdfe416464726573733a206c6f772d6c6576656c2064656c65676174652063616c6c206661696c6564a164736f6c6343000804000a",
  "linkReferences": {},
  "deployedLinkReferences": {}
}