{
  "_format": "hh-sol-artifact-1",
  "contractName": "Royalty",
  "sourceName": "contracts/Royalty.sol",
  "abi": [
    {
      "inputs": [
        {
          "internalType": "address payable",
          "name": "_controlCenter",
          "type": "address"
        },
        {
          "internalType": "address",
          "name": "_trustedForwarder",
          "type": "address"
        },
        {
          "internalType": "string",
          "name": "_uri",
          "type": "string"
        },
        {
          "internalType": "address[]",
          "name": "payees",
          "type": "address[]"
        },
        {
          "internalType": "uint256[]",
          "name": "shares_",
          "type": "uint256[]"
        }
      ],
      "stateMutability": "nonpayable",
      "type": "constructor"
    },
    {
      "anonymous": false,
      "inputs": [
        {
          "indexed": true,
          "internalType": "contract IERC20",
          "name": "token",
          "type": "address"
        },
        {
          "indexed": false,
          "internalType": "address",
          "name": "to",
          "type": "address"
        },
        {
          "indexed": false,
          "internalType": "uint256",
          "name": "amount",
          "type": "uint256"
        }
      ],
      "name": "ERC20PaymentReleased",
      "type": "event"
    },
    {
      "anonymous": false,
      "inputs": [
        {
          "indexed": false,
          "internalType": "address",
          "name": "account",
          "type": "address"
        },
        {
          "indexed": false,
          "internalType": "uint256",
          "name": "shares",
          "type": "uint256"
        }
      ],
      "name": "PayeeAdded",
      "type": "event"
    },
    {
      "anonymous": false,
      "inputs": [
        {
          "indexed": false,
          "internalType": "address",
          "name": "from",
          "type": "address"
        },
        {
          "indexed": false,
          "internalType": "uint256",
          "name": "amount",
          "type": "uint256"
        }
      ],
      "name": "PaymentReceived",
      "type": "event"
    },
    {
      "anonymous": false,
      "inputs": [
        {
          "indexed": false,
          "internalType": "address",
          "name": "to",
          "type": "address"
        },
        {
          "indexed": false,
          "internalType": "uint256",
          "name": "amount",
          "type": "uint256"
        }
      ],
      "name": "PaymentReleased",
      "type": "event"
    },
    {
      "inputs": [],
      "name": "contractURI",
      "outputs": [
        {
          "internalType": "string",
          "name": "",
          "type": "string"
        }
      ],
      "stateMutability": "view",
      "type": "function"
    },
    {
      "inputs": [
        {
          "internalType": "address",
          "name": "forwarder",
          "type": "address"
        }
      ],
      "name": "isTrustedForwarder",
      "outputs": [
        {
          "internalType": "bool",
          "name": "",
          "type": "bool"
        }
      ],
      "stateMutability": "view",
      "type": "function"
    },
    {
      "inputs": [
        {
          "internalType": "uint256",
          "name": "index",
          "type": "uint256"
        }
      ],
      "name": "payee",
      "outputs": [
        {
          "internalType": "address",
          "name": "",
          "type": "address"
        }
      ],
      "stateMutability": "view",
      "type": "function"
    },
    {
      "inputs": [
        {
          "internalType": "address payable",
          "name": "account",
          "type": "address"
        }
      ],
      "name": "release",
      "outputs": [],
      "stateMutability": "nonpayable",
      "type": "function"
    },
    {
      "inputs": [
        {
          "internalType": "contract IERC20",
          "name": "token",
          "type": "address"
        },
        {
          "internalType": "address",
          "name": "account",
          "type": "address"
        }
      ],
      "name": "release",
      "outputs": [],
      "stateMutability": "nonpayable",
      "type": "function"
    },
    {
      "inputs": [
        {
          "internalType": "contract IERC20",
          "name": "token",
          "type": "address"
        },
        {
          "internalType": "address",
          "name": "account",
          "type": "address"
        }
      ],
      "name": "released",
      "outputs": [
        {
          "internalType": "uint256",
          "name": "",
          "type": "uint256"
        }
      ],
      "stateMutability": "view",
      "type": "function"
    },
    {
      "inputs": [
        {
          "internalType": "address",
          "name": "account",
          "type": "address"
        }
      ],
      "name": "released",
      "outputs": [
        {
          "internalType": "uint256",
          "name": "",
          "type": "uint256"
        }
      ],
      "stateMutability": "view",
      "type": "function"
    },
    {
      "inputs": [
        {
          "internalType": "string",
          "name": "_URI",
          "type": "string"
        }
      ],
      "name": "setContractURI",
      "outputs": [],
      "stateMutability": "nonpayable",
      "type": "function"
    },
    {
      "inputs": [
        {
          "internalType": "address",
          "name": "account",
          "type": "address"
        }
      ],
      "name": "shares",
      "outputs": [
        {
          "internalType": "uint256",
          "name": "",
          "type": "uint256"
        }
      ],
      "stateMutability": "view",
      "type": "function"
    },
    {
      "inputs": [
        {
          "internalType": "contract IERC20",
          "name": "token",
          "type": "address"
        }
      ],
      "name": "totalReleased",
      "outputs": [
        {
          "internalType": "uint256",
          "name": "",
          "type": "uint256"
        }
      ],
      "stateMutability": "view",
      "type": "function"
    },
    {
      "inputs": [],
      "name": "totalReleased",
      "outputs": [
        {
          "internalType": "uint256",
          "name": "",
          "type": "uint256"
        }
      ],
      "stateMutability": "view",
      "type": "function"
    },
    {
      "inputs": [],
      "name": "totalShares",
      "outputs": [
        {
          "internalType": "uint256",
          "name": "",
          "type": "uint256"
        }
      ],
      "stateMutability": "view",
      "type": "function"
    },
    {
      "stateMutability": "payable",
      "type": "receive"
    }
  ],
  "bytecode": "0x60806040523480156200001157600080fd5b5060405162001b0938038062001b098339810160408190526200003491620007b4565b600780546001600160a01b0319166001600160a01b0386161790558051825114620000cc5760405162461bcd60e51b815260206004820152603660248201527f526f79616c74793a20756e657175616c206e756d626572206f6620706179656560448201527f7320616e64207368617265732070726f76696465642e0000000000000000000060648201526084015b60405180910390fd5b60008251116200011f5760405162461bcd60e51b815260206004820152601c60248201527f526f79616c74793a206e6f207061796565732070726f76696465642e000000006044820152606401620000c3565b825162000134906009906020860190620005a6565b50600880546001600160a01b0319166001600160a01b03871690811790915560408051637b10399960e01b8152905160009291637b103999916004808301926020929190829003018186803b1580156200018d57600080fd5b505afa158015620001a2573d6000803e3d6000fd5b505050506040513d601f19601f82011682018060405250810190620001c89190620008ee565b604051630e78de6f60e31b81526001600160a01b0388811660048301529192506000918316906373c6f3789060240160206040518083038186803b1580156200021057600080fd5b505afa15801562000225573d6000803e3d6000fd5b505050506040513d601f19601f820116820180604052508101906200024b919062000915565b905060008060005b86518110156200031f5760008682815181106200027457620002746200092f565b60200260200101516127106200028b91906200095b565b90506200029981856200097d565b93506000612710620002ac87846200095b565b620002b8919062000998565b90506000620002c88284620009bb565b9050620002d681866200097d565b9450620003068a8581518110620002f157620002f16200092f565b602002602001015182620003ba60201b60201c565b50505080806200031690620009d5565b91505062000253565b50620003ab846001600160a01b03166361d027b36040518163ffffffff1660e01b815260040160206040518083038186803b1580156200035e57600080fd5b505afa15801562000373573d6000803e3d6000fd5b505050506040513d601f19601f82011682018060405250810190620003999190620008ee565b620003a58385620009bb565b620003ba565b50505050505050505062000a30565b6001600160a01b038216620004275760405162461bcd60e51b815260206004820152602c60248201527f5061796d656e7453706c69747465723a206163636f756e74206973207468652060448201526b7a65726f206164647265737360a01b6064820152608401620000c3565b60008111620004795760405162461bcd60e51b815260206004820152601d60248201527f5061796d656e7453706c69747465723a207368617265732061726520300000006044820152606401620000c3565b6001600160a01b03821660009081526002602052604090205415620004f55760405162461bcd60e51b815260206004820152602b60248201527f5061796d656e7453706c69747465723a206163636f756e7420616c726561647960448201526a206861732073686172657360a81b6064820152608401620000c3565b60048054600181019091557f8a35acfbc15ff81a39ae7d344fd709f28e8600b4aa8c65c6b64bfe7fe36bd19b0180546001600160a01b0319166001600160a01b0384169081179091556000908152600260205260408120829055546200055d9082906200097d565b600055604080516001600160a01b0384168152602081018390527f40c340f65e17194d14ddddb073d3c9f888e3cb52b5aae0c6c7706b4fbc905fac910160405180910390a15050565b828054620005b490620009f3565b90600052602060002090601f016020900481019282620005d8576000855562000623565b82601f10620005f357805160ff191683800117855562000623565b8280016001018555821562000623579182015b828111156200062357825182559160200191906001019062000606565b506200063192915062000635565b5090565b5b8082111562000631576000815560010162000636565b6001600160a01b03811681146200066257600080fd5b50565b634e487b7160e01b600052604160045260246000fd5b604051601f8201601f191681016001600160401b0381118282101715620006a657620006a662000665565b604052919050565b60006001600160401b03821115620006ca57620006ca62000665565b5060051b60200190565b600082601f830112620006e657600080fd5b81516020620006ff620006f983620006ae565b6200067b565b82815260059290921b840181019181810190868411156200071f57600080fd5b8286015b848110156200074757805162000739816200064c565b835291830191830162000723565b509695505050505050565b600082601f8301126200076457600080fd5b8151602062000777620006f983620006ae565b82815260059290921b840181019181810190868411156200079757600080fd5b8286015b848110156200074757805183529183019183016200079b565b600080600080600060a08688031215620007cd57600080fd5b8551620007da816200064c565b80955050602080870151620007ef816200064c565b60408801519095506001600160401b03808211156200080d57600080fd5b818901915089601f8301126200082257600080fd5b81518181111562000837576200083762000665565b6200084b601f8201601f191685016200067b565b8181528b858386010111156200086057600080fd5b60005b828110156200088057848101860151828201870152850162000863565b82811115620008925760008684840101525b5060608b015190975093505080831115620008ac57600080fd5b620008ba8a848b01620006d4565b94506080890151925080831115620008d157600080fd5b5050620008e18882890162000752565b9150509295509295909350565b6000602082840312156200090157600080fd5b81516200090e816200064c565b9392505050565b6000602082840312156200092857600080fd5b5051919050565b634e487b7160e01b600052603260045260246000fd5b634e487b7160e01b600052601160045260246000fd5b600081600019048311821515161562000978576200097862000945565b500290565b6000821982111562000993576200099362000945565b500190565b600082620009b657634e487b7160e01b600052601260045260246000fd5b500490565b600082821015620009d057620009d062000945565b500390565b6000600019821415620009ec57620009ec62000945565b5060010190565b600181811c9082168062000a0857607f821691505b6020821081141562000a2a57634e487b7160e01b600052602260045260246000fd5b50919050565b6110c98062000a406000396000f3fe6080604052600436106100cb5760003560e01c8063938e3d7b11610074578063d79779b21161004e578063d79779b2146102cf578063e33b7de314610305578063e8a3d4851461031a57600080fd5b8063938e3d7b146102435780639852595c14610263578063ce7c2ac21461029957600080fd5b806348b75044116100a557806348b75044146101ac578063572b6c05146101cc5780638b83209b1461020b57600080fd5b806319165587146101205780633a98ef3914610142578063406072a91461016657600080fd5b3661011b577f6ef95f06320e7a25a04a175ca677b7052bdd97131872c2192525a629f51be7706100f961033c565b604080516001600160a01b0390921682523460208301520160405180910390a1005b600080fd5b34801561012c57600080fd5b5061014061013b366004610e4a565b61034b565b005b34801561014e57600080fd5b506000545b6040519081526020015b60405180910390f35b34801561017257600080fd5b50610153610181366004610e67565b6001600160a01b03918216600090815260066020908152604080832093909416825291909152205490565b3480156101b857600080fd5b506101406101c7366004610e67565b610501565b3480156101d857600080fd5b506101fb6101e7366004610e4a565b6007546001600160a01b0391821691161490565b604051901515815260200161015d565b34801561021757600080fd5b5061022b610226366004610ea0565b61076c565b6040516001600160a01b03909116815260200161015d565b34801561024f57600080fd5b5061014061025e366004610eb9565b61079c565b34801561026f57600080fd5b5061015361027e366004610e4a565b6001600160a01b031660009081526003602052604090205490565b3480156102a557600080fd5b506101536102b4366004610e4a565b6001600160a01b031660009081526002602052604090205490565b3480156102db57600080fd5b506101536102ea366004610e4a565b6001600160a01b031660009081526005602052604090205490565b34801561031157600080fd5b50600154610153565b34801561032657600080fd5b5061032f610941565b60405161015d9190610f5b565b60006103466109d3565b905090565b6001600160a01b0381166000908152600260205260409020546103c45760405162461bcd60e51b815260206004820152602660248201527f5061796d656e7453706c69747465723a206163636f756e7420686173206e6f2060448201526573686172657360d01b60648201526084015b60405180910390fd5b60006103cf60015490565b6103d99047610fa4565b905060006104068383610401866001600160a01b031660009081526003602052604090205490565b6109fb565b9050806104695760405162461bcd60e51b815260206004820152602b60248201527f5061796d656e7453706c69747465723a206163636f756e74206973206e6f742060448201526a191d59481c185e5b595b9d60aa1b60648201526084016103bb565b6001600160a01b03831660009081526003602052604081208054839290610491908490610fa4565b9250508190555080600160008282546104aa9190610fa4565b909155506104ba90508382610a40565b604080516001600160a01b0385168152602081018390527fdf20fd1e76bc69d672e4814fafb2c449bba3a5369d8359adf9e05e6fde87b056910160405180910390a1505050565b6001600160a01b0381166000908152600260205260409020546105755760405162461bcd60e51b815260206004820152602660248201527f5061796d656e7453706c69747465723a206163636f756e7420686173206e6f2060448201526573686172657360d01b60648201526084016103bb565b6001600160a01b0382166000908152600560205260408120546040516370a0823160e01b81523060048201526001600160a01b038516906370a082319060240160206040518083038186803b1580156105cd57600080fd5b505afa1580156105e1573d6000803e3d6000fd5b505050506040513d601f19601f820116820180604052508101906106059190610fbc565b61060f9190610fa4565b90506000610648838361040187876001600160a01b03918216600090815260066020908152604080832093909416825291909152205490565b9050806106ab5760405162461bcd60e51b815260206004820152602b60248201527f5061796d656e7453706c69747465723a206163636f756e74206973206e6f742060448201526a191d59481c185e5b595b9d60aa1b60648201526084016103bb565b6001600160a01b038085166000908152600660209081526040808320938716835292905290812080548392906106e2908490610fa4565b90915550506001600160a01b0384166000908152600560205260408120805483929061070f908490610fa4565b909155506107209050848483610b59565b604080516001600160a01b038581168252602082018490528616917f3be5b7a71e84ed12875d241991c70855ac5817d847039e17a9d895c1ceb0f18a910160405180910390a250505050565b60006004828154811061078157610781610fd5565b6000918252602090912001546001600160a01b031692915050565b6008546040805163a217fddf60e01b815290516001600160a01b03909216916391d1485491839163a217fddf91600480820192602092909190829003018186803b1580156107e957600080fd5b505afa1580156107fd573d6000803e3d6000fd5b505050506040513d601f19601f820116820180604052508101906108219190610fbc565b61082961033c565b6040517fffffffff0000000000000000000000000000000000000000000000000000000060e085901b16815260048101929092526001600160a01b0316602482015260440160206040518083038186803b15801561088657600080fd5b505afa15801561089a573d6000803e3d6000fd5b505050506040513d601f19601f820116820180604052508101906108be9190610feb565b6109305760405162461bcd60e51b815260206004820152603660248201527f526f79616c74793a206f6e6c7920612070726f746f636f6c2061646d696e206360448201527f616e2063616c6c20746869732066756e6374696f6e2e0000000000000000000060648201526084016103bb565b61093c60098383610d99565b505050565b6060600980546109509061100d565b80601f016020809104026020016040519081016040528092919081815260200182805461097c9061100d565b80156109c95780601f1061099e576101008083540402835291602001916109c9565b820191906000526020600020905b8154815290600101906020018083116109ac57829003601f168201915b5050505050905090565b6007546000906001600160a01b03163314156109f6575060131936013560601c90565b503390565b600080546001600160a01b038516825260026020526040822054839190610a229086611048565b610a2c9190611067565b610a369190611089565b90505b9392505050565b80471015610a905760405162461bcd60e51b815260206004820152601d60248201527f416464726573733a20696e73756666696369656e742062616c616e636500000060448201526064016103bb565b6000826001600160a01b03168260405160006040518083038185875af1925050503d8060008114610add576040519150601f19603f3d011682016040523d82523d6000602084013e610ae2565b606091505b505090508061093c5760405162461bcd60e51b815260206004820152603a60248201527f416464726573733a20756e61626c6520746f2073656e642076616c75652c207260448201527f6563697069656e74206d6179206861766520726576657274656400000000000060648201526084016103bb565b604080516001600160a01b03848116602483015260448083018590528351808403909101815260649092018352602080830180517bffffffffffffffffffffffffffffffffffffffffffffffffffffffff1663a9059cbb60e01b17905283518085019094528084527f5361666545524332303a206c6f772d6c6576656c2063616c6c206661696c65649084015261093c92869291600091610bfe918516908490610c8e565b80519091501561093c5780806020019051810190610c1c9190610feb565b61093c5760405162461bcd60e51b815260206004820152602a60248201527f5361666545524332303a204552433230206f7065726174696f6e20646964206e60448201527f6f7420737563636565640000000000000000000000000000000000000000000060648201526084016103bb565b6060610a36848460008585843b610ce75760405162461bcd60e51b815260206004820152601d60248201527f416464726573733a2063616c6c20746f206e6f6e2d636f6e747261637400000060448201526064016103bb565b600080866001600160a01b03168587604051610d0391906110a0565b60006040518083038185875af1925050503d8060008114610d40576040519150601f19603f3d011682016040523d82523d6000602084013e610d45565b606091505b5091509150610d55828286610d60565b979650505050505050565b60608315610d6f575081610a39565b825115610d7f5782518084602001fd5b8160405162461bcd60e51b81526004016103bb9190610f5b565b828054610da59061100d565b90600052602060002090601f016020900481019282610dc75760008555610e0d565b82601f10610de05782800160ff19823516178555610e0d565b82800160010185558215610e0d579182015b82811115610e0d578235825591602001919060010190610df2565b50610e19929150610e1d565b5090565b5b80821115610e195760008155600101610e1e565b6001600160a01b0381168114610e4757600080fd5b50565b600060208284031215610e5c57600080fd5b8135610a3981610e32565b60008060408385031215610e7a57600080fd5b8235610e8581610e32565b91506020830135610e9581610e32565b809150509250929050565b600060208284031215610eb257600080fd5b5035919050565b60008060208385031215610ecc57600080fd5b823567ffffffffffffffff80821115610ee457600080fd5b818501915085601f830112610ef857600080fd5b813581811115610f0757600080fd5b866020828501011115610f1957600080fd5b60209290920196919550909350505050565b60005b83811015610f46578181015183820152602001610f2e565b83811115610f55576000848401525b50505050565b6020815260008251806020840152610f7a816040850160208701610f2b565b601f01601f19169190910160400192915050565b634e487b7160e01b600052601160045260246000fd5b60008219821115610fb757610fb7610f8e565b500190565b600060208284031215610fce57600080fd5b5051919050565b634e487b7160e01b600052603260045260246000fd5b600060208284031215610ffd57600080fd5b81518015158114610a3957600080fd5b600181811c9082168061102157607f821691505b6020821081141561104257634e487b7160e01b600052602260045260246000fd5b50919050565b600081600019048311821515161561106257611062610f8e565b500290565b60008261108457634e487b7160e01b600052601260045260246000fd5b500490565b60008282101561109b5761109b610f8e565b500390565b600082516110b2818460208701610f2b565b919091019291505056fea164736f6c6343000809000a",
  "linkReferences": {},
  "deployedLinkReferences": {}
}