{
  "_format": "hh-sol-artifact-1",
  "contractName": "MockERC1155Royalty",
  "sourceName": "contracts/test-helpers/MockERC1155Royalty.sol",
  "abi": [
    {
      "inputs": [
        {
          "internalType": "address payable",
          "name": "_controlCenter",
          "type": "address"
        }
      ],
      "stateMutability": "nonpayable",
      "type": "constructor"
    },
    {
      "anonymous": false,
      "inputs": [
        {
          "indexed": true,
          "internalType": "address",
          "name": "account",
          "type": "address"
        },
        {
          "indexed": true,
          "internalType": "address",
          "name": "operator",
          "type": "address"
        },
        {
          "indexed": false,
          "internalType": "bool",
          "name": "approved",
          "type": "bool"
        }
      ],
      "name": "ApprovalForAll",
      "type": "event"
    },
    {
      "anonymous": false,
      "inputs": [
        {
          "indexed": false,
          "internalType": "address",
          "name": "account",
          "type": "address"
        }
      ],
      "name": "Paused",
      "type": "event"
    },
    {
      "anonymous": false,
      "inputs": [
        {
          "indexed": true,
          "internalType": "bytes32",
          "name": "role",
          "type": "bytes32"
        },
        {
          "indexed": true,
          "internalType": "bytes32",
          "name": "previousAdminRole",
          "type": "bytes32"
        },
        {
          "indexed": true,
          "internalType": "bytes32",
          "name": "newAdminRole",
          "type": "bytes32"
        }
      ],
      "name": "RoleAdminChanged",
      "type": "event"
    },
    {
      "anonymous": false,
      "inputs": [
        {
          "indexed": true,
          "internalType": "bytes32",
          "name": "role",
          "type": "bytes32"
        },
        {
          "indexed": true,
          "internalType": "address",
          "name": "account",
          "type": "address"
        },
        {
          "indexed": true,
          "internalType": "address",
          "name": "sender",
          "type": "address"
        }
      ],
      "name": "RoleGranted",
      "type": "event"
    },
    {
      "anonymous": false,
      "inputs": [
        {
          "indexed": true,
          "internalType": "bytes32",
          "name": "role",
          "type": "bytes32"
        },
        {
          "indexed": true,
          "internalType": "address",
          "name": "account",
          "type": "address"
        },
        {
          "indexed": true,
          "internalType": "address",
          "name": "sender",
          "type": "address"
        }
      ],
      "name": "RoleRevoked",
      "type": "event"
    },
    {
      "anonymous": false,
      "inputs": [
        {
          "indexed": false,
          "internalType": "uint256",
          "name": "royaltyBps",
          "type": "uint256"
        }
      ],
      "name": "RoyaltyUpdated",
      "type": "event"
    },
    {
      "anonymous": false,
      "inputs": [
        {
          "indexed": true,
          "internalType": "address",
          "name": "operator",
          "type": "address"
        },
        {
          "indexed": true,
          "internalType": "address",
          "name": "from",
          "type": "address"
        },
        {
          "indexed": true,
          "internalType": "address",
          "name": "to",
          "type": "address"
        },
        {
          "indexed": false,
          "internalType": "uint256[]",
          "name": "ids",
          "type": "uint256[]"
        },
        {
          "indexed": false,
          "internalType": "uint256[]",
          "name": "values",
          "type": "uint256[]"
        }
      ],
      "name": "TransferBatch",
      "type": "event"
    },
    {
      "anonymous": false,
      "inputs": [
        {
          "indexed": true,
          "internalType": "address",
          "name": "operator",
          "type": "address"
        },
        {
          "indexed": true,
          "internalType": "address",
          "name": "from",
          "type": "address"
        },
        {
          "indexed": true,
          "internalType": "address",
          "name": "to",
          "type": "address"
        },
        {
          "indexed": false,
          "internalType": "uint256",
          "name": "id",
          "type": "uint256"
        },
        {
          "indexed": false,
          "internalType": "uint256",
          "name": "value",
          "type": "uint256"
        }
      ],
      "name": "TransferSingle",
      "type": "event"
    },
    {
      "anonymous": false,
      "inputs": [
        {
          "indexed": false,
          "internalType": "string",
          "name": "value",
          "type": "string"
        },
        {
          "indexed": true,
          "internalType": "uint256",
          "name": "id",
          "type": "uint256"
        }
      ],
      "name": "URI",
      "type": "event"
    },
    {
      "anonymous": false,
      "inputs": [
        {
          "indexed": false,
          "internalType": "address",
          "name": "account",
          "type": "address"
        }
      ],
      "name": "Unpaused",
      "type": "event"
    },
    {
      "inputs": [],
      "name": "DEFAULT_ADMIN_ROLE",
      "outputs": [
        {
          "internalType": "bytes32",
          "name": "",
          "type": "bytes32"
        }
      ],
      "stateMutability": "view",
      "type": "function"
    },
    {
      "inputs": [],
      "name": "MINTER_ROLE",
      "outputs": [
        {
          "internalType": "bytes32",
          "name": "",
          "type": "bytes32"
        }
      ],
      "stateMutability": "view",
      "type": "function"
    },
    {
      "inputs": [],
      "name": "PAUSER_ROLE",
      "outputs": [
        {
          "internalType": "bytes32",
          "name": "",
          "type": "bytes32"
        }
      ],
      "stateMutability": "view",
      "type": "function"
    },
    {
      "inputs": [
        {
          "internalType": "address",
          "name": "account",
          "type": "address"
        },
        {
          "internalType": "uint256",
          "name": "id",
          "type": "uint256"
        }
      ],
      "name": "balanceOf",
      "outputs": [
        {
          "internalType": "uint256",
          "name": "",
          "type": "uint256"
        }
      ],
      "stateMutability": "view",
      "type": "function"
    },
    {
      "inputs": [
        {
          "internalType": "address[]",
          "name": "accounts",
          "type": "address[]"
        },
        {
          "internalType": "uint256[]",
          "name": "ids",
          "type": "uint256[]"
        }
      ],
      "name": "balanceOfBatch",
      "outputs": [
        {
          "internalType": "uint256[]",
          "name": "",
          "type": "uint256[]"
        }
      ],
      "stateMutability": "view",
      "type": "function"
    },
    {
      "inputs": [
        {
          "internalType": "address",
          "name": "account",
          "type": "address"
        },
        {
          "internalType": "uint256",
          "name": "id",
          "type": "uint256"
        },
        {
          "internalType": "uint256",
          "name": "value",
          "type": "uint256"
        }
      ],
      "name": "burn",
      "outputs": [],
      "stateMutability": "nonpayable",
      "type": "function"
    },
    {
      "inputs": [
        {
          "internalType": "address",
          "name": "account",
          "type": "address"
        },
        {
          "internalType": "uint256[]",
          "name": "ids",
          "type": "uint256[]"
        },
        {
          "internalType": "uint256[]",
          "name": "values",
          "type": "uint256[]"
        }
      ],
      "name": "burnBatch",
      "outputs": [],
      "stateMutability": "nonpayable",
      "type": "function"
    },
    {
      "inputs": [
        {
          "internalType": "bytes32",
          "name": "role",
          "type": "bytes32"
        }
      ],
      "name": "getRoleAdmin",
      "outputs": [
        {
          "internalType": "bytes32",
          "name": "",
          "type": "bytes32"
        }
      ],
      "stateMutability": "view",
      "type": "function"
    },
    {
      "inputs": [
        {
          "internalType": "bytes32",
          "name": "role",
          "type": "bytes32"
        },
        {
          "internalType": "uint256",
          "name": "index",
          "type": "uint256"
        }
      ],
      "name": "getRoleMember",
      "outputs": [
        {
          "internalType": "address",
          "name": "",
          "type": "address"
        }
      ],
      "stateMutability": "view",
      "type": "function"
    },
    {
      "inputs": [
        {
          "internalType": "bytes32",
          "name": "role",
          "type": "bytes32"
        }
      ],
      "name": "getRoleMemberCount",
      "outputs": [
        {
          "internalType": "uint256",
          "name": "",
          "type": "uint256"
        }
      ],
      "stateMutability": "view",
      "type": "function"
    },
    {
      "inputs": [
        {
          "internalType": "bytes32",
          "name": "role",
          "type": "bytes32"
        },
        {
          "internalType": "address",
          "name": "account",
          "type": "address"
        }
      ],
      "name": "grantRole",
      "outputs": [],
      "stateMutability": "nonpayable",
      "type": "function"
    },
    {
      "inputs": [
        {
          "internalType": "bytes32",
          "name": "role",
          "type": "bytes32"
        },
        {
          "internalType": "address",
          "name": "account",
          "type": "address"
        }
      ],
      "name": "hasRole",
      "outputs": [
        {
          "internalType": "bool",
          "name": "",
          "type": "bool"
        }
      ],
      "stateMutability": "view",
      "type": "function"
    },
    {
      "inputs": [
        {
          "internalType": "address",
          "name": "account",
          "type": "address"
        },
        {
          "internalType": "address",
          "name": "operator",
          "type": "address"
        }
      ],
      "name": "isApprovedForAll",
      "outputs": [
        {
          "internalType": "bool",
          "name": "",
          "type": "bool"
        }
      ],
      "stateMutability": "view",
      "type": "function"
    },
    {
      "inputs": [
        {
          "internalType": "address",
          "name": "to",
          "type": "address"
        },
        {
          "internalType": "uint256",
          "name": "id",
          "type": "uint256"
        },
        {
          "internalType": "uint256",
          "name": "amount",
          "type": "uint256"
        },
        {
          "internalType": "bytes",
          "name": "data",
          "type": "bytes"
        }
      ],
      "name": "mint",
      "outputs": [],
      "stateMutability": "nonpayable",
      "type": "function"
    },
    {
      "inputs": [
        {
          "internalType": "address",
          "name": "to",
          "type": "address"
        },
        {
          "internalType": "uint256[]",
          "name": "ids",
          "type": "uint256[]"
        },
        {
          "internalType": "uint256[]",
          "name": "amounts",
          "type": "uint256[]"
        },
        {
          "internalType": "bytes",
          "name": "data",
          "type": "bytes"
        }
      ],
      "name": "mintBatch",
      "outputs": [],
      "stateMutability": "nonpayable",
      "type": "function"
    },
    {
      "inputs": [],
      "name": "pause",
      "outputs": [],
      "stateMutability": "nonpayable",
      "type": "function"
    },
    {
      "inputs": [],
      "name": "paused",
      "outputs": [
        {
          "internalType": "bool",
          "name": "",
          "type": "bool"
        }
      ],
      "stateMutability": "view",
      "type": "function"
    },
    {
      "inputs": [
        {
          "internalType": "bytes32",
          "name": "role",
          "type": "bytes32"
        },
        {
          "internalType": "address",
          "name": "account",
          "type": "address"
        }
      ],
      "name": "renounceRole",
      "outputs": [],
      "stateMutability": "nonpayable",
      "type": "function"
    },
    {
      "inputs": [
        {
          "internalType": "bytes32",
          "name": "role",
          "type": "bytes32"
        },
        {
          "internalType": "address",
          "name": "account",
          "type": "address"
        }
      ],
      "name": "revokeRole",
      "outputs": [],
      "stateMutability": "nonpayable",
      "type": "function"
    },
    {
      "inputs": [],
      "name": "royaltyBps",
      "outputs": [
        {
          "internalType": "uint256",
          "name": "",
          "type": "uint256"
        }
      ],
      "stateMutability": "view",
      "type": "function"
    },
    {
      "inputs": [
        {
          "internalType": "uint256",
          "name": "",
          "type": "uint256"
        },
        {
          "internalType": "uint256",
          "name": "salePrice",
          "type": "uint256"
        }
      ],
      "name": "royaltyInfo",
      "outputs": [
        {
          "internalType": "address",
          "name": "receiver",
          "type": "address"
        },
        {
          "internalType": "uint256",
          "name": "royaltyAmount",
          "type": "uint256"
        }
      ],
      "stateMutability": "view",
      "type": "function"
    },
    {
      "inputs": [
        {
          "internalType": "address",
          "name": "from",
          "type": "address"
        },
        {
          "internalType": "address",
          "name": "to",
          "type": "address"
        },
        {
          "internalType": "uint256[]",
          "name": "ids",
          "type": "uint256[]"
        },
        {
          "internalType": "uint256[]",
          "name": "amounts",
          "type": "uint256[]"
        },
        {
          "internalType": "bytes",
          "name": "data",
          "type": "bytes"
        }
      ],
      "name": "safeBatchTransferFrom",
      "outputs": [],
      "stateMutability": "nonpayable",
      "type": "function"
    },
    {
      "inputs": [
        {
          "internalType": "address",
          "name": "from",
          "type": "address"
        },
        {
          "internalType": "address",
          "name": "to",
          "type": "address"
        },
        {
          "internalType": "uint256",
          "name": "id",
          "type": "uint256"
        },
        {
          "internalType": "uint256",
          "name": "amount",
          "type": "uint256"
        },
        {
          "internalType": "bytes",
          "name": "data",
          "type": "bytes"
        }
      ],
      "name": "safeTransferFrom",
      "outputs": [],
      "stateMutability": "nonpayable",
      "type": "function"
    },
    {
      "inputs": [
        {
          "internalType": "address",
          "name": "operator",
          "type": "address"
        },
        {
          "internalType": "bool",
          "name": "approved",
          "type": "bool"
        }
      ],
      "name": "setApprovalForAll",
      "outputs": [],
      "stateMutability": "nonpayable",
      "type": "function"
    },
    {
      "inputs": [
        {
          "internalType": "uint256",
          "name": "_royaltyBps",
          "type": "uint256"
        }
      ],
      "name": "setRoyaltyBps",
      "outputs": [],
      "stateMutability": "nonpayable",
      "type": "function"
    },
    {
      "inputs": [
        {
          "internalType": "bytes4",
          "name": "interfaceId",
          "type": "bytes4"
        }
      ],
      "name": "supportsInterface",
      "outputs": [
        {
          "internalType": "bool",
          "name": "",
          "type": "bool"
        }
      ],
      "stateMutability": "view",
      "type": "function"
    },
    {
      "inputs": [],
      "name": "unpause",
      "outputs": [],
      "stateMutability": "nonpayable",
      "type": "function"
    },
    {
      "inputs": [
        {
          "internalType": "uint256",
          "name": "",
          "type": "uint256"
        }
      ],
      "name": "uri",
      "outputs": [
        {
          "internalType": "string",
          "name": "",
          "type": "string"
        }
      ],
      "stateMutability": "view",
      "type": "function"
    }
  ],
  "bytecode": "0x60806040523480156200001157600080fd5b506040516200349b3803806200349b833981016040819052620000349162000322565b60408051808201909152600e81526d697066733a2f2f4261736555524960901b602082015280620000658162000102565b506005805460ff191690556200007d6000336200011b565b620000a97f9f2df0fed2c77648de5860a4cc508cd0818c85b8b8a1ab4ceeef8d981c8956a6336200011b565b620000d57f65d7a28e3265b37a6474929f336521b332c1681b933f6cb9f3376673440d862a336200011b565b50600580546001600160a01b0390921661010002610100600160a81b03199092169190911790556200038f565b8051620001179060049060208401906200027c565b5050565b6200013282826200015e60201b620010341760201c565b600082815260016020908152604090912062000159918390620010426200016a821b17901c565b505050565b6200011782826200018a565b600062000181836001600160a01b0384166200022a565b90505b92915050565b6000828152602081815260408083206001600160a01b038516845290915290205460ff1662000117576000828152602081815260408083206001600160a01b03851684529091529020805460ff19166001179055620001e63390565b6001600160a01b0316816001600160a01b0316837f2f8788117e7eff1d82e926ec794901d17c78024a50270940304540a733656f0d60405160405180910390a45050565b6000818152600183016020526040812054620002735750815460018181018455600084815260208082209093018490558454848252828601909352604090209190915562000184565b50600062000184565b8280546200028a9062000352565b90600052602060002090601f016020900481019282620002ae5760008555620002f9565b82601f10620002c957805160ff1916838001178555620002f9565b82800160010185558215620002f9579182015b82811115620002f9578251825591602001919060010190620002dc565b50620003079291506200030b565b5090565b5b808211156200030757600081556001016200030c565b60006020828403121562000334578081fd5b81516001600160a01b03811681146200034b578182fd5b9392505050565b600181811c908216806200036757607f821691505b602082108114156200038957634e487b7160e01b600052602260045260246000fd5b50919050565b6130fc806200039f6000396000f3fe608060405234801561001057600080fd5b50600436106101c35760003560e01c8063731133e9116100f9578063ca15c87311610097578063e63ab1e911610071578063e63ab1e91461041b578063e985e9c514610442578063f242432a1461047e578063f5298aca1461049157600080fd5b8063ca15c873146103ce578063d5391393146103e1578063d547741f1461040857600080fd5b806391d14854116100d357806391d1485414610373578063a217fddf146103aa578063a22cb465146103b2578063c63adb2b146103c557600080fd5b8063731133e91461032d5780638456cb59146103405780639010d07c1461034857600080fd5b80632eb2c2d6116101665780633f4ba83a116101405780633f4ba83a146102e75780634e1273f4146102ef5780635c975abb1461030f5780636b20c4541461031a57600080fd5b80632eb2c2d6146102ae5780632f2ff15d146102c157806336568abe146102d457600080fd5b80631f72d831116101a25780631f72d831146102315780631f7fdffa14610246578063248a9ca3146102595780632a55205a1461027c57600080fd5b8062fdd58e146101c857806301ffc9a7146101ee5780630e89341c14610211575b600080fd5b6101db6101d6366004612a79565b6104a4565b6040519081526020015b60405180910390f35b6102016101fc366004612c57565b610552565b60405190151581526020016101e5565b61022461021f366004612bfa565b61055d565b6040516101e59190612e88565b61024461023f366004612bfa565b6105f1565b005b6102446102543660046129b1565b610738565b6101db610267366004612bfa565b60009081526020819052604090206001015490565b61028f61028a366004612c36565b6107e6565b604080516001600160a01b0390931683526020830191909152016101e5565b6102446102bc36600461282d565b610925565b6102446102cf366004612c12565b6109c7565b6102446102e2366004612c12565b6109ee565b610244610a10565b6103026102fd366004612b2d565b610ab6565b6040516101e59190612e47565b60055460ff16610201565b61024461032836600461293e565b610c2c565b61024461033b366004612ad8565b610cb1565b610244610d59565b61035b610356366004612c36565b610dfd565b6040516001600160a01b0390911681526020016101e5565b610201610381366004612c12565b6000918252602082815260408084206001600160a01b0393909316845291905290205460ff1690565b6101db600081565b6102446103c0366004612a48565b610e1c565b6101db60065481565b6101db6103dc366004612bfa565b610f07565b6101db7f9f2df0fed2c77648de5860a4cc508cd0818c85b8b8a1ab4ceeef8d981c8956a681565b610244610416366004612c12565b610f1e565b6101db7f65d7a28e3265b37a6474929f336521b332c1681b933f6cb9f3376673440d862a81565b6102016104503660046127f5565b6001600160a01b03918216600090815260036020908152604080832093909416825291909152205460ff1690565b61024461048c3660046128d7565b610f28565b61024461049f366004612aa4565b610faf565b60006001600160a01b0383166105275760405162461bcd60e51b815260206004820152602b60248201527f455243313135353a2062616c616e636520717565727920666f7220746865207a60448201527f65726f206164647265737300000000000000000000000000000000000000000060648201526084015b60405180910390fd5b5060008181526002602090815260408083206001600160a01b03861684529091529020545b92915050565b600061054c82611057565b60606004805461056c90612f70565b80601f016020809104026020016040519081016040528092919081815260200182805461059890612f70565b80156105e55780601f106105ba576101008083540402835291602001916105e5565b820191906000526020600020905b8154815290600101906020018083116105c857829003601f168201915b50505050509050919050565b600560019054906101000a90046001600160a01b03166001600160a01b031663fd967f476040518163ffffffff1660e01b815260040160206040518083038186803b15801561063f57600080fd5b505afa158015610653573d6000803e3d6000fd5b505050506040513d601f19601f820116820180604052508101906106779190612c8f565b6fffffffffffffffffffffffffffffffff1681106106fd5760405162461bcd60e51b815260206004820152602a60248201527f4e46543a204270732070726f7669646564206d757374206265206c657373207460448201527f68616e2031302c30303000000000000000000000000000000000000000000000606482015260840161051e565b60068190556040518181527f244ea8d7627f5a08f4299862bd5a45752842c183aee5b0fb0d1e4887bfa605b39060200160405180910390a150565b6107627f9f2df0fed2c77648de5860a4cc508cd0818c85b8b8a1ab4ceeef8d981c8956a633610381565b6107d45760405162461bcd60e51b815260206004820152603860248201527f455243313135355072657365744d696e7465725061757365723a206d7573742060448201527f68617665206d696e74657220726f6c6520746f206d696e740000000000000000606482015260840161051e565b6107e084848484611097565b50505050565b60055460405163f2aab4b360e01b815230600482015260009182916101009091046001600160a01b03169063f2aab4b39060240160206040518083038186803b15801561083257600080fd5b505afa158015610846573d6000803e3d6000fd5b505050506040513d601f19601f8201168201806040525081019061086a91906127d9565b9150600560019054906101000a90046001600160a01b03166001600160a01b031663fd967f476040518163ffffffff1660e01b815260040160206040518083038186803b1580156108ba57600080fd5b505afa1580156108ce573d6000803e3d6000fd5b505050506040513d601f19601f820116820180604052508101906108f29190612c8f565b6fffffffffffffffffffffffffffffffff16600654846109129190612ef7565b61091c9190612ed7565b90509250929050565b6001600160a01b03851633148061094157506109418533610450565b6109b35760405162461bcd60e51b815260206004820152603260248201527f455243313135353a207472616e736665722063616c6c6572206973206e6f742060448201527f6f776e6572206e6f7220617070726f7665640000000000000000000000000000606482015260840161051e565b6109c08585858585611289565b5050505050565b6109d18282611514565b60008281526001602052604090206109e99082611042565b505050565b6109f8828261153a565b60008281526001602052604090206109e990826115c2565b610a3a7f65d7a28e3265b37a6474929f336521b332c1681b933f6cb9f3376673440d862a33610381565b610aac5760405162461bcd60e51b815260206004820152603b60248201527f455243313135355072657365744d696e7465725061757365723a206d7573742060448201527f686176652070617573657220726f6c6520746f20756e70617573650000000000606482015260840161051e565b610ab46115d7565b565b60608151835114610b2f5760405162461bcd60e51b815260206004820152602960248201527f455243313135353a206163636f756e747320616e6420696473206c656e67746860448201527f206d69736d617463680000000000000000000000000000000000000000000000606482015260840161051e565b6000835167ffffffffffffffff811115610b5957634e487b7160e01b600052604160045260246000fd5b604051908082528060200260200182016040528015610b82578160200160208202803683370190505b50905060005b8451811015610c2457610be9858281518110610bb457634e487b7160e01b600052603260045260246000fd5b6020026020010151858381518110610bdc57634e487b7160e01b600052603260045260246000fd5b60200260200101516104a4565b828281518110610c0957634e487b7160e01b600052603260045260246000fd5b6020908102919091010152610c1d81612fd8565b9050610b88565b509392505050565b6001600160a01b038316331480610c485750610c488333610450565b610ca65760405162461bcd60e51b815260206004820152602960248201527f455243313135353a2063616c6c6572206973206e6f74206f776e6572206e6f7260448201526808185c1c1c9bdd995960ba1b606482015260840161051e565b6109e9838383611673565b610cdb7f9f2df0fed2c77648de5860a4cc508cd0818c85b8b8a1ab4ceeef8d981c8956a633610381565b610d4d5760405162461bcd60e51b815260206004820152603860248201527f455243313135355072657365744d696e7465725061757365723a206d7573742060448201527f68617665206d696e74657220726f6c6520746f206d696e740000000000000000606482015260840161051e565b6107e0848484846118d9565b610d837f65d7a28e3265b37a6474929f336521b332c1681b933f6cb9f3376673440d862a33610381565b610df55760405162461bcd60e51b815260206004820152603960248201527f455243313135355072657365744d696e7465725061757365723a206d7573742060448201527f686176652070617573657220726f6c6520746f20706175736500000000000000606482015260840161051e565b610ab46119eb565b6000828152600160205260408120610e159083611a73565b9392505050565b336001600160a01b0383161415610e9b5760405162461bcd60e51b815260206004820152602960248201527f455243313135353a2073657474696e6720617070726f76616c2073746174757360448201527f20666f722073656c660000000000000000000000000000000000000000000000606482015260840161051e565b3360008181526003602090815260408083206001600160a01b03871680855290835292819020805460ff191686151590811790915590519081529192917f17307eab39ab6107e8899845ad3d59bd9653f200f220920489ca2b5937696c31910160405180910390a35050565b600081815260016020526040812061054c90611a7f565b6109f88282611a89565b6001600160a01b038516331480610f445750610f448533610450565b610fa25760405162461bcd60e51b815260206004820152602960248201527f455243313135353a2063616c6c6572206973206e6f74206f776e6572206e6f7260448201526808185c1c1c9bdd995960ba1b606482015260840161051e565b6109c08585858585611aaf565b6001600160a01b038316331480610fcb5750610fcb8333610450565b6110295760405162461bcd60e51b815260206004820152602960248201527f455243313135353a2063616c6c6572206973206e6f74206f776e6572206e6f7260448201526808185c1c1c9bdd995960ba1b606482015260840161051e565b6109e9838383611c51565b61103e8282611dce565b5050565b6000610e15836001600160a01b038416611e6c565b60006001600160e01b03198216636cdb3d1360e11b148061108857506001600160e01b031982166303a24d0760e21b145b8061054c575061054c82611ebb565b6001600160a01b0384166110f75760405162461bcd60e51b815260206004820152602160248201527f455243313135353a206d696e7420746f20746865207a65726f206164647265736044820152607360f81b606482015260840161051e565b81518351146111595760405162461bcd60e51b815260206004820152602860248201527f455243313135353a2069647320616e6420616d6f756e7473206c656e677468206044820152670dad2e6dac2e8c6d60c31b606482015260840161051e565b3361116981600087878787611ee0565b60005b84518110156112215783818151811061119557634e487b7160e01b600052603260045260246000fd5b6020026020010151600260008784815181106111c157634e487b7160e01b600052603260045260246000fd5b602002602001015181526020019081526020016000206000886001600160a01b03166001600160a01b0316815260200190815260200160002060008282546112099190612ebf565b9091555081905061121981612fd8565b91505061116c565b50846001600160a01b031660006001600160a01b0316826001600160a01b03167f4a39dc06d4c0dbc64b70af90fd698a233a518aa5d07e595d983b8c0526c8f7fb8787604051611272929190612e5a565b60405180910390a46109c081600087878787611eee565b81518351146112eb5760405162461bcd60e51b815260206004820152602860248201527f455243313135353a2069647320616e6420616d6f756e7473206c656e677468206044820152670dad2e6dac2e8c6d60c31b606482015260840161051e565b6001600160a01b03841661134f5760405162461bcd60e51b815260206004820152602560248201527f455243313135353a207472616e7366657220746f20746865207a65726f206164604482015264647265737360d81b606482015260840161051e565b3361135e818787878787611ee0565b60005b84518110156114a657600085828151811061138c57634e487b7160e01b600052603260045260246000fd5b6020026020010151905060008583815181106113b857634e487b7160e01b600052603260045260246000fd5b60209081029190910181015160008481526002835260408082206001600160a01b038e16835290935291909120549091508181101561144c5760405162461bcd60e51b815260206004820152602a60248201527f455243313135353a20696e73756666696369656e742062616c616e636520666f60448201526939103a3930b739b332b960b11b606482015260840161051e565b60008381526002602090815260408083206001600160a01b038e8116855292528083208585039055908b1682528120805484929061148b908490612ebf565b925050819055505050508061149f90612fd8565b9050611361565b50846001600160a01b0316866001600160a01b0316826001600160a01b03167f4a39dc06d4c0dbc64b70af90fd698a233a518aa5d07e595d983b8c0526c8f7fb87876040516114f6929190612e5a565b60405180910390a461150c818787878787611eee565b505050505050565b60008281526020819052604090206001015461153081336120a3565b6109e98383611dce565b6001600160a01b03811633146115b85760405162461bcd60e51b815260206004820152602f60248201527f416363657373436f6e74726f6c3a2063616e206f6e6c792072656e6f756e636560448201527f20726f6c657320666f722073656c660000000000000000000000000000000000606482015260840161051e565b61103e8282612121565b6000610e15836001600160a01b0384166121a0565b60055460ff166116295760405162461bcd60e51b815260206004820152601460248201527f5061757361626c653a206e6f7420706175736564000000000000000000000000604482015260640161051e565b6005805460ff191690557f5db9ee0a495bf2e6ff9c91a7834c1ba4fdd244a5e8aa4e537bd38aeae4b073aa335b6040516001600160a01b03909116815260200160405180910390a1565b6001600160a01b0383166116d55760405162461bcd60e51b815260206004820152602360248201527f455243313135353a206275726e2066726f6d20746865207a65726f206164647260448201526265737360e81b606482015260840161051e565b80518251146117375760405162461bcd60e51b815260206004820152602860248201527f455243313135353a2069647320616e6420616d6f756e7473206c656e677468206044820152670dad2e6dac2e8c6d60c31b606482015260840161051e565b600033905061175a81856000868660405180602001604052806000815250611ee0565b60005b835181101561187a57600084828151811061178857634e487b7160e01b600052603260045260246000fd5b6020026020010151905060008483815181106117b457634e487b7160e01b600052603260045260246000fd5b60209081029190910181015160008481526002835260408082206001600160a01b038c1683529093529190912054909150818110156118415760405162461bcd60e51b8152602060048201526024808201527f455243313135353a206275726e20616d6f756e7420657863656564732062616c604482015263616e636560e01b606482015260840161051e565b60009283526002602090815260408085206001600160a01b038b168652909152909220910390558061187281612fd8565b91505061175d565b5060006001600160a01b0316846001600160a01b0316826001600160a01b03167f4a39dc06d4c0dbc64b70af90fd698a233a518aa5d07e595d983b8c0526c8f7fb86866040516118cb929190612e5a565b60405180910390a450505050565b6001600160a01b0384166119395760405162461bcd60e51b815260206004820152602160248201527f455243313135353a206d696e7420746f20746865207a65726f206164647265736044820152607360f81b606482015260840161051e565b336119598160008761194a886122bd565b611953886122bd565b87611ee0565b60008481526002602090815260408083206001600160a01b03891684529091528120805485929061198b908490612ebf565b909155505060408051858152602081018590526001600160a01b0380881692600092918516917fc3d58168c5ae7397731d063d5bbf3d657854427343f4c083240f7aacaa2d0f62910160405180910390a46109c081600087878787612316565b60055460ff1615611a3e5760405162461bcd60e51b815260206004820152601060248201527f5061757361626c653a2070617573656400000000000000000000000000000000604482015260640161051e565b6005805460ff191660011790557f62e78cea01bee320cd4e420270b5ea74000d11b0c9f74754ebdbfc544b05a2586116563390565b6000610e158383612421565b600061054c825490565b600082815260208190526040902060010154611aa581336120a3565b6109e98383612121565b6001600160a01b038416611b135760405162461bcd60e51b815260206004820152602560248201527f455243313135353a207472616e7366657220746f20746865207a65726f206164604482015264647265737360d81b606482015260840161051e565b33611b2381878761194a886122bd565b60008481526002602090815260408083206001600160a01b038a16845290915290205483811015611ba95760405162461bcd60e51b815260206004820152602a60248201527f455243313135353a20696e73756666696369656e742062616c616e636520666f60448201526939103a3930b739b332b960b11b606482015260840161051e565b60008581526002602090815260408083206001600160a01b038b8116855292528083208785039055908816825281208054869290611be8908490612ebf565b909155505060408051868152602081018690526001600160a01b03808916928a821692918616917fc3d58168c5ae7397731d063d5bbf3d657854427343f4c083240f7aacaa2d0f62910160405180910390a4611c48828888888888612316565b50505050505050565b6001600160a01b038316611cb35760405162461bcd60e51b815260206004820152602360248201527f455243313135353a206275726e2066726f6d20746865207a65726f206164647260448201526265737360e81b606482015260840161051e565b33611ce281856000611cc4876122bd565b611ccd876122bd565b60405180602001604052806000815250611ee0565b60008381526002602090815260408083206001600160a01b038816845290915290205482811015611d615760405162461bcd60e51b8152602060048201526024808201527f455243313135353a206275726e20616d6f756e7420657863656564732062616c604482015263616e636560e01b606482015260840161051e565b60008481526002602090815260408083206001600160a01b03898116808652918452828520888703905582518981529384018890529092908616917fc3d58168c5ae7397731d063d5bbf3d657854427343f4c083240f7aacaa2d0f62910160405180910390a45050505050565b6000828152602081815260408083206001600160a01b038516845290915290205460ff1661103e576000828152602081815260408083206001600160a01b03851684529091529020805460ff19166001179055611e283390565b6001600160a01b0316816001600160a01b0316837f2f8788117e7eff1d82e926ec794901d17c78024a50270940304540a733656f0d60405160405180910390a45050565b6000818152600183016020526040812054611eb35750815460018181018455600084815260208082209093018490558454848252828601909352604090209190915561054c565b50600061054c565b60006001600160e01b03198216635a05180f60e01b148061054c575061054c82612459565b61150c86868686868661248e565b6001600160a01b0384163b1561150c5760405163bc197c8160e01b81526001600160a01b0385169063bc197c8190611f329089908990889088908890600401612da6565b602060405180830381600087803b158015611f4c57600080fd5b505af1925050508015611f7c575060408051601f3d908101601f19168201909252611f7991810190612c73565b60015b61203257611f8861301f565b806308c379a01415611fc25750611f9d613037565b80611fa85750611fc4565b8060405162461bcd60e51b815260040161051e9190612e88565b505b60405162461bcd60e51b815260206004820152603460248201527f455243313135353a207472616e7366657220746f206e6f6e204552433131353560448201527f526563656976657220696d706c656d656e746572000000000000000000000000606482015260840161051e565b6001600160e01b0319811663bc197c8160e01b14611c485760405162461bcd60e51b815260206004820152602860248201527f455243313135353a204552433131353552656365697665722072656a656374656044820152676420746f6b656e7360c01b606482015260840161051e565b6000828152602081815260408083206001600160a01b038516845290915290205460ff1661103e576120df816001600160a01b03166014612507565b6120ea836020612507565b6040516020016120fb929190612d25565b60408051601f198184030181529082905262461bcd60e51b825261051e91600401612e88565b6000828152602081815260408083206001600160a01b038516845290915290205460ff161561103e576000828152602081815260408083206001600160a01b0385168085529252808320805460ff1916905551339285917ff6391f5c32d9c69d2a47ea670b442974b53935d1edc7fd64eb21e047a839171b9190a45050565b600081815260018301602052604081205480156122b35760006121c4600183612f16565b85549091506000906121d890600190612f16565b905081811461225957600086600001828154811061220657634e487b7160e01b600052603260045260246000fd5b906000526020600020015490508087600001848154811061223757634e487b7160e01b600052603260045260246000fd5b6000918252602080832090910192909255918252600188019052604090208390555b855486908061227857634e487b7160e01b600052603160045260246000fd5b60019003818190600052602060002001600090559055856001016000868152602001908152602001600020600090556001935050505061054c565b600091505061054c565b6040805160018082528183019092526060916000919060208083019080368337019050509050828160008151811061230557634e487b7160e01b600052603260045260246000fd5b602090810291909101015292915050565b6001600160a01b0384163b1561150c5760405163f23a6e6160e01b81526001600160a01b0385169063f23a6e619061235a9089908990889088908890600401612e04565b602060405180830381600087803b15801561237457600080fd5b505af19250505080156123a4575060408051601f3d908101601f191682019092526123a191810190612c73565b60015b6123b057611f8861301f565b6001600160e01b0319811663f23a6e6160e01b14611c485760405162461bcd60e51b815260206004820152602860248201527f455243313135353a204552433131353552656365697665722072656a656374656044820152676420746f6b656e7360c01b606482015260840161051e565b600082600001828154811061244657634e487b7160e01b600052603260045260246000fd5b9060005260206000200154905092915050565b60006001600160e01b03198216637965db0b60e01b148061054c57506301ffc9a760e01b6001600160e01b031983161461054c565b60055460ff161561150c5760405162461bcd60e51b815260206004820152602c60248201527f455243313135355061757361626c653a20746f6b656e207472616e736665722060448201527f7768696c65207061757365640000000000000000000000000000000000000000606482015260840161051e565b60606000612516836002612ef7565b612521906002612ebf565b67ffffffffffffffff81111561254757634e487b7160e01b600052604160045260246000fd5b6040519080825280601f01601f191660200182016040528015612571576020820181803683370190505b509050600360fc1b8160008151811061259a57634e487b7160e01b600052603260045260246000fd5b60200101906001600160f81b031916908160001a905350600f60fb1b816001815181106125d757634e487b7160e01b600052603260045260246000fd5b60200101906001600160f81b031916908160001a90535060006125fb846002612ef7565b612606906001612ebf565b90505b60018111156126a7577f303132333435363738396162636465660000000000000000000000000000000085600f166010811061265557634e487b7160e01b600052603260045260246000fd5b1a60f81b82828151811061267957634e487b7160e01b600052603260045260246000fd5b60200101906001600160f81b031916908160001a90535060049490941c936126a081612f59565b9050612609565b508315610e155760405162461bcd60e51b815260206004820181905260248201527f537472696e67733a20686578206c656e67746820696e73756666696369656e74604482015260640161051e565b600082601f830112612706578081fd5b8135602061271382612e9b565b6040516127208282612fab565b8381528281019150858301600585901b8701840188101561273f578586fd5b855b8581101561275d57813584529284019290840190600101612741565b5090979650505050505050565b600082601f83011261277a578081fd5b813567ffffffffffffffff81111561279457612794613009565b6040516127ab601f8301601f191660200182612fab565b8181528460208386010111156127bf578283fd5b816020850160208301379081016020019190915292915050565b6000602082840312156127ea578081fd5b8151610e15816130c1565b60008060408385031215612807578081fd5b8235612812816130c1565b91506020830135612822816130c1565b809150509250929050565b600080600080600060a08688031215612844578081fd5b853561284f816130c1565b9450602086013561285f816130c1565b9350604086013567ffffffffffffffff8082111561287b578283fd5b61288789838a016126f6565b9450606088013591508082111561289c578283fd5b6128a889838a016126f6565b935060808801359150808211156128bd578283fd5b506128ca8882890161276a565b9150509295509295909350565b600080600080600060a086880312156128ee578081fd5b85356128f9816130c1565b94506020860135612909816130c1565b93506040860135925060608601359150608086013567ffffffffffffffff811115612932578182fd5b6128ca8882890161276a565b600080600060608486031215612952578283fd5b833561295d816130c1565b9250602084013567ffffffffffffffff80821115612979578384fd5b612985878388016126f6565b9350604086013591508082111561299a578283fd5b506129a7868287016126f6565b9150509250925092565b600080600080608085870312156129c6578384fd5b84356129d1816130c1565b9350602085013567ffffffffffffffff808211156129ed578485fd5b6129f9888389016126f6565b94506040870135915080821115612a0e578384fd5b612a1a888389016126f6565b93506060870135915080821115612a2f578283fd5b50612a3c8782880161276a565b91505092959194509250565b60008060408385031215612a5a578182fd5b8235612a65816130c1565b915060208301358015158114612822578182fd5b60008060408385031215612a8b578182fd5b8235612a96816130c1565b946020939093013593505050565b600080600060608486031215612ab8578081fd5b8335612ac3816130c1565b95602085013595506040909401359392505050565b60008060008060808587031215612aed578182fd5b8435612af8816130c1565b93506020850135925060408501359150606085013567ffffffffffffffff811115612b21578182fd5b612a3c8782880161276a565b60008060408385031215612b3f578182fd5b823567ffffffffffffffff80821115612b56578384fd5b818501915085601f830112612b69578384fd5b81356020612b7682612e9b565b604051612b838282612fab565b8381528281019150858301600585901b870184018b1015612ba2578889fd5b8896505b84871015612bcd578035612bb9816130c1565b835260019690960195918301918301612ba6565b5096505086013592505080821115612be3578283fd5b50612bf0858286016126f6565b9150509250929050565b600060208284031215612c0b578081fd5b5035919050565b60008060408385031215612c24578182fd5b823591506020830135612822816130c1565b60008060408385031215612c48578182fd5b50508035926020909101359150565b600060208284031215612c68578081fd5b8135610e15816130d9565b600060208284031215612c84578081fd5b8151610e15816130d9565b600060208284031215612ca0578081fd5b81516fffffffffffffffffffffffffffffffff81168114610e15578182fd5b6000815180845260208085019450808401835b83811015612cee57815187529582019590820190600101612cd2565b509495945050505050565b60008151808452612d11816020860160208601612f2d565b601f01601f19169290920160200192915050565b7f416363657373436f6e74726f6c3a206163636f756e7420000000000000000000815260008351612d5d816017850160208801612f2d565b7f206973206d697373696e6720726f6c65200000000000000000000000000000006017918401918201528351612d9a816028840160208801612f2d565b01602801949350505050565b60006001600160a01b03808816835280871660208401525060a06040830152612dd260a0830186612cbf565b8281036060840152612de48186612cbf565b90508281036080840152612df88185612cf9565b98975050505050505050565b60006001600160a01b03808816835280871660208401525084604083015283606083015260a06080830152612e3c60a0830184612cf9565b979650505050505050565b602081526000610e156020830184612cbf565b604081526000612e6d6040830185612cbf565b8281036020840152612e7f8185612cbf565b95945050505050565b602081526000610e156020830184612cf9565b600067ffffffffffffffff821115612eb557612eb5613009565b5060051b60200190565b60008219821115612ed257612ed2612ff3565b500190565b600082612ef257634e487b7160e01b81526012600452602481fd5b500490565b6000816000190483118215151615612f1157612f11612ff3565b500290565b600082821015612f2857612f28612ff3565b500390565b60005b83811015612f48578181015183820152602001612f30565b838111156107e05750506000910152565b600081612f6857612f68612ff3565b506000190190565b600181811c90821680612f8457607f821691505b60208210811415612fa557634e487b7160e01b600052602260045260246000fd5b50919050565b601f8201601f1916810167ffffffffffffffff81118282101715612fd157612fd1613009565b6040525050565b6000600019821415612fec57612fec612ff3565b5060010190565b634e487b7160e01b600052601160045260246000fd5b634e487b7160e01b600052604160045260246000fd5b600060033d111561303457600481823e5160e01c5b90565b600060443d10156130455790565b6040516003193d81016004833e81513d67ffffffffffffffff816024840111818411171561307557505050505090565b828501915081518181111561308d5750505050505090565b843d87010160208285010111156130a75750505050505090565b6130b660208286010187612fab565b509095945050505050565b6001600160a01b03811681146130d657600080fd5b50565b6001600160e01b0319811681146130d657600080fdfea164736f6c6343000804000a",
  "linkReferences": {},
  "deployedLinkReferences": {}
}