{
  "_format": "hh-sol-artifact-1",
  "contractName": "MockLazyNFTReentrant",
  "sourceName": "contracts/test-helpers/MockLazyNFTReentrant.sol",
  "abi": [
    {
      "inputs": [
        {
          "internalType": "address",
          "name": "_addy",
          "type": "address"
        }
      ],
      "stateMutability": "nonpayable",
      "type": "constructor"
    },
    {
      "inputs": [],
      "name": "attack",
      "outputs": [],
      "stateMutability": "nonpayable",
      "type": "function"
    },
    {
      "inputs": [
        {
          "internalType": "address",
          "name": "",
          "type": "address"
        },
        {
          "internalType": "address",
          "name": "",
          "type": "address"
        },
        {
          "internalType": "uint256",
          "name": "",
          "type": "uint256"
        },
        {
          "internalType": "bytes",
          "name": "",
          "type": "bytes"
        }
      ],
      "name": "onERC721Received",
      "outputs": [
        {
          "internalType": "bytes4",
          "name": "",
          "type": "bytes4"
        }
      ],
      "stateMutability": "nonpayable",
      "type": "function"
    },
    {
      "stateMutability": "payable",
      "type": "receive"
    }
  ],
  "bytecode": "0x608060405234801561001057600080fd5b5060405161059d38038061059d83398101604081905261002f91610054565b600080546001600160a01b0319166001600160a01b0392909216919091179055610084565b60006020828403121561006657600080fd5b81516001600160a01b038116811461007d57600080fd5b9392505050565b61050a806100936000396000f3fe60806040526004361061002d5760003560e01c8063150b7a02146100395780639e5faafc1461008e57600080fd5b3661003457005b600080fd5b34801561004557600080fd5b50610059610054366004610351565b6100a5565b6040517fffffffff00000000000000000000000000000000000000000000000000000000909116815260200160405180910390f35b34801561009a57600080fd5b506100a3610178565b005b604080516000808252602082019092528154610165906001600160a01b0316632f52ebb760e01b6100db6001856044810161042d565b604051602081830303815290604052907bffffffffffffffffffffffffffffffffffffffffffffffffffffffff19166020820180517bffffffffffffffffffffffffffffffffffffffffffffffffffffffff8381831617835250505050670de0b6b3a76400006040518060400160405280600681526020016511905253115160d21b8152506101b2565b50630a85bd0160e11b9695505050505050565b6040805160008082526020820190925290546101ae906001600160a01b0316632f52ebb760e01b6100db6001856044810161042d565b5050565b6060824710156102185760405162461bcd60e51b815260206004820152602660248201527f416464726573733a20696e73756666696369656e742062616c616e636520666f6044820152651c8818d85b1b60d21b60648201526084015b60405180910390fd5b843b6102665760405162461bcd60e51b815260206004820152601d60248201527f416464726573733a2063616c6c20746f206e6f6e2d636f6e7472616374000000604482015260640161020f565b600080866001600160a01b0316858760405161028291906104ae565b60006040518083038185875af1925050503d80600081146102bf576040519150601f19603f3d011682016040523d82523d6000602084013e6102c4565b606091505b50915091506102d48282866102df565b979650505050505050565b606083156102ee575081610318565b8251156102fe5782518084602001fd5b8160405162461bcd60e51b815260040161020f91906104ca565b9392505050565b80356001600160a01b038116811461033657600080fd5b919050565b634e487b7160e01b600052604160045260246000fd5b6000806000806080858703121561036757600080fd5b6103708561031f565b935061037e6020860161031f565b925060408501359150606085013567ffffffffffffffff808211156103a257600080fd5b818701915087601f8301126103b657600080fd5b8135818111156103c8576103c861033b565b604051601f8201601f19908116603f011681019083821181831017156103f0576103f061033b565b816040528281528a602084870101111561040957600080fd5b82602086016020830137600060208483010152809550505050505092959194509250565b60006040820160ff851683526020604081850152818551808452606086019150828701935060005b8181101561047157845183529383019391830191600101610455565b5090979650505050505050565b60005b83811015610499578181015183820152602001610481565b838111156104a8576000848401525b50505050565b600082516104c081846020870161047e565b9190910192915050565b60208152600082518060208401526104e981604085016020870161047e565b601f01601f1916919091016040019291505056fea164736f6c6343000809000a",
  "linkReferences": {},
  "deployedLinkReferences": {}
}