{
  "_format": "hh-sol-artifact-1",
  "contractName": "MockLazyNFTReentrant",
  "sourceName": "contracts/test-helpers/MockLazyNFTReentrant.sol",
  "abi": [
    {
      "inputs": [
        {
          "internalType": "address",
          "name": "_addy",
          "type": "address"
        }
      ],
      "stateMutability": "nonpayable",
      "type": "constructor"
    },
    {
      "inputs": [],
      "name": "attack",
      "outputs": [],
      "stateMutability": "nonpayable",
      "type": "function"
    },
    {
      "inputs": [
        {
          "internalType": "address",
          "name": "",
          "type": "address"
        },
        {
          "internalType": "address",
          "name": "",
          "type": "address"
        },
        {
          "internalType": "uint256",
          "name": "",
          "type": "uint256"
        },
        {
          "internalType": "bytes",
          "name": "",
          "type": "bytes"
        }
      ],
      "name": "onERC721Received",
      "outputs": [
        {
          "internalType": "bytes4",
          "name": "",
          "type": "bytes4"
        }
      ],
      "stateMutability": "nonpayable",
      "type": "function"
    },
    {
      "inputs": [
        {
          "internalType": "bool",
          "name": "_onReceive",
          "type": "bool"
        }
      ],
      "name": "setAttackOnReceive",
      "outputs": [],
      "stateMutability": "nonpayable",
      "type": "function"
    },
    {
      "stateMutability": "payable",
      "type": "receive"
    }
  ],
  "bytecode": "0x608060405234801561001057600080fd5b506040516106f43803806106f483398101604081905261002f91610054565b600080546001600160a01b0319166001600160a01b0392909216919091179055610082565b600060208284031215610065578081fd5b81516001600160a01b038116811461007b578182fd5b9392505050565b610663806100916000396000f3fe6080604052600436106100385760003560e01c8063150b7a02146101305780639e5faafc14610185578063b7991a841461019a57600080fd5b3661012b57600054600160a01b900460ff161561012957604080516000808252602082019092529054610126906001600160a01b0316632f52ebb760e01b6100856001856044810161058d565b604051602081830303815290604052907bffffffffffffffffffffffffffffffffffffffffffffffffffffffff19166020820180517bffffffffffffffffffffffffffffffffffffffffffffffffffffffff8381831617835250505050670de0b6b3a76400006040518060400160405280600681526020017f4641494c454400000000000000000000000000000000000000000000000000008152506101ee565b50505b005b600080fd5b34801561013c57600080fd5b5061015061014b36600461047c565b610332565b6040517fffffffff00000000000000000000000000000000000000000000000000000000909116815260200160405180910390f35b34801561019157600080fd5b5061012961038e565b3480156101a657600080fd5b506101296101b5366004610551565b60008054911515600160a01b027fffffffffffffffffffffff00ffffffffffffffffffffffffffffffffffffffff909216919091179055565b60608247101561026b5760405162461bcd60e51b815260206004820152602660248201527f416464726573733a20696e73756666696369656e742062616c616e636520666f60448201527f722063616c6c000000000000000000000000000000000000000000000000000060648201526084015b60405180910390fd5b843b6102b95760405162461bcd60e51b815260206004820152601d60248201527f416464726573733a2063616c6c20746f206e6f6e2d636f6e74726163740000006044820152606401610262565b600080866001600160a01b031685876040516102d59190610571565b60006040518083038185875af1925050503d8060008114610312576040519150601f19603f3d011682016040523d82523d6000602084013e610317565b606091505b5091509150610327828286610420565b979650505050505050565b60008054600160a01b900460ff1661037d5760408051600080825260208201909252905461037a906001600160a01b0316632f52ebb760e01b6100856001856044810161058d565b50505b50630a85bd0160e11b949350505050565b67d02ab486cedc00004710156103e65760405162461bcd60e51b815260206004820152600860248201527f3e3d2031356574680000000000000000000000000000000000000000000000006044820152606401610262565b60408051600080825260208201909252905461041c906001600160a01b0316632f52ebb760e01b6100856001856044810161058d565b5050565b6060831561042f575081610459565b82511561043f5782518084602001fd5b8160405162461bcd60e51b815260040161026291906105dd565b9392505050565b80356001600160a01b038116811461047757600080fd5b919050565b60008060008060808587031215610491578384fd5b61049a85610460565b93506104a860208601610460565b925060408501359150606085013567ffffffffffffffff808211156104cb578283fd5b818701915087601f8301126104de578283fd5b8135818111156104f0576104f0610640565b604051601f8201601f19908116603f0116810190838211818310171561051857610518610640565b816040528281528a6020848701011115610530578586fd5b82602086016020830137918201602001949094529598949750929550505050565b600060208284031215610562578081fd5b81358015158114610459578182fd5b60008251610583818460208701610610565b9190910192915050565b60006040820160ff8516835260206040818501528185518084526060860191508287019350845b818110156105d0578451835293830193918301916001016105b4565b5090979650505050505050565b60208152600082518060208401526105fc816040850160208701610610565b601f01601f19169190910160400192915050565b60005b8381101561062b578181015183820152602001610613565b8381111561063a576000848401525b50505050565b634e487b7160e01b600052604160045260246000fdfea164736f6c6343000804000a",
  "linkReferences": {},
  "deployedLinkReferences": {}
}