{
  "_format": "hh-sol-artifact-1",
  "contractName": "Coin",
  "sourceName": "contracts/Coin.sol",
  "abi": [
    {
      "inputs": [
        {
          "internalType": "address",
          "name": "_controlCenter",
          "type": "address"
        },
        {
          "internalType": "string",
          "name": "_name",
          "type": "string"
        },
        {
          "internalType": "string",
          "name": "_symbol",
          "type": "string"
        },
        {
          "internalType": "address",
          "name": "_trustedForwarder",
          "type": "address"
        },
        {
          "internalType": "string",
          "name": "_uri",
          "type": "string"
        }
      ],
      "stateMutability": "nonpayable",
      "type": "constructor"
    },
    {
      "anonymous": false,
      "inputs": [
        {
          "indexed": true,
          "internalType": "address",
          "name": "owner",
          "type": "address"
        },
        {
          "indexed": true,
          "internalType": "address",
          "name": "spender",
          "type": "address"
        },
        {
          "indexed": false,
          "internalType": "uint256",
          "name": "value",
          "type": "uint256"
        }
      ],
      "name": "Approval",
      "type": "event"
    },
    {
      "anonymous": false,
      "inputs": [
        {
          "indexed": false,
          "internalType": "address",
          "name": "account",
          "type": "address"
        }
      ],
      "name": "Paused",
      "type": "event"
    },
    {
      "anonymous": false,
      "inputs": [
        {
          "indexed": true,
          "internalType": "bytes32",
          "name": "role",
          "type": "bytes32"
        },
        {
          "indexed": true,
          "internalType": "bytes32",
          "name": "previousAdminRole",
          "type": "bytes32"
        },
        {
          "indexed": true,
          "internalType": "bytes32",
          "name": "newAdminRole",
          "type": "bytes32"
        }
      ],
      "name": "RoleAdminChanged",
      "type": "event"
    },
    {
      "anonymous": false,
      "inputs": [
        {
          "indexed": true,
          "internalType": "bytes32",
          "name": "role",
          "type": "bytes32"
        },
        {
          "indexed": true,
          "internalType": "address",
          "name": "account",
          "type": "address"
        },
        {
          "indexed": true,
          "internalType": "address",
          "name": "sender",
          "type": "address"
        }
      ],
      "name": "RoleGranted",
      "type": "event"
    },
    {
      "anonymous": false,
      "inputs": [
        {
          "indexed": true,
          "internalType": "bytes32",
          "name": "role",
          "type": "bytes32"
        },
        {
          "indexed": true,
          "internalType": "address",
          "name": "account",
          "type": "address"
        },
        {
          "indexed": true,
          "internalType": "address",
          "name": "sender",
          "type": "address"
        }
      ],
      "name": "RoleRevoked",
      "type": "event"
    },
    {
      "anonymous": false,
      "inputs": [
        {
          "indexed": true,
          "internalType": "address",
          "name": "from",
          "type": "address"
        },
        {
          "indexed": true,
          "internalType": "address",
          "name": "to",
          "type": "address"
        },
        {
          "indexed": false,
          "internalType": "uint256",
          "name": "value",
          "type": "uint256"
        }
      ],
      "name": "Transfer",
      "type": "event"
    },
    {
      "anonymous": false,
      "inputs": [
        {
          "indexed": false,
          "internalType": "address",
          "name": "account",
          "type": "address"
        }
      ],
      "name": "Unpaused",
      "type": "event"
    },
    {
      "inputs": [],
      "name": "DEFAULT_ADMIN_ROLE",
      "outputs": [
        {
          "internalType": "bytes32",
          "name": "",
          "type": "bytes32"
        }
      ],
      "stateMutability": "view",
      "type": "function"
    },
    {
      "inputs": [],
      "name": "MINTER_ROLE",
      "outputs": [
        {
          "internalType": "bytes32",
          "name": "",
          "type": "bytes32"
        }
      ],
      "stateMutability": "view",
      "type": "function"
    },
    {
      "inputs": [],
      "name": "PAUSER_ROLE",
      "outputs": [
        {
          "internalType": "bytes32",
          "name": "",
          "type": "bytes32"
        }
      ],
      "stateMutability": "view",
      "type": "function"
    },
    {
      "inputs": [],
      "name": "_contractURI",
      "outputs": [
        {
          "internalType": "string",
          "name": "",
          "type": "string"
        }
      ],
      "stateMutability": "view",
      "type": "function"
    },
    {
      "inputs": [
        {
          "internalType": "address",
          "name": "owner",
          "type": "address"
        },
        {
          "internalType": "address",
          "name": "spender",
          "type": "address"
        }
      ],
      "name": "allowance",
      "outputs": [
        {
          "internalType": "uint256",
          "name": "",
          "type": "uint256"
        }
      ],
      "stateMutability": "view",
      "type": "function"
    },
    {
      "inputs": [
        {
          "internalType": "address",
          "name": "spender",
          "type": "address"
        },
        {
          "internalType": "uint256",
          "name": "amount",
          "type": "uint256"
        }
      ],
      "name": "approve",
      "outputs": [
        {
          "internalType": "bool",
          "name": "",
          "type": "bool"
        }
      ],
      "stateMutability": "nonpayable",
      "type": "function"
    },
    {
      "inputs": [
        {
          "internalType": "address",
          "name": "account",
          "type": "address"
        }
      ],
      "name": "balanceOf",
      "outputs": [
        {
          "internalType": "uint256",
          "name": "",
          "type": "uint256"
        }
      ],
      "stateMutability": "view",
      "type": "function"
    },
    {
      "inputs": [
        {
          "internalType": "uint256",
          "name": "amount",
          "type": "uint256"
        }
      ],
      "name": "burn",
      "outputs": [],
      "stateMutability": "nonpayable",
      "type": "function"
    },
    {
      "inputs": [
        {
          "internalType": "address",
          "name": "account",
          "type": "address"
        },
        {
          "internalType": "uint256",
          "name": "amount",
          "type": "uint256"
        }
      ],
      "name": "burnFrom",
      "outputs": [],
      "stateMutability": "nonpayable",
      "type": "function"
    },
    {
      "inputs": [],
      "name": "contractURI",
      "outputs": [
        {
          "internalType": "string",
          "name": "",
          "type": "string"
        }
      ],
      "stateMutability": "view",
      "type": "function"
    },
    {
      "inputs": [],
      "name": "decimals",
      "outputs": [
        {
          "internalType": "uint8",
          "name": "",
          "type": "uint8"
        }
      ],
      "stateMutability": "view",
      "type": "function"
    },
    {
      "inputs": [
        {
          "internalType": "address",
          "name": "spender",
          "type": "address"
        },
        {
          "internalType": "uint256",
          "name": "subtractedValue",
          "type": "uint256"
        }
      ],
      "name": "decreaseAllowance",
      "outputs": [
        {
          "internalType": "bool",
          "name": "",
          "type": "bool"
        }
      ],
      "stateMutability": "nonpayable",
      "type": "function"
    },
    {
      "inputs": [
        {
          "internalType": "bytes32",
          "name": "role",
          "type": "bytes32"
        }
      ],
      "name": "getRoleAdmin",
      "outputs": [
        {
          "internalType": "bytes32",
          "name": "",
          "type": "bytes32"
        }
      ],
      "stateMutability": "view",
      "type": "function"
    },
    {
      "inputs": [
        {
          "internalType": "bytes32",
          "name": "role",
          "type": "bytes32"
        },
        {
          "internalType": "uint256",
          "name": "index",
          "type": "uint256"
        }
      ],
      "name": "getRoleMember",
      "outputs": [
        {
          "internalType": "address",
          "name": "",
          "type": "address"
        }
      ],
      "stateMutability": "view",
      "type": "function"
    },
    {
      "inputs": [
        {
          "internalType": "bytes32",
          "name": "role",
          "type": "bytes32"
        }
      ],
      "name": "getRoleMemberCount",
      "outputs": [
        {
          "internalType": "uint256",
          "name": "",
          "type": "uint256"
        }
      ],
      "stateMutability": "view",
      "type": "function"
    },
    {
      "inputs": [
        {
          "internalType": "bytes32",
          "name": "role",
          "type": "bytes32"
        },
        {
          "internalType": "address",
          "name": "account",
          "type": "address"
        }
      ],
      "name": "grantRole",
      "outputs": [],
      "stateMutability": "nonpayable",
      "type": "function"
    },
    {
      "inputs": [
        {
          "internalType": "bytes32",
          "name": "role",
          "type": "bytes32"
        },
        {
          "internalType": "address",
          "name": "account",
          "type": "address"
        }
      ],
      "name": "hasRole",
      "outputs": [
        {
          "internalType": "bool",
          "name": "",
          "type": "bool"
        }
      ],
      "stateMutability": "view",
      "type": "function"
    },
    {
      "inputs": [
        {
          "internalType": "address",
          "name": "spender",
          "type": "address"
        },
        {
          "internalType": "uint256",
          "name": "addedValue",
          "type": "uint256"
        }
      ],
      "name": "increaseAllowance",
      "outputs": [
        {
          "internalType": "bool",
          "name": "",
          "type": "bool"
        }
      ],
      "stateMutability": "nonpayable",
      "type": "function"
    },
    {
      "inputs": [
        {
          "internalType": "address",
          "name": "forwarder",
          "type": "address"
        }
      ],
      "name": "isTrustedForwarder",
      "outputs": [
        {
          "internalType": "bool",
          "name": "",
          "type": "bool"
        }
      ],
      "stateMutability": "view",
      "type": "function"
    },
    {
      "inputs": [
        {
          "internalType": "address",
          "name": "to",
          "type": "address"
        },
        {
          "internalType": "uint256",
          "name": "amount",
          "type": "uint256"
        }
      ],
      "name": "mint",
      "outputs": [],
      "stateMutability": "nonpayable",
      "type": "function"
    },
    {
      "inputs": [],
      "name": "name",
      "outputs": [
        {
          "internalType": "string",
          "name": "",
          "type": "string"
        }
      ],
      "stateMutability": "view",
      "type": "function"
    },
    {
      "inputs": [],
      "name": "pause",
      "outputs": [],
      "stateMutability": "nonpayable",
      "type": "function"
    },
    {
      "inputs": [],
      "name": "paused",
      "outputs": [
        {
          "internalType": "bool",
          "name": "",
          "type": "bool"
        }
      ],
      "stateMutability": "view",
      "type": "function"
    },
    {
      "inputs": [
        {
          "internalType": "bytes32",
          "name": "role",
          "type": "bytes32"
        },
        {
          "internalType": "address",
          "name": "account",
          "type": "address"
        }
      ],
      "name": "renounceRole",
      "outputs": [],
      "stateMutability": "nonpayable",
      "type": "function"
    },
    {
      "inputs": [
        {
          "internalType": "bytes32",
          "name": "role",
          "type": "bytes32"
        },
        {
          "internalType": "address",
          "name": "account",
          "type": "address"
        }
      ],
      "name": "revokeRole",
      "outputs": [],
      "stateMutability": "nonpayable",
      "type": "function"
    },
    {
      "inputs": [
        {
          "internalType": "string",
          "name": "_URI",
          "type": "string"
        }
      ],
      "name": "setContractURI",
      "outputs": [],
      "stateMutability": "nonpayable",
      "type": "function"
    },
    {
      "inputs": [
        {
          "internalType": "bytes4",
          "name": "interfaceId",
          "type": "bytes4"
        }
      ],
      "name": "supportsInterface",
      "outputs": [
        {
          "internalType": "bool",
          "name": "",
          "type": "bool"
        }
      ],
      "stateMutability": "view",
      "type": "function"
    },
    {
      "inputs": [],
      "name": "symbol",
      "outputs": [
        {
          "internalType": "string",
          "name": "",
          "type": "string"
        }
      ],
      "stateMutability": "view",
      "type": "function"
    },
    {
      "inputs": [],
      "name": "totalSupply",
      "outputs": [
        {
          "internalType": "uint256",
          "name": "",
          "type": "uint256"
        }
      ],
      "stateMutability": "view",
      "type": "function"
    },
    {
      "inputs": [
        {
          "internalType": "address",
          "name": "recipient",
          "type": "address"
        },
        {
          "internalType": "uint256",
          "name": "amount",
          "type": "uint256"
        }
      ],
      "name": "transfer",
      "outputs": [
        {
          "internalType": "bool",
          "name": "",
          "type": "bool"
        }
      ],
      "stateMutability": "nonpayable",
      "type": "function"
    },
    {
      "inputs": [
        {
          "internalType": "address",
          "name": "sender",
          "type": "address"
        },
        {
          "internalType": "address",
          "name": "recipient",
          "type": "address"
        },
        {
          "internalType": "uint256",
          "name": "amount",
          "type": "uint256"
        }
      ],
      "name": "transferFrom",
      "outputs": [
        {
          "internalType": "bool",
          "name": "",
          "type": "bool"
        }
      ],
      "stateMutability": "nonpayable",
      "type": "function"
    },
    {
      "inputs": [],
      "name": "unpause",
      "outputs": [],
      "stateMutability": "nonpayable",
      "type": "function"
    }
  ],
  "bytecode": "0x60806040523480156200001157600080fd5b5060405162002645380380620026458339810160408190526200003491620004b6565b81848481818160059080519060200190620000519291906200034d565b508051620000679060069060208401906200034d565b50506007805460ff19169055506200008a60006200008462000143565b62000160565b620000b97f9f2df0fed2c77648de5860a4cc508cd0818c85b8b8a1ab4ceeef8d981c8956a66200008462000143565b620000e87f65d7a28e3265b37a6474929f336521b332c1681b933f6cb9f3376673440d862a6200008462000143565b505060078054610100600160a81b0319166101006001600160a01b0393841602179055600880546001600160a01b0319169187169190911790558051620001379060099060208401906200034d565b505050505050620005bd565b60006200015a620001a360201b62000b241760201c565b90505b90565b620001778282620001e360201b62000b521760201c565b60008281526001602090815260409091206200019e91839062000b5c620001f3821b17901c565b505050565b6000620001b03362000213565b15620001c6575060131936013560601c6200015d565b620001db6200022f60201b62000b711760201c565b90506200015d565b620001ef828262000233565b5050565b60006200020a836001600160a01b038416620002bd565b90505b92915050565b6007546001600160a01b0382811661010090920416145b919050565b3390565b6200023f82826200030c565b620001ef576000828152602081815260408083206001600160a01b03851684529091529020805460ff191660011790556200027962000143565b6001600160a01b0316816001600160a01b0316837f2f8788117e7eff1d82e926ec794901d17c78024a50270940304540a733656f0d60405160405180910390a45050565b6000620002cb838362000335565b62000303575081546001818101845560008481526020808220909301849055845484825282860190935260409020919091556200020d565b5060006200020d565b6000918252602082815260408084206001600160a01b0393909316845291905290205460ff1690565b60009081526001919091016020526040902054151590565b8280546200035b906200056a565b90600052602060002090601f0160209004810192826200037f5760008555620003ca565b82601f106200039a57805160ff1916838001178555620003ca565b82800160010185558215620003ca579182015b82811115620003ca578251825591602001919060010190620003ad565b50620003d8929150620003dc565b5090565b5b80821115620003d85760008155600101620003dd565b80516001600160a01b03811681146200022a57600080fd5b600082601f8301126200041c578081fd5b81516001600160401b0380821115620004395762000439620005a7565b6040516020601f8401601f1916820181018381118382101715620004615762000461620005a7565b604052838252858401810187101562000478578485fd5b8492505b838310156200049b57858301810151828401820152918201916200047c565b83831115620004ac57848185840101525b5095945050505050565b600080600080600060a08688031215620004ce578081fd5b620004d986620003f3565b60208701519095506001600160401b0380821115620004f6578283fd5b6200050489838a016200040b565b955060408801519150808211156200051a578283fd5b6200052889838a016200040b565b94506200053860608901620003f3565b935060808801519150808211156200054e578283fd5b506200055d888289016200040b565b9150509295509295909350565b6002810460018216806200057f57607f821691505b60208210811415620005a157634e487b7160e01b600052602260045260246000fd5b50919050565b634e487b7160e01b600052604160045260246000fd5b61207880620005cd6000396000f3fe608060405234801561001057600080fd5b50600436106101f05760003560e01c806379cc67901161010f578063a9059cbb116100a2578063d547741f11610071578063d547741f146103e7578063dd62ed3e146103fa578063e63ab1e91461040d578063e8a3d48514610415576101f0565b8063a9059cbb146103b1578063c0e72740146103c4578063ca15c873146103cc578063d5391393146103df576101f0565b8063938e3d7b116100de578063938e3d7b1461037b57806395d89b411461038e578063a217fddf14610396578063a457c2d71461039e576101f0565b806379cc67901461032d5780638456cb59146103405780639010d07c1461034857806391d1485414610368576101f0565b806336568abe1161018757806342966c681161015657806342966c68146102ec578063572b6c05146102ff5780635c975abb1461031257806370a082311461031a576101f0565b806336568abe146102ab57806339509351146102be5780633f4ba83a146102d157806340c10f19146102d9576101f0565b806323b872dd116101c357806323b872dd1461025b578063248a9ca31461026e5780632f2ff15d14610281578063313ce56714610296576101f0565b806301ffc9a7146101f557806306fdde031461021e578063095ea7b31461023357806318160ddd14610246575b600080fd5b6102086102033660046117e7565b61041d565b6040516102159190611911565b60405180910390f35b61022661044a565b604051610215919061193c565b61020861024136600461172b565b6104dd565b61024e6104fb565b604051610215919061191c565b6102086102693660046116f0565b610501565b61024e61027c366004611774565b61059a565b61029461028f3660046117a4565b6105af565b005b61029e6105d6565b6040516102159190611f7b565b6102946102b93660046117a4565b6105db565b6102086102cc36600461172b565b6105fd565b610294610651565b6102946102e736600461172b565b6106a3565b6102946102fa366004611774565b6106f9565b61020861030d3660046116a4565b61070d565b610208610726565b61024e6103283660046116a4565b61072f565b61029461033b36600461172b565b61074a565b610294610798565b61035b6103563660046117c6565b6107e8565b60405161021591906118fd565b6102086103763660046117a4565b610807565b61029461038936600461180f565b610830565b610226610952565b61024e610961565b6102086103ac36600461172b565b610966565b6102086103bf36600461172b565b6109df565b6102266109f3565b61024e6103da366004611774565b610a81565b61024e610a98565b6102946103f53660046117a4565b610abc565b61024e6104083660046116be565b610ac6565b61024e610af1565b610226610b15565b60006001600160e01b03198216635a05180f60e01b1480610442575061044282610b75565b90505b919050565b6060600580546104599061201a565b80601f01602080910402602001604051908101604052809291908181526020018280546104859061201a565b80156104d25780601f106104a7576101008083540402835291602001916104d2565b820191906000526020600020905b8154815290600101906020018083116104b557829003601f168201915b505050505090505b90565b60006104f16104ea610b9a565b8484610ba9565b5060015b92915050565b60045490565b600061050e848484610c5d565b6001600160a01b03841660009081526003602052604081208161052f610b9a565b6001600160a01b03166001600160a01b031681526020019081526020016000205490508281101561057b5760405162461bcd60e51b815260040161057290611bf0565b60405180910390fd5b61058f85610587610b9a565b858403610ba9565b506001949350505050565b60009081526020819052604090206001015490565b6105b98282610d87565b60008281526001602052604090206105d19082610b5c565b505050565b601290565b6105e58282610dab565b60008281526001602052604090206105d19082610ded565b60006104f161060a610b9a565b848460036000610618610b9a565b6001600160a01b03908116825260208083019390935260409182016000908120918b168152925290205461064c9190611f89565b610ba9565b61067d7f65d7a28e3265b37a6474929f336521b332c1681b933f6cb9f3376673440d862a610376610b9a565b6106995760405162461bcd60e51b815260040161057290611abd565b6106a1610e02565b565b6106cf7f9f2df0fed2c77648de5860a4cc508cd0818c85b8b8a1ab4ceeef8d981c8956a6610376610b9a565b6106eb5760405162461bcd60e51b815260040161057290611c4d565b6106f58282610e70565b5050565b61070a610704610b9a565b82610f38565b50565b60075461010090046001600160a01b0390811691161490565b60075460ff1690565b6001600160a01b031660009081526002602052604090205490565b600061075883610408610b9a565b90508181101561077a5760405162461bcd60e51b815260040161057290611caa565b61078e83610786610b9a565b848403610ba9565b6105d18383610f38565b6107c47f65d7a28e3265b37a6474929f336521b332c1681b933f6cb9f3376673440d862a610376610b9a565b6107e05760405162461bcd60e51b815260040161057290611dd0565b6106a1611029565b60008281526001602052604081206108009083611084565b9392505050565b6000918252602082815260408084206001600160a01b0393909316845291905290205460ff1690565b60085460408051634a32c6bf60e11b815290516001600160a01b03909216916391d148549183916394658d7e91600480820192602092909190829003018186803b15801561087d57600080fd5b505afa158015610891573d6000803e3d6000fd5b505050506040513d601f19601f820116820180604052508101906108b5919061178c565b6108bd610b9a565b6040518363ffffffff1660e01b81526004016108da929190611925565b60206040518083038186803b1580156108f257600080fd5b505afa158015610906573d6000803e3d6000fd5b505050506040513d601f19601f8201168201806040525081019061092a9190611754565b6109465760405162461bcd60e51b8152600401610572906119e7565b6105d1600983836115f4565b6060600680546104599061201a565b600081565b60008060036000610975610b9a565b6001600160a01b03908116825260208083019390935260409182016000908120918816815292529020549050828110156109c15760405162461bcd60e51b815260040161057290611e2d565b6109d56109cc610b9a565b85858403610ba9565b5060019392505050565b60006104f16109ec610b9a565b8484610c5d565b60098054610a009061201a565b80601f0160208091040260200160405190810160405280929190818152602001828054610a2c9061201a565b8015610a795780601f10610a4e57610100808354040283529160200191610a79565b820191906000526020600020905b815481529060010190602001808311610a5c57829003601f168201915b505050505081565b600081815260016020526040812061044290611090565b7f9f2df0fed2c77648de5860a4cc508cd0818c85b8b8a1ab4ceeef8d981c8956a681565b6105e5828261109b565b6001600160a01b03918216600090815260036020908152604080832093909416825291909152205490565b7f65d7a28e3265b37a6474929f336521b332c1681b933f6cb9f3376673440d862a81565b6060600980546104599061201a565b6000610b2f3361070d565b15610b43575060131936013560601c6104da565b610b4b610b71565b90506104da565b6106f582826110ba565b6000610800836001600160a01b03841661113f565b3390565b60006001600160e01b03198216637965db0b60e01b1480610442575061044282611189565b6000610ba4610b24565b905090565b6001600160a01b038316610bcf5760405162461bcd60e51b815260040161057290611d8c565b6001600160a01b038216610bf55760405162461bcd60e51b815260040161057290611b1a565b6001600160a01b0380841660008181526003602090815260408083209487168084529490915290819020849055517f8c5be1e5ebec7d5bd14f71427d1e84f3dd0314c0f7b2291e5b200ac8c7c3b92590610c5090859061191c565b60405180910390a3505050565b6001600160a01b038316610c835760405162461bcd60e51b815260040161057290611d2f565b6001600160a01b038216610ca95760405162461bcd60e51b8152600401610572906119a4565b610cb48383836111a2565b6001600160a01b03831660009081526002602052604090205481811015610ced5760405162461bcd60e51b815260040161057290611b5c565b6001600160a01b03808516600090815260026020526040808220858503905591851681529081208054849290610d24908490611f89565b92505081905550826001600160a01b0316846001600160a01b03167fddf252ad1be2c89b69c2b068fc378daa952ba7f163c4a11628f55a4df523b3ef84604051610d6e919061191c565b60405180910390a3610d818484846105d1565b50505050565b610d908261059a565b610da181610d9c610b9a565b6111ad565b6105d183836110ba565b610db3610b9a565b6001600160a01b0316816001600160a01b031614610de35760405162461bcd60e51b815260040161057290611e8a565b6106f58282611211565b6000610800836001600160a01b038416611294565b610e0a610726565b610e265760405162461bcd60e51b815260040161057290611a44565b6007805460ff191690557f5db9ee0a495bf2e6ff9c91a7834c1ba4fdd244a5e8aa4e537bd38aeae4b073aa610e59610b9a565b604051610e6691906118fd565b60405180910390a1565b6001600160a01b038216610e965760405162461bcd60e51b815260040161057290611ee7565b610ea2600083836111a2565b8060046000828254610eb49190611f89565b90915550506001600160a01b03821660009081526002602052604081208054839290610ee1908490611f89565b90915550506040516001600160a01b038316906000907fddf252ad1be2c89b69c2b068fc378daa952ba7f163c4a11628f55a4df523b3ef90610f2490859061191c565b60405180910390a36106f5600083836105d1565b6001600160a01b038216610f5e5760405162461bcd60e51b815260040161057290611cee565b610f6a826000836111a2565b6001600160a01b03821660009081526002602052604090205481811015610fa35760405162461bcd60e51b815260040161057290611a7b565b6001600160a01b0383166000908152600260205260408120838303905560048054849290610fd2908490611fc0565b90915550506040516000906001600160a01b038516907fddf252ad1be2c89b69c2b068fc378daa952ba7f163c4a11628f55a4df523b3ef9061101590869061191c565b60405180910390a36105d1836000846105d1565b611031610726565b1561104e5760405162461bcd60e51b815260040161057290611bb9565b6007805460ff191660011790557f62e78cea01bee320cd4e420270b5ea74000d11b0c9f74754ebdbfc544b05a258610e59610b9a565b600061080083836113b1565b6000610442826113e9565b6110a48261059a565b6110b081610d9c610b9a565b6105d18383611211565b6110c48282610807565b6106f5576000828152602081815260408083206001600160a01b03851684529091529020805460ff191660011790556110fb610b9a565b6001600160a01b0316816001600160a01b0316837f2f8788117e7eff1d82e926ec794901d17c78024a50270940304540a733656f0d60405160405180910390a45050565b600061114b83836113ed565b611181575081546001818101845560008481526020808220909301849055845484825282860190935260409020919091556104f5565b5060006104f5565b6001600160e01b031981166301ffc9a760e01b14919050565b6105d1838383611405565b6111b78282610807565b6106f5576111cf816001600160a01b03166014611435565b6111da836020611435565b6040516020016111eb92919061187c565b60408051601f198184030181529082905262461bcd60e51b82526105729160040161193c565b61121b8282610807565b156106f5576000828152602081815260408083206001600160a01b03851684529091529020805460ff19169055611250610b9a565b6001600160a01b0316816001600160a01b0316837ff6391f5c32d9c69d2a47ea670b442974b53935d1edc7fd64eb21e047a839171b60405160405180910390a45050565b600081815260018301602052604081205480156113a75760006112b8600183611fc0565b85549091506000906112cc90600190611fc0565b905081811461134d5760008660000182815481106112fa57634e487b7160e01b600052603260045260246000fd5b906000526020600020015490508087600001848154811061132b57634e487b7160e01b600052603260045260246000fd5b6000918252602080832090910192909255918252600188019052604090208390555b855486908061136c57634e487b7160e01b600052603160045260246000fd5b6001900381819060005260206000200160009055905585600101600086815260200190815260200160002060009055600193505050506104f5565b60009150506104f5565b60008260000182815481106113d657634e487b7160e01b600052603260045260246000fd5b9060005260206000200154905092915050565b5490565b60009081526001919091016020526040902054151590565b6114108383836105d1565b611418610726565b156105d15760405162461bcd60e51b815260040161057290611f1e565b60606000611444836002611fa1565b61144f906002611f89565b67ffffffffffffffff81111561147557634e487b7160e01b600052604160045260246000fd5b6040519080825280601f01601f19166020018201604052801561149f576020820181803683370190505b509050600360fc1b816000815181106114c857634e487b7160e01b600052603260045260246000fd5b60200101906001600160f81b031916908160001a905350600f60fb1b8160018151811061150557634e487b7160e01b600052603260045260246000fd5b60200101906001600160f81b031916908160001a9053506000611529846002611fa1565b611534906001611f89565b90505b60018111156115d5577f303132333435363738396162636465660000000000000000000000000000000085600f166010811061158357634e487b7160e01b600052603260045260246000fd5b1a60f81b8282815181106115a757634e487b7160e01b600052603260045260246000fd5b60200101906001600160f81b031916908160001a90535060049490941c936115ce81612003565b9050611537565b5083156108005760405162461bcd60e51b81526004016105729061196f565b8280546116009061201a565b90600052602060002090601f0160209004810192826116225760008555611668565b82601f1061163b5782800160ff19823516178555611668565b82800160010185558215611668579182015b8281111561166857823582559160200191906001019061164d565b50611674929150611678565b5090565b5b808211156116745760008155600101611679565b80356001600160a01b038116811461044557600080fd5b6000602082840312156116b5578081fd5b6108008261168d565b600080604083850312156116d0578081fd5b6116d98361168d565b91506116e76020840161168d565b90509250929050565b600080600060608486031215611704578081fd5b61170d8461168d565b925061171b6020850161168d565b9150604084013590509250925092565b6000806040838503121561173d578182fd5b6117468361168d565b946020939093013593505050565b600060208284031215611765578081fd5b81518015158114610800578182fd5b600060208284031215611785578081fd5b5035919050565b60006020828403121561179d578081fd5b5051919050565b600080604083850312156117b6578182fd5b823591506116e76020840161168d565b600080604083850312156117d8578182fd5b50508035926020909101359150565b6000602082840312156117f8578081fd5b81356001600160e01b031981168114610800578182fd5b60008060208385031215611821578182fd5b823567ffffffffffffffff80821115611838578384fd5b818501915085601f83011261184b578384fd5b813581811115611859578485fd5b86602082850101111561186a578485fd5b60209290920196919550909350505050565b60007f416363657373436f6e74726f6c3a206163636f756e7420000000000000000000825283516118b4816017850160208801611fd7565b7f206973206d697373696e6720726f6c652000000000000000000000000000000060179184019182015283516118f1816028840160208801611fd7565b01602801949350505050565b6001600160a01b0391909116815260200190565b901515815260200190565b90815260200190565b9182526001600160a01b0316602082015260400190565b600060208252825180602084015261195b816040850160208701611fd7565b601f01601f19169190910160400192915050565b6020808252818101527f537472696e67733a20686578206c656e67746820696e73756666696369656e74604082015260600190565b60208082526023908201527f45524332303a207472616e7366657220746f20746865207a65726f206164647260408201526265737360e81b606082015260800190565b60208082526033908201527f5061636b3a206f6e6c7920612070726f746f636f6c2061646d696e2063616e2060408201527f63616c6c20746869732066756e6374696f6e2e00000000000000000000000000606082015260800190565b60208082526014908201527f5061757361626c653a206e6f7420706175736564000000000000000000000000604082015260600190565b60208082526022908201527f45524332303a206275726e20616d6f756e7420657863656564732062616c616e604082015261636560f01b606082015260800190565b60208082526039908201527f45524332305072657365744d696e7465725061757365723a206d75737420686160408201527f76652070617573657220726f6c6520746f20756e706175736500000000000000606082015260800190565b60208082526022908201527f45524332303a20617070726f766520746f20746865207a65726f206164647265604082015261737360f01b606082015260800190565b60208082526026908201527f45524332303a207472616e7366657220616d6f756e742065786365656473206260408201527f616c616e63650000000000000000000000000000000000000000000000000000606082015260800190565b60208082526010908201527f5061757361626c653a2070617573656400000000000000000000000000000000604082015260600190565b60208082526028908201527f45524332303a207472616e7366657220616d6f756e742065786365656473206160408201527f6c6c6f77616e6365000000000000000000000000000000000000000000000000606082015260800190565b60208082526036908201527f45524332305072657365744d696e7465725061757365723a206d75737420686160408201527f7665206d696e74657220726f6c6520746f206d696e7400000000000000000000606082015260800190565b60208082526024908201527f45524332303a206275726e20616d6f756e74206578636565647320616c6c6f77604082015263616e636560e01b606082015260800190565b60208082526021908201527f45524332303a206275726e2066726f6d20746865207a65726f206164647265736040820152607360f81b606082015260800190565b60208082526025908201527f45524332303a207472616e736665722066726f6d20746865207a65726f20616460408201527f6472657373000000000000000000000000000000000000000000000000000000606082015260800190565b60208082526024908201527f45524332303a20617070726f76652066726f6d20746865207a65726f206164646040820152637265737360e01b606082015260800190565b60208082526037908201527f45524332305072657365744d696e7465725061757365723a206d75737420686160408201527f76652070617573657220726f6c6520746f207061757365000000000000000000606082015260800190565b60208082526025908201527f45524332303a2064656372656173656420616c6c6f77616e63652062656c6f7760408201527f207a65726f000000000000000000000000000000000000000000000000000000606082015260800190565b6020808252602f908201527f416363657373436f6e74726f6c3a2063616e206f6e6c792072656e6f756e636560408201527f20726f6c657320666f722073656c660000000000000000000000000000000000606082015260800190565b6020808252601f908201527f45524332303a206d696e7420746f20746865207a65726f206164647265737300604082015260600190565b6020808252602a908201527f45524332305061757361626c653a20746f6b656e207472616e7366657220776860408201527f696c652070617573656400000000000000000000000000000000000000000000606082015260800190565b60ff91909116815260200190565b60008219821115611f9c57611f9c612055565b500190565b6000816000190483118215151615611fbb57611fbb612055565b500290565b600082821015611fd257611fd2612055565b500390565b60005b83811015611ff2578181015183820152602001611fda565b83811115610d815750506000910152565b60008161201257612012612055565b506000190190565b60028104600182168061202e57607f821691505b6020821081141561204f57634e487b7160e01b600052602260045260246000fd5b50919050565b634e487b7160e01b600052601160045260246000fdfea164736f6c6343000800000a",
  "linkReferences": {},
  "deployedLinkReferences": {}
}