{
  "_format": "hh-sol-artifact-1",
  "contractName": "Coin",
  "sourceName": "contracts/Coin.sol",
  "abi": [
    {
      "inputs": [
        {
          "internalType": "address payable",
          "name": "_controlCenter",
          "type": "address"
        },
        {
          "internalType": "string",
          "name": "_name",
          "type": "string"
        },
        {
          "internalType": "string",
          "name": "_symbol",
          "type": "string"
        },
        {
          "internalType": "address",
          "name": "_trustedForwarder",
          "type": "address"
        },
        {
          "internalType": "string",
          "name": "_uri",
          "type": "string"
        }
      ],
      "stateMutability": "nonpayable",
      "type": "constructor"
    },
    {
      "anonymous": false,
      "inputs": [
        {
          "indexed": true,
          "internalType": "address",
          "name": "owner",
          "type": "address"
        },
        {
          "indexed": true,
          "internalType": "address",
          "name": "spender",
          "type": "address"
        },
        {
          "indexed": false,
          "internalType": "uint256",
          "name": "value",
          "type": "uint256"
        }
      ],
      "name": "Approval",
      "type": "event"
    },
    {
      "anonymous": false,
      "inputs": [
        {
          "indexed": false,
          "internalType": "address",
          "name": "account",
          "type": "address"
        }
      ],
      "name": "Paused",
      "type": "event"
    },
    {
      "anonymous": false,
      "inputs": [
        {
          "indexed": false,
          "internalType": "bool",
          "name": "transferable",
          "type": "bool"
        }
      ],
      "name": "RestrictedTransferUpdated",
      "type": "event"
    },
    {
      "anonymous": false,
      "inputs": [
        {
          "indexed": true,
          "internalType": "bytes32",
          "name": "role",
          "type": "bytes32"
        },
        {
          "indexed": true,
          "internalType": "bytes32",
          "name": "previousAdminRole",
          "type": "bytes32"
        },
        {
          "indexed": true,
          "internalType": "bytes32",
          "name": "newAdminRole",
          "type": "bytes32"
        }
      ],
      "name": "RoleAdminChanged",
      "type": "event"
    },
    {
      "anonymous": false,
      "inputs": [
        {
          "indexed": true,
          "internalType": "bytes32",
          "name": "role",
          "type": "bytes32"
        },
        {
          "indexed": true,
          "internalType": "address",
          "name": "account",
          "type": "address"
        },
        {
          "indexed": true,
          "internalType": "address",
          "name": "sender",
          "type": "address"
        }
      ],
      "name": "RoleGranted",
      "type": "event"
    },
    {
      "anonymous": false,
      "inputs": [
        {
          "indexed": true,
          "internalType": "bytes32",
          "name": "role",
          "type": "bytes32"
        },
        {
          "indexed": true,
          "internalType": "address",
          "name": "account",
          "type": "address"
        },
        {
          "indexed": true,
          "internalType": "address",
          "name": "sender",
          "type": "address"
        }
      ],
      "name": "RoleRevoked",
      "type": "event"
    },
    {
      "anonymous": false,
      "inputs": [
        {
          "indexed": true,
          "internalType": "address",
          "name": "from",
          "type": "address"
        },
        {
          "indexed": true,
          "internalType": "address",
          "name": "to",
          "type": "address"
        },
        {
          "indexed": false,
          "internalType": "uint256",
          "name": "value",
          "type": "uint256"
        }
      ],
      "name": "Transfer",
      "type": "event"
    },
    {
      "anonymous": false,
      "inputs": [
        {
          "indexed": false,
          "internalType": "address",
          "name": "account",
          "type": "address"
        }
      ],
      "name": "Unpaused",
      "type": "event"
    },
    {
      "inputs": [],
      "name": "DEFAULT_ADMIN_ROLE",
      "outputs": [
        {
          "internalType": "bytes32",
          "name": "",
          "type": "bytes32"
        }
      ],
      "stateMutability": "view",
      "type": "function"
    },
    {
      "inputs": [],
      "name": "DOMAIN_SEPARATOR",
      "outputs": [
        {
          "internalType": "bytes32",
          "name": "",
          "type": "bytes32"
        }
      ],
      "stateMutability": "view",
      "type": "function"
    },
    {
      "inputs": [],
      "name": "MINTER_ROLE",
      "outputs": [
        {
          "internalType": "bytes32",
          "name": "",
          "type": "bytes32"
        }
      ],
      "stateMutability": "view",
      "type": "function"
    },
    {
      "inputs": [],
      "name": "PAUSER_ROLE",
      "outputs": [
        {
          "internalType": "bytes32",
          "name": "",
          "type": "bytes32"
        }
      ],
      "stateMutability": "view",
      "type": "function"
    },
    {
      "inputs": [],
      "name": "TRANSFER_ROLE",
      "outputs": [
        {
          "internalType": "bytes32",
          "name": "",
          "type": "bytes32"
        }
      ],
      "stateMutability": "view",
      "type": "function"
    },
    {
      "inputs": [],
      "name": "_contractURI",
      "outputs": [
        {
          "internalType": "string",
          "name": "",
          "type": "string"
        }
      ],
      "stateMutability": "view",
      "type": "function"
    },
    {
      "inputs": [
        {
          "internalType": "address",
          "name": "owner",
          "type": "address"
        },
        {
          "internalType": "address",
          "name": "spender",
          "type": "address"
        }
      ],
      "name": "allowance",
      "outputs": [
        {
          "internalType": "uint256",
          "name": "",
          "type": "uint256"
        }
      ],
      "stateMutability": "view",
      "type": "function"
    },
    {
      "inputs": [
        {
          "internalType": "address",
          "name": "spender",
          "type": "address"
        },
        {
          "internalType": "uint256",
          "name": "amount",
          "type": "uint256"
        }
      ],
      "name": "approve",
      "outputs": [
        {
          "internalType": "bool",
          "name": "",
          "type": "bool"
        }
      ],
      "stateMutability": "nonpayable",
      "type": "function"
    },
    {
      "inputs": [
        {
          "internalType": "address",
          "name": "account",
          "type": "address"
        }
      ],
      "name": "balanceOf",
      "outputs": [
        {
          "internalType": "uint256",
          "name": "",
          "type": "uint256"
        }
      ],
      "stateMutability": "view",
      "type": "function"
    },
    {
      "inputs": [
        {
          "internalType": "uint256",
          "name": "amount",
          "type": "uint256"
        }
      ],
      "name": "burn",
      "outputs": [],
      "stateMutability": "nonpayable",
      "type": "function"
    },
    {
      "inputs": [
        {
          "internalType": "address",
          "name": "account",
          "type": "address"
        },
        {
          "internalType": "uint256",
          "name": "amount",
          "type": "uint256"
        }
      ],
      "name": "burnFrom",
      "outputs": [],
      "stateMutability": "nonpayable",
      "type": "function"
    },
    {
      "inputs": [],
      "name": "contractURI",
      "outputs": [
        {
          "internalType": "string",
          "name": "",
          "type": "string"
        }
      ],
      "stateMutability": "view",
      "type": "function"
    },
    {
      "inputs": [],
      "name": "decimals",
      "outputs": [
        {
          "internalType": "uint8",
          "name": "",
          "type": "uint8"
        }
      ],
      "stateMutability": "view",
      "type": "function"
    },
    {
      "inputs": [
        {
          "internalType": "address",
          "name": "spender",
          "type": "address"
        },
        {
          "internalType": "uint256",
          "name": "subtractedValue",
          "type": "uint256"
        }
      ],
      "name": "decreaseAllowance",
      "outputs": [
        {
          "internalType": "bool",
          "name": "",
          "type": "bool"
        }
      ],
      "stateMutability": "nonpayable",
      "type": "function"
    },
    {
      "inputs": [
        {
          "internalType": "bytes32",
          "name": "role",
          "type": "bytes32"
        }
      ],
      "name": "getRoleAdmin",
      "outputs": [
        {
          "internalType": "bytes32",
          "name": "",
          "type": "bytes32"
        }
      ],
      "stateMutability": "view",
      "type": "function"
    },
    {
      "inputs": [
        {
          "internalType": "bytes32",
          "name": "role",
          "type": "bytes32"
        },
        {
          "internalType": "uint256",
          "name": "index",
          "type": "uint256"
        }
      ],
      "name": "getRoleMember",
      "outputs": [
        {
          "internalType": "address",
          "name": "",
          "type": "address"
        }
      ],
      "stateMutability": "view",
      "type": "function"
    },
    {
      "inputs": [
        {
          "internalType": "bytes32",
          "name": "role",
          "type": "bytes32"
        }
      ],
      "name": "getRoleMemberCount",
      "outputs": [
        {
          "internalType": "uint256",
          "name": "",
          "type": "uint256"
        }
      ],
      "stateMutability": "view",
      "type": "function"
    },
    {
      "inputs": [
        {
          "internalType": "bytes32",
          "name": "role",
          "type": "bytes32"
        },
        {
          "internalType": "address",
          "name": "account",
          "type": "address"
        }
      ],
      "name": "grantRole",
      "outputs": [],
      "stateMutability": "nonpayable",
      "type": "function"
    },
    {
      "inputs": [
        {
          "internalType": "bytes32",
          "name": "role",
          "type": "bytes32"
        },
        {
          "internalType": "address",
          "name": "account",
          "type": "address"
        }
      ],
      "name": "hasRole",
      "outputs": [
        {
          "internalType": "bool",
          "name": "",
          "type": "bool"
        }
      ],
      "stateMutability": "view",
      "type": "function"
    },
    {
      "inputs": [
        {
          "internalType": "address",
          "name": "spender",
          "type": "address"
        },
        {
          "internalType": "uint256",
          "name": "addedValue",
          "type": "uint256"
        }
      ],
      "name": "increaseAllowance",
      "outputs": [
        {
          "internalType": "bool",
          "name": "",
          "type": "bool"
        }
      ],
      "stateMutability": "nonpayable",
      "type": "function"
    },
    {
      "inputs": [
        {
          "internalType": "address",
          "name": "forwarder",
          "type": "address"
        }
      ],
      "name": "isTrustedForwarder",
      "outputs": [
        {
          "internalType": "bool",
          "name": "",
          "type": "bool"
        }
      ],
      "stateMutability": "view",
      "type": "function"
    },
    {
      "inputs": [
        {
          "internalType": "address",
          "name": "to",
          "type": "address"
        },
        {
          "internalType": "uint256",
          "name": "amount",
          "type": "uint256"
        }
      ],
      "name": "mint",
      "outputs": [],
      "stateMutability": "nonpayable",
      "type": "function"
    },
    {
      "inputs": [
        {
          "internalType": "bytes[]",
          "name": "data",
          "type": "bytes[]"
        }
      ],
      "name": "multicall",
      "outputs": [
        {
          "internalType": "bytes[]",
          "name": "results",
          "type": "bytes[]"
        }
      ],
      "stateMutability": "nonpayable",
      "type": "function"
    },
    {
      "inputs": [],
      "name": "name",
      "outputs": [
        {
          "internalType": "string",
          "name": "",
          "type": "string"
        }
      ],
      "stateMutability": "view",
      "type": "function"
    },
    {
      "inputs": [
        {
          "internalType": "address",
          "name": "owner",
          "type": "address"
        }
      ],
      "name": "nonces",
      "outputs": [
        {
          "internalType": "uint256",
          "name": "",
          "type": "uint256"
        }
      ],
      "stateMutability": "view",
      "type": "function"
    },
    {
      "inputs": [],
      "name": "pause",
      "outputs": [],
      "stateMutability": "nonpayable",
      "type": "function"
    },
    {
      "inputs": [],
      "name": "paused",
      "outputs": [
        {
          "internalType": "bool",
          "name": "",
          "type": "bool"
        }
      ],
      "stateMutability": "view",
      "type": "function"
    },
    {
      "inputs": [
        {
          "internalType": "address",
          "name": "owner",
          "type": "address"
        },
        {
          "internalType": "address",
          "name": "spender",
          "type": "address"
        },
        {
          "internalType": "uint256",
          "name": "value",
          "type": "uint256"
        },
        {
          "internalType": "uint256",
          "name": "deadline",
          "type": "uint256"
        },
        {
          "internalType": "uint8",
          "name": "v",
          "type": "uint8"
        },
        {
          "internalType": "bytes32",
          "name": "r",
          "type": "bytes32"
        },
        {
          "internalType": "bytes32",
          "name": "s",
          "type": "bytes32"
        }
      ],
      "name": "permit",
      "outputs": [],
      "stateMutability": "nonpayable",
      "type": "function"
    },
    {
      "inputs": [
        {
          "internalType": "bytes32",
          "name": "role",
          "type": "bytes32"
        },
        {
          "internalType": "address",
          "name": "account",
          "type": "address"
        }
      ],
      "name": "renounceRole",
      "outputs": [],
      "stateMutability": "nonpayable",
      "type": "function"
    },
    {
      "inputs": [
        {
          "internalType": "bytes32",
          "name": "role",
          "type": "bytes32"
        },
        {
          "internalType": "address",
          "name": "account",
          "type": "address"
        }
      ],
      "name": "revokeRole",
      "outputs": [],
      "stateMutability": "nonpayable",
      "type": "function"
    },
    {
      "inputs": [
        {
          "internalType": "string",
          "name": "_URI",
          "type": "string"
        }
      ],
      "name": "setContractURI",
      "outputs": [],
      "stateMutability": "nonpayable",
      "type": "function"
    },
    {
      "inputs": [
        {
          "internalType": "bool",
          "name": "_restrictedTransfer",
          "type": "bool"
        }
      ],
      "name": "setRestrictedTransfer",
      "outputs": [],
      "stateMutability": "nonpayable",
      "type": "function"
    },
    {
      "inputs": [
        {
          "internalType": "bytes4",
          "name": "interfaceId",
          "type": "bytes4"
        }
      ],
      "name": "supportsInterface",
      "outputs": [
        {
          "internalType": "bool",
          "name": "",
          "type": "bool"
        }
      ],
      "stateMutability": "view",
      "type": "function"
    },
    {
      "inputs": [],
      "name": "symbol",
      "outputs": [
        {
          "internalType": "string",
          "name": "",
          "type": "string"
        }
      ],
      "stateMutability": "view",
      "type": "function"
    },
    {
      "inputs": [],
      "name": "totalSupply",
      "outputs": [
        {
          "internalType": "uint256",
          "name": "",
          "type": "uint256"
        }
      ],
      "stateMutability": "view",
      "type": "function"
    },
    {
      "inputs": [
        {
          "internalType": "address",
          "name": "recipient",
          "type": "address"
        },
        {
          "internalType": "uint256",
          "name": "amount",
          "type": "uint256"
        }
      ],
      "name": "transfer",
      "outputs": [
        {
          "internalType": "bool",
          "name": "",
          "type": "bool"
        }
      ],
      "stateMutability": "nonpayable",
      "type": "function"
    },
    {
      "inputs": [
        {
          "internalType": "address",
          "name": "sender",
          "type": "address"
        },
        {
          "internalType": "address",
          "name": "recipient",
          "type": "address"
        },
        {
          "internalType": "uint256",
          "name": "amount",
          "type": "uint256"
        }
      ],
      "name": "transferFrom",
      "outputs": [
        {
          "internalType": "bool",
          "name": "",
          "type": "bool"
        }
      ],
      "stateMutability": "nonpayable",
      "type": "function"
    },
    {
      "inputs": [],
      "name": "transfersRestricted",
      "outputs": [
        {
          "internalType": "bool",
          "name": "",
          "type": "bool"
        }
      ],
      "stateMutability": "view",
      "type": "function"
    },
    {
      "inputs": [],
      "name": "unpause",
      "outputs": [],
      "stateMutability": "nonpayable",
      "type": "function"
    }
  ],
  "bytecode": "0x6101406040527f6e71edae12b1b97f4d1f60370fef10105fa2faae0126114a169c64845d6126c9610120523480156200003757600080fd5b506040516200336b3803806200336b8339810160408190526200005a9162000586565b8380604051806040016040528060018152602001603160f81b8152508487878181816005908051906020019062000093929190620003fa565b508051620000a9906006906020840190620003fa565b50506007805460ff1916905550620000cc6000620000c662000234565b62000250565b620000fb7f9f2df0fed2c77648de5860a4cc508cd0818c85b8b8a1ab4ceeef8d981c8956a6620000c662000234565b6200012a7f65d7a28e3265b37a6474929f336521b332c1681b933f6cb9f3376673440d862a620000c662000234565b5050600780546001600160a01b03928316610100908102610100600160a81b031992831617909255845160209586012084519486019490942060c085815260e08290524660a0818152604080517f8b73c3c69bb8fe3d512ecc4cf759cc79239f7b179b0ffacaa9a75d522b39400f818c018190528183019a909a52606081019590955260808086019390935230858301528051808603909201825293909201909252805190870120905292815260098054909316918a16021790558251620001f99250600a91840190620003fa565b50620002297f8502233096d909befbda0999bb8ea2f3a6be3c138b9fbf003752a4c8bce86f6c620000c662000234565b505050505062000680565b60006200024b6200029360201b620011ab1760201c565b905090565b620002678282620002d260201b620011d81760201c565b60008281526001602090815260409091206200028e918390620011e2620002e2821b17901c565b505050565b6007546000906001600160a01b0361010090910416331415620002bd575060131936013560601c90565b6200024b6200030260201b620011f71760201c565b620002de828262000306565b5050565b6000620002f9836001600160a01b038416620003a8565b90505b92915050565b3390565b6000828152602081815260408083206001600160a01b038516845290915290205460ff16620002de576000828152602081815260408083206001600160a01b03851684529091529020805460ff191660011790556200036462000234565b6001600160a01b0316816001600160a01b0316837f2f8788117e7eff1d82e926ec794901d17c78024a50270940304540a733656f0d60405160405180910390a45050565b6000818152600183016020526040812054620003f157508154600181810184556000848152602080822090930184905584548482528286019093526040902091909155620002fc565b506000620002fc565b828054620004089062000643565b90600052602060002090601f0160209004810192826200042c576000855562000477565b82601f106200044757805160ff191683800117855562000477565b8280016001018555821562000477579182015b82811115620004775782518255916020019190600101906200045a565b506200048592915062000489565b5090565b5b808211156200048557600081556001016200048a565b6001600160a01b0381168114620004b657600080fd5b50565b634e487b7160e01b600052604160045260246000fd5b600082601f830112620004e157600080fd5b81516001600160401b0380821115620004fe57620004fe620004b9565b604051601f8301601f19908116603f01168101908282118183101715620005295762000529620004b9565b816040528381526020925086838588010111156200054657600080fd5b600091505b838210156200056a57858201830151818301840152908201906200054b565b838211156200057c5760008385830101525b9695505050505050565b600080600080600060a086880312156200059f57600080fd5b8551620005ac81620004a0565b60208701519095506001600160401b0380821115620005ca57600080fd5b620005d889838a01620004cf565b95506040880151915080821115620005ef57600080fd5b620005fd89838a01620004cf565b9450606088015191506200061182620004a0565b6080880151919350808211156200062757600080fd5b506200063688828901620004cf565b9150509295509295909350565b600181811c908216806200065857607f821691505b602082108114156200067a57634e487b7160e01b600052602260045260246000fd5b50919050565b60805160a05160c05160e0516101005161012051612c9b620006d06000396000611082015260006115eb0152600061163a0152600061161501526000611599015260006115c20152612c9b6000f3fe608060405234801561001057600080fd5b50600436106102ad5760003560e01c80637ecebe001161017b578063a9059cbb116100d8578063d53913931161008c578063dd62ed3e11610071578063dd62ed3e146105cd578063e63ab1e914610606578063e8a3d4851461062d57600080fd5b8063d539139314610593578063d547741f146105ba57600080fd5b8063c0e72740116100bd578063c0e7274014610565578063ca15c8731461056d578063d505accf1461058057600080fd5b8063a9059cbb14610532578063ac9650d81461054557600080fd5b806391d148541161012f57806395d89b411161011457806395d89b411461050f578063a217fddf14610517578063a457c2d71461051f57600080fd5b806391d14854146104c5578063938e3d7b146104fc57600080fd5b80638456cb59116101605780638456cb591461047f5780638ba448c2146104875780639010d07c1461049a57600080fd5b80637ecebe001461045f5780638423df791461047257600080fd5b80633644e5151161022957806342966c68116101dd5780635c975abb116101c25780635c975abb1461041857806370a082311461042357806379cc67901461044c57600080fd5b806342966c68146103de578063572b6c05146103f157600080fd5b8063395093511161020e57806339509351146103b05780633f4ba83a146103c357806340c10f19146103cb57600080fd5b80633644e5151461039557806336568abe1461039d57600080fd5b8063206b60f911610280578063248a9ca311610265578063248a9ca31461034e5780632f2ff15d14610371578063313ce5671461038657600080fd5b8063206b60f91461031457806323b872dd1461033b57600080fd5b806301ffc9a7146102b257806306fdde03146102da578063095ea7b3146102ef57806318160ddd14610302575b600080fd5b6102c56102c036600461268b565b610635565b60405190151581526020015b60405180910390f35b6102e2610660565b6040516102d1919061270d565b6102c56102fd36600461273c565b6106f2565b6004545b6040519081526020016102d1565b6103067f8502233096d909befbda0999bb8ea2f3a6be3c138b9fbf003752a4c8bce86f6c81565b6102c5610349366004612766565b61070f565b61030661035c3660046127a2565b60009081526020819052604090206001015490565b61038461037f3660046127bb565b6107fc565b005b604051601281526020016102d1565b610306610823565b6103846103ab3660046127bb565b610832565b6102c56103be36600461273c565b610854565b6103846108a8565b6103846103d936600461273c565b610950565b6103846103ec3660046127a2565b6109fc565b6102c56103ff3660046127e7565b60075461010090046001600160a01b0390811691161490565b60075460ff166102c5565b6103066104313660046127e7565b6001600160a01b031660009081526002602052604090205490565b61038461045a36600461273c565b610a10565b61030661046d3660046127e7565b610a9a565b6009546102c59060ff1681565b610384610ab8565b610384610495366004612810565b610b5e565b6104ad6104a836600461282d565b610bfe565b6040516001600160a01b0390911681526020016102d1565b6102c56104d33660046127bb565b6000918252602082815260408084206001600160a01b0393909316845291905290205460ff1690565b61038461050a36600461284f565b610c16565b6102e2610da2565b610306600081565b6102c561052d36600461273c565b610db1565b6102c561054036600461273c565b610e80565b6105586105533660046128c1565b610e94565b6040516102d19190612924565b6102e2610f89565b61030661057b3660046127a2565b611017565b61038461058e366004612986565b61102e565b6103067f9f2df0fed2c77648de5860a4cc508cd0818c85b8b8a1ab4ceeef8d981c8956a681565b6103846105c83660046127bb565b611192565b6103066105db3660046129f9565b6001600160a01b03918216600090815260036020908152604080832093909416825291909152205490565b6103067f65d7a28e3265b37a6474929f336521b332c1681b933f6cb9f3376673440d862a81565b6102e261119c565b60006001600160e01b03198216635a05180f60e01b148061065a575061065a826111fb565b92915050565b60606005805461066f90612a23565b80601f016020809104026020016040519081016040528092919081815260200182805461069b90612a23565b80156106e85780601f106106bd576101008083540402835291602001916106e8565b820191906000526020600020905b8154815290600101906020018083116106cb57829003601f168201915b5050505050905090565b60006107066106ff611230565b848461123a565b50600192915050565b600061071c84848461135e565b6001600160a01b03841660009081526003602052604081208161073d611230565b6001600160a01b03166001600160a01b03168152602001908152602001600020549050828110156107db5760405162461bcd60e51b815260206004820152602860248201527f45524332303a207472616e7366657220616d6f756e742065786365656473206160448201527f6c6c6f77616e636500000000000000000000000000000000000000000000000060648201526084015b60405180910390fd5b6107ef856107e7611230565b85840361123a565b60019150505b9392505050565b6108068282611568565b600082815260016020526040902061081e90826111e2565b505050565b600061082d611595565b905090565b61083c8282611688565b600082815260016020526040902061081e9082611720565b6000610706610861611230565b84846003600061086f611230565b6001600160a01b03908116825260208083019390935260409182016000908120918b16815292529020546108a39190612a6e565b61123a565b6108d47f65d7a28e3265b37a6474929f336521b332c1681b933f6cb9f3376673440d862a6104d3611230565b6109465760405162461bcd60e51b815260206004820152603960248201527f45524332305072657365744d696e7465725061757365723a206d75737420686160448201527f76652070617573657220726f6c6520746f20756e70617573650000000000000060648201526084016107d2565b61094e611735565b565b61097c7f9f2df0fed2c77648de5860a4cc508cd0818c85b8b8a1ab4ceeef8d981c8956a66104d3611230565b6109ee5760405162461bcd60e51b815260206004820152603660248201527f45524332305072657365744d696e7465725061757365723a206d75737420686160448201527f7665206d696e74657220726f6c6520746f206d696e740000000000000000000060648201526084016107d2565b6109f882826117d7565b5050565b610a0d610a07611230565b826118c2565b50565b6000610a1e836105db611230565b905081811015610a7c5760405162461bcd60e51b8152602060048201526024808201527f45524332303a206275726e20616d6f756e74206578636565647320616c6c6f77604482015263616e636560e01b60648201526084016107d2565b610a9083610a88611230565b84840361123a565b61081e83836118c2565b6001600160a01b03811660009081526008602052604081205461065a565b610ae47f65d7a28e3265b37a6474929f336521b332c1681b933f6cb9f3376673440d862a6104d3611230565b610b565760405162461bcd60e51b815260206004820152603760248201527f45524332305072657365744d696e7465725061757365723a206d75737420686160448201527f76652070617573657220726f6c6520746f20706175736500000000000000000060648201526084016107d2565b61094e611a1c565b610b6b60006104d3611230565b610bb75760405162461bcd60e51b815260206004820152601660248201527f6f6e6c79206d6f64756c652061646d696e20726f6c650000000000000000000060448201526064016107d2565b6009805460ff19168215159081179091556040519081527ffb4ba02cee22486df888d7ffb97c6100ec3193781e025cb9a4bc6fc358d626cc9060200160405180910390a150565b60008281526001602052604081206107f59083611aa5565b6009546040805163a217fddf60e01b815290516101009092046001600160a01b0316916391d1485491839163a217fddf91600480820192602092909190829003018186803b158015610c6757600080fd5b505afa158015610c7b573d6000803e3d6000fd5b505050506040513d601f19601f82011682018060405250810190610c9f9190612a86565b610ca7611230565b6040516001600160e01b031960e085901b16815260048101929092526001600160a01b0316602482015260440160206040518083038186803b158015610cec57600080fd5b505afa158015610d00573d6000803e3d6000fd5b505050506040513d601f19601f82011682018060405250810190610d249190612a9f565b610d965760405162461bcd60e51b815260206004820152603360248201527f436f696e3a206f6e6c7920612070726f746f636f6c2061646d696e2063616e2060448201527f63616c6c20746869732066756e6374696f6e2e0000000000000000000000000060648201526084016107d2565b61081e600a83836125f2565b60606006805461066f90612a23565b60008060036000610dc0611230565b6001600160a01b0390811682526020808301939093526040918201600090812091881681529252902054905082811015610e625760405162461bcd60e51b815260206004820152602560248201527f45524332303a2064656372656173656420616c6c6f77616e63652062656c6f7760448201527f207a65726f00000000000000000000000000000000000000000000000000000060648201526084016107d2565b610e76610e6d611230565b8585840361123a565b5060019392505050565b6000610706610e8d611230565b848461135e565b60608167ffffffffffffffff811115610eaf57610eaf612abc565b604051908082528060200260200182016040528015610ee257816020015b6060815260200190600190039081610ecd5790505b50905060005b82811015610f8257610f5230858584818110610f0657610f06612ad2565b9050602002810190610f189190612ae8565b8080601f016020809104026020016040519081016040528093929190818152602001838380828437600092019190915250611ab192505050565b828281518110610f6457610f64612ad2565b60200260200101819052508080610f7a90612b36565b915050610ee8565b5092915050565b600a8054610f9690612a23565b80601f0160208091040260200160405190810160405280929190818152602001828054610fc290612a23565b801561100f5780601f10610fe45761010080835404028352916020019161100f565b820191906000526020600020905b815481529060010190602001808311610ff257829003601f168201915b505050505081565b600081815260016020526040812061065a90611ad6565b8342111561107e5760405162461bcd60e51b815260206004820152601d60248201527f45524332305065726d69743a206578706972656420646561646c696e6500000060448201526064016107d2565b60007f00000000000000000000000000000000000000000000000000000000000000008888886110ad8c611ae0565b6040805160208101969096526001600160a01b0394851690860152929091166060840152608083015260a082015260c0810186905260e001604051602081830303815290604052805190602001209050600061110882611b08565b9050600061111882878787611b56565b9050896001600160a01b0316816001600160a01b03161461117b5760405162461bcd60e51b815260206004820152601e60248201527f45524332305065726d69743a20696e76616c6964207369676e6174757265000060448201526064016107d2565b6111868a8a8a61123a565b50505050505050505050565b61083c8282611b7e565b6060600a805461066f90612a23565b60075460009061010090046001600160a01b03163314156111d3575060131936013560601c90565b503390565b6109f88282611ba6565b60006107f5836001600160a01b038416611c45565b3390565b60006001600160e01b03198216637965db0b60e01b148061065a57506301ffc9a760e01b6001600160e01b031983161461065a565b600061082d6111ab565b6001600160a01b03831661129c5760405162461bcd60e51b8152602060048201526024808201527f45524332303a20617070726f76652066726f6d20746865207a65726f206164646044820152637265737360e01b60648201526084016107d2565b6001600160a01b0382166112fd5760405162461bcd60e51b815260206004820152602260248201527f45524332303a20617070726f766520746f20746865207a65726f206164647265604482015261737360f01b60648201526084016107d2565b6001600160a01b0383811660008181526003602090815260408083209487168084529482529182902085905590518481527f8c5be1e5ebec7d5bd14f71427d1e84f3dd0314c0f7b2291e5b200ac8c7c3b925910160405180910390a3505050565b6001600160a01b0383166113da5760405162461bcd60e51b815260206004820152602560248201527f45524332303a207472616e736665722066726f6d20746865207a65726f20616460448201527f647265737300000000000000000000000000000000000000000000000000000060648201526084016107d2565b6001600160a01b03821661143c5760405162461bcd60e51b815260206004820152602360248201527f45524332303a207472616e7366657220746f20746865207a65726f206164647260448201526265737360e81b60648201526084016107d2565b611447838383611c94565b6001600160a01b038316600090815260026020526040902054818110156114d65760405162461bcd60e51b815260206004820152602660248201527f45524332303a207472616e7366657220616d6f756e742065786365656473206260448201527f616c616e6365000000000000000000000000000000000000000000000000000060648201526084016107d2565b6001600160a01b0380851660009081526002602052604080822085850390559185168152908120805484929061150d908490612a6e565b92505081905550826001600160a01b0316846001600160a01b03167fddf252ad1be2c89b69c2b068fc378daa952ba7f163c4a11628f55a4df523b3ef8460405161155991815260200190565b60405180910390a35b50505050565b60008281526020819052604090206001015461158b81611586611230565b611dc1565b61081e8383611ba6565b60007f00000000000000000000000000000000000000000000000000000000000000004614156115e457507f000000000000000000000000000000000000000000000000000000000000000090565b50604080517f00000000000000000000000000000000000000000000000000000000000000006020808301919091527f0000000000000000000000000000000000000000000000000000000000000000828401527f000000000000000000000000000000000000000000000000000000000000000060608301524660808301523060a0808401919091528351808403909101815260c0909201909252805191012090565b611690611230565b6001600160a01b0316816001600160a01b0316146117165760405162461bcd60e51b815260206004820152602f60248201527f416363657373436f6e74726f6c3a2063616e206f6e6c792072656e6f756e636560448201527f20726f6c657320666f722073656c66000000000000000000000000000000000060648201526084016107d2565b6109f88282611e3f565b60006107f5836001600160a01b038416611edc565b60075460ff166117875760405162461bcd60e51b815260206004820152601460248201527f5061757361626c653a206e6f742070617573656400000000000000000000000060448201526064016107d2565b6007805460ff191690557f5db9ee0a495bf2e6ff9c91a7834c1ba4fdd244a5e8aa4e537bd38aeae4b073aa6117ba611230565b6040516001600160a01b03909116815260200160405180910390a1565b6001600160a01b03821661182d5760405162461bcd60e51b815260206004820152601f60248201527f45524332303a206d696e7420746f20746865207a65726f20616464726573730060448201526064016107d2565b61183960008383611c94565b806004600082825461184b9190612a6e565b90915550506001600160a01b03821660009081526002602052604081208054839290611878908490612a6e565b90915550506040518181526001600160a01b038316906000907fddf252ad1be2c89b69c2b068fc378daa952ba7f163c4a11628f55a4df523b3ef9060200160405180910390a35050565b6001600160a01b0382166119225760405162461bcd60e51b815260206004820152602160248201527f45524332303a206275726e2066726f6d20746865207a65726f206164647265736044820152607360f81b60648201526084016107d2565b61192e82600083611c94565b6001600160a01b038216600090815260026020526040902054818110156119a25760405162461bcd60e51b815260206004820152602260248201527f45524332303a206275726e20616d6f756e7420657863656564732062616c616e604482015261636560f01b60648201526084016107d2565b6001600160a01b03831660009081526002602052604081208383039055600480548492906119d1908490612b51565b90915550506040518281526000906001600160a01b038516907fddf252ad1be2c89b69c2b068fc378daa952ba7f163c4a11628f55a4df523b3ef9060200160405180910390a3505050565b60075460ff1615611a6f5760405162461bcd60e51b815260206004820152601060248201527f5061757361626c653a207061757365640000000000000000000000000000000060448201526064016107d2565b6007805460ff191660011790557f62e78cea01bee320cd4e420270b5ea74000d11b0c9f74754ebdbfc544b05a2586117ba611230565b60006107f58383611fcf565b60606107f58383604051806060016040528060278152602001612c6860279139611ff9565b600061065a825490565b6001600160a01b03811660009081526008602052604090208054600181018255905b50919050565b600061065a611b15611595565b8360405161190160f01b6020820152602281018390526042810182905260009060620160405160208183030381529060405280519060200120905092915050565b6000806000611b67878787876120e4565b91509150611b74816121d1565b5095945050505050565b600082815260208190526040902060010154611b9c81611586611230565b61081e8383611e3f565b6000828152602081815260408083206001600160a01b038516845290915290205460ff166109f8576000828152602081815260408083206001600160a01b03851684529091529020805460ff19166001179055611c01611230565b6001600160a01b0316816001600160a01b0316837f2f8788117e7eff1d82e926ec794901d17c78024a50270940304540a733656f0d60405160405180910390a45050565b6000818152600183016020526040812054611c8c5750815460018181018455600084815260208082209093018490558454848252828601909352604090209190915561065a565b50600061065a565b611c9f83838361238c565b60095460ff168015611cb957506001600160a01b03831615155b8015611ccd57506001600160a01b03821615155b1561081e576001600160a01b03831660009081527f7c7a990f752005aea38438cc35abc5417bd322e6c964ec21d52573494225142c602052604090205460ff1680611d4f57506001600160a01b03821660009081527f7c7a990f752005aea38438cc35abc5417bd322e6c964ec21d52573494225142c602052604090205460ff165b61081e5760405162461bcd60e51b815260206004820152603760248201527f436f696e3a205472616e7366657273206172652072657374726963746564207460448201527f6f205452414e534645525f524f4c4520686f6c6465727300000000000000000060648201526084016107d2565b6000828152602081815260408083206001600160a01b038516845290915290205460ff166109f857611dfd816001600160a01b03166014612397565b611e08836020612397565b604051602001611e19929190612b68565b60408051601f198184030181529082905262461bcd60e51b82526107d29160040161270d565b6000828152602081815260408083206001600160a01b038516845290915290205460ff16156109f8576000828152602081815260408083206001600160a01b03851684529091529020805460ff19169055611e98611230565b6001600160a01b0316816001600160a01b0316837ff6391f5c32d9c69d2a47ea670b442974b53935d1edc7fd64eb21e047a839171b60405160405180910390a45050565b60008181526001830160205260408120548015611fc5576000611f00600183612b51565b8554909150600090611f1490600190612b51565b9050818114611f79576000866000018281548110611f3457611f34612ad2565b9060005260206000200154905080876000018481548110611f5757611f57612ad2565b6000918252602080832090910192909255918252600188019052604090208390555b8554869080611f8a57611f8a612be9565b60019003818190600052602060002001600090559055856001016000868152602001908152602001600020600090556001935050505061065a565b600091505061065a565b6000826000018281548110611fe657611fe6612ad2565b9060005260206000200154905092915050565b6060833b61206f5760405162461bcd60e51b815260206004820152602660248201527f416464726573733a2064656c65676174652063616c6c20746f206e6f6e2d636f60448201527f6e7472616374000000000000000000000000000000000000000000000000000060648201526084016107d2565b600080856001600160a01b03168560405161208a9190612bff565b600060405180830381855af49150503d80600081146120c5576040519150601f19603f3d011682016040523d82523d6000602084013e6120ca565b606091505b50915091506120da828286612540565b9695505050505050565b6000807f7fffffffffffffffffffffffffffffff5d576e7357a4501ddfe92f46681b20a083111561211b57506000905060036121c8565b8460ff16601b1415801561213357508460ff16601c14155b1561214457506000905060046121c8565b6040805160008082526020820180845289905260ff881692820192909252606081018690526080810185905260019060a0016020604051602081039080840390855afa158015612198573d6000803e3d6000fd5b5050604051601f1901519150506001600160a01b0381166121c1576000600192509250506121c8565b9150600090505b94509492505050565b60008160048111156121e5576121e5612c1b565b14156121ee5750565b600181600481111561220257612202612c1b565b14156122505760405162461bcd60e51b815260206004820152601860248201527f45434453413a20696e76616c6964207369676e6174757265000000000000000060448201526064016107d2565b600281600481111561226457612264612c1b565b14156122b25760405162461bcd60e51b815260206004820152601f60248201527f45434453413a20696e76616c6964207369676e6174757265206c656e6774680060448201526064016107d2565b60038160048111156122c6576122c6612c1b565b141561231f5760405162461bcd60e51b815260206004820152602260248201527f45434453413a20696e76616c6964207369676e6174757265202773272076616c604482015261756560f01b60648201526084016107d2565b600481600481111561233357612333612c1b565b1415610a0d5760405162461bcd60e51b815260206004820152602260248201527f45434453413a20696e76616c6964207369676e6174757265202776272076616c604482015261756560f01b60648201526084016107d2565b61081e838383612579565b606060006123a6836002612c31565b6123b1906002612a6e565b67ffffffffffffffff8111156123c9576123c9612abc565b6040519080825280601f01601f1916602001820160405280156123f3576020820181803683370190505b509050600360fc1b8160008151811061240e5761240e612ad2565b60200101906001600160f81b031916908160001a905350600f60fb1b8160018151811061243d5761243d612ad2565b60200101906001600160f81b031916908160001a9053506000612461846002612c31565b61246c906001612a6e565b90505b60018111156124f1577f303132333435363738396162636465660000000000000000000000000000000085600f16601081106124ad576124ad612ad2565b1a60f81b8282815181106124c3576124c3612ad2565b60200101906001600160f81b031916908160001a90535060049490941c936124ea81612c50565b905061246f565b5083156107f55760405162461bcd60e51b815260206004820181905260248201527f537472696e67733a20686578206c656e67746820696e73756666696369656e7460448201526064016107d2565b6060831561254f5750816107f5565b82511561255f5782518084602001fd5b8160405162461bcd60e51b81526004016107d2919061270d565b60075460ff161561081e5760405162461bcd60e51b815260206004820152602a60248201527f45524332305061757361626c653a20746f6b656e207472616e7366657220776860448201527f696c65207061757365640000000000000000000000000000000000000000000060648201526084016107d2565b8280546125fe90612a23565b90600052602060002090601f0160209004810192826126205760008555612666565b82601f106126395782800160ff19823516178555612666565b82800160010185558215612666579182015b8281111561266657823582559160200191906001019061264b565b50612672929150612676565b5090565b5b808211156126725760008155600101612677565b60006020828403121561269d57600080fd5b81356001600160e01b0319811681146107f557600080fd5b60005b838110156126d05781810151838201526020016126b8565b838111156115625750506000910152565b600081518084526126f98160208601602086016126b5565b601f01601f19169290920160200192915050565b6020815260006107f560208301846126e1565b80356001600160a01b038116811461273757600080fd5b919050565b6000806040838503121561274f57600080fd5b61275883612720565b946020939093013593505050565b60008060006060848603121561277b57600080fd5b61278484612720565b925061279260208501612720565b9150604084013590509250925092565b6000602082840312156127b457600080fd5b5035919050565b600080604083850312156127ce57600080fd5b823591506127de60208401612720565b90509250929050565b6000602082840312156127f957600080fd5b6107f582612720565b8015158114610a0d57600080fd5b60006020828403121561282257600080fd5b81356107f581612802565b6000806040838503121561284057600080fd5b50508035926020909101359150565b6000806020838503121561286257600080fd5b823567ffffffffffffffff8082111561287a57600080fd5b818501915085601f83011261288e57600080fd5b81358181111561289d57600080fd5b8660208285010111156128af57600080fd5b60209290920196919550909350505050565b600080602083850312156128d457600080fd5b823567ffffffffffffffff808211156128ec57600080fd5b818501915085601f83011261290057600080fd5b81358181111561290f57600080fd5b8660208260051b85010111156128af57600080fd5b6000602080830181845280855180835260408601915060408160051b870101925083870160005b8281101561297957603f198886030184526129678583516126e1565b9450928501929085019060010161294b565b5092979650505050505050565b600080600080600080600060e0888a0312156129a157600080fd5b6129aa88612720565b96506129b860208901612720565b95506040880135945060608801359350608088013560ff811681146129dc57600080fd5b9699959850939692959460a0840135945060c09093013592915050565b60008060408385031215612a0c57600080fd5b612a1583612720565b91506127de60208401612720565b600181811c90821680612a3757607f821691505b60208210811415611b0257634e487b7160e01b600052602260045260246000fd5b634e487b7160e01b600052601160045260246000fd5b60008219821115612a8157612a81612a58565b500190565b600060208284031215612a9857600080fd5b5051919050565b600060208284031215612ab157600080fd5b81516107f581612802565b634e487b7160e01b600052604160045260246000fd5b634e487b7160e01b600052603260045260246000fd5b6000808335601e19843603018112612aff57600080fd5b83018035915067ffffffffffffffff821115612b1a57600080fd5b602001915036819003821315612b2f57600080fd5b9250929050565b6000600019821415612b4a57612b4a612a58565b5060010190565b600082821015612b6357612b63612a58565b500390565b7f416363657373436f6e74726f6c3a206163636f756e7420000000000000000000815260008351612ba08160178501602088016126b5565b7f206973206d697373696e6720726f6c65200000000000000000000000000000006017918401918201528351612bdd8160288401602088016126b5565b01602801949350505050565b634e487b7160e01b600052603160045260246000fd5b60008251612c118184602087016126b5565b9190910192915050565b634e487b7160e01b600052602160045260246000fd5b6000816000190483118215151615612c4b57612c4b612a58565b500290565b600081612c5f57612c5f612a58565b50600019019056fe416464726573733a206c6f772d6c6576656c2064656c65676174652063616c6c206661696c6564a164736f6c6343000809000a",
  "linkReferences": {},
  "deployedLinkReferences": {}
}