{
  "_format": "hh-sol-artifact-1",
  "contractName": "Coin",
  "sourceName": "contracts/Coin.sol",
  "abi": [
    {
      "inputs": [
        {
          "internalType": "address",
          "name": "_controlCenter",
          "type": "address"
        },
        {
          "internalType": "string",
          "name": "_name",
          "type": "string"
        },
        {
          "internalType": "string",
          "name": "_symbol",
          "type": "string"
        },
        {
          "internalType": "address",
          "name": "_trustedForwarder",
          "type": "address"
        },
        {
          "internalType": "string",
          "name": "_uri",
          "type": "string"
        }
      ],
      "stateMutability": "nonpayable",
      "type": "constructor"
    },
    {
      "anonymous": false,
      "inputs": [
        {
          "indexed": true,
          "internalType": "address",
          "name": "owner",
          "type": "address"
        },
        {
          "indexed": true,
          "internalType": "address",
          "name": "spender",
          "type": "address"
        },
        {
          "indexed": false,
          "internalType": "uint256",
          "name": "value",
          "type": "uint256"
        }
      ],
      "name": "Approval",
      "type": "event"
    },
    {
      "anonymous": false,
      "inputs": [
        {
          "indexed": false,
          "internalType": "address",
          "name": "account",
          "type": "address"
        }
      ],
      "name": "Paused",
      "type": "event"
    },
    {
      "anonymous": false,
      "inputs": [
        {
          "indexed": false,
          "internalType": "bool",
          "name": "transferable",
          "type": "bool"
        }
      ],
      "name": "RestrictedTransferUpdated",
      "type": "event"
    },
    {
      "anonymous": false,
      "inputs": [
        {
          "indexed": true,
          "internalType": "bytes32",
          "name": "role",
          "type": "bytes32"
        },
        {
          "indexed": true,
          "internalType": "bytes32",
          "name": "previousAdminRole",
          "type": "bytes32"
        },
        {
          "indexed": true,
          "internalType": "bytes32",
          "name": "newAdminRole",
          "type": "bytes32"
        }
      ],
      "name": "RoleAdminChanged",
      "type": "event"
    },
    {
      "anonymous": false,
      "inputs": [
        {
          "indexed": true,
          "internalType": "bytes32",
          "name": "role",
          "type": "bytes32"
        },
        {
          "indexed": true,
          "internalType": "address",
          "name": "account",
          "type": "address"
        },
        {
          "indexed": true,
          "internalType": "address",
          "name": "sender",
          "type": "address"
        }
      ],
      "name": "RoleGranted",
      "type": "event"
    },
    {
      "anonymous": false,
      "inputs": [
        {
          "indexed": true,
          "internalType": "bytes32",
          "name": "role",
          "type": "bytes32"
        },
        {
          "indexed": true,
          "internalType": "address",
          "name": "account",
          "type": "address"
        },
        {
          "indexed": true,
          "internalType": "address",
          "name": "sender",
          "type": "address"
        }
      ],
      "name": "RoleRevoked",
      "type": "event"
    },
    {
      "anonymous": false,
      "inputs": [
        {
          "indexed": true,
          "internalType": "address",
          "name": "from",
          "type": "address"
        },
        {
          "indexed": true,
          "internalType": "address",
          "name": "to",
          "type": "address"
        },
        {
          "indexed": false,
          "internalType": "uint256",
          "name": "value",
          "type": "uint256"
        }
      ],
      "name": "Transfer",
      "type": "event"
    },
    {
      "anonymous": false,
      "inputs": [
        {
          "indexed": false,
          "internalType": "address",
          "name": "account",
          "type": "address"
        }
      ],
      "name": "Unpaused",
      "type": "event"
    },
    {
      "inputs": [],
      "name": "DEFAULT_ADMIN_ROLE",
      "outputs": [
        {
          "internalType": "bytes32",
          "name": "",
          "type": "bytes32"
        }
      ],
      "stateMutability": "view",
      "type": "function"
    },
    {
      "inputs": [],
      "name": "DOMAIN_SEPARATOR",
      "outputs": [
        {
          "internalType": "bytes32",
          "name": "",
          "type": "bytes32"
        }
      ],
      "stateMutability": "view",
      "type": "function"
    },
    {
      "inputs": [],
      "name": "MINTER_ROLE",
      "outputs": [
        {
          "internalType": "bytes32",
          "name": "",
          "type": "bytes32"
        }
      ],
      "stateMutability": "view",
      "type": "function"
    },
    {
      "inputs": [],
      "name": "PAUSER_ROLE",
      "outputs": [
        {
          "internalType": "bytes32",
          "name": "",
          "type": "bytes32"
        }
      ],
      "stateMutability": "view",
      "type": "function"
    },
    {
      "inputs": [],
      "name": "TRANSFER_ROLE",
      "outputs": [
        {
          "internalType": "bytes32",
          "name": "",
          "type": "bytes32"
        }
      ],
      "stateMutability": "view",
      "type": "function"
    },
    {
      "inputs": [],
      "name": "_contractURI",
      "outputs": [
        {
          "internalType": "string",
          "name": "",
          "type": "string"
        }
      ],
      "stateMutability": "view",
      "type": "function"
    },
    {
      "inputs": [
        {
          "internalType": "address",
          "name": "owner",
          "type": "address"
        },
        {
          "internalType": "address",
          "name": "spender",
          "type": "address"
        }
      ],
      "name": "allowance",
      "outputs": [
        {
          "internalType": "uint256",
          "name": "",
          "type": "uint256"
        }
      ],
      "stateMutability": "view",
      "type": "function"
    },
    {
      "inputs": [
        {
          "internalType": "address",
          "name": "spender",
          "type": "address"
        },
        {
          "internalType": "uint256",
          "name": "amount",
          "type": "uint256"
        }
      ],
      "name": "approve",
      "outputs": [
        {
          "internalType": "bool",
          "name": "",
          "type": "bool"
        }
      ],
      "stateMutability": "nonpayable",
      "type": "function"
    },
    {
      "inputs": [
        {
          "internalType": "address",
          "name": "account",
          "type": "address"
        }
      ],
      "name": "balanceOf",
      "outputs": [
        {
          "internalType": "uint256",
          "name": "",
          "type": "uint256"
        }
      ],
      "stateMutability": "view",
      "type": "function"
    },
    {
      "inputs": [
        {
          "internalType": "uint256",
          "name": "amount",
          "type": "uint256"
        }
      ],
      "name": "burn",
      "outputs": [],
      "stateMutability": "nonpayable",
      "type": "function"
    },
    {
      "inputs": [
        {
          "internalType": "address",
          "name": "account",
          "type": "address"
        },
        {
          "internalType": "uint256",
          "name": "amount",
          "type": "uint256"
        }
      ],
      "name": "burnFrom",
      "outputs": [],
      "stateMutability": "nonpayable",
      "type": "function"
    },
    {
      "inputs": [],
      "name": "contractURI",
      "outputs": [
        {
          "internalType": "string",
          "name": "",
          "type": "string"
        }
      ],
      "stateMutability": "view",
      "type": "function"
    },
    {
      "inputs": [],
      "name": "decimals",
      "outputs": [
        {
          "internalType": "uint8",
          "name": "",
          "type": "uint8"
        }
      ],
      "stateMutability": "view",
      "type": "function"
    },
    {
      "inputs": [
        {
          "internalType": "address",
          "name": "spender",
          "type": "address"
        },
        {
          "internalType": "uint256",
          "name": "subtractedValue",
          "type": "uint256"
        }
      ],
      "name": "decreaseAllowance",
      "outputs": [
        {
          "internalType": "bool",
          "name": "",
          "type": "bool"
        }
      ],
      "stateMutability": "nonpayable",
      "type": "function"
    },
    {
      "inputs": [
        {
          "internalType": "bytes32",
          "name": "role",
          "type": "bytes32"
        }
      ],
      "name": "getRoleAdmin",
      "outputs": [
        {
          "internalType": "bytes32",
          "name": "",
          "type": "bytes32"
        }
      ],
      "stateMutability": "view",
      "type": "function"
    },
    {
      "inputs": [
        {
          "internalType": "bytes32",
          "name": "role",
          "type": "bytes32"
        },
        {
          "internalType": "uint256",
          "name": "index",
          "type": "uint256"
        }
      ],
      "name": "getRoleMember",
      "outputs": [
        {
          "internalType": "address",
          "name": "",
          "type": "address"
        }
      ],
      "stateMutability": "view",
      "type": "function"
    },
    {
      "inputs": [
        {
          "internalType": "bytes32",
          "name": "role",
          "type": "bytes32"
        }
      ],
      "name": "getRoleMemberCount",
      "outputs": [
        {
          "internalType": "uint256",
          "name": "",
          "type": "uint256"
        }
      ],
      "stateMutability": "view",
      "type": "function"
    },
    {
      "inputs": [
        {
          "internalType": "bytes32",
          "name": "role",
          "type": "bytes32"
        },
        {
          "internalType": "address",
          "name": "account",
          "type": "address"
        }
      ],
      "name": "grantRole",
      "outputs": [],
      "stateMutability": "nonpayable",
      "type": "function"
    },
    {
      "inputs": [
        {
          "internalType": "bytes32",
          "name": "role",
          "type": "bytes32"
        },
        {
          "internalType": "address",
          "name": "account",
          "type": "address"
        }
      ],
      "name": "hasRole",
      "outputs": [
        {
          "internalType": "bool",
          "name": "",
          "type": "bool"
        }
      ],
      "stateMutability": "view",
      "type": "function"
    },
    {
      "inputs": [
        {
          "internalType": "address",
          "name": "spender",
          "type": "address"
        },
        {
          "internalType": "uint256",
          "name": "addedValue",
          "type": "uint256"
        }
      ],
      "name": "increaseAllowance",
      "outputs": [
        {
          "internalType": "bool",
          "name": "",
          "type": "bool"
        }
      ],
      "stateMutability": "nonpayable",
      "type": "function"
    },
    {
      "inputs": [
        {
          "internalType": "address",
          "name": "forwarder",
          "type": "address"
        }
      ],
      "name": "isTrustedForwarder",
      "outputs": [
        {
          "internalType": "bool",
          "name": "",
          "type": "bool"
        }
      ],
      "stateMutability": "view",
      "type": "function"
    },
    {
      "inputs": [
        {
          "internalType": "address",
          "name": "to",
          "type": "address"
        },
        {
          "internalType": "uint256",
          "name": "amount",
          "type": "uint256"
        }
      ],
      "name": "mint",
      "outputs": [],
      "stateMutability": "nonpayable",
      "type": "function"
    },
    {
      "inputs": [
        {
          "internalType": "bytes[]",
          "name": "data",
          "type": "bytes[]"
        }
      ],
      "name": "multicall",
      "outputs": [
        {
          "internalType": "bytes[]",
          "name": "results",
          "type": "bytes[]"
        }
      ],
      "stateMutability": "nonpayable",
      "type": "function"
    },
    {
      "inputs": [],
      "name": "name",
      "outputs": [
        {
          "internalType": "string",
          "name": "",
          "type": "string"
        }
      ],
      "stateMutability": "view",
      "type": "function"
    },
    {
      "inputs": [
        {
          "internalType": "address",
          "name": "owner",
          "type": "address"
        }
      ],
      "name": "nonces",
      "outputs": [
        {
          "internalType": "uint256",
          "name": "",
          "type": "uint256"
        }
      ],
      "stateMutability": "view",
      "type": "function"
    },
    {
      "inputs": [],
      "name": "pause",
      "outputs": [],
      "stateMutability": "nonpayable",
      "type": "function"
    },
    {
      "inputs": [],
      "name": "paused",
      "outputs": [
        {
          "internalType": "bool",
          "name": "",
          "type": "bool"
        }
      ],
      "stateMutability": "view",
      "type": "function"
    },
    {
      "inputs": [
        {
          "internalType": "address",
          "name": "owner",
          "type": "address"
        },
        {
          "internalType": "address",
          "name": "spender",
          "type": "address"
        },
        {
          "internalType": "uint256",
          "name": "value",
          "type": "uint256"
        },
        {
          "internalType": "uint256",
          "name": "deadline",
          "type": "uint256"
        },
        {
          "internalType": "uint8",
          "name": "v",
          "type": "uint8"
        },
        {
          "internalType": "bytes32",
          "name": "r",
          "type": "bytes32"
        },
        {
          "internalType": "bytes32",
          "name": "s",
          "type": "bytes32"
        }
      ],
      "name": "permit",
      "outputs": [],
      "stateMutability": "nonpayable",
      "type": "function"
    },
    {
      "inputs": [
        {
          "internalType": "bytes32",
          "name": "role",
          "type": "bytes32"
        },
        {
          "internalType": "address",
          "name": "account",
          "type": "address"
        }
      ],
      "name": "renounceRole",
      "outputs": [],
      "stateMutability": "nonpayable",
      "type": "function"
    },
    {
      "inputs": [
        {
          "internalType": "bytes32",
          "name": "role",
          "type": "bytes32"
        },
        {
          "internalType": "address",
          "name": "account",
          "type": "address"
        }
      ],
      "name": "revokeRole",
      "outputs": [],
      "stateMutability": "nonpayable",
      "type": "function"
    },
    {
      "inputs": [
        {
          "internalType": "string",
          "name": "_URI",
          "type": "string"
        }
      ],
      "name": "setContractURI",
      "outputs": [],
      "stateMutability": "nonpayable",
      "type": "function"
    },
    {
      "inputs": [
        {
          "internalType": "bool",
          "name": "_restrictedTransfer",
          "type": "bool"
        }
      ],
      "name": "setRestrictedTransfer",
      "outputs": [],
      "stateMutability": "nonpayable",
      "type": "function"
    },
    {
      "inputs": [
        {
          "internalType": "bytes4",
          "name": "interfaceId",
          "type": "bytes4"
        }
      ],
      "name": "supportsInterface",
      "outputs": [
        {
          "internalType": "bool",
          "name": "",
          "type": "bool"
        }
      ],
      "stateMutability": "view",
      "type": "function"
    },
    {
      "inputs": [],
      "name": "symbol",
      "outputs": [
        {
          "internalType": "string",
          "name": "",
          "type": "string"
        }
      ],
      "stateMutability": "view",
      "type": "function"
    },
    {
      "inputs": [],
      "name": "totalSupply",
      "outputs": [
        {
          "internalType": "uint256",
          "name": "",
          "type": "uint256"
        }
      ],
      "stateMutability": "view",
      "type": "function"
    },
    {
      "inputs": [
        {
          "internalType": "address",
          "name": "recipient",
          "type": "address"
        },
        {
          "internalType": "uint256",
          "name": "amount",
          "type": "uint256"
        }
      ],
      "name": "transfer",
      "outputs": [
        {
          "internalType": "bool",
          "name": "",
          "type": "bool"
        }
      ],
      "stateMutability": "nonpayable",
      "type": "function"
    },
    {
      "inputs": [
        {
          "internalType": "address",
          "name": "sender",
          "type": "address"
        },
        {
          "internalType": "address",
          "name": "recipient",
          "type": "address"
        },
        {
          "internalType": "uint256",
          "name": "amount",
          "type": "uint256"
        }
      ],
      "name": "transferFrom",
      "outputs": [
        {
          "internalType": "bool",
          "name": "",
          "type": "bool"
        }
      ],
      "stateMutability": "nonpayable",
      "type": "function"
    },
    {
      "inputs": [],
      "name": "transfersRestricted",
      "outputs": [
        {
          "internalType": "bool",
          "name": "",
          "type": "bool"
        }
      ],
      "stateMutability": "view",
      "type": "function"
    },
    {
      "inputs": [],
      "name": "unpause",
      "outputs": [],
      "stateMutability": "nonpayable",
      "type": "function"
    }
  ],
  "bytecode": "0x6101406040527f6e71edae12b1b97f4d1f60370fef10105fa2faae0126114a169c64845d6126c9610120523480156200003757600080fd5b50604051620035c0380380620035c08339810160408190526200005a91620005b4565b8184848180604051806040016040528060018152602001603160f81b81525084848160059080519060200190620000939291906200044b565b508051620000a99060069060208401906200044b565b50506007805460ff1916905550815160208084019190912082519183019190912060c082905260e08190524660a0527f8b73c3c69bb8fe3d512ecc4cf759cc79239f7b179b0ffacaa9a75d522b39400f620001068184846200020a565b60805261010052506200012b9350600092506200012591505062000246565b62000263565b6200015a7f9f2df0fed2c77648de5860a4cc508cd0818c85b8b8a1ab4ceeef8d981c8956a66200012562000246565b620001897f65d7a28e3265b37a6474929f336521b332c1681b933f6cb9f3376673440d862a6200012562000246565b5050600980546001600160a01b03199081166001600160a01b0393841617909155600a80549091169187169190911790558051620001cf90600b9060208401906200044b565b50620001ff7f8502233096d909befbda0999bb8ea2f3a6be3c138b9fbf003752a4c8bce86f6c6200012562000246565b5050505050620006e7565b600083838346306040516020016200022795949392919062000668565b6040516020818303038152906040528051906020012090509392505050565b60006200025d620002a660201b62000f431760201c565b90505b90565b6200027a8282620002e660201b62000f711760201c565b6000828152600160209081526040909120620002a191839062000f7b620002f6821b17901c565b505050565b6000620002b33362000316565b15620002c9575060131936013560601c62000260565b620002de6200032d60201b62000f901760201c565b905062000260565b620002f2828262000331565b5050565b60006200030d836001600160a01b038416620003bb565b90505b92915050565b6009546001600160a01b038281169116145b919050565b3390565b6200033d82826200040a565b620002f2576000828152602081815260408083206001600160a01b03851684529091529020805460ff191660011790556200037762000246565b6001600160a01b0316816001600160a01b0316837f2f8788117e7eff1d82e926ec794901d17c78024a50270940304540a733656f0d60405160405180910390a45050565b6000620003c9838362000433565b620004015750815460018181018455600084815260208082209093018490558454848252828601909352604090209190915562000310565b50600062000310565b6000918252602082815260408084206001600160a01b0393909316845291905290205460ff1690565b60009081526001919091016020526040902054151590565b828054620004599062000694565b90600052602060002090601f0160209004810192826200047d5760008555620004c8565b82601f106200049857805160ff1916838001178555620004c8565b82800160010185558215620004c8579182015b82811115620004c8578251825591602001919060010190620004ab565b50620004d6929150620004da565b5090565b5b80821115620004d65760008155600101620004db565b80516001600160a01b03811681146200032857600080fd5b600082601f8301126200051a578081fd5b81516001600160401b0380821115620005375762000537620006d1565b6040516020601f8401601f19168201810183811183821017156200055f576200055f620006d1565b604052838252858401810187101562000576578485fd5b8492505b838310156200059957858301810151828401820152918201916200057a565b83831115620005aa57848185840101525b5095945050505050565b600080600080600060a08688031215620005cc578081fd5b620005d786620004f1565b60208701519095506001600160401b0380821115620005f4578283fd5b6200060289838a0162000509565b9550604088015191508082111562000618578283fd5b6200062689838a0162000509565b94506200063660608901620004f1565b935060808801519150808211156200064c578283fd5b506200065b8882890162000509565b9150509295509295909350565b9485526020850193909352604084019190915260608301526001600160a01b0316608082015260a00190565b600281046001821680620006a957607f821691505b60208210811415620006cb57634e487b7160e01b600052602260045260246000fd5b50919050565b634e487b7160e01b600052604160045260246000fd5b60805160a05160c05160e0516101005161012051612e89620007376000396000610df90152600061121b0152600061125d0152600061123c015260006111c9015260006111f20152612e896000f3fe608060405234801561001057600080fd5b50600436106102ad5760003560e01c80637ecebe001161017b578063a9059cbb116100d8578063d53913931161008c578063dd62ed3e11610071578063dd62ed3e14610528578063e63ab1e91461053b578063e8a3d48514610543576102ad565b8063d53913931461050d578063d547741f14610515576102ad565b8063c0e72740116100bd578063c0e72740146104df578063ca15c873146104e7578063d505accf146104fa576102ad565b8063a9059cbb146104ac578063ac9650d8146104bf576102ad565b806391d148541161012f57806395d89b411161011457806395d89b4114610489578063a217fddf14610491578063a457c2d714610499576102ad565b806391d1485414610463578063938e3d7b14610476576102ad565b80638456cb59116101605780638456cb59146104285780638ba448c2146104305780639010d07c14610443576102ad565b80637ecebe001461040d5780638423df7914610420576102ad565b80633644e5151161022957806342966c68116101dd5780635c975abb116101c25780635c975abb146103df57806370a08231146103e757806379cc6790146103fa576102ad565b806342966c68146103b9578063572b6c05146103cc576102ad565b8063395093511161020e578063395093511461038b5780633f4ba83a1461039e57806340c10f19146103a6576102ad565b80633644e5151461037057806336568abe14610378576102ad565b8063206b60f911610280578063248a9ca311610265578063248a9ca3146103335780632f2ff15d14610346578063313ce5671461035b576102ad565b8063206b60f91461031857806323b872dd14610320576102ad565b806301ffc9a7146102b257806306fdde03146102db578063095ea7b3146102f057806318160ddd14610303575b600080fd5b6102c56102c0366004612260565b61054b565b6040516102d2919061243b565b60405180910390f35b6102e3610578565b6040516102d291906124e4565b6102c56102fe36600461211d565b61060b565b61030b610629565b6040516102d29190612446565b61030b61062f565b6102c561032e366004612071565b610653565b61030b6103413660046121ed565b6106ee565b61035961035436600461221d565b610703565b005b61036361072a565b6040516102d29190612cf6565b61030b61072f565b61035961038636600461221d565b61073e565b6102c561039936600461211d565b610760565b6103596107b4565b6103596103b436600461211d565b610806565b6103596103c73660046121ed565b61085c565b6102c56103da366004612025565b610870565b6102c5610884565b61030b6103f5366004612025565b61088d565b61035961040836600461211d565b6108a8565b61030b61041b366004612025565b6108f6565b6102c5610917565b610359610927565b61035961043e3660046121b5565b610977565b61045661045136600461223f565b610a0d565b6040516102d291906123c7565b6102c561047136600461221d565b610a25565b610359610484366004612288565b610a4e565b6102e3610b70565b61030b610b7f565b6102c56104a736600461211d565b610b84565b6102c56104ba36600461211d565b610bfd565b6104d26104cd366004612146565b610c11565b6040516102d291906123db565b6102e3610d30565b61030b6104f53660046121ed565b610dbe565b6103596105083660046120ac565b610dd5565b61030b610eb7565b61035961052336600461221d565b610edb565b61030b61053636600461203f565b610ee5565b61030b610f10565b6102e3610f34565b60006001600160e01b03198216635a05180f60e01b1480610570575061057082610f94565b90505b919050565b60606005805461058790612de1565b80601f01602080910402602001604051908101604052809291908181526020018280546105b390612de1565b80156106005780601f106105d557610100808354040283529160200191610600565b820191906000526020600020905b8154815290600101906020018083116105e357829003601f168201915b505050505090505b90565b600061061f610618610fb9565b8484610fc3565b5060015b92915050565b60045490565b7f8502233096d909befbda0999bb8ea2f3a6be3c138b9fbf003752a4c8bce86f6c81565b6000610660848484611077565b6001600160a01b038416600090815260036020526040812081610681610fb9565b6001600160a01b03166001600160a01b03168152602001908152602001600020549050828110156106cd5760405162461bcd60e51b81526004016106c49061289b565b60405180910390fd5b6106e1856106d9610fb9565b858403610fc3565b60019150505b9392505050565b60009081526020819052604090206001015490565b61070d82826111a1565b60008281526001602052604090206107259082610f7b565b505050565b601290565b60006107396111c5565b905090565b6107488282611281565b600082815260016020526040902061072590826112c3565b600061061f61076d610fb9565b84846003600061077b610fb9565b6001600160a01b03908116825260208083019390935260409182016000908120918b16815292529020546107af9190612d50565b610fc3565b6107e07f65d7a28e3265b37a6474929f336521b332c1681b933f6cb9f3376673440d862a610471610fb9565b6107fc5760405162461bcd60e51b81526004016106c490612656565b6108046112d8565b565b6108327f9f2df0fed2c77648de5860a4cc508cd0818c85b8b8a1ab4ceeef8d981c8956a6610471610fb9565b61084e5760405162461bcd60e51b81526004016106c4906128f8565b6108588282611346565b5050565b61086d610867610fb9565b8261140e565b50565b6009546001600160a01b0390811691161490565b60075460ff1690565b6001600160a01b031660009081526002602052604090205490565b60006108b683610536610fb9565b9050818110156108d85760405162461bcd60e51b81526004016106c490612955565b6108ec836108e4610fb9565b848403610fc3565b610725838361140e565b6001600160a01b0381166000908152600860205260408120610570906114ff565b600954600160a01b900460ff1681565b6109537f65d7a28e3265b37a6474929f336521b332c1681b933f6cb9f3376673440d862a610471610fb9565b61096f5760405162461bcd60e51b81526004016106c490612b06565b610804611503565b6109846000610471610fb9565b6109a05760405162461bcd60e51b81526004016106c4906127b4565b600980547fffffffffffffffffffffff00ffffffffffffffffffffffffffffffffffffffff16600160a01b831515021790556040517ffb4ba02cee22486df888d7ffb97c6100ec3193781e025cb9a4bc6fc358d626cc90610a0290839061243b565b60405180910390a150565b60008281526001602052604081206106e7908361155e565b6000918252602082815260408084206001600160a01b0393909316845291905290205460ff1690565b600a546040805163a217fddf60e01b815290516001600160a01b03909216916391d1485491839163a217fddf91600480820192602092909190829003018186803b158015610a9b57600080fd5b505afa158015610aaf573d6000803e3d6000fd5b505050506040513d601f19601f82011682018060405250810190610ad39190612205565b610adb610fb9565b6040518363ffffffff1660e01b8152600401610af892919061244f565b60206040518083038186803b158015610b1057600080fd5b505afa158015610b24573d6000803e3d6000fd5b505050506040513d601f19601f82011682018060405250810190610b4891906121d1565b610b645760405162461bcd60e51b81526004016106c490612b63565b610725600b8383611f75565b60606006805461058790612de1565b600081565b60008060036000610b93610fb9565b6001600160a01b0390811682526020808301939093526040918201600090812091881681529252902054905082811015610bdf5760405162461bcd60e51b81526004016106c490612bc0565b610bf3610bea610fb9565b85858403610fc3565b5060019392505050565b600061061f610c0a610fb9565b8484611077565b60608167ffffffffffffffff811115610c3a57634e487b7160e01b600052604160045260246000fd5b604051908082528060200260200182016040528015610c6d57816020015b6060815260200190600190039081610c585790505b50905060005b82811015610d2957610ceb30858584818110610c9f57634e487b7160e01b600052603260045260246000fd5b9050602002810190610cb19190612d04565b8080601f01602080910402602001604051908101604052809392919081815260200183838082843760009201919091525061156a92505050565b828281518110610d0b57634e487b7160e01b600052603260045260246000fd5b60200260200101819052508080610d2190612e16565b915050610c73565b5092915050565b600b8054610d3d90612de1565b80601f0160208091040260200160405190810160405280929190818152602001828054610d6990612de1565b8015610db65780601f10610d8b57610100808354040283529160200191610db6565b820191906000526020600020905b815481529060010190602001808311610d9957829003601f168201915b505050505081565b60008181526001602052604081206105709061158f565b83421115610df55760405162461bcd60e51b81526004016106c4906126f5565b60007f0000000000000000000000000000000000000000000000000000000000000000888888610e248c61159a565b89604051602001610e3a96959493929190612466565b6040516020818303038152906040528051906020012090506000610e5d826115cc565b90506000610e6d828787876115df565b9050896001600160a01b0316816001600160a01b031614610ea05760405162461bcd60e51b81526004016106c490612864565b610eab8a8a8a610fc3565b50505050505050505050565b7f9f2df0fed2c77648de5860a4cc508cd0818c85b8b8a1ab4ceeef8d981c8956a681565b6107488282611607565b6001600160a01b03918216600090815260036020908152604080832093909416825291909152205490565b7f65d7a28e3265b37a6474929f336521b332c1681b933f6cb9f3376673440d862a81565b6060600b805461058790612de1565b6000610f4e33610870565b15610f62575060131936013560601c610608565b610f6a610f90565b9050610608565b6108588282611626565b60006106e7836001600160a01b0384166116ab565b3390565b60006001600160e01b03198216637965db0b60e01b14806105705750610570826116f5565b6000610739610f43565b6001600160a01b038316610fe95760405162461bcd60e51b81526004016106c490612ac2565b6001600160a01b03821661100f5760405162461bcd60e51b81526004016106c4906126b3565b6001600160a01b0380841660008181526003602090815260408083209487168084529490915290819020849055517f8c5be1e5ebec7d5bd14f71427d1e84f3dd0314c0f7b2291e5b200ac8c7c3b9259061106a908590612446565b60405180910390a3505050565b6001600160a01b03831661109d5760405162461bcd60e51b81526004016106c490612a7d565b6001600160a01b0382166110c35760405162461bcd60e51b81526004016106c490612563565b6110ce83838361170e565b6001600160a01b038316600090815260026020526040902054818110156111075760405162461bcd60e51b81526004016106c49061272c565b6001600160a01b0380851660009081526002602052604080822085850390559185168152908120805484929061113e908490612d50565b92505081905550826001600160a01b0316846001600160a01b03167fddf252ad1be2c89b69c2b068fc378daa952ba7f163c4a11628f55a4df523b3ef846040516111889190612446565b60405180910390a361119b848484610725565b50505050565b6111aa826106ee565b6111bb816111b6610fb9565b6117c9565b6107258383611626565b60007f000000000000000000000000000000000000000000000000000000000000000046141561121657507f0000000000000000000000000000000000000000000000000000000000000000610608565b610f6a7f00000000000000000000000000000000000000000000000000000000000000007f00000000000000000000000000000000000000000000000000000000000000007f000000000000000000000000000000000000000000000000000000000000000061182d565b611289610fb9565b6001600160a01b0316816001600160a01b0316146112b95760405162461bcd60e51b81526004016106c490612c05565b6108588282611867565b60006106e7836001600160a01b0384166118ea565b6112e0610884565b6112fc5760405162461bcd60e51b81526004016106c4906125a6565b6007805460ff191690557f5db9ee0a495bf2e6ff9c91a7834c1ba4fdd244a5e8aa4e537bd38aeae4b073aa61132f610fb9565b60405161133c91906123c7565b60405180910390a1565b6001600160a01b03821661136c5760405162461bcd60e51b81526004016106c490612c62565b6113786000838361170e565b806004600082825461138a9190612d50565b90915550506001600160a01b038216600090815260026020526040812080548392906113b7908490612d50565b90915550506040516001600160a01b038316906000907fddf252ad1be2c89b69c2b068fc378daa952ba7f163c4a11628f55a4df523b3ef906113fa908590612446565b60405180910390a361085860008383610725565b6001600160a01b0382166114345760405162461bcd60e51b81526004016106c4906129f6565b6114408260008361170e565b6001600160a01b038216600090815260026020526040902054818110156114795760405162461bcd60e51b81526004016106c4906125dd565b6001600160a01b03831660009081526002602052604081208383039055600480548492906114a8908490612d87565b90915550506040516000906001600160a01b038516907fddf252ad1be2c89b69c2b068fc378daa952ba7f163c4a11628f55a4df523b3ef906114eb908690612446565b60405180910390a361072583600084610725565b5490565b61150b610884565b156115285760405162461bcd60e51b81526004016106c4906127eb565b6007805460ff191660011790557f62e78cea01bee320cd4e420270b5ea74000d11b0c9f74754ebdbfc544b05a25861132f610fb9565b60006106e78383611a07565b60606106e78383604051806060016040528060278152602001612e5660279139611a3f565b6000610570826114ff565b6001600160a01b03811660009081526008602052604081206115bb816114ff565b91506115c681611adb565b50919050565b60006105706115d96111c5565b83611ae4565b60008060006115f087878787611b17565b915091506115fd81611bf7565b5095945050505050565b611610826106ee565b61161c816111b6610fb9565b6107258383611867565b6116308282610a25565b610858576000828152602081815260408083206001600160a01b03851684529091529020805460ff19166001179055611667610fb9565b6001600160a01b0316816001600160a01b0316837f2f8788117e7eff1d82e926ec794901d17c78024a50270940304540a733656f0d60405160405180910390a45050565b60006116b78383611d24565b6116ed57508154600181810184556000848152602080822090930184905584548482528286019093526040902091909155610623565b506000610623565b6001600160e01b031981166301ffc9a760e01b14919050565b611719838383611d3c565b600954600160a01b900460ff16801561173a57506001600160a01b03831615155b801561174e57506001600160a01b03821615155b156107255761177d7f8502233096d909befbda0999bb8ea2f3a6be3c138b9fbf003752a4c8bce86f6c84610a25565b806117ad57506117ad7f8502233096d909befbda0999bb8ea2f3a6be3c138b9fbf003752a4c8bce86f6c83610a25565b6107255760405162461bcd60e51b81526004016106c490612999565b6117d38282610a25565b610858576117eb816001600160a01b03166014611d47565b6117f6836020611d47565b604051602001611807929190612346565b60408051601f198184030181529082905262461bcd60e51b82526106c4916004016124e4565b6000838383463060405160200161184895949392919061249a565b6040516020818303038152906040528051906020012090509392505050565b6118718282610a25565b15610858576000828152602081815260408083206001600160a01b03851684529091529020805460ff191690556118a6610fb9565b6001600160a01b0316816001600160a01b0316837ff6391f5c32d9c69d2a47ea670b442974b53935d1edc7fd64eb21e047a839171b60405160405180910390a45050565b600081815260018301602052604081205480156119fd57600061190e600183612d87565b855490915060009061192290600190612d87565b90508181146119a357600086600001828154811061195057634e487b7160e01b600052603260045260246000fd5b906000526020600020015490508087600001848154811061198157634e487b7160e01b600052603260045260246000fd5b6000918252602080832090910192909255918252600188019052604090208390555b85548690806119c257634e487b7160e01b600052603160045260246000fd5b600190038181906000526020600020016000905590558560010160008681526020019081526020016000206000905560019350505050610623565b6000915050610623565b6000826000018281548110611a2c57634e487b7160e01b600052603260045260246000fd5b9060005260206000200154905092915050565b6060611a4a84611f06565b611a665760405162461bcd60e51b81526004016106c490612a37565b600080856001600160a01b031685604051611a81919061230f565b600060405180830381855af49150503d8060008114611abc576040519150601f19603f3d011682016040523d82523d6000602084013e611ac1565b606091505b5091509150611ad1828286611f0c565b9695505050505050565b80546001019055565b60008282604051602001611af992919061232b565b60405160208183030381529060405280519060200120905092915050565b6000807f7fffffffffffffffffffffffffffffff5d576e7357a4501ddfe92f46681b20a0831115611b4e5750600090506003611bee565b8460ff16601b14158015611b6657508460ff16601c14155b15611b775750600090506004611bee565b600060018787878760405160008152602001604052604051611b9c94939291906124c6565b6020604051602081039080840390855afa158015611bbe573d6000803e3d6000fd5b5050604051601f1901519150506001600160a01b038116611be757600060019250925050611bee565b9150600090505b94509492505050565b6000816004811115611c1957634e487b7160e01b600052602160045260246000fd5b1415611c245761086d565b6001816004811115611c4657634e487b7160e01b600052602160045260246000fd5b1415611c645760405162461bcd60e51b81526004016106c4906124f7565b6002816004811115611c8657634e487b7160e01b600052602160045260246000fd5b1415611ca45760405162461bcd60e51b81526004016106c49061261f565b6003816004811115611cc657634e487b7160e01b600052602160045260246000fd5b1415611ce45760405162461bcd60e51b81526004016106c490612772565b6004816004811115611d0657634e487b7160e01b600052602160045260246000fd5b141561086d5760405162461bcd60e51b81526004016106c490612822565b60009081526001919091016020526040902054151590565b610725838383611f45565b60606000611d56836002612d68565b611d61906002612d50565b67ffffffffffffffff811115611d8757634e487b7160e01b600052604160045260246000fd5b6040519080825280601f01601f191660200182016040528015611db1576020820181803683370190505b509050600360fc1b81600081518110611dda57634e487b7160e01b600052603260045260246000fd5b60200101906001600160f81b031916908160001a905350600f60fb1b81600181518110611e1757634e487b7160e01b600052603260045260246000fd5b60200101906001600160f81b031916908160001a9053506000611e3b846002612d68565b611e46906001612d50565b90505b6001811115611ee7577f303132333435363738396162636465660000000000000000000000000000000085600f1660108110611e9557634e487b7160e01b600052603260045260246000fd5b1a60f81b828281518110611eb957634e487b7160e01b600052603260045260246000fd5b60200101906001600160f81b031916908160001a90535060049490941c93611ee081612dca565b9050611e49565b5083156106e75760405162461bcd60e51b81526004016106c49061252e565b3b151590565b60608315611f1b5750816106e7565b825115611f2b5782518084602001fd5b8160405162461bcd60e51b81526004016106c491906124e4565b611f50838383610725565b611f58610884565b156107255760405162461bcd60e51b81526004016106c490612c99565b828054611f8190612de1565b90600052602060002090601f016020900481019282611fa35760008555611fe9565b82601f10611fbc5782800160ff19823516178555611fe9565b82800160010185558215611fe9579182015b82811115611fe9578235825591602001919060010190611fce565b50611ff5929150611ff9565b5090565b5b80821115611ff55760008155600101611ffa565b80356001600160a01b038116811461057357600080fd5b600060208284031215612036578081fd5b6106e78261200e565b60008060408385031215612051578081fd5b61205a8361200e565b91506120686020840161200e565b90509250929050565b600080600060608486031215612085578081fd5b61208e8461200e565b925061209c6020850161200e565b9150604084013590509250925092565b600080600080600080600060e0888a0312156120c6578283fd5b6120cf8861200e565b96506120dd6020890161200e565b95506040880135945060608801359350608088013560ff81168114612100578384fd5b9699959850939692959460a0840135945060c09093013592915050565b6000806040838503121561212f578182fd5b6121388361200e565b946020939093013593505050565b60008060208385031215612158578182fd5b823567ffffffffffffffff8082111561216f578384fd5b818501915085601f830112612182578384fd5b813581811115612190578485fd5b86602080830285010111156121a3578485fd5b60209290920196919550909350505050565b6000602082840312156121c6578081fd5b81356106e781612e47565b6000602082840312156121e2578081fd5b81516106e781612e47565b6000602082840312156121fe578081fd5b5035919050565b600060208284031215612216578081fd5b5051919050565b6000806040838503121561222f578182fd5b823591506120686020840161200e565b60008060408385031215612251578182fd5b50508035926020909101359150565b600060208284031215612271578081fd5b81356001600160e01b0319811681146106e7578182fd5b6000806020838503121561229a578182fd5b823567ffffffffffffffff808211156122b1578384fd5b818501915085601f8301126122c4578384fd5b8135818111156122d2578485fd5b8660208285010111156121a3578485fd5b600081518084526122fb816020860160208601612d9e565b601f01601f19169290920160200192915050565b60008251612321818460208701612d9e565b9190910192915050565b61190160f01b81526002810192909252602282015260420190565b60007f416363657373436f6e74726f6c3a206163636f756e74200000000000000000008252835161237e816017850160208801612d9e565b7f206973206d697373696e6720726f6c652000000000000000000000000000000060179184019182015283516123bb816028840160208801612d9e565b01602801949350505050565b6001600160a01b0391909116815260200190565b6000602080830181845280855180835260408601915060408482028701019250838701855b8281101561242e57603f1988860301845261241c8583516122e3565b94509285019290850190600101612400565b5092979650505050505050565b901515815260200190565b90815260200190565b9182526001600160a01b0316602082015260400190565b9586526001600160a01b0394851660208701529290931660408501526060840152608083019190915260a082015260c00190565b9485526020850193909352604084019190915260608301526001600160a01b0316608082015260a00190565b93845260ff9290921660208401526040830152606082015260800190565b6000602082526106e760208301846122e3565b60208082526018908201527f45434453413a20696e76616c6964207369676e61747572650000000000000000604082015260600190565b6020808252818101527f537472696e67733a20686578206c656e67746820696e73756666696369656e74604082015260600190565b60208082526023908201527f45524332303a207472616e7366657220746f20746865207a65726f206164647260408201526265737360e81b606082015260800190565b60208082526014908201527f5061757361626c653a206e6f7420706175736564000000000000000000000000604082015260600190565b60208082526022908201527f45524332303a206275726e20616d6f756e7420657863656564732062616c616e604082015261636560f01b606082015260800190565b6020808252601f908201527f45434453413a20696e76616c6964207369676e6174757265206c656e67746800604082015260600190565b60208082526039908201527f45524332305072657365744d696e7465725061757365723a206d75737420686160408201527f76652070617573657220726f6c6520746f20756e706175736500000000000000606082015260800190565b60208082526022908201527f45524332303a20617070726f766520746f20746865207a65726f206164647265604082015261737360f01b606082015260800190565b6020808252601d908201527f45524332305065726d69743a206578706972656420646561646c696e65000000604082015260600190565b60208082526026908201527f45524332303a207472616e7366657220616d6f756e7420657863656564732062604082015265616c616e636560d01b606082015260800190565b60208082526022908201527f45434453413a20696e76616c6964207369676e6174757265202773272076616c604082015261756560f01b606082015260800190565b60208082526016908201527f6f6e6c79206d6f64756c652061646d696e20726f6c6500000000000000000000604082015260600190565b60208082526010908201527f5061757361626c653a2070617573656400000000000000000000000000000000604082015260600190565b60208082526022908201527f45434453413a20696e76616c6964207369676e6174757265202776272076616c604082015261756560f01b606082015260800190565b6020808252601e908201527f45524332305065726d69743a20696e76616c6964207369676e61747572650000604082015260600190565b60208082526028908201527f45524332303a207472616e7366657220616d6f756e742065786365656473206160408201527f6c6c6f77616e6365000000000000000000000000000000000000000000000000606082015260800190565b60208082526036908201527f45524332305072657365744d696e7465725061757365723a206d75737420686160408201527f7665206d696e74657220726f6c6520746f206d696e7400000000000000000000606082015260800190565b60208082526024908201527f45524332303a206275726e20616d6f756e74206578636565647320616c6c6f77604082015263616e636560e01b606082015260800190565b60208082526037908201527f436f696e3a205472616e7366657273206172652072657374726963746564207460408201527f6f205452414e534645525f524f4c4520686f6c64657273000000000000000000606082015260800190565b60208082526021908201527f45524332303a206275726e2066726f6d20746865207a65726f206164647265736040820152607360f81b606082015260800190565b60208082526026908201527f416464726573733a2064656c65676174652063616c6c20746f206e6f6e2d636f6040820152651b9d1c9858dd60d21b606082015260800190565b60208082526025908201527f45524332303a207472616e736665722066726f6d20746865207a65726f206164604082015264647265737360d81b606082015260800190565b60208082526024908201527f45524332303a20617070726f76652066726f6d20746865207a65726f206164646040820152637265737360e01b606082015260800190565b60208082526037908201527f45524332305072657365744d696e7465725061757365723a206d75737420686160408201527f76652070617573657220726f6c6520746f207061757365000000000000000000606082015260800190565b60208082526033908201527f436f696e3a206f6e6c7920612070726f746f636f6c2061646d696e2063616e2060408201527f63616c6c20746869732066756e6374696f6e2e00000000000000000000000000606082015260800190565b60208082526025908201527f45524332303a2064656372656173656420616c6c6f77616e63652062656c6f77604082015264207a65726f60d81b606082015260800190565b6020808252602f908201527f416363657373436f6e74726f6c3a2063616e206f6e6c792072656e6f756e636560408201527f20726f6c657320666f722073656c660000000000000000000000000000000000606082015260800190565b6020808252601f908201527f45524332303a206d696e7420746f20746865207a65726f206164647265737300604082015260600190565b6020808252602a908201527f45524332305061757361626c653a20746f6b656e207472616e7366657220776860408201527f696c652070617573656400000000000000000000000000000000000000000000606082015260800190565b60ff91909116815260200190565b6000808335601e19843603018112612d1a578283fd5b83018035915067ffffffffffffffff821115612d34578283fd5b602001915036819003821315612d4957600080fd5b9250929050565b60008219821115612d6357612d63612e31565b500190565b6000816000190483118215151615612d8257612d82612e31565b500290565b600082821015612d9957612d99612e31565b500390565b60005b83811015612db9578181015183820152602001612da1565b8381111561119b5750506000910152565b600081612dd957612dd9612e31565b506000190190565b600281046001821680612df557607f821691505b602082108114156115c657634e487b7160e01b600052602260045260246000fd5b6000600019821415612e2a57612e2a612e31565b5060010190565b634e487b7160e01b600052601160045260246000fd5b801515811461086d57600080fdfe416464726573733a206c6f772d6c6576656c2064656c65676174652063616c6c206661696c6564a164736f6c6343000800000a",
  "linkReferences": {},
  "deployedLinkReferences": {}
}