{
  "_format": "hh-sol-artifact-1",
  "contractName": "Coin",
  "sourceName": "contracts/Coin.sol",
  "abi": [
    {
      "inputs": [
        {
          "internalType": "address payable",
          "name": "_controlCenter",
          "type": "address"
        },
        {
          "internalType": "string",
          "name": "_name",
          "type": "string"
        },
        {
          "internalType": "string",
          "name": "_symbol",
          "type": "string"
        },
        {
          "internalType": "address",
          "name": "_trustedForwarder",
          "type": "address"
        },
        {
          "internalType": "string",
          "name": "_uri",
          "type": "string"
        }
      ],
      "stateMutability": "nonpayable",
      "type": "constructor"
    },
    {
      "anonymous": false,
      "inputs": [
        {
          "indexed": true,
          "internalType": "address",
          "name": "owner",
          "type": "address"
        },
        {
          "indexed": true,
          "internalType": "address",
          "name": "spender",
          "type": "address"
        },
        {
          "indexed": false,
          "internalType": "uint256",
          "name": "value",
          "type": "uint256"
        }
      ],
      "name": "Approval",
      "type": "event"
    },
    {
      "anonymous": false,
      "inputs": [
        {
          "indexed": false,
          "internalType": "address",
          "name": "account",
          "type": "address"
        }
      ],
      "name": "Paused",
      "type": "event"
    },
    {
      "anonymous": false,
      "inputs": [
        {
          "indexed": true,
          "internalType": "bytes32",
          "name": "role",
          "type": "bytes32"
        },
        {
          "indexed": true,
          "internalType": "bytes32",
          "name": "previousAdminRole",
          "type": "bytes32"
        },
        {
          "indexed": true,
          "internalType": "bytes32",
          "name": "newAdminRole",
          "type": "bytes32"
        }
      ],
      "name": "RoleAdminChanged",
      "type": "event"
    },
    {
      "anonymous": false,
      "inputs": [
        {
          "indexed": true,
          "internalType": "bytes32",
          "name": "role",
          "type": "bytes32"
        },
        {
          "indexed": true,
          "internalType": "address",
          "name": "account",
          "type": "address"
        },
        {
          "indexed": true,
          "internalType": "address",
          "name": "sender",
          "type": "address"
        }
      ],
      "name": "RoleGranted",
      "type": "event"
    },
    {
      "anonymous": false,
      "inputs": [
        {
          "indexed": true,
          "internalType": "bytes32",
          "name": "role",
          "type": "bytes32"
        },
        {
          "indexed": true,
          "internalType": "address",
          "name": "account",
          "type": "address"
        },
        {
          "indexed": true,
          "internalType": "address",
          "name": "sender",
          "type": "address"
        }
      ],
      "name": "RoleRevoked",
      "type": "event"
    },
    {
      "anonymous": false,
      "inputs": [
        {
          "indexed": true,
          "internalType": "address",
          "name": "from",
          "type": "address"
        },
        {
          "indexed": true,
          "internalType": "address",
          "name": "to",
          "type": "address"
        },
        {
          "indexed": false,
          "internalType": "uint256",
          "name": "value",
          "type": "uint256"
        }
      ],
      "name": "Transfer",
      "type": "event"
    },
    {
      "anonymous": false,
      "inputs": [
        {
          "indexed": false,
          "internalType": "address",
          "name": "account",
          "type": "address"
        }
      ],
      "name": "Unpaused",
      "type": "event"
    },
    {
      "inputs": [],
      "name": "DEFAULT_ADMIN_ROLE",
      "outputs": [
        {
          "internalType": "bytes32",
          "name": "",
          "type": "bytes32"
        }
      ],
      "stateMutability": "view",
      "type": "function"
    },
    {
      "inputs": [],
      "name": "DOMAIN_SEPARATOR",
      "outputs": [
        {
          "internalType": "bytes32",
          "name": "",
          "type": "bytes32"
        }
      ],
      "stateMutability": "view",
      "type": "function"
    },
    {
      "inputs": [],
      "name": "MINTER_ROLE",
      "outputs": [
        {
          "internalType": "bytes32",
          "name": "",
          "type": "bytes32"
        }
      ],
      "stateMutability": "view",
      "type": "function"
    },
    {
      "inputs": [],
      "name": "PAUSER_ROLE",
      "outputs": [
        {
          "internalType": "bytes32",
          "name": "",
          "type": "bytes32"
        }
      ],
      "stateMutability": "view",
      "type": "function"
    },
    {
      "inputs": [],
      "name": "TRANSFER_ROLE",
      "outputs": [
        {
          "internalType": "bytes32",
          "name": "",
          "type": "bytes32"
        }
      ],
      "stateMutability": "view",
      "type": "function"
    },
    {
      "inputs": [],
      "name": "_contractURI",
      "outputs": [
        {
          "internalType": "string",
          "name": "",
          "type": "string"
        }
      ],
      "stateMutability": "view",
      "type": "function"
    },
    {
      "inputs": [
        {
          "internalType": "address",
          "name": "owner",
          "type": "address"
        },
        {
          "internalType": "address",
          "name": "spender",
          "type": "address"
        }
      ],
      "name": "allowance",
      "outputs": [
        {
          "internalType": "uint256",
          "name": "",
          "type": "uint256"
        }
      ],
      "stateMutability": "view",
      "type": "function"
    },
    {
      "inputs": [
        {
          "internalType": "address",
          "name": "spender",
          "type": "address"
        },
        {
          "internalType": "uint256",
          "name": "amount",
          "type": "uint256"
        }
      ],
      "name": "approve",
      "outputs": [
        {
          "internalType": "bool",
          "name": "",
          "type": "bool"
        }
      ],
      "stateMutability": "nonpayable",
      "type": "function"
    },
    {
      "inputs": [
        {
          "internalType": "address",
          "name": "account",
          "type": "address"
        }
      ],
      "name": "balanceOf",
      "outputs": [
        {
          "internalType": "uint256",
          "name": "",
          "type": "uint256"
        }
      ],
      "stateMutability": "view",
      "type": "function"
    },
    {
      "inputs": [
        {
          "internalType": "uint256",
          "name": "amount",
          "type": "uint256"
        }
      ],
      "name": "burn",
      "outputs": [],
      "stateMutability": "nonpayable",
      "type": "function"
    },
    {
      "inputs": [
        {
          "internalType": "address",
          "name": "account",
          "type": "address"
        },
        {
          "internalType": "uint256",
          "name": "amount",
          "type": "uint256"
        }
      ],
      "name": "burnFrom",
      "outputs": [],
      "stateMutability": "nonpayable",
      "type": "function"
    },
    {
      "inputs": [],
      "name": "contractURI",
      "outputs": [
        {
          "internalType": "string",
          "name": "",
          "type": "string"
        }
      ],
      "stateMutability": "view",
      "type": "function"
    },
    {
      "inputs": [],
      "name": "decimals",
      "outputs": [
        {
          "internalType": "uint8",
          "name": "",
          "type": "uint8"
        }
      ],
      "stateMutability": "view",
      "type": "function"
    },
    {
      "inputs": [
        {
          "internalType": "address",
          "name": "spender",
          "type": "address"
        },
        {
          "internalType": "uint256",
          "name": "subtractedValue",
          "type": "uint256"
        }
      ],
      "name": "decreaseAllowance",
      "outputs": [
        {
          "internalType": "bool",
          "name": "",
          "type": "bool"
        }
      ],
      "stateMutability": "nonpayable",
      "type": "function"
    },
    {
      "inputs": [
        {
          "internalType": "bytes32",
          "name": "role",
          "type": "bytes32"
        }
      ],
      "name": "getRoleAdmin",
      "outputs": [
        {
          "internalType": "bytes32",
          "name": "",
          "type": "bytes32"
        }
      ],
      "stateMutability": "view",
      "type": "function"
    },
    {
      "inputs": [
        {
          "internalType": "bytes32",
          "name": "role",
          "type": "bytes32"
        },
        {
          "internalType": "uint256",
          "name": "index",
          "type": "uint256"
        }
      ],
      "name": "getRoleMember",
      "outputs": [
        {
          "internalType": "address",
          "name": "",
          "type": "address"
        }
      ],
      "stateMutability": "view",
      "type": "function"
    },
    {
      "inputs": [
        {
          "internalType": "bytes32",
          "name": "role",
          "type": "bytes32"
        }
      ],
      "name": "getRoleMemberCount",
      "outputs": [
        {
          "internalType": "uint256",
          "name": "",
          "type": "uint256"
        }
      ],
      "stateMutability": "view",
      "type": "function"
    },
    {
      "inputs": [
        {
          "internalType": "bytes32",
          "name": "role",
          "type": "bytes32"
        },
        {
          "internalType": "address",
          "name": "account",
          "type": "address"
        }
      ],
      "name": "grantRole",
      "outputs": [],
      "stateMutability": "nonpayable",
      "type": "function"
    },
    {
      "inputs": [
        {
          "internalType": "bytes32",
          "name": "role",
          "type": "bytes32"
        },
        {
          "internalType": "address",
          "name": "account",
          "type": "address"
        }
      ],
      "name": "hasRole",
      "outputs": [
        {
          "internalType": "bool",
          "name": "",
          "type": "bool"
        }
      ],
      "stateMutability": "view",
      "type": "function"
    },
    {
      "inputs": [
        {
          "internalType": "address",
          "name": "spender",
          "type": "address"
        },
        {
          "internalType": "uint256",
          "name": "addedValue",
          "type": "uint256"
        }
      ],
      "name": "increaseAllowance",
      "outputs": [
        {
          "internalType": "bool",
          "name": "",
          "type": "bool"
        }
      ],
      "stateMutability": "nonpayable",
      "type": "function"
    },
    {
      "inputs": [
        {
          "internalType": "address",
          "name": "forwarder",
          "type": "address"
        }
      ],
      "name": "isTrustedForwarder",
      "outputs": [
        {
          "internalType": "bool",
          "name": "",
          "type": "bool"
        }
      ],
      "stateMutability": "view",
      "type": "function"
    },
    {
      "inputs": [
        {
          "internalType": "address",
          "name": "to",
          "type": "address"
        },
        {
          "internalType": "uint256",
          "name": "amount",
          "type": "uint256"
        }
      ],
      "name": "mint",
      "outputs": [],
      "stateMutability": "nonpayable",
      "type": "function"
    },
    {
      "inputs": [],
      "name": "name",
      "outputs": [
        {
          "internalType": "string",
          "name": "",
          "type": "string"
        }
      ],
      "stateMutability": "view",
      "type": "function"
    },
    {
      "inputs": [
        {
          "internalType": "address",
          "name": "owner",
          "type": "address"
        }
      ],
      "name": "nonces",
      "outputs": [
        {
          "internalType": "uint256",
          "name": "",
          "type": "uint256"
        }
      ],
      "stateMutability": "view",
      "type": "function"
    },
    {
      "inputs": [],
      "name": "pause",
      "outputs": [],
      "stateMutability": "nonpayable",
      "type": "function"
    },
    {
      "inputs": [],
      "name": "paused",
      "outputs": [
        {
          "internalType": "bool",
          "name": "",
          "type": "bool"
        }
      ],
      "stateMutability": "view",
      "type": "function"
    },
    {
      "inputs": [
        {
          "internalType": "address",
          "name": "owner",
          "type": "address"
        },
        {
          "internalType": "address",
          "name": "spender",
          "type": "address"
        },
        {
          "internalType": "uint256",
          "name": "value",
          "type": "uint256"
        },
        {
          "internalType": "uint256",
          "name": "deadline",
          "type": "uint256"
        },
        {
          "internalType": "uint8",
          "name": "v",
          "type": "uint8"
        },
        {
          "internalType": "bytes32",
          "name": "r",
          "type": "bytes32"
        },
        {
          "internalType": "bytes32",
          "name": "s",
          "type": "bytes32"
        }
      ],
      "name": "permit",
      "outputs": [],
      "stateMutability": "nonpayable",
      "type": "function"
    },
    {
      "inputs": [
        {
          "internalType": "bytes32",
          "name": "role",
          "type": "bytes32"
        },
        {
          "internalType": "address",
          "name": "account",
          "type": "address"
        }
      ],
      "name": "renounceRole",
      "outputs": [],
      "stateMutability": "nonpayable",
      "type": "function"
    },
    {
      "inputs": [
        {
          "internalType": "bytes32",
          "name": "role",
          "type": "bytes32"
        },
        {
          "internalType": "address",
          "name": "account",
          "type": "address"
        }
      ],
      "name": "revokeRole",
      "outputs": [],
      "stateMutability": "nonpayable",
      "type": "function"
    },
    {
      "inputs": [
        {
          "internalType": "string",
          "name": "_URI",
          "type": "string"
        }
      ],
      "name": "setContractURI",
      "outputs": [],
      "stateMutability": "nonpayable",
      "type": "function"
    },
    {
      "inputs": [
        {
          "internalType": "bool",
          "name": "_restrictedTransfer",
          "type": "bool"
        }
      ],
      "name": "setRestrictedTransfer",
      "outputs": [],
      "stateMutability": "nonpayable",
      "type": "function"
    },
    {
      "inputs": [
        {
          "internalType": "bytes4",
          "name": "interfaceId",
          "type": "bytes4"
        }
      ],
      "name": "supportsInterface",
      "outputs": [
        {
          "internalType": "bool",
          "name": "",
          "type": "bool"
        }
      ],
      "stateMutability": "view",
      "type": "function"
    },
    {
      "inputs": [],
      "name": "symbol",
      "outputs": [
        {
          "internalType": "string",
          "name": "",
          "type": "string"
        }
      ],
      "stateMutability": "view",
      "type": "function"
    },
    {
      "inputs": [],
      "name": "totalSupply",
      "outputs": [
        {
          "internalType": "uint256",
          "name": "",
          "type": "uint256"
        }
      ],
      "stateMutability": "view",
      "type": "function"
    },
    {
      "inputs": [
        {
          "internalType": "address",
          "name": "recipient",
          "type": "address"
        },
        {
          "internalType": "uint256",
          "name": "amount",
          "type": "uint256"
        }
      ],
      "name": "transfer",
      "outputs": [
        {
          "internalType": "bool",
          "name": "",
          "type": "bool"
        }
      ],
      "stateMutability": "nonpayable",
      "type": "function"
    },
    {
      "inputs": [
        {
          "internalType": "address",
          "name": "sender",
          "type": "address"
        },
        {
          "internalType": "address",
          "name": "recipient",
          "type": "address"
        },
        {
          "internalType": "uint256",
          "name": "amount",
          "type": "uint256"
        }
      ],
      "name": "transferFrom",
      "outputs": [
        {
          "internalType": "bool",
          "name": "",
          "type": "bool"
        }
      ],
      "stateMutability": "nonpayable",
      "type": "function"
    },
    {
      "inputs": [],
      "name": "transfersRestricted",
      "outputs": [
        {
          "internalType": "bool",
          "name": "",
          "type": "bool"
        }
      ],
      "stateMutability": "view",
      "type": "function"
    },
    {
      "inputs": [],
      "name": "unpause",
      "outputs": [],
      "stateMutability": "nonpayable",
      "type": "function"
    }
  ],
  "bytecode": "0x6101406040527f6e71edae12b1b97f4d1f60370fef10105fa2faae0126114a169c64845d6126c9610120523480156200003757600080fd5b5060405162003278380380620032788339810160408190526200005a9162000599565b8184848180604051806040016040528060018152602001603160f81b815250848481600590805190602001906200009392919062000448565b508051620000a990600690602084019062000448565b50506007805460ff1916905550815160208084019190912082519183019190912060c082905260e08190524660a0527f8b73c3c69bb8fe3d512ecc4cf759cc79239f7b179b0ffacaa9a75d522b39400f620001068184846200020a565b60805261010052506200012b9350600092506200012591505062000246565b62000263565b6200015a7f9f2df0fed2c77648de5860a4cc508cd0818c85b8b8a1ab4ceeef8d981c8956a66200012562000246565b620001897f65d7a28e3265b37a6474929f336521b332c1681b933f6cb9f3376673440d862a6200012562000246565b5050600980546001600160a01b03199081166001600160a01b0393841617909155600a80549091169187169190911790558051620001cf90600b90602084019062000448565b50620001ff7f8502233096d909befbda0999bb8ea2f3a6be3c138b9fbf003752a4c8bce86f6c6200012562000246565b5050505050620006ea565b600083838346306040516020016200022795949392919062000652565b6040516020818303038152906040528051906020012090509392505050565b60006200025d620002a660201b62000e871760201c565b90505b90565b6200027a8282620002e660201b62000eb51760201c565b6000828152600160209081526040909120620002a191839062000ebf620002f6821b17901c565b505050565b6000620002b33362000316565b15620002c9575060131936013560601c62000260565b620002de6200032a60201b62000ed41760201c565b905062000260565b620002f282826200032e565b5050565b60006200030d836001600160a01b038416620003b8565b90505b92915050565b6009546001600160a01b0390811691161490565b3390565b6200033a828262000407565b620002f2576000828152602081815260408083206001600160a01b03851684529091529020805460ff191660011790556200037462000246565b6001600160a01b0316816001600160a01b0316837f2f8788117e7eff1d82e926ec794901d17c78024a50270940304540a733656f0d60405160405180910390a45050565b6000620003c6838362000430565b620003fe5750815460018181018455600084815260208082209093018490558454848252828601909352604090209190915562000310565b50600062000310565b6000918252602082815260408084206001600160a01b0393909316845291905290205460ff1690565b60009081526001919091016020526040902054151590565b82805462000456906200067e565b90600052602060002090601f0160209004810192826200047a5760008555620004c5565b82601f106200049557805160ff1916838001178555620004c5565b82800160010185558215620004c5579182015b82811115620004c5578251825591602001919060010190620004a8565b50620004d3929150620004d7565b5090565b5b80821115620004d35760008155600101620004d8565b600082601f830112620004ff578081fd5b81516001600160401b03808211156200051c576200051c620006bb565b6040516020601f8401601f1916820181018381118382101715620005445762000544620006bb565b60405283825285840181018710156200055b578485fd5b8492505b838310156200057e57858301810151828401820152918201916200055f565b838311156200058f57848185840101525b5095945050505050565b600080600080600060a08688031215620005b1578081fd5b8551620005be81620006d1565b60208701519095506001600160401b0380821115620005db578283fd5b620005e989838a01620004ee565b95506040880151915080821115620005ff578283fd5b6200060d89838a01620004ee565b9450606088015191506200062182620006d1565b60808801519193508082111562000636578283fd5b506200064588828901620004ee565b9150509295509295909350565b9485526020850193909352604084019190915260608301526001600160a01b0316608082015260a00190565b6002810460018216806200069357607f821691505b60208210811415620006b557634e487b7160e01b600052602260045260246000fd5b50919050565b634e487b7160e01b600052604160045260246000fd5b6001600160a01b0381168114620006e757600080fd5b50565b60805160a05160c05160e0516101005161012051612b3e6200073a6000396000610d3d0152600061115f015260006111a1015260006111800152600061110d015260006111360152612b3e6000f3fe608060405234801561001057600080fd5b50600436106102325760003560e01c80637ecebe0011610130578063a457c2d7116100b8578063d53913931161007c578063d539139314610472578063d547741f1461047a578063dd62ed3e1461048d578063e63ab1e9146104a0578063e8a3d485146104a857610232565b8063a457c2d71461041e578063a9059cbb14610431578063c0e7274014610444578063ca15c8731461044c578063d505accf1461045f57610232565b80639010d07c116100ff5780639010d07c146103c857806391d14854146103e8578063938e3d7b146103fb57806395d89b411461040e578063a217fddf1461041657610232565b80637ecebe00146103925780638423df79146103a55780638456cb59146103ad5780638ba448c2146103b557610232565b80633644e515116101be57806342966c681161018257806342966c681461033e578063572b6c05146103515780635c975abb1461036457806370a082311461036c57806379cc67901461037f57610232565b80633644e515146102f557806336568abe146102fd57806339509351146103105780633f4ba83a1461032357806340c10f191461032b57610232565b8063206b60f911610205578063206b60f91461029d57806323b872dd146102a5578063248a9ca3146102b85780632f2ff15d146102cb578063313ce567146102e057610232565b806301ffc9a71461023757806306fdde0314610260578063095ea7b31461027557806318160ddd14610288575b600080fd5b61024a610245366004612087565b6104b0565b60405161025791906121cc565b60405180910390f35b6102686104dd565b6040516102579190612275565b61024a610283366004611fb3565b610570565b61029061058e565b60405161025791906121d7565b610290610594565b61024a6102b3366004611f07565b6105b8565b6102906102c6366004612014565b610651565b6102de6102d9366004612044565b610666565b005b6102e861068d565b6040516102579190612a39565b610290610692565b6102de61030b366004612044565b6106a1565b61024a61031e366004611fb3565b6106c3565b6102de610717565b6102de610339366004611fb3565b610769565b6102de61034c366004612014565b61081a565b61024a61035f366004611ebb565b61082e565b61024a610842565b61029061037a366004611ebb565b61084b565b6102de61038d366004611fb3565b610866565b6102906103a0366004611ebb565b6108b4565b61024a6108d5565b6102de6108e5565b6102de6103c3366004611fdc565b610935565b6103db6103d6366004612066565b610a69565b60405161025791906121b8565b61024a6103f6366004612044565b610a88565b6102de6104093660046120af565b610ab1565b610268610bd3565b610290610be2565b61024a61042c366004611fb3565b610be7565b61024a61043f366004611fb3565b610c60565b610268610c74565b61029061045a366004612014565b610d02565b6102de61046d366004611f42565b610d19565b610290610dfb565b6102de610488366004612044565b610e1f565b61029061049b366004611ed5565b610e29565b610290610e54565b610268610e78565b60006001600160e01b03198216635a05180f60e01b14806104d557506104d582610ed8565b90505b919050565b6060600580546104ec90612ad8565b80601f016020809104026020016040519081016040528092919081815260200182805461051890612ad8565b80156105655780601f1061053a57610100808354040283529160200191610565565b820191906000526020600020905b81548152906001019060200180831161054857829003601f168201915b505050505090505b90565b600061058461057d610efd565b8484610f07565b5060015b92915050565b60045490565b7f8502233096d909befbda0999bb8ea2f3a6be3c138b9fbf003752a4c8bce86f6c81565b60006105c5848484610fbb565b6001600160a01b0384166000908152600360205260408120816105e6610efd565b6001600160a01b03166001600160a01b03168152602001908152602001600020549050828110156106325760405162461bcd60e51b8152600401610629906126a9565b60405180910390fd5b6106468561063e610efd565b858403610f07565b506001949350505050565b60009081526020819052604090206001015490565b61067082826110e5565b60008281526001602052604090206106889082610ebf565b505050565b601290565b600061069c611109565b905090565b6106ab82826111c5565b60008281526001602052604090206106889082611207565b60006105846106d0610efd565b8484600360006106de610efd565b6001600160a01b03908116825260208083019390935260409182016000908120918b16815292529020546107129190612a47565b610f07565b6107437f65d7a28e3265b37a6474929f336521b332c1681b933f6cb9f3376673440d862a6103f6610efd565b61075f5760405162461bcd60e51b815260040161062990612407565b61076761121c565b565b600a60009054906101000a90046001600160a01b03166001600160a01b0316639d2f83f06040518163ffffffff1660e01b815260040160206040518083038186803b1580156107b757600080fd5b505afa1580156107cb573d6000803e3d6000fd5b505050506040513d601f19601f820116820180604052508101906107ef9190611ff8565b1561080c5760405162461bcd60e51b815260040161062990612523565b610816828261128a565b5050565b61082b610825610efd565b826112dc565b50565b6009546001600160a01b0390811691161490565b60075460ff1690565b6001600160a01b031660009081526002602052604090205490565b60006108748361049b610efd565b9050818110156108965760405162461bcd60e51b81526004016106299061274e565b6108aa836108a2610efd565b848403610f07565b61068883836112dc565b6001600160a01b03811660009081526008602052604081206104d5906113cd565b600954600160a01b900460ff1681565b6109117f65d7a28e3265b37a6474929f336521b332c1681b933f6cb9f3376673440d862a6103f6610efd565b61092d5760405162461bcd60e51b81526004016106299061285c565b6107676113d1565b600a5460408051634a32c6bf60e11b815290516001600160a01b03909216916391d148549183916394658d7e91600480820192602092909190829003018186803b15801561098257600080fd5b505afa158015610996573d6000803e3d6000fd5b505050506040513d601f19601f820116820180604052508101906109ba919061202c565b6109c2610efd565b6040518363ffffffff1660e01b81526004016109df9291906121e0565b60206040518083038186803b1580156109f757600080fd5b505afa158015610a0b573d6000803e3d6000fd5b505050506040513d601f19601f82011682018060405250810190610a2f9190611ff8565b610a4b5760405162461bcd60e51b8152600401610629906128b9565b60098054911515600160a01b0260ff60a01b19909216919091179055565b6000828152600160205260408120610a81908361142c565b9392505050565b6000918252602082815260408084206001600160a01b0393909316845291905290205460ff1690565b600a5460408051634a32c6bf60e11b815290516001600160a01b03909216916391d148549183916394658d7e91600480820192602092909190829003018186803b158015610afe57600080fd5b505afa158015610b12573d6000803e3d6000fd5b505050506040513d601f19601f82011682018060405250810190610b36919061202c565b610b3e610efd565b6040518363ffffffff1660e01b8152600401610b5b9291906121e0565b60206040518083038186803b158015610b7357600080fd5b505afa158015610b87573d6000803e3d6000fd5b505050506040513d601f19601f82011682018060405250810190610bab9190611ff8565b610bc75760405162461bcd60e51b8152600401610629906128b9565b610688600b8383611e0b565b6060600680546104ec90612ad8565b600081565b60008060036000610bf6610efd565b6001600160a01b0390811682526020808301939093526040918201600090812091881681529252902054905082811015610c425760405162461bcd60e51b815260040161062990612916565b610c56610c4d610efd565b85858403610f07565b5060019392505050565b6000610584610c6d610efd565b8484610fbb565b600b8054610c8190612ad8565b80601f0160208091040260200160405190810160405280929190818152602001828054610cad90612ad8565b8015610cfa5780601f10610ccf57610100808354040283529160200191610cfa565b820191906000526020600020905b815481529060010190602001808311610cdd57829003601f168201915b505050505081565b60008181526001602052604081206104d590611438565b83421115610d395760405162461bcd60e51b8152600401610629906124a6565b60007f0000000000000000000000000000000000000000000000000000000000000000888888610d688c611443565b89604051602001610d7e969594939291906121f7565b6040516020818303038152906040528051906020012090506000610da182611475565b90506000610db182878787611488565b9050896001600160a01b0316816001600160a01b031614610de45760405162461bcd60e51b815260040161062990612672565b610def8a8a8a610f07565b50505050505050505050565b7f9f2df0fed2c77648de5860a4cc508cd0818c85b8b8a1ab4ceeef8d981c8956a681565b6106ab82826114b0565b6001600160a01b03918216600090815260036020908152604080832093909416825291909152205490565b7f65d7a28e3265b37a6474929f336521b332c1681b933f6cb9f3376673440d862a81565b6060600b80546104ec90612ad8565b6000610e923361082e565b15610ea6575060131936013560601c61056d565b610eae610ed4565b905061056d565b61081682826114cf565b6000610a81836001600160a01b038416611554565b3390565b60006001600160e01b03198216637965db0b60e01b14806104d557506104d58261159e565b600061069c610e87565b6001600160a01b038316610f2d5760405162461bcd60e51b815260040161062990612818565b6001600160a01b038216610f535760405162461bcd60e51b815260040161062990612464565b6001600160a01b0380841660008181526003602090815260408083209487168084529490915290819020849055517f8c5be1e5ebec7d5bd14f71427d1e84f3dd0314c0f7b2291e5b200ac8c7c3b92590610fae9085906121d7565b60405180910390a3505050565b6001600160a01b038316610fe15760405162461bcd60e51b8152600401610629906127d3565b6001600160a01b0382166110075760405162461bcd60e51b815260040161062990612314565b6110128383836115b7565b6001600160a01b0383166000908152600260205260409020548181101561104b5760405162461bcd60e51b8152600401610629906124dd565b6001600160a01b03808516600090815260026020526040808220858503905591851681529081208054849290611082908490612a47565b92505081905550826001600160a01b0316846001600160a01b03167fddf252ad1be2c89b69c2b068fc378daa952ba7f163c4a11628f55a4df523b3ef846040516110cc91906121d7565b60405180910390a36110df848484610688565b50505050565b6110ee82610651565b6110ff816110fa610efd565b611672565b61068883836114cf565b60007f000000000000000000000000000000000000000000000000000000000000000046141561115a57507f000000000000000000000000000000000000000000000000000000000000000061056d565b610eae7f00000000000000000000000000000000000000000000000000000000000000007f00000000000000000000000000000000000000000000000000000000000000007f00000000000000000000000000000000000000000000000000000000000000006116d6565b6111cd610efd565b6001600160a01b0316816001600160a01b0316146111fd5760405162461bcd60e51b81526004016106299061295b565b6108168282611710565b6000610a81836001600160a01b038416611793565b611224610842565b6112405760405162461bcd60e51b815260040161062990612357565b6007805460ff191690557f5db9ee0a495bf2e6ff9c91a7834c1ba4fdd244a5e8aa4e537bd38aeae4b073aa611273610efd565b60405161128091906121b8565b60405180910390a1565b6112b67f9f2df0fed2c77648de5860a4cc508cd0818c85b8b8a1ab4ceeef8d981c8956a66103f6610efd565b6112d25760405162461bcd60e51b8152600401610629906126f1565b61081682826118b0565b6001600160a01b0382166113025760405162461bcd60e51b815260040161062990612792565b61130e826000836115b7565b6001600160a01b038216600090815260026020526040902054818110156113475760405162461bcd60e51b81526004016106299061238e565b6001600160a01b0383166000908152600260205260408120838303905560048054849290611376908490612a7e565b90915550506040516000906001600160a01b038516907fddf252ad1be2c89b69c2b068fc378daa952ba7f163c4a11628f55a4df523b3ef906113b99086906121d7565b60405180910390a361068883600084610688565b5490565b6113d9610842565b156113f65760405162461bcd60e51b81526004016106299061259c565b6007805460ff191660011790557f62e78cea01bee320cd4e420270b5ea74000d11b0c9f74754ebdbfc544b05a258611273610efd565b6000610a818383611978565b60006104d5826113cd565b6001600160a01b0381166000908152600860205260408120611464816113cd565b915061146f816119b0565b50919050565b60006104d5611482611109565b836119b9565b6000806000611499878787876119ec565b915091506114a681611acc565b5095945050505050565b6114b982610651565b6114c5816110fa610efd565b6106888383611710565b6114d98282610a88565b610816576000828152602081815260408083206001600160a01b03851684529091529020805460ff19166001179055611510610efd565b6001600160a01b0316816001600160a01b0316837f2f8788117e7eff1d82e926ec794901d17c78024a50270940304540a733656f0d60405160405180910390a45050565b60006115608383611bf9565b61159657508154600181810184556000848152602080822090930184905584548482528286019093526040902091909155610588565b506000610588565b6001600160e01b031981166301ffc9a760e01b14919050565b6115c2838383611c11565b600954600160a01b900460ff1680156115e357506001600160a01b03831615155b80156115f757506001600160a01b03821615155b15610688576116267f8502233096d909befbda0999bb8ea2f3a6be3c138b9fbf003752a4c8bce86f6c84610a88565b8061165657506116567f8502233096d909befbda0999bb8ea2f3a6be3c138b9fbf003752a4c8bce86f6c83610a88565b6106885760405162461bcd60e51b8152600401610629906125d3565b61167c8282610a88565b61081657611694816001600160a01b03166014611c1c565b61169f836020611c1c565b6040516020016116b0929190612137565b60408051601f198184030181529082905262461bcd60e51b825261062991600401612275565b600083838346306040516020016116f195949392919061222b565b6040516020818303038152906040528051906020012090509392505050565b61171a8282610a88565b15610816576000828152602081815260408083206001600160a01b03851684529091529020805460ff1916905561174f610efd565b6001600160a01b0316816001600160a01b0316837ff6391f5c32d9c69d2a47ea670b442974b53935d1edc7fd64eb21e047a839171b60405160405180910390a45050565b600081815260018301602052604081205480156118a65760006117b7600183612a7e565b85549091506000906117cb90600190612a7e565b905081811461184c5760008660000182815481106117f957634e487b7160e01b600052603260045260246000fd5b906000526020600020015490508087600001848154811061182a57634e487b7160e01b600052603260045260246000fd5b6000918252602080832090910192909255918252600188019052604090208390555b855486908061186b57634e487b7160e01b600052603160045260246000fd5b600190038181906000526020600020016000905590558560010160008681526020019081526020016000206000905560019350505050610588565b6000915050610588565b6001600160a01b0382166118d65760405162461bcd60e51b8152600401610629906129b8565b6118e2600083836115b7565b80600460008282546118f49190612a47565b90915550506001600160a01b03821660009081526002602052604081208054839290611921908490612a47565b90915550506040516001600160a01b038316906000907fddf252ad1be2c89b69c2b068fc378daa952ba7f163c4a11628f55a4df523b3ef906119649085906121d7565b60405180910390a361081660008383610688565b600082600001828154811061199d57634e487b7160e01b600052603260045260246000fd5b9060005260206000200154905092915050565b80546001019055565b600082826040516020016119ce92919061211c565b60405160208183030381529060405280519060200120905092915050565b6000807f7fffffffffffffffffffffffffffffff5d576e7357a4501ddfe92f46681b20a0831115611a235750600090506003611ac3565b8460ff16601b14158015611a3b57508460ff16601c14155b15611a4c5750600090506004611ac3565b600060018787878760405160008152602001604052604051611a719493929190612257565b6020604051602081039080840390855afa158015611a93573d6000803e3d6000fd5b5050604051601f1901519150506001600160a01b038116611abc57600060019250925050611ac3565b9150600090505b94509492505050565b6000816004811115611aee57634e487b7160e01b600052602160045260246000fd5b1415611af95761082b565b6001816004811115611b1b57634e487b7160e01b600052602160045260246000fd5b1415611b395760405162461bcd60e51b8152600401610629906122a8565b6002816004811115611b5b57634e487b7160e01b600052602160045260246000fd5b1415611b795760405162461bcd60e51b8152600401610629906123d0565b6003816004811115611b9b57634e487b7160e01b600052602160045260246000fd5b1415611bb95760405162461bcd60e51b81526004016106299061255a565b6004816004811115611bdb57634e487b7160e01b600052602160045260246000fd5b141561082b5760405162461bcd60e51b815260040161062990612630565b60009081526001919091016020526040902054151590565b610688838383611ddb565b60606000611c2b836002612a5f565b611c36906002612a47565b67ffffffffffffffff811115611c5c57634e487b7160e01b600052604160045260246000fd5b6040519080825280601f01601f191660200182016040528015611c86576020820181803683370190505b509050600360fc1b81600081518110611caf57634e487b7160e01b600052603260045260246000fd5b60200101906001600160f81b031916908160001a905350600f60fb1b81600181518110611cec57634e487b7160e01b600052603260045260246000fd5b60200101906001600160f81b031916908160001a9053506000611d10846002612a5f565b611d1b906001612a47565b90505b6001811115611dbc577f303132333435363738396162636465660000000000000000000000000000000085600f1660108110611d6a57634e487b7160e01b600052603260045260246000fd5b1a60f81b828281518110611d8e57634e487b7160e01b600052603260045260246000fd5b60200101906001600160f81b031916908160001a90535060049490941c93611db581612ac1565b9050611d1e565b508315610a815760405162461bcd60e51b8152600401610629906122df565b611de6838383610688565b611dee610842565b156106885760405162461bcd60e51b8152600401610629906129ef565b828054611e1790612ad8565b90600052602060002090601f016020900481019282611e395760008555611e7f565b82601f10611e525782800160ff19823516178555611e7f565b82800160010185558215611e7f579182015b82811115611e7f578235825591602001919060010190611e64565b50611e8b929150611e8f565b5090565b5b80821115611e8b5760008155600101611e90565b80356001600160a01b03811681146104d857600080fd5b600060208284031215611ecc578081fd5b610a8182611ea4565b60008060408385031215611ee7578081fd5b611ef083611ea4565b9150611efe60208401611ea4565b90509250929050565b600080600060608486031215611f1b578081fd5b611f2484611ea4565b9250611f3260208501611ea4565b9150604084013590509250925092565b600080600080600080600060e0888a031215611f5c578283fd5b611f6588611ea4565b9650611f7360208901611ea4565b95506040880135945060608801359350608088013560ff81168114611f96578384fd5b9699959850939692959460a0840135945060c09093013592915050565b60008060408385031215611fc5578182fd5b611fce83611ea4565b946020939093013593505050565b600060208284031215611fed578081fd5b8135610a8181612b23565b600060208284031215612009578081fd5b8151610a8181612b23565b600060208284031215612025578081fd5b5035919050565b60006020828403121561203d578081fd5b5051919050565b60008060408385031215612056578182fd5b82359150611efe60208401611ea4565b60008060408385031215612078578182fd5b50508035926020909101359150565b600060208284031215612098578081fd5b81356001600160e01b031981168114610a81578182fd5b600080602083850312156120c1578182fd5b823567ffffffffffffffff808211156120d8578384fd5b818501915085601f8301126120eb578384fd5b8135818111156120f9578485fd5b86602082850101111561210a578485fd5b60209290920196919550909350505050565b61190160f01b81526002810192909252602282015260420190565b60007f416363657373436f6e74726f6c3a206163636f756e74200000000000000000008252835161216f816017850160208801612a95565b7f206973206d697373696e6720726f6c652000000000000000000000000000000060179184019182015283516121ac816028840160208801612a95565b01602801949350505050565b6001600160a01b0391909116815260200190565b901515815260200190565b90815260200190565b9182526001600160a01b0316602082015260400190565b9586526001600160a01b0394851660208701529290931660408501526060840152608083019190915260a082015260c00190565b9485526020850193909352604084019190915260608301526001600160a01b0316608082015260a00190565b93845260ff9290921660208401526040830152606082015260800190565b6000602082528251806020840152612294816040850160208701612a95565b601f01601f19169190910160400192915050565b60208082526018908201527f45434453413a20696e76616c6964207369676e61747572650000000000000000604082015260600190565b6020808252818101527f537472696e67733a20686578206c656e67746820696e73756666696369656e74604082015260600190565b60208082526023908201527f45524332303a207472616e7366657220746f20746865207a65726f206164647260408201526265737360e81b606082015260800190565b60208082526014908201527f5061757361626c653a206e6f7420706175736564000000000000000000000000604082015260600190565b60208082526022908201527f45524332303a206275726e20616d6f756e7420657863656564732062616c616e604082015261636560f01b606082015260800190565b6020808252601f908201527f45434453413a20696e76616c6964207369676e6174757265206c656e67746800604082015260600190565b60208082526039908201527f45524332305072657365744d696e7465725061757365723a206d75737420686160408201527f76652070617573657220726f6c6520746f20756e706175736500000000000000606082015260800190565b60208082526022908201527f45524332303a20617070726f766520746f20746865207a65726f206164647265604082015261737360f01b606082015260800190565b6020808252601d908201527f45524332305065726d69743a206578706972656420646561646c696e65000000604082015260600190565b60208082526026908201527f45524332303a207472616e7366657220616d6f756e7420657863656564732062604082015265616c616e636560d01b606082015260800190565b6020808252601d908201527f436f696e3a205468652070726f746f636f6c206973207061757365642e000000604082015260600190565b60208082526022908201527f45434453413a20696e76616c6964207369676e6174757265202773272076616c604082015261756560f01b606082015260800190565b60208082526010908201527f5061757361626c653a2070617573656400000000000000000000000000000000604082015260600190565b60208082526036908201527f4e46543a205472616e736665727320617265207265737472696374656420746f60408201527f205452414e534645525f524f4c4520686f6c6465727300000000000000000000606082015260800190565b60208082526022908201527f45434453413a20696e76616c6964207369676e6174757265202776272076616c604082015261756560f01b606082015260800190565b6020808252601e908201527f45524332305065726d69743a20696e76616c6964207369676e61747572650000604082015260600190565b60208082526028908201527f45524332303a207472616e7366657220616d6f756e74206578636565647320616040820152676c6c6f77616e636560c01b606082015260800190565b60208082526036908201527f45524332305072657365744d696e7465725061757365723a206d75737420686160408201527f7665206d696e74657220726f6c6520746f206d696e7400000000000000000000606082015260800190565b60208082526024908201527f45524332303a206275726e20616d6f756e74206578636565647320616c6c6f77604082015263616e636560e01b606082015260800190565b60208082526021908201527f45524332303a206275726e2066726f6d20746865207a65726f206164647265736040820152607360f81b606082015260800190565b60208082526025908201527f45524332303a207472616e736665722066726f6d20746865207a65726f206164604082015264647265737360d81b606082015260800190565b60208082526024908201527f45524332303a20617070726f76652066726f6d20746865207a65726f206164646040820152637265737360e01b606082015260800190565b60208082526037908201527f45524332305072657365744d696e7465725061757365723a206d75737420686160408201527f76652070617573657220726f6c6520746f207061757365000000000000000000606082015260800190565b60208082526033908201527f436f696e3a206f6e6c7920612070726f746f636f6c2061646d696e2063616e2060408201527f63616c6c20746869732066756e6374696f6e2e00000000000000000000000000606082015260800190565b60208082526025908201527f45524332303a2064656372656173656420616c6c6f77616e63652062656c6f77604082015264207a65726f60d81b606082015260800190565b6020808252602f908201527f416363657373436f6e74726f6c3a2063616e206f6e6c792072656e6f756e636560408201527f20726f6c657320666f722073656c660000000000000000000000000000000000606082015260800190565b6020808252601f908201527f45524332303a206d696e7420746f20746865207a65726f206164647265737300604082015260600190565b6020808252602a908201527f45524332305061757361626c653a20746f6b656e207472616e736665722077686040820152691a5b19481c185d5cd95960b21b606082015260800190565b60ff91909116815260200190565b60008219821115612a5a57612a5a612b0d565b500190565b6000816000190483118215151615612a7957612a79612b0d565b500290565b600082821015612a9057612a90612b0d565b500390565b60005b83811015612ab0578181015183820152602001612a98565b838111156110df5750506000910152565b600081612ad057612ad0612b0d565b506000190190565b600281046001821680612aec57607f821691505b6020821081141561146f57634e487b7160e01b600052602260045260246000fd5b634e487b7160e01b600052601160045260246000fd5b801515811461082b57600080fdfea164736f6c6343000800000a",
  "linkReferences": {},
  "deployedLinkReferences": {}
}