{
  "_format": "hh-sol-artifact-1",
  "contractName": "Coin",
  "sourceName": "contracts/Coin.sol",
  "abi": [
    {
      "inputs": [
        {
          "internalType": "string",
          "name": "_name",
          "type": "string"
        },
        {
          "internalType": "string",
          "name": "_symbol",
          "type": "string"
        },
        {
          "internalType": "address",
          "name": "_trustedForwarder",
          "type": "address"
        }
      ],
      "stateMutability": "nonpayable",
      "type": "constructor"
    },
    {
      "anonymous": false,
      "inputs": [
        {
          "indexed": true,
          "internalType": "address",
          "name": "owner",
          "type": "address"
        },
        {
          "indexed": true,
          "internalType": "address",
          "name": "spender",
          "type": "address"
        },
        {
          "indexed": false,
          "internalType": "uint256",
          "name": "value",
          "type": "uint256"
        }
      ],
      "name": "Approval",
      "type": "event"
    },
    {
      "anonymous": false,
      "inputs": [
        {
          "indexed": false,
          "internalType": "address",
          "name": "account",
          "type": "address"
        }
      ],
      "name": "Paused",
      "type": "event"
    },
    {
      "anonymous": false,
      "inputs": [
        {
          "indexed": true,
          "internalType": "bytes32",
          "name": "role",
          "type": "bytes32"
        },
        {
          "indexed": true,
          "internalType": "bytes32",
          "name": "previousAdminRole",
          "type": "bytes32"
        },
        {
          "indexed": true,
          "internalType": "bytes32",
          "name": "newAdminRole",
          "type": "bytes32"
        }
      ],
      "name": "RoleAdminChanged",
      "type": "event"
    },
    {
      "anonymous": false,
      "inputs": [
        {
          "indexed": true,
          "internalType": "bytes32",
          "name": "role",
          "type": "bytes32"
        },
        {
          "indexed": true,
          "internalType": "address",
          "name": "account",
          "type": "address"
        },
        {
          "indexed": true,
          "internalType": "address",
          "name": "sender",
          "type": "address"
        }
      ],
      "name": "RoleGranted",
      "type": "event"
    },
    {
      "anonymous": false,
      "inputs": [
        {
          "indexed": true,
          "internalType": "bytes32",
          "name": "role",
          "type": "bytes32"
        },
        {
          "indexed": true,
          "internalType": "address",
          "name": "account",
          "type": "address"
        },
        {
          "indexed": true,
          "internalType": "address",
          "name": "sender",
          "type": "address"
        }
      ],
      "name": "RoleRevoked",
      "type": "event"
    },
    {
      "anonymous": false,
      "inputs": [
        {
          "indexed": true,
          "internalType": "address",
          "name": "from",
          "type": "address"
        },
        {
          "indexed": true,
          "internalType": "address",
          "name": "to",
          "type": "address"
        },
        {
          "indexed": false,
          "internalType": "uint256",
          "name": "value",
          "type": "uint256"
        }
      ],
      "name": "Transfer",
      "type": "event"
    },
    {
      "anonymous": false,
      "inputs": [
        {
          "indexed": false,
          "internalType": "address",
          "name": "account",
          "type": "address"
        }
      ],
      "name": "Unpaused",
      "type": "event"
    },
    {
      "inputs": [],
      "name": "DEFAULT_ADMIN_ROLE",
      "outputs": [
        {
          "internalType": "bytes32",
          "name": "",
          "type": "bytes32"
        }
      ],
      "stateMutability": "view",
      "type": "function"
    },
    {
      "inputs": [],
      "name": "MINTER_ROLE",
      "outputs": [
        {
          "internalType": "bytes32",
          "name": "",
          "type": "bytes32"
        }
      ],
      "stateMutability": "view",
      "type": "function"
    },
    {
      "inputs": [],
      "name": "PAUSER_ROLE",
      "outputs": [
        {
          "internalType": "bytes32",
          "name": "",
          "type": "bytes32"
        }
      ],
      "stateMutability": "view",
      "type": "function"
    },
    {
      "inputs": [
        {
          "internalType": "address",
          "name": "owner",
          "type": "address"
        },
        {
          "internalType": "address",
          "name": "spender",
          "type": "address"
        }
      ],
      "name": "allowance",
      "outputs": [
        {
          "internalType": "uint256",
          "name": "",
          "type": "uint256"
        }
      ],
      "stateMutability": "view",
      "type": "function"
    },
    {
      "inputs": [
        {
          "internalType": "address",
          "name": "spender",
          "type": "address"
        },
        {
          "internalType": "uint256",
          "name": "amount",
          "type": "uint256"
        }
      ],
      "name": "approve",
      "outputs": [
        {
          "internalType": "bool",
          "name": "",
          "type": "bool"
        }
      ],
      "stateMutability": "nonpayable",
      "type": "function"
    },
    {
      "inputs": [
        {
          "internalType": "address",
          "name": "account",
          "type": "address"
        }
      ],
      "name": "balanceOf",
      "outputs": [
        {
          "internalType": "uint256",
          "name": "",
          "type": "uint256"
        }
      ],
      "stateMutability": "view",
      "type": "function"
    },
    {
      "inputs": [
        {
          "internalType": "uint256",
          "name": "amount",
          "type": "uint256"
        }
      ],
      "name": "burn",
      "outputs": [],
      "stateMutability": "nonpayable",
      "type": "function"
    },
    {
      "inputs": [
        {
          "internalType": "address",
          "name": "account",
          "type": "address"
        },
        {
          "internalType": "uint256",
          "name": "amount",
          "type": "uint256"
        }
      ],
      "name": "burnFrom",
      "outputs": [],
      "stateMutability": "nonpayable",
      "type": "function"
    },
    {
      "inputs": [],
      "name": "decimals",
      "outputs": [
        {
          "internalType": "uint8",
          "name": "",
          "type": "uint8"
        }
      ],
      "stateMutability": "view",
      "type": "function"
    },
    {
      "inputs": [
        {
          "internalType": "address",
          "name": "spender",
          "type": "address"
        },
        {
          "internalType": "uint256",
          "name": "subtractedValue",
          "type": "uint256"
        }
      ],
      "name": "decreaseAllowance",
      "outputs": [
        {
          "internalType": "bool",
          "name": "",
          "type": "bool"
        }
      ],
      "stateMutability": "nonpayable",
      "type": "function"
    },
    {
      "inputs": [
        {
          "internalType": "bytes32",
          "name": "role",
          "type": "bytes32"
        }
      ],
      "name": "getRoleAdmin",
      "outputs": [
        {
          "internalType": "bytes32",
          "name": "",
          "type": "bytes32"
        }
      ],
      "stateMutability": "view",
      "type": "function"
    },
    {
      "inputs": [
        {
          "internalType": "bytes32",
          "name": "role",
          "type": "bytes32"
        },
        {
          "internalType": "uint256",
          "name": "index",
          "type": "uint256"
        }
      ],
      "name": "getRoleMember",
      "outputs": [
        {
          "internalType": "address",
          "name": "",
          "type": "address"
        }
      ],
      "stateMutability": "view",
      "type": "function"
    },
    {
      "inputs": [
        {
          "internalType": "bytes32",
          "name": "role",
          "type": "bytes32"
        }
      ],
      "name": "getRoleMemberCount",
      "outputs": [
        {
          "internalType": "uint256",
          "name": "",
          "type": "uint256"
        }
      ],
      "stateMutability": "view",
      "type": "function"
    },
    {
      "inputs": [
        {
          "internalType": "bytes32",
          "name": "role",
          "type": "bytes32"
        },
        {
          "internalType": "address",
          "name": "account",
          "type": "address"
        }
      ],
      "name": "grantRole",
      "outputs": [],
      "stateMutability": "nonpayable",
      "type": "function"
    },
    {
      "inputs": [
        {
          "internalType": "bytes32",
          "name": "role",
          "type": "bytes32"
        },
        {
          "internalType": "address",
          "name": "account",
          "type": "address"
        }
      ],
      "name": "hasRole",
      "outputs": [
        {
          "internalType": "bool",
          "name": "",
          "type": "bool"
        }
      ],
      "stateMutability": "view",
      "type": "function"
    },
    {
      "inputs": [
        {
          "internalType": "address",
          "name": "spender",
          "type": "address"
        },
        {
          "internalType": "uint256",
          "name": "addedValue",
          "type": "uint256"
        }
      ],
      "name": "increaseAllowance",
      "outputs": [
        {
          "internalType": "bool",
          "name": "",
          "type": "bool"
        }
      ],
      "stateMutability": "nonpayable",
      "type": "function"
    },
    {
      "inputs": [
        {
          "internalType": "address",
          "name": "forwarder",
          "type": "address"
        }
      ],
      "name": "isTrustedForwarder",
      "outputs": [
        {
          "internalType": "bool",
          "name": "",
          "type": "bool"
        }
      ],
      "stateMutability": "view",
      "type": "function"
    },
    {
      "inputs": [
        {
          "internalType": "address",
          "name": "to",
          "type": "address"
        },
        {
          "internalType": "uint256",
          "name": "amount",
          "type": "uint256"
        }
      ],
      "name": "mint",
      "outputs": [],
      "stateMutability": "nonpayable",
      "type": "function"
    },
    {
      "inputs": [],
      "name": "name",
      "outputs": [
        {
          "internalType": "string",
          "name": "",
          "type": "string"
        }
      ],
      "stateMutability": "view",
      "type": "function"
    },
    {
      "inputs": [],
      "name": "pause",
      "outputs": [],
      "stateMutability": "nonpayable",
      "type": "function"
    },
    {
      "inputs": [],
      "name": "paused",
      "outputs": [
        {
          "internalType": "bool",
          "name": "",
          "type": "bool"
        }
      ],
      "stateMutability": "view",
      "type": "function"
    },
    {
      "inputs": [
        {
          "internalType": "bytes32",
          "name": "role",
          "type": "bytes32"
        },
        {
          "internalType": "address",
          "name": "account",
          "type": "address"
        }
      ],
      "name": "renounceRole",
      "outputs": [],
      "stateMutability": "nonpayable",
      "type": "function"
    },
    {
      "inputs": [
        {
          "internalType": "bytes32",
          "name": "role",
          "type": "bytes32"
        },
        {
          "internalType": "address",
          "name": "account",
          "type": "address"
        }
      ],
      "name": "revokeRole",
      "outputs": [],
      "stateMutability": "nonpayable",
      "type": "function"
    },
    {
      "inputs": [
        {
          "internalType": "bytes4",
          "name": "interfaceId",
          "type": "bytes4"
        }
      ],
      "name": "supportsInterface",
      "outputs": [
        {
          "internalType": "bool",
          "name": "",
          "type": "bool"
        }
      ],
      "stateMutability": "view",
      "type": "function"
    },
    {
      "inputs": [],
      "name": "symbol",
      "outputs": [
        {
          "internalType": "string",
          "name": "",
          "type": "string"
        }
      ],
      "stateMutability": "view",
      "type": "function"
    },
    {
      "inputs": [],
      "name": "totalSupply",
      "outputs": [
        {
          "internalType": "uint256",
          "name": "",
          "type": "uint256"
        }
      ],
      "stateMutability": "view",
      "type": "function"
    },
    {
      "inputs": [
        {
          "internalType": "address",
          "name": "recipient",
          "type": "address"
        },
        {
          "internalType": "uint256",
          "name": "amount",
          "type": "uint256"
        }
      ],
      "name": "transfer",
      "outputs": [
        {
          "internalType": "bool",
          "name": "",
          "type": "bool"
        }
      ],
      "stateMutability": "nonpayable",
      "type": "function"
    },
    {
      "inputs": [
        {
          "internalType": "address",
          "name": "sender",
          "type": "address"
        },
        {
          "internalType": "address",
          "name": "recipient",
          "type": "address"
        },
        {
          "internalType": "uint256",
          "name": "amount",
          "type": "uint256"
        }
      ],
      "name": "transferFrom",
      "outputs": [
        {
          "internalType": "bool",
          "name": "",
          "type": "bool"
        }
      ],
      "stateMutability": "nonpayable",
      "type": "function"
    },
    {
      "inputs": [],
      "name": "unpause",
      "outputs": [],
      "stateMutability": "nonpayable",
      "type": "function"
    }
  ],
  "bytecode": "0x60806040523480156200001157600080fd5b506040516200222138038062002221833981016040819052620000349162000472565b808383818181600590805190602001906200005192919062000321565b5080516200006790600690602084019062000321565b50506007805460ff19169055506200008a6000620000846200011a565b62000137565b620000b97f9f2df0fed2c77648de5860a4cc508cd0818c85b8b8a1ab4ceeef8d981c8956a6620000846200011a565b620000e87f65d7a28e3265b37a6474929f336521b332c1681b933f6cb9f3376673440d862a620000846200011a565b5050600780546001600160a01b0390921661010002610100600160a81b0319909216919091179055506200054e915050565b6000620001316200017a60201b620009211760201c565b90505b90565b6200014e8282620001ba60201b6200094f1760201c565b60008281526001602090815260409091206200017591839062000959620001ca821b17901c565b505050565b60006200018733620001ea565b156200019d575060131936013560601c62000134565b620001b26200020360201b6200096e1760201c565b905062000134565b620001c6828262000207565b5050565b6000620001e1836001600160a01b03841662000291565b90505b92915050565b60075461010090046001600160a01b0390811691161490565b3390565b620002138282620002e0565b620001c6576000828152602081815260408083206001600160a01b03851684529091529020805460ff191660011790556200024d6200011a565b6001600160a01b0316816001600160a01b0316837f2f8788117e7eff1d82e926ec794901d17c78024a50270940304540a733656f0d60405160405180910390a45050565b60006200029f838362000309565b620002d757508154600181810184556000848152602080822090930184905584548482528286019093526040902091909155620001e4565b506000620001e4565b6000918252602082815260408084206001600160a01b0393909316845291905290205460ff1690565b60009081526001919091016020526040902054151590565b8280546200032f90620004fb565b90600052602060002090601f0160209004810192826200035357600085556200039e565b82601f106200036e57805160ff19168380011785556200039e565b828001600101855582156200039e579182015b828111156200039e57825182559160200191906001019062000381565b50620003ac929150620003b0565b5090565b5b80821115620003ac5760008155600101620003b1565b600082601f830112620003d8578081fd5b81516001600160401b0380821115620003f557620003f562000538565b6040516020601f8401601f19168201810183811183821017156200041d576200041d62000538565b604052838252858401810187101562000434578485fd5b8492505b8383101562000457578583018101518284018201529182019162000438565b838311156200046857848185840101525b5095945050505050565b60008060006060848603121562000487578283fd5b83516001600160401b03808211156200049e578485fd5b620004ac87838801620003c7565b94506020860151915080821115620004c2578384fd5b50620004d186828701620003c7565b604086015190935090506001600160a01b0381168114620004f0578182fd5b809150509250925092565b6002810460018216806200051057607f821691505b602082108114156200053257634e487b7160e01b600052602260045260246000fd5b50919050565b634e487b7160e01b600052604160045260246000fd5b611cc3806200055e6000396000f3fe608060405234801561001057600080fd5b50600436106101cf5760003560e01c80635c975abb11610104578063a217fddf116100a2578063d539139311610071578063d5391393146103a3578063d547741f146103ab578063dd62ed3e146103be578063e63ab1e9146103d1576101cf565b8063a217fddf14610362578063a457c2d71461036a578063a9059cbb1461037d578063ca15c87314610390576101cf565b80638456cb59116100de5780638456cb591461031f5780639010d07c1461032757806391d148541461034757806395d89b411461035a576101cf565b80635c975abb146102f157806370a08231146102f957806379cc67901461030c576101cf565b8063313ce567116101715780633f4ba83a1161014b5780633f4ba83a146102b057806340c10f19146102b857806342966c68146102cb578063572b6c05146102de576101cf565b8063313ce5671461027557806336568abe1461028a578063395093511461029d576101cf565b806318160ddd116101ad57806318160ddd1461022557806323b872dd1461023a578063248a9ca31461024d5780632f2ff15d14610260576101cf565b806301ffc9a7146101d457806306fdde03146101fd578063095ea7b314610212575b600080fd5b6101e76101e2366004611513565b6103d9565b6040516101f491906115d0565b60405180910390f35b610205610406565b6040516101f491906115e4565b6101e761022036600461148f565b610499565b61022d6104b7565b6040516101f491906115db565b6101e7610248366004611454565b6104bd565b61022d61025b3660046114b8565b610556565b61027361026e3660046114d0565b61056b565b005b61027d610592565b6040516101f49190611bc6565b6102736102983660046114d0565b610597565b6101e76102ab36600461148f565b6105b9565b61027361060d565b6102736102c636600461148f565b61065f565b6102736102d93660046114b8565b6106b5565b6101e76102ec366004611408565b6106c9565b6101e76106e2565b61022d610307366004611408565b6106eb565b61027361031a36600461148f565b610706565b610273610754565b61033a6103353660046114f2565b6107a4565b6040516101f491906115bc565b6101e76103553660046114d0565b6107c3565b6102056107ec565b61022d6107fb565b6101e761037836600461148f565b610800565b6101e761038b36600461148f565b610879565b61022d61039e3660046114b8565b61088d565b61022d6108a4565b6102736103b93660046114d0565b6108c8565b61022d6103cc366004611422565b6108d2565b61022d6108fd565b60006001600160e01b03198216635a05180f60e01b14806103fe57506103fe82610972565b90505b919050565b60606005805461041590611c65565b80601f016020809104026020016040519081016040528092919081815260200182805461044190611c65565b801561048e5780601f106104635761010080835404028352916020019161048e565b820191906000526020600020905b81548152906001019060200180831161047157829003601f168201915b505050505090505b90565b60006104ad6104a6610997565b84846109a6565b5060015b92915050565b60045490565b60006104ca848484610a5a565b6001600160a01b0384166000908152600360205260408120816104eb610997565b6001600160a01b03166001600160a01b03168152602001908152602001600020549050828110156105375760405162461bcd60e51b815260040161052e9061183b565b60405180910390fd5b61054b85610543610997565b8584036109a6565b506001949350505050565b60009081526020819052604090206001015490565b6105758282610b84565b600082815260016020526040902061058d9082610959565b505050565b601290565b6105a18282610ba8565b600082815260016020526040902061058d9082610bea565b60006104ad6105c6610997565b8484600360006105d4610997565b6001600160a01b03908116825260208083019390935260409182016000908120918b16815292529020546106089190611bd4565b6109a6565b6106397f65d7a28e3265b37a6474929f336521b332c1681b933f6cb9f3376673440d862a610355610997565b6106555760405162461bcd60e51b815260040161052e90611708565b61065d610bff565b565b61068b7f9f2df0fed2c77648de5860a4cc508cd0818c85b8b8a1ab4ceeef8d981c8956a6610355610997565b6106a75760405162461bcd60e51b815260040161052e90611898565b6106b18282610c6d565b5050565b6106c66106c0610997565b82610d35565b50565b60075461010090046001600160a01b0390811691161490565b60075460ff1690565b6001600160a01b031660009081526002602052604090205490565b6000610714836103cc610997565b9050818110156107365760405162461bcd60e51b815260040161052e906118f5565b61074a83610742610997565b8484036109a6565b61058d8383610d35565b6107807f65d7a28e3265b37a6474929f336521b332c1681b933f6cb9f3376673440d862a610355610997565b61079c5760405162461bcd60e51b815260040161052e90611a1b565b61065d610e26565b60008281526001602052604081206107bc9083610e81565b9392505050565b6000918252602082815260408084206001600160a01b0393909316845291905290205460ff1690565b60606006805461041590611c65565b600081565b6000806003600061080f610997565b6001600160a01b039081168252602080830193909352604091820160009081209188168152925290205490508281101561085b5760405162461bcd60e51b815260040161052e90611a78565b61086f610866610997565b858584036109a6565b5060019392505050565b60006104ad610886610997565b8484610a5a565b60008181526001602052604081206103fe90610e8d565b7f9f2df0fed2c77648de5860a4cc508cd0818c85b8b8a1ab4ceeef8d981c8956a681565b6105a18282610e98565b6001600160a01b03918216600090815260036020908152604080832093909416825291909152205490565b7f65d7a28e3265b37a6474929f336521b332c1681b933f6cb9f3376673440d862a81565b600061092c336106c9565b15610940575060131936013560601c610496565b61094861096e565b9050610496565b6106b18282610eb7565b60006107bc836001600160a01b038416610f3c565b3390565b60006001600160e01b03198216637965db0b60e01b14806103fe57506103fe82610f86565b60006109a1610921565b905090565b6001600160a01b0383166109cc5760405162461bcd60e51b815260040161052e906119d7565b6001600160a01b0382166109f25760405162461bcd60e51b815260040161052e90611765565b6001600160a01b0380841660008181526003602090815260408083209487168084529490915290819020849055517f8c5be1e5ebec7d5bd14f71427d1e84f3dd0314c0f7b2291e5b200ac8c7c3b92590610a4d9085906115db565b60405180910390a3505050565b6001600160a01b038316610a805760405162461bcd60e51b815260040161052e9061197a565b6001600160a01b038216610aa65760405162461bcd60e51b815260040161052e9061164c565b610ab1838383610f9f565b6001600160a01b03831660009081526002602052604090205481811015610aea5760405162461bcd60e51b815260040161052e906117a7565b6001600160a01b03808516600090815260026020526040808220858503905591851681529081208054849290610b21908490611bd4565b92505081905550826001600160a01b0316846001600160a01b03167fddf252ad1be2c89b69c2b068fc378daa952ba7f163c4a11628f55a4df523b3ef84604051610b6b91906115db565b60405180910390a3610b7e84848461058d565b50505050565b610b8d82610556565b610b9e81610b99610997565b610faa565b61058d8383610eb7565b610bb0610997565b6001600160a01b0316816001600160a01b031614610be05760405162461bcd60e51b815260040161052e90611ad5565b6106b1828261100e565b60006107bc836001600160a01b038416611091565b610c076106e2565b610c235760405162461bcd60e51b815260040161052e9061168f565b6007805460ff191690557f5db9ee0a495bf2e6ff9c91a7834c1ba4fdd244a5e8aa4e537bd38aeae4b073aa610c56610997565b604051610c6391906115bc565b60405180910390a1565b6001600160a01b038216610c935760405162461bcd60e51b815260040161052e90611b32565b610c9f60008383610f9f565b8060046000828254610cb19190611bd4565b90915550506001600160a01b03821660009081526002602052604081208054839290610cde908490611bd4565b90915550506040516001600160a01b038316906000907fddf252ad1be2c89b69c2b068fc378daa952ba7f163c4a11628f55a4df523b3ef90610d219085906115db565b60405180910390a36106b16000838361058d565b6001600160a01b038216610d5b5760405162461bcd60e51b815260040161052e90611939565b610d6782600083610f9f565b6001600160a01b03821660009081526002602052604090205481811015610da05760405162461bcd60e51b815260040161052e906116c6565b6001600160a01b0383166000908152600260205260408120838303905560048054849290610dcf908490611c0b565b90915550506040516000906001600160a01b038516907fddf252ad1be2c89b69c2b068fc378daa952ba7f163c4a11628f55a4df523b3ef90610e129086906115db565b60405180910390a361058d8360008461058d565b610e2e6106e2565b15610e4b5760405162461bcd60e51b815260040161052e90611804565b6007805460ff191660011790557f62e78cea01bee320cd4e420270b5ea74000d11b0c9f74754ebdbfc544b05a258610c56610997565b60006107bc83836111ae565b60006103fe826111e6565b610ea182610556565b610ead81610b99610997565b61058d838361100e565b610ec182826107c3565b6106b1576000828152602081815260408083206001600160a01b03851684529091529020805460ff19166001179055610ef8610997565b6001600160a01b0316816001600160a01b0316837f2f8788117e7eff1d82e926ec794901d17c78024a50270940304540a733656f0d60405160405180910390a45050565b6000610f4883836111ea565b610f7e575081546001818101845560008481526020808220909301849055845484825282860190935260409020919091556104b1565b5060006104b1565b6001600160e01b031981166301ffc9a760e01b14919050565b61058d838383611202565b610fb482826107c3565b6106b157610fcc816001600160a01b03166014611232565b610fd7836020611232565b604051602001610fe892919061153b565b60408051601f198184030181529082905262461bcd60e51b825261052e916004016115e4565b61101882826107c3565b156106b1576000828152602081815260408083206001600160a01b03851684529091529020805460ff1916905561104d610997565b6001600160a01b0316816001600160a01b0316837ff6391f5c32d9c69d2a47ea670b442974b53935d1edc7fd64eb21e047a839171b60405160405180910390a45050565b600081815260018301602052604081205480156111a45760006110b5600183611c0b565b85549091506000906110c990600190611c0b565b905081811461114a5760008660000182815481106110f757634e487b7160e01b600052603260045260246000fd5b906000526020600020015490508087600001848154811061112857634e487b7160e01b600052603260045260246000fd5b6000918252602080832090910192909255918252600188019052604090208390555b855486908061116957634e487b7160e01b600052603160045260246000fd5b6001900381819060005260206000200160009055905585600101600086815260200190815260200160002060009055600193505050506104b1565b60009150506104b1565b60008260000182815481106111d357634e487b7160e01b600052603260045260246000fd5b9060005260206000200154905092915050565b5490565b60009081526001919091016020526040902054151590565b61120d83838361058d565b6112156106e2565b1561058d5760405162461bcd60e51b815260040161052e90611b69565b60606000611241836002611bec565b61124c906002611bd4565b67ffffffffffffffff81111561127257634e487b7160e01b600052604160045260246000fd5b6040519080825280601f01601f19166020018201604052801561129c576020820181803683370190505b509050600360fc1b816000815181106112c557634e487b7160e01b600052603260045260246000fd5b60200101906001600160f81b031916908160001a905350600f60fb1b8160018151811061130257634e487b7160e01b600052603260045260246000fd5b60200101906001600160f81b031916908160001a9053506000611326846002611bec565b611331906001611bd4565b90505b60018111156113d2577f303132333435363738396162636465660000000000000000000000000000000085600f166010811061138057634e487b7160e01b600052603260045260246000fd5b1a60f81b8282815181106113a457634e487b7160e01b600052603260045260246000fd5b60200101906001600160f81b031916908160001a90535060049490941c936113cb81611c4e565b9050611334565b5083156107bc5760405162461bcd60e51b815260040161052e90611617565b80356001600160a01b038116811461040157600080fd5b600060208284031215611419578081fd5b6107bc826113f1565b60008060408385031215611434578081fd5b61143d836113f1565b915061144b602084016113f1565b90509250929050565b600080600060608486031215611468578081fd5b611471846113f1565b925061147f602085016113f1565b9150604084013590509250925092565b600080604083850312156114a1578182fd5b6114aa836113f1565b946020939093013593505050565b6000602082840312156114c9578081fd5b5035919050565b600080604083850312156114e2578182fd5b8235915061144b602084016113f1565b60008060408385031215611504578182fd5b50508035926020909101359150565b600060208284031215611524578081fd5b81356001600160e01b0319811681146107bc578182fd5b60007f416363657373436f6e74726f6c3a206163636f756e742000000000000000000082528351611573816017850160208801611c22565b7f206973206d697373696e6720726f6c652000000000000000000000000000000060179184019182015283516115b0816028840160208801611c22565b01602801949350505050565b6001600160a01b0391909116815260200190565b901515815260200190565b90815260200190565b6000602082528251806020840152611603816040850160208701611c22565b601f01601f19169190910160400192915050565b6020808252818101527f537472696e67733a20686578206c656e67746820696e73756666696369656e74604082015260600190565b60208082526023908201527f45524332303a207472616e7366657220746f20746865207a65726f206164647260408201526265737360e81b606082015260800190565b60208082526014908201527f5061757361626c653a206e6f7420706175736564000000000000000000000000604082015260600190565b60208082526022908201527f45524332303a206275726e20616d6f756e7420657863656564732062616c616e604082015261636560f01b606082015260800190565b60208082526039908201527f45524332305072657365744d696e7465725061757365723a206d75737420686160408201527f76652070617573657220726f6c6520746f20756e706175736500000000000000606082015260800190565b60208082526022908201527f45524332303a20617070726f766520746f20746865207a65726f206164647265604082015261737360f01b606082015260800190565b60208082526026908201527f45524332303a207472616e7366657220616d6f756e742065786365656473206260408201527f616c616e63650000000000000000000000000000000000000000000000000000606082015260800190565b60208082526010908201527f5061757361626c653a2070617573656400000000000000000000000000000000604082015260600190565b60208082526028908201527f45524332303a207472616e7366657220616d6f756e742065786365656473206160408201527f6c6c6f77616e6365000000000000000000000000000000000000000000000000606082015260800190565b60208082526036908201527f45524332305072657365744d696e7465725061757365723a206d75737420686160408201527f7665206d696e74657220726f6c6520746f206d696e7400000000000000000000606082015260800190565b60208082526024908201527f45524332303a206275726e20616d6f756e74206578636565647320616c6c6f77604082015263616e636560e01b606082015260800190565b60208082526021908201527f45524332303a206275726e2066726f6d20746865207a65726f206164647265736040820152607360f81b606082015260800190565b60208082526025908201527f45524332303a207472616e736665722066726f6d20746865207a65726f20616460408201527f6472657373000000000000000000000000000000000000000000000000000000606082015260800190565b60208082526024908201527f45524332303a20617070726f76652066726f6d20746865207a65726f206164646040820152637265737360e01b606082015260800190565b60208082526037908201527f45524332305072657365744d696e7465725061757365723a206d75737420686160408201527f76652070617573657220726f6c6520746f207061757365000000000000000000606082015260800190565b60208082526025908201527f45524332303a2064656372656173656420616c6c6f77616e63652062656c6f7760408201527f207a65726f000000000000000000000000000000000000000000000000000000606082015260800190565b6020808252602f908201527f416363657373436f6e74726f6c3a2063616e206f6e6c792072656e6f756e636560408201527f20726f6c657320666f722073656c660000000000000000000000000000000000606082015260800190565b6020808252601f908201527f45524332303a206d696e7420746f20746865207a65726f206164647265737300604082015260600190565b6020808252602a908201527f45524332305061757361626c653a20746f6b656e207472616e7366657220776860408201527f696c652070617573656400000000000000000000000000000000000000000000606082015260800190565b60ff91909116815260200190565b60008219821115611be757611be7611ca0565b500190565b6000816000190483118215151615611c0657611c06611ca0565b500290565b600082821015611c1d57611c1d611ca0565b500390565b60005b83811015611c3d578181015183820152602001611c25565b83811115610b7e5750506000910152565b600081611c5d57611c5d611ca0565b506000190190565b600281046001821680611c7957607f821691505b60208210811415611c9a57634e487b7160e01b600052602260045260246000fd5b50919050565b634e487b7160e01b600052601160045260246000fdfea164736f6c6343000800000a",
  "linkReferences": {},
  "deployedLinkReferences": {}
}