{
  "_format": "hh-sol-artifact-1",
  "contractName": "Coin",
  "sourceName": "contracts/Coin.sol",
  "abi": [
    {
      "inputs": [
        {
          "internalType": "address payable",
          "name": "_controlCenter",
          "type": "address"
        },
        {
          "internalType": "string",
          "name": "_name",
          "type": "string"
        },
        {
          "internalType": "string",
          "name": "_symbol",
          "type": "string"
        },
        {
          "internalType": "address",
          "name": "_trustedForwarder",
          "type": "address"
        },
        {
          "internalType": "string",
          "name": "_uri",
          "type": "string"
        }
      ],
      "stateMutability": "nonpayable",
      "type": "constructor"
    },
    {
      "anonymous": false,
      "inputs": [
        {
          "indexed": true,
          "internalType": "address",
          "name": "owner",
          "type": "address"
        },
        {
          "indexed": true,
          "internalType": "address",
          "name": "spender",
          "type": "address"
        },
        {
          "indexed": false,
          "internalType": "uint256",
          "name": "value",
          "type": "uint256"
        }
      ],
      "name": "Approval",
      "type": "event"
    },
    {
      "anonymous": false,
      "inputs": [
        {
          "indexed": false,
          "internalType": "address",
          "name": "account",
          "type": "address"
        }
      ],
      "name": "Paused",
      "type": "event"
    },
    {
      "anonymous": false,
      "inputs": [
        {
          "indexed": true,
          "internalType": "bytes32",
          "name": "role",
          "type": "bytes32"
        },
        {
          "indexed": true,
          "internalType": "bytes32",
          "name": "previousAdminRole",
          "type": "bytes32"
        },
        {
          "indexed": true,
          "internalType": "bytes32",
          "name": "newAdminRole",
          "type": "bytes32"
        }
      ],
      "name": "RoleAdminChanged",
      "type": "event"
    },
    {
      "anonymous": false,
      "inputs": [
        {
          "indexed": true,
          "internalType": "bytes32",
          "name": "role",
          "type": "bytes32"
        },
        {
          "indexed": true,
          "internalType": "address",
          "name": "account",
          "type": "address"
        },
        {
          "indexed": true,
          "internalType": "address",
          "name": "sender",
          "type": "address"
        }
      ],
      "name": "RoleGranted",
      "type": "event"
    },
    {
      "anonymous": false,
      "inputs": [
        {
          "indexed": true,
          "internalType": "bytes32",
          "name": "role",
          "type": "bytes32"
        },
        {
          "indexed": true,
          "internalType": "address",
          "name": "account",
          "type": "address"
        },
        {
          "indexed": true,
          "internalType": "address",
          "name": "sender",
          "type": "address"
        }
      ],
      "name": "RoleRevoked",
      "type": "event"
    },
    {
      "anonymous": false,
      "inputs": [
        {
          "indexed": true,
          "internalType": "address",
          "name": "from",
          "type": "address"
        },
        {
          "indexed": true,
          "internalType": "address",
          "name": "to",
          "type": "address"
        },
        {
          "indexed": false,
          "internalType": "uint256",
          "name": "value",
          "type": "uint256"
        }
      ],
      "name": "Transfer",
      "type": "event"
    },
    {
      "anonymous": false,
      "inputs": [
        {
          "indexed": false,
          "internalType": "address",
          "name": "account",
          "type": "address"
        }
      ],
      "name": "Unpaused",
      "type": "event"
    },
    {
      "inputs": [],
      "name": "DEFAULT_ADMIN_ROLE",
      "outputs": [
        {
          "internalType": "bytes32",
          "name": "",
          "type": "bytes32"
        }
      ],
      "stateMutability": "view",
      "type": "function"
    },
    {
      "inputs": [],
      "name": "DOMAIN_SEPARATOR",
      "outputs": [
        {
          "internalType": "bytes32",
          "name": "",
          "type": "bytes32"
        }
      ],
      "stateMutability": "view",
      "type": "function"
    },
    {
      "inputs": [],
      "name": "MINTER_ROLE",
      "outputs": [
        {
          "internalType": "bytes32",
          "name": "",
          "type": "bytes32"
        }
      ],
      "stateMutability": "view",
      "type": "function"
    },
    {
      "inputs": [],
      "name": "PAUSER_ROLE",
      "outputs": [
        {
          "internalType": "bytes32",
          "name": "",
          "type": "bytes32"
        }
      ],
      "stateMutability": "view",
      "type": "function"
    },
    {
      "inputs": [],
      "name": "TRANSFER_ROLE",
      "outputs": [
        {
          "internalType": "bytes32",
          "name": "",
          "type": "bytes32"
        }
      ],
      "stateMutability": "view",
      "type": "function"
    },
    {
      "inputs": [],
      "name": "_contractURI",
      "outputs": [
        {
          "internalType": "string",
          "name": "",
          "type": "string"
        }
      ],
      "stateMutability": "view",
      "type": "function"
    },
    {
      "inputs": [
        {
          "internalType": "address",
          "name": "owner",
          "type": "address"
        },
        {
          "internalType": "address",
          "name": "spender",
          "type": "address"
        }
      ],
      "name": "allowance",
      "outputs": [
        {
          "internalType": "uint256",
          "name": "",
          "type": "uint256"
        }
      ],
      "stateMutability": "view",
      "type": "function"
    },
    {
      "inputs": [
        {
          "internalType": "address",
          "name": "spender",
          "type": "address"
        },
        {
          "internalType": "uint256",
          "name": "amount",
          "type": "uint256"
        }
      ],
      "name": "approve",
      "outputs": [
        {
          "internalType": "bool",
          "name": "",
          "type": "bool"
        }
      ],
      "stateMutability": "nonpayable",
      "type": "function"
    },
    {
      "inputs": [
        {
          "internalType": "address",
          "name": "account",
          "type": "address"
        }
      ],
      "name": "balanceOf",
      "outputs": [
        {
          "internalType": "uint256",
          "name": "",
          "type": "uint256"
        }
      ],
      "stateMutability": "view",
      "type": "function"
    },
    {
      "inputs": [
        {
          "internalType": "uint256",
          "name": "amount",
          "type": "uint256"
        }
      ],
      "name": "burn",
      "outputs": [],
      "stateMutability": "nonpayable",
      "type": "function"
    },
    {
      "inputs": [
        {
          "internalType": "address",
          "name": "account",
          "type": "address"
        },
        {
          "internalType": "uint256",
          "name": "amount",
          "type": "uint256"
        }
      ],
      "name": "burnFrom",
      "outputs": [],
      "stateMutability": "nonpayable",
      "type": "function"
    },
    {
      "inputs": [],
      "name": "contractURI",
      "outputs": [
        {
          "internalType": "string",
          "name": "",
          "type": "string"
        }
      ],
      "stateMutability": "view",
      "type": "function"
    },
    {
      "inputs": [],
      "name": "decimals",
      "outputs": [
        {
          "internalType": "uint8",
          "name": "",
          "type": "uint8"
        }
      ],
      "stateMutability": "view",
      "type": "function"
    },
    {
      "inputs": [
        {
          "internalType": "address",
          "name": "spender",
          "type": "address"
        },
        {
          "internalType": "uint256",
          "name": "subtractedValue",
          "type": "uint256"
        }
      ],
      "name": "decreaseAllowance",
      "outputs": [
        {
          "internalType": "bool",
          "name": "",
          "type": "bool"
        }
      ],
      "stateMutability": "nonpayable",
      "type": "function"
    },
    {
      "inputs": [
        {
          "internalType": "bytes32",
          "name": "role",
          "type": "bytes32"
        }
      ],
      "name": "getRoleAdmin",
      "outputs": [
        {
          "internalType": "bytes32",
          "name": "",
          "type": "bytes32"
        }
      ],
      "stateMutability": "view",
      "type": "function"
    },
    {
      "inputs": [
        {
          "internalType": "bytes32",
          "name": "role",
          "type": "bytes32"
        },
        {
          "internalType": "uint256",
          "name": "index",
          "type": "uint256"
        }
      ],
      "name": "getRoleMember",
      "outputs": [
        {
          "internalType": "address",
          "name": "",
          "type": "address"
        }
      ],
      "stateMutability": "view",
      "type": "function"
    },
    {
      "inputs": [
        {
          "internalType": "bytes32",
          "name": "role",
          "type": "bytes32"
        }
      ],
      "name": "getRoleMemberCount",
      "outputs": [
        {
          "internalType": "uint256",
          "name": "",
          "type": "uint256"
        }
      ],
      "stateMutability": "view",
      "type": "function"
    },
    {
      "inputs": [
        {
          "internalType": "bytes32",
          "name": "role",
          "type": "bytes32"
        },
        {
          "internalType": "address",
          "name": "account",
          "type": "address"
        }
      ],
      "name": "grantRole",
      "outputs": [],
      "stateMutability": "nonpayable",
      "type": "function"
    },
    {
      "inputs": [
        {
          "internalType": "bytes32",
          "name": "role",
          "type": "bytes32"
        },
        {
          "internalType": "address",
          "name": "account",
          "type": "address"
        }
      ],
      "name": "hasRole",
      "outputs": [
        {
          "internalType": "bool",
          "name": "",
          "type": "bool"
        }
      ],
      "stateMutability": "view",
      "type": "function"
    },
    {
      "inputs": [
        {
          "internalType": "address",
          "name": "spender",
          "type": "address"
        },
        {
          "internalType": "uint256",
          "name": "addedValue",
          "type": "uint256"
        }
      ],
      "name": "increaseAllowance",
      "outputs": [
        {
          "internalType": "bool",
          "name": "",
          "type": "bool"
        }
      ],
      "stateMutability": "nonpayable",
      "type": "function"
    },
    {
      "inputs": [],
      "name": "isRestrictedTransfer",
      "outputs": [
        {
          "internalType": "bool",
          "name": "",
          "type": "bool"
        }
      ],
      "stateMutability": "view",
      "type": "function"
    },
    {
      "inputs": [
        {
          "internalType": "address",
          "name": "forwarder",
          "type": "address"
        }
      ],
      "name": "isTrustedForwarder",
      "outputs": [
        {
          "internalType": "bool",
          "name": "",
          "type": "bool"
        }
      ],
      "stateMutability": "view",
      "type": "function"
    },
    {
      "inputs": [
        {
          "internalType": "address",
          "name": "to",
          "type": "address"
        },
        {
          "internalType": "uint256",
          "name": "amount",
          "type": "uint256"
        }
      ],
      "name": "mint",
      "outputs": [],
      "stateMutability": "nonpayable",
      "type": "function"
    },
    {
      "inputs": [],
      "name": "name",
      "outputs": [
        {
          "internalType": "string",
          "name": "",
          "type": "string"
        }
      ],
      "stateMutability": "view",
      "type": "function"
    },
    {
      "inputs": [
        {
          "internalType": "address",
          "name": "owner",
          "type": "address"
        }
      ],
      "name": "nonces",
      "outputs": [
        {
          "internalType": "uint256",
          "name": "",
          "type": "uint256"
        }
      ],
      "stateMutability": "view",
      "type": "function"
    },
    {
      "inputs": [],
      "name": "pause",
      "outputs": [],
      "stateMutability": "nonpayable",
      "type": "function"
    },
    {
      "inputs": [],
      "name": "paused",
      "outputs": [
        {
          "internalType": "bool",
          "name": "",
          "type": "bool"
        }
      ],
      "stateMutability": "view",
      "type": "function"
    },
    {
      "inputs": [
        {
          "internalType": "address",
          "name": "owner",
          "type": "address"
        },
        {
          "internalType": "address",
          "name": "spender",
          "type": "address"
        },
        {
          "internalType": "uint256",
          "name": "value",
          "type": "uint256"
        },
        {
          "internalType": "uint256",
          "name": "deadline",
          "type": "uint256"
        },
        {
          "internalType": "uint8",
          "name": "v",
          "type": "uint8"
        },
        {
          "internalType": "bytes32",
          "name": "r",
          "type": "bytes32"
        },
        {
          "internalType": "bytes32",
          "name": "s",
          "type": "bytes32"
        }
      ],
      "name": "permit",
      "outputs": [],
      "stateMutability": "nonpayable",
      "type": "function"
    },
    {
      "inputs": [
        {
          "internalType": "bytes32",
          "name": "role",
          "type": "bytes32"
        },
        {
          "internalType": "address",
          "name": "account",
          "type": "address"
        }
      ],
      "name": "renounceRole",
      "outputs": [],
      "stateMutability": "nonpayable",
      "type": "function"
    },
    {
      "inputs": [
        {
          "internalType": "bytes32",
          "name": "role",
          "type": "bytes32"
        },
        {
          "internalType": "address",
          "name": "account",
          "type": "address"
        }
      ],
      "name": "revokeRole",
      "outputs": [],
      "stateMutability": "nonpayable",
      "type": "function"
    },
    {
      "inputs": [
        {
          "internalType": "string",
          "name": "_URI",
          "type": "string"
        }
      ],
      "name": "setContractURI",
      "outputs": [],
      "stateMutability": "nonpayable",
      "type": "function"
    },
    {
      "inputs": [
        {
          "internalType": "bool",
          "name": "_restrictedTransfer",
          "type": "bool"
        }
      ],
      "name": "setRestrictedTransfer",
      "outputs": [],
      "stateMutability": "nonpayable",
      "type": "function"
    },
    {
      "inputs": [
        {
          "internalType": "bytes4",
          "name": "interfaceId",
          "type": "bytes4"
        }
      ],
      "name": "supportsInterface",
      "outputs": [
        {
          "internalType": "bool",
          "name": "",
          "type": "bool"
        }
      ],
      "stateMutability": "view",
      "type": "function"
    },
    {
      "inputs": [],
      "name": "symbol",
      "outputs": [
        {
          "internalType": "string",
          "name": "",
          "type": "string"
        }
      ],
      "stateMutability": "view",
      "type": "function"
    },
    {
      "inputs": [],
      "name": "totalSupply",
      "outputs": [
        {
          "internalType": "uint256",
          "name": "",
          "type": "uint256"
        }
      ],
      "stateMutability": "view",
      "type": "function"
    },
    {
      "inputs": [
        {
          "internalType": "address",
          "name": "recipient",
          "type": "address"
        },
        {
          "internalType": "uint256",
          "name": "amount",
          "type": "uint256"
        }
      ],
      "name": "transfer",
      "outputs": [
        {
          "internalType": "bool",
          "name": "",
          "type": "bool"
        }
      ],
      "stateMutability": "nonpayable",
      "type": "function"
    },
    {
      "inputs": [
        {
          "internalType": "address",
          "name": "sender",
          "type": "address"
        },
        {
          "internalType": "address",
          "name": "recipient",
          "type": "address"
        },
        {
          "internalType": "uint256",
          "name": "amount",
          "type": "uint256"
        }
      ],
      "name": "transferFrom",
      "outputs": [
        {
          "internalType": "bool",
          "name": "",
          "type": "bool"
        }
      ],
      "stateMutability": "nonpayable",
      "type": "function"
    },
    {
      "inputs": [],
      "name": "unpause",
      "outputs": [],
      "stateMutability": "nonpayable",
      "type": "function"
    }
  ],
  "bytecode": "0x6101406040527f6e71edae12b1b97f4d1f60370fef10105fa2faae0126114a169c64845d6126c9610120523480156200003757600080fd5b50604051620032c1380380620032c18339810160408190526200005a9162000599565b8184848180604051806040016040528060018152602001603160f81b815250848481600590805190602001906200009392919062000448565b508051620000a990600690602084019062000448565b50506007805460ff1916905550815160208084019190912082519183019190912060c082905260e08190524660a0527f8b73c3c69bb8fe3d512ecc4cf759cc79239f7b179b0ffacaa9a75d522b39400f620001068184846200020a565b60805261010052506200012b9350600092506200012591505062000246565b62000263565b6200015a7f9f2df0fed2c77648de5860a4cc508cd0818c85b8b8a1ab4ceeef8d981c8956a66200012562000246565b620001897f65d7a28e3265b37a6474929f336521b332c1681b933f6cb9f3376673440d862a6200012562000246565b5050600980546001600160a01b03199081166001600160a01b0393841617909155600a80549091169187169190911790558051620001cf90600b90602084019062000448565b50620001ff7f8502233096d909befbda0999bb8ea2f3a6be3c138b9fbf003752a4c8bce86f6c6200012562000246565b5050505050620006ea565b600083838346306040516020016200022795949392919062000652565b6040516020818303038152906040528051906020012090509392505050565b60006200025d620002a660201b62000ef81760201c565b90505b90565b6200027a8282620002e660201b62000f261760201c565b6000828152600160209081526040909120620002a191839062000f30620002f6821b17901c565b505050565b6000620002b33362000316565b15620002c9575060131936013560601c62000260565b620002de6200032a60201b62000f451760201c565b905062000260565b620002f282826200032e565b5050565b60006200030d836001600160a01b038416620003b8565b90505b92915050565b6009546001600160a01b0390811691161490565b3390565b6200033a828262000407565b620002f2576000828152602081815260408083206001600160a01b03851684529091529020805460ff191660011790556200037462000246565b6001600160a01b0316816001600160a01b0316837f2f8788117e7eff1d82e926ec794901d17c78024a50270940304540a733656f0d60405160405180910390a45050565b6000620003c6838362000430565b620003fe5750815460018181018455600084815260208082209093018490558454848252828601909352604090209190915562000310565b50600062000310565b6000918252602082815260408084206001600160a01b0393909316845291905290205460ff1690565b60009081526001919091016020526040902054151590565b82805462000456906200067e565b90600052602060002090601f0160209004810192826200047a5760008555620004c5565b82601f106200049557805160ff1916838001178555620004c5565b82800160010185558215620004c5579182015b82811115620004c5578251825591602001919060010190620004a8565b50620004d3929150620004d7565b5090565b5b80821115620004d35760008155600101620004d8565b600082601f830112620004ff578081fd5b81516001600160401b03808211156200051c576200051c620006bb565b6040516020601f8401601f1916820181018381118382101715620005445762000544620006bb565b60405283825285840181018710156200055b578485fd5b8492505b838310156200057e57858301810151828401820152918201916200055f565b838311156200058f57848185840101525b5095945050505050565b600080600080600060a08688031215620005b1578081fd5b8551620005be81620006d1565b60208701519095506001600160401b0380821115620005db578283fd5b620005e989838a01620004ee565b95506040880151915080821115620005ff578283fd5b6200060d89838a01620004ee565b9450606088015191506200062182620006d1565b60808801519193508082111562000636578283fd5b506200064588828901620004ee565b9150509295509295909350565b9485526020850193909352604084019190915260608301526001600160a01b0316608082015260a00190565b6002810460018216806200069357607f821691505b60208210811415620006b557634e487b7160e01b600052602260045260246000fd5b50919050565b634e487b7160e01b600052604160045260246000fd5b6001600160a01b0381168114620006e757600080fd5b50565b60805160a05160c05160e0516101005161012051612b876200073a6000396000610dae015260006111d001526000611212015260006111f10152600061117e015260006111a70152612b876000f3fe608060405234801561001057600080fd5b50600436106102925760003560e01c80637ecebe0011610160578063a457c2d7116100d8578063d53913931161008c578063dd62ed3e11610071578063dd62ed3e146104ed578063e63ab1e914610500578063e8a3d4851461050857610292565b8063d5391393146104d2578063d547741f146104da57610292565b8063c0e72740116100bd578063c0e72740146104a4578063ca15c873146104ac578063d505accf146104bf57610292565b8063a457c2d71461047e578063a9059cbb1461049157610292565b80639010d07c1161012f578063938e3d7b11610114578063938e3d7b1461045b57806395d89b411461046e578063a217fddf1461047657610292565b80639010d07c1461042857806391d148541461044857610292565b80637ecebe00146103f257806383661b29146104055780638456cb591461040d5780638ba448c21461041557610292565b80633644e5151161020e57806342966c68116101c25780635c975abb116101a75780635c975abb146103c457806370a08231146103cc57806379cc6790146103df57610292565b806342966c681461039e578063572b6c05146103b157610292565b806339509351116101f357806339509351146103705780633f4ba83a1461038357806340c10f191461038b57610292565b80633644e5151461035557806336568abe1461035d57610292565b8063206b60f911610265578063248a9ca31161024a578063248a9ca3146103185780632f2ff15d1461032b578063313ce5671461034057610292565b8063206b60f9146102fd57806323b872dd1461030557610292565b806301ffc9a71461029757806306fdde03146102c0578063095ea7b3146102d557806318160ddd146102e8575b600080fd5b6102aa6102a53660046120d0565b610510565b6040516102b79190612215565b60405180910390f35b6102c861053d565b6040516102b791906122be565b6102aa6102e3366004611ffc565b6105d0565b6102f06105ee565b6040516102b79190612220565b6102f06105f4565b6102aa610313366004611f50565b610618565b6102f061032636600461205d565b6106b1565b61033e61033936600461208d565b6106c6565b005b6103486106ed565b6040516102b79190612a82565b6102f06106f2565b61033e61036b36600461208d565b610701565b6102aa61037e366004611ffc565b610723565b61033e610777565b61033e610399366004611ffc565b6107c9565b61033e6103ac36600461205d565b61087a565b6102aa6103bf366004611f04565b61088e565b6102aa6108a2565b6102f06103da366004611f04565b6108ab565b61033e6103ed366004611ffc565b6108c6565b6102f0610400366004611f04565b610914565b6102aa610935565b61033e610945565b61033e610423366004612025565b610995565b61043b6104363660046120af565b610ada565b6040516102b79190612201565b6102aa61045636600461208d565b610af9565b61033e6104693660046120f8565b610b22565b6102c8610c44565b6102f0610c53565b6102aa61048c366004611ffc565b610c58565b6102aa61049f366004611ffc565b610cd1565b6102c8610ce5565b6102f06104ba36600461205d565b610d73565b61033e6104cd366004611f8b565b610d8a565b6102f0610e6c565b61033e6104e836600461208d565b610e90565b6102f06104fb366004611f1e565b610e9a565b6102f0610ec5565b6102c8610ee9565b60006001600160e01b03198216635a05180f60e01b1480610535575061053582610f49565b90505b919050565b60606005805461054c90612b21565b80601f016020809104026020016040519081016040528092919081815260200182805461057890612b21565b80156105c55780601f1061059a576101008083540402835291602001916105c5565b820191906000526020600020905b8154815290600101906020018083116105a857829003601f168201915b505050505090505b90565b60006105e46105dd610f6e565b8484610f78565b5060015b92915050565b60045490565b7f8502233096d909befbda0999bb8ea2f3a6be3c138b9fbf003752a4c8bce86f6c81565b600061062584848461102c565b6001600160a01b038416600090815260036020526040812081610646610f6e565b6001600160a01b03166001600160a01b03168152602001908152602001600020549050828110156106925760405162461bcd60e51b8152600401610689906126f2565b60405180910390fd5b6106a68561069e610f6e565b858403610f78565b506001949350505050565b60009081526020819052604090206001015490565b6106d08282611156565b60008281526001602052604090206106e89082610f30565b505050565b601290565b60006106fc61117a565b905090565b61070b8282611236565b60008281526001602052604090206106e89082611278565b60006105e4610730610f6e565b84846003600061073e610f6e565b6001600160a01b03908116825260208083019390935260409182016000908120918b16815292529020546107729190612a90565b610f78565b6107a37f65d7a28e3265b37a6474929f336521b332c1681b933f6cb9f3376673440d862a610456610f6e565b6107bf5760405162461bcd60e51b815260040161068990612450565b6107c761128d565b565b600a60009054906101000a90046001600160a01b03166001600160a01b0316639d2f83f06040518163ffffffff1660e01b815260040160206040518083038186803b15801561081757600080fd5b505afa15801561082b573d6000803e3d6000fd5b505050506040513d601f19601f8201168201806040525081019061084f9190612041565b1561086c5760405162461bcd60e51b81526004016106899061256c565b61087682826112fb565b5050565b61088b610885610f6e565b8261134d565b50565b6009546001600160a01b0390811691161490565b60075460ff1690565b6001600160a01b031660009081526002602052604090205490565b60006108d4836104fb610f6e565b9050818110156108f65760405162461bcd60e51b815260040161068990612797565b61090a83610902610f6e565b848403610f78565b6106e8838361134d565b6001600160a01b03811660009081526008602052604081206105359061143e565b600954600160a01b900460ff1681565b6109717f65d7a28e3265b37a6474929f336521b332c1681b933f6cb9f3376673440d862a610456610f6e565b61098d5760405162461bcd60e51b8152600401610689906128a5565b6107c7611442565b600a5460408051634a32c6bf60e11b815290516001600160a01b03909216916391d148549183916394658d7e91600480820192602092909190829003018186803b1580156109e257600080fd5b505afa1580156109f6573d6000803e3d6000fd5b505050506040513d601f19601f82011682018060405250810190610a1a9190612075565b610a22610f6e565b6040518363ffffffff1660e01b8152600401610a3f929190612229565b60206040518083038186803b158015610a5757600080fd5b505afa158015610a6b573d6000803e3d6000fd5b505050506040513d601f19601f82011682018060405250810190610a8f9190612041565b610aab5760405162461bcd60e51b815260040161068990612902565b60098054911515600160a01b0274ff000000000000000000000000000000000000000019909216919091179055565b6000828152600160205260408120610af2908361149d565b9392505050565b6000918252602082815260408084206001600160a01b0393909316845291905290205460ff1690565b600a5460408051634a32c6bf60e11b815290516001600160a01b03909216916391d148549183916394658d7e91600480820192602092909190829003018186803b158015610b6f57600080fd5b505afa158015610b83573d6000803e3d6000fd5b505050506040513d601f19601f82011682018060405250810190610ba79190612075565b610baf610f6e565b6040518363ffffffff1660e01b8152600401610bcc929190612229565b60206040518083038186803b158015610be457600080fd5b505afa158015610bf8573d6000803e3d6000fd5b505050506040513d601f19601f82011682018060405250810190610c1c9190612041565b610c385760405162461bcd60e51b815260040161068990612902565b6106e8600b8383611e54565b60606006805461054c90612b21565b600081565b60008060036000610c67610f6e565b6001600160a01b0390811682526020808301939093526040918201600090812091881681529252902054905082811015610cb35760405162461bcd60e51b81526004016106899061295f565b610cc7610cbe610f6e565b85858403610f78565b5060019392505050565b60006105e4610cde610f6e565b848461102c565b600b8054610cf290612b21565b80601f0160208091040260200160405190810160405280929190818152602001828054610d1e90612b21565b8015610d6b5780601f10610d4057610100808354040283529160200191610d6b565b820191906000526020600020905b815481529060010190602001808311610d4e57829003601f168201915b505050505081565b6000818152600160205260408120610535906114a9565b83421115610daa5760405162461bcd60e51b8152600401610689906124ef565b60007f0000000000000000000000000000000000000000000000000000000000000000888888610dd98c6114b4565b89604051602001610def96959493929190612240565b6040516020818303038152906040528051906020012090506000610e12826114e6565b90506000610e22828787876114f9565b9050896001600160a01b0316816001600160a01b031614610e555760405162461bcd60e51b8152600401610689906126bb565b610e608a8a8a610f78565b50505050505050505050565b7f9f2df0fed2c77648de5860a4cc508cd0818c85b8b8a1ab4ceeef8d981c8956a681565b61070b8282611521565b6001600160a01b03918216600090815260036020908152604080832093909416825291909152205490565b7f65d7a28e3265b37a6474929f336521b332c1681b933f6cb9f3376673440d862a81565b6060600b805461054c90612b21565b6000610f033361088e565b15610f17575060131936013560601c6105cd565b610f1f610f45565b90506105cd565b6108768282611540565b6000610af2836001600160a01b0384166115c5565b3390565b60006001600160e01b03198216637965db0b60e01b148061053557506105358261160f565b60006106fc610ef8565b6001600160a01b038316610f9e5760405162461bcd60e51b815260040161068990612861565b6001600160a01b038216610fc45760405162461bcd60e51b8152600401610689906124ad565b6001600160a01b0380841660008181526003602090815260408083209487168084529490915290819020849055517f8c5be1e5ebec7d5bd14f71427d1e84f3dd0314c0f7b2291e5b200ac8c7c3b9259061101f908590612220565b60405180910390a3505050565b6001600160a01b0383166110525760405162461bcd60e51b81526004016106899061281c565b6001600160a01b0382166110785760405162461bcd60e51b81526004016106899061235d565b611083838383611628565b6001600160a01b038316600090815260026020526040902054818110156110bc5760405162461bcd60e51b815260040161068990612526565b6001600160a01b038085166000908152600260205260408082208585039055918516815290812080548492906110f3908490612a90565b92505081905550826001600160a01b0316846001600160a01b03167fddf252ad1be2c89b69c2b068fc378daa952ba7f163c4a11628f55a4df523b3ef8460405161113d9190612220565b60405180910390a36111508484846106e8565b50505050565b61115f826106b1565b6111708161116b610f6e565b6116bb565b6106e88383611540565b60007f00000000000000000000000000000000000000000000000000000000000000004614156111cb57507f00000000000000000000000000000000000000000000000000000000000000006105cd565b610f1f7f00000000000000000000000000000000000000000000000000000000000000007f00000000000000000000000000000000000000000000000000000000000000007f000000000000000000000000000000000000000000000000000000000000000061171f565b61123e610f6e565b6001600160a01b0316816001600160a01b03161461126e5760405162461bcd60e51b8152600401610689906129a4565b6108768282611759565b6000610af2836001600160a01b0384166117dc565b6112956108a2565b6112b15760405162461bcd60e51b8152600401610689906123a0565b6007805460ff191690557f5db9ee0a495bf2e6ff9c91a7834c1ba4fdd244a5e8aa4e537bd38aeae4b073aa6112e4610f6e565b6040516112f19190612201565b60405180910390a1565b6113277f9f2df0fed2c77648de5860a4cc508cd0818c85b8b8a1ab4ceeef8d981c8956a6610456610f6e565b6113435760405162461bcd60e51b81526004016106899061273a565b61087682826118f9565b6001600160a01b0382166113735760405162461bcd60e51b8152600401610689906127db565b61137f82600083611628565b6001600160a01b038216600090815260026020526040902054818110156113b85760405162461bcd60e51b8152600401610689906123d7565b6001600160a01b03831660009081526002602052604081208383039055600480548492906113e7908490612ac7565b90915550506040516000906001600160a01b038516907fddf252ad1be2c89b69c2b068fc378daa952ba7f163c4a11628f55a4df523b3ef9061142a908690612220565b60405180910390a36106e8836000846106e8565b5490565b61144a6108a2565b156114675760405162461bcd60e51b8152600401610689906125e5565b6007805460ff191660011790557f62e78cea01bee320cd4e420270b5ea74000d11b0c9f74754ebdbfc544b05a2586112e4610f6e565b6000610af283836119c1565b60006105358261143e565b6001600160a01b03811660009081526008602052604081206114d58161143e565b91506114e0816119f9565b50919050565b60006105356114f361117a565b83611a02565b600080600061150a87878787611a35565b9150915061151781611b15565b5095945050505050565b61152a826106b1565b6115368161116b610f6e565b6106e88383611759565b61154a8282610af9565b610876576000828152602081815260408083206001600160a01b03851684529091529020805460ff19166001179055611581610f6e565b6001600160a01b0316816001600160a01b0316837f2f8788117e7eff1d82e926ec794901d17c78024a50270940304540a733656f0d60405160405180910390a45050565b60006115d18383611c42565b611607575081546001818101845560008481526020808220909301849055845484825282860190935260409020919091556105e8565b5060006105e8565b6001600160e01b031981166301ffc9a760e01b14919050565b611633838383611c5a565b600954600160a01b900460ff16156106e85761166f7f8502233096d909befbda0999bb8ea2f3a6be3c138b9fbf003752a4c8bce86f6c84610af9565b8061169f575061169f7f8502233096d909befbda0999bb8ea2f3a6be3c138b9fbf003752a4c8bce86f6c83610af9565b6106e85760405162461bcd60e51b81526004016106899061261c565b6116c58282610af9565b610876576116dd816001600160a01b03166014611c65565b6116e8836020611c65565b6040516020016116f9929190612180565b60408051601f198184030181529082905262461bcd60e51b8252610689916004016122be565b6000838383463060405160200161173a959493929190612274565b6040516020818303038152906040528051906020012090509392505050565b6117638282610af9565b15610876576000828152602081815260408083206001600160a01b03851684529091529020805460ff19169055611798610f6e565b6001600160a01b0316816001600160a01b0316837ff6391f5c32d9c69d2a47ea670b442974b53935d1edc7fd64eb21e047a839171b60405160405180910390a45050565b600081815260018301602052604081205480156118ef576000611800600183612ac7565b855490915060009061181490600190612ac7565b905081811461189557600086600001828154811061184257634e487b7160e01b600052603260045260246000fd5b906000526020600020015490508087600001848154811061187357634e487b7160e01b600052603260045260246000fd5b6000918252602080832090910192909255918252600188019052604090208390555b85548690806118b457634e487b7160e01b600052603160045260246000fd5b6001900381819060005260206000200160009055905585600101600086815260200190815260200160002060009055600193505050506105e8565b60009150506105e8565b6001600160a01b03821661191f5760405162461bcd60e51b815260040161068990612a01565b61192b60008383611628565b806004600082825461193d9190612a90565b90915550506001600160a01b0382166000908152600260205260408120805483929061196a908490612a90565b90915550506040516001600160a01b038316906000907fddf252ad1be2c89b69c2b068fc378daa952ba7f163c4a11628f55a4df523b3ef906119ad908590612220565b60405180910390a3610876600083836106e8565b60008260000182815481106119e657634e487b7160e01b600052603260045260246000fd5b9060005260206000200154905092915050565b80546001019055565b60008282604051602001611a17929190612165565b60405160208183030381529060405280519060200120905092915050565b6000807f7fffffffffffffffffffffffffffffff5d576e7357a4501ddfe92f46681b20a0831115611a6c5750600090506003611b0c565b8460ff16601b14158015611a8457508460ff16601c14155b15611a955750600090506004611b0c565b600060018787878760405160008152602001604052604051611aba94939291906122a0565b6020604051602081039080840390855afa158015611adc573d6000803e3d6000fd5b5050604051601f1901519150506001600160a01b038116611b0557600060019250925050611b0c565b9150600090505b94509492505050565b6000816004811115611b3757634e487b7160e01b600052602160045260246000fd5b1415611b425761088b565b6001816004811115611b6457634e487b7160e01b600052602160045260246000fd5b1415611b825760405162461bcd60e51b8152600401610689906122f1565b6002816004811115611ba457634e487b7160e01b600052602160045260246000fd5b1415611bc25760405162461bcd60e51b815260040161068990612419565b6003816004811115611be457634e487b7160e01b600052602160045260246000fd5b1415611c025760405162461bcd60e51b8152600401610689906125a3565b6004816004811115611c2457634e487b7160e01b600052602160045260246000fd5b141561088b5760405162461bcd60e51b815260040161068990612679565b60009081526001919091016020526040902054151590565b6106e8838383611e24565b60606000611c74836002612aa8565b611c7f906002612a90565b67ffffffffffffffff811115611ca557634e487b7160e01b600052604160045260246000fd5b6040519080825280601f01601f191660200182016040528015611ccf576020820181803683370190505b509050600360fc1b81600081518110611cf857634e487b7160e01b600052603260045260246000fd5b60200101906001600160f81b031916908160001a905350600f60fb1b81600181518110611d3557634e487b7160e01b600052603260045260246000fd5b60200101906001600160f81b031916908160001a9053506000611d59846002612aa8565b611d64906001612a90565b90505b6001811115611e05577f303132333435363738396162636465660000000000000000000000000000000085600f1660108110611db357634e487b7160e01b600052603260045260246000fd5b1a60f81b828281518110611dd757634e487b7160e01b600052603260045260246000fd5b60200101906001600160f81b031916908160001a90535060049490941c93611dfe81612b0a565b9050611d67565b508315610af25760405162461bcd60e51b815260040161068990612328565b611e2f8383836106e8565b611e376108a2565b156106e85760405162461bcd60e51b815260040161068990612a38565b828054611e6090612b21565b90600052602060002090601f016020900481019282611e825760008555611ec8565b82601f10611e9b5782800160ff19823516178555611ec8565b82800160010185558215611ec8579182015b82811115611ec8578235825591602001919060010190611ead565b50611ed4929150611ed8565b5090565b5b80821115611ed45760008155600101611ed9565b80356001600160a01b038116811461053857600080fd5b600060208284031215611f15578081fd5b610af282611eed565b60008060408385031215611f30578081fd5b611f3983611eed565b9150611f4760208401611eed565b90509250929050565b600080600060608486031215611f64578081fd5b611f6d84611eed565b9250611f7b60208501611eed565b9150604084013590509250925092565b600080600080600080600060e0888a031215611fa5578283fd5b611fae88611eed565b9650611fbc60208901611eed565b95506040880135945060608801359350608088013560ff81168114611fdf578384fd5b9699959850939692959460a0840135945060c09093013592915050565b6000806040838503121561200e578182fd5b61201783611eed565b946020939093013593505050565b600060208284031215612036578081fd5b8135610af281612b6c565b600060208284031215612052578081fd5b8151610af281612b6c565b60006020828403121561206e578081fd5b5035919050565b600060208284031215612086578081fd5b5051919050565b6000806040838503121561209f578182fd5b82359150611f4760208401611eed565b600080604083850312156120c1578182fd5b50508035926020909101359150565b6000602082840312156120e1578081fd5b81356001600160e01b031981168114610af2578182fd5b6000806020838503121561210a578182fd5b823567ffffffffffffffff80821115612121578384fd5b818501915085601f830112612134578384fd5b813581811115612142578485fd5b866020828501011115612153578485fd5b60209290920196919550909350505050565b61190160f01b81526002810192909252602282015260420190565b60007f416363657373436f6e74726f6c3a206163636f756e7420000000000000000000825283516121b8816017850160208801612ade565b7f206973206d697373696e6720726f6c652000000000000000000000000000000060179184019182015283516121f5816028840160208801612ade565b01602801949350505050565b6001600160a01b0391909116815260200190565b901515815260200190565b90815260200190565b9182526001600160a01b0316602082015260400190565b9586526001600160a01b0394851660208701529290931660408501526060840152608083019190915260a082015260c00190565b9485526020850193909352604084019190915260608301526001600160a01b0316608082015260a00190565b93845260ff9290921660208401526040830152606082015260800190565b60006020825282518060208401526122dd816040850160208701612ade565b601f01601f19169190910160400192915050565b60208082526018908201527f45434453413a20696e76616c6964207369676e61747572650000000000000000604082015260600190565b6020808252818101527f537472696e67733a20686578206c656e67746820696e73756666696369656e74604082015260600190565b60208082526023908201527f45524332303a207472616e7366657220746f20746865207a65726f206164647260408201526265737360e81b606082015260800190565b60208082526014908201527f5061757361626c653a206e6f7420706175736564000000000000000000000000604082015260600190565b60208082526022908201527f45524332303a206275726e20616d6f756e7420657863656564732062616c616e604082015261636560f01b606082015260800190565b6020808252601f908201527f45434453413a20696e76616c6964207369676e6174757265206c656e67746800604082015260600190565b60208082526039908201527f45524332305072657365744d696e7465725061757365723a206d75737420686160408201527f76652070617573657220726f6c6520746f20756e706175736500000000000000606082015260800190565b60208082526022908201527f45524332303a20617070726f766520746f20746865207a65726f206164647265604082015261737360f01b606082015260800190565b6020808252601d908201527f45524332305065726d69743a206578706972656420646561646c696e65000000604082015260600190565b60208082526026908201527f45524332303a207472616e7366657220616d6f756e7420657863656564732062604082015265616c616e636560d01b606082015260800190565b6020808252601d908201527f436f696e3a205468652070726f746f636f6c206973207061757365642e000000604082015260600190565b60208082526022908201527f45434453413a20696e76616c6964207369676e6174757265202773272076616c604082015261756560f01b606082015260800190565b60208082526010908201527f5061757361626c653a2070617573656400000000000000000000000000000000604082015260600190565b60208082526036908201527f4e46543a205472616e736665727320617265207265737472696374656420746f60408201527f205452414e534645525f524f4c4520686f6c6465727300000000000000000000606082015260800190565b60208082526022908201527f45434453413a20696e76616c6964207369676e6174757265202776272076616c604082015261756560f01b606082015260800190565b6020808252601e908201527f45524332305065726d69743a20696e76616c6964207369676e61747572650000604082015260600190565b60208082526028908201527f45524332303a207472616e7366657220616d6f756e74206578636565647320616040820152676c6c6f77616e636560c01b606082015260800190565b60208082526036908201527f45524332305072657365744d696e7465725061757365723a206d75737420686160408201527f7665206d696e74657220726f6c6520746f206d696e7400000000000000000000606082015260800190565b60208082526024908201527f45524332303a206275726e20616d6f756e74206578636565647320616c6c6f77604082015263616e636560e01b606082015260800190565b60208082526021908201527f45524332303a206275726e2066726f6d20746865207a65726f206164647265736040820152607360f81b606082015260800190565b60208082526025908201527f45524332303a207472616e736665722066726f6d20746865207a65726f206164604082015264647265737360d81b606082015260800190565b60208082526024908201527f45524332303a20617070726f76652066726f6d20746865207a65726f206164646040820152637265737360e01b606082015260800190565b60208082526037908201527f45524332305072657365744d696e7465725061757365723a206d75737420686160408201527f76652070617573657220726f6c6520746f207061757365000000000000000000606082015260800190565b60208082526033908201527f436f696e3a206f6e6c7920612070726f746f636f6c2061646d696e2063616e2060408201527f63616c6c20746869732066756e6374696f6e2e00000000000000000000000000606082015260800190565b60208082526025908201527f45524332303a2064656372656173656420616c6c6f77616e63652062656c6f77604082015264207a65726f60d81b606082015260800190565b6020808252602f908201527f416363657373436f6e74726f6c3a2063616e206f6e6c792072656e6f756e636560408201527f20726f6c657320666f722073656c660000000000000000000000000000000000606082015260800190565b6020808252601f908201527f45524332303a206d696e7420746f20746865207a65726f206164647265737300604082015260600190565b6020808252602a908201527f45524332305061757361626c653a20746f6b656e207472616e736665722077686040820152691a5b19481c185d5cd95960b21b606082015260800190565b60ff91909116815260200190565b60008219821115612aa357612aa3612b56565b500190565b6000816000190483118215151615612ac257612ac2612b56565b500290565b600082821015612ad957612ad9612b56565b500390565b60005b83811015612af9578181015183820152602001612ae1565b838111156111505750506000910152565b600081612b1957612b19612b56565b506000190190565b600281046001821680612b3557607f821691505b602082108114156114e057634e487b7160e01b600052602260045260246000fd5b634e487b7160e01b600052601160045260246000fd5b801515811461088b57600080fdfea164736f6c6343000800000a",
  "linkReferences": {},
  "deployedLinkReferences": {}
}