{
  "_format": "hh-sol-artifact-1",
  "contractName": "Coin",
  "sourceName": "contracts/Coin.sol",
  "abi": [
    {
      "inputs": [
        {
          "internalType": "address payable",
          "name": "_controlCenter",
          "type": "address"
        },
        {
          "internalType": "string",
          "name": "_name",
          "type": "string"
        },
        {
          "internalType": "string",
          "name": "_symbol",
          "type": "string"
        },
        {
          "internalType": "address",
          "name": "_trustedForwarder",
          "type": "address"
        },
        {
          "internalType": "string",
          "name": "_uri",
          "type": "string"
        }
      ],
      "stateMutability": "nonpayable",
      "type": "constructor"
    },
    {
      "anonymous": false,
      "inputs": [
        {
          "indexed": true,
          "internalType": "address",
          "name": "owner",
          "type": "address"
        },
        {
          "indexed": true,
          "internalType": "address",
          "name": "spender",
          "type": "address"
        },
        {
          "indexed": false,
          "internalType": "uint256",
          "name": "value",
          "type": "uint256"
        }
      ],
      "name": "Approval",
      "type": "event"
    },
    {
      "anonymous": false,
      "inputs": [
        {
          "indexed": false,
          "internalType": "address",
          "name": "account",
          "type": "address"
        }
      ],
      "name": "Paused",
      "type": "event"
    },
    {
      "anonymous": false,
      "inputs": [
        {
          "indexed": true,
          "internalType": "bytes32",
          "name": "role",
          "type": "bytes32"
        },
        {
          "indexed": true,
          "internalType": "bytes32",
          "name": "previousAdminRole",
          "type": "bytes32"
        },
        {
          "indexed": true,
          "internalType": "bytes32",
          "name": "newAdminRole",
          "type": "bytes32"
        }
      ],
      "name": "RoleAdminChanged",
      "type": "event"
    },
    {
      "anonymous": false,
      "inputs": [
        {
          "indexed": true,
          "internalType": "bytes32",
          "name": "role",
          "type": "bytes32"
        },
        {
          "indexed": true,
          "internalType": "address",
          "name": "account",
          "type": "address"
        },
        {
          "indexed": true,
          "internalType": "address",
          "name": "sender",
          "type": "address"
        }
      ],
      "name": "RoleGranted",
      "type": "event"
    },
    {
      "anonymous": false,
      "inputs": [
        {
          "indexed": true,
          "internalType": "bytes32",
          "name": "role",
          "type": "bytes32"
        },
        {
          "indexed": true,
          "internalType": "address",
          "name": "account",
          "type": "address"
        },
        {
          "indexed": true,
          "internalType": "address",
          "name": "sender",
          "type": "address"
        }
      ],
      "name": "RoleRevoked",
      "type": "event"
    },
    {
      "anonymous": false,
      "inputs": [
        {
          "indexed": true,
          "internalType": "address",
          "name": "from",
          "type": "address"
        },
        {
          "indexed": true,
          "internalType": "address",
          "name": "to",
          "type": "address"
        },
        {
          "indexed": false,
          "internalType": "uint256",
          "name": "value",
          "type": "uint256"
        }
      ],
      "name": "Transfer",
      "type": "event"
    },
    {
      "anonymous": false,
      "inputs": [
        {
          "indexed": false,
          "internalType": "address",
          "name": "account",
          "type": "address"
        }
      ],
      "name": "Unpaused",
      "type": "event"
    },
    {
      "inputs": [],
      "name": "DEFAULT_ADMIN_ROLE",
      "outputs": [
        {
          "internalType": "bytes32",
          "name": "",
          "type": "bytes32"
        }
      ],
      "stateMutability": "view",
      "type": "function"
    },
    {
      "inputs": [],
      "name": "DOMAIN_SEPARATOR",
      "outputs": [
        {
          "internalType": "bytes32",
          "name": "",
          "type": "bytes32"
        }
      ],
      "stateMutability": "view",
      "type": "function"
    },
    {
      "inputs": [],
      "name": "MINTER_ROLE",
      "outputs": [
        {
          "internalType": "bytes32",
          "name": "",
          "type": "bytes32"
        }
      ],
      "stateMutability": "view",
      "type": "function"
    },
    {
      "inputs": [],
      "name": "PAUSER_ROLE",
      "outputs": [
        {
          "internalType": "bytes32",
          "name": "",
          "type": "bytes32"
        }
      ],
      "stateMutability": "view",
      "type": "function"
    },
    {
      "inputs": [],
      "name": "TRANSFER_ROLE",
      "outputs": [
        {
          "internalType": "bytes32",
          "name": "",
          "type": "bytes32"
        }
      ],
      "stateMutability": "view",
      "type": "function"
    },
    {
      "inputs": [],
      "name": "_contractURI",
      "outputs": [
        {
          "internalType": "string",
          "name": "",
          "type": "string"
        }
      ],
      "stateMutability": "view",
      "type": "function"
    },
    {
      "inputs": [
        {
          "internalType": "address",
          "name": "owner",
          "type": "address"
        },
        {
          "internalType": "address",
          "name": "spender",
          "type": "address"
        }
      ],
      "name": "allowance",
      "outputs": [
        {
          "internalType": "uint256",
          "name": "",
          "type": "uint256"
        }
      ],
      "stateMutability": "view",
      "type": "function"
    },
    {
      "inputs": [
        {
          "internalType": "address",
          "name": "spender",
          "type": "address"
        },
        {
          "internalType": "uint256",
          "name": "amount",
          "type": "uint256"
        }
      ],
      "name": "approve",
      "outputs": [
        {
          "internalType": "bool",
          "name": "",
          "type": "bool"
        }
      ],
      "stateMutability": "nonpayable",
      "type": "function"
    },
    {
      "inputs": [
        {
          "internalType": "address",
          "name": "account",
          "type": "address"
        }
      ],
      "name": "balanceOf",
      "outputs": [
        {
          "internalType": "uint256",
          "name": "",
          "type": "uint256"
        }
      ],
      "stateMutability": "view",
      "type": "function"
    },
    {
      "inputs": [
        {
          "internalType": "uint256",
          "name": "amount",
          "type": "uint256"
        }
      ],
      "name": "burn",
      "outputs": [],
      "stateMutability": "nonpayable",
      "type": "function"
    },
    {
      "inputs": [
        {
          "internalType": "address",
          "name": "account",
          "type": "address"
        },
        {
          "internalType": "uint256",
          "name": "amount",
          "type": "uint256"
        }
      ],
      "name": "burnFrom",
      "outputs": [],
      "stateMutability": "nonpayable",
      "type": "function"
    },
    {
      "inputs": [],
      "name": "contractURI",
      "outputs": [
        {
          "internalType": "string",
          "name": "",
          "type": "string"
        }
      ],
      "stateMutability": "view",
      "type": "function"
    },
    {
      "inputs": [],
      "name": "decimals",
      "outputs": [
        {
          "internalType": "uint8",
          "name": "",
          "type": "uint8"
        }
      ],
      "stateMutability": "view",
      "type": "function"
    },
    {
      "inputs": [
        {
          "internalType": "address",
          "name": "spender",
          "type": "address"
        },
        {
          "internalType": "uint256",
          "name": "subtractedValue",
          "type": "uint256"
        }
      ],
      "name": "decreaseAllowance",
      "outputs": [
        {
          "internalType": "bool",
          "name": "",
          "type": "bool"
        }
      ],
      "stateMutability": "nonpayable",
      "type": "function"
    },
    {
      "inputs": [
        {
          "internalType": "bytes32",
          "name": "role",
          "type": "bytes32"
        }
      ],
      "name": "getRoleAdmin",
      "outputs": [
        {
          "internalType": "bytes32",
          "name": "",
          "type": "bytes32"
        }
      ],
      "stateMutability": "view",
      "type": "function"
    },
    {
      "inputs": [
        {
          "internalType": "bytes32",
          "name": "role",
          "type": "bytes32"
        },
        {
          "internalType": "uint256",
          "name": "index",
          "type": "uint256"
        }
      ],
      "name": "getRoleMember",
      "outputs": [
        {
          "internalType": "address",
          "name": "",
          "type": "address"
        }
      ],
      "stateMutability": "view",
      "type": "function"
    },
    {
      "inputs": [
        {
          "internalType": "bytes32",
          "name": "role",
          "type": "bytes32"
        }
      ],
      "name": "getRoleMemberCount",
      "outputs": [
        {
          "internalType": "uint256",
          "name": "",
          "type": "uint256"
        }
      ],
      "stateMutability": "view",
      "type": "function"
    },
    {
      "inputs": [
        {
          "internalType": "bytes32",
          "name": "role",
          "type": "bytes32"
        },
        {
          "internalType": "address",
          "name": "account",
          "type": "address"
        }
      ],
      "name": "grantRole",
      "outputs": [],
      "stateMutability": "nonpayable",
      "type": "function"
    },
    {
      "inputs": [
        {
          "internalType": "bytes32",
          "name": "role",
          "type": "bytes32"
        },
        {
          "internalType": "address",
          "name": "account",
          "type": "address"
        }
      ],
      "name": "hasRole",
      "outputs": [
        {
          "internalType": "bool",
          "name": "",
          "type": "bool"
        }
      ],
      "stateMutability": "view",
      "type": "function"
    },
    {
      "inputs": [
        {
          "internalType": "address",
          "name": "spender",
          "type": "address"
        },
        {
          "internalType": "uint256",
          "name": "addedValue",
          "type": "uint256"
        }
      ],
      "name": "increaseAllowance",
      "outputs": [
        {
          "internalType": "bool",
          "name": "",
          "type": "bool"
        }
      ],
      "stateMutability": "nonpayable",
      "type": "function"
    },
    {
      "inputs": [
        {
          "internalType": "address",
          "name": "forwarder",
          "type": "address"
        }
      ],
      "name": "isTrustedForwarder",
      "outputs": [
        {
          "internalType": "bool",
          "name": "",
          "type": "bool"
        }
      ],
      "stateMutability": "view",
      "type": "function"
    },
    {
      "inputs": [
        {
          "internalType": "address",
          "name": "to",
          "type": "address"
        },
        {
          "internalType": "uint256",
          "name": "amount",
          "type": "uint256"
        }
      ],
      "name": "mint",
      "outputs": [],
      "stateMutability": "nonpayable",
      "type": "function"
    },
    {
      "inputs": [],
      "name": "name",
      "outputs": [
        {
          "internalType": "string",
          "name": "",
          "type": "string"
        }
      ],
      "stateMutability": "view",
      "type": "function"
    },
    {
      "inputs": [
        {
          "internalType": "address",
          "name": "owner",
          "type": "address"
        }
      ],
      "name": "nonces",
      "outputs": [
        {
          "internalType": "uint256",
          "name": "",
          "type": "uint256"
        }
      ],
      "stateMutability": "view",
      "type": "function"
    },
    {
      "inputs": [],
      "name": "pause",
      "outputs": [],
      "stateMutability": "nonpayable",
      "type": "function"
    },
    {
      "inputs": [],
      "name": "paused",
      "outputs": [
        {
          "internalType": "bool",
          "name": "",
          "type": "bool"
        }
      ],
      "stateMutability": "view",
      "type": "function"
    },
    {
      "inputs": [
        {
          "internalType": "address",
          "name": "owner",
          "type": "address"
        },
        {
          "internalType": "address",
          "name": "spender",
          "type": "address"
        },
        {
          "internalType": "uint256",
          "name": "value",
          "type": "uint256"
        },
        {
          "internalType": "uint256",
          "name": "deadline",
          "type": "uint256"
        },
        {
          "internalType": "uint8",
          "name": "v",
          "type": "uint8"
        },
        {
          "internalType": "bytes32",
          "name": "r",
          "type": "bytes32"
        },
        {
          "internalType": "bytes32",
          "name": "s",
          "type": "bytes32"
        }
      ],
      "name": "permit",
      "outputs": [],
      "stateMutability": "nonpayable",
      "type": "function"
    },
    {
      "inputs": [
        {
          "internalType": "bytes32",
          "name": "role",
          "type": "bytes32"
        },
        {
          "internalType": "address",
          "name": "account",
          "type": "address"
        }
      ],
      "name": "renounceRole",
      "outputs": [],
      "stateMutability": "nonpayable",
      "type": "function"
    },
    {
      "inputs": [
        {
          "internalType": "bytes32",
          "name": "role",
          "type": "bytes32"
        },
        {
          "internalType": "address",
          "name": "account",
          "type": "address"
        }
      ],
      "name": "revokeRole",
      "outputs": [],
      "stateMutability": "nonpayable",
      "type": "function"
    },
    {
      "inputs": [
        {
          "internalType": "string",
          "name": "_URI",
          "type": "string"
        }
      ],
      "name": "setContractURI",
      "outputs": [],
      "stateMutability": "nonpayable",
      "type": "function"
    },
    {
      "inputs": [
        {
          "internalType": "bool",
          "name": "_restrictedTransfer",
          "type": "bool"
        }
      ],
      "name": "setRestrictedTransfer",
      "outputs": [],
      "stateMutability": "nonpayable",
      "type": "function"
    },
    {
      "inputs": [
        {
          "internalType": "bytes4",
          "name": "interfaceId",
          "type": "bytes4"
        }
      ],
      "name": "supportsInterface",
      "outputs": [
        {
          "internalType": "bool",
          "name": "",
          "type": "bool"
        }
      ],
      "stateMutability": "view",
      "type": "function"
    },
    {
      "inputs": [],
      "name": "symbol",
      "outputs": [
        {
          "internalType": "string",
          "name": "",
          "type": "string"
        }
      ],
      "stateMutability": "view",
      "type": "function"
    },
    {
      "inputs": [],
      "name": "totalSupply",
      "outputs": [
        {
          "internalType": "uint256",
          "name": "",
          "type": "uint256"
        }
      ],
      "stateMutability": "view",
      "type": "function"
    },
    {
      "inputs": [
        {
          "internalType": "address",
          "name": "recipient",
          "type": "address"
        },
        {
          "internalType": "uint256",
          "name": "amount",
          "type": "uint256"
        }
      ],
      "name": "transfer",
      "outputs": [
        {
          "internalType": "bool",
          "name": "",
          "type": "bool"
        }
      ],
      "stateMutability": "nonpayable",
      "type": "function"
    },
    {
      "inputs": [
        {
          "internalType": "address",
          "name": "sender",
          "type": "address"
        },
        {
          "internalType": "address",
          "name": "recipient",
          "type": "address"
        },
        {
          "internalType": "uint256",
          "name": "amount",
          "type": "uint256"
        }
      ],
      "name": "transferFrom",
      "outputs": [
        {
          "internalType": "bool",
          "name": "",
          "type": "bool"
        }
      ],
      "stateMutability": "nonpayable",
      "type": "function"
    },
    {
      "inputs": [],
      "name": "transfersRestricted",
      "outputs": [
        {
          "internalType": "bool",
          "name": "",
          "type": "bool"
        }
      ],
      "stateMutability": "view",
      "type": "function"
    },
    {
      "inputs": [],
      "name": "unpause",
      "outputs": [],
      "stateMutability": "nonpayable",
      "type": "function"
    }
  ],
  "bytecode": "0x6101406040527f6e71edae12b1b97f4d1f60370fef10105fa2faae0126114a169c64845d6126c9610120523480156200003757600080fd5b506040516200331b3803806200331b8339810160408190526200005a9162000599565b8184848180604051806040016040528060018152602001603160f81b815250848481600590805190602001906200009392919062000448565b508051620000a990600690602084019062000448565b50506007805460ff1916905550815160208084019190912082519183019190912060c082905260e08190524660a0527f8b73c3c69bb8fe3d512ecc4cf759cc79239f7b179b0ffacaa9a75d522b39400f620001068184846200020a565b60805261010052506200012b9350600092506200012591505062000246565b62000263565b6200015a7f9f2df0fed2c77648de5860a4cc508cd0818c85b8b8a1ab4ceeef8d981c8956a66200012562000246565b620001897f65d7a28e3265b37a6474929f336521b332c1681b933f6cb9f3376673440d862a6200012562000246565b5050600980546001600160a01b03199081166001600160a01b0393841617909155600a80549091169187169190911790558051620001cf90600b90602084019062000448565b50620001ff7f8502233096d909befbda0999bb8ea2f3a6be3c138b9fbf003752a4c8bce86f6c6200012562000246565b5050505050620006ea565b600083838346306040516020016200022795949392919062000652565b6040516020818303038152906040528051906020012090509392505050565b60006200025d620002a660201b62000f021760201c565b90505b90565b6200027a8282620002e660201b62000f301760201c565b6000828152600160209081526040909120620002a191839062000f3a620002f6821b17901c565b505050565b6000620002b33362000316565b15620002c9575060131936013560601c62000260565b620002de6200032a60201b62000f4f1760201c565b905062000260565b620002f282826200032e565b5050565b60006200030d836001600160a01b038416620003b8565b90505b92915050565b6009546001600160a01b0390811691161490565b3390565b6200033a828262000407565b620002f2576000828152602081815260408083206001600160a01b03851684529091529020805460ff191660011790556200037462000246565b6001600160a01b0316816001600160a01b0316837f2f8788117e7eff1d82e926ec794901d17c78024a50270940304540a733656f0d60405160405180910390a45050565b6000620003c6838362000430565b620003fe5750815460018181018455600084815260208082209093018490558454848252828601909352604090209190915562000310565b50600062000310565b6000918252602082815260408084206001600160a01b0393909316845291905290205460ff1690565b60009081526001919091016020526040902054151590565b82805462000456906200067e565b90600052602060002090601f0160209004810192826200047a5760008555620004c5565b82601f106200049557805160ff1916838001178555620004c5565b82800160010185558215620004c5579182015b82811115620004c5578251825591602001919060010190620004a8565b50620004d3929150620004d7565b5090565b5b80821115620004d35760008155600101620004d8565b600082601f830112620004ff578081fd5b81516001600160401b03808211156200051c576200051c620006bb565b6040516020601f8401601f1916820181018381118382101715620005445762000544620006bb565b60405283825285840181018710156200055b578485fd5b8492505b838310156200057e57858301810151828401820152918201916200055f565b838311156200058f57848185840101525b5095945050505050565b600080600080600060a08688031215620005b1578081fd5b8551620005be81620006d1565b60208701519095506001600160401b0380821115620005db578283fd5b620005e989838a01620004ee565b95506040880151915080821115620005ff578283fd5b6200060d89838a01620004ee565b9450606088015191506200062182620006d1565b60808801519193508082111562000636578283fd5b506200064588828901620004ee565b9150509295509295909350565b9485526020850193909352604084019190915260608301526001600160a01b0316608082015260a00190565b6002810460018216806200069357607f821691505b60208210811415620006b557634e487b7160e01b600052602260045260246000fd5b50919050565b634e487b7160e01b600052604160045260246000fd5b6001600160a01b0381168114620006e757600080fd5b50565b60805160a05160c05160e0516101005161012051612be16200073a6000396000610db8015260006111da0152600061121c015260006111fb01526000611188015260006111b10152612be16000f3fe608060405234801561001057600080fd5b50600436106102925760003560e01c80637ecebe0011610160578063a457c2d7116100d8578063d53913931161008c578063dd62ed3e11610071578063dd62ed3e146104ed578063e63ab1e914610500578063e8a3d4851461050857610292565b8063d5391393146104d2578063d547741f146104da57610292565b8063c0e72740116100bd578063c0e72740146104a4578063ca15c873146104ac578063d505accf146104bf57610292565b8063a457c2d71461047e578063a9059cbb1461049157610292565b80639010d07c1161012f578063938e3d7b11610114578063938e3d7b1461045b57806395d89b411461046e578063a217fddf1461047657610292565b80639010d07c1461042857806391d148541461044857610292565b80637ecebe00146103f25780638423df79146104055780638456cb591461040d5780638ba448c21461041557610292565b80633644e5151161020e57806342966c68116101c25780635c975abb116101a75780635c975abb146103c457806370a08231146103cc57806379cc6790146103df57610292565b806342966c681461039e578063572b6c05146103b157610292565b806339509351116101f357806339509351146103705780633f4ba83a1461038357806340c10f191461038b57610292565b80633644e5151461035557806336568abe1461035d57610292565b8063206b60f911610265578063248a9ca31161024a578063248a9ca3146103185780632f2ff15d1461032b578063313ce5671461034057610292565b8063206b60f9146102fd57806323b872dd1461030557610292565b806301ffc9a71461029757806306fdde03146102c0578063095ea7b3146102d557806318160ddd146102e8575b600080fd5b6102aa6102a5366004612102565b610510565b6040516102b79190612247565b60405180910390f35b6102c861053d565b6040516102b791906122f0565b6102aa6102e336600461202e565b6105d0565b6102f06105ee565b6040516102b79190612252565b6102f06105f4565b6102aa610313366004611f82565b610618565b6102f061032636600461208f565b6106b1565b61033e6103393660046120bf565b6106c6565b005b6103486106ed565b6040516102b79190612adc565b6102f06106f2565b61033e61036b3660046120bf565b610701565b6102aa61037e36600461202e565b610723565b61033e610777565b61033e61039936600461202e565b6107c9565b61033e6103ac36600461208f565b61087a565b6102aa6103bf366004611f36565b61088e565b6102aa6108a2565b6102f06103da366004611f36565b6108ab565b61033e6103ed36600461202e565b6108c6565b6102f0610400366004611f36565b610914565b6102aa610935565b61033e610945565b61033e610423366004612057565b610995565b61043b6104363660046120e1565b610ae4565b6040516102b79190612233565b6102aa6104563660046120bf565b610b03565b61033e61046936600461212a565b610b2c565b6102c8610c4e565b6102f0610c5d565b6102aa61048c36600461202e565b610c62565b6102aa61049f36600461202e565b610cdb565b6102c8610cef565b6102f06104ba36600461208f565b610d7d565b61033e6104cd366004611fbd565b610d94565b6102f0610e76565b61033e6104e83660046120bf565b610e9a565b6102f06104fb366004611f50565b610ea4565b6102f0610ecf565b6102c8610ef3565b60006001600160e01b03198216635a05180f60e01b1480610535575061053582610f53565b90505b919050565b60606005805461054c90612b7b565b80601f016020809104026020016040519081016040528092919081815260200182805461057890612b7b565b80156105c55780601f1061059a576101008083540402835291602001916105c5565b820191906000526020600020905b8154815290600101906020018083116105a857829003601f168201915b505050505090505b90565b60006105e46105dd610f78565b8484610f82565b5060015b92915050565b60045490565b7f8502233096d909befbda0999bb8ea2f3a6be3c138b9fbf003752a4c8bce86f6c81565b6000610625848484611036565b6001600160a01b038416600090815260036020526040812081610646610f78565b6001600160a01b03166001600160a01b03168152602001908152602001600020549050828110156106925760405162461bcd60e51b815260040161068990612724565b60405180910390fd5b6106a68561069e610f78565b858403610f82565b506001949350505050565b60009081526020819052604090206001015490565b6106d08282611160565b60008281526001602052604090206106e89082610f3a565b505050565b601290565b60006106fc611184565b905090565b61070b8282611240565b60008281526001602052604090206106e89082611282565b60006105e4610730610f78565b84846003600061073e610f78565b6001600160a01b03908116825260208083019390935260409182016000908120918b16815292529020546107729190612aea565b610f82565b6107a37f65d7a28e3265b37a6474929f336521b332c1681b933f6cb9f3376673440d862a610456610f78565b6107bf5760405162461bcd60e51b815260040161068990612482565b6107c7611297565b565b600a60009054906101000a90046001600160a01b03166001600160a01b0316639d2f83f06040518163ffffffff1660e01b815260040160206040518083038186803b15801561081757600080fd5b505afa15801561082b573d6000803e3d6000fd5b505050506040513d601f19601f8201168201806040525081019061084f9190612073565b1561086c5760405162461bcd60e51b81526004016106899061259e565b6108768282611305565b5050565b61088b610885610f78565b82611357565b50565b6009546001600160a01b0390811691161490565b60075460ff1690565b6001600160a01b031660009081526002602052604090205490565b60006108d4836104fb610f78565b9050818110156108f65760405162461bcd60e51b8152600401610689906127de565b61090a83610902610f78565b848403610f82565b6106e88383611357565b6001600160a01b038116600090815260086020526040812061053590611448565b600954600160a01b900460ff1681565b6109717f65d7a28e3265b37a6474929f336521b332c1681b933f6cb9f3376673440d862a610456610f78565b61098d5760405162461bcd60e51b8152600401610689906128ec565b6107c761144c565b600a546040805163a217fddf60e01b815290516001600160a01b03909216916391d1485491839163a217fddf91600480820192602092909190829003018186803b1580156109e257600080fd5b505afa1580156109f6573d6000803e3d6000fd5b505050506040513d601f19601f82011682018060405250810190610a1a91906120a7565b610a22610f78565b6040518363ffffffff1660e01b8152600401610a3f92919061225b565b60206040518083038186803b158015610a5757600080fd5b505afa158015610a6b573d6000803e3d6000fd5b505050506040513d601f19601f82011682018060405250810190610a8f9190612073565b610aab5760405162461bcd60e51b815260040161068990612949565b60098054911515600160a01b027fffffffffffffffffffffff00ffffffffffffffffffffffffffffffffffffffff909216919091179055565b6000828152600160205260408120610afc90836114a7565b9392505050565b6000918252602082815260408084206001600160a01b0393909316845291905290205460ff1690565b600a546040805163a217fddf60e01b815290516001600160a01b03909216916391d1485491839163a217fddf91600480820192602092909190829003018186803b158015610b7957600080fd5b505afa158015610b8d573d6000803e3d6000fd5b505050506040513d601f19601f82011682018060405250810190610bb191906120a7565b610bb9610f78565b6040518363ffffffff1660e01b8152600401610bd692919061225b565b60206040518083038186803b158015610bee57600080fd5b505afa158015610c02573d6000803e3d6000fd5b505050506040513d601f19601f82011682018060405250810190610c269190612073565b610c425760405162461bcd60e51b815260040161068990612949565b6106e8600b8383611e86565b60606006805461054c90612b7b565b600081565b60008060036000610c71610f78565b6001600160a01b0390811682526020808301939093526040918201600090812091881681529252902054905082811015610cbd5760405162461bcd60e51b8152600401610689906129a6565b610cd1610cc8610f78565b85858403610f82565b5060019392505050565b60006105e4610ce8610f78565b8484611036565b600b8054610cfc90612b7b565b80601f0160208091040260200160405190810160405280929190818152602001828054610d2890612b7b565b8015610d755780601f10610d4a57610100808354040283529160200191610d75565b820191906000526020600020905b815481529060010190602001808311610d5857829003601f168201915b505050505081565b6000818152600160205260408120610535906114b3565b83421115610db45760405162461bcd60e51b815260040161068990612521565b60007f0000000000000000000000000000000000000000000000000000000000000000888888610de38c6114be565b89604051602001610df996959493929190612272565b6040516020818303038152906040528051906020012090506000610e1c826114f0565b90506000610e2c82878787611503565b9050896001600160a01b0316816001600160a01b031614610e5f5760405162461bcd60e51b8152600401610689906126ed565b610e6a8a8a8a610f82565b50505050505050505050565b7f9f2df0fed2c77648de5860a4cc508cd0818c85b8b8a1ab4ceeef8d981c8956a681565b61070b828261152b565b6001600160a01b03918216600090815260036020908152604080832093909416825291909152205490565b7f65d7a28e3265b37a6474929f336521b332c1681b933f6cb9f3376673440d862a81565b6060600b805461054c90612b7b565b6000610f0d3361088e565b15610f21575060131936013560601c6105cd565b610f29610f4f565b90506105cd565b610876828261154a565b6000610afc836001600160a01b0384166115cf565b3390565b60006001600160e01b03198216637965db0b60e01b1480610535575061053582611619565b60006106fc610f02565b6001600160a01b038316610fa85760405162461bcd60e51b8152600401610689906128a8565b6001600160a01b038216610fce5760405162461bcd60e51b8152600401610689906124df565b6001600160a01b0380841660008181526003602090815260408083209487168084529490915290819020849055517f8c5be1e5ebec7d5bd14f71427d1e84f3dd0314c0f7b2291e5b200ac8c7c3b92590611029908590612252565b60405180910390a3505050565b6001600160a01b03831661105c5760405162461bcd60e51b815260040161068990612863565b6001600160a01b0382166110825760405162461bcd60e51b81526004016106899061238f565b61108d838383611632565b6001600160a01b038316600090815260026020526040902054818110156110c65760405162461bcd60e51b815260040161068990612558565b6001600160a01b038085166000908152600260205260408082208585039055918516815290812080548492906110fd908490612aea565b92505081905550826001600160a01b0316846001600160a01b03167fddf252ad1be2c89b69c2b068fc378daa952ba7f163c4a11628f55a4df523b3ef846040516111479190612252565b60405180910390a361115a8484846106e8565b50505050565b611169826106b1565b61117a81611175610f78565b6116ed565b6106e8838361154a565b60007f00000000000000000000000000000000000000000000000000000000000000004614156111d557507f00000000000000000000000000000000000000000000000000000000000000006105cd565b610f297f00000000000000000000000000000000000000000000000000000000000000007f00000000000000000000000000000000000000000000000000000000000000007f0000000000000000000000000000000000000000000000000000000000000000611751565b611248610f78565b6001600160a01b0316816001600160a01b0316146112785760405162461bcd60e51b8152600401610689906129eb565b610876828261178b565b6000610afc836001600160a01b03841661180e565b61129f6108a2565b6112bb5760405162461bcd60e51b8152600401610689906123d2565b6007805460ff191690557f5db9ee0a495bf2e6ff9c91a7834c1ba4fdd244a5e8aa4e537bd38aeae4b073aa6112ee610f78565b6040516112fb9190612233565b60405180910390a1565b6113317f9f2df0fed2c77648de5860a4cc508cd0818c85b8b8a1ab4ceeef8d981c8956a6610456610f78565b61134d5760405162461bcd60e51b815260040161068990612781565b610876828261192b565b6001600160a01b03821661137d5760405162461bcd60e51b815260040161068990612822565b61138982600083611632565b6001600160a01b038216600090815260026020526040902054818110156113c25760405162461bcd60e51b815260040161068990612409565b6001600160a01b03831660009081526002602052604081208383039055600480548492906113f1908490612b21565b90915550506040516000906001600160a01b038516907fddf252ad1be2c89b69c2b068fc378daa952ba7f163c4a11628f55a4df523b3ef90611434908690612252565b60405180910390a36106e8836000846106e8565b5490565b6114546108a2565b156114715760405162461bcd60e51b815260040161068990612617565b6007805460ff191660011790557f62e78cea01bee320cd4e420270b5ea74000d11b0c9f74754ebdbfc544b05a2586112ee610f78565b6000610afc83836119f3565b600061053582611448565b6001600160a01b03811660009081526008602052604081206114df81611448565b91506114ea81611a2b565b50919050565b60006105356114fd611184565b83611a34565b600080600061151487878787611a67565b9150915061152181611b47565b5095945050505050565b611534826106b1565b61154081611175610f78565b6106e8838361178b565b6115548282610b03565b610876576000828152602081815260408083206001600160a01b03851684529091529020805460ff1916600117905561158b610f78565b6001600160a01b0316816001600160a01b0316837f2f8788117e7eff1d82e926ec794901d17c78024a50270940304540a733656f0d60405160405180910390a45050565b60006115db8383611c74565b611611575081546001818101845560008481526020808220909301849055845484825282860190935260409020919091556105e8565b5060006105e8565b6001600160e01b031981166301ffc9a760e01b14919050565b61163d838383611c8c565b600954600160a01b900460ff16801561165e57506001600160a01b03831615155b801561167257506001600160a01b03821615155b156106e8576116a17f8502233096d909befbda0999bb8ea2f3a6be3c138b9fbf003752a4c8bce86f6c84610b03565b806116d157506116d17f8502233096d909befbda0999bb8ea2f3a6be3c138b9fbf003752a4c8bce86f6c83610b03565b6106e85760405162461bcd60e51b81526004016106899061264e565b6116f78282610b03565b6108765761170f816001600160a01b03166014611c97565b61171a836020611c97565b60405160200161172b9291906121b2565b60408051601f198184030181529082905262461bcd60e51b8252610689916004016122f0565b6000838383463060405160200161176c9594939291906122a6565b6040516020818303038152906040528051906020012090509392505050565b6117958282610b03565b15610876576000828152602081815260408083206001600160a01b03851684529091529020805460ff191690556117ca610f78565b6001600160a01b0316816001600160a01b0316837ff6391f5c32d9c69d2a47ea670b442974b53935d1edc7fd64eb21e047a839171b60405160405180910390a45050565b60008181526001830160205260408120548015611921576000611832600183612b21565b855490915060009061184690600190612b21565b90508181146118c757600086600001828154811061187457634e487b7160e01b600052603260045260246000fd5b90600052602060002001549050808760000184815481106118a557634e487b7160e01b600052603260045260246000fd5b6000918252602080832090910192909255918252600188019052604090208390555b85548690806118e657634e487b7160e01b600052603160045260246000fd5b6001900381819060005260206000200160009055905585600101600086815260200190815260200160002060009055600193505050506105e8565b60009150506105e8565b6001600160a01b0382166119515760405162461bcd60e51b815260040161068990612a48565b61195d60008383611632565b806004600082825461196f9190612aea565b90915550506001600160a01b0382166000908152600260205260408120805483929061199c908490612aea565b90915550506040516001600160a01b038316906000907fddf252ad1be2c89b69c2b068fc378daa952ba7f163c4a11628f55a4df523b3ef906119df908590612252565b60405180910390a3610876600083836106e8565b6000826000018281548110611a1857634e487b7160e01b600052603260045260246000fd5b9060005260206000200154905092915050565b80546001019055565b60008282604051602001611a49929190612197565b60405160208183030381529060405280519060200120905092915050565b6000807f7fffffffffffffffffffffffffffffff5d576e7357a4501ddfe92f46681b20a0831115611a9e5750600090506003611b3e565b8460ff16601b14158015611ab657508460ff16601c14155b15611ac75750600090506004611b3e565b600060018787878760405160008152602001604052604051611aec94939291906122d2565b6020604051602081039080840390855afa158015611b0e573d6000803e3d6000fd5b5050604051601f1901519150506001600160a01b038116611b3757600060019250925050611b3e565b9150600090505b94509492505050565b6000816004811115611b6957634e487b7160e01b600052602160045260246000fd5b1415611b745761088b565b6001816004811115611b9657634e487b7160e01b600052602160045260246000fd5b1415611bb45760405162461bcd60e51b815260040161068990612323565b6002816004811115611bd657634e487b7160e01b600052602160045260246000fd5b1415611bf45760405162461bcd60e51b81526004016106899061244b565b6003816004811115611c1657634e487b7160e01b600052602160045260246000fd5b1415611c345760405162461bcd60e51b8152600401610689906125d5565b6004816004811115611c5657634e487b7160e01b600052602160045260246000fd5b141561088b5760405162461bcd60e51b8152600401610689906126ab565b60009081526001919091016020526040902054151590565b6106e8838383611e56565b60606000611ca6836002612b02565b611cb1906002612aea565b67ffffffffffffffff811115611cd757634e487b7160e01b600052604160045260246000fd5b6040519080825280601f01601f191660200182016040528015611d01576020820181803683370190505b509050600360fc1b81600081518110611d2a57634e487b7160e01b600052603260045260246000fd5b60200101906001600160f81b031916908160001a905350600f60fb1b81600181518110611d6757634e487b7160e01b600052603260045260246000fd5b60200101906001600160f81b031916908160001a9053506000611d8b846002612b02565b611d96906001612aea565b90505b6001811115611e37577f303132333435363738396162636465660000000000000000000000000000000085600f1660108110611de557634e487b7160e01b600052603260045260246000fd5b1a60f81b828281518110611e0957634e487b7160e01b600052603260045260246000fd5b60200101906001600160f81b031916908160001a90535060049490941c93611e3081612b64565b9050611d99565b508315610afc5760405162461bcd60e51b81526004016106899061235a565b611e618383836106e8565b611e696108a2565b156106e85760405162461bcd60e51b815260040161068990612a7f565b828054611e9290612b7b565b90600052602060002090601f016020900481019282611eb45760008555611efa565b82601f10611ecd5782800160ff19823516178555611efa565b82800160010185558215611efa579182015b82811115611efa578235825591602001919060010190611edf565b50611f06929150611f0a565b5090565b5b80821115611f065760008155600101611f0b565b80356001600160a01b038116811461053857600080fd5b600060208284031215611f47578081fd5b610afc82611f1f565b60008060408385031215611f62578081fd5b611f6b83611f1f565b9150611f7960208401611f1f565b90509250929050565b600080600060608486031215611f96578081fd5b611f9f84611f1f565b9250611fad60208501611f1f565b9150604084013590509250925092565b600080600080600080600060e0888a031215611fd7578283fd5b611fe088611f1f565b9650611fee60208901611f1f565b95506040880135945060608801359350608088013560ff81168114612011578384fd5b9699959850939692959460a0840135945060c09093013592915050565b60008060408385031215612040578182fd5b61204983611f1f565b946020939093013593505050565b600060208284031215612068578081fd5b8135610afc81612bc6565b600060208284031215612084578081fd5b8151610afc81612bc6565b6000602082840312156120a0578081fd5b5035919050565b6000602082840312156120b8578081fd5b5051919050565b600080604083850312156120d1578182fd5b82359150611f7960208401611f1f565b600080604083850312156120f3578182fd5b50508035926020909101359150565b600060208284031215612113578081fd5b81356001600160e01b031981168114610afc578182fd5b6000806020838503121561213c578182fd5b823567ffffffffffffffff80821115612153578384fd5b818501915085601f830112612166578384fd5b813581811115612174578485fd5b866020828501011115612185578485fd5b60209290920196919550909350505050565b61190160f01b81526002810192909252602282015260420190565b60007f416363657373436f6e74726f6c3a206163636f756e7420000000000000000000825283516121ea816017850160208801612b38565b7f206973206d697373696e6720726f6c65200000000000000000000000000000006017918401918201528351612227816028840160208801612b38565b01602801949350505050565b6001600160a01b0391909116815260200190565b901515815260200190565b90815260200190565b9182526001600160a01b0316602082015260400190565b9586526001600160a01b0394851660208701529290931660408501526060840152608083019190915260a082015260c00190565b9485526020850193909352604084019190915260608301526001600160a01b0316608082015260a00190565b93845260ff9290921660208401526040830152606082015260800190565b600060208252825180602084015261230f816040850160208701612b38565b601f01601f19169190910160400192915050565b60208082526018908201527f45434453413a20696e76616c6964207369676e61747572650000000000000000604082015260600190565b6020808252818101527f537472696e67733a20686578206c656e67746820696e73756666696369656e74604082015260600190565b60208082526023908201527f45524332303a207472616e7366657220746f20746865207a65726f206164647260408201526265737360e81b606082015260800190565b60208082526014908201527f5061757361626c653a206e6f7420706175736564000000000000000000000000604082015260600190565b60208082526022908201527f45524332303a206275726e20616d6f756e7420657863656564732062616c616e604082015261636560f01b606082015260800190565b6020808252601f908201527f45434453413a20696e76616c6964207369676e6174757265206c656e67746800604082015260600190565b60208082526039908201527f45524332305072657365744d696e7465725061757365723a206d75737420686160408201527f76652070617573657220726f6c6520746f20756e706175736500000000000000606082015260800190565b60208082526022908201527f45524332303a20617070726f766520746f20746865207a65726f206164647265604082015261737360f01b606082015260800190565b6020808252601d908201527f45524332305065726d69743a206578706972656420646561646c696e65000000604082015260600190565b60208082526026908201527f45524332303a207472616e7366657220616d6f756e7420657863656564732062604082015265616c616e636560d01b606082015260800190565b6020808252601d908201527f436f696e3a205468652070726f746f636f6c206973207061757365642e000000604082015260600190565b60208082526022908201527f45434453413a20696e76616c6964207369676e6174757265202773272076616c604082015261756560f01b606082015260800190565b60208082526010908201527f5061757361626c653a2070617573656400000000000000000000000000000000604082015260600190565b60208082526036908201527f4e46543a205472616e736665727320617265207265737472696374656420746f60408201527f205452414e534645525f524f4c4520686f6c6465727300000000000000000000606082015260800190565b60208082526022908201527f45434453413a20696e76616c6964207369676e6174757265202776272076616c604082015261756560f01b606082015260800190565b6020808252601e908201527f45524332305065726d69743a20696e76616c6964207369676e61747572650000604082015260600190565b60208082526028908201527f45524332303a207472616e7366657220616d6f756e742065786365656473206160408201527f6c6c6f77616e6365000000000000000000000000000000000000000000000000606082015260800190565b60208082526036908201527f45524332305072657365744d696e7465725061757365723a206d75737420686160408201527f7665206d696e74657220726f6c6520746f206d696e7400000000000000000000606082015260800190565b60208082526024908201527f45524332303a206275726e20616d6f756e74206578636565647320616c6c6f77604082015263616e636560e01b606082015260800190565b60208082526021908201527f45524332303a206275726e2066726f6d20746865207a65726f206164647265736040820152607360f81b606082015260800190565b60208082526025908201527f45524332303a207472616e736665722066726f6d20746865207a65726f206164604082015264647265737360d81b606082015260800190565b60208082526024908201527f45524332303a20617070726f76652066726f6d20746865207a65726f206164646040820152637265737360e01b606082015260800190565b60208082526037908201527f45524332305072657365744d696e7465725061757365723a206d75737420686160408201527f76652070617573657220726f6c6520746f207061757365000000000000000000606082015260800190565b60208082526033908201527f436f696e3a206f6e6c7920612070726f746f636f6c2061646d696e2063616e2060408201527f63616c6c20746869732066756e6374696f6e2e00000000000000000000000000606082015260800190565b60208082526025908201527f45524332303a2064656372656173656420616c6c6f77616e63652062656c6f77604082015264207a65726f60d81b606082015260800190565b6020808252602f908201527f416363657373436f6e74726f6c3a2063616e206f6e6c792072656e6f756e636560408201527f20726f6c657320666f722073656c660000000000000000000000000000000000606082015260800190565b6020808252601f908201527f45524332303a206d696e7420746f20746865207a65726f206164647265737300604082015260600190565b6020808252602a908201527f45524332305061757361626c653a20746f6b656e207472616e7366657220776860408201527f696c652070617573656400000000000000000000000000000000000000000000606082015260800190565b60ff91909116815260200190565b60008219821115612afd57612afd612bb0565b500190565b6000816000190483118215151615612b1c57612b1c612bb0565b500290565b600082821015612b3357612b33612bb0565b500390565b60005b83811015612b53578181015183820152602001612b3b565b8381111561115a5750506000910152565b600081612b7357612b73612bb0565b506000190190565b600281046001821680612b8f57607f821691505b602082108114156114ea57634e487b7160e01b600052602260045260246000fd5b634e487b7160e01b600052601160045260246000fd5b801515811461088b57600080fdfea164736f6c6343000800000a",
  "linkReferences": {},
  "deployedLinkReferences": {}
}