{
  "_format": "hh-sol-artifact-1",
  "contractName": "Coin",
  "sourceName": "contracts/Coin.sol",
  "abi": [
    {
      "inputs": [
        {
          "internalType": "address payable",
          "name": "_controlCenter",
          "type": "address"
        },
        {
          "internalType": "string",
          "name": "_name",
          "type": "string"
        },
        {
          "internalType": "string",
          "name": "_symbol",
          "type": "string"
        },
        {
          "internalType": "address",
          "name": "_trustedForwarder",
          "type": "address"
        },
        {
          "internalType": "string",
          "name": "_uri",
          "type": "string"
        }
      ],
      "stateMutability": "nonpayable",
      "type": "constructor"
    },
    {
      "anonymous": false,
      "inputs": [
        {
          "indexed": true,
          "internalType": "address",
          "name": "owner",
          "type": "address"
        },
        {
          "indexed": true,
          "internalType": "address",
          "name": "spender",
          "type": "address"
        },
        {
          "indexed": false,
          "internalType": "uint256",
          "name": "value",
          "type": "uint256"
        }
      ],
      "name": "Approval",
      "type": "event"
    },
    {
      "anonymous": false,
      "inputs": [
        {
          "indexed": false,
          "internalType": "address",
          "name": "account",
          "type": "address"
        }
      ],
      "name": "Paused",
      "type": "event"
    },
    {
      "anonymous": false,
      "inputs": [
        {
          "indexed": true,
          "internalType": "bytes32",
          "name": "role",
          "type": "bytes32"
        },
        {
          "indexed": true,
          "internalType": "bytes32",
          "name": "previousAdminRole",
          "type": "bytes32"
        },
        {
          "indexed": true,
          "internalType": "bytes32",
          "name": "newAdminRole",
          "type": "bytes32"
        }
      ],
      "name": "RoleAdminChanged",
      "type": "event"
    },
    {
      "anonymous": false,
      "inputs": [
        {
          "indexed": true,
          "internalType": "bytes32",
          "name": "role",
          "type": "bytes32"
        },
        {
          "indexed": true,
          "internalType": "address",
          "name": "account",
          "type": "address"
        },
        {
          "indexed": true,
          "internalType": "address",
          "name": "sender",
          "type": "address"
        }
      ],
      "name": "RoleGranted",
      "type": "event"
    },
    {
      "anonymous": false,
      "inputs": [
        {
          "indexed": true,
          "internalType": "bytes32",
          "name": "role",
          "type": "bytes32"
        },
        {
          "indexed": true,
          "internalType": "address",
          "name": "account",
          "type": "address"
        },
        {
          "indexed": true,
          "internalType": "address",
          "name": "sender",
          "type": "address"
        }
      ],
      "name": "RoleRevoked",
      "type": "event"
    },
    {
      "anonymous": false,
      "inputs": [
        {
          "indexed": true,
          "internalType": "address",
          "name": "from",
          "type": "address"
        },
        {
          "indexed": true,
          "internalType": "address",
          "name": "to",
          "type": "address"
        },
        {
          "indexed": false,
          "internalType": "uint256",
          "name": "value",
          "type": "uint256"
        }
      ],
      "name": "Transfer",
      "type": "event"
    },
    {
      "anonymous": false,
      "inputs": [
        {
          "indexed": false,
          "internalType": "address",
          "name": "account",
          "type": "address"
        }
      ],
      "name": "Unpaused",
      "type": "event"
    },
    {
      "inputs": [],
      "name": "DEFAULT_ADMIN_ROLE",
      "outputs": [
        {
          "internalType": "bytes32",
          "name": "",
          "type": "bytes32"
        }
      ],
      "stateMutability": "view",
      "type": "function"
    },
    {
      "inputs": [],
      "name": "MINTER_ROLE",
      "outputs": [
        {
          "internalType": "bytes32",
          "name": "",
          "type": "bytes32"
        }
      ],
      "stateMutability": "view",
      "type": "function"
    },
    {
      "inputs": [],
      "name": "PAUSER_ROLE",
      "outputs": [
        {
          "internalType": "bytes32",
          "name": "",
          "type": "bytes32"
        }
      ],
      "stateMutability": "view",
      "type": "function"
    },
    {
      "inputs": [],
      "name": "_contractURI",
      "outputs": [
        {
          "internalType": "string",
          "name": "",
          "type": "string"
        }
      ],
      "stateMutability": "view",
      "type": "function"
    },
    {
      "inputs": [
        {
          "internalType": "address",
          "name": "owner",
          "type": "address"
        },
        {
          "internalType": "address",
          "name": "spender",
          "type": "address"
        }
      ],
      "name": "allowance",
      "outputs": [
        {
          "internalType": "uint256",
          "name": "",
          "type": "uint256"
        }
      ],
      "stateMutability": "view",
      "type": "function"
    },
    {
      "inputs": [
        {
          "internalType": "address",
          "name": "spender",
          "type": "address"
        },
        {
          "internalType": "uint256",
          "name": "amount",
          "type": "uint256"
        }
      ],
      "name": "approve",
      "outputs": [
        {
          "internalType": "bool",
          "name": "",
          "type": "bool"
        }
      ],
      "stateMutability": "nonpayable",
      "type": "function"
    },
    {
      "inputs": [
        {
          "internalType": "address",
          "name": "account",
          "type": "address"
        }
      ],
      "name": "balanceOf",
      "outputs": [
        {
          "internalType": "uint256",
          "name": "",
          "type": "uint256"
        }
      ],
      "stateMutability": "view",
      "type": "function"
    },
    {
      "inputs": [
        {
          "internalType": "uint256",
          "name": "amount",
          "type": "uint256"
        }
      ],
      "name": "burn",
      "outputs": [],
      "stateMutability": "nonpayable",
      "type": "function"
    },
    {
      "inputs": [
        {
          "internalType": "address",
          "name": "account",
          "type": "address"
        },
        {
          "internalType": "uint256",
          "name": "amount",
          "type": "uint256"
        }
      ],
      "name": "burnFrom",
      "outputs": [],
      "stateMutability": "nonpayable",
      "type": "function"
    },
    {
      "inputs": [],
      "name": "contractURI",
      "outputs": [
        {
          "internalType": "string",
          "name": "",
          "type": "string"
        }
      ],
      "stateMutability": "view",
      "type": "function"
    },
    {
      "inputs": [],
      "name": "decimals",
      "outputs": [
        {
          "internalType": "uint8",
          "name": "",
          "type": "uint8"
        }
      ],
      "stateMutability": "view",
      "type": "function"
    },
    {
      "inputs": [
        {
          "internalType": "address",
          "name": "spender",
          "type": "address"
        },
        {
          "internalType": "uint256",
          "name": "subtractedValue",
          "type": "uint256"
        }
      ],
      "name": "decreaseAllowance",
      "outputs": [
        {
          "internalType": "bool",
          "name": "",
          "type": "bool"
        }
      ],
      "stateMutability": "nonpayable",
      "type": "function"
    },
    {
      "inputs": [
        {
          "internalType": "bytes32",
          "name": "role",
          "type": "bytes32"
        }
      ],
      "name": "getRoleAdmin",
      "outputs": [
        {
          "internalType": "bytes32",
          "name": "",
          "type": "bytes32"
        }
      ],
      "stateMutability": "view",
      "type": "function"
    },
    {
      "inputs": [
        {
          "internalType": "bytes32",
          "name": "role",
          "type": "bytes32"
        },
        {
          "internalType": "uint256",
          "name": "index",
          "type": "uint256"
        }
      ],
      "name": "getRoleMember",
      "outputs": [
        {
          "internalType": "address",
          "name": "",
          "type": "address"
        }
      ],
      "stateMutability": "view",
      "type": "function"
    },
    {
      "inputs": [
        {
          "internalType": "bytes32",
          "name": "role",
          "type": "bytes32"
        }
      ],
      "name": "getRoleMemberCount",
      "outputs": [
        {
          "internalType": "uint256",
          "name": "",
          "type": "uint256"
        }
      ],
      "stateMutability": "view",
      "type": "function"
    },
    {
      "inputs": [
        {
          "internalType": "bytes32",
          "name": "role",
          "type": "bytes32"
        },
        {
          "internalType": "address",
          "name": "account",
          "type": "address"
        }
      ],
      "name": "grantRole",
      "outputs": [],
      "stateMutability": "nonpayable",
      "type": "function"
    },
    {
      "inputs": [
        {
          "internalType": "bytes32",
          "name": "role",
          "type": "bytes32"
        },
        {
          "internalType": "address",
          "name": "account",
          "type": "address"
        }
      ],
      "name": "hasRole",
      "outputs": [
        {
          "internalType": "bool",
          "name": "",
          "type": "bool"
        }
      ],
      "stateMutability": "view",
      "type": "function"
    },
    {
      "inputs": [
        {
          "internalType": "address",
          "name": "spender",
          "type": "address"
        },
        {
          "internalType": "uint256",
          "name": "addedValue",
          "type": "uint256"
        }
      ],
      "name": "increaseAllowance",
      "outputs": [
        {
          "internalType": "bool",
          "name": "",
          "type": "bool"
        }
      ],
      "stateMutability": "nonpayable",
      "type": "function"
    },
    {
      "inputs": [
        {
          "internalType": "address",
          "name": "forwarder",
          "type": "address"
        }
      ],
      "name": "isTrustedForwarder",
      "outputs": [
        {
          "internalType": "bool",
          "name": "",
          "type": "bool"
        }
      ],
      "stateMutability": "view",
      "type": "function"
    },
    {
      "inputs": [
        {
          "internalType": "address",
          "name": "to",
          "type": "address"
        },
        {
          "internalType": "uint256",
          "name": "amount",
          "type": "uint256"
        }
      ],
      "name": "mint",
      "outputs": [],
      "stateMutability": "nonpayable",
      "type": "function"
    },
    {
      "inputs": [],
      "name": "name",
      "outputs": [
        {
          "internalType": "string",
          "name": "",
          "type": "string"
        }
      ],
      "stateMutability": "view",
      "type": "function"
    },
    {
      "inputs": [],
      "name": "pause",
      "outputs": [],
      "stateMutability": "nonpayable",
      "type": "function"
    },
    {
      "inputs": [],
      "name": "paused",
      "outputs": [
        {
          "internalType": "bool",
          "name": "",
          "type": "bool"
        }
      ],
      "stateMutability": "view",
      "type": "function"
    },
    {
      "inputs": [
        {
          "internalType": "bytes32",
          "name": "role",
          "type": "bytes32"
        },
        {
          "internalType": "address",
          "name": "account",
          "type": "address"
        }
      ],
      "name": "renounceRole",
      "outputs": [],
      "stateMutability": "nonpayable",
      "type": "function"
    },
    {
      "inputs": [
        {
          "internalType": "bytes32",
          "name": "role",
          "type": "bytes32"
        },
        {
          "internalType": "address",
          "name": "account",
          "type": "address"
        }
      ],
      "name": "revokeRole",
      "outputs": [],
      "stateMutability": "nonpayable",
      "type": "function"
    },
    {
      "inputs": [
        {
          "internalType": "string",
          "name": "_URI",
          "type": "string"
        }
      ],
      "name": "setContractURI",
      "outputs": [],
      "stateMutability": "nonpayable",
      "type": "function"
    },
    {
      "inputs": [
        {
          "internalType": "bytes4",
          "name": "interfaceId",
          "type": "bytes4"
        }
      ],
      "name": "supportsInterface",
      "outputs": [
        {
          "internalType": "bool",
          "name": "",
          "type": "bool"
        }
      ],
      "stateMutability": "view",
      "type": "function"
    },
    {
      "inputs": [],
      "name": "symbol",
      "outputs": [
        {
          "internalType": "string",
          "name": "",
          "type": "string"
        }
      ],
      "stateMutability": "view",
      "type": "function"
    },
    {
      "inputs": [],
      "name": "totalSupply",
      "outputs": [
        {
          "internalType": "uint256",
          "name": "",
          "type": "uint256"
        }
      ],
      "stateMutability": "view",
      "type": "function"
    },
    {
      "inputs": [
        {
          "internalType": "address",
          "name": "recipient",
          "type": "address"
        },
        {
          "internalType": "uint256",
          "name": "amount",
          "type": "uint256"
        }
      ],
      "name": "transfer",
      "outputs": [
        {
          "internalType": "bool",
          "name": "",
          "type": "bool"
        }
      ],
      "stateMutability": "nonpayable",
      "type": "function"
    },
    {
      "inputs": [
        {
          "internalType": "address",
          "name": "sender",
          "type": "address"
        },
        {
          "internalType": "address",
          "name": "recipient",
          "type": "address"
        },
        {
          "internalType": "uint256",
          "name": "amount",
          "type": "uint256"
        }
      ],
      "name": "transferFrom",
      "outputs": [
        {
          "internalType": "bool",
          "name": "",
          "type": "bool"
        }
      ],
      "stateMutability": "nonpayable",
      "type": "function"
    },
    {
      "inputs": [],
      "name": "unpause",
      "outputs": [],
      "stateMutability": "nonpayable",
      "type": "function"
    }
  ],
  "bytecode": "0x60806040523480156200001157600080fd5b506040516200272c3803806200272c83398101604081905262000034916200049b565b81848481818160059080519060200190620000519291906200034a565b508051620000679060069060208401906200034a565b50506007805460ff19169055506200008a60006200008462000143565b62000160565b620000b97f9f2df0fed2c77648de5860a4cc508cd0818c85b8b8a1ab4ceeef8d981c8956a66200008462000143565b620000e87f65d7a28e3265b37a6474929f336521b332c1681b933f6cb9f3376673440d862a6200008462000143565b505060078054610100600160a81b0319166101006001600160a01b0393841602179055600880546001600160a01b0319169187169190911790558051620001379060099060208401906200034a565b505050505050620005c0565b60006200015a620001a360201b62000b7f1760201c565b90505b90565b620001778282620001e360201b62000bad1760201c565b60008281526001602090815260409091206200019e91839062000bb7620001f3821b17901c565b505050565b6000620001b03362000213565b15620001c6575060131936013560601c6200015d565b620001db6200022c60201b62000bcc1760201c565b90506200015d565b620001ef828262000230565b5050565b60006200020a836001600160a01b038416620002ba565b90505b92915050565b60075461010090046001600160a01b0390811691161490565b3390565b6200023c828262000309565b620001ef576000828152602081815260408083206001600160a01b03851684529091529020805460ff191660011790556200027662000143565b6001600160a01b0316816001600160a01b0316837f2f8788117e7eff1d82e926ec794901d17c78024a50270940304540a733656f0d60405160405180910390a45050565b6000620002c8838362000332565b62000300575081546001818101845560008481526020808220909301849055845484825282860190935260409020919091556200020d565b5060006200020d565b6000918252602082815260408084206001600160a01b0393909316845291905290205460ff1690565b60009081526001919091016020526040902054151590565b828054620003589062000554565b90600052602060002090601f0160209004810192826200037c5760008555620003c7565b82601f106200039757805160ff1916838001178555620003c7565b82800160010185558215620003c7579182015b82811115620003c7578251825591602001919060010190620003aa565b50620003d5929150620003d9565b5090565b5b80821115620003d55760008155600101620003da565b600082601f83011262000401578081fd5b81516001600160401b03808211156200041e576200041e62000591565b6040516020601f8401601f191682018101838111838210171562000446576200044662000591565b60405283825285840181018710156200045d578485fd5b8492505b8383101562000480578583018101518284018201529182019162000461565b838311156200049157848185840101525b5095945050505050565b600080600080600060a08688031215620004b3578081fd5b8551620004c081620005a7565b60208701519095506001600160401b0380821115620004dd578283fd5b620004eb89838a01620003f0565b9550604088015191508082111562000501578283fd5b6200050f89838a01620003f0565b9450606088015191506200052382620005a7565b60808801519193508082111562000538578283fd5b506200054788828901620003f0565b9150509295509295909350565b6002810460018216806200056957607f821691505b602082108114156200058b57634e487b7160e01b600052602260045260246000fd5b50919050565b634e487b7160e01b600052604160045260246000fd5b6001600160a01b0381168114620005bd57600080fd5b50565b61215c80620005d06000396000f3fe608060405234801561001057600080fd5b50600436106101f05760003560e01c806379cc67901161010f578063a9059cbb116100a2578063d547741f11610071578063d547741f146103e7578063dd62ed3e146103fa578063e63ab1e91461040d578063e8a3d48514610415576101f0565b8063a9059cbb146103b1578063c0e72740146103c4578063ca15c873146103cc578063d5391393146103df576101f0565b8063938e3d7b116100de578063938e3d7b1461037b57806395d89b411461038e578063a217fddf14610396578063a457c2d71461039e576101f0565b806379cc67901461032d5780638456cb59146103405780639010d07c1461034857806391d1485414610368576101f0565b806336568abe1161018757806342966c681161015657806342966c68146102ec578063572b6c05146102ff5780635c975abb1461031257806370a082311461031a576101f0565b806336568abe146102ab57806339509351146102be5780633f4ba83a146102d157806340c10f19146102d9576101f0565b806323b872dd116101c357806323b872dd1461025b578063248a9ca31461026e5780632f2ff15d14610281578063313ce56714610296576101f0565b806301ffc9a7146101f557806306fdde031461021e578063095ea7b31461023357806318160ddd14610246575b600080fd5b610208610203366004611894565b61041d565b60405161021591906119be565b60405180910390f35b61022661044a565b60405161021591906119e9565b6102086102413660046117d8565b6104dd565b61024e6104fb565b60405161021591906119c9565b61020861026936600461179d565b610501565b61024e61027c366004611821565b61059a565b61029461028f366004611851565b6105af565b005b61029e6105d6565b604051610215919061205f565b6102946102b9366004611851565b6105db565b6102086102cc3660046117d8565b6105fd565b610294610651565b6102946102e73660046117d8565b6106a3565b6102946102fa366004611821565b610754565b61020861030d366004611751565b610768565b610208610781565b61024e610328366004611751565b61078a565b61029461033b3660046117d8565b6107a5565b6102946107f3565b61035b610356366004611873565b610843565b60405161021591906119aa565b610208610376366004611851565b610862565b6102946103893660046118bc565b61088b565b6102266109ad565b61024e6109bc565b6102086103ac3660046117d8565b6109c1565b6102086103bf3660046117d8565b610a3a565b610226610a4e565b61024e6103da366004611821565b610adc565b61024e610af3565b6102946103f5366004611851565b610b17565b61024e61040836600461176b565b610b21565b61024e610b4c565b610226610b70565b60006001600160e01b03198216635a05180f60e01b1480610442575061044282610bd0565b90505b919050565b606060058054610459906120fe565b80601f0160208091040260200160405190810160405280929190818152602001828054610485906120fe565b80156104d25780601f106104a7576101008083540402835291602001916104d2565b820191906000526020600020905b8154815290600101906020018083116104b557829003601f168201915b505050505090505b90565b60006104f16104ea610bf5565b8484610c04565b5060015b92915050565b60045490565b600061050e848484610cb8565b6001600160a01b03841660009081526003602052604081208161052f610bf5565b6001600160a01b03166001600160a01b031681526020019081526020016000205490508281101561057b5760405162461bcd60e51b815260040161057290611c77565b60405180910390fd5b61058f85610587610bf5565b858403610c04565b506001949350505050565b60009081526020819052604090206001015490565b6105b98282610de2565b60008281526001602052604090206105d19082610bb7565b505050565b601290565b6105e58282610e06565b60008281526001602052604090206105d19082610e48565b60006104f161060a610bf5565b848460036000610618610bf5565b6001600160a01b03908116825260208083019390935260409182016000908120918b168152925290205461064c919061206d565b610c04565b61067d7f65d7a28e3265b37a6474929f336521b332c1681b933f6cb9f3376673440d862a610376610bf5565b6106995760405162461bcd60e51b815260040161057290611b0d565b6106a1610e5d565b565b600860009054906101000a90046001600160a01b03166001600160a01b0316639d2f83f06040518163ffffffff1660e01b815260040160206040518083038186803b1580156106f157600080fd5b505afa158015610705573d6000803e3d6000fd5b505050506040513d601f19601f820116820180604052508101906107299190611801565b156107465760405162461bcd60e51b815260040161057290611c09565b6107508282610ecb565b5050565b61076561075f610bf5565b82610f1d565b50565b60075461010090046001600160a01b0390811691161490565b60075460ff1690565b6001600160a01b031660009081526002602052604090205490565b60006107b383610408610bf5565b9050818110156107d55760405162461bcd60e51b815260040161057290611d31565b6107e9836107e1610bf5565b848403610c04565b6105d18383610f1d565b61081f7f65d7a28e3265b37a6474929f336521b332c1681b933f6cb9f3376673440d862a610376610bf5565b61083b5760405162461bcd60e51b815260040161057290611e57565b6106a161100e565b600082815260016020526040812061085b9083611069565b9392505050565b6000918252602082815260408084206001600160a01b0393909316845291905290205460ff1690565b60085460408051634a32c6bf60e11b815290516001600160a01b03909216916391d148549183916394658d7e91600480820192602092909190829003018186803b1580156108d857600080fd5b505afa1580156108ec573d6000803e3d6000fd5b505050506040513d601f19601f820116820180604052508101906109109190611839565b610918610bf5565b6040518363ffffffff1660e01b81526004016109359291906119d2565b60206040518083038186803b15801561094d57600080fd5b505afa158015610961573d6000803e3d6000fd5b505050506040513d601f19601f820116820180604052508101906109859190611801565b6109a15760405162461bcd60e51b815260040161057290611eb4565b6105d1600983836116a1565b606060068054610459906120fe565b600081565b600080600360006109d0610bf5565b6001600160a01b0390811682526020808301939093526040918201600090812091881681529252902054905082811015610a1c5760405162461bcd60e51b815260040161057290611f11565b610a30610a27610bf5565b85858403610c04565b5060019392505050565b60006104f1610a47610bf5565b8484610cb8565b60098054610a5b906120fe565b80601f0160208091040260200160405190810160405280929190818152602001828054610a87906120fe565b8015610ad45780601f10610aa957610100808354040283529160200191610ad4565b820191906000526020600020905b815481529060010190602001808311610ab757829003601f168201915b505050505081565b600081815260016020526040812061044290611075565b7f9f2df0fed2c77648de5860a4cc508cd0818c85b8b8a1ab4ceeef8d981c8956a681565b6105e58282611080565b6001600160a01b03918216600090815260036020908152604080832093909416825291909152205490565b7f65d7a28e3265b37a6474929f336521b332c1681b933f6cb9f3376673440d862a81565b606060098054610459906120fe565b6000610b8a33610768565b15610b9e575060131936013560601c6104da565b610ba6610bcc565b90506104da565b610750828261109f565b600061085b836001600160a01b038416611124565b3390565b60006001600160e01b03198216637965db0b60e01b148061044257506104428261116e565b6000610bff610b7f565b905090565b6001600160a01b038316610c2a5760405162461bcd60e51b815260040161057290611e13565b6001600160a01b038216610c505760405162461bcd60e51b815260040161057290611b6a565b6001600160a01b0380841660008181526003602090815260408083209487168084529490915290819020849055517f8c5be1e5ebec7d5bd14f71427d1e84f3dd0314c0f7b2291e5b200ac8c7c3b92590610cab9085906119c9565b60405180910390a3505050565b6001600160a01b038316610cde5760405162461bcd60e51b815260040161057290611db6565b6001600160a01b038216610d045760405162461bcd60e51b815260040161057290611a51565b610d0f838383611187565b6001600160a01b03831660009081526002602052604090205481811015610d485760405162461bcd60e51b815260040161057290611bac565b6001600160a01b03808516600090815260026020526040808220858503905591851681529081208054849290610d7f90849061206d565b92505081905550826001600160a01b0316846001600160a01b03167fddf252ad1be2c89b69c2b068fc378daa952ba7f163c4a11628f55a4df523b3ef84604051610dc991906119c9565b60405180910390a3610ddc8484846105d1565b50505050565b610deb8261059a565b610dfc81610df7610bf5565b611192565b6105d1838361109f565b610e0e610bf5565b6001600160a01b0316816001600160a01b031614610e3e5760405162461bcd60e51b815260040161057290611f6e565b61075082826111f6565b600061085b836001600160a01b038416611279565b610e65610781565b610e815760405162461bcd60e51b815260040161057290611a94565b6007805460ff191690557f5db9ee0a495bf2e6ff9c91a7834c1ba4fdd244a5e8aa4e537bd38aeae4b073aa610eb4610bf5565b604051610ec191906119aa565b60405180910390a1565b610ef77f9f2df0fed2c77648de5860a4cc508cd0818c85b8b8a1ab4ceeef8d981c8956a6610376610bf5565b610f135760405162461bcd60e51b815260040161057290611cd4565b6107508282611396565b6001600160a01b038216610f435760405162461bcd60e51b815260040161057290611d75565b610f4f82600083611187565b6001600160a01b03821660009081526002602052604090205481811015610f885760405162461bcd60e51b815260040161057290611acb565b6001600160a01b0383166000908152600260205260408120838303905560048054849290610fb79084906120a4565b90915550506040516000906001600160a01b038516907fddf252ad1be2c89b69c2b068fc378daa952ba7f163c4a11628f55a4df523b3ef90610ffa9086906119c9565b60405180910390a36105d1836000846105d1565b611016610781565b156110335760405162461bcd60e51b815260040161057290611c40565b6007805460ff191660011790557f62e78cea01bee320cd4e420270b5ea74000d11b0c9f74754ebdbfc544b05a258610eb4610bf5565b600061085b838361145e565b600061044282611496565b6110898261059a565b61109581610df7610bf5565b6105d183836111f6565b6110a98282610862565b610750576000828152602081815260408083206001600160a01b03851684529091529020805460ff191660011790556110e0610bf5565b6001600160a01b0316816001600160a01b0316837f2f8788117e7eff1d82e926ec794901d17c78024a50270940304540a733656f0d60405160405180910390a45050565b6000611130838361149a565b611166575081546001818101845560008481526020808220909301849055845484825282860190935260409020919091556104f5565b5060006104f5565b6001600160e01b031981166301ffc9a760e01b14919050565b6105d18383836114b2565b61119c8282610862565b610750576111b4816001600160a01b031660146114e2565b6111bf8360206114e2565b6040516020016111d0929190611929565b60408051601f198184030181529082905262461bcd60e51b8252610572916004016119e9565b6112008282610862565b15610750576000828152602081815260408083206001600160a01b03851684529091529020805460ff19169055611235610bf5565b6001600160a01b0316816001600160a01b0316837ff6391f5c32d9c69d2a47ea670b442974b53935d1edc7fd64eb21e047a839171b60405160405180910390a45050565b6000818152600183016020526040812054801561138c57600061129d6001836120a4565b85549091506000906112b1906001906120a4565b90508181146113325760008660000182815481106112df57634e487b7160e01b600052603260045260246000fd5b906000526020600020015490508087600001848154811061131057634e487b7160e01b600052603260045260246000fd5b6000918252602080832090910192909255918252600188019052604090208390555b855486908061135157634e487b7160e01b600052603160045260246000fd5b6001900381819060005260206000200160009055905585600101600086815260200190815260200160002060009055600193505050506104f5565b60009150506104f5565b6001600160a01b0382166113bc5760405162461bcd60e51b815260040161057290611fcb565b6113c860008383611187565b80600460008282546113da919061206d565b90915550506001600160a01b0382166000908152600260205260408120805483929061140790849061206d565b90915550506040516001600160a01b038316906000907fddf252ad1be2c89b69c2b068fc378daa952ba7f163c4a11628f55a4df523b3ef9061144a9085906119c9565b60405180910390a3610750600083836105d1565b600082600001828154811061148357634e487b7160e01b600052603260045260246000fd5b9060005260206000200154905092915050565b5490565b60009081526001919091016020526040902054151590565b6114bd8383836105d1565b6114c5610781565b156105d15760405162461bcd60e51b815260040161057290612002565b606060006114f1836002612085565b6114fc90600261206d565b67ffffffffffffffff81111561152257634e487b7160e01b600052604160045260246000fd5b6040519080825280601f01601f19166020018201604052801561154c576020820181803683370190505b509050600360fc1b8160008151811061157557634e487b7160e01b600052603260045260246000fd5b60200101906001600160f81b031916908160001a905350600f60fb1b816001815181106115b257634e487b7160e01b600052603260045260246000fd5b60200101906001600160f81b031916908160001a90535060006115d6846002612085565b6115e190600161206d565b90505b6001811115611682577f303132333435363738396162636465660000000000000000000000000000000085600f166010811061163057634e487b7160e01b600052603260045260246000fd5b1a60f81b82828151811061165457634e487b7160e01b600052603260045260246000fd5b60200101906001600160f81b031916908160001a90535060049490941c9361167b816120e7565b90506115e4565b50831561085b5760405162461bcd60e51b815260040161057290611a1c565b8280546116ad906120fe565b90600052602060002090601f0160209004810192826116cf5760008555611715565b82601f106116e85782800160ff19823516178555611715565b82800160010185558215611715579182015b828111156117155782358255916020019190600101906116fa565b50611721929150611725565b5090565b5b808211156117215760008155600101611726565b80356001600160a01b038116811461044557600080fd5b600060208284031215611762578081fd5b61085b8261173a565b6000806040838503121561177d578081fd5b6117868361173a565b91506117946020840161173a565b90509250929050565b6000806000606084860312156117b1578081fd5b6117ba8461173a565b92506117c86020850161173a565b9150604084013590509250925092565b600080604083850312156117ea578182fd5b6117f38361173a565b946020939093013593505050565b600060208284031215611812578081fd5b8151801515811461085b578182fd5b600060208284031215611832578081fd5b5035919050565b60006020828403121561184a578081fd5b5051919050565b60008060408385031215611863578182fd5b823591506117946020840161173a565b60008060408385031215611885578182fd5b50508035926020909101359150565b6000602082840312156118a5578081fd5b81356001600160e01b03198116811461085b578182fd5b600080602083850312156118ce578182fd5b823567ffffffffffffffff808211156118e5578384fd5b818501915085601f8301126118f8578384fd5b813581811115611906578485fd5b866020828501011115611917578485fd5b60209290920196919550909350505050565b60007f416363657373436f6e74726f6c3a206163636f756e7420000000000000000000825283516119618160178501602088016120bb565b7f206973206d697373696e6720726f6c6520000000000000000000000000000000601791840191820152835161199e8160288401602088016120bb565b01602801949350505050565b6001600160a01b0391909116815260200190565b901515815260200190565b90815260200190565b9182526001600160a01b0316602082015260400190565b6000602082528251806020840152611a088160408501602087016120bb565b601f01601f19169190910160400192915050565b6020808252818101527f537472696e67733a20686578206c656e67746820696e73756666696369656e74604082015260600190565b60208082526023908201527f45524332303a207472616e7366657220746f20746865207a65726f206164647260408201526265737360e81b606082015260800190565b60208082526014908201527f5061757361626c653a206e6f7420706175736564000000000000000000000000604082015260600190565b60208082526022908201527f45524332303a206275726e20616d6f756e7420657863656564732062616c616e604082015261636560f01b606082015260800190565b60208082526039908201527f45524332305072657365744d696e7465725061757365723a206d75737420686160408201527f76652070617573657220726f6c6520746f20756e706175736500000000000000606082015260800190565b60208082526022908201527f45524332303a20617070726f766520746f20746865207a65726f206164647265604082015261737360f01b606082015260800190565b60208082526026908201527f45524332303a207472616e7366657220616d6f756e742065786365656473206260408201527f616c616e63650000000000000000000000000000000000000000000000000000606082015260800190565b6020808252601d908201527f436f696e3a205468652070726f746f636f6c206973207061757365642e000000604082015260600190565b60208082526010908201527f5061757361626c653a2070617573656400000000000000000000000000000000604082015260600190565b60208082526028908201527f45524332303a207472616e7366657220616d6f756e742065786365656473206160408201527f6c6c6f77616e6365000000000000000000000000000000000000000000000000606082015260800190565b60208082526036908201527f45524332305072657365744d696e7465725061757365723a206d75737420686160408201527f7665206d696e74657220726f6c6520746f206d696e7400000000000000000000606082015260800190565b60208082526024908201527f45524332303a206275726e20616d6f756e74206578636565647320616c6c6f77604082015263616e636560e01b606082015260800190565b60208082526021908201527f45524332303a206275726e2066726f6d20746865207a65726f206164647265736040820152607360f81b606082015260800190565b60208082526025908201527f45524332303a207472616e736665722066726f6d20746865207a65726f20616460408201527f6472657373000000000000000000000000000000000000000000000000000000606082015260800190565b60208082526024908201527f45524332303a20617070726f76652066726f6d20746865207a65726f206164646040820152637265737360e01b606082015260800190565b60208082526037908201527f45524332305072657365744d696e7465725061757365723a206d75737420686160408201527f76652070617573657220726f6c6520746f207061757365000000000000000000606082015260800190565b60208082526033908201527f436f696e3a206f6e6c7920612070726f746f636f6c2061646d696e2063616e2060408201527f63616c6c20746869732066756e6374696f6e2e00000000000000000000000000606082015260800190565b60208082526025908201527f45524332303a2064656372656173656420616c6c6f77616e63652062656c6f7760408201527f207a65726f000000000000000000000000000000000000000000000000000000606082015260800190565b6020808252602f908201527f416363657373436f6e74726f6c3a2063616e206f6e6c792072656e6f756e636560408201527f20726f6c657320666f722073656c660000000000000000000000000000000000606082015260800190565b6020808252601f908201527f45524332303a206d696e7420746f20746865207a65726f206164647265737300604082015260600190565b6020808252602a908201527f45524332305061757361626c653a20746f6b656e207472616e7366657220776860408201527f696c652070617573656400000000000000000000000000000000000000000000606082015260800190565b60ff91909116815260200190565b6000821982111561208057612080612139565b500190565b600081600019048311821515161561209f5761209f612139565b500290565b6000828210156120b6576120b6612139565b500390565b60005b838110156120d65781810151838201526020016120be565b83811115610ddc5750506000910152565b6000816120f6576120f6612139565b506000190190565b60028104600182168061211257607f821691505b6020821081141561213357634e487b7160e01b600052602260045260246000fd5b50919050565b634e487b7160e01b600052601160045260246000fdfea164736f6c6343000800000a",
  "linkReferences": {},
  "deployedLinkReferences": {}
}