{
  "_format": "hh-sol-artifact-1",
  "contractName": "Marketplace",
  "sourceName": "contracts/v2/Marketplace.sol",
  "abi": [
    {
      "inputs": [
        {
          "internalType": "address payable",
          "name": "_controlCenter",
          "type": "address"
        },
        {
          "internalType": "address",
          "name": "_trustedForwarder",
          "type": "address"
        },
        {
          "internalType": "address",
          "name": "_nativeTokenWrapper",
          "type": "address"
        },
        {
          "internalType": "string",
          "name": "_uri",
          "type": "string"
        },
        {
          "internalType": "uint256",
          "name": "_marketFeeBps",
          "type": "uint256"
        }
      ],
      "stateMutability": "nonpayable",
      "type": "constructor"
    },
    {
      "anonymous": false,
      "inputs": [
        {
          "indexed": false,
          "internalType": "uint256",
          "name": "timeBuffer",
          "type": "uint256"
        },
        {
          "indexed": false,
          "internalType": "uint256",
          "name": "bidBufferBps",
          "type": "uint256"
        }
      ],
      "name": "AuctionBuffersUpdated",
      "type": "event"
    },
    {
      "anonymous": false,
      "inputs": [
        {
          "indexed": true,
          "internalType": "uint256",
          "name": "listingId",
          "type": "uint256"
        },
        {
          "indexed": true,
          "internalType": "address",
          "name": "closer",
          "type": "address"
        },
        {
          "indexed": true,
          "internalType": "bool",
          "name": "cancelled",
          "type": "bool"
        },
        {
          "indexed": false,
          "internalType": "address",
          "name": "auctionCreator",
          "type": "address"
        },
        {
          "indexed": false,
          "internalType": "address",
          "name": "winningBidder",
          "type": "address"
        }
      ],
      "name": "AuctionClosed",
      "type": "event"
    },
    {
      "anonymous": false,
      "inputs": [
        {
          "indexed": false,
          "internalType": "bool",
          "name": "restricted",
          "type": "bool"
        }
      ],
      "name": "ListingRestricted",
      "type": "event"
    },
    {
      "anonymous": false,
      "inputs": [
        {
          "indexed": true,
          "internalType": "uint256",
          "name": "listingId",
          "type": "uint256"
        },
        {
          "indexed": true,
          "internalType": "address",
          "name": "listingCreator",
          "type": "address"
        }
      ],
      "name": "ListingUpdate",
      "type": "event"
    },
    {
      "anonymous": false,
      "inputs": [
        {
          "indexed": false,
          "internalType": "uint64",
          "name": "newFee",
          "type": "uint64"
        }
      ],
      "name": "MarketFeeUpdate",
      "type": "event"
    },
    {
      "anonymous": false,
      "inputs": [
        {
          "indexed": true,
          "internalType": "uint256",
          "name": "listingId",
          "type": "uint256"
        },
        {
          "indexed": true,
          "internalType": "address",
          "name": "assetContract",
          "type": "address"
        },
        {
          "indexed": true,
          "internalType": "address",
          "name": "lister",
          "type": "address"
        },
        {
          "components": [
            {
              "internalType": "uint256",
              "name": "listingId",
              "type": "uint256"
            },
            {
              "internalType": "address",
              "name": "tokenOwner",
              "type": "address"
            },
            {
              "internalType": "address",
              "name": "assetContract",
              "type": "address"
            },
            {
              "internalType": "uint256",
              "name": "tokenId",
              "type": "uint256"
            },
            {
              "internalType": "uint256",
              "name": "startTime",
              "type": "uint256"
            },
            {
              "internalType": "uint256",
              "name": "endTime",
              "type": "uint256"
            },
            {
              "internalType": "uint256",
              "name": "quantity",
              "type": "uint256"
            },
            {
              "internalType": "address",
              "name": "currency",
              "type": "address"
            },
            {
              "internalType": "uint256",
              "name": "reservePricePerToken",
              "type": "uint256"
            },
            {
              "internalType": "uint256",
              "name": "buyoutPricePerToken",
              "type": "uint256"
            },
            {
              "internalType": "enum IMarketplace.TokenType",
              "name": "tokenType",
              "type": "uint8"
            },
            {
              "internalType": "enum IMarketplace.ListingType",
              "name": "listingType",
              "type": "uint8"
            }
          ],
          "indexed": false,
          "internalType": "struct IMarketplace.Listing",
          "name": "listing",
          "type": "tuple"
        }
      ],
      "name": "NewListing",
      "type": "event"
    },
    {
      "anonymous": false,
      "inputs": [
        {
          "indexed": true,
          "internalType": "uint256",
          "name": "listingId",
          "type": "uint256"
        },
        {
          "indexed": true,
          "internalType": "address",
          "name": "offeror",
          "type": "address"
        },
        {
          "indexed": true,
          "internalType": "enum IMarketplace.ListingType",
          "name": "listingType",
          "type": "uint8"
        },
        {
          "indexed": false,
          "internalType": "uint256",
          "name": "quantityWanted",
          "type": "uint256"
        },
        {
          "indexed": false,
          "internalType": "uint256",
          "name": "totalOfferAmount",
          "type": "uint256"
        },
        {
          "indexed": false,
          "internalType": "address",
          "name": "currency",
          "type": "address"
        }
      ],
      "name": "NewOffer",
      "type": "event"
    },
    {
      "anonymous": false,
      "inputs": [
        {
          "indexed": true,
          "internalType": "uint256",
          "name": "listingId",
          "type": "uint256"
        },
        {
          "indexed": true,
          "internalType": "address",
          "name": "assetContract",
          "type": "address"
        },
        {
          "indexed": true,
          "internalType": "address",
          "name": "lister",
          "type": "address"
        },
        {
          "indexed": false,
          "internalType": "address",
          "name": "buyer",
          "type": "address"
        },
        {
          "indexed": false,
          "internalType": "uint256",
          "name": "quantityBought",
          "type": "uint256"
        },
        {
          "indexed": false,
          "internalType": "uint256",
          "name": "totalPricePaid",
          "type": "uint256"
        }
      ],
      "name": "NewSale",
      "type": "event"
    },
    {
      "anonymous": false,
      "inputs": [
        {
          "indexed": true,
          "internalType": "bytes32",
          "name": "role",
          "type": "bytes32"
        },
        {
          "indexed": true,
          "internalType": "bytes32",
          "name": "previousAdminRole",
          "type": "bytes32"
        },
        {
          "indexed": true,
          "internalType": "bytes32",
          "name": "newAdminRole",
          "type": "bytes32"
        }
      ],
      "name": "RoleAdminChanged",
      "type": "event"
    },
    {
      "anonymous": false,
      "inputs": [
        {
          "indexed": true,
          "internalType": "bytes32",
          "name": "role",
          "type": "bytes32"
        },
        {
          "indexed": true,
          "internalType": "address",
          "name": "account",
          "type": "address"
        },
        {
          "indexed": true,
          "internalType": "address",
          "name": "sender",
          "type": "address"
        }
      ],
      "name": "RoleGranted",
      "type": "event"
    },
    {
      "anonymous": false,
      "inputs": [
        {
          "indexed": true,
          "internalType": "bytes32",
          "name": "role",
          "type": "bytes32"
        },
        {
          "indexed": true,
          "internalType": "address",
          "name": "account",
          "type": "address"
        },
        {
          "indexed": true,
          "internalType": "address",
          "name": "sender",
          "type": "address"
        }
      ],
      "name": "RoleRevoked",
      "type": "event"
    },
    {
      "inputs": [],
      "name": "DEFAULT_ADMIN_ROLE",
      "outputs": [
        {
          "internalType": "bytes32",
          "name": "",
          "type": "bytes32"
        }
      ],
      "stateMutability": "view",
      "type": "function"
    },
    {
      "inputs": [],
      "name": "LISTER_ROLE",
      "outputs": [
        {
          "internalType": "bytes32",
          "name": "",
          "type": "bytes32"
        }
      ],
      "stateMutability": "view",
      "type": "function"
    },
    {
      "inputs": [],
      "name": "MAX_BPS",
      "outputs": [
        {
          "internalType": "uint64",
          "name": "",
          "type": "uint64"
        }
      ],
      "stateMutability": "view",
      "type": "function"
    },
    {
      "inputs": [],
      "name": "_contractURI",
      "outputs": [
        {
          "internalType": "string",
          "name": "",
          "type": "string"
        }
      ],
      "stateMutability": "view",
      "type": "function"
    },
    {
      "inputs": [
        {
          "internalType": "uint256",
          "name": "_listingId",
          "type": "uint256"
        },
        {
          "internalType": "address",
          "name": "offeror",
          "type": "address"
        }
      ],
      "name": "acceptOffer",
      "outputs": [],
      "stateMutability": "nonpayable",
      "type": "function"
    },
    {
      "inputs": [],
      "name": "bidBufferBps",
      "outputs": [
        {
          "internalType": "uint64",
          "name": "",
          "type": "uint64"
        }
      ],
      "stateMutability": "view",
      "type": "function"
    },
    {
      "inputs": [
        {
          "internalType": "uint256",
          "name": "_listingId",
          "type": "uint256"
        },
        {
          "internalType": "uint256",
          "name": "_quantityToBuy",
          "type": "uint256"
        }
      ],
      "name": "buy",
      "outputs": [],
      "stateMutability": "payable",
      "type": "function"
    },
    {
      "inputs": [
        {
          "internalType": "uint256",
          "name": "_listingId",
          "type": "uint256"
        },
        {
          "internalType": "address",
          "name": "_closeFor",
          "type": "address"
        }
      ],
      "name": "closeAuction",
      "outputs": [],
      "stateMutability": "nonpayable",
      "type": "function"
    },
    {
      "inputs": [],
      "name": "contractURI",
      "outputs": [
        {
          "internalType": "string",
          "name": "",
          "type": "string"
        }
      ],
      "stateMutability": "view",
      "type": "function"
    },
    {
      "inputs": [
        {
          "components": [
            {
              "internalType": "address",
              "name": "assetContract",
              "type": "address"
            },
            {
              "internalType": "uint256",
              "name": "tokenId",
              "type": "uint256"
            },
            {
              "internalType": "uint256",
              "name": "startTime",
              "type": "uint256"
            },
            {
              "internalType": "uint256",
              "name": "secondsUntilEndTime",
              "type": "uint256"
            },
            {
              "internalType": "uint256",
              "name": "quantityToList",
              "type": "uint256"
            },
            {
              "internalType": "address",
              "name": "currencyToAccept",
              "type": "address"
            },
            {
              "internalType": "uint256",
              "name": "reservePricePerToken",
              "type": "uint256"
            },
            {
              "internalType": "uint256",
              "name": "buyoutPricePerToken",
              "type": "uint256"
            },
            {
              "internalType": "enum IMarketplace.ListingType",
              "name": "listingType",
              "type": "uint8"
            }
          ],
          "internalType": "struct IMarketplace.ListingParameters",
          "name": "_params",
          "type": "tuple"
        }
      ],
      "name": "createListing",
      "outputs": [],
      "stateMutability": "nonpayable",
      "type": "function"
    },
    {
      "inputs": [
        {
          "internalType": "bytes32",
          "name": "role",
          "type": "bytes32"
        }
      ],
      "name": "getRoleAdmin",
      "outputs": [
        {
          "internalType": "bytes32",
          "name": "",
          "type": "bytes32"
        }
      ],
      "stateMutability": "view",
      "type": "function"
    },
    {
      "inputs": [
        {
          "internalType": "bytes32",
          "name": "role",
          "type": "bytes32"
        },
        {
          "internalType": "uint256",
          "name": "index",
          "type": "uint256"
        }
      ],
      "name": "getRoleMember",
      "outputs": [
        {
          "internalType": "address",
          "name": "",
          "type": "address"
        }
      ],
      "stateMutability": "view",
      "type": "function"
    },
    {
      "inputs": [
        {
          "internalType": "bytes32",
          "name": "role",
          "type": "bytes32"
        }
      ],
      "name": "getRoleMemberCount",
      "outputs": [
        {
          "internalType": "uint256",
          "name": "",
          "type": "uint256"
        }
      ],
      "stateMutability": "view",
      "type": "function"
    },
    {
      "inputs": [
        {
          "internalType": "bytes32",
          "name": "role",
          "type": "bytes32"
        },
        {
          "internalType": "address",
          "name": "account",
          "type": "address"
        }
      ],
      "name": "grantRole",
      "outputs": [],
      "stateMutability": "nonpayable",
      "type": "function"
    },
    {
      "inputs": [
        {
          "internalType": "bytes32",
          "name": "role",
          "type": "bytes32"
        },
        {
          "internalType": "address",
          "name": "account",
          "type": "address"
        }
      ],
      "name": "hasRole",
      "outputs": [
        {
          "internalType": "bool",
          "name": "",
          "type": "bool"
        }
      ],
      "stateMutability": "view",
      "type": "function"
    },
    {
      "inputs": [
        {
          "internalType": "address",
          "name": "forwarder",
          "type": "address"
        }
      ],
      "name": "isTrustedForwarder",
      "outputs": [
        {
          "internalType": "bool",
          "name": "",
          "type": "bool"
        }
      ],
      "stateMutability": "view",
      "type": "function"
    },
    {
      "inputs": [
        {
          "internalType": "uint256",
          "name": "",
          "type": "uint256"
        }
      ],
      "name": "listings",
      "outputs": [
        {
          "internalType": "uint256",
          "name": "listingId",
          "type": "uint256"
        },
        {
          "internalType": "address",
          "name": "tokenOwner",
          "type": "address"
        },
        {
          "internalType": "address",
          "name": "assetContract",
          "type": "address"
        },
        {
          "internalType": "uint256",
          "name": "tokenId",
          "type": "uint256"
        },
        {
          "internalType": "uint256",
          "name": "startTime",
          "type": "uint256"
        },
        {
          "internalType": "uint256",
          "name": "endTime",
          "type": "uint256"
        },
        {
          "internalType": "uint256",
          "name": "quantity",
          "type": "uint256"
        },
        {
          "internalType": "address",
          "name": "currency",
          "type": "address"
        },
        {
          "internalType": "uint256",
          "name": "reservePricePerToken",
          "type": "uint256"
        },
        {
          "internalType": "uint256",
          "name": "buyoutPricePerToken",
          "type": "uint256"
        },
        {
          "internalType": "enum IMarketplace.TokenType",
          "name": "tokenType",
          "type": "uint8"
        },
        {
          "internalType": "enum IMarketplace.ListingType",
          "name": "listingType",
          "type": "uint8"
        }
      ],
      "stateMutability": "view",
      "type": "function"
    },
    {
      "inputs": [],
      "name": "marketFeeBps",
      "outputs": [
        {
          "internalType": "uint64",
          "name": "",
          "type": "uint64"
        }
      ],
      "stateMutability": "view",
      "type": "function"
    },
    {
      "inputs": [
        {
          "internalType": "bytes[]",
          "name": "data",
          "type": "bytes[]"
        }
      ],
      "name": "multicall",
      "outputs": [
        {
          "internalType": "bytes[]",
          "name": "results",
          "type": "bytes[]"
        }
      ],
      "stateMutability": "nonpayable",
      "type": "function"
    },
    {
      "inputs": [],
      "name": "nativeToken",
      "outputs": [
        {
          "internalType": "address",
          "name": "",
          "type": "address"
        }
      ],
      "stateMutability": "view",
      "type": "function"
    },
    {
      "inputs": [],
      "name": "nativeTokenWrapper",
      "outputs": [
        {
          "internalType": "address",
          "name": "",
          "type": "address"
        }
      ],
      "stateMutability": "view",
      "type": "function"
    },
    {
      "inputs": [
        {
          "internalType": "uint256",
          "name": "_listingId",
          "type": "uint256"
        },
        {
          "internalType": "uint256",
          "name": "_quantityWanted",
          "type": "uint256"
        },
        {
          "internalType": "address",
          "name": "_currency",
          "type": "address"
        },
        {
          "internalType": "uint256",
          "name": "_pricePerToken",
          "type": "uint256"
        }
      ],
      "name": "offer",
      "outputs": [],
      "stateMutability": "payable",
      "type": "function"
    },
    {
      "inputs": [
        {
          "internalType": "uint256",
          "name": "",
          "type": "uint256"
        },
        {
          "internalType": "address",
          "name": "",
          "type": "address"
        }
      ],
      "name": "offers",
      "outputs": [
        {
          "internalType": "uint256",
          "name": "listingId",
          "type": "uint256"
        },
        {
          "internalType": "address",
          "name": "offeror",
          "type": "address"
        },
        {
          "internalType": "uint256",
          "name": "quantityWanted",
          "type": "uint256"
        },
        {
          "internalType": "address",
          "name": "currency",
          "type": "address"
        },
        {
          "internalType": "uint256",
          "name": "pricePerToken",
          "type": "uint256"
        }
      ],
      "stateMutability": "view",
      "type": "function"
    },
    {
      "inputs": [
        {
          "internalType": "address",
          "name": "",
          "type": "address"
        },
        {
          "internalType": "address",
          "name": "",
          "type": "address"
        },
        {
          "internalType": "uint256[]",
          "name": "",
          "type": "uint256[]"
        },
        {
          "internalType": "uint256[]",
          "name": "",
          "type": "uint256[]"
        },
        {
          "internalType": "bytes",
          "name": "",
          "type": "bytes"
        }
      ],
      "name": "onERC1155BatchReceived",
      "outputs": [
        {
          "internalType": "bytes4",
          "name": "",
          "type": "bytes4"
        }
      ],
      "stateMutability": "nonpayable",
      "type": "function"
    },
    {
      "inputs": [
        {
          "internalType": "address",
          "name": "",
          "type": "address"
        },
        {
          "internalType": "address",
          "name": "",
          "type": "address"
        },
        {
          "internalType": "uint256",
          "name": "",
          "type": "uint256"
        },
        {
          "internalType": "uint256",
          "name": "",
          "type": "uint256"
        },
        {
          "internalType": "bytes",
          "name": "",
          "type": "bytes"
        }
      ],
      "name": "onERC1155Received",
      "outputs": [
        {
          "internalType": "bytes4",
          "name": "",
          "type": "bytes4"
        }
      ],
      "stateMutability": "nonpayable",
      "type": "function"
    },
    {
      "inputs": [
        {
          "internalType": "address",
          "name": "",
          "type": "address"
        },
        {
          "internalType": "address",
          "name": "",
          "type": "address"
        },
        {
          "internalType": "uint256",
          "name": "",
          "type": "uint256"
        },
        {
          "internalType": "bytes",
          "name": "",
          "type": "bytes"
        }
      ],
      "name": "onERC721Received",
      "outputs": [
        {
          "internalType": "bytes4",
          "name": "",
          "type": "bytes4"
        }
      ],
      "stateMutability": "pure",
      "type": "function"
    },
    {
      "inputs": [
        {
          "internalType": "bytes32",
          "name": "role",
          "type": "bytes32"
        },
        {
          "internalType": "address",
          "name": "account",
          "type": "address"
        }
      ],
      "name": "renounceRole",
      "outputs": [],
      "stateMutability": "nonpayable",
      "type": "function"
    },
    {
      "inputs": [],
      "name": "restrictedListerRoleOnly",
      "outputs": [
        {
          "internalType": "bool",
          "name": "",
          "type": "bool"
        }
      ],
      "stateMutability": "view",
      "type": "function"
    },
    {
      "inputs": [
        {
          "internalType": "bytes32",
          "name": "role",
          "type": "bytes32"
        },
        {
          "internalType": "address",
          "name": "account",
          "type": "address"
        }
      ],
      "name": "revokeRole",
      "outputs": [],
      "stateMutability": "nonpayable",
      "type": "function"
    },
    {
      "inputs": [
        {
          "internalType": "uint256",
          "name": "_timeBuffer",
          "type": "uint256"
        },
        {
          "internalType": "uint256",
          "name": "_bidBufferBps",
          "type": "uint256"
        }
      ],
      "name": "setAuctionBuffers",
      "outputs": [],
      "stateMutability": "nonpayable",
      "type": "function"
    },
    {
      "inputs": [
        {
          "internalType": "string",
          "name": "_uri",
          "type": "string"
        }
      ],
      "name": "setContractURI",
      "outputs": [],
      "stateMutability": "nonpayable",
      "type": "function"
    },
    {
      "inputs": [
        {
          "internalType": "uint256",
          "name": "_feeBps",
          "type": "uint256"
        }
      ],
      "name": "setMarketFeeBps",
      "outputs": [],
      "stateMutability": "nonpayable",
      "type": "function"
    },
    {
      "inputs": [
        {
          "internalType": "bool",
          "name": "restricted",
          "type": "bool"
        }
      ],
      "name": "setRestrictedListerRoleOnly",
      "outputs": [],
      "stateMutability": "nonpayable",
      "type": "function"
    },
    {
      "inputs": [
        {
          "internalType": "bytes4",
          "name": "interfaceId",
          "type": "bytes4"
        }
      ],
      "name": "supportsInterface",
      "outputs": [
        {
          "internalType": "bool",
          "name": "",
          "type": "bool"
        }
      ],
      "stateMutability": "view",
      "type": "function"
    },
    {
      "inputs": [],
      "name": "timeBuffer",
      "outputs": [
        {
          "internalType": "uint64",
          "name": "",
          "type": "uint64"
        }
      ],
      "stateMutability": "view",
      "type": "function"
    },
    {
      "inputs": [],
      "name": "totalListings",
      "outputs": [
        {
          "internalType": "uint256",
          "name": "",
          "type": "uint256"
        }
      ],
      "stateMutability": "view",
      "type": "function"
    },
    {
      "inputs": [
        {
          "internalType": "uint256",
          "name": "_listingId",
          "type": "uint256"
        },
        {
          "internalType": "uint256",
          "name": "_quantityToList",
          "type": "uint256"
        },
        {
          "internalType": "uint256",
          "name": "_reservePricePerToken",
          "type": "uint256"
        },
        {
          "internalType": "uint256",
          "name": "_buyoutPricePerToken",
          "type": "uint256"
        },
        {
          "internalType": "address",
          "name": "_currencyToAccept",
          "type": "address"
        },
        {
          "internalType": "uint256",
          "name": "_startTime",
          "type": "uint256"
        },
        {
          "internalType": "uint256",
          "name": "_secondsUntilEndTime",
          "type": "uint256"
        }
      ],
      "name": "updateListing",
      "outputs": [],
      "stateMutability": "nonpayable",
      "type": "function"
    },
    {
      "inputs": [
        {
          "internalType": "uint256",
          "name": "",
          "type": "uint256"
        }
      ],
      "name": "winningBid",
      "outputs": [
        {
          "internalType": "uint256",
          "name": "listingId",
          "type": "uint256"
        },
        {
          "internalType": "address",
          "name": "offeror",
          "type": "address"
        },
        {
          "internalType": "uint256",
          "name": "quantityWanted",
          "type": "uint256"
        },
        {
          "internalType": "address",
          "name": "currency",
          "type": "address"
        },
        {
          "internalType": "uint256",
          "name": "pricePerToken",
          "type": "uint256"
        }
      ],
      "stateMutability": "view",
      "type": "function"
    },
    {
      "stateMutability": "payable",
      "type": "receive"
    }
  ],
  "bytecode": "0x60a060405260078054600160481b600160c81b0319167201f400000000000003840000000000000000001790553480156200003957600080fd5b5060405162005bb838038062005bb88339810160408190526200005c91620003bc565b6001600255600380546001600160a01b0319166001600160a01b038616179055815162000091906006906020850190620002e7565b50600480546001600160a01b0319166001600160a01b0387811691909117909155831660805260078054610100600160481b0319166101006001600160401b03841602179055620000ed6000620000e762000127565b62000143565b6200011c7ff94103142c1baabe9ac2b5d1487bf783de9e69cfeea9a72f5c9c94afd7877b8c620000e762000127565b505050505062000523565b60006200013e6200018660201b620023c61760201c565b905090565b6200015a8282620001bf60201b620023f31760201c565b60008281526001602090815260409091206200018191839062002401620001cf821b17901c565b505050565b6003546000906001600160a01b0316331415620001aa575060131936013560601c90565b6200013e620001ef60201b620024161760201c565b620001cb8282620001f3565b5050565b6000620001e6836001600160a01b03841662000295565b90505b92915050565b3390565b6000828152602081815260408083206001600160a01b038516845290915290205460ff16620001cb576000828152602081815260408083206001600160a01b03851684529091529020805460ff191660011790556200025162000127565b6001600160a01b0316816001600160a01b0316837f2f8788117e7eff1d82e926ec794901d17c78024a50270940304540a733656f0d60405160405180910390a45050565b6000818152600183016020526040812054620002de57508154600181810184556000848152602080822090930184905584548482528286019093526040902091909155620001e9565b506000620001e9565b828054620002f590620004e6565b90600052602060002090601f01602090048101928262000319576000855562000364565b82601f106200033457805160ff191683800117855562000364565b8280016001018555821562000364579182015b828111156200036457825182559160200191906001019062000347565b506200037292915062000376565b5090565b5b8082111562000372576000815560010162000377565b6001600160a01b0381168114620003a357600080fd5b50565b634e487b7160e01b600052604160045260246000fd5b600080600080600060a08688031215620003d557600080fd5b8551620003e2816200038d565b80955050602080870151620003f7816200038d565b60408801519095506200040a816200038d565b60608801519094506001600160401b03808211156200042857600080fd5b818901915089601f8301126200043d57600080fd5b815181811115620004525762000452620003a6565b604051601f8201601f19908116603f011681019083821181831017156200047d576200047d620003a6565b816040528281528c868487010111156200049657600080fd5b600093505b82841015620004ba57848401860151818501870152928501926200049b565b82841115620004cc5760008684830101525b809750505050505050608086015190509295509295909350565b600181811c90821680620004fb57607f821691505b602082108114156200051d57634e487b7160e01b600052602260045260246000fd5b50919050565b60805161565d6200055b600039600081816109300152818161196d01528181614205015281816142790152614384015261565d6000f3fe6080604052600436106102895760003560e01c8063bc197c8111610153578063deb26b94116100cb578063ebdfbce51161007f578063f23a6e6111610064578063f23a6e61146108f2578063f9ea29cb1461091e578063fd967f471461095257600080fd5b8063ebdfbce514610864578063ec91f2a4146108c457600080fd5b8063e4104eaf116100b0578063e4104eaf1461080f578063e8a3d4851461082f578063ea0e02411461084457600080fd5b8063deb26b94146107b3578063e1758bd8146107e757600080fd5b8063ca15c87311610122578063d547741f11610107578063d547741f146106db578063d6febde8146106fb578063de74e57b1461070e57600080fd5b8063ca15c87314610634578063d4ac9b8c1461065457600080fd5b8063bc197c81146105b0578063c0e72740146105dc578063c4b5b15f146105fe578063c78b616c1461061e57600080fd5b8063572b6c051161020157806391d14854116101b5578063a217fddf1161019a578063a217fddf1461055b578063ac9650d814610570578063acb1ba671461059d57600080fd5b806391d14854146104f7578063938e3d7b1461053b57600080fd5b80636bab66ae116101e65780636bab66ae1461047f5780639010d07c1461049f578063918d407d146104d757600080fd5b8063572b6c051461043657806361096ec61461046557600080fd5b80632f2ff15d1161025857806336568abe1161023d57806336568abe146103af5780633f5c3e87146103cf5780634e03f28d1461040e57600080fd5b80632f2ff15d1461036f578063354c7ab61461038f57600080fd5b806301ffc9a714610295578063150b7a02146102ca578063248a9ca31461030f578063296f4e161461034d57600080fd5b3661029057005b600080fd5b3480156102a157600080fd5b506102b56102b0366004614b26565b610968565b60405190151581526020015b60405180910390f35b3480156102d657600080fd5b506102f66102e5366004614bbc565b630a85bd0160e11b95945050505050565b6040516001600160e01b031990911681526020016102c1565b34801561031b57600080fd5b5061033f61032a366004614c2f565b60009081526020819052604090206001015490565b6040519081526020016102c1565b34801561035957600080fd5b5061036d610368366004614cc8565b6109ba565b005b34801561037b57600080fd5b5061036d61038a366004614d54565b610daa565b34801561039b57600080fd5b5061036d6103aa366004614d92565b610dd1565b3480156103bb57600080fd5b5061036d6103ca366004614d54565b610e72565b3480156103db57600080fd5b506007546103f590610100900467ffffffffffffffff1681565b60405167ffffffffffffffff90911681526020016102c1565b34801561041a57600080fd5b506007546103f590600160881b900467ffffffffffffffff1681565b34801561044257600080fd5b506102b5610451366004614daf565b6003546001600160a01b0391821691161490565b34801561047157600080fd5b506007546102b59060ff1681565b34801561048b57600080fd5b5061036d61049a366004614d54565b610e94565b3480156104ab57600080fd5b506104bf6104ba366004614dcc565b611198565b6040516001600160a01b0390911681526020016102c1565b3480156104e357600080fd5b5061036d6104f2366004614d54565b6111b7565b34801561050357600080fd5b506102b5610512366004614d54565b6000918252602082815260408084206001600160a01b0393909316845291905290205460ff1690565b34801561054757600080fd5b5061036d610556366004614dee565b611479565b34801561056757600080fd5b5061033f600081565b34801561057c57600080fd5b5061059061058b366004614e30565b6115da565b6040516102c19190614efd565b61036d6105ab366004614f5f565b6116cf565b3480156105bc57600080fd5b506102f66105cb36600461508e565b63bc197c8160e01b95945050505050565b3480156105e857600080fd5b506105f16119c7565b6040516102c1919061513c565b34801561060a57600080fd5b5061036d61061936600461514f565b611a55565b34801561062a57600080fd5b5061033f60055481565b34801561064057600080fd5b5061033f61064f366004614c2f565b611f31565b34801561066057600080fd5b506106a961066f366004614c2f565b600a602052600090815260409020805460018201546002830154600384015460049094015492936001600160a01b03928316939192169085565b604080519586526001600160a01b0394851660208701528501929092529091166060830152608082015260a0016102c1565b3480156106e757600080fd5b5061036d6106f6366004614d54565b611f48565b61036d610709366004614dcc565b611f52565b34801561071a57600080fd5b5061079b610729366004614c2f565b600860208190526000918252604090912080546001820154600283015460038401546004850154600586015460068701546007880154988801546009890154600a9099015497996001600160a01b03978816999688169895979496939592941692909160ff808216916101009004168c565b6040516102c19c9b9a999897969594939291906151ef565b3480156107bf57600080fd5b5061033f7ff94103142c1baabe9ac2b5d1487bf783de9e69cfeea9a72f5c9c94afd7877b8c81565b3480156107f357600080fd5b506104bf73eeeeeeeeeeeeeeeeeeeeeeeeeeeeeeeeeeeeeeee81565b34801561081b57600080fd5b5061036d61082a366004614c2f565b6120d6565b34801561083b57600080fd5b506105f16121d8565b34801561085057600080fd5b5061036d61085f366004614dcc565b61226a565b34801561087057600080fd5b506106a961087f366004614d54565b60096020908152600092835260408084209091529082529020805460018201546002830154600384015460049094015492936001600160a01b03928316939192169085565b3480156108d057600080fd5b506007546103f5906901000000000000000000900467ffffffffffffffff1681565b3480156108fe57600080fd5b506102f661090d366004615273565b63f23a6e6160e01b95945050505050565b34801561092a57600080fd5b506104bf7f000000000000000000000000000000000000000000000000000000000000000081565b34801561095e57600080fd5b506103f561271081565b60006001600160e01b03198216630271189760e51b148061099957506001600160e01b03198216630a85bd0160e11b145b806109b457506001600160e01b0319821663152a902d60e11b145b92915050565b60075460ff1615806109f357506109f37ff94103142c1baabe9ac2b5d1487bf783de9e69cfeea9a72f5c9c94afd7877b8c61051261241a565b610a6a5760405162461bcd60e51b815260206004820152602e60248201527f4d61726b6574706c6163653a2063616c6c657220646f6573206e6f742068617660448201527f65204c49535445525f524f4c452e00000000000000000000000000000000000060648201526084015b60405180910390fd5b6000610a74612424565b90506000610a8061241a565b90506000610a918460000151612442565b90506000610aa38286608001516125ce565b905060008111610b1b5760405162461bcd60e51b815260206004820152602660248201527f4d61726b6574706c6163653a206c697374696e6720696e76616c69642071756160448201527f6e746974792e00000000000000000000000000000000000000000000000000006064820152608401610a61565b610b3083866000015187602001518486612605565b6000604051806101800160405280868152602001856001600160a01b0316815260200187600001516001600160a01b031681526020018760200151815260200142886040015110610b85578760400151610b87565b425b81526020018760600151600014610bb15787606001518860400151610bac91906152f2565b610bb5565b6000195b81526020018381526020018760a001516001600160a01b031681526020018760c0015181526020018760e001518152602001846001811115610bf957610bf96151ae565b81526020018761010001516001811115610c1557610c156151ae565b90526000868152600860208181526040928390208451815590840151600180830180546001600160a01b03199081166001600160a01b0394851617909155948601516002840180548716918416919091179055606086015160038401556080860151600484015560a0860151600584015560c0860151600684015560e0860151600784018054909616921691909117909355610100840151918101919091556101208301516009820155610140830151600a82018054949550859492939192909160ff19909116908381811115610cee57610cee6151ae565b0217905550610160820151600a8201805461ff001916610100836001811115610d1957610d196151ae565b021790555060019150610d299050565b8161016001516001811115610d4057610d406151ae565b1415610d5257610d5284308484612968565b836001600160a01b031686600001516001600160a01b0316867f9e578277632a71dd17ab11c1f584c51deafef022c94389ecb050eb92713725f684604051610d9a919061530a565b60405180910390a4505050505050565b610db48282612aba565b6000828152600160205260409020610dcc9082612401565b505050565b610dde600061051261241a565b610e2a5760405162461bcd60e51b815260206004820181905260248201527f4d61726b6574706c6163653a206e6f742061206d6f64756c652061646d696e2e6044820152606401610a61565b6007805460ff19168215159081179091556040519081527f80b4303f755d7d3d4d483a1580281ef7aaeb82947826a1dc63a6366875765cb0906020015b60405180910390a150565b610e7c8282612ae7565b6000828152600160205260409020610dcc9082612b7f565b600280541415610ee65760405162461bcd60e51b815260206004820152601f60248201527f5265656e7472616e637947756172643a207265656e7472616e742063616c6c006044820152606401610a61565b60028080556000838152600860208181526040808420815161018081018352815481526001808301546001600160a01b0390811695830195909552968201548416928101929092526003810154606083015260048101546080830152600581015460a0830152600681015460c0830152600781015490921660e0820152918101546101008301526009810154610120830152600a81015492939192909161014084019160ff1690811115610f9c57610f9c6151ae565b6001811115610fad57610fad6151ae565b8152602001600a820160019054906101000a900460ff166001811115610fd557610fd56151ae565b6001811115610fe657610fe66151ae565b905250905060018161016001516001811115611004576110046151ae565b146110515760405162461bcd60e51b815260206004820152601c60248201527f4d61726b6574706c6163653a206e6f7420616e2061756374696f6e2e000000006044820152606401610a61565b6000838152600a6020908152604091829020825160a0810184528154815260018201546001600160a01b039081169382019390935260028201549381019390935260038101549091166060830152600401546080808301919091528201514210156110c4576110bf82612b94565b61118d565b428260a001511061113d5760405162461bcd60e51b815260206004820152603660248201527f4d61726b6574706c6163653a2063616e6e6f7420636c6f73652061756374696f60448201527f6e206265666f72652069742068617320656e6465642e000000000000000000006064820152608401610a61565b81602001516001600160a01b0316836001600160a01b03161415611165576110bf8282612d16565b80602001516001600160a01b0316836001600160a01b0316141561118d5761118d8282612f31565b505060016002555050565b60008281526001602052604081206111b09083613137565b9392505050565b6002805414156112095760405162461bcd60e51b815260206004820152601f60248201527f5265656e7472616e637947756172643a207265656e7472616e742063616c6c006044820152606401610a61565b600280558161121661241a565b6000828152600860205260409020600101546001600160a01b039081169116146112965760405162461bcd60e51b815260206004820152602b60248201527f4d61726b6574706c6163653a2063616c6c6572206973206e6f74206c6973746960448201526a37339031b932b0ba37b91760a91b6064820152608401610a61565b60008381526009602081815260408084206001600160a01b038088168652908352818520825160a08082018552825482526001808401548516838801526002808501548488015260038086015487166060808701919091526004968701546080808801919091528f8d526008808c528a8e208b5161018081018d5281548152818801548c169d81019d909d52948501548a169a8c019a909a5291830154908a01529481015494880194909452600584015491870191909152600683015460c0870152600783015490931660e08601529281015461010085015293840154610120840152600a8401549194939161014084019160ff9091169081111561139d5761139d6151ae565b60018111156113ae576113ae6151ae565b8152602001600a820160019054906101000a900460ff1660018111156113d6576113d66151ae565b60018111156113e7576113e76151ae565b90525060008681526009602090815260408083206001600160a01b03891684529091528082208281556001810180546001600160a01b031990811690915560028201849055600382018054909116905560040191909155606084015190840151608085015192935061146d9284928892909161146391906153d3565b8660400151613143565b50506001600255505050565b600480546040805163a217fddf60e01b815290516001600160a01b03909216926391d1485492849263a217fddf9281810192602092909190829003018186803b1580156114c557600080fd5b505afa1580156114d9573d6000803e3d6000fd5b505050506040513d601f19601f820116820180604052508101906114fd91906153f2565b61150561241a565b6040516001600160e01b031960e085901b16815260048101929092526001600160a01b0316602482015260440160206040518083038186803b15801561154a57600080fd5b505afa15801561155e573d6000803e3d6000fd5b505050506040513d601f19601f82011682018060405250810190611582919061540b565b6115ce5760405162461bcd60e51b815260206004820181905260248201527f4d61726b6574706c6163653a206e6f742070726f746f636f6c2061646d696e2e6044820152606401610a61565b610dcc60068383614a8d565b60608167ffffffffffffffff8111156115f5576115f5614c48565b60405190808252806020026020018201604052801561162857816020015b60608152602001906001900390816116135790505b50905060005b828110156116c8576116983085858481811061164c5761164c615428565b905060200281019061165e919061543e565b8080601f0160208091040260200160405190810160405280939291908181526020018383808284376000920191909152506132ec92505050565b8282815181106116aa576116aa615428565b602002602001018190525080806116c090615485565b91505061162e565b5092915050565b6002805414156117215760405162461bcd60e51b815260206004820152601f60248201527f5265656e7472616e637947756172643a207265656e7472616e742063616c6c006044820152606401610a61565b60028080556000858152600860208181526040808420815161018081018352815481526001808301546001600160a01b0390811695830195909552968201548416928101929092526003810154606083015260048101546080830152600581015460a0830152600681015460c0830152600781015490921660e0820152918101546101008301526009810154610120830152600a81015492939192909161014084019160ff16908111156117d7576117d76151ae565b60018111156117e8576117e86151ae565b8152602001600a820160019054906101000a900460ff166001811115611810576118106151ae565b6001811115611821576118216151ae565b815250509050428160a0015111801561183d5750428160800151105b6118895760405162461bcd60e51b815260206004820152601e60248201527f4d61726b6574706c6163653a20696e616374697665206c697369746e672e00006044820152606401610a61565b60006040518060a001604052808781526020016118a461241a565b6001600160a01b03908116825260208201889052861660408201526060018490529050600182610160015160018111156118e0576118e06151ae565b14156119225760e08201516001600160a01b0316606082015261014082015160c083015161190e91906125ce565b604082015261191d8282613311565b6119ba565b6000826101600151600181111561193b5761193b6151ae565b14156119ba576001600160a01b03841673eeeeeeeeeeeeeeeeeeeeeeeeeeeeeeeeeeeeeeee1461196b578361198d565b7f00000000000000000000000000000000000000000000000000000000000000005b6001600160a01b031660608201526101408201516119ab90866125ce565b60408201526119ba82826136e1565b5050600160025550505050565b600680546119d4906154a0565b80601f0160208091040260200160405190810160405280929190818152602001828054611a00906154a0565b8015611a4d5780601f10611a2257610100808354040283529160200191611a4d565b820191906000526020600020905b815481529060010190602001808311611a3057829003601f168201915b505050505081565b86611a5e61241a565b6000828152600860205260409020600101546001600160a01b03908116911614611ade5760405162461bcd60e51b815260206004820152602b60248201527f4d61726b6574706c6163653a2063616c6c6572206973206e6f74206c6973746960448201526a37339031b932b0ba37b91760a91b6064820152608401610a61565b6000888152600860208181526040808420815161018081018352815481526001808301546001600160a01b039081169583019590955260028301548516938201939093526003820154606082015260048201546080820152600582015460a0820152600682015460c0820152600782015490931660e0840152928301546101008301526009830154610120830152600a83015491929161014084019160ff90911690811115611b8f57611b8f6151ae565b6001811115611ba057611ba06151ae565b8152602001600a820160019054906101000a900460ff166001811115611bc857611bc86151ae565b6001811115611bd957611bd96151ae565b8152505090506000611bf08261014001518a6125ce565b9050600060018361016001516001811115611c0d57611c0d6151ae565b1490508015611c8f5782608001514210611c8f5760405162461bcd60e51b815260206004820152602560248201527f4d61726b6574706c6163653a2061756374696f6e20616c72656164792073746160448201527f727465642e0000000000000000000000000000000000000000000000000000006064820152608401610a61565b60008615611c9d5786611ca3565b83608001515b90506040518061018001604052808d8152602001611cbf61241a565b6001600160a01b0316815260200185604001516001600160a01b031681526020018560600151815260200182815260200187600014611d0757611d0288846152f2565b611d0d565b8560a001515b8152602001848152602001896001600160a01b031681526020018b81526020018a81526020018561014001516001811115611d4a57611d4a6151ae565b81526020018561016001516001811115611d6657611d666151ae565b905260008d8152600860208181526040928390208451815590840151600180830180546001600160a01b03199081166001600160a01b0394851617909155948601516002840180548716918416919091179055606086015160038401556080860151600484015560a0860151600584015560c0860151600684015560e0860151600784018054909616921691909117909355610100840151918101919091556101208301516009820155610140830151600a8201805492939192909160ff19909116908381811115611e3a57611e3a6151ae565b0217905550610160820151600a8201805461ff001916610100836001811115611e6557611e656151ae565b0217905550505060c08401518314611ee757818015611e82575082155b15611e9957611e9084612b94565b50505050611f27565b8115611eb357611eb33085602001518660c0015187612968565b611ed184602001518560400151866060015186886101400151612605565b8115611ee757611ee78460200151308587612968565b83602001516001600160a01b03168c7fa00227275ba75aea329d91406a2884d227dc386f939f1d18e15a7317152432ca60405160405180910390a3505050505b5050505050505050565b60008181526001602052604081206109b49061389c565b610e7c82826138a6565b600280541415611fa45760405162461bcd60e51b815260206004820152601f60248201527f5265656e7472616e637947756172643a207265656e7472616e742063616c6c006044820152606401610a61565b60028080556000838152600860208181526040808420815161018081018352815481526001808301546001600160a01b0390811695830195909552968201548416928101929092526003810154606083015260048101546080830152600581015460a0830152600681015460c0830152600781015490921660e0820152918101546101008301526009810154610120830152600a81015492939192909161014084019160ff169081111561205a5761205a6151ae565b600181111561206b5761206b6151ae565b8152602001600a820160019054906101000a900460ff166001811115612093576120936151ae565b60018111156120a4576120a46151ae565b905250905060006120b361241a565b905061118d82828460e00151868661012001516120d091906153d3565b87613143565b6120e3600061051261241a565b61212f5760405162461bcd60e51b815260206004820181905260248201527f4d61726b6574706c6163653a206e6f742061206d6f64756c652061646d696e2e6044820152606401610a61565b61271081106121805760405162461bcd60e51b815260206004820152601960248201527f4d61726b6574706c6163653a20696e76616c6964204250532e000000000000006044820152606401610a61565b6007805468ffffffffffffffff00191661010067ffffffffffffffff8416908102919091179091556040519081527f1923ecef8dbc1cebea2768819f7df282b72fb6d62bf99da204590b9d5cac7a7b90602001610e67565b6060600680546121e7906154a0565b80601f0160208091040260200160405190810160405280929190818152602001828054612213906154a0565b80156122605780601f1061223557610100808354040283529160200191612260565b820191906000526020600020905b81548152906001019060200180831161224357829003601f168201915b5050505050905090565b612277600061051261241a565b6122c35760405162461bcd60e51b815260206004820181905260248201527f4d61726b6574706c6163653a206e6f742061206d6f64756c652061646d696e2e6044820152606401610a61565b61271081106123145760405162461bcd60e51b815260206004820152601960248201527f4d61726b6574706c6163653a20696e76616c6964204250532e000000000000006044820152606401610a61565b6007805467ffffffffffffffff838116600160881b027fffffffffffffff0000000000000000ffffffffffffffffffffffffffffffffff918616690100000000000000000002919091167fffffffffffffff00000000000000000000000000000000ffffffffffffffffff9092169190911717905560408051838152602081018390527f441ed6470e96704c3f8c9e70c209107078aab3f17311385e886081b91aa75088910160405180910390a15050565b6003546000906001600160a01b03163314156123e9575060131936013560601c90565b503390565b905090565b6123fd82826138ce565b5050565b60006111b0836001600160a01b03841661396d565b3390565b60006123ee6123c6565b6005805490600190600061243883856152f2565b9250508190555090565b6040516301ffc9a760e01b8152636cdb3d1360e11b60048201526000906001600160a01b038316906301ffc9a79060240160206040518083038186803b15801561248b57600080fd5b505afa15801561249f573d6000803e3d6000fd5b505050506040513d601f19601f820116820180604052508101906124c3919061540b565b156124d057506000919050565b6040516301ffc9a760e01b81526380ac58cd60e01b60048201526001600160a01b038316906301ffc9a79060240160206040518083038186803b15801561251657600080fd5b505afa15801561252a573d6000803e3d6000fd5b505050506040513d601f19601f8201168201806040525081019061254e919061540b565b1561255b57506001919050565b60405162461bcd60e51b815260206004820152603060248201527f4d61726b6574706c6163653a206d75737420696d706c656d656e74204552432060448201527f31313535206f7220455243203732312e000000000000000000000000000000006064820152608401610a61565b919050565b6000816125dd575060006109b4565b60018360018111156125f1576125f16151ae565b146125fc57816111b0565b50600192915050565b3060008083600181111561261b5761261b6151ae565b141561273357604051627eeac760e11b81526001600160a01b0388811660048301526024820187905285919088169062fdd58e9060440160206040518083038186803b15801561266a57600080fd5b505afa15801561267e573d6000803e3d6000fd5b505050506040513d601f19601f820116820180604052508101906126a291906153f2565b1015801561272c575060405163e985e9c560e01b81526001600160a01b038881166004830152838116602483015287169063e985e9c59060440160206040518083038186803b1580156126f457600080fd5b505afa158015612708573d6000803e3d6000fd5b505050506040513d601f19601f8201168201806040525081019061272c919061540b565b90506128ec565b6001836001811115612747576127476151ae565b14156128ec576040516331a9108f60e11b8152600481018690526001600160a01b038089169190881690636352211e9060240160206040518083038186803b15801561279257600080fd5b505afa1580156127a6573d6000803e3d6000fd5b505050506040513d601f19601f820116820180604052508101906127ca91906154db565b6001600160a01b03161480156128e9575060405163020604bf60e21b8152600481018690526001600160a01b03808416919088169063081812fc9060240160206040518083038186803b15801561282057600080fd5b505afa158015612834573d6000803e3d6000fd5b505050506040513d601f19601f8201168201806040525081019061285891906154db565b6001600160a01b031614806128e9575060405163e985e9c560e01b81526001600160a01b038881166004830152838116602483015287169063e985e9c59060440160206040518083038186803b1580156128b157600080fd5b505afa1580156128c5573d6000803e3d6000fd5b505050506040513d601f19601f820116820180604052508101906128e9919061540b565b90505b8061295f5760405162461bcd60e51b815260206004820152603460248201527f4d61726b6574706c6163653a20696e73756666696369656e7420746f6b656e2060448201527f62616c616e6365206f7220617070726f76616c2e0000000000000000000000006064820152608401610a61565b50505050505050565b60008161014001516001811115612981576129816151ae565b1415612a165760408082015160608301519151637921219560e11b81526001600160a01b038781166004830152868116602483015260448201939093526064810185905260a06084820152600060a482015291169063f242432a9060c401600060405180830381600087803b1580156129f957600080fd5b505af1158015612a0d573d6000803e3d6000fd5b50505050612ab4565b60018161014001516001811115612a2f57612a2f6151ae565b1415612ab45760408082015160608301519151635c46a7ef60e11b81526001600160a01b03878116600483015286811660248301526044820193909352608060648201526000608482015291169063b88d4fde9060a401600060405180830381600087803b158015612aa057600080fd5b505af1158015611f27573d6000803e3d6000fd5b50505050565b600082815260208190526040902060010154612add81612ad861241a565b6139bc565b610dcc83836138ce565b612aef61241a565b6001600160a01b0316816001600160a01b031614612b755760405162461bcd60e51b815260206004820152602f60248201527f416363657373436f6e74726f6c3a2063616e206f6e6c792072656e6f756e636560448201527f20726f6c657320666f722073656c6600000000000000000000000000000000006064820152608401610a61565b6123fd8282613a3a565b60006111b0836001600160a01b038416613ad7565b612b9c61241a565b81516000908152600860205260409020600101546001600160a01b03908116911614612c305760405162461bcd60e51b815260206004820152602f60248201527f4d61726b6574706c6163653a2063616c6c6572206973206e6f7420746865206c60448201527f697374696e672063726561746f722e00000000000000000000000000000000006064820152608401610a61565b8051600090815260086020818152604083208381556001810180546001600160a01b0319908116909155600282018054821690556003820185905560048201859055600582018590556006820185905560078201805490911690559182018390556009820192909255600a01805461ffff1916905581015160c0820151612cb991309184612968565b6001612cc361241a565b8251602080850151604080516001600160a01b0392831681526000938101939093529316927f572cdc5ca5e918473319d0f4737494e4709ac879a7d0bcd11ce1bef24b24e81d910160405180910390a450565b600081604001518260800151612d2c91906153d3565b600060c085018181524260a0870190815286518352600860208181526040948590208951815590890151600180830180546001600160a01b039384166001600160a01b031991821617909155968b015160028401805491841691891691909117905560608b0151600384015560808b01516004840155935160058301559351600682015560e089015160078201805491909516951694909417909255610100870151918301919091556101208601516009830155610140860151600a8301805494955087949192909160ff1916908381811115612e0b57612e0b6151ae565b0217905550610160820151600a8201805461ff001916610100836001811115612e3657612e366151ae565b02179055505060006080840181815285518252600a602090815260409283902086518155818701516001820180546001600160a01b03199081166001600160a01b03938416179091559488015160028301556060880151600383018054909616911617909355905160049092019190915584015160e0850151612ebe92503091908487613bca565b6000612ec861241a565b6001600160a01b031684600001517f572cdc5ca5e918473319d0f4737494e4709ac879a7d0bcd11ce1bef24b24e81d86602001518660200151604051612f249291906001600160a01b0392831681529116602082015260400190565b60405180910390a4505050565b600081604001519050428360a0018181525050600082604001818152505081600a6000856000015181526020019081526020016000206000820151816000015560208201518160010160006101000a8154816001600160a01b0302191690836001600160a01b031602179055506040820151816002015560608201518160030160006101000a8154816001600160a01b0302191690836001600160a01b03160217905550608082015181600401559050508260086000856000015181526020019081526020016000206000820151816000015560208201518160010160006101000a8154816001600160a01b0302191690836001600160a01b0316021790555060408201518160020160006101000a8154816001600160a01b0302191690836001600160a01b03160217905550606082015181600301556080820151816004015560a0820151816005015560c0820151816006015560e08201518160070160006101000a8154816001600160a01b0302191690836001600160a01b031602179055506101008201518160080155610120820151816009015561014082015181600a0160006101000a81548160ff021916908360018111156130f4576130f46151ae565b0217905550610160820151600a8201805461ff00191661010083600181111561311f5761311f6151ae565b0217905550905050612ebe3083602001518386612968565b60006111b08383613dcd565b61314e858583613df7565b808560c00181815161316091906154f8565b90525084516000908152600860208181526040928390208851815590880151600180830180546001600160a01b03199081166001600160a01b0394851617909155948a0151600284018054871691841691909117905560608a0151600384015560808a0151600484015560a08a0151600584015560c08a0151600684015560e08a0151600784018054909616921691909117909355610100880151918101919091556101208701516009820155610140870151600a82018054899460ff19909116908381811115613233576132336151ae565b0217905550610160820151600a8201805461ff00191661010083600181111561325e5761325e6151ae565b0217905550905050613277848660200151858589613bca565b6132878560200151858388612968565b602080860151604080880151885182516001600160a01b038a81168252958101879052928301879052928416931691907f306e6cde5eb293794d557a3a6c844de939e6206b05e6910451c512852bf654a5906060015b60405180910390a45050505050565b60606111b0838360405180606001604052806027815260200161562a60279139614071565b81516000908152600a60209081526040808320815160a0810183528154815260018201546001600160a01b0390811694820194909452600282015492810183905260038201549093166060840152600401546080830181905291929161337791906153d3565b905060008360400151846080015161338f91906153d3565b90506133b08560c001518661010001516133a991906153d3565b838361415c565b6133fc5760405162461bcd60e51b815260206004820152601d60248201527f4d61726b6574706c6163653a206e6f742077696e6e696e67206269642e0000006044820152606401610a61565b600085610120015111801561342557508460c0015185610120015161342191906153d3565b8110155b15613439576134348585612f31565b6136da565b84516000908152600a602090815260409182902086518155908601516001820180546001600160a01b03199081166001600160a01b03938416179091559287015160028301556060870151600383018054909416911617909155608085015160049091015560075460a0860151690100000000000000000090910467ffffffffffffffff16906134ca9042906154f8565b116136025760075460a086018051690100000000000000000090920467ffffffffffffffff16916134fc9083906152f2565b90525084516000908152600860208181526040928390208851815590880151600180830180546001600160a01b03199081166001600160a01b0394851617909155948a0151600284018054871691841691909117905560608a0151600384015560808a0151600484015560a08a0151600584015560c08a0151600684015560e08a0151600784018054909616921691909117909355610100880151918101919091556101208701516009820155610140870151600a82018054899460ff199091169083818111156135cf576135cf6151ae565b0217905550610160820151600a8201805461ff0019166101008360018111156135fa576135fa6151ae565b021790555050505b60208301516001600160a01b03161580159061361e5750600082115b15613637576136378560e00151308560200151856141b9565b61364b8560e00151856020015130846141b9565b8461016001516001811115613662576136626151ae565b84602001516001600160a01b031686600001517f8a412352601a288b3de40254a9de2ab14a497aa3638a7e558480680a56e2705d8760400151886040015189608001516136af91906153d3565b6060808b01516040805194855260208501939093526001600160a01b031691830191909152016132dd565b5050505050565b8160c001518160400151111580156136fd575060008260c00151115b61376f5760405162461bcd60e51b815260206004820152602c60248201527f4d61726b6574706c6163653a20696e73756666696369656e7420746f6b656e7360448201527f20696e206c697374696e672e00000000000000000000000000000000000000006064820152608401610a61565b613795816020015182606001518360400151846080015161379091906153d3565b614411565b8151600090815260096020908152604080832082850180516001600160a01b0390811686529190935292819020845181559151600180840180549286166001600160a01b0319938416179055918501516002840155606085015160038401805491909516911617909255608083015160049091015561016083015190811115613820576138206151ae565b81602001516001600160a01b031683600001517f8a412352601a288b3de40254a9de2ab14a497aa3638a7e558480680a56e2705d84604001518560400151866080015161386d91906153d3565b6060878101516040805194855260208501939093526001600160a01b0316838301529051918290030190a45050565b60006109b4825490565b6000828152602081905260409020600101546138c481612ad861241a565b610dcc8383613a3a565b6000828152602081815260408083206001600160a01b038516845290915290205460ff166123fd576000828152602081815260408083206001600160a01b03851684529091529020805460ff1916600117905561392961241a565b6001600160a01b0316816001600160a01b0316837f2f8788117e7eff1d82e926ec794901d17c78024a50270940304540a733656f0d60405160405180910390a45050565b60008181526001830160205260408120546139b4575081546001818101845560008481526020808220909301849055845484825282860190935260409020919091556109b4565b5060006109b4565b6000828152602081815260408083206001600160a01b038516845290915290205460ff166123fd576139f8816001600160a01b0316601461458d565b613a0383602061458d565b604051602001613a1492919061550f565b60408051601f198184030181529082905262461bcd60e51b8252610a619160040161513c565b6000828152602081815260408083206001600160a01b038516845290915290205460ff16156123fd576000828152602081815260408083206001600160a01b03851684529091529020805460ff19169055613a9361241a565b6001600160a01b0316816001600160a01b0316837ff6391f5c32d9c69d2a47ea670b442974b53935d1edc7fd64eb21e047a839171b60405160405180910390a45050565b60008181526001830160205260408120548015613bc0576000613afb6001836154f8565b8554909150600090613b0f906001906154f8565b9050818114613b74576000866000018281548110613b2f57613b2f615428565b9060005260206000200154905080876000018481548110613b5257613b52615428565b6000918252602080832090910192909255918252600188019052604090208390555b8554869080613b8557613b85615590565b6001900381819060005260206000200160009055905585600101600086815260200190815260200160002060009055600193505050506109b4565b60009150506109b4565b60075460009061271090613bed90610100900467ffffffffffffffff16856153d3565b613bf791906155a6565b6004805460405163f2aab4b360e01b81523092810192909252919250613c8491869189916001600160a01b03169063f2aab4b39060240160206040518083038186803b158015613c4657600080fd5b505afa158015613c5a573d6000803e3d6000fd5b505050506040513d601f19601f82011682018060405250810190613c7e91906154db565b846141b9565b6000613c9082856154f8565b6040808501516060860151915163152a902d60e11b81529293506001600160a01b031691632a55205a91613cd1918890600401918252602082015260400190565b604080518083038186803b158015613ce857600080fd5b505afa925050508015613d18575060408051601f3d908101601f19168201909252613d15918101906155c8565b60015b613d2157613dc1565b8015613dbe5785613d3285836152f2565b1115613da65760405162461bcd60e51b815260206004820152603060248201527f4d61726b6574706c6163653a20546f74616c206d61726b65742066656573206560448201527f7863656564207468652070726963652e000000000000000000000000000000006064820152608401610a61565b613db081846154f8565b9250613dbe878a84846141b9565b50505b61295f858888846141b9565b6000826000018281548110613de457613de4615428565b9060005260206000200154905092915050565b60008361016001516001811115613e1057613e106151ae565b14613e835760405162461bcd60e51b815260206004820152602560248201527f4d61726b6574706c6163653a2063616e6e6f74206275792066726f6d206c697360448201527f74696e672e0000000000000000000000000000000000000000000000000000006064820152608401610a61565b60008360c00151118015613e975750600081115b8015613ea757508260c001518111155b613f195760405162461bcd60e51b815260206004820152602d60248201527f4d61726b6574706c6163653a20627579696e6720696e76616c696420616d6f7560448201527f6e74206f6620746f6b656e732e000000000000000000000000000000000000006064820152608401610a61565b8260a0015142108015613f2f5750826080015142115b613f875760405162461bcd60e51b8152602060048201526024808201527f4d61726b6574706c6163653a206e6f742077697468696e2073616c652077696e6044820152633237bb9760e11b6064820152608401610a61565b60e08301516001600160a01b031673eeeeeeeeeeeeeeeeeeeeeeeeeeeeeeeeeeeeeeee141561403957610120830151613fc090826153d3565b34146140345760405162461bcd60e51b815260206004820152603860248201527f4d61726b6574706c6163653a20696e73756666696369656e742063757272656e60448201527f63792062616c616e6365206f7220616c6c6f77616e63652e00000000000000006064820152608401610a61565b614053565b614053828460e001518561012001518461379091906153d3565b610dcc83602001518460400151856060015184876101400151612605565b6060833b6140e75760405162461bcd60e51b815260206004820152602660248201527f416464726573733a2064656c65676174652063616c6c20746f206e6f6e2d636f60448201527f6e747261637400000000000000000000000000000000000000000000000000006064820152608401610a61565b600080856001600160a01b03168560405161410291906155f6565b600060405180830381855af49150503d806000811461413d576040519150601f19603f3d011682016040523d82523d6000602084013e614142565b606091505b5091509150614152828286614736565b9695505050505050565b600082156141ac5782821180156141a75750600754600160881b900467ffffffffffffffff168361271061419082866154f8565b61419a91906153d3565b6141a491906155a6565b10155b6141b1565b838210155b949350505050565b6001600160a01b03841673eeeeeeeeeeeeeeeeeeeeeeeeeeeeeeeeeeeeeeee1415614405576001600160a01b0383163014156142fc57604051632e1a7d4d60e01b8152600481018290527f00000000000000000000000000000000000000000000000000000000000000006001600160a01b031690632e1a7d4d90602401600060405180830381600087803b15801561425157600080fd5b505af1158015614265573d6000803e3d6000fd5b50505050614273828261476f565b6142f7577f00000000000000000000000000000000000000000000000000000000000000006001600160a01b031663d0e30db0826040518263ffffffff1660e01b81526004016000604051808303818588803b1580156142d257600080fd5b505af11580156142e6573d6000803e3d6000fd5b50505050506142f7843084846147e5565b612ab4565b6001600160a01b0382163014156143fb573481146143825760405162461bcd60e51b815260206004820152603a60248201527f4d61726b6574706c6163653a206e617469766520746f6b656e2076616c75652060448201527f646f6573206e6f74206d617463682062696420616d6f756e742e0000000000006064820152608401610a61565b7f00000000000000000000000000000000000000000000000000000000000000006001600160a01b031663d0e30db0826040518263ffffffff1660e01b81526004016000604051808303818588803b1580156143dd57600080fd5b505af11580156143f1573d6000803e3d6000fd5b5050505050612ab4565b614273828261476f565b612ab4848484846147e5565b6040516370a0823160e01b81526001600160a01b0384811660048301528291908416906370a082319060240160206040518083038186803b15801561445557600080fd5b505afa158015614469573d6000803e3d6000fd5b505050506040513d601f19601f8201168201806040525081019061448d91906153f2565b1015801561451b5750604051636eb1769f60e11b81526001600160a01b03848116600483015230602483015282919084169063dd62ed3e9060440160206040518083038186803b1580156144e057600080fd5b505afa1580156144f4573d6000803e3d6000fd5b505050506040513d601f19601f8201168201806040525081019061451891906153f2565b10155b610dcc5760405162461bcd60e51b815260206004820152603860248201527f4d61726b6574706c6163653a20696e73756666696369656e742063757272656e60448201527f63792062616c616e6365206f7220616c6c6f77616e63652e00000000000000006064820152608401610a61565b6060600061459c8360026153d3565b6145a79060026152f2565b67ffffffffffffffff8111156145bf576145bf614c48565b6040519080825280601f01601f1916602001820160405280156145e9576020820181803683370190505b509050600360fc1b8160008151811061460457614604615428565b60200101906001600160f81b031916908160001a905350600f60fb1b8160018151811061463357614633615428565b60200101906001600160f81b031916908160001a90535060006146578460026153d3565b6146629060016152f2565b90505b60018111156146e7577f303132333435363738396162636465660000000000000000000000000000000085600f16601081106146a3576146a3615428565b1a60f81b8282815181106146b9576146b9615428565b60200101906001600160f81b031916908160001a90535060049490941c936146e081615612565b9050614665565b5083156111b05760405162461bcd60e51b815260206004820181905260248201527f537472696e67733a20686578206c656e67746820696e73756666696369656e746044820152606401610a61565b606083156147455750816111b0565b8251156147555782518084602001fd5b8160405162461bcd60e51b8152600401610a61919061513c565b604080516000808252602082019092526001600160a01b03841690839060405161479991906155f6565b60006040518083038185875af1925050503d80600081146147d6576040519150601f19603f3d011682016040523d82523d6000602084013e6147db565b606091505b5090949350505050565b6001600160a01b0383163014156148785760405163095ea7b360e01b8152306004820152602481018290526001600160a01b0385169063095ea7b390604401602060405180830381600087803b15801561483e57600080fd5b505af1158015614852573d6000803e3d6000fd5b505050506040513d601f19601f82011682018060405250810190614876919061540b565b505b6040516370a0823160e01b81526001600160a01b038381166004830152600091908616906370a082319060240160206040518083038186803b1580156148bd57600080fd5b505afa1580156148d1573d6000803e3d6000fd5b505050506040513d601f19601f820116820180604052508101906148f591906153f2565b6040516323b872dd60e01b81526001600160a01b0386811660048301528581166024830152604482018590529192506000918716906323b872dd90606401602060405180830381600087803b15801561494d57600080fd5b505af1158015614961573d6000803e3d6000fd5b505050506040513d601f19601f82011682018060405250810190614985919061540b565b6040516370a0823160e01b81526001600160a01b0386811660048301529192506000918816906370a082319060240160206040518083038186803b1580156149cc57600080fd5b505afa1580156149e0573d6000803e3d6000fd5b505050506040513d601f19601f82011682018060405250810190614a0491906153f2565b9050818015614a1b5750614a1884846152f2565b81145b61295f5760405162461bcd60e51b815260206004820152602960248201527f4d61726b6574706c6163653a206661696c656420746f207472616e736665722060448201527f63757272656e63792e00000000000000000000000000000000000000000000006064820152608401610a61565b828054614a99906154a0565b90600052602060002090601f016020900481019282614abb5760008555614b01565b82601f10614ad45782800160ff19823516178555614b01565b82800160010185558215614b01579182015b82811115614b01578235825591602001919060010190614ae6565b50614b0d929150614b11565b5090565b5b80821115614b0d5760008155600101614b12565b600060208284031215614b3857600080fd5b81356001600160e01b0319811681146111b057600080fd5b6001600160a01b0381168114614b6557600080fd5b50565b80356125c981614b50565b60008083601f840112614b8557600080fd5b50813567ffffffffffffffff811115614b9d57600080fd5b602083019150836020828501011115614bb557600080fd5b9250929050565b600080600080600060808688031215614bd457600080fd5b8535614bdf81614b50565b94506020860135614bef81614b50565b935060408601359250606086013567ffffffffffffffff811115614c1257600080fd5b614c1e88828901614b73565b969995985093965092949392505050565b600060208284031215614c4157600080fd5b5035919050565b634e487b7160e01b600052604160045260246000fd5b604051610120810167ffffffffffffffff81118282101715614c8257614c82614c48565b60405290565b604051601f8201601f1916810167ffffffffffffffff81118282101715614cb157614cb1614c48565b604052919050565b8035600281106125c957600080fd5b60006101208284031215614cdb57600080fd5b614ce3614c5e565b614cec83614b68565b815260208301356020820152604083013560408201526060830135606082015260808301356080820152614d2260a08401614b68565b60a082015260c083013560c082015260e083013560e0820152610100614d49818501614cb9565b908201529392505050565b60008060408385031215614d6757600080fd5b823591506020830135614d7981614b50565b809150509250929050565b8015158114614b6557600080fd5b600060208284031215614da457600080fd5b81356111b081614d84565b600060208284031215614dc157600080fd5b81356111b081614b50565b60008060408385031215614ddf57600080fd5b50508035926020909101359150565b60008060208385031215614e0157600080fd5b823567ffffffffffffffff811115614e1857600080fd5b614e2485828601614b73565b90969095509350505050565b60008060208385031215614e4357600080fd5b823567ffffffffffffffff80821115614e5b57600080fd5b818501915085601f830112614e6f57600080fd5b813581811115614e7e57600080fd5b8660208260051b8501011115614e9357600080fd5b60209290920196919550909350505050565b60005b83811015614ec0578181015183820152602001614ea8565b83811115612ab45750506000910152565b60008151808452614ee9816020860160208601614ea5565b601f01601f19169290920160200192915050565b6000602080830181845280855180835260408601915060408160051b870101925083870160005b82811015614f5257603f19888603018452614f40858351614ed1565b94509285019290850190600101614f24565b5092979650505050505050565b60008060008060808587031215614f7557600080fd5b84359350602085013592506040850135614f8e81614b50565b9396929550929360600135925050565b600082601f830112614faf57600080fd5b8135602067ffffffffffffffff821115614fcb57614fcb614c48565b8160051b614fda828201614c88565b9283528481018201928281019087851115614ff457600080fd5b83870192505b8483101561501357823582529183019190830190614ffa565b979650505050505050565b600082601f83011261502f57600080fd5b813567ffffffffffffffff81111561504957615049614c48565b61505c601f8201601f1916602001614c88565b81815284602083860101111561507157600080fd5b816020850160208301376000918101602001919091529392505050565b600080600080600060a086880312156150a657600080fd5b85356150b181614b50565b945060208601356150c181614b50565b9350604086013567ffffffffffffffff808211156150de57600080fd5b6150ea89838a01614f9e565b9450606088013591508082111561510057600080fd5b61510c89838a01614f9e565b9350608088013591508082111561512257600080fd5b5061512f8882890161501e565b9150509295509295909350565b6020815260006111b06020830184614ed1565b600080600080600080600060e0888a03121561516a57600080fd5b87359650602088013595506040880135945060608801359350608088013561519181614b50565b9699959850939692959460a0840135945060c09093013592915050565b634e487b7160e01b600052602160045260246000fd5b60028110614b6557634e487b7160e01b600052602160045260246000fd5b6151eb816151c4565b9052565b6000610180820190508d82526001600160a01b03808e166020840152808d1660408401528b60608401528a60808401528960a08401528860c084015280881660e084015250856101008301528461012083015261524b846151c4565b8361014083015261525b836151c4565b826101608301529d9c50505050505050505050505050565b600080600080600060a0868803121561528b57600080fd5b853561529681614b50565b945060208601356152a681614b50565b93506040860135925060608601359150608086013567ffffffffffffffff8111156152d057600080fd5b61512f8882890161501e565b634e487b7160e01b600052601160045260246000fd5b60008219821115615305576153056152dc565b500190565b8151815260208083015161018083019161532e908401826001600160a01b03169052565b50604083015161534960408401826001600160a01b03169052565b50606083015160608301526080830151608083015260a083015160a083015260c083015160c083015260e083015161538c60e08401826001600160a01b03169052565b5061010083810151908301526101208084015190830152610140808401516153b6828501826151e2565b5050610160808401516153cb828501826151e2565b505092915050565b60008160001904831182151516156153ed576153ed6152dc565b500290565b60006020828403121561540457600080fd5b5051919050565b60006020828403121561541d57600080fd5b81516111b081614d84565b634e487b7160e01b600052603260045260246000fd5b6000808335601e1984360301811261545557600080fd5b83018035915067ffffffffffffffff82111561547057600080fd5b602001915036819003821315614bb557600080fd5b6000600019821415615499576154996152dc565b5060010190565b600181811c908216806154b457607f821691505b602082108114156154d557634e487b7160e01b600052602260045260246000fd5b50919050565b6000602082840312156154ed57600080fd5b81516111b081614b50565b60008282101561550a5761550a6152dc565b500390565b7f416363657373436f6e74726f6c3a206163636f756e7420000000000000000000815260008351615547816017850160208801614ea5565b7f206973206d697373696e6720726f6c65200000000000000000000000000000006017918401918201528351615584816028840160208801614ea5565b01602801949350505050565b634e487b7160e01b600052603160045260246000fd5b6000826155c357634e487b7160e01b600052601260045260246000fd5b500490565b600080604083850312156155db57600080fd5b82516155e681614b50565b6020939093015192949293505050565b60008251615608818460208701614ea5565b9190910192915050565b600081615621576156216152dc565b50600019019056fe416464726573733a206c6f772d6c6576656c2064656c65676174652063616c6c206661696c6564a164736f6c6343000809000a",
  "linkReferences": {},
  "deployedLinkReferences": {}
}