{
  "_format": "hh-sol-artifact-1",
  "contractName": "Marketplace",
  "sourceName": "contracts/v2/Marketplace.sol",
  "abi": [
    {
      "inputs": [
        {
          "internalType": "address payable",
          "name": "_controlCenter",
          "type": "address"
        },
        {
          "internalType": "address",
          "name": "_trustedForwarder",
          "type": "address"
        },
        {
          "internalType": "address",
          "name": "_nativeTokenWrapper",
          "type": "address"
        },
        {
          "internalType": "string",
          "name": "_uri",
          "type": "string"
        },
        {
          "internalType": "uint256",
          "name": "_marketFeeBps",
          "type": "uint256"
        }
      ],
      "stateMutability": "nonpayable",
      "type": "constructor"
    },
    {
      "anonymous": false,
      "inputs": [
        {
          "indexed": false,
          "internalType": "uint256",
          "name": "timeBuffer",
          "type": "uint256"
        },
        {
          "indexed": false,
          "internalType": "uint256",
          "name": "bidBufferBps",
          "type": "uint256"
        }
      ],
      "name": "AuctionBuffersUpdated",
      "type": "event"
    },
    {
      "anonymous": false,
      "inputs": [
        {
          "indexed": true,
          "internalType": "uint256",
          "name": "listingId",
          "type": "uint256"
        },
        {
          "indexed": true,
          "internalType": "address",
          "name": "closer",
          "type": "address"
        },
        {
          "indexed": true,
          "internalType": "bool",
          "name": "cancelled",
          "type": "bool"
        },
        {
          "indexed": false,
          "internalType": "address",
          "name": "auctionCreator",
          "type": "address"
        },
        {
          "indexed": false,
          "internalType": "address",
          "name": "winningBidder",
          "type": "address"
        }
      ],
      "name": "AuctionClosed",
      "type": "event"
    },
    {
      "anonymous": false,
      "inputs": [
        {
          "indexed": false,
          "internalType": "bool",
          "name": "restricted",
          "type": "bool"
        }
      ],
      "name": "ListingRestricted",
      "type": "event"
    },
    {
      "anonymous": false,
      "inputs": [
        {
          "indexed": true,
          "internalType": "uint256",
          "name": "listingId",
          "type": "uint256"
        },
        {
          "indexed": true,
          "internalType": "address",
          "name": "listingCreator",
          "type": "address"
        }
      ],
      "name": "ListingUpdate",
      "type": "event"
    },
    {
      "anonymous": false,
      "inputs": [
        {
          "indexed": false,
          "internalType": "uint64",
          "name": "newFee",
          "type": "uint64"
        }
      ],
      "name": "MarketFeeUpdate",
      "type": "event"
    },
    {
      "anonymous": false,
      "inputs": [
        {
          "indexed": false,
          "internalType": "address",
          "name": "from",
          "type": "address"
        },
        {
          "indexed": false,
          "internalType": "uint256",
          "name": "amount",
          "type": "uint256"
        }
      ],
      "name": "NativeTokensReceived",
      "type": "event"
    },
    {
      "anonymous": false,
      "inputs": [
        {
          "indexed": true,
          "internalType": "uint256",
          "name": "listingId",
          "type": "uint256"
        },
        {
          "indexed": true,
          "internalType": "address",
          "name": "assetContract",
          "type": "address"
        },
        {
          "indexed": true,
          "internalType": "address",
          "name": "seller",
          "type": "address"
        },
        {
          "components": [
            {
              "internalType": "uint256",
              "name": "listingId",
              "type": "uint256"
            },
            {
              "internalType": "address",
              "name": "tokenOwner",
              "type": "address"
            },
            {
              "internalType": "address",
              "name": "assetContract",
              "type": "address"
            },
            {
              "internalType": "uint256",
              "name": "tokenId",
              "type": "uint256"
            },
            {
              "internalType": "uint256",
              "name": "startTime",
              "type": "uint256"
            },
            {
              "internalType": "uint256",
              "name": "endTime",
              "type": "uint256"
            },
            {
              "internalType": "uint256",
              "name": "quantity",
              "type": "uint256"
            },
            {
              "internalType": "address",
              "name": "currency",
              "type": "address"
            },
            {
              "internalType": "uint256",
              "name": "reservePricePerToken",
              "type": "uint256"
            },
            {
              "internalType": "uint256",
              "name": "buyoutPricePerToken",
              "type": "uint256"
            },
            {
              "internalType": "enum IMarketplace.TokenType",
              "name": "tokenType",
              "type": "uint8"
            },
            {
              "internalType": "enum IMarketplace.ListingType",
              "name": "listingType",
              "type": "uint8"
            }
          ],
          "indexed": false,
          "internalType": "struct IMarketplace.Listing",
          "name": "listing",
          "type": "tuple"
        }
      ],
      "name": "NewListing",
      "type": "event"
    },
    {
      "anonymous": false,
      "inputs": [
        {
          "indexed": true,
          "internalType": "uint256",
          "name": "listingId",
          "type": "uint256"
        },
        {
          "indexed": true,
          "internalType": "address",
          "name": "offeror",
          "type": "address"
        },
        {
          "indexed": true,
          "internalType": "enum IMarketplace.ListingType",
          "name": "listingType",
          "type": "uint8"
        },
        {
          "indexed": false,
          "internalType": "uint256",
          "name": "quantityWanted",
          "type": "uint256"
        },
        {
          "indexed": false,
          "internalType": "uint256",
          "name": "totalOfferAmount",
          "type": "uint256"
        }
      ],
      "name": "NewOffer",
      "type": "event"
    },
    {
      "anonymous": false,
      "inputs": [
        {
          "indexed": true,
          "internalType": "uint256",
          "name": "listingId",
          "type": "uint256"
        },
        {
          "indexed": true,
          "internalType": "address",
          "name": "assetContract",
          "type": "address"
        },
        {
          "indexed": true,
          "internalType": "address",
          "name": "seller",
          "type": "address"
        },
        {
          "indexed": false,
          "internalType": "address",
          "name": "buyer",
          "type": "address"
        },
        {
          "indexed": false,
          "internalType": "uint256",
          "name": "quantityBought",
          "type": "uint256"
        },
        {
          "indexed": false,
          "internalType": "uint256",
          "name": "totalPricePaid",
          "type": "uint256"
        }
      ],
      "name": "NewSale",
      "type": "event"
    },
    {
      "anonymous": false,
      "inputs": [
        {
          "indexed": true,
          "internalType": "bytes32",
          "name": "role",
          "type": "bytes32"
        },
        {
          "indexed": true,
          "internalType": "bytes32",
          "name": "previousAdminRole",
          "type": "bytes32"
        },
        {
          "indexed": true,
          "internalType": "bytes32",
          "name": "newAdminRole",
          "type": "bytes32"
        }
      ],
      "name": "RoleAdminChanged",
      "type": "event"
    },
    {
      "anonymous": false,
      "inputs": [
        {
          "indexed": true,
          "internalType": "bytes32",
          "name": "role",
          "type": "bytes32"
        },
        {
          "indexed": true,
          "internalType": "address",
          "name": "account",
          "type": "address"
        },
        {
          "indexed": true,
          "internalType": "address",
          "name": "sender",
          "type": "address"
        }
      ],
      "name": "RoleGranted",
      "type": "event"
    },
    {
      "anonymous": false,
      "inputs": [
        {
          "indexed": true,
          "internalType": "bytes32",
          "name": "role",
          "type": "bytes32"
        },
        {
          "indexed": true,
          "internalType": "address",
          "name": "account",
          "type": "address"
        },
        {
          "indexed": true,
          "internalType": "address",
          "name": "sender",
          "type": "address"
        }
      ],
      "name": "RoleRevoked",
      "type": "event"
    },
    {
      "inputs": [],
      "name": "DEFAULT_ADMIN_ROLE",
      "outputs": [
        {
          "internalType": "bytes32",
          "name": "",
          "type": "bytes32"
        }
      ],
      "stateMutability": "view",
      "type": "function"
    },
    {
      "inputs": [],
      "name": "LISTER_ROLE",
      "outputs": [
        {
          "internalType": "bytes32",
          "name": "",
          "type": "bytes32"
        }
      ],
      "stateMutability": "view",
      "type": "function"
    },
    {
      "inputs": [],
      "name": "MAX_BPS",
      "outputs": [
        {
          "internalType": "uint64",
          "name": "",
          "type": "uint64"
        }
      ],
      "stateMutability": "view",
      "type": "function"
    },
    {
      "inputs": [],
      "name": "_contractURI",
      "outputs": [
        {
          "internalType": "string",
          "name": "",
          "type": "string"
        }
      ],
      "stateMutability": "view",
      "type": "function"
    },
    {
      "inputs": [
        {
          "internalType": "uint256",
          "name": "_listingId",
          "type": "uint256"
        },
        {
          "internalType": "address",
          "name": "offeror",
          "type": "address"
        }
      ],
      "name": "acceptOffer",
      "outputs": [],
      "stateMutability": "nonpayable",
      "type": "function"
    },
    {
      "inputs": [],
      "name": "bidBufferBps",
      "outputs": [
        {
          "internalType": "uint64",
          "name": "",
          "type": "uint64"
        }
      ],
      "stateMutability": "view",
      "type": "function"
    },
    {
      "inputs": [
        {
          "internalType": "uint256",
          "name": "_listingId",
          "type": "uint256"
        },
        {
          "internalType": "uint256",
          "name": "_quantityToBuy",
          "type": "uint256"
        }
      ],
      "name": "buy",
      "outputs": [],
      "stateMutability": "payable",
      "type": "function"
    },
    {
      "inputs": [
        {
          "internalType": "uint256",
          "name": "_listingId",
          "type": "uint256"
        },
        {
          "internalType": "address",
          "name": "_closeFor",
          "type": "address"
        }
      ],
      "name": "closeAuction",
      "outputs": [],
      "stateMutability": "nonpayable",
      "type": "function"
    },
    {
      "inputs": [],
      "name": "contractURI",
      "outputs": [
        {
          "internalType": "string",
          "name": "",
          "type": "string"
        }
      ],
      "stateMutability": "view",
      "type": "function"
    },
    {
      "inputs": [
        {
          "components": [
            {
              "internalType": "address",
              "name": "assetContract",
              "type": "address"
            },
            {
              "internalType": "uint256",
              "name": "tokenId",
              "type": "uint256"
            },
            {
              "internalType": "uint256",
              "name": "startTime",
              "type": "uint256"
            },
            {
              "internalType": "uint256",
              "name": "secondsUntilEndTime",
              "type": "uint256"
            },
            {
              "internalType": "uint256",
              "name": "quantityToList",
              "type": "uint256"
            },
            {
              "internalType": "address",
              "name": "currencyToAccept",
              "type": "address"
            },
            {
              "internalType": "uint256",
              "name": "reservePricePerToken",
              "type": "uint256"
            },
            {
              "internalType": "uint256",
              "name": "buyoutPricePerToken",
              "type": "uint256"
            },
            {
              "internalType": "enum IMarketplace.ListingType",
              "name": "listingType",
              "type": "uint8"
            }
          ],
          "internalType": "struct IMarketplace.ListingParameters",
          "name": "_params",
          "type": "tuple"
        }
      ],
      "name": "createListing",
      "outputs": [],
      "stateMutability": "nonpayable",
      "type": "function"
    },
    {
      "inputs": [
        {
          "internalType": "bytes32",
          "name": "role",
          "type": "bytes32"
        }
      ],
      "name": "getRoleAdmin",
      "outputs": [
        {
          "internalType": "bytes32",
          "name": "",
          "type": "bytes32"
        }
      ],
      "stateMutability": "view",
      "type": "function"
    },
    {
      "inputs": [
        {
          "internalType": "bytes32",
          "name": "role",
          "type": "bytes32"
        },
        {
          "internalType": "uint256",
          "name": "index",
          "type": "uint256"
        }
      ],
      "name": "getRoleMember",
      "outputs": [
        {
          "internalType": "address",
          "name": "",
          "type": "address"
        }
      ],
      "stateMutability": "view",
      "type": "function"
    },
    {
      "inputs": [
        {
          "internalType": "bytes32",
          "name": "role",
          "type": "bytes32"
        }
      ],
      "name": "getRoleMemberCount",
      "outputs": [
        {
          "internalType": "uint256",
          "name": "",
          "type": "uint256"
        }
      ],
      "stateMutability": "view",
      "type": "function"
    },
    {
      "inputs": [
        {
          "internalType": "bytes32",
          "name": "role",
          "type": "bytes32"
        },
        {
          "internalType": "address",
          "name": "account",
          "type": "address"
        }
      ],
      "name": "grantRole",
      "outputs": [],
      "stateMutability": "nonpayable",
      "type": "function"
    },
    {
      "inputs": [
        {
          "internalType": "bytes32",
          "name": "role",
          "type": "bytes32"
        },
        {
          "internalType": "address",
          "name": "account",
          "type": "address"
        }
      ],
      "name": "hasRole",
      "outputs": [
        {
          "internalType": "bool",
          "name": "",
          "type": "bool"
        }
      ],
      "stateMutability": "view",
      "type": "function"
    },
    {
      "inputs": [
        {
          "internalType": "address",
          "name": "forwarder",
          "type": "address"
        }
      ],
      "name": "isTrustedForwarder",
      "outputs": [
        {
          "internalType": "bool",
          "name": "",
          "type": "bool"
        }
      ],
      "stateMutability": "view",
      "type": "function"
    },
    {
      "inputs": [
        {
          "internalType": "uint256",
          "name": "",
          "type": "uint256"
        }
      ],
      "name": "listings",
      "outputs": [
        {
          "internalType": "uint256",
          "name": "listingId",
          "type": "uint256"
        },
        {
          "internalType": "address",
          "name": "tokenOwner",
          "type": "address"
        },
        {
          "internalType": "address",
          "name": "assetContract",
          "type": "address"
        },
        {
          "internalType": "uint256",
          "name": "tokenId",
          "type": "uint256"
        },
        {
          "internalType": "uint256",
          "name": "startTime",
          "type": "uint256"
        },
        {
          "internalType": "uint256",
          "name": "endTime",
          "type": "uint256"
        },
        {
          "internalType": "uint256",
          "name": "quantity",
          "type": "uint256"
        },
        {
          "internalType": "address",
          "name": "currency",
          "type": "address"
        },
        {
          "internalType": "uint256",
          "name": "reservePricePerToken",
          "type": "uint256"
        },
        {
          "internalType": "uint256",
          "name": "buyoutPricePerToken",
          "type": "uint256"
        },
        {
          "internalType": "enum IMarketplace.TokenType",
          "name": "tokenType",
          "type": "uint8"
        },
        {
          "internalType": "enum IMarketplace.ListingType",
          "name": "listingType",
          "type": "uint8"
        }
      ],
      "stateMutability": "view",
      "type": "function"
    },
    {
      "inputs": [],
      "name": "marketFeeBps",
      "outputs": [
        {
          "internalType": "uint64",
          "name": "",
          "type": "uint64"
        }
      ],
      "stateMutability": "view",
      "type": "function"
    },
    {
      "inputs": [
        {
          "internalType": "bytes[]",
          "name": "data",
          "type": "bytes[]"
        }
      ],
      "name": "multicall",
      "outputs": [
        {
          "internalType": "bytes[]",
          "name": "results",
          "type": "bytes[]"
        }
      ],
      "stateMutability": "nonpayable",
      "type": "function"
    },
    {
      "inputs": [],
      "name": "nativeToken",
      "outputs": [
        {
          "internalType": "address",
          "name": "",
          "type": "address"
        }
      ],
      "stateMutability": "view",
      "type": "function"
    },
    {
      "inputs": [],
      "name": "nativeTokenWrapper",
      "outputs": [
        {
          "internalType": "address",
          "name": "",
          "type": "address"
        }
      ],
      "stateMutability": "view",
      "type": "function"
    },
    {
      "inputs": [
        {
          "internalType": "uint256",
          "name": "_listingId",
          "type": "uint256"
        },
        {
          "internalType": "uint256",
          "name": "_quantityWanted",
          "type": "uint256"
        },
        {
          "internalType": "address",
          "name": "_currency",
          "type": "address"
        },
        {
          "internalType": "uint256",
          "name": "_pricePerToken",
          "type": "uint256"
        }
      ],
      "name": "offer",
      "outputs": [],
      "stateMutability": "payable",
      "type": "function"
    },
    {
      "inputs": [
        {
          "internalType": "uint256",
          "name": "",
          "type": "uint256"
        },
        {
          "internalType": "address",
          "name": "",
          "type": "address"
        }
      ],
      "name": "offers",
      "outputs": [
        {
          "internalType": "uint256",
          "name": "listingId",
          "type": "uint256"
        },
        {
          "internalType": "address",
          "name": "offeror",
          "type": "address"
        },
        {
          "internalType": "uint256",
          "name": "quantityWanted",
          "type": "uint256"
        },
        {
          "internalType": "address",
          "name": "currency",
          "type": "address"
        },
        {
          "internalType": "uint256",
          "name": "pricePerToken",
          "type": "uint256"
        }
      ],
      "stateMutability": "view",
      "type": "function"
    },
    {
      "inputs": [
        {
          "internalType": "address",
          "name": "",
          "type": "address"
        },
        {
          "internalType": "address",
          "name": "",
          "type": "address"
        },
        {
          "internalType": "uint256[]",
          "name": "",
          "type": "uint256[]"
        },
        {
          "internalType": "uint256[]",
          "name": "",
          "type": "uint256[]"
        },
        {
          "internalType": "bytes",
          "name": "",
          "type": "bytes"
        }
      ],
      "name": "onERC1155BatchReceived",
      "outputs": [
        {
          "internalType": "bytes4",
          "name": "",
          "type": "bytes4"
        }
      ],
      "stateMutability": "nonpayable",
      "type": "function"
    },
    {
      "inputs": [
        {
          "internalType": "address",
          "name": "",
          "type": "address"
        },
        {
          "internalType": "address",
          "name": "",
          "type": "address"
        },
        {
          "internalType": "uint256",
          "name": "",
          "type": "uint256"
        },
        {
          "internalType": "uint256",
          "name": "",
          "type": "uint256"
        },
        {
          "internalType": "bytes",
          "name": "",
          "type": "bytes"
        }
      ],
      "name": "onERC1155Received",
      "outputs": [
        {
          "internalType": "bytes4",
          "name": "",
          "type": "bytes4"
        }
      ],
      "stateMutability": "nonpayable",
      "type": "function"
    },
    {
      "inputs": [
        {
          "internalType": "address",
          "name": "",
          "type": "address"
        },
        {
          "internalType": "address",
          "name": "",
          "type": "address"
        },
        {
          "internalType": "uint256",
          "name": "",
          "type": "uint256"
        },
        {
          "internalType": "bytes",
          "name": "",
          "type": "bytes"
        }
      ],
      "name": "onERC721Received",
      "outputs": [
        {
          "internalType": "bytes4",
          "name": "",
          "type": "bytes4"
        }
      ],
      "stateMutability": "pure",
      "type": "function"
    },
    {
      "inputs": [
        {
          "internalType": "bytes32",
          "name": "role",
          "type": "bytes32"
        },
        {
          "internalType": "address",
          "name": "account",
          "type": "address"
        }
      ],
      "name": "renounceRole",
      "outputs": [],
      "stateMutability": "nonpayable",
      "type": "function"
    },
    {
      "inputs": [],
      "name": "restrictedListerRoleOnly",
      "outputs": [
        {
          "internalType": "bool",
          "name": "",
          "type": "bool"
        }
      ],
      "stateMutability": "view",
      "type": "function"
    },
    {
      "inputs": [
        {
          "internalType": "bytes32",
          "name": "role",
          "type": "bytes32"
        },
        {
          "internalType": "address",
          "name": "account",
          "type": "address"
        }
      ],
      "name": "revokeRole",
      "outputs": [],
      "stateMutability": "nonpayable",
      "type": "function"
    },
    {
      "inputs": [
        {
          "internalType": "uint256",
          "name": "_timeBuffer",
          "type": "uint256"
        },
        {
          "internalType": "uint256",
          "name": "_bidBufferBps",
          "type": "uint256"
        }
      ],
      "name": "setAuctionBuffers",
      "outputs": [],
      "stateMutability": "nonpayable",
      "type": "function"
    },
    {
      "inputs": [
        {
          "internalType": "string",
          "name": "_uri",
          "type": "string"
        }
      ],
      "name": "setContractURI",
      "outputs": [],
      "stateMutability": "nonpayable",
      "type": "function"
    },
    {
      "inputs": [
        {
          "internalType": "uint256",
          "name": "_feeBps",
          "type": "uint256"
        }
      ],
      "name": "setMarketFeeBps",
      "outputs": [],
      "stateMutability": "nonpayable",
      "type": "function"
    },
    {
      "inputs": [
        {
          "internalType": "bool",
          "name": "restricted",
          "type": "bool"
        }
      ],
      "name": "setRestrictedListerRoleOnly",
      "outputs": [],
      "stateMutability": "nonpayable",
      "type": "function"
    },
    {
      "inputs": [
        {
          "internalType": "bytes4",
          "name": "interfaceId",
          "type": "bytes4"
        }
      ],
      "name": "supportsInterface",
      "outputs": [
        {
          "internalType": "bool",
          "name": "",
          "type": "bool"
        }
      ],
      "stateMutability": "view",
      "type": "function"
    },
    {
      "inputs": [],
      "name": "timeBuffer",
      "outputs": [
        {
          "internalType": "uint64",
          "name": "",
          "type": "uint64"
        }
      ],
      "stateMutability": "view",
      "type": "function"
    },
    {
      "inputs": [],
      "name": "totalListings",
      "outputs": [
        {
          "internalType": "uint256",
          "name": "",
          "type": "uint256"
        }
      ],
      "stateMutability": "view",
      "type": "function"
    },
    {
      "inputs": [
        {
          "internalType": "uint256",
          "name": "_listingId",
          "type": "uint256"
        },
        {
          "internalType": "uint256",
          "name": "_quantityToList",
          "type": "uint256"
        },
        {
          "internalType": "uint256",
          "name": "_reservePricePerToken",
          "type": "uint256"
        },
        {
          "internalType": "uint256",
          "name": "_buyoutPricePerToken",
          "type": "uint256"
        },
        {
          "internalType": "address",
          "name": "_currencyToAccept",
          "type": "address"
        },
        {
          "internalType": "uint256",
          "name": "_startTime",
          "type": "uint256"
        },
        {
          "internalType": "uint256",
          "name": "_secondsUntilEndTime",
          "type": "uint256"
        }
      ],
      "name": "updateListing",
      "outputs": [],
      "stateMutability": "nonpayable",
      "type": "function"
    },
    {
      "inputs": [
        {
          "internalType": "uint256",
          "name": "",
          "type": "uint256"
        }
      ],
      "name": "winningBid",
      "outputs": [
        {
          "internalType": "uint256",
          "name": "listingId",
          "type": "uint256"
        },
        {
          "internalType": "address",
          "name": "offeror",
          "type": "address"
        },
        {
          "internalType": "uint256",
          "name": "quantityWanted",
          "type": "uint256"
        },
        {
          "internalType": "address",
          "name": "currency",
          "type": "address"
        },
        {
          "internalType": "uint256",
          "name": "pricePerToken",
          "type": "uint256"
        }
      ],
      "stateMutability": "view",
      "type": "function"
    },
    {
      "stateMutability": "payable",
      "type": "receive"
    }
  ],
  "bytecode": "0x60a060405260078054600160481b600160c81b0319167201f400000000000003840000000000000000001790553480156200003957600080fd5b5060405162006404380380620064048339810160408190526200005c9162000395565b6001600255600380546001600160a01b0319166001600160a01b038616179055815162000091906006906020850190620002ef565b50600480546001600160a01b0319166001600160a01b038716179055606083901b6001600160601b03191660805260078054610100600160481b0319166101006001600160401b03841602179055620000f56000620000ef6200012f565b6200014b565b620001247ff94103142c1baabe9ac2b5d1487bf783de9e69cfeea9a72f5c9c94afd7877b8c620000ef6200012f565b505050505062000525565b6000620001466200018e60201b62002e8a1760201c565b905090565b620001628282620001c760201b62002eb21760201c565b60008281526001602090815260409091206200018991839062002ec0620001d7821b17901c565b505050565b6003546000906001600160a01b0316331415620001b2575060131936013560601c90565b62000146620001f760201b62002ed51760201c565b620001d38282620001fb565b5050565b6000620001ee836001600160a01b0384166200029d565b90505b92915050565b3390565b6000828152602081815260408083206001600160a01b038516845290915290205460ff16620001d3576000828152602081815260408083206001600160a01b03851684529091529020805460ff19166001179055620002596200012f565b6001600160a01b0316816001600160a01b0316837f2f8788117e7eff1d82e926ec794901d17c78024a50270940304540a733656f0d60405160405180910390a45050565b6000818152600183016020526040812054620002e657508154600181810184556000848152602080822090930184905584548482528286019093526040902091909155620001f1565b506000620001f1565b828054620002fd90620004b9565b90600052602060002090601f0160209004810192826200032157600085556200036c565b82601f106200033c57805160ff19168380011785556200036c565b828001600101855582156200036c579182015b828111156200036c5782518255916020019190600101906200034f565b506200037a9291506200037e565b5090565b5b808211156200037a57600081556001016200037f565b600080600080600060a08688031215620003ad578081fd5b8551620003ba816200050c565b80955050602080870151620003cf816200050c565b6040880151909550620003e2816200050c565b60608801519094506001600160401b0380821115620003ff578384fd5b818901915089601f83011262000413578384fd5b815181811115620004285762000428620004f6565b604051601f8201601f19908116603f01168101908382118183101715620004535762000453620004f6565b816040528281528c868487010111156200046b578687fd5b8693505b828410156200048e57848401860151818501870152928501926200046f565b828411156200049f57868684830101525b809750505050505050608086015190509295509295909350565b600181811c90821680620004ce57607f821691505b60208210811415620004f057634e487b7160e01b600052602260045260246000fd5b50919050565b634e487b7160e01b600052604160045260246000fd5b6001600160a01b03811681146200052257600080fd5b50565b60805160601c615ea46200056060003960008181610979015281816121ea01528181614a7f01528181614af30152614bfe0152615ea46000f3fe6080604052600436106102895760003560e01c8063bc197c8111610153578063deb26b94116100cb578063ebdfbce51161007f578063f23a6e6111610064578063f23a6e611461093b578063f9ea29cb14610967578063fd967f471461099b57600080fd5b8063ebdfbce5146108ad578063ec91f2a41461090d57600080fd5b8063e4104eaf116100b0578063e4104eaf14610858578063e8a3d48514610878578063ea0e02411461088d57600080fd5b8063deb26b94146107fc578063e1758bd81461083057600080fd5b8063ca15c87311610122578063d547741f11610107578063d547741f14610724578063d6febde814610744578063de74e57b1461075757600080fd5b8063ca15c8731461067d578063d4ac9b8c1461069d57600080fd5b8063bc197c81146105f9578063c0e7274014610625578063c4b5b15f14610647578063c78b616c1461066757600080fd5b8063572b6c051161020157806391d14854116101b5578063a217fddf1161019a578063a217fddf146105a4578063ac9650d8146105b9578063acb1ba67146105e657600080fd5b806391d1485414610540578063938e3d7b1461058457600080fd5b80636bab66ae116101e65780636bab66ae146104c85780639010d07c146104e8578063918d407d1461052057600080fd5b8063572b6c051461047f57806361096ec6146104ae57600080fd5b80632f2ff15d1161025857806336568abe1161023d57806336568abe146103f85780633f5c3e87146104185780634e03f28d1461045757600080fd5b80632f2ff15d146103b8578063354c7ab6146103d857600080fd5b806301ffc9a7146102de578063150b7a0214610313578063248a9ca314610358578063296f4e161461039657600080fd5b366102d9577f410eba6f268aeb1b263fbec6294fd6b86a7289f0a1b4afd5dd325c89ade8565c6102b76109b1565b604080516001600160a01b0390921682523460208301520160405180910390a1005b600080fd5b3480156102ea57600080fd5b506102fe6102f9366004615833565b6109c0565b60405190151581526020015b60405180910390f35b34801561031f57600080fd5b5061033f61032e366004615606565b630a85bd0160e11b95945050505050565b6040516001600160e01b0319909116815260200161030a565b34801561036457600080fd5b506103886103733660046157b3565b60009081526020819052604090206001015490565b60405190815260200161030a565b3480156103a257600080fd5b506103b66103b136600461589b565b610a12565b005b3480156103c457600080fd5b506103b66103d33660046157e3565b610e0b565b3480156103e457600080fd5b506103b66103f336600461577b565b610e32565b34801561040457600080fd5b506103b66104133660046157e3565b610ed3565b34801561042457600080fd5b5060075461043e90610100900467ffffffffffffffff1681565b60405167ffffffffffffffff909116815260200161030a565b34801561046357600080fd5b5060075461043e90600160881b900467ffffffffffffffff1681565b34801561048b57600080fd5b506102fe61049a366004615524565b6003546001600160a01b0391821691161490565b3480156104ba57600080fd5b506007546102fe9060ff1681565b3480156104d457600080fd5b506103b66104e33660046157e3565b610ef5565b3480156104f457600080fd5b50610508610503366004615812565b6116a2565b6040516001600160a01b03909116815260200161030a565b34801561052c57600080fd5b506103b661053b3660046157e3565b6116c1565b34801561054c57600080fd5b506102fe61055b3660046157e3565b6000918252602082815260408084206001600160a01b0393909316845291905290205460ff1690565b34801561059057600080fd5b506103b661059f36600461585b565b611c52565b3480156105b057600080fd5b50610388600081565b3480156105c557600080fd5b506105d96105d436600461570b565b611dd9565b60405161030a9190615a98565b6103b66105f4366004615926565b611ef8565b34801561060557600080fd5b5061033f61061436600461555c565b63bc197c8160e01b95945050505050565b34801561063157600080fd5b5061063a612244565b60405161030a9190615af9565b34801561065357600080fd5b506103b6610662366004615964565b6122d2565b34801561067357600080fd5b5061038860055481565b34801561068957600080fd5b506103886106983660046157b3565b6127de565b3480156106a957600080fd5b506106f26106b83660046157b3565b600a602052600090815260409020805460018201546002830154600384015460049094015492936001600160a01b03928316939192169085565b604080519586526001600160a01b0394851660208701528501929092529091166060830152608082015260a00161030a565b34801561073057600080fd5b506103b661073f3660046157e3565b6127f5565b6103b6610752366004615812565b6127ff565b34801561076357600080fd5b506107e46107723660046157b3565b600860208190526000918252604090912080546001820154600283015460038401546004850154600586015460068701546007880154988801546009890154600a9099015497996001600160a01b03978816999688169895979496939592941692909160ff808216916101009004168c565b60405161030a9c9b9a99989796959493929190615bd5565b34801561080857600080fd5b506103887ff94103142c1baabe9ac2b5d1487bf783de9e69cfeea9a72f5c9c94afd7877b8c81565b34801561083c57600080fd5b5061050873eeeeeeeeeeeeeeeeeeeeeeeeeeeeeeeeeeeeeeee81565b34801561086457600080fd5b506103b66108733660046157b3565b612b9a565b34801561088457600080fd5b5061063a612c9c565b34801561089957600080fd5b506103b66108a8366004615812565b612d2e565b3480156108b957600080fd5b506106f26108c83660046157e3565b60096020908152600092835260408084209091529082529020805460018201546002830154600384015460049094015492936001600160a01b03928316939192169085565b34801561091957600080fd5b5060075461043e906901000000000000000000900467ffffffffffffffff1681565b34801561094757600080fd5b5061033f610956366004615677565b63f23a6e6160e01b95945050505050565b34801561097357600080fd5b506105087f000000000000000000000000000000000000000000000000000000000000000081565b3480156109a757600080fd5b5061043e61271081565b60006109bb612e8a565b905090565b60006001600160e01b03198216630271189760e51b14806109f157506001600160e01b03198216630a85bd0160e11b145b80610a0c57506001600160e01b0319821663152a902d60e11b145b92915050565b60075460ff161580610a4b5750610a4b7ff94103142c1baabe9ac2b5d1487bf783de9e69cfeea9a72f5c9c94afd7877b8c61055b6109b1565b610ac25760405162461bcd60e51b815260206004820152602960248201527f4d61726b65743a2063616c6c657220646f6573206e6f742068617665204c495360448201527f5445525f524f4c452e000000000000000000000000000000000000000000000060648201526084015b60405180910390fd5b6000610acc612ed9565b90506000610ad86109b1565b90506000610ae98460000151612ef7565b905060008460800151118015610b195750610b198285600001518660200151876080015185896101000151613083565b610b7e5760405162461bcd60e51b815260206004820152603060248201527f4d61726b65743a206d757374206f776e20616e6420617070726f766520746f2060448201526f3a3930b739b332b9103a37b5b2b7399760811b6064820152608401610ab9565b6000604051806101800160405280858152602001846001600160a01b0316815260200186600001516001600160a01b031681526020018660200151815260200142876040015110610bd3578660400151610bd5565b425b81526020018660600151600014610bff5786606001518760400151610bfa9190615cf9565b610c03565b6000195b8152602001610c168488608001516134eb565b81526020018660a001516001600160a01b031681526020018660c0015181526020018660e001518152602001836001811115610c6257634e487b7160e01b600052602160045260246000fd5b81526020018661010001516001811115610c8c57634e487b7160e01b600052602160045260246000fd5b90526000858152600860208181526040928390208451815590840151600180830180546001600160a01b03199081166001600160a01b0394851617909155948601516002840180548716918416919091179055606086015160038401556080860151600484015560a0860151600584015560c0860151600684015560e0860151600784018054909616921691909117909355610100840151918101919091556101208301516009820155610140830151600a82018054949550859492939192909160ff19909116908381811115610d7357634e487b7160e01b600052602160045260246000fd5b0217905550610160820151600a8201805461ff001916610100836001811115610dac57634e487b7160e01b600052602160045260246000fd5b0217905550905050826001600160a01b031685600001516001600160a01b0316857f9e578277632a71dd17ab11c1f584c51deafef022c94389ecb050eb92713725f684604051610dfc9190615b0c565b60405180910390a45050505050565b610e158282613530565b6000828152600160205260409020610e2d9082612ec0565b505050565b610e3f600061055b6109b1565b610e8b5760405162461bcd60e51b815260206004820152601b60248201527f4d61726b65743a206e6f742061206d6f64756c652061646d696e2e00000000006044820152606401610ab9565b6007805460ff19168215159081179091556040519081527f80b4303f755d7d3d4d483a1580281ef7aaeb82947826a1dc63a6366875765cb0906020015b60405180910390a150565b610edd828261355d565b6000828152600160205260409020610e2d90826135f5565b600280541415610f475760405162461bcd60e51b815260206004820152601f60248201527f5265656e7472616e637947756172643a207265656e7472616e742063616c6c006044820152606401610ab9565b60028080556000838152600860208181526040808420815161018081018352815481526001808301546001600160a01b0390811695830195909552968201548416928101929092526003810154606083015260048101546080830152600581015460a0830152600681015460c0830152600781015490921660e0820152918101546101008301526009810154610120830152600a81015492939192909161014084019160ff169081111561100b57634e487b7160e01b600052602160045260246000fd5b600181111561102a57634e487b7160e01b600052602160045260246000fd5b8152602001600a820160019054906101000a900460ff16600181111561106057634e487b7160e01b600052602160045260246000fd5b600181111561107f57634e487b7160e01b600052602160045260246000fd5b9052506000848152600a60209081526040808320815160a0810183528154815260018201546001600160a01b03908116948201949094526002820154928101929092526003810154909216606082015260049091015460808201529192506110e56109b1565b9050428360800151111561132a576000858152600860205260409020600101546001600160a01b038281169116146111855760405162461bcd60e51b815260206004820152602a60248201527f4d61726b65743a2063616c6c6572206973206e6f7420746865206c697374696e60448201527f672063726561746f722e000000000000000000000000000000000000000000006064820152608401610ab9565b60c08301805160008083524260a08701908152888252600860208181526040938490208951815590890151600180830180546001600160a01b039384166001600160a01b031991821617909155958b015160028401805491841691881691909117905560608b0151600384015560808b01516004840155935160058301559551600682015560e089015160078201805491909716941693909317909455610100870151938201939093556101208601516009820155610140860151600a820180549394889460ff191690838181111561126e57634e487b7160e01b600052602160045260246000fd5b0217905550610160820151600a8201805461ff0019166101008360018111156112a757634e487b7160e01b600052602160045260246000fd5b02179055509050506112bf308560200151838761360a565b60011515826001600160a01b0316877f572cdc5ca5e918473319d0f4737494e4709ac879a7d0bcd11ce1bef24b24e81d876020015160006040516113199291906001600160a01b0392831681529116602082015260400190565b60405180910390a450505050611699565b6001836101600151600181111561135157634e487b7160e01b600052602160045260246000fd5b146113a95760405162461bcd60e51b815260206004820152602260248201527f4d61726b65743a206c697374696e67206973206e6f7420616e2061756374696f604482015261371760f11b6064820152608401610ab9565b428360a00151106114225760405162461bcd60e51b815260206004820152603260248201527f4d61726b65743a2063616e206f6e6c7920636c6f73652061756374696f6e206160448201527f667465722069742068617320656e6465642e00000000000000000000000000006064820152608401610ab9565b82602001516001600160a01b0316846001600160a01b0316141561166d576000826040015183608001516114569190615d31565b600060c086018181524260a08801908152898352600860208181526040948590208a518155908a0151600180830180546001600160a01b039384166001600160a01b031991821617909155968c015160028401805491841691891691909117905560608c0151600384015560808c01516004840155935160058301559351600682015560e08a015160078201805491909516951694909417909255610100880151918301919091556101208701516009830155610140870151600a8301805494955088949192909160ff191690838181111561154257634e487b7160e01b600052602160045260246000fd5b0217905550610160820151600a8201805461ff00191661010083600181111561157b57634e487b7160e01b600052602160045260246000fd5b021790555050600060808501818152888252600a602090815260409283902087518155818801516001820180546001600160a01b03199081166001600160a01b03938416179091559489015160028301556060890151600383018054909616911617909355905160049092019190915585015160e08601516116029250309190848861377d565b60001515826001600160a01b0316877f572cdc5ca5e918473319d0f4737494e4709ac879a7d0bcd11ce1bef24b24e81d8760200151876020015160405161165f9291906001600160a01b0392831681529116602082015260400190565b60405180910390a450611695565b81602001516001600160a01b0316846001600160a01b03161415611695576116958383613989565b5050505b50506001600255565b60008281526001602052604081206116ba9083613b78565b9392505050565b6002805414156117135760405162461bcd60e51b815260206004820152601f60248201527f5265656e7472616e637947756172643a207265656e7472616e742063616c6c006044820152606401610ab9565b60028055816117206109b1565b6000828152600860205260409020600101546001600160a01b0390811691161461179b5760405162461bcd60e51b815260206004820152602660248201527f4d61726b65743a2063616c6c6572206973206e6f74206c697374696e6720637260448201526532b0ba37b91760d11b6064820152608401610ab9565b60008381526009602081815260408084206001600160a01b038088168652908352818520825160a08082018552825482526001808401548516838801526002808501548488015260038086015487166060808701919091526004968701546080808801919091528f8d526008808c528a8e208b5161018081018d5281548152818801548c169d81019d909d52948501548a169a8c019a909a5291830154908a01529481015494880194909452600584015491870191909152600683015460c0870152600783015490931660e08601529281015461010085015293840154610120840152600a8401549194939161014084019160ff909116908111156118b057634e487b7160e01b600052602160045260246000fd5b60018111156118cf57634e487b7160e01b600052602160045260246000fd5b8152602001600a820160019054906101000a900460ff16600181111561190557634e487b7160e01b600052602160045260246000fd5b600181111561192457634e487b7160e01b600052602160045260246000fd5b90525090506000816101600151600181111561195057634e487b7160e01b600052602160045260246000fd5b14801561198057506119808160200151826040015183606001518560400151856101400151866101600151613083565b6119e55760405162461bcd60e51b815260206004820152603060248201527f4d61726b65743a206d757374206f776e20616e6420617070726f766520746f2060448201526f3a3930b739b332b9103a37b5b2b7399760811b6064820152608401610ab9565b604082015160808301516000906119fd908390615d31565b60006040808701828152608088018381528b8452600960209081528385206001600160a01b03808e1687529082529390942089518155938901516001850180549185166001600160a01b0319928316179055915160028501556060890151600385018054919094169216919091179091555160049091015560c0840180519192508391611a8b908390615d50565b9052506000878152600860208181526040928390208651815590860151600180830180546001600160a01b03199081166001600160a01b0394851617909155948801516002840180548716918416919091179055606088015160038401556080880151600484015560a0880151600584015560c0880151600684015560e0880151600784018054909616921691909117909355610100860151918101919091556101208501516009820155610140850151600a82018054879460ff19909116908381811115611b6a57634e487b7160e01b600052602160045260246000fd5b0217905550610160820151600a8201805461ff001916610100836001811115611ba357634e487b7160e01b600052602160045260246000fd5b0217905550905050611bc08684602001518660600151848761377d565b611bd0836020015187848661360a565b82602001516001600160a01b031683604001516001600160a01b0316887f306e6cde5eb293794d557a3a6c844de939e6206b05e6910451c512852bf654a5898686604051611c3c939291906001600160a01b039390931683526020830191909152604082015260600190565b60405180910390a4505060016002555050505050565b600480546040805163a217fddf60e01b815290516001600160a01b03909216926391d1485492849263a217fddf9281810192602092909190829003018186803b158015611c9e57600080fd5b505afa158015611cb2573d6000803e3d6000fd5b505050506040513d601f19601f82011682018060405250810190611cd691906157cb565b611cde6109b1565b6040516001600160e01b031960e085901b16815260048101929092526001600160a01b0316602482015260440160206040518083038186803b158015611d2357600080fd5b505afa158015611d37573d6000803e3d6000fd5b505050506040513d601f19601f82011682018060405250810190611d5b9190615797565b611dcd5760405162461bcd60e51b815260206004820152603560248201527f4d61726b65743a206f6e6c7920612070726f746f636f6c2061646d696e20636160448201527f6e2063616c6c20746869732066756e6374696f6e2e00000000000000000000006064820152608401610ab9565b610e2d6006838361533c565b60608167ffffffffffffffff811115611e0257634e487b7160e01b600052604160045260246000fd5b604051908082528060200260200182016040528015611e3557816020015b6060815260200190600190039081611e205790505b50905060005b82811015611ef157611eb330858584818110611e6757634e487b7160e01b600052603260045260246000fd5b9050602002810190611e799190615c59565b8080601f016020809104026020016040519081016040528093929190818152602001838380828437600092019190915250613b8492505050565b828281518110611ed357634e487b7160e01b600052603260045260246000fd5b60200260200101819052508080611ee990615de5565b915050611e3b565b5092915050565b600280541415611f4a5760405162461bcd60e51b815260206004820152601f60248201527f5265656e7472616e637947756172643a207265656e7472616e742063616c6c006044820152606401610ab9565b60028080556000858152600860208181526040808420815161018081018352815481526001808301546001600160a01b0390811695830195909552968201548416928101929092526003810154606083015260048101546080830152600581015460a0830152600681015460c0830152600781015490921660e0820152918101546101008301526009810154610120830152600a81015492939192909161014084019160ff169081111561200e57634e487b7160e01b600052602160045260246000fd5b600181111561202d57634e487b7160e01b600052602160045260246000fd5b8152602001600a820160019054906101000a900460ff16600181111561206357634e487b7160e01b600052602160045260246000fd5b600181111561208257634e487b7160e01b600052602160045260246000fd5b815250509050428160a0015111801561209e5750428160800151105b6120ea5760405162461bcd60e51b815260206004820152601960248201527f4d61726b65743a20696e616374697665206c697369746e672e000000000000006044820152606401610ab9565b60006040518060a001604052808781526020016121056109b1565b6001600160a01b039081168252602082018890528616604082015260600184905290506001826101600151600181111561214f57634e487b7160e01b600052602160045260246000fd5b14156121915760e08201516001600160a01b0316606082015261014082015160c083015161217d91906134eb565b604082015261218c8282613ba9565b612237565b600082610160015160018111156121b857634e487b7160e01b600052602160045260246000fd5b1415612237576001600160a01b03841673eeeeeeeeeeeeeeeeeeeeeeeeeeeeeeeeeeeeeeee146121e8578361220a565b7f00000000000000000000000000000000000000000000000000000000000000005b6001600160a01b0316606082015261014082015161222890866134eb565b60408201526122378282613fa2565b5050600160025550505050565b6006805461225190615daa565b80601f016020809104026020016040519081016040528092919081815260200182805461227d90615daa565b80156122ca5780601f1061229f576101008083540402835291602001916122ca565b820191906000526020600020905b8154815290600101906020018083116122ad57829003601f168201915b505050505081565b866122db6109b1565b6000828152600860205260409020600101546001600160a01b039081169116146123565760405162461bcd60e51b815260206004820152602660248201527f4d61726b65743a2063616c6c6572206973206e6f74206c697374696e6720637260448201526532b0ba37b91760d11b6064820152608401610ab9565b6000888152600860208181526040808420815161018081018352815481526001808301546001600160a01b039081169583019590955260028301548516938201939093526003820154606082015260048201546080820152600582015460a0820152600682015460c0820152600782015490931660e0840152928301546101008301526009830154610120830152600a83015491929161014084019160ff9091169081111561241557634e487b7160e01b600052602160045260246000fd5b600181111561243457634e487b7160e01b600052602160045260246000fd5b8152602001600a820160019054906101000a900460ff16600181111561246a57634e487b7160e01b600052602160045260246000fd5b600181111561248957634e487b7160e01b600052602160045260246000fd5b81525050905060006124a08261014001518a6134eb565b9050600182610160015160018111156124c957634e487b7160e01b600052602160045260246000fd5b141561254857428260800151106125485760405162461bcd60e51b815260206004820152602860248201527f4d61726b65743a2063616e6e6f7420656469742061756374696f6e206166746560448201527f722073746172742e0000000000000000000000000000000000000000000000006064820152608401610ab9565b808260c0015114612625576001826101600151600181111561257a57634e487b7160e01b600052602160045260246000fd5b1415612594576125943083602001518460c001518561360a565b6125b882602001518360400151846060015184866101400151876101600151613083565b61261d5760405162461bcd60e51b815260206004820152603060248201527f4d61726b65743a206d757374206f776e20616e6420617070726f766520746f2060448201526f3a3930b739b332b9103a37b5b2b7399760811b6064820152608401610ab9565b60c082018190525b610100820188905261012082018790526001600160a01b03861660e083015284156126505784612656565b81608001515b60808301528315612676578382608001516126719190615cf9565b61267c565b8160a001515b60a0830190815260008b8152600860208181526040928390208651815590860151600180830180546001600160a01b03199081166001600160a01b039485161790915594880151600284018054871691841691909117905560608801516003840155608088015160048401559451600583015560c0870151600683015560e0870151600783018054909516911617909255610100850151908201556101208401516009820155610140840151600a82018054869460ff1990911690838181111561275657634e487b7160e01b600052602160045260246000fd5b0217905550610160820151600a8201805461ff00191661010083600181111561278f57634e487b7160e01b600052602160045260246000fd5b021790555090505081602001516001600160a01b03168a7fa00227275ba75aea329d91406a2884d227dc386f939f1d18e15a7317152432ca60405160405180910390a350505050505050505050565b6000818152600160205260408120610a0c906142dd565b610edd82826142e7565b6002805414156128515760405162461bcd60e51b815260206004820152601f60248201527f5265656e7472616e637947756172643a207265656e7472616e742063616c6c006044820152606401610ab9565b60028080556000838152600860208181526040808420815161018081018352815481526001808301546001600160a01b0390811695830195909552968201548416928101929092526003810154606083015260048101546080830152600581015460a0830152600681015460c0830152600781015490921660e0820152918101546101008301526009810154610120830152600a81015492939192909161014084019160ff169081111561291557634e487b7160e01b600052602160045260246000fd5b600181111561293457634e487b7160e01b600052602160045260246000fd5b8152602001600a820160019054906101000a900460ff16600181111561296a57634e487b7160e01b600052602160045260246000fd5b600181111561298957634e487b7160e01b600052602160045260246000fd5b905250905060006129986109b1565b90506129a582828561430f565b828260c0018181516129b79190615d50565b9052506000848152600860208181526040928390208551815590850151600180830180546001600160a01b03199081166001600160a01b0394851617909155948701516002840180548716918416919091179055606087015160038401556080870151600484015560a0870151600584015560c0870151600684015560e0870151600784018054909616921691909117909355610100850151918101919091556101208401516009820155610140840151600a82018054869460ff19909116908381811115612a9657634e487b7160e01b600052602160045260246000fd5b0217905550610160820151600a8201805461ff001916610100836001811115612acf57634e487b7160e01b600052602160045260246000fd5b0217905550505061012082015115612b0657612b068183602001518460e0015186866101200151612b009190615d31565b8661377d565b612b16826020015182858561360a565b81602001516001600160a01b031682604001516001600160a01b0316857f306e6cde5eb293794d557a3a6c844de939e6206b05e6910451c512852bf654a5848788886101200151612b679190615d31565b604080516001600160a01b03909416845260208401929092529082015260600160405180910390a4505060016002555050565b612ba7600061055b6109b1565b612bf35760405162461bcd60e51b815260206004820152601b60248201527f4d61726b65743a206e6f742061206d6f64756c652061646d696e2e00000000006044820152606401610ab9565b6127108110612c445760405162461bcd60e51b815260206004820152601460248201527f4d61726b65743a20696e76616c6964204250532e0000000000000000000000006044820152606401610ab9565b6007805468ffffffffffffffff00191661010067ffffffffffffffff8416908102919091179091556040519081527f1923ecef8dbc1cebea2768819f7df282b72fb6d62bf99da204590b9d5cac7a7b90602001610ec8565b606060068054612cab90615daa565b80601f0160208091040260200160405190810160405280929190818152602001828054612cd790615daa565b8015612d245780601f10612cf957610100808354040283529160200191612d24565b820191906000526020600020905b815481529060010190602001808311612d0757829003601f168201915b5050505050905090565b612d3b600061055b6109b1565b612d875760405162461bcd60e51b815260206004820152601b60248201527f4d61726b65743a206e6f742061206d6f64756c652061646d696e2e00000000006044820152606401610ab9565b6127108110612dd85760405162461bcd60e51b815260206004820152601460248201527f4d61726b65743a20696e76616c6964204250532e0000000000000000000000006044820152606401610ab9565b6007805467ffffffffffffffff838116600160881b027fffffffffffffff0000000000000000ffffffffffffffffffffffffffffffffff918616690100000000000000000002919091167fffffffffffffff00000000000000000000000000000000ffffffffffffffffff9092169190911717905560408051838152602081018390527f441ed6470e96704c3f8c9e70c209107078aab3f17311385e886081b91aa75088910160405180910390a15050565b6003546000906001600160a01b0316331415612ead575060131936013560601c90565b503390565b612ebc828261470d565b5050565b60006116ba836001600160a01b0384166147ac565b3390565b60058054906001906000612eed8385615cf9565b9250508190555090565b6040516301ffc9a760e01b8152636cdb3d1360e11b60048201526000906001600160a01b038316906301ffc9a79060240160206040518083038186803b158015612f4057600080fd5b505afa158015612f54573d6000803e3d6000fd5b505050506040513d601f19601f82011682018060405250810190612f789190615797565b15612f8557506000919050565b6040516301ffc9a760e01b81526380ac58cd60e01b60048201526001600160a01b038316906301ffc9a79060240160206040518083038186803b158015612fcb57600080fd5b505afa158015612fdf573d6000803e3d6000fd5b505050506040513d601f19601f820116820180604052508101906130039190615797565b1561301057506001919050565b60405162461bcd60e51b815260206004820152602b60248201527f4d61726b65743a206d75737420696d706c656d656e742045524320313135352060448201527f6f7220455243203732312e0000000000000000000000000000000000000000006064820152608401610ab9565b919050565b600030818460018111156130a757634e487b7160e01b600052602160045260246000fd5b141561327057604051627eeac760e11b81526001600160a01b0389811660048301526024820188905286919089169062fdd58e9060440160206040518083038186803b1580156130f657600080fd5b505afa15801561310a573d6000803e3d6000fd5b505050506040513d601f19601f8201168201806040525081019061312e91906157cb565b101580156131b8575060405163e985e9c560e01b81526001600160a01b038981166004830152828116602483015288169063e985e9c59060440160206040518083038186803b15801561318057600080fd5b505afa158015613194573d6000803e3d6000fd5b505050506040513d601f19601f820116820180604052508101906131b89190615797565b91508180156131e6575060018360018111156131e457634e487b7160e01b600052602160045260246000fd5b145b1561326b57604051637921219560e11b81526001600160a01b0389811660048301528281166024830152604482018890526064820187905260a06084830152600060a483015288169063f242432a9060c401600060405180830381600087803b15801561325257600080fd5b505af1158015613266573d6000803e3d6000fd5b505050505b6134e0565b600184600181111561329257634e487b7160e01b600052602160045260246000fd5b14156134e0576040516331a9108f60e11b8152600481018790526001600160a01b03808a169190891690636352211e9060240160206040518083038186803b1580156132dd57600080fd5b505afa1580156132f1573d6000803e3d6000fd5b505050506040513d601f19601f820116820180604052508101906133159190615540565b6001600160a01b0316148015613434575060405163020604bf60e21b8152600481018790526001600160a01b03808316919089169063081812fc9060240160206040518083038186803b15801561336b57600080fd5b505afa15801561337f573d6000803e3d6000fd5b505050506040513d601f19601f820116820180604052508101906133a39190615540565b6001600160a01b03161480613434575060405163e985e9c560e01b81526001600160a01b038981166004830152828116602483015288169063e985e9c59060440160206040518083038186803b1580156133fc57600080fd5b505afa158015613410573d6000803e3d6000fd5b505050506040513d601f19601f820116820180604052508101906134349190615797565b91508180156134625750600183600181111561346057634e487b7160e01b600052602160045260246000fd5b145b156134e057604051635c46a7ef60e11b81526001600160a01b038981166004830152828116602483015260448201889052608060648301526000608483015288169063b88d4fde9060a401600060405180830381600087803b1580156134c757600080fd5b505af11580156134db573d6000803e3d6000fd5b505050505b509695505050505050565b6000816134fa57506000610a0c565b600183600181111561351c57634e487b7160e01b600052602160045260246000fd5b1461352757816116ba565b50600192915050565b6000828152602081905260409020600101546135538161354e6109b1565b6147fb565b610e2d838361470d565b6135656109b1565b6001600160a01b0316816001600160a01b0316146135eb5760405162461bcd60e51b815260206004820152602f60248201527f416363657373436f6e74726f6c3a2063616e206f6e6c792072656e6f756e636560448201527f20726f6c657320666f722073656c6600000000000000000000000000000000006064820152608401610ab9565b612ebc8282614879565b60006116ba836001600160a01b038416614916565b6000816101400151600181111561363157634e487b7160e01b600052602160045260246000fd5b14156136c65760408082015160608301519151637921219560e11b81526001600160a01b038781166004830152868116602483015260448201939093526064810185905260a06084820152600060a482015291169063f242432a9060c401600060405180830381600087803b1580156136a957600080fd5b505af11580156136bd573d6000803e3d6000fd5b50505050613777565b600181610140015160018111156136ed57634e487b7160e01b600052602160045260246000fd5b14156137775760408082015160608301519151635c46a7ef60e11b81526001600160a01b03878116600483015286811660248301526044820193909352608060648201526000608482015291169063b88d4fde9060a401600060405180830381600087803b15801561375e57600080fd5b505af1158015613772573d6000803e3d6000fd5b505050505b50505050565b600754600090612710906137a090610100900467ffffffffffffffff1685615d31565b6137aa9190615d11565b6004805460405163f2aab4b360e01b8152309281019290925291925061383791869189916001600160a01b03169063f2aab4b39060240160206040518083038186803b1580156137f957600080fd5b505afa15801561380d573d6000803e3d6000fd5b505050506040513d601f19601f820116820180604052508101906138319190615540565b84614a33565b60006138438285615d50565b6040808501516060860151915163152a902d60e11b81529293506001600160a01b031691632a55205a91613884918890600401918252602082015260400190565b604080518083038186803b15801561389b57600080fd5b505afa9250505080156138cb575060408051601f3d908101601f191682019092526138c8918101906156de565b60015b6138d457613974565b801561397157856138e58583615cf9565b11156139595760405162461bcd60e51b815260206004820152602b60248201527f4d61726b65743a20546f74616c206d61726b657420666565732065786365656460448201527f207468652070726963652e0000000000000000000000000000000000000000006064820152608401610ab9565b6139638184615d50565b9250613971878a8484614a33565b50505b61398085888884614a33565b50505050505050565b4260a083019081526000604083810182815285518352600a60208181528385208751815581880151600180830180546001600160a01b03199081166001600160a01b039485161790915595516002808501919091556060808c0151600380870180548b16928716929092179091556080808e01516004978801558e518c5260088089529b8b90208f518155978f015188860180548c16918816919091179055998e015192870180548a16938616939093179092558c015190850155958a0151918301919091559551600582015560c0880151600682015560e088015160078201805490941696169590951790915561010086015192840192909255610120850151600984015561014085015191830180548694939260ff19909116908381811115613ac457634e487b7160e01b600052602160045260246000fd5b0217905550610160820151600a8201805461ff001916610100836001811115613afd57634e487b7160e01b600052602160045260246000fd5b021790555060009150613b1090506109b1565b6001600160a01b031683600001517f572cdc5ca5e918473319d0f4737494e4709ac879a7d0bcd11ce1bef24b24e81d84602001518660200151604051613b6c9291906001600160a01b0392831681529116602082015260400190565b60405180910390a45050565b60006116ba8383614c8b565b60606116ba8383604051806060016040528060278152602001615e7160279139614cc3565b81516000908152600a60209081526040808320815160a0810183528154815260018201546001600160a01b03908116948201949094526002820154928101839052600382015490931660608401526004015460808301819052919291613c0f9190615d31565b9050600083604001518460800151613c279190615d31565b9050613c488560c00151866101000151613c419190615d31565b8383614dae565b613c945760405162461bcd60e51b815260206004820152601d60248201527f4d61726b6574706c6163653a206e6f742077696e6e696e67206269642e0000006044820152606401610ab9565b6000856101200151118015613cbd57508460c00151856101200151613cb99190615d31565b8110155b15613ce557613ccc8585613989565b613ce030856020015186604001518861360a565b613f9b565b84516000908152600a602090815260409182902086518155908601516001820180546001600160a01b03199081166001600160a01b03938416179091559287015160028301556060870151600383018054909416911617909155608085015160049091015560075460a0860151690100000000000000000090910467ffffffffffffffff1690613d76904290615d50565b11613eca5760075460a086018051690100000000000000000090920467ffffffffffffffff1691613da8908390615cf9565b90525084516000908152600860208181526040928390208851815590880151600180830180546001600160a01b03199081166001600160a01b0394851617909155948a0151600284018054871691841691909117905560608a0151600384015560808a0151600484015560a08a0151600584015560c08a0151600684015560e08a0151600784018054909616921691909117909355610100880151918101919091556101208701516009820155610140870151600a82018054899460ff19909116908381811115613e8957634e487b7160e01b600052602160045260246000fd5b0217905550610160820151600a8201805461ff001916610100836001811115613ec257634e487b7160e01b600052602160045260246000fd5b021790555050505b60208301516001600160a01b031615801590613ee65750600082115b15613eff57613eff8560e0015130856020015185614a33565b613f138560e0015185602001513084614a33565b8461016001516001811115613f3857634e487b7160e01b600052602160045260246000fd5b84602001516001600160a01b031686600001517f555395bf7bc66a22753fb39b0cb565d717ef5742e644f8d762073f399fcb585a87604001518960c001518a6101200151613f869190615d31565b60408051928352602083019190915201610dfc565b5050505050565b8160c00151816040015111158015613fbe575060008260c00151115b6140305760405162461bcd60e51b815260206004820152602c60248201527f4d61726b6574706c6163653a20696e73756666696369656e7420746f6b656e7360448201527f20696e206c697374696e672e00000000000000000000000000000000000000006064820152608401610ab9565b806040015181608001516140449190615d31565b606082015160208301516040516370a0823160e01b81526001600160a01b0391821660048201529116906370a082319060240160206040518083038186803b15801561408f57600080fd5b505afa1580156140a3573d6000803e3d6000fd5b505050506040513d601f19601f820116820180604052508101906140c791906157cb565b101580156141705750806040015181608001516140e49190615d31565b60608201516020830151604051636eb1769f60e11b81526001600160a01b03918216600482015230602482015291169063dd62ed3e9060440160206040518083038186803b15801561413557600080fd5b505afa158015614149573d6000803e3d6000fd5b505050506040513d601f19601f8201168201806040525081019061416d91906157cb565b10155b6141e25760405162461bcd60e51b815260206004820152603860248201527f4d61726b6574706c6163653a20696e73756666696369656e742063757272656e60448201527f63792062616c616e6365206f7220616c6c6f77616e63652e00000000000000006064820152608401610ab9565b8151600090815260096020908152604080832082850180516001600160a01b0390811686529190935292819020845181559151600180840180549286166001600160a01b031993841617905591850151600284015560608501516003840180549190951691161790925560808301516004909101556101608301519081111561427b57634e487b7160e01b600052602160045260246000fd5b81602001516001600160a01b031683600001517f555395bf7bc66a22753fb39b0cb565d717ef5742e644f8d762073f399fcb585a8460400151856040015186608001516142c89190615d31565b60408051928352602083019190915201613b6c565b6000610a0c825490565b6000828152602081905260409020600101546143058161354e6109b1565b610e2d8383614879565b60e08301516001600160a01b031673eeeeeeeeeeeeeeeeeeeeeeeeeeeeeeeeeeeeeeee14156143c1576101208301516143489082615d31565b34146143bc5760405162461bcd60e51b815260206004820152602a60248201527f4d61726b65743a20696e636f7272656374206e617469766520746f6b656e207660448201527f616c75652073656e742e000000000000000000000000000000000000000000006064820152608401610ab9565b614563565b6101208301516143d19082615d31565b60e08401516040516370a0823160e01b81526001600160a01b038581166004830152909116906370a082319060240160206040518083038186803b15801561441857600080fd5b505afa15801561442c573d6000803e3d6000fd5b505050506040513d601f19601f8201168201806040525081019061445091906157cb565b101580156144f157506101208301516144699082615d31565b60e0840151604051636eb1769f60e11b81526001600160a01b0385811660048301523060248301529091169063dd62ed3e9060440160206040518083038186803b1580156144b657600080fd5b505afa1580156144ca573d6000803e3d6000fd5b505050506040513d601f19601f820116820180604052508101906144ee91906157cb565b10155b6145635760405162461bcd60e51b815260206004820152603860248201527f4d61726b6574706c6163653a20696e73756666696369656e742063757272656e60448201527f63792062616c616e6365206f7220616c6c6f77616e63652e00000000000000006064820152608401610ab9565b61458b8360200151846040015185606001518660c00151876101400151886101600151613083565b6145fd5760405162461bcd60e51b815260206004820152602c60248201527f4d61726b65743a2063616e6e6f742062757920746f6b656e732066726f6d207460448201527f686973206c697374696e672e00000000000000000000000000000000000000006064820152608401610ab9565b60008111801561461157508260c001518111155b6146835760405162461bcd60e51b815260206004820152603160248201527f4d61726b65743a206d7573742062757920616e20617070726f7072696174652060448201527f616d6f756e74206f6620746f6b656e732e0000000000000000000000000000006064820152608401610ab9565b8260a00151421115801561469b575082608001514210155b610e2d5760405162461bcd60e51b815260206004820152603260248201527f4d61726b65743a207468652073616c652068617320656974686572206e6f742060448201527f73746172746564206f7220636c6f7365642e00000000000000000000000000006064820152608401610ab9565b6000828152602081815260408083206001600160a01b038516845290915290205460ff16612ebc576000828152602081815260408083206001600160a01b03851684529091529020805460ff191660011790556147686109b1565b6001600160a01b0316816001600160a01b0316837f2f8788117e7eff1d82e926ec794901d17c78024a50270940304540a733656f0d60405160405180910390a45050565b60008181526001830160205260408120546147f357508154600181810184556000848152602080822090930184905584548482528286019093526040902091909155610a0c565b506000610a0c565b6000828152602081815260408083206001600160a01b038516845290915290205460ff16612ebc57614837816001600160a01b03166014614e0f565b614842836020614e0f565b604051602001614853929190615a17565b60408051601f198184030181529082905262461bcd60e51b8252610ab991600401615af9565b6000828152602081815260408083206001600160a01b038516845290915290205460ff1615612ebc576000828152602081815260408083206001600160a01b03851684529091529020805460ff191690556148d26109b1565b6001600160a01b0316816001600160a01b0316837ff6391f5c32d9c69d2a47ea670b442974b53935d1edc7fd64eb21e047a839171b60405160405180910390a45050565b60008181526001830160205260408120548015614a2957600061493a600183615d50565b855490915060009061494e90600190615d50565b90508181146149cf57600086600001828154811061497c57634e487b7160e01b600052603260045260246000fd5b90600052602060002001549050808760000184815481106149ad57634e487b7160e01b600052603260045260246000fd5b6000918252602080832090910192909255918252600188019052604090208390555b85548690806149ee57634e487b7160e01b600052603160045260246000fd5b600190038181906000526020600020016000905590558560010160008681526020019081526020016000206000905560019350505050610a0c565b6000915050610a0c565b6001600160a01b03841673eeeeeeeeeeeeeeeeeeeeeeeeeeeeeeeeeeeeeeee1415614c7f576001600160a01b038316301415614b7657604051632e1a7d4d60e01b8152600481018290527f00000000000000000000000000000000000000000000000000000000000000006001600160a01b031690632e1a7d4d90602401600060405180830381600087803b158015614acb57600080fd5b505af1158015614adf573d6000803e3d6000fd5b50505050614aed8282614ffe565b614b71577f00000000000000000000000000000000000000000000000000000000000000006001600160a01b031663d0e30db0826040518263ffffffff1660e01b81526004016000604051808303818588803b158015614b4c57600080fd5b505af1158015614b60573d6000803e3d6000fd5b5050505050614b7184308484615075565b613777565b6001600160a01b038216301415614c7557348114614bfc5760405162461bcd60e51b815260206004820152603560248201527f4d61726b65743a206e617469766520746f6b656e2076616c756520646f65732060448201527f6e6f74206d617463682062696420616d6f756e742e00000000000000000000006064820152608401610ab9565b7f00000000000000000000000000000000000000000000000000000000000000006001600160a01b031663d0e30db0826040518263ffffffff1660e01b81526004016000604051808303818588803b158015614c5757600080fd5b505af1158015614c6b573d6000803e3d6000fd5b5050505050613777565b614aed8282614ffe565b61377784848484615075565b6000826000018281548110614cb057634e487b7160e01b600052603260045260246000fd5b9060005260206000200154905092915050565b6060833b614d395760405162461bcd60e51b815260206004820152602660248201527f416464726573733a2064656c65676174652063616c6c20746f206e6f6e2d636f60448201527f6e747261637400000000000000000000000000000000000000000000000000006064820152608401610ab9565b600080856001600160a01b031685604051614d5491906159fb565b600060405180830381855af49150503d8060008114614d8f576040519150601f19603f3d011682016040523d82523d6000602084013e614d94565b606091505b5091509150614da4828286615303565b9695505050505050565b600082158015614dbe5750838210155b80614e0757508282118015614e075750600754600160881b900467ffffffffffffffff1683612710614df08286615d50565b614dfa9190615d31565b614e049190615d11565b10155b949350505050565b60606000614e1e836002615d31565b614e29906002615cf9565b67ffffffffffffffff811115614e4f57634e487b7160e01b600052604160045260246000fd5b6040519080825280601f01601f191660200182016040528015614e79576020820181803683370190505b509050600360fc1b81600081518110614ea257634e487b7160e01b600052603260045260246000fd5b60200101906001600160f81b031916908160001a905350600f60fb1b81600181518110614edf57634e487b7160e01b600052603260045260246000fd5b60200101906001600160f81b031916908160001a9053506000614f03846002615d31565b614f0e906001615cf9565b90505b6001811115614faf577f303132333435363738396162636465660000000000000000000000000000000085600f1660108110614f5d57634e487b7160e01b600052603260045260246000fd5b1a60f81b828281518110614f8157634e487b7160e01b600052603260045260246000fd5b60200101906001600160f81b031916908160001a90535060049490941c93614fa881615d93565b9050614f11565b5083156116ba5760405162461bcd60e51b815260206004820181905260248201527f537472696e67733a20686578206c656e67746820696e73756666696369656e746044820152606401610ab9565b60408051600080825260208201928390529182916001600160a01b038616918591615028916159fb565b60006040518083038185875af1925050503d8060008114615065576040519150601f19603f3d011682016040523d82523d6000602084013e61506a565b606091505b509095945050505050565b6001600160a01b0383163014156151085760405163095ea7b360e01b8152306004820152602481018290526001600160a01b0385169063095ea7b390604401602060405180830381600087803b1580156150ce57600080fd5b505af11580156150e2573d6000803e3d6000fd5b505050506040513d601f19601f820116820180604052508101906151069190615797565b505b6040516370a0823160e01b81526001600160a01b038381166004830152600091908616906370a082319060240160206040518083038186803b15801561514d57600080fd5b505afa158015615161573d6000803e3d6000fd5b505050506040513d601f19601f8201168201806040525081019061518591906157cb565b6040516323b872dd60e01b81526001600160a01b0386811660048301528581166024830152604482018590529192506000918716906323b872dd90606401602060405180830381600087803b1580156151dd57600080fd5b505af11580156151f1573d6000803e3d6000fd5b505050506040513d601f19601f820116820180604052508101906152159190615797565b6040516370a0823160e01b81526001600160a01b0386811660048301529192506000918816906370a082319060240160206040518083038186803b15801561525c57600080fd5b505afa158015615270573d6000803e3d6000fd5b505050506040513d601f19601f8201168201806040525081019061529491906157cb565b90508180156152ab57506152a88484615cf9565b81145b6139805760405162461bcd60e51b8152602060048201526024808201527f4d61726b65743a206661696c656420746f207472616e736665722063757272656044820152633731bc9760e11b6064820152608401610ab9565b606083156153125750816116ba565b8251156153225782518084602001fd5b8160405162461bcd60e51b8152600401610ab99190615af9565b82805461534890615daa565b90600052602060002090601f01602090048101928261536a57600085556153b0565b82601f106153835782800160ff198235161785556153b0565b828001600101855582156153b0579182015b828111156153b0578235825591602001919060010190615395565b506153bc9291506153c0565b5090565b5b808211156153bc57600081556001016153c1565b803561307e81615e4d565b600082601f8301126153f0578081fd5b8135602067ffffffffffffffff82111561540c5761540c615e16565b8160051b61541b828201615cc8565b838152828101908684018388018501891015615435578687fd5b8693505b85841015615457578035835260019390930192918401918401615439565b50979650505050505050565b60008083601f840112615474578182fd5b50813567ffffffffffffffff81111561548b578182fd5b6020830191508360208285010111156154a357600080fd5b9250929050565b600082601f8301126154ba578081fd5b813567ffffffffffffffff8111156154d4576154d4615e16565b6154e7601f8201601f1916602001615cc8565b8181528460208386010111156154fb578283fd5b816020850160208301379081016020019190915292915050565b80356002811061307e57600080fd5b600060208284031215615535578081fd5b81356116ba81615e4d565b600060208284031215615551578081fd5b81516116ba81615e4d565b600080600080600060a08688031215615573578081fd5b853561557e81615e4d565b9450602086013561558e81615e4d565b9350604086013567ffffffffffffffff808211156155aa578283fd5b6155b689838a016153e0565b945060608801359150808211156155cb578283fd5b6155d789838a016153e0565b935060808801359150808211156155ec578283fd5b506155f9888289016154aa565b9150509295509295909350565b60008060008060006080868803121561561d578081fd5b853561562881615e4d565b9450602086013561563881615e4d565b935060408601359250606086013567ffffffffffffffff81111561565a578182fd5b61566688828901615463565b969995985093965092949392505050565b600080600080600060a0868803121561568e578081fd5b853561569981615e4d565b945060208601356156a981615e4d565b93506040860135925060608601359150608086013567ffffffffffffffff8111156156d2578182fd5b6155f9888289016154aa565b600080604083850312156156f0578182fd5b82516156fb81615e4d565b6020939093015192949293505050565b6000806020838503121561571d578182fd5b823567ffffffffffffffff80821115615734578384fd5b818501915085601f830112615747578384fd5b813581811115615755578485fd5b8660208260051b8501011115615769578485fd5b60209290920196919550909350505050565b60006020828403121561578c578081fd5b81356116ba81615e62565b6000602082840312156157a8578081fd5b81516116ba81615e62565b6000602082840312156157c4578081fd5b5035919050565b6000602082840312156157dc578081fd5b5051919050565b600080604083850312156157f5578182fd5b82359150602083013561580781615e4d565b809150509250929050565b60008060408385031215615824578182fd5b50508035926020909101359150565b600060208284031215615844578081fd5b81356001600160e01b0319811681146116ba578182fd5b6000806020838503121561586d578182fd5b823567ffffffffffffffff811115615883578283fd5b61588f85828601615463565b90969095509350505050565b600061012082840312156158ad578081fd5b6158b5615c9e565b6158be836153d5565b8152602083013560208201526040830135604082015260608301356060820152608083013560808201526158f460a084016153d5565b60a082015260c083013560c082015260e083013560e082015261010061591b818501615515565b908201529392505050565b6000806000806080858703121561593b578182fd5b8435935060208501359250604085013561595481615e4d565b9396929550929360600135925050565b600080600080600080600060e0888a03121561597e578485fd5b8735965060208801359550604088013594506060880135935060808801356159a581615e4d565b9699959850939692959460a0840135945060c09093013592915050565b600081518084526159da816020860160208601615d67565b601f01601f19169290920160200192915050565b6159f781615e2c565b9052565b60008251615a0d818460208701615d67565b9190910192915050565b7f416363657373436f6e74726f6c3a206163636f756e7420000000000000000000815260008351615a4f816017850160208801615d67565b7f206973206d697373696e6720726f6c65200000000000000000000000000000006017918401918201528351615a8c816028840160208801615d67565b01602801949350505050565b6000602080830181845280855180835260408601915060408160051b8701019250838701855b82811015615aec57603f19888603018452615ada8583516159c2565b94509285019290850190600101615abe565b5092979650505050505050565b6020815260006116ba60208301846159c2565b81518152602080830151610180830191615b30908401826001600160a01b03169052565b506040830151615b4b60408401826001600160a01b03169052565b50606083015160608301526080830151608083015260a083015160a083015260c083015160c083015260e0830151615b8e60e08401826001600160a01b03169052565b506101008381015190830152610120808401519083015261014080840151615bb8828501826159ee565b505061016080840151615bcd828501826159ee565b505092915050565b6000610180820190508d82526001600160a01b03808e166020840152808d1660408401528b60608401528a60808401528960a08401528860c084015280881660e0840152508561010083015284610120830152615c3184615e2c565b83610140830152615c4183615e2c565b826101608301529d9c50505050505050505050505050565b6000808335601e19843603018112615c6f578283fd5b83018035915067ffffffffffffffff821115615c89578283fd5b6020019150368190038213156154a357600080fd5b604051610120810167ffffffffffffffff81118282101715615cc257615cc2615e16565b60405290565b604051601f8201601f1916810167ffffffffffffffff81118282101715615cf157615cf1615e16565b604052919050565b60008219821115615d0c57615d0c615e00565b500190565b600082615d2c57634e487b7160e01b81526012600452602481fd5b500490565b6000816000190483118215151615615d4b57615d4b615e00565b500290565b600082821015615d6257615d62615e00565b500390565b60005b83811015615d82578181015183820152602001615d6a565b838111156137775750506000910152565b600081615da257615da2615e00565b506000190190565b600181811c90821680615dbe57607f821691505b60208210811415615ddf57634e487b7160e01b600052602260045260246000fd5b50919050565b6000600019821415615df957615df9615e00565b5060010190565b634e487b7160e01b600052601160045260246000fd5b634e487b7160e01b600052604160045260246000fd5b60028110615e4a57634e487b7160e01b600052602160045260246000fd5b50565b6001600160a01b0381168114615e4a57600080fd5b8015158114615e4a57600080fdfe416464726573733a206c6f772d6c6576656c2064656c65676174652063616c6c206661696c6564a164736f6c6343000804000a",
  "linkReferences": {},
  "deployedLinkReferences": {}
}