{
  "_format": "hh-sol-artifact-1",
  "contractName": "Marketplace",
  "sourceName": "contracts/v2/Marketplace.sol",
  "abi": [
    {
      "inputs": [
        {
          "internalType": "address payable",
          "name": "_controlCenter",
          "type": "address"
        },
        {
          "internalType": "address",
          "name": "_trustedForwarder",
          "type": "address"
        },
        {
          "internalType": "string",
          "name": "_uri",
          "type": "string"
        }
      ],
      "stateMutability": "nonpayable",
      "type": "constructor"
    },
    {
      "anonymous": false,
      "inputs": [
        {
          "indexed": true,
          "internalType": "address",
          "name": "listingCreator",
          "type": "address"
        },
        {
          "indexed": true,
          "internalType": "uint256",
          "name": "listingId",
          "type": "uint256"
        },
        {
          "components": [
            {
              "internalType": "uint256",
              "name": "listingId",
              "type": "uint256"
            },
            {
              "internalType": "address",
              "name": "tokenOwner",
              "type": "address"
            },
            {
              "internalType": "address",
              "name": "assetContract",
              "type": "address"
            },
            {
              "internalType": "uint256",
              "name": "tokenId",
              "type": "uint256"
            },
            {
              "internalType": "uint256",
              "name": "startTime",
              "type": "uint256"
            },
            {
              "internalType": "uint256",
              "name": "endTime",
              "type": "uint256"
            },
            {
              "internalType": "uint256",
              "name": "quantity",
              "type": "uint256"
            },
            {
              "internalType": "address",
              "name": "currency",
              "type": "address"
            },
            {
              "internalType": "uint256",
              "name": "buyoutPricePerToken",
              "type": "uint256"
            },
            {
              "internalType": "uint256",
              "name": "tokensPerBuyer",
              "type": "uint256"
            },
            {
              "internalType": "enum IMarketplace.TokenType",
              "name": "tokenType",
              "type": "uint8"
            }
          ],
          "indexed": false,
          "internalType": "struct IMarketplace.Listing",
          "name": "listing",
          "type": "tuple"
        }
      ],
      "name": "ListingUpdate",
      "type": "event"
    },
    {
      "anonymous": false,
      "inputs": [
        {
          "indexed": false,
          "internalType": "uint128",
          "name": "newFee",
          "type": "uint128"
        }
      ],
      "name": "MarketFeeUpdate",
      "type": "event"
    },
    {
      "anonymous": false,
      "inputs": [
        {
          "indexed": true,
          "internalType": "address",
          "name": "assetContract",
          "type": "address"
        },
        {
          "indexed": true,
          "internalType": "address",
          "name": "seller",
          "type": "address"
        },
        {
          "indexed": true,
          "internalType": "uint256",
          "name": "listingId",
          "type": "uint256"
        },
        {
          "indexed": false,
          "internalType": "address",
          "name": "buyer",
          "type": "address"
        },
        {
          "indexed": false,
          "internalType": "uint256",
          "name": "quantity",
          "type": "uint256"
        },
        {
          "components": [
            {
              "internalType": "uint256",
              "name": "listingId",
              "type": "uint256"
            },
            {
              "internalType": "address",
              "name": "tokenOwner",
              "type": "address"
            },
            {
              "internalType": "address",
              "name": "assetContract",
              "type": "address"
            },
            {
              "internalType": "uint256",
              "name": "tokenId",
              "type": "uint256"
            },
            {
              "internalType": "uint256",
              "name": "startTime",
              "type": "uint256"
            },
            {
              "internalType": "uint256",
              "name": "endTime",
              "type": "uint256"
            },
            {
              "internalType": "uint256",
              "name": "quantity",
              "type": "uint256"
            },
            {
              "internalType": "address",
              "name": "currency",
              "type": "address"
            },
            {
              "internalType": "uint256",
              "name": "buyoutPricePerToken",
              "type": "uint256"
            },
            {
              "internalType": "uint256",
              "name": "tokensPerBuyer",
              "type": "uint256"
            },
            {
              "internalType": "enum IMarketplace.TokenType",
              "name": "tokenType",
              "type": "uint8"
            }
          ],
          "indexed": false,
          "internalType": "struct IMarketplace.Listing",
          "name": "listing",
          "type": "tuple"
        }
      ],
      "name": "NewDirectSale",
      "type": "event"
    },
    {
      "anonymous": false,
      "inputs": [
        {
          "indexed": true,
          "internalType": "address",
          "name": "assetContract",
          "type": "address"
        },
        {
          "indexed": true,
          "internalType": "address",
          "name": "seller",
          "type": "address"
        },
        {
          "indexed": true,
          "internalType": "uint256",
          "name": "listingId",
          "type": "uint256"
        },
        {
          "components": [
            {
              "internalType": "uint256",
              "name": "listingId",
              "type": "uint256"
            },
            {
              "internalType": "address",
              "name": "tokenOwner",
              "type": "address"
            },
            {
              "internalType": "address",
              "name": "assetContract",
              "type": "address"
            },
            {
              "internalType": "uint256",
              "name": "tokenId",
              "type": "uint256"
            },
            {
              "internalType": "uint256",
              "name": "startTime",
              "type": "uint256"
            },
            {
              "internalType": "uint256",
              "name": "endTime",
              "type": "uint256"
            },
            {
              "internalType": "uint256",
              "name": "quantity",
              "type": "uint256"
            },
            {
              "internalType": "address",
              "name": "currency",
              "type": "address"
            },
            {
              "internalType": "uint256",
              "name": "buyoutPricePerToken",
              "type": "uint256"
            },
            {
              "internalType": "uint256",
              "name": "tokensPerBuyer",
              "type": "uint256"
            },
            {
              "internalType": "enum IMarketplace.TokenType",
              "name": "tokenType",
              "type": "uint8"
            }
          ],
          "indexed": false,
          "internalType": "struct IMarketplace.Listing",
          "name": "listing",
          "type": "tuple"
        }
      ],
      "name": "NewListing",
      "type": "event"
    },
    {
      "anonymous": false,
      "inputs": [
        {
          "indexed": true,
          "internalType": "uint256",
          "name": "listingId",
          "type": "uint256"
        },
        {
          "indexed": true,
          "internalType": "address",
          "name": "offeror",
          "type": "address"
        },
        {
          "components": [
            {
              "internalType": "uint256",
              "name": "listingId",
              "type": "uint256"
            },
            {
              "internalType": "address",
              "name": "offeror",
              "type": "address"
            },
            {
              "internalType": "uint256",
              "name": "quantityWanted",
              "type": "uint256"
            },
            {
              "internalType": "uint256",
              "name": "offerAmount",
              "type": "uint256"
            }
          ],
          "indexed": false,
          "internalType": "struct IMarketplace.Offer",
          "name": "offer",
          "type": "tuple"
        },
        {
          "components": [
            {
              "internalType": "uint256",
              "name": "listingId",
              "type": "uint256"
            },
            {
              "internalType": "address",
              "name": "tokenOwner",
              "type": "address"
            },
            {
              "internalType": "address",
              "name": "assetContract",
              "type": "address"
            },
            {
              "internalType": "uint256",
              "name": "tokenId",
              "type": "uint256"
            },
            {
              "internalType": "uint256",
              "name": "startTime",
              "type": "uint256"
            },
            {
              "internalType": "uint256",
              "name": "endTime",
              "type": "uint256"
            },
            {
              "internalType": "uint256",
              "name": "quantity",
              "type": "uint256"
            },
            {
              "internalType": "address",
              "name": "currency",
              "type": "address"
            },
            {
              "internalType": "uint256",
              "name": "buyoutPricePerToken",
              "type": "uint256"
            },
            {
              "internalType": "uint256",
              "name": "tokensPerBuyer",
              "type": "uint256"
            },
            {
              "internalType": "enum IMarketplace.TokenType",
              "name": "tokenType",
              "type": "uint8"
            }
          ],
          "indexed": false,
          "internalType": "struct IMarketplace.Listing",
          "name": "listing",
          "type": "tuple"
        }
      ],
      "name": "NewOffer",
      "type": "event"
    },
    {
      "anonymous": false,
      "inputs": [
        {
          "indexed": false,
          "internalType": "address",
          "name": "account",
          "type": "address"
        }
      ],
      "name": "Paused",
      "type": "event"
    },
    {
      "anonymous": false,
      "inputs": [
        {
          "indexed": false,
          "internalType": "bool",
          "name": "restricted",
          "type": "bool"
        }
      ],
      "name": "RestrictedListerRoleUpdated",
      "type": "event"
    },
    {
      "anonymous": false,
      "inputs": [
        {
          "indexed": true,
          "internalType": "bytes32",
          "name": "role",
          "type": "bytes32"
        },
        {
          "indexed": true,
          "internalType": "bytes32",
          "name": "previousAdminRole",
          "type": "bytes32"
        },
        {
          "indexed": true,
          "internalType": "bytes32",
          "name": "newAdminRole",
          "type": "bytes32"
        }
      ],
      "name": "RoleAdminChanged",
      "type": "event"
    },
    {
      "anonymous": false,
      "inputs": [
        {
          "indexed": true,
          "internalType": "bytes32",
          "name": "role",
          "type": "bytes32"
        },
        {
          "indexed": true,
          "internalType": "address",
          "name": "account",
          "type": "address"
        },
        {
          "indexed": true,
          "internalType": "address",
          "name": "sender",
          "type": "address"
        }
      ],
      "name": "RoleGranted",
      "type": "event"
    },
    {
      "anonymous": false,
      "inputs": [
        {
          "indexed": true,
          "internalType": "bytes32",
          "name": "role",
          "type": "bytes32"
        },
        {
          "indexed": true,
          "internalType": "address",
          "name": "account",
          "type": "address"
        },
        {
          "indexed": true,
          "internalType": "address",
          "name": "sender",
          "type": "address"
        }
      ],
      "name": "RoleRevoked",
      "type": "event"
    },
    {
      "anonymous": false,
      "inputs": [
        {
          "indexed": false,
          "internalType": "address",
          "name": "account",
          "type": "address"
        }
      ],
      "name": "Unpaused",
      "type": "event"
    },
    {
      "inputs": [],
      "name": "DEFAULT_ADMIN_ROLE",
      "outputs": [
        {
          "internalType": "bytes32",
          "name": "",
          "type": "bytes32"
        }
      ],
      "stateMutability": "view",
      "type": "function"
    },
    {
      "inputs": [],
      "name": "LISTER_ROLE",
      "outputs": [
        {
          "internalType": "bytes32",
          "name": "",
          "type": "bytes32"
        }
      ],
      "stateMutability": "view",
      "type": "function"
    },
    {
      "inputs": [],
      "name": "PAUSER_ROLE",
      "outputs": [
        {
          "internalType": "bytes32",
          "name": "",
          "type": "bytes32"
        }
      ],
      "stateMutability": "view",
      "type": "function"
    },
    {
      "inputs": [],
      "name": "_contractURI",
      "outputs": [
        {
          "internalType": "string",
          "name": "",
          "type": "string"
        }
      ],
      "stateMutability": "view",
      "type": "function"
    },
    {
      "inputs": [
        {
          "internalType": "uint256",
          "name": "_listingId",
          "type": "uint256"
        },
        {
          "internalType": "address",
          "name": "offeror",
          "type": "address"
        }
      ],
      "name": "acceptOffer",
      "outputs": [],
      "stateMutability": "nonpayable",
      "type": "function"
    },
    {
      "inputs": [
        {
          "internalType": "uint256",
          "name": "",
          "type": "uint256"
        },
        {
          "internalType": "address",
          "name": "",
          "type": "address"
        }
      ],
      "name": "boughtFromListing",
      "outputs": [
        {
          "internalType": "uint256",
          "name": "",
          "type": "uint256"
        }
      ],
      "stateMutability": "view",
      "type": "function"
    },
    {
      "inputs": [
        {
          "internalType": "uint256",
          "name": "_listingId",
          "type": "uint256"
        },
        {
          "internalType": "uint256",
          "name": "_quantityToBuy",
          "type": "uint256"
        }
      ],
      "name": "buy",
      "outputs": [],
      "stateMutability": "nonpayable",
      "type": "function"
    },
    {
      "inputs": [],
      "name": "contractURI",
      "outputs": [
        {
          "internalType": "string",
          "name": "",
          "type": "string"
        }
      ],
      "stateMutability": "view",
      "type": "function"
    },
    {
      "inputs": [
        {
          "components": [
            {
              "internalType": "address",
              "name": "assetContract",
              "type": "address"
            },
            {
              "internalType": "uint256",
              "name": "tokenId",
              "type": "uint256"
            },
            {
              "internalType": "uint256",
              "name": "secondsUntilStartTime",
              "type": "uint256"
            },
            {
              "internalType": "uint256",
              "name": "secondsUntilEndTime",
              "type": "uint256"
            },
            {
              "internalType": "uint256",
              "name": "quantityToList",
              "type": "uint256"
            },
            {
              "internalType": "address",
              "name": "currencyToAccept",
              "type": "address"
            },
            {
              "internalType": "uint256",
              "name": "buyoutPricePerToken",
              "type": "uint256"
            },
            {
              "internalType": "uint256",
              "name": "tokensPerBuyer",
              "type": "uint256"
            }
          ],
          "internalType": "struct IMarketplace.ListingParameters",
          "name": "_params",
          "type": "tuple"
        }
      ],
      "name": "createListing",
      "outputs": [],
      "stateMutability": "nonpayable",
      "type": "function"
    },
    {
      "inputs": [
        {
          "internalType": "uint256",
          "name": "_listingId",
          "type": "uint256"
        },
        {
          "internalType": "uint256",
          "name": "_quantityToList",
          "type": "uint256"
        },
        {
          "internalType": "uint256",
          "name": "_buyoutPricePerToken",
          "type": "uint256"
        },
        {
          "internalType": "uint256",
          "name": "_tokensPerBuyer",
          "type": "uint256"
        },
        {
          "internalType": "address",
          "name": "_currencyToAccept",
          "type": "address"
        },
        {
          "internalType": "uint256",
          "name": "_secondsUntilStartTime",
          "type": "uint256"
        },
        {
          "internalType": "uint256",
          "name": "_secondsUntilEndTime",
          "type": "uint256"
        }
      ],
      "name": "editListingParametrs",
      "outputs": [],
      "stateMutability": "nonpayable",
      "type": "function"
    },
    {
      "inputs": [
        {
          "internalType": "uint256",
          "name": "_listingId",
          "type": "uint256"
        }
      ],
      "name": "getListing",
      "outputs": [
        {
          "components": [
            {
              "internalType": "uint256",
              "name": "listingId",
              "type": "uint256"
            },
            {
              "internalType": "address",
              "name": "tokenOwner",
              "type": "address"
            },
            {
              "internalType": "address",
              "name": "assetContract",
              "type": "address"
            },
            {
              "internalType": "uint256",
              "name": "tokenId",
              "type": "uint256"
            },
            {
              "internalType": "uint256",
              "name": "startTime",
              "type": "uint256"
            },
            {
              "internalType": "uint256",
              "name": "endTime",
              "type": "uint256"
            },
            {
              "internalType": "uint256",
              "name": "quantity",
              "type": "uint256"
            },
            {
              "internalType": "address",
              "name": "currency",
              "type": "address"
            },
            {
              "internalType": "uint256",
              "name": "buyoutPricePerToken",
              "type": "uint256"
            },
            {
              "internalType": "uint256",
              "name": "tokensPerBuyer",
              "type": "uint256"
            },
            {
              "internalType": "enum IMarketplace.TokenType",
              "name": "tokenType",
              "type": "uint8"
            }
          ],
          "internalType": "struct IMarketplace.Listing",
          "name": "listing",
          "type": "tuple"
        }
      ],
      "stateMutability": "view",
      "type": "function"
    },
    {
      "inputs": [
        {
          "internalType": "bytes32",
          "name": "role",
          "type": "bytes32"
        }
      ],
      "name": "getRoleAdmin",
      "outputs": [
        {
          "internalType": "bytes32",
          "name": "",
          "type": "bytes32"
        }
      ],
      "stateMutability": "view",
      "type": "function"
    },
    {
      "inputs": [
        {
          "internalType": "bytes32",
          "name": "role",
          "type": "bytes32"
        },
        {
          "internalType": "uint256",
          "name": "index",
          "type": "uint256"
        }
      ],
      "name": "getRoleMember",
      "outputs": [
        {
          "internalType": "address",
          "name": "",
          "type": "address"
        }
      ],
      "stateMutability": "view",
      "type": "function"
    },
    {
      "inputs": [
        {
          "internalType": "bytes32",
          "name": "role",
          "type": "bytes32"
        }
      ],
      "name": "getRoleMemberCount",
      "outputs": [
        {
          "internalType": "uint256",
          "name": "",
          "type": "uint256"
        }
      ],
      "stateMutability": "view",
      "type": "function"
    },
    {
      "inputs": [
        {
          "internalType": "bytes32",
          "name": "role",
          "type": "bytes32"
        },
        {
          "internalType": "address",
          "name": "account",
          "type": "address"
        }
      ],
      "name": "grantRole",
      "outputs": [],
      "stateMutability": "nonpayable",
      "type": "function"
    },
    {
      "inputs": [
        {
          "internalType": "bytes32",
          "name": "role",
          "type": "bytes32"
        },
        {
          "internalType": "address",
          "name": "account",
          "type": "address"
        }
      ],
      "name": "hasRole",
      "outputs": [
        {
          "internalType": "bool",
          "name": "",
          "type": "bool"
        }
      ],
      "stateMutability": "view",
      "type": "function"
    },
    {
      "inputs": [
        {
          "internalType": "address",
          "name": "forwarder",
          "type": "address"
        }
      ],
      "name": "isTrustedForwarder",
      "outputs": [
        {
          "internalType": "bool",
          "name": "",
          "type": "bool"
        }
      ],
      "stateMutability": "view",
      "type": "function"
    },
    {
      "inputs": [
        {
          "internalType": "uint256",
          "name": "",
          "type": "uint256"
        }
      ],
      "name": "listings",
      "outputs": [
        {
          "internalType": "uint256",
          "name": "listingId",
          "type": "uint256"
        },
        {
          "internalType": "address",
          "name": "tokenOwner",
          "type": "address"
        },
        {
          "internalType": "address",
          "name": "assetContract",
          "type": "address"
        },
        {
          "internalType": "uint256",
          "name": "tokenId",
          "type": "uint256"
        },
        {
          "internalType": "uint256",
          "name": "startTime",
          "type": "uint256"
        },
        {
          "internalType": "uint256",
          "name": "endTime",
          "type": "uint256"
        },
        {
          "internalType": "uint256",
          "name": "quantity",
          "type": "uint256"
        },
        {
          "internalType": "address",
          "name": "currency",
          "type": "address"
        },
        {
          "internalType": "uint256",
          "name": "buyoutPricePerToken",
          "type": "uint256"
        },
        {
          "internalType": "uint256",
          "name": "tokensPerBuyer",
          "type": "uint256"
        },
        {
          "internalType": "enum IMarketplace.TokenType",
          "name": "tokenType",
          "type": "uint8"
        }
      ],
      "stateMutability": "view",
      "type": "function"
    },
    {
      "inputs": [],
      "name": "marketFeeBps",
      "outputs": [
        {
          "internalType": "uint128",
          "name": "",
          "type": "uint128"
        }
      ],
      "stateMutability": "view",
      "type": "function"
    },
    {
      "inputs": [
        {
          "internalType": "bytes[]",
          "name": "data",
          "type": "bytes[]"
        }
      ],
      "name": "multicall",
      "outputs": [
        {
          "internalType": "bytes[]",
          "name": "results",
          "type": "bytes[]"
        }
      ],
      "stateMutability": "nonpayable",
      "type": "function"
    },
    {
      "inputs": [
        {
          "internalType": "uint256",
          "name": "_listingId",
          "type": "uint256"
        },
        {
          "internalType": "uint256",
          "name": "_quantityWanted",
          "type": "uint256"
        },
        {
          "internalType": "uint256",
          "name": "_totalOfferAmount",
          "type": "uint256"
        }
      ],
      "name": "offer",
      "outputs": [],
      "stateMutability": "nonpayable",
      "type": "function"
    },
    {
      "inputs": [
        {
          "internalType": "uint256",
          "name": "",
          "type": "uint256"
        },
        {
          "internalType": "address",
          "name": "",
          "type": "address"
        }
      ],
      "name": "offers",
      "outputs": [
        {
          "internalType": "uint256",
          "name": "listingId",
          "type": "uint256"
        },
        {
          "internalType": "address",
          "name": "offeror",
          "type": "address"
        },
        {
          "internalType": "uint256",
          "name": "quantityWanted",
          "type": "uint256"
        },
        {
          "internalType": "uint256",
          "name": "offerAmount",
          "type": "uint256"
        }
      ],
      "stateMutability": "view",
      "type": "function"
    },
    {
      "inputs": [],
      "name": "paused",
      "outputs": [
        {
          "internalType": "bool",
          "name": "",
          "type": "bool"
        }
      ],
      "stateMutability": "view",
      "type": "function"
    },
    {
      "inputs": [
        {
          "internalType": "bytes32",
          "name": "role",
          "type": "bytes32"
        },
        {
          "internalType": "address",
          "name": "account",
          "type": "address"
        }
      ],
      "name": "renounceRole",
      "outputs": [],
      "stateMutability": "nonpayable",
      "type": "function"
    },
    {
      "inputs": [],
      "name": "restrictedListerRoleOnly",
      "outputs": [
        {
          "internalType": "bool",
          "name": "",
          "type": "bool"
        }
      ],
      "stateMutability": "view",
      "type": "function"
    },
    {
      "inputs": [
        {
          "internalType": "bytes32",
          "name": "role",
          "type": "bytes32"
        },
        {
          "internalType": "address",
          "name": "account",
          "type": "address"
        }
      ],
      "name": "revokeRole",
      "outputs": [],
      "stateMutability": "nonpayable",
      "type": "function"
    },
    {
      "inputs": [
        {
          "internalType": "string",
          "name": "_uri",
          "type": "string"
        }
      ],
      "name": "setContractURI",
      "outputs": [],
      "stateMutability": "nonpayable",
      "type": "function"
    },
    {
      "inputs": [
        {
          "internalType": "uint128",
          "name": "feeBps",
          "type": "uint128"
        }
      ],
      "name": "setMarketFeeBps",
      "outputs": [],
      "stateMutability": "nonpayable",
      "type": "function"
    },
    {
      "inputs": [
        {
          "internalType": "bool",
          "name": "_toPause",
          "type": "bool"
        }
      ],
      "name": "setPaused",
      "outputs": [],
      "stateMutability": "nonpayable",
      "type": "function"
    },
    {
      "inputs": [
        {
          "internalType": "bool",
          "name": "restricted",
          "type": "bool"
        }
      ],
      "name": "setRestrictedListerRoleOnly",
      "outputs": [],
      "stateMutability": "nonpayable",
      "type": "function"
    },
    {
      "inputs": [
        {
          "internalType": "bytes4",
          "name": "interfaceId",
          "type": "bytes4"
        }
      ],
      "name": "supportsInterface",
      "outputs": [
        {
          "internalType": "bool",
          "name": "",
          "type": "bool"
        }
      ],
      "stateMutability": "view",
      "type": "function"
    },
    {
      "inputs": [],
      "name": "totalListings",
      "outputs": [
        {
          "internalType": "uint256",
          "name": "",
          "type": "uint256"
        }
      ],
      "stateMutability": "view",
      "type": "function"
    }
  ],
  "bytecode": "0x60806040523480156200001157600080fd5b50604051620047d3380380620047d3833981016040819052620000349162000372565b6002805460ff191690556001600355600480546001600160a01b0319166001600160a01b038416179055805162000073906007906020840190620002cc565b50600580546001600160a01b0319166001600160a01b038516179055620000a560006200009f6200010c565b62000128565b620000d47ff94103142c1baabe9ac2b5d1487bf783de9e69cfeea9a72f5c9c94afd7877b8c6200009f6200010c565b620001037f65d7a28e3265b37a6474929f336521b332c1681b933f6cb9f3376673440d862a6200009f6200010c565b505050620004e2565b6000620001236200016b60201b6200203c1760201c565b905090565b6200013f8282620001a460201b620020691760201c565b60008281526001602090815260409091206200016691839062002077620001b4821b17901c565b505050565b6004546000906001600160a01b03163314156200018f575060131936013560601c90565b62000123620001d460201b6200208c1760201c565b620001b08282620001d8565b5050565b6000620001cb836001600160a01b0384166200027a565b90505b92915050565b3390565b6000828152602081815260408083206001600160a01b038516845290915290205460ff16620001b0576000828152602081815260408083206001600160a01b03851684529091529020805460ff19166001179055620002366200010c565b6001600160a01b0316816001600160a01b0316837f2f8788117e7eff1d82e926ec794901d17c78024a50270940304540a733656f0d60405160405180910390a45050565b6000818152600183016020526040812054620002c357508154600181810184556000848152602080822090930184905584548482528286019093526040902091909155620001ce565b506000620001ce565b828054620002da9062000476565b90600052602060002090601f016020900481019282620002fe576000855562000349565b82601f106200031957805160ff191683800117855562000349565b8280016001018555821562000349579182015b82811115620003495782518255916020019190600101906200032c565b50620003579291506200035b565b5090565b5b808211156200035757600081556001016200035c565b60008060006060848603121562000387578283fd5b83516200039481620004c9565b80935050602080850151620003a981620004c9565b60408601519093506001600160401b0380821115620003c6578384fd5b818701915087601f830112620003da578384fd5b815181811115620003ef57620003ef620004b3565b604051601f8201601f19908116603f011681019083821181831017156200041a576200041a620004b3565b816040528281528a8684870101111562000432578687fd5b8693505b8284101562000455578484018601518185018701529285019262000436565b828411156200046657868684830101525b8096505050505050509250925092565b600181811c908216806200048b57607f821691505b60208210811415620004ad57634e487b7160e01b600052602260045260246000fd5b50919050565b634e487b7160e01b600052604160045260246000fd5b6001600160a01b0381168114620004df57600080fd5b50565b6142e180620004f26000396000f3fe608060405234801561001057600080fd5b50600436106101f05760003560e01c806391d148541161010f578063d547741f116100a2578063e63ab1e911610071578063e63ab1e91461055c578063e8a3d48514610583578063ebdfbce51461058b578063f876b1e3146105fd57600080fd5b8063d547741f1461047f578063d6febde814610492578063de74e57b146104a5578063deb26b941461053557600080fd5b8063bcebc644116100de578063bcebc6441461043b578063c0e727401461044e578063c78b616c14610463578063ca15c8731461046c57600080fd5b806391d14854146103c9578063938e3d7b14610400578063a217fddf14610413578063ac9650d81461041b57600080fd5b806336568abe1161018757806361096ec61161015657806361096ec61461036457806380cd2464146103785780639010d07c1461038b578063918d407d146103b657600080fd5b806336568abe146102e75780633f5c3e87146102fa578063572b6c05146103375780635c975abb1461035957600080fd5b806320c7852c116101c357806320c7852c14610265578063248a9ca31461029e5780632f2ff15d146102c1578063354c7ab6146102d457600080fd5b806301ffc9a7146101f557806309679b391461021d578063107a274a1461023257806316c38b3c14610252575b600080fd5b610208610203366004613c23565b610610565b60405190151581526020015b60405180910390f35b61023061022b366004613d4f565b61063b565b005b610245610240366004613ba3565b610726565b6040516102149190614042565b610230610260366004613b6b565b610813565b610290610273366004613bd3565b600b60209081526000928352604080842090915290825290205481565b604051908152602001610214565b6102906102ac366004613ba3565b60009081526020819052604090206001015490565b6102306102cf366004613bd3565b6108a4565b6102306102e2366004613b6b565b6108cb565b6102306102f5366004613bd3565b6109a4565b600854610316906fffffffffffffffffffffffffffffffff1681565b6040516fffffffffffffffffffffffffffffffff9091168152602001610214565b610208610345366004613a96565b6004546001600160a01b0391821691161490565b60025460ff16610208565b60085461020890600160801b900460ff1681565b610230610386366004613d87565b6109c6565b61039e610399366004613c02565b610c3b565b6040516001600160a01b039091168152602001610214565b6102306103c4366004613bd3565b610c5a565b6102086103d7366004613bd3565b6000918252602082815260408084206001600160a01b0393909316845291905290205460ff1690565b61023061040e366004613c4b565b611073565b610290600081565b61042e610429366004613afb565b6111fb565b6040516102149190613fce565b610230610449366004613db2565b61131a565b610456611760565b604051610214919061402f565b61029060065481565b61029061047a366004613ba3565b6117ee565b61023061048d366004613bd3565b611805565b6102306104a0366004613c02565b61180f565b61051e6104b3366004613ba3565b600960208190526000918252604090912080546001820154600283015460038401546004850154600586015460068701546007880154600889015499890154600a9099015497996001600160a01b039788169996881698959794969395929490911692909160ff168b565b6040516102149b9a99989796959493929190614092565b6102907ff94103142c1baabe9ac2b5d1487bf783de9e69cfeea9a72f5c9c94afd7877b8c81565b6102907f65d7a28e3265b37a6474929f336521b332c1681b933f6cb9f3376673440d862a81565b610456611bce565b6105d5610599366004613bd3565b600a602090815260009283526040808420909152908252902080546001820154600283015460039093015491926001600160a01b039091169184565b604080519485526001600160a01b039093166020850152918301526060820152608001610214565b61023061060b366004613ca6565b611c60565b60006001600160e01b0319821663152a902d60e11b1480610635575061063582612090565b92915050565b61064860006103d76120b5565b6106bf5760405162461bcd60e51b815260206004820152603360248201527f4d61726b65743a206f6e6c792061206d6f64756c652061646d696e2063616e2060448201527f63616c6c20746869732066756e6374696f6e2e0000000000000000000000000060648201526084015b60405180910390fd5b600880546fffffffffffffffffffffffffffffffff19166fffffffffffffffffffffffffffffffff83169081179091556040519081527fd50e64e6eb05cd7ceafe1a28b1a7ad949edb90451106259c7117252d605178ef906020015b60405180910390a150565b61072e61395f565b600082815260096020818152604092839020835161016081018552815481526001808301546001600160a01b039081169483019490945260028301548416958201959095526003820154606082015260048201546080820152600582015460a0820152600682015460c0820152600782015490921660e0830152600881015461010083015291820154610120820152600a820154909261014084019160ff16908111156107eb57634e487b7160e01b600052602160045260246000fd5b600181111561080a57634e487b7160e01b600052602160045260246000fd5b90525092915050565b61083f7f65d7a28e3265b37a6474929f336521b332c1681b933f6cb9f3376673440d862a6103d76120b5565b61088b5760405162461bcd60e51b815260206004820152601e60248201527f4d61726b65743a206d75737420686176652070617573657220726f6c652e000060448201526064016106b6565b801561089c576108996120bf565b50565b610899612158565b6108ae82826121dd565b60008281526001602052604090206108c69082612077565b505050565b6108d860006103d76120b5565b61094a5760405162461bcd60e51b815260206004820152603360248201527f4d61726b65743a206f6e6c792061206d6f64756c652061646d696e2063616e2060448201527f63616c6c20746869732066756e6374696f6e2e0000000000000000000000000060648201526084016106b6565b60088054821515600160801b0270ff00000000000000000000000000000000199091161790556040517f56668abce4c06e28f52176150c07856e31ee073b9b62df62a5afbf1a22aec24c9061071b90831515815260200190565b6109ae828261220a565b60008281526001602052604090206108c690826122a2565b60025460ff1615610a0c5760405162461bcd60e51b815260206004820152601060248201526f14185d5cd8589b194e881c185d5cd95960821b60448201526064016106b6565b82600654811115610a5f5760405162461bcd60e51b815260206004820152601f60248201527f4d61726b65743a206c697374696e6720646f6573206e6f742065786973742e0060448201526064016106b6565b6000610a696120b5565b6000868152600960208181526040808420815161016081018352815481526001808301546001600160a01b039081169583019590955260028301548516938201939093526003820154606082015260048201546080820152600582015460a0820152600682015460c0820152600782015490931660e0840152600881015461010084015292830154610120830152600a8301549495509293909261014084019160ff1690811115610b2a57634e487b7160e01b600052602160045260246000fd5b6001811115610b4957634e487b7160e01b600052602160045260246000fd5b815250509050610b5e828260e00151866122b7565b60006040518060800160405280888152602001846001600160a01b03168152602001610b8f84610140015189612433565b815260209081018790526000898152600a825260408082206001600160a01b038881168085529185529282902085518155938501516001850180546001600160a01b0319169190941617909255838101516002840155606084015160039093019290925590519192509088907f8369e9fa5850435f88e5d42f52a420cf67c7af1dcf093d17bb80fb9d1d9d269a90610c2a9085908790614051565b60405180910390a350505050505050565b6000828152600160205260408120610c539083612478565b9392505050565b60025460ff1615610ca05760405162461bcd60e51b815260206004820152601060248201526f14185d5cd8589b194e881c185d5cd95960821b60448201526064016106b6565b81610ca96120b5565b6000828152600960205260409020600101546001600160a01b03908116911614610d2a5760405162461bcd60e51b815260206004820152602c60248201527f4d61726b65743a2063616c6c657220646f6573206e6f7420746865206c69737460448201526b34b7339031b932b0ba37b91760a11b60648201526084016106b6565b6000838152600a602081815260408084206001600160a01b03808816865290835281852082516080808201855282548252600180840154851683880152600280850154848801526003948501546060808601919091528d8b526009808a52888c20895161016081018b5281548152818601548a169b81019b909b52928301548816988a01989098529481015494880194909452600484015491870191909152600583015460a0870152600683015460c0870152600783015490931660e0860152600882015461010086015292810154610120850152938401549194939161014084019160ff90911690811115610e3057634e487b7160e01b600052602160045260246000fd5b6001811115610e4f57634e487b7160e01b600052602160045260246000fd5b815250509050610e778160200151826040015183606001518560400151856101400151612484565b610edc5760405162461bcd60e51b815260206004820152603060248201527f4d61726b65743a206d757374206f776e20616e6420617070726f766520746f2060448201526f3a3930b739b332b9103a37b5b2b7399760811b60648201526084016106b6565b81604001518160c001818151610ef291906141a6565b9052506000858152600960208181526040928390208451815590840151600180830180546001600160a01b03199081166001600160a01b0394851617909155948601516002840180548716918416919091179055606086015160038401556080860151600484015560a0860151600584015560c0860151600684015560e0860151600784018054909616921691909117909355610100840151600882015561012084015191810191909155610140830151600a82018054859460ff19909116908381811115610fd157634e487b7160e01b600052602160045260246000fd5b0217905550905050610ffc84826020015184604001518560600151610ff69190614187565b84612791565b611010816020015185846040015184612cd5565b8481602001516001600160a01b031682604001516001600160a01b03167f186f15738d541e63060f3d6febe73253d0767aa481621ad928d36991110d29648786604001518660405161106493929190613fa1565b60405180910390a45050505050565b6005546040805163a217fddf60e01b815290516001600160a01b03909216916391d1485491839163a217fddf91600480820192602092909190829003018186803b1580156110c057600080fd5b505afa1580156110d4573d6000803e3d6000fd5b505050506040513d601f19601f820116820180604052508101906110f89190613bbb565b6111006120b5565b6040516001600160e01b031960e085901b16815260048101929092526001600160a01b0316602482015260440160206040518083038186803b15801561114557600080fd5b505afa158015611159573d6000803e3d6000fd5b505050506040513d601f19601f8201168201806040525081019061117d9190613b87565b6111ef5760405162461bcd60e51b815260206004820152603560248201527f4d61726b65743a206f6e6c7920612070726f746f636f6c2061646d696e20636160448201527f6e2063616c6c20746869732066756e6374696f6e2e000000000000000000000060648201526084016106b6565b6108c6600783836139f2565b60608167ffffffffffffffff81111561122457634e487b7160e01b600052604160045260246000fd5b60405190808252806020026020018201604052801561125757816020015b60608152602001906001900390816112425790505b50905060005b82811015611313576112d53085858481811061128957634e487b7160e01b600052603260045260246000fd5b905060200281019061129b9190614103565b8080601f016020809104026020016040519081016040528093929190818152602001838380828437600092019190915250612e4c92505050565b8282815181106112f557634e487b7160e01b600052603260045260246000fd5b6020026020010181905250808061130b9061423b565b91505061125d565b5092915050565b60025460ff16156113605760405162461bcd60e51b815260206004820152601060248201526f14185d5cd8589b194e881c185d5cd95960821b60448201526064016106b6565b866006548111156113b35760405162461bcd60e51b815260206004820152601f60248201527f4d61726b65743a206c697374696e6720646f6573206e6f742065786973742e0060448201526064016106b6565b876113bc6120b5565b6000828152600960205260409020600101546001600160a01b0390811691161461143d5760405162461bcd60e51b815260206004820152602c60248201527f4d61726b65743a2063616c6c657220646f6573206e6f7420746865206c69737460448201526b34b7339031b932b0ba37b91760a11b60648201526084016106b6565b6000898152600960208181526040808420815161016081018352815481526001808301546001600160a01b039081169583019590955260028301548516938201939093526003820154606082015260048201546080820152600582015460a0820152600682015460c0820152600782015490931660e0840152600881015461010084015292830154610120830152600a83015491929161014084019160ff909116908111156114fc57634e487b7160e01b600052602160045260246000fd5b600181111561151b57634e487b7160e01b600052602160045260246000fd5b81525050905060006115328261014001518b612433565b6001600160a01b03881660e0840152610120830189905261010083018a90529050851561156857611563864261414f565b61156e565b81608001515b6080830152841561158857611583854261414f565b61158e565b8160a001515b60a083015260c08201518a14611629576115bc82602001518360400151846060015184866101400151612484565b6116215760405162461bcd60e51b815260206004820152603060248201527f4d61726b65743a206d757374206f776e20616e6420617070726f766520746f2060448201526f3a3930b739b332b9103a37b5b2b7399760811b60648201526084016106b6565b60c082018190525b60008b8152600960208181526040928390208551815590850151600180830180546001600160a01b03199081166001600160a01b0394851617909155948701516002840180548716918416919091179055606087015160038401556080870151600484015560a0870151600584015560c0870151600684015560e0870151600784018054909616921691909117909355610100850151600882015561012085015191810191909155610140840151600a82018054869460ff1990911690838181111561170557634e487b7160e01b600052602160045260246000fd5b02179055509050508a82602001516001600160a01b03167fbce4610eb204ff4714fea040e347ba0963a850a1dcc2ccc0cdd8a353dc736c3d8460405161174b9190614042565b60405180910390a35050505050505050505050565b6007805461176d90614200565b80601f016020809104026020016040519081016040528092919081815260200182805461179990614200565b80156117e65780601f106117bb576101008083540402835291602001916117e6565b820191906000526020600020905b8154815290600101906020018083116117c957829003601f168201915b505050505081565b600081815260016020526040812061063590612e71565b6109ae8282612e7b565b60025460ff16156118555760405162461bcd60e51b815260206004820152601060248201526f14185d5cd8589b194e881c185d5cd95960821b60448201526064016106b6565b816006548111156118a85760405162461bcd60e51b815260206004820152601f60248201527f4d61726b65743a206c697374696e6720646f6573206e6f742065786973742e0060448201526064016106b6565b600260035414156118fb5760405162461bcd60e51b815260206004820152601f60248201527f5265656e7472616e637947756172643a207265656e7472616e742063616c6c0060448201526064016106b6565b600260038181556000858152600960208181526040808420815161016081018352815481526001808301546001600160a01b03908116958301959095529782015484169281019290925294850154606082015260048501546080820152600585015460a0820152600685015460c0820152600785015490911660e0820152600884015461010082015290830154610120820152600a830154919390929161014084019160ff909116908111156119c157634e487b7160e01b600052602160045260246000fd5b60018111156119e057634e487b7160e01b600052602160045260246000fd5b905250905060006119ef6120b5565b90506119fc828286612ea3565b838260c001818151611a0e91906141a6565b9052506000858152600960208181526040928390208551815590850151600180830180546001600160a01b03199081166001600160a01b0394851617909155948701516002840180548716918416919091179055606087015160038401556080870151600484015560a0870151600584015560c0870151600684015560e0870151600784018054909616921691909117909355610100850151600882015561012085015191810191909155610140840151600a82018054869460ff19909116908381811115611aed57634e487b7160e01b600052602160045260246000fd5b021790555050506000858152600b602090815260408083206001600160a01b038516845290915281208054869290611b2690849061414f565b909155505061010082015115611b5657611b5681836020015186856101000151611b509190614187565b85612791565b611b668260200151828685612cd5565b816000015182602001516001600160a01b031683604001516001600160a01b03167f186f15738d541e63060f3d6febe73253d0767aa481621ad928d36991110d2964848887604051611bba93929190613fa1565b60405180910390a450506001600355505050565b606060078054611bdd90614200565b80601f0160208091040260200160405190810160405280929190818152602001828054611c0990614200565b8015611c565780601f10611c2b57610100808354040283529160200191611c56565b820191906000526020600020905b815481529060010190602001808311611c3957829003601f168201915b5050505050905090565b60025460ff1615611ca65760405162461bcd60e51b815260206004820152601060248201526f14185d5cd8589b194e881c185d5cd95960821b60448201526064016106b6565b600854600160801b900460ff161580611ce65750611ce67ff94103142c1baabe9ac2b5d1487bf783de9e69cfeea9a72f5c9c94afd7877b8c6103d76120b5565b611d585760405162461bcd60e51b815260206004820152602d60248201527f4d61726b65743a206f6e6c792061206c69737465722063616e2063616c6c207460448201527f6869732066756e6374696f6e2e0000000000000000000000000000000000000060648201526084016106b6565b6000611d6261310f565b90506000611d6e6120b5565b90506000611d7f846000015161312d565b9050611d9a8285600001518660200151876080015185612484565b8015611daa575060008460800151115b611e0f5760405162461bcd60e51b815260206004820152603060248201527f4d61726b65743a206d757374206f776e20616e6420617070726f766520746f2060448201526f3a3930b739b332b9103a37b5b2b7399760811b60648201526084016106b6565b6000604051806101600160405280858152602001846001600160a01b0316815260200186600001516001600160a01b0316815260200186602001518152602001866040015142611e5f919061414f565b81526020018660600151600014611e84576060870151611e7f904261414f565b611e88565b6000195b8152602001611e9b848860800151612433565b81526020018660a001516001600160a01b031681526020018660c0015181526020018660e00151600014611ed3578660e00151611ed9565b86608001515b8152602001836001811115611efe57634e487b7160e01b600052602160045260246000fd5b90526000858152600960208181526040928390208451815590840151600180830180546001600160a01b03199081166001600160a01b0394851617909155948601516002840180548716918416919091179055606086015160038401556080860151600484015560a0860151600584015560c0860151600684015560e0860151600784018054909616921691909117909355610100840151600882015561012084015191810191909155610140830151600a82018054949550859492939192909160ff19909116908381811115611fe557634e487b7160e01b600052602160045260246000fd5b021790555090505083611ff66120b5565b6001600160a01b031686600001516001600160a01b03167fc772785b94e5e9a80b22e34304e620da86167c1be120016c15a34e7e4685b8e2846040516110649190614042565b6004546000906001600160a01b031633141561205f575060131936013560601c90565b503390565b905090565b61207382826132b9565b5050565b6000610c53836001600160a01b038416613358565b3390565b60006001600160e01b03198216635a05180f60e01b14806106355750610635826133a7565b600061206461203c565b60025460ff16156121055760405162461bcd60e51b815260206004820152601060248201526f14185d5cd8589b194e881c185d5cd95960821b60448201526064016106b6565b6002805460ff191660011790557f62e78cea01bee320cd4e420270b5ea74000d11b0c9f74754ebdbfc544b05a25861213b6120b5565b6040516001600160a01b03909116815260200160405180910390a1565b60025460ff166121aa5760405162461bcd60e51b815260206004820152601460248201527f5061757361626c653a206e6f742070617573656400000000000000000000000060448201526064016106b6565b6002805460ff191690557f5db9ee0a495bf2e6ff9c91a7834c1ba4fdd244a5e8aa4e537bd38aeae4b073aa61213b6120b5565b600082815260208190526040902060010154612200816121fb6120b5565b6133dc565b6108c683836132b9565b6122126120b5565b6001600160a01b0316816001600160a01b0316146122985760405162461bcd60e51b815260206004820152602f60248201527f416363657373436f6e74726f6c3a2063616e206f6e6c792072656e6f756e636560448201527f20726f6c657320666f722073656c66000000000000000000000000000000000060648201526084016106b6565b612073828261345a565b6000610c53836001600160a01b0384166134f7565b6040516370a0823160e01b81526001600160a01b0384811660048301528291908416906370a082319060240160206040518083038186803b1580156122fb57600080fd5b505afa15801561230f573d6000803e3d6000fd5b505050506040513d601f19601f820116820180604052508101906123339190613bbb565b101580156123c15750604051636eb1769f60e11b81526001600160a01b03848116600483015230602483015282919084169063dd62ed3e9060440160206040518083038186803b15801561238657600080fd5b505afa15801561239a573d6000803e3d6000fd5b505050506040513d601f19601f820116820180604052508101906123be9190613bbb565b10155b6108c65760405162461bcd60e51b815260206004820152603960248201527f4d61726b65743a206d757374206f776e20616e6420617070726f7665204d617260448201527f6b657420746f207472616e736665722063757272656e63792e0000000000000060648201526084016106b6565b60008161244257506000610635565b600183600181111561246457634e487b7160e01b600052602160045260246000fd5b1461246f5781610c53565b50600192915050565b6000610c538383613614565b600030818360018111156124a857634e487b7160e01b600052602160045260246000fd5b14156125c057604051627eeac760e11b81526001600160a01b0388811660048301526024820187905285919088169062fdd58e9060440160206040518083038186803b1580156124f757600080fd5b505afa15801561250b573d6000803e3d6000fd5b505050506040513d601f19601f8201168201806040525081019061252f9190613bbb565b101580156125b9575060405163e985e9c560e01b81526001600160a01b038881166004830152828116602483015287169063e985e9c59060440160206040518083038186803b15801561258157600080fd5b505afa158015612595573d6000803e3d6000fd5b505050506040513d601f19601f820116820180604052508101906125b99190613b87565b9150612787565b60018360018111156125e257634e487b7160e01b600052602160045260246000fd5b1415612787576040516331a9108f60e11b8152600481018690526001600160a01b038089169190881690636352211e9060240160206040518083038186803b15801561262d57600080fd5b505afa158015612641573d6000803e3d6000fd5b505050506040513d601f19601f820116820180604052508101906126659190613ab2565b6001600160a01b0316148015612784575060405163020604bf60e21b8152600481018690526001600160a01b03808316919088169063081812fc9060240160206040518083038186803b1580156126bb57600080fd5b505afa1580156126cf573d6000803e3d6000fd5b505050506040513d601f19601f820116820180604052508101906126f39190613ab2565b6001600160a01b03161480612784575060405163e985e9c560e01b81526001600160a01b038881166004830152828116602483015287169063e985e9c59060440160206040518083038186803b15801561274c57600080fd5b505afa158015612760573d6000803e3d6000fd5b505050506040513d601f19601f820116820180604052508101906127849190613b87565b91505b5095945050505050565b600080600560009054906101000a90046001600160a01b03166001600160a01b031663fd967f476040518163ffffffff1660e01b815260040160206040518083038186803b1580156127e257600080fd5b505afa1580156127f6573d6000803e3d6000fd5b505050506040513d601f19601f8201168201806040525081019061281a9190613d6b565b6008546fffffffffffffffffffffffffffffffff9182169161283d911686614187565b6128479190614167565b60e084015160055460405163f2aab4b360e01b81523060048201529293506001600160a01b03918216926323b872dd928a92169063f2aab4b39060240160206040518083038186803b15801561289c57600080fd5b505afa1580156128b0573d6000803e3d6000fd5b505050506040513d601f19601f820116820180604052508101906128d49190613ab2565b6040516001600160e01b031960e085901b1681526001600160a01b0392831660048201529116602482015260448101849052606401602060405180830381600087803b15801561292357600080fd5b505af1158015612937573d6000803e3d6000fd5b505050506040513d601f19601f8201168201806040525081019061295b9190613b87565b9150600061296982866141a6565b60408086015190516301ffc9a760e01b815263152a902d60e11b60048201529192506001600160a01b0316906301ffc9a79060240160206040518083038186803b1580156129b657600080fd5b505afa1580156129ca573d6000803e3d6000fd5b505050506040513d601f19601f820116820180604052508101906129ee9190613b87565b15612bc75760008085604001516001600160a01b0316632a55205a8760600151896040518363ffffffff1660e01b8152600401612a35929190918252602082015260400190565b604080518083038186803b158015612a4c57600080fd5b505afa158015612a60573d6000803e3d6000fd5b505050506040513d601f19601f82011682018060405250810190612a849190613ace565b90925090506001600160a01b03821615801590612aa15750600081115b15612bc45786612ab1858361414f565b1115612b255760405162461bcd60e51b815260206004820152602b60248201527f4d61726b65743a20546f74616c206d61726b657420666565732065786365656460448201527f207468652070726963652e00000000000000000000000000000000000000000060648201526084016106b6565b612b2f81846141a6565b60e08701516040516323b872dd60e01b81526001600160a01b038c811660048301528581166024830152604482018590529295509116906323b872dd90606401602060405180830381600087803b158015612b8957600080fd5b505af1158015612b9d573d6000803e3d6000fd5b505050506040513d601f19601f82011682018060405250810190612bc19190613b87565b94505b50505b60e08401516040516323b872dd60e01b81526001600160a01b038981166004830152888116602483015260448201849052909116906323b872dd90606401602060405180830381600087803b158015612c1f57600080fd5b505af1158015612c33573d6000803e3d6000fd5b505050506040513d601f19601f82011682018060405250810190612c579190613b87565b925082612ccc5760405162461bcd60e51b815260206004820152602660248201527f4d61726b65743a206661696c656420746f207061796f7574207374616b65686f60448201527f6c646572732e000000000000000000000000000000000000000000000000000060648201526084016106b6565b50505050505050565b60008161014001516001811115612cfc57634e487b7160e01b600052602160045260246000fd5b1415612d915760408082015160608301519151637921219560e11b81526001600160a01b038781166004830152868116602483015260448201939093526064810185905260a06084820152600060a482015291169063f242432a9060c401600060405180830381600087803b158015612d7457600080fd5b505af1158015612d88573d6000803e3d6000fd5b50505050612e46565b60018161014001516001811115612db857634e487b7160e01b600052602160045260246000fd5b1415612e4657604080820151602083015160608401519251635c46a7ef60e11b81526001600160a01b039182166004820152868216602482015260448101939093526080606484015260006084840152169063b88d4fde9060a401600060405180830381600087803b158015612e2d57600080fd5b505af1158015612e41573d6000803e3d6000fd5b505050505b50505050565b6060610c5383836040518060600160405280602781526020016142ae6027913961364c565b6000610635825490565b600082815260208190526040902060010154612e99816121fb6120b5565b6108c6838361345a565b600081118015612eb757508260c001518111155b612f295760405162461bcd60e51b815260206004820152603160248201527f4d61726b65743a206d7573742062757920616e20617070726f7072696174652060448201527f616d6f756e74206f6620746f6b656e732e00000000000000000000000000000060648201526084016106b6565b8260a001514211158015612f41575082608001514210155b612fb35760405162461bcd60e51b815260206004820152603260248201527f4d61726b65743a207468652073616c652068617320656974686572206e6f742060448201527f73746172746564206f7220636c6f7365642e000000000000000000000000000060648201526084016106b6565b61012083015183516000908152600b602090815260408083206001600160a01b0387168452909152902054612fe8908361414f565b111561305c5760405162461bcd60e51b815260206004820152603460248201527f4d61726b65743a2043616e6e6f7420627579206d6f72652066726f6d206c697360448201527f74696e67207468616e207065726d69747465642e00000000000000000000000060648201526084016106b6565b61307e8360200151846040015185606001518660c00151876101400151612484565b6130f05760405162461bcd60e51b815260206004820152602c60248201527f4d61726b65743a2063616e6e6f742062757920746f6b656e732066726f6d207460448201527f686973206c697374696e672e000000000000000000000000000000000000000060648201526084016106b6565b6108c6828460e001518561010001518461310a9190614187565b6122b7565b60068054906001906000613123838561414f565b9250508190555090565b6040516301ffc9a760e01b8152636cdb3d1360e11b60048201526000906001600160a01b038316906301ffc9a79060240160206040518083038186803b15801561317657600080fd5b505afa15801561318a573d6000803e3d6000fd5b505050506040513d601f19601f820116820180604052508101906131ae9190613b87565b156131bb57506000919050565b6040516301ffc9a760e01b81526380ac58cd60e01b60048201526001600160a01b038316906301ffc9a79060240160206040518083038186803b15801561320157600080fd5b505afa158015613215573d6000803e3d6000fd5b505050506040513d601f19601f820116820180604052508101906132399190613b87565b1561324657506001919050565b60405162461bcd60e51b815260206004820152603860248201527f4d61726b65743a20746f6b656e206d75737420696d706c656d656e742065697460448201527f686572204552432031313535206f7220455243203732312e000000000000000060648201526084016106b6565b919050565b6000828152602081815260408083206001600160a01b038516845290915290205460ff16612073576000828152602081815260408083206001600160a01b03851684529091529020805460ff191660011790556133146120b5565b6001600160a01b0316816001600160a01b0316837f2f8788117e7eff1d82e926ec794901d17c78024a50270940304540a733656f0d60405160405180910390a45050565b600081815260018301602052604081205461339f57508154600181810184556000848152602080822090930184905584548482528286019093526040902091909155610635565b506000610635565b60006001600160e01b03198216637965db0b60e01b148061063557506301ffc9a760e01b6001600160e01b0319831614610635565b6000828152602081815260408083206001600160a01b038516845290915290205460ff1661207357613418816001600160a01b03166014613737565b613423836020613737565b604051602001613434929190613f20565b60408051601f198184030181529082905262461bcd60e51b82526106b69160040161402f565b6000828152602081815260408083206001600160a01b038516845290915290205460ff1615612073576000828152602081815260408083206001600160a01b03851684529091529020805460ff191690556134b36120b5565b6001600160a01b0316816001600160a01b0316837ff6391f5c32d9c69d2a47ea670b442974b53935d1edc7fd64eb21e047a839171b60405160405180910390a45050565b6000818152600183016020526040812054801561360a57600061351b6001836141a6565b855490915060009061352f906001906141a6565b90508181146135b057600086600001828154811061355d57634e487b7160e01b600052603260045260246000fd5b906000526020600020015490508087600001848154811061358e57634e487b7160e01b600052603260045260246000fd5b6000918252602080832090910192909255918252600188019052604090208390555b85548690806135cf57634e487b7160e01b600052603160045260246000fd5b600190038181906000526020600020016000905590558560010160008681526020019081526020016000206000905560019350505050610635565b6000915050610635565b600082600001828154811061363957634e487b7160e01b600052603260045260246000fd5b9060005260206000200154905092915050565b6060833b6136c25760405162461bcd60e51b815260206004820152602660248201527f416464726573733a2064656c65676174652063616c6c20746f206e6f6e2d636f60448201527f6e7472616374000000000000000000000000000000000000000000000000000060648201526084016106b6565b600080856001600160a01b0316856040516136dd9190613f04565b600060405180830381855af49150503d8060008114613718576040519150601f19603f3d011682016040523d82523d6000602084013e61371d565b606091505b509150915061372d828286613926565b9695505050505050565b60606000613746836002614187565b61375190600261414f565b67ffffffffffffffff81111561377757634e487b7160e01b600052604160045260246000fd5b6040519080825280601f01601f1916602001820160405280156137a1576020820181803683370190505b509050600360fc1b816000815181106137ca57634e487b7160e01b600052603260045260246000fd5b60200101906001600160f81b031916908160001a905350600f60fb1b8160018151811061380757634e487b7160e01b600052603260045260246000fd5b60200101906001600160f81b031916908160001a905350600061382b846002614187565b61383690600161414f565b90505b60018111156138d7577f303132333435363738396162636465660000000000000000000000000000000085600f166010811061388557634e487b7160e01b600052603260045260246000fd5b1a60f81b8282815181106138a957634e487b7160e01b600052603260045260246000fd5b60200101906001600160f81b031916908160001a90535060049490941c936138d0816141e9565b9050613839565b508315610c535760405162461bcd60e51b815260206004820181905260248201527f537472696e67733a20686578206c656e67746820696e73756666696369656e7460448201526064016106b6565b60608315613935575081610c53565b8251156139455782518084602001fd5b8160405162461bcd60e51b81526004016106b6919061402f565b6040518061016001604052806000815260200160006001600160a01b0316815260200160006001600160a01b031681526020016000815260200160008152602001600081526020016000815260200160006001600160a01b031681526020016000815260200160008152602001600060018111156139ed57634e487b7160e01b600052602160045260246000fd5b905290565b8280546139fe90614200565b90600052602060002090601f016020900481019282613a205760008555613a66565b82601f10613a395782800160ff19823516178555613a66565b82800160010185558215613a66579182015b82811115613a66578235825591602001919060010190613a4b565b50613a72929150613a76565b5090565b5b80821115613a725760008155600101613a77565b80356132b48161426c565b600060208284031215613aa7578081fd5b8135610c538161426c565b600060208284031215613ac3578081fd5b8151610c538161426c565b60008060408385031215613ae0578081fd5b8251613aeb8161426c565b6020939093015192949293505050565b60008060208385031215613b0d578182fd5b823567ffffffffffffffff80821115613b24578384fd5b818501915085601f830112613b37578384fd5b813581811115613b45578485fd5b8660208260051b8501011115613b59578485fd5b60209290920196919550909350505050565b600060208284031215613b7c578081fd5b8135610c5381614281565b600060208284031215613b98578081fd5b8151610c5381614281565b600060208284031215613bb4578081fd5b5035919050565b600060208284031215613bcc578081fd5b5051919050565b60008060408385031215613be5578182fd5b823591506020830135613bf78161426c565b809150509250929050565b60008060408385031215613c14578182fd5b50508035926020909101359150565b600060208284031215613c34578081fd5b81356001600160e01b031981168114610c53578182fd5b60008060208385031215613c5d578182fd5b823567ffffffffffffffff80821115613c74578384fd5b818501915085601f830112613c87578384fd5b813581811115613c95578485fd5b866020828501011115613b59578485fd5b6000610100808385031215613cb9578182fd5b6040519081019067ffffffffffffffff82118183101715613ce857634e487b7160e01b83526041600452602483fd5b81604052613cf584613a8b565b815260208401356020820152604084013560408201526060840135606082015260808401356080820152613d2b60a08501613a8b565b60a082015260c084013560c082015260e084013560e0820152809250505092915050565b600060208284031215613d60578081fd5b8135610c538161428f565b600060208284031215613d7c578081fd5b8151610c538161428f565b600080600060608486031215613d9b578081fd5b505081359360208301359350604090920135919050565b600080600080600080600060e0888a031215613dcc578485fd5b873596506020880135955060408801359450606088013593506080880135613df38161426c565b9699959850939692959460a0840135945060c09093013592915050565b60008151808452613e288160208601602086016141bd565b601f01601f19169290920160200192915050565b60028110613e5a57634e487b7160e01b600052602160045260246000fd5b9052565b805182526020810151613e7c60208401826001600160a01b03169052565b506040810151613e9760408401826001600160a01b03169052565b50606081015160608301526080810151608083015260a081015160a083015260c081015160c083015260e0810151613eda60e08401826001600160a01b03169052565b506101008181015190830152610120808201519083015261014080820151612e4682850182613e3c565b60008251613f168184602087016141bd565b9190910192915050565b7f416363657373436f6e74726f6c3a206163636f756e7420000000000000000000815260008351613f588160178501602088016141bd565b7f206973206d697373696e6720726f6c65200000000000000000000000000000006017918401918201528351613f958160288401602088016141bd565b01602801949350505050565b6001600160a01b0384168152602081018390526101a08101613fc66040830184613e5e565b949350505050565b6000602080830181845280855180835260408601915060408160051b8701019250838701855b8281101561402257603f19888603018452614010858351613e10565b94509285019290850190600101613ff4565b5092979650505050505050565b602081526000610c536020830184613e10565b61016081016106358284613e5e565b60006101e082019050835182526001600160a01b0360208501511660208301526040840151604083015260608401516060830152610c536080830184613e5e565b6000610160820190508c82526001600160a01b03808d166020840152808c1660408401528a60608401528960808401528860a08401528760c084015280871660e08401525084610100830152836101208301526140f3610140830184613e3c565b9c9b505050505050505050505050565b6000808335601e19843603018112614119578283fd5b83018035915067ffffffffffffffff821115614133578283fd5b60200191503681900382131561414857600080fd5b9250929050565b6000821982111561416257614162614256565b500190565b60008261418257634e487b7160e01b81526012600452602481fd5b500490565b60008160001904831182151516156141a1576141a1614256565b500290565b6000828210156141b8576141b8614256565b500390565b60005b838110156141d85781810151838201526020016141c0565b83811115612e465750506000910152565b6000816141f8576141f8614256565b506000190190565b600181811c9082168061421457607f821691505b6020821081141561423557634e487b7160e01b600052602260045260246000fd5b50919050565b600060001982141561424f5761424f614256565b5060010190565b634e487b7160e01b600052601160045260246000fd5b6001600160a01b038116811461089957600080fd5b801515811461089957600080fd5b6fffffffffffffffffffffffffffffffff8116811461089957600080fdfe416464726573733a206c6f772d6c6576656c2064656c65676174652063616c6c206661696c6564a164736f6c6343000804000a",
  "linkReferences": {},
  "deployedLinkReferences": {}
}