{
  "_format": "hh-sol-artifact-1",
  "contractName": "MintableERC20Permit",
  "sourceName": "contracts/test-helpers/MintableERC20Permit.sol",
  "abi": [
    {
      "inputs": [],
      "stateMutability": "nonpayable",
      "type": "constructor"
    },
    {
      "anonymous": false,
      "inputs": [
        {
          "indexed": true,
          "internalType": "address",
          "name": "owner",
          "type": "address"
        },
        {
          "indexed": true,
          "internalType": "address",
          "name": "spender",
          "type": "address"
        },
        {
          "indexed": false,
          "internalType": "uint256",
          "name": "value",
          "type": "uint256"
        }
      ],
      "name": "Approval",
      "type": "event"
    },
    {
      "anonymous": false,
      "inputs": [
        {
          "indexed": false,
          "internalType": "address",
          "name": "account",
          "type": "address"
        }
      ],
      "name": "Paused",
      "type": "event"
    },
    {
      "anonymous": false,
      "inputs": [
        {
          "indexed": true,
          "internalType": "bytes32",
          "name": "role",
          "type": "bytes32"
        },
        {
          "indexed": true,
          "internalType": "bytes32",
          "name": "previousAdminRole",
          "type": "bytes32"
        },
        {
          "indexed": true,
          "internalType": "bytes32",
          "name": "newAdminRole",
          "type": "bytes32"
        }
      ],
      "name": "RoleAdminChanged",
      "type": "event"
    },
    {
      "anonymous": false,
      "inputs": [
        {
          "indexed": true,
          "internalType": "bytes32",
          "name": "role",
          "type": "bytes32"
        },
        {
          "indexed": true,
          "internalType": "address",
          "name": "account",
          "type": "address"
        },
        {
          "indexed": true,
          "internalType": "address",
          "name": "sender",
          "type": "address"
        }
      ],
      "name": "RoleGranted",
      "type": "event"
    },
    {
      "anonymous": false,
      "inputs": [
        {
          "indexed": true,
          "internalType": "bytes32",
          "name": "role",
          "type": "bytes32"
        },
        {
          "indexed": true,
          "internalType": "address",
          "name": "account",
          "type": "address"
        },
        {
          "indexed": true,
          "internalType": "address",
          "name": "sender",
          "type": "address"
        }
      ],
      "name": "RoleRevoked",
      "type": "event"
    },
    {
      "anonymous": false,
      "inputs": [
        {
          "indexed": true,
          "internalType": "address",
          "name": "from",
          "type": "address"
        },
        {
          "indexed": true,
          "internalType": "address",
          "name": "to",
          "type": "address"
        },
        {
          "indexed": false,
          "internalType": "uint256",
          "name": "value",
          "type": "uint256"
        }
      ],
      "name": "Transfer",
      "type": "event"
    },
    {
      "anonymous": false,
      "inputs": [
        {
          "indexed": false,
          "internalType": "address",
          "name": "account",
          "type": "address"
        }
      ],
      "name": "Unpaused",
      "type": "event"
    },
    {
      "inputs": [],
      "name": "DEFAULT_ADMIN_ROLE",
      "outputs": [
        {
          "internalType": "bytes32",
          "name": "",
          "type": "bytes32"
        }
      ],
      "stateMutability": "view",
      "type": "function"
    },
    {
      "inputs": [],
      "name": "DOMAIN_SEPARATOR",
      "outputs": [
        {
          "internalType": "bytes32",
          "name": "",
          "type": "bytes32"
        }
      ],
      "stateMutability": "view",
      "type": "function"
    },
    {
      "inputs": [],
      "name": "MINTER_ROLE",
      "outputs": [
        {
          "internalType": "bytes32",
          "name": "",
          "type": "bytes32"
        }
      ],
      "stateMutability": "view",
      "type": "function"
    },
    {
      "inputs": [],
      "name": "PAUSER_ROLE",
      "outputs": [
        {
          "internalType": "bytes32",
          "name": "",
          "type": "bytes32"
        }
      ],
      "stateMutability": "view",
      "type": "function"
    },
    {
      "inputs": [
        {
          "internalType": "address",
          "name": "owner",
          "type": "address"
        },
        {
          "internalType": "address",
          "name": "spender",
          "type": "address"
        }
      ],
      "name": "allowance",
      "outputs": [
        {
          "internalType": "uint256",
          "name": "",
          "type": "uint256"
        }
      ],
      "stateMutability": "view",
      "type": "function"
    },
    {
      "inputs": [
        {
          "internalType": "address",
          "name": "spender",
          "type": "address"
        },
        {
          "internalType": "uint256",
          "name": "amount",
          "type": "uint256"
        }
      ],
      "name": "approve",
      "outputs": [
        {
          "internalType": "bool",
          "name": "",
          "type": "bool"
        }
      ],
      "stateMutability": "nonpayable",
      "type": "function"
    },
    {
      "inputs": [
        {
          "internalType": "address",
          "name": "account",
          "type": "address"
        }
      ],
      "name": "balanceOf",
      "outputs": [
        {
          "internalType": "uint256",
          "name": "",
          "type": "uint256"
        }
      ],
      "stateMutability": "view",
      "type": "function"
    },
    {
      "inputs": [
        {
          "internalType": "uint256",
          "name": "amount",
          "type": "uint256"
        }
      ],
      "name": "burn",
      "outputs": [],
      "stateMutability": "nonpayable",
      "type": "function"
    },
    {
      "inputs": [
        {
          "internalType": "address",
          "name": "account",
          "type": "address"
        },
        {
          "internalType": "uint256",
          "name": "amount",
          "type": "uint256"
        }
      ],
      "name": "burnFrom",
      "outputs": [],
      "stateMutability": "nonpayable",
      "type": "function"
    },
    {
      "inputs": [],
      "name": "decimals",
      "outputs": [
        {
          "internalType": "uint8",
          "name": "",
          "type": "uint8"
        }
      ],
      "stateMutability": "view",
      "type": "function"
    },
    {
      "inputs": [
        {
          "internalType": "address",
          "name": "spender",
          "type": "address"
        },
        {
          "internalType": "uint256",
          "name": "subtractedValue",
          "type": "uint256"
        }
      ],
      "name": "decreaseAllowance",
      "outputs": [
        {
          "internalType": "bool",
          "name": "",
          "type": "bool"
        }
      ],
      "stateMutability": "nonpayable",
      "type": "function"
    },
    {
      "inputs": [
        {
          "internalType": "bytes32",
          "name": "role",
          "type": "bytes32"
        }
      ],
      "name": "getRoleAdmin",
      "outputs": [
        {
          "internalType": "bytes32",
          "name": "",
          "type": "bytes32"
        }
      ],
      "stateMutability": "view",
      "type": "function"
    },
    {
      "inputs": [
        {
          "internalType": "bytes32",
          "name": "role",
          "type": "bytes32"
        },
        {
          "internalType": "uint256",
          "name": "index",
          "type": "uint256"
        }
      ],
      "name": "getRoleMember",
      "outputs": [
        {
          "internalType": "address",
          "name": "",
          "type": "address"
        }
      ],
      "stateMutability": "view",
      "type": "function"
    },
    {
      "inputs": [
        {
          "internalType": "bytes32",
          "name": "role",
          "type": "bytes32"
        }
      ],
      "name": "getRoleMemberCount",
      "outputs": [
        {
          "internalType": "uint256",
          "name": "",
          "type": "uint256"
        }
      ],
      "stateMutability": "view",
      "type": "function"
    },
    {
      "inputs": [
        {
          "internalType": "bytes32",
          "name": "role",
          "type": "bytes32"
        },
        {
          "internalType": "address",
          "name": "account",
          "type": "address"
        }
      ],
      "name": "grantRole",
      "outputs": [],
      "stateMutability": "nonpayable",
      "type": "function"
    },
    {
      "inputs": [
        {
          "internalType": "bytes32",
          "name": "role",
          "type": "bytes32"
        },
        {
          "internalType": "address",
          "name": "account",
          "type": "address"
        }
      ],
      "name": "hasRole",
      "outputs": [
        {
          "internalType": "bool",
          "name": "",
          "type": "bool"
        }
      ],
      "stateMutability": "view",
      "type": "function"
    },
    {
      "inputs": [
        {
          "internalType": "address",
          "name": "spender",
          "type": "address"
        },
        {
          "internalType": "uint256",
          "name": "addedValue",
          "type": "uint256"
        }
      ],
      "name": "increaseAllowance",
      "outputs": [
        {
          "internalType": "bool",
          "name": "",
          "type": "bool"
        }
      ],
      "stateMutability": "nonpayable",
      "type": "function"
    },
    {
      "inputs": [
        {
          "internalType": "address",
          "name": "to",
          "type": "address"
        },
        {
          "internalType": "uint256",
          "name": "amount",
          "type": "uint256"
        }
      ],
      "name": "mint",
      "outputs": [],
      "stateMutability": "nonpayable",
      "type": "function"
    },
    {
      "inputs": [],
      "name": "name",
      "outputs": [
        {
          "internalType": "string",
          "name": "",
          "type": "string"
        }
      ],
      "stateMutability": "view",
      "type": "function"
    },
    {
      "inputs": [
        {
          "internalType": "address",
          "name": "owner",
          "type": "address"
        }
      ],
      "name": "nonces",
      "outputs": [
        {
          "internalType": "uint256",
          "name": "",
          "type": "uint256"
        }
      ],
      "stateMutability": "view",
      "type": "function"
    },
    {
      "inputs": [],
      "name": "pause",
      "outputs": [],
      "stateMutability": "nonpayable",
      "type": "function"
    },
    {
      "inputs": [],
      "name": "paused",
      "outputs": [
        {
          "internalType": "bool",
          "name": "",
          "type": "bool"
        }
      ],
      "stateMutability": "view",
      "type": "function"
    },
    {
      "inputs": [
        {
          "internalType": "address",
          "name": "owner",
          "type": "address"
        },
        {
          "internalType": "address",
          "name": "spender",
          "type": "address"
        },
        {
          "internalType": "uint256",
          "name": "value",
          "type": "uint256"
        },
        {
          "internalType": "uint256",
          "name": "deadline",
          "type": "uint256"
        },
        {
          "internalType": "uint8",
          "name": "v",
          "type": "uint8"
        },
        {
          "internalType": "bytes32",
          "name": "r",
          "type": "bytes32"
        },
        {
          "internalType": "bytes32",
          "name": "s",
          "type": "bytes32"
        }
      ],
      "name": "permit",
      "outputs": [],
      "stateMutability": "nonpayable",
      "type": "function"
    },
    {
      "inputs": [
        {
          "internalType": "bytes32",
          "name": "role",
          "type": "bytes32"
        },
        {
          "internalType": "address",
          "name": "account",
          "type": "address"
        }
      ],
      "name": "renounceRole",
      "outputs": [],
      "stateMutability": "nonpayable",
      "type": "function"
    },
    {
      "inputs": [
        {
          "internalType": "bytes32",
          "name": "role",
          "type": "bytes32"
        },
        {
          "internalType": "address",
          "name": "account",
          "type": "address"
        }
      ],
      "name": "revokeRole",
      "outputs": [],
      "stateMutability": "nonpayable",
      "type": "function"
    },
    {
      "inputs": [
        {
          "internalType": "bytes4",
          "name": "interfaceId",
          "type": "bytes4"
        }
      ],
      "name": "supportsInterface",
      "outputs": [
        {
          "internalType": "bool",
          "name": "",
          "type": "bool"
        }
      ],
      "stateMutability": "view",
      "type": "function"
    },
    {
      "inputs": [],
      "name": "symbol",
      "outputs": [
        {
          "internalType": "string",
          "name": "",
          "type": "string"
        }
      ],
      "stateMutability": "view",
      "type": "function"
    },
    {
      "inputs": [],
      "name": "totalSupply",
      "outputs": [
        {
          "internalType": "uint256",
          "name": "",
          "type": "uint256"
        }
      ],
      "stateMutability": "view",
      "type": "function"
    },
    {
      "inputs": [
        {
          "internalType": "address",
          "name": "recipient",
          "type": "address"
        },
        {
          "internalType": "uint256",
          "name": "amount",
          "type": "uint256"
        }
      ],
      "name": "transfer",
      "outputs": [
        {
          "internalType": "bool",
          "name": "",
          "type": "bool"
        }
      ],
      "stateMutability": "nonpayable",
      "type": "function"
    },
    {
      "inputs": [
        {
          "internalType": "address",
          "name": "sender",
          "type": "address"
        },
        {
          "internalType": "address",
          "name": "recipient",
          "type": "address"
        },
        {
          "internalType": "uint256",
          "name": "amount",
          "type": "uint256"
        }
      ],
      "name": "transferFrom",
      "outputs": [
        {
          "internalType": "bool",
          "name": "",
          "type": "bool"
        }
      ],
      "stateMutability": "nonpayable",
      "type": "function"
    },
    {
      "inputs": [],
      "name": "unpause",
      "outputs": [],
      "stateMutability": "nonpayable",
      "type": "function"
    }
  ],
  "bytecode": "0x6101406040527f6e71edae12b1b97f4d1f60370fef10105fa2faae0126114a169c64845d6126c9610120523480156200003757600080fd5b50604051806040016040528060088152602001672aa9a21021b7b4b760c11b815250604051806040016040528060048152602001635553444360e01b8152508180604051806040016040528060018152602001603160f81b81525084848160059080519060200190620000ac9291906200035d565b508051620000c29060069060208401906200035d565b50506007805460ff1916905550815160209283012081519183019190912060c082815260e08290524660a0818152604080517f8b73c3c69bb8fe3d512ecc4cf759cc79239f7b179b0ffacaa9a75d522b39400f818901819052818301979097526060810195909552608080860193909352308583015280518086039092018252939092019092528051930192909220909152610100525062000166600033620001b5565b620001816000805160206200256383398151915233620001b5565b620001ad7f65d7a28e3265b37a6474929f336521b332c1681b933f6cb9f3376673440d862a33620001b5565b505062000440565b620001cc8282620001f860201b62000c101760201c565b6000828152600160209081526040909120620001f391839062000c1a62000208821b17901c565b505050565b62000204828262000228565b5050565b60006200021f836001600160a01b038416620002b0565b90505b92915050565b62000234828262000302565b62000204576000828152602081815260408083206001600160a01b03851684529091529020805460ff191660011790556200026c3390565b6001600160a01b0316816001600160a01b0316837f2f8788117e7eff1d82e926ec794901d17c78024a50270940304540a733656f0d60405160405180910390a45050565b6000818152600183016020526040812054620002f95750815460018181018455600084815260208082209093018490558454848252828601909352604090209190915562000222565b50600062000222565b6000600080516020620025638339815191528314806200021f57506200021f83836200033460201b62000c2f1760201c565b6000918252602082815260408084206001600160a01b0393909316845291905290205460ff1690565b8280546200036b9062000403565b90600052602060002090601f0160209004810192826200038f5760008555620003da565b82601f10620003aa57805160ff1916838001178555620003da565b82800160010185558215620003da579182015b82811115620003da578251825591602001919060010190620003bd565b50620003e8929150620003ec565b5090565b5b80821115620003e85760008155600101620003ed565b600181811c908216806200041857607f821691505b602082108114156200043a57634e487b7160e01b600052602260045260246000fd5b50919050565b60805160a05160c05160e05161010051610120516120d3620004906000396000610af601526000611008015260006110570152600061103201526000610fb601526000610fdf01526120d36000f3fe608060405234801561001057600080fd5b50600436106101e55760003560e01c806370a082311161010f578063a457c2d7116100a2578063d539139311610071578063d5391393146103fe578063d547741f14610425578063dd62ed3e14610438578063e63ab1e91461047157600080fd5b8063a457c2d7146103b2578063a9059cbb146103c5578063ca15c873146103d8578063d505accf146103eb57600080fd5b80639010d07c116100de5780639010d07c1461036457806391d148541461038f57806395d89b41146103a2578063a217fddf146103aa57600080fd5b806370a082311461030d57806379cc6790146103365780637ecebe00146103495780638456cb591461035c57600080fd5b8063313ce567116101875780633f4ba83a116101565780633f4ba83a146102d457806340c10f19146102dc57806342966c68146102ef5780635c975abb1461030257600080fd5b8063313ce567146102975780633644e515146102a657806336568abe146102ae57806339509351146102c157600080fd5b806318160ddd116101c357806318160ddd1461023a57806323b872dd1461024c578063248a9ca31461025f5780632f2ff15d1461028257600080fd5b806301ffc9a7146101ea57806306fdde0314610212578063095ea7b314610227575b600080fd5b6101fd6101f8366004611d13565b610498565b60405190151581526020015b60405180910390f35b61021a6104c3565b6040516102099190611d69565b6101fd610235366004611db8565b610555565b6004545b604051908152602001610209565b6101fd61025a366004611de2565b61056b565b61023e61026d366004611e1e565b60009081526020819052604090206001015490565b610295610290366004611e37565b61062f565b005b60405160128152602001610209565b61023e610656565b6102956102bc366004611e37565b610665565b6101fd6102cf366004611db8565b610687565b6102956106c3565b6102956102ea366004611db8565b610769565b6102956102fd366004611e1e565b610813565b60075460ff166101fd565b61023e61031b366004611e63565b6001600160a01b031660009081526002602052604090205490565b610295610344366004611db8565b610820565b61023e610357366004611e63565b6108a1565b6102956108bf565b610377610372366004611e7e565b610963565b6040516001600160a01b039091168152602001610209565b6101fd61039d366004611e37565b610982565b61021a6109d6565b61023e600081565b6101fd6103c0366004611db8565b6109e5565b6101fd6103d3366004611db8565b610a7e565b61023e6103e6366004611e1e565b610a8b565b6102956103f9366004611ea0565b610aa2565b61023e7f9f2df0fed2c77648de5860a4cc508cd0818c85b8b8a1ab4ceeef8d981c8956a681565b610295610433366004611e37565b610c06565b61023e610446366004611f13565b6001600160a01b03918216600090815260036020908152604080832093909416825291909152205490565b61023e7f65d7a28e3265b37a6474929f336521b332c1681b933f6cb9f3376673440d862a81565b60006001600160e01b03198216635a05180f60e01b14806104bd57506104bd82610c58565b92915050565b6060600580546104d290611f3d565b80601f01602080910402602001604051908101604052809291908181526020018280546104fe90611f3d565b801561054b5780601f106105205761010080835404028352916020019161054b565b820191906000526020600020905b81548152906001019060200180831161052e57829003601f168201915b5050505050905090565b6000610562338484610c8d565b50600192915050565b6000610578848484610db1565b6001600160a01b0384166000908152600360209081526040808320338452909152902054828110156106175760405162461bcd60e51b815260206004820152602860248201527f45524332303a207472616e7366657220616d6f756e742065786365656473206160448201527f6c6c6f77616e636500000000000000000000000000000000000000000000000060648201526084015b60405180910390fd5b6106248533858403610c8d565b506001949350505050565b6106398282610f8c565b60008281526001602052604090206106519082610c1a565b505050565b6000610660610fb2565b905090565b61066f82826110a5565b6000828152600160205260409020610651908261112d565b3360008181526003602090815260408083206001600160a01b038716845290915281205490916105629185906106be908690611f88565b610c8d565b6106ed7f65d7a28e3265b37a6474929f336521b332c1681b933f6cb9f3376673440d862a33610982565b61075f5760405162461bcd60e51b815260206004820152603960248201527f45524332305072657365744d696e7465725061757365723a206d75737420686160448201527f76652070617573657220726f6c6520746f20756e706175736500000000000000606482015260840161060e565b610767611142565b565b6107937f9f2df0fed2c77648de5860a4cc508cd0818c85b8b8a1ab4ceeef8d981c8956a633610982565b6108055760405162461bcd60e51b815260206004820152603660248201527f45524332305072657365744d696e7465725061757365723a206d75737420686160448201527f7665206d696e74657220726f6c6520746f206d696e7400000000000000000000606482015260840161060e565b61080f82826111de565b5050565b61081d33826112c9565b50565b600061082c8333610446565b90508181101561088a5760405162461bcd60e51b8152602060048201526024808201527f45524332303a206275726e20616d6f756e74206578636565647320616c6c6f77604482015263616e636560e01b606482015260840161060e565b6108978333848403610c8d565b61065183836112c9565b6001600160a01b0381166000908152600860205260408120546104bd565b6108e97f65d7a28e3265b37a6474929f336521b332c1681b933f6cb9f3376673440d862a33610982565b61095b5760405162461bcd60e51b815260206004820152603760248201527f45524332305072657365744d696e7465725061757365723a206d75737420686160448201527f76652070617573657220726f6c6520746f207061757365000000000000000000606482015260840161060e565b610767611423565b600082815260016020526040812061097b90836114ab565b9392505050565b60007f9f2df0fed2c77648de5860a4cc508cd0818c85b8b8a1ab4ceeef8d981c8956a683148061097b57506000838152602081815260408083206001600160a01b038616845290915290205460ff1661097b565b6060600680546104d290611f3d565b3360009081526003602090815260408083206001600160a01b038616845290915281205482811015610a675760405162461bcd60e51b815260206004820152602560248201527f45524332303a2064656372656173656420616c6c6f77616e63652062656c6f77604482015264207a65726f60d81b606482015260840161060e565b610a743385858403610c8d565b5060019392505050565b6000610562338484610db1565b60008181526001602052604081206104bd906114b7565b83421115610af25760405162461bcd60e51b815260206004820152601d60248201527f45524332305065726d69743a206578706972656420646561646c696e65000000604482015260640161060e565b60007f0000000000000000000000000000000000000000000000000000000000000000888888610b218c6114c1565b6040805160208101969096526001600160a01b0394851690860152929091166060840152608083015260a082015260c0810186905260e0016040516020818303038152906040528051906020012090506000610b7c826114e9565b90506000610b8c82878787611537565b9050896001600160a01b0316816001600160a01b031614610bef5760405162461bcd60e51b815260206004820152601e60248201527f45524332305065726d69743a20696e76616c6964207369676e61747572650000604482015260640161060e565b610bfa8a8a8a610c8d565b50505050505050505050565b61066f828261155f565b61080f8282611585565b600061097b836001600160a01b038416611609565b6000918252602082815260408084206001600160a01b0393909316845291905290205460ff1690565b60006001600160e01b03198216637965db0b60e01b14806104bd57506301ffc9a760e01b6001600160e01b03198316146104bd565b6001600160a01b038316610cef5760405162461bcd60e51b8152602060048201526024808201527f45524332303a20617070726f76652066726f6d20746865207a65726f206164646044820152637265737360e01b606482015260840161060e565b6001600160a01b038216610d505760405162461bcd60e51b815260206004820152602260248201527f45524332303a20617070726f766520746f20746865207a65726f206164647265604482015261737360f01b606482015260840161060e565b6001600160a01b0383811660008181526003602090815260408083209487168084529482529182902085905590518481527f8c5be1e5ebec7d5bd14f71427d1e84f3dd0314c0f7b2291e5b200ac8c7c3b925910160405180910390a3505050565b6001600160a01b038316610e155760405162461bcd60e51b815260206004820152602560248201527f45524332303a207472616e736665722066726f6d20746865207a65726f206164604482015264647265737360d81b606482015260840161060e565b6001600160a01b038216610e775760405162461bcd60e51b815260206004820152602360248201527f45524332303a207472616e7366657220746f20746865207a65726f206164647260448201526265737360e81b606482015260840161060e565b610e82838383611658565b6001600160a01b03831660009081526002602052604090205481811015610efa5760405162461bcd60e51b815260206004820152602660248201527f45524332303a207472616e7366657220616d6f756e7420657863656564732062604482015265616c616e636560d01b606482015260840161060e565b6001600160a01b03808516600090815260026020526040808220858503905591851681529081208054849290610f31908490611f88565b92505081905550826001600160a01b0316846001600160a01b03167fddf252ad1be2c89b69c2b068fc378daa952ba7f163c4a11628f55a4df523b3ef84604051610f7d91815260200190565b60405180910390a35b50505050565b600082815260208190526040902060010154610fa88133611663565b6106518383611585565b60007f000000000000000000000000000000000000000000000000000000000000000046141561100157507f000000000000000000000000000000000000000000000000000000000000000090565b50604080517f00000000000000000000000000000000000000000000000000000000000000006020808301919091527f0000000000000000000000000000000000000000000000000000000000000000828401527f000000000000000000000000000000000000000000000000000000000000000060608301524660808301523060a0808401919091528351808403909101815260c0909201909252805191012090565b6001600160a01b03811633146111235760405162461bcd60e51b815260206004820152602f60248201527f416363657373436f6e74726f6c3a2063616e206f6e6c792072656e6f756e636560448201527f20726f6c657320666f722073656c660000000000000000000000000000000000606482015260840161060e565b61080f82826116c7565b600061097b836001600160a01b03841661172c565b60075460ff166111945760405162461bcd60e51b815260206004820152601460248201527f5061757361626c653a206e6f7420706175736564000000000000000000000000604482015260640161060e565b6007805460ff191690557f5db9ee0a495bf2e6ff9c91a7834c1ba4fdd244a5e8aa4e537bd38aeae4b073aa335b6040516001600160a01b03909116815260200160405180910390a1565b6001600160a01b0382166112345760405162461bcd60e51b815260206004820152601f60248201527f45524332303a206d696e7420746f20746865207a65726f206164647265737300604482015260640161060e565b61124060008383611658565b80600460008282546112529190611f88565b90915550506001600160a01b0382166000908152600260205260408120805483929061127f908490611f88565b90915550506040518181526001600160a01b038316906000907fddf252ad1be2c89b69c2b068fc378daa952ba7f163c4a11628f55a4df523b3ef9060200160405180910390a35050565b6001600160a01b0382166113295760405162461bcd60e51b815260206004820152602160248201527f45524332303a206275726e2066726f6d20746865207a65726f206164647265736044820152607360f81b606482015260840161060e565b61133582600083611658565b6001600160a01b038216600090815260026020526040902054818110156113a95760405162461bcd60e51b815260206004820152602260248201527f45524332303a206275726e20616d6f756e7420657863656564732062616c616e604482015261636560f01b606482015260840161060e565b6001600160a01b03831660009081526002602052604081208383039055600480548492906113d8908490611fa0565b90915550506040518281526000906001600160a01b038516907fddf252ad1be2c89b69c2b068fc378daa952ba7f163c4a11628f55a4df523b3ef9060200160405180910390a3505050565b60075460ff16156114765760405162461bcd60e51b815260206004820152601060248201527f5061757361626c653a2070617573656400000000000000000000000000000000604482015260640161060e565b6007805460ff191660011790557f62e78cea01bee320cd4e420270b5ea74000d11b0c9f74754ebdbfc544b05a2586111c13390565b600061097b838361181f565b60006104bd825490565b6001600160a01b03811660009081526008602052604090208054600181018255905b50919050565b60006104bd6114f6610fb2565b8360405161190160f01b6020820152602281018390526042810182905260009060620160405160208183030381529060405280519060200120905092915050565b600080600061154887878787611849565b9150915061155581611936565b5095945050505050565b60008281526020819052604090206001015461157b8133611663565b61065183836116c7565b61158f8282610982565b61080f576000828152602081815260408083206001600160a01b03851684529091529020805460ff191660011790556115c53390565b6001600160a01b0316816001600160a01b0316837f2f8788117e7eff1d82e926ec794901d17c78024a50270940304540a733656f0d60405160405180910390a45050565b6000818152600183016020526040812054611650575081546001818101845560008481526020808220909301849055845484825282860190935260409020919091556104bd565b5060006104bd565b610651838383611af1565b61166d8282610982565b61080f57611685816001600160a01b03166014611b6a565b611690836020611b6a565b6040516020016116a1929190611fb7565b60408051601f198184030181529082905262461bcd60e51b825261060e91600401611d69565b6116d18282610982565b1561080f576000828152602081815260408083206001600160a01b0385168085529252808320805460ff1916905551339285917ff6391f5c32d9c69d2a47ea670b442974b53935d1edc7fd64eb21e047a839171b9190a45050565b60008181526001830160205260408120548015611815576000611750600183611fa0565b855490915060009061176490600190611fa0565b90508181146117c957600086600001828154811061178457611784612038565b90600052602060002001549050808760000184815481106117a7576117a7612038565b6000918252602080832090910192909255918252600188019052604090208390555b85548690806117da576117da61204e565b6001900381819060005260206000200160009055905585600101600086815260200190815260200160002060009055600193505050506104bd565b60009150506104bd565b600082600001828154811061183657611836612038565b9060005260206000200154905092915050565b6000807f7fffffffffffffffffffffffffffffff5d576e7357a4501ddfe92f46681b20a0831115611880575060009050600361192d565b8460ff16601b1415801561189857508460ff16601c14155b156118a9575060009050600461192d565b6040805160008082526020820180845289905260ff881692820192909252606081018690526080810185905260019060a0016020604051602081039080840390855afa1580156118fd573d6000803e3d6000fd5b5050604051601f1901519150506001600160a01b0381166119265760006001925092505061192d565b9150600090505b94509492505050565b600081600481111561194a5761194a612064565b14156119535750565b600181600481111561196757611967612064565b14156119b55760405162461bcd60e51b815260206004820152601860248201527f45434453413a20696e76616c6964207369676e61747572650000000000000000604482015260640161060e565b60028160048111156119c9576119c9612064565b1415611a175760405162461bcd60e51b815260206004820152601f60248201527f45434453413a20696e76616c6964207369676e6174757265206c656e67746800604482015260640161060e565b6003816004811115611a2b57611a2b612064565b1415611a845760405162461bcd60e51b815260206004820152602260248201527f45434453413a20696e76616c6964207369676e6174757265202773272076616c604482015261756560f01b606482015260840161060e565b6004816004811115611a9857611a98612064565b141561081d5760405162461bcd60e51b815260206004820152602260248201527f45434453413a20696e76616c6964207369676e6174757265202776272076616c604482015261756560f01b606482015260840161060e565b60075460ff16156106515760405162461bcd60e51b815260206004820152602a60248201527f45524332305061757361626c653a20746f6b656e207472616e7366657220776860448201527f696c652070617573656400000000000000000000000000000000000000000000606482015260840161060e565b60606000611b7983600261207a565b611b84906002611f88565b67ffffffffffffffff811115611b9c57611b9c612099565b6040519080825280601f01601f191660200182016040528015611bc6576020820181803683370190505b509050600360fc1b81600081518110611be157611be1612038565b60200101906001600160f81b031916908160001a905350600f60fb1b81600181518110611c1057611c10612038565b60200101906001600160f81b031916908160001a9053506000611c3484600261207a565b611c3f906001611f88565b90505b6001811115611cc4577f303132333435363738396162636465660000000000000000000000000000000085600f1660108110611c8057611c80612038565b1a60f81b828281518110611c9657611c96612038565b60200101906001600160f81b031916908160001a90535060049490941c93611cbd816120af565b9050611c42565b50831561097b5760405162461bcd60e51b815260206004820181905260248201527f537472696e67733a20686578206c656e67746820696e73756666696369656e74604482015260640161060e565b600060208284031215611d2557600080fd5b81356001600160e01b03198116811461097b57600080fd5b60005b83811015611d58578181015183820152602001611d40565b83811115610f865750506000910152565b6020815260008251806020840152611d88816040850160208701611d3d565b601f01601f19169190910160400192915050565b80356001600160a01b0381168114611db357600080fd5b919050565b60008060408385031215611dcb57600080fd5b611dd483611d9c565b946020939093013593505050565b600080600060608486031215611df757600080fd5b611e0084611d9c565b9250611e0e60208501611d9c565b9150604084013590509250925092565b600060208284031215611e3057600080fd5b5035919050565b60008060408385031215611e4a57600080fd5b82359150611e5a60208401611d9c565b90509250929050565b600060208284031215611e7557600080fd5b61097b82611d9c565b60008060408385031215611e9157600080fd5b50508035926020909101359150565b600080600080600080600060e0888a031215611ebb57600080fd5b611ec488611d9c565b9650611ed260208901611d9c565b95506040880135945060608801359350608088013560ff81168114611ef657600080fd5b9699959850939692959460a0840135945060c09093013592915050565b60008060408385031215611f2657600080fd5b611f2f83611d9c565b9150611e5a60208401611d9c565b600181811c90821680611f5157607f821691505b602082108114156114e357634e487b7160e01b600052602260045260246000fd5b634e487b7160e01b600052601160045260246000fd5b60008219821115611f9b57611f9b611f72565b500190565b600082821015611fb257611fb2611f72565b500390565b7f416363657373436f6e74726f6c3a206163636f756e7420000000000000000000815260008351611fef816017850160208801611d3d565b7f206973206d697373696e6720726f6c6520000000000000000000000000000000601791840191820152835161202c816028840160208801611d3d565b01602801949350505050565b634e487b7160e01b600052603260045260246000fd5b634e487b7160e01b600052603160045260246000fd5b634e487b7160e01b600052602160045260246000fd5b600081600019048311821515161561209457612094611f72565b500290565b634e487b7160e01b600052604160045260246000fd5b6000816120be576120be611f72565b50600019019056fea164736f6c6343000809000a9f2df0fed2c77648de5860a4cc508cd0818c85b8b8a1ab4ceeef8d981c8956a6",
  "linkReferences": {},
  "deployedLinkReferences": {}
}