{
  "_format": "hh-sol-artifact-1",
  "contractName": "Market",
  "sourceName": "contracts/Market.sol",
  "abi": [
    {
      "inputs": [
        {
          "internalType": "address payable",
          "name": "_controlCenter",
          "type": "address"
        },
        {
          "internalType": "address",
          "name": "_trustedForwarder",
          "type": "address"
        },
        {
          "internalType": "string",
          "name": "_uri",
          "type": "string"
        },
        {
          "internalType": "uint128",
          "name": "_marketFeeBps",
          "type": "uint128"
        }
      ],
      "stateMutability": "nonpayable",
      "type": "constructor"
    },
    {
      "anonymous": false,
      "inputs": [
        {
          "indexed": true,
          "internalType": "address",
          "name": "seller",
          "type": "address"
        },
        {
          "indexed": true,
          "internalType": "uint256",
          "name": "listingId",
          "type": "uint256"
        },
        {
          "components": [
            {
              "internalType": "uint256",
              "name": "listingId",
              "type": "uint256"
            },
            {
              "internalType": "address",
              "name": "seller",
              "type": "address"
            },
            {
              "internalType": "address",
              "name": "assetContract",
              "type": "address"
            },
            {
              "internalType": "uint256",
              "name": "tokenId",
              "type": "uint256"
            },
            {
              "internalType": "uint256",
              "name": "quantity",
              "type": "uint256"
            },
            {
              "internalType": "address",
              "name": "currency",
              "type": "address"
            },
            {
              "internalType": "uint256",
              "name": "pricePerToken",
              "type": "uint256"
            },
            {
              "internalType": "uint256",
              "name": "saleStart",
              "type": "uint256"
            },
            {
              "internalType": "uint256",
              "name": "saleEnd",
              "type": "uint256"
            },
            {
              "internalType": "uint256",
              "name": "tokensPerBuyer",
              "type": "uint256"
            },
            {
              "internalType": "enum Market.TokenType",
              "name": "tokenType",
              "type": "uint8"
            }
          ],
          "indexed": false,
          "internalType": "struct Market.Listing",
          "name": "listing",
          "type": "tuple"
        }
      ],
      "name": "ListingUpdate",
      "type": "event"
    },
    {
      "anonymous": false,
      "inputs": [
        {
          "indexed": false,
          "internalType": "uint128",
          "name": "newFee",
          "type": "uint128"
        }
      ],
      "name": "MarketFeeUpdate",
      "type": "event"
    },
    {
      "anonymous": false,
      "inputs": [
        {
          "indexed": true,
          "internalType": "address",
          "name": "assetContract",
          "type": "address"
        },
        {
          "indexed": true,
          "internalType": "address",
          "name": "seller",
          "type": "address"
        },
        {
          "indexed": true,
          "internalType": "uint256",
          "name": "listingId",
          "type": "uint256"
        },
        {
          "components": [
            {
              "internalType": "uint256",
              "name": "listingId",
              "type": "uint256"
            },
            {
              "internalType": "address",
              "name": "seller",
              "type": "address"
            },
            {
              "internalType": "address",
              "name": "assetContract",
              "type": "address"
            },
            {
              "internalType": "uint256",
              "name": "tokenId",
              "type": "uint256"
            },
            {
              "internalType": "uint256",
              "name": "quantity",
              "type": "uint256"
            },
            {
              "internalType": "address",
              "name": "currency",
              "type": "address"
            },
            {
              "internalType": "uint256",
              "name": "pricePerToken",
              "type": "uint256"
            },
            {
              "internalType": "uint256",
              "name": "saleStart",
              "type": "uint256"
            },
            {
              "internalType": "uint256",
              "name": "saleEnd",
              "type": "uint256"
            },
            {
              "internalType": "uint256",
              "name": "tokensPerBuyer",
              "type": "uint256"
            },
            {
              "internalType": "enum Market.TokenType",
              "name": "tokenType",
              "type": "uint8"
            }
          ],
          "indexed": false,
          "internalType": "struct Market.Listing",
          "name": "listing",
          "type": "tuple"
        }
      ],
      "name": "NewListing",
      "type": "event"
    },
    {
      "anonymous": false,
      "inputs": [
        {
          "indexed": true,
          "internalType": "address",
          "name": "assetContract",
          "type": "address"
        },
        {
          "indexed": true,
          "internalType": "address",
          "name": "seller",
          "type": "address"
        },
        {
          "indexed": true,
          "internalType": "uint256",
          "name": "listingId",
          "type": "uint256"
        },
        {
          "indexed": false,
          "internalType": "address",
          "name": "buyer",
          "type": "address"
        },
        {
          "indexed": false,
          "internalType": "uint256",
          "name": "quantity",
          "type": "uint256"
        },
        {
          "components": [
            {
              "internalType": "uint256",
              "name": "listingId",
              "type": "uint256"
            },
            {
              "internalType": "address",
              "name": "seller",
              "type": "address"
            },
            {
              "internalType": "address",
              "name": "assetContract",
              "type": "address"
            },
            {
              "internalType": "uint256",
              "name": "tokenId",
              "type": "uint256"
            },
            {
              "internalType": "uint256",
              "name": "quantity",
              "type": "uint256"
            },
            {
              "internalType": "address",
              "name": "currency",
              "type": "address"
            },
            {
              "internalType": "uint256",
              "name": "pricePerToken",
              "type": "uint256"
            },
            {
              "internalType": "uint256",
              "name": "saleStart",
              "type": "uint256"
            },
            {
              "internalType": "uint256",
              "name": "saleEnd",
              "type": "uint256"
            },
            {
              "internalType": "uint256",
              "name": "tokensPerBuyer",
              "type": "uint256"
            },
            {
              "internalType": "enum Market.TokenType",
              "name": "tokenType",
              "type": "uint8"
            }
          ],
          "indexed": false,
          "internalType": "struct Market.Listing",
          "name": "listing",
          "type": "tuple"
        }
      ],
      "name": "NewSale",
      "type": "event"
    },
    {
      "anonymous": false,
      "inputs": [
        {
          "indexed": false,
          "internalType": "address",
          "name": "account",
          "type": "address"
        }
      ],
      "name": "Paused",
      "type": "event"
    },
    {
      "anonymous": false,
      "inputs": [
        {
          "indexed": false,
          "internalType": "bool",
          "name": "restricted",
          "type": "bool"
        }
      ],
      "name": "RestrictedListerRoleUpdated",
      "type": "event"
    },
    {
      "anonymous": false,
      "inputs": [
        {
          "indexed": true,
          "internalType": "bytes32",
          "name": "role",
          "type": "bytes32"
        },
        {
          "indexed": true,
          "internalType": "bytes32",
          "name": "previousAdminRole",
          "type": "bytes32"
        },
        {
          "indexed": true,
          "internalType": "bytes32",
          "name": "newAdminRole",
          "type": "bytes32"
        }
      ],
      "name": "RoleAdminChanged",
      "type": "event"
    },
    {
      "anonymous": false,
      "inputs": [
        {
          "indexed": true,
          "internalType": "bytes32",
          "name": "role",
          "type": "bytes32"
        },
        {
          "indexed": true,
          "internalType": "address",
          "name": "account",
          "type": "address"
        },
        {
          "indexed": true,
          "internalType": "address",
          "name": "sender",
          "type": "address"
        }
      ],
      "name": "RoleGranted",
      "type": "event"
    },
    {
      "anonymous": false,
      "inputs": [
        {
          "indexed": true,
          "internalType": "bytes32",
          "name": "role",
          "type": "bytes32"
        },
        {
          "indexed": true,
          "internalType": "address",
          "name": "account",
          "type": "address"
        },
        {
          "indexed": true,
          "internalType": "address",
          "name": "sender",
          "type": "address"
        }
      ],
      "name": "RoleRevoked",
      "type": "event"
    },
    {
      "anonymous": false,
      "inputs": [
        {
          "indexed": false,
          "internalType": "address",
          "name": "account",
          "type": "address"
        }
      ],
      "name": "Unpaused",
      "type": "event"
    },
    {
      "inputs": [],
      "name": "DEFAULT_ADMIN_ROLE",
      "outputs": [
        {
          "internalType": "bytes32",
          "name": "",
          "type": "bytes32"
        }
      ],
      "stateMutability": "view",
      "type": "function"
    },
    {
      "inputs": [],
      "name": "LISTER_ROLE",
      "outputs": [
        {
          "internalType": "bytes32",
          "name": "",
          "type": "bytes32"
        }
      ],
      "stateMutability": "view",
      "type": "function"
    },
    {
      "inputs": [],
      "name": "PAUSER_ROLE",
      "outputs": [
        {
          "internalType": "bytes32",
          "name": "",
          "type": "bytes32"
        }
      ],
      "stateMutability": "view",
      "type": "function"
    },
    {
      "inputs": [],
      "name": "_contractURI",
      "outputs": [
        {
          "internalType": "string",
          "name": "",
          "type": "string"
        }
      ],
      "stateMutability": "view",
      "type": "function"
    },
    {
      "inputs": [
        {
          "internalType": "uint256",
          "name": "_listingId",
          "type": "uint256"
        },
        {
          "internalType": "uint256",
          "name": "_quantity",
          "type": "uint256"
        }
      ],
      "name": "addToListing",
      "outputs": [],
      "stateMutability": "nonpayable",
      "type": "function"
    },
    {
      "inputs": [
        {
          "internalType": "uint256",
          "name": "",
          "type": "uint256"
        },
        {
          "internalType": "address",
          "name": "",
          "type": "address"
        }
      ],
      "name": "boughtFromListing",
      "outputs": [
        {
          "internalType": "uint256",
          "name": "",
          "type": "uint256"
        }
      ],
      "stateMutability": "view",
      "type": "function"
    },
    {
      "inputs": [
        {
          "internalType": "uint256",
          "name": "_listingId",
          "type": "uint256"
        },
        {
          "internalType": "uint256",
          "name": "_quantity",
          "type": "uint256"
        }
      ],
      "name": "buy",
      "outputs": [],
      "stateMutability": "nonpayable",
      "type": "function"
    },
    {
      "inputs": [],
      "name": "contractURI",
      "outputs": [
        {
          "internalType": "string",
          "name": "",
          "type": "string"
        }
      ],
      "stateMutability": "view",
      "type": "function"
    },
    {
      "inputs": [],
      "name": "getAllListings",
      "outputs": [
        {
          "components": [
            {
              "internalType": "uint256",
              "name": "listingId",
              "type": "uint256"
            },
            {
              "internalType": "address",
              "name": "seller",
              "type": "address"
            },
            {
              "internalType": "address",
              "name": "assetContract",
              "type": "address"
            },
            {
              "internalType": "uint256",
              "name": "tokenId",
              "type": "uint256"
            },
            {
              "internalType": "uint256",
              "name": "quantity",
              "type": "uint256"
            },
            {
              "internalType": "address",
              "name": "currency",
              "type": "address"
            },
            {
              "internalType": "uint256",
              "name": "pricePerToken",
              "type": "uint256"
            },
            {
              "internalType": "uint256",
              "name": "saleStart",
              "type": "uint256"
            },
            {
              "internalType": "uint256",
              "name": "saleEnd",
              "type": "uint256"
            },
            {
              "internalType": "uint256",
              "name": "tokensPerBuyer",
              "type": "uint256"
            },
            {
              "internalType": "enum Market.TokenType",
              "name": "tokenType",
              "type": "uint8"
            }
          ],
          "internalType": "struct Market.Listing[]",
          "name": "allListings",
          "type": "tuple[]"
        }
      ],
      "stateMutability": "view",
      "type": "function"
    },
    {
      "inputs": [
        {
          "internalType": "uint256",
          "name": "_listingId",
          "type": "uint256"
        }
      ],
      "name": "getListing",
      "outputs": [
        {
          "components": [
            {
              "internalType": "uint256",
              "name": "listingId",
              "type": "uint256"
            },
            {
              "internalType": "address",
              "name": "seller",
              "type": "address"
            },
            {
              "internalType": "address",
              "name": "assetContract",
              "type": "address"
            },
            {
              "internalType": "uint256",
              "name": "tokenId",
              "type": "uint256"
            },
            {
              "internalType": "uint256",
              "name": "quantity",
              "type": "uint256"
            },
            {
              "internalType": "address",
              "name": "currency",
              "type": "address"
            },
            {
              "internalType": "uint256",
              "name": "pricePerToken",
              "type": "uint256"
            },
            {
              "internalType": "uint256",
              "name": "saleStart",
              "type": "uint256"
            },
            {
              "internalType": "uint256",
              "name": "saleEnd",
              "type": "uint256"
            },
            {
              "internalType": "uint256",
              "name": "tokensPerBuyer",
              "type": "uint256"
            },
            {
              "internalType": "enum Market.TokenType",
              "name": "tokenType",
              "type": "uint8"
            }
          ],
          "internalType": "struct Market.Listing",
          "name": "listing",
          "type": "tuple"
        }
      ],
      "stateMutability": "view",
      "type": "function"
    },
    {
      "inputs": [
        {
          "internalType": "address",
          "name": "_assetContract",
          "type": "address"
        },
        {
          "internalType": "uint256",
          "name": "_tokenId",
          "type": "uint256"
        }
      ],
      "name": "getListingsByAsset",
      "outputs": [
        {
          "components": [
            {
              "internalType": "uint256",
              "name": "listingId",
              "type": "uint256"
            },
            {
              "internalType": "address",
              "name": "seller",
              "type": "address"
            },
            {
              "internalType": "address",
              "name": "assetContract",
              "type": "address"
            },
            {
              "internalType": "uint256",
              "name": "tokenId",
              "type": "uint256"
            },
            {
              "internalType": "uint256",
              "name": "quantity",
              "type": "uint256"
            },
            {
              "internalType": "address",
              "name": "currency",
              "type": "address"
            },
            {
              "internalType": "uint256",
              "name": "pricePerToken",
              "type": "uint256"
            },
            {
              "internalType": "uint256",
              "name": "saleStart",
              "type": "uint256"
            },
            {
              "internalType": "uint256",
              "name": "saleEnd",
              "type": "uint256"
            },
            {
              "internalType": "uint256",
              "name": "tokensPerBuyer",
              "type": "uint256"
            },
            {
              "internalType": "enum Market.TokenType",
              "name": "tokenType",
              "type": "uint8"
            }
          ],
          "internalType": "struct Market.Listing[]",
          "name": "tokenListings",
          "type": "tuple[]"
        }
      ],
      "stateMutability": "view",
      "type": "function"
    },
    {
      "inputs": [
        {
          "internalType": "address",
          "name": "_assetContract",
          "type": "address"
        }
      ],
      "name": "getListingsByAssetContract",
      "outputs": [
        {
          "components": [
            {
              "internalType": "uint256",
              "name": "listingId",
              "type": "uint256"
            },
            {
              "internalType": "address",
              "name": "seller",
              "type": "address"
            },
            {
              "internalType": "address",
              "name": "assetContract",
              "type": "address"
            },
            {
              "internalType": "uint256",
              "name": "tokenId",
              "type": "uint256"
            },
            {
              "internalType": "uint256",
              "name": "quantity",
              "type": "uint256"
            },
            {
              "internalType": "address",
              "name": "currency",
              "type": "address"
            },
            {
              "internalType": "uint256",
              "name": "pricePerToken",
              "type": "uint256"
            },
            {
              "internalType": "uint256",
              "name": "saleStart",
              "type": "uint256"
            },
            {
              "internalType": "uint256",
              "name": "saleEnd",
              "type": "uint256"
            },
            {
              "internalType": "uint256",
              "name": "tokensPerBuyer",
              "type": "uint256"
            },
            {
              "internalType": "enum Market.TokenType",
              "name": "tokenType",
              "type": "uint8"
            }
          ],
          "internalType": "struct Market.Listing[]",
          "name": "tokenListings",
          "type": "tuple[]"
        }
      ],
      "stateMutability": "view",
      "type": "function"
    },
    {
      "inputs": [
        {
          "internalType": "address",
          "name": "_seller",
          "type": "address"
        }
      ],
      "name": "getListingsBySeller",
      "outputs": [
        {
          "components": [
            {
              "internalType": "uint256",
              "name": "listingId",
              "type": "uint256"
            },
            {
              "internalType": "address",
              "name": "seller",
              "type": "address"
            },
            {
              "internalType": "address",
              "name": "assetContract",
              "type": "address"
            },
            {
              "internalType": "uint256",
              "name": "tokenId",
              "type": "uint256"
            },
            {
              "internalType": "uint256",
              "name": "quantity",
              "type": "uint256"
            },
            {
              "internalType": "address",
              "name": "currency",
              "type": "address"
            },
            {
              "internalType": "uint256",
              "name": "pricePerToken",
              "type": "uint256"
            },
            {
              "internalType": "uint256",
              "name": "saleStart",
              "type": "uint256"
            },
            {
              "internalType": "uint256",
              "name": "saleEnd",
              "type": "uint256"
            },
            {
              "internalType": "uint256",
              "name": "tokensPerBuyer",
              "type": "uint256"
            },
            {
              "internalType": "enum Market.TokenType",
              "name": "tokenType",
              "type": "uint8"
            }
          ],
          "internalType": "struct Market.Listing[]",
          "name": "sellerListings",
          "type": "tuple[]"
        }
      ],
      "stateMutability": "view",
      "type": "function"
    },
    {
      "inputs": [
        {
          "internalType": "bytes32",
          "name": "role",
          "type": "bytes32"
        }
      ],
      "name": "getRoleAdmin",
      "outputs": [
        {
          "internalType": "bytes32",
          "name": "",
          "type": "bytes32"
        }
      ],
      "stateMutability": "view",
      "type": "function"
    },
    {
      "inputs": [
        {
          "internalType": "bytes32",
          "name": "role",
          "type": "bytes32"
        },
        {
          "internalType": "uint256",
          "name": "index",
          "type": "uint256"
        }
      ],
      "name": "getRoleMember",
      "outputs": [
        {
          "internalType": "address",
          "name": "",
          "type": "address"
        }
      ],
      "stateMutability": "view",
      "type": "function"
    },
    {
      "inputs": [
        {
          "internalType": "bytes32",
          "name": "role",
          "type": "bytes32"
        }
      ],
      "name": "getRoleMemberCount",
      "outputs": [
        {
          "internalType": "uint256",
          "name": "",
          "type": "uint256"
        }
      ],
      "stateMutability": "view",
      "type": "function"
    },
    {
      "inputs": [
        {
          "internalType": "bytes32",
          "name": "role",
          "type": "bytes32"
        },
        {
          "internalType": "address",
          "name": "account",
          "type": "address"
        }
      ],
      "name": "grantRole",
      "outputs": [],
      "stateMutability": "nonpayable",
      "type": "function"
    },
    {
      "inputs": [
        {
          "internalType": "bytes32",
          "name": "role",
          "type": "bytes32"
        },
        {
          "internalType": "address",
          "name": "account",
          "type": "address"
        }
      ],
      "name": "hasRole",
      "outputs": [
        {
          "internalType": "bool",
          "name": "",
          "type": "bool"
        }
      ],
      "stateMutability": "view",
      "type": "function"
    },
    {
      "inputs": [
        {
          "internalType": "address",
          "name": "forwarder",
          "type": "address"
        }
      ],
      "name": "isTrustedForwarder",
      "outputs": [
        {
          "internalType": "bool",
          "name": "",
          "type": "bool"
        }
      ],
      "stateMutability": "view",
      "type": "function"
    },
    {
      "inputs": [
        {
          "internalType": "address",
          "name": "_assetContract",
          "type": "address"
        },
        {
          "internalType": "uint256",
          "name": "_tokenId",
          "type": "uint256"
        },
        {
          "internalType": "address",
          "name": "_currency",
          "type": "address"
        },
        {
          "internalType": "uint256",
          "name": "_pricePerToken",
          "type": "uint256"
        },
        {
          "internalType": "uint256",
          "name": "_quantity",
          "type": "uint256"
        },
        {
          "internalType": "uint256",
          "name": "_tokensPerBuyer",
          "type": "uint256"
        },
        {
          "internalType": "uint256",
          "name": "_secondsUntilStart",
          "type": "uint256"
        },
        {
          "internalType": "uint256",
          "name": "_secondsUntilEnd",
          "type": "uint256"
        }
      ],
      "name": "list",
      "outputs": [],
      "stateMutability": "nonpayable",
      "type": "function"
    },
    {
      "inputs": [
        {
          "internalType": "uint256",
          "name": "",
          "type": "uint256"
        }
      ],
      "name": "listings",
      "outputs": [
        {
          "internalType": "uint256",
          "name": "listingId",
          "type": "uint256"
        },
        {
          "internalType": "address",
          "name": "seller",
          "type": "address"
        },
        {
          "internalType": "address",
          "name": "assetContract",
          "type": "address"
        },
        {
          "internalType": "uint256",
          "name": "tokenId",
          "type": "uint256"
        },
        {
          "internalType": "uint256",
          "name": "quantity",
          "type": "uint256"
        },
        {
          "internalType": "address",
          "name": "currency",
          "type": "address"
        },
        {
          "internalType": "uint256",
          "name": "pricePerToken",
          "type": "uint256"
        },
        {
          "internalType": "uint256",
          "name": "saleStart",
          "type": "uint256"
        },
        {
          "internalType": "uint256",
          "name": "saleEnd",
          "type": "uint256"
        },
        {
          "internalType": "uint256",
          "name": "tokensPerBuyer",
          "type": "uint256"
        },
        {
          "internalType": "enum Market.TokenType",
          "name": "tokenType",
          "type": "uint8"
        }
      ],
      "stateMutability": "view",
      "type": "function"
    },
    {
      "inputs": [],
      "name": "marketFeeBps",
      "outputs": [
        {
          "internalType": "uint128",
          "name": "",
          "type": "uint128"
        }
      ],
      "stateMutability": "view",
      "type": "function"
    },
    {
      "inputs": [
        {
          "internalType": "bytes[]",
          "name": "data",
          "type": "bytes[]"
        }
      ],
      "name": "multicall",
      "outputs": [
        {
          "internalType": "bytes[]",
          "name": "results",
          "type": "bytes[]"
        }
      ],
      "stateMutability": "nonpayable",
      "type": "function"
    },
    {
      "inputs": [
        {
          "internalType": "address",
          "name": "",
          "type": "address"
        },
        {
          "internalType": "address",
          "name": "",
          "type": "address"
        },
        {
          "internalType": "uint256[]",
          "name": "",
          "type": "uint256[]"
        },
        {
          "internalType": "uint256[]",
          "name": "",
          "type": "uint256[]"
        },
        {
          "internalType": "bytes",
          "name": "",
          "type": "bytes"
        }
      ],
      "name": "onERC1155BatchReceived",
      "outputs": [
        {
          "internalType": "bytes4",
          "name": "",
          "type": "bytes4"
        }
      ],
      "stateMutability": "nonpayable",
      "type": "function"
    },
    {
      "inputs": [
        {
          "internalType": "address",
          "name": "",
          "type": "address"
        },
        {
          "internalType": "address",
          "name": "",
          "type": "address"
        },
        {
          "internalType": "uint256",
          "name": "",
          "type": "uint256"
        },
        {
          "internalType": "uint256",
          "name": "",
          "type": "uint256"
        },
        {
          "internalType": "bytes",
          "name": "",
          "type": "bytes"
        }
      ],
      "name": "onERC1155Received",
      "outputs": [
        {
          "internalType": "bytes4",
          "name": "",
          "type": "bytes4"
        }
      ],
      "stateMutability": "nonpayable",
      "type": "function"
    },
    {
      "inputs": [
        {
          "internalType": "address",
          "name": "",
          "type": "address"
        },
        {
          "internalType": "address",
          "name": "",
          "type": "address"
        },
        {
          "internalType": "uint256",
          "name": "",
          "type": "uint256"
        },
        {
          "internalType": "bytes",
          "name": "",
          "type": "bytes"
        }
      ],
      "name": "onERC721Received",
      "outputs": [
        {
          "internalType": "bytes4",
          "name": "",
          "type": "bytes4"
        }
      ],
      "stateMutability": "pure",
      "type": "function"
    },
    {
      "inputs": [],
      "name": "paused",
      "outputs": [
        {
          "internalType": "bool",
          "name": "",
          "type": "bool"
        }
      ],
      "stateMutability": "view",
      "type": "function"
    },
    {
      "inputs": [
        {
          "internalType": "bytes32",
          "name": "role",
          "type": "bytes32"
        },
        {
          "internalType": "address",
          "name": "account",
          "type": "address"
        }
      ],
      "name": "renounceRole",
      "outputs": [],
      "stateMutability": "nonpayable",
      "type": "function"
    },
    {
      "inputs": [],
      "name": "restrictedListerRoleOnly",
      "outputs": [
        {
          "internalType": "bool",
          "name": "",
          "type": "bool"
        }
      ],
      "stateMutability": "view",
      "type": "function"
    },
    {
      "inputs": [
        {
          "internalType": "bytes32",
          "name": "role",
          "type": "bytes32"
        },
        {
          "internalType": "address",
          "name": "account",
          "type": "address"
        }
      ],
      "name": "revokeRole",
      "outputs": [],
      "stateMutability": "nonpayable",
      "type": "function"
    },
    {
      "inputs": [
        {
          "internalType": "string",
          "name": "_URI",
          "type": "string"
        }
      ],
      "name": "setContractURI",
      "outputs": [],
      "stateMutability": "nonpayable",
      "type": "function"
    },
    {
      "inputs": [
        {
          "internalType": "uint128",
          "name": "feeBps",
          "type": "uint128"
        }
      ],
      "name": "setMarketFeeBps",
      "outputs": [],
      "stateMutability": "nonpayable",
      "type": "function"
    },
    {
      "inputs": [
        {
          "internalType": "bool",
          "name": "restricted",
          "type": "bool"
        }
      ],
      "name": "setRestrictedListerRoleOnly",
      "outputs": [],
      "stateMutability": "nonpayable",
      "type": "function"
    },
    {
      "inputs": [
        {
          "internalType": "bytes4",
          "name": "interfaceId",
          "type": "bytes4"
        }
      ],
      "name": "supportsInterface",
      "outputs": [
        {
          "internalType": "bool",
          "name": "",
          "type": "bool"
        }
      ],
      "stateMutability": "view",
      "type": "function"
    },
    {
      "inputs": [],
      "name": "totalListings",
      "outputs": [
        {
          "internalType": "uint256",
          "name": "",
          "type": "uint256"
        }
      ],
      "stateMutability": "view",
      "type": "function"
    },
    {
      "inputs": [
        {
          "internalType": "uint256",
          "name": "_listingId",
          "type": "uint256"
        },
        {
          "internalType": "uint256",
          "name": "_quantity",
          "type": "uint256"
        }
      ],
      "name": "unlist",
      "outputs": [],
      "stateMutability": "nonpayable",
      "type": "function"
    },
    {
      "inputs": [
        {
          "internalType": "uint256",
          "name": "_listingId",
          "type": "uint256"
        },
        {
          "internalType": "uint256",
          "name": "_pricePerToken",
          "type": "uint256"
        },
        {
          "internalType": "address",
          "name": "_currency",
          "type": "address"
        },
        {
          "internalType": "uint256",
          "name": "_tokensPerBuyer",
          "type": "uint256"
        },
        {
          "internalType": "uint256",
          "name": "_secondsUntilStart",
          "type": "uint256"
        },
        {
          "internalType": "uint256",
          "name": "_secondsUntilEnd",
          "type": "uint256"
        }
      ],
      "name": "updateListingParams",
      "outputs": [],
      "stateMutability": "nonpayable",
      "type": "function"
    }
  ],
  "bytecode": "0x60806040523480156200001157600080fd5b50604051620051fb380380620051fb8339810160408190526200003491620004bc565b6002805460ff191690556001600355600480546001600160a01b0319166001600160a01b038516179055815162000073906007906020850190620003ca565b50600580546001600160a01b0319166001600160a01b038616179055620000a560006200009f62000118565b62000134565b620000d47ff94103142c1baabe9ac2b5d1487bf783de9e69cfeea9a72f5c9c94afd7877b8c6200009f62000118565b620001037f65d7a28e3265b37a6474929f336521b332c1681b933f6cb9f3376673440d862a6200009f62000118565b6200010e8162000177565b5050505062000616565b60006200012f6200026960201b620029b71760201c565b905090565b6200014b8282620002a260201b620029e41760201c565b600082815260016020908152604090912062000172918390620029f2620002b2821b17901c565b505050565b620001b060006200018762000118565b6000918252602082815260408084206001600160a01b0393909316845291905290205460ff1690565b620002155760405162461bcd60e51b815260206004820152602b60248201527f6f6e6c792061206d6f64756c652061646d696e2063616e2063616c6c2074686960448201526a3990333ab731ba34b7b71760a91b606482015260840160405180910390fd5b600880546001600160801b0319166001600160801b0383169081179091556040519081527fd50e64e6eb05cd7ceafe1a28b1a7ad949edb90451106259c7117252d605178ef9060200160405180910390a150565b6004546000906001600160a01b03163314156200028d575060131936013560601c90565b6200012f620002d260201b62002a071760201c565b620002ae8282620002d6565b5050565b6000620002c9836001600160a01b03841662000378565b90505b92915050565b3390565b6000828152602081815260408083206001600160a01b038516845290915290205460ff16620002ae576000828152602081815260408083206001600160a01b03851684529091529020805460ff191660011790556200033462000118565b6001600160a01b0316816001600160a01b0316837f2f8788117e7eff1d82e926ec794901d17c78024a50270940304540a733656f0d60405160405180910390a45050565b6000818152600183016020526040812054620003c157508154600181810184556000848152602080822090930184905584548482528286019093526040902091909155620002cc565b506000620002cc565b828054620003d890620005d9565b90600052602060002090601f016020900481019282620003fc576000855562000447565b82601f106200041757805160ff191683800117855562000447565b8280016001018555821562000447579182015b82811115620004475782518255916020019190600101906200042a565b506200045592915062000459565b5090565b5b808211156200045557600081556001016200045a565b6001600160a01b03811681146200048657600080fd5b50565b634e487b7160e01b600052604160045260246000fd5b80516001600160801b0381168114620004b757600080fd5b919050565b60008060008060808587031215620004d357600080fd5b8451620004e08162000470565b80945050602080860151620004f58162000470565b60408701519094506001600160401b03808211156200051357600080fd5b818801915088601f8301126200052857600080fd5b8151818111156200053d576200053d62000489565b604051601f8201601f19908116603f0116810190838211818310171562000568576200056862000489565b816040528281528b868487010111156200058157600080fd5b600093505b82841015620005a5578484018601518185018701529285019262000586565b82841115620005b75760008684830101525b809750505050505050620005ce606086016200049f565b905092959194509250565b600181811c90821680620005ee57607f821691505b602082108114156200061057634e487b7160e01b600052602260045260246000fd5b50919050565b614bd580620006266000396000f3fe608060405234801561001057600080fd5b50600436106102775760003560e01c80639010d07c11610160578063c78b616c116100d8578063de74e57b1161008c578063e63ab1e911610071578063e63ab1e91461066a578063e8a3d48514610691578063f23a6e611461069957600080fd5b8063de74e57b146105b3578063deb26b941461064357600080fd5b8063d547741f116100bd578063d547741f1461057a578063d6febde81461058d578063d8cba251146105a057600080fd5b8063c78b616c1461055e578063ca15c8731461056757600080fd5b8063a217fddf1161012f578063ae73ccec11610114578063ae73ccec14610522578063bc197c811461052a578063c0e727401461054957600080fd5b8063a217fddf146104fa578063ac9650d81461050257600080fd5b80639010d07c1461047257806391d148541461049d578063938e3d7b146104d45780639b782ff2146104e757600080fd5b8063354c7ab6116101f35780634fd69f3c116101c2578063583e12b6116101a7578063583e12b6146104405780635c975abb1461045357806361096ec61461045e57600080fd5b80634fd69f3c1461040b578063572b6c051461041e57600080fd5b8063354c7ab6146103a757806336568abe146103ba5780633f5c3e87146103cd5780634edeaa81146103f857600080fd5b80631d0cd75e1161024a578063248a9ca31161022f578063248a9ca31461035e5780632f2ff15d14610381578063318510121461039457600080fd5b80631d0cd75e1461030557806320c7852c1461032557600080fd5b806301ffc9a71461027c57806309679b39146102a4578063107a274a146102b9578063150b7a02146102d9575b600080fd5b61028f61028a36600461407c565b6106b8565b60405190151581526020015b60405180910390f35b6102b76102b23660046140be565b6106ef565b005b6102cc6102c73660046140db565b6107bf565b60405161029b91906141da565b6102ec6102e7366004614247565b610890565b6040516001600160e01b0319909116815260200161029b565b6103186103133660046142ba565b6108a2565b60405161029b91906142e6565b610350610333366004614335565b600a60209081526000928352604080842090915290825290205481565b60405190815260200161029b565b61035061036c3660046140db565b60009081526020819052604090206001015490565b6102b761038f366004614335565b610ac3565b6102b76103a2366004614365565b610aea565b6102b76103b53660046143c6565b610e82565b6102b76103c8366004614335565b610f49565b6008546103e0906001600160801b031681565b6040516001600160801b03909116815260200161029b565b6103186104063660046143e3565b610f6b565b6102b7610419366004614400565b611153565b61028f61042c3660046143e3565b6004546001600160a01b0391821691161490565b6102b761044e366004614400565b611468565b60025460ff1661028f565b60085461028f90600160801b900460ff1681565b610485610480366004614400565b61197f565b6040516001600160a01b03909116815260200161029b565b61028f6104ab366004614335565b6000918252602082815260408084206001600160a01b0393909316845291905290205460ff1690565b6102b76104e2366004614422565b61199e565b6102b76104f5366004614464565b611b26565b610350600081565b6105156105103660046144d2565b611efb565b60405161029b919061459f565b610318611ff0565b6102ec610538366004614738565b63bc197c8160e01b95945050505050565b61055161214e565b60405161029b91906147e6565b61035060065481565b6103506105753660046140db565b6121dc565b6102b7610588366004614335565b6121f3565b6102b761059b366004614400565b6121fd565b6103186105ae3660046143e3565b612746565b61062c6105c13660046140db565b600960208190526000918252604090912080546001820154600283015460038401546004850154600586015460068701546007880154600889015499890154600a9099015497996001600160a01b039788169996881698959794969490931694919390929160ff168b565b60405161029b9b9a999897969594939291906147f9565b6103507ff94103142c1baabe9ac2b5d1487bf783de9e69cfeea9a72f5c9c94afd7877b8c81565b6103507f65d7a28e3265b37a6474929f336521b332c1681b933f6cb9f3376673440d862a81565b610551612925565b6102ec6106a736600461486a565b63f23a6e6160e01b95945050505050565b60006001600160e01b03198216630271189760e51b14806106e957506001600160e01b03198216630a85bd0160e11b145b92915050565b6106fc60006104ab612a0b565b6107615760405162461bcd60e51b815260206004820152602b60248201527f6f6e6c792061206d6f64756c652061646d696e2063616e2063616c6c2074686960448201526a3990333ab731ba34b7b71760a91b60648201526084015b60405180910390fd5b600880546fffffffffffffffffffffffffffffffff19166001600160801b0383169081179091556040519081527fd50e64e6eb05cd7ceafe1a28b1a7ad949edb90451106259c7117252d605178ef906020015b60405180910390a150565b6107c7613f5e565b600082815260096020818152604092839020835161016081018552815481526001808301546001600160a01b039081169483019490945260028301548416958201959095526003820154606082015260048201546080820152600582015490921660a0830152600681015460c0830152600781015460e0830152600881015461010083015291820154610120820152600a820154909261014084019160ff1690811115610876576108766140f4565b6001811115610887576108876140f4565b90525092915050565b630a85bd0160e11b5b95945050505050565b6006546060906000805b82811015610915576000818152600960205260409020600201546001600160a01b0387811691161480156108f0575060008181526009602052604090206003015485145b15610903576109006001836148e9565b91505b61090e6001826148e9565b90506108ac565b508067ffffffffffffffff81111561092f5761092f614601565b60405190808252806020026020018201604052801561096857816020015b610955613f5e565b81526020019060019003908161094d5790505b5092506000805b83811015610ab9576000818152600960205260409020600201546001600160a01b0388811691161480156109b3575060008181526009602052604090206003015486145b15610aa757600081815260096020818152604092839020835161016081018552815481526001808301546001600160a01b039081169483019490945260028301548416958201959095526003820154606082015260048201546080820152600582015490921660a0830152600681015460c0830152600781015460e0830152600881015461010083015291820154610120820152600a820154909261014084019160ff1690811115610a6757610a676140f4565b6001811115610a7857610a786140f4565b81525050858381518110610a8e57610a8e614901565b6020908102919091010152610aa46001836148e9565b91505b610ab26001826148e9565b905061096f565b5050505092915050565b610acd8282612a15565b6000828152600160205260409020610ae590826129f2565b505050565b60025460ff1615610b305760405162461bcd60e51b815260206004820152601060248201526f14185d5cd8589b194e881c185d5cd95960821b6044820152606401610758565b610b38612a0b565b60008781526009602052604090206001015487906001600160a01b03838116911614610bbe5760405162461bcd60e51b815260206004820152602f60248201527f4d61726b65743a204f6e6c79207468652073656c6c65722063616e2063616c6c60448201526e103a3434b990333ab731ba34b7b71760891b6064820152608401610758565b6000888152600960208181526040808420815161016081018352815481526001808301546001600160a01b039081169583019590955260028301548516938201939093526003820154606082015260048201546080820152600582015490931660a0840152600681015460c0840152600781015460e0840152600881015461010084015292830154610120830152600a83015491929161014084019160ff90911690811115610c6f57610c6f6140f4565b6001811115610c8057610c806140f4565b8152505090508060800151861115610d005760405162461bcd60e51b815260206004820152603760248201527f4d61726b65743a2063616e6e6f74206c657420627579657220627579206d6f7260448201527f65207468616e206c6973746564207175616e746974792e0000000000000000006064820152608401610758565b60c081018890526001600160a01b03871660a08201528515610d225785610d28565b80608001515b610120820152610d3885426148e9565b60e08201528315610d5257610d4d84426148e9565b610d56565b6000195b610100820190815260008a8152600960208181526040928390208551815590850151600180830180546001600160a01b03199081166001600160a01b0394851617909155948701516002840180548716918416919091179055606087015160038401556080870151600484015560a087015160058401805490961692169190911790935560c0850151600682015560e085015160078201559251600884015561012084015190830155610140830151600a8301805485949360ff19909116908381811115610e2657610e266140f4565b021790555090505088610e37612a0b565b6001600160a01b03167fb4c8fd604ad229ddf17ffe34f0851a2abf5113b048f8235b12edbabcc6dd919383604051610e6f91906141da565b60405180910390a3505050505050505050565b610e8f60006104ab612a0b565b610eef5760405162461bcd60e51b815260206004820152602b60248201527f6f6e6c792061206d6f64756c652061646d696e2063616e2063616c6c2074686960448201526a3990333ab731ba34b7b71760a91b6064820152608401610758565b60088054821515600160801b0270ff00000000000000000000000000000000199091161790556040517f56668abce4c06e28f52176150c07856e31ee073b9b62df62a5afbf1a22aec24c906107b490831515815260200190565b610f538282612a42565b6000828152600160205260409020610ae59082612ada565b6006546060906000805b82811015610fc2576000818152600960205260409020600201546001600160a01b0386811691161415610fb057610fad6001836148e9565b91505b610fbb6001826148e9565b9050610f75565b508067ffffffffffffffff811115610fdc57610fdc614601565b60405190808252806020026020018201604052801561101557816020015b611002613f5e565b815260200190600190039081610ffa5790505b5092506000805b8381101561114a576000818152600960205260409020600201546001600160a01b038781169116141561113857600081815260096020818152604092839020835161016081018552815481526001808301546001600160a01b039081169483019490945260028301548416958201959095526003820154606082015260048201546080820152600582015490921660a0830152600681015460c0830152600781015460e0830152600881015461010083015291820154610120820152600a820154909261014084019160ff16908111156110f8576110f86140f4565b6001811115611109576111096140f4565b8152505085838151811061111f5761111f614901565b60209081029190910101526111356001836148e9565b91505b6111436001826148e9565b905061101c565b50505050919050565b61115b612a0b565b60008381526009602052604090206001015483906001600160a01b038381169116146111e15760405162461bcd60e51b815260206004820152602f60248201527f4d61726b65743a204f6e6c79207468652073656c6c65722063616e2063616c6c60448201526e103a3434b990333ab731ba34b7b71760891b6064820152608401610758565b6000848152600960208181526040808420815161016081018352815481526001808301546001600160a01b039081169583019590955260028301548516938201939093526003820154606082015260048201546080820152600582015490931660a0840152600681015460c0840152600781015460e0840152600881015461010084015292830154610120830152600a83015491929161014084019160ff90911690811115611292576112926140f4565b60018111156112a3576112a36140f4565b81525050905083816080015110156113235760405162461bcd60e51b815260206004820152603260248201527f4d61726b65743a2063616e6e6f7420756e6c697374206d6f726520746f6b656e60448201527f73207468616e20617265206c69737465642e00000000000000000000000000006064820152608401610758565b83816080018181516113359190614917565b9052506000858152600960208181526040928390208451815590840151600180830180546001600160a01b03199081166001600160a01b0394851617909155948601516002840180548716918416919091179055606086015160038401556080860151600484015560a086015160058401805490961692169190911790935560c0840151600682015560e08401516007820155610100840151600882015561012084015191810191909155610140830151600a82018054859460ff19909116908381811115611406576114066140f4565b02179055509050506114188185612aef565b84611421612a0b565b6001600160a01b03167fb4c8fd604ad229ddf17ffe34f0851a2abf5113b048f8235b12edbabcc6dd91938360405161145991906141da565b60405180910390a35050505050565b60025460ff16156114ae5760405162461bcd60e51b815260206004820152601060248201526f14185d5cd8589b194e881c185d5cd95960821b6044820152606401610758565b6114b6612a0b565b60008381526009602052604090206001015483906001600160a01b0383811691161461153c5760405162461bcd60e51b815260206004820152602f60248201527f4d61726b65743a204f6e6c79207468652073656c6c65722063616e2063616c6c60448201526e103a3434b990333ab731ba34b7b71760891b6064820152608401610758565b6000848152600960208181526040808420815161016081018352815481526001808301546001600160a01b039081169583019590955260028301548516938201939093526003820154606082015260048201546080820152600582015490931660a0840152600681015460c0840152600781015460e0840152600881015461010084015292830154610120830152600a83015491929161014084019160ff909116908111156115ed576115ed6140f4565b60018111156115fe576115fe6140f4565b815250509050838160800181815161161691906148e9565b9052506000858152600960208181526040928390208451815590840151600180830180546001600160a01b03199081166001600160a01b0394851617909155948601516002840180548716918416919091179055606086015160038401556080860151600484015560a086015160058401805490961692169190911790935560c0840151600682015560e08401516007820155610100840151600882015561012084015191810191909155610140830151600a82018054859460ff199091169083818111156116e7576116e76140f4565b02179055505050836117475760405162461bcd60e51b8152602060048201526024808201527f4d61726b65743a206d75737420616464206174206c65617374206f6e6520746f60448201526335b2b71760e11b6064820152608401610758565b60008161014001516001811115611760576117606140f4565b146117d35760405162461bcd60e51b815260206004820152602a60248201527f4d61726b65743a2043616e206f6e6c792061646420746f20455243203131353560448201527f206c697374696e67732e000000000000000000000000000000000000000000006064820152608401610758565b80604001516001600160a01b031663e985e9c56117ee612a0b565b6040516001600160e01b031960e084901b1681526001600160a01b03909116600482015230602482015260440160206040518083038186803b15801561183357600080fd5b505afa158015611847573d6000803e3d6000fd5b505050506040513d601f19601f8201168201806040525081019061186b919061492e565b6118dd5760405162461bcd60e51b815260206004820152603f60248201527f4d61726b65743a206d75737420617070726f766520746865206d61726b65742060448201527f746f207472616e7366657220746f6b656e73206265696e672061646465642e006064820152608401610758565b80604001516001600160a01b031663f242432a6118f8612a0b565b60608401516040516001600160e01b031960e085901b1681526001600160a01b03909216600483015230602483015260448201526064810187905260a06084820152600060a482015260c401600060405180830381600087803b15801561195e57600080fd5b505af1158015611972573d6000803e3d6000fd5b5050505084611421612a0b565b60008281526001602052604081206119979083612cae565b9392505050565b6005546040805163a217fddf60e01b815290516001600160a01b03909216916391d1485491839163a217fddf91600480820192602092909190829003018186803b1580156119eb57600080fd5b505afa1580156119ff573d6000803e3d6000fd5b505050506040513d601f19601f82011682018060405250810190611a23919061494b565b611a2b612a0b565b6040516001600160e01b031960e085901b16815260048101929092526001600160a01b0316602482015260440160206040518083038186803b158015611a7057600080fd5b505afa158015611a84573d6000803e3d6000fd5b505050506040513d601f19601f82011682018060405250810190611aa8919061492e565b611b1a5760405162461bcd60e51b815260206004820152603560248201527f4d61726b65743a206f6e6c7920612070726f746f636f6c2061646d696e20636160448201527f6e2063616c6c20746869732066756e6374696f6e2e00000000000000000000006064820152608401610758565b610ae560078383613fe3565b60025460ff1615611b6c5760405162461bcd60e51b815260206004820152601060248201526f14185d5cd8589b194e881c185d5cd95960821b6044820152606401610758565b600854600160801b900460ff161580611bac5750611bac7ff94103142c1baabe9ac2b5d1487bf783de9e69cfeea9a72f5c9c94afd7877b8c6104ab612a0b565b611c065760405162461bcd60e51b815260206004820152602560248201527f6f6e6c792061206c69737465722063616e2063616c6c20746869732066756e636044820152643a34b7b71760d91b6064820152608401610758565b60008411611c645760405162461bcd60e51b815260206004820152602560248201527f4d61726b65743a206d757374206c697374206174206c65617374206f6e65207460448201526437b5b2b71760d91b6064820152608401610758565b83831115611cda5760405162461bcd60e51b815260206004820152603760248201527f4d61726b65743a2063616e6e6f74206c657420627579657220627579206d6f7260448201527f65207468616e206c6973746564207175616e746974792e0000000000000000006064820152608401610758565b60068054906001906000611cee83856148e9565b9091555060009050611d0a8a611d02612a0b565b308c8a612cba565b90506000604051806101600160405280848152602001611d28612a0b565b6001600160a01b031681526020018c6001600160a01b031681526020018b81526020018881526020018a6001600160a01b031681526020018981526020018642611d7291906148e9565b81526020018515611d8c57611d8786426148e9565b611d90565b6000195b81526020018715611da15787611da3565b885b8152602001836001811115611dba57611dba6140f4565b90526000848152600960208181526040928390208451815590840151600180830180546001600160a01b03199081166001600160a01b0394851617909155948601516002840180548716918416919091179055606086015160038401556080860151600484015560a086015160058401805490961692169190911790935560c0840151600682015560e08401516007820155610100840151600882015561012084015191810191909155610140830151600a82018054949550859492939192909160ff19909116908381811115611e9357611e936140f4565b021790555090505082611ea4612a0b565b6001600160a01b03168c6001600160a01b03167f70c5741a020504dbda58d308c3efe5275326c456d3b00c541925222c40f7c62e84604051611ee691906141da565b60405180910390a45050505050505050505050565b60608167ffffffffffffffff811115611f1657611f16614601565b604051908082528060200260200182016040528015611f4957816020015b6060815260200190600190039081611f345790505b50905060005b82811015611fe957611fb930858584818110611f6d57611f6d614901565b9050602002810190611f7f9190614964565b8080601f0160208091040260200160405190810160405280939291908181526020018383808284376000920191909152506131f992505050565b828281518110611fcb57611fcb614901565b60200260200101819052508080611fe1906149ab565b915050611f4f565b5092915050565b6006546060908067ffffffffffffffff81111561200f5761200f614601565b60405190808252806020026020018201604052801561204857816020015b612035613f5e565b81526020019060019003908161202d5790505b50915060005b8181101561214957600081815260096020818152604092839020835161016081018552815481526001808301546001600160a01b039081169483019490945260028301548416958201959095526003820154606082015260048201546080820152600582015490921660a0830152600681015460c0830152600781015460e0830152600881015461010083015291820154610120820152600a820154909261014084019160ff1690811115612105576121056140f4565b6001811115612116576121166140f4565b8152505083828151811061212c5761212c614901565b60209081029190910101526121426001826148e9565b905061204e565b505090565b6007805461215b906149c6565b80601f0160208091040260200160405190810160405280929190818152602001828054612187906149c6565b80156121d45780601f106121a9576101008083540402835291602001916121d4565b820191906000526020600020905b8154815290600101906020018083116121b757829003601f168201915b505050505081565b60008181526001602052604081206106e99061321e565b610f538282613228565b600260035414156122505760405162461bcd60e51b815260206004820152601f60248201527f5265656e7472616e637947756172643a207265656e7472616e742063616c6c006044820152606401610758565b600260035561226160025460ff1690565b156122a15760405162461bcd60e51b815260206004820152601060248201526f14185d5cd8589b194e881c185d5cd95960821b6044820152606401610758565b60008281526009602052604090206001015482906001600160a01b03166123165760405162461bcd60e51b815260206004820152602360248201527f4d61726b65743a20546865206c697374696e6720646f6573206e6f742065786960448201526239ba1760e91b6064820152608401610758565b6000838152600960208181526040808420815161016081018352815481526001808301546001600160a01b039081169583019590955260028301548516938201939093526003820154606082015260048201546080820152600582015490931660a0840152600681015460c0840152600781015460e0840152600881015461010084015292830154610120830152600a83015491929161014084019160ff909116908111156123c7576123c76140f4565b60018111156123d8576123d86140f4565b905250905060006123e7612a0b565b90506000841180156123fd575081608001518411155b61246f5760405162461bcd60e51b815260206004820152603160248201527f4d61726b65743a206d7573742062757920616e20617070726f7072696174652060448201527f616d6f756e74206f6620746f6b656e732e0000000000000000000000000000006064820152608401610758565b816101000151421115801561248857508160e001514210155b6124fa5760405162461bcd60e51b815260206004820152603260248201527f4d61726b65743a207468652073616c652068617320656974686572206e6f742060448201527f73746172746564206f7220636c6f7365642e00000000000000000000000000006064820152608401610758565b6101208201516000868152600a602090815260408083206001600160a01b038616845290915290205461252d90866148e9565b11156125a15760405162461bcd60e51b815260206004820152603460248201527f4d61726b65743a2043616e6e6f7420627579206d6f72652066726f6d206c697360448201527f74696e67207468616e207065726d69747465642e0000000000000000000000006064820152608401610758565b6000858152600a602090815260408083206001600160a01b0385168452909152812080548692906125d39084906148e9565b9250508190555083826080018181516125ec9190614917565b9052506000858152600960208181526040928390208551815590850151600180830180546001600160a01b03199081166001600160a01b0394851617909155948701516002840180548716918416919091179055606087015160038401556080870151600484015560a087015160058401805490961692169190911790935560c0850151600682015560e08501516007820155610100850151600882015561012085015191810191909155610140840151600a82018054869460ff199091169083818111156126bd576126bd6140f4565b0217905550505060c0820151156126d8576126d88285613250565b6126e28285612aef565b8482602001516001600160a01b031683604001516001600160a01b03167fc848190182320d1cb2ea6d8a80041c6780e56643bc41fe9060bb1f1349902cba84888760405161273293929190614a01565b60405180910390a450506001600355505050565b6006546060906000805b8281101561279d576000818152600960205260409020600101546001600160a01b038681169116141561278b576127886001836148e9565b91505b6127966001826148e9565b9050612750565b508067ffffffffffffffff8111156127b7576127b7614601565b6040519080825280602002602001820160405280156127f057816020015b6127dd613f5e565b8152602001906001900390816127d55790505b5092506000805b8381101561114a576000818152600960205260409020600101546001600160a01b038781169116141561291357600081815260096020818152604092839020835161016081018552815481526001808301546001600160a01b039081169483019490945260028301548416958201959095526003820154606082015260048201546080820152600582015490921660a0830152600681015460c0830152600781015460e0830152600881015461010083015291820154610120820152600a820154909261014084019160ff16908111156128d3576128d36140f4565b60018111156128e4576128e46140f4565b815250508583815181106128fa576128fa614901565b60209081029190910101526129106001836148e9565b91505b61291e6001826148e9565b90506127f7565b606060078054612934906149c6565b80601f0160208091040260200160405190810160405280929190818152602001828054612960906149c6565b80156129ad5780601f10612982576101008083540402835291602001916129ad565b820191906000526020600020905b81548152906001019060200180831161299057829003601f168201915b5050505050905090565b6004546000906001600160a01b03163314156129da575060131936013560601c90565b503390565b905090565b6129ee8282613982565b5050565b6000611997836001600160a01b038416613a21565b3390565b60006129df6129b7565b600082815260208190526040902060010154612a3881612a33612a0b565b613a70565b610ae58383613982565b612a4a612a0b565b6001600160a01b0316816001600160a01b031614612ad05760405162461bcd60e51b815260206004820152602f60248201527f416363657373436f6e74726f6c3a2063616e206f6e6c792072656e6f756e636560448201527f20726f6c657320666f722073656c6600000000000000000000000000000000006064820152608401610758565b6129ee8282613aee565b6000611997836001600160a01b038416613b8b565b60008261014001516001811115612b0857612b086140f4565b1415612bb05781604001516001600160a01b031663f242432a30612b2a612a0b565b60608601516040516001600160e01b031960e086901b1681526001600160a01b03938416600482015292909116602483015260448201526064810184905260a06084820152600060a482015260c4015b600060405180830381600087803b158015612b9457600080fd5b505af1158015612ba8573d6000803e3d6000fd5b505050505050565b60018261014001516001811115612bc957612bc96140f4565b14156129ee5780600114612c455760405162461bcd60e51b815260206004820152603660248201527f4d61726b65743a2043616e6e6f7420756e6c697374206d6f7265207468616e2060448201527f6f6e65206f6620616e2045524320373231204e46542e000000000000000000006064820152608401610758565b81604001516001600160a01b031663b88d4fde30612c61612a0b565b60608601516040516001600160e01b031960e086901b1681526001600160a01b0393841660048201529290911660248301526044820152608060648201526000608482015260a401612b7a565b60006119978383613c7e565b6040516301ffc9a760e01b8152636cdb3d1360e11b60048201526000906001600160a01b038716906301ffc9a79060240160206040518083038186803b158015612d0357600080fd5b505afa158015612d17573d6000803e3d6000fd5b505050506040513d601f19601f82011682018060405250810190612d3b919061492e565b15612ebf5760405163e985e9c560e01b81526001600160a01b038681166004830152858116602483015287169063e985e9c59060440160206040518083038186803b158015612d8957600080fd5b505afa158015612d9d573d6000803e3d6000fd5b505050506040513d601f19601f82011682018060405250810190612dc1919061492e565b612e35576040805162461bcd60e51b81526020600482015260248101919091527f4d61726b65743a206d75737420617070726f766520746865206d61726b65742060448201527f746f207472616e7366657220746f6b656e73206265696e67206c69737465642e6064820152608401610758565b50604051637921219560e11b81526001600160a01b0385811660048301528481166024830152604482018490526064820183905260a06084830152600060a48301819052919087169063f242432a9060c4015b600060405180830381600087803b158015612ea257600080fd5b505af1158015612eb6573d6000803e3d6000fd5b50505050610899565b6040516301ffc9a760e01b81526380ac58cd60e01b60048201526001600160a01b038716906301ffc9a79060240160206040518083038186803b158015612f0557600080fd5b505afa158015612f19573d6000803e3d6000fd5b505050506040513d601f19601f82011682018060405250810190612f3d919061492e565b1561318b5781600114612fb85760405162461bcd60e51b815260206004820152603160248201527f4d61726b65743a2043616e6e6f74206c697374206d6f7265207468616e20312060448201527f6f6620616e20455243373231204e46542e0000000000000000000000000000006064820152608401610758565b60405163e985e9c560e01b81526001600160a01b038681166004830152858116602483015287169063e985e9c59060440160206040518083038186803b15801561300157600080fd5b505afa158015613015573d6000803e3d6000fd5b505050506040513d601f19601f82011682018060405250810190613039919061492e565b806130c7575060405163020604bf60e21b8152600481018490526001600160a01b03808616919088169063081812fc9060240160206040518083038186803b15801561308457600080fd5b505afa158015613098573d6000803e3d6000fd5b505050506040513d601f19601f820116820180604052508101906130bc9190614a2e565b6001600160a01b0316145b61313b576040805162461bcd60e51b81526020600482015260248101919091527f4d61726b65743a206d75737420617070726f766520746865206d61726b65742060448201527f746f207472616e7366657220746f6b656e73206265696e67206c69737465642e6064820152608401610758565b50604051635c46a7ef60e11b81526001600160a01b03858116600483015284811660248301526044820184905260806064830152600060848301526001919087169063b88d4fde9060a401612e88565b60405162461bcd60e51b815260206004820152603860248201527f4d61726b65743a20746f6b656e206d75737420696d706c656d656e742065697460448201527f686572204552432031313535206f7220455243203732312e00000000000000006064820152608401610758565b60606119978383604051806060016040528060278152602001614ba260279139613ca8565b60006106e9825490565b60008281526020819052604090206001015461324681612a33612a0b565b610ae58383613aee565b6000818360c001516132629190614a4b565b9050808360a001516001600160a01b031663dd62ed3e613280612a0b565b6040516001600160e01b031960e084901b1681526001600160a01b03909116600482015230602482015260440160206040518083038186803b1580156132c557600080fd5b505afa1580156132d9573d6000803e3d6000fd5b505050506040513d601f19601f820116820180604052508101906132fd919061494b565b10156133715760405162461bcd60e51b815260206004820152603560248201527f4d61726b65743a206d75737420617070726f7665204d61726b657420746f207460448201527f72616e7366657220707269636520746f207061792e00000000000000000000006064820152608401610758565b6005546040805163fd967f4760e01b815290516000926001600160a01b03169163fd967f47916004808301926020929190829003018186803b1580156133b657600080fd5b505afa1580156133ca573d6000803e3d6000fd5b505050506040513d601f19601f820116820180604052508101906133ee9190614a6a565b6008546001600160801b0391821691613408911684614a4b565b6134129190614a87565b90508360a001516001600160a01b03166323b872dd61342f612a0b565b60055460405163f2aab4b360e01b81523060048201526001600160a01b039091169063f2aab4b39060240160206040518083038186803b15801561347257600080fd5b505afa158015613486573d6000803e3d6000fd5b505050506040513d601f19601f820116820180604052508101906134aa9190614a2e565b6040516001600160e01b031960e085901b1681526001600160a01b0392831660048201529116602482015260448101849052606401602060405180830381600087803b1580156134f957600080fd5b505af115801561350d573d6000803e3d6000fd5b505050506040513d601f19601f82011682018060405250810190613531919061492e565b6135a35760405162461bcd60e51b815260206004820152602860248201527f4d61726b65743a206661696c656420746f207472616e736665722070726f746f60448201527f636f6c206375742e0000000000000000000000000000000000000000000000006064820152608401610758565b60006135af8284614917565b60408087015190516301ffc9a760e01b815263152a902d60e11b60048201529192506001600160a01b0316906301ffc9a79060240160206040518083038186803b1580156135fc57600080fd5b505afa158015613610573d6000803e3d6000fd5b505050506040513d601f19601f82011682018060405250810190613634919061492e565b156138795760008086604001516001600160a01b0316632a55205a8860600151876040518363ffffffff1660e01b815260040161367b929190918252602082015260400190565b604080518083038186803b15801561369257600080fd5b505afa1580156136a6573d6000803e3d6000fd5b505050506040513d601f19601f820116820180604052508101906136ca9190614aa9565b90925090506001600160a01b038216158015906136e75750600081115b1561387657846136f785836148e9565b111561376b5760405162461bcd60e51b815260206004820152602b60248201527f4d61726b65743a20546f74616c206d61726b657420666565732065786365656460448201527f207468652070726963652e0000000000000000000000000000000000000000006064820152608401610758565b6137758184614917565b92508660a001516001600160a01b03166323b872dd613792612a0b565b6040516001600160e01b031960e084901b1681526001600160a01b039182166004820152908516602482015260448101849052606401602060405180830381600087803b1580156137e257600080fd5b505af11580156137f6573d6000803e3d6000fd5b505050506040513d601f19601f8201168201806040525081019061381a919061492e565b6138765760405162461bcd60e51b815260206004820152602760248201527f4d61726b65743a206661696c656420746f207472616e7366657220637265617460448201526637b91031baba1760c91b6064820152608401610758565b50505b8460a001516001600160a01b03166323b872dd613894612a0b565b60208801516040516001600160e01b031960e085901b1681526001600160a01b0392831660048201529116602482015260448101849052606401602060405180830381600087803b1580156138e857600080fd5b505af11580156138fc573d6000803e3d6000fd5b505050506040513d601f19601f82011682018060405250810190613920919061492e565b61397b5760405162461bcd60e51b815260206004820152602660248201527f4d61726b65743a206661696c656420746f207472616e736665722073656c6c65604482015265391031baba1760d11b6064820152608401610758565b5050505050565b6000828152602081815260408083206001600160a01b038516845290915290205460ff166129ee576000828152602081815260408083206001600160a01b03851684529091529020805460ff191660011790556139dd612a0b565b6001600160a01b0316816001600160a01b0316837f2f8788117e7eff1d82e926ec794901d17c78024a50270940304540a733656f0d60405160405180910390a45050565b6000818152600183016020526040812054613a68575081546001818101845560008481526020808220909301849055845484825282860190935260409020919091556106e9565b5060006106e9565b6000828152602081815260408083206001600160a01b038516845290915290205460ff166129ee57613aac816001600160a01b03166014613d7c565b613ab7836020613d7c565b604051602001613ac8929190614ad7565b60408051601f198184030181529082905262461bcd60e51b8252610758916004016147e6565b6000828152602081815260408083206001600160a01b038516845290915290205460ff16156129ee576000828152602081815260408083206001600160a01b03851684529091529020805460ff19169055613b47612a0b565b6001600160a01b0316816001600160a01b0316837ff6391f5c32d9c69d2a47ea670b442974b53935d1edc7fd64eb21e047a839171b60405160405180910390a45050565b60008181526001830160205260408120548015613c74576000613baf600183614917565b8554909150600090613bc390600190614917565b9050818114613c28576000866000018281548110613be357613be3614901565b9060005260206000200154905080876000018481548110613c0657613c06614901565b6000918252602080832090910192909255918252600188019052604090208390555b8554869080613c3957613c39614b58565b6001900381819060005260206000200160009055905585600101600086815260200190815260200160002060009055600193505050506106e9565b60009150506106e9565b6000826000018281548110613c9557613c95614901565b9060005260206000200154905092915050565b6060833b613d075760405162461bcd60e51b815260206004820152602660248201527f416464726573733a2064656c65676174652063616c6c20746f206e6f6e2d636f6044820152651b9d1c9858dd60d21b6064820152608401610758565b600080856001600160a01b031685604051613d229190614b6e565b600060405180830381855af49150503d8060008114613d5d576040519150601f19603f3d011682016040523d82523d6000602084013e613d62565b606091505b5091509150613d72828286613f25565b9695505050505050565b60606000613d8b836002614a4b565b613d969060026148e9565b67ffffffffffffffff811115613dae57613dae614601565b6040519080825280601f01601f191660200182016040528015613dd8576020820181803683370190505b509050600360fc1b81600081518110613df357613df3614901565b60200101906001600160f81b031916908160001a905350600f60fb1b81600181518110613e2257613e22614901565b60200101906001600160f81b031916908160001a9053506000613e46846002614a4b565b613e519060016148e9565b90505b6001811115613ed6577f303132333435363738396162636465660000000000000000000000000000000085600f1660108110613e9257613e92614901565b1a60f81b828281518110613ea857613ea8614901565b60200101906001600160f81b031916908160001a90535060049490941c93613ecf81614b8a565b9050613e54565b5083156119975760405162461bcd60e51b815260206004820181905260248201527f537472696e67733a20686578206c656e67746820696e73756666696369656e746044820152606401610758565b60608315613f34575081611997565b825115613f445782518084602001fd5b8160405162461bcd60e51b815260040161075891906147e6565b6040518061016001604052806000815260200160006001600160a01b0316815260200160006001600160a01b03168152602001600081526020016000815260200160006001600160a01b031681526020016000815260200160008152602001600081526020016000815260200160006001811115613fde57613fde6140f4565b905290565b828054613fef906149c6565b90600052602060002090601f0160209004810192826140115760008555614057565b82601f1061402a5782800160ff19823516178555614057565b82800160010185558215614057579182015b8281111561405757823582559160200191906001019061403c565b50614063929150614067565b5090565b5b808211156140635760008155600101614068565b60006020828403121561408e57600080fd5b81356001600160e01b03198116811461199757600080fd5b6001600160801b03811681146140bb57600080fd5b50565b6000602082840312156140d057600080fd5b8135611997816140a6565b6000602082840312156140ed57600080fd5b5035919050565b634e487b7160e01b600052602160045260246000fd5b6002811061412857634e487b7160e01b600052602160045260246000fd5b9052565b80518252602081015161414a60208401826001600160a01b03169052565b50604081015161416560408401826001600160a01b03169052565b50606081015160608301526080810151608083015260a081015161419460a08401826001600160a01b03169052565b5060c081015160c083015260e081015160e0830152610100808201518184015250610120808201518184015250610140808201516141d48285018261410a565b50505050565b61016081016106e9828461412c565b6001600160a01b03811681146140bb57600080fd5b60008083601f84011261421057600080fd5b50813567ffffffffffffffff81111561422857600080fd5b60208301915083602082850101111561424057600080fd5b9250929050565b60008060008060006080868803121561425f57600080fd5b853561426a816141e9565b9450602086013561427a816141e9565b935060408601359250606086013567ffffffffffffffff81111561429d57600080fd5b6142a9888289016141fe565b969995985093965092949392505050565b600080604083850312156142cd57600080fd5b82356142d8816141e9565b946020939093013593505050565b6020808252825182820181905260009190848201906040850190845b818110156143295761431583855161412c565b928401926101609290920191600101614302565b50909695505050505050565b6000806040838503121561434857600080fd5b82359150602083013561435a816141e9565b809150509250929050565b60008060008060008060c0878903121561437e57600080fd5b86359550602087013594506040870135614397816141e9565b959894975094956060810135955060808101359460a0909101359350915050565b80151581146140bb57600080fd5b6000602082840312156143d857600080fd5b8135611997816143b8565b6000602082840312156143f557600080fd5b8135611997816141e9565b6000806040838503121561441357600080fd5b50508035926020909101359150565b6000806020838503121561443557600080fd5b823567ffffffffffffffff81111561444c57600080fd5b614458858286016141fe565b90969095509350505050565b600080600080600080600080610100898b03121561448157600080fd5b883561448c816141e9565b97506020890135965060408901356144a3816141e9565b979a96995096976060810135975060808101359660a0820135965060c0820135955060e0909101359350915050565b600080602083850312156144e557600080fd5b823567ffffffffffffffff808211156144fd57600080fd5b818501915085601f83011261451157600080fd5b81358181111561452057600080fd5b8660208260051b850101111561453557600080fd5b60209290920196919550909350505050565b60005b8381101561456257818101518382015260200161454a565b838111156141d45750506000910152565b6000815180845261458b816020860160208601614547565b601f01601f19169290920160200192915050565b6000602080830181845280855180835260408601915060408160051b870101925083870160005b828110156145f457603f198886030184526145e2858351614573565b945092850192908501906001016145c6565b5092979650505050505050565b634e487b7160e01b600052604160045260246000fd5b604051601f8201601f1916810167ffffffffffffffff8111828210171561464057614640614601565b604052919050565b600082601f83011261465957600080fd5b8135602067ffffffffffffffff82111561467557614675614601565b8160051b614684828201614617565b928352848101820192828101908785111561469e57600080fd5b83870192505b848310156146bd578235825291830191908301906146a4565b979650505050505050565b600082601f8301126146d957600080fd5b813567ffffffffffffffff8111156146f3576146f3614601565b614706601f8201601f1916602001614617565b81815284602083860101111561471b57600080fd5b816020850160208301376000918101602001919091529392505050565b600080600080600060a0868803121561475057600080fd5b853561475b816141e9565b9450602086013561476b816141e9565b9350604086013567ffffffffffffffff8082111561478857600080fd5b61479489838a01614648565b945060608801359150808211156147aa57600080fd5b6147b689838a01614648565b935060808801359150808211156147cc57600080fd5b506147d9888289016146c8565b9150509295509295909350565b6020815260006119976020830184614573565b6000610160820190508c82526001600160a01b03808d166020840152808c1660408401528a606084015289608084015280891660a0840152508660c08301528560e0830152846101008301528361012083015261485a61014083018461410a565b9c9b505050505050505050505050565b600080600080600060a0868803121561488257600080fd5b853561488d816141e9565b9450602086013561489d816141e9565b93506040860135925060608601359150608086013567ffffffffffffffff8111156148c757600080fd5b6147d9888289016146c8565b634e487b7160e01b600052601160045260246000fd5b600082198211156148fc576148fc6148d3565b500190565b634e487b7160e01b600052603260045260246000fd5b600082821015614929576149296148d3565b500390565b60006020828403121561494057600080fd5b8151611997816143b8565b60006020828403121561495d57600080fd5b5051919050565b6000808335601e1984360301811261497b57600080fd5b83018035915067ffffffffffffffff82111561499657600080fd5b60200191503681900382131561424057600080fd5b60006000198214156149bf576149bf6148d3565b5060010190565b600181811c908216806149da57607f821691505b602082108114156149fb57634e487b7160e01b600052602260045260246000fd5b50919050565b6001600160a01b0384168152602081018390526101a08101614a26604083018461412c565b949350505050565b600060208284031215614a4057600080fd5b8151611997816141e9565b6000816000190483118215151615614a6557614a656148d3565b500290565b600060208284031215614a7c57600080fd5b8151611997816140a6565b600082614aa457634e487b7160e01b600052601260045260246000fd5b500490565b60008060408385031215614abc57600080fd5b8251614ac7816141e9565b6020939093015192949293505050565b7f416363657373436f6e74726f6c3a206163636f756e7420000000000000000000815260008351614b0f816017850160208801614547565b7f206973206d697373696e6720726f6c65200000000000000000000000000000006017918401918201528351614b4c816028840160208801614547565b01602801949350505050565b634e487b7160e01b600052603160045260246000fd5b60008251614b80818460208701614547565b9190910192915050565b600081614b9957614b996148d3565b50600019019056fe416464726573733a206c6f772d6c6576656c2064656c65676174652063616c6c206661696c6564a164736f6c6343000809000a",
  "linkReferences": {},
  "deployedLinkReferences": {}
}