{
  "_format": "hh-sol-artifact-1",
  "contractName": "Market",
  "sourceName": "contracts/Market.sol",
  "abi": [
    {
      "inputs": [
        {
          "internalType": "address",
          "name": "_controlCenter",
          "type": "address"
        },
        {
          "internalType": "address",
          "name": "_trustedForwarder",
          "type": "address"
        },
        {
          "internalType": "string",
          "name": "_uri",
          "type": "string"
        }
      ],
      "stateMutability": "nonpayable",
      "type": "constructor"
    },
    {
      "anonymous": false,
      "inputs": [
        {
          "indexed": true,
          "internalType": "address",
          "name": "seller",
          "type": "address"
        },
        {
          "indexed": true,
          "internalType": "uint256",
          "name": "listingId",
          "type": "uint256"
        },
        {
          "components": [
            {
              "internalType": "address",
              "name": "seller",
              "type": "address"
            },
            {
              "internalType": "address",
              "name": "assetContract",
              "type": "address"
            },
            {
              "internalType": "uint256",
              "name": "tokenId",
              "type": "uint256"
            },
            {
              "internalType": "uint256",
              "name": "quantity",
              "type": "uint256"
            },
            {
              "internalType": "address",
              "name": "currency",
              "type": "address"
            },
            {
              "internalType": "uint256",
              "name": "pricePerToken",
              "type": "uint256"
            },
            {
              "internalType": "uint256",
              "name": "saleStart",
              "type": "uint256"
            },
            {
              "internalType": "uint256",
              "name": "saleEnd",
              "type": "uint256"
            },
            {
              "internalType": "enum Market.TokenType",
              "name": "tokenType",
              "type": "uint8"
            }
          ],
          "indexed": false,
          "internalType": "struct Market.Listing",
          "name": "listing",
          "type": "tuple"
        }
      ],
      "name": "ListingUpdate",
      "type": "event"
    },
    {
      "anonymous": false,
      "inputs": [
        {
          "indexed": false,
          "internalType": "uint256",
          "name": "protocolFeeBps",
          "type": "uint256"
        },
        {
          "indexed": false,
          "internalType": "uint256",
          "name": "creatorFeeBps",
          "type": "uint256"
        }
      ],
      "name": "MarketFeesUpdated",
      "type": "event"
    },
    {
      "anonymous": false,
      "inputs": [
        {
          "indexed": true,
          "internalType": "address",
          "name": "assetContract",
          "type": "address"
        },
        {
          "indexed": true,
          "internalType": "address",
          "name": "seller",
          "type": "address"
        },
        {
          "indexed": true,
          "internalType": "uint256",
          "name": "listingId",
          "type": "uint256"
        },
        {
          "components": [
            {
              "internalType": "address",
              "name": "seller",
              "type": "address"
            },
            {
              "internalType": "address",
              "name": "assetContract",
              "type": "address"
            },
            {
              "internalType": "uint256",
              "name": "tokenId",
              "type": "uint256"
            },
            {
              "internalType": "uint256",
              "name": "quantity",
              "type": "uint256"
            },
            {
              "internalType": "address",
              "name": "currency",
              "type": "address"
            },
            {
              "internalType": "uint256",
              "name": "pricePerToken",
              "type": "uint256"
            },
            {
              "internalType": "uint256",
              "name": "saleStart",
              "type": "uint256"
            },
            {
              "internalType": "uint256",
              "name": "saleEnd",
              "type": "uint256"
            },
            {
              "internalType": "enum Market.TokenType",
              "name": "tokenType",
              "type": "uint8"
            }
          ],
          "indexed": false,
          "internalType": "struct Market.Listing",
          "name": "listing",
          "type": "tuple"
        }
      ],
      "name": "NewListing",
      "type": "event"
    },
    {
      "anonymous": false,
      "inputs": [
        {
          "indexed": true,
          "internalType": "address",
          "name": "assetContract",
          "type": "address"
        },
        {
          "indexed": true,
          "internalType": "address",
          "name": "seller",
          "type": "address"
        },
        {
          "indexed": true,
          "internalType": "uint256",
          "name": "listingId",
          "type": "uint256"
        },
        {
          "indexed": false,
          "internalType": "address",
          "name": "buyer",
          "type": "address"
        },
        {
          "indexed": false,
          "internalType": "uint256",
          "name": "quanitytBought",
          "type": "uint256"
        },
        {
          "components": [
            {
              "internalType": "address",
              "name": "seller",
              "type": "address"
            },
            {
              "internalType": "address",
              "name": "assetContract",
              "type": "address"
            },
            {
              "internalType": "uint256",
              "name": "tokenId",
              "type": "uint256"
            },
            {
              "internalType": "uint256",
              "name": "quantity",
              "type": "uint256"
            },
            {
              "internalType": "address",
              "name": "currency",
              "type": "address"
            },
            {
              "internalType": "uint256",
              "name": "pricePerToken",
              "type": "uint256"
            },
            {
              "internalType": "uint256",
              "name": "saleStart",
              "type": "uint256"
            },
            {
              "internalType": "uint256",
              "name": "saleEnd",
              "type": "uint256"
            },
            {
              "internalType": "enum Market.TokenType",
              "name": "tokenType",
              "type": "uint8"
            }
          ],
          "indexed": false,
          "internalType": "struct Market.Listing",
          "name": "listing",
          "type": "tuple"
        }
      ],
      "name": "NewSale",
      "type": "event"
    },
    {
      "inputs": [],
      "name": "_contractURI",
      "outputs": [
        {
          "internalType": "string",
          "name": "",
          "type": "string"
        }
      ],
      "stateMutability": "view",
      "type": "function"
    },
    {
      "inputs": [
        {
          "internalType": "uint256",
          "name": "_listingId",
          "type": "uint256"
        },
        {
          "internalType": "uint256",
          "name": "_quantity",
          "type": "uint256"
        }
      ],
      "name": "addToListing",
      "outputs": [],
      "stateMutability": "nonpayable",
      "type": "function"
    },
    {
      "inputs": [
        {
          "internalType": "uint256",
          "name": "_listingId",
          "type": "uint256"
        },
        {
          "internalType": "uint256",
          "name": "_quantity",
          "type": "uint256"
        }
      ],
      "name": "buy",
      "outputs": [],
      "stateMutability": "nonpayable",
      "type": "function"
    },
    {
      "inputs": [],
      "name": "contractURI",
      "outputs": [
        {
          "internalType": "string",
          "name": "",
          "type": "string"
        }
      ],
      "stateMutability": "view",
      "type": "function"
    },
    {
      "inputs": [
        {
          "internalType": "uint256",
          "name": "_listingId",
          "type": "uint256"
        }
      ],
      "name": "getListing",
      "outputs": [
        {
          "components": [
            {
              "internalType": "address",
              "name": "seller",
              "type": "address"
            },
            {
              "internalType": "address",
              "name": "assetContract",
              "type": "address"
            },
            {
              "internalType": "uint256",
              "name": "tokenId",
              "type": "uint256"
            },
            {
              "internalType": "uint256",
              "name": "quantity",
              "type": "uint256"
            },
            {
              "internalType": "address",
              "name": "currency",
              "type": "address"
            },
            {
              "internalType": "uint256",
              "name": "pricePerToken",
              "type": "uint256"
            },
            {
              "internalType": "uint256",
              "name": "saleStart",
              "type": "uint256"
            },
            {
              "internalType": "uint256",
              "name": "saleEnd",
              "type": "uint256"
            },
            {
              "internalType": "enum Market.TokenType",
              "name": "tokenType",
              "type": "uint8"
            }
          ],
          "internalType": "struct Market.Listing",
          "name": "listing",
          "type": "tuple"
        }
      ],
      "stateMutability": "view",
      "type": "function"
    },
    {
      "inputs": [
        {
          "internalType": "address",
          "name": "forwarder",
          "type": "address"
        }
      ],
      "name": "isTrustedForwarder",
      "outputs": [
        {
          "internalType": "bool",
          "name": "",
          "type": "bool"
        }
      ],
      "stateMutability": "view",
      "type": "function"
    },
    {
      "inputs": [
        {
          "internalType": "address",
          "name": "_assetContract",
          "type": "address"
        },
        {
          "internalType": "uint256",
          "name": "_tokenId",
          "type": "uint256"
        },
        {
          "internalType": "address",
          "name": "_currency",
          "type": "address"
        },
        {
          "internalType": "uint256",
          "name": "_pricePerToken",
          "type": "uint256"
        },
        {
          "internalType": "uint256",
          "name": "_quantity",
          "type": "uint256"
        },
        {
          "internalType": "uint256",
          "name": "_secondsUntilStart",
          "type": "uint256"
        },
        {
          "internalType": "uint256",
          "name": "_secondsUntilEnd",
          "type": "uint256"
        }
      ],
      "name": "list",
      "outputs": [],
      "stateMutability": "nonpayable",
      "type": "function"
    },
    {
      "inputs": [
        {
          "internalType": "uint256",
          "name": "",
          "type": "uint256"
        }
      ],
      "name": "listings",
      "outputs": [
        {
          "internalType": "address",
          "name": "seller",
          "type": "address"
        },
        {
          "internalType": "address",
          "name": "assetContract",
          "type": "address"
        },
        {
          "internalType": "uint256",
          "name": "tokenId",
          "type": "uint256"
        },
        {
          "internalType": "uint256",
          "name": "quantity",
          "type": "uint256"
        },
        {
          "internalType": "address",
          "name": "currency",
          "type": "address"
        },
        {
          "internalType": "uint256",
          "name": "pricePerToken",
          "type": "uint256"
        },
        {
          "internalType": "uint256",
          "name": "saleStart",
          "type": "uint256"
        },
        {
          "internalType": "uint256",
          "name": "saleEnd",
          "type": "uint256"
        },
        {
          "internalType": "enum Market.TokenType",
          "name": "tokenType",
          "type": "uint8"
        }
      ],
      "stateMutability": "view",
      "type": "function"
    },
    {
      "inputs": [
        {
          "internalType": "address",
          "name": "",
          "type": "address"
        },
        {
          "internalType": "address",
          "name": "",
          "type": "address"
        },
        {
          "internalType": "uint256[]",
          "name": "",
          "type": "uint256[]"
        },
        {
          "internalType": "uint256[]",
          "name": "",
          "type": "uint256[]"
        },
        {
          "internalType": "bytes",
          "name": "",
          "type": "bytes"
        }
      ],
      "name": "onERC1155BatchReceived",
      "outputs": [
        {
          "internalType": "bytes4",
          "name": "",
          "type": "bytes4"
        }
      ],
      "stateMutability": "nonpayable",
      "type": "function"
    },
    {
      "inputs": [
        {
          "internalType": "address",
          "name": "",
          "type": "address"
        },
        {
          "internalType": "address",
          "name": "",
          "type": "address"
        },
        {
          "internalType": "uint256",
          "name": "",
          "type": "uint256"
        },
        {
          "internalType": "uint256",
          "name": "",
          "type": "uint256"
        },
        {
          "internalType": "bytes",
          "name": "",
          "type": "bytes"
        }
      ],
      "name": "onERC1155Received",
      "outputs": [
        {
          "internalType": "bytes4",
          "name": "",
          "type": "bytes4"
        }
      ],
      "stateMutability": "nonpayable",
      "type": "function"
    },
    {
      "inputs": [
        {
          "internalType": "address",
          "name": "",
          "type": "address"
        },
        {
          "internalType": "address",
          "name": "",
          "type": "address"
        },
        {
          "internalType": "uint256",
          "name": "",
          "type": "uint256"
        },
        {
          "internalType": "bytes",
          "name": "",
          "type": "bytes"
        }
      ],
      "name": "onERC721Received",
      "outputs": [
        {
          "internalType": "bytes4",
          "name": "",
          "type": "bytes4"
        }
      ],
      "stateMutability": "pure",
      "type": "function"
    },
    {
      "inputs": [
        {
          "internalType": "string",
          "name": "_URI",
          "type": "string"
        }
      ],
      "name": "setContractURI",
      "outputs": [],
      "stateMutability": "nonpayable",
      "type": "function"
    },
    {
      "inputs": [
        {
          "internalType": "bytes4",
          "name": "interfaceId",
          "type": "bytes4"
        }
      ],
      "name": "supportsInterface",
      "outputs": [
        {
          "internalType": "bool",
          "name": "",
          "type": "bool"
        }
      ],
      "stateMutability": "view",
      "type": "function"
    },
    {
      "inputs": [],
      "name": "totalListings",
      "outputs": [
        {
          "internalType": "uint256",
          "name": "",
          "type": "uint256"
        }
      ],
      "stateMutability": "view",
      "type": "function"
    },
    {
      "inputs": [
        {
          "internalType": "uint256",
          "name": "_listingId",
          "type": "uint256"
        },
        {
          "internalType": "uint256",
          "name": "_quantity",
          "type": "uint256"
        }
      ],
      "name": "unlist",
      "outputs": [],
      "stateMutability": "nonpayable",
      "type": "function"
    },
    {
      "inputs": [
        {
          "internalType": "uint256",
          "name": "_listingId",
          "type": "uint256"
        },
        {
          "internalType": "uint256",
          "name": "_pricePerToken",
          "type": "uint256"
        },
        {
          "internalType": "address",
          "name": "_currency",
          "type": "address"
        },
        {
          "internalType": "uint256",
          "name": "_secondsUntilStart",
          "type": "uint256"
        },
        {
          "internalType": "uint256",
          "name": "_secondsUntilEnd",
          "type": "uint256"
        }
      ],
      "name": "updateListingParams",
      "outputs": [],
      "stateMutability": "nonpayable",
      "type": "function"
    }
  ],
  "bytecode": "0x60806040523480156200001157600080fd5b50604051620033d4380380620033d4833981016040819052620000349162000156565b6001600081905580546001600160a01b0319166001600160a01b03841617905580516200006990600490602084019062000093565b5050600280546001600160a01b0319166001600160a01b03939093169290921790915550620002a0565b828054620000a1906200024d565b90600052602060002090601f016020900481019282620000c5576000855562000110565b82601f10620000e057805160ff191683800117855562000110565b8280016001018555821562000110579182015b8281111562000110578251825591602001919060010190620000f3565b506200011e92915062000122565b5090565b5b808211156200011e576000815560010162000123565b80516001600160a01b03811681146200015157600080fd5b919050565b6000806000606084860312156200016b578283fd5b620001768462000139565b925060206200018781860162000139565b60408601519093506001600160401b0380821115620001a4578384fd5b818701915087601f830112620001b8578384fd5b815181811115620001cd57620001cd6200028a565b604051601f8201601f1916810185018381118282101715620001f357620001f36200028a565b60405281815283820185018a10156200020a578586fd5b8592505b818310156200022d57838301850151818401860152918401916200020e565b818311156200023e57858583830101525b80955050505050509250925092565b6002810460018216806200026257607f821691505b602082108114156200028457634e487b7160e01b600052602260045260246000fd5b50919050565b634e487b7160e01b600052604160045260246000fd5b61312480620002b06000396000f3fe608060405234801561001057600080fd5b50600436106101005760003560e01c8063bc197c8111610097578063d6febde811610066578063d6febde81461021f578063de74e57b14610232578063e8a3d4851461025a578063f23a6e611461026257610100565b8063bc197c81146101cf578063c0e72740146101e2578063c78b616c146101f7578063d34cbd441461020c57610100565b8063572b6c05116100d3578063572b6c0514610183578063583e12b61461019657806361a69e9b146101a9578063938e3d7b146101bc57610100565b806301ffc9a714610105578063107a274a1461012e578063150b7a021461014e5780634fd69f3c1461016e575b600080fd5b61011861011336600461253c565b610275565b6040516101259190612820565b60405180910390f35b61014161013c3660046125d4565b6102ac565b6040516101259190612fda565b61016161015c36600461239b565b610383565b6040516101259190612842565b61018161017c3660046125ec565b610395565b005b6101186101913660046122b2565b61060a565b6101816101a43660046125ec565b61061e565b6101816101b736600461260d565b610a30565b6101816101ca366004612564565b610c9e565b6101616101dd3660046122f1565b610dc5565b6101ea610dd6565b6040516101259190612857565b6101ff610e64565b6040516101259190612fe9565b61018161021a3660046124a0565b610e6a565b61018161022d3660046125ec565b611136565b6102456102403660046125d4565b611428565b6040516101259998979695949392919061275a565b6101ea611486565b61016161027036600461240c565b611519565b60006001600160e01b03198216630271189760e51b14806102a657506001600160e01b03198216630a85bd0160e11b145b92915050565b6102b4612060565b60008281526005602081815260409283902083516101208101855281546001600160a01b03908116825260018084015482169483019490945260028301549582019590955260038201546060820152600482015490941660808501529182015460a0840152600682015460c0840152600782015460e0840152600882015461010084019160ff9091169081111561035b57634e487b7160e01b600052602160045260246000fd5b600181111561037a57634e487b7160e01b600052602160045260246000fd5b90525092915050565b630a85bd0160e11b5b95945050505050565b61039d61152a565b60008381526005602052604090205483906001600160a01b038381169116146103e15760405162461bcd60e51b81526004016103d8906129c1565b60405180910390fd5b600084815260056020818152604080842081516101208101835281546001600160a01b03908116825260018084015482169583019590955260028301549382019390935260038201546060820152600482015490921660808301529283015460a0820152600683015460c0820152600783015460e0820152600883015490929161010084019160ff169081111561048857634e487b7160e01b600052602160045260246000fd5b60018111156104a757634e487b7160e01b600052602160045260246000fd5b81525050905083816060015110156104d15760405162461bcd60e51b81526004016103d890612dd2565b83816060018181516104e39190613081565b905250600085815260056020818152604092839020845181546001600160a01b03199081166001600160a01b03928316178355928601516001808401805486169284169290921790915594860151600283015560608601516003830155608086015160048301805490941691161790915560a08401519181019190915560c0830151600682015560e08301516007820155610100830151600882018054859460ff199091169083818111156105a857634e487b7160e01b600052602160045260246000fd5b02179055509050506105ba8185611558565b846105c361152a565b6001600160a01b03167f67e659b6ce1b8a981cd082333f67a16d03936ebda35233da557e47e843cf2db0836040516105fb9190612fda565b60405180910390a35050505050565b6001546001600160a01b0390811691161490565b600260009054906101000a90046001600160a01b03166001600160a01b0316639d2f83f06040518163ffffffff1660e01b815260040160206040518083038186803b15801561066c57600080fd5b505afa158015610680573d6000803e3d6000fd5b505050506040513d601f19601f820116820180604052508101906106a49190612504565b156106c15760405162461bcd60e51b81526004016103d890612c34565b6106c961152a565b60008381526005602052604090205483906001600160a01b038381169116146107045760405162461bcd60e51b81526004016103d8906129c1565b600084815260056020818152604080842081516101208101835281546001600160a01b03908116825260018084015482169583019590955260028301549382019390935260038201546060820152600482015490921660808301529283015460a0820152600683015460c0820152600783015460e0820152600883015490929161010084019160ff16908111156107ab57634e487b7160e01b600052602160045260246000fd5b60018111156107ca57634e487b7160e01b600052602160045260246000fd5b81525050905083816060018181516107e2919061302a565b905250600085815260056020818152604092839020845181546001600160a01b03199081166001600160a01b03928316178355928601516001808401805486169284169290921790915594860151600283015560608601516003830155608086015160048301805490941691161790915560a08401519181019190915560c0830151600682015560e08301516007820155610100830151600882018054859460ff199091169083818111156108a757634e487b7160e01b600052602160045260246000fd5b02179055505050836108cb5760405162461bcd60e51b81526004016103d890612bf0565b600081610100015160018111156108f257634e487b7160e01b600052602160045260246000fd5b1461090f5760405162461bcd60e51b81526004016103d890612b36565b80602001516001600160a01b031663e985e9c561092a61152a565b306040518363ffffffff1660e01b81526004016109489291906126e9565b60206040518083038186803b15801561096057600080fd5b505afa158015610974573d6000803e3d6000fd5b505050506040513d601f19601f820116820180604052508101906109989190612504565b6109b45760405162461bcd60e51b81526004016103d890612cd5565b80602001516001600160a01b031663f242432a6109cf61152a565b308460400151886040518563ffffffff1660e01b81526004016109f594939291906127bb565b600060405180830381600087803b158015610a0f57600080fd5b505af1158015610a23573d6000803e3d6000fd5b50505050846105c361152a565b610a3861152a565b60008681526005602052604090205486906001600160a01b03838116911614610a735760405162461bcd60e51b81526004016103d8906129c1565b600087815260056020818152604080842081516101208101835281546001600160a01b03908116825260018084015482169583019590955260028301549382019390935260038201546060820152600482015490921660808301529283015460a0820152600683015460c0820152600783015460e0820152600883015490929161010084019160ff1690811115610b1a57634e487b7160e01b600052602160045260246000fd5b6001811115610b3957634e487b7160e01b600052602160045260246000fd5b90525060a081018890526001600160a01b03871660808201529050610b5e854261302a565b60c08201528315610b7857610b73844261302a565b610b7c565b6000195b60e08201908152600089815260056020818152604092839020855181546001600160a01b03199081166001600160a01b03928316178355928701516001808401805486169284169290921790915594870151600283015560608701516003830155608087015160048301805490941691161790915560a08501519181019190915560c084015160068201559151600783015561010083015160088301805485949360ff19909116908381811115610c4357634e487b7160e01b600052602160045260246000fd5b021790555090505087610c5461152a565b6001600160a01b03167f67e659b6ce1b8a981cd082333f67a16d03936ebda35233da557e47e843cf2db083604051610c8c9190612fda565b60405180910390a35050505050505050565b60025460408051634a32c6bf60e11b815290516001600160a01b03909216916391d148549183916394658d7e91600480820192602092909190829003018186803b158015610ceb57600080fd5b505afa158015610cff573d6000803e3d6000fd5b505050506040513d601f19601f82011682018060405250810190610d239190612524565b610d2b61152a565b6040518363ffffffff1660e01b8152600401610d4892919061282b565b60206040518083038186803b158015610d6057600080fd5b505afa158015610d74573d6000803e3d6000fd5b505050506040513d601f19601f82011682018060405250810190610d989190612504565b610db45760405162461bcd60e51b81526004016103d890612907565b610dc0600483836120e5565b505050565b63bc197c8160e01b95945050505050565b60048054610de390613098565b80601f0160208091040260200160405190810160405280929190818152602001828054610e0f90613098565b8015610e5c5780601f10610e3157610100808354040283529160200191610e5c565b820191906000526020600020905b815481529060010190602001808311610e3f57829003601f168201915b505050505081565b60035481565b600260009054906101000a90046001600160a01b03166001600160a01b0316639d2f83f06040518163ffffffff1660e01b815260040160206040518083038186803b158015610eb857600080fd5b505afa158015610ecc573d6000803e3d6000fd5b505050506040513d601f19601f82011682018060405250810190610ef09190612504565b15610f0d5760405162461bcd60e51b81526004016103d890612c34565b60008311610f2d5760405162461bcd60e51b81526004016103d890612f46565b60038054906001906000610f41838561302a565b9091555060009050610f5d89610f5561152a565b308b896116c0565b90506000604051806101200160405280610f7561152a565b6001600160a01b031681526020018b6001600160a01b031681526020018a8152602001878152602001896001600160a01b031681526020018881526020018642610fbf919061302a565b81526020018515610fd957610fd4864261302a565b610fdd565b6000195b815260200183600181111561100257634e487b7160e01b600052602160045260246000fd5b9052600084815260056020818152604092839020845181546001600160a01b03199081166001600160a01b03928316178355928601516001808401805486169284169290921790915594860151600283015560608601516003830155608086015160048301805490941691161790915560a08401519181019190915560c0830151600682015560e08301516007820155610100830151600882018054949550859492939192909160ff199091169083818111156110cf57634e487b7160e01b600052602160045260246000fd5b0217905550905050826110e061152a565b6001600160a01b03168b6001600160a01b03167f32d30e57681d4feecd6e3f52549f301319ba42d06a985c19c1a043699ccb1f87846040516111229190612fda565b60405180910390a450505050505050505050565b600260005414156111595760405162461bcd60e51b81526004016103d890612fa3565b600260009081558281526005602052604090205482906001600160a01b03166111945760405162461bcd60e51b81526004016103d890612d32565b600083815260056020818152604080842081516101208101835281546001600160a01b03908116825260018084015482169583019590955260028301549382019390935260038201546060820152600482015490921660808301529283015460a0820152600683015460c0820152600783015460e0820152600883015490929161010084019160ff169081111561123b57634e487b7160e01b600052602160045260246000fd5b600181111561125a57634e487b7160e01b600052602160045260246000fd5b90525090508215801590611272575080606001518311155b61128e5760405162461bcd60e51b81526004016103d890612ee9565b8060e0015142111580156112a657508060c001514210155b6112c25760405162461bcd60e51b81526004016103d890612d75565b82816060018181516112d49190613081565b905250600084815260056020818152604092839020845181546001600160a01b03199081166001600160a01b03928316178355928601516001808401805486169284169290921790915594860151600283015560608601516003830155608086015160048301805490941691161790915560a08401519181019190915560c0830151600682015560e08301516007820155610100830151600882018054859460ff1990911690838181111561139957634e487b7160e01b600052602160045260246000fd5b0217905550505060a0810151156113b4576113b48184611a77565b6113be8184611558565b8381600001516001600160a01b031682602001516001600160a01b03167fc41d3d11e6486a0b2f2f4ff3f0fc3fd45b75f19768f692259311567db2ff779861140461152a565b8786604051611415939291906127f3565b60405180910390a4505060016000555050565b60056020819052600091825260409091208054600182015460028301546003840154600485015495850154600686015460078701546008909701546001600160a01b0396871698958716979496939590931693919290919060ff1689565b60606004805461149590613098565b80601f01602080910402602001604051908101604052809291908181526020018280546114c190613098565b801561150e5780601f106114e35761010080835404028352916020019161150e565b820191906000526020600020905b8154815290600101906020018083116114f157829003601f168201915b505050505090505b90565b63f23a6e6160e01b95945050505050565b60006115353361060a565b15611549575060131936013560601c611516565b61155161205c565b9050611516565b6000826101000151600181111561157f57634e487b7160e01b600052602160045260246000fd5b14156115fd5781602001516001600160a01b031663f242432a306115a161152a565b8560400151856040518563ffffffff1660e01b81526004016115c694939291906127bb565b600060405180830381600087803b1580156115e057600080fd5b505af11580156115f4573d6000803e3d6000fd5b505050506116bc565b6001826101000151600181111561162457634e487b7160e01b600052602160045260246000fd5b14156116bc578060011461164a5760405162461bcd60e51b81526004016103d890612e2f565b81602001516001600160a01b031663b88d4fde3061166661152a565b85604001516040518463ffffffff1660e01b815260040161168993929190612727565b600060405180830381600087803b1580156116a357600080fd5b505af11580156116b7573d6000803e3d6000fd5b505050505b5050565b6040516301ffc9a760e01b81526000906001600160a01b038716906301ffc9a7906116f6906380ac58cd60e01b90600401612842565b60206040518083038186803b15801561170e57600080fd5b505afa158015611722573d6000803e3d6000fd5b505050506040513d601f19601f820116820180604052508101906117469190612504565b156118525760405163e985e9c560e01b81526001600160a01b0387169063e985e9c59061177990889088906004016126e9565b60206040518083038186803b15801561179157600080fd5b505afa1580156117a5573d6000803e3d6000fd5b505050506040513d601f19601f820116820180604052508101906117c99190612504565b6117e55760405162461bcd60e51b81526004016103d890612a7b565b50604051637921219560e11b81526000906001600160a01b0387169063f242432a9061181b9088908890889088906004016127bb565b600060405180830381600087803b15801561183557600080fd5b505af1158015611849573d6000803e3d6000fd5b5050505061038c565b6040516301ffc9a760e01b81526001600160a01b038716906301ffc9a79061188590636cdb3d1360e11b90600401612842565b60206040518083038186803b15801561189d57600080fd5b505afa1580156118b1573d6000803e3d6000fd5b505050506040513d601f19601f820116820180604052508101906118d59190612504565b15611a5f57816001146118fa5760405162461bcd60e51b81526004016103d890612a1e565b60405163e985e9c560e01b81526001600160a01b0387169063e985e9c59061192890889088906004016126e9565b60206040518083038186803b15801561194057600080fd5b505afa158015611954573d6000803e3d6000fd5b505050506040513d601f19601f820116820180604052508101906119789190612504565b80611a0f5750836001600160a01b0316866001600160a01b031663081812fc856040518263ffffffff1660e01b81526004016119b49190612fe9565b60206040518083038186803b1580156119cc57600080fd5b505afa1580156119e0573d6000803e3d6000fd5b505050506040513d601f19601f82011682018060405250810190611a0491906122d5565b6001600160a01b0316145b611a2b5760405162461bcd60e51b81526004016103d890612a7b565b50604051635c46a7ef60e11b81526001906001600160a01b0387169063b88d4fde9061181b90889088908890600401612727565b60405162461bcd60e51b81526004016103d8906128aa565b6000818360a00151611a899190613062565b90508083608001516001600160a01b031663dd62ed3e611aa761152a565b306040518363ffffffff1660e01b8152600401611ac59291906126e9565b60206040518083038186803b158015611add57600080fd5b505afa158015611af1573d6000803e3d6000fd5b505050506040513d601f19601f82011682018060405250810190611b159190612524565b1015611b335760405162461bcd60e51b81526004016103d890612ad9565b6002546040805163fd967f4760e01b815290516000926001600160a01b03169163fd967f47916004808301926020929190829003018186803b158015611b7857600080fd5b505afa158015611b8c573d6000803e3d6000fd5b505050506040513d601f19601f82011682018060405250810190611bb091906125a4565b6fffffffffffffffffffffffffffffffff16600260009054906101000a90046001600160a01b03166001600160a01b0316633f5c3e876040518163ffffffff1660e01b815260040160206040518083038186803b158015611c1057600080fd5b505afa158015611c24573d6000803e3d6000fd5b505050506040513d601f19601f82011682018060405250810190611c4891906125a4565b611c64906fffffffffffffffffffffffffffffffff1684613062565b611c6e9190613042565b905083608001516001600160a01b03166323b872dd611c8b61152a565b600260009054906101000a90046001600160a01b03166001600160a01b0316639494995b6040518163ffffffff1660e01b815260040160206040518083038186803b158015611cd957600080fd5b505afa158015611ced573d6000803e3d6000fd5b505050506040513d601f19601f82011682018060405250810190611d1191906122d5565b846040518463ffffffff1660e01b8152600401611d3093929190612703565b602060405180830381600087803b158015611d4a57600080fd5b505af1158015611d5e573d6000803e3d6000fd5b505050506040513d601f19601f82011682018060405250810190611d829190612504565b611d9e5760405162461bcd60e51b81526004016103d890612c78565b6000611daa8284613081565b60208601516040516301ffc9a760e01b81529192506001600160a01b0316906301ffc9a790611de49063152a902d60e11b90600401612842565b60206040518083038186803b158015611dfc57600080fd5b505afa158015611e10573d6000803e3d6000fd5b505050506040513d601f19601f82011682018060405250810190611e349190612504565b15611fa65760008086602001516001600160a01b0316632a55205a8860400151876040518363ffffffff1660e01b8152600401611e72929190612ff2565b604080518083038186803b158015611e8957600080fd5b505afa158015611e9d573d6000803e3d6000fd5b505050506040513d601f19601f82011682018060405250810190611ec19190612473565b909250905084611ed1858361302a565b10611eee5760405162461bcd60e51b81526004016103d890612b93565b611ef88184613081565b925086608001516001600160a01b03166323b872dd611f1561152a565b84846040518463ffffffff1660e01b8152600401611f3593929190612703565b602060405180830381600087803b158015611f4f57600080fd5b505af1158015611f63573d6000803e3d6000fd5b505050506040513d601f19601f82011682018060405250810190611f879190612504565b611fa35760405162461bcd60e51b81526004016103d890612e8c565b50505b84608001516001600160a01b03166323b872dd611fc161152a565b87516040516001600160e01b031960e085901b168152611fe79291908690600401612703565b602060405180830381600087803b15801561200157600080fd5b505af1158015612015573d6000803e3d6000fd5b505050506040513d601f19601f820116820180604052508101906120399190612504565b6120555760405162461bcd60e51b81526004016103d890612964565b5050505050565b3390565b60405180610120016040528060006001600160a01b0316815260200160006001600160a01b03168152602001600081526020016000815260200160006001600160a01b03168152602001600081526020016000815260200160008152602001600060018111156120e057634e487b7160e01b600052602160045260246000fd5b905290565b8280546120f190613098565b90600052602060002090601f0160209004810192826121135760008555612159565b82601f1061212c5782800160ff19823516178555612159565b82800160010185558215612159579182015b8281111561215957823582559160200191906001019061213e565b50612165929150612169565b5090565b5b80821115612165576000815560010161216a565b600082601f83011261218e578081fd5b8135602067ffffffffffffffff8211156121aa576121aa6130e9565b8082026121b8828201613000565b8381528281019086840183880185018910156121d2578687fd5b8693505b858410156121f45780358352600193909301929184019184016121d6565b50979650505050505050565b60008083601f840112612211578182fd5b50813567ffffffffffffffff811115612228578182fd5b60208301915083602082850101111561224057600080fd5b9250929050565b600082601f830112612257578081fd5b813567ffffffffffffffff811115612271576122716130e9565b612284601f8201601f1916602001613000565b818152846020838601011115612298578283fd5b816020850160208301379081016020019190915292915050565b6000602082840312156122c3578081fd5b81356122ce816130ff565b9392505050565b6000602082840312156122e6578081fd5b81516122ce816130ff565b600080600080600060a08688031215612308578081fd5b8535612313816130ff565b94506020860135612323816130ff565b9350604086013567ffffffffffffffff8082111561233f578283fd5b61234b89838a0161217e565b94506060880135915080821115612360578283fd5b61236c89838a0161217e565b93506080880135915080821115612381578283fd5b5061238e88828901612247565b9150509295509295909350565b6000806000806000608086880312156123b2578081fd5b85356123bd816130ff565b945060208601356123cd816130ff565b935060408601359250606086013567ffffffffffffffff8111156123ef578182fd5b6123fb88828901612200565b969995985093965092949392505050565b600080600080600060a08688031215612423578081fd5b853561242e816130ff565b9450602086013561243e816130ff565b93506040860135925060608601359150608086013567ffffffffffffffff811115612467578182fd5b61238e88828901612247565b60008060408385031215612485578182fd5b8251612490816130ff565b6020939093015192949293505050565b600080600080600080600060e0888a0312156124ba578182fd5b87356124c5816130ff565b96506020880135955060408801356124dc816130ff565b969995985095966060810135965060808101359560a0820135955060c0909101359350915050565b600060208284031215612515578081fd5b815180151581146122ce578182fd5b600060208284031215612535578081fd5b5051919050565b60006020828403121561254d578081fd5b81356001600160e01b0319811681146122ce578182fd5b60008060208385031215612576578182fd5b823567ffffffffffffffff81111561258c578283fd5b61259885828601612200565b90969095509350505050565b6000602082840312156125b5578081fd5b81516fffffffffffffffffffffffffffffffff811681146122ce578182fd5b6000602082840312156125e5578081fd5b5035919050565b600080604083850312156125fe578182fd5b50508035926020909101359150565b600080600080600060a08688031215612624578283fd5b8535945060208601359350604086013561263d816130ff565b94979396509394606081013594506080013592915050565b6002811061267357634e487b7160e01b600052602160045260246000fd5b9052565b6001600160a01b0380825116835280602083015116602084015260408201516040840152606082015160608401528060808301511660808401525060a081015160a083015260c081015160c083015260e081015160e0830152610100808201516126e382850182612655565b50505050565b6001600160a01b0392831681529116602082015260400190565b6001600160a01b039384168152919092166020820152604081019190915260600190565b6001600160a01b039384168152919092166020820152604081019190915260806060820181905260009082015260a00190565b6000610120820190506001600160a01b03808c168352808b1660208401528960408401528860608401528088166080840152508560a08301528460c08301528360e08301526127ad610100830184612655565b9a9950505050505050505050565b6001600160a01b0394851681529290931660208301526040820152606081019190915260a06080820181905260009082015260c00190565b6001600160a01b03841681526020810183905261016081016128186040830184612677565b949350505050565b901515815260200190565b9182526001600160a01b0316602082015260400190565b6001600160e01b031991909116815260200190565b6000602080835283518082850152825b8181101561288357858101830151858201604001528201612867565b818111156128945783604083870101525b50601f01601f1916929092016040019392505050565b60208082526038908201527f4d61726b65743a20746f6b656e206d75737420696d706c656d656e742065697460408201527f686572204552432031313535206f7220455243203732312e0000000000000000606082015260800190565b60208082526033908201527f5061636b3a206f6e6c7920612070726f746f636f6c2061646d696e2063616e2060408201527f63616c6c20746869732066756e6374696f6e2e00000000000000000000000000606082015260800190565b60208082526026908201527f4d61726b65743a206661696c656420746f207472616e736665722073656c6c6560408201527f72206375742e0000000000000000000000000000000000000000000000000000606082015260800190565b6020808252602f908201527f4d61726b65743a204f6e6c79207468652073656c6c65722063616e2063616c6c60408201527f20746869732066756e6374696f6e2e0000000000000000000000000000000000606082015260800190565b60208082526031908201527f4d61726b65743a2043616e6e6f74206c697374206d6f7265207468616e20312060408201527f6f6620616e20455243373231204e46542e000000000000000000000000000000606082015260800190565b602080825260409082018190527f4d61726b65743a206d75737420617070726f766520746865206d61726b657420908201527f746f207472616e7366657220746f6b656e73206265696e67206c69737465642e606082015260800190565b60208082526035908201527f4d61726b65743a206d75737420617070726f7665204d61726b657420746f207460408201527f72616e7366657220707269636520746f207061792e0000000000000000000000606082015260800190565b6020808252602a908201527f4d61726b65743a2043616e206f6e6c792061646420746f20455243203131353560408201527f206c697374696e67732e00000000000000000000000000000000000000000000606082015260800190565b6020808252602b908201527f4d61726b65743a20546f74616c206d61726b657420666565732065786365656460408201527f207468652070726963652e000000000000000000000000000000000000000000606082015260800190565b60208082526024908201527f4d61726b65743a206d75737420616464206174206c65617374206f6e6520746f60408201526335b2b71760e11b606082015260800190565b60208082526024908201527f4d61726b65743a20546865207061636b2070726f746f636f6c2069732070617560408201526339b2b21760e11b606082015260800190565b60208082526028908201527f4d61726b65743a206661696c656420746f207472616e736665722070726f746f60408201527f636f6c206375742e000000000000000000000000000000000000000000000000606082015260800190565b6020808252603f908201527f4d61726b65743a206d75737420617070726f766520746865206d61726b65742060408201527f746f207472616e7366657220746f6b656e73206265696e672061646465642e00606082015260800190565b60208082526023908201527f4d61726b65743a20546865206c697374696e6720646f6573206e6f742065786960408201526239ba1760e91b606082015260800190565b60208082526032908201527f4d61726b65743a207468652073616c652068617320656974686572206e6f742060408201527f73746172746564206f7220636c6f7365642e0000000000000000000000000000606082015260800190565b60208082526032908201527f4d61726b65743a2063616e6e6f7420756e6c697374206d6f726520746f6b656e60408201527f73207468616e20617265206c69737465642e0000000000000000000000000000606082015260800190565b60208082526036908201527f4d61726b65743a2043616e6e6f7420756e6c697374206d6f7265207468616e2060408201527f6f6e65206f6620616e2045524320373231204e46542e00000000000000000000606082015260800190565b60208082526027908201527f4d61726b65743a206661696c656420746f207472616e7366657220637265617460408201527f6f72206375742e00000000000000000000000000000000000000000000000000606082015260800190565b60208082526031908201527f4d61726b65743a206d7573742062757920616e20617070726f7072696174652060408201527f616d6f756e74206f6620746f6b656e732e000000000000000000000000000000606082015260800190565b60208082526025908201527f4d61726b65743a206d757374206c697374206174206c65617374206f6e65207460408201527f6f6b656e2e000000000000000000000000000000000000000000000000000000606082015260800190565b6020808252601f908201527f5265656e7472616e637947756172643a207265656e7472616e742063616c6c00604082015260600190565b61012081016102a68284612677565b90815260200190565b918252602082015260400190565b60405181810167ffffffffffffffff81118282101715613022576130226130e9565b604052919050565b6000821982111561303d5761303d6130d3565b500190565b60008261305d57634e487b7160e01b81526012600452602481fd5b500490565b600081600019048311821515161561307c5761307c6130d3565b500290565b600082821015613093576130936130d3565b500390565b6002810460018216806130ac57607f821691505b602082108114156130cd57634e487b7160e01b600052602260045260246000fd5b50919050565b634e487b7160e01b600052601160045260246000fd5b634e487b7160e01b600052604160045260246000fd5b6001600160a01b038116811461311457600080fd5b5056fea164736f6c6343000800000a",
  "linkReferences": {},
  "deployedLinkReferences": {}
}