{
  "_format": "hh-sol-artifact-1",
  "contractName": "Market",
  "sourceName": "contracts/Market.sol",
  "abi": [
    {
      "inputs": [
        {
          "internalType": "address payable",
          "name": "_controlCenter",
          "type": "address"
        },
        {
          "internalType": "address",
          "name": "_trustedForwarder",
          "type": "address"
        },
        {
          "internalType": "string",
          "name": "_uri",
          "type": "string"
        }
      ],
      "stateMutability": "nonpayable",
      "type": "constructor"
    },
    {
      "anonymous": false,
      "inputs": [
        {
          "indexed": true,
          "internalType": "address",
          "name": "seller",
          "type": "address"
        },
        {
          "indexed": true,
          "internalType": "uint256",
          "name": "listingId",
          "type": "uint256"
        },
        {
          "components": [
            {
              "internalType": "uint256",
              "name": "listingId",
              "type": "uint256"
            },
            {
              "internalType": "address",
              "name": "seller",
              "type": "address"
            },
            {
              "internalType": "address",
              "name": "assetContract",
              "type": "address"
            },
            {
              "internalType": "uint256",
              "name": "tokenId",
              "type": "uint256"
            },
            {
              "internalType": "uint256",
              "name": "quantity",
              "type": "uint256"
            },
            {
              "internalType": "address",
              "name": "currency",
              "type": "address"
            },
            {
              "internalType": "uint256",
              "name": "pricePerToken",
              "type": "uint256"
            },
            {
              "internalType": "uint256",
              "name": "saleStart",
              "type": "uint256"
            },
            {
              "internalType": "uint256",
              "name": "saleEnd",
              "type": "uint256"
            },
            {
              "internalType": "uint256",
              "name": "tokensPerBuyer",
              "type": "uint256"
            },
            {
              "internalType": "enum Market.TokenType",
              "name": "tokenType",
              "type": "uint8"
            }
          ],
          "indexed": false,
          "internalType": "struct Market.Listing",
          "name": "listing",
          "type": "tuple"
        }
      ],
      "name": "ListingUpdate",
      "type": "event"
    },
    {
      "anonymous": false,
      "inputs": [
        {
          "indexed": false,
          "internalType": "uint128",
          "name": "newFee",
          "type": "uint128"
        }
      ],
      "name": "MarketFeeUpdate",
      "type": "event"
    },
    {
      "anonymous": false,
      "inputs": [
        {
          "indexed": true,
          "internalType": "address",
          "name": "assetContract",
          "type": "address"
        },
        {
          "indexed": true,
          "internalType": "address",
          "name": "seller",
          "type": "address"
        },
        {
          "indexed": true,
          "internalType": "uint256",
          "name": "listingId",
          "type": "uint256"
        },
        {
          "components": [
            {
              "internalType": "uint256",
              "name": "listingId",
              "type": "uint256"
            },
            {
              "internalType": "address",
              "name": "seller",
              "type": "address"
            },
            {
              "internalType": "address",
              "name": "assetContract",
              "type": "address"
            },
            {
              "internalType": "uint256",
              "name": "tokenId",
              "type": "uint256"
            },
            {
              "internalType": "uint256",
              "name": "quantity",
              "type": "uint256"
            },
            {
              "internalType": "address",
              "name": "currency",
              "type": "address"
            },
            {
              "internalType": "uint256",
              "name": "pricePerToken",
              "type": "uint256"
            },
            {
              "internalType": "uint256",
              "name": "saleStart",
              "type": "uint256"
            },
            {
              "internalType": "uint256",
              "name": "saleEnd",
              "type": "uint256"
            },
            {
              "internalType": "uint256",
              "name": "tokensPerBuyer",
              "type": "uint256"
            },
            {
              "internalType": "enum Market.TokenType",
              "name": "tokenType",
              "type": "uint8"
            }
          ],
          "indexed": false,
          "internalType": "struct Market.Listing",
          "name": "listing",
          "type": "tuple"
        }
      ],
      "name": "NewListing",
      "type": "event"
    },
    {
      "anonymous": false,
      "inputs": [
        {
          "indexed": true,
          "internalType": "address",
          "name": "assetContract",
          "type": "address"
        },
        {
          "indexed": true,
          "internalType": "address",
          "name": "seller",
          "type": "address"
        },
        {
          "indexed": true,
          "internalType": "uint256",
          "name": "listingId",
          "type": "uint256"
        },
        {
          "indexed": false,
          "internalType": "address",
          "name": "buyer",
          "type": "address"
        },
        {
          "indexed": false,
          "internalType": "uint256",
          "name": "quantity",
          "type": "uint256"
        },
        {
          "components": [
            {
              "internalType": "uint256",
              "name": "listingId",
              "type": "uint256"
            },
            {
              "internalType": "address",
              "name": "seller",
              "type": "address"
            },
            {
              "internalType": "address",
              "name": "assetContract",
              "type": "address"
            },
            {
              "internalType": "uint256",
              "name": "tokenId",
              "type": "uint256"
            },
            {
              "internalType": "uint256",
              "name": "quantity",
              "type": "uint256"
            },
            {
              "internalType": "address",
              "name": "currency",
              "type": "address"
            },
            {
              "internalType": "uint256",
              "name": "pricePerToken",
              "type": "uint256"
            },
            {
              "internalType": "uint256",
              "name": "saleStart",
              "type": "uint256"
            },
            {
              "internalType": "uint256",
              "name": "saleEnd",
              "type": "uint256"
            },
            {
              "internalType": "uint256",
              "name": "tokensPerBuyer",
              "type": "uint256"
            },
            {
              "internalType": "enum Market.TokenType",
              "name": "tokenType",
              "type": "uint8"
            }
          ],
          "indexed": false,
          "internalType": "struct Market.Listing",
          "name": "listing",
          "type": "tuple"
        }
      ],
      "name": "NewSale",
      "type": "event"
    },
    {
      "inputs": [],
      "name": "_contractURI",
      "outputs": [
        {
          "internalType": "string",
          "name": "",
          "type": "string"
        }
      ],
      "stateMutability": "view",
      "type": "function"
    },
    {
      "inputs": [
        {
          "internalType": "uint256",
          "name": "_listingId",
          "type": "uint256"
        },
        {
          "internalType": "uint256",
          "name": "_quantity",
          "type": "uint256"
        }
      ],
      "name": "addToListing",
      "outputs": [],
      "stateMutability": "nonpayable",
      "type": "function"
    },
    {
      "inputs": [
        {
          "internalType": "uint256",
          "name": "",
          "type": "uint256"
        },
        {
          "internalType": "address",
          "name": "",
          "type": "address"
        }
      ],
      "name": "boughtFromListing",
      "outputs": [
        {
          "internalType": "uint256",
          "name": "",
          "type": "uint256"
        }
      ],
      "stateMutability": "view",
      "type": "function"
    },
    {
      "inputs": [
        {
          "internalType": "uint256",
          "name": "_listingId",
          "type": "uint256"
        },
        {
          "internalType": "uint256",
          "name": "_quantity",
          "type": "uint256"
        }
      ],
      "name": "buy",
      "outputs": [],
      "stateMutability": "nonpayable",
      "type": "function"
    },
    {
      "inputs": [],
      "name": "contractURI",
      "outputs": [
        {
          "internalType": "string",
          "name": "",
          "type": "string"
        }
      ],
      "stateMutability": "view",
      "type": "function"
    },
    {
      "inputs": [],
      "name": "getAllListings",
      "outputs": [
        {
          "components": [
            {
              "internalType": "uint256",
              "name": "listingId",
              "type": "uint256"
            },
            {
              "internalType": "address",
              "name": "seller",
              "type": "address"
            },
            {
              "internalType": "address",
              "name": "assetContract",
              "type": "address"
            },
            {
              "internalType": "uint256",
              "name": "tokenId",
              "type": "uint256"
            },
            {
              "internalType": "uint256",
              "name": "quantity",
              "type": "uint256"
            },
            {
              "internalType": "address",
              "name": "currency",
              "type": "address"
            },
            {
              "internalType": "uint256",
              "name": "pricePerToken",
              "type": "uint256"
            },
            {
              "internalType": "uint256",
              "name": "saleStart",
              "type": "uint256"
            },
            {
              "internalType": "uint256",
              "name": "saleEnd",
              "type": "uint256"
            },
            {
              "internalType": "uint256",
              "name": "tokensPerBuyer",
              "type": "uint256"
            },
            {
              "internalType": "enum Market.TokenType",
              "name": "tokenType",
              "type": "uint8"
            }
          ],
          "internalType": "struct Market.Listing[]",
          "name": "allListings",
          "type": "tuple[]"
        }
      ],
      "stateMutability": "view",
      "type": "function"
    },
    {
      "inputs": [
        {
          "internalType": "uint256",
          "name": "_listingId",
          "type": "uint256"
        }
      ],
      "name": "getListing",
      "outputs": [
        {
          "components": [
            {
              "internalType": "uint256",
              "name": "listingId",
              "type": "uint256"
            },
            {
              "internalType": "address",
              "name": "seller",
              "type": "address"
            },
            {
              "internalType": "address",
              "name": "assetContract",
              "type": "address"
            },
            {
              "internalType": "uint256",
              "name": "tokenId",
              "type": "uint256"
            },
            {
              "internalType": "uint256",
              "name": "quantity",
              "type": "uint256"
            },
            {
              "internalType": "address",
              "name": "currency",
              "type": "address"
            },
            {
              "internalType": "uint256",
              "name": "pricePerToken",
              "type": "uint256"
            },
            {
              "internalType": "uint256",
              "name": "saleStart",
              "type": "uint256"
            },
            {
              "internalType": "uint256",
              "name": "saleEnd",
              "type": "uint256"
            },
            {
              "internalType": "uint256",
              "name": "tokensPerBuyer",
              "type": "uint256"
            },
            {
              "internalType": "enum Market.TokenType",
              "name": "tokenType",
              "type": "uint8"
            }
          ],
          "internalType": "struct Market.Listing",
          "name": "listing",
          "type": "tuple"
        }
      ],
      "stateMutability": "view",
      "type": "function"
    },
    {
      "inputs": [
        {
          "internalType": "address",
          "name": "_assetContract",
          "type": "address"
        },
        {
          "internalType": "uint256",
          "name": "_tokenId",
          "type": "uint256"
        }
      ],
      "name": "getListingsByAsset",
      "outputs": [
        {
          "components": [
            {
              "internalType": "uint256",
              "name": "listingId",
              "type": "uint256"
            },
            {
              "internalType": "address",
              "name": "seller",
              "type": "address"
            },
            {
              "internalType": "address",
              "name": "assetContract",
              "type": "address"
            },
            {
              "internalType": "uint256",
              "name": "tokenId",
              "type": "uint256"
            },
            {
              "internalType": "uint256",
              "name": "quantity",
              "type": "uint256"
            },
            {
              "internalType": "address",
              "name": "currency",
              "type": "address"
            },
            {
              "internalType": "uint256",
              "name": "pricePerToken",
              "type": "uint256"
            },
            {
              "internalType": "uint256",
              "name": "saleStart",
              "type": "uint256"
            },
            {
              "internalType": "uint256",
              "name": "saleEnd",
              "type": "uint256"
            },
            {
              "internalType": "uint256",
              "name": "tokensPerBuyer",
              "type": "uint256"
            },
            {
              "internalType": "enum Market.TokenType",
              "name": "tokenType",
              "type": "uint8"
            }
          ],
          "internalType": "struct Market.Listing[]",
          "name": "tokenListings",
          "type": "tuple[]"
        }
      ],
      "stateMutability": "view",
      "type": "function"
    },
    {
      "inputs": [
        {
          "internalType": "address",
          "name": "_assetContract",
          "type": "address"
        }
      ],
      "name": "getListingsByAssetContract",
      "outputs": [
        {
          "components": [
            {
              "internalType": "uint256",
              "name": "listingId",
              "type": "uint256"
            },
            {
              "internalType": "address",
              "name": "seller",
              "type": "address"
            },
            {
              "internalType": "address",
              "name": "assetContract",
              "type": "address"
            },
            {
              "internalType": "uint256",
              "name": "tokenId",
              "type": "uint256"
            },
            {
              "internalType": "uint256",
              "name": "quantity",
              "type": "uint256"
            },
            {
              "internalType": "address",
              "name": "currency",
              "type": "address"
            },
            {
              "internalType": "uint256",
              "name": "pricePerToken",
              "type": "uint256"
            },
            {
              "internalType": "uint256",
              "name": "saleStart",
              "type": "uint256"
            },
            {
              "internalType": "uint256",
              "name": "saleEnd",
              "type": "uint256"
            },
            {
              "internalType": "uint256",
              "name": "tokensPerBuyer",
              "type": "uint256"
            },
            {
              "internalType": "enum Market.TokenType",
              "name": "tokenType",
              "type": "uint8"
            }
          ],
          "internalType": "struct Market.Listing[]",
          "name": "tokenListings",
          "type": "tuple[]"
        }
      ],
      "stateMutability": "view",
      "type": "function"
    },
    {
      "inputs": [
        {
          "internalType": "address",
          "name": "_seller",
          "type": "address"
        }
      ],
      "name": "getListingsBySeller",
      "outputs": [
        {
          "components": [
            {
              "internalType": "uint256",
              "name": "listingId",
              "type": "uint256"
            },
            {
              "internalType": "address",
              "name": "seller",
              "type": "address"
            },
            {
              "internalType": "address",
              "name": "assetContract",
              "type": "address"
            },
            {
              "internalType": "uint256",
              "name": "tokenId",
              "type": "uint256"
            },
            {
              "internalType": "uint256",
              "name": "quantity",
              "type": "uint256"
            },
            {
              "internalType": "address",
              "name": "currency",
              "type": "address"
            },
            {
              "internalType": "uint256",
              "name": "pricePerToken",
              "type": "uint256"
            },
            {
              "internalType": "uint256",
              "name": "saleStart",
              "type": "uint256"
            },
            {
              "internalType": "uint256",
              "name": "saleEnd",
              "type": "uint256"
            },
            {
              "internalType": "uint256",
              "name": "tokensPerBuyer",
              "type": "uint256"
            },
            {
              "internalType": "enum Market.TokenType",
              "name": "tokenType",
              "type": "uint8"
            }
          ],
          "internalType": "struct Market.Listing[]",
          "name": "sellerListings",
          "type": "tuple[]"
        }
      ],
      "stateMutability": "view",
      "type": "function"
    },
    {
      "inputs": [
        {
          "internalType": "address",
          "name": "forwarder",
          "type": "address"
        }
      ],
      "name": "isTrustedForwarder",
      "outputs": [
        {
          "internalType": "bool",
          "name": "",
          "type": "bool"
        }
      ],
      "stateMutability": "view",
      "type": "function"
    },
    {
      "inputs": [
        {
          "internalType": "address",
          "name": "_assetContract",
          "type": "address"
        },
        {
          "internalType": "uint256",
          "name": "_tokenId",
          "type": "uint256"
        },
        {
          "internalType": "address",
          "name": "_currency",
          "type": "address"
        },
        {
          "internalType": "uint256",
          "name": "_pricePerToken",
          "type": "uint256"
        },
        {
          "internalType": "uint256",
          "name": "_quantity",
          "type": "uint256"
        },
        {
          "internalType": "uint256",
          "name": "_tokensPerBuyer",
          "type": "uint256"
        },
        {
          "internalType": "uint256",
          "name": "_secondsUntilStart",
          "type": "uint256"
        },
        {
          "internalType": "uint256",
          "name": "_secondsUntilEnd",
          "type": "uint256"
        }
      ],
      "name": "list",
      "outputs": [],
      "stateMutability": "nonpayable",
      "type": "function"
    },
    {
      "inputs": [
        {
          "internalType": "uint256",
          "name": "",
          "type": "uint256"
        }
      ],
      "name": "listings",
      "outputs": [
        {
          "internalType": "uint256",
          "name": "listingId",
          "type": "uint256"
        },
        {
          "internalType": "address",
          "name": "seller",
          "type": "address"
        },
        {
          "internalType": "address",
          "name": "assetContract",
          "type": "address"
        },
        {
          "internalType": "uint256",
          "name": "tokenId",
          "type": "uint256"
        },
        {
          "internalType": "uint256",
          "name": "quantity",
          "type": "uint256"
        },
        {
          "internalType": "address",
          "name": "currency",
          "type": "address"
        },
        {
          "internalType": "uint256",
          "name": "pricePerToken",
          "type": "uint256"
        },
        {
          "internalType": "uint256",
          "name": "saleStart",
          "type": "uint256"
        },
        {
          "internalType": "uint256",
          "name": "saleEnd",
          "type": "uint256"
        },
        {
          "internalType": "uint256",
          "name": "tokensPerBuyer",
          "type": "uint256"
        },
        {
          "internalType": "enum Market.TokenType",
          "name": "tokenType",
          "type": "uint8"
        }
      ],
      "stateMutability": "view",
      "type": "function"
    },
    {
      "inputs": [],
      "name": "marketFeeBps",
      "outputs": [
        {
          "internalType": "uint128",
          "name": "",
          "type": "uint128"
        }
      ],
      "stateMutability": "view",
      "type": "function"
    },
    {
      "inputs": [
        {
          "internalType": "address",
          "name": "",
          "type": "address"
        },
        {
          "internalType": "address",
          "name": "",
          "type": "address"
        },
        {
          "internalType": "uint256[]",
          "name": "",
          "type": "uint256[]"
        },
        {
          "internalType": "uint256[]",
          "name": "",
          "type": "uint256[]"
        },
        {
          "internalType": "bytes",
          "name": "",
          "type": "bytes"
        }
      ],
      "name": "onERC1155BatchReceived",
      "outputs": [
        {
          "internalType": "bytes4",
          "name": "",
          "type": "bytes4"
        }
      ],
      "stateMutability": "nonpayable",
      "type": "function"
    },
    {
      "inputs": [
        {
          "internalType": "address",
          "name": "",
          "type": "address"
        },
        {
          "internalType": "address",
          "name": "",
          "type": "address"
        },
        {
          "internalType": "uint256",
          "name": "",
          "type": "uint256"
        },
        {
          "internalType": "uint256",
          "name": "",
          "type": "uint256"
        },
        {
          "internalType": "bytes",
          "name": "",
          "type": "bytes"
        }
      ],
      "name": "onERC1155Received",
      "outputs": [
        {
          "internalType": "bytes4",
          "name": "",
          "type": "bytes4"
        }
      ],
      "stateMutability": "nonpayable",
      "type": "function"
    },
    {
      "inputs": [
        {
          "internalType": "address",
          "name": "",
          "type": "address"
        },
        {
          "internalType": "address",
          "name": "",
          "type": "address"
        },
        {
          "internalType": "uint256",
          "name": "",
          "type": "uint256"
        },
        {
          "internalType": "bytes",
          "name": "",
          "type": "bytes"
        }
      ],
      "name": "onERC721Received",
      "outputs": [
        {
          "internalType": "bytes4",
          "name": "",
          "type": "bytes4"
        }
      ],
      "stateMutability": "pure",
      "type": "function"
    },
    {
      "inputs": [
        {
          "internalType": "string",
          "name": "_URI",
          "type": "string"
        }
      ],
      "name": "setContractURI",
      "outputs": [],
      "stateMutability": "nonpayable",
      "type": "function"
    },
    {
      "inputs": [
        {
          "internalType": "uint128",
          "name": "feeBps",
          "type": "uint128"
        }
      ],
      "name": "setMarketFeeBps",
      "outputs": [],
      "stateMutability": "nonpayable",
      "type": "function"
    },
    {
      "inputs": [
        {
          "internalType": "bytes4",
          "name": "interfaceId",
          "type": "bytes4"
        }
      ],
      "name": "supportsInterface",
      "outputs": [
        {
          "internalType": "bool",
          "name": "",
          "type": "bool"
        }
      ],
      "stateMutability": "view",
      "type": "function"
    },
    {
      "inputs": [],
      "name": "totalListings",
      "outputs": [
        {
          "internalType": "uint256",
          "name": "",
          "type": "uint256"
        }
      ],
      "stateMutability": "view",
      "type": "function"
    },
    {
      "inputs": [
        {
          "internalType": "uint256",
          "name": "_listingId",
          "type": "uint256"
        },
        {
          "internalType": "uint256",
          "name": "_quantity",
          "type": "uint256"
        }
      ],
      "name": "unlist",
      "outputs": [],
      "stateMutability": "nonpayable",
      "type": "function"
    },
    {
      "inputs": [
        {
          "internalType": "uint256",
          "name": "_listingId",
          "type": "uint256"
        },
        {
          "internalType": "uint256",
          "name": "_pricePerToken",
          "type": "uint256"
        },
        {
          "internalType": "address",
          "name": "_currency",
          "type": "address"
        },
        {
          "internalType": "uint256",
          "name": "_tokensPerBuyer",
          "type": "uint256"
        },
        {
          "internalType": "uint256",
          "name": "_secondsUntilStart",
          "type": "uint256"
        },
        {
          "internalType": "uint256",
          "name": "_secondsUntilEnd",
          "type": "uint256"
        }
      ],
      "name": "updateListingParams",
      "outputs": [],
      "stateMutability": "nonpayable",
      "type": "function"
    }
  ],
  "bytecode": "0x60806040523480156200001157600080fd5b506040516200472338038062004723833981016040819052620000349162000139565b6001600081905580546001600160a01b0319166001600160a01b03841617905580516200006990600490602084019062000093565b5050600280546001600160a01b0319166001600160a01b03939093169290921790915550620002a2565b828054620000a19062000236565b90600052602060002090601f016020900481019282620000c5576000855562000110565b82601f10620000e057805160ff191683800117855562000110565b8280016001018555821562000110579182015b8281111562000110578251825591602001919060010190620000f3565b506200011e92915062000122565b5090565b5b808211156200011e576000815560010162000123565b6000806000606084860312156200014e578283fd5b83516200015b8162000289565b80935050602080850151620001708162000289565b60408601519093506001600160401b03808211156200018d578384fd5b818701915087601f830112620001a1578384fd5b815181811115620001b657620001b662000273565b604051601f8201601f1916810185018381118282101715620001dc57620001dc62000273565b60405281815283820185018a1015620001f3578586fd5b8592505b81831015620002165783830185015181840186015291840191620001f7565b818311156200022757858583830101525b80955050505050509250925092565b6002810460018216806200024b57607f821691505b602082108114156200026d57634e487b7160e01b600052602260045260246000fd5b50919050565b634e487b7160e01b600052604160045260246000fd5b6001600160a01b03811681146200029f57600080fd5b50565b61447180620002b26000396000f3fe608060405234801561001057600080fd5b506004361061018d5760003560e01c8063583e12b6116100e3578063c78b616c1161008c578063de74e57b11610066578063de74e57b14610348578063e8a3d48514610372578063f23a6e611461037a5761018d565b8063c78b616c1461031a578063d6febde814610322578063d8cba251146103355761018d565b8063ae73ccec116100bd578063ae73ccec146102ea578063bc197c81146102f2578063c0e72740146103055761018d565b8063583e12b6146102b1578063938e3d7b146102c45780639b782ff2146102d75761018d565b806320c7852c116101455780634edeaa811161011f5780634edeaa81146102785780634fd69f3c1461028b578063572b6c051461029e5761018d565b806320c7852c1461023057806331851012146102505780633f5c3e87146102635761018d565b8063107a274a11610176578063107a274a146101d0578063150b7a02146101f05780631d0cd75e146102105761018d565b806301ffc9a71461019257806309679b39146101bb575b600080fd5b6101a56101a0366004613678565b61038d565b6040516101b291906139bc565b60405180910390f35b6101ce6101c93660046136e0565b6103c4565b005b6101e36101de366004613718565b610542565b6040516101b2919061428d565b6102036101fe3660046134a3565b61062f565b6040516101b291906139de565b61022361021e36600461357b565b610641565b6040516101b2919061396d565b61024361023e366004613730565b61089a565b6040516101b291906142b0565b6101ce61025e366004613780565b6108b7565b61026b610c3b565b6040516101b2919061429c565b6102236102863660046133ba565b610c4a565b6101ce61029936600461375f565b610e6a565b6101a56102ac3660046133ba565b61110b565b6101ce6102bf36600461375f565b61111f565b6101ce6102d23660046136a0565b611566565b6101ce6102e53660046135d3565b61168d565b6102236119ad565b6102036103003660046133f9565b611b43565b61030d611b54565b6040516101b291906139f3565b610243611be2565b6101ce61033036600461375f565b611be8565b6102236103433660046133ba565b61203b565b61035b610356366004613718565b612252565b6040516101b29b9a999897969594939291906142b9565b61030d6122bd565b610203610388366004613514565b612350565b60006001600160e01b03198216630271189760e51b14806103be57506001600160e01b03198216630a85bd0160e11b145b92915050565b60025460408051634a32c6bf60e11b815290516001600160a01b03909216916391d148549183916394658d7e91600480820192602092909190829003018186803b15801561041157600080fd5b505afa158015610425573d6000803e3d6000fd5b505050506040513d601f19601f820116820180604052508101906104499190613660565b610451612361565b6040518363ffffffff1660e01b815260040161046e9291906139c7565b60206040518083038186803b15801561048657600080fd5b505afa15801561049a573d6000803e3d6000fd5b505050506040513d601f19601f820116820180604052508101906104be9190613640565b6104e35760405162461bcd60e51b81526004016104da90613aa3565b60405180910390fd5b600580546fffffffffffffffffffffffffffffffff19166001600160801b0383161790556040517fd50e64e6eb05cd7ceafe1a28b1a7ad949edb90451106259c7117252d605178ef9061053790839061429c565b60405180910390a150565b61054a61315a565b600082815260066020818152604092839020835161016081018552815481526001808301546001600160a01b039081169483019490945260028301548416958201959095526003820154606082015260048201546080820152600582015490921660a08301529182015460c0820152600782015460e082015260088201546101008201526009820154610120820152600a820154909261014084019160ff169081111561060757634e487b7160e01b600052602160045260246000fd5b600181111561062657634e487b7160e01b600052602160045260246000fd5b90525092915050565b630a85bd0160e11b5b95945050505050565b6003546060906000805b828110156106b4576000818152600660205260409020600201546001600160a01b03878116911614801561068f575060008181526006602052604090206003015485145b156106a25761069f600183614362565b91505b6106ad600182614362565b905061064b565b508067ffffffffffffffff8111156106dc57634e487b7160e01b600052604160045260246000fd5b60405190808252806020026020018201604052801561071557816020015b61070261315a565b8152602001906001900390816106fa5790505b5092506000805b83811015610890576000818152600660205260409020600201546001600160a01b038881169116148015610760575060008181526006602052604090206003015486145b1561087e57600081815260066020818152604092839020835161016081018552815481526001808301546001600160a01b039081169483019490945260028301548416958201959095526003820154606082015260048201546080820152600582015490921660a08301529182015460c0820152600782015460e082015260088201546101008201526009820154610120820152600a820154909261014084019160ff169081111561082257634e487b7160e01b600052602160045260246000fd5b600181111561084157634e487b7160e01b600052602160045260246000fd5b8152505085838151811061086557634e487b7160e01b600052603260045260246000fd5b602090810291909101015261087b600183614362565b91505b610889600182614362565b905061071c565b5050505092915050565b600760209081526000928352604080842090915290825290205481565b600260009054906101000a90046001600160a01b03166001600160a01b0316639d2f83f06040518163ffffffff1660e01b815260040160206040518083038186803b15801561090557600080fd5b505afa158015610919573d6000803e3d6000fd5b505050506040513d601f19601f8201168201806040525081019061093d9190613640565b1561095a5760405162461bcd60e51b81526004016104da90613dd0565b610962612361565b60008781526006602052604090206001015487906001600160a01b038381169116146109a05760405162461bcd60e51b81526004016104da90613b5d565b6000888152600660208181526040808420815161016081018352815481526001808301546001600160a01b039081169583019590955260028301548516938201939093526003820154606082015260048201546080820152600582015490931660a08401529283015460c0830152600783015460e083015260088301546101008301526009830154610120830152600a83015491929161014084019160ff90911690811115610a5f57634e487b7160e01b600052602160045260246000fd5b6001811115610a7e57634e487b7160e01b600052602160045260246000fd5b8152505090508060800151861115610aa85760405162461bcd60e51b81526004016104da90614028565b60c081018890526001600160a01b03871660a08201528515610aca5785610ad0565b80608001515b610120820152610ae08542614362565b60e08201528315610afa57610af58442614362565b610afe565b6000195b610100820190815260008a8152600660208181526040928390208551815590850151600180830180546001600160a01b03199081166001600160a01b0394851617909155948701516002840180548716918416919091179055606087015160038401556080870151600484015560a087015160058401805490961692169190911790935560c08501519181019190915560e08401516007820155915160088301556101208301516009830155610140830151600a8301805485949360ff19909116908381811115610bdf57634e487b7160e01b600052602160045260246000fd5b021790555090505088610bf0612361565b6001600160a01b03167fb4c8fd604ad229ddf17ffe34f0851a2abf5113b048f8235b12edbabcc6dd919383604051610c28919061428d565b60405180910390a3505050505050505050565b6005546001600160801b031681565b6003546060906000805b82811015610ca1576000818152600660205260409020600201546001600160a01b0386811691161415610c8f57610c8c600183614362565b91505b610c9a600182614362565b9050610c54565b508067ffffffffffffffff811115610cc957634e487b7160e01b600052604160045260246000fd5b604051908082528060200260200182016040528015610d0257816020015b610cef61315a565b815260200190600190039081610ce75790505b5092506000805b83811015610e61576000818152600660205260409020600201546001600160a01b0387811691161415610e4f57600081815260066020818152604092839020835161016081018552815481526001808301546001600160a01b039081169483019490945260028301548416958201959095526003820154606082015260048201546080820152600582015490921660a08301529182015460c0820152600782015460e082015260088201546101008201526009820154610120820152600a820154909261014084019160ff1690811115610df357634e487b7160e01b600052602160045260246000fd5b6001811115610e1257634e487b7160e01b600052602160045260246000fd5b81525050858381518110610e3657634e487b7160e01b600052603260045260246000fd5b6020908102919091010152610e4c600183614362565b91505b610e5a600182614362565b9050610d09565b50505050919050565b610e72612361565b60008381526006602052604090206001015483906001600160a01b03838116911614610eb05760405162461bcd60e51b81526004016104da90613b5d565b6000848152600660208181526040808420815161016081018352815481526001808301546001600160a01b039081169583019590955260028301548516938201939093526003820154606082015260048201546080820152600582015490931660a08401529283015460c0830152600783015460e083015260088301546101008301526009830154610120830152600a83015491929161014084019160ff90911690811115610f6f57634e487b7160e01b600052602160045260246000fd5b6001811115610f8e57634e487b7160e01b600052602160045260246000fd5b8152505090508381608001511015610fb85760405162461bcd60e51b81526004016104da90613fcb565b8381608001818151610fca91906143b9565b9052506000858152600660208181526040928390208451815590840151600180830180546001600160a01b03199081166001600160a01b0394851617909155948601516002840180548716918416919091179055606086015160038401556080860151600484015560a086015160058401805490961692169190911790935560c08401519181019190915560e0830151600782015561010083015160088201556101208301516009820155610140830151600a82018054859460ff199091169083818111156110a957634e487b7160e01b600052602160045260246000fd5b02179055509050506110bb818561238f565b846110c4612361565b6001600160a01b03167fb4c8fd604ad229ddf17ffe34f0851a2abf5113b048f8235b12edbabcc6dd9193836040516110fc919061428d565b60405180910390a35050505050565b6001546001600160a01b0390811691161490565b600260009054906101000a90046001600160a01b03166001600160a01b0316639d2f83f06040518163ffffffff1660e01b815260040160206040518083038186803b15801561116d57600080fd5b505afa158015611181573d6000803e3d6000fd5b505050506040513d601f19601f820116820180604052508101906111a59190613640565b156111c25760405162461bcd60e51b81526004016104da90613dd0565b6111ca612361565b60008381526006602052604090206001015483906001600160a01b038381169116146112085760405162461bcd60e51b81526004016104da90613b5d565b6000848152600660208181526040808420815161016081018352815481526001808301546001600160a01b039081169583019590955260028301548516938201939093526003820154606082015260048201546080820152600582015490931660a08401529283015460c0830152600783015460e083015260088301546101008301526009830154610120830152600a83015491929161014084019160ff909116908111156112c757634e487b7160e01b600052602160045260246000fd5b60018111156112e657634e487b7160e01b600052602160045260246000fd5b81525050905083816080018181516112fe9190614362565b9052506000858152600660208181526040928390208451815590840151600180830180546001600160a01b03199081166001600160a01b0394851617909155948601516002840180548716918416919091179055606086015160038401556080860151600484015560a086015160058401805490961692169190911790935560c08401519181019190915560e0830151600782015561010083015160088201556101208301516009820155610140830151600a82018054859460ff199091169083818111156113dd57634e487b7160e01b600052602160045260246000fd5b02179055505050836114015760405162461bcd60e51b81526004016104da90613d8c565b6000816101400151600181111561142857634e487b7160e01b600052602160045260246000fd5b146114455760405162461bcd60e51b81526004016104da90613cd2565b80604001516001600160a01b031663e985e9c5611460612361565b306040518363ffffffff1660e01b815260040161147e929190613897565b60206040518083038186803b15801561149657600080fd5b505afa1580156114aa573d6000803e3d6000fd5b505050506040513d601f19601f820116820180604052508101906114ce9190613640565b6114ea5760405162461bcd60e51b81526004016104da90613e71565b80604001516001600160a01b031663f242432a611505612361565b308460600151886040518563ffffffff1660e01b815260040161152b9493929190613908565b600060405180830381600087803b15801561154557600080fd5b505af1158015611559573d6000803e3d6000fd5b50505050846110c4612361565b60025460408051634a32c6bf60e11b815290516001600160a01b03909216916391d148549183916394658d7e91600480820192602092909190829003018186803b1580156115b357600080fd5b505afa1580156115c7573d6000803e3d6000fd5b505050506040513d601f19601f820116820180604052508101906115eb9190613660565b6115f3612361565b6040518363ffffffff1660e01b81526004016116109291906139c7565b60206040518083038186803b15801561162857600080fd5b505afa15801561163c573d6000803e3d6000fd5b505050506040513d601f19601f820116820180604052508101906116609190613640565b61167c5760405162461bcd60e51b81526004016104da90613aa3565b611688600483836131ed565b505050565b600260009054906101000a90046001600160a01b03166001600160a01b0316639d2f83f06040518163ffffffff1660e01b815260040160206040518083038186803b1580156116db57600080fd5b505afa1580156116ef573d6000803e3d6000fd5b505050506040513d601f19601f820116820180604052508101906117139190613640565b156117305760405162461bcd60e51b81526004016104da90613dd0565b600084116117505760405162461bcd60e51b81526004016104da9061419c565b838311156117705760405162461bcd60e51b81526004016104da90614028565b600380549060019060006117848385614362565b90915550600090506117a08a611798612361565b308c8a6124f7565b905060006040518061016001604052808481526020016117be612361565b6001600160a01b031681526020018c6001600160a01b031681526020018b81526020018881526020018a6001600160a01b0316815260200189815260200186426118089190614362565b815260200185156118225761181d8642614362565b611826565b6000195b815260200187156118375787611839565b885b815260200183600181111561185e57634e487b7160e01b600052602160045260246000fd5b90526000848152600660208181526040928390208451815590840151600180830180546001600160a01b03199081166001600160a01b0394851617909155948601516002840180548716918416919091179055606086015160038401556080860151600484015560a086015160058401805490961692169190911790935560c08401519181019190915560e0830151600782015561010083015160088201556101208301516009820155610140830151600a82018054949550859492939192909160ff1990911690838181111561194557634e487b7160e01b600052602160045260246000fd5b021790555090505082611956612361565b6001600160a01b03168c6001600160a01b03167f70c5741a020504dbda58d308c3efe5275326c456d3b00c541925222c40f7c62e84604051611998919061428d565b60405180910390a45050505050505050505050565b6003546060908067ffffffffffffffff8111156119da57634e487b7160e01b600052604160045260246000fd5b604051908082528060200260200182016040528015611a1357816020015b611a0061315a565b8152602001906001900390816119f85790505b50915060005b81811015611b3e57600081815260066020818152604092839020835161016081018552815481526001808301546001600160a01b039081169483019490945260028301548416958201959095526003820154606082015260048201546080820152600582015490921660a08301529182015460c0820152600782015460e082015260088201546101008201526009820154610120820152600a820154909261014084019160ff1690811115611ade57634e487b7160e01b600052602160045260246000fd5b6001811115611afd57634e487b7160e01b600052602160045260246000fd5b81525050838281518110611b2157634e487b7160e01b600052603260045260246000fd5b6020908102919091010152611b37600182614362565b9050611a19565b505090565b63bc197c8160e01b95945050505050565b60048054611b61906143d0565b80601f0160208091040260200160405190810160405280929190818152602001828054611b8d906143d0565b8015611bda5780601f10611baf57610100808354040283529160200191611bda565b820191906000526020600020905b815481529060010190602001808311611bbd57829003601f168201915b505050505081565b60035481565b60026000541415611c0b5760405162461bcd60e51b81526004016104da90614256565b6002600081905554604080516309d2f83f60e41b815290516001600160a01b0390921691639d2f83f091600480820192602092909190829003018186803b158015611c5557600080fd5b505afa158015611c69573d6000803e3d6000fd5b505050506040513d601f19601f82011682018060405250810190611c8d9190613640565b15611caa5760405162461bcd60e51b81526004016104da90613dd0565b60008281526006602052604090206001015482906001600160a01b0316611ce35760405162461bcd60e51b81526004016104da90613ece565b6000838152600660208181526040808420815161016081018352815481526001808301546001600160a01b039081169583019590955260028301548516938201939093526003820154606082015260048201546080820152600582015490931660a08401529283015460c0830152600783015460e083015260088301546101008301526009830154610120830152600a83015491929161014084019160ff90911690811115611da257634e487b7160e01b600052602160045260246000fd5b6001811115611dc157634e487b7160e01b600052602160045260246000fd5b90525090506000611dd0612361565b9050600084118015611de6575081608001518411155b611e025760405162461bcd60e51b81526004016104da9061413f565b8161010001514211158015611e1b57508160e001514210155b611e375760405162461bcd60e51b81526004016104da90613f6e565b61012082015160008681526007602090815260408083206001600160a01b0386168452909152902054611e6a9086614362565b1115611e885760405162461bcd60e51b81526004016104da90613f11565b60008581526007602090815260408083206001600160a01b038516845290915281208054869290611eba908490614362565b925050819055508382608001818151611ed391906143b9565b9052506000858152600660208181526040928390208551815590850151600180830180546001600160a01b03199081166001600160a01b0394851617909155948701516002840180548716918416919091179055606087015160038401556080870151600484015560a087015160058401805490961692169190911790935560c08501519181019190915560e0840151600782015561010084015160088201556101208401516009820155610140840151600a82018054869460ff19909116908381811115611fb257634e487b7160e01b600052602160045260246000fd5b0217905550505060c082015115611fcd57611fcd82856128ae565b611fd7828561238f565b8482602001516001600160a01b031683604001516001600160a01b03167fc848190182320d1cb2ea6d8a80041c6780e56643bc41fe9060bb1f1349902cba84888760405161202793929190613940565b60405180910390a450506001600055505050565b6003546060906000805b82811015612092576000818152600660205260409020600101546001600160a01b03868116911614156120805761207d600183614362565b91505b61208b600182614362565b9050612045565b508067ffffffffffffffff8111156120ba57634e487b7160e01b600052604160045260246000fd5b6040519080825280602002602001820160405280156120f357816020015b6120e061315a565b8152602001906001900390816120d85790505b5092506000805b83811015610e61576000818152600660205260409020600101546001600160a01b038781169116141561224057600081815260066020818152604092839020835161016081018552815481526001808301546001600160a01b039081169483019490945260028301548416958201959095526003820154606082015260048201546080820152600582015490921660a08301529182015460c0820152600782015460e082015260088201546101008201526009820154610120820152600a820154909261014084019160ff16908111156121e457634e487b7160e01b600052602160045260246000fd5b600181111561220357634e487b7160e01b600052602160045260246000fd5b8152505085838151811061222757634e487b7160e01b600052603260045260246000fd5b602090810291909101015261223d600183614362565b91505b61224b600182614362565b90506120fa565b600660208190526000918252604090912080546001820154600283015460038401546004850154600586015496860154600787015460088801546009890154600a9099015497996001600160a01b039788169996881698959794969416949293919290919060ff168b565b6060600480546122cc906143d0565b80601f01602080910402602001604051908101604052809291908181526020018280546122f8906143d0565b80156123455780601f1061231a57610100808354040283529160200191612345565b820191906000526020600020905b81548152906001019060200180831161232857829003601f168201915b505050505090505b90565b63f23a6e6160e01b95945050505050565b600061236c3361110b565b15612380575060131936013560601c61234d565b612388613156565b905061234d565b600082610140015160018111156123b657634e487b7160e01b600052602160045260246000fd5b14156124345781604001516001600160a01b031663f242432a306123d8612361565b8560600151856040518563ffffffff1660e01b81526004016123fd9493929190613908565b600060405180830381600087803b15801561241757600080fd5b505af115801561242b573d6000803e3d6000fd5b505050506124f3565b6001826101400151600181111561245b57634e487b7160e01b600052602160045260246000fd5b14156124f357806001146124815760405162461bcd60e51b81526004016104da90614085565b81604001516001600160a01b031663b88d4fde3061249d612361565b85606001516040518463ffffffff1660e01b81526004016124c0939291906138d5565b600060405180830381600087803b1580156124da57600080fd5b505af11580156124ee573d6000803e3d6000fd5b505050505b5050565b6040516301ffc9a760e01b81526000906001600160a01b038716906301ffc9a79061252d90636cdb3d1360e11b906004016139de565b60206040518083038186803b15801561254557600080fd5b505afa158015612559573d6000803e3d6000fd5b505050506040513d601f19601f8201168201806040525081019061257d9190613640565b156126895760405163e985e9c560e01b81526001600160a01b0387169063e985e9c5906125b09088908890600401613897565b60206040518083038186803b1580156125c857600080fd5b505afa1580156125dc573d6000803e3d6000fd5b505050506040513d601f19601f820116820180604052508101906126009190613640565b61261c5760405162461bcd60e51b81526004016104da90613c17565b50604051637921219560e11b81526000906001600160a01b0387169063f242432a90612652908890889088908890600401613908565b600060405180830381600087803b15801561266c57600080fd5b505af1158015612680573d6000803e3d6000fd5b50505050610638565b6040516301ffc9a760e01b81526001600160a01b038716906301ffc9a7906126bc906380ac58cd60e01b906004016139de565b60206040518083038186803b1580156126d457600080fd5b505afa1580156126e8573d6000803e3d6000fd5b505050506040513d601f19601f8201168201806040525081019061270c9190613640565b1561289657816001146127315760405162461bcd60e51b81526004016104da90613bba565b60405163e985e9c560e01b81526001600160a01b0387169063e985e9c59061275f9088908890600401613897565b60206040518083038186803b15801561277757600080fd5b505afa15801561278b573d6000803e3d6000fd5b505050506040513d601f19601f820116820180604052508101906127af9190613640565b806128465750836001600160a01b0316866001600160a01b031663081812fc856040518263ffffffff1660e01b81526004016127eb91906142b0565b60206040518083038186803b15801561280357600080fd5b505afa158015612817573d6000803e3d6000fd5b505050506040513d601f19601f8201168201806040525081019061283b91906133dd565b6001600160a01b0316145b6128625760405162461bcd60e51b81526004016104da90613c17565b50604051635c46a7ef60e11b81526001906001600160a01b0387169063b88d4fde90612652908890889088906004016138d5565b60405162461bcd60e51b81526004016104da90613a46565b6000818360c001516128c0919061439a565b9050808360a001516001600160a01b031663dd62ed3e6128de612361565b306040518363ffffffff1660e01b81526004016128fc929190613897565b60206040518083038186803b15801561291457600080fd5b505afa158015612928573d6000803e3d6000fd5b505050506040513d601f19601f8201168201806040525081019061294c9190613660565b101561296a5760405162461bcd60e51b81526004016104da90613c75565b6002546040805163fd967f4760e01b815290516000926001600160a01b03169163fd967f47916004808301926020929190829003018186803b1580156129af57600080fd5b505afa1580156129c3573d6000803e3d6000fd5b505050506040513d601f19601f820116820180604052508101906129e791906136fc565b6005546001600160801b0391821691612a0191168461439a565b612a0b919061437a565b90506000600260009054906101000a90046001600160a01b03166001600160a01b03166399c04d3b6040518163ffffffff1660e01b815260040160206040518083038186803b158015612a5d57600080fd5b505afa158015612a71573d6000803e3d6000fd5b505050506040513d601f19601f82011682018060405250810190612a9591906136fc565b6001600160801b031690506000600260009054906101000a90046001600160a01b03166001600160a01b031663fd967f476040518163ffffffff1660e01b815260040160206040518083038186803b158015612af057600080fd5b505afa158015612b04573d6000803e3d6000fd5b505050506040513d601f19601f82011682018060405250810190612b2891906136fc565b6001600160801b0316612b3b838561439a565b612b45919061437a565b9050612b5181846143b9565b92508560a001516001600160a01b03166323b872dd612b6e612361565b600260009054906101000a90046001600160a01b03166001600160a01b0316630f603ed36040518163ffffffff1660e01b815260040160206040518083038186803b158015612bbc57600080fd5b505afa158015612bd0573d6000803e3d6000fd5b505050506040513d601f19601f82011682018060405250810190612bf491906133dd565b866040518463ffffffff1660e01b8152600401612c13939291906138b1565b602060405180830381600087803b158015612c2d57600080fd5b505af1158015612c41573d6000803e3d6000fd5b505050506040513d601f19601f82011682018060405250810190612c659190613640565b612c815760405162461bcd60e51b81526004016104da90613e14565b600081612c8e85876143b9565b612c9891906143b9565b905086604001516001600160a01b03166301ffc9a763152a902d60e11b6040518263ffffffff1660e01b8152600401612cd191906139de565b60206040518083038186803b158015612ce957600080fd5b505afa158015612cfd573d6000803e3d6000fd5b505050506040513d601f19601f82011682018060405250810190612d219190613640565b15612f725760008088604001516001600160a01b0316632a55205a8a60600151896040518363ffffffff1660e01b8152600401612d5f92919061432a565b604080518083038186803b158015612d7657600080fd5b505afa158015612d8a573d6000803e3d6000fd5b505050506040513d601f19601f82011682018060405250810190612dae91906135a6565b90925090506001600160a01b03821615801590612dcb5750600081115b15612f6f578684612ddc8884614362565b612de69190614362565b1115612e045760405162461bcd60e51b81526004016104da90613d2f565b6002546040805163fd967f4760e01b815290516000926001600160a01b03169163fd967f47916004808301926020929190829003018186803b158015612e4957600080fd5b505afa158015612e5d573d6000803e3d6000fd5b505050506040513d601f19601f82011682018060405250810190612e8191906136fc565b6001600160801b0316612e94878461439a565b612e9e919061437a565b9050612eaa82856143b9565b9350612eb68186614362565b9450612ec281836143b9565b91508960a001516001600160a01b03166323b872dd612edf612361565b85856040518463ffffffff1660e01b8152600401612eff939291906138b1565b602060405180830381600087803b158015612f1957600080fd5b505af1158015612f2d573d6000803e3d6000fd5b505050506040513d601f19601f82011682018060405250810190612f519190613640565b612f6d5760405162461bcd60e51b81526004016104da906140e2565b505b50505b8660a001516001600160a01b03166323b872dd612f8d612361565b600260009054906101000a90046001600160a01b03166001600160a01b03166398990a0e6040518163ffffffff1660e01b815260040160206040518083038186803b158015612fdb57600080fd5b505afa158015612fef573d6000803e3d6000fd5b505050506040513d601f19601f8201168201806040525081019061301391906133dd565b856040518463ffffffff1660e01b8152600401613032939291906138b1565b602060405180830381600087803b15801561304c57600080fd5b505af1158015613060573d6000803e3d6000fd5b505050506040513d601f19601f820116820180604052508101906130849190613640565b6130a05760405162461bcd60e51b81526004016104da906141f9565b8660a001516001600160a01b03166323b872dd6130bb612361565b8960200151846040518463ffffffff1660e01b81526004016130df939291906138b1565b602060405180830381600087803b1580156130f957600080fd5b505af115801561310d573d6000803e3d6000fd5b505050506040513d601f19601f820116820180604052508101906131319190613640565b61314d5760405162461bcd60e51b81526004016104da90613b00565b50505050505050565b3390565b6040518061016001604052806000815260200160006001600160a01b0316815260200160006001600160a01b03168152602001600081526020016000815260200160006001600160a01b0316815260200160008152602001600081526020016000815260200160008152602001600060018111156131e857634e487b7160e01b600052602160045260246000fd5b905290565b8280546131f9906143d0565b90600052602060002090601f01602090048101928261321b5760008555613261565b82601f106132345782800160ff19823516178555613261565b82800160010185558215613261579182015b82811115613261578235825591602001919060010190613246565b5061326d929150613271565b5090565b5b8082111561326d5760008155600101613272565b600082601f830112613296578081fd5b8135602067ffffffffffffffff8211156132b2576132b2614421565b8082026132c0828201614338565b8381528281019086840183880185018910156132da578687fd5b8693505b858410156132fc5780358352600193909301929184019184016132de565b50979650505050505050565b60008083601f840112613319578182fd5b50813567ffffffffffffffff811115613330578182fd5b60208301915083602082850101111561334857600080fd5b9250929050565b600082601f83011261335f578081fd5b813567ffffffffffffffff81111561337957613379614421565b61338c601f8201601f1916602001614338565b8181528460208386010111156133a0578283fd5b816020850160208301379081016020019190915292915050565b6000602082840312156133cb578081fd5b81356133d681614437565b9392505050565b6000602082840312156133ee578081fd5b81516133d681614437565b600080600080600060a08688031215613410578081fd5b853561341b81614437565b9450602086013561342b81614437565b9350604086013567ffffffffffffffff80821115613447578283fd5b61345389838a01613286565b94506060880135915080821115613468578283fd5b61347489838a01613286565b93506080880135915080821115613489578283fd5b506134968882890161334f565b9150509295509295909350565b6000806000806000608086880312156134ba578081fd5b85356134c581614437565b945060208601356134d581614437565b935060408601359250606086013567ffffffffffffffff8111156134f7578182fd5b61350388828901613308565b969995985093965092949392505050565b600080600080600060a0868803121561352b578081fd5b853561353681614437565b9450602086013561354681614437565b93506040860135925060608601359150608086013567ffffffffffffffff81111561356f578182fd5b6134968882890161334f565b6000806040838503121561358d578182fd5b823561359881614437565b946020939093013593505050565b600080604083850312156135b8578182fd5b82516135c381614437565b6020939093015192949293505050565b600080600080600080600080610100898b0312156135ef578283fd5b88356135fa81614437565b975060208901359650604089013561361181614437565b979a96995096976060810135975060808101359660a0820135965060c0820135955060e0909101359350915050565b600060208284031215613651578081fd5b815180151581146133d6578182fd5b600060208284031215613671578081fd5b5051919050565b600060208284031215613689578081fd5b81356001600160e01b0319811681146133d6578182fd5b600080602083850312156136b2578182fd5b823567ffffffffffffffff8111156136c8578283fd5b6136d485828601613308565b90969095509350505050565b6000602082840312156136f1578081fd5b81356133d68161444f565b60006020828403121561370d578081fd5b81516133d68161444f565b600060208284031215613729578081fd5b5035919050565b60008060408385031215613742578182fd5b82359150602083013561375481614437565b809150509250929050565b60008060408385031215613771578182fd5b50508035926020909101359150565b60008060008060008060c08789031215613798578384fd5b863595506020870135945060408701356137b181614437565b959894975094956060810135955060808101359460a0909101359350915050565b6001600160a01b03169052565b600281106137fd57634e487b7160e01b600052602160045260246000fd5b9052565b80518252602081015161381760208401826137d2565b50604081015161382a60408401826137d2565b50606081015160608301526080810151608083015260a081015161385160a08401826137d2565b5060c081015160c083015260e081015160e083015261010080820151818401525061012080820151818401525061014080820151613891828501826137df565b50505050565b6001600160a01b0392831681529116602082015260400190565b6001600160a01b039384168152919092166020820152604081019190915260600190565b6001600160a01b039384168152919092166020820152604081019190915260806060820181905260009082015260a00190565b6001600160a01b0394851681529290931660208301526040820152606081019190915260a06080820181905260009082015260c00190565b6001600160a01b0384168152602081018390526101a081016139656040830184613801565b949350505050565b6020808252825182820181905260009190848201906040850190845b818110156139b05761399c838551613801565b928401926101609290920191600101613989565b50909695505050505050565b901515815260200190565b9182526001600160a01b0316602082015260400190565b6001600160e01b031991909116815260200190565b6000602080835283518082850152825b81811015613a1f57858101830151858201604001528201613a03565b81811115613a305783604083870101525b50601f01601f1916929092016040019392505050565b60208082526038908201527f4d61726b65743a20746f6b656e206d75737420696d706c656d656e742065697460408201527f686572204552432031313535206f7220455243203732312e0000000000000000606082015260800190565b60208082526033908201527f5061636b3a206f6e6c7920612070726f746f636f6c2061646d696e2063616e2060408201527f63616c6c20746869732066756e6374696f6e2e00000000000000000000000000606082015260800190565b60208082526026908201527f4d61726b65743a206661696c656420746f207472616e736665722073656c6c6560408201527f72206375742e0000000000000000000000000000000000000000000000000000606082015260800190565b6020808252602f908201527f4d61726b65743a204f6e6c79207468652073656c6c65722063616e2063616c6c60408201527f20746869732066756e6374696f6e2e0000000000000000000000000000000000606082015260800190565b60208082526031908201527f4d61726b65743a2043616e6e6f74206c697374206d6f7265207468616e20312060408201527f6f6620616e20455243373231204e46542e000000000000000000000000000000606082015260800190565b602080825260409082018190527f4d61726b65743a206d75737420617070726f766520746865206d61726b657420908201527f746f207472616e7366657220746f6b656e73206265696e67206c69737465642e606082015260800190565b60208082526035908201527f4d61726b65743a206d75737420617070726f7665204d61726b657420746f207460408201527f72616e7366657220707269636520746f207061792e0000000000000000000000606082015260800190565b6020808252602a908201527f4d61726b65743a2043616e206f6e6c792061646420746f20455243203131353560408201527f206c697374696e67732e00000000000000000000000000000000000000000000606082015260800190565b6020808252602b908201527f4d61726b65743a20546f74616c206d61726b657420666565732065786365656460408201527f207468652070726963652e000000000000000000000000000000000000000000606082015260800190565b60208082526024908201527f4d61726b65743a206d75737420616464206174206c65617374206f6e6520746f60408201526335b2b71760e11b606082015260800190565b60208082526024908201527f4d61726b65743a20546865207061636b2070726f746f636f6c2069732070617560408201526339b2b21760e11b606082015260800190565b60208082526028908201527f4d61726b65743a206661696c656420746f207472616e736665722070726f746f60408201527f636f6c206375742e000000000000000000000000000000000000000000000000606082015260800190565b6020808252603f908201527f4d61726b65743a206d75737420617070726f766520746865206d61726b65742060408201527f746f207472616e7366657220746f6b656e73206265696e672061646465642e00606082015260800190565b60208082526023908201527f4d61726b65743a20546865206c697374696e6720646f6573206e6f742065786960408201526239ba1760e91b606082015260800190565b60208082526034908201527f4d61726b65743a2043616e6e6f7420627579206d6f72652066726f6d206c697360408201527f74696e67207468616e207065726d69747465642e000000000000000000000000606082015260800190565b60208082526032908201527f4d61726b65743a207468652073616c652068617320656974686572206e6f742060408201527f73746172746564206f7220636c6f7365642e0000000000000000000000000000606082015260800190565b60208082526032908201527f4d61726b65743a2063616e6e6f7420756e6c697374206d6f726520746f6b656e60408201527f73207468616e20617265206c69737465642e0000000000000000000000000000606082015260800190565b60208082526037908201527f4d61726b65743a2063616e6e6f74206c657420627579657220627579206d6f7260408201527f65207468616e206c6973746564207175616e746974792e000000000000000000606082015260800190565b60208082526036908201527f4d61726b65743a2043616e6e6f7420756e6c697374206d6f7265207468616e2060408201527f6f6e65206f6620616e2045524320373231204e46542e00000000000000000000606082015260800190565b60208082526027908201527f4d61726b65743a206661696c656420746f207472616e7366657220637265617460408201527f6f72206375742e00000000000000000000000000000000000000000000000000606082015260800190565b60208082526031908201527f4d61726b65743a206d7573742062757920616e20617070726f7072696174652060408201527f616d6f756e74206f6620746f6b656e732e000000000000000000000000000000606082015260800190565b60208082526025908201527f4d61726b65743a206d757374206c697374206174206c65617374206f6e65207460408201527f6f6b656e2e000000000000000000000000000000000000000000000000000000606082015260800190565b60208082526028908201527f4d61726b65743a206661696c656420746f207472616e736665722070726f766960408201527f646572206375742e000000000000000000000000000000000000000000000000606082015260800190565b6020808252601f908201527f5265656e7472616e637947756172643a207265656e7472616e742063616c6c00604082015260600190565b61016081016103be8284613801565b6001600160801b0391909116815260200190565b90815260200190565b6000610160820190508c82526001600160a01b03808d166020840152808c1660408401528a606084015289608084015280891660a0840152508660c08301528560e0830152846101008301528361012083015261431a6101408301846137df565b9c9b505050505050505050505050565b918252602082015260400190565b60405181810167ffffffffffffffff8111828210171561435a5761435a614421565b604052919050565b600082198211156143755761437561440b565b500190565b60008261439557634e487b7160e01b81526012600452602481fd5b500490565b60008160001904831182151516156143b4576143b461440b565b500290565b6000828210156143cb576143cb61440b565b500390565b6002810460018216806143e457607f821691505b6020821081141561440557634e487b7160e01b600052602260045260246000fd5b50919050565b634e487b7160e01b600052601160045260246000fd5b634e487b7160e01b600052604160045260246000fd5b6001600160a01b038116811461444c57600080fd5b50565b6001600160801b038116811461444c57600080fdfea164736f6c6343000800000a",
  "linkReferences": {},
  "deployedLinkReferences": {}
}