{
  "_format": "hh-sol-artifact-1",
  "contractName": "Market",
  "sourceName": "contracts/Market.sol",
  "abi": [
    {
      "inputs": [
        {
          "internalType": "address payable",
          "name": "_controlCenter",
          "type": "address"
        },
        {
          "internalType": "address",
          "name": "_trustedForwarder",
          "type": "address"
        },
        {
          "internalType": "string",
          "name": "_uri",
          "type": "string"
        }
      ],
      "stateMutability": "nonpayable",
      "type": "constructor"
    },
    {
      "anonymous": false,
      "inputs": [
        {
          "indexed": true,
          "internalType": "address",
          "name": "seller",
          "type": "address"
        },
        {
          "indexed": true,
          "internalType": "uint256",
          "name": "listingId",
          "type": "uint256"
        },
        {
          "components": [
            {
              "internalType": "uint256",
              "name": "listingId",
              "type": "uint256"
            },
            {
              "internalType": "address",
              "name": "seller",
              "type": "address"
            },
            {
              "internalType": "address",
              "name": "assetContract",
              "type": "address"
            },
            {
              "internalType": "uint256",
              "name": "tokenId",
              "type": "uint256"
            },
            {
              "internalType": "uint256",
              "name": "quantity",
              "type": "uint256"
            },
            {
              "internalType": "address",
              "name": "currency",
              "type": "address"
            },
            {
              "internalType": "uint256",
              "name": "pricePerToken",
              "type": "uint256"
            },
            {
              "internalType": "uint256",
              "name": "saleStart",
              "type": "uint256"
            },
            {
              "internalType": "uint256",
              "name": "saleEnd",
              "type": "uint256"
            },
            {
              "internalType": "uint256",
              "name": "tokensPerBuyer",
              "type": "uint256"
            },
            {
              "internalType": "enum Market.TokenType",
              "name": "tokenType",
              "type": "uint8"
            }
          ],
          "indexed": false,
          "internalType": "struct Market.Listing",
          "name": "listing",
          "type": "tuple"
        }
      ],
      "name": "ListingUpdate",
      "type": "event"
    },
    {
      "anonymous": false,
      "inputs": [
        {
          "indexed": false,
          "internalType": "uint128",
          "name": "newFee",
          "type": "uint128"
        }
      ],
      "name": "MarketFeeUpdate",
      "type": "event"
    },
    {
      "anonymous": false,
      "inputs": [
        {
          "indexed": true,
          "internalType": "address",
          "name": "assetContract",
          "type": "address"
        },
        {
          "indexed": true,
          "internalType": "address",
          "name": "seller",
          "type": "address"
        },
        {
          "indexed": true,
          "internalType": "uint256",
          "name": "listingId",
          "type": "uint256"
        },
        {
          "components": [
            {
              "internalType": "uint256",
              "name": "listingId",
              "type": "uint256"
            },
            {
              "internalType": "address",
              "name": "seller",
              "type": "address"
            },
            {
              "internalType": "address",
              "name": "assetContract",
              "type": "address"
            },
            {
              "internalType": "uint256",
              "name": "tokenId",
              "type": "uint256"
            },
            {
              "internalType": "uint256",
              "name": "quantity",
              "type": "uint256"
            },
            {
              "internalType": "address",
              "name": "currency",
              "type": "address"
            },
            {
              "internalType": "uint256",
              "name": "pricePerToken",
              "type": "uint256"
            },
            {
              "internalType": "uint256",
              "name": "saleStart",
              "type": "uint256"
            },
            {
              "internalType": "uint256",
              "name": "saleEnd",
              "type": "uint256"
            },
            {
              "internalType": "uint256",
              "name": "tokensPerBuyer",
              "type": "uint256"
            },
            {
              "internalType": "enum Market.TokenType",
              "name": "tokenType",
              "type": "uint8"
            }
          ],
          "indexed": false,
          "internalType": "struct Market.Listing",
          "name": "listing",
          "type": "tuple"
        }
      ],
      "name": "NewListing",
      "type": "event"
    },
    {
      "anonymous": false,
      "inputs": [
        {
          "indexed": true,
          "internalType": "address",
          "name": "assetContract",
          "type": "address"
        },
        {
          "indexed": true,
          "internalType": "address",
          "name": "seller",
          "type": "address"
        },
        {
          "indexed": true,
          "internalType": "uint256",
          "name": "listingId",
          "type": "uint256"
        },
        {
          "indexed": false,
          "internalType": "address",
          "name": "buyer",
          "type": "address"
        },
        {
          "indexed": false,
          "internalType": "uint256",
          "name": "quantity",
          "type": "uint256"
        },
        {
          "components": [
            {
              "internalType": "uint256",
              "name": "listingId",
              "type": "uint256"
            },
            {
              "internalType": "address",
              "name": "seller",
              "type": "address"
            },
            {
              "internalType": "address",
              "name": "assetContract",
              "type": "address"
            },
            {
              "internalType": "uint256",
              "name": "tokenId",
              "type": "uint256"
            },
            {
              "internalType": "uint256",
              "name": "quantity",
              "type": "uint256"
            },
            {
              "internalType": "address",
              "name": "currency",
              "type": "address"
            },
            {
              "internalType": "uint256",
              "name": "pricePerToken",
              "type": "uint256"
            },
            {
              "internalType": "uint256",
              "name": "saleStart",
              "type": "uint256"
            },
            {
              "internalType": "uint256",
              "name": "saleEnd",
              "type": "uint256"
            },
            {
              "internalType": "uint256",
              "name": "tokensPerBuyer",
              "type": "uint256"
            },
            {
              "internalType": "enum Market.TokenType",
              "name": "tokenType",
              "type": "uint8"
            }
          ],
          "indexed": false,
          "internalType": "struct Market.Listing",
          "name": "listing",
          "type": "tuple"
        }
      ],
      "name": "NewSale",
      "type": "event"
    },
    {
      "inputs": [],
      "name": "_contractURI",
      "outputs": [
        {
          "internalType": "string",
          "name": "",
          "type": "string"
        }
      ],
      "stateMutability": "view",
      "type": "function"
    },
    {
      "inputs": [
        {
          "internalType": "uint256",
          "name": "_listingId",
          "type": "uint256"
        },
        {
          "internalType": "uint256",
          "name": "_quantity",
          "type": "uint256"
        }
      ],
      "name": "addToListing",
      "outputs": [],
      "stateMutability": "nonpayable",
      "type": "function"
    },
    {
      "inputs": [
        {
          "internalType": "uint256",
          "name": "",
          "type": "uint256"
        },
        {
          "internalType": "address",
          "name": "",
          "type": "address"
        }
      ],
      "name": "boughtFromListing",
      "outputs": [
        {
          "internalType": "uint256",
          "name": "",
          "type": "uint256"
        }
      ],
      "stateMutability": "view",
      "type": "function"
    },
    {
      "inputs": [
        {
          "internalType": "uint256",
          "name": "_listingId",
          "type": "uint256"
        },
        {
          "internalType": "uint256",
          "name": "_quantity",
          "type": "uint256"
        }
      ],
      "name": "buy",
      "outputs": [],
      "stateMutability": "nonpayable",
      "type": "function"
    },
    {
      "inputs": [],
      "name": "contractURI",
      "outputs": [
        {
          "internalType": "string",
          "name": "",
          "type": "string"
        }
      ],
      "stateMutability": "view",
      "type": "function"
    },
    {
      "inputs": [],
      "name": "getAllListings",
      "outputs": [
        {
          "components": [
            {
              "internalType": "uint256",
              "name": "listingId",
              "type": "uint256"
            },
            {
              "internalType": "address",
              "name": "seller",
              "type": "address"
            },
            {
              "internalType": "address",
              "name": "assetContract",
              "type": "address"
            },
            {
              "internalType": "uint256",
              "name": "tokenId",
              "type": "uint256"
            },
            {
              "internalType": "uint256",
              "name": "quantity",
              "type": "uint256"
            },
            {
              "internalType": "address",
              "name": "currency",
              "type": "address"
            },
            {
              "internalType": "uint256",
              "name": "pricePerToken",
              "type": "uint256"
            },
            {
              "internalType": "uint256",
              "name": "saleStart",
              "type": "uint256"
            },
            {
              "internalType": "uint256",
              "name": "saleEnd",
              "type": "uint256"
            },
            {
              "internalType": "uint256",
              "name": "tokensPerBuyer",
              "type": "uint256"
            },
            {
              "internalType": "enum Market.TokenType",
              "name": "tokenType",
              "type": "uint8"
            }
          ],
          "internalType": "struct Market.Listing[]",
          "name": "allListings",
          "type": "tuple[]"
        }
      ],
      "stateMutability": "view",
      "type": "function"
    },
    {
      "inputs": [
        {
          "internalType": "uint256",
          "name": "_listingId",
          "type": "uint256"
        }
      ],
      "name": "getListing",
      "outputs": [
        {
          "components": [
            {
              "internalType": "uint256",
              "name": "listingId",
              "type": "uint256"
            },
            {
              "internalType": "address",
              "name": "seller",
              "type": "address"
            },
            {
              "internalType": "address",
              "name": "assetContract",
              "type": "address"
            },
            {
              "internalType": "uint256",
              "name": "tokenId",
              "type": "uint256"
            },
            {
              "internalType": "uint256",
              "name": "quantity",
              "type": "uint256"
            },
            {
              "internalType": "address",
              "name": "currency",
              "type": "address"
            },
            {
              "internalType": "uint256",
              "name": "pricePerToken",
              "type": "uint256"
            },
            {
              "internalType": "uint256",
              "name": "saleStart",
              "type": "uint256"
            },
            {
              "internalType": "uint256",
              "name": "saleEnd",
              "type": "uint256"
            },
            {
              "internalType": "uint256",
              "name": "tokensPerBuyer",
              "type": "uint256"
            },
            {
              "internalType": "enum Market.TokenType",
              "name": "tokenType",
              "type": "uint8"
            }
          ],
          "internalType": "struct Market.Listing",
          "name": "listing",
          "type": "tuple"
        }
      ],
      "stateMutability": "view",
      "type": "function"
    },
    {
      "inputs": [
        {
          "internalType": "address",
          "name": "_assetContract",
          "type": "address"
        },
        {
          "internalType": "uint256",
          "name": "_tokenId",
          "type": "uint256"
        }
      ],
      "name": "getListingsByAsset",
      "outputs": [
        {
          "components": [
            {
              "internalType": "uint256",
              "name": "listingId",
              "type": "uint256"
            },
            {
              "internalType": "address",
              "name": "seller",
              "type": "address"
            },
            {
              "internalType": "address",
              "name": "assetContract",
              "type": "address"
            },
            {
              "internalType": "uint256",
              "name": "tokenId",
              "type": "uint256"
            },
            {
              "internalType": "uint256",
              "name": "quantity",
              "type": "uint256"
            },
            {
              "internalType": "address",
              "name": "currency",
              "type": "address"
            },
            {
              "internalType": "uint256",
              "name": "pricePerToken",
              "type": "uint256"
            },
            {
              "internalType": "uint256",
              "name": "saleStart",
              "type": "uint256"
            },
            {
              "internalType": "uint256",
              "name": "saleEnd",
              "type": "uint256"
            },
            {
              "internalType": "uint256",
              "name": "tokensPerBuyer",
              "type": "uint256"
            },
            {
              "internalType": "enum Market.TokenType",
              "name": "tokenType",
              "type": "uint8"
            }
          ],
          "internalType": "struct Market.Listing[]",
          "name": "tokenListings",
          "type": "tuple[]"
        }
      ],
      "stateMutability": "view",
      "type": "function"
    },
    {
      "inputs": [
        {
          "internalType": "address",
          "name": "_assetContract",
          "type": "address"
        }
      ],
      "name": "getListingsByAssetContract",
      "outputs": [
        {
          "components": [
            {
              "internalType": "uint256",
              "name": "listingId",
              "type": "uint256"
            },
            {
              "internalType": "address",
              "name": "seller",
              "type": "address"
            },
            {
              "internalType": "address",
              "name": "assetContract",
              "type": "address"
            },
            {
              "internalType": "uint256",
              "name": "tokenId",
              "type": "uint256"
            },
            {
              "internalType": "uint256",
              "name": "quantity",
              "type": "uint256"
            },
            {
              "internalType": "address",
              "name": "currency",
              "type": "address"
            },
            {
              "internalType": "uint256",
              "name": "pricePerToken",
              "type": "uint256"
            },
            {
              "internalType": "uint256",
              "name": "saleStart",
              "type": "uint256"
            },
            {
              "internalType": "uint256",
              "name": "saleEnd",
              "type": "uint256"
            },
            {
              "internalType": "uint256",
              "name": "tokensPerBuyer",
              "type": "uint256"
            },
            {
              "internalType": "enum Market.TokenType",
              "name": "tokenType",
              "type": "uint8"
            }
          ],
          "internalType": "struct Market.Listing[]",
          "name": "tokenListings",
          "type": "tuple[]"
        }
      ],
      "stateMutability": "view",
      "type": "function"
    },
    {
      "inputs": [
        {
          "internalType": "address",
          "name": "_seller",
          "type": "address"
        }
      ],
      "name": "getListingsBySeller",
      "outputs": [
        {
          "components": [
            {
              "internalType": "uint256",
              "name": "listingId",
              "type": "uint256"
            },
            {
              "internalType": "address",
              "name": "seller",
              "type": "address"
            },
            {
              "internalType": "address",
              "name": "assetContract",
              "type": "address"
            },
            {
              "internalType": "uint256",
              "name": "tokenId",
              "type": "uint256"
            },
            {
              "internalType": "uint256",
              "name": "quantity",
              "type": "uint256"
            },
            {
              "internalType": "address",
              "name": "currency",
              "type": "address"
            },
            {
              "internalType": "uint256",
              "name": "pricePerToken",
              "type": "uint256"
            },
            {
              "internalType": "uint256",
              "name": "saleStart",
              "type": "uint256"
            },
            {
              "internalType": "uint256",
              "name": "saleEnd",
              "type": "uint256"
            },
            {
              "internalType": "uint256",
              "name": "tokensPerBuyer",
              "type": "uint256"
            },
            {
              "internalType": "enum Market.TokenType",
              "name": "tokenType",
              "type": "uint8"
            }
          ],
          "internalType": "struct Market.Listing[]",
          "name": "sellerListings",
          "type": "tuple[]"
        }
      ],
      "stateMutability": "view",
      "type": "function"
    },
    {
      "inputs": [
        {
          "internalType": "address",
          "name": "forwarder",
          "type": "address"
        }
      ],
      "name": "isTrustedForwarder",
      "outputs": [
        {
          "internalType": "bool",
          "name": "",
          "type": "bool"
        }
      ],
      "stateMutability": "view",
      "type": "function"
    },
    {
      "inputs": [
        {
          "internalType": "address",
          "name": "_assetContract",
          "type": "address"
        },
        {
          "internalType": "uint256",
          "name": "_tokenId",
          "type": "uint256"
        },
        {
          "internalType": "address",
          "name": "_currency",
          "type": "address"
        },
        {
          "internalType": "uint256",
          "name": "_pricePerToken",
          "type": "uint256"
        },
        {
          "internalType": "uint256",
          "name": "_quantity",
          "type": "uint256"
        },
        {
          "internalType": "uint256",
          "name": "_tokensPerBuyer",
          "type": "uint256"
        },
        {
          "internalType": "uint256",
          "name": "_secondsUntilStart",
          "type": "uint256"
        },
        {
          "internalType": "uint256",
          "name": "_secondsUntilEnd",
          "type": "uint256"
        }
      ],
      "name": "list",
      "outputs": [],
      "stateMutability": "nonpayable",
      "type": "function"
    },
    {
      "inputs": [
        {
          "internalType": "uint256",
          "name": "",
          "type": "uint256"
        }
      ],
      "name": "listings",
      "outputs": [
        {
          "internalType": "uint256",
          "name": "listingId",
          "type": "uint256"
        },
        {
          "internalType": "address",
          "name": "seller",
          "type": "address"
        },
        {
          "internalType": "address",
          "name": "assetContract",
          "type": "address"
        },
        {
          "internalType": "uint256",
          "name": "tokenId",
          "type": "uint256"
        },
        {
          "internalType": "uint256",
          "name": "quantity",
          "type": "uint256"
        },
        {
          "internalType": "address",
          "name": "currency",
          "type": "address"
        },
        {
          "internalType": "uint256",
          "name": "pricePerToken",
          "type": "uint256"
        },
        {
          "internalType": "uint256",
          "name": "saleStart",
          "type": "uint256"
        },
        {
          "internalType": "uint256",
          "name": "saleEnd",
          "type": "uint256"
        },
        {
          "internalType": "uint256",
          "name": "tokensPerBuyer",
          "type": "uint256"
        },
        {
          "internalType": "enum Market.TokenType",
          "name": "tokenType",
          "type": "uint8"
        }
      ],
      "stateMutability": "view",
      "type": "function"
    },
    {
      "inputs": [],
      "name": "marketFeeBps",
      "outputs": [
        {
          "internalType": "uint128",
          "name": "",
          "type": "uint128"
        }
      ],
      "stateMutability": "view",
      "type": "function"
    },
    {
      "inputs": [
        {
          "internalType": "address",
          "name": "",
          "type": "address"
        },
        {
          "internalType": "address",
          "name": "",
          "type": "address"
        },
        {
          "internalType": "uint256[]",
          "name": "",
          "type": "uint256[]"
        },
        {
          "internalType": "uint256[]",
          "name": "",
          "type": "uint256[]"
        },
        {
          "internalType": "bytes",
          "name": "",
          "type": "bytes"
        }
      ],
      "name": "onERC1155BatchReceived",
      "outputs": [
        {
          "internalType": "bytes4",
          "name": "",
          "type": "bytes4"
        }
      ],
      "stateMutability": "nonpayable",
      "type": "function"
    },
    {
      "inputs": [
        {
          "internalType": "address",
          "name": "",
          "type": "address"
        },
        {
          "internalType": "address",
          "name": "",
          "type": "address"
        },
        {
          "internalType": "uint256",
          "name": "",
          "type": "uint256"
        },
        {
          "internalType": "uint256",
          "name": "",
          "type": "uint256"
        },
        {
          "internalType": "bytes",
          "name": "",
          "type": "bytes"
        }
      ],
      "name": "onERC1155Received",
      "outputs": [
        {
          "internalType": "bytes4",
          "name": "",
          "type": "bytes4"
        }
      ],
      "stateMutability": "nonpayable",
      "type": "function"
    },
    {
      "inputs": [
        {
          "internalType": "address",
          "name": "",
          "type": "address"
        },
        {
          "internalType": "address",
          "name": "",
          "type": "address"
        },
        {
          "internalType": "uint256",
          "name": "",
          "type": "uint256"
        },
        {
          "internalType": "bytes",
          "name": "",
          "type": "bytes"
        }
      ],
      "name": "onERC721Received",
      "outputs": [
        {
          "internalType": "bytes4",
          "name": "",
          "type": "bytes4"
        }
      ],
      "stateMutability": "pure",
      "type": "function"
    },
    {
      "inputs": [
        {
          "internalType": "string",
          "name": "_URI",
          "type": "string"
        }
      ],
      "name": "setContractURI",
      "outputs": [],
      "stateMutability": "nonpayable",
      "type": "function"
    },
    {
      "inputs": [
        {
          "internalType": "uint128",
          "name": "feeBps",
          "type": "uint128"
        }
      ],
      "name": "setMarketFeeBps",
      "outputs": [],
      "stateMutability": "nonpayable",
      "type": "function"
    },
    {
      "inputs": [
        {
          "internalType": "bytes4",
          "name": "interfaceId",
          "type": "bytes4"
        }
      ],
      "name": "supportsInterface",
      "outputs": [
        {
          "internalType": "bool",
          "name": "",
          "type": "bool"
        }
      ],
      "stateMutability": "view",
      "type": "function"
    },
    {
      "inputs": [],
      "name": "totalListings",
      "outputs": [
        {
          "internalType": "uint256",
          "name": "",
          "type": "uint256"
        }
      ],
      "stateMutability": "view",
      "type": "function"
    },
    {
      "inputs": [
        {
          "internalType": "uint256",
          "name": "_listingId",
          "type": "uint256"
        },
        {
          "internalType": "uint256",
          "name": "_quantity",
          "type": "uint256"
        }
      ],
      "name": "unlist",
      "outputs": [],
      "stateMutability": "nonpayable",
      "type": "function"
    },
    {
      "inputs": [
        {
          "internalType": "uint256",
          "name": "_listingId",
          "type": "uint256"
        },
        {
          "internalType": "uint256",
          "name": "_pricePerToken",
          "type": "uint256"
        },
        {
          "internalType": "address",
          "name": "_currency",
          "type": "address"
        },
        {
          "internalType": "uint256",
          "name": "_tokensPerBuyer",
          "type": "uint256"
        },
        {
          "internalType": "uint256",
          "name": "_secondsUntilStart",
          "type": "uint256"
        },
        {
          "internalType": "uint256",
          "name": "_secondsUntilEnd",
          "type": "uint256"
        }
      ],
      "name": "updateListingParams",
      "outputs": [],
      "stateMutability": "nonpayable",
      "type": "function"
    }
  ],
  "bytecode": "0x60806040523480156200001157600080fd5b506040516200467f3803806200467f833981016040819052620000349162000139565b6001600081905580546001600160a01b0319166001600160a01b03841617905580516200006990600490602084019062000093565b5050600280546001600160a01b0319166001600160a01b03939093169290921790915550620002a2565b828054620000a19062000236565b90600052602060002090601f016020900481019282620000c5576000855562000110565b82601f10620000e057805160ff191683800117855562000110565b8280016001018555821562000110579182015b8281111562000110578251825591602001919060010190620000f3565b506200011e92915062000122565b5090565b5b808211156200011e576000815560010162000123565b6000806000606084860312156200014e578283fd5b83516200015b8162000289565b80935050602080850151620001708162000289565b60408601519093506001600160401b03808211156200018d578384fd5b818701915087601f830112620001a1578384fd5b815181811115620001b657620001b662000273565b604051601f8201601f1916810185018381118282101715620001dc57620001dc62000273565b60405281815283820185018a1015620001f3578586fd5b8592505b81831015620002165783830185015181840186015291840191620001f7565b818311156200022757858583830101525b80955050505050509250925092565b6002810460018216806200024b57607f821691505b602082108114156200026d57634e487b7160e01b600052602260045260246000fd5b50919050565b634e487b7160e01b600052604160045260246000fd5b6001600160a01b03811681146200029f57600080fd5b50565b6143cd80620002b26000396000f3fe608060405234801561001057600080fd5b506004361061017d5760003560e01c8063583e12b6116100e3578063c78b616c1161008c578063de74e57b11610066578063de74e57b14610338578063e8a3d48514610362578063f23a6e611461036a5761017d565b8063c78b616c1461030a578063d6febde814610312578063d8cba251146103255761017d565b8063ae73ccec116100bd578063ae73ccec146102da578063bc197c81146102e2578063c0e72740146102f55761017d565b8063583e12b6146102a1578063938e3d7b146102b45780639b782ff2146102c75761017d565b806320c7852c116101455780634edeaa811161011f5780634edeaa81146102685780634fd69f3c1461027b578063572b6c051461028e5761017d565b806320c7852c1461022057806331851012146102405780633f5c3e87146102535761017d565b806301ffc9a71461018257806309679b39146101ab578063107a274a146101c0578063150b7a02146101e05780631d0cd75e14610200575b600080fd5b610195610190366004613668565b61037d565b6040516101a291906139ac565b60405180910390f35b6101be6101b93660046136d0565b6103b4565b005b6101d36101ce366004613708565b610532565b6040516101a291906141e9565b6101f36101ee366004613493565b61061f565b6040516101a291906139ce565b61021361020e36600461356b565b610631565b6040516101a2919061395d565b61023361022e366004613720565b61088a565b6040516101a2919061420c565b6101be61024e366004613770565b6108a7565b61025b610c2b565b6040516101a291906141f8565b6102136102763660046133aa565b610c3a565b6101be61028936600461374f565b610e5a565b61019561029c3660046133aa565b6110fb565b6101be6102af36600461374f565b61110f565b6101be6102c2366004613690565b611556565b6101be6102d53660046135c3565b61167d565b61021361199d565b6101f36102f03660046133e9565b611b33565b6102fd611b44565b6040516101a291906139e3565b610233611bd2565b6101be61032036600461374f565b611bd8565b6102136103333660046133aa565b61202b565b61034b610346366004613708565b612242565b6040516101a29b9a99989796959493929190614215565b6102fd6122ad565b6101f3610378366004613504565b612340565b60006001600160e01b03198216630271189760e51b14806103ae57506001600160e01b03198216630a85bd0160e11b145b92915050565b60025460408051634a32c6bf60e11b815290516001600160a01b03909216916391d148549183916394658d7e91600480820192602092909190829003018186803b15801561040157600080fd5b505afa158015610415573d6000803e3d6000fd5b505050506040513d601f19601f820116820180604052508101906104399190613650565b610441612351565b6040518363ffffffff1660e01b815260040161045e9291906139b7565b60206040518083038186803b15801561047657600080fd5b505afa15801561048a573d6000803e3d6000fd5b505050506040513d601f19601f820116820180604052508101906104ae9190613630565b6104d35760405162461bcd60e51b81526004016104ca90613a93565b60405180910390fd5b600580546fffffffffffffffffffffffffffffffff19166001600160801b0383161790556040517fd50e64e6eb05cd7ceafe1a28b1a7ad949edb90451106259c7117252d605178ef906105279083906141f8565b60405180910390a150565b61053a61314a565b600082815260066020818152604092839020835161016081018552815481526001808301546001600160a01b039081169483019490945260028301548416958201959095526003820154606082015260048201546080820152600582015490921660a08301529182015460c0820152600782015460e082015260088201546101008201526009820154610120820152600a820154909261014084019160ff16908111156105f757634e487b7160e01b600052602160045260246000fd5b600181111561061657634e487b7160e01b600052602160045260246000fd5b90525092915050565b630a85bd0160e11b5b95945050505050565b6003546060906000805b828110156106a4576000818152600660205260409020600201546001600160a01b03878116911614801561067f575060008181526006602052604090206003015485145b156106925761068f6001836142be565b91505b61069d6001826142be565b905061063b565b508067ffffffffffffffff8111156106cc57634e487b7160e01b600052604160045260246000fd5b60405190808252806020026020018201604052801561070557816020015b6106f261314a565b8152602001906001900390816106ea5790505b5092506000805b83811015610880576000818152600660205260409020600201546001600160a01b038881169116148015610750575060008181526006602052604090206003015486145b1561086e57600081815260066020818152604092839020835161016081018552815481526001808301546001600160a01b039081169483019490945260028301548416958201959095526003820154606082015260048201546080820152600582015490921660a08301529182015460c0820152600782015460e082015260088201546101008201526009820154610120820152600a820154909261014084019160ff169081111561081257634e487b7160e01b600052602160045260246000fd5b600181111561083157634e487b7160e01b600052602160045260246000fd5b8152505085838151811061085557634e487b7160e01b600052603260045260246000fd5b602090810291909101015261086b6001836142be565b91505b6108796001826142be565b905061070c565b5050505092915050565b600760209081526000928352604080842090915290825290205481565b600260009054906101000a90046001600160a01b03166001600160a01b0316639d2f83f06040518163ffffffff1660e01b815260040160206040518083038186803b1580156108f557600080fd5b505afa158015610909573d6000803e3d6000fd5b505050506040513d601f19601f8201168201806040525081019061092d9190613630565b1561094a5760405162461bcd60e51b81526004016104ca90613d84565b610952612351565b60008781526006602052604090206001015487906001600160a01b038381169116146109905760405162461bcd60e51b81526004016104ca90613b36565b6000888152600660208181526040808420815161016081018352815481526001808301546001600160a01b039081169583019590955260028301548516938201939093526003820154606082015260048201546080820152600582015490931660a08401529283015460c0830152600783015460e083015260088301546101008301526009830154610120830152600a83015491929161014084019160ff90911690811115610a4f57634e487b7160e01b600052602160045260246000fd5b6001811115610a6e57634e487b7160e01b600052602160045260246000fd5b8152505090508060800151861115610a985760405162461bcd60e51b81526004016104ca90613fc7565b60c081018890526001600160a01b03871660a08201528515610aba5785610ac0565b80608001515b610120820152610ad085426142be565b60e08201528315610aea57610ae584426142be565b610aee565b6000195b610100820190815260008a8152600660208181526040928390208551815590850151600180830180546001600160a01b03199081166001600160a01b0394851617909155948701516002840180548716918416919091179055606087015160038401556080870151600484015560a087015160058401805490961692169190911790935560c08501519181019190915560e08401516007820155915160088301556101208301516009830155610140830151600a8301805485949360ff19909116908381811115610bcf57634e487b7160e01b600052602160045260246000fd5b021790555090505088610be0612351565b6001600160a01b03167fb4c8fd604ad229ddf17ffe34f0851a2abf5113b048f8235b12edbabcc6dd919383604051610c1891906141e9565b60405180910390a3505050505050505050565b6005546001600160801b031681565b6003546060906000805b82811015610c91576000818152600660205260409020600201546001600160a01b0386811691161415610c7f57610c7c6001836142be565b91505b610c8a6001826142be565b9050610c44565b508067ffffffffffffffff811115610cb957634e487b7160e01b600052604160045260246000fd5b604051908082528060200260200182016040528015610cf257816020015b610cdf61314a565b815260200190600190039081610cd75790505b5092506000805b83811015610e51576000818152600660205260409020600201546001600160a01b0387811691161415610e3f57600081815260066020818152604092839020835161016081018552815481526001808301546001600160a01b039081169483019490945260028301548416958201959095526003820154606082015260048201546080820152600582015490921660a08301529182015460c0820152600782015460e082015260088201546101008201526009820154610120820152600a820154909261014084019160ff1690811115610de357634e487b7160e01b600052602160045260246000fd5b6001811115610e0257634e487b7160e01b600052602160045260246000fd5b81525050858381518110610e2657634e487b7160e01b600052603260045260246000fd5b6020908102919091010152610e3c6001836142be565b91505b610e4a6001826142be565b9050610cf9565b50505050919050565b610e62612351565b60008381526006602052604090206001015483906001600160a01b03838116911614610ea05760405162461bcd60e51b81526004016104ca90613b36565b6000848152600660208181526040808420815161016081018352815481526001808301546001600160a01b039081169583019590955260028301548516938201939093526003820154606082015260048201546080820152600582015490931660a08401529283015460c0830152600783015460e083015260088301546101008301526009830154610120830152600a83015491929161014084019160ff90911690811115610f5f57634e487b7160e01b600052602160045260246000fd5b6001811115610f7e57634e487b7160e01b600052602160045260246000fd5b8152505090508381608001511015610fa85760405162461bcd60e51b81526004016104ca90613f6a565b8381608001818151610fba9190614315565b9052506000858152600660208181526040928390208451815590840151600180830180546001600160a01b03199081166001600160a01b0394851617909155948601516002840180548716918416919091179055606086015160038401556080860151600484015560a086015160058401805490961692169190911790935560c08401519181019190915560e0830151600782015561010083015160088201556101208301516009820155610140830151600a82018054859460ff1990911690838181111561109957634e487b7160e01b600052602160045260246000fd5b02179055509050506110ab818561237f565b846110b4612351565b6001600160a01b03167fb4c8fd604ad229ddf17ffe34f0851a2abf5113b048f8235b12edbabcc6dd9193836040516110ec91906141e9565b60405180910390a35050505050565b6001546001600160a01b0390811691161490565b600260009054906101000a90046001600160a01b03166001600160a01b0316639d2f83f06040518163ffffffff1660e01b815260040160206040518083038186803b15801561115d57600080fd5b505afa158015611171573d6000803e3d6000fd5b505050506040513d601f19601f820116820180604052508101906111959190613630565b156111b25760405162461bcd60e51b81526004016104ca90613d84565b6111ba612351565b60008381526006602052604090206001015483906001600160a01b038381169116146111f85760405162461bcd60e51b81526004016104ca90613b36565b6000848152600660208181526040808420815161016081018352815481526001808301546001600160a01b039081169583019590955260028301548516938201939093526003820154606082015260048201546080820152600582015490931660a08401529283015460c0830152600783015460e083015260088301546101008301526009830154610120830152600a83015491929161014084019160ff909116908111156112b757634e487b7160e01b600052602160045260246000fd5b60018111156112d657634e487b7160e01b600052602160045260246000fd5b81525050905083816080018181516112ee91906142be565b9052506000858152600660208181526040928390208451815590840151600180830180546001600160a01b03199081166001600160a01b0394851617909155948601516002840180548716918416919091179055606086015160038401556080860151600484015560a086015160058401805490961692169190911790935560c08401519181019190915560e0830151600782015561010083015160088201556101208301516009820155610140830151600a82018054859460ff199091169083818111156113cd57634e487b7160e01b600052602160045260246000fd5b02179055505050836113f15760405162461bcd60e51b81526004016104ca90613d40565b6000816101400151600181111561141857634e487b7160e01b600052602160045260246000fd5b146114355760405162461bcd60e51b81526004016104ca90613cab565b80604001516001600160a01b031663e985e9c5611450612351565b306040518363ffffffff1660e01b815260040161146e929190613887565b60206040518083038186803b15801561148657600080fd5b505afa15801561149a573d6000803e3d6000fd5b505050506040513d601f19601f820116820180604052508101906114be9190613630565b6114da5760405162461bcd60e51b81526004016104ca90613e10565b80604001516001600160a01b031663f242432a6114f5612351565b308460600151886040518563ffffffff1660e01b815260040161151b94939291906138f8565b600060405180830381600087803b15801561153557600080fd5b505af1158015611549573d6000803e3d6000fd5b50505050846110b4612351565b60025460408051634a32c6bf60e11b815290516001600160a01b03909216916391d148549183916394658d7e91600480820192602092909190829003018186803b1580156115a357600080fd5b505afa1580156115b7573d6000803e3d6000fd5b505050506040513d601f19601f820116820180604052508101906115db9190613650565b6115e3612351565b6040518363ffffffff1660e01b81526004016116009291906139b7565b60206040518083038186803b15801561161857600080fd5b505afa15801561162c573d6000803e3d6000fd5b505050506040513d601f19601f820116820180604052508101906116509190613630565b61166c5760405162461bcd60e51b81526004016104ca90613a93565b611678600483836131dd565b505050565b600260009054906101000a90046001600160a01b03166001600160a01b0316639d2f83f06040518163ffffffff1660e01b815260040160206040518083038186803b1580156116cb57600080fd5b505afa1580156116df573d6000803e3d6000fd5b505050506040513d601f19601f820116820180604052508101906117039190613630565b156117205760405162461bcd60e51b81526004016104ca90613d84565b600084116117405760405162461bcd60e51b81526004016104ca90614125565b838311156117605760405162461bcd60e51b81526004016104ca90613fc7565b6003805490600190600061177483856142be565b90915550600090506117908a611788612351565b308c8a6124e7565b905060006040518061016001604052808481526020016117ae612351565b6001600160a01b031681526020018c6001600160a01b031681526020018b81526020018881526020018a6001600160a01b0316815260200189815260200186426117f891906142be565b815260200185156118125761180d86426142be565b611816565b6000195b815260200187156118275787611829565b885b815260200183600181111561184e57634e487b7160e01b600052602160045260246000fd5b90526000848152600660208181526040928390208451815590840151600180830180546001600160a01b03199081166001600160a01b0394851617909155948601516002840180548716918416919091179055606086015160038401556080860151600484015560a086015160058401805490961692169190911790935560c08401519181019190915560e0830151600782015561010083015160088201556101208301516009820155610140830151600a82018054949550859492939192909160ff1990911690838181111561193557634e487b7160e01b600052602160045260246000fd5b021790555090505082611946612351565b6001600160a01b03168c6001600160a01b03167f70c5741a020504dbda58d308c3efe5275326c456d3b00c541925222c40f7c62e8460405161198891906141e9565b60405180910390a45050505050505050505050565b6003546060908067ffffffffffffffff8111156119ca57634e487b7160e01b600052604160045260246000fd5b604051908082528060200260200182016040528015611a0357816020015b6119f061314a565b8152602001906001900390816119e85790505b50915060005b81811015611b2e57600081815260066020818152604092839020835161016081018552815481526001808301546001600160a01b039081169483019490945260028301548416958201959095526003820154606082015260048201546080820152600582015490921660a08301529182015460c0820152600782015460e082015260088201546101008201526009820154610120820152600a820154909261014084019160ff1690811115611ace57634e487b7160e01b600052602160045260246000fd5b6001811115611aed57634e487b7160e01b600052602160045260246000fd5b81525050838281518110611b1157634e487b7160e01b600052603260045260246000fd5b6020908102919091010152611b276001826142be565b9050611a09565b505090565b63bc197c8160e01b95945050505050565b60048054611b519061432c565b80601f0160208091040260200160405190810160405280929190818152602001828054611b7d9061432c565b8015611bca5780601f10611b9f57610100808354040283529160200191611bca565b820191906000526020600020905b815481529060010190602001808311611bad57829003601f168201915b505050505081565b60035481565b60026000541415611bfb5760405162461bcd60e51b81526004016104ca906141b2565b6002600081905554604080516309d2f83f60e41b815290516001600160a01b0390921691639d2f83f091600480820192602092909190829003018186803b158015611c4557600080fd5b505afa158015611c59573d6000803e3d6000fd5b505050506040513d601f19601f82011682018060405250810190611c7d9190613630565b15611c9a5760405162461bcd60e51b81526004016104ca90613d84565b60008281526006602052604090206001015482906001600160a01b0316611cd35760405162461bcd60e51b81526004016104ca90613e6d565b6000838152600660208181526040808420815161016081018352815481526001808301546001600160a01b039081169583019590955260028301548516938201939093526003820154606082015260048201546080820152600582015490931660a08401529283015460c0830152600783015460e083015260088301546101008301526009830154610120830152600a83015491929161014084019160ff90911690811115611d9257634e487b7160e01b600052602160045260246000fd5b6001811115611db157634e487b7160e01b600052602160045260246000fd5b90525090506000611dc0612351565b9050600084118015611dd6575081608001518411155b611df25760405162461bcd60e51b81526004016104ca906140c8565b8161010001514211158015611e0b57508160e001514210155b611e275760405162461bcd60e51b81526004016104ca90613f0d565b61012082015160008681526007602090815260408083206001600160a01b0386168452909152902054611e5a90866142be565b1115611e785760405162461bcd60e51b81526004016104ca90613eb0565b60008581526007602090815260408083206001600160a01b038516845290915281208054869290611eaa9084906142be565b925050819055508382608001818151611ec39190614315565b9052506000858152600660208181526040928390208551815590850151600180830180546001600160a01b03199081166001600160a01b0394851617909155948701516002840180548716918416919091179055606087015160038401556080870151600484015560a087015160058401805490961692169190911790935560c08501519181019190915560e0840151600782015561010084015160088201556101208401516009820155610140840151600a82018054869460ff19909116908381811115611fa257634e487b7160e01b600052602160045260246000fd5b0217905550505060c082015115611fbd57611fbd828561289e565b611fc7828561237f565b8482602001516001600160a01b031683604001516001600160a01b03167fc848190182320d1cb2ea6d8a80041c6780e56643bc41fe9060bb1f1349902cba84888760405161201793929190613930565b60405180910390a450506001600055505050565b6003546060906000805b82811015612082576000818152600660205260409020600101546001600160a01b03868116911614156120705761206d6001836142be565b91505b61207b6001826142be565b9050612035565b508067ffffffffffffffff8111156120aa57634e487b7160e01b600052604160045260246000fd5b6040519080825280602002602001820160405280156120e357816020015b6120d061314a565b8152602001906001900390816120c85790505b5092506000805b83811015610e51576000818152600660205260409020600101546001600160a01b038781169116141561223057600081815260066020818152604092839020835161016081018552815481526001808301546001600160a01b039081169483019490945260028301548416958201959095526003820154606082015260048201546080820152600582015490921660a08301529182015460c0820152600782015460e082015260088201546101008201526009820154610120820152600a820154909261014084019160ff16908111156121d457634e487b7160e01b600052602160045260246000fd5b60018111156121f357634e487b7160e01b600052602160045260246000fd5b8152505085838151811061221757634e487b7160e01b600052603260045260246000fd5b602090810291909101015261222d6001836142be565b91505b61223b6001826142be565b90506120ea565b600660208190526000918252604090912080546001820154600283015460038401546004850154600586015496860154600787015460088801546009890154600a9099015497996001600160a01b039788169996881698959794969416949293919290919060ff168b565b6060600480546122bc9061432c565b80601f01602080910402602001604051908101604052809291908181526020018280546122e89061432c565b80156123355780601f1061230a57610100808354040283529160200191612335565b820191906000526020600020905b81548152906001019060200180831161231857829003601f168201915b505050505090505b90565b63f23a6e6160e01b95945050505050565b600061235c336110fb565b15612370575060131936013560601c61233d565b612378613146565b905061233d565b600082610140015160018111156123a657634e487b7160e01b600052602160045260246000fd5b14156124245781604001516001600160a01b031663f242432a306123c8612351565b8560600151856040518563ffffffff1660e01b81526004016123ed94939291906138f8565b600060405180830381600087803b15801561240757600080fd5b505af115801561241b573d6000803e3d6000fd5b505050506124e3565b6001826101400151600181111561244b57634e487b7160e01b600052602160045260246000fd5b14156124e357806001146124715760405162461bcd60e51b81526004016104ca90614024565b81604001516001600160a01b031663b88d4fde3061248d612351565b85606001516040518463ffffffff1660e01b81526004016124b0939291906138c5565b600060405180830381600087803b1580156124ca57600080fd5b505af11580156124de573d6000803e3d6000fd5b505050505b5050565b6040516301ffc9a760e01b81526000906001600160a01b038716906301ffc9a79061251d90636cdb3d1360e11b906004016139ce565b60206040518083038186803b15801561253557600080fd5b505afa158015612549573d6000803e3d6000fd5b505050506040513d601f19601f8201168201806040525081019061256d9190613630565b156126795760405163e985e9c560e01b81526001600160a01b0387169063e985e9c5906125a09088908890600401613887565b60206040518083038186803b1580156125b857600080fd5b505afa1580156125cc573d6000803e3d6000fd5b505050506040513d601f19601f820116820180604052508101906125f09190613630565b61260c5760405162461bcd60e51b81526004016104ca90613bf0565b50604051637921219560e11b81526000906001600160a01b0387169063f242432a906126429088908890889088906004016138f8565b600060405180830381600087803b15801561265c57600080fd5b505af1158015612670573d6000803e3d6000fd5b50505050610628565b6040516301ffc9a760e01b81526001600160a01b038716906301ffc9a7906126ac906380ac58cd60e01b906004016139ce565b60206040518083038186803b1580156126c457600080fd5b505afa1580156126d8573d6000803e3d6000fd5b505050506040513d601f19601f820116820180604052508101906126fc9190613630565b1561288657816001146127215760405162461bcd60e51b81526004016104ca90613b93565b60405163e985e9c560e01b81526001600160a01b0387169063e985e9c59061274f9088908890600401613887565b60206040518083038186803b15801561276757600080fd5b505afa15801561277b573d6000803e3d6000fd5b505050506040513d601f19601f8201168201806040525081019061279f9190613630565b806128365750836001600160a01b0316866001600160a01b031663081812fc856040518263ffffffff1660e01b81526004016127db919061420c565b60206040518083038186803b1580156127f357600080fd5b505afa158015612807573d6000803e3d6000fd5b505050506040513d601f19601f8201168201806040525081019061282b91906133cd565b6001600160a01b0316145b6128525760405162461bcd60e51b81526004016104ca90613bf0565b50604051635c46a7ef60e11b81526001906001600160a01b0387169063b88d4fde90612642908890889088906004016138c5565b60405162461bcd60e51b81526004016104ca90613a36565b6000818360c001516128b091906142f6565b9050808360a001516001600160a01b031663dd62ed3e6128ce612351565b306040518363ffffffff1660e01b81526004016128ec929190613887565b60206040518083038186803b15801561290457600080fd5b505afa158015612918573d6000803e3d6000fd5b505050506040513d601f19601f8201168201806040525081019061293c9190613650565b101561295a5760405162461bcd60e51b81526004016104ca90613c4e565b6002546040805163fd967f4760e01b815290516000926001600160a01b03169163fd967f47916004808301926020929190829003018186803b15801561299f57600080fd5b505afa1580156129b3573d6000803e3d6000fd5b505050506040513d601f19601f820116820180604052508101906129d791906136ec565b6005546001600160801b03918216916129f19116846142f6565b6129fb91906142d6565b90506000600260009054906101000a90046001600160a01b03166001600160a01b03166399c04d3b6040518163ffffffff1660e01b815260040160206040518083038186803b158015612a4d57600080fd5b505afa158015612a61573d6000803e3d6000fd5b505050506040513d601f19601f82011682018060405250810190612a8591906136ec565b6001600160801b031690506000600260009054906101000a90046001600160a01b03166001600160a01b031663fd967f476040518163ffffffff1660e01b815260040160206040518083038186803b158015612ae057600080fd5b505afa158015612af4573d6000803e3d6000fd5b505050506040513d601f19601f82011682018060405250810190612b1891906136ec565b6001600160801b0316612b2b83856142f6565b612b3591906142d6565b9050612b418184614315565b92508560a001516001600160a01b03166323b872dd612b5e612351565b600260009054906101000a90046001600160a01b03166001600160a01b0316630f603ed36040518163ffffffff1660e01b815260040160206040518083038186803b158015612bac57600080fd5b505afa158015612bc0573d6000803e3d6000fd5b505050506040513d601f19601f82011682018060405250810190612be491906133cd565b866040518463ffffffff1660e01b8152600401612c03939291906138a1565b602060405180830381600087803b158015612c1d57600080fd5b505af1158015612c31573d6000803e3d6000fd5b505050506040513d601f19601f82011682018060405250810190612c559190613630565b612c715760405162461bcd60e51b81526004016104ca90613dc8565b600081612c7e8587614315565b612c889190614315565b905086604001516001600160a01b03166301ffc9a763152a902d60e11b6040518263ffffffff1660e01b8152600401612cc191906139ce565b60206040518083038186803b158015612cd957600080fd5b505afa158015612ced573d6000803e3d6000fd5b505050506040513d601f19601f82011682018060405250810190612d119190613630565b15612f625760008088604001516001600160a01b0316632a55205a8a60600151896040518363ffffffff1660e01b8152600401612d4f929190614286565b604080518083038186803b158015612d6657600080fd5b505afa158015612d7a573d6000803e3d6000fd5b505050506040513d601f19601f82011682018060405250810190612d9e9190613596565b90925090506001600160a01b03821615801590612dbb5750600081115b15612f5f578684612dcc88846142be565b612dd691906142be565b1115612df45760405162461bcd60e51b81526004016104ca90613cf5565b6002546040805163fd967f4760e01b815290516000926001600160a01b03169163fd967f47916004808301926020929190829003018186803b158015612e3957600080fd5b505afa158015612e4d573d6000803e3d6000fd5b505050506040513d601f19601f82011682018060405250810190612e7191906136ec565b6001600160801b0316612e8487846142f6565b612e8e91906142d6565b9050612e9a8285614315565b9350612ea681866142be565b9450612eb28183614315565b91508960a001516001600160a01b03166323b872dd612ecf612351565b85856040518463ffffffff1660e01b8152600401612eef939291906138a1565b602060405180830381600087803b158015612f0957600080fd5b505af1158015612f1d573d6000803e3d6000fd5b505050506040513d601f19601f82011682018060405250810190612f419190613630565b612f5d5760405162461bcd60e51b81526004016104ca90614081565b505b50505b8660a001516001600160a01b03166323b872dd612f7d612351565b600260009054906101000a90046001600160a01b03166001600160a01b03166398990a0e6040518163ffffffff1660e01b815260040160206040518083038186803b158015612fcb57600080fd5b505afa158015612fdf573d6000803e3d6000fd5b505050506040513d601f19601f8201168201806040525081019061300391906133cd565b856040518463ffffffff1660e01b8152600401613022939291906138a1565b602060405180830381600087803b15801561303c57600080fd5b505af1158015613050573d6000803e3d6000fd5b505050506040513d601f19601f820116820180604052508101906130749190613630565b6130905760405162461bcd60e51b81526004016104ca9061416a565b8660a001516001600160a01b03166323b872dd6130ab612351565b8960200151846040518463ffffffff1660e01b81526004016130cf939291906138a1565b602060405180830381600087803b1580156130e957600080fd5b505af11580156130fd573d6000803e3d6000fd5b505050506040513d601f19601f820116820180604052508101906131219190613630565b61313d5760405162461bcd60e51b81526004016104ca90613af0565b50505050505050565b3390565b6040518061016001604052806000815260200160006001600160a01b0316815260200160006001600160a01b03168152602001600081526020016000815260200160006001600160a01b0316815260200160008152602001600081526020016000815260200160008152602001600060018111156131d857634e487b7160e01b600052602160045260246000fd5b905290565b8280546131e99061432c565b90600052602060002090601f01602090048101928261320b5760008555613251565b82601f106132245782800160ff19823516178555613251565b82800160010185558215613251579182015b82811115613251578235825591602001919060010190613236565b5061325d929150613261565b5090565b5b8082111561325d5760008155600101613262565b600082601f830112613286578081fd5b8135602067ffffffffffffffff8211156132a2576132a261437d565b8082026132b0828201614294565b8381528281019086840183880185018910156132ca578687fd5b8693505b858410156132ec5780358352600193909301929184019184016132ce565b50979650505050505050565b60008083601f840112613309578182fd5b50813567ffffffffffffffff811115613320578182fd5b60208301915083602082850101111561333857600080fd5b9250929050565b600082601f83011261334f578081fd5b813567ffffffffffffffff8111156133695761336961437d565b61337c601f8201601f1916602001614294565b818152846020838601011115613390578283fd5b816020850160208301379081016020019190915292915050565b6000602082840312156133bb578081fd5b81356133c681614393565b9392505050565b6000602082840312156133de578081fd5b81516133c681614393565b600080600080600060a08688031215613400578081fd5b853561340b81614393565b9450602086013561341b81614393565b9350604086013567ffffffffffffffff80821115613437578283fd5b61344389838a01613276565b94506060880135915080821115613458578283fd5b61346489838a01613276565b93506080880135915080821115613479578283fd5b506134868882890161333f565b9150509295509295909350565b6000806000806000608086880312156134aa578081fd5b85356134b581614393565b945060208601356134c581614393565b935060408601359250606086013567ffffffffffffffff8111156134e7578182fd5b6134f3888289016132f8565b969995985093965092949392505050565b600080600080600060a0868803121561351b578081fd5b853561352681614393565b9450602086013561353681614393565b93506040860135925060608601359150608086013567ffffffffffffffff81111561355f578182fd5b6134868882890161333f565b6000806040838503121561357d578182fd5b823561358881614393565b946020939093013593505050565b600080604083850312156135a8578182fd5b82516135b381614393565b6020939093015192949293505050565b600080600080600080600080610100898b0312156135df578283fd5b88356135ea81614393565b975060208901359650604089013561360181614393565b979a96995096976060810135975060808101359660a0820135965060c0820135955060e0909101359350915050565b600060208284031215613641578081fd5b815180151581146133c6578182fd5b600060208284031215613661578081fd5b5051919050565b600060208284031215613679578081fd5b81356001600160e01b0319811681146133c6578182fd5b600080602083850312156136a2578182fd5b823567ffffffffffffffff8111156136b8578283fd5b6136c4858286016132f8565b90969095509350505050565b6000602082840312156136e1578081fd5b81356133c6816143ab565b6000602082840312156136fd578081fd5b81516133c6816143ab565b600060208284031215613719578081fd5b5035919050565b60008060408385031215613732578182fd5b82359150602083013561374481614393565b809150509250929050565b60008060408385031215613761578182fd5b50508035926020909101359150565b60008060008060008060c08789031215613788578384fd5b863595506020870135945060408701356137a181614393565b959894975094956060810135955060808101359460a0909101359350915050565b6001600160a01b03169052565b600281106137ed57634e487b7160e01b600052602160045260246000fd5b9052565b80518252602081015161380760208401826137c2565b50604081015161381a60408401826137c2565b50606081015160608301526080810151608083015260a081015161384160a08401826137c2565b5060c081015160c083015260e081015160e083015261010080820151818401525061012080820151818401525061014080820151613881828501826137cf565b50505050565b6001600160a01b0392831681529116602082015260400190565b6001600160a01b039384168152919092166020820152604081019190915260600190565b6001600160a01b039384168152919092166020820152604081019190915260806060820181905260009082015260a00190565b6001600160a01b0394851681529290931660208301526040820152606081019190915260a06080820181905260009082015260c00190565b6001600160a01b0384168152602081018390526101a0810161395560408301846137f1565b949350505050565b6020808252825182820181905260009190848201906040850190845b818110156139a05761398c8385516137f1565b928401926101609290920191600101613979565b50909695505050505050565b901515815260200190565b9182526001600160a01b0316602082015260400190565b6001600160e01b031991909116815260200190565b6000602080835283518082850152825b81811015613a0f578581018301518582016040015282016139f3565b81811115613a205783604083870101525b50601f01601f1916929092016040019392505050565b60208082526038908201527f4d61726b65743a20746f6b656e206d75737420696d706c656d656e742065697460408201527f686572204552432031313535206f7220455243203732312e0000000000000000606082015260800190565b60208082526033908201527f5061636b3a206f6e6c7920612070726f746f636f6c2061646d696e2063616e2060408201527f63616c6c20746869732066756e6374696f6e2e00000000000000000000000000606082015260800190565b60208082526026908201527f4d61726b65743a206661696c656420746f207472616e736665722073656c6c65604082015265391031baba1760d11b606082015260800190565b6020808252602f908201527f4d61726b65743a204f6e6c79207468652073656c6c65722063616e2063616c6c60408201527f20746869732066756e6374696f6e2e0000000000000000000000000000000000606082015260800190565b60208082526031908201527f4d61726b65743a2043616e6e6f74206c697374206d6f7265207468616e20312060408201527f6f6620616e20455243373231204e46542e000000000000000000000000000000606082015260800190565b602080825260409082018190527f4d61726b65743a206d75737420617070726f766520746865206d61726b657420908201527f746f207472616e7366657220746f6b656e73206265696e67206c69737465642e606082015260800190565b60208082526035908201527f4d61726b65743a206d75737420617070726f7665204d61726b657420746f207460408201527f72616e7366657220707269636520746f207061792e0000000000000000000000606082015260800190565b6020808252602a908201527f4d61726b65743a2043616e206f6e6c792061646420746f204552432031313535604082015269103634b9ba34b733b99760b11b606082015260800190565b6020808252602b908201527f4d61726b65743a20546f74616c206d61726b657420666565732065786365656460408201526a103a343290383934b1b29760a91b606082015260800190565b60208082526024908201527f4d61726b65743a206d75737420616464206174206c65617374206f6e6520746f60408201526335b2b71760e11b606082015260800190565b60208082526024908201527f4d61726b65743a20546865207061636b2070726f746f636f6c2069732070617560408201526339b2b21760e11b606082015260800190565b60208082526028908201527f4d61726b65743a206661696c656420746f207472616e736665722070726f746f60408201526731b7b61031baba1760c11b606082015260800190565b6020808252603f908201527f4d61726b65743a206d75737420617070726f766520746865206d61726b65742060408201527f746f207472616e7366657220746f6b656e73206265696e672061646465642e00606082015260800190565b60208082526023908201527f4d61726b65743a20546865206c697374696e6720646f6573206e6f742065786960408201526239ba1760e91b606082015260800190565b60208082526034908201527f4d61726b65743a2043616e6e6f7420627579206d6f72652066726f6d206c697360408201527f74696e67207468616e207065726d69747465642e000000000000000000000000606082015260800190565b60208082526032908201527f4d61726b65743a207468652073616c652068617320656974686572206e6f742060408201527f73746172746564206f7220636c6f7365642e0000000000000000000000000000606082015260800190565b60208082526032908201527f4d61726b65743a2063616e6e6f7420756e6c697374206d6f726520746f6b656e60408201527f73207468616e20617265206c69737465642e0000000000000000000000000000606082015260800190565b60208082526037908201527f4d61726b65743a2063616e6e6f74206c657420627579657220627579206d6f7260408201527f65207468616e206c6973746564207175616e746974792e000000000000000000606082015260800190565b60208082526036908201527f4d61726b65743a2043616e6e6f7420756e6c697374206d6f7265207468616e2060408201527f6f6e65206f6620616e2045524320373231204e46542e00000000000000000000606082015260800190565b60208082526027908201527f4d61726b65743a206661696c656420746f207472616e7366657220637265617460408201526637b91031baba1760c91b606082015260800190565b60208082526031908201527f4d61726b65743a206d7573742062757920616e20617070726f7072696174652060408201527f616d6f756e74206f6620746f6b656e732e000000000000000000000000000000606082015260800190565b60208082526025908201527f4d61726b65743a206d757374206c697374206174206c65617374206f6e65207460408201526437b5b2b71760d91b606082015260800190565b60208082526028908201527f4d61726b65743a206661696c656420746f207472616e736665722070726f76696040820152673232b91031baba1760c11b606082015260800190565b6020808252601f908201527f5265656e7472616e637947756172643a207265656e7472616e742063616c6c00604082015260600190565b61016081016103ae82846137f1565b6001600160801b0391909116815260200190565b90815260200190565b6000610160820190508c82526001600160a01b03808d166020840152808c1660408401528a606084015289608084015280891660a0840152508660c08301528560e083015284610100830152836101208301526142766101408301846137cf565b9c9b505050505050505050505050565b918252602082015260400190565b60405181810167ffffffffffffffff811182821017156142b6576142b661437d565b604052919050565b600082198211156142d1576142d1614367565b500190565b6000826142f157634e487b7160e01b81526012600452602481fd5b500490565b600081600019048311821515161561431057614310614367565b500290565b60008282101561432757614327614367565b500390565b60028104600182168061434057607f821691505b6020821081141561436157634e487b7160e01b600052602260045260246000fd5b50919050565b634e487b7160e01b600052601160045260246000fd5b634e487b7160e01b600052604160045260246000fd5b6001600160a01b03811681146143a857600080fd5b50565b6001600160801b03811681146143a857600080fdfea164736f6c6343000800000a",
  "linkReferences": {},
  "deployedLinkReferences": {}
}