{
  "_format": "hh-sol-artifact-1",
  "contractName": "Market",
  "sourceName": "contracts/Market.sol",
  "abi": [
    {
      "inputs": [
        {
          "internalType": "address payable",
          "name": "_controlCenter",
          "type": "address"
        },
        {
          "internalType": "address",
          "name": "_trustedForwarder",
          "type": "address"
        },
        {
          "internalType": "string",
          "name": "_uri",
          "type": "string"
        }
      ],
      "stateMutability": "nonpayable",
      "type": "constructor"
    },
    {
      "anonymous": false,
      "inputs": [
        {
          "indexed": true,
          "internalType": "address",
          "name": "seller",
          "type": "address"
        },
        {
          "indexed": true,
          "internalType": "uint256",
          "name": "listingId",
          "type": "uint256"
        },
        {
          "components": [
            {
              "internalType": "uint256",
              "name": "listingId",
              "type": "uint256"
            },
            {
              "internalType": "address",
              "name": "seller",
              "type": "address"
            },
            {
              "internalType": "address",
              "name": "assetContract",
              "type": "address"
            },
            {
              "internalType": "uint256",
              "name": "tokenId",
              "type": "uint256"
            },
            {
              "internalType": "uint256",
              "name": "quantity",
              "type": "uint256"
            },
            {
              "internalType": "address",
              "name": "currency",
              "type": "address"
            },
            {
              "internalType": "uint256",
              "name": "pricePerToken",
              "type": "uint256"
            },
            {
              "internalType": "uint256",
              "name": "saleStart",
              "type": "uint256"
            },
            {
              "internalType": "uint256",
              "name": "saleEnd",
              "type": "uint256"
            },
            {
              "internalType": "enum Market.TokenType",
              "name": "tokenType",
              "type": "uint8"
            }
          ],
          "indexed": false,
          "internalType": "struct Market.Listing",
          "name": "listing",
          "type": "tuple"
        }
      ],
      "name": "ListingUpdate",
      "type": "event"
    },
    {
      "anonymous": false,
      "inputs": [
        {
          "indexed": false,
          "internalType": "uint128",
          "name": "newFee",
          "type": "uint128"
        }
      ],
      "name": "MarketFeeUpdate",
      "type": "event"
    },
    {
      "anonymous": false,
      "inputs": [
        {
          "indexed": true,
          "internalType": "address",
          "name": "assetContract",
          "type": "address"
        },
        {
          "indexed": true,
          "internalType": "address",
          "name": "seller",
          "type": "address"
        },
        {
          "indexed": true,
          "internalType": "uint256",
          "name": "listingId",
          "type": "uint256"
        },
        {
          "components": [
            {
              "internalType": "uint256",
              "name": "listingId",
              "type": "uint256"
            },
            {
              "internalType": "address",
              "name": "seller",
              "type": "address"
            },
            {
              "internalType": "address",
              "name": "assetContract",
              "type": "address"
            },
            {
              "internalType": "uint256",
              "name": "tokenId",
              "type": "uint256"
            },
            {
              "internalType": "uint256",
              "name": "quantity",
              "type": "uint256"
            },
            {
              "internalType": "address",
              "name": "currency",
              "type": "address"
            },
            {
              "internalType": "uint256",
              "name": "pricePerToken",
              "type": "uint256"
            },
            {
              "internalType": "uint256",
              "name": "saleStart",
              "type": "uint256"
            },
            {
              "internalType": "uint256",
              "name": "saleEnd",
              "type": "uint256"
            },
            {
              "internalType": "enum Market.TokenType",
              "name": "tokenType",
              "type": "uint8"
            }
          ],
          "indexed": false,
          "internalType": "struct Market.Listing",
          "name": "listing",
          "type": "tuple"
        }
      ],
      "name": "NewListing",
      "type": "event"
    },
    {
      "anonymous": false,
      "inputs": [
        {
          "indexed": true,
          "internalType": "address",
          "name": "assetContract",
          "type": "address"
        },
        {
          "indexed": true,
          "internalType": "address",
          "name": "seller",
          "type": "address"
        },
        {
          "indexed": true,
          "internalType": "uint256",
          "name": "listingId",
          "type": "uint256"
        },
        {
          "indexed": false,
          "internalType": "address",
          "name": "buyer",
          "type": "address"
        },
        {
          "indexed": false,
          "internalType": "uint256",
          "name": "quantity",
          "type": "uint256"
        },
        {
          "components": [
            {
              "internalType": "uint256",
              "name": "listingId",
              "type": "uint256"
            },
            {
              "internalType": "address",
              "name": "seller",
              "type": "address"
            },
            {
              "internalType": "address",
              "name": "assetContract",
              "type": "address"
            },
            {
              "internalType": "uint256",
              "name": "tokenId",
              "type": "uint256"
            },
            {
              "internalType": "uint256",
              "name": "quantity",
              "type": "uint256"
            },
            {
              "internalType": "address",
              "name": "currency",
              "type": "address"
            },
            {
              "internalType": "uint256",
              "name": "pricePerToken",
              "type": "uint256"
            },
            {
              "internalType": "uint256",
              "name": "saleStart",
              "type": "uint256"
            },
            {
              "internalType": "uint256",
              "name": "saleEnd",
              "type": "uint256"
            },
            {
              "internalType": "enum Market.TokenType",
              "name": "tokenType",
              "type": "uint8"
            }
          ],
          "indexed": false,
          "internalType": "struct Market.Listing",
          "name": "listing",
          "type": "tuple"
        }
      ],
      "name": "NewSale",
      "type": "event"
    },
    {
      "inputs": [],
      "name": "_contractURI",
      "outputs": [
        {
          "internalType": "string",
          "name": "",
          "type": "string"
        }
      ],
      "stateMutability": "view",
      "type": "function"
    },
    {
      "inputs": [
        {
          "internalType": "uint256",
          "name": "_listingId",
          "type": "uint256"
        },
        {
          "internalType": "uint256",
          "name": "_quantity",
          "type": "uint256"
        }
      ],
      "name": "addToListing",
      "outputs": [],
      "stateMutability": "nonpayable",
      "type": "function"
    },
    {
      "inputs": [
        {
          "internalType": "uint256",
          "name": "_listingId",
          "type": "uint256"
        },
        {
          "internalType": "uint256",
          "name": "_quantity",
          "type": "uint256"
        }
      ],
      "name": "buy",
      "outputs": [],
      "stateMutability": "nonpayable",
      "type": "function"
    },
    {
      "inputs": [],
      "name": "contractURI",
      "outputs": [
        {
          "internalType": "string",
          "name": "",
          "type": "string"
        }
      ],
      "stateMutability": "view",
      "type": "function"
    },
    {
      "inputs": [],
      "name": "getAllListings",
      "outputs": [
        {
          "components": [
            {
              "internalType": "uint256",
              "name": "listingId",
              "type": "uint256"
            },
            {
              "internalType": "address",
              "name": "seller",
              "type": "address"
            },
            {
              "internalType": "address",
              "name": "assetContract",
              "type": "address"
            },
            {
              "internalType": "uint256",
              "name": "tokenId",
              "type": "uint256"
            },
            {
              "internalType": "uint256",
              "name": "quantity",
              "type": "uint256"
            },
            {
              "internalType": "address",
              "name": "currency",
              "type": "address"
            },
            {
              "internalType": "uint256",
              "name": "pricePerToken",
              "type": "uint256"
            },
            {
              "internalType": "uint256",
              "name": "saleStart",
              "type": "uint256"
            },
            {
              "internalType": "uint256",
              "name": "saleEnd",
              "type": "uint256"
            },
            {
              "internalType": "enum Market.TokenType",
              "name": "tokenType",
              "type": "uint8"
            }
          ],
          "internalType": "struct Market.Listing[]",
          "name": "allListings",
          "type": "tuple[]"
        }
      ],
      "stateMutability": "view",
      "type": "function"
    },
    {
      "inputs": [
        {
          "internalType": "uint256",
          "name": "_listingId",
          "type": "uint256"
        }
      ],
      "name": "getListing",
      "outputs": [
        {
          "components": [
            {
              "internalType": "uint256",
              "name": "listingId",
              "type": "uint256"
            },
            {
              "internalType": "address",
              "name": "seller",
              "type": "address"
            },
            {
              "internalType": "address",
              "name": "assetContract",
              "type": "address"
            },
            {
              "internalType": "uint256",
              "name": "tokenId",
              "type": "uint256"
            },
            {
              "internalType": "uint256",
              "name": "quantity",
              "type": "uint256"
            },
            {
              "internalType": "address",
              "name": "currency",
              "type": "address"
            },
            {
              "internalType": "uint256",
              "name": "pricePerToken",
              "type": "uint256"
            },
            {
              "internalType": "uint256",
              "name": "saleStart",
              "type": "uint256"
            },
            {
              "internalType": "uint256",
              "name": "saleEnd",
              "type": "uint256"
            },
            {
              "internalType": "enum Market.TokenType",
              "name": "tokenType",
              "type": "uint8"
            }
          ],
          "internalType": "struct Market.Listing",
          "name": "listing",
          "type": "tuple"
        }
      ],
      "stateMutability": "view",
      "type": "function"
    },
    {
      "inputs": [
        {
          "internalType": "address",
          "name": "_assetContract",
          "type": "address"
        },
        {
          "internalType": "uint256",
          "name": "_tokenId",
          "type": "uint256"
        }
      ],
      "name": "getListingsByAsset",
      "outputs": [
        {
          "components": [
            {
              "internalType": "uint256",
              "name": "listingId",
              "type": "uint256"
            },
            {
              "internalType": "address",
              "name": "seller",
              "type": "address"
            },
            {
              "internalType": "address",
              "name": "assetContract",
              "type": "address"
            },
            {
              "internalType": "uint256",
              "name": "tokenId",
              "type": "uint256"
            },
            {
              "internalType": "uint256",
              "name": "quantity",
              "type": "uint256"
            },
            {
              "internalType": "address",
              "name": "currency",
              "type": "address"
            },
            {
              "internalType": "uint256",
              "name": "pricePerToken",
              "type": "uint256"
            },
            {
              "internalType": "uint256",
              "name": "saleStart",
              "type": "uint256"
            },
            {
              "internalType": "uint256",
              "name": "saleEnd",
              "type": "uint256"
            },
            {
              "internalType": "enum Market.TokenType",
              "name": "tokenType",
              "type": "uint8"
            }
          ],
          "internalType": "struct Market.Listing[]",
          "name": "tokenListings",
          "type": "tuple[]"
        }
      ],
      "stateMutability": "view",
      "type": "function"
    },
    {
      "inputs": [
        {
          "internalType": "address",
          "name": "_assetContract",
          "type": "address"
        }
      ],
      "name": "getListingsByAssetContract",
      "outputs": [
        {
          "components": [
            {
              "internalType": "uint256",
              "name": "listingId",
              "type": "uint256"
            },
            {
              "internalType": "address",
              "name": "seller",
              "type": "address"
            },
            {
              "internalType": "address",
              "name": "assetContract",
              "type": "address"
            },
            {
              "internalType": "uint256",
              "name": "tokenId",
              "type": "uint256"
            },
            {
              "internalType": "uint256",
              "name": "quantity",
              "type": "uint256"
            },
            {
              "internalType": "address",
              "name": "currency",
              "type": "address"
            },
            {
              "internalType": "uint256",
              "name": "pricePerToken",
              "type": "uint256"
            },
            {
              "internalType": "uint256",
              "name": "saleStart",
              "type": "uint256"
            },
            {
              "internalType": "uint256",
              "name": "saleEnd",
              "type": "uint256"
            },
            {
              "internalType": "enum Market.TokenType",
              "name": "tokenType",
              "type": "uint8"
            }
          ],
          "internalType": "struct Market.Listing[]",
          "name": "tokenListings",
          "type": "tuple[]"
        }
      ],
      "stateMutability": "view",
      "type": "function"
    },
    {
      "inputs": [
        {
          "internalType": "address",
          "name": "_seller",
          "type": "address"
        }
      ],
      "name": "getListingsBySeller",
      "outputs": [
        {
          "components": [
            {
              "internalType": "uint256",
              "name": "listingId",
              "type": "uint256"
            },
            {
              "internalType": "address",
              "name": "seller",
              "type": "address"
            },
            {
              "internalType": "address",
              "name": "assetContract",
              "type": "address"
            },
            {
              "internalType": "uint256",
              "name": "tokenId",
              "type": "uint256"
            },
            {
              "internalType": "uint256",
              "name": "quantity",
              "type": "uint256"
            },
            {
              "internalType": "address",
              "name": "currency",
              "type": "address"
            },
            {
              "internalType": "uint256",
              "name": "pricePerToken",
              "type": "uint256"
            },
            {
              "internalType": "uint256",
              "name": "saleStart",
              "type": "uint256"
            },
            {
              "internalType": "uint256",
              "name": "saleEnd",
              "type": "uint256"
            },
            {
              "internalType": "enum Market.TokenType",
              "name": "tokenType",
              "type": "uint8"
            }
          ],
          "internalType": "struct Market.Listing[]",
          "name": "sellerListings",
          "type": "tuple[]"
        }
      ],
      "stateMutability": "view",
      "type": "function"
    },
    {
      "inputs": [
        {
          "internalType": "address",
          "name": "forwarder",
          "type": "address"
        }
      ],
      "name": "isTrustedForwarder",
      "outputs": [
        {
          "internalType": "bool",
          "name": "",
          "type": "bool"
        }
      ],
      "stateMutability": "view",
      "type": "function"
    },
    {
      "inputs": [
        {
          "internalType": "address",
          "name": "_assetContract",
          "type": "address"
        },
        {
          "internalType": "uint256",
          "name": "_tokenId",
          "type": "uint256"
        },
        {
          "internalType": "address",
          "name": "_currency",
          "type": "address"
        },
        {
          "internalType": "uint256",
          "name": "_pricePerToken",
          "type": "uint256"
        },
        {
          "internalType": "uint256",
          "name": "_quantity",
          "type": "uint256"
        },
        {
          "internalType": "uint256",
          "name": "_secondsUntilStart",
          "type": "uint256"
        },
        {
          "internalType": "uint256",
          "name": "_secondsUntilEnd",
          "type": "uint256"
        }
      ],
      "name": "list",
      "outputs": [],
      "stateMutability": "nonpayable",
      "type": "function"
    },
    {
      "inputs": [
        {
          "internalType": "uint256",
          "name": "",
          "type": "uint256"
        }
      ],
      "name": "listings",
      "outputs": [
        {
          "internalType": "uint256",
          "name": "listingId",
          "type": "uint256"
        },
        {
          "internalType": "address",
          "name": "seller",
          "type": "address"
        },
        {
          "internalType": "address",
          "name": "assetContract",
          "type": "address"
        },
        {
          "internalType": "uint256",
          "name": "tokenId",
          "type": "uint256"
        },
        {
          "internalType": "uint256",
          "name": "quantity",
          "type": "uint256"
        },
        {
          "internalType": "address",
          "name": "currency",
          "type": "address"
        },
        {
          "internalType": "uint256",
          "name": "pricePerToken",
          "type": "uint256"
        },
        {
          "internalType": "uint256",
          "name": "saleStart",
          "type": "uint256"
        },
        {
          "internalType": "uint256",
          "name": "saleEnd",
          "type": "uint256"
        },
        {
          "internalType": "enum Market.TokenType",
          "name": "tokenType",
          "type": "uint8"
        }
      ],
      "stateMutability": "view",
      "type": "function"
    },
    {
      "inputs": [],
      "name": "marketFeeBps",
      "outputs": [
        {
          "internalType": "uint128",
          "name": "",
          "type": "uint128"
        }
      ],
      "stateMutability": "view",
      "type": "function"
    },
    {
      "inputs": [
        {
          "internalType": "address",
          "name": "",
          "type": "address"
        },
        {
          "internalType": "address",
          "name": "",
          "type": "address"
        },
        {
          "internalType": "uint256[]",
          "name": "",
          "type": "uint256[]"
        },
        {
          "internalType": "uint256[]",
          "name": "",
          "type": "uint256[]"
        },
        {
          "internalType": "bytes",
          "name": "",
          "type": "bytes"
        }
      ],
      "name": "onERC1155BatchReceived",
      "outputs": [
        {
          "internalType": "bytes4",
          "name": "",
          "type": "bytes4"
        }
      ],
      "stateMutability": "nonpayable",
      "type": "function"
    },
    {
      "inputs": [
        {
          "internalType": "address",
          "name": "",
          "type": "address"
        },
        {
          "internalType": "address",
          "name": "",
          "type": "address"
        },
        {
          "internalType": "uint256",
          "name": "",
          "type": "uint256"
        },
        {
          "internalType": "uint256",
          "name": "",
          "type": "uint256"
        },
        {
          "internalType": "bytes",
          "name": "",
          "type": "bytes"
        }
      ],
      "name": "onERC1155Received",
      "outputs": [
        {
          "internalType": "bytes4",
          "name": "",
          "type": "bytes4"
        }
      ],
      "stateMutability": "nonpayable",
      "type": "function"
    },
    {
      "inputs": [
        {
          "internalType": "address",
          "name": "",
          "type": "address"
        },
        {
          "internalType": "address",
          "name": "",
          "type": "address"
        },
        {
          "internalType": "uint256",
          "name": "",
          "type": "uint256"
        },
        {
          "internalType": "bytes",
          "name": "",
          "type": "bytes"
        }
      ],
      "name": "onERC721Received",
      "outputs": [
        {
          "internalType": "bytes4",
          "name": "",
          "type": "bytes4"
        }
      ],
      "stateMutability": "pure",
      "type": "function"
    },
    {
      "inputs": [
        {
          "internalType": "string",
          "name": "_URI",
          "type": "string"
        }
      ],
      "name": "setContractURI",
      "outputs": [],
      "stateMutability": "nonpayable",
      "type": "function"
    },
    {
      "inputs": [
        {
          "internalType": "uint128",
          "name": "feeBps",
          "type": "uint128"
        }
      ],
      "name": "setMarketFeeBps",
      "outputs": [],
      "stateMutability": "nonpayable",
      "type": "function"
    },
    {
      "inputs": [
        {
          "internalType": "bytes4",
          "name": "interfaceId",
          "type": "bytes4"
        }
      ],
      "name": "supportsInterface",
      "outputs": [
        {
          "internalType": "bool",
          "name": "",
          "type": "bool"
        }
      ],
      "stateMutability": "view",
      "type": "function"
    },
    {
      "inputs": [],
      "name": "totalListings",
      "outputs": [
        {
          "internalType": "uint256",
          "name": "",
          "type": "uint256"
        }
      ],
      "stateMutability": "view",
      "type": "function"
    },
    {
      "inputs": [
        {
          "internalType": "uint256",
          "name": "_listingId",
          "type": "uint256"
        },
        {
          "internalType": "uint256",
          "name": "_quantity",
          "type": "uint256"
        }
      ],
      "name": "unlist",
      "outputs": [],
      "stateMutability": "nonpayable",
      "type": "function"
    },
    {
      "inputs": [
        {
          "internalType": "uint256",
          "name": "_listingId",
          "type": "uint256"
        },
        {
          "internalType": "uint256",
          "name": "_pricePerToken",
          "type": "uint256"
        },
        {
          "internalType": "address",
          "name": "_currency",
          "type": "address"
        },
        {
          "internalType": "uint256",
          "name": "_secondsUntilStart",
          "type": "uint256"
        },
        {
          "internalType": "uint256",
          "name": "_secondsUntilEnd",
          "type": "uint256"
        }
      ],
      "name": "updateListingParams",
      "outputs": [],
      "stateMutability": "nonpayable",
      "type": "function"
    }
  ],
  "bytecode": "0x60806040523480156200001157600080fd5b506040516200441d3803806200441d833981016040819052620000349162000139565b6001600081905580546001600160a01b0319166001600160a01b03841617905580516200006990600490602084019062000093565b5050600280546001600160a01b0319166001600160a01b03939093169290921790915550620002a2565b828054620000a19062000236565b90600052602060002090601f016020900481019282620000c5576000855562000110565b82601f10620000e057805160ff191683800117855562000110565b8280016001018555821562000110579182015b8281111562000110578251825591602001919060010190620000f3565b506200011e92915062000122565b5090565b5b808211156200011e576000815560010162000123565b6000806000606084860312156200014e578283fd5b83516200015b8162000289565b80935050602080850151620001708162000289565b60408601519093506001600160401b03808211156200018d578384fd5b818701915087601f830112620001a1578384fd5b815181811115620001b657620001b662000273565b604051601f8201601f1916810185018381118282101715620001dc57620001dc62000273565b60405281815283820185018a1015620001f3578586fd5b8592505b81831015620002165783830185015181840186015291840191620001f7565b818311156200022757858583830101525b80955050505050509250925092565b6002810460018216806200024b57607f821691505b602082108114156200026d57634e487b7160e01b600052602260045260246000fd5b50919050565b634e487b7160e01b600052604160045260246000fd5b6001600160a01b03811681146200029f57600080fd5b50565b61416b80620002b26000396000f3fe608060405234801561001057600080fd5b50600436106101825760003560e01c8063938e3d7b116100d8578063d34cbd441161008c578063de74e57b11610066578063de74e57b1461032a578063e8a3d48514610353578063f23a6e611461035b57610182565b8063d34cbd44146102f1578063d6febde814610304578063d8cba2511461031757610182565b8063bc197c81116100bd578063bc197c81146102b4578063c0e72740146102c7578063c78b616c146102dc57610182565b8063938e3d7b14610299578063ae73ccec146102ac57610182565b80633f5c3e871161013a578063572b6c0511610114578063572b6c0514610260578063583e12b61461027357806361a69e9b1461028657610182565b80633f5c3e87146102255780634edeaa811461023a5780634fd69f3c1461024d57610182565b8063107a274a1161016b578063107a274a146101c5578063150b7a02146101e55780631d0cd75e1461020557610182565b806301ffc9a71461018757806309679b39146101b0575b600080fd5b61019a610195366004613479565b61036e565b6040516101a79190613778565b60405180910390f35b6101c36101be3660046134e1565b6103a5565b005b6101d86101d3366004613519565b610523565b6040516101a79190613f8f565b6101f86101f33660046132ad565b610605565b6040516101a7919061379a565b610218610213366004613385565b610617565b6040516101a79190613729565b61022d610865565b6040516101a79190613f9e565b6102186102483660046131c4565b610874565b6101c361025b366004613531565b610a89565b61019a61026e3660046131c4565b610d14565b6101c3610281366004613531565b610d28565b6101c3610294366004613552565b611159565b6101c36102a73660046134a1565b611489565b6102186115b0565b6101f86102c2366004613203565b61173b565b6102cf61174c565b6040516101a791906137af565b6102e46117da565b6040516101a79190613fb2565b6101c36102ff3660046133dd565b6117e0565b6101c3610312366004613531565b611ac1565b6102186103253660046131c4565b611e6d565b61033d610338366004613519565b612079565b6040516101a79a99989796959493929190613fbb565b6102cf6120dc565b6101f861036936600461331e565b61216f565b60006001600160e01b03198216630271189760e51b148061039f57506001600160e01b03198216630a85bd0160e11b145b92915050565b60025460408051634a32c6bf60e11b815290516001600160a01b03909216916391d148549183916394658d7e91600480820192602092909190829003018186803b1580156103f257600080fd5b505afa158015610406573d6000803e3d6000fd5b505050506040513d601f19601f8201168201806040525081019061042a9190613461565b610432612180565b6040518363ffffffff1660e01b815260040161044f929190613783565b60206040518083038186803b15801561046757600080fd5b505afa15801561047b573d6000803e3d6000fd5b505050506040513d601f19601f8201168201806040525081019061049f9190613441565b6104c45760405162461bcd60e51b81526004016104bb9061385f565b60405180910390fd5b600580546fffffffffffffffffffffffffffffffff19166001600160801b0383161790556040517fd50e64e6eb05cd7ceafe1a28b1a7ad949edb90451106259c7117252d605178ef90610518908390613f9e565b60405180910390a150565b61052b612f6b565b600082815260066020818152604092839020835161014081018552815481526001808301546001600160a01b039081169483019490945260028301548416958201959095526003820154606082015260048201546080820152600582015490921660a08301529182015460c0820152600782015460e082015260088201546101008201526009820154909261012084019160ff16908111156105dd57634e487b7160e01b600052602160045260246000fd5b60018111156105fc57634e487b7160e01b600052602160045260246000fd5b90525092915050565b630a85bd0160e11b5b95945050505050565b6003546060906000805b8281101561068a576000818152600660205260409020600201546001600160a01b038781169116148015610665575060008181526006602052604090206003015485145b156106785761067560018361405c565b91505b61068360018261405c565b9050610621565b508067ffffffffffffffff8111156106b257634e487b7160e01b600052604160045260246000fd5b6040519080825280602002602001820160405280156106eb57816020015b6106d8612f6b565b8152602001906001900390816106d05790505b5092506000805b8381101561085b576000818152600660205260409020600201546001600160a01b038881169116148015610736575060008181526006602052604090206003015486145b1561084957600081815260066020818152604092839020835161014081018552815481526001808301546001600160a01b039081169483019490945260028301548416958201959095526003820154606082015260048201546080820152600582015490921660a08301529182015460c0820152600782015460e082015260088201546101008201526009820154909261012084019160ff16908111156107ed57634e487b7160e01b600052602160045260246000fd5b600181111561080c57634e487b7160e01b600052602160045260246000fd5b8152505085838151811061083057634e487b7160e01b600052603260045260246000fd5b602090810291909101015261084660018361405c565b91505b61085460018261405c565b90506106f2565b5050505092915050565b6005546001600160801b031681565b6003546060906000805b828110156108cb576000818152600660205260409020600201546001600160a01b03868116911614156108b9576108b660018361405c565b91505b6108c460018261405c565b905061087e565b508067ffffffffffffffff8111156108f357634e487b7160e01b600052604160045260246000fd5b60405190808252806020026020018201604052801561092c57816020015b610919612f6b565b8152602001906001900390816109115790505b5092506000805b83811015610a80576000818152600660205260409020600201546001600160a01b0387811691161415610a6e57600081815260066020818152604092839020835161014081018552815481526001808301546001600160a01b039081169483019490945260028301548416958201959095526003820154606082015260048201546080820152600582015490921660a08301529182015460c0820152600782015460e082015260088201546101008201526009820154909261012084019160ff1690811115610a1257634e487b7160e01b600052602160045260246000fd5b6001811115610a3157634e487b7160e01b600052602160045260246000fd5b81525050858381518110610a5557634e487b7160e01b600052603260045260246000fd5b6020908102919091010152610a6b60018361405c565b91505b610a7960018261405c565b9050610933565b50505050919050565b610a91612180565b60008381526006602052604090206001015483906001600160a01b03838116911614610acf5760405162461bcd60e51b81526004016104bb90613919565b6000848152600660208181526040808420815161014081018352815481526001808301546001600160a01b039081169583019590955260028301548516938201939093526003820154606082015260048201546080820152600582015490931660a08401529283015460c0830152600783015460e08301526008830154610100830152600983015491929161012084019160ff90911690811115610b8357634e487b7160e01b600052602160045260246000fd5b6001811115610ba257634e487b7160e01b600052602160045260246000fd5b8152505090508381608001511015610bcc5760405162461bcd60e51b81526004016104bb90613d2a565b8381608001818151610bde91906140b3565b9052506000858152600660208181526040928390208451815590840151600180830180546001600160a01b03199081166001600160a01b0394851617909155948601516002840180548716918416919091179055606086015160038401556080860151600484015560a086015160058401805490961692169190911790935560c08401519181019190915560e083015160078201556101008301516008820155610120830151600982018054859460ff19909116908381811115610cb257634e487b7160e01b600052602160045260246000fd5b0217905550905050610cc481856121ae565b84610ccd612180565b6001600160a01b03167f1b8ddfdd6ac3e5a29ff1523294456784db693ed91ed9cbcbcaba3f7b3297281d83604051610d059190613f8f565b60405180910390a35050505050565b6001546001600160a01b0390811691161490565b600260009054906101000a90046001600160a01b03166001600160a01b0316639d2f83f06040518163ffffffff1660e01b815260040160206040518083038186803b158015610d7657600080fd5b505afa158015610d8a573d6000803e3d6000fd5b505050506040513d601f19601f82011682018060405250810190610dae9190613441565b15610dcb5760405162461bcd60e51b81526004016104bb90613b8c565b610dd3612180565b60008381526006602052604090206001015483906001600160a01b03838116911614610e115760405162461bcd60e51b81526004016104bb90613919565b6000848152600660208181526040808420815161014081018352815481526001808301546001600160a01b039081169583019590955260028301548516938201939093526003820154606082015260048201546080820152600582015490931660a08401529283015460c0830152600783015460e08301526008830154610100830152600983015491929161012084019160ff90911690811115610ec557634e487b7160e01b600052602160045260246000fd5b6001811115610ee457634e487b7160e01b600052602160045260246000fd5b8152505090508381608001818151610efc919061405c565b9052506000858152600660208181526040928390208451815590840151600180830180546001600160a01b03199081166001600160a01b0394851617909155948601516002840180548716918416919091179055606086015160038401556080860151600484015560a086015160058401805490961692169190911790935560c08401519181019190915560e083015160078201556101008301516008820155610120830151600982018054859460ff19909116908381811115610fd057634e487b7160e01b600052602160045260246000fd5b0217905550505083610ff45760405162461bcd60e51b81526004016104bb90613b48565b6000816101200151600181111561101b57634e487b7160e01b600052602160045260246000fd5b146110385760405162461bcd60e51b81526004016104bb90613a8e565b80604001516001600160a01b031663e985e9c5611053612180565b306040518363ffffffff1660e01b8152600401611071929190613653565b60206040518083038186803b15801561108957600080fd5b505afa15801561109d573d6000803e3d6000fd5b505050506040513d601f19601f820116820180604052508101906110c19190613441565b6110dd5760405162461bcd60e51b81526004016104bb90613c2d565b80604001516001600160a01b031663f242432a6110f8612180565b308460600151886040518563ffffffff1660e01b815260040161111e94939291906136c4565b600060405180830381600087803b15801561113857600080fd5b505af115801561114c573d6000803e3d6000fd5b5050505084610ccd612180565b600260009054906101000a90046001600160a01b03166001600160a01b0316639d2f83f06040518163ffffffff1660e01b815260040160206040518083038186803b1580156111a757600080fd5b505afa1580156111bb573d6000803e3d6000fd5b505050506040513d601f19601f820116820180604052508101906111df9190613441565b156111fc5760405162461bcd60e51b81526004016104bb90613b8c565b611204612180565b60008681526006602052604090206001015486906001600160a01b038381169116146112425760405162461bcd60e51b81526004016104bb90613919565b6000878152600660208181526040808420815161014081018352815481526001808301546001600160a01b039081169583019590955260028301548516938201939093526003820154606082015260048201546080820152600582015490931660a08401529283015460c0830152600783015460e08301526008830154610100830152600983015491929161012084019160ff909116908111156112f657634e487b7160e01b600052602160045260246000fd5b600181111561131557634e487b7160e01b600052602160045260246000fd5b90525060c081018890526001600160a01b03871660a0820152905061133a854261405c565b60e082015283156113545761134f844261405c565b611358565b6000195b61010082019081526000898152600660208181526040928390208551815590850151600180830180546001600160a01b03199081166001600160a01b0394851617909155948701516002840180548716918416919091179055606087015160038401556080870151600484015560a087015160058401805490961692169190911790935560c08501519181019190915560e084015160078201559151600883015561012083015160098301805485949360ff1990911690838181111561142e57634e487b7160e01b600052602160045260246000fd5b02179055509050508761143f612180565b6001600160a01b03167f1b8ddfdd6ac3e5a29ff1523294456784db693ed91ed9cbcbcaba3f7b3297281d836040516114779190613f8f565b60405180910390a35050505050505050565b60025460408051634a32c6bf60e11b815290516001600160a01b03909216916391d148549183916394658d7e91600480820192602092909190829003018186803b1580156114d657600080fd5b505afa1580156114ea573d6000803e3d6000fd5b505050506040513d601f19601f8201168201806040525081019061150e9190613461565b611516612180565b6040518363ffffffff1660e01b8152600401611533929190613783565b60206040518083038186803b15801561154b57600080fd5b505afa15801561155f573d6000803e3d6000fd5b505050506040513d601f19601f820116820180604052508101906115839190613441565b61159f5760405162461bcd60e51b81526004016104bb9061385f565b6115ab60048383612ff7565b505050565b6003546060908067ffffffffffffffff8111156115dd57634e487b7160e01b600052604160045260246000fd5b60405190808252806020026020018201604052801561161657816020015b611603612f6b565b8152602001906001900390816115fb5790505b50915060005b8181101561173657600081815260066020818152604092839020835161014081018552815481526001808301546001600160a01b039081169483019490945260028301548416958201959095526003820154606082015260048201546080820152600582015490921660a08301529182015460c0820152600782015460e082015260088201546101008201526009820154909261012084019160ff16908111156116d657634e487b7160e01b600052602160045260246000fd5b60018111156116f557634e487b7160e01b600052602160045260246000fd5b8152505083828151811061171957634e487b7160e01b600052603260045260246000fd5b602090810291909101015261172f60018261405c565b905061161c565b505090565b63bc197c8160e01b95945050505050565b60048054611759906140ca565b80601f0160208091040260200160405190810160405280929190818152602001828054611785906140ca565b80156117d25780601f106117a7576101008083540402835291602001916117d2565b820191906000526020600020905b8154815290600101906020018083116117b557829003601f168201915b505050505081565b60035481565b600260009054906101000a90046001600160a01b03166001600160a01b0316639d2f83f06040518163ffffffff1660e01b815260040160206040518083038186803b15801561182e57600080fd5b505afa158015611842573d6000803e3d6000fd5b505050506040513d601f19601f820116820180604052508101906118669190613441565b156118835760405162461bcd60e51b81526004016104bb90613b8c565b600083116118a35760405162461bcd60e51b81526004016104bb90613e9e565b600380549060019060006118b7838561405c565b90915550600090506118d3896118cb612180565b308b89612316565b905060006040518061014001604052808481526020016118f1612180565b6001600160a01b031681526020018b6001600160a01b031681526020018a8152602001878152602001896001600160a01b03168152602001888152602001864261193b919061405c565b8152602001851561195557611950864261405c565b611959565b6000195b815260200183600181111561197e57634e487b7160e01b600052602160045260246000fd5b90526000848152600660208181526040928390208451815590840151600180830180546001600160a01b03199081166001600160a01b0394851617909155948601516002840180548716918416919091179055606086015160038401556080860151600484015560a086015160058401805490961692169190911790935560c08401519181019190915560e083015160078201556101008301516008820155610120830151600982018054949550859492939192909160ff19909116908381811115611a5a57634e487b7160e01b600052602160045260246000fd5b021790555090505082611a6b612180565b6001600160a01b03168b6001600160a01b03167fd2b9362693b450efe0eba286dabb8fc2c4d8e9567ee2db206d3f2823f4cbe9f184604051611aad9190613f8f565b60405180910390a450505050505050505050565b60026000541415611ae45760405162461bcd60e51b81526004016104bb90613f58565b6002600081905554604080516309d2f83f60e41b815290516001600160a01b0390921691639d2f83f091600480820192602092909190829003018186803b158015611b2e57600080fd5b505afa158015611b42573d6000803e3d6000fd5b505050506040513d601f19601f82011682018060405250810190611b669190613441565b15611b835760405162461bcd60e51b81526004016104bb90613b8c565b60008281526006602052604090206001015482906001600160a01b0316611bbc5760405162461bcd60e51b81526004016104bb90613c8a565b6000838152600660208181526040808420815161014081018352815481526001808301546001600160a01b039081169583019590955260028301548516938201939093526003820154606082015260048201546080820152600582015490931660a08401529283015460c0830152600783015460e08301526008830154610100830152600983015491929161012084019160ff90911690811115611c7057634e487b7160e01b600052602160045260246000fd5b6001811115611c8f57634e487b7160e01b600052602160045260246000fd5b90525090508215801590611ca7575080608001518311155b611cc35760405162461bcd60e51b81526004016104bb90613e41565b8061010001514211158015611cdc57508060e001514210155b611cf85760405162461bcd60e51b81526004016104bb90613ccd565b8281608001818151611d0a91906140b3565b9052506000848152600660208181526040928390208451815590840151600180830180546001600160a01b03199081166001600160a01b0394851617909155948601516002840180548716918416919091179055606086015160038401556080860151600484015560a086015160058401805490961692169190911790935560c08401519181019190915560e083015160078201556101008301516008820155610120830151600982018054859460ff19909116908381811115611dde57634e487b7160e01b600052602160045260246000fd5b0217905550505060c081015115611df957611df981846126cd565b611e0381846121ae565b8381602001516001600160a01b031682604001516001600160a01b03167fca61ad62dd0d03a15c18b6b324fec84841d4a7a3b09dc67787211a2162f56898611e49612180565b8786604051611e5a939291906136fc565b60405180910390a4505060016000555050565b6003546060906000805b82811015611ec4576000818152600660205260409020600101546001600160a01b0386811691161415611eb257611eaf60018361405c565b91505b611ebd60018261405c565b9050611e77565b508067ffffffffffffffff811115611eec57634e487b7160e01b600052604160045260246000fd5b604051908082528060200260200182016040528015611f2557816020015b611f12612f6b565b815260200190600190039081611f0a5790505b5092506000805b83811015610a80576000818152600660205260409020600101546001600160a01b038781169116141561206757600081815260066020818152604092839020835161014081018552815481526001808301546001600160a01b039081169483019490945260028301548416958201959095526003820154606082015260048201546080820152600582015490921660a08301529182015460c0820152600782015460e082015260088201546101008201526009820154909261012084019160ff169081111561200b57634e487b7160e01b600052602160045260246000fd5b600181111561202a57634e487b7160e01b600052602160045260246000fd5b8152505085838151811061204e57634e487b7160e01b600052603260045260246000fd5b602090810291909101015261206460018361405c565b91505b61207260018261405c565b9050611f2c565b6006602081905260009182526040909120805460018201546002830154600384015460048501546005860154968601546007870154600888015460099098015496986001600160a01b039687169895871697949693959316939192909160ff168a565b6060600480546120eb906140ca565b80601f0160208091040260200160405190810160405280929190818152602001828054612117906140ca565b80156121645780601f1061213957610100808354040283529160200191612164565b820191906000526020600020905b81548152906001019060200180831161214757829003601f168201915b505050505090505b90565b63f23a6e6160e01b95945050505050565b600061218b33610d14565b1561219f575060131936013560601c61216c565b6121a7612f67565b905061216c565b600082610120015160018111156121d557634e487b7160e01b600052602160045260246000fd5b14156122535781604001516001600160a01b031663f242432a306121f7612180565b8560600151856040518563ffffffff1660e01b815260040161221c94939291906136c4565b600060405180830381600087803b15801561223657600080fd5b505af115801561224a573d6000803e3d6000fd5b50505050612312565b6001826101200151600181111561227a57634e487b7160e01b600052602160045260246000fd5b141561231257806001146122a05760405162461bcd60e51b81526004016104bb90613d87565b81604001516001600160a01b031663b88d4fde306122bc612180565b85606001516040518463ffffffff1660e01b81526004016122df93929190613691565b600060405180830381600087803b1580156122f957600080fd5b505af115801561230d573d6000803e3d6000fd5b505050505b5050565b6040516301ffc9a760e01b81526000906001600160a01b038716906301ffc9a79061234c90636cdb3d1360e11b9060040161379a565b60206040518083038186803b15801561236457600080fd5b505afa158015612378573d6000803e3d6000fd5b505050506040513d601f19601f8201168201806040525081019061239c9190613441565b156124a85760405163e985e9c560e01b81526001600160a01b0387169063e985e9c5906123cf9088908890600401613653565b60206040518083038186803b1580156123e757600080fd5b505afa1580156123fb573d6000803e3d6000fd5b505050506040513d601f19601f8201168201806040525081019061241f9190613441565b61243b5760405162461bcd60e51b81526004016104bb906139d3565b50604051637921219560e11b81526000906001600160a01b0387169063f242432a906124719088908890889088906004016136c4565b600060405180830381600087803b15801561248b57600080fd5b505af115801561249f573d6000803e3d6000fd5b5050505061060e565b6040516301ffc9a760e01b81526001600160a01b038716906301ffc9a7906124db906380ac58cd60e01b9060040161379a565b60206040518083038186803b1580156124f357600080fd5b505afa158015612507573d6000803e3d6000fd5b505050506040513d601f19601f8201168201806040525081019061252b9190613441565b156126b557816001146125505760405162461bcd60e51b81526004016104bb90613976565b60405163e985e9c560e01b81526001600160a01b0387169063e985e9c59061257e9088908890600401613653565b60206040518083038186803b15801561259657600080fd5b505afa1580156125aa573d6000803e3d6000fd5b505050506040513d601f19601f820116820180604052508101906125ce9190613441565b806126655750836001600160a01b0316866001600160a01b031663081812fc856040518263ffffffff1660e01b815260040161260a9190613fb2565b60206040518083038186803b15801561262257600080fd5b505afa158015612636573d6000803e3d6000fd5b505050506040513d601f19601f8201168201806040525081019061265a91906131e7565b6001600160a01b0316145b6126815760405162461bcd60e51b81526004016104bb906139d3565b50604051635c46a7ef60e11b81526001906001600160a01b0387169063b88d4fde9061247190889088908890600401613691565b60405162461bcd60e51b81526004016104bb90613802565b6000818360c001516126df9190614094565b9050808360a001516001600160a01b031663dd62ed3e6126fd612180565b306040518363ffffffff1660e01b815260040161271b929190613653565b60206040518083038186803b15801561273357600080fd5b505afa158015612747573d6000803e3d6000fd5b505050506040513d601f19601f8201168201806040525081019061276b9190613461565b10156127895760405162461bcd60e51b81526004016104bb90613a31565b600254604080516399c04d3b60e01b815290516000926001600160a01b0316916399c04d3b916004808301926020929190829003018186803b1580156127ce57600080fd5b505afa1580156127e2573d6000803e3d6000fd5b505050506040513d601f19601f8201168201806040525081019061280691906134fd565b6001600160801b031690506000600260009054906101000a90046001600160a01b03166001600160a01b031663fd967f476040518163ffffffff1660e01b815260040160206040518083038186803b15801561286157600080fd5b505afa158015612875573d6000803e3d6000fd5b505050506040513d601f19601f8201168201806040525081019061289991906134fd565b6005546001600160801b03918216916128b3911685614094565b6128bd9190614074565b90506000600260009054906101000a90046001600160a01b03166001600160a01b031663fd967f476040518163ffffffff1660e01b815260040160206040518083038186803b15801561290f57600080fd5b505afa158015612923573d6000803e3d6000fd5b505050506040513d601f19601f8201168201806040525081019061294791906134fd565b6001600160801b031661295a8484614094565b6129649190614074565b90508560a001516001600160a01b03166323b872dd612981612180565b600260009054906101000a90046001600160a01b03166001600160a01b0316630f603ed36040518163ffffffff1660e01b815260040160206040518083038186803b1580156129cf57600080fd5b505afa1580156129e3573d6000803e3d6000fd5b505050506040513d601f19601f82011682018060405250810190612a0791906131e7565b856040518463ffffffff1660e01b8152600401612a269392919061366d565b602060405180830381600087803b158015612a4057600080fd5b505af1158015612a54573d6000803e3d6000fd5b505050506040513d601f19601f82011682018060405250810190612a789190613441565b612a945760405162461bcd60e51b81526004016104bb90613bd0565b600081612aa184876140b3565b612aab91906140b3565b905086604001516001600160a01b03166301ffc9a763152a902d60e11b6040518263ffffffff1660e01b8152600401612ae4919061379a565b60206040518083038186803b158015612afc57600080fd5b505afa158015612b10573d6000803e3d6000fd5b505050506040513d601f19601f82011682018060405250810190612b349190613441565b15612d835760008088604001516001600160a01b0316632a55205a8a60600151896040518363ffffffff1660e01b8152600401612b72929190614024565b604080518083038186803b158015612b8957600080fd5b505afa158015612b9d573d6000803e3d6000fd5b505050506040513d601f19601f82011682018060405250810190612bc191906133b0565b90925090506001600160a01b03821615801590612bde5750600081115b15612d80578684612bef878461405c565b612bf9919061405c565b10612c165760405162461bcd60e51b81526004016104bb90613aeb565b6002546040805163fd967f4760e01b815290516000926001600160a01b03169163fd967f47916004808301926020929190829003018186803b158015612c5b57600080fd5b505afa158015612c6f573d6000803e3d6000fd5b505050506040513d601f19601f82011682018060405250810190612c9391906134fd565b6001600160801b0316612ca68884614094565b612cb09190614074565b905080612cbd83866140b3565b612cc791906140b3565b9350612cd3818661405c565b94508960a001516001600160a01b03166323b872dd612cf0612180565b85856040518463ffffffff1660e01b8152600401612d109392919061366d565b602060405180830381600087803b158015612d2a57600080fd5b505af1158015612d3e573d6000803e3d6000fd5b505050506040513d601f19601f82011682018060405250810190612d629190613441565b612d7e5760405162461bcd60e51b81526004016104bb90613de4565b505b50505b8660a001516001600160a01b03166323b872dd612d9e612180565b600260009054906101000a90046001600160a01b03166001600160a01b03166398990a0e6040518163ffffffff1660e01b815260040160206040518083038186803b158015612dec57600080fd5b505afa158015612e00573d6000803e3d6000fd5b505050506040513d601f19601f82011682018060405250810190612e2491906131e7565b856040518463ffffffff1660e01b8152600401612e439392919061366d565b602060405180830381600087803b158015612e5d57600080fd5b505af1158015612e71573d6000803e3d6000fd5b505050506040513d601f19601f82011682018060405250810190612e959190613441565b612eb15760405162461bcd60e51b81526004016104bb90613efb565b8660a001516001600160a01b03166323b872dd612ecc612180565b8960200151846040518463ffffffff1660e01b8152600401612ef09392919061366d565b602060405180830381600087803b158015612f0a57600080fd5b505af1158015612f1e573d6000803e3d6000fd5b505050506040513d601f19601f82011682018060405250810190612f429190613441565b612f5e5760405162461bcd60e51b81526004016104bb906138bc565b50505050505050565b3390565b6040518061014001604052806000815260200160006001600160a01b0316815260200160006001600160a01b03168152602001600081526020016000815260200160006001600160a01b0316815260200160008152602001600081526020016000815260200160006001811115612ff257634e487b7160e01b600052602160045260246000fd5b905290565b828054613003906140ca565b90600052602060002090601f016020900481019282613025576000855561306b565b82601f1061303e5782800160ff1982351617855561306b565b8280016001018555821561306b579182015b8281111561306b578235825591602001919060010190613050565b5061307792915061307b565b5090565b5b80821115613077576000815560010161307c565b600082601f8301126130a0578081fd5b8135602067ffffffffffffffff8211156130bc576130bc61411b565b8082026130ca828201614032565b8381528281019086840183880185018910156130e4578687fd5b8693505b858410156131065780358352600193909301929184019184016130e8565b50979650505050505050565b60008083601f840112613123578182fd5b50813567ffffffffffffffff81111561313a578182fd5b60208301915083602082850101111561315257600080fd5b9250929050565b600082601f830112613169578081fd5b813567ffffffffffffffff8111156131835761318361411b565b613196601f8201601f1916602001614032565b8181528460208386010111156131aa578283fd5b816020850160208301379081016020019190915292915050565b6000602082840312156131d5578081fd5b81356131e081614131565b9392505050565b6000602082840312156131f8578081fd5b81516131e081614131565b600080600080600060a0868803121561321a578081fd5b853561322581614131565b9450602086013561323581614131565b9350604086013567ffffffffffffffff80821115613251578283fd5b61325d89838a01613090565b94506060880135915080821115613272578283fd5b61327e89838a01613090565b93506080880135915080821115613293578283fd5b506132a088828901613159565b9150509295509295909350565b6000806000806000608086880312156132c4578081fd5b85356132cf81614131565b945060208601356132df81614131565b935060408601359250606086013567ffffffffffffffff811115613301578182fd5b61330d88828901613112565b969995985093965092949392505050565b600080600080600060a08688031215613335578081fd5b853561334081614131565b9450602086013561335081614131565b93506040860135925060608601359150608086013567ffffffffffffffff811115613379578182fd5b6132a088828901613159565b60008060408385031215613397578182fd5b82356133a281614131565b946020939093013593505050565b600080604083850312156133c2578182fd5b82516133cd81614131565b6020939093015192949293505050565b600080600080600080600060e0888a0312156133f7578182fd5b873561340281614131565b965060208801359550604088013561341981614131565b969995985095966060810135965060808101359560a0820135955060c0909101359350915050565b600060208284031215613452578081fd5b815180151581146131e0578182fd5b600060208284031215613472578081fd5b5051919050565b60006020828403121561348a578081fd5b81356001600160e01b0319811681146131e0578182fd5b600080602083850312156134b3578182fd5b823567ffffffffffffffff8111156134c9578283fd5b6134d585828601613112565b90969095509350505050565b6000602082840312156134f2578081fd5b81356131e081614149565b60006020828403121561350e578081fd5b81516131e081614149565b60006020828403121561352a578081fd5b5035919050565b60008060408385031215613543578182fd5b50508035926020909101359150565b600080600080600060a08688031215613569578283fd5b8535945060208601359350604086013561358281614131565b94979396509394606081013594506080013592915050565b6001600160a01b03169052565b600281106135c557634e487b7160e01b600052602160045260246000fd5b9052565b8051825260208101516135df602084018261359a565b5060408101516135f2604084018261359a565b50606081015160608301526080810151608083015260a081015161361960a084018261359a565b5060c081015160c083015260e081015160e08301526101008082015181840152506101208082015161364d828501826135a7565b50505050565b6001600160a01b0392831681529116602082015260400190565b6001600160a01b039384168152919092166020820152604081019190915260600190565b6001600160a01b039384168152919092166020820152604081019190915260806060820181905260009082015260a00190565b6001600160a01b0394851681529290931660208301526040820152606081019190915260a06080820181905260009082015260c00190565b6001600160a01b038416815260208101839052610180810161372160408301846135c9565b949350505050565b6020808252825182820181905260009190848201906040850190845b8181101561376c576137588385516135c9565b928401926101409290920191600101613745565b50909695505050505050565b901515815260200190565b9182526001600160a01b0316602082015260400190565b6001600160e01b031991909116815260200190565b6000602080835283518082850152825b818110156137db578581018301518582016040015282016137bf565b818111156137ec5783604083870101525b50601f01601f1916929092016040019392505050565b60208082526038908201527f4d61726b65743a20746f6b656e206d75737420696d706c656d656e742065697460408201527f686572204552432031313535206f7220455243203732312e0000000000000000606082015260800190565b60208082526033908201527f5061636b3a206f6e6c7920612070726f746f636f6c2061646d696e2063616e2060408201527f63616c6c20746869732066756e6374696f6e2e00000000000000000000000000606082015260800190565b60208082526026908201527f4d61726b65743a206661696c656420746f207472616e736665722073656c6c6560408201527f72206375742e0000000000000000000000000000000000000000000000000000606082015260800190565b6020808252602f908201527f4d61726b65743a204f6e6c79207468652073656c6c65722063616e2063616c6c60408201527f20746869732066756e6374696f6e2e0000000000000000000000000000000000606082015260800190565b60208082526031908201527f4d61726b65743a2043616e6e6f74206c697374206d6f7265207468616e20312060408201527f6f6620616e20455243373231204e46542e000000000000000000000000000000606082015260800190565b602080825260409082018190527f4d61726b65743a206d75737420617070726f766520746865206d61726b657420908201527f746f207472616e7366657220746f6b656e73206265696e67206c69737465642e606082015260800190565b60208082526035908201527f4d61726b65743a206d75737420617070726f7665204d61726b657420746f207460408201527f72616e7366657220707269636520746f207061792e0000000000000000000000606082015260800190565b6020808252602a908201527f4d61726b65743a2043616e206f6e6c792061646420746f20455243203131353560408201527f206c697374696e67732e00000000000000000000000000000000000000000000606082015260800190565b6020808252602b908201527f4d61726b65743a20546f74616c206d61726b657420666565732065786365656460408201527f207468652070726963652e000000000000000000000000000000000000000000606082015260800190565b60208082526024908201527f4d61726b65743a206d75737420616464206174206c65617374206f6e6520746f60408201526335b2b71760e11b606082015260800190565b60208082526024908201527f4d61726b65743a20546865207061636b2070726f746f636f6c2069732070617560408201526339b2b21760e11b606082015260800190565b60208082526028908201527f4d61726b65743a206661696c656420746f207472616e736665722070726f746f60408201527f636f6c206375742e000000000000000000000000000000000000000000000000606082015260800190565b6020808252603f908201527f4d61726b65743a206d75737420617070726f766520746865206d61726b65742060408201527f746f207472616e7366657220746f6b656e73206265696e672061646465642e00606082015260800190565b60208082526023908201527f4d61726b65743a20546865206c697374696e6720646f6573206e6f742065786960408201526239ba1760e91b606082015260800190565b60208082526032908201527f4d61726b65743a207468652073616c652068617320656974686572206e6f742060408201527f73746172746564206f7220636c6f7365642e0000000000000000000000000000606082015260800190565b60208082526032908201527f4d61726b65743a2063616e6e6f7420756e6c697374206d6f726520746f6b656e60408201527f73207468616e20617265206c69737465642e0000000000000000000000000000606082015260800190565b60208082526036908201527f4d61726b65743a2043616e6e6f7420756e6c697374206d6f7265207468616e2060408201527f6f6e65206f6620616e2045524320373231204e46542e00000000000000000000606082015260800190565b60208082526027908201527f4d61726b65743a206661696c656420746f207472616e7366657220637265617460408201527f6f72206375742e00000000000000000000000000000000000000000000000000606082015260800190565b60208082526031908201527f4d61726b65743a206d7573742062757920616e20617070726f7072696174652060408201527f616d6f756e74206f6620746f6b656e732e000000000000000000000000000000606082015260800190565b60208082526025908201527f4d61726b65743a206d757374206c697374206174206c65617374206f6e65207460408201527f6f6b656e2e000000000000000000000000000000000000000000000000000000606082015260800190565b60208082526028908201527f4d61726b65743a206661696c656420746f207472616e736665722070726f766960408201527f646572206375742e000000000000000000000000000000000000000000000000606082015260800190565b6020808252601f908201527f5265656e7472616e637947756172643a207265656e7472616e742063616c6c00604082015260600190565b610140810161039f82846135c9565b6001600160801b0391909116815260200190565b90815260200190565b6000610140820190508b82526001600160a01b03808c166020840152808b16604084015289606084015288608084015280881660a0840152508560c08301528460e0830152836101008301526140156101208301846135a7565b9b9a5050505050505050505050565b918252602082015260400190565b60405181810167ffffffffffffffff811182821017156140545761405461411b565b604052919050565b6000821982111561406f5761406f614105565b500190565b60008261408f57634e487b7160e01b81526012600452602481fd5b500490565b60008160001904831182151516156140ae576140ae614105565b500290565b6000828210156140c5576140c5614105565b500390565b6002810460018216806140de57607f821691505b602082108114156140ff57634e487b7160e01b600052602260045260246000fd5b50919050565b634e487b7160e01b600052601160045260246000fd5b634e487b7160e01b600052604160045260246000fd5b6001600160a01b038116811461414657600080fd5b50565b6001600160801b038116811461414657600080fdfea164736f6c6343000800000a",
  "linkReferences": {},
  "deployedLinkReferences": {}
}