{
  "_format": "hh-sol-artifact-1",
  "contractName": "Market",
  "sourceName": "contracts/Market.sol",
  "abi": [
    {
      "inputs": [
        {
          "internalType": "address",
          "name": "_controlCenter",
          "type": "address"
        },
        {
          "internalType": "address",
          "name": "_trustedForwarder",
          "type": "address"
        }
      ],
      "stateMutability": "nonpayable",
      "type": "constructor"
    },
    {
      "anonymous": false,
      "inputs": [
        {
          "indexed": true,
          "internalType": "address",
          "name": "seller",
          "type": "address"
        },
        {
          "indexed": true,
          "internalType": "uint256",
          "name": "listingId",
          "type": "uint256"
        },
        {
          "components": [
            {
              "internalType": "address",
              "name": "seller",
              "type": "address"
            },
            {
              "internalType": "address",
              "name": "assetContract",
              "type": "address"
            },
            {
              "internalType": "uint256",
              "name": "tokenId",
              "type": "uint256"
            },
            {
              "internalType": "uint256",
              "name": "quantity",
              "type": "uint256"
            },
            {
              "internalType": "address",
              "name": "currency",
              "type": "address"
            },
            {
              "internalType": "uint256",
              "name": "pricePerToken",
              "type": "uint256"
            },
            {
              "internalType": "uint256",
              "name": "saleStart",
              "type": "uint256"
            },
            {
              "internalType": "uint256",
              "name": "saleEnd",
              "type": "uint256"
            }
          ],
          "indexed": false,
          "internalType": "struct Market.Listing",
          "name": "listing",
          "type": "tuple"
        }
      ],
      "name": "ListingUpdate",
      "type": "event"
    },
    {
      "anonymous": false,
      "inputs": [
        {
          "indexed": false,
          "internalType": "uint256",
          "name": "protocolFeeBps",
          "type": "uint256"
        },
        {
          "indexed": false,
          "internalType": "uint256",
          "name": "creatorFeeBps",
          "type": "uint256"
        }
      ],
      "name": "MarketFeesUpdated",
      "type": "event"
    },
    {
      "anonymous": false,
      "inputs": [
        {
          "indexed": true,
          "internalType": "address",
          "name": "assetContract",
          "type": "address"
        },
        {
          "indexed": true,
          "internalType": "address",
          "name": "seller",
          "type": "address"
        },
        {
          "indexed": true,
          "internalType": "uint256",
          "name": "listingId",
          "type": "uint256"
        },
        {
          "components": [
            {
              "internalType": "address",
              "name": "seller",
              "type": "address"
            },
            {
              "internalType": "address",
              "name": "assetContract",
              "type": "address"
            },
            {
              "internalType": "uint256",
              "name": "tokenId",
              "type": "uint256"
            },
            {
              "internalType": "uint256",
              "name": "quantity",
              "type": "uint256"
            },
            {
              "internalType": "address",
              "name": "currency",
              "type": "address"
            },
            {
              "internalType": "uint256",
              "name": "pricePerToken",
              "type": "uint256"
            },
            {
              "internalType": "uint256",
              "name": "saleStart",
              "type": "uint256"
            },
            {
              "internalType": "uint256",
              "name": "saleEnd",
              "type": "uint256"
            }
          ],
          "indexed": false,
          "internalType": "struct Market.Listing",
          "name": "listing",
          "type": "tuple"
        }
      ],
      "name": "NewListing",
      "type": "event"
    },
    {
      "anonymous": false,
      "inputs": [
        {
          "indexed": true,
          "internalType": "address",
          "name": "assetContract",
          "type": "address"
        },
        {
          "indexed": true,
          "internalType": "address",
          "name": "seller",
          "type": "address"
        },
        {
          "indexed": true,
          "internalType": "uint256",
          "name": "listingId",
          "type": "uint256"
        },
        {
          "indexed": false,
          "internalType": "address",
          "name": "buyer",
          "type": "address"
        },
        {
          "components": [
            {
              "internalType": "address",
              "name": "seller",
              "type": "address"
            },
            {
              "internalType": "address",
              "name": "assetContract",
              "type": "address"
            },
            {
              "internalType": "uint256",
              "name": "tokenId",
              "type": "uint256"
            },
            {
              "internalType": "uint256",
              "name": "quantity",
              "type": "uint256"
            },
            {
              "internalType": "address",
              "name": "currency",
              "type": "address"
            },
            {
              "internalType": "uint256",
              "name": "pricePerToken",
              "type": "uint256"
            },
            {
              "internalType": "uint256",
              "name": "saleStart",
              "type": "uint256"
            },
            {
              "internalType": "uint256",
              "name": "saleEnd",
              "type": "uint256"
            }
          ],
          "indexed": false,
          "internalType": "struct Market.Listing",
          "name": "listing",
          "type": "tuple"
        }
      ],
      "name": "NewSale",
      "type": "event"
    },
    {
      "inputs": [
        {
          "internalType": "uint256",
          "name": "_listingId",
          "type": "uint256"
        },
        {
          "internalType": "uint256",
          "name": "_quantity",
          "type": "uint256"
        }
      ],
      "name": "addToListing",
      "outputs": [],
      "stateMutability": "nonpayable",
      "type": "function"
    },
    {
      "inputs": [
        {
          "internalType": "uint256",
          "name": "_listingId",
          "type": "uint256"
        },
        {
          "internalType": "uint256",
          "name": "_quantity",
          "type": "uint256"
        }
      ],
      "name": "buy",
      "outputs": [],
      "stateMutability": "nonpayable",
      "type": "function"
    },
    {
      "inputs": [
        {
          "internalType": "uint256",
          "name": "_listingId",
          "type": "uint256"
        }
      ],
      "name": "getListing",
      "outputs": [
        {
          "components": [
            {
              "internalType": "address",
              "name": "seller",
              "type": "address"
            },
            {
              "internalType": "address",
              "name": "assetContract",
              "type": "address"
            },
            {
              "internalType": "uint256",
              "name": "tokenId",
              "type": "uint256"
            },
            {
              "internalType": "uint256",
              "name": "quantity",
              "type": "uint256"
            },
            {
              "internalType": "address",
              "name": "currency",
              "type": "address"
            },
            {
              "internalType": "uint256",
              "name": "pricePerToken",
              "type": "uint256"
            },
            {
              "internalType": "uint256",
              "name": "saleStart",
              "type": "uint256"
            },
            {
              "internalType": "uint256",
              "name": "saleEnd",
              "type": "uint256"
            }
          ],
          "internalType": "struct Market.Listing",
          "name": "listing",
          "type": "tuple"
        }
      ],
      "stateMutability": "view",
      "type": "function"
    },
    {
      "inputs": [
        {
          "internalType": "address",
          "name": "forwarder",
          "type": "address"
        }
      ],
      "name": "isTrustedForwarder",
      "outputs": [
        {
          "internalType": "bool",
          "name": "",
          "type": "bool"
        }
      ],
      "stateMutability": "view",
      "type": "function"
    },
    {
      "inputs": [
        {
          "internalType": "address",
          "name": "_assetContract",
          "type": "address"
        },
        {
          "internalType": "uint256",
          "name": "_tokenId",
          "type": "uint256"
        },
        {
          "internalType": "address",
          "name": "_currency",
          "type": "address"
        },
        {
          "internalType": "uint256",
          "name": "_pricePerToken",
          "type": "uint256"
        },
        {
          "internalType": "uint256",
          "name": "_quantity",
          "type": "uint256"
        },
        {
          "internalType": "uint256",
          "name": "_secondsUntilStart",
          "type": "uint256"
        },
        {
          "internalType": "uint256",
          "name": "_secondsUntilEnd",
          "type": "uint256"
        }
      ],
      "name": "list",
      "outputs": [],
      "stateMutability": "nonpayable",
      "type": "function"
    },
    {
      "inputs": [
        {
          "internalType": "uint256",
          "name": "",
          "type": "uint256"
        }
      ],
      "name": "listings",
      "outputs": [
        {
          "internalType": "address",
          "name": "seller",
          "type": "address"
        },
        {
          "internalType": "address",
          "name": "assetContract",
          "type": "address"
        },
        {
          "internalType": "uint256",
          "name": "tokenId",
          "type": "uint256"
        },
        {
          "internalType": "uint256",
          "name": "quantity",
          "type": "uint256"
        },
        {
          "internalType": "address",
          "name": "currency",
          "type": "address"
        },
        {
          "internalType": "uint256",
          "name": "pricePerToken",
          "type": "uint256"
        },
        {
          "internalType": "uint256",
          "name": "saleStart",
          "type": "uint256"
        },
        {
          "internalType": "uint256",
          "name": "saleEnd",
          "type": "uint256"
        }
      ],
      "stateMutability": "view",
      "type": "function"
    },
    {
      "inputs": [
        {
          "internalType": "address",
          "name": "",
          "type": "address"
        },
        {
          "internalType": "address",
          "name": "",
          "type": "address"
        },
        {
          "internalType": "uint256[]",
          "name": "",
          "type": "uint256[]"
        },
        {
          "internalType": "uint256[]",
          "name": "",
          "type": "uint256[]"
        },
        {
          "internalType": "bytes",
          "name": "",
          "type": "bytes"
        }
      ],
      "name": "onERC1155BatchReceived",
      "outputs": [
        {
          "internalType": "bytes4",
          "name": "",
          "type": "bytes4"
        }
      ],
      "stateMutability": "nonpayable",
      "type": "function"
    },
    {
      "inputs": [
        {
          "internalType": "address",
          "name": "",
          "type": "address"
        },
        {
          "internalType": "address",
          "name": "",
          "type": "address"
        },
        {
          "internalType": "uint256",
          "name": "",
          "type": "uint256"
        },
        {
          "internalType": "uint256",
          "name": "",
          "type": "uint256"
        },
        {
          "internalType": "bytes",
          "name": "",
          "type": "bytes"
        }
      ],
      "name": "onERC1155Received",
      "outputs": [
        {
          "internalType": "bytes4",
          "name": "",
          "type": "bytes4"
        }
      ],
      "stateMutability": "nonpayable",
      "type": "function"
    },
    {
      "inputs": [
        {
          "internalType": "bytes4",
          "name": "interfaceId",
          "type": "bytes4"
        }
      ],
      "name": "supportsInterface",
      "outputs": [
        {
          "internalType": "bool",
          "name": "",
          "type": "bool"
        }
      ],
      "stateMutability": "view",
      "type": "function"
    },
    {
      "inputs": [],
      "name": "totalListings",
      "outputs": [
        {
          "internalType": "uint256",
          "name": "",
          "type": "uint256"
        }
      ],
      "stateMutability": "view",
      "type": "function"
    },
    {
      "inputs": [
        {
          "internalType": "uint256",
          "name": "_listingId",
          "type": "uint256"
        },
        {
          "internalType": "uint256",
          "name": "_quantity",
          "type": "uint256"
        }
      ],
      "name": "unlist",
      "outputs": [],
      "stateMutability": "nonpayable",
      "type": "function"
    },
    {
      "inputs": [
        {
          "internalType": "uint256",
          "name": "_listingId",
          "type": "uint256"
        },
        {
          "internalType": "uint256",
          "name": "_pricePerToken",
          "type": "uint256"
        },
        {
          "internalType": "address",
          "name": "_currency",
          "type": "address"
        },
        {
          "internalType": "uint256",
          "name": "_secondsUntilStart",
          "type": "uint256"
        },
        {
          "internalType": "uint256",
          "name": "_secondsUntilEnd",
          "type": "uint256"
        }
      ],
      "name": "updateListingParams",
      "outputs": [],
      "stateMutability": "nonpayable",
      "type": "function"
    }
  ],
  "bytecode": "0x60806040523480156200001157600080fd5b50604051620022053803806200220583398101604081905262000034916200008b565b6001600081905580546001600160a01b039283166001600160a01b03199182161790915560028054939092169216919091179055620000c2565b80516001600160a01b03811681146200008657600080fd5b919050565b600080604083850312156200009e578182fd5b620000a9836200006e565b9150620000b9602084016200006e565b90509250929050565b61213380620000d26000396000f3fe608060405234801561001057600080fd5b50600436106100d45760003560e01c8063bc197c8111610081578063d6febde81161005b578063d6febde8146101b8578063de74e57b146101cb578063f23a6e61146101f2576100d4565b8063bc197c8114610170578063c78b616c14610190578063d34cbd44146101a5576100d4565b8063572b6c05116100b2578063572b6c0514610137578063583e12b61461014a57806361a69e9b1461015d576100d4565b806301ffc9a7146100d9578063107a274a146101025780634fd69f3c14610122575b600080fd5b6100ec6100e73660046118ff565b610205565b6040516100f99190611afc565b60405180910390f35b610115610110366004611927565b61021e565b6040516100f9919061201e565b610135610130366004611957565b61029f565b005b6100ec6101453660046116fe565b6104e9565b610135610158366004611957565b6104fd565b61013561016b366004611978565b61079f565b61018361017e36600461173d565b61095e565b6040516100f99190611b07565b61019861096f565b6040516100f99190612033565b6101356101b336600461187b565b610975565b6101356101c6366004611957565b610ccd565b6101de6101d9366004611927565b61151e565b6040516100f9989796959493929190611a5b565b6101836102003660046117e7565b61156f565b6001600160e01b03198116630271189760e51b14919050565b6102266115b1565b5060009081526004602081815260409283902083516101008101855281546001600160a01b03908116825260018301548116938201939093526002820154948101949094526003810154606085015291820154166080830152600581015460a0830152600681015460c08301526007015460e082015290565b6102a7611580565b60008381526004602052604090205483906001600160a01b038381169116146102eb5760405162461bcd60e51b81526004016102e290611b79565b60405180910390fd5b60008481526004602081815260409283902083516101008101855281546001600160a01b0390811682526001830154811693820193909352600282015494810194909452600381015460608501819052928101549091166080840152600581015460a0840152600681015460c08401526007015460e08301528411156103835760405162461bcd60e51b81526004016102e290611e73565b80602001516001600160a01b031663f242432a3061039f611580565b8460400151886040518563ffffffff1660e01b81526004016103c49493929190611aa6565b600060405180830381600087803b1580156103de57600080fd5b505af11580156103f2573d6000803e3d6000fd5b50505050838160600181815161040891906120cb565b905250600085815260046020818152604092839020845181546001600160a01b03199081166001600160a01b0392831617835592860151600183018054851691831691909117905593850151600282015560608501516003820155608085015192810180549092169290931691909117905560a0820151600582015560c0820151600682015560e0820151600790910155846104a2611580565b6001600160a01b03167f40b2eb183611885f0fc8fd682535dd3bd2ac4006ca40c8b4456026cd35a7e537836040516104da919061201e565b60405180910390a35050505050565b6001546001600160a01b0390811691161490565b600260009054906101000a90046001600160a01b03166001600160a01b0316639d2f83f06040518163ffffffff1660e01b815260040160206040518083038186803b15801561054b57600080fd5b505afa15801561055f573d6000803e3d6000fd5b505050506040513d601f19601f8201168201806040525081019061058391906118df565b156105a05760405162461bcd60e51b81526004016102e290611cd5565b6105a8611580565b60008381526004602052604090205483906001600160a01b038381169116146105e35760405162461bcd60e51b81526004016102e290611b79565b60008481526004602081815260409283902083516101008101855281546001600160a01b03908116825260018301548116938201939093526002820154948101949094526003810154606085015291820154166080830152600581015460a0830152600681015460c08301526007015460e0820152836106755760405162461bcd60e51b81526004016102e290611c91565b80602001516001600160a01b031663e985e9c5610690611580565b306040518363ffffffff1660e01b81526004016106ae929190611a1d565b60206040518083038186803b1580156106c657600080fd5b505afa1580156106da573d6000803e3d6000fd5b505050506040513d601f19601f820116820180604052508101906106fe91906118df565b61071a5760405162461bcd60e51b81526004016102e290611d76565b80602001516001600160a01b031663f242432a610735611580565b308460400151886040518563ffffffff1660e01b815260040161075b9493929190611aa6565b600060405180830381600087803b15801561077557600080fd5b505af1158015610789573d6000803e3d6000fd5b5050505083816060018181516104089190612074565b6107a7611580565b60008681526004602052604090205486906001600160a01b038381169116146107e25760405162461bcd60e51b81526004016102e290611b79565b60008781526004602090815260409182902082516101008101845281546001600160a01b039081168252600183015481169382019390935260028201549381019390935260038101546060840152600681015460c08401526007015460e083015260a082018890528616608082015261085b8542612074565b60c08201528315610875576108708442612074565b610879565b6000195b60e08201908152600089815260046020818152604092839020855181546001600160a01b03199081166001600160a01b0392831617835592870151600183018054851691831691909117905593860151600282015560608601516003820155608086015192810180549092169290931691909117905560a0830151600582015560c08301516006820155905160079091015587610914611580565b6001600160a01b03167f40b2eb183611885f0fc8fd682535dd3bd2ac4006ca40c8b4456026cd35a7e5378360405161094c919061201e565b60405180910390a35050505050505050565b63bc197c8160e01b95945050505050565b60035481565b600260009054906101000a90046001600160a01b03166001600160a01b0316639d2f83f06040518163ffffffff1660e01b815260040160206040518083038186803b1580156109c357600080fd5b505afa1580156109d7573d6000803e3d6000fd5b505050506040513d601f19601f820116820180604052508101906109fb91906118df565b15610a185760405162461bcd60e51b81526004016102e290611cd5565b60008311610a385760405162461bcd60e51b81526004016102e290611f8a565b866001600160a01b031663e985e9c5610a4f611580565b306040518363ffffffff1660e01b8152600401610a6d929190611a1d565b60206040518083038186803b158015610a8557600080fd5b505afa158015610a99573d6000803e3d6000fd5b505050506040513d601f19601f82011682018060405250810190610abd91906118df565b610ad95760405162461bcd60e51b81526004016102e290611bd6565b866001600160a01b031663f242432a610af0611580565b3089876040518563ffffffff1660e01b8152600401610b129493929190611aa6565b600060405180830381600087803b158015610b2c57600080fd5b505af1158015610b40573d6000803e3d6000fd5b5050600380549250600191506000610b588385612074565b925050819055506000604051806101000160405280610b75611580565b6001600160a01b031681526020018a6001600160a01b03168152602001898152602001868152602001886001600160a01b031681526020018781526020018542610bbf9190612074565b81526020018415610bd957610bd48542612074565b610bdd565b6000195b9052600083815260046020818152604092839020845181546001600160a01b03199081166001600160a01b0392831617835592860151600183018054851691831691909117905593850151600282015560608501516003820155608085015192810180549092169290931691909117905560a0820151600582015560c0820151600682015560e0820151600790910155905081610c78611580565b6001600160a01b03168a6001600160a01b03167fc4e3a0a2aae484e881896aadaf6ae7f47671746befb84f4dec0b41ddbdc29b9884604051610cba919061201e565b60405180910390a4505050505050505050565b60026000541415610cf05760405162461bcd60e51b81526004016102e290611fe7565b600260009081558281526004602052604090205482906001600160a01b0316610d2b5760405162461bcd60e51b81526004016102e290611dd3565b60008381526004602081815260409283902083516101008101855281546001600160a01b03908116825260018301548116938201939093526002820154948101949094526003810154606085015291820154166080830152600581015460a0830152600681015460c08301526007015460e08201528215801590610db3575080606001518311155b610dcf5760405162461bcd60e51b81526004016102e290611f2d565b8060e001514211158015610de757508060c001514210155b610e035760405162461bcd60e51b81526004016102e290611e16565b8281606001818151610e1591906120cb565b9052506000848152600460208181526040808420855181546001600160a01b03199081166001600160a01b0392831617835593870151600183018054861691831691909117905591860151600282015560608601516003820155608086015193810180549093169390911692909217905560a08301516005820181905560c0840151600683015560e0840151600790920191909155610eb59085906120ac565b60a083015190915015610f6a578082608001516001600160a01b031663dd62ed3e610ede611580565b306040518363ffffffff1660e01b8152600401610efc929190611a1d565b60206040518083038186803b158015610f1457600080fd5b505afa158015610f28573d6000803e3d6000fd5b505050506040513d601f19601f82011682018060405250810190610f4c919061193f565b1015610f6a5760405162461bcd60e51b81526004016102e290611c34565b6002546040805163fd967f4760e01b815290516000926001600160a01b03169163fd967f47916004808301926020929190829003018186803b158015610faf57600080fd5b505afa158015610fc3573d6000803e3d6000fd5b505050506040513d601f19601f82011682018060405250810190610fe7919061193f565b600260009054906101000a90046001600160a01b03166001600160a01b0316633f5c3e876040518163ffffffff1660e01b815260040160206040518083038186803b15801561103557600080fd5b505afa158015611049573d6000803e3d6000fd5b505050506040513d601f19601f8201168201806040525081019061106d919061193f565b61107790846120ac565b611081919061208c565b905082608001516001600160a01b03166323b872dd61109e611580565b600260009054906101000a90046001600160a01b03166001600160a01b0316639494995b6040518163ffffffff1660e01b815260040160206040518083038186803b1580156110ec57600080fd5b505afa158015611100573d6000803e3d6000fd5b505050506040513d601f19601f820116820180604052508101906111249190611721565b846040518463ffffffff1660e01b815260040161114393929190611a37565b602060405180830381600087803b15801561115d57600080fd5b505af1158015611171573d6000803e3d6000fd5b505050506040513d601f19601f8201168201806040525081019061119591906118df565b6111b15760405162461bcd60e51b81526004016102e290611d19565b60006111bd82846120cb565b60208501516040516301ffc9a760e01b81529192506001600160a01b0316906301ffc9a7906111f79063152a902d60e11b90600401611b07565b60206040518083038186803b15801561120f57600080fd5b505afa158015611223573d6000803e3d6000fd5b505050506040513d601f19601f8201168201806040525081019061124791906118df565b156113915760008085602001516001600160a01b0316632a55205a8760400151876040518363ffffffff1660e01b815260040161128592919061203c565b604080518083038186803b15801561129c57600080fd5b505afa1580156112b0573d6000803e3d6000fd5b505050506040513d601f19601f820116820180604052508101906112d4919061184e565b90925090506112e381846120cb565b925085608001516001600160a01b03166323b872dd611300611580565b84846040518463ffffffff1660e01b815260040161132093929190611a37565b602060405180830381600087803b15801561133a57600080fd5b505af115801561134e573d6000803e3d6000fd5b505050506040513d601f19601f8201168201806040525081019061137291906118df565b61138e5760405162461bcd60e51b81526004016102e290611ed0565b50505b83608001516001600160a01b03166323b872dd6113ac611580565b86516040516001600160e01b031960e085901b1681526113d29291908690600401611a37565b602060405180830381600087803b1580156113ec57600080fd5b505af1158015611400573d6000803e3d6000fd5b505050506040513d601f19601f8201168201806040525081019061142491906118df565b6114405760405162461bcd60e51b81526004016102e290611b1c565b83602001516001600160a01b031663f242432a3061145c611580565b87604001518a6040518563ffffffff1660e01b81526004016114819493929190611aa6565b600060405180830381600087803b15801561149b57600080fd5b505af11580156114af573d6000803e3d6000fd5b505050508684600001516001600160a01b031685602001516001600160a01b03167f359b9b6008b51f783a07fdf70dbe0e796d762d153172a92b914cc456e6f19f616114f9611580565b88604051611508929190611ade565b60405180910390a4505060016000555050505050565b6004602081905260009182526040909120805460018201546002830154600384015494840154600585015460068601546007909601546001600160a01b039586169794861696939590921692909188565b63f23a6e6160e01b95945050505050565b600061158b336104e9565b1561159f575060131936013560601c6115aa565b6115a76115ad565b90505b90565b3390565b60405180610100016040528060006001600160a01b0316815260200160006001600160a01b03168152602001600081526020016000815260200160006001600160a01b031681526020016000815260200160008152602001600081525090565b600082601f830112611621578081fd5b8135602067ffffffffffffffff82111561163d5761163d6120f8565b80820261164b82820161204a565b838152828101908684018388018501891015611665578687fd5b8693505b85841015611687578035835260019390930192918401918401611669565b50979650505050505050565b600082601f8301126116a3578081fd5b813567ffffffffffffffff8111156116bd576116bd6120f8565b6116d0601f8201601f191660200161204a565b8181528460208386010111156116e4578283fd5b816020850160208301379081016020019190915292915050565b60006020828403121561170f578081fd5b813561171a8161210e565b9392505050565b600060208284031215611732578081fd5b815161171a8161210e565b600080600080600060a08688031215611754578081fd5b853561175f8161210e565b9450602086013561176f8161210e565b9350604086013567ffffffffffffffff8082111561178b578283fd5b61179789838a01611611565b945060608801359150808211156117ac578283fd5b6117b889838a01611611565b935060808801359150808211156117cd578283fd5b506117da88828901611693565b9150509295509295909350565b600080600080600060a086880312156117fe578081fd5b85356118098161210e565b945060208601356118198161210e565b93506040860135925060608601359150608086013567ffffffffffffffff811115611842578182fd5b6117da88828901611693565b60008060408385031215611860578182fd5b825161186b8161210e565b6020939093015192949293505050565b600080600080600080600060e0888a031215611895578182fd5b87356118a08161210e565b96506020880135955060408801356118b78161210e565b969995985095966060810135965060808101359560a0820135955060c0909101359350915050565b6000602082840312156118f0578081fd5b8151801515811461171a578182fd5b600060208284031215611910578081fd5b81356001600160e01b03198116811461171a578182fd5b600060208284031215611938578081fd5b5035919050565b600060208284031215611950578081fd5b5051919050565b60008060408385031215611969578182fd5b50508035926020909101359150565b600080600080600060a0868803121561198f578283fd5b853594506020860135935060408601356119a88161210e565b94979396509394606081013594506080013592915050565b6001600160a01b0380825116835280602083015116602084015260408201516040840152606082015160608401528060808301511660808401525060a081015160a083015260c081015160c083015260e081015160e08301525050565b6001600160a01b0392831681529116602082015260400190565b6001600160a01b039384168152919092166020820152604081019190915260600190565b6001600160a01b0398891681529688166020880152604087019590955260608601939093529416608084015260a083019390935260c082019290925260e08101919091526101000190565b6001600160a01b0394851681529290931660208301526040820152606081019190915260a06080820181905260009082015260c00190565b6001600160a01b0383168152610120810161171a60208301846119c0565b901515815260200190565b6001600160e01b031991909116815260200190565b60208082526026908201527f4d61726b65743a206661696c656420746f207472616e736665722073656c6c6560408201527f72206375742e0000000000000000000000000000000000000000000000000000606082015260800190565b6020808252602f908201527f4d61726b65743a204f6e6c79207468652073656c6c65722063616e2063616c6c60408201527f20746869732066756e6374696f6e2e0000000000000000000000000000000000606082015260800190565b602080825260409082018190527f4d61726b65743a206d75737420617070726f766520746865206d61726b657420908201527f746f207472616e7366657220746f6b656e73206265696e67206c69737465642e606082015260800190565b60208082526035908201527f4d61726b65743a206d75737420617070726f7665204d61726b657420746f207460408201527f72616e7366657220707269636520746f207061792e0000000000000000000000606082015260800190565b60208082526024908201527f4d61726b65743a206d75737420616464206174206c65617374206f6e6520746f60408201526335b2b71760e11b606082015260800190565b60208082526024908201527f4d61726b65743a20546865207061636b2070726f746f636f6c2069732070617560408201526339b2b21760e11b606082015260800190565b60208082526028908201527f4d61726b65743a206661696c656420746f207472616e736665722070726f746f60408201527f636f6c206375742e000000000000000000000000000000000000000000000000606082015260800190565b6020808252603f908201527f4d61726b65743a206d75737420617070726f766520746865206d61726b65742060408201527f746f207472616e7366657220746f6b656e73206265696e672061646465642e00606082015260800190565b60208082526023908201527f4d61726b65743a20546865206c697374696e6720646f6573206e6f742065786960408201526239ba1760e91b606082015260800190565b60208082526032908201527f4d61726b65743a207468652073616c652068617320656974686572206e6f742060408201527f73746172746564206f7220636c6f7365642e0000000000000000000000000000606082015260800190565b60208082526032908201527f4d61726b65743a2063616e6e6f7420756e6c697374206d6f726520746f6b656e60408201527f73207468616e20617265206c69737465642e0000000000000000000000000000606082015260800190565b60208082526027908201527f4d61726b65743a206661696c656420746f207472616e7366657220637265617460408201527f6f72206375742e00000000000000000000000000000000000000000000000000606082015260800190565b60208082526031908201527f4d61726b65743a206d7573742062757920616e20617070726f7072696174652060408201527f616d6f756e74206f6620746f6b656e732e000000000000000000000000000000606082015260800190565b60208082526025908201527f4d61726b65743a206d757374206c697374206174206c65617374206f6e65207460408201527f6f6b656e2e000000000000000000000000000000000000000000000000000000606082015260800190565b6020808252601f908201527f5265656e7472616e637947756172643a207265656e7472616e742063616c6c00604082015260600190565b610100810161202d82846119c0565b92915050565b90815260200190565b918252602082015260400190565b60405181810167ffffffffffffffff8111828210171561206c5761206c6120f8565b604052919050565b60008219821115612087576120876120e2565b500190565b6000826120a757634e487b7160e01b81526012600452602481fd5b500490565b60008160001904831182151516156120c6576120c66120e2565b500290565b6000828210156120dd576120dd6120e2565b500390565b634e487b7160e01b600052601160045260246000fd5b634e487b7160e01b600052604160045260246000fd5b6001600160a01b038116811461212357600080fd5b5056fea164736f6c6343000800000a",
  "linkReferences": {},
  "deployedLinkReferences": {}
}