{
  "_format": "hh-sol-artifact-1",
  "contractName": "Market",
  "sourceName": "contracts/Market.sol",
  "abi": [
    {
      "inputs": [
        {
          "internalType": "address",
          "name": "_controlCenter",
          "type": "address"
        },
        {
          "internalType": "address",
          "name": "_trustedForwarder",
          "type": "address"
        }
      ],
      "stateMutability": "nonpayable",
      "type": "constructor"
    },
    {
      "anonymous": false,
      "inputs": [
        {
          "indexed": true,
          "internalType": "address",
          "name": "seller",
          "type": "address"
        },
        {
          "indexed": true,
          "internalType": "uint256",
          "name": "listingId",
          "type": "uint256"
        },
        {
          "components": [
            {
              "internalType": "address",
              "name": "seller",
              "type": "address"
            },
            {
              "internalType": "address",
              "name": "assetContract",
              "type": "address"
            },
            {
              "internalType": "uint256",
              "name": "tokenId",
              "type": "uint256"
            },
            {
              "internalType": "uint256",
              "name": "quantity",
              "type": "uint256"
            },
            {
              "internalType": "address",
              "name": "currency",
              "type": "address"
            },
            {
              "internalType": "uint256",
              "name": "pricePerToken",
              "type": "uint256"
            },
            {
              "internalType": "uint256",
              "name": "saleStart",
              "type": "uint256"
            },
            {
              "internalType": "uint256",
              "name": "saleEnd",
              "type": "uint256"
            }
          ],
          "indexed": false,
          "internalType": "struct Market.Listing",
          "name": "listing",
          "type": "tuple"
        }
      ],
      "name": "ListingUpdate",
      "type": "event"
    },
    {
      "anonymous": false,
      "inputs": [
        {
          "indexed": false,
          "internalType": "uint256",
          "name": "protocolFeeBps",
          "type": "uint256"
        },
        {
          "indexed": false,
          "internalType": "uint256",
          "name": "creatorFeeBps",
          "type": "uint256"
        }
      ],
      "name": "MarketFeesUpdated",
      "type": "event"
    },
    {
      "anonymous": false,
      "inputs": [
        {
          "indexed": true,
          "internalType": "address",
          "name": "assetContract",
          "type": "address"
        },
        {
          "indexed": true,
          "internalType": "address",
          "name": "seller",
          "type": "address"
        },
        {
          "indexed": true,
          "internalType": "uint256",
          "name": "listingId",
          "type": "uint256"
        },
        {
          "components": [
            {
              "internalType": "address",
              "name": "seller",
              "type": "address"
            },
            {
              "internalType": "address",
              "name": "assetContract",
              "type": "address"
            },
            {
              "internalType": "uint256",
              "name": "tokenId",
              "type": "uint256"
            },
            {
              "internalType": "uint256",
              "name": "quantity",
              "type": "uint256"
            },
            {
              "internalType": "address",
              "name": "currency",
              "type": "address"
            },
            {
              "internalType": "uint256",
              "name": "pricePerToken",
              "type": "uint256"
            },
            {
              "internalType": "uint256",
              "name": "saleStart",
              "type": "uint256"
            },
            {
              "internalType": "uint256",
              "name": "saleEnd",
              "type": "uint256"
            }
          ],
          "indexed": false,
          "internalType": "struct Market.Listing",
          "name": "listing",
          "type": "tuple"
        }
      ],
      "name": "NewListing",
      "type": "event"
    },
    {
      "anonymous": false,
      "inputs": [
        {
          "indexed": true,
          "internalType": "address",
          "name": "assetContract",
          "type": "address"
        },
        {
          "indexed": true,
          "internalType": "address",
          "name": "seller",
          "type": "address"
        },
        {
          "indexed": true,
          "internalType": "uint256",
          "name": "listingId",
          "type": "uint256"
        },
        {
          "indexed": false,
          "internalType": "address",
          "name": "buyer",
          "type": "address"
        },
        {
          "indexed": false,
          "internalType": "uint256",
          "name": "quanitytBought",
          "type": "uint256"
        },
        {
          "components": [
            {
              "internalType": "address",
              "name": "seller",
              "type": "address"
            },
            {
              "internalType": "address",
              "name": "assetContract",
              "type": "address"
            },
            {
              "internalType": "uint256",
              "name": "tokenId",
              "type": "uint256"
            },
            {
              "internalType": "uint256",
              "name": "quantity",
              "type": "uint256"
            },
            {
              "internalType": "address",
              "name": "currency",
              "type": "address"
            },
            {
              "internalType": "uint256",
              "name": "pricePerToken",
              "type": "uint256"
            },
            {
              "internalType": "uint256",
              "name": "saleStart",
              "type": "uint256"
            },
            {
              "internalType": "uint256",
              "name": "saleEnd",
              "type": "uint256"
            }
          ],
          "indexed": false,
          "internalType": "struct Market.Listing",
          "name": "listing",
          "type": "tuple"
        }
      ],
      "name": "NewSale",
      "type": "event"
    },
    {
      "inputs": [],
      "name": "_contractURI",
      "outputs": [
        {
          "internalType": "string",
          "name": "",
          "type": "string"
        }
      ],
      "stateMutability": "view",
      "type": "function"
    },
    {
      "inputs": [
        {
          "internalType": "uint256",
          "name": "_listingId",
          "type": "uint256"
        },
        {
          "internalType": "uint256",
          "name": "_quantity",
          "type": "uint256"
        }
      ],
      "name": "addToListing",
      "outputs": [],
      "stateMutability": "nonpayable",
      "type": "function"
    },
    {
      "inputs": [
        {
          "internalType": "uint256",
          "name": "_listingId",
          "type": "uint256"
        },
        {
          "internalType": "uint256",
          "name": "_quantity",
          "type": "uint256"
        }
      ],
      "name": "buy",
      "outputs": [],
      "stateMutability": "nonpayable",
      "type": "function"
    },
    {
      "inputs": [],
      "name": "contractURI",
      "outputs": [
        {
          "internalType": "string",
          "name": "",
          "type": "string"
        }
      ],
      "stateMutability": "view",
      "type": "function"
    },
    {
      "inputs": [
        {
          "internalType": "uint256",
          "name": "_listingId",
          "type": "uint256"
        }
      ],
      "name": "getListing",
      "outputs": [
        {
          "components": [
            {
              "internalType": "address",
              "name": "seller",
              "type": "address"
            },
            {
              "internalType": "address",
              "name": "assetContract",
              "type": "address"
            },
            {
              "internalType": "uint256",
              "name": "tokenId",
              "type": "uint256"
            },
            {
              "internalType": "uint256",
              "name": "quantity",
              "type": "uint256"
            },
            {
              "internalType": "address",
              "name": "currency",
              "type": "address"
            },
            {
              "internalType": "uint256",
              "name": "pricePerToken",
              "type": "uint256"
            },
            {
              "internalType": "uint256",
              "name": "saleStart",
              "type": "uint256"
            },
            {
              "internalType": "uint256",
              "name": "saleEnd",
              "type": "uint256"
            }
          ],
          "internalType": "struct Market.Listing",
          "name": "listing",
          "type": "tuple"
        }
      ],
      "stateMutability": "view",
      "type": "function"
    },
    {
      "inputs": [
        {
          "internalType": "address",
          "name": "forwarder",
          "type": "address"
        }
      ],
      "name": "isTrustedForwarder",
      "outputs": [
        {
          "internalType": "bool",
          "name": "",
          "type": "bool"
        }
      ],
      "stateMutability": "view",
      "type": "function"
    },
    {
      "inputs": [
        {
          "internalType": "address",
          "name": "_assetContract",
          "type": "address"
        },
        {
          "internalType": "uint256",
          "name": "_tokenId",
          "type": "uint256"
        },
        {
          "internalType": "address",
          "name": "_currency",
          "type": "address"
        },
        {
          "internalType": "uint256",
          "name": "_pricePerToken",
          "type": "uint256"
        },
        {
          "internalType": "uint256",
          "name": "_quantity",
          "type": "uint256"
        },
        {
          "internalType": "uint256",
          "name": "_secondsUntilStart",
          "type": "uint256"
        },
        {
          "internalType": "uint256",
          "name": "_secondsUntilEnd",
          "type": "uint256"
        }
      ],
      "name": "list",
      "outputs": [],
      "stateMutability": "nonpayable",
      "type": "function"
    },
    {
      "inputs": [
        {
          "internalType": "uint256",
          "name": "",
          "type": "uint256"
        }
      ],
      "name": "listings",
      "outputs": [
        {
          "internalType": "address",
          "name": "seller",
          "type": "address"
        },
        {
          "internalType": "address",
          "name": "assetContract",
          "type": "address"
        },
        {
          "internalType": "uint256",
          "name": "tokenId",
          "type": "uint256"
        },
        {
          "internalType": "uint256",
          "name": "quantity",
          "type": "uint256"
        },
        {
          "internalType": "address",
          "name": "currency",
          "type": "address"
        },
        {
          "internalType": "uint256",
          "name": "pricePerToken",
          "type": "uint256"
        },
        {
          "internalType": "uint256",
          "name": "saleStart",
          "type": "uint256"
        },
        {
          "internalType": "uint256",
          "name": "saleEnd",
          "type": "uint256"
        }
      ],
      "stateMutability": "view",
      "type": "function"
    },
    {
      "inputs": [
        {
          "internalType": "address",
          "name": "",
          "type": "address"
        },
        {
          "internalType": "address",
          "name": "",
          "type": "address"
        },
        {
          "internalType": "uint256[]",
          "name": "",
          "type": "uint256[]"
        },
        {
          "internalType": "uint256[]",
          "name": "",
          "type": "uint256[]"
        },
        {
          "internalType": "bytes",
          "name": "",
          "type": "bytes"
        }
      ],
      "name": "onERC1155BatchReceived",
      "outputs": [
        {
          "internalType": "bytes4",
          "name": "",
          "type": "bytes4"
        }
      ],
      "stateMutability": "nonpayable",
      "type": "function"
    },
    {
      "inputs": [
        {
          "internalType": "address",
          "name": "",
          "type": "address"
        },
        {
          "internalType": "address",
          "name": "",
          "type": "address"
        },
        {
          "internalType": "uint256",
          "name": "",
          "type": "uint256"
        },
        {
          "internalType": "uint256",
          "name": "",
          "type": "uint256"
        },
        {
          "internalType": "bytes",
          "name": "",
          "type": "bytes"
        }
      ],
      "name": "onERC1155Received",
      "outputs": [
        {
          "internalType": "bytes4",
          "name": "",
          "type": "bytes4"
        }
      ],
      "stateMutability": "nonpayable",
      "type": "function"
    },
    {
      "inputs": [
        {
          "internalType": "string",
          "name": "_URI",
          "type": "string"
        }
      ],
      "name": "setContractURI",
      "outputs": [],
      "stateMutability": "nonpayable",
      "type": "function"
    },
    {
      "inputs": [
        {
          "internalType": "bytes4",
          "name": "interfaceId",
          "type": "bytes4"
        }
      ],
      "name": "supportsInterface",
      "outputs": [
        {
          "internalType": "bool",
          "name": "",
          "type": "bool"
        }
      ],
      "stateMutability": "view",
      "type": "function"
    },
    {
      "inputs": [],
      "name": "totalListings",
      "outputs": [
        {
          "internalType": "uint256",
          "name": "",
          "type": "uint256"
        }
      ],
      "stateMutability": "view",
      "type": "function"
    },
    {
      "inputs": [
        {
          "internalType": "uint256",
          "name": "_listingId",
          "type": "uint256"
        },
        {
          "internalType": "uint256",
          "name": "_quantity",
          "type": "uint256"
        }
      ],
      "name": "unlist",
      "outputs": [],
      "stateMutability": "nonpayable",
      "type": "function"
    },
    {
      "inputs": [
        {
          "internalType": "uint256",
          "name": "_listingId",
          "type": "uint256"
        },
        {
          "internalType": "uint256",
          "name": "_pricePerToken",
          "type": "uint256"
        },
        {
          "internalType": "address",
          "name": "_currency",
          "type": "address"
        },
        {
          "internalType": "uint256",
          "name": "_secondsUntilStart",
          "type": "uint256"
        },
        {
          "internalType": "uint256",
          "name": "_secondsUntilEnd",
          "type": "uint256"
        }
      ],
      "name": "updateListingParams",
      "outputs": [],
      "stateMutability": "nonpayable",
      "type": "function"
    }
  ],
  "bytecode": "0x60806040523480156200001157600080fd5b50604051620026b6380380620026b683398101604081905262000034916200008b565b6001600081905580546001600160a01b039283166001600160a01b03199182161790915560028054939092169216919091179055620000c2565b80516001600160a01b03811681146200008657600080fd5b919050565b600080604083850312156200009e578182fd5b620000a9836200006e565b9150620000b9602084016200006e565b90509250929050565b6125e480620000d26000396000f3fe608060405234801561001057600080fd5b50600436106100f55760003560e01c8063bc197c8111610097578063d6febde811610066578063d6febde814610201578063de74e57b14610214578063e8a3d4851461023b578063f23a6e6114610243576100f5565b8063bc197c81146101a4578063c0e72740146101c4578063c78b616c146101d9578063d34cbd44146101ee576100f5565b8063572b6c05116100d3578063572b6c0514610158578063583e12b61461016b57806361a69e9b1461017e578063938e3d7b14610191576100f5565b806301ffc9a7146100fa578063107a274a146101235780634fd69f3c14610143575b600080fd5b61010d610108366004611c4a565b610256565b60405161011a9190611eab565b60405180910390f35b610136610131366004611cdf565b61026f565b60405161011a9190612494565b610156610151366004611cf7565b6102f2565b005b61010d610166366004611a31565b61053c565b610156610179366004611cf7565b610550565b61015661018c366004611d18565b6107f4565b61015661019f366004611c72565b6109b1565b6101b76101b2366004611a70565b610ad1565b60405161011a9190611ecd565b6101cc610ae2565b60405161011a9190611ee2565b6101e1610b70565b60405161011a91906124a9565b6101566101fc366004611bae565b610b76565b61015661020f366004611cf7565b610ecc565b610227610222366004611cdf565b611722565b60405161011a989796959493929190611dfb565b6101cc611775565b6101b7610251366004611b1a565b611808565b6001600160e01b03198116630271189760e51b14919050565b61027761184b565b5060009081526005602081815260409283902083516101008101855281546001600160a01b039081168252600183015481169382019390935260028201549481019490945260038101546060850152600481015490911660808401529081015460a0830152600681015460c08301526007015460e082015290565b6102fa611819565b60008381526005602052604090205483906001600160a01b0383811691161461033e5760405162461bcd60e51b815260040161033590611f92565b60405180910390fd5b60008481526005602081815260409283902083516101008101855281546001600160a01b0390811682526001830154811693820193909352600282015494810194909452600381015460608501819052600482015490921660808501529182015460a0840152600682015460c084015260079091015460e08301528411156103d85760405162461bcd60e51b81526004016103359061228c565b80602001516001600160a01b031663f242432a306103f4611819565b8460400151886040518563ffffffff1660e01b81526004016104199493929190611e46565b600060405180830381600087803b15801561043357600080fd5b505af1158015610447573d6000803e3d6000fd5b50505050838160600181815161045d9190612541565b905250600085815260056020818152604092839020845181546001600160a01b03199081166001600160a01b03928316178355928601516001830180548516918316919091179055938501516002820155606085015160038201556080850151600482018054909316941693909317905560a08301519082015560c0820151600682015560e0820151600790910155846104f5611819565b6001600160a01b03167f40b2eb183611885f0fc8fd682535dd3bd2ac4006ca40c8b4456026cd35a7e5378360405161052d9190612494565b60405180910390a35050505050565b6001546001600160a01b0390811691161490565b600260009054906101000a90046001600160a01b03166001600160a01b0316639d2f83f06040518163ffffffff1660e01b815260040160206040518083038186803b15801561059e57600080fd5b505afa1580156105b2573d6000803e3d6000fd5b505050506040513d601f19601f820116820180604052508101906105d69190611c12565b156105f35760405162461bcd60e51b8152600401610335906120ee565b6105fb611819565b60008381526005602052604090205483906001600160a01b038381169116146106365760405162461bcd60e51b815260040161033590611f92565b60008481526005602081815260409283902083516101008101855281546001600160a01b039081168252600183015481169382019390935260028201549481019490945260038101546060850152600481015490911660808401529081015460a0830152600681015460c08301526007015460e0820152836106ca5760405162461bcd60e51b8152600401610335906120aa565b80602001516001600160a01b031663e985e9c56106e5611819565b306040518363ffffffff1660e01b8152600401610703929190611dbd565b60206040518083038186803b15801561071b57600080fd5b505afa15801561072f573d6000803e3d6000fd5b505050506040513d601f19601f820116820180604052508101906107539190611c12565b61076f5760405162461bcd60e51b81526004016103359061218f565b80602001516001600160a01b031663f242432a61078a611819565b308460400151886040518563ffffffff1660e01b81526004016107b09493929190611e46565b600060405180830381600087803b1580156107ca57600080fd5b505af11580156107de573d6000803e3d6000fd5b50505050838160600181815161045d91906124ea565b6107fc611819565b60008681526005602052604090205486906001600160a01b038381169116146108375760405162461bcd60e51b815260040161033590611f92565b60008781526005602090815260409182902082516101008101845281546001600160a01b039081168252600183015481169382019390935260028201549381019390935260038101546060840152600681015460c08401526007015460e083015260a08201889052861660808201526108b085426124ea565b60c082015283156108ca576108c584426124ea565b6108ce565b6000195b60e08201908152600089815260056020818152604092839020855181546001600160a01b03199081166001600160a01b03928316178355928701516001830180548516918316919091179055938601516002820155606086015160038201556080860151600482018054909316941693909317905560a08401519082015560c08301516006820155905160079091015587610967611819565b6001600160a01b03167f40b2eb183611885f0fc8fd682535dd3bd2ac4006ca40c8b4456026cd35a7e5378360405161099f9190612494565b60405180910390a35050505050505050565b60025460408051634a32c6bf60e11b8152905133926001600160a01b0316916391d148549183916394658d7e916004808301926020929190829003018186803b1580156109fd57600080fd5b505afa158015610a11573d6000803e3d6000fd5b505050506040513d601f19601f82011682018060405250810190610a359190611c32565b836040518363ffffffff1660e01b8152600401610a53929190611eb6565b60206040518083038186803b158015610a6b57600080fd5b505afa158015610a7f573d6000803e3d6000fd5b505050506040513d601f19601f82011682018060405250810190610aa39190611c12565b610abf5760405162461bcd60e51b8152600401610335906122e9565b610acb600484846118ab565b50505050565b63bc197c8160e01b95945050505050565b60048054610aef90612558565b80601f0160208091040260200160405190810160405280929190818152602001828054610b1b90612558565b8015610b685780601f10610b3d57610100808354040283529160200191610b68565b820191906000526020600020905b815481529060010190602001808311610b4b57829003601f168201915b505050505081565b60035481565b600260009054906101000a90046001600160a01b03166001600160a01b0316639d2f83f06040518163ffffffff1660e01b815260040160206040518083038186803b158015610bc457600080fd5b505afa158015610bd8573d6000803e3d6000fd5b505050506040513d601f19601f82011682018060405250810190610bfc9190611c12565b15610c195760405162461bcd60e51b8152600401610335906120ee565b60008311610c395760405162461bcd60e51b815260040161033590612400565b866001600160a01b031663e985e9c5610c50611819565b306040518363ffffffff1660e01b8152600401610c6e929190611dbd565b60206040518083038186803b158015610c8657600080fd5b505afa158015610c9a573d6000803e3d6000fd5b505050506040513d601f19601f82011682018060405250810190610cbe9190611c12565b610cda5760405162461bcd60e51b815260040161033590611fef565b866001600160a01b031663f242432a610cf1611819565b3089876040518563ffffffff1660e01b8152600401610d139493929190611e46565b600060405180830381600087803b158015610d2d57600080fd5b505af1158015610d41573d6000803e3d6000fd5b5050600380549250600191506000610d5983856124ea565b925050819055506000604051806101000160405280610d76611819565b6001600160a01b031681526020018a6001600160a01b03168152602001898152602001868152602001886001600160a01b031681526020018781526020018542610dc091906124ea565b81526020018415610dda57610dd585426124ea565b610dde565b6000195b9052600083815260056020818152604092839020845181546001600160a01b03199081166001600160a01b03928316178355928601516001830180548516918316919091179055938501516002820155606085015160038201556080850151600482018054909316941693909317905560a08301519082015560c0820151600682015560e0820151600790910155905081610e77611819565b6001600160a01b03168a6001600160a01b03167fc4e3a0a2aae484e881896aadaf6ae7f47671746befb84f4dec0b41ddbdc29b9884604051610eb99190612494565b60405180910390a4505050505050505050565b60026000541415610eef5760405162461bcd60e51b81526004016103359061245d565b600260009081558281526005602052604090205482906001600160a01b0316610f2a5760405162461bcd60e51b8152600401610335906121ec565b60008381526005602081815260409283902083516101008101855281546001600160a01b039081168252600183015481169382019390935260028201549481019490945260038101546060850152600481015490911660808401529081015460a0830152600681015460c08301526007015460e08201528215801590610fb4575080606001518311155b610fd05760405162461bcd60e51b8152600401610335906123a3565b8060e001514211158015610fe857508060c001514210155b6110045760405162461bcd60e51b81526004016103359061222f565b82816060018181516110169190612541565b905250600084815260056020818152604092839020845181546001600160a01b03199081166001600160a01b03928316178355928601516001830180548516918316919091179055938501516002820155606085015160038201556080850151600482018054909316941693909317905560a083015190820181905560c0830151600683015560e083015160079092019190915515611645576000838260a001516110c19190612522565b90508082608001516001600160a01b031663dd62ed3e6110df611819565b306040518363ffffffff1660e01b81526004016110fd929190611dbd565b60206040518083038186803b15801561111557600080fd5b505afa158015611129573d6000803e3d6000fd5b505050506040513d601f19601f8201168201806040525081019061114d9190611c32565b101561116b5760405162461bcd60e51b81526004016103359061204d565b6002546040805163fd967f4760e01b815290516000926001600160a01b03169163fd967f47916004808301926020929190829003018186803b1580156111b057600080fd5b505afa1580156111c4573d6000803e3d6000fd5b505050506040513d601f19601f820116820180604052508101906111e89190611c32565b600260009054906101000a90046001600160a01b03166001600160a01b0316633f5c3e876040518163ffffffff1660e01b815260040160206040518083038186803b15801561123657600080fd5b505afa15801561124a573d6000803e3d6000fd5b505050506040513d601f19601f8201168201806040525081019061126e9190611c32565b6112789084612522565b6112829190612502565b905082608001516001600160a01b03166323b872dd61129f611819565b600260009054906101000a90046001600160a01b03166001600160a01b0316639494995b6040518163ffffffff1660e01b815260040160206040518083038186803b1580156112ed57600080fd5b505afa158015611301573d6000803e3d6000fd5b505050506040513d601f19601f820116820180604052508101906113259190611a54565b846040518463ffffffff1660e01b815260040161134493929190611dd7565b602060405180830381600087803b15801561135e57600080fd5b505af1158015611372573d6000803e3d6000fd5b505050506040513d601f19601f820116820180604052508101906113969190611c12565b6113b25760405162461bcd60e51b815260040161033590612132565b60006113be8284612541565b60208501516040516301ffc9a760e01b81529192506001600160a01b0316906301ffc9a7906113f89063152a902d60e11b90600401611ecd565b60206040518083038186803b15801561141057600080fd5b505afa158015611424573d6000803e3d6000fd5b505050506040513d601f19601f820116820180604052508101906114489190611c12565b156115925760008085602001516001600160a01b0316632a55205a8760400151876040518363ffffffff1660e01b81526004016114869291906124b2565b604080518083038186803b15801561149d57600080fd5b505afa1580156114b1573d6000803e3d6000fd5b505050506040513d601f19601f820116820180604052508101906114d59190611b81565b90925090506114e48184612541565b925085608001516001600160a01b03166323b872dd611501611819565b84846040518463ffffffff1660e01b815260040161152193929190611dd7565b602060405180830381600087803b15801561153b57600080fd5b505af115801561154f573d6000803e3d6000fd5b505050506040513d601f19601f820116820180604052508101906115739190611c12565b61158f5760405162461bcd60e51b815260040161033590612346565b50505b83608001516001600160a01b03166323b872dd6115ad611819565b86516040516001600160e01b031960e085901b1681526115d39291908690600401611dd7565b602060405180830381600087803b1580156115ed57600080fd5b505af1158015611601573d6000803e3d6000fd5b505050506040513d601f19601f820116820180604052508101906116259190611c12565b6116415760405162461bcd60e51b815260040161033590611f35565b5050505b80602001516001600160a01b031663f242432a30611661611819565b8460400151876040518563ffffffff1660e01b81526004016116869493929190611e46565b600060405180830381600087803b1580156116a057600080fd5b505af11580156116b4573d6000803e3d6000fd5b505050508381600001516001600160a01b031682602001516001600160a01b03167f80674284310884cfbeeae285fcde88fb22925af96f88a281cc383dcfda5980866116fe611819565b878660405161170f93929190611e7e565b60405180910390a4505060016000555050565b6005602081905260009182526040909120805460018201546002830154600384015460048501549585015460068601546007909601546001600160a01b0395861697948616969395929490921692909188565b60606004805461178490612558565b80601f01602080910402602001604051908101604052809291908181526020018280546117b090612558565b80156117fd5780601f106117d2576101008083540402835291602001916117fd565b820191906000526020600020905b8154815290600101906020018083116117e057829003601f168201915b505050505090505b90565b63f23a6e6160e01b95945050505050565b60006118243361053c565b15611838575060131936013560601c611805565b611840611847565b9050611805565b3390565b60405180610100016040528060006001600160a01b0316815260200160006001600160a01b03168152602001600081526020016000815260200160006001600160a01b031681526020016000815260200160008152602001600081525090565b8280546118b790612558565b90600052602060002090601f0160209004810192826118d9576000855561191f565b82601f106118f25782800160ff1982351617855561191f565b8280016001018555821561191f579182015b8281111561191f578235825591602001919060010190611904565b5061192b92915061192f565b5090565b5b8082111561192b5760008155600101611930565b600082601f830112611954578081fd5b8135602067ffffffffffffffff821115611970576119706125a9565b80820261197e8282016124c0565b838152828101908684018388018501891015611998578687fd5b8693505b858410156119ba57803583526001939093019291840191840161199c565b50979650505050505050565b600082601f8301126119d6578081fd5b813567ffffffffffffffff8111156119f0576119f06125a9565b611a03601f8201601f19166020016124c0565b818152846020838601011115611a17578283fd5b816020850160208301379081016020019190915292915050565b600060208284031215611a42578081fd5b8135611a4d816125bf565b9392505050565b600060208284031215611a65578081fd5b8151611a4d816125bf565b600080600080600060a08688031215611a87578081fd5b8535611a92816125bf565b94506020860135611aa2816125bf565b9350604086013567ffffffffffffffff80821115611abe578283fd5b611aca89838a01611944565b94506060880135915080821115611adf578283fd5b611aeb89838a01611944565b93506080880135915080821115611b00578283fd5b50611b0d888289016119c6565b9150509295509295909350565b600080600080600060a08688031215611b31578081fd5b8535611b3c816125bf565b94506020860135611b4c816125bf565b93506040860135925060608601359150608086013567ffffffffffffffff811115611b75578182fd5b611b0d888289016119c6565b60008060408385031215611b93578182fd5b8251611b9e816125bf565b6020939093015192949293505050565b600080600080600080600060e0888a031215611bc8578182fd5b8735611bd3816125bf565b9650602088013595506040880135611bea816125bf565b969995985095966060810135965060808101359560a0820135955060c0909101359350915050565b600060208284031215611c23578081fd5b81518015158114611a4d578182fd5b600060208284031215611c43578081fd5b5051919050565b600060208284031215611c5b578081fd5b81356001600160e01b031981168114611a4d578182fd5b60008060208385031215611c84578182fd5b823567ffffffffffffffff80821115611c9b578384fd5b818501915085601f830112611cae578384fd5b813581811115611cbc578485fd5b866020828501011115611ccd578485fd5b60209290920196919550909350505050565b600060208284031215611cf0578081fd5b5035919050565b60008060408385031215611d09578182fd5b50508035926020909101359150565b600080600080600060a08688031215611d2f578283fd5b85359450602086013593506040860135611d48816125bf565b94979396509394606081013594506080013592915050565b6001600160a01b0380825116835280602083015116602084015260408201516040840152606082015160608401528060808301511660808401525060a081015160a083015260c081015160c083015260e081015160e08301525050565b6001600160a01b0392831681529116602082015260400190565b6001600160a01b039384168152919092166020820152604081019190915260600190565b6001600160a01b0398891681529688166020880152604087019590955260608601939093529416608084015260a083019390935260c082019290925260e08101919091526101000190565b6001600160a01b0394851681529290931660208301526040820152606081019190915260a06080820181905260009082015260c00190565b6001600160a01b0384168152602081018390526101408101611ea36040830184611d60565b949350505050565b901515815260200190565b9182526001600160a01b0316602082015260400190565b6001600160e01b031991909116815260200190565b6000602080835283518082850152825b81811015611f0e57858101830151858201604001528201611ef2565b81811115611f1f5783604083870101525b50601f01601f1916929092016040019392505050565b60208082526026908201527f4d61726b65743a206661696c656420746f207472616e736665722073656c6c6560408201527f72206375742e0000000000000000000000000000000000000000000000000000606082015260800190565b6020808252602f908201527f4d61726b65743a204f6e6c79207468652073656c6c65722063616e2063616c6c60408201527f20746869732066756e6374696f6e2e0000000000000000000000000000000000606082015260800190565b602080825260409082018190527f4d61726b65743a206d75737420617070726f766520746865206d61726b657420908201527f746f207472616e7366657220746f6b656e73206265696e67206c69737465642e606082015260800190565b60208082526035908201527f4d61726b65743a206d75737420617070726f7665204d61726b657420746f207460408201527f72616e7366657220707269636520746f207061792e0000000000000000000000606082015260800190565b60208082526024908201527f4d61726b65743a206d75737420616464206174206c65617374206f6e6520746f60408201526335b2b71760e11b606082015260800190565b60208082526024908201527f4d61726b65743a20546865207061636b2070726f746f636f6c2069732070617560408201526339b2b21760e11b606082015260800190565b60208082526028908201527f4d61726b65743a206661696c656420746f207472616e736665722070726f746f60408201527f636f6c206375742e000000000000000000000000000000000000000000000000606082015260800190565b6020808252603f908201527f4d61726b65743a206d75737420617070726f766520746865206d61726b65742060408201527f746f207472616e7366657220746f6b656e73206265696e672061646465642e00606082015260800190565b60208082526023908201527f4d61726b65743a20546865206c697374696e6720646f6573206e6f742065786960408201526239ba1760e91b606082015260800190565b60208082526032908201527f4d61726b65743a207468652073616c652068617320656974686572206e6f742060408201527f73746172746564206f7220636c6f7365642e0000000000000000000000000000606082015260800190565b60208082526032908201527f4d61726b65743a2063616e6e6f7420756e6c697374206d6f726520746f6b656e60408201527f73207468616e20617265206c69737465642e0000000000000000000000000000606082015260800190565b60208082526032908201527f4e46543a206f6e6c7920612070726f746f636f6c2061646d696e2063616e206360408201527f616c6c20746869732066756e6374696f6e2e0000000000000000000000000000606082015260800190565b60208082526027908201527f4d61726b65743a206661696c656420746f207472616e7366657220637265617460408201527f6f72206375742e00000000000000000000000000000000000000000000000000606082015260800190565b60208082526031908201527f4d61726b65743a206d7573742062757920616e20617070726f7072696174652060408201527f616d6f756e74206f6620746f6b656e732e000000000000000000000000000000606082015260800190565b60208082526025908201527f4d61726b65743a206d757374206c697374206174206c65617374206f6e65207460408201527f6f6b656e2e000000000000000000000000000000000000000000000000000000606082015260800190565b6020808252601f908201527f5265656e7472616e637947756172643a207265656e7472616e742063616c6c00604082015260600190565b61010081016124a38284611d60565b92915050565b90815260200190565b918252602082015260400190565b60405181810167ffffffffffffffff811182821017156124e2576124e26125a9565b604052919050565b600082198211156124fd576124fd612593565b500190565b60008261251d57634e487b7160e01b81526012600452602481fd5b500490565b600081600019048311821515161561253c5761253c612593565b500290565b60008282101561255357612553612593565b500390565b60028104600182168061256c57607f821691505b6020821081141561258d57634e487b7160e01b600052602260045260246000fd5b50919050565b634e487b7160e01b600052601160045260246000fd5b634e487b7160e01b600052604160045260246000fd5b6001600160a01b03811681146125d457600080fd5b5056fea164736f6c6343000800000a",
  "linkReferences": {},
  "deployedLinkReferences": {}
}