{
  "_format": "hh-sol-artifact-1",
  "contractName": "Market",
  "sourceName": "contracts/Market.sol",
  "abi": [
    {
      "inputs": [
        {
          "internalType": "address payable",
          "name": "_controlCenter",
          "type": "address"
        },
        {
          "internalType": "address",
          "name": "_trustedForwarder",
          "type": "address"
        },
        {
          "internalType": "string",
          "name": "_uri",
          "type": "string"
        },
        {
          "internalType": "uint128",
          "name": "_marketFeeBps",
          "type": "uint128"
        }
      ],
      "stateMutability": "nonpayable",
      "type": "constructor"
    },
    {
      "anonymous": false,
      "inputs": [
        {
          "indexed": true,
          "internalType": "address",
          "name": "seller",
          "type": "address"
        },
        {
          "indexed": true,
          "internalType": "uint256",
          "name": "listingId",
          "type": "uint256"
        },
        {
          "components": [
            {
              "internalType": "uint256",
              "name": "listingId",
              "type": "uint256"
            },
            {
              "internalType": "address",
              "name": "seller",
              "type": "address"
            },
            {
              "internalType": "address",
              "name": "assetContract",
              "type": "address"
            },
            {
              "internalType": "uint256",
              "name": "tokenId",
              "type": "uint256"
            },
            {
              "internalType": "uint256",
              "name": "quantity",
              "type": "uint256"
            },
            {
              "internalType": "address",
              "name": "currency",
              "type": "address"
            },
            {
              "internalType": "uint256",
              "name": "pricePerToken",
              "type": "uint256"
            },
            {
              "internalType": "uint256",
              "name": "saleStart",
              "type": "uint256"
            },
            {
              "internalType": "uint256",
              "name": "saleEnd",
              "type": "uint256"
            },
            {
              "internalType": "uint256",
              "name": "tokensPerBuyer",
              "type": "uint256"
            },
            {
              "internalType": "enum Market.TokenType",
              "name": "tokenType",
              "type": "uint8"
            }
          ],
          "indexed": false,
          "internalType": "struct Market.Listing",
          "name": "listing",
          "type": "tuple"
        }
      ],
      "name": "ListingUpdate",
      "type": "event"
    },
    {
      "anonymous": false,
      "inputs": [
        {
          "indexed": false,
          "internalType": "uint128",
          "name": "newFee",
          "type": "uint128"
        }
      ],
      "name": "MarketFeeUpdate",
      "type": "event"
    },
    {
      "anonymous": false,
      "inputs": [
        {
          "indexed": true,
          "internalType": "address",
          "name": "assetContract",
          "type": "address"
        },
        {
          "indexed": true,
          "internalType": "address",
          "name": "seller",
          "type": "address"
        },
        {
          "indexed": true,
          "internalType": "uint256",
          "name": "listingId",
          "type": "uint256"
        },
        {
          "components": [
            {
              "internalType": "uint256",
              "name": "listingId",
              "type": "uint256"
            },
            {
              "internalType": "address",
              "name": "seller",
              "type": "address"
            },
            {
              "internalType": "address",
              "name": "assetContract",
              "type": "address"
            },
            {
              "internalType": "uint256",
              "name": "tokenId",
              "type": "uint256"
            },
            {
              "internalType": "uint256",
              "name": "quantity",
              "type": "uint256"
            },
            {
              "internalType": "address",
              "name": "currency",
              "type": "address"
            },
            {
              "internalType": "uint256",
              "name": "pricePerToken",
              "type": "uint256"
            },
            {
              "internalType": "uint256",
              "name": "saleStart",
              "type": "uint256"
            },
            {
              "internalType": "uint256",
              "name": "saleEnd",
              "type": "uint256"
            },
            {
              "internalType": "uint256",
              "name": "tokensPerBuyer",
              "type": "uint256"
            },
            {
              "internalType": "enum Market.TokenType",
              "name": "tokenType",
              "type": "uint8"
            }
          ],
          "indexed": false,
          "internalType": "struct Market.Listing",
          "name": "listing",
          "type": "tuple"
        }
      ],
      "name": "NewListing",
      "type": "event"
    },
    {
      "anonymous": false,
      "inputs": [
        {
          "indexed": true,
          "internalType": "address",
          "name": "assetContract",
          "type": "address"
        },
        {
          "indexed": true,
          "internalType": "address",
          "name": "seller",
          "type": "address"
        },
        {
          "indexed": true,
          "internalType": "uint256",
          "name": "listingId",
          "type": "uint256"
        },
        {
          "indexed": false,
          "internalType": "address",
          "name": "buyer",
          "type": "address"
        },
        {
          "indexed": false,
          "internalType": "uint256",
          "name": "quantity",
          "type": "uint256"
        },
        {
          "components": [
            {
              "internalType": "uint256",
              "name": "listingId",
              "type": "uint256"
            },
            {
              "internalType": "address",
              "name": "seller",
              "type": "address"
            },
            {
              "internalType": "address",
              "name": "assetContract",
              "type": "address"
            },
            {
              "internalType": "uint256",
              "name": "tokenId",
              "type": "uint256"
            },
            {
              "internalType": "uint256",
              "name": "quantity",
              "type": "uint256"
            },
            {
              "internalType": "address",
              "name": "currency",
              "type": "address"
            },
            {
              "internalType": "uint256",
              "name": "pricePerToken",
              "type": "uint256"
            },
            {
              "internalType": "uint256",
              "name": "saleStart",
              "type": "uint256"
            },
            {
              "internalType": "uint256",
              "name": "saleEnd",
              "type": "uint256"
            },
            {
              "internalType": "uint256",
              "name": "tokensPerBuyer",
              "type": "uint256"
            },
            {
              "internalType": "enum Market.TokenType",
              "name": "tokenType",
              "type": "uint8"
            }
          ],
          "indexed": false,
          "internalType": "struct Market.Listing",
          "name": "listing",
          "type": "tuple"
        }
      ],
      "name": "NewSale",
      "type": "event"
    },
    {
      "anonymous": false,
      "inputs": [
        {
          "indexed": false,
          "internalType": "address",
          "name": "account",
          "type": "address"
        }
      ],
      "name": "Paused",
      "type": "event"
    },
    {
      "anonymous": false,
      "inputs": [
        {
          "indexed": false,
          "internalType": "bool",
          "name": "restricted",
          "type": "bool"
        }
      ],
      "name": "RestrictedListerRoleUpdated",
      "type": "event"
    },
    {
      "anonymous": false,
      "inputs": [
        {
          "indexed": true,
          "internalType": "bytes32",
          "name": "role",
          "type": "bytes32"
        },
        {
          "indexed": true,
          "internalType": "bytes32",
          "name": "previousAdminRole",
          "type": "bytes32"
        },
        {
          "indexed": true,
          "internalType": "bytes32",
          "name": "newAdminRole",
          "type": "bytes32"
        }
      ],
      "name": "RoleAdminChanged",
      "type": "event"
    },
    {
      "anonymous": false,
      "inputs": [
        {
          "indexed": true,
          "internalType": "bytes32",
          "name": "role",
          "type": "bytes32"
        },
        {
          "indexed": true,
          "internalType": "address",
          "name": "account",
          "type": "address"
        },
        {
          "indexed": true,
          "internalType": "address",
          "name": "sender",
          "type": "address"
        }
      ],
      "name": "RoleGranted",
      "type": "event"
    },
    {
      "anonymous": false,
      "inputs": [
        {
          "indexed": true,
          "internalType": "bytes32",
          "name": "role",
          "type": "bytes32"
        },
        {
          "indexed": true,
          "internalType": "address",
          "name": "account",
          "type": "address"
        },
        {
          "indexed": true,
          "internalType": "address",
          "name": "sender",
          "type": "address"
        }
      ],
      "name": "RoleRevoked",
      "type": "event"
    },
    {
      "anonymous": false,
      "inputs": [
        {
          "indexed": false,
          "internalType": "address",
          "name": "account",
          "type": "address"
        }
      ],
      "name": "Unpaused",
      "type": "event"
    },
    {
      "inputs": [],
      "name": "DEFAULT_ADMIN_ROLE",
      "outputs": [
        {
          "internalType": "bytes32",
          "name": "",
          "type": "bytes32"
        }
      ],
      "stateMutability": "view",
      "type": "function"
    },
    {
      "inputs": [],
      "name": "LISTER_ROLE",
      "outputs": [
        {
          "internalType": "bytes32",
          "name": "",
          "type": "bytes32"
        }
      ],
      "stateMutability": "view",
      "type": "function"
    },
    {
      "inputs": [],
      "name": "PAUSER_ROLE",
      "outputs": [
        {
          "internalType": "bytes32",
          "name": "",
          "type": "bytes32"
        }
      ],
      "stateMutability": "view",
      "type": "function"
    },
    {
      "inputs": [],
      "name": "_contractURI",
      "outputs": [
        {
          "internalType": "string",
          "name": "",
          "type": "string"
        }
      ],
      "stateMutability": "view",
      "type": "function"
    },
    {
      "inputs": [
        {
          "internalType": "uint256",
          "name": "_listingId",
          "type": "uint256"
        },
        {
          "internalType": "uint256",
          "name": "_quantity",
          "type": "uint256"
        }
      ],
      "name": "addToListing",
      "outputs": [],
      "stateMutability": "nonpayable",
      "type": "function"
    },
    {
      "inputs": [
        {
          "internalType": "uint256",
          "name": "",
          "type": "uint256"
        },
        {
          "internalType": "address",
          "name": "",
          "type": "address"
        }
      ],
      "name": "boughtFromListing",
      "outputs": [
        {
          "internalType": "uint256",
          "name": "",
          "type": "uint256"
        }
      ],
      "stateMutability": "view",
      "type": "function"
    },
    {
      "inputs": [
        {
          "internalType": "uint256",
          "name": "_listingId",
          "type": "uint256"
        },
        {
          "internalType": "uint256",
          "name": "_quantity",
          "type": "uint256"
        }
      ],
      "name": "buy",
      "outputs": [],
      "stateMutability": "nonpayable",
      "type": "function"
    },
    {
      "inputs": [],
      "name": "contractURI",
      "outputs": [
        {
          "internalType": "string",
          "name": "",
          "type": "string"
        }
      ],
      "stateMutability": "view",
      "type": "function"
    },
    {
      "inputs": [],
      "name": "getAllListings",
      "outputs": [
        {
          "components": [
            {
              "internalType": "uint256",
              "name": "listingId",
              "type": "uint256"
            },
            {
              "internalType": "address",
              "name": "seller",
              "type": "address"
            },
            {
              "internalType": "address",
              "name": "assetContract",
              "type": "address"
            },
            {
              "internalType": "uint256",
              "name": "tokenId",
              "type": "uint256"
            },
            {
              "internalType": "uint256",
              "name": "quantity",
              "type": "uint256"
            },
            {
              "internalType": "address",
              "name": "currency",
              "type": "address"
            },
            {
              "internalType": "uint256",
              "name": "pricePerToken",
              "type": "uint256"
            },
            {
              "internalType": "uint256",
              "name": "saleStart",
              "type": "uint256"
            },
            {
              "internalType": "uint256",
              "name": "saleEnd",
              "type": "uint256"
            },
            {
              "internalType": "uint256",
              "name": "tokensPerBuyer",
              "type": "uint256"
            },
            {
              "internalType": "enum Market.TokenType",
              "name": "tokenType",
              "type": "uint8"
            }
          ],
          "internalType": "struct Market.Listing[]",
          "name": "allListings",
          "type": "tuple[]"
        }
      ],
      "stateMutability": "view",
      "type": "function"
    },
    {
      "inputs": [
        {
          "internalType": "uint256",
          "name": "_listingId",
          "type": "uint256"
        }
      ],
      "name": "getListing",
      "outputs": [
        {
          "components": [
            {
              "internalType": "uint256",
              "name": "listingId",
              "type": "uint256"
            },
            {
              "internalType": "address",
              "name": "seller",
              "type": "address"
            },
            {
              "internalType": "address",
              "name": "assetContract",
              "type": "address"
            },
            {
              "internalType": "uint256",
              "name": "tokenId",
              "type": "uint256"
            },
            {
              "internalType": "uint256",
              "name": "quantity",
              "type": "uint256"
            },
            {
              "internalType": "address",
              "name": "currency",
              "type": "address"
            },
            {
              "internalType": "uint256",
              "name": "pricePerToken",
              "type": "uint256"
            },
            {
              "internalType": "uint256",
              "name": "saleStart",
              "type": "uint256"
            },
            {
              "internalType": "uint256",
              "name": "saleEnd",
              "type": "uint256"
            },
            {
              "internalType": "uint256",
              "name": "tokensPerBuyer",
              "type": "uint256"
            },
            {
              "internalType": "enum Market.TokenType",
              "name": "tokenType",
              "type": "uint8"
            }
          ],
          "internalType": "struct Market.Listing",
          "name": "listing",
          "type": "tuple"
        }
      ],
      "stateMutability": "view",
      "type": "function"
    },
    {
      "inputs": [
        {
          "internalType": "address",
          "name": "_assetContract",
          "type": "address"
        },
        {
          "internalType": "uint256",
          "name": "_tokenId",
          "type": "uint256"
        }
      ],
      "name": "getListingsByAsset",
      "outputs": [
        {
          "components": [
            {
              "internalType": "uint256",
              "name": "listingId",
              "type": "uint256"
            },
            {
              "internalType": "address",
              "name": "seller",
              "type": "address"
            },
            {
              "internalType": "address",
              "name": "assetContract",
              "type": "address"
            },
            {
              "internalType": "uint256",
              "name": "tokenId",
              "type": "uint256"
            },
            {
              "internalType": "uint256",
              "name": "quantity",
              "type": "uint256"
            },
            {
              "internalType": "address",
              "name": "currency",
              "type": "address"
            },
            {
              "internalType": "uint256",
              "name": "pricePerToken",
              "type": "uint256"
            },
            {
              "internalType": "uint256",
              "name": "saleStart",
              "type": "uint256"
            },
            {
              "internalType": "uint256",
              "name": "saleEnd",
              "type": "uint256"
            },
            {
              "internalType": "uint256",
              "name": "tokensPerBuyer",
              "type": "uint256"
            },
            {
              "internalType": "enum Market.TokenType",
              "name": "tokenType",
              "type": "uint8"
            }
          ],
          "internalType": "struct Market.Listing[]",
          "name": "tokenListings",
          "type": "tuple[]"
        }
      ],
      "stateMutability": "view",
      "type": "function"
    },
    {
      "inputs": [
        {
          "internalType": "address",
          "name": "_assetContract",
          "type": "address"
        }
      ],
      "name": "getListingsByAssetContract",
      "outputs": [
        {
          "components": [
            {
              "internalType": "uint256",
              "name": "listingId",
              "type": "uint256"
            },
            {
              "internalType": "address",
              "name": "seller",
              "type": "address"
            },
            {
              "internalType": "address",
              "name": "assetContract",
              "type": "address"
            },
            {
              "internalType": "uint256",
              "name": "tokenId",
              "type": "uint256"
            },
            {
              "internalType": "uint256",
              "name": "quantity",
              "type": "uint256"
            },
            {
              "internalType": "address",
              "name": "currency",
              "type": "address"
            },
            {
              "internalType": "uint256",
              "name": "pricePerToken",
              "type": "uint256"
            },
            {
              "internalType": "uint256",
              "name": "saleStart",
              "type": "uint256"
            },
            {
              "internalType": "uint256",
              "name": "saleEnd",
              "type": "uint256"
            },
            {
              "internalType": "uint256",
              "name": "tokensPerBuyer",
              "type": "uint256"
            },
            {
              "internalType": "enum Market.TokenType",
              "name": "tokenType",
              "type": "uint8"
            }
          ],
          "internalType": "struct Market.Listing[]",
          "name": "tokenListings",
          "type": "tuple[]"
        }
      ],
      "stateMutability": "view",
      "type": "function"
    },
    {
      "inputs": [
        {
          "internalType": "address",
          "name": "_seller",
          "type": "address"
        }
      ],
      "name": "getListingsBySeller",
      "outputs": [
        {
          "components": [
            {
              "internalType": "uint256",
              "name": "listingId",
              "type": "uint256"
            },
            {
              "internalType": "address",
              "name": "seller",
              "type": "address"
            },
            {
              "internalType": "address",
              "name": "assetContract",
              "type": "address"
            },
            {
              "internalType": "uint256",
              "name": "tokenId",
              "type": "uint256"
            },
            {
              "internalType": "uint256",
              "name": "quantity",
              "type": "uint256"
            },
            {
              "internalType": "address",
              "name": "currency",
              "type": "address"
            },
            {
              "internalType": "uint256",
              "name": "pricePerToken",
              "type": "uint256"
            },
            {
              "internalType": "uint256",
              "name": "saleStart",
              "type": "uint256"
            },
            {
              "internalType": "uint256",
              "name": "saleEnd",
              "type": "uint256"
            },
            {
              "internalType": "uint256",
              "name": "tokensPerBuyer",
              "type": "uint256"
            },
            {
              "internalType": "enum Market.TokenType",
              "name": "tokenType",
              "type": "uint8"
            }
          ],
          "internalType": "struct Market.Listing[]",
          "name": "sellerListings",
          "type": "tuple[]"
        }
      ],
      "stateMutability": "view",
      "type": "function"
    },
    {
      "inputs": [
        {
          "internalType": "bytes32",
          "name": "role",
          "type": "bytes32"
        }
      ],
      "name": "getRoleAdmin",
      "outputs": [
        {
          "internalType": "bytes32",
          "name": "",
          "type": "bytes32"
        }
      ],
      "stateMutability": "view",
      "type": "function"
    },
    {
      "inputs": [
        {
          "internalType": "bytes32",
          "name": "role",
          "type": "bytes32"
        },
        {
          "internalType": "uint256",
          "name": "index",
          "type": "uint256"
        }
      ],
      "name": "getRoleMember",
      "outputs": [
        {
          "internalType": "address",
          "name": "",
          "type": "address"
        }
      ],
      "stateMutability": "view",
      "type": "function"
    },
    {
      "inputs": [
        {
          "internalType": "bytes32",
          "name": "role",
          "type": "bytes32"
        }
      ],
      "name": "getRoleMemberCount",
      "outputs": [
        {
          "internalType": "uint256",
          "name": "",
          "type": "uint256"
        }
      ],
      "stateMutability": "view",
      "type": "function"
    },
    {
      "inputs": [
        {
          "internalType": "bytes32",
          "name": "role",
          "type": "bytes32"
        },
        {
          "internalType": "address",
          "name": "account",
          "type": "address"
        }
      ],
      "name": "grantRole",
      "outputs": [],
      "stateMutability": "nonpayable",
      "type": "function"
    },
    {
      "inputs": [
        {
          "internalType": "bytes32",
          "name": "role",
          "type": "bytes32"
        },
        {
          "internalType": "address",
          "name": "account",
          "type": "address"
        }
      ],
      "name": "hasRole",
      "outputs": [
        {
          "internalType": "bool",
          "name": "",
          "type": "bool"
        }
      ],
      "stateMutability": "view",
      "type": "function"
    },
    {
      "inputs": [
        {
          "internalType": "address",
          "name": "forwarder",
          "type": "address"
        }
      ],
      "name": "isTrustedForwarder",
      "outputs": [
        {
          "internalType": "bool",
          "name": "",
          "type": "bool"
        }
      ],
      "stateMutability": "view",
      "type": "function"
    },
    {
      "inputs": [
        {
          "internalType": "address",
          "name": "_assetContract",
          "type": "address"
        },
        {
          "internalType": "uint256",
          "name": "_tokenId",
          "type": "uint256"
        },
        {
          "internalType": "address",
          "name": "_currency",
          "type": "address"
        },
        {
          "internalType": "uint256",
          "name": "_pricePerToken",
          "type": "uint256"
        },
        {
          "internalType": "uint256",
          "name": "_quantity",
          "type": "uint256"
        },
        {
          "internalType": "uint256",
          "name": "_tokensPerBuyer",
          "type": "uint256"
        },
        {
          "internalType": "uint256",
          "name": "_secondsUntilStart",
          "type": "uint256"
        },
        {
          "internalType": "uint256",
          "name": "_secondsUntilEnd",
          "type": "uint256"
        }
      ],
      "name": "list",
      "outputs": [],
      "stateMutability": "nonpayable",
      "type": "function"
    },
    {
      "inputs": [
        {
          "internalType": "uint256",
          "name": "",
          "type": "uint256"
        }
      ],
      "name": "listings",
      "outputs": [
        {
          "internalType": "uint256",
          "name": "listingId",
          "type": "uint256"
        },
        {
          "internalType": "address",
          "name": "seller",
          "type": "address"
        },
        {
          "internalType": "address",
          "name": "assetContract",
          "type": "address"
        },
        {
          "internalType": "uint256",
          "name": "tokenId",
          "type": "uint256"
        },
        {
          "internalType": "uint256",
          "name": "quantity",
          "type": "uint256"
        },
        {
          "internalType": "address",
          "name": "currency",
          "type": "address"
        },
        {
          "internalType": "uint256",
          "name": "pricePerToken",
          "type": "uint256"
        },
        {
          "internalType": "uint256",
          "name": "saleStart",
          "type": "uint256"
        },
        {
          "internalType": "uint256",
          "name": "saleEnd",
          "type": "uint256"
        },
        {
          "internalType": "uint256",
          "name": "tokensPerBuyer",
          "type": "uint256"
        },
        {
          "internalType": "enum Market.TokenType",
          "name": "tokenType",
          "type": "uint8"
        }
      ],
      "stateMutability": "view",
      "type": "function"
    },
    {
      "inputs": [],
      "name": "marketFeeBps",
      "outputs": [
        {
          "internalType": "uint128",
          "name": "",
          "type": "uint128"
        }
      ],
      "stateMutability": "view",
      "type": "function"
    },
    {
      "inputs": [
        {
          "internalType": "bytes[]",
          "name": "data",
          "type": "bytes[]"
        }
      ],
      "name": "multicall",
      "outputs": [
        {
          "internalType": "bytes[]",
          "name": "results",
          "type": "bytes[]"
        }
      ],
      "stateMutability": "nonpayable",
      "type": "function"
    },
    {
      "inputs": [
        {
          "internalType": "address",
          "name": "",
          "type": "address"
        },
        {
          "internalType": "address",
          "name": "",
          "type": "address"
        },
        {
          "internalType": "uint256[]",
          "name": "",
          "type": "uint256[]"
        },
        {
          "internalType": "uint256[]",
          "name": "",
          "type": "uint256[]"
        },
        {
          "internalType": "bytes",
          "name": "",
          "type": "bytes"
        }
      ],
      "name": "onERC1155BatchReceived",
      "outputs": [
        {
          "internalType": "bytes4",
          "name": "",
          "type": "bytes4"
        }
      ],
      "stateMutability": "nonpayable",
      "type": "function"
    },
    {
      "inputs": [
        {
          "internalType": "address",
          "name": "",
          "type": "address"
        },
        {
          "internalType": "address",
          "name": "",
          "type": "address"
        },
        {
          "internalType": "uint256",
          "name": "",
          "type": "uint256"
        },
        {
          "internalType": "uint256",
          "name": "",
          "type": "uint256"
        },
        {
          "internalType": "bytes",
          "name": "",
          "type": "bytes"
        }
      ],
      "name": "onERC1155Received",
      "outputs": [
        {
          "internalType": "bytes4",
          "name": "",
          "type": "bytes4"
        }
      ],
      "stateMutability": "nonpayable",
      "type": "function"
    },
    {
      "inputs": [
        {
          "internalType": "address",
          "name": "",
          "type": "address"
        },
        {
          "internalType": "address",
          "name": "",
          "type": "address"
        },
        {
          "internalType": "uint256",
          "name": "",
          "type": "uint256"
        },
        {
          "internalType": "bytes",
          "name": "",
          "type": "bytes"
        }
      ],
      "name": "onERC721Received",
      "outputs": [
        {
          "internalType": "bytes4",
          "name": "",
          "type": "bytes4"
        }
      ],
      "stateMutability": "pure",
      "type": "function"
    },
    {
      "inputs": [],
      "name": "paused",
      "outputs": [
        {
          "internalType": "bool",
          "name": "",
          "type": "bool"
        }
      ],
      "stateMutability": "view",
      "type": "function"
    },
    {
      "inputs": [
        {
          "internalType": "bytes32",
          "name": "role",
          "type": "bytes32"
        },
        {
          "internalType": "address",
          "name": "account",
          "type": "address"
        }
      ],
      "name": "renounceRole",
      "outputs": [],
      "stateMutability": "nonpayable",
      "type": "function"
    },
    {
      "inputs": [],
      "name": "restrictedListerRoleOnly",
      "outputs": [
        {
          "internalType": "bool",
          "name": "",
          "type": "bool"
        }
      ],
      "stateMutability": "view",
      "type": "function"
    },
    {
      "inputs": [
        {
          "internalType": "bytes32",
          "name": "role",
          "type": "bytes32"
        },
        {
          "internalType": "address",
          "name": "account",
          "type": "address"
        }
      ],
      "name": "revokeRole",
      "outputs": [],
      "stateMutability": "nonpayable",
      "type": "function"
    },
    {
      "inputs": [
        {
          "internalType": "string",
          "name": "_URI",
          "type": "string"
        }
      ],
      "name": "setContractURI",
      "outputs": [],
      "stateMutability": "nonpayable",
      "type": "function"
    },
    {
      "inputs": [
        {
          "internalType": "uint128",
          "name": "feeBps",
          "type": "uint128"
        }
      ],
      "name": "setMarketFeeBps",
      "outputs": [],
      "stateMutability": "nonpayable",
      "type": "function"
    },
    {
      "inputs": [
        {
          "internalType": "bool",
          "name": "restricted",
          "type": "bool"
        }
      ],
      "name": "setRestrictedListerRoleOnly",
      "outputs": [],
      "stateMutability": "nonpayable",
      "type": "function"
    },
    {
      "inputs": [
        {
          "internalType": "bytes4",
          "name": "interfaceId",
          "type": "bytes4"
        }
      ],
      "name": "supportsInterface",
      "outputs": [
        {
          "internalType": "bool",
          "name": "",
          "type": "bool"
        }
      ],
      "stateMutability": "view",
      "type": "function"
    },
    {
      "inputs": [],
      "name": "totalListings",
      "outputs": [
        {
          "internalType": "uint256",
          "name": "",
          "type": "uint256"
        }
      ],
      "stateMutability": "view",
      "type": "function"
    },
    {
      "inputs": [
        {
          "internalType": "uint256",
          "name": "_listingId",
          "type": "uint256"
        },
        {
          "internalType": "uint256",
          "name": "_quantity",
          "type": "uint256"
        }
      ],
      "name": "unlist",
      "outputs": [],
      "stateMutability": "nonpayable",
      "type": "function"
    },
    {
      "inputs": [
        {
          "internalType": "uint256",
          "name": "_listingId",
          "type": "uint256"
        },
        {
          "internalType": "uint256",
          "name": "_pricePerToken",
          "type": "uint256"
        },
        {
          "internalType": "address",
          "name": "_currency",
          "type": "address"
        },
        {
          "internalType": "uint256",
          "name": "_tokensPerBuyer",
          "type": "uint256"
        },
        {
          "internalType": "uint256",
          "name": "_secondsUntilStart",
          "type": "uint256"
        },
        {
          "internalType": "uint256",
          "name": "_secondsUntilEnd",
          "type": "uint256"
        }
      ],
      "name": "updateListingParams",
      "outputs": [],
      "stateMutability": "nonpayable",
      "type": "function"
    }
  ],
  "bytecode": "0x60806040523480156200001157600080fd5b50604051620052f0380380620052f083398101604081905262000034916200048d565b6002805460ff191690556001600355600480546001600160a01b0319166001600160a01b038516179055815162000073906007906020850190620003ca565b50600580546001600160a01b0319166001600160a01b038616179055620000a560006200009f62000118565b62000134565b620000d47ff94103142c1baabe9ac2b5d1487bf783de9e69cfeea9a72f5c9c94afd7877b8c6200009f62000118565b620001037f65d7a28e3265b37a6474929f336521b332c1681b933f6cb9f3376673440d862a6200009f62000118565b6200010e8162000177565b5050505062000610565b60006200012f6200026960201b62002a671760201c565b905090565b6200014b8282620002a260201b62002a941760201c565b60008281526001602090815260409091206200017291839062002aa2620002b2821b17901c565b505050565b620001b060006200018762000118565b6000918252602082815260408084206001600160a01b0393909316845291905290205460ff1690565b620002155760405162461bcd60e51b815260206004820152602b60248201527f6f6e6c792061206d6f64756c652061646d696e2063616e2063616c6c2074686960448201526a3990333ab731ba34b7b71760a91b606482015260840160405180910390fd5b600880546001600160801b0319166001600160801b0383169081179091556040519081527fd50e64e6eb05cd7ceafe1a28b1a7ad949edb90451106259c7117252d605178ef9060200160405180910390a150565b6004546000906001600160a01b03163314156200028d575060131936013560601c90565b6200012f620002d260201b62002ab71760201c565b620002ae8282620002d6565b5050565b6000620002c9836001600160a01b03841662000378565b90505b92915050565b3390565b6000828152602081815260408083206001600160a01b038516845290915290205460ff16620002ae576000828152602081815260408083206001600160a01b03851684529091529020805460ff191660011790556200033462000118565b6001600160a01b0316816001600160a01b0316837f2f8788117e7eff1d82e926ec794901d17c78024a50270940304540a733656f0d60405160405180910390a45050565b6000818152600183016020526040812054620003c157508154600181810184556000848152602080822090930184905584548482528286019093526040902091909155620002cc565b506000620002cc565b828054620003d890620005a4565b90600052602060002090601f016020900481019282620003fc576000855562000447565b82601f106200041757805160ff191683800117855562000447565b8280016001018555821562000447579182015b82811115620004475782518255916020019190600101906200042a565b506200045592915062000459565b5090565b5b808211156200045557600081556001016200045a565b80516001600160801b03811681146200048857600080fd5b919050565b60008060008060808587031215620004a3578384fd5b8451620004b081620005f7565b80945050602080860151620004c581620005f7565b60408701519094506001600160401b0380821115620004e2578485fd5b818801915088601f830112620004f6578485fd5b8151818111156200050b576200050b620005e1565b604051601f8201601f19908116603f01168101908382118183101715620005365762000536620005e1565b816040528281528b868487010111156200054e578788fd5b8793505b8284101562000571578484018601518185018701529285019262000552565b828411156200058257878684830101525b809750505050505050620005996060860162000470565b905092959194509250565b600181811c90821680620005b957607f821691505b60208210811415620005db57634e487b7160e01b600052602260045260246000fd5b50919050565b634e487b7160e01b600052604160045260246000fd5b6001600160a01b03811681146200060d57600080fd5b50565b614cd080620006206000396000f3fe608060405234801561001057600080fd5b50600436106102275760003560e01c80639010d07c11610130578063c78b616c116100b8578063de74e57b1161007c578063de74e57b14610563578063deb26b94146105f3578063e63ab1e91461061a578063e8a3d48514610641578063f23a6e611461064957600080fd5b8063c78b616c1461050e578063ca15c87314610517578063d547741f1461052a578063d6febde81461053d578063d8cba2511461055057600080fd5b8063a217fddf116100ff578063a217fddf146104aa578063ac9650d8146104b2578063ae73ccec146104d2578063bc197c81146104da578063c0e72740146104f957600080fd5b80639010d07c1461042257806391d148541461044d578063938e3d7b146104845780639b782ff21461049757600080fd5b8063354c7ab6116101b35780634fd69f3c116101825780634fd69f3c146103bb578063572b6c05146103ce578063583e12b6146103f05780635c975abb1461040357806361096ec61461040e57600080fd5b8063354c7ab61461035757806336568abe1461036a5780633f5c3e871461037d5780634edeaa81146103a857600080fd5b80631d0cd75e116101fa5780631d0cd75e146102b557806320c7852c146102d5578063248a9ca31461030e5780632f2ff15d14610331578063318510121461034457600080fd5b806301ffc9a71461022c57806309679b3914610254578063107a274a14610269578063150b7a0214610289575b600080fd5b61023f61023a36600461466e565b610668565b60405190151581526020015b60405180910390f35b6102676102623660046146d6565b61069f565b005b61027c6102773660046145ee565b61076f565b60405161024b9190614a38565b61029c6102973660046143a9565b61085c565b6040516001600160e01b0319909116815260200161024b565b6102c86102c3366004614481565b61086e565b60405161024b9190614987565b6103006102e336600461461e565b600a60209081526000928352604080842090915290825290205481565b60405190815260200161024b565b61030061031c3660046145ee565b60009081526020819052604090206001015490565b61026761033f36600461461e565b610ac7565b61026761035236600461470e565b610aee565b6102676103653660046145b6565b610e68565b61026761037836600461461e565b610f22565b600854610390906001600160801b031681565b6040516001600160801b03909116815260200161024b565b6102c86103b63660046142c7565b610f44565b6102676103c936600461464d565b611164565b61023f6103dc3660046142c7565b6004546001600160a01b0391821691161490565b6102676103fe36600461464d565b61145b565b60025460ff1661023f565b60085461023f90600160801b900460ff1681565b61043561043036600461464d565b61194f565b6040516001600160a01b03909116815260200161024b565b61023f61045b36600461461e565b6000918252602082815260408084206001600160a01b0393909316845291905290205460ff1690565b610267610492366004614696565b61196e565b6102676104a53660046144d9565b611af6565b610300600081565b6104c56104c0366004614546565b611ee7565b60405161024b9190614926565b6102c8612006565b61029c6104e83660046142ff565b63bc197c8160e01b95945050505050565b61050161219c565b60405161024b91906149d6565b61030060065481565b6103006105253660046145ee565b61222a565b61026761053836600461461e565b612241565b61026761054b36600461464d565b61224b565b6102c861055e3660046142c7565b6127be565b6105dc6105713660046145ee565b600960208190526000918252604090912080546001820154600283015460038401546004850154600586015460068701546007880154600889015499890154600a9099015497996001600160a01b039788169996881698959794969490931694919390929160ff168b565b60405161024b9b9a99989796959493929190614a47565b6103007ff94103142c1baabe9ac2b5d1487bf783de9e69cfeea9a72f5c9c94afd7877b8c81565b6103007f65d7a28e3265b37a6474929f336521b332c1681b933f6cb9f3376673440d862a81565b6105016129d5565b61029c61065736600461441a565b63f23a6e6160e01b95945050505050565b60006001600160e01b03198216630271189760e51b148061069957506001600160e01b03198216630a85bd0160e11b145b92915050565b6106ac600061045b612abb565b6107115760405162461bcd60e51b815260206004820152602b60248201527f6f6e6c792061206d6f64756c652061646d696e2063616e2063616c6c2074686960448201526a3990333ab731ba34b7b71760a91b60648201526084015b60405180910390fd5b600880546fffffffffffffffffffffffffffffffff19166001600160801b0383169081179091556040519081527fd50e64e6eb05cd7ceafe1a28b1a7ad949edb90451106259c7117252d605178ef906020015b60405180910390a150565b610777614066565b600082815260096020818152604092839020835161016081018552815481526001808301546001600160a01b039081169483019490945260028301548416958201959095526003820154606082015260048201546080820152600582015490921660a0830152600681015460c0830152600781015460e0830152600881015461010083015291820154610120820152600a820154909261014084019160ff169081111561083457634e487b7160e01b600052602160045260246000fd5b600181111561085357634e487b7160e01b600052602160045260246000fd5b90525092915050565b630a85bd0160e11b5b95945050505050565b6006546060906000805b828110156108e1576000818152600960205260409020600201546001600160a01b0387811691161480156108bc575060008181526009602052604090206003015485145b156108cf576108cc600183614b2e565b91505b6108da600182614b2e565b9050610878565b508067ffffffffffffffff81111561090957634e487b7160e01b600052604160045260246000fd5b60405190808252806020026020018201604052801561094257816020015b61092f614066565b8152602001906001900390816109275790505b5092506000805b83811015610abd576000818152600960205260409020600201546001600160a01b03888116911614801561098d575060008181526009602052604090206003015486145b15610aab57600081815260096020818152604092839020835161016081018552815481526001808301546001600160a01b039081169483019490945260028301548416958201959095526003820154606082015260048201546080820152600582015490921660a0830152600681015460c0830152600781015460e0830152600881015461010083015291820154610120820152600a820154909261014084019160ff1690811115610a4f57634e487b7160e01b600052602160045260246000fd5b6001811115610a6e57634e487b7160e01b600052602160045260246000fd5b81525050858381518110610a9257634e487b7160e01b600052603260045260246000fd5b6020908102919091010152610aa8600183614b2e565b91505b610ab6600182614b2e565b9050610949565b5050505092915050565b610ad18282612ac5565b6000828152600160205260409020610ae99082612aa2565b505050565b60025460ff1615610b345760405162461bcd60e51b815260206004820152601060248201526f14185d5cd8589b194e881c185d5cd95960821b6044820152606401610708565b610b3c612abb565b60008781526009602052604090206001015487906001600160a01b03838116911614610b7a5760405162461bcd60e51b8152600401610708906149e9565b6000888152600960208181526040808420815161016081018352815481526001808301546001600160a01b039081169583019590955260028301548516938201939093526003820154606082015260048201546080820152600582015490931660a0840152600681015460c0840152600781015460e0840152600881015461010084015292830154610120830152600a83015491929161014084019160ff90911690811115610c3957634e487b7160e01b600052602160045260246000fd5b6001811115610c5857634e487b7160e01b600052602160045260246000fd5b8152505090508060800151861115610cd85760405162461bcd60e51b815260206004820152603760248201527f4d61726b65743a2063616e6e6f74206c657420627579657220627579206d6f7260448201527f65207468616e206c6973746564207175616e746974792e0000000000000000006064820152608401610708565b60c081018890526001600160a01b03871660a08201528515610cfa5785610d00565b80608001515b610120820152610d108542614b2e565b60e08201528315610d2a57610d258442614b2e565b610d2e565b6000195b610100820190815260008a8152600960208181526040928390208551815590850151600180830180546001600160a01b03199081166001600160a01b0394851617909155948701516002840180548716918416919091179055606087015160038401556080870151600484015560a087015160058401805490961692169190911790935560c0850151600682015560e085015160078201559251600884015561012084015190830155610140830151600a8301805485949360ff19909116908381811115610e0c57634e487b7160e01b600052602160045260246000fd5b021790555090505088610e1d612abb565b6001600160a01b03167fb4c8fd604ad229ddf17ffe34f0851a2abf5113b048f8235b12edbabcc6dd919383604051610e559190614a38565b60405180910390a3505050505050505050565b610e75600061045b612abb565b610ed55760405162461bcd60e51b815260206004820152602b60248201527f6f6e6c792061206d6f64756c652061646d696e2063616e2063616c6c2074686960448201526a3990333ab731ba34b7b71760a91b6064820152608401610708565b60088054821515600160801b0260ff60801b199091161790556040517f56668abce4c06e28f52176150c07856e31ee073b9b62df62a5afbf1a22aec24c9061076490831515815260200190565b610f2c8282612af2565b6000828152600160205260409020610ae99082612b7c565b6006546060906000805b82811015610f9b576000818152600960205260409020600201546001600160a01b0386811691161415610f8957610f86600183614b2e565b91505b610f94600182614b2e565b9050610f4e565b508067ffffffffffffffff811115610fc357634e487b7160e01b600052604160045260246000fd5b604051908082528060200260200182016040528015610ffc57816020015b610fe9614066565b815260200190600190039081610fe15790505b5092506000805b8381101561115b576000818152600960205260409020600201546001600160a01b038781169116141561114957600081815260096020818152604092839020835161016081018552815481526001808301546001600160a01b039081169483019490945260028301548416958201959095526003820154606082015260048201546080820152600582015490921660a0830152600681015460c0830152600781015460e0830152600881015461010083015291820154610120820152600a820154909261014084019160ff16908111156110ed57634e487b7160e01b600052602160045260246000fd5b600181111561110c57634e487b7160e01b600052602160045260246000fd5b8152505085838151811061113057634e487b7160e01b600052603260045260246000fd5b6020908102919091010152611146600183614b2e565b91505b611154600182614b2e565b9050611003565b50505050919050565b61116c612abb565b60008381526009602052604090206001015483906001600160a01b038381169116146111aa5760405162461bcd60e51b8152600401610708906149e9565b6000848152600960208181526040808420815161016081018352815481526001808301546001600160a01b039081169583019590955260028301548516938201939093526003820154606082015260048201546080820152600582015490931660a0840152600681015460c0840152600781015460e0840152600881015461010084015292830154610120830152600a83015491929161014084019160ff9091169081111561126957634e487b7160e01b600052602160045260246000fd5b600181111561128857634e487b7160e01b600052602160045260246000fd5b81525050905083816080015110156113085760405162461bcd60e51b815260206004820152603260248201527f4d61726b65743a2063616e6e6f7420756e6c697374206d6f726520746f6b656e60448201527f73207468616e20617265206c69737465642e00000000000000000000000000006064820152608401610708565b838160800181815161131a9190614b85565b9052506000858152600960208181526040928390208451815590840151600180830180546001600160a01b03199081166001600160a01b0394851617909155948601516002840180548716918416919091179055606086015160038401556080860151600484015560a086015160058401805490961692169190911790935560c0840151600682015560e08401516007820155610100840151600882015561012084015191810191909155610140830151600a82018054859460ff199091169083818111156113f957634e487b7160e01b600052602160045260246000fd5b021790555090505061140b8185612b91565b84611414612abb565b6001600160a01b03167fb4c8fd604ad229ddf17ffe34f0851a2abf5113b048f8235b12edbabcc6dd91938360405161144c9190614a38565b60405180910390a35050505050565b60025460ff16156114a15760405162461bcd60e51b815260206004820152601060248201526f14185d5cd8589b194e881c185d5cd95960821b6044820152606401610708565b6114a9612abb565b60008381526009602052604090206001015483906001600160a01b038381169116146114e75760405162461bcd60e51b8152600401610708906149e9565b6000848152600960208181526040808420815161016081018352815481526001808301546001600160a01b039081169583019590955260028301548516938201939093526003820154606082015260048201546080820152600582015490931660a0840152600681015460c0840152600781015460e0840152600881015461010084015292830154610120830152600a83015491929161014084019160ff909116908111156115a657634e487b7160e01b600052602160045260246000fd5b60018111156115c557634e487b7160e01b600052602160045260246000fd5b81525050905083816080018181516115dd9190614b2e565b9052506000858152600960208181526040928390208451815590840151600180830180546001600160a01b03199081166001600160a01b0394851617909155948601516002840180548716918416919091179055606086015160038401556080860151600484015560a086015160058401805490961692169190911790935560c0840151600682015560e08401516007820155610100840151600882015561012084015191810191909155610140830151600a82018054859460ff199091169083818111156116bc57634e487b7160e01b600052602160045260246000fd5b021790555050508361171c5760405162461bcd60e51b8152602060048201526024808201527f4d61726b65743a206d75737420616464206174206c65617374206f6e6520746f60448201526335b2b71760e11b6064820152608401610708565b6000816101400151600181111561174357634e487b7160e01b600052602160045260246000fd5b146117a35760405162461bcd60e51b815260206004820152602a60248201527f4d61726b65743a2043616e206f6e6c792061646420746f204552432031313535604482015269103634b9ba34b733b99760b11b6064820152608401610708565b80604001516001600160a01b031663e985e9c56117be612abb565b6040516001600160e01b031960e084901b1681526001600160a01b03909116600482015230602482015260440160206040518083038186803b15801561180357600080fd5b505afa158015611817573d6000803e3d6000fd5b505050506040513d601f19601f8201168201806040525081019061183b91906145d2565b6118ad5760405162461bcd60e51b815260206004820152603f60248201527f4d61726b65743a206d75737420617070726f766520746865206d61726b65742060448201527f746f207472616e7366657220746f6b656e73206265696e672061646465642e006064820152608401610708565b80604001516001600160a01b031663f242432a6118c8612abb565b60608401516040516001600160e01b031960e085901b1681526001600160a01b03909216600483015230602483015260448201526064810187905260a06084820152600060a482015260c401600060405180830381600087803b15801561192e57600080fd5b505af1158015611942573d6000803e3d6000fd5b5050505084611414612abb565b60008281526001602052604081206119679083612d6c565b9392505050565b6005546040805163a217fddf60e01b815290516001600160a01b03909216916391d1485491839163a217fddf91600480820192602092909190829003018186803b1580156119bb57600080fd5b505afa1580156119cf573d6000803e3d6000fd5b505050506040513d601f19601f820116820180604052508101906119f39190614606565b6119fb612abb565b6040516001600160e01b031960e085901b16815260048101929092526001600160a01b0316602482015260440160206040518083038186803b158015611a4057600080fd5b505afa158015611a54573d6000803e3d6000fd5b505050506040513d601f19601f82011682018060405250810190611a7891906145d2565b611aea5760405162461bcd60e51b815260206004820152603560248201527f4d61726b65743a206f6e6c7920612070726f746f636f6c2061646d696e20636160448201527f6e2063616c6c20746869732066756e6374696f6e2e00000000000000000000006064820152608401610708565b610ae9600783836140f9565b60025460ff1615611b3c5760405162461bcd60e51b815260206004820152601060248201526f14185d5cd8589b194e881c185d5cd95960821b6044820152606401610708565b600854600160801b900460ff161580611b7c5750611b7c7ff94103142c1baabe9ac2b5d1487bf783de9e69cfeea9a72f5c9c94afd7877b8c61045b612abb565b611bd65760405162461bcd60e51b815260206004820152602560248201527f6f6e6c792061206c69737465722063616e2063616c6c20746869732066756e636044820152643a34b7b71760d91b6064820152608401610708565b60008411611c345760405162461bcd60e51b815260206004820152602560248201527f4d61726b65743a206d757374206c697374206174206c65617374206f6e65207460448201526437b5b2b71760d91b6064820152608401610708565b83831115611caa5760405162461bcd60e51b815260206004820152603760248201527f4d61726b65743a2063616e6e6f74206c657420627579657220627579206d6f7260448201527f65207468616e206c6973746564207175616e746974792e0000000000000000006064820152608401610708565b60068054906001906000611cbe8385614b2e565b9091555060009050611cda8a611cd2612abb565b308c8a612d78565b90506000604051806101600160405280848152602001611cf8612abb565b6001600160a01b031681526020018c6001600160a01b031681526020018b81526020018881526020018a6001600160a01b031681526020018981526020018642611d429190614b2e565b81526020018515611d5c57611d578642614b2e565b611d60565b6000195b81526020018715611d715787611d73565b885b8152602001836001811115611d9857634e487b7160e01b600052602160045260246000fd5b90526000848152600960208181526040928390208451815590840151600180830180546001600160a01b03199081166001600160a01b0394851617909155948601516002840180548716918416919091179055606086015160038401556080860151600484015560a086015160058401805490961692169190911790935560c0840151600682015560e08401516007820155610100840151600882015561012084015191810191909155610140830151600a82018054949550859492939192909160ff19909116908381811115611e7f57634e487b7160e01b600052602160045260246000fd5b021790555090505082611e90612abb565b6001600160a01b03168c6001600160a01b03167f70c5741a020504dbda58d308c3efe5275326c456d3b00c541925222c40f7c62e84604051611ed29190614a38565b60405180910390a45050505050505050505050565b60608167ffffffffffffffff811115611f1057634e487b7160e01b600052604160045260246000fd5b604051908082528060200260200182016040528015611f4357816020015b6060815260200190600190039081611f2e5790505b50905060005b82811015611fff57611fc130858584818110611f7557634e487b7160e01b600052603260045260246000fd5b9050602002810190611f879190614ab8565b8080601f0160208091040260200160405190810160405280939291908181526020018383808284376000920191909152506132b792505050565b828281518110611fe157634e487b7160e01b600052603260045260246000fd5b60200260200101819052508080611ff790614c1a565b915050611f49565b5092915050565b6006546060908067ffffffffffffffff81111561203357634e487b7160e01b600052604160045260246000fd5b60405190808252806020026020018201604052801561206c57816020015b612059614066565b8152602001906001900390816120515790505b50915060005b8181101561219757600081815260096020818152604092839020835161016081018552815481526001808301546001600160a01b039081169483019490945260028301548416958201959095526003820154606082015260048201546080820152600582015490921660a0830152600681015460c0830152600781015460e0830152600881015461010083015291820154610120820152600a820154909261014084019160ff169081111561213757634e487b7160e01b600052602160045260246000fd5b600181111561215657634e487b7160e01b600052602160045260246000fd5b8152505083828151811061217a57634e487b7160e01b600052603260045260246000fd5b6020908102919091010152612190600182614b2e565b9050612072565b505090565b600780546121a990614bdf565b80601f01602080910402602001604051908101604052809291908181526020018280546121d590614bdf565b80156122225780601f106121f757610100808354040283529160200191612222565b820191906000526020600020905b81548152906001019060200180831161220557829003601f168201915b505050505081565b6000818152600160205260408120610699906132dc565b610f2c82826132e6565b6002600354141561229e5760405162461bcd60e51b815260206004820152601f60248201527f5265656e7472616e637947756172643a207265656e7472616e742063616c6c006044820152606401610708565b60026003556122af60025460ff1690565b156122ef5760405162461bcd60e51b815260206004820152601060248201526f14185d5cd8589b194e881c185d5cd95960821b6044820152606401610708565b60008281526009602052604090206001015482906001600160a01b03166123645760405162461bcd60e51b815260206004820152602360248201527f4d61726b65743a20546865206c697374696e6720646f6573206e6f742065786960448201526239ba1760e91b6064820152608401610708565b6000838152600960208181526040808420815161016081018352815481526001808301546001600160a01b039081169583019590955260028301548516938201939093526003820154606082015260048201546080820152600582015490931660a0840152600681015460c0840152600781015460e0840152600881015461010084015292830154610120830152600a83015491929161014084019160ff9091169081111561242357634e487b7160e01b600052602160045260246000fd5b600181111561244257634e487b7160e01b600052602160045260246000fd5b90525090506000612451612abb565b9050600084118015612467575081608001518411155b6124d95760405162461bcd60e51b815260206004820152603160248201527f4d61726b65743a206d7573742062757920616e20617070726f7072696174652060448201527f616d6f756e74206f6620746f6b656e732e0000000000000000000000000000006064820152608401610708565b81610100015142111580156124f257508160e001514210155b6125645760405162461bcd60e51b815260206004820152603260248201527f4d61726b65743a207468652073616c652068617320656974686572206e6f742060448201527f73746172746564206f7220636c6f7365642e00000000000000000000000000006064820152608401610708565b6101208201516000868152600a602090815260408083206001600160a01b03861684529091529020546125979086614b2e565b111561260b5760405162461bcd60e51b815260206004820152603460248201527f4d61726b65743a2043616e6e6f7420627579206d6f72652066726f6d206c697360448201527f74696e67207468616e207065726d69747465642e0000000000000000000000006064820152608401610708565b6000858152600a602090815260408083206001600160a01b03851684529091528120805486929061263d908490614b2e565b9250508190555083826080018181516126569190614b85565b9052506000858152600960208181526040928390208551815590850151600180830180546001600160a01b03199081166001600160a01b0394851617909155948701516002840180548716918416919091179055606087015160038401556080870151600484015560a087015160058401805490961692169190911790935560c0850151600682015560e08501516007820155610100850151600882015561012085015191810191909155610140840151600a82018054869460ff1990911690838181111561273557634e487b7160e01b600052602160045260246000fd5b0217905550505060c08201511561275057612750828561330e565b61275a8285612b91565b8482602001516001600160a01b031683604001516001600160a01b03167fc848190182320d1cb2ea6d8a80041c6780e56643bc41fe9060bb1f1349902cba8488876040516127aa939291906148f9565b60405180910390a450506001600355505050565b6006546060906000805b82811015612815576000818152600960205260409020600101546001600160a01b038681169116141561280357612800600183614b2e565b91505b61280e600182614b2e565b90506127c8565b508067ffffffffffffffff81111561283d57634e487b7160e01b600052604160045260246000fd5b60405190808252806020026020018201604052801561287657816020015b612863614066565b81526020019060019003908161285b5790505b5092506000805b8381101561115b576000818152600960205260409020600101546001600160a01b03878116911614156129c357600081815260096020818152604092839020835161016081018552815481526001808301546001600160a01b039081169483019490945260028301548416958201959095526003820154606082015260048201546080820152600582015490921660a0830152600681015460c0830152600781015460e0830152600881015461010083015291820154610120820152600a820154909261014084019160ff169081111561296757634e487b7160e01b600052602160045260246000fd5b600181111561298657634e487b7160e01b600052602160045260246000fd5b815250508583815181106129aa57634e487b7160e01b600052603260045260246000fd5b60209081029190910101526129c0600183614b2e565b91505b6129ce600182614b2e565b905061287d565b6060600780546129e490614bdf565b80601f0160208091040260200160405190810160405280929190818152602001828054612a1090614bdf565b8015612a5d5780601f10612a3257610100808354040283529160200191612a5d565b820191906000526020600020905b815481529060010190602001808311612a4057829003601f168201915b5050505050905090565b6004546000906001600160a01b0316331415612a8a575060131936013560601c90565b503390565b905090565b612a9e8282613a19565b5050565b6000611967836001600160a01b038416613ab8565b3390565b6000612a8f612a67565b600082815260208190526040902060010154612ae881612ae3612abb565b613b07565b610ae98383613a19565b612afa612abb565b6001600160a01b0316816001600160a01b031614612b725760405162461bcd60e51b815260206004820152602f60248201527f416363657373436f6e74726f6c3a2063616e206f6e6c792072656e6f756e636560448201526e103937b632b9903337b91039b2b63360891b6064820152608401610708565b612a9e8282613b85565b6000611967836001600160a01b038416613c22565b60008261014001516001811115612bb857634e487b7160e01b600052602160045260246000fd5b1415612c605781604001516001600160a01b031663f242432a30612bda612abb565b60608601516040516001600160e01b031960e086901b1681526001600160a01b03938416600482015292909116602483015260448201526064810184905260a06084820152600060a482015260c4015b600060405180830381600087803b158015612c4457600080fd5b505af1158015612c58573d6000803e3d6000fd5b505050505050565b60018261014001516001811115612c8757634e487b7160e01b600052602160045260246000fd5b1415612a9e5780600114612d035760405162461bcd60e51b815260206004820152603660248201527f4d61726b65743a2043616e6e6f7420756e6c697374206d6f7265207468616e2060448201527f6f6e65206f6620616e2045524320373231204e46542e000000000000000000006064820152608401610708565b81604001516001600160a01b031663b88d4fde30612d1f612abb565b60608601516040516001600160e01b031960e086901b1681526001600160a01b0393841660048201529290911660248301526044820152608060648201526000608482015260a401612c2a565b60006119678383613d3f565b6040516301ffc9a760e01b8152636cdb3d1360e11b60048201526000906001600160a01b038716906301ffc9a79060240160206040518083038186803b158015612dc157600080fd5b505afa158015612dd5573d6000803e3d6000fd5b505050506040513d601f19601f82011682018060405250810190612df991906145d2565b15612f7d5760405163e985e9c560e01b81526001600160a01b038681166004830152858116602483015287169063e985e9c59060440160206040518083038186803b158015612e4757600080fd5b505afa158015612e5b573d6000803e3d6000fd5b505050506040513d601f19601f82011682018060405250810190612e7f91906145d2565b612ef3576040805162461bcd60e51b81526020600482015260248101919091527f4d61726b65743a206d75737420617070726f766520746865206d61726b65742060448201527f746f207472616e7366657220746f6b656e73206265696e67206c69737465642e6064820152608401610708565b50604051637921219560e11b81526001600160a01b0385811660048301528481166024830152604482018490526064820183905260a06084830152600060a48301819052919087169063f242432a9060c4015b600060405180830381600087803b158015612f6057600080fd5b505af1158015612f74573d6000803e3d6000fd5b50505050610865565b6040516301ffc9a760e01b81526380ac58cd60e01b60048201526001600160a01b038716906301ffc9a79060240160206040518083038186803b158015612fc357600080fd5b505afa158015612fd7573d6000803e3d6000fd5b505050506040513d601f19601f82011682018060405250810190612ffb91906145d2565b1561324957816001146130765760405162461bcd60e51b815260206004820152603160248201527f4d61726b65743a2043616e6e6f74206c697374206d6f7265207468616e20312060448201527f6f6620616e20455243373231204e46542e0000000000000000000000000000006064820152608401610708565b60405163e985e9c560e01b81526001600160a01b038681166004830152858116602483015287169063e985e9c59060440160206040518083038186803b1580156130bf57600080fd5b505afa1580156130d3573d6000803e3d6000fd5b505050506040513d601f19601f820116820180604052508101906130f791906145d2565b80613185575060405163020604bf60e21b8152600481018490526001600160a01b03808616919088169063081812fc9060240160206040518083038186803b15801561314257600080fd5b505afa158015613156573d6000803e3d6000fd5b505050506040513d601f19601f8201168201806040525081019061317a91906142e3565b6001600160a01b0316145b6131f9576040805162461bcd60e51b81526020600482015260248101919091527f4d61726b65743a206d75737420617070726f766520746865206d61726b65742060448201527f746f207472616e7366657220746f6b656e73206265696e67206c69737465642e6064820152608401610708565b50604051635c46a7ef60e11b81526001600160a01b03858116600483015284811660248301526044820184905260806064830152600060848301526001919087169063b88d4fde9060a401612f46565b60405162461bcd60e51b815260206004820152603860248201527f4d61726b65743a20746f6b656e206d75737420696d706c656d656e742065697460448201527f686572204552432031313535206f7220455243203732312e00000000000000006064820152608401610708565b60606119678383604051806060016040528060278152602001614c9d60279139613d77565b6000610699825490565b60008281526020819052604090206001015461330481612ae3612abb565b610ae98383613b85565b6000818360c001516133209190614b66565b9050808360a001516001600160a01b031663dd62ed3e61333e612abb565b6040516001600160e01b031960e084901b1681526001600160a01b03909116600482015230602482015260440160206040518083038186803b15801561338357600080fd5b505afa158015613397573d6000803e3d6000fd5b505050506040513d601f19601f820116820180604052508101906133bb9190614606565b101561342f5760405162461bcd60e51b815260206004820152603560248201527f4d61726b65743a206d75737420617070726f7665204d61726b657420746f207460448201527f72616e7366657220707269636520746f207061792e00000000000000000000006064820152608401610708565b6005546040805163fd967f4760e01b815290516000926001600160a01b03169163fd967f47916004808301926020929190829003018186803b15801561347457600080fd5b505afa158015613488573d6000803e3d6000fd5b505050506040513d601f19601f820116820180604052508101906134ac91906146f2565b6008546001600160801b03918216916134c6911684614b66565b6134d09190614b46565b90508360a001516001600160a01b03166323b872dd6134ed612abb565b60055460405163f2aab4b360e01b81523060048201526001600160a01b039091169063f2aab4b39060240160206040518083038186803b15801561353057600080fd5b505afa158015613544573d6000803e3d6000fd5b505050506040513d601f19601f8201168201806040525081019061356891906142e3565b6040516001600160e01b031960e085901b1681526001600160a01b0392831660048201529116602482015260448101849052606401602060405180830381600087803b1580156135b757600080fd5b505af11580156135cb573d6000803e3d6000fd5b505050506040513d601f19601f820116820180604052508101906135ef91906145d2565b61364c5760405162461bcd60e51b815260206004820152602860248201527f4d61726b65743a206661696c656420746f207472616e736665722070726f746f60448201526731b7b61031baba1760c11b6064820152608401610708565b60006136588284614b85565b60408087015190516301ffc9a760e01b815263152a902d60e11b60048201529192506001600160a01b0316906301ffc9a79060240160206040518083038186803b1580156136a557600080fd5b505afa1580156136b9573d6000803e3d6000fd5b505050506040513d601f19601f820116820180604052508101906136dd91906145d2565b156139105760008086604001516001600160a01b0316632a55205a8860600151876040518363ffffffff1660e01b8152600401613724929190918252602082015260400190565b604080518083038186803b15801561373b57600080fd5b505afa15801561374f573d6000803e3d6000fd5b505050506040513d601f19601f8201168201806040525081019061377391906144ac565b90925090506001600160a01b038216158015906137905750600081115b1561390d57846137a08583614b2e565b11156138025760405162461bcd60e51b815260206004820152602b60248201527f4d61726b65743a20546f74616c206d61726b657420666565732065786365656460448201526a103a343290383934b1b29760a91b6064820152608401610708565b61380c8184614b85565b92508660a001516001600160a01b03166323b872dd613829612abb565b6040516001600160e01b031960e084901b1681526001600160a01b039182166004820152908516602482015260448101849052606401602060405180830381600087803b15801561387957600080fd5b505af115801561388d573d6000803e3d6000fd5b505050506040513d601f19601f820116820180604052508101906138b191906145d2565b61390d5760405162461bcd60e51b815260206004820152602760248201527f4d61726b65743a206661696c656420746f207472616e7366657220637265617460448201526637b91031baba1760c91b6064820152608401610708565b50505b8460a001516001600160a01b03166323b872dd61392b612abb565b60208801516040516001600160e01b031960e085901b1681526001600160a01b0392831660048201529116602482015260448101849052606401602060405180830381600087803b15801561397f57600080fd5b505af1158015613993573d6000803e3d6000fd5b505050506040513d601f19601f820116820180604052508101906139b791906145d2565b613a125760405162461bcd60e51b815260206004820152602660248201527f4d61726b65743a206661696c656420746f207472616e736665722073656c6c65604482015265391031baba1760d11b6064820152608401610708565b5050505050565b6000828152602081815260408083206001600160a01b038516845290915290205460ff16612a9e576000828152602081815260408083206001600160a01b03851684529091529020805460ff19166001179055613a74612abb565b6001600160a01b0316816001600160a01b0316837f2f8788117e7eff1d82e926ec794901d17c78024a50270940304540a733656f0d60405160405180910390a45050565b6000818152600183016020526040812054613aff57508154600181810184556000848152602080822090930184905584548482528286019093526040902091909155610699565b506000610699565b6000828152602081815260408083206001600160a01b038516845290915290205460ff16612a9e57613b43816001600160a01b03166014613e4b565b613b4e836020613e4b565b604051602001613b5f929190614878565b60408051601f198184030181529082905262461bcd60e51b8252610708916004016149d6565b6000828152602081815260408083206001600160a01b038516845290915290205460ff1615612a9e576000828152602081815260408083206001600160a01b03851684529091529020805460ff19169055613bde612abb565b6001600160a01b0316816001600160a01b0316837ff6391f5c32d9c69d2a47ea670b442974b53935d1edc7fd64eb21e047a839171b60405160405180910390a45050565b60008181526001830160205260408120548015613d35576000613c46600183614b85565b8554909150600090613c5a90600190614b85565b9050818114613cdb576000866000018281548110613c8857634e487b7160e01b600052603260045260246000fd5b9060005260206000200154905080876000018481548110613cb957634e487b7160e01b600052603260045260246000fd5b6000918252602080832090910192909255918252600188019052604090208390555b8554869080613cfa57634e487b7160e01b600052603160045260246000fd5b600190038181906000526020600020016000905590558560010160008681526020019081526020016000206000905560019350505050610699565b6000915050610699565b6000826000018281548110613d6457634e487b7160e01b600052603260045260246000fd5b9060005260206000200154905092915050565b6060833b613dd65760405162461bcd60e51b815260206004820152602660248201527f416464726573733a2064656c65676174652063616c6c20746f206e6f6e2d636f6044820152651b9d1c9858dd60d21b6064820152608401610708565b600080856001600160a01b031685604051613df1919061485c565b600060405180830381855af49150503d8060008114613e2c576040519150601f19603f3d011682016040523d82523d6000602084013e613e31565b606091505b5091509150613e4182828661402d565b9695505050505050565b60606000613e5a836002614b66565b613e65906002614b2e565b67ffffffffffffffff811115613e8b57634e487b7160e01b600052604160045260246000fd5b6040519080825280601f01601f191660200182016040528015613eb5576020820181803683370190505b509050600360fc1b81600081518110613ede57634e487b7160e01b600052603260045260246000fd5b60200101906001600160f81b031916908160001a905350600f60fb1b81600181518110613f1b57634e487b7160e01b600052603260045260246000fd5b60200101906001600160f81b031916908160001a9053506000613f3f846002614b66565b613f4a906001614b2e565b90505b6001811115613fde576f181899199a1a9b1b9c1cb0b131b232b360811b85600f1660108110613f8c57634e487b7160e01b600052603260045260246000fd5b1a60f81b828281518110613fb057634e487b7160e01b600052603260045260246000fd5b60200101906001600160f81b031916908160001a90535060049490941c93613fd781614bc8565b9050613f4d565b5083156119675760405162461bcd60e51b815260206004820181905260248201527f537472696e67733a20686578206c656e67746820696e73756666696369656e746044820152606401610708565b6060831561403c575081611967565b82511561404c5782518084602001fd5b8160405162461bcd60e51b815260040161070891906149d6565b6040518061016001604052806000815260200160006001600160a01b0316815260200160006001600160a01b03168152602001600081526020016000815260200160006001600160a01b0316815260200160008152602001600081526020016000815260200160008152602001600060018111156140f457634e487b7160e01b600052602160045260246000fd5b905290565b82805461410590614bdf565b90600052602060002090601f016020900481019282614127576000855561416d565b82601f106141405782800160ff1982351617855561416d565b8280016001018555821561416d579182015b8281111561416d578235825591602001919060010190614152565b5061417992915061417d565b5090565b5b80821115614179576000815560010161417e565b600082601f8301126141a2578081fd5b8135602067ffffffffffffffff8211156141be576141be614c4b565b8160051b6141cd828201614afd565b8381528281019086840183880185018910156141e7578687fd5b8693505b858410156142095780358352600193909301929184019184016141eb565b50979650505050505050565b60008083601f840112614226578182fd5b50813567ffffffffffffffff81111561423d578182fd5b60208301915083602082850101111561425557600080fd5b9250929050565b600082601f83011261426c578081fd5b813567ffffffffffffffff81111561428657614286614c4b565b614299601f8201601f1916602001614afd565b8181528460208386010111156142ad578283fd5b816020850160208301379081016020019190915292915050565b6000602082840312156142d8578081fd5b813561196781614c61565b6000602082840312156142f4578081fd5b815161196781614c61565b600080600080600060a08688031215614316578081fd5b853561432181614c61565b9450602086013561433181614c61565b9350604086013567ffffffffffffffff8082111561434d578283fd5b61435989838a01614192565b9450606088013591508082111561436e578283fd5b61437a89838a01614192565b9350608088013591508082111561438f578283fd5b5061439c8882890161425c565b9150509295509295909350565b6000806000806000608086880312156143c0578081fd5b85356143cb81614c61565b945060208601356143db81614c61565b935060408601359250606086013567ffffffffffffffff8111156143fd578182fd5b61440988828901614215565b969995985093965092949392505050565b600080600080600060a08688031215614431578081fd5b853561443c81614c61565b9450602086013561444c81614c61565b93506040860135925060608601359150608086013567ffffffffffffffff811115614475578182fd5b61439c8882890161425c565b60008060408385031215614493578182fd5b823561449e81614c61565b946020939093013593505050565b600080604083850312156144be578182fd5b82516144c981614c61565b6020939093015192949293505050565b600080600080600080600080610100898b0312156144f5578586fd5b883561450081614c61565b975060208901359650604089013561451781614c61565b979a96995096976060810135975060808101359660a0820135965060c0820135955060e0909101359350915050565b60008060208385031215614558578182fd5b823567ffffffffffffffff8082111561456f578384fd5b818501915085601f830112614582578384fd5b813581811115614590578485fd5b8660208260051b85010111156145a4578485fd5b60209290920196919550909350505050565b6000602082840312156145c7578081fd5b813561196781614c79565b6000602082840312156145e3578081fd5b815161196781614c79565b6000602082840312156145ff578081fd5b5035919050565b600060208284031215614617578081fd5b5051919050565b60008060408385031215614630578182fd5b82359150602083013561464281614c61565b809150509250929050565b6000806040838503121561465f578182fd5b50508035926020909101359150565b60006020828403121561467f578081fd5b81356001600160e01b031981168114611967578182fd5b600080602083850312156146a8578182fd5b823567ffffffffffffffff8111156146be578283fd5b6146ca85828601614215565b90969095509350505050565b6000602082840312156146e7578081fd5b813561196781614c87565b600060208284031215614703578081fd5b815161196781614c87565b60008060008060008060c08789031215614726578384fd5b8635955060208701359450604087013561473f81614c61565b959894975094956060810135955060808101359460a0909101359350915050565b60008151808452614778816020860160208601614b9c565b601f01601f19169290920160200192915050565b600281106147aa57634e487b7160e01b600052602160045260246000fd5b9052565b8051825260208101516147cc60208401826001600160a01b03169052565b5060408101516147e760408401826001600160a01b03169052565b50606081015160608301526080810151608083015260a081015161481660a08401826001600160a01b03169052565b5060c081015160c083015260e081015160e0830152610100808201518184015250610120808201518184015250610140808201516148568285018261478c565b50505050565b6000825161486e818460208701614b9c565b9190910192915050565b7f416363657373436f6e74726f6c3a206163636f756e74200000000000000000008152600083516148b0816017850160208801614b9c565b7f206973206d697373696e6720726f6c652000000000000000000000000000000060179184019182015283516148ed816028840160208801614b9c565b01602801949350505050565b6001600160a01b0384168152602081018390526101a0810161491e60408301846147ae565b949350505050565b6000602080830181845280855180835260408601915060408160051b8701019250838701855b8281101561497a57603f19888603018452614968858351614760565b9450928501929085019060010161494c565b5092979650505050505050565b6020808252825182820181905260009190848201906040850190845b818110156149ca576149b68385516147ae565b9284019261016092909201916001016149a3565b50909695505050505050565b6020815260006119676020830184614760565b6020808252602f908201527f4d61726b65743a204f6e6c79207468652073656c6c65722063616e2063616c6c60408201526e103a3434b990333ab731ba34b7b71760891b606082015260800190565b610160810161069982846147ae565b6000610160820190508c82526001600160a01b03808d166020840152808c1660408401528a606084015289608084015280891660a0840152508660c08301528560e08301528461010083015283610120830152614aa861014083018461478c565b9c9b505050505050505050505050565b6000808335601e19843603018112614ace578283fd5b83018035915067ffffffffffffffff821115614ae8578283fd5b60200191503681900382131561425557600080fd5b604051601f8201601f1916810167ffffffffffffffff81118282101715614b2657614b26614c4b565b604052919050565b60008219821115614b4157614b41614c35565b500190565b600082614b6157634e487b7160e01b81526012600452602481fd5b500490565b6000816000190483118215151615614b8057614b80614c35565b500290565b600082821015614b9757614b97614c35565b500390565b60005b83811015614bb7578181015183820152602001614b9f565b838111156148565750506000910152565b600081614bd757614bd7614c35565b506000190190565b600181811c90821680614bf357607f821691505b60208210811415614c1457634e487b7160e01b600052602260045260246000fd5b50919050565b6000600019821415614c2e57614c2e614c35565b5060010190565b634e487b7160e01b600052601160045260246000fd5b634e487b7160e01b600052604160045260246000fd5b6001600160a01b0381168114614c7657600080fd5b50565b8015158114614c7657600080fd5b6001600160801b0381168114614c7657600080fdfe416464726573733a206c6f772d6c6576656c2064656c65676174652063616c6c206661696c6564a164736f6c6343000804000a",
  "linkReferences": {},
  "deployedLinkReferences": {}
}