{
  "_format": "hh-sol-artifact-1",
  "contractName": "Market",
  "sourceName": "contracts/Market.sol",
  "abi": [
    {
      "inputs": [
        {
          "internalType": "address payable",
          "name": "_controlCenter",
          "type": "address"
        },
        {
          "internalType": "address",
          "name": "_trustedForwarder",
          "type": "address"
        },
        {
          "internalType": "string",
          "name": "_uri",
          "type": "string"
        }
      ],
      "stateMutability": "nonpayable",
      "type": "constructor"
    },
    {
      "anonymous": false,
      "inputs": [
        {
          "indexed": true,
          "internalType": "address",
          "name": "seller",
          "type": "address"
        },
        {
          "indexed": true,
          "internalType": "uint256",
          "name": "listingId",
          "type": "uint256"
        },
        {
          "components": [
            {
              "internalType": "uint256",
              "name": "listingId",
              "type": "uint256"
            },
            {
              "internalType": "address",
              "name": "seller",
              "type": "address"
            },
            {
              "internalType": "address",
              "name": "assetContract",
              "type": "address"
            },
            {
              "internalType": "uint256",
              "name": "tokenId",
              "type": "uint256"
            },
            {
              "internalType": "uint256",
              "name": "quantity",
              "type": "uint256"
            },
            {
              "internalType": "address",
              "name": "currency",
              "type": "address"
            },
            {
              "internalType": "uint256",
              "name": "pricePerToken",
              "type": "uint256"
            },
            {
              "internalType": "uint256",
              "name": "saleStart",
              "type": "uint256"
            },
            {
              "internalType": "uint256",
              "name": "saleEnd",
              "type": "uint256"
            },
            {
              "internalType": "enum Market.TokenType",
              "name": "tokenType",
              "type": "uint8"
            }
          ],
          "indexed": false,
          "internalType": "struct Market.Listing",
          "name": "listing",
          "type": "tuple"
        }
      ],
      "name": "ListingUpdate",
      "type": "event"
    },
    {
      "anonymous": false,
      "inputs": [
        {
          "indexed": false,
          "internalType": "uint256",
          "name": "protocolFeeBps",
          "type": "uint256"
        },
        {
          "indexed": false,
          "internalType": "uint256",
          "name": "creatorFeeBps",
          "type": "uint256"
        }
      ],
      "name": "MarketFeesUpdated",
      "type": "event"
    },
    {
      "anonymous": false,
      "inputs": [
        {
          "indexed": true,
          "internalType": "address",
          "name": "assetContract",
          "type": "address"
        },
        {
          "indexed": true,
          "internalType": "address",
          "name": "seller",
          "type": "address"
        },
        {
          "indexed": true,
          "internalType": "uint256",
          "name": "listingId",
          "type": "uint256"
        },
        {
          "components": [
            {
              "internalType": "uint256",
              "name": "listingId",
              "type": "uint256"
            },
            {
              "internalType": "address",
              "name": "seller",
              "type": "address"
            },
            {
              "internalType": "address",
              "name": "assetContract",
              "type": "address"
            },
            {
              "internalType": "uint256",
              "name": "tokenId",
              "type": "uint256"
            },
            {
              "internalType": "uint256",
              "name": "quantity",
              "type": "uint256"
            },
            {
              "internalType": "address",
              "name": "currency",
              "type": "address"
            },
            {
              "internalType": "uint256",
              "name": "pricePerToken",
              "type": "uint256"
            },
            {
              "internalType": "uint256",
              "name": "saleStart",
              "type": "uint256"
            },
            {
              "internalType": "uint256",
              "name": "saleEnd",
              "type": "uint256"
            },
            {
              "internalType": "enum Market.TokenType",
              "name": "tokenType",
              "type": "uint8"
            }
          ],
          "indexed": false,
          "internalType": "struct Market.Listing",
          "name": "listing",
          "type": "tuple"
        }
      ],
      "name": "NewListing",
      "type": "event"
    },
    {
      "anonymous": false,
      "inputs": [
        {
          "indexed": true,
          "internalType": "address",
          "name": "assetContract",
          "type": "address"
        },
        {
          "indexed": true,
          "internalType": "address",
          "name": "seller",
          "type": "address"
        },
        {
          "indexed": true,
          "internalType": "uint256",
          "name": "listingId",
          "type": "uint256"
        },
        {
          "indexed": false,
          "internalType": "address",
          "name": "buyer",
          "type": "address"
        },
        {
          "indexed": false,
          "internalType": "uint256",
          "name": "quanitytBought",
          "type": "uint256"
        },
        {
          "components": [
            {
              "internalType": "uint256",
              "name": "listingId",
              "type": "uint256"
            },
            {
              "internalType": "address",
              "name": "seller",
              "type": "address"
            },
            {
              "internalType": "address",
              "name": "assetContract",
              "type": "address"
            },
            {
              "internalType": "uint256",
              "name": "tokenId",
              "type": "uint256"
            },
            {
              "internalType": "uint256",
              "name": "quantity",
              "type": "uint256"
            },
            {
              "internalType": "address",
              "name": "currency",
              "type": "address"
            },
            {
              "internalType": "uint256",
              "name": "pricePerToken",
              "type": "uint256"
            },
            {
              "internalType": "uint256",
              "name": "saleStart",
              "type": "uint256"
            },
            {
              "internalType": "uint256",
              "name": "saleEnd",
              "type": "uint256"
            },
            {
              "internalType": "enum Market.TokenType",
              "name": "tokenType",
              "type": "uint8"
            }
          ],
          "indexed": false,
          "internalType": "struct Market.Listing",
          "name": "listing",
          "type": "tuple"
        }
      ],
      "name": "NewSale",
      "type": "event"
    },
    {
      "inputs": [],
      "name": "_contractURI",
      "outputs": [
        {
          "internalType": "string",
          "name": "",
          "type": "string"
        }
      ],
      "stateMutability": "view",
      "type": "function"
    },
    {
      "inputs": [
        {
          "internalType": "uint256",
          "name": "_listingId",
          "type": "uint256"
        },
        {
          "internalType": "uint256",
          "name": "_quantity",
          "type": "uint256"
        }
      ],
      "name": "addToListing",
      "outputs": [],
      "stateMutability": "nonpayable",
      "type": "function"
    },
    {
      "inputs": [
        {
          "internalType": "uint256",
          "name": "_listingId",
          "type": "uint256"
        },
        {
          "internalType": "uint256",
          "name": "_quantity",
          "type": "uint256"
        }
      ],
      "name": "buy",
      "outputs": [],
      "stateMutability": "nonpayable",
      "type": "function"
    },
    {
      "inputs": [],
      "name": "contractURI",
      "outputs": [
        {
          "internalType": "string",
          "name": "",
          "type": "string"
        }
      ],
      "stateMutability": "view",
      "type": "function"
    },
    {
      "inputs": [],
      "name": "getAllListings",
      "outputs": [
        {
          "components": [
            {
              "internalType": "uint256",
              "name": "listingId",
              "type": "uint256"
            },
            {
              "internalType": "address",
              "name": "seller",
              "type": "address"
            },
            {
              "internalType": "address",
              "name": "assetContract",
              "type": "address"
            },
            {
              "internalType": "uint256",
              "name": "tokenId",
              "type": "uint256"
            },
            {
              "internalType": "uint256",
              "name": "quantity",
              "type": "uint256"
            },
            {
              "internalType": "address",
              "name": "currency",
              "type": "address"
            },
            {
              "internalType": "uint256",
              "name": "pricePerToken",
              "type": "uint256"
            },
            {
              "internalType": "uint256",
              "name": "saleStart",
              "type": "uint256"
            },
            {
              "internalType": "uint256",
              "name": "saleEnd",
              "type": "uint256"
            },
            {
              "internalType": "enum Market.TokenType",
              "name": "tokenType",
              "type": "uint8"
            }
          ],
          "internalType": "struct Market.Listing[]",
          "name": "allListings",
          "type": "tuple[]"
        }
      ],
      "stateMutability": "view",
      "type": "function"
    },
    {
      "inputs": [
        {
          "internalType": "uint256",
          "name": "_listingId",
          "type": "uint256"
        }
      ],
      "name": "getListing",
      "outputs": [
        {
          "components": [
            {
              "internalType": "uint256",
              "name": "listingId",
              "type": "uint256"
            },
            {
              "internalType": "address",
              "name": "seller",
              "type": "address"
            },
            {
              "internalType": "address",
              "name": "assetContract",
              "type": "address"
            },
            {
              "internalType": "uint256",
              "name": "tokenId",
              "type": "uint256"
            },
            {
              "internalType": "uint256",
              "name": "quantity",
              "type": "uint256"
            },
            {
              "internalType": "address",
              "name": "currency",
              "type": "address"
            },
            {
              "internalType": "uint256",
              "name": "pricePerToken",
              "type": "uint256"
            },
            {
              "internalType": "uint256",
              "name": "saleStart",
              "type": "uint256"
            },
            {
              "internalType": "uint256",
              "name": "saleEnd",
              "type": "uint256"
            },
            {
              "internalType": "enum Market.TokenType",
              "name": "tokenType",
              "type": "uint8"
            }
          ],
          "internalType": "struct Market.Listing",
          "name": "listing",
          "type": "tuple"
        }
      ],
      "stateMutability": "view",
      "type": "function"
    },
    {
      "inputs": [
        {
          "internalType": "address",
          "name": "_assetContract",
          "type": "address"
        },
        {
          "internalType": "uint256",
          "name": "_tokenId",
          "type": "uint256"
        }
      ],
      "name": "getListingsByAsset",
      "outputs": [
        {
          "components": [
            {
              "internalType": "uint256",
              "name": "listingId",
              "type": "uint256"
            },
            {
              "internalType": "address",
              "name": "seller",
              "type": "address"
            },
            {
              "internalType": "address",
              "name": "assetContract",
              "type": "address"
            },
            {
              "internalType": "uint256",
              "name": "tokenId",
              "type": "uint256"
            },
            {
              "internalType": "uint256",
              "name": "quantity",
              "type": "uint256"
            },
            {
              "internalType": "address",
              "name": "currency",
              "type": "address"
            },
            {
              "internalType": "uint256",
              "name": "pricePerToken",
              "type": "uint256"
            },
            {
              "internalType": "uint256",
              "name": "saleStart",
              "type": "uint256"
            },
            {
              "internalType": "uint256",
              "name": "saleEnd",
              "type": "uint256"
            },
            {
              "internalType": "enum Market.TokenType",
              "name": "tokenType",
              "type": "uint8"
            }
          ],
          "internalType": "struct Market.Listing[]",
          "name": "tokenListings",
          "type": "tuple[]"
        }
      ],
      "stateMutability": "view",
      "type": "function"
    },
    {
      "inputs": [
        {
          "internalType": "address",
          "name": "_assetContract",
          "type": "address"
        }
      ],
      "name": "getListingsByAssetContract",
      "outputs": [
        {
          "components": [
            {
              "internalType": "uint256",
              "name": "listingId",
              "type": "uint256"
            },
            {
              "internalType": "address",
              "name": "seller",
              "type": "address"
            },
            {
              "internalType": "address",
              "name": "assetContract",
              "type": "address"
            },
            {
              "internalType": "uint256",
              "name": "tokenId",
              "type": "uint256"
            },
            {
              "internalType": "uint256",
              "name": "quantity",
              "type": "uint256"
            },
            {
              "internalType": "address",
              "name": "currency",
              "type": "address"
            },
            {
              "internalType": "uint256",
              "name": "pricePerToken",
              "type": "uint256"
            },
            {
              "internalType": "uint256",
              "name": "saleStart",
              "type": "uint256"
            },
            {
              "internalType": "uint256",
              "name": "saleEnd",
              "type": "uint256"
            },
            {
              "internalType": "enum Market.TokenType",
              "name": "tokenType",
              "type": "uint8"
            }
          ],
          "internalType": "struct Market.Listing[]",
          "name": "tokenListings",
          "type": "tuple[]"
        }
      ],
      "stateMutability": "view",
      "type": "function"
    },
    {
      "inputs": [
        {
          "internalType": "address",
          "name": "_seller",
          "type": "address"
        }
      ],
      "name": "getListingsBySeller",
      "outputs": [
        {
          "components": [
            {
              "internalType": "uint256",
              "name": "listingId",
              "type": "uint256"
            },
            {
              "internalType": "address",
              "name": "seller",
              "type": "address"
            },
            {
              "internalType": "address",
              "name": "assetContract",
              "type": "address"
            },
            {
              "internalType": "uint256",
              "name": "tokenId",
              "type": "uint256"
            },
            {
              "internalType": "uint256",
              "name": "quantity",
              "type": "uint256"
            },
            {
              "internalType": "address",
              "name": "currency",
              "type": "address"
            },
            {
              "internalType": "uint256",
              "name": "pricePerToken",
              "type": "uint256"
            },
            {
              "internalType": "uint256",
              "name": "saleStart",
              "type": "uint256"
            },
            {
              "internalType": "uint256",
              "name": "saleEnd",
              "type": "uint256"
            },
            {
              "internalType": "enum Market.TokenType",
              "name": "tokenType",
              "type": "uint8"
            }
          ],
          "internalType": "struct Market.Listing[]",
          "name": "sellerListings",
          "type": "tuple[]"
        }
      ],
      "stateMutability": "view",
      "type": "function"
    },
    {
      "inputs": [
        {
          "internalType": "address",
          "name": "forwarder",
          "type": "address"
        }
      ],
      "name": "isTrustedForwarder",
      "outputs": [
        {
          "internalType": "bool",
          "name": "",
          "type": "bool"
        }
      ],
      "stateMutability": "view",
      "type": "function"
    },
    {
      "inputs": [
        {
          "internalType": "address",
          "name": "_assetContract",
          "type": "address"
        },
        {
          "internalType": "uint256",
          "name": "_tokenId",
          "type": "uint256"
        },
        {
          "internalType": "address",
          "name": "_currency",
          "type": "address"
        },
        {
          "internalType": "uint256",
          "name": "_pricePerToken",
          "type": "uint256"
        },
        {
          "internalType": "uint256",
          "name": "_quantity",
          "type": "uint256"
        },
        {
          "internalType": "uint256",
          "name": "_secondsUntilStart",
          "type": "uint256"
        },
        {
          "internalType": "uint256",
          "name": "_secondsUntilEnd",
          "type": "uint256"
        }
      ],
      "name": "list",
      "outputs": [],
      "stateMutability": "nonpayable",
      "type": "function"
    },
    {
      "inputs": [
        {
          "internalType": "uint256",
          "name": "",
          "type": "uint256"
        }
      ],
      "name": "listings",
      "outputs": [
        {
          "internalType": "uint256",
          "name": "listingId",
          "type": "uint256"
        },
        {
          "internalType": "address",
          "name": "seller",
          "type": "address"
        },
        {
          "internalType": "address",
          "name": "assetContract",
          "type": "address"
        },
        {
          "internalType": "uint256",
          "name": "tokenId",
          "type": "uint256"
        },
        {
          "internalType": "uint256",
          "name": "quantity",
          "type": "uint256"
        },
        {
          "internalType": "address",
          "name": "currency",
          "type": "address"
        },
        {
          "internalType": "uint256",
          "name": "pricePerToken",
          "type": "uint256"
        },
        {
          "internalType": "uint256",
          "name": "saleStart",
          "type": "uint256"
        },
        {
          "internalType": "uint256",
          "name": "saleEnd",
          "type": "uint256"
        },
        {
          "internalType": "enum Market.TokenType",
          "name": "tokenType",
          "type": "uint8"
        }
      ],
      "stateMutability": "view",
      "type": "function"
    },
    {
      "inputs": [
        {
          "internalType": "address",
          "name": "",
          "type": "address"
        },
        {
          "internalType": "address",
          "name": "",
          "type": "address"
        },
        {
          "internalType": "uint256[]",
          "name": "",
          "type": "uint256[]"
        },
        {
          "internalType": "uint256[]",
          "name": "",
          "type": "uint256[]"
        },
        {
          "internalType": "bytes",
          "name": "",
          "type": "bytes"
        }
      ],
      "name": "onERC1155BatchReceived",
      "outputs": [
        {
          "internalType": "bytes4",
          "name": "",
          "type": "bytes4"
        }
      ],
      "stateMutability": "nonpayable",
      "type": "function"
    },
    {
      "inputs": [
        {
          "internalType": "address",
          "name": "",
          "type": "address"
        },
        {
          "internalType": "address",
          "name": "",
          "type": "address"
        },
        {
          "internalType": "uint256",
          "name": "",
          "type": "uint256"
        },
        {
          "internalType": "uint256",
          "name": "",
          "type": "uint256"
        },
        {
          "internalType": "bytes",
          "name": "",
          "type": "bytes"
        }
      ],
      "name": "onERC1155Received",
      "outputs": [
        {
          "internalType": "bytes4",
          "name": "",
          "type": "bytes4"
        }
      ],
      "stateMutability": "nonpayable",
      "type": "function"
    },
    {
      "inputs": [
        {
          "internalType": "address",
          "name": "",
          "type": "address"
        },
        {
          "internalType": "address",
          "name": "",
          "type": "address"
        },
        {
          "internalType": "uint256",
          "name": "",
          "type": "uint256"
        },
        {
          "internalType": "bytes",
          "name": "",
          "type": "bytes"
        }
      ],
      "name": "onERC721Received",
      "outputs": [
        {
          "internalType": "bytes4",
          "name": "",
          "type": "bytes4"
        }
      ],
      "stateMutability": "pure",
      "type": "function"
    },
    {
      "inputs": [
        {
          "internalType": "string",
          "name": "_URI",
          "type": "string"
        }
      ],
      "name": "setContractURI",
      "outputs": [],
      "stateMutability": "nonpayable",
      "type": "function"
    },
    {
      "inputs": [
        {
          "internalType": "bytes4",
          "name": "interfaceId",
          "type": "bytes4"
        }
      ],
      "name": "supportsInterface",
      "outputs": [
        {
          "internalType": "bool",
          "name": "",
          "type": "bool"
        }
      ],
      "stateMutability": "view",
      "type": "function"
    },
    {
      "inputs": [],
      "name": "totalListings",
      "outputs": [
        {
          "internalType": "uint256",
          "name": "",
          "type": "uint256"
        }
      ],
      "stateMutability": "view",
      "type": "function"
    },
    {
      "inputs": [
        {
          "internalType": "uint256",
          "name": "_listingId",
          "type": "uint256"
        },
        {
          "internalType": "uint256",
          "name": "_quantity",
          "type": "uint256"
        }
      ],
      "name": "unlist",
      "outputs": [],
      "stateMutability": "nonpayable",
      "type": "function"
    },
    {
      "inputs": [
        {
          "internalType": "uint256",
          "name": "_listingId",
          "type": "uint256"
        },
        {
          "internalType": "uint256",
          "name": "_pricePerToken",
          "type": "uint256"
        },
        {
          "internalType": "address",
          "name": "_currency",
          "type": "address"
        },
        {
          "internalType": "uint256",
          "name": "_secondsUntilStart",
          "type": "uint256"
        },
        {
          "internalType": "uint256",
          "name": "_secondsUntilEnd",
          "type": "uint256"
        }
      ],
      "name": "updateListingParams",
      "outputs": [],
      "stateMutability": "nonpayable",
      "type": "function"
    }
  ],
  "bytecode": "0x60806040523480156200001157600080fd5b5060405162003f1638038062003f16833981016040819052620000349162000139565b6001600081905580546001600160a01b0319166001600160a01b03841617905580516200006990600490602084019062000093565b5050600280546001600160a01b0319166001600160a01b03939093169290921790915550620002a2565b828054620000a19062000236565b90600052602060002090601f016020900481019282620000c5576000855562000110565b82601f10620000e057805160ff191683800117855562000110565b8280016001018555821562000110579182015b8281111562000110578251825591602001919060010190620000f3565b506200011e92915062000122565b5090565b5b808211156200011e576000815560010162000123565b6000806000606084860312156200014e578283fd5b83516200015b8162000289565b80935050602080850151620001708162000289565b60408601519093506001600160401b03808211156200018d578384fd5b818701915087601f830112620001a1578384fd5b815181811115620001b657620001b662000273565b604051601f8201601f1916810185018381118282101715620001dc57620001dc62000273565b60405281815283820185018a1015620001f3578586fd5b8592505b81831015620002165783830185015181840186015291840191620001f7565b818311156200022757858583830101525b80955050505050509250925092565b6002810460018216806200024b57607f821691505b602082108114156200026d57634e487b7160e01b600052602260045260246000fd5b50919050565b634e487b7160e01b600052604160045260246000fd5b6001600160a01b03811681146200029f57600080fd5b50565b613c6480620002b26000396000f3fe608060405234801561001057600080fd5b506004361061016c5760003560e01c8063ae73ccec116100cd578063d6febde811610081578063de74e57b11610066578063de74e57b146102ec578063e8a3d48514610315578063f23a6e611461031d5761016c565b8063d6febde8146102c6578063d8cba251146102d95761016c565b8063c0e72740116100b2578063c0e7274014610289578063c78b616c1461029e578063d34cbd44146102b35761016c565b8063ae73ccec1461026e578063bc197c81146102765761016c565b80634fd69f3c11610124578063583e12b611610109578063583e12b61461023557806361a69e9b14610248578063938e3d7b1461025b5761016c565b80634fd69f3c1461020d578063572b6c05146102225761016c565b8063150b7a0211610155578063150b7a02146101ba5780631d0cd75e146101da5780634edeaa81146101fa5761016c565b806301ffc9a714610171578063107a274a1461019a575b600080fd5b61018461017f366004613000565b610330565b60405161019191906132f7565b60405180910390f35b6101ad6101a8366004613098565b610367565b6040516101919190613ab1565b6101cd6101c8366004612e34565b61044d565b6040516101919190613319565b6101ed6101e8366004612f0c565b61045f565b60405161019191906132a8565b6101ed610208366004612d4b565b6106b1565b61022061021b3660046130b0565b6108ca565b005b610184610230366004612d4b565b610b5b565b6102206102433660046130b0565b610b6f565b6102206102563660046130d1565b610f9d565b610220610269366004613028565b6112c8565b6101ed6113ef565b6101cd610284366004612d8a565b61157e565b61029161158f565b604051610191919061332e565b6102a661161d565b6040516101919190613ac0565b6102206102c1366004612f64565b611623565b6102206102d43660046130b0565b6118ff565b6101ed6102e7366004612d4b565b611ca8565b6102ff6102fa366004613098565b611eb8565b6040516101919a99989796959493929190613ac9565b610291611f1b565b6101cd61032b366004612ea5565b611fae565b60006001600160e01b03198216630271189760e51b148061036157506001600160e01b03198216630a85bd0160e11b145b92915050565b61036f612af2565b600082815260056020818152604092839020835161014081018552815481526001808301546001600160a01b0390811694830194909452600283015484169582019590955260038201546060820152600482015460808201529281015490911660a0830152600681015460c0830152600781015460e0830152600881015461010083015260098101549192909161012084019160ff9091169081111561042557634e487b7160e01b600052602160045260246000fd5b600181111561044457634e487b7160e01b600052602160045260246000fd5b90525092915050565b630a85bd0160e11b5b95945050505050565b6003546060906000805b828110156104d2576000818152600560205260409020600201546001600160a01b0387811691161480156104ad575060008181526005602052604090206003015485145b156104c0576104bd600183613b6a565b91505b6104cb600182613b6a565b9050610469565b508067ffffffffffffffff8111156104fa57634e487b7160e01b600052604160045260246000fd5b60405190808252806020026020018201604052801561053357816020015b610520612af2565b8152602001906001900390816105185790505b5092506000805b838110156106a7576000818152600560205260409020600201546001600160a01b03888116911614801561057e575060008181526005602052604090206003015486145b1561069557600081815260056020818152604092839020835161014081018552815481526001808301546001600160a01b0390811694830194909452600283015484169582019590955260038201546060820152600482015460808201529281015490911660a0830152600681015460c0830152600781015460e0830152600881015461010083015260098101549192909161012084019160ff9091169081111561063957634e487b7160e01b600052602160045260246000fd5b600181111561065857634e487b7160e01b600052602160045260246000fd5b8152505085838151811061067c57634e487b7160e01b600052603260045260246000fd5b6020908102919091010152610692600183613b6a565b91505b6106a0600182613b6a565b905061053a565b5050505092915050565b6003546060906000805b82811015610708576000818152600560205260409020600201546001600160a01b03868116911614156106f6576106f3600183613b6a565b91505b610701600182613b6a565b90506106bb565b508067ffffffffffffffff81111561073057634e487b7160e01b600052604160045260246000fd5b60405190808252806020026020018201604052801561076957816020015b610756612af2565b81526020019060019003908161074e5790505b5092506000805b838110156108c1576000818152600560205260409020600201546001600160a01b03878116911614156108af57600081815260056020818152604092839020835161014081018552815481526001808301546001600160a01b0390811694830194909452600283015484169582019590955260038201546060820152600482015460808201529281015490911660a0830152600681015460c0830152600781015460e0830152600881015461010083015260098101549192909161012084019160ff9091169081111561085357634e487b7160e01b600052602160045260246000fd5b600181111561087257634e487b7160e01b600052602160045260246000fd5b8152505085838151811061089657634e487b7160e01b600052603260045260246000fd5b60209081029190910101526108ac600183613b6a565b91505b6108ba600182613b6a565b9050610770565b50505050919050565b6108d2611fbf565b60008381526005602052604090206001015483906001600160a01b038381169116146109195760405162461bcd60e51b815260040161091090613498565b60405180910390fd5b6000848152600560208181526040808420815161014081018352815481526001808301546001600160a01b0390811695830195909552600283015485169382019390935260038201546060820152600482015460808201529381015490921660a0840152600682015460c0840152600782015460e08401526008820154610100840152600982015461012084019160ff909116908111156109ca57634e487b7160e01b600052602160045260246000fd5b60018111156109e957634e487b7160e01b600052602160045260246000fd5b8152505090508381608001511015610a135760405162461bcd60e51b8152600401610910906138a9565b8381608001818151610a259190613bc1565b9052506000858152600560208181526040928390208451815590840151600180830180546001600160a01b03199081166001600160a01b0394851617909155948601516002840180548716918416919091179055606086015160038401556080860151600484015560a08601519383018054909516939091169290921790925560c0830151600683015560e08301516007830155610100830151600883015561012083015160098301805485949360ff19909116908381811115610af957634e487b7160e01b600052602160045260246000fd5b0217905550905050610b0b8185611fed565b84610b14611fbf565b6001600160a01b03167f1b8ddfdd6ac3e5a29ff1523294456784db693ed91ed9cbcbcaba3f7b3297281d83604051610b4c9190613ab1565b60405180910390a35050505050565b6001546001600160a01b0390811691161490565b600260009054906101000a90046001600160a01b03166001600160a01b0316639d2f83f06040518163ffffffff1660e01b815260040160206040518083038186803b158015610bbd57600080fd5b505afa158015610bd1573d6000803e3d6000fd5b505050506040513d601f19601f82011682018060405250810190610bf59190612fc8565b15610c125760405162461bcd60e51b81526004016109109061370b565b610c1a611fbf565b60008381526005602052604090206001015483906001600160a01b03838116911614610c585760405162461bcd60e51b815260040161091090613498565b6000848152600560208181526040808420815161014081018352815481526001808301546001600160a01b0390811695830195909552600283015485169382019390935260038201546060820152600482015460808201529381015490921660a0840152600682015460c0840152600782015460e08401526008820154610100840152600982015461012084019160ff90911690811115610d0957634e487b7160e01b600052602160045260246000fd5b6001811115610d2857634e487b7160e01b600052602160045260246000fd5b8152505090508381608001818151610d409190613b6a565b9052506000858152600560208181526040928390208451815590840151600180830180546001600160a01b03199081166001600160a01b0394851617909155948601516002840180548716918416919091179055606086015160038401556080860151600484015560a08601519383018054909516939091169290921790925560c0830151600683015560e08301516007830155610100830151600883015561012083015160098301805485949360ff19909116908381811115610e1457634e487b7160e01b600052602160045260246000fd5b0217905550505083610e385760405162461bcd60e51b8152600401610910906136c7565b60008161012001516001811115610e5f57634e487b7160e01b600052602160045260246000fd5b14610e7c5760405162461bcd60e51b81526004016109109061360d565b80604001516001600160a01b031663e985e9c5610e97611fbf565b306040518363ffffffff1660e01b8152600401610eb59291906131d2565b60206040518083038186803b158015610ecd57600080fd5b505afa158015610ee1573d6000803e3d6000fd5b505050506040513d601f19601f82011682018060405250810190610f059190612fc8565b610f215760405162461bcd60e51b8152600401610910906137ac565b80604001516001600160a01b031663f242432a610f3c611fbf565b308460600151886040518563ffffffff1660e01b8152600401610f629493929190613243565b600060405180830381600087803b158015610f7c57600080fd5b505af1158015610f90573d6000803e3d6000fd5b5050505084610b14611fbf565b600260009054906101000a90046001600160a01b03166001600160a01b0316639d2f83f06040518163ffffffff1660e01b815260040160206040518083038186803b158015610feb57600080fd5b505afa158015610fff573d6000803e3d6000fd5b505050506040513d601f19601f820116820180604052508101906110239190612fc8565b156110405760405162461bcd60e51b81526004016109109061370b565b611048611fbf565b60008681526005602052604090206001015486906001600160a01b038381169116146110865760405162461bcd60e51b815260040161091090613498565b6000878152600560208181526040808420815161014081018352815481526001808301546001600160a01b0390811695830195909552600283015485169382019390935260038201546060820152600482015460808201529381015490921660a0840152600682015460c0840152600782015460e08401526008820154610100840152600982015461012084019160ff9091169081111561113757634e487b7160e01b600052602160045260246000fd5b600181111561115657634e487b7160e01b600052602160045260246000fd5b90525060c081018890526001600160a01b03871660a0820152905061117b8542613b6a565b60e08201528315611195576111908442613b6a565b611199565b6000195b61010082019081526000898152600560208181526040928390208551815590850151600180830180546001600160a01b03199081166001600160a01b0394851617909155948701516002840180548716918416919091179055606087015160038401556080870151600484015560a08701519383018054909516939091169290921790925560c0840151600683015560e0840151600783015591516008820155610120830151600982018054859460ff1990911690838181111561126d57634e487b7160e01b600052602160045260246000fd5b02179055509050508761127e611fbf565b6001600160a01b03167f1b8ddfdd6ac3e5a29ff1523294456784db693ed91ed9cbcbcaba3f7b3297281d836040516112b69190613ab1565b60405180910390a35050505050505050565b60025460408051634a32c6bf60e11b815290516001600160a01b03909216916391d148549183916394658d7e91600480820192602092909190829003018186803b15801561131557600080fd5b505afa158015611329573d6000803e3d6000fd5b505050506040513d601f19601f8201168201806040525081019061134d9190612fe8565b611355611fbf565b6040518363ffffffff1660e01b8152600401611372929190613302565b60206040518083038186803b15801561138a57600080fd5b505afa15801561139e573d6000803e3d6000fd5b505050506040513d601f19601f820116820180604052508101906113c29190612fc8565b6113de5760405162461bcd60e51b8152600401610910906133de565b6113ea60048383612b7e565b505050565b6003546060908067ffffffffffffffff81111561141c57634e487b7160e01b600052604160045260246000fd5b60405190808252806020026020018201604052801561145557816020015b611442612af2565b81526020019060019003908161143a5790505b50915060005b8181101561157957600081815260056020818152604092839020835161014081018552815481526001808301546001600160a01b0390811694830194909452600283015484169582019590955260038201546060820152600482015460808201529281015490911660a0830152600681015460c0830152600781015460e0830152600881015461010083015260098101549192909161012084019160ff9091169081111561151957634e487b7160e01b600052602160045260246000fd5b600181111561153857634e487b7160e01b600052602160045260246000fd5b8152505083828151811061155c57634e487b7160e01b600052603260045260246000fd5b6020908102919091010152611572600182613b6a565b905061145b565b505090565b63bc197c8160e01b95945050505050565b6004805461159c90613bd8565b80601f01602080910402602001604051908101604052809291908181526020018280546115c890613bd8565b80156116155780601f106115ea57610100808354040283529160200191611615565b820191906000526020600020905b8154815290600101906020018083116115f857829003601f168201915b505050505081565b60035481565b600260009054906101000a90046001600160a01b03166001600160a01b0316639d2f83f06040518163ffffffff1660e01b815260040160206040518083038186803b15801561167157600080fd5b505afa158015611685573d6000803e3d6000fd5b505050506040513d601f19601f820116820180604052508101906116a99190612fc8565b156116c65760405162461bcd60e51b81526004016109109061370b565b600083116116e65760405162461bcd60e51b815260040161091090613a1d565b600380549060019060006116fa8385613b6a565b90915550600090506117168961170e611fbf565b308b89612155565b90506000604051806101400160405280848152602001611734611fbf565b6001600160a01b031681526020018b6001600160a01b031681526020018a8152602001878152602001896001600160a01b03168152602001888152602001864261177e9190613b6a565b81526020018515611798576117938642613b6a565b61179c565b6000195b81526020018360018111156117c157634e487b7160e01b600052602160045260246000fd5b90526000848152600560208181526040928390208451815590840151600180830180546001600160a01b03199081166001600160a01b0394851617909155948601516002840180548716918416919091179055606086015160038401556080860151600484015560a08601519383018054909516939091169290921790925560c0830151600683015560e08301516007830155610100830151600883015561012083015160098301805494955085949192909160ff191690838181111561189857634e487b7160e01b600052602160045260246000fd5b0217905550905050826118a9611fbf565b6001600160a01b03168b6001600160a01b03167fd2b9362693b450efe0eba286dabb8fc2c4d8e9567ee2db206d3f2823f4cbe9f1846040516118eb9190613ab1565b60405180910390a450505050505050505050565b600260005414156119225760405162461bcd60e51b815260040161091090613a7a565b6002600081905554604080516309d2f83f60e41b815290516001600160a01b0390921691639d2f83f091600480820192602092909190829003018186803b15801561196c57600080fd5b505afa158015611980573d6000803e3d6000fd5b505050506040513d601f19601f820116820180604052508101906119a49190612fc8565b156119c15760405162461bcd60e51b81526004016109109061370b565b60008281526005602052604090206001015482906001600160a01b03166119fa5760405162461bcd60e51b815260040161091090613809565b6000838152600560208181526040808420815161014081018352815481526001808301546001600160a01b0390811695830195909552600283015485169382019390935260038201546060820152600482015460808201529381015490921660a0840152600682015460c0840152600782015460e08401526008820154610100840152600982015461012084019160ff90911690811115611aab57634e487b7160e01b600052602160045260246000fd5b6001811115611aca57634e487b7160e01b600052602160045260246000fd5b90525090508215801590611ae2575080608001518311155b611afe5760405162461bcd60e51b8152600401610910906139c0565b8061010001514211158015611b1757508060e001514210155b611b335760405162461bcd60e51b81526004016109109061384c565b8281608001818151611b459190613bc1565b9052506000848152600560208181526040928390208451815590840151600180830180546001600160a01b03199081166001600160a01b0394851617909155948601516002840180548716918416919091179055606086015160038401556080860151600484015560a08601519383018054909516939091169290921790925560c0830151600683015560e08301516007830155610100830151600883015561012083015160098301805485949360ff19909116908381811115611c1957634e487b7160e01b600052602160045260246000fd5b0217905550505060c081015115611c3457611c34818461250c565b611c3e8184611fed565b8381602001516001600160a01b031682604001516001600160a01b03167fca61ad62dd0d03a15c18b6b324fec84841d4a7a3b09dc67787211a2162f56898611c84611fbf565b8786604051611c959392919061327b565b60405180910390a4505060016000555050565b6003546060906000805b82811015611cff576000818152600560205260409020600101546001600160a01b0386811691161415611ced57611cea600183613b6a565b91505b611cf8600182613b6a565b9050611cb2565b508067ffffffffffffffff811115611d2757634e487b7160e01b600052604160045260246000fd5b604051908082528060200260200182016040528015611d6057816020015b611d4d612af2565b815260200190600190039081611d455790505b5092506000805b838110156108c1576000818152600560205260409020600101546001600160a01b0387811691161415611ea657600081815260056020818152604092839020835161014081018552815481526001808301546001600160a01b0390811694830194909452600283015484169582019590955260038201546060820152600482015460808201529281015490911660a0830152600681015460c0830152600781015460e0830152600881015461010083015260098101549192909161012084019160ff90911690811115611e4a57634e487b7160e01b600052602160045260246000fd5b6001811115611e6957634e487b7160e01b600052602160045260246000fd5b81525050858381518110611e8d57634e487b7160e01b600052603260045260246000fd5b6020908102919091010152611ea3600183613b6a565b91505b611eb1600182613b6a565b9050611d67565b6005602081905260009182526040909120805460018201546002830154600384015460048501549585015460068601546007870154600888015460099098015496986001600160a01b039687169895871697949690959316939192909160ff168a565b606060048054611f2a90613bd8565b80601f0160208091040260200160405190810160405280929190818152602001828054611f5690613bd8565b8015611fa35780601f10611f7857610100808354040283529160200191611fa3565b820191906000526020600020905b815481529060010190602001808311611f8657829003601f168201915b505050505090505b90565b63f23a6e6160e01b95945050505050565b6000611fca33610b5b565b15611fde575060131936013560601c611fab565b611fe6612aee565b9050611fab565b6000826101200151600181111561201457634e487b7160e01b600052602160045260246000fd5b14156120925781604001516001600160a01b031663f242432a30612036611fbf565b8560600151856040518563ffffffff1660e01b815260040161205b9493929190613243565b600060405180830381600087803b15801561207557600080fd5b505af1158015612089573d6000803e3d6000fd5b50505050612151565b600182610120015160018111156120b957634e487b7160e01b600052602160045260246000fd5b141561215157806001146120df5760405162461bcd60e51b815260040161091090613906565b81604001516001600160a01b031663b88d4fde306120fb611fbf565b85606001516040518463ffffffff1660e01b815260040161211e93929190613210565b600060405180830381600087803b15801561213857600080fd5b505af115801561214c573d6000803e3d6000fd5b505050505b5050565b6040516301ffc9a760e01b81526000906001600160a01b038716906301ffc9a79061218b90636cdb3d1360e11b90600401613319565b60206040518083038186803b1580156121a357600080fd5b505afa1580156121b7573d6000803e3d6000fd5b505050506040513d601f19601f820116820180604052508101906121db9190612fc8565b156122e75760405163e985e9c560e01b81526001600160a01b0387169063e985e9c59061220e90889088906004016131d2565b60206040518083038186803b15801561222657600080fd5b505afa15801561223a573d6000803e3d6000fd5b505050506040513d601f19601f8201168201806040525081019061225e9190612fc8565b61227a5760405162461bcd60e51b815260040161091090613552565b50604051637921219560e11b81526000906001600160a01b0387169063f242432a906122b0908890889088908890600401613243565b600060405180830381600087803b1580156122ca57600080fd5b505af11580156122de573d6000803e3d6000fd5b50505050610456565b6040516301ffc9a760e01b81526001600160a01b038716906301ffc9a79061231a906380ac58cd60e01b90600401613319565b60206040518083038186803b15801561233257600080fd5b505afa158015612346573d6000803e3d6000fd5b505050506040513d601f19601f8201168201806040525081019061236a9190612fc8565b156124f4578160011461238f5760405162461bcd60e51b8152600401610910906134f5565b60405163e985e9c560e01b81526001600160a01b0387169063e985e9c5906123bd90889088906004016131d2565b60206040518083038186803b1580156123d557600080fd5b505afa1580156123e9573d6000803e3d6000fd5b505050506040513d601f19601f8201168201806040525081019061240d9190612fc8565b806124a45750836001600160a01b0316866001600160a01b031663081812fc856040518263ffffffff1660e01b81526004016124499190613ac0565b60206040518083038186803b15801561246157600080fd5b505afa158015612475573d6000803e3d6000fd5b505050506040513d601f19601f820116820180604052508101906124999190612d6e565b6001600160a01b0316145b6124c05760405162461bcd60e51b815260040161091090613552565b50604051635c46a7ef60e11b81526001906001600160a01b0387169063b88d4fde906122b090889088908890600401613210565b60405162461bcd60e51b815260040161091090613381565b6000818360c0015161251e9190613ba2565b9050808360a001516001600160a01b031663dd62ed3e61253c611fbf565b306040518363ffffffff1660e01b815260040161255a9291906131d2565b60206040518083038186803b15801561257257600080fd5b505afa158015612586573d6000803e3d6000fd5b505050506040513d601f19601f820116820180604052508101906125aa9190612fe8565b10156125c85760405162461bcd60e51b8152600401610910906135b0565b6002546040805163fd967f4760e01b815290516000926001600160a01b03169163fd967f47916004808301926020929190829003018186803b15801561260d57600080fd5b505afa158015612621573d6000803e3d6000fd5b505050506040513d601f19601f820116820180604052508101906126459190613068565b6fffffffffffffffffffffffffffffffff16600260009054906101000a90046001600160a01b03166001600160a01b0316633f5c3e876040518163ffffffff1660e01b815260040160206040518083038186803b1580156126a557600080fd5b505afa1580156126b9573d6000803e3d6000fd5b505050506040513d601f19601f820116820180604052508101906126dd9190613068565b6126f9906fffffffffffffffffffffffffffffffff1684613ba2565b6127039190613b82565b90508360a001516001600160a01b03166323b872dd612720611fbf565b600260009054906101000a90046001600160a01b03166001600160a01b0316639494995b6040518163ffffffff1660e01b815260040160206040518083038186803b15801561276e57600080fd5b505afa158015612782573d6000803e3d6000fd5b505050506040513d601f19601f820116820180604052508101906127a69190612d6e565b846040518463ffffffff1660e01b81526004016127c5939291906131ec565b602060405180830381600087803b1580156127df57600080fd5b505af11580156127f3573d6000803e3d6000fd5b505050506040513d601f19601f820116820180604052508101906128179190612fc8565b6128335760405162461bcd60e51b81526004016109109061374f565b600061283f8284613bc1565b905084604001516001600160a01b03166301ffc9a763152a902d60e11b6040518263ffffffff1660e01b81526004016128789190613319565b60206040518083038186803b15801561289057600080fd5b505afa1580156128a4573d6000803e3d6000fd5b505050506040513d601f19601f820116820180604052508101906128c89190612fc8565b15612a3a5760008086604001516001600160a01b0316632a55205a8860600151876040518363ffffffff1660e01b8152600401612906929190613b32565b604080518083038186803b15801561291d57600080fd5b505afa158015612931573d6000803e3d6000fd5b505050506040513d601f19601f820116820180604052508101906129559190612f37565b9092509050846129658583613b6a565b106129825760405162461bcd60e51b81526004016109109061366a565b61298c8184613bc1565b92508660a001516001600160a01b03166323b872dd6129a9611fbf565b84846040518463ffffffff1660e01b81526004016129c9939291906131ec565b602060405180830381600087803b1580156129e357600080fd5b505af11580156129f7573d6000803e3d6000fd5b505050506040513d601f19601f82011682018060405250810190612a1b9190612fc8565b612a375760405162461bcd60e51b815260040161091090613963565b50505b8460a001516001600160a01b03166323b872dd612a55611fbf565b8760200151846040518463ffffffff1660e01b8152600401612a79939291906131ec565b602060405180830381600087803b158015612a9357600080fd5b505af1158015612aa7573d6000803e3d6000fd5b505050506040513d601f19601f82011682018060405250810190612acb9190612fc8565b612ae75760405162461bcd60e51b81526004016109109061343b565b5050505050565b3390565b6040518061014001604052806000815260200160006001600160a01b0316815260200160006001600160a01b03168152602001600081526020016000815260200160006001600160a01b0316815260200160008152602001600081526020016000815260200160006001811115612b7957634e487b7160e01b600052602160045260246000fd5b905290565b828054612b8a90613bd8565b90600052602060002090601f016020900481019282612bac5760008555612bf2565b82601f10612bc55782800160ff19823516178555612bf2565b82800160010185558215612bf2579182015b82811115612bf2578235825591602001919060010190612bd7565b50612bfe929150612c02565b5090565b5b80821115612bfe5760008155600101612c03565b600082601f830112612c27578081fd5b8135602067ffffffffffffffff821115612c4357612c43613c29565b808202612c51828201613b40565b838152828101908684018388018501891015612c6b578687fd5b8693505b85841015612c8d578035835260019390930192918401918401612c6f565b50979650505050505050565b60008083601f840112612caa578182fd5b50813567ffffffffffffffff811115612cc1578182fd5b602083019150836020828501011115612cd957600080fd5b9250929050565b600082601f830112612cf0578081fd5b813567ffffffffffffffff811115612d0a57612d0a613c29565b612d1d601f8201601f1916602001613b40565b818152846020838601011115612d31578283fd5b816020850160208301379081016020019190915292915050565b600060208284031215612d5c578081fd5b8135612d6781613c3f565b9392505050565b600060208284031215612d7f578081fd5b8151612d6781613c3f565b600080600080600060a08688031215612da1578081fd5b8535612dac81613c3f565b94506020860135612dbc81613c3f565b9350604086013567ffffffffffffffff80821115612dd8578283fd5b612de489838a01612c17565b94506060880135915080821115612df9578283fd5b612e0589838a01612c17565b93506080880135915080821115612e1a578283fd5b50612e2788828901612ce0565b9150509295509295909350565b600080600080600060808688031215612e4b578081fd5b8535612e5681613c3f565b94506020860135612e6681613c3f565b935060408601359250606086013567ffffffffffffffff811115612e88578182fd5b612e9488828901612c99565b969995985093965092949392505050565b600080600080600060a08688031215612ebc578081fd5b8535612ec781613c3f565b94506020860135612ed781613c3f565b93506040860135925060608601359150608086013567ffffffffffffffff811115612f00578182fd5b612e2788828901612ce0565b60008060408385031215612f1e578182fd5b8235612f2981613c3f565b946020939093013593505050565b60008060408385031215612f49578182fd5b8251612f5481613c3f565b6020939093015192949293505050565b600080600080600080600060e0888a031215612f7e578182fd5b8735612f8981613c3f565b9650602088013595506040880135612fa081613c3f565b969995985095966060810135965060808101359560a0820135955060c0909101359350915050565b600060208284031215612fd9578081fd5b81518015158114612d67578182fd5b600060208284031215612ff9578081fd5b5051919050565b600060208284031215613011578081fd5b81356001600160e01b031981168114612d67578182fd5b6000806020838503121561303a578182fd5b823567ffffffffffffffff811115613050578283fd5b61305c85828601612c99565b90969095509350505050565b600060208284031215613079578081fd5b81516fffffffffffffffffffffffffffffffff81168114612d67578182fd5b6000602082840312156130a9578081fd5b5035919050565b600080604083850312156130c2578182fd5b50508035926020909101359150565b600080600080600060a086880312156130e8578283fd5b8535945060208601359350604086013561310181613c3f565b94979396509394606081013594506080013592915050565b6001600160a01b03169052565b6002811061314457634e487b7160e01b600052602160045260246000fd5b9052565b80518252602081015161315e6020840182613119565b5060408101516131716040840182613119565b50606081015160608301526080810151608083015260a081015161319860a0840182613119565b5060c081015160c083015260e081015160e0830152610100808201518184015250610120808201516131cc82850182613126565b50505050565b6001600160a01b0392831681529116602082015260400190565b6001600160a01b039384168152919092166020820152604081019190915260600190565b6001600160a01b039384168152919092166020820152604081019190915260806060820181905260009082015260a00190565b6001600160a01b0394851681529290931660208301526040820152606081019190915260a06080820181905260009082015260c00190565b6001600160a01b03841681526020810183905261018081016132a06040830184613148565b949350505050565b6020808252825182820181905260009190848201906040850190845b818110156132eb576132d7838551613148565b9284019261014092909201916001016132c4565b50909695505050505050565b901515815260200190565b9182526001600160a01b0316602082015260400190565b6001600160e01b031991909116815260200190565b6000602080835283518082850152825b8181101561335a5785810183015185820160400152820161333e565b8181111561336b5783604083870101525b50601f01601f1916929092016040019392505050565b60208082526038908201527f4d61726b65743a20746f6b656e206d75737420696d706c656d656e742065697460408201527f686572204552432031313535206f7220455243203732312e0000000000000000606082015260800190565b60208082526033908201527f5061636b3a206f6e6c7920612070726f746f636f6c2061646d696e2063616e2060408201527f63616c6c20746869732066756e6374696f6e2e00000000000000000000000000606082015260800190565b60208082526026908201527f4d61726b65743a206661696c656420746f207472616e736665722073656c6c6560408201527f72206375742e0000000000000000000000000000000000000000000000000000606082015260800190565b6020808252602f908201527f4d61726b65743a204f6e6c79207468652073656c6c65722063616e2063616c6c60408201527f20746869732066756e6374696f6e2e0000000000000000000000000000000000606082015260800190565b60208082526031908201527f4d61726b65743a2043616e6e6f74206c697374206d6f7265207468616e20312060408201527f6f6620616e20455243373231204e46542e000000000000000000000000000000606082015260800190565b602080825260409082018190527f4d61726b65743a206d75737420617070726f766520746865206d61726b657420908201527f746f207472616e7366657220746f6b656e73206265696e67206c69737465642e606082015260800190565b60208082526035908201527f4d61726b65743a206d75737420617070726f7665204d61726b657420746f207460408201527f72616e7366657220707269636520746f207061792e0000000000000000000000606082015260800190565b6020808252602a908201527f4d61726b65743a2043616e206f6e6c792061646420746f20455243203131353560408201527f206c697374696e67732e00000000000000000000000000000000000000000000606082015260800190565b6020808252602b908201527f4d61726b65743a20546f74616c206d61726b657420666565732065786365656460408201527f207468652070726963652e000000000000000000000000000000000000000000606082015260800190565b60208082526024908201527f4d61726b65743a206d75737420616464206174206c65617374206f6e6520746f60408201526335b2b71760e11b606082015260800190565b60208082526024908201527f4d61726b65743a20546865207061636b2070726f746f636f6c2069732070617560408201526339b2b21760e11b606082015260800190565b60208082526028908201527f4d61726b65743a206661696c656420746f207472616e736665722070726f746f60408201527f636f6c206375742e000000000000000000000000000000000000000000000000606082015260800190565b6020808252603f908201527f4d61726b65743a206d75737420617070726f766520746865206d61726b65742060408201527f746f207472616e7366657220746f6b656e73206265696e672061646465642e00606082015260800190565b60208082526023908201527f4d61726b65743a20546865206c697374696e6720646f6573206e6f742065786960408201526239ba1760e91b606082015260800190565b60208082526032908201527f4d61726b65743a207468652073616c652068617320656974686572206e6f742060408201527f73746172746564206f7220636c6f7365642e0000000000000000000000000000606082015260800190565b60208082526032908201527f4d61726b65743a2063616e6e6f7420756e6c697374206d6f726520746f6b656e60408201527f73207468616e20617265206c69737465642e0000000000000000000000000000606082015260800190565b60208082526036908201527f4d61726b65743a2043616e6e6f7420756e6c697374206d6f7265207468616e2060408201527f6f6e65206f6620616e2045524320373231204e46542e00000000000000000000606082015260800190565b60208082526027908201527f4d61726b65743a206661696c656420746f207472616e7366657220637265617460408201527f6f72206375742e00000000000000000000000000000000000000000000000000606082015260800190565b60208082526031908201527f4d61726b65743a206d7573742062757920616e20617070726f7072696174652060408201527f616d6f756e74206f6620746f6b656e732e000000000000000000000000000000606082015260800190565b60208082526025908201527f4d61726b65743a206d757374206c697374206174206c65617374206f6e65207460408201527f6f6b656e2e000000000000000000000000000000000000000000000000000000606082015260800190565b6020808252601f908201527f5265656e7472616e637947756172643a207265656e7472616e742063616c6c00604082015260600190565b61014081016103618284613148565b90815260200190565b6000610140820190508b82526001600160a01b03808c166020840152808b16604084015289606084015288608084015280881660a0840152508560c08301528460e083015283610100830152613b23610120830184613126565b9b9a5050505050505050505050565b918252602082015260400190565b60405181810167ffffffffffffffff81118282101715613b6257613b62613c29565b604052919050565b60008219821115613b7d57613b7d613c13565b500190565b600082613b9d57634e487b7160e01b81526012600452602481fd5b500490565b6000816000190483118215151615613bbc57613bbc613c13565b500290565b600082821015613bd357613bd3613c13565b500390565b600281046001821680613bec57607f821691505b60208210811415613c0d57634e487b7160e01b600052602260045260246000fd5b50919050565b634e487b7160e01b600052601160045260246000fd5b634e487b7160e01b600052604160045260246000fd5b6001600160a01b0381168114613c5457600080fd5b5056fea164736f6c6343000800000a",
  "linkReferences": {},
  "deployedLinkReferences": {}
}