{
  "_format": "hh-sol-artifact-1",
  "contractName": "Market",
  "sourceName": "contracts/Market.sol",
  "abi": [
    {
      "inputs": [
        {
          "internalType": "address",
          "name": "_controlCenter",
          "type": "address"
        },
        {
          "internalType": "address",
          "name": "_trustedForwarder",
          "type": "address"
        },
        {
          "internalType": "string",
          "name": "_uri",
          "type": "string"
        }
      ],
      "stateMutability": "nonpayable",
      "type": "constructor"
    },
    {
      "anonymous": false,
      "inputs": [
        {
          "indexed": true,
          "internalType": "address",
          "name": "seller",
          "type": "address"
        },
        {
          "indexed": true,
          "internalType": "uint256",
          "name": "listingId",
          "type": "uint256"
        },
        {
          "components": [
            {
              "internalType": "address",
              "name": "seller",
              "type": "address"
            },
            {
              "internalType": "address",
              "name": "assetContract",
              "type": "address"
            },
            {
              "internalType": "uint256",
              "name": "tokenId",
              "type": "uint256"
            },
            {
              "internalType": "uint256",
              "name": "quantity",
              "type": "uint256"
            },
            {
              "internalType": "address",
              "name": "currency",
              "type": "address"
            },
            {
              "internalType": "uint256",
              "name": "pricePerToken",
              "type": "uint256"
            },
            {
              "internalType": "uint256",
              "name": "saleStart",
              "type": "uint256"
            },
            {
              "internalType": "uint256",
              "name": "saleEnd",
              "type": "uint256"
            },
            {
              "internalType": "enum Market.TokenType",
              "name": "tokenType",
              "type": "uint8"
            }
          ],
          "indexed": false,
          "internalType": "struct Market.Listing",
          "name": "listing",
          "type": "tuple"
        }
      ],
      "name": "ListingUpdate",
      "type": "event"
    },
    {
      "anonymous": false,
      "inputs": [
        {
          "indexed": false,
          "internalType": "uint256",
          "name": "protocolFeeBps",
          "type": "uint256"
        },
        {
          "indexed": false,
          "internalType": "uint256",
          "name": "creatorFeeBps",
          "type": "uint256"
        }
      ],
      "name": "MarketFeesUpdated",
      "type": "event"
    },
    {
      "anonymous": false,
      "inputs": [
        {
          "indexed": true,
          "internalType": "address",
          "name": "assetContract",
          "type": "address"
        },
        {
          "indexed": true,
          "internalType": "address",
          "name": "seller",
          "type": "address"
        },
        {
          "indexed": true,
          "internalType": "uint256",
          "name": "listingId",
          "type": "uint256"
        },
        {
          "components": [
            {
              "internalType": "address",
              "name": "seller",
              "type": "address"
            },
            {
              "internalType": "address",
              "name": "assetContract",
              "type": "address"
            },
            {
              "internalType": "uint256",
              "name": "tokenId",
              "type": "uint256"
            },
            {
              "internalType": "uint256",
              "name": "quantity",
              "type": "uint256"
            },
            {
              "internalType": "address",
              "name": "currency",
              "type": "address"
            },
            {
              "internalType": "uint256",
              "name": "pricePerToken",
              "type": "uint256"
            },
            {
              "internalType": "uint256",
              "name": "saleStart",
              "type": "uint256"
            },
            {
              "internalType": "uint256",
              "name": "saleEnd",
              "type": "uint256"
            },
            {
              "internalType": "enum Market.TokenType",
              "name": "tokenType",
              "type": "uint8"
            }
          ],
          "indexed": false,
          "internalType": "struct Market.Listing",
          "name": "listing",
          "type": "tuple"
        }
      ],
      "name": "NewListing",
      "type": "event"
    },
    {
      "anonymous": false,
      "inputs": [
        {
          "indexed": true,
          "internalType": "address",
          "name": "assetContract",
          "type": "address"
        },
        {
          "indexed": true,
          "internalType": "address",
          "name": "seller",
          "type": "address"
        },
        {
          "indexed": true,
          "internalType": "uint256",
          "name": "listingId",
          "type": "uint256"
        },
        {
          "indexed": false,
          "internalType": "address",
          "name": "buyer",
          "type": "address"
        },
        {
          "indexed": false,
          "internalType": "uint256",
          "name": "quanitytBought",
          "type": "uint256"
        },
        {
          "components": [
            {
              "internalType": "address",
              "name": "seller",
              "type": "address"
            },
            {
              "internalType": "address",
              "name": "assetContract",
              "type": "address"
            },
            {
              "internalType": "uint256",
              "name": "tokenId",
              "type": "uint256"
            },
            {
              "internalType": "uint256",
              "name": "quantity",
              "type": "uint256"
            },
            {
              "internalType": "address",
              "name": "currency",
              "type": "address"
            },
            {
              "internalType": "uint256",
              "name": "pricePerToken",
              "type": "uint256"
            },
            {
              "internalType": "uint256",
              "name": "saleStart",
              "type": "uint256"
            },
            {
              "internalType": "uint256",
              "name": "saleEnd",
              "type": "uint256"
            },
            {
              "internalType": "enum Market.TokenType",
              "name": "tokenType",
              "type": "uint8"
            }
          ],
          "indexed": false,
          "internalType": "struct Market.Listing",
          "name": "listing",
          "type": "tuple"
        }
      ],
      "name": "NewSale",
      "type": "event"
    },
    {
      "inputs": [],
      "name": "_contractURI",
      "outputs": [
        {
          "internalType": "string",
          "name": "",
          "type": "string"
        }
      ],
      "stateMutability": "view",
      "type": "function"
    },
    {
      "inputs": [
        {
          "internalType": "uint256",
          "name": "_listingId",
          "type": "uint256"
        },
        {
          "internalType": "uint256",
          "name": "_quantity",
          "type": "uint256"
        }
      ],
      "name": "addToListing",
      "outputs": [],
      "stateMutability": "nonpayable",
      "type": "function"
    },
    {
      "inputs": [
        {
          "internalType": "uint256",
          "name": "_listingId",
          "type": "uint256"
        },
        {
          "internalType": "uint256",
          "name": "_quantity",
          "type": "uint256"
        }
      ],
      "name": "buy",
      "outputs": [],
      "stateMutability": "nonpayable",
      "type": "function"
    },
    {
      "inputs": [],
      "name": "contractURI",
      "outputs": [
        {
          "internalType": "string",
          "name": "",
          "type": "string"
        }
      ],
      "stateMutability": "view",
      "type": "function"
    },
    {
      "inputs": [],
      "name": "getAllListings",
      "outputs": [
        {
          "components": [
            {
              "internalType": "address",
              "name": "seller",
              "type": "address"
            },
            {
              "internalType": "address",
              "name": "assetContract",
              "type": "address"
            },
            {
              "internalType": "uint256",
              "name": "tokenId",
              "type": "uint256"
            },
            {
              "internalType": "uint256",
              "name": "quantity",
              "type": "uint256"
            },
            {
              "internalType": "address",
              "name": "currency",
              "type": "address"
            },
            {
              "internalType": "uint256",
              "name": "pricePerToken",
              "type": "uint256"
            },
            {
              "internalType": "uint256",
              "name": "saleStart",
              "type": "uint256"
            },
            {
              "internalType": "uint256",
              "name": "saleEnd",
              "type": "uint256"
            },
            {
              "internalType": "enum Market.TokenType",
              "name": "tokenType",
              "type": "uint8"
            }
          ],
          "internalType": "struct Market.Listing[]",
          "name": "allListings",
          "type": "tuple[]"
        }
      ],
      "stateMutability": "view",
      "type": "function"
    },
    {
      "inputs": [
        {
          "internalType": "uint256",
          "name": "_listingId",
          "type": "uint256"
        }
      ],
      "name": "getListing",
      "outputs": [
        {
          "components": [
            {
              "internalType": "address",
              "name": "seller",
              "type": "address"
            },
            {
              "internalType": "address",
              "name": "assetContract",
              "type": "address"
            },
            {
              "internalType": "uint256",
              "name": "tokenId",
              "type": "uint256"
            },
            {
              "internalType": "uint256",
              "name": "quantity",
              "type": "uint256"
            },
            {
              "internalType": "address",
              "name": "currency",
              "type": "address"
            },
            {
              "internalType": "uint256",
              "name": "pricePerToken",
              "type": "uint256"
            },
            {
              "internalType": "uint256",
              "name": "saleStart",
              "type": "uint256"
            },
            {
              "internalType": "uint256",
              "name": "saleEnd",
              "type": "uint256"
            },
            {
              "internalType": "enum Market.TokenType",
              "name": "tokenType",
              "type": "uint8"
            }
          ],
          "internalType": "struct Market.Listing",
          "name": "listing",
          "type": "tuple"
        }
      ],
      "stateMutability": "view",
      "type": "function"
    },
    {
      "inputs": [
        {
          "internalType": "address",
          "name": "_assetContract",
          "type": "address"
        },
        {
          "internalType": "uint256",
          "name": "_tokenId",
          "type": "uint256"
        }
      ],
      "name": "getListingsByAsset",
      "outputs": [
        {
          "components": [
            {
              "internalType": "address",
              "name": "seller",
              "type": "address"
            },
            {
              "internalType": "address",
              "name": "assetContract",
              "type": "address"
            },
            {
              "internalType": "uint256",
              "name": "tokenId",
              "type": "uint256"
            },
            {
              "internalType": "uint256",
              "name": "quantity",
              "type": "uint256"
            },
            {
              "internalType": "address",
              "name": "currency",
              "type": "address"
            },
            {
              "internalType": "uint256",
              "name": "pricePerToken",
              "type": "uint256"
            },
            {
              "internalType": "uint256",
              "name": "saleStart",
              "type": "uint256"
            },
            {
              "internalType": "uint256",
              "name": "saleEnd",
              "type": "uint256"
            },
            {
              "internalType": "enum Market.TokenType",
              "name": "tokenType",
              "type": "uint8"
            }
          ],
          "internalType": "struct Market.Listing[]",
          "name": "tokenListings",
          "type": "tuple[]"
        }
      ],
      "stateMutability": "view",
      "type": "function"
    },
    {
      "inputs": [
        {
          "internalType": "address",
          "name": "_assetContract",
          "type": "address"
        }
      ],
      "name": "getListingsByAssetContract",
      "outputs": [
        {
          "components": [
            {
              "internalType": "address",
              "name": "seller",
              "type": "address"
            },
            {
              "internalType": "address",
              "name": "assetContract",
              "type": "address"
            },
            {
              "internalType": "uint256",
              "name": "tokenId",
              "type": "uint256"
            },
            {
              "internalType": "uint256",
              "name": "quantity",
              "type": "uint256"
            },
            {
              "internalType": "address",
              "name": "currency",
              "type": "address"
            },
            {
              "internalType": "uint256",
              "name": "pricePerToken",
              "type": "uint256"
            },
            {
              "internalType": "uint256",
              "name": "saleStart",
              "type": "uint256"
            },
            {
              "internalType": "uint256",
              "name": "saleEnd",
              "type": "uint256"
            },
            {
              "internalType": "enum Market.TokenType",
              "name": "tokenType",
              "type": "uint8"
            }
          ],
          "internalType": "struct Market.Listing[]",
          "name": "tokenListings",
          "type": "tuple[]"
        }
      ],
      "stateMutability": "view",
      "type": "function"
    },
    {
      "inputs": [
        {
          "internalType": "address",
          "name": "_seller",
          "type": "address"
        }
      ],
      "name": "getListingsBySeller",
      "outputs": [
        {
          "components": [
            {
              "internalType": "address",
              "name": "seller",
              "type": "address"
            },
            {
              "internalType": "address",
              "name": "assetContract",
              "type": "address"
            },
            {
              "internalType": "uint256",
              "name": "tokenId",
              "type": "uint256"
            },
            {
              "internalType": "uint256",
              "name": "quantity",
              "type": "uint256"
            },
            {
              "internalType": "address",
              "name": "currency",
              "type": "address"
            },
            {
              "internalType": "uint256",
              "name": "pricePerToken",
              "type": "uint256"
            },
            {
              "internalType": "uint256",
              "name": "saleStart",
              "type": "uint256"
            },
            {
              "internalType": "uint256",
              "name": "saleEnd",
              "type": "uint256"
            },
            {
              "internalType": "enum Market.TokenType",
              "name": "tokenType",
              "type": "uint8"
            }
          ],
          "internalType": "struct Market.Listing[]",
          "name": "sellerListings",
          "type": "tuple[]"
        }
      ],
      "stateMutability": "view",
      "type": "function"
    },
    {
      "inputs": [
        {
          "internalType": "address",
          "name": "forwarder",
          "type": "address"
        }
      ],
      "name": "isTrustedForwarder",
      "outputs": [
        {
          "internalType": "bool",
          "name": "",
          "type": "bool"
        }
      ],
      "stateMutability": "view",
      "type": "function"
    },
    {
      "inputs": [
        {
          "internalType": "address",
          "name": "_assetContract",
          "type": "address"
        },
        {
          "internalType": "uint256",
          "name": "_tokenId",
          "type": "uint256"
        },
        {
          "internalType": "address",
          "name": "_currency",
          "type": "address"
        },
        {
          "internalType": "uint256",
          "name": "_pricePerToken",
          "type": "uint256"
        },
        {
          "internalType": "uint256",
          "name": "_quantity",
          "type": "uint256"
        },
        {
          "internalType": "uint256",
          "name": "_secondsUntilStart",
          "type": "uint256"
        },
        {
          "internalType": "uint256",
          "name": "_secondsUntilEnd",
          "type": "uint256"
        }
      ],
      "name": "list",
      "outputs": [],
      "stateMutability": "nonpayable",
      "type": "function"
    },
    {
      "inputs": [
        {
          "internalType": "uint256",
          "name": "",
          "type": "uint256"
        }
      ],
      "name": "listings",
      "outputs": [
        {
          "internalType": "address",
          "name": "seller",
          "type": "address"
        },
        {
          "internalType": "address",
          "name": "assetContract",
          "type": "address"
        },
        {
          "internalType": "uint256",
          "name": "tokenId",
          "type": "uint256"
        },
        {
          "internalType": "uint256",
          "name": "quantity",
          "type": "uint256"
        },
        {
          "internalType": "address",
          "name": "currency",
          "type": "address"
        },
        {
          "internalType": "uint256",
          "name": "pricePerToken",
          "type": "uint256"
        },
        {
          "internalType": "uint256",
          "name": "saleStart",
          "type": "uint256"
        },
        {
          "internalType": "uint256",
          "name": "saleEnd",
          "type": "uint256"
        },
        {
          "internalType": "enum Market.TokenType",
          "name": "tokenType",
          "type": "uint8"
        }
      ],
      "stateMutability": "view",
      "type": "function"
    },
    {
      "inputs": [
        {
          "internalType": "address",
          "name": "",
          "type": "address"
        },
        {
          "internalType": "address",
          "name": "",
          "type": "address"
        },
        {
          "internalType": "uint256[]",
          "name": "",
          "type": "uint256[]"
        },
        {
          "internalType": "uint256[]",
          "name": "",
          "type": "uint256[]"
        },
        {
          "internalType": "bytes",
          "name": "",
          "type": "bytes"
        }
      ],
      "name": "onERC1155BatchReceived",
      "outputs": [
        {
          "internalType": "bytes4",
          "name": "",
          "type": "bytes4"
        }
      ],
      "stateMutability": "nonpayable",
      "type": "function"
    },
    {
      "inputs": [
        {
          "internalType": "address",
          "name": "",
          "type": "address"
        },
        {
          "internalType": "address",
          "name": "",
          "type": "address"
        },
        {
          "internalType": "uint256",
          "name": "",
          "type": "uint256"
        },
        {
          "internalType": "uint256",
          "name": "",
          "type": "uint256"
        },
        {
          "internalType": "bytes",
          "name": "",
          "type": "bytes"
        }
      ],
      "name": "onERC1155Received",
      "outputs": [
        {
          "internalType": "bytes4",
          "name": "",
          "type": "bytes4"
        }
      ],
      "stateMutability": "nonpayable",
      "type": "function"
    },
    {
      "inputs": [
        {
          "internalType": "address",
          "name": "",
          "type": "address"
        },
        {
          "internalType": "address",
          "name": "",
          "type": "address"
        },
        {
          "internalType": "uint256",
          "name": "",
          "type": "uint256"
        },
        {
          "internalType": "bytes",
          "name": "",
          "type": "bytes"
        }
      ],
      "name": "onERC721Received",
      "outputs": [
        {
          "internalType": "bytes4",
          "name": "",
          "type": "bytes4"
        }
      ],
      "stateMutability": "pure",
      "type": "function"
    },
    {
      "inputs": [
        {
          "internalType": "string",
          "name": "_URI",
          "type": "string"
        }
      ],
      "name": "setContractURI",
      "outputs": [],
      "stateMutability": "nonpayable",
      "type": "function"
    },
    {
      "inputs": [
        {
          "internalType": "bytes4",
          "name": "interfaceId",
          "type": "bytes4"
        }
      ],
      "name": "supportsInterface",
      "outputs": [
        {
          "internalType": "bool",
          "name": "",
          "type": "bool"
        }
      ],
      "stateMutability": "view",
      "type": "function"
    },
    {
      "inputs": [],
      "name": "totalListings",
      "outputs": [
        {
          "internalType": "uint256",
          "name": "",
          "type": "uint256"
        }
      ],
      "stateMutability": "view",
      "type": "function"
    },
    {
      "inputs": [
        {
          "internalType": "uint256",
          "name": "_listingId",
          "type": "uint256"
        },
        {
          "internalType": "uint256",
          "name": "_quantity",
          "type": "uint256"
        }
      ],
      "name": "unlist",
      "outputs": [],
      "stateMutability": "nonpayable",
      "type": "function"
    },
    {
      "inputs": [
        {
          "internalType": "uint256",
          "name": "_listingId",
          "type": "uint256"
        },
        {
          "internalType": "uint256",
          "name": "_pricePerToken",
          "type": "uint256"
        },
        {
          "internalType": "address",
          "name": "_currency",
          "type": "address"
        },
        {
          "internalType": "uint256",
          "name": "_secondsUntilStart",
          "type": "uint256"
        },
        {
          "internalType": "uint256",
          "name": "_secondsUntilEnd",
          "type": "uint256"
        }
      ],
      "name": "updateListingParams",
      "outputs": [],
      "stateMutability": "nonpayable",
      "type": "function"
    }
  ],
  "bytecode": "0x60806040523480156200001157600080fd5b5060405162003cd038038062003cd0833981016040819052620000349162000156565b6001600081905580546001600160a01b0319166001600160a01b03841617905580516200006990600490602084019062000093565b5050600280546001600160a01b0319166001600160a01b03939093169290921790915550620002a0565b828054620000a1906200024d565b90600052602060002090601f016020900481019282620000c5576000855562000110565b82601f10620000e057805160ff191683800117855562000110565b8280016001018555821562000110579182015b8281111562000110578251825591602001919060010190620000f3565b506200011e92915062000122565b5090565b5b808211156200011e576000815560010162000123565b80516001600160a01b03811681146200015157600080fd5b919050565b6000806000606084860312156200016b578283fd5b620001768462000139565b925060206200018781860162000139565b60408601519093506001600160401b0380821115620001a4578384fd5b818701915087601f830112620001b8578384fd5b815181811115620001cd57620001cd6200028a565b604051601f8201601f1916810185018381118282101715620001f357620001f36200028a565b60405281815283820185018a10156200020a578586fd5b8592505b818310156200022d57838301850151818401860152918401916200020e565b818311156200023e57858583830101525b80955050505050509250925092565b6002810460018216806200026257607f821691505b602082108114156200028457634e487b7160e01b600052602260045260246000fd5b50919050565b634e487b7160e01b600052604160045260246000fd5b613a2080620002b06000396000f3fe608060405234801561001057600080fd5b506004361061016c5760003560e01c8063ae73ccec116100cd578063d6febde811610081578063de74e57b11610066578063de74e57b146102ec578063e8a3d48514610314578063f23a6e611461031c5761016c565b8063d6febde8146102c6578063d8cba251146102d95761016c565b8063c0e72740116100b2578063c0e7274014610289578063c78b616c1461029e578063d34cbd44146102b35761016c565b8063ae73ccec1461026e578063bc197c81146102765761016c565b80634fd69f3c11610124578063583e12b611610109578063583e12b61461023557806361a69e9b14610248578063938e3d7b1461025b5761016c565b80634fd69f3c1461020d578063572b6c05146102225761016c565b8063150b7a0211610155578063150b7a02146101ba5780631d0cd75e146101da5780634edeaa81146101fa5761016c565b806301ffc9a714610171578063107a274a1461019a575b600080fd5b61018461017f366004612de9565b61032f565b604051610191919061311c565b60405180910390f35b6101ad6101a8366004612e81565b610366565b60405161019191906138d6565b6101cd6101c8366004612c1d565b61043d565b604051610191919061313e565b6101ed6101e8366004612cf5565b61044f565b60405161019191906130cd565b6101ed610208366004612b34565b610692565b61022061021b366004612e99565b61089c565b005b610184610230366004612b34565b610b11565b610220610243366004612e99565b610b25565b610220610256366004612eba565b610f37565b610220610269366004612e11565b6111a5565b6101ed6112cc565b6101cd610284366004612b73565b61144c565b61029161145d565b6040516101919190613153565b6102a66114eb565b60405161019191906138e5565b6102206102c1366004612d4d565b6114f1565b6102206102d4366004612e99565b6117bd565b6101ed6102e7366004612b34565b611aaf565b6102ff6102fa366004612e81565b611caa565b60405161019199989796959493929190613007565b610291611d08565b6101cd61032a366004612c8e565b611d9b565b60006001600160e01b03198216630271189760e51b148061036057506001600160e01b03198216630a85bd0160e11b145b92915050565b61036e6128e2565b60008281526005602081815260409283902083516101208101855281546001600160a01b03908116825260018084015482169483019490945260028301549582019590955260038201546060820152600482015490941660808501529182015460a0840152600682015460c0840152600782015460e0840152600882015461010084019160ff9091169081111561041557634e487b7160e01b600052602160045260246000fd5b600181111561043457634e487b7160e01b600052602160045260246000fd5b90525092915050565b630a85bd0160e11b5b95945050505050565b6003546060906000805b828110156104c2576000818152600560205260409020600101546001600160a01b03878116911614801561049d575060008181526005602052604090206002015485145b156104b0576104ad600183613926565b91505b6104bb600182613926565b9050610459565b508067ffffffffffffffff8111156104ea57634e487b7160e01b600052604160045260246000fd5b60405190808252806020026020018201604052801561052357816020015b6105106128e2565b8152602001906001900390816105085790505b5092506000805b83811015610688576000818152600560205260409020600101546001600160a01b03888116911614801561056e575060008181526005602052604090206002015486145b156106765760008181526005602081815260409283902083516101208101855281546001600160a01b03908116825260018084015482169483019490945260028301549582019590955260038201546060820152600482015490941660808501529182015460a0840152600682015460c0840152600782015460e0840152600882015461010084019160ff9091169081111561061a57634e487b7160e01b600052602160045260246000fd5b600181111561063957634e487b7160e01b600052602160045260246000fd5b8152505085838151811061065d57634e487b7160e01b600052603260045260246000fd5b6020908102919091010152610673600183613926565b91505b610681600182613926565b905061052a565b5050505092915050565b6003546060906000805b828110156106e9576000818152600560205260409020600101546001600160a01b03868116911614156106d7576106d4600183613926565b91505b6106e2600182613926565b905061069c565b508067ffffffffffffffff81111561071157634e487b7160e01b600052604160045260246000fd5b60405190808252806020026020018201604052801561074a57816020015b6107376128e2565b81526020019060019003908161072f5790505b5092506000805b83811015610893576000818152600560205260409020600101546001600160a01b03878116911614156108815760008181526005602081815260409283902083516101208101855281546001600160a01b03908116825260018084015482169483019490945260028301549582019590955260038201546060820152600482015490941660808501529182015460a0840152600682015460c0840152600782015460e0840152600882015461010084019160ff9091169081111561082557634e487b7160e01b600052602160045260246000fd5b600181111561084457634e487b7160e01b600052602160045260246000fd5b8152505085838151811061086857634e487b7160e01b600052603260045260246000fd5b602090810291909101015261087e600183613926565b91505b61088c600182613926565b9050610751565b50505050919050565b6108a4611dac565b60008381526005602052604090205483906001600160a01b038381169116146108e85760405162461bcd60e51b81526004016108df906132bd565b60405180910390fd5b600084815260056020818152604080842081516101208101835281546001600160a01b03908116825260018084015482169583019590955260028301549382019390935260038201546060820152600482015490921660808301529283015460a0820152600683015460c0820152600783015460e0820152600883015490929161010084019160ff169081111561098f57634e487b7160e01b600052602160045260246000fd5b60018111156109ae57634e487b7160e01b600052602160045260246000fd5b81525050905083816060015110156109d85760405162461bcd60e51b81526004016108df906136ce565b83816060018181516109ea919061397d565b905250600085815260056020818152604092839020845181546001600160a01b03199081166001600160a01b03928316178355928601516001808401805486169284169290921790915594860151600283015560608601516003830155608086015160048301805490941691161790915560a08401519181019190915560c0830151600682015560e08301516007820155610100830151600882018054859460ff19909116908381811115610aaf57634e487b7160e01b600052602160045260246000fd5b0217905550905050610ac18185611dda565b84610aca611dac565b6001600160a01b03167f67e659b6ce1b8a981cd082333f67a16d03936ebda35233da557e47e843cf2db083604051610b0291906138d6565b60405180910390a35050505050565b6001546001600160a01b0390811691161490565b600260009054906101000a90046001600160a01b03166001600160a01b0316639d2f83f06040518163ffffffff1660e01b815260040160206040518083038186803b158015610b7357600080fd5b505afa158015610b87573d6000803e3d6000fd5b505050506040513d601f19601f82011682018060405250810190610bab9190612db1565b15610bc85760405162461bcd60e51b81526004016108df90613530565b610bd0611dac565b60008381526005602052604090205483906001600160a01b03838116911614610c0b5760405162461bcd60e51b81526004016108df906132bd565b600084815260056020818152604080842081516101208101835281546001600160a01b03908116825260018084015482169583019590955260028301549382019390935260038201546060820152600482015490921660808301529283015460a0820152600683015460c0820152600783015460e0820152600883015490929161010084019160ff1690811115610cb257634e487b7160e01b600052602160045260246000fd5b6001811115610cd157634e487b7160e01b600052602160045260246000fd5b8152505090508381606001818151610ce99190613926565b905250600085815260056020818152604092839020845181546001600160a01b03199081166001600160a01b03928316178355928601516001808401805486169284169290921790915594860151600283015560608601516003830155608086015160048301805490941691161790915560a08401519181019190915560c0830151600682015560e08301516007820155610100830151600882018054859460ff19909116908381811115610dae57634e487b7160e01b600052602160045260246000fd5b0217905550505083610dd25760405162461bcd60e51b81526004016108df906134ec565b60008161010001516001811115610df957634e487b7160e01b600052602160045260246000fd5b14610e165760405162461bcd60e51b81526004016108df90613432565b80602001516001600160a01b031663e985e9c5610e31611dac565b306040518363ffffffff1660e01b8152600401610e4f929190612f96565b60206040518083038186803b158015610e6757600080fd5b505afa158015610e7b573d6000803e3d6000fd5b505050506040513d601f19601f82011682018060405250810190610e9f9190612db1565b610ebb5760405162461bcd60e51b81526004016108df906135d1565b80602001516001600160a01b031663f242432a610ed6611dac565b308460400151886040518563ffffffff1660e01b8152600401610efc9493929190613068565b600060405180830381600087803b158015610f1657600080fd5b505af1158015610f2a573d6000803e3d6000fd5b5050505084610aca611dac565b610f3f611dac565b60008681526005602052604090205486906001600160a01b03838116911614610f7a5760405162461bcd60e51b81526004016108df906132bd565b600087815260056020818152604080842081516101208101835281546001600160a01b03908116825260018084015482169583019590955260028301549382019390935260038201546060820152600482015490921660808301529283015460a0820152600683015460c0820152600783015460e0820152600883015490929161010084019160ff169081111561102157634e487b7160e01b600052602160045260246000fd5b600181111561104057634e487b7160e01b600052602160045260246000fd5b90525060a081018890526001600160a01b038716608082015290506110658542613926565b60c0820152831561107f5761107a8442613926565b611083565b6000195b60e08201908152600089815260056020818152604092839020855181546001600160a01b03199081166001600160a01b03928316178355928701516001808401805486169284169290921790915594870151600283015560608701516003830155608087015160048301805490941691161790915560a08501519181019190915560c084015160068201559151600783015561010083015160088301805485949360ff1990911690838181111561114a57634e487b7160e01b600052602160045260246000fd5b02179055509050508761115b611dac565b6001600160a01b03167f67e659b6ce1b8a981cd082333f67a16d03936ebda35233da557e47e843cf2db08360405161119391906138d6565b60405180910390a35050505050505050565b60025460408051634a32c6bf60e11b815290516001600160a01b03909216916391d148549183916394658d7e91600480820192602092909190829003018186803b1580156111f257600080fd5b505afa158015611206573d6000803e3d6000fd5b505050506040513d601f19601f8201168201806040525081019061122a9190612dd1565b611232611dac565b6040518363ffffffff1660e01b815260040161124f929190613127565b60206040518083038186803b15801561126757600080fd5b505afa15801561127b573d6000803e3d6000fd5b505050506040513d601f19601f8201168201806040525081019061129f9190612db1565b6112bb5760405162461bcd60e51b81526004016108df90613203565b6112c760048383612967565b505050565b6003546060908067ffffffffffffffff8111156112f957634e487b7160e01b600052604160045260246000fd5b60405190808252806020026020018201604052801561133257816020015b61131f6128e2565b8152602001906001900390816113175790505b50915060005b818110156114475760008181526005602081815260409283902083516101208101855281546001600160a01b03908116825260018084015482169483019490945260028301549582019590955260038201546060820152600482015490941660808501529182015460a0840152600682015460c0840152600782015460e0840152600882015461010084019160ff909116908111156113e757634e487b7160e01b600052602160045260246000fd5b600181111561140657634e487b7160e01b600052602160045260246000fd5b8152505083828151811061142a57634e487b7160e01b600052603260045260246000fd5b6020908102919091010152611440600182613926565b9050611338565b505090565b63bc197c8160e01b95945050505050565b6004805461146a90613994565b80601f016020809104026020016040519081016040528092919081815260200182805461149690613994565b80156114e35780601f106114b8576101008083540402835291602001916114e3565b820191906000526020600020905b8154815290600101906020018083116114c657829003601f168201915b505050505081565b60035481565b600260009054906101000a90046001600160a01b03166001600160a01b0316639d2f83f06040518163ffffffff1660e01b815260040160206040518083038186803b15801561153f57600080fd5b505afa158015611553573d6000803e3d6000fd5b505050506040513d601f19601f820116820180604052508101906115779190612db1565b156115945760405162461bcd60e51b81526004016108df90613530565b600083116115b45760405162461bcd60e51b81526004016108df90613842565b600380549060019060006115c88385613926565b90915550600090506115e4896115dc611dac565b308b89611f42565b905060006040518061012001604052806115fc611dac565b6001600160a01b031681526020018b6001600160a01b031681526020018a8152602001878152602001896001600160a01b0316815260200188815260200186426116469190613926565b815260200185156116605761165b8642613926565b611664565b6000195b815260200183600181111561168957634e487b7160e01b600052602160045260246000fd5b9052600084815260056020818152604092839020845181546001600160a01b03199081166001600160a01b03928316178355928601516001808401805486169284169290921790915594860151600283015560608601516003830155608086015160048301805490941691161790915560a08401519181019190915560c0830151600682015560e08301516007820155610100830151600882018054949550859492939192909160ff1990911690838181111561175657634e487b7160e01b600052602160045260246000fd5b021790555090505082611767611dac565b6001600160a01b03168b6001600160a01b03167f32d30e57681d4feecd6e3f52549f301319ba42d06a985c19c1a043699ccb1f87846040516117a991906138d6565b60405180910390a450505050505050505050565b600260005414156117e05760405162461bcd60e51b81526004016108df9061389f565b600260009081558281526005602052604090205482906001600160a01b031661181b5760405162461bcd60e51b81526004016108df9061362e565b600083815260056020818152604080842081516101208101835281546001600160a01b03908116825260018084015482169583019590955260028301549382019390935260038201546060820152600482015490921660808301529283015460a0820152600683015460c0820152600783015460e0820152600883015490929161010084019160ff16908111156118c257634e487b7160e01b600052602160045260246000fd5b60018111156118e157634e487b7160e01b600052602160045260246000fd5b905250905082158015906118f9575080606001518311155b6119155760405162461bcd60e51b81526004016108df906137e5565b8060e00151421115801561192d57508060c001514210155b6119495760405162461bcd60e51b81526004016108df90613671565b828160600181815161195b919061397d565b905250600084815260056020818152604092839020845181546001600160a01b03199081166001600160a01b03928316178355928601516001808401805486169284169290921790915594860151600283015560608601516003830155608086015160048301805490941691161790915560a08401519181019190915560c0830151600682015560e08301516007820155610100830151600882018054859460ff19909116908381811115611a2057634e487b7160e01b600052602160045260246000fd5b0217905550505060a081015115611a3b57611a3b81846122f9565b611a458184611dda565b8381600001516001600160a01b031682602001516001600160a01b03167fc41d3d11e6486a0b2f2f4ff3f0fc3fd45b75f19768f692259311567db2ff7798611a8b611dac565b8786604051611a9c939291906130a0565b60405180910390a4505060016000555050565b6003546060906000805b82811015611b03576000818152600560205260409020546001600160a01b0386811691161415611af157611aee600183613926565b91505b611afc600182613926565b9050611ab9565b508067ffffffffffffffff811115611b2b57634e487b7160e01b600052604160045260246000fd5b604051908082528060200260200182016040528015611b6457816020015b611b516128e2565b815260200190600190039081611b495790505b5092506000805b83811015610893576000818152600560205260409020546001600160a01b0387811691161415611c985760008181526005602081815260409283902083516101208101855281546001600160a01b03908116825260018084015482169483019490945260028301549582019590955260038201546060820152600482015490941660808501529182015460a0840152600682015460c0840152600782015460e0840152600882015461010084019160ff90911690811115611c3c57634e487b7160e01b600052602160045260246000fd5b6001811115611c5b57634e487b7160e01b600052602160045260246000fd5b81525050858381518110611c7f57634e487b7160e01b600052603260045260246000fd5b6020908102919091010152611c95600183613926565b91505b611ca3600182613926565b9050611b6b565b60056020819052600091825260409091208054600182015460028301546003840154600485015495850154600686015460078701546008909701546001600160a01b0396871698958716979496939590931693919290919060ff1689565b606060048054611d1790613994565b80601f0160208091040260200160405190810160405280929190818152602001828054611d4390613994565b8015611d905780601f10611d6557610100808354040283529160200191611d90565b820191906000526020600020905b815481529060010190602001808311611d7357829003601f168201915b505050505090505b90565b63f23a6e6160e01b95945050505050565b6000611db733610b11565b15611dcb575060131936013560601c611d98565b611dd36128de565b9050611d98565b60008261010001516001811115611e0157634e487b7160e01b600052602160045260246000fd5b1415611e7f5781602001516001600160a01b031663f242432a30611e23611dac565b8560400151856040518563ffffffff1660e01b8152600401611e489493929190613068565b600060405180830381600087803b158015611e6257600080fd5b505af1158015611e76573d6000803e3d6000fd5b50505050611f3e565b60018261010001516001811115611ea657634e487b7160e01b600052602160045260246000fd5b1415611f3e5780600114611ecc5760405162461bcd60e51b81526004016108df9061372b565b81602001516001600160a01b031663b88d4fde30611ee8611dac565b85604001516040518463ffffffff1660e01b8152600401611f0b93929190612fd4565b600060405180830381600087803b158015611f2557600080fd5b505af1158015611f39573d6000803e3d6000fd5b505050505b5050565b6040516301ffc9a760e01b81526000906001600160a01b038716906301ffc9a790611f7890636cdb3d1360e11b9060040161313e565b60206040518083038186803b158015611f9057600080fd5b505afa158015611fa4573d6000803e3d6000fd5b505050506040513d601f19601f82011682018060405250810190611fc89190612db1565b156120d45760405163e985e9c560e01b81526001600160a01b0387169063e985e9c590611ffb9088908890600401612f96565b60206040518083038186803b15801561201357600080fd5b505afa158015612027573d6000803e3d6000fd5b505050506040513d601f19601f8201168201806040525081019061204b9190612db1565b6120675760405162461bcd60e51b81526004016108df90613377565b50604051637921219560e11b81526000906001600160a01b0387169063f242432a9061209d908890889088908890600401613068565b600060405180830381600087803b1580156120b757600080fd5b505af11580156120cb573d6000803e3d6000fd5b50505050610446565b6040516301ffc9a760e01b81526001600160a01b038716906301ffc9a790612107906380ac58cd60e01b9060040161313e565b60206040518083038186803b15801561211f57600080fd5b505afa158015612133573d6000803e3d6000fd5b505050506040513d601f19601f820116820180604052508101906121579190612db1565b156122e1578160011461217c5760405162461bcd60e51b81526004016108df9061331a565b60405163e985e9c560e01b81526001600160a01b0387169063e985e9c5906121aa9088908890600401612f96565b60206040518083038186803b1580156121c257600080fd5b505afa1580156121d6573d6000803e3d6000fd5b505050506040513d601f19601f820116820180604052508101906121fa9190612db1565b806122915750836001600160a01b0316866001600160a01b031663081812fc856040518263ffffffff1660e01b815260040161223691906138e5565b60206040518083038186803b15801561224e57600080fd5b505afa158015612262573d6000803e3d6000fd5b505050506040513d601f19601f820116820180604052508101906122869190612b57565b6001600160a01b0316145b6122ad5760405162461bcd60e51b81526004016108df90613377565b50604051635c46a7ef60e11b81526001906001600160a01b0387169063b88d4fde9061209d90889088908890600401612fd4565b60405162461bcd60e51b81526004016108df906131a6565b6000818360a0015161230b919061395e565b90508083608001516001600160a01b031663dd62ed3e612329611dac565b306040518363ffffffff1660e01b8152600401612347929190612f96565b60206040518083038186803b15801561235f57600080fd5b505afa158015612373573d6000803e3d6000fd5b505050506040513d601f19601f820116820180604052508101906123979190612dd1565b10156123b55760405162461bcd60e51b81526004016108df906133d5565b6002546040805163fd967f4760e01b815290516000926001600160a01b03169163fd967f47916004808301926020929190829003018186803b1580156123fa57600080fd5b505afa15801561240e573d6000803e3d6000fd5b505050506040513d601f19601f820116820180604052508101906124329190612e51565b6fffffffffffffffffffffffffffffffff16600260009054906101000a90046001600160a01b03166001600160a01b0316633f5c3e876040518163ffffffff1660e01b815260040160206040518083038186803b15801561249257600080fd5b505afa1580156124a6573d6000803e3d6000fd5b505050506040513d601f19601f820116820180604052508101906124ca9190612e51565b6124e6906fffffffffffffffffffffffffffffffff168461395e565b6124f0919061393e565b905083608001516001600160a01b03166323b872dd61250d611dac565b600260009054906101000a90046001600160a01b03166001600160a01b0316639494995b6040518163ffffffff1660e01b815260040160206040518083038186803b15801561255b57600080fd5b505afa15801561256f573d6000803e3d6000fd5b505050506040513d601f19601f820116820180604052508101906125939190612b57565b846040518463ffffffff1660e01b81526004016125b293929190612fb0565b602060405180830381600087803b1580156125cc57600080fd5b505af11580156125e0573d6000803e3d6000fd5b505050506040513d601f19601f820116820180604052508101906126049190612db1565b6126205760405162461bcd60e51b81526004016108df90613574565b600061262c828461397d565b60208601516040516301ffc9a760e01b81529192506001600160a01b0316906301ffc9a7906126669063152a902d60e11b9060040161313e565b60206040518083038186803b15801561267e57600080fd5b505afa158015612692573d6000803e3d6000fd5b505050506040513d601f19601f820116820180604052508101906126b69190612db1565b156128285760008086602001516001600160a01b0316632a55205a8860400151876040518363ffffffff1660e01b81526004016126f49291906138ee565b604080518083038186803b15801561270b57600080fd5b505afa15801561271f573d6000803e3d6000fd5b505050506040513d601f19601f820116820180604052508101906127439190612d20565b9092509050846127538583613926565b106127705760405162461bcd60e51b81526004016108df9061348f565b61277a818461397d565b925086608001516001600160a01b03166323b872dd612797611dac565b84846040518463ffffffff1660e01b81526004016127b793929190612fb0565b602060405180830381600087803b1580156127d157600080fd5b505af11580156127e5573d6000803e3d6000fd5b505050506040513d601f19601f820116820180604052508101906128099190612db1565b6128255760405162461bcd60e51b81526004016108df90613788565b50505b84608001516001600160a01b03166323b872dd612843611dac565b87516040516001600160e01b031960e085901b1681526128699291908690600401612fb0565b602060405180830381600087803b15801561288357600080fd5b505af1158015612897573d6000803e3d6000fd5b505050506040513d601f19601f820116820180604052508101906128bb9190612db1565b6128d75760405162461bcd60e51b81526004016108df90613260565b5050505050565b3390565b60405180610120016040528060006001600160a01b0316815260200160006001600160a01b03168152602001600081526020016000815260200160006001600160a01b031681526020016000815260200160008152602001600081526020016000600181111561296257634e487b7160e01b600052602160045260246000fd5b905290565b82805461297390613994565b90600052602060002090601f01602090048101928261299557600085556129db565b82601f106129ae5782800160ff198235161785556129db565b828001600101855582156129db579182015b828111156129db5782358255916020019190600101906129c0565b506129e79291506129eb565b5090565b5b808211156129e757600081556001016129ec565b600082601f830112612a10578081fd5b8135602067ffffffffffffffff821115612a2c57612a2c6139e5565b808202612a3a8282016138fc565b838152828101908684018388018501891015612a54578687fd5b8693505b85841015612a76578035835260019390930192918401918401612a58565b50979650505050505050565b60008083601f840112612a93578182fd5b50813567ffffffffffffffff811115612aaa578182fd5b602083019150836020828501011115612ac257600080fd5b9250929050565b600082601f830112612ad9578081fd5b813567ffffffffffffffff811115612af357612af36139e5565b612b06601f8201601f19166020016138fc565b818152846020838601011115612b1a578283fd5b816020850160208301379081016020019190915292915050565b600060208284031215612b45578081fd5b8135612b50816139fb565b9392505050565b600060208284031215612b68578081fd5b8151612b50816139fb565b600080600080600060a08688031215612b8a578081fd5b8535612b95816139fb565b94506020860135612ba5816139fb565b9350604086013567ffffffffffffffff80821115612bc1578283fd5b612bcd89838a01612a00565b94506060880135915080821115612be2578283fd5b612bee89838a01612a00565b93506080880135915080821115612c03578283fd5b50612c1088828901612ac9565b9150509295509295909350565b600080600080600060808688031215612c34578081fd5b8535612c3f816139fb565b94506020860135612c4f816139fb565b935060408601359250606086013567ffffffffffffffff811115612c71578182fd5b612c7d88828901612a82565b969995985093965092949392505050565b600080600080600060a08688031215612ca5578081fd5b8535612cb0816139fb565b94506020860135612cc0816139fb565b93506040860135925060608601359150608086013567ffffffffffffffff811115612ce9578182fd5b612c1088828901612ac9565b60008060408385031215612d07578182fd5b8235612d12816139fb565b946020939093013593505050565b60008060408385031215612d32578182fd5b8251612d3d816139fb565b6020939093015192949293505050565b600080600080600080600060e0888a031215612d67578182fd5b8735612d72816139fb565b9650602088013595506040880135612d89816139fb565b969995985095966060810135965060808101359560a0820135955060c0909101359350915050565b600060208284031215612dc2578081fd5b81518015158114612b50578182fd5b600060208284031215612de2578081fd5b5051919050565b600060208284031215612dfa578081fd5b81356001600160e01b031981168114612b50578182fd5b60008060208385031215612e23578182fd5b823567ffffffffffffffff811115612e39578283fd5b612e4585828601612a82565b90969095509350505050565b600060208284031215612e62578081fd5b81516fffffffffffffffffffffffffffffffff81168114612b50578182fd5b600060208284031215612e92578081fd5b5035919050565b60008060408385031215612eab578182fd5b50508035926020909101359150565b600080600080600060a08688031215612ed1578283fd5b85359450602086013593506040860135612eea816139fb565b94979396509394606081013594506080013592915050565b60028110612f2057634e487b7160e01b600052602160045260246000fd5b9052565b6001600160a01b0380825116835280602083015116602084015260408201516040840152606082015160608401528060808301511660808401525060a081015160a083015260c081015160c083015260e081015160e083015261010080820151612f9082850182612f02565b50505050565b6001600160a01b0392831681529116602082015260400190565b6001600160a01b039384168152919092166020820152604081019190915260600190565b6001600160a01b039384168152919092166020820152604081019190915260806060820181905260009082015260a00190565b6000610120820190506001600160a01b03808c168352808b1660208401528960408401528860608401528088166080840152508560a08301528460c08301528360e083015261305a610100830184612f02565b9a9950505050505050505050565b6001600160a01b0394851681529290931660208301526040820152606081019190915260a06080820181905260009082015260c00190565b6001600160a01b03841681526020810183905261016081016130c56040830184612f24565b949350505050565b6020808252825182820181905260009190848201906040850190845b81811015613110576130fc838551612f24565b9284019261012092909201916001016130e9565b50909695505050505050565b901515815260200190565b9182526001600160a01b0316602082015260400190565b6001600160e01b031991909116815260200190565b6000602080835283518082850152825b8181101561317f57858101830151858201604001528201613163565b818111156131905783604083870101525b50601f01601f1916929092016040019392505050565b60208082526038908201527f4d61726b65743a20746f6b656e206d75737420696d706c656d656e742065697460408201527f686572204552432031313535206f7220455243203732312e0000000000000000606082015260800190565b60208082526033908201527f5061636b3a206f6e6c7920612070726f746f636f6c2061646d696e2063616e2060408201527f63616c6c20746869732066756e6374696f6e2e00000000000000000000000000606082015260800190565b60208082526026908201527f4d61726b65743a206661696c656420746f207472616e736665722073656c6c6560408201527f72206375742e0000000000000000000000000000000000000000000000000000606082015260800190565b6020808252602f908201527f4d61726b65743a204f6e6c79207468652073656c6c65722063616e2063616c6c60408201527f20746869732066756e6374696f6e2e0000000000000000000000000000000000606082015260800190565b60208082526031908201527f4d61726b65743a2043616e6e6f74206c697374206d6f7265207468616e20312060408201527f6f6620616e20455243373231204e46542e000000000000000000000000000000606082015260800190565b602080825260409082018190527f4d61726b65743a206d75737420617070726f766520746865206d61726b657420908201527f746f207472616e7366657220746f6b656e73206265696e67206c69737465642e606082015260800190565b60208082526035908201527f4d61726b65743a206d75737420617070726f7665204d61726b657420746f207460408201527f72616e7366657220707269636520746f207061792e0000000000000000000000606082015260800190565b6020808252602a908201527f4d61726b65743a2043616e206f6e6c792061646420746f20455243203131353560408201527f206c697374696e67732e00000000000000000000000000000000000000000000606082015260800190565b6020808252602b908201527f4d61726b65743a20546f74616c206d61726b657420666565732065786365656460408201527f207468652070726963652e000000000000000000000000000000000000000000606082015260800190565b60208082526024908201527f4d61726b65743a206d75737420616464206174206c65617374206f6e6520746f60408201526335b2b71760e11b606082015260800190565b60208082526024908201527f4d61726b65743a20546865207061636b2070726f746f636f6c2069732070617560408201526339b2b21760e11b606082015260800190565b60208082526028908201527f4d61726b65743a206661696c656420746f207472616e736665722070726f746f60408201527f636f6c206375742e000000000000000000000000000000000000000000000000606082015260800190565b6020808252603f908201527f4d61726b65743a206d75737420617070726f766520746865206d61726b65742060408201527f746f207472616e7366657220746f6b656e73206265696e672061646465642e00606082015260800190565b60208082526023908201527f4d61726b65743a20546865206c697374696e6720646f6573206e6f742065786960408201526239ba1760e91b606082015260800190565b60208082526032908201527f4d61726b65743a207468652073616c652068617320656974686572206e6f742060408201527f73746172746564206f7220636c6f7365642e0000000000000000000000000000606082015260800190565b60208082526032908201527f4d61726b65743a2063616e6e6f7420756e6c697374206d6f726520746f6b656e60408201527f73207468616e20617265206c69737465642e0000000000000000000000000000606082015260800190565b60208082526036908201527f4d61726b65743a2043616e6e6f7420756e6c697374206d6f7265207468616e2060408201527f6f6e65206f6620616e2045524320373231204e46542e00000000000000000000606082015260800190565b60208082526027908201527f4d61726b65743a206661696c656420746f207472616e7366657220637265617460408201527f6f72206375742e00000000000000000000000000000000000000000000000000606082015260800190565b60208082526031908201527f4d61726b65743a206d7573742062757920616e20617070726f7072696174652060408201527f616d6f756e74206f6620746f6b656e732e000000000000000000000000000000606082015260800190565b60208082526025908201527f4d61726b65743a206d757374206c697374206174206c65617374206f6e65207460408201527f6f6b656e2e000000000000000000000000000000000000000000000000000000606082015260800190565b6020808252601f908201527f5265656e7472616e637947756172643a207265656e7472616e742063616c6c00604082015260600190565b61012081016103608284612f24565b90815260200190565b918252602082015260400190565b60405181810167ffffffffffffffff8111828210171561391e5761391e6139e5565b604052919050565b60008219821115613939576139396139cf565b500190565b60008261395957634e487b7160e01b81526012600452602481fd5b500490565b6000816000190483118215151615613978576139786139cf565b500290565b60008282101561398f5761398f6139cf565b500390565b6002810460018216806139a857607f821691505b602082108114156139c957634e487b7160e01b600052602260045260246000fd5b50919050565b634e487b7160e01b600052601160045260246000fd5b634e487b7160e01b600052604160045260246000fd5b6001600160a01b0381168114613a1057600080fd5b5056fea164736f6c6343000800000a",
  "linkReferences": {},
  "deployedLinkReferences": {}
}