{
  "_format": "hh-sol-artifact-1",
  "contractName": "Market",
  "sourceName": "contracts/Market.sol",
  "abi": [
    {
      "inputs": [
        {
          "internalType": "address",
          "name": "_controlCenter",
          "type": "address"
        },
        {
          "internalType": "address",
          "name": "_trustedForwarder",
          "type": "address"
        },
        {
          "internalType": "string",
          "name": "_uri",
          "type": "string"
        }
      ],
      "stateMutability": "nonpayable",
      "type": "constructor"
    },
    {
      "anonymous": false,
      "inputs": [
        {
          "indexed": true,
          "internalType": "address",
          "name": "seller",
          "type": "address"
        },
        {
          "indexed": true,
          "internalType": "uint256",
          "name": "listingId",
          "type": "uint256"
        },
        {
          "components": [
            {
              "internalType": "uint256",
              "name": "listingId",
              "type": "uint256"
            },
            {
              "internalType": "address",
              "name": "seller",
              "type": "address"
            },
            {
              "internalType": "address",
              "name": "assetContract",
              "type": "address"
            },
            {
              "internalType": "uint256",
              "name": "tokenId",
              "type": "uint256"
            },
            {
              "internalType": "uint256",
              "name": "quantity",
              "type": "uint256"
            },
            {
              "internalType": "address",
              "name": "currency",
              "type": "address"
            },
            {
              "internalType": "uint256",
              "name": "pricePerToken",
              "type": "uint256"
            },
            {
              "internalType": "uint256",
              "name": "saleStart",
              "type": "uint256"
            },
            {
              "internalType": "uint256",
              "name": "saleEnd",
              "type": "uint256"
            },
            {
              "internalType": "uint256",
              "name": "tokensPerBuyer",
              "type": "uint256"
            },
            {
              "internalType": "enum Market.TokenType",
              "name": "tokenType",
              "type": "uint8"
            }
          ],
          "indexed": false,
          "internalType": "struct Market.Listing",
          "name": "listing",
          "type": "tuple"
        }
      ],
      "name": "ListingUpdate",
      "type": "event"
    },
    {
      "anonymous": false,
      "inputs": [
        {
          "indexed": false,
          "internalType": "uint128",
          "name": "newFee",
          "type": "uint128"
        }
      ],
      "name": "MarketFeeUpdate",
      "type": "event"
    },
    {
      "anonymous": false,
      "inputs": [
        {
          "indexed": true,
          "internalType": "address",
          "name": "assetContract",
          "type": "address"
        },
        {
          "indexed": true,
          "internalType": "address",
          "name": "seller",
          "type": "address"
        },
        {
          "indexed": true,
          "internalType": "uint256",
          "name": "listingId",
          "type": "uint256"
        },
        {
          "components": [
            {
              "internalType": "uint256",
              "name": "listingId",
              "type": "uint256"
            },
            {
              "internalType": "address",
              "name": "seller",
              "type": "address"
            },
            {
              "internalType": "address",
              "name": "assetContract",
              "type": "address"
            },
            {
              "internalType": "uint256",
              "name": "tokenId",
              "type": "uint256"
            },
            {
              "internalType": "uint256",
              "name": "quantity",
              "type": "uint256"
            },
            {
              "internalType": "address",
              "name": "currency",
              "type": "address"
            },
            {
              "internalType": "uint256",
              "name": "pricePerToken",
              "type": "uint256"
            },
            {
              "internalType": "uint256",
              "name": "saleStart",
              "type": "uint256"
            },
            {
              "internalType": "uint256",
              "name": "saleEnd",
              "type": "uint256"
            },
            {
              "internalType": "uint256",
              "name": "tokensPerBuyer",
              "type": "uint256"
            },
            {
              "internalType": "enum Market.TokenType",
              "name": "tokenType",
              "type": "uint8"
            }
          ],
          "indexed": false,
          "internalType": "struct Market.Listing",
          "name": "listing",
          "type": "tuple"
        }
      ],
      "name": "NewListing",
      "type": "event"
    },
    {
      "anonymous": false,
      "inputs": [
        {
          "indexed": true,
          "internalType": "address",
          "name": "assetContract",
          "type": "address"
        },
        {
          "indexed": true,
          "internalType": "address",
          "name": "seller",
          "type": "address"
        },
        {
          "indexed": true,
          "internalType": "uint256",
          "name": "listingId",
          "type": "uint256"
        },
        {
          "indexed": false,
          "internalType": "address",
          "name": "buyer",
          "type": "address"
        },
        {
          "indexed": false,
          "internalType": "uint256",
          "name": "quantity",
          "type": "uint256"
        },
        {
          "components": [
            {
              "internalType": "uint256",
              "name": "listingId",
              "type": "uint256"
            },
            {
              "internalType": "address",
              "name": "seller",
              "type": "address"
            },
            {
              "internalType": "address",
              "name": "assetContract",
              "type": "address"
            },
            {
              "internalType": "uint256",
              "name": "tokenId",
              "type": "uint256"
            },
            {
              "internalType": "uint256",
              "name": "quantity",
              "type": "uint256"
            },
            {
              "internalType": "address",
              "name": "currency",
              "type": "address"
            },
            {
              "internalType": "uint256",
              "name": "pricePerToken",
              "type": "uint256"
            },
            {
              "internalType": "uint256",
              "name": "saleStart",
              "type": "uint256"
            },
            {
              "internalType": "uint256",
              "name": "saleEnd",
              "type": "uint256"
            },
            {
              "internalType": "uint256",
              "name": "tokensPerBuyer",
              "type": "uint256"
            },
            {
              "internalType": "enum Market.TokenType",
              "name": "tokenType",
              "type": "uint8"
            }
          ],
          "indexed": false,
          "internalType": "struct Market.Listing",
          "name": "listing",
          "type": "tuple"
        }
      ],
      "name": "NewSale",
      "type": "event"
    },
    {
      "inputs": [],
      "name": "_contractURI",
      "outputs": [
        {
          "internalType": "string",
          "name": "",
          "type": "string"
        }
      ],
      "stateMutability": "view",
      "type": "function"
    },
    {
      "inputs": [
        {
          "internalType": "uint256",
          "name": "_listingId",
          "type": "uint256"
        },
        {
          "internalType": "uint256",
          "name": "_quantity",
          "type": "uint256"
        }
      ],
      "name": "addToListing",
      "outputs": [],
      "stateMutability": "nonpayable",
      "type": "function"
    },
    {
      "inputs": [
        {
          "internalType": "uint256",
          "name": "",
          "type": "uint256"
        },
        {
          "internalType": "address",
          "name": "",
          "type": "address"
        }
      ],
      "name": "boughtFromListing",
      "outputs": [
        {
          "internalType": "uint256",
          "name": "",
          "type": "uint256"
        }
      ],
      "stateMutability": "view",
      "type": "function"
    },
    {
      "inputs": [
        {
          "internalType": "uint256",
          "name": "_listingId",
          "type": "uint256"
        },
        {
          "internalType": "uint256",
          "name": "_quantity",
          "type": "uint256"
        }
      ],
      "name": "buy",
      "outputs": [],
      "stateMutability": "nonpayable",
      "type": "function"
    },
    {
      "inputs": [],
      "name": "contractURI",
      "outputs": [
        {
          "internalType": "string",
          "name": "",
          "type": "string"
        }
      ],
      "stateMutability": "view",
      "type": "function"
    },
    {
      "inputs": [],
      "name": "getAllListings",
      "outputs": [
        {
          "components": [
            {
              "internalType": "uint256",
              "name": "listingId",
              "type": "uint256"
            },
            {
              "internalType": "address",
              "name": "seller",
              "type": "address"
            },
            {
              "internalType": "address",
              "name": "assetContract",
              "type": "address"
            },
            {
              "internalType": "uint256",
              "name": "tokenId",
              "type": "uint256"
            },
            {
              "internalType": "uint256",
              "name": "quantity",
              "type": "uint256"
            },
            {
              "internalType": "address",
              "name": "currency",
              "type": "address"
            },
            {
              "internalType": "uint256",
              "name": "pricePerToken",
              "type": "uint256"
            },
            {
              "internalType": "uint256",
              "name": "saleStart",
              "type": "uint256"
            },
            {
              "internalType": "uint256",
              "name": "saleEnd",
              "type": "uint256"
            },
            {
              "internalType": "uint256",
              "name": "tokensPerBuyer",
              "type": "uint256"
            },
            {
              "internalType": "enum Market.TokenType",
              "name": "tokenType",
              "type": "uint8"
            }
          ],
          "internalType": "struct Market.Listing[]",
          "name": "allListings",
          "type": "tuple[]"
        }
      ],
      "stateMutability": "view",
      "type": "function"
    },
    {
      "inputs": [
        {
          "internalType": "uint256",
          "name": "_listingId",
          "type": "uint256"
        }
      ],
      "name": "getListing",
      "outputs": [
        {
          "components": [
            {
              "internalType": "uint256",
              "name": "listingId",
              "type": "uint256"
            },
            {
              "internalType": "address",
              "name": "seller",
              "type": "address"
            },
            {
              "internalType": "address",
              "name": "assetContract",
              "type": "address"
            },
            {
              "internalType": "uint256",
              "name": "tokenId",
              "type": "uint256"
            },
            {
              "internalType": "uint256",
              "name": "quantity",
              "type": "uint256"
            },
            {
              "internalType": "address",
              "name": "currency",
              "type": "address"
            },
            {
              "internalType": "uint256",
              "name": "pricePerToken",
              "type": "uint256"
            },
            {
              "internalType": "uint256",
              "name": "saleStart",
              "type": "uint256"
            },
            {
              "internalType": "uint256",
              "name": "saleEnd",
              "type": "uint256"
            },
            {
              "internalType": "uint256",
              "name": "tokensPerBuyer",
              "type": "uint256"
            },
            {
              "internalType": "enum Market.TokenType",
              "name": "tokenType",
              "type": "uint8"
            }
          ],
          "internalType": "struct Market.Listing",
          "name": "listing",
          "type": "tuple"
        }
      ],
      "stateMutability": "view",
      "type": "function"
    },
    {
      "inputs": [
        {
          "internalType": "address",
          "name": "_assetContract",
          "type": "address"
        },
        {
          "internalType": "uint256",
          "name": "_tokenId",
          "type": "uint256"
        }
      ],
      "name": "getListingsByAsset",
      "outputs": [
        {
          "components": [
            {
              "internalType": "uint256",
              "name": "listingId",
              "type": "uint256"
            },
            {
              "internalType": "address",
              "name": "seller",
              "type": "address"
            },
            {
              "internalType": "address",
              "name": "assetContract",
              "type": "address"
            },
            {
              "internalType": "uint256",
              "name": "tokenId",
              "type": "uint256"
            },
            {
              "internalType": "uint256",
              "name": "quantity",
              "type": "uint256"
            },
            {
              "internalType": "address",
              "name": "currency",
              "type": "address"
            },
            {
              "internalType": "uint256",
              "name": "pricePerToken",
              "type": "uint256"
            },
            {
              "internalType": "uint256",
              "name": "saleStart",
              "type": "uint256"
            },
            {
              "internalType": "uint256",
              "name": "saleEnd",
              "type": "uint256"
            },
            {
              "internalType": "uint256",
              "name": "tokensPerBuyer",
              "type": "uint256"
            },
            {
              "internalType": "enum Market.TokenType",
              "name": "tokenType",
              "type": "uint8"
            }
          ],
          "internalType": "struct Market.Listing[]",
          "name": "tokenListings",
          "type": "tuple[]"
        }
      ],
      "stateMutability": "view",
      "type": "function"
    },
    {
      "inputs": [
        {
          "internalType": "address",
          "name": "_assetContract",
          "type": "address"
        }
      ],
      "name": "getListingsByAssetContract",
      "outputs": [
        {
          "components": [
            {
              "internalType": "uint256",
              "name": "listingId",
              "type": "uint256"
            },
            {
              "internalType": "address",
              "name": "seller",
              "type": "address"
            },
            {
              "internalType": "address",
              "name": "assetContract",
              "type": "address"
            },
            {
              "internalType": "uint256",
              "name": "tokenId",
              "type": "uint256"
            },
            {
              "internalType": "uint256",
              "name": "quantity",
              "type": "uint256"
            },
            {
              "internalType": "address",
              "name": "currency",
              "type": "address"
            },
            {
              "internalType": "uint256",
              "name": "pricePerToken",
              "type": "uint256"
            },
            {
              "internalType": "uint256",
              "name": "saleStart",
              "type": "uint256"
            },
            {
              "internalType": "uint256",
              "name": "saleEnd",
              "type": "uint256"
            },
            {
              "internalType": "uint256",
              "name": "tokensPerBuyer",
              "type": "uint256"
            },
            {
              "internalType": "enum Market.TokenType",
              "name": "tokenType",
              "type": "uint8"
            }
          ],
          "internalType": "struct Market.Listing[]",
          "name": "tokenListings",
          "type": "tuple[]"
        }
      ],
      "stateMutability": "view",
      "type": "function"
    },
    {
      "inputs": [
        {
          "internalType": "address",
          "name": "_seller",
          "type": "address"
        }
      ],
      "name": "getListingsBySeller",
      "outputs": [
        {
          "components": [
            {
              "internalType": "uint256",
              "name": "listingId",
              "type": "uint256"
            },
            {
              "internalType": "address",
              "name": "seller",
              "type": "address"
            },
            {
              "internalType": "address",
              "name": "assetContract",
              "type": "address"
            },
            {
              "internalType": "uint256",
              "name": "tokenId",
              "type": "uint256"
            },
            {
              "internalType": "uint256",
              "name": "quantity",
              "type": "uint256"
            },
            {
              "internalType": "address",
              "name": "currency",
              "type": "address"
            },
            {
              "internalType": "uint256",
              "name": "pricePerToken",
              "type": "uint256"
            },
            {
              "internalType": "uint256",
              "name": "saleStart",
              "type": "uint256"
            },
            {
              "internalType": "uint256",
              "name": "saleEnd",
              "type": "uint256"
            },
            {
              "internalType": "uint256",
              "name": "tokensPerBuyer",
              "type": "uint256"
            },
            {
              "internalType": "enum Market.TokenType",
              "name": "tokenType",
              "type": "uint8"
            }
          ],
          "internalType": "struct Market.Listing[]",
          "name": "sellerListings",
          "type": "tuple[]"
        }
      ],
      "stateMutability": "view",
      "type": "function"
    },
    {
      "inputs": [
        {
          "internalType": "address",
          "name": "forwarder",
          "type": "address"
        }
      ],
      "name": "isTrustedForwarder",
      "outputs": [
        {
          "internalType": "bool",
          "name": "",
          "type": "bool"
        }
      ],
      "stateMutability": "view",
      "type": "function"
    },
    {
      "inputs": [
        {
          "internalType": "address",
          "name": "_assetContract",
          "type": "address"
        },
        {
          "internalType": "uint256",
          "name": "_tokenId",
          "type": "uint256"
        },
        {
          "internalType": "address",
          "name": "_currency",
          "type": "address"
        },
        {
          "internalType": "uint256",
          "name": "_pricePerToken",
          "type": "uint256"
        },
        {
          "internalType": "uint256",
          "name": "_quantity",
          "type": "uint256"
        },
        {
          "internalType": "uint256",
          "name": "_tokensPerBuyer",
          "type": "uint256"
        },
        {
          "internalType": "uint256",
          "name": "_secondsUntilStart",
          "type": "uint256"
        },
        {
          "internalType": "uint256",
          "name": "_secondsUntilEnd",
          "type": "uint256"
        }
      ],
      "name": "list",
      "outputs": [],
      "stateMutability": "nonpayable",
      "type": "function"
    },
    {
      "inputs": [
        {
          "internalType": "uint256",
          "name": "",
          "type": "uint256"
        }
      ],
      "name": "listings",
      "outputs": [
        {
          "internalType": "uint256",
          "name": "listingId",
          "type": "uint256"
        },
        {
          "internalType": "address",
          "name": "seller",
          "type": "address"
        },
        {
          "internalType": "address",
          "name": "assetContract",
          "type": "address"
        },
        {
          "internalType": "uint256",
          "name": "tokenId",
          "type": "uint256"
        },
        {
          "internalType": "uint256",
          "name": "quantity",
          "type": "uint256"
        },
        {
          "internalType": "address",
          "name": "currency",
          "type": "address"
        },
        {
          "internalType": "uint256",
          "name": "pricePerToken",
          "type": "uint256"
        },
        {
          "internalType": "uint256",
          "name": "saleStart",
          "type": "uint256"
        },
        {
          "internalType": "uint256",
          "name": "saleEnd",
          "type": "uint256"
        },
        {
          "internalType": "uint256",
          "name": "tokensPerBuyer",
          "type": "uint256"
        },
        {
          "internalType": "enum Market.TokenType",
          "name": "tokenType",
          "type": "uint8"
        }
      ],
      "stateMutability": "view",
      "type": "function"
    },
    {
      "inputs": [],
      "name": "marketFeeBps",
      "outputs": [
        {
          "internalType": "uint128",
          "name": "",
          "type": "uint128"
        }
      ],
      "stateMutability": "view",
      "type": "function"
    },
    {
      "inputs": [
        {
          "internalType": "bytes[]",
          "name": "data",
          "type": "bytes[]"
        }
      ],
      "name": "multicall",
      "outputs": [
        {
          "internalType": "bytes[]",
          "name": "results",
          "type": "bytes[]"
        }
      ],
      "stateMutability": "nonpayable",
      "type": "function"
    },
    {
      "inputs": [
        {
          "internalType": "address",
          "name": "",
          "type": "address"
        },
        {
          "internalType": "address",
          "name": "",
          "type": "address"
        },
        {
          "internalType": "uint256[]",
          "name": "",
          "type": "uint256[]"
        },
        {
          "internalType": "uint256[]",
          "name": "",
          "type": "uint256[]"
        },
        {
          "internalType": "bytes",
          "name": "",
          "type": "bytes"
        }
      ],
      "name": "onERC1155BatchReceived",
      "outputs": [
        {
          "internalType": "bytes4",
          "name": "",
          "type": "bytes4"
        }
      ],
      "stateMutability": "nonpayable",
      "type": "function"
    },
    {
      "inputs": [
        {
          "internalType": "address",
          "name": "",
          "type": "address"
        },
        {
          "internalType": "address",
          "name": "",
          "type": "address"
        },
        {
          "internalType": "uint256",
          "name": "",
          "type": "uint256"
        },
        {
          "internalType": "uint256",
          "name": "",
          "type": "uint256"
        },
        {
          "internalType": "bytes",
          "name": "",
          "type": "bytes"
        }
      ],
      "name": "onERC1155Received",
      "outputs": [
        {
          "internalType": "bytes4",
          "name": "",
          "type": "bytes4"
        }
      ],
      "stateMutability": "nonpayable",
      "type": "function"
    },
    {
      "inputs": [
        {
          "internalType": "address",
          "name": "",
          "type": "address"
        },
        {
          "internalType": "address",
          "name": "",
          "type": "address"
        },
        {
          "internalType": "uint256",
          "name": "",
          "type": "uint256"
        },
        {
          "internalType": "bytes",
          "name": "",
          "type": "bytes"
        }
      ],
      "name": "onERC721Received",
      "outputs": [
        {
          "internalType": "bytes4",
          "name": "",
          "type": "bytes4"
        }
      ],
      "stateMutability": "pure",
      "type": "function"
    },
    {
      "inputs": [
        {
          "internalType": "string",
          "name": "_URI",
          "type": "string"
        }
      ],
      "name": "setContractURI",
      "outputs": [],
      "stateMutability": "nonpayable",
      "type": "function"
    },
    {
      "inputs": [
        {
          "internalType": "uint128",
          "name": "feeBps",
          "type": "uint128"
        }
      ],
      "name": "setMarketFeeBps",
      "outputs": [],
      "stateMutability": "nonpayable",
      "type": "function"
    },
    {
      "inputs": [
        {
          "internalType": "bytes4",
          "name": "interfaceId",
          "type": "bytes4"
        }
      ],
      "name": "supportsInterface",
      "outputs": [
        {
          "internalType": "bool",
          "name": "",
          "type": "bool"
        }
      ],
      "stateMutability": "view",
      "type": "function"
    },
    {
      "inputs": [],
      "name": "totalListings",
      "outputs": [
        {
          "internalType": "uint256",
          "name": "",
          "type": "uint256"
        }
      ],
      "stateMutability": "view",
      "type": "function"
    },
    {
      "inputs": [
        {
          "internalType": "uint256",
          "name": "_listingId",
          "type": "uint256"
        },
        {
          "internalType": "uint256",
          "name": "_quantity",
          "type": "uint256"
        }
      ],
      "name": "unlist",
      "outputs": [],
      "stateMutability": "nonpayable",
      "type": "function"
    },
    {
      "inputs": [
        {
          "internalType": "uint256",
          "name": "_listingId",
          "type": "uint256"
        },
        {
          "internalType": "uint256",
          "name": "_pricePerToken",
          "type": "uint256"
        },
        {
          "internalType": "address",
          "name": "_currency",
          "type": "address"
        },
        {
          "internalType": "uint256",
          "name": "_tokensPerBuyer",
          "type": "uint256"
        },
        {
          "internalType": "uint256",
          "name": "_secondsUntilStart",
          "type": "uint256"
        },
        {
          "internalType": "uint256",
          "name": "_secondsUntilEnd",
          "type": "uint256"
        }
      ],
      "name": "updateListingParams",
      "outputs": [],
      "stateMutability": "nonpayable",
      "type": "function"
    }
  ],
  "bytecode": "0x60806040523480156200001157600080fd5b506040516200476538038062004765833981016040819052620000349162000156565b6001600081905580546001600160a01b0319166001600160a01b03841617905580516200006990600490602084019062000093565b5050600280546001600160a01b0319166001600160a01b03939093169290921790915550620002a0565b828054620000a1906200024d565b90600052602060002090601f016020900481019282620000c5576000855562000110565b82601f10620000e057805160ff191683800117855562000110565b8280016001018555821562000110579182015b8281111562000110578251825591602001919060010190620000f3565b506200011e92915062000122565b5090565b5b808211156200011e576000815560010162000123565b80516001600160a01b03811681146200015157600080fd5b919050565b6000806000606084860312156200016b578283fd5b620001768462000139565b925060206200018781860162000139565b60408601519093506001600160401b0380821115620001a4578384fd5b818701915087601f830112620001b8578384fd5b815181811115620001cd57620001cd6200028a565b604051601f8201601f1916810185018381118282101715620001f357620001f36200028a565b60405281815283820185018a10156200020a578586fd5b8592505b818310156200022d57838301850151818401860152918401916200020e565b818311156200023e57858583830101525b80955050505050509250925092565b6002810460018216806200026257607f821691505b602082108114156200028457634e487b7160e01b600052602260045260246000fd5b50919050565b634e487b7160e01b600052604160045260246000fd5b6144b580620002b06000396000f3fe608060405234801561001057600080fd5b50600436106101985760003560e01c8063938e3d7b116100e3578063c78b616c1161008c578063de74e57b11610066578063de74e57b14610373578063e8a3d4851461039d578063f23a6e61146103a557610198565b8063c78b616c14610345578063d6febde81461034d578063d8cba2511461036057610198565b8063ae73ccec116100bd578063ae73ccec14610315578063bc197c811461031d578063c0e727401461033057610198565b8063938e3d7b146102cf5780639b782ff2146102e2578063ac9650d8146102f557610198565b806331851012116101455780634fd69f3c1161011f5780634fd69f3c14610296578063572b6c05146102a9578063583e12b6146102bc57610198565b8063318510121461025b5780633f5c3e871461026e5780634edeaa811461028357610198565b8063150b7a0211610176578063150b7a02146101fb5780631d0cd75e1461021b57806320c7852c1461023b57610198565b806301ffc9a71461019d57806309679b39146101c6578063107a274a146101db575b600080fd5b6101b06101ab3660046135e9565b6103b8565b6040516101bd91906139e9565b60405180910390f35b6101d96101d4366004613651565b6103ef565b005b6101ee6101e9366004613689565b61056d565b6040516101bd919061421e565b61020e6102093660046133a5565b61065a565b6040516101bd9190613a0b565b61022e61022936600461347d565b61066c565b6040516101bd919061399a565b61024e6102493660046136a1565b6108c5565b6040516101bd9190614241565b6101d96102693660046136f1565b6108e2565b610276610c66565b6040516101bd919061422d565b61022e6102913660046132c3565b610c75565b6101d96102a43660046136d0565b610e95565b6101b06102b73660046132c3565b611136565b6101d96102ca3660046136d0565b61114a565b6101d96102dd366004613611565b611591565b6101d96102f03660046134d5565b6116b8565b610308610303366004613542565b6119d8565b6040516101bd919061393a565b61022e611af7565b61020e61032b3660046132fb565b611c8d565b610338611c9e565b6040516101bd9190613a20565b61024e611d2c565b6101d961035b3660046136d0565b611d32565b61022e61036e3660046132c3565b612185565b610386610381366004613689565b61239c565b6040516101bd9b9a9998979695949392919061424a565b610338612407565b61020e6103b3366004613416565b61249a565b60006001600160e01b03198216630271189760e51b14806103e957506001600160e01b03198216630a85bd0160e11b145b92915050565b6002546040805163a217fddf60e01b815290516001600160a01b03909216916391d1485491839163a217fddf91600480820192602092909190829003018186803b15801561043c57600080fd5b505afa158015610450573d6000803e3d6000fd5b505050506040513d601f19601f8201168201806040525081019061047491906135d1565b61047c6124ab565b6040518363ffffffff1660e01b81526004016104999291906139f4565b60206040518083038186803b1580156104b157600080fd5b505afa1580156104c5573d6000803e3d6000fd5b505050506040513d601f19601f820116820180604052508101906104e991906135b1565b61050e5760405162461bcd60e51b815260040161050590613a90565b60405180910390fd5b600580546fffffffffffffffffffffffffffffffff19166001600160801b0383161790556040517fd50e64e6eb05cd7ceafe1a28b1a7ad949edb90451106259c7117252d605178ef9061056290839061422d565b60405180910390a150565b610575613063565b600082815260066020818152604092839020835161016081018552815481526001808301546001600160a01b039081169483019490945260028301548416958201959095526003820154606082015260048201546080820152600582015490921660a08301529182015460c0820152600782015460e082015260088201546101008201526009820154610120820152600a820154909261014084019160ff169081111561063257634e487b7160e01b600052602160045260246000fd5b600181111561065157634e487b7160e01b600052602160045260246000fd5b90525092915050565b630a85bd0160e11b5b95945050505050565b6003546060906000805b828110156106df576000818152600660205260409020600201546001600160a01b0387811691161480156106ba575060008181526006602052604090206003015485145b156106cd576106ca600183614338565b91505b6106d8600182614338565b9050610676565b508067ffffffffffffffff81111561070757634e487b7160e01b600052604160045260246000fd5b60405190808252806020026020018201604052801561074057816020015b61072d613063565b8152602001906001900390816107255790505b5092506000805b838110156108bb576000818152600660205260409020600201546001600160a01b03888116911614801561078b575060008181526006602052604090206003015486145b156108a957600081815260066020818152604092839020835161016081018552815481526001808301546001600160a01b039081169483019490945260028301548416958201959095526003820154606082015260048201546080820152600582015490921660a08301529182015460c0820152600782015460e082015260088201546101008201526009820154610120820152600a820154909261014084019160ff169081111561084d57634e487b7160e01b600052602160045260246000fd5b600181111561086c57634e487b7160e01b600052602160045260246000fd5b8152505085838151811061089057634e487b7160e01b600052603260045260246000fd5b60209081029190910101526108a6600183614338565b91505b6108b4600182614338565b9050610747565b5050505092915050565b600760209081526000928352604080842090915290825290205481565b600260009054906101000a90046001600160a01b03166001600160a01b0316639d2f83f06040518163ffffffff1660e01b815260040160206040518083038186803b15801561093057600080fd5b505afa158015610944573d6000803e3d6000fd5b505050506040513d601f19601f8201168201806040525081019061096891906135b1565b156109855760405162461bcd60e51b815260040161050590613da6565b61098d6124ab565b60008781526006602052604090206001015487906001600160a01b038381169116146109cb5760405162461bcd60e51b815260040161050590613b33565b6000888152600660208181526040808420815161016081018352815481526001808301546001600160a01b039081169583019590955260028301548516938201939093526003820154606082015260048201546080820152600582015490931660a08401529283015460c0830152600783015460e083015260088301546101008301526009830154610120830152600a83015491929161014084019160ff90911690811115610a8a57634e487b7160e01b600052602160045260246000fd5b6001811115610aa957634e487b7160e01b600052602160045260246000fd5b8152505090508060800151861115610ad35760405162461bcd60e51b815260040161050590613ffe565b60c081018890526001600160a01b03871660a08201528515610af55785610afb565b80608001515b610120820152610b0b8542614338565b60e08201528315610b2557610b208442614338565b610b29565b6000195b610100820190815260008a8152600660208181526040928390208551815590850151600180830180546001600160a01b03199081166001600160a01b0394851617909155948701516002840180548716918416919091179055606087015160038401556080870151600484015560a087015160058401805490961692169190911790935560c08501519181019190915560e08401516007820155915160088301556101208301516009830155610140830151600a8301805485949360ff19909116908381811115610c0a57634e487b7160e01b600052602160045260246000fd5b021790555090505088610c1b6124ab565b6001600160a01b03167fb4c8fd604ad229ddf17ffe34f0851a2abf5113b048f8235b12edbabcc6dd919383604051610c53919061421e565b60405180910390a3505050505050505050565b6005546001600160801b031681565b6003546060906000805b82811015610ccc576000818152600660205260409020600201546001600160a01b0386811691161415610cba57610cb7600183614338565b91505b610cc5600182614338565b9050610c7f565b508067ffffffffffffffff811115610cf457634e487b7160e01b600052604160045260246000fd5b604051908082528060200260200182016040528015610d2d57816020015b610d1a613063565b815260200190600190039081610d125790505b5092506000805b83811015610e8c576000818152600660205260409020600201546001600160a01b0387811691161415610e7a57600081815260066020818152604092839020835161016081018552815481526001808301546001600160a01b039081169483019490945260028301548416958201959095526003820154606082015260048201546080820152600582015490921660a08301529182015460c0820152600782015460e082015260088201546101008201526009820154610120820152600a820154909261014084019160ff1690811115610e1e57634e487b7160e01b600052602160045260246000fd5b6001811115610e3d57634e487b7160e01b600052602160045260246000fd5b81525050858381518110610e6157634e487b7160e01b600052603260045260246000fd5b6020908102919091010152610e77600183614338565b91505b610e85600182614338565b9050610d34565b50505050919050565b610e9d6124ab565b60008381526006602052604090206001015483906001600160a01b03838116911614610edb5760405162461bcd60e51b815260040161050590613b33565b6000848152600660208181526040808420815161016081018352815481526001808301546001600160a01b039081169583019590955260028301548516938201939093526003820154606082015260048201546080820152600582015490931660a08401529283015460c0830152600783015460e083015260088301546101008301526009830154610120830152600a83015491929161014084019160ff90911690811115610f9a57634e487b7160e01b600052602160045260246000fd5b6001811115610fb957634e487b7160e01b600052602160045260246000fd5b8152505090508381608001511015610fe35760405162461bcd60e51b815260040161050590613fa1565b8381608001818151610ff5919061438f565b9052506000858152600660208181526040928390208451815590840151600180830180546001600160a01b03199081166001600160a01b0394851617909155948601516002840180548716918416919091179055606086015160038401556080860151600484015560a086015160058401805490961692169190911790935560c08401519181019190915560e0830151600782015561010083015160088201556101208301516009820155610140830151600a82018054859460ff199091169083818111156110d457634e487b7160e01b600052602160045260246000fd5b02179055509050506110e681856124d9565b846110ef6124ab565b6001600160a01b03167fb4c8fd604ad229ddf17ffe34f0851a2abf5113b048f8235b12edbabcc6dd919383604051611127919061421e565b60405180910390a35050505050565b6001546001600160a01b0390811691161490565b600260009054906101000a90046001600160a01b03166001600160a01b0316639d2f83f06040518163ffffffff1660e01b815260040160206040518083038186803b15801561119857600080fd5b505afa1580156111ac573d6000803e3d6000fd5b505050506040513d601f19601f820116820180604052508101906111d091906135b1565b156111ed5760405162461bcd60e51b815260040161050590613da6565b6111f56124ab565b60008381526006602052604090206001015483906001600160a01b038381169116146112335760405162461bcd60e51b815260040161050590613b33565b6000848152600660208181526040808420815161016081018352815481526001808301546001600160a01b039081169583019590955260028301548516938201939093526003820154606082015260048201546080820152600582015490931660a08401529283015460c0830152600783015460e083015260088301546101008301526009830154610120830152600a83015491929161014084019160ff909116908111156112f257634e487b7160e01b600052602160045260246000fd5b600181111561131157634e487b7160e01b600052602160045260246000fd5b81525050905083816080018181516113299190614338565b9052506000858152600660208181526040928390208451815590840151600180830180546001600160a01b03199081166001600160a01b0394851617909155948601516002840180548716918416919091179055606086015160038401556080860151600484015560a086015160058401805490961692169190911790935560c08401519181019190915560e0830151600782015561010083015160088201556101208301516009820155610140830151600a82018054859460ff1990911690838181111561140857634e487b7160e01b600052602160045260246000fd5b021790555050508361142c5760405162461bcd60e51b815260040161050590613d62565b6000816101400151600181111561145357634e487b7160e01b600052602160045260246000fd5b146114705760405162461bcd60e51b815260040161050590613ca8565b80604001516001600160a01b031663e985e9c561148b6124ab565b306040518363ffffffff1660e01b81526004016114a9929190613864565b60206040518083038186803b1580156114c157600080fd5b505afa1580156114d5573d6000803e3d6000fd5b505050506040513d601f19601f820116820180604052508101906114f991906135b1565b6115155760405162461bcd60e51b815260040161050590613e47565b80604001516001600160a01b031663f242432a6115306124ab565b308460600151886040518563ffffffff1660e01b815260040161155694939291906138d5565b600060405180830381600087803b15801561157057600080fd5b505af1158015611584573d6000803e3d6000fd5b50505050846110ef6124ab565b6002546040805163a217fddf60e01b815290516001600160a01b03909216916391d1485491839163a217fddf91600480820192602092909190829003018186803b1580156115de57600080fd5b505afa1580156115f2573d6000803e3d6000fd5b505050506040513d601f19601f8201168201806040525081019061161691906135d1565b61161e6124ab565b6040518363ffffffff1660e01b815260040161163b9291906139f4565b60206040518083038186803b15801561165357600080fd5b505afa158015611667573d6000803e3d6000fd5b505050506040513d601f19601f8201168201806040525081019061168b91906135b1565b6116a75760405162461bcd60e51b815260040161050590613a90565b6116b3600483836130f6565b505050565b600260009054906101000a90046001600160a01b03166001600160a01b0316639d2f83f06040518163ffffffff1660e01b815260040160206040518083038186803b15801561170657600080fd5b505afa15801561171a573d6000803e3d6000fd5b505050506040513d601f19601f8201168201806040525081019061173e91906135b1565b1561175b5760405162461bcd60e51b815260040161050590613da6565b6000841161177b5760405162461bcd60e51b8152600401610505906141a2565b8383111561179b5760405162461bcd60e51b815260040161050590613ffe565b600380549060019060006117af8385614338565b90915550600090506117cb8a6117c36124ab565b308c8a612641565b905060006040518061016001604052808481526020016117e96124ab565b6001600160a01b031681526020018c6001600160a01b031681526020018b81526020018881526020018a6001600160a01b0316815260200189815260200186426118339190614338565b8152602001851561184d576118488642614338565b611851565b6000195b815260200187156118625787611864565b885b815260200183600181111561188957634e487b7160e01b600052602160045260246000fd5b90526000848152600660208181526040928390208451815590840151600180830180546001600160a01b03199081166001600160a01b0394851617909155948601516002840180548716918416919091179055606086015160038401556080860151600484015560a086015160058401805490961692169190911790935560c08401519181019190915560e0830151600782015561010083015160088201556101208301516009820155610140830151600a82018054949550859492939192909160ff1990911690838181111561197057634e487b7160e01b600052602160045260246000fd5b0217905550905050826119816124ab565b6001600160a01b03168c6001600160a01b03167f70c5741a020504dbda58d308c3efe5275326c456d3b00c541925222c40f7c62e846040516119c3919061421e565b60405180910390a45050505050505050505050565b60608167ffffffffffffffff811115611a0157634e487b7160e01b600052604160045260246000fd5b604051908082528060200260200182016040528015611a3457816020015b6060815260200190600190039081611a1f5790505b50905060005b82811015611af057611ab230858584818110611a6657634e487b7160e01b600052603260045260246000fd5b9050602002810190611a7891906142c9565b8080601f0160208091040260200160405190810160405280939291908181526020018383808284376000920191909152506129f892505050565b828281518110611ad257634e487b7160e01b600052603260045260246000fd5b60200260200101819052508080611ae89061440d565b915050611a3a565b5092915050565b6003546060908067ffffffffffffffff811115611b2457634e487b7160e01b600052604160045260246000fd5b604051908082528060200260200182016040528015611b5d57816020015b611b4a613063565b815260200190600190039081611b425790505b50915060005b81811015611c8857600081815260066020818152604092839020835161016081018552815481526001808301546001600160a01b039081169483019490945260028301548416958201959095526003820154606082015260048201546080820152600582015490921660a08301529182015460c0820152600782015460e082015260088201546101008201526009820154610120820152600a820154909261014084019160ff1690811115611c2857634e487b7160e01b600052602160045260246000fd5b6001811115611c4757634e487b7160e01b600052602160045260246000fd5b81525050838281518110611c6b57634e487b7160e01b600052603260045260246000fd5b6020908102919091010152611c81600182614338565b9050611b63565b505090565b63bc197c8160e01b95945050505050565b60048054611cab906143d2565b80601f0160208091040260200160405190810160405280929190818152602001828054611cd7906143d2565b8015611d245780601f10611cf957610100808354040283529160200191611d24565b820191906000526020600020905b815481529060010190602001808311611d0757829003601f168201915b505050505081565b60035481565b60026000541415611d555760405162461bcd60e51b8152600401610505906141e7565b6002600081905554604080516309d2f83f60e41b815290516001600160a01b0390921691639d2f83f091600480820192602092909190829003018186803b158015611d9f57600080fd5b505afa158015611db3573d6000803e3d6000fd5b505050506040513d601f19601f82011682018060405250810190611dd791906135b1565b15611df45760405162461bcd60e51b815260040161050590613da6565b60008281526006602052604090206001015482906001600160a01b0316611e2d5760405162461bcd60e51b815260040161050590613ea4565b6000838152600660208181526040808420815161016081018352815481526001808301546001600160a01b039081169583019590955260028301548516938201939093526003820154606082015260048201546080820152600582015490931660a08401529283015460c0830152600783015460e083015260088301546101008301526009830154610120830152600a83015491929161014084019160ff90911690811115611eec57634e487b7160e01b600052602160045260246000fd5b6001811115611f0b57634e487b7160e01b600052602160045260246000fd5b90525090506000611f1a6124ab565b9050600084118015611f30575081608001518411155b611f4c5760405162461bcd60e51b815260040161050590614145565b8161010001514211158015611f6557508160e001514210155b611f815760405162461bcd60e51b815260040161050590613f44565b61012082015160008681526007602090815260408083206001600160a01b0386168452909152902054611fb49086614338565b1115611fd25760405162461bcd60e51b815260040161050590613ee7565b60008581526007602090815260408083206001600160a01b038516845290915281208054869290612004908490614338565b92505081905550838260800181815161201d919061438f565b9052506000858152600660208181526040928390208551815590850151600180830180546001600160a01b03199081166001600160a01b0394851617909155948701516002840180548716918416919091179055606087015160038401556080870151600484015560a087015160058401805490961692169190911790935560c08501519181019190915560e0840151600782015561010084015160088201556101208401516009820155610140840151600a82018054869460ff199091169083818111156120fc57634e487b7160e01b600052602160045260246000fd5b0217905550505060c082015115612117576121178285612a24565b61212182856124d9565b8482602001516001600160a01b031683604001516001600160a01b03167fc848190182320d1cb2ea6d8a80041c6780e56643bc41fe9060bb1f1349902cba8488876040516121719392919061390d565b60405180910390a450506001600055505050565b6003546060906000805b828110156121dc576000818152600660205260409020600101546001600160a01b03868116911614156121ca576121c7600183614338565b91505b6121d5600182614338565b905061218f565b508067ffffffffffffffff81111561220457634e487b7160e01b600052604160045260246000fd5b60405190808252806020026020018201604052801561223d57816020015b61222a613063565b8152602001906001900390816122225790505b5092506000805b83811015610e8c576000818152600660205260409020600101546001600160a01b038781169116141561238a57600081815260066020818152604092839020835161016081018552815481526001808301546001600160a01b039081169483019490945260028301548416958201959095526003820154606082015260048201546080820152600582015490921660a08301529182015460c0820152600782015460e082015260088201546101008201526009820154610120820152600a820154909261014084019160ff169081111561232e57634e487b7160e01b600052602160045260246000fd5b600181111561234d57634e487b7160e01b600052602160045260246000fd5b8152505085838151811061237157634e487b7160e01b600052603260045260246000fd5b6020908102919091010152612387600183614338565b91505b612395600182614338565b9050612244565b600660208190526000918252604090912080546001820154600283015460038401546004850154600586015496860154600787015460088801546009890154600a9099015497996001600160a01b039788169996881698959794969416949293919290919060ff168b565b606060048054612416906143d2565b80601f0160208091040260200160405190810160405280929190818152602001828054612442906143d2565b801561248f5780601f106124645761010080835404028352916020019161248f565b820191906000526020600020905b81548152906001019060200180831161247257829003601f168201915b505050505090505b90565b63f23a6e6160e01b95945050505050565b60006124b633611136565b156124ca575060131936013560601c612497565b6124d2612f84565b9050612497565b6000826101400151600181111561250057634e487b7160e01b600052602160045260246000fd5b141561257e5781604001516001600160a01b031663f242432a306125226124ab565b8560600151856040518563ffffffff1660e01b815260040161254794939291906138d5565b600060405180830381600087803b15801561256157600080fd5b505af1158015612575573d6000803e3d6000fd5b5050505061263d565b600182610140015160018111156125a557634e487b7160e01b600052602160045260246000fd5b141561263d57806001146125cb5760405162461bcd60e51b8152600401610505906140a1565b81604001516001600160a01b031663b88d4fde306125e76124ab565b85606001516040518463ffffffff1660e01b815260040161260a939291906138a2565b600060405180830381600087803b15801561262457600080fd5b505af1158015612638573d6000803e3d6000fd5b505050505b5050565b6040516301ffc9a760e01b81526000906001600160a01b038716906301ffc9a79061267790636cdb3d1360e11b90600401613a0b565b60206040518083038186803b15801561268f57600080fd5b505afa1580156126a3573d6000803e3d6000fd5b505050506040513d601f19601f820116820180604052508101906126c791906135b1565b156127d35760405163e985e9c560e01b81526001600160a01b0387169063e985e9c5906126fa9088908890600401613864565b60206040518083038186803b15801561271257600080fd5b505afa158015612726573d6000803e3d6000fd5b505050506040513d601f19601f8201168201806040525081019061274a91906135b1565b6127665760405162461bcd60e51b815260040161050590613bed565b50604051637921219560e11b81526000906001600160a01b0387169063f242432a9061279c9088908890889088906004016138d5565b600060405180830381600087803b1580156127b657600080fd5b505af11580156127ca573d6000803e3d6000fd5b50505050610663565b6040516301ffc9a760e01b81526001600160a01b038716906301ffc9a790612806906380ac58cd60e01b90600401613a0b565b60206040518083038186803b15801561281e57600080fd5b505afa158015612832573d6000803e3d6000fd5b505050506040513d601f19601f8201168201806040525081019061285691906135b1565b156129e0578160011461287b5760405162461bcd60e51b815260040161050590613b90565b60405163e985e9c560e01b81526001600160a01b0387169063e985e9c5906128a99088908890600401613864565b60206040518083038186803b1580156128c157600080fd5b505afa1580156128d5573d6000803e3d6000fd5b505050506040513d601f19601f820116820180604052508101906128f991906135b1565b806129905750836001600160a01b0316866001600160a01b031663081812fc856040518263ffffffff1660e01b81526004016129359190614241565b60206040518083038186803b15801561294d57600080fd5b505afa158015612961573d6000803e3d6000fd5b505050506040513d601f19601f8201168201806040525081019061298591906132df565b6001600160a01b0316145b6129ac5760405162461bcd60e51b815260040161050590613bed565b50604051635c46a7ef60e11b81526001906001600160a01b0387169063b88d4fde9061279c908890889088906004016138a2565b60405162461bcd60e51b815260040161050590613a33565b6060612a1d838360405180606001604052806027815260200161448260279139612f88565b9392505050565b6000818360c00151612a369190614370565b9050808360a001516001600160a01b031663dd62ed3e612a546124ab565b306040518363ffffffff1660e01b8152600401612a72929190613864565b60206040518083038186803b158015612a8a57600080fd5b505afa158015612a9e573d6000803e3d6000fd5b505050506040513d601f19601f82011682018060405250810190612ac291906135d1565b1015612ae05760405162461bcd60e51b815260040161050590613c4b565b6002546040805163fd967f4760e01b815290516000926001600160a01b03169163fd967f47916004808301926020929190829003018186803b158015612b2557600080fd5b505afa158015612b39573d6000803e3d6000fd5b505050506040513d601f19601f82011682018060405250810190612b5d919061366d565b6005546001600160801b0391821691612b77911684614370565b612b819190614350565b90508360a001516001600160a01b03166323b872dd612b9e6124ab565b60025460405163f2aab4b360e01b81526001600160a01b039091169063f2aab4b390612bce903090600401613850565b60206040518083038186803b158015612be657600080fd5b505afa158015612bfa573d6000803e3d6000fd5b505050506040513d601f19601f82011682018060405250810190612c1e91906132df565b846040518463ffffffff1660e01b8152600401612c3d9392919061387e565b602060405180830381600087803b158015612c5757600080fd5b505af1158015612c6b573d6000803e3d6000fd5b505050506040513d601f19601f82011682018060405250810190612c8f91906135b1565b612cab5760405162461bcd60e51b815260040161050590613dea565b6000612cb7828461438f565b905084604001516001600160a01b03166301ffc9a763152a902d60e11b6040518263ffffffff1660e01b8152600401612cf09190613a0b565b60206040518083038186803b158015612d0857600080fd5b505afa158015612d1c573d6000803e3d6000fd5b505050506040513d601f19601f82011682018060405250810190612d4091906135b1565b15612ed05760008086604001516001600160a01b0316632a55205a8860600151876040518363ffffffff1660e01b8152600401612d7e9291906142bb565b604080518083038186803b158015612d9557600080fd5b505afa158015612da9573d6000803e3d6000fd5b505050506040513d601f19601f82011682018060405250810190612dcd91906134a8565b90925090506001600160a01b03821615801590612dea5750600081115b15612ecd5784612dfa8583614338565b1115612e185760405162461bcd60e51b815260040161050590613d05565b612e22818461438f565b92508660a001516001600160a01b03166323b872dd612e3f6124ab565b84846040518463ffffffff1660e01b8152600401612e5f9392919061387e565b602060405180830381600087803b158015612e7957600080fd5b505af1158015612e8d573d6000803e3d6000fd5b505050506040513d601f19601f82011682018060405250810190612eb191906135b1565b612ecd5760405162461bcd60e51b8152600401610505906140fe565b50505b8460a001516001600160a01b03166323b872dd612eeb6124ab565b8760200151846040518463ffffffff1660e01b8152600401612f0f9392919061387e565b602060405180830381600087803b158015612f2957600080fd5b505af1158015612f3d573d6000803e3d6000fd5b505050506040513d601f19601f82011682018060405250810190612f6191906135b1565b612f7d5760405162461bcd60e51b815260040161050590613aed565b5050505050565b3390565b6060612f9384613024565b612faf5760405162461bcd60e51b81526004016105059061405b565b600080856001600160a01b031685604051612fca9190613834565b600060405180830381855af49150503d8060008114613005576040519150601f19603f3d011682016040523d82523d6000602084013e61300a565b606091505b509150915061301a82828661302a565b9695505050505050565b3b151590565b60608315613039575081612a1d565b8251156130495782518084602001fd5b8160405162461bcd60e51b81526004016105059190613a20565b6040518061016001604052806000815260200160006001600160a01b0316815260200160006001600160a01b03168152602001600081526020016000815260200160006001600160a01b0316815260200160008152602001600081526020016000815260200160008152602001600060018111156130f157634e487b7160e01b600052602160045260246000fd5b905290565b828054613102906143d2565b90600052602060002090601f016020900481019282613124576000855561316a565b82601f1061313d5782800160ff1982351617855561316a565b8280016001018555821561316a579182015b8281111561316a57823582559160200191906001019061314f565b5061317692915061317a565b5090565b5b80821115613176576000815560010161317b565b600082601f83011261319f578081fd5b8135602067ffffffffffffffff8211156131bb576131bb61443e565b8082026131c982820161430e565b8381528281019086840183880185018910156131e3578687fd5b8693505b858410156132055780358352600193909301929184019184016131e7565b50979650505050505050565b60008083601f840112613222578182fd5b50813567ffffffffffffffff811115613239578182fd5b60208301915083602082850101111561325157600080fd5b9250929050565b600082601f830112613268578081fd5b813567ffffffffffffffff8111156132825761328261443e565b613295601f8201601f191660200161430e565b8181528460208386010111156132a9578283fd5b816020850160208301379081016020019190915292915050565b6000602082840312156132d4578081fd5b8135612a1d81614454565b6000602082840312156132f0578081fd5b8151612a1d81614454565b600080600080600060a08688031215613312578081fd5b853561331d81614454565b9450602086013561332d81614454565b9350604086013567ffffffffffffffff80821115613349578283fd5b61335589838a0161318f565b9450606088013591508082111561336a578283fd5b61337689838a0161318f565b9350608088013591508082111561338b578283fd5b5061339888828901613258565b9150509295509295909350565b6000806000806000608086880312156133bc578081fd5b85356133c781614454565b945060208601356133d781614454565b935060408601359250606086013567ffffffffffffffff8111156133f9578182fd5b61340588828901613211565b969995985093965092949392505050565b600080600080600060a0868803121561342d578081fd5b853561343881614454565b9450602086013561344881614454565b93506040860135925060608601359150608086013567ffffffffffffffff811115613471578182fd5b61339888828901613258565b6000806040838503121561348f578182fd5b823561349a81614454565b946020939093013593505050565b600080604083850312156134ba578182fd5b82516134c581614454565b6020939093015192949293505050565b600080600080600080600080610100898b0312156134f1578586fd5b88356134fc81614454565b975060208901359650604089013561351381614454565b979a96995096976060810135975060808101359660a0820135965060c0820135955060e0909101359350915050565b60008060208385031215613554578182fd5b823567ffffffffffffffff8082111561356b578384fd5b818501915085601f83011261357e578384fd5b81358181111561358c578485fd5b866020808302850101111561359f578485fd5b60209290920196919550909350505050565b6000602082840312156135c2578081fd5b81518015158114612a1d578182fd5b6000602082840312156135e2578081fd5b5051919050565b6000602082840312156135fa578081fd5b81356001600160e01b031981168114612a1d578182fd5b60008060208385031215613623578182fd5b823567ffffffffffffffff811115613639578283fd5b61364585828601613211565b90969095509350505050565b600060208284031215613662578081fd5b8135612a1d8161446c565b60006020828403121561367e578081fd5b8151612a1d8161446c565b60006020828403121561369a578081fd5b5035919050565b600080604083850312156136b3578182fd5b8235915060208301356136c581614454565b809150509250929050565b600080604083850312156136e2578182fd5b50508035926020909101359150565b60008060008060008060c08789031215613709578384fd5b8635955060208701359450604087013561372281614454565b959894975094956060810135955060808101359460a0909101359350915050565b6001600160a01b03169052565b600081518084526137688160208601602086016143a6565b601f01601f19169290920160200192915050565b6002811061379a57634e487b7160e01b600052602160045260246000fd5b9052565b8051825260208101516137b46020840182613743565b5060408101516137c76040840182613743565b50606081015160608301526080810151608083015260a08101516137ee60a0840182613743565b5060c081015160c083015260e081015160e08301526101008082015181840152506101208082015181840152506101408082015161382e8285018261377c565b50505050565b600082516138468184602087016143a6565b9190910192915050565b6001600160a01b0391909116815260200190565b6001600160a01b0392831681529116602082015260400190565b6001600160a01b039384168152919092166020820152604081019190915260600190565b6001600160a01b039384168152919092166020820152604081019190915260806060820181905260009082015260a00190565b6001600160a01b0394851681529290931660208301526040820152606081019190915260a06080820181905260009082015260c00190565b6001600160a01b0384168152602081018390526101a08101613932604083018461379e565b949350505050565b6000602080830181845280855180835260408601915060408482028701019250838701855b8281101561398d57603f1988860301845261397b858351613750565b9450928501929085019060010161395f565b5092979650505050505050565b6020808252825182820181905260009190848201906040850190845b818110156139dd576139c983855161379e565b9284019261016092909201916001016139b6565b50909695505050505050565b901515815260200190565b9182526001600160a01b0316602082015260400190565b6001600160e01b031991909116815260200190565b600060208252612a1d6020830184613750565b60208082526038908201527f4d61726b65743a20746f6b656e206d75737420696d706c656d656e742065697460408201527f686572204552432031313535206f7220455243203732312e0000000000000000606082015260800190565b60208082526033908201527f5061636b3a206f6e6c7920612070726f746f636f6c2061646d696e2063616e2060408201527f63616c6c20746869732066756e6374696f6e2e00000000000000000000000000606082015260800190565b60208082526026908201527f4d61726b65743a206661696c656420746f207472616e736665722073656c6c65604082015265391031baba1760d11b606082015260800190565b6020808252602f908201527f4d61726b65743a204f6e6c79207468652073656c6c65722063616e2063616c6c60408201527f20746869732066756e6374696f6e2e0000000000000000000000000000000000606082015260800190565b60208082526031908201527f4d61726b65743a2043616e6e6f74206c697374206d6f7265207468616e20312060408201527f6f6620616e20455243373231204e46542e000000000000000000000000000000606082015260800190565b602080825260409082018190527f4d61726b65743a206d75737420617070726f766520746865206d61726b657420908201527f746f207472616e7366657220746f6b656e73206265696e67206c69737465642e606082015260800190565b60208082526035908201527f4d61726b65743a206d75737420617070726f7665204d61726b657420746f207460408201527f72616e7366657220707269636520746f207061792e0000000000000000000000606082015260800190565b6020808252602a908201527f4d61726b65743a2043616e206f6e6c792061646420746f20455243203131353560408201527f206c697374696e67732e00000000000000000000000000000000000000000000606082015260800190565b6020808252602b908201527f4d61726b65743a20546f74616c206d61726b657420666565732065786365656460408201527f207468652070726963652e000000000000000000000000000000000000000000606082015260800190565b60208082526024908201527f4d61726b65743a206d75737420616464206174206c65617374206f6e6520746f60408201526335b2b71760e11b606082015260800190565b60208082526024908201527f4d61726b65743a20546865207061636b2070726f746f636f6c2069732070617560408201526339b2b21760e11b606082015260800190565b60208082526028908201527f4d61726b65743a206661696c656420746f207472616e736665722070726f746f60408201527f636f6c206375742e000000000000000000000000000000000000000000000000606082015260800190565b6020808252603f908201527f4d61726b65743a206d75737420617070726f766520746865206d61726b65742060408201527f746f207472616e7366657220746f6b656e73206265696e672061646465642e00606082015260800190565b60208082526023908201527f4d61726b65743a20546865206c697374696e6720646f6573206e6f742065786960408201526239ba1760e91b606082015260800190565b60208082526034908201527f4d61726b65743a2043616e6e6f7420627579206d6f72652066726f6d206c697360408201527f74696e67207468616e207065726d69747465642e000000000000000000000000606082015260800190565b60208082526032908201527f4d61726b65743a207468652073616c652068617320656974686572206e6f742060408201527f73746172746564206f7220636c6f7365642e0000000000000000000000000000606082015260800190565b60208082526032908201527f4d61726b65743a2063616e6e6f7420756e6c697374206d6f726520746f6b656e60408201527f73207468616e20617265206c69737465642e0000000000000000000000000000606082015260800190565b60208082526037908201527f4d61726b65743a2063616e6e6f74206c657420627579657220627579206d6f7260408201527f65207468616e206c6973746564207175616e746974792e000000000000000000606082015260800190565b60208082526026908201527f416464726573733a2064656c65676174652063616c6c20746f206e6f6e2d636f6040820152651b9d1c9858dd60d21b606082015260800190565b60208082526036908201527f4d61726b65743a2043616e6e6f7420756e6c697374206d6f7265207468616e2060408201527f6f6e65206f6620616e2045524320373231204e46542e00000000000000000000606082015260800190565b60208082526027908201527f4d61726b65743a206661696c656420746f207472616e7366657220637265617460408201526637b91031baba1760c91b606082015260800190565b60208082526031908201527f4d61726b65743a206d7573742062757920616e20617070726f7072696174652060408201527f616d6f756e74206f6620746f6b656e732e000000000000000000000000000000606082015260800190565b60208082526025908201527f4d61726b65743a206d757374206c697374206174206c65617374206f6e65207460408201526437b5b2b71760d91b606082015260800190565b6020808252601f908201527f5265656e7472616e637947756172643a207265656e7472616e742063616c6c00604082015260600190565b61016081016103e9828461379e565b6001600160801b0391909116815260200190565b90815260200190565b6000610160820190508c82526001600160a01b03808d166020840152808c1660408401528a606084015289608084015280891660a0840152508660c08301528560e083015284610100830152836101208301526142ab61014083018461377c565b9c9b505050505050505050505050565b918252602082015260400190565b6000808335601e198436030181126142df578283fd5b83018035915067ffffffffffffffff8211156142f9578283fd5b60200191503681900382131561325157600080fd5b60405181810167ffffffffffffffff811182821017156143305761433061443e565b604052919050565b6000821982111561434b5761434b614428565b500190565b60008261436b57634e487b7160e01b81526012600452602481fd5b500490565b600081600019048311821515161561438a5761438a614428565b500290565b6000828210156143a1576143a1614428565b500390565b60005b838110156143c15781810151838201526020016143a9565b8381111561382e5750506000910152565b6002810460018216806143e657607f821691505b6020821081141561440757634e487b7160e01b600052602260045260246000fd5b50919050565b600060001982141561442157614421614428565b5060010190565b634e487b7160e01b600052601160045260246000fd5b634e487b7160e01b600052604160045260246000fd5b6001600160a01b038116811461446957600080fd5b50565b6001600160801b038116811461446957600080fdfe416464726573733a206c6f772d6c6576656c2064656c65676174652063616c6c206661696c6564a164736f6c6343000800000a",
  "linkReferences": {},
  "deployedLinkReferences": {}
}