{
  "_format": "hh-sol-artifact-1",
  "contractName": "PermitCoin",
  "sourceName": "contracts/test-helpers/PermitCoin.sol",
  "abi": [
    {
      "inputs": [],
      "stateMutability": "nonpayable",
      "type": "constructor"
    },
    {
      "anonymous": false,
      "inputs": [
        {
          "indexed": true,
          "internalType": "address",
          "name": "owner",
          "type": "address"
        },
        {
          "indexed": true,
          "internalType": "address",
          "name": "spender",
          "type": "address"
        },
        {
          "indexed": false,
          "internalType": "uint256",
          "name": "value",
          "type": "uint256"
        }
      ],
      "name": "Approval",
      "type": "event"
    },
    {
      "anonymous": false,
      "inputs": [
        {
          "indexed": true,
          "internalType": "address",
          "name": "from",
          "type": "address"
        },
        {
          "indexed": true,
          "internalType": "address",
          "name": "to",
          "type": "address"
        },
        {
          "indexed": false,
          "internalType": "uint256",
          "name": "value",
          "type": "uint256"
        }
      ],
      "name": "Transfer",
      "type": "event"
    },
    {
      "inputs": [],
      "name": "DOMAIN_SEPARATOR",
      "outputs": [
        {
          "internalType": "bytes32",
          "name": "",
          "type": "bytes32"
        }
      ],
      "stateMutability": "view",
      "type": "function"
    },
    {
      "inputs": [
        {
          "internalType": "address",
          "name": "owner",
          "type": "address"
        },
        {
          "internalType": "address",
          "name": "spender",
          "type": "address"
        }
      ],
      "name": "allowance",
      "outputs": [
        {
          "internalType": "uint256",
          "name": "",
          "type": "uint256"
        }
      ],
      "stateMutability": "view",
      "type": "function"
    },
    {
      "inputs": [
        {
          "internalType": "address",
          "name": "spender",
          "type": "address"
        },
        {
          "internalType": "uint256",
          "name": "amount",
          "type": "uint256"
        }
      ],
      "name": "approve",
      "outputs": [
        {
          "internalType": "bool",
          "name": "",
          "type": "bool"
        }
      ],
      "stateMutability": "nonpayable",
      "type": "function"
    },
    {
      "inputs": [
        {
          "internalType": "address",
          "name": "account",
          "type": "address"
        }
      ],
      "name": "balanceOf",
      "outputs": [
        {
          "internalType": "uint256",
          "name": "",
          "type": "uint256"
        }
      ],
      "stateMutability": "view",
      "type": "function"
    },
    {
      "inputs": [],
      "name": "decimals",
      "outputs": [
        {
          "internalType": "uint8",
          "name": "",
          "type": "uint8"
        }
      ],
      "stateMutability": "view",
      "type": "function"
    },
    {
      "inputs": [
        {
          "internalType": "address",
          "name": "spender",
          "type": "address"
        },
        {
          "internalType": "uint256",
          "name": "subtractedValue",
          "type": "uint256"
        }
      ],
      "name": "decreaseAllowance",
      "outputs": [
        {
          "internalType": "bool",
          "name": "",
          "type": "bool"
        }
      ],
      "stateMutability": "nonpayable",
      "type": "function"
    },
    {
      "inputs": [
        {
          "internalType": "uint256",
          "name": "amount",
          "type": "uint256"
        }
      ],
      "name": "freeMint",
      "outputs": [],
      "stateMutability": "nonpayable",
      "type": "function"
    },
    {
      "inputs": [
        {
          "internalType": "address",
          "name": "spender",
          "type": "address"
        },
        {
          "internalType": "uint256",
          "name": "addedValue",
          "type": "uint256"
        }
      ],
      "name": "increaseAllowance",
      "outputs": [
        {
          "internalType": "bool",
          "name": "",
          "type": "bool"
        }
      ],
      "stateMutability": "nonpayable",
      "type": "function"
    },
    {
      "inputs": [],
      "name": "name",
      "outputs": [
        {
          "internalType": "string",
          "name": "",
          "type": "string"
        }
      ],
      "stateMutability": "view",
      "type": "function"
    },
    {
      "inputs": [
        {
          "internalType": "address",
          "name": "owner",
          "type": "address"
        }
      ],
      "name": "nonces",
      "outputs": [
        {
          "internalType": "uint256",
          "name": "",
          "type": "uint256"
        }
      ],
      "stateMutability": "view",
      "type": "function"
    },
    {
      "inputs": [
        {
          "internalType": "address",
          "name": "owner",
          "type": "address"
        },
        {
          "internalType": "address",
          "name": "spender",
          "type": "address"
        },
        {
          "internalType": "uint256",
          "name": "value",
          "type": "uint256"
        },
        {
          "internalType": "uint256",
          "name": "deadline",
          "type": "uint256"
        },
        {
          "internalType": "uint8",
          "name": "v",
          "type": "uint8"
        },
        {
          "internalType": "bytes32",
          "name": "r",
          "type": "bytes32"
        },
        {
          "internalType": "bytes32",
          "name": "s",
          "type": "bytes32"
        }
      ],
      "name": "permit",
      "outputs": [],
      "stateMutability": "nonpayable",
      "type": "function"
    },
    {
      "inputs": [],
      "name": "symbol",
      "outputs": [
        {
          "internalType": "string",
          "name": "",
          "type": "string"
        }
      ],
      "stateMutability": "view",
      "type": "function"
    },
    {
      "inputs": [],
      "name": "totalSupply",
      "outputs": [
        {
          "internalType": "uint256",
          "name": "",
          "type": "uint256"
        }
      ],
      "stateMutability": "view",
      "type": "function"
    },
    {
      "inputs": [
        {
          "internalType": "address",
          "name": "recipient",
          "type": "address"
        },
        {
          "internalType": "uint256",
          "name": "amount",
          "type": "uint256"
        }
      ],
      "name": "transfer",
      "outputs": [
        {
          "internalType": "bool",
          "name": "",
          "type": "bool"
        }
      ],
      "stateMutability": "nonpayable",
      "type": "function"
    },
    {
      "inputs": [
        {
          "internalType": "address",
          "name": "sender",
          "type": "address"
        },
        {
          "internalType": "address",
          "name": "recipient",
          "type": "address"
        },
        {
          "internalType": "uint256",
          "name": "amount",
          "type": "uint256"
        }
      ],
      "name": "transferFrom",
      "outputs": [
        {
          "internalType": "bool",
          "name": "",
          "type": "bool"
        }
      ],
      "stateMutability": "nonpayable",
      "type": "function"
    }
  ],
  "bytecode": "0x6101406040527f6e71edae12b1b97f4d1f60370fef10105fa2faae0126114a169c64845d6126c9610120523480156200003757600080fd5b50604051806040016040528060048152602001636e616d6560e01b81525080604051806040016040528060018152602001603160f81b815250604051806040016040528060048152602001636e616d6560e01b815250604051806040016040528060068152602001651cde5b589bdb60d21b8152508160039080519060200190620000c49291906200017e565b508051620000da9060049060208401906200017e565b5050825160208085019190912083519184019190912060c082905260e08190524660a0529091507f8b73c3c69bb8fe3d512ecc4cf759cc79239f7b179b0ffacaa9a75d522b39400f6200012f81848462000142565b60805261010052506200028d9350505050565b600083838346306040516020016200015f95949392919062000224565b6040516020818303038152906040528051906020012090509392505050565b8280546200018c9062000250565b90600052602060002090601f016020900481019282620001b05760008555620001fb565b82601f10620001cb57805160ff1916838001178555620001fb565b82800160010185558215620001fb579182015b82811115620001fb578251825591602001919060010190620001de565b50620002099291506200020d565b5090565b5b808211156200020957600081556001016200020e565b9485526020850193909352604084019190915260608301526001600160a01b0316608082015260a00190565b6002810460018216806200026557607f821691505b602082108114156200028757634e487b7160e01b600052602260045260246000fd5b50919050565b60805160a05160c05160e05161010051610120516112fa620002dd60003960006108a8015260006107470152600061078901526000610768015260006106f50152600061071e01526112fa6000f3fe608060405234801561001057600080fd5b50600436106100f55760003560e01c806370a0823111610097578063a457c2d711610066578063a457c2d7146101d3578063a9059cbb146101e6578063d505accf146101f9578063dd62ed3e1461020c576100f5565b806370a08231146101905780637c928fe9146101a35780637ecebe00146101b857806395d89b41146101cb576100f5565b806323b872dd116100d357806323b872dd1461014d578063313ce567146101605780633644e51514610175578063395093511461017d576100f5565b806306fdde03146100fa578063095ea7b31461011857806318160ddd14610138575b600080fd5b61010261021f565b60405161010f9190610e5f565b60405180910390f35b61012b610126366004610d71565b6102b2565b60405161010f9190610dcd565b6101406102cf565b60405161010f9190610dd8565b61012b61015b366004610cc5565b6102d5565b61016861036e565b60405161010f9190611286565b610140610373565b61012b61018b366004610d71565b610382565b61014061019e366004610c72565b6103d6565b6101b66101b1366004610d9a565b6103f5565b005b6101406101c6366004610c72565b610409565b610102610430565b61012b6101e1366004610d71565b61043f565b61012b6101f4366004610d71565b6104b8565b6101b6610207366004610d00565b6104cc565b61014061021a366004610c93565b6104e4565b60606003805461022e906112b8565b80601f016020809104026020016040519081016040528092919081815260200182805461025a906112b8565b80156102a75780601f1061027c576101008083540402835291602001916102a7565b820191906000526020600020905b81548152906001019060200180831161028a57829003601f168201915b505050505090505b90565b60006102c66102bf61050f565b8484610513565b50600192915050565b60025490565b60006102e28484846105c7565b6001600160a01b03841660009081526001602052604081208161030361050f565b6001600160a01b03166001600160a01b031681526020019081526020016000205490508281101561034f5760405162461bcd60e51b8152600401610346906110f4565b60405180910390fd5b6103638561035b61050f565b858403610513565b506001949350505050565b601290565b600061037d6106f1565b905090565b60006102c661038f61050f565b84846001600061039d61050f565b6001600160a01b03908116825260208083019390935260409182016000908120918b16815292529020546103d19190611294565b610513565b6001600160a01b0381166000908152602081905260409020545b919050565b61040661040061050f565b826107b4565b50565b6001600160a01b038116600090815260056020526040812061042a90610880565b92915050565b60606004805461022e906112b8565b6000806001600061044e61050f565b6001600160a01b039081168252602080830193909352604091820160009081209188168152925290205490508281101561049a5760405162461bcd60e51b8152600401610346906111f2565b6104ae6104a561050f565b85858403610513565b5060019392505050565b60006102c66104c561050f565b84846105c7565b6104db87878787878787610884565b50505050505050565b6001600160a01b03918216600090815260016020908152604080832093909416825291909152205490565b3390565b6001600160a01b0383166105395760405162461bcd60e51b8152600401610346906111ae565b6001600160a01b03821661055f5760405162461bcd60e51b815260040161034690610f63565b6001600160a01b0380841660008181526001602090815260408083209487168084529490915290819020849055517f8c5be1e5ebec7d5bd14f71427d1e84f3dd0314c0f7b2291e5b200ac8c7c3b925906105ba908590610dd8565b60405180910390a3505050565b6001600160a01b0383166105ed5760405162461bcd60e51b815260040161034690611151565b6001600160a01b0382166106135760405162461bcd60e51b815260040161034690610ee9565b61061e838383610966565b6001600160a01b038316600090815260208190526040902054818110156106575760405162461bcd60e51b815260040161034690610fdc565b6001600160a01b0380851660009081526020819052604080822085850390559185168152908120805484929061068e908490611294565b92505081905550826001600160a01b0316846001600160a01b03167fddf252ad1be2c89b69c2b068fc378daa952ba7f163c4a11628f55a4df523b3ef846040516106d89190610dd8565b60405180910390a36106eb848484610966565b50505050565b60007f000000000000000000000000000000000000000000000000000000000000000046141561074257507f00000000000000000000000000000000000000000000000000000000000000006102af565b6107ad7f00000000000000000000000000000000000000000000000000000000000000007f00000000000000000000000000000000000000000000000000000000000000007f000000000000000000000000000000000000000000000000000000000000000061096b565b90506102af565b6001600160a01b0382166107da5760405162461bcd60e51b81526004016103469061124f565b6107e660008383610966565b80600260008282546107f89190611294565b90915550506001600160a01b03821660009081526020819052604081208054839290610825908490611294565b90915550506040516001600160a01b038316906000907fddf252ad1be2c89b69c2b068fc378daa952ba7f163c4a11628f55a4df523b3ef90610868908590610dd8565b60405180910390a361087c60008383610966565b5050565b5490565b834211156108a45760405162461bcd60e51b815260040161034690610fa5565b60007f00000000000000000000000000000000000000000000000000000000000000008888886108d38c6109a5565b896040516020016108e996959493929190610de1565b604051602081830303815290604052805190602001209050600061090c826109d7565b9050600061091c828787876109ea565b9050896001600160a01b0316816001600160a01b03161461094f5760405162461bcd60e51b8152600401610346906110bd565b61095a8a8a8a610513565b50505050505050505050565b505050565b60008383834630604051602001610986959493929190610e15565b6040516020818303038152906040528051906020012090509392505050565b6001600160a01b03811660009081526005602052604081206109c681610880565b91506109d181610a12565b50919050565b600061042a6109e46106f1565b83610a1b565b60008060006109fb87878787610a4e565b91509150610a0881610b2e565b5095945050505050565b80546001019055565b60008282604051602001610a30929190610db2565b60405160208183030381529060405280519060200120905092915050565b6000807f7fffffffffffffffffffffffffffffff5d576e7357a4501ddfe92f46681b20a0831115610a855750600090506003610b25565b8460ff16601b14158015610a9d57508460ff16601c14155b15610aae5750600090506004610b25565b600060018787878760405160008152602001604052604051610ad39493929190610e41565b6020604051602081039080840390855afa158015610af5573d6000803e3d6000fd5b5050604051601f1901519150506001600160a01b038116610b1e57600060019250925050610b25565b9150600090505b94509492505050565b6000816004811115610b5057634e487b7160e01b600052602160045260246000fd5b1415610b5b57610406565b6001816004811115610b7d57634e487b7160e01b600052602160045260246000fd5b1415610b9b5760405162461bcd60e51b815260040161034690610eb2565b6002816004811115610bbd57634e487b7160e01b600052602160045260246000fd5b1415610bdb5760405162461bcd60e51b815260040161034690610f2c565b6003816004811115610bfd57634e487b7160e01b600052602160045260246000fd5b1415610c1b5760405162461bcd60e51b815260040161034690611039565b6004816004811115610c3d57634e487b7160e01b600052602160045260246000fd5b14156104065760405162461bcd60e51b81526004016103469061107b565b80356001600160a01b03811681146103f057600080fd5b600060208284031215610c83578081fd5b610c8c82610c5b565b9392505050565b60008060408385031215610ca5578081fd5b610cae83610c5b565b9150610cbc60208401610c5b565b90509250929050565b600080600060608486031215610cd9578081fd5b610ce284610c5b565b9250610cf060208501610c5b565b9150604084013590509250925092565b600080600080600080600060e0888a031215610d1a578283fd5b610d2388610c5b565b9650610d3160208901610c5b565b95506040880135945060608801359350608088013560ff81168114610d54578384fd5b9699959850939692959460a0840135945060c09093013592915050565b60008060408385031215610d83578182fd5b610d8c83610c5b565b946020939093013593505050565b600060208284031215610dab578081fd5b5035919050565b61190160f01b81526002810192909252602282015260420190565b901515815260200190565b90815260200190565b9586526001600160a01b0394851660208701529290931660408501526060840152608083019190915260a082015260c00190565b9485526020850193909352604084019190915260608301526001600160a01b0316608082015260a00190565b93845260ff9290921660208401526040830152606082015260800190565b6000602080835283518082850152825b81811015610e8b57858101830151858201604001528201610e6f565b81811115610e9c5783604083870101525b50601f01601f1916929092016040019392505050565b60208082526018908201527f45434453413a20696e76616c6964207369676e61747572650000000000000000604082015260600190565b60208082526023908201527f45524332303a207472616e7366657220746f20746865207a65726f206164647260408201526265737360e81b606082015260800190565b6020808252601f908201527f45434453413a20696e76616c6964207369676e6174757265206c656e67746800604082015260600190565b60208082526022908201527f45524332303a20617070726f766520746f20746865207a65726f206164647265604082015261737360f01b606082015260800190565b6020808252601d908201527f45524332305065726d69743a206578706972656420646561646c696e65000000604082015260600190565b60208082526026908201527f45524332303a207472616e7366657220616d6f756e742065786365656473206260408201527f616c616e63650000000000000000000000000000000000000000000000000000606082015260800190565b60208082526022908201527f45434453413a20696e76616c6964207369676e6174757265202773272076616c604082015261756560f01b606082015260800190565b60208082526022908201527f45434453413a20696e76616c6964207369676e6174757265202776272076616c604082015261756560f01b606082015260800190565b6020808252601e908201527f45524332305065726d69743a20696e76616c6964207369676e61747572650000604082015260600190565b60208082526028908201527f45524332303a207472616e7366657220616d6f756e742065786365656473206160408201527f6c6c6f77616e6365000000000000000000000000000000000000000000000000606082015260800190565b60208082526025908201527f45524332303a207472616e736665722066726f6d20746865207a65726f20616460408201527f6472657373000000000000000000000000000000000000000000000000000000606082015260800190565b60208082526024908201527f45524332303a20617070726f76652066726f6d20746865207a65726f206164646040820152637265737360e01b606082015260800190565b60208082526025908201527f45524332303a2064656372656173656420616c6c6f77616e63652062656c6f7760408201527f207a65726f000000000000000000000000000000000000000000000000000000606082015260800190565b6020808252601f908201527f45524332303a206d696e7420746f20746865207a65726f206164647265737300604082015260600190565b60ff91909116815260200190565b600082198211156112b357634e487b7160e01b81526011600452602481fd5b500190565b6002810460018216806112cc57607f821691505b602082108114156109d157634e487b7160e01b600052602260045260246000fdfea164736f6c6343000800000a",
  "linkReferences": {},
  "deployedLinkReferences": {}
}