{
  "_format": "hh-sol-artifact-1",
  "contractName": "Registry",
  "sourceName": "contracts/Registry.sol",
  "abi": [
    {
      "inputs": [
        {
          "internalType": "address",
          "name": "_treasury",
          "type": "address"
        },
        {
          "internalType": "address",
          "name": "_forwarder",
          "type": "address"
        },
        {
          "internalType": "address",
          "name": "_deployer",
          "type": "address"
        }
      ],
      "stateMutability": "nonpayable",
      "type": "constructor"
    },
    {
      "anonymous": false,
      "inputs": [
        {
          "indexed": false,
          "internalType": "uint256",
          "name": "defaultFeeBps",
          "type": "uint256"
        }
      ],
      "name": "DefaultFeeBpsUpdated",
      "type": "event"
    },
    {
      "anonymous": false,
      "inputs": [
        {
          "indexed": false,
          "internalType": "address",
          "name": "newDeployer",
          "type": "address"
        }
      ],
      "name": "DeployerUpdated",
      "type": "event"
    },
    {
      "anonymous": false,
      "inputs": [
        {
          "indexed": true,
          "internalType": "address",
          "name": "previousOwner",
          "type": "address"
        },
        {
          "indexed": true,
          "internalType": "address",
          "name": "newOwner",
          "type": "address"
        }
      ],
      "name": "OwnershipTransferred",
      "type": "event"
    },
    {
      "anonymous": false,
      "inputs": [
        {
          "indexed": true,
          "internalType": "address",
          "name": "control",
          "type": "address"
        },
        {
          "indexed": false,
          "internalType": "uint256",
          "name": "feeBps",
          "type": "uint256"
        }
      ],
      "name": "ProtocolControlFeeBpsUpdated",
      "type": "event"
    },
    {
      "anonymous": false,
      "inputs": [
        {
          "indexed": false,
          "internalType": "address",
          "name": "newTreasury",
          "type": "address"
        }
      ],
      "name": "TreasuryUpdated",
      "type": "event"
    },
    {
      "inputs": [],
      "name": "MAX_PROVIDER_FEE_BPS",
      "outputs": [
        {
          "internalType": "uint256",
          "name": "",
          "type": "uint256"
        }
      ],
      "stateMutability": "view",
      "type": "function"
    },
    {
      "inputs": [],
      "name": "defaultFeeBps",
      "outputs": [
        {
          "internalType": "uint256",
          "name": "",
          "type": "uint256"
        }
      ],
      "stateMutability": "view",
      "type": "function"
    },
    {
      "inputs": [
        {
          "internalType": "string",
          "name": "uri",
          "type": "string"
        }
      ],
      "name": "deployProtocol",
      "outputs": [],
      "stateMutability": "nonpayable",
      "type": "function"
    },
    {
      "inputs": [],
      "name": "deployer",
      "outputs": [
        {
          "internalType": "contract IControlDeployer",
          "name": "",
          "type": "address"
        }
      ],
      "stateMutability": "view",
      "type": "function"
    },
    {
      "inputs": [],
      "name": "forwarder",
      "outputs": [
        {
          "internalType": "address",
          "name": "",
          "type": "address"
        }
      ],
      "stateMutability": "view",
      "type": "function"
    },
    {
      "inputs": [
        {
          "internalType": "address",
          "name": "protocolControl",
          "type": "address"
        }
      ],
      "name": "getFeeBps",
      "outputs": [
        {
          "internalType": "uint256",
          "name": "",
          "type": "uint256"
        }
      ],
      "stateMutability": "view",
      "type": "function"
    },
    {
      "inputs": [
        {
          "internalType": "address",
          "name": "deployer",
          "type": "address"
        },
        {
          "internalType": "uint256",
          "name": "index",
          "type": "uint256"
        }
      ],
      "name": "getProtocolControl",
      "outputs": [
        {
          "internalType": "address",
          "name": "",
          "type": "address"
        }
      ],
      "stateMutability": "view",
      "type": "function"
    },
    {
      "inputs": [
        {
          "internalType": "address",
          "name": "deployer",
          "type": "address"
        }
      ],
      "name": "getProtocolControlCount",
      "outputs": [
        {
          "internalType": "uint256",
          "name": "",
          "type": "uint256"
        }
      ],
      "stateMutability": "view",
      "type": "function"
    },
    {
      "inputs": [],
      "name": "owner",
      "outputs": [
        {
          "internalType": "address",
          "name": "",
          "type": "address"
        }
      ],
      "stateMutability": "view",
      "type": "function"
    },
    {
      "inputs": [],
      "name": "renounceOwnership",
      "outputs": [],
      "stateMutability": "nonpayable",
      "type": "function"
    },
    {
      "inputs": [
        {
          "internalType": "uint256",
          "name": "_newFeeBps",
          "type": "uint256"
        }
      ],
      "name": "setDefaultFeeBps",
      "outputs": [],
      "stateMutability": "nonpayable",
      "type": "function"
    },
    {
      "inputs": [
        {
          "internalType": "address",
          "name": "_newDeployer",
          "type": "address"
        }
      ],
      "name": "setDeployer",
      "outputs": [],
      "stateMutability": "nonpayable",
      "type": "function"
    },
    {
      "inputs": [
        {
          "internalType": "address",
          "name": "protocolControl",
          "type": "address"
        },
        {
          "internalType": "uint256",
          "name": "_newFeeBps",
          "type": "uint256"
        }
      ],
      "name": "setProtocolControlFeeBps",
      "outputs": [],
      "stateMutability": "nonpayable",
      "type": "function"
    },
    {
      "inputs": [
        {
          "internalType": "address",
          "name": "_newTreasury",
          "type": "address"
        }
      ],
      "name": "setTreasury",
      "outputs": [],
      "stateMutability": "nonpayable",
      "type": "function"
    },
    {
      "inputs": [
        {
          "internalType": "address",
          "name": "newOwner",
          "type": "address"
        }
      ],
      "name": "transferOwnership",
      "outputs": [],
      "stateMutability": "nonpayable",
      "type": "function"
    },
    {
      "inputs": [],
      "name": "treasury",
      "outputs": [
        {
          "internalType": "address",
          "name": "",
          "type": "address"
        }
      ],
      "stateMutability": "view",
      "type": "function"
    }
  ],
  "bytecode": "0x60806040526101f460015534801561001657600080fd5b50604051610c57380380610c57833981016040819052610035916100f7565b610045610040610087565b61008b565b600380546001600160a01b039485166001600160a01b031991821617909155600480549385169382169390931790925560058054919093169116179055610139565b3390565b600080546001600160a01b038381166001600160a01b0319831681178455604051919092169283917f8be0079c531659141344cd1fd0a4f28419497f9722a3daafe3b4186f6b6457e09190a35050565b80516001600160a01b03811681146100f257600080fd5b919050565b60008060006060848603121561010b578283fd5b610114846100db565b9250610122602085016100db565b9150610130604085016100db565b90509250925092565b610b0f806101486000396000f3fe608060405234801561001057600080fd5b50600436106101005760003560e01c8063bcae25a411610097578063dc62163e11610066578063dc62163e146101cc578063f0f44260146101df578063f2fde38b146101f2578063f645d4f91461020557610100565b8063bcae25a414610196578063cd7e89b11461019e578063d566464b146101b1578063d5f39488146101c457610100565b806373c6f378116100d357806373c6f378146101555780637c160011146101685780638da5cb5b1461017b578063962147351461018357610100565b80634373a286146101055780635cd423151461011a57806361d027b314610138578063715018a61461014d575b600080fd5b610118610113366004610953565b61020d565b005b6101226102b7565b60405161012f9190610ace565b60405180910390f35b6101406102bd565b60405161012f919061096b565b6101186102cc565b610122610163366004610848565b610317565b610118610176366004610887565b610347565b6101406103ff565b610118610191366004610848565b61040e565b6101226104a5565b6101226101ac366004610848565b6104ab565b6101186101bf3660046108b2565b6104cc565b6101406105cc565b6101406101da366004610887565b6105db565b6101186101ed366004610848565b610606565b610118610200366004610848565b61069d565b61014061070e565b61021561071d565b6001600160a01b03166102266103ff565b6001600160a01b0316146102555760405162461bcd60e51b815260040161024c90610a3c565b60405180910390fd5b6103e88111156102775760405162461bcd60e51b815260040161024c90610a71565b60018190556040517faf07358220f107097f5c9bc5cacec9de23c6bd67d61633e5abaa3aa698d94fcf906102ac908390610ace565b60405180910390a150565b6103e881565b6003546001600160a01b031681565b6102d461071d565b6001600160a01b03166102e56103ff565b6001600160a01b03161461030b5760405162461bcd60e51b815260040161024c90610a3c565b6103156000610721565b565b6001600160a01b0381166000908152600760205260408120548061033f575050600154610342565b90505b919050565b61034f61071d565b6001600160a01b03166103606103ff565b6001600160a01b0316146103865760405162461bcd60e51b815260040161024c90610a3c565b6103e88111156103a85760405162461bcd60e51b815260040161024c90610a71565b6001600160a01b03821660008181526007602052604090819020839055517f3f3f5381919d082b3f6431a55b5affd99c52c10d6b16a850a6c75377c17285a7906103f3908490610ace565b60405180910390a25050565b6000546001600160a01b031690565b61041661071d565b6001600160a01b03166104276103ff565b6001600160a01b03161461044d5760405162461bcd60e51b815260040161024c90610a3c565b6005805473ffffffffffffffffffffffffffffffffffffffff19166001600160a01b0383161790556040517f6db6dcdd05f1728263d8f644adcb07da9d18505aa9b2e33360b2715a878a711e906102ac90839061096b565b60015481565b6001600160a01b038116600090815260066020526040812061033f9061077e565b6000610502600660006104dd61071d565b6001600160a01b03166001600160a01b0316815260200190815260200160002061077e565b6005549091506000906001600160a01b0316632259f965308461052361071d565b876040518563ffffffff1660e01b8152600401610543949392919061097f565b602060405180830381600087803b15801561055d57600080fd5b505af1158015610571573d6000803e3d6000fd5b505050506040513d601f19601f82011682018060405250810190610595919061086b565b90506105c681600660006105a761071d565b6001600160a01b03168152602081019190915260400160002090610789565b50505050565b6005546001600160a01b031681565b6001600160a01b03821660009081526006602052604081206105fd908361079e565b90505b92915050565b61060e61071d565b6001600160a01b031661061f6103ff565b6001600160a01b0316146106455760405162461bcd60e51b815260040161024c90610a3c565b6003805473ffffffffffffffffffffffffffffffffffffffff19166001600160a01b0383161790556040517f7dae230f18360d76a040c81f050aa14eb9d6dc7901b20fc5d855e2a20fe814d1906102ac90839061096b565b6106a561071d565b6001600160a01b03166106b66103ff565b6001600160a01b0316146106dc5760405162461bcd60e51b815260040161024c90610a3c565b6001600160a01b0381166107025760405162461bcd60e51b815260040161024c906109f6565b61070b81610721565b50565b6004546001600160a01b031681565b3390565b600080546001600160a01b0383811673ffffffffffffffffffffffffffffffffffffffff19831681178455604051919092169283917f8be0079c531659141344cd1fd0a4f28419497f9722a3daafe3b4186f6b6457e09190a35050565b600061033f826107aa565b60006105fd836001600160a01b0384166107ae565b60006105fd83836107f8565b5490565b60006107ba8383610830565b6107f057508154600181810184556000848152602080822090930184905584548482528286019093526040902091909155610600565b506000610600565b600082600001828154811061081d57634e487b7160e01b600052603260045260246000fd5b9060005260206000200154905092915050565b60009081526001919091016020526040902054151590565b600060208284031215610859578081fd5b813561086481610aed565b9392505050565b60006020828403121561087c578081fd5b815161086481610aed565b60008060408385031215610899578081fd5b82356108a481610aed565b946020939093013593505050565b600060208083850312156108c4578182fd5b823567ffffffffffffffff808211156108db578384fd5b818501915085601f8301126108ee578384fd5b81358181111561090057610900610ad7565b604051601f8201601f191681018501838111828210171561092357610923610ad7565b6040528181528382018501881015610939578586fd5b818585018683013790810190930193909352509392505050565b600060208284031215610964578081fd5b5035919050565b6001600160a01b0391909116815260200190565b60006001600160a01b0380871683526020868185015281861660408501526080606085015284519150816080850152825b828110156109cc5785810182015185820160a0015281016109b0565b828111156109dd578360a084870101525b5050601f01601f19169190910160a00195945050505050565b60208082526026908201527f4f776e61626c653a206e6577206f776e657220697320746865207a65726f206160408201526564647265737360d01b606082015260800190565b6020808252818101527f4f776e61626c653a2063616c6c6572206973206e6f7420746865206f776e6572604082015260600190565b60208082526031908201527f52656769737472793a2070726f7669646572206665652063616e6e6f7420626560408201527f2067726561746572207468616e20313025000000000000000000000000000000606082015260800190565b90815260200190565b634e487b7160e01b600052604160045260246000fd5b6001600160a01b038116811461070b57600080fdfea164736f6c6343000800000a",
  "linkReferences": {},
  "deployedLinkReferences": {}
}