{
  "_format": "hh-sol-artifact-1",
  "contractName": "Registry",
  "sourceName": "contracts/Registry.sol",
  "abi": [
    {
      "inputs": [
        {
          "internalType": "address",
          "name": "_treasury",
          "type": "address"
        },
        {
          "internalType": "address",
          "name": "_forwarder",
          "type": "address"
        },
        {
          "internalType": "address",
          "name": "_deployer",
          "type": "address"
        }
      ],
      "stateMutability": "nonpayable",
      "type": "constructor"
    },
    {
      "anonymous": false,
      "inputs": [
        {
          "indexed": false,
          "internalType": "uint256",
          "name": "defaultFeeBps",
          "type": "uint256"
        }
      ],
      "name": "DefaultFeeBpsUpdated",
      "type": "event"
    },
    {
      "anonymous": false,
      "inputs": [
        {
          "indexed": false,
          "internalType": "address",
          "name": "newDeployer",
          "type": "address"
        }
      ],
      "name": "DeployerUpdated",
      "type": "event"
    },
    {
      "anonymous": false,
      "inputs": [
        {
          "indexed": true,
          "internalType": "address",
          "name": "deployer",
          "type": "address"
        },
        {
          "indexed": true,
          "internalType": "uint256",
          "name": "version",
          "type": "uint256"
        },
        {
          "indexed": true,
          "internalType": "address",
          "name": "controlAddress",
          "type": "address"
        }
      ],
      "name": "MigratedProtocolControl",
      "type": "event"
    },
    {
      "anonymous": false,
      "inputs": [
        {
          "indexed": true,
          "internalType": "address",
          "name": "deployer",
          "type": "address"
        },
        {
          "indexed": true,
          "internalType": "uint256",
          "name": "version",
          "type": "uint256"
        },
        {
          "indexed": true,
          "internalType": "address",
          "name": "controlAddress",
          "type": "address"
        },
        {
          "indexed": false,
          "internalType": "address",
          "name": "controlDeployer",
          "type": "address"
        }
      ],
      "name": "NewProtocolControl",
      "type": "event"
    },
    {
      "anonymous": false,
      "inputs": [
        {
          "indexed": true,
          "internalType": "address",
          "name": "previousOwner",
          "type": "address"
        },
        {
          "indexed": true,
          "internalType": "address",
          "name": "newOwner",
          "type": "address"
        }
      ],
      "name": "OwnershipTransferred",
      "type": "event"
    },
    {
      "anonymous": false,
      "inputs": [
        {
          "indexed": true,
          "internalType": "address",
          "name": "control",
          "type": "address"
        },
        {
          "indexed": false,
          "internalType": "uint256",
          "name": "feeBps",
          "type": "uint256"
        }
      ],
      "name": "ProtocolControlFeeBpsUpdated",
      "type": "event"
    },
    {
      "anonymous": false,
      "inputs": [
        {
          "indexed": false,
          "internalType": "address",
          "name": "newTreasury",
          "type": "address"
        }
      ],
      "name": "TreasuryUpdated",
      "type": "event"
    },
    {
      "inputs": [],
      "name": "MAX_PROVIDER_FEE_BPS",
      "outputs": [
        {
          "internalType": "uint256",
          "name": "",
          "type": "uint256"
        }
      ],
      "stateMutability": "view",
      "type": "function"
    },
    {
      "inputs": [
        {
          "internalType": "address",
          "name": "_deployer",
          "type": "address"
        },
        {
          "internalType": "address",
          "name": "_protocolControl",
          "type": "address"
        }
      ],
      "name": "addProtocolControl",
      "outputs": [],
      "stateMutability": "nonpayable",
      "type": "function"
    },
    {
      "inputs": [],
      "name": "defaultFeeBps",
      "outputs": [
        {
          "internalType": "uint256",
          "name": "",
          "type": "uint256"
        }
      ],
      "stateMutability": "view",
      "type": "function"
    },
    {
      "inputs": [
        {
          "internalType": "string",
          "name": "uri",
          "type": "string"
        }
      ],
      "name": "deployProtocol",
      "outputs": [],
      "stateMutability": "nonpayable",
      "type": "function"
    },
    {
      "inputs": [],
      "name": "deployer",
      "outputs": [
        {
          "internalType": "contract IControlDeployer",
          "name": "",
          "type": "address"
        }
      ],
      "stateMutability": "view",
      "type": "function"
    },
    {
      "inputs": [],
      "name": "forwarder",
      "outputs": [
        {
          "internalType": "address",
          "name": "",
          "type": "address"
        }
      ],
      "stateMutability": "view",
      "type": "function"
    },
    {
      "inputs": [
        {
          "internalType": "address",
          "name": "protocolControl",
          "type": "address"
        }
      ],
      "name": "getFeeBps",
      "outputs": [
        {
          "internalType": "uint256",
          "name": "",
          "type": "uint256"
        }
      ],
      "stateMutability": "view",
      "type": "function"
    },
    {
      "inputs": [
        {
          "internalType": "address",
          "name": "_deployer",
          "type": "address"
        },
        {
          "internalType": "uint256",
          "name": "index",
          "type": "uint256"
        }
      ],
      "name": "getProtocolControl",
      "outputs": [
        {
          "internalType": "address",
          "name": "",
          "type": "address"
        }
      ],
      "stateMutability": "view",
      "type": "function"
    },
    {
      "inputs": [
        {
          "internalType": "address",
          "name": "_deployer",
          "type": "address"
        }
      ],
      "name": "getProtocolControlCount",
      "outputs": [
        {
          "internalType": "uint256",
          "name": "",
          "type": "uint256"
        }
      ],
      "stateMutability": "view",
      "type": "function"
    },
    {
      "inputs": [],
      "name": "owner",
      "outputs": [
        {
          "internalType": "address",
          "name": "",
          "type": "address"
        }
      ],
      "stateMutability": "view",
      "type": "function"
    },
    {
      "inputs": [],
      "name": "renounceOwnership",
      "outputs": [],
      "stateMutability": "nonpayable",
      "type": "function"
    },
    {
      "inputs": [
        {
          "internalType": "uint256",
          "name": "_newFeeBps",
          "type": "uint256"
        }
      ],
      "name": "setDefaultFeeBps",
      "outputs": [],
      "stateMutability": "nonpayable",
      "type": "function"
    },
    {
      "inputs": [
        {
          "internalType": "address",
          "name": "_newDeployer",
          "type": "address"
        }
      ],
      "name": "setDeployer",
      "outputs": [],
      "stateMutability": "nonpayable",
      "type": "function"
    },
    {
      "inputs": [
        {
          "internalType": "address",
          "name": "protocolControl",
          "type": "address"
        },
        {
          "internalType": "uint256",
          "name": "_newFeeBps",
          "type": "uint256"
        }
      ],
      "name": "setProtocolControlFeeBps",
      "outputs": [],
      "stateMutability": "nonpayable",
      "type": "function"
    },
    {
      "inputs": [
        {
          "internalType": "address",
          "name": "_newTreasury",
          "type": "address"
        }
      ],
      "name": "setTreasury",
      "outputs": [],
      "stateMutability": "nonpayable",
      "type": "function"
    },
    {
      "inputs": [
        {
          "internalType": "address",
          "name": "newOwner",
          "type": "address"
        }
      ],
      "name": "transferOwnership",
      "outputs": [],
      "stateMutability": "nonpayable",
      "type": "function"
    },
    {
      "inputs": [],
      "name": "treasury",
      "outputs": [
        {
          "internalType": "address",
          "name": "",
          "type": "address"
        }
      ],
      "stateMutability": "view",
      "type": "function"
    }
  ],
  "bytecode": "0x60806040526101f460015534801561001657600080fd5b50604051610cff380380610cff833981016040819052610035916100ec565b61003e33610080565b600280546001600160a01b039485166001600160a01b03199182161790915560038054938516938216939093179092556004805491909316911617905561012e565b600080546001600160a01b038381166001600160a01b0319831681178455604051919092169283917f8be0079c531659141344cd1fd0a4f28419497f9722a3daafe3b4186f6b6457e09190a35050565b80516001600160a01b03811681146100e757600080fd5b919050565b600080600060608486031215610100578283fd5b610109846100d0565b9250610117602085016100d0565b9150610125604085016100d0565b90509250925092565b610bc28061013d6000396000f3fe608060405234801561001057600080fd5b506004361061010b5760003560e01c806396214735116100a2578063d5f3948811610071578063d5f3948814610216578063dc62163e14610229578063f0f4426014610263578063f2fde38b14610276578063f645d4f91461028957600080fd5b806396214735146101be578063bcae25a4146101d1578063cd7e89b1146101da578063d566464b1461020357600080fd5b806373c6f378116100de57806373c6f378146101745780637c160011146101875780638da5cb5b1461019a5780638e75aea9146101ab57600080fd5b80634373a286146101105780635cd423151461012557806361d027b314610141578063715018a61461016c575b600080fd5b61012361011e366004610ac3565b61029c565b005b61012e6103e881565b6040519081526020015b60405180910390f35b600254610154906001600160a01b031681565b6040516001600160a01b039091168152602001610138565b610123610391565b61012e610182366004610977565b6103e5565b6101236101953660046109ee565b610413565b6000546001600160a01b0316610154565b6101236101b93660046109b6565b610520565b6101236101cc366004610977565b6105df565b61012e60015481565b61012e6101e8366004610977565b6001600160a01b031660009081526005602052604090205490565b610123610211366004610a19565b610675565b600454610154906001600160a01b031681565b6101546102373660046109ee565b6001600160a01b0391821660009081526005602090815260408083209383526001909301905220541690565b610123610271366004610977565b61078c565b610123610284366004610977565b610822565b600354610154906001600160a01b031681565b6000546001600160a01b031633146102e95760405162461bcd60e51b81526020600482018190526024820152600080516020610b9683398151915260448201526064015b60405180910390fd5b6103e88111156103555760405162461bcd60e51b815260206004820152603160248201527f52656769737472793a2070726f7669646572206665652063616e6e6f742062656044820152702067726561746572207468616e2031302560781b60648201526084016102e0565b60018190556040518181527faf07358220f107097f5c9bc5cacec9de23c6bd67d61633e5abaa3aa698d94fcf906020015b60405180910390a150565b6000546001600160a01b031633146103d95760405162461bcd60e51b81526020600482018190526024820152600080516020610b9683398151915260448201526064016102e0565b6103e360006108db565b565b6001600160a01b0381166000908152600660205260408120548061040d575050600154919050565b92915050565b6000546001600160a01b0316331461045b5760405162461bcd60e51b81526020600482018190526024820152600080516020610b9683398151915260448201526064016102e0565b6103e88111156104c75760405162461bcd60e51b815260206004820152603160248201527f52656769737472793a2070726f7669646572206665652063616e6e6f742062656044820152702067726561746572207468616e2031302560781b60648201526084016102e0565b6001600160a01b03821660008181526006602052604090819020839055517f3f3f5381919d082b3f6431a55b5affd99c52c10d6b16a850a6c75377c17285a7906105149084815260200190565b60405180910390a25050565b6000546001600160a01b031633146105685760405162461bcd60e51b81526020600482018190526024820152600080516020610b9683398151915260448201526064016102e0565b60006105738361092b565b6001600160a01b03848116600081815260056020908152604080832086845260010190915280822080546001600160a01b031916948816948517905551939450919284927fdba9aa581603bcdba2c5e0931430e0e092dc61b76318944adef4cc5dc0cf8d9991a4505050565b6000546001600160a01b031633146106275760405162461bcd60e51b81526020600482018190526024820152600080516020610b9683398151915260448201526064016102e0565b600480546001600160a01b0319166001600160a01b0383169081179091556040519081527f6db6dcdd05f1728263d8f644adcb07da9d18505aa9b2e33360b2715a878a711e90602001610386565b3360006106818261092b565b6004805460405163ca282cb360e01b81529293506000926001600160a01b039091169163ca282cb3916106ba91869188918a9101610adb565b602060405180830381600087803b1580156106d457600080fd5b505af11580156106e8573d6000803e3d6000fd5b505050506040513d601f19601f8201168201806040525081019061070c919061099a565b6001600160a01b03848116600081815260056020908152604080832088845260010182529182902080546001600160a01b0319168686169081179091556004549251929094168252939450919285927f87f4df5222ed82bbc7706c066c5d45f3f5682016cb20d642c5491b7b411340b4910160405180910390a450505050565b6000546001600160a01b031633146107d45760405162461bcd60e51b81526020600482018190526024820152600080516020610b9683398151915260448201526064016102e0565b600280546001600160a01b0319166001600160a01b0383169081179091556040519081527f7dae230f18360d76a040c81f050aa14eb9d6dc7901b20fc5d855e2a20fe814d190602001610386565b6000546001600160a01b0316331461086a5760405162461bcd60e51b81526020600482018190526024820152600080516020610b9683398151915260448201526064016102e0565b6001600160a01b0381166108cf5760405162461bcd60e51b815260206004820152602660248201527f4f776e61626c653a206e6577206f776e657220697320746865207a65726f206160448201526564647265737360d01b60648201526084016102e0565b6108d8816108db565b50565b600080546001600160a01b038381166001600160a01b0319831681178455604051919092169283917f8be0079c531659141344cd1fd0a4f28419497f9722a3daafe3b4186f6b6457e09190a35050565b6001600160a01b03811660009081526005602052604081208054600191908390610956908490610b46565b9091555050506001600160a01b031660009081526005602052604090205490565b600060208284031215610988578081fd5b813561099381610b80565b9392505050565b6000602082840312156109ab578081fd5b815161099381610b80565b600080604083850312156109c8578081fd5b82356109d381610b80565b915060208301356109e381610b80565b809150509250929050565b60008060408385031215610a00578182fd5b8235610a0b81610b80565b946020939093013593505050565b600060208284031215610a2a578081fd5b813567ffffffffffffffff80821115610a41578283fd5b818401915084601f830112610a54578283fd5b813581811115610a6657610a66610b6a565b604051601f8201601f19908116603f01168101908382118183101715610a8e57610a8e610b6a565b81604052828152876020848701011115610aa6578586fd5b826020860160208301379182016020019490945295945050505050565b600060208284031215610ad4578081fd5b5035919050565b838152600060206001600160a01b03851681840152606060408401528351806060850152825b81811015610b1d57858101830151858201608001528201610b01565b81811115610b2e5783608083870101525b50601f01601f19169290920160800195945050505050565b60008219821115610b6557634e487b7160e01b81526011600452602481fd5b500190565b634e487b7160e01b600052604160045260246000fd5b6001600160a01b03811681146108d857600080fdfe4f776e61626c653a2063616c6c6572206973206e6f7420746865206f776e6572a164736f6c6343000804000a",
  "linkReferences": {},
  "deployedLinkReferences": {}
}