{
  "_format": "hh-sol-artifact-1",
  "contractName": "Registry",
  "sourceName": "contracts/Registry.sol",
  "abi": [
    {
      "inputs": [
        {
          "internalType": "address",
          "name": "_nftlabs",
          "type": "address"
        }
      ],
      "stateMutability": "nonpayable",
      "type": "constructor"
    },
    {
      "anonymous": false,
      "inputs": [
        {
          "indexed": false,
          "internalType": "address",
          "name": "forwarder",
          "type": "address"
        }
      ],
      "name": "DeployedForwarder",
      "type": "event"
    },
    {
      "anonymous": false,
      "inputs": [
        {
          "indexed": true,
          "internalType": "address",
          "name": "deployer",
          "type": "address"
        },
        {
          "indexed": true,
          "internalType": "address",
          "name": "protocolControl",
          "type": "address"
        },
        {
          "indexed": false,
          "internalType": "uint256",
          "name": "version",
          "type": "uint256"
        }
      ],
      "name": "DeployedProtocol",
      "type": "event"
    },
    {
      "anonymous": false,
      "inputs": [
        {
          "indexed": true,
          "internalType": "address",
          "name": "previousOwner",
          "type": "address"
        },
        {
          "indexed": true,
          "internalType": "address",
          "name": "newOwner",
          "type": "address"
        }
      ],
      "name": "OwnershipTransferred",
      "type": "event"
    },
    {
      "inputs": [
        {
          "internalType": "address",
          "name": "",
          "type": "address"
        }
      ],
      "name": "controlCenters",
      "outputs": [
        {
          "internalType": "uint256",
          "name": "latestVersion",
          "type": "uint256"
        }
      ],
      "stateMutability": "view",
      "type": "function"
    },
    {
      "inputs": [],
      "name": "deployProtocol",
      "outputs": [],
      "stateMutability": "nonpayable",
      "type": "function"
    },
    {
      "inputs": [],
      "name": "forwarder",
      "outputs": [
        {
          "internalType": "address",
          "name": "",
          "type": "address"
        }
      ],
      "stateMutability": "view",
      "type": "function"
    },
    {
      "inputs": [
        {
          "internalType": "address",
          "name": "_protocolDeployer",
          "type": "address"
        }
      ],
      "name": "getLatestVersion",
      "outputs": [
        {
          "internalType": "uint256",
          "name": "",
          "type": "uint256"
        }
      ],
      "stateMutability": "view",
      "type": "function"
    },
    {
      "inputs": [
        {
          "internalType": "address",
          "name": "_protocolDeployer",
          "type": "address"
        },
        {
          "internalType": "uint256",
          "name": "_version",
          "type": "uint256"
        }
      ],
      "name": "getProtocolControl",
      "outputs": [
        {
          "internalType": "address",
          "name": "",
          "type": "address"
        }
      ],
      "stateMutability": "view",
      "type": "function"
    },
    {
      "inputs": [],
      "name": "nftlabsTreasury",
      "outputs": [
        {
          "internalType": "address",
          "name": "",
          "type": "address"
        }
      ],
      "stateMutability": "view",
      "type": "function"
    },
    {
      "inputs": [],
      "name": "owner",
      "outputs": [
        {
          "internalType": "address",
          "name": "",
          "type": "address"
        }
      ],
      "stateMutability": "view",
      "type": "function"
    },
    {
      "inputs": [],
      "name": "renounceOwnership",
      "outputs": [],
      "stateMutability": "nonpayable",
      "type": "function"
    },
    {
      "inputs": [
        {
          "internalType": "address",
          "name": "newOwner",
          "type": "address"
        }
      ],
      "name": "transferOwnership",
      "outputs": [],
      "stateMutability": "nonpayable",
      "type": "function"
    }
  ],
  "bytecode": "0x608060405234801561001057600080fd5b50604051620032ce380380620032ce83398101604081905261003191610228565b61004161003c610143565b610147565b600180546001600160a01b0319166001600160a01b038316179055604051600090610072904390339060200161028f565b60405160208183030381529060405280519060200120905060006040518060200161009c9061021a565b601f1982820381018352601f9091011660408190526100be9190602001610256565b60405160208183030381529060405290506100e56000838361019760201b6103ef1760201c565b600280546001600160a01b0319166001600160a01b0392831617908190556040517f6705282807944f0ea6c8bc20b92a800fd22830ed53fe002daec72ca0b4086592926101339216906102aa565b60405180910390a1505050610361565b3390565b600080546001600160a01b038381166001600160a01b0319831681178455604051919092169283917f8be0079c531659141344cd1fd0a4f28419497f9722a3daafe3b4186f6b6457e09190a35050565b600080844710156101c35760405162461bcd60e51b81526004016101ba9061032a565b60405180910390fd5b82516101e15760405162461bcd60e51b81526004016101ba906102be565b8383516020850187f590506001600160a01b0381166102125760405162461bcd60e51b81526004016101ba906102f3565b949350505050565b610d54806200257a83390190565b600060208284031215610239578081fd5b81516001600160a01b038116811461024f578182fd5b9392505050565b60008251815b81811015610276576020818601810151858301520161025c565b818111156102845782828501525b509190910192915050565b91825260601b6001600160601b031916602082015260340190565b6001600160a01b0391909116815260200190565b6020808252818101527f437265617465323a2062797465636f6465206c656e677468206973207a65726f604082015260600190565b60208082526019908201527f437265617465323a204661696c6564206f6e206465706c6f7900000000000000604082015260600190565b6020808252601d908201527f437265617465323a20696e73756666696369656e742062616c616e6365000000604082015260600190565b61220980620003716000396000f3fe608060405234801561001057600080fd5b50600436106100a35760003560e01c80638da5cb5b11610076578063dc62163e1161005b578063dc62163e14610113578063f2fde38b14610126578063f645d4f914610139576100a3565b80638da5cb5b146100f65780639494995b1461010b576100a3565b806350abe910146100a85780636872e478146100d1578063715018a6146100db5780638606096d146100e3575b600080fd5b6100bb6100b63660046104ef565b610141565b6040516100c8919061070a565b60405180910390f35b6100d9610160565b005b6100d96102bf565b6100bb6100f13660046104ef565b610313565b6100fe610325565b6040516100c891906105a7565b6100fe610334565b6100fe610121366004610510565b610343565b6100d96101343660046104ef565b61036f565b6100fe6103e0565b6001600160a01b0381166000908152600360205260409020545b919050565b60004333604051602001610175929190610587565b60405160208183030381529060405280519060200120905060006040518060200161019f906104ca565b601f1982820381018352601f9091011660408190526001546101cf9133916001600160a01b0316906020016105bb565b60408051601f19818403018152908290526101ed9291602001610572565b6040516020818303038152906040529050600061020c600084846103ef565b336000818152600360208181526040808420805480865260018083018552928620805473ffffffffffffffffffffffffffffffffffffffff19166001600160a01b038a16179055958552929091528154949550929390919061026f908490610713565b90915550506040516001600160a01b0383169033907fa948d53914cb489499e37cdcaa174b5b664bbfa251aaacbb7282a76ae1be49be906102b190859061070a565b60405180910390a350505050565b6102c7610469565b6001600160a01b03166102d8610325565b6001600160a01b0316146103075760405162461bcd60e51b81526004016102fe9061069e565b60405180910390fd5b610311600061046d565b565b60036020526000908152604090205481565b6000546001600160a01b031690565b6001546001600160a01b031681565b6001600160a01b0391821660009081526003602090815260408083209383526001909301905220541690565b610377610469565b6001600160a01b0316610388610325565b6001600160a01b0316146103ae5760405162461bcd60e51b81526004016102fe9061069e565b6001600160a01b0381166103d45760405162461bcd60e51b81526004016102fe9061060a565b6103dd8161046d565b50565b6002546001600160a01b031681565b600080844710156104125760405162461bcd60e51b81526004016102fe906106d3565b82516104305760405162461bcd60e51b81526004016102fe906105d5565b8383516020850187f590506001600160a01b0381166104615760405162461bcd60e51b81526004016102fe90610667565b949350505050565b3390565b600080546001600160a01b0383811673ffffffffffffffffffffffffffffffffffffffff19831681178455604051919092169283917f8be0079c531659141344cd1fd0a4f28419497f9722a3daafe3b4186f6b6457e09190a35050565b611ac5806200073883390190565b80356001600160a01b038116811461015b57600080fd5b600060208284031215610500578081fd5b610509826104d8565b9392505050565b60008060408385031215610522578081fd5b61052b836104d8565b946020939093013593505050565b60008151815b81811015610559576020818501810151868301520161053f565b818111156105675782828601525b509290920192915050565b60006104616105818386610539565b84610539565b91825260601b6bffffffffffffffffffffffff1916602082015260340190565b6001600160a01b0391909116815260200190565b6001600160a01b0392831681529116602082015260400190565b6020808252818101527f437265617465323a2062797465636f6465206c656e677468206973207a65726f604082015260600190565b60208082526026908201527f4f776e61626c653a206e6577206f776e657220697320746865207a65726f206160408201527f6464726573730000000000000000000000000000000000000000000000000000606082015260800190565b60208082526019908201527f437265617465323a204661696c6564206f6e206465706c6f7900000000000000604082015260600190565b6020808252818101527f4f776e61626c653a2063616c6c6572206973206e6f7420746865206f776e6572604082015260600190565b6020808252601d908201527f437265617465323a20696e73756666696369656e742062616c616e6365000000604082015260600190565b90815260200190565b6000821982111561073257634e487b7160e01b81526011600452602481fd5b50019056fe60806040523480156200001157600080fd5b5060405162001ac538038062001ac5833981016040819052620000349162000214565b60018054610100600160a81b0319166101006001600160a01b038416021790556200006f60008051602062001a8583398151915282620000c8565b6200008a60008051602062001aa583398151915283620000c8565b620000a560008051602062001aa583398151915280620000d8565b620000c060008051602062001a8583398151915280620000d8565b50506200024b565b620000d482826200012d565b5050565b6000620000e583620001b7565b600084815260208190526040808220600101859055519192508391839186917fbd79b86ffe0ab8e8776151514217cd7cacd52c909f66475c3af44e129f0b00ff9190a4505050565b620001398282620001cf565b620000d4576000828152602081815260408083206001600160a01b03851684529091529020805460ff1916600117905562000173620001f8565b6001600160a01b0316816001600160a01b0316837f2f8788117e7eff1d82e926ec794901d17c78024a50270940304540a733656f0d60405160405180910390a45050565b6000818152602081905260409020600101545b919050565b6000918252602082815260408084206001600160a01b0393909316845291905290205460ff1690565b3390565b80516001600160a01b0381168114620001ca57600080fd5b6000806040838503121562000227578182fd5b6200023283620001fc565b91506200024260208401620001fc565b90509250929050565b61182a806200025b6000396000f3fe608060405234801561001057600080fd5b50600436106101ae5760003560e01c80639494995b116100ee578063c097b1fb11610097578063d8f38eec11610071578063d8f38eec14610379578063e0a1d38414610381578063e8a3d48514610394578063fd967f471461039c576101ae565b8063c097b1fb1461033e578063c0e7274014610351578063d547741f14610366576101ae565b8063a8a10442116100c8578063a8a10442146102f8578063aca841751461030b578063b0b6cc1a1461032b576101ae565b80639494995b146102d35780639d2f83f0146102e8578063a217fddf146102f0576101ae565b80633af627551161015b57806340f182c51161013557806340f182c51461029257806391d14854146102a5578063938e3d7b146102b857806394658d7e146102cb576101ae565b80633af62755146102575780633f5c3e871461026a5780633fff7bf81461027f576101ae565b806328aa9b401161018c57806328aa9b40146102115780632f2ff15d1461023157806336568abe14610244576101ae565b806301ffc9a7146101b3578063248a9ca3146101dc57806326de4d6b146101fc575b600080fd5b6101c66101c1366004611229565b6103a4565b6040516101d3919061144e565b60405180910390f35b6101ef6101ea3660046111e6565b6103d1565b6040516101d39190611459565b61020f61020a36600461111e565b6103e6565b005b61022461021f3660046111e6565b610474565b6040516101d39190611462565b61020f61023f3660046111fe565b610489565b61020f6102523660046111fe565b6104b2565b61020f6102653660046111ae565b6104f8565b610272610587565b6040516101d39190611720565b6101ef61028d3660046111e6565b61059f565b6101ef6102a0366004611173565b6105b1565b6101c66102b33660046111fe565b6106f5565b61020f6102c6366004611251565b61071e565b6101ef610770565b6102db610794565b6040516101d391906113b0565b6101c66107a8565b6101ef6107b1565b61020f610306366004611138565b6107b6565b61031e6103193660046111e6565b6108d8565b6040516101d39190611401565b6102db6103393660046111e6565b6109e3565b61020f61034c3660046111fe565b6109fe565b610359610adf565b6040516101d3919061148a565b61020f6103743660046111fe565b610b6d565b6101ef610b8c565b61020f61038f3660046112be565b610bb0565b610359610c87565b610272610d19565b60006001600160e01b03198216637965db0b60e01b14806103c957506103c982610d1f565b90505b919050565b60009081526020819052604090206001015490565b6104107f1884995e9e21b948f653f9596094b17f12f1b114ed4ca397c21461be57c16fe8336106f5565b6104355760405162461bcd60e51b815260040161042c9061154f565b60405180910390fd5b600180546001600160a01b03909216610100027fffffffffffffffffffffff0000000000000000000000000000000000000000ff909216919091179055565b60036020526000908152604090205460ff1681565b610492826103d1565b6104a38161049e610d38565b610d3c565b6104ad8383610da0565b505050565b6104ba610d38565b6001600160a01b0316816001600160a01b0316146104ea5760405162461bcd60e51b815260040161042c906116c3565b6104f48282610e25565b5050565b6105227f0245b6cbab6b03e029f6c88bff9595f9f5c30170f52598c3459ee71476ad59c1336106f5565b61053e5760405162461bcd60e51b815260040161042c906114f2565b6001805460ff19168215151790556040517f59617e84cd4a4d47c34c76f190da73d3a6a0236e0770dcba41851db53f336f579061057c90839061144e565b60405180910390a150565b6005546fffffffffffffffffffffffffffffffff1681565b60046020526000908152604090205481565b60006105dd7f0245b6cbab6b03e029f6c88bff9595f9f5c30170f52598c3459ee71476ad59c1336106f5565b6105f95760405162461bcd60e51b815260040161042c906114f2565b600460ff8316111561061d5760405162461bcd60e51b815260040161042c906115ac565b600460008360ff168152602001908152602001600020548260405160200161064692919061137d565b6040516020818303038152906040528051906020012090506001600460008460ff1681526020019081526020016000206000828254610685919061173d565b9091555050600081815260026020526040808220805473ffffffffffffffffffffffffffffffffffffffff19166001600160a01b038716908117909155905160ff85169284917f1d3dc09176e587732ef26b4edb7961028f2e33cce7ad22d62f07e6a5e26d8e649190a492915050565b6000918252602082815260408084206001600160a01b0393909316845291905290205460ff1690565b6107487f0245b6cbab6b03e029f6c88bff9595f9f5c30170f52598c3459ee71476ad59c1336106f5565b6107645760405162461bcd60e51b815260040161042c906114f2565b6104ad6006838361106e565b7f0245b6cbab6b03e029f6c88bff9595f9f5c30170f52598c3459ee71476ad59c181565b60015461010090046001600160a01b031681565b60015460ff1681565b600081565b6107e07f0245b6cbab6b03e029f6c88bff9595f9f5c30170f52598c3459ee71476ad59c1336106f5565b6107fc5760405162461bcd60e51b815260040161042c906114f2565b60405163a9059cbb60e01b81526001600160a01b0384169063a9059cbb9061082a90859085906004016113e8565b602060405180830381600087803b15801561084457600080fd5b505af1158015610858573d6000803e3d6000fd5b505050506040513d601f19601f8201168201806040525081019061087c91906111ca565b6108985760405162461bcd60e51b815260040161042c90611666565b7f78e6250172d8e0a57d8d41f480f13581571a2d27bb2a93f5f7bd2511f5c22a6c8383836040516108cb939291906113c4565b60405180910390a1505050565b6000818152600460205260409020546060908067ffffffffffffffff81111561091157634e487b7160e01b600052604160045260246000fd5b60405190808252806020026020018201604052801561093a578160200160208202803683370190505b50915060005b818110156109dc576000818560405160200161095d92919061136f565b60408051601f1981840301815291815281516020928301206000818152600290935291205485519192506001600160a01b0316908590849081106109b157634e487b7160e01b600052603260045260246000fd5b6001600160a01b0390921660209283029190910190910152506109d560018261173d565b9050610940565b5050919050565b6002602052600090815260409020546001600160a01b031681565b610a287f0245b6cbab6b03e029f6c88bff9595f9f5c30170f52598c3459ee71476ad59c1336106f5565b610a445760405162461bcd60e51b815260040161042c906114f2565b6000828152600260209081526040808320805473ffffffffffffffffffffffffffffffffffffffff19166001600160a01b038616179055600390915290205460ff166004811115610aa557634e487b7160e01b600052602160045260246000fd5b6040516001600160a01b0383169084907f1d3dc09176e587732ef26b4edb7961028f2e33cce7ad22d62f07e6a5e26d8e6490600090a45050565b60068054610aec906117bb565b80601f0160208091040260200160405190810160405280929190818152602001828054610b18906117bb565b8015610b655780601f10610b3a57610100808354040283529160200191610b65565b820191906000526020600020905b815481529060010190602001808311610b4857829003601f168201915b505050505081565b610b76826103d1565b610b828161049e610d38565b6104ad8383610e25565b7f1884995e9e21b948f653f9596094b17f12f1b114ed4ca397c21461be57c16fe881565b610bda7f1884995e9e21b948f653f9596094b17f12f1b114ed4ca397c21461be57c16fe8336106f5565b610bf65760405162461bcd60e51b815260040161042c9061154f565b61012c816fffffffffffffffffffffffffffffffff161115610c2a5760405162461bcd60e51b815260040161042c90611609565b600580546fffffffffffffffffffffffffffffffff19166fffffffffffffffffffffffffffffffff83161790556040517f1890faa36c0d3210e563b3b71281f08fdb6016a537f6664317d853bd2af520329061057c908390611720565b606060068054610c96906117bb565b80601f0160208091040260200160405190810160405280929190818152602001828054610cc2906117bb565b8015610d0f5780601f10610ce457610100808354040283529160200191610d0f565b820191906000526020600020905b815481529060010190602001808311610cf257829003601f168201915b5050505050905090565b61271081565b6001600160e01b031981166301ffc9a760e01b14919050565b3390565b610d4682826106f5565b6104f457610d5e816001600160a01b03166014610ea8565b610d69836020610ea8565b604051602001610d7a9291906112ee565b60408051601f198184030181529082905262461bcd60e51b825261042c9160040161148a565b610daa82826106f5565b6104f4576000828152602081815260408083206001600160a01b03851684529091529020805460ff19166001179055610de1610d38565b6001600160a01b0316816001600160a01b0316837f2f8788117e7eff1d82e926ec794901d17c78024a50270940304540a733656f0d60405160405180910390a45050565b610e2f82826106f5565b156104f4576000828152602081815260408083206001600160a01b03851684529091529020805460ff19169055610e64610d38565b6001600160a01b0316816001600160a01b0316837ff6391f5c32d9c69d2a47ea670b442974b53935d1edc7fd64eb21e047a839171b60405160405180910390a45050565b60606000610eb7836002611755565b610ec290600261173d565b67ffffffffffffffff811115610ee857634e487b7160e01b600052604160045260246000fd5b6040519080825280601f01601f191660200182016040528015610f12576020820181803683370190505b509050600360fc1b81600081518110610f3b57634e487b7160e01b600052603260045260246000fd5b60200101906001600160f81b031916908160001a905350600f60fb1b81600181518110610f7857634e487b7160e01b600052603260045260246000fd5b60200101906001600160f81b031916908160001a9053506000610f9c846002611755565b610fa790600161173d565b90505b6001811115611048577f303132333435363738396162636465660000000000000000000000000000000085600f1660108110610ff657634e487b7160e01b600052603260045260246000fd5b1a60f81b82828151811061101a57634e487b7160e01b600052603260045260246000fd5b60200101906001600160f81b031916908160001a90535060049490941c93611041816117a4565b9050610faa565b5083156110675760405162461bcd60e51b815260040161042c906114bd565b9392505050565b82805461107a906117bb565b90600052602060002090601f01602090048101928261109c57600085556110e2565b82601f106110b55782800160ff198235161785556110e2565b828001600101855582156110e2579182015b828111156110e25782358255916020019190600101906110c7565b506110ee9291506110f2565b5090565b5b808211156110ee57600081556001016110f3565b80356001600160a01b03811681146103cc57600080fd5b60006020828403121561112f578081fd5b61106782611107565b60008060006060848603121561114c578182fd5b61115584611107565b925061116360208501611107565b9150604084013590509250925092565b60008060408385031215611185578182fd5b61118e83611107565b9150602083013560ff811681146111a3578182fd5b809150509250929050565b6000602082840312156111bf578081fd5b81356110678161180c565b6000602082840312156111db578081fd5b81516110678161180c565b6000602082840312156111f7578081fd5b5035919050565b60008060408385031215611210578182fd5b8235915061122060208401611107565b90509250929050565b60006020828403121561123a578081fd5b81356001600160e01b031981168114611067578182fd5b60008060208385031215611263578182fd5b823567ffffffffffffffff8082111561127a578384fd5b818501915085601f83011261128d578384fd5b81358181111561129b578485fd5b8660208285010111156112ac578485fd5b60209290920196919550909350505050565b6000602082840312156112cf578081fd5b81356fffffffffffffffffffffffffffffffff81168114611067578182fd5b60007f416363657373436f6e74726f6c3a206163636f756e742000000000000000000082528351611326816017850160208801611774565b7f206973206d697373696e6720726f6c65200000000000000000000000000000006017918401918201528351611363816028840160208801611774565b01602801949350505050565b918252602082015260400190565b91825260f81b7fff0000000000000000000000000000000000000000000000000000000000000016602082015260210190565b6001600160a01b0391909116815260200190565b6001600160a01b039384168152919092166020820152604081019190915260600190565b6001600160a01b03929092168252602082015260400190565b6020808252825182820181905260009190848201906040850190845b818110156114425783516001600160a01b03168352928401929184019160010161141d565b50909695505050505050565b901515815260200190565b90815260200190565b602081016005831061148457634e487b7160e01b600052602160045260246000fd5b91905290565b60006020825282518060208401526114a9816040850160208701611774565b601f01601f19169190910160400192915050565b6020808252818101527f537472696e67733a20686578206c656e67746820696e73756666696369656e74604082015260600190565b60208082526036908201527f50726f746f636f6c3a204f6e6c792070726f746f636f6c2061646d696e73206360408201527f616e2063616c6c20746869732066756e6374696f6e2e00000000000000000000606082015260800190565b60208082526035908201527f50726f746f636f6c3a204f6e6c79204e46544c6162732061646d696e7320636160408201527f6e2063616c6c20746869732066756e6374696f6e2e0000000000000000000000606082015260800190565b6020808252602e908201527f50726f746f636f6c436f6e74726f6c3a20696e76616c6964206d6f64756c652060408201527f747970652070726f76696465642e000000000000000000000000000000000000606082015260800190565b6020808252602e908201527f50726f746f636f6c436f6e74726f6c3a206665652063616e6e6f74206265206760408201527f726561746572207468616e203325000000000000000000000000000000000000606082015260800190565b60208082526034908201527f50726f746f636f6c20436f6e74726f6c3a206661696c656420746f207472616e60408201527f736665722070726f746f636f6c2066756e64732e000000000000000000000000606082015260800190565b6020808252602f908201527f416363657373436f6e74726f6c3a2063616e206f6e6c792072656e6f756e636560408201527f20726f6c657320666f722073656c660000000000000000000000000000000000606082015260800190565b6fffffffffffffffffffffffffffffffff91909116815260200190565b60008219821115611750576117506117f6565b500190565b600081600019048311821515161561176f5761176f6117f6565b500290565b60005b8381101561178f578181015183820152602001611777565b8381111561179e576000848401525b50505050565b6000816117b3576117b36117f6565b506000190190565b6002810460018216806117cf57607f821691505b602082108114156117f057634e487b7160e01b600052602260045260246000fd5b50919050565b634e487b7160e01b600052601160045260246000fd5b801515811461181a57600080fd5b5056fea164736f6c6343000800000a1884995e9e21b948f653f9596094b17f12f1b114ed4ca397c21461be57c16fe80245b6cbab6b03e029f6c88bff9595f9f5c30170f52598c3459ee71476ad59c1a164736f6c6343000800000a61012060405234801561001157600080fd5b50604080518082018252600f81526e23a9a73b19102337b93bb0b93232b960891b602080830191825283518085019094526005845264302e302e3160d81b908401528151902060c08190527fae209a0b48f21c054280f2455d32cf309387644879d9acbd8ffc19916381188560e08190524660a0529192917f8b73c3c69bb8fe3d512ecc4cf759cc79239f7b179b0ffacaa9a75d522b39400f6100b58184846100c6565b608052610100525061012c92505050565b600083838346306040516020016100e1959493929190610100565b6040516020818303038152906040528051906020012090509392505050565b9485526020850193909352604084019190915260608301526001600160a01b0316608082015260a00190565b60805160a05160c05160e05161010051610be461017060003960006104220152600061046401526000610443015260006103d0015260006103f90152610be46000f3fe6080604052600436106100345760003560e01c80632d0335ab1461003957806347153f821461006f578063bf5d3bdb14610090575b600080fd5b34801561004557600080fd5b506100596100543660046107c3565b6100bd565b6040516100669190610b15565b60405180910390f35b61008261007d3660046107f1565b6100d8565b604051610066929190610904565b34801561009c57600080fd5b506100b06100ab3660046107f1565b61023e565b60405161006691906108f9565b6001600160a01b031660009081526020819052604090205490565b600060606100e785858561023e565b61010c5760405162461bcd60e51b8152600401610103906109fd565b60405180910390fd5b61011b60808601356001610b63565b60008061012b60208901896107c3565b6001600160a01b03166001600160a01b031681526020019081526020016000208190555060008086602001602081019061016591906107c3565b6001600160a01b03166060880135604089013561018560a08b018b610b1e565b61019260208d018d6107c3565b6040516020016101a493929190610899565b60408051601f19818403018152908290526101be916108c2565b600060405180830381858888f193505050503d80600081146101fc576040519150601f19603f3d011682016040523d82523d6000602084013e610201565b606091505b509092509050610216603f6060890135610b87565b5a1161023257634e487b7160e01b600052600160045260246000fd5b90969095509350505050565b60008061032484848080601f01602080910402602001604051908101604052809392919081815260200183838082843760009201919091525061031e92507fdd8f4b70b0f4393e889bd39128a30628a78b61816a9eb8199759e7a349657e4891506102ae905060208a018a6107c3565b6102be60408b0160208c016107c3565b60408b013560608c013560808d01356102da60a08f018f610b1e565b6040516102e8929190610889565b60405190819003812061030397969594939291602001610940565b6040516020818303038152906040528051906020012061038f565b906103a8565b9050608085013560008061033b60208901896107c3565b6001600160a01b03166001600160a01b0316815260200190815260200160002054148015610386575061037160208601866107c3565b6001600160a01b0316816001600160a01b0316145b95945050505050565b60006103a261039c6103cc565b8361048e565b92915050565b60008060006103b785856104c1565b915091506103c481610531565b509392505050565b60007f000000000000000000000000000000000000000000000000000000000000000046141561041d57507f000000000000000000000000000000000000000000000000000000000000000061048b565b6104887f00000000000000000000000000000000000000000000000000000000000000007f00000000000000000000000000000000000000000000000000000000000000007f0000000000000000000000000000000000000000000000000000000000000000610661565b90505b90565b600082826040516020016104a39291906108de565b60405160208183030381529060405280519060200120905092915050565b6000808251604114156104f85760208301516040840151606085015160001a6104ec8782858561069b565b9450945050505061052a565b825160401415610522576020830151604084015161051786838361077b565b93509350505061052a565b506000905060025b9250929050565b600081600481111561055357634e487b7160e01b600052602160045260246000fd5b141561055e5761065e565b600181600481111561058057634e487b7160e01b600052602160045260246000fd5b141561059e5760405162461bcd60e51b8152600401610103906109c6565b60028160048111156105c057634e487b7160e01b600052602160045260246000fd5b14156105de5760405162461bcd60e51b815260040161010390610a5a565b600381600481111561060057634e487b7160e01b600052602160045260246000fd5b141561061e5760405162461bcd60e51b815260040161010390610a91565b600481600481111561064057634e487b7160e01b600052602160045260246000fd5b141561065e5760405162461bcd60e51b815260040161010390610ad3565b50565b6000838383463060405160200161067c95949392919061097c565b6040516020818303038152906040528051906020012090509392505050565b6000807f7fffffffffffffffffffffffffffffff5d576e7357a4501ddfe92f46681b20a08311156106d25750600090506003610772565b8460ff16601b141580156106ea57508460ff16601c14155b156106fb5750600090506004610772565b60006001878787876040516000815260200160405260405161072094939291906109a8565b6020604051602081039080840390855afa158015610742573d6000803e3d6000fd5b5050604051601f1901519150506001600160a01b03811661076b57600060019250925050610772565b9150600090505b94509492505050565b6000807f7fffffffffffffffffffffffffffffffffffffffffffffffffffffffffffffff831660ff84901c601b016107b58782888561069b565b935093505050935093915050565b6000602082840312156107d4578081fd5b81356001600160a01b03811681146107ea578182fd5b9392505050565b600080600060408486031215610805578182fd5b833567ffffffffffffffff8082111561081c578384fd5b9085019060c0828803121561082f578384fd5b90935060208501359080821115610844578384fd5b818601915086601f830112610857578384fd5b813581811115610865578485fd5b876020828501011115610876578485fd5b6020830194508093505050509250925092565b6000828483379101908152919050565b6000838583375060609190911b6bffffffffffffffffffffffff19169101908152601401919050565b600082516108d4818460208701610ba7565b9190910192915050565b61190160f01b81526002810192909252602282015260420190565b901515815260200190565b6000831515825260406020830152825180604084015261092b816060850160208701610ba7565b601f01601f1916919091016060019392505050565b9687526001600160a01b0395861660208801529390941660408601526060850191909152608084015260a083019190915260c082015260e00190565b9485526020850193909352604084019190915260608301526001600160a01b0316608082015260a00190565b93845260ff9290921660208401526040830152606082015260800190565b60208082526018908201527f45434453413a20696e76616c6964207369676e61747572650000000000000000604082015260600190565b60208082526032908201527f4d696e696d616c466f727761726465723a207369676e617475726520646f657360408201527f206e6f74206d6174636820726571756573740000000000000000000000000000606082015260800190565b6020808252601f908201527f45434453413a20696e76616c6964207369676e6174757265206c656e67746800604082015260600190565b60208082526022908201527f45434453413a20696e76616c6964207369676e6174757265202773272076616c604082015261756560f01b606082015260800190565b60208082526022908201527f45434453413a20696e76616c6964207369676e6174757265202776272076616c604082015261756560f01b606082015260800190565b90815260200190565b6000808335601e19843603018112610b34578283fd5b83018035915067ffffffffffffffff821115610b4e578283fd5b60200191503681900382131561052a57600080fd5b60008219821115610b8257634e487b7160e01b81526011600452602481fd5b500190565b600082610ba257634e487b7160e01b81526012600452602481fd5b500490565b60005b83811015610bc2578181015183820152602001610baa565b83811115610bd1576000848401525b5050505056fea164736f6c6343000800000a",
  "linkReferences": {},
  "deployedLinkReferences": {}
}