{
  "_format": "hh-sol-artifact-1",
  "contractName": "Registry",
  "sourceName": "contracts/Registry.sol",
  "abi": [
    {
      "inputs": [
        {
          "internalType": "address",
          "name": "_admin",
          "type": "address"
        },
        {
          "internalType": "address",
          "name": "_treasury",
          "type": "address"
        }
      ],
      "stateMutability": "nonpayable",
      "type": "constructor"
    },
    {
      "anonymous": false,
      "inputs": [
        {
          "indexed": false,
          "internalType": "address",
          "name": "forwarder",
          "type": "address"
        }
      ],
      "name": "DeployedForwarder",
      "type": "event"
    },
    {
      "anonymous": false,
      "inputs": [
        {
          "indexed": true,
          "internalType": "address",
          "name": "deployer",
          "type": "address"
        },
        {
          "indexed": true,
          "internalType": "address",
          "name": "protocolControl",
          "type": "address"
        },
        {
          "indexed": false,
          "internalType": "uint256",
          "name": "version",
          "type": "uint256"
        }
      ],
      "name": "DeployedProtocol",
      "type": "event"
    },
    {
      "anonymous": false,
      "inputs": [
        {
          "indexed": true,
          "internalType": "address",
          "name": "previousOwner",
          "type": "address"
        },
        {
          "indexed": true,
          "internalType": "address",
          "name": "newOwner",
          "type": "address"
        }
      ],
      "name": "OwnershipTransferred",
      "type": "event"
    },
    {
      "anonymous": false,
      "inputs": [
        {
          "indexed": false,
          "internalType": "address",
          "name": "prevAdmin",
          "type": "address"
        },
        {
          "indexed": false,
          "internalType": "address",
          "name": "newAdmin",
          "type": "address"
        }
      ],
      "name": "UpdatedProviderAdmin",
      "type": "event"
    },
    {
      "anonymous": false,
      "inputs": [
        {
          "indexed": false,
          "internalType": "address",
          "name": "prevTreasury",
          "type": "address"
        },
        {
          "indexed": false,
          "internalType": "address",
          "name": "newTreasury",
          "type": "address"
        }
      ],
      "name": "UpdatedProviderTreasury",
      "type": "event"
    },
    {
      "inputs": [
        {
          "internalType": "address",
          "name": "",
          "type": "address"
        }
      ],
      "name": "controlCenters",
      "outputs": [
        {
          "internalType": "uint256",
          "name": "latestVersion",
          "type": "uint256"
        }
      ],
      "stateMutability": "view",
      "type": "function"
    },
    {
      "inputs": [
        {
          "internalType": "string",
          "name": "_protocolControlURI",
          "type": "string"
        }
      ],
      "name": "deployProtocol",
      "outputs": [],
      "stateMutability": "nonpayable",
      "type": "function"
    },
    {
      "inputs": [],
      "name": "forwarder",
      "outputs": [
        {
          "internalType": "address",
          "name": "",
          "type": "address"
        }
      ],
      "stateMutability": "view",
      "type": "function"
    },
    {
      "inputs": [
        {
          "internalType": "address",
          "name": "_protocolDeployer",
          "type": "address"
        }
      ],
      "name": "getLatestVersion",
      "outputs": [
        {
          "internalType": "uint256",
          "name": "",
          "type": "uint256"
        }
      ],
      "stateMutability": "view",
      "type": "function"
    },
    {
      "inputs": [
        {
          "internalType": "address",
          "name": "_protocolDeployer",
          "type": "address"
        },
        {
          "internalType": "uint256",
          "name": "_version",
          "type": "uint256"
        }
      ],
      "name": "getProtocolControl",
      "outputs": [
        {
          "internalType": "address",
          "name": "",
          "type": "address"
        }
      ],
      "stateMutability": "view",
      "type": "function"
    },
    {
      "inputs": [],
      "name": "owner",
      "outputs": [
        {
          "internalType": "address",
          "name": "",
          "type": "address"
        }
      ],
      "stateMutability": "view",
      "type": "function"
    },
    {
      "inputs": [],
      "name": "providerAdmin",
      "outputs": [
        {
          "internalType": "address",
          "name": "",
          "type": "address"
        }
      ],
      "stateMutability": "view",
      "type": "function"
    },
    {
      "inputs": [],
      "name": "providerTreasury",
      "outputs": [
        {
          "internalType": "address",
          "name": "",
          "type": "address"
        }
      ],
      "stateMutability": "view",
      "type": "function"
    },
    {
      "inputs": [],
      "name": "renounceOwnership",
      "outputs": [],
      "stateMutability": "nonpayable",
      "type": "function"
    },
    {
      "inputs": [
        {
          "internalType": "address",
          "name": "_newAdminSigner",
          "type": "address"
        }
      ],
      "name": "setProviderAdmin",
      "outputs": [],
      "stateMutability": "nonpayable",
      "type": "function"
    },
    {
      "inputs": [
        {
          "internalType": "address",
          "name": "_newTreasury",
          "type": "address"
        }
      ],
      "name": "setProviderTreasury",
      "outputs": [],
      "stateMutability": "nonpayable",
      "type": "function"
    },
    {
      "inputs": [
        {
          "internalType": "address",
          "name": "newOwner",
          "type": "address"
        }
      ],
      "name": "transferOwnership",
      "outputs": [],
      "stateMutability": "nonpayable",
      "type": "function"
    }
  ],
  "bytecode": "0x60806040523480156200001157600080fd5b5060405162003c5938038062003c59833981016040819052620000349162000277565b62000048620000426200016c565b62000170565b600180546001600160a01b038085166001600160a01b0319928316179092556002805492841692909116919091179055604051600090620000909043903390602001620002ea565b604051602081830303815290604052805190602001209050600060405180602001620000bc906200024c565b601f1982820381018352601f909101166040819052620000e09190602001620002ae565b60405160208183030381529060405290506200010a60008383620001c060201b620006081760201c565b600380546001600160a01b0319166001600160a01b0392831617908190556040517f6705282807944f0ea6c8bc20b92a800fd22830ed53fe002daec72ca0b4086592926200015a92169062000305565b60405180910390a150505050620003bc565b3390565b600080546001600160a01b038381166001600160a01b0319831681178455604051919092169283917f8be0079c531659141344cd1fd0a4f28419497f9722a3daafe3b4186f6b6457e09190a35050565b60008084471015620001ef5760405162461bcd60e51b8152600401620001e69062000385565b60405180910390fd5b8251620002105760405162461bcd60e51b8152600401620001e69062000319565b8383516020850187f590506001600160a01b038116620002445760405162461bcd60e51b8152600401620001e6906200034e565b949350505050565b610d548062002f0583390190565b80516001600160a01b03811681146200027257600080fd5b919050565b600080604083850312156200028a578182fd5b62000295836200025a565b9150620002a5602084016200025a565b90509250929050565b60008251815b81811015620002d05760208186018101518583015201620002b4565b81811115620002df5782828501525b509190910192915050565b91825260601b6001600160601b031916602082015260340190565b6001600160a01b0391909116815260200190565b6020808252818101527f437265617465323a2062797465636f6465206c656e677468206973207a65726f604082015260600190565b60208082526019908201527f437265617465323a204661696c6564206f6e206465706c6f7900000000000000604082015260600190565b6020808252601d908201527f437265617465323a20696e73756666696369656e742062616c616e6365000000604082015260600190565b612b3980620003cc6000396000f3fe60806040523480156200001157600080fd5b5060043610620000e85760003560e01c80638da5cb5b116200008d578063dc62163e1162000063578063dc62163e14620001b1578063f2fde38b14620001c8578063f645d4f914620001df57620000e8565b80638da5cb5b146200018657806398990a0e1462000190578063d566464b146200019a57620000e8565b8063715018a611620000c3578063715018a6146200014e5780638606096d1462000158578063863c62b6146200016f57620000e8565b80630dc0ebe214620000ed5780632c17430f146200010f57806350abe9101462000128575b600080fd5b620000f7620001e9565b60405162000106919062000853565b60405180910390f35b620001266200012036600462000705565b620001f8565b005b6200013f6200013936600462000705565b620002a8565b60405162000106919062000a0f565b62000126620002c7565b6200013f6200016936600462000705565b6200031b565b620001266200018036600462000705565b6200032d565b620000f7620003c8565b620000f7620003d7565b62000126620001ab36600462000755565b620003e6565b620000f7620001c236600462000729565b62000550565b62000126620001d936600462000705565b6200057c565b620000f7620005f9565b6001546001600160a01b031681565b620002026200068b565b6001600160a01b031662000215620003c8565b6001600160a01b031614620002475760405162461bcd60e51b81526004016200023e90620009a3565b60405180910390fd5b600280546001600160a01b038381166001600160a01b03198316179092556040519116907f96536f6603fae049f2acd73a57ad1fbe91216778b6d3a62d59be7e16d45e84c3906200029c908390859062000867565b60405180910390a15050565b6001600160a01b0381166000908152600460205260409020545b919050565b620002d16200068b565b6001600160a01b0316620002e4620003c8565b6001600160a01b0316146200030d5760405162461bcd60e51b81526004016200023e90620009a3565b6200031960006200068f565b565b60046020526000908152604090205481565b620003376200068b565b6001600160a01b03166200034a620003c8565b6001600160a01b031614620003735760405162461bcd60e51b81526004016200023e90620009a3565b600180546001600160a01b038381166001600160a01b03198316179092556040519116907fb37b4cd00448f565737e789bc755acda32b7a525a279acc9db6a205db912f3e9906200029c908390859062000867565b6000546001600160a01b031690565b6002546001600160a01b031681565b60004333604051602001620003fd92919062000833565b6040516020818303038152906040528051906020012090506000604051806020016200042990620006df565b601f1982820381018352601f909101166040819052600154600254620004649233926001600160a01b03908116921690889060200162000881565b60408051601f198184030181529082905262000484929160200162000800565b60405160208183030381529060405290506000620004a56000848462000608565b33600081815260046020818152604080842080548086526001808301855292862080546001600160a01b0319166001600160a01b038a161790559585529290915281549495509293909190620004fd90849062000a18565b90915550506040516001600160a01b0383169033907fa948d53914cb489499e37cdcaa174b5b664bbfa251aaacbb7282a76ae1be49be906200054190859062000a0f565b60405180910390a35050505050565b6001600160a01b0391821660009081526004602090815260408083209383526001909301905220541690565b620005866200068b565b6001600160a01b031662000599620003c8565b6001600160a01b031614620005c25760405162461bcd60e51b81526004016200023e90620009a3565b6001600160a01b038116620005eb5760405162461bcd60e51b81526004016200023e906200090f565b620005f6816200068f565b50565b6003546001600160a01b031681565b600080844710156200062e5760405162461bcd60e51b81526004016200023e90620009d8565b82516200064f5760405162461bcd60e51b81526004016200023e90620008da565b8383516020850187f590506001600160a01b038116620006835760405162461bcd60e51b81526004016200023e906200096c565b949350505050565b3390565b600080546001600160a01b038381166001600160a01b0319831681178455604051919092169283917f8be0079c531659141344cd1fd0a4f28419497f9722a3daafe3b4186f6b6457e09190a35050565b6120a68062000a8783390190565b80356001600160a01b0381168114620002c257600080fd5b60006020828403121562000717578081fd5b6200072282620006ed565b9392505050565b600080604083850312156200073c578081fd5b6200074783620006ed565b946020939093013593505050565b6000602080838503121562000768578182fd5b823567ffffffffffffffff8082111562000780578384fd5b818501915085601f83011262000794578384fd5b813581811115620007a957620007a962000a70565b604051601f8201601f1916810185018381118282101715620007cf57620007cf62000a70565b6040528181528382018501881015620007e6578586fd5b818585018683013790810190930193909352509392505050565b600083516200081481846020880162000a3d565b8351908301906200082a81836020880162000a3d565b01949350505050565b91825260601b6bffffffffffffffffffffffff1916602082015260340190565b6001600160a01b0391909116815260200190565b6001600160a01b0392831681529116602082015260400190565b60006001600160a01b0380871683528086166020840152808516604084015250608060608301528251806080840152620008c38160a085016020870162000a3d565b601f01601f19169190910160a00195945050505050565b6020808252818101527f437265617465323a2062797465636f6465206c656e677468206973207a65726f604082015260600190565b60208082526026908201527f4f776e61626c653a206e6577206f776e657220697320746865207a65726f206160408201527f6464726573730000000000000000000000000000000000000000000000000000606082015260800190565b60208082526019908201527f437265617465323a204661696c6564206f6e206465706c6f7900000000000000604082015260600190565b6020808252818101527f4f776e61626c653a2063616c6c6572206973206e6f7420746865206f776e6572604082015260600190565b6020808252601d908201527f437265617465323a20696e73756666696369656e742062616c616e6365000000604082015260600190565b90815260200190565b6000821982111562000a3857634e487b7160e01b81526011600452602481fd5b500190565b60005b8381101562000a5a57818101518382015260200162000a40565b8381111562000a6a576000848401525b50505050565b634e487b7160e01b600052604160045260246000fdfe6080604052600780546001600160801b0319166101f41790553480156200002557600080fd5b50604051620020a6380380620020a6833981016040819052620000489162000376565b80516200005d906008906020840190620002b8565b5060018054610100600160a81b0319166101006001600160a01b038581169190910291909117909155600280546001600160a01b031916918616919091179055620000b8600080516020620020868339815191528562000184565b620000d3600080516020620020668339815191528462000184565b620000ee600080516020620020868339815191528062000194565b62000109600080516020620020668339815191528062000194565b7fb825ab4f81e4900f8508fcfa9b52c04f19a7bcf5ecc6b19d902fcde1fda9c214846040516200013a91906200047e565b60405180910390a17e2db23efd8339ec0c6d1e7fe86528420c0a007b4f33268e7b90f75b3a17b778836040516200017291906200047e565b60405180910390a150505050620004e5565b620001908282620001e9565b5050565b6000620001a18362000273565b600084815260208190526040808220600101859055519192508391839186917fbd79b86ffe0ab8e8776151514217cd7cacd52c909f66475c3af44e129f0b00ff9190a4505050565b620001f582826200028b565b62000190576000828152602081815260408083206001600160a01b03851684529091529020805460ff191660011790556200022f620002b4565b6001600160a01b0316816001600160a01b0316837f2f8788117e7eff1d82e926ec794901d17c78024a50270940304540a733656f0d60405160405180910390a45050565b6000818152602081905260409020600101545b919050565b6000918252602082815260408084206001600160a01b0393909316845291905290205460ff1690565b3390565b828054620002c69062000492565b90600052602060002090601f016020900481019282620002ea576000855562000335565b82601f106200030557805160ff191683800117855562000335565b8280016001018555821562000335579182015b828111156200033557825182559160200191906001019062000318565b506200034392915062000347565b5090565b5b8082111562000343576000815560010162000348565b80516001600160a01b03811681146200028657600080fd5b600080600080608085870312156200038c578384fd5b62000397856200035e565b93506020620003a88187016200035e565b9350620003b8604087016200035e565b60608701519093506001600160401b0380821115620003d5578384fd5b818801915088601f830112620003e9578384fd5b815181811115620003fe57620003fe620004cf565b604051601f8201601f1916810185018381118282101715620004245762000424620004cf565b60405281815283820185018b10156200043b578586fd5b8592505b818310156200045e57838301850151818401860152918401916200043f565b818311156200046f57858583830101525b979a9699509497505050505050565b6001600160a01b0391909116815260200190565b600281046001821680620004a757607f821691505b60208210811415620004c957634e487b7160e01b600052602260045260246000fd5b50919050565b634e487b7160e01b600052604160045260246000fd5b611b7180620004f56000396000f3fe6080604052600436106101d15760003560e01c806394658d7e116100f7578063b0b6cc1a11610095578063e8a3d48511610064578063e8a3d48514610520578063ef2933ec14610535578063f7032e6514610555578063fd967f4714610575576101d8565b8063b0b6cc1a1461049e578063c097b1fb146104be578063c0e72740146104de578063d547741f14610500576101d8565b80639d2f83f0116100d15780639d2f83f014610427578063a217fddf1461043c578063a8a1044214610451578063aca8417514610471576101d8565b806394658d7e146103e857806398990a0e146103fd57806399c04d3b14610412576101d8565b806340f182c51161016f5780637cdca11c1161013e5780637cdca11c146103685780638a131d5d1461038857806391d14854146103a8578063938e3d7b146103c8576101d8565b806340f182c5146102f157806357a91814146103115780635cd42315146103265780636e05e41d14610348576101d8565b806328aa9b40116101ab57806328aa9b40146102625780632f2ff15d1461028f57806336568abe146102b15780633fff7bf8146102d1576101d8565b806301ffc9a7146101dd5780630f603ed314610213578063248a9ca314610235576101d8565b366101d857005b600080fd5b3480156101e957600080fd5b506101fd6101f83660046115a0565b61058a565b60405161020a9190611795565b60405180910390f35b34801561021f57600080fd5b506102286105b7565b60405161020a91906116f7565b34801561024157600080fd5b5061025561025036600461155d565b6105c6565b60405161020a91906117a0565b34801561026e57600080fd5b5061028261027d36600461155d565b6105db565b60405161020a91906117a9565b34801561029b57600080fd5b506102af6102aa366004611575565b6105f0565b005b3480156102bd57600080fd5b506102af6102cc366004611575565b610619565b3480156102dd57600080fd5b506102556102ec36600461155d565b610668565b3480156102fd57600080fd5b5061025561030c3660046114ea565b61067a565b34801561031d57600080fd5b506102556107a4565b34801561033257600080fd5b5061033b6107c8565b60405161020a9190611a67565b34801561035457600080fd5b50610255610363366004611495565b6107ce565b34801561037457600080fd5b506102af610383366004611495565b6107e0565b34801561039457600080fd5b506102af6103a3366004611495565b610897565b3480156103b457600080fd5b506101fd6103c3366004611575565b610935565b3480156103d457600080fd5b506102af6103e33660046115c8565b61095e565b3480156103f457600080fd5b506102556109b0565b34801561040957600080fd5b506102286109d4565b34801561041e57600080fd5b5061033b6109e8565b34801561043357600080fd5b506101fd610a00565b34801561044857600080fd5b50610255610a09565b34801561045d57600080fd5b506102af61046c3660046114af565b610a0e565b34801561047d57600080fd5b5061049161048c36600461155d565b610ba9565b60405161020a9190611748565b3480156104aa57600080fd5b506102286104b936600461155d565b610cb4565b3480156104ca57600080fd5b506102af6104d9366004611575565b610ccf565b3480156104ea57600080fd5b506104f3610df6565b60405161020a91906117d1565b34801561050c57600080fd5b506102af61051b366004611575565b610e84565b34801561052c57600080fd5b506104f3610ea3565b34801561054157600080fd5b506102af610550366004611525565b610f35565b34801561056157600080fd5b506102af610570366004611635565b610fb9565b34801561058157600080fd5b5061033b611090565b60006001600160e01b03198216637965db0b60e01b14806105af57506105af82611096565b90505b919050565b6002546001600160a01b031681565b60009081526020819052604090206001015490565b60046020526000908152604090205460ff1681565b6105f9826105c6565b61060a816106056110af565b6110b3565b6106148383611117565b505050565b6106216110af565b6001600160a01b0316816001600160a01b03161461065a5760405162461bcd60e51b815260040161065190611a0a565b60405180910390fd5b610664828261119c565b5050565b60066020526000908152604090205481565b60006106a67f0245b6cbab6b03e029f6c88bff9595f9f5c30170f52598c3459ee71476ad59c133610935565b6106c25760405162461bcd60e51b8152600401610651906118f3565b60ff82166000818152600660209081526040918290205491516106e69391016116e9565b6040516020818303038152906040528051906020012090506001600660008460ff16815260200190815260200160002060008282546107259190611a84565b90915550506000818152600360209081526040808320805473ffffffffffffffffffffffffffffffffffffffff19166001600160a01b03881690811790915580845260059092528083208490555160ff85169284917f1d3dc09176e587732ef26b4edb7961028f2e33cce7ad22d62f07e6a5e26d8e649190a492915050565b7ff20dc52d9f915492d8534c2045a2e74047b4a9fcc12dbd73812d6a9a24a6da4181565b6103e881565b60056020526000908152604090205481565b61080a7ff20dc52d9f915492d8534c2045a2e74047b4a9fcc12dbd73812d6a9a24a6da4133610935565b6108265760405162461bcd60e51b815260040161065190611896565b600180547fffffffffffffffffffffff0000000000000000000000000000000000000000ff166101006001600160a01b038416021790556040517e2db23efd8339ec0c6d1e7fe86528420c0a007b4f33268e7b90f75b3a17b7789061088c9083906116f7565b60405180910390a150565b6108c17f0245b6cbab6b03e029f6c88bff9595f9f5c30170f52598c3459ee71476ad59c133610935565b6108dd5760405162461bcd60e51b8152600401610651906118f3565b6002805473ffffffffffffffffffffffffffffffffffffffff19166001600160a01b0383161790556040517fb825ab4f81e4900f8508fcfa9b52c04f19a7bcf5ecc6b19d902fcde1fda9c2149061088c9083906116f7565b6000918252602082815260408084206001600160a01b0393909316845291905290205460ff1690565b6109887f0245b6cbab6b03e029f6c88bff9595f9f5c30170f52598c3459ee71476ad59c133610935565b6109a45760405162461bcd60e51b8152600401610651906118f3565b610614600883836113e5565b7f0245b6cbab6b03e029f6c88bff9595f9f5c30170f52598c3459ee71476ad59c181565b60015461010090046001600160a01b031681565b6007546fffffffffffffffffffffffffffffffff1681565b60015460ff1681565b600081565b610a387f0245b6cbab6b03e029f6c88bff9595f9f5c30170f52598c3459ee71476ad59c133610935565b610a545760405162461bcd60e51b8152600401610651906118f3565b60006001600160a01b038416610ac857826001600160a01b031682604051610a7b90611665565b60006040518083038185875af1925050503d8060008114610ab8576040519150601f19603f3d011682016040523d82523d6000602084013e610abd565b606091505b505080915050610b4b565b60405163a9059cbb60e01b81526001600160a01b0385169063a9059cbb90610af6908690869060040161172f565b602060405180830381600087803b158015610b1057600080fd5b505af1158015610b24573d6000803e3d6000fd5b505050506040513d601f19601f82011682018060405250810190610b489190611541565b90505b80610b685760405162461bcd60e51b8152600401610651906119ad565b7f78e6250172d8e0a57d8d41f480f13581571a2d27bb2a93f5f7bd2511f5c22a6c848484604051610b9b9392919061170b565b60405180910390a150505050565b6000818152600660205260409020546060908067ffffffffffffffff811115610be257634e487b7160e01b600052604160045260246000fd5b604051908082528060200260200182016040528015610c0b578160200160208202803683370190505b50915060005b81811015610cad5760008185604051602001610c2e9291906116e9565b60408051601f1981840301815291815281516020928301206000818152600390935291205485519192506001600160a01b031690859084908110610c8257634e487b7160e01b600052603260045260246000fd5b6001600160a01b039092166020928302919091019091015250610ca6600182611a84565b9050610c11565b5050919050565b6003602052600090815260409020546001600160a01b031681565b610cf97f0245b6cbab6b03e029f6c88bff9595f9f5c30170f52598c3459ee71476ad59c133610935565b610d155760405162461bcd60e51b8152600401610651906118f3565b6000828152600360205260409020546001600160a01b0316610d495760405162461bcd60e51b815260040161065190611950565b6000828152600360209081526040808320805473ffffffffffffffffffffffffffffffffffffffff19166001600160a01b038616908117909155835260058252808320859055848352600490915290205460ff166007811115610dbc57634e487b7160e01b600052602160045260246000fd5b6040516001600160a01b0383169084907f1d3dc09176e587732ef26b4edb7961028f2e33cce7ad22d62f07e6a5e26d8e6490600090a45050565b60088054610e0390611b02565b80601f0160208091040260200160405190810160405280929190818152602001828054610e2f90611b02565b8015610e7c5780601f10610e5157610100808354040283529160200191610e7c565b820191906000526020600020905b815481529060010190602001808311610e5f57829003601f168201915b505050505081565b610e8d826105c6565b610e99816106056110af565b610614838361119c565b606060088054610eb290611b02565b80601f0160208091040260200160405190810160405280929190818152602001828054610ede90611b02565b8015610f2b5780601f10610f0057610100808354040283529160200191610f2b565b820191906000526020600020905b815481529060010190602001808311610f0e57829003601f168201915b5050505050905090565b610f5f7f0245b6cbab6b03e029f6c88bff9595f9f5c30170f52598c3459ee71476ad59c133610935565b610f7b5760405162461bcd60e51b8152600401610651906118f3565b6001805460ff19168215151790556040517f59617e84cd4a4d47c34c76f190da73d3a6a0236e0770dcba41851db53f336f579061088c908390611795565b610fe37ff20dc52d9f915492d8534c2045a2e74047b4a9fcc12dbd73812d6a9a24a6da4133610935565b610fff5760405162461bcd60e51b815260040161065190611896565b6103e86fffffffffffffffffffffffffffffffff821611156110335760405162461bcd60e51b815260040161065190611839565b600780546fffffffffffffffffffffffffffffffff19166fffffffffffffffffffffffffffffffff83161790556040517f6777126e1a64b3a9a031086219e1670bb7c131b028d08a9b037899f452b6513b9061088c908390611a67565b61271081565b6001600160e01b031981166301ffc9a760e01b14919050565b3390565b6110bd8282610935565b610664576110d5816001600160a01b0316601461121f565b6110e083602061121f565b6040516020016110f1929190611668565b60408051601f198184030181529082905262461bcd60e51b8252610651916004016117d1565b6111218282610935565b610664576000828152602081815260408083206001600160a01b03851684529091529020805460ff191660011790556111586110af565b6001600160a01b0316816001600160a01b0316837f2f8788117e7eff1d82e926ec794901d17c78024a50270940304540a733656f0d60405160405180910390a45050565b6111a68282610935565b15610664576000828152602081815260408083206001600160a01b03851684529091529020805460ff191690556111db6110af565b6001600160a01b0316816001600160a01b0316837ff6391f5c32d9c69d2a47ea670b442974b53935d1edc7fd64eb21e047a839171b60405160405180910390a45050565b6060600061122e836002611a9c565b611239906002611a84565b67ffffffffffffffff81111561125f57634e487b7160e01b600052604160045260246000fd5b6040519080825280601f01601f191660200182016040528015611289576020820181803683370190505b509050600360fc1b816000815181106112b257634e487b7160e01b600052603260045260246000fd5b60200101906001600160f81b031916908160001a905350600f60fb1b816001815181106112ef57634e487b7160e01b600052603260045260246000fd5b60200101906001600160f81b031916908160001a9053506000611313846002611a9c565b61131e906001611a84565b90505b60018111156113bf577f303132333435363738396162636465660000000000000000000000000000000085600f166010811061136d57634e487b7160e01b600052603260045260246000fd5b1a60f81b82828151811061139157634e487b7160e01b600052603260045260246000fd5b60200101906001600160f81b031916908160001a90535060049490941c936113b881611aeb565b9050611321565b5083156113de5760405162461bcd60e51b815260040161065190611804565b9392505050565b8280546113f190611b02565b90600052602060002090601f0160209004810192826114135760008555611459565b82601f1061142c5782800160ff19823516178555611459565b82800160010185558215611459579182015b8281111561145957823582559160200191906001019061143e565b50611465929150611469565b5090565b5b80821115611465576000815560010161146a565b80356001600160a01b03811681146105b257600080fd5b6000602082840312156114a6578081fd5b6113de8261147e565b6000806000606084860312156114c3578182fd5b6114cc8461147e565b92506114da6020850161147e565b9150604084013590509250925092565b600080604083850312156114fc578182fd5b6115058361147e565b9150602083013560ff8116811461151a578182fd5b809150509250929050565b600060208284031215611536578081fd5b81356113de81611b53565b600060208284031215611552578081fd5b81516113de81611b53565b60006020828403121561156e578081fd5b5035919050565b60008060408385031215611587578182fd5b823591506115976020840161147e565b90509250929050565b6000602082840312156115b1578081fd5b81356001600160e01b0319811681146113de578182fd5b600080602083850312156115da578182fd5b823567ffffffffffffffff808211156115f1578384fd5b818501915085601f830112611604578384fd5b813581811115611612578485fd5b866020828501011115611623578485fd5b60209290920196919550909350505050565b600060208284031215611646578081fd5b81356fffffffffffffffffffffffffffffffff811681146113de578182fd5b90565b60007f416363657373436f6e74726f6c3a206163636f756e7420000000000000000000825283516116a0816017850160208801611abb565b7f206973206d697373696e6720726f6c652000000000000000000000000000000060179184019182015283516116dd816028840160208801611abb565b01602801949350505050565b918252602082015260400190565b6001600160a01b0391909116815260200190565b6001600160a01b039384168152919092166020820152604081019190915260600190565b6001600160a01b03929092168252602082015260400190565b6020808252825182820181905260009190848201906040850190845b818110156117895783516001600160a01b031683529284019291840191600101611764565b50909695505050505050565b901515815260200190565b90815260200190565b60208101600883106117cb57634e487b7160e01b600052602160045260246000fd5b91905290565b60006020825282518060208401526117f0816040850160208701611abb565b601f01601f19169190910160400192915050565b6020808252818101527f537472696e67733a20686578206c656e67746820696e73756666696369656e74604082015260600190565b60208082526038908201527f50726f746f636f6c436f6e74726f6c3a2070726f76696465722066656520636160408201527f6e6e6f742062652067726561746572207468616e203130250000000000000000606082015260800190565b6020808252603f908201527f50726f746f636f6c3a204f6e6c792070726f746f636f6c2070726f766964657260408201527f2061646d696e732063616e2063616c6c20746869732066756e6374696f6e2e00606082015260800190565b60208082526036908201527f50726f746f636f6c3a204f6e6c792070726f746f636f6c2061646d696e73206360408201527f616e2063616c6c20746869732066756e6374696f6e2e00000000000000000000606082015260800190565b60208082526036908201527f50726f746f636f6c436f6e74726f6c3a2061206d6f64756c652077697468207460408201527f68697320494420646f6573206e6f742065786973742e00000000000000000000606082015260800190565b60208082526034908201527f50726f746f636f6c20436f6e74726f6c3a206661696c656420746f207472616e60408201527f736665722070726f746f636f6c2066756e64732e000000000000000000000000606082015260800190565b6020808252602f908201527f416363657373436f6e74726f6c3a2063616e206f6e6c792072656e6f756e636560408201527f20726f6c657320666f722073656c660000000000000000000000000000000000606082015260800190565b6fffffffffffffffffffffffffffffffff91909116815260200190565b60008219821115611a9757611a97611b3d565b500190565b6000816000190483118215151615611ab657611ab6611b3d565b500290565b60005b83811015611ad6578181015183820152602001611abe565b83811115611ae5576000848401525b50505050565b600081611afa57611afa611b3d565b506000190190565b600281046001821680611b1657607f821691505b60208210811415611b3757634e487b7160e01b600052602260045260246000fd5b50919050565b634e487b7160e01b600052601160045260246000fd5b8015158114611b6157600080fd5b5056fea164736f6c6343000800000af20dc52d9f915492d8534c2045a2e74047b4a9fcc12dbd73812d6a9a24a6da410245b6cbab6b03e029f6c88bff9595f9f5c30170f52598c3459ee71476ad59c1a164736f6c6343000800000a61012060405234801561001157600080fd5b50604080518082018252600f81526e23a9a73b19102337b93bb0b93232b960891b602080830191825283518085019094526005845264302e302e3160d81b908401528151902060c08190527fae209a0b48f21c054280f2455d32cf309387644879d9acbd8ffc19916381188560e08190524660a0529192917f8b73c3c69bb8fe3d512ecc4cf759cc79239f7b179b0ffacaa9a75d522b39400f6100b58184846100c6565b608052610100525061012c92505050565b600083838346306040516020016100e1959493929190610100565b6040516020818303038152906040528051906020012090509392505050565b9485526020850193909352604084019190915260608301526001600160a01b0316608082015260a00190565b60805160a05160c05160e05161010051610be461017060003960006104220152600061046401526000610443015260006103d0015260006103f90152610be46000f3fe6080604052600436106100345760003560e01c80632d0335ab1461003957806347153f821461006f578063bf5d3bdb14610090575b600080fd5b34801561004557600080fd5b506100596100543660046107c3565b6100bd565b6040516100669190610b15565b60405180910390f35b61008261007d3660046107f1565b6100d8565b604051610066929190610904565b34801561009c57600080fd5b506100b06100ab3660046107f1565b61023e565b60405161006691906108f9565b6001600160a01b031660009081526020819052604090205490565b600060606100e785858561023e565b61010c5760405162461bcd60e51b8152600401610103906109fd565b60405180910390fd5b61011b60808601356001610b63565b60008061012b60208901896107c3565b6001600160a01b03166001600160a01b031681526020019081526020016000208190555060008086602001602081019061016591906107c3565b6001600160a01b03166060880135604089013561018560a08b018b610b1e565b61019260208d018d6107c3565b6040516020016101a493929190610899565b60408051601f19818403018152908290526101be916108c2565b600060405180830381858888f193505050503d80600081146101fc576040519150601f19603f3d011682016040523d82523d6000602084013e610201565b606091505b509092509050610216603f6060890135610b87565b5a1161023257634e487b7160e01b600052600160045260246000fd5b90969095509350505050565b60008061032484848080601f01602080910402602001604051908101604052809392919081815260200183838082843760009201919091525061031e92507fdd8f4b70b0f4393e889bd39128a30628a78b61816a9eb8199759e7a349657e4891506102ae905060208a018a6107c3565b6102be60408b0160208c016107c3565b60408b013560608c013560808d01356102da60a08f018f610b1e565b6040516102e8929190610889565b60405190819003812061030397969594939291602001610940565b6040516020818303038152906040528051906020012061038f565b906103a8565b9050608085013560008061033b60208901896107c3565b6001600160a01b03166001600160a01b0316815260200190815260200160002054148015610386575061037160208601866107c3565b6001600160a01b0316816001600160a01b0316145b95945050505050565b60006103a261039c6103cc565b8361048e565b92915050565b60008060006103b785856104c1565b915091506103c481610531565b509392505050565b60007f000000000000000000000000000000000000000000000000000000000000000046141561041d57507f000000000000000000000000000000000000000000000000000000000000000061048b565b6104887f00000000000000000000000000000000000000000000000000000000000000007f00000000000000000000000000000000000000000000000000000000000000007f0000000000000000000000000000000000000000000000000000000000000000610661565b90505b90565b600082826040516020016104a39291906108de565b60405160208183030381529060405280519060200120905092915050565b6000808251604114156104f85760208301516040840151606085015160001a6104ec8782858561069b565b9450945050505061052a565b825160401415610522576020830151604084015161051786838361077b565b93509350505061052a565b506000905060025b9250929050565b600081600481111561055357634e487b7160e01b600052602160045260246000fd5b141561055e5761065e565b600181600481111561058057634e487b7160e01b600052602160045260246000fd5b141561059e5760405162461bcd60e51b8152600401610103906109c6565b60028160048111156105c057634e487b7160e01b600052602160045260246000fd5b14156105de5760405162461bcd60e51b815260040161010390610a5a565b600381600481111561060057634e487b7160e01b600052602160045260246000fd5b141561061e5760405162461bcd60e51b815260040161010390610a91565b600481600481111561064057634e487b7160e01b600052602160045260246000fd5b141561065e5760405162461bcd60e51b815260040161010390610ad3565b50565b6000838383463060405160200161067c95949392919061097c565b6040516020818303038152906040528051906020012090509392505050565b6000807f7fffffffffffffffffffffffffffffff5d576e7357a4501ddfe92f46681b20a08311156106d25750600090506003610772565b8460ff16601b141580156106ea57508460ff16601c14155b156106fb5750600090506004610772565b60006001878787876040516000815260200160405260405161072094939291906109a8565b6020604051602081039080840390855afa158015610742573d6000803e3d6000fd5b5050604051601f1901519150506001600160a01b03811661076b57600060019250925050610772565b9150600090505b94509492505050565b6000807f7fffffffffffffffffffffffffffffffffffffffffffffffffffffffffffffff831660ff84901c601b016107b58782888561069b565b935093505050935093915050565b6000602082840312156107d4578081fd5b81356001600160a01b03811681146107ea578182fd5b9392505050565b600080600060408486031215610805578182fd5b833567ffffffffffffffff8082111561081c578384fd5b9085019060c0828803121561082f578384fd5b90935060208501359080821115610844578384fd5b818601915086601f830112610857578384fd5b813581811115610865578485fd5b876020828501011115610876578485fd5b6020830194508093505050509250925092565b6000828483379101908152919050565b6000838583375060609190911b6bffffffffffffffffffffffff19169101908152601401919050565b600082516108d4818460208701610ba7565b9190910192915050565b61190160f01b81526002810192909252602282015260420190565b901515815260200190565b6000831515825260406020830152825180604084015261092b816060850160208701610ba7565b601f01601f1916919091016060019392505050565b9687526001600160a01b0395861660208801529390941660408601526060850191909152608084015260a083019190915260c082015260e00190565b9485526020850193909352604084019190915260608301526001600160a01b0316608082015260a00190565b93845260ff9290921660208401526040830152606082015260800190565b60208082526018908201527f45434453413a20696e76616c6964207369676e61747572650000000000000000604082015260600190565b60208082526032908201527f4d696e696d616c466f727761726465723a207369676e617475726520646f657360408201527f206e6f74206d6174636820726571756573740000000000000000000000000000606082015260800190565b6020808252601f908201527f45434453413a20696e76616c6964207369676e6174757265206c656e67746800604082015260600190565b60208082526022908201527f45434453413a20696e76616c6964207369676e6174757265202773272076616c604082015261756560f01b606082015260800190565b60208082526022908201527f45434453413a20696e76616c6964207369676e6174757265202776272076616c604082015261756560f01b606082015260800190565b90815260200190565b6000808335601e19843603018112610b34578283fd5b83018035915067ffffffffffffffff821115610b4e578283fd5b60200191503681900382131561052a57600080fd5b60008219821115610b8257634e487b7160e01b81526011600452602481fd5b500190565b600082610ba257634e487b7160e01b81526012600452602481fd5b500490565b60005b83811015610bc2578181015183820152602001610baa565b83811115610bd1576000848401525b5050505056fea164736f6c6343000800000a",
  "linkReferences": {},
  "deployedLinkReferences": {}
}