{
  "_format": "hh-sol-artifact-1",
  "contractName": "Registry",
  "sourceName": "contracts/Registry.sol",
  "abi": [
    {
      "inputs": [
        {
          "internalType": "address",
          "name": "_treasury",
          "type": "address"
        },
        {
          "internalType": "address",
          "name": "_forwarder",
          "type": "address"
        },
        {
          "internalType": "address",
          "name": "_deployer",
          "type": "address"
        }
      ],
      "stateMutability": "nonpayable",
      "type": "constructor"
    },
    {
      "anonymous": false,
      "inputs": [
        {
          "indexed": false,
          "internalType": "uint256",
          "name": "defaultFeeBps",
          "type": "uint256"
        }
      ],
      "name": "DefaultFeeBpsUpdated",
      "type": "event"
    },
    {
      "anonymous": false,
      "inputs": [
        {
          "indexed": false,
          "internalType": "address",
          "name": "newDeployer",
          "type": "address"
        }
      ],
      "name": "DeployerUpdated",
      "type": "event"
    },
    {
      "anonymous": false,
      "inputs": [
        {
          "indexed": true,
          "internalType": "address",
          "name": "previousOwner",
          "type": "address"
        },
        {
          "indexed": true,
          "internalType": "address",
          "name": "newOwner",
          "type": "address"
        }
      ],
      "name": "OwnershipTransferred",
      "type": "event"
    },
    {
      "anonymous": false,
      "inputs": [
        {
          "indexed": true,
          "internalType": "address",
          "name": "control",
          "type": "address"
        },
        {
          "indexed": false,
          "internalType": "uint256",
          "name": "feeBps",
          "type": "uint256"
        }
      ],
      "name": "ProtocolControlFeeBpsUpdated",
      "type": "event"
    },
    {
      "anonymous": false,
      "inputs": [
        {
          "indexed": false,
          "internalType": "address",
          "name": "newTreasury",
          "type": "address"
        }
      ],
      "name": "TreasuryUpdated",
      "type": "event"
    },
    {
      "inputs": [],
      "name": "MAX_PROVIDER_FEE_BPS",
      "outputs": [
        {
          "internalType": "uint256",
          "name": "",
          "type": "uint256"
        }
      ],
      "stateMutability": "view",
      "type": "function"
    },
    {
      "inputs": [],
      "name": "defaultFeeBps",
      "outputs": [
        {
          "internalType": "uint256",
          "name": "",
          "type": "uint256"
        }
      ],
      "stateMutability": "view",
      "type": "function"
    },
    {
      "inputs": [
        {
          "internalType": "string",
          "name": "uri",
          "type": "string"
        }
      ],
      "name": "deployProtocol",
      "outputs": [],
      "stateMutability": "nonpayable",
      "type": "function"
    },
    {
      "inputs": [],
      "name": "deployer",
      "outputs": [
        {
          "internalType": "contract IControlDeployer",
          "name": "",
          "type": "address"
        }
      ],
      "stateMutability": "view",
      "type": "function"
    },
    {
      "inputs": [],
      "name": "forwarder",
      "outputs": [
        {
          "internalType": "address",
          "name": "",
          "type": "address"
        }
      ],
      "stateMutability": "view",
      "type": "function"
    },
    {
      "inputs": [
        {
          "internalType": "address",
          "name": "protocolControl",
          "type": "address"
        }
      ],
      "name": "getFeeBps",
      "outputs": [
        {
          "internalType": "uint256",
          "name": "",
          "type": "uint256"
        }
      ],
      "stateMutability": "view",
      "type": "function"
    },
    {
      "inputs": [
        {
          "internalType": "address",
          "name": "_deployer",
          "type": "address"
        },
        {
          "internalType": "uint256",
          "name": "index",
          "type": "uint256"
        }
      ],
      "name": "getProtocolControl",
      "outputs": [
        {
          "internalType": "address",
          "name": "",
          "type": "address"
        }
      ],
      "stateMutability": "view",
      "type": "function"
    },
    {
      "inputs": [
        {
          "internalType": "address",
          "name": "_deployer",
          "type": "address"
        }
      ],
      "name": "getProtocolControlCount",
      "outputs": [
        {
          "internalType": "uint256",
          "name": "",
          "type": "uint256"
        }
      ],
      "stateMutability": "view",
      "type": "function"
    },
    {
      "inputs": [],
      "name": "owner",
      "outputs": [
        {
          "internalType": "address",
          "name": "",
          "type": "address"
        }
      ],
      "stateMutability": "view",
      "type": "function"
    },
    {
      "inputs": [],
      "name": "renounceOwnership",
      "outputs": [],
      "stateMutability": "nonpayable",
      "type": "function"
    },
    {
      "inputs": [
        {
          "internalType": "uint256",
          "name": "_newFeeBps",
          "type": "uint256"
        }
      ],
      "name": "setDefaultFeeBps",
      "outputs": [],
      "stateMutability": "nonpayable",
      "type": "function"
    },
    {
      "inputs": [
        {
          "internalType": "address",
          "name": "_newDeployer",
          "type": "address"
        }
      ],
      "name": "setDeployer",
      "outputs": [],
      "stateMutability": "nonpayable",
      "type": "function"
    },
    {
      "inputs": [
        {
          "internalType": "address",
          "name": "protocolControl",
          "type": "address"
        },
        {
          "internalType": "uint256",
          "name": "_newFeeBps",
          "type": "uint256"
        }
      ],
      "name": "setProtocolControlFeeBps",
      "outputs": [],
      "stateMutability": "nonpayable",
      "type": "function"
    },
    {
      "inputs": [
        {
          "internalType": "address",
          "name": "_newTreasury",
          "type": "address"
        }
      ],
      "name": "setTreasury",
      "outputs": [],
      "stateMutability": "nonpayable",
      "type": "function"
    },
    {
      "inputs": [
        {
          "internalType": "address",
          "name": "newOwner",
          "type": "address"
        }
      ],
      "name": "transferOwnership",
      "outputs": [],
      "stateMutability": "nonpayable",
      "type": "function"
    },
    {
      "inputs": [],
      "name": "treasury",
      "outputs": [
        {
          "internalType": "address",
          "name": "",
          "type": "address"
        }
      ],
      "stateMutability": "view",
      "type": "function"
    }
  ],
  "bytecode": "0x60806040526101f460015534801561001657600080fd5b50604051610bad380380610bad833981016040819052610035916100f7565b610045610040610087565b61008b565b600380546001600160a01b039485166001600160a01b031991821617909155600480549385169382169390931790925560058054919093169116179055610139565b3390565b600080546001600160a01b038381166001600160a01b0319831681178455604051919092169283917f8be0079c531659141344cd1fd0a4f28419497f9722a3daafe3b4186f6b6457e09190a35050565b80516001600160a01b03811681146100f257600080fd5b919050565b60008060006060848603121561010b578283fd5b610114846100db565b9250610122602085016100db565b9150610130604085016100db565b90509250925092565b610a65806101486000396000f3fe608060405234801561001057600080fd5b50600436106101005760003560e01c8063bcae25a411610097578063dc62163e11610066578063dc62163e146101cc578063f0f44260146101df578063f2fde38b146101f2578063f645d4f91461020557610100565b8063bcae25a414610196578063cd7e89b11461019e578063d566464b146101b1578063d5f39488146101c457610100565b806373c6f378116100d357806373c6f378146101555780637c160011146101685780638da5cb5b1461017b578063962147351461018357610100565b80634373a286146101055780635cd423151461011a57806361d027b314610138578063715018a61461014d575b600080fd5b610118610113366004610891565b61020d565b005b6101226102b7565b60405161012f9190610995565b60405180910390f35b6101406102bd565b60405161012f91906108a9565b6101186102cc565b610122610163366004610786565b610317565b6101186101763660046107c5565b610347565b6101406103ff565b610118610191366004610786565b61040e565b610122610498565b6101226101ac366004610786565b61049e565b6101186101bf3660046107f0565b6104b9565b6101406105a1565b6101406101da3660046107c5565b6105b0565b6101186101ed366004610786565b6105dc565b610118610200366004610786565b610666565b6101406106d7565b6102156106e6565b6001600160a01b03166102266103ff565b6001600160a01b0316146102555760405162461bcd60e51b815260040161024c90610903565b60405180910390fd5b6103e88111156102775760405162461bcd60e51b815260040161024c90610938565b60018190556040517faf07358220f107097f5c9bc5cacec9de23c6bd67d61633e5abaa3aa698d94fcf906102ac908390610995565b60405180910390a150565b6103e881565b6003546001600160a01b031681565b6102d46106e6565b6001600160a01b03166102e56103ff565b6001600160a01b03161461030b5760405162461bcd60e51b815260040161024c90610903565b61031560006106ea565b565b6001600160a01b0381166000908152600760205260408120548061033f575050600154610342565b90505b919050565b61034f6106e6565b6001600160a01b03166103606103ff565b6001600160a01b0316146103865760405162461bcd60e51b815260040161024c90610903565b6103e88111156103a85760405162461bcd60e51b815260040161024c90610938565b6001600160a01b03821660008181526007602052604090819020839055517f3f3f5381919d082b3f6431a55b5affd99c52c10d6b16a850a6c75377c17285a7906103f3908490610995565b60405180910390a25050565b6000546001600160a01b031690565b6104166106e6565b6001600160a01b03166104276103ff565b6001600160a01b03161461044d5760405162461bcd60e51b815260040161024c90610903565b600580546001600160a01b0319166001600160a01b0383161790556040517f6db6dcdd05f1728263d8f644adcb07da9d18505aa9b2e33360b2715a878a711e906102ac9083906108a9565b60015481565b6001600160a01b031660009081526006602052604090205490565b60006104c36106e6565b905060006104d08261073a565b60055460405163ca282cb360e01b81529192506000916001600160a01b039091169063ca282cb39061050a9085908790899060040161099e565b602060405180830381600087803b15801561052457600080fd5b505af1158015610538573d6000803e3d6000fd5b505050506040513d601f19601f8201168201806040525081019061055c91906107a9565b6001600160a01b039384166000908152600660209081526040808320958352600190950190529290922080546001600160a01b03191692909316919091179091555050565b6005546001600160a01b031681565b6001600160a01b0391821660009081526006602090815260408083209383526001909301905220541690565b6105e46106e6565b6001600160a01b03166105f56103ff565b6001600160a01b03161461061b5760405162461bcd60e51b815260040161024c90610903565b600380546001600160a01b0319166001600160a01b0383161790556040517f7dae230f18360d76a040c81f050aa14eb9d6dc7901b20fc5d855e2a20fe814d1906102ac9083906108a9565b61066e6106e6565b6001600160a01b031661067f6103ff565b6001600160a01b0316146106a55760405162461bcd60e51b815260040161024c90610903565b6001600160a01b0381166106cb5760405162461bcd60e51b815260040161024c906108bd565b6106d4816106ea565b50565b6004546001600160a01b031681565b3390565b600080546001600160a01b038381166001600160a01b0319831681178455604051919092169283917f8be0079c531659141344cd1fd0a4f28419497f9722a3daafe3b4186f6b6457e09190a35050565b6001600160a01b03811660009081526006602052604081208054600191908390610765908490610a09565b9091555050506001600160a01b031660009081526006602052604090205490565b600060208284031215610797578081fd5b81356107a281610a43565b9392505050565b6000602082840312156107ba578081fd5b81516107a281610a43565b600080604083850312156107d7578081fd5b82356107e281610a43565b946020939093013593505050565b60006020808385031215610802578182fd5b823567ffffffffffffffff80821115610819578384fd5b818501915085601f83011261082c578384fd5b81358181111561083e5761083e610a2d565b604051601f8201601f191681018501838111828210171561086157610861610a2d565b6040528181528382018501881015610877578586fd5b818585018683013790810190930193909352509392505050565b6000602082840312156108a2578081fd5b5035919050565b6001600160a01b0391909116815260200190565b60208082526026908201527f4f776e61626c653a206e6577206f776e657220697320746865207a65726f206160408201526564647265737360d01b606082015260800190565b6020808252818101527f4f776e61626c653a2063616c6c6572206973206e6f7420746865206f776e6572604082015260600190565b60208082526031908201527f52656769737472793a2070726f7669646572206665652063616e6e6f7420626560408201527f2067726561746572207468616e20313025000000000000000000000000000000606082015260800190565b90815260200190565b600084825260206001600160a01b03851681840152606060408401528351806060850152825b818110156109e0578581018301518582016080015282016109c4565b818111156109f15783608083870101525b50601f01601f19169290920160800195945050505050565b60008219821115610a2857634e487b7160e01b81526011600452602481fd5b500190565b634e487b7160e01b600052604160045260246000fd5b6001600160a01b03811681146106d457600080fdfea164736f6c6343000800000a",
  "linkReferences": {},
  "deployedLinkReferences": {}
}