{
  "_format": "hh-sol-artifact-1",
  "contractName": "Registry",
  "sourceName": "contracts/Registry.sol",
  "abi": [
    {
      "inputs": [
        {
          "internalType": "address",
          "name": "_nftlabs",
          "type": "address"
        }
      ],
      "stateMutability": "nonpayable",
      "type": "constructor"
    },
    {
      "anonymous": false,
      "inputs": [
        {
          "indexed": true,
          "internalType": "address",
          "name": "deployer",
          "type": "address"
        },
        {
          "indexed": true,
          "internalType": "address",
          "name": "protocolControl",
          "type": "address"
        },
        {
          "indexed": true,
          "internalType": "address",
          "name": "forwarder",
          "type": "address"
        },
        {
          "indexed": false,
          "internalType": "uint256",
          "name": "version",
          "type": "uint256"
        }
      ],
      "name": "DeployedProtocol",
      "type": "event"
    },
    {
      "anonymous": false,
      "inputs": [
        {
          "indexed": true,
          "internalType": "address",
          "name": "previousOwner",
          "type": "address"
        },
        {
          "indexed": true,
          "internalType": "address",
          "name": "newOwner",
          "type": "address"
        }
      ],
      "name": "OwnershipTransferred",
      "type": "event"
    },
    {
      "inputs": [
        {
          "internalType": "address",
          "name": "",
          "type": "address"
        }
      ],
      "name": "controlCenters",
      "outputs": [
        {
          "internalType": "uint256",
          "name": "latestVersion",
          "type": "uint256"
        }
      ],
      "stateMutability": "view",
      "type": "function"
    },
    {
      "inputs": [],
      "name": "deployProtocol",
      "outputs": [],
      "stateMutability": "nonpayable",
      "type": "function"
    },
    {
      "inputs": [
        {
          "internalType": "address",
          "name": "",
          "type": "address"
        }
      ],
      "name": "forwarder",
      "outputs": [
        {
          "internalType": "address",
          "name": "",
          "type": "address"
        }
      ],
      "stateMutability": "view",
      "type": "function"
    },
    {
      "inputs": [
        {
          "internalType": "address",
          "name": "_protocolDeployer",
          "type": "address"
        }
      ],
      "name": "getLatestVersion",
      "outputs": [
        {
          "internalType": "uint256",
          "name": "",
          "type": "uint256"
        }
      ],
      "stateMutability": "view",
      "type": "function"
    },
    {
      "inputs": [
        {
          "internalType": "address",
          "name": "_protocolDeployer",
          "type": "address"
        },
        {
          "internalType": "uint256",
          "name": "_version",
          "type": "uint256"
        }
      ],
      "name": "getProtocolControl",
      "outputs": [
        {
          "internalType": "address",
          "name": "",
          "type": "address"
        }
      ],
      "stateMutability": "view",
      "type": "function"
    },
    {
      "inputs": [],
      "name": "nftlabsTreasury",
      "outputs": [
        {
          "internalType": "address",
          "name": "",
          "type": "address"
        }
      ],
      "stateMutability": "view",
      "type": "function"
    },
    {
      "inputs": [],
      "name": "owner",
      "outputs": [
        {
          "internalType": "address",
          "name": "",
          "type": "address"
        }
      ],
      "stateMutability": "view",
      "type": "function"
    },
    {
      "inputs": [],
      "name": "renounceOwnership",
      "outputs": [],
      "stateMutability": "nonpayable",
      "type": "function"
    },
    {
      "inputs": [
        {
          "internalType": "address",
          "name": "newOwner",
          "type": "address"
        }
      ],
      "name": "transferOwnership",
      "outputs": [],
      "stateMutability": "nonpayable",
      "type": "function"
    }
  ],
  "bytecode": "0x608060405234801561001057600080fd5b50604051612df4380380612df483398101604081905261002f916100b8565b61003f61003a610064565b610068565b600180546001600160a01b0319166001600160a01b03929092169190911790556100e6565b3390565b600080546001600160a01b038381166001600160a01b0319831681178455604051919092169283917f8be0079c531659141344cd1fd0a4f28419497f9722a3daafe3b4186f6b6457e09190a35050565b6000602082840312156100c9578081fd5b81516001600160a01b03811681146100df578182fd5b9392505050565b612cff806100f56000396000f3fe60806040523480156200001157600080fd5b5060043610620000b25760003560e01c80638da5cb5b1162000081578063966299561162000063578063966299561462000136578063dc62163e146200014d578063f2fde38b146200016457620000b2565b80638da5cb5b14620001135780639494995b146200012c57620000b2565b806350abe91014620000b75780636872e47814620000e6578063715018a614620000f25780638606096d14620000fc575b600080fd5b620000ce620000c836600462000636565b6200017b565b604051620000dd91906200086c565b60405180910390f35b620000f06200019a565b005b620000f0620003cd565b620000ce6200010d36600462000636565b6200042a565b6200011d6200043c565b604051620000dd919062000709565b6200011d6200044b565b6200011d6200014736600462000636565b6200045a565b6200011d6200015e3660046200065a565b62000475565b620000f06200017536600462000636565b620004a1565b6001600160a01b0381166000908152600260205260409020545b919050565b60004333604051602001620001b1929190620006e9565b60408051601f19818403018152918152815160209283012033600090815260039093529120549091506001600160a01b0316806200027c57600060405180602001620001fd9062000602565b601f1982820381018352601f909101166040819052620002219190602001620006c2565b6040516020818303038152906040529050600062000242600085846200051e565b336000908152600360205260409020805473ffffffffffffffffffffffffffffffffffffffff19166001600160a01b038316179055925050505b600060405180602001620002909062000610565b601f1982820381018352601f909101166040819052600154620002c29133916001600160a01b0316906020016200071d565b60408051601f1981840301815290829052620002e29291602001620006d0565b6040516020818303038152906040529050600062000303600085846200051e565b336000818152600260208181526040808420805480865260018083018552928620805473ffffffffffffffffffffffffffffffffffffffff19166001600160a01b038a1617905595855292909152815494955092939091906200036890849062000875565b92505081905550836001600160a01b0316826001600160a01b0316336001600160a01b03167f90b70c91c65edfac8513d525e530162eb7b802c568fe914fb2a385473a044d2184604051620003be91906200086c565b60405180910390a45050505050565b620003d7620005a1565b6001600160a01b0316620003ea6200043c565b6001600160a01b0316146200041c5760405162461bcd60e51b8152600401620004139062000800565b60405180910390fd5b620004286000620005a5565b565b60026020526000908152604090205481565b6000546001600160a01b031690565b6001546001600160a01b031681565b6003602052600090815260409020546001600160a01b031681565b6001600160a01b0391821660009081526002602090815260408083209383526001909301905220541690565b620004ab620005a1565b6001600160a01b0316620004be6200043c565b6001600160a01b031614620004e75760405162461bcd60e51b8152600401620004139062000800565b6001600160a01b038116620005105760405162461bcd60e51b815260040162000413906200076c565b6200051b81620005a5565b50565b60008084471015620005445760405162461bcd60e51b8152600401620004139062000835565b8251620005655760405162461bcd60e51b8152600401620004139062000737565b8383516020850187f590506001600160a01b038116620005995760405162461bcd60e51b81526004016200041390620007c9565b949350505050565b3390565b600080546001600160a01b0383811673ffffffffffffffffffffffffffffffffffffffff19831681178455604051919092169283917f8be0079c531659141344cd1fd0a4f28419497f9722a3daafe3b4186f6b6457e09190a35050565b610d54806200089b83390190565b61170480620015ef83390190565b80356001600160a01b03811681146200019557600080fd5b60006020828403121562000648578081fd5b62000653826200061e565b9392505050565b600080604083850312156200066d578081fd5b62000678836200061e565b946020939093013593505050565b60008151815b81811015620006a857602081850181015186830152016200068c565b81811115620006b75782828601525b509290920192915050565b600062000653828462000686565b600062000599620006e2838662000686565b8462000686565b91825260601b6bffffffffffffffffffffffff1916602082015260340190565b6001600160a01b0391909116815260200190565b6001600160a01b0392831681529116602082015260400190565b6020808252818101527f437265617465323a2062797465636f6465206c656e677468206973207a65726f604082015260600190565b60208082526026908201527f4f776e61626c653a206e6577206f776e657220697320746865207a65726f206160408201527f6464726573730000000000000000000000000000000000000000000000000000606082015260800190565b60208082526019908201527f437265617465323a204661696c6564206f6e206465706c6f7900000000000000604082015260600190565b6020808252818101527f4f776e61626c653a2063616c6c6572206973206e6f7420746865206f776e6572604082015260600190565b6020808252601d908201527f437265617465323a20696e73756666696369656e742062616c616e6365000000604082015260600190565b90815260200190565b600082198211156200089557634e487b7160e01b81526011600452602481fd5b50019056fe61012060405234801561001157600080fd5b50604080518082018252600f81526e23a9a73b19102337b93bb0b93232b960891b602080830191825283518085019094526005845264302e302e3160d81b908401528151902060c08190527fae209a0b48f21c054280f2455d32cf309387644879d9acbd8ffc19916381188560e08190524660a0529192917f8b73c3c69bb8fe3d512ecc4cf759cc79239f7b179b0ffacaa9a75d522b39400f6100b58184846100c6565b608052610100525061012c92505050565b600083838346306040516020016100e1959493929190610100565b6040516020818303038152906040528051906020012090509392505050565b9485526020850193909352604084019190915260608301526001600160a01b0316608082015260a00190565b60805160a05160c05160e05161010051610be461017060003960006104220152600061046401526000610443015260006103d0015260006103f90152610be46000f3fe6080604052600436106100345760003560e01c80632d0335ab1461003957806347153f821461006f578063bf5d3bdb14610090575b600080fd5b34801561004557600080fd5b506100596100543660046107c3565b6100bd565b6040516100669190610b15565b60405180910390f35b61008261007d3660046107f1565b6100d8565b604051610066929190610904565b34801561009c57600080fd5b506100b06100ab3660046107f1565b61023e565b60405161006691906108f9565b6001600160a01b031660009081526020819052604090205490565b600060606100e785858561023e565b61010c5760405162461bcd60e51b8152600401610103906109fd565b60405180910390fd5b61011b60808601356001610b63565b60008061012b60208901896107c3565b6001600160a01b03166001600160a01b031681526020019081526020016000208190555060008086602001602081019061016591906107c3565b6001600160a01b03166060880135604089013561018560a08b018b610b1e565b61019260208d018d6107c3565b6040516020016101a493929190610899565b60408051601f19818403018152908290526101be916108c2565b600060405180830381858888f193505050503d80600081146101fc576040519150601f19603f3d011682016040523d82523d6000602084013e610201565b606091505b509092509050610216603f6060890135610b87565b5a1161023257634e487b7160e01b600052600160045260246000fd5b90969095509350505050565b60008061032484848080601f01602080910402602001604051908101604052809392919081815260200183838082843760009201919091525061031e92507fdd8f4b70b0f4393e889bd39128a30628a78b61816a9eb8199759e7a349657e4891506102ae905060208a018a6107c3565b6102be60408b0160208c016107c3565b60408b013560608c013560808d01356102da60a08f018f610b1e565b6040516102e8929190610889565b60405190819003812061030397969594939291602001610940565b6040516020818303038152906040528051906020012061038f565b906103a8565b9050608085013560008061033b60208901896107c3565b6001600160a01b03166001600160a01b0316815260200190815260200160002054148015610386575061037160208601866107c3565b6001600160a01b0316816001600160a01b0316145b95945050505050565b60006103a261039c6103cc565b8361048e565b92915050565b60008060006103b785856104c1565b915091506103c481610531565b509392505050565b60007f000000000000000000000000000000000000000000000000000000000000000046141561041d57507f000000000000000000000000000000000000000000000000000000000000000061048b565b6104887f00000000000000000000000000000000000000000000000000000000000000007f00000000000000000000000000000000000000000000000000000000000000007f0000000000000000000000000000000000000000000000000000000000000000610661565b90505b90565b600082826040516020016104a39291906108de565b60405160208183030381529060405280519060200120905092915050565b6000808251604114156104f85760208301516040840151606085015160001a6104ec8782858561069b565b9450945050505061052a565b825160401415610522576020830151604084015161051786838361077b565b93509350505061052a565b506000905060025b9250929050565b600081600481111561055357634e487b7160e01b600052602160045260246000fd5b141561055e5761065e565b600181600481111561058057634e487b7160e01b600052602160045260246000fd5b141561059e5760405162461bcd60e51b8152600401610103906109c6565b60028160048111156105c057634e487b7160e01b600052602160045260246000fd5b14156105de5760405162461bcd60e51b815260040161010390610a5a565b600381600481111561060057634e487b7160e01b600052602160045260246000fd5b141561061e5760405162461bcd60e51b815260040161010390610a91565b600481600481111561064057634e487b7160e01b600052602160045260246000fd5b141561065e5760405162461bcd60e51b815260040161010390610ad3565b50565b6000838383463060405160200161067c95949392919061097c565b6040516020818303038152906040528051906020012090509392505050565b6000807f7fffffffffffffffffffffffffffffff5d576e7357a4501ddfe92f46681b20a08311156106d25750600090506003610772565b8460ff16601b141580156106ea57508460ff16601c14155b156106fb5750600090506004610772565b60006001878787876040516000815260200160405260405161072094939291906109a8565b6020604051602081039080840390855afa158015610742573d6000803e3d6000fd5b5050604051601f1901519150506001600160a01b03811661076b57600060019250925050610772565b9150600090505b94509492505050565b6000807f7fffffffffffffffffffffffffffffffffffffffffffffffffffffffffffffff831660ff84901c601b016107b58782888561069b565b935093505050935093915050565b6000602082840312156107d4578081fd5b81356001600160a01b03811681146107ea578182fd5b9392505050565b600080600060408486031215610805578182fd5b833567ffffffffffffffff8082111561081c578384fd5b9085019060c0828803121561082f578384fd5b90935060208501359080821115610844578384fd5b818601915086601f830112610857578384fd5b813581811115610865578485fd5b876020828501011115610876578485fd5b6020830194508093505050509250925092565b6000828483379101908152919050565b6000838583375060609190911b6bffffffffffffffffffffffff19169101908152601401919050565b600082516108d4818460208701610ba7565b9190910192915050565b61190160f01b81526002810192909252602282015260420190565b901515815260200190565b6000831515825260406020830152825180604084015261092b816060850160208701610ba7565b601f01601f1916919091016060019392505050565b9687526001600160a01b0395861660208801529390941660408601526060850191909152608084015260a083019190915260c082015260e00190565b9485526020850193909352604084019190915260608301526001600160a01b0316608082015260a00190565b93845260ff9290921660208401526040830152606082015260800190565b60208082526018908201527f45434453413a20696e76616c6964207369676e61747572650000000000000000604082015260600190565b60208082526032908201527f4d696e696d616c466f727761726465723a207369676e617475726520646f657360408201527f206e6f74206d6174636820726571756573740000000000000000000000000000606082015260800190565b6020808252601f908201527f45434453413a20696e76616c6964207369676e6174757265206c656e67746800604082015260600190565b60208082526022908201527f45434453413a20696e76616c6964207369676e6174757265202773272076616c604082015261756560f01b606082015260800190565b60208082526022908201527f45434453413a20696e76616c6964207369676e6174757265202776272076616c604082015261756560f01b606082015260800190565b90815260200190565b6000808335601e19843603018112610b34578283fd5b83018035915067ffffffffffffffff821115610b4e578283fd5b60200191503681900382131561052a57600080fd5b60008219821115610b8257634e487b7160e01b81526011600452602481fd5b500190565b600082610ba257634e487b7160e01b81526012600452602481fd5b500490565b60005b83811015610bc2578181015183820152602001610baa565b83811115610bd1576000848401525b5050505056fea164736f6c6343000800000a60806040523480156200001157600080fd5b506040516200170438038062001704833981016040819052620000349162000214565b60018054610100600160a81b0319166101006001600160a01b038416021790556200006f600080516020620016c483398151915282620000c8565b6200008a600080516020620016e483398151915283620000c8565b620000a5600080516020620016e483398151915280620000d8565b620000c0600080516020620016c483398151915280620000d8565b50506200024b565b620000d482826200012d565b5050565b6000620000e583620001b7565b600084815260208190526040808220600101859055519192508391839186917fbd79b86ffe0ab8e8776151514217cd7cacd52c909f66475c3af44e129f0b00ff9190a4505050565b620001398282620001cf565b620000d4576000828152602081815260408083206001600160a01b03851684529091529020805460ff1916600117905562000173620001f8565b6001600160a01b0316816001600160a01b0316837f2f8788117e7eff1d82e926ec794901d17c78024a50270940304540a733656f0d60405160405180910390a45050565b6000818152602081905260409020600101545b919050565b6000918252602082815260408084206001600160a01b0393909316845291905290205460ff1690565b3390565b80516001600160a01b0381168114620001ca57600080fd5b6000806040838503121562000227578182fd5b6200023283620001fc565b91506200024260208401620001fc565b90509250929050565b611469806200025b6000396000f3fe608060405234801561001057600080fd5b506004361061018d5760003560e01c806394658d7e116100e3578063b0b6cc1a1161008c578063d547741f11610066578063d547741f14610316578063d8f38eec14610329578063fd967f47146103315761018d565b8063b0b6cc1a146102dd578063b51cdec4146102f0578063c097b1fb146103035761018d565b80639d2f83f0116100bd5780639d2f83f0146102ba578063a217fddf146102c2578063a8a10442146102ca5761018d565b806394658d7e1461028a5780639494995b1461029257806396362d32146102a75761018d565b806336568abe116101455780633f5c3e871161011f5780633f5c3e871461025c5780633fff7bf81461026457806391d14854146102775761018d565b806336568abe146102235780633af62755146102365780633de6d173146102495761018d565b806326de4d6b1161017657806326de4d6b146101db57806328aa9b40146101f05780632f2ff15d146102105761018d565b806301ffc9a714610192578063248a9ca3146101bb575b600080fd5b6101a56101a0366004610fff565b610339565b6040516101b2919061114b565b60405180910390f35b6101ce6101c9366004610fbc565b610366565b6040516101b291906110a8565b6101ee6101e9366004610eb3565b61037b565b005b6102036101fe366004610fbc565b610409565b6040516101b29190611156565b6101ee61021e366004610fd4565b61041e565b6101ee610231366004610fd4565b610447565b6101ee610244366004610f84565b61048d565b6101ee610257366004610ecd565b61051c565b6101ce6106d3565b6101ce610272366004610fbc565b6106d9565b6101a5610285366004610fd4565b6106eb565b6101ce610714565b61029a610738565b6040516101b291906110b1565b6101ce6102b5366004610f5b565b61074c565b6101a561085d565b6101ce610866565b6101ee6102d8366004610f20565b61086b565b61029a6102eb366004610fbc565b61098d565b6101ee6102fe366004610fbc565b6109a8565b6101ee610311366004610fd4565b610a23565b6101ee610324366004610fd4565b610b04565b6101ce610b23565b6101ce610b47565b60006001600160e01b03198216637965db0b60e01b148061035e575061035e82610b4d565b90505b919050565b60009081526020819052604090206001015490565b6103a57f1884995e9e21b948f653f9596094b17f12f1b114ed4ca397c21461be57c16fe8336106eb565b6103ca5760405162461bcd60e51b81526004016103c1906112a0565b60405180910390fd5b600180546001600160a01b03909216610100027fffffffffffffffffffffff0000000000000000000000000000000000000000ff909216919091179055565b60036020526000908152604090205460ff1681565b61042782610366565b61043881610433610b66565b610b6a565b6104428383610bce565b505050565b61044f610b66565b6001600160a01b0316816001600160a01b03161461047f5760405162461bcd60e51b81526004016103c19061135a565b6104898282610c53565b5050565b6104b77f0245b6cbab6b03e029f6c88bff9595f9f5c30170f52598c3459ee71476ad59c1336106eb565b6104d35760405162461bcd60e51b81526004016103c1906111e6565b6001805460ff19168215151790556040517f59617e84cd4a4d47c34c76f190da73d3a6a0236e0770dcba41851db53f336f579061051190839061114b565b60405180910390a150565b6105467f0245b6cbab6b03e029f6c88bff9595f9f5c30170f52598c3459ee71476ad59c1336106eb565b6105625760405162461bcd60e51b81526004016103c1906111e6565b600260005260046020527f91da3fd0782e51c6b3986e9e672fd566868e71f3dbc2d6c2cd6fbb3e361af2a7541580156105c45750600360005260046020527f2e174c10e159ea99b867ce3205125c24a42d128804e4070ed6fcc8cc98166aa054155b80156105f95750600160005260046020527fabd6e7cb50984ff9c2f3e18a2660c3353dadf4e3291deeb275dae2cd1e44fe0554155b801561062d57506000805260046020527f17ef568e3e12ab5b9c7254a8d58478811de00f9e6eb34345acd53bf8fd09d3ec54155b6106495760405162461bcd60e51b81526004016103c190611243565b60006106568360026102b5565b905060006106658360036102b5565b905060006106748660016102b5565b9050600061068288826102b5565b90507f4116146398ae59f9af661c3d1b65efc41789f2ba66c9c902219a0f2690b653ba868587868c878d886040516106c19897969594939291906110e9565b60405180910390a15050505050505050565b60055481565b60046020526000908152604090205481565b6000918252602082815260408084206001600160a01b0393909316845291905290205460ff1690565b7f0245b6cbab6b03e029f6c88bff9595f9f5c30170f52598c3459ee71476ad59c181565b60015461010090046001600160a01b031681565b60006107787f0245b6cbab6b03e029f6c88bff9595f9f5c30170f52598c3459ee71476ad59c1336106eb565b6107945760405162461bcd60e51b81526004016103c1906111e6565b6000828152600460209081526040918290205491516107b49291016110a8565b60405160208183030381529060405280519060200120905060016004600084815260200190815260200160002060008282546107f091906113b7565b9091555050600081815260026020526040808220805473ffffffffffffffffffffffffffffffffffffffff19166001600160a01b0387169081179091559051849284917f1d3dc09176e587732ef26b4edb7961028f2e33cce7ad22d62f07e6a5e26d8e649190a492915050565b60015460ff1681565b600081565b6108957f0245b6cbab6b03e029f6c88bff9595f9f5c30170f52598c3459ee71476ad59c1336106eb565b6108b15760405162461bcd60e51b81526004016103c1906111e6565b60405163a9059cbb60e01b81526001600160a01b0384169063a9059cbb906108df9085908590600401611132565b602060405180830381600087803b1580156108f957600080fd5b505af115801561090d573d6000803e3d6000fd5b505050506040513d601f19601f820116820180604052508101906109319190610fa0565b61094d5760405162461bcd60e51b81526004016103c1906112fd565b7f78e6250172d8e0a57d8d41f480f13581571a2d27bb2a93f5f7bd2511f5c22a6c838383604051610980939291906110c5565b60405180910390a1505050565b6002602052600090815260409020546001600160a01b031681565b6109d27f1884995e9e21b948f653f9596094b17f12f1b114ed4ca397c21461be57c16fe8336106eb565b6109ee5760405162461bcd60e51b81526004016103c1906112a0565b60058190556040517f1890faa36c0d3210e563b3b71281f08fdb6016a537f6664317d853bd2af52032906105119083906110a8565b610a4d7f0245b6cbab6b03e029f6c88bff9595f9f5c30170f52598c3459ee71476ad59c1336106eb565b610a695760405162461bcd60e51b81526004016103c1906111e6565b6000828152600260209081526040808320805473ffffffffffffffffffffffffffffffffffffffff19166001600160a01b038616179055600390915290205460ff166004811115610aca57634e487b7160e01b600052602160045260246000fd5b6040516001600160a01b0383169084907f1d3dc09176e587732ef26b4edb7961028f2e33cce7ad22d62f07e6a5e26d8e6490600090a45050565b610b0d82610366565b610b1981610433610b66565b6104428383610c53565b7f1884995e9e21b948f653f9596094b17f12f1b114ed4ca397c21461be57c16fe881565b61271081565b6001600160e01b031981166301ffc9a760e01b14919050565b3390565b610b7482826106eb565b61048957610b8c816001600160a01b03166014610cd6565b610b97836020610cd6565b604051602001610ba8929190611027565b60408051601f198184030181529082905262461bcd60e51b82526103c19160040161117e565b610bd882826106eb565b610489576000828152602081815260408083206001600160a01b03851684529091529020805460ff19166001179055610c0f610b66565b6001600160a01b0316816001600160a01b0316837f2f8788117e7eff1d82e926ec794901d17c78024a50270940304540a733656f0d60405160405180910390a45050565b610c5d82826106eb565b15610489576000828152602081815260408083206001600160a01b03851684529091529020805460ff19169055610c92610b66565b6001600160a01b0316816001600160a01b0316837ff6391f5c32d9c69d2a47ea670b442974b53935d1edc7fd64eb21e047a839171b60405160405180910390a45050565b60606000610ce58360026113cf565b610cf09060026113b7565b67ffffffffffffffff811115610d1657634e487b7160e01b600052604160045260246000fd5b6040519080825280601f01601f191660200182016040528015610d40576020820181803683370190505b509050600360fc1b81600081518110610d6957634e487b7160e01b600052603260045260246000fd5b60200101906001600160f81b031916908160001a905350600f60fb1b81600181518110610da657634e487b7160e01b600052603260045260246000fd5b60200101906001600160f81b031916908160001a9053506000610dca8460026113cf565b610dd59060016113b7565b90505b6001811115610e76577f303132333435363738396162636465660000000000000000000000000000000085600f1660108110610e2457634e487b7160e01b600052603260045260246000fd5b1a60f81b828281518110610e4857634e487b7160e01b600052603260045260246000fd5b60200101906001600160f81b031916908160001a90535060049490941c93610e6f8161141e565b9050610dd8565b508315610e955760405162461bcd60e51b81526004016103c1906111b1565b9392505050565b80356001600160a01b038116811461036157600080fd5b600060208284031215610ec4578081fd5b610e9582610e9c565b60008060008060808587031215610ee2578283fd5b610eeb85610e9c565b9350610ef960208601610e9c565b9250610f0760408601610e9c565b9150610f1560608601610e9c565b905092959194509250565b600080600060608486031215610f34578283fd5b610f3d84610e9c565b9250610f4b60208501610e9c565b9150604084013590509250925092565b60008060408385031215610f6d578182fd5b610f7683610e9c565b946020939093013593505050565b600060208284031215610f95578081fd5b8135610e958161144b565b600060208284031215610fb1578081fd5b8151610e958161144b565b600060208284031215610fcd578081fd5b5035919050565b60008060408385031215610fe6578182fd5b82359150610ff660208401610e9c565b90509250929050565b600060208284031215611010578081fd5b81356001600160e01b031981168114610e95578182fd5b60007f416363657373436f6e74726f6c3a206163636f756e74200000000000000000008252835161105f8160178501602088016113ee565b7f206973206d697373696e6720726f6c6520000000000000000000000000000000601791840191820152835161109c8160288401602088016113ee565b01602801949350505050565b90815260200190565b6001600160a01b0391909116815260200190565b6001600160a01b039384168152919092166020820152604081019190915260600190565b6001600160a01b039889168152602081019790975294871660408701526060860193909352908516608085015260a084015290921660c082015260e08101919091526101000190565b6001600160a01b03929092168252602082015260400190565b901515815260200190565b602081016005831061117857634e487b7160e01b600052602160045260246000fd5b91905290565b600060208252825180602084015261119d8160408501602087016113ee565b601f01601f19169190910160400192915050565b6020808252818101527f537472696e67733a20686578206c656e67746820696e73756666696369656e74604082015260600190565b60208082526036908201527f50726f746f636f6c3a204f6e6c792070726f746f636f6c2061646d696e73206360408201527f616e2063616c6c20746869732066756e6374696f6e2e00000000000000000000606082015260800190565b60208082526026908201527f50726f746f636f6c20436f6e74726f6c3a20616c726561647920696e6974696160408201527f6c697a65642e0000000000000000000000000000000000000000000000000000606082015260800190565b60208082526035908201527f50726f746f636f6c3a204f6e6c79204e46544c6162732061646d696e7320636160408201527f6e2063616c6c20746869732066756e6374696f6e2e0000000000000000000000606082015260800190565b60208082526034908201527f50726f746f636f6c20436f6e74726f6c3a206661696c656420746f207472616e60408201527f736665722070726f746f636f6c2066756e64732e000000000000000000000000606082015260800190565b6020808252602f908201527f416363657373436f6e74726f6c3a2063616e206f6e6c792072656e6f756e636560408201527f20726f6c657320666f722073656c660000000000000000000000000000000000606082015260800190565b600082198211156113ca576113ca611435565b500190565b60008160001904831182151516156113e9576113e9611435565b500290565b60005b838110156114095781810151838201526020016113f1565b83811115611418576000848401525b50505050565b60008161142d5761142d611435565b506000190190565b634e487b7160e01b600052601160045260246000fd5b801515811461145957600080fd5b5056fea164736f6c6343000800000a1884995e9e21b948f653f9596094b17f12f1b114ed4ca397c21461be57c16fe80245b6cbab6b03e029f6c88bff9595f9f5c30170f52598c3459ee71476ad59c1a164736f6c6343000800000a",
  "linkReferences": {},
  "deployedLinkReferences": {}
}