{
  "_format": "hh-sol-artifact-1",
  "contractName": "Registry",
  "sourceName": "contracts/Registry.sol",
  "abi": [
    {
      "inputs": [
        {
          "internalType": "address",
          "name": "_nftlabs",
          "type": "address"
        }
      ],
      "stateMutability": "nonpayable",
      "type": "constructor"
    },
    {
      "anonymous": false,
      "inputs": [
        {
          "indexed": false,
          "internalType": "address",
          "name": "forwarder",
          "type": "address"
        }
      ],
      "name": "DeployedForwarder",
      "type": "event"
    },
    {
      "anonymous": false,
      "inputs": [
        {
          "indexed": true,
          "internalType": "address",
          "name": "deployer",
          "type": "address"
        },
        {
          "indexed": true,
          "internalType": "address",
          "name": "protocolControl",
          "type": "address"
        },
        {
          "indexed": false,
          "internalType": "uint256",
          "name": "version",
          "type": "uint256"
        }
      ],
      "name": "DeployedProtocol",
      "type": "event"
    },
    {
      "anonymous": false,
      "inputs": [
        {
          "indexed": true,
          "internalType": "address",
          "name": "previousOwner",
          "type": "address"
        },
        {
          "indexed": true,
          "internalType": "address",
          "name": "newOwner",
          "type": "address"
        }
      ],
      "name": "OwnershipTransferred",
      "type": "event"
    },
    {
      "inputs": [
        {
          "internalType": "address",
          "name": "",
          "type": "address"
        }
      ],
      "name": "controlCenters",
      "outputs": [
        {
          "internalType": "uint256",
          "name": "latestVersion",
          "type": "uint256"
        }
      ],
      "stateMutability": "view",
      "type": "function"
    },
    {
      "inputs": [
        {
          "internalType": "string",
          "name": "_protocolControlURI",
          "type": "string"
        }
      ],
      "name": "deployProtocol",
      "outputs": [],
      "stateMutability": "nonpayable",
      "type": "function"
    },
    {
      "inputs": [],
      "name": "forwarder",
      "outputs": [
        {
          "internalType": "address",
          "name": "",
          "type": "address"
        }
      ],
      "stateMutability": "view",
      "type": "function"
    },
    {
      "inputs": [
        {
          "internalType": "address",
          "name": "_protocolDeployer",
          "type": "address"
        }
      ],
      "name": "getLatestVersion",
      "outputs": [
        {
          "internalType": "uint256",
          "name": "",
          "type": "uint256"
        }
      ],
      "stateMutability": "view",
      "type": "function"
    },
    {
      "inputs": [
        {
          "internalType": "address",
          "name": "_protocolDeployer",
          "type": "address"
        },
        {
          "internalType": "uint256",
          "name": "_version",
          "type": "uint256"
        }
      ],
      "name": "getProtocolControl",
      "outputs": [
        {
          "internalType": "address",
          "name": "",
          "type": "address"
        }
      ],
      "stateMutability": "view",
      "type": "function"
    },
    {
      "inputs": [],
      "name": "nftlabsTreasury",
      "outputs": [
        {
          "internalType": "address",
          "name": "",
          "type": "address"
        }
      ],
      "stateMutability": "view",
      "type": "function"
    },
    {
      "inputs": [],
      "name": "owner",
      "outputs": [
        {
          "internalType": "address",
          "name": "",
          "type": "address"
        }
      ],
      "stateMutability": "view",
      "type": "function"
    },
    {
      "inputs": [],
      "name": "renounceOwnership",
      "outputs": [],
      "stateMutability": "nonpayable",
      "type": "function"
    },
    {
      "inputs": [
        {
          "internalType": "address",
          "name": "newOwner",
          "type": "address"
        }
      ],
      "name": "transferOwnership",
      "outputs": [],
      "stateMutability": "nonpayable",
      "type": "function"
    }
  ],
  "bytecode": "0x60806040523480156200001157600080fd5b506040516200360738038062003607833981016040819052620000349162000244565b620000486200004262000156565b6200015a565b600180546001600160a01b0319166001600160a01b0383161790556040516000906200007b9043903390602001620002b0565b604051602081830303815290604052805190602001209050600060405180602001620000a79062000236565b601f1982820381018352601f909101166040819052620000cb919060200162000274565b6040516020818303038152906040529050620000f560008383620001aa60201b6200044f1760201c565b600280546001600160a01b0319166001600160a01b0392831617908190556040517f6705282807944f0ea6c8bc20b92a800fd22830ed53fe002daec72ca0b40865929262000145921690620002cb565b60405180910390a150505062000382565b3390565b600080546001600160a01b038381166001600160a01b0319831681178455604051919092169283917f8be0079c531659141344cd1fd0a4f28419497f9722a3daafe3b4186f6b6457e09190a35050565b60008084471015620001d95760405162461bcd60e51b8152600401620001d0906200034b565b60405180910390fd5b8251620001fa5760405162461bcd60e51b8152600401620001d090620002df565b8383516020850187f590506001600160a01b0381166200022e5760405162461bcd60e51b8152600401620001d09062000314565b949350505050565b610d5480620028b383390190565b60006020828403121562000256578081fd5b81516001600160a01b03811681146200026d578182fd5b9392505050565b60008251815b818110156200029657602081860181015185830152016200027a565b81811115620002a55782828501525b509190910192915050565b91825260601b6001600160601b031916602082015260340190565b6001600160a01b0391909116815260200190565b6020808252818101527f437265617465323a2062797465636f6465206c656e677468206973207a65726f604082015260600190565b60208082526019908201527f437265617465323a204661696c6564206f6e206465706c6f7900000000000000604082015260600190565b6020808252601d908201527f437265617465323a20696e73756666696369656e742062616c616e6365000000604082015260600190565b61252180620003926000396000f3fe60806040523480156200001157600080fd5b5060043610620000b25760003560e01c80639494995b1162000081578063dc62163e1162000063578063dc62163e1462000143578063f2fde38b146200015a578063f645d4f9146200017157620000b2565b80639494995b1462000122578063d566464b146200012c57620000b2565b806350abe91014620000b7578063715018a614620000e65780638606096d14620000f25780638da5cb5b1462000109575b600080fd5b620000ce620000c836600462000559565b6200017b565b604051620000dd919062000840565b60405180910390f35b620000f06200019a565b005b620000ce6200010336600462000559565b620001f7565b6200011362000209565b604051620000dd9190620006a7565b6200011362000218565b620000f06200013d366004620005a9565b62000227565b62000113620001543660046200057d565b62000397565b620000f06200016b36600462000559565b620003c3565b6200011362000440565b6001600160a01b0381166000908152600360205260409020545b919050565b620001a4620004d2565b6001600160a01b0316620001b762000209565b6001600160a01b031614620001e95760405162461bcd60e51b8152600401620001e090620007d4565b60405180910390fd5b620001f56000620004d6565b565b60036020526000908152604090205481565b6000546001600160a01b031690565b6001546001600160a01b031681565b600043336040516020016200023e92919062000687565b6040516020818303038152906040528051906020012090506000604051806020016200026a9062000533565b601f1982820381018352601f9091011660408190526001546200029e9133916001600160a01b0316908790602001620006bb565b60408051601f1981840301815290829052620002be929160200162000654565b60405160208183030381529060405290506000620002df600084846200044f565b336000818152600360208181526040808420805480865260018083018552928620805473ffffffffffffffffffffffffffffffffffffffff19166001600160a01b038a1617905595855292909152815494955092939091906200034490849062000849565b90915550506040516001600160a01b0383169033907fa948d53914cb489499e37cdcaa174b5b664bbfa251aaacbb7282a76ae1be49be906200038890859062000840565b60405180910390a35050505050565b6001600160a01b0391821660009081526003602090815260408083209383526001909301905220541690565b620003cd620004d2565b6001600160a01b0316620003e062000209565b6001600160a01b031614620004095760405162461bcd60e51b8152600401620001e090620007d4565b6001600160a01b038116620004325760405162461bcd60e51b8152600401620001e09062000740565b6200043d81620004d6565b50565b6002546001600160a01b031681565b60008084471015620004755760405162461bcd60e51b8152600401620001e09062000809565b8251620004965760405162461bcd60e51b8152600401620001e0906200070b565b8383516020850187f590506001600160a01b038116620004ca5760405162461bcd60e51b8152600401620001e0906200079d565b949350505050565b3390565b600080546001600160a01b0383811673ffffffffffffffffffffffffffffffffffffffff19831681178455604051919092169283917f8be0079c531659141344cd1fd0a4f28419497f9722a3daafe3b4186f6b6457e09190a35050565b611c5d80620008b883390190565b80356001600160a01b03811681146200019557600080fd5b6000602082840312156200056b578081fd5b620005768262000541565b9392505050565b6000806040838503121562000590578081fd5b6200059b8362000541565b946020939093013593505050565b60006020808385031215620005bc578182fd5b823567ffffffffffffffff80821115620005d4578384fd5b818501915085601f830112620005e8578384fd5b813581811115620005fd57620005fd620008a1565b604051601f8201601f1916810185018381118282101715620006235762000623620008a1565b60405281815283820185018810156200063a578586fd5b818585018683013790810190930193909352509392505050565b60008351620006688184602088016200086e565b8351908301906200067e8183602088016200086e565b01949350505050565b91825260601b6bffffffffffffffffffffffff1916602082015260340190565b6001600160a01b0391909116815260200190565b60006001600160a01b038086168352808516602084015250606060408301528251806060840152620006f58160808501602087016200086e565b601f01601f191691909101608001949350505050565b6020808252818101527f437265617465323a2062797465636f6465206c656e677468206973207a65726f604082015260600190565b60208082526026908201527f4f776e61626c653a206e6577206f776e657220697320746865207a65726f206160408201527f6464726573730000000000000000000000000000000000000000000000000000606082015260800190565b60208082526019908201527f437265617465323a204661696c6564206f6e206465706c6f7900000000000000604082015260600190565b6020808252818101527f4f776e61626c653a2063616c6c6572206973206e6f7420746865206f776e6572604082015260600190565b6020808252601d908201527f437265617465323a20696e73756666696369656e742062616c616e6365000000604082015260600190565b90815260200190565b600082198211156200086957634e487b7160e01b81526011600452602481fd5b500190565b60005b838110156200088b57818101518382015260200162000871565b838111156200089b576000848401525b50505050565b634e487b7160e01b600052604160045260246000fdfe60806040523480156200001157600080fd5b5060405162001c5d38038062001c5d8339810160408190526200003491620002d1565b80516200004990600690602084019062000213565b5060018054610100600160a81b0319166101006001600160a01b038516021790556200008560008051602062001c1d83398151915283620000df565b620000a060008051602062001c3d83398151915284620000df565b620000bb60008051602062001c3d83398151915280620000ef565b620000d660008051602062001c1d83398151915280620000ef565b5050506200041b565b620000eb828262000144565b5050565b6000620000fc83620001ce565b600084815260208190526040808220600101859055519192508391839186917fbd79b86ffe0ab8e8776151514217cd7cacd52c909f66475c3af44e129f0b00ff9190a4505050565b620001508282620001e6565b620000eb576000828152602081815260408083206001600160a01b03851684529091529020805460ff191660011790556200018a6200020f565b6001600160a01b0316816001600160a01b0316837f2f8788117e7eff1d82e926ec794901d17c78024a50270940304540a733656f0d60405160405180910390a45050565b6000818152602081905260409020600101545b919050565b6000918252602082815260408084206001600160a01b0393909316845291905290205460ff1690565b3390565b8280546200022190620003c8565b90600052602060002090601f01602090048101928262000245576000855562000290565b82601f106200026057805160ff191683800117855562000290565b8280016001018555821562000290579182015b828111156200029057825182559160200191906001019062000273565b506200029e929150620002a2565b5090565b5b808211156200029e5760008155600101620002a3565b80516001600160a01b0381168114620001e157600080fd5b600080600060608486031215620002e6578283fd5b620002f184620002b9565b9250602062000302818601620002b9565b60408601519093506001600160401b03808211156200031f578384fd5b818701915087601f83011262000333578384fd5b81518181111562000348576200034862000405565b604051601f8201601f19168101850183811182821017156200036e576200036e62000405565b60405281815283820185018a101562000385578586fd5b8592505b81831015620003a8578383018501518184018601529184019162000389565b81831115620003b957858583830101525b80955050505050509250925092565b600281046001821680620003dd57607f821691505b60208210811415620003ff57634e487b7160e01b600052602260045260246000fd5b50919050565b634e487b7160e01b600052604160045260246000fd5b6117f2806200042b6000396000f3fe608060405234801561001057600080fd5b50600436106101ae5760003560e01c80639494995b116100ee578063c097b1fb11610097578063d8f38eec11610071578063d8f38eec14610379578063e0a1d38414610381578063e8a3d48514610394578063fd967f471461039c576101ae565b8063c097b1fb1461033e578063c0e7274014610351578063d547741f14610366576101ae565b8063a8a10442116100c8578063a8a10442146102f8578063aca841751461030b578063b0b6cc1a1461032b576101ae565b80639494995b146102d35780639d2f83f0146102e8578063a217fddf146102f0576101ae565b80633af627551161015b57806340f182c51161013557806340f182c51461029257806391d14854146102a5578063938e3d7b146102b857806394658d7e146102cb576101ae565b80633af62755146102575780633f5c3e871461026a5780633fff7bf81461027f576101ae565b806328aa9b401161018c57806328aa9b40146102115780632f2ff15d1461023157806336568abe14610244576101ae565b806301ffc9a7146101b3578063248a9ca3146101dc57806326de4d6b146101fc575b600080fd5b6101c66101c1366004611224565b6103a4565b6040516101d39190611416565b60405180910390f35b6101ef6101ea3660046111e1565b6103d1565b6040516101d39190611421565b61020f61020a366004611119565b6103e6565b005b61022461021f3660046111e1565b610474565b6040516101d3919061142a565b61020f61023f3660046111f9565b610489565b61020f6102523660046111f9565b6104b2565b61020f6102653660046111a9565b6104f8565b610272610587565b6040516101d391906116e8565b6101ef61028d3660046111e1565b61059f565b6101ef6102a036600461116e565b6105b1565b6101c66102b33660046111f9565b6106f0565b61020f6102c636600461124c565b610719565b6101ef61076b565b6102db61078f565b6040516101d39190611378565b6101c66107a3565b6101ef6107ac565b61020f610306366004611133565b6107b1565b61031e6103193660046111e1565b6108d3565b6040516101d391906113c9565b6102db6103393660046111e1565b6109de565b61020f61034c3660046111f9565b6109f9565b610359610ada565b6040516101d39190611452565b61020f6103743660046111f9565b610b68565b6101ef610b87565b61020f61038f3660046112b9565b610bab565b610359610c82565b610272610d14565b60006001600160e01b03198216637965db0b60e01b14806103c957506103c982610d1a565b90505b919050565b60009081526020819052604090206001015490565b6104107f1884995e9e21b948f653f9596094b17f12f1b114ed4ca397c21461be57c16fe8336106f0565b6104355760405162461bcd60e51b815260040161042c90611517565b60405180910390fd5b600180546001600160a01b03909216610100027fffffffffffffffffffffff0000000000000000000000000000000000000000ff909216919091179055565b60036020526000908152604090205460ff1681565b610492826103d1565b6104a38161049e610d33565b610d37565b6104ad8383610d9b565b505050565b6104ba610d33565b6001600160a01b0316816001600160a01b0316146104ea5760405162461bcd60e51b815260040161042c9061168b565b6104f48282610e20565b5050565b6105227f0245b6cbab6b03e029f6c88bff9595f9f5c30170f52598c3459ee71476ad59c1336106f0565b61053e5760405162461bcd60e51b815260040161042c906114ba565b6001805460ff19168215151790556040517f59617e84cd4a4d47c34c76f190da73d3a6a0236e0770dcba41851db53f336f579061057c908390611416565b60405180910390a150565b6005546fffffffffffffffffffffffffffffffff1681565b60046020526000908152604090205481565b60006105dd7f0245b6cbab6b03e029f6c88bff9595f9f5c30170f52598c3459ee71476ad59c1336106f0565b6105f95760405162461bcd60e51b815260040161042c906114ba565b600460ff8316111561061d5760405162461bcd60e51b815260040161042c90611574565b60ff821660008181526004602090815260409182902054915161064193910161136a565b6040516020818303038152906040528051906020012090506001600460008460ff16815260200190815260200160002060008282546106809190611705565b9091555050600081815260026020526040808220805473ffffffffffffffffffffffffffffffffffffffff19166001600160a01b038716908117909155905160ff85169284917f1d3dc09176e587732ef26b4edb7961028f2e33cce7ad22d62f07e6a5e26d8e649190a492915050565b6000918252602082815260408084206001600160a01b0393909316845291905290205460ff1690565b6107437f0245b6cbab6b03e029f6c88bff9595f9f5c30170f52598c3459ee71476ad59c1336106f0565b61075f5760405162461bcd60e51b815260040161042c906114ba565b6104ad60068383611069565b7f0245b6cbab6b03e029f6c88bff9595f9f5c30170f52598c3459ee71476ad59c181565b60015461010090046001600160a01b031681565b60015460ff1681565b600081565b6107db7f0245b6cbab6b03e029f6c88bff9595f9f5c30170f52598c3459ee71476ad59c1336106f0565b6107f75760405162461bcd60e51b815260040161042c906114ba565b60405163a9059cbb60e01b81526001600160a01b0384169063a9059cbb9061082590859085906004016113b0565b602060405180830381600087803b15801561083f57600080fd5b505af1158015610853573d6000803e3d6000fd5b505050506040513d601f19601f8201168201806040525081019061087791906111c5565b6108935760405162461bcd60e51b815260040161042c9061162e565b7f78e6250172d8e0a57d8d41f480f13581571a2d27bb2a93f5f7bd2511f5c22a6c8383836040516108c69392919061138c565b60405180910390a1505050565b6000818152600460205260409020546060908067ffffffffffffffff81111561090c57634e487b7160e01b600052604160045260246000fd5b604051908082528060200260200182016040528015610935578160200160208202803683370190505b50915060005b818110156109d7576000818560405160200161095892919061136a565b60408051601f1981840301815291815281516020928301206000818152600290935291205485519192506001600160a01b0316908590849081106109ac57634e487b7160e01b600052603260045260246000fd5b6001600160a01b0390921660209283029190910190910152506109d0600182611705565b905061093b565b5050919050565b6002602052600090815260409020546001600160a01b031681565b610a237f0245b6cbab6b03e029f6c88bff9595f9f5c30170f52598c3459ee71476ad59c1336106f0565b610a3f5760405162461bcd60e51b815260040161042c906114ba565b6000828152600260209081526040808320805473ffffffffffffffffffffffffffffffffffffffff19166001600160a01b038616179055600390915290205460ff166004811115610aa057634e487b7160e01b600052602160045260246000fd5b6040516001600160a01b0383169084907f1d3dc09176e587732ef26b4edb7961028f2e33cce7ad22d62f07e6a5e26d8e6490600090a45050565b60068054610ae790611783565b80601f0160208091040260200160405190810160405280929190818152602001828054610b1390611783565b8015610b605780601f10610b3557610100808354040283529160200191610b60565b820191906000526020600020905b815481529060010190602001808311610b4357829003601f168201915b505050505081565b610b71826103d1565b610b7d8161049e610d33565b6104ad8383610e20565b7f1884995e9e21b948f653f9596094b17f12f1b114ed4ca397c21461be57c16fe881565b610bd57f1884995e9e21b948f653f9596094b17f12f1b114ed4ca397c21461be57c16fe8336106f0565b610bf15760405162461bcd60e51b815260040161042c90611517565b61012c816fffffffffffffffffffffffffffffffff161115610c255760405162461bcd60e51b815260040161042c906115d1565b600580546fffffffffffffffffffffffffffffffff19166fffffffffffffffffffffffffffffffff83161790556040517f1890faa36c0d3210e563b3b71281f08fdb6016a537f6664317d853bd2af520329061057c9083906116e8565b606060068054610c9190611783565b80601f0160208091040260200160405190810160405280929190818152602001828054610cbd90611783565b8015610d0a5780601f10610cdf57610100808354040283529160200191610d0a565b820191906000526020600020905b815481529060010190602001808311610ced57829003601f168201915b5050505050905090565b61271081565b6001600160e01b031981166301ffc9a760e01b14919050565b3390565b610d4182826106f0565b6104f457610d59816001600160a01b03166014610ea3565b610d64836020610ea3565b604051602001610d759291906112e9565b60408051601f198184030181529082905262461bcd60e51b825261042c91600401611452565b610da582826106f0565b6104f4576000828152602081815260408083206001600160a01b03851684529091529020805460ff19166001179055610ddc610d33565b6001600160a01b0316816001600160a01b0316837f2f8788117e7eff1d82e926ec794901d17c78024a50270940304540a733656f0d60405160405180910390a45050565b610e2a82826106f0565b156104f4576000828152602081815260408083206001600160a01b03851684529091529020805460ff19169055610e5f610d33565b6001600160a01b0316816001600160a01b0316837ff6391f5c32d9c69d2a47ea670b442974b53935d1edc7fd64eb21e047a839171b60405160405180910390a45050565b60606000610eb283600261171d565b610ebd906002611705565b67ffffffffffffffff811115610ee357634e487b7160e01b600052604160045260246000fd5b6040519080825280601f01601f191660200182016040528015610f0d576020820181803683370190505b509050600360fc1b81600081518110610f3657634e487b7160e01b600052603260045260246000fd5b60200101906001600160f81b031916908160001a905350600f60fb1b81600181518110610f7357634e487b7160e01b600052603260045260246000fd5b60200101906001600160f81b031916908160001a9053506000610f9784600261171d565b610fa2906001611705565b90505b6001811115611043577f303132333435363738396162636465660000000000000000000000000000000085600f1660108110610ff157634e487b7160e01b600052603260045260246000fd5b1a60f81b82828151811061101557634e487b7160e01b600052603260045260246000fd5b60200101906001600160f81b031916908160001a90535060049490941c9361103c8161176c565b9050610fa5565b5083156110625760405162461bcd60e51b815260040161042c90611485565b9392505050565b82805461107590611783565b90600052602060002090601f01602090048101928261109757600085556110dd565b82601f106110b05782800160ff198235161785556110dd565b828001600101855582156110dd579182015b828111156110dd5782358255916020019190600101906110c2565b506110e99291506110ed565b5090565b5b808211156110e957600081556001016110ee565b80356001600160a01b03811681146103cc57600080fd5b60006020828403121561112a578081fd5b61106282611102565b600080600060608486031215611147578182fd5b61115084611102565b925061115e60208501611102565b9150604084013590509250925092565b60008060408385031215611180578182fd5b61118983611102565b9150602083013560ff8116811461119e578182fd5b809150509250929050565b6000602082840312156111ba578081fd5b8135611062816117d4565b6000602082840312156111d6578081fd5b8151611062816117d4565b6000602082840312156111f2578081fd5b5035919050565b6000806040838503121561120b578182fd5b8235915061121b60208401611102565b90509250929050565b600060208284031215611235578081fd5b81356001600160e01b031981168114611062578182fd5b6000806020838503121561125e578182fd5b823567ffffffffffffffff80821115611275578384fd5b818501915085601f830112611288578384fd5b813581811115611296578485fd5b8660208285010111156112a7578485fd5b60209290920196919550909350505050565b6000602082840312156112ca578081fd5b81356fffffffffffffffffffffffffffffffff81168114611062578182fd5b60007f416363657373436f6e74726f6c3a206163636f756e74200000000000000000008252835161132181601785016020880161173c565b7f206973206d697373696e6720726f6c6520000000000000000000000000000000601791840191820152835161135e81602884016020880161173c565b01602801949350505050565b918252602082015260400190565b6001600160a01b0391909116815260200190565b6001600160a01b039384168152919092166020820152604081019190915260600190565b6001600160a01b03929092168252602082015260400190565b6020808252825182820181905260009190848201906040850190845b8181101561140a5783516001600160a01b0316835292840192918401916001016113e5565b50909695505050505050565b901515815260200190565b90815260200190565b602081016005831061144c57634e487b7160e01b600052602160045260246000fd5b91905290565b600060208252825180602084015261147181604085016020870161173c565b601f01601f19169190910160400192915050565b6020808252818101527f537472696e67733a20686578206c656e67746820696e73756666696369656e74604082015260600190565b60208082526036908201527f50726f746f636f6c3a204f6e6c792070726f746f636f6c2061646d696e73206360408201527f616e2063616c6c20746869732066756e6374696f6e2e00000000000000000000606082015260800190565b60208082526035908201527f50726f746f636f6c3a204f6e6c79204e46544c6162732061646d696e7320636160408201527f6e2063616c6c20746869732066756e6374696f6e2e0000000000000000000000606082015260800190565b6020808252602e908201527f50726f746f636f6c436f6e74726f6c3a20696e76616c6964206d6f64756c652060408201527f747970652070726f76696465642e000000000000000000000000000000000000606082015260800190565b6020808252602e908201527f50726f746f636f6c436f6e74726f6c3a206665652063616e6e6f74206265206760408201527f726561746572207468616e203325000000000000000000000000000000000000606082015260800190565b60208082526034908201527f50726f746f636f6c20436f6e74726f6c3a206661696c656420746f207472616e60408201527f736665722070726f746f636f6c2066756e64732e000000000000000000000000606082015260800190565b6020808252602f908201527f416363657373436f6e74726f6c3a2063616e206f6e6c792072656e6f756e636560408201527f20726f6c657320666f722073656c660000000000000000000000000000000000606082015260800190565b6fffffffffffffffffffffffffffffffff91909116815260200190565b60008219821115611718576117186117be565b500190565b6000816000190483118215151615611737576117376117be565b500290565b60005b8381101561175757818101518382015260200161173f565b83811115611766576000848401525b50505050565b60008161177b5761177b6117be565b506000190190565b60028104600182168061179757607f821691505b602082108114156117b857634e487b7160e01b600052602260045260246000fd5b50919050565b634e487b7160e01b600052601160045260246000fd5b80151581146117e257600080fd5b5056fea164736f6c6343000800000a1884995e9e21b948f653f9596094b17f12f1b114ed4ca397c21461be57c16fe80245b6cbab6b03e029f6c88bff9595f9f5c30170f52598c3459ee71476ad59c1a164736f6c6343000800000a61012060405234801561001157600080fd5b50604080518082018252600f81526e23a9a73b19102337b93bb0b93232b960891b602080830191825283518085019094526005845264302e302e3160d81b908401528151902060c08190527fae209a0b48f21c054280f2455d32cf309387644879d9acbd8ffc19916381188560e08190524660a0529192917f8b73c3c69bb8fe3d512ecc4cf759cc79239f7b179b0ffacaa9a75d522b39400f6100b58184846100c6565b608052610100525061012c92505050565b600083838346306040516020016100e1959493929190610100565b6040516020818303038152906040528051906020012090509392505050565b9485526020850193909352604084019190915260608301526001600160a01b0316608082015260a00190565b60805160a05160c05160e05161010051610be461017060003960006104220152600061046401526000610443015260006103d0015260006103f90152610be46000f3fe6080604052600436106100345760003560e01c80632d0335ab1461003957806347153f821461006f578063bf5d3bdb14610090575b600080fd5b34801561004557600080fd5b506100596100543660046107c3565b6100bd565b6040516100669190610b15565b60405180910390f35b61008261007d3660046107f1565b6100d8565b604051610066929190610904565b34801561009c57600080fd5b506100b06100ab3660046107f1565b61023e565b60405161006691906108f9565b6001600160a01b031660009081526020819052604090205490565b600060606100e785858561023e565b61010c5760405162461bcd60e51b8152600401610103906109fd565b60405180910390fd5b61011b60808601356001610b63565b60008061012b60208901896107c3565b6001600160a01b03166001600160a01b031681526020019081526020016000208190555060008086602001602081019061016591906107c3565b6001600160a01b03166060880135604089013561018560a08b018b610b1e565b61019260208d018d6107c3565b6040516020016101a493929190610899565b60408051601f19818403018152908290526101be916108c2565b600060405180830381858888f193505050503d80600081146101fc576040519150601f19603f3d011682016040523d82523d6000602084013e610201565b606091505b509092509050610216603f6060890135610b87565b5a1161023257634e487b7160e01b600052600160045260246000fd5b90969095509350505050565b60008061032484848080601f01602080910402602001604051908101604052809392919081815260200183838082843760009201919091525061031e92507fdd8f4b70b0f4393e889bd39128a30628a78b61816a9eb8199759e7a349657e4891506102ae905060208a018a6107c3565b6102be60408b0160208c016107c3565b60408b013560608c013560808d01356102da60a08f018f610b1e565b6040516102e8929190610889565b60405190819003812061030397969594939291602001610940565b6040516020818303038152906040528051906020012061038f565b906103a8565b9050608085013560008061033b60208901896107c3565b6001600160a01b03166001600160a01b0316815260200190815260200160002054148015610386575061037160208601866107c3565b6001600160a01b0316816001600160a01b0316145b95945050505050565b60006103a261039c6103cc565b8361048e565b92915050565b60008060006103b785856104c1565b915091506103c481610531565b509392505050565b60007f000000000000000000000000000000000000000000000000000000000000000046141561041d57507f000000000000000000000000000000000000000000000000000000000000000061048b565b6104887f00000000000000000000000000000000000000000000000000000000000000007f00000000000000000000000000000000000000000000000000000000000000007f0000000000000000000000000000000000000000000000000000000000000000610661565b90505b90565b600082826040516020016104a39291906108de565b60405160208183030381529060405280519060200120905092915050565b6000808251604114156104f85760208301516040840151606085015160001a6104ec8782858561069b565b9450945050505061052a565b825160401415610522576020830151604084015161051786838361077b565b93509350505061052a565b506000905060025b9250929050565b600081600481111561055357634e487b7160e01b600052602160045260246000fd5b141561055e5761065e565b600181600481111561058057634e487b7160e01b600052602160045260246000fd5b141561059e5760405162461bcd60e51b8152600401610103906109c6565b60028160048111156105c057634e487b7160e01b600052602160045260246000fd5b14156105de5760405162461bcd60e51b815260040161010390610a5a565b600381600481111561060057634e487b7160e01b600052602160045260246000fd5b141561061e5760405162461bcd60e51b815260040161010390610a91565b600481600481111561064057634e487b7160e01b600052602160045260246000fd5b141561065e5760405162461bcd60e51b815260040161010390610ad3565b50565b6000838383463060405160200161067c95949392919061097c565b6040516020818303038152906040528051906020012090509392505050565b6000807f7fffffffffffffffffffffffffffffff5d576e7357a4501ddfe92f46681b20a08311156106d25750600090506003610772565b8460ff16601b141580156106ea57508460ff16601c14155b156106fb5750600090506004610772565b60006001878787876040516000815260200160405260405161072094939291906109a8565b6020604051602081039080840390855afa158015610742573d6000803e3d6000fd5b5050604051601f1901519150506001600160a01b03811661076b57600060019250925050610772565b9150600090505b94509492505050565b6000807f7fffffffffffffffffffffffffffffffffffffffffffffffffffffffffffffff831660ff84901c601b016107b58782888561069b565b935093505050935093915050565b6000602082840312156107d4578081fd5b81356001600160a01b03811681146107ea578182fd5b9392505050565b600080600060408486031215610805578182fd5b833567ffffffffffffffff8082111561081c578384fd5b9085019060c0828803121561082f578384fd5b90935060208501359080821115610844578384fd5b818601915086601f830112610857578384fd5b813581811115610865578485fd5b876020828501011115610876578485fd5b6020830194508093505050509250925092565b6000828483379101908152919050565b6000838583375060609190911b6bffffffffffffffffffffffff19169101908152601401919050565b600082516108d4818460208701610ba7565b9190910192915050565b61190160f01b81526002810192909252602282015260420190565b901515815260200190565b6000831515825260406020830152825180604084015261092b816060850160208701610ba7565b601f01601f1916919091016060019392505050565b9687526001600160a01b0395861660208801529390941660408601526060850191909152608084015260a083019190915260c082015260e00190565b9485526020850193909352604084019190915260608301526001600160a01b0316608082015260a00190565b93845260ff9290921660208401526040830152606082015260800190565b60208082526018908201527f45434453413a20696e76616c6964207369676e61747572650000000000000000604082015260600190565b60208082526032908201527f4d696e696d616c466f727761726465723a207369676e617475726520646f657360408201527f206e6f74206d6174636820726571756573740000000000000000000000000000606082015260800190565b6020808252601f908201527f45434453413a20696e76616c6964207369676e6174757265206c656e67746800604082015260600190565b60208082526022908201527f45434453413a20696e76616c6964207369676e6174757265202773272076616c604082015261756560f01b606082015260800190565b60208082526022908201527f45434453413a20696e76616c6964207369676e6174757265202776272076616c604082015261756560f01b606082015260800190565b90815260200190565b6000808335601e19843603018112610b34578283fd5b83018035915067ffffffffffffffff821115610b4e578283fd5b60200191503681900382131561052a57600080fd5b60008219821115610b8257634e487b7160e01b81526011600452602481fd5b500190565b600082610ba257634e487b7160e01b81526012600452602481fd5b500490565b60005b83811015610bc2578181015183820152602001610baa565b83811115610bd1576000848401525b5050505056fea164736f6c6343000800000a",
  "linkReferences": {},
  "deployedLinkReferences": {}
}