{
  "_format": "hh-sol-artifact-1",
  "contractName": "Registry",
  "sourceName": "contracts/Registry.sol",
  "abi": [
    {
      "inputs": [
        {
          "internalType": "address",
          "name": "_nftlabs",
          "type": "address"
        }
      ],
      "stateMutability": "nonpayable",
      "type": "constructor"
    },
    {
      "anonymous": false,
      "inputs": [
        {
          "indexed": false,
          "internalType": "address",
          "name": "forwarder",
          "type": "address"
        }
      ],
      "name": "DeployedForwarder",
      "type": "event"
    },
    {
      "anonymous": false,
      "inputs": [
        {
          "indexed": true,
          "internalType": "address",
          "name": "deployer",
          "type": "address"
        },
        {
          "indexed": true,
          "internalType": "address",
          "name": "protocolControl",
          "type": "address"
        },
        {
          "indexed": false,
          "internalType": "uint256",
          "name": "version",
          "type": "uint256"
        }
      ],
      "name": "DeployedProtocol",
      "type": "event"
    },
    {
      "anonymous": false,
      "inputs": [
        {
          "indexed": true,
          "internalType": "address",
          "name": "previousOwner",
          "type": "address"
        },
        {
          "indexed": true,
          "internalType": "address",
          "name": "newOwner",
          "type": "address"
        }
      ],
      "name": "OwnershipTransferred",
      "type": "event"
    },
    {
      "inputs": [
        {
          "internalType": "address",
          "name": "",
          "type": "address"
        }
      ],
      "name": "controlCenters",
      "outputs": [
        {
          "internalType": "uint256",
          "name": "latestVersion",
          "type": "uint256"
        }
      ],
      "stateMutability": "view",
      "type": "function"
    },
    {
      "inputs": [],
      "name": "deployProtocol",
      "outputs": [],
      "stateMutability": "nonpayable",
      "type": "function"
    },
    {
      "inputs": [],
      "name": "forwarder",
      "outputs": [
        {
          "internalType": "address",
          "name": "",
          "type": "address"
        }
      ],
      "stateMutability": "view",
      "type": "function"
    },
    {
      "inputs": [
        {
          "internalType": "address",
          "name": "_protocolDeployer",
          "type": "address"
        }
      ],
      "name": "getLatestVersion",
      "outputs": [
        {
          "internalType": "uint256",
          "name": "",
          "type": "uint256"
        }
      ],
      "stateMutability": "view",
      "type": "function"
    },
    {
      "inputs": [
        {
          "internalType": "address",
          "name": "_protocolDeployer",
          "type": "address"
        },
        {
          "internalType": "uint256",
          "name": "_version",
          "type": "uint256"
        }
      ],
      "name": "getProtocolControl",
      "outputs": [
        {
          "internalType": "address",
          "name": "",
          "type": "address"
        }
      ],
      "stateMutability": "view",
      "type": "function"
    },
    {
      "inputs": [],
      "name": "nftlabsTreasury",
      "outputs": [
        {
          "internalType": "address",
          "name": "",
          "type": "address"
        }
      ],
      "stateMutability": "view",
      "type": "function"
    },
    {
      "inputs": [],
      "name": "owner",
      "outputs": [
        {
          "internalType": "address",
          "name": "",
          "type": "address"
        }
      ],
      "stateMutability": "view",
      "type": "function"
    },
    {
      "inputs": [],
      "name": "renounceOwnership",
      "outputs": [],
      "stateMutability": "nonpayable",
      "type": "function"
    },
    {
      "inputs": [
        {
          "internalType": "address",
          "name": "newOwner",
          "type": "address"
        }
      ],
      "name": "transferOwnership",
      "outputs": [],
      "stateMutability": "nonpayable",
      "type": "function"
    }
  ],
  "bytecode": "0x608060405234801561001057600080fd5b5060405162002c3f38038062002c3f83398101604081905261003191610228565b61004161003c610143565b610147565b600180546001600160a01b0319166001600160a01b038316179055604051600090610072904390339060200161028f565b60405160208183030381529060405280519060200120905060006040518060200161009c9061021a565b601f1982820381018352601f9091011660408190526100be9190602001610256565b60405160208183030381529060405290506100e56000838361019760201b6103ef1760201c565b600280546001600160a01b0319166001600160a01b0392831617908190556040517f6705282807944f0ea6c8bc20b92a800fd22830ed53fe002daec72ca0b4086592926101339216906102aa565b60405180910390a1505050610361565b3390565b600080546001600160a01b038381166001600160a01b0319831681178455604051919092169283917f8be0079c531659141344cd1fd0a4f28419497f9722a3daafe3b4186f6b6457e09190a35050565b600080844710156101c35760405162461bcd60e51b81526004016101ba9061032a565b60405180910390fd5b82516101e15760405162461bcd60e51b81526004016101ba906102be565b8383516020850187f590506001600160a01b0381166102125760405162461bcd60e51b81526004016101ba906102f3565b949350505050565b610d548062001eeb83390190565b600060208284031215610239578081fd5b81516001600160a01b038116811461024f578182fd5b9392505050565b60008251815b81811015610276576020818601810151858301520161025c565b818111156102845782828501525b509190910192915050565b91825260601b6001600160601b031916602082015260340190565b6001600160a01b0391909116815260200190565b6020808252818101527f437265617465323a2062797465636f6465206c656e677468206973207a65726f604082015260600190565b60208082526019908201527f437265617465323a204661696c6564206f6e206465706c6f7900000000000000604082015260600190565b6020808252601d908201527f437265617465323a20696e73756666696369656e742062616c616e6365000000604082015260600190565b611b7a80620003716000396000f3fe608060405234801561001057600080fd5b50600436106100a35760003560e01c80638da5cb5b11610076578063dc62163e1161005b578063dc62163e14610113578063f2fde38b14610126578063f645d4f914610139576100a3565b80638da5cb5b146100f65780639494995b1461010b576100a3565b806350abe910146100a85780636872e478146100d1578063715018a6146100db5780638606096d146100e3575b600080fd5b6100bb6100b63660046104ef565b610141565b6040516100c8919061070a565b60405180910390f35b6100d9610160565b005b6100d96102bf565b6100bb6100f13660046104ef565b610313565b6100fe610325565b6040516100c891906105a7565b6100fe610334565b6100fe610121366004610510565b610343565b6100d96101343660046104ef565b61036f565b6100fe6103e0565b6001600160a01b0381166000908152600360205260409020545b919050565b60004333604051602001610175929190610587565b60405160208183030381529060405280519060200120905060006040518060200161019f906104ca565b601f1982820381018352601f9091011660408190526001546101cf9133916001600160a01b0316906020016105bb565b60408051601f19818403018152908290526101ed9291602001610572565b6040516020818303038152906040529050600061020c600084846103ef565b336000818152600360208181526040808420805480865260018083018552928620805473ffffffffffffffffffffffffffffffffffffffff19166001600160a01b038a16179055958552929091528154949550929390919061026f908490610713565b90915550506040516001600160a01b0383169033907fa948d53914cb489499e37cdcaa174b5b664bbfa251aaacbb7282a76ae1be49be906102b190859061070a565b60405180910390a350505050565b6102c7610469565b6001600160a01b03166102d8610325565b6001600160a01b0316146103075760405162461bcd60e51b81526004016102fe9061069e565b60405180910390fd5b610311600061046d565b565b60036020526000908152604090205481565b6000546001600160a01b031690565b6001546001600160a01b031681565b6001600160a01b0391821660009081526003602090815260408083209383526001909301905220541690565b610377610469565b6001600160a01b0316610388610325565b6001600160a01b0316146103ae5760405162461bcd60e51b81526004016102fe9061069e565b6001600160a01b0381166103d45760405162461bcd60e51b81526004016102fe9061060a565b6103dd8161046d565b50565b6002546001600160a01b031681565b600080844710156104125760405162461bcd60e51b81526004016102fe906106d3565b82516104305760405162461bcd60e51b81526004016102fe906105d5565b8383516020850187f590506001600160a01b0381166104615760405162461bcd60e51b81526004016102fe90610667565b949350505050565b3390565b600080546001600160a01b0383811673ffffffffffffffffffffffffffffffffffffffff19831681178455604051919092169283917f8be0079c531659141344cd1fd0a4f28419497f9722a3daafe3b4186f6b6457e09190a35050565b611436806200073883390190565b80356001600160a01b038116811461015b57600080fd5b600060208284031215610500578081fd5b610509826104d8565b9392505050565b60008060408385031215610522578081fd5b61052b836104d8565b946020939093013593505050565b60008151815b81811015610559576020818501810151868301520161053f565b818111156105675782828601525b509290920192915050565b60006104616105818386610539565b84610539565b91825260601b6bffffffffffffffffffffffff1916602082015260340190565b6001600160a01b0391909116815260200190565b6001600160a01b0392831681529116602082015260400190565b6020808252818101527f437265617465323a2062797465636f6465206c656e677468206973207a65726f604082015260600190565b60208082526026908201527f4f776e61626c653a206e6577206f776e657220697320746865207a65726f206160408201527f6464726573730000000000000000000000000000000000000000000000000000606082015260800190565b60208082526019908201527f437265617465323a204661696c6564206f6e206465706c6f7900000000000000604082015260600190565b6020808252818101527f4f776e61626c653a2063616c6c6572206973206e6f7420746865206f776e6572604082015260600190565b6020808252601d908201527f437265617465323a20696e73756666696369656e742062616c616e6365000000604082015260600190565b90815260200190565b6000821982111561073257634e487b7160e01b81526011600452602481fd5b50019056fe60806040523480156200001157600080fd5b506040516200143638038062001436833981016040819052620000349162000214565b60018054610100600160a81b0319166101006001600160a01b038416021790556200006f600080516020620013f683398151915282620000c8565b6200008a6000805160206200141683398151915283620000c8565b620000a56000805160206200141683398151915280620000d8565b620000c0600080516020620013f683398151915280620000d8565b50506200024b565b620000d482826200012d565b5050565b6000620000e583620001b7565b600084815260208190526040808220600101859055519192508391839186917fbd79b86ffe0ab8e8776151514217cd7cacd52c909f66475c3af44e129f0b00ff9190a4505050565b620001398282620001cf565b620000d4576000828152602081815260408083206001600160a01b03851684529091529020805460ff1916600117905562000173620001f8565b6001600160a01b0316816001600160a01b0316837f2f8788117e7eff1d82e926ec794901d17c78024a50270940304540a733656f0d60405160405180910390a45050565b6000818152602081905260409020600101545b919050565b6000918252602082815260408084206001600160a01b0393909316845291905290205460ff1690565b3390565b80516001600160a01b0381168114620001ca57600080fd5b6000806040838503121562000227578182fd5b6200023283620001fc565b91506200024260208401620001fc565b90509250929050565b61119b806200025b6000396000f3fe608060405234801561001057600080fd5b50600436106101825760003560e01c80639494995b116100d8578063b0b6cc1a1161008c578063d547741f11610066578063d547741f146102f8578063d8f38eec1461030b578063fd967f471461031357610182565b8063b0b6cc1a146102bf578063b51cdec4146102d2578063c097b1fb146102e557610182565b80639d2f83f0116100bd5780639d2f83f01461029c578063a217fddf146102a4578063a8a10442146102ac57610182565b80639494995b1461027457806396362d321461028957610182565b806336568abe1161013a5780633fff7bf8116101145780633fff7bf81461024657806391d148541461025957806394658d7e1461026c57610182565b806336568abe146102185780633af627551461022b5780633f5c3e871461023e57610182565b806326de4d6b1161016b57806326de4d6b146101d057806328aa9b40146101e55780632f2ff15d1461020557610182565b806301ffc9a714610187578063248a9ca3146101b0575b600080fd5b61019a610195366004610dd7565b61031b565b6040516101a79190610eda565b60405180910390f35b6101c36101be366004610d94565b610348565b6040516101a79190610e80565b6101e36101de366004610cde565b61035d565b005b6101f86101f3366004610d94565b6103eb565b6040516101a79190610ee5565b6101e3610213366004610dac565b610400565b6101e3610226366004610dac565b610429565b6101e3610239366004610d5c565b61046f565b6101c36104fe565b6101c3610254366004610d94565b610504565b61019a610267366004610dac565b610516565b6101c361053f565b61027c610563565b6040516101a79190610e89565b6101c3610297366004610d33565b610577565b61019a610688565b6101c3610691565b6101e36102ba366004610cf8565b610696565b61027c6102cd366004610d94565b6107b8565b6101e36102e0366004610d94565b6107d3565b6101e36102f3366004610dac565b61084e565b6101e3610306366004610dac565b61092f565b6101c361094e565b6101c3610972565b60006001600160e01b03198216637965db0b60e01b1480610340575061034082610978565b90505b919050565b60009081526020819052604090206001015490565b6103877f1884995e9e21b948f653f9596094b17f12f1b114ed4ca397c21461be57c16fe833610516565b6103ac5760405162461bcd60e51b81526004016103a390610fd2565b60405180910390fd5b600180546001600160a01b03909216610100027fffffffffffffffffffffff0000000000000000000000000000000000000000ff909216919091179055565b60036020526000908152604090205460ff1681565b61040982610348565b61041a81610415610991565b610995565b61042483836109f9565b505050565b610431610991565b6001600160a01b0316816001600160a01b0316146104615760405162461bcd60e51b81526004016103a39061108c565b61046b8282610a7e565b5050565b6104997f0245b6cbab6b03e029f6c88bff9595f9f5c30170f52598c3459ee71476ad59c133610516565b6104b55760405162461bcd60e51b81526004016103a390610f75565b6001805460ff19168215151790556040517f59617e84cd4a4d47c34c76f190da73d3a6a0236e0770dcba41851db53f336f57906104f3908390610eda565b60405180910390a150565b60055481565b60046020526000908152604090205481565b6000918252602082815260408084206001600160a01b0393909316845291905290205460ff1690565b7f0245b6cbab6b03e029f6c88bff9595f9f5c30170f52598c3459ee71476ad59c181565b60015461010090046001600160a01b031681565b60006105a37f0245b6cbab6b03e029f6c88bff9595f9f5c30170f52598c3459ee71476ad59c133610516565b6105bf5760405162461bcd60e51b81526004016103a390610f75565b6000828152600460209081526040918290205491516105df929101610e80565b604051602081830303815290604052805190602001209050600160046000848152602001908152602001600020600082825461061b91906110e9565b9091555050600081815260026020526040808220805473ffffffffffffffffffffffffffffffffffffffff19166001600160a01b0387169081179091559051849284917f1d3dc09176e587732ef26b4edb7961028f2e33cce7ad22d62f07e6a5e26d8e649190a492915050565b60015460ff1681565b600081565b6106c07f0245b6cbab6b03e029f6c88bff9595f9f5c30170f52598c3459ee71476ad59c133610516565b6106dc5760405162461bcd60e51b81526004016103a390610f75565b60405163a9059cbb60e01b81526001600160a01b0384169063a9059cbb9061070a9085908590600401610ec1565b602060405180830381600087803b15801561072457600080fd5b505af1158015610738573d6000803e3d6000fd5b505050506040513d601f19601f8201168201806040525081019061075c9190610d78565b6107785760405162461bcd60e51b81526004016103a39061102f565b7f78e6250172d8e0a57d8d41f480f13581571a2d27bb2a93f5f7bd2511f5c22a6c8383836040516107ab93929190610e9d565b60405180910390a1505050565b6002602052600090815260409020546001600160a01b031681565b6107fd7f1884995e9e21b948f653f9596094b17f12f1b114ed4ca397c21461be57c16fe833610516565b6108195760405162461bcd60e51b81526004016103a390610fd2565b60058190556040517f1890faa36c0d3210e563b3b71281f08fdb6016a537f6664317d853bd2af52032906104f3908390610e80565b6108787f0245b6cbab6b03e029f6c88bff9595f9f5c30170f52598c3459ee71476ad59c133610516565b6108945760405162461bcd60e51b81526004016103a390610f75565b6000828152600260209081526040808320805473ffffffffffffffffffffffffffffffffffffffff19166001600160a01b038616179055600390915290205460ff1660048111156108f557634e487b7160e01b600052602160045260246000fd5b6040516001600160a01b0383169084907f1d3dc09176e587732ef26b4edb7961028f2e33cce7ad22d62f07e6a5e26d8e6490600090a45050565b61093882610348565b61094481610415610991565b6104248383610a7e565b7f1884995e9e21b948f653f9596094b17f12f1b114ed4ca397c21461be57c16fe881565b61271081565b6001600160e01b031981166301ffc9a760e01b14919050565b3390565b61099f8282610516565b61046b576109b7816001600160a01b03166014610b01565b6109c2836020610b01565b6040516020016109d3929190610dff565b60408051601f198184030181529082905262461bcd60e51b82526103a391600401610f0d565b610a038282610516565b61046b576000828152602081815260408083206001600160a01b03851684529091529020805460ff19166001179055610a3a610991565b6001600160a01b0316816001600160a01b0316837f2f8788117e7eff1d82e926ec794901d17c78024a50270940304540a733656f0d60405160405180910390a45050565b610a888282610516565b1561046b576000828152602081815260408083206001600160a01b03851684529091529020805460ff19169055610abd610991565b6001600160a01b0316816001600160a01b0316837ff6391f5c32d9c69d2a47ea670b442974b53935d1edc7fd64eb21e047a839171b60405160405180910390a45050565b60606000610b10836002611101565b610b1b9060026110e9565b67ffffffffffffffff811115610b4157634e487b7160e01b600052604160045260246000fd5b6040519080825280601f01601f191660200182016040528015610b6b576020820181803683370190505b509050600360fc1b81600081518110610b9457634e487b7160e01b600052603260045260246000fd5b60200101906001600160f81b031916908160001a905350600f60fb1b81600181518110610bd157634e487b7160e01b600052603260045260246000fd5b60200101906001600160f81b031916908160001a9053506000610bf5846002611101565b610c009060016110e9565b90505b6001811115610ca1577f303132333435363738396162636465660000000000000000000000000000000085600f1660108110610c4f57634e487b7160e01b600052603260045260246000fd5b1a60f81b828281518110610c7357634e487b7160e01b600052603260045260246000fd5b60200101906001600160f81b031916908160001a90535060049490941c93610c9a81611150565b9050610c03565b508315610cc05760405162461bcd60e51b81526004016103a390610f40565b9392505050565b80356001600160a01b038116811461034357600080fd5b600060208284031215610cef578081fd5b610cc082610cc7565b600080600060608486031215610d0c578182fd5b610d1584610cc7565b9250610d2360208501610cc7565b9150604084013590509250925092565b60008060408385031215610d45578182fd5b610d4e83610cc7565b946020939093013593505050565b600060208284031215610d6d578081fd5b8135610cc08161117d565b600060208284031215610d89578081fd5b8151610cc08161117d565b600060208284031215610da5578081fd5b5035919050565b60008060408385031215610dbe578182fd5b82359150610dce60208401610cc7565b90509250929050565b600060208284031215610de8578081fd5b81356001600160e01b031981168114610cc0578182fd5b60007f416363657373436f6e74726f6c3a206163636f756e742000000000000000000082528351610e37816017850160208801611120565b7f206973206d697373696e6720726f6c65200000000000000000000000000000006017918401918201528351610e74816028840160208801611120565b01602801949350505050565b90815260200190565b6001600160a01b0391909116815260200190565b6001600160a01b039384168152919092166020820152604081019190915260600190565b6001600160a01b03929092168252602082015260400190565b901515815260200190565b6020810160058310610f0757634e487b7160e01b600052602160045260246000fd5b91905290565b6000602082528251806020840152610f2c816040850160208701611120565b601f01601f19169190910160400192915050565b6020808252818101527f537472696e67733a20686578206c656e67746820696e73756666696369656e74604082015260600190565b60208082526036908201527f50726f746f636f6c3a204f6e6c792070726f746f636f6c2061646d696e73206360408201527f616e2063616c6c20746869732066756e6374696f6e2e00000000000000000000606082015260800190565b60208082526035908201527f50726f746f636f6c3a204f6e6c79204e46544c6162732061646d696e7320636160408201527f6e2063616c6c20746869732066756e6374696f6e2e0000000000000000000000606082015260800190565b60208082526034908201527f50726f746f636f6c20436f6e74726f6c3a206661696c656420746f207472616e60408201527f736665722070726f746f636f6c2066756e64732e000000000000000000000000606082015260800190565b6020808252602f908201527f416363657373436f6e74726f6c3a2063616e206f6e6c792072656e6f756e636560408201527f20726f6c657320666f722073656c660000000000000000000000000000000000606082015260800190565b600082198211156110fc576110fc611167565b500190565b600081600019048311821515161561111b5761111b611167565b500290565b60005b8381101561113b578181015183820152602001611123565b8381111561114a576000848401525b50505050565b60008161115f5761115f611167565b506000190190565b634e487b7160e01b600052601160045260246000fd5b801515811461118b57600080fd5b5056fea164736f6c6343000800000a1884995e9e21b948f653f9596094b17f12f1b114ed4ca397c21461be57c16fe80245b6cbab6b03e029f6c88bff9595f9f5c30170f52598c3459ee71476ad59c1a164736f6c6343000800000a61012060405234801561001157600080fd5b50604080518082018252600f81526e23a9a73b19102337b93bb0b93232b960891b602080830191825283518085019094526005845264302e302e3160d81b908401528151902060c08190527fae209a0b48f21c054280f2455d32cf309387644879d9acbd8ffc19916381188560e08190524660a0529192917f8b73c3c69bb8fe3d512ecc4cf759cc79239f7b179b0ffacaa9a75d522b39400f6100b58184846100c6565b608052610100525061012c92505050565b600083838346306040516020016100e1959493929190610100565b6040516020818303038152906040528051906020012090509392505050565b9485526020850193909352604084019190915260608301526001600160a01b0316608082015260a00190565b60805160a05160c05160e05161010051610be461017060003960006104220152600061046401526000610443015260006103d0015260006103f90152610be46000f3fe6080604052600436106100345760003560e01c80632d0335ab1461003957806347153f821461006f578063bf5d3bdb14610090575b600080fd5b34801561004557600080fd5b506100596100543660046107c3565b6100bd565b6040516100669190610b15565b60405180910390f35b61008261007d3660046107f1565b6100d8565b604051610066929190610904565b34801561009c57600080fd5b506100b06100ab3660046107f1565b61023e565b60405161006691906108f9565b6001600160a01b031660009081526020819052604090205490565b600060606100e785858561023e565b61010c5760405162461bcd60e51b8152600401610103906109fd565b60405180910390fd5b61011b60808601356001610b63565b60008061012b60208901896107c3565b6001600160a01b03166001600160a01b031681526020019081526020016000208190555060008086602001602081019061016591906107c3565b6001600160a01b03166060880135604089013561018560a08b018b610b1e565b61019260208d018d6107c3565b6040516020016101a493929190610899565b60408051601f19818403018152908290526101be916108c2565b600060405180830381858888f193505050503d80600081146101fc576040519150601f19603f3d011682016040523d82523d6000602084013e610201565b606091505b509092509050610216603f6060890135610b87565b5a1161023257634e487b7160e01b600052600160045260246000fd5b90969095509350505050565b60008061032484848080601f01602080910402602001604051908101604052809392919081815260200183838082843760009201919091525061031e92507fdd8f4b70b0f4393e889bd39128a30628a78b61816a9eb8199759e7a349657e4891506102ae905060208a018a6107c3565b6102be60408b0160208c016107c3565b60408b013560608c013560808d01356102da60a08f018f610b1e565b6040516102e8929190610889565b60405190819003812061030397969594939291602001610940565b6040516020818303038152906040528051906020012061038f565b906103a8565b9050608085013560008061033b60208901896107c3565b6001600160a01b03166001600160a01b0316815260200190815260200160002054148015610386575061037160208601866107c3565b6001600160a01b0316816001600160a01b0316145b95945050505050565b60006103a261039c6103cc565b8361048e565b92915050565b60008060006103b785856104c1565b915091506103c481610531565b509392505050565b60007f000000000000000000000000000000000000000000000000000000000000000046141561041d57507f000000000000000000000000000000000000000000000000000000000000000061048b565b6104887f00000000000000000000000000000000000000000000000000000000000000007f00000000000000000000000000000000000000000000000000000000000000007f0000000000000000000000000000000000000000000000000000000000000000610661565b90505b90565b600082826040516020016104a39291906108de565b60405160208183030381529060405280519060200120905092915050565b6000808251604114156104f85760208301516040840151606085015160001a6104ec8782858561069b565b9450945050505061052a565b825160401415610522576020830151604084015161051786838361077b565b93509350505061052a565b506000905060025b9250929050565b600081600481111561055357634e487b7160e01b600052602160045260246000fd5b141561055e5761065e565b600181600481111561058057634e487b7160e01b600052602160045260246000fd5b141561059e5760405162461bcd60e51b8152600401610103906109c6565b60028160048111156105c057634e487b7160e01b600052602160045260246000fd5b14156105de5760405162461bcd60e51b815260040161010390610a5a565b600381600481111561060057634e487b7160e01b600052602160045260246000fd5b141561061e5760405162461bcd60e51b815260040161010390610a91565b600481600481111561064057634e487b7160e01b600052602160045260246000fd5b141561065e5760405162461bcd60e51b815260040161010390610ad3565b50565b6000838383463060405160200161067c95949392919061097c565b6040516020818303038152906040528051906020012090509392505050565b6000807f7fffffffffffffffffffffffffffffff5d576e7357a4501ddfe92f46681b20a08311156106d25750600090506003610772565b8460ff16601b141580156106ea57508460ff16601c14155b156106fb5750600090506004610772565b60006001878787876040516000815260200160405260405161072094939291906109a8565b6020604051602081039080840390855afa158015610742573d6000803e3d6000fd5b5050604051601f1901519150506001600160a01b03811661076b57600060019250925050610772565b9150600090505b94509492505050565b6000807f7fffffffffffffffffffffffffffffffffffffffffffffffffffffffffffffff831660ff84901c601b016107b58782888561069b565b935093505050935093915050565b6000602082840312156107d4578081fd5b81356001600160a01b03811681146107ea578182fd5b9392505050565b600080600060408486031215610805578182fd5b833567ffffffffffffffff8082111561081c578384fd5b9085019060c0828803121561082f578384fd5b90935060208501359080821115610844578384fd5b818601915086601f830112610857578384fd5b813581811115610865578485fd5b876020828501011115610876578485fd5b6020830194508093505050509250925092565b6000828483379101908152919050565b6000838583375060609190911b6bffffffffffffffffffffffff19169101908152601401919050565b600082516108d4818460208701610ba7565b9190910192915050565b61190160f01b81526002810192909252602282015260420190565b901515815260200190565b6000831515825260406020830152825180604084015261092b816060850160208701610ba7565b601f01601f1916919091016060019392505050565b9687526001600160a01b0395861660208801529390941660408601526060850191909152608084015260a083019190915260c082015260e00190565b9485526020850193909352604084019190915260608301526001600160a01b0316608082015260a00190565b93845260ff9290921660208401526040830152606082015260800190565b60208082526018908201527f45434453413a20696e76616c6964207369676e61747572650000000000000000604082015260600190565b60208082526032908201527f4d696e696d616c466f727761726465723a207369676e617475726520646f657360408201527f206e6f74206d6174636820726571756573740000000000000000000000000000606082015260800190565b6020808252601f908201527f45434453413a20696e76616c6964207369676e6174757265206c656e67746800604082015260600190565b60208082526022908201527f45434453413a20696e76616c6964207369676e6174757265202773272076616c604082015261756560f01b606082015260800190565b60208082526022908201527f45434453413a20696e76616c6964207369676e6174757265202776272076616c604082015261756560f01b606082015260800190565b90815260200190565b6000808335601e19843603018112610b34578283fd5b83018035915067ffffffffffffffff821115610b4e578283fd5b60200191503681900382131561052a57600080fd5b60008219821115610b8257634e487b7160e01b81526011600452602481fd5b500190565b600082610ba257634e487b7160e01b81526012600452602481fd5b500490565b60005b83811015610bc2578181015183820152602001610baa565b83811115610bd1576000848401525b5050505056fea164736f6c6343000800000a",
  "linkReferences": {},
  "deployedLinkReferences": {}
}