{
  "_format": "hh-sol-artifact-1",
  "contractName": "Registry",
  "sourceName": "contracts/Registry.sol",
  "abi": [
    {
      "inputs": [
        {
          "internalType": "address",
          "name": "_treasury",
          "type": "address"
        },
        {
          "internalType": "address",
          "name": "_forwarder",
          "type": "address"
        },
        {
          "internalType": "address",
          "name": "_deployer",
          "type": "address"
        }
      ],
      "stateMutability": "nonpayable",
      "type": "constructor"
    },
    {
      "anonymous": false,
      "inputs": [
        {
          "indexed": false,
          "internalType": "uint256",
          "name": "defaultFeeBps",
          "type": "uint256"
        }
      ],
      "name": "DefaultFeeBpsUpdated",
      "type": "event"
    },
    {
      "anonymous": false,
      "inputs": [
        {
          "indexed": false,
          "internalType": "address",
          "name": "newDeployer",
          "type": "address"
        }
      ],
      "name": "DeployerUpdated",
      "type": "event"
    },
    {
      "anonymous": false,
      "inputs": [
        {
          "indexed": true,
          "internalType": "address",
          "name": "previousOwner",
          "type": "address"
        },
        {
          "indexed": true,
          "internalType": "address",
          "name": "newOwner",
          "type": "address"
        }
      ],
      "name": "OwnershipTransferred",
      "type": "event"
    },
    {
      "anonymous": false,
      "inputs": [
        {
          "indexed": true,
          "internalType": "address",
          "name": "control",
          "type": "address"
        },
        {
          "indexed": false,
          "internalType": "uint256",
          "name": "defaultFeeBps",
          "type": "uint256"
        }
      ],
      "name": "ProtocolControlFeeBpsUpdated",
      "type": "event"
    },
    {
      "anonymous": false,
      "inputs": [
        {
          "indexed": false,
          "internalType": "address",
          "name": "newTreasury",
          "type": "address"
        }
      ],
      "name": "TreasuryUpdated",
      "type": "event"
    },
    {
      "inputs": [],
      "name": "MAX_PROVIDER_FEE_BPS",
      "outputs": [
        {
          "internalType": "uint256",
          "name": "",
          "type": "uint256"
        }
      ],
      "stateMutability": "view",
      "type": "function"
    },
    {
      "inputs": [],
      "name": "defaultFeeBps",
      "outputs": [
        {
          "internalType": "uint256",
          "name": "",
          "type": "uint256"
        }
      ],
      "stateMutability": "view",
      "type": "function"
    },
    {
      "inputs": [
        {
          "internalType": "string",
          "name": "uri",
          "type": "string"
        }
      ],
      "name": "deployProtocol",
      "outputs": [],
      "stateMutability": "nonpayable",
      "type": "function"
    },
    {
      "inputs": [],
      "name": "deployer",
      "outputs": [
        {
          "internalType": "contract IControlDeployer",
          "name": "",
          "type": "address"
        }
      ],
      "stateMutability": "view",
      "type": "function"
    },
    {
      "inputs": [],
      "name": "forwarder",
      "outputs": [
        {
          "internalType": "address",
          "name": "",
          "type": "address"
        }
      ],
      "stateMutability": "view",
      "type": "function"
    },
    {
      "inputs": [
        {
          "internalType": "address",
          "name": "protocolControl",
          "type": "address"
        }
      ],
      "name": "getFeeBps",
      "outputs": [
        {
          "internalType": "uint256",
          "name": "",
          "type": "uint256"
        }
      ],
      "stateMutability": "view",
      "type": "function"
    },
    {
      "inputs": [
        {
          "internalType": "address",
          "name": "deployer",
          "type": "address"
        },
        {
          "internalType": "uint256",
          "name": "index",
          "type": "uint256"
        }
      ],
      "name": "getProtocolControl",
      "outputs": [
        {
          "internalType": "address",
          "name": "",
          "type": "address"
        }
      ],
      "stateMutability": "view",
      "type": "function"
    },
    {
      "inputs": [
        {
          "internalType": "address",
          "name": "deployer",
          "type": "address"
        }
      ],
      "name": "getProtocolControlCount",
      "outputs": [
        {
          "internalType": "uint256",
          "name": "",
          "type": "uint256"
        }
      ],
      "stateMutability": "view",
      "type": "function"
    },
    {
      "inputs": [],
      "name": "owner",
      "outputs": [
        {
          "internalType": "address",
          "name": "",
          "type": "address"
        }
      ],
      "stateMutability": "view",
      "type": "function"
    },
    {
      "inputs": [
        {
          "internalType": "address",
          "name": "",
          "type": "address"
        }
      ],
      "name": "protocolControlFeeBps",
      "outputs": [
        {
          "internalType": "uint256",
          "name": "",
          "type": "uint256"
        }
      ],
      "stateMutability": "view",
      "type": "function"
    },
    {
      "inputs": [],
      "name": "renounceOwnership",
      "outputs": [],
      "stateMutability": "nonpayable",
      "type": "function"
    },
    {
      "inputs": [
        {
          "internalType": "uint256",
          "name": "_newFeeBps",
          "type": "uint256"
        }
      ],
      "name": "setDefaultFeeBps",
      "outputs": [],
      "stateMutability": "nonpayable",
      "type": "function"
    },
    {
      "inputs": [
        {
          "internalType": "address",
          "name": "_newDeployer",
          "type": "address"
        }
      ],
      "name": "setDeployer",
      "outputs": [],
      "stateMutability": "nonpayable",
      "type": "function"
    },
    {
      "inputs": [
        {
          "internalType": "address",
          "name": "protocolControl",
          "type": "address"
        },
        {
          "internalType": "uint256",
          "name": "_newFeeBps",
          "type": "uint256"
        }
      ],
      "name": "setProtocolControlFeeBps",
      "outputs": [],
      "stateMutability": "nonpayable",
      "type": "function"
    },
    {
      "inputs": [
        {
          "internalType": "address",
          "name": "_newTreasury",
          "type": "address"
        }
      ],
      "name": "setTreasury",
      "outputs": [],
      "stateMutability": "nonpayable",
      "type": "function"
    },
    {
      "inputs": [
        {
          "internalType": "address",
          "name": "newOwner",
          "type": "address"
        }
      ],
      "name": "transferOwnership",
      "outputs": [],
      "stateMutability": "nonpayable",
      "type": "function"
    },
    {
      "inputs": [],
      "name": "treasury",
      "outputs": [
        {
          "internalType": "address",
          "name": "",
          "type": "address"
        }
      ],
      "stateMutability": "view",
      "type": "function"
    }
  ],
  "bytecode": "0x60806040526101f460015534801561001657600080fd5b50604051610c97380380610c97833981016040819052610035916100f7565b610045610040610087565b61008b565b600380546001600160a01b039485166001600160a01b031991821617909155600480549385169382169390931790925560058054919093169116179055610139565b3390565b600080546001600160a01b038381166001600160a01b0319831681178455604051919092169283917f8be0079c531659141344cd1fd0a4f28419497f9722a3daafe3b4186f6b6457e09190a35050565b80516001600160a01b03811681146100f257600080fd5b919050565b60008060006060848603121561010b578283fd5b610114846100db565b9250610122602085016100db565b9150610130604085016100db565b90509250925092565b610b4f806101486000396000f3fe608060405234801561001057600080fd5b506004361061011b5760003560e01c806396214735116100b2578063d5f3948811610081578063f0f4426011610066578063f0f442601461020d578063f2fde38b14610220578063f645d4f9146102335761011b565b8063d5f39488146101f2578063dc62163e146101fa5761011b565b806396214735146101b1578063bcae25a4146101c4578063cd7e89b1146101cc578063d566464b146101df5761011b565b8063715018a6116100ee578063715018a61461017b57806373c6f378146101835780637c160011146101965780638da5cb5b146101a95761011b565b80630531d575146101205780634373a286146101495780635cd423151461015e57806361d027b314610166575b600080fd5b61013361012e366004610888565b61023b565b6040516101409190610b0e565b60405180910390f35b61015c610157366004610993565b61024d565b005b6101336102f7565b61016e6102fd565b60405161014091906109ab565b61015c61030c565b610133610191366004610888565b610357565b61015c6101a43660046108c7565b610387565b61016e61043f565b61015c6101bf366004610888565b61044e565b6101336104e5565b6101336101da366004610888565b6104eb565b61015c6101ed3660046108f2565b61050c565b61016e61060c565b61016e6102083660046108c7565b61061b565b61015c61021b366004610888565b610646565b61015c61022e366004610888565b6106dd565b61016e61074e565b60076020526000908152604090205481565b61025561075d565b6001600160a01b031661026661043f565b6001600160a01b0316146102955760405162461bcd60e51b815260040161028c90610a7c565b60405180910390fd5b6103e88111156102b75760405162461bcd60e51b815260040161028c90610ab1565b60018190556040517faf07358220f107097f5c9bc5cacec9de23c6bd67d61633e5abaa3aa698d94fcf906102ec908390610b0e565b60405180910390a150565b6103e881565b6003546001600160a01b031681565b61031461075d565b6001600160a01b031661032561043f565b6001600160a01b03161461034b5760405162461bcd60e51b815260040161028c90610a7c565b6103556000610761565b565b6001600160a01b0381166000908152600760205260408120548061037f575050600154610382565b90505b919050565b61038f61075d565b6001600160a01b03166103a061043f565b6001600160a01b0316146103c65760405162461bcd60e51b815260040161028c90610a7c565b6103e88111156103e85760405162461bcd60e51b815260040161028c90610ab1565b6001600160a01b03821660008181526007602052604090819020839055517f3f3f5381919d082b3f6431a55b5affd99c52c10d6b16a850a6c75377c17285a790610433908490610b0e565b60405180910390a25050565b6000546001600160a01b031690565b61045661075d565b6001600160a01b031661046761043f565b6001600160a01b03161461048d5760405162461bcd60e51b815260040161028c90610a7c565b6005805473ffffffffffffffffffffffffffffffffffffffff19166001600160a01b0383161790556040517f6db6dcdd05f1728263d8f644adcb07da9d18505aa9b2e33360b2715a878a711e906102ec9083906109ab565b60015481565b6001600160a01b038116600090815260066020526040812061037f906107be565b60006105426006600061051d61075d565b6001600160a01b03166001600160a01b031681526020019081526020016000206107be565b6005549091506000906001600160a01b0316632259f965308461056361075d565b876040518563ffffffff1660e01b815260040161058394939291906109bf565b602060405180830381600087803b15801561059d57600080fd5b505af11580156105b1573d6000803e3d6000fd5b505050506040513d601f19601f820116820180604052508101906105d591906108ab565b905061060681600660006105e761075d565b6001600160a01b031681526020810191909152604001600020906107c9565b50505050565b6005546001600160a01b031681565b6001600160a01b038216600090815260066020526040812061063d90836107de565b90505b92915050565b61064e61075d565b6001600160a01b031661065f61043f565b6001600160a01b0316146106855760405162461bcd60e51b815260040161028c90610a7c565b6003805473ffffffffffffffffffffffffffffffffffffffff19166001600160a01b0383161790556040517f7dae230f18360d76a040c81f050aa14eb9d6dc7901b20fc5d855e2a20fe814d1906102ec9083906109ab565b6106e561075d565b6001600160a01b03166106f661043f565b6001600160a01b03161461071c5760405162461bcd60e51b815260040161028c90610a7c565b6001600160a01b0381166107425760405162461bcd60e51b815260040161028c90610a36565b61074b81610761565b50565b6004546001600160a01b031681565b3390565b600080546001600160a01b0383811673ffffffffffffffffffffffffffffffffffffffff19831681178455604051919092169283917f8be0079c531659141344cd1fd0a4f28419497f9722a3daafe3b4186f6b6457e09190a35050565b600061037f826107ea565b600061063d836001600160a01b0384166107ee565b600061063d8383610838565b5490565b60006107fa8383610870565b61083057508154600181810184556000848152602080822090930184905584548482528286019093526040902091909155610640565b506000610640565b600082600001828154811061085d57634e487b7160e01b600052603260045260246000fd5b9060005260206000200154905092915050565b60009081526001919091016020526040902054151590565b600060208284031215610899578081fd5b81356108a481610b2d565b9392505050565b6000602082840312156108bc578081fd5b81516108a481610b2d565b600080604083850312156108d9578081fd5b82356108e481610b2d565b946020939093013593505050565b60006020808385031215610904578182fd5b823567ffffffffffffffff8082111561091b578384fd5b818501915085601f83011261092e578384fd5b81358181111561094057610940610b17565b604051601f8201601f191681018501838111828210171561096357610963610b17565b6040528181528382018501881015610979578586fd5b818585018683013790810190930193909352509392505050565b6000602082840312156109a4578081fd5b5035919050565b6001600160a01b0391909116815260200190565b60006001600160a01b0380871683526020868185015281861660408501526080606085015284519150816080850152825b82811015610a0c5785810182015185820160a0015281016109f0565b82811115610a1d578360a084870101525b5050601f01601f19169190910160a00195945050505050565b60208082526026908201527f4f776e61626c653a206e6577206f776e657220697320746865207a65726f206160408201526564647265737360d01b606082015260800190565b6020808252818101527f4f776e61626c653a2063616c6c6572206973206e6f7420746865206f776e6572604082015260600190565b60208082526031908201527f52656769737472793a2070726f7669646572206665652063616e6e6f7420626560408201527f2067726561746572207468616e20313025000000000000000000000000000000606082015260800190565b90815260200190565b634e487b7160e01b600052604160045260246000fd5b6001600160a01b038116811461074b57600080fdfea164736f6c6343000800000a",
  "linkReferences": {},
  "deployedLinkReferences": {}
}