{
  "_format": "hh-sol-artifact-1",
  "contractName": "NFTCollection_PL",
  "sourceName": "contracts/permissionless/NFTCollection_PL.sol",
  "abi": [
    {
      "inputs": [
        {
          "internalType": "address payable",
          "name": "_controlCenter",
          "type": "address"
        },
        {
          "internalType": "address",
          "name": "_trustedForwarder",
          "type": "address"
        },
        {
          "internalType": "string",
          "name": "_uri",
          "type": "string"
        }
      ],
      "stateMutability": "nonpayable",
      "type": "constructor"
    },
    {
      "anonymous": false,
      "inputs": [
        {
          "indexed": true,
          "internalType": "address",
          "name": "account",
          "type": "address"
        },
        {
          "indexed": true,
          "internalType": "address",
          "name": "operator",
          "type": "address"
        },
        {
          "indexed": false,
          "internalType": "bool",
          "name": "approved",
          "type": "bool"
        }
      ],
      "name": "ApprovalForAll",
      "type": "event"
    },
    {
      "anonymous": false,
      "inputs": [
        {
          "indexed": true,
          "internalType": "address",
          "name": "redeemer",
          "type": "address"
        },
        {
          "indexed": true,
          "internalType": "address",
          "name": "tokenContract",
          "type": "address"
        },
        {
          "indexed": false,
          "internalType": "uint256",
          "name": "tokenAmountReceived",
          "type": "uint256"
        },
        {
          "indexed": false,
          "internalType": "uint256",
          "name": "nftAmountRedeemed",
          "type": "uint256"
        }
      ],
      "name": "ERC20Redeemed",
      "type": "event"
    },
    {
      "anonymous": false,
      "inputs": [
        {
          "indexed": true,
          "internalType": "address",
          "name": "creator",
          "type": "address"
        },
        {
          "indexed": true,
          "internalType": "address",
          "name": "tokenContract",
          "type": "address"
        },
        {
          "indexed": false,
          "internalType": "uint256",
          "name": "tokenAmount",
          "type": "uint256"
        },
        {
          "indexed": false,
          "internalType": "uint256",
          "name": "nftsMinted",
          "type": "uint256"
        },
        {
          "indexed": false,
          "internalType": "string",
          "name": "nftURI",
          "type": "string"
        }
      ],
      "name": "ERC20WrappedNfts",
      "type": "event"
    },
    {
      "anonymous": false,
      "inputs": [
        {
          "indexed": true,
          "internalType": "address",
          "name": "redeemer",
          "type": "address"
        },
        {
          "indexed": true,
          "internalType": "address",
          "name": "nftContract",
          "type": "address"
        },
        {
          "indexed": false,
          "internalType": "uint256",
          "name": "nftTokenId",
          "type": "uint256"
        },
        {
          "indexed": false,
          "internalType": "uint256",
          "name": "nativeNftTokenId",
          "type": "uint256"
        }
      ],
      "name": "ERC721Redeemed",
      "type": "event"
    },
    {
      "anonymous": false,
      "inputs": [
        {
          "indexed": true,
          "internalType": "address",
          "name": "creator",
          "type": "address"
        },
        {
          "indexed": true,
          "internalType": "address",
          "name": "nftContract",
          "type": "address"
        },
        {
          "indexed": false,
          "internalType": "uint256",
          "name": "nftTokenId",
          "type": "uint256"
        },
        {
          "indexed": false,
          "internalType": "uint256",
          "name": "nativeNftTokenId",
          "type": "uint256"
        },
        {
          "indexed": false,
          "internalType": "string",
          "name": "nativeNftURI",
          "type": "string"
        }
      ],
      "name": "ERC721WrappedNft",
      "type": "event"
    },
    {
      "anonymous": false,
      "inputs": [
        {
          "indexed": true,
          "internalType": "address",
          "name": "creator",
          "type": "address"
        },
        {
          "indexed": false,
          "internalType": "uint256[]",
          "name": "nftIds",
          "type": "uint256[]"
        },
        {
          "indexed": false,
          "internalType": "string[]",
          "name": "nftURIs",
          "type": "string[]"
        },
        {
          "indexed": false,
          "internalType": "uint256[]",
          "name": "nftSupplies",
          "type": "uint256[]"
        }
      ],
      "name": "NativeNfts",
      "type": "event"
    },
    {
      "anonymous": false,
      "inputs": [
        {
          "indexed": false,
          "internalType": "address",
          "name": "account",
          "type": "address"
        }
      ],
      "name": "Paused",
      "type": "event"
    },
    {
      "anonymous": false,
      "inputs": [
        {
          "indexed": true,
          "internalType": "bytes32",
          "name": "role",
          "type": "bytes32"
        },
        {
          "indexed": true,
          "internalType": "bytes32",
          "name": "previousAdminRole",
          "type": "bytes32"
        },
        {
          "indexed": true,
          "internalType": "bytes32",
          "name": "newAdminRole",
          "type": "bytes32"
        }
      ],
      "name": "RoleAdminChanged",
      "type": "event"
    },
    {
      "anonymous": false,
      "inputs": [
        {
          "indexed": true,
          "internalType": "bytes32",
          "name": "role",
          "type": "bytes32"
        },
        {
          "indexed": true,
          "internalType": "address",
          "name": "account",
          "type": "address"
        },
        {
          "indexed": true,
          "internalType": "address",
          "name": "sender",
          "type": "address"
        }
      ],
      "name": "RoleGranted",
      "type": "event"
    },
    {
      "anonymous": false,
      "inputs": [
        {
          "indexed": true,
          "internalType": "bytes32",
          "name": "role",
          "type": "bytes32"
        },
        {
          "indexed": true,
          "internalType": "address",
          "name": "account",
          "type": "address"
        },
        {
          "indexed": true,
          "internalType": "address",
          "name": "sender",
          "type": "address"
        }
      ],
      "name": "RoleRevoked",
      "type": "event"
    },
    {
      "anonymous": false,
      "inputs": [
        {
          "indexed": false,
          "internalType": "uint256",
          "name": "royaltyBps",
          "type": "uint256"
        }
      ],
      "name": "RoyaltyUpdated",
      "type": "event"
    },
    {
      "anonymous": false,
      "inputs": [
        {
          "indexed": true,
          "internalType": "address",
          "name": "operator",
          "type": "address"
        },
        {
          "indexed": true,
          "internalType": "address",
          "name": "from",
          "type": "address"
        },
        {
          "indexed": true,
          "internalType": "address",
          "name": "to",
          "type": "address"
        },
        {
          "indexed": false,
          "internalType": "uint256[]",
          "name": "ids",
          "type": "uint256[]"
        },
        {
          "indexed": false,
          "internalType": "uint256[]",
          "name": "values",
          "type": "uint256[]"
        }
      ],
      "name": "TransferBatch",
      "type": "event"
    },
    {
      "anonymous": false,
      "inputs": [
        {
          "indexed": true,
          "internalType": "address",
          "name": "operator",
          "type": "address"
        },
        {
          "indexed": true,
          "internalType": "address",
          "name": "from",
          "type": "address"
        },
        {
          "indexed": true,
          "internalType": "address",
          "name": "to",
          "type": "address"
        },
        {
          "indexed": false,
          "internalType": "uint256",
          "name": "id",
          "type": "uint256"
        },
        {
          "indexed": false,
          "internalType": "uint256",
          "name": "value",
          "type": "uint256"
        }
      ],
      "name": "TransferSingle",
      "type": "event"
    },
    {
      "anonymous": false,
      "inputs": [
        {
          "indexed": false,
          "internalType": "string",
          "name": "value",
          "type": "string"
        },
        {
          "indexed": true,
          "internalType": "uint256",
          "name": "id",
          "type": "uint256"
        }
      ],
      "name": "URI",
      "type": "event"
    },
    {
      "anonymous": false,
      "inputs": [
        {
          "indexed": false,
          "internalType": "address",
          "name": "account",
          "type": "address"
        }
      ],
      "name": "Unpaused",
      "type": "event"
    },
    {
      "inputs": [],
      "name": "DEFAULT_ADMIN_ROLE",
      "outputs": [
        {
          "internalType": "bytes32",
          "name": "",
          "type": "bytes32"
        }
      ],
      "stateMutability": "view",
      "type": "function"
    },
    {
      "inputs": [],
      "name": "MINTER_ROLE",
      "outputs": [
        {
          "internalType": "bytes32",
          "name": "",
          "type": "bytes32"
        }
      ],
      "stateMutability": "view",
      "type": "function"
    },
    {
      "inputs": [],
      "name": "PAUSER_ROLE",
      "outputs": [
        {
          "internalType": "bytes32",
          "name": "",
          "type": "bytes32"
        }
      ],
      "stateMutability": "view",
      "type": "function"
    },
    {
      "inputs": [],
      "name": "TRANSFER_ROLE",
      "outputs": [
        {
          "internalType": "bytes32",
          "name": "",
          "type": "bytes32"
        }
      ],
      "stateMutability": "view",
      "type": "function"
    },
    {
      "inputs": [],
      "name": "_contractURI",
      "outputs": [
        {
          "internalType": "string",
          "name": "",
          "type": "string"
        }
      ],
      "stateMutability": "view",
      "type": "function"
    },
    {
      "inputs": [
        {
          "internalType": "address",
          "name": "account",
          "type": "address"
        },
        {
          "internalType": "uint256",
          "name": "id",
          "type": "uint256"
        }
      ],
      "name": "balanceOf",
      "outputs": [
        {
          "internalType": "uint256",
          "name": "",
          "type": "uint256"
        }
      ],
      "stateMutability": "view",
      "type": "function"
    },
    {
      "inputs": [
        {
          "internalType": "address[]",
          "name": "accounts",
          "type": "address[]"
        },
        {
          "internalType": "uint256[]",
          "name": "ids",
          "type": "uint256[]"
        }
      ],
      "name": "balanceOfBatch",
      "outputs": [
        {
          "internalType": "uint256[]",
          "name": "",
          "type": "uint256[]"
        }
      ],
      "stateMutability": "view",
      "type": "function"
    },
    {
      "inputs": [
        {
          "internalType": "address",
          "name": "account",
          "type": "address"
        },
        {
          "internalType": "uint256",
          "name": "id",
          "type": "uint256"
        },
        {
          "internalType": "uint256",
          "name": "value",
          "type": "uint256"
        }
      ],
      "name": "burn",
      "outputs": [],
      "stateMutability": "nonpayable",
      "type": "function"
    },
    {
      "inputs": [
        {
          "internalType": "address",
          "name": "account",
          "type": "address"
        },
        {
          "internalType": "uint256[]",
          "name": "ids",
          "type": "uint256[]"
        },
        {
          "internalType": "uint256[]",
          "name": "values",
          "type": "uint256[]"
        }
      ],
      "name": "burnBatch",
      "outputs": [],
      "stateMutability": "nonpayable",
      "type": "function"
    },
    {
      "inputs": [],
      "name": "contractURI",
      "outputs": [
        {
          "internalType": "string",
          "name": "",
          "type": "string"
        }
      ],
      "stateMutability": "view",
      "type": "function"
    },
    {
      "inputs": [
        {
          "internalType": "string[]",
          "name": "_nftURIs",
          "type": "string[]"
        },
        {
          "internalType": "uint256[]",
          "name": "_nftSupplies",
          "type": "uint256[]"
        }
      ],
      "name": "createNativeNfts",
      "outputs": [
        {
          "internalType": "uint256[]",
          "name": "nftIds",
          "type": "uint256[]"
        }
      ],
      "stateMutability": "nonpayable",
      "type": "function"
    },
    {
      "inputs": [
        {
          "internalType": "address",
          "name": "_pack",
          "type": "address"
        },
        {
          "internalType": "string[]",
          "name": "_nftURIs",
          "type": "string[]"
        },
        {
          "internalType": "uint256[]",
          "name": "_nftSupplies",
          "type": "uint256[]"
        },
        {
          "internalType": "string",
          "name": "_packURI",
          "type": "string"
        },
        {
          "internalType": "uint256",
          "name": "_secondsUntilOpenStart",
          "type": "uint256"
        },
        {
          "internalType": "uint256",
          "name": "_secondsUntilOpenEnd",
          "type": "uint256"
        },
        {
          "internalType": "uint256",
          "name": "_nftsPerOpen",
          "type": "uint256"
        }
      ],
      "name": "createPackAtomic",
      "outputs": [],
      "stateMutability": "nonpayable",
      "type": "function"
    },
    {
      "inputs": [
        {
          "internalType": "uint256",
          "name": "_nftId",
          "type": "uint256"
        }
      ],
      "name": "creator",
      "outputs": [
        {
          "internalType": "address",
          "name": "",
          "type": "address"
        }
      ],
      "stateMutability": "view",
      "type": "function"
    },
    {
      "inputs": [
        {
          "internalType": "uint256",
          "name": "",
          "type": "uint256"
        }
      ],
      "name": "erc20WrappedNfts",
      "outputs": [
        {
          "internalType": "address",
          "name": "tokenContract",
          "type": "address"
        },
        {
          "internalType": "uint256",
          "name": "shares",
          "type": "uint256"
        },
        {
          "internalType": "uint256",
          "name": "underlyingTokenAmount",
          "type": "uint256"
        }
      ],
      "stateMutability": "view",
      "type": "function"
    },
    {
      "inputs": [
        {
          "internalType": "uint256",
          "name": "",
          "type": "uint256"
        }
      ],
      "name": "erc721WrappedNfts",
      "outputs": [
        {
          "internalType": "address",
          "name": "nftContract",
          "type": "address"
        },
        {
          "internalType": "uint256",
          "name": "nftTokenId",
          "type": "uint256"
        }
      ],
      "stateMutability": "view",
      "type": "function"
    },
    {
      "inputs": [
        {
          "internalType": "bytes32",
          "name": "role",
          "type": "bytes32"
        }
      ],
      "name": "getRoleAdmin",
      "outputs": [
        {
          "internalType": "bytes32",
          "name": "",
          "type": "bytes32"
        }
      ],
      "stateMutability": "view",
      "type": "function"
    },
    {
      "inputs": [
        {
          "internalType": "bytes32",
          "name": "role",
          "type": "bytes32"
        },
        {
          "internalType": "uint256",
          "name": "index",
          "type": "uint256"
        }
      ],
      "name": "getRoleMember",
      "outputs": [
        {
          "internalType": "address",
          "name": "",
          "type": "address"
        }
      ],
      "stateMutability": "view",
      "type": "function"
    },
    {
      "inputs": [
        {
          "internalType": "bytes32",
          "name": "role",
          "type": "bytes32"
        }
      ],
      "name": "getRoleMemberCount",
      "outputs": [
        {
          "internalType": "uint256",
          "name": "",
          "type": "uint256"
        }
      ],
      "stateMutability": "view",
      "type": "function"
    },
    {
      "inputs": [
        {
          "internalType": "bytes32",
          "name": "role",
          "type": "bytes32"
        },
        {
          "internalType": "address",
          "name": "account",
          "type": "address"
        }
      ],
      "name": "grantRole",
      "outputs": [],
      "stateMutability": "nonpayable",
      "type": "function"
    },
    {
      "inputs": [
        {
          "internalType": "bytes32",
          "name": "role",
          "type": "bytes32"
        },
        {
          "internalType": "address",
          "name": "account",
          "type": "address"
        }
      ],
      "name": "hasRole",
      "outputs": [
        {
          "internalType": "bool",
          "name": "",
          "type": "bool"
        }
      ],
      "stateMutability": "view",
      "type": "function"
    },
    {
      "inputs": [
        {
          "internalType": "address",
          "name": "account",
          "type": "address"
        },
        {
          "internalType": "address",
          "name": "operator",
          "type": "address"
        }
      ],
      "name": "isApprovedForAll",
      "outputs": [
        {
          "internalType": "bool",
          "name": "",
          "type": "bool"
        }
      ],
      "stateMutability": "view",
      "type": "function"
    },
    {
      "inputs": [],
      "name": "isRestrictedTransfer",
      "outputs": [
        {
          "internalType": "bool",
          "name": "",
          "type": "bool"
        }
      ],
      "stateMutability": "view",
      "type": "function"
    },
    {
      "inputs": [
        {
          "internalType": "address",
          "name": "forwarder",
          "type": "address"
        }
      ],
      "name": "isTrustedForwarder",
      "outputs": [
        {
          "internalType": "bool",
          "name": "",
          "type": "bool"
        }
      ],
      "stateMutability": "view",
      "type": "function"
    },
    {
      "inputs": [
        {
          "internalType": "address",
          "name": "",
          "type": "address"
        },
        {
          "internalType": "uint256",
          "name": "",
          "type": "uint256"
        },
        {
          "internalType": "uint256",
          "name": "",
          "type": "uint256"
        },
        {
          "internalType": "bytes",
          "name": "",
          "type": "bytes"
        }
      ],
      "name": "mint",
      "outputs": [],
      "stateMutability": "pure",
      "type": "function"
    },
    {
      "inputs": [
        {
          "internalType": "address",
          "name": "",
          "type": "address"
        },
        {
          "internalType": "uint256[]",
          "name": "",
          "type": "uint256[]"
        },
        {
          "internalType": "uint256[]",
          "name": "",
          "type": "uint256[]"
        },
        {
          "internalType": "bytes",
          "name": "",
          "type": "bytes"
        }
      ],
      "name": "mintBatch",
      "outputs": [],
      "stateMutability": "pure",
      "type": "function"
    },
    {
      "inputs": [],
      "name": "nextTokenId",
      "outputs": [
        {
          "internalType": "uint256",
          "name": "",
          "type": "uint256"
        }
      ],
      "stateMutability": "view",
      "type": "function"
    },
    {
      "inputs": [
        {
          "internalType": "uint256",
          "name": "",
          "type": "uint256"
        }
      ],
      "name": "nftInfo",
      "outputs": [
        {
          "internalType": "address",
          "name": "creator",
          "type": "address"
        },
        {
          "internalType": "string",
          "name": "uri",
          "type": "string"
        },
        {
          "internalType": "enum NFTCollection.UnderlyingType",
          "name": "underlyingType",
          "type": "uint8"
        }
      ],
      "stateMutability": "view",
      "type": "function"
    },
    {
      "inputs": [
        {
          "internalType": "address",
          "name": "",
          "type": "address"
        },
        {
          "internalType": "address",
          "name": "",
          "type": "address"
        },
        {
          "internalType": "uint256[]",
          "name": "",
          "type": "uint256[]"
        },
        {
          "internalType": "uint256[]",
          "name": "",
          "type": "uint256[]"
        },
        {
          "internalType": "bytes",
          "name": "",
          "type": "bytes"
        }
      ],
      "name": "onERC1155BatchReceived",
      "outputs": [
        {
          "internalType": "bytes4",
          "name": "",
          "type": "bytes4"
        }
      ],
      "stateMutability": "nonpayable",
      "type": "function"
    },
    {
      "inputs": [
        {
          "internalType": "address",
          "name": "",
          "type": "address"
        },
        {
          "internalType": "address",
          "name": "",
          "type": "address"
        },
        {
          "internalType": "uint256",
          "name": "",
          "type": "uint256"
        },
        {
          "internalType": "uint256",
          "name": "",
          "type": "uint256"
        },
        {
          "internalType": "bytes",
          "name": "",
          "type": "bytes"
        }
      ],
      "name": "onERC1155Received",
      "outputs": [
        {
          "internalType": "bytes4",
          "name": "",
          "type": "bytes4"
        }
      ],
      "stateMutability": "nonpayable",
      "type": "function"
    },
    {
      "inputs": [
        {
          "internalType": "address",
          "name": "",
          "type": "address"
        },
        {
          "internalType": "address",
          "name": "",
          "type": "address"
        },
        {
          "internalType": "uint256",
          "name": "",
          "type": "uint256"
        },
        {
          "internalType": "bytes",
          "name": "",
          "type": "bytes"
        }
      ],
      "name": "onERC721Received",
      "outputs": [
        {
          "internalType": "bytes4",
          "name": "",
          "type": "bytes4"
        }
      ],
      "stateMutability": "nonpayable",
      "type": "function"
    },
    {
      "inputs": [],
      "name": "pause",
      "outputs": [],
      "stateMutability": "nonpayable",
      "type": "function"
    },
    {
      "inputs": [],
      "name": "paused",
      "outputs": [
        {
          "internalType": "bool",
          "name": "",
          "type": "bool"
        }
      ],
      "stateMutability": "view",
      "type": "function"
    },
    {
      "inputs": [
        {
          "internalType": "uint256",
          "name": "_nftId",
          "type": "uint256"
        },
        {
          "internalType": "uint256",
          "name": "_amount",
          "type": "uint256"
        }
      ],
      "name": "redeemERC20",
      "outputs": [],
      "stateMutability": "nonpayable",
      "type": "function"
    },
    {
      "inputs": [
        {
          "internalType": "uint256",
          "name": "_nftId",
          "type": "uint256"
        }
      ],
      "name": "redeemERC721",
      "outputs": [],
      "stateMutability": "nonpayable",
      "type": "function"
    },
    {
      "inputs": [
        {
          "internalType": "bytes32",
          "name": "role",
          "type": "bytes32"
        },
        {
          "internalType": "address",
          "name": "account",
          "type": "address"
        }
      ],
      "name": "renounceRole",
      "outputs": [],
      "stateMutability": "nonpayable",
      "type": "function"
    },
    {
      "inputs": [
        {
          "internalType": "bytes32",
          "name": "role",
          "type": "bytes32"
        },
        {
          "internalType": "address",
          "name": "account",
          "type": "address"
        }
      ],
      "name": "revokeRole",
      "outputs": [],
      "stateMutability": "nonpayable",
      "type": "function"
    },
    {
      "inputs": [],
      "name": "royaltyBps",
      "outputs": [
        {
          "internalType": "uint256",
          "name": "",
          "type": "uint256"
        }
      ],
      "stateMutability": "view",
      "type": "function"
    },
    {
      "inputs": [
        {
          "internalType": "uint256",
          "name": "tokenId",
          "type": "uint256"
        },
        {
          "internalType": "uint256",
          "name": "salePrice",
          "type": "uint256"
        }
      ],
      "name": "royaltyInfo",
      "outputs": [
        {
          "internalType": "address",
          "name": "receiver",
          "type": "address"
        },
        {
          "internalType": "uint256",
          "name": "royaltyAmount",
          "type": "uint256"
        }
      ],
      "stateMutability": "view",
      "type": "function"
    },
    {
      "inputs": [
        {
          "internalType": "address",
          "name": "from",
          "type": "address"
        },
        {
          "internalType": "address",
          "name": "to",
          "type": "address"
        },
        {
          "internalType": "uint256[]",
          "name": "ids",
          "type": "uint256[]"
        },
        {
          "internalType": "uint256[]",
          "name": "amounts",
          "type": "uint256[]"
        },
        {
          "internalType": "bytes",
          "name": "data",
          "type": "bytes"
        }
      ],
      "name": "safeBatchTransferFrom",
      "outputs": [],
      "stateMutability": "nonpayable",
      "type": "function"
    },
    {
      "inputs": [
        {
          "internalType": "address",
          "name": "from",
          "type": "address"
        },
        {
          "internalType": "address",
          "name": "to",
          "type": "address"
        },
        {
          "internalType": "uint256",
          "name": "id",
          "type": "uint256"
        },
        {
          "internalType": "uint256",
          "name": "amount",
          "type": "uint256"
        },
        {
          "internalType": "bytes",
          "name": "data",
          "type": "bytes"
        }
      ],
      "name": "safeTransferFrom",
      "outputs": [],
      "stateMutability": "nonpayable",
      "type": "function"
    },
    {
      "inputs": [
        {
          "internalType": "address",
          "name": "operator",
          "type": "address"
        },
        {
          "internalType": "bool",
          "name": "approved",
          "type": "bool"
        }
      ],
      "name": "setApprovalForAll",
      "outputs": [],
      "stateMutability": "nonpayable",
      "type": "function"
    },
    {
      "inputs": [
        {
          "internalType": "string",
          "name": "_URI",
          "type": "string"
        }
      ],
      "name": "setContractURI",
      "outputs": [],
      "stateMutability": "nonpayable",
      "type": "function"
    },
    {
      "inputs": [
        {
          "internalType": "bool",
          "name": "_restrictedTransfer",
          "type": "bool"
        }
      ],
      "name": "setRestrictedTransfer",
      "outputs": [],
      "stateMutability": "nonpayable",
      "type": "function"
    },
    {
      "inputs": [
        {
          "internalType": "uint256",
          "name": "_royaltyBps",
          "type": "uint256"
        }
      ],
      "name": "setRoyaltyBps",
      "outputs": [],
      "stateMutability": "nonpayable",
      "type": "function"
    },
    {
      "inputs": [
        {
          "internalType": "bytes4",
          "name": "interfaceId",
          "type": "bytes4"
        }
      ],
      "name": "supportsInterface",
      "outputs": [
        {
          "internalType": "bool",
          "name": "",
          "type": "bool"
        }
      ],
      "stateMutability": "view",
      "type": "function"
    },
    {
      "inputs": [
        {
          "internalType": "uint256",
          "name": "_nftId",
          "type": "uint256"
        }
      ],
      "name": "tokenURI",
      "outputs": [
        {
          "internalType": "string",
          "name": "",
          "type": "string"
        }
      ],
      "stateMutability": "view",
      "type": "function"
    },
    {
      "inputs": [
        {
          "internalType": "uint256",
          "name": "id",
          "type": "uint256"
        }
      ],
      "name": "totalSupply",
      "outputs": [
        {
          "internalType": "uint256",
          "name": "",
          "type": "uint256"
        }
      ],
      "stateMutability": "view",
      "type": "function"
    },
    {
      "inputs": [],
      "name": "unpause",
      "outputs": [],
      "stateMutability": "nonpayable",
      "type": "function"
    },
    {
      "inputs": [
        {
          "internalType": "uint256",
          "name": "_nftId",
          "type": "uint256"
        }
      ],
      "name": "uri",
      "outputs": [
        {
          "internalType": "string",
          "name": "",
          "type": "string"
        }
      ],
      "stateMutability": "view",
      "type": "function"
    },
    {
      "inputs": [
        {
          "internalType": "address",
          "name": "_tokenContract",
          "type": "address"
        },
        {
          "internalType": "uint256",
          "name": "_tokenAmount",
          "type": "uint256"
        },
        {
          "internalType": "uint256",
          "name": "_numOfNftsToMint",
          "type": "uint256"
        },
        {
          "internalType": "string",
          "name": "_nftURI",
          "type": "string"
        }
      ],
      "name": "wrapERC20",
      "outputs": [],
      "stateMutability": "nonpayable",
      "type": "function"
    },
    {
      "inputs": [
        {
          "internalType": "address",
          "name": "_nftContract",
          "type": "address"
        },
        {
          "internalType": "uint256",
          "name": "_tokenId",
          "type": "uint256"
        },
        {
          "internalType": "string",
          "name": "_nftURI",
          "type": "string"
        }
      ],
      "name": "wrapERC721",
      "outputs": [],
      "stateMutability": "nonpayable",
      "type": "function"
    }
  ],
  "bytecode": "0x60806040523480156200001157600080fd5b506040516200602038038062006020833981016040819052620000349162000423565b828282818180620000458162000134565b506005805460ff19169055620000666000620000606200014d565b6200016a565b6200008460008051602062006000833981519152620000606200014d565b620000b37f65d7a28e3265b37a6474929f336521b332c1681b933f6cb9f3376673440d862a620000606200014d565b50600780546001600160a01b03199081166001600160a01b0393841617909155600880549091169185169190911790558051620000f890600b9060208401906200037d565b50620001287f8502233096d909befbda0999bb8ea2f3a6be3c138b9fbf003752a4c8bce86f6c620000606200014d565b5050505050506200058c565b8051620001499060049060208401906200037d565b5050565b600062000164620001ad60201b620027cc1760201c565b90505b90565b620001818282620001ed60201b620027fa1760201c565b6000828152600160209081526040909120620001a891839062002808620001f9821b17901c565b505050565b6000620001ba3362000219565b15620001d0575060131936013560601c62000167565b620001e56200022d60201b6200281d1760201c565b905062000167565b62000149828262000231565b600062000210836001600160a01b038416620002bb565b90505b92915050565b6007546001600160a01b0390811691161490565b3390565b6200023d82826200030a565b62000149576000828152602081815260408083206001600160a01b03851684529091529020805460ff19166001179055620002776200014d565b6001600160a01b0316816001600160a01b0316837f2f8788117e7eff1d82e926ec794901d17c78024a50270940304540a733656f0d60405160405180910390a45050565b6000620002c983836200033c565b620003015750815460018181018455600084815260208082209093018490558454848252828601909352604090209190915562000213565b50600062000213565b6000600080516020620060008339815191528314806200021057506200021083836200035460201b620028211760201c565b60009081526001919091016020526040902054151590565b6000918252602082815260408084206001600160a01b0393909316845291905290205460ff1690565b8280546200038b9062000520565b90600052602060002090601f016020900481019282620003af5760008555620003fa565b82601f10620003ca57805160ff1916838001178555620003fa565b82800160010185558215620003fa579182015b82811115620003fa578251825591602001919060010190620003dd565b50620004089291506200040c565b5090565b5b808211156200040857600081556001016200040d565b60008060006060848603121562000438578283fd5b8351620004458162000573565b809350506020808501516200045a8162000573565b60408601519093506001600160401b038082111562000477578384fd5b818701915087601f8301126200048b578384fd5b815181811115620004a057620004a06200055d565b604051601f8201601f1916810185018381118282101715620004c657620004c66200055d565b60405281815283820185018a1015620004dd578586fd5b8592505b81831015620005005783830185015181840186015291840191620004e1565b818311156200051157858583830101525b80955050505050509250925092565b6002810460018216806200053557607f821691505b602082108114156200055757634e487b7160e01b600052602260045260246000fd5b50919050565b634e487b7160e01b600052604160045260246000fd5b6001600160a01b03811681146200058957600080fd5b50565b615a64806200059c6000396000f3fe608060405234801561001057600080fd5b50600436106103405760003560e01c80637a61080b116101bd578063c63adb2b116100f9578063ddfa3e22116100a2578063e985e9c51161007c578063e985e9c5146106b0578063f23a6e61146106c3578063f242432a146106d6578063f5298aca146106e957610340565b8063ddfa3e221461068d578063e63ab1e9146106a0578063e8a3d485146106a857610340565b8063d5391393116100d3578063d53913931461065f578063d547741f14610667578063db884b0c1461067a57610340565b8063c63adb2b14610644578063c87b56dd146103a3578063ca15c8731461064c57610340565b8063938e3d7b11610166578063a22cb46511610140578063a22cb46514610603578063bc197c8114610616578063bd85b03914610629578063c0e727401461063c57610340565b8063938e3d7b146105d557806393b778d4146105e8578063a217fddf146105fb57610340565b80638ba448c2116101975780638ba448c21461059c5780639010d07c146105af57806391d14854146105c257610340565b80637a61080b1461057957806383661b291461058c5780638456cb591461059457610340565b80632eb2c2d61161028c578063510b5158116102355780636b20c4541161020f5780636b20c45414610538578063731133e91461054b57806375794a3c1461055e578063788f1f5e1461056657610340565b8063510b5158146104fd578063572b6c051461051d5780635c975abb1461053057610340565b80633f4ba83a116102665780633f4ba83a146104c257806341466a95146104ca5780634e1273f4146104ea57610340565b80632eb2c2d6146104895780632f2ff15d1461049c57806336568abe146104af57610340565b80631f72d831116102ee578063206b60f9116102c8578063206b60f91461044d578063248a9ca3146104555780632a55205a1461046857610340565b80631f72d831146104055780631f7fdffa146104185780631f8bc7901461042b57610340565b80630e89341c1161031f5780630e89341c146103a3578063150b7a02146103c35780631ceb2dc2146103e357610340565b8062fdd58e1461034557806301ffc9a71461036e578063090a32821461038e575b600080fd5b6103586103533660046142cf565b6106fc565b6040516103659190614a91565b60405180910390f35b61038161037c366004614603565b610758565b6040516103659190614a86565b6103a161039c3660046142fa565b610783565b005b6103b66103b136600461458e565b610c7b565b6040516103659190614af7565b6103d66103d1366004614010565b610d20565b6040516103659190614ab1565b6103f66103f136600461458e565b610d30565b60405161036593929190614965565b6103a161041336600461458e565b610d5b565b6103a1610426366004614217565b610ff7565b61043e61043936600461458e565b61100f565b604051610365939291906148fc565b6103586110c7565b61035861046336600461458e565b6110eb565b61047b6104763660046145e2565b611100565b60405161036592919061494c565b6103a1610497366004613f66565b6111c1565b6103a16104aa3660046145be565b61121f565b6103a16104bd3660046145be565b611246565b6103a1611268565b6104dd6104d83660046144f9565b6112ba565b6040516103659190614986565b6104dd6104f8366004614439565b61164d565b61051061050b36600461458e565b61176d565b6040516103659190614809565b61038161052b366004613ef6565b611788565b61038161179c565b6103a16105463660046141a4565b6117a6565b6103a1610559366004614388565b6117fb565b610358611813565b6103a16105743660046140e1565b611819565b6103a16105873660046145e2565b611996565b610381611b21565b6103a1611b31565b6103a16105aa366004614556565b611b81565b6105106105bd3660046145e2565b611cd0565b6103816105d03660046145be565b611cef565b6103a16105e336600461463b565b611d24565b6103a16105f636600461458e565b611e46565b610358611f93565b6103a16106113660046142a2565b611f98565b6103d6610624366004613f66565b612066565b61035861063736600461458e565b612077565b6103b6612089565b610358612117565b61035861065a36600461458e565b61211d565b610358612134565b6103a16106753660046145be565b612158565b6103a16106883660046143d1565b612162565b61047b61069b36600461458e565b612606565b61035861262b565b6103b661264f565b6103816106be366004613f2e565b6126e1565b6103d66106d136600461407a565b61270f565b6103a16106e436600461407a565b612720565b6103a16106f7366004614354565b612777565b60006001600160a01b03831661072d5760405162461bcd60e51b815260040161072490614c30565b60405180910390fd5b5060008181526002602090815260408083206001600160a01b03861684529091529020545b92915050565b60006107638261284a565b8061075257506001600160e01b0319821663152a902d60e11b1492915050565b600860009054906101000a90046001600160a01b03166001600160a01b0316639d2f83f06040518163ffffffff1660e01b815260040160206040518083038186803b1580156107d157600080fd5b505afa1580156107e5573d6000803e3d6000fd5b505050506040513d601f19601f820116820180604052508101906108099190614572565b156108265760405162461bcd60e51b815260040161072490615237565b6108527f9f2df0fed2c77648de5860a4cc508cd0818c85b8b8a1ab4ceeef8d981c8956a66105d0612855565b61086e5760405162461bcd60e51b8152600401610724906150b7565b610876612855565b6001600160a01b0316846001600160a01b0316636352211e856040518263ffffffff1660e01b81526004016108ab9190614a91565b60206040518083038186803b1580156108c357600080fd5b505afa1580156108d7573d6000803e3d6000fd5b505050506040513d601f19601f820116820180604052508101906108fb9190613f12565b6001600160a01b0316146109215760405162461bcd60e51b81526004016107249061552c565b60405163020604bf60e21b815230906001600160a01b0386169063081812fc9061094f908790600401614a91565b60206040518083038186803b15801561096757600080fd5b505afa15801561097b573d6000803e3d6000fd5b505050506040513d601f19601f8201168201806040525081019061099f9190613f12565b6001600160a01b03161480610a345750836001600160a01b031663e985e9c56109c6612855565b306040518363ffffffff1660e01b81526004016109e492919061481d565b60206040518083038186803b1580156109fc57600080fd5b505afa158015610a10573d6000803e3d6000fd5b505050506040513d601f19601f82011682018060405250810190610a349190614572565b610a505760405162461bcd60e51b815260040161072490614d8b565b836001600160a01b03166342842e0e610a67612855565b30866040518463ffffffff1660e01b8152600401610a8793929190614895565b600060405180830381600087803b158015610aa157600080fd5b505af1158015610ab5573d6000803e3d6000fd5b50505050610ade610ac4612855565b600954600160405180602001604052806000815250612864565b6040518060600160405280610af1612855565b6001600160a01b0316815260200183838080601f016020809104026020016040519081016040528093929190818152602001838380828437600092018290525093855250506002602093840152506009548152600c825260409020825181546001600160a01b0319166001600160a01b039091161781558282015180519192610b8292600185019290910190613c89565b5060408201518160020160006101000a81548160ff02191690836002811115610bbb57634e487b7160e01b600052602160045260246000fd5b0217905550506040805180820182526001600160a01b0387811680835260208084018981526009546000908152600d909252949020925183546001600160a01b031916921691909117825591516001909101559050610c18612855565b6001600160a01b03167fdae1779be741094a20f8287fd2c7a4d2d745eeae29c438867017066ae27a1bc4856009548686604051610c58949392919061574c565b60405180910390a360098054906000610c7083615929565b919050555050505050565b6000818152600c60205260409020600101805460609190610c9b906158ee565b80601f0160208091040260200160405190810160405280929190818152602001828054610cc7906158ee565b8015610d145780601f10610ce957610100808354040283529160200191610d14565b820191906000526020600020905b815481529060010190602001808311610cf757829003601f168201915b50505050509050919050565b630a85bd0160e11b949350505050565b600e602052600090815260409020805460018201546002909201546001600160a01b03909116919083565b60085460408051634a32c6bf60e11b815290516001600160a01b03909216916391d148549183916394658d7e91600480820192602092909190829003018186803b158015610da857600080fd5b505afa158015610dbc573d6000803e3d6000fd5b505050506040513d601f19601f82011682018060405250810190610de091906145a6565b610de8612855565b6040518363ffffffff1660e01b8152600401610e05929190614a9a565b60206040518083038186803b158015610e1d57600080fd5b505afa158015610e31573d6000803e3d6000fd5b505050506040513d601f19601f82011682018060405250810190610e559190614572565b610e715760405162461bcd60e51b8152600401610724906153b8565b600860009054906101000a90046001600160a01b03166001600160a01b0316635cd423156040518163ffffffff1660e01b815260040160206040518083038186803b158015610ebf57600080fd5b505afa158015610ed3573d6000803e3d6000fd5b505050506040513d601f19601f82011682018060405250810190610ef7919061467b565b600860009054906101000a90046001600160a01b03166001600160a01b031663fd967f476040518163ffffffff1660e01b815260040160206040518083038186803b158015610f4557600080fd5b505afa158015610f59573d6000803e3d6000fd5b505050506040513d601f19601f82011682018060405250810190610f7d919061467b565b610f879190615809565b6fffffffffffffffffffffffffffffffff168110610fb75760405162461bcd60e51b8152600401610724906151da565b600a8190556040517f244ea8d7627f5a08f4299862bd5a45752842c183aee5b0fb0d1e4887bfa605b390610fec908390614a91565b60405180910390a150565b60405162461bcd60e51b815260040161072490614d2e565b600c60205260009081526040902080546001820180546001600160a01b03909216929161103b906158ee565b80601f0160208091040260200160405190810160405280929190818152602001828054611067906158ee565b80156110b45780601f10611089576101008083540402835291602001916110b4565b820191906000526020600020905b81548152906001019060200180831161109757829003601f168201915b5050506002909301549192505060ff1683565b7f8502233096d909befbda0999bb8ea2f3a6be3c138b9fbf003752a4c8bce86f6c81565b60009081526020819052604090206001015490565b6000828152600c6020908152604080832054600854825163fd967f4760e01b815292516001600160a01b039283169594919092169263fd967f479260048083019392829003018186803b15801561115657600080fd5b505afa15801561116a573d6000803e3d6000fd5b505050506040513d601f19601f8201168201806040525081019061118e919061467b565b6fffffffffffffffffffffffffffffffff16600a54846111ae9190615875565b6111b89190615855565b90509250929050565b6111c9612855565b6001600160a01b0316856001600160a01b031614806111ef57506111ef856106be612855565b61120b5760405162461bcd60e51b81526004016107249061505a565b6112188585858585612899565b5050505050565b6112298282612a6d565b60008281526001602052604090206112419082612808565b505050565b6112508282612a91565b60008281526001602052604090206112419082612ad3565b6112947f65d7a28e3265b37a6474929f336521b332c1681b933f6cb9f3376673440d862a6105d0612855565b6112b05760405162461bcd60e51b8152600401610724906152fe565b6112b8612ae8565b565b600854604080516309d2f83f60e41b815290516060926001600160a01b031691639d2f83f0916004808301926020929190829003018186803b1580156112ff57600080fd5b505afa158015611313573d6000803e3d6000fd5b505050506040513d601f19601f820116820180604052508101906113379190614572565b156113545760405162461bcd60e51b815260040161072490615237565b6113807f9f2df0fed2c77648de5860a4cc508cd0818c85b8b8a1ab4ceeef8d981c8956a66105d0612855565b61139c5760405162461bcd60e51b8152600401610724906150b7565b8382146113bb5760405162461bcd60e51b815260040161072490614f00565b836113d85760405162461bcd60e51b815260040161072490615589565b8367ffffffffffffffff8111156113ff57634e487b7160e01b600052604160045260246000fd5b604051908082528060200260200182016040528015611428578160200160208202803683370190505b50905060005b848110156115a15760095482828151811061145957634e487b7160e01b600052603260045260246000fd5b6020026020010181815250506040518060600160405280611478612855565b6001600160a01b031681526020018787848181106114a657634e487b7160e01b600052603260045260246000fd5b90506020028101906114b89190615776565b8080601f016020809104026020016040519081016040528093929190818152602001838380828437600092018290525093855250505060209182018190526009548152600c825260409020825181546001600160a01b0319166001600160a01b03909116178155828201518051919261153992600185019290910190613c89565b5060408201518160020160006101000a81548160ff0219169083600281111561157257634e487b7160e01b600052602160045260246000fd5b021790555050600980549150600061158983615929565b9190505550808061159990615929565b91505061142e565b506115f56115ad612855565b82858580806020026020016040519081016040528093929190818152602001838360200280828437600092018290525060408051602081019091529081529250612b56915050565b6115fd612855565b6001600160a01b03167f9ead818be0b43d79a78daaabe6c787d254ac1279ac99d9ff62b6b227804f7b33828787878760405161163d959493929190614999565b60405180910390a2949350505050565b606081518351146116705760405162461bcd60e51b815260040161072490615472565b6000835167ffffffffffffffff81111561169a57634e487b7160e01b600052604160045260246000fd5b6040519080825280602002602001820160405280156116c3578160200160208202803683370190505b50905060005b84518110156117655761172a8582815181106116f557634e487b7160e01b600052603260045260246000fd5b602002602001015185838151811061171d57634e487b7160e01b600052603260045260246000fd5b60200260200101516106fc565b82828151811061174a57634e487b7160e01b600052603260045260246000fd5b602090810291909101015261175e81615929565b90506116c9565b509392505050565b6000908152600c60205260409020546001600160a01b031690565b6007546001600160a01b0390811691161490565b60055460ff165b90565b6117ae612855565b6001600160a01b0316836001600160a01b031614806117d457506117d4836106be612855565b6117f05760405162461bcd60e51b815260040161072490614e45565b611241838383612bf5565b60405162461bcd60e51b815260040161072490615684565b60095481565b600860009054906101000a90046001600160a01b03166001600160a01b0316639d2f83f06040518163ffffffff1660e01b815260040160206040518083038186803b15801561186757600080fd5b505afa15801561187b573d6000803e3d6000fd5b505050506040513d601f19601f8201168201806040525081019061189f9190614572565b156118bc5760405162461bcd60e51b815260040161072490615237565b6118e87f9f2df0fed2c77648de5860a4cc508cd0818c85b8b8a1ab4ceeef8d981c8956a66105d0612855565b6119045760405162461bcd60e51b8152600401610724906150b7565b60006119128a8a8a8a6112ba565b90506000868686868660405160200161192f959493929190614ac6565b604051602081830303815290604052905061198861194b612855565b8d848c8c808060200260200160405190810160405280939291908181526020018383602002808284376000920191909152508892506111c1915050565b505050505050505050505050565b806119a86119a2612855565b846106fc565b10156119c65760405162461bcd60e51b8152600401610724906154cf565b6119d86119d1612855565b8383612c99565b6000828152600e6020526040812060018101546002909101546119fc908490615875565b611a069190615855565b6000848152600e60205260409020549091506001600160a01b031663a9059cbb611a2e612855565b836040518363ffffffff1660e01b8152600401611a4c92919061494c565b602060405180830381600087803b158015611a6657600080fd5b505af1158015611a7a573d6000803e3d6000fd5b505050506040513d601f19601f82011682018060405250810190611a9e9190614572565b611aba5760405162461bcd60e51b815260040161072490614c8d565b6000838152600e60205260409020546001600160a01b0316611ada612855565b6001600160a01b03167fb7ca9e3aa58248cbaa6a5f83ca826cc57bf8ecd128fd88da420e294353c652f98385604051611b1492919061573e565b60405180910390a3505050565b600754600160a01b900460ff1681565b611b5d7f65d7a28e3265b37a6474929f336521b332c1681b933f6cb9f3376673440d862a6105d0612855565b611b795760405162461bcd60e51b81526004016107249061535b565b6112b8612ccc565b60085460408051634a32c6bf60e11b815290516001600160a01b03909216916391d148549183916394658d7e91600480820192602092909190829003018186803b158015611bce57600080fd5b505afa158015611be2573d6000803e3d6000fd5b505050506040513d601f19601f82011682018060405250810190611c0691906145a6565b611c0e612855565b6040518363ffffffff1660e01b8152600401611c2b929190614a9a565b60206040518083038186803b158015611c4357600080fd5b505afa158015611c57573d6000803e3d6000fd5b505050506040513d601f19601f82011682018060405250810190611c7b9190614572565b611c975760405162461bcd60e51b8152600401610724906153b8565b60078054911515600160a01b027fffffffffffffffffffffff00ffffffffffffffffffffffffffffffffffffffff909216919091179055565b6000828152600160205260408120611ce89083612d27565b9392505050565b60007f9f2df0fed2c77648de5860a4cc508cd0818c85b8b8a1ab4ceeef8d981c8956a6831480611ce85750611ce88383612821565b60085460408051634a32c6bf60e11b815290516001600160a01b03909216916391d148549183916394658d7e91600480820192602092909190829003018186803b158015611d7157600080fd5b505afa158015611d85573d6000803e3d6000fd5b505050506040513d601f19601f82011682018060405250810190611da991906145a6565b611db1612855565b6040518363ffffffff1660e01b8152600401611dce929190614a9a565b60206040518083038186803b158015611de657600080fd5b505afa158015611dfa573d6000803e3d6000fd5b505050506040513d601f19601f82011682018060405250810190611e1e9190614572565b611e3a5760405162461bcd60e51b8152600401610724906153b8565b611241600b8383613d0d565b6000611e59611e53612855565b836106fc565b11611e765760405162461bcd60e51b8152600401610724906154cf565b611e89611e81612855565b826001612c99565b6000818152600d60205260409020546001600160a01b03166342842e0e30611eaf612855565b6000858152600d6020526040908190206001015490516001600160e01b031960e086901b168152611ee593929190600401614895565b600060405180830381600087803b158015611eff57600080fd5b505af1158015611f13573d6000803e3d6000fd5b5050506000828152600d60205260409020546001600160a01b03169050611f38612855565b6001600160a01b03167fea7b88a04220a2292e142652e8e1a59cc00e7d27d8ad6b11da6cf5870e6ba866600d60008581526020019081526020016000206001015484604051611f8892919061573e565b60405180910390a350565b600081565b816001600160a01b0316611faa612855565b6001600160a01b03161415611fd15760405162461bcd60e51b815260040161072490615415565b8060036000611fde612855565b6001600160a01b03908116825260208083019390935260409182016000908120918716808252919093529120805460ff191692151592909217909155612022612855565b6001600160a01b03167f17307eab39ab6107e8899845ad3d59bd9653f200f220920489ca2b5937696c318360405161205a9190614a86565b60405180910390a35050565b63bc197c8160e01b95945050505050565b60009081526006602052604090205490565b600b8054612096906158ee565b80601f01602080910402602001604051908101604052809291908181526020018280546120c2906158ee565b801561210f5780601f106120e45761010080835404028352916020019161210f565b820191906000526020600020905b8154815290600101906020018083116120f257829003601f168201915b505050505081565b600a5481565b600081815260016020526040812061075290612d33565b7f9f2df0fed2c77648de5860a4cc508cd0818c85b8b8a1ab4ceeef8d981c8956a681565b6112508282612d3e565b600860009054906101000a90046001600160a01b03166001600160a01b0316639d2f83f06040518163ffffffff1660e01b815260040160206040518083038186803b1580156121b057600080fd5b505afa1580156121c4573d6000803e3d6000fd5b505050506040513d601f19601f820116820180604052508101906121e89190614572565b156122055760405162461bcd60e51b815260040161072490615237565b6122317f9f2df0fed2c77648de5860a4cc508cd0818c85b8b8a1ab4ceeef8d981c8956a66105d0612855565b61224d5760405162461bcd60e51b8152600401610724906150b7565b83856001600160a01b03166370a08231612265612855565b6040518263ffffffff1660e01b81526004016122819190614809565b60206040518083038186803b15801561229957600080fd5b505afa1580156122ad573d6000803e3d6000fd5b505050506040513d601f19601f820116820180604052508101906122d191906145a6565b10156122ef5760405162461bcd60e51b815260040161072490615294565b83856001600160a01b031663dd62ed3e612307612855565b306040518363ffffffff1660e01b815260040161232592919061481d565b60206040518083038186803b15801561233d57600080fd5b505afa158015612351573d6000803e3d6000fd5b505050506040513d601f19601f8201168201806040525081019061237591906145a6565b10156123935760405162461bcd60e51b815260040161072490614f94565b846001600160a01b03166323b872dd6123aa612855565b30876040518463ffffffff1660e01b81526004016123ca93929190614895565b602060405180830381600087803b1580156123e457600080fd5b505af11580156123f8573d6000803e3d6000fd5b505050506040513d601f19601f8201168201806040525081019061241c9190614572565b6124385760405162461bcd60e51b815260040161072490614c8d565b61245c612443612855565b6009548560405180602001604052806000815250612864565b604051806060016040528061246f612855565b6001600160a01b0316815260200183838080601f01602080910402602001604051908101604052809392919081815260200183838082843760009201829052509385525050600160209384018190526009548352600c84526040909220845181546001600160a01b0319166001600160a01b0390911617815584840151805191946124ff94860193500190613c89565b5060408201518160020160006101000a81548160ff0219169083600281111561253857634e487b7160e01b600052602160045260246000fd5b021790555050604080516060810182526001600160a01b0388811680835260208084018981528486018b81526009546000908152600e90935295909120935184546001600160a01b031916931692909217835590516001830155915160029091015590506125a4612855565b6001600160a01b03167fd8bffec4446d425694f73630f7822315baa62da5311e89f0d83335ef6a3917ba868686866040516125e2949392919061574c565b60405180910390a3600980549060006125fa83615929565b91905055505050505050565b600d60205260009081526040902080546001909101546001600160a01b039091169082565b7f65d7a28e3265b37a6474929f336521b332c1681b933f6cb9f3376673440d862a81565b6060600b805461265e906158ee565b80601f016020809104026020016040519081016040528092919081815260200182805461268a906158ee565b80156126d75780601f106126ac576101008083540402835291602001916126d7565b820191906000526020600020905b8154815290600101906020018083116126ba57829003601f168201915b5050505050905090565b6001600160a01b03918216600090815260036020908152604080832093909416825291909152205460ff1690565b63f23a6e6160e01b95945050505050565b612728612855565b6001600160a01b0316856001600160a01b0316148061274e575061274e856106be612855565b61276a5760405162461bcd60e51b815260040161072490614e45565b6112188585858585612d5d565b61277f612855565b6001600160a01b0316836001600160a01b031614806127a557506127a5836106be612855565b6127c15760405162461bcd60e51b815260040161072490614e45565b611241838383612c99565b60006127d733611788565b156127eb575060131936013560601c6117a3565b6127f361281d565b90506117a3565b6128048282612ea4565b5050565b6000611ce8836001600160a01b038416612f29565b3390565b6000918252602082815260408084206001600160a01b0393909316845291905290205460ff1690565b600061075282612f73565b600061285f6127cc565b905090565b61287084848484612f98565b6000838152600660205260408120805484929061288e90849061583d565b909155505050505050565b81518351146128ba5760405162461bcd60e51b8152600401610724906155e6565b6001600160a01b0384166128e05760405162461bcd60e51b815260040161072490614ffd565b60006128ea612855565b90506128fa81878787878761307a565b60005b84518110156129ff57600085828151811061292857634e487b7160e01b600052603260045260246000fd5b60200260200101519050600085838151811061295457634e487b7160e01b600052603260045260246000fd5b60209081029190910181015160008481526002835260408082206001600160a01b038e1683529093529190912054909150818110156129a55760405162461bcd60e51b81526004016107249061517d565b60008381526002602090815260408083206001600160a01b038e8116855292528083208585039055908b168252812080548492906129e490849061583d565b92505081905550505050806129f890615929565b90506128fd565b50846001600160a01b0316866001600160a01b0316826001600160a01b03167f4a39dc06d4c0dbc64b70af90fd698a233a518aa5d07e595d983b8c0526c8f7fb8787604051612a4f929190614a58565b60405180910390a4612a65818787878787613110565b505050505050565b612a76826110eb565b612a8781612a82612855565b61321e565b6112418383612ea4565b612a99612855565b6001600160a01b0316816001600160a01b031614612ac95760405162461bcd60e51b8152600401610724906156e1565b6128048282613282565b6000611ce8836001600160a01b038416613305565b612af061179c565b612b0c5760405162461bcd60e51b815260040161072490614bf9565b6005805460ff191690557f5db9ee0a495bf2e6ff9c91a7834c1ba4fdd244a5e8aa4e537bd38aeae4b073aa612b3f612855565b604051612b4c9190614809565b60405180910390a1565b612b6284848484613422565b60005b835181101561121857828181518110612b8e57634e487b7160e01b600052603260045260246000fd5b602002602001015160066000868481518110612bba57634e487b7160e01b600052603260045260246000fd5b602002602001015181526020019081526020016000206000828254612bdf919061583d565b90915550612bee905081615929565b9050612b65565b612c008383836135a4565b60005b8251811015612c9357818181518110612c2c57634e487b7160e01b600052603260045260246000fd5b602002602001015160066000858481518110612c5857634e487b7160e01b600052603260045260246000fd5b602002602001015181526020019081526020016000206000828254612c7d9190615894565b90915550612c8c905081615929565b9050612c03565b50505050565b612ca4838383613758565b60008281526006602052604081208054839290612cc2908490615894565b9091555050505050565b612cd461179c565b15612cf15760405162461bcd60e51b815260040161072490614f5d565b6005805460ff191660011790557f62e78cea01bee320cd4e420270b5ea74000d11b0c9f74754ebdbfc544b05a258612b3f612855565b6000611ce8838361386b565b6000610752826138a3565b612d47826110eb565b612d5381612a82612855565b6112418383613282565b6001600160a01b038416612d835760405162461bcd60e51b815260040161072490614ffd565b6000612d8d612855565b9050612dad818787612d9e886138a7565b612da7886138a7565b8761307a565b60008481526002602090815260408083206001600160a01b038a16845290915290205483811015612df05760405162461bcd60e51b81526004016107249061517d565b60008581526002602090815260408083206001600160a01b038b8116855292528083208785039055908816825281208054869290612e2f90849061583d565b92505081905550856001600160a01b0316876001600160a01b0316836001600160a01b03167fc3d58168c5ae7397731d063d5bbf3d657854427343f4c083240f7aacaa2d0f628888604051612e8592919061573e565b60405180910390a4612e9b828888888888613900565b50505050505050565b612eae8282611cef565b612804576000828152602081815260408083206001600160a01b03851684529091529020805460ff19166001179055612ee5612855565b6001600160a01b0316816001600160a01b0316837f2f8788117e7eff1d82e926ec794901d17c78024a50270940304540a733656f0d60405160405180910390a45050565b6000612f3583836139d1565b612f6b57508154600181810184556000848152602080822090930184905584548482528286019093526040902091909155610752565b506000610752565b60006001600160e01b03198216630271189760e51b14806107525750610752826139e9565b6001600160a01b038416612fbe5760405162461bcd60e51b815260040161072490615643565b6000612fc8612855565b9050612fda81600087612d9e886138a7565b60008481526002602090815260408083206001600160a01b03891684529091528120805485929061300c90849061583d565b92505081905550846001600160a01b031660006001600160a01b0316826001600160a01b03167fc3d58168c5ae7397731d063d5bbf3d657854427343f4c083240f7aacaa2d0f62878760405161306392919061573e565b60405180910390a461121881600087878787613900565b613088868686868686613a29565b600754600160a01b900460ff1615612a65576130c47f8502233096d909befbda0999bb8ea2f3a6be3c138b9fbf003752a4c8bce86f6c86611cef565b806130f457506130f47f8502233096d909befbda0999bb8ea2f3a6be3c138b9fbf003752a4c8bce86f6c85611cef565b612a655760405162461bcd60e51b815260040161072490614ea2565b613122846001600160a01b0316613a37565b15612a655760405163bc197c8160e01b81526001600160a01b0385169063bc197c819061315b9089908990889088908890600401614837565b602060405180830381600087803b15801561317557600080fd5b505af19250505080156131a5575060408051601f3d908101601f191682019092526131a29181019061461f565b60015b6131ee576131b1615976565b806131bc57506131d6565b8060405162461bcd60e51b81526004016107249190614af7565b60405162461bcd60e51b815260040161072490614b0a565b6001600160e01b0319811663bc197c8160e01b14612e9b5760405162461bcd60e51b815260040161072490614b9c565b6132288282611cef565b61280457613240816001600160a01b03166014613a3d565b61324b836020613a3d565b60405160200161325c929190614788565b60408051601f198184030181529082905262461bcd60e51b825261072491600401614af7565b61328c8282611cef565b15612804576000828152602081815260408083206001600160a01b03851684529091529020805460ff191690556132c1612855565b6001600160a01b0316816001600160a01b0316837ff6391f5c32d9c69d2a47ea670b442974b53935d1edc7fd64eb21e047a839171b60405160405180910390a45050565b60008181526001830160205260408120548015613418576000613329600183615894565b855490915060009061333d90600190615894565b90508181146133be57600086600001828154811061336b57634e487b7160e01b600052603260045260246000fd5b906000526020600020015490508087600001848154811061339c57634e487b7160e01b600052603260045260246000fd5b6000918252602080832090910192909255918252600188019052604090208390555b85548690806133dd57634e487b7160e01b600052603160045260246000fd5b600190038181906000526020600020016000905590558560010160008681526020019081526020016000206000905560019350505050610752565b6000915050610752565b6001600160a01b0384166134485760405162461bcd60e51b815260040161072490615643565b81518351146134695760405162461bcd60e51b8152600401610724906155e6565b6000613473612855565b90506134848160008787878761307a565b60005b845181101561353c578381815181106134b057634e487b7160e01b600052603260045260246000fd5b6020026020010151600260008784815181106134dc57634e487b7160e01b600052603260045260246000fd5b602002602001015181526020019081526020016000206000886001600160a01b03166001600160a01b031681526020019081526020016000206000828254613524919061583d565b9091555081905061353481615929565b915050613487565b50846001600160a01b031660006001600160a01b0316826001600160a01b03167f4a39dc06d4c0dbc64b70af90fd698a233a518aa5d07e595d983b8c0526c8f7fb878760405161358d929190614a58565b60405180910390a461121881600087878787613110565b6001600160a01b0383166135ca5760405162461bcd60e51b81526004016107249061513a565b80518251146135eb5760405162461bcd60e51b8152600401610724906155e6565b60006135f5612855565b90506136158185600086866040518060200160405280600081525061307a565b60005b83518110156136f957600084828151811061364357634e487b7160e01b600052603260045260246000fd5b60200260200101519050600084838151811061366f57634e487b7160e01b600052603260045260246000fd5b60209081029190910181015160008481526002835260408082206001600160a01b038c1683529093529190912054909150818110156136c05760405162461bcd60e51b815260040161072490614cea565b60009283526002602090815260408085206001600160a01b038b16865290915290922091039055806136f181615929565b915050613618565b5060006001600160a01b0316846001600160a01b0316826001600160a01b03167f4a39dc06d4c0dbc64b70af90fd698a233a518aa5d07e595d983b8c0526c8f7fb868660405161374a929190614a58565b60405180910390a450505050565b6001600160a01b03831661377e5760405162461bcd60e51b81526004016107249061513a565b6000613788612855565b90506137b88185600061379a876138a7565b6137a3876138a7565b6040518060200160405280600081525061307a565b60008381526002602090815260408083206001600160a01b0388168452909152902054828110156137fb5760405162461bcd60e51b815260040161072490614cea565b60008481526002602090815260408083206001600160a01b03808a16808652919093528184208786039055905190918516907fc3d58168c5ae7397731d063d5bbf3d657854427343f4c083240f7aacaa2d0f629061385c908990899061573e565b60405180910390a45050505050565b600082600001828154811061389057634e487b7160e01b600052603260045260246000fd5b9060005260206000200154905092915050565b5490565b604080516001808252818301909252606091600091906020808301908036833701905050905082816000815181106138ef57634e487b7160e01b600052603260045260246000fd5b602090810291909101015292915050565b613912846001600160a01b0316613a37565b15612a655760405163f23a6e6160e01b81526001600160a01b0385169063f23a6e619061394b90899089908890889088906004016148b9565b602060405180830381600087803b15801561396557600080fd5b505af1925050508015613995575060408051601f3d908101601f191682019092526139929181019061461f565b60015b6139a1576131b1615976565b6001600160e01b0319811663f23a6e6160e01b14612e9b5760405162461bcd60e51b815260040161072490614b9c565b60009081526001919091016020526040902054151590565b60006001600160e01b03198216636cdb3d1360e11b1480613a1a57506001600160e01b031982166303a24d0760e21b145b80610752575061075282613bfc565b612a65868686868686613c21565b3b151590565b60606000613a4c836002615875565b613a5790600261583d565b67ffffffffffffffff811115613a7d57634e487b7160e01b600052604160045260246000fd5b6040519080825280601f01601f191660200182016040528015613aa7576020820181803683370190505b509050600360fc1b81600081518110613ad057634e487b7160e01b600052603260045260246000fd5b60200101906001600160f81b031916908160001a905350600f60fb1b81600181518110613b0d57634e487b7160e01b600052603260045260246000fd5b60200101906001600160f81b031916908160001a9053506000613b31846002615875565b613b3c90600161583d565b90505b6001811115613bdd577f303132333435363738396162636465660000000000000000000000000000000085600f1660108110613b8b57634e487b7160e01b600052603260045260246000fd5b1a60f81b828281518110613baf57634e487b7160e01b600052603260045260246000fd5b60200101906001600160f81b031916908160001a90535060049490941c93613bd6816158d7565b9050613b3f565b508315611ce85760405162461bcd60e51b815260040161072490614b67565b60006001600160e01b03198216635a05180f60e01b1480610752575061075282613c54565b613c2f868686868686612a65565b613c3761179c565b15612a655760405162461bcd60e51b815260040161072490614de8565b60006001600160e01b03198216637965db0b60e01b148061075257506301ffc9a760e01b6001600160e01b0319831614610752565b828054613c95906158ee565b90600052602060002090601f016020900481019282613cb75760008555613cfd565b82601f10613cd057805160ff1916838001178555613cfd565b82800160010185558215613cfd579182015b82811115613cfd578251825591602001919060010190613ce2565b50613d09929150613d81565b5090565b828054613d19906158ee565b90600052602060002090601f016020900481019282613d3b5760008555613cfd565b82601f10613d545782800160ff19823516178555613cfd565b82800160010185558215613cfd579182015b82811115613cfd578235825591602001919060010190613d66565b5b80821115613d095760008155600101613d82565b60008083601f840112613da7578182fd5b50813567ffffffffffffffff811115613dbe578182fd5b6020830191508360208083028501011115613dd857600080fd5b9250929050565b600082601f830112613def578081fd5b81356020613e04613dff836157e5565b6157bb565b8281528181019085830183850287018401881015613e20578586fd5b855b85811015613e3e57813584529284019290840190600101613e22565b5090979650505050505050565b600082601f830112613e5b578081fd5b813567ffffffffffffffff811115613e7557613e7561595a565b613e88601f8201601f19166020016157bb565b818152846020838601011115613e9c578283fd5b816020850160208301379081016020019190915292915050565b60008083601f840112613ec7578182fd5b50813567ffffffffffffffff811115613ede578182fd5b602083019150836020828501011115613dd857600080fd5b600060208284031215613f07578081fd5b8135611ce881615a1b565b600060208284031215613f23578081fd5b8151611ce881615a1b565b60008060408385031215613f40578081fd5b8235613f4b81615a1b565b91506020830135613f5b81615a1b565b809150509250929050565b600080600080600060a08688031215613f7d578081fd5b8535613f8881615a1b565b94506020860135613f9881615a1b565b9350604086013567ffffffffffffffff80821115613fb4578283fd5b613fc089838a01613ddf565b94506060880135915080821115613fd5578283fd5b613fe189838a01613ddf565b93506080880135915080821115613ff6578283fd5b5061400388828901613e4b565b9150509295509295909350565b60008060008060808587031215614025578384fd5b843561403081615a1b565b9350602085013561404081615a1b565b925060408501359150606085013567ffffffffffffffff811115614062578182fd5b61406e87828801613e4b565b91505092959194509250565b600080600080600060a08688031215614091578283fd5b853561409c81615a1b565b945060208601356140ac81615a1b565b93506040860135925060608601359150608086013567ffffffffffffffff8111156140d5578182fd5b61400388828901613e4b565b60008060008060008060008060008060e08b8d0312156140ff578788fd5b8a3561410a81615a1b565b995060208b013567ffffffffffffffff8082111561412657898afd5b6141328e838f01613d96565b909b50995060408d013591508082111561414a578687fd5b6141568e838f01613d96565b909950975060608d013591508082111561416e578687fd5b5061417b8d828e01613eb6565b9b9e9a9d50989b979a9699969760808101359760a0820135975060c09091013595509350505050565b6000806000606084860312156141b8578081fd5b83356141c381615a1b565b9250602084013567ffffffffffffffff808211156141df578283fd5b6141eb87838801613ddf565b93506040860135915080821115614200578283fd5b5061420d86828701613ddf565b9150509250925092565b6000806000806080858703121561422c578182fd5b843561423781615a1b565b9350602085013567ffffffffffffffff80821115614253578384fd5b61425f88838901613ddf565b94506040870135915080821115614274578384fd5b61428088838901613ddf565b93506060870135915080821115614295578283fd5b5061406e87828801613e4b565b600080604083850312156142b4578182fd5b82356142bf81615a1b565b91506020830135613f5b81615a33565b600080604083850312156142e1578182fd5b82356142ec81615a1b565b946020939093013593505050565b6000806000806060858703121561430f578182fd5b843561431a81615a1b565b935060208501359250604085013567ffffffffffffffff81111561433c578283fd5b61434887828801613eb6565b95989497509550505050565b600080600060608486031215614368578081fd5b833561437381615a1b565b95602085013595506040909401359392505050565b6000806000806080858703121561439d578182fd5b84356143a881615a1b565b93506020850135925060408501359150606085013567ffffffffffffffff811115614062578182fd5b6000806000806000608086880312156143e8578283fd5b85356143f381615a1b565b94506020860135935060408601359250606086013567ffffffffffffffff81111561441c578182fd5b61442888828901613eb6565b969995985093965092949392505050565b6000806040838503121561444b578182fd5b823567ffffffffffffffff80821115614462578384fd5b818501915085601f830112614475578384fd5b81356020614485613dff836157e5565b82815281810190858301838502870184018b10156144a1578889fd5b8896505b848710156144cc5780356144b881615a1b565b8352600196909601959183019183016144a5565b50965050860135925050808211156144e2578283fd5b506144ef85828601613ddf565b9150509250929050565b6000806000806040858703121561450e578182fd5b843567ffffffffffffffff80821115614525578384fd5b61453188838901613d96565b90965094506020870135915080821115614549578384fd5b5061434887828801613d96565b600060208284031215614567578081fd5b8135611ce881615a33565b600060208284031215614583578081fd5b8151611ce881615a33565b60006020828403121561459f578081fd5b5035919050565b6000602082840312156145b7578081fd5b5051919050565b600080604083850312156145d0578182fd5b823591506020830135613f5b81615a1b565b600080604083850312156145f4578182fd5b50508035926020909101359150565b600060208284031215614614578081fd5b8135611ce881615a41565b600060208284031215614630578081fd5b8151611ce881615a41565b6000806020838503121561464d578182fd5b823567ffffffffffffffff811115614663578283fd5b61466f85828601613eb6565b90969095509350505050565b60006020828403121561468c578081fd5b81516fffffffffffffffffffffffffffffffff81168114611ce8578182fd5b60008284527f07ffffffffffffffffffffffffffffffffffffffffffffffffffffffffffffff8311156146dc578081fd5b6020830280836020870137939093016020019283525090919050565b6000815180845260208085019450808401835b838110156147275781518752958201959082019060010161470b565b509495945050505050565b6000815180845261474a8160208601602086016158ab565b601f01601f19169290920160200192915050565b60008284528282602086013780602084860101526020601f19601f85011685010190509392505050565b60007f416363657373436f6e74726f6c3a206163636f756e7420000000000000000000825283516147c08160178501602088016158ab565b7f206973206d697373696e6720726f6c652000000000000000000000000000000060179184019182015283516147fd8160288401602088016158ab565b01602801949350505050565b6001600160a01b0391909116815260200190565b6001600160a01b0392831681529116602082015260400190565b60006001600160a01b03808816835280871660208401525060a0604083015261486360a08301866146f8565b828103606084015261487581866146f8565b905082810360808401526148898185614732565b98975050505050505050565b6001600160a01b039384168152919092166020820152604081019190915260600190565b60006001600160a01b03808816835280871660208401525084604083015283606083015260a060808301526148f160a0830184614732565b979650505050505050565b60006001600160a01b03851682526060602083015261491e6060830185614732565b90506003831061493e57634e487b7160e01b600052602160045260246000fd5b826040830152949350505050565b6001600160a01b03929092168252602082015260400190565b6001600160a01b039390931683526020830191909152604082015260600190565b600060208252611ce860208301846146f8565b6000606082526149ac60608301886146f8565b6020838203818501528187835281830190508182890284010189855b8a811015614a3457858303601f190184528135368d9003601e190181126149ed578788fd5b8c01803567ffffffffffffffff811115614a05578889fd5b8036038e1315614a13578889fd5b614a20858289850161475e565b9587019594505050908401906001016149c8565b50508581036040870152614a4981888a6146ab565b9b9a5050505050505050505050565b600060408252614a6b60408301856146f8565b8281036020840152614a7d81856146f8565b95945050505050565b901515815260200190565b90815260200190565b9182526001600160a01b0316602082015260400190565b6001600160e01b031991909116815260200190565b600060808252614ada60808301878961475e565b602083019590955250604081019290925260609091015292915050565b600060208252611ce86020830184614732565b60208082526034908201527f455243313135353a207472616e7366657220746f206e6f6e204552433131353560408201527f526563656976657220696d706c656d656e746572000000000000000000000000606082015260800190565b6020808252818101527f537472696e67733a20686578206c656e67746820696e73756666696369656e74604082015260600190565b60208082526028908201527f455243313135353a204552433131353552656365697665722072656a6563746560408201527f6420746f6b656e73000000000000000000000000000000000000000000000000606082015260800190565b60208082526014908201527f5061757361626c653a206e6f7420706175736564000000000000000000000000604082015260600190565b6020808252602b908201527f455243313135353a2062616c616e636520717565727920666f7220746865207a60408201527f65726f2061646472657373000000000000000000000000000000000000000000606082015260800190565b6020808252602f908201527f4e4654436f6c6c656374696f6e3a204661696c656420746f207472616e73666560408201527f7220455243323020746f6b656e732e0000000000000000000000000000000000606082015260800190565b60208082526024908201527f455243313135353a206275726e20616d6f756e7420657863656564732062616c604082015263616e636560e01b606082015260800190565b60208082526031908201527f4163636573734e46543a2063616e6e6f742075736520726567756c6172206d6960408201527f6e7442617463682066756e6374696f6e2e000000000000000000000000000000606082015260800190565b6020808252603d908201527f4e4654436f6c6c656374696f6e3a204d75737420617070726f7665207468652060408201527f636f6e747261637420746f207472616e7366657220746865204e46542e000000606082015260800190565b6020808252602c908201527f455243313135355061757361626c653a20746f6b656e207472616e736665722060408201527f7768696c65207061757365640000000000000000000000000000000000000000606082015260800190565b60208082526029908201527f455243313135353a2063616c6c6572206973206e6f74206f776e6572206e6f7260408201527f20617070726f7665640000000000000000000000000000000000000000000000606082015260800190565b602080825260409082018190527f4e4654436f6c6c656374696f6e3a205472616e73666572732061726520726573908201527f7472696374656420746f205452414e534645525f524f4c4520686f6c64657273606082015260800190565b6020808252603a908201527f4e4654436f6c6c656374696f6e3a204d7573742073706563696679206571756160408201527f6c206e756d626572206f6620636f6e6669672076616c7565732e000000000000606082015260800190565b60208082526010908201527f5061757361626c653a2070617573656400000000000000000000000000000000604082015260600190565b60208082526043908201527f4e4654436f6c6c656374696f6e3a204d75737420617070726f7665207468697360408201527f20636f6e747261637420746f207472616e7366657220455243323020746f6b6560608201526237399760e91b608082015260a00190565b60208082526025908201527f455243313135353a207472616e7366657220746f20746865207a65726f20616460408201527f6472657373000000000000000000000000000000000000000000000000000000606082015260800190565b60208082526032908201527f455243313135353a207472616e736665722063616c6c6572206973206e6f742060408201527f6f776e6572206e6f7220617070726f7665640000000000000000000000000000606082015260800190565b60208082526045908201527f4e4654436f6c6c656374696f6e3a204f6e6c79206163636f756e74732077697460408201527f68204d494e5445525f524f4c452063616e2063616c6c20746869732066756e6360608201527f74696f6e2e000000000000000000000000000000000000000000000000000000608082015260a00190565b60208082526023908201527f455243313135353a206275726e2066726f6d20746865207a65726f206164647260408201526265737360e81b606082015260800190565b6020808252602a908201527f455243313135353a20696e73756666696369656e742062616c616e636520666f60408201527f72207472616e7366657200000000000000000000000000000000000000000000606082015260800190565b60208082526033908201527f4e4654436f6c6c656374696f6e3a204270732070726f7669646564206d75737460408201527f206265206c657373207468616e20392c30303000000000000000000000000000606082015260800190565b60208082526026908201527f4e4654436f6c6c656374696f6e3a205468652070726f746f636f6c206973207060408201527f61757365642e0000000000000000000000000000000000000000000000000000606082015260800190565b60208082526044908201527f4e4654436f6c6c656374696f6e3a204d757374206f776e2074686520616d6f7560408201527f6e74206f6620746f6b656e73207468617420617265206265696e6720777261706060820152633832b21760e11b608082015260a00190565b6020808252603b908201527f455243313135355072657365744d696e7465725061757365723a206d7573742060408201527f686176652070617573657220726f6c6520746f20756e70617573650000000000606082015260800190565b60208082526039908201527f455243313135355072657365744d696e7465725061757365723a206d7573742060408201527f686176652070617573657220726f6c6520746f20706175736500000000000000606082015260800190565b6020808252603c908201527f4e4654436f6c6c656374696f6e3a206f6e6c7920612070726f746f636f6c206160408201527f646d696e2063616e2063616c6c20746869732066756e6374696f6e2e00000000606082015260800190565b60208082526029908201527f455243313135353a2073657474696e6720617070726f76616c2073746174757360408201527f20666f722073656c660000000000000000000000000000000000000000000000606082015260800190565b60208082526029908201527f455243313135353a206163636f756e747320616e6420696473206c656e67746860408201527f206d69736d617463680000000000000000000000000000000000000000000000606082015260800190565b60208082526033908201527f4e4654436f6c6c656374696f6e3a2043616e6e6f742072656465656d20616e2060408201527f4e465420796f7520646f206e6f74206f776e2e00000000000000000000000000606082015260800190565b60208082526035908201527f4e4654436f6c6c656374696f6e3a204f6e6c7920746865206f776e6572206f6660408201527f20746865204e46542063616e20777261702069742e0000000000000000000000606082015260800190565b6020808252602c908201527f4e4654436f6c6c656374696f6e3a204d75737420637265617465206174206c6560408201527f617374206f6e65204e46542e0000000000000000000000000000000000000000606082015260800190565b60208082526028908201527f455243313135353a2069647320616e6420616d6f756e7473206c656e6774682060408201527f6d69736d61746368000000000000000000000000000000000000000000000000606082015260800190565b60208082526021908201527f455243313135353a206d696e7420746f20746865207a65726f206164647265736040820152607360f81b606082015260800190565b6020808252602c908201527f4163636573734e46543a2063616e6e6f742075736520726567756c6172206d6960408201527f6e742066756e6374696f6e2e0000000000000000000000000000000000000000606082015260800190565b6020808252602f908201527f416363657373436f6e74726f6c3a2063616e206f6e6c792072656e6f756e636560408201527f20726f6c657320666f722073656c660000000000000000000000000000000000606082015260800190565b918252602082015260400190565b60008582528460208301526060604083015261576c60608301848661475e565b9695505050505050565b6000808335601e1984360301811261578c578283fd5b83018035915067ffffffffffffffff8211156157a6578283fd5b602001915036819003821315613dd857600080fd5b60405181810167ffffffffffffffff811182821017156157dd576157dd61595a565b604052919050565b600067ffffffffffffffff8211156157ff576157ff61595a565b5060209081020190565b60006fffffffffffffffffffffffffffffffff80831681851680830382111561583457615834615944565b01949350505050565b6000821982111561585057615850615944565b500190565b60008261587057634e487b7160e01b81526012600452602481fd5b500490565b600081600019048311821515161561588f5761588f615944565b500290565b6000828210156158a6576158a6615944565b500390565b60005b838110156158c65781810151838201526020016158ae565b83811115612c935750506000910152565b6000816158e6576158e6615944565b506000190190565b60028104600182168061590257607f821691505b6020821081141561592357634e487b7160e01b600052602260045260246000fd5b50919050565b600060001982141561593d5761593d615944565b5060010190565b634e487b7160e01b600052601160045260246000fd5b634e487b7160e01b600052604160045260246000fd5b60e01c90565b600060443d1015615986576117a3565b600481823e6308c379a061599a8251615970565b146159a4576117a3565b6040513d600319016004823e80513d67ffffffffffffffff81602484011181841117156159d457505050506117a3565b828401925082519150808211156159ee57505050506117a3565b503d83016020828401011115615a06575050506117a3565b601f01601f1916810160200160405291505090565b6001600160a01b0381168114615a3057600080fd5b50565b8015158114615a3057600080fd5b6001600160e01b031981168114615a3057600080fdfea164736f6c6343000800000a9f2df0fed2c77648de5860a4cc508cd0818c85b8b8a1ab4ceeef8d981c8956a6",
  "linkReferences": {},
  "deployedLinkReferences": {}
}