{
  "_format": "hh-sol-artifact-1",
  "contractName": "NFTCollection_PL",
  "sourceName": "contracts/permissionless/NFTCollection_PL.sol",
  "abi": [
    {
      "inputs": [
        {
          "internalType": "address payable",
          "name": "_controlCenter",
          "type": "address"
        },
        {
          "internalType": "address",
          "name": "_trustedForwarder",
          "type": "address"
        },
        {
          "internalType": "string",
          "name": "_uri",
          "type": "string"
        }
      ],
      "stateMutability": "nonpayable",
      "type": "constructor"
    },
    {
      "anonymous": false,
      "inputs": [
        {
          "indexed": true,
          "internalType": "address",
          "name": "account",
          "type": "address"
        },
        {
          "indexed": true,
          "internalType": "address",
          "name": "operator",
          "type": "address"
        },
        {
          "indexed": false,
          "internalType": "bool",
          "name": "approved",
          "type": "bool"
        }
      ],
      "name": "ApprovalForAll",
      "type": "event"
    },
    {
      "anonymous": false,
      "inputs": [
        {
          "indexed": true,
          "internalType": "address",
          "name": "redeemer",
          "type": "address"
        },
        {
          "indexed": true,
          "internalType": "address",
          "name": "tokenContract",
          "type": "address"
        },
        {
          "indexed": false,
          "internalType": "uint256",
          "name": "tokenAmountReceived",
          "type": "uint256"
        },
        {
          "indexed": false,
          "internalType": "uint256",
          "name": "nftAmountRedeemed",
          "type": "uint256"
        }
      ],
      "name": "ERC20Redeemed",
      "type": "event"
    },
    {
      "anonymous": false,
      "inputs": [
        {
          "indexed": true,
          "internalType": "address",
          "name": "creator",
          "type": "address"
        },
        {
          "indexed": true,
          "internalType": "address",
          "name": "tokenContract",
          "type": "address"
        },
        {
          "indexed": false,
          "internalType": "uint256",
          "name": "tokenAmount",
          "type": "uint256"
        },
        {
          "indexed": false,
          "internalType": "uint256",
          "name": "nftsMinted",
          "type": "uint256"
        },
        {
          "indexed": false,
          "internalType": "string",
          "name": "nftURI",
          "type": "string"
        }
      ],
      "name": "ERC20WrappedNfts",
      "type": "event"
    },
    {
      "anonymous": false,
      "inputs": [
        {
          "indexed": true,
          "internalType": "address",
          "name": "redeemer",
          "type": "address"
        },
        {
          "indexed": true,
          "internalType": "address",
          "name": "nftContract",
          "type": "address"
        },
        {
          "indexed": false,
          "internalType": "uint256",
          "name": "nftTokenId",
          "type": "uint256"
        },
        {
          "indexed": false,
          "internalType": "uint256",
          "name": "nativeNftTokenId",
          "type": "uint256"
        }
      ],
      "name": "ERC721Redeemed",
      "type": "event"
    },
    {
      "anonymous": false,
      "inputs": [
        {
          "indexed": true,
          "internalType": "address",
          "name": "creator",
          "type": "address"
        },
        {
          "indexed": true,
          "internalType": "address",
          "name": "nftContract",
          "type": "address"
        },
        {
          "indexed": false,
          "internalType": "uint256",
          "name": "nftTokenId",
          "type": "uint256"
        },
        {
          "indexed": false,
          "internalType": "uint256",
          "name": "nativeNftTokenId",
          "type": "uint256"
        },
        {
          "indexed": false,
          "internalType": "string",
          "name": "nativeNftURI",
          "type": "string"
        }
      ],
      "name": "ERC721WrappedNft",
      "type": "event"
    },
    {
      "anonymous": false,
      "inputs": [
        {
          "indexed": true,
          "internalType": "address",
          "name": "creator",
          "type": "address"
        },
        {
          "indexed": false,
          "internalType": "uint256[]",
          "name": "nftIds",
          "type": "uint256[]"
        },
        {
          "indexed": false,
          "internalType": "string[]",
          "name": "nftURIs",
          "type": "string[]"
        },
        {
          "indexed": false,
          "internalType": "uint256[]",
          "name": "nftSupplies",
          "type": "uint256[]"
        }
      ],
      "name": "NativeNfts",
      "type": "event"
    },
    {
      "anonymous": false,
      "inputs": [
        {
          "indexed": false,
          "internalType": "address",
          "name": "account",
          "type": "address"
        }
      ],
      "name": "Paused",
      "type": "event"
    },
    {
      "anonymous": false,
      "inputs": [
        {
          "indexed": true,
          "internalType": "bytes32",
          "name": "role",
          "type": "bytes32"
        },
        {
          "indexed": true,
          "internalType": "bytes32",
          "name": "previousAdminRole",
          "type": "bytes32"
        },
        {
          "indexed": true,
          "internalType": "bytes32",
          "name": "newAdminRole",
          "type": "bytes32"
        }
      ],
      "name": "RoleAdminChanged",
      "type": "event"
    },
    {
      "anonymous": false,
      "inputs": [
        {
          "indexed": true,
          "internalType": "bytes32",
          "name": "role",
          "type": "bytes32"
        },
        {
          "indexed": true,
          "internalType": "address",
          "name": "account",
          "type": "address"
        },
        {
          "indexed": true,
          "internalType": "address",
          "name": "sender",
          "type": "address"
        }
      ],
      "name": "RoleGranted",
      "type": "event"
    },
    {
      "anonymous": false,
      "inputs": [
        {
          "indexed": true,
          "internalType": "bytes32",
          "name": "role",
          "type": "bytes32"
        },
        {
          "indexed": true,
          "internalType": "address",
          "name": "account",
          "type": "address"
        },
        {
          "indexed": true,
          "internalType": "address",
          "name": "sender",
          "type": "address"
        }
      ],
      "name": "RoleRevoked",
      "type": "event"
    },
    {
      "anonymous": false,
      "inputs": [
        {
          "indexed": false,
          "internalType": "uint256",
          "name": "royaltyBps",
          "type": "uint256"
        }
      ],
      "name": "RoyaltyUpdated",
      "type": "event"
    },
    {
      "anonymous": false,
      "inputs": [
        {
          "indexed": true,
          "internalType": "address",
          "name": "operator",
          "type": "address"
        },
        {
          "indexed": true,
          "internalType": "address",
          "name": "from",
          "type": "address"
        },
        {
          "indexed": true,
          "internalType": "address",
          "name": "to",
          "type": "address"
        },
        {
          "indexed": false,
          "internalType": "uint256[]",
          "name": "ids",
          "type": "uint256[]"
        },
        {
          "indexed": false,
          "internalType": "uint256[]",
          "name": "values",
          "type": "uint256[]"
        }
      ],
      "name": "TransferBatch",
      "type": "event"
    },
    {
      "anonymous": false,
      "inputs": [
        {
          "indexed": true,
          "internalType": "address",
          "name": "operator",
          "type": "address"
        },
        {
          "indexed": true,
          "internalType": "address",
          "name": "from",
          "type": "address"
        },
        {
          "indexed": true,
          "internalType": "address",
          "name": "to",
          "type": "address"
        },
        {
          "indexed": false,
          "internalType": "uint256",
          "name": "id",
          "type": "uint256"
        },
        {
          "indexed": false,
          "internalType": "uint256",
          "name": "value",
          "type": "uint256"
        }
      ],
      "name": "TransferSingle",
      "type": "event"
    },
    {
      "anonymous": false,
      "inputs": [
        {
          "indexed": false,
          "internalType": "string",
          "name": "value",
          "type": "string"
        },
        {
          "indexed": true,
          "internalType": "uint256",
          "name": "id",
          "type": "uint256"
        }
      ],
      "name": "URI",
      "type": "event"
    },
    {
      "anonymous": false,
      "inputs": [
        {
          "indexed": false,
          "internalType": "address",
          "name": "account",
          "type": "address"
        }
      ],
      "name": "Unpaused",
      "type": "event"
    },
    {
      "inputs": [],
      "name": "DEFAULT_ADMIN_ROLE",
      "outputs": [
        {
          "internalType": "bytes32",
          "name": "",
          "type": "bytes32"
        }
      ],
      "stateMutability": "view",
      "type": "function"
    },
    {
      "inputs": [],
      "name": "MINTER_ROLE",
      "outputs": [
        {
          "internalType": "bytes32",
          "name": "",
          "type": "bytes32"
        }
      ],
      "stateMutability": "view",
      "type": "function"
    },
    {
      "inputs": [],
      "name": "PAUSER_ROLE",
      "outputs": [
        {
          "internalType": "bytes32",
          "name": "",
          "type": "bytes32"
        }
      ],
      "stateMutability": "view",
      "type": "function"
    },
    {
      "inputs": [],
      "name": "TRANSFER_ROLE",
      "outputs": [
        {
          "internalType": "bytes32",
          "name": "",
          "type": "bytes32"
        }
      ],
      "stateMutability": "view",
      "type": "function"
    },
    {
      "inputs": [],
      "name": "_contractURI",
      "outputs": [
        {
          "internalType": "string",
          "name": "",
          "type": "string"
        }
      ],
      "stateMutability": "view",
      "type": "function"
    },
    {
      "inputs": [
        {
          "internalType": "address",
          "name": "account",
          "type": "address"
        },
        {
          "internalType": "uint256",
          "name": "id",
          "type": "uint256"
        }
      ],
      "name": "balanceOf",
      "outputs": [
        {
          "internalType": "uint256",
          "name": "",
          "type": "uint256"
        }
      ],
      "stateMutability": "view",
      "type": "function"
    },
    {
      "inputs": [
        {
          "internalType": "address[]",
          "name": "accounts",
          "type": "address[]"
        },
        {
          "internalType": "uint256[]",
          "name": "ids",
          "type": "uint256[]"
        }
      ],
      "name": "balanceOfBatch",
      "outputs": [
        {
          "internalType": "uint256[]",
          "name": "",
          "type": "uint256[]"
        }
      ],
      "stateMutability": "view",
      "type": "function"
    },
    {
      "inputs": [
        {
          "internalType": "address",
          "name": "account",
          "type": "address"
        },
        {
          "internalType": "uint256",
          "name": "id",
          "type": "uint256"
        },
        {
          "internalType": "uint256",
          "name": "value",
          "type": "uint256"
        }
      ],
      "name": "burn",
      "outputs": [],
      "stateMutability": "nonpayable",
      "type": "function"
    },
    {
      "inputs": [
        {
          "internalType": "address",
          "name": "account",
          "type": "address"
        },
        {
          "internalType": "uint256[]",
          "name": "ids",
          "type": "uint256[]"
        },
        {
          "internalType": "uint256[]",
          "name": "values",
          "type": "uint256[]"
        }
      ],
      "name": "burnBatch",
      "outputs": [],
      "stateMutability": "nonpayable",
      "type": "function"
    },
    {
      "inputs": [],
      "name": "contractURI",
      "outputs": [
        {
          "internalType": "string",
          "name": "",
          "type": "string"
        }
      ],
      "stateMutability": "view",
      "type": "function"
    },
    {
      "inputs": [
        {
          "internalType": "string[]",
          "name": "_nftURIs",
          "type": "string[]"
        },
        {
          "internalType": "uint256[]",
          "name": "_nftSupplies",
          "type": "uint256[]"
        }
      ],
      "name": "createNativeNfts",
      "outputs": [
        {
          "internalType": "uint256[]",
          "name": "nftIds",
          "type": "uint256[]"
        }
      ],
      "stateMutability": "nonpayable",
      "type": "function"
    },
    {
      "inputs": [
        {
          "internalType": "address",
          "name": "_pack",
          "type": "address"
        },
        {
          "internalType": "string[]",
          "name": "_nftURIs",
          "type": "string[]"
        },
        {
          "internalType": "uint256[]",
          "name": "_nftSupplies",
          "type": "uint256[]"
        },
        {
          "internalType": "string",
          "name": "_packURI",
          "type": "string"
        },
        {
          "internalType": "uint256",
          "name": "_secondsUntilOpenStart",
          "type": "uint256"
        },
        {
          "internalType": "uint256",
          "name": "_secondsUntilOpenEnd",
          "type": "uint256"
        },
        {
          "internalType": "uint256",
          "name": "_nftsPerOpen",
          "type": "uint256"
        }
      ],
      "name": "createPackAtomic",
      "outputs": [],
      "stateMutability": "nonpayable",
      "type": "function"
    },
    {
      "inputs": [
        {
          "internalType": "uint256",
          "name": "_nftId",
          "type": "uint256"
        }
      ],
      "name": "creator",
      "outputs": [
        {
          "internalType": "address",
          "name": "",
          "type": "address"
        }
      ],
      "stateMutability": "view",
      "type": "function"
    },
    {
      "inputs": [
        {
          "internalType": "uint256",
          "name": "",
          "type": "uint256"
        }
      ],
      "name": "erc20WrappedNfts",
      "outputs": [
        {
          "internalType": "address",
          "name": "tokenContract",
          "type": "address"
        },
        {
          "internalType": "uint256",
          "name": "shares",
          "type": "uint256"
        },
        {
          "internalType": "uint256",
          "name": "underlyingTokenAmount",
          "type": "uint256"
        }
      ],
      "stateMutability": "view",
      "type": "function"
    },
    {
      "inputs": [
        {
          "internalType": "uint256",
          "name": "",
          "type": "uint256"
        }
      ],
      "name": "erc721WrappedNfts",
      "outputs": [
        {
          "internalType": "address",
          "name": "nftContract",
          "type": "address"
        },
        {
          "internalType": "uint256",
          "name": "nftTokenId",
          "type": "uint256"
        }
      ],
      "stateMutability": "view",
      "type": "function"
    },
    {
      "inputs": [
        {
          "internalType": "bytes32",
          "name": "role",
          "type": "bytes32"
        }
      ],
      "name": "getRoleAdmin",
      "outputs": [
        {
          "internalType": "bytes32",
          "name": "",
          "type": "bytes32"
        }
      ],
      "stateMutability": "view",
      "type": "function"
    },
    {
      "inputs": [
        {
          "internalType": "bytes32",
          "name": "role",
          "type": "bytes32"
        },
        {
          "internalType": "uint256",
          "name": "index",
          "type": "uint256"
        }
      ],
      "name": "getRoleMember",
      "outputs": [
        {
          "internalType": "address",
          "name": "",
          "type": "address"
        }
      ],
      "stateMutability": "view",
      "type": "function"
    },
    {
      "inputs": [
        {
          "internalType": "bytes32",
          "name": "role",
          "type": "bytes32"
        }
      ],
      "name": "getRoleMemberCount",
      "outputs": [
        {
          "internalType": "uint256",
          "name": "",
          "type": "uint256"
        }
      ],
      "stateMutability": "view",
      "type": "function"
    },
    {
      "inputs": [
        {
          "internalType": "bytes32",
          "name": "role",
          "type": "bytes32"
        },
        {
          "internalType": "address",
          "name": "account",
          "type": "address"
        }
      ],
      "name": "grantRole",
      "outputs": [],
      "stateMutability": "nonpayable",
      "type": "function"
    },
    {
      "inputs": [
        {
          "internalType": "bytes32",
          "name": "role",
          "type": "bytes32"
        },
        {
          "internalType": "address",
          "name": "account",
          "type": "address"
        }
      ],
      "name": "hasRole",
      "outputs": [
        {
          "internalType": "bool",
          "name": "",
          "type": "bool"
        }
      ],
      "stateMutability": "view",
      "type": "function"
    },
    {
      "inputs": [
        {
          "internalType": "address",
          "name": "account",
          "type": "address"
        },
        {
          "internalType": "address",
          "name": "operator",
          "type": "address"
        }
      ],
      "name": "isApprovedForAll",
      "outputs": [
        {
          "internalType": "bool",
          "name": "",
          "type": "bool"
        }
      ],
      "stateMutability": "view",
      "type": "function"
    },
    {
      "inputs": [],
      "name": "isRestrictedTransfer",
      "outputs": [
        {
          "internalType": "bool",
          "name": "",
          "type": "bool"
        }
      ],
      "stateMutability": "view",
      "type": "function"
    },
    {
      "inputs": [
        {
          "internalType": "address",
          "name": "forwarder",
          "type": "address"
        }
      ],
      "name": "isTrustedForwarder",
      "outputs": [
        {
          "internalType": "bool",
          "name": "",
          "type": "bool"
        }
      ],
      "stateMutability": "view",
      "type": "function"
    },
    {
      "inputs": [
        {
          "internalType": "address",
          "name": "",
          "type": "address"
        },
        {
          "internalType": "uint256",
          "name": "",
          "type": "uint256"
        },
        {
          "internalType": "uint256",
          "name": "",
          "type": "uint256"
        },
        {
          "internalType": "bytes",
          "name": "",
          "type": "bytes"
        }
      ],
      "name": "mint",
      "outputs": [],
      "stateMutability": "pure",
      "type": "function"
    },
    {
      "inputs": [
        {
          "internalType": "address",
          "name": "",
          "type": "address"
        },
        {
          "internalType": "uint256[]",
          "name": "",
          "type": "uint256[]"
        },
        {
          "internalType": "uint256[]",
          "name": "",
          "type": "uint256[]"
        },
        {
          "internalType": "bytes",
          "name": "",
          "type": "bytes"
        }
      ],
      "name": "mintBatch",
      "outputs": [],
      "stateMutability": "pure",
      "type": "function"
    },
    {
      "inputs": [],
      "name": "nextTokenId",
      "outputs": [
        {
          "internalType": "uint256",
          "name": "",
          "type": "uint256"
        }
      ],
      "stateMutability": "view",
      "type": "function"
    },
    {
      "inputs": [
        {
          "internalType": "uint256",
          "name": "",
          "type": "uint256"
        }
      ],
      "name": "nftInfo",
      "outputs": [
        {
          "internalType": "address",
          "name": "creator",
          "type": "address"
        },
        {
          "internalType": "string",
          "name": "uri",
          "type": "string"
        },
        {
          "internalType": "uint256",
          "name": "supply",
          "type": "uint256"
        },
        {
          "internalType": "enum NFTCollection.UnderlyingType",
          "name": "underlyingType",
          "type": "uint8"
        }
      ],
      "stateMutability": "view",
      "type": "function"
    },
    {
      "inputs": [],
      "name": "pause",
      "outputs": [],
      "stateMutability": "nonpayable",
      "type": "function"
    },
    {
      "inputs": [],
      "name": "paused",
      "outputs": [
        {
          "internalType": "bool",
          "name": "",
          "type": "bool"
        }
      ],
      "stateMutability": "view",
      "type": "function"
    },
    {
      "inputs": [
        {
          "internalType": "uint256",
          "name": "_nftId",
          "type": "uint256"
        },
        {
          "internalType": "uint256",
          "name": "_amount",
          "type": "uint256"
        }
      ],
      "name": "redeemERC20",
      "outputs": [],
      "stateMutability": "nonpayable",
      "type": "function"
    },
    {
      "inputs": [
        {
          "internalType": "uint256",
          "name": "_nftId",
          "type": "uint256"
        }
      ],
      "name": "redeemERC721",
      "outputs": [],
      "stateMutability": "nonpayable",
      "type": "function"
    },
    {
      "inputs": [
        {
          "internalType": "bytes32",
          "name": "role",
          "type": "bytes32"
        },
        {
          "internalType": "address",
          "name": "account",
          "type": "address"
        }
      ],
      "name": "renounceRole",
      "outputs": [],
      "stateMutability": "nonpayable",
      "type": "function"
    },
    {
      "inputs": [
        {
          "internalType": "bytes32",
          "name": "role",
          "type": "bytes32"
        },
        {
          "internalType": "address",
          "name": "account",
          "type": "address"
        }
      ],
      "name": "revokeRole",
      "outputs": [],
      "stateMutability": "nonpayable",
      "type": "function"
    },
    {
      "inputs": [],
      "name": "royaltyBps",
      "outputs": [
        {
          "internalType": "uint256",
          "name": "",
          "type": "uint256"
        }
      ],
      "stateMutability": "view",
      "type": "function"
    },
    {
      "inputs": [
        {
          "internalType": "uint256",
          "name": "tokenId",
          "type": "uint256"
        },
        {
          "internalType": "uint256",
          "name": "salePrice",
          "type": "uint256"
        }
      ],
      "name": "royaltyInfo",
      "outputs": [
        {
          "internalType": "address",
          "name": "receiver",
          "type": "address"
        },
        {
          "internalType": "uint256",
          "name": "royaltyAmount",
          "type": "uint256"
        }
      ],
      "stateMutability": "view",
      "type": "function"
    },
    {
      "inputs": [
        {
          "internalType": "address",
          "name": "from",
          "type": "address"
        },
        {
          "internalType": "address",
          "name": "to",
          "type": "address"
        },
        {
          "internalType": "uint256[]",
          "name": "ids",
          "type": "uint256[]"
        },
        {
          "internalType": "uint256[]",
          "name": "amounts",
          "type": "uint256[]"
        },
        {
          "internalType": "bytes",
          "name": "data",
          "type": "bytes"
        }
      ],
      "name": "safeBatchTransferFrom",
      "outputs": [],
      "stateMutability": "nonpayable",
      "type": "function"
    },
    {
      "inputs": [
        {
          "internalType": "address",
          "name": "from",
          "type": "address"
        },
        {
          "internalType": "address",
          "name": "to",
          "type": "address"
        },
        {
          "internalType": "uint256",
          "name": "id",
          "type": "uint256"
        },
        {
          "internalType": "uint256",
          "name": "amount",
          "type": "uint256"
        },
        {
          "internalType": "bytes",
          "name": "data",
          "type": "bytes"
        }
      ],
      "name": "safeTransferFrom",
      "outputs": [],
      "stateMutability": "nonpayable",
      "type": "function"
    },
    {
      "inputs": [
        {
          "internalType": "address",
          "name": "operator",
          "type": "address"
        },
        {
          "internalType": "bool",
          "name": "approved",
          "type": "bool"
        }
      ],
      "name": "setApprovalForAll",
      "outputs": [],
      "stateMutability": "nonpayable",
      "type": "function"
    },
    {
      "inputs": [
        {
          "internalType": "string",
          "name": "_URI",
          "type": "string"
        }
      ],
      "name": "setContractURI",
      "outputs": [],
      "stateMutability": "nonpayable",
      "type": "function"
    },
    {
      "inputs": [
        {
          "internalType": "bool",
          "name": "_restrictedTransfer",
          "type": "bool"
        }
      ],
      "name": "setRestrictedTransfer",
      "outputs": [],
      "stateMutability": "nonpayable",
      "type": "function"
    },
    {
      "inputs": [
        {
          "internalType": "uint256",
          "name": "_royaltyBps",
          "type": "uint256"
        }
      ],
      "name": "setRoyaltyBps",
      "outputs": [],
      "stateMutability": "nonpayable",
      "type": "function"
    },
    {
      "inputs": [
        {
          "internalType": "bytes4",
          "name": "interfaceId",
          "type": "bytes4"
        }
      ],
      "name": "supportsInterface",
      "outputs": [
        {
          "internalType": "bool",
          "name": "",
          "type": "bool"
        }
      ],
      "stateMutability": "view",
      "type": "function"
    },
    {
      "inputs": [
        {
          "internalType": "uint256",
          "name": "_nftId",
          "type": "uint256"
        }
      ],
      "name": "tokenURI",
      "outputs": [
        {
          "internalType": "string",
          "name": "",
          "type": "string"
        }
      ],
      "stateMutability": "view",
      "type": "function"
    },
    {
      "inputs": [],
      "name": "unpause",
      "outputs": [],
      "stateMutability": "nonpayable",
      "type": "function"
    },
    {
      "inputs": [
        {
          "internalType": "uint256",
          "name": "_nftId",
          "type": "uint256"
        }
      ],
      "name": "uri",
      "outputs": [
        {
          "internalType": "string",
          "name": "",
          "type": "string"
        }
      ],
      "stateMutability": "view",
      "type": "function"
    },
    {
      "inputs": [
        {
          "internalType": "address",
          "name": "_tokenContract",
          "type": "address"
        },
        {
          "internalType": "uint256",
          "name": "_tokenAmount",
          "type": "uint256"
        },
        {
          "internalType": "uint256",
          "name": "_numOfNftsToMint",
          "type": "uint256"
        },
        {
          "internalType": "string",
          "name": "_nftURI",
          "type": "string"
        }
      ],
      "name": "wrapERC20",
      "outputs": [],
      "stateMutability": "nonpayable",
      "type": "function"
    },
    {
      "inputs": [
        {
          "internalType": "address",
          "name": "_nftContract",
          "type": "address"
        },
        {
          "internalType": "uint256",
          "name": "_tokenId",
          "type": "uint256"
        },
        {
          "internalType": "string",
          "name": "_nftURI",
          "type": "string"
        }
      ],
      "name": "wrapERC721",
      "outputs": [],
      "stateMutability": "nonpayable",
      "type": "function"
    }
  ],
  "bytecode": "0x60806040523480156200001157600080fd5b5060405162005f4138038062005f41833981016040819052620000349162000431565b82828281818062000045816200013d565b506005805460ff191690556200006660006200006062000156565b62000173565b6200008460008051602062005f218339815191526200006062000156565b620000b37f65d7a28e3265b37a6474929f336521b332c1681b933f6cb9f3376673440d862a6200006062000156565b5060058054610100600160a81b0319166101006001600160a01b0393841602179055600680546001600160a01b0319169185169190911790558051620001019060099060208401906200038b565b50620001317f8502233096d909befbda0999bb8ea2f3a6be3c138b9fbf003752a4c8bce86f6c6200006062000156565b5050505050506200059a565b8051620001529060049060208401906200038b565b5050565b60006200016d620001b660201b6200274f1760201c565b90505b90565b6200018a8282620001f660201b6200277d1760201c565b6000828152600160209081526040909120620001b19183906200278b62000202821b17901c565b505050565b6000620001c33362000222565b15620001d9575060131936013560601c62000170565b620001ee6200023b60201b620027a01760201c565b905062000170565b6200015282826200023f565b600062000219836001600160a01b038416620002c9565b90505b92915050565b60055461010090046001600160a01b0390811691161490565b3390565b6200024b828262000318565b62000152576000828152602081815260408083206001600160a01b03851684529091529020805460ff191660011790556200028562000156565b6001600160a01b0316816001600160a01b0316837f2f8788117e7eff1d82e926ec794901d17c78024a50270940304540a733656f0d60405160405180910390a45050565b6000620002d783836200034a565b6200030f575081546001818101845560008481526020808220909301849055845484825282860190935260409020919091556200021c565b5060006200021c565b600060008051602062005f218339815191528314806200021957506200021983836200036260201b620027a41760201c565b60009081526001919091016020526040902054151590565b6000918252602082815260408084206001600160a01b0393909316845291905290205460ff1690565b82805462000399906200052e565b90600052602060002090601f016020900481019282620003bd576000855562000408565b82601f10620003d857805160ff191683800117855562000408565b8280016001018555821562000408579182015b8281111562000408578251825591602001919060010190620003eb565b50620004169291506200041a565b5090565b5b808211156200041657600081556001016200041b565b60008060006060848603121562000446578283fd5b8351620004538162000581565b80935050602080850151620004688162000581565b60408601519093506001600160401b038082111562000485578384fd5b818701915087601f83011262000499578384fd5b815181811115620004ae57620004ae6200056b565b604051601f8201601f1916810185018381118282101715620004d457620004d46200056b565b60405281815283820185018a1015620004eb578586fd5b8592505b818310156200050e5783830185015181840186015291840191620004ef565b818311156200051f57858583830101525b80955050505050509250925092565b6002810460018216806200054357607f821691505b602082108114156200056557634e487b7160e01b600052602260045260246000fd5b50919050565b634e487b7160e01b600052604160045260246000fd5b6001600160a01b03811681146200059757600080fd5b50565b61597780620005aa6000396000f3fe608060405234801561001057600080fd5b50600436106103145760003560e01c8063788f1f5e116101a7578063c63adb2b116100ee578063ddfa3e2211610097578063e985e9c511610071578063e985e9c51461063f578063f242432a14610652578063f5298aca1461066557610314565b8063ddfa3e221461061c578063e63ab1e91461062f578063e8a3d4851461063757610314565b8063d5391393116100c8578063d5391393146105ee578063d547741f146105f6578063db884b0c1461060957610314565b8063c63adb2b146105d3578063c87b56dd14610377578063ca15c873146105db57610314565b806391d1485411610150578063a217fddf1161012a578063a217fddf146105b0578063a22cb465146105b8578063c0e72740146105cb57610314565b806391d1485414610577578063938e3d7b1461058a57806393b778d41461059d57610314565b80638456cb59116101815780638456cb59146105495780638ba448c2146105515780639010d07c1461056457610314565b8063788f1f5e1461051b5780637a61080b1461052e57806383661b291461054157610314565b80632eb2c2d61161026b578063510b5158116102145780636b20c454116101ee5780636b20c454146104ed578063731133e91461050057806375794a3c1461051357610314565b8063510b5158146104b2578063572b6c05146104d25780635c975abb146104e557610314565b80633f4ba83a116102455780633f4ba83a1461047757806341466a951461047f5780634e1273f41461049f57610314565b80632eb2c2d61461043e5780632f2ff15d1461045157806336568abe1461046457610314565b80631f72d831116102cd578063206b60f9116102a7578063206b60f914610402578063248a9ca31461040a5780632a55205a1461041d57610314565b80631f72d831146103b95780631f7fdffa146103cc5780631f8bc790146103df57610314565b8063090a3282116102fe578063090a3282146103625780630e89341c146103775780631ceb2dc21461039757610314565b8062fdd58e1461031957806301ffc9a714610342575b600080fd5b61032c6103273660046141e4565b610678565b60405161033991906149b9565b60405180910390f35b610355610350366004614524565b6106d4565b60405161033991906149ae565b61037561037036600461420f565b6106ff565b005b61038a6103853660046144af565b610c07565b6040516103399190614a0a565b6103aa6103a53660046144af565b610cac565b6040516103399392919061488d565b6103756103c73660046144af565b610cd7565b6103756103da366004614120565b610f73565b6103f26103ed3660046144af565b610f8b565b604051610339949392919061481d565b61032c61104a565b61032c6104183660046144af565b61106e565b61043061042b366004614503565b611083565b604051610339929190614874565b61037561044c366004613ed9565b611144565b61037561045f3660046144df565b6111a2565b6103756104723660046144df565b6111c9565b6103756111eb565b61049261048d36600461441a565b61123d565b60405161033991906148ae565b6104926104ad36600461435a565b6115e6565b6104c56104c03660046144af565b611706565b604051610339919061472a565b6103556104e0366004613e69565b611721565b61035561173a565b6103756104fb3660046140ad565b611744565b61037561050e36600461429d565b611799565b61032c6117b1565b610375610529366004613fea565b6117b7565b61037561053c366004614503565b611934565b610355611abf565b610375611acf565b61037561055f366004614477565b611b1f565b6104c5610572366004614503565b611c6e565b6103556105853660046144df565b611c8d565b61037561059836600461455c565b611cc2565b6103756105ab3660046144af565b611de4565b61032c611f31565b6103756105c63660046141b7565b611f36565b61038a612004565b61032c612092565b61032c6105e93660046144af565b612098565b61032c6120af565b6103756106043660046144df565b6120d3565b6103756106173660046142f2565b6120dd565b61043061062a3660046144af565b61259a565b61032c6125bf565b61038a6125e3565b61035561064d366004613ea1565b612675565b610375610660366004613f83565b6126a3565b610375610673366004614269565b6126fa565b60006001600160a01b0383166106a95760405162461bcd60e51b81526004016106a090614b43565b60405180910390fd5b5060008181526002602090815260408083206001600160a01b03861684529091529020545b92915050565b60006106df826127cd565b806106ce57506001600160e01b0319821663152a902d60e11b1492915050565b600660009054906101000a90046001600160a01b03166001600160a01b0316639d2f83f06040518163ffffffff1660e01b815260040160206040518083038186803b15801561074d57600080fd5b505afa158015610761573d6000803e3d6000fd5b505050506040513d601f19601f820116820180604052508101906107859190614493565b156107a25760405162461bcd60e51b81526004016106a09061514a565b6107ce7f9f2df0fed2c77648de5860a4cc508cd0818c85b8b8a1ab4ceeef8d981c8956a66105856127d8565b6107ea5760405162461bcd60e51b81526004016106a090614fca565b6107f26127d8565b6001600160a01b0316846001600160a01b0316636352211e856040518263ffffffff1660e01b815260040161082791906149b9565b60206040518083038186803b15801561083f57600080fd5b505afa158015610853573d6000803e3d6000fd5b505050506040513d601f19601f820116820180604052508101906108779190613e85565b6001600160a01b03161461089d5760405162461bcd60e51b81526004016106a09061543f565b60405163020604bf60e21b815230906001600160a01b0386169063081812fc906108cb9087906004016149b9565b60206040518083038186803b1580156108e357600080fd5b505afa1580156108f7573d6000803e3d6000fd5b505050506040513d601f19601f8201168201806040525081019061091b9190613e85565b6001600160a01b031614806109b05750836001600160a01b031663e985e9c56109426127d8565b306040518363ffffffff1660e01b815260040161096092919061473e565b60206040518083038186803b15801561097857600080fd5b505afa15801561098c573d6000803e3d6000fd5b505050506040513d601f19601f820116820180604052508101906109b09190614493565b6109cc5760405162461bcd60e51b81526004016106a090614c9e565b836001600160a01b03166342842e0e6109e36127d8565b30866040518463ffffffff1660e01b8152600401610a03939291906147b6565b600060405180830381600087803b158015610a1d57600080fd5b505af1158015610a31573d6000803e3d6000fd5b50505050610a5a610a406127d8565b6007546001604051806020016040528060008152506127e7565b6040518060800160405280610a6d6127d8565b6001600160a01b0316815260200183838080601f016020809104026020016040519081016040528093929190818152602001838380828437600092018290525093855250506001602080850182905260026040958601526007548452600a815293909220845181546001600160a01b0319166001600160a01b039091161781558484015180519194610b0494860193500190613bfc565b506040820151816002015560608201518160030160006101000a81548160ff02191690836002811115610b4757634e487b7160e01b600052602160045260246000fd5b0217905550506040805180820182526001600160a01b0387811680835260208084018981526007546000908152600b909252949020925183546001600160a01b031916921691909117825591516001909101559050610ba46127d8565b6001600160a01b03167fdae1779be741094a20f8287fd2c7a4d2d745eeae29c438867017066ae27a1bc4856007548686604051610be4949392919061565f565b60405180910390a360078054906000610bfc8361583c565b919050555050505050565b6000818152600a60205260409020600101805460609190610c2790615801565b80601f0160208091040260200160405190810160405280929190818152602001828054610c5390615801565b8015610ca05780601f10610c7557610100808354040283529160200191610ca0565b820191906000526020600020905b815481529060010190602001808311610c8357829003601f168201915b50505050509050919050565b600c602052600090815260409020805460018201546002909201546001600160a01b03909116919083565b60065460408051634a32c6bf60e11b815290516001600160a01b03909216916391d148549183916394658d7e91600480820192602092909190829003018186803b158015610d2457600080fd5b505afa158015610d38573d6000803e3d6000fd5b505050506040513d601f19601f82011682018060405250810190610d5c91906144c7565b610d646127d8565b6040518363ffffffff1660e01b8152600401610d819291906149c2565b60206040518083038186803b158015610d9957600080fd5b505afa158015610dad573d6000803e3d6000fd5b505050506040513d601f19601f82011682018060405250810190610dd19190614493565b610ded5760405162461bcd60e51b81526004016106a0906152cb565b600660009054906101000a90046001600160a01b03166001600160a01b0316635cd423156040518163ffffffff1660e01b815260040160206040518083038186803b158015610e3b57600080fd5b505afa158015610e4f573d6000803e3d6000fd5b505050506040513d601f19601f82011682018060405250810190610e73919061459c565b600660009054906101000a90046001600160a01b03166001600160a01b031663fd967f476040518163ffffffff1660e01b815260040160206040518083038186803b158015610ec157600080fd5b505afa158015610ed5573d6000803e3d6000fd5b505050506040513d601f19601f82011682018060405250810190610ef9919061459c565b610f03919061571c565b6fffffffffffffffffffffffffffffffff168110610f335760405162461bcd60e51b81526004016106a0906150ed565b60088190556040517f244ea8d7627f5a08f4299862bd5a45752842c183aee5b0fb0d1e4887bfa605b390610f689083906149b9565b60405180910390a150565b60405162461bcd60e51b81526004016106a090614c41565b600a60205260009081526040902080546001820180546001600160a01b039092169291610fb790615801565b80601f0160208091040260200160405190810160405280929190818152602001828054610fe390615801565b80156110305780601f1061100557610100808354040283529160200191611030565b820191906000526020600020905b81548152906001019060200180831161101357829003601f168201915b50505050600283015460039093015491929160ff16905084565b7f8502233096d909befbda0999bb8ea2f3a6be3c138b9fbf003752a4c8bce86f6c81565b60009081526020819052604090206001015490565b6000828152600a6020908152604080832054600654825163fd967f4760e01b815292516001600160a01b039283169594919092169263fd967f479260048083019392829003018186803b1580156110d957600080fd5b505afa1580156110ed573d6000803e3d6000fd5b505050506040513d601f19601f82011682018060405250810190611111919061459c565b6fffffffffffffffffffffffffffffffff16600854846111319190615788565b61113b9190615768565b90509250929050565b61114c6127d8565b6001600160a01b0316856001600160a01b0316148061117257506111728561064d6127d8565b61118e5760405162461bcd60e51b81526004016106a090614f6d565b61119b858585858561281f565b5050505050565b6111ac82826129f3565b60008281526001602052604090206111c4908261278b565b505050565b6111d38282612a17565b60008281526001602052604090206111c49082612a59565b6112177f65d7a28e3265b37a6474929f336521b332c1681b933f6cb9f3376673440d862a6105856127d8565b6112335760405162461bcd60e51b81526004016106a090615211565b61123b612a6e565b565b600654604080516309d2f83f60e41b815290516060926001600160a01b031691639d2f83f0916004808301926020929190829003018186803b15801561128257600080fd5b505afa158015611296573d6000803e3d6000fd5b505050506040513d601f19601f820116820180604052508101906112ba9190614493565b156112d75760405162461bcd60e51b81526004016106a09061514a565b6113037f9f2df0fed2c77648de5860a4cc508cd0818c85b8b8a1ab4ceeef8d981c8956a66105856127d8565b61131f5760405162461bcd60e51b81526004016106a090614fca565b83821461133e5760405162461bcd60e51b81526004016106a090614e13565b8361135b5760405162461bcd60e51b81526004016106a09061549c565b8367ffffffffffffffff81111561138257634e487b7160e01b600052604160045260246000fd5b6040519080825280602002602001820160405280156113ab578160200160208202803683370190505b50905060005b8481101561153a576007548282815181106113dc57634e487b7160e01b600052603260045260246000fd5b60200260200101818152505060405180608001604052806113fb6127d8565b6001600160a01b0316815260200187878481811061142957634e487b7160e01b600052603260045260246000fd5b905060200281019061143b9190615689565b8080601f0160208091040260200160405190810160405280939291908181526020018383808284376000920182905250938552505050602082018190526040909101526007546000908152600a60209081526040909120825181546001600160a01b0319166001600160a01b0390911617815582820151805191926114c892600185019290910190613bfc565b506040820151816002015560608201518160030160006101000a81548160ff0219169083600281111561150b57634e487b7160e01b600052602160045260246000fd5b02179055505060078054915060006115228361583c565b919050555080806115329061583c565b9150506113b1565b5061158e6115466127d8565b82858580806020026020016040519081016040528093929190818152602001838360200280828437600092018290525060408051602081019091529081529250612adc915050565b6115966127d8565b6001600160a01b03167f9ead818be0b43d79a78daaabe6c787d254ac1279ac99d9ff62b6b227804f7b3382878787876040516115d69594939291906148c1565b60405180910390a2949350505050565b606081518351146116095760405162461bcd60e51b81526004016106a090615385565b6000835167ffffffffffffffff81111561163357634e487b7160e01b600052604160045260246000fd5b60405190808252806020026020018201604052801561165c578160200160208202803683370190505b50905060005b84518110156116fe576116c385828151811061168e57634e487b7160e01b600052603260045260246000fd5b60200260200101518583815181106116b657634e487b7160e01b600052603260045260246000fd5b6020026020010151610678565b8282815181106116e357634e487b7160e01b600052603260045260246000fd5b60209081029190910101526116f78161583c565b9050611662565b509392505050565b6000908152600a60205260409020546001600160a01b031690565b60055461010090046001600160a01b0390811691161490565b60055460ff165b90565b61174c6127d8565b6001600160a01b0316836001600160a01b0316148061177257506117728361064d6127d8565b61178e5760405162461bcd60e51b81526004016106a090614d58565b6111c4838383612b7e565b60405162461bcd60e51b81526004016106a090615597565b60075481565b600660009054906101000a90046001600160a01b03166001600160a01b0316639d2f83f06040518163ffffffff1660e01b815260040160206040518083038186803b15801561180557600080fd5b505afa158015611819573d6000803e3d6000fd5b505050506040513d601f19601f8201168201806040525081019061183d9190614493565b1561185a5760405162461bcd60e51b81526004016106a09061514a565b6118867f9f2df0fed2c77648de5860a4cc508cd0818c85b8b8a1ab4ceeef8d981c8956a66105856127d8565b6118a25760405162461bcd60e51b81526004016106a090614fca565b60006118b08a8a8a8a61123d565b9050600086868686866040516020016118cd9594939291906149d9565b60405160208183030381529060405290506119266118e96127d8565b8d848c8c80806020026020016040519081016040528093929190818152602001838360200280828437600092019190915250889250611144915050565b505050505050505050505050565b806119466119406127d8565b84610678565b10156119645760405162461bcd60e51b81526004016106a0906153e2565b61197661196f6127d8565b8383612c25565b6000828152600c60205260408120600181015460029091015461199a908490615788565b6119a49190615768565b6000848152600c60205260409020549091506001600160a01b031663a9059cbb6119cc6127d8565b836040518363ffffffff1660e01b81526004016119ea929190614874565b602060405180830381600087803b158015611a0457600080fd5b505af1158015611a18573d6000803e3d6000fd5b505050506040513d601f19601f82011682018060405250810190611a3c9190614493565b611a585760405162461bcd60e51b81526004016106a090614ba0565b6000838152600c60205260409020546001600160a01b0316611a786127d8565b6001600160a01b03167fb7ca9e3aa58248cbaa6a5f83ca826cc57bf8ecd128fd88da420e294353c652f98385604051611ab2929190615651565b60405180910390a3505050565b600554600160a81b900460ff1681565b611afb7f65d7a28e3265b37a6474929f336521b332c1681b933f6cb9f3376673440d862a6105856127d8565b611b175760405162461bcd60e51b81526004016106a09061526e565b61123b612c5b565b60065460408051634a32c6bf60e11b815290516001600160a01b03909216916391d148549183916394658d7e91600480820192602092909190829003018186803b158015611b6c57600080fd5b505afa158015611b80573d6000803e3d6000fd5b505050506040513d601f19601f82011682018060405250810190611ba491906144c7565b611bac6127d8565b6040518363ffffffff1660e01b8152600401611bc99291906149c2565b60206040518083038186803b158015611be157600080fd5b505afa158015611bf5573d6000803e3d6000fd5b505050506040513d601f19601f82011682018060405250810190611c199190614493565b611c355760405162461bcd60e51b81526004016106a0906152cb565b60058054911515600160a81b027fffffffffffffffffffff00ffffffffffffffffffffffffffffffffffffffffff909216919091179055565b6000828152600160205260408120611c869083612cb6565b9392505050565b60007f9f2df0fed2c77648de5860a4cc508cd0818c85b8b8a1ab4ceeef8d981c8956a6831480611c865750611c8683836127a4565b60065460408051634a32c6bf60e11b815290516001600160a01b03909216916391d148549183916394658d7e91600480820192602092909190829003018186803b158015611d0f57600080fd5b505afa158015611d23573d6000803e3d6000fd5b505050506040513d601f19601f82011682018060405250810190611d4791906144c7565b611d4f6127d8565b6040518363ffffffff1660e01b8152600401611d6c9291906149c2565b60206040518083038186803b158015611d8457600080fd5b505afa158015611d98573d6000803e3d6000fd5b505050506040513d601f19601f82011682018060405250810190611dbc9190614493565b611dd85760405162461bcd60e51b81526004016106a0906152cb565b6111c460098383613c80565b6000611df7611df16127d8565b83610678565b11611e145760405162461bcd60e51b81526004016106a0906153e2565b611e27611e1f6127d8565b826001612c25565b6000818152600b60205260409020546001600160a01b03166342842e0e30611e4d6127d8565b6000858152600b6020526040908190206001015490516001600160e01b031960e086901b168152611e83939291906004016147b6565b600060405180830381600087803b158015611e9d57600080fd5b505af1158015611eb1573d6000803e3d6000fd5b5050506000828152600b60205260409020546001600160a01b03169050611ed66127d8565b6001600160a01b03167fea7b88a04220a2292e142652e8e1a59cc00e7d27d8ad6b11da6cf5870e6ba866600b60008581526020019081526020016000206001015484604051611f26929190615651565b60405180910390a350565b600081565b816001600160a01b0316611f486127d8565b6001600160a01b03161415611f6f5760405162461bcd60e51b81526004016106a090615328565b8060036000611f7c6127d8565b6001600160a01b03908116825260208083019390935260409182016000908120918716808252919093529120805460ff191692151592909217909155611fc06127d8565b6001600160a01b03167f17307eab39ab6107e8899845ad3d59bd9653f200f220920489ca2b5937696c3183604051611ff891906149ae565b60405180910390a35050565b6009805461201190615801565b80601f016020809104026020016040519081016040528092919081815260200182805461203d90615801565b801561208a5780601f1061205f5761010080835404028352916020019161208a565b820191906000526020600020905b81548152906001019060200180831161206d57829003601f168201915b505050505081565b60085481565b60008181526001602052604081206106ce90612cc2565b7f9f2df0fed2c77648de5860a4cc508cd0818c85b8b8a1ab4ceeef8d981c8956a681565b6111d38282612ccd565b600660009054906101000a90046001600160a01b03166001600160a01b0316639d2f83f06040518163ffffffff1660e01b815260040160206040518083038186803b15801561212b57600080fd5b505afa15801561213f573d6000803e3d6000fd5b505050506040513d601f19601f820116820180604052508101906121639190614493565b156121805760405162461bcd60e51b81526004016106a09061514a565b6121ac7f9f2df0fed2c77648de5860a4cc508cd0818c85b8b8a1ab4ceeef8d981c8956a66105856127d8565b6121c85760405162461bcd60e51b81526004016106a090614fca565b83856001600160a01b03166370a082316121e06127d8565b6040518263ffffffff1660e01b81526004016121fc919061472a565b60206040518083038186803b15801561221457600080fd5b505afa158015612228573d6000803e3d6000fd5b505050506040513d601f19601f8201168201806040525081019061224c91906144c7565b101561226a5760405162461bcd60e51b81526004016106a0906151a7565b83856001600160a01b031663dd62ed3e6122826127d8565b306040518363ffffffff1660e01b81526004016122a092919061473e565b60206040518083038186803b1580156122b857600080fd5b505afa1580156122cc573d6000803e3d6000fd5b505050506040513d601f19601f820116820180604052508101906122f091906144c7565b101561230e5760405162461bcd60e51b81526004016106a090614ea7565b846001600160a01b03166323b872dd6123256127d8565b30876040518463ffffffff1660e01b8152600401612345939291906147b6565b602060405180830381600087803b15801561235f57600080fd5b505af1158015612373573d6000803e3d6000fd5b505050506040513d601f19601f820116820180604052508101906123979190614493565b6123b35760405162461bcd60e51b81526004016106a090614ba0565b6123d76123be6127d8565b60075485604051806020016040528060008152506127e7565b60405180608001604052806123ea6127d8565b6001600160a01b0316815260200183838080601f01602080910402602001604051908101604052809392919081815260200183838082843760009201919091525050509082525060208101859052604001600190526007546000908152600a60209081526040909120825181546001600160a01b0319166001600160a01b03909116178155828201518051919261248992600185019290910190613bfc565b506040820151816002015560608201518160030160006101000a81548160ff021916908360028111156124cc57634e487b7160e01b600052602160045260246000fd5b021790555050604080516060810182526001600160a01b0388811680835260208084018981528486018b81526007546000908152600c90935295909120935184546001600160a01b031916931692909217835590516001830155915160029091015590506125386127d8565b6001600160a01b03167fd8bffec4446d425694f73630f7822315baa62da5311e89f0d83335ef6a3917ba86868686604051612576949392919061565f565b60405180910390a36007805490600061258e8361583c565b91905055505050505050565b600b60205260009081526040902080546001909101546001600160a01b039091169082565b7f65d7a28e3265b37a6474929f336521b332c1681b933f6cb9f3376673440d862a81565b6060600980546125f290615801565b80601f016020809104026020016040519081016040528092919081815260200182805461261e90615801565b801561266b5780601f106126405761010080835404028352916020019161266b565b820191906000526020600020905b81548152906001019060200180831161264e57829003601f168201915b5050505050905090565b6001600160a01b03918216600090815260036020908152604080832093909416825291909152205460ff1690565b6126ab6127d8565b6001600160a01b0316856001600160a01b031614806126d157506126d18561064d6127d8565b6126ed5760405162461bcd60e51b81526004016106a090614d58565b61119b8585858585612cec565b6127026127d8565b6001600160a01b0316836001600160a01b0316148061272857506127288361064d6127d8565b6127445760405162461bcd60e51b81526004016106a090614d58565b6111c4838383612c25565b600061275a33611721565b1561276e575060131936013560601c611741565b6127766127a0565b9050611741565b6127878282612e33565b5050565b6000611c86836001600160a01b038416612eb8565b3390565b6000918252602082815260408084206001600160a01b0393909316845291905290205460ff1690565b60006106ce82612f02565b60006127e261274f565b905090565b6127f384848484612f42565b6000838152600a602052604081206002018054849290612814908490615750565b909155505050505050565b81518351146128405760405162461bcd60e51b81526004016106a0906154f9565b6001600160a01b0384166128665760405162461bcd60e51b81526004016106a090614f10565b60006128706127d8565b9050612880818787878787613024565b60005b84518110156129855760008582815181106128ae57634e487b7160e01b600052603260045260246000fd5b6020026020010151905060008583815181106128da57634e487b7160e01b600052603260045260246000fd5b60209081029190910181015160008481526002835260408082206001600160a01b038e16835290935291909120549091508181101561292b5760405162461bcd60e51b81526004016106a090615090565b60008381526002602090815260408083206001600160a01b038e8116855292528083208585039055908b1682528120805484929061296a908490615750565b925050819055505050508061297e9061583c565b9050612883565b50846001600160a01b0316866001600160a01b0316826001600160a01b03167f4a39dc06d4c0dbc64b70af90fd698a233a518aa5d07e595d983b8c0526c8f7fb87876040516129d5929190614980565b60405180910390a46129eb8187878787876130ba565b505050505050565b6129fc8261106e565b612a0d81612a086127d8565b6131c8565b6111c48383612e33565b612a1f6127d8565b6001600160a01b0316816001600160a01b031614612a4f5760405162461bcd60e51b81526004016106a0906155f4565b612787828261322c565b6000611c86836001600160a01b0384166132af565b612a7661173a565b612a925760405162461bcd60e51b81526004016106a090614b0c565b6005805460ff191690557f5db9ee0a495bf2e6ff9c91a7834c1ba4fdd244a5e8aa4e537bd38aeae4b073aa612ac56127d8565b604051612ad2919061472a565b60405180910390a1565b612ae8848484846133cc565b60005b835181101561119b57828181518110612b1457634e487b7160e01b600052603260045260246000fd5b6020026020010151600a6000868481518110612b4057634e487b7160e01b600052603260045260246000fd5b602002602001015181526020019081526020016000206002016000828254612b689190615750565b90915550612b7790508161583c565b9050612aeb565b612b8983838361354e565b60005b8251811015612c1f57818181518110612bb557634e487b7160e01b600052603260045260246000fd5b6020026020010151600a6000858481518110612be157634e487b7160e01b600052603260045260246000fd5b602002602001015181526020019081526020016000206002016000828254612c0991906157a7565b90915550612c1890508161583c565b9050612b8c565b50505050565b612c30838383613702565b6000828152600a602052604081206002018054839290612c519084906157a7565b9091555050505050565b612c6361173a565b15612c805760405162461bcd60e51b81526004016106a090614e70565b6005805460ff191660011790557f62e78cea01bee320cd4e420270b5ea74000d11b0c9f74754ebdbfc544b05a258612ac56127d8565b6000611c868383613815565b60006106ce8261384d565b612cd68261106e565b612ce281612a086127d8565b6111c4838361322c565b6001600160a01b038416612d125760405162461bcd60e51b81526004016106a090614f10565b6000612d1c6127d8565b9050612d3c818787612d2d88613851565b612d3688613851565b87613024565b60008481526002602090815260408083206001600160a01b038a16845290915290205483811015612d7f5760405162461bcd60e51b81526004016106a090615090565b60008581526002602090815260408083206001600160a01b038b8116855292528083208785039055908816825281208054869290612dbe908490615750565b92505081905550856001600160a01b0316876001600160a01b0316836001600160a01b03167fc3d58168c5ae7397731d063d5bbf3d657854427343f4c083240f7aacaa2d0f628888604051612e14929190615651565b60405180910390a4612e2a8288888888886138aa565b50505050505050565b612e3d8282611c8d565b612787576000828152602081815260408083206001600160a01b03851684529091529020805460ff19166001179055612e746127d8565b6001600160a01b0316816001600160a01b0316837f2f8788117e7eff1d82e926ec794901d17c78024a50270940304540a733656f0d60405160405180910390a45050565b6000612ec4838361397b565b612efa575081546001818101845560008481526020808220909301849055845484825282860190935260409020919091556106ce565b5060006106ce565b60006001600160e01b03198216636cdb3d1360e11b1480612f3357506001600160e01b031982166303a24d0760e21b145b806106ce57506106ce82613993565b6001600160a01b038416612f685760405162461bcd60e51b81526004016106a090615556565b6000612f726127d8565b9050612f8481600087612d2d88613851565b60008481526002602090815260408083206001600160a01b038916845290915281208054859290612fb6908490615750565b92505081905550846001600160a01b031660006001600160a01b0316826001600160a01b03167fc3d58168c5ae7397731d063d5bbf3d657854427343f4c083240f7aacaa2d0f62878760405161300d929190615651565b60405180910390a461119b816000878787876138aa565b6130328686868686866139b8565b600554600160a81b900460ff16156129eb5761306e7f8502233096d909befbda0999bb8ea2f3a6be3c138b9fbf003752a4c8bce86f6c86611c8d565b8061309e575061309e7f8502233096d909befbda0999bb8ea2f3a6be3c138b9fbf003752a4c8bce86f6c85611c8d565b6129eb5760405162461bcd60e51b81526004016106a090614db5565b6130cc846001600160a01b03166139c6565b156129eb5760405163bc197c8160e01b81526001600160a01b0385169063bc197c81906131059089908990889088908890600401614758565b602060405180830381600087803b15801561311f57600080fd5b505af192505050801561314f575060408051601f3d908101601f1916820190925261314c91810190614540565b60015b6131985761315b615889565b806131665750613180565b8060405162461bcd60e51b81526004016106a09190614a0a565b60405162461bcd60e51b81526004016106a090614a1d565b6001600160e01b0319811663bc197c8160e01b14612e2a5760405162461bcd60e51b81526004016106a090614aaf565b6131d28282611c8d565b612787576131ea816001600160a01b031660146139cc565b6131f58360206139cc565b6040516020016132069291906146a9565b60408051601f198184030181529082905262461bcd60e51b82526106a091600401614a0a565b6132368282611c8d565b15612787576000828152602081815260408083206001600160a01b03851684529091529020805460ff1916905561326b6127d8565b6001600160a01b0316816001600160a01b0316837ff6391f5c32d9c69d2a47ea670b442974b53935d1edc7fd64eb21e047a839171b60405160405180910390a45050565b600081815260018301602052604081205480156133c25760006132d36001836157a7565b85549091506000906132e7906001906157a7565b905081811461336857600086600001828154811061331557634e487b7160e01b600052603260045260246000fd5b906000526020600020015490508087600001848154811061334657634e487b7160e01b600052603260045260246000fd5b6000918252602080832090910192909255918252600188019052604090208390555b855486908061338757634e487b7160e01b600052603160045260246000fd5b6001900381819060005260206000200160009055905585600101600086815260200190815260200160002060009055600193505050506106ce565b60009150506106ce565b6001600160a01b0384166133f25760405162461bcd60e51b81526004016106a090615556565b81518351146134135760405162461bcd60e51b81526004016106a0906154f9565b600061341d6127d8565b905061342e81600087878787613024565b60005b84518110156134e65783818151811061345a57634e487b7160e01b600052603260045260246000fd5b60200260200101516002600087848151811061348657634e487b7160e01b600052603260045260246000fd5b602002602001015181526020019081526020016000206000886001600160a01b03166001600160a01b0316815260200190815260200160002060008282546134ce9190615750565b909155508190506134de8161583c565b915050613431565b50846001600160a01b031660006001600160a01b0316826001600160a01b03167f4a39dc06d4c0dbc64b70af90fd698a233a518aa5d07e595d983b8c0526c8f7fb8787604051613537929190614980565b60405180910390a461119b816000878787876130ba565b6001600160a01b0383166135745760405162461bcd60e51b81526004016106a09061504d565b80518251146135955760405162461bcd60e51b81526004016106a0906154f9565b600061359f6127d8565b90506135bf81856000868660405180602001604052806000815250613024565b60005b83518110156136a35760008482815181106135ed57634e487b7160e01b600052603260045260246000fd5b60200260200101519050600084838151811061361957634e487b7160e01b600052603260045260246000fd5b60209081029190910181015160008481526002835260408082206001600160a01b038c16835290935291909120549091508181101561366a5760405162461bcd60e51b81526004016106a090614bfd565b60009283526002602090815260408085206001600160a01b038b168652909152909220910390558061369b8161583c565b9150506135c2565b5060006001600160a01b0316846001600160a01b0316826001600160a01b03167f4a39dc06d4c0dbc64b70af90fd698a233a518aa5d07e595d983b8c0526c8f7fb86866040516136f4929190614980565b60405180910390a450505050565b6001600160a01b0383166137285760405162461bcd60e51b81526004016106a09061504d565b60006137326127d8565b90506137628185600061374487613851565b61374d87613851565b60405180602001604052806000815250613024565b60008381526002602090815260408083206001600160a01b0388168452909152902054828110156137a55760405162461bcd60e51b81526004016106a090614bfd565b60008481526002602090815260408083206001600160a01b03808a16808652919093528184208786039055905190918516907fc3d58168c5ae7397731d063d5bbf3d657854427343f4c083240f7aacaa2d0f62906138069089908990615651565b60405180910390a45050505050565b600082600001828154811061383a57634e487b7160e01b600052603260045260246000fd5b9060005260206000200154905092915050565b5490565b6040805160018082528183019092526060916000919060208083019080368337019050509050828160008151811061389957634e487b7160e01b600052603260045260246000fd5b602090810291909101015292915050565b6138bc846001600160a01b03166139c6565b156129eb5760405163f23a6e6160e01b81526001600160a01b0385169063f23a6e61906138f590899089908890889088906004016147da565b602060405180830381600087803b15801561390f57600080fd5b505af192505050801561393f575060408051601f3d908101601f1916820190925261393c91810190614540565b60015b61394b5761315b615889565b6001600160e01b0319811663f23a6e6160e01b14612e2a5760405162461bcd60e51b81526004016106a090614aaf565b60009081526001919091016020526040902054151590565b60006001600160e01b03198216635a05180f60e01b14806106ce57506106ce82613b8b565b6129eb868686868686613bb0565b3b151590565b606060006139db836002615788565b6139e6906002615750565b67ffffffffffffffff811115613a0c57634e487b7160e01b600052604160045260246000fd5b6040519080825280601f01601f191660200182016040528015613a36576020820181803683370190505b509050600360fc1b81600081518110613a5f57634e487b7160e01b600052603260045260246000fd5b60200101906001600160f81b031916908160001a905350600f60fb1b81600181518110613a9c57634e487b7160e01b600052603260045260246000fd5b60200101906001600160f81b031916908160001a9053506000613ac0846002615788565b613acb906001615750565b90505b6001811115613b6c577f303132333435363738396162636465660000000000000000000000000000000085600f1660108110613b1a57634e487b7160e01b600052603260045260246000fd5b1a60f81b828281518110613b3e57634e487b7160e01b600052603260045260246000fd5b60200101906001600160f81b031916908160001a90535060049490941c93613b65816157ea565b9050613ace565b508315611c865760405162461bcd60e51b81526004016106a090614a7a565b60006001600160e01b03198216637965db0b60e01b14806106ce57506106ce82613be3565b613bbe8686868686866129eb565b613bc661173a565b156129eb5760405162461bcd60e51b81526004016106a090614cfb565b6001600160e01b031981166301ffc9a760e01b14919050565b828054613c0890615801565b90600052602060002090601f016020900481019282613c2a5760008555613c70565b82601f10613c4357805160ff1916838001178555613c70565b82800160010185558215613c70579182015b82811115613c70578251825591602001919060010190613c55565b50613c7c929150613cf4565b5090565b828054613c8c90615801565b90600052602060002090601f016020900481019282613cae5760008555613c70565b82601f10613cc75782800160ff19823516178555613c70565b82800160010185558215613c70579182015b82811115613c70578235825591602001919060010190613cd9565b5b80821115613c7c5760008155600101613cf5565b60008083601f840112613d1a578182fd5b50813567ffffffffffffffff811115613d31578182fd5b6020830191508360208083028501011115613d4b57600080fd5b9250929050565b600082601f830112613d62578081fd5b81356020613d77613d72836156f8565b6156ce565b8281528181019085830183850287018401881015613d93578586fd5b855b85811015613db157813584529284019290840190600101613d95565b5090979650505050505050565b600082601f830112613dce578081fd5b813567ffffffffffffffff811115613de857613de861586d565b613dfb601f8201601f19166020016156ce565b818152846020838601011115613e0f578283fd5b816020850160208301379081016020019190915292915050565b60008083601f840112613e3a578182fd5b50813567ffffffffffffffff811115613e51578182fd5b602083019150836020828501011115613d4b57600080fd5b600060208284031215613e7a578081fd5b8135611c868161592e565b600060208284031215613e96578081fd5b8151611c868161592e565b60008060408385031215613eb3578081fd5b8235613ebe8161592e565b91506020830135613ece8161592e565b809150509250929050565b600080600080600060a08688031215613ef0578081fd5b8535613efb8161592e565b94506020860135613f0b8161592e565b9350604086013567ffffffffffffffff80821115613f27578283fd5b613f3389838a01613d52565b94506060880135915080821115613f48578283fd5b613f5489838a01613d52565b93506080880135915080821115613f69578283fd5b50613f7688828901613dbe565b9150509295509295909350565b600080600080600060a08688031215613f9a578081fd5b8535613fa58161592e565b94506020860135613fb58161592e565b93506040860135925060608601359150608086013567ffffffffffffffff811115613fde578182fd5b613f7688828901613dbe565b60008060008060008060008060008060e08b8d031215614008578788fd5b8a356140138161592e565b995060208b013567ffffffffffffffff8082111561402f57898afd5b61403b8e838f01613d09565b909b50995060408d0135915080821115614053578687fd5b61405f8e838f01613d09565b909950975060608d0135915080821115614077578687fd5b506140848d828e01613e29565b9b9e9a9d50989b979a9699969760808101359760a0820135975060c09091013595509350505050565b6000806000606084860312156140c1578081fd5b83356140cc8161592e565b9250602084013567ffffffffffffffff808211156140e8578283fd5b6140f487838801613d52565b93506040860135915080821115614109578283fd5b5061411686828701613d52565b9150509250925092565b60008060008060808587031215614135578182fd5b84356141408161592e565b9350602085013567ffffffffffffffff8082111561415c578384fd5b61416888838901613d52565b9450604087013591508082111561417d578384fd5b61418988838901613d52565b9350606087013591508082111561419e578283fd5b506141ab87828801613dbe565b91505092959194509250565b600080604083850312156141c9578182fd5b82356141d48161592e565b91506020830135613ece81615946565b600080604083850312156141f6578182fd5b82356142018161592e565b946020939093013593505050565b60008060008060608587031215614224578182fd5b843561422f8161592e565b935060208501359250604085013567ffffffffffffffff811115614251578283fd5b61425d87828801613e29565b95989497509550505050565b60008060006060848603121561427d578081fd5b83356142888161592e565b95602085013595506040909401359392505050565b600080600080608085870312156142b2578182fd5b84356142bd8161592e565b93506020850135925060408501359150606085013567ffffffffffffffff8111156142e6578182fd5b6141ab87828801613dbe565b600080600080600060808688031215614309578283fd5b85356143148161592e565b94506020860135935060408601359250606086013567ffffffffffffffff81111561433d578182fd5b61434988828901613e29565b969995985093965092949392505050565b6000806040838503121561436c578182fd5b823567ffffffffffffffff80821115614383578384fd5b818501915085601f830112614396578384fd5b813560206143a6613d72836156f8565b82815281810190858301838502870184018b10156143c2578889fd5b8896505b848710156143ed5780356143d98161592e565b8352600196909601959183019183016143c6565b5096505086013592505080821115614403578283fd5b5061441085828601613d52565b9150509250929050565b6000806000806040858703121561442f578182fd5b843567ffffffffffffffff80821115614446578384fd5b61445288838901613d09565b9096509450602087013591508082111561446a578384fd5b5061425d87828801613d09565b600060208284031215614488578081fd5b8135611c8681615946565b6000602082840312156144a4578081fd5b8151611c8681615946565b6000602082840312156144c0578081fd5b5035919050565b6000602082840312156144d8578081fd5b5051919050565b600080604083850312156144f1578182fd5b823591506020830135613ece8161592e565b60008060408385031215614515578182fd5b50508035926020909101359150565b600060208284031215614535578081fd5b8135611c8681615954565b600060208284031215614551578081fd5b8151611c8681615954565b6000806020838503121561456e578182fd5b823567ffffffffffffffff811115614584578283fd5b61459085828601613e29565b90969095509350505050565b6000602082840312156145ad578081fd5b81516fffffffffffffffffffffffffffffffff81168114611c86578182fd5b60008284527f07ffffffffffffffffffffffffffffffffffffffffffffffffffffffffffffff8311156145fd578081fd5b6020830280836020870137939093016020019283525090919050565b6000815180845260208085019450808401835b838110156146485781518752958201959082019060010161462c565b509495945050505050565b6000815180845261466b8160208601602086016157be565b601f01601f19169290920160200192915050565b60008284528282602086013780602084860101526020601f19601f85011685010190509392505050565b60007f416363657373436f6e74726f6c3a206163636f756e7420000000000000000000825283516146e18160178501602088016157be565b7f206973206d697373696e6720726f6c6520000000000000000000000000000000601791840191820152835161471e8160288401602088016157be565b01602801949350505050565b6001600160a01b0391909116815260200190565b6001600160a01b0392831681529116602082015260400190565b60006001600160a01b03808816835280871660208401525060a0604083015261478460a0830186614619565b82810360608401526147968186614619565b905082810360808401526147aa8185614653565b98975050505050505050565b6001600160a01b039384168152919092166020820152604081019190915260600190565b60006001600160a01b03808816835280871660208401525084604083015283606083015260a0608083015261481260a0830184614653565b979650505050505050565b60006001600160a01b03861682526080602083015261483f6080830186614653565b90508360408301526003831061486557634e487b7160e01b600052602160045260246000fd5b82606083015295945050505050565b6001600160a01b03929092168252602082015260400190565b6001600160a01b039390931683526020830191909152604082015260600190565b600060208252611c866020830184614619565b6000606082526148d46060830188614619565b6020838203818501528187835281830190508182890284010189855b8a81101561495c57858303601f190184528135368d9003601e19018112614915578788fd5b8c01803567ffffffffffffffff81111561492d578889fd5b8036038e131561493b578889fd5b614948858289850161467f565b9587019594505050908401906001016148f0565b5050858103604087015261497181888a6145cc565b9b9a5050505050505050505050565b6000604082526149936040830185614619565b82810360208401526149a58185614619565b95945050505050565b901515815260200190565b90815260200190565b9182526001600160a01b0316602082015260400190565b6000608082526149ed60808301878961467f565b602083019590955250604081019290925260609091015292915050565b600060208252611c866020830184614653565b60208082526034908201527f455243313135353a207472616e7366657220746f206e6f6e204552433131353560408201527f526563656976657220696d706c656d656e746572000000000000000000000000606082015260800190565b6020808252818101527f537472696e67733a20686578206c656e67746820696e73756666696369656e74604082015260600190565b60208082526028908201527f455243313135353a204552433131353552656365697665722072656a6563746560408201527f6420746f6b656e73000000000000000000000000000000000000000000000000606082015260800190565b60208082526014908201527f5061757361626c653a206e6f7420706175736564000000000000000000000000604082015260600190565b6020808252602b908201527f455243313135353a2062616c616e636520717565727920666f7220746865207a60408201527f65726f2061646472657373000000000000000000000000000000000000000000606082015260800190565b6020808252602f908201527f4e4654436f6c6c656374696f6e3a204661696c656420746f207472616e73666560408201527f7220455243323020746f6b656e732e0000000000000000000000000000000000606082015260800190565b60208082526024908201527f455243313135353a206275726e20616d6f756e7420657863656564732062616c604082015263616e636560e01b606082015260800190565b60208082526031908201527f4163636573734e46543a2063616e6e6f742075736520726567756c6172206d6960408201527f6e7442617463682066756e6374696f6e2e000000000000000000000000000000606082015260800190565b6020808252603d908201527f4e4654436f6c6c656374696f6e3a204d75737420617070726f7665207468652060408201527f636f6e747261637420746f207472616e7366657220746865204e46542e000000606082015260800190565b6020808252602c908201527f455243313135355061757361626c653a20746f6b656e207472616e736665722060408201527f7768696c65207061757365640000000000000000000000000000000000000000606082015260800190565b60208082526029908201527f455243313135353a2063616c6c6572206973206e6f74206f776e6572206e6f7260408201527f20617070726f7665640000000000000000000000000000000000000000000000606082015260800190565b602080825260409082018190527f4e4654436f6c6c656374696f6e3a205472616e73666572732061726520726573908201527f7472696374656420746f205452414e534645525f524f4c4520686f6c64657273606082015260800190565b6020808252603a908201527f4e4654436f6c6c656374696f6e3a204d7573742073706563696679206571756160408201527f6c206e756d626572206f6620636f6e6669672076616c7565732e000000000000606082015260800190565b60208082526010908201527f5061757361626c653a2070617573656400000000000000000000000000000000604082015260600190565b60208082526043908201527f4e4654436f6c6c656374696f6e3a204d75737420617070726f7665207468697360408201527f20636f6e747261637420746f207472616e7366657220455243323020746f6b6560608201526237399760e91b608082015260a00190565b60208082526025908201527f455243313135353a207472616e7366657220746f20746865207a65726f20616460408201527f6472657373000000000000000000000000000000000000000000000000000000606082015260800190565b60208082526032908201527f455243313135353a207472616e736665722063616c6c6572206973206e6f742060408201527f6f776e6572206e6f7220617070726f7665640000000000000000000000000000606082015260800190565b60208082526045908201527f4e4654436f6c6c656374696f6e3a204f6e6c79206163636f756e74732077697460408201527f68204d494e5445525f524f4c452063616e2063616c6c20746869732066756e6360608201527f74696f6e2e000000000000000000000000000000000000000000000000000000608082015260a00190565b60208082526023908201527f455243313135353a206275726e2066726f6d20746865207a65726f206164647260408201526265737360e81b606082015260800190565b6020808252602a908201527f455243313135353a20696e73756666696369656e742062616c616e636520666f60408201527f72207472616e7366657200000000000000000000000000000000000000000000606082015260800190565b60208082526033908201527f4e4654436f6c6c656374696f6e3a204270732070726f7669646564206d75737460408201527f206265206c657373207468616e20392c30303000000000000000000000000000606082015260800190565b60208082526026908201527f4e4654436f6c6c656374696f6e3a205468652070726f746f636f6c206973207060408201527f61757365642e0000000000000000000000000000000000000000000000000000606082015260800190565b60208082526044908201527f4e4654436f6c6c656374696f6e3a204d757374206f776e2074686520616d6f7560408201527f6e74206f6620746f6b656e73207468617420617265206265696e6720777261706060820152633832b21760e11b608082015260a00190565b6020808252603b908201527f455243313135355072657365744d696e7465725061757365723a206d7573742060408201527f686176652070617573657220726f6c6520746f20756e70617573650000000000606082015260800190565b60208082526039908201527f455243313135355072657365744d696e7465725061757365723a206d7573742060408201527f686176652070617573657220726f6c6520746f20706175736500000000000000606082015260800190565b6020808252603c908201527f4e4654436f6c6c656374696f6e3a206f6e6c7920612070726f746f636f6c206160408201527f646d696e2063616e2063616c6c20746869732066756e6374696f6e2e00000000606082015260800190565b60208082526029908201527f455243313135353a2073657474696e6720617070726f76616c2073746174757360408201527f20666f722073656c660000000000000000000000000000000000000000000000606082015260800190565b60208082526029908201527f455243313135353a206163636f756e747320616e6420696473206c656e67746860408201527f206d69736d617463680000000000000000000000000000000000000000000000606082015260800190565b60208082526033908201527f4e4654436f6c6c656374696f6e3a2043616e6e6f742072656465656d20616e2060408201527f4e465420796f7520646f206e6f74206f776e2e00000000000000000000000000606082015260800190565b60208082526035908201527f4e4654436f6c6c656374696f6e3a204f6e6c7920746865206f776e6572206f6660408201527f20746865204e46542063616e20777261702069742e0000000000000000000000606082015260800190565b6020808252602c908201527f4e4654436f6c6c656374696f6e3a204d75737420637265617465206174206c6560408201527f617374206f6e65204e46542e0000000000000000000000000000000000000000606082015260800190565b60208082526028908201527f455243313135353a2069647320616e6420616d6f756e7473206c656e6774682060408201527f6d69736d61746368000000000000000000000000000000000000000000000000606082015260800190565b60208082526021908201527f455243313135353a206d696e7420746f20746865207a65726f206164647265736040820152607360f81b606082015260800190565b6020808252602c908201527f4163636573734e46543a2063616e6e6f742075736520726567756c6172206d6960408201527f6e742066756e6374696f6e2e0000000000000000000000000000000000000000606082015260800190565b6020808252602f908201527f416363657373436f6e74726f6c3a2063616e206f6e6c792072656e6f756e636560408201527f20726f6c657320666f722073656c660000000000000000000000000000000000606082015260800190565b918252602082015260400190565b60008582528460208301526060604083015261567f60608301848661467f565b9695505050505050565b6000808335601e1984360301811261569f578283fd5b83018035915067ffffffffffffffff8211156156b9578283fd5b602001915036819003821315613d4b57600080fd5b60405181810167ffffffffffffffff811182821017156156f0576156f061586d565b604052919050565b600067ffffffffffffffff8211156157125761571261586d565b5060209081020190565b60006fffffffffffffffffffffffffffffffff80831681851680830382111561574757615747615857565b01949350505050565b6000821982111561576357615763615857565b500190565b60008261578357634e487b7160e01b81526012600452602481fd5b500490565b60008160001904831182151516156157a2576157a2615857565b500290565b6000828210156157b9576157b9615857565b500390565b60005b838110156157d95781810151838201526020016157c1565b83811115612c1f5750506000910152565b6000816157f9576157f9615857565b506000190190565b60028104600182168061581557607f821691505b6020821081141561583657634e487b7160e01b600052602260045260246000fd5b50919050565b600060001982141561585057615850615857565b5060010190565b634e487b7160e01b600052601160045260246000fd5b634e487b7160e01b600052604160045260246000fd5b60e01c90565b600060443d101561589957611741565b600481823e6308c379a06158ad8251615883565b146158b757611741565b6040513d600319016004823e80513d67ffffffffffffffff81602484011181841117156158e75750505050611741565b828401925082519150808211156159015750505050611741565b503d8301602082840101111561591957505050611741565b601f01601f1916810160200160405291505090565b6001600160a01b038116811461594357600080fd5b50565b801515811461594357600080fd5b6001600160e01b03198116811461594357600080fdfea164736f6c6343000800000a9f2df0fed2c77648de5860a4cc508cd0818c85b8b8a1ab4ceeef8d981c8956a6",
  "linkReferences": {},
  "deployedLinkReferences": {}
}