{
  "_format": "hh-sol-artifact-1",
  "contractName": "Coin_PL",
  "sourceName": "contracts/permissionless/Coin_PL.sol",
  "abi": [
    {
      "inputs": [
        {
          "internalType": "address payable",
          "name": "_controlCenter",
          "type": "address"
        },
        {
          "internalType": "string",
          "name": "_name",
          "type": "string"
        },
        {
          "internalType": "string",
          "name": "_symbol",
          "type": "string"
        },
        {
          "internalType": "address",
          "name": "_trustedForwarder",
          "type": "address"
        },
        {
          "internalType": "string",
          "name": "_uri",
          "type": "string"
        }
      ],
      "stateMutability": "nonpayable",
      "type": "constructor"
    },
    {
      "anonymous": false,
      "inputs": [
        {
          "indexed": true,
          "internalType": "address",
          "name": "owner",
          "type": "address"
        },
        {
          "indexed": true,
          "internalType": "address",
          "name": "spender",
          "type": "address"
        },
        {
          "indexed": false,
          "internalType": "uint256",
          "name": "value",
          "type": "uint256"
        }
      ],
      "name": "Approval",
      "type": "event"
    },
    {
      "anonymous": false,
      "inputs": [
        {
          "indexed": false,
          "internalType": "address",
          "name": "account",
          "type": "address"
        }
      ],
      "name": "Paused",
      "type": "event"
    },
    {
      "anonymous": false,
      "inputs": [
        {
          "indexed": true,
          "internalType": "bytes32",
          "name": "role",
          "type": "bytes32"
        },
        {
          "indexed": true,
          "internalType": "bytes32",
          "name": "previousAdminRole",
          "type": "bytes32"
        },
        {
          "indexed": true,
          "internalType": "bytes32",
          "name": "newAdminRole",
          "type": "bytes32"
        }
      ],
      "name": "RoleAdminChanged",
      "type": "event"
    },
    {
      "anonymous": false,
      "inputs": [
        {
          "indexed": true,
          "internalType": "bytes32",
          "name": "role",
          "type": "bytes32"
        },
        {
          "indexed": true,
          "internalType": "address",
          "name": "account",
          "type": "address"
        },
        {
          "indexed": true,
          "internalType": "address",
          "name": "sender",
          "type": "address"
        }
      ],
      "name": "RoleGranted",
      "type": "event"
    },
    {
      "anonymous": false,
      "inputs": [
        {
          "indexed": true,
          "internalType": "bytes32",
          "name": "role",
          "type": "bytes32"
        },
        {
          "indexed": true,
          "internalType": "address",
          "name": "account",
          "type": "address"
        },
        {
          "indexed": true,
          "internalType": "address",
          "name": "sender",
          "type": "address"
        }
      ],
      "name": "RoleRevoked",
      "type": "event"
    },
    {
      "anonymous": false,
      "inputs": [
        {
          "indexed": true,
          "internalType": "address",
          "name": "from",
          "type": "address"
        },
        {
          "indexed": true,
          "internalType": "address",
          "name": "to",
          "type": "address"
        },
        {
          "indexed": false,
          "internalType": "uint256",
          "name": "value",
          "type": "uint256"
        }
      ],
      "name": "Transfer",
      "type": "event"
    },
    {
      "anonymous": false,
      "inputs": [
        {
          "indexed": false,
          "internalType": "address",
          "name": "account",
          "type": "address"
        }
      ],
      "name": "Unpaused",
      "type": "event"
    },
    {
      "inputs": [],
      "name": "DEFAULT_ADMIN_ROLE",
      "outputs": [
        {
          "internalType": "bytes32",
          "name": "",
          "type": "bytes32"
        }
      ],
      "stateMutability": "view",
      "type": "function"
    },
    {
      "inputs": [],
      "name": "DOMAIN_SEPARATOR",
      "outputs": [
        {
          "internalType": "bytes32",
          "name": "",
          "type": "bytes32"
        }
      ],
      "stateMutability": "view",
      "type": "function"
    },
    {
      "inputs": [],
      "name": "MINTER_ROLE",
      "outputs": [
        {
          "internalType": "bytes32",
          "name": "",
          "type": "bytes32"
        }
      ],
      "stateMutability": "view",
      "type": "function"
    },
    {
      "inputs": [],
      "name": "PAUSER_ROLE",
      "outputs": [
        {
          "internalType": "bytes32",
          "name": "",
          "type": "bytes32"
        }
      ],
      "stateMutability": "view",
      "type": "function"
    },
    {
      "inputs": [],
      "name": "TRANSFER_ROLE",
      "outputs": [
        {
          "internalType": "bytes32",
          "name": "",
          "type": "bytes32"
        }
      ],
      "stateMutability": "view",
      "type": "function"
    },
    {
      "inputs": [],
      "name": "_contractURI",
      "outputs": [
        {
          "internalType": "string",
          "name": "",
          "type": "string"
        }
      ],
      "stateMutability": "view",
      "type": "function"
    },
    {
      "inputs": [
        {
          "internalType": "address",
          "name": "owner",
          "type": "address"
        },
        {
          "internalType": "address",
          "name": "spender",
          "type": "address"
        }
      ],
      "name": "allowance",
      "outputs": [
        {
          "internalType": "uint256",
          "name": "",
          "type": "uint256"
        }
      ],
      "stateMutability": "view",
      "type": "function"
    },
    {
      "inputs": [
        {
          "internalType": "address",
          "name": "spender",
          "type": "address"
        },
        {
          "internalType": "uint256",
          "name": "amount",
          "type": "uint256"
        }
      ],
      "name": "approve",
      "outputs": [
        {
          "internalType": "bool",
          "name": "",
          "type": "bool"
        }
      ],
      "stateMutability": "nonpayable",
      "type": "function"
    },
    {
      "inputs": [
        {
          "internalType": "address",
          "name": "account",
          "type": "address"
        }
      ],
      "name": "balanceOf",
      "outputs": [
        {
          "internalType": "uint256",
          "name": "",
          "type": "uint256"
        }
      ],
      "stateMutability": "view",
      "type": "function"
    },
    {
      "inputs": [
        {
          "internalType": "uint256",
          "name": "amount",
          "type": "uint256"
        }
      ],
      "name": "burn",
      "outputs": [],
      "stateMutability": "nonpayable",
      "type": "function"
    },
    {
      "inputs": [
        {
          "internalType": "address",
          "name": "account",
          "type": "address"
        },
        {
          "internalType": "uint256",
          "name": "amount",
          "type": "uint256"
        }
      ],
      "name": "burnFrom",
      "outputs": [],
      "stateMutability": "nonpayable",
      "type": "function"
    },
    {
      "inputs": [],
      "name": "contractURI",
      "outputs": [
        {
          "internalType": "string",
          "name": "",
          "type": "string"
        }
      ],
      "stateMutability": "view",
      "type": "function"
    },
    {
      "inputs": [],
      "name": "decimals",
      "outputs": [
        {
          "internalType": "uint8",
          "name": "",
          "type": "uint8"
        }
      ],
      "stateMutability": "view",
      "type": "function"
    },
    {
      "inputs": [
        {
          "internalType": "address",
          "name": "spender",
          "type": "address"
        },
        {
          "internalType": "uint256",
          "name": "subtractedValue",
          "type": "uint256"
        }
      ],
      "name": "decreaseAllowance",
      "outputs": [
        {
          "internalType": "bool",
          "name": "",
          "type": "bool"
        }
      ],
      "stateMutability": "nonpayable",
      "type": "function"
    },
    {
      "inputs": [
        {
          "internalType": "bytes32",
          "name": "role",
          "type": "bytes32"
        }
      ],
      "name": "getRoleAdmin",
      "outputs": [
        {
          "internalType": "bytes32",
          "name": "",
          "type": "bytes32"
        }
      ],
      "stateMutability": "view",
      "type": "function"
    },
    {
      "inputs": [
        {
          "internalType": "bytes32",
          "name": "role",
          "type": "bytes32"
        },
        {
          "internalType": "uint256",
          "name": "index",
          "type": "uint256"
        }
      ],
      "name": "getRoleMember",
      "outputs": [
        {
          "internalType": "address",
          "name": "",
          "type": "address"
        }
      ],
      "stateMutability": "view",
      "type": "function"
    },
    {
      "inputs": [
        {
          "internalType": "bytes32",
          "name": "role",
          "type": "bytes32"
        }
      ],
      "name": "getRoleMemberCount",
      "outputs": [
        {
          "internalType": "uint256",
          "name": "",
          "type": "uint256"
        }
      ],
      "stateMutability": "view",
      "type": "function"
    },
    {
      "inputs": [
        {
          "internalType": "bytes32",
          "name": "role",
          "type": "bytes32"
        },
        {
          "internalType": "address",
          "name": "account",
          "type": "address"
        }
      ],
      "name": "grantRole",
      "outputs": [],
      "stateMutability": "nonpayable",
      "type": "function"
    },
    {
      "inputs": [
        {
          "internalType": "bytes32",
          "name": "role",
          "type": "bytes32"
        },
        {
          "internalType": "address",
          "name": "account",
          "type": "address"
        }
      ],
      "name": "hasRole",
      "outputs": [
        {
          "internalType": "bool",
          "name": "",
          "type": "bool"
        }
      ],
      "stateMutability": "view",
      "type": "function"
    },
    {
      "inputs": [
        {
          "internalType": "address",
          "name": "spender",
          "type": "address"
        },
        {
          "internalType": "uint256",
          "name": "addedValue",
          "type": "uint256"
        }
      ],
      "name": "increaseAllowance",
      "outputs": [
        {
          "internalType": "bool",
          "name": "",
          "type": "bool"
        }
      ],
      "stateMutability": "nonpayable",
      "type": "function"
    },
    {
      "inputs": [],
      "name": "isRestrictedTransfer",
      "outputs": [
        {
          "internalType": "bool",
          "name": "",
          "type": "bool"
        }
      ],
      "stateMutability": "view",
      "type": "function"
    },
    {
      "inputs": [
        {
          "internalType": "address",
          "name": "forwarder",
          "type": "address"
        }
      ],
      "name": "isTrustedForwarder",
      "outputs": [
        {
          "internalType": "bool",
          "name": "",
          "type": "bool"
        }
      ],
      "stateMutability": "view",
      "type": "function"
    },
    {
      "inputs": [
        {
          "internalType": "address",
          "name": "to",
          "type": "address"
        },
        {
          "internalType": "uint256",
          "name": "amount",
          "type": "uint256"
        }
      ],
      "name": "mint",
      "outputs": [],
      "stateMutability": "nonpayable",
      "type": "function"
    },
    {
      "inputs": [],
      "name": "name",
      "outputs": [
        {
          "internalType": "string",
          "name": "",
          "type": "string"
        }
      ],
      "stateMutability": "view",
      "type": "function"
    },
    {
      "inputs": [
        {
          "internalType": "address",
          "name": "owner",
          "type": "address"
        }
      ],
      "name": "nonces",
      "outputs": [
        {
          "internalType": "uint256",
          "name": "",
          "type": "uint256"
        }
      ],
      "stateMutability": "view",
      "type": "function"
    },
    {
      "inputs": [],
      "name": "pause",
      "outputs": [],
      "stateMutability": "nonpayable",
      "type": "function"
    },
    {
      "inputs": [],
      "name": "paused",
      "outputs": [
        {
          "internalType": "bool",
          "name": "",
          "type": "bool"
        }
      ],
      "stateMutability": "view",
      "type": "function"
    },
    {
      "inputs": [
        {
          "internalType": "address",
          "name": "owner",
          "type": "address"
        },
        {
          "internalType": "address",
          "name": "spender",
          "type": "address"
        },
        {
          "internalType": "uint256",
          "name": "value",
          "type": "uint256"
        },
        {
          "internalType": "uint256",
          "name": "deadline",
          "type": "uint256"
        },
        {
          "internalType": "uint8",
          "name": "v",
          "type": "uint8"
        },
        {
          "internalType": "bytes32",
          "name": "r",
          "type": "bytes32"
        },
        {
          "internalType": "bytes32",
          "name": "s",
          "type": "bytes32"
        }
      ],
      "name": "permit",
      "outputs": [],
      "stateMutability": "nonpayable",
      "type": "function"
    },
    {
      "inputs": [
        {
          "internalType": "bytes32",
          "name": "role",
          "type": "bytes32"
        },
        {
          "internalType": "address",
          "name": "account",
          "type": "address"
        }
      ],
      "name": "renounceRole",
      "outputs": [],
      "stateMutability": "nonpayable",
      "type": "function"
    },
    {
      "inputs": [
        {
          "internalType": "bytes32",
          "name": "role",
          "type": "bytes32"
        },
        {
          "internalType": "address",
          "name": "account",
          "type": "address"
        }
      ],
      "name": "revokeRole",
      "outputs": [],
      "stateMutability": "nonpayable",
      "type": "function"
    },
    {
      "inputs": [
        {
          "internalType": "string",
          "name": "_URI",
          "type": "string"
        }
      ],
      "name": "setContractURI",
      "outputs": [],
      "stateMutability": "nonpayable",
      "type": "function"
    },
    {
      "inputs": [
        {
          "internalType": "bool",
          "name": "_restrictedTransfer",
          "type": "bool"
        }
      ],
      "name": "setRestrictedTransfer",
      "outputs": [],
      "stateMutability": "nonpayable",
      "type": "function"
    },
    {
      "inputs": [
        {
          "internalType": "bytes4",
          "name": "interfaceId",
          "type": "bytes4"
        }
      ],
      "name": "supportsInterface",
      "outputs": [
        {
          "internalType": "bool",
          "name": "",
          "type": "bool"
        }
      ],
      "stateMutability": "view",
      "type": "function"
    },
    {
      "inputs": [],
      "name": "symbol",
      "outputs": [
        {
          "internalType": "string",
          "name": "",
          "type": "string"
        }
      ],
      "stateMutability": "view",
      "type": "function"
    },
    {
      "inputs": [],
      "name": "totalSupply",
      "outputs": [
        {
          "internalType": "uint256",
          "name": "",
          "type": "uint256"
        }
      ],
      "stateMutability": "view",
      "type": "function"
    },
    {
      "inputs": [
        {
          "internalType": "address",
          "name": "recipient",
          "type": "address"
        },
        {
          "internalType": "uint256",
          "name": "amount",
          "type": "uint256"
        }
      ],
      "name": "transfer",
      "outputs": [
        {
          "internalType": "bool",
          "name": "",
          "type": "bool"
        }
      ],
      "stateMutability": "nonpayable",
      "type": "function"
    },
    {
      "inputs": [
        {
          "internalType": "address",
          "name": "sender",
          "type": "address"
        },
        {
          "internalType": "address",
          "name": "recipient",
          "type": "address"
        },
        {
          "internalType": "uint256",
          "name": "amount",
          "type": "uint256"
        }
      ],
      "name": "transferFrom",
      "outputs": [
        {
          "internalType": "bool",
          "name": "",
          "type": "bool"
        }
      ],
      "stateMutability": "nonpayable",
      "type": "function"
    },
    {
      "inputs": [],
      "name": "unpause",
      "outputs": [],
      "stateMutability": "nonpayable",
      "type": "function"
    }
  ],
  "bytecode": "0x6101406040527f6e71edae12b1b97f4d1f60370fef10105fa2faae0126114a169c64845d6126c9610120523480156200003757600080fd5b5060405162003341380380620033418339810160408190526200005a91620005c4565b84848484848184848180604051806040016040528060018152602001603160f81b815250848481600590805190602001906200009892919062000473565b508051620000ae90600690602084019062000473565b50506007805460ff1916905550815160208084019190912082519183019190912060c082905260e08190524660a0527f8b73c3c69bb8fe3d512ecc4cf759cc79239f7b179b0ffacaa9a75d522b39400f6200010b81848462000203565b6080526101005250620001309350600092506200012a9150506200023f565b6200025c565b6200014e600080516020620033218339815191526200012a6200023f565b6200017d7f65d7a28e3265b37a6474929f336521b332c1681b933f6cb9f3376673440d862a6200012a6200023f565b5050600980546001600160a01b03199081166001600160a01b0393841617909155600a80549091169187169190911790558051620001c390600b90602084019062000473565b50620001f37f8502233096d909befbda0999bb8ea2f3a6be3c138b9fbf003752a4c8bce86f6c6200012a6200023f565b5050505050505050505062000715565b60008383834630604051602001620002209594939291906200067d565b6040516020818303038152906040528051906020012090509392505050565b6000620002566200029f60201b62000f041760201c565b90505b90565b620002738282620002df60201b62000f321760201c565b60008281526001602090815260409091206200029a91839062000f3c620002ef821b17901c565b505050565b6000620002ac336200030f565b15620002c2575060131936013560601c62000259565b620002d76200032360201b62000f511760201c565b905062000259565b620002eb828262000327565b5050565b600062000306836001600160a01b038416620003b1565b90505b92915050565b6009546001600160a01b0390811691161490565b3390565b62000333828262000400565b620002eb576000828152602081815260408083206001600160a01b03851684529091529020805460ff191660011790556200036d6200023f565b6001600160a01b0316816001600160a01b0316837f2f8788117e7eff1d82e926ec794901d17c78024a50270940304540a733656f0d60405160405180910390a45050565b6000620003bf838362000432565b620003f75750815460018181018455600084815260208082209093018490558454848252828601909352604090209190915562000309565b50600062000309565b6000600080516020620033218339815191528314806200030657506200030683836200044a60201b62000f551760201c565b60009081526001919091016020526040902054151590565b6000918252602082815260408084206001600160a01b0393909316845291905290205460ff1690565b8280546200048190620006a9565b90600052602060002090601f016020900481019282620004a55760008555620004f0565b82601f10620004c057805160ff1916838001178555620004f0565b82800160010185558215620004f0579182015b82811115620004f0578251825591602001919060010190620004d3565b50620004fe92915062000502565b5090565b5b80821115620004fe576000815560010162000503565b600082601f8301126200052a578081fd5b81516001600160401b0380821115620005475762000547620006e6565b6040516020601f8401601f19168201810183811183821017156200056f576200056f620006e6565b604052838252858401810187101562000586578485fd5b8492505b83831015620005a957858301810151828401820152918201916200058a565b83831115620005ba57848185840101525b5095945050505050565b600080600080600060a08688031215620005dc578081fd5b8551620005e981620006fc565b60208701519095506001600160401b038082111562000606578283fd5b6200061489838a0162000519565b955060408801519150808211156200062a578283fd5b6200063889838a0162000519565b9450606088015191506200064c82620006fc565b60808801519193508082111562000661578283fd5b50620006708882890162000519565b9150509295509295909350565b9485526020850193909352604084019190915260608301526001600160a01b0316608082015260a00190565b600281046001821680620006be57607f821691505b60208210811415620006e057634e487b7160e01b600052602260045260246000fd5b50919050565b634e487b7160e01b600052604160045260246000fd5b6001600160a01b03811681146200071257600080fd5b50565b60805160a05160c05160e0516101005161012051612bbc620007656000396000610dba015260006112050152600061124701526000611226015260006111b3015260006111dc0152612bbc6000f3fe608060405234801561001057600080fd5b50600436106102925760003560e01c80637ecebe0011610160578063a457c2d7116100d8578063d53913931161008c578063dd62ed3e11610071578063dd62ed3e146104ed578063e63ab1e914610500578063e8a3d4851461050857610292565b8063d5391393146104d2578063d547741f146104da57610292565b8063c0e72740116100bd578063c0e72740146104a4578063ca15c873146104ac578063d505accf146104bf57610292565b8063a457c2d71461047e578063a9059cbb1461049157610292565b80639010d07c1161012f578063938e3d7b11610114578063938e3d7b1461045b57806395d89b411461046e578063a217fddf1461047657610292565b80639010d07c1461042857806391d148541461044857610292565b80637ecebe00146103f257806383661b29146104055780638456cb591461040d5780638ba448c21461041557610292565b80633644e5151161020e57806342966c68116101c25780635c975abb116101a75780635c975abb146103c457806370a08231146103cc57806379cc6790146103df57610292565b806342966c681461039e578063572b6c05146103b157610292565b806339509351116101f357806339509351146103705780633f4ba83a1461038357806340c10f191461038b57610292565b80633644e5151461035557806336568abe1461035d57610292565b8063206b60f911610265578063248a9ca31161024a578063248a9ca3146103185780632f2ff15d1461032b578063313ce5671461034057610292565b8063206b60f9146102fd57806323b872dd1461030557610292565b806301ffc9a71461029757806306fdde03146102c0578063095ea7b3146102d557806318160ddd146102e8575b600080fd5b6102aa6102a5366004612105565b610510565b6040516102b7919061224a565b60405180910390f35b6102c861053d565b6040516102b791906122f3565b6102aa6102e3366004612031565b6105d0565b6102f06105ee565b6040516102b79190612255565b6102f06105f4565b6102aa610313366004611f85565b610618565b6102f0610326366004612092565b6106b1565b61033e6103393660046120c2565b6106c6565b005b6103486106ed565b6040516102b79190612ab7565b6102f06106f2565b61033e61036b3660046120c2565b610701565b6102aa61037e366004612031565b610723565b61033e610777565b61033e610399366004612031565b6107c9565b61033e6103ac366004612092565b61087a565b6102aa6103bf366004611f39565b61088e565b6102aa6108a2565b6102f06103da366004611f39565b6108ab565b61033e6103ed366004612031565b6108c6565b6102f0610400366004611f39565b610914565b6102aa610935565b61033e610945565b61033e61042336600461205a565b610995565b61043b6104363660046120e4565b610ada565b6040516102b79190612236565b6102aa6104563660046120c2565b610af9565b61033e61046936600461212d565b610b2e565b6102c8610c50565b6102f0610c5f565b6102aa61048c366004612031565b610c64565b6102aa61049f366004612031565b610cdd565b6102c8610cf1565b6102f06104ba366004612092565b610d7f565b61033e6104cd366004611fc0565b610d96565b6102f0610e78565b61033e6104e83660046120c2565b610e9c565b6102f06104fb366004611f53565b610ea6565b6102f0610ed1565b6102c8610ef5565b60006001600160e01b03198216635a05180f60e01b1480610535575061053582610f7e565b90505b919050565b60606005805461054c90612b56565b80601f016020809104026020016040519081016040528092919081815260200182805461057890612b56565b80156105c55780601f1061059a576101008083540402835291602001916105c5565b820191906000526020600020905b8154815290600101906020018083116105a857829003601f168201915b505050505090505b90565b60006105e46105dd610fa3565b8484610fad565b5060015b92915050565b60045490565b7f8502233096d909befbda0999bb8ea2f3a6be3c138b9fbf003752a4c8bce86f6c81565b6000610625848484611061565b6001600160a01b038416600090815260036020526040812081610646610fa3565b6001600160a01b03166001600160a01b03168152602001908152602001600020549050828110156106925760405162461bcd60e51b815260040161068990612727565b60405180910390fd5b6106a68561069e610fa3565b858403610fad565b506001949350505050565b60009081526020819052604090206001015490565b6106d0828261118b565b60008281526001602052604090206106e89082610f3c565b505050565b601290565b60006106fc6111af565b905090565b61070b828261126b565b60008281526001602052604090206106e890826112ad565b60006105e4610730610fa3565b84846003600061073e610fa3565b6001600160a01b03908116825260208083019390935260409182016000908120918b16815292529020546107729190612ac5565b610fad565b6107a37f65d7a28e3265b37a6474929f336521b332c1681b933f6cb9f3376673440d862a610456610fa3565b6107bf5760405162461bcd60e51b815260040161068990612485565b6107c76112c2565b565b600a60009054906101000a90046001600160a01b03166001600160a01b0316639d2f83f06040518163ffffffff1660e01b815260040160206040518083038186803b15801561081757600080fd5b505afa15801561082b573d6000803e3d6000fd5b505050506040513d601f19601f8201168201806040525081019061084f9190612076565b1561086c5760405162461bcd60e51b8152600401610689906125a1565b6108768282611330565b5050565b61088b610885610fa3565b82611382565b50565b6009546001600160a01b0390811691161490565b60075460ff1690565b6001600160a01b031660009081526002602052604090205490565b60006108d4836104fb610fa3565b9050818110156108f65760405162461bcd60e51b8152600401610689906127cc565b61090a83610902610fa3565b848403610fad565b6106e88383611382565b6001600160a01b038116600090815260086020526040812061053590611473565b600954600160a01b900460ff1681565b6109717f65d7a28e3265b37a6474929f336521b332c1681b933f6cb9f3376673440d862a610456610fa3565b61098d5760405162461bcd60e51b8152600401610689906128da565b6107c7611477565b600a5460408051634a32c6bf60e11b815290516001600160a01b03909216916391d148549183916394658d7e91600480820192602092909190829003018186803b1580156109e257600080fd5b505afa1580156109f6573d6000803e3d6000fd5b505050506040513d601f19601f82011682018060405250810190610a1a91906120aa565b610a22610fa3565b6040518363ffffffff1660e01b8152600401610a3f92919061225e565b60206040518083038186803b158015610a5757600080fd5b505afa158015610a6b573d6000803e3d6000fd5b505050506040513d601f19601f82011682018060405250810190610a8f9190612076565b610aab5760405162461bcd60e51b815260040161068990612937565b60098054911515600160a01b0274ff000000000000000000000000000000000000000019909216919091179055565b6000828152600160205260408120610af290836114d2565b9392505050565b60007f9f2df0fed2c77648de5860a4cc508cd0818c85b8b8a1ab4ceeef8d981c8956a6831480610af25750610af28383610f55565b600a5460408051634a32c6bf60e11b815290516001600160a01b03909216916391d148549183916394658d7e91600480820192602092909190829003018186803b158015610b7b57600080fd5b505afa158015610b8f573d6000803e3d6000fd5b505050506040513d601f19601f82011682018060405250810190610bb391906120aa565b610bbb610fa3565b6040518363ffffffff1660e01b8152600401610bd892919061225e565b60206040518083038186803b158015610bf057600080fd5b505afa158015610c04573d6000803e3d6000fd5b505050506040513d601f19601f82011682018060405250810190610c289190612076565b610c445760405162461bcd60e51b815260040161068990612937565b6106e8600b8383611e89565b60606006805461054c90612b56565b600081565b60008060036000610c73610fa3565b6001600160a01b0390811682526020808301939093526040918201600090812091881681529252902054905082811015610cbf5760405162461bcd60e51b815260040161068990612994565b610cd3610cca610fa3565b85858403610fad565b5060019392505050565b60006105e4610cea610fa3565b8484611061565b600b8054610cfe90612b56565b80601f0160208091040260200160405190810160405280929190818152602001828054610d2a90612b56565b8015610d775780601f10610d4c57610100808354040283529160200191610d77565b820191906000526020600020905b815481529060010190602001808311610d5a57829003601f168201915b505050505081565b6000818152600160205260408120610535906114de565b83421115610db65760405162461bcd60e51b815260040161068990612524565b60007f0000000000000000000000000000000000000000000000000000000000000000888888610de58c6114e9565b89604051602001610dfb96959493929190612275565b6040516020818303038152906040528051906020012090506000610e1e8261151b565b90506000610e2e8287878761152e565b9050896001600160a01b0316816001600160a01b031614610e615760405162461bcd60e51b8152600401610689906126f0565b610e6c8a8a8a610fad565b50505050505050505050565b7f9f2df0fed2c77648de5860a4cc508cd0818c85b8b8a1ab4ceeef8d981c8956a681565b61070b8282611556565b6001600160a01b03918216600090815260036020908152604080832093909416825291909152205490565b7f65d7a28e3265b37a6474929f336521b332c1681b933f6cb9f3376673440d862a81565b6060600b805461054c90612b56565b6000610f0f3361088e565b15610f23575060131936013560601c6105cd565b610f2b610f51565b90506105cd565b6108768282611575565b6000610af2836001600160a01b0384166115fa565b3390565b6000918252602082815260408084206001600160a01b0393909316845291905290205460ff1690565b60006001600160e01b03198216637965db0b60e01b1480610535575061053582611644565b60006106fc610f04565b6001600160a01b038316610fd35760405162461bcd60e51b815260040161068990612896565b6001600160a01b038216610ff95760405162461bcd60e51b8152600401610689906124e2565b6001600160a01b0380841660008181526003602090815260408083209487168084529490915290819020849055517f8c5be1e5ebec7d5bd14f71427d1e84f3dd0314c0f7b2291e5b200ac8c7c3b92590611054908590612255565b60405180910390a3505050565b6001600160a01b0383166110875760405162461bcd60e51b815260040161068990612851565b6001600160a01b0382166110ad5760405162461bcd60e51b815260040161068990612392565b6110b883838361165d565b6001600160a01b038316600090815260026020526040902054818110156110f15760405162461bcd60e51b81526004016106899061255b565b6001600160a01b03808516600090815260026020526040808220858503905591851681529081208054849290611128908490612ac5565b92505081905550826001600160a01b0316846001600160a01b03167fddf252ad1be2c89b69c2b068fc378daa952ba7f163c4a11628f55a4df523b3ef846040516111729190612255565b60405180910390a36111858484846106e8565b50505050565b611194826106b1565b6111a5816111a0610fa3565b6116f0565b6106e88383611575565b60007f000000000000000000000000000000000000000000000000000000000000000046141561120057507f00000000000000000000000000000000000000000000000000000000000000006105cd565b610f2b7f00000000000000000000000000000000000000000000000000000000000000007f00000000000000000000000000000000000000000000000000000000000000007f0000000000000000000000000000000000000000000000000000000000000000611754565b611273610fa3565b6001600160a01b0316816001600160a01b0316146112a35760405162461bcd60e51b8152600401610689906129d9565b610876828261178e565b6000610af2836001600160a01b038416611811565b6112ca6108a2565b6112e65760405162461bcd60e51b8152600401610689906123d5565b6007805460ff191690557f5db9ee0a495bf2e6ff9c91a7834c1ba4fdd244a5e8aa4e537bd38aeae4b073aa611319610fa3565b6040516113269190612236565b60405180910390a1565b61135c7f9f2df0fed2c77648de5860a4cc508cd0818c85b8b8a1ab4ceeef8d981c8956a6610456610fa3565b6113785760405162461bcd60e51b81526004016106899061276f565b610876828261192e565b6001600160a01b0382166113a85760405162461bcd60e51b815260040161068990612810565b6113b48260008361165d565b6001600160a01b038216600090815260026020526040902054818110156113ed5760405162461bcd60e51b81526004016106899061240c565b6001600160a01b038316600090815260026020526040812083830390556004805484929061141c908490612afc565b90915550506040516000906001600160a01b038516907fddf252ad1be2c89b69c2b068fc378daa952ba7f163c4a11628f55a4df523b3ef9061145f908690612255565b60405180910390a36106e8836000846106e8565b5490565b61147f6108a2565b1561149c5760405162461bcd60e51b81526004016106899061261a565b6007805460ff191660011790557f62e78cea01bee320cd4e420270b5ea74000d11b0c9f74754ebdbfc544b05a258611319610fa3565b6000610af283836119f6565b600061053582611473565b6001600160a01b038116600090815260086020526040812061150a81611473565b915061151581611a2e565b50919050565b60006105356115286111af565b83611a37565b600080600061153f87878787611a6a565b9150915061154c81611b4a565b5095945050505050565b61155f826106b1565b61156b816111a0610fa3565b6106e8838361178e565b61157f8282610af9565b610876576000828152602081815260408083206001600160a01b03851684529091529020805460ff191660011790556115b6610fa3565b6001600160a01b0316816001600160a01b0316837f2f8788117e7eff1d82e926ec794901d17c78024a50270940304540a733656f0d60405160405180910390a45050565b60006116068383611c77565b61163c575081546001818101845560008481526020808220909301849055845484825282860190935260409020919091556105e8565b5060006105e8565b6001600160e01b031981166301ffc9a760e01b14919050565b611668838383611c8f565b600954600160a01b900460ff16156106e8576116a47f8502233096d909befbda0999bb8ea2f3a6be3c138b9fbf003752a4c8bce86f6c84610af9565b806116d457506116d47f8502233096d909befbda0999bb8ea2f3a6be3c138b9fbf003752a4c8bce86f6c83610af9565b6106e85760405162461bcd60e51b815260040161068990612651565b6116fa8282610af9565b61087657611712816001600160a01b03166014611c9a565b61171d836020611c9a565b60405160200161172e9291906121b5565b60408051601f198184030181529082905262461bcd60e51b8252610689916004016122f3565b6000838383463060405160200161176f9594939291906122a9565b6040516020818303038152906040528051906020012090509392505050565b6117988282610af9565b15610876576000828152602081815260408083206001600160a01b03851684529091529020805460ff191690556117cd610fa3565b6001600160a01b0316816001600160a01b0316837ff6391f5c32d9c69d2a47ea670b442974b53935d1edc7fd64eb21e047a839171b60405160405180910390a45050565b60008181526001830160205260408120548015611924576000611835600183612afc565b855490915060009061184990600190612afc565b90508181146118ca57600086600001828154811061187757634e487b7160e01b600052603260045260246000fd5b90600052602060002001549050808760000184815481106118a857634e487b7160e01b600052603260045260246000fd5b6000918252602080832090910192909255918252600188019052604090208390555b85548690806118e957634e487b7160e01b600052603160045260246000fd5b6001900381819060005260206000200160009055905585600101600086815260200190815260200160002060009055600193505050506105e8565b60009150506105e8565b6001600160a01b0382166119545760405162461bcd60e51b815260040161068990612a36565b6119606000838361165d565b80600460008282546119729190612ac5565b90915550506001600160a01b0382166000908152600260205260408120805483929061199f908490612ac5565b90915550506040516001600160a01b038316906000907fddf252ad1be2c89b69c2b068fc378daa952ba7f163c4a11628f55a4df523b3ef906119e2908590612255565b60405180910390a3610876600083836106e8565b6000826000018281548110611a1b57634e487b7160e01b600052603260045260246000fd5b9060005260206000200154905092915050565b80546001019055565b60008282604051602001611a4c92919061219a565b60405160208183030381529060405280519060200120905092915050565b6000807f7fffffffffffffffffffffffffffffff5d576e7357a4501ddfe92f46681b20a0831115611aa15750600090506003611b41565b8460ff16601b14158015611ab957508460ff16601c14155b15611aca5750600090506004611b41565b600060018787878760405160008152602001604052604051611aef94939291906122d5565b6020604051602081039080840390855afa158015611b11573d6000803e3d6000fd5b5050604051601f1901519150506001600160a01b038116611b3a57600060019250925050611b41565b9150600090505b94509492505050565b6000816004811115611b6c57634e487b7160e01b600052602160045260246000fd5b1415611b775761088b565b6001816004811115611b9957634e487b7160e01b600052602160045260246000fd5b1415611bb75760405162461bcd60e51b815260040161068990612326565b6002816004811115611bd957634e487b7160e01b600052602160045260246000fd5b1415611bf75760405162461bcd60e51b81526004016106899061244e565b6003816004811115611c1957634e487b7160e01b600052602160045260246000fd5b1415611c375760405162461bcd60e51b8152600401610689906125d8565b6004816004811115611c5957634e487b7160e01b600052602160045260246000fd5b141561088b5760405162461bcd60e51b8152600401610689906126ae565b60009081526001919091016020526040902054151590565b6106e8838383611e59565b60606000611ca9836002612add565b611cb4906002612ac5565b67ffffffffffffffff811115611cda57634e487b7160e01b600052604160045260246000fd5b6040519080825280601f01601f191660200182016040528015611d04576020820181803683370190505b509050600360fc1b81600081518110611d2d57634e487b7160e01b600052603260045260246000fd5b60200101906001600160f81b031916908160001a905350600f60fb1b81600181518110611d6a57634e487b7160e01b600052603260045260246000fd5b60200101906001600160f81b031916908160001a9053506000611d8e846002612add565b611d99906001612ac5565b90505b6001811115611e3a577f303132333435363738396162636465660000000000000000000000000000000085600f1660108110611de857634e487b7160e01b600052603260045260246000fd5b1a60f81b828281518110611e0c57634e487b7160e01b600052603260045260246000fd5b60200101906001600160f81b031916908160001a90535060049490941c93611e3381612b3f565b9050611d9c565b508315610af25760405162461bcd60e51b81526004016106899061235d565b611e648383836106e8565b611e6c6108a2565b156106e85760405162461bcd60e51b815260040161068990612a6d565b828054611e9590612b56565b90600052602060002090601f016020900481019282611eb75760008555611efd565b82601f10611ed05782800160ff19823516178555611efd565b82800160010185558215611efd579182015b82811115611efd578235825591602001919060010190611ee2565b50611f09929150611f0d565b5090565b5b80821115611f095760008155600101611f0e565b80356001600160a01b038116811461053857600080fd5b600060208284031215611f4a578081fd5b610af282611f22565b60008060408385031215611f65578081fd5b611f6e83611f22565b9150611f7c60208401611f22565b90509250929050565b600080600060608486031215611f99578081fd5b611fa284611f22565b9250611fb060208501611f22565b9150604084013590509250925092565b600080600080600080600060e0888a031215611fda578283fd5b611fe388611f22565b9650611ff160208901611f22565b95506040880135945060608801359350608088013560ff81168114612014578384fd5b9699959850939692959460a0840135945060c09093013592915050565b60008060408385031215612043578182fd5b61204c83611f22565b946020939093013593505050565b60006020828403121561206b578081fd5b8135610af281612ba1565b600060208284031215612087578081fd5b8151610af281612ba1565b6000602082840312156120a3578081fd5b5035919050565b6000602082840312156120bb578081fd5b5051919050565b600080604083850312156120d4578182fd5b82359150611f7c60208401611f22565b600080604083850312156120f6578182fd5b50508035926020909101359150565b600060208284031215612116578081fd5b81356001600160e01b031981168114610af2578182fd5b6000806020838503121561213f578182fd5b823567ffffffffffffffff80821115612156578384fd5b818501915085601f830112612169578384fd5b813581811115612177578485fd5b866020828501011115612188578485fd5b60209290920196919550909350505050565b61190160f01b81526002810192909252602282015260420190565b60007f416363657373436f6e74726f6c3a206163636f756e7420000000000000000000825283516121ed816017850160208801612b13565b7f206973206d697373696e6720726f6c6520000000000000000000000000000000601791840191820152835161222a816028840160208801612b13565b01602801949350505050565b6001600160a01b0391909116815260200190565b901515815260200190565b90815260200190565b9182526001600160a01b0316602082015260400190565b9586526001600160a01b0394851660208701529290931660408501526060840152608083019190915260a082015260c00190565b9485526020850193909352604084019190915260608301526001600160a01b0316608082015260a00190565b93845260ff9290921660208401526040830152606082015260800190565b6000602082528251806020840152612312816040850160208701612b13565b601f01601f19169190910160400192915050565b60208082526018908201527f45434453413a20696e76616c6964207369676e61747572650000000000000000604082015260600190565b6020808252818101527f537472696e67733a20686578206c656e67746820696e73756666696369656e74604082015260600190565b60208082526023908201527f45524332303a207472616e7366657220746f20746865207a65726f206164647260408201526265737360e81b606082015260800190565b60208082526014908201527f5061757361626c653a206e6f7420706175736564000000000000000000000000604082015260600190565b60208082526022908201527f45524332303a206275726e20616d6f756e7420657863656564732062616c616e604082015261636560f01b606082015260800190565b6020808252601f908201527f45434453413a20696e76616c6964207369676e6174757265206c656e67746800604082015260600190565b60208082526039908201527f45524332305072657365744d696e7465725061757365723a206d75737420686160408201527f76652070617573657220726f6c6520746f20756e706175736500000000000000606082015260800190565b60208082526022908201527f45524332303a20617070726f766520746f20746865207a65726f206164647265604082015261737360f01b606082015260800190565b6020808252601d908201527f45524332305065726d69743a206578706972656420646561646c696e65000000604082015260600190565b60208082526026908201527f45524332303a207472616e7366657220616d6f756e7420657863656564732062604082015265616c616e636560d01b606082015260800190565b6020808252601d908201527f436f696e3a205468652070726f746f636f6c206973207061757365642e000000604082015260600190565b60208082526022908201527f45434453413a20696e76616c6964207369676e6174757265202773272076616c604082015261756560f01b606082015260800190565b60208082526010908201527f5061757361626c653a2070617573656400000000000000000000000000000000604082015260600190565b60208082526036908201527f4e46543a205472616e736665727320617265207265737472696374656420746f60408201527f205452414e534645525f524f4c4520686f6c6465727300000000000000000000606082015260800190565b60208082526022908201527f45434453413a20696e76616c6964207369676e6174757265202776272076616c604082015261756560f01b606082015260800190565b6020808252601e908201527f45524332305065726d69743a20696e76616c6964207369676e61747572650000604082015260600190565b60208082526028908201527f45524332303a207472616e7366657220616d6f756e74206578636565647320616040820152676c6c6f77616e636560c01b606082015260800190565b60208082526036908201527f45524332305072657365744d696e7465725061757365723a206d75737420686160408201527f7665206d696e74657220726f6c6520746f206d696e7400000000000000000000606082015260800190565b60208082526024908201527f45524332303a206275726e20616d6f756e74206578636565647320616c6c6f77604082015263616e636560e01b606082015260800190565b60208082526021908201527f45524332303a206275726e2066726f6d20746865207a65726f206164647265736040820152607360f81b606082015260800190565b60208082526025908201527f45524332303a207472616e736665722066726f6d20746865207a65726f206164604082015264647265737360d81b606082015260800190565b60208082526024908201527f45524332303a20617070726f76652066726f6d20746865207a65726f206164646040820152637265737360e01b606082015260800190565b60208082526037908201527f45524332305072657365744d696e7465725061757365723a206d75737420686160408201527f76652070617573657220726f6c6520746f207061757365000000000000000000606082015260800190565b60208082526033908201527f436f696e3a206f6e6c7920612070726f746f636f6c2061646d696e2063616e2060408201527f63616c6c20746869732066756e6374696f6e2e00000000000000000000000000606082015260800190565b60208082526025908201527f45524332303a2064656372656173656420616c6c6f77616e63652062656c6f77604082015264207a65726f60d81b606082015260800190565b6020808252602f908201527f416363657373436f6e74726f6c3a2063616e206f6e6c792072656e6f756e636560408201527f20726f6c657320666f722073656c660000000000000000000000000000000000606082015260800190565b6020808252601f908201527f45524332303a206d696e7420746f20746865207a65726f206164647265737300604082015260600190565b6020808252602a908201527f45524332305061757361626c653a20746f6b656e207472616e736665722077686040820152691a5b19481c185d5cd95960b21b606082015260800190565b60ff91909116815260200190565b60008219821115612ad857612ad8612b8b565b500190565b6000816000190483118215151615612af757612af7612b8b565b500290565b600082821015612b0e57612b0e612b8b565b500390565b60005b83811015612b2e578181015183820152602001612b16565b838111156111855750506000910152565b600081612b4e57612b4e612b8b565b506000190190565b600281046001821680612b6a57607f821691505b6020821081141561151557634e487b7160e01b600052602260045260246000fd5b634e487b7160e01b600052601160045260246000fd5b801515811461088b57600080fdfea164736f6c6343000800000a9f2df0fed2c77648de5860a4cc508cd0818c85b8b8a1ab4ceeef8d981c8956a6",
  "linkReferences": {},
  "deployedLinkReferences": {}
}