{
  "_format": "hh-sol-artifact-1",
  "contractName": "Coin_PL",
  "sourceName": "contracts/permissionless/Coin_PL.sol",
  "abi": [
    {
      "inputs": [
        {
          "internalType": "address payable",
          "name": "_controlCenter",
          "type": "address"
        },
        {
          "internalType": "string",
          "name": "_name",
          "type": "string"
        },
        {
          "internalType": "string",
          "name": "_symbol",
          "type": "string"
        },
        {
          "internalType": "address",
          "name": "_trustedForwarder",
          "type": "address"
        },
        {
          "internalType": "string",
          "name": "_uri",
          "type": "string"
        }
      ],
      "stateMutability": "nonpayable",
      "type": "constructor"
    },
    {
      "anonymous": false,
      "inputs": [
        {
          "indexed": true,
          "internalType": "address",
          "name": "owner",
          "type": "address"
        },
        {
          "indexed": true,
          "internalType": "address",
          "name": "spender",
          "type": "address"
        },
        {
          "indexed": false,
          "internalType": "uint256",
          "name": "value",
          "type": "uint256"
        }
      ],
      "name": "Approval",
      "type": "event"
    },
    {
      "anonymous": false,
      "inputs": [
        {
          "indexed": false,
          "internalType": "address",
          "name": "account",
          "type": "address"
        }
      ],
      "name": "Paused",
      "type": "event"
    },
    {
      "anonymous": false,
      "inputs": [
        {
          "indexed": true,
          "internalType": "bytes32",
          "name": "role",
          "type": "bytes32"
        },
        {
          "indexed": true,
          "internalType": "bytes32",
          "name": "previousAdminRole",
          "type": "bytes32"
        },
        {
          "indexed": true,
          "internalType": "bytes32",
          "name": "newAdminRole",
          "type": "bytes32"
        }
      ],
      "name": "RoleAdminChanged",
      "type": "event"
    },
    {
      "anonymous": false,
      "inputs": [
        {
          "indexed": true,
          "internalType": "bytes32",
          "name": "role",
          "type": "bytes32"
        },
        {
          "indexed": true,
          "internalType": "address",
          "name": "account",
          "type": "address"
        },
        {
          "indexed": true,
          "internalType": "address",
          "name": "sender",
          "type": "address"
        }
      ],
      "name": "RoleGranted",
      "type": "event"
    },
    {
      "anonymous": false,
      "inputs": [
        {
          "indexed": true,
          "internalType": "bytes32",
          "name": "role",
          "type": "bytes32"
        },
        {
          "indexed": true,
          "internalType": "address",
          "name": "account",
          "type": "address"
        },
        {
          "indexed": true,
          "internalType": "address",
          "name": "sender",
          "type": "address"
        }
      ],
      "name": "RoleRevoked",
      "type": "event"
    },
    {
      "anonymous": false,
      "inputs": [
        {
          "indexed": true,
          "internalType": "address",
          "name": "from",
          "type": "address"
        },
        {
          "indexed": true,
          "internalType": "address",
          "name": "to",
          "type": "address"
        },
        {
          "indexed": false,
          "internalType": "uint256",
          "name": "value",
          "type": "uint256"
        }
      ],
      "name": "Transfer",
      "type": "event"
    },
    {
      "anonymous": false,
      "inputs": [
        {
          "indexed": false,
          "internalType": "address",
          "name": "account",
          "type": "address"
        }
      ],
      "name": "Unpaused",
      "type": "event"
    },
    {
      "inputs": [],
      "name": "DEFAULT_ADMIN_ROLE",
      "outputs": [
        {
          "internalType": "bytes32",
          "name": "",
          "type": "bytes32"
        }
      ],
      "stateMutability": "view",
      "type": "function"
    },
    {
      "inputs": [],
      "name": "MINTER_ROLE",
      "outputs": [
        {
          "internalType": "bytes32",
          "name": "",
          "type": "bytes32"
        }
      ],
      "stateMutability": "view",
      "type": "function"
    },
    {
      "inputs": [],
      "name": "PAUSER_ROLE",
      "outputs": [
        {
          "internalType": "bytes32",
          "name": "",
          "type": "bytes32"
        }
      ],
      "stateMutability": "view",
      "type": "function"
    },
    {
      "inputs": [],
      "name": "TRANSFER_ROLE",
      "outputs": [
        {
          "internalType": "bytes32",
          "name": "",
          "type": "bytes32"
        }
      ],
      "stateMutability": "view",
      "type": "function"
    },
    {
      "inputs": [],
      "name": "_contractURI",
      "outputs": [
        {
          "internalType": "string",
          "name": "",
          "type": "string"
        }
      ],
      "stateMutability": "view",
      "type": "function"
    },
    {
      "inputs": [
        {
          "internalType": "address",
          "name": "owner",
          "type": "address"
        },
        {
          "internalType": "address",
          "name": "spender",
          "type": "address"
        }
      ],
      "name": "allowance",
      "outputs": [
        {
          "internalType": "uint256",
          "name": "",
          "type": "uint256"
        }
      ],
      "stateMutability": "view",
      "type": "function"
    },
    {
      "inputs": [
        {
          "internalType": "address",
          "name": "spender",
          "type": "address"
        },
        {
          "internalType": "uint256",
          "name": "amount",
          "type": "uint256"
        }
      ],
      "name": "approve",
      "outputs": [
        {
          "internalType": "bool",
          "name": "",
          "type": "bool"
        }
      ],
      "stateMutability": "nonpayable",
      "type": "function"
    },
    {
      "inputs": [
        {
          "internalType": "address",
          "name": "account",
          "type": "address"
        }
      ],
      "name": "balanceOf",
      "outputs": [
        {
          "internalType": "uint256",
          "name": "",
          "type": "uint256"
        }
      ],
      "stateMutability": "view",
      "type": "function"
    },
    {
      "inputs": [
        {
          "internalType": "uint256",
          "name": "amount",
          "type": "uint256"
        }
      ],
      "name": "burn",
      "outputs": [],
      "stateMutability": "nonpayable",
      "type": "function"
    },
    {
      "inputs": [
        {
          "internalType": "address",
          "name": "account",
          "type": "address"
        },
        {
          "internalType": "uint256",
          "name": "amount",
          "type": "uint256"
        }
      ],
      "name": "burnFrom",
      "outputs": [],
      "stateMutability": "nonpayable",
      "type": "function"
    },
    {
      "inputs": [],
      "name": "contractURI",
      "outputs": [
        {
          "internalType": "string",
          "name": "",
          "type": "string"
        }
      ],
      "stateMutability": "view",
      "type": "function"
    },
    {
      "inputs": [],
      "name": "decimals",
      "outputs": [
        {
          "internalType": "uint8",
          "name": "",
          "type": "uint8"
        }
      ],
      "stateMutability": "view",
      "type": "function"
    },
    {
      "inputs": [
        {
          "internalType": "address",
          "name": "spender",
          "type": "address"
        },
        {
          "internalType": "uint256",
          "name": "subtractedValue",
          "type": "uint256"
        }
      ],
      "name": "decreaseAllowance",
      "outputs": [
        {
          "internalType": "bool",
          "name": "",
          "type": "bool"
        }
      ],
      "stateMutability": "nonpayable",
      "type": "function"
    },
    {
      "inputs": [
        {
          "internalType": "bytes32",
          "name": "role",
          "type": "bytes32"
        }
      ],
      "name": "getRoleAdmin",
      "outputs": [
        {
          "internalType": "bytes32",
          "name": "",
          "type": "bytes32"
        }
      ],
      "stateMutability": "view",
      "type": "function"
    },
    {
      "inputs": [
        {
          "internalType": "bytes32",
          "name": "role",
          "type": "bytes32"
        },
        {
          "internalType": "uint256",
          "name": "index",
          "type": "uint256"
        }
      ],
      "name": "getRoleMember",
      "outputs": [
        {
          "internalType": "address",
          "name": "",
          "type": "address"
        }
      ],
      "stateMutability": "view",
      "type": "function"
    },
    {
      "inputs": [
        {
          "internalType": "bytes32",
          "name": "role",
          "type": "bytes32"
        }
      ],
      "name": "getRoleMemberCount",
      "outputs": [
        {
          "internalType": "uint256",
          "name": "",
          "type": "uint256"
        }
      ],
      "stateMutability": "view",
      "type": "function"
    },
    {
      "inputs": [
        {
          "internalType": "bytes32",
          "name": "role",
          "type": "bytes32"
        },
        {
          "internalType": "address",
          "name": "account",
          "type": "address"
        }
      ],
      "name": "grantRole",
      "outputs": [],
      "stateMutability": "nonpayable",
      "type": "function"
    },
    {
      "inputs": [
        {
          "internalType": "bytes32",
          "name": "role",
          "type": "bytes32"
        },
        {
          "internalType": "address",
          "name": "account",
          "type": "address"
        }
      ],
      "name": "hasRole",
      "outputs": [
        {
          "internalType": "bool",
          "name": "",
          "type": "bool"
        }
      ],
      "stateMutability": "view",
      "type": "function"
    },
    {
      "inputs": [
        {
          "internalType": "address",
          "name": "spender",
          "type": "address"
        },
        {
          "internalType": "uint256",
          "name": "addedValue",
          "type": "uint256"
        }
      ],
      "name": "increaseAllowance",
      "outputs": [
        {
          "internalType": "bool",
          "name": "",
          "type": "bool"
        }
      ],
      "stateMutability": "nonpayable",
      "type": "function"
    },
    {
      "inputs": [],
      "name": "isRestrictedTransfer",
      "outputs": [
        {
          "internalType": "bool",
          "name": "",
          "type": "bool"
        }
      ],
      "stateMutability": "view",
      "type": "function"
    },
    {
      "inputs": [
        {
          "internalType": "address",
          "name": "forwarder",
          "type": "address"
        }
      ],
      "name": "isTrustedForwarder",
      "outputs": [
        {
          "internalType": "bool",
          "name": "",
          "type": "bool"
        }
      ],
      "stateMutability": "view",
      "type": "function"
    },
    {
      "inputs": [
        {
          "internalType": "address",
          "name": "to",
          "type": "address"
        },
        {
          "internalType": "uint256",
          "name": "amount",
          "type": "uint256"
        }
      ],
      "name": "mint",
      "outputs": [],
      "stateMutability": "nonpayable",
      "type": "function"
    },
    {
      "inputs": [],
      "name": "name",
      "outputs": [
        {
          "internalType": "string",
          "name": "",
          "type": "string"
        }
      ],
      "stateMutability": "view",
      "type": "function"
    },
    {
      "inputs": [],
      "name": "pause",
      "outputs": [],
      "stateMutability": "nonpayable",
      "type": "function"
    },
    {
      "inputs": [],
      "name": "paused",
      "outputs": [
        {
          "internalType": "bool",
          "name": "",
          "type": "bool"
        }
      ],
      "stateMutability": "view",
      "type": "function"
    },
    {
      "inputs": [
        {
          "internalType": "bytes32",
          "name": "role",
          "type": "bytes32"
        },
        {
          "internalType": "address",
          "name": "account",
          "type": "address"
        }
      ],
      "name": "renounceRole",
      "outputs": [],
      "stateMutability": "nonpayable",
      "type": "function"
    },
    {
      "inputs": [
        {
          "internalType": "bytes32",
          "name": "role",
          "type": "bytes32"
        },
        {
          "internalType": "address",
          "name": "account",
          "type": "address"
        }
      ],
      "name": "revokeRole",
      "outputs": [],
      "stateMutability": "nonpayable",
      "type": "function"
    },
    {
      "inputs": [
        {
          "internalType": "string",
          "name": "_URI",
          "type": "string"
        }
      ],
      "name": "setContractURI",
      "outputs": [],
      "stateMutability": "nonpayable",
      "type": "function"
    },
    {
      "inputs": [
        {
          "internalType": "bool",
          "name": "_restrictedTransfer",
          "type": "bool"
        }
      ],
      "name": "setRestrictedTransfer",
      "outputs": [],
      "stateMutability": "nonpayable",
      "type": "function"
    },
    {
      "inputs": [
        {
          "internalType": "bytes4",
          "name": "interfaceId",
          "type": "bytes4"
        }
      ],
      "name": "supportsInterface",
      "outputs": [
        {
          "internalType": "bool",
          "name": "",
          "type": "bool"
        }
      ],
      "stateMutability": "view",
      "type": "function"
    },
    {
      "inputs": [],
      "name": "symbol",
      "outputs": [
        {
          "internalType": "string",
          "name": "",
          "type": "string"
        }
      ],
      "stateMutability": "view",
      "type": "function"
    },
    {
      "inputs": [],
      "name": "totalSupply",
      "outputs": [
        {
          "internalType": "uint256",
          "name": "",
          "type": "uint256"
        }
      ],
      "stateMutability": "view",
      "type": "function"
    },
    {
      "inputs": [
        {
          "internalType": "address",
          "name": "recipient",
          "type": "address"
        },
        {
          "internalType": "uint256",
          "name": "amount",
          "type": "uint256"
        }
      ],
      "name": "transfer",
      "outputs": [
        {
          "internalType": "bool",
          "name": "",
          "type": "bool"
        }
      ],
      "stateMutability": "nonpayable",
      "type": "function"
    },
    {
      "inputs": [
        {
          "internalType": "address",
          "name": "sender",
          "type": "address"
        },
        {
          "internalType": "address",
          "name": "recipient",
          "type": "address"
        },
        {
          "internalType": "uint256",
          "name": "amount",
          "type": "uint256"
        }
      ],
      "name": "transferFrom",
      "outputs": [
        {
          "internalType": "bool",
          "name": "",
          "type": "bool"
        }
      ],
      "stateMutability": "nonpayable",
      "type": "function"
    },
    {
      "inputs": [],
      "name": "unpause",
      "outputs": [],
      "stateMutability": "nonpayable",
      "type": "function"
    }
  ],
  "bytecode": "0x60806040523480156200001157600080fd5b5060405162002aac38038062002aac8339810160408190526200003491620004d4565b8484848484818484818181600590805190602001906200005692919062000383565b5080516200006c90600690602084019062000383565b50506007805460ff19169055506200008f6000620000896200017c565b62000199565b620000be7f9f2df0fed2c77648de5860a4cc508cd0818c85b8b8a1ab4ceeef8d981c8956a6620000896200017c565b620000ed7f65d7a28e3265b37a6474929f336521b332c1681b933f6cb9f3376673440d862a620000896200017c565b505060078054610100600160a81b0319166101006001600160a01b0393841602179055600880546001600160a01b03191691871691909117905580516200013c90600990602084019062000383565b506200016c7f8502233096d909befbda0999bb8ea2f3a6be3c138b9fbf003752a4c8bce86f6c620000896200017c565b50505050505050505050620005f9565b600062000193620001dc60201b62000d871760201c565b90505b90565b620001b082826200021c60201b62000db51760201c565b6000828152600160209081526040909120620001d791839062000dbf6200022c821b17901c565b505050565b6000620001e9336200024c565b15620001ff575060131936013560601c62000196565b620002146200026560201b62000dd41760201c565b905062000196565b62000228828262000269565b5050565b600062000243836001600160a01b038416620002f3565b90505b92915050565b60075461010090046001600160a01b0390811691161490565b3390565b62000275828262000342565b62000228576000828152602081815260408083206001600160a01b03851684529091529020805460ff19166001179055620002af6200017c565b6001600160a01b0316816001600160a01b0316837f2f8788117e7eff1d82e926ec794901d17c78024a50270940304540a733656f0d60405160405180910390a45050565b60006200030183836200036b565b620003395750815460018181018455600084815260208082209093018490558454848252828601909352604090209190915562000246565b50600062000246565b6000918252602082815260408084206001600160a01b0393909316845291905290205460ff1690565b60009081526001919091016020526040902054151590565b82805462000391906200058d565b90600052602060002090601f016020900481019282620003b5576000855562000400565b82601f10620003d057805160ff191683800117855562000400565b8280016001018555821562000400579182015b8281111562000400578251825591602001919060010190620003e3565b506200040e92915062000412565b5090565b5b808211156200040e576000815560010162000413565b600082601f8301126200043a578081fd5b81516001600160401b0380821115620004575762000457620005ca565b6040516020601f8401601f19168201810183811183821017156200047f576200047f620005ca565b604052838252858401810187101562000496578485fd5b8492505b83831015620004b957858301810151828401820152918201916200049a565b83831115620004ca57848185840101525b5095945050505050565b600080600080600060a08688031215620004ec578081fd5b8551620004f981620005e0565b60208701519095506001600160401b038082111562000516578283fd5b6200052489838a0162000429565b955060408801519150808211156200053a578283fd5b6200054889838a0162000429565b9450606088015191506200055c82620005e0565b60808801519193508082111562000571578283fd5b50620005808882890162000429565b9150509295509295909350565b600281046001821680620005a257607f821691505b60208210811415620005c457634e487b7160e01b600052602260045260246000fd5b50919050565b634e487b7160e01b600052604160045260246000fd5b6001600160a01b0381168114620005f657600080fd5b50565b6124a380620006096000396000f3fe608060405234801561001057600080fd5b50600436106102415760003560e01c806379cc679011610145578063a457c2d7116100bd578063d53913931161008c578063dd62ed3e11610071578063dd62ed3e1461046e578063e63ab1e914610481578063e8a3d4851461048957610241565b8063d539139314610453578063d547741f1461045b57610241565b8063a457c2d714610412578063a9059cbb14610425578063c0e7274014610438578063ca15c8731461044057610241565b80639010d07c11610114578063938e3d7b116100f9578063938e3d7b146103ef57806395d89b4114610402578063a217fddf1461040a57610241565b80639010d07c146103bc57806391d14854146103dc57610241565b806379cc67901461038657806383661b29146103995780638456cb59146103a15780638ba448c2146103a957610241565b8063313ce567116101d857806340c10f19116101a7578063572b6c051161018c578063572b6c05146103585780635c975abb1461036b57806370a082311461037357610241565b806340c10f191461033257806342966c681461034557610241565b8063313ce567146102ef57806336568abe1461030457806339509351146103175780633f4ba83a1461032a57610241565b8063206b60f911610214578063206b60f9146102ac57806323b872dd146102b4578063248a9ca3146102c75780632f2ff15d146102da57610241565b806301ffc9a71461024657806306fdde031461026f578063095ea7b31461028457806318160ddd14610297575b600080fd5b610259610254366004611b70565b610491565b6040516102669190611c9a565b60405180910390f35b6102776104be565b6040516102669190611cc5565b610259610292366004611a9c565b610551565b61029f61056f565b6040516102669190611ca5565b61029f610575565b6102596102c2366004611a61565b610599565b61029f6102d5366004611afd565b610632565b6102ed6102e8366004611b2d565b610647565b005b6102f761066e565b6040516102669190612398565b6102ed610312366004611b2d565b610673565b610259610325366004611a9c565b610695565b6102ed6106e9565b6102ed610340366004611a9c565b610740565b6102ed610353366004611afd565b6107f1565b610259610366366004611a15565b610805565b61025961081e565b61029f610381366004611a15565b610827565b6102ed610394366004611a9c565b610842565b610259610890565b6102ed6108a0565b6102ed6103b7366004611ac5565b6108f0565b6103cf6103ca366004611b4f565b610a3f565b6040516102669190611c86565b6102596103ea366004611b2d565b610a5e565b6102ed6103fd366004611b98565b610a93565b610277610bb5565b61029f610bc4565b610259610420366004611a9c565b610bc9565b610259610433366004611a9c565b610c42565b610277610c56565b61029f61044e366004611afd565b610ce4565b61029f610cfb565b6102ed610469366004611b2d565b610d1f565b61029f61047c366004611a2f565b610d29565b61029f610d54565b610277610d78565b60006001600160e01b03198216635a05180f60e01b14806104b657506104b682610dd8565b90505b919050565b6060600580546104cd90612437565b80601f01602080910402602001604051908101604052809291908181526020018280546104f990612437565b80156105465780601f1061051b57610100808354040283529160200191610546565b820191906000526020600020905b81548152906001019060200180831161052957829003601f168201915b505050505090505b90565b600061056561055e610dfd565b8484610e0c565b5060015b92915050565b60045490565b7f8502233096d909befbda0999bb8ea2f3a6be3c138b9fbf003752a4c8bce86f6c81565b60006105a6848484610ec0565b6001600160a01b0384166000908152600360205260408120816105c7610dfd565b6001600160a01b03166001600160a01b03168152602001908152602001600020549050828110156106135760405162461bcd60e51b815260040161060a90611fb0565b60405180910390fd5b6106278561061f610dfd565b858403610e0c565b506001949350505050565b60009081526020819052604090206001015490565b6106518282610fea565b60008281526001602052604090206106699082610dbf565b505050565b601290565b61067d828261100e565b60008281526001602052604090206106699082611050565b60006105656106a2610dfd565b8484600360006106b0610dfd565b6001600160a01b03908116825260208083019390935260409182016000908120918b16815292529020546106e491906123a6565b610e0c565b61071a7f65d7a28e3265b37a6474929f336521b332c1681b933f6cb9f3376673440d862a610715610dfd565b611065565b6107365760405162461bcd60e51b815260040161060a90611de9565b61073e61108e565b565b600860009054906101000a90046001600160a01b03166001600160a01b0316639d2f83f06040518163ffffffff1660e01b815260040160206040518083038186803b15801561078e57600080fd5b505afa1580156107a2573d6000803e3d6000fd5b505050506040513d601f19601f820116820180604052508101906107c69190611ae1565b156107e35760405162461bcd60e51b815260040161060a90611ee5565b6107ed82826110fc565b5050565b6108026107fc610dfd565b8261114e565b50565b60075461010090046001600160a01b0390811691161490565b60075460ff1690565b6001600160a01b031660009081526002602052604090205490565b60006108508361047c610dfd565b9050818110156108725760405162461bcd60e51b815260040161060a9061206a565b6108868361087e610dfd565b848403610e0c565b610669838361114e565b600754600160a81b900460ff1681565b6108cc7f65d7a28e3265b37a6474929f336521b332c1681b933f6cb9f3376673440d862a610715610dfd565b6108e85760405162461bcd60e51b815260040161060a90612190565b61073e61123f565b60085460408051634a32c6bf60e11b815290516001600160a01b03909216916391d148549183916394658d7e91600480820192602092909190829003018186803b15801561093d57600080fd5b505afa158015610951573d6000803e3d6000fd5b505050506040513d601f19601f820116820180604052508101906109759190611b15565b61097d610dfd565b6040518363ffffffff1660e01b815260040161099a929190611cae565b60206040518083038186803b1580156109b257600080fd5b505afa1580156109c6573d6000803e3d6000fd5b505050506040513d601f19601f820116820180604052508101906109ea9190611ae1565b610a065760405162461bcd60e51b815260040161060a906121ed565b60078054911515600160a81b027fffffffffffffffffffff00ffffffffffffffffffffffffffffffffffffffffff909216919091179055565b6000828152600160205260408120610a57908361129a565b9392505050565b60007f9f2df0fed2c77648de5860a4cc508cd0818c85b8b8a1ab4ceeef8d981c8956a6831480610a575750610a578383611065565b60085460408051634a32c6bf60e11b815290516001600160a01b03909216916391d148549183916394658d7e91600480820192602092909190829003018186803b158015610ae057600080fd5b505afa158015610af4573d6000803e3d6000fd5b505050506040513d601f19601f82011682018060405250810190610b189190611b15565b610b20610dfd565b6040518363ffffffff1660e01b8152600401610b3d929190611cae565b60206040518083038186803b158015610b5557600080fd5b505afa158015610b69573d6000803e3d6000fd5b505050506040513d601f19601f82011682018060405250810190610b8d9190611ae1565b610ba95760405162461bcd60e51b815260040161060a906121ed565b61066960098383611965565b6060600680546104cd90612437565b600081565b60008060036000610bd8610dfd565b6001600160a01b0390811682526020808301939093526040918201600090812091881681529252902054905082811015610c245760405162461bcd60e51b815260040161060a9061224a565b610c38610c2f610dfd565b85858403610e0c565b5060019392505050565b6000610565610c4f610dfd565b8484610ec0565b60098054610c6390612437565b80601f0160208091040260200160405190810160405280929190818152602001828054610c8f90612437565b8015610cdc5780601f10610cb157610100808354040283529160200191610cdc565b820191906000526020600020905b815481529060010190602001808311610cbf57829003601f168201915b505050505081565b60008181526001602052604081206104b6906112a6565b7f9f2df0fed2c77648de5860a4cc508cd0818c85b8b8a1ab4ceeef8d981c8956a681565b61067d82826112b1565b6001600160a01b03918216600090815260036020908152604080832093909416825291909152205490565b7f65d7a28e3265b37a6474929f336521b332c1681b933f6cb9f3376673440d862a81565b6060600980546104cd90612437565b6000610d9233610805565b15610da6575060131936013560601c61054e565b610dae610dd4565b905061054e565b6107ed82826112d0565b6000610a57836001600160a01b038416611355565b3390565b60006001600160e01b03198216637965db0b60e01b14806104b657506104b68261139f565b6000610e07610d87565b905090565b6001600160a01b038316610e325760405162461bcd60e51b815260040161060a9061214c565b6001600160a01b038216610e585760405162461bcd60e51b815260040161060a90611e46565b6001600160a01b0380841660008181526003602090815260408083209487168084529490915290819020849055517f8c5be1e5ebec7d5bd14f71427d1e84f3dd0314c0f7b2291e5b200ac8c7c3b92590610eb3908590611ca5565b60405180910390a3505050565b6001600160a01b038316610ee65760405162461bcd60e51b815260040161060a906120ef565b6001600160a01b038216610f0c5760405162461bcd60e51b815260040161060a90611d2d565b610f178383836113b8565b6001600160a01b03831660009081526002602052604090205481811015610f505760405162461bcd60e51b815260040161060a90611e88565b6001600160a01b03808516600090815260026020526040808220858503905591851681529081208054849290610f879084906123a6565b92505081905550826001600160a01b0316846001600160a01b03167fddf252ad1be2c89b69c2b068fc378daa952ba7f163c4a11628f55a4df523b3ef84604051610fd19190611ca5565b60405180910390a3610fe4848484610669565b50505050565b610ff382610632565b61100481610fff610dfd565b61144b565b61066983836112d0565b611016610dfd565b6001600160a01b0316816001600160a01b0316146110465760405162461bcd60e51b815260040161060a906122a7565b6107ed82826114af565b6000610a57836001600160a01b038416611532565b6000918252602082815260408084206001600160a01b0393909316845291905290205460ff1690565b61109661081e565b6110b25760405162461bcd60e51b815260040161060a90611d70565b6007805460ff191690557f5db9ee0a495bf2e6ff9c91a7834c1ba4fdd244a5e8aa4e537bd38aeae4b073aa6110e5610dfd565b6040516110f29190611c86565b60405180910390a1565b6111287f9f2df0fed2c77648de5860a4cc508cd0818c85b8b8a1ab4ceeef8d981c8956a6610715610dfd565b6111445760405162461bcd60e51b815260040161060a9061200d565b6107ed828261164f565b6001600160a01b0382166111745760405162461bcd60e51b815260040161060a906120ae565b611180826000836113b8565b6001600160a01b038216600090815260026020526040902054818110156111b95760405162461bcd60e51b815260040161060a90611da7565b6001600160a01b03831660009081526002602052604081208383039055600480548492906111e89084906123dd565b90915550506040516000906001600160a01b038516907fddf252ad1be2c89b69c2b068fc378daa952ba7f163c4a11628f55a4df523b3ef9061122b908690611ca5565b60405180910390a361066983600084610669565b61124761081e565b156112645760405162461bcd60e51b815260040161060a90611f1c565b6007805460ff191660011790557f62e78cea01bee320cd4e420270b5ea74000d11b0c9f74754ebdbfc544b05a2586110e5610dfd565b6000610a578383611717565b60006104b68261174f565b6112ba82610632565b6112c681610fff610dfd565b61066983836114af565b6112da8282611065565b6107ed576000828152602081815260408083206001600160a01b03851684529091529020805460ff19166001179055611311610dfd565b6001600160a01b0316816001600160a01b0316837f2f8788117e7eff1d82e926ec794901d17c78024a50270940304540a733656f0d60405160405180910390a45050565b60006113618383611753565b61139757508154600181810184556000848152602080822090930184905584548482528286019093526040902091909155610569565b506000610569565b6001600160e01b031981166301ffc9a760e01b14919050565b6113c383838361176b565b600754600160a81b900460ff1615610669576113ff7f8502233096d909befbda0999bb8ea2f3a6be3c138b9fbf003752a4c8bce86f6c84611065565b8061142f575061142f7f8502233096d909befbda0999bb8ea2f3a6be3c138b9fbf003752a4c8bce86f6c83611065565b6106695760405162461bcd60e51b815260040161060a90611f53565b6114558282611065565b6107ed5761146d816001600160a01b03166014611776565b611478836020611776565b604051602001611489929190611c05565b60408051601f198184030181529082905262461bcd60e51b825261060a91600401611cc5565b6114b98282611065565b156107ed576000828152602081815260408083206001600160a01b03851684529091529020805460ff191690556114ee610dfd565b6001600160a01b0316816001600160a01b0316837ff6391f5c32d9c69d2a47ea670b442974b53935d1edc7fd64eb21e047a839171b60405160405180910390a45050565b600081815260018301602052604081205480156116455760006115566001836123dd565b855490915060009061156a906001906123dd565b90508181146115eb57600086600001828154811061159857634e487b7160e01b600052603260045260246000fd5b90600052602060002001549050808760000184815481106115c957634e487b7160e01b600052603260045260246000fd5b6000918252602080832090910192909255918252600188019052604090208390555b855486908061160a57634e487b7160e01b600052603160045260246000fd5b600190038181906000526020600020016000905590558560010160008681526020019081526020016000206000905560019350505050610569565b6000915050610569565b6001600160a01b0382166116755760405162461bcd60e51b815260040161060a90612304565b611681600083836113b8565b806004600082825461169391906123a6565b90915550506001600160a01b038216600090815260026020526040812080548392906116c09084906123a6565b90915550506040516001600160a01b038316906000907fddf252ad1be2c89b69c2b068fc378daa952ba7f163c4a11628f55a4df523b3ef90611703908590611ca5565b60405180910390a36107ed60008383610669565b600082600001828154811061173c57634e487b7160e01b600052603260045260246000fd5b9060005260206000200154905092915050565b5490565b60009081526001919091016020526040902054151590565b610669838383611935565b606060006117858360026123be565b6117909060026123a6565b67ffffffffffffffff8111156117b657634e487b7160e01b600052604160045260246000fd5b6040519080825280601f01601f1916602001820160405280156117e0576020820181803683370190505b509050600360fc1b8160008151811061180957634e487b7160e01b600052603260045260246000fd5b60200101906001600160f81b031916908160001a905350600f60fb1b8160018151811061184657634e487b7160e01b600052603260045260246000fd5b60200101906001600160f81b031916908160001a905350600061186a8460026123be565b6118759060016123a6565b90505b6001811115611916577f303132333435363738396162636465660000000000000000000000000000000085600f16601081106118c457634e487b7160e01b600052603260045260246000fd5b1a60f81b8282815181106118e857634e487b7160e01b600052603260045260246000fd5b60200101906001600160f81b031916908160001a90535060049490941c9361190f81612420565b9050611878565b508315610a575760405162461bcd60e51b815260040161060a90611cf8565b611940838383610669565b61194861081e565b156106695760405162461bcd60e51b815260040161060a9061233b565b82805461197190612437565b90600052602060002090601f01602090048101928261199357600085556119d9565b82601f106119ac5782800160ff198235161785556119d9565b828001600101855582156119d9579182015b828111156119d95782358255916020019190600101906119be565b506119e59291506119e9565b5090565b5b808211156119e557600081556001016119ea565b80356001600160a01b03811681146104b957600080fd5b600060208284031215611a26578081fd5b610a57826119fe565b60008060408385031215611a41578081fd5b611a4a836119fe565b9150611a58602084016119fe565b90509250929050565b600080600060608486031215611a75578081fd5b611a7e846119fe565b9250611a8c602085016119fe565b9150604084013590509250925092565b60008060408385031215611aae578182fd5b611ab7836119fe565b946020939093013593505050565b600060208284031215611ad6578081fd5b8135610a5781612488565b600060208284031215611af2578081fd5b8151610a5781612488565b600060208284031215611b0e578081fd5b5035919050565b600060208284031215611b26578081fd5b5051919050565b60008060408385031215611b3f578182fd5b82359150611a58602084016119fe565b60008060408385031215611b61578182fd5b50508035926020909101359150565b600060208284031215611b81578081fd5b81356001600160e01b031981168114610a57578182fd5b60008060208385031215611baa578182fd5b823567ffffffffffffffff80821115611bc1578384fd5b818501915085601f830112611bd4578384fd5b813581811115611be2578485fd5b866020828501011115611bf3578485fd5b60209290920196919550909350505050565b60007f416363657373436f6e74726f6c3a206163636f756e742000000000000000000082528351611c3d8160178501602088016123f4565b7f206973206d697373696e6720726f6c65200000000000000000000000000000006017918401918201528351611c7a8160288401602088016123f4565b01602801949350505050565b6001600160a01b0391909116815260200190565b901515815260200190565b90815260200190565b9182526001600160a01b0316602082015260400190565b6000602082528251806020840152611ce48160408501602087016123f4565b601f01601f19169190910160400192915050565b6020808252818101527f537472696e67733a20686578206c656e67746820696e73756666696369656e74604082015260600190565b60208082526023908201527f45524332303a207472616e7366657220746f20746865207a65726f206164647260408201526265737360e81b606082015260800190565b60208082526014908201527f5061757361626c653a206e6f7420706175736564000000000000000000000000604082015260600190565b60208082526022908201527f45524332303a206275726e20616d6f756e7420657863656564732062616c616e604082015261636560f01b606082015260800190565b60208082526039908201527f45524332305072657365744d696e7465725061757365723a206d75737420686160408201527f76652070617573657220726f6c6520746f20756e706175736500000000000000606082015260800190565b60208082526022908201527f45524332303a20617070726f766520746f20746865207a65726f206164647265604082015261737360f01b606082015260800190565b60208082526026908201527f45524332303a207472616e7366657220616d6f756e742065786365656473206260408201527f616c616e63650000000000000000000000000000000000000000000000000000606082015260800190565b6020808252601d908201527f436f696e3a205468652070726f746f636f6c206973207061757365642e000000604082015260600190565b60208082526010908201527f5061757361626c653a2070617573656400000000000000000000000000000000604082015260600190565b60208082526036908201527f4e46543a205472616e736665727320617265207265737472696374656420746f60408201527f205452414e534645525f524f4c4520686f6c6465727300000000000000000000606082015260800190565b60208082526028908201527f45524332303a207472616e7366657220616d6f756e742065786365656473206160408201527f6c6c6f77616e6365000000000000000000000000000000000000000000000000606082015260800190565b60208082526036908201527f45524332305072657365744d696e7465725061757365723a206d75737420686160408201527f7665206d696e74657220726f6c6520746f206d696e7400000000000000000000606082015260800190565b60208082526024908201527f45524332303a206275726e20616d6f756e74206578636565647320616c6c6f77604082015263616e636560e01b606082015260800190565b60208082526021908201527f45524332303a206275726e2066726f6d20746865207a65726f206164647265736040820152607360f81b606082015260800190565b60208082526025908201527f45524332303a207472616e736665722066726f6d20746865207a65726f20616460408201527f6472657373000000000000000000000000000000000000000000000000000000606082015260800190565b60208082526024908201527f45524332303a20617070726f76652066726f6d20746865207a65726f206164646040820152637265737360e01b606082015260800190565b60208082526037908201527f45524332305072657365744d696e7465725061757365723a206d75737420686160408201527f76652070617573657220726f6c6520746f207061757365000000000000000000606082015260800190565b60208082526033908201527f436f696e3a206f6e6c7920612070726f746f636f6c2061646d696e2063616e2060408201527f63616c6c20746869732066756e6374696f6e2e00000000000000000000000000606082015260800190565b60208082526025908201527f45524332303a2064656372656173656420616c6c6f77616e63652062656c6f7760408201527f207a65726f000000000000000000000000000000000000000000000000000000606082015260800190565b6020808252602f908201527f416363657373436f6e74726f6c3a2063616e206f6e6c792072656e6f756e636560408201527f20726f6c657320666f722073656c660000000000000000000000000000000000606082015260800190565b6020808252601f908201527f45524332303a206d696e7420746f20746865207a65726f206164647265737300604082015260600190565b6020808252602a908201527f45524332305061757361626c653a20746f6b656e207472616e7366657220776860408201527f696c652070617573656400000000000000000000000000000000000000000000606082015260800190565b60ff91909116815260200190565b600082198211156123b9576123b9612472565b500190565b60008160001904831182151516156123d8576123d8612472565b500290565b6000828210156123ef576123ef612472565b500390565b60005b8381101561240f5781810151838201526020016123f7565b83811115610fe45750506000910152565b60008161242f5761242f612472565b506000190190565b60028104600182168061244b57607f821691505b6020821081141561246c57634e487b7160e01b600052602260045260246000fd5b50919050565b634e487b7160e01b600052601160045260246000fd5b801515811461080257600080fdfea164736f6c6343000800000a",
  "linkReferences": {},
  "deployedLinkReferences": {}
}