{
  "_format": "hh-sol-artifact-1",
  "contractName": "Coin_PL",
  "sourceName": "contracts/permissionless/Coin_PL.sol",
  "abi": [
    {
      "inputs": [
        {
          "internalType": "address payable",
          "name": "_controlCenter",
          "type": "address"
        },
        {
          "internalType": "string",
          "name": "_name",
          "type": "string"
        },
        {
          "internalType": "string",
          "name": "_symbol",
          "type": "string"
        },
        {
          "internalType": "address",
          "name": "_trustedForwarder",
          "type": "address"
        },
        {
          "internalType": "string",
          "name": "_uri",
          "type": "string"
        }
      ],
      "stateMutability": "nonpayable",
      "type": "constructor"
    },
    {
      "anonymous": false,
      "inputs": [
        {
          "indexed": true,
          "internalType": "address",
          "name": "owner",
          "type": "address"
        },
        {
          "indexed": true,
          "internalType": "address",
          "name": "spender",
          "type": "address"
        },
        {
          "indexed": false,
          "internalType": "uint256",
          "name": "value",
          "type": "uint256"
        }
      ],
      "name": "Approval",
      "type": "event"
    },
    {
      "anonymous": false,
      "inputs": [
        {
          "indexed": false,
          "internalType": "address",
          "name": "account",
          "type": "address"
        }
      ],
      "name": "Paused",
      "type": "event"
    },
    {
      "anonymous": false,
      "inputs": [
        {
          "indexed": true,
          "internalType": "bytes32",
          "name": "role",
          "type": "bytes32"
        },
        {
          "indexed": true,
          "internalType": "bytes32",
          "name": "previousAdminRole",
          "type": "bytes32"
        },
        {
          "indexed": true,
          "internalType": "bytes32",
          "name": "newAdminRole",
          "type": "bytes32"
        }
      ],
      "name": "RoleAdminChanged",
      "type": "event"
    },
    {
      "anonymous": false,
      "inputs": [
        {
          "indexed": true,
          "internalType": "bytes32",
          "name": "role",
          "type": "bytes32"
        },
        {
          "indexed": true,
          "internalType": "address",
          "name": "account",
          "type": "address"
        },
        {
          "indexed": true,
          "internalType": "address",
          "name": "sender",
          "type": "address"
        }
      ],
      "name": "RoleGranted",
      "type": "event"
    },
    {
      "anonymous": false,
      "inputs": [
        {
          "indexed": true,
          "internalType": "bytes32",
          "name": "role",
          "type": "bytes32"
        },
        {
          "indexed": true,
          "internalType": "address",
          "name": "account",
          "type": "address"
        },
        {
          "indexed": true,
          "internalType": "address",
          "name": "sender",
          "type": "address"
        }
      ],
      "name": "RoleRevoked",
      "type": "event"
    },
    {
      "anonymous": false,
      "inputs": [
        {
          "indexed": true,
          "internalType": "address",
          "name": "from",
          "type": "address"
        },
        {
          "indexed": true,
          "internalType": "address",
          "name": "to",
          "type": "address"
        },
        {
          "indexed": false,
          "internalType": "uint256",
          "name": "value",
          "type": "uint256"
        }
      ],
      "name": "Transfer",
      "type": "event"
    },
    {
      "anonymous": false,
      "inputs": [
        {
          "indexed": false,
          "internalType": "address",
          "name": "account",
          "type": "address"
        }
      ],
      "name": "Unpaused",
      "type": "event"
    },
    {
      "inputs": [],
      "name": "DEFAULT_ADMIN_ROLE",
      "outputs": [
        {
          "internalType": "bytes32",
          "name": "",
          "type": "bytes32"
        }
      ],
      "stateMutability": "view",
      "type": "function"
    },
    {
      "inputs": [],
      "name": "MINTER_ROLE",
      "outputs": [
        {
          "internalType": "bytes32",
          "name": "",
          "type": "bytes32"
        }
      ],
      "stateMutability": "view",
      "type": "function"
    },
    {
      "inputs": [],
      "name": "PAUSER_ROLE",
      "outputs": [
        {
          "internalType": "bytes32",
          "name": "",
          "type": "bytes32"
        }
      ],
      "stateMutability": "view",
      "type": "function"
    },
    {
      "inputs": [],
      "name": "TRANSFER_ROLE",
      "outputs": [
        {
          "internalType": "bytes32",
          "name": "",
          "type": "bytes32"
        }
      ],
      "stateMutability": "view",
      "type": "function"
    },
    {
      "inputs": [],
      "name": "_contractURI",
      "outputs": [
        {
          "internalType": "string",
          "name": "",
          "type": "string"
        }
      ],
      "stateMutability": "view",
      "type": "function"
    },
    {
      "inputs": [
        {
          "internalType": "address",
          "name": "owner",
          "type": "address"
        },
        {
          "internalType": "address",
          "name": "spender",
          "type": "address"
        }
      ],
      "name": "allowance",
      "outputs": [
        {
          "internalType": "uint256",
          "name": "",
          "type": "uint256"
        }
      ],
      "stateMutability": "view",
      "type": "function"
    },
    {
      "inputs": [
        {
          "internalType": "address",
          "name": "spender",
          "type": "address"
        },
        {
          "internalType": "uint256",
          "name": "amount",
          "type": "uint256"
        }
      ],
      "name": "approve",
      "outputs": [
        {
          "internalType": "bool",
          "name": "",
          "type": "bool"
        }
      ],
      "stateMutability": "nonpayable",
      "type": "function"
    },
    {
      "inputs": [
        {
          "internalType": "address",
          "name": "account",
          "type": "address"
        }
      ],
      "name": "balanceOf",
      "outputs": [
        {
          "internalType": "uint256",
          "name": "",
          "type": "uint256"
        }
      ],
      "stateMutability": "view",
      "type": "function"
    },
    {
      "inputs": [
        {
          "internalType": "uint256",
          "name": "amount",
          "type": "uint256"
        }
      ],
      "name": "burn",
      "outputs": [],
      "stateMutability": "nonpayable",
      "type": "function"
    },
    {
      "inputs": [
        {
          "internalType": "address",
          "name": "account",
          "type": "address"
        },
        {
          "internalType": "uint256",
          "name": "amount",
          "type": "uint256"
        }
      ],
      "name": "burnFrom",
      "outputs": [],
      "stateMutability": "nonpayable",
      "type": "function"
    },
    {
      "inputs": [],
      "name": "contractURI",
      "outputs": [
        {
          "internalType": "string",
          "name": "",
          "type": "string"
        }
      ],
      "stateMutability": "view",
      "type": "function"
    },
    {
      "inputs": [],
      "name": "decimals",
      "outputs": [
        {
          "internalType": "uint8",
          "name": "",
          "type": "uint8"
        }
      ],
      "stateMutability": "view",
      "type": "function"
    },
    {
      "inputs": [
        {
          "internalType": "address",
          "name": "spender",
          "type": "address"
        },
        {
          "internalType": "uint256",
          "name": "subtractedValue",
          "type": "uint256"
        }
      ],
      "name": "decreaseAllowance",
      "outputs": [
        {
          "internalType": "bool",
          "name": "",
          "type": "bool"
        }
      ],
      "stateMutability": "nonpayable",
      "type": "function"
    },
    {
      "inputs": [
        {
          "internalType": "bytes32",
          "name": "role",
          "type": "bytes32"
        }
      ],
      "name": "getRoleAdmin",
      "outputs": [
        {
          "internalType": "bytes32",
          "name": "",
          "type": "bytes32"
        }
      ],
      "stateMutability": "view",
      "type": "function"
    },
    {
      "inputs": [
        {
          "internalType": "bytes32",
          "name": "role",
          "type": "bytes32"
        },
        {
          "internalType": "uint256",
          "name": "index",
          "type": "uint256"
        }
      ],
      "name": "getRoleMember",
      "outputs": [
        {
          "internalType": "address",
          "name": "",
          "type": "address"
        }
      ],
      "stateMutability": "view",
      "type": "function"
    },
    {
      "inputs": [
        {
          "internalType": "bytes32",
          "name": "role",
          "type": "bytes32"
        }
      ],
      "name": "getRoleMemberCount",
      "outputs": [
        {
          "internalType": "uint256",
          "name": "",
          "type": "uint256"
        }
      ],
      "stateMutability": "view",
      "type": "function"
    },
    {
      "inputs": [
        {
          "internalType": "bytes32",
          "name": "role",
          "type": "bytes32"
        },
        {
          "internalType": "address",
          "name": "account",
          "type": "address"
        }
      ],
      "name": "grantRole",
      "outputs": [],
      "stateMutability": "nonpayable",
      "type": "function"
    },
    {
      "inputs": [
        {
          "internalType": "bytes32",
          "name": "role",
          "type": "bytes32"
        },
        {
          "internalType": "address",
          "name": "account",
          "type": "address"
        }
      ],
      "name": "hasRole",
      "outputs": [
        {
          "internalType": "bool",
          "name": "",
          "type": "bool"
        }
      ],
      "stateMutability": "view",
      "type": "function"
    },
    {
      "inputs": [
        {
          "internalType": "address",
          "name": "spender",
          "type": "address"
        },
        {
          "internalType": "uint256",
          "name": "addedValue",
          "type": "uint256"
        }
      ],
      "name": "increaseAllowance",
      "outputs": [
        {
          "internalType": "bool",
          "name": "",
          "type": "bool"
        }
      ],
      "stateMutability": "nonpayable",
      "type": "function"
    },
    {
      "inputs": [],
      "name": "isRestrictedTransfer",
      "outputs": [
        {
          "internalType": "bool",
          "name": "",
          "type": "bool"
        }
      ],
      "stateMutability": "view",
      "type": "function"
    },
    {
      "inputs": [
        {
          "internalType": "address",
          "name": "forwarder",
          "type": "address"
        }
      ],
      "name": "isTrustedForwarder",
      "outputs": [
        {
          "internalType": "bool",
          "name": "",
          "type": "bool"
        }
      ],
      "stateMutability": "view",
      "type": "function"
    },
    {
      "inputs": [
        {
          "internalType": "address",
          "name": "to",
          "type": "address"
        },
        {
          "internalType": "uint256",
          "name": "amount",
          "type": "uint256"
        }
      ],
      "name": "mint",
      "outputs": [],
      "stateMutability": "nonpayable",
      "type": "function"
    },
    {
      "inputs": [],
      "name": "name",
      "outputs": [
        {
          "internalType": "string",
          "name": "",
          "type": "string"
        }
      ],
      "stateMutability": "view",
      "type": "function"
    },
    {
      "inputs": [],
      "name": "pause",
      "outputs": [],
      "stateMutability": "nonpayable",
      "type": "function"
    },
    {
      "inputs": [],
      "name": "paused",
      "outputs": [
        {
          "internalType": "bool",
          "name": "",
          "type": "bool"
        }
      ],
      "stateMutability": "view",
      "type": "function"
    },
    {
      "inputs": [
        {
          "internalType": "bytes32",
          "name": "role",
          "type": "bytes32"
        },
        {
          "internalType": "address",
          "name": "account",
          "type": "address"
        }
      ],
      "name": "renounceRole",
      "outputs": [],
      "stateMutability": "nonpayable",
      "type": "function"
    },
    {
      "inputs": [
        {
          "internalType": "bytes32",
          "name": "role",
          "type": "bytes32"
        },
        {
          "internalType": "address",
          "name": "account",
          "type": "address"
        }
      ],
      "name": "revokeRole",
      "outputs": [],
      "stateMutability": "nonpayable",
      "type": "function"
    },
    {
      "inputs": [
        {
          "internalType": "string",
          "name": "_URI",
          "type": "string"
        }
      ],
      "name": "setContractURI",
      "outputs": [],
      "stateMutability": "nonpayable",
      "type": "function"
    },
    {
      "inputs": [
        {
          "internalType": "bool",
          "name": "_restrictedTransfer",
          "type": "bool"
        }
      ],
      "name": "setRestrictedTransfer",
      "outputs": [],
      "stateMutability": "nonpayable",
      "type": "function"
    },
    {
      "inputs": [
        {
          "internalType": "bytes4",
          "name": "interfaceId",
          "type": "bytes4"
        }
      ],
      "name": "supportsInterface",
      "outputs": [
        {
          "internalType": "bool",
          "name": "",
          "type": "bool"
        }
      ],
      "stateMutability": "view",
      "type": "function"
    },
    {
      "inputs": [],
      "name": "symbol",
      "outputs": [
        {
          "internalType": "string",
          "name": "",
          "type": "string"
        }
      ],
      "stateMutability": "view",
      "type": "function"
    },
    {
      "inputs": [],
      "name": "totalSupply",
      "outputs": [
        {
          "internalType": "uint256",
          "name": "",
          "type": "uint256"
        }
      ],
      "stateMutability": "view",
      "type": "function"
    },
    {
      "inputs": [
        {
          "internalType": "address",
          "name": "recipient",
          "type": "address"
        },
        {
          "internalType": "uint256",
          "name": "amount",
          "type": "uint256"
        }
      ],
      "name": "transfer",
      "outputs": [
        {
          "internalType": "bool",
          "name": "",
          "type": "bool"
        }
      ],
      "stateMutability": "nonpayable",
      "type": "function"
    },
    {
      "inputs": [
        {
          "internalType": "address",
          "name": "sender",
          "type": "address"
        },
        {
          "internalType": "address",
          "name": "recipient",
          "type": "address"
        },
        {
          "internalType": "uint256",
          "name": "amount",
          "type": "uint256"
        }
      ],
      "name": "transferFrom",
      "outputs": [
        {
          "internalType": "bool",
          "name": "",
          "type": "bool"
        }
      ],
      "stateMutability": "nonpayable",
      "type": "function"
    },
    {
      "inputs": [],
      "name": "unpause",
      "outputs": [],
      "stateMutability": "nonpayable",
      "type": "function"
    }
  ],
  "bytecode": "0x60806040523480156200001157600080fd5b5060405162002ae838038062002ae88339810160408190526200003491620004f5565b84848484848184848181816005908051906020019062000056929190620003a4565b5080516200006c906006906020840190620003a4565b50506007805460ff19169055506200008f6000620000896200016b565b62000188565b620000ad60008051602062002ac8833981519152620000896200016b565b620000dc7f65d7a28e3265b37a6474929f336521b332c1681b933f6cb9f3376673440d862a620000896200016b565b505060078054610100600160a81b0319166101006001600160a01b0393841602179055600880546001600160a01b03191691871691909117905580516200012b906009906020840190620003a4565b506200015b7f8502233096d909befbda0999bb8ea2f3a6be3c138b9fbf003752a4c8bce86f6c620000896200016b565b505050505050505050506200061a565b600062000182620001cb60201b62000d821760201c565b90505b90565b6200019f82826200020b60201b62000db01760201c565b6000828152600160209081526040909120620001c691839062000dba6200021b821b17901c565b505050565b6000620001d8336200023b565b15620001ee575060131936013560601c62000185565b620002036200025460201b62000dcf1760201c565b905062000185565b62000217828262000258565b5050565b600062000232836001600160a01b038416620002e2565b90505b92915050565b60075461010090046001600160a01b0390811691161490565b3390565b62000264828262000331565b62000217576000828152602081815260408083206001600160a01b03851684529091529020805460ff191660011790556200029e6200016b565b6001600160a01b0316816001600160a01b0316837f2f8788117e7eff1d82e926ec794901d17c78024a50270940304540a733656f0d60405160405180910390a45050565b6000620002f0838362000363565b620003285750815460018181018455600084815260208082209093018490558454848252828601909352604090209190915562000235565b50600062000235565b600060008051602062002ac88339815191528314806200023257506200023283836200037b60201b62000dd31760201c565b60009081526001919091016020526040902054151590565b6000918252602082815260408084206001600160a01b0393909316845291905290205460ff1690565b828054620003b290620005ae565b90600052602060002090601f016020900481019282620003d6576000855562000421565b82601f10620003f157805160ff191683800117855562000421565b8280016001018555821562000421579182015b828111156200042157825182559160200191906001019062000404565b506200042f92915062000433565b5090565b5b808211156200042f576000815560010162000434565b600082601f8301126200045b578081fd5b81516001600160401b0380821115620004785762000478620005eb565b6040516020601f8401601f1916820181018381118382101715620004a057620004a0620005eb565b6040528382528584018101871015620004b7578485fd5b8492505b83831015620004da5785830181015182840182015291820191620004bb565b83831115620004eb57848185840101525b5095945050505050565b600080600080600060a086880312156200050d578081fd5b85516200051a8162000601565b60208701519095506001600160401b038082111562000537578283fd5b6200054589838a016200044a565b955060408801519150808211156200055b578283fd5b6200056989838a016200044a565b9450606088015191506200057d8262000601565b60808801519193508082111562000592578283fd5b50620005a1888289016200044a565b9150509295509295909350565b600281046001821680620005c357607f821691505b60208210811415620005e557634e487b7160e01b600052602260045260246000fd5b50919050565b634e487b7160e01b600052604160045260246000fd5b6001600160a01b03811681146200061757600080fd5b50565b61249e806200062a6000396000f3fe608060405234801561001057600080fd5b50600436106102415760003560e01c806379cc679011610145578063a457c2d7116100bd578063d53913931161008c578063dd62ed3e11610071578063dd62ed3e1461046e578063e63ab1e914610481578063e8a3d4851461048957610241565b8063d539139314610453578063d547741f1461045b57610241565b8063a457c2d714610412578063a9059cbb14610425578063c0e7274014610438578063ca15c8731461044057610241565b80639010d07c11610114578063938e3d7b116100f9578063938e3d7b146103ef57806395d89b4114610402578063a217fddf1461040a57610241565b80639010d07c146103bc57806391d14854146103dc57610241565b806379cc67901461038657806383661b29146103995780638456cb59146103a15780638ba448c2146103a957610241565b8063313ce567116101d857806340c10f19116101a7578063572b6c051161018c578063572b6c05146103585780635c975abb1461036b57806370a082311461037357610241565b806340c10f191461033257806342966c681461034557610241565b8063313ce567146102ef57806336568abe1461030457806339509351146103175780633f4ba83a1461032a57610241565b8063206b60f911610214578063206b60f9146102ac57806323b872dd146102b4578063248a9ca3146102c75780632f2ff15d146102da57610241565b806301ffc9a71461024657806306fdde031461026f578063095ea7b31461028457806318160ddd14610297575b600080fd5b610259610254366004611b6b565b610491565b6040516102669190611c95565b60405180910390f35b6102776104be565b6040516102669190611cc0565b610259610292366004611a97565b610551565b61029f61056f565b6040516102669190611ca0565b61029f610575565b6102596102c2366004611a5c565b610599565b61029f6102d5366004611af8565b610632565b6102ed6102e8366004611b28565b610647565b005b6102f761066e565b6040516102669190612393565b6102ed610312366004611b28565b610673565b610259610325366004611a97565b610695565b6102ed6106e9565b6102ed610340366004611a97565b61073b565b6102ed610353366004611af8565b6107ec565b610259610366366004611a10565b610800565b610259610819565b61029f610381366004611a10565b610822565b6102ed610394366004611a97565b61083d565b61025961088b565b6102ed61089b565b6102ed6103b7366004611ac0565b6108eb565b6103cf6103ca366004611b4a565b610a3a565b6040516102669190611c81565b6102596103ea366004611b28565b610a59565b6102ed6103fd366004611b93565b610a8e565b610277610bb0565b61029f610bbf565b610259610420366004611a97565b610bc4565b610259610433366004611a97565b610c3d565b610277610c51565b61029f61044e366004611af8565b610cdf565b61029f610cf6565b6102ed610469366004611b28565b610d1a565b61029f61047c366004611a2a565b610d24565b61029f610d4f565b610277610d73565b60006001600160e01b03198216635a05180f60e01b14806104b657506104b682610dfc565b90505b919050565b6060600580546104cd90612432565b80601f01602080910402602001604051908101604052809291908181526020018280546104f990612432565b80156105465780601f1061051b57610100808354040283529160200191610546565b820191906000526020600020905b81548152906001019060200180831161052957829003601f168201915b505050505090505b90565b600061056561055e610e21565b8484610e30565b5060015b92915050565b60045490565b7f8502233096d909befbda0999bb8ea2f3a6be3c138b9fbf003752a4c8bce86f6c81565b60006105a6848484610ee4565b6001600160a01b0384166000908152600360205260408120816105c7610e21565b6001600160a01b03166001600160a01b03168152602001908152602001600020549050828110156106135760405162461bcd60e51b815260040161060a90611fab565b60405180910390fd5b6106278561061f610e21565b858403610e30565b506001949350505050565b60009081526020819052604090206001015490565b610651828261100e565b60008281526001602052604090206106699082610dba565b505050565b601290565b61067d8282611032565b60008281526001602052604090206106699082611074565b60006105656106a2610e21565b8484600360006106b0610e21565b6001600160a01b03908116825260208083019390935260409182016000908120918b16815292529020546106e491906123a1565b610e30565b6107157f65d7a28e3265b37a6474929f336521b332c1681b933f6cb9f3376673440d862a6103ea610e21565b6107315760405162461bcd60e51b815260040161060a90611de4565b610739611089565b565b600860009054906101000a90046001600160a01b03166001600160a01b0316639d2f83f06040518163ffffffff1660e01b815260040160206040518083038186803b15801561078957600080fd5b505afa15801561079d573d6000803e3d6000fd5b505050506040513d601f19601f820116820180604052508101906107c19190611adc565b156107de5760405162461bcd60e51b815260040161060a90611ee0565b6107e882826110f7565b5050565b6107fd6107f7610e21565b82611149565b50565b60075461010090046001600160a01b0390811691161490565b60075460ff1690565b6001600160a01b031660009081526002602052604090205490565b600061084b8361047c610e21565b90508181101561086d5760405162461bcd60e51b815260040161060a90612065565b61088183610879610e21565b848403610e30565b6106698383611149565b600754600160a81b900460ff1681565b6108c77f65d7a28e3265b37a6474929f336521b332c1681b933f6cb9f3376673440d862a6103ea610e21565b6108e35760405162461bcd60e51b815260040161060a9061218b565b61073961123a565b60085460408051634a32c6bf60e11b815290516001600160a01b03909216916391d148549183916394658d7e91600480820192602092909190829003018186803b15801561093857600080fd5b505afa15801561094c573d6000803e3d6000fd5b505050506040513d601f19601f820116820180604052508101906109709190611b10565b610978610e21565b6040518363ffffffff1660e01b8152600401610995929190611ca9565b60206040518083038186803b1580156109ad57600080fd5b505afa1580156109c1573d6000803e3d6000fd5b505050506040513d601f19601f820116820180604052508101906109e59190611adc565b610a015760405162461bcd60e51b815260040161060a906121e8565b60078054911515600160a81b027fffffffffffffffffffff00ffffffffffffffffffffffffffffffffffffffffff909216919091179055565b6000828152600160205260408120610a529083611295565b9392505050565b60007f9f2df0fed2c77648de5860a4cc508cd0818c85b8b8a1ab4ceeef8d981c8956a6831480610a525750610a528383610dd3565b60085460408051634a32c6bf60e11b815290516001600160a01b03909216916391d148549183916394658d7e91600480820192602092909190829003018186803b158015610adb57600080fd5b505afa158015610aef573d6000803e3d6000fd5b505050506040513d601f19601f82011682018060405250810190610b139190611b10565b610b1b610e21565b6040518363ffffffff1660e01b8152600401610b38929190611ca9565b60206040518083038186803b158015610b5057600080fd5b505afa158015610b64573d6000803e3d6000fd5b505050506040513d601f19601f82011682018060405250810190610b889190611adc565b610ba45760405162461bcd60e51b815260040161060a906121e8565b61066960098383611960565b6060600680546104cd90612432565b600081565b60008060036000610bd3610e21565b6001600160a01b0390811682526020808301939093526040918201600090812091881681529252902054905082811015610c1f5760405162461bcd60e51b815260040161060a90612245565b610c33610c2a610e21565b85858403610e30565b5060019392505050565b6000610565610c4a610e21565b8484610ee4565b60098054610c5e90612432565b80601f0160208091040260200160405190810160405280929190818152602001828054610c8a90612432565b8015610cd75780601f10610cac57610100808354040283529160200191610cd7565b820191906000526020600020905b815481529060010190602001808311610cba57829003601f168201915b505050505081565b60008181526001602052604081206104b6906112a1565b7f9f2df0fed2c77648de5860a4cc508cd0818c85b8b8a1ab4ceeef8d981c8956a681565b61067d82826112ac565b6001600160a01b03918216600090815260036020908152604080832093909416825291909152205490565b7f65d7a28e3265b37a6474929f336521b332c1681b933f6cb9f3376673440d862a81565b6060600980546104cd90612432565b6000610d8d33610800565b15610da1575060131936013560601c61054e565b610da9610dcf565b905061054e565b6107e882826112cb565b6000610a52836001600160a01b038416611350565b3390565b6000918252602082815260408084206001600160a01b0393909316845291905290205460ff1690565b60006001600160e01b03198216637965db0b60e01b14806104b657506104b68261139a565b6000610e2b610d82565b905090565b6001600160a01b038316610e565760405162461bcd60e51b815260040161060a90612147565b6001600160a01b038216610e7c5760405162461bcd60e51b815260040161060a90611e41565b6001600160a01b0380841660008181526003602090815260408083209487168084529490915290819020849055517f8c5be1e5ebec7d5bd14f71427d1e84f3dd0314c0f7b2291e5b200ac8c7c3b92590610ed7908590611ca0565b60405180910390a3505050565b6001600160a01b038316610f0a5760405162461bcd60e51b815260040161060a906120ea565b6001600160a01b038216610f305760405162461bcd60e51b815260040161060a90611d28565b610f3b8383836113b3565b6001600160a01b03831660009081526002602052604090205481811015610f745760405162461bcd60e51b815260040161060a90611e83565b6001600160a01b03808516600090815260026020526040808220858503905591851681529081208054849290610fab9084906123a1565b92505081905550826001600160a01b0316846001600160a01b03167fddf252ad1be2c89b69c2b068fc378daa952ba7f163c4a11628f55a4df523b3ef84604051610ff59190611ca0565b60405180910390a3611008848484610669565b50505050565b61101782610632565b61102881611023610e21565b611446565b61066983836112cb565b61103a610e21565b6001600160a01b0316816001600160a01b03161461106a5760405162461bcd60e51b815260040161060a906122a2565b6107e882826114aa565b6000610a52836001600160a01b03841661152d565b611091610819565b6110ad5760405162461bcd60e51b815260040161060a90611d6b565b6007805460ff191690557f5db9ee0a495bf2e6ff9c91a7834c1ba4fdd244a5e8aa4e537bd38aeae4b073aa6110e0610e21565b6040516110ed9190611c81565b60405180910390a1565b6111237f9f2df0fed2c77648de5860a4cc508cd0818c85b8b8a1ab4ceeef8d981c8956a66103ea610e21565b61113f5760405162461bcd60e51b815260040161060a90612008565b6107e8828261164a565b6001600160a01b03821661116f5760405162461bcd60e51b815260040161060a906120a9565b61117b826000836113b3565b6001600160a01b038216600090815260026020526040902054818110156111b45760405162461bcd60e51b815260040161060a90611da2565b6001600160a01b03831660009081526002602052604081208383039055600480548492906111e39084906123d8565b90915550506040516000906001600160a01b038516907fddf252ad1be2c89b69c2b068fc378daa952ba7f163c4a11628f55a4df523b3ef90611226908690611ca0565b60405180910390a361066983600084610669565b611242610819565b1561125f5760405162461bcd60e51b815260040161060a90611f17565b6007805460ff191660011790557f62e78cea01bee320cd4e420270b5ea74000d11b0c9f74754ebdbfc544b05a2586110e0610e21565b6000610a528383611712565b60006104b68261174a565b6112b582610632565b6112c181611023610e21565b61066983836114aa565b6112d58282610a59565b6107e8576000828152602081815260408083206001600160a01b03851684529091529020805460ff1916600117905561130c610e21565b6001600160a01b0316816001600160a01b0316837f2f8788117e7eff1d82e926ec794901d17c78024a50270940304540a733656f0d60405160405180910390a45050565b600061135c838361174e565b61139257508154600181810184556000848152602080822090930184905584548482528286019093526040902091909155610569565b506000610569565b6001600160e01b031981166301ffc9a760e01b14919050565b6113be838383611766565b600754600160a81b900460ff1615610669576113fa7f8502233096d909befbda0999bb8ea2f3a6be3c138b9fbf003752a4c8bce86f6c84610a59565b8061142a575061142a7f8502233096d909befbda0999bb8ea2f3a6be3c138b9fbf003752a4c8bce86f6c83610a59565b6106695760405162461bcd60e51b815260040161060a90611f4e565b6114508282610a59565b6107e857611468816001600160a01b03166014611771565b611473836020611771565b604051602001611484929190611c00565b60408051601f198184030181529082905262461bcd60e51b825261060a91600401611cc0565b6114b48282610a59565b156107e8576000828152602081815260408083206001600160a01b03851684529091529020805460ff191690556114e9610e21565b6001600160a01b0316816001600160a01b0316837ff6391f5c32d9c69d2a47ea670b442974b53935d1edc7fd64eb21e047a839171b60405160405180910390a45050565b600081815260018301602052604081205480156116405760006115516001836123d8565b8554909150600090611565906001906123d8565b90508181146115e657600086600001828154811061159357634e487b7160e01b600052603260045260246000fd5b90600052602060002001549050808760000184815481106115c457634e487b7160e01b600052603260045260246000fd5b6000918252602080832090910192909255918252600188019052604090208390555b855486908061160557634e487b7160e01b600052603160045260246000fd5b600190038181906000526020600020016000905590558560010160008681526020019081526020016000206000905560019350505050610569565b6000915050610569565b6001600160a01b0382166116705760405162461bcd60e51b815260040161060a906122ff565b61167c600083836113b3565b806004600082825461168e91906123a1565b90915550506001600160a01b038216600090815260026020526040812080548392906116bb9084906123a1565b90915550506040516001600160a01b038316906000907fddf252ad1be2c89b69c2b068fc378daa952ba7f163c4a11628f55a4df523b3ef906116fe908590611ca0565b60405180910390a36107e860008383610669565b600082600001828154811061173757634e487b7160e01b600052603260045260246000fd5b9060005260206000200154905092915050565b5490565b60009081526001919091016020526040902054151590565b610669838383611930565b606060006117808360026123b9565b61178b9060026123a1565b67ffffffffffffffff8111156117b157634e487b7160e01b600052604160045260246000fd5b6040519080825280601f01601f1916602001820160405280156117db576020820181803683370190505b509050600360fc1b8160008151811061180457634e487b7160e01b600052603260045260246000fd5b60200101906001600160f81b031916908160001a905350600f60fb1b8160018151811061184157634e487b7160e01b600052603260045260246000fd5b60200101906001600160f81b031916908160001a90535060006118658460026123b9565b6118709060016123a1565b90505b6001811115611911577f303132333435363738396162636465660000000000000000000000000000000085600f16601081106118bf57634e487b7160e01b600052603260045260246000fd5b1a60f81b8282815181106118e357634e487b7160e01b600052603260045260246000fd5b60200101906001600160f81b031916908160001a90535060049490941c9361190a8161241b565b9050611873565b508315610a525760405162461bcd60e51b815260040161060a90611cf3565b61193b838383610669565b611943610819565b156106695760405162461bcd60e51b815260040161060a90612336565b82805461196c90612432565b90600052602060002090601f01602090048101928261198e57600085556119d4565b82601f106119a75782800160ff198235161785556119d4565b828001600101855582156119d4579182015b828111156119d45782358255916020019190600101906119b9565b506119e09291506119e4565b5090565b5b808211156119e057600081556001016119e5565b80356001600160a01b03811681146104b957600080fd5b600060208284031215611a21578081fd5b610a52826119f9565b60008060408385031215611a3c578081fd5b611a45836119f9565b9150611a53602084016119f9565b90509250929050565b600080600060608486031215611a70578081fd5b611a79846119f9565b9250611a87602085016119f9565b9150604084013590509250925092565b60008060408385031215611aa9578182fd5b611ab2836119f9565b946020939093013593505050565b600060208284031215611ad1578081fd5b8135610a5281612483565b600060208284031215611aed578081fd5b8151610a5281612483565b600060208284031215611b09578081fd5b5035919050565b600060208284031215611b21578081fd5b5051919050565b60008060408385031215611b3a578182fd5b82359150611a53602084016119f9565b60008060408385031215611b5c578182fd5b50508035926020909101359150565b600060208284031215611b7c578081fd5b81356001600160e01b031981168114610a52578182fd5b60008060208385031215611ba5578182fd5b823567ffffffffffffffff80821115611bbc578384fd5b818501915085601f830112611bcf578384fd5b813581811115611bdd578485fd5b866020828501011115611bee578485fd5b60209290920196919550909350505050565b60007f416363657373436f6e74726f6c3a206163636f756e742000000000000000000082528351611c388160178501602088016123ef565b7f206973206d697373696e6720726f6c65200000000000000000000000000000006017918401918201528351611c758160288401602088016123ef565b01602801949350505050565b6001600160a01b0391909116815260200190565b901515815260200190565b90815260200190565b9182526001600160a01b0316602082015260400190565b6000602082528251806020840152611cdf8160408501602087016123ef565b601f01601f19169190910160400192915050565b6020808252818101527f537472696e67733a20686578206c656e67746820696e73756666696369656e74604082015260600190565b60208082526023908201527f45524332303a207472616e7366657220746f20746865207a65726f206164647260408201526265737360e81b606082015260800190565b60208082526014908201527f5061757361626c653a206e6f7420706175736564000000000000000000000000604082015260600190565b60208082526022908201527f45524332303a206275726e20616d6f756e7420657863656564732062616c616e604082015261636560f01b606082015260800190565b60208082526039908201527f45524332305072657365744d696e7465725061757365723a206d75737420686160408201527f76652070617573657220726f6c6520746f20756e706175736500000000000000606082015260800190565b60208082526022908201527f45524332303a20617070726f766520746f20746865207a65726f206164647265604082015261737360f01b606082015260800190565b60208082526026908201527f45524332303a207472616e7366657220616d6f756e742065786365656473206260408201527f616c616e63650000000000000000000000000000000000000000000000000000606082015260800190565b6020808252601d908201527f436f696e3a205468652070726f746f636f6c206973207061757365642e000000604082015260600190565b60208082526010908201527f5061757361626c653a2070617573656400000000000000000000000000000000604082015260600190565b60208082526036908201527f4e46543a205472616e736665727320617265207265737472696374656420746f60408201527f205452414e534645525f524f4c4520686f6c6465727300000000000000000000606082015260800190565b60208082526028908201527f45524332303a207472616e7366657220616d6f756e742065786365656473206160408201527f6c6c6f77616e6365000000000000000000000000000000000000000000000000606082015260800190565b60208082526036908201527f45524332305072657365744d696e7465725061757365723a206d75737420686160408201527f7665206d696e74657220726f6c6520746f206d696e7400000000000000000000606082015260800190565b60208082526024908201527f45524332303a206275726e20616d6f756e74206578636565647320616c6c6f77604082015263616e636560e01b606082015260800190565b60208082526021908201527f45524332303a206275726e2066726f6d20746865207a65726f206164647265736040820152607360f81b606082015260800190565b60208082526025908201527f45524332303a207472616e736665722066726f6d20746865207a65726f20616460408201527f6472657373000000000000000000000000000000000000000000000000000000606082015260800190565b60208082526024908201527f45524332303a20617070726f76652066726f6d20746865207a65726f206164646040820152637265737360e01b606082015260800190565b60208082526037908201527f45524332305072657365744d696e7465725061757365723a206d75737420686160408201527f76652070617573657220726f6c6520746f207061757365000000000000000000606082015260800190565b60208082526033908201527f436f696e3a206f6e6c7920612070726f746f636f6c2061646d696e2063616e2060408201527f63616c6c20746869732066756e6374696f6e2e00000000000000000000000000606082015260800190565b60208082526025908201527f45524332303a2064656372656173656420616c6c6f77616e63652062656c6f7760408201527f207a65726f000000000000000000000000000000000000000000000000000000606082015260800190565b6020808252602f908201527f416363657373436f6e74726f6c3a2063616e206f6e6c792072656e6f756e636560408201527f20726f6c657320666f722073656c660000000000000000000000000000000000606082015260800190565b6020808252601f908201527f45524332303a206d696e7420746f20746865207a65726f206164647265737300604082015260600190565b6020808252602a908201527f45524332305061757361626c653a20746f6b656e207472616e7366657220776860408201527f696c652070617573656400000000000000000000000000000000000000000000606082015260800190565b60ff91909116815260200190565b600082198211156123b4576123b461246d565b500190565b60008160001904831182151516156123d3576123d361246d565b500290565b6000828210156123ea576123ea61246d565b500390565b60005b8381101561240a5781810151838201526020016123f2565b838111156110085750506000910152565b60008161242a5761242a61246d565b506000190190565b60028104600182168061244657607f821691505b6020821081141561246757634e487b7160e01b600052602260045260246000fd5b50919050565b634e487b7160e01b600052601160045260246000fd5b80151581146107fd57600080fdfea164736f6c6343000800000a9f2df0fed2c77648de5860a4cc508cd0818c85b8b8a1ab4ceeef8d981c8956a6",
  "linkReferences": {},
  "deployedLinkReferences": {}
}