{
  "_format": "hh-sol-artifact-1",
  "contractName": "DataStore",
  "sourceName": "contracts/DataStore.sol",
  "abi": [
    {
      "inputs": [],
      "stateMutability": "nonpayable",
      "type": "constructor"
    },
    {
      "anonymous": false,
      "inputs": [
        {
          "indexed": true,
          "internalType": "bytes32",
          "name": "role",
          "type": "bytes32"
        },
        {
          "indexed": true,
          "internalType": "bytes32",
          "name": "previousAdminRole",
          "type": "bytes32"
        },
        {
          "indexed": true,
          "internalType": "bytes32",
          "name": "newAdminRole",
          "type": "bytes32"
        }
      ],
      "name": "RoleAdminChanged",
      "type": "event"
    },
    {
      "anonymous": false,
      "inputs": [
        {
          "indexed": true,
          "internalType": "bytes32",
          "name": "role",
          "type": "bytes32"
        },
        {
          "indexed": true,
          "internalType": "address",
          "name": "account",
          "type": "address"
        },
        {
          "indexed": true,
          "internalType": "address",
          "name": "sender",
          "type": "address"
        }
      ],
      "name": "RoleGranted",
      "type": "event"
    },
    {
      "anonymous": false,
      "inputs": [
        {
          "indexed": true,
          "internalType": "bytes32",
          "name": "role",
          "type": "bytes32"
        },
        {
          "indexed": true,
          "internalType": "address",
          "name": "account",
          "type": "address"
        },
        {
          "indexed": true,
          "internalType": "address",
          "name": "sender",
          "type": "address"
        }
      ],
      "name": "RoleRevoked",
      "type": "event"
    },
    {
      "inputs": [],
      "name": "DEFAULT_ADMIN_ROLE",
      "outputs": [
        {
          "internalType": "bytes32",
          "name": "",
          "type": "bytes32"
        }
      ],
      "stateMutability": "view",
      "type": "function"
    },
    {
      "inputs": [],
      "name": "PUBLISHER_ROLE",
      "outputs": [
        {
          "internalType": "bytes32",
          "name": "",
          "type": "bytes32"
        }
      ],
      "stateMutability": "view",
      "type": "function"
    },
    {
      "inputs": [
        {
          "internalType": "bytes32",
          "name": "",
          "type": "bytes32"
        }
      ],
      "name": "data",
      "outputs": [
        {
          "internalType": "string",
          "name": "",
          "type": "string"
        }
      ],
      "stateMutability": "view",
      "type": "function"
    },
    {
      "inputs": [
        {
          "internalType": "bytes32",
          "name": "role",
          "type": "bytes32"
        }
      ],
      "name": "getRoleAdmin",
      "outputs": [
        {
          "internalType": "bytes32",
          "name": "",
          "type": "bytes32"
        }
      ],
      "stateMutability": "view",
      "type": "function"
    },
    {
      "inputs": [
        {
          "internalType": "bytes32",
          "name": "role",
          "type": "bytes32"
        },
        {
          "internalType": "uint256",
          "name": "index",
          "type": "uint256"
        }
      ],
      "name": "getRoleMember",
      "outputs": [
        {
          "internalType": "address",
          "name": "",
          "type": "address"
        }
      ],
      "stateMutability": "view",
      "type": "function"
    },
    {
      "inputs": [
        {
          "internalType": "bytes32",
          "name": "role",
          "type": "bytes32"
        }
      ],
      "name": "getRoleMemberCount",
      "outputs": [
        {
          "internalType": "uint256",
          "name": "",
          "type": "uint256"
        }
      ],
      "stateMutability": "view",
      "type": "function"
    },
    {
      "inputs": [
        {
          "internalType": "bytes32",
          "name": "role",
          "type": "bytes32"
        },
        {
          "internalType": "address",
          "name": "account",
          "type": "address"
        }
      ],
      "name": "grantRole",
      "outputs": [],
      "stateMutability": "nonpayable",
      "type": "function"
    },
    {
      "inputs": [
        {
          "internalType": "bytes32",
          "name": "role",
          "type": "bytes32"
        },
        {
          "internalType": "address",
          "name": "account",
          "type": "address"
        }
      ],
      "name": "hasRole",
      "outputs": [
        {
          "internalType": "bool",
          "name": "",
          "type": "bool"
        }
      ],
      "stateMutability": "view",
      "type": "function"
    },
    {
      "inputs": [
        {
          "internalType": "bytes[]",
          "name": "data",
          "type": "bytes[]"
        }
      ],
      "name": "multicall",
      "outputs": [
        {
          "internalType": "bytes[]",
          "name": "results",
          "type": "bytes[]"
        }
      ],
      "stateMutability": "nonpayable",
      "type": "function"
    },
    {
      "inputs": [
        {
          "internalType": "bytes32",
          "name": "role",
          "type": "bytes32"
        },
        {
          "internalType": "address",
          "name": "account",
          "type": "address"
        }
      ],
      "name": "renounceRole",
      "outputs": [],
      "stateMutability": "nonpayable",
      "type": "function"
    },
    {
      "inputs": [
        {
          "internalType": "bytes32",
          "name": "role",
          "type": "bytes32"
        },
        {
          "internalType": "address",
          "name": "account",
          "type": "address"
        }
      ],
      "name": "revokeRole",
      "outputs": [],
      "stateMutability": "nonpayable",
      "type": "function"
    },
    {
      "inputs": [
        {
          "internalType": "bytes32",
          "name": "_key",
          "type": "bytes32"
        },
        {
          "internalType": "string",
          "name": "_value",
          "type": "string"
        }
      ],
      "name": "store",
      "outputs": [],
      "stateMutability": "nonpayable",
      "type": "function"
    },
    {
      "inputs": [
        {
          "internalType": "bytes4",
          "name": "interfaceId",
          "type": "bytes4"
        }
      ],
      "name": "supportsInterface",
      "outputs": [
        {
          "internalType": "bool",
          "name": "",
          "type": "bool"
        }
      ],
      "stateMutability": "view",
      "type": "function"
    }
  ],
  "bytecode": "0x60806040523480156200001157600080fd5b50620000286000620000226200005d565b62000061565b620000577f0ac90c257048ef1c3e387c26d4a99bde06894efbcbff862dc1885c3a9319308a620000226200005d565b620001ee565b3390565b620000788282620000a460201b6200053c1760201c565b60008281526001602090815260409091206200009f9183906200054a620000b4821b17901c565b505050565b620000b08282620000d4565b5050565b6000620000cb836001600160a01b0384166200015e565b90505b92915050565b620000e08282620001ad565b620000b0576000828152602081815260408083206001600160a01b03851684529091529020805460ff191660011790556200011a6200005d565b6001600160a01b0316816001600160a01b0316837f2f8788117e7eff1d82e926ec794901d17c78024a50270940304540a733656f0d60405160405180910390a45050565b60006200016c8383620001d6565b620001a457508154600181810184556000848152602080822090930184905584548482528286019093526040902091909155620000ce565b506000620000ce565b6000918252602082815260408084206001600160a01b0393909316845291905290205460ff1690565b60009081526001919091016020526040902054151590565b61125b80620001fe6000396000f3fe608060405234801561001057600080fd5b50600436106100df5760003560e01c806391d148541161008c578063ac9650d811610066578063ac9650d8146101c3578063ca15c873146101e3578063d547741f146101f6578063d8f4b6fd14610209576100df565b806391d14854146101955780639d105a25146101a8578063a217fddf146101bb576100df565b80632f2ff15d116100bd5780632f2ff15d1461014d57806336568abe146101625780639010d07c14610175576100df565b80630147fb0c146100e457806301ffc9a71461010d578063248a9ca31461012d575b600080fd5b6100f76100f2366004610d44565b610211565b6040516101049190610fdd565b60405180910390f35b61012061011b366004610e64565b6102ab565b6040516101049190610fc9565b61014061013b366004610d44565b6102d6565b6040516101049190610fd4565b61016061015b366004610d5c565b6102eb565b005b610160610170366004610d5c565b610312565b610188610183366004610e43565b610334565b6040516101049190610f55565b6101206101a3366004610d5c565b610353565b6101606101b6366004610d96565b61037c565b6101406103d3565b6101d66101d1366004610cd5565b6103d8565b6040516101049190610f69565b6101406101f1366004610d44565b6104f7565b610160610204366004610d5c565b61050e565b610140610518565b6002602052600090815260409020805461022a906111a5565b80601f0160208091040260200160405190810160405280929190818152602001828054610256906111a5565b80156102a35780601f10610278576101008083540402835291602001916102a3565b820191906000526020600020905b81548152906001019060200180831161028657829003601f168201915b505050505081565b60006001600160e01b03198216635a05180f60e01b14806102d057506102d08261055f565b92915050565b60009081526020819052604090206001015490565b6102f58282610584565b600082815260016020526040902061030d908261054a565b505050565b61031c82826105a3565b600082815260016020526040902061030d90826105ee565b600082815260016020526040812061034c9083610603565b9392505050565b6000918252602082815260408084206001600160a01b0393909316845291905290205460ff1690565b7f0ac90c257048ef1c3e387c26d4a99bde06894efbcbff862dc1885c3a9319308a6103ae816103a961060f565b610613565b600083815260026020908152604090912083516103cd92850190610c3c565b50505050565b600081565b60608167ffffffffffffffff81111561040157634e487b7160e01b600052604160045260246000fd5b60405190808252806020026020018201604052801561043457816020015b606081526020019060019003908161041f5790505b50905060005b828110156104f0576104b23085858481811061046657634e487b7160e01b600052603260045260246000fd5b905060200281019061047891906110c8565b8080601f01602080910402602001604051908101604052809392919081815260200183838082843760009201919091525061067792505050565b8282815181106104d257634e487b7160e01b600052603260045260246000fd5b602002602001018190525080806104e8906111e0565b91505061043a565b5092915050565b60008181526001602052604081206102d09061069c565b61031c82826106a7565b7f0ac90c257048ef1c3e387c26d4a99bde06894efbcbff862dc1885c3a9319308a81565b61054682826106c6565b5050565b600061034c836001600160a01b03841661074b565b60006001600160e01b03198216637965db0b60e01b14806102d057506102d082610795565b61058d826102d6565b610599816103a961060f565b61030d83836106c6565b6105ab61060f565b6001600160a01b0316816001600160a01b0316146105e45760405162461bcd60e51b81526004016105db9061106b565b60405180910390fd5b61054682826107ae565b600061034c836001600160a01b038416610831565b600061034c838361094e565b3390565b61061d8282610353565b61054657610635816001600160a01b03166014610986565b610640836020610986565b604051602001610651929190610ed4565b60408051601f198184030181529082905262461bcd60e51b82526105db91600401610fdd565b606061034c838360405180606001604052806027815260200161122860279139610b45565b60006102d082610be1565b6106b0826102d6565b6106bc816103a961060f565b61030d83836107ae565b6106d08282610353565b610546576000828152602081815260408083206001600160a01b03851684529091529020805460ff1916600117905561070761060f565b6001600160a01b0316816001600160a01b0316837f2f8788117e7eff1d82e926ec794901d17c78024a50270940304540a733656f0d60405160405180910390a45050565b60006107578383610be5565b61078d575081546001818101845560008481526020808220909301849055845484825282860190935260409020919091556102d0565b5060006102d0565b6001600160e01b031981166301ffc9a760e01b14919050565b6107b88282610353565b15610546576000828152602081815260408083206001600160a01b03851684529091529020805460ff191690556107ed61060f565b6001600160a01b0316816001600160a01b0316837ff6391f5c32d9c69d2a47ea670b442974b53935d1edc7fd64eb21e047a839171b60405160405180910390a45050565b6000818152600183016020526040812054801561094457600061085560018361114b565b85549091506000906108699060019061114b565b90508181146108ea57600086600001828154811061089757634e487b7160e01b600052603260045260246000fd5b90600052602060002001549050808760000184815481106108c857634e487b7160e01b600052603260045260246000fd5b6000918252602080832090910192909255918252600188019052604090208390555b855486908061090957634e487b7160e01b600052603160045260246000fd5b6001900381819060005260206000200160009055905585600101600086815260200190815260200160002060009055600193505050506102d0565b60009150506102d0565b600082600001828154811061097357634e487b7160e01b600052603260045260246000fd5b9060005260206000200154905092915050565b6060600061099583600261112c565b6109a0906002611114565b67ffffffffffffffff8111156109c657634e487b7160e01b600052604160045260246000fd5b6040519080825280601f01601f1916602001820160405280156109f0576020820181803683370190505b509050600360fc1b81600081518110610a1957634e487b7160e01b600052603260045260246000fd5b60200101906001600160f81b031916908160001a905350600f60fb1b81600181518110610a5657634e487b7160e01b600052603260045260246000fd5b60200101906001600160f81b031916908160001a9053506000610a7a84600261112c565b610a85906001611114565b90505b6001811115610b26577f303132333435363738396162636465660000000000000000000000000000000085600f1660108110610ad457634e487b7160e01b600052603260045260246000fd5b1a60f81b828281518110610af857634e487b7160e01b600052603260045260246000fd5b60200101906001600160f81b031916908160001a90535060049490941c93610b1f8161118e565b9050610a88565b50831561034c5760405162461bcd60e51b81526004016105db90610ff0565b6060610b5084610bfd565b610b6c5760405162461bcd60e51b81526004016105db90611025565b600080856001600160a01b031685604051610b879190610eb8565b600060405180830381855af49150503d8060008114610bc2576040519150601f19603f3d011682016040523d82523d6000602084013e610bc7565b606091505b5091509150610bd7828286610c03565b9695505050505050565b5490565b60009081526001919091016020526040902054151590565b3b151590565b60608315610c1257508161034c565b825115610c225782518084602001fd5b8160405162461bcd60e51b81526004016105db9190610fdd565b828054610c48906111a5565b90600052602060002090601f016020900481019282610c6a5760008555610cb0565b82601f10610c8357805160ff1916838001178555610cb0565b82800160010185558215610cb0579182015b82811115610cb0578251825591602001919060010190610c95565b50610cbc929150610cc0565b5090565b5b80821115610cbc5760008155600101610cc1565b60008060208385031215610ce7578182fd5b823567ffffffffffffffff80821115610cfe578384fd5b818501915085601f830112610d11578384fd5b813581811115610d1f578485fd5b8660208083028501011115610d32578485fd5b60209290920196919550909350505050565b600060208284031215610d55578081fd5b5035919050565b60008060408385031215610d6e578182fd5b8235915060208301356001600160a01b0381168114610d8b578182fd5b809150509250929050565b60008060408385031215610da8578182fd5b8235915060208084013567ffffffffffffffff80821115610dc7578384fd5b818601915086601f830112610dda578384fd5b813581811115610dec57610dec611211565b604051601f8201601f1916810185018381118282101715610e0f57610e0f611211565b6040528181528382018501891015610e25578586fd5b81858501868301378585838301015280955050505050509250929050565b60008060408385031215610e55578182fd5b50508035926020909101359150565b600060208284031215610e75578081fd5b81356001600160e01b03198116811461034c578182fd5b60008151808452610ea4816020860160208601611162565b601f01601f19169290920160200192915050565b60008251610eca818460208701611162565b9190910192915050565b60007f416363657373436f6e74726f6c3a206163636f756e742000000000000000000082528351610f0c816017850160208801611162565b7f206973206d697373696e6720726f6c65200000000000000000000000000000006017918401918201528351610f49816028840160208801611162565b01602801949350505050565b6001600160a01b0391909116815260200190565b6000602080830181845280855180835260408601915060408482028701019250838701855b82811015610fbc57603f19888603018452610faa858351610e8c565b94509285019290850190600101610f8e565b5092979650505050505050565b901515815260200190565b90815260200190565b60006020825261034c6020830184610e8c565b6020808252818101527f537472696e67733a20686578206c656e67746820696e73756666696369656e74604082015260600190565b60208082526026908201527f416464726573733a2064656c65676174652063616c6c20746f206e6f6e2d636f6040820152651b9d1c9858dd60d21b606082015260800190565b6020808252602f908201527f416363657373436f6e74726f6c3a2063616e206f6e6c792072656e6f756e636560408201527f20726f6c657320666f722073656c660000000000000000000000000000000000606082015260800190565b6000808335601e198436030181126110de578283fd5b83018035915067ffffffffffffffff8211156110f8578283fd5b60200191503681900382131561110d57600080fd5b9250929050565b60008219821115611127576111276111fb565b500190565b6000816000190483118215151615611146576111466111fb565b500290565b60008282101561115d5761115d6111fb565b500390565b60005b8381101561117d578181015183820152602001611165565b838111156103cd5750506000910152565b60008161119d5761119d6111fb565b506000190190565b6002810460018216806111b957607f821691505b602082108114156111da57634e487b7160e01b600052602260045260246000fd5b50919050565b60006000198214156111f4576111f46111fb565b5060010190565b634e487b7160e01b600052601160045260246000fd5b634e487b7160e01b600052604160045260246000fdfe416464726573733a206c6f772d6c6576656c2064656c65676174652063616c6c206661696c6564a164736f6c6343000800000a",
  "linkReferences": {},
  "deployedLinkReferences": {}
}