{
  "_format": "hh-sol-artifact-1",
  "contractName": "DataStore",
  "sourceName": "contracts/DataStore.sol",
  "abi": [
    {
      "inputs": [],
      "stateMutability": "nonpayable",
      "type": "constructor"
    },
    {
      "anonymous": false,
      "inputs": [
        {
          "indexed": true,
          "internalType": "bytes32",
          "name": "role",
          "type": "bytes32"
        },
        {
          "indexed": true,
          "internalType": "bytes32",
          "name": "previousAdminRole",
          "type": "bytes32"
        },
        {
          "indexed": true,
          "internalType": "bytes32",
          "name": "newAdminRole",
          "type": "bytes32"
        }
      ],
      "name": "RoleAdminChanged",
      "type": "event"
    },
    {
      "anonymous": false,
      "inputs": [
        {
          "indexed": true,
          "internalType": "bytes32",
          "name": "role",
          "type": "bytes32"
        },
        {
          "indexed": true,
          "internalType": "address",
          "name": "account",
          "type": "address"
        },
        {
          "indexed": true,
          "internalType": "address",
          "name": "sender",
          "type": "address"
        }
      ],
      "name": "RoleGranted",
      "type": "event"
    },
    {
      "anonymous": false,
      "inputs": [
        {
          "indexed": true,
          "internalType": "bytes32",
          "name": "role",
          "type": "bytes32"
        },
        {
          "indexed": true,
          "internalType": "address",
          "name": "account",
          "type": "address"
        },
        {
          "indexed": true,
          "internalType": "address",
          "name": "sender",
          "type": "address"
        }
      ],
      "name": "RoleRevoked",
      "type": "event"
    },
    {
      "inputs": [],
      "name": "DEFAULT_ADMIN_ROLE",
      "outputs": [
        {
          "internalType": "bytes32",
          "name": "",
          "type": "bytes32"
        }
      ],
      "stateMutability": "view",
      "type": "function"
    },
    {
      "inputs": [],
      "name": "EDITOR_ROLE",
      "outputs": [
        {
          "internalType": "bytes32",
          "name": "",
          "type": "bytes32"
        }
      ],
      "stateMutability": "view",
      "type": "function"
    },
    {
      "inputs": [
        {
          "internalType": "uint256",
          "name": "",
          "type": "uint256"
        }
      ],
      "name": "data",
      "outputs": [
        {
          "internalType": "uint256",
          "name": "",
          "type": "uint256"
        }
      ],
      "stateMutability": "view",
      "type": "function"
    },
    {
      "inputs": [
        {
          "internalType": "bytes32",
          "name": "role",
          "type": "bytes32"
        }
      ],
      "name": "getRoleAdmin",
      "outputs": [
        {
          "internalType": "bytes32",
          "name": "",
          "type": "bytes32"
        }
      ],
      "stateMutability": "view",
      "type": "function"
    },
    {
      "inputs": [
        {
          "internalType": "bytes32",
          "name": "role",
          "type": "bytes32"
        },
        {
          "internalType": "uint256",
          "name": "index",
          "type": "uint256"
        }
      ],
      "name": "getRoleMember",
      "outputs": [
        {
          "internalType": "address",
          "name": "",
          "type": "address"
        }
      ],
      "stateMutability": "view",
      "type": "function"
    },
    {
      "inputs": [
        {
          "internalType": "bytes32",
          "name": "role",
          "type": "bytes32"
        }
      ],
      "name": "getRoleMemberCount",
      "outputs": [
        {
          "internalType": "uint256",
          "name": "",
          "type": "uint256"
        }
      ],
      "stateMutability": "view",
      "type": "function"
    },
    {
      "inputs": [
        {
          "internalType": "bytes32",
          "name": "role",
          "type": "bytes32"
        },
        {
          "internalType": "address",
          "name": "account",
          "type": "address"
        }
      ],
      "name": "grantRole",
      "outputs": [],
      "stateMutability": "nonpayable",
      "type": "function"
    },
    {
      "inputs": [
        {
          "internalType": "bytes32",
          "name": "role",
          "type": "bytes32"
        },
        {
          "internalType": "address",
          "name": "account",
          "type": "address"
        }
      ],
      "name": "hasRole",
      "outputs": [
        {
          "internalType": "bool",
          "name": "",
          "type": "bool"
        }
      ],
      "stateMutability": "view",
      "type": "function"
    },
    {
      "inputs": [
        {
          "internalType": "bytes[]",
          "name": "data",
          "type": "bytes[]"
        }
      ],
      "name": "multicall",
      "outputs": [
        {
          "internalType": "bytes[]",
          "name": "results",
          "type": "bytes[]"
        }
      ],
      "stateMutability": "nonpayable",
      "type": "function"
    },
    {
      "inputs": [
        {
          "internalType": "bytes32",
          "name": "role",
          "type": "bytes32"
        },
        {
          "internalType": "address",
          "name": "account",
          "type": "address"
        }
      ],
      "name": "renounceRole",
      "outputs": [],
      "stateMutability": "nonpayable",
      "type": "function"
    },
    {
      "inputs": [
        {
          "internalType": "bytes32",
          "name": "role",
          "type": "bytes32"
        },
        {
          "internalType": "address",
          "name": "account",
          "type": "address"
        }
      ],
      "name": "revokeRole",
      "outputs": [],
      "stateMutability": "nonpayable",
      "type": "function"
    },
    {
      "inputs": [
        {
          "internalType": "uint256",
          "name": "_key",
          "type": "uint256"
        },
        {
          "internalType": "uint256",
          "name": "_value",
          "type": "uint256"
        }
      ],
      "name": "store",
      "outputs": [],
      "stateMutability": "nonpayable",
      "type": "function"
    },
    {
      "inputs": [
        {
          "internalType": "bytes4",
          "name": "interfaceId",
          "type": "bytes4"
        }
      ],
      "name": "supportsInterface",
      "outputs": [
        {
          "internalType": "bool",
          "name": "",
          "type": "bool"
        }
      ],
      "stateMutability": "view",
      "type": "function"
    }
  ],
  "bytecode": "0x60806040523480156200001157600080fd5b50620000286000620000226200005d565b62000061565b620000577f21d1167972f621f75904fb065136bc8b53c7ba1c60ccd3a7758fbee465851e9c620000226200005d565b620001ee565b3390565b620000788282620000a460201b620004951760201c565b60008281526001602090815260409091206200009f918390620004a3620000b4821b17901c565b505050565b620000b08282620000d4565b5050565b6000620000cb836001600160a01b0384166200015e565b90505b92915050565b620000e08282620001ad565b620000b0576000828152602081815260408083206001600160a01b03851684529091529020805460ff191660011790556200011a6200005d565b6001600160a01b0316816001600160a01b0316837f2f8788117e7eff1d82e926ec794901d17c78024a50270940304540a733656f0d60405160405180910390a45050565b60006200016c8383620001d6565b620001a457508154600181810184556000848152602080822090930184905584548482528286019093526040902091909155620000ce565b506000620000ce565b6000918252602082815260408084206001600160a01b0393909316845291905290205460ff1690565b60009081526001919091016020526040902054151590565b61102180620001fe6000396000f3fe608060405234801561001057600080fd5b50600436106100df5760003560e01c806391d148541161008c578063ac9650d811610066578063ac9650d8146101ab578063ca15c873146101cb578063d547741f146101de578063f0ba8440146101f1576100df565b806391d1485414610188578063a217fddf1461019b578063a853211a146101a3576100df565b806336568abe116100bd57806336568abe146101425780636ed28ed0146101555780639010d07c14610168576100df565b806301ffc9a7146100e4578063248a9ca31461010d5780632f2ff15d1461012d575b600080fd5b6100f76100f2366004610c77565b610204565b6040516101049190610ddc565b60405180910390f35b61012061011b366004610c04565b61022f565b6040516101049190610de7565b61014061013b366004610c1c565b610244565b005b610140610150366004610c1c565b61026b565b610140610163366004610c56565b61028d565b61017b610176366004610c56565b6102d2565b6040516101049190610d68565b6100f7610196366004610c1c565b6102f1565b61012061031a565b61012061031f565b6101be6101b9366004610b95565b610343565b6040516101049190610d7c565b6101206101d9366004610c04565b610462565b6101406101ec366004610c1c565b610479565b6101206101ff366004610c04565b610483565b60006001600160e01b03198216635a05180f60e01b14806102295750610229826104b8565b92915050565b60009081526020819052604090206001015490565b61024e82826104dd565b600082815260016020526040902061026690826104a3565b505050565b61027582826104fc565b60008281526001602052604090206102669082610547565b7f21d1167972f621f75904fb065136bc8b53c7ba1c60ccd3a7758fbee465851e9c6102bf816102ba61055c565b610560565b5060009182526002602052604090912055565b60008281526001602052604081206102ea90836105c4565b9392505050565b6000918252602082815260408084206001600160a01b0393909316845291905290205460ff1690565b600081565b7f21d1167972f621f75904fb065136bc8b53c7ba1c60ccd3a7758fbee465851e9c81565b60608167ffffffffffffffff81111561036c57634e487b7160e01b600052604160045260246000fd5b60405190808252806020026020018201604052801561039f57816020015b606081526020019060019003908161038a5790505b50905060005b8281101561045b5761041d308585848181106103d157634e487b7160e01b600052603260045260246000fd5b90506020028101906103e39190610edb565b8080601f0160208091040260200160405190810160405280939291908181526020018383808284376000920191909152506105d092505050565b82828151811061043d57634e487b7160e01b600052603260045260246000fd5b6020026020010181905250808061045390610fbc565b9150506103a5565b5092915050565b6000818152600160205260408120610229906105f5565b6102758282610600565b60026020526000908152604090205481565b61049f828261061f565b5050565b60006102ea836001600160a01b0384166106a4565b60006001600160e01b03198216637965db0b60e01b14806102295750610229826106ee565b6104e68261022f565b6104f2816102ba61055c565b610266838361061f565b61050461055c565b6001600160a01b0316816001600160a01b03161461053d5760405162461bcd60e51b815260040161053490610e7e565b60405180910390fd5b61049f8282610707565b60006102ea836001600160a01b03841661078a565b3390565b61056a82826102f1565b61049f57610582816001600160a01b031660146108a7565b61058d8360206108a7565b60405160200161059e929190610ce7565b60408051601f198184030181529082905262461bcd60e51b825261053491600401610df0565b60006102ea8383610a66565b60606102ea8383604051806060016040528060278152602001610fee60279139610a9e565b600061022982610b3a565b6106098261022f565b610615816102ba61055c565b6102668383610707565b61062982826102f1565b61049f576000828152602081815260408083206001600160a01b03851684529091529020805460ff1916600117905561066061055c565b6001600160a01b0316816001600160a01b0316837f2f8788117e7eff1d82e926ec794901d17c78024a50270940304540a733656f0d60405160405180910390a45050565b60006106b08383610b3e565b6106e657508154600181810184556000848152602080822090930184905584548482528286019093526040902091909155610229565b506000610229565b6001600160e01b031981166301ffc9a760e01b14919050565b61071182826102f1565b1561049f576000828152602081815260408083206001600160a01b03851684529091529020805460ff1916905561074661055c565b6001600160a01b0316816001600160a01b0316837ff6391f5c32d9c69d2a47ea670b442974b53935d1edc7fd64eb21e047a839171b60405160405180910390a45050565b6000818152600183016020526040812054801561089d5760006107ae600183610f5e565b85549091506000906107c290600190610f5e565b90508181146108435760008660000182815481106107f057634e487b7160e01b600052603260045260246000fd5b906000526020600020015490508087600001848154811061082157634e487b7160e01b600052603260045260246000fd5b6000918252602080832090910192909255918252600188019052604090208390555b855486908061086257634e487b7160e01b600052603160045260246000fd5b600190038181906000526020600020016000905590558560010160008681526020019081526020016000206000905560019350505050610229565b6000915050610229565b606060006108b6836002610f3f565b6108c1906002610f27565b67ffffffffffffffff8111156108e757634e487b7160e01b600052604160045260246000fd5b6040519080825280601f01601f191660200182016040528015610911576020820181803683370190505b509050600360fc1b8160008151811061093a57634e487b7160e01b600052603260045260246000fd5b60200101906001600160f81b031916908160001a905350600f60fb1b8160018151811061097757634e487b7160e01b600052603260045260246000fd5b60200101906001600160f81b031916908160001a905350600061099b846002610f3f565b6109a6906001610f27565b90505b6001811115610a47577f303132333435363738396162636465660000000000000000000000000000000085600f16601081106109f557634e487b7160e01b600052603260045260246000fd5b1a60f81b828281518110610a1957634e487b7160e01b600052603260045260246000fd5b60200101906001600160f81b031916908160001a90535060049490941c93610a4081610fa5565b90506109a9565b5083156102ea5760405162461bcd60e51b815260040161053490610e03565b6000826000018281548110610a8b57634e487b7160e01b600052603260045260246000fd5b9060005260206000200154905092915050565b6060610aa984610b56565b610ac55760405162461bcd60e51b815260040161053490610e38565b600080856001600160a01b031685604051610ae09190610ccb565b600060405180830381855af49150503d8060008114610b1b576040519150601f19603f3d011682016040523d82523d6000602084013e610b20565b606091505b5091509150610b30828286610b5c565b9695505050505050565b5490565b60009081526001919091016020526040902054151590565b3b151590565b60608315610b6b5750816102ea565b825115610b7b5782518084602001fd5b8160405162461bcd60e51b81526004016105349190610df0565b60008060208385031215610ba7578182fd5b823567ffffffffffffffff80821115610bbe578384fd5b818501915085601f830112610bd1578384fd5b813581811115610bdf578485fd5b8660208083028501011115610bf2578485fd5b60209290920196919550909350505050565b600060208284031215610c15578081fd5b5035919050565b60008060408385031215610c2e578182fd5b8235915060208301356001600160a01b0381168114610c4b578182fd5b809150509250929050565b60008060408385031215610c68578182fd5b50508035926020909101359150565b600060208284031215610c88578081fd5b81356001600160e01b0319811681146102ea578182fd5b60008151808452610cb7816020860160208601610f75565b601f01601f19169290920160200192915050565b60008251610cdd818460208701610f75565b9190910192915050565b60007f416363657373436f6e74726f6c3a206163636f756e742000000000000000000082528351610d1f816017850160208801610f75565b7f206973206d697373696e6720726f6c65200000000000000000000000000000006017918401918201528351610d5c816028840160208801610f75565b01602801949350505050565b6001600160a01b0391909116815260200190565b6000602080830181845280855180835260408601915060408482028701019250838701855b82811015610dcf57603f19888603018452610dbd858351610c9f565b94509285019290850190600101610da1565b5092979650505050505050565b901515815260200190565b90815260200190565b6000602082526102ea6020830184610c9f565b6020808252818101527f537472696e67733a20686578206c656e67746820696e73756666696369656e74604082015260600190565b60208082526026908201527f416464726573733a2064656c65676174652063616c6c20746f206e6f6e2d636f6040820152651b9d1c9858dd60d21b606082015260800190565b6020808252602f908201527f416363657373436f6e74726f6c3a2063616e206f6e6c792072656e6f756e636560408201527f20726f6c657320666f722073656c660000000000000000000000000000000000606082015260800190565b6000808335601e19843603018112610ef1578283fd5b83018035915067ffffffffffffffff821115610f0b578283fd5b602001915036819003821315610f2057600080fd5b9250929050565b60008219821115610f3a57610f3a610fd7565b500190565b6000816000190483118215151615610f5957610f59610fd7565b500290565b600082821015610f7057610f70610fd7565b500390565b60005b83811015610f90578181015183820152602001610f78565b83811115610f9f576000848401525b50505050565b600081610fb457610fb4610fd7565b506000190190565b6000600019821415610fd057610fd0610fd7565b5060010190565b634e487b7160e01b600052601160045260246000fdfe416464726573733a206c6f772d6c6576656c2064656c65676174652063616c6c206661696c6564a164736f6c6343000800000a",
  "linkReferences": {},
  "deployedLinkReferences": {}
}