{
  "_format": "hh-sol-artifact-1",
  "contractName": "DataStore",
  "sourceName": "contracts/DataStore.sol",
  "abi": [
    {
      "inputs": [
        {
          "internalType": "address payable",
          "name": "_controlCenterAddress",
          "type": "address"
        },
        {
          "internalType": "address",
          "name": "_trustedForwarder",
          "type": "address"
        },
        {
          "internalType": "string",
          "name": "_uri",
          "type": "string"
        }
      ],
      "stateMutability": "nonpayable",
      "type": "constructor"
    },
    {
      "anonymous": false,
      "inputs": [
        {
          "indexed": true,
          "internalType": "bytes32",
          "name": "role",
          "type": "bytes32"
        },
        {
          "indexed": true,
          "internalType": "bytes32",
          "name": "previousAdminRole",
          "type": "bytes32"
        },
        {
          "indexed": true,
          "internalType": "bytes32",
          "name": "newAdminRole",
          "type": "bytes32"
        }
      ],
      "name": "RoleAdminChanged",
      "type": "event"
    },
    {
      "anonymous": false,
      "inputs": [
        {
          "indexed": true,
          "internalType": "bytes32",
          "name": "role",
          "type": "bytes32"
        },
        {
          "indexed": true,
          "internalType": "address",
          "name": "account",
          "type": "address"
        },
        {
          "indexed": true,
          "internalType": "address",
          "name": "sender",
          "type": "address"
        }
      ],
      "name": "RoleGranted",
      "type": "event"
    },
    {
      "anonymous": false,
      "inputs": [
        {
          "indexed": true,
          "internalType": "bytes32",
          "name": "role",
          "type": "bytes32"
        },
        {
          "indexed": true,
          "internalType": "address",
          "name": "account",
          "type": "address"
        },
        {
          "indexed": true,
          "internalType": "address",
          "name": "sender",
          "type": "address"
        }
      ],
      "name": "RoleRevoked",
      "type": "event"
    },
    {
      "inputs": [],
      "name": "DEFAULT_ADMIN_ROLE",
      "outputs": [
        {
          "internalType": "bytes32",
          "name": "",
          "type": "bytes32"
        }
      ],
      "stateMutability": "view",
      "type": "function"
    },
    {
      "inputs": [],
      "name": "EDITOR_ROLE",
      "outputs": [
        {
          "internalType": "bytes32",
          "name": "",
          "type": "bytes32"
        }
      ],
      "stateMutability": "view",
      "type": "function"
    },
    {
      "inputs": [],
      "name": "contractURI",
      "outputs": [
        {
          "internalType": "string",
          "name": "",
          "type": "string"
        }
      ],
      "stateMutability": "view",
      "type": "function"
    },
    {
      "inputs": [
        {
          "internalType": "bytes32",
          "name": "role",
          "type": "bytes32"
        }
      ],
      "name": "getRoleAdmin",
      "outputs": [
        {
          "internalType": "bytes32",
          "name": "",
          "type": "bytes32"
        }
      ],
      "stateMutability": "view",
      "type": "function"
    },
    {
      "inputs": [
        {
          "internalType": "bytes32",
          "name": "role",
          "type": "bytes32"
        },
        {
          "internalType": "uint256",
          "name": "index",
          "type": "uint256"
        }
      ],
      "name": "getRoleMember",
      "outputs": [
        {
          "internalType": "address",
          "name": "",
          "type": "address"
        }
      ],
      "stateMutability": "view",
      "type": "function"
    },
    {
      "inputs": [
        {
          "internalType": "bytes32",
          "name": "role",
          "type": "bytes32"
        }
      ],
      "name": "getRoleMemberCount",
      "outputs": [
        {
          "internalType": "uint256",
          "name": "",
          "type": "uint256"
        }
      ],
      "stateMutability": "view",
      "type": "function"
    },
    {
      "inputs": [
        {
          "internalType": "uint256",
          "name": "_key",
          "type": "uint256"
        }
      ],
      "name": "getUint",
      "outputs": [
        {
          "internalType": "uint256",
          "name": "value",
          "type": "uint256"
        }
      ],
      "stateMutability": "view",
      "type": "function"
    },
    {
      "inputs": [
        {
          "internalType": "bytes32",
          "name": "role",
          "type": "bytes32"
        },
        {
          "internalType": "address",
          "name": "account",
          "type": "address"
        }
      ],
      "name": "grantRole",
      "outputs": [],
      "stateMutability": "nonpayable",
      "type": "function"
    },
    {
      "inputs": [
        {
          "internalType": "bytes32",
          "name": "role",
          "type": "bytes32"
        },
        {
          "internalType": "address",
          "name": "account",
          "type": "address"
        }
      ],
      "name": "hasRole",
      "outputs": [
        {
          "internalType": "bool",
          "name": "",
          "type": "bool"
        }
      ],
      "stateMutability": "view",
      "type": "function"
    },
    {
      "inputs": [
        {
          "internalType": "address",
          "name": "forwarder",
          "type": "address"
        }
      ],
      "name": "isTrustedForwarder",
      "outputs": [
        {
          "internalType": "bool",
          "name": "",
          "type": "bool"
        }
      ],
      "stateMutability": "view",
      "type": "function"
    },
    {
      "inputs": [
        {
          "internalType": "bytes[]",
          "name": "data",
          "type": "bytes[]"
        }
      ],
      "name": "multicall",
      "outputs": [
        {
          "internalType": "bytes[]",
          "name": "results",
          "type": "bytes[]"
        }
      ],
      "stateMutability": "nonpayable",
      "type": "function"
    },
    {
      "inputs": [
        {
          "internalType": "bytes32",
          "name": "role",
          "type": "bytes32"
        },
        {
          "internalType": "address",
          "name": "account",
          "type": "address"
        }
      ],
      "name": "renounceRole",
      "outputs": [],
      "stateMutability": "nonpayable",
      "type": "function"
    },
    {
      "inputs": [
        {
          "internalType": "bytes32",
          "name": "role",
          "type": "bytes32"
        },
        {
          "internalType": "address",
          "name": "account",
          "type": "address"
        }
      ],
      "name": "revokeRole",
      "outputs": [],
      "stateMutability": "nonpayable",
      "type": "function"
    },
    {
      "inputs": [
        {
          "internalType": "string",
          "name": "_URI",
          "type": "string"
        }
      ],
      "name": "setContractURI",
      "outputs": [],
      "stateMutability": "nonpayable",
      "type": "function"
    },
    {
      "inputs": [
        {
          "internalType": "uint256",
          "name": "_key",
          "type": "uint256"
        },
        {
          "internalType": "uint256",
          "name": "_value",
          "type": "uint256"
        }
      ],
      "name": "setUint",
      "outputs": [],
      "stateMutability": "nonpayable",
      "type": "function"
    },
    {
      "inputs": [
        {
          "internalType": "bytes4",
          "name": "interfaceId",
          "type": "bytes4"
        }
      ],
      "name": "supportsInterface",
      "outputs": [
        {
          "internalType": "bool",
          "name": "",
          "type": "bool"
        }
      ],
      "stateMutability": "view",
      "type": "function"
    }
  ],
  "bytecode": "0x60806040523480156200001157600080fd5b50604051620019163803806200191683398101604081905262000034916200032e565b600280546001600160a01b038085166001600160a01b031992831617909255600480549286169290911691909117905580516200007990600390602084019062000288565b506200009060006200008a620000c8565b620000e4565b620000bf7f21d1167972f621f75904fb065136bc8b53c7ba1c60ccd3a7758fbee465851e9c6200008a620000c8565b5050506200049e565b6000620000df6200012760201b620007101760201c565b905090565b620000fb82826200016060201b6200073d1760201c565b6000828152600160209081526040909120620001229183906200074b62000170821b17901c565b505050565b6002546000906001600160a01b03163314156200014b575060131936013560601c90565b620000df6200019060201b620007601760201c565b6200016c828262000194565b5050565b600062000187836001600160a01b03841662000236565b90505b92915050565b3390565b6000828152602081815260408083206001600160a01b038516845290915290205460ff166200016c576000828152602081815260408083206001600160a01b03851684529091529020805460ff19166001179055620001f2620000c8565b6001600160a01b0316816001600160a01b0316837f2f8788117e7eff1d82e926ec794901d17c78024a50270940304540a733656f0d60405160405180910390a45050565b60008181526001830160205260408120546200027f575081546001818101845560008481526020808220909301849055845484825282860190935260409020919091556200018a565b5060006200018a565b828054620002969062000432565b90600052602060002090601f016020900481019282620002ba576000855562000305565b82601f10620002d557805160ff191683800117855562000305565b8280016001018555821562000305579182015b8281111562000305578251825591602001919060010190620002e8565b506200031392915062000317565b5090565b5b8082111562000313576000815560010162000318565b60008060006060848603121562000343578283fd5b8351620003508162000485565b80935050602080850151620003658162000485565b60408601519093506001600160401b038082111562000382578384fd5b818701915087601f83011262000396578384fd5b815181811115620003ab57620003ab6200046f565b604051601f8201601f19908116603f01168101908382118183101715620003d657620003d66200046f565b816040528281528a86848701011115620003ee578687fd5b8693505b82841015620004115784840186015181850187015292850192620003f2565b828411156200042257868684830101525b8096505050505050509250925092565b600181811c908216806200044757607f821691505b602082108114156200046957634e487b7160e01b600052602260045260246000fd5b50919050565b634e487b7160e01b600052604160045260246000fd5b6001600160a01b03811681146200049b57600080fd5b50565b61146880620004ae6000396000f3fe608060405234801561001057600080fd5b50600436106101005760003560e01c8063938e3d7b11610097578063ac9650d811610066578063ac9650d81461027f578063ca15c8731461029f578063d547741f146102b2578063e8a3d485146102c557600080fd5b8063938e3d7b1461021d578063a217fddf14610230578063a853211a14610238578063a9c70eaa1461025f57600080fd5b8063572b6c05116100d3578063572b6c051461018657806361e3c944146101a85780639010d07c146101bb57806391d14854146101e657600080fd5b806301ffc9a714610105578063248a9ca31461012d5780632f2ff15d1461015e57806336568abe14610173575b600080fd5b610118610113366004611127565b6102da565b60405190151581526020015b60405180910390f35b61015061013b3660046110ab565b60009081526020819052604090206001015490565b604051908152602001610124565b61017161016c3660046110db565b610305565b005b6101716101813660046110db565b61032c565b610118610194366004611001565b6002546001600160a01b0391821691161490565b6101716101b6366004611106565b61034e565b6101ce6101c9366004611106565b610393565b6040516001600160a01b039091168152602001610124565b6101186101f43660046110db565b6000918252602082815260408084206001600160a01b0393909316845291905290205460ff1690565b61017161022b36600461114f565b6103b2565b610150600081565b6101507f21d1167972f621f75904fb065136bc8b53c7ba1c60ccd3a7758fbee465851e9c81565b61015061026d3660046110ab565b60009081526005602052604090205490565b61029261028d36600461101b565b61053e565b6040516101249190611273565b6101506102ad3660046110ab565b61065d565b6101716102c03660046110db565b610674565b6102cd61067e565b60405161012491906112d4565b60006001600160e01b03198216635a05180f60e01b14806102ff57506102ff82610764565b92915050565b61030f8282610799565b6000828152600160205260409020610327908261074b565b505050565b61033682826107c1565b60008281526001602052604090206103279082610859565b7f21d1167972f621f75904fb065136bc8b53c7ba1c60ccd3a7758fbee465851e9c6103808161037b61086e565b610878565b5060009182526005602052604090912055565b60008281526001602052604081206103ab90836108f6565b9392505050565b600480546040805163a217fddf60e01b815290516001600160a01b03909216926391d1485492849263a217fddf9281810192602092909190829003018186803b1580156103fe57600080fd5b505afa158015610412573d6000803e3d6000fd5b505050506040513d601f19601f8201168201806040525081019061043691906110c3565b61043e61086e565b6040516001600160e01b031960e085901b16815260048101929092526001600160a01b0316602482015260440160206040518083038186803b15801561048357600080fd5b505afa158015610497573d6000803e3d6000fd5b505050506040513d601f19601f820116820180604052508101906104bb919061108b565b6105325760405162461bcd60e51b815260206004820152603660248201527f526f79616c74793a206f6e6c7920612070726f746f636f6c2061646d696e206360448201527f616e2063616c6c20746869732066756e6374696f6e2e0000000000000000000060648201526084015b60405180910390fd5b61032760038383610f4c565b60608167ffffffffffffffff81111561056757634e487b7160e01b600052604160045260246000fd5b60405190808252806020026020018201604052801561059a57816020015b60608152602001906001900390816105855790505b50905060005b8281101561065657610618308585848181106105cc57634e487b7160e01b600052603260045260246000fd5b90506020028101906105de91906112e7565b8080601f01602080910402602001604051908101604052809392919081815260200183838082843760009201919091525061090292505050565b82828151811061063857634e487b7160e01b600052603260045260246000fd5b6020026020010181905250808061064e90611403565b9150506105a0565b5092915050565b60008181526001602052604081206102ff90610927565b6103368282610931565b60606003805461068d906113c8565b80601f01602080910402602001604051908101604052809291908181526020018280546106b9906113c8565b80156107065780601f106106db57610100808354040283529160200191610706565b820191906000526020600020905b8154815290600101906020018083116106e957829003601f168201915b5050505050905090565b6002546000906001600160a01b0316331415610733575060131936013560601c90565b503390565b905090565b6107478282610959565b5050565b60006103ab836001600160a01b0384166109f8565b3390565b60006001600160e01b03198216637965db0b60e01b14806102ff57506301ffc9a760e01b6001600160e01b03198316146102ff565b6000828152602081905260409020600101546107b78161037b61086e565b6103278383610959565b6107c961086e565b6001600160a01b0316816001600160a01b03161461084f5760405162461bcd60e51b815260206004820152602f60248201527f416363657373436f6e74726f6c3a2063616e206f6e6c792072656e6f756e636560448201527f20726f6c657320666f722073656c6600000000000000000000000000000000006064820152608401610529565b6107478282610a47565b60006103ab836001600160a01b038416610ae4565b6000610738610710565b6000828152602081815260408083206001600160a01b038516845290915290205460ff16610747576108b4816001600160a01b03166014610c01565b6108bf836020610c01565b6040516020016108d09291906111f2565b60408051601f198184030181529082905262461bcd60e51b8252610529916004016112d4565b60006103ab8383610df0565b60606103ab838360405180606001604052806027815260200161143560279139610e28565b60006102ff825490565b60008281526020819052604090206001015461094f8161037b61086e565b6103278383610a47565b6000828152602081815260408083206001600160a01b038516845290915290205460ff16610747576000828152602081815260408083206001600160a01b03851684529091529020805460ff191660011790556109b461086e565b6001600160a01b0316816001600160a01b0316837f2f8788117e7eff1d82e926ec794901d17c78024a50270940304540a733656f0d60405160405180910390a45050565b6000818152600183016020526040812054610a3f575081546001818101845560008481526020808220909301849055845484825282860190935260409020919091556102ff565b5060006102ff565b6000828152602081815260408083206001600160a01b038516845290915290205460ff1615610747576000828152602081815260408083206001600160a01b03851684529091529020805460ff19169055610aa061086e565b6001600160a01b0316816001600160a01b0316837ff6391f5c32d9c69d2a47ea670b442974b53935d1edc7fd64eb21e047a839171b60405160405180910390a45050565b60008181526001830160205260408120548015610bf7576000610b0860018361136a565b8554909150600090610b1c9060019061136a565b9050818114610b9d576000866000018281548110610b4a57634e487b7160e01b600052603260045260246000fd5b9060005260206000200154905080876000018481548110610b7b57634e487b7160e01b600052603260045260246000fd5b6000918252602080832090910192909255918252600188019052604090208390555b8554869080610bbc57634e487b7160e01b600052603160045260246000fd5b6001900381819060005260206000200160009055905585600101600086815260200190815260200160002060009055600193505050506102ff565b60009150506102ff565b60606000610c1083600261134b565b610c1b906002611333565b67ffffffffffffffff811115610c4157634e487b7160e01b600052604160045260246000fd5b6040519080825280601f01601f191660200182016040528015610c6b576020820181803683370190505b509050600360fc1b81600081518110610c9457634e487b7160e01b600052603260045260246000fd5b60200101906001600160f81b031916908160001a905350600f60fb1b81600181518110610cd157634e487b7160e01b600052603260045260246000fd5b60200101906001600160f81b031916908160001a9053506000610cf584600261134b565b610d00906001611333565b90505b6001811115610da1577f303132333435363738396162636465660000000000000000000000000000000085600f1660108110610d4f57634e487b7160e01b600052603260045260246000fd5b1a60f81b828281518110610d7357634e487b7160e01b600052603260045260246000fd5b60200101906001600160f81b031916908160001a90535060049490941c93610d9a816113b1565b9050610d03565b5083156103ab5760405162461bcd60e51b815260206004820181905260248201527f537472696e67733a20686578206c656e67746820696e73756666696369656e746044820152606401610529565b6000826000018281548110610e1557634e487b7160e01b600052603260045260246000fd5b9060005260206000200154905092915050565b6060833b610e9e5760405162461bcd60e51b815260206004820152602660248201527f416464726573733a2064656c65676174652063616c6c20746f206e6f6e2d636f60448201527f6e747261637400000000000000000000000000000000000000000000000000006064820152608401610529565b600080856001600160a01b031685604051610eb991906111d6565b600060405180830381855af49150503d8060008114610ef4576040519150601f19603f3d011682016040523d82523d6000602084013e610ef9565b606091505b5091509150610f09828286610f13565b9695505050505050565b60608315610f225750816103ab565b825115610f325782518084602001fd5b8160405162461bcd60e51b815260040161052991906112d4565b828054610f58906113c8565b90600052602060002090601f016020900481019282610f7a5760008555610fc0565b82601f10610f935782800160ff19823516178555610fc0565b82800160010185558215610fc0579182015b82811115610fc0578235825591602001919060010190610fa5565b50610fcc929150610fd0565b5090565b5b80821115610fcc5760008155600101610fd1565b80356001600160a01b0381168114610ffc57600080fd5b919050565b600060208284031215611012578081fd5b6103ab82610fe5565b6000806020838503121561102d578081fd5b823567ffffffffffffffff80821115611044578283fd5b818501915085601f830112611057578283fd5b813581811115611065578384fd5b8660208260051b8501011115611079578384fd5b60209290920196919550909350505050565b60006020828403121561109c578081fd5b815180151581146103ab578182fd5b6000602082840312156110bc578081fd5b5035919050565b6000602082840312156110d4578081fd5b5051919050565b600080604083850312156110ed578182fd5b823591506110fd60208401610fe5565b90509250929050565b60008060408385031215611118578182fd5b50508035926020909101359150565b600060208284031215611138578081fd5b81356001600160e01b0319811681146103ab578182fd5b60008060208385031215611161578182fd5b823567ffffffffffffffff80821115611178578384fd5b818501915085601f83011261118b578384fd5b813581811115611199578485fd5b866020828501011115611079578485fd5b600081518084526111c2816020860160208601611381565b601f01601f19169290920160200192915050565b600082516111e8818460208701611381565b9190910192915050565b7f416363657373436f6e74726f6c3a206163636f756e742000000000000000000081526000835161122a816017850160208801611381565b7f206973206d697373696e6720726f6c65200000000000000000000000000000006017918401918201528351611267816028840160208801611381565b01602801949350505050565b6000602080830181845280855180835260408601915060408160051b8701019250838701855b828110156112c757603f198886030184526112b58583516111aa565b94509285019290850190600101611299565b5092979650505050505050565b6020815260006103ab60208301846111aa565b6000808335601e198436030181126112fd578283fd5b83018035915067ffffffffffffffff821115611317578283fd5b60200191503681900382131561132c57600080fd5b9250929050565b600082198211156113465761134661141e565b500190565b60008160001904831182151516156113655761136561141e565b500290565b60008282101561137c5761137c61141e565b500390565b60005b8381101561139c578181015183820152602001611384565b838111156113ab576000848401525b50505050565b6000816113c0576113c061141e565b506000190190565b600181811c908216806113dc57607f821691505b602082108114156113fd57634e487b7160e01b600052602260045260246000fd5b50919050565b60006000198214156114175761141761141e565b5060010190565b634e487b7160e01b600052601160045260246000fdfe416464726573733a206c6f772d6c6576656c2064656c65676174652063616c6c206661696c6564a164736f6c6343000804000a",
  "linkReferences": {},
  "deployedLinkReferences": {}
}