{
  "_format": "hh-sol-artifact-1",
  "contractName": "NFTWrapper",
  "sourceName": "contracts/NFTWrapper.sol",
  "abi": [
    {
      "inputs": [],
      "stateMutability": "nonpayable",
      "type": "constructor"
    },
    {
      "anonymous": false,
      "inputs": [
        {
          "indexed": true,
          "internalType": "address",
          "name": "baseToken",
          "type": "address"
        },
        {
          "indexed": true,
          "internalType": "address",
          "name": "redeemer",
          "type": "address"
        },
        {
          "indexed": true,
          "internalType": "address",
          "name": "sourceOfUnderlying",
          "type": "address"
        },
        {
          "indexed": false,
          "internalType": "uint256",
          "name": "tokenId",
          "type": "uint256"
        },
        {
          "indexed": false,
          "internalType": "uint256",
          "name": "tokenAmountReceived",
          "type": "uint256"
        },
        {
          "indexed": false,
          "internalType": "uint256",
          "name": "sharesRedeemed",
          "type": "uint256"
        }
      ],
      "name": "ERC20Redeemed",
      "type": "event"
    },
    {
      "anonymous": false,
      "inputs": [
        {
          "indexed": true,
          "internalType": "address",
          "name": "baseToken",
          "type": "address"
        },
        {
          "indexed": true,
          "internalType": "address",
          "name": "creator",
          "type": "address"
        },
        {
          "indexed": true,
          "internalType": "address",
          "name": "sourceOfUnderlying",
          "type": "address"
        },
        {
          "indexed": false,
          "internalType": "uint256",
          "name": "totalAmountOfUnderlying",
          "type": "uint256"
        },
        {
          "indexed": false,
          "internalType": "uint256",
          "name": "shares",
          "type": "uint256"
        },
        {
          "indexed": false,
          "internalType": "uint256",
          "name": "tokenId",
          "type": "uint256"
        },
        {
          "indexed": false,
          "internalType": "string",
          "name": "tokenURI",
          "type": "string"
        }
      ],
      "name": "ERC20WrappedToken",
      "type": "event"
    },
    {
      "anonymous": false,
      "inputs": [
        {
          "indexed": true,
          "internalType": "address",
          "name": "baseToken",
          "type": "address"
        },
        {
          "indexed": true,
          "internalType": "address",
          "name": "redeemer",
          "type": "address"
        },
        {
          "indexed": true,
          "internalType": "address",
          "name": "sourceOfUnderlying",
          "type": "address"
        },
        {
          "indexed": false,
          "internalType": "uint256",
          "name": "tokenIdOfUnderlying",
          "type": "uint256"
        },
        {
          "indexed": false,
          "internalType": "uint256",
          "name": "tokenId",
          "type": "uint256"
        }
      ],
      "name": "ERC721Redeemed",
      "type": "event"
    },
    {
      "anonymous": false,
      "inputs": [
        {
          "indexed": true,
          "internalType": "address",
          "name": "baseToken",
          "type": "address"
        },
        {
          "indexed": true,
          "internalType": "address",
          "name": "creator",
          "type": "address"
        },
        {
          "indexed": true,
          "internalType": "address",
          "name": "sourceOfUnderlying",
          "type": "address"
        },
        {
          "indexed": false,
          "internalType": "uint256",
          "name": "tokenIdOfUnderlying",
          "type": "uint256"
        },
        {
          "indexed": false,
          "internalType": "uint256",
          "name": "tokenId",
          "type": "uint256"
        },
        {
          "indexed": false,
          "internalType": "string",
          "name": "tokenURI",
          "type": "string"
        }
      ],
      "name": "ERC721WrappedToken",
      "type": "event"
    },
    {
      "inputs": [
        {
          "internalType": "address",
          "name": "",
          "type": "address"
        },
        {
          "internalType": "uint256",
          "name": "",
          "type": "uint256"
        }
      ],
      "name": "erc20WrappedTokens",
      "outputs": [
        {
          "internalType": "address",
          "name": "baseToken",
          "type": "address"
        },
        {
          "internalType": "address",
          "name": "source",
          "type": "address"
        },
        {
          "internalType": "uint256",
          "name": "shares",
          "type": "uint256"
        },
        {
          "internalType": "uint256",
          "name": "underlyingTokenAmount",
          "type": "uint256"
        }
      ],
      "stateMutability": "view",
      "type": "function"
    },
    {
      "inputs": [
        {
          "internalType": "address",
          "name": "",
          "type": "address"
        },
        {
          "internalType": "uint256",
          "name": "",
          "type": "uint256"
        }
      ],
      "name": "erc721WrappedTokens",
      "outputs": [
        {
          "internalType": "address",
          "name": "baseToken",
          "type": "address"
        },
        {
          "internalType": "address",
          "name": "source",
          "type": "address"
        },
        {
          "internalType": "uint256",
          "name": "tokenId",
          "type": "uint256"
        }
      ],
      "stateMutability": "view",
      "type": "function"
    },
    {
      "inputs": [
        {
          "internalType": "address",
          "name": "",
          "type": "address"
        },
        {
          "internalType": "address",
          "name": "",
          "type": "address"
        },
        {
          "internalType": "uint256[]",
          "name": "",
          "type": "uint256[]"
        },
        {
          "internalType": "uint256[]",
          "name": "",
          "type": "uint256[]"
        },
        {
          "internalType": "bytes",
          "name": "",
          "type": "bytes"
        }
      ],
      "name": "onERC1155BatchReceived",
      "outputs": [
        {
          "internalType": "bytes4",
          "name": "",
          "type": "bytes4"
        }
      ],
      "stateMutability": "nonpayable",
      "type": "function"
    },
    {
      "inputs": [
        {
          "internalType": "address",
          "name": "",
          "type": "address"
        },
        {
          "internalType": "address",
          "name": "",
          "type": "address"
        },
        {
          "internalType": "uint256",
          "name": "",
          "type": "uint256"
        },
        {
          "internalType": "uint256",
          "name": "",
          "type": "uint256"
        },
        {
          "internalType": "bytes",
          "name": "",
          "type": "bytes"
        }
      ],
      "name": "onERC1155Received",
      "outputs": [
        {
          "internalType": "bytes4",
          "name": "",
          "type": "bytes4"
        }
      ],
      "stateMutability": "nonpayable",
      "type": "function"
    },
    {
      "inputs": [
        {
          "internalType": "address",
          "name": "",
          "type": "address"
        },
        {
          "internalType": "address",
          "name": "",
          "type": "address"
        },
        {
          "internalType": "uint256",
          "name": "",
          "type": "uint256"
        },
        {
          "internalType": "bytes",
          "name": "",
          "type": "bytes"
        }
      ],
      "name": "onERC721Received",
      "outputs": [
        {
          "internalType": "bytes4",
          "name": "",
          "type": "bytes4"
        }
      ],
      "stateMutability": "nonpayable",
      "type": "function"
    },
    {
      "inputs": [
        {
          "internalType": "uint256",
          "name": "_tokenId",
          "type": "uint256"
        },
        {
          "internalType": "uint256",
          "name": "_amount",
          "type": "uint256"
        },
        {
          "internalType": "address",
          "name": "_redeemer",
          "type": "address"
        }
      ],
      "name": "redeemERC20",
      "outputs": [],
      "stateMutability": "nonpayable",
      "type": "function"
    },
    {
      "inputs": [
        {
          "internalType": "uint256",
          "name": "_tokenId",
          "type": "uint256"
        },
        {
          "internalType": "address",
          "name": "_redeemer",
          "type": "address"
        }
      ],
      "name": "redeemERC721",
      "outputs": [],
      "stateMutability": "nonpayable",
      "type": "function"
    },
    {
      "inputs": [
        {
          "internalType": "bytes4",
          "name": "interfaceId",
          "type": "bytes4"
        }
      ],
      "name": "supportsInterface",
      "outputs": [
        {
          "internalType": "bool",
          "name": "",
          "type": "bool"
        }
      ],
      "stateMutability": "view",
      "type": "function"
    },
    {
      "inputs": [
        {
          "internalType": "uint256",
          "name": "startTokenId",
          "type": "uint256"
        },
        {
          "internalType": "address",
          "name": "_tokenCreator",
          "type": "address"
        },
        {
          "internalType": "address[]",
          "name": "_tokenContracts",
          "type": "address[]"
        },
        {
          "internalType": "uint256[]",
          "name": "_tokenAmounts",
          "type": "uint256[]"
        },
        {
          "internalType": "uint256[]",
          "name": "_numOfNftsToMint",
          "type": "uint256[]"
        },
        {
          "internalType": "string[]",
          "name": "_nftURIs",
          "type": "string[]"
        }
      ],
      "name": "wrapERC20",
      "outputs": [
        {
          "internalType": "uint256[]",
          "name": "tokenIds",
          "type": "uint256[]"
        },
        {
          "internalType": "uint256",
          "name": "endTokenId",
          "type": "uint256"
        }
      ],
      "stateMutability": "nonpayable",
      "type": "function"
    },
    {
      "inputs": [
        {
          "internalType": "uint256",
          "name": "startTokenId",
          "type": "uint256"
        },
        {
          "internalType": "address",
          "name": "_tokenCreator",
          "type": "address"
        },
        {
          "internalType": "address[]",
          "name": "_nftContracts",
          "type": "address[]"
        },
        {
          "internalType": "uint256[]",
          "name": "_tokenIds",
          "type": "uint256[]"
        },
        {
          "internalType": "string[]",
          "name": "_nftURIs",
          "type": "string[]"
        }
      ],
      "name": "wrapERC721",
      "outputs": [
        {
          "internalType": "uint256[]",
          "name": "tokenIds",
          "type": "uint256[]"
        },
        {
          "internalType": "uint256[]",
          "name": "tokenAmountsToMint",
          "type": "uint256[]"
        },
        {
          "internalType": "uint256",
          "name": "endTokenId",
          "type": "uint256"
        }
      ],
      "stateMutability": "nonpayable",
      "type": "function"
    }
  ],
  "bytecode": "0x608060405234801561001057600080fd5b50611d04806100206000396000f3fe608060405234801561001057600080fd5b50600436106100be5760003560e01c8063bc197c8111610076578063e07d31341161005b578063e07d31341461019b578063f23a6e61146101bc578063f93bc78b146101cf576100be565b8063bc197c8114610166578063c1142f6214610179576100be565b80630f26c34d116100a75780630f26c34d1461010e578063150b7a0214610131578063ae4d523614610151576100be565b806301ffc9a7146100c357806308594808146100ec575b600080fd5b6100d66100d13660046115a5565b6101e2565b6040516100e39190611917565b60405180910390f35b6100ff6100fa36600461155a565b61020f565b6040516100e393929190611859565b61012161011c36600461155a565b610245565b6040516100e3949392919061187d565b61014461013f366004611489565b610283565b6040516100e39190611922565b61016461015f3660046115e5565b610293565b005b6101446101743660046113df565b61038d565b61018c610187366004611614565b61039e565b6040516100e3939291906118bf565b6101ae6101a93660046116c1565b610a8f565b6040516100e39291906118f5565b6101446101ca3660046114f3565b6110cc565b6101646101dd36600461178f565b6110dd565b60006001600160e01b03198216630271189760e51b1480610207575061020782611246565b90505b919050565b60006020818152928152604080822090935290815220805460018201546002909201546001600160a01b03918216929091169083565b6001602081815260009384526040808520909152918352912080549181015460028201546003909201546001600160a01b0393841693909116919084565b630a85bd0160e11b949350505050565b336000818152602081815260408083208684529091529081902060018101546002909101549151632142170760e11b81526001600160a01b03909116916342842e0e916102e7913091879190600401611859565b600060405180830381600087803b15801561030157600080fd5b505af1158015610315573d6000803e3d6000fd5b505050506001600160a01b03818116600081815260208181526040808320888452909152908190206001810154600290910154915190841693861692917fa7ce2f6c48d7c98dead87c87dea4d2df6b00ec65dfddd170de01e63a0cb38f909161038091908990611b6e565b60405180910390a4505050565b63bc197c8160e01b95945050505050565b60608060008551888890501480156103b557508684145b6103da5760405162461bcd60e51b81526004016103d190611937565b60405180910390fd5b5088336000808967ffffffffffffffff81111561040757634e487b7160e01b600052604160045260246000fd5b604051908082528060200260200182016040528015610430578160200160208202803683370190505b5095508967ffffffffffffffff81111561045a57634e487b7160e01b600052604160045260246000fd5b604051908082528060200260200182016040528015610483578160200160208202803683370190505b50945060005b8a811015610a44578c6001600160a01b03168c8c838181106104bb57634e487b7160e01b600052603260045260246000fd5b90506020020160208101906104d091906113a0565b6001600160a01b0316636352211e8c84815181106104fe57634e487b7160e01b600052603260045260246000fd5b60200260200101516040518263ffffffff1660e01b81526004016105229190611b65565b60206040518083038186803b15801561053a57600080fd5b505afa15801561054e573d6000803e3d6000fd5b505050506040513d601f19601f8201168201806040525081019061057291906113c3565b6001600160a01b0316149250308c8c8381811061059f57634e487b7160e01b600052603260045260246000fd5b90506020020160208101906105b491906113a0565b6001600160a01b031663081812fc8c84815181106105e257634e487b7160e01b600052603260045260246000fd5b60200260200101516040518263ffffffff1660e01b81526004016106069190611b65565b60206040518083038186803b15801561061e57600080fd5b505afa158015610632573d6000803e3d6000fd5b505050506040513d601f19601f8201168201806040525081019061065691906113c3565b6001600160a01b0316148061071857508b8b8281811061068657634e487b7160e01b600052603260045260246000fd5b905060200201602081019061069b91906113a0565b6001600160a01b031663e985e9c58e306040518363ffffffff1660e01b81526004016106c892919061183f565b60206040518083038186803b1580156106e057600080fd5b505afa1580156106f4573d6000803e3d6000fd5b505050506040513d601f19601f820116820180604052508101906107189190611585565b91508280156107245750815b15610a2d578b8b8281811061074957634e487b7160e01b600052603260045260246000fd5b905060200201602081019061075e91906113a0565b6001600160a01b03166342842e0e8e308d858151811061078e57634e487b7160e01b600052603260045260246000fd5b60200260200101516040518463ffffffff1660e01b81526004016107b493929190611859565b600060405180830381600087803b1580156107ce57600080fd5b505af11580156107e2573d6000803e3d6000fd5b505050506040518060600160405280856001600160a01b031681526020018d8d8481811061082057634e487b7160e01b600052603260045260246000fd5b905060200201602081019061083591906113a0565b6001600160a01b031681526020018b838151811061086357634e487b7160e01b600052603260045260246000fd5b6020908102919091018101519091526001600160a01b03808716600090815280835260408082208a83528452908190208451815490841673ffffffffffffffffffffffffffffffffffffffff1991821617825593850151600182018054919094169416939093179091559190910151600290910155865185908890839081106108fc57634e487b7160e01b600052603260045260246000fd5b602002602001018181525050600186828151811061092a57634e487b7160e01b600052603260045260246000fd5b6020908102919091010152610940600186611c5c565b94508b8b8281811061096257634e487b7160e01b600052603260045260246000fd5b905060200201602081019061097791906113a0565b6001600160a01b03168d6001600160a01b0316856001600160a01b03167fee51c0ebe2ba6b34ff30d6941c27189a047b47b4de7cedba984627d4426ff8358d85815181106109d557634e487b7160e01b600052603260045260246000fd5b6020026020010151898e8e888181106109fe57634e487b7160e01b600052603260045260246000fd5b9050602002810190610a109190611bed565b604051610a209493929190611b7c565b60405180910390a4610a32565b610a44565b610a3d600182611c5c565b9050610489565b5081610a625760405162461bcd60e51b81526004016103d1906119f1565b80610a7f5760405162461bcd60e51b81526004016103d190611aab565b5050509750975097945050505050565b835160609060009087148015610aa55750845187145b8015610ab057508683145b610acc5760405162461bcd60e51b81526004016103d190611937565b5088336000808967ffffffffffffffff811115610af957634e487b7160e01b600052604160045260246000fd5b604051908082528060200260200182016040528015610b22578160200160208202803683370190505b50945060005b8a81101561108157898181518110610b5057634e487b7160e01b600052603260045260246000fd5b60200260200101518c8c83818110610b7857634e487b7160e01b600052603260045260246000fd5b9050602002016020810190610b8d91906113a0565b6001600160a01b03166370a082318f6040518263ffffffff1660e01b8152600401610bb8919061182b565b60206040518083038186803b158015610bd057600080fd5b505afa158015610be4573d6000803e3d6000fd5b505050506040513d601f19601f82011682018060405250810190610c0891906115cd565b10159250898181518110610c2c57634e487b7160e01b600052603260045260246000fd5b60200260200101518c8c83818110610c5457634e487b7160e01b600052603260045260246000fd5b9050602002016020810190610c6991906113a0565b6001600160a01b031663dd62ed3e8f306040518363ffffffff1660e01b8152600401610c9692919061183f565b60206040518083038186803b158015610cae57600080fd5b505afa158015610cc2573d6000803e3d6000fd5b505050506040513d601f19601f82011682018060405250810190610ce691906115cd565b10159150828015610cf45750815b1561106a578b8b82818110610d1957634e487b7160e01b600052603260045260246000fd5b9050602002016020810190610d2e91906113a0565b6001600160a01b03166323b872dd8e308d8581518110610d5e57634e487b7160e01b600052603260045260246000fd5b60200260200101516040518463ffffffff1660e01b8152600401610d8493929190611859565b602060405180830381600087803b158015610d9e57600080fd5b505af1158015610db2573d6000803e3d6000fd5b505050506040513d601f19601f82011682018060405250810190610dd69190611585565b610df25760405162461bcd60e51b81526004016103d190611b08565b6040518060800160405280856001600160a01b031681526020018d8d84818110610e2c57634e487b7160e01b600052603260045260246000fd5b9050602002016020810190610e4191906113a0565b6001600160a01b031681526020018a8381518110610e6f57634e487b7160e01b600052603260045260246000fd5b602002602001015181526020018b8381518110610e9c57634e487b7160e01b600052603260045260246000fd5b6020908102919091018101519091526001600160a01b038087166000908152600180845260408083208b84528552918290208551815490851673ffffffffffffffffffffffffffffffffffffffff19918216178255948601519181018054929094169190941617909155820151600282015560609091015160039091015585518590879083908110610f3e57634e487b7160e01b600052603260045260246000fd5b6020908102919091010152610f54600186611c5c565b94508b8b82818110610f7657634e487b7160e01b600052603260045260246000fd5b9050602002016020810190610f8b91906113a0565b6001600160a01b03168d6001600160a01b0316856001600160a01b03167fbc971b66063e1069efce36a4ddc0079b137249508fc149034f8d8830502471318d8581518110610fe957634e487b7160e01b600052603260045260246000fd5b60200260200101518d868151811061101157634e487b7160e01b600052603260045260246000fd5b60200260200101518a8e8e8981811061103a57634e487b7160e01b600052603260045260246000fd5b905060200281019061104c9190611bed565b60405161105d959493929190611bbc565b60405180910390a461106f565b611081565b61107a600182611c5c565b9050610b28565b508161109f5760405162461bcd60e51b81526004016103d190611a4e565b806110bc5760405162461bcd60e51b81526004016103d190611994565b5050509850989650505050505050565b63f23a6e6160e01b95945050505050565b3360008181526001602090815260408083208784529091528120600281015460039091015461110d908690611c94565b6111179190611c74565b6001600160a01b0380841660009081526001602081815260408084208b8552909152918290200154905163a9059cbb60e01b8152929350169063a9059cbb9061116690869085906004016118a6565b602060405180830381600087803b15801561118057600080fd5b505af1158015611194573d6000803e3d6000fd5b505050506040513d601f19601f820116820180604052508101906111b89190611585565b6111d45760405162461bcd60e51b81526004016103d190611b08565b6001600160a01b0380831660008181526001602081815260408084208b8552909152918290200154905190831692861691907f3cc8ca274d5b361bcc5b3e431354bb0b69a3d7a65883cc4da7a198cd81faf22690611237908a9087908b90611ba6565b60405180910390a45050505050565b6001600160e01b031981166301ffc9a760e01b14919050565b803561020a81611cdf565b60008083601f84011261127b578182fd5b50813567ffffffffffffffff811115611292578182fd5b60208301915083602080830285010111156112ac57600080fd5b9250929050565b600082601f8301126112c3578081fd5b8135602067ffffffffffffffff8211156112df576112df611cc9565b8082026112ed828201611c32565b838152828101908684018388018501891015611307578687fd5b8693505b8584101561132957803583526001939093019291840191840161130b565b50979650505050505050565b600082601f830112611345578081fd5b813567ffffffffffffffff81111561135f5761135f611cc9565b611372601f8201601f1916602001611c32565b818152846020838601011115611386578283fd5b816020850160208301379081016020019190915292915050565b6000602082840312156113b1578081fd5b81356113bc81611cdf565b9392505050565b6000602082840312156113d4578081fd5b81516113bc81611cdf565b600080600080600060a086880312156113f6578081fd5b853561140181611cdf565b9450602086013561141181611cdf565b9350604086013567ffffffffffffffff8082111561142d578283fd5b61143989838a016112b3565b9450606088013591508082111561144e578283fd5b61145a89838a016112b3565b9350608088013591508082111561146f578283fd5b5061147c88828901611335565b9150509295509295909350565b6000806000806080858703121561149e578384fd5b84356114a981611cdf565b935060208501356114b981611cdf565b925060408501359150606085013567ffffffffffffffff8111156114db578182fd5b6114e787828801611335565b91505092959194509250565b600080600080600060a0868803121561150a578081fd5b853561151581611cdf565b9450602086013561152581611cdf565b93506040860135925060608601359150608086013567ffffffffffffffff81111561154e578182fd5b61147c88828901611335565b6000806040838503121561156c578182fd5b823561157781611cdf565b946020939093013593505050565b600060208284031215611596578081fd5b815180151581146113bc578182fd5b6000602082840312156115b6578081fd5b81356001600160e01b0319811681146113bc578182fd5b6000602082840312156115de578081fd5b5051919050565b600080604083850312156115f7578182fd5b82359150602083013561160981611cdf565b809150509250929050565b600080600080600080600060a0888a03121561162e578485fd5b87359650602088013561164081611cdf565b9550604088013567ffffffffffffffff8082111561165c578687fd5b6116688b838c0161126a565b909750955060608a0135915080821115611680578384fd5b61168c8b838c016112b3565b945060808a01359150808211156116a1578384fd5b506116ae8a828b0161126a565b989b979a50959850939692959293505050565b60008060008060008060008060c0898b0312156116dc578182fd5b883597506116ec60208a0161125f565b9650604089013567ffffffffffffffff80821115611708578384fd5b6117148c838d0161126a565b909850965060608b013591508082111561172c578384fd5b6117388c838d016112b3565b955060808b013591508082111561174d578384fd5b6117598c838d016112b3565b945060a08b013591508082111561176e578384fd5b5061177b8b828c0161126a565b999c989b5096995094979396929594505050565b6000806000606084860312156117a3578081fd5b833592506020840135915060408401356117bc81611cdf565b809150509250925092565b6000815180845260208085019450808401835b838110156117f6578151875295820195908201906001016117da565b509495945050505050565b60008284528282602086013780602084860101526020601f19601f85011685010190509392505050565b6001600160a01b0391909116815260200190565b6001600160a01b0392831681529116602082015260400190565b6001600160a01b039384168152919092166020820152604081019190915260600190565b6001600160a01b0394851681529290931660208301526040820152606081019190915260800190565b6001600160a01b03929092168252602082015260400190565b6000606082526118d260608301866117c7565b82810360208401526118e481866117c7565b915050826040830152949350505050565b60006040825261190860408301856117c7565b90508260208301529392505050565b901515815260200190565b6001600160e01b031991909116815260200190565b6020808252602f908201527f4e4654577261707065723a20556e657175616c206e756d626572206f6620636f60408201527f6e666967732070726f76696465642e0000000000000000000000000000000000606082015260800190565b6020808252603a908201527f4e4654577261707065723a204d75737420617070726f7665207468697320636f60408201527f6e747261637420746f207472616e7366657220746f6b656e732e000000000000606082015260800190565b60208082526032908201527f4e4654577261707065723a204f6e6c7920746865206f776e6572206f6620746860408201527f65204e46542063616e20777261702069742e0000000000000000000000000000606082015260800190565b60208082526038908201527f4e4654577261707065723a204d757374206f776e2074686520616d6f756e742060408201527f6f6620746f6b656e73206265696e6720777261707065642e0000000000000000606082015260800190565b6020808252603a908201527f4e4654577261707065723a204d75737420617070726f76652074686520636f6e60408201527f747261637420746f207472616e7366657220746865204e46542e000000000000606082015260800190565b6020808252602c908201527f4e4654577261707065723a204661696c656420746f207472616e73666572204560408201527f5243323020746f6b656e732e0000000000000000000000000000000000000000606082015260800190565b90815260200190565b918252602082015260400190565b600085825284602083015260606040830152611b9c606083018486611801565b9695505050505050565b9283526020830191909152604082015260600190565b600086825285602083015284604083015260806060830152611be2608083018486611801565b979650505050505050565b6000808335601e19843603018112611c03578283fd5b83018035915067ffffffffffffffff821115611c1d578283fd5b6020019150368190038213156112ac57600080fd5b60405181810167ffffffffffffffff81118282101715611c5457611c54611cc9565b604052919050565b60008219821115611c6f57611c6f611cb3565b500190565b600082611c8f57634e487b7160e01b81526012600452602481fd5b500490565b6000816000190483118215151615611cae57611cae611cb3565b500290565b634e487b7160e01b600052601160045260246000fd5b634e487b7160e01b600052604160045260246000fd5b6001600160a01b0381168114611cf457600080fd5b5056fea164736f6c6343000800000a",
  "linkReferences": {},
  "deployedLinkReferences": {}
}