{
  "_format": "hh-sol-artifact-1",
  "contractName": "NFTWrapper",
  "sourceName": "contracts/NFTWrapper.sol",
  "abi": [
    {
      "inputs": [],
      "stateMutability": "nonpayable",
      "type": "constructor"
    },
    {
      "anonymous": false,
      "inputs": [
        {
          "indexed": true,
          "internalType": "address",
          "name": "redeemer",
          "type": "address"
        },
        {
          "indexed": true,
          "internalType": "uint256",
          "name": "tokenId",
          "type": "uint256"
        },
        {
          "indexed": true,
          "internalType": "address",
          "name": "sourceOfUnderlying",
          "type": "address"
        },
        {
          "indexed": false,
          "internalType": "uint256",
          "name": "tokenAmountReceived",
          "type": "uint256"
        },
        {
          "indexed": false,
          "internalType": "uint256",
          "name": "sharesRedeemed",
          "type": "uint256"
        }
      ],
      "name": "ERC20Redeemed",
      "type": "event"
    },
    {
      "anonymous": false,
      "inputs": [
        {
          "indexed": true,
          "internalType": "address",
          "name": "creator",
          "type": "address"
        },
        {
          "indexed": true,
          "internalType": "address",
          "name": "sourceOfUnderlying",
          "type": "address"
        },
        {
          "indexed": false,
          "internalType": "uint256",
          "name": "totalAmountOfUnderlying",
          "type": "uint256"
        },
        {
          "indexed": false,
          "internalType": "uint256",
          "name": "shares",
          "type": "uint256"
        },
        {
          "indexed": false,
          "internalType": "uint256",
          "name": "tokenId",
          "type": "uint256"
        },
        {
          "indexed": false,
          "internalType": "string",
          "name": "tokenURI",
          "type": "string"
        }
      ],
      "name": "ERC20WrappedToken",
      "type": "event"
    },
    {
      "anonymous": false,
      "inputs": [
        {
          "indexed": true,
          "internalType": "address",
          "name": "redeemer",
          "type": "address"
        },
        {
          "indexed": true,
          "internalType": "address",
          "name": "sourceOfUnderlying",
          "type": "address"
        },
        {
          "indexed": false,
          "internalType": "uint256",
          "name": "tokenIdOfUnderlying",
          "type": "uint256"
        },
        {
          "indexed": false,
          "internalType": "uint256",
          "name": "tokenId",
          "type": "uint256"
        }
      ],
      "name": "ERC721Redeemed",
      "type": "event"
    },
    {
      "anonymous": false,
      "inputs": [
        {
          "indexed": true,
          "internalType": "address",
          "name": "creator",
          "type": "address"
        },
        {
          "indexed": true,
          "internalType": "address",
          "name": "sourceOfUnderlying",
          "type": "address"
        },
        {
          "indexed": false,
          "internalType": "uint256",
          "name": "tokenIdOfUnderlying",
          "type": "uint256"
        },
        {
          "indexed": false,
          "internalType": "uint256",
          "name": "tokenId",
          "type": "uint256"
        },
        {
          "indexed": false,
          "internalType": "string",
          "name": "tokenURI",
          "type": "string"
        }
      ],
      "name": "ERC721WrappedToken",
      "type": "event"
    },
    {
      "inputs": [
        {
          "internalType": "address",
          "name": "",
          "type": "address"
        },
        {
          "internalType": "uint256",
          "name": "",
          "type": "uint256"
        }
      ],
      "name": "erc20WrappedTokens",
      "outputs": [
        {
          "internalType": "address",
          "name": "source",
          "type": "address"
        },
        {
          "internalType": "uint256",
          "name": "shares",
          "type": "uint256"
        },
        {
          "internalType": "uint256",
          "name": "underlyingTokenAmount",
          "type": "uint256"
        }
      ],
      "stateMutability": "view",
      "type": "function"
    },
    {
      "inputs": [
        {
          "internalType": "address",
          "name": "",
          "type": "address"
        },
        {
          "internalType": "uint256",
          "name": "",
          "type": "uint256"
        }
      ],
      "name": "erc721WrappedTokens",
      "outputs": [
        {
          "internalType": "address",
          "name": "source",
          "type": "address"
        },
        {
          "internalType": "uint256",
          "name": "tokenId",
          "type": "uint256"
        }
      ],
      "stateMutability": "view",
      "type": "function"
    },
    {
      "inputs": [
        {
          "internalType": "address",
          "name": "",
          "type": "address"
        },
        {
          "internalType": "address",
          "name": "",
          "type": "address"
        },
        {
          "internalType": "uint256[]",
          "name": "",
          "type": "uint256[]"
        },
        {
          "internalType": "uint256[]",
          "name": "",
          "type": "uint256[]"
        },
        {
          "internalType": "bytes",
          "name": "",
          "type": "bytes"
        }
      ],
      "name": "onERC1155BatchReceived",
      "outputs": [
        {
          "internalType": "bytes4",
          "name": "",
          "type": "bytes4"
        }
      ],
      "stateMutability": "nonpayable",
      "type": "function"
    },
    {
      "inputs": [
        {
          "internalType": "address",
          "name": "",
          "type": "address"
        },
        {
          "internalType": "address",
          "name": "",
          "type": "address"
        },
        {
          "internalType": "uint256",
          "name": "",
          "type": "uint256"
        },
        {
          "internalType": "uint256",
          "name": "",
          "type": "uint256"
        },
        {
          "internalType": "bytes",
          "name": "",
          "type": "bytes"
        }
      ],
      "name": "onERC1155Received",
      "outputs": [
        {
          "internalType": "bytes4",
          "name": "",
          "type": "bytes4"
        }
      ],
      "stateMutability": "nonpayable",
      "type": "function"
    },
    {
      "inputs": [
        {
          "internalType": "address",
          "name": "",
          "type": "address"
        },
        {
          "internalType": "address",
          "name": "",
          "type": "address"
        },
        {
          "internalType": "uint256",
          "name": "",
          "type": "uint256"
        },
        {
          "internalType": "bytes",
          "name": "",
          "type": "bytes"
        }
      ],
      "name": "onERC721Received",
      "outputs": [
        {
          "internalType": "bytes4",
          "name": "",
          "type": "bytes4"
        }
      ],
      "stateMutability": "nonpayable",
      "type": "function"
    },
    {
      "inputs": [
        {
          "internalType": "uint256",
          "name": "_tokenId",
          "type": "uint256"
        },
        {
          "internalType": "uint256",
          "name": "_amount",
          "type": "uint256"
        },
        {
          "internalType": "address",
          "name": "_redeemer",
          "type": "address"
        }
      ],
      "name": "redeemERC20",
      "outputs": [],
      "stateMutability": "nonpayable",
      "type": "function"
    },
    {
      "inputs": [
        {
          "internalType": "uint256",
          "name": "_tokenId",
          "type": "uint256"
        },
        {
          "internalType": "address",
          "name": "_redeemer",
          "type": "address"
        }
      ],
      "name": "redeemERC721",
      "outputs": [],
      "stateMutability": "nonpayable",
      "type": "function"
    },
    {
      "inputs": [
        {
          "internalType": "bytes4",
          "name": "interfaceId",
          "type": "bytes4"
        }
      ],
      "name": "supportsInterface",
      "outputs": [
        {
          "internalType": "bool",
          "name": "",
          "type": "bool"
        }
      ],
      "stateMutability": "view",
      "type": "function"
    },
    {
      "inputs": [
        {
          "internalType": "uint256",
          "name": "startTokenId",
          "type": "uint256"
        },
        {
          "internalType": "address",
          "name": "_tokenCreator",
          "type": "address"
        },
        {
          "internalType": "address[]",
          "name": "_tokenContracts",
          "type": "address[]"
        },
        {
          "internalType": "uint256[]",
          "name": "_tokenAmounts",
          "type": "uint256[]"
        },
        {
          "internalType": "uint256[]",
          "name": "_numOfNftsToMint",
          "type": "uint256[]"
        },
        {
          "internalType": "string[]",
          "name": "_nftURIs",
          "type": "string[]"
        }
      ],
      "name": "wrapERC20",
      "outputs": [
        {
          "internalType": "uint256[]",
          "name": "tokenIds",
          "type": "uint256[]"
        },
        {
          "internalType": "uint256",
          "name": "endTokenId",
          "type": "uint256"
        }
      ],
      "stateMutability": "nonpayable",
      "type": "function"
    },
    {
      "inputs": [
        {
          "internalType": "uint256",
          "name": "startTokenId",
          "type": "uint256"
        },
        {
          "internalType": "address",
          "name": "_tokenCreator",
          "type": "address"
        },
        {
          "internalType": "address[]",
          "name": "_nftContracts",
          "type": "address[]"
        },
        {
          "internalType": "uint256[]",
          "name": "_tokenIds",
          "type": "uint256[]"
        },
        {
          "internalType": "string[]",
          "name": "_nftURIs",
          "type": "string[]"
        }
      ],
      "name": "wrapERC721",
      "outputs": [
        {
          "internalType": "uint256[]",
          "name": "tokenIds",
          "type": "uint256[]"
        },
        {
          "internalType": "uint256[]",
          "name": "tokenAmountsToMint",
          "type": "uint256[]"
        },
        {
          "internalType": "uint256",
          "name": "endTokenId",
          "type": "uint256"
        }
      ],
      "stateMutability": "nonpayable",
      "type": "function"
    }
  ],
  "bytecode": "0x608060405234801561001057600080fd5b50611c65806100206000396000f3fe608060405234801561001057600080fd5b50600436106100be5760003560e01c8063bc197c8111610076578063e07d31341161005b578063e07d313414610199578063f23a6e61146101ba578063f93bc78b146101cd576100be565b8063bc197c8114610164578063c1142f6214610177576100be565b80630f26c34d116100a75780630f26c34d1461010d578063150b7a021461012f578063ae4d52361461014f576100be565b806301ffc9a7146100c357806308594808146100ec575b600080fd5b6100d66100d1366004611524565b6101e0565b6040516100e3919061188e565b60405180910390f35b6100ff6100fa3660046114d9565b61020d565b6040516100e39291906117fc565b61012061011b3660046114d9565b61023a565b6040516100e393929190611815565b61014261013d366004611408565b61026e565b6040516100e39190611899565b61016261015d366004611564565b61027e565b005b61014261017236600461135e565b610371565b61018a610185366004611593565b610382565b6040516100e393929190611836565b6101ac6101a7366004611640565b610a3f565b6040516100e392919061186c565b6101426101c8366004611472565b61104e565b6101626101db36600461170e565b61105f565b60006001600160e01b03198216630271189760e51b14806102055750610205826111c5565b90505b919050565b6000602081815292815260408082209093529081522080546001909101546001600160a01b039091169082565b600160208181526000938452604080852090915291835291208054918101546002909101546001600160a01b039092169183565b630a85bd0160e11b949350505050565b336000818152602081815260408083208684529091529081902080546001909101549151632142170760e11b81526001600160a01b03909116916342842e0e916102cf9130918791906004016117d8565b600060405180830381600087803b1580156102e957600080fd5b505af11580156102fd573d6000803e3d6000fd5b505050506001600160a01b038181166000908152602081815260408083208784529091529081902080546001909101549151908316928516917fea7b88a04220a2292e142652e8e1a59cc00e7d27d8ad6b11da6cf5870e6ba8669161036491908890611ae5565b60405180910390a3505050565b63bc197c8160e01b95945050505050565b606080600085518888905014801561039957508684145b6103be5760405162461bcd60e51b81526004016103b5906118ae565b60405180910390fd5b5088336000808967ffffffffffffffff8111156103eb57634e487b7160e01b600052604160045260246000fd5b604051908082528060200260200182016040528015610414578160200160208202803683370190505b5095508967ffffffffffffffff81111561043e57634e487b7160e01b600052604160045260246000fd5b604051908082528060200260200182016040528015610467578160200160208202803683370190505b50945060005b8a8110156109f4578c6001600160a01b03168c8c8381811061049f57634e487b7160e01b600052603260045260246000fd5b90506020020160208101906104b4919061131f565b6001600160a01b0316636352211e8c84815181106104e257634e487b7160e01b600052603260045260246000fd5b60200260200101516040518263ffffffff1660e01b81526004016105069190611adc565b60206040518083038186803b15801561051e57600080fd5b505afa158015610532573d6000803e3d6000fd5b505050506040513d601f19601f820116820180604052508101906105569190611342565b6001600160a01b0316149250308c8c8381811061058357634e487b7160e01b600052603260045260246000fd5b9050602002016020810190610598919061131f565b6001600160a01b031663081812fc8c84815181106105c657634e487b7160e01b600052603260045260246000fd5b60200260200101516040518263ffffffff1660e01b81526004016105ea9190611adc565b60206040518083038186803b15801561060257600080fd5b505afa158015610616573d6000803e3d6000fd5b505050506040513d601f19601f8201168201806040525081019061063a9190611342565b6001600160a01b031614806106fc57508b8b8281811061066a57634e487b7160e01b600052603260045260246000fd5b905060200201602081019061067f919061131f565b6001600160a01b031663e985e9c58e306040518363ffffffff1660e01b81526004016106ac9291906117be565b60206040518083038186803b1580156106c457600080fd5b505afa1580156106d8573d6000803e3d6000fd5b505050506040513d601f19601f820116820180604052508101906106fc9190611504565b91508280156107085750815b156109dd578b8b8281811061072d57634e487b7160e01b600052603260045260246000fd5b9050602002016020810190610742919061131f565b6001600160a01b03166342842e0e8e308d858151811061077257634e487b7160e01b600052603260045260246000fd5b60200260200101516040518463ffffffff1660e01b8152600401610798939291906117d8565b600060405180830381600087803b1580156107b257600080fd5b505af11580156107c6573d6000803e3d6000fd5b5050505060405180604001604052808d8d848181106107f557634e487b7160e01b600052603260045260246000fd5b905060200201602081019061080a919061131f565b6001600160a01b031681526020018b838151811061083857634e487b7160e01b600052603260045260246000fd5b6020908102919091018101519091526001600160a01b03868116600090815280835260408082208a8352845290208351815473ffffffffffffffffffffffffffffffffffffffff19169216919091178155910151600190910155865185908890839081106108b657634e487b7160e01b600052603260045260246000fd5b60200260200101818152505060018682815181106108e457634e487b7160e01b600052603260045260246000fd5b60209081029190910101526108fa600186611bbd565b94508b8b8281811061091c57634e487b7160e01b600052603260045260246000fd5b9050602002016020810190610931919061131f565b6001600160a01b03168d6001600160a01b03167f797091bed1dcc535a592c3da1115fdb7467204ef9fb70943f0fc855ebe0a30f58c848151811061098557634e487b7160e01b600052603260045260246000fd5b6020026020010151888d8d878181106109ae57634e487b7160e01b600052603260045260246000fd5b90506020028101906109c09190611b4e565b6040516109d09493929190611af3565b60405180910390a36109e2565b6109f4565b6109ed600182611bbd565b905061046d565b5081610a125760405162461bcd60e51b81526004016103b590611968565b80610a2f5760405162461bcd60e51b81526004016103b590611a22565b5050509750975097945050505050565b835160609060009087148015610a555750845187145b8015610a6057508683145b610a7c5760405162461bcd60e51b81526004016103b5906118ae565b5088336000808967ffffffffffffffff811115610aa957634e487b7160e01b600052604160045260246000fd5b604051908082528060200260200182016040528015610ad2578160200160208202803683370190505b50945060005b8a81101561100357898181518110610b0057634e487b7160e01b600052603260045260246000fd5b60200260200101518c8c83818110610b2857634e487b7160e01b600052603260045260246000fd5b9050602002016020810190610b3d919061131f565b6001600160a01b03166370a082318f6040518263ffffffff1660e01b8152600401610b6891906117aa565b60206040518083038186803b158015610b8057600080fd5b505afa158015610b94573d6000803e3d6000fd5b505050506040513d601f19601f82011682018060405250810190610bb8919061154c565b10159250898181518110610bdc57634e487b7160e01b600052603260045260246000fd5b60200260200101518c8c83818110610c0457634e487b7160e01b600052603260045260246000fd5b9050602002016020810190610c19919061131f565b6001600160a01b031663dd62ed3e8f306040518363ffffffff1660e01b8152600401610c469291906117be565b60206040518083038186803b158015610c5e57600080fd5b505afa158015610c72573d6000803e3d6000fd5b505050506040513d601f19601f82011682018060405250810190610c96919061154c565b10159150828015610ca45750815b15610fec578b8b82818110610cc957634e487b7160e01b600052603260045260246000fd5b9050602002016020810190610cde919061131f565b6001600160a01b03166323b872dd8e308d8581518110610d0e57634e487b7160e01b600052603260045260246000fd5b60200260200101516040518463ffffffff1660e01b8152600401610d34939291906117d8565b602060405180830381600087803b158015610d4e57600080fd5b505af1158015610d62573d6000803e3d6000fd5b505050506040513d601f19601f82011682018060405250810190610d869190611504565b610da25760405162461bcd60e51b81526004016103b590611a7f565b60405180606001604052808d8d84818110610dcd57634e487b7160e01b600052603260045260246000fd5b9050602002016020810190610de2919061131f565b6001600160a01b031681526020018a8381518110610e1057634e487b7160e01b600052603260045260246000fd5b602002602001015181526020018b8381518110610e3d57634e487b7160e01b600052603260045260246000fd5b6020908102919091018101519091526001600160a01b038681166000908152600180845260408083208b84528552918290208551815473ffffffffffffffffffffffffffffffffffffffff19169416939093178355928401519282019290925591015160029091015585518590879083908110610eca57634e487b7160e01b600052603260045260246000fd5b6020908102919091010152610ee0600186611bbd565b94508b8b82818110610f0257634e487b7160e01b600052603260045260246000fd5b9050602002016020810190610f17919061131f565b6001600160a01b03168d6001600160a01b03167f53af9a53d4a11cb382035aa13d6d8e24575569953176d87464ba37e7013a6aa48c8481518110610f6b57634e487b7160e01b600052603260045260246000fd5b60200260200101518c8581518110610f9357634e487b7160e01b600052603260045260246000fd5b6020026020010151898d8d88818110610fbc57634e487b7160e01b600052603260045260246000fd5b9050602002810190610fce9190611b4e565b604051610fdf959493929190611b1d565b60405180910390a3610ff1565b611003565b610ffc600182611bbd565b9050610ad8565b50816110215760405162461bcd60e51b81526004016103b5906119c5565b8061103e5760405162461bcd60e51b81526004016103b59061190b565b5050509850989650505050505050565b63f23a6e6160e01b95945050505050565b33600081815260016020818152604080842088855290915282209081015460029091015461108e908690611bf5565b6110989190611bd5565b6001600160a01b0380841660009081526001602090815260408083208a84529091529081902054905163a9059cbb60e01b8152929350169063a9059cbb906110e690869085906004016117fc565b602060405180830381600087803b15801561110057600080fd5b505af1158015611114573d6000803e3d6000fd5b505050506040513d601f19601f820116820180604052508101906111389190611504565b6111545760405162461bcd60e51b81526004016103b590611a7f565b6001600160a01b03808316600090815260016020908152604080832089845290915290819020549051908216918791908616907fb80333a30b48beb3745280a5e4bb1b8e53f79569e454ec99ba13678dfbe728eb906111b69086908a90611ae5565b60405180910390a45050505050565b6001600160e01b031981166301ffc9a760e01b14919050565b803561020881611c40565b60008083601f8401126111fa578182fd5b50813567ffffffffffffffff811115611211578182fd5b602083019150836020808302850101111561122b57600080fd5b9250929050565b600082601f830112611242578081fd5b8135602067ffffffffffffffff82111561125e5761125e611c2a565b80820261126c828201611b93565b838152828101908684018388018501891015611286578687fd5b8693505b858410156112a857803583526001939093019291840191840161128a565b50979650505050505050565b600082601f8301126112c4578081fd5b813567ffffffffffffffff8111156112de576112de611c2a565b6112f1601f8201601f1916602001611b93565b818152846020838601011115611305578283fd5b816020850160208301379081016020019190915292915050565b600060208284031215611330578081fd5b813561133b81611c40565b9392505050565b600060208284031215611353578081fd5b815161133b81611c40565b600080600080600060a08688031215611375578081fd5b853561138081611c40565b9450602086013561139081611c40565b9350604086013567ffffffffffffffff808211156113ac578283fd5b6113b889838a01611232565b945060608801359150808211156113cd578283fd5b6113d989838a01611232565b935060808801359150808211156113ee578283fd5b506113fb888289016112b4565b9150509295509295909350565b6000806000806080858703121561141d578384fd5b843561142881611c40565b9350602085013561143881611c40565b925060408501359150606085013567ffffffffffffffff81111561145a578182fd5b611466878288016112b4565b91505092959194509250565b600080600080600060a08688031215611489578081fd5b853561149481611c40565b945060208601356114a481611c40565b93506040860135925060608601359150608086013567ffffffffffffffff8111156114cd578182fd5b6113fb888289016112b4565b600080604083850312156114eb578182fd5b82356114f681611c40565b946020939093013593505050565b600060208284031215611515578081fd5b8151801515811461133b578182fd5b600060208284031215611535578081fd5b81356001600160e01b03198116811461133b578182fd5b60006020828403121561155d578081fd5b5051919050565b60008060408385031215611576578182fd5b82359150602083013561158881611c40565b809150509250929050565b600080600080600080600060a0888a0312156115ad578485fd5b8735965060208801356115bf81611c40565b9550604088013567ffffffffffffffff808211156115db578687fd5b6115e78b838c016111e9565b909750955060608a01359150808211156115ff578384fd5b61160b8b838c01611232565b945060808a0135915080821115611620578384fd5b5061162d8a828b016111e9565b989b979a50959850939692959293505050565b60008060008060008060008060c0898b03121561165b578182fd5b8835975061166b60208a016111de565b9650604089013567ffffffffffffffff80821115611687578384fd5b6116938c838d016111e9565b909850965060608b01359150808211156116ab578384fd5b6116b78c838d01611232565b955060808b01359150808211156116cc578384fd5b6116d88c838d01611232565b945060a08b01359150808211156116ed578384fd5b506116fa8b828c016111e9565b999c989b5096995094979396929594505050565b600080600060608486031215611722578081fd5b8335925060208401359150604084013561173b81611c40565b809150509250925092565b6000815180845260208085019450808401835b8381101561177557815187529582019590820190600101611759565b509495945050505050565b60008284528282602086013780602084860101526020601f19601f85011685010190509392505050565b6001600160a01b0391909116815260200190565b6001600160a01b0392831681529116602082015260400190565b6001600160a01b039384168152919092166020820152604081019190915260600190565b6001600160a01b03929092168252602082015260400190565b6001600160a01b039390931683526020830191909152604082015260600190565b6000606082526118496060830186611746565b828103602084015261185b8186611746565b915050826040830152949350505050565b60006040825261187f6040830185611746565b90508260208301529392505050565b901515815260200190565b6001600160e01b031991909116815260200190565b6020808252602f908201527f4e4654577261707065723a20556e657175616c206e756d626572206f6620636f60408201527f6e666967732070726f76696465642e0000000000000000000000000000000000606082015260800190565b6020808252603a908201527f4e4654577261707065723a204d75737420617070726f7665207468697320636f60408201527f6e747261637420746f207472616e7366657220746f6b656e732e000000000000606082015260800190565b60208082526032908201527f4e4654577261707065723a204f6e6c7920746865206f776e6572206f6620746860408201527f65204e46542063616e20777261702069742e0000000000000000000000000000606082015260800190565b60208082526038908201527f4e4654577261707065723a204d757374206f776e2074686520616d6f756e742060408201527f6f6620746f6b656e73206265696e6720777261707065642e0000000000000000606082015260800190565b6020808252603a908201527f4e4654577261707065723a204d75737420617070726f76652074686520636f6e60408201527f747261637420746f207472616e7366657220746865204e46542e000000000000606082015260800190565b6020808252602c908201527f4e4654577261707065723a204661696c656420746f207472616e73666572204560408201527f5243323020746f6b656e732e0000000000000000000000000000000000000000606082015260800190565b90815260200190565b918252602082015260400190565b600085825284602083015260606040830152611b13606083018486611780565b9695505050505050565b600086825285602083015284604083015260806060830152611b43608083018486611780565b979650505050505050565b6000808335601e19843603018112611b64578283fd5b83018035915067ffffffffffffffff821115611b7e578283fd5b60200191503681900382131561122b57600080fd5b60405181810167ffffffffffffffff81118282101715611bb557611bb5611c2a565b604052919050565b60008219821115611bd057611bd0611c14565b500190565b600082611bf057634e487b7160e01b81526012600452602481fd5b500490565b6000816000190483118215151615611c0f57611c0f611c14565b500290565b634e487b7160e01b600052601160045260246000fd5b634e487b7160e01b600052604160045260246000fd5b6001600160a01b0381168114611c5557600080fd5b5056fea164736f6c6343000800000a",
  "linkReferences": {},
  "deployedLinkReferences": {}
}