{
  "_format": "hh-sol-artifact-1",
  "contractName": "MockERC1155Royalty",
  "sourceName": "contracts/mock/MockERC1155Royalty.sol",
  "abi": [
    {
      "inputs": [
        {
          "internalType": "address payable",
          "name": "_controlCenter",
          "type": "address"
        }
      ],
      "stateMutability": "nonpayable",
      "type": "constructor"
    },
    {
      "anonymous": false,
      "inputs": [
        {
          "indexed": true,
          "internalType": "address",
          "name": "account",
          "type": "address"
        },
        {
          "indexed": true,
          "internalType": "address",
          "name": "operator",
          "type": "address"
        },
        {
          "indexed": false,
          "internalType": "bool",
          "name": "approved",
          "type": "bool"
        }
      ],
      "name": "ApprovalForAll",
      "type": "event"
    },
    {
      "anonymous": false,
      "inputs": [
        {
          "indexed": false,
          "internalType": "address",
          "name": "account",
          "type": "address"
        }
      ],
      "name": "Paused",
      "type": "event"
    },
    {
      "anonymous": false,
      "inputs": [
        {
          "indexed": true,
          "internalType": "bytes32",
          "name": "role",
          "type": "bytes32"
        },
        {
          "indexed": true,
          "internalType": "bytes32",
          "name": "previousAdminRole",
          "type": "bytes32"
        },
        {
          "indexed": true,
          "internalType": "bytes32",
          "name": "newAdminRole",
          "type": "bytes32"
        }
      ],
      "name": "RoleAdminChanged",
      "type": "event"
    },
    {
      "anonymous": false,
      "inputs": [
        {
          "indexed": true,
          "internalType": "bytes32",
          "name": "role",
          "type": "bytes32"
        },
        {
          "indexed": true,
          "internalType": "address",
          "name": "account",
          "type": "address"
        },
        {
          "indexed": true,
          "internalType": "address",
          "name": "sender",
          "type": "address"
        }
      ],
      "name": "RoleGranted",
      "type": "event"
    },
    {
      "anonymous": false,
      "inputs": [
        {
          "indexed": true,
          "internalType": "bytes32",
          "name": "role",
          "type": "bytes32"
        },
        {
          "indexed": true,
          "internalType": "address",
          "name": "account",
          "type": "address"
        },
        {
          "indexed": true,
          "internalType": "address",
          "name": "sender",
          "type": "address"
        }
      ],
      "name": "RoleRevoked",
      "type": "event"
    },
    {
      "anonymous": false,
      "inputs": [
        {
          "indexed": false,
          "internalType": "uint256",
          "name": "royaltyBps",
          "type": "uint256"
        }
      ],
      "name": "RoyaltyUpdated",
      "type": "event"
    },
    {
      "anonymous": false,
      "inputs": [
        {
          "indexed": true,
          "internalType": "address",
          "name": "operator",
          "type": "address"
        },
        {
          "indexed": true,
          "internalType": "address",
          "name": "from",
          "type": "address"
        },
        {
          "indexed": true,
          "internalType": "address",
          "name": "to",
          "type": "address"
        },
        {
          "indexed": false,
          "internalType": "uint256[]",
          "name": "ids",
          "type": "uint256[]"
        },
        {
          "indexed": false,
          "internalType": "uint256[]",
          "name": "values",
          "type": "uint256[]"
        }
      ],
      "name": "TransferBatch",
      "type": "event"
    },
    {
      "anonymous": false,
      "inputs": [
        {
          "indexed": true,
          "internalType": "address",
          "name": "operator",
          "type": "address"
        },
        {
          "indexed": true,
          "internalType": "address",
          "name": "from",
          "type": "address"
        },
        {
          "indexed": true,
          "internalType": "address",
          "name": "to",
          "type": "address"
        },
        {
          "indexed": false,
          "internalType": "uint256",
          "name": "id",
          "type": "uint256"
        },
        {
          "indexed": false,
          "internalType": "uint256",
          "name": "value",
          "type": "uint256"
        }
      ],
      "name": "TransferSingle",
      "type": "event"
    },
    {
      "anonymous": false,
      "inputs": [
        {
          "indexed": false,
          "internalType": "string",
          "name": "value",
          "type": "string"
        },
        {
          "indexed": true,
          "internalType": "uint256",
          "name": "id",
          "type": "uint256"
        }
      ],
      "name": "URI",
      "type": "event"
    },
    {
      "anonymous": false,
      "inputs": [
        {
          "indexed": false,
          "internalType": "address",
          "name": "account",
          "type": "address"
        }
      ],
      "name": "Unpaused",
      "type": "event"
    },
    {
      "inputs": [],
      "name": "DEFAULT_ADMIN_ROLE",
      "outputs": [
        {
          "internalType": "bytes32",
          "name": "",
          "type": "bytes32"
        }
      ],
      "stateMutability": "view",
      "type": "function"
    },
    {
      "inputs": [],
      "name": "MINTER_ROLE",
      "outputs": [
        {
          "internalType": "bytes32",
          "name": "",
          "type": "bytes32"
        }
      ],
      "stateMutability": "view",
      "type": "function"
    },
    {
      "inputs": [],
      "name": "PAUSER_ROLE",
      "outputs": [
        {
          "internalType": "bytes32",
          "name": "",
          "type": "bytes32"
        }
      ],
      "stateMutability": "view",
      "type": "function"
    },
    {
      "inputs": [
        {
          "internalType": "address",
          "name": "account",
          "type": "address"
        },
        {
          "internalType": "uint256",
          "name": "id",
          "type": "uint256"
        }
      ],
      "name": "balanceOf",
      "outputs": [
        {
          "internalType": "uint256",
          "name": "",
          "type": "uint256"
        }
      ],
      "stateMutability": "view",
      "type": "function"
    },
    {
      "inputs": [
        {
          "internalType": "address[]",
          "name": "accounts",
          "type": "address[]"
        },
        {
          "internalType": "uint256[]",
          "name": "ids",
          "type": "uint256[]"
        }
      ],
      "name": "balanceOfBatch",
      "outputs": [
        {
          "internalType": "uint256[]",
          "name": "",
          "type": "uint256[]"
        }
      ],
      "stateMutability": "view",
      "type": "function"
    },
    {
      "inputs": [
        {
          "internalType": "address",
          "name": "account",
          "type": "address"
        },
        {
          "internalType": "uint256",
          "name": "id",
          "type": "uint256"
        },
        {
          "internalType": "uint256",
          "name": "value",
          "type": "uint256"
        }
      ],
      "name": "burn",
      "outputs": [],
      "stateMutability": "nonpayable",
      "type": "function"
    },
    {
      "inputs": [
        {
          "internalType": "address",
          "name": "account",
          "type": "address"
        },
        {
          "internalType": "uint256[]",
          "name": "ids",
          "type": "uint256[]"
        },
        {
          "internalType": "uint256[]",
          "name": "values",
          "type": "uint256[]"
        }
      ],
      "name": "burnBatch",
      "outputs": [],
      "stateMutability": "nonpayable",
      "type": "function"
    },
    {
      "inputs": [
        {
          "internalType": "bytes32",
          "name": "role",
          "type": "bytes32"
        }
      ],
      "name": "getRoleAdmin",
      "outputs": [
        {
          "internalType": "bytes32",
          "name": "",
          "type": "bytes32"
        }
      ],
      "stateMutability": "view",
      "type": "function"
    },
    {
      "inputs": [
        {
          "internalType": "bytes32",
          "name": "role",
          "type": "bytes32"
        },
        {
          "internalType": "uint256",
          "name": "index",
          "type": "uint256"
        }
      ],
      "name": "getRoleMember",
      "outputs": [
        {
          "internalType": "address",
          "name": "",
          "type": "address"
        }
      ],
      "stateMutability": "view",
      "type": "function"
    },
    {
      "inputs": [
        {
          "internalType": "bytes32",
          "name": "role",
          "type": "bytes32"
        }
      ],
      "name": "getRoleMemberCount",
      "outputs": [
        {
          "internalType": "uint256",
          "name": "",
          "type": "uint256"
        }
      ],
      "stateMutability": "view",
      "type": "function"
    },
    {
      "inputs": [
        {
          "internalType": "bytes32",
          "name": "role",
          "type": "bytes32"
        },
        {
          "internalType": "address",
          "name": "account",
          "type": "address"
        }
      ],
      "name": "grantRole",
      "outputs": [],
      "stateMutability": "nonpayable",
      "type": "function"
    },
    {
      "inputs": [
        {
          "internalType": "bytes32",
          "name": "role",
          "type": "bytes32"
        },
        {
          "internalType": "address",
          "name": "account",
          "type": "address"
        }
      ],
      "name": "hasRole",
      "outputs": [
        {
          "internalType": "bool",
          "name": "",
          "type": "bool"
        }
      ],
      "stateMutability": "view",
      "type": "function"
    },
    {
      "inputs": [
        {
          "internalType": "address",
          "name": "account",
          "type": "address"
        },
        {
          "internalType": "address",
          "name": "operator",
          "type": "address"
        }
      ],
      "name": "isApprovedForAll",
      "outputs": [
        {
          "internalType": "bool",
          "name": "",
          "type": "bool"
        }
      ],
      "stateMutability": "view",
      "type": "function"
    },
    {
      "inputs": [
        {
          "internalType": "address",
          "name": "to",
          "type": "address"
        },
        {
          "internalType": "uint256",
          "name": "id",
          "type": "uint256"
        },
        {
          "internalType": "uint256",
          "name": "amount",
          "type": "uint256"
        },
        {
          "internalType": "bytes",
          "name": "data",
          "type": "bytes"
        }
      ],
      "name": "mint",
      "outputs": [],
      "stateMutability": "nonpayable",
      "type": "function"
    },
    {
      "inputs": [
        {
          "internalType": "address",
          "name": "to",
          "type": "address"
        },
        {
          "internalType": "uint256[]",
          "name": "ids",
          "type": "uint256[]"
        },
        {
          "internalType": "uint256[]",
          "name": "amounts",
          "type": "uint256[]"
        },
        {
          "internalType": "bytes",
          "name": "data",
          "type": "bytes"
        }
      ],
      "name": "mintBatch",
      "outputs": [],
      "stateMutability": "nonpayable",
      "type": "function"
    },
    {
      "inputs": [],
      "name": "pause",
      "outputs": [],
      "stateMutability": "nonpayable",
      "type": "function"
    },
    {
      "inputs": [],
      "name": "paused",
      "outputs": [
        {
          "internalType": "bool",
          "name": "",
          "type": "bool"
        }
      ],
      "stateMutability": "view",
      "type": "function"
    },
    {
      "inputs": [
        {
          "internalType": "bytes32",
          "name": "role",
          "type": "bytes32"
        },
        {
          "internalType": "address",
          "name": "account",
          "type": "address"
        }
      ],
      "name": "renounceRole",
      "outputs": [],
      "stateMutability": "nonpayable",
      "type": "function"
    },
    {
      "inputs": [
        {
          "internalType": "bytes32",
          "name": "role",
          "type": "bytes32"
        },
        {
          "internalType": "address",
          "name": "account",
          "type": "address"
        }
      ],
      "name": "revokeRole",
      "outputs": [],
      "stateMutability": "nonpayable",
      "type": "function"
    },
    {
      "inputs": [],
      "name": "royaltyBps",
      "outputs": [
        {
          "internalType": "uint256",
          "name": "",
          "type": "uint256"
        }
      ],
      "stateMutability": "view",
      "type": "function"
    },
    {
      "inputs": [
        {
          "internalType": "uint256",
          "name": "",
          "type": "uint256"
        },
        {
          "internalType": "uint256",
          "name": "salePrice",
          "type": "uint256"
        }
      ],
      "name": "royaltyInfo",
      "outputs": [
        {
          "internalType": "address",
          "name": "receiver",
          "type": "address"
        },
        {
          "internalType": "uint256",
          "name": "royaltyAmount",
          "type": "uint256"
        }
      ],
      "stateMutability": "view",
      "type": "function"
    },
    {
      "inputs": [
        {
          "internalType": "address",
          "name": "from",
          "type": "address"
        },
        {
          "internalType": "address",
          "name": "to",
          "type": "address"
        },
        {
          "internalType": "uint256[]",
          "name": "ids",
          "type": "uint256[]"
        },
        {
          "internalType": "uint256[]",
          "name": "amounts",
          "type": "uint256[]"
        },
        {
          "internalType": "bytes",
          "name": "data",
          "type": "bytes"
        }
      ],
      "name": "safeBatchTransferFrom",
      "outputs": [],
      "stateMutability": "nonpayable",
      "type": "function"
    },
    {
      "inputs": [
        {
          "internalType": "address",
          "name": "from",
          "type": "address"
        },
        {
          "internalType": "address",
          "name": "to",
          "type": "address"
        },
        {
          "internalType": "uint256",
          "name": "id",
          "type": "uint256"
        },
        {
          "internalType": "uint256",
          "name": "amount",
          "type": "uint256"
        },
        {
          "internalType": "bytes",
          "name": "data",
          "type": "bytes"
        }
      ],
      "name": "safeTransferFrom",
      "outputs": [],
      "stateMutability": "nonpayable",
      "type": "function"
    },
    {
      "inputs": [
        {
          "internalType": "address",
          "name": "operator",
          "type": "address"
        },
        {
          "internalType": "bool",
          "name": "approved",
          "type": "bool"
        }
      ],
      "name": "setApprovalForAll",
      "outputs": [],
      "stateMutability": "nonpayable",
      "type": "function"
    },
    {
      "inputs": [
        {
          "internalType": "uint256",
          "name": "_royaltyBps",
          "type": "uint256"
        }
      ],
      "name": "setRoyaltyBps",
      "outputs": [],
      "stateMutability": "nonpayable",
      "type": "function"
    },
    {
      "inputs": [
        {
          "internalType": "bytes4",
          "name": "interfaceId",
          "type": "bytes4"
        }
      ],
      "name": "supportsInterface",
      "outputs": [
        {
          "internalType": "bool",
          "name": "",
          "type": "bool"
        }
      ],
      "stateMutability": "view",
      "type": "function"
    },
    {
      "inputs": [],
      "name": "unpause",
      "outputs": [],
      "stateMutability": "nonpayable",
      "type": "function"
    },
    {
      "inputs": [
        {
          "internalType": "uint256",
          "name": "",
          "type": "uint256"
        }
      ],
      "name": "uri",
      "outputs": [
        {
          "internalType": "string",
          "name": "",
          "type": "string"
        }
      ],
      "stateMutability": "view",
      "type": "function"
    }
  ],
  "bytecode": "0x60806040523480156200001157600080fd5b50604051620033d6380380620033d6833981016040819052620000349162000322565b60408051808201909152600e81526d697066733a2f2f4261736555524960901b602082015280620000658162000102565b506005805460ff191690556200007d6000336200011b565b620000a97f9f2df0fed2c77648de5860a4cc508cd0818c85b8b8a1ab4ceeef8d981c8956a6336200011b565b620000d57f65d7a28e3265b37a6474929f336521b332c1681b933f6cb9f3376673440d862a336200011b565b50600580546001600160a01b0390921661010002610100600160a81b031990921691909117905562000391565b8051620001179060049060208401906200027c565b5050565b6200013282826200015e60201b62000ffc1760201c565b6000828152600160209081526040909120620001599183906200100a6200016a821b17901c565b505050565b6200011782826200018a565b600062000181836001600160a01b0384166200022a565b90505b92915050565b6000828152602081815260408083206001600160a01b038516845290915290205460ff1662000117576000828152602081815260408083206001600160a01b03851684529091529020805460ff19166001179055620001e63390565b6001600160a01b0316816001600160a01b0316837f2f8788117e7eff1d82e926ec794901d17c78024a50270940304540a733656f0d60405160405180910390a45050565b6000818152600183016020526040812054620002735750815460018181018455600084815260208082209093018490558454848252828601909352604090209190915562000184565b50600062000184565b8280546200028a9062000354565b90600052602060002090601f016020900481019282620002ae5760008555620002f9565b82601f10620002c957805160ff1916838001178555620002f9565b82800160010185558215620002f9579182015b82811115620002f9578251825591602001919060010190620002dc565b50620003079291506200030b565b5090565b5b808211156200030757600081556001016200030c565b6000602082840312156200033557600080fd5b81516001600160a01b03811681146200034d57600080fd5b9392505050565b600181811c908216806200036957607f821691505b602082108114156200038b57634e487b7160e01b600052602260045260246000fd5b50919050565b61303580620003a16000396000f3fe608060405234801561001057600080fd5b50600436106101c35760003560e01c8063731133e9116100f9578063ca15c87311610097578063e63ab1e911610071578063e63ab1e91461041b578063e985e9c514610442578063f242432a1461047e578063f5298aca1461049157600080fd5b8063ca15c873146103ce578063d5391393146103e1578063d547741f1461040857600080fd5b806391d14854116100d357806391d1485414610373578063a217fddf146103aa578063a22cb465146103b2578063c63adb2b146103c557600080fd5b8063731133e91461032d5780638456cb59146103405780639010d07c1461034857600080fd5b80632eb2c2d6116101665780633f4ba83a116101405780633f4ba83a146102e75780634e1273f4146102ef5780635c975abb1461030f5780636b20c4541461031a57600080fd5b80632eb2c2d6146102ae5780632f2ff15d146102c157806336568abe146102d457600080fd5b80631f72d831116101a25780631f72d831146102315780631f7fdffa14610246578063248a9ca3146102595780632a55205a1461027c57600080fd5b8062fdd58e146101c857806301ffc9a7146101ee5780630e89341c14610211575b600080fd5b6101db6101d63660046125f6565b6104a4565b6040519081526020015b60405180910390f35b6102016101fc366004612638565b610552565b60405190151581526020016101e5565b61022461021f366004612655565b61055d565b6040516101e591906126c6565b61024461023f366004612655565b6105f1565b005b610244610254366004612825565b610738565b6101db610267366004612655565b60009081526020819052604090206001015490565b61028f61028a3660046128c0565b6107e6565b604080516001600160a01b0390931683526020830191909152016101e5565b6102446102bc3660046128e2565b610925565b6102446102cf366004612990565b6109c7565b6102446102e2366004612990565b6109ee565b610244610a10565b6103026102fd3660046129c0565b610ab6565b6040516101e59190612ac8565b60055460ff16610201565b610244610328366004612adb565b610bf4565b61024461033b366004612b51565b610c79565b610244610d21565b61035b6103563660046128c0565b610dc5565b6040516001600160a01b0390911681526020016101e5565b610201610381366004612990565b6000918252602082815260408084206001600160a01b0393909316845291905290205460ff1690565b6101db600081565b6102446103c0366004612ba8565b610de4565b6101db60065481565b6101db6103dc366004612655565b610ecf565b6101db7f9f2df0fed2c77648de5860a4cc508cd0818c85b8b8a1ab4ceeef8d981c8956a681565b610244610416366004612990565b610ee6565b6101db7f65d7a28e3265b37a6474929f336521b332c1681b933f6cb9f3376673440d862a81565b610201610450366004612bdb565b6001600160a01b03918216600090815260036020908152604080832093909416825291909152205460ff1690565b61024461048c366004612c09565b610ef0565b61024461049f366004612c72565b610f77565b60006001600160a01b0383166105275760405162461bcd60e51b815260206004820152602b60248201527f455243313135353a2062616c616e636520717565727920666f7220746865207a60448201527f65726f206164647265737300000000000000000000000000000000000000000060648201526084015b60405180910390fd5b5060008181526002602090815260408083206001600160a01b03861684529091529020545b92915050565b600061054c8261101f565b60606004805461056c90612ca7565b80601f016020809104026020016040519081016040528092919081815260200182805461059890612ca7565b80156105e55780601f106105ba576101008083540402835291602001916105e5565b820191906000526020600020905b8154815290600101906020018083116105c857829003601f168201915b50505050509050919050565b600560019054906101000a90046001600160a01b03166001600160a01b031663fd967f476040518163ffffffff1660e01b815260040160206040518083038186803b15801561063f57600080fd5b505afa158015610653573d6000803e3d6000fd5b505050506040513d601f19601f820116820180604052508101906106779190612ce2565b6fffffffffffffffffffffffffffffffff1681106106fd5760405162461bcd60e51b815260206004820152602a60248201527f4e46543a204270732070726f7669646564206d757374206265206c657373207460448201527f68616e2031302c30303000000000000000000000000000000000000000000000606482015260840161051e565b60068190556040518181527f244ea8d7627f5a08f4299862bd5a45752842c183aee5b0fb0d1e4887bfa605b39060200160405180910390a150565b6107627f9f2df0fed2c77648de5860a4cc508cd0818c85b8b8a1ab4ceeef8d981c8956a633610381565b6107d45760405162461bcd60e51b815260206004820152603860248201527f455243313135355072657365744d696e7465725061757365723a206d7573742060448201527f68617665206d696e74657220726f6c6520746f206d696e740000000000000000606482015260840161051e565b6107e08484848461105f565b50505050565b60055460405163f2aab4b360e01b815230600482015260009182916101009091046001600160a01b03169063f2aab4b39060240160206040518083038186803b15801561083257600080fd5b505afa158015610846573d6000803e3d6000fd5b505050506040513d601f19601f8201168201806040525081019061086a9190612d14565b9150600560019054906101000a90046001600160a01b03166001600160a01b031663fd967f476040518163ffffffff1660e01b815260040160206040518083038186803b1580156108ba57600080fd5b505afa1580156108ce573d6000803e3d6000fd5b505050506040513d601f19601f820116820180604052508101906108f29190612ce2565b6fffffffffffffffffffffffffffffffff16600654846109129190612d47565b61091c9190612d66565b90509250929050565b6001600160a01b03851633148061094157506109418533610450565b6109b35760405162461bcd60e51b815260206004820152603260248201527f455243313135353a207472616e736665722063616c6c6572206973206e6f742060448201527f6f776e6572206e6f7220617070726f7665640000000000000000000000000000606482015260840161051e565b6109c08585858585611235565b5050505050565b6109d182826114a4565b60008281526001602052604090206109e9908261100a565b505050565b6109f882826114ca565b60008281526001602052604090206109e99082611552565b610a3a7f65d7a28e3265b37a6474929f336521b332c1681b933f6cb9f3376673440d862a33610381565b610aac5760405162461bcd60e51b815260206004820152603b60248201527f455243313135355072657365744d696e7465725061757365723a206d7573742060448201527f686176652070617573657220726f6c6520746f20756e70617573650000000000606482015260840161051e565b610ab4611567565b565b60608151835114610b2f5760405162461bcd60e51b815260206004820152602960248201527f455243313135353a206163636f756e747320616e6420696473206c656e67746860448201527f206d69736d617463680000000000000000000000000000000000000000000000606482015260840161051e565b6000835167ffffffffffffffff811115610b4b57610b4b6126d9565b604051908082528060200260200182016040528015610b74578160200160208202803683370190505b50905060005b8451811015610bec57610bbf858281518110610b9857610b98612d88565b6020026020010151858381518110610bb257610bb2612d88565b60200260200101516104a4565b828281518110610bd157610bd1612d88565b6020908102919091010152610be581612d9e565b9050610b7a565b509392505050565b6001600160a01b038316331480610c105750610c108333610450565b610c6e5760405162461bcd60e51b815260206004820152602960248201527f455243313135353a2063616c6c6572206973206e6f74206f776e6572206e6f7260448201526808185c1c1c9bdd995960ba1b606482015260840161051e565b6109e9838383611603565b610ca37f9f2df0fed2c77648de5860a4cc508cd0818c85b8b8a1ab4ceeef8d981c8956a633610381565b610d155760405162461bcd60e51b815260206004820152603860248201527f455243313135355072657365744d696e7465725061757365723a206d7573742060448201527f68617665206d696e74657220726f6c6520746f206d696e740000000000000000606482015260840161051e565b6107e08484848461184d565b610d4b7f65d7a28e3265b37a6474929f336521b332c1681b933f6cb9f3376673440d862a33610381565b610dbd5760405162461bcd60e51b815260206004820152603960248201527f455243313135355072657365744d696e7465725061757365723a206d7573742060448201527f686176652070617573657220726f6c6520746f20706175736500000000000000606482015260840161051e565b610ab461195f565b6000828152600160205260408120610ddd90836119e7565b9392505050565b336001600160a01b0383161415610e635760405162461bcd60e51b815260206004820152602960248201527f455243313135353a2073657474696e6720617070726f76616c2073746174757360448201527f20666f722073656c660000000000000000000000000000000000000000000000606482015260840161051e565b3360008181526003602090815260408083206001600160a01b03871680855290835292819020805460ff191686151590811790915590519081529192917f17307eab39ab6107e8899845ad3d59bd9653f200f220920489ca2b5937696c31910160405180910390a35050565b600081815260016020526040812061054c906119f3565b6109f882826119fd565b6001600160a01b038516331480610f0c5750610f0c8533610450565b610f6a5760405162461bcd60e51b815260206004820152602960248201527f455243313135353a2063616c6c6572206973206e6f74206f776e6572206e6f7260448201526808185c1c1c9bdd995960ba1b606482015260840161051e565b6109c08585858585611a23565b6001600160a01b038316331480610f935750610f938333610450565b610ff15760405162461bcd60e51b815260206004820152602960248201527f455243313135353a2063616c6c6572206973206e6f74206f776e6572206e6f7260448201526808185c1c1c9bdd995960ba1b606482015260840161051e565b6109e9838383611bc5565b6110068282611d42565b5050565b6000610ddd836001600160a01b038416611de0565b60006001600160e01b03198216636cdb3d1360e11b148061105057506001600160e01b031982166303a24d0760e21b145b8061054c575061054c82611e2f565b6001600160a01b0384166110bf5760405162461bcd60e51b815260206004820152602160248201527f455243313135353a206d696e7420746f20746865207a65726f206164647265736044820152607360f81b606482015260840161051e565b81518351146111215760405162461bcd60e51b815260206004820152602860248201527f455243313135353a2069647320616e6420616d6f756e7473206c656e677468206044820152670dad2e6dac2e8c6d60c31b606482015260840161051e565b3361113181600087878787611e54565b60005b84518110156111cd5783818151811061114f5761114f612d88565b60200260200101516002600087848151811061116d5761116d612d88565b602002602001015181526020019081526020016000206000886001600160a01b03166001600160a01b0316815260200190815260200160002060008282546111b59190612db9565b909155508190506111c581612d9e565b915050611134565b50846001600160a01b031660006001600160a01b0316826001600160a01b03167f4a39dc06d4c0dbc64b70af90fd698a233a518aa5d07e595d983b8c0526c8f7fb878760405161121e929190612dd1565b60405180910390a46109c081600087878787611e62565b81518351146112975760405162461bcd60e51b815260206004820152602860248201527f455243313135353a2069647320616e6420616d6f756e7473206c656e677468206044820152670dad2e6dac2e8c6d60c31b606482015260840161051e565b6001600160a01b0384166112fb5760405162461bcd60e51b815260206004820152602560248201527f455243313135353a207472616e7366657220746f20746865207a65726f206164604482015264647265737360d81b606482015260840161051e565b3361130a818787878787611e54565b60005b845181101561143657600085828151811061132a5761132a612d88565b60200260200101519050600085838151811061134857611348612d88565b60209081029190910181015160008481526002835260408082206001600160a01b038e1683529093529190912054909150818110156113dc5760405162461bcd60e51b815260206004820152602a60248201527f455243313135353a20696e73756666696369656e742062616c616e636520666f60448201526939103a3930b739b332b960b11b606482015260840161051e565b60008381526002602090815260408083206001600160a01b038e8116855292528083208585039055908b1682528120805484929061141b908490612db9565b925050819055505050508061142f90612d9e565b905061130d565b50846001600160a01b0316866001600160a01b0316826001600160a01b03167f4a39dc06d4c0dbc64b70af90fd698a233a518aa5d07e595d983b8c0526c8f7fb8787604051611486929190612dd1565b60405180910390a461149c818787878787611e62565b505050505050565b6000828152602081905260409020600101546114c08133612017565b6109e98383611d42565b6001600160a01b03811633146115485760405162461bcd60e51b815260206004820152602f60248201527f416363657373436f6e74726f6c3a2063616e206f6e6c792072656e6f756e636560448201527f20726f6c657320666f722073656c660000000000000000000000000000000000606482015260840161051e565b6110068282612095565b6000610ddd836001600160a01b038416612114565b60055460ff166115b95760405162461bcd60e51b815260206004820152601460248201527f5061757361626c653a206e6f7420706175736564000000000000000000000000604482015260640161051e565b6005805460ff191690557f5db9ee0a495bf2e6ff9c91a7834c1ba4fdd244a5e8aa4e537bd38aeae4b073aa335b6040516001600160a01b03909116815260200160405180910390a1565b6001600160a01b0383166116655760405162461bcd60e51b815260206004820152602360248201527f455243313135353a206275726e2066726f6d20746865207a65726f206164647260448201526265737360e81b606482015260840161051e565b80518251146116c75760405162461bcd60e51b815260206004820152602860248201527f455243313135353a2069647320616e6420616d6f756e7473206c656e677468206044820152670dad2e6dac2e8c6d60c31b606482015260840161051e565b60003390506116ea81856000868660405180602001604052806000815250611e54565b60005b83518110156117ee57600084828151811061170a5761170a612d88565b60200260200101519050600084838151811061172857611728612d88565b60209081029190910181015160008481526002835260408082206001600160a01b038c1683529093529190912054909150818110156117b55760405162461bcd60e51b8152602060048201526024808201527f455243313135353a206275726e20616d6f756e7420657863656564732062616c604482015263616e636560e01b606482015260840161051e565b60009283526002602090815260408085206001600160a01b038b16865290915290922091039055806117e681612d9e565b9150506116ed565b5060006001600160a01b0316846001600160a01b0316826001600160a01b03167f4a39dc06d4c0dbc64b70af90fd698a233a518aa5d07e595d983b8c0526c8f7fb868660405161183f929190612dd1565b60405180910390a450505050565b6001600160a01b0384166118ad5760405162461bcd60e51b815260206004820152602160248201527f455243313135353a206d696e7420746f20746865207a65726f206164647265736044820152607360f81b606482015260840161051e565b336118cd816000876118be88612207565b6118c788612207565b87611e54565b60008481526002602090815260408083206001600160a01b0389168452909152812080548592906118ff908490612db9565b909155505060408051858152602081018590526001600160a01b0380881692600092918516917fc3d58168c5ae7397731d063d5bbf3d657854427343f4c083240f7aacaa2d0f62910160405180910390a46109c081600087878787612252565b60055460ff16156119b25760405162461bcd60e51b815260206004820152601060248201527f5061757361626c653a2070617573656400000000000000000000000000000000604482015260640161051e565b6005805460ff191660011790557f62e78cea01bee320cd4e420270b5ea74000d11b0c9f74754ebdbfc544b05a2586115e63390565b6000610ddd838361235d565b600061054c825490565b600082815260208190526040902060010154611a198133612017565b6109e98383612095565b6001600160a01b038416611a875760405162461bcd60e51b815260206004820152602560248201527f455243313135353a207472616e7366657220746f20746865207a65726f206164604482015264647265737360d81b606482015260840161051e565b33611a978187876118be88612207565b60008481526002602090815260408083206001600160a01b038a16845290915290205483811015611b1d5760405162461bcd60e51b815260206004820152602a60248201527f455243313135353a20696e73756666696369656e742062616c616e636520666f60448201526939103a3930b739b332b960b11b606482015260840161051e565b60008581526002602090815260408083206001600160a01b038b8116855292528083208785039055908816825281208054869290611b5c908490612db9565b909155505060408051868152602081018690526001600160a01b03808916928a821692918616917fc3d58168c5ae7397731d063d5bbf3d657854427343f4c083240f7aacaa2d0f62910160405180910390a4611bbc828888888888612252565b50505050505050565b6001600160a01b038316611c275760405162461bcd60e51b815260206004820152602360248201527f455243313135353a206275726e2066726f6d20746865207a65726f206164647260448201526265737360e81b606482015260840161051e565b33611c5681856000611c3887612207565b611c4187612207565b60405180602001604052806000815250611e54565b60008381526002602090815260408083206001600160a01b038816845290915290205482811015611cd55760405162461bcd60e51b8152602060048201526024808201527f455243313135353a206275726e20616d6f756e7420657863656564732062616c604482015263616e636560e01b606482015260840161051e565b60008481526002602090815260408083206001600160a01b03898116808652918452828520888703905582518981529384018890529092908616917fc3d58168c5ae7397731d063d5bbf3d657854427343f4c083240f7aacaa2d0f62910160405180910390a45050505050565b6000828152602081815260408083206001600160a01b038516845290915290205460ff16611006576000828152602081815260408083206001600160a01b03851684529091529020805460ff19166001179055611d9c3390565b6001600160a01b0316816001600160a01b0316837f2f8788117e7eff1d82e926ec794901d17c78024a50270940304540a733656f0d60405160405180910390a45050565b6000818152600183016020526040812054611e275750815460018181018455600084815260208082209093018490558454848252828601909352604090209190915561054c565b50600061054c565b60006001600160e01b03198216635a05180f60e01b148061054c575061054c82612387565b61149c8686868686866123bc565b6001600160a01b0384163b1561149c5760405163bc197c8160e01b81526001600160a01b0385169063bc197c8190611ea69089908990889088908890600401612dff565b602060405180830381600087803b158015611ec057600080fd5b505af1925050508015611ef0575060408051601f3d908101601f19168201909252611eed91810190612e5d565b60015b611fa657611efc612e7a565b806308c379a01415611f365750611f11612e96565b80611f1c5750611f38565b8060405162461bcd60e51b815260040161051e91906126c6565b505b60405162461bcd60e51b815260206004820152603460248201527f455243313135353a207472616e7366657220746f206e6f6e204552433131353560448201527f526563656976657220696d706c656d656e746572000000000000000000000000606482015260840161051e565b6001600160e01b0319811663bc197c8160e01b14611bbc5760405162461bcd60e51b815260206004820152602860248201527f455243313135353a204552433131353552656365697665722072656a656374656044820152676420746f6b656e7360c01b606482015260840161051e565b6000828152602081815260408083206001600160a01b038516845290915290205460ff1661100657612053816001600160a01b03166014612435565b61205e836020612435565b60405160200161206f929190612f20565b60408051601f198184030181529082905262461bcd60e51b825261051e916004016126c6565b6000828152602081815260408083206001600160a01b038516845290915290205460ff1615611006576000828152602081815260408083206001600160a01b0385168085529252808320805460ff1916905551339285917ff6391f5c32d9c69d2a47ea670b442974b53935d1edc7fd64eb21e047a839171b9190a45050565b600081815260018301602052604081205480156121fd576000612138600183612fa1565b855490915060009061214c90600190612fa1565b90508181146121b157600086600001828154811061216c5761216c612d88565b906000526020600020015490508087600001848154811061218f5761218f612d88565b6000918252602080832090910192909255918252600188019052604090208390555b85548690806121c2576121c2612fb8565b60019003818190600052602060002001600090559055856001016000868152602001908152602001600020600090556001935050505061054c565b600091505061054c565b6040805160018082528183019092526060916000919060208083019080368337019050509050828160008151811061224157612241612d88565b602090810291909101015292915050565b6001600160a01b0384163b1561149c5760405163f23a6e6160e01b81526001600160a01b0385169063f23a6e61906122969089908990889088908890600401612fce565b602060405180830381600087803b1580156122b057600080fd5b505af19250505080156122e0575060408051601f3d908101601f191682019092526122dd91810190612e5d565b60015b6122ec57611efc612e7a565b6001600160e01b0319811663f23a6e6160e01b14611bbc5760405162461bcd60e51b815260206004820152602860248201527f455243313135353a204552433131353552656365697665722072656a656374656044820152676420746f6b656e7360c01b606482015260840161051e565b600082600001828154811061237457612374612d88565b9060005260206000200154905092915050565b60006001600160e01b03198216637965db0b60e01b148061054c57506301ffc9a760e01b6001600160e01b031983161461054c565b60055460ff161561149c5760405162461bcd60e51b815260206004820152602c60248201527f455243313135355061757361626c653a20746f6b656e207472616e736665722060448201527f7768696c65207061757365640000000000000000000000000000000000000000606482015260840161051e565b60606000612444836002612d47565b61244f906002612db9565b67ffffffffffffffff811115612467576124676126d9565b6040519080825280601f01601f191660200182016040528015612491576020820181803683370190505b509050600360fc1b816000815181106124ac576124ac612d88565b60200101906001600160f81b031916908160001a905350600f60fb1b816001815181106124db576124db612d88565b60200101906001600160f81b031916908160001a90535060006124ff846002612d47565b61250a906001612db9565b90505b600181111561258f577f303132333435363738396162636465660000000000000000000000000000000085600f166010811061254b5761254b612d88565b1a60f81b82828151811061256157612561612d88565b60200101906001600160f81b031916908160001a90535060049490941c9361258881613011565b905061250d565b508315610ddd5760405162461bcd60e51b815260206004820181905260248201527f537472696e67733a20686578206c656e67746820696e73756666696369656e74604482015260640161051e565b6001600160a01b03811681146125f357600080fd5b50565b6000806040838503121561260957600080fd5b8235612614816125de565b946020939093013593505050565b6001600160e01b0319811681146125f357600080fd5b60006020828403121561264a57600080fd5b8135610ddd81612622565b60006020828403121561266757600080fd5b5035919050565b60005b83811015612689578181015183820152602001612671565b838111156107e05750506000910152565b600081518084526126b281602086016020860161266e565b601f01601f19169290920160200192915050565b602081526000610ddd602083018461269a565b634e487b7160e01b600052604160045260246000fd5b601f8201601f1916810167ffffffffffffffff81118282101715612715576127156126d9565b6040525050565b600067ffffffffffffffff821115612736576127366126d9565b5060051b60200190565b600082601f83011261275157600080fd5b8135602061275e8261271c565b60405161276b82826126ef565b83815260059390931b850182019282810191508684111561278b57600080fd5b8286015b848110156127a6578035835291830191830161278f565b509695505050505050565b600082601f8301126127c257600080fd5b813567ffffffffffffffff8111156127dc576127dc6126d9565b6040516127f3601f8301601f1916602001826126ef565b81815284602083860101111561280857600080fd5b816020850160208301376000918101602001919091529392505050565b6000806000806080858703121561283b57600080fd5b8435612846816125de565b9350602085013567ffffffffffffffff8082111561286357600080fd5b61286f88838901612740565b9450604087013591508082111561288557600080fd5b61289188838901612740565b935060608701359150808211156128a757600080fd5b506128b4878288016127b1565b91505092959194509250565b600080604083850312156128d357600080fd5b50508035926020909101359150565b600080600080600060a086880312156128fa57600080fd5b8535612905816125de565b94506020860135612915816125de565b9350604086013567ffffffffffffffff8082111561293257600080fd5b61293e89838a01612740565b9450606088013591508082111561295457600080fd5b61296089838a01612740565b9350608088013591508082111561297657600080fd5b50612983888289016127b1565b9150509295509295909350565b600080604083850312156129a357600080fd5b8235915060208301356129b5816125de565b809150509250929050565b600080604083850312156129d357600080fd5b823567ffffffffffffffff808211156129eb57600080fd5b818501915085601f8301126129ff57600080fd5b81356020612a0c8261271c565b604051612a1982826126ef565b83815260059390931b8501820192828101915089841115612a3957600080fd5b948201945b83861015612a60578535612a51816125de565b82529482019490820190612a3e565b96505086013592505080821115612a7657600080fd5b50612a8385828601612740565b9150509250929050565b600081518084526020808501945080840160005b83811015612abd57815187529582019590820190600101612aa1565b509495945050505050565b602081526000610ddd6020830184612a8d565b600080600060608486031215612af057600080fd5b8335612afb816125de565b9250602084013567ffffffffffffffff80821115612b1857600080fd5b612b2487838801612740565b93506040860135915080821115612b3a57600080fd5b50612b4786828701612740565b9150509250925092565b60008060008060808587031215612b6757600080fd5b8435612b72816125de565b93506020850135925060408501359150606085013567ffffffffffffffff811115612b9c57600080fd5b6128b4878288016127b1565b60008060408385031215612bbb57600080fd5b8235612bc6816125de565b9150602083013580151581146129b557600080fd5b60008060408385031215612bee57600080fd5b8235612bf9816125de565b915060208301356129b5816125de565b600080600080600060a08688031215612c2157600080fd5b8535612c2c816125de565b94506020860135612c3c816125de565b93506040860135925060608601359150608086013567ffffffffffffffff811115612c6657600080fd5b612983888289016127b1565b600080600060608486031215612c8757600080fd5b8335612c92816125de565b95602085013595506040909401359392505050565b600181811c90821680612cbb57607f821691505b60208210811415612cdc57634e487b7160e01b600052602260045260246000fd5b50919050565b600060208284031215612cf457600080fd5b81516fffffffffffffffffffffffffffffffff81168114610ddd57600080fd5b600060208284031215612d2657600080fd5b8151610ddd816125de565b634e487b7160e01b600052601160045260246000fd5b6000816000190483118215151615612d6157612d61612d31565b500290565b600082612d8357634e487b7160e01b600052601260045260246000fd5b500490565b634e487b7160e01b600052603260045260246000fd5b6000600019821415612db257612db2612d31565b5060010190565b60008219821115612dcc57612dcc612d31565b500190565b604081526000612de46040830185612a8d565b8281036020840152612df68185612a8d565b95945050505050565b60006001600160a01b03808816835280871660208401525060a06040830152612e2b60a0830186612a8d565b8281036060840152612e3d8186612a8d565b90508281036080840152612e51818561269a565b98975050505050505050565b600060208284031215612e6f57600080fd5b8151610ddd81612622565b600060033d1115612e935760046000803e5060005160e01c5b90565b600060443d1015612ea45790565b6040516003193d81016004833e81513d67ffffffffffffffff8160248401118184111715612ed457505050505090565b8285019150815181811115612eec5750505050505090565b843d8701016020828501011115612f065750505050505090565b612f15602082860101876126ef565b509095945050505050565b7f416363657373436f6e74726f6c3a206163636f756e7420000000000000000000815260008351612f5881601785016020880161266e565b7f206973206d697373696e6720726f6c65200000000000000000000000000000006017918401918201528351612f9581602884016020880161266e565b01602801949350505050565b600082821015612fb357612fb3612d31565b500390565b634e487b7160e01b600052603160045260246000fd5b60006001600160a01b03808816835280871660208401525084604083015283606083015260a0608083015261300660a083018461269a565b979650505050505050565b60008161302057613020612d31565b50600019019056fea164736f6c6343000809000a",
  "linkReferences": {},
  "deployedLinkReferences": {}
}